01REMESSA01COBRANCA       00000000000008017025HB SANTOS CONSTRUTORA E INCORP237BRADESCO       070122        MX0000145                                                                                                                                                                                                                                                                                     000001
100000000000000000000009033990000627000000000000000000000000010002020025035101221700000000002            2  01250351012224012200000002599050000000001N070122000000000000000000000000000000000000000000000000000000000000000100025035170802WANDERSON LUIS DE CARVALHO              RUA JOAQUIM GONCALVES ROCHA - 302 - JARD            02859030                                                            000002
2SR. CAIXA, APOS O VENCIMENTO COBRAR 2% DE MULTA                                 NAO RECEBER APOS 30 DIAS DO VENCIMENTO.                                                                                                                                                                                                         07012200000000000000701220000000000000       0090339900006270250351012217000003
100000000000000000000009033990000627000000000000000000000000010002020007294301221400000000002            2  01072943012224012200000003495720000000001N070122000000000000000000000000000000000000000000000000000000000000000100007294351805CLAUDENIR APARECIDO VACARI              RUA CARLOS JOSE BORSTENS - 50 AP.93 - AV            11702750                                                            000005
2SR. CAIXA, APOS O VENCIMENTO COBRAR 2% DE MULTA                                 NAO RECEBER APOS 30 DIAS DO VENCIMENTO.                                                                                                                                                                                                         07012200000000000000701220000000000000       0090339900006270072943012214000006
100000000000000000000009033990000627000000000000000000000000010002020007525001221P00000000002            2  01075250012224012200000003910130000000001N070122000000000000000000000000000000000000000000000000000000000000000100007525032866FERNANDO RIBEIRO                        RUA CARLOS JOSE BORSTENS - 50 AP.32 - AV            11702750                                                            000008
2SR. CAIXA, APOS O VENCIMENTO COBRAR 2% DE MULTA                                 NAO RECEBER APOS 30 DIAS DO VENCIMENTO.                                                                                                                                                                                                         07012200000000000000701220000000000000       009033990000627007525001221P000009
100000000000000000000009033990000627000000000000000000000000010002020005071401221500000000002            2  01050714012224012200000003429950000000001N070122000000000000000000000000000000000000000000000000000000000000000100005071481855ERIBALDO SANTANA CARVALHO               RUA HONDURAS - 477 - PARQUE DAS AMERICAS            09351070                                                            000011
2SR. CAIXA, APOS O VENCIMENTO COBRAR 2% DE MULTA                                 NAO RECEBER APOS 30 DIAS DO VENCIMENTO.                                                                                                                                                                                                         07012200000000000000701220000000000000       0090339900006270050714012215000012
100000000000000000000009033990000627000000000000000000000000010002020002841701221900000000002            2  01028417012224012200000003209020000000001N070122000000000000000000000000000000000000000000000000000000000000000100002841756416LUCIANA PINHEIRO DE ASSIS NUNES         RUA RIO ACIMA - 81 - RIACHO GRANDE - SAO            09830100                                                            000014
2SR. CAIXA, APOS O VENCIMENTO COBRAR 2% DE MULTA                                 NAO RECEBER APOS 30 DIAS DO VENCIMENTO.                                                                                                                                                                                                         07012200000000000000701220000000000000       0090339900006270028417012219000015
100000000000000000000009033990000627000000000000000000000000010002020084302001221800000000002            2  01843020012224012200000003224410000000001N070122000000000000000000000000000000000000000000000000000000000000000100084302097868FAUSTO TADEU VILOR                      RUA ANTONIO TAVARES - 466 - BAIRRO CAMBU            01542010                                                            000017
2SR. CAIXA, APOS O VENCIMENTO COBRAR 2% DE MULTA                                 NAO RECEBER APOS 30 DIAS DO VENCIMENTO.                                                                                                                                                                                                         07012200000000000000701220000000000000       0090339900006270843020012218000018
100000000000000000000009033990000627000000000000000000000000010002020028804201221800000000002            2  01288042012224012200000003168020000000001N070122000000000000000000000000000000000000000000000000000000000000000100028804202882GILBERTO FABIANO CABRAL DE CAMARGO      RUA CARLOS JOSE BORSTENS - 50 AP.44 - AV            11702750                                                            000020
2SR. CAIXA, APOS O VENCIMENTO COBRAR 2% DE MULTA                                 NAO RECEBER APOS 30 DIAS DO VENCIMENTO.                                                                                                                                                                                                         07012200000000000000701220000000000000       0090339900006270288042012218000021
100000000000000000000009033990000627000000000000000000000000010002020000991701221000000000002            2  01009917012224012200000003092110000000001N070122000000000000000000000000000000000000000000000000000000000000000100000991748808JAILSON BORGES DE ANDRADE               RUA IPIOBUNA - 45 - JARDIM CUMBICA - GUA            07240040                                                            000023
2SR. CAIXA, APOS O VENCIMENTO COBRAR 2% DE MULTA                                 NAO RECEBER APOS 30 DIAS DO VENCIMENTO.                                                                                                                                                                                                         07012200000000000000701220000000000000       0090339900006270009917012210000024
100000000000000000000009033990000627000000000000000000000000010002020022151601221700000000002            2  01221516012224012200000003074150000000001N070122000000000000000000000000000000000000000000000000000000000000000100022151666816SAMIR LIMA DE ARAUJO                    AVENIDA GUARAPIRANGA - 2616 AP.131 BL.14            04902005                                                            000026
2SR. CAIXA, APOS O VENCIMENTO COBRAR 2% DE MULTA                                 NAO RECEBER APOS 30 DIAS DO VENCIMENTO.                                                                                                                                                                                                         07012200000000000000701220000000000000       0090339900006270221516012217000027
100000000000000000000009033990000627000000000000000000000000010002020022313101221900000000002            2  01223131012226012200000008772560000000001N070122000000000000000000000000000000000000000000000000000000000000000100022313116824ROSA MARIA BRITO DA SILVA               RUA SERVIDAO DE SAO MARCOS - 113 - JARDI            04930300                                                            000029
2SR. CAIXA, APOS O VENCIMENTO COBRAR 2% DE MULTA                                 NAO RECEBER APOS 30 DIAS DO VENCIMENTO.                                                                                                                                                                                                         07012200000000000000701220000000000000       0090339900006270223131012219000030
100000000000000000000009033990000627000000000000000000000000010002020027538001221000000000002            2  01275380012226012200000002373730000000001N070122000000000000000000000000000000000000000000000000000000000000000100027538087249MARA LUCIA MENEZES DA COSTA             RUA LEILA  - 183 - ITAQUERA - SAO PAULO             08240020                                                            000032
2SR. CAIXA, APOS O VENCIMENTO COBRAR 2% DE MULTA                                 NAO RECEBER APOS 30 DIAS DO VENCIMENTO.                                                                                                                                                                                                         07012200000000000000701220000000000000       0090339900006270275380012210000033
100000000000000000000009033990000627000000000000000000000000010002020031278401221700000000002            2  01312784012224012200000002969730000000001N070122000000000000000000000000000000000000000000000000000000000000000100031278411836JEFFERSON DE PIERI PIRES ZAMUNER        RUA MANOEL ARCE - 277 - PARQUE BANCARIO             03922150                                                            000035
2SR. CAIXA, APOS O VENCIMENTO COBRAR 2% DE MULTA                                 NAO RECEBER APOS 30 DIAS DO VENCIMENTO.                                                                                                                                                                                                         07012200000000000000701220000000000000       0090339900006270312784012217000036
100000000000000000000009033990000627000000000000000000000000010002020019185701221900000000002            2  01191857012226012200000002160160000000001N070122000000000000000000000000000000000000000000000000000000000000000100019185769800AGUINALDO PESSOA DE LIMA                RUA JANUARIO ZINGARO - 252 AP.303 BL.04             05794300                                                            000038
2SR. CAIXA, APOS O VENCIMENTO COBRAR 2% DE MULTA                                 NAO RECEBER APOS 30 DIAS DO VENCIMENTO.                                                                                                                                                                                                         07012200000000000000701220000000000000       0090339900006270191857012219000039
100000000000000000000009033990000627000000000000000000000000010002020033303601221P00000000002            2  01333036012226012200000002326660000000001N070122000000000000000000000000000000000000000000000000000000000000000100033303645809JESSICA DA SILVA FREITAS                RUA ARILDO VALADAO - 120 - JARDIM GUAEMB            04814600                                                            000041
2SR. CAIXA, APOS O VENCIMENTO COBRAR 2% DE MULTA                                 NAO RECEBER APOS 30 DIAS DO VENCIMENTO.                                                                                                                                                                                                         07012200000000000000701220000000000000       009033990000627033303601221P000042
100000000000000000000009033990000627000000000000000000000000010002020006422601221500000000002            2  01064226012224012200000003216280000000001N070122000000000000000000000000000000000000000000000000000000000000000100006422607881GERALDO ALVES DA SILVA                  RUA CARLOS JOSE BORSTENS - 50 AP.14 - AV            11702750                                                            000044
2SR. CAIXA, APOS O VENCIMENTO COBRAR 2% DE MULTA                                 NAO RECEBER APOS 30 DIAS DO VENCIMENTO.                                                                                                                                                                                                         07012200000000000000701220000000000000       0090339900006270064226012215000045
100000000000000000000009033990000627000000000000000000000000010002020033877101221700000000002            2  01338771012226012200000002181320000000001N070122000000000000000000000000000000000000000000000000000000000000000100033877129870HELDER FERREIRA VIANA                   RUA JOSE CALIXTO DO CARMO - 286 AP.35 -             11702690                                                            000047
2SR. CAIXA, APOS O VENCIMENTO COBRAR 2% DE MULTA                                 NAO RECEBER APOS 30 DIAS DO VENCIMENTO.                                                                                                                                                                                                         07012200000000000000701220000000000000       0090339900006270338771012217000048
100000000000000000000009033990000627000000000000000000000000010002020028290701221000000000002            2  01282907012226012200000002010380000000001N070122000000000000000000000000000000000000000000000000000000000000000100028290719809VANESSA GIANGARRELLI PEREIRA            RUA BARINEL - 72 - JARDIM COTCHING - SAO            03462130                                                            000050
2SR. CAIXA, APOS O VENCIMENTO COBRAR 2% DE MULTA                                 NAO RECEBER APOS 30 DIAS DO VENCIMENTO.                                                                                                                                                                                                         07012200000000000000701220000000000000       0090339900006270282907012210000051
100000000000000000000009033990000627000000000000000000000000010002020087573001221600000000002            2  01875730012226012200000002195300000000001N070122000000000000000000000000000000000000000000000000000000000000000100087573059604VANDERLEY DE ASSIS                      RUA ROMEU ALBANI - 268 - JARDIM PARQUE R            13803810                                                            000053
2SR. CAIXA, APOS O VENCIMENTO COBRAR 2% DE MULTA                                 NAO RECEBER APOS 30 DIAS DO VENCIMENTO.                                                                                                                                                                                                         07012200000000000000701220000000000000       0090339900006270875730012216000054
100000000000000000000009033990000627000000000000000000000000010002020010825501221300000000002            2  01108255012226012200000002290900000000001N070122000000000000000000000000000000000000000000000000000000000000000100010825513847JOSE APARECIDO PEREIRA                  RUA GENERAL OSORIO - 305 - JARDIM TRINTA            11515130                                                            000056
2SR. CAIXA, APOS O VENCIMENTO COBRAR 2% DE MULTA                                 NAO RECEBER APOS 30 DIAS DO VENCIMENTO.                                                                                                                                                                                                         07012200000000000000701220000000000000       0090339900006270108255012213000057
100000000000000000000009033990000627000000000000000000000000010002020039115101221500000000002            2  01391151012226012200000002823940000000001N070122000000000000000000000000000000000000000000000000000000000000000100039115139840LAIS CRISTINA RIBEIRO ANDO              RUA JOSE CALIXTO DO CARMO - 286 AP.65 -             11702690                                                            000059
2SR. CAIXA, APOS O VENCIMENTO COBRAR 2% DE MULTA                                 NAO RECEBER APOS 30 DIAS DO VENCIMENTO.                                                                                                                                                                                                         07012200000000000000701220000000000000       0090339900006270391151012215000060
100000000000000000000009033990000627000000000000000000000000010002020029617501221300000000002            2  01296175012224012200000003156870000000001N070122000000000000000000000000000000000000000000000000000000000000000100029617510553MARILENE SOUZA DE OLIVEIRA              AVENIDA BRASIL - 393 AP.09 - PARQUE DAS             09210280                                                            000062
2SR. CAIXA, APOS O VENCIMENTO COBRAR 2% DE MULTA                                 NAO RECEBER APOS 30 DIAS DO VENCIMENTO.                                                                                                                                                                                                         07012200000000000000701220000000000000       0090339900006270296175012213000063
100000000000000000000009033990000627000000000000000000000000010002020000593201221300000000002            2  01005932012224012200000003462320000000001N070122000000000000000000000000000000000000000000000000000000000000000100000593293860WALTER HELIO BARBOSA FILHO              AVENIDA ANTONIO FREDERICO OZANAN - 9500             13214206                                                            000065
2SR. CAIXA, APOS O VENCIMENTO COBRAR 2% DE MULTA                                 NAO RECEBER APOS 30 DIAS DO VENCIMENTO.                                                                                                                                                                                                         07012200000000000000701220000000000000       0090339900006270005932012213000066
100000000000000000000009033990000627000000000000000000000000010002020065584101221500000000002            2  01655841012224012200000001817540000000001N070122000000000000000000000000000000000000000000000000000000000000000100065584147834JOAQUIM DA COSTA MACHADO NETO           RUA CARLOS JOSE BORSTENS - 50 AP.42 - AV            11702750                                                            000068
2SR. CAIXA, APOS O VENCIMENTO COBRAR 2% DE MULTA                                 NAO RECEBER APOS 30 DIAS DO VENCIMENTO.                                                                                                                                                                                                         07012200000000000000701220000000000000       0090339900006270655841012215000069
100000000000000000000009033990000627000000000000000000000000010002020065584101222300000000002            2  01655841012224012200000001817530000000001N070122000000000000000000000000000000000000000000000000000000000000000100065584147834JOAQUIM DA COSTA MACHADO NETO           RUA CARLOS JOSE BORSTENS - 50 AP.42 - AV            11702750                                                            000071
2SR. CAIXA, APOS O VENCIMENTO COBRAR 2% DE MULTA                                 NAO RECEBER APOS 30 DIAS DO VENCIMENTO.                                                                                                                                                                                                         07012200000000000000701220000000000000       0090339900006270655841012223000072
100000000000000000000009033990000627000000000000000000000000010002020006684601221800000000002            2  01066846012226012200000002326380000000001N070122000000000000000000000000000000000000000000000000000000000000000100006684623884LAUDINOR VIEIRA GARCIA                  RUA CANDIDO SALES - 374 - JARDIM PRESIDE            07172000                                                            000074
2SR. CAIXA, APOS O VENCIMENTO COBRAR 2% DE MULTA                                 NAO RECEBER APOS 30 DIAS DO VENCIMENTO.                                                                                                                                                                                                         07012200000000000000701220000000000000       0090339900006270066846012218000075
100000000000000000000009033990000627000000000000000000000000010002020011663501221900000000002            2  01116635012226012200000002343120000000001N070122000000000000000000000000000000000000000000000000000000000000000100011663589844MARIA SAVIO QUARELLO                    AVENIDA MENDONCA DRUMOND - 321 - JARDIM             03524030                                                            000077
2SR. CAIXA, APOS O VENCIMENTO COBRAR 2% DE MULTA                                 NAO RECEBER APOS 30 DIAS DO VENCIMENTO.                                                                                                                                                                                                         07012200000000000000701220000000000000       0090339900006270116635012219000078
100000000000000000000009033990000627000000000000000000000000010002020010083801221000000000002            2  01100838012226012200000002263840000000001N070122000000000000000000000000000000000000000000000000000000000000000100010083824855IONE FERREIRA COUTO DA SILVA            RUA JOSE RAGEL DE MESQUITA - 60 CS.01 -             07799999                                                            000080
2SR. CAIXA, APOS O VENCIMENTO COBRAR 2% DE MULTA                                 NAO RECEBER APOS 30 DIAS DO VENCIMENTO.                                                                                                                                                                                                         07012200000000000000701220000000000000       0090339900006270100838012210000081
100000000000000000000009033990000627000000000000000000000000010002020031010701221600000000002            2  01310107012226012200000002221570000000001N070122000000000000000000000000000000000000000000000000000000000000000100031010705890ANDRE GONZALEZ RABELLO                  RUA PARAIBA - 106 AP.61 - POMPEIA - SANT            11065470                                                            000083
2SR. CAIXA, APOS O VENCIMENTO COBRAR 2% DE MULTA                                 NAO RECEBER APOS 30 DIAS DO VENCIMENTO.                                                                                                                                                                                                         07012200000000000000701220000000000000       0090339900006270310107012216000084
100000000000000000000009033990000627000000000000000000000000010002020005351001221500000000002            2  01053510012226012200000002082940000000001N070122000000000000000000000000000000000000000000000000000000000000000100005351015897VALERIA ALVES MARCOLINO HINNIGER        RUA JOSE CALIXTO DO CARMO - 286 AP.92 -             11702690                                                            000086
2SR. CAIXA, APOS O VENCIMENTO COBRAR 2% DE MULTA                                 NAO RECEBER APOS 30 DIAS DO VENCIMENTO.                                                                                                                                                                                                         07012200000000000000701220000000000000       0090339900006270053510012215000087
100000000000000000000009033990000627000000000000000000000000010002020031898701221000000000002            2  01318987012224012200000003312890000000001N070122000000000000000000000000000000000000000000000000000000000000000100031898775800ANITA MARTINS COLOMBO                   RUA CARLOS JOSE BORSTENS - 50 AP.115 - A            11702750                                                            000089
2SR. CAIXA, APOS O VENCIMENTO COBRAR 2% DE MULTA                                 NAO RECEBER APOS 30 DIAS DO VENCIMENTO.                                                                                                                                                                                                         07012200000000000000701220000000000000       0090339900006270318987012210000090
100000000000000000000009033990000627000000000000000000000000010002020037983401221000000000002            2  01379834012226012200000002446800000000001N070122000000000000000000000000000000000000000000000000000000000000000100037983484801JOSE ERIVALDO SOUZA DO NASCIMENTO RAMOS RUA LETICIA - 250 - JARDIM GUARUJA - SAO            05877260                                                            000092
2SR. CAIXA, APOS O VENCIMENTO COBRAR 2% DE MULTA                                 NAO RECEBER APOS 30 DIAS DO VENCIMENTO.                                                                                                                                                                                                         07012200000000000000701220000000000000       0090339900006270379834012210000093
100000000000000000000009033990000627000000000000000000000000010002020056289201221100000000002            2  01562892012226012200000001848410000000001N070122000000000000000000000000000000000000000000000000000000000000000100056289286900PEDRO RIBEIRO                           RUA CONEGO MANOEL VAZ - 48 - SANTANA - S            02019050                                                            000095
2SR. CAIXA, APOS O VENCIMENTO COBRAR 2% DE MULTA                                 NAO RECEBER APOS 30 DIAS DO VENCIMENTO.                                                                                                                                                                                                         07012200000000000000701220000000000000       0090339900006270562892012211000096
100000000000000000000009033990000627000000000000000000000000010002020034735301221800000000002            2  01347353012226012200000002536850000000001N070122000000000000000000000000000000000000000000000000000000000000000100034735328866DIEGO FELIPE MOLINA DA SILVA E SOUSA    RUA EMILIA PAULISTA - 135 - VILA TIRADEN            05364020                                                            000098
2SR. CAIXA, APOS O VENCIMENTO COBRAR 2% DE MULTA                                 NAO RECEBER APOS 30 DIAS DO VENCIMENTO.                                                                                                                                                                                                         07012200000000000000701220000000000000       0090339900006270347353012218000099
100000000000000000000009033990000627000000000000000000000000010002020076175601221900000000002            2  01761756012224012200000004597590000000001N070122000000000000000000000000000000000000000000000000000000000000000100076175685687GILMAR DE OLIVEIRA BRAGA                RUA MARACAJU - 161 AP.202 - NOVA GRANADA            30431350                                                            000101
2SR. CAIXA, APOS O VENCIMENTO COBRAR 2% DE MULTA                                 NAO RECEBER APOS 30 DIAS DO VENCIMENTO.                                                                                                                                                                                                         07012200000000000000701220000000000000       0090339900006270761756012219000102
100000000000000000000009033990000627000000000000000000000000010002020034812201221100000000002            2  01348122012224012200000004384760000000001N070122000000000000000000000000000000000000000000000000000000000000000100034812226880THAIS TORQUATO MIMOSO DE JESUS          RUA ARNALDO CINTRA - 416 AP.104 TORRE 2             03088000                                                            000104
2SR. CAIXA, APOS O VENCIMENTO COBRAR 2% DE MULTA                                 NAO RECEBER APOS 30 DIAS DO VENCIMENTO.                                                                                                                                                                                                         07012200000000000000701220000000000000       0090339900006270348122012211000105
100000000000000000000009033990000627000000000000000000000000010002020012849401221800000000002            2  01128494012226012200000004370310000000001N070122000000000000000000000000000000000000000000000000000000000000000100012849428809MOISES CLAUDIO DO ROSARIO               AVENIDA DR. AUGUSTO DE TOLEDO - 510 AP.1            09541520                                                            000107
2SR. CAIXA, APOS O VENCIMENTO COBRAR 2% DE MULTA                                 NAO RECEBER APOS 30 DIAS DO VENCIMENTO.                                                                                                                                                                                                         07012200000000000000701220000000000000       0090339900006270128494012218000108
100000000000000000000009033990000627000000000000000000000000010002020015702301221800000000002            2  01157023012226012200000002424730000000001N070122000000000000000000000000000000000000000000000000000000000000000100015702353846MARIA DE LOURDES DE MACENO SOUZA        RUA JOSE CALIXTO DO CARMO - 286 AP.83 -             11702690                                                            000110
2SR. CAIXA, APOS O VENCIMENTO COBRAR 2% DE MULTA                                 NAO RECEBER APOS 30 DIAS DO VENCIMENTO.                                                                                                                                                                                                         07012200000000000000701220000000000000       0090339900006270157023012218000111
100000000000000000000009033990000627000000000000000000000000010002020003658601221200000000002            2  01036586012226012200000001805460000000001N070122000000000000000000000000000000000000000000000000000000000000000100003658668814MARINEZ VALENTIN                        RUA JOSE CALIXTO DO CARMO - 286 AP.95 -             11702690                                                            000113
2SR. CAIXA, APOS O VENCIMENTO COBRAR 2% DE MULTA                                 NAO RECEBER APOS 30 DIAS DO VENCIMENTO.                                                                                                                                                                                                         07012200000000000000701220000000000000       0090339900006270036586012212000114
100000000000000000000009033990000627000000000000000000000000010002020003658601222000000000002            2  01036586012226012200000001805450000000001N070122000000000000000000000000000000000000000000000000000000000000000100003658668814MARINEZ VALENTIN                        RUA JOSE CALIXTO DO CARMO - 286 AP.95 -             11702690                                                            000116
2SR. CAIXA, APOS O VENCIMENTO COBRAR 2% DE MULTA                                 NAO RECEBER APOS 30 DIAS DO VENCIMENTO.                                                                                                                                                                                                         07012200000000000000701220000000000000       0090339900006270036586012220000117
100000000000000000000009033990000627000000000000000000000000010002020014087401221000000000002            2  01140874012226012200000002412850000000001N070122000000000000000000000000000000000000000000000000000000000000000100014087484874SERGIO SANTOS DO NASCIMENTO             RUA JOSE CALIXTO DO CARMO - 286 AP.52 -             11702690                                                            000119
2SR. CAIXA, APOS O VENCIMENTO COBRAR 2% DE MULTA                                 NAO RECEBER APOS 30 DIAS DO VENCIMENTO.                                                                                                                                                                                                         07012200000000000000701220000000000000       0090339900006270140874012210000120
100000000000000000000009033990000627000000000000000000000000010002020026834501221P00000000002            2  01268345012226012200000002223150000000001N070122000000000000000000000000000000000000000000000000000000000000000100026834550895RAQUEL CARDOSO JOAO                     RUA PEDROSO XAVIER - 277 AP.23 TORRE 01             02732020                                                            000122
2SR. CAIXA, APOS O VENCIMENTO COBRAR 2% DE MULTA                                 NAO RECEBER APOS 30 DIAS DO VENCIMENTO.                                                                                                                                                                                                         07012200000000000000701220000000000000       009033990000627026834501221P000123
100000000000000000000009033990000627000000000000000000000000010002020039540001221800000000002            2  01395400012226012200000002185660000000001N070122000000000000000000000000000000000000000000000000000000000000000100039540008816LUZINETE CLARINDO SILVA                 RUA DEINOS - 275 - BAIRRO CIDADE SATELIT            08340100                                                            000125
2SR. CAIXA, APOS O VENCIMENTO COBRAR 2% DE MULTA                                 NAO RECEBER APOS 30 DIAS DO VENCIMENTO.                                                                                                                                                                                                         07012200000000000000701220000000000000       0090339900006270395400012218000126
100000000000000000000009033990000627000000000000000000000000010002020003311001221500000000002            2  01033110012226012200000002276100000000001N070122000000000000000000000000000000000000000000000000000000000000000100003311030877SEBASTIAO SARUVA NETO                   RUA HAMILTON REGIS - 559 - BAIRRO DO LIM            08051440                                                            000128
2SR. CAIXA, APOS O VENCIMENTO COBRAR 2% DE MULTA                                 NAO RECEBER APOS 30 DIAS DO VENCIMENTO.                                                                                                                                                                                                         07012200000000000000701220000000000000       0090339900006270033110012215000129
100000000000000000000009033990000627000000000000000000000000010002020090091901221100000000002            2  01900919012226012200000002175630000000001N070122000000000000000000000000000000000000000000000000000000000000000100090091990882JUECIR CARVALHO DA LUZ                  RUA JOSE CALIXTO DO CARMO - 286 AP.114 -            11702690                                                            000131
2SR. CAIXA, APOS O VENCIMENTO COBRAR 2% DE MULTA                                 NAO RECEBER APOS 30 DIAS DO VENCIMENTO.                                                                                                                                                                                                         07012200000000000000701220000000000000       0090339900006270900919012211000132
100000000000000000000009033990000627000000000000000000000000010002020037325901221300000000002            2  01373259012226012200000001780450000000001N070122000000000000000000000000000000000000000000000000000000000000000100037325923830MARIA AUGUSTA OLIVEIRA DE ANDRADE       RUA CAIAPOS - 842 AP.63 - VILA TUPI - PR            11703320                                                            000134
2SR. CAIXA, APOS O VENCIMENTO COBRAR 2% DE MULTA                                 NAO RECEBER APOS 30 DIAS DO VENCIMENTO.                                                                                                                                                                                                         07012200000000000000701220000000000000       0090339900006270373259012213000135
100000000000000000000009033990000627000000000000000000000000010002020012478801221000000000002            2  01124788012224012200000003240420000000001N070122000000000000000000000000000000000000000000000000000000000000000100012478899809VITORIA BATISTA QUEIROZ                 RUA CARVALHO DE FREITAS - 255 AP.71A - V            05728030                                                            000137
2SR. CAIXA, APOS O VENCIMENTO COBRAR 2% DE MULTA                                 NAO RECEBER APOS 30 DIAS DO VENCIMENTO.                                                                                                                                                                                                         07012200000000000000701220000000000000       0090339900006270124788012210000138
100000000000000000000009033990000627000000000000000000000000010002020097989901221500000000002            2  01979899012226012200000001494740000000001N070122000000000000000000000000000000000000000000000000000000000000000100097989924820NELSON LUIS BERRIBILLE                  RUA SILVEIRA IGNACIO SOBRINHO - 965 - VI            13560294                                                            000140
2SR. CAIXA, APOS O VENCIMENTO COBRAR 2% DE MULTA                                 NAO RECEBER APOS 30 DIAS DO VENCIMENTO.                                                                                                                                                                                                         07012200000000000000701220000000000000       0090339900006270979899012215000141
100000000000000000000009033990000627000000000000000000000000010002020032341801221400000000002            2  01323418012224012200000003365860000000001N070122000000000000000000000000000000000000000000000000000000000000000100032341847803PRISCILA ALVES DE FRANCA MIRANDA        RUA CARLOS JOSE BORSTENS - 50 AP.91 - AV            11702750                                                            000143
2SR. CAIXA, APOS O VENCIMENTO COBRAR 2% DE MULTA                                 NAO RECEBER APOS 30 DIAS DO VENCIMENTO.                                                                                                                                                                                                         07012200000000000000701220000000000000       0090339900006270323418012214000144
100000000000000000000009033990000627000000000000000000000000010002020016050601221P00000000002            2  01160506012224012200000003124170000000001N070122000000000000000000000000000000000000000000000000000000000000000100016050684898ANDRE RODRIGUES DE OLIVEIRA             RUA CORACAO PAULISTA - 14 - FAZENDA ITAI            08132430                                                            000146
2SR. CAIXA, APOS O VENCIMENTO COBRAR 2% DE MULTA                                 NAO RECEBER APOS 30 DIAS DO VENCIMENTO.                                                                                                                                                                                                         07012200000000000000701220000000000000       009033990000627016050601221P000147
100000000000000000000009033990000627000000000000000000000000010002020021464901221300000000002            2  01214649012224012200000004923790000000001N070122000000000000000000000000000000000000000000000000000000000000000100021464965846ANDREA APARECIDA DE OLIVEIRA PECCI      RUA ANTONIO BOZ MARFIL - 103 - PARQUE DO            05396020                                                            000149
2SR. CAIXA, APOS O VENCIMENTO COBRAR 2% DE MULTA                                 NAO RECEBER APOS 30 DIAS DO VENCIMENTO.                                                                                                                                                                                                         07012200000000000000701220000000000000       0090339900006270214649012213000150
100000000000000000000009033990000627000000000000000000000000010002020030348101221500000000002            2  01303481012224012200000002983320000000001N070122000000000000000000000000000000000000000000000000000000000000000100030348198892KELLY CRISTINA CORDEIRO                 RUA CARLOS JOSE BORSTENS - 50 AP.25 - AV            11702750                                                            000152
2SR. CAIXA, APOS O VENCIMENTO COBRAR 2% DE MULTA                                 NAO RECEBER APOS 30 DIAS DO VENCIMENTO.                                                                                                                                                                                                         07012200000000000000701220000000000000       0090339900006270303481012215000153
9                                                                                                                                                                                                                                                                                                                                                                                                         000154