01REMESSA01COBRANCA       00000000000008017025HB SANTOS CONSTRUTORA E INCORP237BRADESCO       081019        MX0000089                                                                                                                                                                                                                                                                                     000001
100000000000000000000009033990000627000000000000000000000000010002020025035110191000000000002            2  01250351101924101900000002122750000000001N071019000000000000000000000000000000000000000000000000000000000000000100025035170802WANDERSON LUIS DE CARVALHO              RUA JOAQUIM GONCALVES ROCHA - 302 - JARD            02859030                                                            000002
2SR. CAIXA, APOS O VENCIMENTO COBRAR 2% DE MULTA                                 NAO RECEBER APOS 30 DIAS DO VENCIMENTO.                                                                                                                                                                                                         08101900000000000000810190000000000000       0090339900006270250351101910000003
100000000000000000000009033990000627000000000000000000000000010002020007294310191800000000002            2  01072943101924101900000002855140000000001N071019000000000000000000000000000000000000000000000000000000000000000100007294351805CLAUDENIR APARECIDO VACARI              RUA CARLOS JOSE BORSTENS - 50 AP.93 - AV            11702750                                                            000005
2SR. CAIXA, APOS O VENCIMENTO COBRAR 2% DE MULTA                                 NAO RECEBER APOS 30 DIAS DO VENCIMENTO.                                                                                                                                                                                                         08101900000000000000810190000000000000       0090339900006270072943101918000006
100000000000000000000009033990000627000000000000000000000000010002020042976110191800000000002            2  01429761101924101900000002885110000000001N071019000000000000000000000000000000000000000000000000000000000000000100042976111634ACACIO TOSCANO BONDANCA                 RUA COMENDADOR JACOMO ANTONIO LA SELVA -            12946797                                                            000008
2SR. CAIXA, APOS O VENCIMENTO COBRAR 2% DE MULTA                                 NAO RECEBER APOS 30 DIAS DO VENCIMENTO.                                                                                                                                                                                                         08101900000000000000810190000000000000       0090339900006270429761101918000009
100000000000000000000009033990000627000000000000000000000000010002020035438010191100000000002            2  01354380101924101900000002436610000000001N071019000000000000000000000000000000000000000000000000000000000000000100035438022836ALESSANDRO FARACO DOS SANTOS            RUA PEDRO POMAR  - 145 - JARDIM ELISA MA            02875020                                                            000011
2SR. CAIXA, APOS O VENCIMENTO COBRAR 2% DE MULTA                                 NAO RECEBER APOS 30 DIAS DO VENCIMENTO.                                                                                                                                                                                                         08101900000000000000810190000000000000       0090339900006270354380101911000012
100000000000000000000009033990000627000000000000000000000000010002020007525010191300000000002            2  01075250101924101900000003193590000000001N071019000000000000000000000000000000000000000000000000000000000000000100007525032866FERNANDO RIBEIRO                        RUA CARLOS JOSE BORSTENS - 50 AP.32 - AV            11702750                                                            000014
2SR. CAIXA, APOS O VENCIMENTO COBRAR 2% DE MULTA                                 NAO RECEBER APOS 30 DIAS DO VENCIMENTO.                                                                                                                                                                                                         08101900000000000000810190000000000000       0090339900006270075250101913000015
100000000000000000000009033990000627000000000000000000000000010002020005071410191900000000002            2  01050714101924101900000002801380000000001N071019000000000000000000000000000000000000000000000000000000000000000100005071481855ERIBALDO SANTANA CARVALHO               RUA HONDURAS - 477 - PARQUE DAS AMERICAS            09351070                                                            000017
2SR. CAIXA, APOS O VENCIMENTO COBRAR 2% DE MULTA                                 NAO RECEBER APOS 30 DIAS DO VENCIMENTO.                                                                                                                                                                                                         08101900000000000000810190000000000000       0090339900006270050714101919000018
100000000000000000000009033990000627000000000000000000000000010002020002841710191200000000002            2  01028417101924101900000002620970000000001N071019000000000000000000000000000000000000000000000000000000000000000100002841756416LUCIANA PINHEIRO DE ASSIS NUNES         RUA RIO ACIMA - 81 - RIACHO GRANDE - SAO            09830100                                                            000020
2SR. CAIXA, APOS O VENCIMENTO COBRAR 2% DE MULTA                                 NAO RECEBER APOS 30 DIAS DO VENCIMENTO.                                                                                                                                                                                                         08101900000000000000810190000000000000       0090339900006270028417101912000021
100000000000000000000009033990000627000000000000000000000000010002020084302010191100000000002            2  01843020101924101900000002633530000000001N071019000000000000000000000000000000000000000000000000000000000000000100084302097868FAUSTO TADEU VILOR                      RUA ANTONIO TAVARES - 466 - BAIRRO CAMBU            01542010                                                            000023
2SR. CAIXA, APOS O VENCIMENTO COBRAR 2% DE MULTA                                 NAO RECEBER APOS 30 DIAS DO VENCIMENTO.                                                                                                                                                                                                         08101900000000000000810190000000000000       0090339900006270843020101911000024
100000000000000000000009033990000627000000000000000000000000010002020028804210191100000000002            2  01288042101924101900000002587460000000001N071019000000000000000000000000000000000000000000000000000000000000000100028804202882GILBERTO FABIANO CABRAL DE CAMARGO      RUA CARLOS JOSE BORSTENS - 50 AP.44 - AV            11702750                                                            000026
2SR. CAIXA, APOS O VENCIMENTO COBRAR 2% DE MULTA                                 NAO RECEBER APOS 30 DIAS DO VENCIMENTO.                                                                                                                                                                                                         08101900000000000000810190000000000000       0090339900006270288042101911000027
100000000000000000000009033990000627000000000000000000000000010002020000991710191400000000002            2  01009917101924101900000002525460000000001N071019000000000000000000000000000000000000000000000000000000000000000100000991748808JAILSON BORGES DE ANDRADE               RUA IPIOBUNA - 45 - JARDIM CUMBICA - GUA            07240040                                                            000029
2SR. CAIXA, APOS O VENCIMENTO COBRAR 2% DE MULTA                                 NAO RECEBER APOS 30 DIAS DO VENCIMENTO.                                                                                                                                                                                                         08101900000000000000810190000000000000       0090339900006270009917101914000030
100000000000000000000009033990000627000000000000000000000000010002020092180210191100000000002            2  01921802101924101900000003443160000000001N071019000000000000000000000000000000000000000000000000000000000000000100092180299834LUIS ROBERTO DE SA DUARTE               RUA TEBAS - 296 AP.84 BLOCO 2 CE - JARDI            04634031                                                            000032
2SR. CAIXA, APOS O VENCIMENTO COBRAR 2% DE MULTA                                 NAO RECEBER APOS 30 DIAS DO VENCIMENTO.                                                                                                                                                                                                         08101900000000000000810190000000000000       0090339900006270921802101911000033
100000000000000000000009033990000627000000000000000000000000010002020092180210192P00000000002            2  01921802101930101900000003443110000000001N071019000000000000000000000000000000000000000000000000000000000000000100092180299834LUIS ROBERTO DE SA DUARTE               RUA TEBAS - 296 AP.84 BLOCO 2 CE - JARDI            04634031                                                            000035
2SR. CAIXA, APOS O VENCIMENTO COBRAR 2% DE MULTA                                 NAO RECEBER APOS 30 DIAS DO VENCIMENTO.                                                                                                                                                                                                         08101900000000000000810190000000000000       009033990000627092180210192P000036
100000000000000000000009033990000627000000000000000000000000010002020092180210193800000000002            2  01921802101930101900000003443120000000001N071019000000000000000000000000000000000000000000000000000000000000000100092180299834LUIS ROBERTO DE SA DUARTE               RUA TEBAS - 296 AP.84 BLOCO 2 CE - JARDI            04634031                                                            000038
2SR. CAIXA, APOS O VENCIMENTO COBRAR 2% DE MULTA                                 NAO RECEBER APOS 30 DIAS DO VENCIMENTO.                                                                                                                                                                                                         08101900000000000000810190000000000000       0090339900006270921802101938000039
100000000000000000000009033990000627000000000000000000000000010002020092180210194600000000002            2  01921802101930101900000003443130000000001N071019000000000000000000000000000000000000000000000000000000000000000100092180299834LUIS ROBERTO DE SA DUARTE               RUA TEBAS - 296 AP.84 BLOCO 2 CE - JARDI            04634031                                                            000041
2SR. CAIXA, APOS O VENCIMENTO COBRAR 2% DE MULTA                                 NAO RECEBER APOS 30 DIAS DO VENCIMENTO.                                                                                                                                                                                                         08101900000000000000810190000000000000       0090339900006270921802101946000042
100000000000000000000009033990000627000000000000000000000000010002020092180210195400000000002            2  01921802101930101900000003443140000000001N071019000000000000000000000000000000000000000000000000000000000000000100092180299834LUIS ROBERTO DE SA DUARTE               RUA TEBAS - 296 AP.84 BLOCO 2 CE - JARDI            04634031                                                            000044
2SR. CAIXA, APOS O VENCIMENTO COBRAR 2% DE MULTA                                 NAO RECEBER APOS 30 DIAS DO VENCIMENTO.                                                                                                                                                                                                         08101900000000000000810190000000000000       0090339900006270921802101954000045
100000000000000000000009033990000627000000000000000000000000010002020092180210196200000000002            2  01921802101930101900000003443150000000001N071019000000000000000000000000000000000000000000000000000000000000000100092180299834LUIS ROBERTO DE SA DUARTE               RUA TEBAS - 296 AP.84 BLOCO 2 CE - JARDI            04634031                                                            000047
2SR. CAIXA, APOS O VENCIMENTO COBRAR 2% DE MULTA                                 NAO RECEBER APOS 30 DIAS DO VENCIMENTO.                                                                                                                                                                                                         08101900000000000000810190000000000000       0090339900006270921802101962000048
100000000000000000000009033990000627000000000000000000000000010002020022151610191000000000002            2  01221516101924101900000002510820000000001N071019000000000000000000000000000000000000000000000000000000000000000100022151666816SAMIR LIMA DE ARAUJO                    AVENIDA GUARAPIRANGA - 2616 AP.42 BLOCO1            04902005                                                            000050
2SR. CAIXA, APOS O VENCIMENTO COBRAR 2% DE MULTA                                 NAO RECEBER APOS 30 DIAS DO VENCIMENTO.                                                                                                                                                                                                         08101900000000000000810190000000000000       0090339900006270221516101910000051
100000000000000000000009033990000627000000000000000000000000010002020022313110191200000000002            2  01223131101926101900000001931410000000001N071019000000000000000000000000000000000000000000000000000000000000000100022313116824ROSA MARIA BRITO DA SILVA               RUA SERVIDAO DE SAO MARCOS - 113 - JARDI            04930300                                                            000053
2SR. CAIXA, APOS O VENCIMENTO COBRAR 2% DE MULTA                                 NAO RECEBER APOS 30 DIAS DO VENCIMENTO.                                                                                                                                                                                                         08101900000000000000810190000000000000       0090339900006270223131101912000054
100000000000000000000009033990000627000000000000000000000000010002020027538010191400000000002            2  01275380101926101900000001938140000000001N071019000000000000000000000000000000000000000000000000000000000000000100027538087249MARA LUCIA MENEZES DA COSTA             RUA LEILA  - 183 - ITAQUERA - SAO PAULO             08240020                                                            000056
2SR. CAIXA, APOS O VENCIMENTO COBRAR 2% DE MULTA                                 NAO RECEBER APOS 30 DIAS DO VENCIMENTO.                                                                                                                                                                                                         08101900000000000000810190000000000000       0090339900006270275380101914000057
100000000000000000000009033990000627000000000000000000000000010002020031278410191000000000002            2  01312784101924101900000002425510000000001N071019000000000000000000000000000000000000000000000000000000000000000100031278411836JEFFERSON DE PIERI PIRES ZAMUNER        RUA MANOEL ARCE - 277 - PARQUE BANCARIO             03922150                                                            000059
2SR. CAIXA, APOS O VENCIMENTO COBRAR 2% DE MULTA                                 NAO RECEBER APOS 30 DIAS DO VENCIMENTO.                                                                                                                                                                                                         08101900000000000000810190000000000000       0090339900006270312784101910000060
100000000000000000000009033990000627000000000000000000000000010002020019185710191200000000002            2  01191857101926101900000001763740000000001N071019000000000000000000000000000000000000000000000000000000000000000100019185769800AGUINALDO PESSOA DE LIMA                RUA JANUARIO ZINGARO - 252 AP.303 BL.04             05794300                                                            000062
2SR. CAIXA, APOS O VENCIMENTO COBRAR 2% DE MULTA                                 NAO RECEBER APOS 30 DIAS DO VENCIMENTO.                                                                                                                                                                                                         08101900000000000000810190000000000000       0090339900006270191857101912000063
100000000000000000000009033990000627000000000000000000000000010002020033303610191300000000002            2  01333036101926101900000001899720000000001N071019000000000000000000000000000000000000000000000000000000000000000100033303645809JESSICA DA SILVA FREITAS                RUA ARILDO VALADAO - 120 - JARDIM GUAEMB            04814600                                                            000065
2SR. CAIXA, APOS O VENCIMENTO COBRAR 2% DE MULTA                                 NAO RECEBER APOS 30 DIAS DO VENCIMENTO.                                                                                                                                                                                                         08101900000000000000810190000000000000       0090339900006270333036101913000066
100000000000000000000009033990000627000000000000000000000000010002020004824410191200000000002            2  01048244101926101900000001914740000000001N071019000000000000000000000000000000000000000000000000000000000000000100004824443806ROSIMEIRE CLARA FERREIRA REZENDE        RUA JOSE CALIXTO DO CARMO - 286 AP.43 -             11702690                                                            000068
2SR. CAIXA, APOS O VENCIMENTO COBRAR 2% DE MULTA                                 NAO RECEBER APOS 30 DIAS DO VENCIMENTO.                                                                                                                                                                                                         08101900000000000000810190000000000000       0090339900006270048244101912000069
100000000000000000000009033990000627000000000000000000000000010002020006422610191900000000002            2  01064226101924101900000002626880000000001N071019000000000000000000000000000000000000000000000000000000000000000100006422607881GERALDO ALVES DA SILVA                  RUA CARLOS JOSE BORSTENS - 50 AP.14 - AV            11702750                                                            000071
2SR. CAIXA, APOS O VENCIMENTO COBRAR 2% DE MULTA                                 NAO RECEBER APOS 30 DIAS DO VENCIMENTO.                                                                                                                                                                                                         08101900000000000000810190000000000000       0090339900006270064226101919000072
100000000000000000000009033990000627000000000000000000000000010002020033877110191000000000002            2  01338771101926101900000001781040000000001N071019000000000000000000000000000000000000000000000000000000000000000100033877129870HELDER FERREIRA VIANA                   RUA JOSE CALIXTO DO CARMO - 286 AP.35 -             11702690                                                            000074
2SR. CAIXA, APOS O VENCIMENTO COBRAR 2% DE MULTA                                 NAO RECEBER APOS 30 DIAS DO VENCIMENTO.                                                                                                                                                                                                         08101900000000000000810190000000000000       0090339900006270338771101910000075
100000000000000000000009033990000627000000000000000000000000010002020028290710191400000000002            2  01282907101926101900000001641450000000001N071019000000000000000000000000000000000000000000000000000000000000000100028290719809VANESSA GIANGARRELLI PEREIRA            RUA BARINEL - 72 - JARDIM COTCHING - SAO            03462130                                                            000077
2SR. CAIXA, APOS O VENCIMENTO COBRAR 2% DE MULTA                                 NAO RECEBER APOS 30 DIAS DO VENCIMENTO.                                                                                                                                                                                                         08101900000000000000810190000000000000       0090339900006270282907101914000078
100000000000000000000009033990000627000000000000000000000000010002020087573010191P00000000002            2  01875730101926101900000001792450000000001N071019000000000000000000000000000000000000000000000000000000000000000100087573059604VANDERLEY DE ASSIS                      RUA ROMEU ALBANI - 268 - JARDIM PARQUE R            13803810                                                            000080
2SR. CAIXA, APOS O VENCIMENTO COBRAR 2% DE MULTA                                 NAO RECEBER APOS 30 DIAS DO VENCIMENTO.                                                                                                                                                                                                         08101900000000000000810190000000000000       009033990000627087573010191P000081
100000000000000000000009033990000627000000000000000000000000010002020010825510191700000000002            2  01108255101926101900000001870530000000001N071019000000000000000000000000000000000000000000000000000000000000000100010825513847JOSE APARECIDO PEREIRA                  RUA GENERAL OSORIO - 305 - JARDIM TRINTA            11515130                                                            000083
2SR. CAIXA, APOS O VENCIMENTO COBRAR 2% DE MULTA                                 NAO RECEBER APOS 30 DIAS DO VENCIMENTO.                                                                                                                                                                                                         08101900000000000000810190000000000000       0090339900006270108255101917000084
100000000000000000000009033990000627000000000000000000000000010002020038818510191700000000002            2  01388185101926101900000001902500000000001N071019000000000000000000000000000000000000000000000000000000000000000100038818572814MAURICIUS ALEXANDRE ESTEVAM NABOR       RUA JOSE CALIXTO DO CARMO - 286 AP.25 -             11702690                                                            000086
2SR. CAIXA, APOS O VENCIMENTO COBRAR 2% DE MULTA                                 NAO RECEBER APOS 30 DIAS DO VENCIMENTO.                                                                                                                                                                                                         08101900000000000000810190000000000000       0090339900006270388185101917000087
100000000000000000000009033990000627000000000000000000000000010002020039115110191900000000002            2  01391151101926101900000002305740000000001N071019000000000000000000000000000000000000000000000000000000000000000100039115139840LAIS CRISTINA RIBEIRO ANDO              RUA PERU - 769 AP.17 - VILA GUILHERMINA             11702250                                                            000089
2SR. CAIXA, APOS O VENCIMENTO COBRAR 2% DE MULTA                                 NAO RECEBER APOS 30 DIAS DO VENCIMENTO.                                                                                                                                                                                                         08101900000000000000810190000000000000       0090339900006270391151101919000090
100000000000000000000009033990000627000000000000000000000000010002020029617510191700000000002            2  01296175101924101900000002578380000000001N071019000000000000000000000000000000000000000000000000000000000000000100029617510553MARILENE SOUZA DE OLIVEIRA              AVENIDA BRASIL - 393 AP.09 - PARQUE DAS             09210280                                                            000092
2SR. CAIXA, APOS O VENCIMENTO COBRAR 2% DE MULTA                                 NAO RECEBER APOS 30 DIAS DO VENCIMENTO.                                                                                                                                                                                                         08101900000000000000810190000000000000       0090339900006270296175101917000093
100000000000000000000009033990000627000000000000000000000000010002020000593210191700000000002            2  01005932101924101900000002827840000000001N071019000000000000000000000000000000000000000000000000000000000000000100000593293860WALTER HELIO BARBOSA FILHO              AVENIDA ANTONIO FREDERICO OZANAN - 9500             13214206                                                            000095
2SR. CAIXA, APOS O VENCIMENTO COBRAR 2% DE MULTA                                 NAO RECEBER APOS 30 DIAS DO VENCIMENTO.                                                                                                                                                                                                         08101900000000000000810190000000000000       0090339900006270005932101917000096
100000000000000000000009033990000627000000000000000000000000010002020007730010191200000000002            2  01077300101924101900000004021470000000001N071019000000000000000000000000000000000000000000000000000000000000000100007730084899ARNALDO LUIZ VONO                       RUA CARLOS JOSE BORSTENS - 50 AP.122 - A            11702750                                                            000098
2SR. CAIXA, APOS O VENCIMENTO COBRAR 2% DE MULTA                                 NAO RECEBER APOS 30 DIAS DO VENCIMENTO.                                                                                                                                                                                                         08101900000000000000810190000000000000       0090339900006270077300101912000099
100000000000000000000009033990000627000000000000000000000000010002020065584110191900000000002            2  01655841101924101900000001484460000000001N071019000000000000000000000000000000000000000000000000000000000000000100065584147834JOAQUIM DA COSTA MACHADO NETO           RUA CARLOS JOSE BORSTENS - 50 AP.42 - AV            11702750                                                            000101
2SR. CAIXA, APOS O VENCIMENTO COBRAR 2% DE MULTA                                 NAO RECEBER APOS 30 DIAS DO VENCIMENTO.                                                                                                                                                                                                         08101900000000000000810190000000000000       0090339900006270655841101919000102
100000000000000000000009033990000627000000000000000000000000010002020065584110192700000000002            2  01655841101924101900000001484450000000001N071019000000000000000000000000000000000000000000000000000000000000000100065584147834JOAQUIM DA COSTA MACHADO NETO           RUA CARLOS JOSE BORSTENS - 50 AP.42 - AV            11702750                                                            000104
2SR. CAIXA, APOS O VENCIMENTO COBRAR 2% DE MULTA                                 NAO RECEBER APOS 30 DIAS DO VENCIMENTO.                                                                                                                                                                                                         08101900000000000000810190000000000000       0090339900006270655841101927000105
100000000000000000000009033990000627000000000000000000000000010002020001616910191000000000002            2  01016169101924101900000002610700000000001N071019000000000000000000000000000000000000000000000000000000000000000100001616913827CLAUDIO LUIZ PAULELLA                   PRACA NESTOR DOS SANTOS ARRUDA - 26 - VI            13920000                                                            000107
2SR. CAIXA, APOS O VENCIMENTO COBRAR 2% DE MULTA                                 NAO RECEBER APOS 30 DIAS DO VENCIMENTO.                                                                                                                                                                                                         08101900000000000000810190000000000000       0090339900006270016169101910000108
100000000000000000000009033990000627000000000000000000000000010002020006684610191100000000002            2  01066846101926101900000001899460000000001N071019000000000000000000000000000000000000000000000000000000000000000100006684623884LAUDINOR VIEIRA GARCIA                  RUA CANDIDO SALES - 374 - JARDIM PRESIDE            07172000                                                            000110
2SR. CAIXA, APOS O VENCIMENTO COBRAR 2% DE MULTA                                 NAO RECEBER APOS 30 DIAS DO VENCIMENTO.                                                                                                                                                                                                         08101900000000000000810190000000000000       0090339900006270066846101911000111
100000000000000000000009033990000627000000000000000000000000010002020011663510191200000000002            2  01116635101926101900000001913160000000001N071019000000000000000000000000000000000000000000000000000000000000000100011663589844MARIA SAVIO QUARELLO                    AVENIDA MENDONCA DRUMOND - 321 - JARDIM             03524030                                                            000113
2SR. CAIXA, APOS O VENCIMENTO COBRAR 2% DE MULTA                                 NAO RECEBER APOS 30 DIAS DO VENCIMENTO.                                                                                                                                                                                                         08101900000000000000810190000000000000       0090339900006270116635101912000114
100000000000000000000009033990000627000000000000000000000000010002020010083810191400000000002            2  01100838101926101900000001848410000000001N071019000000000000000000000000000000000000000000000000000000000000000100010083824855IONE FERREIRA COUTO DA SILVA            RUA JOSE RAGEL DE MESQUITA - 60 CS.01 -             07799999                                                            000116
2SR. CAIXA, APOS O VENCIMENTO COBRAR 2% DE MULTA                                 NAO RECEBER APOS 30 DIAS DO VENCIMENTO.                                                                                                                                                                                                         08101900000000000000810190000000000000       0090339900006270100838101914000117
100000000000000000000009033990000627000000000000000000000000010002020036881710191700000000002            2  01368817101926101900000001813900000000001N071019000000000000000000000000000000000000000000000000000000000000000100036881778864ANDRE GONZALEZ RABELLO                  RUA PARAIBA - 106 AP.61 - POMPEIA - SANT            11065470                                                            000119
2SR. CAIXA, APOS O VENCIMENTO COBRAR 2% DE MULTA                                 NAO RECEBER APOS 30 DIAS DO VENCIMENTO.                                                                                                                                                                                                         08101900000000000000810190000000000000       0090339900006270368817101917000120
100000000000000000000009033990000627000000000000000000000000010002020018207010191600000000002            2  01182070101924101900000002500300000000001N071019000000000000000000000000000000000000000000000000000000000000000100018207096802ROBERTO VALENTE TAVARES                 RUA SEBASTIAO GOMES - 218 - JARDIM SANTO            13835000                                                            000122
2SR. CAIXA, APOS O VENCIMENTO COBRAR 2% DE MULTA                                 NAO RECEBER APOS 30 DIAS DO VENCIMENTO.                                                                                                                                                                                                         08101900000000000000810190000000000000       0090339900006270182070101916000123
100000000000000000000009033990000627000000000000000000000000010002020005351010191900000000002            2  01053510101926101900000001700720000000001N071019000000000000000000000000000000000000000000000000000000000000000100005351015897VALERIA ALVES MARCOLINO HINNIGER        RUA MONGOLIA - 230 AP.71 BL.4 - PARQUE N            09280220                                                            000125
2SR. CAIXA, APOS O VENCIMENTO COBRAR 2% DE MULTA                                 NAO RECEBER APOS 30 DIAS DO VENCIMENTO.                                                                                                                                                                                                         08101900000000000000810190000000000000       0090339900006270053510101919000126
100000000000000000000009033990000627000000000000000000000000010002020031898710191400000000002            2  01318987101924101900000002705800000000001N071019000000000000000000000000000000000000000000000000000000000000000100031898775800ANITA MARTINS COLOMBO                   RUA CARLOS JOSE BORSTENS - 50 AP.115 - A            11702750                                                            000128
2SR. CAIXA, APOS O VENCIMENTO COBRAR 2% DE MULTA                                 NAO RECEBER APOS 30 DIAS DO VENCIMENTO.                                                                                                                                                                                                         08101900000000000000810190000000000000       0090339900006270318987101914000129
100000000000000000000009033990000627000000000000000000000000010002020037983410191400000000002            2  01379834101926101900000001997780000000001N071019000000000000000000000000000000000000000000000000000000000000000100037983484801JOSE ERIVALDO SOUZA DO NASCIMENTO RAMOS RUA LETICIA - 250 - JARDIM GUARUJA - SAO            05877260                                                            000131
2SR. CAIXA, APOS O VENCIMENTO COBRAR 2% DE MULTA                                 NAO RECEBER APOS 30 DIAS DO VENCIMENTO.                                                                                                                                                                                                         08101900000000000000810190000000000000       0090339900006270379834101914000132
100000000000000000000009033990000627000000000000000000000000010002020056289210191500000000002            2  01562892101926101900000001509220000000001N071019000000000000000000000000000000000000000000000000000000000000000100056289286900PEDRO RIBEIRO                           RUA CONEGO MANOEL VAZ - 48 - SANTANA - S            02019050                                                            000134
2SR. CAIXA, APOS O VENCIMENTO COBRAR 2% DE MULTA                                 NAO RECEBER APOS 30 DIAS DO VENCIMENTO.                                                                                                                                                                                                         08101900000000000000810190000000000000       0090339900006270562892101915000135
100000000000000000000009033990000627000000000000000000000000010002020005025510191900000000002            2  01050255101926101900000002147790000000001N071019000000000000000000000000000000000000000000000000000000000000000100005025595860CONCEICAO APARECIDA DE MESQUITA PEREIRA RUA TRIUNFO - 835 AP.105 - JARDIM SAO LU            14020670                                                            000137
2SR. CAIXA, APOS O VENCIMENTO COBRAR 2% DE MULTA                                 NAO RECEBER APOS 30 DIAS DO VENCIMENTO.                                                                                                                                                                                                         08101900000000000000810190000000000000       0090339900006270050255101919000138
100000000000000000000009033990000627000000000000000000000000010002020034735310191100000000002            2  01347353101926101900000002071310000000001N071019000000000000000000000000000000000000000000000000000000000000000100034735328866DIEGO FELIPE MOLINA DA SILVA E SOUSA    RUA EMILIA PAULISTA - 135 - VILA TIRADEN            05364020                                                            000140
2SR. CAIXA, APOS O VENCIMENTO COBRAR 2% DE MULTA                                 NAO RECEBER APOS 30 DIAS DO VENCIMENTO.                                                                                                                                                                                                         08101900000000000000810190000000000000       0090339900006270347353101911000141
100000000000000000000009033990000627000000000000000000000000010002020076175610191200000000002            2  01761756101924101900000003755060000000001N071019000000000000000000000000000000000000000000000000000000000000000100076175685687GILMAR DE OLIVEIRA BRAGA                RUA MARACAJU - 161 AP.202 - NOVA GRANADA            30431350                                                            000143
2SR. CAIXA, APOS O VENCIMENTO COBRAR 2% DE MULTA                                 NAO RECEBER APOS 30 DIAS DO VENCIMENTO.                                                                                                                                                                                                         08101900000000000000810190000000000000       0090339900006270761756101912000144
100000000000000000000009033990000627000000000000000000000000010002020034812210191500000000002            2  01348122101924101900000003581240000000001N071019000000000000000000000000000000000000000000000000000000000000000100034812226880THAIS TORQUATO MIMOSO DE JESUS          RUA ARNALDO CINTRA - 416 AP.104 TORRE 2             03088000                                                            000146
2SR. CAIXA, APOS O VENCIMENTO COBRAR 2% DE MULTA                                 NAO RECEBER APOS 30 DIAS DO VENCIMENTO.                                                                                                                                                                                                         08101900000000000000810190000000000000       0090339900006270348122101915000147
100000000000000000000009033990000627000000000000000000000000010002020012849410191100000000002            2  01128494101926101900000003568350000000001N071019000000000000000000000000000000000000000000000000000000000000000100012849428809MOISES CLAUDIO DO ROSARIO               AVENIDA DR. AUGUSTO DE TOLEDO - 510 AP.1            09541520                                                            000149
2SR. CAIXA, APOS O VENCIMENTO COBRAR 2% DE MULTA                                 NAO RECEBER APOS 30 DIAS DO VENCIMENTO.                                                                                                                                                                                                         08101900000000000000810190000000000000       0090339900006270128494101911000150
100000000000000000000009033990000627000000000000000000000000010002020015702310191100000000002            2  01157023101926101900000001979790000000001N071019000000000000000000000000000000000000000000000000000000000000000100015702353846MARIA DE LOURDES DE MACENO SOUZA        RUA JOSE CALIXTO DO CARMO - 286 AP.83 -             11702690                                                            000152
2SR. CAIXA, APOS O VENCIMENTO COBRAR 2% DE MULTA                                 NAO RECEBER APOS 30 DIAS DO VENCIMENTO.                                                                                                                                                                                                         08101900000000000000810190000000000000       0090339900006270157023101911000153
100000000000000000000009033990000627000000000000000000000000010002020006749710191300000000002            2  01067497101923101900000001941170000000001N071019000000000000000000000000000000000000000000000000000000000000000100006749731600MARCELA DA ROCHA REIS                   RUA COLOMBIA - 665 AP.1204 - JARDIM GUIL            11702020                                                            000155
2SR. CAIXA, APOS O VENCIMENTO COBRAR 2% DE MULTA                                 NAO RECEBER APOS 30 DIAS DO VENCIMENTO.                                                                                                                                                                                                         08101900000000000000810190000000000000       0090339900006270067497101913000156
9                                                                                                                                                                                                                                                                                                                                                                                                         000157