01REMESSA01COBRANCA       00000000000005331186HB SANTOS CONSTRUTORA E INCORP237BRADESCO       010821        MX0000029                                                                                                                                                                                                                                                                                     000001
100000000000000000000009033990000995400000000000000000000000010002020026858608211100000000002            2  01268586082108082100000002684840000000001N010821000000000000000000000000000000000000000000000000000000000000000100026858625879GLAUCE FERREIRA DE OLIVEIRA FALSI       RUA LOURENCO ANTONIO BRAGANCA - 116 - JA            04403160                                                            000002
2SR. CAIXA, APOS O VENCIMENTO COBRAR 2% DE MULTA                                 NAO RECEBER APOS 30 DIAS DO VENCIMENTO.                                                                                                                                                                                                         01082100000000000000108210000000000000       0090339900009954268586082111000003
100000000000000000000009033990000995400000000000000000000000010002020016960808211200000000002            2  01169608082108082100000002563570000000001N010821000000000000000000000000000000000000000000000000000000000000000100016960804876LUIZ ALVES DE SOUZA JUNIOR              RUA FRANCISCO ALVES - 394 CASA B - PAECA            11450320                                                            000005
2SR. CAIXA, APOS O VENCIMENTO COBRAR 2% DE MULTA                                 NAO RECEBER APOS 30 DIAS DO VENCIMENTO.                                                                                                                                                                                                         01082100000000000000108210000000000000       0090339900009954169608082112000006
100000000000000000000009033990000995400000000000000000000000010002020008899308211P00000000002            2  01088993082108082100000002546900000000001N010821000000000000000000000000000000000000000000000000000000000000000100008899362858ELAINE D ALMEIDA FERDINANDY             ALAMEDA SUBTENENTE AVIADOR FRANCISCO HIE            02187040                                                            000008
2SR. CAIXA, APOS O VENCIMENTO COBRAR 2% DE MULTA                                 NAO RECEBER APOS 30 DIAS DO VENCIMENTO.                                                                                                                                                                                                         01082100000000000000108210000000000000       009033990000995408899308211P000009
100000000000000000000009033990000995400000000000000000000000010002020029425008211400000000002            2  01294250082108082100000002553280000000001N010821000000000000000000000000000000000000000000000000000000000000000100029425027897FABIA DOS SANTOS DE ANDRADE             AVENIDA ALCIDES CANDIDO DOS SANTOS - 248            11705480                                                            000011
2SR. CAIXA, APOS O VENCIMENTO COBRAR 2% DE MULTA                                 NAO RECEBER APOS 30 DIAS DO VENCIMENTO.                                                                                                                                                                                                         01082100000000000000108210000000000000       0090339900009954294250082114000012
100000000000000000000009033990000995400000000000000000000000010002020078382708211P00000000002            2  01783827082108082100000002580230000000001N010821000000000000000000000000000000000000000000000000000000000000000100078382700497JARMELINA BARBOSA DA SILVA              RUA OSCAR CINTRA GORDINHO - 211 AP.51 -             01512010                                                            000014
2SR. CAIXA, APOS O VENCIMENTO COBRAR 2% DE MULTA                                 NAO RECEBER APOS 30 DIAS DO VENCIMENTO.                                                                                                                                                                                                         01082100000000000000108210000000000000       009033990000995478382708211P000015
100000000000000000000009033990000995400000000000000000000000010002020007535308211900000000002            2  01075353082108082100000002530230000000001N010821000000000000000000000000000000000000000000000000000000000000000100007535375839AINAILDE PEREIRA DE CASTRO OLIVETTO     TRAVESSA DORALINA ELIETE ADAO DA SILVA -            08021026                                                            000017
2SR. CAIXA, APOS O VENCIMENTO COBRAR 2% DE MULTA                                 NAO RECEBER APOS 30 DIAS DO VENCIMENTO.                                                                                                                                                                                                         01082100000000000000108210000000000000       0090339900009954075353082119000018
100000000000000000000009033990000995400000000000000000000000010002020028974208211600000000002            2  01289742082108082100000002503280000000001N010821000000000000000000000000000000000000000000000000000000000000000100028974233827MARISTELA FAVANI DE OLIVEIRA            RUA GIUSEPPE CARNEVALLI - 96 - BAIRRO BO            09572100                                                            000020
2SR. CAIXA, APOS O VENCIMENTO COBRAR 2% DE MULTA                                 NAO RECEBER APOS 30 DIAS DO VENCIMENTO.                                                                                                                                                                                                         01082100000000000000108210000000000000       0090339900009954289742082116000021
100000000000000000000009033990000995400000000000000000000000010002020092184808211300000000002            2  01921848082108082100000002469950000000001N010821000000000000000000000000000000000000000000000000000000000000000100092184804800CARMEM DO SOCORRO GUILHERME             ESTRADA SAO FRANCISCO - 1.850 AP.182A -             06765000                                                            000023
2SR. CAIXA, APOS O VENCIMENTO COBRAR 2% DE MULTA                                 NAO RECEBER APOS 30 DIAS DO VENCIMENTO.                                                                                                                                                                                                         01082100000000000000108210000000000000       0090339900009954921848082113000024
100000000000000000000009033990000995400000000000000000000000010002020092184808212100000000002            2  01921848082108082100000002469940000000001N010821000000000000000000000000000000000000000000000000000000000000000100092184804800CARMEM DO SOCORRO GUILHERME             ESTRADA SAO FRANCISCO - 1.850 AP.182A -             06765000                                                            000026
2SR. CAIXA, APOS O VENCIMENTO COBRAR 2% DE MULTA                                 NAO RECEBER APOS 30 DIAS DO VENCIMENTO.                                                                                                                                                                                                         01082100000000000000108210000000000000       0090339900009954921848082121000027
100000000000000000000009033990000995400000000000000000000000010002020009169708211300000000002            2  01091697082108082100000001980920000000001N010821000000000000000000000000000000000000000000000000000000000000000100009169701830TADEU CONSTANTINO LOPES                 RUA JOSE ANTONIO COELHO - 349 CASA 01 -             04011061                                                            000029
2SR. CAIXA, APOS O VENCIMENTO COBRAR 2% DE MULTA                                 NAO RECEBER APOS 30 DIAS DO VENCIMENTO.                                                                                                                                                                                                         01082100000000000000108210000000000000       0090339900009954091697082113000030
100000000000000000000009033990000995400000000000000000000000010002020042480108211100000000002            2  01424801082108082100000002519950000000001N010821000000000000000000000000000000000000000000000000000000000000000100042480155870JAMITRE SOIOMARA ALVES DO NASCIMENTO DAVRUA SERTANISTA GILBERTO PINTO FRANCISCO             11703440                                                            000032
2SR. CAIXA, APOS O VENCIMENTO COBRAR 2% DE MULTA                                 NAO RECEBER APOS 30 DIAS DO VENCIMENTO.                                                                                                                                                                                                         01082100000000000000108210000000000000       0090339900009954424801082111000033
100000000000000000000009033990000995400000000000000000000000010002020004611208211800000000002            2  01046112082108082100000002466260000000001N010821000000000000000000000000000000000000000000000000000000000000000100004611218830TANIA MARIA DA SILVA NUNES PEREIRA LUIZ RODOVIA RAPOSO TAVARES, 7389 KM 17,5 - A            05576200                                                            000035
2SR. CAIXA, APOS O VENCIMENTO COBRAR 2% DE MULTA                                 NAO RECEBER APOS 30 DIAS DO VENCIMENTO.                                                                                                                                                                                                         01082100000000000000108210000000000000       0090339900009954046112082118000036
100000000000000000000009033990000995400000000000000000000000010002020008966508211700000000002            2  01089665082108082100000002380920000000001N010821000000000000000000000000000000000000000000000000000000000000000100008966511856MONICA SILVA REIS                       RUA ORATORIO - 264 E FUNDOS - BANGU - SA            09280550                                                            000038
2SR. CAIXA, APOS O VENCIMENTO COBRAR 2% DE MULTA                                 NAO RECEBER APOS 30 DIAS DO VENCIMENTO.                                                                                                                                                                                                         01082100000000000000108210000000000000       0090339900009954089665082117000039
100000000000000000000009033990000995400000000000000000000000010002020036898608211500000000002            2  01368986082108082100000002397590000000001N010821000000000000000000000000000000000000000000000000000000000000000100036898609890GABRIEL FRANCHESCHI PALVO               SGAN 911,MODULO F, BLOCO A, GREEN PARK -            70790110                                                            000041
2SR. CAIXA, APOS O VENCIMENTO COBRAR 2% DE MULTA                                 NAO RECEBER APOS 30 DIAS DO VENCIMENTO.                                                                                                                                                                                                         01082100000000000000108210000000000000       0090339900009954368986082115000042
100000000000000000000009033990000995400000000000000000000000010002020001356908211800000000002            2  01013569082108082100000002557450000000001N010821000000000000000000000000000000000000000000000000000000000000000100001356993800DALVA MARIA DOS SANTOS                  RUA SOLDADO CESARIO AGUIAR - 30 - VILA G            07070050                                                            000044
2SR. CAIXA, APOS O VENCIMENTO COBRAR 2% DE MULTA                                 NAO RECEBER APOS 30 DIAS DO VENCIMENTO.                                                                                                                                                                                                         01082100000000000000108210000000000000       0090339900009954013569082118000045
100000000000000000000009033990000995400000000000000000000000010002020024615508211000000000002            2  01246155082108082100000002916670000000001N010821000000000000000000000000000000000000000000000000000000000000000100024615557884GILBERTO JOSE GONSALES                  RUA DOS GOYTACAZES - 447 AP.206 BL.2 - C            28013266                                                            000047
2SR. CAIXA, APOS O VENCIMENTO COBRAR 2% DE MULTA                                 NAO RECEBER APOS 30 DIAS DO VENCIMENTO.                                                                                                                                                                                                         01082100000000000000108210000000000000       0090339900009954246155082110000048
100000000000000000000009033990000995400000000000000000000000010002020052623108211P00000000002            2  01526231082108082100000002183460000000001N010821000000000000000000000000000000000000000000000000000000000000000100052623130515MARCOS ROBERTO DE SANTANA               RUA GUARANI - 57 - BAIRRO OLIMPICO - SAO            09540510                                                            000050
2SR. CAIXA, APOS O VENCIMENTO COBRAR 2% DE MULTA                                 NAO RECEBER APOS 30 DIAS DO VENCIMENTO.                                                                                                                                                                                                         01082100000000000000108210000000000000       009033990000995452623108211P000051
100000000000000000000009033990000995400000000000000000000000010002020008878808211500000000002            2  01088788082108082100000002804970000000001N010821000000000000000000000000000000000000000000000000000000000000000100008878832812LUIZ ANTONIO DE OLIVEIRA                RUA TORRINHA - 220 AP.132 - BAIRRO TATUA            03332010                                                            000053
2SR. CAIXA, APOS O VENCIMENTO COBRAR 2% DE MULTA                                 NAO RECEBER APOS 30 DIAS DO VENCIMENTO.                                                                                                                                                                                                         01082100000000000000108210000000000000       0090339900009954088788082115000054
9                                                                                                                                                                                                                                                                                                                                                                                                         000055