01REMESSA01COBRANCA       00000000000005623874H B SANTOS CONSTRUTORA E INCOR237BRADESCO       120724        MX0000020                                                                                                                                                                                                                                                                                     000001
100000000000000000000009033990001086300000000000000000000000010002020012644907241P00000000002            2  01126449072425072400000003329720000000001N100724000000000000000000000000000000000000000000000000000000000000000100012644907802SIMONE SERRANO SILVA PRADO              RUA TAIUVINHA - 597 - BAIRRO JARDIM JACU            08060040                                                            000002
2SR. CAIXA, APOS O VENCIMENTO COBRAR 2% DE MULTA                                 NAO RECEBER APOS 30 DIAS DO VENCIMENTO.                                                                                                                                                                                                         12072400000000000001207240000000000000       009033990001086312644907241P000003
100000000000000000000009033990001086300000000000000000000000010002020033870207241000000000002            2  01338702072425072400000003243040000000001N100724000000000000000000000000000000000000000000000000000000000000000100033870205890NATHALIA GOMES PAZ                      ALAMEDA INHAMBU - 214 RESIDENCIAL 10 - B            06540100                                                            000005
2SR. CAIXA, APOS O VENCIMENTO COBRAR 2% DE MULTA                                 NAO RECEBER APOS 30 DIAS DO VENCIMENTO.                                                                                                                                                                                                         12072400000000000001207240000000000000       0090339900010863338702072410000006
100000000000000000000009033990001086300000000000000000000000010002020055874007241600000000002            2  01558740072425072400000003227500000000001N100724000000000000000000000000000000000000000000000000000000000000000100055874045104MANUEL MARTINS AFONSO JUNIOR            AVENIDA AFONSO PENA - 463 - BAIRRO ESTUA            11020003                                                            000008
2SR. CAIXA, APOS O VENCIMENTO COBRAR 2% DE MULTA                                 NAO RECEBER APOS 30 DIAS DO VENCIMENTO.                                                                                                                                                                                                         12072400000000000001207240000000000000       0090339900010863558740072416000009
100000000000000000000009033990001086300000000000000000000000010002020029067907241300000000002            2  01290679072425072400000002877590000000001N100724000000000000000000000000000000000000000000000000000000000000000100029067948802SANTIAGO VALDOMIRO CORDEIRO             RUA MANOEL QUIRINODE MATTOS - 1.537 CS02            03969000                                                            000011
2SR. CAIXA, APOS O VENCIMENTO COBRAR 2% DE MULTA                                 NAO RECEBER APOS 30 DIAS DO VENCIMENTO.                                                                                                                                                                                                         12072400000000000001207240000000000000       0090339900010863290679072413000012
100000000000000000000009033990001086300000000000000000000000010002020041475707241800000000002            2  01414757072425072400000003021070000000001N100724000000000000000000000000000000000000000000000000000000000000000100041475767889GUSTAVO HENRIQUE SIMIONI FRANCO MENDONCARUA JACOB EMERICK - 42 AP.308 - BAIRRO G            11310070                                                            000014
2SR. CAIXA, APOS O VENCIMENTO COBRAR 2% DE MULTA                                 NAO RECEBER APOS 30 DIAS DO VENCIMENTO.                                                                                                                                                                                                         12072400000000000001207240000000000000       0090339900010863414757072418000015
100000000000000000000009033990001086300000000000000000000000010002020032353407241000000000002            2  01323534072425072400000003455230000000001N100724000000000000000000000000000000000000000000000000000000000000000100032353404839JULIANA BATISTA BENTO                   RUA MONTE PLANO - 387 CASA 5 - VILA MARG            11335020                                                            000017
2SR. CAIXA, APOS O VENCIMENTO COBRAR 2% DE MULTA                                 NAO RECEBER APOS 30 DIAS DO VENCIMENTO.                                                                                                                                                                                                         12072400000000000001207240000000000000       0090339900010863323534072410000018
100000000000000000000009033990001086300000000000000000000000010002020031015907241100000000002            2  01310159072425072400000003020700000000001N100724000000000000000000000000000000000000000000000000000000000000000100031015918808PATRICK COSTA FAGILDE                   AVENIDA PRESIDENTE CASTELO BRANCO - 4.52            11702705                                                            000020
2SR. CAIXA, APOS O VENCIMENTO COBRAR 2% DE MULTA                                 NAO RECEBER APOS 30 DIAS DO VENCIMENTO.                                                                                                                                                                                                         12072400000000000001207240000000000000       0090339900010863310159072411000021
100000000000000000000009033990001086300000000000000000000000010002020024614307241100000000002            2  01246143072425072400000003319240000000001N100724000000000000000000000000000000000000000000000000000000000000000100024614361854JOSE SANTANA JUNIOR                     RUA RUI BARBOSA - 358 AP.83 - CANTO DO F            11700170                                                            000023
2SR. CAIXA, APOS O VENCIMENTO COBRAR 2% DE MULTA                                 NAO RECEBER APOS 30 DIAS DO VENCIMENTO.                                                                                                                                                                                                         12072400000000000001207240000000000000       0090339900010863246143072411000024
100000000000000000000009033990001086300000000000000000000000010002020045564907241800000000002            2  01455649072425072400000003063720000000001N100724000000000000000000000000000000000000000000000000000000000000000100045564998871THOMAS NICOLAS PETRICELLI               RUA BRIGADEIRO FARIA LIMA - 173 AP.42 -             11700630                                                            000026
2SR. CAIXA, APOS O VENCIMENTO COBRAR 2% DE MULTA                                 NAO RECEBER APOS 30 DIAS DO VENCIMENTO.                                                                                                                                                                                                         12072400000000000001207240000000000000       0090339900010863455649072418000027
100000000000000000000009033990001086300000000000000000000000010002020031413607241P00000000002            2  01314136072425072400000002992310000000001N100724000000000000000000000000000000000000000000000000000000000000000100031413672809ALZENIR CORREIA FIGUEIRA                RUA LUZIA ENCARNACAO VIDAL - 675 AP.133             11702370                                                            000029
2SR. CAIXA, APOS O VENCIMENTO COBRAR 2% DE MULTA                                 NAO RECEBER APOS 30 DIAS DO VENCIMENTO.                                                                                                                                                                                                         12072400000000000001207240000000000000       009033990001086331413607241P000030
100000000000000000000009033990001086300000000000000000000000010002020001365607241200000000002            2  01013656072425072400000002887420000000001N100724000000000000000000000000000000000000000000000000000000000000000100001365670880IVANILDO PROTAZIO DA SILVA              RUA SAO CELSO - 71 AP.44A - VILA DOMITIL            03626000                                                            000032
2SR. CAIXA, APOS O VENCIMENTO COBRAR 2% DE MULTA                                 NAO RECEBER APOS 30 DIAS DO VENCIMENTO.                                                                                                                                                                                                         12072400000000000001207240000000000000       0090339900010863013656072412000033
100000000000000000000009033990001086300000000000000000000000010002020084404607241P00000000002            2  01844046072425072400000003345650000000001N100724000000000000000000000000000000000000000000000000000000000000000100084404647891APOLINARIO PEREIRA DA SILVA             RUA LUIS DE ANDRADE - 206 - VILA PEREIRA            02920000                                                            000035
2SR. CAIXA, APOS O VENCIMENTO COBRAR 2% DE MULTA                                 NAO RECEBER APOS 30 DIAS DO VENCIMENTO.                                                                                                                                                                                                         12072400000000000001207240000000000000       009033990001086384404607241P000036
100000000000000000000009033990001086300000000000000000000000010002020044278807241P00000000002            2  01442788072425072400000003295040000000001N100724000000000000000000000000000000000000000000000000000000000000000100044278869819MARIA JULIETE BARBOZA                   RUA PROFESSORA YOLANDA CONTE - 17 Q.C -             11335060                                                            000038
2SR. CAIXA, APOS O VENCIMENTO COBRAR 2% DE MULTA                                 NAO RECEBER APOS 30 DIAS DO VENCIMENTO.                                                                                                                                                                                                         12072400000000000001207240000000000000       009033990001086344278807241P000039
100000000000000000000009033990001086300000000000000000000000010002020033890007241800000000002            2  01338900072425072400000003011520000000001N100724000000000000000000000000000000000000000000000000000000000000000100033890036813RICARDO MACHADO DOS SANTOS              TRAVESSA DECIO ARAUJO - 03 - BAIRRO ESTA            02997002                                                            000041
2SR. CAIXA, APOS O VENCIMENTO COBRAR 2% DE MULTA                                 NAO RECEBER APOS 30 DIAS DO VENCIMENTO.                                                                                                                                                                                                         12072400000000000001207240000000000000       0090339900010863338900072418000042
100000000000000000000009033990001086300000000000000000000000010002020032060007241P00000000002            2  01320600072425072400000002748880000000001N100724000000000000000000000000000000000000000000000000000000000000000100032060098807FERNANDA RUOZZI BUENO                   RUA JOSE DA SILVA MACHADO - 195 AP.55 -             11703100                                                            000044
2SR. CAIXA, APOS O VENCIMENTO COBRAR 2% DE MULTA                                 NAO RECEBER APOS 30 DIAS DO VENCIMENTO.                                                                                                                                                                                                         12072400000000000001207240000000000000       009033990001086332060007241P000045
100000000000000000000009033990001086300000000000000000000000010002020035078607241000000000002            2  01350786072425072400000002183120000000001N100724000000000000000000000000000000000000000000000000000000000000000100035078697802VICTOR DE CASTRO PEREIRA                RUA COPACABANA - 243 AP.114 - VILA GUILH            11701670                                                            000047
2SR. CAIXA, APOS O VENCIMENTO COBRAR 2% DE MULTA                                 NAO RECEBER APOS 30 DIAS DO VENCIMENTO.                                                                                                                                                                                                         12072400000000000001207240000000000000       0090339900010863350786072410000048
100000000000000000000009033990001086300000000000000000000000010002020006224907241700000000002            2  01062249072425072400000003297150000000001N100724000000000000000000000000000000000000000000000000000000000000000100006224952833EDSON DA SILVA MARTINS                  RUA PERU - 240 AP.104 - JARDIM GUILHERMI            11702250                                                            000050
2SR. CAIXA, APOS O VENCIMENTO COBRAR 2% DE MULTA                                 NAO RECEBER APOS 30 DIAS DO VENCIMENTO.                                                                                                                                                                                                         12072400000000000001207240000000000000       0090339900010863062249072417000051
100000000000000000000009033990001086300000000000000000000000010002020042179907241400000000002            2  01421799072425072400000003379520000000001N100724000000000000000000000000000000000000000000000000000000000000000100042179998449TELMA MARIA MARIZ DE LUCENA             RUA ROSA DOS VENTOS - 187 - VILA NOVA CA            02612000                                                            000053
2SR. CAIXA, APOS O VENCIMENTO COBRAR 2% DE MULTA                                 NAO RECEBER APOS 30 DIAS DO VENCIMENTO.                                                                                                                                                                                                         12072400000000000001207240000000000000       0090339900010863421799072414000054
100000000000000000000009033990001086300000000000000000000000010002020046415407241000000000002            2  01464154072425072400000003379520000000001N100724000000000000000000000000000000000000000000000000000000000000000100046415465848LUCAS MATHEUS CARRASCO MACHADO          RUA WALTER SOUZA MALHEIROS - 301 - RES.B            16402486                                                            000056
2SR. CAIXA, APOS O VENCIMENTO COBRAR 2% DE MULTA                                 NAO RECEBER APOS 30 DIAS DO VENCIMENTO.                                                                                                                                                                                                         12072400000000000001207240000000000000       0090339900010863464154072410000057
100000000000000000000009033990001086300000000000000000000000010002020032277107241000000000002            2  01322771072425072400000002919020000000001N100724000000000000000000000000000000000000000000000000000000000000000100032277122882DANIELE APARECIDA E SILVA MIRANDA       RUA ALEXANDRE LEVI - 85 AP.128 - BAIRRO             01520000                                                            000059
2SR. CAIXA, APOS O VENCIMENTO COBRAR 2% DE MULTA                                 NAO RECEBER APOS 30 DIAS DO VENCIMENTO.                                                                                                                                                                                                         12072400000000000001207240000000000000       0090339900010863322771072410000060
100000000000000000000009033990001086300000000000000000000000010002020011945007241900000000002            2  01119450072425072400000002636040000000001N100724000000000000000000000000000000000000000000000000000000000000000100011945024828CICERO PEREIRA DA SILVA                 RUA GIOVANNI BATTISTA PIRELLI - 1.463 AP            09111340                                                            000062
2SR. CAIXA, APOS O VENCIMENTO COBRAR 2% DE MULTA                                 NAO RECEBER APOS 30 DIAS DO VENCIMENTO.                                                                                                                                                                                                         12072400000000000001207240000000000000       0090339900010863119450072419000063
100000000000000000000009033990001086300000000000000000000000010002020010770607241300000000002            2  01107706072425072400000002527290000000001N100724000000000000000000000000000000000000000000000000000000000000000100010770605800MARCIO MIOLA                            RUA HITITA - 20 - PARQUE NOVO ORATORIO -            09270440                                                            000065
2SR. CAIXA, APOS O VENCIMENTO COBRAR 2% DE MULTA                                 NAO RECEBER APOS 30 DIAS DO VENCIMENTO.                                                                                                                                                                                                         12072400000000000001207240000000000000       0090339900010863107706072413000066
100000000000000000000009033990001086300000000000000000000000010002020028897607241P00000000002            2  01288976072425072400000002652010000000001N100724000000000000000000000000000000000000000000000000000000000000000100028897672809JOSE WALTER OLIVEIRA DE SANTANA         AVENIDA MARECHAL HERMES - 454 AP.303 - C            11700250                                                            000068
2SR. CAIXA, APOS O VENCIMENTO COBRAR 2% DE MULTA                                 NAO RECEBER APOS 30 DIAS DO VENCIMENTO.                                                                                                                                                                                                         12072400000000000001207240000000000000       009033990001086328897607241P000069
100000000000000000000009033990001086300000000000000000000000010002020012848807241100000000002            2  01128488072425072400000002668420000000001N100724000000000000000000000000000000000000000000000000000000000000000100012848843845EDUARDO DO NASCIMENTO FREITAS           RUA MARECHAL FLORIANO PEIXOTO - 111 AP.7            11700210                                                            000071
2SR. CAIXA, APOS O VENCIMENTO COBRAR 2% DE MULTA                                 NAO RECEBER APOS 30 DIAS DO VENCIMENTO.                                                                                                                                                                                                         12072400000000000001207240000000000000       0090339900010863128488072411000072
100000000000000000000009033990001086300000000000000000000000010002020025120007241900000000002            2  01251200072425072400000002717650000000001N100724000000000000000000000000000000000000000000000000000000000000000100025120038840SANDRO APARECIDO DE LARA                RUA JOSE CABALLERO - 66 AP.1217 TP2 - GO            11055300                                                            000074
2SR. CAIXA, APOS O VENCIMENTO COBRAR 2% DE MULTA                                 NAO RECEBER APOS 30 DIAS DO VENCIMENTO.                                                                                                                                                                                                         12072400000000000001207240000000000000       0090339900010863251200072419000075
100000000000000000000009033990001086300000000000000000000000010002020006274007241000000000002            2  01062740072425072400000002701250000000001N100724000000000000000000000000000000000000000000000000000000000000000100006274098810LILIAN GONCALVES SAI                    AVENIDA VITORIO VENETO - 100 AP.121 - JA            13313129                                                            000077
2SR. CAIXA, APOS O VENCIMENTO COBRAR 2% DE MULTA                                 NAO RECEBER APOS 30 DIAS DO VENCIMENTO.                                                                                                                                                                                                         12072400000000000001207240000000000000       0090339900010863062740072410000078
9                                                                                                                                                                                                                                                                                                                                                                                                         000079