01REMESSA01COBRANCA       00000000000004991781AIRES CONSTRUTORA E INCORPORAD237BRADESCO       010518        MX0000103                                                                                                                                                                                                                                                                                     000001
100000000000000000000009077090006612500000000000000000000000010002100094852205181700000000002            2  01948522051810051800000002192020000000001N010518000000000000000000000000000000000000000000000000000000000000000100094852294887GISELDA MENON                           RUA OTAVIO BARRETO - 105 - VILA SANTISTA            02560080                                                            000002
2SR. CAIXA, APOS O VENCIMENTO COBRAR 10% DE MULTA                                NAO RECEBER APOS 30 DIAS DO VENCIMENTO.                                                                                                                                                                                                         01051800000000000000105180000000000000       0090770900066125948522051817000003
100000000000000000000009077090006612500000000000000000000000010002100006485905181300000000002            2  01064859051810051800000003361850000000001N010518000000000000000000000000000000000000000000000000000000000000000100006485911820CELIO MANUEL  MELIM SANTO               RUA JUVENAL FERREIRA  - 85 AP.61 - VILA             03512040                                                            000005
2SR. CAIXA, APOS O VENCIMENTO COBRAR 10% DE MULTA                                NAO RECEBER APOS 30 DIAS DO VENCIMENTO.                                                                                                                                                                                                         01051800000000000000105180000000000000       0090770900066125064859051813000006
100000000000000000000009077090006612500000000000000000000000010002100004693805181200000000002            2  01046938051810051800000002930100000000001N010518000000000000000000000000000000000000000000000000000000000000000100004693857823NIVALDO BARTOLOMEU FERREIRA             MNS JOSE MARINONI  - 33 - SANTO AMARO -             04430350                                                            000008
2SR. CAIXA, APOS O VENCIMENTO COBRAR 10% DE MULTA                                NAO RECEBER APOS 30 DIAS DO VENCIMENTO.                                                                                                                                                                                                         01051800000000000000105180000000000000       0090770900066125046938051812000009
100000000000000000000009077090006612500000000000000000000000010002100027993105181100000000002            2  01279931051810051800000002790110000000001N010518000000000000000000000000000000000000000000000000000000000000000100027993108853DALVA JESUS RODRIGUES CABRAL            RUA CRISTOVAO COLOMBO GONCALVES - 97 - C            04811050                                                            000011
2SR. CAIXA, APOS O VENCIMENTO COBRAR 10% DE MULTA                                NAO RECEBER APOS 30 DIAS DO VENCIMENTO.                                                                                                                                                                                                         01051800000000000000105180000000000000       0090770900066125279931051811000012
100000000000000000000009077090006612500000000000000000000000010002100000455405181000000000002            2  01004554051810051800000002898280000000001N010518000000000000000000000000000000000000000000000000000000000000000100000455495831PAULO HENRIQUE LOURENCO                 RUA FIGUEIRA  - 237 - CIDADE DAS FLORES             06184060                                                            000014
2SR. CAIXA, APOS O VENCIMENTO COBRAR 10% DE MULTA                                NAO RECEBER APOS 30 DIAS DO VENCIMENTO.                                                                                                                                                                                                         01051800000000000000105180000000000000       0090770900066125004554051810000015
100000000000000000000009077090006612500000000000000000000000010002100006140005181100000000002            2  01061400051810051800000003594270000000001N010518000000000000000000000000000000000000000000000000000000000000000100006140049857MARIA ALBANI DA SILVA EUSEBIO           RUA ORLANDO SEGALA - 108 - JARDIM ADRIAN            07135190                                                            000017
2SR. CAIXA, APOS O VENCIMENTO COBRAR 10% DE MULTA                                NAO RECEBER APOS 30 DIAS DO VENCIMENTO.                                                                                                                                                                                                         01051800000000000000105180000000000000       0090770900066125061400051811000018
100000000000000000000009077090006612500000000000000000000000010002100002324705181600000000002            2  01023247051810051800000003524580000000001N010518000000000000000000000000000000000000000000000000000000000000000100002324785897IZILDA NAPOLI                           RUA MONTE CASTELO - 295 AP.71 - AVIACAO             11702720                                                            000020
2SR. CAIXA, APOS O VENCIMENTO COBRAR 10% DE MULTA                                NAO RECEBER APOS 30 DIAS DO VENCIMENTO.                                                                                                                                                                                                         01051800000000000000105180000000000000       0090770900066125023247051816000021
100000000000000000000009077090006612500000000000000000000000010002100007768705181000000000002            2  01077687051810051800000003651170000000001N010518000000000000000000000000000000000000000000000000000000000000000100007768713826FATIMA LUZIA BIANCHI                    DR. OLIDAIR AMBROSIO - 1487 AP.03 - CENT            14160170                                                            000023
2SR. CAIXA, APOS O VENCIMENTO COBRAR 10% DE MULTA                                NAO RECEBER APOS 30 DIAS DO VENCIMENTO.                                                                                                                                                                                                         01051800000000000000105180000000000000       0090770900066125077687051810000024
100000000000000000000009077090006612500000000000000000000000010002100021716805181800000000002            2  01217168051810051800000003596970000000001N010518000000000000000000000000000000000000000000000000000000000000000100021716847800DANIELLE FAGUNDES DE A.MATOS            CONDE MOREIRA LIMA - 644 - JARDIM JABAQU            04384032                                                            000026
2SR. CAIXA, APOS O VENCIMENTO COBRAR 10% DE MULTA                                NAO RECEBER APOS 30 DIAS DO VENCIMENTO.                                                                                                                                                                                                         01051800000000000000105180000000000000       0090770900066125217168051818000027
100000000000000000000009077090006612500000000000000000000000010002100085416905181100000000002            2  01854169051810051800000003049190000000001N010518000000000000000000000000000000000000000000000000000000000000000100085416940891ANTONIO DE SOUSA MENDES                 RUA MONTE CASTELO - 296 AP.52 - AVIACAO             11702720                                                            000029
2SR. CAIXA, APOS O VENCIMENTO COBRAR 10% DE MULTA                                NAO RECEBER APOS 30 DIAS DO VENCIMENTO.                                                                                                                                                                                                         01051800000000000000105180000000000000       0090770900066125854169051811000030
100000000000000000000009077090006612500000000000000000000000010002100005678005181500000000002            2  01056780051810051800000003175690000000001N010518000000000000000000000000000000000000000000000000000000000000000100005678057863FABIO MOREIRA CAMPOS                    RUA FLORENCIO DA SILVA - 284 - VILA LIBA            03738070                                                            000032
2SR. CAIXA, APOS O VENCIMENTO COBRAR 10% DE MULTA                                NAO RECEBER APOS 30 DIAS DO VENCIMENTO.                                                                                                                                                                                                         01051800000000000000105180000000000000       0090770900066125056780051815000033
100000000000000000000009077090006612500000000000000000000000010002100007784405181100000000002            2  01077844051810051800000003206710000000001N010518000000000000000000000000000000000000000000000000000000000000000100007784496885GUILHERME LEONARDO DO NASCIMENTO        COMENDADOR RUBENS RONCARE - 127 - PONTE             11530120                                                            000035
2SR. CAIXA, APOS O VENCIMENTO COBRAR 10% DE MULTA                                NAO RECEBER APOS 30 DIAS DO VENCIMENTO.                                                                                                                                                                                                         01051800000000000000105180000000000000       0090770900066125077844051811000036
100000000000000000000009077090006612500000000000000000000000010002100016348205181100000000002            2  01163482051810051800000003098130000000001N010518000000000000000000000000000000000000000000000000000000000000000100016348237885AILTON LORENA                           AVENIDA BRASILIA - 194 - BELA VISTA - SA            09180260                                                            000038
2SR. CAIXA, APOS O VENCIMENTO COBRAR 10% DE MULTA                                NAO RECEBER APOS 30 DIAS DO VENCIMENTO.                                                                                                                                                                                                         01051800000000000000105180000000000000       0090770900066125163482051811000039
100000000000000000000009077090006612500000000000000000000000010002100081218405181500000000002            2  01812184051810051800000002990080000000001N010518000000000000000000000000000000000000000000000000000000000000000100081218486953OSMAR DA COSTA                          RUA MONTE CASTELO - 295 AP.33 - AVIACAO             11702720                                                            000041
2SR. CAIXA, APOS O VENCIMENTO COBRAR 10% DE MULTA                                NAO RECEBER APOS 30 DIAS DO VENCIMENTO.                                                                                                                                                                                                         01051800000000000000105180000000000000       0090770900066125812184051815000042
100000000000000000000009077090006612500000000000000000000000010002100004981805181800000000002            2  01049818051810051800000003396180000000001N010518000000000000000000000000000000000000000000000000000000000000000100004981884850SILVIO PAULINO GONCALVES                MARIA DE CASTRO MESQUITA - 84 AP.103 BLO            07110040                                                            000044
2SR. CAIXA, APOS O VENCIMENTO COBRAR 10% DE MULTA                                NAO RECEBER APOS 30 DIAS DO VENCIMENTO.                                                                                                                                                                                                         01051800000000000000105180000000000000       0090770900066125049818051818000045
100000000000000000000009077090006612500000000000000000000000010002100019282505181200000000002            2  01192825051810051800000002229260000000001N010518000000000000000000000000000000000000000000000000000000000000000100019282546837FABIO LEANDRO DE FREITAS ASSIS          RUA BASSIM NAGIB TRABULSI - 97 - PONTA D            11030540                                                            000047
2SR. CAIXA, APOS O VENCIMENTO COBRAR 10% DE MULTA                                NAO RECEBER APOS 30 DIAS DO VENCIMENTO.                                                                                                                                                                                                         01051800000000000000105180000000000000       0090770900066125192825051812000048
100000000000000000000009077090006612500000000000000000000000010002100008423405181600000000002            2  01084234051810051800000003098060000000001N010518000000000000000000000000000000000000000000000000000000000000000100008423485811EDSON LUIZ NUNES                        RUA NOEMIA PEDROSO BUENO - 41 - JARDIM G            09360440                                                            000050
2SR. CAIXA, APOS O VENCIMENTO COBRAR 10% DE MULTA                                NAO RECEBER APOS 30 DIAS DO VENCIMENTO.                                                                                                                                                                                                         01051800000000000000105180000000000000       0090770900066125084234051816000051
100000000000000000000009077090006612500000000000000000000000010002100003010505181500000000002            2  01030105051810051800000003584860000000001N010518000000000000000000000000000000000000000000000000000000000000000100003010502877GIZELA VIEIRA BARROS                    RUA GIACOMO DALCIN - 157 - MAUA - SAO CA            09580350                                                            000053
2SR. CAIXA, APOS O VENCIMENTO COBRAR 10% DE MULTA                                NAO RECEBER APOS 30 DIAS DO VENCIMENTO.                                                                                                                                                                                                         01051800000000000000105180000000000000       0090770900066125030105051815000054
100000000000000000000009077090006612500000000000000000000000010002100012111005181000000000002            2  01121110051810051800000002919030000000001N010518000000000000000000000000000000000000000000000000000000000000000100012111060801CLAUDIA CRISTINA CRELIS COSTA           RUA RUI BARBOSA - 1736 AP.1533 - VILA SA            19015001                                                            000056
2SR. CAIXA, APOS O VENCIMENTO COBRAR 10% DE MULTA                                NAO RECEBER APOS 30 DIAS DO VENCIMENTO.                                                                                                                                                                                                         01051800000000000000105180000000000000       0090770900066125121110051810000057
100000000000000000000009077090006612500000000000000000000000010002100009777205181200000000002            2  01097772051810051800000002810670000000001N010518000000000000000000000000000000000000000000000000000000000000000100009777281889CARLITA DE FIGUEIREDO CARVALHO          AVENIDA ALBERTO DE ALMEIDA VINHAS - 4462            11701350                                                            000059
2SR. CAIXA, APOS O VENCIMENTO COBRAR 10% DE MULTA                                NAO RECEBER APOS 30 DIAS DO VENCIMENTO.                                                                                                                                                                                                         01051800000000000000105180000000000000       0090770900066125097772051812000060
100000000000000000000009077090006612500000000000000000000000010002100004213005181P00000000002            2  01042130051810051800000003337900000000001N010518000000000000000000000000000000000000000000000000000000000000000100004213020894ELIETE DRUGOVICH DE LIMA                RUA OSVALDO CRUZ - 141 AP.144-B - SANTA             09541270                                                            000062
2SR. CAIXA, APOS O VENCIMENTO COBRAR 10% DE MULTA                                NAO RECEBER APOS 30 DIAS DO VENCIMENTO.                                                                                                                                                                                                         01051800000000000000105180000000000000       009077090006612504213005181P000063
100000000000000000000009077090006612500000000000000000000000010002100085839805181200000000002            2  01858398051810051800000002547570000000001N010518000000000000000000000000000000000000000000000000000000000000000100085839817872MAURO CORREIA MARTINS                   RUA PROFESSOR JOSE AZEVEDO MINHOTO - 72             06114000                                                            000065
2SR. CAIXA, APOS O VENCIMENTO COBRAR 10% DE MULTA                                NAO RECEBER APOS 30 DIAS DO VENCIMENTO.                                                                                                                                                                                                         01051800000000000000105180000000000000       0090770900066125858398051812000066
100000000000000000000009077090006612500000000000000000000000010002100043122805181400000000002            2  01431228051810051800000002275100000000001N010518000000000000000000000000000000000000000000000000000000000000000100043122850800ANTONIO JOAQUIM GOES                    ANTONIO DOAS DA SILVA - 412 - VILA AMALI            02618110                                                            000068
2SR. CAIXA, APOS O VENCIMENTO COBRAR 10% DE MULTA                                NAO RECEBER APOS 30 DIAS DO VENCIMENTO.                                                                                                                                                                                                         01051800000000000000105180000000000000       0090770900066125431228051814000069
100000000000000000000009077090006612500000000000000000000000010002100003865705181000000000002            2  01038657051810051800000002987040000000001N010518000000000000000000000000000000000000000000000000000000000000000100003865776841FRANCISCO JOSE ROCCO                    RUA FABIO JOSE BEZERRA - 130 AP.86 - PAR            03805000                                                            000071
2SR. CAIXA, APOS O VENCIMENTO COBRAR 10% DE MULTA                                NAO RECEBER APOS 30 DIAS DO VENCIMENTO.                                                                                                                                                                                                         01051800000000000000105180000000000000       0090770900066125038657051810000072
100000000000000000000009077090006612500000000000000000000000010002100028309505181700000000002            2  01283095051810051800000002663760000000001N010518000000000000000000000000000000000000000000000000000000000000000100028309524803DEISE RIBEIRO BARBOSA                   RUA CANDIDO JOSE DE ANDRADE - 173 - ERME            03807030                                                            000074
2SR. CAIXA, APOS O VENCIMENTO COBRAR 10% DE MULTA                                NAO RECEBER APOS 30 DIAS DO VENCIMENTO.                                                                                                                                                                                                         01051800000000000000105180000000000000       0090770900066125283095051817000075
100000000000000000000009077090006612500000000000000000000000010002100011277905181700000000002            2  01112779051810051800000003161570000000001N010518000000000000000000000000000000000000000000000000000000000000000100011277908893JOSE AILTON LOPES DE AZEVEDO            RUA MAESTRO JOAO SEPE - 19 - JARDIM MARI            04181030                                                            000077
2SR. CAIXA, APOS O VENCIMENTO COBRAR 10% DE MULTA                                NAO RECEBER APOS 30 DIAS DO VENCIMENTO.                                                                                                                                                                                                         01051800000000000000105180000000000000       0090770900066125112779051817000078
100000000000000000000009077090006612500000000000000000000000010002100025215105181400000000002            2  01252151051810051800000002384240000000001N010518000000000000000000000000000000000000000000000000000000000000000100025215106886KLEBER LUIZ DOS SANTOS                  RUA MONTE CASTELO - 262 AP.15 - AVIACAO             11702720                                                            000080
2SR. CAIXA, APOS O VENCIMENTO COBRAR 10% DE MULTA                                NAO RECEBER APOS 30 DIAS DO VENCIMENTO.                                                                                                                                                                                                         01051800000000000000105180000000000000       0090770900066125252151051814000081
100000000000000000000009077090006612500000000000000000000000010002100090206705181100000000002            2  01902067051810051800000002663080000000001N010518000000000000000000000000000000000000000000000000000000000000000100090206789815NEREIDE RODRIGUES FERREIRA              AVENIDA PADRE ESTANISLAU DE CAMPOS - 205            03590060                                                            000083
2SR. CAIXA, APOS O VENCIMENTO COBRAR 10% DE MULTA                                NAO RECEBER APOS 30 DIAS DO VENCIMENTO.                                                                                                                                                                                                         01051800000000000000105180000000000000       0090770900066125902067051811000084
100000000000000000000009077090006612500000000000000000000000010002100029150705181P00000000002            2  01291507051810051800000003117200000000001N010518000000000000000000000000000000000000000000000000000000000000000100029150742833ANA DEISE SANTOS DE ALMEIDA             RUA MONTE CASTELO - 296 AP.121 - AVIACAO            11702720                                                            000086
2SR. CAIXA, APOS O VENCIMENTO COBRAR 10% DE MULTA                                NAO RECEBER APOS 30 DIAS DO VENCIMENTO.                                                                                                                                                                                                         01051800000000000000105180000000000000       009077090006612529150705181P000087
100000000000000000000009077090006612500000000000000000000000010002100000811705181500000000002            2  01008117051810051800000002567580000000001N010518000000000000000000000000000000000000000000000000000000000000000100000811752801SERGIO BUENO DA SILVA                   RUA MONTE CASTELO - 262 AP.75 - AVIACAO             11702720                                                            000089
2SR. CAIXA, APOS O VENCIMENTO COBRAR 10% DE MULTA                                NAO RECEBER APOS 30 DIAS DO VENCIMENTO.                                                                                                                                                                                                         01051800000000000000105180000000000000       0090770900066125008117051815000090
100000000000000000000009077090006612500000000000000000000000010002100018344805181100000000002            2  01183448051810051800000003263940000000001N010518000000000000000000000000000000000000000000000000000000000000000100018344803888MARCELO BERNARDO                        RUA ESTONIA - 06 - INTERLAGOS - SAO PAUL            04785140                                                            000092
2SR. CAIXA, APOS O VENCIMENTO COBRAR 10% DE MULTA                                NAO RECEBER APOS 30 DIAS DO VENCIMENTO.                                                                                                                                                                                                         01051800000000000000105180000000000000       0090770900066125183448051811000093
100000000000000000000009077090006612500000000000000000000000010002100030210505181500000000002            2  01302105051810051800000002434040000000001N010518000000000000000000000000000000000000000000000000000000000000000100030210501820ROGERIO MUNIZ DA CUNHA                  RUA MONTE CASTELO - 296 AP.34 - AVIACAO             11702720                                                            000095
2SR. CAIXA, APOS O VENCIMENTO COBRAR 10% DE MULTA                                NAO RECEBER APOS 30 DIAS DO VENCIMENTO.                                                                                                                                                                                                         01051800000000000000105180000000000000       0090770900066125302105051815000096
100000000000000000000009077090006612500000000000000000000000010002100004004305181900000000002            2  01040043051810051800000004575970000000001N010518000000000000000000000000000000000000000000000000000000000000000100004004328896VANDERLEI  MARTINS DE ALMEIDA           RUA MONSENHOR TABOSA - 03 - PARQUE CISPE            03819300                                                            000098
2SR. CAIXA, APOS O VENCIMENTO COBRAR 10% DE MULTA                                NAO RECEBER APOS 30 DIAS DO VENCIMENTO.                                                                                                                                                                                                         01051800000000000000105180000000000000       0090770900066125040043051819000099
100000000000000000000009077090006612500000000000000000000000010002100005133005181300000000002            2  01051330051810051800000003125530000000001N010518000000000000000000000000000000000000000000000000000000000000000100005133053860VICENTE ARCIPRETE JUNIOR                RUA JOSE SIMOES FERREIRA FILHO - 80 - JA            06040090                                                            000101
2SR. CAIXA, APOS O VENCIMENTO COBRAR 10% DE MULTA                                NAO RECEBER APOS 30 DIAS DO VENCIMENTO.                                                                                                                                                                                                         01051800000000000000105180000000000000       0090770900066125051330051813000102
100000000000000000000009077090006612500000000000000000000000010002100056660205181800000000002            2  01566602051810051800000000760210000000001N010518000000000000000000000000000000000000000000000000000000000000000100056660235868JOSE DA SILVA                           RUA MONTE CASTELO - 296 AP.32 - AVIACAO             11702720                                                            000104
2SR. CAIXA, APOS O VENCIMENTO COBRAR 10% DE MULTA                                NAO RECEBER APOS 30 DIAS DO VENCIMENTO.                                                                                                                                                                                                         01051800000000000000105180000000000000       0090770900066125566602051818000105
100000000000000000000009077090006612500000000000000000000000010002100016339405181P00000000002            2  01163394051810051800000002760850000000001N010518000000000000000000000000000000000000000000000000000000000000000100016339432832ALEX MONTEIRO DA SILVA                  RUA IVA MOURA LIMA - 04 - JARDIM MIRNA I            04855540                                                            000107
2SR. CAIXA, APOS O VENCIMENTO COBRAR 10% DE MULTA                                NAO RECEBER APOS 30 DIAS DO VENCIMENTO.                                                                                                                                                                                                         01051800000000000000105180000000000000       009077090006612516339405181P000108
100000000000000000000009077090006612500000000000000000000000010002100031803805181700000000002            2  01318038051810051800000002819360000000001N010518000000000000000000000000000000000000000000000000000000000000000100031803864877ELEILSON FELIPPE SANTOS                 RUA SANTA GREGORIA - 193 - CIDADE DUTRA             04806030                                                            000110
2SR. CAIXA, APOS O VENCIMENTO COBRAR 10% DE MULTA                                NAO RECEBER APOS 30 DIAS DO VENCIMENTO.                                                                                                                                                                                                         01051800000000000000105180000000000000       0090770900066125318038051817000111
100000000000000000000009077090006612500000000000000000000000010002100026032605181500000000002            2  01260326051810051800000008047230000000001N010518000000000000000000000000000000000000000000000000000000000000000100026032632857MARILA LOPES PEREIRA                    AVENIDA LUIZ GISHOKEM - 1761 AP.13 BL.05            05831315                                                            000113
2SR. CAIXA, APOS O VENCIMENTO COBRAR 10% DE MULTA                                NAO RECEBER APOS 30 DIAS DO VENCIMENTO.                                                                                                                                                                                                         01051800000000000000105180000000000000       0090770900066125260326051815000114
100000000000000000000009077090006612500000000000000000000000010002100026032605182300000000002            2  01260326051810051800000001940160000000001N010518000000000000000000000000000000000000000000000000000000000000000100026032632857MARILA LOPES PEREIRA                    AVENIDA LUIZ GISHOKEM - 1761 AP.13 BL.05            05831315                                                            000116
2SR. CAIXA, APOS O VENCIMENTO COBRAR 10% DE MULTA                                NAO RECEBER APOS 30 DIAS DO VENCIMENTO.                                                                                                                                                                                                         01051800000000000000105180000000000000       0090770900066125260326051823000117
100000000000000000000009077090006612500000000000000000000000010002100063064505181100000000002            2  01630645051810051800000003359790000000001N010518000000000000000000000000000000000000000000000000000000000000000100063064537849ANTONIO APARECIDO DA SILVA DESTEFANO    RUA PROFESSOR TEODORO BRAGA - 46 - VILA             02966020                                                            000119
2SR. CAIXA, APOS O VENCIMENTO COBRAR 10% DE MULTA                                NAO RECEBER APOS 30 DIAS DO VENCIMENTO.                                                                                                                                                                                                         01051800000000000000105180000000000000       0090770900066125630645051811000120
100000000000000000000009077090006612500000000000000000000000010002100010107705181700000000002            2  01101077051810051800000003219680000000001N010518000000000000000000000000000000000000000000000000000000000000000100010107711834VALDEMAR FECCHIO                        RUA DOUTOR MARTINS DE OLIVEIRA - 529 AP.            05638030                                                            000122
2SR. CAIXA, APOS O VENCIMENTO COBRAR 10% DE MULTA                                NAO RECEBER APOS 30 DIAS DO VENCIMENTO.                                                                                                                                                                                                         01051800000000000000105180000000000000       0090770900066125101077051817000123
100000000000000000000009077090006612500000000000000000000000010002100003330705181600000000002            2  01033307051810051800000004141930000000001N010518000000000000000000000000000000000000000000000000000000000000000100003330791837MARLI DA SILVA BARBOSA                  RUA GLICERIO CERQUEIRA LEITE - 151 - JAR            03675040                                                            000125
2SR. CAIXA, APOS O VENCIMENTO COBRAR 10% DE MULTA                                NAO RECEBER APOS 30 DIAS DO VENCIMENTO.                                                                                                                                                                                                         01051800000000000000105180000000000000       0090770900066125033307051816000126
100000000000000000000009077090006612500000000000000000000000010002100008931005181400000000002            2  01089310051810051800000001683640000000001N010518000000000000000000000000000000000000000000000000000000000000000100008931031874MARIA MARINHO DE OLIVEIRA               AVENIDA 9 DE JULHO - 1854 AP.81 - BELA V            01312001                                                            000128
2SR. CAIXA, APOS O VENCIMENTO COBRAR 10% DE MULTA                                NAO RECEBER APOS 30 DIAS DO VENCIMENTO.                                                                                                                                                                                                         01051800000000000000105180000000000000       0090770900066125089310051814000129
100000000000000000000009077090006612500000000000000000000000010002100005920505181000000000002            2  01059205051810051800000001956080000000001N010518000000000000000000000000000000000000000000000000000000000000000100005920579846SONIA MARIA VALDO POLLO                 RUA PALMIRA CERVI BARBARO - 797 - CIDADE            13214370                                                            000131
2SR. CAIXA, APOS O VENCIMENTO COBRAR 10% DE MULTA                                NAO RECEBER APOS 30 DIAS DO VENCIMENTO.                                                                                                                                                                                                         01051800000000000000105180000000000000       0090770900066125059205051810000132
100000000000000000000009077090006612500000000000000000000000010002100002494105181100000000002            2  01024941051810051800000002941050000000001N010518000000000000000000000000000000000000000000000000000000000000000100002494107881CIRO FRANCISCO MARCHI DURIGON           RUA MONTE CASTELO - 262 AP.115 - AVIACAO            11702720                                                            000134
2SR. CAIXA, APOS O VENCIMENTO COBRAR 10% DE MULTA                                NAO RECEBER APOS 30 DIAS DO VENCIMENTO.                                                                                                                                                                                                         01051800000000000000105180000000000000       0090770900066125024941051811000135
100000000000000000000009077090006612500000000000000000000000010002100007002305181900000000002            2  01070023051810051800000002891210000000001N010518000000000000000000000000000000000000000000000000000000000000000100007002345869DOMINGOS DE BRITO GALVAO                RUA MONTE CASTELO - 262 AP.44 - AVIACAO             11702720                                                            000137
2SR. CAIXA, APOS O VENCIMENTO COBRAR 10% DE MULTA                                NAO RECEBER APOS 30 DIAS DO VENCIMENTO.                                                                                                                                                                                                         01051800000000000000105180000000000000       0090770900066125070023051819000138
100000000000000000000009077090006612500000000000000000000000010002100009346805181900000000002            2  01093468051810051800000001204350000000001N010518000000000000000000000000000000000000000000000000000000000000000100009346863862NELSON DE SOUZA SANTOS                  RUA PRIMEIRA CRUZ - 90 - PARQUE INDEPEND            03236060                                                            000140
2SR. CAIXA, APOS O VENCIMENTO COBRAR 10% DE MULTA                                NAO RECEBER APOS 30 DIAS DO VENCIMENTO.                                                                                                                                                                                                         01051800000000000000105180000000000000       0090770900066125093468051819000141
100000000000000000000009077090006612500000000000000000000000010002100016299005181200000000002            2  01162990051810051800000002787110000000001N010518000000000000000000000000000000000000000000000000000000000000000100016299008857FERNANDO CESAR CARVALHO                 AVENIDA MARCONDES DE BRITO - 1340 AP.74             03509000                                                            000143
2SR. CAIXA, APOS O VENCIMENTO COBRAR 10% DE MULTA                                NAO RECEBER APOS 30 DIAS DO VENCIMENTO.                                                                                                                                                                                                         01051800000000000000105180000000000000       0090770900066125162990051812000144
100000000000000000000009077090006612500000000000000000000000010002100031082805181600000000002            2  01310828051810051800000002800640000000001N010518000000000000000000000000000000000000000000000000000000000000000100031082898880VANESSA DOS SANTOS NEIVA                RUA MONTE CASTELO - 296 AP.33 - BAIRRO A            11702720                                                            000146
2SR. CAIXA, APOS O VENCIMENTO COBRAR 10% DE MULTA                                NAO RECEBER APOS 30 DIAS DO VENCIMENTO.                                                                                                                                                                                                         01051800000000000000105180000000000000       0090770900066125310828051816000147
100000000000000000000009077090006612500000000000000000000000010002100065895305181600000000002            2  01658953051810051800000001705190000000001N010518000000000000000000000000000000000000000000000000000000000000000100065895304834MARINHO BARBOSA CUNHA                   AVENIDA EDU CHAVES - 639 AP.43 - PARQUE             02229000                                                            000149
2SR. CAIXA, APOS O VENCIMENTO COBRAR 10% DE MULTA                                NAO RECEBER APOS 30 DIAS DO VENCIMENTO.                                                                                                                                                                                                         01051800000000000000105180000000000000       0090770900066125658953051816000150
9                                                                                                                                                                                                                                                                                                                                                                                                         000151