01REMESSA01COBRANCA       00000000000005331186HB SANTOS CONSTRUTORA E INCORP237BRADESCO       010223        MX0000065                                                                                                                                                                                                                                                                                     000001
100000000000000000000009033990000995400000000000000000000000010002020026858602231300000000002            2  01268586022308022300000002997060000000001N010223000000000000000000000000000000000000000000000000000000000000000100026858625879GLAUCE FERREIRA DE OLIVEIRA FALSI       RUA LOURENCO ANTONIO BRAGANCA - 116 - JA            04403160                                                            000002
2SR. CAIXA, APOS O VENCIMENTO COBRAR 2% DE MULTA                                 NAO RECEBER APOS 30 DIAS DO VENCIMENTO.                                                                                                                                                                                                         01022300000000000000102230000000000000       0090339900009954268586022313000003
100000000000000000000009033990000995400000000000000000000000010002020016960802231400000000002            2  01169608022308022300000002861690000000001N010223000000000000000000000000000000000000000000000000000000000000000100016960804876LUIZ ALVES DE SOUZA JUNIOR              RUA URUGUAI - 89 AP.61 - JARDIM GUILHERM            11702300                                                            000005
2SR. CAIXA, APOS O VENCIMENTO COBRAR 2% DE MULTA                                 NAO RECEBER APOS 30 DIAS DO VENCIMENTO.                                                                                                                                                                                                         01022300000000000000102230000000000000       0090339900009954169608022314000006
100000000000000000000009033990000995400000000000000000000000010002020029425002231600000000002            2  01294250022308022300000002850200000000001N010223000000000000000000000000000000000000000000000000000000000000000100029425027897FABIA DOS SANTOS DE ANDRADE             AVENIDA ALCIDES CANDIDO DOS SANTOS - 248            11705480                                                            000008
2SR. CAIXA, APOS O VENCIMENTO COBRAR 2% DE MULTA                                 NAO RECEBER APOS 30 DIAS DO VENCIMENTO.                                                                                                                                                                                                         01022300000000000000102230000000000000       0090339900009954294250022316000009
100000000000000000000009033990000995400000000000000000000000010002020078382702231100000000002            2  01783827022308022300000002880270000000001N010223000000000000000000000000000000000000000000000000000000000000000100078382700497JARMELINA BARBOSA DA SILVA              RUA OSCAR CINTRA GORDINHO - 211 AP.51 -             01512010                                                            000011
2SR. CAIXA, APOS O VENCIMENTO COBRAR 2% DE MULTA                                 NAO RECEBER APOS 30 DIAS DO VENCIMENTO.                                                                                                                                                                                                         01022300000000000000102230000000000000       0090339900009954783827022311000012
100000000000000000000009033990000995400000000000000000000000010002020007535302231000000000002            2  01075353022308022300000002824460000000001N010223000000000000000000000000000000000000000000000000000000000000000100007535375839AINAILDE PEREIRA DE CASTRO OLIVETTO     TRAVESSA DORALINA ELIETE ADAO DA SILVA -            08021026                                                            000014
2SR. CAIXA, APOS O VENCIMENTO COBRAR 2% DE MULTA                                 NAO RECEBER APOS 30 DIAS DO VENCIMENTO.                                                                                                                                                                                                         01022300000000000000102230000000000000       0090339900009954075353022310000015
100000000000000000000009033990000995400000000000000000000000010002020017229702231600000000002            2  01172297022308022300000002991900000000001N010223000000000000000000000000000000000000000000000000000000000000000100017229751802BERENICE VIEIRA KERSTING                RUA ATIBAIA - 17 AP.417 - BAIRRO IMPERAD            11707380                                                            000017
2SR. CAIXA, APOS O VENCIMENTO COBRAR 2% DE MULTA                                 NAO RECEBER APOS 30 DIAS DO VENCIMENTO.                                                                                                                                                                                                         01022300000000000000102230000000000000       0090339900009954172297022316000018
100000000000000000000009033990000995400000000000000000000000010002020028974202231800000000002            2  01289742022308022300000002794370000000001N010223000000000000000000000000000000000000000000000000000000000000000100028974233827MARISTELA FAVANI DE OLIVEIRA            RUA GIUSEPPE CARNEVALLI - 96 - BAIRRO BO            09572100                                                            000020
2SR. CAIXA, APOS O VENCIMENTO COBRAR 2% DE MULTA                                 NAO RECEBER APOS 30 DIAS DO VENCIMENTO.                                                                                                                                                                                                         01022300000000000000102230000000000000       0090339900009954289742022318000021
100000000000000000000009033990000995400000000000000000000000010002020092184802231500000000002            2  01921848022308022300000002757180000000001N010223000000000000000000000000000000000000000000000000000000000000000100092184804800CARMEM DO SOCORRO GUILHERME             ESTRADA SAO FRANCISCO - 1.850 AP.182A -             06765000                                                            000023
2SR. CAIXA, APOS O VENCIMENTO COBRAR 2% DE MULTA                                 NAO RECEBER APOS 30 DIAS DO VENCIMENTO.                                                                                                                                                                                                         01022300000000000000102230000000000000       0090339900009954921848022315000024
100000000000000000000009033990000995400000000000000000000000010002020009169702231500000000002            2  01091697022308022300000002211280000000001N010223000000000000000000000000000000000000000000000000000000000000000100009169701830TADEU CONSTANTINO LOPES                 RUA JOSE ANTONIO COELHO - 349 CASA 01 -             04011061                                                            000026
2SR. CAIXA, APOS O VENCIMENTO COBRAR 2% DE MULTA                                 NAO RECEBER APOS 30 DIAS DO VENCIMENTO.                                                                                                                                                                                                         01022300000000000000102230000000000000       0090339900009954091697022315000027
100000000000000000000009033990000995400000000000000000000000010002020042480102231300000000002            2  01424801022308022300000002812970000000001N010223000000000000000000000000000000000000000000000000000000000000000100042480155870JAMITRE SOIOMARA ALVES DO NASCIMENTO DAVRUA URUGUAI - 89 AP.75 - JARDIM GUILHERM            11702300                                                            000029
2SR. CAIXA, APOS O VENCIMENTO COBRAR 2% DE MULTA                                 NAO RECEBER APOS 30 DIAS DO VENCIMENTO.                                                                                                                                                                                                         01022300000000000000102230000000000000       0090339900009954424801022313000030
100000000000000000000009033990000995400000000000000000000000010002020008966502231900000000002            2  01089665022308022300000002657800000000001N010223000000000000000000000000000000000000000000000000000000000000000100008966511856MONICA SILVA REIS                       RUA ORATORIO - 264 E FUNDOS - BANGU - SA            09280550                                                            000032
2SR. CAIXA, APOS O VENCIMENTO COBRAR 2% DE MULTA                                 NAO RECEBER APOS 30 DIAS DO VENCIMENTO.                                                                                                                                                                                                         01022300000000000000102230000000000000       0090339900009954089665022319000033
100000000000000000000009033990000995400000000000000000000000010002020001356902231P00000000002            2  01013569022308022300000002854850000000001N010223000000000000000000000000000000000000000000000000000000000000000100001356993800DALVA MARIA DOS SANTOS                  RUA URUGUAI - 89 AP.74 - AVIACAO - PRAIA            11702300                                                            000035
2SR. CAIXA, APOS O VENCIMENTO COBRAR 2% DE MULTA                                 NAO RECEBER APOS 30 DIAS DO VENCIMENTO.                                                                                                                                                                                                         01022300000000000000102230000000000000       009033990000995401356902231P000036
100000000000000000000009033990000995400000000000000000000000010002020024615502231200000000002            2  01246155022308022300000003255830000000001N010223000000000000000000000000000000000000000000000000000000000000000100024615557884GILBERTO JOSE GONSALES                  RUA URUGUAI - 89 AP.115 - JARDIM GUILHER            11702300                                                            000038
2SR. CAIXA, APOS O VENCIMENTO COBRAR 2% DE MULTA                                 NAO RECEBER APOS 30 DIAS DO VENCIMENTO.                                                                                                                                                                                                         01022300000000000000102230000000000000       0090339900009954246155022312000039
100000000000000000000009033990000995400000000000000000000000010002020031473702231200000000002            2  01314737022308022300000002301370000000001N010223000000000000000000000000000000000000000000000000000000000000000100031473799813MURIEL DA SILVA DE MOURA SOUZA          RUA CAPITAO PAULINO FREIRE - 300 AP.014             08717100                                                            000041
2SR. CAIXA, APOS O VENCIMENTO COBRAR 2% DE MULTA                                 NAO RECEBER APOS 30 DIAS DO VENCIMENTO.                                                                                                                                                                                                         01022300000000000000102230000000000000       0090339900009954314737022312000042
100000000000000000000009033990000995400000000000000000000000010002020036949502231100000000002            2  01369495022308022300000003046670000000001N010223000000000000000000000000000000000000000000000000000000000000000100036949505833FELIPE APARECIDO DOS SANTOS             RUA DAS MIMOSAS - 67 CASA 09 - VILA LUCI            03144010                                                            000044
2SR. CAIXA, APOS O VENCIMENTO COBRAR 2% DE MULTA                                 NAO RECEBER APOS 30 DIAS DO VENCIMENTO.                                                                                                                                                                                                         01022300000000000000102230000000000000       0090339900009954369495022311000045
100000000000000000000009033990000995400000000000000000000000010002020008539302231900000000002            2  01085393022308022300000003112810000000001N010223000000000000000000000000000000000000000000000000000000000000000100008539365871EDMILSON RAIMUNDO DOS SANTOS            RUA CALIDICE - 247 - PARQUE CRUZEIRO - S            08070010                                                            000047
2SR. CAIXA, APOS O VENCIMENTO COBRAR 2% DE MULTA                                 NAO RECEBER APOS 30 DIAS DO VENCIMENTO.                                                                                                                                                                                                         01022300000000000000102230000000000000       0090339900009954085393022319000048
100000000000000000000009033990000995400000000000000000000000010002020031040902231800000000002            2  01310409022308022300000003206990000000001N010223000000000000000000000000000000000000000000000000000000000000000100031040952801ANDRESSA REGINA FAVERANI LUPPI          RUA AMALIA BELLOTTI PASTORELLO - 169 - T            11724030                                                            000050
2SR. CAIXA, APOS O VENCIMENTO COBRAR 2% DE MULTA                                 NAO RECEBER APOS 30 DIAS DO VENCIMENTO.                                                                                                                                                                                                         01022300000000000000102230000000000000       0090339900009954310409022318000051
100000000000000000000009033990000995400000000000000000000000010002020024558902231400000000002            2  01245589022308022300000005361410000000001N010223000000000000000000000000000000000000000000000000000000000000000100024558912838EDILENE GORGATTI                        RUA ITARARE - 76 AP.142 - JARDIM GUILHER            11701820                                                            000053
2SR. CAIXA, APOS O VENCIMENTO COBRAR 2% DE MULTA                                 NAO RECEBER APOS 30 DIAS DO VENCIMENTO.                                                                                                                                                                                                         01022300000000000000102230000000000000       0090339900009954245589022314000054
100000000000000000000009033990000995400000000000000000000000010002020004611202231P00000000002            2  01046112022308022300000001974280000000001N010223000000000000000000000000000000000000000000000000000000000000000100004611218830TANIA MARIA DA SILVA NUNES PEREIRA LUIZ RUA URUGUAI - 89 AP.103 - JARDIM GUILHER            11702300                                                            000056
2SR. CAIXA, APOS O VENCIMENTO COBRAR 2% DE MULTA                                 NAO RECEBER APOS 30 DIAS DO VENCIMENTO.                                                                                                                                                                                                         01022300000000000000102230000000000000       009033990000995404611202231P000057
100000000000000000000009033990000995400000000000000000000000010002020010548802231700000000002            2  01105488022308022300000003508000000000001N010223000000000000000000000000000000000000000000000000000000000000000100010548844801RICARDO DE JESUS CALDAS                 RUA ANTONIO AMBUBA - 50 CASA 60 - BAIRRO            05782370                                                            000059
2SR. CAIXA, APOS O VENCIMENTO COBRAR 2% DE MULTA                                 NAO RECEBER APOS 30 DIAS DO VENCIMENTO.                                                                                                                                                                                                         01022300000000000000102230000000000000       0090339900009954105488022317000060
100000000000000000000009033990000995400000000000000000000000010002020039623802231600000000002            2  01396238022308022300000003083110000000001N010223000000000000000000000000000000000000000000000000000000000000000100039623826826LEONARDO GUEDES PINTO                   RUA URUGUAI - 89 AP.24 - AVIACAO - PRAIA            11702300                                                            000062
2SR. CAIXA, APOS O VENCIMENTO COBRAR 2% DE MULTA                                 NAO RECEBER APOS 30 DIAS DO VENCIMENTO.                                                                                                                                                                                                         01022300000000000000102230000000000000       0090339900009954396238022316000063
100000000000000000000009033990000995400000000000000000000000010002020039558602231500000000002            2  01395586022308022300000002830510000000001N010223000000000000000000000000000000000000000000000000000000000000000100039558638838TAMIRES ROCHA FRANCISCO                 RUA DUARTE DE CARVALHO - 185 AP.102 - BA            03084030                                                            000065
2SR. CAIXA, APOS O VENCIMENTO COBRAR 2% DE MULTA                                 NAO RECEBER APOS 30 DIAS DO VENCIMENTO.                                                                                                                                                                                                         01022300000000000000102230000000000000       0090339900009954395586022315000066
100000000000000000000009033990000995400000000000000000000000010002020032038702231400000000002            2  01320387022308022300000002302810000000001N010223000000000000000000000000000000000000000000000000000000000000000100032038775893GUSTAVO PEREIRA DA CRUZ                 RUA SAO FIDELIS - 203 - JARDIM BRASIL -             16074050                                                            000068
2SR. CAIXA, APOS O VENCIMENTO COBRAR 2% DE MULTA                                 NAO RECEBER APOS 30 DIAS DO VENCIMENTO.                                                                                                                                                                                                         01022300000000000000102230000000000000       0090339900009954320387022314000069
100000000000000000000009033990000995400000000000000000000000010002020008993102231100000000002            2  01089931022308022300000010868040000000001N010223000000000000000000000000000000000000000000000000000000000000000100008993178801PATRICIA BITTENCOURT FRACARO            RUA MARCIO MAZZEI - 337 - VILA NOVA MAZZ            02316050                                                            000071
2SR. CAIXA, APOS O VENCIMENTO COBRAR 2% DE MULTA                                 NAO RECEBER APOS 30 DIAS DO VENCIMENTO.                                                                                                                                                                                                         01022300000000000000102230000000000000       0090339900009954089931022311000072
100000000000000000000009033990000995400000000000000000000000010002020012955202231400000000002            2  01129552022308022300000005336710000000001N010223000000000000000000000000000000000000000000000000000000000000000100012955241806MAURO ALVES SILVA                       RUA TRAITUBA - 354 - BAIRRO SAUDE - SAO             04142050                                                            000074
2SR. CAIXA, APOS O VENCIMENTO COBRAR 2% DE MULTA                                 NAO RECEBER APOS 30 DIAS DO VENCIMENTO.                                                                                                                                                                                                         01022300000000000000102230000000000000       0090339900009954129552022314000075
9                                                                                                                                                                                                                                                                                                                                                                                                         000076