01REMESSA01COBRANCA       00000000000004991454AIRES CONSTRUTORA E INCORPORAD237BRADESCO       051217        MX0000079                                                                                                                                                                                                                                                                                     000001
100000000000000000000009077090001674800000000000000000000000010002100001224512171800000000002            2  01012245121725121700000003300000000000001N051217000000000000000000000000000000000000000000000000000000000000000100001224509579REINALDO JUNIOR MARTINS DE ABREU        RUA JUSTINO NIGRO - 449 - INTERLAGOS - S            04815030                                                            000002
2SR. CAIXA, APOS O VENCIMENTO COBRAR 10% DE MULTA                                NAO RECEBER APOS 30 DIAS DO VENCIMENTO.                                                                                                                                                                                                         05121700000000000000512170000000000000       0090770900016748012245121718000003
100000000000000000000009077090001674800000000000000000000000010002100003325112171900000000002            2  01033251121725121700000003209470000000001N051217000000000000000000000000000000000000000000000000000000000000000100003325102808MARCOS DE OLIVEIRA JUNIOR               RUA LUIS NOVELLETO - 91 - PARQUE CONTINE            05324080                                                            000005
2SR. CAIXA, APOS O VENCIMENTO COBRAR 10% DE MULTA                                NAO RECEBER APOS 30 DIAS DO VENCIMENTO.                                                                                                                                                                                                         05121700000000000000512170000000000000       0090770900016748033251121719000006
100000000000000000000009077090001674800000000000000000000000010002100016338912171000000000002            2  01163389121725121700000003256060000000001N051217000000000000000000000000000000000000000000000000000000000000000100016338929806EDVALDO DA SILVA ANDRADE                RUA ARIA - 434 - PARQUE ALVES DE LIMA -             04902170                                                            000008
2SR. CAIXA, APOS O VENCIMENTO COBRAR 10% DE MULTA                                NAO RECEBER APOS 30 DIAS DO VENCIMENTO.                                                                                                                                                                                                         05121700000000000000512170000000000000       0090770900016748163389121710000009
100000000000000000000009077090001674800000000000000000000000010002100026836912171000000000002            2  01268369121725121700000002948580000000001N051217000000000000000000000000000000000000000000000000000000000000000100026836908860VANDERLEI FIGUEIREDO DE CARVALHO        RUA TUPI - 840 - VILA TUPI - PRAIA GRAND            11703260                                                            000011
2SR. CAIXA, APOS O VENCIMENTO COBRAR 10% DE MULTA                                NAO RECEBER APOS 30 DIAS DO VENCIMENTO.                                                                                                                                                                                                         05121700000000000000512170000000000000       0090770900016748268369121710000012
100000000000000000000009077090001674800000000000000000000000010002100059861512171700000000002            2  01598615121725121700000003275050000000001N051217000000000000000000000000000000000000000000000000000000000000000100059861576800REINALDO LOPES DE OLIVEIRA              RUA DA SERVIDAO - 40 - VILA ROSCHEL - SA            04891045                                                            000014
2SR. CAIXA, APOS O VENCIMENTO COBRAR 10% DE MULTA                                NAO RECEBER APOS 30 DIAS DO VENCIMENTO.                                                                                                                                                                                                         05121700000000000000512170000000000000       0090770900016748598615121717000015
100000000000000000000009077090001674800000000000000000000000010002100008158812171500000000002            2  01081588121725121700000001869690000000001N051217000000000000000000000000000000000000000000000000000000000000000100008158846807JULIO CESAR KYOO WATANUKI               AVENIDA PRESIDENTE CASTELO BRANCO - 460             11700800                                                            000017
2SR. CAIXA, APOS O VENCIMENTO COBRAR 10% DE MULTA                                NAO RECEBER APOS 30 DIAS DO VENCIMENTO.                                                                                                                                                                                                         05121700000000000000512170000000000000       0090770900016748081588121715000018
100000000000000000000009077090001674800000000000000000000000010002100028379812171P00000000002            2  01283798121725121700000002937380000000001N051217000000000000000000000000000000000000000000000000000000000000000100028379879805EDMILSON DANIEL GARCIA WATANUKI         RUA MONTE CASTELO - 295 AP.82 - AVIACAO             11702720                                                            000020
2SR. CAIXA, APOS O VENCIMENTO COBRAR 10% DE MULTA                                NAO RECEBER APOS 30 DIAS DO VENCIMENTO.                                                                                                                                                                                                         05121700000000000000512170000000000000       009077090001674828379812171P000021
100000000000000000000009077090001674800000000000000000000000010002100016330912171500000000002            2  01163309121725121700000003255230000000001N051217000000000000000000000000000000000000000000000000000000000000000100016330938830KARINA CORDEIRO PIASSA                  CONDE MOREIRA LIMA - 644 - JARDIM JABAQU            04384032                                                            000023
2SR. CAIXA, APOS O VENCIMENTO COBRAR 10% DE MULTA                                NAO RECEBER APOS 30 DIAS DO VENCIMENTO.                                                                                                                                                                                                         05121700000000000000512170000000000000       0090770900016748163309121715000024
100000000000000000000009077090001674800000000000000000000000010002100077027612171800000000002            2  01770276121725121700000003163820000000001N051217000000000000000000000000000000000000000000000000000000000000000100077027604868CLINEU LISSONI                          AVENIDA VILA EMA - 1100 AP.41 - VILA PRU            03156000                                                            000026
2SR. CAIXA, APOS O VENCIMENTO COBRAR 10% DE MULTA                                NAO RECEBER APOS 30 DIAS DO VENCIMENTO.                                                                                                                                                                                                         05121700000000000000512170000000000000       0090770900016748770276121718000027
100000000000000000000009077090001674800000000000000000000000010002100005627912171400000000002            2  01056279121725121700000002966230000000001N051217000000000000000000000000000000000000000000000000000000000000000100005627947861FERNANDO CESAR MARCELINO                RUA CASA FORTE - 46 AP.11 - AGUA FRIA -             02336040                                                            000029
2SR. CAIXA, APOS O VENCIMENTO COBRAR 10% DE MULTA                                NAO RECEBER APOS 30 DIAS DO VENCIMENTO.                                                                                                                                                                                                         05121700000000000000512170000000000000       0090770900016748056279121714000030
100000000000000000000009077090001674800000000000000000000000010002100029380712171500000000002            2  01293807121725121700000002948760000000001N051217000000000000000000000000000000000000000000000000000000000000000100029380708882EDUARDO MENDONCA DAMASCENO              RUA MONTE CASTELO - 296 AP.12 - AVIACAO             11702720                                                            000032
2SR. CAIXA, APOS O VENCIMENTO COBRAR 10% DE MULTA                                NAO RECEBER APOS 30 DIAS DO VENCIMENTO.                                                                                                                                                                                                         05121700000000000000512170000000000000       0090770900016748293807121715000033
100000000000000000000009077090001674800000000000000000000000010002100023988512171900000000002            2  01239885121725121700000002994130000000001N051217000000000000000000000000000000000000000000000000000000000000000100023988525634DALMY PIMENTA                           SAO CAETANO - 136 - VILA SAO VICENTE - U            38026220                                                            000035
2SR. CAIXA, APOS O VENCIMENTO COBRAR 10% DE MULTA                                NAO RECEBER APOS 30 DIAS DO VENCIMENTO.                                                                                                                                                                                                         05121700000000000000512170000000000000       0090770900016748239885121719000036
100000000000000000000009077090001674800000000000000000000000010002100004735212171000000000002            2  01047352121725121700000003255410000000001N051217000000000000000000000000000000000000000000000000000000000000000100004735273832DARIO LUIZ GONCALVES                    RUA MONTE CASTELO - 295 AP.113 - AVIACAO            11702720                                                            000038
2SR. CAIXA, APOS O VENCIMENTO COBRAR 10% DE MULTA                                NAO RECEBER APOS 30 DIAS DO VENCIMENTO.                                                                                                                                                                                                         05121700000000000000512170000000000000       0090770900016748047352121710000039
100000000000000000000009077090001674800000000000000000000000010002100007635212171000000000002            2  01076352121725121700000002910540000000001N051217000000000000000000000000000000000000000000000000000000000000000100007635293893SILVIO CARDOSO ZACARIAS                 RUA SOLIDONIO LEITE - 2718 AP.102 BLOCO             03275000                                                            000041
2SR. CAIXA, APOS O VENCIMENTO COBRAR 10% DE MULTA                                NAO RECEBER APOS 30 DIAS DO VENCIMENTO.                                                                                                                                                                                                         05121700000000000000512170000000000000       0090770900016748076352121710000042
100000000000000000000009077090001674800000000000000000000000010002100067192912171000000000002            2  01671929121725121700000002849330000000001N051217000000000000000000000000000000000000000000000000000000000000000100067192920800SONIA MARIA RIBEIRO SUDO                RUA INGAZEIRA - 133 - SAO MIGUEL - SAO P            08032080                                                            000044
2SR. CAIXA, APOS O VENCIMENTO COBRAR 10% DE MULTA                                NAO RECEBER APOS 30 DIAS DO VENCIMENTO.                                                                                                                                                                                                         05121700000000000000512170000000000000       0090770900016748671929121710000045
100000000000000000000009077090001674800000000000000000000000010002100007975912171400000000002            2  01079759121725121700000003166520000000001N051217000000000000000000000000000000000000000000000000000000000000000100007975958808JOCY VIGNADO                            RUA PEDRO GONCALVES SOBRINHO - 568 - PAR            13098641                                                            000047
2SR. CAIXA, APOS O VENCIMENTO COBRAR 10% DE MULTA                                NAO RECEBER APOS 30 DIAS DO VENCIMENTO.                                                                                                                                                                                                         05121700000000000000512170000000000000       0090770900016748079759121714000048
100000000000000000000009077090001674800000000000000000000000010002100036712512171700000000002            2  01367125121725121700000002960820000000001N051217000000000000000000000000000000000000000000000000000000000000000100036712580803WALTER BARRETO DE ALMEIDA               RUA MONTE CASTELO - 296 AP.44 - AVIACAO             11702720                                                            000050
2SR. CAIXA, APOS O VENCIMENTO COBRAR 10% DE MULTA                                NAO RECEBER APOS 30 DIAS DO VENCIMENTO.                                                                                                                                                                                                         05121700000000000000512170000000000000       0090770900016748367125121717000051
100000000000000000000009077090001674800000000000000000000000010002100036386812171600000000002            2  01363868121725121700000003344320000000001N051217000000000000000000000000000000000000000000000000000000000000000100036386861833ALINE LEE WEI DE SOUZA                  AV. PRES.CASTELO BRANCO - 9127 AP.251 BL            11704600                                                            000053
2SR. CAIXA, APOS O VENCIMENTO COBRAR 10% DE MULTA                                NAO RECEBER APOS 30 DIAS DO VENCIMENTO.                                                                                                                                                                                                         05121700000000000000512170000000000000       0090770900016748363868121716000054
100000000000000000000009077090001674800000000000000000000000010002100026187912171000000000002            2  01261879121725121700000003103420000000001N051217000000000000000000000000000000000000000000000000000000000000000100026187960807CARINA CANTACESSO DE SOUZA              RUA MONTE CASTELO - 296 AP.91 - AVIACAO             11702720                                                            000056
2SR. CAIXA, APOS O VENCIMENTO COBRAR 10% DE MULTA                                NAO RECEBER APOS 30 DIAS DO VENCIMENTO.                                                                                                                                                                                                         05121700000000000000512170000000000000       0090770900016748261879121710000057
100000000000000000000009077090001674800000000000000000000000010002100070465312171700000000002            2  01704653121725121700000003042080000000001N051217000000000000000000000000000000000000000000000000000000000000000100070465320953SIDNEY CARASKI                          RUA DR.CELSO PACHECO BENTIM - 502 - PARQ            03571020                                                            000059
2SR. CAIXA, APOS O VENCIMENTO COBRAR 10% DE MULTA                                NAO RECEBER APOS 30 DIAS DO VENCIMENTO.                                                                                                                                                                                                         05121700000000000000512170000000000000       0090770900016748704653121717000060
100000000000000000000009077090001674800000000000000000000000010002100075759412171200000000002            2  01757594121725121700000002382210000000001N051217000000000000000000000000000000000000000000000000000000000000000100075759446800VALTER MUTAFEI                          RUA MONTE CASTELO - 295 AP.54 - AVIACAO             11702720                                                            000062
2SR. CAIXA, APOS O VENCIMENTO COBRAR 10% DE MULTA                                NAO RECEBER APOS 30 DIAS DO VENCIMENTO.                                                                                                                                                                                                         05121700000000000000512170000000000000       0090770900016748757594121712000063
100000000000000000000009077090001674800000000000000000000000010002100070328712171000000000002            2  01703287121725121700000003403590000000001N051217000000000000000000000000000000000000000000000000000000000000000100070328706868VALTER LIMA FERNANDES                   RUA DOMINGOS JORGE VELHO - 52 - CENTRO -            06843550                                                            000065
2SR. CAIXA, APOS O VENCIMENTO COBRAR 10% DE MULTA                                NAO RECEBER APOS 30 DIAS DO VENCIMENTO.                                                                                                                                                                                                         05121700000000000000512170000000000000       0090770900016748703287121710000066
100000000000000000000009077090001674800000000000000000000000010002100023132612171600000000002            2  01231326121725121700000001848800000000001N051217000000000000000000000000000000000000000000000000000000000000000100023132672882LEANDRO MORENO                          RUA MONTE CASTELO - 296 AP.64 - AVIACAO             11702720                                                            000068
2SR. CAIXA, APOS O VENCIMENTO COBRAR 10% DE MULTA                                NAO RECEBER APOS 30 DIAS DO VENCIMENTO.                                                                                                                                                                                                         05121700000000000000512170000000000000       0090770900016748231326121716000069
100000000000000000000009077090001674800000000000000000000000010002100099264612171500000000002            2  01992646121725121700000003152950000000001N051217000000000000000000000000000000000000000000000000000000000000000100099264692800LEONTINO PINHEIRO DA SILVA              AVENIDA JOAO BATISTA FITIPALDI - 469 - V            08685000                                                            000071
2SR. CAIXA, APOS O VENCIMENTO COBRAR 10% DE MULTA                                NAO RECEBER APOS 30 DIAS DO VENCIMENTO.                                                                                                                                                                                                         05121700000000000000512170000000000000       0090770900016748992646121715000072
100000000000000000000009077090001674800000000000000000000000010002100000666312171600000000002            2  01006663121725121700000003041700000000001N051217000000000000000000000000000000000000000000000000000000000000000100000666344825LUIZ HENRIQUE DE CAMPOS                 RUA JOAO CARLOS CAVALCANTI REIS - 21 - J            02281206                                                            000074
2SR. CAIXA, APOS O VENCIMENTO COBRAR 10% DE MULTA                                NAO RECEBER APOS 30 DIAS DO VENCIMENTO.                                                                                                                                                                                                         05121700000000000000512170000000000000       0090770900016748006663121716000075
100000000000000000000009077090001674800000000000000000000000010002100029155012171600000000002            2  01291550121725121700000003212170000000001N051217000000000000000000000000000000000000000000000000000000000000000100029155026842DANIELA YOSHIDA                         RUA MONTE CASTELO - 262 AP.34 - AVIACAO             11702720                                                            000077
2SR. CAIXA, APOS O VENCIMENTO COBRAR 10% DE MULTA                                NAO RECEBER APOS 30 DIAS DO VENCIMENTO.                                                                                                                                                                                                         05121700000000000000512170000000000000       0090770900016748291550121716000078
100000000000000000000009077090001674800000000000000000000000010002100034325512171200000000002            2  01343255121725121700000002765000000000001N051217000000000000000000000000000000000000000000000000000000000000000100034325567801LUIZ FERNANDO ALAMINO                   AVENIDA FLOR DE VILA FORMOSA - 337 - VIL            03366010                                                            000080
2SR. CAIXA, APOS O VENCIMENTO COBRAR 10% DE MULTA                                NAO RECEBER APOS 30 DIAS DO VENCIMENTO.                                                                                                                                                                                                         05121700000000000000512170000000000000       0090770900016748343255121712000081
100000000000000000000009077090001674800000000000000000000000010002100001204412171P00000000002            2  01012044121725121700000002615830000000001N051217000000000000000000000000000000000000000000000000000000000000000100001204431809CEZAR TALAVERA JUNIOR                   RUA MAESTRO ARTURO DE ANGELIS  - 190 AP.            05139010                                                            000083
2SR. CAIXA, APOS O VENCIMENTO COBRAR 10% DE MULTA                                NAO RECEBER APOS 30 DIAS DO VENCIMENTO.                                                                                                                                                                                                         05121700000000000000512170000000000000       009077090001674801204412171P000084
100000000000000000000009077090001674800000000000000000000000010002100004227512171900000000002            2  01042275121725121700000003390940000000001N051217000000000000000000000000000000000000000000000000000000000000000100004227553970ALESSANDRO ISRAEL GOULART               RUA PROFESSORA CARLINDA RIBEIRO - 21 - F            02866200                                                            000086
2SR. CAIXA, APOS O VENCIMENTO COBRAR 10% DE MULTA                                NAO RECEBER APOS 30 DIAS DO VENCIMENTO.                                                                                                                                                                                                         05121700000000000000512170000000000000       0090770900016748042275121719000087
100000000000000000000009077090001674800000000000000000000000010002100060811412171200000000002            2  01608114121725121700000003125140000000001N051217000000000000000000000000000000000000000000000000000000000000000100060811420868HELIO BASSI                             AV.PARIS,575 - PRACA ANTONIO FIGUEROA -             11700082                                                            000089
2SR. CAIXA, APOS O VENCIMENTO COBRAR 10% DE MULTA                                NAO RECEBER APOS 30 DIAS DO VENCIMENTO.                                                                                                                                                                                                         05121700000000000000512170000000000000       0090770900016748608114121712000090
100000000000000000000009077090001674800000000000000000000000010002100001024712171200000000002            2  01010247121725121700000002957210000000001N051217000000000000000000000000000000000000000000000000000000000000000100001024794881CLAUDIO RODRIGUES                       RUA ARACATUBA - 242 - LAPA - SAO PAULO -            05058010                                                            000092
2SR. CAIXA, APOS O VENCIMENTO COBRAR 10% DE MULTA                                NAO RECEBER APOS 30 DIAS DO VENCIMENTO.                                                                                                                                                                                                         05121700000000000000512170000000000000       0090770900016748010247121712000093
100000000000000000000009077090001674800000000000000000000000010002100002225012171300000000002            2  01022250121725121700000004533780000000001N051217000000000000000000000000000000000000000000000000000000000000000100002225072841PEDRO EDUARDO DE AZEVEDO                RUA NATH ZILMAN - 46 - JARDIM SAMAMBAIA             07600000                                                            000095
2SR. CAIXA, APOS O VENCIMENTO COBRAR 10% DE MULTA                                NAO RECEBER APOS 30 DIAS DO VENCIMENTO.                                                                                                                                                                                                         05121700000000000000512170000000000000       0090770900016748022250121713000096
100000000000000000000009077090001674800000000000000000000000010002100015039212171900000000002            2  01150392121725121700000003155030000000001N051217000000000000000000000000000000000000000000000000000000000000000100015039262817MARCOS ROBERTO DANTAS                   PCA CASTRO ALVES - 163 AP.33 - VILA SAO             13224299                                                            000098
2SR. CAIXA, APOS O VENCIMENTO COBRAR 10% DE MULTA                                NAO RECEBER APOS 30 DIAS DO VENCIMENTO.                                                                                                                                                                                                         05121700000000000000512170000000000000       0090770900016748150392121719000099
100000000000000000000009077090001674800000000000000000000000010002100019288712171P00000000002            2  01192887121725121700000002568920000000001N051217000000000000000000000000000000000000000000000000000000000000000100019288787844EMERSON LUIZ MARTINEZ PEREIRA           RUA MONTE CASTELO - 296 AP.74 - AVIACAO             11702720                                                            000101
2SR. CAIXA, APOS O VENCIMENTO COBRAR 10% DE MULTA                                NAO RECEBER APOS 30 DIAS DO VENCIMENTO.                                                                                                                                                                                                         05121700000000000000512170000000000000       009077090001674819288712171P000102
100000000000000000000009077090001674800000000000000000000000010002100027198412171300000000002            2  01271984121725121700000008754160000000001N051217000000000000000000000000000000000000000000000000000000000000000100027198452809CRISTIANE AURELIANO DA SILVA MAIA       RUA MONTE CASTELO - 262 AP.25 - AVIACAO             11702720                                                            000104
2SR. CAIXA, APOS O VENCIMENTO COBRAR 10% DE MULTA                                NAO RECEBER APOS 30 DIAS DO VENCIMENTO.                                                                                                                                                                                                         05121700000000000000512170000000000000       0090770900016748271984121713000105
100000000000000000000009077090001674800000000000000000000000010002100027198412172100000000002            2  01271984121725121700000002176010000000001N051217000000000000000000000000000000000000000000000000000000000000000100027198452809CRISTIANE AURELIANO DA SILVA MAIA       RUA MONTE CASTELO - 262 AP.25 - AVIACAO             11702720                                                            000107
2SR. CAIXA, APOS O VENCIMENTO COBRAR 10% DE MULTA                                NAO RECEBER APOS 30 DIAS DO VENCIMENTO.                                                                                                                                                                                                         05121700000000000000512170000000000000       0090770900016748271984121721000108
100000000000000000000009077090001674800000000000000000000000010002100021246212171700000000002            2  01212462121725121700000002655570000000001N051217000000000000000000000000000000000000000000000000000000000000000100021246231840ALEXANDRO DA CUNHA MIGUES               AVENIDA CONSELHEIRO CARRAO - 1861 CONJ.5            03403001                                                            000110
2SR. CAIXA, APOS O VENCIMENTO COBRAR 10% DE MULTA                                NAO RECEBER APOS 30 DIAS DO VENCIMENTO.                                                                                                                                                                                                         05121700000000000000512170000000000000       0090770900016748212462121717000111
100000000000000000000009077090001674800000000000000000000000010002100004864912171600000000002            2  01048649121725121700000001590010000000001N051217000000000000000000000000000000000000000000000000000000000000000100004864924600RENATO SANTACHIARA SALVADORI            RUA PENSYLVANIA - 116 - PAYSAGE BRISE -             06730000                                                            000113
2SR. CAIXA, APOS O VENCIMENTO COBRAR 10% DE MULTA                                NAO RECEBER APOS 30 DIAS DO VENCIMENTO.                                                                                                                                                                                                         05121700000000000000512170000000000000       0090770900016748048649121716000114
100000000000000000000009077090001674800000000000000000000000010002100018470512171700000000002            2  01184705121725121700000003906730000000001N051217000000000000000000000000000000000000000000000000000000000000000100018470520881SILVANA ALVES DE OLIVEIRA               RUA MONTE CASTELO - 262 AP.91 - AVIACAO             11702720                                                            000116
2SR. CAIXA, APOS O VENCIMENTO COBRAR 10% DE MULTA                                NAO RECEBER APOS 30 DIAS DO VENCIMENTO.                                                                                                                                                                                                         05121700000000000000512170000000000000       0090770900016748184705121717000117
100000000000000000000009077090001674800000000000000000000000010002100009297512171700000000002            2  01092975121725121700000002719840000000001N051217000000000000000000000000000000000000000000000000000000000000000100009297523846MARCOS ROBERTO DE CASTRO FERREIRA       RUA MONTE CASTELO - 262 AP.105 - AVIACAO            11702720                                                            000119
2SR. CAIXA, APOS O VENCIMENTO COBRAR 10% DE MULTA                                NAO RECEBER APOS 30 DIAS DO VENCIMENTO.                                                                                                                                                                                                         05121700000000000000512170000000000000       0090770900016748092975121717000120
100000000000000000000009077090001674800000000000000000000000010002100001164112171600000000002            2  01011641121725121700000003370500000000001N051217000000000000000000000000000000000000000000000000000000000000000100001164158864DAVID BLEY LACERDA                      RUA CONEGO ARAUJO MARCONDES - 188 - BAIR            02550080                                                            000122
2SR. CAIXA, APOS O VENCIMENTO COBRAR 10% DE MULTA                                NAO RECEBER APOS 30 DIAS DO VENCIMENTO.                                                                                                                                                                                                         05121700000000000000512170000000000000       0090770900016748011641121716000123
100000000000000000000009077090001674800000000000000000000000010002100031498012171P00000000002            2  01314980121725121700000004096360000000001N051217000000000000000000000000000000000000000000000000000000000000000100031498008895POLIANE  SIBELE DA SILVA                RUA FRANCISCO RODRIGUES SECKLER - 452 CA            08230020                                                            000125
2SR. CAIXA, APOS O VENCIMENTO COBRAR 10% DE MULTA                                NAO RECEBER APOS 30 DIAS DO VENCIMENTO.                                                                                                                                                                                                         05121700000000000000512170000000000000       009077090001674831498012171P000126
100000000000000000000009077090001674800000000000000000000000010002100000588112171300000000002            2  01005881121725121700000002402600000000001N051217000000000000000000000000000000000000000000000000000000000000000100000588109860JOSE LIARTE GIANTE                      AVENIDA LUIZ GONZAGA DO AMARAL - 143 - J            09320630                                                            000128
2SR. CAIXA, APOS O VENCIMENTO COBRAR 10% DE MULTA                                NAO RECEBER APOS 30 DIAS DO VENCIMENTO.                                                                                                                                                                                                         05121700000000000000512170000000000000       0090770900016748005881121713000129
100000000000000000000009077090001674800000000000000000000000010002100014386812171600000000002            2  01143868121725121700000001921980000000001N051217000000000000000000000000000000000000000000000000000000000000000100014386860134SEVERINO CARLOS DE OLIVEIRA             RUA MONTE CASTELO - 262 AP.54 - AVIACAO             11702720                                                            000131
2SR. CAIXA, APOS O VENCIMENTO COBRAR 10% DE MULTA                                NAO RECEBER APOS 30 DIAS DO VENCIMENTO.                                                                                                                                                                                                         05121700000000000000512170000000000000       0090770900016748143868121716000132
100000000000000000000009077090001674800000000000000000000000010002100029088212171300000000002            2  01290882121725121700000002136740000000001N051217000000000000000000000000000000000000000000000000000000000000000100029088221804FABIANO SPERANDEO                       RUA MONTE CASTELO - 296 AP.93 - AVIACAO             11702720                                                            000134
2SR. CAIXA, APOS O VENCIMENTO COBRAR 10% DE MULTA                                NAO RECEBER APOS 30 DIAS DO VENCIMENTO.                                                                                                                                                                                                         05121700000000000000512170000000000000       0090770900016748290882121713000135
100000000000000000000009077090001674800000000000000000000000010002100039393712171100000000002            2  01393937121725121700000001324630000000001N051217000000000000000000000000000000000000000000000000000000000000000100039393790850NAIRON RICARDO DE ARAUJO SANTOS         RUA MONTE CASTELO - 262 AP.23 - AVIACAO             11702720                                                            000137
2SR. CAIXA, APOS O VENCIMENTO COBRAR 10% DE MULTA                                NAO RECEBER APOS 30 DIAS DO VENCIMENTO.                                                                                                                                                                                                         05121700000000000000512170000000000000       0090770900016748393937121711000138
100000000000000000000009077090001674800000000000000000000000010002100041896812171200000000002            2  01418968121725121700000001929120000000001N051217000000000000000000000000000000000000000000000000000000000000000100041896807968SERGIO ROBERTO DA SILVA                 RUA DOS INGLESES - 542 AP.61 - MORRO DOS            01329000                                                            000140
2SR. CAIXA, APOS O VENCIMENTO COBRAR 10% DE MULTA                                NAO RECEBER APOS 30 DIAS DO VENCIMENTO.                                                                                                                                                                                                         05121700000000000000512170000000000000       0090770900016748418968121712000141
100000000000000000000009077090001674800000000000000000000000010002100088137312171000000000002            2  01881373121725121700000001749250000000001N051217000000000000000000000000000000000000000000000000000000000000000100088137384804ANA LUCIA DA SILVA                      RUA DOUTOR EPAMINONDAS BARRA - 147 - VIL            04438100                                                            000143
2SR. CAIXA, APOS O VENCIMENTO COBRAR 10% DE MULTA                                NAO RECEBER APOS 30 DIAS DO VENCIMENTO.                                                                                                                                                                                                         05121700000000000000512170000000000000       0090770900016748881373121710000144
9                                                                                                                                                                                                                                                                                                                                                                                                         000145