01REMESSA01COBRANCA       00000000000005316116AIRES CONSTRUTORA E INCORPORAD237BRADESCO       110722        MX0000198                                                                                                                                                                                                                                                                                     000001
100000000000000000000009002800441612000000000000000000000000010002100029155007221900000000002            2  01291550072225072200000004256740000000001N080722000000000000000000000000000000000000000000000000000000000000000100029155026842DANIELA YOSHIDA                         RUA MONTE CASTELO - 262 AP.34 - AVIACAO             11702720                                                            000002
2SR. CAIXA, APOS O VENCIMENTO COBRAR 10% DE MULTA                                NAO RECEBER APOS 30 DIAS DO VENCIMENTO.                                                                                                                                                                                                         11072200000000000001107220000000000000       0090028004416120291550072219000003
100000000000000000000009002800441612000000000000000000000000010002100001204407221200000000002            2  01012044072225072200000003466570000000001N080722000000000000000000000000000000000000000000000000000000000000000100001204431809CEZAR TALAVERA JUNIOR                   RUA MAESTRO ARTURO DE ANGELIS  - 190 AP.            05139010                                                            000005
2SR. CAIXA, APOS O VENCIMENTO COBRAR 10% DE MULTA                                NAO RECEBER APOS 30 DIAS DO VENCIMENTO.                                                                                                                                                                                                         11072200000000000001107220000000000000       0090028004416120012044072212000006
100000000000000000000009002800441612000000000000000000000000010002100004227507221100000000002            2  01042275072225072200000004493710000000001N080722000000000000000000000000000000000000000000000000000000000000000100004227553970ALESSANDRO ISRAEL GOULART               RUA PROFESSORA CARLINDA RIBEIRO - 21 - F            02866200                                                            000008
2SR. CAIXA, APOS O VENCIMENTO COBRAR 10% DE MULTA                                NAO RECEBER APOS 30 DIAS DO VENCIMENTO.                                                                                                                                                                                                         11072200000000000001107220000000000000       0090028004416120042275072211000009
100000000000000000000009002800441612000000000000000000000000010002100001024707221500000000002            2  01010247072225072200000003918910000000001N080722000000000000000000000000000000000000000000000000000000000000000100001024794881CLAUDIO RODRIGUES                       RUA ARACATUBA - 242 - LAPA - SAO PAULO -            05058010                                                            000011
2SR. CAIXA, APOS O VENCIMENTO COBRAR 10% DE MULTA                                NAO RECEBER APOS 30 DIAS DO VENCIMENTO.                                                                                                                                                                                                         11072200000000000001107220000000000000       0090028004416120010247072215000012
100000000000000000000009002800441612000000000000000000000000010002100002225007221600000000002            2  01022250072225072200000006008210000000001N080722000000000000000000000000000000000000000000000000000000000000000100002225072841PEDRO EDUARDO DE AZEVEDO                RUA NATH ZILMAN - 46 - JARDIM SAMAMBAIA             07623085                                                            000014
2SR. CAIXA, APOS O VENCIMENTO COBRAR 10% DE MULTA                                NAO RECEBER APOS 30 DIAS DO VENCIMENTO.                                                                                                                                                                                                         11072200000000000001107220000000000000       0090028004416120022250072216000015
100000000000000000000009002800441612000000000000000000000000010002100022037507221400000000002            2  01220375072225072200000004181050000000001N080722000000000000000000000000000000000000000000000000000000000000000100022037552882ANDREIA CRISTINA FERNANDES DANTAS       PCA CASTRO ALVES - 163 AP.33 - VILA SAO             13224299                                                            000017
2SR. CAIXA, APOS O VENCIMENTO COBRAR 10% DE MULTA                                NAO RECEBER APOS 30 DIAS DO VENCIMENTO.                                                                                                                                                                                                         11072200000000000001107220000000000000       0090028004416120220375072214000018
100000000000000000000009002800441612000000000000000000000000010002100027198407221600000000002            2  01271984072225072200000002883630000000001N080722000000000000000000000000000000000000000000000000000000000000000100027198452809CRISTIANE AURELIANO DA SILVA MAIA       RUA MONTE CASTELO - 262 AP.25 - AVIACAO             11702720                                                            000020
2SR. CAIXA, APOS O VENCIMENTO COBRAR 10% DE MULTA                                NAO RECEBER APOS 30 DIAS DO VENCIMENTO.                                                                                                                                                                                                         11072200000000000001107220000000000000       0090028004416120271984072216000021
100000000000000000000009002800441612000000000000000000000000010002100021246207221P00000000002            2  01212462072225072200000003519220000000001N080722000000000000000000000000000000000000000000000000000000000000000100021246231840ALEXANDRO DA CUNHA MIGUES               RUA DULCE - 71  - VILA CARRAO - SAO PAUL            03427040                                                            000023
2SR. CAIXA, APOS O VENCIMENTO COBRAR 10% DE MULTA                                NAO RECEBER APOS 30 DIAS DO VENCIMENTO.                                                                                                                                                                                                         11072200000000000001107220000000000000       009002800441612021246207221P000024
100000000000000000000009002800441612000000000000000000000000010002100018470507221P00000000002            2  01184705072225072200000005177290000000001N080722000000000000000000000000000000000000000000000000000000000000000100018470520881SILVANA ALVES DE OLIVEIRA               RUA MONTE CASTELO - 262 AP.91 - AVIACAO             11702720                                                            000026
2SR. CAIXA, APOS O VENCIMENTO COBRAR 10% DE MULTA                                NAO RECEBER APOS 30 DIAS DO VENCIMENTO.                                                                                                                                                                                                         11072200000000000001107220000000000000       009002800441612018470507221P000027
100000000000000000000009002800441612000000000000000000000000010002100009297507221P00000000002            2  01092975072225072200000003604360000000001N080722000000000000000000000000000000000000000000000000000000000000000100009297523846MARCOS ROBERTO DE CASTRO FERREIRA       RUA MONTE CASTELO - 262 AP.105 - AVIACAO            11702720                                                            000029
2SR. CAIXA, APOS O VENCIMENTO COBRAR 10% DE MULTA                                NAO RECEBER APOS 30 DIAS DO VENCIMENTO.                                                                                                                                                                                                         11072200000000000001107220000000000000       009002800441612009297507221P000030
100000000000000000000009002800441612000000000000000000000000010002100001164107221900000000002            2  01011641072225072200000004466620000000001N080722000000000000000000000000000000000000000000000000000000000000000100001164158864DAVID BLEY LACERDA                      RUA CONEGO ARAUJO MARCONDES - 188 - BAIR            02550080                                                            000032
2SR. CAIXA, APOS O VENCIMENTO COBRAR 10% DE MULTA                                NAO RECEBER APOS 30 DIAS DO VENCIMENTO.                                                                                                                                                                                                         11072200000000000001107220000000000000       0090028004416120011641072219000033
100000000000000000000009002800441612000000000000000000000000010002100031498007221200000000002            2  01314980072225072200000005428540000000001N080722000000000000000000000000000000000000000000000000000000000000000100031498008895POLIANE  SIBELE DA SILVA                PRACA GENERAL COSTA BARRETO - 56 AP.181             03325070                                                            000035
2SR. CAIXA, APOS O VENCIMENTO COBRAR 10% DE MULTA                                NAO RECEBER APOS 30 DIAS DO VENCIMENTO.                                                                                                                                                                                                         11072200000000000001107220000000000000       0090028004416120314980072212000036
100000000000000000000009002800441612000000000000000000000000010002100000588107221600000000002            2  01005881072225072200000003183950000000001N080722000000000000000000000000000000000000000000000000000000000000000100000588109860JOSE LIARTE GIANTE                      AVENIDA LUIZ GONZAGA DO AMARAL - 143 - J            09320630                                                            000038
2SR. CAIXA, APOS O VENCIMENTO COBRAR 10% DE MULTA                                NAO RECEBER APOS 30 DIAS DO VENCIMENTO.                                                                                                                                                                                                         11072200000000000001107220000000000000       0090028004416120005881072216000039
100000000000000000000009002800441612000000000000000000000000010002100014386807221900000000002            2  01143868072225072200000002547030000000001N080722000000000000000000000000000000000000000000000000000000000000000100014386860134SEVERINO CARLOS DE OLIVEIRA             RUA MONTE CASTELO - 262 AP.54 - AVIACAO             11702720                                                            000041
2SR. CAIXA, APOS O VENCIMENTO COBRAR 10% DE MULTA                                NAO RECEBER APOS 30 DIAS DO VENCIMENTO.                                                                                                                                                                                                         11072200000000000001107220000000000000       0090028004416120143868072219000042
100000000000000000000009002800441612000000000000000000000000010002100039393707221400000000002            2  01393937072225072200000001755470000000001N080722000000000000000000000000000000000000000000000000000000000000000100039393790850NAIRON RICARDO DE ARAUJO SANTOS         RUA NITEROI - 267 CASA 04 - JARDIM INDEP            11380350                                                            000044
2SR. CAIXA, APOS O VENCIMENTO COBRAR 10% DE MULTA                                NAO RECEBER APOS 30 DIAS DO VENCIMENTO.                                                                                                                                                                                                         11072200000000000001107220000000000000       0090028004416120393937072214000045
100000000000000000000009002800441612000000000000000000000000010002100019288707221200000000002            2  01192887072225072200000002364120000000001N080722000000000000000000000000000000000000000000000000000000000000000100019288787844EMERSON LUIZ MARTINEZ PEREIRA           RUA MONTE CASTELO - 296 AP.74 - AVIACAO             11702720                                                            000047
2SR. CAIXA, APOS O VENCIMENTO COBRAR 10% DE MULTA                                NAO RECEBER APOS 30 DIAS DO VENCIMENTO.                                                                                                                                                                                                         11072200000000000001107220000000000000       0090028004416120192887072212000048
9                                                                                                                                                                                                                                                                                                                                                                                                         000049