01REMESSA01COBRANCA       00000000000004991781AIRES CONSTRUTORA E INCORPORAD237BRADESCO       010220        MX0000134                                                                                                                                                                                                                                                                                     000001
100000000000000000000009077090006612500000000000000000000000010002100094852202201900000000002            2  01948522022010022000000002434060000000001N010220000000000000000000000000000000000000000000000000000000000000000100094852294887GISELDA MENON                           RUA OTAVIO BARRETO - 105 - VILA SANTISTA            02560080                                                            000002
2SR. CAIXA, APOS O VENCIMENTO COBRAR 10% DE MULTA                                NAO RECEBER APOS 30 DIAS DO VENCIMENTO.                                                                                                                                                                                                         01022000000000000000102200000000000000       0090770900066125948522022019000003
100000000000000000000009077090006612500000000000000000000000010002100006485902201500000000002            2  01064859022010022000000003733080000000001N010220000000000000000000000000000000000000000000000000000000000000000100006485911820CELIO MANUEL  MELIM SANTO               RUA JUVENAL FERREIRA  - 85 AP.61 - VILA             03512040                                                            000005
2SR. CAIXA, APOS O VENCIMENTO COBRAR 10% DE MULTA                                NAO RECEBER APOS 30 DIAS DO VENCIMENTO.                                                                                                                                                                                                         01022000000000000000102200000000000000       0090770900066125064859022015000006
100000000000000000000009077090006612500000000000000000000000010002100004693802201400000000002            2  01046938022010022000000003253660000000001N010220000000000000000000000000000000000000000000000000000000000000000100004693857823NIVALDO BARTOLOMEU FERREIRA             MNS JOSE MARINONI  - 33 - SANTO AMARO -             04430350                                                            000008
2SR. CAIXA, APOS O VENCIMENTO COBRAR 10% DE MULTA                                NAO RECEBER APOS 30 DIAS DO VENCIMENTO.                                                                                                                                                                                                         01022000000000000000102200000000000000       0090770900066125046938022014000009
100000000000000000000009077090006612500000000000000000000000010002100000455402201200000000002            2  01004554022010022000000003218310000000001N010220000000000000000000000000000000000000000000000000000000000000000100000455495831PAULO HENRIQUE LOURENCO                 RUA FIGUEIRA  - 237 - CIDADE DAS FLORES             06184060                                                            000011
2SR. CAIXA, APOS O VENCIMENTO COBRAR 10% DE MULTA                                NAO RECEBER APOS 30 DIAS DO VENCIMENTO.                                                                                                                                                                                                         01022000000000000000102200000000000000       0090770900066125004554022012000012
100000000000000000000009077090006612500000000000000000000000010002100006140002201300000000002            2  01061400022010022000000003991150000000001N010220000000000000000000000000000000000000000000000000000000000000000100006140049857MARIA ALBANI DA SILVA EUSEBIO           RUA ORLANDO SEGALA - 108 - JARDIM ADRIAN            07135190                                                            000014
2SR. CAIXA, APOS O VENCIMENTO COBRAR 10% DE MULTA                                NAO RECEBER APOS 30 DIAS DO VENCIMENTO.                                                                                                                                                                                                         01022000000000000000102200000000000000       0090770900066125061400022013000015
100000000000000000000009077090006612500000000000000000000000010002100007768702201200000000002            2  01077687022010022000000004054330000000001N010220000000000000000000000000000000000000000000000000000000000000000100007768713826FATIMA LUZIA BIANCHI                    RUA MONTE CASTELO - 295 AP.121 - AVIACAO            11702720                                                            000017
2SR. CAIXA, APOS O VENCIMENTO COBRAR 10% DE MULTA                                NAO RECEBER APOS 30 DIAS DO VENCIMENTO.                                                                                                                                                                                                         01022000000000000000102200000000000000       0090770900066125077687022012000018
100000000000000000000009077090006612500000000000000000000000010002100021716802201P00000000002            2  01217168022010022000000003994140000000001N010220000000000000000000000000000000000000000000000000000000000000000100021716847800ANDRE LUIZ FAGUNDES DE A.MATOS          ABRAAO MIGUEL DO CARMO - 113 AP.64 - VIL            04306090                                                            000020
2SR. CAIXA, APOS O VENCIMENTO COBRAR 10% DE MULTA                                NAO RECEBER APOS 30 DIAS DO VENCIMENTO.                                                                                                                                                                                                         01022000000000000000102200000000000000       009077090006612521716802201P000021
100000000000000000000009077090006612500000000000000000000000010002100085416902201300000000002            2  01854169022010022000000003385920000000001N010220000000000000000000000000000000000000000000000000000000000000000100085416940891ANTONIO DE SOUSA MENDES                 RUA MONTE CASTELO - 296 AP.52 - AVIACAO             11702720                                                            000023
2SR. CAIXA, APOS O VENCIMENTO COBRAR 10% DE MULTA                                NAO RECEBER APOS 30 DIAS DO VENCIMENTO.                                                                                                                                                                                                         01022000000000000000102200000000000000       0090770900066125854169022013000024
100000000000000000000009077090006612500000000000000000000000010002100005678002201700000000002            2  01056780022010022000000003526350000000001N010220000000000000000000000000000000000000000000000000000000000000000100005678057863FABIO MOREIRA CAMPOS                    RUA FLORENCIO DA SILVA - 284 - VILA LIBA            03738070                                                            000026
2SR. CAIXA, APOS O VENCIMENTO COBRAR 10% DE MULTA                                NAO RECEBER APOS 30 DIAS DO VENCIMENTO.                                                                                                                                                                                                         01022000000000000000102200000000000000       0090770900066125056780022017000027
100000000000000000000009077090006612500000000000000000000000010002100016348202201300000000002            2  01163482022010022000000003440220000000001N010220000000000000000000000000000000000000000000000000000000000000000100016348237885AILTON LORENA                           AVENIDA BRASILIA - 194 - BELA VISTA - SA            09180260                                                            000029
2SR. CAIXA, APOS O VENCIMENTO COBRAR 10% DE MULTA                                NAO RECEBER APOS 30 DIAS DO VENCIMENTO.                                                                                                                                                                                                         01022000000000000000102200000000000000       0090770900066125163482022013000030
100000000000000000000009077090006612500000000000000000000000010002100081218402201700000000002            2  01812184022010022000000003320240000000001N010220000000000000000000000000000000000000000000000000000000000000000100081218486953OSMAR DA COSTA - A/C RITA GONCALVES     AVENIDA ALMEIDA JUNIOR - 717 - SAMAMBAIA            11713050                                                            000032
2SR. CAIXA, APOS O VENCIMENTO COBRAR 10% DE MULTA                                NAO RECEBER APOS 30 DIAS DO VENCIMENTO.                                                                                                                                                                                                         01022000000000000000102200000000000000       0090770900066125812184022017000033
100000000000000000000009077090006612500000000000000000000000010002100004981802201P00000000002            2  01049818022010022000000003771190000000001N010220000000000000000000000000000000000000000000000000000000000000000100004981884850SILVIO PAULINO GONCALVES                MARIA DE CASTRO MESQUITA - 84 AP.103 BLO            07110040                                                            000035
2SR. CAIXA, APOS O VENCIMENTO COBRAR 10% DE MULTA                                NAO RECEBER APOS 30 DIAS DO VENCIMENTO.                                                                                                                                                                                                         01022000000000000000102200000000000000       009077090006612504981802201P000036
100000000000000000000009077090006612500000000000000000000000010002100019282502201400000000002            2  01192825022010022000000002475390000000001N010220000000000000000000000000000000000000000000000000000000000000000100019282546837FABIO LEANDRO DE FREITAS ASSIS          RUA BASSIM NAGIB TRABULSI - 97 - PONTA D            11030540                                                            000038
2SR. CAIXA, APOS O VENCIMENTO COBRAR 10% DE MULTA                                NAO RECEBER APOS 30 DIAS DO VENCIMENTO.                                                                                                                                                                                                         01022000000000000000102200000000000000       0090770900066125192825022014000039
100000000000000000000009077090006612500000000000000000000000010002100008423402201800000000002            2  01084234022010022000000003440150000000001N010220000000000000000000000000000000000000000000000000000000000000000100008423485811EDSON LUIZ NUNES                        RUA NOEMIA PEDROSO BUENO - 41 - JARDIM G            09360440                                                            000041
2SR. CAIXA, APOS O VENCIMENTO COBRAR 10% DE MULTA                                NAO RECEBER APOS 30 DIAS DO VENCIMENTO.                                                                                                                                                                                                         01022000000000000000102200000000000000       0090770900066125084234022018000042
100000000000000000000009077090006612500000000000000000000000010002100003865702201200000000002            2  01038657022010022000000003316900000000001N010220000000000000000000000000000000000000000000000000000000000000000100003865776841FRANCISCO JOSE ROCCO                    RUA FABIO JOSE BEZERRA - 130 AP.86 - PAR            03805000                                                            000044
2SR. CAIXA, APOS O VENCIMENTO COBRAR 10% DE MULTA                                NAO RECEBER APOS 30 DIAS DO VENCIMENTO.                                                                                                                                                                                                         01022000000000000000102200000000000000       0090770900066125038657022012000045
100000000000000000000009077090006612500000000000000000000000010002100023132602201700000000002            2  01231326022010022000000015309990000000001N010220000000000000000000000000000000000000000000000000000000000000000100023132672882LEANDRO MORENO                          RUA MONTE CASTELO - 296 AP.64 - AVIACAO             11702720                                                            000047
2SR. CAIXA, APOS O VENCIMENTO COBRAR 10% DE MULTA                                NAO RECEBER APOS 30 DIAS DO VENCIMENTO.                                                                                                                                                                                                         01022000000000000000102200000000000000       0090770900066125231326022017000048
100000000000000000000009077090006612500000000000000000000000010002100028309502201900000000002            2  01283095022010022000000002957900000000001N010220000000000000000000000000000000000000000000000000000000000000000100028309524803DEISE RIBEIRO BARBOSA                   RUA CANDIDO JOSE DE ANDRADE - 173 - ERME            03807030                                                            000050
2SR. CAIXA, APOS O VENCIMENTO COBRAR 10% DE MULTA                                NAO RECEBER APOS 30 DIAS DO VENCIMENTO.                                                                                                                                                                                                         01022000000000000000102200000000000000       0090770900066125283095022019000051
100000000000000000000009077090006612500000000000000000000000010002100011277902201900000000002            2  01112779022010022000000003510700000000001N010220000000000000000000000000000000000000000000000000000000000000000100011277908893JOSE AILTON LOPES DE AZEVEDO            RUA MAESTRO JOAO SEPE - 19 - JARDIM MARI            04181030                                                            000053
2SR. CAIXA, APOS O VENCIMENTO COBRAR 10% DE MULTA                                NAO RECEBER APOS 30 DIAS DO VENCIMENTO.                                                                                                                                                                                                         01022000000000000000102200000000000000       0090770900066125112779022019000054
100000000000000000000009077090006612500000000000000000000000010002100025215102201600000000002            2  01252151022010022000000002647500000000001N010220000000000000000000000000000000000000000000000000000000000000000100025215106886KLEBER LUIZ DOS SANTOS                  RUA MONTE CASTELO - 262 AP.15 - AVIACAO             11702720                                                            000056
2SR. CAIXA, APOS O VENCIMENTO COBRAR 10% DE MULTA                                NAO RECEBER APOS 30 DIAS DO VENCIMENTO.                                                                                                                                                                                                         01022000000000000000102200000000000000       0090770900066125252151022016000057
100000000000000000000009077090006612500000000000000000000000010002100090206702201300000000002            2  01902067022010022000000002957160000000001N010220000000000000000000000000000000000000000000000000000000000000000100090206789815NEREIDE RODRIGUES FERREIRA              AVENIDA PADRE ESTANISLAU DE CAMPOS - 205            03590060                                                            000059
2SR. CAIXA, APOS O VENCIMENTO COBRAR 10% DE MULTA                                NAO RECEBER APOS 30 DIAS DO VENCIMENTO.                                                                                                                                                                                                         01022000000000000000102200000000000000       0090770900066125902067022013000060
100000000000000000000009077090006612500000000000000000000000010002100029150702201100000000002            2  01291507022010022000000003461400000000001N010220000000000000000000000000000000000000000000000000000000000000000100029150742833ANA DEISE SANTOS DE ALMEIDA             RUA MONTE CASTELO - 296 AP.121 - AVIACAO            11702720                                                            000062
2SR. CAIXA, APOS O VENCIMENTO COBRAR 10% DE MULTA                                NAO RECEBER APOS 30 DIAS DO VENCIMENTO.                                                                                                                                                                                                         01022000000000000000102200000000000000       0090770900066125291507022011000063
100000000000000000000009077090006612500000000000000000000000010002100000811702201700000000002            2  01008117022010022000000002851080000000001N010220000000000000000000000000000000000000000000000000000000000000000100000811752801SERGIO BUENO DA SILVA                   RUA MONTE CASTELO - 262 AP.75 - AVIACAO             11702720                                                            000065
2SR. CAIXA, APOS O VENCIMENTO COBRAR 10% DE MULTA                                NAO RECEBER APOS 30 DIAS DO VENCIMENTO.                                                                                                                                                                                                         01022000000000000000102200000000000000       0090770900066125008117022017000066
100000000000000000000009077090006612500000000000000000000000010002100018344802201300000000002            2  01183448022010022000000003624340000000001N010220000000000000000000000000000000000000000000000000000000000000000100018344803888MARCELO BERNARDO                        RUA MONTE CASTELO - 262 AP.84 - AVIACAO             11702720                                                            000068
2SR. CAIXA, APOS O VENCIMENTO COBRAR 10% DE MULTA                                NAO RECEBER APOS 30 DIAS DO VENCIMENTO.                                                                                                                                                                                                         01022000000000000000102200000000000000       0090770900066125183448022013000069
100000000000000000000009077090006612500000000000000000000000010002100004004302201000000000002            2  01040043022010022000000005081220000000001N010220000000000000000000000000000000000000000000000000000000000000000100004004328896VANDERLEI  MARTINS DE ALMEIDA           RUA MONSENHOR TABOSA - 03 - PARQUE CISPE            03819300                                                            000071
2SR. CAIXA, APOS O VENCIMENTO COBRAR 10% DE MULTA                                NAO RECEBER APOS 30 DIAS DO VENCIMENTO.                                                                                                                                                                                                         01022000000000000000102200000000000000       0090770900066125040043022010000072
100000000000000000000009077090006612500000000000000000000000010002100016339402201100000000002            2  01163394022010022000000003065690000000001N010220000000000000000000000000000000000000000000000000000000000000000100016339432832ALEX MONTEIRO DA SILVA                  RUA IVA MOURA LIMA - 04 - JARDIM MIRNA I            04855540                                                            000074
2SR. CAIXA, APOS O VENCIMENTO COBRAR 10% DE MULTA                                NAO RECEBER APOS 30 DIAS DO VENCIMENTO.                                                                                                                                                                                                         01022000000000000000102200000000000000       0090770900066125163394022011000075
100000000000000000000009077090006612500000000000000000000000010002100031803802201900000000002            2  01318038022010022000000003130690000000001N010220000000000000000000000000000000000000000000000000000000000000000100031803864877ELEILSON FELIPPE SANTOS                 RUA SANTA GREGORIA - 193 - CIDADE DUTRA             04806030                                                            000077
2SR. CAIXA, APOS O VENCIMENTO COBRAR 10% DE MULTA                                NAO RECEBER APOS 30 DIAS DO VENCIMENTO.                                                                                                                                                                                                         01022000000000000000102200000000000000       0090770900066125318038022019000078
100000000000000000000009077090006612500000000000000000000000010002100026032602201700000000002            2  01260326022010022000000002154430000000001N010220000000000000000000000000000000000000000000000000000000000000000100026032632857MARILA LOPES PEREIRA                    AVENIDA LUIZ GISHOKEM - 1761 AP.13 BL.05            05831315                                                            000080
2SR. CAIXA, APOS O VENCIMENTO COBRAR 10% DE MULTA                                NAO RECEBER APOS 30 DIAS DO VENCIMENTO.                                                                                                                                                                                                         01022000000000000000102200000000000000       0090770900066125260326022017000081
100000000000000000000009077090006612500000000000000000000000010002100063064502201300000000002            2  01630645022010022000000003730780000000001N010220000000000000000000000000000000000000000000000000000000000000000100063064537849ANTONIO APARECIDO DA SILVA DESTEFANO    RUA PROFESSOR TEODORO BRAGA - 46 - VILA             02966020                                                            000083
2SR. CAIXA, APOS O VENCIMENTO COBRAR 10% DE MULTA                                NAO RECEBER APOS 30 DIAS DO VENCIMENTO.                                                                                                                                                                                                         01022000000000000000102200000000000000       0090770900066125630645022013000084
100000000000000000000009077090006612500000000000000000000000010002100010107702201900000000002            2  01101077022010022000000003575200000000001N010220000000000000000000000000000000000000000000000000000000000000000100010107711834VALDEMAR FECCHIO                        RUA DEPUTADO EMILIO CARLOS - 355 AP.21-B            06028010                                                            000086
2SR. CAIXA, APOS O VENCIMENTO COBRAR 10% DE MULTA                                NAO RECEBER APOS 30 DIAS DO VENCIMENTO.                                                                                                                                                                                                         01022000000000000000102200000000000000       0090770900066125101077022019000087
100000000000000000000009077090006612500000000000000000000000010002100003330702201800000000002            2  01033307022010022000000004599290000000001N010220000000000000000000000000000000000000000000000000000000000000000100003330791837MARLI DA SILVA BARBOSA                  RUA GLICERIO CERQUEIRA LEITE - 151 - JAR            03675040                                                            000089
2SR. CAIXA, APOS O VENCIMENTO COBRAR 10% DE MULTA                                NAO RECEBER APOS 30 DIAS DO VENCIMENTO.                                                                                                                                                                                                         01022000000000000000102200000000000000       0090770900066125033307022018000090
100000000000000000000009077090006612500000000000000000000000010002100008931002201600000000002            2  01089310022010022000000001869540000000001N010220000000000000000000000000000000000000000000000000000000000000000100008931031874BENEVENUTO THEODORO DA SILVA NETO       RUA MONTE CASTELO - 296 AP.63 - AVIACAO             11702720                                                            000092
2SR. CAIXA, APOS O VENCIMENTO COBRAR 10% DE MULTA                                NAO RECEBER APOS 30 DIAS DO VENCIMENTO.                                                                                                                                                                                                         01022000000000000000102200000000000000       0090770900066125089310022016000093
100000000000000000000009077090006612500000000000000000000000010002100005920502201200000000002            2  01059205022010022000000002172090000000001N010220000000000000000000000000000000000000000000000000000000000000000100005920579846SONIA MARIA VALDO POLLO                 RUA PALMIRA CERVI BARBARO - 797 - CIDADE            13214370                                                            000095
2SR. CAIXA, APOS O VENCIMENTO COBRAR 10% DE MULTA                                NAO RECEBER APOS 30 DIAS DO VENCIMENTO.                                                                                                                                                                                                         01022000000000000000102200000000000000       0090770900066125059205022012000096
100000000000000000000009077090006612500000000000000000000000010002100002494102201300000000002            2  01024941022010022000000003265820000000001N010220000000000000000000000000000000000000000000000000000000000000000100002494107881CIRO FRANCISCO MARCHI DURIGON           RUA MONTE CASTELO - 262 AP.115 - AVIACAO            11702720                                                            000098
2SR. CAIXA, APOS O VENCIMENTO COBRAR 10% DE MULTA                                NAO RECEBER APOS 30 DIAS DO VENCIMENTO.                                                                                                                                                                                                         01022000000000000000102200000000000000       0090770900066125024941022013000099
100000000000000000000009077090006612500000000000000000000000010002100007002302201000000000002            2  01070023022010022000000003210460000000001N010220000000000000000000000000000000000000000000000000000000000000000100007002345869DOMINGOS DE BRITO GALVAO                RUA MONTE CASTELO - 262 AP.44 - AVIACAO             11702720                                                            000101
2SR. CAIXA, APOS O VENCIMENTO COBRAR 10% DE MULTA                                NAO RECEBER APOS 30 DIAS DO VENCIMENTO.                                                                                                                                                                                                         01022000000000000000102200000000000000       0090770900066125070023022010000102
100000000000000000000009077090006612500000000000000000000000010002100016299002201400000000002            2  01162990022010022000000003094890000000001N010220000000000000000000000000000000000000000000000000000000000000000100016299008857FERNANDO CESAR CARVALHO                 AVENIDA MARCONDES DE BRITO - 1340 AP.74             03509000                                                            000104
2SR. CAIXA, APOS O VENCIMENTO COBRAR 10% DE MULTA                                NAO RECEBER APOS 30 DIAS DO VENCIMENTO.                                                                                                                                                                                                         01022000000000000000102200000000000000       0090770900066125162990022014000105
100000000000000000000009077090006612500000000000000000000000010002100031082802201800000000002            2  01310828022010022000000003109890000000001N010220000000000000000000000000000000000000000000000000000000000000000100031082898880VANESSA DOS SANTOS NEIVA                RUA MONTE CASTELO - 296 AP.33 - BAIRRO A            11702720                                                            000107
2SR. CAIXA, APOS O VENCIMENTO COBRAR 10% DE MULTA                                NAO RECEBER APOS 30 DIAS DO VENCIMENTO.                                                                                                                                                                                                         01022000000000000000102200000000000000       0090770900066125310828022018000108
100000000000000000000009077090006612500000000000000000000000010002100065895302201800000000002            2  01658953022010022000000001893470000000001N010220000000000000000000000000000000000000000000000000000000000000000100065895304834MARINHO BARBOSA CUNHA                   AVENIDA EDU CHAVES - 639 AP.43 - PARQUE             02229000                                                            000110
2SR. CAIXA, APOS O VENCIMENTO COBRAR 10% DE MULTA                                NAO RECEBER APOS 30 DIAS DO VENCIMENTO.                                                                                                                                                                                                         01022000000000000000102200000000000000       0090770900066125658953022018000111
9                                                                                                                                                                                                                                                                                                                                                                                                         000112