01REMESSA01COBRANCA       00000000000005331186HB SANTOS CONSTRUTORA E INCORP237BRADESCO       010622        MX0000049                                                                                                                                                                                                                                                                                     000001
100000000000000000000009033990000995400000000000000000000000010002020026858606221800000000002            2  01268586062208062200000002782910000000001N010622000000000000000000000000000000000000000000000000000000000000000100026858625879GLAUCE FERREIRA DE OLIVEIRA FALSI       RUA LOURENCO ANTONIO BRAGANCA - 116 - JA            04403160                                                            000002
2SR. CAIXA, APOS O VENCIMENTO COBRAR 2% DE MULTA                                 NAO RECEBER APOS 30 DIAS DO VENCIMENTO.                                                                                                                                                                                                         01062200000000000000106220000000000000       0090339900009954268586062218000003
100000000000000000000009033990000995400000000000000000000000010002020016960806221900000000002            2  01169608062208062200000002657220000000001N010622000000000000000000000000000000000000000000000000000000000000000100016960804876LUIZ ALVES DE SOUZA JUNIOR              RUA URUGUAI - 89 AP.61 - JARDIM GUILHERM            11702300                                                            000005
2SR. CAIXA, APOS O VENCIMENTO COBRAR 2% DE MULTA                                 NAO RECEBER APOS 30 DIAS DO VENCIMENTO.                                                                                                                                                                                                         01062200000000000000106220000000000000       0090339900009954169608062219000006
100000000000000000000009033990000995400000000000000000000000010002020029425006221000000000002            2  01294250062208062200000002646550000000001N010622000000000000000000000000000000000000000000000000000000000000000100029425027897FABIA DOS SANTOS DE ANDRADE             AVENIDA ALCIDES CANDIDO DOS SANTOS - 248            11705480                                                            000008
2SR. CAIXA, APOS O VENCIMENTO COBRAR 2% DE MULTA                                 NAO RECEBER APOS 30 DIAS DO VENCIMENTO.                                                                                                                                                                                                         01062200000000000000106220000000000000       0090339900009954294250062210000009
100000000000000000000009033990000995400000000000000000000000010002020078382706221600000000002            2  01783827062208062200000002674470000000001N010622000000000000000000000000000000000000000000000000000000000000000100078382700497JARMELINA BARBOSA DA SILVA              RUA OSCAR CINTRA GORDINHO - 211 AP.51 -             01512010                                                            000011
2SR. CAIXA, APOS O VENCIMENTO COBRAR 2% DE MULTA                                 NAO RECEBER APOS 30 DIAS DO VENCIMENTO.                                                                                                                                                                                                         01062200000000000000106220000000000000       0090339900009954783827062216000012
100000000000000000000009033990000995400000000000000000000000010002020007535306221500000000002            2  01075353062208062200000002622650000000001N010622000000000000000000000000000000000000000000000000000000000000000100007535375839AINAILDE PEREIRA DE CASTRO OLIVETTO     TRAVESSA DORALINA ELIETE ADAO DA SILVA -            08021026                                                            000014
2SR. CAIXA, APOS O VENCIMENTO COBRAR 2% DE MULTA                                 NAO RECEBER APOS 30 DIAS DO VENCIMENTO.                                                                                                                                                                                                         01062200000000000000106220000000000000       0090339900009954075353062215000015
100000000000000000000009033990000995400000000000000000000000010002020017229706221000000000002            2  01172297062208062200000002778130000000001N010622000000000000000000000000000000000000000000000000000000000000000100017229751802BERENICE VIEIRA KERSTING                RUA ATIBAIA - 17 AP.417 - BAIRRO IMPERAD            11707380                                                            000017
2SR. CAIXA, APOS O VENCIMENTO COBRAR 2% DE MULTA                                 NAO RECEBER APOS 30 DIAS DO VENCIMENTO.                                                                                                                                                                                                         01062200000000000000106220000000000000       0090339900009954172297062210000018
100000000000000000000009033990000995400000000000000000000000010002020028974206221200000000002            2  01289742062208062200000002594720000000001N010622000000000000000000000000000000000000000000000000000000000000000100028974233827MARISTELA FAVANI DE OLIVEIRA            RUA GIUSEPPE CARNEVALLI - 96 - BAIRRO BO            09572100                                                            000020
2SR. CAIXA, APOS O VENCIMENTO COBRAR 2% DE MULTA                                 NAO RECEBER APOS 30 DIAS DO VENCIMENTO.                                                                                                                                                                                                         01062200000000000000106220000000000000       0090339900009954289742062212000021
100000000000000000000009033990000995400000000000000000000000010002020092184806221P00000000002            2  01921848062208062200000002560180000000001N010622000000000000000000000000000000000000000000000000000000000000000100092184804800CARMEM DO SOCORRO GUILHERME             ESTRADA SAO FRANCISCO - 1.850 AP.182A -             06765000                                                            000023
2SR. CAIXA, APOS O VENCIMENTO COBRAR 2% DE MULTA                                 NAO RECEBER APOS 30 DIAS DO VENCIMENTO.                                                                                                                                                                                                         01062200000000000000106220000000000000       009033990000995492184806221P000024
100000000000000000000009033990000995400000000000000000000000010002020009169706221P00000000002            2  01091697062208062200000002053280000000001N010622000000000000000000000000000000000000000000000000000000000000000100009169701830TADEU CONSTANTINO LOPES                 RUA JOSE ANTONIO COELHO - 349 CASA 01 -             04011061                                                            000026
2SR. CAIXA, APOS O VENCIMENTO COBRAR 2% DE MULTA                                 NAO RECEBER APOS 30 DIAS DO VENCIMENTO.                                                                                                                                                                                                         01062200000000000000106220000000000000       009033990000995409169706221P000027
100000000000000000000009033990000995400000000000000000000000010002020042480106221800000000002            2  01424801062208062200000002611990000000001N010622000000000000000000000000000000000000000000000000000000000000000100042480155870JAMITRE SOIOMARA ALVES DO NASCIMENTO DAVRUA URUGUAI - 89 AP.75 - JARDIM GUILHERM            11702300                                                            000029
2SR. CAIXA, APOS O VENCIMENTO COBRAR 2% DE MULTA                                 NAO RECEBER APOS 30 DIAS DO VENCIMENTO.                                                                                                                                                                                                         01062200000000000000106220000000000000       0090339900009954424801062218000030
100000000000000000000009033990000995400000000000000000000000010002020008966506221300000000002            2  01089665062208062200000002467900000000001N010622000000000000000000000000000000000000000000000000000000000000000100008966511856MONICA SILVA REIS                       RUA ORATORIO - 264 E FUNDOS - BANGU - SA            09280550                                                            000032
2SR. CAIXA, APOS O VENCIMENTO COBRAR 2% DE MULTA                                 NAO RECEBER APOS 30 DIAS DO VENCIMENTO.                                                                                                                                                                                                         01062200000000000000106220000000000000       0090339900009954089665062213000033
100000000000000000000009033990000995400000000000000000000000010002020001356906221400000000002            2  01013569062208062200000002650870000000001N010622000000000000000000000000000000000000000000000000000000000000000100001356993800DALVA MARIA DOS SANTOS                  RUA URUGUAI - 89 AP.74 - AVIACAO - PRAIA            11702300                                                            000035
2SR. CAIXA, APOS O VENCIMENTO COBRAR 2% DE MULTA                                 NAO RECEBER APOS 30 DIAS DO VENCIMENTO.                                                                                                                                                                                                         01062200000000000000106220000000000000       0090339900009954013569062214000036
100000000000000000000009033990000995400000000000000000000000010002020024615506221700000000002            2  01246155062208062200000003023210000000001N010622000000000000000000000000000000000000000000000000000000000000000100024615557884GILBERTO JOSE GONSALES                  RUA URUGUAI - 89 AP.115 - JARDIM GUILHER            11702300                                                            000038
2SR. CAIXA, APOS O VENCIMENTO COBRAR 2% DE MULTA                                 NAO RECEBER APOS 30 DIAS DO VENCIMENTO.                                                                                                                                                                                                         01062200000000000000106220000000000000       0090339900009954246155062217000039
100000000000000000000009033990000995400000000000000000000000010002020008878806221100000000002            2  01088788062208062200000002907440000000001N010622000000000000000000000000000000000000000000000000000000000000000100008878832812LUIZ ANTONIO DE OLIVEIRA                RUA TORRINHA - 220 AP.132 - BAIRRO TATUA            03332010                                                            000041
2SR. CAIXA, APOS O VENCIMENTO COBRAR 2% DE MULTA                                 NAO RECEBER APOS 30 DIAS DO VENCIMENTO.                                                                                                                                                                                                         01062200000000000000106220000000000000       0090339900009954088788062211000042
100000000000000000000009033990000995400000000000000000000000010002020031473706221700000000002            2  01314737062208062200000002136940000000001N010622000000000000000000000000000000000000000000000000000000000000000100031473799813MURIEL DA SILVA DE MOURA SOUZA          RUA CAPITAO PAULINO FREIRE - 300 AP.014             08717100                                                            000044
2SR. CAIXA, APOS O VENCIMENTO COBRAR 2% DE MULTA                                 NAO RECEBER APOS 30 DIAS DO VENCIMENTO.                                                                                                                                                                                                         01062200000000000000106220000000000000       0090339900009954314737062217000045
100000000000000000000009033990000995400000000000000000000000010002020036949506221600000000002            2  01369495062208062200000002829000000000001N010622000000000000000000000000000000000000000000000000000000000000000100036949505833FELIPE APARECIDO DOS SANTOS             RUA DAS MIMOSAS - 67 CASA 09 - VILA LUCI            03144010                                                            000047
2SR. CAIXA, APOS O VENCIMENTO COBRAR 2% DE MULTA                                 NAO RECEBER APOS 30 DIAS DO VENCIMENTO.                                                                                                                                                                                                         01062200000000000000106220000000000000       0090339900009954369495062216000048
100000000000000000000009033990000995400000000000000000000000010002020008539306221300000000002            2  01085393062208062200000002890390000000001N010622000000000000000000000000000000000000000000000000000000000000000100008539365871EDMILSON RAIMUNDO DOS SANTOS            RUA CALIDICE - 247 - PARQUE CRUZEIRO - S            08070010                                                            000050
2SR. CAIXA, APOS O VENCIMENTO COBRAR 2% DE MULTA                                 NAO RECEBER APOS 30 DIAS DO VENCIMENTO.                                                                                                                                                                                                         01062200000000000000106220000000000000       0090339900009954085393062213000051
100000000000000000000009033990000995400000000000000000000000010002020031040906221200000000002            2  01310409062208062200000002977860000000001N010622000000000000000000000000000000000000000000000000000000000000000100031040952801ANDRESSA REGINA FAVERANI LUPPI          RUA AMALIA BELLOTTI PASTORELLO - 169 - T            11724030                                                            000053
2SR. CAIXA, APOS O VENCIMENTO COBRAR 2% DE MULTA                                 NAO RECEBER APOS 30 DIAS DO VENCIMENTO.                                                                                                                                                                                                         01062200000000000000106220000000000000       0090339900009954310409062212000054
100000000000000000000009033990000995400000000000000000000000010002020024558906221900000000002            2  01245589062208062200000004978340000000001N010622000000000000000000000000000000000000000000000000000000000000000100024558912838EDILENE GORGATTI                        RUA ITARARE - 76 AP.142 - JARDIM GUILHER            11701820                                                            000056
2SR. CAIXA, APOS O VENCIMENTO COBRAR 2% DE MULTA                                 NAO RECEBER APOS 30 DIAS DO VENCIMENTO.                                                                                                                                                                                                         01062200000000000000106220000000000000       0090339900009954245589062219000057
100000000000000000000009033990000995400000000000000000000000010002020004611206221400000000002            2  01046112062208062200000001833210000000001N010622000000000000000000000000000000000000000000000000000000000000000100004611218830TANIA MARIA DA SILVA NUNES PEREIRA LUIZ RODOVIA RAPOSO TAVARES, 7389 KM 17,5 - A            05576200                                                            000059
2SR. CAIXA, APOS O VENCIMENTO COBRAR 2% DE MULTA                                 NAO RECEBER APOS 30 DIAS DO VENCIMENTO.                                                                                                                                                                                                         01062200000000000000106220000000000000       0090339900009954046112062214000060
100000000000000000000009033990000995400000000000000000000000010002020010548806221100000000002            2  01105488062208062200000003257340000000001N010622000000000000000000000000000000000000000000000000000000000000000100010548844801RICARDO DE JESUS CALDAS                 RUA ANTONIO AMBUBA - 50 CASA 60 - BAIRRO            05782370                                                            000062
2SR. CAIXA, APOS O VENCIMENTO COBRAR 2% DE MULTA                                 NAO RECEBER APOS 30 DIAS DO VENCIMENTO.                                                                                                                                                                                                         01062200000000000000106220000000000000       0090339900009954105488062211000063
100000000000000000000009033990000995400000000000000000000000010002020039623806221000000000002            2  01396238062208062200000002862830000000001N010622000000000000000000000000000000000000000000000000000000000000000100039623826826LEONARDO GUEDES PINTO                   RUA URUGUAI - 89 AP.24 - AVIACAO - PRAIA            11702300                                                            000065
2SR. CAIXA, APOS O VENCIMENTO COBRAR 2% DE MULTA                                 NAO RECEBER APOS 30 DIAS DO VENCIMENTO.                                                                                                                                                                                                         01062200000000000000106220000000000000       0090339900009954396238062210000066
100000000000000000000009033990000995400000000000000000000000010002020039558606221P00000000002            2  01395586062208062200000002628270000000001N010622000000000000000000000000000000000000000000000000000000000000000100039558638838TAMIRES ROCHA FRANCISCO                 RUA DUARTE DE CARVALHO - 185 AP.102 - BA            03084030                                                            000068
2SR. CAIXA, APOS O VENCIMENTO COBRAR 2% DE MULTA                                 NAO RECEBER APOS 30 DIAS DO VENCIMENTO.                                                                                                                                                                                                         01062200000000000000106220000000000000       009033990000995439558606221P000069
100000000000000000000009033990000995400000000000000000000000010002020032038706221900000000002            2  01320387062208062200000002138280000000001N010622000000000000000000000000000000000000000000000000000000000000000100032038775893GUSTAVO PEREIRA DA CRUZ                 RUA SAO FIDELIS - 203 - JARDIM BRASIL -             16074050                                                            000071
2SR. CAIXA, APOS O VENCIMENTO COBRAR 2% DE MULTA                                 NAO RECEBER APOS 30 DIAS DO VENCIMENTO.                                                                                                                                                                                                         01062200000000000000106220000000000000       0090339900009954320387062219000072
100000000000000000000009033990000995400000000000000000000000010002020008993106221600000000002            2  01089931062208062200000010091520000000001N010622000000000000000000000000000000000000000000000000000000000000000100008993178801PATRICIA BITTENCOURT FRACARO            RUA MARCIO MAZZEI - 337 - VILA NOVA MAZZ            02316050                                                            000074
2SR. CAIXA, APOS O VENCIMENTO COBRAR 2% DE MULTA                                 NAO RECEBER APOS 30 DIAS DO VENCIMENTO.                                                                                                                                                                                                         01062200000000000000106220000000000000       0090339900009954089931062216000075
9                                                                                                                                                                                                                                                                                                                                                                                                         000076