01REMESSA01COBRANCA       00000000000008017025HB SANTOS CONSTRUTORA E INCORP237BRADESCO       050719        MX0000083                                                                                                                                                                                                                                                                                     000001
100000000000000000000009033990000627000000000000000000000000010002020025035107191400000000002            2  01250351071924071900000002075700000000001N040719000000000000000000000000000000000000000000000000000000000000000100025035170802WANDERSON LUIS DE CARVALHO              RUA JOAQUIM GONCALVES ROCHA - 302 - JARD            02859030                                                            000002
2SR. CAIXA, APOS O VENCIMENTO COBRAR 2% DE MULTA                                 NAO RECEBER APOS 30 DIAS DO VENCIMENTO.                                                                                                                                                                                                         05071900000000000000507190000000000000       0090339900006270250351071914000003
100000000000000000000009033990000627000000000000000000000000010002020007294307191100000000002            2  01072943071924071900000002791850000000001N040719000000000000000000000000000000000000000000000000000000000000000100007294351805CLAUDENIR APARECIDO VACARI              RUA CARLOS JOSE BORSTENS - 50 AP.93 - AV            11702750                                                            000005
2SR. CAIXA, APOS O VENCIMENTO COBRAR 2% DE MULTA                                 NAO RECEBER APOS 30 DIAS DO VENCIMENTO.                                                                                                                                                                                                         05071900000000000000507190000000000000       0090339900006270072943071911000006
100000000000000000000009033990000627000000000000000000000000010002020042976107191100000000002            2  01429761071924071900000002821150000000001N040719000000000000000000000000000000000000000000000000000000000000000100042976111634ACACIO TOSCANO BONDANCA                 RUA COMENDADOR JACOMO ANTONIO LA SELVA -            12946797                                                            000008
2SR. CAIXA, APOS O VENCIMENTO COBRAR 2% DE MULTA                                 NAO RECEBER APOS 30 DIAS DO VENCIMENTO.                                                                                                                                                                                                         05071900000000000000507190000000000000       0090339900006270429761071911000009
100000000000000000000009033990000627000000000000000000000000010002020035438007191500000000002            2  01354380071924071900000002382600000000001N040719000000000000000000000000000000000000000000000000000000000000000100035438022836ALESSANDRO FARACO DOS SANTOS            RUA PEDRO POMAR  - 145 - JARDIM ELISA MA            02875020                                                            000011
2SR. CAIXA, APOS O VENCIMENTO COBRAR 2% DE MULTA                                 NAO RECEBER APOS 30 DIAS DO VENCIMENTO.                                                                                                                                                                                                         05071900000000000000507190000000000000       0090339900006270354380071915000012
100000000000000000000009033990000627000000000000000000000000010002020007525007191700000000002            2  01075250071924071900000003122800000000001N040719000000000000000000000000000000000000000000000000000000000000000100007525032866FERNANDO RIBEIRO                        RUA ALDO COLI - 539 - VILA MIRIM - PRAIA            11704760                                                            000014
2SR. CAIXA, APOS O VENCIMENTO COBRAR 2% DE MULTA                                 NAO RECEBER APOS 30 DIAS DO VENCIMENTO.                                                                                                                                                                                                         05071900000000000000507190000000000000       0090339900006270075250071917000015
100000000000000000000009033990000627000000000000000000000000010002020005071407191200000000002            2  01050714071924071900000002739290000000001N040719000000000000000000000000000000000000000000000000000000000000000100005071481855ERIBALDO SANTANA CARVALHO               RUA HONDURAS - 477 - PARQUE DAS AMERICAS            09351070                                                            000017
2SR. CAIXA, APOS O VENCIMENTO COBRAR 2% DE MULTA                                 NAO RECEBER APOS 30 DIAS DO VENCIMENTO.                                                                                                                                                                                                         05071900000000000000507190000000000000       0090339900006270050714071912000018
100000000000000000000009033990000627000000000000000000000000010002020002841707191600000000002            2  01028417071924071900000002562870000000001N040719000000000000000000000000000000000000000000000000000000000000000100002841756416LUCIANA PINHEIRO DE ASSIS NUNES         RUA RIO ACIMA - 81 - RIACHO GRANDE - SAO            09830100                                                            000020
2SR. CAIXA, APOS O VENCIMENTO COBRAR 2% DE MULTA                                 NAO RECEBER APOS 30 DIAS DO VENCIMENTO.                                                                                                                                                                                                         05071900000000000000507190000000000000       0090339900006270028417071916000021
100000000000000000000009033990000627000000000000000000000000010002020084302007191500000000002            2  01843020071924071900000002575160000000001N040719000000000000000000000000000000000000000000000000000000000000000100084302097868FAUSTO TADEU VILOR                      RUA ANTONIO TAVARES - 466 - BAIRRO CAMBU            01542010                                                            000023
2SR. CAIXA, APOS O VENCIMENTO COBRAR 2% DE MULTA                                 NAO RECEBER APOS 30 DIAS DO VENCIMENTO.                                                                                                                                                                                                         05071900000000000000507190000000000000       0090339900006270843020071915000024
100000000000000000000009033990000627000000000000000000000000010002020028804207191500000000002            2  01288042071924071900000002530100000000001N040719000000000000000000000000000000000000000000000000000000000000000100028804202882GILBERTO FABIANO CABRAL DE CAMARGO      RUA CARLOS JOSE BORSTENS - 50 AP.44 - AV            11702750                                                            000026
2SR. CAIXA, APOS O VENCIMENTO COBRAR 2% DE MULTA                                 NAO RECEBER APOS 30 DIAS DO VENCIMENTO.                                                                                                                                                                                                         05071900000000000000507190000000000000       0090339900006270288042071915000027
100000000000000000000009033990000627000000000000000000000000010002020000991707191800000000002            2  01009917071924071900000002469480000000001N040719000000000000000000000000000000000000000000000000000000000000000100000991748808JAILSON BORGES DE ANDRADE               RUA IPIOBUNA - 45 - JARDIM CUMBICA - GUA            07240040                                                            000029
2SR. CAIXA, APOS O VENCIMENTO COBRAR 2% DE MULTA                                 NAO RECEBER APOS 30 DIAS DO VENCIMENTO.                                                                                                                                                                                                         05071900000000000000507190000000000000       0090339900006270009917071918000030
100000000000000000000009033990000627000000000000000000000000010002020092180207191500000000002            2  01921802071924071900000003366840000000001N040719000000000000000000000000000000000000000000000000000000000000000100092180299834LUIS ROBERTO DE SA DUARTE               RUA TEBAS - 296 AP.84 BLOCO 2 CE - JARDI            04634031                                                            000032
2SR. CAIXA, APOS O VENCIMENTO COBRAR 2% DE MULTA                                 NAO RECEBER APOS 30 DIAS DO VENCIMENTO.                                                                                                                                                                                                         05071900000000000000507190000000000000       0090339900006270921802071915000033
100000000000000000000009033990000627000000000000000000000000010002020092180207192300000000002            2  01921802071931071900000003366790000000001N040719000000000000000000000000000000000000000000000000000000000000000100092180299834LUIS ROBERTO DE SA DUARTE               RUA TEBAS - 296 AP.84 BLOCO 2 CE - JARDI            04634031                                                            000035
2SR. CAIXA, APOS O VENCIMENTO COBRAR 2% DE MULTA                                 NAO RECEBER APOS 30 DIAS DO VENCIMENTO.                                                                                                                                                                                                         05071900000000000000507190000000000000       0090339900006270921802071923000036
100000000000000000000009033990000627000000000000000000000000010002020092180207193100000000002            2  01921802071931071900000003366800000000001N040719000000000000000000000000000000000000000000000000000000000000000100092180299834LUIS ROBERTO DE SA DUARTE               RUA TEBAS - 296 AP.84 BLOCO 2 CE - JARDI            04634031                                                            000038
2SR. CAIXA, APOS O VENCIMENTO COBRAR 2% DE MULTA                                 NAO RECEBER APOS 30 DIAS DO VENCIMENTO.                                                                                                                                                                                                         05071900000000000000507190000000000000       0090339900006270921802071931000039
100000000000000000000009033990000627000000000000000000000000010002020092180207194P00000000002            2  01921802071931071900000003366810000000001N040719000000000000000000000000000000000000000000000000000000000000000100092180299834LUIS ROBERTO DE SA DUARTE               RUA TEBAS - 296 AP.84 BLOCO 2 CE - JARDI            04634031                                                            000041
2SR. CAIXA, APOS O VENCIMENTO COBRAR 2% DE MULTA                                 NAO RECEBER APOS 30 DIAS DO VENCIMENTO.                                                                                                                                                                                                         05071900000000000000507190000000000000       009033990000627092180207194P000042
100000000000000000000009033990000627000000000000000000000000010002020092180207195800000000002            2  01921802071931071900000003366820000000001N040719000000000000000000000000000000000000000000000000000000000000000100092180299834LUIS ROBERTO DE SA DUARTE               RUA TEBAS - 296 AP.84 BLOCO 2 CE - JARDI            04634031                                                            000044
2SR. CAIXA, APOS O VENCIMENTO COBRAR 2% DE MULTA                                 NAO RECEBER APOS 30 DIAS DO VENCIMENTO.                                                                                                                                                                                                         05071900000000000000507190000000000000       0090339900006270921802071958000045
100000000000000000000009033990000627000000000000000000000000010002020092180207196600000000002            2  01921802071931071900000003366830000000001N040719000000000000000000000000000000000000000000000000000000000000000100092180299834LUIS ROBERTO DE SA DUARTE               RUA TEBAS - 296 AP.84 BLOCO 2 CE - JARDI            04634031                                                            000047
2SR. CAIXA, APOS O VENCIMENTO COBRAR 2% DE MULTA                                 NAO RECEBER APOS 30 DIAS DO VENCIMENTO.                                                                                                                                                                                                         05071900000000000000507190000000000000       0090339900006270921802071966000048
100000000000000000000009033990000627000000000000000000000000010002020022151607191400000000002            2  01221516071924071900000002455170000000001N040719000000000000000000000000000000000000000000000000000000000000000100022151666816SAMIR LIMA DE ARAUJO                    AVENIDA GUARAPIRANGA - 2616 AP.42 BLOCO1            04902005                                                            000050
2SR. CAIXA, APOS O VENCIMENTO COBRAR 2% DE MULTA                                 NAO RECEBER APOS 30 DIAS DO VENCIMENTO.                                                                                                                                                                                                         05071900000000000000507190000000000000       0090339900006270221516071914000051
100000000000000000000009033990000627000000000000000000000000010002020022313107191600000000002            2  01223131071926071900000001888600000000001N040719000000000000000000000000000000000000000000000000000000000000000100022313116824ROSA MARIA BRITO DA SILVA               RUA SERVIDAO DE SAO MARCOS - 113 - JARDI            04930300                                                            000053
2SR. CAIXA, APOS O VENCIMENTO COBRAR 2% DE MULTA                                 NAO RECEBER APOS 30 DIAS DO VENCIMENTO.                                                                                                                                                                                                         05071900000000000000507190000000000000       0090339900006270223131071916000054
100000000000000000000009033990000627000000000000000000000000010002020027538007191800000000002            2  01275380071926071900000001895180000000001N040719000000000000000000000000000000000000000000000000000000000000000100027538087249MARA LUCIA MENEZES DA COSTA             RUA LEILA  - 183 - ITAQUERA - SAO PAULO             08240020                                                            000056
2SR. CAIXA, APOS O VENCIMENTO COBRAR 2% DE MULTA                                 NAO RECEBER APOS 30 DIAS DO VENCIMENTO.                                                                                                                                                                                                         05071900000000000000507190000000000000       0090339900006270275380071918000057
100000000000000000000009033990000627000000000000000000000000010002020031278407191400000000002            2  01312784071924071900000002371740000000001N040719000000000000000000000000000000000000000000000000000000000000000100031278411836JEFFERSON DE PIERI PIRES ZAMUNER        RUA MANOEL ARCE - 277 - PARQUE BANCARIO             03922150                                                            000059
2SR. CAIXA, APOS O VENCIMENTO COBRAR 2% DE MULTA                                 NAO RECEBER APOS 30 DIAS DO VENCIMENTO.                                                                                                                                                                                                         05071900000000000000507190000000000000       0090339900006270312784071914000060
100000000000000000000009033990000627000000000000000000000000010002020019185707191600000000002            2  01191857071926071900000001724650000000001N040719000000000000000000000000000000000000000000000000000000000000000100019185769800AGUINALDO PESSOA DE LIMA                RUA JANUARIO ZINGARO - 252 AP.303 BL.04             05794300                                                            000062
2SR. CAIXA, APOS O VENCIMENTO COBRAR 2% DE MULTA                                 NAO RECEBER APOS 30 DIAS DO VENCIMENTO.                                                                                                                                                                                                         05071900000000000000507190000000000000       0090339900006270191857071916000063
100000000000000000000009033990000627000000000000000000000000010002020033303607191700000000002            2  01333036071926071900000001857610000000001N040719000000000000000000000000000000000000000000000000000000000000000100033303645809JESSICA DA SILVA FREITAS                RUA ARILDO VALADAO - 120 - JARDIM GUAEMB            04814600                                                            000065
2SR. CAIXA, APOS O VENCIMENTO COBRAR 2% DE MULTA                                 NAO RECEBER APOS 30 DIAS DO VENCIMENTO.                                                                                                                                                                                                         05071900000000000000507190000000000000       0090339900006270333036071917000066
100000000000000000000009033990000627000000000000000000000000010002020004824407191600000000002            2  01048244071926071900000001872300000000001N040719000000000000000000000000000000000000000000000000000000000000000100004824443806ROSIMEIRE CLARA FERREIRA REZENDE        RUA JOSE CALIXTO DO CARMO - 286 AP.43 -             11702690                                                            000068
2SR. CAIXA, APOS O VENCIMENTO COBRAR 2% DE MULTA                                 NAO RECEBER APOS 30 DIAS DO VENCIMENTO.                                                                                                                                                                                                         05071900000000000000507190000000000000       0090339900006270048244071916000069
100000000000000000000009033990000627000000000000000000000000010002020006422607191200000000002            2  01064226071924071900000002568660000000001N040719000000000000000000000000000000000000000000000000000000000000000100006422607881GERALDO ALVES DA SILVA                  RUA CARLOS JOSE BORSTENS - 50 AP.14 - AV            11702750                                                            000071
2SR. CAIXA, APOS O VENCIMENTO COBRAR 2% DE MULTA                                 NAO RECEBER APOS 30 DIAS DO VENCIMENTO.                                                                                                                                                                                                         05071900000000000000507190000000000000       0090339900006270064226071912000072
100000000000000000000009033990000627000000000000000000000000010002020033877107191400000000002            2  01338771071926071900000001741560000000001N040719000000000000000000000000000000000000000000000000000000000000000100033877129870HELDER FERREIRA VIANA                   RUA JOSE CALIXTO DO CARMO - 286 AP.35 -             11702690                                                            000074
2SR. CAIXA, APOS O VENCIMENTO COBRAR 2% DE MULTA                                 NAO RECEBER APOS 30 DIAS DO VENCIMENTO.                                                                                                                                                                                                         05071900000000000000507190000000000000       0090339900006270338771071914000075
100000000000000000000009033990000627000000000000000000000000010002020028290707191800000000002            2  01282907071926071900000001605060000000001N040719000000000000000000000000000000000000000000000000000000000000000100028290719809VANESSA GIANGARRELLI PEREIRA            RUA BARINEL - 72 - JARDIM COTCHING - SAO            03462130                                                            000077
2SR. CAIXA, APOS O VENCIMENTO COBRAR 2% DE MULTA                                 NAO RECEBER APOS 30 DIAS DO VENCIMENTO.                                                                                                                                                                                                         05071900000000000000507190000000000000       0090339900006270282907071918000078
100000000000000000000009033990000627000000000000000000000000010002020087573007191300000000002            2  01875730071926071900000001752720000000001N040719000000000000000000000000000000000000000000000000000000000000000100087573059604VANDERLEY DE ASSIS                      RUA ROMEU ALBANI - 268 - JARDIM PARQUE R            13803810                                                            000080
2SR. CAIXA, APOS O VENCIMENTO COBRAR 2% DE MULTA                                 NAO RECEBER APOS 30 DIAS DO VENCIMENTO.                                                                                                                                                                                                         05071900000000000000507190000000000000       0090339900006270875730071913000081
100000000000000000000009033990000627000000000000000000000000010002020010825507191000000000002            2  01108255071926071900000001829070000000001N040719000000000000000000000000000000000000000000000000000000000000000100010825513847JOSE APARECIDO PEREIRA                  RUA GENERAL OSORIO - 305 - JARDIM TRINTA            11515130                                                            000083
2SR. CAIXA, APOS O VENCIMENTO COBRAR 2% DE MULTA                                 NAO RECEBER APOS 30 DIAS DO VENCIMENTO.                                                                                                                                                                                                         05071900000000000000507190000000000000       0090339900006270108255071910000084
100000000000000000000009033990000627000000000000000000000000010002020038818507191000000000002            2  01388185071926071900000001860330000000001N040719000000000000000000000000000000000000000000000000000000000000000100038818572814MAURICIUS ALEXANDRE ESTEVAM NABOR       RUA RAUL SERAPIAO BARROSO - 379 - ESPLAN            11340330                                                            000086
2SR. CAIXA, APOS O VENCIMENTO COBRAR 2% DE MULTA                                 NAO RECEBER APOS 30 DIAS DO VENCIMENTO.                                                                                                                                                                                                         05071900000000000000507190000000000000       0090339900006270388185071910000087
100000000000000000000009033990000627000000000000000000000000010002020039115107191200000000002            2  01391151071926071900000002254630000000001N040719000000000000000000000000000000000000000000000000000000000000000100039115139840LAIS CRISTINA RIBEIRO ANDO              RUA PERU - 769 AP.17 - VILA GUILHERMINA             11702250                                                            000089
2SR. CAIXA, APOS O VENCIMENTO COBRAR 2% DE MULTA                                 NAO RECEBER APOS 30 DIAS DO VENCIMENTO.                                                                                                                                                                                                         05071900000000000000507190000000000000       0090339900006270391151071912000090
100000000000000000000009033990000627000000000000000000000000010002020029617507191000000000002            2  01296175071924071900000002521230000000001N040719000000000000000000000000000000000000000000000000000000000000000100029617510553MARILENE SOUZA DE OLIVEIRA              AVENIDA BRASIL - 393 AP.09 - PARQUE DAS             09210280                                                            000092
2SR. CAIXA, APOS O VENCIMENTO COBRAR 2% DE MULTA                                 NAO RECEBER APOS 30 DIAS DO VENCIMENTO.                                                                                                                                                                                                         05071900000000000000507190000000000000       0090339900006270296175071910000093
100000000000000000000009033990000627000000000000000000000000010002020000593207191000000000002            2  01005932071924071900000002765160000000001N040719000000000000000000000000000000000000000000000000000000000000000100000593293860WALTER HELIO BARBOSA FILHO              AVENIDA ANTONIO FREDERICO OZANAN - 9500             13214206                                                            000095
2SR. CAIXA, APOS O VENCIMENTO COBRAR 2% DE MULTA                                 NAO RECEBER APOS 30 DIAS DO VENCIMENTO.                                                                                                                                                                                                         05071900000000000000507190000000000000       0090339900006270005932071910000096
100000000000000000000009033990000627000000000000000000000000010002020007730007191600000000002            2  01077300071924071900000003932330000000001N040719000000000000000000000000000000000000000000000000000000000000000100007730084899ARNALDO LUIZ VONO                       RUA CARLOS JOSE BORSTENS - 50 AP.122 - A            11702750                                                            000098
2SR. CAIXA, APOS O VENCIMENTO COBRAR 2% DE MULTA                                 NAO RECEBER APOS 30 DIAS DO VENCIMENTO.                                                                                                                                                                                                         05071900000000000000507190000000000000       0090339900006270077300071916000099
100000000000000000000009033990000627000000000000000000000000010002020065584107191200000000002            2  01655841071924071900000001451550000000001N040719000000000000000000000000000000000000000000000000000000000000000100065584147834JOAQUIM DA COSTA MACHADO NETO           RUA CARLOS JOSE BORSTENS - 50 AP.42 - AV            11702750                                                            000101
2SR. CAIXA, APOS O VENCIMENTO COBRAR 2% DE MULTA                                 NAO RECEBER APOS 30 DIAS DO VENCIMENTO.                                                                                                                                                                                                         05071900000000000000507190000000000000       0090339900006270655841071912000102
100000000000000000000009033990000627000000000000000000000000010002020065584107192000000000002            2  01655841071924071900000001451420000000001N040719000000000000000000000000000000000000000000000000000000000000000100065584147834JOAQUIM DA COSTA MACHADO NETO           RUA CARLOS JOSE BORSTENS - 50 AP.42 - AV            11702750                                                            000104
2SR. CAIXA, APOS O VENCIMENTO COBRAR 2% DE MULTA                                 NAO RECEBER APOS 30 DIAS DO VENCIMENTO.                                                                                                                                                                                                         05071900000000000000507190000000000000       0090339900006270655841071920000105
100000000000000000000009033990000627000000000000000000000000010002020001616907191400000000002            2  01016169071924071900000002552830000000001N040719000000000000000000000000000000000000000000000000000000000000000100001616913827CLAUDIO LUIZ PAULELLA                   PRACA NESTOR DOS SANTOS ARRUDA - 26 - VI            13920000                                                            000107
2SR. CAIXA, APOS O VENCIMENTO COBRAR 2% DE MULTA                                 NAO RECEBER APOS 30 DIAS DO VENCIMENTO.                                                                                                                                                                                                         05071900000000000000507190000000000000       0090339900006270016169071914000108
100000000000000000000009033990000627000000000000000000000000010002020006684607191500000000002            2  01066846071926071900000001857360000000001N040719000000000000000000000000000000000000000000000000000000000000000100006684623884LAUDINOR VIEIRA GARCIA                  RUA CANDIDO SALES - 374 - JARDIM PRESIDE            07172000                                                            000110
2SR. CAIXA, APOS O VENCIMENTO COBRAR 2% DE MULTA                                 NAO RECEBER APOS 30 DIAS DO VENCIMENTO.                                                                                                                                                                                                         05071900000000000000507190000000000000       0090339900006270066846071915000111
100000000000000000000009033990000627000000000000000000000000010002020006684607192300000000002            2  01066846071926071900000001857360000000001N040719000000000000000000000000000000000000000000000000000000000000000100006684623884LAUDINOR VIEIRA GARCIA                  RUA CANDIDO SALES - 374 - JARDIM PRESIDE            07172000                                                            000113
2SR. CAIXA, APOS O VENCIMENTO COBRAR 2% DE MULTA                                 NAO RECEBER APOS 30 DIAS DO VENCIMENTO.                                                                                                                                                                                                         05071900000000000000507190000000000000       0090339900006270066846071923000114
100000000000000000000009033990000627000000000000000000000000010002020011663507191600000000002            2  01116635071926071900000001870750000000001N040719000000000000000000000000000000000000000000000000000000000000000100011663589844MARIA SAVIO QUARELLO                    AVENIDA MENDONCA DRUMOND - 321 - JARDIM             03524030                                                            000116
2SR. CAIXA, APOS O VENCIMENTO COBRAR 2% DE MULTA                                 NAO RECEBER APOS 30 DIAS DO VENCIMENTO.                                                                                                                                                                                                         05071900000000000000507190000000000000       0090339900006270116635071916000117
100000000000000000000009033990000627000000000000000000000000010002020010083807191800000000002            2  01100838071926071900000001807430000000001N040719000000000000000000000000000000000000000000000000000000000000000100010083824855IONE FERREIRA COUTO DA SILVA            RUA JOSE RAGEL DE MESQUITA - 60 CS.01 -             07799999                                                            000119
2SR. CAIXA, APOS O VENCIMENTO COBRAR 2% DE MULTA                                 NAO RECEBER APOS 30 DIAS DO VENCIMENTO.                                                                                                                                                                                                         05071900000000000000507190000000000000       0090339900006270100838071918000120
100000000000000000000009033990000627000000000000000000000000010002020036881707191000000000002            2  01368817071926071900000001773700000000001N040719000000000000000000000000000000000000000000000000000000000000000100036881778864ANDRE GONZALEZ RABELLO                  RUA PARAIBA - 106 AP.61 - POMPEIA - SANT            11065470                                                            000122
2SR. CAIXA, APOS O VENCIMENTO COBRAR 2% DE MULTA                                 NAO RECEBER APOS 30 DIAS DO VENCIMENTO.                                                                                                                                                                                                         05071900000000000000507190000000000000       0090339900006270368817071910000123
100000000000000000000009033990000627000000000000000000000000010002020018207007191P00000000002            2  01182070071924071900000002444880000000001N040719000000000000000000000000000000000000000000000000000000000000000100018207096802ROBERTO VALENTE TAVARES                 RUA SEBASTIAO GOMES - 218 - JARDIM SANTO            13835000                                                            000125
2SR. CAIXA, APOS O VENCIMENTO COBRAR 2% DE MULTA                                 NAO RECEBER APOS 30 DIAS DO VENCIMENTO.                                                                                                                                                                                                         05071900000000000000507190000000000000       009033990000627018207007191P000126
100000000000000000000009033990000627000000000000000000000000010002020005351007191200000000002            2  01053510071926071900000001663020000000001N040719000000000000000000000000000000000000000000000000000000000000000100005351015897VALERIA ALVES MARCOLINO HINNIGER        RUA MONGOLIA - 230 AP.71 BL.4 - PARQUE N            09280220                                                            000128
2SR. CAIXA, APOS O VENCIMENTO COBRAR 2% DE MULTA                                 NAO RECEBER APOS 30 DIAS DO VENCIMENTO.                                                                                                                                                                                                         05071900000000000000507190000000000000       0090339900006270053510071912000129
100000000000000000000009033990000627000000000000000000000000010002020031898707191800000000002            2  01318987071924071900000002645830000000001N040719000000000000000000000000000000000000000000000000000000000000000100031898775800ANITA MARTINS COLOMBO                   RUA CARLOS JOSE BORSTENS - 50 AP.115 - A            11702750                                                            000131
2SR. CAIXA, APOS O VENCIMENTO COBRAR 2% DE MULTA                                 NAO RECEBER APOS 30 DIAS DO VENCIMENTO.                                                                                                                                                                                                         05071900000000000000507190000000000000       0090339900006270318987071918000132
100000000000000000000009033990000627000000000000000000000000010002020037983407191800000000002            2  01379834071926071900000001953500000000001N040719000000000000000000000000000000000000000000000000000000000000000100037983484801JOSE ERIVALDO SOUZA DO NASCIMENTO RAMOS RUA LETICIA - 250 - JARDIM GUARUJA - SAO            05877260                                                            000134
2SR. CAIXA, APOS O VENCIMENTO COBRAR 2% DE MULTA                                 NAO RECEBER APOS 30 DIAS DO VENCIMENTO.                                                                                                                                                                                                         05071900000000000000507190000000000000       0090339900006270379834071918000135
100000000000000000000009033990000627000000000000000000000000010002020056289207191900000000002            2  01562892071926071900000006449810000000001N040719000000000000000000000000000000000000000000000000000000000000000100056289286900PEDRO RIBEIRO                           RUA CONEGO MANOEL VAZ - 48 - SANTANA - S            02019050                                                            000137
2SR. CAIXA, APOS O VENCIMENTO COBRAR 2% DE MULTA                                 NAO RECEBER APOS 30 DIAS DO VENCIMENTO.                                                                                                                                                                                                         05071900000000000000507190000000000000       0090339900006270562892071919000138
100000000000000000000009033990000627000000000000000000000000010002020056289207192700000000002            2  01562892071926071900000001475770000000001N040719000000000000000000000000000000000000000000000000000000000000000100056289286900PEDRO RIBEIRO                           RUA CONEGO MANOEL VAZ - 48 - SANTANA - S            02019050                                                            000140
2SR. CAIXA, APOS O VENCIMENTO COBRAR 2% DE MULTA                                 NAO RECEBER APOS 30 DIAS DO VENCIMENTO.                                                                                                                                                                                                         05071900000000000000507190000000000000       0090339900006270562892071927000141
100000000000000000000009033990000627000000000000000000000000010002020005025507191200000000002            2  01050255071926071900000002100180000000001N040719000000000000000000000000000000000000000000000000000000000000000100005025595860CONCEICAO APARECIDA DE MESQUITA PEREIRA RUA TRIUNFO - 835 AP.105 - JARDIM SAO LU            14020670                                                            000143
2SR. CAIXA, APOS O VENCIMENTO COBRAR 2% DE MULTA                                 NAO RECEBER APOS 30 DIAS DO VENCIMENTO.                                                                                                                                                                                                         05071900000000000000507190000000000000       0090339900006270050255071912000144
100000000000000000000009033990000627000000000000000000000000010002020034735307191500000000002            2  01347353071926071900000002025400000000001N040719000000000000000000000000000000000000000000000000000000000000000100034735328866DIEGO FELIPE MOLINA DA SILVA E SOUSA    RUA EMILIA PAULISTA - 135 - VILA TIRADEN            05364020                                                            000146
2SR. CAIXA, APOS O VENCIMENTO COBRAR 2% DE MULTA                                 NAO RECEBER APOS 30 DIAS DO VENCIMENTO.                                                                                                                                                                                                         05071900000000000000507190000000000000       0090339900006270347353071915000147
100000000000000000000009033990000627000000000000000000000000010002020076175607191600000000002            2  01761756071924071900000003671820000000001N040719000000000000000000000000000000000000000000000000000000000000000100076175685687GILMAR DE OLIVEIRA BRAGA                RUA MARACAJU - 161 AP.202 - NOVA GRANADA            30431350                                                            000149
2SR. CAIXA, APOS O VENCIMENTO COBRAR 2% DE MULTA                                 NAO RECEBER APOS 30 DIAS DO VENCIMENTO.                                                                                                                                                                                                         05071900000000000000507190000000000000       0090339900006270761756071916000150
100000000000000000000009033990000627000000000000000000000000010002020034812207191900000000002            2  01348122071924071900000003501860000000001N040719000000000000000000000000000000000000000000000000000000000000000100034812226880THAIS TORQUATO MIMOSO DE JESUS          RUA ARNALDO CINTRA - 416 AP.104 TORRE 2             03088000                                                            000152
2SR. CAIXA, APOS O VENCIMENTO COBRAR 2% DE MULTA                                 NAO RECEBER APOS 30 DIAS DO VENCIMENTO.                                                                                                                                                                                                         05071900000000000000507190000000000000       0090339900006270348122071919000153
9                                                                                                                                                                                                                                                                                                                                                                                                         000154