01REMESSA01COBRANCA       00000000000008017025HB SANTOS CONSTRUTORA E INCORP237BRADESCO       011022        MX0000162                                                                                                                                                                                                                                                                                     000001
100000000000000000000009033990000627000000000000000000000000010002020016479010221000000000002            2  01164790102209102200000005024540000000001N011022000000000000000000000000000000000000000000000000000000000000000100016479002806LOURDES PEREIRA DE QUEIROZ SECANECHIA   RUA PAULINO CURSI - 437 - CIDADE SAO MAT            03960060                                                            000002
2SR. CAIXA, APOS O VENCIMENTO COBRAR 2% DE MULTA                                 NAO RECEBER APOS 30 DIAS DO VENCIMENTO.                                                                                                                                                                                                         01102200000000000000110220000000000000       0090339900006270164790102210000003
100000000000000000000009033990000627000000000000000000000000010002020017229710222000000000002            2  01172297102209102200000003823620000000001N011022000000000000000000000000000000000000000000000000000000000000000100017229751802BERENICE VIEIRA KERSTING                RUA ATIBAIA - 17 AP.417 - BAIRRO IMPERAD            11707380                                                            000005
2SR. CAIXA, APOS O VENCIMENTO COBRAR 2% DE MULTA                                 NAO RECEBER APOS 30 DIAS DO VENCIMENTO.                                                                                                                                                                                                         01102200000000000000110220000000000000       0090339900006270172297102220000006
100000000000000000000009033990000627000000000000000000000000010002020009361410221800000000002            2  01093614102209102200000003647820000000001N011022000000000000000000000000000000000000000000000000000000000000000100009361471805JOSE BARBOSA DA SILVA                   RUA ALFREDO INACIO TRINDADE  - 60 AP.44             02344100                                                            000008
2SR. CAIXA, APOS O VENCIMENTO COBRAR 2% DE MULTA                                 NAO RECEBER APOS 30 DIAS DO VENCIMENTO.                                                                                                                                                                                                         01102200000000000000110220000000000000       0090339900006270093614102218000009
100000000000000000000009033990000627000000000000000000000000010002020012756910221100000000002            2  01127569102209102200000003148870000000001N011022000000000000000000000000000000000000000000000000000000000000000100012756959812ITAMAR JUVENAL DIAS DA SILVA            RUA ELISEU REINALDO MORAES VIEIRA - 90 A            02858000                                                            000011
2SR. CAIXA, APOS O VENCIMENTO COBRAR 2% DE MULTA                                 NAO RECEBER APOS 30 DIAS DO VENCIMENTO.                                                                                                                                                                                                         01102200000000000000110220000000000000       0090339900006270127569102211000012
100000000000000000000009033990000627000000000000000000000000010002020029433610221500000000002            2  01294336102211102200000002610770000000001N011022000000000000000000000000000000000000000000000000000000000000000100029433631897MARIO MUNIZ                             RUA JOSE CALIXTO DO CARMO - 286 AP.53 -             11702690                                                            000014
2SR. CAIXA, APOS O VENCIMENTO COBRAR 2% DE MULTA                                 NAO RECEBER APOS 30 DIAS DO VENCIMENTO.                                                                                                                                                                                                         01102200000000000000110220000000000000       0090339900006270294336102215000015
100000000000000000000009033990000627000000000000000000000000010002020005029810221800000000002            2  01050298102209102200000003210460000000001N011022000000000000000000000000000000000000000000000000000000000000000100005029828885LAURINETE DA CONCEICAO DE NORONHA       RUA MARIA LUCIA DE TOLEDO LEITE MORAES -            04434040                                                            000017
2SR. CAIXA, APOS O VENCIMENTO COBRAR 2% DE MULTA                                 NAO RECEBER APOS 30 DIAS DO VENCIMENTO.                                                                                                                                                                                                         01102200000000000000110220000000000000       0090339900006270050298102218000018
100000000000000000000009033990000627000000000000000000000000010002020013388910221P00000000002            2  01133889102211102200000002545090000000001N011022000000000000000000000000000000000000000000000000000000000000000100013388936889NEUTON DE SOUZA RAMOS                   RUA JOSE CALIXTO DO CARMO - 286 AP.61 -             11702690                                                            000020
2SR. CAIXA, APOS O VENCIMENTO COBRAR 2% DE MULTA                                 NAO RECEBER APOS 30 DIAS DO VENCIMENTO.                                                                                                                                                                                                         01102200000000000000110220000000000000       009033990000627013388910221P000021
100000000000000000000009033990000627000000000000000000000000010002020012774910221P00000000002            2  01127749102211102200000002592880000000001N011022000000000000000000000000000000000000000000000000000000000000000100012774906865JOSE MILTON SANTIAGO                    RUA BATATAIS - 47 - CIDADE ESTELA - POA             08563140                                                            000023
2SR. CAIXA, APOS O VENCIMENTO COBRAR 2% DE MULTA                                 NAO RECEBER APOS 30 DIAS DO VENCIMENTO.                                                                                                                                                                                                         01102200000000000000110220000000000000       009033990000627012774910221P000024
100000000000000000000009033990000627000000000000000000000000010002020005613810221P00000000002            2  01056138102211102200000002384730000000001N011022000000000000000000000000000000000000000000000000000000000000000100005613843805NILZA MARIA DE OLIVEIRA                 RUA JOSE GONCALVES DE FREITAS - 66 C2 -             08210550                                                            000026
2SR. CAIXA, APOS O VENCIMENTO COBRAR 2% DE MULTA                                 NAO RECEBER APOS 30 DIAS DO VENCIMENTO.                                                                                                                                                                                                         01102200000000000000110220000000000000       009033990000627005613810221P000027
100000000000000000000009033990000627000000000000000000000000010002020007574910221P00000000002            2  01075749102211102200000002447860000000001N011022000000000000000000000000000000000000000000000000000000000000000100007574936889JORGE LUCIANO PEREIRA BORRIELLO         RUA JOSE CALIXTO DO CARMO - 286 AP.54 -             11702690                                                            000029
2SR. CAIXA, APOS O VENCIMENTO COBRAR 2% DE MULTA                                 NAO RECEBER APOS 30 DIAS DO VENCIMENTO.                                                                                                                                                                                                         01102200000000000000110220000000000000       009033990000627007574910221P000030
100000000000000000000009033990000627000000000000000000000000010002020008214910221200000000002            2  01082149102211102200000002484990000000001N011022000000000000000000000000000000000000000000000000000000000000000100008214973830JAMIL CHALA                             RUA JOSE CALIXTO DO CARMO - 286 AP.22 -             11702690                                                            000032
2SR. CAIXA, APOS O VENCIMENTO COBRAR 2% DE MULTA                                 NAO RECEBER APOS 30 DIAS DO VENCIMENTO.                                                                                                                                                                                                         01102200000000000000110220000000000000       0090339900006270082149102212000033
100000000000000000000009033990000627000000000000000000000000010002020032495010221P00000000002            2  01324950102211102200000002784760000000001N011022000000000000000000000000000000000000000000000000000000000000000100032495004881PAULO EDUARDO DOS SANTOS                RUA REPUBLICA DO IRAQUE - 1119 - CAMPO B            04611002                                                            000035
2SR. CAIXA, APOS O VENCIMENTO COBRAR 2% DE MULTA                                 NAO RECEBER APOS 30 DIAS DO VENCIMENTO.                                                                                                                                                                                                         01102200000000000000110220000000000000       009033990000627032495010221P000036
100000000000000000000009033990000627000000000000000000000000010002020016498010221700000000002            2  01164980102211102200000002442300000000001N011022000000000000000000000000000000000000000000000000000000000000000100016498053810GILMA CEZARIO GARCIA CORRITORI          RUA LAURENTINO XAVIER DOS SANTOS - 336 -            08240740                                                            000038
2SR. CAIXA, APOS O VENCIMENTO COBRAR 2% DE MULTA                                 NAO RECEBER APOS 30 DIAS DO VENCIMENTO.                                                                                                                                                                                                         01102200000000000000110220000000000000       0090339900006270164980102217000039
100000000000000000000009033990000627000000000000000000000000010002020029339010221600000000002            2  01293390102211102200000002611630000000001N011022000000000000000000000000000000000000000000000000000000000000000100029339051831RONALD DIDOFF                           RUA CORONEL FERREIRA BRAGA - 188 - VILA             03522010                                                            000041
2SR. CAIXA, APOS O VENCIMENTO COBRAR 2% DE MULTA                                 NAO RECEBER APOS 30 DIAS DO VENCIMENTO.                                                                                                                                                                                                         01102200000000000000110220000000000000       0090339900006270293390102216000042
100000000000000000000009033990000627000000000000000000000000010002020017357810221800000000002            2  01173578102211102200000002765950000000001N011022000000000000000000000000000000000000000000000000000000000000000100017357859894MARCIO GUIMARAES                        RUA GENERAL CAMARA - 188 SALA 11 - CENTR            11010120                                                            000044
2SR. CAIXA, APOS O VENCIMENTO COBRAR 2% DE MULTA                                 NAO RECEBER APOS 30 DIAS DO VENCIMENTO.                                                                                                                                                                                                         01102200000000000000110220000000000000       0090339900006270173578102218000045
100000000000000000000009033990000627000000000000000000000000010002020010563010221800000000002            2  01105630102211102200000002836650000000001N011022000000000000000000000000000000000000000000000000000000000000000100010563033878VERA LUCIA RIBEIRO LONGANEZI            RUA DOS CAMARES - 150 AP.24 BL.02 - CARA            02068030                                                            000047
2SR. CAIXA, APOS O VENCIMENTO COBRAR 2% DE MULTA                                 NAO RECEBER APOS 30 DIAS DO VENCIMENTO.                                                                                                                                                                                                         01102200000000000000110220000000000000       0090339900006270105630102218000048
100000000000000000000009033990000627000000000000000000000000010002020015550710221900000000002            2  01155507102209102200000002433510000000001N011022000000000000000000000000000000000000000000000000000000000000000100015550706806MARY MIWA                               RUA CARLOS JOSE BORSTENS - 50 AP.105 - A            11702750                                                            000050
2SR. CAIXA, APOS O VENCIMENTO COBRAR 2% DE MULTA                                 NAO RECEBER APOS 30 DIAS DO VENCIMENTO.                                                                                                                                                                                                         01102200000000000000110220000000000000       0090339900006270155507102219000051
100000000000000000000009033990000627000000000000000000000000010002020015464610221900000000002            2  01154646102211102200000002706060000000001N011022000000000000000000000000000000000000000000000000000000000000000100015464647864SONIA TERESA VOLPATO                    RUA JOSE CALIXTO DO CARMO - 286 AP.73 -             11702690                                                            000053
2SR. CAIXA, APOS O VENCIMENTO COBRAR 2% DE MULTA                                 NAO RECEBER APOS 30 DIAS DO VENCIMENTO.                                                                                                                                                                                                         01102200000000000000110220000000000000       0090339900006270154646102219000054
100000000000000000000009033990000627000000000000000000000000010002020008657810221800000000002            2  01086578102211102200000002678880000000001N011022000000000000000000000000000000000000000000000000000000000000000100008657886855ARLINDO DA CRUZ                         AVENIDA ARICANDUVA - 8.256 AP.54 BL.10 -            03951220                                                            000056
2SR. CAIXA, APOS O VENCIMENTO COBRAR 2% DE MULTA                                 NAO RECEBER APOS 30 DIAS DO VENCIMENTO.                                                                                                                                                                                                         01102200000000000000110220000000000000       0090339900006270086578102218000057
100000000000000000000009033990000627000000000000000000000000010002020059735110221600000000002            2  01597351102209102200000001514520000000001N011022000000000000000000000000000000000000000000000000000000000000000100059735180863HELIO JOSE MARQUES                      RUA MARTIM AFONSO DE SOUZA - 1007 AP.102            11702790                                                            000059
2SR. CAIXA, APOS O VENCIMENTO COBRAR 2% DE MULTA                                 NAO RECEBER APOS 30 DIAS DO VENCIMENTO.                                                                                                                                                                                                         01102200000000000000110220000000000000       0090339900006270597351102216000060
100000000000000000000009033990000627000000000000000000000000010002020026347810221P00000000002            2  01263478102211102200000002863650000000001N011022000000000000000000000000000000000000000000000000000000000000000100026347872862VALDECI SILVA MEIRELES                  RUA JOSE BATISTA DA SILVA - 292 - JARDIM            06851470                                                            000062
2SR. CAIXA, APOS O VENCIMENTO COBRAR 2% DE MULTA                                 NAO RECEBER APOS 30 DIAS DO VENCIMENTO.                                                                                                                                                                                                         01102200000000000000110220000000000000       009033990000627026347810221P000063
100000000000000000000009033990000627000000000000000000000000010002020013135210221000000000002            2  01131352102211102200000002630970000000001N011022000000000000000000000000000000000000000000000000000000000000000100013135261859EDUARDO ZANOLA                          RUA ROLANDO PIETRO BONINI - 46 - JARDIM             09781040                                                            000065
2SR. CAIXA, APOS O VENCIMENTO COBRAR 2% DE MULTA                                 NAO RECEBER APOS 30 DIAS DO VENCIMENTO.                                                                                                                                                                                                         01102200000000000000110220000000000000       0090339900006270131352102210000066
100000000000000000000009033990000627000000000000000000000000010002020009797610221100000000002            2  01097976102211102200000002562280000000001N011022000000000000000000000000000000000000000000000000000000000000000100009797626857RICARDO SOBRAL DE OLIVEIRA              RUA 23 DE MAIO - 139 AP.32 - VILA MIRIM             11704690                                                            000068
2SR. CAIXA, APOS O VENCIMENTO COBRAR 2% DE MULTA                                 NAO RECEBER APOS 30 DIAS DO VENCIMENTO.                                                                                                                                                                                                         01102200000000000000110220000000000000       0090339900006270097976102211000069
100000000000000000000009033990000627000000000000000000000000010002020004767610221200000000002            2  01047676102209102200000004380910000000001N011022000000000000000000000000000000000000000000000000000000000000000100004767679893ORLANDO GRANDE FILHO                    RUA ORLANDO MIGLIARI - 101 - JARDIM OURO            19906140                                                            000071
2SR. CAIXA, APOS O VENCIMENTO COBRAR 2% DE MULTA                                 NAO RECEBER APOS 30 DIAS DO VENCIMENTO.                                                                                                                                                                                                         01102200000000000000110220000000000000       0090339900006270047676102212000072
100000000000000000000009033990000627000000000000000000000000010002020006512510221P00000000002            2  01065125102211102200000002304890000000001N011022000000000000000000000000000000000000000000000000000000000000000100006512547870MARIA DO CARMO FAGUNDES DOS REIS        RUA CARLOS MALCHER - 98 - PARQUE EDU CHA            02232020                                                            000074
2SR. CAIXA, APOS O VENCIMENTO COBRAR 2% DE MULTA                                 NAO RECEBER APOS 30 DIAS DO VENCIMENTO.                                                                                                                                                                                                         01102200000000000000110220000000000000       009033990000627006512510221P000075
100000000000000000000009033990000627000000000000000000000000010002020022728410221200000000002            2  01227284102211102200000002772570000000001N011022000000000000000000000000000000000000000000000000000000000000000100022728497842WILLIAN DE SOUZA MELLO                  RUA JOSE CALIXTO DO CARMO - 286 AP.111 -            11702690                                                            000077
2SR. CAIXA, APOS O VENCIMENTO COBRAR 2% DE MULTA                                 NAO RECEBER APOS 30 DIAS DO VENCIMENTO.                                                                                                                                                                                                         01102200000000000000110220000000000000       0090339900006270227284102212000078
100000000000000000000009033990000627000000000000000000000000010002020016909710221700000000002            2  01169097102211102200000002450080000000001N011022000000000000000000000000000000000000000000000000000000000000000100016909746805EDIVALDO SANTANA DOS SANTOS             ESTRADA JOAO GASPAR DELGADO - 80 AP.213             08536100                                                            000080
2SR. CAIXA, APOS O VENCIMENTO COBRAR 2% DE MULTA                                 NAO RECEBER APOS 30 DIAS DO VENCIMENTO.                                                                                                                                                                                                         01102200000000000000110220000000000000       0090339900006270169097102217000081
100000000000000000000009033990000627000000000000000000000000010002020022036010221400000000002            2  01220360102209102200000003804230000000001N011022000000000000000000000000000000000000000000000000000000000000000100022036003818DERLIS TERAN QUIROGA ROGATO             RUA JOAO RIBEIRO - 320 AP.131SB - CAMPES            09070250                                                            000083
2SR. CAIXA, APOS O VENCIMENTO COBRAR 2% DE MULTA                                 NAO RECEBER APOS 30 DIAS DO VENCIMENTO.                                                                                                                                                                                                         01102200000000000000110220000000000000       0090339900006270220360102214000084
100000000000000000000009033990000627000000000000000000000000010002020017229710223900000000002            2  01172297102209102200000003671420000000001N011022000000000000000000000000000000000000000000000000000000000000000100017229751802BERENICE VIEIRA KERSTING                RUA ATIBAIA - 17 AP.417 - BAIRRO IMPERAD            11707380                                                            000086
2SR. CAIXA, APOS O VENCIMENTO COBRAR 2% DE MULTA                                 NAO RECEBER APOS 30 DIAS DO VENCIMENTO.                                                                                                                                                                                                         01102200000000000000110220000000000000       0090339900006270172297102239000087
100000000000000000000009033990000627000000000000000000000000010002020012475610221800000000002            2  01124756102211102200000002655780000000001N011022000000000000000000000000000000000000000000000000000000000000000100012475663820CELIDALVA GOES DE CARVALHO              RUA JOSE CALIXTO DO CARMO - 286 AP.91 -             11702690                                                            000089
2SR. CAIXA, APOS O VENCIMENTO COBRAR 2% DE MULTA                                 NAO RECEBER APOS 30 DIAS DO VENCIMENTO.                                                                                                                                                                                                         01102200000000000000110220000000000000       0090339900006270124756102218000090
100000000000000000000009033990000627000000000000000000000000010002020033451610221500000000002            2  01334516102211102200000002217740000000001N011022000000000000000000000000000000000000000000000000000000000000000100033451620839ARAO ELISIARIO  NUNES                   RUA JOSE CALIXTO DO CARMO - 286 AP.64 -             11702690                                                            000092
2SR. CAIXA, APOS O VENCIMENTO COBRAR 2% DE MULTA                                 NAO RECEBER APOS 30 DIAS DO VENCIMENTO.                                                                                                                                                                                                         01102200000000000000110220000000000000       0090339900006270334516102215000093
100000000000000000000009033990000627000000000000000000000000010002020045839210221200000000002            2  01458392102211102200000001721360000000001N011022000000000000000000000000000000000000000000000000000000000000000100045839263834LEONARDO ANTONIO CONCELLIERI            RUA JOSE CALIXTO DO CARMO - 286 AP.51 -             11702690                                                            000095
2SR. CAIXA, APOS O VENCIMENTO COBRAR 2% DE MULTA                                 NAO RECEBER APOS 30 DIAS DO VENCIMENTO.                                                                                                                                                                                                         01102200000000000000110220000000000000       0090339900006270458392102212000096
100000000000000000000009033990000627000000000000000000000000010002020011369110221300000000002            2  01113691102211102200000002422610000000001N011022000000000000000000000000000000000000000000000000000000000000000100011369165803ELIANA CORREA DE OLIVEIRA               RUA MAESTRO ZEFERINO SANTANA - 65 - VILA            18040010                                                            000098
2SR. CAIXA, APOS O VENCIMENTO COBRAR 2% DE MULTA                                 NAO RECEBER APOS 30 DIAS DO VENCIMENTO.                                                                                                                                                                                                         01102200000000000000110220000000000000       0090339900006270113691102213000099
100000000000000000000009033990000627000000000000000000000000010002020002253810221700000000002            2  01022538102211102200000002153230000000001N011022000000000000000000000000000000000000000000000000000000000000000100002253816809EDMILSON ALVES DA SILVA                 RUA JOSE CALIXTO DO CARMO - 286 AP.93 -             11702690                                                            000101
2SR. CAIXA, APOS O VENCIMENTO COBRAR 2% DE MULTA                                 NAO RECEBER APOS 30 DIAS DO VENCIMENTO.                                                                                                                                                                                                         01102200000000000000110220000000000000       0090339900006270022538102217000102
100000000000000000000009033990000627000000000000000000000000010002020037947010221900000000002            2  01379470102211102200000003824280000000001N011022000000000000000000000000000000000000000000000000000000000000000100037947070873BRUNO DE CAETANO MARRINHAS              AVENIDA GENERAL BARRETO DE MENEZES - 323            09791150                                                            000104
2SR. CAIXA, APOS O VENCIMENTO COBRAR 2% DE MULTA                                 NAO RECEBER APOS 30 DIAS DO VENCIMENTO.                                                                                                                                                                                                         01102200000000000000110220000000000000       0090339900006270379470102219000105
100000000000000000000009033990000627000000000000000000000000010002020037517710221700000000002            2  01375177102209102200000004035000000000001N011022000000000000000000000000000000000000000000000000000000000000000100037517785869RENATO JOSE DE LIMA MELO                RUA ARISTIDES LOBO - 148 AP.41 BLOCO 03             03041100                                                            000107
2SR. CAIXA, APOS O VENCIMENTO COBRAR 2% DE MULTA                                 NAO RECEBER APOS 30 DIAS DO VENCIMENTO.                                                                                                                                                                                                         01102200000000000000110220000000000000       0090339900006270375177102217000108
100000000000000000000009033990000627000000000000000000000000010002020070367910221800000000002            2  01703679102211102200000002022020000000001N011022000000000000000000000000000000000000000000000000000000000000000100070367949849TEODOMIRO ALVES DOS SANTOS              RUA ANDRE PAZ - 13 - JARDIM SANTO ANDRE             08390230                                                            000110
2SR. CAIXA, APOS O VENCIMENTO COBRAR 2% DE MULTA                                 NAO RECEBER APOS 30 DIAS DO VENCIMENTO.                                                                                                                                                                                                         01102200000000000000110220000000000000       0090339900006270703679102218000111
100000000000000000000009033990000627000000000000000000000000010002020004410810221700000000002            2  01044108102209102200000002998050000000001N011022000000000000000000000000000000000000000000000000000000000000000100004410802860LUIZ ALBERTO MARINHO                    RUA DA INDEPENDENCIA - 706 AP.41B - CAMB            01524000                                                            000113
2SR. CAIXA, APOS O VENCIMENTO COBRAR 2% DE MULTA                                 NAO RECEBER APOS 30 DIAS DO VENCIMENTO.                                                                                                                                                                                                         01102200000000000000110220000000000000       0090339900006270044108102217000114
100000000000000000000009033990000627000000000000000000000000010002020004767610222000000000002            2  01047676102209102200000004002310000000001N011022000000000000000000000000000000000000000000000000000000000000000100004767679893ORLANDO GRANDE FILHO                    RUA ORLANDO MIGLIARI - 101 - JARDIM OURO            19906140                                                            000116
2SR. CAIXA, APOS O VENCIMENTO COBRAR 2% DE MULTA                                 NAO RECEBER APOS 30 DIAS DO VENCIMENTO.                                                                                                                                                                                                         01102200000000000000110220000000000000       0090339900006270047676102220000117
100000000000000000000009033990000627000000000000000000000000010002020064677810221800000000002            2  01646778102209102200000003219540000000001N011022000000000000000000000000000000000000000000000000000000000000000100064677850887ANTONIO CARLOS DE OLIVEIRA              RUA DR.ANTONIO MAZILLI FILHO - 435 - PAR            02230070                                                            000119
2SR. CAIXA, APOS O VENCIMENTO COBRAR 2% DE MULTA                                 NAO RECEBER APOS 30 DIAS DO VENCIMENTO.                                                                                                                                                                                                         01102200000000000000110220000000000000       0090339900006270646778102218000120
100000000000000000000009033990000627000000000000000000000000010002020007328910221300000000002            2  01073289102209102200000003928040000000001N011022000000000000000000000000000000000000000000000000000000000000000100007328927836BENEDITO APARECIDO ROCHA                AVENIDA SENADOR JOSE ERMINIO DE MORAES -            02357002                                                            000122
2SR. CAIXA, APOS O VENCIMENTO COBRAR 2% DE MULTA                                 NAO RECEBER APOS 30 DIAS DO VENCIMENTO.                                                                                                                                                                                                         01102200000000000000110220000000000000       0090339900006270073289102213000123
100000000000000000000009033990000627000000000000000000000000010002020058488610221000000000002            2  01584886102209102200000002936470000000001N011022000000000000000000000000000000000000000000000000000000000000000100058488618972ADAILTON ZANUTTO MORESCHI               R:RAPHAEL UNGARO - COND.RESERVA SERRA Q.            13212138                                                            000125
2SR. CAIXA, APOS O VENCIMENTO COBRAR 2% DE MULTA                                 NAO RECEBER APOS 30 DIAS DO VENCIMENTO.                                                                                                                                                                                                         01102200000000000000110220000000000000       0090339900006270584886102210000126
100000000000000000000009033990000627000000000000000000000000010002020002196010221500000000002            2  01021960102211102200000002208260000000001N011022000000000000000000000000000000000000000000000000000000000000000100002196012831VILEFORT DIAS BORGES                    RUA PORTO XAVIER - 189 AP.64 - VILA CARM            08210170                                                            000128
2SR. CAIXA, APOS O VENCIMENTO COBRAR 2% DE MULTA                                 NAO RECEBER APOS 30 DIAS DO VENCIMENTO.                                                                                                                                                                                                         01102200000000000000110220000000000000       0090339900006270021960102215000129
100000000000000000000009033990000627000000000000000000000000010002020031861510221300000000002            2  01318615102211102200000002295230000000001N011022000000000000000000000000000000000000000000000000000000000000000100031861586809VANIA TOMAZ                              -  -  -  -                                         00000000                                                            000131
2SR. CAIXA, APOS O VENCIMENTO COBRAR 2% DE MULTA                                 NAO RECEBER APOS 30 DIAS DO VENCIMENTO.                                                                                                                                                                                                         01102200000000000000110220000000000000       0090339900006270318615102213000132
100000000000000000000009033990000627000000000000000000000000010002020003104510221700000000002            2  01031045102209102200000008547980000000001N011022000000000000000000000000000000000000000000000000000000000000000100003104580804NELSON RODRIGUES                        RUA CARLOS JOSE BORSTENS - 50 AP.81 - AV            11702750                                                            000134
2SR. CAIXA, APOS O VENCIMENTO COBRAR 2% DE MULTA                                 NAO RECEBER APOS 30 DIAS DO VENCIMENTO.                                                                                                                                                                                                         01102200000000000000110220000000000000       0090339900006270031045102217000135
100000000000000000000009033990000627000000000000000000000000010002020007715310221500000000002            2  01077153102209102200000003611510000000001N011022000000000000000000000000000000000000000000000000000000000000000100007715360627NILTON RENNAN OLIVEIRA GOMES FILHO      RUA CARLOS JOSE BORSTENS - 50 AP.21 - AV            11702750                                                            000137
2SR. CAIXA, APOS O VENCIMENTO COBRAR 2% DE MULTA                                 NAO RECEBER APOS 30 DIAS DO VENCIMENTO.                                                                                                                                                                                                         01102200000000000000110220000000000000       0090339900006270077153102215000138
100000000000000000000009033990000627000000000000000000000000010002020007194010221600000000002            2  01071940102211102200000002566630000000001N011022000000000000000000000000000000000000000000000000000000000000000100007194010895RAUL AMANTINO KIRK DE SANCTIS           AVENIDA SANTA CATARINA - 756 AP.01 - VIL            04378000                                                            000140
2SR. CAIXA, APOS O VENCIMENTO COBRAR 2% DE MULTA                                 NAO RECEBER APOS 30 DIAS DO VENCIMENTO.                                                                                                                                                                                                         01102200000000000000110220000000000000       0090339900006270071940102216000141
100000000000000000000009033990000627000000000000000000000000010002020025738610221300000000002            2  01257386102209102200000005186940000000001N011022000000000000000000000000000000000000000000000000000000000000000100025738614810VILMAR JOSE PEREIRA                     ALAMEDA TIETE - 646 - CERQUEIRA CESAR -             01417020                                                            000143
2SR. CAIXA, APOS O VENCIMENTO COBRAR 2% DE MULTA                                 NAO RECEBER APOS 30 DIAS DO VENCIMENTO.                                                                                                                                                                                                         01102200000000000000110220000000000000       0090339900006270257386102213000144
100000000000000000000009033990000627000000000000000000000000010002020025738610222100000000002            2  01257386102209102200000005186910000000001N011022000000000000000000000000000000000000000000000000000000000000000100025738614810VILMAR JOSE PEREIRA                     ALAMEDA TIETE - 646 - CERQUEIRA CESAR -             01417020                                                            000146
2SR. CAIXA, APOS O VENCIMENTO COBRAR 2% DE MULTA                                 NAO RECEBER APOS 30 DIAS DO VENCIMENTO.                                                                                                                                                                                                         01102200000000000000110220000000000000       0090339900006270257386102221000147
100000000000000000000009033990000627000000000000000000000000010002020025738610223P00000000002            2  01257386102209102200000005186920000000001N011022000000000000000000000000000000000000000000000000000000000000000100025738614810VILMAR JOSE PEREIRA                     ALAMEDA TIETE - 646 - CERQUEIRA CESAR -             01417020                                                            000149
2SR. CAIXA, APOS O VENCIMENTO COBRAR 2% DE MULTA                                 NAO RECEBER APOS 30 DIAS DO VENCIMENTO.                                                                                                                                                                                                         01102200000000000000110220000000000000       009033990000627025738610223P000150
100000000000000000000009033990000627000000000000000000000000010002020025738610224800000000002            2  01257386102209102200000005186930000000001N011022000000000000000000000000000000000000000000000000000000000000000100025738614810VILMAR JOSE PEREIRA                     ALAMEDA TIETE - 646 - CERQUEIRA CESAR -             01417020                                                            000152
2SR. CAIXA, APOS O VENCIMENTO COBRAR 2% DE MULTA                                 NAO RECEBER APOS 30 DIAS DO VENCIMENTO.                                                                                                                                                                                                         01102200000000000000110220000000000000       0090339900006270257386102248000153
100000000000000000000009033990000627000000000000000000000000010002020011141510221500000000002            2  01111415102211102200000002697060000000001N011022000000000000000000000000000000000000000000000000000000000000000100011141508869PAULO ROBERTO TUNES SILVA               RUA PETROBRAS - 405 CASA 07 - VILA ANTON            03474060                                                            000155
2SR. CAIXA, APOS O VENCIMENTO COBRAR 2% DE MULTA                                 NAO RECEBER APOS 30 DIAS DO VENCIMENTO.                                                                                                                                                                                                         01102200000000000000110220000000000000       0090339900006270111415102215000156
100000000000000000000009033990000627000000000000000000000000010002020012449110221000000000002            2  01124491102211102200000002717650000000001N011022000000000000000000000000000000000000000000000000000000000000000100012449104810GILBERTO DOS SANTOS JUNIOR              RUA ALMIRANTE TAMANDARE - 89 AP.143 - BA            09310350                                                            000158
2SR. CAIXA, APOS O VENCIMENTO COBRAR 2% DE MULTA                                 NAO RECEBER APOS 30 DIAS DO VENCIMENTO.                                                                                                                                                                                                         01102200000000000000110220000000000000       0090339900006270124491102210000159
100000000000000000000009033990000627000000000000000000000000010002020011261310221900000000002            2  01112613102209102200000003585680000000001N011022000000000000000000000000000000000000000000000000000000000000000100011261359844JOVANETE DOS SANTOS PASSOS              RUA FULVIO MORGANTI - 672 - JARDIM PARAI            02417170                                                            000161
2SR. CAIXA, APOS O VENCIMENTO COBRAR 2% DE MULTA                                 NAO RECEBER APOS 30 DIAS DO VENCIMENTO.                                                                                                                                                                                                         01102200000000000000110220000000000000       0090339900006270112613102219000162
100000000000000000000009033990000627000000000000000000000000010002020036279310221800000000002            2  01362793102209102200000003187430000000001N011022000000000000000000000000000000000000000000000000000000000000000100036279398838BRUNO DOCINI ORTEGA                     RUA GENERAL EUCLIDES FIGUEIREDO - 146 AP            11700780                                                            000164
2SR. CAIXA, APOS O VENCIMENTO COBRAR 2% DE MULTA                                 NAO RECEBER APOS 30 DIAS DO VENCIMENTO.                                                                                                                                                                                                         01102200000000000000110220000000000000       0090339900006270362793102218000165
9                                                                                                                                                                                                                                                                                                                                                                                                         000166