01REMESSA01COBRANCA       00000000000005316116AIRES CONSTRUTORA E INCORPORAD237BRADESCO       010622        MX0000195                                                                                                                                                                                                                                                                                     000001
100000000000000000000009002800441612000000000000000000000000010002100025215106221200000000002            2  01252151062210062200000003059500000000001N010622000000000000000000000000000000000000000000000000000000000000000100025215106886KLEBER LUIZ DOS SANTOS                  RUA MONTE CASTELO - 262 AP.15 - AVIACAO             11702720                                                            000002
2SR. CAIXA, APOS O VENCIMENTO COBRAR 10% DE MULTA                                NAO RECEBER APOS 30 DIAS DO VENCIMENTO.                                                                                                                                                                                                         01062200000000000000106220000000000000       0090028004416120252151062212000003
100000000000000000000009002800441612000000000000000000000000010002100090206706221P00000000002            2  01902067062210062200000003417360000000001N010622000000000000000000000000000000000000000000000000000000000000000100090206789815NEREIDE RODRIGUES FERREIRA              AVENIDA PADRE ESTANISLAU DE CAMPOS - 205            03590060                                                            000005
2SR. CAIXA, APOS O VENCIMENTO COBRAR 10% DE MULTA                                NAO RECEBER APOS 30 DIAS DO VENCIMENTO.                                                                                                                                                                                                         01062200000000000000106220000000000000       009002800441612090206706221P000006
100000000000000000000009002800441612000000000000000000000000010002100029150706221800000000002            2  01291507062210062200000004000060000000001N010622000000000000000000000000000000000000000000000000000000000000000100029150742833ANA DEISE SANTOS DE ALMEIDA             RUA MONTE CASTELO - 296 AP.121 - AVIACAO            11702720                                                            000008
2SR. CAIXA, APOS O VENCIMENTO COBRAR 10% DE MULTA                                NAO RECEBER APOS 30 DIAS DO VENCIMENTO.                                                                                                                                                                                                         01062200000000000000106220000000000000       0090028004416120291507062218000009
100000000000000000000009002800441612000000000000000000000000010002100000811706221300000000002            2  01008117062210062200000003294790000000001N010622000000000000000000000000000000000000000000000000000000000000000100000811752801SERGIO BUENO DA SILVA                   RUA MONTE CASTELO - 262 AP.75 - AVIACAO             11702720                                                            000011
2SR. CAIXA, APOS O VENCIMENTO COBRAR 10% DE MULTA                                NAO RECEBER APOS 30 DIAS DO VENCIMENTO.                                                                                                                                                                                                         01062200000000000000106220000000000000       0090028004416120008117062213000012
100000000000000000000009002800441612000000000000000000000000010002100018344806221P00000000002            2  01183448062210062200000004480090000000001N010622000000000000000000000000000000000000000000000000000000000000000100018344803888MARCELO BERNARDO                        RUA MONTE CASTELO - 262 AP.84 - AVIACAO             11702720                                                            000014
2SR. CAIXA, APOS O VENCIMENTO COBRAR 10% DE MULTA                                NAO RECEBER APOS 30 DIAS DO VENCIMENTO.                                                                                                                                                                                                         01062200000000000000106220000000000000       009002800441612018344806221P000015
100000000000000000000009002800441612000000000000000000000000010002100031803806221500000000002            2  01318038062210062200000003617900000000001N010622000000000000000000000000000000000000000000000000000000000000000100031803864877ELEILSON FELIPPE SANTOS                 RUA SANTA GREGORIA - 193 - CIDADE DUTRA             04806030                                                            000017
2SR. CAIXA, APOS O VENCIMENTO COBRAR 10% DE MULTA                                NAO RECEBER APOS 30 DIAS DO VENCIMENTO.                                                                                                                                                                                                         01062200000000000000106220000000000000       0090028004416120318038062215000018
100000000000000000000009002800441612000000000000000000000000010002100063064506221P00000000002            2  01630645062210062200000004311370000000001N010622000000000000000000000000000000000000000000000000000000000000000100063064537849ANTONIO APARECIDO DA SILVA DESTEFANO    RUA PROFESSOR TEODORO BRAGA - 46 - VILA             02966020                                                            000020
2SR. CAIXA, APOS O VENCIMENTO COBRAR 10% DE MULTA                                NAO RECEBER APOS 30 DIAS DO VENCIMENTO.                                                                                                                                                                                                         01062200000000000000106220000000000000       009002800441612063064506221P000021
100000000000000000000009002800441612000000000000000000000000010002100005920506221900000000002            2  01059205062210062200000002510110000000001N010622000000000000000000000000000000000000000000000000000000000000000100005920579846SONIA MARIA VALDO POLLO                 RUA PALMIRA CERVI BARBARO - 797 - CIDADE            13214370                                                            000023
2SR. CAIXA, APOS O VENCIMENTO COBRAR 10% DE MULTA                                NAO RECEBER APOS 30 DIAS DO VENCIMENTO.                                                                                                                                                                                                         01062200000000000000106220000000000000       0090028004416120059205062219000024
100000000000000000000009002800441612000000000000000000000000010002100002494106221P00000000002            2  01024941062210062200000003774050000000001N010622000000000000000000000000000000000000000000000000000000000000000100002494107881CIRO FRANCISCO MARCHI DURIGON           RUA MONTE CASTELO - 262 AP.115 - AVIACAO            11702720                                                            000026
2SR. CAIXA, APOS O VENCIMENTO COBRAR 10% DE MULTA                                NAO RECEBER APOS 30 DIAS DO VENCIMENTO.                                                                                                                                                                                                         01062200000000000000106220000000000000       009002800441612002494106221P000027
100000000000000000000009002800441612000000000000000000000000010002100016299006221000000000002            2  01162990062210062200000003576510000000001N010622000000000000000000000000000000000000000000000000000000000000000100016299008857FERNANDO CESAR CARVALHO                 AVENIDA MARCONDES DE BRITO - 1340 AP.74             03509000                                                            000029
2SR. CAIXA, APOS O VENCIMENTO COBRAR 10% DE MULTA                                NAO RECEBER APOS 30 DIAS DO VENCIMENTO.                                                                                                                                                                                                         01062200000000000000106220000000000000       0090028004416120162990062210000030
100000000000000000000009002800441612000000000000000000000000010002100065895306221400000000002            2  01658953062210062200000002188110000000001N010622000000000000000000000000000000000000000000000000000000000000000100065895304834MARINHO BARBOSA CUNHA                   AVENIDA EDU CHAVES - 639 AP.43 - PARQUE             02229000                                                            000032
2SR. CAIXA, APOS O VENCIMENTO COBRAR 10% DE MULTA                                NAO RECEBER APOS 30 DIAS DO VENCIMENTO.                                                                                                                                                                                                         01062200000000000000106220000000000000       0090028004416120658953062214000033
100000000000000000000009002800441612000000000000000000000000010002100055975306221100000000002            2  01559753062210062200000000816740000000001N010622000000000000000000000000000000000000000000000000000000000000000100055975372887BENEVENUTO THEODORO DA SILVA NETO       RUA MONTE CASTELO - 296 AP.63 - AVIACAO             11702720                                                            000035
2SR. CAIXA, APOS O VENCIMENTO COBRAR 10% DE MULTA                                NAO RECEBER APOS 30 DIAS DO VENCIMENTO.                                                                                                                                                                                                         01062200000000000000106220000000000000       0090028004416120559753062211000036
9                                                                                                                                                                                                                                                                                                                                                                                                         000037