01REMESSA01COBRANCA       00000000000005316116AIRES CONSTRUTORA E INCORPORAD237BRADESCO       011020        MX0000152                                                                                                                                                                                                                                                                                     000001
100000000000000000000009002800441612000000000000000000000000010002100002252110201900000000002            2  01022521102024102000000000020000000000001N011020000000000000000000000000000000000000000000000000000000000000000100002252149892AIRES MOTA DOS SANTOS                   AVENIDA BRASIL - 600 - AVIACAO - PRAIA G            11701090                                                            000002
2SR. CAIXA, APOS O VENCIMENTO COBRAR 10% DE MULTA                                NAO RECEBER APOS 30 DIAS DO VENCIMENTO.                                                                                                                                                                                                         01102000000000000000110200000000000000       0090028004416120022521102019000003
9                                                                                                                                                                                                                                                                                                                                                                                                         000004