01REMESSA01COBRANCA       00000000000005331186HB SANTOS CONSTRUTORA E INCORP237BRADESCO       090223        MX0000066                                                                                                                                                                                                                                                                                     000001
100000000000000000000009033990000995400000000000000000000000010002020005723202231500000000002            2  01057232022323022300000002945910000000001N090223000000000000000000000000000000000000000000000000000000000000000100005723255843FRANCISCO DE ASSIS DA SILVA             PRACA NICOLAU GERAIGIRE - 25 VISOR - JAR            11095110                                                            000002
2SR. CAIXA, APOS O VENCIMENTO COBRAR 2% DE MULTA                                 NAO RECEBER APOS 30 DIAS DO VENCIMENTO.                                                                                                                                                                                                         09022300000000000000902230000000000000       0090339900009954057232022315000003
100000000000000000000009033990000995400000000000000000000000010002020004928102231P00000000002            2  01049281022323022300000002880870000000001N090223000000000000000000000000000000000000000000000000000000000000000100004928157800ADEMIR APARECIDO ANTUNES                RUA URUGUAI - 89 AP.105 - JARDIM GUILHER            11702300                                                            000005
2SR. CAIXA, APOS O VENCIMENTO COBRAR 2% DE MULTA                                 NAO RECEBER APOS 30 DIAS DO VENCIMENTO.                                                                                                                                                                                                         09022300000000000000902230000000000000       009033990000995404928102231P000006
100000000000000000000009033990000995400000000000000000000000010002020032589102231900000000002            2  01325891022323022300000002787450000000001N090223000000000000000000000000000000000000000000000000000000000000000100032589165862RENATA ISABEL MARTINS SILVA             RUA HERCULANO DE FREITAS - 257 - FUNDACA            09520280                                                            000008
2SR. CAIXA, APOS O VENCIMENTO COBRAR 2% DE MULTA                                 NAO RECEBER APOS 30 DIAS DO VENCIMENTO.                                                                                                                                                                                                         09022300000000000000902230000000000000       0090339900009954325891022319000009
100000000000000000000009033990000995400000000000000000000000010002020088339302231200000000002            2  01883393022323022300000002817670000000001N090223000000000000000000000000000000000000000000000000000000000000000100088339319868MARCIA SIQUEIRA MELLO                   RUA ADELINO ALVES - 81 - SANTO AMARO - S            04710120                                                            000011
2SR. CAIXA, APOS O VENCIMENTO COBRAR 2% DE MULTA                                 NAO RECEBER APOS 30 DIAS DO VENCIMENTO.                                                                                                                                                                                                         09022300000000000000902230000000000000       0090339900009954883393022312000012
100000000000000000000009033990000995400000000000000000000000010002020046391202231800000000002            2  01463912022323022300000002922960000000001N090223000000000000000000000000000000000000000000000000000000000000000100046391265810PAMELLA RODRIGUES DE OLIVEIRA           RUA AUGUSTA - 183 AP.301 BL.2A - VILA AU            07025130                                                            000014
2SR. CAIXA, APOS O VENCIMENTO COBRAR 2% DE MULTA                                 NAO RECEBER APOS 30 DIAS DO VENCIMENTO.                                                                                                                                                                                                         09022300000000000000902230000000000000       0090339900009954463912022318000015
100000000000000000000009033990000995400000000000000000000000010002020027964502231600000000002            2  01279645022323022300000002904220000000001N090223000000000000000000000000000000000000000000000000000000000000000100027964512838FABIO TADEU DE CAMPOS RADZIAVICIUS      RUA URUGUAI - 89 AP.94 - JARDIM GUILHERM            11702300                                                            000017
2SR. CAIXA, APOS O VENCIMENTO COBRAR 2% DE MULTA                                 NAO RECEBER APOS 30 DIAS DO VENCIMENTO.                                                                                                                                                                                                         09022300000000000000902230000000000000       0090339900009954279645022316000018
100000000000000000000009033990000995400000000000000000000000010002020027964502232400000000002            2  01279645022323022300000002904210000000001N090223000000000000000000000000000000000000000000000000000000000000000100027964512838FABIO TADEU DE CAMPOS RADZIAVICIUS      RUA URUGUAI - 89 AP.94 - JARDIM GUILHERM            11702300                                                            000020
2SR. CAIXA, APOS O VENCIMENTO COBRAR 2% DE MULTA                                 NAO RECEBER APOS 30 DIAS DO VENCIMENTO.                                                                                                                                                                                                         09022300000000000000902230000000000000       0090339900009954279645022324000021
100000000000000000000009033990000995400000000000000000000000010002020011498302231400000000002            2  01114983022323022300000002175890000000001N090223000000000000000000000000000000000000000000000000000000000000000100011498329837GERSON GERALDO DAS NEVES                RUA DOMINGOS DELGADO - 144 - VILA SOUZA             02881070                                                            000023
2SR. CAIXA, APOS O VENCIMENTO COBRAR 2% DE MULTA                                 NAO RECEBER APOS 30 DIAS DO VENCIMENTO.                                                                                                                                                                                                         09022300000000000000902230000000000000       0090339900009954114983022314000024
100000000000000000000009033990000995400000000000000000000000010002020025214402231000000000002            2  01252144022323022300000002575590000000001N090223000000000000000000000000000000000000000000000000000000000000000100025214401833JOSE MAURICIO DOS SANTOS RODRIGUES      RUA JOAO DE MACEDO RIBEIRO - 49 - VILA N            08111101                                                            000026
2SR. CAIXA, APOS O VENCIMENTO COBRAR 2% DE MULTA                                 NAO RECEBER APOS 30 DIAS DO VENCIMENTO.                                                                                                                                                                                                         09022300000000000000902230000000000000       0090339900009954252144022310000027
100000000000000000000009033990000995400000000000000000000000010002020033119102231800000000002            2  01331191022323022300000002586490000000001N090223000000000000000000000000000000000000000000000000000000000000000100033119178802HUGO GOMES VENDRAME                     RUA SAO PAULO - 60 CASA 01 - VILA FREITA            06380110                                                            000029
2SR. CAIXA, APOS O VENCIMENTO COBRAR 2% DE MULTA                                 NAO RECEBER APOS 30 DIAS DO VENCIMENTO.                                                                                                                                                                                                         09022300000000000000902230000000000000       0090339900009954331191022318000030
100000000000000000000009033990000995400000000000000000000000010002020016631502231000000000002            2  01166315022323022300000002631620000000001N090223000000000000000000000000000000000000000000000000000000000000000100016631587468GILBERTO BEZERRA DA SILVA               AVENIDA JAIME TORRES - 745 CASA 3 - JARD            03670000                                                            000032
2SR. CAIXA, APOS O VENCIMENTO COBRAR 2% DE MULTA                                 NAO RECEBER APOS 30 DIAS DO VENCIMENTO.                                                                                                                                                                                                         09022300000000000000902230000000000000       0090339900009954166315022310000033
100000000000000000000009033990000995400000000000000000000000010002020007313202231300000000002            2  01073132022323022300000002612930000000001N090223000000000000000000000000000000000000000000000000000000000000000100007313251840SALVADOR GESUALDO PULVIRENTI            AVENIDA MARARI - 641 - VILA MARARI - SAO            04402010                                                            000035
2SR. CAIXA, APOS O VENCIMENTO COBRAR 2% DE MULTA                                 NAO RECEBER APOS 30 DIAS DO VENCIMENTO.                                                                                                                                                                                                         09022300000000000000902230000000000000       0090339900009954073132022313000036
100000000000000000000009033990000995400000000000000000000000010002020010676702231500000000002            2  01106767022323022300000002727290000000001N090223000000000000000000000000000000000000000000000000000000000000000100010676723896MERCEDES CRISTINA ROCHA SANDOVAL        RUA URUGUAI - 89 AP.83 - JARDIM GUILHERM            11702300                                                            000038
2SR. CAIXA, APOS O VENCIMENTO COBRAR 2% DE MULTA                                 NAO RECEBER APOS 30 DIAS DO VENCIMENTO.                                                                                                                                                                                                         09022300000000000000902230000000000000       0090339900009954106767022315000039
100000000000000000000009033990000995400000000000000000000000010002020009502802231300000000002            2  01095028022323022300000002848200000000001N090223000000000000000000000000000000000000000000000000000000000000000100009502844831CLAUDIA ROCHA SANDOVAL                  RUA URUGUAI - 89 AP.64 - JARDIM GUILHERM            11702300                                                            000041
2SR. CAIXA, APOS O VENCIMENTO COBRAR 2% DE MULTA                                 NAO RECEBER APOS 30 DIAS DO VENCIMENTO.                                                                                                                                                                                                         09022300000000000000902230000000000000       0090339900009954095028022313000042
100000000000000000000009033990000995400000000000000000000000010002020007594202231200000000002            2  01075942022323022300000002556910000000001N090223000000000000000000000000000000000000000000000000000000000000000100007594247809JOSE LUIS DE OLIVEIRA                   DONA EGLANTINA PENTEADO DA SILVA PRADO -            13044162                                                            000044
2SR. CAIXA, APOS O VENCIMENTO COBRAR 2% DE MULTA                                 NAO RECEBER APOS 30 DIAS DO VENCIMENTO.                                                                                                                                                                                                         09022300000000000000902230000000000000       0090339900009954075942022312000045
100000000000000000000009033990000995400000000000000000000000010002020005288702231600000000002            2  01052887022323022300000002633870000000001N090223000000000000000000000000000000000000000000000000000000000000000100005288796858MARCELO RODRIGUES FERREIRA              RUA MARCOS ANTONIO MARQUES - 302 - JARDI            06433020                                                            000047
2SR. CAIXA, APOS O VENCIMENTO COBRAR 2% DE MULTA                                 NAO RECEBER APOS 30 DIAS DO VENCIMENTO.                                                                                                                                                                                                         09022300000000000000902230000000000000       0090339900009954052887022316000048
100000000000000000000009033990000995400000000000000000000000010002020015835902231500000000002            2  01158359022323022300000002742800000000001N090223000000000000000000000000000000000000000000000000000000000000000100015835992823FLAVIO VERONEZ                          RUA ANDREA PAULINETTI - 127 AP.42 - BAIR            04707050                                                            000050
2SR. CAIXA, APOS O VENCIMENTO COBRAR 2% DE MULTA                                 NAO RECEBER APOS 30 DIAS DO VENCIMENTO.                                                                                                                                                                                                         09022300000000000000902230000000000000       0090339900009954158359022315000051
100000000000000000000009033990000995400000000000000000000000010002020000438102231300000000002            2  01004381022323022300000003095860000000001N090223000000000000000000000000000000000000000000000000000000000000000100000438161858WAGNECY VILLA NOVA LIEN                 MACHADO - 106 - VILA AUGUSTA - GUARULHOS            07025210                                                            000053
2SR. CAIXA, APOS O VENCIMENTO COBRAR 2% DE MULTA                                 NAO RECEBER APOS 30 DIAS DO VENCIMENTO.                                                                                                                                                                                                         09022300000000000000902230000000000000       0090339900009954004381022313000054
100000000000000000000009033990000995400000000000000000000000010002020026004502231P00000000002            2  01260045022323022300000002742840000000001N090223000000000000000000000000000000000000000000000000000000000000000100026004595888EDIVALDO BEZERRA DA SILVA               AVENIDA GUATEMALA - 550 - JARDIM PINHEIR            09854750                                                            000056
2SR. CAIXA, APOS O VENCIMENTO COBRAR 2% DE MULTA                                 NAO RECEBER APOS 30 DIAS DO VENCIMENTO.                                                                                                                                                                                                         09022300000000000000902230000000000000       009033990000995426004502231P000057
100000000000000000000009033990000995400000000000000000000000010002020012470702231400000000002            2  01124707022323022300000002926410000000001N090223000000000000000000000000000000000000000000000000000000000000000100012470771870HILTON FERNANDES OLIVARES               RUA PATIO DA ESTACAO - 115 - BAIRRO CENT            09450000                                                            000059
2SR. CAIXA, APOS O VENCIMENTO COBRAR 2% DE MULTA                                 NAO RECEBER APOS 30 DIAS DO VENCIMENTO.                                                                                                                                                                                                         09022300000000000000902230000000000000       0090339900009954124707022314000060
100000000000000000000009033990000995400000000000000000000000010002020014025402231300000000002            2  01140254022323022300000003208730000000001N090223000000000000000000000000000000000000000000000000000000000000000100014025420899ANDREIA APARECIDA TAVARES BASTOS        RUA IBATIBA - 234 CASA 27 - RES.BOUGANVI            09220608                                                            000062
2SR. CAIXA, APOS O VENCIMENTO COBRAR 2% DE MULTA                                 NAO RECEBER APOS 30 DIAS DO VENCIMENTO.                                                                                                                                                                                                         09022300000000000000902230000000000000       0090339900009954140254022313000063
100000000000000000000009033990000995400000000000000000000000010002020018590002231200000000002            2  01185900022323022300000002905980000000001N090223000000000000000000000000000000000000000000000000000000000000000100018590038858JOSE SANDRO ROCHA SILVA                 RUA SANTO ANTONIO DO AVENTUREIRO - 216 A            07143040                                                            000065
2SR. CAIXA, APOS O VENCIMENTO COBRAR 2% DE MULTA                                 NAO RECEBER APOS 30 DIAS DO VENCIMENTO.                                                                                                                                                                                                         09022300000000000000902230000000000000       0090339900009954185900022312000066
100000000000000000000009033990000995400000000000000000000000010002020088578702231000000000002            2  01885787022323022300000002391210000000001N090223000000000000000000000000000000000000000000000000000000000000000100088578704800GILBERTO DO ESPIRITO SANTO SILVA        RUA URUGUAI - 89 AP.23 - JARDIM GUILHERM            11702300                                                            000068
2SR. CAIXA, APOS O VENCIMENTO COBRAR 2% DE MULTA                                 NAO RECEBER APOS 30 DIAS DO VENCIMENTO.                                                                                                                                                                                                         09022300000000000000902230000000000000       0090339900009954885787022310000069
100000000000000000000009033990000995400000000000000000000000010002020015378202231100000000002            2  01153782022323022300000003573150000000001N090223000000000000000000000000000000000000000000000000000000000000000100015378295807SERGIO FERNANDES                        RUA VALDEMAR MARTINS - 116 AP.115 - BAIR            02535000                                                            000071
2SR. CAIXA, APOS O VENCIMENTO COBRAR 2% DE MULTA                                 NAO RECEBER APOS 30 DIAS DO VENCIMENTO.                                                                                                                                                                                                         09022300000000000000902230000000000000       0090339900009954153782022311000072
100000000000000000000009033990000995400000000000000000000000010002020005105202231900000000002            2  01051052022323022300000002851800000000001N090223000000000000000000000000000000000000000000000000000000000000000100005105287835FABIO MOTTOLA DE OLIVEIRA               RUA RAUL MAZZONI - 133 - CHACARA AREAL -            13331022                                                            000074
2SR. CAIXA, APOS O VENCIMENTO COBRAR 2% DE MULTA                                 NAO RECEBER APOS 30 DIAS DO VENCIMENTO.                                                                                                                                                                                                         09022300000000000000902230000000000000       0090339900009954051052022319000075
100000000000000000000009033990000995400000000000000000000000010002020020792702231800000000002            2  01207927022323022300000002964830000000001N090223000000000000000000000000000000000000000000000000000000000000000120792791000147TROVAO COMERCIO DE ALIMENTOS LTDA-ME    RUA QUINTA DA MAGNOLIA - 67 - JARDIM IPA            03582100                                                            000077
2SR. CAIXA, APOS O VENCIMENTO COBRAR 2% DE MULTA                                 NAO RECEBER APOS 30 DIAS DO VENCIMENTO.                                                                                                                                                                                                         09022300000000000000902230000000000000       0090339900009954207927022318000078
100000000000000000000009033990000995400000000000000000000000010002020007648102231100000000002            2  01076481022323022300000002783990000000001N090223000000000000000000000000000000000000000000000000000000000000000100007648112825MARA REGINA CAPRIO                      RUA DA TRINDADE - 790 - VILA IDEAL - SAO            15060280                                                            000080
2SR. CAIXA, APOS O VENCIMENTO COBRAR 2% DE MULTA                                 NAO RECEBER APOS 30 DIAS DO VENCIMENTO.                                                                                                                                                                                                         09022300000000000000902230000000000000       0090339900009954076481022311000081
100000000000000000000009033990000995400000000000000000000000010002020031157402231000000000002            2  01311574022323022300000002989320000000001N090223000000000000000000000000000000000000000000000000000000000000000100031157420885TALITA ANICHIARICO COSSI                RUA CNEO POMPEO DE CAMARGO - 817 - JARDI            13060150                                                            000083
2SR. CAIXA, APOS O VENCIMENTO COBRAR 2% DE MULTA                                 NAO RECEBER APOS 30 DIAS DO VENCIMENTO.                                                                                                                                                                                                         09022300000000000000902230000000000000       0090339900009954311574022310000084
100000000000000000000009033990000995400000000000000000000000010002020035572502231500000000002            2  01355725022323022300000003178340000000001N090223000000000000000000000000000000000000000000000000000000000000000100035572536865MARIA SIMONE SANTOS                     RUA JOSE PEZZOLO - 68 - VILA ELDIZIA - S            09181660                                                            000086
2SR. CAIXA, APOS O VENCIMENTO COBRAR 2% DE MULTA                                 NAO RECEBER APOS 30 DIAS DO VENCIMENTO.                                                                                                                                                                                                         09022300000000000000902230000000000000       0090339900009954355725022315000087
100000000000000000000009033990000995400000000000000000000000010002020008800302231200000000002            2  01088003022323022300000002895880000000001N090223000000000000000000000000000000000000000000000000000000000000000100008800368425INGO DIMITRI PEREIRA DA NOBREGA         RUA PROFESSOR MENDES PIMENTEL - 362 - JA            03973010                                                            000089
2SR. CAIXA, APOS O VENCIMENTO COBRAR 2% DE MULTA                                 NAO RECEBER APOS 30 DIAS DO VENCIMENTO.                                                                                                                                                                                                         09022300000000000000902230000000000000       0090339900009954088003022312000090
100000000000000000000009033990000995400000000000000000000000010002020005054102231700000000002            2  01050541022323022300000002802470000000001N090223000000000000000000000000000000000000000000000000000000000000000100005054169806PAULO ROBERTO DE MATTOS                 JARDIM BOTANICO - 849 - DISTRITO DE SOUS            13106258                                                            000092
2SR. CAIXA, APOS O VENCIMENTO COBRAR 2% DE MULTA                                 NAO RECEBER APOS 30 DIAS DO VENCIMENTO.                                                                                                                                                                                                         09022300000000000000902230000000000000       0090339900009954050541022317000093
100000000000000000000009033990000995400000000000000000000000010002020007552102231300000000002            2  01075521022323022300000002802470000000001N090223000000000000000000000000000000000000000000000000000000000000000100007552151846MAURO BORDONI                           AVENIDA DR. AUGUSTO DE TOLEDO - 769 AP.6            09540080                                                            000095
2SR. CAIXA, APOS O VENCIMENTO COBRAR 2% DE MULTA                                 NAO RECEBER APOS 30 DIAS DO VENCIMENTO.                                                                                                                                                                                                         09022300000000000000902230000000000000       0090339900009954075521022313000096
100000000000000000000009033990000995400000000000000000000000010002020012744202231600000000002            2  01127442022323022300000003118170000000001N090223000000000000000000000000000000000000000000000000000000000000000100012744201804ADAIL JOSE DE SOUSA                     RUA ROSARIA - 303 - BAIRRO SACADURA CABR            09061080                                                            000098
2SR. CAIXA, APOS O VENCIMENTO COBRAR 2% DE MULTA                                 NAO RECEBER APOS 30 DIAS DO VENCIMENTO.                                                                                                                                                                                                         09022300000000000000902230000000000000       0090339900009954127442022316000099
100000000000000000000009033990000995400000000000000000000000010002020068320602231300000000002            2  01683206022323022300000011042940000000001N090223000000000000000000000000000000000000000000000000000000000000000100068320663849ANTONIO CAVALCANTE LIMA                 RUA AMAZONAS - 1188 - CENTRO - SAO CAETA            09540201                                                            000101
2SR. CAIXA, APOS O VENCIMENTO COBRAR 2% DE MULTA                                 NAO RECEBER APOS 30 DIAS DO VENCIMENTO.                                                                                                                                                                                                         09022300000000000000902230000000000000       0090339900009954683206022313000102
100000000000000000000009033990000995400000000000000000000000010002020088926202231500000000002            2  01889262022323022300000002319850000000001N090223000000000000000000000000000000000000000000000000000000000000000100088926230872VALDEMAR LATANCE FILHO                  RUA MELO PINTO DA SILVA - 111 CASA 103 -            18116265                                                            000104
2SR. CAIXA, APOS O VENCIMENTO COBRAR 2% DE MULTA                                 NAO RECEBER APOS 30 DIAS DO VENCIMENTO.                                                                                                                                                                                                         09022300000000000000902230000000000000       0090339900009954889262022315000105
100000000000000000000009033990000995400000000000000000000000010002020004195302231200000000002            2  01041953022323022300000003027790000000001N090223000000000000000000000000000000000000000000000000000000000000000100004195345804LUIZ CARLOS SILVESTRE                   RUA CONDE VICENTE AZEVEDO - 377 - BAIRRO            04264000                                                            000107
2SR. CAIXA, APOS O VENCIMENTO COBRAR 2% DE MULTA                                 NAO RECEBER APOS 30 DIAS DO VENCIMENTO.                                                                                                                                                                                                         09022300000000000000902230000000000000       0090339900009954041953022312000108
9                                                                                                                                                                                                                                                                                                                                                                                                         000109