01REMESSA01COBRANCA       00000000000005316116AIRES CONSTRUTORA E INCORPORAD237BRADESCO       010822        MX0000199                                                                                                                                                                                                                                                                                     000001
100000000000000000000009002800441612000000000000000000000000010002100025215108221300000000002            2  01252151082210082200000003100300000000001N010822000000000000000000000000000000000000000000000000000000000000000100025215106886KLEBER LUIZ DOS SANTOS                  RUA MONTE CASTELO - 262 AP.15 - AVIACAO             11702720                                                            000002
2SR. CAIXA, APOS O VENCIMENTO COBRAR 10% DE MULTA                                NAO RECEBER APOS 30 DIAS DO VENCIMENTO.                                                                                                                                                                                                         01082200000000000000108220000000000000       0090028004416120252151082213000003
100000000000000000000009002800441612000000000000000000000000010002100029150708221900000000002            2  01291507082210082200000004053400000000001N010822000000000000000000000000000000000000000000000000000000000000000100029150742833ANA DEISE SANTOS DE ALMEIDA             RUA MONTE CASTELO - 296 AP.121 - AVIACAO            11702720                                                            000005
2SR. CAIXA, APOS O VENCIMENTO COBRAR 10% DE MULTA                                NAO RECEBER APOS 30 DIAS DO VENCIMENTO.                                                                                                                                                                                                         01082200000000000000108220000000000000       0090028004416120291507082219000006
100000000000000000000009002800441612000000000000000000000000010002100000811708221400000000002            2  01008117082210082200000003338730000000001N010822000000000000000000000000000000000000000000000000000000000000000100000811752801SERGIO BUENO DA SILVA                   RUA MONTE CASTELO - 262 AP.75 - AVIACAO             11702720                                                            000008
2SR. CAIXA, APOS O VENCIMENTO COBRAR 10% DE MULTA                                NAO RECEBER APOS 30 DIAS DO VENCIMENTO.                                                                                                                                                                                                         01082200000000000000108220000000000000       0090028004416120008117082214000009
100000000000000000000009002800441612000000000000000000000000010002100018344808221000000000002            2  01183448082210082200000004539840000000001N010822000000000000000000000000000000000000000000000000000000000000000100018344803888MARCELO BERNARDO                        RUA MONTE CASTELO - 262 AP.84 - AVIACAO             11702720                                                            000011
2SR. CAIXA, APOS O VENCIMENTO COBRAR 10% DE MULTA                                NAO RECEBER APOS 30 DIAS DO VENCIMENTO.                                                                                                                                                                                                         01082200000000000000108220000000000000       0090028004416120183448082210000012
100000000000000000000009002800441612000000000000000000000000010002100031803808221600000000002            2  01318038082210082200000003666150000000001N010822000000000000000000000000000000000000000000000000000000000000000100031803864877ELEILSON FELIPPE SANTOS                 RUA SANTA GREGORIA - 193 - CIDADE DUTRA             04806030                                                            000014
2SR. CAIXA, APOS O VENCIMENTO COBRAR 10% DE MULTA                                NAO RECEBER APOS 30 DIAS DO VENCIMENTO.                                                                                                                                                                                                         01082200000000000000108220000000000000       0090028004416120318038082216000015
100000000000000000000009002800441612000000000000000000000000010002100063064508221000000000002            2  01630645082210082200000004368860000000001N010822000000000000000000000000000000000000000000000000000000000000000100063064537849ANTONIO APARECIDO DA SILVA DESTEFANO    RUA PROFESSOR TEODORO BRAGA - 46 - VILA             02966020                                                            000017
2SR. CAIXA, APOS O VENCIMENTO COBRAR 10% DE MULTA                                NAO RECEBER APOS 30 DIAS DO VENCIMENTO.                                                                                                                                                                                                         01082200000000000000108220000000000000       0090028004416120630645082210000018
100000000000000000000009002800441612000000000000000000000000010002100005920508221P00000000002            2  01059205082210082200000002543580000000001N010822000000000000000000000000000000000000000000000000000000000000000100005920579846SONIA MARIA VALDO POLLO                 RUA PALMIRA CERVI BARBARO - 797 - CIDADE            13214370                                                            000020
2SR. CAIXA, APOS O VENCIMENTO COBRAR 10% DE MULTA                                NAO RECEBER APOS 30 DIAS DO VENCIMENTO.                                                                                                                                                                                                         01082200000000000000108220000000000000       009002800441612005920508221P000021
100000000000000000000009002800441612000000000000000000000000010002100002494108221000000000002            2  01024941082210082200000003824380000000001N010822000000000000000000000000000000000000000000000000000000000000000100002494107881CIRO FRANCISCO MARCHI DURIGON           RUA MONTE CASTELO - 262 AP.115 - AVIACAO            11702720                                                            000023
2SR. CAIXA, APOS O VENCIMENTO COBRAR 10% DE MULTA                                NAO RECEBER APOS 30 DIAS DO VENCIMENTO.                                                                                                                                                                                                         01082200000000000000108220000000000000       0090028004416120024941082210000024
100000000000000000000009002800441612000000000000000000000000010002100016299008221100000000002            2  01162990082210082200000003624200000000001N010822000000000000000000000000000000000000000000000000000000000000000100016299008857FERNANDO CESAR CARVALHO                 AVENIDA MARCONDES DE BRITO - 1340 AP.74             03509000                                                            000026
2SR. CAIXA, APOS O VENCIMENTO COBRAR 10% DE MULTA                                NAO RECEBER APOS 30 DIAS DO VENCIMENTO.                                                                                                                                                                                                         01082200000000000000108220000000000000       0090028004416120162990082211000027
100000000000000000000009002800441612000000000000000000000000010002100055975308221200000000002            2  01559753082210082200000000827630000000001N010822000000000000000000000000000000000000000000000000000000000000000100055975372887BENEVENUTO THEODORO DA SILVA NETO       RUA MONTE CASTELO - 296 AP.63 - AVIACAO             11702720                                                            000029
2SR. CAIXA, APOS O VENCIMENTO COBRAR 10% DE MULTA                                NAO RECEBER APOS 30 DIAS DO VENCIMENTO.                                                                                                                                                                                                         01082200000000000000108220000000000000       0090028004416120559753082212000030
9                                                                                                                                                                                                                                                                                                                                                                                                         000031