01REMESSA01COBRANCA       00000000000005316116AIRES CONSTRUTORA E INCORPORAD237BRADESCO       230920        MX0000151                                                                                                                                                                                                                                                                                     000001
100000000000000000000009002800441612000000000000000000000000010002100002252109201300000000002            2  01022521092024092000000000020000000000001N230920000000000000000000000000000000000000000000000000000000000000000100002252149892AIRES MOTA DOS SANTOS                   AVENIDA BRASIL - 600 - AVIACAO - PRAIA G            11701090                                                            000002
2SR. CAIXA, APOS O VENCIMENTO COBRAR 10% DE MULTA                                NAO RECEBER APOS 30 DIAS DO VENCIMENTO.                                                                                                                                                                                                         23092000000000000002309200000000000000       0090028004416120022521092013000003
9                                                                                                                                                                                                                                                                                                                                                                                                         000004