01REMESSA01COBRANCA       00000000000008017025HB SANTOS CONSTRUTORA E INCORP237BRADESCO       090124        MX0000194                                                                                                                                                                                                                                                                                     000001
100000000000000000000009033990000627000000000000000000000000010002020025035101241100000000002            2  01250351012424012400000003217330000000001N090124000000000000000000000000000000000000000000000000000000000000000100025035170802WANDERSON LUIS DE CARVALHO              RUA JOAQUIM GONCALVES ROCHA - 302 - JARD            02859030                                                            000002
2SR. CAIXA, APOS O VENCIMENTO COBRAR 2% DE MULTA                                 NAO RECEBER APOS 30 DIAS DO VENCIMENTO.                                                                                                                                                                                                         09012400000000000000901240000000000000       0090339900006270250351012411000003
100000000000000000000009033990000627000000000000000000000000010002020007294301241900000000002            2  01072943012424012400000004327320000000001N090124000000000000000000000000000000000000000000000000000000000000000100007294351805CLAUDENIR APARECIDO VACARI              RUA CARLOS JOSE BORSTENS - 50 AP.93 - AV            11702750                                                            000005
2SR. CAIXA, APOS O VENCIMENTO COBRAR 2% DE MULTA                                 NAO RECEBER APOS 30 DIAS DO VENCIMENTO.                                                                                                                                                                                                         09012400000000000000901240000000000000       0090339900006270072943012419000006
100000000000000000000009033990000627000000000000000000000000010002020002841701241300000000002            2  01028417012424012400000003972410000000001N090124000000000000000000000000000000000000000000000000000000000000000100002841756416LUCIANA PINHEIRO DE ASSIS NUNES         RUA RIO ACIMA - 81 - RIACHO GRANDE - SAO            09830100                                                            000008
2SR. CAIXA, APOS O VENCIMENTO COBRAR 2% DE MULTA                                 NAO RECEBER APOS 30 DIAS DO VENCIMENTO.                                                                                                                                                                                                         09012400000000000000901240000000000000       0090339900006270028417012413000009
100000000000000000000009033990000627000000000000000000000000010002020084302001241200000000002            2  01843020012424012400000003991470000000001N090124000000000000000000000000000000000000000000000000000000000000000100084302097868FAUSTO TADEU VILOR                      RUA ANTONIO TAVARES - 466 - BAIRRO CAMBU            01542010                                                            000011
2SR. CAIXA, APOS O VENCIMENTO COBRAR 2% DE MULTA                                 NAO RECEBER APOS 30 DIAS DO VENCIMENTO.                                                                                                                                                                                                         09012400000000000000901240000000000000       0090339900006270843020012412000012
100000000000000000000009033990000627000000000000000000000000010002020000991701241500000000002            2  01009917012424012400000003827700000000001N090124000000000000000000000000000000000000000000000000000000000000000100000991748808JAILSON BORGES DE ANDRADE               RUA IPIOBUNA - 45 - JARDIM CUMBICA - GUA            07240040                                                            000014
2SR. CAIXA, APOS O VENCIMENTO COBRAR 2% DE MULTA                                 NAO RECEBER APOS 30 DIAS DO VENCIMENTO.                                                                                                                                                                                                         09012400000000000000901240000000000000       0090339900006270009917012415000015
100000000000000000000009033990000627000000000000000000000000010002020022151601241100000000002            2  01221516012424012400000003805470000000001N090124000000000000000000000000000000000000000000000000000000000000000100022151666816SAMIR LIMA DE ARAUJO                    AVENIDA GUARAPIRANGA - 2616 AP.131 BL.14            04902005                                                            000017
2SR. CAIXA, APOS O VENCIMENTO COBRAR 2% DE MULTA                                 NAO RECEBER APOS 30 DIAS DO VENCIMENTO.                                                                                                                                                                                                         09012400000000000000901240000000000000       0090339900006270221516012411000018
100000000000000000000009033990000627000000000000000000000000010002020022313101241300000000002            2  01223131012426012400000002928550000000001N090124000000000000000000000000000000000000000000000000000000000000000100022313116824ROSA MARIA BRITO DA SILVA               RUA JOSE CALIXTO DO CARMO - 286 AP.41 -             11702690                                                            000020
2SR. CAIXA, APOS O VENCIMENTO COBRAR 2% DE MULTA                                 NAO RECEBER APOS 30 DIAS DO VENCIMENTO.                                                                                                                                                                                                         09012400000000000000901240000000000000       0090339900006270223131012413000021
100000000000000000000009033990000627000000000000000000000000010002020027538001241500000000002            2  01275380012426012400000002938740000000001N090124000000000000000000000000000000000000000000000000000000000000000100027538087249MARA LUCIA MENEZES DA COSTA             RUA LEILA  - 183 - ITAQUERA - SAO PAULO             08240020                                                            000023
2SR. CAIXA, APOS O VENCIMENTO COBRAR 2% DE MULTA                                 NAO RECEBER APOS 30 DIAS DO VENCIMENTO.                                                                                                                                                                                                         09012400000000000000901240000000000000       0090339900006270275380012415000024
100000000000000000000009033990000627000000000000000000000000010002020031278401241100000000002            2  01312784012424012400000003676180000000001N090124000000000000000000000000000000000000000000000000000000000000000100031278411836JEFFERSON DE PIERI PIRES ZAMUNER        RUA MANOEL ARCE - 277 - PARQUE BANCARIO             03922150                                                            000026
2SR. CAIXA, APOS O VENCIMENTO COBRAR 2% DE MULTA                                 NAO RECEBER APOS 30 DIAS DO VENCIMENTO.                                                                                                                                                                                                         09012400000000000000901240000000000000       0090339900006270312784012411000027
100000000000000000000009033990000627000000000000000000000000010002020019185701241300000000002            2  01191857012426012400000002674370000000001N090124000000000000000000000000000000000000000000000000000000000000000100019185769800AGUINALDO PESSOA DE LIMA                RUA JANUARIO ZINGARO - 252 AP.303 BL.04             05794300                                                            000029
2SR. CAIXA, APOS O VENCIMENTO COBRAR 2% DE MULTA                                 NAO RECEBER APOS 30 DIAS DO VENCIMENTO.                                                                                                                                                                                                         09012400000000000000901240000000000000       0090339900006270191857012413000030
100000000000000000000009033990000627000000000000000000000000010002020033303601241400000000002            2  01333036012426012400000002880480000000001N090124000000000000000000000000000000000000000000000000000000000000000100033303645809JESSICA DA SILVA FREITAS                RUA ARILDO VALADAO - 120 - JARDIM GUAEMB            04814600                                                            000032
2SR. CAIXA, APOS O VENCIMENTO COBRAR 2% DE MULTA                                 NAO RECEBER APOS 30 DIAS DO VENCIMENTO.                                                                                                                                                                                                         09012400000000000000901240000000000000       0090339900006270333036012414000033
100000000000000000000009033990000627000000000000000000000000010002020006422601241P00000000002            2  01064226012424012400000003981410000000001N090124000000000000000000000000000000000000000000000000000000000000000100006422607881GERALDO ALVES DA SILVA                  RUA CARLOS JOSE BORSTENS - 50 AP.14 - AV            11702750                                                            000035
2SR. CAIXA, APOS O VENCIMENTO COBRAR 2% DE MULTA                                 NAO RECEBER APOS 30 DIAS DO VENCIMENTO.                                                                                                                                                                                                         09012400000000000000901240000000000000       009033990000627006422601241P000036
100000000000000000000009033990000627000000000000000000000000010002020033877101241100000000002            2  01338771012426012400000002700540000000001N090124000000000000000000000000000000000000000000000000000000000000000100033877129870HELDER FERREIRA VIANA                   RUA JOSE CALIXTO DO CARMO - 286 AP.35 -             11702690                                                            000038
2SR. CAIXA, APOS O VENCIMENTO COBRAR 2% DE MULTA                                 NAO RECEBER APOS 30 DIAS DO VENCIMENTO.                                                                                                                                                                                                         09012400000000000000901240000000000000       0090339900006270338771012411000039
100000000000000000000009033990000627000000000000000000000000010002020087573001241000000000002            2  01875730012426012400000002717860000000001N090124000000000000000000000000000000000000000000000000000000000000000100087573059604VANDERLEY DE ASSIS                      RUA ROMEU ALBANI - 268 - JARDIM PARQUE R            13803810                                                            000041
2SR. CAIXA, APOS O VENCIMENTO COBRAR 2% DE MULTA                                 NAO RECEBER APOS 30 DIAS DO VENCIMENTO.                                                                                                                                                                                                         09012400000000000000901240000000000000       0090339900006270875730012410000042
100000000000000000000009033990000627000000000000000000000000010002020010825501241800000000002            2  01108255012426012400000002836210000000001N090124000000000000000000000000000000000000000000000000000000000000000100010825513847JOSE APARECIDO PEREIRA                  RUA GENERAL OSORIO - 305 - JARDIM TRINTA            11515130                                                            000044
2SR. CAIXA, APOS O VENCIMENTO COBRAR 2% DE MULTA                                 NAO RECEBER APOS 30 DIAS DO VENCIMENTO.                                                                                                                                                                                                         09012400000000000000901240000000000000       0090339900006270108255012418000045
100000000000000000000009033990000627000000000000000000000000010002020039115101241P00000000002            2  01391151012426012400000003496150000000001N090124000000000000000000000000000000000000000000000000000000000000000100039115139840LAIS CRISTINA RIBEIRO ANDO              RUA JOSE CALIXTO DO CARMO - 286 AP.65 -             11702690                                                            000047
2SR. CAIXA, APOS O VENCIMENTO COBRAR 2% DE MULTA                                 NAO RECEBER APOS 30 DIAS DO VENCIMENTO.                                                                                                                                                                                                         09012400000000000000901240000000000000       009033990000627039115101241P000048
100000000000000000000009033990000627000000000000000000000000010002020000593201241800000000002            2  01005932012424012400000004285980000000001N090124000000000000000000000000000000000000000000000000000000000000000100000593293860WALTER HELIO BARBOSA FILHO              AVENIDA ANTONIO FREDERICO OZANAN - 9500             13214206                                                            000050
2SR. CAIXA, APOS O VENCIMENTO COBRAR 2% DE MULTA                                 NAO RECEBER APOS 30 DIAS DO VENCIMENTO.                                                                                                                                                                                                         09012400000000000000901240000000000000       0090339900006270005932012418000051
100000000000000000000009033990000627000000000000000000000000010002020006684601241200000000002            2  01066846012426012400000002880180000000001N090124000000000000000000000000000000000000000000000000000000000000000100006684623884LAUDINOR VIEIRA GARCIA                  RUA CANDIDO SALES - 374 - JARDIM PRESIDE            07172000                                                            000053
2SR. CAIXA, APOS O VENCIMENTO COBRAR 2% DE MULTA                                 NAO RECEBER APOS 30 DIAS DO VENCIMENTO.                                                                                                                                                                                                         09012400000000000000901240000000000000       0090339900006270066846012412000054
100000000000000000000009033990000627000000000000000000000000010002020011663501241300000000002            2  01116635012426012400000002900870000000001N090124000000000000000000000000000000000000000000000000000000000000000100011663589844MARIA SAVIO QUARELLO                    AVENIDA MENDONCA DRUMOND - 321 - JARDIM             03524030                                                            000056
2SR. CAIXA, APOS O VENCIMENTO COBRAR 2% DE MULTA                                 NAO RECEBER APOS 30 DIAS DO VENCIMENTO.                                                                                                                                                                                                         09012400000000000000901240000000000000       0090339900006270116635012413000057
100000000000000000000009033990000627000000000000000000000000010002020010083801241500000000002            2  01100838012426012400000002802720000000001N090124000000000000000000000000000000000000000000000000000000000000000100010083824855IONE FERREIRA COUTO DA SILVA            RUA JOSE RAGEL DE MESQUITA - 60 CS.01 -             07799999                                                            000059
2SR. CAIXA, APOS O VENCIMENTO COBRAR 2% DE MULTA                                 NAO RECEBER APOS 30 DIAS DO VENCIMENTO.                                                                                                                                                                                                         09012400000000000000901240000000000000       0090339900006270100838012415000060
100000000000000000000009033990000627000000000000000000000000010002020031010701241000000000002            2  01310107012426012400000002750370000000001N090124000000000000000000000000000000000000000000000000000000000000000100031010705890ANDRE GONZALEZ RABELLO                  RUA PARAIBA - 106 AP.61 - POMPEIA - SANT            11065470                                                            000062
2SR. CAIXA, APOS O VENCIMENTO COBRAR 2% DE MULTA                                 NAO RECEBER APOS 30 DIAS DO VENCIMENTO.                                                                                                                                                                                                         09012400000000000000901240000000000000       0090339900006270310107012410000063
100000000000000000000009033990000627000000000000000000000000010002020005351001241P00000000002            2  01053510012426012400000002578740000000001N090124000000000000000000000000000000000000000000000000000000000000000100005351015897VALERIA ALVES MARCOLINO HINNIGER        RUA JOSE CALIXTO DO CARMO - 286 AP.92 -             11702690                                                            000065
2SR. CAIXA, APOS O VENCIMENTO COBRAR 2% DE MULTA                                 NAO RECEBER APOS 30 DIAS DO VENCIMENTO.                                                                                                                                                                                                         09012400000000000000901240000000000000       009033990000627005351001241P000066
100000000000000000000009033990000627000000000000000000000000010002020031898701241500000000002            2  01318987012424012400000004100990000000001N090124000000000000000000000000000000000000000000000000000000000000000100031898775800ANITA MARTINS COLOMBO                   RUA CARLOS JOSE BORSTENS - 50 AP.115 - A            11702750                                                            000068
2SR. CAIXA, APOS O VENCIMENTO COBRAR 2% DE MULTA                                 NAO RECEBER APOS 30 DIAS DO VENCIMENTO.                                                                                                                                                                                                         09012400000000000000901240000000000000       0090339900006270318987012415000069
100000000000000000000009033990000627000000000000000000000000010002020037983401241500000000002            2  01379834012426012400000003029230000000001N090124000000000000000000000000000000000000000000000000000000000000000100037983484801JOSE ERIVALDO SOUZA DO NASCIMENTO RAMOS RUA LETICIA - 250 - JARDIM GUARUJA - SAO            05877260                                                            000071
2SR. CAIXA, APOS O VENCIMENTO COBRAR 2% DE MULTA                                 NAO RECEBER APOS 30 DIAS DO VENCIMENTO.                                                                                                                                                                                                         09012400000000000000901240000000000000       0090339900006270379834012415000072
100000000000000000000009033990000627000000000000000000000000010002020056289201241600000000002            2  01562892012426012400000002288390000000001N090124000000000000000000000000000000000000000000000000000000000000000100056289286900PEDRO RIBEIRO                           RUA CONEGO MANOEL VAZ - 48 - SANTANA - S            02019050                                                            000074
2SR. CAIXA, APOS O VENCIMENTO COBRAR 2% DE MULTA                                 NAO RECEBER APOS 30 DIAS DO VENCIMENTO.                                                                                                                                                                                                         09012400000000000000901240000000000000       0090339900006270562892012416000075
100000000000000000000009033990000627000000000000000000000000010002020034812201241600000000002            2  01348122012424012400000005427850000000001N090124000000000000000000000000000000000000000000000000000000000000000100034812226880THAIS TORQUATO MIMOSO DE JESUS          RUA ARNALDO CINTRA - 416 AP.104 TORRE 2             03088000                                                            000077
2SR. CAIXA, APOS O VENCIMENTO COBRAR 2% DE MULTA                                 NAO RECEBER APOS 30 DIAS DO VENCIMENTO.                                                                                                                                                                                                         09012400000000000000901240000000000000       0090339900006270348122012416000078
100000000000000000000009033990000627000000000000000000000000010002020012849401241200000000002            2  01128494012426012400000005410620000000001N090124000000000000000000000000000000000000000000000000000000000000000100012849428809MOISES CLAUDIO DO ROSARIO               AVENIDA DR. AUGUSTO DE TOLEDO - 510 AP.1            09541520                                                            000080
2SR. CAIXA, APOS O VENCIMENTO COBRAR 2% DE MULTA                                 NAO RECEBER APOS 30 DIAS DO VENCIMENTO.                                                                                                                                                                                                         09012400000000000000901240000000000000       0090339900006270128494012412000081
100000000000000000000009033990000627000000000000000000000000010002020014087401241500000000002            2  01140874012426012400000002987190000000001N090124000000000000000000000000000000000000000000000000000000000000000100014087484874SERGIO SANTOS DO NASCIMENTO             RUA JOSE CALIXTO DO CARMO - 286 AP.52 -             11702690                                                            000083
2SR. CAIXA, APOS O VENCIMENTO COBRAR 2% DE MULTA                                 NAO RECEBER APOS 30 DIAS DO VENCIMENTO.                                                                                                                                                                                                         09012400000000000000901240000000000000       0090339900006270140874012415000084
100000000000000000000009033990000627000000000000000000000000010002020026834501241400000000002            2  01268345012426012400000002752350000000001N090124000000000000000000000000000000000000000000000000000000000000000100026834550895RAQUEL CARDOSO JOAO                     RUA PEDROSO XAVIER - 277 AP.23 TORRE 01             02732020                                                            000086
2SR. CAIXA, APOS O VENCIMENTO COBRAR 2% DE MULTA                                 NAO RECEBER APOS 30 DIAS DO VENCIMENTO.                                                                                                                                                                                                         09012400000000000000901240000000000000       0090339900006270268345012414000087
100000000000000000000009033990000627000000000000000000000000010002020039540001241200000000002            2  01395400012426012400000002705930000000001N090124000000000000000000000000000000000000000000000000000000000000000100039540008816LUZINETE CLARINDO SILVA                 RUA DEINOS - 275 - BAIRRO CIDADE SATELIT            08340100                                                            000089
2SR. CAIXA, APOS O VENCIMENTO COBRAR 2% DE MULTA                                 NAO RECEBER APOS 30 DIAS DO VENCIMENTO.                                                                                                                                                                                                         09012400000000000000901240000000000000       0090339900006270395400012412000090
100000000000000000000009033990000627000000000000000000000000010002020003311001241P00000000002            2  01033110012426012400000002817930000000001N090124000000000000000000000000000000000000000000000000000000000000000100003311030877SEBASTIAO SARUVA NETO                   RUA HAMILTON REGIS - 559 - BAIRRO DO LIM            08051440                                                            000092
2SR. CAIXA, APOS O VENCIMENTO COBRAR 2% DE MULTA                                 NAO RECEBER APOS 30 DIAS DO VENCIMENTO.                                                                                                                                                                                                         09012400000000000000901240000000000000       009033990000627003311001241P000093
100000000000000000000009033990000627000000000000000000000000010002020090091901241600000000002            2  01900919012426012400000002693510000000001N090124000000000000000000000000000000000000000000000000000000000000000100090091990882JUECIR CARVALHO DA LUZ                  RUA JOSE CALIXTO DO CARMO - 286 AP.114 -            11702690                                                            000095
2SR. CAIXA, APOS O VENCIMENTO COBRAR 2% DE MULTA                                 NAO RECEBER APOS 30 DIAS DO VENCIMENTO.                                                                                                                                                                                                         09012400000000000000901240000000000000       0090339900006270900919012416000096
100000000000000000000009033990000627000000000000000000000000010002020012478801241500000000002            2  01124788012424012400000004011270000000001N090124000000000000000000000000000000000000000000000000000000000000000100012478899809VITORIA BATISTA QUEIROZ                 RUA CARVALHO DE FREITAS - 255 AP.71A - V            05728030                                                            000098
2SR. CAIXA, APOS O VENCIMENTO COBRAR 2% DE MULTA                                 NAO RECEBER APOS 30 DIAS DO VENCIMENTO.                                                                                                                                                                                                         09012400000000000000901240000000000000       0090339900006270124788012415000099
100000000000000000000009033990000627000000000000000000000000010002020013184801241600000000002            2  01131848012426012400000002662880000000001N090124000000000000000000000000000000000000000000000000000000000000000100013184856810SYDNEY HENRIQUE GAMARANO JUNIOR         RUA JOSE CALIXTO DO CARMO - 286 AP.125 -            11702690                                                            000101
2SR. CAIXA, APOS O VENCIMENTO COBRAR 2% DE MULTA                                 NAO RECEBER APOS 30 DIAS DO VENCIMENTO.                                                                                                                                                                                                         09012400000000000000901240000000000000       0090339900006270131848012416000102
100000000000000000000009033990000627000000000000000000000000010002020097989901241P00000000002            2  01979899012426012400000001850520000000001N090124000000000000000000000000000000000000000000000000000000000000000100097989924820NELSON LUIS BERRIBILLE                  RUA SILVEIRA IGNACIO SOBRINHO - 965 - VI            13560294                                                            000104
2SR. CAIXA, APOS O VENCIMENTO COBRAR 2% DE MULTA                                 NAO RECEBER APOS 30 DIAS DO VENCIMENTO.                                                                                                                                                                                                         09012400000000000000901240000000000000       009033990000627097989901241P000105
100000000000000000000009033990000627000000000000000000000000010002020032341801241900000000002            2  01323418012424012400000004166600000000001N090124000000000000000000000000000000000000000000000000000000000000000100032341847803PRISCILA ALVES DE FRANCA MIRANDA        RUA CARLOS JOSE BORSTENS - 50 AP.91 - AV            11702750                                                            000107
2SR. CAIXA, APOS O VENCIMENTO COBRAR 2% DE MULTA                                 NAO RECEBER APOS 30 DIAS DO VENCIMENTO.                                                                                                                                                                                                         09012400000000000000901240000000000000       0090339900006270323418012419000108
100000000000000000000009033990000627000000000000000000000000010002020016050601241400000000002            2  01160506012424012400000003867400000000001N090124000000000000000000000000000000000000000000000000000000000000000100016050684898ANDRE RODRIGUES DE OLIVEIRA             RUA CORACAO PAULISTA - 14 - FAZENDA ITAI            08132430                                                            000110
2SR. CAIXA, APOS O VENCIMENTO COBRAR 2% DE MULTA                                 NAO RECEBER APOS 30 DIAS DO VENCIMENTO.                                                                                                                                                                                                         09012400000000000000901240000000000000       0090339900006270160506012414000111
100000000000000000000009033990000627000000000000000000000000010002020021464901241800000000002            2  01214649012424012400000006095110000000001N090124000000000000000000000000000000000000000000000000000000000000000100021464965846ANDREA APARECIDA DE OLIVEIRA PECCI      RUA ANTONIO BOZ MARFIL - 103 - PARQUE DO            05396020                                                            000113
2SR. CAIXA, APOS O VENCIMENTO COBRAR 2% DE MULTA                                 NAO RECEBER APOS 30 DIAS DO VENCIMENTO.                                                                                                                                                                                                         09012400000000000000901240000000000000       0090339900006270214649012418000114
100000000000000000000009033990000627000000000000000000000000010002020030348101241P00000000002            2  01303481012424012400000003693040000000001N090124000000000000000000000000000000000000000000000000000000000000000100030348198892KELLY CRISTINA CORDEIRO                 RUA CARLOS JOSE BORSTENS - 50 AP.25 - AV            11702750                                                            000116
2SR. CAIXA, APOS O VENCIMENTO COBRAR 2% DE MULTA                                 NAO RECEBER APOS 30 DIAS DO VENCIMENTO.                                                                                                                                                                                                         09012400000000000000901240000000000000       009033990000627030348101241P000117
100000000000000000000009033990000627000000000000000000000000010002020003597501241800000000002            2  01035975012426012400000002488940000000001N090124000000000000000000000000000000000000000000000000000000000000000100003597509827ANISIO FAUSTINO DE OLIVEIRA             RUA DOMINGOS DE MAMBRO - 5 CASA 20 - CIT            06040290                                                            000119
2SR. CAIXA, APOS O VENCIMENTO COBRAR 2% DE MULTA                                 NAO RECEBER APOS 30 DIAS DO VENCIMENTO.                                                                                                                                                                                                         09012400000000000000901240000000000000       0090339900006270035975012418000120
9                                                                                                                                                                                                                                                                                                                                                                                                         000121