01REMESSA01COBRANCA       00000000000005331186HB SANTOS CONSTRUTORA E INCORP237BRADESCO       080523        MX0000072                                                                                                                                                                                                                                                                                     000001
100000000000000000000009033990000995400000000000000000000000010002020005723205231100000000002            2  01057232052323052300000003025930000000001N080523000000000000000000000000000000000000000000000000000000000000000100005723255843FRANCISCO DE ASSIS DA SILVA             PRACA NICOLAU GERAIGIRE - 25 VISOR - JAR            11095110                                                            000002
2SR. CAIXA, APOS O VENCIMENTO COBRAR 2% DE MULTA                                 NAO RECEBER APOS 30 DIAS DO VENCIMENTO.                                                                                                                                                                                                         08052300000000000000805230000000000000       0090339900009954057232052311000003
100000000000000000000009033990000995400000000000000000000000010002020004928105231600000000002            2  01049281052323052300000002959130000000001N080523000000000000000000000000000000000000000000000000000000000000000100004928157800ADEMIR APARECIDO ANTUNES                RUA URUGUAI - 89 AP.105 - JARDIM GUILHER            11702300                                                            000005
2SR. CAIXA, APOS O VENCIMENTO COBRAR 2% DE MULTA                                 NAO RECEBER APOS 30 DIAS DO VENCIMENTO.                                                                                                                                                                                                         08052300000000000000805230000000000000       0090339900009954049281052316000006
100000000000000000000009033990000995400000000000000000000000010002020032589105231500000000002            2  01325891052323052300000002863160000000001N080523000000000000000000000000000000000000000000000000000000000000000100032589165862RENATA ISABEL MARTINS SILVA             RUA HERCULANO DE FREITAS - 257 - FUNDACA            09520280                                                            000008
2SR. CAIXA, APOS O VENCIMENTO COBRAR 2% DE MULTA                                 NAO RECEBER APOS 30 DIAS DO VENCIMENTO.                                                                                                                                                                                                         08052300000000000000805230000000000000       0090339900009954325891052315000009
100000000000000000000009033990000995400000000000000000000000010002020088339305231900000000002            2  01883393052323052300000002894220000000001N080523000000000000000000000000000000000000000000000000000000000000000100088339319868MARCIA SIQUEIRA MELLO                   RUA ADELINO ALVES - 81 - SANTO AMARO - S            04710120                                                            000011
2SR. CAIXA, APOS O VENCIMENTO COBRAR 2% DE MULTA                                 NAO RECEBER APOS 30 DIAS DO VENCIMENTO.                                                                                                                                                                                                         08052300000000000000805230000000000000       0090339900009954883393052319000012
100000000000000000000009033990000995400000000000000000000000010002020046391205231400000000002            2  01463912052323052300000003002360000000001N080523000000000000000000000000000000000000000000000000000000000000000100046391265810PAMELLA RODRIGUES DE OLIVEIRA           RUA AUGUSTA - 183 AP.301 BL.2A - VILA AU            07025130                                                            000014
2SR. CAIXA, APOS O VENCIMENTO COBRAR 2% DE MULTA                                 NAO RECEBER APOS 30 DIAS DO VENCIMENTO.                                                                                                                                                                                                         08052300000000000000805230000000000000       0090339900009954463912052314000015
100000000000000000000009033990000995400000000000000000000000010002020027964505231200000000002            2  01279645052323052300000002983110000000001N080523000000000000000000000000000000000000000000000000000000000000000100027964512838FABIO TADEU DE CAMPOS RADZIAVICIUS      RUA URUGUAI - 89 AP.94 - JARDIM GUILHERM            11702300                                                            000017
2SR. CAIXA, APOS O VENCIMENTO COBRAR 2% DE MULTA                                 NAO RECEBER APOS 30 DIAS DO VENCIMENTO.                                                                                                                                                                                                         08052300000000000000805230000000000000       0090339900009954279645052312000018
100000000000000000000009033990000995400000000000000000000000010002020011498305231000000000002            2  01114983052323052300000002235000000000001N080523000000000000000000000000000000000000000000000000000000000000000100011498329837GERSON GERALDO DAS NEVES                RUA DOMINGOS DELGADO - 144 - VILA SOUZA             02881070                                                            000020
2SR. CAIXA, APOS O VENCIMENTO COBRAR 2% DE MULTA                                 NAO RECEBER APOS 30 DIAS DO VENCIMENTO.                                                                                                                                                                                                         08052300000000000000805230000000000000       0090339900009954114983052310000021
100000000000000000000009033990000995400000000000000000000000010002020025214405231700000000002            2  01252144052323052300000002645550000000001N080523000000000000000000000000000000000000000000000000000000000000000100025214401833JOSE MAURICIO DOS SANTOS RODRIGUES      RUA JOAO DE MACEDO RIBEIRO - 49 - VILA N            08111101                                                            000023
2SR. CAIXA, APOS O VENCIMENTO COBRAR 2% DE MULTA                                 NAO RECEBER APOS 30 DIAS DO VENCIMENTO.                                                                                                                                                                                                         08052300000000000000805230000000000000       0090339900009954252144052317000024
100000000000000000000009033990000995400000000000000000000000010002020033119105231400000000002            2  01331191052323052300000002656750000000001N080523000000000000000000000000000000000000000000000000000000000000000100033119178802HUGO GOMES VENDRAME                     RUA SAO PAULO - 60 CASA 01 - VILA FREITA            06380110                                                            000026
2SR. CAIXA, APOS O VENCIMENTO COBRAR 2% DE MULTA                                 NAO RECEBER APOS 30 DIAS DO VENCIMENTO.                                                                                                                                                                                                         08052300000000000000805230000000000000       0090339900009954331191052314000027
100000000000000000000009033990000995400000000000000000000000010002020016631505231700000000002            2  01166315052323052300000002703120000000001N080523000000000000000000000000000000000000000000000000000000000000000100016631587468GILBERTO BEZERRA DA SILVA               AVENIDA JAIME TORRES - 745 CASA 3 - JARD            03670000                                                            000029
2SR. CAIXA, APOS O VENCIMENTO COBRAR 2% DE MULTA                                 NAO RECEBER APOS 30 DIAS DO VENCIMENTO.                                                                                                                                                                                                         08052300000000000000805230000000000000       0090339900009954166315052317000030
100000000000000000000009033990000995400000000000000000000000010002020007313205231P00000000002            2  01073132052323052300000002683910000000001N080523000000000000000000000000000000000000000000000000000000000000000100007313251840SALVADOR GESUALDO PULVIRENTI            AVENIDA MARARI - 641 - VILA MARARI - SAO            04402010                                                            000032
2SR. CAIXA, APOS O VENCIMENTO COBRAR 2% DE MULTA                                 NAO RECEBER APOS 30 DIAS DO VENCIMENTO.                                                                                                                                                                                                         08052300000000000000805230000000000000       009033990000995407313205231P000033
100000000000000000000009033990000995400000000000000000000000010002020010676705231100000000002            2  01106767052323052300000002801370000000001N080523000000000000000000000000000000000000000000000000000000000000000100010676723896MERCEDES CRISTINA ROCHA SANDOVAL        RUA URUGUAI - 89 AP.83 - JARDIM GUILHERM            11702300                                                            000035
2SR. CAIXA, APOS O VENCIMENTO COBRAR 2% DE MULTA                                 NAO RECEBER APOS 30 DIAS DO VENCIMENTO.                                                                                                                                                                                                         08052300000000000000805230000000000000       0090339900009954106767052311000036
100000000000000000000009033990000995400000000000000000000000010002020009502805231P00000000002            2  01095028052323052300000002925570000000001N080523000000000000000000000000000000000000000000000000000000000000000100009502844831CLAUDIA ROCHA SANDOVAL                  RUA URUGUAI - 89 AP.64 - JARDIM GUILHERM            11702300                                                            000038
2SR. CAIXA, APOS O VENCIMENTO COBRAR 2% DE MULTA                                 NAO RECEBER APOS 30 DIAS DO VENCIMENTO.                                                                                                                                                                                                         08052300000000000000805230000000000000       009033990000995409502805231P000039
100000000000000000000009033990000995400000000000000000000000010002020007594205231900000000002            2  01075942052323052300000002626370000000001N080523000000000000000000000000000000000000000000000000000000000000000100007594247809JOSE LUIS DE OLIVEIRA                   DONA EGLANTINA PENTEADO DA SILVA PRADO -            13044162                                                            000041
2SR. CAIXA, APOS O VENCIMENTO COBRAR 2% DE MULTA                                 NAO RECEBER APOS 30 DIAS DO VENCIMENTO.                                                                                                                                                                                                         08052300000000000000805230000000000000       0090339900009954075942052319000042
100000000000000000000009033990000995400000000000000000000000010002020005288705231200000000002            2  01052887052323052300000002705430000000001N080523000000000000000000000000000000000000000000000000000000000000000100005288796858MARCELO RODRIGUES FERREIRA              RUA MARCOS ANTONIO MARQUES - 302 - JARDI            06433020                                                            000044
2SR. CAIXA, APOS O VENCIMENTO COBRAR 2% DE MULTA                                 NAO RECEBER APOS 30 DIAS DO VENCIMENTO.                                                                                                                                                                                                         08052300000000000000805230000000000000       0090339900009954052887052312000045
100000000000000000000009033990000995400000000000000000000000010002020015835905231100000000002            2  01158359052323052300000002817300000000001N080523000000000000000000000000000000000000000000000000000000000000000100015835992823FLAVIO VERONEZ                          RUA ANDREA PAULINETTI - 127 AP.42 - BAIR            04707050                                                            000047
2SR. CAIXA, APOS O VENCIMENTO COBRAR 2% DE MULTA                                 NAO RECEBER APOS 30 DIAS DO VENCIMENTO.                                                                                                                                                                                                         08052300000000000000805230000000000000       0090339900009954158359052311000048
100000000000000000000009033990000995400000000000000000000000010002020000438105231P00000000002            2  01004381052323052300000003179960000000001N080523000000000000000000000000000000000000000000000000000000000000000100000438161858WAGNECY VILLA NOVA LIEN                 RUA PROFESSOR FERREIRA PAULINO - 233 AP.            07025020                                                            000050
2SR. CAIXA, APOS O VENCIMENTO COBRAR 2% DE MULTA                                 NAO RECEBER APOS 30 DIAS DO VENCIMENTO.                                                                                                                                                                                                         08052300000000000000805230000000000000       009033990000995400438105231P000051
100000000000000000000009033990000995400000000000000000000000010002020026004505231600000000002            2  01260045052323052300000002817340000000001N080523000000000000000000000000000000000000000000000000000000000000000100026004595888EDIVALDO BEZERRA DA SILVA               AVENIDA GUATEMALA - 550 - JARDIM PINHEIR            09854750                                                            000053
2SR. CAIXA, APOS O VENCIMENTO COBRAR 2% DE MULTA                                 NAO RECEBER APOS 30 DIAS DO VENCIMENTO.                                                                                                                                                                                                         08052300000000000000805230000000000000       0090339900009954260045052316000054
100000000000000000000009033990000995400000000000000000000000010002020012470705231000000000002            2  01124707052323052300000003005900000000001N080523000000000000000000000000000000000000000000000000000000000000000100012470771870HILTON FERNANDES OLIVARES               RUA PATIO DA ESTACAO - 115 - BAIRRO CENT            09450000                                                            000056
2SR. CAIXA, APOS O VENCIMENTO COBRAR 2% DE MULTA                                 NAO RECEBER APOS 30 DIAS DO VENCIMENTO.                                                                                                                                                                                                         08052300000000000000805230000000000000       0090339900009954124707052310000057
100000000000000000000009033990000995400000000000000000000000010002020014025405231P00000000002            2  01140254052323052300000003295900000000001N080523000000000000000000000000000000000000000000000000000000000000000100014025420899ANDREIA APARECIDA TAVARES BASTOS        RUA IBATIBA - 234 CASA 27 - RES.BOUGANVI            09220608                                                            000059
2SR. CAIXA, APOS O VENCIMENTO COBRAR 2% DE MULTA                                 NAO RECEBER APOS 30 DIAS DO VENCIMENTO.                                                                                                                                                                                                         08052300000000000000805230000000000000       009033990000995414025405231P000060
100000000000000000000009033990000995400000000000000000000000010002020018590005231900000000002            2  01185900052323052300000002984920000000001N080523000000000000000000000000000000000000000000000000000000000000000100018590038858JOSE SANDRO ROCHA SILVA                 RUA SANTO ANTONIO DO AVENTUREIRO - 216 A            07143040                                                            000062
2SR. CAIXA, APOS O VENCIMENTO COBRAR 2% DE MULTA                                 NAO RECEBER APOS 30 DIAS DO VENCIMENTO.                                                                                                                                                                                                         08052300000000000000805230000000000000       0090339900009954185900052319000063
100000000000000000000009033990000995400000000000000000000000010002020088578705231700000000002            2  01885787052323052300000002456160000000001N080523000000000000000000000000000000000000000000000000000000000000000100088578704800GILBERTO DO ESPIRITO SANTO SILVA        RUA URUGUAI - 89 AP.23 - JARDIM GUILHERM            11702300                                                            000065
2SR. CAIXA, APOS O VENCIMENTO COBRAR 2% DE MULTA                                 NAO RECEBER APOS 30 DIAS DO VENCIMENTO.                                                                                                                                                                                                         08052300000000000000805230000000000000       0090339900009954885787052317000066
100000000000000000000009033990000995400000000000000000000000010002020005105205231500000000002            2  01051052052323052300000002929260000000001N080523000000000000000000000000000000000000000000000000000000000000000100005105287835FABIO MOTTOLA DE OLIVEIRA               RUA RAUL MAZZONI - 133 - CHACARA AREAL -            13331022                                                            000068
2SR. CAIXA, APOS O VENCIMENTO COBRAR 2% DE MULTA                                 NAO RECEBER APOS 30 DIAS DO VENCIMENTO.                                                                                                                                                                                                         08052300000000000000805230000000000000       0090339900009954051052052315000069
100000000000000000000009033990000995400000000000000000000000010002020020792705231400000000002            2  01207927052323052300000003045380000000001N080523000000000000000000000000000000000000000000000000000000000000000120792791000147TROVAO COMERCIO DE ALIMENTOS LTDA-ME    RUA QUINTA DA MAGNOLIA - 67 - JARDIM IPA            03582100                                                            000071
2SR. CAIXA, APOS O VENCIMENTO COBRAR 2% DE MULTA                                 NAO RECEBER APOS 30 DIAS DO VENCIMENTO.                                                                                                                                                                                                         08052300000000000000805230000000000000       0090339900009954207927052314000072
100000000000000000000009033990000995400000000000000000000000010002020007648105231800000000002            2  01076481052323052300000002859610000000001N080523000000000000000000000000000000000000000000000000000000000000000100007648112825MARA REGINA CAPRIO                      RUA DA TRINDADE - 790 - VILA IDEAL - SAO            15060280                                                            000074
2SR. CAIXA, APOS O VENCIMENTO COBRAR 2% DE MULTA                                 NAO RECEBER APOS 30 DIAS DO VENCIMENTO.                                                                                                                                                                                                         08052300000000000000805230000000000000       0090339900009954076481052318000075
100000000000000000000009033990000995400000000000000000000000010002020031157405231700000000002            2  01311574052323052300000003070530000000001N080523000000000000000000000000000000000000000000000000000000000000000100031157420885TALITA ANICHIARICO COSSI                RUA CNEO POMPEO DE CAMARGO - 817 - JARDI            13060150                                                            000077
2SR. CAIXA, APOS O VENCIMENTO COBRAR 2% DE MULTA                                 NAO RECEBER APOS 30 DIAS DO VENCIMENTO.                                                                                                                                                                                                         08052300000000000000805230000000000000       0090339900009954311574052317000078
100000000000000000000009033990000995400000000000000000000000010002020035572505231100000000002            2  01355725052323052300000003264670000000001N080523000000000000000000000000000000000000000000000000000000000000000100035572536865MARIA SIMONE SANTOS                     RUA JOSE PEZZOLO - 68 - VILA ELDIZIA - S            09181660                                                            000080
2SR. CAIXA, APOS O VENCIMENTO COBRAR 2% DE MULTA                                 NAO RECEBER APOS 30 DIAS DO VENCIMENTO.                                                                                                                                                                                                         08052300000000000000805230000000000000       0090339900009954355725052311000081
100000000000000000000009033990000995400000000000000000000000010002020008800305231900000000002            2  01088003052323052300000002974540000000001N080523000000000000000000000000000000000000000000000000000000000000000100008800368425INGO DIMITRI PEREIRA DA NOBREGA         RUA PROFESSOR MENDES PIMENTEL - 362 - JA            03973010                                                            000083
2SR. CAIXA, APOS O VENCIMENTO COBRAR 2% DE MULTA                                 NAO RECEBER APOS 30 DIAS DO VENCIMENTO.                                                                                                                                                                                                         08052300000000000000805230000000000000       0090339900009954088003052319000084
100000000000000000000009033990000995400000000000000000000000010002020005054105231300000000002            2  01050541052323052300000002878600000000001N080523000000000000000000000000000000000000000000000000000000000000000100005054169806PAULO ROBERTO DE MATTOS                 JARDIM BOTANICO - 849 - DISTRITO DE SOUS            13106258                                                            000086
2SR. CAIXA, APOS O VENCIMENTO COBRAR 2% DE MULTA                                 NAO RECEBER APOS 30 DIAS DO VENCIMENTO.                                                                                                                                                                                                         08052300000000000000805230000000000000       0090339900009954050541052313000087
100000000000000000000009033990000995400000000000000000000000010002020007552105231P00000000002            2  01075521052323052300000002878600000000001N080523000000000000000000000000000000000000000000000000000000000000000100007552151846MAURO BORDONI                           AVENIDA DR. AUGUSTO DE TOLEDO - 769 AP.6            09540080                                                            000089
2SR. CAIXA, APOS O VENCIMENTO COBRAR 2% DE MULTA                                 NAO RECEBER APOS 30 DIAS DO VENCIMENTO.                                                                                                                                                                                                         08052300000000000000805230000000000000       009033990000995407552105231P000090
100000000000000000000009033990000995400000000000000000000000010002020012744205231200000000002            2  01127442052323052300000003202870000000001N080523000000000000000000000000000000000000000000000000000000000000000100012744201804ADAIL JOSE DE SOUSA                     RUA ROSARIA - 303 - BAIRRO SACADURA CABR            09061080                                                            000092
2SR. CAIXA, APOS O VENCIMENTO COBRAR 2% DE MULTA                                 NAO RECEBER APOS 30 DIAS DO VENCIMENTO.                                                                                                                                                                                                         08052300000000000000805230000000000000       0090339900009954127442052312000093
100000000000000000000009033990000995400000000000000000000000010002020068320605231P00000000002            2  01683206052323052300000011342920000000001N080523000000000000000000000000000000000000000000000000000000000000000100068320663849ANTONIO CAVALCANTE LIMA                 RUA AMAZONAS - 1188 - CENTRO - SAO CAETA            09540201                                                            000095
2SR. CAIXA, APOS O VENCIMENTO COBRAR 2% DE MULTA                                 NAO RECEBER APOS 30 DIAS DO VENCIMENTO.                                                                                                                                                                                                         08052300000000000000805230000000000000       009033990000995468320605231P000096
100000000000000000000009033990000995400000000000000000000000010002020088926205231100000000002            2  01889262052323052300000002382870000000001N080523000000000000000000000000000000000000000000000000000000000000000100088926230872VALDEMAR LATANCE FILHO                  RUA MELO PINTO DA SILVA - 111 CASA 103 -            18116265                                                            000098
2SR. CAIXA, APOS O VENCIMENTO COBRAR 2% DE MULTA                                 NAO RECEBER APOS 30 DIAS DO VENCIMENTO.                                                                                                                                                                                                         08052300000000000000805230000000000000       0090339900009954889262052311000099
100000000000000000000009033990000995400000000000000000000000010002020004195305231900000000002            2  01041953052323052300000003110030000000001N080523000000000000000000000000000000000000000000000000000000000000000100004195345804LUIZ CARLOS SILVESTRE                   RUA CONDE VICENTE AZEVEDO - 377 - BAIRRO            04264000                                                            000101
2SR. CAIXA, APOS O VENCIMENTO COBRAR 2% DE MULTA                                 NAO RECEBER APOS 30 DIAS DO VENCIMENTO.                                                                                                                                                                                                         08052300000000000000805230000000000000       0090339900009954041953052319000102
9                                                                                                                                                                                                                                                                                                                                                                                                         000103