01REMESSA01COBRANCA       00000000000008017025HB SANTOS CONSTRUTORA E INCORP237BRADESCO       010218        MX0000049                                                                                                                                                                                                                                                                                     000001
100000000000000000000009033990000627000000000000000000000000010002020025035102181P00000000002            2  01250351021824021800000001832640000000001N010218000000000000000000000000000000000000000000000000000000000000000100025035170802WANDERSON LUIS DE CARVALHO              RUA JOAQUIM GONCALVES ROCHA - 302 - JARD            02859030                                                            000002
2SR. CAIXA, APOS O VENCIMENTO COBRAR 2% DE MULTA                                 NAO RECEBER APOS 30 DIAS DO VENCIMENTO.                                                                                                                                                                                                         01021800000000000000102180000000000000       009033990000627025035102181P000003
100000000000000000000009033990000627000000000000000000000000010002020007294302181700000000002            2  01072943021824021800000002464950000000001N010218000000000000000000000000000000000000000000000000000000000000000100007294351805CLAUDENIR APARECIDO VACARI              RUA OFELIA CHAVES DE MEIRELLES - 989 CAS            11360210                                                            000005
2SR. CAIXA, APOS O VENCIMENTO COBRAR 2% DE MULTA                                 NAO RECEBER APOS 30 DIAS DO VENCIMENTO.                                                                                                                                                                                                         01021800000000000000102180000000000000       0090339900006270072943021817000006
100000000000000000000009033990000627000000000000000000000000010002020042976102181700000000002            2  01429761021824021800000002490810000000001N010218000000000000000000000000000000000000000000000000000000000000000100042976111634ACACIO TOSCANO BONDANCA                 RUA COMENDADOR JACOMO ANTONIO LA SELVA -            12946797                                                            000008
2SR. CAIXA, APOS O VENCIMENTO COBRAR 2% DE MULTA                                 NAO RECEBER APOS 30 DIAS DO VENCIMENTO.                                                                                                                                                                                                         01021800000000000000102180000000000000       0090339900006270429761021817000009
100000000000000000000009033990000627000000000000000000000000010002020035438002181000000000002            2  01354380021824021800000037865470000000001N010218000000000000000000000000000000000000000000000000000000000000000100035438022836ALESSANDRO FARACO DOS SANTOS            RUA PEDRO POMAR  - 145 - JARDIM ELISA MA            02875020                                                            000011
2SR. CAIXA, APOS O VENCIMENTO COBRAR 2% DE MULTA                                 NAO RECEBER APOS 30 DIAS DO VENCIMENTO.                                                                                                                                                                                                         01021800000000000000102180000000000000       0090339900006270354380021810000012
100000000000000000000009033990000627000000000000000000000000010002020035438002182900000000002            2  01354380021824021800000002103610000000001N010218000000000000000000000000000000000000000000000000000000000000000100035438022836ALESSANDRO FARACO DOS SANTOS            RUA PEDRO POMAR  - 145 - JARDIM ELISA MA            02875020                                                            000014
2SR. CAIXA, APOS O VENCIMENTO COBRAR 2% DE MULTA                                 NAO RECEBER APOS 30 DIAS DO VENCIMENTO.                                                                                                                                                                                                         01021800000000000000102180000000000000       0090339900006270354380021829000015
100000000000000000000009033990000627000000000000000000000000010002020007525002181200000000002            2  01075250021824021800000002757150000000001N010218000000000000000000000000000000000000000000000000000000000000000100007525032866FERNANDO RIBEIRO                        RUA ALDO COLI - 539 - VILA MIRIM - PRAIA            11704760                                                            000017
2SR. CAIXA, APOS O VENCIMENTO COBRAR 2% DE MULTA                                 NAO RECEBER APOS 30 DIAS DO VENCIMENTO.                                                                                                                                                                                                         01021800000000000000102180000000000000       0090339900006270075250021812000018
100000000000000000000009033990000627000000000000000000000000010002020031898702181300000000002            2  01318987021824021800000064742710000000001N010218000000000000000000000000000000000000000000000000000000000000000100031898775800ANITA MARTINS COLOMBO                   RUA OSVALDO CRUZ - 49 - BOQUEIRAO - PRAI            11701360                                                            000020
2SR. CAIXA, APOS O VENCIMENTO COBRAR 2% DE MULTA                                 NAO RECEBER APOS 30 DIAS DO VENCIMENTO.                                                                                                                                                                                                         01021800000000000000102180000000000000       0090339900006270318987021813000021
100000000000000000000009033990000627000000000000000000000000010002020031898702182100000000002            2  01318987021824021800000003168920000000001N010218000000000000000000000000000000000000000000000000000000000000000100031898775800ANITA MARTINS COLOMBO                   RUA OSVALDO CRUZ - 49 - BOQUEIRAO - PRAI            11701360                                                            000023
2SR. CAIXA, APOS O VENCIMENTO COBRAR 2% DE MULTA                                 NAO RECEBER APOS 30 DIAS DO VENCIMENTO.                                                                                                                                                                                                         01021800000000000000102180000000000000       0090339900006270318987021821000024
100000000000000000000009033990000627000000000000000000000000010002020005071402181800000000002            2  01050714021824021800000048557030000000001N010218000000000000000000000000000000000000000000000000000000000000000100005071481855ERIBALDO SANTANA CARVALHO               RUA HONDURAS - 477 - PARQUE DAS AMERICAS            09351070                                                            000026
2SR. CAIXA, APOS O VENCIMENTO COBRAR 2% DE MULTA                                 NAO RECEBER APOS 30 DIAS DO VENCIMENTO.                                                                                                                                                                                                         01021800000000000000102180000000000000       0090339900006270050714021818000027
100000000000000000000009033990000627000000000000000000000000010002020005071402182600000000002            2  01050714021824021800000002418540000000001N010218000000000000000000000000000000000000000000000000000000000000000100005071481855ERIBALDO SANTANA CARVALHO               RUA HONDURAS - 477 - PARQUE DAS AMERICAS            09351070                                                            000029
2SR. CAIXA, APOS O VENCIMENTO COBRAR 2% DE MULTA                                 NAO RECEBER APOS 30 DIAS DO VENCIMENTO.                                                                                                                                                                                                         01021800000000000000102180000000000000       0090339900006270050714021826000030
100000000000000000000009033990000627000000000000000000000000010002020002841702181100000000002            2  01028417021824021800000048269610000000001N010218000000000000000000000000000000000000000000000000000000000000000100002841756416LUCIANA PINHEIRO DE ASSIS NUNES         RUA RIO ACIMA - 81 - RIACHO GRANDE - SAO            09830100                                                            000032
2SR. CAIXA, APOS O VENCIMENTO COBRAR 2% DE MULTA                                 NAO RECEBER APOS 30 DIAS DO VENCIMENTO.                                                                                                                                                                                                         01021800000000000000102180000000000000       0090339900006270028417021811000033
100000000000000000000009033990000627000000000000000000000000010002020002841702182P00000000002            2  01028417021824021800000002262760000000001N010218000000000000000000000000000000000000000000000000000000000000000100002841756416LUCIANA PINHEIRO DE ASSIS NUNES         RUA RIO ACIMA - 81 - RIACHO GRANDE - SAO            09830100                                                            000035
2SR. CAIXA, APOS O VENCIMENTO COBRAR 2% DE MULTA                                 NAO RECEBER APOS 30 DIAS DO VENCIMENTO.                                                                                                                                                                                                         01021800000000000000102180000000000000       009033990000627002841702182P000036
100000000000000000000009033990000627000000000000000000000000010002020084302002181000000000002            2  01843020021824021800000002273590000000001N010218000000000000000000000000000000000000000000000000000000000000000100084302097868FAUSTO TADEU VILOR                      RUA ANTONIO TAVARES - 466 - BAIRRO CAMBU            01542010                                                            000038
2SR. CAIXA, APOS O VENCIMENTO COBRAR 2% DE MULTA                                 NAO RECEBER APOS 30 DIAS DO VENCIMENTO.                                                                                                                                                                                                         01021800000000000000102180000000000000       0090339900006270843020021810000039
100000000000000000000009033990000627000000000000000000000000010002020028804202181000000000002            2  01288042021824021800000002233840000000001N010218000000000000000000000000000000000000000000000000000000000000000100028804202882GILBERTO FABIANO CABRAL DE CAMARGO      RUA JOAO AMADO COUTINHO - 444 AP.11 A -             02815000                                                            000041
2SR. CAIXA, APOS O VENCIMENTO COBRAR 2% DE MULTA                                 NAO RECEBER APOS 30 DIAS DO VENCIMENTO.                                                                                                                                                                                                         01021800000000000000102180000000000000       0090339900006270288042021810000042
100000000000000000000009033990000627000000000000000000000000010002020000991702181300000000002            2  01009917021824021800000043748990000000001N010218000000000000000000000000000000000000000000000000000000000000000100000991748808JAILSON BORGES DE ANDRADE               RUA IPIOBUNA - 45 - JARDIM CUMBICA - GUA            07240040                                                            000044
2SR. CAIXA, APOS O VENCIMENTO COBRAR 2% DE MULTA                                 NAO RECEBER APOS 30 DIAS DO VENCIMENTO.                                                                                                                                                                                                         01021800000000000000102180000000000000       0090339900006270009917021813000045
100000000000000000000009033990000627000000000000000000000000010002020000991702182100000000002            2  01009917021824021800000002180300000000001N010218000000000000000000000000000000000000000000000000000000000000000100000991748808JAILSON BORGES DE ANDRADE               RUA IPIOBUNA - 45 - JARDIM CUMBICA - GUA            07240040                                                            000047
2SR. CAIXA, APOS O VENCIMENTO COBRAR 2% DE MULTA                                 NAO RECEBER APOS 30 DIAS DO VENCIMENTO.                                                                                                                                                                                                         01021800000000000000102180000000000000       0090339900006270009917021821000048
100000000000000000000009033990000627000000000000000000000000010002020092180202181000000000002            2  01921802021824021800000060744590000000001N010218000000000000000000000000000000000000000000000000000000000000000100092180299834LUIS ROBERTO DE SA DUARTE               RUA TEBAS - 296 AP.84 BLOCO 2 CE - JARDI            04634031                                                            000050
2SR. CAIXA, APOS O VENCIMENTO COBRAR 2% DE MULTA                                 NAO RECEBER APOS 30 DIAS DO VENCIMENTO.                                                                                                                                                                                                         01021800000000000000102180000000000000       0090339900006270921802021810000051
100000000000000000000009033990000627000000000000000000000000010002020092180202182900000000002            2  01921802021824021800000002972600000000001N010218000000000000000000000000000000000000000000000000000000000000000100092180299834LUIS ROBERTO DE SA DUARTE               RUA TEBAS - 296 AP.84 BLOCO 2 CE - JARDI            04634031                                                            000053
2SR. CAIXA, APOS O VENCIMENTO COBRAR 2% DE MULTA                                 NAO RECEBER APOS 30 DIAS DO VENCIMENTO.                                                                                                                                                                                                         01021800000000000000102180000000000000       0090339900006270921802021829000054
100000000000000000000009033990000627000000000000000000000000010002020022151602181P00000000002            2  01221516021824021800000043052000000000001N010218000000000000000000000000000000000000000000000000000000000000000100022151666816SAMIR LIMA DE ARAUJO                    AVENIDA GUARAPIRANGA - 2616 AP.42 BLOCO1            04902005                                                            000056
2SR. CAIXA, APOS O VENCIMENTO COBRAR 2% DE MULTA                                 NAO RECEBER APOS 30 DIAS DO VENCIMENTO.                                                                                                                                                                                                         01021800000000000000102180000000000000       009033990000627022151602181P000057
100000000000000000000009033990000627000000000000000000000000010002020022151602182800000000002            2  01221516021824021800000002167660000000001N010218000000000000000000000000000000000000000000000000000000000000000100022151666816SAMIR LIMA DE ARAUJO                    AVENIDA GUARAPIRANGA - 2616 AP.42 BLOCO1            04902005                                                            000059
2SR. CAIXA, APOS O VENCIMENTO COBRAR 2% DE MULTA                                 NAO RECEBER APOS 30 DIAS DO VENCIMENTO.                                                                                                                                                                                                         01021800000000000000102180000000000000       0090339900006270221516021828000060
100000000000000000000009033990000627000000000000000000000000010002020022313102181100000000002            2  01223131021826021800000001722190000000001N010218000000000000000000000000000000000000000000000000000000000000000100022313116824ROSA MARIA BRITO DA SILVA               RUA SERVIDAO DE SAO MARCOS - 113 - JARDI            04930300                                                            000062
2SR. CAIXA, APOS O VENCIMENTO COBRAR 2% DE MULTA                                 NAO RECEBER APOS 30 DIAS DO VENCIMENTO.                                                                                                                                                                                                         01021800000000000000102180000000000000       0090339900006270223131021811000063
100000000000000000000009033990000627000000000000000000000000010002020027538002181300000000002            2  01275380021826021800000001728190000000001N010218000000000000000000000000000000000000000000000000000000000000000100027538087249MARA LUCIA MENEZES DA COSTA             RUA LEILA  - 183 - ITAQUERA - SAO PAULO             08240020                                                            000065
2SR. CAIXA, APOS O VENCIMENTO COBRAR 2% DE MULTA                                 NAO RECEBER APOS 30 DIAS DO VENCIMENTO.                                                                                                                                                                                                         01021800000000000000102180000000000000       0090339900006270275380021813000066
100000000000000000000009033990000627000000000000000000000000010002020020105502181100000000002            2  01201055021826021800000001829520000000001N010218000000000000000000000000000000000000000000000000000000000000000100020105503827VALTER DE SOUSA LIBARINO FILHO          RUA DAS PAINEIRAS - 140 - LARANJEIRAS -             07700000                                                            000068
2SR. CAIXA, APOS O VENCIMENTO COBRAR 2% DE MULTA                                 NAO RECEBER APOS 30 DIAS DO VENCIMENTO.                                                                                                                                                                                                         01021800000000000000102180000000000000       0090339900006270201055021811000069
100000000000000000000009033990000627000000000000000000000000010002020031278402181P00000000002            2  01312784021824021800000024059120000000001N010218000000000000000000000000000000000000000000000000000000000000000100031278411836JEFFERSON DE PIERI PIRES ZAMUNER        RUA MANOEL ARCE - 277 - PARQUE BANCARIO             03922150                                                            000071
2SR. CAIXA, APOS O VENCIMENTO COBRAR 2% DE MULTA                                 NAO RECEBER APOS 30 DIAS DO VENCIMENTO.                                                                                                                                                                                                         01021800000000000000102180000000000000       009033990000627031278402181P000072
100000000000000000000009033990000627000000000000000000000000010002020031278402182800000000002            2  01312784021824021800000002094030000000001N010218000000000000000000000000000000000000000000000000000000000000000100031278411836JEFFERSON DE PIERI PIRES ZAMUNER        RUA MANOEL ARCE - 277 - PARQUE BANCARIO             03922150                                                            000074
2SR. CAIXA, APOS O VENCIMENTO COBRAR 2% DE MULTA                                 NAO RECEBER APOS 30 DIAS DO VENCIMENTO.                                                                                                                                                                                                         01021800000000000000102180000000000000       0090339900006270312784021828000075
100000000000000000000009033990000627000000000000000000000000010002020019185702181100000000002            2  01191857021826021800000001572700000000001N010218000000000000000000000000000000000000000000000000000000000000000100019185769800AGUINALDO PESSOA DE LIMA                RUA JANUARIO ZINGARO - 252 AP.303 BL.04             05794300                                                            000077
2SR. CAIXA, APOS O VENCIMENTO COBRAR 2% DE MULTA                                 NAO RECEBER APOS 30 DIAS DO VENCIMENTO.                                                                                                                                                                                                         01021800000000000000102180000000000000       0090339900006270191857021811000078
100000000000000000000009033990000627000000000000000000000000010002020033303602181200000000002            2  01333036021826021800000001059720000000001N010218000000000000000000000000000000000000000000000000000000000000000100033303645809JESSICA DA SILVA FREITAS                RUA ARILDO VALADAO - 120 - JARDIM GUAEMB            04814600                                                            000080
2SR. CAIXA, APOS O VENCIMENTO COBRAR 2% DE MULTA                                 NAO RECEBER APOS 30 DIAS DO VENCIMENTO.                                                                                                                                                                                                         01021800000000000000102180000000000000       0090339900006270333036021812000081
100000000000000000000009033990000627000000000000000000000000010002020004824402181100000000002            2  01048244021826021800000001707320000000001N010218000000000000000000000000000000000000000000000000000000000000000100004824443806ROSIMEIRE CLARA FERREIRA REZENDE        RUA JOAQUIM DE OLIVEIRA FREITAS - 912 AP            05133000                                                            000083
2SR. CAIXA, APOS O VENCIMENTO COBRAR 2% DE MULTA                                 NAO RECEBER APOS 30 DIAS DO VENCIMENTO.                                                                                                                                                                                                         01021800000000000000102180000000000000       0090339900006270048244021811000084
100000000000000000000009033990000627000000000000000000000000010002020006422602181800000000002            2  01064226021824021800000002267890000000001N010218000000000000000000000000000000000000000000000000000000000000000100006422607881GERALDO ALVES DA SILVA                  RUA ALFREDO JOREL - 195 AP.5 CONDOMINIO             04195020                                                            000086
2SR. CAIXA, APOS O VENCIMENTO COBRAR 2% DE MULTA                                 NAO RECEBER APOS 30 DIAS DO VENCIMENTO.                                                                                                                                                                                                         01021800000000000000102180000000000000       0090339900006270064226021818000087
100000000000000000000009033990000627000000000000000000000000010002020033877102181P00000000002            2  01338771021826021800000001588110000000001N010218000000000000000000000000000000000000000000000000000000000000000100033877129870HELDER FERREIRA VIANA                   RUA LEOPOLDO MOTTA E SILVA - 93 AP.34 -             11320340                                                            000089
2SR. CAIXA, APOS O VENCIMENTO COBRAR 2% DE MULTA                                 NAO RECEBER APOS 30 DIAS DO VENCIMENTO.                                                                                                                                                                                                         01021800000000000000102180000000000000       009033990000627033877102181P000090
100000000000000000000009033990000627000000000000000000000000010002020028290702181300000000002            2  01282907021826021800000001463630000000001N010218000000000000000000000000000000000000000000000000000000000000000100028290719809VANESSA GIANGARRELLI PEREIRA            RUA BARINEL - 72 - JARDIM COTCHING - SAO            03462130                                                            000092
2SR. CAIXA, APOS O VENCIMENTO COBRAR 2% DE MULTA                                 NAO RECEBER APOS 30 DIAS DO VENCIMENTO.                                                                                                                                                                                                         01021800000000000000102180000000000000       0090339900006270282907021813000093
100000000000000000000009033990000627000000000000000000000000010002020087573002181900000000002            2  01875730021826021800000001598290000000001N010218000000000000000000000000000000000000000000000000000000000000000100087573059604VANDERLEY DE ASSIS                      RUA ROMEU ALBANI - 268 - JARDIM PARQUE R            13803810                                                            000095
2SR. CAIXA, APOS O VENCIMENTO COBRAR 2% DE MULTA                                 NAO RECEBER APOS 30 DIAS DO VENCIMENTO.                                                                                                                                                                                                         01021800000000000000102180000000000000       0090339900006270875730021819000096
100000000000000000000009033990000627000000000000000000000000010002020010825502181600000000002            2  01108255021826021800000001667900000000001N010218000000000000000000000000000000000000000000000000000000000000000100010825513847JOSE APARECIDO PEREIRA                  RUA GENERAL OSORIO - 305 - JARDIM TRINTA            11515130                                                            000098
2SR. CAIXA, APOS O VENCIMENTO COBRAR 2% DE MULTA                                 NAO RECEBER APOS 30 DIAS DO VENCIMENTO.                                                                                                                                                                                                         01021800000000000000102180000000000000       0090339900006270108255021816000099
100000000000000000000009033990000627000000000000000000000000010002020038818502181600000000002            2  01388185021826021800000002606110000000001N010218000000000000000000000000000000000000000000000000000000000000000100038818572814MAURICIUS ALEXANDRE ESTEVAM NABOR       RUA RAUL SERAPIAO BARROSO - 379 - ESPLAN            11340330                                                            000101
2SR. CAIXA, APOS O VENCIMENTO COBRAR 2% DE MULTA                                 NAO RECEBER APOS 30 DIAS DO VENCIMENTO.                                                                                                                                                                                                         01021800000000000000102180000000000000       0090339900006270388185021816000102
100000000000000000000009033990000627000000000000000000000000010002020039115102181800000000002            2  01391151021826021800000002055970000000001N010218000000000000000000000000000000000000000000000000000000000000000100039115139840LAIS CRISTINA RIBEIRO ANDO              RUA PERU - 769 AP.17 - VILA GUILHERMINA             11702250                                                            000104
2SR. CAIXA, APOS O VENCIMENTO COBRAR 2% DE MULTA                                 NAO RECEBER APOS 30 DIAS DO VENCIMENTO.                                                                                                                                                                                                         01021800000000000000102180000000000000       0090339900006270391151021818000105
100000000000000000000009033990000627000000000000000000000000010002020029617502181600000000002            2  01296175021824021800000002225990000000001N010218000000000000000000000000000000000000000000000000000000000000000100029617510553MARILENE SOUZA DE OLIVEIRA              AVENIDA BRASIL - 393 AP.09 - PARQUE DAS             09210280                                                            000107
2SR. CAIXA, APOS O VENCIMENTO COBRAR 2% DE MULTA                                 NAO RECEBER APOS 30 DIAS DO VENCIMENTO.                                                                                                                                                                                                         01021800000000000000102180000000000000       0090339900006270296175021816000108
100000000000000000000009033990000627000000000000000000000000010002020000593202181600000000002            2  01005932021824021800000070580850000000001N010218000000000000000000000000000000000000000000000000000000000000000100000593293860WALTER HELIO BARBOSA FILHO              AVENIDA ANTONIO FREDERICO OZANAN - 9500             13214206                                                            000110
2SR. CAIXA, APOS O VENCIMENTO COBRAR 2% DE MULTA                                 NAO RECEBER APOS 30 DIAS DO VENCIMENTO.                                                                                                                                                                                                         01021800000000000000102180000000000000       0090339900006270005932021816000111
100000000000000000000009033990000627000000000000000000000000010002020007730002181100000000002            2  01077300021824021800000003471870000000001N010218000000000000000000000000000000000000000000000000000000000000000100007730084899ARNALDO LUIZ VONO                       RUA CRESPO DE CARVALHO - 36 - PARQUE SAO            02832210                                                            000113
2SR. CAIXA, APOS O VENCIMENTO COBRAR 2% DE MULTA                                 NAO RECEBER APOS 30 DIAS DO VENCIMENTO.                                                                                                                                                                                                         01021800000000000000102180000000000000       0090339900006270077300021811000114
100000000000000000000009033990000627000000000000000000000000010002020065584102181800000000002            2  01655841021824021800000001281560000000001N010218000000000000000000000000000000000000000000000000000000000000000100065584147834JOAQUIM DA COSTA MACHADO NETO           RUA SERTANISTA FRANCISCO MEIRELIS - 439             11703460                                                            000116
2SR. CAIXA, APOS O VENCIMENTO COBRAR 2% DE MULTA                                 NAO RECEBER APOS 30 DIAS DO VENCIMENTO.                                                                                                                                                                                                         01021800000000000000102180000000000000       0090339900006270655841021818000117
100000000000000000000009033990000627000000000000000000000000010002020001616902181P00000000002            2  01016169021824021800000066309790000000001N010218000000000000000000000000000000000000000000000000000000000000000100001616913827CLAUDIO LUIZ PAULELLA                   PRACA NESTOR DOS SANTOS ARRUDA - 26 - VI            13920000                                                            000119
2SR. CAIXA, APOS O VENCIMENTO COBRAR 2% DE MULTA                                 NAO RECEBER APOS 30 DIAS DO VENCIMENTO.                                                                                                                                                                                                         01021800000000000000102180000000000000       009033990000627001616902181P000120
100000000000000000000009033990000627000000000000000000000000010002020001616902182800000000002            2  01016169021824021800000002253910000000001N010218000000000000000000000000000000000000000000000000000000000000000100001616913827CLAUDIO LUIZ PAULELLA                   PRACA NESTOR DOS SANTOS ARRUDA - 26 - VI            13920000                                                            000122
2SR. CAIXA, APOS O VENCIMENTO COBRAR 2% DE MULTA                                 NAO RECEBER APOS 30 DIAS DO VENCIMENTO.                                                                                                                                                                                                         01021800000000000000102180000000000000       0090339900006270016169021828000123
100000000000000000000009033990000627000000000000000000000000010002020006684602181000000000002            2  01066846021826021800000001693690000000001N010218000000000000000000000000000000000000000000000000000000000000000100006684623884LAUDINOR VIEIRA GARCIA                  RUA CANDIDO SALES - 374 - JARDIM PRESIDE            07172000                                                            000125
2SR. CAIXA, APOS O VENCIMENTO COBRAR 2% DE MULTA                                 NAO RECEBER APOS 30 DIAS DO VENCIMENTO.                                                                                                                                                                                                         01021800000000000000102180000000000000       0090339900006270066846021810000126
100000000000000000000009033990000627000000000000000000000000010002020011663502181100000000002            2  01116635021826021800000001705900000000001N010218000000000000000000000000000000000000000000000000000000000000000100011663589844MARIA SAVIO QUARELLO                    AVENIDA MENDONCA DRUMOND - 321 - JARDIM             03524030                                                            000128
2SR. CAIXA, APOS O VENCIMENTO COBRAR 2% DE MULTA                                 NAO RECEBER APOS 30 DIAS DO VENCIMENTO.                                                                                                                                                                                                         01021800000000000000102180000000000000       0090339900006270116635021811000129
100000000000000000000009033990000627000000000000000000000000010002020010083802181300000000002            2  01100838021826021800000001648170000000001N010218000000000000000000000000000000000000000000000000000000000000000100010083824855IONE FERREIRA COUTO DA SILVA            RUA JOSE RAGEL DE MESQUITA - 60 CS.01 -             07799999                                                            000131
2SR. CAIXA, APOS O VENCIMENTO COBRAR 2% DE MULTA                                 NAO RECEBER APOS 30 DIAS DO VENCIMENTO.                                                                                                                                                                                                         01021800000000000000102180000000000000       0090339900006270100838021813000132
100000000000000000000009033990000627000000000000000000000000010002020036881702181600000000002            2  01368817021826021800000001617400000000001N010218000000000000000000000000000000000000000000000000000000000000000100036881778864ANDRE GONZALEZ RABELLO                  RUA PARAIBA - 106 AP.61 - POMPEIA - SANT            11065470                                                            000134
2SR. CAIXA, APOS O VENCIMENTO COBRAR 2% DE MULTA                                 NAO RECEBER APOS 30 DIAS DO VENCIMENTO.                                                                                                                                                                                                         01021800000000000000102180000000000000       0090339900006270368817021816000135
100000000000000000000009033990000627000000000000000000000000010002020018207002181500000000002            2  01182070021824021800000002158610000000001N010218000000000000000000000000000000000000000000000000000000000000000100018207096802ROBERTO VALENTE TAVARES                 RUA SEBASTIAO GOMES - 218 - JARDIM SANTO            13835000                                                            000137
2SR. CAIXA, APOS O VENCIMENTO COBRAR 2% DE MULTA                                 NAO RECEBER APOS 30 DIAS DO VENCIMENTO.                                                                                                                                                                                                         01021800000000000000102180000000000000       0090339900006270182070021815000138
100000000000000000000009033990000627000000000000000000000000010002020005351002181800000000002            2  01053510021826021800000001516480000000001N010218000000000000000000000000000000000000000000000000000000000000000100005351015897VALERIA ALVES MARCOLINO HINNIGER        RUA MONGOLIA - 230 AP.71 BL.4 - PARQUE N            09280220                                                            000140
2SR. CAIXA, APOS O VENCIMENTO COBRAR 2% DE MULTA                                 NAO RECEBER APOS 30 DIAS DO VENCIMENTO.                                                                                                                                                                                                         01021800000000000000102180000000000000       0090339900006270053510021818000141
9                                                                                                                                                                                                                                                                                                                                                                                                         000142