01REMESSA01COBRANCA       00000000000008017025HB SANTOS CONSTRUTORA E INCORP237BRADESCO       010519        MX0000078                                                                                                                                                                                                                                                                                     000001
100000000000000000000009033990000627000000000000000000000000010002020029671505191400000000002            2  01296715051909051900000002457510000000001N010519000000000000000000000000000000000000000000000000000000000000000100029671526845ROGERIO CONSENTINO                      RUA CARLOS MAZER  - 678 - VILA CARMOSINA            08290700                                                            000002
2SR. CAIXA, APOS O VENCIMENTO COBRAR 2% DE MULTA                                 NAO RECEBER APOS 30 DIAS DO VENCIMENTO.                                                                                                                                                                                                         01051900000000000000105190000000000000       0090339900006270296715051914000003
100000000000000000000009033990000627000000000000000000000000010002020003863005191600000000002            2  01038630051909051900000002321330000000001N010519000000000000000000000000000000000000000000000000000000000000000100003863075803HERALDO MENQUINI                        RUA CARLOS JOSE BORSTENS - 50 AP.15 - AV            11702750                                                            000005
2SR. CAIXA, APOS O VENCIMENTO COBRAR 2% DE MULTA                                 NAO RECEBER APOS 30 DIAS DO VENCIMENTO.                                                                                                                                                                                                         01051900000000000000105190000000000000       0090339900006270038630051916000006
100000000000000000000009033990000627000000000000000000000000010002020029028405191300000000002            2  01290284051909051900000002377970000000001N010519000000000000000000000000000000000000000000000000000000000000000100029028478825LEONARDO LOUZADA                        RUA CARLOS JOSE BORSTENS - 50 AP.35 - AV            11702750                                                            000008
2SR. CAIXA, APOS O VENCIMENTO COBRAR 2% DE MULTA                                 NAO RECEBER APOS 30 DIAS DO VENCIMENTO.                                                                                                                                                                                                         01051900000000000000105190000000000000       0090339900006270290284051913000009
100000000000000000000009033990000627000000000000000000000000010002020032878505191000000000002            2  01328785051909051900000003436630000000001N010519000000000000000000000000000000000000000000000000000000000000000100032878512847LEONARDO MOURA MONIZ CALDEIRA           RUA BALSA - 682 AP.134 T.02 - VILA ARCAD            02910000                                                            000011
2SR. CAIXA, APOS O VENCIMENTO COBRAR 2% DE MULTA                                 NAO RECEBER APOS 30 DIAS DO VENCIMENTO.                                                                                                                                                                                                         01051900000000000000105190000000000000       0090339900006270328785051910000012
100000000000000000000009033990000627000000000000000000000000010002020016479005191800000000002            2  01164790051909051900000003655960000000001N010519000000000000000000000000000000000000000000000000000000000000000100016479002806LOURDES PEREIRA DE QUEIROZ SECANECHIA   RUA PAULINO CURSI - 437 - CIDADE SAO MAT            03960060                                                            000014
2SR. CAIXA, APOS O VENCIMENTO COBRAR 2% DE MULTA                                 NAO RECEBER APOS 30 DIAS DO VENCIMENTO.                                                                                                                                                                                                         01051900000000000000105190000000000000       0090339900006270164790051918000015
100000000000000000000009033990000627000000000000000000000000010002020019635005191500000000002            2  01196350051909051900000002697460000000001N010519000000000000000000000000000000000000000000000000000000000000000100019635091885IVAN VIEIRA SILVA                       ABRAO JORGE - 3001 - JARDIM INTEGRACAO -            14405397                                                            000017
2SR. CAIXA, APOS O VENCIMENTO COBRAR 2% DE MULTA                                 NAO RECEBER APOS 30 DIAS DO VENCIMENTO.                                                                                                                                                                                                         01051900000000000000105190000000000000       0090339900006270196350051915000018
100000000000000000000009033990000627000000000000000000000000010002020009361405191500000000002            2  01093614051909051900000002654230000000001N010519000000000000000000000000000000000000000000000000000000000000000100009361471805JOSE BARBOSA DA SILVA                   RUA ALFREDO INACIO TRINDADE  - 60 AP.44             02344100                                                            000020
2SR. CAIXA, APOS O VENCIMENTO COBRAR 2% DE MULTA                                 NAO RECEBER APOS 30 DIAS DO VENCIMENTO.                                                                                                                                                                                                         01051900000000000000105190000000000000       0090339900006270093614051915000021
100000000000000000000009033990000627000000000000000000000000010002020012756905191900000000002            2  01127569051909051900000002291190000000001N010519000000000000000000000000000000000000000000000000000000000000000100012756959812ITAMAR JUVENAL DIAS DA SILVA            RUA ELISEU REINALDO MORAES VIEIRA - 90 A            02858000                                                            000023
2SR. CAIXA, APOS O VENCIMENTO COBRAR 2% DE MULTA                                 NAO RECEBER APOS 30 DIAS DO VENCIMENTO.                                                                                                                                                                                                         01051900000000000000105190000000000000       0090339900006270127569051919000024
100000000000000000000009033990000627000000000000000000000000010002020002731005191600000000002            2  01027310051909051900000002708790000000001N010519000000000000000000000000000000000000000000000000000000000000000100002731042842VALTER CERQUEIRA VILLA NOVA             RUA MACHADO - 106 - VILA AUGUSTA - GUARU            07025210                                                            000026
2SR. CAIXA, APOS O VENCIMENTO COBRAR 2% DE MULTA                                 NAO RECEBER APOS 30 DIAS DO VENCIMENTO.                                                                                                                                                                                                         01051900000000000000105190000000000000       0090339900006270027310051916000027
100000000000000000000009033990000627000000000000000000000000010002020002731005192400000000002            2  01027310051909051900000002708590000000001N010519000000000000000000000000000000000000000000000000000000000000000100002731042842VALTER CERQUEIRA VILLA NOVA             RUA MACHADO - 106 - VILA AUGUSTA - GUARU            07025210                                                            000029
2SR. CAIXA, APOS O VENCIMENTO COBRAR 2% DE MULTA                                 NAO RECEBER APOS 30 DIAS DO VENCIMENTO.                                                                                                                                                                                                         01051900000000000000105190000000000000       0090339900006270027310051924000030
100000000000000000000009033990000627000000000000000000000000010002020028802105191400000000002            2  01288021051909051900000002445990000000001N010519000000000000000000000000000000000000000000000000000000000000000100028802158894ELIEL HENRIQUE ZUZA                     RUA CARLOS JOSE BORSTENS - 50 AP.43 - BA            11702750                                                            000032
2SR. CAIXA, APOS O VENCIMENTO COBRAR 2% DE MULTA                                 NAO RECEBER APOS 30 DIAS DO VENCIMENTO.                                                                                                                                                                                                         01051900000000000000105190000000000000       0090339900006270288021051914000033
100000000000000000000009033990000627000000000000000000000000010002020008739105191800000000002            2  01087391051909051900000002287610000000001N010519000000000000000000000000000000000000000000000000000000000000000100008739150895VANGEVALDO BATISTA SANT ANNA            TRAVESSA TOMAZIN - 02 - ERMELINO MATARAZ            03811125                                                            000035
2SR. CAIXA, APOS O VENCIMENTO COBRAR 2% DE MULTA                                 NAO RECEBER APOS 30 DIAS DO VENCIMENTO.                                                                                                                                                                                                         01051900000000000000105190000000000000       0090339900006270087391051918000036
100000000000000000000009033990000627000000000000000000000000010002020005313705191400000000002            2  01053137051911051900000001977180000000001N010519000000000000000000000000000000000000000000000000000000000000000100005313717863EDIMICIO JOSE DE ARAUJO                 PRACA NICOLAU GERAIGIRE - 680 CA A - JAR            11095110                                                            000038
2SR. CAIXA, APOS O VENCIMENTO COBRAR 2% DE MULTA                                 NAO RECEBER APOS 30 DIAS DO VENCIMENTO.                                                                                                                                                                                                         01051900000000000000105190000000000000       0090339900006270053137051914000039
100000000000000000000009033990000627000000000000000000000000010002020029433605191200000000002            2  01294336051911051900000001899390000000001N010519000000000000000000000000000000000000000000000000000000000000000100029433631897MARIO MUNIZ                             AVENIDA PRESIDENTE CASTELO BRANCO - 7328            11704305                                                            000041
2SR. CAIXA, APOS O VENCIMENTO COBRAR 2% DE MULTA                                 NAO RECEBER APOS 30 DIAS DO VENCIMENTO.                                                                                                                                                                                                         01051900000000000000105190000000000000       0090339900006270294336051912000042
100000000000000000000009033990000627000000000000000000000000010002020001847205191000000000002            2  01018472051911051900000001748640000000001N010519000000000000000000000000000000000000000000000000000000000000000100001847204864AMERICA CONCEICAO DA SILVA              RUA CAMINHO DO GUARAMAR - 199 AP.11 BLOC            11721050                                                            000044
2SR. CAIXA, APOS O VENCIMENTO COBRAR 2% DE MULTA                                 NAO RECEBER APOS 30 DIAS DO VENCIMENTO.                                                                                                                                                                                                         01051900000000000000105190000000000000       0090339900006270018472051910000045
100000000000000000000009033990000627000000000000000000000000010002020005029805191500000000002            2  01050298051909051900000002336010000000001N010519000000000000000000000000000000000000000000000000000000000000000100005029828885LAURINETE DA CONCEICAO DE NORONHA       RUA MARIA LUCIA DE TOLEDO LEITE MORAES -            04434040                                                            000047
2SR. CAIXA, APOS O VENCIMENTO COBRAR 2% DE MULTA                                 NAO RECEBER APOS 30 DIAS DO VENCIMENTO.                                                                                                                                                                                                         01051900000000000000105190000000000000       0090339900006270050298051915000048
100000000000000000000009033990000627000000000000000000000000010002020027682105191400000000002            2  01276821051911051900000001843440000000001N010519000000000000000000000000000000000000000000000000000000000000000100027682175818ALINE TEIXEIRA                          RUA CRUZEIRO DO SUL - 309 - JARDIM BOM P            06385060                                                            000050
2SR. CAIXA, APOS O VENCIMENTO COBRAR 2% DE MULTA                                 NAO RECEBER APOS 30 DIAS DO VENCIMENTO.                                                                                                                                                                                                         01051900000000000000105190000000000000       0090339900006270276821051914000051
100000000000000000000009033990000627000000000000000000000000010002020013388905191700000000002            2  01133889051911051900000001851620000000001N010519000000000000000000000000000000000000000000000000000000000000000100013388936889NEUTON DE SOUZA RAMOS                   RUA MARIA CRISTINA - 932 - JARDIM CASQUE            11533160                                                            000053
2SR. CAIXA, APOS O VENCIMENTO COBRAR 2% DE MULTA                                 NAO RECEBER APOS 30 DIAS DO VENCIMENTO.                                                                                                                                                                                                         01051900000000000000105190000000000000       0090339900006270133889051917000054
100000000000000000000009033990000627000000000000000000000000010002020012774905191700000000002            2  01127749051911051900000001886380000000001N010519000000000000000000000000000000000000000000000000000000000000000100012774906865JOSE MILTON SANTIAGO                    RUA BATATAIS - 47 - CIDADE ESTELA - POA             08563140                                                            000056
2SR. CAIXA, APOS O VENCIMENTO COBRAR 2% DE MULTA                                 NAO RECEBER APOS 30 DIAS DO VENCIMENTO.                                                                                                                                                                                                         01051900000000000000105190000000000000       0090339900006270127749051917000057
100000000000000000000009033990000627000000000000000000000000010002020016294105191200000000002            2  01162941051909051900000002319250000000001N010519000000000000000000000000000000000000000000000000000000000000000100016294119812JURACY FELIX DE ARRUDA                  RUA CARLOS JOSE BORSTENS - 50 AP.23 - AV            11702750                                                            000059
2SR. CAIXA, APOS O VENCIMENTO COBRAR 2% DE MULTA                                 NAO RECEBER APOS 30 DIAS DO VENCIMENTO.                                                                                                                                                                                                         01051900000000000000105190000000000000       0090339900006270162941051912000060
100000000000000000000009033990000627000000000000000000000000010002020005613805191700000000002            2  01056138051911051900000001734950000000001N010519000000000000000000000000000000000000000000000000000000000000000100005613843805NILZA MARIA DE OLIVEIRA                 RUA JOSE GONCALVES DE FREITAS - 66 C2 -             08210550                                                            000062
2SR. CAIXA, APOS O VENCIMENTO COBRAR 2% DE MULTA                                 NAO RECEBER APOS 30 DIAS DO VENCIMENTO.                                                                                                                                                                                                         01051900000000000000105190000000000000       0090339900006270056138051917000063
100000000000000000000009033990000627000000000000000000000000010002020007574905191700000000002            2  01075749051911051900000001780880000000001N010519000000000000000000000000000000000000000000000000000000000000000100007574936889JORGE LUCIANO PEREIRA BORRIELLO         RUA FABIO DE ALMEIDA MAGALHAES - 179 - J            05135370                                                            000065
2SR. CAIXA, APOS O VENCIMENTO COBRAR 2% DE MULTA                                 NAO RECEBER APOS 30 DIAS DO VENCIMENTO.                                                                                                                                                                                                         01051900000000000000105190000000000000       0090339900006270075749051917000066
100000000000000000000009033990000627000000000000000000000000010002020032408105191P00000000002            2  01324081051911051900000002049460000000001N010519000000000000000000000000000000000000000000000000000000000000000100032408151848DEILSON DO NASCIMENTO CANDIDO DA SILVA  RUA HEREMITA SANTA DO NASCIMENTO - 37 AP            11345340                                                            000068
2SR. CAIXA, APOS O VENCIMENTO COBRAR 2% DE MULTA                                 NAO RECEBER APOS 30 DIAS DO VENCIMENTO.                                                                                                                                                                                                         01051900000000000000105190000000000000       009033990000627032408105191P000069
100000000000000000000009033990000627000000000000000000000000010002020008214905191P00000000002            2  01082149051911051900000001807920000000001N010519000000000000000000000000000000000000000000000000000000000000000100008214973830JAMIL CHALA                             RUA JOSE CALIXTO DO CARMO - 286 AP.22 -             11702690                                                            000071
2SR. CAIXA, APOS O VENCIMENTO COBRAR 2% DE MULTA                                 NAO RECEBER APOS 30 DIAS DO VENCIMENTO.                                                                                                                                                                                                         01051900000000000000105190000000000000       009033990000627008214905191P000072
100000000000000000000009033990000627000000000000000000000000010002020032495005191700000000002            2  01324950051911051900000002026000000000001N010519000000000000000000000000000000000000000000000000000000000000000100032495004881PAULO EDUARDO DOS SANTOS                RUA REPUBLICA DO IRAQUE - 1119 - CAMPO B            04611002                                                            000074
2SR. CAIXA, APOS O VENCIMENTO COBRAR 2% DE MULTA                                 NAO RECEBER APOS 30 DIAS DO VENCIMENTO.                                                                                                                                                                                                         01051900000000000000105190000000000000       0090339900006270324950051917000075
100000000000000000000009033990000627000000000000000000000000010002020006471805191700000000002            2  01064718051909051900000002283360000000001N010519000000000000000000000000000000000000000000000000000000000000000100006471825803JOSIVALDO BASTOS DE OLIVEIRA            RUA MARIA DIAS HOG - 263 - PARQUE CONTIN            07085035                                                            000077
2SR. CAIXA, APOS O VENCIMENTO COBRAR 2% DE MULTA                                 NAO RECEBER APOS 30 DIAS DO VENCIMENTO.                                                                                                                                                                                                         01051900000000000000105190000000000000       0090339900006270064718051917000078
100000000000000000000009033990000627000000000000000000000000010002020038856805191300000000002            2  01388568051911051900000001878150000000001N010519000000000000000000000000000000000000000000000000000000000000000100038856851830FELIPE BIANCHI DA COSTA FREITAS         RUA JOSE CALIXTO DO CARMO - 286 AP.23 -             11702690                                                            000080
2SR. CAIXA, APOS O VENCIMENTO COBRAR 2% DE MULTA                                 NAO RECEBER APOS 30 DIAS DO VENCIMENTO.                                                                                                                                                                                                         01051900000000000000105190000000000000       0090339900006270388568051913000081
100000000000000000000009033990000627000000000000000000000000010002020016498005191400000000002            2  01164980051911051900000001776840000000001N010519000000000000000000000000000000000000000000000000000000000000000100016498053810GILMA CEZARIO GARCIA CORRITORI          RUA LAURENTINO XAVIER DOS SANTOS - 336 -            08240740                                                            000083
2SR. CAIXA, APOS O VENCIMENTO COBRAR 2% DE MULTA                                 NAO RECEBER APOS 30 DIAS DO VENCIMENTO.                                                                                                                                                                                                         01051900000000000000105190000000000000       0090339900006270164980051914000084
100000000000000000000009033990000627000000000000000000000000010002020029339005191300000000002            2  01293390051911051900000001900040000000001N010519000000000000000000000000000000000000000000000000000000000000000100029339051831RONALD DIDOFF                           RUA CORONEL FERREIRA BRAGA - 188 - VILA             03522010                                                            000086
2SR. CAIXA, APOS O VENCIMENTO COBRAR 2% DE MULTA                                 NAO RECEBER APOS 30 DIAS DO VENCIMENTO.                                                                                                                                                                                                         01051900000000000000105190000000000000       0090339900006270293390051913000087
100000000000000000000009033990000627000000000000000000000000010002020017357805191500000000002            2  01173578051911051900000002012310000000001N010519000000000000000000000000000000000000000000000000000000000000000100017357859894MARCIO GUIMARAES                        RUA GENERAL CAMARA - 188 SALA 11 - CENTR            11010120                                                            000089
2SR. CAIXA, APOS O VENCIMENTO COBRAR 2% DE MULTA                                 NAO RECEBER APOS 30 DIAS DO VENCIMENTO.                                                                                                                                                                                                         01051900000000000000105190000000000000       0090339900006270173578051915000090
100000000000000000000009033990000627000000000000000000000000010002020010563005191500000000002            2  01105630051911051900000002063740000000001N010519000000000000000000000000000000000000000000000000000000000000000100010563033878VERA LUCIA RIBEIRO LONGANEZI            RUA DOS CAMARES - 150 AP.24 BL.02 - CARA            02068030                                                            000092
2SR. CAIXA, APOS O VENCIMENTO COBRAR 2% DE MULTA                                 NAO RECEBER APOS 30 DIAS DO VENCIMENTO.                                                                                                                                                                                                         01051900000000000000105190000000000000       0090339900006270105630051915000093
100000000000000000000009033990000627000000000000000000000000010002020005529605191P00000000002            2  01055296051911051900000001872770000000001N010519000000000000000000000000000000000000000000000000000000000000000100005529616801JOAQUIM JORGE DA COSTA                  RUA JOSE CALIXTO DO CARMO - 286 AP.106 -            11702690                                                            000095
2SR. CAIXA, APOS O VENCIMENTO COBRAR 2% DE MULTA                                 NAO RECEBER APOS 30 DIAS DO VENCIMENTO.                                                                                                                                                                                                         01051900000000000000105190000000000000       009033990000627005529605191P000096
100000000000000000000009033990000627000000000000000000000000010002020022014105191400000000002            2  01220141051911051900000001867310000000001N010519000000000000000000000000000000000000000000000000000000000000000100022014140847CAMILA SILVEIRA CANIZARES               AVENIDA PRESIDENTE CASTELO BRANCO - 5.74            11703650                                                            000098
2SR. CAIXA, APOS O VENCIMENTO COBRAR 2% DE MULTA                                 NAO RECEBER APOS 30 DIAS DO VENCIMENTO.                                                                                                                                                                                                         01051900000000000000105190000000000000       0090339900006270220141051914000099
100000000000000000000009033990000627000000000000000000000000010002020022014105192200000000002            2  01220141051911051900000001867110000000001N010519000000000000000000000000000000000000000000000000000000000000000100022014140847CAMILA SILVEIRA CANIZARES               AVENIDA PRESIDENTE CASTELO BRANCO - 5.74            11703650                                                            000101
2SR. CAIXA, APOS O VENCIMENTO COBRAR 2% DE MULTA                                 NAO RECEBER APOS 30 DIAS DO VENCIMENTO.                                                                                                                                                                                                         01051900000000000000105190000000000000       0090339900006270220141051922000102
100000000000000000000009033990000627000000000000000000000000010002020015550705191600000000002            2  01155507051909051900000001770680000000001N010519000000000000000000000000000000000000000000000000000000000000000100015550706806MARY MIWA                               RUA CARLOS JOSE BORSTENS - 50 AP.105 - A            11702750                                                            000104
2SR. CAIXA, APOS O VENCIMENTO COBRAR 2% DE MULTA                                 NAO RECEBER APOS 30 DIAS DO VENCIMENTO.                                                                                                                                                                                                         01051900000000000000105190000000000000       0090339900006270155507051916000105
100000000000000000000009033990000627000000000000000000000000010002020015464605191600000000002            2  01154646051911051900000001968720000000001N010519000000000000000000000000000000000000000000000000000000000000000100015464647864SONIA TERESA VOLPATO                    RUA PEDRO BADRA - 51 AP.73 - JABAQUARA -            04348090                                                            000107
2SR. CAIXA, APOS O VENCIMENTO COBRAR 2% DE MULTA                                 NAO RECEBER APOS 30 DIAS DO VENCIMENTO.                                                                                                                                                                                                         01051900000000000000105190000000000000       0090339900006270154646051916000108
100000000000000000000009033990000627000000000000000000000000010002020008657805191500000000002            2  01086578051911051900000001948960000000001N010519000000000000000000000000000000000000000000000000000000000000000100008657886855ARLINDO DA CRUZ                         AVENIDA ARICANDUVA - 8.256 AP.54 BL.10 -            03951220                                                            000110
2SR. CAIXA, APOS O VENCIMENTO COBRAR 2% DE MULTA                                 NAO RECEBER APOS 30 DIAS DO VENCIMENTO.                                                                                                                                                                                                         01051900000000000000105190000000000000       0090339900006270086578051915000111
100000000000000000000009033990000627000000000000000000000000010002020004265705191500000000002            2  01042657051909051900000002609060000000001N010519000000000000000000000000000000000000000000000000000000000000000100004265781713ALEXANDRE CASADO COSTA                  RUA CARLOS JOSE BORSTENS - 50 AP.33 - AV            11702750                                                            000113
2SR. CAIXA, APOS O VENCIMENTO COBRAR 2% DE MULTA                                 NAO RECEBER APOS 30 DIAS DO VENCIMENTO.                                                                                                                                                                                                         01051900000000000000105190000000000000       0090339900006270042657051915000114
100000000000000000000009033990000627000000000000000000000000010002020059735105191300000000002            2  01597351051909051900000001102000000000001N010519000000000000000000000000000000000000000000000000000000000000000100059735180863HELIO JOSE MARQUES                      RUA MARTIM AFONSO DE SOUZA - 1007 AP.102            11702790                                                            000116
2SR. CAIXA, APOS O VENCIMENTO COBRAR 2% DE MULTA                                 NAO RECEBER APOS 30 DIAS DO VENCIMENTO.                                                                                                                                                                                                         01051900000000000000105190000000000000       0090339900006270597351051913000117
100000000000000000000009033990000627000000000000000000000000010002020026347805191700000000002            2  01263478051911051900000002083400000000001N010519000000000000000000000000000000000000000000000000000000000000000100026347872862VALDECI SILVA MEIRELES                  RUA JOSE BATISTA DA SILVA - 292 - JARDIM            06851470                                                            000119
2SR. CAIXA, APOS O VENCIMENTO COBRAR 2% DE MULTA                                 NAO RECEBER APOS 30 DIAS DO VENCIMENTO.                                                                                                                                                                                                         01051900000000000000105190000000000000       0090339900006270263478051917000120
100000000000000000000009033990000627000000000000000000000000010002020025443605191800000000002            2  01254436051909051900000003774150000000001N010519000000000000000000000000000000000000000000000000000000000000000100025443691830SILVANETE PEREIRA CARNELOS              RUA CARLOS JOSE BORSTENS - 50 AP.102 - A            11702750                                                            000122
2SR. CAIXA, APOS O VENCIMENTO COBRAR 2% DE MULTA                                 NAO RECEBER APOS 30 DIAS DO VENCIMENTO.                                                                                                                                                                                                         01051900000000000000105190000000000000       0090339900006270254436051918000123
100000000000000000000009033990000627000000000000000000000000010002020013135205191800000000002            2  01131352051911051900000001914130000000001N010519000000000000000000000000000000000000000000000000000000000000000100013135261859EDUARDO ZANOLA                          RUA ROLANDO PIETRO BONINI - 46 - JARDIM             09781040                                                            000125
2SR. CAIXA, APOS O VENCIMENTO COBRAR 2% DE MULTA                                 NAO RECEBER APOS 30 DIAS DO VENCIMENTO.                                                                                                                                                                                                         01051900000000000000105190000000000000       0090339900006270131352051918000126
100000000000000000000009033990000627000000000000000000000000010002020009797605191900000000002            2  01097976051911051900000001864160000000001N010519000000000000000000000000000000000000000000000000000000000000000100009797626857RICARDO SOBRAL DE OLIVEIRA              RUA 23 DE MAIO - 139 AP.32 - VILA MIRIM             11704690                                                            000128
2SR. CAIXA, APOS O VENCIMENTO COBRAR 2% DE MULTA                                 NAO RECEBER APOS 30 DIAS DO VENCIMENTO.                                                                                                                                                                                                         01051900000000000000105190000000000000       0090339900006270097976051919000129
100000000000000000000009033990000627000000000000000000000000010002020004767605191P00000000002            2  01047676051909051900000003187660000000001N010519000000000000000000000000000000000000000000000000000000000000000100004767679893ORLANDO GRANDE FILHO                    RUA ORLANDO MIGLIARI - 101 - JARDIM OURO            19906140                                                            000131
2SR. CAIXA, APOS O VENCIMENTO COBRAR 2% DE MULTA                                 NAO RECEBER APOS 30 DIAS DO VENCIMENTO.                                                                                                                                                                                                         01051900000000000000105190000000000000       009033990000627004767605191P000132
100000000000000000000009033990000627000000000000000000000000010002020006512505191700000000002            2  01065125051911051900000001676890000000001N010519000000000000000000000000000000000000000000000000000000000000000100006512547870MARIA DO CARMO FAGUNDES DOS REIS        RUA CARLOS MALCHER - 98 - PARQUE EDU CHA            02232020                                                            000134
2SR. CAIXA, APOS O VENCIMENTO COBRAR 2% DE MULTA                                 NAO RECEBER APOS 30 DIAS DO VENCIMENTO.                                                                                                                                                                                                         01051900000000000000105190000000000000       0090339900006270065125051917000135
100000000000000000000009033990000627000000000000000000000000010002020022728405191P00000000002            2  01227284051911051900000002017130000000001N010519000000000000000000000000000000000000000000000000000000000000000100022728497842WILLIAN DE SOUZA MELLO                  RUA PEDRO AMERICO - 208 AP.42 BL.B - CAM            11075401                                                            000137
2SR. CAIXA, APOS O VENCIMENTO COBRAR 2% DE MULTA                                 NAO RECEBER APOS 30 DIAS DO VENCIMENTO.                                                                                                                                                                                                         01051900000000000000105190000000000000       009033990000627022728405191P000138
100000000000000000000009033990000627000000000000000000000000010002020016909705191400000000002            2  01169097051911051900000001782520000000001N010519000000000000000000000000000000000000000000000000000000000000000100016909746805EDIVALDO SANTANA DOS SANTOS             ESTRADA JOAO GASPAR DELGADO - 80 AP.213             08536100                                                            000140
2SR. CAIXA, APOS O VENCIMENTO COBRAR 2% DE MULTA                                 NAO RECEBER APOS 30 DIAS DO VENCIMENTO.                                                                                                                                                                                                         01051900000000000000105190000000000000       0090339900006270169097051914000141
100000000000000000000009033990000627000000000000000000000000010002020022036005191100000000002            2  01220360051909051900000002768050000000001N010519000000000000000000000000000000000000000000000000000000000000000100022036003818DERLIS TERAN QUIROGA ROGATO             RUA JOAO RIBEIRO - 709 AP.61 - CAMPESTRE            09070250                                                            000143
2SR. CAIXA, APOS O VENCIMENTO COBRAR 2% DE MULTA                                 NAO RECEBER APOS 30 DIAS DO VENCIMENTO.                                                                                                                                                                                                         01051900000000000000105190000000000000       0090339900006270220360051911000144
9                                                                                                                                                                                                                                                                                                                                                                                                         000145