01REMESSA01COBRANCA       00000000000004991454AIRES CONSTRUTORA E INCORPORAD237BRADESCO       011018        MX0000082                                                                                                                                                                                                                                                                                     000001
100000000000000000000009077090001674800000000000000000000000010002100094852210181400000000002            2  01948522101810101800000002247370000000001N011018000000000000000000000000000000000000000000000000000000000000000100094852294887GISELDA MENON                           RUA OTAVIO BARRETO - 105 - VILA SANTISTA            02560080                                                            000002
2SR. CAIXA, APOS O VENCIMENTO COBRAR 10% DE MULTA                                NAO RECEBER APOS 30 DIAS DO VENCIMENTO.                                                                                                                                                                                                         01101800000000000000110180000000000000       0090770900016748948522101814000003
100000000000000000000009077090001674800000000000000000000000010002100006485910181000000000002            2  01064859101810101800000003446740000000001N011018000000000000000000000000000000000000000000000000000000000000000100006485911820CELIO MANUEL  MELIM SANTO               RUA JUVENAL FERREIRA  - 85 AP.61 - VILA             03512040                                                            000005
2SR. CAIXA, APOS O VENCIMENTO COBRAR 10% DE MULTA                                NAO RECEBER APOS 30 DIAS DO VENCIMENTO.                                                                                                                                                                                                         01101800000000000000110180000000000000       0090770900016748064859101810000006
100000000000000000000009077090001674800000000000000000000000010002100004693810181P00000000002            2  01046938101810101800000003004090000000001N011018000000000000000000000000000000000000000000000000000000000000000100004693857823NIVALDO BARTOLOMEU FERREIRA             MNS JOSE MARINONI  - 33 - SANTO AMARO -             04430350                                                            000008
2SR. CAIXA, APOS O VENCIMENTO COBRAR 10% DE MULTA                                NAO RECEBER APOS 30 DIAS DO VENCIMENTO.                                                                                                                                                                                                         01101800000000000000110180000000000000       009077090001674804693810181P000009
100000000000000000000009077090001674800000000000000000000000010002100027993110181900000000002            2  01279931101810101800000002860560000000001N011018000000000000000000000000000000000000000000000000000000000000000100027993108853DALVA JESUS RODRIGUES CABRAL            RUA CRISTOVAO COLOMBO GONCALVES - 97 - C            04811050                                                            000011
2SR. CAIXA, APOS O VENCIMENTO COBRAR 10% DE MULTA                                NAO RECEBER APOS 30 DIAS DO VENCIMENTO.                                                                                                                                                                                                         01101800000000000000110180000000000000       0090770900016748279931101819000012
100000000000000000000009077090001674800000000000000000000000010002100000455410181800000000002            2  01004554101810101800000002971460000000001N011018000000000000000000000000000000000000000000000000000000000000000100000455495831PAULO HENRIQUE LOURENCO                 RUA FIGUEIRA  - 237 - CIDADE DAS FLORES             06184060                                                            000014
2SR. CAIXA, APOS O VENCIMENTO COBRAR 10% DE MULTA                                NAO RECEBER APOS 30 DIAS DO VENCIMENTO.                                                                                                                                                                                                         01101800000000000000110180000000000000       0090770900016748004554101818000015
100000000000000000000009077090001674800000000000000000000000010002100006140010181900000000002            2  01061400101810101800000003685020000000001N011018000000000000000000000000000000000000000000000000000000000000000100006140049857MARIA ALBANI DA SILVA EUSEBIO           RUA ORLANDO SEGALA - 108 - JARDIM ADRIAN            07135190                                                            000017
2SR. CAIXA, APOS O VENCIMENTO COBRAR 10% DE MULTA                                NAO RECEBER APOS 30 DIAS DO VENCIMENTO.                                                                                                                                                                                                         01101800000000000000110180000000000000       0090770900016748061400101819000018
100000000000000000000009077090001674800000000000000000000000010002100002324710181300000000002            2  01023247101810101800000003613580000000001N011018000000000000000000000000000000000000000000000000000000000000000100002324785897IZILDA NAPOLI                           RUA MONTE CASTELO - 295 AP.71 - AVIACAO             11702720                                                            000020
2SR. CAIXA, APOS O VENCIMENTO COBRAR 10% DE MULTA                                NAO RECEBER APOS 30 DIAS DO VENCIMENTO.                                                                                                                                                                                                         01101800000000000000110180000000000000       0090770900016748023247101813000021
100000000000000000000009077090001674800000000000000000000000010002100007768710181800000000002            2  01077687101810101800000003743370000000001N011018000000000000000000000000000000000000000000000000000000000000000100007768713826FATIMA LUZIA BIANCHI                    DR. OLIDAIR AMBROSIO - 1487 AP.03 - CENT            14160170                                                            000023
2SR. CAIXA, APOS O VENCIMENTO COBRAR 10% DE MULTA                                NAO RECEBER APOS 30 DIAS DO VENCIMENTO.                                                                                                                                                                                                         01101800000000000000110180000000000000       0090770900016748077687101818000024
100000000000000000000009077090001674800000000000000000000000010002100021716810181500000000002            2  01217168101810101800000003687800000000001N011018000000000000000000000000000000000000000000000000000000000000000100021716847800DANIELLE FAGUNDES DE A.MATOS            CONDE MOREIRA LIMA - 644 - JARDIM JABAQU            04384032                                                            000026
2SR. CAIXA, APOS O VENCIMENTO COBRAR 10% DE MULTA                                NAO RECEBER APOS 30 DIAS DO VENCIMENTO.                                                                                                                                                                                                         01101800000000000000110180000000000000       0090770900016748217168101815000027
100000000000000000000009077090001674800000000000000000000000010002100085416910181900000000002            2  01854169101810101800000003126190000000001N011018000000000000000000000000000000000000000000000000000000000000000100085416940891ANTONIO DE SOUSA MENDES                 RUA MONTE CASTELO - 296 AP.52 - AVIACAO             11702720                                                            000029
2SR. CAIXA, APOS O VENCIMENTO COBRAR 10% DE MULTA                                NAO RECEBER APOS 30 DIAS DO VENCIMENTO.                                                                                                                                                                                                         01101800000000000000110180000000000000       0090770900016748854169101819000030
100000000000000000000009077090001674800000000000000000000000010002100005678010181200000000002            2  01056780101810101800000003255890000000001N011018000000000000000000000000000000000000000000000000000000000000000100005678057863FABIO MOREIRA CAMPOS                    RUA FLORENCIO DA SILVA - 284 - VILA LIBA            03738070                                                            000032
2SR. CAIXA, APOS O VENCIMENTO COBRAR 10% DE MULTA                                NAO RECEBER APOS 30 DIAS DO VENCIMENTO.                                                                                                                                                                                                         01101800000000000000110180000000000000       0090770900016748056780101812000033
100000000000000000000009077090001674800000000000000000000000010002100007784410181900000000002            2  01077844101810101800000003287680000000001N011018000000000000000000000000000000000000000000000000000000000000000100007784496885GUILHERME LEONARDO DO NASCIMENTO        COMENDADOR RUBENS RONCARE - 127 - PONTE             11530120                                                            000035
2SR. CAIXA, APOS O VENCIMENTO COBRAR 10% DE MULTA                                NAO RECEBER APOS 30 DIAS DO VENCIMENTO.                                                                                                                                                                                                         01101800000000000000110180000000000000       0090770900016748077844101819000036
100000000000000000000009077090001674800000000000000000000000010002100016348210181900000000002            2  01163482101810101800000003176360000000001N011018000000000000000000000000000000000000000000000000000000000000000100016348237885AILTON LORENA                           AVENIDA BRASILIA - 194 - BELA VISTA - SA            09180260                                                            000038
2SR. CAIXA, APOS O VENCIMENTO COBRAR 10% DE MULTA                                NAO RECEBER APOS 30 DIAS DO VENCIMENTO.                                                                                                                                                                                                         01101800000000000000110180000000000000       0090770900016748163482101819000039
100000000000000000000009077090001674800000000000000000000000010002100081218410181200000000002            2  01812184101810101800000003065590000000001N011018000000000000000000000000000000000000000000000000000000000000000100081218486953OSMAR DA COSTA                          RUA MONTE CASTELO - 295 AP.33 - AVIACAO             11702720                                                            000041
2SR. CAIXA, APOS O VENCIMENTO COBRAR 10% DE MULTA                                NAO RECEBER APOS 30 DIAS DO VENCIMENTO.                                                                                                                                                                                                         01101800000000000000110180000000000000       0090770900016748812184101812000042
100000000000000000000009077090001674800000000000000000000000010002100004981810181500000000002            2  01049818101810101800000003481940000000001N011018000000000000000000000000000000000000000000000000000000000000000100004981884850SILVIO PAULINO GONCALVES                MARIA DE CASTRO MESQUITA - 84 AP.103 BLO            07110040                                                            000044
2SR. CAIXA, APOS O VENCIMENTO COBRAR 10% DE MULTA                                NAO RECEBER APOS 30 DIAS DO VENCIMENTO.                                                                                                                                                                                                         01101800000000000000110180000000000000       0090770900016748049818101815000045
100000000000000000000009077090001674800000000000000000000000010002100019282510181P00000000002            2  01192825101810101800000002285550000000001N011018000000000000000000000000000000000000000000000000000000000000000100019282546837FABIO LEANDRO DE FREITAS ASSIS          RUA BASSIM NAGIB TRABULSI - 97 - PONTA D            11030540                                                            000047
2SR. CAIXA, APOS O VENCIMENTO COBRAR 10% DE MULTA                                NAO RECEBER APOS 30 DIAS DO VENCIMENTO.                                                                                                                                                                                                         01101800000000000000110180000000000000       009077090001674819282510181P000048
100000000000000000000009077090001674800000000000000000000000010002100008423410181300000000002            2  01084234101810101800000003176290000000001N011018000000000000000000000000000000000000000000000000000000000000000100008423485811EDSON LUIZ NUNES                        RUA NOEMIA PEDROSO BUENO - 41 - JARDIM G            09360440                                                            000050
2SR. CAIXA, APOS O VENCIMENTO COBRAR 10% DE MULTA                                NAO RECEBER APOS 30 DIAS DO VENCIMENTO.                                                                                                                                                                                                         01101800000000000000110180000000000000       0090770900016748084234101813000051
100000000000000000000009077090001674800000000000000000000000010002100003010510181200000000002            2  01030105101810101800000003675370000000001N011018000000000000000000000000000000000000000000000000000000000000000100003010502877GIZELA VIEIRA BARROS                    RUA GIACOMO DALCIN - 157 - MAUA - SAO CA            09580350                                                            000053
2SR. CAIXA, APOS O VENCIMENTO COBRAR 10% DE MULTA                                NAO RECEBER APOS 30 DIAS DO VENCIMENTO.                                                                                                                                                                                                         01101800000000000000110180000000000000       0090770900016748030105101812000054
100000000000000000000009077090001674800000000000000000000000010002100009777210181P00000000002            2  01097772101810101800000002881640000000001N011018000000000000000000000000000000000000000000000000000000000000000100009777281889CARLITA DE FIGUEIREDO CARVALHO          AVENIDA ALBERTO DE ALMEIDA VINHAS - 4462            11701350                                                            000056
2SR. CAIXA, APOS O VENCIMENTO COBRAR 10% DE MULTA                                NAO RECEBER APOS 30 DIAS DO VENCIMENTO.                                                                                                                                                                                                         01101800000000000000110180000000000000       009077090001674809777210181P000057
100000000000000000000009077090001674800000000000000000000000010002100004213010181700000000002            2  01042130101810101800000003422190000000001N011018000000000000000000000000000000000000000000000000000000000000000100004213020894ELIETE DRUGOVICH DE LIMA                RUA OSVALDO CRUZ - 141 AP.144-B - SANTA             09541270                                                            000059
2SR. CAIXA, APOS O VENCIMENTO COBRAR 10% DE MULTA                                NAO RECEBER APOS 30 DIAS DO VENCIMENTO.                                                                                                                                                                                                         01101800000000000000110180000000000000       0090770900016748042130101817000060
100000000000000000000009077090001674800000000000000000000000010002100043122810181100000000002            2  01431228101810101800000002332550000000001N011018000000000000000000000000000000000000000000000000000000000000000100043122850800ANTONIO JOAQUIM GOES                    ANTONIO DOAS DA SILVA - 412 - VILA AMALI            02618110                                                            000062
2SR. CAIXA, APOS O VENCIMENTO COBRAR 10% DE MULTA                                NAO RECEBER APOS 30 DIAS DO VENCIMENTO.                                                                                                                                                                                                         01101800000000000000110180000000000000       0090770900016748431228101811000063
100000000000000000000009077090001674800000000000000000000000010002100028309510181400000000002            2  01283095101810101800000002731030000000001N011018000000000000000000000000000000000000000000000000000000000000000100028309524803DEISE RIBEIRO BARBOSA                   RUA CANDIDO JOSE DE ANDRADE - 173 - ERME            03807030                                                            000065
2SR. CAIXA, APOS O VENCIMENTO COBRAR 10% DE MULTA                                NAO RECEBER APOS 30 DIAS DO VENCIMENTO.                                                                                                                                                                                                         01101800000000000000110180000000000000       0090770900016748283095101814000066
100000000000000000000009077090001674800000000000000000000000010002100011277910181400000000002            2  01112779101810101800000003241420000000001N011018000000000000000000000000000000000000000000000000000000000000000100011277908893JOSE AILTON LOPES DE AZEVEDO            RUA MAESTRO JOAO SEPE - 19 - JARDIM MARI            04181030                                                            000068
2SR. CAIXA, APOS O VENCIMENTO COBRAR 10% DE MULTA                                NAO RECEBER APOS 30 DIAS DO VENCIMENTO.                                                                                                                                                                                                         01101800000000000000110180000000000000       0090770900016748112779101814000069
100000000000000000000009077090001674800000000000000000000000010002100025215110181100000000002            2  01252151101810101800000002444440000000001N011018000000000000000000000000000000000000000000000000000000000000000100025215106886KLEBER LUIZ DOS SANTOS                  RUA MONTE CASTELO - 262 AP.15 - AVIACAO             11702720                                                            000071
2SR. CAIXA, APOS O VENCIMENTO COBRAR 10% DE MULTA                                NAO RECEBER APOS 30 DIAS DO VENCIMENTO.                                                                                                                                                                                                         01101800000000000000110180000000000000       0090770900016748252151101811000072
100000000000000000000009077090001674800000000000000000000000010002100090206710181900000000002            2  01902067101810101800000002730330000000001N011018000000000000000000000000000000000000000000000000000000000000000100090206789815NEREIDE RODRIGUES FERREIRA              AVENIDA PADRE ESTANISLAU DE CAMPOS - 205            03590060                                                            000074
2SR. CAIXA, APOS O VENCIMENTO COBRAR 10% DE MULTA                                NAO RECEBER APOS 30 DIAS DO VENCIMENTO.                                                                                                                                                                                                         01101800000000000000110180000000000000       0090770900016748902067101819000075
100000000000000000000009077090001674800000000000000000000000010002100029150710181700000000002            2  01291507101810101800000003195910000000001N011018000000000000000000000000000000000000000000000000000000000000000100029150742833ANA DEISE SANTOS DE ALMEIDA             RUA MONTE CASTELO - 296 AP.121 - AVIACAO            11702720                                                            000077
2SR. CAIXA, APOS O VENCIMENTO COBRAR 10% DE MULTA                                NAO RECEBER APOS 30 DIAS DO VENCIMENTO.                                                                                                                                                                                                         01101800000000000000110180000000000000       0090770900016748291507101817000078
100000000000000000000009077090001674800000000000000000000000010002100000811710181200000000002            2  01008117101810101800000002632420000000001N011018000000000000000000000000000000000000000000000000000000000000000100000811752801SERGIO BUENO DA SILVA                   RUA MONTE CASTELO - 262 AP.75 - AVIACAO             11702720                                                            000080
2SR. CAIXA, APOS O VENCIMENTO COBRAR 10% DE MULTA                                NAO RECEBER APOS 30 DIAS DO VENCIMENTO.                                                                                                                                                                                                         01101800000000000000110180000000000000       0090770900016748008117101812000081
100000000000000000000009077090001674800000000000000000000000010002100018344810181900000000002            2  01183448101810101800000003346360000000001N011018000000000000000000000000000000000000000000000000000000000000000100018344803888MARCELO BERNARDO                        RUA MONTE CASTELO - 262 AP.84 - AVIACAO             11702720                                                            000083
2SR. CAIXA, APOS O VENCIMENTO COBRAR 10% DE MULTA                                NAO RECEBER APOS 30 DIAS DO VENCIMENTO.                                                                                                                                                                                                         01101800000000000000110180000000000000       0090770900016748183448101819000084
100000000000000000000009077090001674800000000000000000000000010002100004004310181600000000002            2  01040043101810101800000004691510000000001N011018000000000000000000000000000000000000000000000000000000000000000100004004328896VANDERLEI  MARTINS DE ALMEIDA           RUA MONSENHOR TABOSA - 03 - PARQUE CISPE            03819300                                                            000086
2SR. CAIXA, APOS O VENCIMENTO COBRAR 10% DE MULTA                                NAO RECEBER APOS 30 DIAS DO VENCIMENTO.                                                                                                                                                                                                         01101800000000000000110180000000000000       0090770900016748040043101816000087
100000000000000000000009077090001674800000000000000000000000010002100005133010181000000000002            2  01051330101810101800000003204450000000001N011018000000000000000000000000000000000000000000000000000000000000000100005133053860VICENTE ARCIPRETE JUNIOR                RUA JOSE SIMOES FERREIRA FILHO - 80 - JA            06040090                                                            000089
2SR. CAIXA, APOS O VENCIMENTO COBRAR 10% DE MULTA                                NAO RECEBER APOS 30 DIAS DO VENCIMENTO.                                                                                                                                                                                                         01101800000000000000110180000000000000       0090770900016748051330101810000090
100000000000000000000009077090001674800000000000000000000000010002100056660210181500000000002            2  01566602101810101800000000779410000000001N011018000000000000000000000000000000000000000000000000000000000000000100056660235868JOSE DA SILVA                           RUA MONTE CASTELO - 296 AP.32 - AVIACAO             11702720                                                            000092
2SR. CAIXA, APOS O VENCIMENTO COBRAR 10% DE MULTA                                NAO RECEBER APOS 30 DIAS DO VENCIMENTO.                                                                                                                                                                                                         01101800000000000000110180000000000000       0090770900016748566602101815000093
100000000000000000000009077090001674800000000000000000000000010002100016339410181700000000002            2  01163394101810101800000002830550000000001N011018000000000000000000000000000000000000000000000000000000000000000100016339432832ALEX MONTEIRO DA SILVA                  RUA IVA MOURA LIMA - 04 - JARDIM MIRNA I            04855540                                                            000095
2SR. CAIXA, APOS O VENCIMENTO COBRAR 10% DE MULTA                                NAO RECEBER APOS 30 DIAS DO VENCIMENTO.                                                                                                                                                                                                         01101800000000000000110180000000000000       0090770900016748163394101817000096
100000000000000000000009077090001674800000000000000000000000010002100031803810181400000000002            2  01318038101810101800000002890560000000001N011018000000000000000000000000000000000000000000000000000000000000000100031803864877ELEILSON FELIPPE SANTOS                 RUA SANTA GREGORIA - 193 - CIDADE DUTRA             04806030                                                            000098
2SR. CAIXA, APOS O VENCIMENTO COBRAR 10% DE MULTA                                NAO RECEBER APOS 30 DIAS DO VENCIMENTO.                                                                                                                                                                                                         01101800000000000000110180000000000000       0090770900016748318038101814000099
100000000000000000000009077090001674800000000000000000000000010002100026032610181200000000002            2  01260326101810101800000001989160000000001N011018000000000000000000000000000000000000000000000000000000000000000100026032632857MARILA LOPES PEREIRA                    AVENIDA LUIZ GISHOKEM - 1761 AP.13 BL.05            05831315                                                            000101
2SR. CAIXA, APOS O VENCIMENTO COBRAR 10% DE MULTA                                NAO RECEBER APOS 30 DIAS DO VENCIMENTO.                                                                                                                                                                                                         01101800000000000000110180000000000000       0090770900016748260326101812000102
100000000000000000000009077090001674800000000000000000000000010002100063064510181900000000002            2  01630645101810101800000003444630000000001N011018000000000000000000000000000000000000000000000000000000000000000100063064537849ANTONIO APARECIDO DA SILVA DESTEFANO    RUA PROFESSOR TEODORO BRAGA - 46 - VILA             02966020                                                            000104
2SR. CAIXA, APOS O VENCIMENTO COBRAR 10% DE MULTA                                NAO RECEBER APOS 30 DIAS DO VENCIMENTO.                                                                                                                                                                                                         01101800000000000000110180000000000000       0090770900016748630645101819000105
100000000000000000000009077090001674800000000000000000000000010002100010107710181400000000002            2  01101077101810101800000003300980000000001N011018000000000000000000000000000000000000000000000000000000000000000100010107711834VALDEMAR FECCHIO                        RUA DOUTOR MARTINS DE OLIVEIRA - 529 AP.            05638030                                                            000107
2SR. CAIXA, APOS O VENCIMENTO COBRAR 10% DE MULTA                                NAO RECEBER APOS 30 DIAS DO VENCIMENTO.                                                                                                                                                                                                         01101800000000000000110180000000000000       0090770900016748101077101814000108
100000000000000000000009077090001674800000000000000000000000010002100003330710181300000000002            2  01033307101810101800000004246520000000001N011018000000000000000000000000000000000000000000000000000000000000000100003330791837MARLI DA SILVA BARBOSA                  RUA GLICERIO CERQUEIRA LEITE - 151 - JAR            03675040                                                            000110
2SR. CAIXA, APOS O VENCIMENTO COBRAR 10% DE MULTA                                NAO RECEBER APOS 30 DIAS DO VENCIMENTO.                                                                                                                                                                                                         01101800000000000000110180000000000000       0090770900016748033307101813000111
100000000000000000000009077090001674800000000000000000000000010002100008931010181100000000002            2  01089310101810101800000001726160000000001N011018000000000000000000000000000000000000000000000000000000000000000100008931031874MARIA MARINHO DE OLIVEIRA               AVENIDA 9 DE JULHO - 1854 AP.81 - BELA V            01312001                                                            000113
2SR. CAIXA, APOS O VENCIMENTO COBRAR 10% DE MULTA                                NAO RECEBER APOS 30 DIAS DO VENCIMENTO.                                                                                                                                                                                                         01101800000000000000110180000000000000       0090770900016748089310101811000114
100000000000000000000009077090001674800000000000000000000000010002100005920510181800000000002            2  01059205101810101800000002005480000000001N011018000000000000000000000000000000000000000000000000000000000000000100005920579846SONIA MARIA VALDO POLLO                 RUA PALMIRA CERVI BARBARO - 797 - CIDADE            13214370                                                            000116
2SR. CAIXA, APOS O VENCIMENTO COBRAR 10% DE MULTA                                NAO RECEBER APOS 30 DIAS DO VENCIMENTO.                                                                                                                                                                                                         01101800000000000000110180000000000000       0090770900016748059205101818000117
100000000000000000000009077090001674800000000000000000000000010002100002494110181900000000002            2  01024941101810101800000003015320000000001N011018000000000000000000000000000000000000000000000000000000000000000100002494107881CIRO FRANCISCO MARCHI DURIGON           RUA MONTE CASTELO - 262 AP.115 - AVIACAO            11702720                                                            000119
2SR. CAIXA, APOS O VENCIMENTO COBRAR 10% DE MULTA                                NAO RECEBER APOS 30 DIAS DO VENCIMENTO.                                                                                                                                                                                                         01101800000000000000110180000000000000       0090770900016748024941101819000120
100000000000000000000009077090001674800000000000000000000000010002100007002310181600000000002            2  01070023101810101800000002964220000000001N011018000000000000000000000000000000000000000000000000000000000000000100007002345869DOMINGOS DE BRITO GALVAO                RUA MONTE CASTELO - 262 AP.44 - AVIACAO             11702720                                                            000122
2SR. CAIXA, APOS O VENCIMENTO COBRAR 10% DE MULTA                                NAO RECEBER APOS 30 DIAS DO VENCIMENTO.                                                                                                                                                                                                         01101800000000000000110180000000000000       0090770900016748070023101816000123
100000000000000000000009077090001674800000000000000000000000010002100009346810181600000000002            2  01093468101810101800000001234750000000001N011018000000000000000000000000000000000000000000000000000000000000000100009346863862NELSON DE SOUZA SANTOS                  RUA PRIMEIRA CRUZ - 90 - PARQUE INDEPEND            03236060                                                            000125
2SR. CAIXA, APOS O VENCIMENTO COBRAR 10% DE MULTA                                NAO RECEBER APOS 30 DIAS DO VENCIMENTO.                                                                                                                                                                                                         01101800000000000000110180000000000000       0090770900016748093468101816000126
100000000000000000000009077090001674800000000000000000000000010002100016299010181P00000000002            2  01162990101810101800000002857510000000001N011018000000000000000000000000000000000000000000000000000000000000000100016299008857FERNANDO CESAR CARVALHO                 AVENIDA MARCONDES DE BRITO - 1340 AP.74             03509000                                                            000128
2SR. CAIXA, APOS O VENCIMENTO COBRAR 10% DE MULTA                                NAO RECEBER APOS 30 DIAS DO VENCIMENTO.                                                                                                                                                                                                         01101800000000000000110180000000000000       009077090001674816299010181P000129
100000000000000000000009077090001674800000000000000000000000010002100031082810181300000000002            2  01310828101810101800000002871350000000001N011018000000000000000000000000000000000000000000000000000000000000000100031082898880VANESSA DOS SANTOS NEIVA                RUA MONTE CASTELO - 296 AP.33 - BAIRRO A            11702720                                                            000131
2SR. CAIXA, APOS O VENCIMENTO COBRAR 10% DE MULTA                                NAO RECEBER APOS 30 DIAS DO VENCIMENTO.                                                                                                                                                                                                         01101800000000000000110180000000000000       0090770900016748310828101813000132
100000000000000000000009077090001674800000000000000000000000010002100065895310181300000000002            2  01658953101810101800000001748250000000001N011018000000000000000000000000000000000000000000000000000000000000000100065895304834MARINHO BARBOSA CUNHA                   AVENIDA EDU CHAVES - 639 AP.43 - PARQUE             02229000                                                            000134
2SR. CAIXA, APOS O VENCIMENTO COBRAR 10% DE MULTA                                NAO RECEBER APOS 30 DIAS DO VENCIMENTO.                                                                                                                                                                                                         01101800000000000000110180000000000000       0090770900016748658953101813000135
9                                                                                                                                                                                                                                                                                                                                                                                                         000136