01REMESSA01COBRANCA       00000000000008017025HB SANTOS CONSTRUTORA E INCORP237BRADESCO       010623        MX0000178                                                                                                                                                                                                                                                                                     000001
100000000000000000000009033990000627000000000000000000000000010002020016479006231600000000002            2  01164790062309062300000005404280000000001N010623000000000000000000000000000000000000000000000000000000000000000100016479002806LOURDES PEREIRA DE QUEIROZ SECANECHIA   RUA PAULINO CURSI - 437 - CIDADE SAO MAT            03960060                                                            000002
2SR. CAIXA, APOS O VENCIMENTO COBRAR 2% DE MULTA                                 NAO RECEBER APOS 30 DIAS DO VENCIMENTO.                                                                                                                                                                                                         01062300000000000000106230000000000000       0090339900006270164790062316000003
100000000000000000000009033990000627000000000000000000000000010002020017229706232600000000002            2  01172297062309062300000004112610000000001N010623000000000000000000000000000000000000000000000000000000000000000100017229751802BERENICE VIEIRA KERSTING                RUA ATIBAIA - 17 AP.417 - BAIRRO IMPERAD            11707380                                                            000005
2SR. CAIXA, APOS O VENCIMENTO COBRAR 2% DE MULTA                                 NAO RECEBER APOS 30 DIAS DO VENCIMENTO.                                                                                                                                                                                                         01062300000000000000106230000000000000       0090339900006270172297062326000006
100000000000000000000009033990000627000000000000000000000000010002020009361406231300000000002            2  01093614062309062300000003923510000000001N010623000000000000000000000000000000000000000000000000000000000000000100009361471805JOSE BARBOSA DA SILVA                   RUA ALFREDO INACIO TRINDADE  - 60 AP.44             02344100                                                            000008
2SR. CAIXA, APOS O VENCIMENTO COBRAR 2% DE MULTA                                 NAO RECEBER APOS 30 DIAS DO VENCIMENTO.                                                                                                                                                                                                         01062300000000000000106230000000000000       0090339900006270093614062313000009
100000000000000000000009033990000627000000000000000000000000010002020012756906231700000000002            2  01127569062309062300000003386850000000001N010623000000000000000000000000000000000000000000000000000000000000000100012756959812ITAMAR JUVENAL DIAS DA SILVA            RUA ELISEU REINALDO MORAES VIEIRA - 90 A            02858000                                                            000011
2SR. CAIXA, APOS O VENCIMENTO COBRAR 2% DE MULTA                                 NAO RECEBER APOS 30 DIAS DO VENCIMENTO.                                                                                                                                                                                                         01062300000000000000106230000000000000       0090339900006270127569062317000012
100000000000000000000009033990000627000000000000000000000000010002020029433606231000000000002            2  01294336062311062300000002808260000000001N010623000000000000000000000000000000000000000000000000000000000000000100029433631897MARIO MUNIZ                             RUA JOSE CALIXTO DO CARMO - 286 AP.53 -             11702690                                                            000014
2SR. CAIXA, APOS O VENCIMENTO COBRAR 2% DE MULTA                                 NAO RECEBER APOS 30 DIAS DO VENCIMENTO.                                                                                                                                                                                                         01062300000000000000106230000000000000       0090339900006270294336062310000015
100000000000000000000009033990000627000000000000000000000000010002020005029806231300000000002            2  01050298062309062300000003453090000000001N010623000000000000000000000000000000000000000000000000000000000000000100005029828885LAURINETE DA CONCEICAO DE NORONHA       RUA MARIA LUCIA DE TOLEDO LEITE MORAES -            04434040                                                            000017
2SR. CAIXA, APOS O VENCIMENTO COBRAR 2% DE MULTA                                 NAO RECEBER APOS 30 DIAS DO VENCIMENTO.                                                                                                                                                                                                         01062300000000000000106230000000000000       0090339900006270050298062313000018
100000000000000000000009033990000627000000000000000000000000010002020013388906231500000000002            2  01133889062311062300000002737600000000001N010623000000000000000000000000000000000000000000000000000000000000000100013388936889NEUTON DE SOUZA RAMOS                   RUA JOSE CALIXTO DO CARMO - 286 AP.61 -             11702690                                                            000020
2SR. CAIXA, APOS O VENCIMENTO COBRAR 2% DE MULTA                                 NAO RECEBER APOS 30 DIAS DO VENCIMENTO.                                                                                                                                                                                                         01062300000000000000106230000000000000       0090339900006270133889062315000021
100000000000000000000009033990000627000000000000000000000000010002020012774906231500000000002            2  01127749062311062300000002789020000000001N010623000000000000000000000000000000000000000000000000000000000000000100012774906865JOSE MILTON SANTIAGO                    RUA BATATAIS - 47 - CIDADE ESTELA - POA             08563140                                                            000023
2SR. CAIXA, APOS O VENCIMENTO COBRAR 2% DE MULTA                                 NAO RECEBER APOS 30 DIAS DO VENCIMENTO.                                                                                                                                                                                                         01062300000000000000106230000000000000       0090339900006270127749062315000024
100000000000000000000009033990000627000000000000000000000000010002020005613806231500000000002            2  01056138062311062300000002565120000000001N010623000000000000000000000000000000000000000000000000000000000000000100005613843805NILZA MARIA DE OLIVEIRA                 RUA JOSE GONCALVES DE FREITAS - 66 C2 -             08210550                                                            000026
2SR. CAIXA, APOS O VENCIMENTO COBRAR 2% DE MULTA                                 NAO RECEBER APOS 30 DIAS DO VENCIMENTO.                                                                                                                                                                                                         01062300000000000000106230000000000000       0090339900006270056138062315000027
100000000000000000000009033990000627000000000000000000000000010002020007574906231500000000002            2  01075749062311062300000002633030000000001N010623000000000000000000000000000000000000000000000000000000000000000100007574936889JORGE LUCIANO PEREIRA BORRIELLO         RUA JOSE CALIXTO DO CARMO - 286 AP.54 -             11702690                                                            000029
2SR. CAIXA, APOS O VENCIMENTO COBRAR 2% DE MULTA                                 NAO RECEBER APOS 30 DIAS DO VENCIMENTO.                                                                                                                                                                                                         01062300000000000000106230000000000000       0090339900006270075749062315000030
100000000000000000000009033990000627000000000000000000000000010002020008214906231800000000002            2  01082149062311062300000002672980000000001N010623000000000000000000000000000000000000000000000000000000000000000100008214973830JAMIL CHALA                             RUA JOSE CALIXTO DO CARMO - 286 AP.22 -             11702690                                                            000032
2SR. CAIXA, APOS O VENCIMENTO COBRAR 2% DE MULTA                                 NAO RECEBER APOS 30 DIAS DO VENCIMENTO.                                                                                                                                                                                                         01062300000000000000106230000000000000       0090339900006270082149062318000033
100000000000000000000009033990000627000000000000000000000000010002020032495006231500000000002            2  01324950062311062300000002995420000000001N010623000000000000000000000000000000000000000000000000000000000000000100032495004881PAULO EDUARDO DOS SANTOS                RUA REPUBLICA DO IRAQUE - 1119 - CAMPO B            04611002                                                            000035
2SR. CAIXA, APOS O VENCIMENTO COBRAR 2% DE MULTA                                 NAO RECEBER APOS 30 DIAS DO VENCIMENTO.                                                                                                                                                                                                         01062300000000000000106230000000000000       0090339900006270324950062315000036
100000000000000000000009033990000627000000000000000000000000010002020016498006231200000000002            2  01164980062311062300000002627050000000001N010623000000000000000000000000000000000000000000000000000000000000000100016498053810GILMA CEZARIO GARCIA CORRITORI          RUA LAURENTINO XAVIER DOS SANTOS - 336 -            08240740                                                            000038
2SR. CAIXA, APOS O VENCIMENTO COBRAR 2% DE MULTA                                 NAO RECEBER APOS 30 DIAS DO VENCIMENTO.                                                                                                                                                                                                         01062300000000000000106230000000000000       0090339900006270164980062312000039
100000000000000000000009033990000627000000000000000000000000010002020029339006231100000000002            2  01293390062311062300000002809190000000001N010623000000000000000000000000000000000000000000000000000000000000000100029339051831RONALD DIDOFF                           RUA CORONEL FERREIRA BRAGA - 188 - VILA             03522010                                                            000041
2SR. CAIXA, APOS O VENCIMENTO COBRAR 2% DE MULTA                                 NAO RECEBER APOS 30 DIAS DO VENCIMENTO.                                                                                                                                                                                                         01062300000000000000106230000000000000       0090339900006270293390062311000042
100000000000000000000009033990000627000000000000000000000000010002020017357806231300000000002            2  01173578062311062300000002975180000000001N010623000000000000000000000000000000000000000000000000000000000000000100017357859894MARCIO GUIMARAES                        RUA GENERAL CAMARA - 188 SALA 11 - CENTR            11010120                                                            000044
2SR. CAIXA, APOS O VENCIMENTO COBRAR 2% DE MULTA                                 NAO RECEBER APOS 30 DIAS DO VENCIMENTO.                                                                                                                                                                                                         01062300000000000000106230000000000000       0090339900006270173578062313000045
100000000000000000000009033990000627000000000000000000000000010002020010563006231300000000002            2  01105630062311062300000003051240000000001N010623000000000000000000000000000000000000000000000000000000000000000100010563033878VERA LUCIA RIBEIRO LONGANEZI            RUA DOS CAMARES - 150 AP.24 BL.02 - CARA            02068030                                                            000047
2SR. CAIXA, APOS O VENCIMENTO COBRAR 2% DE MULTA                                 NAO RECEBER APOS 30 DIAS DO VENCIMENTO.                                                                                                                                                                                                         01062300000000000000106230000000000000       0090339900006270105630062313000048
100000000000000000000009033990000627000000000000000000000000010002020005529606231800000000002            2  01055296062311062300000002768880000000001N010623000000000000000000000000000000000000000000000000000000000000000100005529616801JOAQUIM JORGE DA COSTA                  RUA JOSE CALIXTO DO CARMO - 286 AP.106 -            11702690                                                            000050
2SR. CAIXA, APOS O VENCIMENTO COBRAR 2% DE MULTA                                 NAO RECEBER APOS 30 DIAS DO VENCIMENTO.                                                                                                                                                                                                         01062300000000000000106230000000000000       0090339900006270055296062318000051
100000000000000000000009033990000627000000000000000000000000010002020015550706231400000000002            2  01155507062309062300000002617440000000001N010623000000000000000000000000000000000000000000000000000000000000000100015550706806MARY MIWA                               RUA CARLOS JOSE BORSTENS - 50 AP.105 - A            11702750                                                            000053
2SR. CAIXA, APOS O VENCIMENTO COBRAR 2% DE MULTA                                 NAO RECEBER APOS 30 DIAS DO VENCIMENTO.                                                                                                                                                                                                         01062300000000000000106230000000000000       0090339900006270155507062314000054
100000000000000000000009033990000627000000000000000000000000010002020015464606231400000000002            2  01154646062311062300000002910760000000001N010623000000000000000000000000000000000000000000000000000000000000000100015464647864SONIA TERESA VOLPATO                    RUA JOSE CALIXTO DO CARMO - 286 AP.73 -             11702690                                                            000056
2SR. CAIXA, APOS O VENCIMENTO COBRAR 2% DE MULTA                                 NAO RECEBER APOS 30 DIAS DO VENCIMENTO.                                                                                                                                                                                                         01062300000000000000106230000000000000       0090339900006270154646062314000057
100000000000000000000009033990000627000000000000000000000000010002020008657806231300000000002            2  01086578062311062300000002881540000000001N010623000000000000000000000000000000000000000000000000000000000000000100008657886855ARLINDO DA CRUZ                         AVENIDA ARICANDUVA - 8.256 AP.54 BL.10 -            03951220                                                            000059
2SR. CAIXA, APOS O VENCIMENTO COBRAR 2% DE MULTA                                 NAO RECEBER APOS 30 DIAS DO VENCIMENTO.                                                                                                                                                                                                         01062300000000000000106230000000000000       0090339900006270086578062313000060
100000000000000000000009033990000627000000000000000000000000010002020059735106231100000000002            2  01597351062309062300000001629000000000001N010623000000000000000000000000000000000000000000000000000000000000000100059735180863HELIO JOSE MARQUES                      RUA MARTIM AFONSO DE SOUZA - 1007 AP.102            11702790                                                            000062
2SR. CAIXA, APOS O VENCIMENTO COBRAR 2% DE MULTA                                 NAO RECEBER APOS 30 DIAS DO VENCIMENTO.                                                                                                                                                                                                         01062300000000000000106230000000000000       0090339900006270597351062311000063
100000000000000000000009033990000627000000000000000000000000010002020026347806231500000000002            2  01263478062311062300000003080280000000001N010623000000000000000000000000000000000000000000000000000000000000000100026347872862VALDECI SILVA MEIRELES                  RUA JOSE BATISTA DA SILVA - 292 - JARDIM            06851470                                                            000065
2SR. CAIXA, APOS O VENCIMENTO COBRAR 2% DE MULTA                                 NAO RECEBER APOS 30 DIAS DO VENCIMENTO.                                                                                                                                                                                                         01062300000000000000106230000000000000       0090339900006270263478062315000066
100000000000000000000009033990000627000000000000000000000000010002020013135206231600000000002            2  01131352062311062300000002829980000000001N010623000000000000000000000000000000000000000000000000000000000000000100013135261859EDUARDO ZANOLA                          RUA ROLANDO PIETRO BONINI - 46 - JARDIM             09781040                                                            000068
2SR. CAIXA, APOS O VENCIMENTO COBRAR 2% DE MULTA                                 NAO RECEBER APOS 30 DIAS DO VENCIMENTO.                                                                                                                                                                                                         01062300000000000000106230000000000000       0090339900006270131352062316000069
100000000000000000000009033990000627000000000000000000000000010002020009797606231700000000002            2  01097976062311062300000002756090000000001N010623000000000000000000000000000000000000000000000000000000000000000100009797626857RICARDO SOBRAL DE OLIVEIRA              RUA 23 DE MAIO - 139 AP.32 - VILA MIRIM             11704690                                                            000071
2SR. CAIXA, APOS O VENCIMENTO COBRAR 2% DE MULTA                                 NAO RECEBER APOS 30 DIAS DO VENCIMENTO.                                                                                                                                                                                                         01062300000000000000106230000000000000       0090339900006270097976062317000072
100000000000000000000009033990000627000000000000000000000000010002020022728406231800000000002            2  01227284062311062300000002982310000000001N010623000000000000000000000000000000000000000000000000000000000000000100022728497842WILLIAN DE SOUZA MELLO                  RUA JOSE CALIXTO DO CARMO - 286 AP.111 -            11702690                                                            000074
2SR. CAIXA, APOS O VENCIMENTO COBRAR 2% DE MULTA                                 NAO RECEBER APOS 30 DIAS DO VENCIMENTO.                                                                                                                                                                                                         01062300000000000000106230000000000000       0090339900006270227284062318000075
100000000000000000000009033990000627000000000000000000000000010002020016909706231200000000002            2  01169097062311062300000002635420000000001N010623000000000000000000000000000000000000000000000000000000000000000100016909746805EDIVALDO SANTANA DOS SANTOS             ESTRADA JOAO GASPAR DELGADO - 80 AP.213             08536100                                                            000077
2SR. CAIXA, APOS O VENCIMENTO COBRAR 2% DE MULTA                                 NAO RECEBER APOS 30 DIAS DO VENCIMENTO.                                                                                                                                                                                                         01062300000000000000106230000000000000       0090339900006270169097062312000078
100000000000000000000009033990000627000000000000000000000000010002020022036006231P00000000002            2  01220360062309062300000004091740000000001N010623000000000000000000000000000000000000000000000000000000000000000100022036003818DERLIS TERAN QUIROGA ROGATO             RUA JOAO RIBEIRO - 320 AP.131SB - CAMPES            09070250                                                            000080
2SR. CAIXA, APOS O VENCIMENTO COBRAR 2% DE MULTA                                 NAO RECEBER APOS 30 DIAS DO VENCIMENTO.                                                                                                                                                                                                         01062300000000000000106230000000000000       009033990000627022036006231P000081
100000000000000000000009033990000627000000000000000000000000010002020017229706233400000000002            2  01172297062309062300000003948890000000001N010623000000000000000000000000000000000000000000000000000000000000000100017229751802BERENICE VIEIRA KERSTING                RUA ATIBAIA - 17 AP.417 - BAIRRO IMPERAD            11707380                                                            000083
2SR. CAIXA, APOS O VENCIMENTO COBRAR 2% DE MULTA                                 NAO RECEBER APOS 30 DIAS DO VENCIMENTO.                                                                                                                                                                                                         01062300000000000000106230000000000000       0090339900006270172297062334000084
100000000000000000000009033990000627000000000000000000000000010002020012475606231300000000002            2  01124756062311062300000002856680000000001N010623000000000000000000000000000000000000000000000000000000000000000100012475663820CELIDALVA GOES DE CARVALHO              RUA JOSE CALIXTO DO CARMO - 286 AP.91 -             11702690                                                            000086
2SR. CAIXA, APOS O VENCIMENTO COBRAR 2% DE MULTA                                 NAO RECEBER APOS 30 DIAS DO VENCIMENTO.                                                                                                                                                                                                         01062300000000000000106230000000000000       0090339900006270124756062313000087
100000000000000000000009033990000627000000000000000000000000010002020033451606231000000000002            2  01334516062311062300000002385510000000001N010623000000000000000000000000000000000000000000000000000000000000000100033451620839ARAO ELISIARIO  NUNES                   RUA JOSE CALIXTO DO CARMO - 286 AP.64 -             11702690                                                            000089
2SR. CAIXA, APOS O VENCIMENTO COBRAR 2% DE MULTA                                 NAO RECEBER APOS 30 DIAS DO VENCIMENTO.                                                                                                                                                                                                         01062300000000000000106230000000000000       0090339900006270334516062310000090
100000000000000000000009033990000627000000000000000000000000010002020011369106231900000000002            2  01113691062311062300000002605880000000001N010623000000000000000000000000000000000000000000000000000000000000000100011369165803ELIANA CORREA DE OLIVEIRA               RUA MAESTRO ZEFERINO SANTANA - 65 - VILA            18040010                                                            000092
2SR. CAIXA, APOS O VENCIMENTO COBRAR 2% DE MULTA                                 NAO RECEBER APOS 30 DIAS DO VENCIMENTO.                                                                                                                                                                                                         01062300000000000000106230000000000000       0090339900006270113691062319000093
100000000000000000000009033990000627000000000000000000000000010002020002253806231200000000002            2  01022538062311062300000002316110000000001N010623000000000000000000000000000000000000000000000000000000000000000100002253816809EDMILSON ALVES DA SILVA                 RUA JOSE CALIXTO DO CARMO - 286 AP.93 -             11702690                                                            000095
2SR. CAIXA, APOS O VENCIMENTO COBRAR 2% DE MULTA                                 NAO RECEBER APOS 30 DIAS DO VENCIMENTO.                                                                                                                                                                                                         01062300000000000000106230000000000000       0090339900006270022538062312000096
100000000000000000000009033990000627000000000000000000000000010002020037947006231400000000002            2  01379470062311062300000004113570000000001N010623000000000000000000000000000000000000000000000000000000000000000100037947070873BRUNO DE CAETANO MARRINHAS              AVENIDA GENERAL BARRETO DE MENEZES - 323            09791150                                                            000098
2SR. CAIXA, APOS O VENCIMENTO COBRAR 2% DE MULTA                                 NAO RECEBER APOS 30 DIAS DO VENCIMENTO.                                                                                                                                                                                                         01062300000000000000106230000000000000       0090339900006270379470062314000099
100000000000000000000009033990000627000000000000000000000000010002020037517706231200000000002            2  01375177062309062300000004339950000000001N010623000000000000000000000000000000000000000000000000000000000000000100037517785869RENATO JOSE DE LIMA MELO                RUA ARISTIDES LOBO - 148 AP.41 BLOCO 03             03041100                                                            000101
2SR. CAIXA, APOS O VENCIMENTO COBRAR 2% DE MULTA                                 NAO RECEBER APOS 30 DIAS DO VENCIMENTO.                                                                                                                                                                                                         01062300000000000000106230000000000000       0090339900006270375177062312000102
100000000000000000000009033990000627000000000000000000000000010002020070367906231300000000002            2  01703679062311062300000002174980000000001N010623000000000000000000000000000000000000000000000000000000000000000100070367949849TEODOMIRO ALVES DOS SANTOS              RUA ANDRE PAZ - 13 - JARDIM SANTO ANDRE             08390230                                                            000104
2SR. CAIXA, APOS O VENCIMENTO COBRAR 2% DE MULTA                                 NAO RECEBER APOS 30 DIAS DO VENCIMENTO.                                                                                                                                                                                                         01062300000000000000106230000000000000       0090339900006270703679062313000105
100000000000000000000009033990000627000000000000000000000000010002020004410806231200000000002            2  01044108062309062300000003224630000000001N010623000000000000000000000000000000000000000000000000000000000000000100004410802860LUIZ ALBERTO MARINHO                    RUA DA INDEPENDENCIA - 706 AP.41B - CAMB            01524000                                                            000107
2SR. CAIXA, APOS O VENCIMENTO COBRAR 2% DE MULTA                                 NAO RECEBER APOS 30 DIAS DO VENCIMENTO.                                                                                                                                                                                                         01062300000000000000106230000000000000       0090339900006270044108062312000108
100000000000000000000009033990000627000000000000000000000000010002020004767606231800000000002            2  01047676062309062300000004304780000000001N010623000000000000000000000000000000000000000000000000000000000000000100004767679893ORLANDO GRANDE FILHO                    RUA ORLANDO MIGLIARI - 101 - JARDIM OURO            19906140                                                            000110
2SR. CAIXA, APOS O VENCIMENTO COBRAR 2% DE MULTA                                 NAO RECEBER APOS 30 DIAS DO VENCIMENTO.                                                                                                                                                                                                         01062300000000000000106230000000000000       0090339900006270047676062318000111
100000000000000000000009033990000627000000000000000000000000010002020064677806231300000000002            2  01646778062309062300000003462870000000001N010623000000000000000000000000000000000000000000000000000000000000000100064677850887ANTONIO CARLOS DE OLIVEIRA              RUA DR.ANTONIO MAZILLI FILHO - 435 - PAR            02230070                                                            000113
2SR. CAIXA, APOS O VENCIMENTO COBRAR 2% DE MULTA                                 NAO RECEBER APOS 30 DIAS DO VENCIMENTO.                                                                                                                                                                                                         01062300000000000000106230000000000000       0090339900006270646778062313000114
100000000000000000000009033990000627000000000000000000000000010002020007328906231900000000002            2  01073289062309062300000004224920000000001N010623000000000000000000000000000000000000000000000000000000000000000100007328927836BENEDITO APARECIDO ROCHA                AVENIDA SENADOR JOSE ERMINIO DE MORAES -            02357002                                                            000116
2SR. CAIXA, APOS O VENCIMENTO COBRAR 2% DE MULTA                                 NAO RECEBER APOS 30 DIAS DO VENCIMENTO.                                                                                                                                                                                                         01062300000000000000106230000000000000       0090339900006270073289062319000117
100000000000000000000009033990000627000000000000000000000000010002020028082606231800000000002            2  01280826062311062300000002414740000000001N010623000000000000000000000000000000000000000000000000000000000000000100028082615869PRISCILA PEREIRA                        ALAMEDA AFONSO BOCCHIGLIERI - 184 - INTE            04445130                                                            000119
2SR. CAIXA, APOS O VENCIMENTO COBRAR 2% DE MULTA                                 NAO RECEBER APOS 30 DIAS DO VENCIMENTO.                                                                                                                                                                                                         01062300000000000000106230000000000000       0090339900006270280826062318000120
100000000000000000000009033990000627000000000000000000000000010002020058488606231600000000002            2  01584886062309062300000003158410000000001N010623000000000000000000000000000000000000000000000000000000000000000100058488618972ADAILTON ZANUTTO MORESCHI               R:RAPHAEL UNGARO - COND.RESERVA SERRA Q.            13212138                                                            000122
2SR. CAIXA, APOS O VENCIMENTO COBRAR 2% DE MULTA                                 NAO RECEBER APOS 30 DIAS DO VENCIMENTO.                                                                                                                                                                                                         01062300000000000000106230000000000000       0090339900006270584886062316000123
100000000000000000000009033990000627000000000000000000000000010002020002196006231000000000002            2  01021960062311062300000002375310000000001N010623000000000000000000000000000000000000000000000000000000000000000100002196012831VILEFORT DIAS BORGES                    RUA PORTO XAVIER - 189 AP.64 - VILA CARM            08210170                                                            000125
2SR. CAIXA, APOS O VENCIMENTO COBRAR 2% DE MULTA                                 NAO RECEBER APOS 30 DIAS DO VENCIMENTO.                                                                                                                                                                                                         01062300000000000000106230000000000000       0090339900006270021960062310000126
100000000000000000000009033990000627000000000000000000000000010002020031861506231900000000002            2  01318615062311062300000002468850000000001N010623000000000000000000000000000000000000000000000000000000000000000100031861586809VANIA TOMAZ                              -  -  -  -                                         00000000                                                            000128
2SR. CAIXA, APOS O VENCIMENTO COBRAR 2% DE MULTA                                 NAO RECEBER APOS 30 DIAS DO VENCIMENTO.                                                                                                                                                                                                         01062300000000000000106230000000000000       0090339900006270318615062319000129
100000000000000000000009033990000627000000000000000000000000010002020003104506231200000000002            2  01031045062309062300000009194010000000001N010623000000000000000000000000000000000000000000000000000000000000000100003104580804NELSON RODRIGUES                        RUA CARLOS JOSE BORSTENS - 50 AP.81 - AV            11702750                                                            000131
2SR. CAIXA, APOS O VENCIMENTO COBRAR 2% DE MULTA                                 NAO RECEBER APOS 30 DIAS DO VENCIMENTO.                                                                                                                                                                                                         01062300000000000000106230000000000000       0090339900006270031045062312000132
100000000000000000000009033990000627000000000000000000000000010002020007715306231000000000002            2  01077153062309062300000003884470000000001N010623000000000000000000000000000000000000000000000000000000000000000100007715360627NILTON RENNAN OLIVEIRA GOMES FILHO      RUA CARLOS JOSE BORSTENS - 50 AP.21 - AV            11702750                                                            000134
2SR. CAIXA, APOS O VENCIMENTO COBRAR 2% DE MULTA                                 NAO RECEBER APOS 30 DIAS DO VENCIMENTO.                                                                                                                                                                                                         01062300000000000000106230000000000000       0090339900006270077153062310000135
100000000000000000000009033990000627000000000000000000000000010002020007194006231100000000002            2  01071940062311062300000002760780000000001N010623000000000000000000000000000000000000000000000000000000000000000100007194010895RAUL AMANTINO KIRK DE SANCTIS           AVENIDA SANTA CATARINA - 756 AP.01 - VIL            04378000                                                            000137
2SR. CAIXA, APOS O VENCIMENTO COBRAR 2% DE MULTA                                 NAO RECEBER APOS 30 DIAS DO VENCIMENTO.                                                                                                                                                                                                         01062300000000000000106230000000000000       0090339900006270071940062311000138
100000000000000000000009033990000627000000000000000000000000010002020025738606231900000000002            2  01257386062309062300000005578940000000001N010623000000000000000000000000000000000000000000000000000000000000000100025738614810VILMAR JOSE PEREIRA                     ALAMEDA TIETE - 646 - CERQUEIRA CESAR -             01417020                                                            000140
2SR. CAIXA, APOS O VENCIMENTO COBRAR 2% DE MULTA                                 NAO RECEBER APOS 30 DIAS DO VENCIMENTO.                                                                                                                                                                                                         01062300000000000000106230000000000000       0090339900006270257386062319000141
100000000000000000000009033990000627000000000000000000000000010002020025738606232700000000002            2  01257386062309062300000005578910000000001N010623000000000000000000000000000000000000000000000000000000000000000100025738614810VILMAR JOSE PEREIRA                     ALAMEDA TIETE - 646 - CERQUEIRA CESAR -             01417020                                                            000143
2SR. CAIXA, APOS O VENCIMENTO COBRAR 2% DE MULTA                                 NAO RECEBER APOS 30 DIAS DO VENCIMENTO.                                                                                                                                                                                                         01062300000000000000106230000000000000       0090339900006270257386062327000144
100000000000000000000009033990000627000000000000000000000000010002020025738606233500000000002            2  01257386062309062300000005578920000000001N010623000000000000000000000000000000000000000000000000000000000000000100025738614810VILMAR JOSE PEREIRA                     ALAMEDA TIETE - 646 - CERQUEIRA CESAR -             01417020                                                            000146
2SR. CAIXA, APOS O VENCIMENTO COBRAR 2% DE MULTA                                 NAO RECEBER APOS 30 DIAS DO VENCIMENTO.                                                                                                                                                                                                         01062300000000000000106230000000000000       0090339900006270257386062335000147
100000000000000000000009033990000627000000000000000000000000010002020025738606234300000000002            2  01257386062309062300000005578930000000001N010623000000000000000000000000000000000000000000000000000000000000000100025738614810VILMAR JOSE PEREIRA                     ALAMEDA TIETE - 646 - CERQUEIRA CESAR -             01417020                                                            000149
2SR. CAIXA, APOS O VENCIMENTO COBRAR 2% DE MULTA                                 NAO RECEBER APOS 30 DIAS DO VENCIMENTO.                                                                                                                                                                                                         01062300000000000000106230000000000000       0090339900006270257386062343000150
100000000000000000000009033990000627000000000000000000000000010002020011141506231000000000002            2  01111415062311062300000002901080000000001N010623000000000000000000000000000000000000000000000000000000000000000100011141508869PAULO ROBERTO TUNES SILVA               RUA PETROBRAS - 405 CASA 07 - VILA ANTON            03474060                                                            000152
2SR. CAIXA, APOS O VENCIMENTO COBRAR 2% DE MULTA                                 NAO RECEBER APOS 30 DIAS DO VENCIMENTO.                                                                                                                                                                                                         01062300000000000000106230000000000000       0090339900006270111415062310000153
100000000000000000000009033990000627000000000000000000000000010002020012449106231600000000002            2  01124491062311062300000002923220000000001N010623000000000000000000000000000000000000000000000000000000000000000100012449104810GILBERTO DOS SANTOS JUNIOR              RUA ALMIRANTE TAMANDARE - 89 AP.143 - BA            09310350                                                            000155
2SR. CAIXA, APOS O VENCIMENTO COBRAR 2% DE MULTA                                 NAO RECEBER APOS 30 DIAS DO VENCIMENTO.                                                                                                                                                                                                         01062300000000000000106230000000000000       0090339900006270124491062316000156
100000000000000000000009033990000627000000000000000000000000010002020011261306231400000000002            2  01112613062309062300000003856670000000001N010623000000000000000000000000000000000000000000000000000000000000000100011261359844JOVANETE DOS SANTOS PASSOS              RUA FULVIO MORGANTI - 672 - JARDIM PARAI            02417170                                                            000158
2SR. CAIXA, APOS O VENCIMENTO COBRAR 2% DE MULTA                                 NAO RECEBER APOS 30 DIAS DO VENCIMENTO.                                                                                                                                                                                                         01062300000000000000106230000000000000       0090339900006270112613062314000159
100000000000000000000009033990000627000000000000000000000000010002020036279306231300000000002            2  01362793062309062300000003428330000000001N010623000000000000000000000000000000000000000000000000000000000000000100036279398838BRUNO DOCINI ORTEGA                     RUA GENERAL EUCLIDES FIGUEIREDO - 146 AP            11700780                                                            000161
2SR. CAIXA, APOS O VENCIMENTO COBRAR 2% DE MULTA                                 NAO RECEBER APOS 30 DIAS DO VENCIMENTO.                                                                                                                                                                                                         01062300000000000000106230000000000000       0090339900006270362793062313000162
100000000000000000000009033990000627000000000000000000000000010002020008475106231300000000002            2  01084751062309062300000003863830000000001N010623000000000000000000000000000000000000000000000000000000000000000100008475110819HELENA ROSA DOS SANTOS                  AVENIDA ZELIA - 278 CASA 02 - PARQUE DOS            06436000                                                            000164
2SR. CAIXA, APOS O VENCIMENTO COBRAR 2% DE MULTA                                 NAO RECEBER APOS 30 DIAS DO VENCIMENTO.                                                                                                                                                                                                         01062300000000000000106230000000000000       0090339900006270084751062313000165
9                                                                                                                                                                                                                                                                                                                                                                                                         000166