01REMESSA01COBRANCA       00000000000005316116AIRES CONSTRUTORA E INCORPORAD237BRADESCO       080424        MX0000240                                                                                                                                                                                                                                                                                     000001
100000000000000000000009002800441612000000000000000000000000010002020014386804241700000000002            2  01143868042425042400000002913650000000001N080424000000000000000000000000000000000000000000000000000000000000000100014386860134SEVERINO CARLOS DE OLIVEIRA             RUA MONTE CASTELO - 262 AP.54 - AVIACAO             11702720                                                            000002
2SR. CAIXA, APOS O VENCIMENTO COBRAR 2% DE MULTA                                 NAO RECEBER APOS 30 DIAS DO VENCIMENTO.                                                                                                                                                                                                         08042400000000000000804240000000000000       0090028004416120143868042417000003
100000000000000000000009002800441612000000000000000000000000010002020039393704241200000000002            2  01393937042425042400000002008170000000001N080424000000000000000000000000000000000000000000000000000000000000000100039393790850NAIRON RICARDO DE ARAUJO SANTOS         RUA NITEROI - 267 CASA 04 - JARDIM INDEP            11380350                                                            000005
2SR. CAIXA, APOS O VENCIMENTO COBRAR 2% DE MULTA                                 NAO RECEBER APOS 30 DIAS DO VENCIMENTO.                                                                                                                                                                                                         08042400000000000000804240000000000000       0090028004416120393937042412000006
9                                                                                                                                                                                                                                                                                                                                                                                                         000007