01REMESSA01COBRANCA       00000000000005316116AIRES CONSTRUTORA E INCORPORAD237BRADESCO       010521        MX0000170                                                                                                                                                                                                                                                                                     000001
100000000000000000000009002800441612000000000000000000000000010002100029380705211P00000000002            2  01293807052125052100000003617840000000001N010521000000000000000000000000000000000000000000000000000000000000000100029380708882EDUARDO MENDONCA DAMASCENO              RUA MONTE CASTELO - 296 AP.12 - AVIACAO             11702720                                                            000002
2SR. CAIXA, APOS O VENCIMENTO COBRAR 10% DE MULTA                                NAO RECEBER APOS 30 DIAS DO VENCIMENTO.                                                                                                                                                                                                         01052100000000000000105210000000000000       009002800441612029380705211P000003
100000000000000000000009002800441612000000000000000000000000010002100023988505211300000000002            2  01239885052125052100000003673500000000001N010521000000000000000000000000000000000000000000000000000000000000000100023988525634DALMY PIMENTA                           RUA JOAQUIM TELESFORO DE OLIVEIRA - 344             38061608                                                            000005
2SR. CAIXA, APOS O VENCIMENTO COBRAR 10% DE MULTA                                NAO RECEBER APOS 30 DIAS DO VENCIMENTO.                                                                                                                                                                                                         01052100000000000000105210000000000000       0090028004416120239885052113000006
100000000000000000000009002800441612000000000000000000000000010002100007975905211900000000002            2  01079759052125052100000003885010000000001N010521000000000000000000000000000000000000000000000000000000000000000100007975958808JOCY VIGNADO                            RUA PEDRO GONCALVES SOBRINHO - 568 - PAR            13098641                                                            000008
2SR. CAIXA, APOS O VENCIMENTO COBRAR 10% DE MULTA                                NAO RECEBER APOS 30 DIAS DO VENCIMENTO.                                                                                                                                                                                                         01052100000000000000105210000000000000       0090028004416120079759052119000009
100000000000000000000009002800441612000000000000000000000000010002100023132605211000000000002            2  01231326052125052100000002268260000000001N010521000000000000000000000000000000000000000000000000000000000000000100023132672882LEANDRO MORENO                          RUA MONTE CASTELO - 296 AP.64 - AVIACAO             11702720                                                            000011
2SR. CAIXA, APOS O VENCIMENTO COBRAR 10% DE MULTA                                NAO RECEBER APOS 30 DIAS DO VENCIMENTO.                                                                                                                                                                                                         01052100000000000000105210000000000000       0090028004416120231326052110000012
100000000000000000000009002800441612000000000000000000000000010002100099264605211P00000000002            2  01992646052125052100000003868340000000001N010521000000000000000000000000000000000000000000000000000000000000000100099264692800LEONTINO PINHEIRO DA SILVA              AVENIDA JOAO BATISTA FITIPALDI - 469 - V            08685000                                                            000014
2SR. CAIXA, APOS O VENCIMENTO COBRAR 10% DE MULTA                                NAO RECEBER APOS 30 DIAS DO VENCIMENTO.                                                                                                                                                                                                         01052100000000000000105210000000000000       009002800441612099264605211P000015
100000000000000000000009002800441612000000000000000000000000010002100000666305211000000000002            2  01006663052125052100000003731860000000001N010521000000000000000000000000000000000000000000000000000000000000000100000666344825LUIZ HENRIQUE DE CAMPOS                 RUA JOAO CARLOS CAVALCANTI REIS - 21 - J            02281206                                                            000017
2SR. CAIXA, APOS O VENCIMENTO COBRAR 10% DE MULTA                                NAO RECEBER APOS 30 DIAS DO VENCIMENTO.                                                                                                                                                                                                         01052100000000000000105210000000000000       0090028004416120006663052110000018
100000000000000000000009002800441612000000000000000000000000010002100029155005211000000000002            2  01291550052125052100000003940990000000001N010521000000000000000000000000000000000000000000000000000000000000000100029155026842DANIELA YOSHIDA                         RUA MONTE CASTELO - 262 AP.34 - AVIACAO             11702720                                                            000020
2SR. CAIXA, APOS O VENCIMENTO COBRAR 10% DE MULTA                                NAO RECEBER APOS 30 DIAS DO VENCIMENTO.                                                                                                                                                                                                         01052100000000000000105210000000000000       0090028004416120291550052110000021
100000000000000000000009002800441612000000000000000000000000010002100001204405211400000000002            2  01012044052125052100000003209390000000001N010521000000000000000000000000000000000000000000000000000000000000000100001204431809CEZAR TALAVERA JUNIOR                   RUA MAESTRO ARTURO DE ANGELIS  - 190 AP.            05139010                                                            000023
2SR. CAIXA, APOS O VENCIMENTO COBRAR 10% DE MULTA                                NAO RECEBER APOS 30 DIAS DO VENCIMENTO.                                                                                                                                                                                                         01052100000000000000105210000000000000       0090028004416120012044052114000024
100000000000000000000009002800441612000000000000000000000000010002100004227505211300000000002            2  01042275052125052100000004160330000000001N010521000000000000000000000000000000000000000000000000000000000000000100004227553970ALESSANDRO ISRAEL GOULART               RUA PROFESSORA CARLINDA RIBEIRO - 21 - F            02866200                                                            000026
2SR. CAIXA, APOS O VENCIMENTO COBRAR 10% DE MULTA                                NAO RECEBER APOS 30 DIAS DO VENCIMENTO.                                                                                                                                                                                                         01052100000000000000105210000000000000       0090028004416120042275052113000027
100000000000000000000009002800441612000000000000000000000000010002100060811405211700000000002            2  01608114052125052100000003834220000000001N010521000000000000000000000000000000000000000000000000000000000000000100060811420868HELIO BASSI                             AV.PARIS,575 - PRACA ANTONIO FIGUEROA -             11700082                                                            000029
2SR. CAIXA, APOS O VENCIMENTO COBRAR 10% DE MULTA                                NAO RECEBER APOS 30 DIAS DO VENCIMENTO.                                                                                                                                                                                                         01052100000000000000105210000000000000       0090028004416120608114052117000030
100000000000000000000009002800441612000000000000000000000000010002100001024705211700000000002            2  01010247052125052100000003628180000000001N010521000000000000000000000000000000000000000000000000000000000000000100001024794881CLAUDIO RODRIGUES                       RUA ARACATUBA - 242 - LAPA - SAO PAULO -            05058010                                                            000032
2SR. CAIXA, APOS O VENCIMENTO COBRAR 10% DE MULTA                                NAO RECEBER APOS 30 DIAS DO VENCIMENTO.                                                                                                                                                                                                         01052100000000000000105210000000000000       0090028004416120010247052117000033
100000000000000000000009002800441612000000000000000000000000010002100002225005211800000000002            2  01022250052125052100000005562500000000001N010521000000000000000000000000000000000000000000000000000000000000000100002225072841PEDRO EDUARDO DE AZEVEDO                RUA NATH ZILMAN - 46 - JARDIM SAMAMBAIA             07623085                                                            000035
2SR. CAIXA, APOS O VENCIMENTO COBRAR 10% DE MULTA                                NAO RECEBER APOS 30 DIAS DO VENCIMENTO.                                                                                                                                                                                                         01052100000000000000105210000000000000       0090028004416120022250052118000036
100000000000000000000009002800441612000000000000000000000000010002100022037505211600000000002            2  01220375052125052100000003870880000000001N010521000000000000000000000000000000000000000000000000000000000000000100022037552882ANDREIA CRISTINA FERNANDES DANTAS       PCA CASTRO ALVES - 163 AP.33 - VILA SAO             13224299                                                            000038
2SR. CAIXA, APOS O VENCIMENTO COBRAR 10% DE MULTA                                NAO RECEBER APOS 30 DIAS DO VENCIMENTO.                                                                                                                                                                                                         01052100000000000000105210000000000000       0090028004416120220375052116000039
100000000000000000000009002800441612000000000000000000000000010002100027198405211800000000002            2  01271984052125052100000002669720000000001N010521000000000000000000000000000000000000000000000000000000000000000100027198452809CRISTIANE AURELIANO DA SILVA MAIA       RUA MONTE CASTELO - 262 AP.25 - AVIACAO             11702720                                                            000041
2SR. CAIXA, APOS O VENCIMENTO COBRAR 10% DE MULTA                                NAO RECEBER APOS 30 DIAS DO VENCIMENTO.                                                                                                                                                                                                         01052100000000000000105210000000000000       0090028004416120271984052118000042
100000000000000000000009002800441612000000000000000000000000010002100021246205211100000000002            2  01212462052125052100000003258140000000001N010521000000000000000000000000000000000000000000000000000000000000000100021246231840ALEXANDRO DA CUNHA MIGUES               RUA DULCE - 71  - VILA CARRAO - SAO PAUL            03427040                                                            000044
2SR. CAIXA, APOS O VENCIMENTO COBRAR 10% DE MULTA                                NAO RECEBER APOS 30 DIAS DO VENCIMENTO.                                                                                                                                                                                                         01052100000000000000105210000000000000       0090028004416120212462052111000045
100000000000000000000009002800441612000000000000000000000000010002100018470505211100000000002            2  01184705052125052100000004793190000000001N010521000000000000000000000000000000000000000000000000000000000000000100018470520881SILVANA ALVES DE OLIVEIRA               RUA MONTE CASTELO - 262 AP.91 - AVIACAO             11702720                                                            000047
2SR. CAIXA, APOS O VENCIMENTO COBRAR 10% DE MULTA                                NAO RECEBER APOS 30 DIAS DO VENCIMENTO.                                                                                                                                                                                                         01052100000000000000105210000000000000       0090028004416120184705052111000048
100000000000000000000009002800441612000000000000000000000000010002100009297505211100000000002            2  01092975052125052100000003336960000000001N010521000000000000000000000000000000000000000000000000000000000000000100009297523846MARCOS ROBERTO DE CASTRO FERREIRA       RUA MONTE CASTELO - 262 AP.105 - AVIACAO            11702720                                                            000050
2SR. CAIXA, APOS O VENCIMENTO COBRAR 10% DE MULTA                                NAO RECEBER APOS 30 DIAS DO VENCIMENTO.                                                                                                                                                                                                         01052100000000000000105210000000000000       0090028004416120092975052111000051
100000000000000000000009002800441612000000000000000000000000010002100001164105211000000000002            2  01011641052125052100000004135270000000001N010521000000000000000000000000000000000000000000000000000000000000000100001164158864DAVID BLEY LACERDA                      RUA CONEGO ARAUJO MARCONDES - 188 - BAIR            02550080                                                            000053
2SR. CAIXA, APOS O VENCIMENTO COBRAR 10% DE MULTA                                NAO RECEBER APOS 30 DIAS DO VENCIMENTO.                                                                                                                                                                                                         01052100000000000000105210000000000000       0090028004416120011641052110000054
100000000000000000000009002800441612000000000000000000000000010002100031498005211400000000002            2  01314980052125052100000005025820000000001N010521000000000000000000000000000000000000000000000000000000000000000100031498008895POLIANE  SIBELE DA SILVA                PRACA GENERAL COSTA BARRETO - 56 AP.181             03325070                                                            000056
2SR. CAIXA, APOS O VENCIMENTO COBRAR 10% DE MULTA                                NAO RECEBER APOS 30 DIAS DO VENCIMENTO.                                                                                                                                                                                                         01052100000000000000105210000000000000       0090028004416120314980052114000057
100000000000000000000009002800441612000000000000000000000000010002100000588105211800000000002            2  01005881052125052100000002947730000000001N010521000000000000000000000000000000000000000000000000000000000000000100000588109860JOSE LIARTE GIANTE                      AVENIDA LUIZ GONZAGA DO AMARAL - 143 - J            09320630                                                            000059
2SR. CAIXA, APOS O VENCIMENTO COBRAR 10% DE MULTA                                NAO RECEBER APOS 30 DIAS DO VENCIMENTO.                                                                                                                                                                                                         01052100000000000000105210000000000000       0090028004416120005881052118000060
100000000000000000000009002800441612000000000000000000000000010002100014386805211000000000002            2  01143868052125052100000002358070000000001N010521000000000000000000000000000000000000000000000000000000000000000100014386860134SEVERINO CARLOS DE OLIVEIRA             RUA MONTE CASTELO - 262 AP.54 - AVIACAO             11702720                                                            000062
2SR. CAIXA, APOS O VENCIMENTO COBRAR 10% DE MULTA                                NAO RECEBER APOS 30 DIAS DO VENCIMENTO.                                                                                                                                                                                                         01052100000000000000105210000000000000       0090028004416120143868052110000063
100000000000000000000009002800441612000000000000000000000000010002100039393705211600000000002            2  01393937052125052100000001625220000000001N010521000000000000000000000000000000000000000000000000000000000000000100039393790850NAIRON RICARDO DE ARAUJO SANTOS         RUA NITEROI - 267 CASA 04 - JARDIM INDEP            11380350                                                            000065
2SR. CAIXA, APOS O VENCIMENTO COBRAR 10% DE MULTA                                NAO RECEBER APOS 30 DIAS DO VENCIMENTO.                                                                                                                                                                                                         01052100000000000000105210000000000000       0090028004416120393937052116000066
100000000000000000000009002800441612000000000000000000000000010002100004735205211500000000002            2  01047352052125052100000001676420000000001N010521000000000000000000000000000000000000000000000000000000000000000100004735273832DARIO LUIZ GONCALVES                    RUA MONTE CASTELO - 295 AP.113 - AVIACAO            11702720                                                            000068
2SR. CAIXA, APOS O VENCIMENTO COBRAR 10% DE MULTA                                NAO RECEBER APOS 30 DIAS DO VENCIMENTO.                                                                                                                                                                                                         01052100000000000000105210000000000000       0090028004416120047352052115000069
100000000000000000000009002800441612000000000000000000000000010002100019288705211400000000002            2  01192887052125052100000002188730000000001N010521000000000000000000000000000000000000000000000000000000000000000100019288787844EMERSON LUIZ MARTINEZ PEREIRA           RUA MONTE CASTELO - 296 AP.74 - AVIACAO             11702720                                                            000071
2SR. CAIXA, APOS O VENCIMENTO COBRAR 10% DE MULTA                                NAO RECEBER APOS 30 DIAS DO VENCIMENTO.                                                                                                                                                                                                         01052100000000000000105210000000000000       0090028004416120192887052114000072
9                                                                                                                                                                                                                                                                                                                                                                                                         000073