01REMESSA01COBRANCA       00000000000008017025HB SANTOS CONSTRUTORA E INCORP237BRADESCO       090524        MX0000202                                                                                                                                                                                                                                                                                     000001
100000000000000000000009033990000627000000000000000000000000010002020025035105241300000000002            2  01250351052424052400000003323170000000001N080524000000000000000000000000000000000000000000000000000000000000000100025035170802WANDERSON LUIS DE CARVALHO              RUA JOAQUIM GONCALVES ROCHA - 302 - JARD            02859030                                                            000002
2SR. CAIXA, APOS O VENCIMENTO COBRAR 2% DE MULTA                                 NAO RECEBER APOS 30 DIAS DO VENCIMENTO.                                                                                                                                                                                                         09052400000000000000905240000000000000       0090339900006270250351052413000003
100000000000000000000009033990000627000000000000000000000000010002020007294305241000000000002            2  01072943052424052400000004469680000000001N080524000000000000000000000000000000000000000000000000000000000000000100007294351805CLAUDENIR APARECIDO VACARI              RUA CARLOS JOSE BORSTENS - 50 AP.93 - AV            11702750                                                            000005
2SR. CAIXA, APOS O VENCIMENTO COBRAR 2% DE MULTA                                 NAO RECEBER APOS 30 DIAS DO VENCIMENTO.                                                                                                                                                                                                         09052400000000000000905240000000000000       0090339900006270072943052410000006
100000000000000000000009033990000627000000000000000000000000010002020002841705241500000000002            2  01028417052424052400000004103100000000001N080524000000000000000000000000000000000000000000000000000000000000000100002841756416LUCIANA PINHEIRO DE ASSIS NUNES         RUA RIO ACIMA - 81 - RIACHO GRANDE - SAO            09830100                                                            000008
2SR. CAIXA, APOS O VENCIMENTO COBRAR 2% DE MULTA                                 NAO RECEBER APOS 30 DIAS DO VENCIMENTO.                                                                                                                                                                                                         09052400000000000000905240000000000000       0090339900006270028417052415000009
100000000000000000000009033990000627000000000000000000000000010002020000991705241700000000002            2  01009917052424052400000003953630000000001N080524000000000000000000000000000000000000000000000000000000000000000100000991748808JAILSON BORGES DE ANDRADE               RUA IPIOBUNA - 45 - JARDIM CUMBICA - GUA            07240040                                                            000011
2SR. CAIXA, APOS O VENCIMENTO COBRAR 2% DE MULTA                                 NAO RECEBER APOS 30 DIAS DO VENCIMENTO.                                                                                                                                                                                                         09052400000000000000905240000000000000       0090339900006270009917052417000012
100000000000000000000009033990000627000000000000000000000000010002020022151605241300000000002            2  01221516052424052400000003930660000000001N080524000000000000000000000000000000000000000000000000000000000000000100022151666816SAMIR LIMA DE ARAUJO                    AVENIDA GUARAPIRANGA - 2616 AP.131 BL.14            04902005                                                            000014
2SR. CAIXA, APOS O VENCIMENTO COBRAR 2% DE MULTA                                 NAO RECEBER APOS 30 DIAS DO VENCIMENTO.                                                                                                                                                                                                         09052400000000000000905240000000000000       0090339900006270221516052413000015
100000000000000000000009033990000627000000000000000000000000010002020022313105241500000000002            2  01223131052426052400000003024000000000001N080524000000000000000000000000000000000000000000000000000000000000000100022313116824ROSA MARIA BRITO DA SILVA               RUA JOSE CALIXTO DO CARMO - 286 AP.41 -             11702690                                                            000017
2SR. CAIXA, APOS O VENCIMENTO COBRAR 2% DE MULTA                                 NAO RECEBER APOS 30 DIAS DO VENCIMENTO.                                                                                                                                                                                                         09052400000000000000905240000000000000       0090339900006270223131052415000018
100000000000000000000009033990000627000000000000000000000000010002020027538005241700000000002            2  01275380052426052400000003034510000000001N080524000000000000000000000000000000000000000000000000000000000000000100027538087249MARA LUCIA MENEZES DA COSTA             RUA LEILA  - 183 - ITAQUERA - SAO PAULO             08240020                                                            000020
2SR. CAIXA, APOS O VENCIMENTO COBRAR 2% DE MULTA                                 NAO RECEBER APOS 30 DIAS DO VENCIMENTO.                                                                                                                                                                                                         09052400000000000000905240000000000000       0090339900006270275380052417000021
100000000000000000000009033990000627000000000000000000000000010002020031278405241300000000002            2  01312784052424052400000003797120000000001N080524000000000000000000000000000000000000000000000000000000000000000100031278411836JEFFERSON DE PIERI PIRES ZAMUNER        RUA MANOEL ARCE - 277 - PARQUE BANCARIO             03922150                                                            000023
2SR. CAIXA, APOS O VENCIMENTO COBRAR 2% DE MULTA                                 NAO RECEBER APOS 30 DIAS DO VENCIMENTO.                                                                                                                                                                                                         09052400000000000000905240000000000000       0090339900006270312784052413000024
100000000000000000000009033990000627000000000000000000000000010002020019185705241500000000002            2  01191857052426052400000002761530000000001N080524000000000000000000000000000000000000000000000000000000000000000100019185769800AGUINALDO PESSOA DE LIMA                RUA JANUARIO ZINGARO - 252 AP.303 BL.04             05794300                                                            000026
2SR. CAIXA, APOS O VENCIMENTO COBRAR 2% DE MULTA                                 NAO RECEBER APOS 30 DIAS DO VENCIMENTO.                                                                                                                                                                                                         09052400000000000000905240000000000000       0090339900006270191857052415000027
100000000000000000000009033990000627000000000000000000000000010002020006422605241100000000002            2  01064226052424052400000004112400000000001N080524000000000000000000000000000000000000000000000000000000000000000100006422607881GERALDO ALVES DA SILVA                  RUA CARLOS JOSE BORSTENS - 50 AP.14 - AV            11702750                                                            000029
2SR. CAIXA, APOS O VENCIMENTO COBRAR 2% DE MULTA                                 NAO RECEBER APOS 30 DIAS DO VENCIMENTO.                                                                                                                                                                                                         09052400000000000000905240000000000000       0090339900006270064226052411000030
100000000000000000000009033990000627000000000000000000000000010002020033877105241300000000002            2  01338771052426052400000002788540000000001N080524000000000000000000000000000000000000000000000000000000000000000100033877129870HELDER FERREIRA VIANA                   RUA JOSE CALIXTO DO CARMO - 286 AP.35 -             11702690                                                            000032
2SR. CAIXA, APOS O VENCIMENTO COBRAR 2% DE MULTA                                 NAO RECEBER APOS 30 DIAS DO VENCIMENTO.                                                                                                                                                                                                         09052400000000000000905240000000000000       0090339900006270338771052413000033
100000000000000000000009033990000627000000000000000000000000010002020087573005241200000000002            2  01875730052426052400000002806440000000001N080524000000000000000000000000000000000000000000000000000000000000000100087573059604VANDERLEY DE ASSIS                      RUA ROMEU ALBANI - 268 - JARDIM PARQUE R            13803810                                                            000035
2SR. CAIXA, APOS O VENCIMENTO COBRAR 2% DE MULTA                                 NAO RECEBER APOS 30 DIAS DO VENCIMENTO.                                                                                                                                                                                                         09052400000000000000905240000000000000       0090339900006270875730052412000036
100000000000000000000009033990000627000000000000000000000000010002020010825505241P00000000002            2  01108255052426052400000002928660000000001N080524000000000000000000000000000000000000000000000000000000000000000100010825513847JOSE APARECIDO PEREIRA                  RUA UTUCURA - 120 - CIDADE IPAVA - SAO P            04950060                                                            000038
2SR. CAIXA, APOS O VENCIMENTO COBRAR 2% DE MULTA                                 NAO RECEBER APOS 30 DIAS DO VENCIMENTO.                                                                                                                                                                                                         09052400000000000000905240000000000000       009033990000627010825505241P000039
100000000000000000000009033990000627000000000000000000000000010002020039115105241100000000002            2  01391151052426052400000003610110000000001N080524000000000000000000000000000000000000000000000000000000000000000100039115139840LAIS CRISTINA RIBEIRO ANDO              RUA JOSE CALIXTO DO CARMO - 286 AP.65 -             11702690                                                            000041
2SR. CAIXA, APOS O VENCIMENTO COBRAR 2% DE MULTA                                 NAO RECEBER APOS 30 DIAS DO VENCIMENTO.                                                                                                                                                                                                         09052400000000000000905240000000000000       0090339900006270391151052411000042
100000000000000000000009033990000627000000000000000000000000010002020000593205241P00000000002            2  01005932052424052400000004426990000000001N080524000000000000000000000000000000000000000000000000000000000000000100000593293860WALTER HELIO BARBOSA FILHO              AVENIDA ANTONIO FREDERICO OZANAN - 9500             13214206                                                            000044
2SR. CAIXA, APOS O VENCIMENTO COBRAR 2% DE MULTA                                 NAO RECEBER APOS 30 DIAS DO VENCIMENTO.                                                                                                                                                                                                         09052400000000000000905240000000000000       009033990000627000593205241P000045
100000000000000000000009033990000627000000000000000000000000010002020006684605241400000000002            2  01066846052426052400000002974050000000001N080524000000000000000000000000000000000000000000000000000000000000000100006684623884LAUDINOR VIEIRA GARCIA                  RUA CANDIDO SALES - 374 - JARDIM PRESIDE            07172000                                                            000047
2SR. CAIXA, APOS O VENCIMENTO COBRAR 2% DE MULTA                                 NAO RECEBER APOS 30 DIAS DO VENCIMENTO.                                                                                                                                                                                                         09052400000000000000905240000000000000       0090339900006270066846052414000048
100000000000000000000009033990000627000000000000000000000000010002020011663505241500000000002            2  01116635052426052400000002995410000000001N080524000000000000000000000000000000000000000000000000000000000000000100011663589844MARIA SAVIO QUARELLO                    AVENIDA MENDONCA DRUMOND - 321 - JARDIM             03524030                                                            000050
2SR. CAIXA, APOS O VENCIMENTO COBRAR 2% DE MULTA                                 NAO RECEBER APOS 30 DIAS DO VENCIMENTO.                                                                                                                                                                                                         09052400000000000000905240000000000000       0090339900006270116635052415000051
100000000000000000000009033990000627000000000000000000000000010002020010083805241700000000002            2  01100838052426052400000002894070000000001N080524000000000000000000000000000000000000000000000000000000000000000100010083824855IONE FERREIRA COUTO DA SILVA            RUA JOSE RAGEL DE MESQUITA - 60 CS.01 -             07799999                                                            000053
2SR. CAIXA, APOS O VENCIMENTO COBRAR 2% DE MULTA                                 NAO RECEBER APOS 30 DIAS DO VENCIMENTO.                                                                                                                                                                                                         09052400000000000000905240000000000000       0090339900006270100838052417000054
100000000000000000000009033990000627000000000000000000000000010002020031010705241200000000002            2  01310107052426052400000002840010000000001N080524000000000000000000000000000000000000000000000000000000000000000100031010705890ANDRE GONZALEZ RABELLO                  RUA PARAIBA - 106 AP.61 - POMPEIA - SANT            11065470                                                            000056
2SR. CAIXA, APOS O VENCIMENTO COBRAR 2% DE MULTA                                 NAO RECEBER APOS 30 DIAS DO VENCIMENTO.                                                                                                                                                                                                         09052400000000000000905240000000000000       0090339900006270310107052412000057
100000000000000000000009033990000627000000000000000000000000010002020005351005241100000000002            2  01053510052426052400000002662790000000001N080524000000000000000000000000000000000000000000000000000000000000000100005351015897VALERIA ALVES MARCOLINO HINNIGER        RUA JOSE CALIXTO DO CARMO - 286 AP.92 -             11702690                                                            000059
2SR. CAIXA, APOS O VENCIMENTO COBRAR 2% DE MULTA                                 NAO RECEBER APOS 30 DIAS DO VENCIMENTO.                                                                                                                                                                                                         09052400000000000000905240000000000000       0090339900006270053510052411000060
100000000000000000000009033990000627000000000000000000000000010002020031898705241700000000002            2  01318987052424052400000004235910000000001N080524000000000000000000000000000000000000000000000000000000000000000100031898775800ANITA MARTINS COLOMBO                   RUA CARLOS JOSE BORSTENS - 50 AP.115 - A            11702750                                                            000062
2SR. CAIXA, APOS O VENCIMENTO COBRAR 2% DE MULTA                                 NAO RECEBER APOS 30 DIAS DO VENCIMENTO.                                                                                                                                                                                                         09052400000000000000905240000000000000       0090339900006270318987052417000063
100000000000000000000009033990000627000000000000000000000000010002020037983405241700000000002            2  01379834052426052400000003127960000000001N080524000000000000000000000000000000000000000000000000000000000000000100037983484801JOSE ERIVALDO SOUZA DO NASCIMENTO RAMOS RUA LETICIA - 250 - JARDIM GUARUJA - SAO            05877260                                                            000065
2SR. CAIXA, APOS O VENCIMENTO COBRAR 2% DE MULTA                                 NAO RECEBER APOS 30 DIAS DO VENCIMENTO.                                                                                                                                                                                                         09052400000000000000905240000000000000       0090339900006270379834052417000066
100000000000000000000009033990000627000000000000000000000000010002020056289205241800000000002            2  01562892052426052400000002362970000000001N080524000000000000000000000000000000000000000000000000000000000000000100056289286900PEDRO RIBEIRO                           RUA CONEGO MANOEL VAZ - 48 - SANTANA - S            02019050                                                            000068
2SR. CAIXA, APOS O VENCIMENTO COBRAR 2% DE MULTA                                 NAO RECEBER APOS 30 DIAS DO VENCIMENTO.                                                                                                                                                                                                         09052400000000000000905240000000000000       0090339900006270562892052418000069
100000000000000000000009033990000627000000000000000000000000010002020034812205241800000000002            2  01348122052424052400000005606420000000001N080524000000000000000000000000000000000000000000000000000000000000000100034812226880THAIS TORQUATO MIMOSO DE JESUS          RUA ARNALDO CINTRA - 416 AP.104 TORRE 2             03088000                                                            000071
2SR. CAIXA, APOS O VENCIMENTO COBRAR 2% DE MULTA                                 NAO RECEBER APOS 30 DIAS DO VENCIMENTO.                                                                                                                                                                                                         09052400000000000000905240000000000000       0090339900006270348122052418000072
100000000000000000000009033990000627000000000000000000000000010002020012849405241400000000002            2  01128494052426052400000005586960000000001N080524000000000000000000000000000000000000000000000000000000000000000100012849428809MOISES CLAUDIO DO ROSARIO               AVENIDA AYRTON SENNA - 255 CASA 01 - SAN            06149201                                                            000074
2SR. CAIXA, APOS O VENCIMENTO COBRAR 2% DE MULTA                                 NAO RECEBER APOS 30 DIAS DO VENCIMENTO.                                                                                                                                                                                                         09052400000000000000905240000000000000       0090339900006270128494052414000075
100000000000000000000009033990000627000000000000000000000000010002020026834505241600000000002            2  01268345052426052400000002842060000000001N080524000000000000000000000000000000000000000000000000000000000000000100026834550895RAQUEL CARDOSO JOAO                     RUA PEDROSO XAVIER - 277 AP.23 TORRE 01             02732020                                                            000077
2SR. CAIXA, APOS O VENCIMENTO COBRAR 2% DE MULTA                                 NAO RECEBER APOS 30 DIAS DO VENCIMENTO.                                                                                                                                                                                                         09052400000000000000905240000000000000       0090339900006270268345052416000078
100000000000000000000009033990000627000000000000000000000000010002020039540005241400000000002            2  01395400052426052400000002794120000000001N080524000000000000000000000000000000000000000000000000000000000000000100039540008816LUZINETE CLARINDO SILVA                 RUA DEINOS - 275 - BAIRRO CIDADE SATELIT            08340100                                                            000080
2SR. CAIXA, APOS O VENCIMENTO COBRAR 2% DE MULTA                                 NAO RECEBER APOS 30 DIAS DO VENCIMENTO.                                                                                                                                                                                                         09052400000000000000905240000000000000       0090339900006270395400052414000081
100000000000000000000009033990000627000000000000000000000000010002020039540005242200000000002            2  01395400052426052400000002794110000000001N080524000000000000000000000000000000000000000000000000000000000000000100039540008816LUZINETE CLARINDO SILVA                 RUA DEINOS - 275 - BAIRRO CIDADE SATELIT            08340100                                                            000083
2SR. CAIXA, APOS O VENCIMENTO COBRAR 2% DE MULTA                                 NAO RECEBER APOS 30 DIAS DO VENCIMENTO.                                                                                                                                                                                                         09052400000000000000905240000000000000       0090339900006270395400052422000084
100000000000000000000009033990000627000000000000000000000000010002020039540005243000000000002            2  01395400052426052400000002794100000000001N080524000000000000000000000000000000000000000000000000000000000000000100039540008816LUZINETE CLARINDO SILVA                 RUA DEINOS - 275 - BAIRRO CIDADE SATELIT            08340100                                                            000086
2SR. CAIXA, APOS O VENCIMENTO COBRAR 2% DE MULTA                                 NAO RECEBER APOS 30 DIAS DO VENCIMENTO.                                                                                                                                                                                                         09052400000000000000905240000000000000       0090339900006270395400052430000087
100000000000000000000009033990000627000000000000000000000000010002020039540005244900000000002            2  01395400052426052400000002794090000000001N080524000000000000000000000000000000000000000000000000000000000000000100039540008816LUZINETE CLARINDO SILVA                 RUA DEINOS - 275 - BAIRRO CIDADE SATELIT            08340100                                                            000089
2SR. CAIXA, APOS O VENCIMENTO COBRAR 2% DE MULTA                                 NAO RECEBER APOS 30 DIAS DO VENCIMENTO.                                                                                                                                                                                                         09052400000000000000905240000000000000       0090339900006270395400052449000090
100000000000000000000009033990000627000000000000000000000000010002020039540005245700000000002            2  01395400052426052400000002794080000000001N080524000000000000000000000000000000000000000000000000000000000000000100039540008816LUZINETE CLARINDO SILVA                 RUA DEINOS - 275 - BAIRRO CIDADE SATELIT            08340100                                                            000092
2SR. CAIXA, APOS O VENCIMENTO COBRAR 2% DE MULTA                                 NAO RECEBER APOS 30 DIAS DO VENCIMENTO.                                                                                                                                                                                                         09052400000000000000905240000000000000       0090339900006270395400052457000093
100000000000000000000009033990000627000000000000000000000000010002020003311005241100000000002            2  01033110052426052400000002909780000000001N080524000000000000000000000000000000000000000000000000000000000000000100003311030877SEBASTIAO SARUVA NETO                   RUA HAMILTON REGIS - 559 - BAIRRO DO LIM            08051440                                                            000095
2SR. CAIXA, APOS O VENCIMENTO COBRAR 2% DE MULTA                                 NAO RECEBER APOS 30 DIAS DO VENCIMENTO.                                                                                                                                                                                                         09052400000000000000905240000000000000       0090339900006270033110052411000096
100000000000000000000009033990000627000000000000000000000000010002020012478805241700000000002            2  01124788052424052400000004143230000000001N080524000000000000000000000000000000000000000000000000000000000000000100012478899809VITORIA BATISTA QUEIROZ                 RUA CARVALHO DE FREITAS - 255 AP.71A - V            05728030                                                            000098
2SR. CAIXA, APOS O VENCIMENTO COBRAR 2% DE MULTA                                 NAO RECEBER APOS 30 DIAS DO VENCIMENTO.                                                                                                                                                                                                         09052400000000000000905240000000000000       0090339900006270124788052417000099
100000000000000000000009033990000627000000000000000000000000010002020013184805241800000000002            2  01131848052426052400000002749680000000001N080524000000000000000000000000000000000000000000000000000000000000000100013184856810SYDNEY HENRIQUE GAMARANO JUNIOR         RUA JOSE CALIXTO DO CARMO - 286 AP.125 -            11702690                                                            000101
2SR. CAIXA, APOS O VENCIMENTO COBRAR 2% DE MULTA                                 NAO RECEBER APOS 30 DIAS DO VENCIMENTO.                                                                                                                                                                                                         09052400000000000000905240000000000000       0090339900006270131848052418000102
100000000000000000000009033990000627000000000000000000000000010002020097989905241100000000002            2  01979899052426052400000001910830000000001N080524000000000000000000000000000000000000000000000000000000000000000100097989924820NELSON LUIS BERRIBILLE                  RUA SILVEIRA IGNACIO SOBRINHO - 965 - VI            13560294                                                            000104
2SR. CAIXA, APOS O VENCIMENTO COBRAR 2% DE MULTA                                 NAO RECEBER APOS 30 DIAS DO VENCIMENTO.                                                                                                                                                                                                         09052400000000000000905240000000000000       0090339900006270979899052411000105
100000000000000000000009033990000627000000000000000000000000010002020097989905242P00000000002            2  01979899052426052400000001910820000000001N080524000000000000000000000000000000000000000000000000000000000000000100097989924820NELSON LUIS BERRIBILLE                  RUA SILVEIRA IGNACIO SOBRINHO - 965 - VI            13560294                                                            000107
2SR. CAIXA, APOS O VENCIMENTO COBRAR 2% DE MULTA                                 NAO RECEBER APOS 30 DIAS DO VENCIMENTO.                                                                                                                                                                                                         09052400000000000000905240000000000000       009033990000627097989905242P000108
100000000000000000000009033990000627000000000000000000000000010002020032341805241000000000002            2  01323418052424052400000004303670000000001N080524000000000000000000000000000000000000000000000000000000000000000100032341847803PRISCILA ALVES DE FRANCA MIRANDA        RUA CARLOS JOSE BORSTENS - 50 AP.91 - AV            11702750                                                            000110
2SR. CAIXA, APOS O VENCIMENTO COBRAR 2% DE MULTA                                 NAO RECEBER APOS 30 DIAS DO VENCIMENTO.                                                                                                                                                                                                         09052400000000000000905240000000000000       0090339900006270323418052410000111
100000000000000000000009033990000627000000000000000000000000010002020016050605241600000000002            2  01160506052424052400000003994640000000001N080524000000000000000000000000000000000000000000000000000000000000000100016050684898ANDRE RODRIGUES DE OLIVEIRA             RUA CORACAO PAULISTA - 14 - FAZENDA ITAI            08132430                                                            000113
2SR. CAIXA, APOS O VENCIMENTO COBRAR 2% DE MULTA                                 NAO RECEBER APOS 30 DIAS DO VENCIMENTO.                                                                                                                                                                                                         09052400000000000000905240000000000000       0090339900006270160506052416000114
100000000000000000000009033990000627000000000000000000000000010002020021464905241P00000000002            2  01214649052424052400000006295640000000001N080524000000000000000000000000000000000000000000000000000000000000000100021464965846ANDREA APARECIDA DE OLIVEIRA PECCI      RUA ANTONIO BOZ MARFIL - 103 - PARQUE DO            05396020                                                            000116
2SR. CAIXA, APOS O VENCIMENTO COBRAR 2% DE MULTA                                 NAO RECEBER APOS 30 DIAS DO VENCIMENTO.                                                                                                                                                                                                         09052400000000000000905240000000000000       009033990000627021464905241P000117
100000000000000000000009033990000627000000000000000000000000010002020003597505241P00000000002            2  01035975052426052400000002570060000000001N080524000000000000000000000000000000000000000000000000000000000000000100003597509827ANISIO FAUSTINO DE OLIVEIRA             RUA DOMINGOS DE MAMBRO - 5 CASA 20 - CIT            06040290                                                            000119
2SR. CAIXA, APOS O VENCIMENTO COBRAR 2% DE MULTA                                 NAO RECEBER APOS 30 DIAS DO VENCIMENTO.                                                                                                                                                                                                         09052400000000000000905240000000000000       009033990000627003597505241P000120
100000000000000000000009033990000627000000000000000000000000010002020018531505241900000000002            2  01185315052426052400000002276090000000001N080524000000000000000000000000000000000000000000000000000000000000000100018531558883FABIO HENRIQUE HADDAD                   RUA REGO BARROS - 815 T.A AP.56 - JARDIM            03460000                                                            000122
2SR. CAIXA, APOS O VENCIMENTO COBRAR 2% DE MULTA                                 NAO RECEBER APOS 30 DIAS DO VENCIMENTO.                                                                                                                                                                                                         09052400000000000000905240000000000000       0090339900006270185315052419000123
9                                                                                                                                                                                                                                                                                                                                                                                                         000124