01REMESSA01COBRANCA       00000000000008017025HB SANTOS CONSTRUTORA E INCORP237BRADESCO       010922        MX0000160                                                                                                                                                                                                                                                                                     000001
100000000000000000000009033990000627000000000000000000000000010002020016479009221500000000002            2  01164790092209092200000004978200000000001N010922000000000000000000000000000000000000000000000000000000000000000100016479002806LOURDES PEREIRA DE QUEIROZ SECANECHIA   RUA PAULINO CURSI - 437 - CIDADE SAO MAT            03960060                                                            000002
2SR. CAIXA, APOS O VENCIMENTO COBRAR 2% DE MULTA                                 NAO RECEBER APOS 30 DIAS DO VENCIMENTO.                                                                                                                                                                                                         01092200000000000000109220000000000000       0090339900006270164790092215000003
100000000000000000000009033990000627000000000000000000000000010002020017229709222500000000002            2  01172297092209092200000003788350000000001N010922000000000000000000000000000000000000000000000000000000000000000100017229751802BERENICE VIEIRA KERSTING                RUA ATIBAIA - 17 AP.417 - BAIRRO IMPERAD            11707380                                                            000005
2SR. CAIXA, APOS O VENCIMENTO COBRAR 2% DE MULTA                                 NAO RECEBER APOS 30 DIAS DO VENCIMENTO.                                                                                                                                                                                                         01092200000000000000109220000000000000       0090339900006270172297092225000006
100000000000000000000009033990000627000000000000000000000000010002020009361409221200000000002            2  01093614092209092200000003614180000000001N010922000000000000000000000000000000000000000000000000000000000000000100009361471805JOSE BARBOSA DA SILVA                   RUA ALFREDO INACIO TRINDADE  - 60 AP.44             02344100                                                            000008
2SR. CAIXA, APOS O VENCIMENTO COBRAR 2% DE MULTA                                 NAO RECEBER APOS 30 DIAS DO VENCIMENTO.                                                                                                                                                                                                         01092200000000000000109220000000000000       0090339900006270093614092212000009
100000000000000000000009033990000627000000000000000000000000010002020012756909221600000000002            2  01127569092209092200000003119830000000001N010922000000000000000000000000000000000000000000000000000000000000000100012756959812ITAMAR JUVENAL DIAS DA SILVA            RUA ELISEU REINALDO MORAES VIEIRA - 90 A            02858000                                                            000011
2SR. CAIXA, APOS O VENCIMENTO COBRAR 2% DE MULTA                                 NAO RECEBER APOS 30 DIAS DO VENCIMENTO.                                                                                                                                                                                                         01092200000000000000109220000000000000       0090339900006270127569092216000012
100000000000000000000009033990000627000000000000000000000000010002020029433609221P00000000002            2  01294336092211092200000002586690000000001N010922000000000000000000000000000000000000000000000000000000000000000100029433631897MARIO MUNIZ                             RUA JOSE CALIXTO DO CARMO - 286 AP.53 -             11702690                                                            000014
2SR. CAIXA, APOS O VENCIMENTO COBRAR 2% DE MULTA                                 NAO RECEBER APOS 30 DIAS DO VENCIMENTO.                                                                                                                                                                                                         01092200000000000000109220000000000000       009033990000627029433609221P000015
100000000000000000000009033990000627000000000000000000000000010002020005029809221200000000002            2  01050298092209092200000003180850000000001N010922000000000000000000000000000000000000000000000000000000000000000100005029828885LAURINETE DA CONCEICAO DE NORONHA       RUA MARIA LUCIA DE TOLEDO LEITE MORAES -            04434040                                                            000017
2SR. CAIXA, APOS O VENCIMENTO COBRAR 2% DE MULTA                                 NAO RECEBER APOS 30 DIAS DO VENCIMENTO.                                                                                                                                                                                                         01092200000000000000109220000000000000       0090339900006270050298092212000018
100000000000000000000009033990000627000000000000000000000000010002020013388909221400000000002            2  01133889092211092200000002521610000000001N010922000000000000000000000000000000000000000000000000000000000000000100013388936889NEUTON DE SOUZA RAMOS                   RUA JOSE CALIXTO DO CARMO - 286 AP.61 -             11702690                                                            000020
2SR. CAIXA, APOS O VENCIMENTO COBRAR 2% DE MULTA                                 NAO RECEBER APOS 30 DIAS DO VENCIMENTO.                                                                                                                                                                                                         01092200000000000000109220000000000000       0090339900006270133889092214000021
100000000000000000000009033990000627000000000000000000000000010002020012774909221400000000002            2  01127749092211092200000002568960000000001N010922000000000000000000000000000000000000000000000000000000000000000100012774906865JOSE MILTON SANTIAGO                    RUA BATATAIS - 47 - CIDADE ESTELA - POA             08563140                                                            000023
2SR. CAIXA, APOS O VENCIMENTO COBRAR 2% DE MULTA                                 NAO RECEBER APOS 30 DIAS DO VENCIMENTO.                                                                                                                                                                                                         01092200000000000000109220000000000000       0090339900006270127749092214000024
100000000000000000000009033990000627000000000000000000000000010002020005613809221400000000002            2  01056138092211092200000002362730000000001N010922000000000000000000000000000000000000000000000000000000000000000100005613843805NILZA MARIA DE OLIVEIRA                 RUA JOSE GONCALVES DE FREITAS - 66 C2 -             08210550                                                            000026
2SR. CAIXA, APOS O VENCIMENTO COBRAR 2% DE MULTA                                 NAO RECEBER APOS 30 DIAS DO VENCIMENTO.                                                                                                                                                                                                         01092200000000000000109220000000000000       0090339900006270056138092214000027
100000000000000000000009033990000627000000000000000000000000010002020007574909221400000000002            2  01075749092211092200000002425280000000001N010922000000000000000000000000000000000000000000000000000000000000000100007574936889JORGE LUCIANO PEREIRA BORRIELLO         RUA JOSE CALIXTO DO CARMO - 286 AP.54 -             11702690                                                            000029
2SR. CAIXA, APOS O VENCIMENTO COBRAR 2% DE MULTA                                 NAO RECEBER APOS 30 DIAS DO VENCIMENTO.                                                                                                                                                                                                         01092200000000000000109220000000000000       0090339900006270075749092214000030
100000000000000000000009033990000627000000000000000000000000010002020008214909221700000000002            2  01082149092211092200000002462070000000001N010922000000000000000000000000000000000000000000000000000000000000000100008214973830JAMIL CHALA                             RUA JOSE CALIXTO DO CARMO - 286 AP.22 -             11702690                                                            000032
2SR. CAIXA, APOS O VENCIMENTO COBRAR 2% DE MULTA                                 NAO RECEBER APOS 30 DIAS DO VENCIMENTO.                                                                                                                                                                                                         01092200000000000000109220000000000000       0090339900006270082149092217000033
100000000000000000000009033990000627000000000000000000000000010002020032495009221400000000002            2  01324950092211092200000002759070000000001N010922000000000000000000000000000000000000000000000000000000000000000100032495004881PAULO EDUARDO DOS SANTOS                RUA REPUBLICA DO IRAQUE - 1119 - CAMPO B            04611002                                                            000035
2SR. CAIXA, APOS O VENCIMENTO COBRAR 2% DE MULTA                                 NAO RECEBER APOS 30 DIAS DO VENCIMENTO.                                                                                                                                                                                                         01092200000000000000109220000000000000       0090339900006270324950092214000036
100000000000000000000009033990000627000000000000000000000000010002020016498009221100000000002            2  01164980092211092200000002419770000000001N010922000000000000000000000000000000000000000000000000000000000000000100016498053810GILMA CEZARIO GARCIA CORRITORI          RUA LAURENTINO XAVIER DOS SANTOS - 336 -            08240740                                                            000038
2SR. CAIXA, APOS O VENCIMENTO COBRAR 2% DE MULTA                                 NAO RECEBER APOS 30 DIAS DO VENCIMENTO.                                                                                                                                                                                                         01092200000000000000109220000000000000       0090339900006270164980092211000039
100000000000000000000009033990000627000000000000000000000000010002020029339009221000000000002            2  01293390092211092200000002587540000000001N010922000000000000000000000000000000000000000000000000000000000000000100029339051831RONALD DIDOFF                           RUA CORONEL FERREIRA BRAGA - 188 - VILA             03522010                                                            000041
2SR. CAIXA, APOS O VENCIMENTO COBRAR 2% DE MULTA                                 NAO RECEBER APOS 30 DIAS DO VENCIMENTO.                                                                                                                                                                                                         01092200000000000000109220000000000000       0090339900006270293390092210000042
100000000000000000000009033990000627000000000000000000000000010002020017357809221200000000002            2  01173578092211092200000002740440000000001N010922000000000000000000000000000000000000000000000000000000000000000100017357859894MARCIO GUIMARAES                        RUA GENERAL CAMARA - 188 SALA 11 - CENTR            11010120                                                            000044
2SR. CAIXA, APOS O VENCIMENTO COBRAR 2% DE MULTA                                 NAO RECEBER APOS 30 DIAS DO VENCIMENTO.                                                                                                                                                                                                         01092200000000000000109220000000000000       0090339900006270173578092212000045
100000000000000000000009033990000627000000000000000000000000010002020010563009221200000000002            2  01105630092211092200000002810480000000001N010922000000000000000000000000000000000000000000000000000000000000000100010563033878VERA LUCIA RIBEIRO LONGANEZI            RUA DOS CAMARES - 150 AP.24 BL.02 - CARA            02068030                                                            000047
2SR. CAIXA, APOS O VENCIMENTO COBRAR 2% DE MULTA                                 NAO RECEBER APOS 30 DIAS DO VENCIMENTO.                                                                                                                                                                                                         01092200000000000000109220000000000000       0090339900006270105630092212000048
100000000000000000000009033990000627000000000000000000000000010002020005529609221700000000002            2  01055296092211092200000002550420000000001N010922000000000000000000000000000000000000000000000000000000000000000100005529616801JOAQUIM JORGE DA COSTA                  RUA JOSE CALIXTO DO CARMO - 286 AP.106 -            11702690                                                            000050
2SR. CAIXA, APOS O VENCIMENTO COBRAR 2% DE MULTA                                 NAO RECEBER APOS 30 DIAS DO VENCIMENTO.                                                                                                                                                                                                         01092200000000000000109220000000000000       0090339900006270055296092217000051
100000000000000000000009033990000627000000000000000000000000010002020015550709221300000000002            2  01155507092209092200000002411070000000001N010922000000000000000000000000000000000000000000000000000000000000000100015550706806MARY MIWA                               RUA CARLOS JOSE BORSTENS - 50 AP.105 - A            11702750                                                            000053
2SR. CAIXA, APOS O VENCIMENTO COBRAR 2% DE MULTA                                 NAO RECEBER APOS 30 DIAS DO VENCIMENTO.                                                                                                                                                                                                         01092200000000000000109220000000000000       0090339900006270155507092213000054
100000000000000000000009033990000627000000000000000000000000010002020015464609221300000000002            2  01154646092211092200000002681100000000001N010922000000000000000000000000000000000000000000000000000000000000000100015464647864SONIA TERESA VOLPATO                    RUA JOSE CALIXTO DO CARMO - 286 AP.73 -             11702690                                                            000056
2SR. CAIXA, APOS O VENCIMENTO COBRAR 2% DE MULTA                                 NAO RECEBER APOS 30 DIAS DO VENCIMENTO.                                                                                                                                                                                                         01092200000000000000109220000000000000       0090339900006270154646092213000057
100000000000000000000009033990000627000000000000000000000000010002020008657809221200000000002            2  01086578092211092200000002654170000000001N010922000000000000000000000000000000000000000000000000000000000000000100008657886855ARLINDO DA CRUZ                         AVENIDA ARICANDUVA - 8.256 AP.54 BL.10 -            03951220                                                            000059
2SR. CAIXA, APOS O VENCIMENTO COBRAR 2% DE MULTA                                 NAO RECEBER APOS 30 DIAS DO VENCIMENTO.                                                                                                                                                                                                         01092200000000000000109220000000000000       0090339900006270086578092212000060
100000000000000000000009033990000627000000000000000000000000010002020059735109221000000000002            2  01597351092209092200000001500550000000001N010922000000000000000000000000000000000000000000000000000000000000000100059735180863HELIO JOSE MARQUES                      RUA MARTIM AFONSO DE SOUZA - 1007 AP.102            11702790                                                            000062
2SR. CAIXA, APOS O VENCIMENTO COBRAR 2% DE MULTA                                 NAO RECEBER APOS 30 DIAS DO VENCIMENTO.                                                                                                                                                                                                         01092200000000000000109220000000000000       0090339900006270597351092210000063
100000000000000000000009033990000627000000000000000000000000010002020026347809221400000000002            2  01263478092211092200000002837240000000001N010922000000000000000000000000000000000000000000000000000000000000000100026347872862VALDECI SILVA MEIRELES                  RUA JOSE BATISTA DA SILVA - 292 - JARDIM            06851470                                                            000065
2SR. CAIXA, APOS O VENCIMENTO COBRAR 2% DE MULTA                                 NAO RECEBER APOS 30 DIAS DO VENCIMENTO.                                                                                                                                                                                                         01092200000000000000109220000000000000       0090339900006270263478092214000066
100000000000000000000009033990000627000000000000000000000000010002020013135209221500000000002            2  01131352092211092200000002606700000000001N010922000000000000000000000000000000000000000000000000000000000000000100013135261859EDUARDO ZANOLA                          RUA ROLANDO PIETRO BONINI - 46 - JARDIM             09781040                                                            000068
2SR. CAIXA, APOS O VENCIMENTO COBRAR 2% DE MULTA                                 NAO RECEBER APOS 30 DIAS DO VENCIMENTO.                                                                                                                                                                                                         01092200000000000000109220000000000000       0090339900006270131352092215000069
100000000000000000000009033990000627000000000000000000000000010002020009797609221600000000002            2  01097976092211092200000002538650000000001N010922000000000000000000000000000000000000000000000000000000000000000100009797626857RICARDO SOBRAL DE OLIVEIRA              RUA 23 DE MAIO - 139 AP.32 - VILA MIRIM             11704690                                                            000071
2SR. CAIXA, APOS O VENCIMENTO COBRAR 2% DE MULTA                                 NAO RECEBER APOS 30 DIAS DO VENCIMENTO.                                                                                                                                                                                                         01092200000000000000109220000000000000       0090339900006270097976092216000072
100000000000000000000009033990000627000000000000000000000000010002020004767609221700000000002            2  01047676092209092200000004340500000000001N010922000000000000000000000000000000000000000000000000000000000000000100004767679893ORLANDO GRANDE FILHO                    RUA ORLANDO MIGLIARI - 101 - JARDIM OURO            19906140                                                            000074
2SR. CAIXA, APOS O VENCIMENTO COBRAR 2% DE MULTA                                 NAO RECEBER APOS 30 DIAS DO VENCIMENTO.                                                                                                                                                                                                         01092200000000000000109220000000000000       0090339900006270047676092217000075
100000000000000000000009033990000627000000000000000000000000010002020006512509221400000000002            2  01065125092211092200000002283630000000001N010922000000000000000000000000000000000000000000000000000000000000000100006512547870MARIA DO CARMO FAGUNDES DOS REIS        RUA CARLOS MALCHER - 98 - PARQUE EDU CHA            02232020                                                            000077
2SR. CAIXA, APOS O VENCIMENTO COBRAR 2% DE MULTA                                 NAO RECEBER APOS 30 DIAS DO VENCIMENTO.                                                                                                                                                                                                         01092200000000000000109220000000000000       0090339900006270065125092214000078
100000000000000000000009033990000627000000000000000000000000010002020022728409221700000000002            2  01227284092211092200000002747000000000001N010922000000000000000000000000000000000000000000000000000000000000000100022728497842WILLIAN DE SOUZA MELLO                  RUA JOSE CALIXTO DO CARMO - 286 AP.111 -            11702690                                                            000080
2SR. CAIXA, APOS O VENCIMENTO COBRAR 2% DE MULTA                                 NAO RECEBER APOS 30 DIAS DO VENCIMENTO.                                                                                                                                                                                                         01092200000000000000109220000000000000       0090339900006270227284092217000081
100000000000000000000009033990000627000000000000000000000000010002020016909709221100000000002            2  01169097092211092200000002427480000000001N010922000000000000000000000000000000000000000000000000000000000000000100016909746805EDIVALDO SANTANA DOS SANTOS             ESTRADA JOAO GASPAR DELGADO - 80 AP.213             08536100                                                            000083
2SR. CAIXA, APOS O VENCIMENTO COBRAR 2% DE MULTA                                 NAO RECEBER APOS 30 DIAS DO VENCIMENTO.                                                                                                                                                                                                         01092200000000000000109220000000000000       0090339900006270169097092211000084
100000000000000000000009033990000627000000000000000000000000010002020022036009221900000000002            2  01220360092209092200000003769140000000001N010922000000000000000000000000000000000000000000000000000000000000000100022036003818DERLIS TERAN QUIROGA ROGATO             RUA JOAO RIBEIRO - 320 AP.131SB - CAMPES            09070250                                                            000086
2SR. CAIXA, APOS O VENCIMENTO COBRAR 2% DE MULTA                                 NAO RECEBER APOS 30 DIAS DO VENCIMENTO.                                                                                                                                                                                                         01092200000000000000109220000000000000       0090339900006270220360092219000087
100000000000000000000009033990000627000000000000000000000000010002020017229709223300000000002            2  01172297092209092200000003637560000000001N010922000000000000000000000000000000000000000000000000000000000000000100017229751802BERENICE VIEIRA KERSTING                RUA ATIBAIA - 17 AP.417 - BAIRRO IMPERAD            11707380                                                            000089
2SR. CAIXA, APOS O VENCIMENTO COBRAR 2% DE MULTA                                 NAO RECEBER APOS 30 DIAS DO VENCIMENTO.                                                                                                                                                                                                         01092200000000000000109220000000000000       0090339900006270172297092233000090
100000000000000000000009033990000627000000000000000000000000010002020012475609221200000000002            2  01124756092211092200000002631280000000001N010922000000000000000000000000000000000000000000000000000000000000000100012475663820CELIDALVA GOES DE CARVALHO              RUA JOSE CALIXTO DO CARMO - 286 AP.91 -             11702690                                                            000092
2SR. CAIXA, APOS O VENCIMENTO COBRAR 2% DE MULTA                                 NAO RECEBER APOS 30 DIAS DO VENCIMENTO.                                                                                                                                                                                                         01092200000000000000109220000000000000       0090339900006270124756092212000093
100000000000000000000009033990000627000000000000000000000000010002020033451609221P00000000002            2  01334516092211092200000002197280000000001N010922000000000000000000000000000000000000000000000000000000000000000100033451620839ARAO ELISIARIO  NUNES                   RUA JOSE CALIXTO DO CARMO - 286 AP.64 -             11702690                                                            000095
2SR. CAIXA, APOS O VENCIMENTO COBRAR 2% DE MULTA                                 NAO RECEBER APOS 30 DIAS DO VENCIMENTO.                                                                                                                                                                                                         01092200000000000000109220000000000000       009033990000627033451609221P000096
100000000000000000000009033990000627000000000000000000000000010002020045839209221700000000002            2  01458392092211092200000001705480000000001N010922000000000000000000000000000000000000000000000000000000000000000100045839263834LEONARDO ANTONIO CONCELLIERI            RUA JOSE CALIXTO DO CARMO - 286 AP.51 -             11702690                                                            000098
2SR. CAIXA, APOS O VENCIMENTO COBRAR 2% DE MULTA                                 NAO RECEBER APOS 30 DIAS DO VENCIMENTO.                                                                                                                                                                                                         01092200000000000000109220000000000000       0090339900006270458392092217000099
100000000000000000000009033990000627000000000000000000000000010002020011369109221800000000002            2  01113691092211092200000002400260000000001N010922000000000000000000000000000000000000000000000000000000000000000100011369165803ELIANA CORREA DE OLIVEIRA               RUA MAESTRO ZEFERINO SANTANA - 65 - VILA            18040010                                                            000101
2SR. CAIXA, APOS O VENCIMENTO COBRAR 2% DE MULTA                                 NAO RECEBER APOS 30 DIAS DO VENCIMENTO.                                                                                                                                                                                                         01092200000000000000109220000000000000       0090339900006270113691092218000102
100000000000000000000009033990000627000000000000000000000000010002020002253809221100000000002            2  01022538092211092200000002133370000000001N010922000000000000000000000000000000000000000000000000000000000000000100002253816809EDMILSON ALVES DA SILVA                 RUA JOSE CALIXTO DO CARMO - 286 AP.93 -             11702690                                                            000104
2SR. CAIXA, APOS O VENCIMENTO COBRAR 2% DE MULTA                                 NAO RECEBER APOS 30 DIAS DO VENCIMENTO.                                                                                                                                                                                                         01092200000000000000109220000000000000       0090339900006270022538092211000105
100000000000000000000009033990000627000000000000000000000000010002020037947009221300000000002            2  01379470092211092200000003789000000000001N010922000000000000000000000000000000000000000000000000000000000000000100037947070873BRUNO DE CAETANO MARRINHAS              AVENIDA GENERAL BARRETO DE MENEZES - 323            09791150                                                            000107
2SR. CAIXA, APOS O VENCIMENTO COBRAR 2% DE MULTA                                 NAO RECEBER APOS 30 DIAS DO VENCIMENTO.                                                                                                                                                                                                         01092200000000000000109220000000000000       0090339900006270379470092213000108
100000000000000000000009033990000627000000000000000000000000010002020037517709221100000000002            2  01375177092209092200000003997780000000001N010922000000000000000000000000000000000000000000000000000000000000000100037517785869RENATO JOSE DE LIMA MELO                RUA ARISTIDES LOBO - 148 AP.41 BLOCO 03             03041100                                                            000110
2SR. CAIXA, APOS O VENCIMENTO COBRAR 2% DE MULTA                                 NAO RECEBER APOS 30 DIAS DO VENCIMENTO.                                                                                                                                                                                                         01092200000000000000109220000000000000       0090339900006270375177092211000111
100000000000000000000009033990000627000000000000000000000000010002020070367909221200000000002            2  01703679092211092200000002003370000000001N010922000000000000000000000000000000000000000000000000000000000000000100070367949849TEODOMIRO ALVES DOS SANTOS              RUA ANDRE PAZ - 13 - JARDIM SANTO ANDRE             08390230                                                            000113
2SR. CAIXA, APOS O VENCIMENTO COBRAR 2% DE MULTA                                 NAO RECEBER APOS 30 DIAS DO VENCIMENTO.                                                                                                                                                                                                         01092200000000000000109220000000000000       0090339900006270703679092212000114
100000000000000000000009033990000627000000000000000000000000010002020004410809221100000000002            2  01044108092209092200000002970400000000001N010922000000000000000000000000000000000000000000000000000000000000000100004410802860LUIZ ALBERTO MARINHO                    RUA DA INDEPENDENCIA - 706 AP.41B - CAMB            01524000                                                            000116
2SR. CAIXA, APOS O VENCIMENTO COBRAR 2% DE MULTA                                 NAO RECEBER APOS 30 DIAS DO VENCIMENTO.                                                                                                                                                                                                         01092200000000000000109220000000000000       0090339900006270044108092211000117
100000000000000000000009033990000627000000000000000000000000010002020004767609222500000000002            2  01047676092209092200000003965400000000001N010922000000000000000000000000000000000000000000000000000000000000000100004767679893ORLANDO GRANDE FILHO                    RUA ORLANDO MIGLIARI - 101 - JARDIM OURO            19906140                                                            000119
2SR. CAIXA, APOS O VENCIMENTO COBRAR 2% DE MULTA                                 NAO RECEBER APOS 30 DIAS DO VENCIMENTO.                                                                                                                                                                                                         01092200000000000000109220000000000000       0090339900006270047676092225000120
100000000000000000000009033990000627000000000000000000000000010002020064677809221200000000002            2  01646778092209092200000012082290000000001N010922000000000000000000000000000000000000000000000000000000000000000100064677850887ANTONIO CARLOS DE OLIVEIRA              RUA DR.ANTONIO MAZILLI FILHO - 435 - PAR            02230070                                                            000122
2SR. CAIXA, APOS O VENCIMENTO COBRAR 2% DE MULTA                                 NAO RECEBER APOS 30 DIAS DO VENCIMENTO.                                                                                                                                                                                                         01092200000000000000109220000000000000       0090339900006270646778092212000123
100000000000000000000009033990000627000000000000000000000000010002020064677809222000000000002            2  01646778092209092200000003189850000000001N010922000000000000000000000000000000000000000000000000000000000000000100064677850887ANTONIO CARLOS DE OLIVEIRA              RUA DR.ANTONIO MAZILLI FILHO - 435 - PAR            02230070                                                            000125
2SR. CAIXA, APOS O VENCIMENTO COBRAR 2% DE MULTA                                 NAO RECEBER APOS 30 DIAS DO VENCIMENTO.                                                                                                                                                                                                         01092200000000000000109220000000000000       0090339900006270646778092220000126
100000000000000000000009033990000627000000000000000000000000010002020007328909221800000000002            2  01073289092209092200000003891810000000001N010922000000000000000000000000000000000000000000000000000000000000000100007328927836BENEDITO APARECIDO ROCHA                AVENIDA SENADOR JOSE ERMINIO DE MORAES -            02357002                                                            000128
2SR. CAIXA, APOS O VENCIMENTO COBRAR 2% DE MULTA                                 NAO RECEBER APOS 30 DIAS DO VENCIMENTO.                                                                                                                                                                                                         01092200000000000000109220000000000000       0090339900006270073289092218000129
100000000000000000000009033990000627000000000000000000000000010002020058488609221500000000002            2  01584886092209092200000002909390000000001N010922000000000000000000000000000000000000000000000000000000000000000100058488618972ADAILTON ZANUTTO MORESCHI               R:RAPHAEL UNGARO - COND.RESERVA SERRA Q.            13212138                                                            000131
2SR. CAIXA, APOS O VENCIMENTO COBRAR 2% DE MULTA                                 NAO RECEBER APOS 30 DIAS DO VENCIMENTO.                                                                                                                                                                                                         01092200000000000000109220000000000000       0090339900006270584886092215000132
100000000000000000000009033990000627000000000000000000000000010002020002196009221P00000000002            2  01021960092211092200000002187890000000001N010922000000000000000000000000000000000000000000000000000000000000000100002196012831VILEFORT DIAS BORGES                    RUA PORTO XAVIER - 189 AP.64 - VILA CARM            08210170                                                            000134
2SR. CAIXA, APOS O VENCIMENTO COBRAR 2% DE MULTA                                 NAO RECEBER APOS 30 DIAS DO VENCIMENTO.                                                                                                                                                                                                         01092200000000000000109220000000000000       009033990000627002196009221P000135
100000000000000000000009033990000627000000000000000000000000010002020031861509221800000000002            2  01318615092211092200000002274060000000001N010922000000000000000000000000000000000000000000000000000000000000000100031861586809VANIA TOMAZ                              -  -  -  -                                         00000000                                                            000137
2SR. CAIXA, APOS O VENCIMENTO COBRAR 2% DE MULTA                                 NAO RECEBER APOS 30 DIAS DO VENCIMENTO.                                                                                                                                                                                                         01092200000000000000109220000000000000       0090339900006270318615092218000138
100000000000000000000009033990000627000000000000000000000000010002020003104509221100000000002            2  01031045092209092200000008469140000000001N010922000000000000000000000000000000000000000000000000000000000000000100003104580804NELSON RODRIGUES                        RUA CARLOS JOSE BORSTENS - 50 AP.81 - AV            11702750                                                            000140
2SR. CAIXA, APOS O VENCIMENTO COBRAR 2% DE MULTA                                 NAO RECEBER APOS 30 DIAS DO VENCIMENTO.                                                                                                                                                                                                         01092200000000000000109220000000000000       0090339900006270031045092211000141
100000000000000000000009033990000627000000000000000000000000010002020007715309221P00000000002            2  01077153092209092200000003578200000000001N010922000000000000000000000000000000000000000000000000000000000000000100007715360627NILTON RENNAN OLIVEIRA GOMES FILHO      RUA CARLOS JOSE BORSTENS - 50 AP.21 - AV            11702750                                                            000143
2SR. CAIXA, APOS O VENCIMENTO COBRAR 2% DE MULTA                                 NAO RECEBER APOS 30 DIAS DO VENCIMENTO.                                                                                                                                                                                                         01092200000000000000109220000000000000       009033990000627007715309221P000144
100000000000000000000009033990000627000000000000000000000000010002020007194009221000000000002            2  01071940092211092200000002542960000000001N010922000000000000000000000000000000000000000000000000000000000000000100007194010895RAUL AMANTINO KIRK DE SANCTIS           AVENIDA SANTA CATARINA - 756 AP.01 - VIL            04378000                                                            000146
2SR. CAIXA, APOS O VENCIMENTO COBRAR 2% DE MULTA                                 NAO RECEBER APOS 30 DIAS DO VENCIMENTO.                                                                                                                                                                                                         01092200000000000000109220000000000000       0090339900006270071940092210000147
100000000000000000000009033990000627000000000000000000000000010002020025738609221800000000002            2  01257386092209092200000005139100000000001N010922000000000000000000000000000000000000000000000000000000000000000100025738614810VILMAR JOSE PEREIRA                     ALAMEDA TIETE - 646 - CERQUEIRA CESAR -             01417020                                                            000149
2SR. CAIXA, APOS O VENCIMENTO COBRAR 2% DE MULTA                                 NAO RECEBER APOS 30 DIAS DO VENCIMENTO.                                                                                                                                                                                                         01092200000000000000109220000000000000       0090339900006270257386092218000150
100000000000000000000009033990000627000000000000000000000000010002020025738609222600000000002            2  01257386092209092200000005139070000000001N010922000000000000000000000000000000000000000000000000000000000000000100025738614810VILMAR JOSE PEREIRA                     ALAMEDA TIETE - 646 - CERQUEIRA CESAR -             01417020                                                            000152
2SR. CAIXA, APOS O VENCIMENTO COBRAR 2% DE MULTA                                 NAO RECEBER APOS 30 DIAS DO VENCIMENTO.                                                                                                                                                                                                         01092200000000000000109220000000000000       0090339900006270257386092226000153
100000000000000000000009033990000627000000000000000000000000010002020025738609223400000000002            2  01257386092209092200000005139080000000001N010922000000000000000000000000000000000000000000000000000000000000000100025738614810VILMAR JOSE PEREIRA                     ALAMEDA TIETE - 646 - CERQUEIRA CESAR -             01417020                                                            000155
2SR. CAIXA, APOS O VENCIMENTO COBRAR 2% DE MULTA                                 NAO RECEBER APOS 30 DIAS DO VENCIMENTO.                                                                                                                                                                                                         01092200000000000000109220000000000000       0090339900006270257386092234000156
100000000000000000000009033990000627000000000000000000000000010002020025738609224200000000002            2  01257386092209092200000005139090000000001N010922000000000000000000000000000000000000000000000000000000000000000100025738614810VILMAR JOSE PEREIRA                     ALAMEDA TIETE - 646 - CERQUEIRA CESAR -             01417020                                                            000158
2SR. CAIXA, APOS O VENCIMENTO COBRAR 2% DE MULTA                                 NAO RECEBER APOS 30 DIAS DO VENCIMENTO.                                                                                                                                                                                                         01092200000000000000109220000000000000       0090339900006270257386092242000159
100000000000000000000009033990000627000000000000000000000000010002020011141509221P00000000002            2  01111415092211092200000002672180000000001N010922000000000000000000000000000000000000000000000000000000000000000100011141508869PAULO ROBERTO TUNES SILVA               RUA PETROBRAS - 405 CASA 07 - VILA ANTON            03474060                                                            000161
2SR. CAIXA, APOS O VENCIMENTO COBRAR 2% DE MULTA                                 NAO RECEBER APOS 30 DIAS DO VENCIMENTO.                                                                                                                                                                                                         01092200000000000000109220000000000000       009033990000627011141509221P000162
100000000000000000000009033990000627000000000000000000000000010002020012449109221500000000002            2  01124491092211092200000002692580000000001N010922000000000000000000000000000000000000000000000000000000000000000100012449104810GILBERTO DOS SANTOS JUNIOR              RUA ALMIRANTE TAMANDARE - 89 AP.143 - BA            09310350                                                            000164
2SR. CAIXA, APOS O VENCIMENTO COBRAR 2% DE MULTA                                 NAO RECEBER APOS 30 DIAS DO VENCIMENTO.                                                                                                                                                                                                         01092200000000000000109220000000000000       0090339900006270124491092215000165
100000000000000000000009033990000627000000000000000000000000010002020011261309221300000000002            2  01112613092209092200000003552610000000001N010922000000000000000000000000000000000000000000000000000000000000000100011261359844JOVANETE DOS SANTOS PASSOS              RUA FULVIO MORGANTI - 672 - JARDIM PARAI            02417170                                                            000167
2SR. CAIXA, APOS O VENCIMENTO COBRAR 2% DE MULTA                                 NAO RECEBER APOS 30 DIAS DO VENCIMENTO.                                                                                                                                                                                                         01092200000000000000109220000000000000       0090339900006270112613092213000168
100000000000000000000009033990000627000000000000000000000000010002020036279309221200000000002            2  01362793092209092200000003158030000000001N010922000000000000000000000000000000000000000000000000000000000000000100036279398838BRUNO DOCINI ORTEGA                     RUA GENERAL EUCLIDES FIGUEIREDO - 146 AP            11700780                                                            000170
2SR. CAIXA, APOS O VENCIMENTO COBRAR 2% DE MULTA                                 NAO RECEBER APOS 30 DIAS DO VENCIMENTO.                                                                                                                                                                                                         01092200000000000000109220000000000000       0090339900006270362793092212000171
9                                                                                                                                                                                                                                                                                                                                                                                                         000172