01REMESSA01COBRANCA       00000000000005331186HB SANTOS CONSTRUTORA E INCORP237BRADESCO       091123        MX0000085                                                                                                                                                                                                                                                                                     000001
100000000000000000000009033990000995400000000000000000000000010002020005723211231400000000002            2  01057232112323112300000003193410000000001N071123000000000000000000000000000000000000000000000000000000000000000100005723255843FRANCISCO DE ASSIS DA SILVA             PRACA NICOLAU GERAIGIRE - 25 VISOR - JAR            11095110                                                            000002
2SR. CAIXA, APOS O VENCIMENTO COBRAR 2% DE MULTA                                 NAO RECEBER APOS 30 DIAS DO VENCIMENTO.                                                                                                                                                                                                         09112300000000000000911230000000000000       0090339900009954057232112314000003
100000000000000000000009033990000995400000000000000000000000010002020032589111231800000000002            2  01325891112323112300000003021620000000001N071123000000000000000000000000000000000000000000000000000000000000000100032589165862RENATA ISABEL MARTINS SILVA             RUA HERCULANO DE FREITAS - 257 - FUNDACA            09520280                                                            000005
2SR. CAIXA, APOS O VENCIMENTO COBRAR 2% DE MULTA                                 NAO RECEBER APOS 30 DIAS DO VENCIMENTO.                                                                                                                                                                                                         09112300000000000000911230000000000000       0090339900009954325891112318000006
100000000000000000000009033990000995400000000000000000000000010002020046391211231700000000002            2  01463912112323112300000003168540000000001N071123000000000000000000000000000000000000000000000000000000000000000100046391265810PAMELLA RODRIGUES DE OLIVEIRA           RUA AUGUSTA - 183 AP.301 BL.2A - VILA AU            07025130                                                            000008
2SR. CAIXA, APOS O VENCIMENTO COBRAR 2% DE MULTA                                 NAO RECEBER APOS 30 DIAS DO VENCIMENTO.                                                                                                                                                                                                         09112300000000000000911230000000000000       0090339900009954463912112317000009
100000000000000000000009033990000995400000000000000000000000010002020027964511231500000000002            2  01279645112323112300000003148210000000001N071123000000000000000000000000000000000000000000000000000000000000000100027964512838FABIO TADEU DE CAMPOS RADZIAVICIUS      RUA URUGUAI - 89 AP.94 - JARDIM GUILHERM            11702300                                                            000011
2SR. CAIXA, APOS O VENCIMENTO COBRAR 2% DE MULTA                                 NAO RECEBER APOS 30 DIAS DO VENCIMENTO.                                                                                                                                                                                                         09112300000000000000911230000000000000       0090339900009954279645112315000012
100000000000000000000009033990000995400000000000000000000000010002020011498311231300000000002            2  01114983112323112300000002358700000000001N071123000000000000000000000000000000000000000000000000000000000000000100011498329837GERSON GERALDO DAS NEVES                RUA DOMINGOS DELGADO - 144 - VILA SOUZA             02881070                                                            000014
2SR. CAIXA, APOS O VENCIMENTO COBRAR 2% DE MULTA                                 NAO RECEBER APOS 30 DIAS DO VENCIMENTO.                                                                                                                                                                                                         09112300000000000000911230000000000000       0090339900009954114983112313000015
100000000000000000000009033990000995400000000000000000000000010002020025214411231P00000000002            2  01252144112323112300000002791970000000001N071123000000000000000000000000000000000000000000000000000000000000000100025214401833JOSE MAURICIO DOS SANTOS RODRIGUES      RUA JOAO DE MACEDO RIBEIRO - 49 - VILA N            08111101                                                            000017
2SR. CAIXA, APOS O VENCIMENTO COBRAR 2% DE MULTA                                 NAO RECEBER APOS 30 DIAS DO VENCIMENTO.                                                                                                                                                                                                         09112300000000000000911230000000000000       009033990000995425214411231P000018
100000000000000000000009033990000995400000000000000000000000010002020033119111231700000000002            2  01331191112323112300000002803790000000001N071123000000000000000000000000000000000000000000000000000000000000000100033119178802HUGO GOMES VENDRAME                     RUA SAO PAULO - 60 CASA 01 - VILA FREITA            06380110                                                            000020
2SR. CAIXA, APOS O VENCIMENTO COBRAR 2% DE MULTA                                 NAO RECEBER APOS 30 DIAS DO VENCIMENTO.                                                                                                                                                                                                         09112300000000000000911230000000000000       0090339900009954331191112317000021
100000000000000000000009033990000995400000000000000000000000010002020016631511231P00000000002            2  01166315112323112300000002852730000000001N071123000000000000000000000000000000000000000000000000000000000000000100016631587468GILBERTO BEZERRA DA SILVA               AVENIDA JAIME TORRES - 745 CASA 3 - JARD            03670000                                                            000023
2SR. CAIXA, APOS O VENCIMENTO COBRAR 2% DE MULTA                                 NAO RECEBER APOS 30 DIAS DO VENCIMENTO.                                                                                                                                                                                                         09112300000000000000911230000000000000       009033990000995416631511231P000024
100000000000000000000009033990000995400000000000000000000000010002020007313211231200000000002            2  01073132112323112300000002832470000000001N071123000000000000000000000000000000000000000000000000000000000000000100007313251840SALVADOR GESUALDO PULVIRENTI            AVENIDA MARARI - 641 - VILA MARARI - SAO            04402010                                                            000026
2SR. CAIXA, APOS O VENCIMENTO COBRAR 2% DE MULTA                                 NAO RECEBER APOS 30 DIAS DO VENCIMENTO.                                                                                                                                                                                                         09112300000000000000911230000000000000       0090339900009954073132112312000027
100000000000000000000009033990000995400000000000000000000000010002020010676711231400000000002            2  01106767112323112300000002956420000000001N071123000000000000000000000000000000000000000000000000000000000000000100010676723896MERCEDES CRISTINA ROCHA SANDOVAL        RUA URUGUAI - 89 AP.83 - JARDIM GUILHERM            11702300                                                            000029
2SR. CAIXA, APOS O VENCIMENTO COBRAR 2% DE MULTA                                 NAO RECEBER APOS 30 DIAS DO VENCIMENTO.                                                                                                                                                                                                         09112300000000000000911230000000000000       0090339900009954106767112314000030
100000000000000000000009033990000995400000000000000000000000010002020009502811231200000000002            2  01095028112323112300000003087490000000001N071123000000000000000000000000000000000000000000000000000000000000000100009502844831CLAUDIA ROCHA SANDOVAL                  RUA URUGUAI - 89 AP.64 - JARDIM GUILHERM            11702300                                                            000032
2SR. CAIXA, APOS O VENCIMENTO COBRAR 2% DE MULTA                                 NAO RECEBER APOS 30 DIAS DO VENCIMENTO.                                                                                                                                                                                                         09112300000000000000911230000000000000       0090339900009954095028112312000033
100000000000000000000009033990000995400000000000000000000000010002020007594211231100000000002            2  01075942112323112300000002771740000000001N071123000000000000000000000000000000000000000000000000000000000000000100007594247809JOSE LUIS DE OLIVEIRA                   DONA EGLANTINA PENTEADO DA SILVA PRADO -            13044162                                                            000035
2SR. CAIXA, APOS O VENCIMENTO COBRAR 2% DE MULTA                                 NAO RECEBER APOS 30 DIAS DO VENCIMENTO.                                                                                                                                                                                                         09112300000000000000911230000000000000       0090339900009954075942112311000036
100000000000000000000009033990000995400000000000000000000000010002020005288711231500000000002            2  01052887112323112300000002855170000000001N071123000000000000000000000000000000000000000000000000000000000000000100005288796858MARCELO RODRIGUES FERREIRA              RUA MARCOS ANTONIO MARQUES - 302 - JARDI            06433020                                                            000038
2SR. CAIXA, APOS O VENCIMENTO COBRAR 2% DE MULTA                                 NAO RECEBER APOS 30 DIAS DO VENCIMENTO.                                                                                                                                                                                                         09112300000000000000911230000000000000       0090339900009954052887112315000039
100000000000000000000009033990000995400000000000000000000000010002020015835911231400000000002            2  01158359112323112300000002973230000000001N071123000000000000000000000000000000000000000000000000000000000000000100015835992823FLAVIO VERONEZ                          RUA ANDREA PAULINETTI - 127 AP.42 - BAIR            04707050                                                            000041
2SR. CAIXA, APOS O VENCIMENTO COBRAR 2% DE MULTA                                 NAO RECEBER APOS 30 DIAS DO VENCIMENTO.                                                                                                                                                                                                         09112300000000000000911230000000000000       0090339900009954158359112314000042
100000000000000000000009033990000995400000000000000000000000010002020000438111231200000000002            2  01004381112323112300000003355960000000001N071123000000000000000000000000000000000000000000000000000000000000000100000438161858WAGNECY VILLA NOVA LIEN                 RUA PROFESSOR FERREIRA PAULINO - 233 AP.            07025020                                                            000044
2SR. CAIXA, APOS O VENCIMENTO COBRAR 2% DE MULTA                                 NAO RECEBER APOS 30 DIAS DO VENCIMENTO.                                                                                                                                                                                                         09112300000000000000911230000000000000       0090339900009954004381112312000045
100000000000000000000009033990000995400000000000000000000000010002020026004511231900000000002            2  01260045112323112300000002973270000000001N071123000000000000000000000000000000000000000000000000000000000000000100026004595888EDIVALDO BEZERRA DA SILVA               AVENIDA GUATEMALA - 550 - JARDIM PINHEIR            09854750                                                            000047
2SR. CAIXA, APOS O VENCIMENTO COBRAR 2% DE MULTA                                 NAO RECEBER APOS 30 DIAS DO VENCIMENTO.                                                                                                                                                                                                         09112300000000000000911230000000000000       0090339900009954260045112319000048
100000000000000000000009033990000995400000000000000000000000010002020012470711231300000000002            2  01124707112323112300000003172280000000001N071123000000000000000000000000000000000000000000000000000000000000000100012470771870HILTON FERNANDES OLIVARES               RUA PATIO DA ESTACAO - 115 - BAIRRO CENT            09450000                                                            000050
2SR. CAIXA, APOS O VENCIMENTO COBRAR 2% DE MULTA                                 NAO RECEBER APOS 30 DIAS DO VENCIMENTO.                                                                                                                                                                                                         09112300000000000000911230000000000000       0090339900009954124707112313000051
100000000000000000000009033990000995400000000000000000000000010002020014025411231200000000002            2  01140254112323112300000003478310000000001N071123000000000000000000000000000000000000000000000000000000000000000100014025420899ANDREIA APARECIDA TAVARES BASTOS        RUA IBATIBA - 234 CASA 27 - RES.BOUGANVI            09220608                                                            000053
2SR. CAIXA, APOS O VENCIMENTO COBRAR 2% DE MULTA                                 NAO RECEBER APOS 30 DIAS DO VENCIMENTO.                                                                                                                                                                                                         09112300000000000000911230000000000000       0090339900009954140254112312000054
100000000000000000000009033990000995400000000000000000000000010002020018590011231100000000002            2  01185900112323112300000003150130000000001N071123000000000000000000000000000000000000000000000000000000000000000100018590038858JOSE SANDRO ROCHA SILVA                 RUA SANTO ANTONIO DO AVENTUREIRO - 216 A            07143040                                                            000056
2SR. CAIXA, APOS O VENCIMENTO COBRAR 2% DE MULTA                                 NAO RECEBER APOS 30 DIAS DO VENCIMENTO.                                                                                                                                                                                                         09112300000000000000911230000000000000       0090339900009954185900112311000057
100000000000000000000009033990000995400000000000000000000000010002020088578711231P00000000002            2  01885787112323112300000002592110000000001N071123000000000000000000000000000000000000000000000000000000000000000100088578704800GILBERTO DO ESPIRITO SANTO SILVA        RUA URUGUAI - 89 AP.23 - JARDIM GUILHERM            11702300                                                            000059
2SR. CAIXA, APOS O VENCIMENTO COBRAR 2% DE MULTA                                 NAO RECEBER APOS 30 DIAS DO VENCIMENTO.                                                                                                                                                                                                         09112300000000000000911230000000000000       009033990000995488578711231P000060
100000000000000000000009033990000995400000000000000000000000010002020005105211231800000000002            2  01051052112323112300000003091390000000001N071123000000000000000000000000000000000000000000000000000000000000000100005105287835FABIO MOTTOLA DE OLIVEIRA               RUA RAUL MAZZONI - 133 - CHACARA AREAL -            13331022                                                            000062
2SR. CAIXA, APOS O VENCIMENTO COBRAR 2% DE MULTA                                 NAO RECEBER APOS 30 DIAS DO VENCIMENTO.                                                                                                                                                                                                         09112300000000000000911230000000000000       0090339900009954051052112318000063
100000000000000000000009033990000995400000000000000000000000010002020020792711231700000000002            2  01207927112323112300000003213940000000001N071123000000000000000000000000000000000000000000000000000000000000000120792791000147TROVAO COMERCIO DE ALIMENTOS LTDA-ME    RUA QUINTA DA MAGNOLIA - 67 - JARDIM IPA            03582100                                                            000065
2SR. CAIXA, APOS O VENCIMENTO COBRAR 2% DE MULTA                                 NAO RECEBER APOS 30 DIAS DO VENCIMENTO.                                                                                                                                                                                                         09112300000000000000911230000000000000       0090339900009954207927112317000066
100000000000000000000009033990000995400000000000000000000000010002020007648111231000000000002            2  01076481112323112300000003017880000000001N071123000000000000000000000000000000000000000000000000000000000000000100007648112825MARA REGINA CAPRIO                      RUA DA TRINDADE - 790 - VILA IDEAL - SAO            15060280                                                            000068
2SR. CAIXA, APOS O VENCIMENTO COBRAR 2% DE MULTA                                 NAO RECEBER APOS 30 DIAS DO VENCIMENTO.                                                                                                                                                                                                         09112300000000000000911230000000000000       0090339900009954076481112310000069
100000000000000000000009033990000995400000000000000000000000010002020031157411231P00000000002            2  01311574112323112300000003240480000000001N071123000000000000000000000000000000000000000000000000000000000000000100031157420885TALITA ANICHIARICO COSSI                RUA CNEO POMPEO DE CAMARGO - 817 - JARDI            13060150                                                            000071
2SR. CAIXA, APOS O VENCIMENTO COBRAR 2% DE MULTA                                 NAO RECEBER APOS 30 DIAS DO VENCIMENTO.                                                                                                                                                                                                         09112300000000000000911230000000000000       009033990000995431157411231P000072
100000000000000000000009033990000995400000000000000000000000010002020035572511231400000000002            2  01355725112323112300000003445350000000001N071123000000000000000000000000000000000000000000000000000000000000000100035572536865MARIA SIMONE SANTOS                     RUA JOSE PEZZOLO - 68 - VILA ELDIZIA - S            09181660                                                            000074
2SR. CAIXA, APOS O VENCIMENTO COBRAR 2% DE MULTA                                 NAO RECEBER APOS 30 DIAS DO VENCIMENTO.                                                                                                                                                                                                         09112300000000000000911230000000000000       0090339900009954355725112314000075
100000000000000000000009033990000995400000000000000000000000010002020008800311231100000000002            2  01088003112323112300000003139170000000001N071123000000000000000000000000000000000000000000000000000000000000000100008800368425INGO DIMITRI PEREIRA DA NOBREGA         RUA PROFESSOR MENDES PIMENTEL - 362 - JA            03973010                                                            000077
2SR. CAIXA, APOS O VENCIMENTO COBRAR 2% DE MULTA                                 NAO RECEBER APOS 30 DIAS DO VENCIMENTO.                                                                                                                                                                                                         09112300000000000000911230000000000000       0090339900009954088003112311000078
100000000000000000000009033990000995400000000000000000000000010002020005054111231600000000002            2  01050541112323112300000003037920000000001N071123000000000000000000000000000000000000000000000000000000000000000100005054169806PAULO ROBERTO DE MATTOS                 JARDIM BOTANICO - 849 - DISTRITO DE SOUS            13106258                                                            000080
2SR. CAIXA, APOS O VENCIMENTO COBRAR 2% DE MULTA                                 NAO RECEBER APOS 30 DIAS DO VENCIMENTO.                                                                                                                                                                                                         09112300000000000000911230000000000000       0090339900009954050541112316000081
100000000000000000000009033990000995400000000000000000000000010002020007552111231200000000002            2  01075521112323112300000003037920000000001N071123000000000000000000000000000000000000000000000000000000000000000100007552151846MAURO BORDONI                           AVENIDA DR. AUGUSTO DE TOLEDO - 769 AP.6            09540080                                                            000083
2SR. CAIXA, APOS O VENCIMENTO COBRAR 2% DE MULTA                                 NAO RECEBER APOS 30 DIAS DO VENCIMENTO.                                                                                                                                                                                                         09112300000000000000911230000000000000       0090339900009954075521112312000084
100000000000000000000009033990000995400000000000000000000000010002020012744211231500000000002            2  01127442112323112300000003380140000000001N071123000000000000000000000000000000000000000000000000000000000000000100012744201804ADAIL JOSE DE SOUSA                     RUA ROSARIA - 303 - BAIRRO SACADURA CABR            09061080                                                            000086
2SR. CAIXA, APOS O VENCIMENTO COBRAR 2% DE MULTA                                 NAO RECEBER APOS 30 DIAS DO VENCIMENTO.                                                                                                                                                                                                         09112300000000000000911230000000000000       0090339900009954127442112315000087
100000000000000000000009033990000995400000000000000000000000010002020068320611231200000000002            2  01683206112323112300000011970710000000001N071123000000000000000000000000000000000000000000000000000000000000000100068320663849ANTONIO CAVALCANTE LIMA                 RUA AMAZONAS - 1188 - CENTRO - SAO CAETA            09540201                                                            000089
2SR. CAIXA, APOS O VENCIMENTO COBRAR 2% DE MULTA                                 NAO RECEBER APOS 30 DIAS DO VENCIMENTO.                                                                                                                                                                                                         09112300000000000000911230000000000000       0090339900009954683206112312000090
100000000000000000000009033990000995400000000000000000000000010002020088926211231400000000002            2  01889262112323112300000002514750000000001N071123000000000000000000000000000000000000000000000000000000000000000100088926230872VALDEMAR LATANCE FILHO                  RUA MELO PINTO DA SILVA - 111 CASA 103 -            18116265                                                            000092
2SR. CAIXA, APOS O VENCIMENTO COBRAR 2% DE MULTA                                 NAO RECEBER APOS 30 DIAS DO VENCIMENTO.                                                                                                                                                                                                         09112300000000000000911230000000000000       0090339900009954889262112314000093
100000000000000000000009033990000995400000000000000000000000010002020004195311231100000000002            2  01041953112323112300000003282170000000001N071123000000000000000000000000000000000000000000000000000000000000000100004195345804LUIZ CARLOS SILVESTRE                   RUA CONDE VICENTE AZEVEDO - 377 - BAIRRO            04264000                                                            000095
2SR. CAIXA, APOS O VENCIMENTO COBRAR 2% DE MULTA                                 NAO RECEBER APOS 30 DIAS DO VENCIMENTO.                                                                                                                                                                                                         09112300000000000000911230000000000000       0090339900009954041953112311000096
9                                                                                                                                                                                                                                                                                                                                                                                                         000097