01REMESSA01COBRANCA       00000000000004991454AIRES CONSTRUTORA E INCORPORAD237BRADESCO       011118        MX0000084                                                                                                                                                                                                                                                                                     000001
100000000000000000000009077090001674800000000000000000000000010002100094852211181P00000000002            2  01948522111810111800000002258610000000001N011118000000000000000000000000000000000000000000000000000000000000000100094852294887GISELDA MENON                           RUA OTAVIO BARRETO - 105 - VILA SANTISTA            02560080                                                            000002
2SR. CAIXA, APOS O VENCIMENTO COBRAR 10% DE MULTA                                NAO RECEBER APOS 30 DIAS DO VENCIMENTO.                                                                                                                                                                                                         01111800000000000000111180000000000000       009077090001674894852211181P000003
100000000000000000000009077090001674800000000000000000000000010002100006485911181600000000002            2  01064859111810111800000003463970000000001N011118000000000000000000000000000000000000000000000000000000000000000100006485911820CELIO MANUEL  MELIM SANTO               RUA JUVENAL FERREIRA  - 85 AP.61 - VILA             03512040                                                            000005
2SR. CAIXA, APOS O VENCIMENTO COBRAR 10% DE MULTA                                NAO RECEBER APOS 30 DIAS DO VENCIMENTO.                                                                                                                                                                                                         01111800000000000000111180000000000000       0090770900016748064859111816000006
100000000000000000000009077090001674800000000000000000000000010002100004693811181500000000002            2  01046938111810111800000003019110000000001N011118000000000000000000000000000000000000000000000000000000000000000100004693857823NIVALDO BARTOLOMEU FERREIRA             MNS JOSE MARINONI  - 33 - SANTO AMARO -             04430350                                                            000008
2SR. CAIXA, APOS O VENCIMENTO COBRAR 10% DE MULTA                                NAO RECEBER APOS 30 DIAS DO VENCIMENTO.                                                                                                                                                                                                         01111800000000000000111180000000000000       0090770900016748046938111815000009
100000000000000000000009077090001674800000000000000000000000010002100027993111181400000000002            2  01279931111810111800000002874860000000001N011118000000000000000000000000000000000000000000000000000000000000000100027993108853DALVA JESUS RODRIGUES CABRAL            RUA CRISTOVAO COLOMBO GONCALVES - 97 - C            04811050                                                            000011
2SR. CAIXA, APOS O VENCIMENTO COBRAR 10% DE MULTA                                NAO RECEBER APOS 30 DIAS DO VENCIMENTO.                                                                                                                                                                                                         01111800000000000000111180000000000000       0090770900016748279931111814000012
100000000000000000000009077090001674800000000000000000000000010002100000455411181300000000002            2  01004554111810111800000002986320000000001N011118000000000000000000000000000000000000000000000000000000000000000100000455495831PAULO HENRIQUE LOURENCO                 RUA FIGUEIRA  - 237 - CIDADE DAS FLORES             06184060                                                            000014
2SR. CAIXA, APOS O VENCIMENTO COBRAR 10% DE MULTA                                NAO RECEBER APOS 30 DIAS DO VENCIMENTO.                                                                                                                                                                                                         01111800000000000000111180000000000000       0090770900016748004554111813000015
100000000000000000000009077090001674800000000000000000000000010002100006140011181400000000002            2  01061400111810111800000003703450000000001N011118000000000000000000000000000000000000000000000000000000000000000100006140049857MARIA ALBANI DA SILVA EUSEBIO           RUA ORLANDO SEGALA - 108 - JARDIM ADRIAN            07135190                                                            000017
2SR. CAIXA, APOS O VENCIMENTO COBRAR 10% DE MULTA                                NAO RECEBER APOS 30 DIAS DO VENCIMENTO.                                                                                                                                                                                                         01111800000000000000111180000000000000       0090770900016748061400111814000018
100000000000000000000009077090001674800000000000000000000000010002100007768711181300000000002            2  01077687111810111800000003762090000000001N011118000000000000000000000000000000000000000000000000000000000000000100007768713826FATIMA LUZIA BIANCHI                    DR. OLIDAIR AMBROSIO - 1487 AP.03 - CENT            14160170                                                            000020
2SR. CAIXA, APOS O VENCIMENTO COBRAR 10% DE MULTA                                NAO RECEBER APOS 30 DIAS DO VENCIMENTO.                                                                                                                                                                                                         01111800000000000000111180000000000000       0090770900016748077687111813000021
100000000000000000000009077090001674800000000000000000000000010002100021716811181000000000002            2  01217168111810111800000003706240000000001N011118000000000000000000000000000000000000000000000000000000000000000100021716847800DANIELLE FAGUNDES DE A.MATOS            CONDE MOREIRA LIMA - 644 - JARDIM JABAQU            04384032                                                            000023
2SR. CAIXA, APOS O VENCIMENTO COBRAR 10% DE MULTA                                NAO RECEBER APOS 30 DIAS DO VENCIMENTO.                                                                                                                                                                                                         01111800000000000000111180000000000000       0090770900016748217168111810000024
100000000000000000000009077090001674800000000000000000000000010002100085416911181400000000002            2  01854169111810111800000003141820000000001N011118000000000000000000000000000000000000000000000000000000000000000100085416940891ANTONIO DE SOUSA MENDES                 RUA MONTE CASTELO - 296 AP.52 - AVIACAO             11702720                                                            000026
2SR. CAIXA, APOS O VENCIMENTO COBRAR 10% DE MULTA                                NAO RECEBER APOS 30 DIAS DO VENCIMENTO.                                                                                                                                                                                                         01111800000000000000111180000000000000       0090770900016748854169111814000027
100000000000000000000009077090001674800000000000000000000000010002100005678011181800000000002            2  01056780111810111800000003272170000000001N011118000000000000000000000000000000000000000000000000000000000000000100005678057863FABIO MOREIRA CAMPOS                    RUA FLORENCIO DA SILVA - 284 - VILA LIBA            03738070                                                            000029
2SR. CAIXA, APOS O VENCIMENTO COBRAR 10% DE MULTA                                NAO RECEBER APOS 30 DIAS DO VENCIMENTO.                                                                                                                                                                                                         01111800000000000000111180000000000000       0090770900016748056780111818000030
100000000000000000000009077090001674800000000000000000000000010002100007784411181400000000002            2  01077844111810111800000003304120000000001N011118000000000000000000000000000000000000000000000000000000000000000100007784496885GUILHERME LEONARDO DO NASCIMENTO        COMENDADOR RUBENS RONCARE - 127 - PONTE             11530120                                                            000032
2SR. CAIXA, APOS O VENCIMENTO COBRAR 10% DE MULTA                                NAO RECEBER APOS 30 DIAS DO VENCIMENTO.                                                                                                                                                                                                         01111800000000000000111180000000000000       0090770900016748077844111814000033
100000000000000000000009077090001674800000000000000000000000010002100016348211181400000000002            2  01163482111810111800000003192240000000001N011118000000000000000000000000000000000000000000000000000000000000000100016348237885AILTON LORENA                           AVENIDA BRASILIA - 194 - BELA VISTA - SA            09180260                                                            000035
2SR. CAIXA, APOS O VENCIMENTO COBRAR 10% DE MULTA                                NAO RECEBER APOS 30 DIAS DO VENCIMENTO.                                                                                                                                                                                                         01111800000000000000111180000000000000       0090770900016748163482111814000036
100000000000000000000009077090001674800000000000000000000000010002100081218411181800000000002            2  01812184111810111800000003080920000000001N011118000000000000000000000000000000000000000000000000000000000000000100081218486953OSMAR DA COSTA                          RUA MONTE CASTELO - 295 AP.33 - AVIACAO             11702720                                                            000038
2SR. CAIXA, APOS O VENCIMENTO COBRAR 10% DE MULTA                                NAO RECEBER APOS 30 DIAS DO VENCIMENTO.                                                                                                                                                                                                         01111800000000000000111180000000000000       0090770900016748812184111818000039
100000000000000000000009077090001674800000000000000000000000010002100004981811181000000000002            2  01049818111810111800000003499350000000001N011118000000000000000000000000000000000000000000000000000000000000000100004981884850SILVIO PAULINO GONCALVES                MARIA DE CASTRO MESQUITA - 84 AP.103 BLO            07110040                                                            000041
2SR. CAIXA, APOS O VENCIMENTO COBRAR 10% DE MULTA                                NAO RECEBER APOS 30 DIAS DO VENCIMENTO.                                                                                                                                                                                                         01111800000000000000111180000000000000       0090770900016748049818111810000042
100000000000000000000009077090001674800000000000000000000000010002100019282511181500000000002            2  01192825111810111800000002296980000000001N011118000000000000000000000000000000000000000000000000000000000000000100019282546837FABIO LEANDRO DE FREITAS ASSIS          RUA BASSIM NAGIB TRABULSI - 97 - PONTA D            11030540                                                            000044
2SR. CAIXA, APOS O VENCIMENTO COBRAR 10% DE MULTA                                NAO RECEBER APOS 30 DIAS DO VENCIMENTO.                                                                                                                                                                                                         01111800000000000000111180000000000000       0090770900016748192825111815000045
100000000000000000000009077090001674800000000000000000000000010002100008423411181900000000002            2  01084234111810111800000003192170000000001N011118000000000000000000000000000000000000000000000000000000000000000100008423485811EDSON LUIZ NUNES                        RUA NOEMIA PEDROSO BUENO - 41 - JARDIM G            09360440                                                            000047
2SR. CAIXA, APOS O VENCIMENTO COBRAR 10% DE MULTA                                NAO RECEBER APOS 30 DIAS DO VENCIMENTO.                                                                                                                                                                                                         01111800000000000000111180000000000000       0090770900016748084234111819000048
100000000000000000000009077090001674800000000000000000000000010002100003010511181800000000002            2  01030105111810111800000003693750000000001N011118000000000000000000000000000000000000000000000000000000000000000100003010502877GIZELA VIEIRA BARROS                    RUA GIACOMO DALCIN - 157 - MAUA - SAO CA            09580350                                                            000050
2SR. CAIXA, APOS O VENCIMENTO COBRAR 10% DE MULTA                                NAO RECEBER APOS 30 DIAS DO VENCIMENTO.                                                                                                                                                                                                         01111800000000000000111180000000000000       0090770900016748030105111818000051
100000000000000000000009077090001674800000000000000000000000010002100009777211181500000000002            2  01097772111810111800000002896050000000001N011118000000000000000000000000000000000000000000000000000000000000000100009777281889CARLITA DE FIGUEIREDO CARVALHO          AVENIDA ALBERTO DE ALMEIDA VINHAS - 4462            11701350                                                            000053
2SR. CAIXA, APOS O VENCIMENTO COBRAR 10% DE MULTA                                NAO RECEBER APOS 30 DIAS DO VENCIMENTO.                                                                                                                                                                                                         01111800000000000000111180000000000000       0090770900016748097772111815000054
100000000000000000000009077090001674800000000000000000000000010002100004213011181200000000002            2  01042130111810111800000003439300000000001N011118000000000000000000000000000000000000000000000000000000000000000100004213020894ELIETE DRUGOVICH DE LIMA                RUA OSVALDO CRUZ - 141 AP.144-B - SANTA             09541270                                                            000056
2SR. CAIXA, APOS O VENCIMENTO COBRAR 10% DE MULTA                                NAO RECEBER APOS 30 DIAS DO VENCIMENTO.                                                                                                                                                                                                         01111800000000000000111180000000000000       0090770900016748042130111812000057
100000000000000000000009077090001674800000000000000000000000010002100043122811181700000000002            2  01431228111810111800000002344210000000001N011118000000000000000000000000000000000000000000000000000000000000000100043122850800ANTONIO JOAQUIM GOES                    ANTONIO DOAS DA SILVA - 412 - VILA AMALI            02618110                                                            000059
2SR. CAIXA, APOS O VENCIMENTO COBRAR 10% DE MULTA                                NAO RECEBER APOS 30 DIAS DO VENCIMENTO.                                                                                                                                                                                                         01111800000000000000111180000000000000       0090770900016748431228111817000060
100000000000000000000009077090001674800000000000000000000000010002100003865711181300000000002            2  01038657111810111800000003077780000000001N011118000000000000000000000000000000000000000000000000000000000000000100003865776841FRANCISCO JOSE ROCCO                    RUA FABIO JOSE BEZERRA - 130 AP.86 - PAR            03805000                                                            000062
2SR. CAIXA, APOS O VENCIMENTO COBRAR 10% DE MULTA                                NAO RECEBER APOS 30 DIAS DO VENCIMENTO.                                                                                                                                                                                                         01111800000000000000111180000000000000       0090770900016748038657111813000063
100000000000000000000009077090001674800000000000000000000000010002100028309511181P00000000002            2  01283095111810111800000002744690000000001N011118000000000000000000000000000000000000000000000000000000000000000100028309524803DEISE RIBEIRO BARBOSA                   RUA CANDIDO JOSE DE ANDRADE - 173 - ERME            03807030                                                            000065
2SR. CAIXA, APOS O VENCIMENTO COBRAR 10% DE MULTA                                NAO RECEBER APOS 30 DIAS DO VENCIMENTO.                                                                                                                                                                                                         01111800000000000000111180000000000000       009077090001674828309511181P000066
100000000000000000000009077090001674800000000000000000000000010002100011277911181P00000000002            2  01112779111810111800000003257630000000001N011118000000000000000000000000000000000000000000000000000000000000000100011277908893JOSE AILTON LOPES DE AZEVEDO            RUA MAESTRO JOAO SEPE - 19 - JARDIM MARI            04181030                                                            000068
2SR. CAIXA, APOS O VENCIMENTO COBRAR 10% DE MULTA                                NAO RECEBER APOS 30 DIAS DO VENCIMENTO.                                                                                                                                                                                                         01111800000000000000111180000000000000       009077090001674811277911181P000069
100000000000000000000009077090001674800000000000000000000000010002100025215111181700000000002            2  01252151111810111800000002456660000000001N011118000000000000000000000000000000000000000000000000000000000000000100025215106886KLEBER LUIZ DOS SANTOS                  RUA MONTE CASTELO - 262 AP.15 - AVIACAO             11702720                                                            000071
2SR. CAIXA, APOS O VENCIMENTO COBRAR 10% DE MULTA                                NAO RECEBER APOS 30 DIAS DO VENCIMENTO.                                                                                                                                                                                                         01111800000000000000111180000000000000       0090770900016748252151111817000072
100000000000000000000009077090001674800000000000000000000000010002100090206711181400000000002            2  01902067111810111800000002743980000000001N011118000000000000000000000000000000000000000000000000000000000000000100090206789815NEREIDE RODRIGUES FERREIRA              AVENIDA PADRE ESTANISLAU DE CAMPOS - 205            03590060                                                            000074
2SR. CAIXA, APOS O VENCIMENTO COBRAR 10% DE MULTA                                NAO RECEBER APOS 30 DIAS DO VENCIMENTO.                                                                                                                                                                                                         01111800000000000000111180000000000000       0090770900016748902067111814000075
100000000000000000000009077090001674800000000000000000000000010002100029150711181200000000002            2  01291507111810111800000003211890000000001N011118000000000000000000000000000000000000000000000000000000000000000100029150742833ANA DEISE SANTOS DE ALMEIDA             RUA MONTE CASTELO - 296 AP.121 - AVIACAO            11702720                                                            000077
2SR. CAIXA, APOS O VENCIMENTO COBRAR 10% DE MULTA                                NAO RECEBER APOS 30 DIAS DO VENCIMENTO.                                                                                                                                                                                                         01111800000000000000111180000000000000       0090770900016748291507111812000078
100000000000000000000009077090001674800000000000000000000000010002100000811711181800000000002            2  01008117111810111800000002645580000000001N011118000000000000000000000000000000000000000000000000000000000000000100000811752801SERGIO BUENO DA SILVA                   RUA MONTE CASTELO - 262 AP.75 - AVIACAO             11702720                                                            000080
2SR. CAIXA, APOS O VENCIMENTO COBRAR 10% DE MULTA                                NAO RECEBER APOS 30 DIAS DO VENCIMENTO.                                                                                                                                                                                                         01111800000000000000111180000000000000       0090770900016748008117111818000081
100000000000000000000009077090001674800000000000000000000000010002100018344811181400000000002            2  01183448111810111800000003363090000000001N011118000000000000000000000000000000000000000000000000000000000000000100018344803888MARCELO BERNARDO                        RUA MONTE CASTELO - 262 AP.84 - AVIACAO             11702720                                                            000083
2SR. CAIXA, APOS O VENCIMENTO COBRAR 10% DE MULTA                                NAO RECEBER APOS 30 DIAS DO VENCIMENTO.                                                                                                                                                                                                         01111800000000000000111180000000000000       0090770900016748183448111814000084
100000000000000000000009077090001674800000000000000000000000010002100004004311181100000000002            2  01040043111810111800000004714970000000001N011118000000000000000000000000000000000000000000000000000000000000000100004004328896VANDERLEI  MARTINS DE ALMEIDA           RUA MONSENHOR TABOSA - 03 - PARQUE CISPE            03819300                                                            000086
2SR. CAIXA, APOS O VENCIMENTO COBRAR 10% DE MULTA                                NAO RECEBER APOS 30 DIAS DO VENCIMENTO.                                                                                                                                                                                                         01111800000000000000111180000000000000       0090770900016748040043111811000087
100000000000000000000009077090001674800000000000000000000000010002100005133011181600000000002            2  01051330111810111800000003220470000000001N011118000000000000000000000000000000000000000000000000000000000000000100005133053860VICENTE ARCIPRETE JUNIOR                RUA JOSE SIMOES FERREIRA FILHO - 80 - JA            06040090                                                            000089
2SR. CAIXA, APOS O VENCIMENTO COBRAR 10% DE MULTA                                NAO RECEBER APOS 30 DIAS DO VENCIMENTO.                                                                                                                                                                                                         01111800000000000000111180000000000000       0090770900016748051330111816000090
100000000000000000000009077090001674800000000000000000000000010002100056660211181000000000002            2  01566602111810111800000000783310000000001N011118000000000000000000000000000000000000000000000000000000000000000100056660235868JOSE DA SILVA                           RUA MONTE CASTELO - 296 AP.32 - AVIACAO             11702720                                                            000092
2SR. CAIXA, APOS O VENCIMENTO COBRAR 10% DE MULTA                                NAO RECEBER APOS 30 DIAS DO VENCIMENTO.                                                                                                                                                                                                         01111800000000000000111180000000000000       0090770900016748566602111810000093
100000000000000000000009077090001674800000000000000000000000010002100016339411181200000000002            2  01163394111810111800000002844700000000001N011118000000000000000000000000000000000000000000000000000000000000000100016339432832ALEX MONTEIRO DA SILVA                  RUA IVA MOURA LIMA - 04 - JARDIM MIRNA I            04855540                                                            000095
2SR. CAIXA, APOS O VENCIMENTO COBRAR 10% DE MULTA                                NAO RECEBER APOS 30 DIAS DO VENCIMENTO.                                                                                                                                                                                                         01111800000000000000111180000000000000       0090770900016748163394111812000096
100000000000000000000009077090001674800000000000000000000000010002100031803811181P00000000002            2  01318038111810111800000002905010000000001N011118000000000000000000000000000000000000000000000000000000000000000100031803864877ELEILSON FELIPPE SANTOS                 RUA SANTA GREGORIA - 193 - CIDADE DUTRA             04806030                                                            000098
2SR. CAIXA, APOS O VENCIMENTO COBRAR 10% DE MULTA                                NAO RECEBER APOS 30 DIAS DO VENCIMENTO.                                                                                                                                                                                                         01111800000000000000111180000000000000       009077090001674831803811181P000099
100000000000000000000009077090001674800000000000000000000000010002100026032611181800000000002            2  01260326111810111800000001999110000000001N011118000000000000000000000000000000000000000000000000000000000000000100026032632857MARILA LOPES PEREIRA                    AVENIDA LUIZ GISHOKEM - 1761 AP.13 BL.05            05831315                                                            000101
2SR. CAIXA, APOS O VENCIMENTO COBRAR 10% DE MULTA                                NAO RECEBER APOS 30 DIAS DO VENCIMENTO.                                                                                                                                                                                                         01111800000000000000111180000000000000       0090770900016748260326111818000102
100000000000000000000009077090001674800000000000000000000000010002100063064511181400000000002            2  01630645111810111800000003461850000000001N011118000000000000000000000000000000000000000000000000000000000000000100063064537849ANTONIO APARECIDO DA SILVA DESTEFANO    RUA PROFESSOR TEODORO BRAGA - 46 - VILA             02966020                                                            000104
2SR. CAIXA, APOS O VENCIMENTO COBRAR 10% DE MULTA                                NAO RECEBER APOS 30 DIAS DO VENCIMENTO.                                                                                                                                                                                                         01111800000000000000111180000000000000       0090770900016748630645111814000105
100000000000000000000009077090001674800000000000000000000000010002100010107711181P00000000002            2  01101077111810111800000003317480000000001N011118000000000000000000000000000000000000000000000000000000000000000100010107711834VALDEMAR FECCHIO                        RUA DOUTOR MARTINS DE OLIVEIRA - 529 AP.            05638030                                                            000107
2SR. CAIXA, APOS O VENCIMENTO COBRAR 10% DE MULTA                                NAO RECEBER APOS 30 DIAS DO VENCIMENTO.                                                                                                                                                                                                         01111800000000000000111180000000000000       009077090001674810107711181P000108
100000000000000000000009077090001674800000000000000000000000010002100003330711181900000000002            2  01033307111810111800000004267750000000001N011118000000000000000000000000000000000000000000000000000000000000000100003330791837MARLI DA SILVA BARBOSA                  RUA GLICERIO CERQUEIRA LEITE - 151 - JAR            03675040                                                            000110
2SR. CAIXA, APOS O VENCIMENTO COBRAR 10% DE MULTA                                NAO RECEBER APOS 30 DIAS DO VENCIMENTO.                                                                                                                                                                                                         01111800000000000000111180000000000000       0090770900016748033307111819000111
100000000000000000000009077090001674800000000000000000000000010002100008931011181700000000002            2  01089310111810111800000001734790000000001N011118000000000000000000000000000000000000000000000000000000000000000100008931031874MARIA MARINHO DE OLIVEIRA               AVENIDA 9 DE JULHO - 1854 AP.81 - BELA V            01312001                                                            000113
2SR. CAIXA, APOS O VENCIMENTO COBRAR 10% DE MULTA                                NAO RECEBER APOS 30 DIAS DO VENCIMENTO.                                                                                                                                                                                                         01111800000000000000111180000000000000       0090770900016748089310111817000114
100000000000000000000009077090001674800000000000000000000000010002100005920511181300000000002            2  01059205111810111800000002015510000000001N011118000000000000000000000000000000000000000000000000000000000000000100005920579846SONIA MARIA VALDO POLLO                 RUA PALMIRA CERVI BARBARO - 797 - CIDADE            13214370                                                            000116
2SR. CAIXA, APOS O VENCIMENTO COBRAR 10% DE MULTA                                NAO RECEBER APOS 30 DIAS DO VENCIMENTO.                                                                                                                                                                                                         01111800000000000000111180000000000000       0090770900016748059205111813000117
100000000000000000000009077090001674800000000000000000000000010002100002494111181400000000002            2  01024941111810111800000003030400000000001N011118000000000000000000000000000000000000000000000000000000000000000100002494107881CIRO FRANCISCO MARCHI DURIGON           RUA MONTE CASTELO - 262 AP.115 - AVIACAO            11702720                                                            000119
2SR. CAIXA, APOS O VENCIMENTO COBRAR 10% DE MULTA                                NAO RECEBER APOS 30 DIAS DO VENCIMENTO.                                                                                                                                                                                                         01111800000000000000111180000000000000       0090770900016748024941111814000120
100000000000000000000009077090001674800000000000000000000000010002100007002311181100000000002            2  01070023111810111800000002979040000000001N011118000000000000000000000000000000000000000000000000000000000000000100007002345869DOMINGOS DE BRITO GALVAO                RUA MONTE CASTELO - 262 AP.44 - AVIACAO             11702720                                                            000122
2SR. CAIXA, APOS O VENCIMENTO COBRAR 10% DE MULTA                                NAO RECEBER APOS 30 DIAS DO VENCIMENTO.                                                                                                                                                                                                         01111800000000000000111180000000000000       0090770900016748070023111811000123
100000000000000000000009077090001674800000000000000000000000010002100009346811181100000000002            2  01093468111810111800000001240920000000001N011118000000000000000000000000000000000000000000000000000000000000000100009346863862NELSON DE SOUZA SANTOS                  RUA PRIMEIRA CRUZ - 90 - PARQUE INDEPEND            03236060                                                            000125
2SR. CAIXA, APOS O VENCIMENTO COBRAR 10% DE MULTA                                NAO RECEBER APOS 30 DIAS DO VENCIMENTO.                                                                                                                                                                                                         01111800000000000000111180000000000000       0090770900016748093468111811000126
100000000000000000000009077090001674800000000000000000000000010002100016299011181500000000002            2  01162990111810111800000002871800000000001N011118000000000000000000000000000000000000000000000000000000000000000100016299008857FERNANDO CESAR CARVALHO                 AVENIDA MARCONDES DE BRITO - 1340 AP.74             03509000                                                            000128
2SR. CAIXA, APOS O VENCIMENTO COBRAR 10% DE MULTA                                NAO RECEBER APOS 30 DIAS DO VENCIMENTO.                                                                                                                                                                                                         01111800000000000000111180000000000000       0090770900016748162990111815000129
100000000000000000000009077090001674800000000000000000000000010002100031082811181900000000002            2  01310828111810111800000002885710000000001N011118000000000000000000000000000000000000000000000000000000000000000100031082898880VANESSA DOS SANTOS NEIVA                RUA MONTE CASTELO - 296 AP.33 - BAIRRO A            11702720                                                            000131
2SR. CAIXA, APOS O VENCIMENTO COBRAR 10% DE MULTA                                NAO RECEBER APOS 30 DIAS DO VENCIMENTO.                                                                                                                                                                                                         01111800000000000000111180000000000000       0090770900016748310828111819000132
100000000000000000000009077090001674800000000000000000000000010002100065895311181900000000002            2  01658953111810111800000001756990000000001N011118000000000000000000000000000000000000000000000000000000000000000100065895304834MARINHO BARBOSA CUNHA                   AVENIDA EDU CHAVES - 639 AP.43 - PARQUE             02229000                                                            000134
2SR. CAIXA, APOS O VENCIMENTO COBRAR 10% DE MULTA                                NAO RECEBER APOS 30 DIAS DO VENCIMENTO.                                                                                                                                                                                                         01111800000000000000111180000000000000       0090770900016748658953111819000135
9                                                                                                                                                                                                                                                                                                                                                                                                         000136