01REMESSA01COBRANCA       00000000000008017025HB SANTOS CONSTRUTORA E INCORP237BRADESCO       010923        MX0000185                                                                                                                                                                                                                                                                                     000001
100000000000000000000009033990000627000000000000000000000000010002020016479009231200000000002            2  01164790092309092300000005556730000000001N010923000000000000000000000000000000000000000000000000000000000000000100016479002806LOURDES PEREIRA DE QUEIROZ SECANECHIA   RUA PAULINO CURSI - 437 - CIDADE SAO MAT            03960060                                                            000002
2SR. CAIXA, APOS O VENCIMENTO COBRAR 2% DE MULTA                                 NAO RECEBER APOS 30 DIAS DO VENCIMENTO.                                                                                                                                                                                                         01092300000000000000109230000000000000       0090339900006270164790092312000003
100000000000000000000009033990000627000000000000000000000000010002020017229709232200000000002            2  01172297092309092300000004228630000000001N010923000000000000000000000000000000000000000000000000000000000000000100017229751802BERENICE VIEIRA KERSTING                RUA ATIBAIA - 17 AP.417 - BAIRRO IMPERAD            11707380                                                            000005
2SR. CAIXA, APOS O VENCIMENTO COBRAR 2% DE MULTA                                 NAO RECEBER APOS 30 DIAS DO VENCIMENTO.                                                                                                                                                                                                         01092300000000000000109230000000000000       0090339900006270172297092322000006
100000000000000000000009033990000627000000000000000000000000010002020009361409231P00000000002            2  01093614092309092300000004034190000000001N010923000000000000000000000000000000000000000000000000000000000000000100009361471805JOSE BARBOSA DA SILVA                   RUA ALFREDO INACIO TRINDADE  - 60 AP.44             02344100                                                            000008
2SR. CAIXA, APOS O VENCIMENTO COBRAR 2% DE MULTA                                 NAO RECEBER APOS 30 DIAS DO VENCIMENTO.                                                                                                                                                                                                         01092300000000000000109230000000000000       009033990000627009361409231P000009
100000000000000000000009033990000627000000000000000000000000010002020012756909231300000000002            2  01127569092309092300000003482380000000001N010923000000000000000000000000000000000000000000000000000000000000000100012756959812ITAMAR JUVENAL DIAS DA SILVA            RUA ELISEU REINALDO MORAES VIEIRA - 90 A            02858000                                                            000011
2SR. CAIXA, APOS O VENCIMENTO COBRAR 2% DE MULTA                                 NAO RECEBER APOS 30 DIAS DO VENCIMENTO.                                                                                                                                                                                                         01092300000000000000109230000000000000       0090339900006270127569092313000012
100000000000000000000009033990000627000000000000000000000000010002020029433609231700000000002            2  01294336092311092300000002886480000000001N010923000000000000000000000000000000000000000000000000000000000000000100029433631897MARIO MUNIZ                             RUA JOSE CALIXTO DO CARMO - 286 AP.53 -             11702690                                                            000014
2SR. CAIXA, APOS O VENCIMENTO COBRAR 2% DE MULTA                                 NAO RECEBER APOS 30 DIAS DO VENCIMENTO.                                                                                                                                                                                                         01092300000000000000109230000000000000       0090339900006270294336092317000015
100000000000000000000009033990000627000000000000000000000000010002020005029809231P00000000002            2  01050298092309092300000003550490000000001N010923000000000000000000000000000000000000000000000000000000000000000100005029828885LAURINETE DA CONCEICAO DE NORONHA       RUA MARIA LUCIA DE TOLEDO LEITE MORAES -            04434040                                                            000017
2SR. CAIXA, APOS O VENCIMENTO COBRAR 2% DE MULTA                                 NAO RECEBER APOS 30 DIAS DO VENCIMENTO.                                                                                                                                                                                                         01092300000000000000109230000000000000       009033990000627005029809231P000018
100000000000000000000009033990000627000000000000000000000000010002020013388909231100000000002            2  01133889092311092300000002813860000000001N010923000000000000000000000000000000000000000000000000000000000000000100013388936889NEUTON DE SOUZA RAMOS                   RUA JOSE CALIXTO DO CARMO - 286 AP.61 -             11702690                                                            000020
2SR. CAIXA, APOS O VENCIMENTO COBRAR 2% DE MULTA                                 NAO RECEBER APOS 30 DIAS DO VENCIMENTO.                                                                                                                                                                                                         01092300000000000000109230000000000000       0090339900006270133889092311000021
100000000000000000000009033990000627000000000000000000000000010002020012774909231100000000002            2  01127749092311092300000002866700000000001N010923000000000000000000000000000000000000000000000000000000000000000100012774906865JOSE MILTON SANTIAGO                    RUA BATATAIS - 47 - CIDADE ESTELA - POA             08563140                                                            000023
2SR. CAIXA, APOS O VENCIMENTO COBRAR 2% DE MULTA                                 NAO RECEBER APOS 30 DIAS DO VENCIMENTO.                                                                                                                                                                                                         01092300000000000000109230000000000000       0090339900006270127749092311000024
100000000000000000000009033990000627000000000000000000000000010002020005613809231100000000002            2  01056138092311092300000002636560000000001N010923000000000000000000000000000000000000000000000000000000000000000100005613843805NILZA MARIA DE OLIVEIRA                 RUA JOSE GONCALVES DE FREITAS - 66 C2 -             08210550                                                            000026
2SR. CAIXA, APOS O VENCIMENTO COBRAR 2% DE MULTA                                 NAO RECEBER APOS 30 DIAS DO VENCIMENTO.                                                                                                                                                                                                         01092300000000000000109230000000000000       0090339900006270056138092311000027
100000000000000000000009033990000627000000000000000000000000010002020007574909231100000000002            2  01075749092311092300000002706370000000001N010923000000000000000000000000000000000000000000000000000000000000000100007574936889JORGE LUCIANO PEREIRA BORRIELLO         RUA JOSE CALIXTO DO CARMO - 286 AP.54 -             11702690                                                            000029
2SR. CAIXA, APOS O VENCIMENTO COBRAR 2% DE MULTA                                 NAO RECEBER APOS 30 DIAS DO VENCIMENTO.                                                                                                                                                                                                         01092300000000000000109230000000000000       0090339900006270075749092311000030
100000000000000000000009033990000627000000000000000000000000010002020008214909231400000000002            2  01082149092311092300000002747440000000001N010923000000000000000000000000000000000000000000000000000000000000000100008214973830JAMIL CHALA                             RUA JOSE CALIXTO DO CARMO - 286 AP.22 -             11702690                                                            000032
2SR. CAIXA, APOS O VENCIMENTO COBRAR 2% DE MULTA                                 NAO RECEBER APOS 30 DIAS DO VENCIMENTO.                                                                                                                                                                                                         01092300000000000000109230000000000000       0090339900006270082149092314000033
100000000000000000000009033990000627000000000000000000000000010002020032495009231100000000002            2  01324950092311092300000003078860000000001N010923000000000000000000000000000000000000000000000000000000000000000100032495004881PAULO EDUARDO DOS SANTOS                RUA REPUBLICA DO IRAQUE - 1119 - CAMPO B            04611002                                                            000035
2SR. CAIXA, APOS O VENCIMENTO COBRAR 2% DE MULTA                                 NAO RECEBER APOS 30 DIAS DO VENCIMENTO.                                                                                                                                                                                                         01092300000000000000109230000000000000       0090339900006270324950092311000036
100000000000000000000009033990000627000000000000000000000000010002020016498009231900000000002            2  01164980092311092300000002700230000000001N010923000000000000000000000000000000000000000000000000000000000000000100016498053810GILMA CEZARIO GARCIA CORRITORI          RUA LAURENTINO XAVIER DOS SANTOS - 336 -            08240740                                                            000038
2SR. CAIXA, APOS O VENCIMENTO COBRAR 2% DE MULTA                                 NAO RECEBER APOS 30 DIAS DO VENCIMENTO.                                                                                                                                                                                                         01092300000000000000109230000000000000       0090339900006270164980092319000039
100000000000000000000009033990000627000000000000000000000000010002020029339009231800000000002            2  01293390092311092300000002887440000000001N010923000000000000000000000000000000000000000000000000000000000000000100029339051831RONALD DIDOFF                           RUA CORONEL FERREIRA BRAGA - 188 - VILA             03522010                                                            000041
2SR. CAIXA, APOS O VENCIMENTO COBRAR 2% DE MULTA                                 NAO RECEBER APOS 30 DIAS DO VENCIMENTO.                                                                                                                                                                                                         01092300000000000000109230000000000000       0090339900006270293390092318000042
100000000000000000000009033990000627000000000000000000000000010002020017357809231P00000000002            2  01173578092311092300000003058050000000001N010923000000000000000000000000000000000000000000000000000000000000000100017357859894MARCIO GUIMARAES                        RUA GENERAL CAMARA - 188 SALA 11 - CENTR            11010120                                                            000044
2SR. CAIXA, APOS O VENCIMENTO COBRAR 2% DE MULTA                                 NAO RECEBER APOS 30 DIAS DO VENCIMENTO.                                                                                                                                                                                                         01092300000000000000109230000000000000       009033990000627017357809231P000045
100000000000000000000009033990000627000000000000000000000000010002020010563009231P00000000002            2  01105630092311092300000003136220000000001N010923000000000000000000000000000000000000000000000000000000000000000100010563033878VERA LUCIA RIBEIRO LONGANEZI            RUA DOS CAMARES - 150 AP.24 BL.02 - CARA            02068030                                                            000047
2SR. CAIXA, APOS O VENCIMENTO COBRAR 2% DE MULTA                                 NAO RECEBER APOS 30 DIAS DO VENCIMENTO.                                                                                                                                                                                                         01092300000000000000109230000000000000       009033990000627010563009231P000048
100000000000000000000009033990000627000000000000000000000000010002020005529609231400000000002            2  01055296092311092300000002846010000000001N010923000000000000000000000000000000000000000000000000000000000000000100005529616801JOAQUIM JORGE DA COSTA                  RUA JOSE CALIXTO DO CARMO - 286 AP.106 -            11702690                                                            000050
2SR. CAIXA, APOS O VENCIMENTO COBRAR 2% DE MULTA                                 NAO RECEBER APOS 30 DIAS DO VENCIMENTO.                                                                                                                                                                                                         01092300000000000000109230000000000000       0090339900006270055296092314000051
100000000000000000000009033990000627000000000000000000000000010002020015550709231000000000002            2  01155507092309092300000002691280000000001N010923000000000000000000000000000000000000000000000000000000000000000100015550706806MARY MIWA                               RUA CARLOS JOSE BORSTENS - 50 AP.105 - A            11702750                                                            000053
2SR. CAIXA, APOS O VENCIMENTO COBRAR 2% DE MULTA                                 NAO RECEBER APOS 30 DIAS DO VENCIMENTO.                                                                                                                                                                                                         01092300000000000000109230000000000000       0090339900006270155507092310000054
100000000000000000000009033990000627000000000000000000000000010002020015464609231000000000002            2  01154646092311092300000002991840000000001N010923000000000000000000000000000000000000000000000000000000000000000100015464647864SONIA TERESA VOLPATO                    RUA JOSE CALIXTO DO CARMO - 286 AP.73 -             11702690                                                            000056
2SR. CAIXA, APOS O VENCIMENTO COBRAR 2% DE MULTA                                 NAO RECEBER APOS 30 DIAS DO VENCIMENTO.                                                                                                                                                                                                         01092300000000000000109230000000000000       0090339900006270154646092310000057
100000000000000000000009033990000627000000000000000000000000010002020008657809231P00000000002            2  01086578092311092300000002961810000000001N010923000000000000000000000000000000000000000000000000000000000000000100008657886855ARLINDO DA CRUZ                         AVENIDA ARICANDUVA - 8.256 AP.54 BL.10 -            03951220                                                            000059
2SR. CAIXA, APOS O VENCIMENTO COBRAR 2% DE MULTA                                 NAO RECEBER APOS 30 DIAS DO VENCIMENTO.                                                                                                                                                                                                         01092300000000000000109230000000000000       009033990000627008657809231P000060
100000000000000000000009033990000627000000000000000000000000010002020059735109231800000000002            2  01597351092309092300000001674960000000001N010923000000000000000000000000000000000000000000000000000000000000000100059735180863HELIO JOSE MARQUES                      RUA MARTIM AFONSO DE SOUZA - 1007 AP.102            11702790                                                            000062
2SR. CAIXA, APOS O VENCIMENTO COBRAR 2% DE MULTA                                 NAO RECEBER APOS 30 DIAS DO VENCIMENTO.                                                                                                                                                                                                         01092300000000000000109230000000000000       0090339900006270597351092318000063
100000000000000000000009033990000627000000000000000000000000010002020026347809231100000000002            2  01263478092311092300000003166080000000001N010923000000000000000000000000000000000000000000000000000000000000000100026347872862VALDECI SILVA MEIRELES                  RUA JOSE BATISTA DA SILVA - 292 - JARDIM            06851470                                                            000065
2SR. CAIXA, APOS O VENCIMENTO COBRAR 2% DE MULTA                                 NAO RECEBER APOS 30 DIAS DO VENCIMENTO.                                                                                                                                                                                                         01092300000000000000109230000000000000       0090339900006270263478092311000066
100000000000000000000009033990000627000000000000000000000000010002020013135209231200000000002            2  01131352092311092300000002908810000000001N010923000000000000000000000000000000000000000000000000000000000000000100013135261859EDUARDO ZANOLA                          RUA ROLANDO PIETRO BONINI - 46 - JARDIM             09781040                                                            000068
2SR. CAIXA, APOS O VENCIMENTO COBRAR 2% DE MULTA                                 NAO RECEBER APOS 30 DIAS DO VENCIMENTO.                                                                                                                                                                                                         01092300000000000000109230000000000000       0090339900006270131352092312000069
100000000000000000000009033990000627000000000000000000000000010002020009797609231300000000002            2  01097976092311092300000002832860000000001N010923000000000000000000000000000000000000000000000000000000000000000100009797626857RICARDO SOBRAL DE OLIVEIRA              RUA 23 DE MAIO - 139 AP.32 - VILA MIRIM             11704690                                                            000071
2SR. CAIXA, APOS O VENCIMENTO COBRAR 2% DE MULTA                                 NAO RECEBER APOS 30 DIAS DO VENCIMENTO.                                                                                                                                                                                                         01092300000000000000109230000000000000       0090339900006270097976092313000072
100000000000000000000009033990000627000000000000000000000000010002020022728409231400000000002            2  01227284092311092300000003065380000000001N010923000000000000000000000000000000000000000000000000000000000000000100022728497842WILLIAN DE SOUZA MELLO                  RUA JOSE CALIXTO DO CARMO - 286 AP.111 -            11702690                                                            000074
2SR. CAIXA, APOS O VENCIMENTO COBRAR 2% DE MULTA                                 NAO RECEBER APOS 30 DIAS DO VENCIMENTO.                                                                                                                                                                                                         01092300000000000000109230000000000000       0090339900006270227284092314000075
100000000000000000000009033990000627000000000000000000000000010002020016909709231900000000002            2  01169097092311092300000002708830000000001N010923000000000000000000000000000000000000000000000000000000000000000100016909746805EDIVALDO SANTANA DOS SANTOS             ESTRADA JOAO GASPAR DELGADO - 80 AP.213             08536100                                                            000077
2SR. CAIXA, APOS O VENCIMENTO COBRAR 2% DE MULTA                                 NAO RECEBER APOS 30 DIAS DO VENCIMENTO.                                                                                                                                                                                                         01092300000000000000109230000000000000       0090339900006270169097092319000078
100000000000000000000009033990000627000000000000000000000000010002020022036009231600000000002            2  01220360092309092300000004207170000000001N010923000000000000000000000000000000000000000000000000000000000000000100022036003818DERLIS TERAN QUIROGA ROGATO             RUA JOAO RIBEIRO - 320 AP.131SB - CAMPES            09070250                                                            000080
2SR. CAIXA, APOS O VENCIMENTO COBRAR 2% DE MULTA                                 NAO RECEBER APOS 30 DIAS DO VENCIMENTO.                                                                                                                                                                                                         01092300000000000000109230000000000000       0090339900006270220360092316000081
100000000000000000000009033990000627000000000000000000000000010002020017229709233000000000002            2  01172297092309092300000004060290000000001N010923000000000000000000000000000000000000000000000000000000000000000100017229751802BERENICE VIEIRA KERSTING                RUA ATIBAIA - 17 AP.417 - BAIRRO IMPERAD            11707380                                                            000083
2SR. CAIXA, APOS O VENCIMENTO COBRAR 2% DE MULTA                                 NAO RECEBER APOS 30 DIAS DO VENCIMENTO.                                                                                                                                                                                                         01092300000000000000109230000000000000       0090339900006270172297092330000084
100000000000000000000009033990000627000000000000000000000000010002020033451609231700000000002            2  01334516092311092300000002451960000000001N010923000000000000000000000000000000000000000000000000000000000000000100033451620839ARAO ELISIARIO  NUNES                   RUA JOSE CALIXTO DO CARMO - 286 AP.64 -             11702690                                                            000086
2SR. CAIXA, APOS O VENCIMENTO COBRAR 2% DE MULTA                                 NAO RECEBER APOS 30 DIAS DO VENCIMENTO.                                                                                                                                                                                                         01092300000000000000109230000000000000       0090339900006270334516092317000087
100000000000000000000009033990000627000000000000000000000000010002020011369109231500000000002            2  01113691092311092300000002678460000000001N010923000000000000000000000000000000000000000000000000000000000000000100011369165803ELIANA CORREA DE OLIVEIRA               RUA MAESTRO ZEFERINO SANTANA - 65 - VILA            18040010                                                            000089
2SR. CAIXA, APOS O VENCIMENTO COBRAR 2% DE MULTA                                 NAO RECEBER APOS 30 DIAS DO VENCIMENTO.                                                                                                                                                                                                         01092300000000000000109230000000000000       0090339900006270113691092315000090
100000000000000000000009033990000627000000000000000000000000010002020002253809231900000000002            2  01022538092311092300000002380620000000001N010923000000000000000000000000000000000000000000000000000000000000000100002253816809EDMILSON ALVES DA SILVA                 RUA JOSE CALIXTO DO CARMO - 286 AP.93 -             11702690                                                            000092
2SR. CAIXA, APOS O VENCIMENTO COBRAR 2% DE MULTA                                 NAO RECEBER APOS 30 DIAS DO VENCIMENTO.                                                                                                                                                                                                         01092300000000000000109230000000000000       0090339900006270022538092319000093
100000000000000000000009033990000627000000000000000000000000010002020037947009231000000000002            2  01379470092311092300000004228150000000001N010923000000000000000000000000000000000000000000000000000000000000000100037947070873BRUNO DE CAETANO MARRINHAS              AVENIDA GENERAL BARRETO DE MENEZES - 323            09791150                                                            000095
2SR. CAIXA, APOS O VENCIMENTO COBRAR 2% DE MULTA                                 NAO RECEBER APOS 30 DIAS DO VENCIMENTO.                                                                                                                                                                                                         01092300000000000000109230000000000000       0090339900006270379470092310000096
100000000000000000000009033990000627000000000000000000000000010002020037517709231900000000002            2  01375177092309092300000004462380000000001N010923000000000000000000000000000000000000000000000000000000000000000100037517785869RENATO JOSE DE LIMA MELO                RUA ARISTIDES LOBO - 148 AP.41 BLOCO 03             03041100                                                            000098
2SR. CAIXA, APOS O VENCIMENTO COBRAR 2% DE MULTA                                 NAO RECEBER APOS 30 DIAS DO VENCIMENTO.                                                                                                                                                                                                         01092300000000000000109230000000000000       0090339900006270375177092319000099
100000000000000000000009033990000627000000000000000000000000010002020070367909231P00000000002            2  01703679092311092300000002235560000000001N010923000000000000000000000000000000000000000000000000000000000000000100070367949849TEODOMIRO ALVES DOS SANTOS              RUA ANDRE PAZ - 13 - JARDIM SANTO ANDRE             08390230                                                            000101
2SR. CAIXA, APOS O VENCIMENTO COBRAR 2% DE MULTA                                 NAO RECEBER APOS 30 DIAS DO VENCIMENTO.                                                                                                                                                                                                         01092300000000000000109230000000000000       009033990000627070367909231P000102
100000000000000000000009033990000627000000000000000000000000010002020004410809231900000000002            2  01044108092309092300000003315590000000001N010923000000000000000000000000000000000000000000000000000000000000000100004410802860LUIZ ALBERTO MARINHO                    AVENIDA BOSQUE DA SAUDE - 546 AP11 -  -             04142081                                                            000104
2SR. CAIXA, APOS O VENCIMENTO COBRAR 2% DE MULTA                                 NAO RECEBER APOS 30 DIAS DO VENCIMENTO.                                                                                                                                                                                                         01092300000000000000109230000000000000       0090339900006270044108092319000105
100000000000000000000009033990000627000000000000000000000000010002020004767609231400000000002            2  01047676092309092300000004426210000000001N010923000000000000000000000000000000000000000000000000000000000000000100004767679893ORLANDO GRANDE FILHO                    RUA ORLANDO MIGLIARI - 101 - JARDIM OURO            19906140                                                            000107
2SR. CAIXA, APOS O VENCIMENTO COBRAR 2% DE MULTA                                 NAO RECEBER APOS 30 DIAS DO VENCIMENTO.                                                                                                                                                                                                         01092300000000000000109230000000000000       0090339900006270047676092314000108
100000000000000000000009033990000627000000000000000000000000010002020064677809231P00000000002            2  01646778092309092300000013486400000000001N010923000000000000000000000000000000000000000000000000000000000000000100064677850887ANTONIO CARLOS DE OLIVEIRA              RUA DR.ANTONIO MAZILLI FILHO - 435 - PAR            02230070                                                            000110
2SR. CAIXA, APOS O VENCIMENTO COBRAR 2% DE MULTA                                 NAO RECEBER APOS 30 DIAS DO VENCIMENTO.                                                                                                                                                                                                         01092300000000000000109230000000000000       009033990000627064677809231P000111
100000000000000000000009033990000627000000000000000000000000010002020064677809232800000000002            2  01646778092309092300000003560550000000001N010923000000000000000000000000000000000000000000000000000000000000000100064677850887ANTONIO CARLOS DE OLIVEIRA              RUA DR.ANTONIO MAZILLI FILHO - 435 - PAR            02230070                                                            000113
2SR. CAIXA, APOS O VENCIMENTO COBRAR 2% DE MULTA                                 NAO RECEBER APOS 30 DIAS DO VENCIMENTO.                                                                                                                                                                                                         01092300000000000000109230000000000000       0090339900006270646778092328000114
100000000000000000000009033990000627000000000000000000000000010002020028082609231400000000002            2  01280826092311092300000002482000000000001N010923000000000000000000000000000000000000000000000000000000000000000100028082615869PRISCILA PEREIRA                        ALAMEDA AFONSO BOCCHIGLIERI - 184 - INTE            04445130                                                            000116
2SR. CAIXA, APOS O VENCIMENTO COBRAR 2% DE MULTA                                 NAO RECEBER APOS 30 DIAS DO VENCIMENTO.                                                                                                                                                                                                         01092300000000000000109230000000000000       0090339900006270280826092314000117
100000000000000000000009033990000627000000000000000000000000010002020058488609231200000000002            2  01584886092309092300000003247510000000001N010923000000000000000000000000000000000000000000000000000000000000000100058488618972ADAILTON ZANUTTO MORESCHI               R:RAPHAEL UNGARO - COND.RESERVA SERRA Q.            13212138                                                            000119
2SR. CAIXA, APOS O VENCIMENTO COBRAR 2% DE MULTA                                 NAO RECEBER APOS 30 DIAS DO VENCIMENTO.                                                                                                                                                                                                         01092300000000000000109230000000000000       0090339900006270584886092312000120
100000000000000000000009033990000627000000000000000000000000010002020002196009231700000000002            2  01021960092311092300000002441470000000001N010923000000000000000000000000000000000000000000000000000000000000000100002196012831VILEFORT DIAS BORGES                    RUA PORTO XAVIER - 189 AP.64 - VILA CARM            08210170                                                            000122
2SR. CAIXA, APOS O VENCIMENTO COBRAR 2% DE MULTA                                 NAO RECEBER APOS 30 DIAS DO VENCIMENTO.                                                                                                                                                                                                         01092300000000000000109230000000000000       0090339900006270021960092317000123
100000000000000000000009033990000627000000000000000000000000010002020031861509231500000000002            2  01318615092311092300000002537610000000001N010923000000000000000000000000000000000000000000000000000000000000000100031861586809VANIA TOMAZ                              -  -  -  -                                         00000000                                                            000125
2SR. CAIXA, APOS O VENCIMENTO COBRAR 2% DE MULTA                                 NAO RECEBER APOS 30 DIAS DO VENCIMENTO.                                                                                                                                                                                                         01092300000000000000109230000000000000       0090339900006270318615092315000126
100000000000000000000009033990000627000000000000000000000000010002020003104509231900000000002            2  01031045092309092300000009453370000000001N010923000000000000000000000000000000000000000000000000000000000000000100003104580804NELSON RODRIGUES                        RUA CARLOS JOSE BORSTENS - 50 AP.81 - AV            11702750                                                            000128
2SR. CAIXA, APOS O VENCIMENTO COBRAR 2% DE MULTA                                 NAO RECEBER APOS 30 DIAS DO VENCIMENTO.                                                                                                                                                                                                         01092300000000000000109230000000000000       0090339900006270031045092319000129
100000000000000000000009033990000627000000000000000000000000010002020007715309231700000000002            2  01077153092309092300000003994050000000001N010923000000000000000000000000000000000000000000000000000000000000000100007715360627NILTON RENNAN OLIVEIRA GOMES FILHO      RUA CARLOS JOSE BORSTENS - 50 AP.21 - AV            11702750                                                            000131
2SR. CAIXA, APOS O VENCIMENTO COBRAR 2% DE MULTA                                 NAO RECEBER APOS 30 DIAS DO VENCIMENTO.                                                                                                                                                                                                         01092300000000000000109230000000000000       0090339900006270077153092317000132
100000000000000000000009033990000627000000000000000000000000010002020007194009231800000000002            2  01071940092311092300000002837680000000001N010923000000000000000000000000000000000000000000000000000000000000000100007194010895RAUL AMANTINO KIRK DE SANCTIS           AVENIDA SANTA CATARINA - 756 AP.01 - VIL            04378000                                                            000134
2SR. CAIXA, APOS O VENCIMENTO COBRAR 2% DE MULTA                                 NAO RECEBER APOS 30 DIAS DO VENCIMENTO.                                                                                                                                                                                                         01092300000000000000109230000000000000       0090339900006270071940092318000135
100000000000000000000009033990000627000000000000000000000000010002020025738609231500000000002            2  01257386092309092300000005736310000000001N010923000000000000000000000000000000000000000000000000000000000000000100025738614810VILMAR JOSE PEREIRA                     ALAMEDA TIETE - 646 - CERQUEIRA CESAR -             01417020                                                            000137
2SR. CAIXA, APOS O VENCIMENTO COBRAR 2% DE MULTA                                 NAO RECEBER APOS 30 DIAS DO VENCIMENTO.                                                                                                                                                                                                         01092300000000000000109230000000000000       0090339900006270257386092315000138
100000000000000000000009033990000627000000000000000000000000010002020025738609232300000000002            2  01257386092309092300000005736280000000001N010923000000000000000000000000000000000000000000000000000000000000000100025738614810VILMAR JOSE PEREIRA                     ALAMEDA TIETE - 646 - CERQUEIRA CESAR -             01417020                                                            000140
2SR. CAIXA, APOS O VENCIMENTO COBRAR 2% DE MULTA                                 NAO RECEBER APOS 30 DIAS DO VENCIMENTO.                                                                                                                                                                                                         01092300000000000000109230000000000000       0090339900006270257386092323000141
100000000000000000000009033990000627000000000000000000000000010002020025738609233100000000002            2  01257386092309092300000005736290000000001N010923000000000000000000000000000000000000000000000000000000000000000100025738614810VILMAR JOSE PEREIRA                     ALAMEDA TIETE - 646 - CERQUEIRA CESAR -             01417020                                                            000143
2SR. CAIXA, APOS O VENCIMENTO COBRAR 2% DE MULTA                                 NAO RECEBER APOS 30 DIAS DO VENCIMENTO.                                                                                                                                                                                                         01092300000000000000109230000000000000       0090339900006270257386092331000144
100000000000000000000009033990000627000000000000000000000000010002020025738609234P00000000002            2  01257386092309092300000005736300000000001N010923000000000000000000000000000000000000000000000000000000000000000100025738614810VILMAR JOSE PEREIRA                     ALAMEDA TIETE - 646 - CERQUEIRA CESAR -             01417020                                                            000146
2SR. CAIXA, APOS O VENCIMENTO COBRAR 2% DE MULTA                                 NAO RECEBER APOS 30 DIAS DO VENCIMENTO.                                                                                                                                                                                                         01092300000000000000109230000000000000       009033990000627025738609234P000147
100000000000000000000009033990000627000000000000000000000000010002020011141509231700000000002            2  01111415092311092300000002981900000000001N010923000000000000000000000000000000000000000000000000000000000000000100011141508869PAULO ROBERTO TUNES SILVA               RUA PETROBRAS - 405 CASA 07 - VILA ANTON            03474060                                                            000149
2SR. CAIXA, APOS O VENCIMENTO COBRAR 2% DE MULTA                                 NAO RECEBER APOS 30 DIAS DO VENCIMENTO.                                                                                                                                                                                                         01092300000000000000109230000000000000       0090339900006270111415092317000150
100000000000000000000009033990000627000000000000000000000000010002020012449109231200000000002            2  01124491092311092300000003004640000000001N010923000000000000000000000000000000000000000000000000000000000000000100012449104810GILBERTO DOS SANTOS JUNIOR              RUA ALMIRANTE TAMANDARE - 89 AP.143 - BA            09310350                                                            000152
2SR. CAIXA, APOS O VENCIMENTO COBRAR 2% DE MULTA                                 NAO RECEBER APOS 30 DIAS DO VENCIMENTO.                                                                                                                                                                                                         01092300000000000000109230000000000000       0090339900006270124491092312000153
100000000000000000000009033990000627000000000000000000000000010002020011261309231000000000002            2  01112613092309092300000003965460000000001N010923000000000000000000000000000000000000000000000000000000000000000100011261359844JOVANETE DOS SANTOS PASSOS              RUA FULVIO MORGANTI - 672 - JARDIM PARAI            02417170                                                            000155
2SR. CAIXA, APOS O VENCIMENTO COBRAR 2% DE MULTA                                 NAO RECEBER APOS 30 DIAS DO VENCIMENTO.                                                                                                                                                                                                         01092300000000000000109230000000000000       0090339900006270112613092310000156
100000000000000000000009033990000627000000000000000000000000010002020036279309231P00000000002            2  01362793092309092300000003525040000000001N010923000000000000000000000000000000000000000000000000000000000000000100036279398838BRUNO DOCINI ORTEGA                     RUA GENERAL EUCLIDES FIGUEIREDO - 146 AP            11700780                                                            000158
2SR. CAIXA, APOS O VENCIMENTO COBRAR 2% DE MULTA                                 NAO RECEBER APOS 30 DIAS DO VENCIMENTO.                                                                                                                                                                                                         01092300000000000000109230000000000000       009033990000627036279309231P000159
100000000000000000000009033990000627000000000000000000000000010002020008475109231P00000000002            2  01084751092309092300000003972820000000001N010923000000000000000000000000000000000000000000000000000000000000000100008475110819HELENA ROSA DOS SANTOS                  AVENIDA ZELIA - 278 CASA 02 - PARQUE DOS            06436000                                                            000161
2SR. CAIXA, APOS O VENCIMENTO COBRAR 2% DE MULTA                                 NAO RECEBER APOS 30 DIAS DO VENCIMENTO.                                                                                                                                                                                                         01092300000000000000109230000000000000       009033990000627008475109231P000162
100000000000000000000009033990000627000000000000000000000000010002020001098209231900000000002            2  01010982092309092300000004344100000000001N010923000000000000000000000000000000000000000000000000000000000000000100001098222857JANDIRA DOS SANTOS PASSOS               RUA FULVIO MORGANTI - 672 - JARDIM PARAI            02417170                                                            000164
2SR. CAIXA, APOS O VENCIMENTO COBRAR 2% DE MULTA                                 NAO RECEBER APOS 30 DIAS DO VENCIMENTO.                                                                                                                                                                                                         01092300000000000000109230000000000000       0090339900006270010982092319000165
9                                                                                                                                                                                                                                                                                                                                                                                                         000166