01REMESSA01COBRANCA       00000000000004991454AIRES CONSTRUTORA E INCORPORAD237BRADESCO       091117        MX0000077                                                                                                                                                                                                                                                                                     000001
100000000000000000000009077090001674800000000000000000000000010002100001224511171200000000002            2  01012245111725111700000003283580000000001N091117000000000000000000000000000000000000000000000000000000000000000100001224509579REINALDO JUNIOR MARTINS DE ABREU        RUA JUSTINO NIGRO - 449 - INTERLAGOS - S            04815030                                                            000002
2SR. CAIXA, APOS O VENCIMENTO COBRAR 10% DE MULTA                                NAO RECEBER APOS 30 DIAS DO VENCIMENTO.                                                                                                                                                                                                         09111700000000000000911170000000000000       0090770900016748012245111712000003
100000000000000000000009077090001674800000000000000000000000010002100003325111171300000000002            2  01033251111725111700000003193500000000001N091117000000000000000000000000000000000000000000000000000000000000000100003325102808MARCOS DE OLIVEIRA JUNIOR               RUA LUIS NOVELLETO - 91 - PARQUE CONTINE            05324080                                                            000005
2SR. CAIXA, APOS O VENCIMENTO COBRAR 10% DE MULTA                                NAO RECEBER APOS 30 DIAS DO VENCIMENTO.                                                                                                                                                                                                         09111700000000000000911170000000000000       0090770900016748033251111713000006
100000000000000000000009077090001674800000000000000000000000010002100016338911171500000000002            2  01163389111725111700000003239860000000001N091117000000000000000000000000000000000000000000000000000000000000000100016338929806EDVALDO DA SILVA ANDRADE                RUA ARIA - 434 - PARQUE ALVES DE LIMA -             04902170                                                            000008
2SR. CAIXA, APOS O VENCIMENTO COBRAR 10% DE MULTA                                NAO RECEBER APOS 30 DIAS DO VENCIMENTO.                                                                                                                                                                                                         09111700000000000000911170000000000000       0090770900016748163389111715000009
100000000000000000000009077090001674800000000000000000000000010002100026836911171500000000002            2  01268369111725111700000002933910000000001N091117000000000000000000000000000000000000000000000000000000000000000100026836908860VANDERLEI FIGUEIREDO DE CARVALHO        RUA TUPI - 840 - VILA TUPI - PRAIA GRAND            11703260                                                            000011
2SR. CAIXA, APOS O VENCIMENTO COBRAR 10% DE MULTA                                NAO RECEBER APOS 30 DIAS DO VENCIMENTO.                                                                                                                                                                                                         09111700000000000000911170000000000000       0090770900016748268369111715000012
100000000000000000000009077090001674800000000000000000000000010002100059861511171100000000002            2  01598615111725111700000003258760000000001N091117000000000000000000000000000000000000000000000000000000000000000100059861576800REINALDO LOPES DE OLIVEIRA              RUA DA SERVIDAO - 40 - VILA ROSCHEL - SA            04891045                                                            000014
2SR. CAIXA, APOS O VENCIMENTO COBRAR 10% DE MULTA                                NAO RECEBER APOS 30 DIAS DO VENCIMENTO.                                                                                                                                                                                                         09111700000000000000911170000000000000       0090770900016748598615111711000015
100000000000000000000009077090001674800000000000000000000000010002100008158811171P00000000002            2  01081588111725111700000001860390000000001N091117000000000000000000000000000000000000000000000000000000000000000100008158846807JULIO CESAR KYOO WATANUKI               AVENIDA PRESIDENTE CASTELO BRANCO - 460             11700800                                                            000017
2SR. CAIXA, APOS O VENCIMENTO COBRAR 10% DE MULTA                                NAO RECEBER APOS 30 DIAS DO VENCIMENTO.                                                                                                                                                                                                         09111700000000000000911170000000000000       009077090001674808158811171P000018
100000000000000000000009077090001674800000000000000000000000010002100028379811171400000000002            2  01283798111725111700000002922770000000001N091117000000000000000000000000000000000000000000000000000000000000000100028379879805EDMILSON DANIEL GARCIA WATANUKI         RUA MONTE CASTELO - 295 AP.82 - AVIACAO             11702720                                                            000020
2SR. CAIXA, APOS O VENCIMENTO COBRAR 10% DE MULTA                                NAO RECEBER APOS 30 DIAS DO VENCIMENTO.                                                                                                                                                                                                         09111700000000000000911170000000000000       0090770900016748283798111714000021
100000000000000000000009077090001674800000000000000000000000010002100016330911171P00000000002            2  01163309111725111700000003239030000000001N091117000000000000000000000000000000000000000000000000000000000000000100016330938830KARINA CORDEIRO PIASSA                  CONDE MOREIRA LIMA - 644 - JARDIM JABAQU            04384032                                                            000023
2SR. CAIXA, APOS O VENCIMENTO COBRAR 10% DE MULTA                                NAO RECEBER APOS 30 DIAS DO VENCIMENTO.                                                                                                                                                                                                         09111700000000000000911170000000000000       009077090001674816330911171P000024
100000000000000000000009077090001674800000000000000000000000010002100077027611171200000000002            2  01770276111725111700000003148080000000001N091117000000000000000000000000000000000000000000000000000000000000000100077027604868CLINEU LISSONI                          AVENIDA VILA EMA - 1100 AP.41 - VILA PRU            03156000                                                            000026
2SR. CAIXA, APOS O VENCIMENTO COBRAR 10% DE MULTA                                NAO RECEBER APOS 30 DIAS DO VENCIMENTO.                                                                                                                                                                                                         09111700000000000000911170000000000000       0090770900016748770276111712000027
100000000000000000000009077090001674800000000000000000000000010002100005627911171900000000002            2  01056279111725111700000002951470000000001N091117000000000000000000000000000000000000000000000000000000000000000100005627947861FERNANDO CESAR MARCELINO                RUA CASA FORTE - 46 AP.11 - AGUA FRIA -             02336040                                                            000029
2SR. CAIXA, APOS O VENCIMENTO COBRAR 10% DE MULTA                                NAO RECEBER APOS 30 DIAS DO VENCIMENTO.                                                                                                                                                                                                         09111700000000000000911170000000000000       0090770900016748056279111719000030
100000000000000000000009077090001674800000000000000000000000010002100029380711171P00000000002            2  01293807111725111700000002934090000000001N091117000000000000000000000000000000000000000000000000000000000000000100029380708882EDUARDO MENDONCA DAMASCENO              RUA MONTE CASTELO - 296 AP.12 - AVIACAO             11702720                                                            000032
2SR. CAIXA, APOS O VENCIMENTO COBRAR 10% DE MULTA                                NAO RECEBER APOS 30 DIAS DO VENCIMENTO.                                                                                                                                                                                                         09111700000000000000911170000000000000       009077090001674829380711171P000033
100000000000000000000009077090001674800000000000000000000000010002100023988511171300000000002            2  01239885111725111700000002979230000000001N091117000000000000000000000000000000000000000000000000000000000000000100023988525634DALMY PIMENTA                           SAO CAETANO - 136 - VILA SAO VICENTE - U            38026220                                                            000035
2SR. CAIXA, APOS O VENCIMENTO COBRAR 10% DE MULTA                                NAO RECEBER APOS 30 DIAS DO VENCIMENTO.                                                                                                                                                                                                         09111700000000000000911170000000000000       0090770900016748239885111713000036
100000000000000000000009077090001674800000000000000000000000010002100004735211171500000000002            2  01047352111725111700000003239210000000001N091117000000000000000000000000000000000000000000000000000000000000000100004735273832DARIO LUIZ GONCALVES                    RUA MONTE CASTELO - 295 AP.113 - AVIACAO            11702720                                                            000038
2SR. CAIXA, APOS O VENCIMENTO COBRAR 10% DE MULTA                                NAO RECEBER APOS 30 DIAS DO VENCIMENTO.                                                                                                                                                                                                         09111700000000000000911170000000000000       0090770900016748047352111715000039
100000000000000000000009077090001674800000000000000000000000010002100007635211171500000000002            2  01076352111725111700000002896060000000001N091117000000000000000000000000000000000000000000000000000000000000000100007635293893SILVIO CARDOSO ZACARIAS                 RUA SOLIDONIO LEITE - 2718 AP.102 BLOCO             03275000                                                            000041
2SR. CAIXA, APOS O VENCIMENTO COBRAR 10% DE MULTA                                NAO RECEBER APOS 30 DIAS DO VENCIMENTO.                                                                                                                                                                                                         09111700000000000000911170000000000000       0090770900016748076352111715000042
100000000000000000000009077090001674800000000000000000000000010002100067192911171500000000002            2  01671929111725111700000002835150000000001N091117000000000000000000000000000000000000000000000000000000000000000100067192920800SONIA MARIA RIBEIRO SUDO                RUA INGAZEIRA - 133 - SAO MIGUEL - SAO P            08032080                                                            000044
2SR. CAIXA, APOS O VENCIMENTO COBRAR 10% DE MULTA                                NAO RECEBER APOS 30 DIAS DO VENCIMENTO.                                                                                                                                                                                                         09111700000000000000911170000000000000       0090770900016748671929111715000045
100000000000000000000009077090001674800000000000000000000000010002100007975911171900000000002            2  01079759111725111700000003150770000000001N091117000000000000000000000000000000000000000000000000000000000000000100007975958808JOCY VIGNADO                            RUA PEDRO GONCALVES SOBRINHO - 568 - PAR            13098641                                                            000047
2SR. CAIXA, APOS O VENCIMENTO COBRAR 10% DE MULTA                                NAO RECEBER APOS 30 DIAS DO VENCIMENTO.                                                                                                                                                                                                         09111700000000000000911170000000000000       0090770900016748079759111719000048
100000000000000000000009077090001674800000000000000000000000010002100036712511171100000000002            2  01367125111725111700000002946090000000001N091117000000000000000000000000000000000000000000000000000000000000000100036712580803WALTER BARRETO DE ALMEIDA               RUA MONTE CASTELO - 296 AP.44 - AVIACAO             11702720                                                            000050
2SR. CAIXA, APOS O VENCIMENTO COBRAR 10% DE MULTA                                NAO RECEBER APOS 30 DIAS DO VENCIMENTO.                                                                                                                                                                                                         09111700000000000000911170000000000000       0090770900016748367125111711000051
100000000000000000000009077090001674800000000000000000000000010002100004290911171100000000002            2  01042909111725111700000003129600000000001N091117000000000000000000000000000000000000000000000000000000000000000100004290973876VLADIMIR PAIOLA BORREGO                 RUA GOMES - 429 - VILA IVONE - SAO PAULO            03275010                                                            000053
2SR. CAIXA, APOS O VENCIMENTO COBRAR 10% DE MULTA                                NAO RECEBER APOS 30 DIAS DO VENCIMENTO.                                                                                                                                                                                                         09111700000000000000911170000000000000       0090770900016748042909111711000054
100000000000000000000009077090001674800000000000000000000000010002100036386811171000000000002            2  01363868111725111700000003327680000000001N091117000000000000000000000000000000000000000000000000000000000000000100036386861833ALINE LEE WEI DE SOUZA                  AV. PRES.CASTELO BRANCO - 9127 AP.251 BL            11704600                                                            000056
2SR. CAIXA, APOS O VENCIMENTO COBRAR 10% DE MULTA                                NAO RECEBER APOS 30 DIAS DO VENCIMENTO.                                                                                                                                                                                                         09111700000000000000911170000000000000       0090770900016748363868111710000057
100000000000000000000009077090001674800000000000000000000000010002100026187911171500000000002            2  01261879111725111700000003087980000000001N091117000000000000000000000000000000000000000000000000000000000000000100026187960807CARINA CANTACESSO DE SOUZA              RUA MONTE CASTELO - 296 AP.91 - AVIACAO             11702720                                                            000059
2SR. CAIXA, APOS O VENCIMENTO COBRAR 10% DE MULTA                                NAO RECEBER APOS 30 DIAS DO VENCIMENTO.                                                                                                                                                                                                         09111700000000000000911170000000000000       0090770900016748261879111715000060
100000000000000000000009077090001674800000000000000000000000010002100070465311171100000000002            2  01704653111725111700000003026950000000001N091117000000000000000000000000000000000000000000000000000000000000000100070465320953SIDNEY CARASKI                          RUA DR.CELSO PACHECO BENTIM - 502 - PARQ            03571020                                                            000062
2SR. CAIXA, APOS O VENCIMENTO COBRAR 10% DE MULTA                                NAO RECEBER APOS 30 DIAS DO VENCIMENTO.                                                                                                                                                                                                         09111700000000000000911170000000000000       0090770900016748704653111711000063
100000000000000000000009077090001674800000000000000000000000010002100075759411171700000000002            2  01757594111725111700000002370360000000001N091117000000000000000000000000000000000000000000000000000000000000000100075759446800VALTER MUTAFEI                          RUA MONTE CASTELO - 295 AP.54 - AVIACAO             11702720                                                            000065
2SR. CAIXA, APOS O VENCIMENTO COBRAR 10% DE MULTA                                NAO RECEBER APOS 30 DIAS DO VENCIMENTO.                                                                                                                                                                                                         09111700000000000000911170000000000000       0090770900016748757594111717000066
100000000000000000000009077090001674800000000000000000000000010002100070328711171500000000002            2  01703287111725111700000003386660000000001N091117000000000000000000000000000000000000000000000000000000000000000100070328706868VALTER LIMA FERNANDES                   RUA DOMINGOS JORGE VELHO - 52 - CENTRO -            06843550                                                            000068
2SR. CAIXA, APOS O VENCIMENTO COBRAR 10% DE MULTA                                NAO RECEBER APOS 30 DIAS DO VENCIMENTO.                                                                                                                                                                                                         09111700000000000000911170000000000000       0090770900016748703287111715000069
100000000000000000000009077090001674800000000000000000000000010002100023132611171000000000002            2  01231326111725111700000001839600000000001N091117000000000000000000000000000000000000000000000000000000000000000100023132672882LEANDRO MORENO                          RUA MONTE CASTELO - 296 AP.64 - AVIACAO             11702720                                                            000071
2SR. CAIXA, APOS O VENCIMENTO COBRAR 10% DE MULTA                                NAO RECEBER APOS 30 DIAS DO VENCIMENTO.                                                                                                                                                                                                         09111700000000000000911170000000000000       0090770900016748231326111710000072
100000000000000000000009077090001674800000000000000000000000010002100099264611171P00000000002            2  01992646111725111700000003137260000000001N091117000000000000000000000000000000000000000000000000000000000000000100099264692800LEONTINO PINHEIRO DA SILVA              AVENIDA JOAO BATISTA FITIPALDI - 469 - V            08685000                                                            000074
2SR. CAIXA, APOS O VENCIMENTO COBRAR 10% DE MULTA                                NAO RECEBER APOS 30 DIAS DO VENCIMENTO.                                                                                                                                                                                                         09111700000000000000911170000000000000       009077090001674899264611171P000075
100000000000000000000009077090001674800000000000000000000000010002100000666311171000000000002            2  01006663111725111700000003026570000000001N091117000000000000000000000000000000000000000000000000000000000000000100000666344825LUIZ HENRIQUE DE CAMPOS                 RUA JOAO CARLOS CAVALCANTI REIS - 21 - J            02281206                                                            000077
2SR. CAIXA, APOS O VENCIMENTO COBRAR 10% DE MULTA                                NAO RECEBER APOS 30 DIAS DO VENCIMENTO.                                                                                                                                                                                                         09111700000000000000911170000000000000       0090770900016748006663111710000078
100000000000000000000009077090001674800000000000000000000000010002100029155011171000000000002            2  01291550111725111700000003196190000000001N091117000000000000000000000000000000000000000000000000000000000000000100029155026842DANIELA YOSHIDA                         RUA MONTE CASTELO - 262 AP.34 - AVIACAO             11702720                                                            000080
2SR. CAIXA, APOS O VENCIMENTO COBRAR 10% DE MULTA                                NAO RECEBER APOS 30 DIAS DO VENCIMENTO.                                                                                                                                                                                                         09111700000000000000911170000000000000       0090770900016748291550111710000081
100000000000000000000009077090001674800000000000000000000000010002100034325511171700000000002            2  01343255111725111700000002751240000000001N091117000000000000000000000000000000000000000000000000000000000000000100034325567801LUIZ FERNANDO ALAMINO                   AVENIDA FLOR DE VILA FORMOSA - 337 - VIL            03366010                                                            000083
2SR. CAIXA, APOS O VENCIMENTO COBRAR 10% DE MULTA                                NAO RECEBER APOS 30 DIAS DO VENCIMENTO.                                                                                                                                                                                                         09111700000000000000911170000000000000       0090770900016748343255111717000084
100000000000000000000009077090001674800000000000000000000000010002100001204411171400000000002            2  01012044111725111700000002602820000000001N091117000000000000000000000000000000000000000000000000000000000000000100001204431809CEZAR TALAVERA JUNIOR                   RUA MAESTRO ARTURO DE ANGELIS  - 190 AP.            05139010                                                            000086
2SR. CAIXA, APOS O VENCIMENTO COBRAR 10% DE MULTA                                NAO RECEBER APOS 30 DIAS DO VENCIMENTO.                                                                                                                                                                                                         09111700000000000000911170000000000000       0090770900016748012044111714000087
100000000000000000000009077090001674800000000000000000000000010002100004227511171300000000002            2  01042275111725111700000003374070000000001N091117000000000000000000000000000000000000000000000000000000000000000100004227553970ALESSANDRO ISRAEL GOULART               RUA PROFESSORA CARLINDA RIBEIRO - 21 - F            02866200                                                            000089
2SR. CAIXA, APOS O VENCIMENTO COBRAR 10% DE MULTA                                NAO RECEBER APOS 30 DIAS DO VENCIMENTO.                                                                                                                                                                                                         09111700000000000000911170000000000000       0090770900016748042275111713000090
100000000000000000000009077090001674800000000000000000000000010002100060811411171700000000002            2  01608114111725111700000003109590000000001N091117000000000000000000000000000000000000000000000000000000000000000100060811420868HELIO BASSI                             AV.PARIS,575 - PRACA ANTONIO FIGUEROA -             11700082                                                            000092
2SR. CAIXA, APOS O VENCIMENTO COBRAR 10% DE MULTA                                NAO RECEBER APOS 30 DIAS DO VENCIMENTO.                                                                                                                                                                                                         09111700000000000000911170000000000000       0090770900016748608114111717000093
100000000000000000000009077090001674800000000000000000000000010002100001024711171700000000002            2  01010247111725111700000002942500000000001N091117000000000000000000000000000000000000000000000000000000000000000100001024794881CLAUDIO RODRIGUES                       RUA ARACATUBA - 242 - LAPA - SAO PAULO -            05058010                                                            000095
2SR. CAIXA, APOS O VENCIMENTO COBRAR 10% DE MULTA                                NAO RECEBER APOS 30 DIAS DO VENCIMENTO.                                                                                                                                                                                                         09111700000000000000911170000000000000       0090770900016748010247111717000096
100000000000000000000009077090001674800000000000000000000000010002100002225011171800000000002            2  01022250111725111700000004511220000000001N091117000000000000000000000000000000000000000000000000000000000000000100002225072841PEDRO EDUARDO DE AZEVEDO                RUA NATH ZILMAN - 46 - JARDIM SAMAMBAIA             07600000                                                            000098
2SR. CAIXA, APOS O VENCIMENTO COBRAR 10% DE MULTA                                NAO RECEBER APOS 30 DIAS DO VENCIMENTO.                                                                                                                                                                                                         09111700000000000000911170000000000000       0090770900016748022250111718000099
100000000000000000000009077090001674800000000000000000000000010002100015039211171300000000002            2  01150392111725111700000003139330000000001N091117000000000000000000000000000000000000000000000000000000000000000100015039262817MARCOS ROBERTO DANTAS                   PCA CASTRO ALVES - 163 AP.33 - VILA SAO             13224299                                                            000101
2SR. CAIXA, APOS O VENCIMENTO COBRAR 10% DE MULTA                                NAO RECEBER APOS 30 DIAS DO VENCIMENTO.                                                                                                                                                                                                         09111700000000000000911170000000000000       0090770900016748150392111713000102
100000000000000000000009077090001674800000000000000000000000010002100019288711171400000000002            2  01192887111725111700000002556140000000001N091117000000000000000000000000000000000000000000000000000000000000000100019288787844EMERSON LUIZ MARTINEZ PEREIRA           RUA MONTE CASTELO - 296 AP.74 - AVIACAO             11702720                                                            000104
2SR. CAIXA, APOS O VENCIMENTO COBRAR 10% DE MULTA                                NAO RECEBER APOS 30 DIAS DO VENCIMENTO.                                                                                                                                                                                                         09111700000000000000911170000000000000       0090770900016748192887111714000105
100000000000000000000009077090001674800000000000000000000000010002100027198411171800000000002            2  01271984111725111700000002165180000000001N091117000000000000000000000000000000000000000000000000000000000000000100027198452809CRISTIANE AURELIANO DA SILVA MAIA       RUA MONTE CASTELO - 262 AP.25 - AVIACAO             11702720                                                            000107
2SR. CAIXA, APOS O VENCIMENTO COBRAR 10% DE MULTA                                NAO RECEBER APOS 30 DIAS DO VENCIMENTO.                                                                                                                                                                                                         09111700000000000000911170000000000000       0090770900016748271984111718000108
100000000000000000000009077090001674800000000000000000000000010002100021246211171100000000002            2  01212462111725111700000002642360000000001N091117000000000000000000000000000000000000000000000000000000000000000100021246231840ALEXANDRO DA CUNHA MIGUES               AVENIDA CONSELHEIRO CARRAO - 1861 CONJ.5            03403001                                                            000110
2SR. CAIXA, APOS O VENCIMENTO COBRAR 10% DE MULTA                                NAO RECEBER APOS 30 DIAS DO VENCIMENTO.                                                                                                                                                                                                         09111700000000000000911170000000000000       0090770900016748212462111711000111
100000000000000000000009077090001674800000000000000000000000010002100004864911171000000000002            2  01048649111725111700000001582100000000001N091117000000000000000000000000000000000000000000000000000000000000000100004864924600RENATO SANTACHIARA SALVADORI            RUA PENSYLVANIA - 116 - PAYSAGE BRISE -             06730000                                                            000113
2SR. CAIXA, APOS O VENCIMENTO COBRAR 10% DE MULTA                                NAO RECEBER APOS 30 DIAS DO VENCIMENTO.                                                                                                                                                                                                         09111700000000000000911170000000000000       0090770900016748048649111710000114
100000000000000000000009077090001674800000000000000000000000010002100018470511171100000000002            2  01184705111725111700000003887290000000001N091117000000000000000000000000000000000000000000000000000000000000000100018470520881SILVANA ALVES DE OLIVEIRA               RUA MONTE CASTELO - 262 AP.91 - AVIACAO             11702720                                                            000116
2SR. CAIXA, APOS O VENCIMENTO COBRAR 10% DE MULTA                                NAO RECEBER APOS 30 DIAS DO VENCIMENTO.                                                                                                                                                                                                         09111700000000000000911170000000000000       0090770900016748184705111711000117
100000000000000000000009077090001674800000000000000000000000010002100009297511171100000000002            2  01092975111725111700000002706310000000001N091117000000000000000000000000000000000000000000000000000000000000000100009297523846MARCOS ROBERTO DE CASTRO FERREIRA       RUA MONTE CASTELO - 262 AP.105 - AVIACAO            11702720                                                            000119
2SR. CAIXA, APOS O VENCIMENTO COBRAR 10% DE MULTA                                NAO RECEBER APOS 30 DIAS DO VENCIMENTO.                                                                                                                                                                                                         09111700000000000000911170000000000000       0090770900016748092975111711000120
100000000000000000000009077090001674800000000000000000000000010002100001164111171000000000002            2  01011641111725111700000003353730000000001N091117000000000000000000000000000000000000000000000000000000000000000100001164158864DAVID BLEY LACERDA                      RUA CONEGO ARAUJO MARCONDES - 188 - BAIR            02550080                                                            000122
2SR. CAIXA, APOS O VENCIMENTO COBRAR 10% DE MULTA                                NAO RECEBER APOS 30 DIAS DO VENCIMENTO.                                                                                                                                                                                                         09111700000000000000911170000000000000       0090770900016748011641111710000123
100000000000000000000009077090001674800000000000000000000000010002100031498011171400000000002            2  01314980111725111700000004075980000000001N091117000000000000000000000000000000000000000000000000000000000000000100031498008895POLIANE  SIBELE DA SILVA                RUA FRANCISCO RODRIGUES SECKLER - 452 CA            08230020                                                            000125
2SR. CAIXA, APOS O VENCIMENTO COBRAR 10% DE MULTA                                NAO RECEBER APOS 30 DIAS DO VENCIMENTO.                                                                                                                                                                                                         09111700000000000000911170000000000000       0090770900016748314980111714000126
100000000000000000000009077090001674800000000000000000000000010002100000588111171800000000002            2  01005881111725111700000002390650000000001N091117000000000000000000000000000000000000000000000000000000000000000100000588109860JOSE LIARTE GIANTE                      AVENIDA LUIZ GONZAGA DO AMARAL - 143 - J            09320630                                                            000128
2SR. CAIXA, APOS O VENCIMENTO COBRAR 10% DE MULTA                                NAO RECEBER APOS 30 DIAS DO VENCIMENTO.                                                                                                                                                                                                         09111700000000000000911170000000000000       0090770900016748005881111718000129
100000000000000000000009077090001674800000000000000000000000010002100014386811171000000000002            2  01143868111725111700000001912420000000001N091117000000000000000000000000000000000000000000000000000000000000000100014386860134SEVERINO CARLOS DE OLIVEIRA             RUA MONTE CASTELO - 262 AP.54 - AVIACAO             11702720                                                            000131
2SR. CAIXA, APOS O VENCIMENTO COBRAR 10% DE MULTA                                NAO RECEBER APOS 30 DIAS DO VENCIMENTO.                                                                                                                                                                                                         09111700000000000000911170000000000000       0090770900016748143868111710000132
100000000000000000000009077090001674800000000000000000000000010002100029088211171800000000002            2  01290882111725111700000002126110000000001N091117000000000000000000000000000000000000000000000000000000000000000100029088221804FABIANO SPERANDEO                       RUA MONTE CASTELO - 296 AP.93 - AVIACAO             11702720                                                            000134
2SR. CAIXA, APOS O VENCIMENTO COBRAR 10% DE MULTA                                NAO RECEBER APOS 30 DIAS DO VENCIMENTO.                                                                                                                                                                                                         09111700000000000000911170000000000000       0090770900016748290882111718000135
100000000000000000000009077090001674800000000000000000000000010002100039393711171600000000002            2  01393937111725111700000001318040000000001N091117000000000000000000000000000000000000000000000000000000000000000100039393790850NAIRON RICARDO DE ARAUJO SANTOS         RUA MONTE CASTELO - 262 AP.23 - AVIACAO             11702720                                                            000137
2SR. CAIXA, APOS O VENCIMENTO COBRAR 10% DE MULTA                                NAO RECEBER APOS 30 DIAS DO VENCIMENTO.                                                                                                                                                                                                         09111700000000000000911170000000000000       0090770900016748393937111716000138
100000000000000000000009077090001674800000000000000000000000010002100041896811171700000000002            2  01418968111725111700000001919520000000001N091117000000000000000000000000000000000000000000000000000000000000000100041896807968SERGIO ROBERTO DA SILVA                 RUA DOS INGLESES - 542 AP.61 - MORRO DOS            01329000                                                            000140
2SR. CAIXA, APOS O VENCIMENTO COBRAR 10% DE MULTA                                NAO RECEBER APOS 30 DIAS DO VENCIMENTO.                                                                                                                                                                                                         09111700000000000000911170000000000000       0090770900016748418968111717000141
100000000000000000000009077090001674800000000000000000000000010002100088137311171500000000002            2  01881373111725111700000001740550000000001N091117000000000000000000000000000000000000000000000000000000000000000100088137384804ANA LUCIA DA SILVA                      RUA DOUTOR EPAMINONDAS BARRA - 147 - VIL            04438100                                                            000143
2SR. CAIXA, APOS O VENCIMENTO COBRAR 10% DE MULTA                                NAO RECEBER APOS 30 DIAS DO VENCIMENTO.                                                                                                                                                                                                         09111700000000000000911170000000000000       0090770900016748881373111715000144
9                                                                                                                                                                                                                                                                                                                                                                                                         000145