01REMESSA01COBRANCA       00000000000005316116AIRES CONSTRUTORA E INCORPORAD237BRADESCO       070324        MX0000238                                                                                                                                                                                                                                                                                     000001
100000000000000000000009002800441612000000000000000000000000010002020014386803241100000000002            2  01143868032425032400000002895900000000001N060324000000000000000000000000000000000000000000000000000000000000000100014386860134SEVERINO CARLOS DE OLIVEIRA             RUA MONTE CASTELO - 262 AP.54 - AVIACAO             11702720                                                            000002
2SR. CAIXA, APOS O VENCIMENTO COBRAR 2% DE MULTA                                 NAO RECEBER APOS 30 DIAS DO VENCIMENTO.                                                                                                                                                                                                         07032400000000000000703240000000000000       0090028004416120143868032411000003
100000000000000000000009002800441612000000000000000000000000010002020039393703241700000000002            2  01393937032425032400000001995930000000001N060324000000000000000000000000000000000000000000000000000000000000000100039393790850NAIRON RICARDO DE ARAUJO SANTOS         RUA NITEROI - 267 CASA 04 - JARDIM INDEP            11380350                                                            000005
2SR. CAIXA, APOS O VENCIMENTO COBRAR 2% DE MULTA                                 NAO RECEBER APOS 30 DIAS DO VENCIMENTO.                                                                                                                                                                                                         07032400000000000000703240000000000000       0090028004416120393937032417000006
9                                                                                                                                                                                                                                                                                                                                                                                                         000007