01REMESSA01COBRANCA       00000000000005316116AIRES CONSTRUTORA E INCORPORAD237BRADESCO       011022        MX0000203                                                                                                                                                                                                                                                                                     000001
100000000000000000000009002800441612000000000000000000000000010002100025215110221400000000002            2  01252151102210102200000003142340000000001N011022000000000000000000000000000000000000000000000000000000000000000100025215106886KLEBER LUIZ DOS SANTOS                  RUA MONTE CASTELO - 262 AP.15 - AVIACAO             11702720                                                            000002
2SR. CAIXA, APOS O VENCIMENTO COBRAR 10% DE MULTA                                NAO RECEBER APOS 30 DIAS DO VENCIMENTO.                                                                                                                                                                                                         01102200000000000000110220000000000000       0090028004416120252151102214000003
100000000000000000000009002800441612000000000000000000000000010002100029150710221P00000000002            2  01291507102210102200000004108370000000001N011022000000000000000000000000000000000000000000000000000000000000000100029150742833ANA DEISE SANTOS DE ALMEIDA             RUA MONTE CASTELO - 296 AP.121 - AVIACAO            11702720                                                            000005
2SR. CAIXA, APOS O VENCIMENTO COBRAR 10% DE MULTA                                NAO RECEBER APOS 30 DIAS DO VENCIMENTO.                                                                                                                                                                                                         01102200000000000000110220000000000000       009002800441612029150710221P000006
100000000000000000000009002800441612000000000000000000000000010002100000811710221500000000002            2  01008117102210102200000003384000000000001N011022000000000000000000000000000000000000000000000000000000000000000100000811752801SERGIO BUENO DA SILVA                   RUA MONTE CASTELO - 262 AP.75 - AVIACAO             11702720                                                            000008
2SR. CAIXA, APOS O VENCIMENTO COBRAR 10% DE MULTA                                NAO RECEBER APOS 30 DIAS DO VENCIMENTO.                                                                                                                                                                                                         01102200000000000000110220000000000000       0090028004416120008117102215000009
100000000000000000000009002800441612000000000000000000000000010002100018344810221100000000002            2  01183448102210102200000004601400000000001N011022000000000000000000000000000000000000000000000000000000000000000100018344803888MARCELO BERNARDO                        RUA MONTE CASTELO - 262 AP.84 - AVIACAO             11702720                                                            000011
2SR. CAIXA, APOS O VENCIMENTO COBRAR 10% DE MULTA                                NAO RECEBER APOS 30 DIAS DO VENCIMENTO.                                                                                                                                                                                                         01102200000000000000110220000000000000       0090028004416120183448102211000012
100000000000000000000009002800441612000000000000000000000000010002100031803810221700000000002            2  01318038102210102200000003715870000000001N011022000000000000000000000000000000000000000000000000000000000000000100031803864877ELEILSON FELIPPE SANTOS                 RUA SANTA GREGORIA - 193 - CIDADE DUTRA             04806030                                                            000014
2SR. CAIXA, APOS O VENCIMENTO COBRAR 10% DE MULTA                                NAO RECEBER APOS 30 DIAS DO VENCIMENTO.                                                                                                                                                                                                         01102200000000000000110220000000000000       0090028004416120318038102217000015
100000000000000000000009002800441612000000000000000000000000010002100063064510221100000000002            2  01630645102210102200000004428100000000001N011022000000000000000000000000000000000000000000000000000000000000000100063064537849ANTONIO APARECIDO DA SILVA DESTEFANO    RUA PROFESSOR TEODORO BRAGA - 46 - VILA             02966020                                                            000017
2SR. CAIXA, APOS O VENCIMENTO COBRAR 10% DE MULTA                                NAO RECEBER APOS 30 DIAS DO VENCIMENTO.                                                                                                                                                                                                         01102200000000000000110220000000000000       0090028004416120630645102211000018
100000000000000000000009002800441612000000000000000000000000010002100005920510221000000000002            2  01059205102210102200000002578080000000001N011022000000000000000000000000000000000000000000000000000000000000000100005920579846SONIA MARIA VALDO POLLO                 RUA PALMIRA CERVI BARBARO - 797 - CIDADE            13214370                                                            000020
2SR. CAIXA, APOS O VENCIMENTO COBRAR 10% DE MULTA                                NAO RECEBER APOS 30 DIAS DO VENCIMENTO.                                                                                                                                                                                                         01102200000000000000110220000000000000       0090028004416120059205102210000021
100000000000000000000009002800441612000000000000000000000000010002100002494110221100000000002            2  01024941102210102200000003876240000000001N011022000000000000000000000000000000000000000000000000000000000000000100002494107881CIRO FRANCISCO MARCHI DURIGON           RUA MONTE CASTELO - 262 AP.115 - AVIACAO            11702720                                                            000023
2SR. CAIXA, APOS O VENCIMENTO COBRAR 10% DE MULTA                                NAO RECEBER APOS 30 DIAS DO VENCIMENTO.                                                                                                                                                                                                         01102200000000000000110220000000000000       0090028004416120024941102211000024
100000000000000000000009002800441612000000000000000000000000010002100016299010221200000000002            2  01162990102210102200000003673340000000001N011022000000000000000000000000000000000000000000000000000000000000000100016299008857FERNANDO CESAR CARVALHO                 AVENIDA MARCONDES DE BRITO - 1340 AP.74             03509000                                                            000026
2SR. CAIXA, APOS O VENCIMENTO COBRAR 10% DE MULTA                                NAO RECEBER APOS 30 DIAS DO VENCIMENTO.                                                                                                                                                                                                         01102200000000000000110220000000000000       0090028004416120162990102212000027
100000000000000000000009002800441612000000000000000000000000010002100055975310221300000000002            2  01559753102210102200000000838860000000001N011022000000000000000000000000000000000000000000000000000000000000000100055975372887BENEVENUTO THEODORO DA SILVA NETO       RUA MONTE CASTELO - 296 AP.63 - AVIACAO             11702720                                                            000029
2SR. CAIXA, APOS O VENCIMENTO COBRAR 10% DE MULTA                                NAO RECEBER APOS 30 DIAS DO VENCIMENTO.                                                                                                                                                                                                         01102200000000000000110220000000000000       0090028004416120559753102213000030
9                                                                                                                                                                                                                                                                                                                                                                                                         000031