01REMESSA01COBRANCA       00000000000005331186HB SANTOS CONSTRUTORA E INCORP237BRADESCO       010623        MX0000073                                                                                                                                                                                                                                                                                     000001
100000000000000000000009033990000995400000000000000000000000010002020026858606231500000000002            2  01268586062308062300000003106970000000001N010623000000000000000000000000000000000000000000000000000000000000000100026858625879GLAUCE FERREIRA DE OLIVEIRA FALSI       RUA LOURENCO ANTONIO BRAGANCA - 116 - JA            04403160                                                            000002
2SR. CAIXA, APOS O VENCIMENTO COBRAR 2% DE MULTA                                 NAO RECEBER APOS 30 DIAS DO VENCIMENTO.                                                                                                                                                                                                         01062300000000000000106230000000000000       0090339900009954268586062315000003
100000000000000000000009033990000995400000000000000000000000010002020029425006231800000000002            2  01294250062308062300000002954710000000001N010623000000000000000000000000000000000000000000000000000000000000000100029425027897FABIA DOS SANTOS DE ANDRADE             AVENIDA ALCIDES CANDIDO DOS SANTOS - 248            11705480                                                            000005
2SR. CAIXA, APOS O VENCIMENTO COBRAR 2% DE MULTA                                 NAO RECEBER APOS 30 DIAS DO VENCIMENTO.                                                                                                                                                                                                         01062300000000000000106230000000000000       0090339900009954294250062318000006
100000000000000000000009033990000995400000000000000000000000010002020078382706231300000000002            2  01783827062308062300000002985890000000001N010623000000000000000000000000000000000000000000000000000000000000000100078382700497JARMELINA BARBOSA DA SILVA              RUA OSCAR CINTRA GORDINHO - 211 AP.51 -             01512010                                                            000008
2SR. CAIXA, APOS O VENCIMENTO COBRAR 2% DE MULTA                                 NAO RECEBER APOS 30 DIAS DO VENCIMENTO.                                                                                                                                                                                                         01062300000000000000106230000000000000       0090339900009954783827062313000009
100000000000000000000009033990000995400000000000000000000000010002020007535306231200000000002            2  01075353062308062300000002928040000000001N010623000000000000000000000000000000000000000000000000000000000000000100007535375839AINAILDE PEREIRA DE CASTRO OLIVETTO     TRAVESSA DORALINA ELIETE ADAO DA SILVA -            08021026                                                            000011
2SR. CAIXA, APOS O VENCIMENTO COBRAR 2% DE MULTA                                 NAO RECEBER APOS 30 DIAS DO VENCIMENTO.                                                                                                                                                                                                         01062300000000000000106230000000000000       0090339900009954075353062312000012
100000000000000000000009033990000995400000000000000000000000010002020017229706231800000000002            2  01172297062308062300000003101620000000001N010623000000000000000000000000000000000000000000000000000000000000000100017229751802BERENICE VIEIRA KERSTING                RUA ATIBAIA - 17 AP.417 - BAIRRO IMPERAD            11707380                                                            000014
2SR. CAIXA, APOS O VENCIMENTO COBRAR 2% DE MULTA                                 NAO RECEBER APOS 30 DIAS DO VENCIMENTO.                                                                                                                                                                                                         01062300000000000000106230000000000000       0090339900009954172297062318000015
100000000000000000000009033990000995400000000000000000000000010002020028974206231P00000000002            2  01289742062308062300000002896840000000001N010623000000000000000000000000000000000000000000000000000000000000000100028974233827MARISTELA FAVANI DE OLIVEIRA            RUA GIUSEPPE CARNEVALLI - 96 - BAIRRO BO            09572100                                                            000017
2SR. CAIXA, APOS O VENCIMENTO COBRAR 2% DE MULTA                                 NAO RECEBER APOS 30 DIAS DO VENCIMENTO.                                                                                                                                                                                                         01062300000000000000106230000000000000       009033990000995428974206231P000018
100000000000000000000009033990000995400000000000000000000000010002020092184806231700000000002            2  01921848062308062300000002858280000000001N010623000000000000000000000000000000000000000000000000000000000000000100092184804800CARMEM DO SOCORRO GUILHERME             ESTRADA SAO FRANCISCO - 1.850 AP.182A -             06765000                                                            000020
2SR. CAIXA, APOS O VENCIMENTO COBRAR 2% DE MULTA                                 NAO RECEBER APOS 30 DIAS DO VENCIMENTO.                                                                                                                                                                                                         01062300000000000000106230000000000000       0090339900009954921848062317000021
100000000000000000000009033990000995400000000000000000000000010002020009169706231700000000002            2  01091697062308062300000002292370000000001N010623000000000000000000000000000000000000000000000000000000000000000100009169701830TADEU CONSTANTINO LOPES                 RUA JOSE ANTONIO COELHO - 349 CASA 01 -             04011061                                                            000023
2SR. CAIXA, APOS O VENCIMENTO COBRAR 2% DE MULTA                                 NAO RECEBER APOS 30 DIAS DO VENCIMENTO.                                                                                                                                                                                                         01062300000000000000106230000000000000       0090339900009954091697062317000024
100000000000000000000009033990000995400000000000000000000000010002020042480106231500000000002            2  01424801062308062300000002916120000000001N010623000000000000000000000000000000000000000000000000000000000000000100042480155870JAMITRE SOIOMARA ALVES DO NASCIMENTO DAVRUA URUGUAI - 89 AP.75 - JARDIM GUILHERM            11702300                                                            000026
2SR. CAIXA, APOS O VENCIMENTO COBRAR 2% DE MULTA                                 NAO RECEBER APOS 30 DIAS DO VENCIMENTO.                                                                                                                                                                                                         01062300000000000000106230000000000000       0090339900009954424801062315000027
100000000000000000000009033990000995400000000000000000000000010002020008966506231000000000002            2  01089665062308062300000002755260000000001N010623000000000000000000000000000000000000000000000000000000000000000100008966511856MONICA SILVA REIS                       RUA ORATORIO - 264 E FUNDOS - BANGU - SA            09280550                                                            000029
2SR. CAIXA, APOS O VENCIMENTO COBRAR 2% DE MULTA                                 NAO RECEBER APOS 30 DIAS DO VENCIMENTO.                                                                                                                                                                                                         01062300000000000000106230000000000000       0090339900009954089665062310000030
100000000000000000000009033990000995400000000000000000000000010002020001356906231100000000002            2  01013569062308062300000002959540000000001N010623000000000000000000000000000000000000000000000000000000000000000100001356993800DALVA MARIA DOS SANTOS                  RUA URUGUAI - 89 AP.74 - AVIACAO - PRAIA            11702300                                                            000032
2SR. CAIXA, APOS O VENCIMENTO COBRAR 2% DE MULTA                                 NAO RECEBER APOS 30 DIAS DO VENCIMENTO.                                                                                                                                                                                                         01062300000000000000106230000000000000       0090339900009954013569062311000033
100000000000000000000009033990000995400000000000000000000000010002020024615506231400000000002            2  01246155062308062300000003375230000000001N010623000000000000000000000000000000000000000000000000000000000000000100024615557884GILBERTO JOSE GONSALES                  RUA URUGUAI - 89 AP.115 - JARDIM GUILHER            11702300                                                            000035
2SR. CAIXA, APOS O VENCIMENTO COBRAR 2% DE MULTA                                 NAO RECEBER APOS 30 DIAS DO VENCIMENTO.                                                                                                                                                                                                         01062300000000000000106230000000000000       0090339900009954246155062314000036
100000000000000000000009033990000995400000000000000000000000010002020036949506231300000000002            2  01369495062308062300000003158390000000001N010623000000000000000000000000000000000000000000000000000000000000000100036949505833FELIPE APARECIDO DOS SANTOS             RUA DAS MIMOSAS - 67 CASA 09 - VILA LUCI            03144010                                                            000038
2SR. CAIXA, APOS O VENCIMENTO COBRAR 2% DE MULTA                                 NAO RECEBER APOS 30 DIAS DO VENCIMENTO.                                                                                                                                                                                                         01062300000000000000106230000000000000       0090339900009954369495062313000039
100000000000000000000009033990000995400000000000000000000000010002020008539306231000000000002            2  01085393062308062300000003226960000000001N010623000000000000000000000000000000000000000000000000000000000000000100008539365871EDMILSON RAIMUNDO DOS SANTOS            RUA CALIDICE - 247 - PARQUE CRUZEIRO - S            08070010                                                            000041
2SR. CAIXA, APOS O VENCIMENTO COBRAR 2% DE MULTA                                 NAO RECEBER APOS 30 DIAS DO VENCIMENTO.                                                                                                                                                                                                         01062300000000000000106230000000000000       0090339900009954085393062310000042
100000000000000000000009033990000995400000000000000000000000010002020031040906231P00000000002            2  01310409062308062300000003324590000000001N010623000000000000000000000000000000000000000000000000000000000000000100031040952801ANDRESSA REGINA FAVERANI LUPPI          RUA AMALIA BELLOTTI PASTORELLO - 169 - T            11724030                                                            000044
2SR. CAIXA, APOS O VENCIMENTO COBRAR 2% DE MULTA                                 NAO RECEBER APOS 30 DIAS DO VENCIMENTO.                                                                                                                                                                                                         01062300000000000000106230000000000000       009033990000995431040906231P000045
100000000000000000000009033990000995400000000000000000000000010002020024558906231600000000002            2  01245589062308062300000005558020000000001N010623000000000000000000000000000000000000000000000000000000000000000100024558912838EDILENE GORGATTI                        RUA ITARARE - 76 AP.142 - JARDIM GUILHER            11701820                                                            000047
2SR. CAIXA, APOS O VENCIMENTO COBRAR 2% DE MULTA                                 NAO RECEBER APOS 30 DIAS DO VENCIMENTO.                                                                                                                                                                                                         01062300000000000000106230000000000000       0090339900009954245589062316000048
100000000000000000000009033990000995400000000000000000000000010002020004611206231100000000002            2  01046112062308062300000002046680000000001N010623000000000000000000000000000000000000000000000000000000000000000100004611218830TANIA MARIA DA SILVA NUNES PEREIRA LUIZ RUA URUGUAI - 89 AP.103 - JARDIM GUILHER            11702300                                                            000050
2SR. CAIXA, APOS O VENCIMENTO COBRAR 2% DE MULTA                                 NAO RECEBER APOS 30 DIAS DO VENCIMENTO.                                                                                                                                                                                                         01062300000000000000106230000000000000       0090339900009954046112062311000051
100000000000000000000009033990000995400000000000000000000000010002020010548806231900000000002            2  01105488062308062300000003636650000000001N010623000000000000000000000000000000000000000000000000000000000000000100010548844801RICARDO DE JESUS CALDAS                 RUA ANTONIO AMBUBA - 50 CASA 60 - BAIRRO            05782370                                                            000053
2SR. CAIXA, APOS O VENCIMENTO COBRAR 2% DE MULTA                                 NAO RECEBER APOS 30 DIAS DO VENCIMENTO.                                                                                                                                                                                                         01062300000000000000106230000000000000       0090339900009954105488062319000054
100000000000000000000009033990000995400000000000000000000000010002020039623806231800000000002            2  01396238062308062300000003196170000000001N010623000000000000000000000000000000000000000000000000000000000000000100039623826826LEONARDO GUEDES PINTO                   RUA URUGUAI - 89 AP.24 - AVIACAO - PRAIA            11702300                                                            000056
2SR. CAIXA, APOS O VENCIMENTO COBRAR 2% DE MULTA                                 NAO RECEBER APOS 30 DIAS DO VENCIMENTO.                                                                                                                                                                                                         01062300000000000000106230000000000000       0090339900009954396238062318000057
100000000000000000000009033990000995400000000000000000000000010002020039558606231700000000002            2  01395586062308062300000002934310000000001N010623000000000000000000000000000000000000000000000000000000000000000100039558638838TAMIRES ROCHA FRANCISCO                 RUA DUARTE DE CARVALHO - 185 AP.102 - BA            03084030                                                            000059
2SR. CAIXA, APOS O VENCIMENTO COBRAR 2% DE MULTA                                 NAO RECEBER APOS 30 DIAS DO VENCIMENTO.                                                                                                                                                                                                         01062300000000000000106230000000000000       0090339900009954395586062317000060
100000000000000000000009033990000995400000000000000000000000010002020032038706231600000000002            2  01320387062308062300000002387260000000001N010623000000000000000000000000000000000000000000000000000000000000000100032038775893GUSTAVO PEREIRA DA CRUZ                 RUA SAO FIDELIS - 203 - JARDIM BRASIL -             16074050                                                            000062
2SR. CAIXA, APOS O VENCIMENTO COBRAR 2% DE MULTA                                 NAO RECEBER APOS 30 DIAS DO VENCIMENTO.                                                                                                                                                                                                         01062300000000000000106230000000000000       0090339900009954320387062316000063
100000000000000000000009033990000995400000000000000000000000010002020008993106231300000000002            2  01089931062308062300000011266600000000001N010623000000000000000000000000000000000000000000000000000000000000000100008993178801PATRICIA BITTENCOURT FRACARO            RUA MARCIO MAZZEI - 337 - VILA NOVA MAZZ            02316050                                                            000065
2SR. CAIXA, APOS O VENCIMENTO COBRAR 2% DE MULTA                                 NAO RECEBER APOS 30 DIAS DO VENCIMENTO.                                                                                                                                                                                                         01062300000000000000106230000000000000       0090339900009954089931062313000066
100000000000000000000009033990000995400000000000000000000000010002020025914206231P00000000002            2  01259142062308062300000003245980000000001N010623000000000000000000000000000000000000000000000000000000000000000100025914206880JONAS DOS REIS MACHADO                  RUA PROFESSORA MARGARIDA RUTH FERREIRA D            02378200                                                            000068
2SR. CAIXA, APOS O VENCIMENTO COBRAR 2% DE MULTA                                 NAO RECEBER APOS 30 DIAS DO VENCIMENTO.                                                                                                                                                                                                         01062300000000000000106230000000000000       009033990000995425914206231P000069
100000000000000000000009033990000995400000000000000000000000010002020032549506231600000000002            2  01325495062308062300000002966630000000001N010623000000000000000000000000000000000000000000000000000000000000000100032549502833PAMELA DECENCI                          RUA URUGUAI - 89 AP.61 - AVIACAO - PRAIA            11702300                                                            000071
2SR. CAIXA, APOS O VENCIMENTO COBRAR 2% DE MULTA                                 NAO RECEBER APOS 30 DIAS DO VENCIMENTO.                                                                                                                                                                                                         01062300000000000000106230000000000000       0090339900009954325495062316000072
9                                                                                                                                                                                                                                                                                                                                                                                                         000073