01REMESSA01COBRANCA       00000000000008017025HB SANTOS CONSTRUTORA E INCORP237BRADESCO       110723        MX0000182                                                                                                                                                                                                                                                                                     000001
100000000000000000000009033990000627000000000000000000000000010002020005071407232300000000002            2  01050714072321072300000003996060000000001N110723000000000000000000000000000000000000000000000000000000000000000100005071481855ERIBALDO SANTANA CARVALHO               RUA HONDURAS - 477 - PARQUE DAS AMERICAS            09351070                                                            000002
2SR. CAIXA, APOS O VENCIMENTO COBRAR 2% DE MULTA                                 NAO RECEBER APOS 30 DIAS DO VENCIMENTO.                                                                                                                                                                                                         11072300000000000001107230000000000000       0090339900006270050714072323000003
100000000000000000000009033990000627000000000000000000000000010002020005071407233100000000002            2  01050714072321072300000003996070000000001N110723000000000000000000000000000000000000000000000000000000000000000100005071481855ERIBALDO SANTANA CARVALHO               RUA HONDURAS - 477 - PARQUE DAS AMERICAS            09351070                                                            000005
2SR. CAIXA, APOS O VENCIMENTO COBRAR 2% DE MULTA                                 NAO RECEBER APOS 30 DIAS DO VENCIMENTO.                                                                                                                                                                                                         11072300000000000001107230000000000000       0090339900006270050714072331000006
100000000000000000000009033990000627000000000000000000000000010002020005071407234P00000000002            2  01050714072321072300000003996080000000001N110723000000000000000000000000000000000000000000000000000000000000000100005071481855ERIBALDO SANTANA CARVALHO               RUA HONDURAS - 477 - PARQUE DAS AMERICAS            09351070                                                            000008
2SR. CAIXA, APOS O VENCIMENTO COBRAR 2% DE MULTA                                 NAO RECEBER APOS 30 DIAS DO VENCIMENTO.                                                                                                                                                                                                         11072300000000000001107230000000000000       009033990000627005071407234P000009
100000000000000000000009033990000627000000000000000000000000010002020005071407235800000000002            2  01050714072321072300000003996090000000001N110723000000000000000000000000000000000000000000000000000000000000000100005071481855ERIBALDO SANTANA CARVALHO               RUA HONDURAS - 477 - PARQUE DAS AMERICAS            09351070                                                            000011
2SR. CAIXA, APOS O VENCIMENTO COBRAR 2% DE MULTA                                 NAO RECEBER APOS 30 DIAS DO VENCIMENTO.                                                                                                                                                                                                         11072300000000000001107230000000000000       0090339900006270050714072358000012
100000000000000000000009033990000627000000000000000000000000010002020005071407236600000000002            2  01050714072321072300000003996100000000001N110723000000000000000000000000000000000000000000000000000000000000000100005071481855ERIBALDO SANTANA CARVALHO               RUA HONDURAS - 477 - PARQUE DAS AMERICAS            09351070                                                            000014
2SR. CAIXA, APOS O VENCIMENTO COBRAR 2% DE MULTA                                 NAO RECEBER APOS 30 DIAS DO VENCIMENTO.                                                                                                                                                                                                         11072300000000000001107230000000000000       0090339900006270050714072366000015
100000000000000000000009033990000627000000000000000000000000010002020005071407237400000000002            2  01050714072321072300000003996110000000001N110723000000000000000000000000000000000000000000000000000000000000000100005071481855ERIBALDO SANTANA CARVALHO               RUA HONDURAS - 477 - PARQUE DAS AMERICAS            09351070                                                            000017
2SR. CAIXA, APOS O VENCIMENTO COBRAR 2% DE MULTA                                 NAO RECEBER APOS 30 DIAS DO VENCIMENTO.                                                                                                                                                                                                         11072300000000000001107230000000000000       0090339900006270050714072374000018
100000000000000000000009033990000627000000000000000000000000010002020005071407238200000000002            2  01050714072321072300000003996120000000001N110723000000000000000000000000000000000000000000000000000000000000000100005071481855ERIBALDO SANTANA CARVALHO               RUA HONDURAS - 477 - PARQUE DAS AMERICAS            09351070                                                            000020
2SR. CAIXA, APOS O VENCIMENTO COBRAR 2% DE MULTA                                 NAO RECEBER APOS 30 DIAS DO VENCIMENTO.                                                                                                                                                                                                         11072300000000000001107230000000000000       0090339900006270050714072382000021
100000000000000000000009033990000627000000000000000000000000010002020005071407239000000000002            2  01050714072321072300000003996130000000001N110723000000000000000000000000000000000000000000000000000000000000000100005071481855ERIBALDO SANTANA CARVALHO               RUA HONDURAS - 477 - PARQUE DAS AMERICAS            09351070                                                            000023
2SR. CAIXA, APOS O VENCIMENTO COBRAR 2% DE MULTA                                 NAO RECEBER APOS 30 DIAS DO VENCIMENTO.                                                                                                                                                                                                         11072300000000000001107230000000000000       0090339900006270050714072390000024
100000000000000000000009033990000627000000000000000000000000010002020005071407231000000000002            2  01050714072321072300000003996140000000001N110723000000000000000000000000000000000000000000000000000000000000000100005071481855ERIBALDO SANTANA CARVALHO               RUA HONDURAS - 477 - PARQUE DAS AMERICAS            09351070                                                            000026
2SR. CAIXA, APOS O VENCIMENTO COBRAR 2% DE MULTA                                 NAO RECEBER APOS 30 DIAS DO VENCIMENTO.                                                                                                                                                                                                         11072300000000000001107230000000000000       0090339900006270050714072310000027
100000000000000000000009033990000627000000000000000000000000010002020005071407231000000000002            2  01050714072321072300000003996150000000001N110723000000000000000000000000000000000000000000000000000000000000000100005071481855ERIBALDO SANTANA CARVALHO               RUA HONDURAS - 477 - PARQUE DAS AMERICAS            09351070                                                            000029
2SR. CAIXA, APOS O VENCIMENTO COBRAR 2% DE MULTA                                 NAO RECEBER APOS 30 DIAS DO VENCIMENTO.                                                                                                                                                                                                         11072300000000000001107230000000000000       0090339900006270050714072310000030
9                                                                                                                                                                                                                                                                                                                                                                                                         000031