01REMESSA01COBRANCA       00000000000005331186HB SANTOS CONSTRUTORA E INCORP237BRADESCO       010721        MX0000027                                                                                                                                                                                                                                                                                     000001
100000000000000000000009033990000995400000000000000000000000010002020026858607211600000000002            2  01268586072108072100000002684840000000001N010721000000000000000000000000000000000000000000000000000000000000000100026858625879GLAUCE FERREIRA DE OLIVEIRA FALSI       RUA LOURENCO ANTONIO BRAGANCA - 116 - JA            04403160                                                            000002
2SR. CAIXA, APOS O VENCIMENTO COBRAR 2% DE MULTA                                 NAO RECEBER APOS 30 DIAS DO VENCIMENTO.                                                                                                                                                                                                         01072100000000000000107210000000000000       0090339900009954268586072116000003
100000000000000000000009033990000995400000000000000000000000010002020016960807211700000000002            2  01169608072108072100000002563570000000001N010721000000000000000000000000000000000000000000000000000000000000000100016960804876LUIZ ALVES DE SOUZA JUNIOR              RUA FRANCISCO ALVES - 394 CASA B - PAECA            11450320                                                            000005
2SR. CAIXA, APOS O VENCIMENTO COBRAR 2% DE MULTA                                 NAO RECEBER APOS 30 DIAS DO VENCIMENTO.                                                                                                                                                                                                         01072100000000000000107210000000000000       0090339900009954169608072117000006
100000000000000000000009033990000995400000000000000000000000010002020008899307211400000000002            2  01088993072108072100000002546900000000001N010721000000000000000000000000000000000000000000000000000000000000000100008899362858ELAINE D ALMEIDA FERDINANDY             ALAMEDA SUBTENENTE AVIADOR FRANCISCO HIE            02187040                                                            000008
2SR. CAIXA, APOS O VENCIMENTO COBRAR 2% DE MULTA                                 NAO RECEBER APOS 30 DIAS DO VENCIMENTO.                                                                                                                                                                                                         01072100000000000000107210000000000000       0090339900009954088993072114000009
100000000000000000000009033990000995400000000000000000000000010002020029425007211900000000002            2  01294250072108072100000002553280000000001N010721000000000000000000000000000000000000000000000000000000000000000100029425027897FABIA DOS SANTOS DE ANDRADE             AVENIDA ALCIDES CANDIDO DOS SANTOS - 248            11705480                                                            000011
2SR. CAIXA, APOS O VENCIMENTO COBRAR 2% DE MULTA                                 NAO RECEBER APOS 30 DIAS DO VENCIMENTO.                                                                                                                                                                                                         01072100000000000000107210000000000000       0090339900009954294250072119000012
100000000000000000000009033990000995400000000000000000000000010002020078382707211400000000002            2  01783827072108072100000002580230000000001N010721000000000000000000000000000000000000000000000000000000000000000100078382700497JARMELINA BARBOSA DA SILVA              RUA OSCAR CINTRA GORDINHO - 211 AP.51 -             01512010                                                            000014
2SR. CAIXA, APOS O VENCIMENTO COBRAR 2% DE MULTA                                 NAO RECEBER APOS 30 DIAS DO VENCIMENTO.                                                                                                                                                                                                         01072100000000000000107210000000000000       0090339900009954783827072114000015
100000000000000000000009033990000995400000000000000000000000010002020007535307211300000000002            2  01075353072108072100000002530230000000001N010721000000000000000000000000000000000000000000000000000000000000000100007535375839AINAILDE PEREIRA DE CASTRO OLIVETTO     TRAVESSA DORALINA ELIETE ADAO DA SILVA -            08021026                                                            000017
2SR. CAIXA, APOS O VENCIMENTO COBRAR 2% DE MULTA                                 NAO RECEBER APOS 30 DIAS DO VENCIMENTO.                                                                                                                                                                                                         01072100000000000000107210000000000000       0090339900009954075353072113000018
100000000000000000000009033990000995400000000000000000000000010002020028974207211000000000002            2  01289742072108072100000002503280000000001N010721000000000000000000000000000000000000000000000000000000000000000100028974233827MARISTELA FAVANI DE OLIVEIRA            RUA GIUSEPPE CARNEVALLI - 96 - BAIRRO BO            09572100                                                            000020
2SR. CAIXA, APOS O VENCIMENTO COBRAR 2% DE MULTA                                 NAO RECEBER APOS 30 DIAS DO VENCIMENTO.                                                                                                                                                                                                         01072100000000000000107210000000000000       0090339900009954289742072110000021
100000000000000000000009033990000995400000000000000000000000010002020092184807211800000000002            2  01921848072108072100000002469950000000001N010721000000000000000000000000000000000000000000000000000000000000000100092184804800CARMEM DO SOCORRO GUILHERME             ESTRADA SAO FRANCISCO - 1.850 AP.182A -             06765000                                                            000023
2SR. CAIXA, APOS O VENCIMENTO COBRAR 2% DE MULTA                                 NAO RECEBER APOS 30 DIAS DO VENCIMENTO.                                                                                                                                                                                                         01072100000000000000107210000000000000       0090339900009954921848072118000024
100000000000000000000009033990000995400000000000000000000000010002020092184807212600000000002            2  01921848072108072100000002469940000000001N010721000000000000000000000000000000000000000000000000000000000000000100092184804800CARMEM DO SOCORRO GUILHERME             ESTRADA SAO FRANCISCO - 1.850 AP.182A -             06765000                                                            000026
2SR. CAIXA, APOS O VENCIMENTO COBRAR 2% DE MULTA                                 NAO RECEBER APOS 30 DIAS DO VENCIMENTO.                                                                                                                                                                                                         01072100000000000000107210000000000000       0090339900009954921848072126000027
100000000000000000000009033990000995400000000000000000000000010002020009169707211800000000002            2  01091697072108072100000001980920000000001N010721000000000000000000000000000000000000000000000000000000000000000100009169701830TADEU CONSTANTINO LOPES                 RUA JOSE ANTONIO COELHO - 349 CASA 01 -             04011061                                                            000029
2SR. CAIXA, APOS O VENCIMENTO COBRAR 2% DE MULTA                                 NAO RECEBER APOS 30 DIAS DO VENCIMENTO.                                                                                                                                                                                                         01072100000000000000107210000000000000       0090339900009954091697072118000030
100000000000000000000009033990000995400000000000000000000000010002020042480107211600000000002            2  01424801072108072100000002519950000000001N010721000000000000000000000000000000000000000000000000000000000000000100042480155870JAMITRE SOIOMARA ALVES DO NASCIMENTO DAVRUA SERTANISTA GILBERTO PINTO FRANCISCO             11703440                                                            000032
2SR. CAIXA, APOS O VENCIMENTO COBRAR 2% DE MULTA                                 NAO RECEBER APOS 30 DIAS DO VENCIMENTO.                                                                                                                                                                                                         01072100000000000000107210000000000000       0090339900009954424801072116000033
100000000000000000000009033990000995400000000000000000000000010002020004611207211200000000002            2  01046112072108072100000002466260000000001N010721000000000000000000000000000000000000000000000000000000000000000100004611218830TANIA MARIA DA SILVA NUNES PEREIRA LUIZ RODOVIA RAPOSO TAVARES, 7389 KM 17,5 - A            05576200                                                            000035
2SR. CAIXA, APOS O VENCIMENTO COBRAR 2% DE MULTA                                 NAO RECEBER APOS 30 DIAS DO VENCIMENTO.                                                                                                                                                                                                         01072100000000000000107210000000000000       0090339900009954046112072112000036
100000000000000000000009033990000995400000000000000000000000010002020008966507211100000000002            2  01089665072108072100000002380920000000001N010721000000000000000000000000000000000000000000000000000000000000000100008966511856MONICA SILVA REIS                       RUA ORATORIO - 264 E FUNDOS - BANGU - SA            09280550                                                            000038
2SR. CAIXA, APOS O VENCIMENTO COBRAR 2% DE MULTA                                 NAO RECEBER APOS 30 DIAS DO VENCIMENTO.                                                                                                                                                                                                         01072100000000000000107210000000000000       0090339900009954089665072111000039
100000000000000000000009033990000995400000000000000000000000010002020036898607211P00000000002            2  01368986072108072100000002397590000000001N010721000000000000000000000000000000000000000000000000000000000000000100036898609890GABRIEL FRANCHESCHI PALVO               SGAN 911,MODULO F, BLOCO A, GREEN PARK -            70790110                                                            000041
2SR. CAIXA, APOS O VENCIMENTO COBRAR 2% DE MULTA                                 NAO RECEBER APOS 30 DIAS DO VENCIMENTO.                                                                                                                                                                                                         01072100000000000000107210000000000000       009033990000995436898607211P000042
100000000000000000000009033990000995400000000000000000000000010002020001356907211200000000002            2  01013569072108072100000002557450000000001N010721000000000000000000000000000000000000000000000000000000000000000100001356993800DALVA MARIA DOS SANTOS                  RUA SOLDADO CESARIO AGUIAR - 30 - VILA G            07070050                                                            000044
2SR. CAIXA, APOS O VENCIMENTO COBRAR 2% DE MULTA                                 NAO RECEBER APOS 30 DIAS DO VENCIMENTO.                                                                                                                                                                                                         01072100000000000000107210000000000000       0090339900009954013569072112000045
100000000000000000000009033990000995400000000000000000000000010002020024615507211500000000002            2  01246155072108072100000002916670000000001N010721000000000000000000000000000000000000000000000000000000000000000100024615557884GILBERTO JOSE GONSALES                  RUA DOS GOYTACAZES - 447 AP.206 BL.2 - C            28013266                                                            000047
2SR. CAIXA, APOS O VENCIMENTO COBRAR 2% DE MULTA                                 NAO RECEBER APOS 30 DIAS DO VENCIMENTO.                                                                                                                                                                                                         01072100000000000000107210000000000000       0090339900009954246155072115000048
9                                                                                                                                                                                                                                                                                                                                                                                                         000049