01REMESSA01COBRANCA       00000000000008017025HB SANTOS CONSTRUTORA E INCORP237BRADESCO       040320        MX0000099                                                                                                                                                                                                                                                                                     000001
100000000000000000000009033990000627000000000000000000000000010002020025035103201300000000002            2  01250351032024032000000002203550000000001N040320000000000000000000000000000000000000000000000000000000000000000100025035170802WANDERSON LUIS DE CARVALHO              RUA JOAQUIM GONCALVES ROCHA - 302 - JARD            02859030                                                            000002
2SR. CAIXA, APOS O VENCIMENTO COBRAR 2% DE MULTA                                 NAO RECEBER APOS 30 DIAS DO VENCIMENTO.                                                                                                                                                                                                         04032000000000000000403200000000000000       0090339900006270250351032013000003
100000000000000000000009033990000627000000000000000000000000010002020007294303201000000000002            2  01072943032024032000000002963820000000001N040320000000000000000000000000000000000000000000000000000000000000000100007294351805CLAUDENIR APARECIDO VACARI              RUA CARLOS JOSE BORSTENS - 50 AP.93 - AV            11702750                                                            000005
2SR. CAIXA, APOS O VENCIMENTO COBRAR 2% DE MULTA                                 NAO RECEBER APOS 30 DIAS DO VENCIMENTO.                                                                                                                                                                                                         04032000000000000000403200000000000000       0090339900006270072943032010000006
100000000000000000000009033990000627000000000000000000000000010002020042976103201000000000002            2  01429761032024032000000002994930000000001N040320000000000000000000000000000000000000000000000000000000000000000100042976111634ACACIO TOSCANO BONDANCA                 RUA COMENDADOR JACOMO ANTONIO LA SELVA -            12946797                                                            000008
2SR. CAIXA, APOS O VENCIMENTO COBRAR 2% DE MULTA                                 NAO RECEBER APOS 30 DIAS DO VENCIMENTO.                                                                                                                                                                                                         04032000000000000000403200000000000000       0090339900006270429761032010000009
100000000000000000000009033990000627000000000000000000000000010002020035438003201400000000002            2  01354380032024032000000002529360000000001N040320000000000000000000000000000000000000000000000000000000000000000100035438022836ALESSANDRO FARACO DOS SANTOS            RUA PEDRO POMAR  - 145 - JARDIM ELISA MA            02875020                                                            000011
2SR. CAIXA, APOS O VENCIMENTO COBRAR 2% DE MULTA                                 NAO RECEBER APOS 30 DIAS DO VENCIMENTO.                                                                                                                                                                                                         04032000000000000000403200000000000000       0090339900006270354380032014000012
100000000000000000000009033990000627000000000000000000000000010002020007525003201600000000002            2  01075250032024032000000003315150000000001N040320000000000000000000000000000000000000000000000000000000000000000100007525032866FERNANDO RIBEIRO                        RUA CARLOS JOSE BORSTENS - 50 AP.32 - AV            11702750                                                            000014
2SR. CAIXA, APOS O VENCIMENTO COBRAR 2% DE MULTA                                 NAO RECEBER APOS 30 DIAS DO VENCIMENTO.                                                                                                                                                                                                         04032000000000000000403200000000000000       0090339900006270075250032016000015
100000000000000000000009033990000627000000000000000000000000010002020005071403201100000000002            2  01050714032024032000000002908030000000001N040320000000000000000000000000000000000000000000000000000000000000000100005071481855ERIBALDO SANTANA CARVALHO               RUA HONDURAS - 477 - PARQUE DAS AMERICAS            09351070                                                            000017
2SR. CAIXA, APOS O VENCIMENTO COBRAR 2% DE MULTA                                 NAO RECEBER APOS 30 DIAS DO VENCIMENTO.                                                                                                                                                                                                         04032000000000000000403200000000000000       0090339900006270050714032011000018
100000000000000000000009033990000627000000000000000000000000010002020002841703201500000000002            2  01028417032024032000000002720730000000001N040320000000000000000000000000000000000000000000000000000000000000000100002841756416LUCIANA PINHEIRO DE ASSIS NUNES         RUA RIO ACIMA - 81 - RIACHO GRANDE - SAO            09830100                                                            000020
2SR. CAIXA, APOS O VENCIMENTO COBRAR 2% DE MULTA                                 NAO RECEBER APOS 30 DIAS DO VENCIMENTO.                                                                                                                                                                                                         04032000000000000000403200000000000000       0090339900006270028417032015000021
100000000000000000000009033990000627000000000000000000000000010002020084302003201400000000002            2  01843020032024032000000002733780000000001N040320000000000000000000000000000000000000000000000000000000000000000100084302097868FAUSTO TADEU VILOR                      RUA ANTONIO TAVARES - 466 - BAIRRO CAMBU            01542010                                                            000023
2SR. CAIXA, APOS O VENCIMENTO COBRAR 2% DE MULTA                                 NAO RECEBER APOS 30 DIAS DO VENCIMENTO.                                                                                                                                                                                                         04032000000000000000403200000000000000       0090339900006270843020032014000024
100000000000000000000009033990000627000000000000000000000000010002020028804203201400000000002            2  01288042032024032000000002685960000000001N040320000000000000000000000000000000000000000000000000000000000000000100028804202882GILBERTO FABIANO CABRAL DE CAMARGO      RUA CARLOS JOSE BORSTENS - 50 AP.44 - AV            11702750                                                            000026
2SR. CAIXA, APOS O VENCIMENTO COBRAR 2% DE MULTA                                 NAO RECEBER APOS 30 DIAS DO VENCIMENTO.                                                                                                                                                                                                         04032000000000000000403200000000000000       0090339900006270288042032014000027
100000000000000000000009033990000627000000000000000000000000010002020000991703201700000000002            2  01009917032024032000000002621600000000001N040320000000000000000000000000000000000000000000000000000000000000000100000991748808JAILSON BORGES DE ANDRADE               RUA IPIOBUNA - 45 - JARDIM CUMBICA - GUA            07240040                                                            000029
2SR. CAIXA, APOS O VENCIMENTO COBRAR 2% DE MULTA                                 NAO RECEBER APOS 30 DIAS DO VENCIMENTO.                                                                                                                                                                                                         04032000000000000000403200000000000000       0090339900006270009917032017000030
100000000000000000000009033990000627000000000000000000000000010002020092180203201400000000002            2  01921802032024032000000003574230000000001N040320000000000000000000000000000000000000000000000000000000000000000100092180299834LUIS ROBERTO DE SA DUARTE               RUA TEBAS - 296 AP.84 BLOCO 2 CE - JARDI            04634031                                                            000032
2SR. CAIXA, APOS O VENCIMENTO COBRAR 2% DE MULTA                                 NAO RECEBER APOS 30 DIAS DO VENCIMENTO.                                                                                                                                                                                                         04032000000000000000403200000000000000       0090339900006270921802032014000033
100000000000000000000009033990000627000000000000000000000000010002020092180203202200000000002            2  01921802032024032000000003574180000000001N040320000000000000000000000000000000000000000000000000000000000000000100092180299834LUIS ROBERTO DE SA DUARTE               RUA TEBAS - 296 AP.84 BLOCO 2 CE - JARDI            04634031                                                            000035
2SR. CAIXA, APOS O VENCIMENTO COBRAR 2% DE MULTA                                 NAO RECEBER APOS 30 DIAS DO VENCIMENTO.                                                                                                                                                                                                         04032000000000000000403200000000000000       0090339900006270921802032022000036
100000000000000000000009033990000627000000000000000000000000010002020092180203203000000000002            2  01921802032024032000000003574190000000001N040320000000000000000000000000000000000000000000000000000000000000000100092180299834LUIS ROBERTO DE SA DUARTE               RUA TEBAS - 296 AP.84 BLOCO 2 CE - JARDI            04634031                                                            000038
2SR. CAIXA, APOS O VENCIMENTO COBRAR 2% DE MULTA                                 NAO RECEBER APOS 30 DIAS DO VENCIMENTO.                                                                                                                                                                                                         04032000000000000000403200000000000000       0090339900006270921802032030000039
100000000000000000000009033990000627000000000000000000000000010002020092180203204900000000002            2  01921802032024032000000003574200000000001N040320000000000000000000000000000000000000000000000000000000000000000100092180299834LUIS ROBERTO DE SA DUARTE               RUA TEBAS - 296 AP.84 BLOCO 2 CE - JARDI            04634031                                                            000041
2SR. CAIXA, APOS O VENCIMENTO COBRAR 2% DE MULTA                                 NAO RECEBER APOS 30 DIAS DO VENCIMENTO.                                                                                                                                                                                                         04032000000000000000403200000000000000       0090339900006270921802032049000042
100000000000000000000009033990000627000000000000000000000000010002020092180203205700000000002            2  01921802032024032000000003574210000000001N040320000000000000000000000000000000000000000000000000000000000000000100092180299834LUIS ROBERTO DE SA DUARTE               RUA TEBAS - 296 AP.84 BLOCO 2 CE - JARDI            04634031                                                            000044
2SR. CAIXA, APOS O VENCIMENTO COBRAR 2% DE MULTA                                 NAO RECEBER APOS 30 DIAS DO VENCIMENTO.                                                                                                                                                                                                         04032000000000000000403200000000000000       0090339900006270921802032057000045
100000000000000000000009033990000627000000000000000000000000010002020092180203206500000000002            2  01921802032024032000000003574220000000001N040320000000000000000000000000000000000000000000000000000000000000000100092180299834LUIS ROBERTO DE SA DUARTE               RUA TEBAS - 296 AP.84 BLOCO 2 CE - JARDI            04634031                                                            000047
2SR. CAIXA, APOS O VENCIMENTO COBRAR 2% DE MULTA                                 NAO RECEBER APOS 30 DIAS DO VENCIMENTO.                                                                                                                                                                                                         04032000000000000000403200000000000000       0090339900006270921802032065000048
100000000000000000000009033990000627000000000000000000000000010002020022151603201300000000002            2  01221516032024032000000002606390000000001N040320000000000000000000000000000000000000000000000000000000000000000100022151666816SAMIR LIMA DE ARAUJO                    AVENIDA GUARAPIRANGA - 2616 AP.42 BLOCO1            04902005                                                            000050
2SR. CAIXA, APOS O VENCIMENTO COBRAR 2% DE MULTA                                 NAO RECEBER APOS 30 DIAS DO VENCIMENTO.                                                                                                                                                                                                         04032000000000000000403200000000000000       0090339900006270221516032013000051
100000000000000000000009033990000627000000000000000000000000010002020022313103201500000000002            2  01223131032026032000000002004930000000001N040320000000000000000000000000000000000000000000000000000000000000000100022313116824ROSA MARIA BRITO DA SILVA               RUA SERVIDAO DE SAO MARCOS - 113 - JARDI            04930300                                                            000053
2SR. CAIXA, APOS O VENCIMENTO COBRAR 2% DE MULTA                                 NAO RECEBER APOS 30 DIAS DO VENCIMENTO.                                                                                                                                                                                                         04032000000000000000403200000000000000       0090339900006270223131032015000054
100000000000000000000009033990000627000000000000000000000000010002020027538003201700000000002            2  01275380032026032000000002011930000000001N040320000000000000000000000000000000000000000000000000000000000000000100027538087249MARA LUCIA MENEZES DA COSTA             RUA LEILA  - 183 - ITAQUERA - SAO PAULO             08240020                                                            000056
2SR. CAIXA, APOS O VENCIMENTO COBRAR 2% DE MULTA                                 NAO RECEBER APOS 30 DIAS DO VENCIMENTO.                                                                                                                                                                                                         04032000000000000000403200000000000000       0090339900006270275380032017000057
100000000000000000000009033990000627000000000000000000000000010002020031278403201300000000002            2  01312784032024032000000002517840000000001N040320000000000000000000000000000000000000000000000000000000000000000100031278411836JEFFERSON DE PIERI PIRES ZAMUNER        RUA MANOEL ARCE - 277 - PARQUE BANCARIO             03922150                                                            000059
2SR. CAIXA, APOS O VENCIMENTO COBRAR 2% DE MULTA                                 NAO RECEBER APOS 30 DIAS DO VENCIMENTO.                                                                                                                                                                                                         04032000000000000000403200000000000000       0090339900006270312784032013000060
100000000000000000000009033990000627000000000000000000000000010002020019185703201500000000002            2  01191857032026032000000001830890000000001N040320000000000000000000000000000000000000000000000000000000000000000100019185769800AGUINALDO PESSOA DE LIMA                RUA JANUARIO ZINGARO - 252 AP.303 BL.04             05794300                                                            000062
2SR. CAIXA, APOS O VENCIMENTO COBRAR 2% DE MULTA                                 NAO RECEBER APOS 30 DIAS DO VENCIMENTO.                                                                                                                                                                                                         04032000000000000000403200000000000000       0090339900006270191857032015000063
100000000000000000000009033990000627000000000000000000000000010002020033303603201600000000002            2  01333036032026032000000001972030000000001N040320000000000000000000000000000000000000000000000000000000000000000100033303645809JESSICA DA SILVA FREITAS                RUA ARILDO VALADAO - 120 - JARDIM GUAEMB            04814600                                                            000065
2SR. CAIXA, APOS O VENCIMENTO COBRAR 2% DE MULTA                                 NAO RECEBER APOS 30 DIAS DO VENCIMENTO.                                                                                                                                                                                                         04032000000000000000403200000000000000       0090339900006270333036032016000066
100000000000000000000009033990000627000000000000000000000000010002020004824403201500000000002            2  01048244032026032000000001987640000000001N040320000000000000000000000000000000000000000000000000000000000000000100004824443806ROSIMEIRE CLARA FERREIRA REZENDE        RUA JOSE CALIXTO DO CARMO - 286 AP.43 -             11702690                                                            000068
2SR. CAIXA, APOS O VENCIMENTO COBRAR 2% DE MULTA                                 NAO RECEBER APOS 30 DIAS DO VENCIMENTO.                                                                                                                                                                                                         04032000000000000000403200000000000000       0090339900006270048244032015000069
100000000000000000000009033990000627000000000000000000000000010002020006422603201100000000002            2  01064226032024032000000002726880000000001N040320000000000000000000000000000000000000000000000000000000000000000100006422607881GERALDO ALVES DA SILVA                  RUA CARLOS JOSE BORSTENS - 50 AP.14 - AV            11702750                                                            000071
2SR. CAIXA, APOS O VENCIMENTO COBRAR 2% DE MULTA                                 NAO RECEBER APOS 30 DIAS DO VENCIMENTO.                                                                                                                                                                                                         04032000000000000000403200000000000000       0090339900006270064226032011000072
100000000000000000000009033990000627000000000000000000000000010002020033877103201300000000002            2  01338771032026032000000001848840000000001N040320000000000000000000000000000000000000000000000000000000000000000100033877129870HELDER FERREIRA VIANA                   RUA JOSE CALIXTO DO CARMO - 286 AP.35 -             11702690                                                            000074
2SR. CAIXA, APOS O VENCIMENTO COBRAR 2% DE MULTA                                 NAO RECEBER APOS 30 DIAS DO VENCIMENTO.                                                                                                                                                                                                         04032000000000000000403200000000000000       0090339900006270338771032013000075
100000000000000000000009033990000627000000000000000000000000010002020028290703201700000000002            2  01282907032026032000000001703930000000001N040320000000000000000000000000000000000000000000000000000000000000000100028290719809VANESSA GIANGARRELLI PEREIRA            RUA BARINEL - 72 - JARDIM COTCHING - SAO            03462130                                                            000077
2SR. CAIXA, APOS O VENCIMENTO COBRAR 2% DE MULTA                                 NAO RECEBER APOS 30 DIAS DO VENCIMENTO.                                                                                                                                                                                                         04032000000000000000403200000000000000       0090339900006270282907032017000078
100000000000000000000009033990000627000000000000000000000000010002020087573003201200000000002            2  01875730032026032000000001860680000000001N040320000000000000000000000000000000000000000000000000000000000000000100087573059604VANDERLEY DE ASSIS                      RUA ROMEU ALBANI - 268 - JARDIM PARQUE R            13803810                                                            000080
2SR. CAIXA, APOS O VENCIMENTO COBRAR 2% DE MULTA                                 NAO RECEBER APOS 30 DIAS DO VENCIMENTO.                                                                                                                                                                                                         04032000000000000000403200000000000000       0090339900006270875730032012000081
100000000000000000000009033990000627000000000000000000000000010002020010825503201P00000000002            2  01108255032026032000000001941730000000001N040320000000000000000000000000000000000000000000000000000000000000000100010825513847JOSE APARECIDO PEREIRA                  RUA GENERAL OSORIO - 305 - JARDIM TRINTA            11515130                                                            000083
2SR. CAIXA, APOS O VENCIMENTO COBRAR 2% DE MULTA                                 NAO RECEBER APOS 30 DIAS DO VENCIMENTO.                                                                                                                                                                                                         04032000000000000000403200000000000000       009033990000627010825503201P000084
100000000000000000000009033990000627000000000000000000000000010002020038818503201P00000000002            2  01388185032026032000000001974920000000001N040320000000000000000000000000000000000000000000000000000000000000000100038818572814MAURICIUS ALEXANDRE ESTEVAM NABOR       RUA JOSE CALIXTO DO CARMO - 286 AP.25 -             11702690                                                            000086
2SR. CAIXA, APOS O VENCIMENTO COBRAR 2% DE MULTA                                 NAO RECEBER APOS 30 DIAS DO VENCIMENTO.                                                                                                                                                                                                         04032000000000000000403200000000000000       009033990000627038818503201P000087
100000000000000000000009033990000627000000000000000000000000010002020039115103201100000000002            2  01391151032026032000000002393510000000001N040320000000000000000000000000000000000000000000000000000000000000000100039115139840LAIS CRISTINA RIBEIRO ANDO              RUA JOSE CALIXTO DO CARMO - 286 AP.65 -             11702690                                                            000089
2SR. CAIXA, APOS O VENCIMENTO COBRAR 2% DE MULTA                                 NAO RECEBER APOS 30 DIAS DO VENCIMENTO.                                                                                                                                                                                                         04032000000000000000403200000000000000       0090339900006270391151032011000090
100000000000000000000009033990000627000000000000000000000000010002020029617503201P00000000002            2  01296175032024032000000002676530000000001N040320000000000000000000000000000000000000000000000000000000000000000100029617510553MARILENE SOUZA DE OLIVEIRA              AVENIDA BRASIL - 393 AP.09 - PARQUE DAS             09210280                                                            000092
2SR. CAIXA, APOS O VENCIMENTO COBRAR 2% DE MULTA                                 NAO RECEBER APOS 30 DIAS DO VENCIMENTO.                                                                                                                                                                                                         04032000000000000000403200000000000000       009033990000627029617503201P000093
100000000000000000000009033990000627000000000000000000000000010002020000593203201P00000000002            2  01005932032024032000000002935490000000001N040320000000000000000000000000000000000000000000000000000000000000000100000593293860WALTER HELIO BARBOSA FILHO              AVENIDA ANTONIO FREDERICO OZANAN - 9500             13214206                                                            000095
2SR. CAIXA, APOS O VENCIMENTO COBRAR 2% DE MULTA                                 NAO RECEBER APOS 30 DIAS DO VENCIMENTO.                                                                                                                                                                                                         04032000000000000000403200000000000000       009033990000627000593203201P000096
100000000000000000000009033990000627000000000000000000000000010002020007730003201500000000002            2  01077300032024032000000004174560000000001N040320000000000000000000000000000000000000000000000000000000000000000100007730084899ARNALDO LUIZ VONO                       RUA CARLOS JOSE BORSTENS - 50 AP.122 - A            11702750                                                            000098
2SR. CAIXA, APOS O VENCIMENTO COBRAR 2% DE MULTA                                 NAO RECEBER APOS 30 DIAS DO VENCIMENTO.                                                                                                                                                                                                         04032000000000000000403200000000000000       0090339900006270077300032015000099
100000000000000000000009033990000627000000000000000000000000010002020065584103201100000000002            2  01655841032024032000000001540970000000001N040320000000000000000000000000000000000000000000000000000000000000000100065584147834JOAQUIM DA COSTA MACHADO NETO           RUA CARLOS JOSE BORSTENS - 50 AP.42 - AV            11702750                                                            000101
2SR. CAIXA, APOS O VENCIMENTO COBRAR 2% DE MULTA                                 NAO RECEBER APOS 30 DIAS DO VENCIMENTO.                                                                                                                                                                                                         04032000000000000000403200000000000000       0090339900006270655841032011000102
100000000000000000000009033990000627000000000000000000000000010002020001616903201300000000002            2  01016169032024032000000002710080000000001N040320000000000000000000000000000000000000000000000000000000000000000100001616913827CLAUDIO LUIZ PAULELLA                   PRACA NESTOR DOS SANTOS ARRUDA - 26 - VI            13920000                                                            000104
2SR. CAIXA, APOS O VENCIMENTO COBRAR 2% DE MULTA                                 NAO RECEBER APOS 30 DIAS DO VENCIMENTO.                                                                                                                                                                                                         04032000000000000000403200000000000000       0090339900006270016169032013000105
100000000000000000000009033990000627000000000000000000000000010002020006684603201400000000002            2  01066846032026032000000001971770000000001N040320000000000000000000000000000000000000000000000000000000000000000100006684623884LAUDINOR VIEIRA GARCIA                  RUA CANDIDO SALES - 374 - JARDIM PRESIDE            07172000                                                            000107
2SR. CAIXA, APOS O VENCIMENTO COBRAR 2% DE MULTA                                 NAO RECEBER APOS 30 DIAS DO VENCIMENTO.                                                                                                                                                                                                         04032000000000000000403200000000000000       0090339900006270066846032014000108
100000000000000000000009033990000627000000000000000000000000010002020011663503201500000000002            2  01116635032026032000000001985980000000001N040320000000000000000000000000000000000000000000000000000000000000000100011663589844MARIA SAVIO QUARELLO                    AVENIDA MENDONCA DRUMOND - 321 - JARDIM             03524030                                                            000110
2SR. CAIXA, APOS O VENCIMENTO COBRAR 2% DE MULTA                                 NAO RECEBER APOS 30 DIAS DO VENCIMENTO.                                                                                                                                                                                                         04032000000000000000403200000000000000       0090339900006270116635032015000111
100000000000000000000009033990000627000000000000000000000000010002020010083803201700000000002            2  01100838032026032000000001918770000000001N040320000000000000000000000000000000000000000000000000000000000000000100010083824855IONE FERREIRA COUTO DA SILVA            RUA JOSE RAGEL DE MESQUITA - 60 CS.01 -             07799999                                                            000113
2SR. CAIXA, APOS O VENCIMENTO COBRAR 2% DE MULTA                                 NAO RECEBER APOS 30 DIAS DO VENCIMENTO.                                                                                                                                                                                                         04032000000000000000403200000000000000       0090339900006270100838032017000114
100000000000000000000009033990000627000000000000000000000000010002020036881703201P00000000002            2  01368817032026032000000001882950000000001N040320000000000000000000000000000000000000000000000000000000000000000100036881778864ANDRE GONZALEZ RABELLO                  RUA PARAIBA - 106 AP.61 - POMPEIA - SANT            11065470                                                            000116
2SR. CAIXA, APOS O VENCIMENTO COBRAR 2% DE MULTA                                 NAO RECEBER APOS 30 DIAS DO VENCIMENTO.                                                                                                                                                                                                         04032000000000000000403200000000000000       009033990000627036881703201P000117
100000000000000000000009033990000627000000000000000000000000010002020018207003201900000000002            2  01182070032024032000000002595470000000001N040320000000000000000000000000000000000000000000000000000000000000000100018207096802ROBERTO VALENTE TAVARES                 RUA SEBASTIAO GOMES - 218 - JARDIM SANTO            13835000                                                            000119
2SR. CAIXA, APOS O VENCIMENTO COBRAR 2% DE MULTA                                 NAO RECEBER APOS 30 DIAS DO VENCIMENTO.                                                                                                                                                                                                         04032000000000000000403200000000000000       0090339900006270182070032019000120
100000000000000000000009033990000627000000000000000000000000010002020005351003201100000000002            2  01053510032026032000000001765460000000001N040320000000000000000000000000000000000000000000000000000000000000000100005351015897VALERIA ALVES MARCOLINO HINNIGER        RUA JOSE CALIXTO DO CARMO - 286 AP.92 -             11702690                                                            000122
2SR. CAIXA, APOS O VENCIMENTO COBRAR 2% DE MULTA                                 NAO RECEBER APOS 30 DIAS DO VENCIMENTO.                                                                                                                                                                                                         04032000000000000000403200000000000000       0090339900006270053510032011000123
100000000000000000000009033990000627000000000000000000000000010002020031898703201700000000002            2  01318987032024032000000002808800000000001N040320000000000000000000000000000000000000000000000000000000000000000100031898775800ANITA MARTINS COLOMBO                   RUA CARLOS JOSE BORSTENS - 50 AP.115 - A            11702750                                                            000125
2SR. CAIXA, APOS O VENCIMENTO COBRAR 2% DE MULTA                                 NAO RECEBER APOS 30 DIAS DO VENCIMENTO.                                                                                                                                                                                                         04032000000000000000403200000000000000       0090339900006270318987032017000126
100000000000000000000009033990000627000000000000000000000000010002020037983403201700000000002            2  01379834032026032000000002073830000000001N040320000000000000000000000000000000000000000000000000000000000000000100037983484801JOSE ERIVALDO SOUZA DO NASCIMENTO RAMOS RUA LETICIA - 250 - JARDIM GUARUJA - SAO            05877260                                                            000128
2SR. CAIXA, APOS O VENCIMENTO COBRAR 2% DE MULTA                                 NAO RECEBER APOS 30 DIAS DO VENCIMENTO.                                                                                                                                                                                                         04032000000000000000403200000000000000       0090339900006270379834032017000129
100000000000000000000009033990000627000000000000000000000000010002020056289203201800000000002            2  01562892032026032000000001566670000000001N040320000000000000000000000000000000000000000000000000000000000000000100056289286900PEDRO RIBEIRO                           RUA CONEGO MANOEL VAZ - 48 - SANTANA - S            02019050                                                            000131
2SR. CAIXA, APOS O VENCIMENTO COBRAR 2% DE MULTA                                 NAO RECEBER APOS 30 DIAS DO VENCIMENTO.                                                                                                                                                                                                         04032000000000000000403200000000000000       0090339900006270562892032018000132
100000000000000000000009033990000627000000000000000000000000010002020005025503201100000000002            2  01050255032026032000000002229550000000001N040320000000000000000000000000000000000000000000000000000000000000000100005025595860CONCEICAO APARECIDA DE MESQUITA PEREIRA RUA TRIUNFO - 835 AP.105 - JARDIM SAO LU            14020670                                                            000134
2SR. CAIXA, APOS O VENCIMENTO COBRAR 2% DE MULTA                                 NAO RECEBER APOS 30 DIAS DO VENCIMENTO.                                                                                                                                                                                                         04032000000000000000403200000000000000       0090339900006270050255032011000135
100000000000000000000009033990000627000000000000000000000000010002020034735303201400000000002            2  01347353032026032000000002150160000000001N040320000000000000000000000000000000000000000000000000000000000000000100034735328866DIEGO FELIPE MOLINA DA SILVA E SOUSA    RUA EMILIA PAULISTA - 135 - VILA TIRADEN            05364020                                                            000137
2SR. CAIXA, APOS O VENCIMENTO COBRAR 2% DE MULTA                                 NAO RECEBER APOS 30 DIAS DO VENCIMENTO.                                                                                                                                                                                                         04032000000000000000403200000000000000       0090339900006270347353032014000138
100000000000000000000009033990000627000000000000000000000000010002020076175603201500000000002            2  01761756032024032000000003898000000000001N040320000000000000000000000000000000000000000000000000000000000000000100076175685687GILMAR DE OLIVEIRA BRAGA                RUA MARACAJU - 161 AP.202 - NOVA GRANADA            30431350                                                            000140
2SR. CAIXA, APOS O VENCIMENTO COBRAR 2% DE MULTA                                 NAO RECEBER APOS 30 DIAS DO VENCIMENTO.                                                                                                                                                                                                         04032000000000000000403200000000000000       0090339900006270761756032015000141
100000000000000000000009033990000627000000000000000000000000010002020034812203201800000000002            2  01348122032024032000000003717560000000001N040320000000000000000000000000000000000000000000000000000000000000000100034812226880THAIS TORQUATO MIMOSO DE JESUS          RUA ARNALDO CINTRA - 416 AP.104 TORRE 2             03088000                                                            000143
2SR. CAIXA, APOS O VENCIMENTO COBRAR 2% DE MULTA                                 NAO RECEBER APOS 30 DIAS DO VENCIMENTO.                                                                                                                                                                                                         04032000000000000000403200000000000000       0090339900006270348122032018000144
100000000000000000000009033990000627000000000000000000000000010002020012849403201400000000002            2  01128494032026032000000003704180000000001N040320000000000000000000000000000000000000000000000000000000000000000100012849428809MOISES CLAUDIO DO ROSARIO               AVENIDA DR. AUGUSTO DE TOLEDO - 510 AP.1            09541520                                                            000146
2SR. CAIXA, APOS O VENCIMENTO COBRAR 2% DE MULTA                                 NAO RECEBER APOS 30 DIAS DO VENCIMENTO.                                                                                                                                                                                                         04032000000000000000403200000000000000       0090339900006270128494032014000147
100000000000000000000009033990000627000000000000000000000000010002020015702303201400000000002            2  01157023032026032000000002055160000000001N040320000000000000000000000000000000000000000000000000000000000000000100015702353846MARIA DE LOURDES DE MACENO SOUZA        RUA JOSE CALIXTO DO CARMO - 286 AP.83 -             11702690                                                            000149
2SR. CAIXA, APOS O VENCIMENTO COBRAR 2% DE MULTA                                 NAO RECEBER APOS 30 DIAS DO VENCIMENTO.                                                                                                                                                                                                         04032000000000000000403200000000000000       0090339900006270157023032014000150
100000000000000000000009033990000627000000000000000000000000010002020006749703201600000000002            2  01067497032023032000000001990180000000001N040320000000000000000000000000000000000000000000000000000000000000000100006749731600MARCELA DA ROCHA REIS                   RUA COLOMBIA - 665 AP.1204 - JARDIM GUIL            11702020                                                            000152
2SR. CAIXA, APOS O VENCIMENTO COBRAR 2% DE MULTA                                 NAO RECEBER APOS 30 DIAS DO VENCIMENTO.                                                                                                                                                                                                         04032000000000000000403200000000000000       0090339900006270067497032016000153
100000000000000000000009033990000627000000000000000000000000010002020006749703202400000000002            2  01067497032023032000000001990170000000001N040320000000000000000000000000000000000000000000000000000000000000000100006749731600MARCELA DA ROCHA REIS                   RUA COLOMBIA - 665 AP.1204 - JARDIM GUIL            11702020                                                            000155
2SR. CAIXA, APOS O VENCIMENTO COBRAR 2% DE MULTA                                 NAO RECEBER APOS 30 DIAS DO VENCIMENTO.                                                                                                                                                                                                         04032000000000000000403200000000000000       0090339900006270067497032024000156
100000000000000000000009033990000627000000000000000000000000010002020003658603201900000000002            2  01036586032026032000000001530270000000001N040320000000000000000000000000000000000000000000000000000000000000000100003658668814MARINEZ VALENTIN                        RUA JOSE CALIXTO DO CARMO - 286 AP.95 -             11702690                                                            000158
2SR. CAIXA, APOS O VENCIMENTO COBRAR 2% DE MULTA                                 NAO RECEBER APOS 30 DIAS DO VENCIMENTO.                                                                                                                                                                                                         04032000000000000000403200000000000000       0090339900006270036586032019000159
100000000000000000000009033990000627000000000000000000000000010002020014087403201700000000002            2  01140874032026032000000002045070000000001N040320000000000000000000000000000000000000000000000000000000000000000100014087484874SERGIO SANTOS DO NASCIMENTO             RUA PANTALEAO BRAZ - 21 - JARDIM ESTER -            05372080                                                            000161
2SR. CAIXA, APOS O VENCIMENTO COBRAR 2% DE MULTA                                 NAO RECEBER APOS 30 DIAS DO VENCIMENTO.                                                                                                                                                                                                         04032000000000000000403200000000000000       0090339900006270140874032017000162
100000000000000000000009033990000627000000000000000000000000010002020039540003201400000000002            2  01395400032026032000000001852520000000001N040320000000000000000000000000000000000000000000000000000000000000000100039540008816LUZINETE CLARINDO SILVA                 RUA DEINOS - 275 - BAIRRO CIDADE SATELIT            08340100                                                            000164
2SR. CAIXA, APOS O VENCIMENTO COBRAR 2% DE MULTA                                 NAO RECEBER APOS 30 DIAS DO VENCIMENTO.                                                                                                                                                                                                         04032000000000000000403200000000000000       0090339900006270395400032014000165
100000000000000000000009033990000627000000000000000000000000010002020005723203201900000000002            2  01057232032023032000000002601880000000001N040320000000000000000000000000000000000000000000000000000000000000000100005723255843FRANCISCO DE ASSIS DA SILVA             PRACA NICOLAU GERAIGIRE - 25 VISOR - JAR            11095110                                                            000167
2SR. CAIXA, APOS O VENCIMENTO COBRAR 2% DE MULTA                                 NAO RECEBER APOS 30 DIAS DO VENCIMENTO.                                                                                                                                                                                                         04032000000000000000403200000000000000       0090339900006270057232032019000168
9                                                                                                                                                                                                                                                                                                                                                                                                         000169