01REMESSA01COBRANCA       00000000000005331186HB SANTOS CONSTRUTORA E INCORP237BRADESCO       010624        MX0000098                                                                                                                                                                                                                                                                                     000001
100000000000000000000009033990000995400000000000000000000000010002020026858606241200000000002            2  01268586062408062400000003439360000000001N010624000000000000000000000000000000000000000000000000000000000000000100026858625879GLAUCE FERREIRA DE OLIVEIRA FALSI       RUA LOURENCO ANTONIO BRAGANCA - 116 - JA            04403160                                                            000002
2SR. CAIXA, APOS O VENCIMENTO COBRAR 2% DE MULTA                                 NAO RECEBER APOS 30 DIAS DO VENCIMENTO.                                                                                                                                                                                                         01062400000000000000106240000000000000       0090339900009954268586062412000003
100000000000000000000009033990000995400000000000000000000000010002020029425006241500000000002            2  01294250062408062400000003270830000000001N010624000000000000000000000000000000000000000000000000000000000000000100029425027897FABIA DOS SANTOS DE ANDRADE             AVENIDA ALCIDES CANDIDO DOS SANTOS - 248            11705480                                                            000005
2SR. CAIXA, APOS O VENCIMENTO COBRAR 2% DE MULTA                                 NAO RECEBER APOS 30 DIAS DO VENCIMENTO.                                                                                                                                                                                                         01062400000000000000106240000000000000       0090339900009954294250062415000006
100000000000000000000009033990000995400000000000000000000000010002020078382706241000000000002            2  01783827062408062400000003305370000000001N010624000000000000000000000000000000000000000000000000000000000000000100078382700497JARMELINA BARBOSA DA SILVA              RUA OSCAR CINTRA GORDINHO - 211 AP.51 -             01512010                                                            000008
2SR. CAIXA, APOS O VENCIMENTO COBRAR 2% DE MULTA                                 NAO RECEBER APOS 30 DIAS DO VENCIMENTO.                                                                                                                                                                                                         01062400000000000000106240000000000000       0090339900009954783827062410000009
100000000000000000000009033990000995400000000000000000000000010002020007535306241P00000000002            2  01075353062408062400000003241290000000001N010624000000000000000000000000000000000000000000000000000000000000000100007535375839AINAILDE PEREIRA DE CASTRO OLIVETTO     TRAVESSA DORALINA ELIETE ADAO DA SILVA -            08021026                                                            000011
2SR. CAIXA, APOS O VENCIMENTO COBRAR 2% DE MULTA                                 NAO RECEBER APOS 30 DIAS DO VENCIMENTO.                                                                                                                                                                                                         01062400000000000000106240000000000000       009033990000995407535306241P000012
100000000000000000000009033990000995400000000000000000000000010002020017229706241500000000002            2  01172297062408062400000003433460000000001N010624000000000000000000000000000000000000000000000000000000000000000100017229751802BERENICE VIEIRA KERSTING                RUA ATIBAIA - 17 AP.417 - BAIRRO IMPERAD            11707380                                                            000014
2SR. CAIXA, APOS O VENCIMENTO COBRAR 2% DE MULTA                                 NAO RECEBER APOS 30 DIAS DO VENCIMENTO.                                                                                                                                                                                                         01062400000000000000106240000000000000       0090339900009954172297062415000015
100000000000000000000009033990000995400000000000000000000000010002020028974206241700000000002            2  01289742062408062400000003206750000000001N010624000000000000000000000000000000000000000000000000000000000000000100028974233827MARISTELA FAVANI DE OLIVEIRA            RUA GIUSEPPE CARNEVALLI - 96 - BAIRRO BO            09572100                                                            000017
2SR. CAIXA, APOS O VENCIMENTO COBRAR 2% DE MULTA                                 NAO RECEBER APOS 30 DIAS DO VENCIMENTO.                                                                                                                                                                                                         01062400000000000000106240000000000000       0090339900009954289742062417000018
100000000000000000000009033990000995400000000000000000000000010002020092184806241400000000002            2  01921848062408062400000003164100000000001N010624000000000000000000000000000000000000000000000000000000000000000100092184804800CARMEM DO SOCORRO GUILHERME             ESTRADA SAO FRANCISCO - 1.850 AP.182A -             06765000                                                            000020
2SR. CAIXA, APOS O VENCIMENTO COBRAR 2% DE MULTA                                 NAO RECEBER APOS 30 DIAS DO VENCIMENTO.                                                                                                                                                                                                         01062400000000000000106240000000000000       0090339900009954921848062414000021
100000000000000000000009033990000995400000000000000000000000010002020009169706241400000000002            2  01091697062408062400000002537640000000001N010624000000000000000000000000000000000000000000000000000000000000000100009169701830TADEU CONSTANTINO LOPES                 RUA JOSE ANTONIO COELHO - 349 CASA 01 -             04011061                                                            000023
2SR. CAIXA, APOS O VENCIMENTO COBRAR 2% DE MULTA                                 NAO RECEBER APOS 30 DIAS DO VENCIMENTO.                                                                                                                                                                                                         01062400000000000000106240000000000000       0090339900009954091697062414000024
100000000000000000000009033990000995400000000000000000000000010002020042480106241200000000002            2  01424801062408062400000003228110000000001N010624000000000000000000000000000000000000000000000000000000000000000100042480155870JAMITRE SOIOMARA ALVES DO NASCIMENTO DAVRUA URUGUAI - 89 AP.75 - JARDIM GUILHERM            11702300                                                            000026
2SR. CAIXA, APOS O VENCIMENTO COBRAR 2% DE MULTA                                 NAO RECEBER APOS 30 DIAS DO VENCIMENTO.                                                                                                                                                                                                         01062400000000000000106240000000000000       0090339900009954424801062412000027
100000000000000000000009033990000995400000000000000000000000010002020001356906241900000000002            2  01013569062408062400000003276180000000001N010624000000000000000000000000000000000000000000000000000000000000000100001356993800DALVA MARIA DOS SANTOS                  RUA URUGUAI - 89 AP.74 - AVIACAO - PRAIA            11702300                                                            000029
2SR. CAIXA, APOS O VENCIMENTO COBRAR 2% DE MULTA                                 NAO RECEBER APOS 30 DIAS DO VENCIMENTO.                                                                                                                                                                                                         01062400000000000000106240000000000000       0090339900009954013569062419000030
100000000000000000000009033990000995400000000000000000000000010002020024615506241100000000002            2  01246155062408062400000003736350000000001N010624000000000000000000000000000000000000000000000000000000000000000100024615557884GILBERTO JOSE GONSALES                  RUA URUGUAI - 89 AP.115 - JARDIM GUILHER            11702300                                                            000032
2SR. CAIXA, APOS O VENCIMENTO COBRAR 2% DE MULTA                                 NAO RECEBER APOS 30 DIAS DO VENCIMENTO.                                                                                                                                                                                                         01062400000000000000106240000000000000       0090339900009954246155062411000033
100000000000000000000009033990000995400000000000000000000000010002020008539306241800000000002            2  01085393062408062400000003572220000000001N010624000000000000000000000000000000000000000000000000000000000000000100008539365871EDMILSON RAIMUNDO DOS SANTOS            RUA CALIDICE - 247 - PARQUE CRUZEIRO - S            08070010                                                            000035
2SR. CAIXA, APOS O VENCIMENTO COBRAR 2% DE MULTA                                 NAO RECEBER APOS 30 DIAS DO VENCIMENTO.                                                                                                                                                                                                         01062400000000000000106240000000000000       0090339900009954085393062418000036
100000000000000000000009033990000995400000000000000000000000010002020004611206241900000000002            2  01046112062408062400000002265680000000001N010624000000000000000000000000000000000000000000000000000000000000000100004611218830TANIA MARIA DA SILVA NUNES PEREIRA LUIZ RUA URUGUAI - 89 AP.103 - JARDIM GUILHER            11702300                                                            000038
2SR. CAIXA, APOS O VENCIMENTO COBRAR 2% DE MULTA                                 NAO RECEBER APOS 30 DIAS DO VENCIMENTO.                                                                                                                                                                                                         01062400000000000000106240000000000000       0090339900009954046112062419000039
100000000000000000000009033990000995400000000000000000000000010002020010548806241600000000002            2  01105488062408062400000004025740000000001N010624000000000000000000000000000000000000000000000000000000000000000100010548844801RICARDO DE JESUS CALDAS                 RUA ANTONIO AMBUBA - 50 CASA 60 - BAIRRO            05782370                                                            000041
2SR. CAIXA, APOS O VENCIMENTO COBRAR 2% DE MULTA                                 NAO RECEBER APOS 30 DIAS DO VENCIMENTO.                                                                                                                                                                                                         01062400000000000000106240000000000000       0090339900009954105488062416000042
100000000000000000000009033990000995400000000000000000000000010002020032038706241300000000002            2  01320387062408062400000002642680000000001N010624000000000000000000000000000000000000000000000000000000000000000100032038775893GUSTAVO PEREIRA DA CRUZ                 RUA SAO FIDELIS - 203 - JARDIM BRASIL -             16074050                                                            000044
2SR. CAIXA, APOS O VENCIMENTO COBRAR 2% DE MULTA                                 NAO RECEBER APOS 30 DIAS DO VENCIMENTO.                                                                                                                                                                                                         01062400000000000000106240000000000000       0090339900009954320387062413000045
100000000000000000000009033990000995400000000000000000000000010002020025914206241700000000002            2  01259142062408062400000003593260000000001N010624000000000000000000000000000000000000000000000000000000000000000100025914206880JONAS DOS REIS MACHADO                  RUA PROFESSORA MARGARIDA RUTH FERREIRA D            02378200                                                            000047
2SR. CAIXA, APOS O VENCIMENTO COBRAR 2% DE MULTA                                 NAO RECEBER APOS 30 DIAS DO VENCIMENTO.                                                                                                                                                                                                         01062400000000000000106240000000000000       0090339900009954259142062417000048
100000000000000000000009033990000995400000000000000000000000010002020032549506241300000000002            2  01325495062408062400000003284020000000001N010624000000000000000000000000000000000000000000000000000000000000000100032549502833PAMELA DECENCI                          RUA URUGUAI - 89 AP.61 - AVIACAO - PRAIA            11702300                                                            000050
2SR. CAIXA, APOS O VENCIMENTO COBRAR 2% DE MULTA                                 NAO RECEBER APOS 30 DIAS DO VENCIMENTO.                                                                                                                                                                                                         01062400000000000000106240000000000000       0090339900009954325495062413000051
100000000000000000000009033990000995400000000000000000000000010002020027969406241200000000002            2  01279694062408062400000002641020000000001N010624000000000000000000000000000000000000000000000000000000000000000100027969412807THIAGO BARRETO PEREZ                    RUA ARMINDO GUARANA - 170 - VILA REGENTE            03335070                                                            000053
2SR. CAIXA, APOS O VENCIMENTO COBRAR 2% DE MULTA                                 NAO RECEBER APOS 30 DIAS DO VENCIMENTO.                                                                                                                                                                                                         01062400000000000000106240000000000000       0090339900009954279694062412000054
100000000000000000000009033990000995400000000000000000000000010002020013466506241300000000002            2  01134665062408062400000003538130000000001N010624000000000000000000000000000000000000000000000000000000000000000100013466586844MAURICIO DANTAS DA SILVA                RUA CASTOR - 57 - CIDADE SATELITE SANTA             08340120                                                            000056
2SR. CAIXA, APOS O VENCIMENTO COBRAR 2% DE MULTA                                 NAO RECEBER APOS 30 DIAS DO VENCIMENTO.                                                                                                                                                                                                         01062400000000000000106240000000000000       0090339900009954134665062413000057
100000000000000000000009033990000995400000000000000000000000010002020036263806241200000000002            2  01362638062408062400000003496310000000001N010624000000000000000000000000000000000000000000000000000000000000000100036263883871DIEGO ELIAS DA SILVA                    AVENIDA DEZENOVE DE JANEIRO - 160 - VILA            03449000                                                            000059
2SR. CAIXA, APOS O VENCIMENTO COBRAR 2% DE MULTA                                 NAO RECEBER APOS 30 DIAS DO VENCIMENTO.                                                                                                                                                                                                         01062400000000000000106240000000000000       0090339900009954362638062412000060
9                                                                                                                                                                                                                                                                                                                                                                                                         000061