01REMESSA01COBRANCA       00000000000004991781AIRES CONSTRUTORA E INCORPORAD237BRADESCO       010820        MX0000147                                                                                                                                                                                                                                                                                     000001
100000000000000000000009077090006612500000000000000000000000010002100029380708201900000000002            2  01293807082025082000000003459030000000001N010820000000000000000000000000000000000000000000000000000000000000000100029380708882EDUARDO MENDONCA DAMASCENO              RUA MONTE CASTELO - 296 AP.12 - AVIACAO             11702720                                                            000002
2SR. CAIXA, APOS O VENCIMENTO COBRAR 10% DE MULTA                                NAO RECEBER APOS 30 DIAS DO VENCIMENTO.                                                                                                                                                                                                         01082000000000000000108200000000000000       0090770900066125293807082019000003
100000000000000000000009077090006612500000000000000000000000010002100023988508201200000000002            2  01239885082025082000000003512240000000001N010820000000000000000000000000000000000000000000000000000000000000000100023988525634DALMY PIMENTA                           SAO CAETANO - 136 - VILA SAO VICENTE - U            38026220                                                            000005
2SR. CAIXA, APOS O VENCIMENTO COBRAR 10% DE MULTA                                NAO RECEBER APOS 30 DIAS DO VENCIMENTO.                                                                                                                                                                                                         01082000000000000000108200000000000000       0090770900066125239885082012000006
100000000000000000000009077090006612500000000000000000000000010002100007975908201800000000002            2  01079759082025082000000003714470000000001N010820000000000000000000000000000000000000000000000000000000000000000100007975958808JOCY VIGNADO                            RUA PEDRO GONCALVES SOBRINHO - 568 - PAR            13098641                                                            000008
2SR. CAIXA, APOS O VENCIMENTO COBRAR 10% DE MULTA                                NAO RECEBER APOS 30 DIAS DO VENCIMENTO.                                                                                                                                                                                                         01082000000000000000108200000000000000       0090770900066125079759082018000009
100000000000000000000009077090006612500000000000000000000000010002100036386808201P00000000002            2  01363868082025082000000003923020000000001N010820000000000000000000000000000000000000000000000000000000000000000100036386861833ALINE LEE WEI DE SOUZA                  AV. PRES.CASTELO BRANCO - 9127 AP.251 BL            11704600                                                            000011
2SR. CAIXA, APOS O VENCIMENTO COBRAR 10% DE MULTA                                NAO RECEBER APOS 30 DIAS DO VENCIMENTO.                                                                                                                                                                                                         01082000000000000000108200000000000000       009077090006612536386808201P000012
100000000000000000000009077090006612500000000000000000000000010002100075759408201600000000002            2  01757594082025082000000002794440000000001N010820000000000000000000000000000000000000000000000000000000000000000100075759446800VALTER MUTAFEI                          RUA MONTE CASTELO - 295 AP.54 - AVIACAO             11702720                                                            000014
2SR. CAIXA, APOS O VENCIMENTO COBRAR 10% DE MULTA                                NAO RECEBER APOS 30 DIAS DO VENCIMENTO.                                                                                                                                                                                                         01082000000000000000108200000000000000       0090770900066125757594082016000015
100000000000000000000009077090006612500000000000000000000000010002100023132608201P00000000002            2  01231326082025082000000002168700000000001N010820000000000000000000000000000000000000000000000000000000000000000100023132672882LEANDRO MORENO                          RUA MONTE CASTELO - 296 AP.64 - AVIACAO             11702720                                                            000017
2SR. CAIXA, APOS O VENCIMENTO COBRAR 10% DE MULTA                                NAO RECEBER APOS 30 DIAS DO VENCIMENTO.                                                                                                                                                                                                         01082000000000000000108200000000000000       009077090006612523132608201P000018
100000000000000000000009077090006612500000000000000000000000010002100099264608201900000000002            2  01992646082025082000000003698530000000001N010820000000000000000000000000000000000000000000000000000000000000000100099264692800LEONTINO PINHEIRO DA SILVA              AVENIDA JOAO BATISTA FITIPALDI - 469 - V            08685000                                                            000020
2SR. CAIXA, APOS O VENCIMENTO COBRAR 10% DE MULTA                                NAO RECEBER APOS 30 DIAS DO VENCIMENTO.                                                                                                                                                                                                         01082000000000000000108200000000000000       0090770900066125992646082019000021
100000000000000000000009077090006612500000000000000000000000010002100000666308201P00000000002            2  01006663082025082000000003568050000000001N010820000000000000000000000000000000000000000000000000000000000000000100000666344825LUIZ HENRIQUE DE CAMPOS                 RUA JOAO CARLOS CAVALCANTI REIS - 21 - J            02281206                                                            000023
2SR. CAIXA, APOS O VENCIMENTO COBRAR 10% DE MULTA                                NAO RECEBER APOS 30 DIAS DO VENCIMENTO.                                                                                                                                                                                                         01082000000000000000108200000000000000       009077090006612500666308201P000024
100000000000000000000009077090006612500000000000000000000000010002100029155008201P00000000002            2  01291550082025082000000003768000000000001N010820000000000000000000000000000000000000000000000000000000000000000100029155026842DANIELA YOSHIDA                         RUA MONTE CASTELO - 262 AP.34 - AVIACAO             11702720                                                            000026
2SR. CAIXA, APOS O VENCIMENTO COBRAR 10% DE MULTA                                NAO RECEBER APOS 30 DIAS DO VENCIMENTO.                                                                                                                                                                                                         01082000000000000000108200000000000000       009077090006612529155008201P000027
100000000000000000000009077090006612500000000000000000000000010002100001204408201300000000002            2  01012044082025082000000003068510000000001N010820000000000000000000000000000000000000000000000000000000000000000100001204431809CEZAR TALAVERA JUNIOR                   RUA MAESTRO ARTURO DE ANGELIS  - 190 AP.            05139010                                                            000029
2SR. CAIXA, APOS O VENCIMENTO COBRAR 10% DE MULTA                                NAO RECEBER APOS 30 DIAS DO VENCIMENTO.                                                                                                                                                                                                         01082000000000000000108200000000000000       0090770900066125012044082013000030
100000000000000000000009077090006612500000000000000000000000010002100004227508201200000000002            2  01042275082025082000000003977700000000001N010820000000000000000000000000000000000000000000000000000000000000000100004227553970ALESSANDRO ISRAEL GOULART               RUA PROFESSORA CARLINDA RIBEIRO - 21 - F            02866200                                                            000032
2SR. CAIXA, APOS O VENCIMENTO COBRAR 10% DE MULTA                                NAO RECEBER APOS 30 DIAS DO VENCIMENTO.                                                                                                                                                                                                         01082000000000000000108200000000000000       0090770900066125042275082012000033
100000000000000000000009077090006612500000000000000000000000010002100060811408201600000000002            2  01608114082025082000000003665910000000001N010820000000000000000000000000000000000000000000000000000000000000000100060811420868HELIO BASSI                             AV.PARIS,575 - PRACA ANTONIO FIGUEROA -             11700082                                                            000035
2SR. CAIXA, APOS O VENCIMENTO COBRAR 10% DE MULTA                                NAO RECEBER APOS 30 DIAS DO VENCIMENTO.                                                                                                                                                                                                         01082000000000000000108200000000000000       0090770900066125608114082016000036
100000000000000000000009077090006612500000000000000000000000010002100001024708201600000000002            2  01010247082025082000000003468930000000001N010820000000000000000000000000000000000000000000000000000000000000000100001024794881CLAUDIO RODRIGUES                       RUA ARACATUBA - 242 - LAPA - SAO PAULO -            05058010                                                            000038
2SR. CAIXA, APOS O VENCIMENTO COBRAR 10% DE MULTA                                NAO RECEBER APOS 30 DIAS DO VENCIMENTO.                                                                                                                                                                                                         01082000000000000000108200000000000000       0090770900066125010247082016000039
100000000000000000000009077090006612500000000000000000000000010002100002225008201700000000002            2  01022250082025082000000005318340000000001N010820000000000000000000000000000000000000000000000000000000000000000100002225072841PEDRO EDUARDO DE AZEVEDO                RUA NATH ZILMAN - 46 - JARDIM SAMAMBAIA             07623085                                                            000041
2SR. CAIXA, APOS O VENCIMENTO COBRAR 10% DE MULTA                                NAO RECEBER APOS 30 DIAS DO VENCIMENTO.                                                                                                                                                                                                         01082000000000000000108200000000000000       0090770900066125022250082017000042
100000000000000000000009077090006612500000000000000000000000010002100022037508201500000000002            2  01220375082025082000000003700970000000001N010820000000000000000000000000000000000000000000000000000000000000000100022037552882ANDREIA CRISTINA FERNANDES DANTAS       PCA CASTRO ALVES - 163 AP.33 - VILA SAO             13224299                                                            000044
2SR. CAIXA, APOS O VENCIMENTO COBRAR 10% DE MULTA                                NAO RECEBER APOS 30 DIAS DO VENCIMENTO.                                                                                                                                                                                                         01082000000000000000108200000000000000       0090770900066125220375082015000045
100000000000000000000009077090006612500000000000000000000000010002100019288708201300000000002            2  01192887082025082000000003013420000000001N010820000000000000000000000000000000000000000000000000000000000000000100019288787844EMERSON LUIZ MARTINEZ PEREIRA           RUA MONTE CASTELO - 296 AP.74 - AVIACAO             11702720                                                            000047
2SR. CAIXA, APOS O VENCIMENTO COBRAR 10% DE MULTA                                NAO RECEBER APOS 30 DIAS DO VENCIMENTO.                                                                                                                                                                                                         01082000000000000000108200000000000000       0090770900066125192887082013000048
100000000000000000000009077090006612500000000000000000000000010002100027198408201700000000002            2  01271984082025082000000002552530000000001N010820000000000000000000000000000000000000000000000000000000000000000100027198452809CRISTIANE AURELIANO DA SILVA MAIA       RUA MONTE CASTELO - 262 AP.25 - AVIACAO             11702720                                                            000050
2SR. CAIXA, APOS O VENCIMENTO COBRAR 10% DE MULTA                                NAO RECEBER APOS 30 DIAS DO VENCIMENTO.                                                                                                                                                                                                         01082000000000000000108200000000000000       0090770900066125271984082017000051
100000000000000000000009077090006612500000000000000000000000010002100021246208201000000000002            2  01212462082025082000000003115120000000001N010820000000000000000000000000000000000000000000000000000000000000000100021246231840ALEXANDRO DA CUNHA MIGUES               RUA DULCE - 71  - VILA CARRAO - SAO PAUL            03427040                                                            000053
2SR. CAIXA, APOS O VENCIMENTO COBRAR 10% DE MULTA                                NAO RECEBER APOS 30 DIAS DO VENCIMENTO.                                                                                                                                                                                                         01082000000000000000108200000000000000       0090770900066125212462082010000054
100000000000000000000009077090006612500000000000000000000000010002100018470508201000000000002            2  01184705082025082000000004582790000000001N010820000000000000000000000000000000000000000000000000000000000000000100018470520881SILVANA ALVES DE OLIVEIRA               RUA MONTE CASTELO - 262 AP.91 - AVIACAO             11702720                                                            000056
2SR. CAIXA, APOS O VENCIMENTO COBRAR 10% DE MULTA                                NAO RECEBER APOS 30 DIAS DO VENCIMENTO.                                                                                                                                                                                                         01082000000000000000108200000000000000       0090770900066125184705082010000057
100000000000000000000009077090006612500000000000000000000000010002100009297508201000000000002            2  01092975082025082000000003190490000000001N010820000000000000000000000000000000000000000000000000000000000000000100009297523846MARCOS ROBERTO DE CASTRO FERREIRA       RUA MONTE CASTELO - 262 AP.105 - AVIACAO            11702720                                                            000059
2SR. CAIXA, APOS O VENCIMENTO COBRAR 10% DE MULTA                                NAO RECEBER APOS 30 DIAS DO VENCIMENTO.                                                                                                                                                                                                         01082000000000000000108200000000000000       0090770900066125092975082010000060
100000000000000000000009077090006612500000000000000000000000010002100001164108201P00000000002            2  01011641082025082000000003953740000000001N010820000000000000000000000000000000000000000000000000000000000000000100001164158864DAVID BLEY LACERDA                      RUA CONEGO ARAUJO MARCONDES - 188 - BAIR            02550080                                                            000062
2SR. CAIXA, APOS O VENCIMENTO COBRAR 10% DE MULTA                                NAO RECEBER APOS 30 DIAS DO VENCIMENTO.                                                                                                                                                                                                         01082000000000000000108200000000000000       009077090006612501164108201P000063
100000000000000000000009077090006612500000000000000000000000010002100031498008201300000000002            2  01314980082025082000000004805200000000001N010820000000000000000000000000000000000000000000000000000000000000000100031498008895POLIANE  SIBELE DA SILVA                PRACA GENERAL COSTA BARRETO - 56 AP.181             03325070                                                            000065
2SR. CAIXA, APOS O VENCIMENTO COBRAR 10% DE MULTA                                NAO RECEBER APOS 30 DIAS DO VENCIMENTO.                                                                                                                                                                                                         01082000000000000000108200000000000000       0090770900066125314980082013000066
100000000000000000000009077090006612500000000000000000000000010002100000588108201700000000002            2  01005881082025082000000002818340000000001N010820000000000000000000000000000000000000000000000000000000000000000100000588109860JOSE LIARTE GIANTE                      AVENIDA LUIZ GONZAGA DO AMARAL - 143 - J            09320630                                                            000068
2SR. CAIXA, APOS O VENCIMENTO COBRAR 10% DE MULTA                                NAO RECEBER APOS 30 DIAS DO VENCIMENTO.                                                                                                                                                                                                         01082000000000000000108200000000000000       0090770900066125005881082017000069
100000000000000000000009077090006612500000000000000000000000010002100014386808201P00000000002            2  01143868082025082000000002254560000000001N010820000000000000000000000000000000000000000000000000000000000000000100014386860134SEVERINO CARLOS DE OLIVEIRA             RUA MONTE CASTELO - 262 AP.54 - AVIACAO             11702720                                                            000071
2SR. CAIXA, APOS O VENCIMENTO COBRAR 10% DE MULTA                                NAO RECEBER APOS 30 DIAS DO VENCIMENTO.                                                                                                                                                                                                         01082000000000000000108200000000000000       009077090006612514386808201P000072
100000000000000000000009077090006612500000000000000000000000010002100039393708201500000000002            2  01393937082025082000000001553850000000001N010820000000000000000000000000000000000000000000000000000000000000000100039393790850NAIRON RICARDO DE ARAUJO SANTOS         RUA NITEROI - 267 CASA 04 - JARDIM INDEP            11380350                                                            000074
2SR. CAIXA, APOS O VENCIMENTO COBRAR 10% DE MULTA                                NAO RECEBER APOS 30 DIAS DO VENCIMENTO.                                                                                                                                                                                                         01082000000000000000108200000000000000       0090770900066125393937082015000075
100000000000000000000009077090006612500000000000000000000000010002100041896808201600000000002            2  01418968082025082000000002262940000000001N010820000000000000000000000000000000000000000000000000000000000000000100041896807968SERGIO ROBERTO DA SILVA                 RUA DOS INGLESES - 542 AP.61 - MORRO DOS            01329000                                                            000077
2SR. CAIXA, APOS O VENCIMENTO COBRAR 10% DE MULTA                                NAO RECEBER APOS 30 DIAS DO VENCIMENTO.                                                                                                                                                                                                         01082000000000000000108200000000000000       0090770900066125418968082016000078
100000000000000000000009077090006612500000000000000000000000010002100004735208201400000000002            2  01047352082025082000000001602840000000001N010820000000000000000000000000000000000000000000000000000000000000000100004735273832DARIO LUIZ GONCALVES                    RUA MONTE CASTELO - 295 AP.113 - AVIACAO            11702720                                                            000080
2SR. CAIXA, APOS O VENCIMENTO COBRAR 10% DE MULTA                                NAO RECEBER APOS 30 DIAS DO VENCIMENTO.                                                                                                                                                                                                         01082000000000000000108200000000000000       0090770900066125047352082014000081
9                                                                                                                                                                                                                                                                                                                                                                                                         000082