01REMESSA01COBRANCA       00000000000005331186HB SANTOS CONSTRUTORA E INCORP237BRADESCO       090124        MX0000089                                                                                                                                                                                                                                                                                     000001
100000000000000000000009033990000995400000000000000000000000010002020005723201241700000000002            2  01057232012423012400000003246410000000001N090124000000000000000000000000000000000000000000000000000000000000000100005723255843FRANCISCO DE ASSIS DA SILVA             PRACA NICOLAU GERAIGIRE - 25 VISOR - JAR            11095110                                                            000002
2SR. CAIXA, APOS O VENCIMENTO COBRAR 2% DE MULTA                                 NAO RECEBER APOS 30 DIAS DO VENCIMENTO.                                                                                                                                                                                                         09012400000000000000901240000000000000       0090339900009954057232012417000003
100000000000000000000009033990000995400000000000000000000000010002020032589101241000000000002            2  01325891012423012400000003071770000000001N090124000000000000000000000000000000000000000000000000000000000000000100032589165862RENATA ISABEL MARTINS SILVA             RUA HERCULANO DE FREITAS - 257 - FUNDACA            09520280                                                            000005
2SR. CAIXA, APOS O VENCIMENTO COBRAR 2% DE MULTA                                 NAO RECEBER APOS 30 DIAS DO VENCIMENTO.                                                                                                                                                                                                         09012400000000000000901240000000000000       0090339900009954325891012410000006
100000000000000000000009033990000995400000000000000000000000010002020046391201241P00000000002            2  01463912012423012400000003221130000000001N090124000000000000000000000000000000000000000000000000000000000000000100046391265810PAMELLA RODRIGUES DE OLIVEIRA           RUA AUGUSTA - 183 AP.301 BL.2A - VILA AU            07025130                                                            000008
2SR. CAIXA, APOS O VENCIMENTO COBRAR 2% DE MULTA                                 NAO RECEBER APOS 30 DIAS DO VENCIMENTO.                                                                                                                                                                                                         09012400000000000000901240000000000000       009033990000995446391201241P000009
100000000000000000000009033990000995400000000000000000000000010002020027964501241800000000002            2  01279645012423012400000003200460000000001N090124000000000000000000000000000000000000000000000000000000000000000100027964512838FABIO TADEU DE CAMPOS RADZIAVICIUS      RUA URUGUAI - 89 AP.94 - JARDIM GUILHERM            11702300                                                            000011
2SR. CAIXA, APOS O VENCIMENTO COBRAR 2% DE MULTA                                 NAO RECEBER APOS 30 DIAS DO VENCIMENTO.                                                                                                                                                                                                         09012400000000000000901240000000000000       0090339900009954279645012418000012
100000000000000000000009033990000995400000000000000000000000010002020011498301241600000000002            2  01114983012423012400000002397850000000001N090124000000000000000000000000000000000000000000000000000000000000000100011498329837GERSON GERALDO DAS NEVES                RUA DOMINGOS DELGADO - 144 - VILA SOUZA             02881070                                                            000014
2SR. CAIXA, APOS O VENCIMENTO COBRAR 2% DE MULTA                                 NAO RECEBER APOS 30 DIAS DO VENCIMENTO.                                                                                                                                                                                                         09012400000000000000901240000000000000       0090339900009954114983012416000015
100000000000000000000009033990000995400000000000000000000000010002020025214401241200000000002            2  01252144012423012400000002838310000000001N090124000000000000000000000000000000000000000000000000000000000000000100025214401833JOSE MAURICIO DOS SANTOS RODRIGUES      RUA JOAO DE MACEDO RIBEIRO - 49 - VILA N            08111101                                                            000017
2SR. CAIXA, APOS O VENCIMENTO COBRAR 2% DE MULTA                                 NAO RECEBER APOS 30 DIAS DO VENCIMENTO.                                                                                                                                                                                                         09012400000000000000901240000000000000       0090339900009954252144012412000018
100000000000000000000009033990000995400000000000000000000000010002020033119101241P00000000002            2  01331191012423012400000002850320000000001N090124000000000000000000000000000000000000000000000000000000000000000100033119178802HUGO GOMES VENDRAME                     RUA SAO PAULO - 60 CASA 01 - VILA FREITA            06380110                                                            000020
2SR. CAIXA, APOS O VENCIMENTO COBRAR 2% DE MULTA                                 NAO RECEBER APOS 30 DIAS DO VENCIMENTO.                                                                                                                                                                                                         09012400000000000000901240000000000000       009033990000995433119101241P000021
100000000000000000000009033990000995400000000000000000000000010002020016631501241200000000002            2  01166315012423012400000002900080000000001N090124000000000000000000000000000000000000000000000000000000000000000100016631587468GILBERTO BEZERRA DA SILVA               AVENIDA JAIME TORRES - 745 CASA 3 - JARD            03670000                                                            000023
2SR. CAIXA, APOS O VENCIMENTO COBRAR 2% DE MULTA                                 NAO RECEBER APOS 30 DIAS DO VENCIMENTO.                                                                                                                                                                                                         09012400000000000000901240000000000000       0090339900009954166315012412000024
100000000000000000000009033990000995400000000000000000000000010002020007313201241500000000002            2  01073132012423012400000002879480000000001N090124000000000000000000000000000000000000000000000000000000000000000100007313251840SALVADOR GESUALDO PULVIRENTI            AVENIDA MARARI - 641 - VILA MARARI - SAO            04402010                                                            000026
2SR. CAIXA, APOS O VENCIMENTO COBRAR 2% DE MULTA                                 NAO RECEBER APOS 30 DIAS DO VENCIMENTO.                                                                                                                                                                                                         09012400000000000000901240000000000000       0090339900009954073132012415000027
100000000000000000000009033990000995400000000000000000000000010002020010676701241700000000002            2  01106767012423012400000003005490000000001N090124000000000000000000000000000000000000000000000000000000000000000100010676723896MERCEDES CRISTINA ROCHA SANDOVAL        RUA URUGUAI - 89 AP.83 - JARDIM GUILHERM            11702300                                                            000029
2SR. CAIXA, APOS O VENCIMENTO COBRAR 2% DE MULTA                                 NAO RECEBER APOS 30 DIAS DO VENCIMENTO.                                                                                                                                                                                                         09012400000000000000901240000000000000       0090339900009954106767012417000030
100000000000000000000009033990000995400000000000000000000000010002020009502801241500000000002            2  01095028012423012400000003138730000000001N090124000000000000000000000000000000000000000000000000000000000000000100009502844831CLAUDIA ROCHA SANDOVAL                  RUA URUGUAI - 89 AP.64 - JARDIM GUILHERM            11702300                                                            000032
2SR. CAIXA, APOS O VENCIMENTO COBRAR 2% DE MULTA                                 NAO RECEBER APOS 30 DIAS DO VENCIMENTO.                                                                                                                                                                                                         09012400000000000000901240000000000000       0090339900009954095028012415000033
100000000000000000000009033990000995400000000000000000000000010002020007594201241400000000002            2  01075942012423012400000002817740000000001N090124000000000000000000000000000000000000000000000000000000000000000100007594247809JOSE LUIS DE OLIVEIRA                   DONA EGLANTINA PENTEADO DA SILVA PRADO -            13044162                                                            000035
2SR. CAIXA, APOS O VENCIMENTO COBRAR 2% DE MULTA                                 NAO RECEBER APOS 30 DIAS DO VENCIMENTO.                                                                                                                                                                                                         09012400000000000000901240000000000000       0090339900009954075942012414000036
100000000000000000000009033990000995400000000000000000000000010002020005288701241800000000002            2  01052887012423012400000002902560000000001N090124000000000000000000000000000000000000000000000000000000000000000100005288796858MARCELO RODRIGUES FERREIRA              RUA MARCOS ANTONIO MARQUES - 302 - JARDI            06433020                                                            000038
2SR. CAIXA, APOS O VENCIMENTO COBRAR 2% DE MULTA                                 NAO RECEBER APOS 30 DIAS DO VENCIMENTO.                                                                                                                                                                                                         09012400000000000000901240000000000000       0090339900009954052887012418000039
100000000000000000000009033990000995400000000000000000000000010002020015835901241700000000002            2  01158359012423012400000003022580000000001N090124000000000000000000000000000000000000000000000000000000000000000100015835992823FLAVIO VERONEZ                          RUA ANDREA PAULINETTI - 127 AP.42 - BAIR            04707050                                                            000041
2SR. CAIXA, APOS O VENCIMENTO COBRAR 2% DE MULTA                                 NAO RECEBER APOS 30 DIAS DO VENCIMENTO.                                                                                                                                                                                                         09012400000000000000901240000000000000       0090339900009954158359012417000042
100000000000000000000009033990000995400000000000000000000000010002020000438101241500000000002            2  01004381012423012400000003411660000000001N090124000000000000000000000000000000000000000000000000000000000000000100000438161858WAGNECY VILLA NOVA LIEN                 RUA PROFESSOR FERREIRA PAULINO - 233 AP.            07025020                                                            000044
2SR. CAIXA, APOS O VENCIMENTO COBRAR 2% DE MULTA                                 NAO RECEBER APOS 30 DIAS DO VENCIMENTO.                                                                                                                                                                                                         09012400000000000000901240000000000000       0090339900009954004381012415000045
100000000000000000000009033990000995400000000000000000000000010002020026004501241100000000002            2  01260045012423012400000003022620000000001N090124000000000000000000000000000000000000000000000000000000000000000100026004595888EDIVALDO BEZERRA DA SILVA               AVENIDA GUATEMALA - 550 - JARDIM PINHEIR            09854750                                                            000047
2SR. CAIXA, APOS O VENCIMENTO COBRAR 2% DE MULTA                                 NAO RECEBER APOS 30 DIAS DO VENCIMENTO.                                                                                                                                                                                                         09012400000000000000901240000000000000       0090339900009954260045012411000048
100000000000000000000009033990000995400000000000000000000000010002020012470701241600000000002            2  01124707012423012400000003224930000000001N090124000000000000000000000000000000000000000000000000000000000000000100012470771870HILTON FERNANDES OLIVARES               RUA PATIO DA ESTACAO - 115 - BAIRRO CENT            09450000                                                            000050
2SR. CAIXA, APOS O VENCIMENTO COBRAR 2% DE MULTA                                 NAO RECEBER APOS 30 DIAS DO VENCIMENTO.                                                                                                                                                                                                         09012400000000000000901240000000000000       0090339900009954124707012416000051
100000000000000000000009033990000995400000000000000000000000010002020014025401241500000000002            2  01140254012423012400000003536040000000001N090124000000000000000000000000000000000000000000000000000000000000000100014025420899ANDREIA APARECIDA TAVARES BASTOS        RUA IBATIBA - 234 CASA 27 - RES.BOUGANVI            09220608                                                            000053
2SR. CAIXA, APOS O VENCIMENTO COBRAR 2% DE MULTA                                 NAO RECEBER APOS 30 DIAS DO VENCIMENTO.                                                                                                                                                                                                         09012400000000000000901240000000000000       0090339900009954140254012415000054
100000000000000000000009033990000995400000000000000000000000010002020018590001241400000000002            2  01185900012423012400000003202410000000001N090124000000000000000000000000000000000000000000000000000000000000000100018590038858JOSE SANDRO ROCHA SILVA                 RUA SANTO ANTONIO DO AVENTUREIRO - 216 A            07143040                                                            000056
2SR. CAIXA, APOS O VENCIMENTO COBRAR 2% DE MULTA                                 NAO RECEBER APOS 30 DIAS DO VENCIMENTO.                                                                                                                                                                                                         09012400000000000000901240000000000000       0090339900009954185900012414000057
100000000000000000000009033990000995400000000000000000000000010002020088578701241200000000002            2  01885787012423012400000002635130000000001N090124000000000000000000000000000000000000000000000000000000000000000100088578704800GILBERTO DO ESPIRITO SANTO SILVA        RUA URUGUAI - 89 AP.23 - JARDIM GUILHERM            11702300                                                            000059
2SR. CAIXA, APOS O VENCIMENTO COBRAR 2% DE MULTA                                 NAO RECEBER APOS 30 DIAS DO VENCIMENTO.                                                                                                                                                                                                         09012400000000000000901240000000000000       0090339900009954885787012412000060
100000000000000000000009033990000995400000000000000000000000010002020020792701241P00000000002            2  01207927012423012400000003267280000000001N090124000000000000000000000000000000000000000000000000000000000000000120792791000147TROVAO COMERCIO DE ALIMENTOS LTDA-ME    RUA QUINTA DA MAGNOLIA - 67 - JARDIM IPA            03582100                                                            000062
2SR. CAIXA, APOS O VENCIMENTO COBRAR 2% DE MULTA                                 NAO RECEBER APOS 30 DIAS DO VENCIMENTO.                                                                                                                                                                                                         09012400000000000000901240000000000000       009033990000995420792701241P000063
100000000000000000000009033990000995400000000000000000000000010002020007648101241300000000002            2  01076481012423012400000003067970000000001N090124000000000000000000000000000000000000000000000000000000000000000100007648112825MARA REGINA CAPRIO                      RUA DA TRINDADE - 790 - VILA IDEAL - SAO            15060280                                                            000065
2SR. CAIXA, APOS O VENCIMENTO COBRAR 2% DE MULTA                                 NAO RECEBER APOS 30 DIAS DO VENCIMENTO.                                                                                                                                                                                                         09012400000000000000901240000000000000       0090339900009954076481012413000066
100000000000000000000009033990000995400000000000000000000000010002020031157401241200000000002            2  01311574012423012400000003294260000000001N090124000000000000000000000000000000000000000000000000000000000000000100031157420885TALITA ANICHIARICO COSSI                RUA CNEO POMPEO DE CAMARGO - 817 - JARDI            13060150                                                            000068
2SR. CAIXA, APOS O VENCIMENTO COBRAR 2% DE MULTA                                 NAO RECEBER APOS 30 DIAS DO VENCIMENTO.                                                                                                                                                                                                         09012400000000000000901240000000000000       0090339900009954311574012412000069
100000000000000000000009033990000995400000000000000000000000010002020035572501241700000000002            2  01355725012423012400000003502530000000001N090124000000000000000000000000000000000000000000000000000000000000000100035572536865MARIA SIMONE SANTOS                     RUA JOSE PEZZOLO - 68 - VILA ELDIZIA - S            09181660                                                            000071
2SR. CAIXA, APOS O VENCIMENTO COBRAR 2% DE MULTA                                 NAO RECEBER APOS 30 DIAS DO VENCIMENTO.                                                                                                                                                                                                         09012400000000000000901240000000000000       0090339900009954355725012417000072
100000000000000000000009033990000995400000000000000000000000010002020008800301241400000000002            2  01088003012423012400000003191280000000001N090124000000000000000000000000000000000000000000000000000000000000000100008800368425INGO DIMITRI PEREIRA DA NOBREGA         RUA PROFESSOR MENDES PIMENTEL - 362 - JA            03973010                                                            000074
2SR. CAIXA, APOS O VENCIMENTO COBRAR 2% DE MULTA                                 NAO RECEBER APOS 30 DIAS DO VENCIMENTO.                                                                                                                                                                                                         09012400000000000000901240000000000000       0090339900009954088003012414000075
100000000000000000000009033990000995400000000000000000000000010002020005054101241900000000002            2  01050541012423012400000003088340000000001N090124000000000000000000000000000000000000000000000000000000000000000100005054169806PAULO ROBERTO DE MATTOS                 JARDIM BOTANICO - 849 - DISTRITO DE SOUS            13106258                                                            000077
2SR. CAIXA, APOS O VENCIMENTO COBRAR 2% DE MULTA                                 NAO RECEBER APOS 30 DIAS DO VENCIMENTO.                                                                                                                                                                                                         09012400000000000000901240000000000000       0090339900009954050541012419000078
100000000000000000000009033990000995400000000000000000000000010002020007552101241500000000002            2  01075521012423012400000003088340000000001N090124000000000000000000000000000000000000000000000000000000000000000100007552151846MAURO BORDONI                           AVENIDA DR. AUGUSTO DE TOLEDO - 769 AP.6            09540080                                                            000080
2SR. CAIXA, APOS O VENCIMENTO COBRAR 2% DE MULTA                                 NAO RECEBER APOS 30 DIAS DO VENCIMENTO.                                                                                                                                                                                                         09012400000000000000901240000000000000       0090339900009954075521012415000081
100000000000000000000009033990000995400000000000000000000000010002020012744201241800000000002            2  01127442012423012400000003436240000000001N090124000000000000000000000000000000000000000000000000000000000000000100012744201804ADAIL JOSE DE SOUSA                     RUA ROSARIA - 303 - BAIRRO SACADURA CABR            09061080                                                            000083
2SR. CAIXA, APOS O VENCIMENTO COBRAR 2% DE MULTA                                 NAO RECEBER APOS 30 DIAS DO VENCIMENTO.                                                                                                                                                                                                         09012400000000000000901240000000000000       0090339900009954127442012418000084
100000000000000000000009033990000995400000000000000000000000010002020068320601241500000000002            2  01683206012423012400000012169380000000001N090124000000000000000000000000000000000000000000000000000000000000000100068320663849ANTONIO CAVALCANTE LIMA                 RUA AMAZONAS - 1188 - CENTRO - SAO CAETA            09540201                                                            000086
2SR. CAIXA, APOS O VENCIMENTO COBRAR 2% DE MULTA                                 NAO RECEBER APOS 30 DIAS DO VENCIMENTO.                                                                                                                                                                                                         09012400000000000000901240000000000000       0090339900009954683206012415000087
100000000000000000000009033990000995400000000000000000000000010002020088926201241700000000002            2  01889262012423012400000002556490000000001N090124000000000000000000000000000000000000000000000000000000000000000100088926230872VALDEMAR LATANCE FILHO                  RUA MELO PINTO DA SILVA - 111 CASA 103 -            18116265                                                            000089
2SR. CAIXA, APOS O VENCIMENTO COBRAR 2% DE MULTA                                 NAO RECEBER APOS 30 DIAS DO VENCIMENTO.                                                                                                                                                                                                         09012400000000000000901240000000000000       0090339900009954889262012417000090
100000000000000000000009033990000995400000000000000000000000010002020004195301241400000000002            2  01041953012423012400000003336640000000001N090124000000000000000000000000000000000000000000000000000000000000000100004195345804LUIZ CARLOS SILVESTRE                   RUA CONDE VICENTE AZEVEDO - 377 - BAIRRO            04264000                                                            000092
2SR. CAIXA, APOS O VENCIMENTO COBRAR 2% DE MULTA                                 NAO RECEBER APOS 30 DIAS DO VENCIMENTO.                                                                                                                                                                                                         09012400000000000000901240000000000000       0090339900009954041953012414000093
9                                                                                                                                                                                                                                                                                                                                                                                                         000094