01REMESSA01COBRANCA       00000000000004991781AIRES CONSTRUTORA E INCORPORAD237BRADESCO       100518        MX0000104                                                                                                                                                                                                                                                                                     000001
100000000000000000000009077090006612500000000000000000000000010002100001224505181700000000002            2  01012245051825051800000003383330000000001N100518000000000000000000000000000000000000000000000000000000000000000100001224509579REINALDO JUNIOR MARTINS DE ABREU        RUA JUSTINO NIGRO - 449 - INTERLAGOS - S            04815030                                                            000002
2SR. CAIXA, APOS O VENCIMENTO COBRAR 10% DE MULTA                                NAO RECEBER APOS 30 DIAS DO VENCIMENTO.                                                                                                                                                                                                         10051800000000000001005180000000000000       0090770900066125012245051817000003
100000000000000000000009077090006612500000000000000000000000010002100003325105181800000000002            2  01033251051825051800000003290520000000001N100518000000000000000000000000000000000000000000000000000000000000000100003325102808MARCOS DE OLIVEIRA JUNIOR               RUA LUIS NOVELLETO - 91 - PARQUE CONTINE            05324080                                                            000005
2SR. CAIXA, APOS O VENCIMENTO COBRAR 10% DE MULTA                                NAO RECEBER APOS 30 DIAS DO VENCIMENTO.                                                                                                                                                                                                         10051800000000000001005180000000000000       0090770900066125033251051818000006
100000000000000000000009077090006612500000000000000000000000010002100016338905181P00000000002            2  01163389051825051800000003338280000000001N100518000000000000000000000000000000000000000000000000000000000000000100016338929806EDVALDO DA SILVA ANDRADE                RUA ARIA - 434 - PARQUE ALVES DE LIMA -             04902170                                                            000008
2SR. CAIXA, APOS O VENCIMENTO COBRAR 10% DE MULTA                                NAO RECEBER APOS 30 DIAS DO VENCIMENTO.                                                                                                                                                                                                         10051800000000000001005180000000000000       009077090006612516338905181P000009
100000000000000000000009077090006612500000000000000000000000010002100026836905181P00000000002            2  01268369051825051800000003023040000000001N100518000000000000000000000000000000000000000000000000000000000000000100026836908860VANDERLEI FIGUEIREDO DE CARVALHO        RUA TUPI - 840 - VILA TUPI - PRAIA GRAND            11703260                                                            000011
2SR. CAIXA, APOS O VENCIMENTO COBRAR 10% DE MULTA                                NAO RECEBER APOS 30 DIAS DO VENCIMENTO.                                                                                                                                                                                                         10051800000000000001005180000000000000       009077090006612526836905181P000012
100000000000000000000009077090006612500000000000000000000000010002100059861505181600000000002            2  01598615051825051800000003357760000000001N100518000000000000000000000000000000000000000000000000000000000000000100059861576800REINALDO LOPES DE OLIVEIRA              RUA DA SERVIDAO - 40 - VILA ROSCHEL - SA            04891045                                                            000014
2SR. CAIXA, APOS O VENCIMENTO COBRAR 10% DE MULTA                                NAO RECEBER APOS 30 DIAS DO VENCIMENTO.                                                                                                                                                                                                         10051800000000000001005180000000000000       0090770900066125598615051816000015
100000000000000000000009077090006612500000000000000000000000010002100016330905181400000000002            2  01163309051825051800000003337430000000001N100518000000000000000000000000000000000000000000000000000000000000000100016330938830KARINA CORDEIRO PIASSA                  CONDE MOREIRA LIMA - 644 - JARDIM JABAQU            04384032                                                            000017
2SR. CAIXA, APOS O VENCIMENTO COBRAR 10% DE MULTA                                NAO RECEBER APOS 30 DIAS DO VENCIMENTO.                                                                                                                                                                                                         10051800000000000001005180000000000000       0090770900066125163309051814000018
100000000000000000000009077090006612500000000000000000000000010002100077027605181700000000002            2  01770276051825051800000003243720000000001N100518000000000000000000000000000000000000000000000000000000000000000100077027604868CLINEU LISSONI                          AVENIDA VILA EMA - 1100 AP.41 - VILA PRU            03156000                                                            000020
2SR. CAIXA, APOS O VENCIMENTO COBRAR 10% DE MULTA                                NAO RECEBER APOS 30 DIAS DO VENCIMENTO.                                                                                                                                                                                                         10051800000000000001005180000000000000       0090770900066125770276051817000021
100000000000000000000009077090006612500000000000000000000000010002100005627905181300000000002            2  01056279051825051800000003041130000000001N100518000000000000000000000000000000000000000000000000000000000000000100005627947861FERNANDO CESAR MARCELINO                RUA CASA FORTE - 46 AP.11 - AGUA FRIA -             02336040                                                            000023
2SR. CAIXA, APOS O VENCIMENTO COBRAR 10% DE MULTA                                NAO RECEBER APOS 30 DIAS DO VENCIMENTO.                                                                                                                                                                                                         10051800000000000001005180000000000000       0090770900066125056279051813000024
100000000000000000000009077090006612500000000000000000000000010002100029380705181400000000002            2  01293807051825051800000003023220000000001N100518000000000000000000000000000000000000000000000000000000000000000100029380708882EDUARDO MENDONCA DAMASCENO              RUA MONTE CASTELO - 296 AP.12 - AVIACAO             11702720                                                            000026
2SR. CAIXA, APOS O VENCIMENTO COBRAR 10% DE MULTA                                NAO RECEBER APOS 30 DIAS DO VENCIMENTO.                                                                                                                                                                                                         10051800000000000001005180000000000000       0090770900066125293807051814000027
100000000000000000000009077090006612500000000000000000000000010002100023988505181800000000002            2  01239885051825051800000003069740000000001N100518000000000000000000000000000000000000000000000000000000000000000100023988525634DALMY PIMENTA                           SAO CAETANO - 136 - VILA SAO VICENTE - U            38026220                                                            000029
2SR. CAIXA, APOS O VENCIMENTO COBRAR 10% DE MULTA                                NAO RECEBER APOS 30 DIAS DO VENCIMENTO.                                                                                                                                                                                                         10051800000000000001005180000000000000       0090770900066125239885051818000030
100000000000000000000009077090006612500000000000000000000000010002100004735205181P00000000002            2  01047352051825051800000003337620000000001N100518000000000000000000000000000000000000000000000000000000000000000100004735273832DARIO LUIZ GONCALVES                    RUA MONTE CASTELO - 295 AP.113 - AVIACAO            11702720                                                            000032
2SR. CAIXA, APOS O VENCIMENTO COBRAR 10% DE MULTA                                NAO RECEBER APOS 30 DIAS DO VENCIMENTO.                                                                                                                                                                                                         10051800000000000001005180000000000000       009077090006612504735205181P000033
100000000000000000000009077090006612500000000000000000000000010002100007635205181P00000000002            2  01076352051825051800000002984040000000001N100518000000000000000000000000000000000000000000000000000000000000000100007635293893SILVIO CARDOSO ZACARIAS                 RUA SOLIDONIO LEITE - 2718 AP.102 BLOCO             03275000                                                            000035
2SR. CAIXA, APOS O VENCIMENTO COBRAR 10% DE MULTA                                NAO RECEBER APOS 30 DIAS DO VENCIMENTO.                                                                                                                                                                                                         10051800000000000001005180000000000000       009077090006612507635205181P000036
100000000000000000000009077090006612500000000000000000000000010002100067192905181P00000000002            2  01671929051825051800000002921280000000001N100518000000000000000000000000000000000000000000000000000000000000000100067192920800SONIA MARIA RIBEIRO SUDO                RUA INGAZEIRA - 133 - SAO MIGUEL - SAO P            08032080                                                            000038
2SR. CAIXA, APOS O VENCIMENTO COBRAR 10% DE MULTA                                NAO RECEBER APOS 30 DIAS DO VENCIMENTO.                                                                                                                                                                                                         10051800000000000001005180000000000000       009077090006612567192905181P000039
100000000000000000000009077090006612500000000000000000000000010002100007975905181300000000002            2  01079759051825051800000003246470000000001N100518000000000000000000000000000000000000000000000000000000000000000100007975958808JOCY VIGNADO                            RUA PEDRO GONCALVES SOBRINHO - 568 - PAR            13098641                                                            000041
2SR. CAIXA, APOS O VENCIMENTO COBRAR 10% DE MULTA                                NAO RECEBER APOS 30 DIAS DO VENCIMENTO.                                                                                                                                                                                                         10051800000000000001005180000000000000       0090770900066125079759051813000042
100000000000000000000009077090006612500000000000000000000000010002100036712505181600000000002            2  01367125051825051800000003035580000000001N100518000000000000000000000000000000000000000000000000000000000000000100036712580803WALTER BARRETO DE ALMEIDA               RUA MONTE CASTELO - 296 AP.44 - AVIACAO             11702720                                                            000044
2SR. CAIXA, APOS O VENCIMENTO COBRAR 10% DE MULTA                                NAO RECEBER APOS 30 DIAS DO VENCIMENTO.                                                                                                                                                                                                         10051800000000000001005180000000000000       0090770900066125367125051816000045
100000000000000000000009077090006612500000000000000000000000010002100036386805181500000000002            2  01363868051825051800000003428770000000001N100518000000000000000000000000000000000000000000000000000000000000000100036386861833ALINE LEE WEI DE SOUZA                  AV. PRES.CASTELO BRANCO - 9127 AP.251 BL            11704600                                                            000047
2SR. CAIXA, APOS O VENCIMENTO COBRAR 10% DE MULTA                                NAO RECEBER APOS 30 DIAS DO VENCIMENTO.                                                                                                                                                                                                         10051800000000000001005180000000000000       0090770900066125363868051815000048
100000000000000000000009077090006612500000000000000000000000010002100026187905181P00000000002            2  01261879051825051800000003181780000000001N100518000000000000000000000000000000000000000000000000000000000000000100026187960807CARINA CANTACESSO DE SOUZA              RUA MONTE CASTELO - 296 AP.91 - AVIACAO             11702720                                                            000050
2SR. CAIXA, APOS O VENCIMENTO COBRAR 10% DE MULTA                                NAO RECEBER APOS 30 DIAS DO VENCIMENTO.                                                                                                                                                                                                         10051800000000000001005180000000000000       009077090006612526187905181P000051
100000000000000000000009077090006612500000000000000000000000010002100070465305181600000000002            2  01704653051825051800000003118900000000001N100518000000000000000000000000000000000000000000000000000000000000000100070465320953SIDNEY CARASKI                          RUA DR.CELSO PACHECO BENTIM - 502 - PARQ            03571020                                                            000053
2SR. CAIXA, APOS O VENCIMENTO COBRAR 10% DE MULTA                                NAO RECEBER APOS 30 DIAS DO VENCIMENTO.                                                                                                                                                                                                         10051800000000000001005180000000000000       0090770900066125704653051816000054
100000000000000000000009077090006612500000000000000000000000010002100075759405181100000000002            2  01757594051825051800000002442360000000001N100518000000000000000000000000000000000000000000000000000000000000000100075759446800VALTER MUTAFEI                          RUA MONTE CASTELO - 295 AP.54 - AVIACAO             11702720                                                            000056
2SR. CAIXA, APOS O VENCIMENTO COBRAR 10% DE MULTA                                NAO RECEBER APOS 30 DIAS DO VENCIMENTO.                                                                                                                                                                                                         10051800000000000001005180000000000000       0090770900066125757594051811000057
100000000000000000000009077090006612500000000000000000000000010002100070328705181P00000000002            2  01703287051825051800000003489530000000001N100518000000000000000000000000000000000000000000000000000000000000000100070328706868VALTER LIMA FERNANDES                   RUA DOMINGOS JORGE VELHO - 52 - CENTRO -            06843550                                                            000059
2SR. CAIXA, APOS O VENCIMENTO COBRAR 10% DE MULTA                                NAO RECEBER APOS 30 DIAS DO VENCIMENTO.                                                                                                                                                                                                         10051800000000000001005180000000000000       009077090006612570328705181P000060
100000000000000000000009077090006612500000000000000000000000010002100023132605181500000000002            2  01231326051825051800000001895480000000001N100518000000000000000000000000000000000000000000000000000000000000000100023132672882LEANDRO MORENO                          RUA MONTE CASTELO - 296 AP.64 - AVIACAO             11702720                                                            000062
2SR. CAIXA, APOS O VENCIMENTO COBRAR 10% DE MULTA                                NAO RECEBER APOS 30 DIAS DO VENCIMENTO.                                                                                                                                                                                                         10051800000000000001005180000000000000       0090770900066125231326051815000063
100000000000000000000009077090006612500000000000000000000000010002100099264605181400000000002            2  01992646051825051800000003232550000000001N100518000000000000000000000000000000000000000000000000000000000000000100099264692800LEONTINO PINHEIRO DA SILVA              AVENIDA JOAO BATISTA FITIPALDI - 469 - V            08685000                                                            000065
2SR. CAIXA, APOS O VENCIMENTO COBRAR 10% DE MULTA                                NAO RECEBER APOS 30 DIAS DO VENCIMENTO.                                                                                                                                                                                                         10051800000000000001005180000000000000       0090770900066125992646051814000066
100000000000000000000009077090006612500000000000000000000000010002100000666305181500000000002            2  01006663051825051800000003118500000000001N100518000000000000000000000000000000000000000000000000000000000000000100000666344825LUIZ HENRIQUE DE CAMPOS                 RUA JOAO CARLOS CAVALCANTI REIS - 21 - J            02281206                                                            000068
2SR. CAIXA, APOS O VENCIMENTO COBRAR 10% DE MULTA                                NAO RECEBER APOS 30 DIAS DO VENCIMENTO.                                                                                                                                                                                                         10051800000000000001005180000000000000       0090770900066125006663051815000069
100000000000000000000009077090006612500000000000000000000000010002100029155005181500000000002            2  01291550051825051800000003293270000000001N100518000000000000000000000000000000000000000000000000000000000000000100029155026842DANIELA YOSHIDA                         RUA MONTE CASTELO - 262 AP.34 - AVIACAO             11702720                                                            000071
2SR. CAIXA, APOS O VENCIMENTO COBRAR 10% DE MULTA                                NAO RECEBER APOS 30 DIAS DO VENCIMENTO.                                                                                                                                                                                                         10051800000000000001005180000000000000       0090770900066125291550051815000072
100000000000000000000009077090006612500000000000000000000000010002100001204405181900000000002            2  01012044051825051800000002681880000000001N100518000000000000000000000000000000000000000000000000000000000000000100001204431809CEZAR TALAVERA JUNIOR                   RUA MAESTRO ARTURO DE ANGELIS  - 190 AP.            05139010                                                            000074
2SR. CAIXA, APOS O VENCIMENTO COBRAR 10% DE MULTA                                NAO RECEBER APOS 30 DIAS DO VENCIMENTO.                                                                                                                                                                                                         10051800000000000001005180000000000000       0090770900066125012044051819000075
100000000000000000000009077090006612500000000000000000000000010002100004227505181800000000002            2  01042275051825051800000003476560000000001N100518000000000000000000000000000000000000000000000000000000000000000100004227553970ALESSANDRO ISRAEL GOULART               RUA PROFESSORA CARLINDA RIBEIRO - 21 - F            02866200                                                            000077
2SR. CAIXA, APOS O VENCIMENTO COBRAR 10% DE MULTA                                NAO RECEBER APOS 30 DIAS DO VENCIMENTO.                                                                                                                                                                                                         10051800000000000001005180000000000000       0090770900066125042275051818000078
100000000000000000000009077090006612500000000000000000000000010002100060811405181100000000002            2  01608114051825051800000003204050000000001N100518000000000000000000000000000000000000000000000000000000000000000100060811420868HELIO BASSI                             AV.PARIS,575 - PRACA ANTONIO FIGUEROA -             11700082                                                            000080
2SR. CAIXA, APOS O VENCIMENTO COBRAR 10% DE MULTA                                NAO RECEBER APOS 30 DIAS DO VENCIMENTO.                                                                                                                                                                                                         10051800000000000001005180000000000000       0090770900066125608114051811000081
100000000000000000000009077090006612500000000000000000000000010002100001024705181100000000002            2  01010247051825051800000003031880000000001N100518000000000000000000000000000000000000000000000000000000000000000100001024794881CLAUDIO RODRIGUES                       RUA ARACATUBA - 242 - LAPA - SAO PAULO -            05058010                                                            000083
2SR. CAIXA, APOS O VENCIMENTO COBRAR 10% DE MULTA                                NAO RECEBER APOS 30 DIAS DO VENCIMENTO.                                                                                                                                                                                                         10051800000000000001005180000000000000       0090770900066125010247051811000084
100000000000000000000009077090006612500000000000000000000000010002100002225005181200000000002            2  01022250051825051800000004648270000000001N100518000000000000000000000000000000000000000000000000000000000000000100002225072841PEDRO EDUARDO DE AZEVEDO                RUA NATH ZILMAN - 46 - JARDIM SAMAMBAIA             07600000                                                            000086
2SR. CAIXA, APOS O VENCIMENTO COBRAR 10% DE MULTA                                NAO RECEBER APOS 30 DIAS DO VENCIMENTO.                                                                                                                                                                                                         10051800000000000001005180000000000000       0090770900066125022250051812000087
100000000000000000000009077090006612500000000000000000000000010002100022037505181000000000002            2  01220375051825051800000003234690000000001N100518000000000000000000000000000000000000000000000000000000000000000100022037552882ANDREIA CRISTINA FERNANDES DANTAS       PCA CASTRO ALVES - 163 AP.33 - VILA SAO             13224299                                                            000089
2SR. CAIXA, APOS O VENCIMENTO COBRAR 10% DE MULTA                                NAO RECEBER APOS 30 DIAS DO VENCIMENTO.                                                                                                                                                                                                         10051800000000000001005180000000000000       0090770900066125220375051810000090
100000000000000000000009077090006612500000000000000000000000010002100019288705181900000000002            2  01192887051825051800000002633780000000001N100518000000000000000000000000000000000000000000000000000000000000000100019288787844EMERSON LUIZ MARTINEZ PEREIRA           RUA MONTE CASTELO - 296 AP.74 - AVIACAO             11702720                                                            000092
2SR. CAIXA, APOS O VENCIMENTO COBRAR 10% DE MULTA                                NAO RECEBER APOS 30 DIAS DO VENCIMENTO.                                                                                                                                                                                                         10051800000000000001005180000000000000       0090770900066125192887051819000093
100000000000000000000009077090006612500000000000000000000000010002100027198405181200000000002            2  01271984051825051800000002230950000000001N100518000000000000000000000000000000000000000000000000000000000000000100027198452809CRISTIANE AURELIANO DA SILVA MAIA       RUA MONTE CASTELO - 262 AP.25 - AVIACAO             11702720                                                            000095
2SR. CAIXA, APOS O VENCIMENTO COBRAR 10% DE MULTA                                NAO RECEBER APOS 30 DIAS DO VENCIMENTO.                                                                                                                                                                                                         10051800000000000001005180000000000000       0090770900066125271984051812000096
100000000000000000000009077090006612500000000000000000000000010002100021246205181600000000002            2  01212462051825051800000002722630000000001N100518000000000000000000000000000000000000000000000000000000000000000100021246231840ALEXANDRO DA CUNHA MIGUES               AVENIDA CONSELHEIRO CARRAO - 1861 CONJ.5            03403001                                                            000098
2SR. CAIXA, APOS O VENCIMENTO COBRAR 10% DE MULTA                                NAO RECEBER APOS 30 DIAS DO VENCIMENTO.                                                                                                                                                                                                         10051800000000000001005180000000000000       0090770900066125212462051816000099
100000000000000000000009077090006612500000000000000000000000010002100004864905181500000000002            2  01048649051825051800000001630160000000001N100518000000000000000000000000000000000000000000000000000000000000000100004864924600RENATO SANTACHIARA SALVADORI            RUA PENSYLVANIA - 116 - PAYSAGE BRISE -             06730000                                                            000101
2SR. CAIXA, APOS O VENCIMENTO COBRAR 10% DE MULTA                                NAO RECEBER APOS 30 DIAS DO VENCIMENTO.                                                                                                                                                                                                         10051800000000000001005180000000000000       0090770900066125048649051815000102
100000000000000000000009077090006612500000000000000000000000010002100018834205181400000000002            2  01188342051825051800000003180340000000001N100518000000000000000000000000000000000000000000000000000000000000000100018834257863ILTON FERNANDO MUTCHNIK                 RUA ASSUNGUI - 700 AP.222 - VILA GUMERCI            04131001                                                            000104
2SR. CAIXA, APOS O VENCIMENTO COBRAR 10% DE MULTA                                NAO RECEBER APOS 30 DIAS DO VENCIMENTO.                                                                                                                                                                                                         10051800000000000001005180000000000000       0090770900066125188342051814000105
100000000000000000000009077090006612500000000000000000000000010002100018470505181600000000002            2  01184705051825051800000004005380000000001N100518000000000000000000000000000000000000000000000000000000000000000100018470520881SILVANA ALVES DE OLIVEIRA               RUA MONTE CASTELO - 262 AP.91 - AVIACAO             11702720                                                            000107
2SR. CAIXA, APOS O VENCIMENTO COBRAR 10% DE MULTA                                NAO RECEBER APOS 30 DIAS DO VENCIMENTO.                                                                                                                                                                                                         10051800000000000001005180000000000000       0090770900066125184705051816000108
100000000000000000000009077090006612500000000000000000000000010002100009297505181600000000002            2  01092975051825051800000002788520000000001N100518000000000000000000000000000000000000000000000000000000000000000100009297523846MARCOS ROBERTO DE CASTRO FERREIRA       RUA MONTE CASTELO - 262 AP.105 - AVIACAO            11702720                                                            000110
2SR. CAIXA, APOS O VENCIMENTO COBRAR 10% DE MULTA                                NAO RECEBER APOS 30 DIAS DO VENCIMENTO.                                                                                                                                                                                                         10051800000000000001005180000000000000       0090770900066125092975051816000111
100000000000000000000009077090006612500000000000000000000000010002100001164105181500000000002            2  01011641051825051800000003455610000000001N100518000000000000000000000000000000000000000000000000000000000000000100001164158864DAVID BLEY LACERDA                      RUA CONEGO ARAUJO MARCONDES - 188 - BAIR            02550080                                                            000113
2SR. CAIXA, APOS O VENCIMENTO COBRAR 10% DE MULTA                                NAO RECEBER APOS 30 DIAS DO VENCIMENTO.                                                                                                                                                                                                         10051800000000000001005180000000000000       0090770900066125011641051815000114
100000000000000000000009077090006612500000000000000000000000010002100031498005181900000000002            2  01314980051825051800000004199790000000001N100518000000000000000000000000000000000000000000000000000000000000000100031498008895POLIANE  SIBELE DA SILVA                PRACA GENERAL COSTA BARRETO - 56 AP.181             03325070                                                            000116
2SR. CAIXA, APOS O VENCIMENTO COBRAR 10% DE MULTA                                NAO RECEBER APOS 30 DIAS DO VENCIMENTO.                                                                                                                                                                                                         10051800000000000001005180000000000000       0090770900066125314980051819000117
100000000000000000000009077090006612500000000000000000000000010002100000588105181200000000002            2  01005881051825051800000002463260000000001N100518000000000000000000000000000000000000000000000000000000000000000100000588109860JOSE LIARTE GIANTE                      AVENIDA LUIZ GONZAGA DO AMARAL - 143 - J            09320630                                                            000119
2SR. CAIXA, APOS O VENCIMENTO COBRAR 10% DE MULTA                                NAO RECEBER APOS 30 DIAS DO VENCIMENTO.                                                                                                                                                                                                         10051800000000000001005180000000000000       0090770900066125005881051812000120
100000000000000000000009077090006612500000000000000000000000010002100014386805181500000000002            2  01143868051825051800000001970510000000001N100518000000000000000000000000000000000000000000000000000000000000000100014386860134SEVERINO CARLOS DE OLIVEIRA             RUA MONTE CASTELO - 262 AP.54 - AVIACAO             11702720                                                            000122
2SR. CAIXA, APOS O VENCIMENTO COBRAR 10% DE MULTA                                NAO RECEBER APOS 30 DIAS DO VENCIMENTO.                                                                                                                                                                                                         10051800000000000001005180000000000000       0090770900066125143868051815000123
100000000000000000000009077090006612500000000000000000000000010002100029088205181200000000002            2  01290882051825051800000002190690000000001N100518000000000000000000000000000000000000000000000000000000000000000100029088221804FABIANO SPERANDEO                       RUA MONTE CASTELO - 296 AP.93 - AVIACAO             11702720                                                            000125
2SR. CAIXA, APOS O VENCIMENTO COBRAR 10% DE MULTA                                NAO RECEBER APOS 30 DIAS DO VENCIMENTO.                                                                                                                                                                                                         10051800000000000001005180000000000000       0090770900066125290882051812000126
100000000000000000000009077090006612500000000000000000000000010002100039393705181000000000002            2  01393937051825051800000001358080000000001N100518000000000000000000000000000000000000000000000000000000000000000100039393790850NAIRON RICARDO DE ARAUJO SANTOS         RUA MONTE CASTELO - 262 AP.23 - AVIACAO             11702720                                                            000128
2SR. CAIXA, APOS O VENCIMENTO COBRAR 10% DE MULTA                                NAO RECEBER APOS 30 DIAS DO VENCIMENTO.                                                                                                                                                                                                         10051800000000000001005180000000000000       0090770900066125393937051810000129
100000000000000000000009077090006612500000000000000000000000010002100039393705182900000000002            2  01393937051825051800000001358080000000001N100518000000000000000000000000000000000000000000000000000000000000000100039393790850NAIRON RICARDO DE ARAUJO SANTOS         RUA MONTE CASTELO - 262 AP.23 - AVIACAO             11702720                                                            000131
2SR. CAIXA, APOS O VENCIMENTO COBRAR 10% DE MULTA                                NAO RECEBER APOS 30 DIAS DO VENCIMENTO.                                                                                                                                                                                                         10051800000000000001005180000000000000       0090770900066125393937051829000132
100000000000000000000009077090006612500000000000000000000000010002100041896805181100000000002            2  01418968051825051800000001977830000000001N100518000000000000000000000000000000000000000000000000000000000000000100041896807968SERGIO ROBERTO DA SILVA                 RUA DOS INGLESES - 542 AP.61 - MORRO DOS            01329000                                                            000134
2SR. CAIXA, APOS O VENCIMENTO COBRAR 10% DE MULTA                                NAO RECEBER APOS 30 DIAS DO VENCIMENTO.                                                                                                                                                                                                         10051800000000000001005180000000000000       0090770900066125418968051811000135
100000000000000000000009077090006612500000000000000000000000010002100088137305181P00000000002            2  01881373051825051800000001793420000000001N100518000000000000000000000000000000000000000000000000000000000000000100088137384804ANA LUCIA DA SILVA                      RUA DOUTOR EPAMINONDAS BARRA - 147 - VIL            04438100                                                            000137
2SR. CAIXA, APOS O VENCIMENTO COBRAR 10% DE MULTA                                NAO RECEBER APOS 30 DIAS DO VENCIMENTO.                                                                                                                                                                                                         10051800000000000001005180000000000000       009077090006612588137305181P000138
9                                                                                                                                                                                                                                                                                                                                                                                                         000139