01REMESSA01COBRANCA       00000000000008017025HB SANTOS CONSTRUTORA E INCORP237BRADESCO       010723        MX0000180                                                                                                                                                                                                                                                                                     000001
100000000000000000000009033990000627000000000000000000000000010002020016479007231100000000002            2  01164790072309072300000005454230000000001N010723000000000000000000000000000000000000000000000000000000000000000100016479002806LOURDES PEREIRA DE QUEIROZ SECANECHIA   RUA PAULINO CURSI - 437 - CIDADE SAO MAT            03960060                                                            000002
2SR. CAIXA, APOS O VENCIMENTO COBRAR 2% DE MULTA                                 NAO RECEBER APOS 30 DIAS DO VENCIMENTO.                                                                                                                                                                                                         01072300000000000000107230000000000000       0090339900006270164790072311000003
100000000000000000000009033990000627000000000000000000000000010002020017229707232100000000002            2  01172297072309072300000004150620000000001N010723000000000000000000000000000000000000000000000000000000000000000100017229751802BERENICE VIEIRA KERSTING                RUA ATIBAIA - 17 AP.417 - BAIRRO IMPERAD            11707380                                                            000005
2SR. CAIXA, APOS O VENCIMENTO COBRAR 2% DE MULTA                                 NAO RECEBER APOS 30 DIAS DO VENCIMENTO.                                                                                                                                                                                                         01072300000000000000107230000000000000       0090339900006270172297072321000006
100000000000000000000009033990000627000000000000000000000000010002020009361407231900000000002            2  01093614072309072300000003959770000000001N010723000000000000000000000000000000000000000000000000000000000000000100009361471805JOSE BARBOSA DA SILVA                   RUA ALFREDO INACIO TRINDADE  - 60 AP.44             02344100                                                            000008
2SR. CAIXA, APOS O VENCIMENTO COBRAR 2% DE MULTA                                 NAO RECEBER APOS 30 DIAS DO VENCIMENTO.                                                                                                                                                                                                         01072300000000000000107230000000000000       0090339900006270093614072319000009
100000000000000000000009033990000627000000000000000000000000010002020012756907231200000000002            2  01127569072309072300000003418150000000001N010723000000000000000000000000000000000000000000000000000000000000000100012756959812ITAMAR JUVENAL DIAS DA SILVA            RUA ELISEU REINALDO MORAES VIEIRA - 90 A            02858000                                                            000011
2SR. CAIXA, APOS O VENCIMENTO COBRAR 2% DE MULTA                                 NAO RECEBER APOS 30 DIAS DO VENCIMENTO.                                                                                                                                                                                                         01072300000000000000107230000000000000       0090339900006270127569072312000012
100000000000000000000009033990000627000000000000000000000000010002020029433607231600000000002            2  01294336072311072300000002834190000000001N010723000000000000000000000000000000000000000000000000000000000000000100029433631897MARIO MUNIZ                             RUA JOSE CALIXTO DO CARMO - 286 AP.53 -             11702690                                                            000014
2SR. CAIXA, APOS O VENCIMENTO COBRAR 2% DE MULTA                                 NAO RECEBER APOS 30 DIAS DO VENCIMENTO.                                                                                                                                                                                                         01072300000000000000107230000000000000       0090339900006270294336072316000015
100000000000000000000009033990000627000000000000000000000000010002020005029807231900000000002            2  01050298072309072300000003485000000000001N010723000000000000000000000000000000000000000000000000000000000000000100005029828885LAURINETE DA CONCEICAO DE NORONHA       RUA MARIA LUCIA DE TOLEDO LEITE MORAES -            04434040                                                            000017
2SR. CAIXA, APOS O VENCIMENTO COBRAR 2% DE MULTA                                 NAO RECEBER APOS 30 DIAS DO VENCIMENTO.                                                                                                                                                                                                         01072300000000000000107230000000000000       0090339900006270050298072319000018
100000000000000000000009033990000627000000000000000000000000010002020013388907231000000000002            2  01133889072311072300000002762880000000001N010723000000000000000000000000000000000000000000000000000000000000000100013388936889NEUTON DE SOUZA RAMOS                   RUA JOSE CALIXTO DO CARMO - 286 AP.61 -             11702690                                                            000020
2SR. CAIXA, APOS O VENCIMENTO COBRAR 2% DE MULTA                                 NAO RECEBER APOS 30 DIAS DO VENCIMENTO.                                                                                                                                                                                                         01072300000000000000107230000000000000       0090339900006270133889072310000021
100000000000000000000009033990000627000000000000000000000000010002020012774907231000000000002            2  01127749072311072300000002814770000000001N010723000000000000000000000000000000000000000000000000000000000000000100012774906865JOSE MILTON SANTIAGO                    RUA BATATAIS - 47 - CIDADE ESTELA - POA             08563140                                                            000023
2SR. CAIXA, APOS O VENCIMENTO COBRAR 2% DE MULTA                                 NAO RECEBER APOS 30 DIAS DO VENCIMENTO.                                                                                                                                                                                                         01072300000000000000107230000000000000       0090339900006270127749072310000024
100000000000000000000009033990000627000000000000000000000000010002020005613807231000000000002            2  01056138072311072300000002588800000000001N010723000000000000000000000000000000000000000000000000000000000000000100005613843805NILZA MARIA DE OLIVEIRA                 RUA JOSE GONCALVES DE FREITAS - 66 C2 -             08210550                                                            000026
2SR. CAIXA, APOS O VENCIMENTO COBRAR 2% DE MULTA                                 NAO RECEBER APOS 30 DIAS DO VENCIMENTO.                                                                                                                                                                                                         01072300000000000000107230000000000000       0090339900006270056138072310000027
100000000000000000000009033990000627000000000000000000000000010002020007574907231000000000002            2  01075749072311072300000002657340000000001N010723000000000000000000000000000000000000000000000000000000000000000100007574936889JORGE LUCIANO PEREIRA BORRIELLO         RUA JOSE CALIXTO DO CARMO - 286 AP.54 -             11702690                                                            000029
2SR. CAIXA, APOS O VENCIMENTO COBRAR 2% DE MULTA                                 NAO RECEBER APOS 30 DIAS DO VENCIMENTO.                                                                                                                                                                                                         01072300000000000000107230000000000000       0090339900006270075749072310000030
100000000000000000000009033990000627000000000000000000000000010002020008214907231300000000002            2  01082149072311072300000002697660000000001N010723000000000000000000000000000000000000000000000000000000000000000100008214973830JAMIL CHALA                             RUA JOSE CALIXTO DO CARMO - 286 AP.22 -             11702690                                                            000032
2SR. CAIXA, APOS O VENCIMENTO COBRAR 2% DE MULTA                                 NAO RECEBER APOS 30 DIAS DO VENCIMENTO.                                                                                                                                                                                                         01072300000000000000107230000000000000       0090339900006270082149072313000033
100000000000000000000009033990000627000000000000000000000000010002020032495007231000000000002            2  01324950072311072300000003023080000000001N010723000000000000000000000000000000000000000000000000000000000000000100032495004881PAULO EDUARDO DOS SANTOS                RUA REPUBLICA DO IRAQUE - 1119 - CAMPO B            04611002                                                            000035
2SR. CAIXA, APOS O VENCIMENTO COBRAR 2% DE MULTA                                 NAO RECEBER APOS 30 DIAS DO VENCIMENTO.                                                                                                                                                                                                         01072300000000000000107230000000000000       0090339900006270324950072310000036
100000000000000000000009033990000627000000000000000000000000010002020016498007231800000000002            2  01164980072311072300000002651310000000001N010723000000000000000000000000000000000000000000000000000000000000000100016498053810GILMA CEZARIO GARCIA CORRITORI          RUA LAURENTINO XAVIER DOS SANTOS - 336 -            08240740                                                            000038
2SR. CAIXA, APOS O VENCIMENTO COBRAR 2% DE MULTA                                 NAO RECEBER APOS 30 DIAS DO VENCIMENTO.                                                                                                                                                                                                         01072300000000000000107230000000000000       0090339900006270164980072318000039
100000000000000000000009033990000627000000000000000000000000010002020029339007231700000000002            2  01293390072311072300000002835130000000001N010723000000000000000000000000000000000000000000000000000000000000000100029339051831RONALD DIDOFF                           RUA CORONEL FERREIRA BRAGA - 188 - VILA             03522010                                                            000041
2SR. CAIXA, APOS O VENCIMENTO COBRAR 2% DE MULTA                                 NAO RECEBER APOS 30 DIAS DO VENCIMENTO.                                                                                                                                                                                                         01072300000000000000107230000000000000       0090339900006270293390072317000042
100000000000000000000009033990000627000000000000000000000000010002020017357807231900000000002            2  01173578072311072300000003002650000000001N010723000000000000000000000000000000000000000000000000000000000000000100017357859894MARCIO GUIMARAES                        RUA GENERAL CAMARA - 188 SALA 11 - CENTR            11010120                                                            000044
2SR. CAIXA, APOS O VENCIMENTO COBRAR 2% DE MULTA                                 NAO RECEBER APOS 30 DIAS DO VENCIMENTO.                                                                                                                                                                                                         01072300000000000000107230000000000000       0090339900006270173578072319000045
100000000000000000000009033990000627000000000000000000000000010002020010563007231900000000002            2  01105630072311072300000003079410000000001N010723000000000000000000000000000000000000000000000000000000000000000100010563033878VERA LUCIA RIBEIRO LONGANEZI            RUA DOS CAMARES - 150 AP.24 BL.02 - CARA            02068030                                                            000047
2SR. CAIXA, APOS O VENCIMENTO COBRAR 2% DE MULTA                                 NAO RECEBER APOS 30 DIAS DO VENCIMENTO.                                                                                                                                                                                                         01072300000000000000107230000000000000       0090339900006270105630072319000048
100000000000000000000009033990000627000000000000000000000000010002020005529607231300000000002            2  01055296072311072300000002794450000000001N010723000000000000000000000000000000000000000000000000000000000000000100005529616801JOAQUIM JORGE DA COSTA                  RUA JOSE CALIXTO DO CARMO - 286 AP.106 -            11702690                                                            000050
2SR. CAIXA, APOS O VENCIMENTO COBRAR 2% DE MULTA                                 NAO RECEBER APOS 30 DIAS DO VENCIMENTO.                                                                                                                                                                                                         01072300000000000000107230000000000000       0090339900006270055296072313000051
100000000000000000000009033990000627000000000000000000000000010002020015550707231P00000000002            2  01155507072309072300000002641630000000001N010723000000000000000000000000000000000000000000000000000000000000000100015550706806MARY MIWA                               RUA CARLOS JOSE BORSTENS - 50 AP.105 - A            11702750                                                            000053
2SR. CAIXA, APOS O VENCIMENTO COBRAR 2% DE MULTA                                 NAO RECEBER APOS 30 DIAS DO VENCIMENTO.                                                                                                                                                                                                         01072300000000000000107230000000000000       009033990000627015550707231P000054
100000000000000000000009033990000627000000000000000000000000010002020015464607231P00000000002            2  01154646072311072300000002937640000000001N010723000000000000000000000000000000000000000000000000000000000000000100015464647864SONIA TERESA VOLPATO                    RUA JOSE CALIXTO DO CARMO - 286 AP.73 -             11702690                                                            000056
2SR. CAIXA, APOS O VENCIMENTO COBRAR 2% DE MULTA                                 NAO RECEBER APOS 30 DIAS DO VENCIMENTO.                                                                                                                                                                                                         01072300000000000000107230000000000000       009033990000627015464607231P000057
100000000000000000000009033990000627000000000000000000000000010002020008657807231900000000002            2  01086578072311072300000002908150000000001N010723000000000000000000000000000000000000000000000000000000000000000100008657886855ARLINDO DA CRUZ                         AVENIDA ARICANDUVA - 8.256 AP.54 BL.10 -            03951220                                                            000059
2SR. CAIXA, APOS O VENCIMENTO COBRAR 2% DE MULTA                                 NAO RECEBER APOS 30 DIAS DO VENCIMENTO.                                                                                                                                                                                                         01072300000000000000107230000000000000       0090339900006270086578072319000060
100000000000000000000009033990000627000000000000000000000000010002020059735107231700000000002            2  01597351072309072300000001644060000000001N010723000000000000000000000000000000000000000000000000000000000000000100059735180863HELIO JOSE MARQUES                      RUA MARTIM AFONSO DE SOUZA - 1007 AP.102            11702790                                                            000062
2SR. CAIXA, APOS O VENCIMENTO COBRAR 2% DE MULTA                                 NAO RECEBER APOS 30 DIAS DO VENCIMENTO.                                                                                                                                                                                                         01072300000000000000107230000000000000       0090339900006270597351072317000063
100000000000000000000009033990000627000000000000000000000000010002020026347807231000000000002            2  01263478072311072300000003108720000000001N010723000000000000000000000000000000000000000000000000000000000000000100026347872862VALDECI SILVA MEIRELES                  RUA JOSE BATISTA DA SILVA - 292 - JARDIM            06851470                                                            000065
2SR. CAIXA, APOS O VENCIMENTO COBRAR 2% DE MULTA                                 NAO RECEBER APOS 30 DIAS DO VENCIMENTO.                                                                                                                                                                                                         01072300000000000000107230000000000000       0090339900006270263478072310000066
100000000000000000000009033990000627000000000000000000000000010002020013135207231100000000002            2  01131352072311072300000002856110000000001N010723000000000000000000000000000000000000000000000000000000000000000100013135261859EDUARDO ZANOLA                          RUA ROLANDO PIETRO BONINI - 46 - JARDIM             09781040                                                            000068
2SR. CAIXA, APOS O VENCIMENTO COBRAR 2% DE MULTA                                 NAO RECEBER APOS 30 DIAS DO VENCIMENTO.                                                                                                                                                                                                         01072300000000000000107230000000000000       0090339900006270131352072311000069
100000000000000000000009033990000627000000000000000000000000010002020009797607231200000000002            2  01097976072311072300000002781540000000001N010723000000000000000000000000000000000000000000000000000000000000000100009797626857RICARDO SOBRAL DE OLIVEIRA              RUA 23 DE MAIO - 139 AP.32 - VILA MIRIM             11704690                                                            000071
2SR. CAIXA, APOS O VENCIMENTO COBRAR 2% DE MULTA                                 NAO RECEBER APOS 30 DIAS DO VENCIMENTO.                                                                                                                                                                                                         01072300000000000000107230000000000000       0090339900006270097976072312000072
100000000000000000000009033990000627000000000000000000000000010002020022728407231300000000002            2  01227284072311072300000003009850000000001N010723000000000000000000000000000000000000000000000000000000000000000100022728497842WILLIAN DE SOUZA MELLO                  RUA JOSE CALIXTO DO CARMO - 286 AP.111 -            11702690                                                            000074
2SR. CAIXA, APOS O VENCIMENTO COBRAR 2% DE MULTA                                 NAO RECEBER APOS 30 DIAS DO VENCIMENTO.                                                                                                                                                                                                         01072300000000000000107230000000000000       0090339900006270227284072313000075
100000000000000000000009033990000627000000000000000000000000010002020016909707231800000000002            2  01169097072311072300000002659750000000001N010723000000000000000000000000000000000000000000000000000000000000000100016909746805EDIVALDO SANTANA DOS SANTOS             ESTRADA JOAO GASPAR DELGADO - 80 AP.213             08536100                                                            000077
2SR. CAIXA, APOS O VENCIMENTO COBRAR 2% DE MULTA                                 NAO RECEBER APOS 30 DIAS DO VENCIMENTO.                                                                                                                                                                                                         01072300000000000000107230000000000000       0090339900006270169097072318000078
100000000000000000000009033990000627000000000000000000000000010002020022036007231500000000002            2  01220360072309072300000004129560000000001N010723000000000000000000000000000000000000000000000000000000000000000100022036003818DERLIS TERAN QUIROGA ROGATO             RUA JOAO RIBEIRO - 320 AP.131SB - CAMPES            09070250                                                            000080
2SR. CAIXA, APOS O VENCIMENTO COBRAR 2% DE MULTA                                 NAO RECEBER APOS 30 DIAS DO VENCIMENTO.                                                                                                                                                                                                         01072300000000000000107230000000000000       0090339900006270220360072315000081
100000000000000000000009033990000627000000000000000000000000010002020017229707233P00000000002            2  01172297072309072300000003985390000000001N010723000000000000000000000000000000000000000000000000000000000000000100017229751802BERENICE VIEIRA KERSTING                RUA ATIBAIA - 17 AP.417 - BAIRRO IMPERAD            11707380                                                            000083
2SR. CAIXA, APOS O VENCIMENTO COBRAR 2% DE MULTA                                 NAO RECEBER APOS 30 DIAS DO VENCIMENTO.                                                                                                                                                                                                         01072300000000000000107230000000000000       009033990000627017229707233P000084
100000000000000000000009033990000627000000000000000000000000010002020033451607231600000000002            2  01334516072311072300000002407540000000001N010723000000000000000000000000000000000000000000000000000000000000000100033451620839ARAO ELISIARIO  NUNES                   RUA JOSE CALIXTO DO CARMO - 286 AP.64 -             11702690                                                            000086
2SR. CAIXA, APOS O VENCIMENTO COBRAR 2% DE MULTA                                 NAO RECEBER APOS 30 DIAS DO VENCIMENTO.                                                                                                                                                                                                         01072300000000000000107230000000000000       0090339900006270334516072316000087
100000000000000000000009033990000627000000000000000000000000010002020011369107231400000000002            2  01113691072311072300000002629940000000001N010723000000000000000000000000000000000000000000000000000000000000000100011369165803ELIANA CORREA DE OLIVEIRA               RUA MAESTRO ZEFERINO SANTANA - 65 - VILA            18040010                                                            000089
2SR. CAIXA, APOS O VENCIMENTO COBRAR 2% DE MULTA                                 NAO RECEBER APOS 30 DIAS DO VENCIMENTO.                                                                                                                                                                                                         01072300000000000000107230000000000000       0090339900006270113691072314000090
100000000000000000000009033990000627000000000000000000000000010002020002253807231800000000002            2  01022538072311072300000002337490000000001N010723000000000000000000000000000000000000000000000000000000000000000100002253816809EDMILSON ALVES DA SILVA                 RUA JOSE CALIXTO DO CARMO - 286 AP.93 -             11702690                                                            000092
2SR. CAIXA, APOS O VENCIMENTO COBRAR 2% DE MULTA                                 NAO RECEBER APOS 30 DIAS DO VENCIMENTO.                                                                                                                                                                                                         01072300000000000000107230000000000000       0090339900006270022538072318000093
100000000000000000000009033990000627000000000000000000000000010002020037947007231P00000000002            2  01379470072311072300000004151550000000001N010723000000000000000000000000000000000000000000000000000000000000000100037947070873BRUNO DE CAETANO MARRINHAS              AVENIDA GENERAL BARRETO DE MENEZES - 323            09791150                                                            000095
2SR. CAIXA, APOS O VENCIMENTO COBRAR 2% DE MULTA                                 NAO RECEBER APOS 30 DIAS DO VENCIMENTO.                                                                                                                                                                                                         01072300000000000000107230000000000000       009033990000627037947007231P000096
100000000000000000000009033990000627000000000000000000000000010002020037517707231800000000002            2  01375177072309072300000004380060000000001N010723000000000000000000000000000000000000000000000000000000000000000100037517785869RENATO JOSE DE LIMA MELO                RUA ARISTIDES LOBO - 148 AP.41 BLOCO 03             03041100                                                            000098
2SR. CAIXA, APOS O VENCIMENTO COBRAR 2% DE MULTA                                 NAO RECEBER APOS 30 DIAS DO VENCIMENTO.                                                                                                                                                                                                         01072300000000000000107230000000000000       0090339900006270375177072318000099
100000000000000000000009033990000627000000000000000000000000010002020070367907231900000000002            2  01703679072311072300000002195060000000001N010723000000000000000000000000000000000000000000000000000000000000000100070367949849TEODOMIRO ALVES DOS SANTOS              RUA ANDRE PAZ - 13 - JARDIM SANTO ANDRE             08390230                                                            000101
2SR. CAIXA, APOS O VENCIMENTO COBRAR 2% DE MULTA                                 NAO RECEBER APOS 30 DIAS DO VENCIMENTO.                                                                                                                                                                                                         01072300000000000000107230000000000000       0090339900006270703679072319000102
100000000000000000000009033990000627000000000000000000000000010002020004410807231800000000002            2  01044108072309072300000003254430000000001N010723000000000000000000000000000000000000000000000000000000000000000100004410802860LUIZ ALBERTO MARINHO                    RUA DA INDEPENDENCIA - 706 AP.41B - CAMB            01524000                                                            000104
2SR. CAIXA, APOS O VENCIMENTO COBRAR 2% DE MULTA                                 NAO RECEBER APOS 30 DIAS DO VENCIMENTO.                                                                                                                                                                                                         01072300000000000000107230000000000000       0090339900006270044108072318000105
100000000000000000000009033990000627000000000000000000000000010002020004767607231300000000002            2  01047676072309072300000004344560000000001N010723000000000000000000000000000000000000000000000000000000000000000100004767679893ORLANDO GRANDE FILHO                    RUA ORLANDO MIGLIARI - 101 - JARDIM OURO            19906140                                                            000107
2SR. CAIXA, APOS O VENCIMENTO COBRAR 2% DE MULTA                                 NAO RECEBER APOS 30 DIAS DO VENCIMENTO.                                                                                                                                                                                                         01072300000000000000107230000000000000       0090339900006270047676072313000108
100000000000000000000009033990000627000000000000000000000000010002020064677807231900000000002            2  01646778072309072300000003494870000000001N010723000000000000000000000000000000000000000000000000000000000000000100064677850887ANTONIO CARLOS DE OLIVEIRA              RUA DR.ANTONIO MAZILLI FILHO - 435 - PAR            02230070                                                            000110
2SR. CAIXA, APOS O VENCIMENTO COBRAR 2% DE MULTA                                 NAO RECEBER APOS 30 DIAS DO VENCIMENTO.                                                                                                                                                                                                         01072300000000000000107230000000000000       0090339900006270646778072319000111
100000000000000000000009033990000627000000000000000000000000010002020028082607231300000000002            2  01280826072311072300000002437040000000001N010723000000000000000000000000000000000000000000000000000000000000000100028082615869PRISCILA PEREIRA                        ALAMEDA AFONSO BOCCHIGLIERI - 184 - INTE            04445130                                                            000113
2SR. CAIXA, APOS O VENCIMENTO COBRAR 2% DE MULTA                                 NAO RECEBER APOS 30 DIAS DO VENCIMENTO.                                                                                                                                                                                                         01072300000000000000107230000000000000       0090339900006270280826072313000114
100000000000000000000009033990000627000000000000000000000000010002020058488607231100000000002            2  01584886072309072300000003187600000000001N010723000000000000000000000000000000000000000000000000000000000000000100058488618972ADAILTON ZANUTTO MORESCHI               R:RAPHAEL UNGARO - COND.RESERVA SERRA Q.            13212138                                                            000116
2SR. CAIXA, APOS O VENCIMENTO COBRAR 2% DE MULTA                                 NAO RECEBER APOS 30 DIAS DO VENCIMENTO.                                                                                                                                                                                                         01072300000000000000107230000000000000       0090339900006270584886072311000117
100000000000000000000009033990000627000000000000000000000000010002020002196007231600000000002            2  01021960072311072300000002397240000000001N010723000000000000000000000000000000000000000000000000000000000000000100002196012831VILEFORT DIAS BORGES                    RUA PORTO XAVIER - 189 AP.64 - VILA CARM            08210170                                                            000119
2SR. CAIXA, APOS O VENCIMENTO COBRAR 2% DE MULTA                                 NAO RECEBER APOS 30 DIAS DO VENCIMENTO.                                                                                                                                                                                                         01072300000000000000107230000000000000       0090339900006270021960072316000120
100000000000000000000009033990000627000000000000000000000000010002020031861507231400000000002            2  01318615072311072300000002491640000000001N010723000000000000000000000000000000000000000000000000000000000000000100031861586809VANIA TOMAZ                              -  -  -  -                                         00000000                                                            000122
2SR. CAIXA, APOS O VENCIMENTO COBRAR 2% DE MULTA                                 NAO RECEBER APOS 30 DIAS DO VENCIMENTO.                                                                                                                                                                                                         01072300000000000000107230000000000000       0090339900006270318615072314000123
100000000000000000000009033990000627000000000000000000000000010002020003104507231800000000002            2  01031045072309072300000009278980000000001N010723000000000000000000000000000000000000000000000000000000000000000100003104580804NELSON RODRIGUES                        RUA CARLOS JOSE BORSTENS - 50 AP.81 - AV            11702750                                                            000125
2SR. CAIXA, APOS O VENCIMENTO COBRAR 2% DE MULTA                                 NAO RECEBER APOS 30 DIAS DO VENCIMENTO.                                                                                                                                                                                                         01072300000000000000107230000000000000       0090339900006270031045072318000126
100000000000000000000009033990000627000000000000000000000000010002020007715307231600000000002            2  01077153072309072300000003920370000000001N010723000000000000000000000000000000000000000000000000000000000000000100007715360627NILTON RENNAN OLIVEIRA GOMES FILHO      RUA CARLOS JOSE BORSTENS - 50 AP.21 - AV            11702750                                                            000128
2SR. CAIXA, APOS O VENCIMENTO COBRAR 2% DE MULTA                                 NAO RECEBER APOS 30 DIAS DO VENCIMENTO.                                                                                                                                                                                                         01072300000000000000107230000000000000       0090339900006270077153072316000129
100000000000000000000009033990000627000000000000000000000000010002020007194007231700000000002            2  01071940072311072300000002786270000000001N010723000000000000000000000000000000000000000000000000000000000000000100007194010895RAUL AMANTINO KIRK DE SANCTIS           AVENIDA SANTA CATARINA - 756 AP.01 - VIL            04378000                                                            000131
2SR. CAIXA, APOS O VENCIMENTO COBRAR 2% DE MULTA                                 NAO RECEBER APOS 30 DIAS DO VENCIMENTO.                                                                                                                                                                                                         01072300000000000000107230000000000000       0090339900006270071940072317000132
100000000000000000000009033990000627000000000000000000000000010002020025738607231400000000002            2  01257386072309072300000005630500000000001N010723000000000000000000000000000000000000000000000000000000000000000100025738614810VILMAR JOSE PEREIRA                     ALAMEDA TIETE - 646 - CERQUEIRA CESAR -             01417020                                                            000134
2SR. CAIXA, APOS O VENCIMENTO COBRAR 2% DE MULTA                                 NAO RECEBER APOS 30 DIAS DO VENCIMENTO.                                                                                                                                                                                                         01072300000000000000107230000000000000       0090339900006270257386072314000135
100000000000000000000009033990000627000000000000000000000000010002020025738607232200000000002            2  01257386072309072300000005630470000000001N010723000000000000000000000000000000000000000000000000000000000000000100025738614810VILMAR JOSE PEREIRA                     ALAMEDA TIETE - 646 - CERQUEIRA CESAR -             01417020                                                            000137
2SR. CAIXA, APOS O VENCIMENTO COBRAR 2% DE MULTA                                 NAO RECEBER APOS 30 DIAS DO VENCIMENTO.                                                                                                                                                                                                         01072300000000000000107230000000000000       0090339900006270257386072322000138
100000000000000000000009033990000627000000000000000000000000010002020025738607233000000000002            2  01257386072309072300000005630480000000001N010723000000000000000000000000000000000000000000000000000000000000000100025738614810VILMAR JOSE PEREIRA                     ALAMEDA TIETE - 646 - CERQUEIRA CESAR -             01417020                                                            000140
2SR. CAIXA, APOS O VENCIMENTO COBRAR 2% DE MULTA                                 NAO RECEBER APOS 30 DIAS DO VENCIMENTO.                                                                                                                                                                                                         01072300000000000000107230000000000000       0090339900006270257386072330000141
100000000000000000000009033990000627000000000000000000000000010002020025738607234900000000002            2  01257386072309072300000005630490000000001N010723000000000000000000000000000000000000000000000000000000000000000100025738614810VILMAR JOSE PEREIRA                     ALAMEDA TIETE - 646 - CERQUEIRA CESAR -             01417020                                                            000143
2SR. CAIXA, APOS O VENCIMENTO COBRAR 2% DE MULTA                                 NAO RECEBER APOS 30 DIAS DO VENCIMENTO.                                                                                                                                                                                                         01072300000000000000107230000000000000       0090339900006270257386072349000144
100000000000000000000009033990000627000000000000000000000000010002020011141507231600000000002            2  01111415072311072300000002927870000000001N010723000000000000000000000000000000000000000000000000000000000000000100011141508869PAULO ROBERTO TUNES SILVA               RUA PETROBRAS - 405 CASA 07 - VILA ANTON            03474060                                                            000146
2SR. CAIXA, APOS O VENCIMENTO COBRAR 2% DE MULTA                                 NAO RECEBER APOS 30 DIAS DO VENCIMENTO.                                                                                                                                                                                                         01072300000000000000107230000000000000       0090339900006270111415072316000147
100000000000000000000009033990000627000000000000000000000000010002020012449107231100000000002            2  01124491072311072300000002950210000000001N010723000000000000000000000000000000000000000000000000000000000000000100012449104810GILBERTO DOS SANTOS JUNIOR              RUA ALMIRANTE TAMANDARE - 89 AP.143 - BA            09310350                                                            000149
2SR. CAIXA, APOS O VENCIMENTO COBRAR 2% DE MULTA                                 NAO RECEBER APOS 30 DIAS DO VENCIMENTO.                                                                                                                                                                                                         01072300000000000000107230000000000000       0090339900006270124491072311000150
100000000000000000000009033990000627000000000000000000000000010002020011261307231P00000000002            2  01112613072309072300000003892310000000001N010723000000000000000000000000000000000000000000000000000000000000000100011261359844JOVANETE DOS SANTOS PASSOS              RUA FULVIO MORGANTI - 672 - JARDIM PARAI            02417170                                                            000152
2SR. CAIXA, APOS O VENCIMENTO COBRAR 2% DE MULTA                                 NAO RECEBER APOS 30 DIAS DO VENCIMENTO.                                                                                                                                                                                                         01072300000000000000107230000000000000       009033990000627011261307231P000153
100000000000000000000009033990000627000000000000000000000000010002020036279307231900000000002            2  01362793072309072300000003460010000000001N010723000000000000000000000000000000000000000000000000000000000000000100036279398838BRUNO DOCINI ORTEGA                     RUA GENERAL EUCLIDES FIGUEIREDO - 146 AP            11700780                                                            000155
2SR. CAIXA, APOS O VENCIMENTO COBRAR 2% DE MULTA                                 NAO RECEBER APOS 30 DIAS DO VENCIMENTO.                                                                                                                                                                                                         01072300000000000000107230000000000000       0090339900006270362793072319000156
100000000000000000000009033990000627000000000000000000000000010002020008475107231900000000002            2  01084751072309072300000003899540000000001N010723000000000000000000000000000000000000000000000000000000000000000100008475110819HELENA ROSA DOS SANTOS                  AVENIDA ZELIA - 278 CASA 02 - PARQUE DOS            06436000                                                            000158
2SR. CAIXA, APOS O VENCIMENTO COBRAR 2% DE MULTA                                 NAO RECEBER APOS 30 DIAS DO VENCIMENTO.                                                                                                                                                                                                         01072300000000000000107230000000000000       0090339900006270084751072319000159
100000000000000000000009033990000627000000000000000000000000010002020001098207231800000000002            2  01010982072309072300000004263970000000001N010723000000000000000000000000000000000000000000000000000000000000000100001098222857JANDIRA DOS SANTOS PASSOS               RUA FULVIO MORGANTI - 672 - JARDIM PARAI            02417170                                                            000161
2SR. CAIXA, APOS O VENCIMENTO COBRAR 2% DE MULTA                                 NAO RECEBER APOS 30 DIAS DO VENCIMENTO.                                                                                                                                                                                                         01072300000000000000107230000000000000       0090339900006270010982072318000162
9                                                                                                                                                                                                                                                                                                                                                                                                         000163