01REMESSA01COBRANCA       00000000000004991781AIRES CONSTRUTORA E INCORPORAD237BRADESCO       120319        MX0000116                                                                                                                                                                                                                                                                                     000001
100000000000000000000009077090006612500000000000000000000000010002100001224503191300000000002            2  01012245031925031900000003556360000000001N110319000000000000000000000000000000000000000000000000000000000000000100001224509579REINALDO JUNIOR MARTINS DE ABREU        AVENIDA INTERLAGOS - 7.224 - INTERLAGOS             04777000                                                            000002
2SR. CAIXA, APOS O VENCIMENTO COBRAR 10% DE MULTA                                NAO RECEBER APOS 30 DIAS DO VENCIMENTO.                                                                                                                                                                                                         12031900000000000001203190000000000000       0090770900066125012245031913000003
100000000000000000000009077090006612500000000000000000000000010002100016338903191600000000002            2  01163389031925031900000003508990000000001N110319000000000000000000000000000000000000000000000000000000000000000100016338929806EDVALDO DA SILVA ANDRADE                RUA ARIA - 434 - PARQUE ALVES DE LIMA -             04902170                                                            000005
2SR. CAIXA, APOS O VENCIMENTO COBRAR 10% DE MULTA                                NAO RECEBER APOS 30 DIAS DO VENCIMENTO.                                                                                                                                                                                                         12031900000000000001203190000000000000       0090770900066125163389031916000006
100000000000000000000009077090006612500000000000000000000000010002100026836903191600000000002            2  01268369031925031900000003177640000000001N110319000000000000000000000000000000000000000000000000000000000000000100026836908860VANDERLEI FIGUEIREDO DE CARVALHO        RUA TUPI - 840 - VILA TUPI - PRAIA GRAND            11703260                                                            000008
2SR. CAIXA, APOS O VENCIMENTO COBRAR 10% DE MULTA                                NAO RECEBER APOS 30 DIAS DO VENCIMENTO.                                                                                                                                                                                                         12031900000000000001203190000000000000       0090770900066125268369031916000009
100000000000000000000009077090006612500000000000000000000000010002100059861503191200000000002            2  01598615031925031900000003529480000000001N110319000000000000000000000000000000000000000000000000000000000000000100059861576800REINALDO LOPES DE OLIVEIRA              RUA DA SERVIDAO - 40 - VILA ROSCHEL - SA            04891045                                                            000011
2SR. CAIXA, APOS O VENCIMENTO COBRAR 10% DE MULTA                                NAO RECEBER APOS 30 DIAS DO VENCIMENTO.                                                                                                                                                                                                         12031900000000000001203190000000000000       0090770900066125598615031912000012
100000000000000000000009077090006612500000000000000000000000010002100016330903191000000000002            2  01163309031925031900000003508100000000001N110319000000000000000000000000000000000000000000000000000000000000000100016330938830KARINA CORDEIRO PIASSA                  CONDE MOREIRA LIMA - 644 - JARDIM JABAQU            04384032                                                            000014
2SR. CAIXA, APOS O VENCIMENTO COBRAR 10% DE MULTA                                NAO RECEBER APOS 30 DIAS DO VENCIMENTO.                                                                                                                                                                                                         12031900000000000001203190000000000000       0090770900066125163309031910000015
100000000000000000000009077090006612500000000000000000000000010002100077027603191300000000002            2  01770276031925031900000003409600000000001N110319000000000000000000000000000000000000000000000000000000000000000100077027604868CLINEU LISSONI                          AVENIDA VILA EMA - 1100 AP.41 - VILA PRU            03156000                                                            000017
2SR. CAIXA, APOS O VENCIMENTO COBRAR 10% DE MULTA                                NAO RECEBER APOS 30 DIAS DO VENCIMENTO.                                                                                                                                                                                                         12031900000000000001203190000000000000       0090770900066125770276031913000018
100000000000000000000009077090006612500000000000000000000000010002100029380703191000000000002            2  01293807031925031900000003177830000000001N110319000000000000000000000000000000000000000000000000000000000000000100029380708882EDUARDO MENDONCA DAMASCENO              RUA MONTE CASTELO - 296 AP.12 - AVIACAO             11702720                                                            000020
2SR. CAIXA, APOS O VENCIMENTO COBRAR 10% DE MULTA                                NAO RECEBER APOS 30 DIAS DO VENCIMENTO.                                                                                                                                                                                                         12031900000000000001203190000000000000       0090770900066125293807031910000021
100000000000000000000009077090006612500000000000000000000000010002100023988503191400000000002            2  01239885031925031900000003226730000000001N110319000000000000000000000000000000000000000000000000000000000000000100023988525634DALMY PIMENTA                           SAO CAETANO - 136 - VILA SAO VICENTE - U            38026220                                                            000023
2SR. CAIXA, APOS O VENCIMENTO COBRAR 10% DE MULTA                                NAO RECEBER APOS 30 DIAS DO VENCIMENTO.                                                                                                                                                                                                         12031900000000000001203190000000000000       0090770900066125239885031914000024
100000000000000000000009077090006612500000000000000000000000010002100004735203191600000000002            2  01047352031925031900000003508310000000001N110319000000000000000000000000000000000000000000000000000000000000000100004735273832DARIO LUIZ GONCALVES                    RUA MONTE CASTELO - 295 AP.113 - AVIACAO            11702720                                                            000026
2SR. CAIXA, APOS O VENCIMENTO COBRAR 10% DE MULTA                                NAO RECEBER APOS 30 DIAS DO VENCIMENTO.                                                                                                                                                                                                         12031900000000000001203190000000000000       0090770900066125047352031916000027
100000000000000000000009077090006612500000000000000000000000010002100007635203191600000000002            2  01076352031925031900000003136650000000001N110319000000000000000000000000000000000000000000000000000000000000000100007635293893SILVIO CARDOSO ZACARIAS                 RUA SOLIDONIO LEITE - 2718 AP.102 BLOCO             03275000                                                            000029
2SR. CAIXA, APOS O VENCIMENTO COBRAR 10% DE MULTA                                NAO RECEBER APOS 30 DIAS DO VENCIMENTO.                                                                                                                                                                                                         12031900000000000001203190000000000000       0090770900066125076352031916000030
100000000000000000000009077090006612500000000000000000000000010002100067192903191600000000002            2  01671929031925031900000003070690000000001N110319000000000000000000000000000000000000000000000000000000000000000100067192920800SONIA MARIA RIBEIRO SUDO                RUA INGAZEIRA - 133 - SAO MIGUEL - SAO P            08032080                                                            000032
2SR. CAIXA, APOS O VENCIMENTO COBRAR 10% DE MULTA                                NAO RECEBER APOS 30 DIAS DO VENCIMENTO.                                                                                                                                                                                                         12031900000000000001203190000000000000       0090770900066125671929031916000033
100000000000000000000009077090006612500000000000000000000000010002100007975903191P00000000002            2  01079759031925031900000003412500000000001N110319000000000000000000000000000000000000000000000000000000000000000100007975958808JOCY VIGNADO                            RUA PEDRO GONCALVES SOBRINHO - 568 - PAR            13098641                                                            000035
2SR. CAIXA, APOS O VENCIMENTO COBRAR 10% DE MULTA                                NAO RECEBER APOS 30 DIAS DO VENCIMENTO.                                                                                                                                                                                                         12031900000000000001203190000000000000       009077090006612507975903191P000036
100000000000000000000009077090006612500000000000000000000000010002100036712503191200000000002            2  01367125031925031900000003190820000000001N110319000000000000000000000000000000000000000000000000000000000000000100036712580803WALTER BARRETO DE ALMEIDA               RUA MONTE CASTELO - 296 AP.44 - AVIACAO             11702720                                                            000038
2SR. CAIXA, APOS O VENCIMENTO COBRAR 10% DE MULTA                                NAO RECEBER APOS 30 DIAS DO VENCIMENTO.                                                                                                                                                                                                         12031900000000000001203190000000000000       0090770900066125367125031912000039
100000000000000000000009077090006612500000000000000000000000010002100036386803191100000000002            2  01363868031925031900000003604110000000001N110319000000000000000000000000000000000000000000000000000000000000000100036386861833ALINE LEE WEI DE SOUZA                  AV. PRES.CASTELO BRANCO - 9127 AP.251 BL            11704600                                                            000041
2SR. CAIXA, APOS O VENCIMENTO COBRAR 10% DE MULTA                                NAO RECEBER APOS 30 DIAS DO VENCIMENTO.                                                                                                                                                                                                         12031900000000000001203190000000000000       0090770900066125363868031911000042
100000000000000000000009077090006612500000000000000000000000010002100070465303191200000000002            2  01704653031925031900000003278400000000001N110319000000000000000000000000000000000000000000000000000000000000000100070465320953SIDNEY CARASKI                          RUA DR.CELSO PACHECO BENTIM - 502 - PARQ            03571020                                                            000044
2SR. CAIXA, APOS O VENCIMENTO COBRAR 10% DE MULTA                                NAO RECEBER APOS 30 DIAS DO VENCIMENTO.                                                                                                                                                                                                         12031900000000000001203190000000000000       0090770900066125704653031912000045
100000000000000000000009077090006612500000000000000000000000010002100075759403191800000000002            2  01757594031925031900000002567260000000001N110319000000000000000000000000000000000000000000000000000000000000000100075759446800VALTER MUTAFEI                          RUA MONTE CASTELO - 295 AP.54 - AVIACAO             11702720                                                            000047
2SR. CAIXA, APOS O VENCIMENTO COBRAR 10% DE MULTA                                NAO RECEBER APOS 30 DIAS DO VENCIMENTO.                                                                                                                                                                                                         12031900000000000001203190000000000000       0090770900066125757594031918000048
100000000000000000000009077090006612500000000000000000000000010002100070328703191600000000002            2  01703287031925031900000003667990000000001N110319000000000000000000000000000000000000000000000000000000000000000100070328706868VALTER LIMA FERNANDES                   RUA DOMINGOS JORGE VELHO - 52 - CENTRO -            06843550                                                            000050
2SR. CAIXA, APOS O VENCIMENTO COBRAR 10% DE MULTA                                NAO RECEBER APOS 30 DIAS DO VENCIMENTO.                                                                                                                                                                                                         12031900000000000001203190000000000000       0090770900066125703287031916000051
100000000000000000000009077090006612500000000000000000000000010002100023132603191100000000002            2  01231326031925031900000001992410000000001N110319000000000000000000000000000000000000000000000000000000000000000100023132672882LEANDRO MORENO                          RUA MONTE CASTELO - 296 AP.64 - AVIACAO             11702720                                                            000053
2SR. CAIXA, APOS O VENCIMENTO COBRAR 10% DE MULTA                                NAO RECEBER APOS 30 DIAS DO VENCIMENTO.                                                                                                                                                                                                         12031900000000000001203190000000000000       0090770900066125231326031911000054
100000000000000000000009077090006612500000000000000000000000010002100099264603191000000000002            2  01992646031925031900000003397850000000001N110319000000000000000000000000000000000000000000000000000000000000000100099264692800LEONTINO PINHEIRO DA SILVA              AVENIDA JOAO BATISTA FITIPALDI - 469 - V            08685000                                                            000056
2SR. CAIXA, APOS O VENCIMENTO COBRAR 10% DE MULTA                                NAO RECEBER APOS 30 DIAS DO VENCIMENTO.                                                                                                                                                                                                         12031900000000000001203190000000000000       0090770900066125992646031910000057
100000000000000000000009077090006612500000000000000000000000010002100000666303191100000000002            2  01006663031925031900000003278000000000001N110319000000000000000000000000000000000000000000000000000000000000000100000666344825LUIZ HENRIQUE DE CAMPOS                 RUA JOAO CARLOS CAVALCANTI REIS - 21 - J            02281206                                                            000059
2SR. CAIXA, APOS O VENCIMENTO COBRAR 10% DE MULTA                                NAO RECEBER APOS 30 DIAS DO VENCIMENTO.                                                                                                                                                                                                         12031900000000000001203190000000000000       0090770900066125006663031911000060
100000000000000000000009077090006612500000000000000000000000010002100001204403191500000000002            2  01012044031925031900000002819050000000001N110319000000000000000000000000000000000000000000000000000000000000000100001204431809CEZAR TALAVERA JUNIOR                   RUA MAESTRO ARTURO DE ANGELIS  - 190 AP.            05139010                                                            000062
2SR. CAIXA, APOS O VENCIMENTO COBRAR 10% DE MULTA                                NAO RECEBER APOS 30 DIAS DO VENCIMENTO.                                                                                                                                                                                                         12031900000000000001203190000000000000       0090770900066125012044031915000063
100000000000000000000009077090006612500000000000000000000000010002100004227503191400000000002            2  01042275031925031900000003654340000000001N110319000000000000000000000000000000000000000000000000000000000000000100004227553970ALESSANDRO ISRAEL GOULART               RUA PROFESSORA CARLINDA RIBEIRO - 21 - F            02866200                                                            000065
2SR. CAIXA, APOS O VENCIMENTO COBRAR 10% DE MULTA                                NAO RECEBER APOS 30 DIAS DO VENCIMENTO.                                                                                                                                                                                                         12031900000000000001203190000000000000       0090770900066125042275031914000066
100000000000000000000009077090006612500000000000000000000000010002100060811403191800000000002            2  01608114031925031900000003367900000000001N110319000000000000000000000000000000000000000000000000000000000000000100060811420868HELIO BASSI                             AV.PARIS,575 - PRACA ANTONIO FIGUEROA -             11700082                                                            000068
2SR. CAIXA, APOS O VENCIMENTO COBRAR 10% DE MULTA                                NAO RECEBER APOS 30 DIAS DO VENCIMENTO.                                                                                                                                                                                                         12031900000000000001203190000000000000       0090770900066125608114031918000069
100000000000000000000009077090006612500000000000000000000000010002100001024703191800000000002            2  01010247031925031900000003186940000000001N110319000000000000000000000000000000000000000000000000000000000000000100001024794881CLAUDIO RODRIGUES                       RUA ARACATUBA - 242 - LAPA - SAO PAULO -            05058010                                                            000071
2SR. CAIXA, APOS O VENCIMENTO COBRAR 10% DE MULTA                                NAO RECEBER APOS 30 DIAS DO VENCIMENTO.                                                                                                                                                                                                         12031900000000000001203190000000000000       0090770900066125010247031918000072
100000000000000000000009077090006612500000000000000000000000010002100002225003191900000000002            2  01022250031925031900000004885990000000001N110319000000000000000000000000000000000000000000000000000000000000000100002225072841PEDRO EDUARDO DE AZEVEDO                RUA NATH ZILMAN - 46 - JARDIM SAMAMBAIA             07600000                                                            000074
2SR. CAIXA, APOS O VENCIMENTO COBRAR 10% DE MULTA                                NAO RECEBER APOS 30 DIAS DO VENCIMENTO.                                                                                                                                                                                                         12031900000000000001203190000000000000       0090770900066125022250031919000075
100000000000000000000009077090006612500000000000000000000000010002100022037503191700000000002            2  01220375031925031900000003400110000000001N110319000000000000000000000000000000000000000000000000000000000000000100022037552882ANDREIA CRISTINA FERNANDES DANTAS       PCA CASTRO ALVES - 163 AP.33 - VILA SAO             13224299                                                            000077
2SR. CAIXA, APOS O VENCIMENTO COBRAR 10% DE MULTA                                NAO RECEBER APOS 30 DIAS DO VENCIMENTO.                                                                                                                                                                                                         12031900000000000001203190000000000000       0090770900066125220375031917000078
100000000000000000000009077090006612500000000000000000000000010002100019288703191500000000002            2  01192887031925031900000002768460000000001N110319000000000000000000000000000000000000000000000000000000000000000100019288787844EMERSON LUIZ MARTINEZ PEREIRA           RUA MONTE CASTELO - 296 AP.74 - AVIACAO             11702720                                                            000080
2SR. CAIXA, APOS O VENCIMENTO COBRAR 10% DE MULTA                                NAO RECEBER APOS 30 DIAS DO VENCIMENTO.                                                                                                                                                                                                         12031900000000000001203190000000000000       0090770900066125192887031915000081
100000000000000000000009077090006612500000000000000000000000010002100027198403191900000000002            2  01271984031925031900000002345040000000001N110319000000000000000000000000000000000000000000000000000000000000000100027198452809CRISTIANE AURELIANO DA SILVA MAIA       RUA MONTE CASTELO - 262 AP.25 - AVIACAO             11702720                                                            000083
2SR. CAIXA, APOS O VENCIMENTO COBRAR 10% DE MULTA                                NAO RECEBER APOS 30 DIAS DO VENCIMENTO.                                                                                                                                                                                                         12031900000000000001203190000000000000       0090770900066125271984031919000084
100000000000000000000009077090006612500000000000000000000000010002100021246203191200000000002            2  01212462031925031900000002861880000000001N110319000000000000000000000000000000000000000000000000000000000000000100021246231840ALEXANDRO DA CUNHA MIGUES               AVENIDA CONSELHEIRO CARRAO - 1861 CONJ.5            03403001                                                            000086
2SR. CAIXA, APOS O VENCIMENTO COBRAR 10% DE MULTA                                NAO RECEBER APOS 30 DIAS DO VENCIMENTO.                                                                                                                                                                                                         12031900000000000001203190000000000000       0090770900066125212462031912000087
100000000000000000000009077090006612500000000000000000000000010002100018834203191000000000002            2  01188342031925031900000003342970000000001N110319000000000000000000000000000000000000000000000000000000000000000100018834257863ILTON FERNANDO MUTCHNIK                 RUA ASSUNGUI - 700 AP.222 - VILA GUMERCI            04131001                                                            000089
2SR. CAIXA, APOS O VENCIMENTO COBRAR 10% DE MULTA                                NAO RECEBER APOS 30 DIAS DO VENCIMENTO.                                                                                                                                                                                                         12031900000000000001203190000000000000       0090770900066125188342031910000090
100000000000000000000009077090006612500000000000000000000000010002100018470503191200000000002            2  01184705031925031900000004210230000000001N110319000000000000000000000000000000000000000000000000000000000000000100018470520881SILVANA ALVES DE OLIVEIRA               RUA MONTE CASTELO - 262 AP.91 - AVIACAO             11702720                                                            000092
2SR. CAIXA, APOS O VENCIMENTO COBRAR 10% DE MULTA                                NAO RECEBER APOS 30 DIAS DO VENCIMENTO.                                                                                                                                                                                                         12031900000000000001203190000000000000       0090770900066125184705031912000093
100000000000000000000009077090006612500000000000000000000000010002100009297503191200000000002            2  01092975031925031900000002931110000000001N110319000000000000000000000000000000000000000000000000000000000000000100009297523846MARCOS ROBERTO DE CASTRO FERREIRA       RUA MONTE CASTELO - 262 AP.105 - AVIACAO            11702720                                                            000095
2SR. CAIXA, APOS O VENCIMENTO COBRAR 10% DE MULTA                                NAO RECEBER APOS 30 DIAS DO VENCIMENTO.                                                                                                                                                                                                         12031900000000000001203190000000000000       0090770900066125092975031912000096
100000000000000000000009077090006612500000000000000000000000010002100001164103191100000000002            2  01011641031925031900000003632320000000001N110319000000000000000000000000000000000000000000000000000000000000000100001164158864DAVID BLEY LACERDA                      RUA CONEGO ARAUJO MARCONDES - 188 - BAIR            02550080                                                            000098
2SR. CAIXA, APOS O VENCIMENTO COBRAR 10% DE MULTA                                NAO RECEBER APOS 30 DIAS DO VENCIMENTO.                                                                                                                                                                                                         12031900000000000001203190000000000000       0090770900066125011641031911000099
100000000000000000000009077090006612500000000000000000000000010002100031498003191500000000002            2  01314980031925031900000004414570000000001N110319000000000000000000000000000000000000000000000000000000000000000100031498008895POLIANE  SIBELE DA SILVA                PRACA GENERAL COSTA BARRETO - 56 AP.181             03325070                                                            000101
2SR. CAIXA, APOS O VENCIMENTO COBRAR 10% DE MULTA                                NAO RECEBER APOS 30 DIAS DO VENCIMENTO.                                                                                                                                                                                                         12031900000000000001203190000000000000       0090770900066125314980031915000102
100000000000000000000009077090006612500000000000000000000000010002100000588103191900000000002            2  01005881031925031900000002589230000000001N110319000000000000000000000000000000000000000000000000000000000000000100000588109860JOSE LIARTE GIANTE                      AVENIDA LUIZ GONZAGA DO AMARAL - 143 - J            09320630                                                            000104
2SR. CAIXA, APOS O VENCIMENTO COBRAR 10% DE MULTA                                NAO RECEBER APOS 30 DIAS DO VENCIMENTO.                                                                                                                                                                                                         12031900000000000001203190000000000000       0090770900066125005881031919000105
100000000000000000000009077090006612500000000000000000000000010002100014386803191100000000002            2  01143868031925031900000002071260000000001N110319000000000000000000000000000000000000000000000000000000000000000100014386860134SEVERINO CARLOS DE OLIVEIRA             RUA MONTE CASTELO - 262 AP.54 - AVIACAO             11702720                                                            000107
2SR. CAIXA, APOS O VENCIMENTO COBRAR 10% DE MULTA                                NAO RECEBER APOS 30 DIAS DO VENCIMENTO.                                                                                                                                                                                                         12031900000000000001203190000000000000       0090770900066125143868031911000108
100000000000000000000009077090006612500000000000000000000000010002100029088203191900000000002            2  01290882031925031900000002302720000000001N110319000000000000000000000000000000000000000000000000000000000000000100029088221804FABIANO SPERANDEO                       RUA MONTE CASTELO - 296 AP.93 - AVIACAO             11702720                                                            000110
2SR. CAIXA, APOS O VENCIMENTO COBRAR 10% DE MULTA                                NAO RECEBER APOS 30 DIAS DO VENCIMENTO.                                                                                                                                                                                                         12031900000000000001203190000000000000       0090770900066125290882031919000111
100000000000000000000009077090006612500000000000000000000000010002100039393703191700000000002            2  01393937031925031900000001427530000000001N110319000000000000000000000000000000000000000000000000000000000000000100039393790850NAIRON RICARDO DE ARAUJO SANTOS         RUA MONTE CASTELO - 262 AP.23 - AVIACAO             11702720                                                            000113
2SR. CAIXA, APOS O VENCIMENTO COBRAR 10% DE MULTA                                NAO RECEBER APOS 30 DIAS DO VENCIMENTO.                                                                                                                                                                                                         12031900000000000001203190000000000000       0090770900066125393937031917000114
100000000000000000000009077090006612500000000000000000000000010002100041896803191800000000002            2  01418968031925031900000002078980000000001N110319000000000000000000000000000000000000000000000000000000000000000100041896807968SERGIO ROBERTO DA SILVA                 RUA DOS INGLESES - 542 AP.61 - MORRO DOS            01329000                                                            000116
2SR. CAIXA, APOS O VENCIMENTO COBRAR 10% DE MULTA                                NAO RECEBER APOS 30 DIAS DO VENCIMENTO.                                                                                                                                                                                                         12031900000000000001203190000000000000       0090770900066125418968031918000117
9                                                                                                                                                                                                                                                                                                                                                                                                         000118