01REMESSA01COBRANCA       00000000000008017025HB SANTOS CONSTRUTORA E INCORP237BRADESCO       011021        MX0000138                                                                                                                                                                                                                                                                                     000001
100000000000000000000009033990000627000000000000000000000000010002020025738610212400000000002            2  01257386102109102100000004687310000000001N011021000000000000000000000000000000000000000000000000000000000000000100025738614810VILMAR JOSE PEREIRA                     ALAMEDA TIETE - 646 - CERQUEIRA CESAR -             01417020                                                            000002
2SR. CAIXA, APOS O VENCIMENTO COBRAR 2% DE MULTA                                 NAO RECEBER APOS 30 DIAS DO VENCIMENTO.                                                                                                                                                                                                         01102100000000000000110210000000000000       0090339900006270257386102124000003
9                                                                                                                                                                                                                                                                                                                                                                                                         000004