01REMESSA01COBRANCA       00000000000004991454AIRES CONSTRUTORA E INCORPORAD237BRADESCO       101219        MX0000088                                                                                                                                                                                                                                                                                     000001
100000000000000000000009077090001674800000000000000000000000010002100001224512191200000000002            2  01012245121925121900000003719630000000001N091219000000000000000000000000000000000000000000000000000000000000000100001224509579REINALDO JUNIOR MARTINS DE ABREU        AVENIDA INTERLAGOS - 7.224 - INTERLAGOS             04777000                                                            000002
2SR. CAIXA, APOS O VENCIMENTO COBRAR 10% DE MULTA                                NAO RECEBER APOS 30 DIAS DO VENCIMENTO.                                                                                                                                                                                                         10121900000000000001012190000000000000       0090770900016748012245121912000003
100000000000000000000009077090001674800000000000000000000000010002100016338912191500000000002            2  01163389121925121900000003670090000000001N091219000000000000000000000000000000000000000000000000000000000000000100016338929806EDVALDO DA SILVA ANDRADE                RUA ARIA - 434 - PARQUE ALVES DE LIMA -             04902170                                                            000005
2SR. CAIXA, APOS O VENCIMENTO COBRAR 10% DE MULTA                                NAO RECEBER APOS 30 DIAS DO VENCIMENTO.                                                                                                                                                                                                         10121900000000000001012190000000000000       0090770900016748163389121915000006
100000000000000000000009077090001674800000000000000000000000010002100026836912191500000000002            2  01268369121925121900000003323540000000001N091219000000000000000000000000000000000000000000000000000000000000000100026836908860VANDERLEI FIGUEIREDO DE CARVALHO        RUA SANTO ANTONIO DE PADUA - 213 BLOCO 3            11717070                                                            000008
2SR. CAIXA, APOS O VENCIMENTO COBRAR 10% DE MULTA                                NAO RECEBER APOS 30 DIAS DO VENCIMENTO.                                                                                                                                                                                                         10121900000000000001012190000000000000       0090770900016748268369121915000009
100000000000000000000009077090001674800000000000000000000000010002100059861512191100000000002            2  01598615121925121900000003691510000000001N091219000000000000000000000000000000000000000000000000000000000000000100059861576800REINALDO LOPES DE OLIVEIRA              RUA DA SERVIDAO - 40 - VILA ROSCHEL - SA            04891045                                                            000011
2SR. CAIXA, APOS O VENCIMENTO COBRAR 10% DE MULTA                                NAO RECEBER APOS 30 DIAS DO VENCIMENTO.                                                                                                                                                                                                         10121900000000000001012190000000000000       0090770900016748598615121911000012
100000000000000000000009077090001674800000000000000000000000010002100016330912191P00000000002            2  01163309121925121900000003669140000000001N091219000000000000000000000000000000000000000000000000000000000000000100016330938830KARINA CORDEIRO PIASSA                  AVENIDA ALDA - 1550 AP.103 BL.A - CENTRO            09910170                                                            000014
2SR. CAIXA, APOS O VENCIMENTO COBRAR 10% DE MULTA                                NAO RECEBER APOS 30 DIAS DO VENCIMENTO.                                                                                                                                                                                                         10121900000000000001012190000000000000       009077090001674816330912191P000015
100000000000000000000009077090001674800000000000000000000000010002100029380712191P00000000002            2  01293807121925121900000003323730000000001N091219000000000000000000000000000000000000000000000000000000000000000100029380708882EDUARDO MENDONCA DAMASCENO              RUA MONTE CASTELO - 296 AP.12 - AVIACAO             11702720                                                            000017
2SR. CAIXA, APOS O VENCIMENTO COBRAR 10% DE MULTA                                NAO RECEBER APOS 30 DIAS DO VENCIMENTO.                                                                                                                                                                                                         10121900000000000001012190000000000000       009077090001674829380712191P000018
100000000000000000000009077090001674800000000000000000000000010002100023988512191300000000002            2  01239885121925121900000003374870000000001N091219000000000000000000000000000000000000000000000000000000000000000100023988525634DALMY PIMENTA                           SAO CAETANO - 136 - VILA SAO VICENTE - U            38026220                                                            000020
2SR. CAIXA, APOS O VENCIMENTO COBRAR 10% DE MULTA                                NAO RECEBER APOS 30 DIAS DO VENCIMENTO.                                                                                                                                                                                                         10121900000000000001012190000000000000       0090770900016748239885121913000021
100000000000000000000009077090001674800000000000000000000000010002100004735212191500000000002            2  01047352121925121900000003669380000000001N091219000000000000000000000000000000000000000000000000000000000000000100004735273832DARIO LUIZ GONCALVES                    RUA MONTE CASTELO - 295 AP.113 - AVIACAO            11702720                                                            000023
2SR. CAIXA, APOS O VENCIMENTO COBRAR 10% DE MULTA                                NAO RECEBER APOS 30 DIAS DO VENCIMENTO.                                                                                                                                                                                                         10121900000000000001012190000000000000       0090770900016748047352121915000024
100000000000000000000009077090001674800000000000000000000000010002100007635212191500000000002            2  01076352121925121900000003280650000000001N091219000000000000000000000000000000000000000000000000000000000000000100007635293893SILVIO CARDOSO ZACARIAS                 RUA SOLIDONIO LEITE - 2718 AP.102 BLOCO             03275000                                                            000026
2SR. CAIXA, APOS O VENCIMENTO COBRAR 10% DE MULTA                                NAO RECEBER APOS 30 DIAS DO VENCIMENTO.                                                                                                                                                                                                         10121900000000000001012190000000000000       0090770900016748076352121915000027
100000000000000000000009077090001674800000000000000000000000010002100007975912191900000000002            2  01079759121925121900000003569170000000001N091219000000000000000000000000000000000000000000000000000000000000000100007975958808JOCY VIGNADO                            RUA PEDRO GONCALVES SOBRINHO - 568 - PAR            13098641                                                            000029
2SR. CAIXA, APOS O VENCIMENTO COBRAR 10% DE MULTA                                NAO RECEBER APOS 30 DIAS DO VENCIMENTO.                                                                                                                                                                                                         10121900000000000001012190000000000000       0090770900016748079759121919000030
100000000000000000000009077090001674800000000000000000000000010002100036386812191000000000002            2  01363868121925121900000003769570000000001N091219000000000000000000000000000000000000000000000000000000000000000100036386861833ALINE LEE WEI DE SOUZA                  AV. PRES.CASTELO BRANCO - 9127 AP.251 BL            11704600                                                            000032
2SR. CAIXA, APOS O VENCIMENTO COBRAR 10% DE MULTA                                NAO RECEBER APOS 30 DIAS DO VENCIMENTO.                                                                                                                                                                                                         10121900000000000001012190000000000000       0090770900016748363868121910000033
100000000000000000000009077090001674800000000000000000000000010002100070465312191100000000002            2  01704653121925121900000001027300000000001N091219000000000000000000000000000000000000000000000000000000000000000100070465320953SIDNEY CARASKI                          RUA DR.CELSO PACHECO BENTIM - 502 - PARQ            03571020                                                            000035
2SR. CAIXA, APOS O VENCIMENTO COBRAR 10% DE MULTA                                NAO RECEBER APOS 30 DIAS DO VENCIMENTO.                                                                                                                                                                                                         10121900000000000001012190000000000000       0090770900016748704653121911000036
100000000000000000000009077090001674800000000000000000000000010002100075759412191700000000002            2  01757594121925121900000002685140000000001N091219000000000000000000000000000000000000000000000000000000000000000100075759446800VALTER MUTAFEI                          RUA MONTE CASTELO - 295 AP.54 - AVIACAO             11702720                                                            000038
2SR. CAIXA, APOS O VENCIMENTO COBRAR 10% DE MULTA                                NAO RECEBER APOS 30 DIAS DO VENCIMENTO.                                                                                                                                                                                                         10121900000000000001012190000000000000       0090770900016748757594121917000039
100000000000000000000009077090001674800000000000000000000000010002100070328712191500000000002            2  01703287121925121900000003836390000000001N091219000000000000000000000000000000000000000000000000000000000000000100070328706868VALTER LIMA FERNANDES                   RUA DOMINGOS JORGE VELHO - 52 - CENTRO -            06843550                                                            000041
2SR. CAIXA, APOS O VENCIMENTO COBRAR 10% DE MULTA                                NAO RECEBER APOS 30 DIAS DO VENCIMENTO.                                                                                                                                                                                                         10121900000000000001012190000000000000       0090770900016748703287121915000042
100000000000000000000009077090001674800000000000000000000000010002100023132612191000000000002            2  01231326121925121900000002083870000000001N091219000000000000000000000000000000000000000000000000000000000000000100023132672882LEANDRO MORENO                          RUA MONTE CASTELO - 296 AP.64 - AVIACAO             11702720                                                            000044
2SR. CAIXA, APOS O VENCIMENTO COBRAR 10% DE MULTA                                NAO RECEBER APOS 30 DIAS DO VENCIMENTO.                                                                                                                                                                                                         10121900000000000001012190000000000000       0090770900016748231326121910000045
100000000000000000000009077090001674800000000000000000000000010002100099264612191P00000000002            2  01992646121925121900000003553850000000001N091219000000000000000000000000000000000000000000000000000000000000000100099264692800LEONTINO PINHEIRO DA SILVA              AVENIDA JOAO BATISTA FITIPALDI - 469 - V            08685000                                                            000047
2SR. CAIXA, APOS O VENCIMENTO COBRAR 10% DE MULTA                                NAO RECEBER APOS 30 DIAS DO VENCIMENTO.                                                                                                                                                                                                         10121900000000000001012190000000000000       009077090001674899264612191P000048
100000000000000000000009077090001674800000000000000000000000010002100000666312191000000000002            2  01006663121925121900000003428490000000001N091219000000000000000000000000000000000000000000000000000000000000000100000666344825LUIZ HENRIQUE DE CAMPOS                 RUA JOAO CARLOS CAVALCANTI REIS - 21 - J            02281206                                                            000050
2SR. CAIXA, APOS O VENCIMENTO COBRAR 10% DE MULTA                                NAO RECEBER APOS 30 DIAS DO VENCIMENTO.                                                                                                                                                                                                         10121900000000000001012190000000000000       0090770900016748006663121910000051
100000000000000000000009077090001674800000000000000000000000010002100029155012191000000000002            2  01291550121925121900000003620620000000001N091219000000000000000000000000000000000000000000000000000000000000000100029155026842DANIELA YOSHIDA                         RUA MONTE CASTELO - 262 AP.34 - AVIACAO             11702720                                                            000053
2SR. CAIXA, APOS O VENCIMENTO COBRAR 10% DE MULTA                                NAO RECEBER APOS 30 DIAS DO VENCIMENTO.                                                                                                                                                                                                         10121900000000000001012190000000000000       0090770900016748291550121910000054
100000000000000000000009077090001674800000000000000000000000010002100001204412191400000000002            2  01012044121925121900000002948490000000001N091219000000000000000000000000000000000000000000000000000000000000000100001204431809CEZAR TALAVERA JUNIOR                   RUA MAESTRO ARTURO DE ANGELIS  - 190 AP.            05139010                                                            000056
2SR. CAIXA, APOS O VENCIMENTO COBRAR 10% DE MULTA                                NAO RECEBER APOS 30 DIAS DO VENCIMENTO.                                                                                                                                                                                                         10121900000000000001012190000000000000       0090770900016748012044121914000057
100000000000000000000009077090001674800000000000000000000000010002100004227512191300000000002            2  01042275121925121900000003822110000000001N091219000000000000000000000000000000000000000000000000000000000000000100004227553970ALESSANDRO ISRAEL GOULART               RUA PROFESSORA CARLINDA RIBEIRO - 21 - F            02866200                                                            000059
2SR. CAIXA, APOS O VENCIMENTO COBRAR 10% DE MULTA                                NAO RECEBER APOS 30 DIAS DO VENCIMENTO.                                                                                                                                                                                                         10121900000000000001012190000000000000       0090770900016748042275121913000060
100000000000000000000009077090001674800000000000000000000000010002100060811412191700000000002            2  01608114121925121900000003522510000000001N091219000000000000000000000000000000000000000000000000000000000000000100060811420868HELIO BASSI                             AV.PARIS,575 - PRACA ANTONIO FIGUEROA -             11700082                                                            000062
2SR. CAIXA, APOS O VENCIMENTO COBRAR 10% DE MULTA                                NAO RECEBER APOS 30 DIAS DO VENCIMENTO.                                                                                                                                                                                                         10121900000000000001012190000000000000       0090770900016748608114121917000063
100000000000000000000009077090001674800000000000000000000000010002100001024712191700000000002            2  01010247121925121900000003333240000000001N091219000000000000000000000000000000000000000000000000000000000000000100001024794881CLAUDIO RODRIGUES                       RUA ARACATUBA - 242 - LAPA - SAO PAULO -            05058010                                                            000065
2SR. CAIXA, APOS O VENCIMENTO COBRAR 10% DE MULTA                                NAO RECEBER APOS 30 DIAS DO VENCIMENTO.                                                                                                                                                                                                         10121900000000000001012190000000000000       0090770900016748010247121917000066
100000000000000000000009077090001674800000000000000000000000010002100002225012191800000000002            2  01022250121925121900000005110300000000001N091219000000000000000000000000000000000000000000000000000000000000000100002225072841PEDRO EDUARDO DE AZEVEDO                RUA NATH ZILMAN - 46 - JARDIM SAMAMBAIA             07623085                                                            000068
2SR. CAIXA, APOS O VENCIMENTO COBRAR 10% DE MULTA                                NAO RECEBER APOS 30 DIAS DO VENCIMENTO.                                                                                                                                                                                                         10121900000000000001012190000000000000       0090770900016748022250121918000069
100000000000000000000009077090001674800000000000000000000000010002100022037512191600000000002            2  01220375121925121900000003556210000000001N091219000000000000000000000000000000000000000000000000000000000000000100022037552882ANDREIA CRISTINA FERNANDES DANTAS       PCA CASTRO ALVES - 163 AP.33 - VILA SAO             13224299                                                            000071
2SR. CAIXA, APOS O VENCIMENTO COBRAR 10% DE MULTA                                NAO RECEBER APOS 30 DIAS DO VENCIMENTO.                                                                                                                                                                                                         10121900000000000001012190000000000000       0090770900016748220375121916000072
100000000000000000000009077090001674800000000000000000000000010002100019288712191400000000002            2  01192887121925121900000002895550000000001N091219000000000000000000000000000000000000000000000000000000000000000100019288787844EMERSON LUIZ MARTINEZ PEREIRA           RUA MONTE CASTELO - 296 AP.74 - AVIACAO             11702720                                                            000074
2SR. CAIXA, APOS O VENCIMENTO COBRAR 10% DE MULTA                                NAO RECEBER APOS 30 DIAS DO VENCIMENTO.                                                                                                                                                                                                         10121900000000000001012190000000000000       0090770900016748192887121914000075
100000000000000000000009077090001674800000000000000000000000010002100027198412191800000000002            2  01271984121925121900000009867330000000001N091219000000000000000000000000000000000000000000000000000000000000000100027198452809CRISTIANE AURELIANO DA SILVA MAIA       RUA MONTE CASTELO - 262 AP.25 - AVIACAO             11702720                                                            000077
2SR. CAIXA, APOS O VENCIMENTO COBRAR 10% DE MULTA                                NAO RECEBER APOS 30 DIAS DO VENCIMENTO.                                                                                                                                                                                                         10121900000000000001012190000000000000       0090770900016748271984121918000078
100000000000000000000009077090001674800000000000000000000000010002100027198412192600000000002            2  01271984121925121900000002452690000000001N091219000000000000000000000000000000000000000000000000000000000000000100027198452809CRISTIANE AURELIANO DA SILVA MAIA       RUA MONTE CASTELO - 262 AP.25 - AVIACAO             11702720                                                            000080
2SR. CAIXA, APOS O VENCIMENTO COBRAR 10% DE MULTA                                NAO RECEBER APOS 30 DIAS DO VENCIMENTO.                                                                                                                                                                                                         10121900000000000001012190000000000000       0090770900016748271984121926000081
100000000000000000000009077090001674800000000000000000000000010002100021246212191100000000002            2  01212462121925121900000002993270000000001N091219000000000000000000000000000000000000000000000000000000000000000100021246231840ALEXANDRO DA CUNHA MIGUES               RUA DULCE - 71  - VILA CARRAO - SAO PAUL            03427040                                                            000083
2SR. CAIXA, APOS O VENCIMENTO COBRAR 10% DE MULTA                                NAO RECEBER APOS 30 DIAS DO VENCIMENTO.                                                                                                                                                                                                         10121900000000000001012190000000000000       0090770900016748212462121911000084
100000000000000000000009077090001674800000000000000000000000010002100018470512191100000000002            2  01184705121925121900000004403530000000001N091219000000000000000000000000000000000000000000000000000000000000000100018470520881SILVANA ALVES DE OLIVEIRA               RUA MONTE CASTELO - 262 AP.91 - AVIACAO             11702720                                                            000086
2SR. CAIXA, APOS O VENCIMENTO COBRAR 10% DE MULTA                                NAO RECEBER APOS 30 DIAS DO VENCIMENTO.                                                                                                                                                                                                         10121900000000000001012190000000000000       0090770900016748184705121911000087
100000000000000000000009077090001674800000000000000000000000010002100009297512191100000000002            2  01092975121925121900000003065690000000001N091219000000000000000000000000000000000000000000000000000000000000000100009297523846MARCOS ROBERTO DE CASTRO FERREIRA       RUA MONTE CASTELO - 262 AP.105 - AVIACAO            11702720                                                            000089
2SR. CAIXA, APOS O VENCIMENTO COBRAR 10% DE MULTA                                NAO RECEBER APOS 30 DIAS DO VENCIMENTO.                                                                                                                                                                                                         10121900000000000001012190000000000000       0090770900016748092975121911000090
100000000000000000000009077090001674800000000000000000000000010002100001164112191000000000002            2  01011641121925121900000003799080000000001N091219000000000000000000000000000000000000000000000000000000000000000100001164158864DAVID BLEY LACERDA                      RUA CONEGO ARAUJO MARCONDES - 188 - BAIR            02550080                                                            000092
2SR. CAIXA, APOS O VENCIMENTO COBRAR 10% DE MULTA                                NAO RECEBER APOS 30 DIAS DO VENCIMENTO.                                                                                                                                                                                                         10121900000000000001012190000000000000       0090770900016748011641121910000093
100000000000000000000009077090001674800000000000000000000000010002100031498012191400000000002            2  01314980121925121900000004617240000000001N091219000000000000000000000000000000000000000000000000000000000000000100031498008895POLIANE  SIBELE DA SILVA                PRACA GENERAL COSTA BARRETO - 56 AP.181             03325070                                                            000095
2SR. CAIXA, APOS O VENCIMENTO COBRAR 10% DE MULTA                                NAO RECEBER APOS 30 DIAS DO VENCIMENTO.                                                                                                                                                                                                         10121900000000000001012190000000000000       0090770900016748314980121914000096
100000000000000000000009077090001674800000000000000000000000010002100000588112191800000000002            2  01005881121925121900000002708110000000001N091219000000000000000000000000000000000000000000000000000000000000000100000588109860JOSE LIARTE GIANTE                      AVENIDA LUIZ GONZAGA DO AMARAL - 143 - J            09320630                                                            000098
2SR. CAIXA, APOS O VENCIMENTO COBRAR 10% DE MULTA                                NAO RECEBER APOS 30 DIAS DO VENCIMENTO.                                                                                                                                                                                                         10121900000000000001012190000000000000       0090770900016748005881121918000099
100000000000000000000009077090001674800000000000000000000000010002100014386812191000000000002            2  01143868121925121900000002166360000000001N091219000000000000000000000000000000000000000000000000000000000000000100014386860134SEVERINO CARLOS DE OLIVEIRA             RUA MONTE CASTELO - 262 AP.54 - AVIACAO             11702720                                                            000101
2SR. CAIXA, APOS O VENCIMENTO COBRAR 10% DE MULTA                                NAO RECEBER APOS 30 DIAS DO VENCIMENTO.                                                                                                                                                                                                         10121900000000000001012190000000000000       0090770900016748143868121910000102
100000000000000000000009077090001674800000000000000000000000010002100041896812191700000000002            2  01418968121925121900000002174420000000001N091219000000000000000000000000000000000000000000000000000000000000000100041896807968SERGIO ROBERTO DA SILVA                 RUA DOS INGLESES - 542 AP.61 - MORRO DOS            01329000                                                            000104
2SR. CAIXA, APOS O VENCIMENTO COBRAR 10% DE MULTA                                NAO RECEBER APOS 30 DIAS DO VENCIMENTO.                                                                                                                                                                                                         10121900000000000001012190000000000000       0090770900016748418968121917000105
9                                                                                                                                                                                                                                                                                                                                                                                                         000106