01REMESSA01COBRANCA       00000000000004991781AIRES CONSTRUTORA E INCORPORAD237BRADESCO       110717        MX0000086                                                                                                                                                                                                                                                                                     000001
100000000000000000000009077090006612500000000000000000000000010002100000012041212700000000002            2  01001204121225071700000003216460000000001N110717000000000000000000000000000000000000000000000000000000000000000100001224509579REINALDO JUNIOR MARTINS DE ABREU        RUA JUSTINO NIGRO - 449 - INTERLAGOS - S            04815030                                                            000002
2SR. CAIXA, APOS O VENCIMENTO COBRAR 10% DE MULTA                                NAO RECEBER APOS 30 DIAS DO VENCIMENTO.                                                                                                                                                                                                         11071700000000000001107170000000000000       0090770900066125000120412127000003
100000000000000000000009077090006612500000000000000000000000010002100000013051313400000000002            2  01001305131325071700000003128210000000001N110717000000000000000000000000000000000000000000000000000000000000000100003325102808MARCOS DE OLIVEIRA JUNIOR               RUA LUIS NOVELLETO - 91 - PARQUE CONTINE            05324080                                                            000005
2SR. CAIXA, APOS O VENCIMENTO COBRAR 10% DE MULTA                                NAO RECEBER APOS 30 DIAS DO VENCIMENTO.                                                                                                                                                                                                         11071700000000000001107170000000000000       0090770900066125000130513134000006
100000000000000000000009077090006612500000000000000000000000010002100000015091515800000000002            2  01001509151525071700000003173620000000001N110717000000000000000000000000000000000000000000000000000000000000000100016338929806EDVALDO DA SILVA ANDRADE                RUA ARIA - 434 - PARQUE ALVES DE LIMA -             04902170                                                            000008
2SR. CAIXA, APOS O VENCIMENTO COBRAR 10% DE MULTA                                NAO RECEBER APOS 30 DIAS DO VENCIMENTO.                                                                                                                                                                                                         11071700000000000001107170000000000000       0090770900066125000150915158000009
100000000000000000000009077090006612500000000000000000000000010002100000018041818300000000002            2  01001804181825071700000002873940000000001N110717000000000000000000000000000000000000000000000000000000000000000100026836908860VANDERLEI FIGUEIREDO DE CARVALHO        RUA TUPI - 840 - VILA TUPI - PRAIA GRAND            11703260                                                            000011
2SR. CAIXA, APOS O VENCIMENTO COBRAR 10% DE MULTA                                NAO RECEBER APOS 30 DIAS DO VENCIMENTO.                                                                                                                                                                                                         11071700000000000001107170000000000000       0090770900066125000180418183000012
100000000000000000000009077090006612500000000000000000000000010002100000020082020P00000000002            2  01002008202025071700000003192150000000001N110717000000000000000000000000000000000000000000000000000000000000000100059861576800REINALDO LOPES DE OLIVEIRA              RUA DA SERVIDAO - 40 - VILA ROSCHEL - SA            04891045                                                            000014
2SR. CAIXA, APOS O VENCIMENTO COBRAR 10% DE MULTA                                NAO RECEBER APOS 30 DIAS DO VENCIMENTO.                                                                                                                                                                                                         11071700000000000001107170000000000000       009077090006612500020082020P000015
100000000000000000000009077090006612500000000000000000000000010002100000021132121300000000002            2  01002113212125071700000001822360000000001N110717000000000000000000000000000000000000000000000000000000000000000100008158846807JULIO CESAR KYOO WATANUKI               AVENIDA PRESIDENTE CASTELO BRANCO - 460             11700800                                                            000017
2SR. CAIXA, APOS O VENCIMENTO COBRAR 10% DE MULTA                                NAO RECEBER APOS 30 DIAS DO VENCIMENTO.                                                                                                                                                                                                         11071700000000000001107170000000000000       0090770900066125000211321213000018
100000000000000000000009077090006612500000000000000000000000010002100000030162830P00000000002            2  01003016283025071700000002863020000000001N110717000000000000000000000000000000000000000000000000000000000000000100028379879805EDMILSON DANIEL GARCIA WATANUKI         RUA MONTE CASTELO - 295 AP.82 - AVIACAO             11702720                                                            000020
2SR. CAIXA, APOS O VENCIMENTO COBRAR 10% DE MULTA                                NAO RECEBER APOS 30 DIAS DO VENCIMENTO.                                                                                                                                                                                                         11071700000000000001107170000000000000       009077090006612500030162830P000021
100000000000000000000009077090006612500000000000000000000000010002100000037953538300000000002            2  01003795353825071700000003172830000000001N110717000000000000000000000000000000000000000000000000000000000000000100016330938830KARINA CORDEIRO PIASSA                  CONDE MOREIRA LIMA - 644 - JARDIM JABAQU            04384032                                                            000023
2SR. CAIXA, APOS O VENCIMENTO COBRAR 10% DE MULTA                                NAO RECEBER APOS 30 DIAS DO VENCIMENTO.                                                                                                                                                                                                         11071700000000000001107170000000000000       0090770900066125000379535383000024
100000000000000000000009077090006612500000000000000000000000010002100000043844044800000000002            2  01004384404425071700000003083730000000001N110717000000000000000000000000000000000000000000000000000000000000000100077027604868CLINEU LISSONI                          AVENIDA VILA EMA - 1100 AP.41 - VILA PRU            03156000                                                            000026
2SR. CAIXA, APOS O VENCIMENTO COBRAR 10% DE MULTA                                NAO RECEBER APOS 30 DIAS DO VENCIMENTO.                                                                                                                                                                                                         11071700000000000001107170000000000000       0090770900066125000438440448000027
100000000000000000000009077090006612500000000000000000000000010002100000050614751700000000002            2  01005061475125071700000002891140000000001N110717000000000000000000000000000000000000000000000000000000000000000100005627947861FERNANDO CESAR MARCELINO                RUA CASA FORTE - 46 AP.11 - AGUA FRIA -             02336040                                                            000029
2SR. CAIXA, APOS O VENCIMENTO COBRAR 10% DE MULTA                                NAO RECEBER APOS 30 DIAS DO VENCIMENTO.                                                                                                                                                                                                         11071700000000000001107170000000000000       0090770900066125000506147517000030
100000000000000000000009077090006612500000000000000000000000010002100000052534953800000000002            2  01005253495325071700000002874110000000001N110717000000000000000000000000000000000000000000000000000000000000000100029380708882EDUARDO MENDONCA DAMASCENO              RUA MONTE CASTELO - 296 AP.12 - AVIACAO             11702720                                                            000032
2SR. CAIXA, APOS O VENCIMENTO COBRAR 10% DE MULTA                                NAO RECEBER APOS 30 DIAS DO VENCIMENTO.                                                                                                                                                                                                         11071700000000000001107170000000000000       0090770900066125000525349538000033
100000000000000000000009077090006612500000000000000000000000010002100000056605357000000000002            2  01005660535725071700000002918330000000001N110717000000000000000000000000000000000000000000000000000000000000000100023988525634DALMY PIMENTA                           SAO CAETANO - 136 - VILA SAO VICENTE - U            38026220                                                            000035
2SR. CAIXA, APOS O VENCIMENTO COBRAR 10% DE MULTA                                NAO RECEBER APOS 30 DIAS DO VENCIMENTO.                                                                                                                                                                                                         11071700000000000001107170000000000000       0090770900066125000566053570000036
100000000000000000000009077090006612500000000000000000000000010002100000058505559200000000002            2  01005850555925071700000003172980000000001N110717000000000000000000000000000000000000000000000000000000000000000100004735273832DARIO LUIZ GONCALVES                    RUA MONTE CASTELO - 295 AP.113 - AVIACAO            11702720                                                            000038
2SR. CAIXA, APOS O VENCIMENTO COBRAR 10% DE MULTA                                NAO RECEBER APOS 30 DIAS DO VENCIMENTO.                                                                                                                                                                                                         11071700000000000001107170000000000000       0090770900066125000585055592000039
100000000000000000000009077090006612500000000000000000000000010002100000060385761800000000002            2  01006038576125071700000002836850000000001N110717000000000000000000000000000000000000000000000000000000000000000100007635293893SILVIO CARDOSO ZACARIAS                 RUA SOLIDONIO LEITE - 2718 AP.102 BLOCO             03275000                                                            000041
2SR. CAIXA, APOS O VENCIMENTO COBRAR 10% DE MULTA                                NAO RECEBER APOS 30 DIAS DO VENCIMENTO.                                                                                                                                                                                                         11071700000000000001107170000000000000       0090770900066125000603857618000042
100000000000000000000009077090006612500000000000000000000000010002100000062215963800000000002            2  01006221596325071700000002777180000000001N110717000000000000000000000000000000000000000000000000000000000000000100067192920800SONIA MARIA RIBEIRO SUDO                RUA INGAZEIRA - 133 - SAO MIGUEL - SAO P            08032080                                                            000044
2SR. CAIXA, APOS O VENCIMENTO COBRAR 10% DE MULTA                                NAO RECEBER APOS 30 DIAS DO VENCIMENTO.                                                                                                                                                                                                         11071700000000000001107170000000000000       0090770900066125000622159638000045
100000000000000000000009077090006612500000000000000000000000010002100000063126064300000000002            2  01006312606425071700000003086350000000001N110717000000000000000000000000000000000000000000000000000000000000000100007975958808JOCY VIGNADO                            RUA PEDRO GONCALVES SOBRINHO - 568 - PAR            13098641                                                            000047
2SR. CAIXA, APOS O VENCIMENTO COBRAR 10% DE MULTA                                NAO RECEBER APOS 30 DIAS DO VENCIMENTO.                                                                                                                                                                                                         11071700000000000001107170000000000000       0090770900066125000631260643000048
100000000000000000000009077090006612500000000000000000000000010002100000068126569700000000002            2  01006812656925071700000002885870000000001N110717000000000000000000000000000000000000000000000000000000000000000100036712580803WALTER BARRETO DE ALMEIDA               RUA MONTE CASTELO - 296 AP.44 - AVIACAO             11702720                                                            000050
2SR. CAIXA, APOS O VENCIMENTO COBRAR 10% DE MULTA                                NAO RECEBER APOS 30 DIAS DO VENCIMENTO.                                                                                                                                                                                                         11071700000000000001107170000000000000       0090770900066125000681265697000051
100000000000000000000009077090006612500000000000000000000000010002100000076007277200000000002            2  01007600727725071700000003259650000000001N110717000000000000000000000000000000000000000000000000000000000000000100036386861833ALINE LEE WEI DE SOUZA                  AV. PRES.CASTELO BRANCO - 9127 AP.251 BL            11704600                                                            000053
2SR. CAIXA, APOS O VENCIMENTO COBRAR 10% DE MULTA                                NAO RECEBER APOS 30 DIAS DO VENCIMENTO.                                                                                                                                                                                                         11071700000000000001107170000000000000       0090770900066125000760072772000054
100000000000000000000009077090006612500000000000000000000000010002100000076877378800000000002            2  01007687737825071700000003024850000000001N110717000000000000000000000000000000000000000000000000000000000000000100026187960807CARINA CANTACESSO DE SOUZA              RUA MONTE CASTELO - 296 AP.91 - AVIACAO             11702720                                                            000056
2SR. CAIXA, APOS O VENCIMENTO COBRAR 10% DE MULTA                                NAO RECEBER APOS 30 DIAS DO VENCIMENTO.                                                                                                                                                                                                         11071700000000000001107170000000000000       0090770900066125000768773788000057
100000000000000000000009077090006612500000000000000000000000010002100000082737784000000000002            2  01008273778425071700000002965080000000001N110717000000000000000000000000000000000000000000000000000000000000000100070465320953SIDNEY CARASKI                          RUA DR.CELSO PACHECO BENTIM - 502 - PARQ            03571020                                                            000059
2SR. CAIXA, APOS O VENCIMENTO COBRAR 10% DE MULTA                                NAO RECEBER APOS 30 DIAS DO VENCIMENTO.                                                                                                                                                                                                         11071700000000000001107170000000000000       0090770900066125000827377840000060
100000000000000000000009077090006612500000000000000000000000010002100000083543985500000000002            2  01008354398525071700000002321910000000001N110717000000000000000000000000000000000000000000000000000000000000000100075759446800VALTER MUTAFEI                          RUA MONTE CASTELO - 295 AP.54 - AVIACAO             11702720                                                            000062
2SR. CAIXA, APOS O VENCIMENTO COBRAR 10% DE MULTA                                NAO RECEBER APOS 30 DIAS DO VENCIMENTO.                                                                                                                                                                                                         11071700000000000001107170000000000000       0090770900066125000835439855000063
100000000000000000000009077090006612500000000000000000000000010002100000087368189900000000002            2  01008736818925071700000003317420000000001N110717000000000000000000000000000000000000000000000000000000000000000100070328706868VALTER LIMA FERNANDES                   RUA DOMINGOS JORGE VELHO - 52 - CENTRO -            06843550                                                            000065
2SR. CAIXA, APOS O VENCIMENTO COBRAR 10% DE MULTA                                NAO RECEBER APOS 30 DIAS DO VENCIMENTO.                                                                                                                                                                                                         11071700000000000001107170000000000000       0090770900066125000873681899000066
100000000000000000000009077090006612500000000000000000000000010002100000088438290700000000002            2  01008843829025071700000001801990000000001N110717000000000000000000000000000000000000000000000000000000000000000100023132672882LEANDRO MORENO                          RUA MONTE CASTELO - 296 AP.64 - AVIACAO             11702720                                                            000068
2SR. CAIXA, APOS O VENCIMENTO COBRAR 10% DE MULTA                                NAO RECEBER APOS 30 DIAS DO VENCIMENTO.                                                                                                                                                                                                         11071700000000000001107170000000000000       0090770900066125000884382907000069
100000000000000000000009077090006612500000000000000000000000010002100000090468492100000000002            2  01009046849225071700000003073130000000001N110717000000000000000000000000000000000000000000000000000000000000000100099264692800LEONTINO PINHEIRO DA SILVA              AVENIDA JOAO BATISTA FITIPALDI - 469 - V            08685000                                                            000071
2SR. CAIXA, APOS O VENCIMENTO COBRAR 10% DE MULTA                                NAO RECEBER APOS 30 DIAS DO VENCIMENTO.                                                                                                                                                                                                         11071700000000000001107170000000000000       0090770900066125000904684921000072
100000000000000000000009077090006612500000000000000000000000010002100000092498594400000000002            2  01009249859425071700000002964700000000001N110717000000000000000000000000000000000000000000000000000000000000000100000666344825LUIZ HENRIQUE DE CAMPOS                 RUA JOAO CARLOS CAVALCANTI REIS - 21 - J            02281206                                                            000074
2SR. CAIXA, APOS O VENCIMENTO COBRAR 10% DE MULTA                                NAO RECEBER APOS 30 DIAS DO VENCIMENTO.                                                                                                                                                                                                         11071700000000000001107170000000000000       0090770900066125000924985944000075
100000000000000000000009077090006612500000000000000000000000010002100000096758898100000000002            2  01009675889825071700000003130860000000001N110717000000000000000000000000000000000000000000000000000000000000000100029155026842DANIELA YOSHIDA                         RUA FREI JOAO DO ROSARIO - 639 - VILA MA            04401090                                                            000077
2SR. CAIXA, APOS O VENCIMENTO COBRAR 10% DE MULTA                                NAO RECEBER APOS 30 DIAS DO VENCIMENTO.                                                                                                                                                                                                         11071700000000000001107170000000000000       0090770900066125000967588981000078
100000000000000000000009077090006612500000000000000000000000010002100001024994104000000000002            2  01102499410425071700000002695000000000001N110717000000000000000000000000000000000000000000000000000000000000000100034325567801LUIZ FERNANDO ALAMINO                   AVENIDA FLOR DE VILA FORMOSA - 337 - VIL            03366010                                                            000080
2SR. CAIXA, APOS O VENCIMENTO COBRAR 10% DE MULTA                                NAO RECEBER APOS 30 DIAS DO VENCIMENTO.                                                                                                                                                                                                         11071700000000000001107170000000000000       0090770900066125010249941040000081
100000000000000000000009077090006612500000000000000000000000010002100001045396106900000000002            2  01104539610625071700000002549620000000001N110717000000000000000000000000000000000000000000000000000000000000000100001204431809CEZAR TALAVERA JUNIOR                   RUA MAESTRO ARTURO DE ANGELIS  - 190 AP.            05139010                                                            000083
2SR. CAIXA, APOS O VENCIMENTO COBRAR 10% DE MULTA                                NAO RECEBER APOS 30 DIAS DO VENCIMENTO.                                                                                                                                                                                                         11071700000000000001107170000000000000       0090770900066125010453961069000084
100000000000000000000009077090006612500000000000000000000000010002100001067598108400000000002            2  01106759810825071700000003305090000000001N110717000000000000000000000000000000000000000000000000000000000000000100004227553970ALESSANDRO ISRAEL GOULART               RUA PROFESSORA CARLINDA RIBEIRO - 21 - F            02866200                                                            000086
2SR. CAIXA, APOS O VENCIMENTO COBRAR 10% DE MULTA                                NAO RECEBER APOS 30 DIAS DO VENCIMENTO.                                                                                                                                                                                                         11071700000000000001107170000000000000       0090770900066125010675981084000087
100000000000000000000009077090006612500000000000000000000000010002100001077699109900000000002            2  01107769910925071700000003046020000000001N110717000000000000000000000000000000000000000000000000000000000000000100060811420868HELIO BASSI                             AV.PARIS,575 - PRACA ANTONIO FIGUEROA -             11700082                                                            000089
2SR. CAIXA, APOS O VENCIMENTO COBRAR 10% DE MULTA                                NAO RECEBER APOS 30 DIAS DO VENCIMENTO.                                                                                                                                                                                                         11071700000000000001107170000000000000       0090770900066125010776991099000090
100000000000000000000009077090006612500000000000000000000000010002100011475106117800000000002            2  01114751061125071700000002713960000000001N110717000000000000000000000000000000000000000000000000000000000000000100027317668591ERONILTON SOUSA MOTA                    AVENIDA PRESIDENTE KENNEDY - 3203 - AVIA            11701330                                                            000092
2SR. CAIXA, APOS O VENCIMENTO COBRAR 10% DE MULTA                                NAO RECEBER APOS 30 DIAS DO VENCIMENTO.                                                                                                                                                                                                         11071700000000000001107170000000000000       0090770900066125114751061178000093
100000000000000000000009077090006612500000000000000000000000010002100011673108119100000000002            2  01116731081125071700000002882350000000001N110717000000000000000000000000000000000000000000000000000000000000000100001024794881CLAUDIO RODRIGUES                       RUA ARACATUBA - 242 - LAPA - SAO PAULO -            05058010                                                            000095
2SR. CAIXA, APOS O VENCIMENTO COBRAR 10% DE MULTA                                NAO RECEBER APOS 30 DIAS DO VENCIMENTO.                                                                                                                                                                                                         11071700000000000001107170000000000000       0090770900066125116731081191000096
100000000000000000000009077090006612500000000000000000000000010002100011873109121100000000002            2  01118731091225071700000004419010000000001N110717000000000000000000000000000000000000000000000000000000000000000100002225072841PEDRO EDUARDO DE AZEVEDO                RUA NATH ZILMAN - 46 - JARDIM SAMAMBAIA             07600000                                                            000098
2SR. CAIXA, APOS O VENCIMENTO COBRAR 10% DE MULTA                                NAO RECEBER APOS 30 DIAS DO VENCIMENTO.                                                                                                                                                                                                         11071700000000000001107170000000000000       0090770900066125118731091211000099
100000000000000000000009077090006612500000000000000000000000010002100011975110122800000000002            2  01119751101225071700000003075160000000001N110717000000000000000000000000000000000000000000000000000000000000000100015039262817MARCOS ROBERTO DANTAS                   RUA SAO JOSE - 163 AP.33 - BAIRRO SAO JO            13224300                                                            000101
2SR. CAIXA, APOS O VENCIMENTO COBRAR 10% DE MULTA                                NAO RECEBER APOS 30 DIAS DO VENCIMENTO.                                                                                                                                                                                                         11071700000000000001107170000000000000       0090770900066125119751101228000102
100000000000000000000009077090006612500000000000000000000000010002100012180112124600000000002            2  01121801121225071700000004340540000000001N110717000000000000000000000000000000000000000000000000000000000000000100037555503859RAPHAEL DE MELLO                        RUA MARECHAL HERMES - 126 AP.121 - CANTO            11700250                                                            000104
2SR. CAIXA, APOS O VENCIMENTO COBRAR 10% DE MULTA                                NAO RECEBER APOS 30 DIAS DO VENCIMENTO.                                                                                                                                                                                                         11071700000000000001107170000000000000       0090770900066125121801121246000105
100000000000000000000009077090006612500000000000000000000000010002100012484114127300000000002            2  01124841141225071700000002503890000000001N110717000000000000000000000000000000000000000000000000000000000000000100019288787844EMERSON LUIZ MARTINEZ PEREIRA           RUA MONTE CASTELO - 296 AP.74 - AVIACAO             11702720                                                            000107
2SR. CAIXA, APOS O VENCIMENTO COBRAR 10% DE MULTA                                NAO RECEBER APOS 30 DIAS DO VENCIMENTO.                                                                                                                                                                                                         11071700000000000001107170000000000000       0090770900066125124841141273000108
100000000000000000000009077090006612500000000000000000000000010002100012687116129800000000002            2  01126871161225071700000002120910000000001N110717000000000000000000000000000000000000000000000000000000000000000100027198452809CRISTIANE AURELIANO DA SILVA MAIA       RUA MONTE CASTELO - 262 AP.25 - AVIACAO             11702720                                                            000110
2SR. CAIXA, APOS O VENCIMENTO COBRAR 10% DE MULTA                                NAO RECEBER APOS 30 DIAS DO VENCIMENTO.                                                                                                                                                                                                         11071700000000000001107170000000000000       0090770900066125126871161298000111
100000000000000000000009077090006612500000000000000000000000010002100013031118133900000000002            2  01130311181325071700000002588340000000001N110717000000000000000000000000000000000000000000000000000000000000000100021246231840ALEXANDRO DA CUNHA MIGUES               AVENIDA CONSELHEIRO CARRAO - 1861 CONJ.5            03403001                                                            000113
2SR. CAIXA, APOS O VENCIMENTO COBRAR 10% DE MULTA                                NAO RECEBER APOS 30 DIAS DO VENCIMENTO.                                                                                                                                                                                                         11071700000000000001107170000000000000       0090770900066125130311181339000114
100000000000000000000009077090006612500000000000000000000000010002100013334121136300000000002            2  01133341211325071700000001549760000000001N110717000000000000000000000000000000000000000000000000000000000000000100004864924600RENATO SANTACHIARA SALVADORI            RUA PENSYLVANIA - 116 - PAYSAGE BRISE -             06730000                                                            000116
2SR. CAIXA, APOS O VENCIMENTO COBRAR 10% DE MULTA                                NAO RECEBER APOS 30 DIAS DO VENCIMENTO.                                                                                                                                                                                                         11071700000000000001107170000000000000       0090770900066125133341211363000117
100000000000000000000009077090006612500000000000000000000000010002100013535122138600000000002            2  01135351221325071700000003807820000000001N110717000000000000000000000000000000000000000000000000000000000000000100018470520881SILVANA ALVES DE OLIVEIRA               RUA MONTE CASTELO - 262 AP.91 - AVIACAO             11702720                                                            000119
2SR. CAIXA, APOS O VENCIMENTO COBRAR 10% DE MULTA                                NAO RECEBER APOS 30 DIAS DO VENCIMENTO.                                                                                                                                                                                                         11071700000000000001107170000000000000       0090770900066125135351221386000120
100000000000000000000009077090006612500000000000000000000000010002100013637123139200000000002            2  01136371231325071700000002650990000000001N110717000000000000000000000000000000000000000000000000000000000000000100009297523846MARCOS ROBERTO DE CASTRO FERREIRA       RUA MONTE CASTELO - 262 AP.105 - AVIACAO            11702720                                                            000122
2SR. CAIXA, APOS O VENCIMENTO COBRAR 10% DE MULTA                                NAO RECEBER APOS 30 DIAS DO VENCIMENTO.                                                                                                                                                                                                         11071700000000000001107170000000000000       0090770900066125136371231392000123
100000000000000000000009077090006612500000000000000000000000010002100014106126144900000000002            2  01141061261425071700000003285170000000001N110717000000000000000000000000000000000000000000000000000000000000000100001164158864DAVID BLEY LACERDA                      RUA CONEGO ARAUJO MARCONDES - 188 - BAIR            02550080                                                            000125
2SR. CAIXA, APOS O VENCIMENTO COBRAR 10% DE MULTA                                NAO RECEBER APOS 30 DIAS DO VENCIMENTO.                                                                                                                                                                                                         11071700000000000001107170000000000000       0090770900066125141061261449000126
100000000000000000000009077090006612500000000000000000000000010002100015498133159100000000002            2  01154981331525071700000003992650000000001N110717000000000000000000000000000000000000000000000000000000000000000100031498008895POLIANE  SIBELE DA SILVA                RUA FRANCISCO RODRIGUES SECKLER - 452 CA            08230020                                                            000128
2SR. CAIXA, APOS O VENCIMENTO COBRAR 10% DE MULTA                                NAO RECEBER APOS 30 DIAS DO VENCIMENTO.                                                                                                                                                                                                         11071700000000000001107170000000000000       0090770900066125154981331591000129
100000000000000000000009077090006612500000000000000000000000010002100016614140170800000000002            2  01166141401725071700000002341780000000001N110717000000000000000000000000000000000000000000000000000000000000000100000588109860JOSE LIARTE GIANTE                      AVENIDA LUIZ GONZAGA DO AMARAL - 143 - J            09320630                                                            000131
2SR. CAIXA, APOS O VENCIMENTO COBRAR 10% DE MULTA                                NAO RECEBER APOS 30 DIAS DO VENCIMENTO.                                                                                                                                                                                                         11071700000000000001107170000000000000       0090770900066125166141401708000132
100000000000000000000009077090006612500000000000000000000000010002100017576144178400000000002            2  01175761441725071700000002649830000000001N110717000000000000000000000000000000000000000000000000000000000000000100000764632817LUIZ CARLOS ANTUNES JUNIOR              RUA MONTE CASTELO - 262 AP.35 - AVIACAO             11702720                                                            000134
2SR. CAIXA, APOS O VENCIMENTO COBRAR 10% DE MULTA                                NAO RECEBER APOS 30 DIAS DO VENCIMENTO.                                                                                                                                                                                                         11071700000000000001107170000000000000       0090770900066125175761441784000135
100000000000000000000009077090006612500000000000000000000000010002100018245146184600000000002            2  01182451461825071700000001873330000000001N110717000000000000000000000000000000000000000000000000000000000000000100014386860134SEVERINO CARLOS DE OLIVEIRA             RUA MONTE CASTELO - 262 AP.54 - AVIACAO             11702720                                                            000137
2SR. CAIXA, APOS O VENCIMENTO COBRAR 10% DE MULTA                                NAO RECEBER APOS 30 DIAS DO VENCIMENTO.                                                                                                                                                                                                         11071700000000000001107170000000000000       0090770900066125182451461846000138
100000000000000000000009077090006612500000000000000000000000010002100018642147187700000000002            2  01186421471825071700000002082640000000001N110717000000000000000000000000000000000000000000000000000000000000000100029088221804FABIANO SPERANDEO                       RUA MONTE CASTELO - 296 AP.93 - AVIACAO             11702720                                                            000140
2SR. CAIXA, APOS O VENCIMENTO COBRAR 10% DE MULTA                                NAO RECEBER APOS 30 DIAS DO VENCIMENTO.                                                                                                                                                                                                         11071700000000000001107170000000000000       0090770900066125186421471877000141
100000000000000000000009077090006612500000000000000000000000010002100019145151191500000000002            2  01191451511925071700000001576150000000001N110717000000000000000000000000000000000000000000000000000000000000000100053018338715JAIME YOSHIO YONAMINE                   AVENIDA MARCONDES DE BRITO - 1.283 CASA             03509000                                                            000143
2SR. CAIXA, APOS O VENCIMENTO COBRAR 10% DE MULTA                                NAO RECEBER APOS 30 DIAS DO VENCIMENTO.                                                                                                                                                                                                         11071700000000000001107170000000000000       0090770900066125191451511915000144
100000000000000000000009077090006612500000000000000000000000010002100021261161208700000000002            2  01212611612025071700000001291100000000001N110717000000000000000000000000000000000000000000000000000000000000000100039393790850NAIRON RICARDO DE ARAUJO SANTOS         RUA MONTE CASTELO - 262 AP.23 - AVIACAO             11702720                                                            000146
2SR. CAIXA, APOS O VENCIMENTO COBRAR 10% DE MULTA                                NAO RECEBER APOS 30 DIAS DO VENCIMENTO.                                                                                                                                                                                                         11071700000000000001107170000000000000       0090770900066125212611612087000147
100000000000000000000009077090006612500000000000000000000000010002100021380165209P00000000002            2  01213801652025071700000003320850000000001N110717000000000000000000000000000000000000000000000000000000000000000100066104106820ANADIR FERREIRA                         RUA MONTE CASTELO - 296 AP.61 - AVIACAO             11702720                                                            000149
2SR. CAIXA, APOS O VENCIMENTO COBRAR 10% DE MULTA                                NAO RECEBER APOS 30 DIAS DO VENCIMENTO.                                                                                                                                                                                                         11071700000000000001107170000000000000       009077090006612521380165209P000150
100000000000000000000009077090006612500000000000000000000000010002100021440166210600000000002            2  01214401662125071700000001880280000000001N110717000000000000000000000000000000000000000000000000000000000000000100041896807968SERGIO ROBERTO DA SILVA                 RUA DOS INGLESES - 542 AP.61 - MORRO DOS            01329000                                                            000152
2SR. CAIXA, APOS O VENCIMENTO COBRAR 10% DE MULTA                                NAO RECEBER APOS 30 DIAS DO VENCIMENTO.                                                                                                                                                                                                         11071700000000000001107170000000000000       0090770900066125214401662106000153
100000000000000000000009077090006612500000000000000000000000010002100022073129215100000000002            2  01220731292125071700000001704970000000001N110717000000000000000000000000000000000000000000000000000000000000000100088137384804ANA LUCIA DA SILVA                      RUA DOUTOR EPAMINONDAS BARRA - 147 - VIL            04438100                                                            000155
2SR. CAIXA, APOS O VENCIMENTO COBRAR 10% DE MULTA                                NAO RECEBER APOS 30 DIAS DO VENCIMENTO.                                                                                                                                                                                                         11071700000000000001107170000000000000       0090770900066125220731292151000156
9                                                                                                                                                                                                                                                                                                                                                                                                         000157