01REMESSA01COBRANCA       00000000000004991781AIRES CONSTRUTORA E INCORPORAD237BRADESCO       010318        MX0000099                                                                                                                                                                                                                                                                                     000001
100000000000000000000009077090006612500000000000000000000000010002100094852203181600000000002            2  01948522031810031800000002170260000000001N010318000000000000000000000000000000000000000000000000000000000000000100094852294887GISELDA MENON                           RUA OTAVIO BARRETO - 105 - VILA SANTISTA            02560080                                                            000002
2SR. CAIXA, APOS O VENCIMENTO COBRAR 10% DE MULTA                                NAO RECEBER APOS 30 DIAS DO VENCIMENTO.                                                                                                                                                                                                         01031800000000000000103180000000000000       0090770900066125948522031816000003
100000000000000000000009077090006612500000000000000000000000010002100006485903181200000000002            2  01064859031810031800000003328480000000001N010318000000000000000000000000000000000000000000000000000000000000000100006485911820CELIO MANUEL  MELIM SANTO               RUA JUVENAL FERREIRA  - 85 AP.61 - VILA             03512040                                                            000005
2SR. CAIXA, APOS O VENCIMENTO COBRAR 10% DE MULTA                                NAO RECEBER APOS 30 DIAS DO VENCIMENTO.                                                                                                                                                                                                         01031800000000000000103180000000000000       0090770900066125064859031812000006
100000000000000000000009077090006612500000000000000000000000010002100004693803181100000000002            2  01046938031810031800000002901010000000001N010318000000000000000000000000000000000000000000000000000000000000000100004693857823NIVALDO BARTOLOMEU FERREIRA             MNS JOSE MARINONI  - 33 - SANTO AMARO -             04430350                                                            000008
2SR. CAIXA, APOS O VENCIMENTO COBRAR 10% DE MULTA                                NAO RECEBER APOS 30 DIAS DO VENCIMENTO.                                                                                                                                                                                                         01031800000000000000103180000000000000       0090770900066125046938031811000009
100000000000000000000009077090006612500000000000000000000000010002100027993103181000000000002            2  01279931031810031800000002762420000000001N010318000000000000000000000000000000000000000000000000000000000000000100027993108853DALVA JESUS RODRIGUES CABRAL            RUA CRISTOVAO COLOMBO GONCALVES - 97 - C            04811050                                                            000011
2SR. CAIXA, APOS O VENCIMENTO COBRAR 10% DE MULTA                                NAO RECEBER APOS 30 DIAS DO VENCIMENTO.                                                                                                                                                                                                         01031800000000000000103180000000000000       0090770900066125279931031810000012
100000000000000000000009077090006612500000000000000000000000010002100000455403181P00000000002            2  01004554031810031800000002869510000000001N010318000000000000000000000000000000000000000000000000000000000000000100000455495831PAULO HENRIQUE LOURENCO                 RUA FIGUEIRA  - 237 - CIDADE DAS FLORES             06184060                                                            000014
2SR. CAIXA, APOS O VENCIMENTO COBRAR 10% DE MULTA                                NAO RECEBER APOS 30 DIAS DO VENCIMENTO.                                                                                                                                                                                                         01031800000000000000103180000000000000       009077090006612500455403181P000015
100000000000000000000009077090006612500000000000000000000000010002100006140003181000000000002            2  01061400031810031800000003558600000000001N010318000000000000000000000000000000000000000000000000000000000000000100006140049857MARIA ALBANI DA SILVA EUSEBIO           RUA ORLANDO SEGALA - 108 - JARDIM ADRIAN            07135190                                                            000017
2SR. CAIXA, APOS O VENCIMENTO COBRAR 10% DE MULTA                                NAO RECEBER APOS 30 DIAS DO VENCIMENTO.                                                                                                                                                                                                         01031800000000000000103180000000000000       0090770900066125061400031810000018
100000000000000000000009077090006612500000000000000000000000010002100002324703181500000000002            2  01023247031810031800000003489590000000001N010318000000000000000000000000000000000000000000000000000000000000000100002324785897IZILDA NAPOLI                           RUA MONTE CASTELO - 295 AP.71 - AVIACAO             11702720                                                            000020
2SR. CAIXA, APOS O VENCIMENTO COBRAR 10% DE MULTA                                NAO RECEBER APOS 30 DIAS DO VENCIMENTO.                                                                                                                                                                                                         01031800000000000000103180000000000000       0090770900066125023247031815000021
100000000000000000000009077090006612500000000000000000000000010002100007768703181P00000000002            2  01077687031810031800000003614930000000001N010318000000000000000000000000000000000000000000000000000000000000000100007768713826FATIMA LUZIA BIANCHI                    DR. OLIDAIR AMBROSIO - 1487 AP.03 - CENT            14160170                                                            000023
2SR. CAIXA, APOS O VENCIMENTO COBRAR 10% DE MULTA                                NAO RECEBER APOS 30 DIAS DO VENCIMENTO.                                                                                                                                                                                                         01031800000000000000103180000000000000       009077090006612507768703181P000024
100000000000000000000009077090006612500000000000000000000000010002100021716803181700000000002            2  01217168031810031800000003561260000000001N010318000000000000000000000000000000000000000000000000000000000000000100021716847800DANIELLE FAGUNDES DE A.MATOS            CONDE MOREIRA LIMA - 644 - JARDIM JABAQU            04384032                                                            000026
2SR. CAIXA, APOS O VENCIMENTO COBRAR 10% DE MULTA                                NAO RECEBER APOS 30 DIAS DO VENCIMENTO.                                                                                                                                                                                                         01031800000000000000103180000000000000       0090770900066125217168031817000027
100000000000000000000009077090006612500000000000000000000000010002100085416903181000000000002            2  01854169031810031800000003018930000000001N010318000000000000000000000000000000000000000000000000000000000000000100085416940891ANTONIO DE SOUSA MENDES                 RUA MONTE CASTELO - 296 AP.52 - AVIACAO             11702720                                                            000029
2SR. CAIXA, APOS O VENCIMENTO COBRAR 10% DE MULTA                                NAO RECEBER APOS 30 DIAS DO VENCIMENTO.                                                                                                                                                                                                         01031800000000000000103180000000000000       0090770900066125854169031810000030
100000000000000000000009077090006612500000000000000000000000010002100005678003181400000000002            2  01056780031810031800000003144170000000001N010318000000000000000000000000000000000000000000000000000000000000000100005678057863FABIO MOREIRA CAMPOS                    RUA FLORENCIO DA SILVA - 284 - VILA LIBA            03738070                                                            000032
2SR. CAIXA, APOS O VENCIMENTO COBRAR 10% DE MULTA                                NAO RECEBER APOS 30 DIAS DO VENCIMENTO.                                                                                                                                                                                                         01031800000000000000103180000000000000       0090770900066125056780031814000033
100000000000000000000009077090006612500000000000000000000000010002100007784403181000000000002            2  01077844031810031800000003174890000000001N010318000000000000000000000000000000000000000000000000000000000000000100007784496885GUILHERME LEONARDO DO NASCIMENTO        COMENDADOR RUBENS RONCARE - 127 - PONTE             11530120                                                            000035
2SR. CAIXA, APOS O VENCIMENTO COBRAR 10% DE MULTA                                NAO RECEBER APOS 30 DIAS DO VENCIMENTO.                                                                                                                                                                                                         01031800000000000000103180000000000000       0090770900066125077844031810000036
100000000000000000000009077090006612500000000000000000000000010002100016348203181000000000002            2  01163482031810031800000003067380000000001N010318000000000000000000000000000000000000000000000000000000000000000100016348237885AILTON LORENA                           AVENIDA BRASILIA - 194 - BELA VISTA - SA            09180260                                                            000038
2SR. CAIXA, APOS O VENCIMENTO COBRAR 10% DE MULTA                                NAO RECEBER APOS 30 DIAS DO VENCIMENTO.                                                                                                                                                                                                         01031800000000000000103180000000000000       0090770900066125163482031810000039
100000000000000000000009077090006612500000000000000000000000010002100081218403181400000000002            2  01812184031810031800000002960400000000001N010318000000000000000000000000000000000000000000000000000000000000000100081218486953OSMAR DA COSTA                          RUA MONTE CASTELO - 295 AP.33 - AVIACAO             11702720                                                            000041
2SR. CAIXA, APOS O VENCIMENTO COBRAR 10% DE MULTA                                NAO RECEBER APOS 30 DIAS DO VENCIMENTO.                                                                                                                                                                                                         01031800000000000000103180000000000000       0090770900066125812184031814000042
100000000000000000000009077090006612500000000000000000000000010002100004981803181700000000002            2  01049818031810031800000003362470000000001N010318000000000000000000000000000000000000000000000000000000000000000100004981884850SILVIO PAULINO GONCALVES                MARIA DE CASTRO MESQUITA - 84 AP.103 BLO            07110040                                                            000044
2SR. CAIXA, APOS O VENCIMENTO COBRAR 10% DE MULTA                                NAO RECEBER APOS 30 DIAS DO VENCIMENTO.                                                                                                                                                                                                         01031800000000000000103180000000000000       0090770900066125049818031817000045
100000000000000000000009077090006612500000000000000000000000010002100019282503181100000000002            2  01192825031810031800000007147470000000001N010318000000000000000000000000000000000000000000000000000000000000000100019282546837FABIO LEANDRO DE FREITAS ASSIS          RUA BASSIM NAGIB TRABULSI - 97 - PONTA D            11030540                                                            000047
2SR. CAIXA, APOS O VENCIMENTO COBRAR 10% DE MULTA                                NAO RECEBER APOS 30 DIAS DO VENCIMENTO.                                                                                                                                                                                                         01031800000000000000103180000000000000       0090770900066125192825031811000048
100000000000000000000009077090006612500000000000000000000000010002100019282503182P00000000002            2  01192825031810031800000002207130000000001N010318000000000000000000000000000000000000000000000000000000000000000100019282546837FABIO LEANDRO DE FREITAS ASSIS          RUA BASSIM NAGIB TRABULSI - 97 - PONTA D            11030540                                                            000050
2SR. CAIXA, APOS O VENCIMENTO COBRAR 10% DE MULTA                                NAO RECEBER APOS 30 DIAS DO VENCIMENTO.                                                                                                                                                                                                         01031800000000000000103180000000000000       009077090006612519282503182P000051
100000000000000000000009077090006612500000000000000000000000010002100008423403181500000000002            2  01084234031810031800000003067310000000001N010318000000000000000000000000000000000000000000000000000000000000000100008423485811EDSON LUIZ NUNES                        RUA NOEMIA PEDROSO BUENO - 41 - JARDIM G            09360440                                                            000053
2SR. CAIXA, APOS O VENCIMENTO COBRAR 10% DE MULTA                                NAO RECEBER APOS 30 DIAS DO VENCIMENTO.                                                                                                                                                                                                         01031800000000000000103180000000000000       0090770900066125084234031815000054
100000000000000000000009077090006612500000000000000000000000010002100003010503181400000000002            2  01030105031810031800000003549270000000001N010318000000000000000000000000000000000000000000000000000000000000000100003010502877GIZELA VIEIRA BARROS                    RUA GIACOMO DALCIN - 157 - MAUA - SAO CA            09580350                                                            000056
2SR. CAIXA, APOS O VENCIMENTO COBRAR 10% DE MULTA                                NAO RECEBER APOS 30 DIAS DO VENCIMENTO.                                                                                                                                                                                                         01031800000000000000103180000000000000       0090770900066125030105031814000057
100000000000000000000009077090006612500000000000000000000000010002100012111003181P00000000002            2  01121110031810031800000002890060000000001N010318000000000000000000000000000000000000000000000000000000000000000100012111060801CLAUDIA CRISTINA CRELIS COSTA           RUA RUI BARBOSA - 1736 AP.1533 - VILA SA            19015001                                                            000059
2SR. CAIXA, APOS O VENCIMENTO COBRAR 10% DE MULTA                                NAO RECEBER APOS 30 DIAS DO VENCIMENTO.                                                                                                                                                                                                         01031800000000000000103180000000000000       009077090006612512111003181P000060
100000000000000000000009077090006612500000000000000000000000010002100009777203181100000000002            2  01097772031810031800000002782780000000001N010318000000000000000000000000000000000000000000000000000000000000000100009777281889CARLITA DE FIGUEIREDO CARVALHO          AVENIDA ALBERTO DE ALMEIDA VINHAS - 4462            11701350                                                            000062
2SR. CAIXA, APOS O VENCIMENTO COBRAR 10% DE MULTA                                NAO RECEBER APOS 30 DIAS DO VENCIMENTO.                                                                                                                                                                                                         01031800000000000000103180000000000000       0090770900066125097772031811000063
100000000000000000000009077090006612500000000000000000000000010002100004213003181900000000002            2  01042130031810031800000003304770000000001N010318000000000000000000000000000000000000000000000000000000000000000100004213020894ELIETE DRUGOVICH DE LIMA                RUA OSVALDO CRUZ - 141 AP.144-B - SANTA             09541270                                                            000065
2SR. CAIXA, APOS O VENCIMENTO COBRAR 10% DE MULTA                                NAO RECEBER APOS 30 DIAS DO VENCIMENTO.                                                                                                                                                                                                         01031800000000000000103180000000000000       0090770900066125042130031819000066
100000000000000000000009077090006612500000000000000000000000010002100085839803181100000000002            2  01858398031810031800000002522290000000001N010318000000000000000000000000000000000000000000000000000000000000000100085839817872MAURO CORREIA MARTINS                   RUA PROFESSOR JOSE AZEVEDO MINHOTO - 72             06114000                                                            000068
2SR. CAIXA, APOS O VENCIMENTO COBRAR 10% DE MULTA                                NAO RECEBER APOS 30 DIAS DO VENCIMENTO.                                                                                                                                                                                                         01031800000000000000103180000000000000       0090770900066125858398031811000069
100000000000000000000009077090006612500000000000000000000000010002100043122803181300000000002            2  01431228031810031800000002252520000000001N010318000000000000000000000000000000000000000000000000000000000000000100043122850800ANTONIO JOAQUIM GOES                    ANTONIO DOAS DA SILVA - 412 - VILA AMALI            02618110                                                            000071
2SR. CAIXA, APOS O VENCIMENTO COBRAR 10% DE MULTA                                NAO RECEBER APOS 30 DIAS DO VENCIMENTO.                                                                                                                                                                                                         01031800000000000000103180000000000000       0090770900066125431228031813000072
100000000000000000000009077090006612500000000000000000000000010002100003865703181P00000000002            2  01038657031810031800000002957390000000001N010318000000000000000000000000000000000000000000000000000000000000000100003865776841FRANCISCO JOSE ROCCO                    RUA FABIO JOSE BEZERRA - 130 AP.86 - PAR            03805000                                                            000074
2SR. CAIXA, APOS O VENCIMENTO COBRAR 10% DE MULTA                                NAO RECEBER APOS 30 DIAS DO VENCIMENTO.                                                                                                                                                                                                         01031800000000000000103180000000000000       009077090006612503865703181P000075
100000000000000000000009077090006612500000000000000000000000010002100028309503181600000000002            2  01283095031810031800000002637320000000001N010318000000000000000000000000000000000000000000000000000000000000000100028309524803DEISE RIBEIRO BARBOSA                   RUA CANDIDO JOSE DE ANDRADE - 173 - ERME            03807030                                                            000077
2SR. CAIXA, APOS O VENCIMENTO COBRAR 10% DE MULTA                                NAO RECEBER APOS 30 DIAS DO VENCIMENTO.                                                                                                                                                                                                         01031800000000000000103180000000000000       0090770900066125283095031816000078
100000000000000000000009077090006612500000000000000000000000010002100011277903181600000000002            2  01112779031810031800000003130190000000001N010318000000000000000000000000000000000000000000000000000000000000000100011277908893JOSE AILTON LOPES DE AZEVEDO            RUA MAESTRO JOAO SEPE - 19 - JARDIM MARI            04181030                                                            000080
2SR. CAIXA, APOS O VENCIMENTO COBRAR 10% DE MULTA                                NAO RECEBER APOS 30 DIAS DO VENCIMENTO.                                                                                                                                                                                                         01031800000000000000103180000000000000       0090770900066125112779031816000081
100000000000000000000009077090006612500000000000000000000000010002100025215103181300000000002            2  01252151031810031800000002360580000000001N010318000000000000000000000000000000000000000000000000000000000000000100025215106886KLEBER LUIZ DOS SANTOS                  RUA MONTE CASTELO - 262 AP.15 - AVIACAO             11702720                                                            000083
2SR. CAIXA, APOS O VENCIMENTO COBRAR 10% DE MULTA                                NAO RECEBER APOS 30 DIAS DO VENCIMENTO.                                                                                                                                                                                                         01031800000000000000103180000000000000       0090770900066125252151031813000084
100000000000000000000009077090006612500000000000000000000000010002100090206703181000000000002            2  01902067031810031800000002636650000000001N010318000000000000000000000000000000000000000000000000000000000000000100090206789815NEREIDE RODRIGUES FERREIRA              AVENIDA PADRE ESTANISLAU DE CAMPOS - 205            03590060                                                            000086
2SR. CAIXA, APOS O VENCIMENTO COBRAR 10% DE MULTA                                NAO RECEBER APOS 30 DIAS DO VENCIMENTO.                                                                                                                                                                                                         01031800000000000000103180000000000000       0090770900066125902067031810000087
100000000000000000000009077090006612500000000000000000000000010002100029150703181900000000002            2  01291507031810031800000003086260000000001N010318000000000000000000000000000000000000000000000000000000000000000100029150742833ANA DEISE SANTOS DE ALMEIDA             RUA MONTE CASTELO - 296 AP.121 - AVIACAO            11702720                                                            000089
2SR. CAIXA, APOS O VENCIMENTO COBRAR 10% DE MULTA                                NAO RECEBER APOS 30 DIAS DO VENCIMENTO.                                                                                                                                                                                                         01031800000000000000103180000000000000       0090770900066125291507031819000090
100000000000000000000009077090006612500000000000000000000000010002100000811703181400000000002            2  01008117031810031800000002542100000000001N010318000000000000000000000000000000000000000000000000000000000000000100000811752801SERGIO BUENO DA SILVA                   RUA MONTE CASTELO - 262 AP.75 - AVIACAO             11702720                                                            000092
2SR. CAIXA, APOS O VENCIMENTO COBRAR 10% DE MULTA                                NAO RECEBER APOS 30 DIAS DO VENCIMENTO.                                                                                                                                                                                                         01031800000000000000103180000000000000       0090770900066125008117031814000093
100000000000000000000009077090006612500000000000000000000000010002100027100903181900000000002            2  01271009031810031800000002428460000000001N010318000000000000000000000000000000000000000000000000000000000000000100027100951810MARCIA RAMALHO RODRIGUES                RUA MONTE CASTELO - 296 AP.82 - AVIACAO             11702720                                                            000095
2SR. CAIXA, APOS O VENCIMENTO COBRAR 10% DE MULTA                                NAO RECEBER APOS 30 DIAS DO VENCIMENTO.                                                                                                                                                                                                         01031800000000000000103180000000000000       0090770900066125271009031819000096
100000000000000000000009077090006612500000000000000000000000010002100018344803181000000000002            2  01183448031810031800000003231540000000001N010318000000000000000000000000000000000000000000000000000000000000000100018344803888MARCELO BERNARDO                        RUA ESTONIA - 06 - INTERLAGOS - SAO PAUL            04785140                                                            000098
2SR. CAIXA, APOS O VENCIMENTO COBRAR 10% DE MULTA                                NAO RECEBER APOS 30 DIAS DO VENCIMENTO.                                                                                                                                                                                                         01031800000000000000103180000000000000       0090770900066125183448031810000099
100000000000000000000009077090006612500000000000000000000000010002100030210503181400000000002            2  01302105031810031800000002409880000000001N010318000000000000000000000000000000000000000000000000000000000000000100030210501820ROGERIO MUNIZ DA CUNHA                  RUA MONTE CASTELO - 296 AP.34 - AVIACAO             11702720                                                            000101
2SR. CAIXA, APOS O VENCIMENTO COBRAR 10% DE MULTA                                NAO RECEBER APOS 30 DIAS DO VENCIMENTO.                                                                                                                                                                                                         01031800000000000000103180000000000000       0090770900066125302105031814000102
100000000000000000000009077090006612500000000000000000000000010002100004004303181800000000002            2  01040043031810031800000004530550000000001N010318000000000000000000000000000000000000000000000000000000000000000100004004328896VANDERLEI  MARTINS DE ALMEIDA           RUA MONSENHOR TABOSA - 03 - PARQUE CISPE            03819300                                                            000104
2SR. CAIXA, APOS O VENCIMENTO COBRAR 10% DE MULTA                                NAO RECEBER APOS 30 DIAS DO VENCIMENTO.                                                                                                                                                                                                         01031800000000000000103180000000000000       0090770900066125040043031818000105
100000000000000000000009077090006612500000000000000000000000010002100005133003181200000000002            2  01051330031810031800000003094510000000001N010318000000000000000000000000000000000000000000000000000000000000000100005133053860VICENTE ARCIPRETE JUNIOR                RUA JOSE SIMOES FERREIRA FILHO - 80 - JA            06040090                                                            000107
2SR. CAIXA, APOS O VENCIMENTO COBRAR 10% DE MULTA                                NAO RECEBER APOS 30 DIAS DO VENCIMENTO.                                                                                                                                                                                                         01031800000000000000103180000000000000       0090770900066125051330031812000108
100000000000000000000009077090006612500000000000000000000000010002100056660203181700000000002            2  01566602031810031800000000752670000000001N010318000000000000000000000000000000000000000000000000000000000000000100056660235868JOSE DA SILVA                           RUA MONTE CASTELO - 296 AP.32 - AVIACAO             11702720                                                            000110
2SR. CAIXA, APOS O VENCIMENTO COBRAR 10% DE MULTA                                NAO RECEBER APOS 30 DIAS DO VENCIMENTO.                                                                                                                                                                                                         01031800000000000000103180000000000000       0090770900066125566602031817000111
100000000000000000000009077090006612500000000000000000000000010002100016339403181900000000002            2  01163394031810031800000002733440000000001N010318000000000000000000000000000000000000000000000000000000000000000100016339432832ALEX MONTEIRO DA SILVA                  RUA IVA MOURA LIMA - 04 - JARDIM MIRNA I            04855540                                                            000113
2SR. CAIXA, APOS O VENCIMENTO COBRAR 10% DE MULTA                                NAO RECEBER APOS 30 DIAS DO VENCIMENTO.                                                                                                                                                                                                         01031800000000000000103180000000000000       0090770900066125163394031819000114
100000000000000000000009077090006612500000000000000000000000010002100031803803181600000000002            2  01318038031810031800000002791370000000001N010318000000000000000000000000000000000000000000000000000000000000000100031803864877ELEILSON FELIPPE SANTOS                 RUA SANTA GREGORIA - 193 - CIDADE DUTRA             04806030                                                            000116
2SR. CAIXA, APOS O VENCIMENTO COBRAR 10% DE MULTA                                NAO RECEBER APOS 30 DIAS DO VENCIMENTO.                                                                                                                                                                                                         01031800000000000000103180000000000000       0090770900066125318038031816000117
100000000000000000000009077090006612500000000000000000000000010002100026032603181400000000002            2  01260326031810031800000001920910000000001N010318000000000000000000000000000000000000000000000000000000000000000100026032632857MARILA LOPES PEREIRA                    AVENIDA LUIZ GISHOKEM - 1761 AP.13 BL.05            05831315                                                            000119
2SR. CAIXA, APOS O VENCIMENTO COBRAR 10% DE MULTA                                NAO RECEBER APOS 30 DIAS DO VENCIMENTO.                                                                                                                                                                                                         01031800000000000000103180000000000000       0090770900066125260326031814000120
100000000000000000000009077090006612500000000000000000000000010002100063064503181000000000002            2  01630645031810031800000003326440000000001N010318000000000000000000000000000000000000000000000000000000000000000100063064537849ANTONIO APARECIDO DA SILVA DESTEFANO    RUA PROFESSOR TEODORO BRAGA - 46 - VILA             02966020                                                            000122
2SR. CAIXA, APOS O VENCIMENTO COBRAR 10% DE MULTA                                NAO RECEBER APOS 30 DIAS DO VENCIMENTO.                                                                                                                                                                                                         01031800000000000000103180000000000000       0090770900066125630645031810000123
100000000000000000000009077090006612500000000000000000000000010002100010107703181600000000002            2  01101077031810031800000003187720000000001N010318000000000000000000000000000000000000000000000000000000000000000100010107711834VALDEMAR FECCHIO                        RUA DOUTOR MARTINS DE OLIVEIRA - 529 AP.            05638030                                                            000125
2SR. CAIXA, APOS O VENCIMENTO COBRAR 10% DE MULTA                                NAO RECEBER APOS 30 DIAS DO VENCIMENTO.                                                                                                                                                                                                         01031800000000000000103180000000000000       0090770900066125101077031816000126
100000000000000000000009077090006612500000000000000000000000010002100003330703181500000000002            2  01033307031810031800000004100820000000001N010318000000000000000000000000000000000000000000000000000000000000000100003330791837MARLI DA SILVA BARBOSA                  RUA GLICERIO CERQUEIRA LEITE - 151 - JAR            03675040                                                            000128
2SR. CAIXA, APOS O VENCIMENTO COBRAR 10% DE MULTA                                NAO RECEBER APOS 30 DIAS DO VENCIMENTO.                                                                                                                                                                                                         01031800000000000000103180000000000000       0090770900066125033307031815000129
100000000000000000000009077090006612500000000000000000000000010002100008931003181300000000002            2  01089310031810031800000001666930000000001N010318000000000000000000000000000000000000000000000000000000000000000100008931031874MARIA MARINHO DE OLIVEIRA               AVENIDA 9 DE JULHO - 1854 AP.81 - BELA V            01312001                                                            000131
2SR. CAIXA, APOS O VENCIMENTO COBRAR 10% DE MULTA                                NAO RECEBER APOS 30 DIAS DO VENCIMENTO.                                                                                                                                                                                                         01031800000000000000103180000000000000       0090770900066125089310031813000132
100000000000000000000009077090006612500000000000000000000000010002100005920503181P00000000002            2  01059205031810031800000001936670000000001N010318000000000000000000000000000000000000000000000000000000000000000100005920579846SONIA MARIA VALDO POLLO                 RUA PALMIRA CERVI BARBARO - 797 - CIDADE            13214370                                                            000134
2SR. CAIXA, APOS O VENCIMENTO COBRAR 10% DE MULTA                                NAO RECEBER APOS 30 DIAS DO VENCIMENTO.                                                                                                                                                                                                         01031800000000000000103180000000000000       009077090006612505920503181P000135
100000000000000000000009077090006612500000000000000000000000010002100002494103181000000000002            2  01024941031810031800000002911860000000001N010318000000000000000000000000000000000000000000000000000000000000000100002494107881CIRO FRANCISCO MARCHI DURIGON           RUA MONTE CASTELO - 262 AP.115 - AVIACAO            11702720                                                            000137
2SR. CAIXA, APOS O VENCIMENTO COBRAR 10% DE MULTA                                NAO RECEBER APOS 30 DIAS DO VENCIMENTO.                                                                                                                                                                                                         01031800000000000000103180000000000000       0090770900066125024941031810000138
100000000000000000000009077090006612500000000000000000000000010002100007002303181800000000002            2  01070023031810031800000002862520000000001N010318000000000000000000000000000000000000000000000000000000000000000100007002345869DOMINGOS DE BRITO GALVAO                RUA MONTE CASTELO - 262 AP.44 - AVIACAO             11702720                                                            000140
2SR. CAIXA, APOS O VENCIMENTO COBRAR 10% DE MULTA                                NAO RECEBER APOS 30 DIAS DO VENCIMENTO.                                                                                                                                                                                                         01031800000000000000103180000000000000       0090770900066125070023031818000141
100000000000000000000009077090006612500000000000000000000000010002100009346803181800000000002            2  01093468031810031800000001192400000000001N010318000000000000000000000000000000000000000000000000000000000000000100009346863862NELSON DE SOUZA SANTOS                  RUA PRIMEIRA CRUZ - 90 - PARQUE INDEPEND            03236060                                                            000143
2SR. CAIXA, APOS O VENCIMENTO COBRAR 10% DE MULTA                                NAO RECEBER APOS 30 DIAS DO VENCIMENTO.                                                                                                                                                                                                         01031800000000000000103180000000000000       0090770900066125093468031818000144
100000000000000000000009077090006612500000000000000000000000010002100016299003181100000000002            2  01162990031810031800000005799610000000001N010318000000000000000000000000000000000000000000000000000000000000000100016299008857FERNANDO CESAR CARVALHO                 AVENIDA MARCONDES DE BRITO - 1340 AP.74             03509000                                                            000146
2SR. CAIXA, APOS O VENCIMENTO COBRAR 10% DE MULTA                                NAO RECEBER APOS 30 DIAS DO VENCIMENTO.                                                                                                                                                                                                         01031800000000000000103180000000000000       0090770900066125162990031811000147
100000000000000000000009077090006612500000000000000000000000010002100016299003182P00000000002            2  01162990031810031800000002759440000000001N010318000000000000000000000000000000000000000000000000000000000000000100016299008857FERNANDO CESAR CARVALHO                 AVENIDA MARCONDES DE BRITO - 1340 AP.74             03509000                                                            000149
2SR. CAIXA, APOS O VENCIMENTO COBRAR 10% DE MULTA                                NAO RECEBER APOS 30 DIAS DO VENCIMENTO.                                                                                                                                                                                                         01031800000000000000103180000000000000       009077090006612516299003182P000150
100000000000000000000009077090006612500000000000000000000000010002100031082803181500000000002            2  01310828031810031800000002772850000000001N010318000000000000000000000000000000000000000000000000000000000000000100031082898880VANESSA DOS SANTOS NEIVA                RUA MONTE CASTELO - 296 AP.33 - BAIRRO A            11702720                                                            000152
2SR. CAIXA, APOS O VENCIMENTO COBRAR 10% DE MULTA                                NAO RECEBER APOS 30 DIAS DO VENCIMENTO.                                                                                                                                                                                                         01031800000000000000103180000000000000       0090770900066125310828031815000153
100000000000000000000009077090006612500000000000000000000000010002100065895303181500000000002            2  01658953031810031800000001688270000000001N010318000000000000000000000000000000000000000000000000000000000000000100065895304834MARINHO BARBOSA CUNHA                   AVENIDA EDU CHAVES - 639 AP.43 - PARQUE             02229000                                                            000155
2SR. CAIXA, APOS O VENCIMENTO COBRAR 10% DE MULTA                                NAO RECEBER APOS 30 DIAS DO VENCIMENTO.                                                                                                                                                                                                         01031800000000000000103180000000000000       0090770900066125658953031815000156
9                                                                                                                                                                                                                                                                                                                                                                                                         000157