01REMESSA01COBRANCA       00000000000005316116AIRES CONSTRUTORA E INCORPORAD237BRADESCO       041122        MX0000206                                                                                                                                                                                                                                                                                     000001
100000000000000000000009002800441612000000000000000000000000010002100001204411221400000000002            2  01012044112225112200000003562900000000001N041122000000000000000000000000000000000000000000000000000000000000000100001204431809CEZAR TALAVERA JUNIOR                   RUA MAESTRO ARTURO DE ANGELIS  - 190 AP.            05139010                                                            000002
2SR. CAIXA, APOS O VENCIMENTO COBRAR 10% DE MULTA                                NAO RECEBER APOS 30 DIAS DO VENCIMENTO.                                                                                                                                                                                                         04112200000000000000411220000000000000       0090028004416120012044112214000003
100000000000000000000009002800441612000000000000000000000000010002100001024711221700000000002            2  01010247112225112200000004027820000000001N041122000000000000000000000000000000000000000000000000000000000000000100001024794881CLAUDIO RODRIGUES                       RUA ARACATUBA - 242 - LAPA - SAO PAULO -            05058010                                                            000005
2SR. CAIXA, APOS O VENCIMENTO COBRAR 10% DE MULTA                                NAO RECEBER APOS 30 DIAS DO VENCIMENTO.                                                                                                                                                                                                         04112200000000000000411220000000000000       0090028004416120010247112217000006
100000000000000000000009002800441612000000000000000000000000010002100002225011221800000000002            2  01022250112225112200000006175170000000001N041122000000000000000000000000000000000000000000000000000000000000000100002225072841PEDRO EDUARDO DE AZEVEDO                RUA NATH ZILMAN - 46 - JARDIM SAMAMBAIA             07623085                                                            000008
2SR. CAIXA, APOS O VENCIMENTO COBRAR 10% DE MULTA                                NAO RECEBER APOS 30 DIAS DO VENCIMENTO.                                                                                                                                                                                                         04112200000000000000411220000000000000       0090028004416120022250112218000009
100000000000000000000009002800441612000000000000000000000000010002100027198411221800000000002            2  01271984112225112200000002963760000000001N041122000000000000000000000000000000000000000000000000000000000000000100027198452809CRISTIANE AURELIANO DA SILVA MAIA       RUA MONTE CASTELO - 262 AP.25 - AVIACAO             11702720                                                            000011
2SR. CAIXA, APOS O VENCIMENTO COBRAR 10% DE MULTA                                NAO RECEBER APOS 30 DIAS DO VENCIMENTO.                                                                                                                                                                                                         04112200000000000000411220000000000000       0090028004416120271984112218000012
100000000000000000000009002800441612000000000000000000000000010002100021246211221100000000002            2  01212462112225112200000003617020000000001N041122000000000000000000000000000000000000000000000000000000000000000100021246231840ALEXANDRO DA CUNHA MIGUES               RUA DULCE - 71  - VILA CARRAO - SAO PAUL            03427040                                                            000014
2SR. CAIXA, APOS O VENCIMENTO COBRAR 10% DE MULTA                                NAO RECEBER APOS 30 DIAS DO VENCIMENTO.                                                                                                                                                                                                         04112200000000000000411220000000000000       0090028004416120212462112211000015
100000000000000000000009002800441612000000000000000000000000010002100018470511221100000000002            2  01184705112225112200000005321160000000001N041122000000000000000000000000000000000000000000000000000000000000000100018470520881SILVANA ALVES DE OLIVEIRA               RUA MONTE CASTELO - 262 AP.91 - AVIACAO             11702720                                                            000017
2SR. CAIXA, APOS O VENCIMENTO COBRAR 10% DE MULTA                                NAO RECEBER APOS 30 DIAS DO VENCIMENTO.                                                                                                                                                                                                         04112200000000000000411220000000000000       0090028004416120184705112211000018
100000000000000000000009002800441612000000000000000000000000010002100009297511221100000000002            2  01092975112225112200000003704520000000001N041122000000000000000000000000000000000000000000000000000000000000000100009297523846MARCOS ROBERTO DE CASTRO FERREIRA       RUA MONTE CASTELO - 262 AP.105 - AVIACAO            11702720                                                            000020
2SR. CAIXA, APOS O VENCIMENTO COBRAR 10% DE MULTA                                NAO RECEBER APOS 30 DIAS DO VENCIMENTO.                                                                                                                                                                                                         04112200000000000000411220000000000000       0090028004416120092975112211000021
100000000000000000000009002800441612000000000000000000000000010002100001164111221000000000002            2  01011641112225112200000004590750000000001N041122000000000000000000000000000000000000000000000000000000000000000100001164158864DAVID BLEY LACERDA                      RUA CONEGO ARAUJO MARCONDES - 188 - BAIR            02550080                                                            000023
2SR. CAIXA, APOS O VENCIMENTO COBRAR 10% DE MULTA                                NAO RECEBER APOS 30 DIAS DO VENCIMENTO.                                                                                                                                                                                                         04112200000000000000411220000000000000       0090028004416120011641112210000024
100000000000000000000009002800441612000000000000000000000000010002100031498011221400000000002            2  01314980112225112200000005579400000000001N041122000000000000000000000000000000000000000000000000000000000000000100031498008895POLIANE  SIBELE DA SILVA                PRACA GENERAL COSTA BARRETO - 56 AP.181             03325070                                                            000026
2SR. CAIXA, APOS O VENCIMENTO COBRAR 10% DE MULTA                                NAO RECEBER APOS 30 DIAS DO VENCIMENTO.                                                                                                                                                                                                         04112200000000000000411220000000000000       0090028004416120314980112214000027
100000000000000000000009002800441612000000000000000000000000010002100014386811221000000000002            2  01143868112225112200000002617810000000001N041122000000000000000000000000000000000000000000000000000000000000000100014386860134SEVERINO CARLOS DE OLIVEIRA             RUA MONTE CASTELO - 262 AP.54 - AVIACAO             11702720                                                            000029
2SR. CAIXA, APOS O VENCIMENTO COBRAR 10% DE MULTA                                NAO RECEBER APOS 30 DIAS DO VENCIMENTO.                                                                                                                                                                                                         04112200000000000000411220000000000000       0090028004416120143868112210000030
100000000000000000000009002800441612000000000000000000000000010002100039393711221600000000002            2  01393937112225112200000001804260000000001N041122000000000000000000000000000000000000000000000000000000000000000100039393790850NAIRON RICARDO DE ARAUJO SANTOS         RUA NITEROI - 267 CASA 04 - JARDIM INDEP            11380350                                                            000032
2SR. CAIXA, APOS O VENCIMENTO COBRAR 10% DE MULTA                                NAO RECEBER APOS 30 DIAS DO VENCIMENTO.                                                                                                                                                                                                         04112200000000000000411220000000000000       0090028004416120393937112216000033
100000000000000000000009002800441612000000000000000000000000010002100019288711221400000000002            2  01192887112225112200000002429820000000001N041122000000000000000000000000000000000000000000000000000000000000000100019288787844EMERSON LUIZ MARTINEZ PEREIRA           RUA MONTE CASTELO - 296 AP.74 - AVIACAO             11702720                                                            000035
2SR. CAIXA, APOS O VENCIMENTO COBRAR 10% DE MULTA                                NAO RECEBER APOS 30 DIAS DO VENCIMENTO.                                                                                                                                                                                                         04112200000000000000411220000000000000       0090028004416120192887112214000036
9                                                                                                                                                                                                                                                                                                                                                                                                         000037