01REMESSA01COBRANCA       00000000000005331186HB SANTOS CONSTRUTORA E INCORP237BRADESCO       010321        MX0000019                                                                                                                                                                                                                                                                                     000001
100000000000000000000009033990000995400000000000000000000000010002020026858603211400000000002            2  01268586032108032100000002684840000000001N010321000000000000000000000000000000000000000000000000000000000000000100026858625879GLAUCE FERREIRA DE OLIVEIRA FALSI       RUA LOURENCO ANTONIO BRAGANCA - 116 - JA            04403160                                                            000002
2SR. CAIXA, APOS O VENCIMENTO COBRAR 2% DE MULTA                                 NAO RECEBER APOS 30 DIAS DO VENCIMENTO.                                                                                                                                                                                                         01032100000000000000103210000000000000       0090339900009954268586032114000003
100000000000000000000009033990000995400000000000000000000000010002020016960803211500000000002            2  01169608032108032100000002563570000000001N010321000000000000000000000000000000000000000000000000000000000000000100016960804876LUIZ ALVES DE SOUZA JUNIOR              RUA FRANCISCO ALVES - 394 CASA B - PAECA            11450320                                                            000005
2SR. CAIXA, APOS O VENCIMENTO COBRAR 2% DE MULTA                                 NAO RECEBER APOS 30 DIAS DO VENCIMENTO.                                                                                                                                                                                                         01032100000000000000103210000000000000       0090339900009954169608032115000006
100000000000000000000009033990000995400000000000000000000000010002020008899303211200000000002            2  01088993032108032100000002546900000000001N010321000000000000000000000000000000000000000000000000000000000000000100008899362858ELAINE D ALMEIDA FERDINANDY             ALAMEDA SUBTENENTE AVIADOR FRANCISCO HIE            02187040                                                            000008
2SR. CAIXA, APOS O VENCIMENTO COBRAR 2% DE MULTA                                 NAO RECEBER APOS 30 DIAS DO VENCIMENTO.                                                                                                                                                                                                         01032100000000000000103210000000000000       0090339900009954088993032112000009
100000000000000000000009033990000995400000000000000000000000010002020029425003211700000000002            2  01294250032108032100000002553280000000001N010321000000000000000000000000000000000000000000000000000000000000000100029425027897FABIA DOS SANTOS DE ANDRADE             AVENIDA ALCIDES CANDIDO DOS SANTOS - 248            11705480                                                            000011
2SR. CAIXA, APOS O VENCIMENTO COBRAR 2% DE MULTA                                 NAO RECEBER APOS 30 DIAS DO VENCIMENTO.                                                                                                                                                                                                         01032100000000000000103210000000000000       0090339900009954294250032117000012
100000000000000000000009033990000995400000000000000000000000010002020078382703211200000000002            2  01783827032108032100000002580230000000001N010321000000000000000000000000000000000000000000000000000000000000000100078382700497JARMELINA BARBOSA DA SILVA              RUA OSCAR CINTRA GORDINHO - 211 AP.51 -             01512010                                                            000014
2SR. CAIXA, APOS O VENCIMENTO COBRAR 2% DE MULTA                                 NAO RECEBER APOS 30 DIAS DO VENCIMENTO.                                                                                                                                                                                                         01032100000000000000103210000000000000       0090339900009954783827032112000015
100000000000000000000009033990000995400000000000000000000000010002020007535303211100000000002            2  01075353032108032100000002530230000000001N010321000000000000000000000000000000000000000000000000000000000000000100007535375839AINAILDE PEREIRA DE CASTRO OLIVETTO     TRAVESSA DORALINA ELIETE ADAO DA SILVA -            08021026                                                            000017
2SR. CAIXA, APOS O VENCIMENTO COBRAR 2% DE MULTA                                 NAO RECEBER APOS 30 DIAS DO VENCIMENTO.                                                                                                                                                                                                         01032100000000000000103210000000000000       0090339900009954075353032111000018
100000000000000000000009033990000995400000000000000000000000010002020017229703211700000000002            2  01172297032108032100000002680230000000001N010321000000000000000000000000000000000000000000000000000000000000000100017229751802BERENICE VIEIRA KERSTING                RUA ATIBAIA - 17 AP.417 - BAIRRO IMPERAD            11707380                                                            000020
2SR. CAIXA, APOS O VENCIMENTO COBRAR 2% DE MULTA                                 NAO RECEBER APOS 30 DIAS DO VENCIMENTO.                                                                                                                                                                                                         01032100000000000000103210000000000000       0090339900009954172297032117000021
100000000000000000000009033990000995400000000000000000000000010002020028974203211900000000002            2  01289742032108032100000002503280000000001N010321000000000000000000000000000000000000000000000000000000000000000100028974233827MARISTELA FAVANI DE OLIVEIRA            RUA GIUSEPPE CARNEVALLI - 96 - BAIRRO BO            09572100                                                            000023
2SR. CAIXA, APOS O VENCIMENTO COBRAR 2% DE MULTA                                 NAO RECEBER APOS 30 DIAS DO VENCIMENTO.                                                                                                                                                                                                         01032100000000000000103210000000000000       0090339900009954289742032119000024
100000000000000000000009033990000995400000000000000000000000010002020092184803211600000000002            2  01921848032108032100000002469950000000001N010321000000000000000000000000000000000000000000000000000000000000000100092184804800CARMEM DO SOCORRO GUILHERME             ESTRADA SAO FRANCISCO - 1.850 AP.182A -             06765000                                                            000026
2SR. CAIXA, APOS O VENCIMENTO COBRAR 2% DE MULTA                                 NAO RECEBER APOS 30 DIAS DO VENCIMENTO.                                                                                                                                                                                                         01032100000000000000103210000000000000       0090339900009954921848032116000027
100000000000000000000009033990000995400000000000000000000000010002020092184803212400000000002            2  01921848032108032100000002469940000000001N010321000000000000000000000000000000000000000000000000000000000000000100092184804800CARMEM DO SOCORRO GUILHERME             ESTRADA SAO FRANCISCO - 1.850 AP.182A -             06765000                                                            000029
2SR. CAIXA, APOS O VENCIMENTO COBRAR 2% DE MULTA                                 NAO RECEBER APOS 30 DIAS DO VENCIMENTO.                                                                                                                                                                                                         01032100000000000000103210000000000000       0090339900009954921848032124000030
100000000000000000000009033990000995400000000000000000000000010002020009169703211600000000002            2  01091697032108032100000001980920000000001N010321000000000000000000000000000000000000000000000000000000000000000100009169701830TADEU CONSTANTINO LOPES                 RUA JOSE ANTONIO COELHO - 349 CASA 01 -             04011061                                                            000032
2SR. CAIXA, APOS O VENCIMENTO COBRAR 2% DE MULTA                                 NAO RECEBER APOS 30 DIAS DO VENCIMENTO.                                                                                                                                                                                                         01032100000000000000103210000000000000       0090339900009954091697032116000033
100000000000000000000009033990000995400000000000000000000000010002020042480103211400000000002            2  01424801032108032100000002519950000000001N010321000000000000000000000000000000000000000000000000000000000000000100042480155870JAMITRE SOIOMARA ALVES DO NASCIMENTO DAVAVENIDA PRESIDENTE CASTELO BRANCO - 1.80            11700015                                                            000035
2SR. CAIXA, APOS O VENCIMENTO COBRAR 2% DE MULTA                                 NAO RECEBER APOS 30 DIAS DO VENCIMENTO.                                                                                                                                                                                                         01032100000000000000103210000000000000       0090339900009954424801032114000036
100000000000000000000009033990000995400000000000000000000000010002020004611203211000000000002            2  01046112032108032100000002466260000000001N010321000000000000000000000000000000000000000000000000000000000000000100004611218830TANIA MARIA DA SILVA NUNES PEREIRA LUIZ RODOVIA RAPOSO TAVARES, 7389 KM 17,5 - A            05576200                                                            000038
2SR. CAIXA, APOS O VENCIMENTO COBRAR 2% DE MULTA                                 NAO RECEBER APOS 30 DIAS DO VENCIMENTO.                                                                                                                                                                                                         01032100000000000000103210000000000000       0090339900009954046112032110000039
100000000000000000000009033990000995400000000000000000000000010002020008966503211P00000000002            2  01089665032108032100000002380920000000001N010321000000000000000000000000000000000000000000000000000000000000000100008966511856MONICA SILVA REIS                       RUA ORATORIO - 264 E FUNDOS - BANGU - SA            09280550                                                            000041
2SR. CAIXA, APOS O VENCIMENTO COBRAR 2% DE MULTA                                 NAO RECEBER APOS 30 DIAS DO VENCIMENTO.                                                                                                                                                                                                         01032100000000000000103210000000000000       009033990000995408966503211P000042
100000000000000000000009033990000995400000000000000000000000010002020036898603211800000000002            2  01368986032108032100000002397590000000001N010321000000000000000000000000000000000000000000000000000000000000000100036898609890GABRIEL FRANCHESCHI PALVO               SGAN 911,MODULO F, BLOCO A, GREEN PARK -            70790110                                                            000044
2SR. CAIXA, APOS O VENCIMENTO COBRAR 2% DE MULTA                                 NAO RECEBER APOS 30 DIAS DO VENCIMENTO.                                                                                                                                                                                                         01032100000000000000103210000000000000       0090339900009954368986032118000045
100000000000000000000009033990000995400000000000000000000000010002020004170403211100000000002            2  01041704032108032100000002480230000000001N010321000000000000000000000000000000000000000000000000000000000000000100004170457862JOAO MARCOS ROCHA DA SILVA              RUA AVENCA - 82 - JARDIM ADRIANA - ITAQU            08582180                                                            000047
2SR. CAIXA, APOS O VENCIMENTO COBRAR 2% DE MULTA                                 NAO RECEBER APOS 30 DIAS DO VENCIMENTO.                                                                                                                                                                                                         01032100000000000000103210000000000000       0090339900009954041704032111000048
100000000000000000000009033990000995400000000000000000000000010002020001356903211000000000002            2  01013569032108032100000002557450000000001N010321000000000000000000000000000000000000000000000000000000000000000100001356993800DALVA MARIA DOS SANTOS                  RUA THOME DE SOUZA - 274 CASA 01 - AVIAC            11702840                                                            000050
2SR. CAIXA, APOS O VENCIMENTO COBRAR 2% DE MULTA                                 NAO RECEBER APOS 30 DIAS DO VENCIMENTO.                                                                                                                                                                                                         01032100000000000000103210000000000000       0090339900009954013569032110000051
9                                                                                                                                                                                                                                                                                                                                                                                                         000052