01REMESSA01COBRANCA       00000000000008017025HB SANTOS CONSTRUTORA E INCORP237BRADESCO       010721        MX0000131                                                                                                                                                                                                                                                                                     000001
100000000000000000000009033990000627000000000000000000000000010002020016479007211700000000002            2  01164790072109072100000004439900000000001N010721000000000000000000000000000000000000000000000000000000000000000100016479002806LOURDES PEREIRA DE QUEIROZ SECANECHIA   RUA PAULINO CURSI - 437 - CIDADE SAO MAT            03960060                                                            000002
2SR. CAIXA, APOS O VENCIMENTO COBRAR 2% DE MULTA                                 NAO RECEBER APOS 30 DIAS DO VENCIMENTO.                                                                                                                                                                                                         01072100000000000000107210000000000000       0090339900006270164790072117000003
100000000000000000000009033990000627000000000000000000000000010002020009361407211400000000002            2  01093614072109072100000003223370000000001N010721000000000000000000000000000000000000000000000000000000000000000100009361471805JOSE BARBOSA DA SILVA                   RUA ALFREDO INACIO TRINDADE  - 60 AP.44             02344100                                                            000005
2SR. CAIXA, APOS O VENCIMENTO COBRAR 2% DE MULTA                                 NAO RECEBER APOS 30 DIAS DO VENCIMENTO.                                                                                                                                                                                                         01072100000000000000107210000000000000       0090339900006270093614072114000006
100000000000000000000009033990000627000000000000000000000000010002020012756907211800000000002            2  01127569072109072100000002782490000000001N010721000000000000000000000000000000000000000000000000000000000000000100012756959812ITAMAR JUVENAL DIAS DA SILVA            RUA ELISEU REINALDO MORAES VIEIRA - 90 A            02858000                                                            000008
2SR. CAIXA, APOS O VENCIMENTO COBRAR 2% DE MULTA                                 NAO RECEBER APOS 30 DIAS DO VENCIMENTO.                                                                                                                                                                                                         01072100000000000000107210000000000000       0090339900006270127569072118000009
100000000000000000000009033990000627000000000000000000000000010002020028802107211300000000002            2  01288021072109072100000002970460000000001N010721000000000000000000000000000000000000000000000000000000000000000100028802158894ELIEL HENRIQUE ZUZA                     RUA CARLOS JOSE BORSTENS - 50 AP.43 - BA            11702750                                                            000011
2SR. CAIXA, APOS O VENCIMENTO COBRAR 2% DE MULTA                                 NAO RECEBER APOS 30 DIAS DO VENCIMENTO.                                                                                                                                                                                                         01072100000000000000107210000000000000       0090339900006270288021072113000012
100000000000000000000009033990000627000000000000000000000000010002020005313707211300000000002            2  01053137072111072100000002401140000000001N010721000000000000000000000000000000000000000000000000000000000000000100005313717863EDIMICIO JOSE DE ARAUJO                 RUA JOSE CALIXTO DO CARMO - 286 AP.101 -            11702690                                                            000014
2SR. CAIXA, APOS O VENCIMENTO COBRAR 2% DE MULTA                                 NAO RECEBER APOS 30 DIAS DO VENCIMENTO.                                                                                                                                                                                                         01072100000000000000107210000000000000       0090339900006270053137072113000015
100000000000000000000009033990000627000000000000000000000000010002020029433607211100000000002            2  01294336072111072100000002306700000000001N010721000000000000000000000000000000000000000000000000000000000000000100029433631897MARIO MUNIZ                             RUA JOSE CALIXTO DO CARMO - 286 AP.53 -             11702690                                                            000017
2SR. CAIXA, APOS O VENCIMENTO COBRAR 2% DE MULTA                                 NAO RECEBER APOS 30 DIAS DO VENCIMENTO.                                                                                                                                                                                                         01072100000000000000107210000000000000       0090339900006270294336072111000018
100000000000000000000009033990000627000000000000000000000000010002020005029807211400000000002            2  01050298072109072100000002836900000000001N010721000000000000000000000000000000000000000000000000000000000000000100005029828885LAURINETE DA CONCEICAO DE NORONHA       RUA MARIA LUCIA DE TOLEDO LEITE MORAES -            04434040                                                            000020
2SR. CAIXA, APOS O VENCIMENTO COBRAR 2% DE MULTA                                 NAO RECEBER APOS 30 DIAS DO VENCIMENTO.                                                                                                                                                                                                         01072100000000000000107210000000000000       0090339900006270050298072114000021
100000000000000000000009033990000627000000000000000000000000010002020013388907211600000000002            2  01133889072111072100000002248660000000001N010721000000000000000000000000000000000000000000000000000000000000000100013388936889NEUTON DE SOUZA RAMOS                   RUA MARIA CRISTINA - 932 - JARDIM CASQUE            11533160                                                            000023
2SR. CAIXA, APOS O VENCIMENTO COBRAR 2% DE MULTA                                 NAO RECEBER APOS 30 DIAS DO VENCIMENTO.                                                                                                                                                                                                         01072100000000000000107210000000000000       0090339900006270133889072116000024
100000000000000000000009033990000627000000000000000000000000010002020012774907211600000000002            2  01127749072111072100000002290890000000001N010721000000000000000000000000000000000000000000000000000000000000000100012774906865JOSE MILTON SANTIAGO                    RUA BATATAIS - 47 - CIDADE ESTELA - POA             08563140                                                            000026
2SR. CAIXA, APOS O VENCIMENTO COBRAR 2% DE MULTA                                 NAO RECEBER APOS 30 DIAS DO VENCIMENTO.                                                                                                                                                                                                         01072100000000000000107210000000000000       0090339900006270127749072116000027
100000000000000000000009033990000627000000000000000000000000010002020016294107211100000000002            2  01162941072109072100000002816560000000001N010721000000000000000000000000000000000000000000000000000000000000000100016294119812JURACY FELIX DE ARRUDA                  RUA CARLOS JOSE BORSTENS - 50 AP.23 - AV            11702750                                                            000029
2SR. CAIXA, APOS O VENCIMENTO COBRAR 2% DE MULTA                                 NAO RECEBER APOS 30 DIAS DO VENCIMENTO.                                                                                                                                                                                                         01072100000000000000107210000000000000       0090339900006270162941072111000030
100000000000000000000009033990000627000000000000000000000000010002020005613807211600000000002            2  01056138072111072100000002106980000000001N010721000000000000000000000000000000000000000000000000000000000000000100005613843805NILZA MARIA DE OLIVEIRA                 RUA JOSE GONCALVES DE FREITAS - 66 C2 -             08210550                                                            000032
2SR. CAIXA, APOS O VENCIMENTO COBRAR 2% DE MULTA                                 NAO RECEBER APOS 30 DIAS DO VENCIMENTO.                                                                                                                                                                                                         01072100000000000000107210000000000000       0090339900006270056138072116000033
100000000000000000000009033990000627000000000000000000000000010002020007574907211600000000002            2  01075749072111072100000002162760000000001N010721000000000000000000000000000000000000000000000000000000000000000100007574936889JORGE LUCIANO PEREIRA BORRIELLO         RUA JOSE CALIXTO DO CARMO - 286 AP.54 -             11702690                                                            000035
2SR. CAIXA, APOS O VENCIMENTO COBRAR 2% DE MULTA                                 NAO RECEBER APOS 30 DIAS DO VENCIMENTO.                                                                                                                                                                                                         01072100000000000000107210000000000000       0090339900006270075749072116000036
100000000000000000000009033990000627000000000000000000000000010002020008214907211900000000002            2  01082149072111072100000002195560000000001N010721000000000000000000000000000000000000000000000000000000000000000100008214973830JAMIL CHALA                             RUA JOSE CALIXTO DO CARMO - 286 AP.22 -             11702690                                                            000038
2SR. CAIXA, APOS O VENCIMENTO COBRAR 2% DE MULTA                                 NAO RECEBER APOS 30 DIAS DO VENCIMENTO.                                                                                                                                                                                                         01072100000000000000107210000000000000       0090339900006270082149072119000039
100000000000000000000009033990000627000000000000000000000000010002020032495007211600000000002            2  01324950072111072100000002460420000000001N010721000000000000000000000000000000000000000000000000000000000000000100032495004881PAULO EDUARDO DOS SANTOS                RUA REPUBLICA DO IRAQUE - 1119 - CAMPO B            04611002                                                            000041
2SR. CAIXA, APOS O VENCIMENTO COBRAR 2% DE MULTA                                 NAO RECEBER APOS 30 DIAS DO VENCIMENTO.                                                                                                                                                                                                         01072100000000000000107210000000000000       0090339900006270324950072116000042
100000000000000000000009033990000627000000000000000000000000010002020016498007211300000000002            2  01164980072111072100000002157860000000001N010721000000000000000000000000000000000000000000000000000000000000000100016498053810GILMA CEZARIO GARCIA CORRITORI          RUA LAURENTINO XAVIER DOS SANTOS - 336 -            08240740                                                            000044
2SR. CAIXA, APOS O VENCIMENTO COBRAR 2% DE MULTA                                 NAO RECEBER APOS 30 DIAS DO VENCIMENTO.                                                                                                                                                                                                         01072100000000000000107210000000000000       0090339900006270164980072113000045
100000000000000000000009033990000627000000000000000000000000010002020029339007211200000000002            2  01293390072111072100000002307450000000001N010721000000000000000000000000000000000000000000000000000000000000000100029339051831RONALD DIDOFF                           RUA CORONEL FERREIRA BRAGA - 188 - VILA             03522010                                                            000047
2SR. CAIXA, APOS O VENCIMENTO COBRAR 2% DE MULTA                                 NAO RECEBER APOS 30 DIAS DO VENCIMENTO.                                                                                                                                                                                                         01072100000000000000107210000000000000       0090339900006270293390072112000048
100000000000000000000009033990000627000000000000000000000000010002020017357807211400000000002            2  01173578072111072100000002443800000000001N010721000000000000000000000000000000000000000000000000000000000000000100017357859894MARCIO GUIMARAES                        RUA GENERAL CAMARA - 188 SALA 11 - CENTR            11010120                                                            000050
2SR. CAIXA, APOS O VENCIMENTO COBRAR 2% DE MULTA                                 NAO RECEBER APOS 30 DIAS DO VENCIMENTO.                                                                                                                                                                                                         01072100000000000000107210000000000000       0090339900006270173578072114000051
100000000000000000000009033990000627000000000000000000000000010002020010563007211400000000002            2  01105630072111072100000002506250000000001N010721000000000000000000000000000000000000000000000000000000000000000100010563033878VERA LUCIA RIBEIRO LONGANEZI            RUA DOS CAMARES - 150 AP.24 BL.02 - CARA            02068030                                                            000053
2SR. CAIXA, APOS O VENCIMENTO COBRAR 2% DE MULTA                                 NAO RECEBER APOS 30 DIAS DO VENCIMENTO.                                                                                                                                                                                                         01072100000000000000107210000000000000       0090339900006270105630072114000054
100000000000000000000009033990000627000000000000000000000000010002020005529607211900000000002            2  01055296072111072100000002274340000000001N010721000000000000000000000000000000000000000000000000000000000000000100005529616801JOAQUIM JORGE DA COSTA                  RUA JOSE CALIXTO DO CARMO - 286 AP.106 -            11702690                                                            000056
2SR. CAIXA, APOS O VENCIMENTO COBRAR 2% DE MULTA                                 NAO RECEBER APOS 30 DIAS DO VENCIMENTO.                                                                                                                                                                                                         01072100000000000000107210000000000000       0090339900006270055296072119000057
100000000000000000000009033990000627000000000000000000000000010002020015550707211500000000002            2  01155507072109072100000002150370000000001N010721000000000000000000000000000000000000000000000000000000000000000100015550706806MARY MIWA                               RUA CARLOS JOSE BORSTENS - 50 AP.105 - A            11702750                                                            000059
2SR. CAIXA, APOS O VENCIMENTO COBRAR 2% DE MULTA                                 NAO RECEBER APOS 30 DIAS DO VENCIMENTO.                                                                                                                                                                                                         01072100000000000000107210000000000000       0090339900006270155507072115000060
100000000000000000000009033990000627000000000000000000000000010002020015464607211500000000002            2  01154646072111072100000002390880000000001N010721000000000000000000000000000000000000000000000000000000000000000100015464647864SONIA TERESA VOLPATO                    RUA JOSE CALIXTO DO CARMO - 286 AP.73 -             11702690                                                            000062
2SR. CAIXA, APOS O VENCIMENTO COBRAR 2% DE MULTA                                 NAO RECEBER APOS 30 DIAS DO VENCIMENTO.                                                                                                                                                                                                         01072100000000000000107210000000000000       0090339900006270154646072115000063
100000000000000000000009033990000627000000000000000000000000010002020008657807211400000000002            2  01086578072111072100000002366880000000001N010721000000000000000000000000000000000000000000000000000000000000000100008657886855ARLINDO DA CRUZ                         AVENIDA ARICANDUVA - 8.256 AP.54 BL.10 -            03951220                                                            000065
2SR. CAIXA, APOS O VENCIMENTO COBRAR 2% DE MULTA                                 NAO RECEBER APOS 30 DIAS DO VENCIMENTO.                                                                                                                                                                                                         01072100000000000000107210000000000000       0090339900006270086578072114000066
100000000000000000000009033990000627000000000000000000000000010002020004265707211400000000002            2  01042657072109072100000003168490000000001N010721000000000000000000000000000000000000000000000000000000000000000100004265781713ALEXANDRE CASADO COSTA                  RUA CARLOS JOSE BORSTENS - 50 AP.33 - AV            11702750                                                            000068
2SR. CAIXA, APOS O VENCIMENTO COBRAR 2% DE MULTA                                 NAO RECEBER APOS 30 DIAS DO VENCIMENTO.                                                                                                                                                                                                         01072100000000000000107210000000000000       0090339900006270042657072114000069
100000000000000000000009033990000627000000000000000000000000010002020059735107211200000000002            2  01597351072109072100000001338300000000001N010721000000000000000000000000000000000000000000000000000000000000000100059735180863HELIO JOSE MARQUES                      RUA MARTIM AFONSO DE SOUZA - 1007 AP.102            11702790                                                            000071
2SR. CAIXA, APOS O VENCIMENTO COBRAR 2% DE MULTA                                 NAO RECEBER APOS 30 DIAS DO VENCIMENTO.                                                                                                                                                                                                         01072100000000000000107210000000000000       0090339900006270597351072112000072
100000000000000000000009033990000627000000000000000000000000010002020026347807211600000000002            2  01263478072111072100000002530120000000001N010721000000000000000000000000000000000000000000000000000000000000000100026347872862VALDECI SILVA MEIRELES                  RUA JOSE BATISTA DA SILVA - 292 - JARDIM            06851470                                                            000074
2SR. CAIXA, APOS O VENCIMENTO COBRAR 2% DE MULTA                                 NAO RECEBER APOS 30 DIAS DO VENCIMENTO.                                                                                                                                                                                                         01072100000000000000107210000000000000       0090339900006270263478072116000075
100000000000000000000009033990000627000000000000000000000000010002020025443607211700000000002            2  01254436072109072100000004583420000000001N010721000000000000000000000000000000000000000000000000000000000000000100025443691830SILVANETE PEREIRA CARNELOS              RUA CARLOS JOSE BORSTENS - 50 AP.102 - A            11702750                                                            000077
2SR. CAIXA, APOS O VENCIMENTO COBRAR 2% DE MULTA                                 NAO RECEBER APOS 30 DIAS DO VENCIMENTO.                                                                                                                                                                                                         01072100000000000000107210000000000000       0090339900006270254436072117000078
100000000000000000000009033990000627000000000000000000000000010002020013135207211700000000002            2  01131352072111072100000002324560000000001N010721000000000000000000000000000000000000000000000000000000000000000100013135261859EDUARDO ZANOLA                          RUA ROLANDO PIETRO BONINI - 46 - JARDIM             09781040                                                            000080
2SR. CAIXA, APOS O VENCIMENTO COBRAR 2% DE MULTA                                 NAO RECEBER APOS 30 DIAS DO VENCIMENTO.                                                                                                                                                                                                         01072100000000000000107210000000000000       0090339900006270131352072117000081
100000000000000000000009033990000627000000000000000000000000010002020009797607211800000000002            2  01097976072111072100000002263870000000001N010721000000000000000000000000000000000000000000000000000000000000000100009797626857RICARDO SOBRAL DE OLIVEIRA              RUA 23 DE MAIO - 139 AP.32 - VILA MIRIM             11704690                                                            000083
2SR. CAIXA, APOS O VENCIMENTO COBRAR 2% DE MULTA                                 NAO RECEBER APOS 30 DIAS DO VENCIMENTO.                                                                                                                                                                                                         01072100000000000000107210000000000000       0090339900006270097976072118000084
100000000000000000000009033990000627000000000000000000000000010002020004767607211900000000002            2  01047676072109072100000003871180000000001N010721000000000000000000000000000000000000000000000000000000000000000100004767679893ORLANDO GRANDE FILHO                    RUA ORLANDO MIGLIARI - 101 - JARDIM OURO            19906140                                                            000086
2SR. CAIXA, APOS O VENCIMENTO COBRAR 2% DE MULTA                                 NAO RECEBER APOS 30 DIAS DO VENCIMENTO.                                                                                                                                                                                                         01072100000000000000107210000000000000       0090339900006270047676072119000087
100000000000000000000009033990000627000000000000000000000000010002020006512507211600000000002            2  01065125072111072100000002036450000000001N010721000000000000000000000000000000000000000000000000000000000000000100006512547870MARIA DO CARMO FAGUNDES DOS REIS        RUA CARLOS MALCHER - 98 - PARQUE EDU CHA            02232020                                                            000089
2SR. CAIXA, APOS O VENCIMENTO COBRAR 2% DE MULTA                                 NAO RECEBER APOS 30 DIAS DO VENCIMENTO.                                                                                                                                                                                                         01072100000000000000107210000000000000       0090339900006270065125072116000090
100000000000000000000009033990000627000000000000000000000000010002020022728407211900000000002            2  01227284072111072100000002449670000000001N010721000000000000000000000000000000000000000000000000000000000000000100022728497842WILLIAN DE SOUZA MELLO                  RUA JOSE CALIXTO DO CARMO - 286 AP.111 -            11702690                                                            000092
2SR. CAIXA, APOS O VENCIMENTO COBRAR 2% DE MULTA                                 NAO RECEBER APOS 30 DIAS DO VENCIMENTO.                                                                                                                                                                                                         01072100000000000000107210000000000000       0090339900006270227284072119000093
100000000000000000000009033990000627000000000000000000000000010002020016909707211300000000002            2  01169097072111072100000002164720000000001N010721000000000000000000000000000000000000000000000000000000000000000100016909746805EDIVALDO SANTANA DOS SANTOS             ESTRADA JOAO GASPAR DELGADO - 80 AP.213             08536100                                                            000095
2SR. CAIXA, APOS O VENCIMENTO COBRAR 2% DE MULTA                                 NAO RECEBER APOS 30 DIAS DO VENCIMENTO.                                                                                                                                                                                                         01072100000000000000107210000000000000       0090339900006270169097072113000096
100000000000000000000009033990000627000000000000000000000000010002020022036007211000000000002            2  01220360072109072100000003361600000000001N010721000000000000000000000000000000000000000000000000000000000000000100022036003818DERLIS TERAN QUIROGA ROGATO             RUA JOAO RIBEIRO - 320 AP.131SB - CAMPES            09070250                                                            000098
2SR. CAIXA, APOS O VENCIMENTO COBRAR 2% DE MULTA                                 NAO RECEBER APOS 30 DIAS DO VENCIMENTO.                                                                                                                                                                                                         01072100000000000000107210000000000000       0090339900006270220360072110000099
100000000000000000000009033990000627000000000000000000000000010002020017229707213500000000002            2  01172297072109072100000003244250000000001N010721000000000000000000000000000000000000000000000000000000000000000100017229751802BERENICE VIEIRA KERSTING                RUA ATIBAIA - 17 AP.417 - BAIRRO IMPERAD            11707380                                                            000101
2SR. CAIXA, APOS O VENCIMENTO COBRAR 2% DE MULTA                                 NAO RECEBER APOS 30 DIAS DO VENCIMENTO.                                                                                                                                                                                                         01072100000000000000107210000000000000       0090339900006270172297072135000102
100000000000000000000009033990000627000000000000000000000000010002020012475607211400000000002            2  01124756072111072100000002346450000000001N010721000000000000000000000000000000000000000000000000000000000000000100012475663820CELIDALVA GOES DE CARVALHO              RUA JOSE CALIXTO DO CARMO - 286 AP.91 -             11702690                                                            000104
2SR. CAIXA, APOS O VENCIMENTO COBRAR 2% DE MULTA                                 NAO RECEBER APOS 30 DIAS DO VENCIMENTO.                                                                                                                                                                                                         01072100000000000000107210000000000000       0090339900006270124756072114000105
100000000000000000000009033990000627000000000000000000000000010002020033451607211100000000002            2  01334516072111072100000001959430000000001N010721000000000000000000000000000000000000000000000000000000000000000100033451620839ARAO ELISIARIO  NUNES                   RUA JOSE CALIXTO DO CARMO - 286 AP.64 -             11702690                                                            000107
2SR. CAIXA, APOS O VENCIMENTO COBRAR 2% DE MULTA                                 NAO RECEBER APOS 30 DIAS DO VENCIMENTO.                                                                                                                                                                                                         01072100000000000000107210000000000000       0090339900006270334516072111000108
100000000000000000000009033990000627000000000000000000000000010002020095758207211100000000002            2  01957582072111072100000002382940000000001N010721000000000000000000000000000000000000000000000000000000000000000100095758275891SHIRLEY TUNES ASTOLFI                   RUA GUAPERUVU - 656 AP.84 - VILA ARICAND            03504010                                                            000110
2SR. CAIXA, APOS O VENCIMENTO COBRAR 2% DE MULTA                                 NAO RECEBER APOS 30 DIAS DO VENCIMENTO.                                                                                                                                                                                                         01072100000000000000107210000000000000       0090339900006270957582072111000111
100000000000000000000009033990000627000000000000000000000000010002020045839207211900000000002            2  01458392072111072100000001520870000000001N010721000000000000000000000000000000000000000000000000000000000000000100045839263834LEONARDO ANTONIO CONCELLIERI            RUA JOSE CALIXTO DO CARMO - 286 AP.51 -             11702690                                                            000113
2SR. CAIXA, APOS O VENCIMENTO COBRAR 2% DE MULTA                                 NAO RECEBER APOS 30 DIAS DO VENCIMENTO.                                                                                                                                                                                                         01072100000000000000107210000000000000       0090339900006270458392072119000114
100000000000000000000009033990000627000000000000000000000000010002020011369107211P00000000002            2  01113691072111072100000002140450000000001N010721000000000000000000000000000000000000000000000000000000000000000100011369165803ELIANA CORREA DE OLIVEIRA               RUA MAESTRO ZEFERINO SANTANA - 65 - VILA            18040010                                                            000116
2SR. CAIXA, APOS O VENCIMENTO COBRAR 2% DE MULTA                                 NAO RECEBER APOS 30 DIAS DO VENCIMENTO.                                                                                                                                                                                                         01072100000000000000107210000000000000       009033990000627011369107211P000117
100000000000000000000009033990000627000000000000000000000000010002020002253807211300000000002            2  01022538072111072100000001902440000000001N010721000000000000000000000000000000000000000000000000000000000000000100002253816809EDMILSON ALVES DA SILVA                 RUA JOSE CALIXTO DO CARMO - 286 AP.93 -             11702690                                                            000119
2SR. CAIXA, APOS O VENCIMENTO COBRAR 2% DE MULTA                                 NAO RECEBER APOS 30 DIAS DO VENCIMENTO.                                                                                                                                                                                                         01072100000000000000107210000000000000       0090339900006270022538072113000120
100000000000000000000009033990000627000000000000000000000000010002020037947007211500000000002            2  01379470072111072100000003378860000000001N010721000000000000000000000000000000000000000000000000000000000000000100037947070873BRUNO DE CAETANO MARRINHAS              AVENIDA GENERAL BARRETO DE MENEZES - 323            09791150                                                            000122
2SR. CAIXA, APOS O VENCIMENTO COBRAR 2% DE MULTA                                 NAO RECEBER APOS 30 DIAS DO VENCIMENTO.                                                                                                                                                                                                         01072100000000000000107210000000000000       0090339900006270379470072115000123
100000000000000000000009033990000627000000000000000000000000010002020037517707211300000000002            2  01375177072109072100000003565500000000001N010721000000000000000000000000000000000000000000000000000000000000000100037517785869RENATO JOSE DE LIMA MELO                RUA ARISTIDES LOBO - 148 AP.41 BLOCO 03             03041100                                                            000125
2SR. CAIXA, APOS O VENCIMENTO COBRAR 2% DE MULTA                                 NAO RECEBER APOS 30 DIAS DO VENCIMENTO.                                                                                                                                                                                                         01072100000000000000107210000000000000       0090339900006270375177072113000126
100000000000000000000009033990000627000000000000000000000000010002020070367907211400000000002            2  01703679072111072100000001786500000000001N010721000000000000000000000000000000000000000000000000000000000000000100070367949849TEODOMIRO ALVES DOS SANTOS              RUA ANDRE PAZ - 13 - JARDIM SANTO ANDRE             08390230                                                            000128
2SR. CAIXA, APOS O VENCIMENTO COBRAR 2% DE MULTA                                 NAO RECEBER APOS 30 DIAS DO VENCIMENTO.                                                                                                                                                                                                         01072100000000000000107210000000000000       0090339900006270703679072114000129
100000000000000000000009033990000627000000000000000000000000010002020004410807211300000000002            2  01044108072109072100000002649190000000001N010721000000000000000000000000000000000000000000000000000000000000000100004410802860LUIZ ALBERTO MARINHO                    RUA DA INDEPENDENCIA - 706 AP.41B - CAMB            01524000                                                            000131
2SR. CAIXA, APOS O VENCIMENTO COBRAR 2% DE MULTA                                 NAO RECEBER APOS 30 DIAS DO VENCIMENTO.                                                                                                                                                                                                         01072100000000000000107210000000000000       0090339900006270044108072113000132
100000000000000000000009033990000627000000000000000000000000010002020018035007211000000000002            2  01180350072111072100000002391060000000001N010721000000000000000000000000000000000000000000000000000000000000000100018035075861ROSANGELA BISPO SANTOS                  RUA CASSIANO GABUS MENDES - 292 - JD. CA            09896160                                                            000134
2SR. CAIXA, APOS O VENCIMENTO COBRAR 2% DE MULTA                                 NAO RECEBER APOS 30 DIAS DO VENCIMENTO.                                                                                                                                                                                                         01072100000000000000107210000000000000       0090339900006270180350072110000135
100000000000000000000009033990000627000000000000000000000000010002020004767607212700000000002            2  01047676072109072100000003536640000000001N010721000000000000000000000000000000000000000000000000000000000000000100004767679893ORLANDO GRANDE FILHO                    RUA ORLANDO MIGLIARI - 101 - JARDIM OURO            19906140                                                            000137
2SR. CAIXA, APOS O VENCIMENTO COBRAR 2% DE MULTA                                 NAO RECEBER APOS 30 DIAS DO VENCIMENTO.                                                                                                                                                                                                         01072100000000000000107210000000000000       0090339900006270047676072127000138
100000000000000000000009033990000627000000000000000000000000010002020064677807211400000000002            2  01646778072109072100000002844940000000001N010721000000000000000000000000000000000000000000000000000000000000000100064677850887ANTONIO CARLOS DE OLIVEIRA              RUA DR.ANTONIO MAZILLI FILHO - 435 - PAR            02230070                                                            000140
2SR. CAIXA, APOS O VENCIMENTO COBRAR 2% DE MULTA                                 NAO RECEBER APOS 30 DIAS DO VENCIMENTO.                                                                                                                                                                                                         01072100000000000000107210000000000000       0090339900006270646778072114000141
100000000000000000000009033990000627000000000000000000000000010002020007328907211P00000000002            2  01073289072109072100000003471000000000001N010721000000000000000000000000000000000000000000000000000000000000000100007328927836BENEDITO APARECIDO ROCHA                AVENIDA SENADOR JOSE ERMINIO DE MORAES -            02357002                                                            000143
2SR. CAIXA, APOS O VENCIMENTO COBRAR 2% DE MULTA                                 NAO RECEBER APOS 30 DIAS DO VENCIMENTO.                                                                                                                                                                                                         01072100000000000000107210000000000000       009033990000627007328907211P000144
100000000000000000000009033990000627000000000000000000000000010002020028082607211900000000002            2  01280826072111072100000001983460000000001N010721000000000000000000000000000000000000000000000000000000000000000100028082615869PRISCILA PEREIRA                        ALAMEDA AFONSO BOCCHIGLIERI - 184 - INTE            04445130                                                            000146
2SR. CAIXA, APOS O VENCIMENTO COBRAR 2% DE MULTA                                 NAO RECEBER APOS 30 DIAS DO VENCIMENTO.                                                                                                                                                                                                         01072100000000000000107210000000000000       0090339900006270280826072119000147
100000000000000000000009033990000627000000000000000000000000010002020013184807211700000000002            2  01131848072111072100000002056840000000001N010721000000000000000000000000000000000000000000000000000000000000000100013184856810SYDNEY HENRIQUE GAMARANO JUNIOR         RUA JOSE CALIXTO DO CARMO - 286 AP.125 -            11702690                                                            000149
2SR. CAIXA, APOS O VENCIMENTO COBRAR 2% DE MULTA                                 NAO RECEBER APOS 30 DIAS DO VENCIMENTO.                                                                                                                                                                                                         01072100000000000000107210000000000000       0090339900006270131848072117000150
100000000000000000000009033990000627000000000000000000000000010002020058488607211700000000002            2  01584886072109072100000002594800000000001N010721000000000000000000000000000000000000000000000000000000000000000100058488618972ADAILTON ZANUTTO MORESCHI               R:RAPHAEL UNGARO - COND.RESERVA SERRA Q.            13212138                                                            000152
2SR. CAIXA, APOS O VENCIMENTO COBRAR 2% DE MULTA                                 NAO RECEBER APOS 30 DIAS DO VENCIMENTO.                                                                                                                                                                                                         01072100000000000000107210000000000000       0090339900006270584886072117000153
100000000000000000000009033990000627000000000000000000000000010002020040194807211100000000002            2  01401948072109072100000003445590000000001N010721000000000000000000000000000000000000000000000000000000000000000100040194815803JULIANA SANTOS PENSSE                   RUA SALVADOR SOARES - 85 - QUINHOES DA B            13190240                                                            000155
2SR. CAIXA, APOS O VENCIMENTO COBRAR 2% DE MULTA                                 NAO RECEBER APOS 30 DIAS DO VENCIMENTO.                                                                                                                                                                                                         01072100000000000000107210000000000000       0090339900006270401948072111000156
100000000000000000000009033990000627000000000000000000000000010002020011381907211800000000002            2  01113819072109072100000002749550000000001N010721000000000000000000000000000000000000000000000000000000000000000100011381987818MARIO DONIZETE MIGUEL DA SILVA          RUA JASPE - 215 - NOVA HIGIANOPOLIS - JA            06642270                                                            000158
2SR. CAIXA, APOS O VENCIMENTO COBRAR 2% DE MULTA                                 NAO RECEBER APOS 30 DIAS DO VENCIMENTO.                                                                                                                                                                                                         01072100000000000000107210000000000000       0090339900006270113819072118000159
100000000000000000000009033990000627000000000000000000000000010002020002196007211100000000002            2  01021960072111072100000001951070000000001N010721000000000000000000000000000000000000000000000000000000000000000100002196012831VILEFORT DIAS BORGES                    RUA PORTO XAVIER - 189 AP.64 - VILA CARM            08210170                                                            000161
2SR. CAIXA, APOS O VENCIMENTO COBRAR 2% DE MULTA                                 NAO RECEBER APOS 30 DIAS DO VENCIMENTO.                                                                                                                                                                                                         01072100000000000000107210000000000000       0090339900006270021960072111000162
100000000000000000000009033990000627000000000000000000000000010002020031861507211P00000000002            2  01318615072111072100000002027910000000001N010721000000000000000000000000000000000000000000000000000000000000000100031861586809VANIA TOMAZ                             RUA MANOEL DOS REIS MACHADO - 557 - JARD            13221653                                                            000164
2SR. CAIXA, APOS O VENCIMENTO COBRAR 2% DE MULTA                                 NAO RECEBER APOS 30 DIAS DO VENCIMENTO.                                                                                                                                                                                                         01072100000000000000107210000000000000       009033990000627031861507211P000165
100000000000000000000009033990000627000000000000000000000000010002020003104507211300000000002            2  01031045072109072100000007553370000000001N010721000000000000000000000000000000000000000000000000000000000000000100003104580804NELSON RODRIGUES                        RUA AGUA SANTA - 114 - AGUA RASA - SAO P            03179110                                                            000167
2SR. CAIXA, APOS O VENCIMENTO COBRAR 2% DE MULTA                                 NAO RECEBER APOS 30 DIAS DO VENCIMENTO.                                                                                                                                                                                                         01072100000000000000107210000000000000       0090339900006270031045072113000168
100000000000000000000009033990000627000000000000000000000000010002020007715307211100000000002            2  01077153072109072100000003191300000000001N010721000000000000000000000000000000000000000000000000000000000000000100007715360627NILTON RENNAN OLIVEIRA GOMES FILHO      RUA DR. ANTONIO BENTO - 230 AP.53 - VILA            11075260                                                            000170
2SR. CAIXA, APOS O VENCIMENTO COBRAR 2% DE MULTA                                 NAO RECEBER APOS 30 DIAS DO VENCIMENTO.                                                                                                                                                                                                         01072100000000000000107210000000000000       0090339900006270077153072111000171
100000000000000000000009033990000627000000000000000000000000010002020029028407211200000000002            2  01290284072109072100000001322190000000001N010721000000000000000000000000000000000000000000000000000000000000000100029028478825LEONARDO LOUZADA                        RUA CARLOS JOSE BORSTENS - 50 AP.35 - AV            11702750                                                            000173
2SR. CAIXA, APOS O VENCIMENTO COBRAR 2% DE MULTA                                 NAO RECEBER APOS 30 DIAS DO VENCIMENTO.                                                                                                                                                                                                         01072100000000000000107210000000000000       0090339900006270290284072112000174
100000000000000000000009033990000627000000000000000000000000010002020007194007211200000000002            2  01071940072111072100000002267710000000001N010721000000000000000000000000000000000000000000000000000000000000000100007194010895RAUL AMANTINO KIRK DE SANCTIS           AVENIDA SANTA CATARINA - 756 AP.01 - VIL            04378000                                                            000176
2SR. CAIXA, APOS O VENCIMENTO COBRAR 2% DE MULTA                                 NAO RECEBER APOS 30 DIAS DO VENCIMENTO.                                                                                                                                                                                                         01072100000000000000107210000000000000       0090339900006270071940072112000177
9                                                                                                                                                                                                                                                                                                                                                                                                         000178