01REMESSA01COBRANCA       00000000000004991781AIRES CONSTRUTORA E INCORPORAD237BRADESCO       110220        MX0000135                                                                                                                                                                                                                                                                                     000001
100000000000000000000009077090006612500000000000000000000000010002100001224502201900000000002            2  01012245022025022000000003756920000000001N110220000000000000000000000000000000000000000000000000000000000000000100001224509579REINALDO JUNIOR MARTINS DE ABREU        AVENIDA INTERLAGOS - 6485 SALA 6 - INTER            04777000                                                            000002
2SR. CAIXA, APOS O VENCIMENTO COBRAR 10% DE MULTA                                NAO RECEBER APOS 30 DIAS DO VENCIMENTO.                                                                                                                                                                                                         11022000000000000001102200000000000000       0090770900066125012245022019000003
100000000000000000000009077090006612500000000000000000000000010002100016338902201100000000002            2  01163389022025022000000003706880000000001N110220000000000000000000000000000000000000000000000000000000000000000100016338929806EDVALDO DA SILVA ANDRADE                RUA ARIA - 434 - PARQUE ALVES DE LIMA -             04902170                                                            000005
2SR. CAIXA, APOS O VENCIMENTO COBRAR 10% DE MULTA                                NAO RECEBER APOS 30 DIAS DO VENCIMENTO.                                                                                                                                                                                                         11022000000000000001102200000000000000       0090770900066125163389022011000006
100000000000000000000009077090006612500000000000000000000000010002100026836902201100000000002            2  01268369022025022000000003356860000000001N110220000000000000000000000000000000000000000000000000000000000000000100026836908860VANDERLEI FIGUEIREDO DE CARVALHO        RUA SANTO ANTONIO DE PADUA - 213 BLOCO 3            11717070                                                            000008
2SR. CAIXA, APOS O VENCIMENTO COBRAR 10% DE MULTA                                NAO RECEBER APOS 30 DIAS DO VENCIMENTO.                                                                                                                                                                                                         11022000000000000001102200000000000000       0090770900066125268369022011000009
100000000000000000000009077090006612500000000000000000000000010002100059861502201800000000002            2  01598615022025022000000003728520000000001N110220000000000000000000000000000000000000000000000000000000000000000100059861576800REINALDO LOPES DE OLIVEIRA              RUA DA SERVIDAO - 40 - VILA ROSCHEL - SA            04891045                                                            000011
2SR. CAIXA, APOS O VENCIMENTO COBRAR 10% DE MULTA                                NAO RECEBER APOS 30 DIAS DO VENCIMENTO.                                                                                                                                                                                                         11022000000000000001102200000000000000       0090770900066125598615022018000012
100000000000000000000009077090006612500000000000000000000000010002100016330902201600000000002            2  01163309022025022000000003705930000000001N110220000000000000000000000000000000000000000000000000000000000000000100016330938830KARINA CORDEIRO PIASSA                  AVENIDA ALDA - 1550 AP.103 BL.A - CENTRO            09910170                                                            000014
2SR. CAIXA, APOS O VENCIMENTO COBRAR 10% DE MULTA                                NAO RECEBER APOS 30 DIAS DO VENCIMENTO.                                                                                                                                                                                                         11022000000000000001102200000000000000       0090770900066125163309022016000015
100000000000000000000009077090006612500000000000000000000000010002100029380702201600000000002            2  01293807022025022000000003357050000000001N110220000000000000000000000000000000000000000000000000000000000000000100029380708882EDUARDO MENDONCA DAMASCENO              RUA MONTE CASTELO - 296 AP.12 - AVIACAO             11702720                                                            000017
2SR. CAIXA, APOS O VENCIMENTO COBRAR 10% DE MULTA                                NAO RECEBER APOS 30 DIAS DO VENCIMENTO.                                                                                                                                                                                                         11022000000000000001102200000000000000       0090770900066125293807022016000018
100000000000000000000009077090006612500000000000000000000000010002100023988502201P00000000002            2  01239885022025022000000003408700000000001N110220000000000000000000000000000000000000000000000000000000000000000100023988525634DALMY PIMENTA                           SAO CAETANO - 136 - VILA SAO VICENTE - U            38026220                                                            000020
2SR. CAIXA, APOS O VENCIMENTO COBRAR 10% DE MULTA                                NAO RECEBER APOS 30 DIAS DO VENCIMENTO.                                                                                                                                                                                                         11022000000000000001102200000000000000       009077090006612523988502201P000021
100000000000000000000009077090006612500000000000000000000000010002100004735202201100000000002            2  01047352022025022000000003706170000000001N110220000000000000000000000000000000000000000000000000000000000000000100004735273832DARIO LUIZ GONCALVES                    RUA MONTE CASTELO - 295 AP.113 - AVIACAO            11702720                                                            000023
2SR. CAIXA, APOS O VENCIMENTO COBRAR 10% DE MULTA                                NAO RECEBER APOS 30 DIAS DO VENCIMENTO.                                                                                                                                                                                                         11022000000000000001102200000000000000       0090770900066125047352022011000024
100000000000000000000009077090006612500000000000000000000000010002100007635202201100000000002            2  01076352022025022000000003313540000000001N110220000000000000000000000000000000000000000000000000000000000000000100007635293893SILVIO CARDOSO ZACARIAS                 RUA SOLIDONIO LEITE - 2718 AP.102 BLOCO             03275000                                                            000026
2SR. CAIXA, APOS O VENCIMENTO COBRAR 10% DE MULTA                                NAO RECEBER APOS 30 DIAS DO VENCIMENTO.                                                                                                                                                                                                         11022000000000000001102200000000000000       0090770900066125076352022011000027
100000000000000000000009077090006612500000000000000000000000010002100007975902201500000000002            2  01079759022025022000000003604960000000001N110220000000000000000000000000000000000000000000000000000000000000000100007975958808JOCY VIGNADO                            RUA PEDRO GONCALVES SOBRINHO - 568 - PAR            13098641                                                            000029
2SR. CAIXA, APOS O VENCIMENTO COBRAR 10% DE MULTA                                NAO RECEBER APOS 30 DIAS DO VENCIMENTO.                                                                                                                                                                                                         11022000000000000001102200000000000000       0090770900066125079759022015000030
100000000000000000000009077090006612500000000000000000000000010002100036386802201700000000002            2  01363868022025022000000003807360000000001N110220000000000000000000000000000000000000000000000000000000000000000100036386861833ALINE LEE WEI DE SOUZA                  AV. PRES.CASTELO BRANCO - 9127 AP.251 BL            11704600                                                            000032
2SR. CAIXA, APOS O VENCIMENTO COBRAR 10% DE MULTA                                NAO RECEBER APOS 30 DIAS DO VENCIMENTO.                                                                                                                                                                                                         11022000000000000001102200000000000000       0090770900066125363868022017000033
100000000000000000000009077090006612500000000000000000000000010002100070465302201800000000002            2  01704653022025022000000001037600000000001N110220000000000000000000000000000000000000000000000000000000000000000100070465320953SIDNEY CARASKI                          RUA DR.CELSO PACHECO BENTIM - 502 - PARQ            03571020                                                            000035
2SR. CAIXA, APOS O VENCIMENTO COBRAR 10% DE MULTA                                NAO RECEBER APOS 30 DIAS DO VENCIMENTO.                                                                                                                                                                                                         11022000000000000001102200000000000000       0090770900066125704653022018000036
100000000000000000000009077090006612500000000000000000000000010002100075759402201300000000002            2  01757594022025022000000002712060000000001N110220000000000000000000000000000000000000000000000000000000000000000100075759446800VALTER MUTAFEI                          RUA MONTE CASTELO - 295 AP.54 - AVIACAO             11702720                                                            000038
2SR. CAIXA, APOS O VENCIMENTO COBRAR 10% DE MULTA                                NAO RECEBER APOS 30 DIAS DO VENCIMENTO.                                                                                                                                                                                                         11022000000000000001102200000000000000       0090770900066125757594022013000039
100000000000000000000009077090006612500000000000000000000000010002100023132602202500000000002            2  01231326022025022000000002104760000000001N110220000000000000000000000000000000000000000000000000000000000000000100023132672882LEANDRO MORENO                          RUA MONTE CASTELO - 296 AP.64 - AVIACAO             11702720                                                            000041
2SR. CAIXA, APOS O VENCIMENTO COBRAR 10% DE MULTA                                NAO RECEBER APOS 30 DIAS DO VENCIMENTO.                                                                                                                                                                                                         11022000000000000001102200000000000000       0090770900066125231326022025000042
100000000000000000000009077090006612500000000000000000000000010002100099264602201600000000002            2  01992646022025022000000003589480000000001N110220000000000000000000000000000000000000000000000000000000000000000100099264692800LEONTINO PINHEIRO DA SILVA              AVENIDA JOAO BATISTA FITIPALDI - 469 - V            08685000                                                            000044
2SR. CAIXA, APOS O VENCIMENTO COBRAR 10% DE MULTA                                NAO RECEBER APOS 30 DIAS DO VENCIMENTO.                                                                                                                                                                                                         11022000000000000001102200000000000000       0090770900066125992646022016000045
100000000000000000000009077090006612500000000000000000000000010002100000666302201700000000002            2  01006663022025022000000003462860000000001N110220000000000000000000000000000000000000000000000000000000000000000100000666344825LUIZ HENRIQUE DE CAMPOS                 RUA JOAO CARLOS CAVALCANTI REIS - 21 - J            02281206                                                            000047
2SR. CAIXA, APOS O VENCIMENTO COBRAR 10% DE MULTA                                NAO RECEBER APOS 30 DIAS DO VENCIMENTO.                                                                                                                                                                                                         11022000000000000001102200000000000000       0090770900066125006663022017000048
100000000000000000000009077090006612500000000000000000000000010002100029155002201700000000002            2  01291550022025022000000003656910000000001N110220000000000000000000000000000000000000000000000000000000000000000100029155026842DANIELA YOSHIDA                         RUA MONTE CASTELO - 262 AP.34 - AVIACAO             11702720                                                            000050
2SR. CAIXA, APOS O VENCIMENTO COBRAR 10% DE MULTA                                NAO RECEBER APOS 30 DIAS DO VENCIMENTO.                                                                                                                                                                                                         11022000000000000001102200000000000000       0090770900066125291550022017000051
100000000000000000000009077090006612500000000000000000000000010002100001204402201000000000002            2  01012044022025022000000002978050000000001N110220000000000000000000000000000000000000000000000000000000000000000100001204431809CEZAR TALAVERA JUNIOR                   RUA MAESTRO ARTURO DE ANGELIS  - 190 AP.            05139010                                                            000053
2SR. CAIXA, APOS O VENCIMENTO COBRAR 10% DE MULTA                                NAO RECEBER APOS 30 DIAS DO VENCIMENTO.                                                                                                                                                                                                         11022000000000000001102200000000000000       0090770900066125012044022010000054
100000000000000000000009077090006612500000000000000000000000010002100004227502201P00000000002            2  01042275022025022000000003860430000000001N110220000000000000000000000000000000000000000000000000000000000000000100004227553970ALESSANDRO ISRAEL GOULART               RUA PROFESSORA CARLINDA RIBEIRO - 21 - F            02866200                                                            000056
2SR. CAIXA, APOS O VENCIMENTO COBRAR 10% DE MULTA                                NAO RECEBER APOS 30 DIAS DO VENCIMENTO.                                                                                                                                                                                                         11022000000000000001102200000000000000       009077090006612504227502201P000057
100000000000000000000009077090006612500000000000000000000000010002100060811402201300000000002            2  01608114022025022000000003557820000000001N110220000000000000000000000000000000000000000000000000000000000000000100060811420868HELIO BASSI                             AV.PARIS,575 - PRACA ANTONIO FIGUEROA -             11700082                                                            000059
2SR. CAIXA, APOS O VENCIMENTO COBRAR 10% DE MULTA                                NAO RECEBER APOS 30 DIAS DO VENCIMENTO.                                                                                                                                                                                                         11022000000000000001102200000000000000       0090770900066125608114022013000060
100000000000000000000009077090006612500000000000000000000000010002100001024702201300000000002            2  01010247022025022000000003366660000000001N110220000000000000000000000000000000000000000000000000000000000000000100001024794881CLAUDIO RODRIGUES                       RUA ARACATUBA - 242 - LAPA - SAO PAULO -            05058010                                                            000062
2SR. CAIXA, APOS O VENCIMENTO COBRAR 10% DE MULTA                                NAO RECEBER APOS 30 DIAS DO VENCIMENTO.                                                                                                                                                                                                         11022000000000000001102200000000000000       0090770900066125010247022013000063
100000000000000000000009077090006612500000000000000000000000010002100022037502201200000000002            2  01220375022025022000000003591860000000001N110220000000000000000000000000000000000000000000000000000000000000000100022037552882ANDREIA CRISTINA FERNANDES DANTAS       PCA CASTRO ALVES - 163 AP.33 - VILA SAO             13224299                                                            000065
2SR. CAIXA, APOS O VENCIMENTO COBRAR 10% DE MULTA                                NAO RECEBER APOS 30 DIAS DO VENCIMENTO.                                                                                                                                                                                                         11022000000000000001102200000000000000       0090770900066125220375022012000066
100000000000000000000009077090006612500000000000000000000000010002100019288702201000000000002            2  01192887022025022000000002924580000000001N110220000000000000000000000000000000000000000000000000000000000000000100019288787844EMERSON LUIZ MARTINEZ PEREIRA           RUA MONTE CASTELO - 296 AP.74 - AVIACAO             11702720                                                            000068
2SR. CAIXA, APOS O VENCIMENTO COBRAR 10% DE MULTA                                NAO RECEBER APOS 30 DIAS DO VENCIMENTO.                                                                                                                                                                                                         11022000000000000001102200000000000000       0090770900066125192887022010000069
100000000000000000000009077090006612500000000000000000000000010002100027198402201400000000002            2  01271984022025022000000002477270000000001N110220000000000000000000000000000000000000000000000000000000000000000100027198452809CRISTIANE AURELIANO DA SILVA MAIA       RUA MONTE CASTELO - 262 AP.25 - AVIACAO             11702720                                                            000071
2SR. CAIXA, APOS O VENCIMENTO COBRAR 10% DE MULTA                                NAO RECEBER APOS 30 DIAS DO VENCIMENTO.                                                                                                                                                                                                         11022000000000000001102200000000000000       0090770900066125271984022014000072
100000000000000000000009077090006612500000000000000000000000010002100021246202201800000000002            2  01212462022025022000000003023280000000001N110220000000000000000000000000000000000000000000000000000000000000000100021246231840ALEXANDRO DA CUNHA MIGUES               RUA DULCE - 71  - VILA CARRAO - SAO PAUL            03427040                                                            000074
2SR. CAIXA, APOS O VENCIMENTO COBRAR 10% DE MULTA                                NAO RECEBER APOS 30 DIAS DO VENCIMENTO.                                                                                                                                                                                                         11022000000000000001102200000000000000       0090770900066125212462022018000075
100000000000000000000009077090006612500000000000000000000000010002100018470502201800000000002            2  01184705022025022000000004447680000000001N110220000000000000000000000000000000000000000000000000000000000000000100018470520881SILVANA ALVES DE OLIVEIRA               RUA MONTE CASTELO - 262 AP.91 - AVIACAO             11702720                                                            000077
2SR. CAIXA, APOS O VENCIMENTO COBRAR 10% DE MULTA                                NAO RECEBER APOS 30 DIAS DO VENCIMENTO.                                                                                                                                                                                                         11022000000000000001102200000000000000       0090770900066125184705022018000078
100000000000000000000009077090006612500000000000000000000000010002100009297502201800000000002            2  01092975022025022000000003096430000000001N110220000000000000000000000000000000000000000000000000000000000000000100009297523846MARCOS ROBERTO DE CASTRO FERREIRA       RUA MONTE CASTELO - 262 AP.105 - AVIACAO            11702720                                                            000080
2SR. CAIXA, APOS O VENCIMENTO COBRAR 10% DE MULTA                                NAO RECEBER APOS 30 DIAS DO VENCIMENTO.                                                                                                                                                                                                         11022000000000000001102200000000000000       0090770900066125092975022018000081
100000000000000000000009077090006612500000000000000000000000010002100001164102201700000000002            2  01011641022025022000000003837170000000001N110220000000000000000000000000000000000000000000000000000000000000000100001164158864DAVID BLEY LACERDA                      RUA CONEGO ARAUJO MARCONDES - 188 - BAIR            02550080                                                            000083
2SR. CAIXA, APOS O VENCIMENTO COBRAR 10% DE MULTA                                NAO RECEBER APOS 30 DIAS DO VENCIMENTO.                                                                                                                                                                                                         11022000000000000001102200000000000000       0090770900066125011641022017000084
100000000000000000000009077090006612500000000000000000000000010002100031498002201000000000002            2  01314980022025022000000004663530000000001N110220000000000000000000000000000000000000000000000000000000000000000100031498008895POLIANE  SIBELE DA SILVA                PRACA GENERAL COSTA BARRETO - 56 AP.181             03325070                                                            000086
2SR. CAIXA, APOS O VENCIMENTO COBRAR 10% DE MULTA                                NAO RECEBER APOS 30 DIAS DO VENCIMENTO.                                                                                                                                                                                                         11022000000000000001102200000000000000       0090770900066125314980022010000087
100000000000000000000009077090006612500000000000000000000000010002100000588102201400000000002            2  01005881022025022000000002735260000000001N110220000000000000000000000000000000000000000000000000000000000000000100000588109860JOSE LIARTE GIANTE                      AVENIDA LUIZ GONZAGA DO AMARAL - 143 - J            09320630                                                            000089
2SR. CAIXA, APOS O VENCIMENTO COBRAR 10% DE MULTA                                NAO RECEBER APOS 30 DIAS DO VENCIMENTO.                                                                                                                                                                                                         11022000000000000001102200000000000000       0090770900066125005881022014000090
100000000000000000000009077090006612500000000000000000000000010002100014386802201700000000002            2  01143868022025022000000002188080000000001N110220000000000000000000000000000000000000000000000000000000000000000100014386860134SEVERINO CARLOS DE OLIVEIRA             RUA MONTE CASTELO - 262 AP.54 - AVIACAO             11702720                                                            000092
2SR. CAIXA, APOS O VENCIMENTO COBRAR 10% DE MULTA                                NAO RECEBER APOS 30 DIAS DO VENCIMENTO.                                                                                                                                                                                                         11022000000000000001102200000000000000       0090770900066125143868022017000093
100000000000000000000009077090006612500000000000000000000000010002100039393702201200000000002            2  01393937022025022000000001508040000000001N110220000000000000000000000000000000000000000000000000000000000000000100039393790850NAIRON RICARDO DE ARAUJO SANTOS         RUA NITEROI - 267 CASA 04 - JARDIM INDEP            11380350                                                            000095
2SR. CAIXA, APOS O VENCIMENTO COBRAR 10% DE MULTA                                NAO RECEBER APOS 30 DIAS DO VENCIMENTO.                                                                                                                                                                                                         11022000000000000001102200000000000000       0090770900066125393937022012000096
100000000000000000000009077090006612500000000000000000000000010002100041896802201300000000002            2  01418968022025022000000002196220000000001N110220000000000000000000000000000000000000000000000000000000000000000100041896807968SERGIO ROBERTO DA SILVA                 RUA DOS INGLESES - 542 AP.61 - MORRO DOS            01329000                                                            000098
2SR. CAIXA, APOS O VENCIMENTO COBRAR 10% DE MULTA                                NAO RECEBER APOS 30 DIAS DO VENCIMENTO.                                                                                                                                                                                                         11022000000000000001102200000000000000       0090770900066125418968022013000099
9                                                                                                                                                                                                                                                                                                                                                                                                         000100