01REMESSA01COBRANCA       00000000000005623874H B SANTOS CONSTRUTORA E INCOR237BRADESCO       070224        MX0000009                                                                                                                                                                                                                                                                                     000001
100000000000000000000009033990001086300000000000000000000000010002020012644902241200000000002            2  01126449022425022400000003228690000000001N060224000000000000000000000000000000000000000000000000000000000000000100012644907802SIMONE SERRANO SILVA PRADO              RUA TAIUVINHA - 597 - BAIRRO JARDIM JACU            08060040                                                            000002
2SR. CAIXA, APOS O VENCIMENTO COBRAR 2% DE MULTA                                 NAO RECEBER APOS 30 DIAS DO VENCIMENTO.                                                                                                                                                                                                         07022400000000000000702240000000000000       0090339900010863126449022412000003
100000000000000000000009033990001086300000000000000000000000010002020033870202241300000000002            2  01338702022425022400000003144640000000001N060224000000000000000000000000000000000000000000000000000000000000000100033870205890NATHALIA GOMES PAZ                      ALAMEDA INHAMBU - 214 RESIDENCIAL 10 - B            06540100                                                            000005
2SR. CAIXA, APOS O VENCIMENTO COBRAR 2% DE MULTA                                 NAO RECEBER APOS 30 DIAS DO VENCIMENTO.                                                                                                                                                                                                         07022400000000000000702240000000000000       0090339900010863338702022413000006
100000000000000000000009033990001086300000000000000000000000010002020055874002241900000000002            2  01558740022425022400000003129570000000001N060224000000000000000000000000000000000000000000000000000000000000000100055874045104MANUEL MARTINS AFONSO JUNIOR            AVENIDA AFONSO PENA - 463 - BAIRRO ESTUA            11020003                                                            000008
2SR. CAIXA, APOS O VENCIMENTO COBRAR 2% DE MULTA                                 NAO RECEBER APOS 30 DIAS DO VENCIMENTO.                                                                                                                                                                                                         07022400000000000000702240000000000000       0090339900010863558740022419000009
100000000000000000000009033990001086300000000000000000000000010002020029067902241600000000002            2  01290679022425022400000002790270000000001N060224000000000000000000000000000000000000000000000000000000000000000100029067948802SANTIAGO VALDOMIRO CORDEIRO             RUA MANOEL QUIRINODE MATTOS - 1.537 CS02            03969000                                                            000011
2SR. CAIXA, APOS O VENCIMENTO COBRAR 2% DE MULTA                                 NAO RECEBER APOS 30 DIAS DO VENCIMENTO.                                                                                                                                                                                                         07022400000000000000702240000000000000       0090339900010863290679022416000012
100000000000000000000009033990001086300000000000000000000000010002020041475702241000000000002            2  01414757022425022400000002929410000000001N060224000000000000000000000000000000000000000000000000000000000000000100041475767889GUSTAVO HENRIQUE SIMIONI FRANCO MENDONCARUA JACOB EMERICK - 42 AP.308 - BAIRRO G            11310070                                                            000014
2SR. CAIXA, APOS O VENCIMENTO COBRAR 2% DE MULTA                                 NAO RECEBER APOS 30 DIAS DO VENCIMENTO.                                                                                                                                                                                                         07022400000000000000702240000000000000       0090339900010863414757022410000015
100000000000000000000009033990001086300000000000000000000000010002020032353402241300000000002            2  01323534022425022400000003350390000000001N060224000000000000000000000000000000000000000000000000000000000000000100032353404839JULIANA BATISTA BENTO                   RUA MONTE PLANO - 387 CASA 5 - VILA MARG            11335020                                                            000017
2SR. CAIXA, APOS O VENCIMENTO COBRAR 2% DE MULTA                                 NAO RECEBER APOS 30 DIAS DO VENCIMENTO.                                                                                                                                                                                                         07022400000000000000702240000000000000       0090339900010863323534022413000018
100000000000000000000009033990001086300000000000000000000000010002020031015902241400000000002            2  01310159022425022400000002929050000000001N060224000000000000000000000000000000000000000000000000000000000000000100031015918808PATRICK COSTA FAGILDE                   AVENIDA PRESIDENTE CASTELO BRANCO - 4.52            11702705                                                            000020
2SR. CAIXA, APOS O VENCIMENTO COBRAR 2% DE MULTA                                 NAO RECEBER APOS 30 DIAS DO VENCIMENTO.                                                                                                                                                                                                         07022400000000000000702240000000000000       0090339900010863310159022414000021
9                                                                                                                                                                                                                                                                                                                                                                                                         000022