01REMESSA01COBRANCA       00000000000008017025HB SANTOS CONSTRUTORA E INCORP237BRADESCO       011020        MX0000113                                                                                                                                                                                                                                                                                     000001
100000000000000000000009033990000627000000000000000000000000010002020029671510201200000000002            2  01296715102009102000000002790360000000001N011020000000000000000000000000000000000000000000000000000000000000000100029671526845ROGERIO CONSENTINO                      RUA CARLOS MAZER  - 678 - VILA CARMOSINA            08290700                                                            000002
2SR. CAIXA, APOS O VENCIMENTO COBRAR 2% DE MULTA                                 NAO RECEBER APOS 30 DIAS DO VENCIMENTO.                                                                                                                                                                                                         01102000000000000000110200000000000000       0090339900006270296715102012000003
100000000000000000000009033990000627000000000000000000000000010002020003863010201400000000002            2  01038630102009102000000002635720000000001N011020000000000000000000000000000000000000000000000000000000000000000100003863075803HERALDO MENQUINI                        RUA CARLOS JOSE BORSTENS - 50 AP.15 - AV            11702750                                                            000005
2SR. CAIXA, APOS O VENCIMENTO COBRAR 2% DE MULTA                                 NAO RECEBER APOS 30 DIAS DO VENCIMENTO.                                                                                                                                                                                                         01102000000000000000110200000000000000       0090339900006270038630102014000006
100000000000000000000009033990000627000000000000000000000000010002020029028410201100000000002            2  01290284102009102000000002700040000000001N011020000000000000000000000000000000000000000000000000000000000000000100029028478825LEONARDO LOUZADA                        RUA CARLOS JOSE BORSTENS - 50 AP.35 - AV            11702750                                                            000008
2SR. CAIXA, APOS O VENCIMENTO COBRAR 2% DE MULTA                                 NAO RECEBER APOS 30 DIAS DO VENCIMENTO.                                                                                                                                                                                                         01102000000000000000110200000000000000       0090339900006270290284102011000009
100000000000000000000009033990000627000000000000000000000000010002020032878510201900000000002            2  01328785102009102000000003902100000000001N011020000000000000000000000000000000000000000000000000000000000000000100032878512847LEONARDO MOURA MONIZ CALDEIRA           RUA BALSA - 682 AP.134 T.02 - VILA ARCAD            02910000                                                            000011
2SR. CAIXA, APOS O VENCIMENTO COBRAR 2% DE MULTA                                 NAO RECEBER APOS 30 DIAS DO VENCIMENTO.                                                                                                                                                                                                         01102000000000000000110200000000000000       0090339900006270328785102019000012
100000000000000000000009033990000627000000000000000000000000010002020016479010201600000000002            2  01164790102009102000000004151140000000001N011020000000000000000000000000000000000000000000000000000000000000000100016479002806LOURDES PEREIRA DE QUEIROZ SECANECHIA   RUA PAULINO CURSI - 437 - CIDADE SAO MAT            03960060                                                            000014
2SR. CAIXA, APOS O VENCIMENTO COBRAR 2% DE MULTA                                 NAO RECEBER APOS 30 DIAS DO VENCIMENTO.                                                                                                                                                                                                         01102000000000000000110200000000000000       0090339900006270164790102016000015
100000000000000000000009033990000627000000000000000000000000010002020019635010201300000000002            2  01196350102009102000000003062810000000001N011020000000000000000000000000000000000000000000000000000000000000000100019635091885IVAN VIEIRA SILVA                       ABRAO JORGE - 3001 - JARDIM INTEGRACAO -            14405397                                                            000017
2SR. CAIXA, APOS O VENCIMENTO COBRAR 2% DE MULTA                                 NAO RECEBER APOS 30 DIAS DO VENCIMENTO.                                                                                                                                                                                                         01102000000000000000110200000000000000       0090339900006270196350102013000018
100000000000000000000009033990000627000000000000000000000000010002020009361410201300000000002            2  01093614102009102000000003013730000000001N011020000000000000000000000000000000000000000000000000000000000000000100009361471805JOSE BARBOSA DA SILVA                   RUA ALFREDO INACIO TRINDADE  - 60 AP.44             02344100                                                            000020
2SR. CAIXA, APOS O VENCIMENTO COBRAR 2% DE MULTA                                 NAO RECEBER APOS 30 DIAS DO VENCIMENTO.                                                                                                                                                                                                         01102000000000000000110200000000000000       0090339900006270093614102013000021
100000000000000000000009033990000627000000000000000000000000010002020012756910201700000000002            2  01127569102009102000000002601530000000001N011020000000000000000000000000000000000000000000000000000000000000000100012756959812ITAMAR JUVENAL DIAS DA SILVA            RUA ELISEU REINALDO MORAES VIEIRA - 90 A            02858000                                                            000023
2SR. CAIXA, APOS O VENCIMENTO COBRAR 2% DE MULTA                                 NAO RECEBER APOS 30 DIAS DO VENCIMENTO.                                                                                                                                                                                                         01102000000000000000110200000000000000       0090339900006270127569102017000024
100000000000000000000009033990000627000000000000000000000000010002020002731010201400000000002            2  01027310102009102000000003075710000000001N011020000000000000000000000000000000000000000000000000000000000000000100002731042842VALTER CERQUEIRA VILLA NOVA             RUA MACHADO - 106 - VILA AUGUSTA - GUARU            07025210                                                            000026
2SR. CAIXA, APOS O VENCIMENTO COBRAR 2% DE MULTA                                 NAO RECEBER APOS 30 DIAS DO VENCIMENTO.                                                                                                                                                                                                         01102000000000000000110200000000000000       0090339900006270027310102014000027
100000000000000000000009033990000627000000000000000000000000010002020002731010202200000000002            2  01027310102009102000000003075700000000001N011020000000000000000000000000000000000000000000000000000000000000000100002731042842VALTER CERQUEIRA VILLA NOVA             RUA MACHADO - 106 - VILA AUGUSTA - GUARU            07025210                                                            000029
2SR. CAIXA, APOS O VENCIMENTO COBRAR 2% DE MULTA                                 NAO RECEBER APOS 30 DIAS DO VENCIMENTO.                                                                                                                                                                                                         01102000000000000000110200000000000000       0090339900006270027310102022000030
100000000000000000000009033990000627000000000000000000000000010002020028802110201200000000002            2  01288021102009102000000002777280000000001N011020000000000000000000000000000000000000000000000000000000000000000100028802158894ELIEL HENRIQUE ZUZA                     RUA CARLOS JOSE BORSTENS - 50 AP.43 - BA            11702750                                                            000032
2SR. CAIXA, APOS O VENCIMENTO COBRAR 2% DE MULTA                                 NAO RECEBER APOS 30 DIAS DO VENCIMENTO.                                                                                                                                                                                                         01102000000000000000110200000000000000       0090339900006270288021102012000033
100000000000000000000009033990000627000000000000000000000000010002020005313710201200000000002            2  01053137102011102000000002244980000000001N011020000000000000000000000000000000000000000000000000000000000000000100005313717863EDIMICIO JOSE DE ARAUJO                 PRACA NICOLAU GERAIGIRE - 680 CA A - JAR            11095110                                                            000035
2SR. CAIXA, APOS O VENCIMENTO COBRAR 2% DE MULTA                                 NAO RECEBER APOS 30 DIAS DO VENCIMENTO.                                                                                                                                                                                                         01102000000000000000110200000000000000       0090339900006270053137102012000036
100000000000000000000009033990000627000000000000000000000000010002020029433610201000000000002            2  01294336102011102000000002156670000000001N011020000000000000000000000000000000000000000000000000000000000000000100029433631897MARIO MUNIZ                             RUA JOSE CALIXTO DO CARMO - 286 AP.53 -             11702690                                                            000038
2SR. CAIXA, APOS O VENCIMENTO COBRAR 2% DE MULTA                                 NAO RECEBER APOS 30 DIAS DO VENCIMENTO.                                                                                                                                                                                                         01102000000000000000110200000000000000       0090339900006270294336102010000039
100000000000000000000009033990000627000000000000000000000000010002020001847210201900000000002            2  01018472102011102000000001985460000000001N011020000000000000000000000000000000000000000000000000000000000000000100001847204864AMERICA CONCEICAO DA SILVA              RUA JOSE CALIXTO DO CARMO - 286 AP.44 -             11702690                                                            000041
2SR. CAIXA, APOS O VENCIMENTO COBRAR 2% DE MULTA                                 NAO RECEBER APOS 30 DIAS DO VENCIMENTO.                                                                                                                                                                                                         01102000000000000000110200000000000000       0090339900006270018472102019000042
100000000000000000000009033990000627000000000000000000000000010002020005029810201300000000002            2  01050298102009102000000002652400000000001N011020000000000000000000000000000000000000000000000000000000000000000100005029828885LAURINETE DA CONCEICAO DE NORONHA       RUA MARIA LUCIA DE TOLEDO LEITE MORAES -            04434040                                                            000044
2SR. CAIXA, APOS O VENCIMENTO COBRAR 2% DE MULTA                                 NAO RECEBER APOS 30 DIAS DO VENCIMENTO.                                                                                                                                                                                                         01102000000000000000110200000000000000       0090339900006270050298102013000045
100000000000000000000009033990000627000000000000000000000000010002020013388910201500000000002            2  01133889102011102000000002102400000000001N011020000000000000000000000000000000000000000000000000000000000000000100013388936889NEUTON DE SOUZA RAMOS                   RUA MARIA CRISTINA - 932 - JARDIM CASQUE            11533160                                                            000047
2SR. CAIXA, APOS O VENCIMENTO COBRAR 2% DE MULTA                                 NAO RECEBER APOS 30 DIAS DO VENCIMENTO.                                                                                                                                                                                                         01102000000000000000110200000000000000       0090339900006270133889102015000048
100000000000000000000009033990000627000000000000000000000000010002020012774910201500000000002            2  01127749102011102000000002141900000000001N011020000000000000000000000000000000000000000000000000000000000000000100012774906865JOSE MILTON SANTIAGO                    RUA BATATAIS - 47 - CIDADE ESTELA - POA             08563140                                                            000050
2SR. CAIXA, APOS O VENCIMENTO COBRAR 2% DE MULTA                                 NAO RECEBER APOS 30 DIAS DO VENCIMENTO.                                                                                                                                                                                                         01102000000000000000110200000000000000       0090339900006270127749102015000051
100000000000000000000009033990000627000000000000000000000000010002020016294110201000000000002            2  01162941102009102000000002633370000000001N011020000000000000000000000000000000000000000000000000000000000000000100016294119812JURACY FELIX DE ARRUDA                  RUA CARLOS JOSE BORSTENS - 50 AP.23 - AV            11702750                                                            000053
2SR. CAIXA, APOS O VENCIMENTO COBRAR 2% DE MULTA                                 NAO RECEBER APOS 30 DIAS DO VENCIMENTO.                                                                                                                                                                                                         01102000000000000000110200000000000000       0090339900006270162941102010000054
100000000000000000000009033990000627000000000000000000000000010002020005613810201500000000002            2  01056138102011102000000001969950000000001N011020000000000000000000000000000000000000000000000000000000000000000100005613843805NILZA MARIA DE OLIVEIRA                 RUA JOSE GONCALVES DE FREITAS - 66 C2 -             08210550                                                            000056
2SR. CAIXA, APOS O VENCIMENTO COBRAR 2% DE MULTA                                 NAO RECEBER APOS 30 DIAS DO VENCIMENTO.                                                                                                                                                                                                         01102000000000000000110200000000000000       0090339900006270056138102015000057
100000000000000000000009033990000627000000000000000000000000010002020007574910201500000000002            2  01075749102011102000000002022100000000001N011020000000000000000000000000000000000000000000000000000000000000000100007574936889JORGE LUCIANO PEREIRA BORRIELLO         RUA JOSE CALIXTO DO CARMO - 286 AP.54 -             11702690                                                            000059
2SR. CAIXA, APOS O VENCIMENTO COBRAR 2% DE MULTA                                 NAO RECEBER APOS 30 DIAS DO VENCIMENTO.                                                                                                                                                                                                         01102000000000000000110200000000000000       0090339900006270075749102015000060
100000000000000000000009033990000627000000000000000000000000010002020008214910201800000000002            2  01082149102011102000000002052780000000001N011020000000000000000000000000000000000000000000000000000000000000000100008214973830JAMIL CHALA                             RUA JOSE CALIXTO DO CARMO - 286 AP.22 -             11702690                                                            000062
2SR. CAIXA, APOS O VENCIMENTO COBRAR 2% DE MULTA                                 NAO RECEBER APOS 30 DIAS DO VENCIMENTO.                                                                                                                                                                                                         01102000000000000000110200000000000000       0090339900006270082149102018000063
100000000000000000000009033990000627000000000000000000000000010002020032495010201500000000002            2  01324950102011102000000002300410000000001N011020000000000000000000000000000000000000000000000000000000000000000100032495004881PAULO EDUARDO DOS SANTOS                RUA REPUBLICA DO IRAQUE - 1119 - CAMPO B            04611002                                                            000065
2SR. CAIXA, APOS O VENCIMENTO COBRAR 2% DE MULTA                                 NAO RECEBER APOS 30 DIAS DO VENCIMENTO.                                                                                                                                                                                                         01102000000000000000110200000000000000       0090339900006270324950102015000066
100000000000000000000009033990000627000000000000000000000000010002020016498010201200000000002            2  01164980102011102000000002017530000000001N011020000000000000000000000000000000000000000000000000000000000000000100016498053810GILMA CEZARIO GARCIA CORRITORI          RUA LAURENTINO XAVIER DOS SANTOS - 336 -            08240740                                                            000068
2SR. CAIXA, APOS O VENCIMENTO COBRAR 2% DE MULTA                                 NAO RECEBER APOS 30 DIAS DO VENCIMENTO.                                                                                                                                                                                                         01102000000000000000110200000000000000       0090339900006270164980102012000069
100000000000000000000009033990000627000000000000000000000000010002020029339010201100000000002            2  01293390102011102000000002157380000000001N011020000000000000000000000000000000000000000000000000000000000000000100029339051831RONALD DIDOFF                           RUA CORONEL FERREIRA BRAGA - 188 - VILA             03522010                                                            000071
2SR. CAIXA, APOS O VENCIMENTO COBRAR 2% DE MULTA                                 NAO RECEBER APOS 30 DIAS DO VENCIMENTO.                                                                                                                                                                                                         01102000000000000000110200000000000000       0090339900006270293390102011000072
100000000000000000000009033990000627000000000000000000000000010002020017357810201300000000002            2  01173578102011102000000002284860000000001N011020000000000000000000000000000000000000000000000000000000000000000100017357859894MARCIO GUIMARAES                        RUA GENERAL CAMARA - 188 SALA 11 - CENTR            11010120                                                            000074
2SR. CAIXA, APOS O VENCIMENTO COBRAR 2% DE MULTA                                 NAO RECEBER APOS 30 DIAS DO VENCIMENTO.                                                                                                                                                                                                         01102000000000000000110200000000000000       0090339900006270173578102013000075
100000000000000000000009033990000627000000000000000000000000010002020010563010201300000000002            2  01105630102011102000000002343250000000001N011020000000000000000000000000000000000000000000000000000000000000000100010563033878VERA LUCIA RIBEIRO LONGANEZI            RUA DOS CAMARES - 150 AP.24 BL.02 - CARA            02068030                                                            000077
2SR. CAIXA, APOS O VENCIMENTO COBRAR 2% DE MULTA                                 NAO RECEBER APOS 30 DIAS DO VENCIMENTO.                                                                                                                                                                                                         01102000000000000000110200000000000000       0090339900006270105630102013000078
100000000000000000000009033990000627000000000000000000000000010002020005529610201800000000002            2  01055296102011102000000002126420000000001N011020000000000000000000000000000000000000000000000000000000000000000100005529616801JOAQUIM JORGE DA COSTA                  RUA JOSE CALIXTO DO CARMO - 286 AP.106 -            11702690                                                            000080
2SR. CAIXA, APOS O VENCIMENTO COBRAR 2% DE MULTA                                 NAO RECEBER APOS 30 DIAS DO VENCIMENTO.                                                                                                                                                                                                         01102000000000000000110200000000000000       0090339900006270055296102018000081
100000000000000000000009033990000627000000000000000000000000010002020022014110201200000000002            2  01220141102011102000000002120230000000001N011020000000000000000000000000000000000000000000000000000000000000000100022014140847CAMILA SILVEIRA CANIZARES               AVENIDA PRESIDENTE CASTELO BRANCO - 5.74            11703650                                                            000083
2SR. CAIXA, APOS O VENCIMENTO COBRAR 2% DE MULTA                                 NAO RECEBER APOS 30 DIAS DO VENCIMENTO.                                                                                                                                                                                                         01102000000000000000110200000000000000       0090339900006270220141102012000084
100000000000000000000009033990000627000000000000000000000000010002020015550710201400000000002            2  01155507102009102000000002010510000000001N011020000000000000000000000000000000000000000000000000000000000000000100015550706806MARY MIWA                               RUA CARLOS JOSE BORSTENS - 50 AP.105 - A            11702750                                                            000086
2SR. CAIXA, APOS O VENCIMENTO COBRAR 2% DE MULTA                                 NAO RECEBER APOS 30 DIAS DO VENCIMENTO.                                                                                                                                                                                                         01102000000000000000110200000000000000       0090339900006270155507102014000087
100000000000000000000009033990000627000000000000000000000000010002020015464610201400000000002            2  01154646102011102000000002235380000000001N011020000000000000000000000000000000000000000000000000000000000000000100015464647864SONIA TERESA VOLPATO                    RUA JOSE CALIXTO DO CARMO - 286 AP.73 -             11702690                                                            000089
2SR. CAIXA, APOS O VENCIMENTO COBRAR 2% DE MULTA                                 NAO RECEBER APOS 30 DIAS DO VENCIMENTO.                                                                                                                                                                                                         01102000000000000000110200000000000000       0090339900006270154646102014000090
100000000000000000000009033990000627000000000000000000000000010002020008657810201300000000002            2  01086578102011102000000002212940000000001N011020000000000000000000000000000000000000000000000000000000000000000100008657886855ARLINDO DA CRUZ                         AVENIDA ARICANDUVA - 8.256 AP.54 BL.10 -            03951220                                                            000092
2SR. CAIXA, APOS O VENCIMENTO COBRAR 2% DE MULTA                                 NAO RECEBER APOS 30 DIAS DO VENCIMENTO.                                                                                                                                                                                                         01102000000000000000110200000000000000       0090339900006270086578102013000093
100000000000000000000009033990000627000000000000000000000000010002020004265710201300000000002            2  01042657102009102000000002962430000000001N011020000000000000000000000000000000000000000000000000000000000000000100004265781713ALEXANDRE CASADO COSTA                  RUA CARLOS JOSE BORSTENS - 50 AP.33 - AV            11702750                                                            000095
2SR. CAIXA, APOS O VENCIMENTO COBRAR 2% DE MULTA                                 NAO RECEBER APOS 30 DIAS DO VENCIMENTO.                                                                                                                                                                                                         01102000000000000000110200000000000000       0090339900006270042657102013000096
100000000000000000000009033990000627000000000000000000000000010002020059735110201100000000002            2  01597351102009102000000001251270000000001N011020000000000000000000000000000000000000000000000000000000000000000100059735180863HELIO JOSE MARQUES                      RUA MARTIM AFONSO DE SOUZA - 1007 AP.102            11702790                                                            000098
2SR. CAIXA, APOS O VENCIMENTO COBRAR 2% DE MULTA                                 NAO RECEBER APOS 30 DIAS DO VENCIMENTO.                                                                                                                                                                                                         01102000000000000000110200000000000000       0090339900006270597351102011000099
100000000000000000000009033990000627000000000000000000000000010002020026347810201500000000002            2  01263478102011102000000002365580000000001N011020000000000000000000000000000000000000000000000000000000000000000100026347872862VALDECI SILVA MEIRELES                  RUA JOSE BATISTA DA SILVA - 292 - JARDIM            06851470                                                            000101
2SR. CAIXA, APOS O VENCIMENTO COBRAR 2% DE MULTA                                 NAO RECEBER APOS 30 DIAS DO VENCIMENTO.                                                                                                                                                                                                         01102000000000000000110200000000000000       0090339900006270263478102015000102
100000000000000000000009033990000627000000000000000000000000010002020025443610201600000000002            2  01254436102009102000000004285330000000001N011020000000000000000000000000000000000000000000000000000000000000000100025443691830SILVANETE PEREIRA CARNELOS              RUA CARLOS JOSE BORSTENS - 50 AP.102 - A            11702750                                                            000104
2SR. CAIXA, APOS O VENCIMENTO COBRAR 2% DE MULTA                                 NAO RECEBER APOS 30 DIAS DO VENCIMENTO.                                                                                                                                                                                                         01102000000000000000110200000000000000       0090339900006270254436102016000105
100000000000000000000009033990000627000000000000000000000000010002020013135210201600000000002            2  01131352102011102000000002173380000000001N011020000000000000000000000000000000000000000000000000000000000000000100013135261859EDUARDO ZANOLA                          RUA ROLANDO PIETRO BONINI - 46 - JARDIM             09781040                                                            000107
2SR. CAIXA, APOS O VENCIMENTO COBRAR 2% DE MULTA                                 NAO RECEBER APOS 30 DIAS DO VENCIMENTO.                                                                                                                                                                                                         01102000000000000000110200000000000000       0090339900006270131352102016000108
100000000000000000000009033990000627000000000000000000000000010002020009797610201700000000002            2  01097976102011102000000002116650000000001N011020000000000000000000000000000000000000000000000000000000000000000100009797626857RICARDO SOBRAL DE OLIVEIRA              RUA 23 DE MAIO - 139 AP.32 - VILA MIRIM             11704690                                                            000110
2SR. CAIXA, APOS O VENCIMENTO COBRAR 2% DE MULTA                                 NAO RECEBER APOS 30 DIAS DO VENCIMENTO.                                                                                                                                                                                                         01102000000000000000110200000000000000       0090339900006270097976102017000111
100000000000000000000009033990000627000000000000000000000000010002020004767610201800000000002            2  01047676102009102000000003619410000000001N011020000000000000000000000000000000000000000000000000000000000000000100004767679893ORLANDO GRANDE FILHO                    RUA ORLANDO MIGLIARI - 101 - JARDIM OURO            19906140                                                            000113
2SR. CAIXA, APOS O VENCIMENTO COBRAR 2% DE MULTA                                 NAO RECEBER APOS 30 DIAS DO VENCIMENTO.                                                                                                                                                                                                         01102000000000000000110200000000000000       0090339900006270047676102018000114
100000000000000000000009033990000627000000000000000000000000010002020006512510201500000000002            2  01065125102011102000000001904010000000001N011020000000000000000000000000000000000000000000000000000000000000000100006512547870MARIA DO CARMO FAGUNDES DOS REIS        RUA CARLOS MALCHER - 98 - PARQUE EDU CHA            02232020                                                            000116
2SR. CAIXA, APOS O VENCIMENTO COBRAR 2% DE MULTA                                 NAO RECEBER APOS 30 DIAS DO VENCIMENTO.                                                                                                                                                                                                         01102000000000000000110200000000000000       0090339900006270065125102015000117
100000000000000000000009033990000627000000000000000000000000010002020022728410201800000000002            2  01227284102011102000000002290330000000001N011020000000000000000000000000000000000000000000000000000000000000000100022728497842WILLIAN DE SOUZA MELLO                  RUA JOSE CALIXTO DO CARMO - 286 AP.111 -            11702690                                                            000119
2SR. CAIXA, APOS O VENCIMENTO COBRAR 2% DE MULTA                                 NAO RECEBER APOS 30 DIAS DO VENCIMENTO.                                                                                                                                                                                                         01102000000000000000110200000000000000       0090339900006270227284102018000120
100000000000000000000009033990000627000000000000000000000000010002020016909710201200000000002            2  01169097102011102000000002023940000000001N011020000000000000000000000000000000000000000000000000000000000000000100016909746805EDIVALDO SANTANA DOS SANTOS             ESTRADA JOAO GASPAR DELGADO - 80 AP.213             08536100                                                            000122
2SR. CAIXA, APOS O VENCIMENTO COBRAR 2% DE MULTA                                 NAO RECEBER APOS 30 DIAS DO VENCIMENTO.                                                                                                                                                                                                         01102000000000000000110200000000000000       0090339900006270169097102012000123
100000000000000000000009033990000627000000000000000000000000010002020022036010201P00000000002            2  01220360102009102000000003142970000000001N011020000000000000000000000000000000000000000000000000000000000000000100022036003818DERLIS TERAN QUIROGA ROGATO             RUA JOAO RIBEIRO - 709 AP.61 - CAMPESTRE            09070250                                                            000125
2SR. CAIXA, APOS O VENCIMENTO COBRAR 2% DE MULTA                                 NAO RECEBER APOS 30 DIAS DO VENCIMENTO.                                                                                                                                                                                                         01102000000000000000110200000000000000       009033990000627022036010201P000126
100000000000000000000009033990000627000000000000000000000000010002020017229710203400000000002            2  01172297102009102000000003033250000000001N011020000000000000000000000000000000000000000000000000000000000000000100017229751802BERENICE VIEIRA KERSTING                RUA ATIBAIA - 17 AP.417 - BAIRRO IMPERAD            11707380                                                            000128
2SR. CAIXA, APOS O VENCIMENTO COBRAR 2% DE MULTA                                 NAO RECEBER APOS 30 DIAS DO VENCIMENTO.                                                                                                                                                                                                         01102000000000000000110200000000000000       0090339900006270172297102034000129
100000000000000000000009033990000627000000000000000000000000010002020012475610201300000000002            2  01124756102011102000000002193840000000001N011020000000000000000000000000000000000000000000000000000000000000000100012475663820CELIDALVA GOES DE CARVALHO              RUA JOSE CALIXTO DO CARMO - 286 AP.91 -             11702690                                                            000131
2SR. CAIXA, APOS O VENCIMENTO COBRAR 2% DE MULTA                                 NAO RECEBER APOS 30 DIAS DO VENCIMENTO.                                                                                                                                                                                                         01102000000000000000110200000000000000       0090339900006270124756102013000132
100000000000000000000009033990000627000000000000000000000000010002020033451610201000000000002            2  01334516102011102000000001831990000000001N011020000000000000000000000000000000000000000000000000000000000000000100033451620839ARAO ELISIARIO  NUNES                   RUA JOSE CALIXTO DO CARMO - 286 AP.64 -             11702690                                                            000134
2SR. CAIXA, APOS O VENCIMENTO COBRAR 2% DE MULTA                                 NAO RECEBER APOS 30 DIAS DO VENCIMENTO.                                                                                                                                                                                                         01102000000000000000110200000000000000       0090339900006270334516102010000135
100000000000000000000009033990000627000000000000000000000000010002020095758210201000000000002            2  01957582102011102000000002227950000000001N011020000000000000000000000000000000000000000000000000000000000000000100095758275891SHIRLEY TUNES ASTOLFI                   RUA GUAPERUVU - 656 AP.84 - VILA ARICAND            03504010                                                            000137
2SR. CAIXA, APOS O VENCIMENTO COBRAR 2% DE MULTA                                 NAO RECEBER APOS 30 DIAS DO VENCIMENTO.                                                                                                                                                                                                         01102000000000000000110200000000000000       0090339900006270957582102010000138
100000000000000000000009033990000627000000000000000000000000010002020045839210201800000000002            2  01458392102011102000000001421960000000001N011020000000000000000000000000000000000000000000000000000000000000000100045839263834LEONARDO ANTONIO CONCELLIERI            RUA JOSE CALIXTO DO CARMO - 286 AP.51 -             11702690                                                            000140
2SR. CAIXA, APOS O VENCIMENTO COBRAR 2% DE MULTA                                 NAO RECEBER APOS 30 DIAS DO VENCIMENTO.                                                                                                                                                                                                         01102000000000000000110200000000000000       0090339900006270458392102018000141
100000000000000000000009033990000627000000000000000000000000010002020011369110201900000000002            2  01113691102011102000000002001240000000001N011020000000000000000000000000000000000000000000000000000000000000000100011369165803ELIANA CORREA DE OLIVEIRA               AVENIDA ELIAS MALUF - 2695 CASA 419 - WA            18055215                                                            000143
2SR. CAIXA, APOS O VENCIMENTO COBRAR 2% DE MULTA                                 NAO RECEBER APOS 30 DIAS DO VENCIMENTO.                                                                                                                                                                                                         01102000000000000000110200000000000000       0090339900006270113691102019000144
100000000000000000000009033990000627000000000000000000000000010002020026858610201500000000002            2  01268586102008102000000002684840000000001N011020000000000000000000000000000000000000000000000000000000000000000100026858625879GLAUCE FERREIRA DE OLIVEIRA FALSI       RUA CATULO DA PAIXAO CEARENSE - 190 AP.1            04145010                                                            000146
2SR. CAIXA, APOS O VENCIMENTO COBRAR 2% DE MULTA                                 NAO RECEBER APOS 30 DIAS DO VENCIMENTO.                                                                                                                                                                                                         01102000000000000000110200000000000000       0090339900006270268586102015000147
100000000000000000000009033990000627000000000000000000000000010002020002253810201200000000002            2  01022538102011102000000001778710000000001N011020000000000000000000000000000000000000000000000000000000000000000100002253816809EDMILSON ALVES DA SILVA                 RUA JOSE CALIXTO DO CARMO - 286 AP.93 -             11702690                                                            000149
2SR. CAIXA, APOS O VENCIMENTO COBRAR 2% DE MULTA                                 NAO RECEBER APOS 30 DIAS DO VENCIMENTO.                                                                                                                                                                                                         01102000000000000000110200000000000000       0090339900006270022538102012000150
100000000000000000000009033990000627000000000000000000000000010002020037947010201400000000002            2  01379470102011102000000003159110000000001N011020000000000000000000000000000000000000000000000000000000000000000100037947070873BRUNO DE CAETANO MARRINHAS              RUA ADRIATICO - 151 AP.82 BLOCO 18 - JAR            09172180                                                            000152
2SR. CAIXA, APOS O VENCIMENTO COBRAR 2% DE MULTA                                 NAO RECEBER APOS 30 DIAS DO VENCIMENTO.                                                                                                                                                                                                         01102000000000000000110200000000000000       0090339900006270379470102014000153
100000000000000000000009033990000627000000000000000000000000010002020037517710201200000000002            2  01375177102009102000000003333620000000001N011020000000000000000000000000000000000000000000000000000000000000000100037517785869RENATO JOSE DE LIMA MELO                RUA ARISTIDES LOBO - 148 AP.41 BLOCO 03             03041100                                                            000155
2SR. CAIXA, APOS O VENCIMENTO COBRAR 2% DE MULTA                                 NAO RECEBER APOS 30 DIAS DO VENCIMENTO.                                                                                                                                                                                                         01102000000000000000110200000000000000       0090339900006270375177102012000156
100000000000000000000009033990000627000000000000000000000000010002020070367910201300000000002            2  01703679102011102000000001670310000000001N011020000000000000000000000000000000000000000000000000000000000000000100070367949849TEODOMIRO ALVES DOS SANTOS              RUA ANDRE PAZ - 13 - JARDIM SANTO ANDRE             08390230                                                            000158
2SR. CAIXA, APOS O VENCIMENTO COBRAR 2% DE MULTA                                 NAO RECEBER APOS 30 DIAS DO VENCIMENTO.                                                                                                                                                                                                         01102000000000000000110200000000000000       0090339900006270703679102013000159
100000000000000000000009033990000627000000000000000000000000010002020016960810201600000000002            2  01169608102008102000000002563570000000001N011020000000000000000000000000000000000000000000000000000000000000000100016960804876LUIZ ALVES DE SOUZA JUNIOR              RUA FRANCISCO ALVES - 394 CASA B - PAECA            11450320                                                            000161
2SR. CAIXA, APOS O VENCIMENTO COBRAR 2% DE MULTA                                 NAO RECEBER APOS 30 DIAS DO VENCIMENTO.                                                                                                                                                                                                         01102000000000000000110200000000000000       0090339900006270169608102016000162
100000000000000000000009033990000627000000000000000000000000010002020004410810201200000000002            2  01044108102009102000000002476890000000001N011020000000000000000000000000000000000000000000000000000000000000000100004410802860LUIZ ALBERTO MARINHO                    RUA DA INDEPENDENCIA - 706 AP.41B - CAMB            01524000                                                            000164
2SR. CAIXA, APOS O VENCIMENTO COBRAR 2% DE MULTA                                 NAO RECEBER APOS 30 DIAS DO VENCIMENTO.                                                                                                                                                                                                         01102000000000000000110200000000000000       0090339900006270044108102012000165
100000000000000000000009033990000627000000000000000000000000010002020008899310201300000000002            2  01088993102008102000000002546900000000001N011020000000000000000000000000000000000000000000000000000000000000000100008899362858ELAINE D ALMEIDA FERDINANDY             ALAMEDA SUBTENENTE AVIADOR FRANCISCO HIE            02187040                                                            000167
2SR. CAIXA, APOS O VENCIMENTO COBRAR 2% DE MULTA                                 NAO RECEBER APOS 30 DIAS DO VENCIMENTO.                                                                                                                                                                                                         01102000000000000000110200000000000000       0090339900006270088993102013000168
100000000000000000000009033990000627000000000000000000000000010002020029425010201800000000002            2  01294250102008102000000002553280000000001N011020000000000000000000000000000000000000000000000000000000000000000100029425027897FABIA DOS SANTOS DE ANDRADE             AVENIDA ALCIDES CANDIDO DOS SANTOS - 248            11705480                                                            000170
2SR. CAIXA, APOS O VENCIMENTO COBRAR 2% DE MULTA                                 NAO RECEBER APOS 30 DIAS DO VENCIMENTO.                                                                                                                                                                                                         01102000000000000000110200000000000000       0090339900006270294250102018000171
100000000000000000000009033990000627000000000000000000000000010002020018035010201P00000000002            2  01180350102011102000000002235540000000001N011020000000000000000000000000000000000000000000000000000000000000000100018035075861ROSANGELA BISPO SANTOS                  RUA CASSIANO GABUS MENDES - 292 - JD. CA            09896160                                                            000173
2SR. CAIXA, APOS O VENCIMENTO COBRAR 2% DE MULTA                                 NAO RECEBER APOS 30 DIAS DO VENCIMENTO.                                                                                                                                                                                                         01102000000000000000110200000000000000       009033990000627018035010201P000174
100000000000000000000009033990000627000000000000000000000000010002020078382710201300000000002            2  01783827102008102000000002580230000000001N011020000000000000000000000000000000000000000000000000000000000000000100078382700497JARMELINA BARBOSA DA SILVA              RUA OSCAR CINTRA GORDINHO - 211 AP.51 -             01512010                                                            000176
2SR. CAIXA, APOS O VENCIMENTO COBRAR 2% DE MULTA                                 NAO RECEBER APOS 30 DIAS DO VENCIMENTO.                                                                                                                                                                                                         01102000000000000000110200000000000000       0090339900006270783827102013000177
100000000000000000000009033990000627000000000000000000000000010002020007535310201200000000002            2  01075353102008102000000002530230000000001N011020000000000000000000000000000000000000000000000000000000000000000100007535375839AINAILDE PEREIRA DE CASTRO OLIVETTO     TRAVESSA DORALINA ELIETE ADAO DA SILVA -            08021026                                                            000179
2SR. CAIXA, APOS O VENCIMENTO COBRAR 2% DE MULTA                                 NAO RECEBER APOS 30 DIAS DO VENCIMENTO.                                                                                                                                                                                                         01102000000000000000110200000000000000       0090339900006270075353102012000180
100000000000000000000009033990000627000000000000000000000000010002020028974210201P00000000002            2  01289742102008102000000002503280000000001N011020000000000000000000000000000000000000000000000000000000000000000100028974233827MARISTELA FAVANI DE OLIVEIRA            RUA GIUSEPPE CARNEVALLI - 96 - BAIRRO BO            09572100                                                            000182
2SR. CAIXA, APOS O VENCIMENTO COBRAR 2% DE MULTA                                 NAO RECEBER APOS 30 DIAS DO VENCIMENTO.                                                                                                                                                                                                         01102000000000000000110200000000000000       009033990000627028974210201P000183
100000000000000000000009033990000627000000000000000000000000010002020004767610202600000000002            2  01047676102009102000000003306630000000001N011020000000000000000000000000000000000000000000000000000000000000000100004767679893ORLANDO GRANDE FILHO                    RUA ORLANDO MIGLIARI - 101 - JARDIM OURO            19906140                                                            000185
2SR. CAIXA, APOS O VENCIMENTO COBRAR 2% DE MULTA                                 NAO RECEBER APOS 30 DIAS DO VENCIMENTO.                                                                                                                                                                                                         01102000000000000000110200000000000000       0090339900006270047676102026000186
100000000000000000000009033990000627000000000000000000000000010002020009169710201700000000002            2  01091697102008102000000001980920000000001N011020000000000000000000000000000000000000000000000000000000000000000100009169701830TADEU CONSTANTINO LOPES                 RUA JOSE ANTONIO COELHO - 349 CASA 01 -             04011061                                                            000188
2SR. CAIXA, APOS O VENCIMENTO COBRAR 2% DE MULTA                                 NAO RECEBER APOS 30 DIAS DO VENCIMENTO.                                                                                                                                                                                                         01102000000000000000110200000000000000       0090339900006270091697102017000189
100000000000000000000009033990000627000000000000000000000000010002020064677810201300000000002            2  01646778102009102000000002659920000000001N011020000000000000000000000000000000000000000000000000000000000000000100064677850887ANTONIO CARLOS DE OLIVEIRA              RUA DR.ANTONIO MAZILLI FILHO - 435 - PAR            02230070                                                            000191
2SR. CAIXA, APOS O VENCIMENTO COBRAR 2% DE MULTA                                 NAO RECEBER APOS 30 DIAS DO VENCIMENTO.                                                                                                                                                                                                         01102000000000000000110200000000000000       0090339900006270646778102013000192
9                                                                                                                                                                                                                                                                                                                                                                                                         000193