01REMESSA01COBRANCA       00000000000004991454AIRES CONSTRUTORA E INCORPORAD237BRADESCO       151018        MX0000083                                                                                                                                                                                                                                                                                     000001
100000000000000000000009077090001674800000000000000000000000010002100001224510181400000000002            2  01012245101825101800000003468770000000001N111018000000000000000000000000000000000000000000000000000000000000000100001224509579REINALDO JUNIOR MARTINS DE ABREU        AVENIDA INTERLAGOS - 7.224 - INTERLAGOS             04777000                                                            000002
2SR. CAIXA, APOS O VENCIMENTO COBRAR 10% DE MULTA                                NAO RECEBER APOS 30 DIAS DO VENCIMENTO.                                                                                                                                                                                                         15101800000000000001510180000000000000       0090770900016748012245101814000003
100000000000000000000009077090001674800000000000000000000000010002100003325110181500000000002            2  01033251101825101800000003373600000000001N111018000000000000000000000000000000000000000000000000000000000000000100003325102808MARCOS DE OLIVEIRA JUNIOR               RUA LUIS NOVELLETO - 91 - PARQUE CONTINE            05324080                                                            000005
2SR. CAIXA, APOS O VENCIMENTO COBRAR 10% DE MULTA                                NAO RECEBER APOS 30 DIAS DO VENCIMENTO.                                                                                                                                                                                                         15101800000000000001510180000000000000       0090770900016748033251101815000006
100000000000000000000009077090001674800000000000000000000000010002100016338910181700000000002            2  01163389101825101800000003422570000000001N111018000000000000000000000000000000000000000000000000000000000000000100016338929806EDVALDO DA SILVA ANDRADE                RUA ARIA - 434 - PARQUE ALVES DE LIMA -             04902170                                                            000008
2SR. CAIXA, APOS O VENCIMENTO COBRAR 10% DE MULTA                                NAO RECEBER APOS 30 DIAS DO VENCIMENTO.                                                                                                                                                                                                         15101800000000000001510180000000000000       0090770900016748163389101817000009
100000000000000000000009077090001674800000000000000000000000010002100026836910181700000000002            2  01268369101825101800000003099380000000001N111018000000000000000000000000000000000000000000000000000000000000000100026836908860VANDERLEI FIGUEIREDO DE CARVALHO        RUA TUPI - 840 - VILA TUPI - PRAIA GRAND            11703260                                                            000011
2SR. CAIXA, APOS O VENCIMENTO COBRAR 10% DE MULTA                                NAO RECEBER APOS 30 DIAS DO VENCIMENTO.                                                                                                                                                                                                         15101800000000000001510180000000000000       0090770900016748268369101817000012
100000000000000000000009077090001674800000000000000000000000010002100059861510181300000000002            2  01598615101825101800000003442550000000001N111018000000000000000000000000000000000000000000000000000000000000000100059861576800REINALDO LOPES DE OLIVEIRA              RUA DA SERVIDAO - 40 - VILA ROSCHEL - SA            04891045                                                            000014
2SR. CAIXA, APOS O VENCIMENTO COBRAR 10% DE MULTA                                NAO RECEBER APOS 30 DIAS DO VENCIMENTO.                                                                                                                                                                                                         15101800000000000001510180000000000000       0090770900016748598615101813000015
100000000000000000000009077090001674800000000000000000000000010002100016330910181100000000002            2  01163309101825101800000003421700000000001N111018000000000000000000000000000000000000000000000000000000000000000100016330938830KARINA CORDEIRO PIASSA                  CONDE MOREIRA LIMA - 644 - JARDIM JABAQU            04384032                                                            000017
2SR. CAIXA, APOS O VENCIMENTO COBRAR 10% DE MULTA                                NAO RECEBER APOS 30 DIAS DO VENCIMENTO.                                                                                                                                                                                                         15101800000000000001510180000000000000       0090770900016748163309101811000018
100000000000000000000009077090001674800000000000000000000000010002100077027610181400000000002            2  01770276101825101800000003325630000000001N111018000000000000000000000000000000000000000000000000000000000000000100077027604868CLINEU LISSONI                          AVENIDA VILA EMA - 1100 AP.41 - VILA PRU            03156000                                                            000020
2SR. CAIXA, APOS O VENCIMENTO COBRAR 10% DE MULTA                                NAO RECEBER APOS 30 DIAS DO VENCIMENTO.                                                                                                                                                                                                         15101800000000000001510180000000000000       0090770900016748770276101814000021
100000000000000000000009077090001674800000000000000000000000010002100029380710181100000000002            2  01293807101825101800000003099560000000001N111018000000000000000000000000000000000000000000000000000000000000000100029380708882EDUARDO MENDONCA DAMASCENO              RUA MONTE CASTELO - 296 AP.12 - AVIACAO             11702720                                                            000023
2SR. CAIXA, APOS O VENCIMENTO COBRAR 10% DE MULTA                                NAO RECEBER APOS 30 DIAS DO VENCIMENTO.                                                                                                                                                                                                         15101800000000000001510180000000000000       0090770900016748293807101811000024
100000000000000000000009077090001674800000000000000000000000010002100023988510181500000000002            2  01239885101825101800000003147260000000001N111018000000000000000000000000000000000000000000000000000000000000000100023988525634DALMY PIMENTA                           SAO CAETANO - 136 - VILA SAO VICENTE - U            38026220                                                            000026
2SR. CAIXA, APOS O VENCIMENTO COBRAR 10% DE MULTA                                NAO RECEBER APOS 30 DIAS DO VENCIMENTO.                                                                                                                                                                                                         15101800000000000001510180000000000000       0090770900016748239885101815000027
100000000000000000000009077090001674800000000000000000000000010002100004735210181700000000002            2  01047352101825101800000003421900000000001N111018000000000000000000000000000000000000000000000000000000000000000100004735273832DARIO LUIZ GONCALVES                    RUA MONTE CASTELO - 295 AP.113 - AVIACAO            11702720                                                            000029
2SR. CAIXA, APOS O VENCIMENTO COBRAR 10% DE MULTA                                NAO RECEBER APOS 30 DIAS DO VENCIMENTO.                                                                                                                                                                                                         15101800000000000001510180000000000000       0090770900016748047352101817000030
100000000000000000000009077090001674800000000000000000000000010002100007635210181700000000002            2  01076352101825101800000003059390000000001N111018000000000000000000000000000000000000000000000000000000000000000100007635293893SILVIO CARDOSO ZACARIAS                 RUA SOLIDONIO LEITE - 2718 AP.102 BLOCO             03275000                                                            000032
2SR. CAIXA, APOS O VENCIMENTO COBRAR 10% DE MULTA                                NAO RECEBER APOS 30 DIAS DO VENCIMENTO.                                                                                                                                                                                                         15101800000000000001510180000000000000       0090770900016748076352101817000033
100000000000000000000009077090001674800000000000000000000000010002100067192910181700000000002            2  01671929101825101800000002995050000000001N111018000000000000000000000000000000000000000000000000000000000000000100067192920800SONIA MARIA RIBEIRO SUDO                RUA INGAZEIRA - 133 - SAO MIGUEL - SAO P            08032080                                                            000035
2SR. CAIXA, APOS O VENCIMENTO COBRAR 10% DE MULTA                                NAO RECEBER APOS 30 DIAS DO VENCIMENTO.                                                                                                                                                                                                         15101800000000000001510180000000000000       0090770900016748671929101817000036
100000000000000000000009077090001674800000000000000000000000010002100007975910181000000000002            2  01079759101825101800000003328450000000001N111018000000000000000000000000000000000000000000000000000000000000000100007975958808JOCY VIGNADO                            RUA PEDRO GONCALVES SOBRINHO - 568 - PAR            13098641                                                            000038
2SR. CAIXA, APOS O VENCIMENTO COBRAR 10% DE MULTA                                NAO RECEBER APOS 30 DIAS DO VENCIMENTO.                                                                                                                                                                                                         15101800000000000001510180000000000000       0090770900016748079759101810000039
100000000000000000000009077090001674800000000000000000000000010002100036712510181300000000002            2  01367125101825101800000003112230000000001N111018000000000000000000000000000000000000000000000000000000000000000100036712580803WALTER BARRETO DE ALMEIDA               RUA MONTE CASTELO - 296 AP.44 - AVIACAO             11702720                                                            000041
2SR. CAIXA, APOS O VENCIMENTO COBRAR 10% DE MULTA                                NAO RECEBER APOS 30 DIAS DO VENCIMENTO.                                                                                                                                                                                                         15101800000000000001510180000000000000       0090770900016748367125101813000042
100000000000000000000009077090001674800000000000000000000000010002100036386810181200000000002            2  01363868101825101800000003515350000000001N111018000000000000000000000000000000000000000000000000000000000000000100036386861833ALINE LEE WEI DE SOUZA                  AV. PRES.CASTELO BRANCO - 9127 AP.251 BL            11704600                                                            000044
2SR. CAIXA, APOS O VENCIMENTO COBRAR 10% DE MULTA                                NAO RECEBER APOS 30 DIAS DO VENCIMENTO.                                                                                                                                                                                                         15101800000000000001510180000000000000       0090770900016748363868101812000045
100000000000000000000009077090001674800000000000000000000000010002100070465310181300000000002            2  01704653101825101800000003197650000000001N111018000000000000000000000000000000000000000000000000000000000000000100070465320953SIDNEY CARASKI                          RUA DR.CELSO PACHECO BENTIM - 502 - PARQ            03571020                                                            000047
2SR. CAIXA, APOS O VENCIMENTO COBRAR 10% DE MULTA                                NAO RECEBER APOS 30 DIAS DO VENCIMENTO.                                                                                                                                                                                                         15101800000000000001510180000000000000       0090770900016748704653101813000048
100000000000000000000009077090001674800000000000000000000000010002100075759410181900000000002            2  01757594101825101800000002504030000000001N111018000000000000000000000000000000000000000000000000000000000000000100075759446800VALTER MUTAFEI                          RUA MONTE CASTELO - 295 AP.54 - AVIACAO             11702720                                                            000050
2SR. CAIXA, APOS O VENCIMENTO COBRAR 10% DE MULTA                                NAO RECEBER APOS 30 DIAS DO VENCIMENTO.                                                                                                                                                                                                         15101800000000000001510180000000000000       0090770900016748757594101819000051
100000000000000000000009077090001674800000000000000000000000010002100003865710181800000000002            2  01038657101810101800000003062470000000001N011018000000000000000000000000000000000000000000000000000000000000000100003865776841FRANCISCO JOSE ROCCO                    RUA FABIO JOSE BEZERRA - 130 AP.86 - PAR            03805000                                                            000053
2SR. CAIXA, APOS O VENCIMENTO COBRAR 10% DE MULTA                                NAO RECEBER APOS 30 DIAS DO VENCIMENTO.                                                                                                                                                                                                         15101800000000000001510180000000000000       0090770900016748038657101818000054
100000000000000000000009077090001674800000000000000000000000010002100070328710181700000000002            2  01703287101825101800000003577640000000001N111018000000000000000000000000000000000000000000000000000000000000000100070328706868VALTER LIMA FERNANDES                   RUA DOMINGOS JORGE VELHO - 52 - CENTRO -            06843550                                                            000056
2SR. CAIXA, APOS O VENCIMENTO COBRAR 10% DE MULTA                                NAO RECEBER APOS 30 DIAS DO VENCIMENTO.                                                                                                                                                                                                         15101800000000000001510180000000000000       0090770900016748703287101817000057
100000000000000000000009077090001674800000000000000000000000010002100023132610181200000000002            2  01231326101825101800000001943340000000001N111018000000000000000000000000000000000000000000000000000000000000000100023132672882LEANDRO MORENO                          RUA MONTE CASTELO - 296 AP.64 - AVIACAO             11702720                                                            000059
2SR. CAIXA, APOS O VENCIMENTO COBRAR 10% DE MULTA                                NAO RECEBER APOS 30 DIAS DO VENCIMENTO.                                                                                                                                                                                                         15101800000000000001510180000000000000       0090770900016748231326101812000060
100000000000000000000009077090001674800000000000000000000000010002100099264610181100000000002            2  01992646101825101800000003314170000000001N111018000000000000000000000000000000000000000000000000000000000000000100099264692800LEONTINO PINHEIRO DA SILVA              AVENIDA JOAO BATISTA FITIPALDI - 469 - V            08685000                                                            000062
2SR. CAIXA, APOS O VENCIMENTO COBRAR 10% DE MULTA                                NAO RECEBER APOS 30 DIAS DO VENCIMENTO.                                                                                                                                                                                                         15101800000000000001510180000000000000       0090770900016748992646101811000063
100000000000000000000009077090001674800000000000000000000000010002100000666310181200000000002            2  01006663101825101800000003197250000000001N111018000000000000000000000000000000000000000000000000000000000000000100000666344825LUIZ HENRIQUE DE CAMPOS                 RUA JOAO CARLOS CAVALCANTI REIS - 21 - J            02281206                                                            000065
2SR. CAIXA, APOS O VENCIMENTO COBRAR 10% DE MULTA                                NAO RECEBER APOS 30 DIAS DO VENCIMENTO.                                                                                                                                                                                                         15101800000000000001510180000000000000       0090770900016748006663101812000066
100000000000000000000009077090001674800000000000000000000000010002100029155010181200000000002            2  01291550101825101800000003376430000000001N111018000000000000000000000000000000000000000000000000000000000000000100029155026842DANIELA YOSHIDA                         RUA MONTE CASTELO - 262 AP.34 - AVIACAO             11702720                                                            000068
2SR. CAIXA, APOS O VENCIMENTO COBRAR 10% DE MULTA                                NAO RECEBER APOS 30 DIAS DO VENCIMENTO.                                                                                                                                                                                                         15101800000000000001510180000000000000       0090770900016748291550101812000069
100000000000000000000009077090001674800000000000000000000000010002100001204410181600000000002            2  01012044101825101800000002749600000000001N111018000000000000000000000000000000000000000000000000000000000000000100001204431809CEZAR TALAVERA JUNIOR                   RUA MAESTRO ARTURO DE ANGELIS  - 190 AP.            05139010                                                            000071
2SR. CAIXA, APOS O VENCIMENTO COBRAR 10% DE MULTA                                NAO RECEBER APOS 30 DIAS DO VENCIMENTO.                                                                                                                                                                                                         15101800000000000001510180000000000000       0090770900016748012044101816000072
100000000000000000000009077090001674800000000000000000000000010002100004227510181500000000002            2  01042275101825101800000003564340000000001N111018000000000000000000000000000000000000000000000000000000000000000100004227553970ALESSANDRO ISRAEL GOULART               RUA PROFESSORA CARLINDA RIBEIRO - 21 - F            02866200                                                            000074
2SR. CAIXA, APOS O VENCIMENTO COBRAR 10% DE MULTA                                NAO RECEBER APOS 30 DIAS DO VENCIMENTO.                                                                                                                                                                                                         15101800000000000001510180000000000000       0090770900016748042275101815000075
100000000000000000000009077090001674800000000000000000000000010002100060811410181900000000002            2  01608114101825101800000003284950000000001N111018000000000000000000000000000000000000000000000000000000000000000100060811420868HELIO BASSI                             AV.PARIS,575 - PRACA ANTONIO FIGUEROA -             11700082                                                            000077
2SR. CAIXA, APOS O VENCIMENTO COBRAR 10% DE MULTA                                NAO RECEBER APOS 30 DIAS DO VENCIMENTO.                                                                                                                                                                                                         15101800000000000001510180000000000000       0090770900016748608114101819000078
100000000000000000000009077090001674800000000000000000000000010002100001024710181900000000002            2  01010247101825101800000003108440000000001N111018000000000000000000000000000000000000000000000000000000000000000100001024794881CLAUDIO RODRIGUES                       RUA ARACATUBA - 242 - LAPA - SAO PAULO -            05058010                                                            000080
2SR. CAIXA, APOS O VENCIMENTO COBRAR 10% DE MULTA                                NAO RECEBER APOS 30 DIAS DO VENCIMENTO.                                                                                                                                                                                                         15101800000000000001510180000000000000       0090770900016748010247101819000081
100000000000000000000009077090001674800000000000000000000000010002100002225010181P00000000002            2  01022250101825101800000004765640000000001N111018000000000000000000000000000000000000000000000000000000000000000100002225072841PEDRO EDUARDO DE AZEVEDO                RUA NATH ZILMAN - 46 - JARDIM SAMAMBAIA             07600000                                                            000083
2SR. CAIXA, APOS O VENCIMENTO COBRAR 10% DE MULTA                                NAO RECEBER APOS 30 DIAS DO VENCIMENTO.                                                                                                                                                                                                         15101800000000000001510180000000000000       009077090001674802225010181P000084
100000000000000000000009077090001674800000000000000000000000010002100022037510181800000000002            2  01220375101825101800000003316370000000001N111018000000000000000000000000000000000000000000000000000000000000000100022037552882ANDREIA CRISTINA FERNANDES DANTAS       PCA CASTRO ALVES - 163 AP.33 - VILA SAO             13224299                                                            000086
2SR. CAIXA, APOS O VENCIMENTO COBRAR 10% DE MULTA                                NAO RECEBER APOS 30 DIAS DO VENCIMENTO.                                                                                                                                                                                                         15101800000000000001510180000000000000       0090770900016748220375101818000087
100000000000000000000009077090001674800000000000000000000000010002100019288710181600000000002            2  01192887101825101800000002700280000000001N111018000000000000000000000000000000000000000000000000000000000000000100019288787844EMERSON LUIZ MARTINEZ PEREIRA           RUA MONTE CASTELO - 296 AP.74 - AVIACAO             11702720                                                            000089
2SR. CAIXA, APOS O VENCIMENTO COBRAR 10% DE MULTA                                NAO RECEBER APOS 30 DIAS DO VENCIMENTO.                                                                                                                                                                                                         15101800000000000001510180000000000000       0090770900016748192887101816000090
100000000000000000000009077090001674800000000000000000000000010002100027198410181P00000000002            2  01271984101825101800000002287280000000001N111018000000000000000000000000000000000000000000000000000000000000000100027198452809CRISTIANE AURELIANO DA SILVA MAIA       RUA MONTE CASTELO - 262 AP.25 - AVIACAO             11702720                                                            000092
2SR. CAIXA, APOS O VENCIMENTO COBRAR 10% DE MULTA                                NAO RECEBER APOS 30 DIAS DO VENCIMENTO.                                                                                                                                                                                                         15101800000000000001510180000000000000       009077090001674827198410181P000093
100000000000000000000009077090001674800000000000000000000000010002100021246210181300000000002            2  01212462101825101800000002791380000000001N111018000000000000000000000000000000000000000000000000000000000000000100021246231840ALEXANDRO DA CUNHA MIGUES               AVENIDA CONSELHEIRO CARRAO - 1861 CONJ.5            03403001                                                            000095
2SR. CAIXA, APOS O VENCIMENTO COBRAR 10% DE MULTA                                NAO RECEBER APOS 30 DIAS DO VENCIMENTO.                                                                                                                                                                                                         15101800000000000001510180000000000000       0090770900016748212462101813000096
100000000000000000000009077090001674800000000000000000000000010002100004864910181200000000002            2  01048649101825101800000001671320000000001N111018000000000000000000000000000000000000000000000000000000000000000100004864924600RENATO SANTACHIARA SALVADORI            RUA PENSYLVANIA - 116 - PAYSAGE BRISE -             06730000                                                            000098
2SR. CAIXA, APOS O VENCIMENTO COBRAR 10% DE MULTA                                NAO RECEBER APOS 30 DIAS DO VENCIMENTO.                                                                                                                                                                                                         15101800000000000001510180000000000000       0090770900016748048649101812000099
100000000000000000000009077090001674800000000000000000000000010002100018834210181100000000002            2  01188342101825101800000003260640000000001N111018000000000000000000000000000000000000000000000000000000000000000100018834257863ILTON FERNANDO MUTCHNIK                 RUA ASSUNGUI - 700 AP.222 - VILA GUMERCI            04131001                                                            000101
2SR. CAIXA, APOS O VENCIMENTO COBRAR 10% DE MULTA                                NAO RECEBER APOS 30 DIAS DO VENCIMENTO.                                                                                                                                                                                                         15101800000000000001510180000000000000       0090770900016748188342101811000102
100000000000000000000009077090001674800000000000000000000000010002100018470510181300000000002            2  01184705101825101800000004106530000000001N111018000000000000000000000000000000000000000000000000000000000000000100018470520881SILVANA ALVES DE OLIVEIRA               RUA MONTE CASTELO - 262 AP.91 - AVIACAO             11702720                                                            000104
2SR. CAIXA, APOS O VENCIMENTO COBRAR 10% DE MULTA                                NAO RECEBER APOS 30 DIAS DO VENCIMENTO.                                                                                                                                                                                                         15101800000000000001510180000000000000       0090770900016748184705101813000105
100000000000000000000009077090001674800000000000000000000000010002100009297510181300000000002            2  01092975101825101800000002858920000000001N111018000000000000000000000000000000000000000000000000000000000000000100009297523846MARCOS ROBERTO DE CASTRO FERREIRA       RUA MONTE CASTELO - 262 AP.105 - AVIACAO            11702720                                                            000107
2SR. CAIXA, APOS O VENCIMENTO COBRAR 10% DE MULTA                                NAO RECEBER APOS 30 DIAS DO VENCIMENTO.                                                                                                                                                                                                         15101800000000000001510180000000000000       0090770900016748092975101813000108
100000000000000000000009077090001674800000000000000000000000010002100001164110181200000000002            2  01011641101825101800000003542870000000001N111018000000000000000000000000000000000000000000000000000000000000000100001164158864DAVID BLEY LACERDA                      RUA CONEGO ARAUJO MARCONDES - 188 - BAIR            02550080                                                            000110
2SR. CAIXA, APOS O VENCIMENTO COBRAR 10% DE MULTA                                NAO RECEBER APOS 30 DIAS DO VENCIMENTO.                                                                                                                                                                                                         15101800000000000001510180000000000000       0090770900016748011641101812000111
100000000000000000000009077090001674800000000000000000000000010002100031498010181600000000002            2  01314980101825101800000004305840000000001N111018000000000000000000000000000000000000000000000000000000000000000100031498008895POLIANE  SIBELE DA SILVA                PRACA GENERAL COSTA BARRETO - 56 AP.181             03325070                                                            000113
2SR. CAIXA, APOS O VENCIMENTO COBRAR 10% DE MULTA                                NAO RECEBER APOS 30 DIAS DO VENCIMENTO.                                                                                                                                                                                                         15101800000000000001510180000000000000       0090770900016748314980101816000114
100000000000000000000009077090001674800000000000000000000000010002100000588110181P00000000002            2  01005881101825101800000002525460000000001N111018000000000000000000000000000000000000000000000000000000000000000100000588109860JOSE LIARTE GIANTE                      AVENIDA LUIZ GONZAGA DO AMARAL - 143 - J            09320630                                                            000116
2SR. CAIXA, APOS O VENCIMENTO COBRAR 10% DE MULTA                                NAO RECEBER APOS 30 DIAS DO VENCIMENTO.                                                                                                                                                                                                         15101800000000000001510180000000000000       009077090001674800588110181P000117
100000000000000000000009077090001674800000000000000000000000010002100014386810181200000000002            2  01143868101825101800000002020260000000001N111018000000000000000000000000000000000000000000000000000000000000000100014386860134SEVERINO CARLOS DE OLIVEIRA             RUA MONTE CASTELO - 262 AP.54 - AVIACAO             11702720                                                            000119
2SR. CAIXA, APOS O VENCIMENTO COBRAR 10% DE MULTA                                NAO RECEBER APOS 30 DIAS DO VENCIMENTO.                                                                                                                                                                                                         15101800000000000001510180000000000000       0090770900016748143868101812000120
100000000000000000000009077090001674800000000000000000000000010002100029088210181P00000000002            2  01290882101825101800000002246000000000001N111018000000000000000000000000000000000000000000000000000000000000000100029088221804FABIANO SPERANDEO                       RUA MONTE CASTELO - 296 AP.93 - AVIACAO             11702720                                                            000122
2SR. CAIXA, APOS O VENCIMENTO COBRAR 10% DE MULTA                                NAO RECEBER APOS 30 DIAS DO VENCIMENTO.                                                                                                                                                                                                         15101800000000000001510180000000000000       009077090001674829088210181P000123
100000000000000000000009077090001674800000000000000000000000010002100039393710181800000000002            2  01393937101825101800000001392370000000001N111018000000000000000000000000000000000000000000000000000000000000000100039393790850NAIRON RICARDO DE ARAUJO SANTOS         RUA MONTE CASTELO - 262 AP.23 - AVIACAO             11702720                                                            000125
2SR. CAIXA, APOS O VENCIMENTO COBRAR 10% DE MULTA                                NAO RECEBER APOS 30 DIAS DO VENCIMENTO.                                                                                                                                                                                                         15101800000000000001510180000000000000       0090770900016748393937101818000126
100000000000000000000009077090001674800000000000000000000000010002100041896810181900000000002            2  01418968101825101800000002027780000000001N111018000000000000000000000000000000000000000000000000000000000000000100041896807968SERGIO ROBERTO DA SILVA                 RUA DOS INGLESES - 542 AP.61 - MORRO DOS            01329000                                                            000128
2SR. CAIXA, APOS O VENCIMENTO COBRAR 10% DE MULTA                                NAO RECEBER APOS 30 DIAS DO VENCIMENTO.                                                                                                                                                                                                         15101800000000000001510180000000000000       0090770900016748418968101819000129
100000000000000000000009077090001674800000000000000000000000010002100088137310181700000000002            2  01881373101825101800000001838710000000001N111018000000000000000000000000000000000000000000000000000000000000000100088137384804ANA LUCIA DA SILVA                      RUA DOUTOR EPAMINONDAS BARRA - 147 - VIL            04438100                                                            000131
2SR. CAIXA, APOS O VENCIMENTO COBRAR 10% DE MULTA                                NAO RECEBER APOS 30 DIAS DO VENCIMENTO.                                                                                                                                                                                                         15101800000000000001510180000000000000       0090770900016748881373101817000132
9                                                                                                                                                                                                                                                                                                                                                                                                         000133