01REMESSA01COBRANCA       00000000000005331186HB SANTOS CONSTRUTORA E INCORP237BRADESCO       010121        MX0000012                                                                                                                                                                                                                                                                                     000001
100000000000000000000009033990000995400000000000000000000000010002020002252101211700000000002            2  01022521012119012100000000002000000000001N010121000000000000000000000000000000000000000000000000000000000000000100002252149892AIRES MOTA DOS SANTOS                   AVENIDA BRASIL - 600 - AVIACAO - PRAIA G            11701090                                                            000002
2SR. CAIXA, APOS O VENCIMENTO COBRAR 2% DE MULTA                                 NAO RECEBER APOS 30 DIAS DO VENCIMENTO.                                                                                                                                                                                                         01012100000000000000101210000000000000       0090339900009954022521012117000003
9                                                                                                                                                                                                                                                                                                                                                                                                         000004