01REMESSA01COBRANCA       00000000000008017025HB SANTOS CONSTRUTORA E INCORP237BRADESCO       010121        MX0000119                                                                                                                                                                                                                                                                                     000001
100000000000000000000009033990000627000000000000000000000000010002020011613107118400000000002            2  01116131071115021700000008255770000000001N130217000000000000000000000000000000000000000000000000000000000000000100018344803888MARCELO BERNARDO                        RUA MONTE CASTELO - 262 AP.84 - AVIACAO             11702720                                                            000002
2SR. CAIXA, APOS O VENCIMENTO COBRAR 2% DE MULTA                                 NAO RECEBER APOS 30 DIAS DO VENCIMENTO.                                                                                                                                                                                                         01012100000000000000101210000000000000       0090339900006270116131071184000003
100000000000000000000009033990000627000000000000000000000000010002020029671501211000000000002            2  01296715012109012100000002853610000000001N010121000000000000000000000000000000000000000000000000000000000000000100029671526845ROGERIO CONSENTINO                      RUA CARLOS MAZER  - 678 - VILA CARMOSINA            08290700                                                            000005
2SR. CAIXA, APOS O VENCIMENTO COBRAR 2% DE MULTA                                 NAO RECEBER APOS 30 DIAS DO VENCIMENTO.                                                                                                                                                                                                         01012100000000000000101210000000000000       0090339900006270296715012110000006
100000000000000000000009033990000627000000000000000000000000010002020003863001211200000000002            2  01038630012109012100000002695480000000001N010121000000000000000000000000000000000000000000000000000000000000000100003863075803HERALDO MENQUINI                        RUA CARLOS JOSE BORSTENS - 50 AP.15 - AV            11702750                                                            000008
2SR. CAIXA, APOS O VENCIMENTO COBRAR 2% DE MULTA                                 NAO RECEBER APOS 30 DIAS DO VENCIMENTO.                                                                                                                                                                                                         01012100000000000000101210000000000000       0090339900006270038630012112000009
100000000000000000000009033990000627000000000000000000000000010002020029028401211P00000000002            2  01290284012109012100000002761250000000001N010121000000000000000000000000000000000000000000000000000000000000000100029028478825LEONARDO LOUZADA                        RUA CARLOS JOSE BORSTENS - 50 AP.35 - AV            11702750                                                            000011
2SR. CAIXA, APOS O VENCIMENTO COBRAR 2% DE MULTA                                 NAO RECEBER APOS 30 DIAS DO VENCIMENTO.                                                                                                                                                                                                         01012100000000000000101210000000000000       009033990000627029028401211P000012
100000000000000000000009033990000627000000000000000000000000010002020032878501211700000000002            2  01328785012109012100000003990570000000001N010121000000000000000000000000000000000000000000000000000000000000000100032878512847LEONARDO MOURA MONIZ CALDEIRA           RUA BALSA - 682 AP.134 T.02 - VILA ARCAD            02910000                                                            000014
2SR. CAIXA, APOS O VENCIMENTO COBRAR 2% DE MULTA                                 NAO RECEBER APOS 30 DIAS DO VENCIMENTO.                                                                                                                                                                                                         01012100000000000000101210000000000000       0090339900006270328785012117000015
100000000000000000000009033990000627000000000000000000000000010002020016479001211400000000002            2  01164790012109012100000004245240000000001N010121000000000000000000000000000000000000000000000000000000000000000100016479002806LOURDES PEREIRA DE QUEIROZ SECANECHIA   RUA PAULINO CURSI - 437 - CIDADE SAO MAT            03960060                                                            000017
2SR. CAIXA, APOS O VENCIMENTO COBRAR 2% DE MULTA                                 NAO RECEBER APOS 30 DIAS DO VENCIMENTO.                                                                                                                                                                                                         01012100000000000000101210000000000000       0090339900006270164790012114000018
100000000000000000000009033990000627000000000000000000000000010002020019635001211100000000002            2  01196350012109012100000003132240000000001N010121000000000000000000000000000000000000000000000000000000000000000100019635091885IVAN VIEIRA SILVA                       ABRAO JORGE - 3001 - JARDIM INTEGRACAO -            14405397                                                            000020
2SR. CAIXA, APOS O VENCIMENTO COBRAR 2% DE MULTA                                 NAO RECEBER APOS 30 DIAS DO VENCIMENTO.                                                                                                                                                                                                         01012100000000000000101210000000000000       0090339900006270196350012111000021
100000000000000000000009033990000627000000000000000000000000010002020009361401211100000000002            2  01093614012109012100000003082040000000001N010121000000000000000000000000000000000000000000000000000000000000000100009361471805JOSE BARBOSA DA SILVA                   RUA ALFREDO INACIO TRINDADE  - 60 AP.44             02344100                                                            000023
2SR. CAIXA, APOS O VENCIMENTO COBRAR 2% DE MULTA                                 NAO RECEBER APOS 30 DIAS DO VENCIMENTO.                                                                                                                                                                                                         01012100000000000000101210000000000000       0090339900006270093614012111000024
100000000000000000000009033990000627000000000000000000000000010002020012756901211500000000002            2  01127569012109012100000002660510000000001N010121000000000000000000000000000000000000000000000000000000000000000100012756959812ITAMAR JUVENAL DIAS DA SILVA            RUA ELISEU REINALDO MORAES VIEIRA - 90 A            02858000                                                            000026
2SR. CAIXA, APOS O VENCIMENTO COBRAR 2% DE MULTA                                 NAO RECEBER APOS 30 DIAS DO VENCIMENTO.                                                                                                                                                                                                         01012100000000000000101210000000000000       0090339900006270127569012115000027
100000000000000000000009033990000627000000000000000000000000010002020002731001211200000000002            2  01027310012109012100000003145440000000001N010121000000000000000000000000000000000000000000000000000000000000000100002731042842VALTER CERQUEIRA VILLA NOVA             RUA MACHADO - 106 - VILA AUGUSTA - GUARU            07025210                                                            000029
2SR. CAIXA, APOS O VENCIMENTO COBRAR 2% DE MULTA                                 NAO RECEBER APOS 30 DIAS DO VENCIMENTO.                                                                                                                                                                                                         01012100000000000000101210000000000000       0090339900006270027310012112000030
100000000000000000000009033990000627000000000000000000000000010002020002731001212000000000002            2  01027310012109012100000003145430000000001N010121000000000000000000000000000000000000000000000000000000000000000100002731042842VALTER CERQUEIRA VILLA NOVA             RUA MACHADO - 106 - VILA AUGUSTA - GUARU            07025210                                                            000032
2SR. CAIXA, APOS O VENCIMENTO COBRAR 2% DE MULTA                                 NAO RECEBER APOS 30 DIAS DO VENCIMENTO.                                                                                                                                                                                                         01012100000000000000101210000000000000       0090339900006270027310012120000033
100000000000000000000009033990000627000000000000000000000000010002020028802101211000000000002            2  01288021012109012100000002840240000000001N010121000000000000000000000000000000000000000000000000000000000000000100028802158894ELIEL HENRIQUE ZUZA                     RUA CARLOS JOSE BORSTENS - 50 AP.43 - BA            11702750                                                            000035
2SR. CAIXA, APOS O VENCIMENTO COBRAR 2% DE MULTA                                 NAO RECEBER APOS 30 DIAS DO VENCIMENTO.                                                                                                                                                                                                         01012100000000000000101210000000000000       0090339900006270288021012110000036
100000000000000000000009033990000627000000000000000000000000010002020005313701211000000000002            2  01053137012111012100000002295870000000001N010121000000000000000000000000000000000000000000000000000000000000000100005313717863EDIMICIO JOSE DE ARAUJO                 RUA JOSE CALIXTO DO CARMO - 286 AP.101 -            11702690                                                            000038
2SR. CAIXA, APOS O VENCIMENTO COBRAR 2% DE MULTA                                 NAO RECEBER APOS 30 DIAS DO VENCIMENTO.                                                                                                                                                                                                         01012100000000000000101210000000000000       0090339900006270053137012110000039
100000000000000000000009033990000627000000000000000000000000010002020029433601211900000000002            2  01294336012111012100000012155260000000001N010121000000000000000000000000000000000000000000000000000000000000000100029433631897MARIO MUNIZ                             RUA JOSE CALIXTO DO CARMO - 286 AP.53 -             11702690                                                            000041
2SR. CAIXA, APOS O VENCIMENTO COBRAR 2% DE MULTA                                 NAO RECEBER APOS 30 DIAS DO VENCIMENTO.                                                                                                                                                                                                         01012100000000000000101210000000000000       0090339900006270294336012119000042
100000000000000000000009033990000627000000000000000000000000010002020001847201211700000000002            2  01018472012111012100000002030470000000001N010121000000000000000000000000000000000000000000000000000000000000000100001847204864AMERICA CONCEICAO DA SILVA              RUA JOSE CALIXTO DO CARMO - 286 AP.44 -             11702690                                                            000044
2SR. CAIXA, APOS O VENCIMENTO COBRAR 2% DE MULTA                                 NAO RECEBER APOS 30 DIAS DO VENCIMENTO.                                                                                                                                                                                                         01012100000000000000101210000000000000       0090339900006270018472012117000045
100000000000000000000009033990000627000000000000000000000000010002020005029801211100000000002            2  01050298012109012100000002712520000000001N010121000000000000000000000000000000000000000000000000000000000000000100005029828885LAURINETE DA CONCEICAO DE NORONHA       RUA MARIA LUCIA DE TOLEDO LEITE MORAES -            04434040                                                            000047
2SR. CAIXA, APOS O VENCIMENTO COBRAR 2% DE MULTA                                 NAO RECEBER APOS 30 DIAS DO VENCIMENTO.                                                                                                                                                                                                         01012100000000000000101210000000000000       0090339900006270050298012111000048
100000000000000000000009033990000627000000000000000000000000010002020013388901211300000000002            2  01133889012111012100000002150070000000001N010121000000000000000000000000000000000000000000000000000000000000000100013388936889NEUTON DE SOUZA RAMOS                   RUA MARIA CRISTINA - 932 - JARDIM CASQUE            11533160                                                            000050
2SR. CAIXA, APOS O VENCIMENTO COBRAR 2% DE MULTA                                 NAO RECEBER APOS 30 DIAS DO VENCIMENTO.                                                                                                                                                                                                         01012100000000000000101210000000000000       0090339900006270133889012113000051
100000000000000000000009033990000627000000000000000000000000010002020012774901211300000000002            2  01127749012111012100000002190450000000001N010121000000000000000000000000000000000000000000000000000000000000000100012774906865JOSE MILTON SANTIAGO                    RUA BATATAIS - 47 - CIDADE ESTELA - POA             08563140                                                            000053
2SR. CAIXA, APOS O VENCIMENTO COBRAR 2% DE MULTA                                 NAO RECEBER APOS 30 DIAS DO VENCIMENTO.                                                                                                                                                                                                         01012100000000000000101210000000000000       0090339900006270127749012113000054
100000000000000000000009033990000627000000000000000000000000010002020016294101211900000000002            2  01162941012109012100000002693070000000001N010121000000000000000000000000000000000000000000000000000000000000000100016294119812JURACY FELIX DE ARRUDA                  RUA CARLOS JOSE BORSTENS - 50 AP.23 - AV            11702750                                                            000056
2SR. CAIXA, APOS O VENCIMENTO COBRAR 2% DE MULTA                                 NAO RECEBER APOS 30 DIAS DO VENCIMENTO.                                                                                                                                                                                                         01012100000000000000101210000000000000       0090339900006270162941012119000057
100000000000000000000009033990000627000000000000000000000000010002020005613801211300000000002            2  01056138012111012100000002014610000000001N010121000000000000000000000000000000000000000000000000000000000000000100005613843805NILZA MARIA DE OLIVEIRA                 RUA JOSE GONCALVES DE FREITAS - 66 C2 -             08210550                                                            000059
2SR. CAIXA, APOS O VENCIMENTO COBRAR 2% DE MULTA                                 NAO RECEBER APOS 30 DIAS DO VENCIMENTO.                                                                                                                                                                                                         01012100000000000000101210000000000000       0090339900006270056138012113000060
100000000000000000000009033990000627000000000000000000000000010002020007574901211300000000002            2  01075749012111012100000002067940000000001N010121000000000000000000000000000000000000000000000000000000000000000100007574936889JORGE LUCIANO PEREIRA BORRIELLO         RUA JOSE CALIXTO DO CARMO - 286 AP.54 -             11702690                                                            000062
2SR. CAIXA, APOS O VENCIMENTO COBRAR 2% DE MULTA                                 NAO RECEBER APOS 30 DIAS DO VENCIMENTO.                                                                                                                                                                                                         01012100000000000000101210000000000000       0090339900006270075749012113000063
100000000000000000000009033990000627000000000000000000000000010002020008214901211600000000002            2  01082149012111012100000002099320000000001N010121000000000000000000000000000000000000000000000000000000000000000100008214973830JAMIL CHALA                             RUA JOSE CALIXTO DO CARMO - 286 AP.22 -             11702690                                                            000065
2SR. CAIXA, APOS O VENCIMENTO COBRAR 2% DE MULTA                                 NAO RECEBER APOS 30 DIAS DO VENCIMENTO.                                                                                                                                                                                                         01012100000000000000101210000000000000       0090339900006270082149012116000066
100000000000000000000009033990000627000000000000000000000000010002020032495001211300000000002            2  01324950012111012100000002352550000000001N010121000000000000000000000000000000000000000000000000000000000000000100032495004881PAULO EDUARDO DOS SANTOS                RUA REPUBLICA DO IRAQUE - 1119 - CAMPO B            04611002                                                            000068
2SR. CAIXA, APOS O VENCIMENTO COBRAR 2% DE MULTA                                 NAO RECEBER APOS 30 DIAS DO VENCIMENTO.                                                                                                                                                                                                         01012100000000000000101210000000000000       0090339900006270324950012113000069
100000000000000000000009033990000627000000000000000000000000010002020016498001211000000000002            2  01164980012111012100000002063260000000001N010121000000000000000000000000000000000000000000000000000000000000000100016498053810GILMA CEZARIO GARCIA CORRITORI          RUA LAURENTINO XAVIER DOS SANTOS - 336 -            08240740                                                            000071
2SR. CAIXA, APOS O VENCIMENTO COBRAR 2% DE MULTA                                 NAO RECEBER APOS 30 DIAS DO VENCIMENTO.                                                                                                                                                                                                         01012100000000000000101210000000000000       0090339900006270164980012110000072
100000000000000000000009033990000627000000000000000000000000010002020029339001211P00000000002            2  01293390012111012100000002206280000000001N010121000000000000000000000000000000000000000000000000000000000000000100029339051831RONALD DIDOFF                           RUA CORONEL FERREIRA BRAGA - 188 - VILA             03522010                                                            000074
2SR. CAIXA, APOS O VENCIMENTO COBRAR 2% DE MULTA                                 NAO RECEBER APOS 30 DIAS DO VENCIMENTO.                                                                                                                                                                                                         01012100000000000000101210000000000000       009033990000627029339001211P000075
100000000000000000000009033990000627000000000000000000000000010002020017357801211100000000002            2  01173578012111012100000002336660000000001N010121000000000000000000000000000000000000000000000000000000000000000100017357859894MARCIO GUIMARAES                        RUA GENERAL CAMARA - 188 SALA 11 - CENTR            11010120                                                            000077
2SR. CAIXA, APOS O VENCIMENTO COBRAR 2% DE MULTA                                 NAO RECEBER APOS 30 DIAS DO VENCIMENTO.                                                                                                                                                                                                         01012100000000000000101210000000000000       0090339900006270173578012111000078
100000000000000000000009033990000627000000000000000000000000010002020010563001211100000000002            2  01105630012111012100000002396370000000001N010121000000000000000000000000000000000000000000000000000000000000000100010563033878VERA LUCIA RIBEIRO LONGANEZI            RUA DOS CAMARES - 150 AP.24 BL.02 - CARA            02068030                                                            000080
2SR. CAIXA, APOS O VENCIMENTO COBRAR 2% DE MULTA                                 NAO RECEBER APOS 30 DIAS DO VENCIMENTO.                                                                                                                                                                                                         01012100000000000000101210000000000000       0090339900006270105630012111000081
100000000000000000000009033990000627000000000000000000000000010002020005529601211600000000002            2  01055296012111012100000002174630000000001N010121000000000000000000000000000000000000000000000000000000000000000100005529616801JOAQUIM JORGE DA COSTA                  RUA JOSE CALIXTO DO CARMO - 286 AP.106 -            11702690                                                            000083
2SR. CAIXA, APOS O VENCIMENTO COBRAR 2% DE MULTA                                 NAO RECEBER APOS 30 DIAS DO VENCIMENTO.                                                                                                                                                                                                         01012100000000000000101210000000000000       0090339900006270055296012116000084
100000000000000000000009033990000627000000000000000000000000010002020022014101211000000000002            2  01220141012111012100000002168290000000001N010121000000000000000000000000000000000000000000000000000000000000000100022014140847CAMILA SILVEIRA CANIZARES               AVENIDA PRESIDENTE CASTELO BRANCO - 5.74            11703650                                                            000086
2SR. CAIXA, APOS O VENCIMENTO COBRAR 2% DE MULTA                                 NAO RECEBER APOS 30 DIAS DO VENCIMENTO.                                                                                                                                                                                                         01012100000000000000101210000000000000       0090339900006270220141012110000087
100000000000000000000009033990000627000000000000000000000000010002020015550701211200000000002            2  01155507012109012100000002056090000000001N010121000000000000000000000000000000000000000000000000000000000000000100015550706806MARY MIWA                               RUA CARLOS JOSE BORSTENS - 50 AP.105 - A            11702750                                                            000089
2SR. CAIXA, APOS O VENCIMENTO COBRAR 2% DE MULTA                                 NAO RECEBER APOS 30 DIAS DO VENCIMENTO.                                                                                                                                                                                                         01012100000000000000101210000000000000       0090339900006270155507012112000090
100000000000000000000009033990000627000000000000000000000000010002020015464601211200000000002            2  01154646012111012100000002286060000000001N010121000000000000000000000000000000000000000000000000000000000000000100015464647864SONIA TERESA VOLPATO                    RUA JOSE CALIXTO DO CARMO - 286 AP.73 -             11702690                                                            000092
2SR. CAIXA, APOS O VENCIMENTO COBRAR 2% DE MULTA                                 NAO RECEBER APOS 30 DIAS DO VENCIMENTO.                                                                                                                                                                                                         01012100000000000000101210000000000000       0090339900006270154646012112000093
100000000000000000000009033990000627000000000000000000000000010002020008657801211100000000002            2  01086578012111012100000002263110000000001N010121000000000000000000000000000000000000000000000000000000000000000100008657886855ARLINDO DA CRUZ                         AVENIDA ARICANDUVA - 8.256 AP.54 BL.10 -            03951220                                                            000095
2SR. CAIXA, APOS O VENCIMENTO COBRAR 2% DE MULTA                                 NAO RECEBER APOS 30 DIAS DO VENCIMENTO.                                                                                                                                                                                                         01012100000000000000101210000000000000       0090339900006270086578012111000096
100000000000000000000009033990000627000000000000000000000000010002020004265701211100000000002            2  01042657012109012100000003029580000000001N010121000000000000000000000000000000000000000000000000000000000000000100004265781713ALEXANDRE CASADO COSTA                  RUA CARLOS JOSE BORSTENS - 50 AP.33 - AV            11702750                                                            000098
2SR. CAIXA, APOS O VENCIMENTO COBRAR 2% DE MULTA                                 NAO RECEBER APOS 30 DIAS DO VENCIMENTO.                                                                                                                                                                                                         01012100000000000000101210000000000000       0090339900006270042657012111000099
100000000000000000000009033990000627000000000000000000000000010002020059735101211P00000000002            2  01597351012109012100000001279630000000001N010121000000000000000000000000000000000000000000000000000000000000000100059735180863HELIO JOSE MARQUES                      RUA MARTIM AFONSO DE SOUZA - 1007 AP.102            11702790                                                            000101
2SR. CAIXA, APOS O VENCIMENTO COBRAR 2% DE MULTA                                 NAO RECEBER APOS 30 DIAS DO VENCIMENTO.                                                                                                                                                                                                         01012100000000000000101210000000000000       009033990000627059735101211P000102
100000000000000000000009033990000627000000000000000000000000010002020026347801211300000000002            2  01263478012111012100000009941600000000001N010121000000000000000000000000000000000000000000000000000000000000000100026347872862VALDECI SILVA MEIRELES                  RUA JOSE BATISTA DA SILVA - 292 - JARDIM            06851470                                                            000104
2SR. CAIXA, APOS O VENCIMENTO COBRAR 2% DE MULTA                                 NAO RECEBER APOS 30 DIAS DO VENCIMENTO.                                                                                                                                                                                                         01012100000000000000101210000000000000       0090339900006270263478012113000105
100000000000000000000009033990000627000000000000000000000000010002020025443601211400000000002            2  01254436012109012100000004382470000000001N010121000000000000000000000000000000000000000000000000000000000000000100025443691830SILVANETE PEREIRA CARNELOS              RUA CARLOS JOSE BORSTENS - 50 AP.102 - A            11702750                                                            000107
2SR. CAIXA, APOS O VENCIMENTO COBRAR 2% DE MULTA                                 NAO RECEBER APOS 30 DIAS DO VENCIMENTO.                                                                                                                                                                                                         01012100000000000000101210000000000000       0090339900006270254436012114000108
100000000000000000000009033990000627000000000000000000000000010002020013135201211400000000002            2  01131352012111012100000002222650000000001N010121000000000000000000000000000000000000000000000000000000000000000100013135261859EDUARDO ZANOLA                          RUA ROLANDO PIETRO BONINI - 46 - JARDIM             09781040                                                            000110
2SR. CAIXA, APOS O VENCIMENTO COBRAR 2% DE MULTA                                 NAO RECEBER APOS 30 DIAS DO VENCIMENTO.                                                                                                                                                                                                         01012100000000000000101210000000000000       0090339900006270131352012114000111
100000000000000000000009033990000627000000000000000000000000010002020009797601211500000000002            2  01097976012111012100000002164620000000001N010121000000000000000000000000000000000000000000000000000000000000000100009797626857RICARDO SOBRAL DE OLIVEIRA              RUA 23 DE MAIO - 139 AP.32 - VILA MIRIM             11704690                                                            000113
2SR. CAIXA, APOS O VENCIMENTO COBRAR 2% DE MULTA                                 NAO RECEBER APOS 30 DIAS DO VENCIMENTO.                                                                                                                                                                                                         01012100000000000000101210000000000000       0090339900006270097976012115000114
100000000000000000000009033990000627000000000000000000000000010002020004767601211600000000002            2  01047676012109012100000003701460000000001N010121000000000000000000000000000000000000000000000000000000000000000100004767679893ORLANDO GRANDE FILHO                    RUA ORLANDO MIGLIARI - 101 - JARDIM OURO            19906140                                                            000116
2SR. CAIXA, APOS O VENCIMENTO COBRAR 2% DE MULTA                                 NAO RECEBER APOS 30 DIAS DO VENCIMENTO.                                                                                                                                                                                                         01012100000000000000101210000000000000       0090339900006270047676012116000117
100000000000000000000009033990000627000000000000000000000000010002020006512501211300000000002            2  01065125012111012100000001947180000000001N010121000000000000000000000000000000000000000000000000000000000000000100006512547870MARIA DO CARMO FAGUNDES DOS REIS        RUA CARLOS MALCHER - 98 - PARQUE EDU CHA            02232020                                                            000119
2SR. CAIXA, APOS O VENCIMENTO COBRAR 2% DE MULTA                                 NAO RECEBER APOS 30 DIAS DO VENCIMENTO.                                                                                                                                                                                                         01012100000000000000101210000000000000       0090339900006270065125012113000120
100000000000000000000009033990000627000000000000000000000000010002020022728401211600000000002            2  01227284012111012100000002342260000000001N010121000000000000000000000000000000000000000000000000000000000000000100022728497842WILLIAN DE SOUZA MELLO                  RUA JOSE CALIXTO DO CARMO - 286 AP.111 -            11702690                                                            000122
2SR. CAIXA, APOS O VENCIMENTO COBRAR 2% DE MULTA                                 NAO RECEBER APOS 30 DIAS DO VENCIMENTO.                                                                                                                                                                                                         01012100000000000000101210000000000000       0090339900006270227284012116000123
100000000000000000000009033990000627000000000000000000000000010002020016909701211000000000002            2  01169097012111012100000002069820000000001N010121000000000000000000000000000000000000000000000000000000000000000100016909746805EDIVALDO SANTANA DOS SANTOS             ESTRADA JOAO GASPAR DELGADO - 80 AP.213             08536100                                                            000125
2SR. CAIXA, APOS O VENCIMENTO COBRAR 2% DE MULTA                                 NAO RECEBER APOS 30 DIAS DO VENCIMENTO.                                                                                                                                                                                                         01012100000000000000101210000000000000       0090339900006270169097012110000126
100000000000000000000009033990000627000000000000000000000000010002020022036001211800000000002            2  01220360012109012100000003214220000000001N010121000000000000000000000000000000000000000000000000000000000000000100022036003818DERLIS TERAN QUIROGA ROGATO             RUA JOAO RIBEIRO - 709 AP.61 - CAMPESTRE            09070250                                                            000128
2SR. CAIXA, APOS O VENCIMENTO COBRAR 2% DE MULTA                                 NAO RECEBER APOS 30 DIAS DO VENCIMENTO.                                                                                                                                                                                                         01012100000000000000101210000000000000       0090339900006270220360012118000129
100000000000000000000009033990000627000000000000000000000000010002020017229701213200000000002            2  01172297012109012100000003102010000000001N010121000000000000000000000000000000000000000000000000000000000000000100017229751802BERENICE VIEIRA KERSTING                RUA ATIBAIA - 17 AP.417 - BAIRRO IMPERAD            11707380                                                            000131
2SR. CAIXA, APOS O VENCIMENTO COBRAR 2% DE MULTA                                 NAO RECEBER APOS 30 DIAS DO VENCIMENTO.                                                                                                                                                                                                         01012100000000000000101210000000000000       0090339900006270172297012132000132
100000000000000000000009033990000627000000000000000000000000010002020012475601211100000000002            2  01124756012111012100000002243570000000001N010121000000000000000000000000000000000000000000000000000000000000000100012475663820CELIDALVA GOES DE CARVALHO              RUA JOSE CALIXTO DO CARMO - 286 AP.91 -             11702690                                                            000134
2SR. CAIXA, APOS O VENCIMENTO COBRAR 2% DE MULTA                                 NAO RECEBER APOS 30 DIAS DO VENCIMENTO.                                                                                                                                                                                                         01012100000000000000101210000000000000       0090339900006270124756012111000135
100000000000000000000009033990000627000000000000000000000000010002020033451601211900000000002            2  01334516012111012100000001873520000000001N010121000000000000000000000000000000000000000000000000000000000000000100033451620839ARAO ELISIARIO  NUNES                   RUA JOSE CALIXTO DO CARMO - 286 AP.64 -             11702690                                                            000137
2SR. CAIXA, APOS O VENCIMENTO COBRAR 2% DE MULTA                                 NAO RECEBER APOS 30 DIAS DO VENCIMENTO.                                                                                                                                                                                                         01012100000000000000101210000000000000       0090339900006270334516012119000138
100000000000000000000009033990000627000000000000000000000000010002020095758201211900000000002            2  01957582012111012100000002278450000000001N010121000000000000000000000000000000000000000000000000000000000000000100095758275891SHIRLEY TUNES ASTOLFI                   RUA GUAPERUVU - 656 AP.84 - VILA ARICAND            03504010                                                            000140
2SR. CAIXA, APOS O VENCIMENTO COBRAR 2% DE MULTA                                 NAO RECEBER APOS 30 DIAS DO VENCIMENTO.                                                                                                                                                                                                         01012100000000000000101210000000000000       0090339900006270957582012119000141
100000000000000000000009033990000627000000000000000000000000010002020045839201211600000000002            2  01458392012111012100000001454190000000001N010121000000000000000000000000000000000000000000000000000000000000000100045839263834LEONARDO ANTONIO CONCELLIERI            RUA JOSE CALIXTO DO CARMO - 286 AP.51 -             11702690                                                            000143
2SR. CAIXA, APOS O VENCIMENTO COBRAR 2% DE MULTA                                 NAO RECEBER APOS 30 DIAS DO VENCIMENTO.                                                                                                                                                                                                         01012100000000000000101210000000000000       0090339900006270458392012116000144
100000000000000000000009033990000627000000000000000000000000010002020011369101211700000000002            2  01113691012111012100000002046610000000001N010121000000000000000000000000000000000000000000000000000000000000000100011369165803ELIANA CORREA DE OLIVEIRA               AVENIDA ELIAS MALUF - 2695 CASA 419 - WA            18055215                                                            000146
2SR. CAIXA, APOS O VENCIMENTO COBRAR 2% DE MULTA                                 NAO RECEBER APOS 30 DIAS DO VENCIMENTO.                                                                                                                                                                                                         01012100000000000000101210000000000000       0090339900006270113691012117000147
100000000000000000000009033990000627000000000000000000000000010002020002253801211000000000002            2  01022538012111012100000001819030000000001N010121000000000000000000000000000000000000000000000000000000000000000100002253816809EDMILSON ALVES DA SILVA                 RUA JOSE CALIXTO DO CARMO - 286 AP.93 -             11702690                                                            000149
2SR. CAIXA, APOS O VENCIMENTO COBRAR 2% DE MULTA                                 NAO RECEBER APOS 30 DIAS DO VENCIMENTO.                                                                                                                                                                                                         01012100000000000000101210000000000000       0090339900006270022538012110000150
100000000000000000000009033990000627000000000000000000000000010002020037947001211200000000002            2  01379470012111012100000003230720000000001N010121000000000000000000000000000000000000000000000000000000000000000100037947070873BRUNO DE CAETANO MARRINHAS              RUA JOAO PELLOZO - 186 - JARDIM MILENA -            09182200                                                            000152
2SR. CAIXA, APOS O VENCIMENTO COBRAR 2% DE MULTA                                 NAO RECEBER APOS 30 DIAS DO VENCIMENTO.                                                                                                                                                                                                         01012100000000000000101210000000000000       0090339900006270379470012112000153
100000000000000000000009033990000627000000000000000000000000010002020037517701211000000000002            2  01375177012109012100000003409190000000001N010121000000000000000000000000000000000000000000000000000000000000000100037517785869RENATO JOSE DE LIMA MELO                RUA ARISTIDES LOBO - 148 AP.41 BLOCO 03             03041100                                                            000155
2SR. CAIXA, APOS O VENCIMENTO COBRAR 2% DE MULTA                                 NAO RECEBER APOS 30 DIAS DO VENCIMENTO.                                                                                                                                                                                                         01012100000000000000101210000000000000       0090339900006270375177012110000156
100000000000000000000009033990000627000000000000000000000000010002020070367901211100000000002            2  01703679012111012100000001708180000000001N010121000000000000000000000000000000000000000000000000000000000000000100070367949849TEODOMIRO ALVES DOS SANTOS              RUA ANDRE PAZ - 13 - JARDIM SANTO ANDRE             08390230                                                            000158
2SR. CAIXA, APOS O VENCIMENTO COBRAR 2% DE MULTA                                 NAO RECEBER APOS 30 DIAS DO VENCIMENTO.                                                                                                                                                                                                         01012100000000000000101210000000000000       0090339900006270703679012111000159
100000000000000000000009033990000627000000000000000000000000010002020004410801211000000000002            2  01044108012109012100000002533050000000001N010121000000000000000000000000000000000000000000000000000000000000000100004410802860LUIZ ALBERTO MARINHO                    RUA DA INDEPENDENCIA - 706 AP.41B - CAMB            01524000                                                            000161
2SR. CAIXA, APOS O VENCIMENTO COBRAR 2% DE MULTA                                 NAO RECEBER APOS 30 DIAS DO VENCIMENTO.                                                                                                                                                                                                         01012100000000000000101210000000000000       0090339900006270044108012110000162
100000000000000000000009033990000627000000000000000000000000010002020018035001211800000000002            2  01180350012111012100000002286220000000001N010121000000000000000000000000000000000000000000000000000000000000000100018035075861ROSANGELA BISPO SANTOS                  RUA CASSIANO GABUS MENDES - 292 - JD. CA            09896160                                                            000164
2SR. CAIXA, APOS O VENCIMENTO COBRAR 2% DE MULTA                                 NAO RECEBER APOS 30 DIAS DO VENCIMENTO.                                                                                                                                                                                                         01012100000000000000101210000000000000       0090339900006270180350012118000165
100000000000000000000009033990000627000000000000000000000000010002020004767601212400000000002            2  01047676012109012100000003381590000000001N010121000000000000000000000000000000000000000000000000000000000000000100004767679893ORLANDO GRANDE FILHO                    RUA ORLANDO MIGLIARI - 101 - JARDIM OURO            19906140                                                            000167
2SR. CAIXA, APOS O VENCIMENTO COBRAR 2% DE MULTA                                 NAO RECEBER APOS 30 DIAS DO VENCIMENTO.                                                                                                                                                                                                         01012100000000000000101210000000000000       0090339900006270047676012124000168
100000000000000000000009033990000627000000000000000000000000010002020064677801211100000000002            2  01646778012109012100000002720220000000001N010121000000000000000000000000000000000000000000000000000000000000000100064677850887ANTONIO CARLOS DE OLIVEIRA              RUA DR.ANTONIO MAZILLI FILHO - 435 - PAR            02230070                                                            000170
2SR. CAIXA, APOS O VENCIMENTO COBRAR 2% DE MULTA                                 NAO RECEBER APOS 30 DIAS DO VENCIMENTO.                                                                                                                                                                                                         01012100000000000000101210000000000000       0090339900006270646778012111000171
100000000000000000000009033990000627000000000000000000000000010002020007328901211700000000002            2  01073289012109012100000003318810000000001N010121000000000000000000000000000000000000000000000000000000000000000100007328927836BENEDITO APARECIDO ROCHA                AVENIDA SENADOR JOSE ERMINIO DE MORAES -            02357002                                                            000173
2SR. CAIXA, APOS O VENCIMENTO COBRAR 2% DE MULTA                                 NAO RECEBER APOS 30 DIAS DO VENCIMENTO.                                                                                                                                                                                                         01012100000000000000101210000000000000       0090339900006270073289012117000174
100000000000000000000009033990000627000000000000000000000000010002020028082601211600000000002            2  01280826012111012100000001896490000000001N010121000000000000000000000000000000000000000000000000000000000000000100028082615869PRISCILA PEREIRA                        ALAMEDA AFONSO BOCCHIGLIERI - 184 - INTE            04445130                                                            000176
2SR. CAIXA, APOS O VENCIMENTO COBRAR 2% DE MULTA                                 NAO RECEBER APOS 30 DIAS DO VENCIMENTO.                                                                                                                                                                                                         01012100000000000000101210000000000000       0090339900006270280826012116000177
100000000000000000000009033990000627000000000000000000000000010002020013184801211400000000002            2  01131848012111012100000001966670000000001N010121000000000000000000000000000000000000000000000000000000000000000100013184856810SYDNEY HENRIQUE GAMARANO JUNIOR         RUA JOSE CALIXTO DO CARMO - 286 AP.125 -            11702690                                                            000179
2SR. CAIXA, APOS O VENCIMENTO COBRAR 2% DE MULTA                                 NAO RECEBER APOS 30 DIAS DO VENCIMENTO.                                                                                                                                                                                                         01012100000000000000101210000000000000       0090339900006270131848012114000180
100000000000000000000009033990000627000000000000000000000000010002020058488601211400000000002            2  01584886012109012100000002481030000000001N010121000000000000000000000000000000000000000000000000000000000000000100058488618972ADAILTON ZANUTTO MORESCHI               R:RAPHAEL UNGARO - COND.RESERVA SERRA Q.            13212138                                                            000182
2SR. CAIXA, APOS O VENCIMENTO COBRAR 2% DE MULTA                                 NAO RECEBER APOS 30 DIAS DO VENCIMENTO.                                                                                                                                                                                                         01012100000000000000101210000000000000       0090339900006270584886012114000183
100000000000000000000009033990000627000000000000000000000000010002020040194801211900000000002            2  01401948012109012100000003294530000000001N010121000000000000000000000000000000000000000000000000000000000000000100040194815803JULIANA SANTOS PENSSE                   RUA SALVADOR SOARES - 85 - QUINHOES DA B            13190240                                                            000185
2SR. CAIXA, APOS O VENCIMENTO COBRAR 2% DE MULTA                                 NAO RECEBER APOS 30 DIAS DO VENCIMENTO.                                                                                                                                                                                                         01012100000000000000101210000000000000       0090339900006270401948012119000186
100000000000000000000009033990000627000000000000000000000000010002020011381901211500000000002            2  01113819012109012100000002629000000000001N010121000000000000000000000000000000000000000000000000000000000000000100011381987818MARIO DONIZETE MIGUEL DA SILVA          RUA JASPE - 215 - NOVA HIGIANOPOLIS - JA            06642270                                                            000188
2SR. CAIXA, APOS O VENCIMENTO COBRAR 2% DE MULTA                                 NAO RECEBER APOS 30 DIAS DO VENCIMENTO.                                                                                                                                                                                                         01012100000000000000101210000000000000       0090339900006270113819012115000189
100000000000000000000009033990000627000000000000000000000000010002020002196001211900000000002            2  01021960012111012100000001865530000000001N010121000000000000000000000000000000000000000000000000000000000000000100002196012831VILEFORT DIAS BORGES                    RUA PORTO XAVIER - 189 AP.64 - VILA CARM            08210170                                                            000191
2SR. CAIXA, APOS O VENCIMENTO COBRAR 2% DE MULTA                                 NAO RECEBER APOS 30 DIAS DO VENCIMENTO.                                                                                                                                                                                                         01012100000000000000101210000000000000       0090339900006270021960012119000192
100000000000000000000009033990000627000000000000000000000000010002020031861501211700000000002            2  01318615012111012100000001939010000000001N010121000000000000000000000000000000000000000000000000000000000000000100031861586809VANIA TOMAZ                             RUA SILVIO CURIONI - 166 - VILA DA FRATE            87240000                                                            000194
2SR. CAIXA, APOS O VENCIMENTO COBRAR 2% DE MULTA                                 NAO RECEBER APOS 30 DIAS DO VENCIMENTO.                                                                                                                                                                                                         01012100000000000000101210000000000000       0090339900006270318615012117000195
9                                                                                                                                                                                                                                                                                                                                                                                                         000196