01REMESSA01COBRANCA       00000000000004991781AIRES CONSTRUTORA E INCORPORAD237BRADESCO       011020        MX0000150                                                                                                                                                                                                                                                                                     000001
100000000000000000000009077090006612500000000000000000000000010002100085416910201700000000002            2  01854169102010102000000003523740000000001N011020000000000000000000000000000000000000000000000000000000000000000100085416940891ANTONIO DE SOUSA MENDES                 RUA MONTE CASTELO - 296 AP.52 - AVIACAO             11702720                                                            000002
2SR. CAIXA, APOS O VENCIMENTO COBRAR 10% DE MULTA                                NAO RECEBER APOS 30 DIAS DO VENCIMENTO.                                                                                                                                                                                                         01102000000000000000110200000000000000       0090770900066125854169102017000003
100000000000000000000009077090006612500000000000000000000000010002100005678010201000000000002            2  01056780102010102000000003669910000000001N011020000000000000000000000000000000000000000000000000000000000000000100005678057863FABIO MOREIRA CAMPOS                    RUA FLORENCIO DA SILVA - 284 - VILA LIBA            03738070                                                            000005
2SR. CAIXA, APOS O VENCIMENTO COBRAR 10% DE MULTA                                NAO RECEBER APOS 30 DIAS DO VENCIMENTO.                                                                                                                                                                                                         01102000000000000000110200000000000000       0090770900066125056780102010000006
100000000000000000000009077090006612500000000000000000000000010002100016348210201700000000002            2  01163482102010102000000003580260000000001N011020000000000000000000000000000000000000000000000000000000000000000100016348237885AILTON LORENA                           AVENIDA BRASILIA - 194 - BELA VISTA - SA            09180260                                                            000008
2SR. CAIXA, APOS O VENCIMENTO COBRAR 10% DE MULTA                                NAO RECEBER APOS 30 DIAS DO VENCIMENTO.                                                                                                                                                                                                         01102000000000000000110200000000000000       0090770900066125163482102017000009
100000000000000000000009077090006612500000000000000000000000010002100081218410201000000000002            2  01812184102010102000000003455400000000001N011020000000000000000000000000000000000000000000000000000000000000000100081218486953OSMAR DA COSTA - A/C RITA GONCALVES     AVENIDA ALMEIDA JUNIOR - 717 - SAMAMBAIA            11713050                                                            000011
2SR. CAIXA, APOS O VENCIMENTO COBRAR 10% DE MULTA                                NAO RECEBER APOS 30 DIAS DO VENCIMENTO.                                                                                                                                                                                                         01102000000000000000110200000000000000       0090770900066125812184102010000012
100000000000000000000009077090006612500000000000000000000000010002100019282510201800000000002            2  01192825102010102000000002576160000000001N011020000000000000000000000000000000000000000000000000000000000000000100019282546837FABIO LEANDRO DE FREITAS ASSIS          RUA BASSIM NAGIB TRABULSI - 97 - PONTA D            11030540                                                            000014
2SR. CAIXA, APOS O VENCIMENTO COBRAR 10% DE MULTA                                NAO RECEBER APOS 30 DIAS DO VENCIMENTO.                                                                                                                                                                                                         01102000000000000000110200000000000000       0090770900066125192825102018000015
100000000000000000000009077090006612500000000000000000000000010002100003865710201600000000002            2  01038657102010102000000003451910000000001N011020000000000000000000000000000000000000000000000000000000000000000100003865776841FRANCISCO JOSE ROCCO                    RUA FABIO JOSE BEZERRA - 130 AP.86 - PAR            03805000                                                            000017
2SR. CAIXA, APOS O VENCIMENTO COBRAR 10% DE MULTA                                NAO RECEBER APOS 30 DIAS DO VENCIMENTO.                                                                                                                                                                                                         01102000000000000000110200000000000000       0090770900066125038657102016000018
100000000000000000000009077090006612500000000000000000000000010002100028309510201200000000002            2  01283095102010102000000003078300000000001N011020000000000000000000000000000000000000000000000000000000000000000100028309524803DEISE RIBEIRO BARBOSA                   RUA CANDIDO JOSE DE ANDRADE - 173 - ERME            03807030                                                            000020
2SR. CAIXA, APOS O VENCIMENTO COBRAR 10% DE MULTA                                NAO RECEBER APOS 30 DIAS DO VENCIMENTO.                                                                                                                                                                                                         01102000000000000000110200000000000000       0090770900066125283095102012000021
100000000000000000000009077090006612500000000000000000000000010002100011277910201200000000002            2  01112779102010102000000003653620000000001N011020000000000000000000000000000000000000000000000000000000000000000100011277908893JOSE AILTON LOPES DE AZEVEDO            RUA MAESTRO JOAO SEPE - 19 - JARDIM MARI            04181030                                                            000023
2SR. CAIXA, APOS O VENCIMENTO COBRAR 10% DE MULTA                                NAO RECEBER APOS 30 DIAS DO VENCIMENTO.                                                                                                                                                                                                         01102000000000000000110200000000000000       0090770900066125112779102012000024
100000000000000000000009077090006612500000000000000000000000010002100025215110201P00000000002            2  01252151102010102000000002755270000000001N011020000000000000000000000000000000000000000000000000000000000000000100025215106886KLEBER LUIZ DOS SANTOS                  RUA MONTE CASTELO - 262 AP.15 - AVIACAO             11702720                                                            000026
2SR. CAIXA, APOS O VENCIMENTO COBRAR 10% DE MULTA                                NAO RECEBER APOS 30 DIAS DO VENCIMENTO.                                                                                                                                                                                                         01102000000000000000110200000000000000       009077090006612525215110201P000027
100000000000000000000009077090006612500000000000000000000000010002100090206710201700000000002            2  01902067102010102000000003077530000000001N011020000000000000000000000000000000000000000000000000000000000000000100090206789815NEREIDE RODRIGUES FERREIRA              AVENIDA PADRE ESTANISLAU DE CAMPOS - 205            03590060                                                            000029
2SR. CAIXA, APOS O VENCIMENTO COBRAR 10% DE MULTA                                NAO RECEBER APOS 30 DIAS DO VENCIMENTO.                                                                                                                                                                                                         01102000000000000000110200000000000000       0090770900066125902067102017000030
100000000000000000000009077090006612500000000000000000000000010002100029150710201500000000002            2  01291507102010102000000003602300000000001N011020000000000000000000000000000000000000000000000000000000000000000100029150742833ANA DEISE SANTOS DE ALMEIDA             RUA MONTE CASTELO - 296 AP.121 - AVIACAO            11702720                                                            000032
2SR. CAIXA, APOS O VENCIMENTO COBRAR 10% DE MULTA                                NAO RECEBER APOS 30 DIAS DO VENCIMENTO.                                                                                                                                                                                                         01102000000000000000110200000000000000       0090770900066125291507102015000033
100000000000000000000009077090006612500000000000000000000000010002100000811710201000000000002            2  01008117102010102000000002967150000000001N011020000000000000000000000000000000000000000000000000000000000000000100000811752801SERGIO BUENO DA SILVA                   RUA MONTE CASTELO - 262 AP.75 - AVIACAO             11702720                                                            000035
2SR. CAIXA, APOS O VENCIMENTO COBRAR 10% DE MULTA                                NAO RECEBER APOS 30 DIAS DO VENCIMENTO.                                                                                                                                                                                                         01102000000000000000110200000000000000       0090770900066125008117102010000036
100000000000000000000009077090006612500000000000000000000000010002100018344810201700000000002            2  01183448102010102000000004034590000000001N011020000000000000000000000000000000000000000000000000000000000000000100018344803888MARCELO BERNARDO                        RUA MONTE CASTELO - 262 AP.84 - AVIACAO             11702720                                                            000038
2SR. CAIXA, APOS O VENCIMENTO COBRAR 10% DE MULTA                                NAO RECEBER APOS 30 DIAS DO VENCIMENTO.                                                                                                                                                                                                         01102000000000000000110200000000000000       0090770900066125183448102017000039
100000000000000000000009077090006612500000000000000000000000010002100004004310201400000000002            2  01040043102010102000000005288070000000001N011020000000000000000000000000000000000000000000000000000000000000000100004004328896VANDERLEI  MARTINS DE ALMEIDA           RUA MONSENHOR TABOSA - 03 - PARQUE CISPE            03819300                                                            000041
2SR. CAIXA, APOS O VENCIMENTO COBRAR 10% DE MULTA                                NAO RECEBER APOS 30 DIAS DO VENCIMENTO.                                                                                                                                                                                                         01102000000000000000110200000000000000       0090770900066125040043102014000042
100000000000000000000009077090006612500000000000000000000000010002100016339410201500000000002            2  01163394102010102000000003190490000000001N011020000000000000000000000000000000000000000000000000000000000000000100016339432832ALEX MONTEIRO DA SILVA                  RUA IVA MOURA LIMA - 04 - JARDIM MIRNA I            04855540                                                            000044
2SR. CAIXA, APOS O VENCIMENTO COBRAR 10% DE MULTA                                NAO RECEBER APOS 30 DIAS DO VENCIMENTO.                                                                                                                                                                                                         01102000000000000000110200000000000000       0090770900066125163394102015000045
100000000000000000000009077090006612500000000000000000000000010002100031803810201200000000002            2  01318038102010102000000003258130000000001N011020000000000000000000000000000000000000000000000000000000000000000100031803864877ELEILSON FELIPPE SANTOS                 RUA SANTA GREGORIA - 193 - CIDADE DUTRA             04806030                                                            000047
2SR. CAIXA, APOS O VENCIMENTO COBRAR 10% DE MULTA                                NAO RECEBER APOS 30 DIAS DO VENCIMENTO.                                                                                                                                                                                                         01102000000000000000110200000000000000       0090770900066125318038102012000048
100000000000000000000009077090006612500000000000000000000000010002100026032610201000000000002            2  01260326102010102000000002242120000000001N011020000000000000000000000000000000000000000000000000000000000000000100026032632857MARILA LOPES PEREIRA                    AVENIDA LUIZ GUSHIKEN - 1761 AP.13 BL.05            05831315                                                            000050
2SR. CAIXA, APOS O VENCIMENTO COBRAR 10% DE MULTA                                NAO RECEBER APOS 30 DIAS DO VENCIMENTO.                                                                                                                                                                                                         01102000000000000000110200000000000000       0090770900066125260326102010000051
100000000000000000000009077090006612500000000000000000000000010002100063064510201700000000002            2  01630645102010102000000003882650000000001N011020000000000000000000000000000000000000000000000000000000000000000100063064537849ANTONIO APARECIDO DA SILVA DESTEFANO    RUA PROFESSOR TEODORO BRAGA - 46 - VILA             02966020                                                            000053
2SR. CAIXA, APOS O VENCIMENTO COBRAR 10% DE MULTA                                NAO RECEBER APOS 30 DIAS DO VENCIMENTO.                                                                                                                                                                                                         01102000000000000000110200000000000000       0090770900066125630645102017000054
100000000000000000000009077090006612500000000000000000000000010002100010107710201200000000002            2  01101077102010102000000003720760000000001N011020000000000000000000000000000000000000000000000000000000000000000100010107711834VALDEMAR FECCHIO                        RUA DOUTOR MARTINS DE OLIVEIRA - 529 AP.            05638030                                                            000056
2SR. CAIXA, APOS O VENCIMENTO COBRAR 10% DE MULTA                                NAO RECEBER APOS 30 DIAS DO VENCIMENTO.                                                                                                                                                                                                         01102000000000000000110200000000000000       0090770900066125101077102012000057
100000000000000000000009077090006612500000000000000000000000010002100003330710201100000000002            2  01033307102010102000000004786520000000001N011020000000000000000000000000000000000000000000000000000000000000000100003330791837MARLI DA SILVA BARBOSA                  RUA GLICERIO CERQUEIRA LEITE - 151 - JAR            03675040                                                            000059
2SR. CAIXA, APOS O VENCIMENTO COBRAR 10% DE MULTA                                NAO RECEBER APOS 30 DIAS DO VENCIMENTO.                                                                                                                                                                                                         01102000000000000000110200000000000000       0090770900066125033307102011000060
100000000000000000000009077090006612500000000000000000000000010002100005920510201600000000002            2  01059205102010102000000002260500000000001N011020000000000000000000000000000000000000000000000000000000000000000100005920579846SONIA MARIA VALDO POLLO                 RUA PALMIRA CERVI BARBARO - 797 - CIDADE            13214370                                                            000062
2SR. CAIXA, APOS O VENCIMENTO COBRAR 10% DE MULTA                                NAO RECEBER APOS 30 DIAS DO VENCIMENTO.                                                                                                                                                                                                         01102000000000000000110200000000000000       0090770900066125059205102016000063
100000000000000000000009077090006612500000000000000000000000010002100002494110201700000000002            2  01024941102010102000000003398770000000001N011020000000000000000000000000000000000000000000000000000000000000000100002494107881CIRO FRANCISCO MARCHI DURIGON           RUA MONTE CASTELO - 262 AP.115 - AVIACAO            11702720                                                            000065
2SR. CAIXA, APOS O VENCIMENTO COBRAR 10% DE MULTA                                NAO RECEBER APOS 30 DIAS DO VENCIMENTO.                                                                                                                                                                                                         01102000000000000000110200000000000000       0090770900066125024941102017000066
100000000000000000000009077090006612500000000000000000000000010002100007002310201400000000002            2  01070023102010102000000003341140000000001N011020000000000000000000000000000000000000000000000000000000000000000100007002345869DOMINGOS DE BRITO GALVAO                RUA MONTE CASTELO - 262 AP.44 - AVIACAO             11702720                                                            000068
2SR. CAIXA, APOS O VENCIMENTO COBRAR 10% DE MULTA                                NAO RECEBER APOS 30 DIAS DO VENCIMENTO.                                                                                                                                                                                                         01102000000000000000110200000000000000       0090770900066125070023102014000069
100000000000000000000009077090006612500000000000000000000000010002100016299010201800000000002            2  01162990102010102000000003220870000000001N011020000000000000000000000000000000000000000000000000000000000000000100016299008857FERNANDO CESAR CARVALHO                 AVENIDA MARCONDES DE BRITO - 1340 AP.74             03509000                                                            000071
2SR. CAIXA, APOS O VENCIMENTO COBRAR 10% DE MULTA                                NAO RECEBER APOS 30 DIAS DO VENCIMENTO.                                                                                                                                                                                                         01102000000000000000110200000000000000       0090770900066125162990102018000072
100000000000000000000009077090006612500000000000000000000000010002100031082810201100000000002            2  01310828102010102000000003236480000000001N011020000000000000000000000000000000000000000000000000000000000000000100031082898880VANESSA DOS SANTOS NEIVA                RUA MONTE CASTELO - 296 AP.33 - BAIRRO A            11702720                                                            000074
2SR. CAIXA, APOS O VENCIMENTO COBRAR 10% DE MULTA                                NAO RECEBER APOS 30 DIAS DO VENCIMENTO.                                                                                                                                                                                                         01102000000000000000110200000000000000       0090770900066125310828102011000075
100000000000000000000009077090006612500000000000000000000000010002100065895310201100000000002            2  01658953102010102000000001970540000000001N011020000000000000000000000000000000000000000000000000000000000000000100065895304834MARINHO BARBOSA CUNHA                   AVENIDA EDU CHAVES - 639 AP.43 - PARQUE             02229000                                                            000077
2SR. CAIXA, APOS O VENCIMENTO COBRAR 10% DE MULTA                                NAO RECEBER APOS 30 DIAS DO VENCIMENTO.                                                                                                                                                                                                         01102000000000000000110200000000000000       0090770900066125658953102011000078
100000000000000000000009077090006612500000000000000000000000010002100055975310201900000000002            2  01559753102010102000000000735510000000001N011020000000000000000000000000000000000000000000000000000000000000000100055975372887BENEVENUTO THEODORO DA SILVA NETO       RUA MONTE CASTELO - 296 AP.63 - AVIACAO             11702720                                                            000080
2SR. CAIXA, APOS O VENCIMENTO COBRAR 10% DE MULTA                                NAO RECEBER APOS 30 DIAS DO VENCIMENTO.                                                                                                                                                                                                         01102000000000000000110200000000000000       0090770900066125559753102019000081
9                                                                                                                                                                                                                                                                                                                                                                                                         000082