01REMESSA01COBRANCA       00000000000004991781AIRES CONSTRUTORA E INCORPORAD237BRADESCO       120619        MX0000122                                                                                                                                                                                                                                                                                     000001
100000000000000000000009077090006612500000000000000000000000010002100001224506191P00000000002            2  01012245061925061900000003609970000000001N110619000000000000000000000000000000000000000000000000000000000000000100001224509579REINALDO JUNIOR MARTINS DE ABREU        AVENIDA INTERLAGOS - 7.224 - INTERLAGOS             04777000                                                            000002
2SR. CAIXA, APOS O VENCIMENTO COBRAR 10% DE MULTA                                NAO RECEBER APOS 30 DIAS DO VENCIMENTO.                                                                                                                                                                                                         12061900000000000001206190000000000000       009077090006612501224506191P000003
100000000000000000000009077090006612500000000000000000000000010002100016338906191200000000002            2  01163389061925061900000003561880000000001N110619000000000000000000000000000000000000000000000000000000000000000100016338929806EDVALDO DA SILVA ANDRADE                RUA ARIA - 434 - PARQUE ALVES DE LIMA -             04902170                                                            000005
2SR. CAIXA, APOS O VENCIMENTO COBRAR 10% DE MULTA                                NAO RECEBER APOS 30 DIAS DO VENCIMENTO.                                                                                                                                                                                                         12061900000000000001206190000000000000       0090770900066125163389061912000006
100000000000000000000009077090006612500000000000000000000000010002100026836906191200000000002            2  01268369061925061900000003225550000000001N110619000000000000000000000000000000000000000000000000000000000000000100026836908860VANDERLEI FIGUEIREDO DE CARVALHO        RUA TUPI - 840 - VILA TUPI - PRAIA GRAND            11703260                                                            000008
2SR. CAIXA, APOS O VENCIMENTO COBRAR 10% DE MULTA                                NAO RECEBER APOS 30 DIAS DO VENCIMENTO.                                                                                                                                                                                                         12061900000000000001206190000000000000       0090770900066125268369061912000009
100000000000000000000009077090006612500000000000000000000000010002100059861506191900000000002            2  01598615061925061900000003582690000000001N110619000000000000000000000000000000000000000000000000000000000000000100059861576800REINALDO LOPES DE OLIVEIRA              RUA DA SERVIDAO - 40 - VILA ROSCHEL - SA            04891045                                                            000011
2SR. CAIXA, APOS O VENCIMENTO COBRAR 10% DE MULTA                                NAO RECEBER APOS 30 DIAS DO VENCIMENTO.                                                                                                                                                                                                         12061900000000000001206190000000000000       0090770900066125598615061919000012
100000000000000000000009077090006612500000000000000000000000010002100016330906191700000000002            2  01163309061925061900000003560990000000001N110619000000000000000000000000000000000000000000000000000000000000000100016330938830KARINA CORDEIRO PIASSA                  CONDE MOREIRA LIMA - 644 - JARDIM JABAQU            04384032                                                            000014
2SR. CAIXA, APOS O VENCIMENTO COBRAR 10% DE MULTA                                NAO RECEBER APOS 30 DIAS DO VENCIMENTO.                                                                                                                                                                                                         12061900000000000001206190000000000000       0090770900066125163309061917000015
100000000000000000000009077090006612500000000000000000000000010002100077027606191P00000000002            2  01770276061925061900000003461000000000001N110619000000000000000000000000000000000000000000000000000000000000000100077027604868CLINEU LISSONI                          AVENIDA VILA EMA - 1100 AP.41 - VILA PRU            03156000                                                            000017
2SR. CAIXA, APOS O VENCIMENTO COBRAR 10% DE MULTA                                NAO RECEBER APOS 30 DIAS DO VENCIMENTO.                                                                                                                                                                                                         12061900000000000001206190000000000000       009077090006612577027606191P000018
100000000000000000000009077090006612500000000000000000000000010002100029380706191700000000002            2  01293807061925061900000003225740000000001N110619000000000000000000000000000000000000000000000000000000000000000100029380708882EDUARDO MENDONCA DAMASCENO              RUA MONTE CASTELO - 296 AP.12 - AVIACAO             11702720                                                            000020
2SR. CAIXA, APOS O VENCIMENTO COBRAR 10% DE MULTA                                NAO RECEBER APOS 30 DIAS DO VENCIMENTO.                                                                                                                                                                                                         12061900000000000001206190000000000000       0090770900066125293807061917000021
100000000000000000000009077090006612500000000000000000000000010002100023988506191000000000002            2  01239885061925061900000003275370000000001N110619000000000000000000000000000000000000000000000000000000000000000100023988525634DALMY PIMENTA                           SAO CAETANO - 136 - VILA SAO VICENTE - U            38026220                                                            000023
2SR. CAIXA, APOS O VENCIMENTO COBRAR 10% DE MULTA                                NAO RECEBER APOS 30 DIAS DO VENCIMENTO.                                                                                                                                                                                                         12061900000000000001206190000000000000       0090770900066125239885061910000024
100000000000000000000009077090006612500000000000000000000000010002100004735206191200000000002            2  01047352061925061900000003561200000000001N110619000000000000000000000000000000000000000000000000000000000000000100004735273832DARIO LUIZ GONCALVES                    RUA MONTE CASTELO - 295 AP.113 - AVIACAO            11702720                                                            000026
2SR. CAIXA, APOS O VENCIMENTO COBRAR 10% DE MULTA                                NAO RECEBER APOS 30 DIAS DO VENCIMENTO.                                                                                                                                                                                                         12061900000000000001206190000000000000       0090770900066125047352061912000027
100000000000000000000009077090006612500000000000000000000000010002100007635206191200000000002            2  01076352061925061900000003183930000000001N110619000000000000000000000000000000000000000000000000000000000000000100007635293893SILVIO CARDOSO ZACARIAS                 RUA SOLIDONIO LEITE - 2718 AP.102 BLOCO             03275000                                                            000029
2SR. CAIXA, APOS O VENCIMENTO COBRAR 10% DE MULTA                                NAO RECEBER APOS 30 DIAS DO VENCIMENTO.                                                                                                                                                                                                         12061900000000000001206190000000000000       0090770900066125076352061912000030
100000000000000000000009077090006612500000000000000000000000010002100007975906191600000000002            2  01079759061925061900000003463940000000001N110619000000000000000000000000000000000000000000000000000000000000000100007975958808JOCY VIGNADO                            RUA PEDRO GONCALVES SOBRINHO - 568 - PAR            13098641                                                            000032
2SR. CAIXA, APOS O VENCIMENTO COBRAR 10% DE MULTA                                NAO RECEBER APOS 30 DIAS DO VENCIMENTO.                                                                                                                                                                                                         12061900000000000001206190000000000000       0090770900066125079759061916000033
100000000000000000000009077090006612500000000000000000000000010002100036386806191800000000002            2  01363868061925061900000003658440000000001N110619000000000000000000000000000000000000000000000000000000000000000100036386861833ALINE LEE WEI DE SOUZA                  AV. PRES.CASTELO BRANCO - 9127 AP.251 BL            11704600                                                            000035
2SR. CAIXA, APOS O VENCIMENTO COBRAR 10% DE MULTA                                NAO RECEBER APOS 30 DIAS DO VENCIMENTO.                                                                                                                                                                                                         12061900000000000001206190000000000000       0090770900066125363868061918000036
100000000000000000000009077090006612500000000000000000000000010002100070465306191900000000002            2  01704653061925061900000000997000000000001N110619000000000000000000000000000000000000000000000000000000000000000100070465320953SIDNEY CARASKI                          RUA DR.CELSO PACHECO BENTIM - 502 - PARQ            03571020                                                            000038
2SR. CAIXA, APOS O VENCIMENTO COBRAR 10% DE MULTA                                NAO RECEBER APOS 30 DIAS DO VENCIMENTO.                                                                                                                                                                                                         12061900000000000001206190000000000000       0090770900066125704653061919000039
100000000000000000000009077090006612500000000000000000000000010002100075759406191400000000002            2  01757594061925061900000002605970000000001N110619000000000000000000000000000000000000000000000000000000000000000100075759446800VALTER MUTAFEI                          RUA MONTE CASTELO - 295 AP.54 - AVIACAO             11702720                                                            000041
2SR. CAIXA, APOS O VENCIMENTO COBRAR 10% DE MULTA                                NAO RECEBER APOS 30 DIAS DO VENCIMENTO.                                                                                                                                                                                                         12061900000000000001206190000000000000       0090770900066125757594061914000042
100000000000000000000009077090006612500000000000000000000000010002100070328706191200000000002            2  01703287061925061900000003723280000000001N110619000000000000000000000000000000000000000000000000000000000000000100070328706868VALTER LIMA FERNANDES                   RUA DOMINGOS JORGE VELHO - 52 - CENTRO -            06843550                                                            000044
2SR. CAIXA, APOS O VENCIMENTO COBRAR 10% DE MULTA                                NAO RECEBER APOS 30 DIAS DO VENCIMENTO.                                                                                                                                                                                                         12061900000000000001206190000000000000       0090770900066125703287061912000045
100000000000000000000009077090006612500000000000000000000000010002100023132606191800000000002            2  01231326061925061900000002022440000000001N110619000000000000000000000000000000000000000000000000000000000000000100023132672882LEANDRO MORENO                          RUA MONTE CASTELO - 296 AP.64 - AVIACAO             11702720                                                            000047
2SR. CAIXA, APOS O VENCIMENTO COBRAR 10% DE MULTA                                NAO RECEBER APOS 30 DIAS DO VENCIMENTO.                                                                                                                                                                                                         12061900000000000001206190000000000000       0090770900066125231326061918000048
100000000000000000000009077090006612500000000000000000000000010002100099264606191700000000002            2  01992646061925061900000003449070000000001N110619000000000000000000000000000000000000000000000000000000000000000100099264692800LEONTINO PINHEIRO DA SILVA              AVENIDA JOAO BATISTA FITIPALDI - 469 - V            08685000                                                            000050
2SR. CAIXA, APOS O VENCIMENTO COBRAR 10% DE MULTA                                NAO RECEBER APOS 30 DIAS DO VENCIMENTO.                                                                                                                                                                                                         12061900000000000001206190000000000000       0090770900066125992646061917000051
100000000000000000000009077090006612500000000000000000000000010002100000666306191800000000002            2  01006663061925061900000003327410000000001N110619000000000000000000000000000000000000000000000000000000000000000100000666344825LUIZ HENRIQUE DE CAMPOS                 RUA JOAO CARLOS CAVALCANTI REIS - 21 - J            02281206                                                            000053
2SR. CAIXA, APOS O VENCIMENTO COBRAR 10% DE MULTA                                NAO RECEBER APOS 30 DIAS DO VENCIMENTO.                                                                                                                                                                                                         12061900000000000001206190000000000000       0090770900066125006663061918000054
100000000000000000000009077090006612500000000000000000000000010002100029155006191800000000002            2  01291550061925061900000003513880000000001N110619000000000000000000000000000000000000000000000000000000000000000100029155026842DANIELA YOSHIDA                         RUA MONTE CASTELO - 262 AP.34 - AVIACAO             11702720                                                            000056
2SR. CAIXA, APOS O VENCIMENTO COBRAR 10% DE MULTA                                NAO RECEBER APOS 30 DIAS DO VENCIMENTO.                                                                                                                                                                                                         12061900000000000001206190000000000000       0090770900066125291550061918000057
100000000000000000000009077090006612500000000000000000000000010002100001204406191100000000002            2  01012044061925061900000002861560000000001N110619000000000000000000000000000000000000000000000000000000000000000100001204431809CEZAR TALAVERA JUNIOR                   RUA MAESTRO ARTURO DE ANGELIS  - 190 AP.            05139010                                                            000059
2SR. CAIXA, APOS O VENCIMENTO COBRAR 10% DE MULTA                                NAO RECEBER APOS 30 DIAS DO VENCIMENTO.                                                                                                                                                                                                         12061900000000000001206190000000000000       0090770900066125012044061911000060
100000000000000000000009077090006612500000000000000000000000010002100004227506191000000000002            2  01042275061925061900000003709420000000001N110619000000000000000000000000000000000000000000000000000000000000000100004227553970ALESSANDRO ISRAEL GOULART               RUA PROFESSORA CARLINDA RIBEIRO - 21 - F            02866200                                                            000062
2SR. CAIXA, APOS O VENCIMENTO COBRAR 10% DE MULTA                                NAO RECEBER APOS 30 DIAS DO VENCIMENTO.                                                                                                                                                                                                         12061900000000000001206190000000000000       0090770900066125042275061910000063
100000000000000000000009077090006612500000000000000000000000010002100060811406191400000000002            2  01608114061925061900000003418670000000001N110619000000000000000000000000000000000000000000000000000000000000000100060811420868HELIO BASSI                             AV.PARIS,575 - PRACA ANTONIO FIGUEROA -             11700082                                                            000065
2SR. CAIXA, APOS O VENCIMENTO COBRAR 10% DE MULTA                                NAO RECEBER APOS 30 DIAS DO VENCIMENTO.                                                                                                                                                                                                         12061900000000000001206190000000000000       0090770900066125608114061914000066
100000000000000000000009077090006612500000000000000000000000010002100001024706191400000000002            2  01010247061925061900000003234970000000001N110619000000000000000000000000000000000000000000000000000000000000000100001024794881CLAUDIO RODRIGUES                       RUA ARACATUBA - 242 - LAPA - SAO PAULO -            05058010                                                            000068
2SR. CAIXA, APOS O VENCIMENTO COBRAR 10% DE MULTA                                NAO RECEBER APOS 30 DIAS DO VENCIMENTO.                                                                                                                                                                                                         12061900000000000001206190000000000000       0090770900066125010247061914000069
100000000000000000000009077090006612500000000000000000000000010002100002225006191500000000002            2  01022250061925061900000004959640000000001N110619000000000000000000000000000000000000000000000000000000000000000100002225072841PEDRO EDUARDO DE AZEVEDO                RUA NATH ZILMAN - 46 - JARDIM SAMAMBAIA             07600000                                                            000071
2SR. CAIXA, APOS O VENCIMENTO COBRAR 10% DE MULTA                                NAO RECEBER APOS 30 DIAS DO VENCIMENTO.                                                                                                                                                                                                         12061900000000000001206190000000000000       0090770900066125022250061915000072
100000000000000000000009077090006612500000000000000000000000010002100022037506191300000000002            2  01220375061925061900000003451370000000001N110619000000000000000000000000000000000000000000000000000000000000000100022037552882ANDREIA CRISTINA FERNANDES DANTAS       PCA CASTRO ALVES - 163 AP.33 - VILA SAO             13224299                                                            000074
2SR. CAIXA, APOS O VENCIMENTO COBRAR 10% DE MULTA                                NAO RECEBER APOS 30 DIAS DO VENCIMENTO.                                                                                                                                                                                                         12061900000000000001206190000000000000       0090770900066125220375061913000075
100000000000000000000009077090006612500000000000000000000000010002100019288706191100000000002            2  01192887061925061900000002810190000000001N110619000000000000000000000000000000000000000000000000000000000000000100019288787844EMERSON LUIZ MARTINEZ PEREIRA           RUA MONTE CASTELO - 296 AP.74 - AVIACAO             11702720                                                            000077
2SR. CAIXA, APOS O VENCIMENTO COBRAR 10% DE MULTA                                NAO RECEBER APOS 30 DIAS DO VENCIMENTO.                                                                                                                                                                                                         12061900000000000001206190000000000000       0090770900066125192887061911000078
100000000000000000000009077090006612500000000000000000000000010002100027198406191500000000002            2  01271984061925061900000002380390000000001N110619000000000000000000000000000000000000000000000000000000000000000100027198452809CRISTIANE AURELIANO DA SILVA MAIA       RUA MONTE CASTELO - 262 AP.25 - AVIACAO             11702720                                                            000080
2SR. CAIXA, APOS O VENCIMENTO COBRAR 10% DE MULTA                                NAO RECEBER APOS 30 DIAS DO VENCIMENTO.                                                                                                                                                                                                         12061900000000000001206190000000000000       0090770900066125271984061915000081
100000000000000000000009077090006612500000000000000000000000010002100021246206191900000000002            2  01212462061925061900000002905020000000001N110619000000000000000000000000000000000000000000000000000000000000000100021246231840ALEXANDRO DA CUNHA MIGUES               AVENIDA CONSELHEIRO CARRAO - 1861 CONJ.5            03403001                                                            000083
2SR. CAIXA, APOS O VENCIMENTO COBRAR 10% DE MULTA                                NAO RECEBER APOS 30 DIAS DO VENCIMENTO.                                                                                                                                                                                                         12061900000000000001206190000000000000       0090770900066125212462061919000084
100000000000000000000009077090006612500000000000000000000000010002100018834206191700000000002            2  01188342061925061900000003393360000000001N110619000000000000000000000000000000000000000000000000000000000000000100018834257863ILTON FERNANDO MUTCHNIK                 RUA ASSUNGUI - 700 AP.222 - VILA GUMERCI            04131001                                                            000086
2SR. CAIXA, APOS O VENCIMENTO COBRAR 10% DE MULTA                                NAO RECEBER APOS 30 DIAS DO VENCIMENTO.                                                                                                                                                                                                         12061900000000000001206190000000000000       0090770900066125188342061917000087
100000000000000000000009077090006612500000000000000000000000010002100018470506191900000000002            2  01184705061925061900000004273700000000001N110619000000000000000000000000000000000000000000000000000000000000000100018470520881SILVANA ALVES DE OLIVEIRA               RUA MONTE CASTELO - 262 AP.91 - AVIACAO             11702720                                                            000089
2SR. CAIXA, APOS O VENCIMENTO COBRAR 10% DE MULTA                                NAO RECEBER APOS 30 DIAS DO VENCIMENTO.                                                                                                                                                                                                         12061900000000000001206190000000000000       0090770900066125184705061919000090
100000000000000000000009077090006612500000000000000000000000010002100009297506191900000000002            2  01092975061925061900000002975300000000001N110619000000000000000000000000000000000000000000000000000000000000000100009297523846MARCOS ROBERTO DE CASTRO FERREIRA       RUA MONTE CASTELO - 262 AP.105 - AVIACAO            11702720                                                            000092
2SR. CAIXA, APOS O VENCIMENTO COBRAR 10% DE MULTA                                NAO RECEBER APOS 30 DIAS DO VENCIMENTO.                                                                                                                                                                                                         12061900000000000001206190000000000000       0090770900066125092975061919000093
100000000000000000000009077090006612500000000000000000000000010002100001164106191800000000002            2  01011641061925061900000003687070000000001N110619000000000000000000000000000000000000000000000000000000000000000100001164158864DAVID BLEY LACERDA                      RUA CONEGO ARAUJO MARCONDES - 188 - BAIR            02550080                                                            000095
2SR. CAIXA, APOS O VENCIMENTO COBRAR 10% DE MULTA                                NAO RECEBER APOS 30 DIAS DO VENCIMENTO.                                                                                                                                                                                                         12061900000000000001206190000000000000       0090770900066125011641061918000096
100000000000000000000009077090006612500000000000000000000000010002100031498006191100000000002            2  01314980061925061900000004481110000000001N110619000000000000000000000000000000000000000000000000000000000000000100031498008895POLIANE  SIBELE DA SILVA                PRACA GENERAL COSTA BARRETO - 56 AP.181             03325070                                                            000098
2SR. CAIXA, APOS O VENCIMENTO COBRAR 10% DE MULTA                                NAO RECEBER APOS 30 DIAS DO VENCIMENTO.                                                                                                                                                                                                         12061900000000000001206190000000000000       0090770900066125314980061911000099
100000000000000000000009077090006612500000000000000000000000010002100000588106191500000000002            2  01005881061925061900000002628270000000001N110619000000000000000000000000000000000000000000000000000000000000000100000588109860JOSE LIARTE GIANTE                      AVENIDA LUIZ GONZAGA DO AMARAL - 143 - J            09320630                                                            000101
2SR. CAIXA, APOS O VENCIMENTO COBRAR 10% DE MULTA                                NAO RECEBER APOS 30 DIAS DO VENCIMENTO.                                                                                                                                                                                                         12061900000000000001206190000000000000       0090770900066125005881061915000102
100000000000000000000009077090006612500000000000000000000000010002100014386806191800000000002            2  01143868061925061900000002102490000000001N110619000000000000000000000000000000000000000000000000000000000000000100014386860134SEVERINO CARLOS DE OLIVEIRA             RUA MONTE CASTELO - 262 AP.54 - AVIACAO             11702720                                                            000104
2SR. CAIXA, APOS O VENCIMENTO COBRAR 10% DE MULTA                                NAO RECEBER APOS 30 DIAS DO VENCIMENTO.                                                                                                                                                                                                         12061900000000000001206190000000000000       0090770900066125143868061918000105
100000000000000000000009077090006612500000000000000000000000010002100029088206191500000000002            2  01290882061925061900000002337430000000001N110619000000000000000000000000000000000000000000000000000000000000000100029088221804FABIANO SPERANDEO                       RUA MONTE CASTELO - 296 AP.93 - AVIACAO             11702720                                                            000107
2SR. CAIXA, APOS O VENCIMENTO COBRAR 10% DE MULTA                                NAO RECEBER APOS 30 DIAS DO VENCIMENTO.                                                                                                                                                                                                         12061900000000000001206190000000000000       0090770900066125290882061915000108
100000000000000000000009077090006612500000000000000000000000010002100039393706191300000000002            2  01393937061925061900000001449050000000001N110619000000000000000000000000000000000000000000000000000000000000000100039393790850NAIRON RICARDO DE ARAUJO SANTOS         RUA MONTE CASTELO - 262 AP.23 - AVIACAO             11702720                                                            000110
2SR. CAIXA, APOS O VENCIMENTO COBRAR 10% DE MULTA                                NAO RECEBER APOS 30 DIAS DO VENCIMENTO.                                                                                                                                                                                                         12061900000000000001206190000000000000       0090770900066125393937061913000111
100000000000000000000009077090006612500000000000000000000000010002100041896806191400000000002            2  01418968061925061900000002110320000000001N110619000000000000000000000000000000000000000000000000000000000000000100041896807968SERGIO ROBERTO DA SILVA                 RUA DOS INGLESES - 542 AP.61 - MORRO DOS            01329000                                                            000113
2SR. CAIXA, APOS O VENCIMENTO COBRAR 10% DE MULTA                                NAO RECEBER APOS 30 DIAS DO VENCIMENTO.                                                                                                                                                                                                         12061900000000000001206190000000000000       0090770900066125418968061914000114
9                                                                                                                                                                                                                                                                                                                                                                                                         000115