01REMESSA01COBRANCA       00000000000005331186HB SANTOS CONSTRUTORA E INCORP237BRADESCO       010323        MX0000067                                                                                                                                                                                                                                                                                     000001
100000000000000000000009033990000995400000000000000000000000010002020026858603231900000000002            2  01268586032308032300000003022020000000001N010323000000000000000000000000000000000000000000000000000000000000000100026858625879GLAUCE FERREIRA DE OLIVEIRA FALSI       RUA LOURENCO ANTONIO BRAGANCA - 116 - JA            04403160                                                            000002
2SR. CAIXA, APOS O VENCIMENTO COBRAR 2% DE MULTA                                 NAO RECEBER APOS 30 DIAS DO VENCIMENTO.                                                                                                                                                                                                         01032300000000000000103230000000000000       0090339900009954268586032319000003
100000000000000000000009033990000995400000000000000000000000010002020016960803231P00000000002            2  01169608032308032300000002885520000000001N010323000000000000000000000000000000000000000000000000000000000000000100016960804876LUIZ ALVES DE SOUZA JUNIOR              RUA URUGUAI - 89 AP.61 - JARDIM GUILHERM            11702300                                                            000005
2SR. CAIXA, APOS O VENCIMENTO COBRAR 2% DE MULTA                                 NAO RECEBER APOS 30 DIAS DO VENCIMENTO.                                                                                                                                                                                                         01032300000000000000103230000000000000       009033990000995416960803231P000006
100000000000000000000009033990000995400000000000000000000000010002020029425003231100000000002            2  01294250032308032300000002873930000000001N010323000000000000000000000000000000000000000000000000000000000000000100029425027897FABIA DOS SANTOS DE ANDRADE             AVENIDA ALCIDES CANDIDO DOS SANTOS - 248            11705480                                                            000008
2SR. CAIXA, APOS O VENCIMENTO COBRAR 2% DE MULTA                                 NAO RECEBER APOS 30 DIAS DO VENCIMENTO.                                                                                                                                                                                                         01032300000000000000103230000000000000       0090339900009954294250032311000009
100000000000000000000009033990000995400000000000000000000000010002020078382703231700000000002            2  01783827032308032300000002904250000000001N010323000000000000000000000000000000000000000000000000000000000000000100078382700497JARMELINA BARBOSA DA SILVA              RUA OSCAR CINTRA GORDINHO - 211 AP.51 -             01512010                                                            000011
2SR. CAIXA, APOS O VENCIMENTO COBRAR 2% DE MULTA                                 NAO RECEBER APOS 30 DIAS DO VENCIMENTO.                                                                                                                                                                                                         01032300000000000000103230000000000000       0090339900009954783827032317000012
100000000000000000000009033990000995400000000000000000000000010002020007535303231600000000002            2  01075353032308032300000002847980000000001N010323000000000000000000000000000000000000000000000000000000000000000100007535375839AINAILDE PEREIRA DE CASTRO OLIVETTO     TRAVESSA DORALINA ELIETE ADAO DA SILVA -            08021026                                                            000014
2SR. CAIXA, APOS O VENCIMENTO COBRAR 2% DE MULTA                                 NAO RECEBER APOS 30 DIAS DO VENCIMENTO.                                                                                                                                                                                                         01032300000000000000103230000000000000       0090339900009954075353032316000015
100000000000000000000009033990000995400000000000000000000000010002020017229703231100000000002            2  01172297032308032300000003016810000000001N010323000000000000000000000000000000000000000000000000000000000000000100017229751802BERENICE VIEIRA KERSTING                RUA ATIBAIA - 17 AP.417 - BAIRRO IMPERAD            11707380                                                            000017
2SR. CAIXA, APOS O VENCIMENTO COBRAR 2% DE MULTA                                 NAO RECEBER APOS 30 DIAS DO VENCIMENTO.                                                                                                                                                                                                         01032300000000000000103230000000000000       0090339900009954172297032311000018
100000000000000000000009033990000995400000000000000000000000010002020028974203231300000000002            2  01289742032308032300000002817640000000001N010323000000000000000000000000000000000000000000000000000000000000000100028974233827MARISTELA FAVANI DE OLIVEIRA            RUA GIUSEPPE CARNEVALLI - 96 - BAIRRO BO            09572100                                                            000020
2SR. CAIXA, APOS O VENCIMENTO COBRAR 2% DE MULTA                                 NAO RECEBER APOS 30 DIAS DO VENCIMENTO.                                                                                                                                                                                                         01032300000000000000103230000000000000       0090339900009954289742032313000021
100000000000000000000009033990000995400000000000000000000000010002020092184803231000000000002            2  01921848032308032300000002780140000000001N010323000000000000000000000000000000000000000000000000000000000000000100092184804800CARMEM DO SOCORRO GUILHERME             ESTRADA SAO FRANCISCO - 1.850 AP.182A -             06765000                                                            000023
2SR. CAIXA, APOS O VENCIMENTO COBRAR 2% DE MULTA                                 NAO RECEBER APOS 30 DIAS DO VENCIMENTO.                                                                                                                                                                                                         01032300000000000000103230000000000000       0090339900009954921848032310000024
100000000000000000000009033990000995400000000000000000000000010002020009169703231000000000002            2  01091697032308032300000002229690000000001N010323000000000000000000000000000000000000000000000000000000000000000100009169701830TADEU CONSTANTINO LOPES                 RUA JOSE ANTONIO COELHO - 349 CASA 01 -             04011061                                                            000026
2SR. CAIXA, APOS O VENCIMENTO COBRAR 2% DE MULTA                                 NAO RECEBER APOS 30 DIAS DO VENCIMENTO.                                                                                                                                                                                                         01032300000000000000103230000000000000       0090339900009954091697032310000027
100000000000000000000009033990000995400000000000000000000000010002020042480103231900000000002            2  01424801032308032300000002836390000000001N010323000000000000000000000000000000000000000000000000000000000000000100042480155870JAMITRE SOIOMARA ALVES DO NASCIMENTO DAVRUA URUGUAI - 89 AP.75 - JARDIM GUILHERM            11702300                                                            000029
2SR. CAIXA, APOS O VENCIMENTO COBRAR 2% DE MULTA                                 NAO RECEBER APOS 30 DIAS DO VENCIMENTO.                                                                                                                                                                                                         01032300000000000000103230000000000000       0090339900009954424801032319000030
100000000000000000000009033990000995400000000000000000000000010002020008966503231400000000002            2  01089665032308032300000002679930000000001N010323000000000000000000000000000000000000000000000000000000000000000100008966511856MONICA SILVA REIS                       RUA ORATORIO - 264 E FUNDOS - BANGU - SA            09280550                                                            000032
2SR. CAIXA, APOS O VENCIMENTO COBRAR 2% DE MULTA                                 NAO RECEBER APOS 30 DIAS DO VENCIMENTO.                                                                                                                                                                                                         01032300000000000000103230000000000000       0090339900009954089665032314000033
100000000000000000000009033990000995400000000000000000000000010002020001356903231500000000002            2  01013569032308032300000002878620000000001N010323000000000000000000000000000000000000000000000000000000000000000100001356993800DALVA MARIA DOS SANTOS                  RUA URUGUAI - 89 AP.74 - AVIACAO - PRAIA            11702300                                                            000035
2SR. CAIXA, APOS O VENCIMENTO COBRAR 2% DE MULTA                                 NAO RECEBER APOS 30 DIAS DO VENCIMENTO.                                                                                                                                                                                                         01032300000000000000103230000000000000       0090339900009954013569032315000036
100000000000000000000009033990000995400000000000000000000000010002020024615503231800000000002            2  01246155032308032300000003282940000000001N010323000000000000000000000000000000000000000000000000000000000000000100024615557884GILBERTO JOSE GONSALES                  RUA URUGUAI - 89 AP.115 - JARDIM GUILHER            11702300                                                            000038
2SR. CAIXA, APOS O VENCIMENTO COBRAR 2% DE MULTA                                 NAO RECEBER APOS 30 DIAS DO VENCIMENTO.                                                                                                                                                                                                         01032300000000000000103230000000000000       0090339900009954246155032318000039
100000000000000000000009033990000995400000000000000000000000010002020031473703231800000000002            2  01314737032308032300000002320530000000001N010323000000000000000000000000000000000000000000000000000000000000000100031473799813MURIEL DA SILVA DE MOURA SOUZA          RUA CAPITAO PAULINO FREIRE - 300 AP.014             08717100                                                            000041
2SR. CAIXA, APOS O VENCIMENTO COBRAR 2% DE MULTA                                 NAO RECEBER APOS 30 DIAS DO VENCIMENTO.                                                                                                                                                                                                         01032300000000000000103230000000000000       0090339900009954314737032318000042
100000000000000000000009033990000995400000000000000000000000010002020036949503231700000000002            2  01369495032308032300000003072040000000001N010323000000000000000000000000000000000000000000000000000000000000000100036949505833FELIPE APARECIDO DOS SANTOS             RUA DAS MIMOSAS - 67 CASA 09 - VILA LUCI            03144010                                                            000044
2SR. CAIXA, APOS O VENCIMENTO COBRAR 2% DE MULTA                                 NAO RECEBER APOS 30 DIAS DO VENCIMENTO.                                                                                                                                                                                                         01032300000000000000103230000000000000       0090339900009954369495032317000045
100000000000000000000009033990000995400000000000000000000000010002020008539303231400000000002            2  01085393032308032300000003138730000000001N010323000000000000000000000000000000000000000000000000000000000000000100008539365871EDMILSON RAIMUNDO DOS SANTOS            RUA CALIDICE - 247 - PARQUE CRUZEIRO - S            08070010                                                            000047
2SR. CAIXA, APOS O VENCIMENTO COBRAR 2% DE MULTA                                 NAO RECEBER APOS 30 DIAS DO VENCIMENTO.                                                                                                                                                                                                         01032300000000000000103230000000000000       0090339900009954085393032314000048
100000000000000000000009033990000995400000000000000000000000010002020031040903231300000000002            2  01310409032308032300000003233690000000001N010323000000000000000000000000000000000000000000000000000000000000000100031040952801ANDRESSA REGINA FAVERANI LUPPI          RUA AMALIA BELLOTTI PASTORELLO - 169 - T            11724030                                                            000050
2SR. CAIXA, APOS O VENCIMENTO COBRAR 2% DE MULTA                                 NAO RECEBER APOS 30 DIAS DO VENCIMENTO.                                                                                                                                                                                                         01032300000000000000103230000000000000       0090339900009954310409032313000051
100000000000000000000009033990000995400000000000000000000000010002020024558903231P00000000002            2  01245589032308032300000005406050000000001N010323000000000000000000000000000000000000000000000000000000000000000100024558912838EDILENE GORGATTI                        RUA ITARARE - 76 AP.142 - JARDIM GUILHER            11701820                                                            000053
2SR. CAIXA, APOS O VENCIMENTO COBRAR 2% DE MULTA                                 NAO RECEBER APOS 30 DIAS DO VENCIMENTO.                                                                                                                                                                                                         01032300000000000000103230000000000000       009033990000995424558903231P000054
100000000000000000000009033990000995400000000000000000000000010002020004611203231500000000002            2  01046112032308032300000001990720000000001N010323000000000000000000000000000000000000000000000000000000000000000100004611218830TANIA MARIA DA SILVA NUNES PEREIRA LUIZ RUA URUGUAI - 89 AP.103 - JARDIM GUILHER            11702300                                                            000056
2SR. CAIXA, APOS O VENCIMENTO COBRAR 2% DE MULTA                                 NAO RECEBER APOS 30 DIAS DO VENCIMENTO.                                                                                                                                                                                                         01032300000000000000103230000000000000       0090339900009954046112032315000057
100000000000000000000009033990000995400000000000000000000000010002020010548803231200000000002            2  01105488032308032300000003537210000000001N010323000000000000000000000000000000000000000000000000000000000000000100010548844801RICARDO DE JESUS CALDAS                 RUA ANTONIO AMBUBA - 50 CASA 60 - BAIRRO            05782370                                                            000059
2SR. CAIXA, APOS O VENCIMENTO COBRAR 2% DE MULTA                                 NAO RECEBER APOS 30 DIAS DO VENCIMENTO.                                                                                                                                                                                                         01032300000000000000103230000000000000       0090339900009954105488032312000060
100000000000000000000009033990000995400000000000000000000000010002020039623803231100000000002            2  01396238032308032300000003108780000000001N010323000000000000000000000000000000000000000000000000000000000000000100039623826826LEONARDO GUEDES PINTO                   RUA URUGUAI - 89 AP.24 - AVIACAO - PRAIA            11702300                                                            000062
2SR. CAIXA, APOS O VENCIMENTO COBRAR 2% DE MULTA                                 NAO RECEBER APOS 30 DIAS DO VENCIMENTO.                                                                                                                                                                                                         01032300000000000000103230000000000000       0090339900009954396238032311000063
100000000000000000000009033990000995400000000000000000000000010002020039558603231000000000002            2  01395586032308032300000002854080000000001N010323000000000000000000000000000000000000000000000000000000000000000100039558638838TAMIRES ROCHA FRANCISCO                 RUA DUARTE DE CARVALHO - 185 AP.102 - BA            03084030                                                            000065
2SR. CAIXA, APOS O VENCIMENTO COBRAR 2% DE MULTA                                 NAO RECEBER APOS 30 DIAS DO VENCIMENTO.                                                                                                                                                                                                         01032300000000000000103230000000000000       0090339900009954395586032310000066
100000000000000000000009033990000995400000000000000000000000010002020032038703231P00000000002            2  01320387032308032300000002321990000000001N010323000000000000000000000000000000000000000000000000000000000000000100032038775893GUSTAVO PEREIRA DA CRUZ                 RUA SAO FIDELIS - 203 - JARDIM BRASIL -             16074050                                                            000068
2SR. CAIXA, APOS O VENCIMENTO COBRAR 2% DE MULTA                                 NAO RECEBER APOS 30 DIAS DO VENCIMENTO.                                                                                                                                                                                                         01032300000000000000103230000000000000       009033990000995432038703231P000069
100000000000000000000009033990000995400000000000000000000000010002020008993103231700000000002            2  01089931032308032300000010958540000000001N010323000000000000000000000000000000000000000000000000000000000000000100008993178801PATRICIA BITTENCOURT FRACARO            RUA MARCIO MAZZEI - 337 - VILA NOVA MAZZ            02316050                                                            000071
2SR. CAIXA, APOS O VENCIMENTO COBRAR 2% DE MULTA                                 NAO RECEBER APOS 30 DIAS DO VENCIMENTO.                                                                                                                                                                                                         01032300000000000000103230000000000000       0090339900009954089931032317000072
100000000000000000000009033990000995400000000000000000000000010002020012955203231P00000000002            2  01129552032308032300000005381150000000001N010323000000000000000000000000000000000000000000000000000000000000000100012955241806MAURO ALVES SILVA                       RUA TRAITUBA - 354 - BAIRRO SAUDE - SAO             04142050                                                            000074
2SR. CAIXA, APOS O VENCIMENTO COBRAR 2% DE MULTA                                 NAO RECEBER APOS 30 DIAS DO VENCIMENTO.                                                                                                                                                                                                         01032300000000000000103230000000000000       009033990000995412955203231P000075
100000000000000000000009033990000995400000000000000000000000010002020025914203231300000000002            2  01259142032308032300000003157220000000001N010323000000000000000000000000000000000000000000000000000000000000000100025914206880JONAS DOS REIS MACHADO                  RUA PROFESSORA MARGARIDA RUTH FERREIRA D            02378200                                                            000077
2SR. CAIXA, APOS O VENCIMENTO COBRAR 2% DE MULTA                                 NAO RECEBER APOS 30 DIAS DO VENCIMENTO.                                                                                                                                                                                                         01032300000000000000103230000000000000       0090339900009954259142032313000078
9                                                                                                                                                                                                                                                                                                                                                                                                         000079