01REMESSA01COBRANCA       00000000000008017025HB SANTOS CONSTRUTORA E INCORP237BRADESCO       010322        MX0000148                                                                                                                                                                                                                                                                                     000001
100000000000000000000009033990000627000000000000000000000000010002020016479003221200000000002            2  01164790032209032200000004717800000000001N010322000000000000000000000000000000000000000000000000000000000000000100016479002806LOURDES PEREIRA DE QUEIROZ SECANECHIA   RUA PAULINO CURSI - 437 - CIDADE SAO MAT            03960060                                                            000002
2SR. CAIXA, APOS O VENCIMENTO COBRAR 2% DE MULTA                                 NAO RECEBER APOS 30 DIAS DO VENCIMENTO.                                                                                                                                                                                                         01032200000000000000103220000000000000       0090339900006270164790032212000003
100000000000000000000009033990000627000000000000000000000000010002020009361403221P00000000002            2  01093614032209032200000003425140000000001N010322000000000000000000000000000000000000000000000000000000000000000100009361471805JOSE BARBOSA DA SILVA                   RUA ALFREDO INACIO TRINDADE  - 60 AP.44             02344100                                                            000005
2SR. CAIXA, APOS O VENCIMENTO COBRAR 2% DE MULTA                                 NAO RECEBER APOS 30 DIAS DO VENCIMENTO.                                                                                                                                                                                                         01032200000000000000103220000000000000       009033990000627009361403221P000006
100000000000000000000009033990000627000000000000000000000000010002020012756903221300000000002            2  01127569032209032200000002956640000000001N010322000000000000000000000000000000000000000000000000000000000000000100012756959812ITAMAR JUVENAL DIAS DA SILVA            RUA ELISEU REINALDO MORAES VIEIRA - 90 A            02858000                                                            000008
2SR. CAIXA, APOS O VENCIMENTO COBRAR 2% DE MULTA                                 NAO RECEBER APOS 30 DIAS DO VENCIMENTO.                                                                                                                                                                                                         01032200000000000000103220000000000000       0090339900006270127569032213000009
100000000000000000000009033990000627000000000000000000000000010002020029433603221700000000002            2  01294336032211032200000002451810000000001N010322000000000000000000000000000000000000000000000000000000000000000100029433631897MARIO MUNIZ                             RUA JOSE CALIXTO DO CARMO - 286 AP.53 -             11702690                                                            000011
2SR. CAIXA, APOS O VENCIMENTO COBRAR 2% DE MULTA                                 NAO RECEBER APOS 30 DIAS DO VENCIMENTO.                                                                                                                                                                                                         01032200000000000000103220000000000000       0090339900006270294336032217000012
100000000000000000000009033990000627000000000000000000000000010002020005029803221P00000000002            2  01050298032209032200000003014470000000001N010322000000000000000000000000000000000000000000000000000000000000000100005029828885LAURINETE DA CONCEICAO DE NORONHA       RUA MARIA LUCIA DE TOLEDO LEITE MORAES -            04434040                                                            000014
2SR. CAIXA, APOS O VENCIMENTO COBRAR 2% DE MULTA                                 NAO RECEBER APOS 30 DIAS DO VENCIMENTO.                                                                                                                                                                                                         01032200000000000000103220000000000000       009033990000627005029803221P000015
100000000000000000000009033990000627000000000000000000000000010002020013388903221100000000002            2  01133889032211032200000002390120000000001N010322000000000000000000000000000000000000000000000000000000000000000100013388936889NEUTON DE SOUZA RAMOS                   RUA MARIA CRISTINA - 932 - JARDIM CASQUE            11533160                                                            000017
2SR. CAIXA, APOS O VENCIMENTO COBRAR 2% DE MULTA                                 NAO RECEBER APOS 30 DIAS DO VENCIMENTO.                                                                                                                                                                                                         01032200000000000000103220000000000000       0090339900006270133889032211000018
100000000000000000000009033990000627000000000000000000000000010002020012774903221100000000002            2  01127749032211032200000002435010000000001N010322000000000000000000000000000000000000000000000000000000000000000100012774906865JOSE MILTON SANTIAGO                    RUA BATATAIS - 47 - CIDADE ESTELA - POA             08563140                                                            000020
2SR. CAIXA, APOS O VENCIMENTO COBRAR 2% DE MULTA                                 NAO RECEBER APOS 30 DIAS DO VENCIMENTO.                                                                                                                                                                                                         01032200000000000000103220000000000000       0090339900006270127749032211000021
100000000000000000000009033990000627000000000000000000000000010002020016294103221700000000002            2  01162941032209032200000002992840000000001N010322000000000000000000000000000000000000000000000000000000000000000100016294119812JURACY FELIX DE ARRUDA                  RUA CARLOS JOSE BORSTENS - 50 AP.23 - AV            11702750                                                            000023
2SR. CAIXA, APOS O VENCIMENTO COBRAR 2% DE MULTA                                 NAO RECEBER APOS 30 DIAS DO VENCIMENTO.                                                                                                                                                                                                         01032200000000000000103220000000000000       0090339900006270162941032217000024
100000000000000000000009033990000627000000000000000000000000010002020005613803221100000000002            2  01056138032211032200000002239520000000001N010322000000000000000000000000000000000000000000000000000000000000000100005613843805NILZA MARIA DE OLIVEIRA                 RUA JOSE GONCALVES DE FREITAS - 66 C2 -             08210550                                                            000026
2SR. CAIXA, APOS O VENCIMENTO COBRAR 2% DE MULTA                                 NAO RECEBER APOS 30 DIAS DO VENCIMENTO.                                                                                                                                                                                                         01032200000000000000103220000000000000       0090339900006270056138032211000027
100000000000000000000009033990000627000000000000000000000000010002020007574903221100000000002            2  01075749032211032200000002298810000000001N010322000000000000000000000000000000000000000000000000000000000000000100007574936889JORGE LUCIANO PEREIRA BORRIELLO         RUA JOSE CALIXTO DO CARMO - 286 AP.54 -             11702690                                                            000029
2SR. CAIXA, APOS O VENCIMENTO COBRAR 2% DE MULTA                                 NAO RECEBER APOS 30 DIAS DO VENCIMENTO.                                                                                                                                                                                                         01032200000000000000103220000000000000       0090339900006270075749032211000030
100000000000000000000009033990000627000000000000000000000000010002020008214903221400000000002            2  01082149032211032200000002333680000000001N010322000000000000000000000000000000000000000000000000000000000000000100008214973830JAMIL CHALA                             RUA JOSE CALIXTO DO CARMO - 286 AP.22 -             11702690                                                            000032
2SR. CAIXA, APOS O VENCIMENTO COBRAR 2% DE MULTA                                 NAO RECEBER APOS 30 DIAS DO VENCIMENTO.                                                                                                                                                                                                         01032200000000000000103220000000000000       0090339900006270082149032214000033
100000000000000000000009033990000627000000000000000000000000010002020032495003221100000000002            2  01324950032211032200000002615200000000001N010322000000000000000000000000000000000000000000000000000000000000000100032495004881PAULO EDUARDO DOS SANTOS                RUA REPUBLICA DO IRAQUE - 1119 - CAMPO B            04611002                                                            000035
2SR. CAIXA, APOS O VENCIMENTO COBRAR 2% DE MULTA                                 NAO RECEBER APOS 30 DIAS DO VENCIMENTO.                                                                                                                                                                                                         01032200000000000000103220000000000000       0090339900006270324950032211000036
100000000000000000000009033990000627000000000000000000000000010002020016498003221900000000002            2  01164980032211032200000002293600000000001N010322000000000000000000000000000000000000000000000000000000000000000100016498053810GILMA CEZARIO GARCIA CORRITORI          RUA LAURENTINO XAVIER DOS SANTOS - 336 -            08240740                                                            000038
2SR. CAIXA, APOS O VENCIMENTO COBRAR 2% DE MULTA                                 NAO RECEBER APOS 30 DIAS DO VENCIMENTO.                                                                                                                                                                                                         01032200000000000000103220000000000000       0090339900006270164980032219000039
100000000000000000000009033990000627000000000000000000000000010002020029339003221800000000002            2  01293390032211032200000002452620000000001N010322000000000000000000000000000000000000000000000000000000000000000100029339051831RONALD DIDOFF                           RUA CORONEL FERREIRA BRAGA - 188 - VILA             03522010                                                            000041
2SR. CAIXA, APOS O VENCIMENTO COBRAR 2% DE MULTA                                 NAO RECEBER APOS 30 DIAS DO VENCIMENTO.                                                                                                                                                                                                         01032200000000000000103220000000000000       0090339900006270293390032218000042
100000000000000000000009033990000627000000000000000000000000010002020017357803221P00000000002            2  01173578032211032200000002597540000000001N010322000000000000000000000000000000000000000000000000000000000000000100017357859894MARCIO GUIMARAES                        RUA GENERAL CAMARA - 188 SALA 11 - CENTR            11010120                                                            000044
2SR. CAIXA, APOS O VENCIMENTO COBRAR 2% DE MULTA                                 NAO RECEBER APOS 30 DIAS DO VENCIMENTO.                                                                                                                                                                                                         01032200000000000000103220000000000000       009033990000627017357803221P000045
100000000000000000000009033990000627000000000000000000000000010002020010563003221P00000000002            2  01105630032211032200000002663920000000001N010322000000000000000000000000000000000000000000000000000000000000000100010563033878VERA LUCIA RIBEIRO LONGANEZI            RUA DOS CAMARES - 150 AP.24 BL.02 - CARA            02068030                                                            000047
2SR. CAIXA, APOS O VENCIMENTO COBRAR 2% DE MULTA                                 NAO RECEBER APOS 30 DIAS DO VENCIMENTO.                                                                                                                                                                                                         01032200000000000000103220000000000000       009033990000627010563003221P000048
100000000000000000000009033990000627000000000000000000000000010002020005529603221400000000002            2  01055296032211032200000002417430000000001N010322000000000000000000000000000000000000000000000000000000000000000100005529616801JOAQUIM JORGE DA COSTA                  RUA JOSE CALIXTO DO CARMO - 286 AP.106 -            11702690                                                            000050
2SR. CAIXA, APOS O VENCIMENTO COBRAR 2% DE MULTA                                 NAO RECEBER APOS 30 DIAS DO VENCIMENTO.                                                                                                                                                                                                         01032200000000000000103220000000000000       0090339900006270055296032214000051
100000000000000000000009033990000627000000000000000000000000010002020015550703221000000000002            2  01155507032209032200000002284960000000001N010322000000000000000000000000000000000000000000000000000000000000000100015550706806MARY MIWA                               RUA CARLOS JOSE BORSTENS - 50 AP.105 - A            11702750                                                            000053
2SR. CAIXA, APOS O VENCIMENTO COBRAR 2% DE MULTA                                 NAO RECEBER APOS 30 DIAS DO VENCIMENTO.                                                                                                                                                                                                         01032200000000000000103220000000000000       0090339900006270155507032210000054
100000000000000000000009033990000627000000000000000000000000010002020015464603221000000000002            2  01154646032211032200000002541290000000001N010322000000000000000000000000000000000000000000000000000000000000000100015464647864SONIA TERESA VOLPATO                    RUA JOSE CALIXTO DO CARMO - 286 AP.73 -             11702690                                                            000056
2SR. CAIXA, APOS O VENCIMENTO COBRAR 2% DE MULTA                                 NAO RECEBER APOS 30 DIAS DO VENCIMENTO.                                                                                                                                                                                                         01032200000000000000103220000000000000       0090339900006270154646032210000057
100000000000000000000009033990000627000000000000000000000000010002020008657803221P00000000002            2  01086578032211032200000002515770000000001N010322000000000000000000000000000000000000000000000000000000000000000100008657886855ARLINDO DA CRUZ                         AVENIDA ARICANDUVA - 8.256 AP.54 BL.10 -            03951220                                                            000059
2SR. CAIXA, APOS O VENCIMENTO COBRAR 2% DE MULTA                                 NAO RECEBER APOS 30 DIAS DO VENCIMENTO.                                                                                                                                                                                                         01032200000000000000103220000000000000       009033990000627008657803221P000060
100000000000000000000009033990000627000000000000000000000000010002020059735103221800000000002            2  01597351032209032200000001422060000000001N010322000000000000000000000000000000000000000000000000000000000000000100059735180863HELIO JOSE MARQUES                      RUA MARTIM AFONSO DE SOUZA - 1007 AP.102            11702790                                                            000062
2SR. CAIXA, APOS O VENCIMENTO COBRAR 2% DE MULTA                                 NAO RECEBER APOS 30 DIAS DO VENCIMENTO.                                                                                                                                                                                                         01032200000000000000103220000000000000       0090339900006270597351032218000063
100000000000000000000009033990000627000000000000000000000000010002020026347803221100000000002            2  01263478032211032200000002689300000000001N010322000000000000000000000000000000000000000000000000000000000000000100026347872862VALDECI SILVA MEIRELES                  RUA JOSE BATISTA DA SILVA - 292 - JARDIM            06851470                                                            000065
2SR. CAIXA, APOS O VENCIMENTO COBRAR 2% DE MULTA                                 NAO RECEBER APOS 30 DIAS DO VENCIMENTO.                                                                                                                                                                                                         01032200000000000000103220000000000000       0090339900006270263478032211000066
100000000000000000000009033990000627000000000000000000000000010002020013135203221200000000002            2  01131352032211032200000002470790000000001N010322000000000000000000000000000000000000000000000000000000000000000100013135261859EDUARDO ZANOLA                          RUA ROLANDO PIETRO BONINI - 46 - JARDIM             09781040                                                            000068
2SR. CAIXA, APOS O VENCIMENTO COBRAR 2% DE MULTA                                 NAO RECEBER APOS 30 DIAS DO VENCIMENTO.                                                                                                                                                                                                         01032200000000000000103220000000000000       0090339900006270131352032212000069
100000000000000000000009033990000627000000000000000000000000010002020009797603221300000000002            2  01097976032211032200000002406280000000001N010322000000000000000000000000000000000000000000000000000000000000000100009797626857RICARDO SOBRAL DE OLIVEIRA              RUA 23 DE MAIO - 139 AP.32 - VILA MIRIM             11704690                                                            000071
2SR. CAIXA, APOS O VENCIMENTO COBRAR 2% DE MULTA                                 NAO RECEBER APOS 30 DIAS DO VENCIMENTO.                                                                                                                                                                                                         01032200000000000000103220000000000000       0090339900006270097976032213000072
100000000000000000000009033990000627000000000000000000000000010002020004767603221400000000002            2  01047676032209032200000004113460000000001N010322000000000000000000000000000000000000000000000000000000000000000100004767679893ORLANDO GRANDE FILHO                    RUA ORLANDO MIGLIARI - 101 - JARDIM OURO            19906140                                                            000074
2SR. CAIXA, APOS O VENCIMENTO COBRAR 2% DE MULTA                                 NAO RECEBER APOS 30 DIAS DO VENCIMENTO.                                                                                                                                                                                                         01032200000000000000103220000000000000       0090339900006270047676032214000075
100000000000000000000009033990000627000000000000000000000000010002020006512503221100000000002            2  01065125032211032200000002164550000000001N010322000000000000000000000000000000000000000000000000000000000000000100006512547870MARIA DO CARMO FAGUNDES DOS REIS        RUA CARLOS MALCHER - 98 - PARQUE EDU CHA            02232020                                                            000077
2SR. CAIXA, APOS O VENCIMENTO COBRAR 2% DE MULTA                                 NAO RECEBER APOS 30 DIAS DO VENCIMENTO.                                                                                                                                                                                                         01032200000000000000103220000000000000       0090339900006270065125032211000078
100000000000000000000009033990000627000000000000000000000000010002020022728403221400000000002            2  01227284032211032200000002603770000000001N010322000000000000000000000000000000000000000000000000000000000000000100022728497842WILLIAN DE SOUZA MELLO                  RUA JOSE CALIXTO DO CARMO - 286 AP.111 -            11702690                                                            000080
2SR. CAIXA, APOS O VENCIMENTO COBRAR 2% DE MULTA                                 NAO RECEBER APOS 30 DIAS DO VENCIMENTO.                                                                                                                                                                                                         01032200000000000000103220000000000000       0090339900006270227284032214000081
100000000000000000000009033990000627000000000000000000000000010002020016909703221900000000002            2  01169097032211032200000002300900000000001N010322000000000000000000000000000000000000000000000000000000000000000100016909746805EDIVALDO SANTANA DOS SANTOS             ESTRADA JOAO GASPAR DELGADO - 80 AP.213             08536100                                                            000083
2SR. CAIXA, APOS O VENCIMENTO COBRAR 2% DE MULTA                                 NAO RECEBER APOS 30 DIAS DO VENCIMENTO.                                                                                                                                                                                                         01032200000000000000103220000000000000       0090339900006270169097032219000084
100000000000000000000009033990000627000000000000000000000000010002020022036003221600000000002            2  01220360032209032200000003572000000000001N010322000000000000000000000000000000000000000000000000000000000000000100022036003818DERLIS TERAN QUIROGA ROGATO             RUA JOAO RIBEIRO - 320 AP.131SB - CAMPES            09070250                                                            000086
2SR. CAIXA, APOS O VENCIMENTO COBRAR 2% DE MULTA                                 NAO RECEBER APOS 30 DIAS DO VENCIMENTO.                                                                                                                                                                                                         01032200000000000000103220000000000000       0090339900006270220360032216000087
100000000000000000000009033990000627000000000000000000000000010002020017229703223000000000002            2  01172297032209032200000003447300000000001N010322000000000000000000000000000000000000000000000000000000000000000100017229751802BERENICE VIEIRA KERSTING                RUA ATIBAIA - 17 AP.417 - BAIRRO IMPERAD            11707380                                                            000089
2SR. CAIXA, APOS O VENCIMENTO COBRAR 2% DE MULTA                                 NAO RECEBER APOS 30 DIAS DO VENCIMENTO.                                                                                                                                                                                                         01032200000000000000103220000000000000       0090339900006270172297032230000090
100000000000000000000009033990000627000000000000000000000000010002020012475603221P00000000002            2  01124756032211032200000002494070000000001N010322000000000000000000000000000000000000000000000000000000000000000100012475663820CELIDALVA GOES DE CARVALHO              RUA JOSE CALIXTO DO CARMO - 286 AP.91 -             11702690                                                            000092
2SR. CAIXA, APOS O VENCIMENTO COBRAR 2% DE MULTA                                 NAO RECEBER APOS 30 DIAS DO VENCIMENTO.                                                                                                                                                                                                         01032200000000000000103220000000000000       009033990000627012475603221P000093
100000000000000000000009033990000627000000000000000000000000010002020033451603221700000000002            2  01334516032211032200000002082710000000001N010322000000000000000000000000000000000000000000000000000000000000000100033451620839ARAO ELISIARIO  NUNES                   RUA JOSE CALIXTO DO CARMO - 286 AP.64 -             11702690                                                            000095
2SR. CAIXA, APOS O VENCIMENTO COBRAR 2% DE MULTA                                 NAO RECEBER APOS 30 DIAS DO VENCIMENTO.                                                                                                                                                                                                         01032200000000000000103220000000000000       0090339900006270334516032217000096
100000000000000000000009033990000627000000000000000000000000010002020045839203221400000000002            2  01458392032211032200000001616550000000001N010322000000000000000000000000000000000000000000000000000000000000000100045839263834LEONARDO ANTONIO CONCELLIERI            RUA JOSE CALIXTO DO CARMO - 286 AP.51 -             11702690                                                            000098
2SR. CAIXA, APOS O VENCIMENTO COBRAR 2% DE MULTA                                 NAO RECEBER APOS 30 DIAS DO VENCIMENTO.                                                                                                                                                                                                         01032200000000000000103220000000000000       0090339900006270458392032214000099
100000000000000000000009033990000627000000000000000000000000010002020011369103221500000000002            2  01113691032211032200000002275100000000001N010322000000000000000000000000000000000000000000000000000000000000000100011369165803ELIANA CORREA DE OLIVEIRA               RUA MAESTRO ZEFERINO SANTANA - 65 - VILA            18040010                                                            000101
2SR. CAIXA, APOS O VENCIMENTO COBRAR 2% DE MULTA                                 NAO RECEBER APOS 30 DIAS DO VENCIMENTO.                                                                                                                                                                                                         01032200000000000000103220000000000000       0090339900006270113691032215000102
100000000000000000000009033990000627000000000000000000000000010002020002253803221900000000002            2  01022538032211032200000002022120000000001N010322000000000000000000000000000000000000000000000000000000000000000100002253816809EDMILSON ALVES DA SILVA                 RUA JOSE CALIXTO DO CARMO - 286 AP.93 -             11702690                                                            000104
2SR. CAIXA, APOS O VENCIMENTO COBRAR 2% DE MULTA                                 NAO RECEBER APOS 30 DIAS DO VENCIMENTO.                                                                                                                                                                                                         01032200000000000000103220000000000000       0090339900006270022538032219000105
100000000000000000000009033990000627000000000000000000000000010002020037947003221000000000002            2  01379470032211032200000003591430000000001N010322000000000000000000000000000000000000000000000000000000000000000100037947070873BRUNO DE CAETANO MARRINHAS              AVENIDA GENERAL BARRETO DE MENEZES - 323            09791150                                                            000107
2SR. CAIXA, APOS O VENCIMENTO COBRAR 2% DE MULTA                                 NAO RECEBER APOS 30 DIAS DO VENCIMENTO.                                                                                                                                                                                                         01032200000000000000103220000000000000       0090339900006270379470032210000108
100000000000000000000009033990000627000000000000000000000000010002020037517703221900000000002            2  01375177032209032200000003788660000000001N010322000000000000000000000000000000000000000000000000000000000000000100037517785869RENATO JOSE DE LIMA MELO                RUA ARISTIDES LOBO - 148 AP.41 BLOCO 03             03041100                                                            000110
2SR. CAIXA, APOS O VENCIMENTO COBRAR 2% DE MULTA                                 NAO RECEBER APOS 30 DIAS DO VENCIMENTO.                                                                                                                                                                                                         01032200000000000000103220000000000000       0090339900006270375177032219000111
100000000000000000000009033990000627000000000000000000000000010002020070367903221P00000000002            2  01703679032211032200000001898900000000001N010322000000000000000000000000000000000000000000000000000000000000000100070367949849TEODOMIRO ALVES DOS SANTOS              RUA ANDRE PAZ - 13 - JARDIM SANTO ANDRE             08390230                                                            000113
2SR. CAIXA, APOS O VENCIMENTO COBRAR 2% DE MULTA                                 NAO RECEBER APOS 30 DIAS DO VENCIMENTO.                                                                                                                                                                                                         01032200000000000000103220000000000000       009033990000627070367903221P000114
100000000000000000000009033990000627000000000000000000000000010002020004410803221900000000002            2  01044108032209032200000002815020000000001N010322000000000000000000000000000000000000000000000000000000000000000100004410802860LUIZ ALBERTO MARINHO                    RUA DA INDEPENDENCIA - 706 AP.41B - CAMB            01524000                                                            000116
2SR. CAIXA, APOS O VENCIMENTO COBRAR 2% DE MULTA                                 NAO RECEBER APOS 30 DIAS DO VENCIMENTO.                                                                                                                                                                                                         01032200000000000000103220000000000000       0090339900006270044108032219000117
100000000000000000000009033990000627000000000000000000000000010002020018035003221600000000002            2  01180350032211032200000002541480000000001N010322000000000000000000000000000000000000000000000000000000000000000100018035075861ROSANGELA BISPO SANTOS                  RUA CASSIANO GABUS MENDES - 292 - JD. CA            09896160                                                            000119
2SR. CAIXA, APOS O VENCIMENTO COBRAR 2% DE MULTA                                 NAO RECEBER APOS 30 DIAS DO VENCIMENTO.                                                                                                                                                                                                         01032200000000000000103220000000000000       0090339900006270180350032216000120
100000000000000000000009033990000627000000000000000000000000010002020004767603222200000000002            2  01047676032209032200000003757990000000001N010322000000000000000000000000000000000000000000000000000000000000000100004767679893ORLANDO GRANDE FILHO                    RUA ORLANDO MIGLIARI - 101 - JARDIM OURO            19906140                                                            000122
2SR. CAIXA, APOS O VENCIMENTO COBRAR 2% DE MULTA                                 NAO RECEBER APOS 30 DIAS DO VENCIMENTO.                                                                                                                                                                                                         01032200000000000000103220000000000000       0090339900006270047676032222000123
100000000000000000000009033990000627000000000000000000000000010002020064677803221P00000000002            2  01646778032209032200000003023010000000001N010322000000000000000000000000000000000000000000000000000000000000000100064677850887ANTONIO CARLOS DE OLIVEIRA              RUA DR.ANTONIO MAZILLI FILHO - 435 - PAR            02230070                                                            000125
2SR. CAIXA, APOS O VENCIMENTO COBRAR 2% DE MULTA                                 NAO RECEBER APOS 30 DIAS DO VENCIMENTO.                                                                                                                                                                                                         01032200000000000000103220000000000000       009033990000627064677803221P000126
100000000000000000000009033990000627000000000000000000000000010002020007328903221500000000002            2  01073289032209032200000003688240000000001N010322000000000000000000000000000000000000000000000000000000000000000100007328927836BENEDITO APARECIDO ROCHA                AVENIDA SENADOR JOSE ERMINIO DE MORAES -            02357002                                                            000128
2SR. CAIXA, APOS O VENCIMENTO COBRAR 2% DE MULTA                                 NAO RECEBER APOS 30 DIAS DO VENCIMENTO.                                                                                                                                                                                                         01032200000000000000103220000000000000       0090339900006270073289032215000129
100000000000000000000009033990000627000000000000000000000000010002020058488603221200000000002            2  01584886032209032200000002757210000000001N010322000000000000000000000000000000000000000000000000000000000000000100058488618972ADAILTON ZANUTTO MORESCHI               R:RAPHAEL UNGARO - COND.RESERVA SERRA Q.            13212138                                                            000131
2SR. CAIXA, APOS O VENCIMENTO COBRAR 2% DE MULTA                                 NAO RECEBER APOS 30 DIAS DO VENCIMENTO.                                                                                                                                                                                                         01032200000000000000103220000000000000       0090339900006270584886032212000132
100000000000000000000009033990000627000000000000000000000000010002020002196003221700000000002            2  01021960032211032200000002073800000000001N010322000000000000000000000000000000000000000000000000000000000000000100002196012831VILEFORT DIAS BORGES                    RUA PORTO XAVIER - 189 AP.64 - VILA CARM            08210170                                                            000134
2SR. CAIXA, APOS O VENCIMENTO COBRAR 2% DE MULTA                                 NAO RECEBER APOS 30 DIAS DO VENCIMENTO.                                                                                                                                                                                                         01032200000000000000103220000000000000       0090339900006270021960032217000135
100000000000000000000009033990000627000000000000000000000000010002020031861503221500000000002            2  01318615032211032200000002155480000000001N010322000000000000000000000000000000000000000000000000000000000000000100031861586809VANIA TOMAZ                              -  -  -  -                                         00000000                                                            000137
2SR. CAIXA, APOS O VENCIMENTO COBRAR 2% DE MULTA                                 NAO RECEBER APOS 30 DIAS DO VENCIMENTO.                                                                                                                                                                                                         01032200000000000000103220000000000000       0090339900006270318615032215000138
100000000000000000000009033990000627000000000000000000000000010002020003104503221900000000002            2  01031045032209032200000008026140000000001N010322000000000000000000000000000000000000000000000000000000000000000100003104580804NELSON RODRIGUES                        RUA CARLOS JOSE BORSTENS - 50 AP.81 - AV            11702750                                                            000140
2SR. CAIXA, APOS O VENCIMENTO COBRAR 2% DE MULTA                                 NAO RECEBER APOS 30 DIAS DO VENCIMENTO.                                                                                                                                                                                                         01032200000000000000103220000000000000       0090339900006270031045032219000141
100000000000000000000009033990000627000000000000000000000000010002020007715303221700000000002            2  01077153032209032200000003391040000000001N010322000000000000000000000000000000000000000000000000000000000000000100007715360627NILTON RENNAN OLIVEIRA GOMES FILHO      RUA CARLOS JOSE BORSTENS - 50 AP.21 - AV            11702750                                                            000143
2SR. CAIXA, APOS O VENCIMENTO COBRAR 2% DE MULTA                                 NAO RECEBER APOS 30 DIAS DO VENCIMENTO.                                                                                                                                                                                                         01032200000000000000103220000000000000       0090339900006270077153032217000144
100000000000000000000009033990000627000000000000000000000000010002020007194003221800000000002            2  01071940032211032200000002410370000000001N010322000000000000000000000000000000000000000000000000000000000000000100007194010895RAUL AMANTINO KIRK DE SANCTIS           AVENIDA SANTA CATARINA - 756 AP.01 - VIL            04378000                                                            000146
2SR. CAIXA, APOS O VENCIMENTO COBRAR 2% DE MULTA                                 NAO RECEBER APOS 30 DIAS DO VENCIMENTO.                                                                                                                                                                                                         01032200000000000000103220000000000000       0090339900006270071940032218000147
100000000000000000000009033990000627000000000000000000000000010002020025738603221500000000002            2  01257386032209032200000004870290000000001N010322000000000000000000000000000000000000000000000000000000000000000100025738614810VILMAR JOSE PEREIRA                     ALAMEDA TIETE - 646 - CERQUEIRA CESAR -             01417020                                                            000149
2SR. CAIXA, APOS O VENCIMENTO COBRAR 2% DE MULTA                                 NAO RECEBER APOS 30 DIAS DO VENCIMENTO.                                                                                                                                                                                                         01032200000000000000103220000000000000       0090339900006270257386032215000150
100000000000000000000009033990000627000000000000000000000000010002020025738603222300000000002            2  01257386032209032200000004870270000000001N010322000000000000000000000000000000000000000000000000000000000000000100025738614810VILMAR JOSE PEREIRA                     ALAMEDA TIETE - 646 - CERQUEIRA CESAR -             01417020                                                            000152
2SR. CAIXA, APOS O VENCIMENTO COBRAR 2% DE MULTA                                 NAO RECEBER APOS 30 DIAS DO VENCIMENTO.                                                                                                                                                                                                         01032200000000000000103220000000000000       0090339900006270257386032223000153
100000000000000000000009033990000627000000000000000000000000010002020025738603223100000000002            2  01257386032209032200000004870280000000001N010322000000000000000000000000000000000000000000000000000000000000000100025738614810VILMAR JOSE PEREIRA                     ALAMEDA TIETE - 646 - CERQUEIRA CESAR -             01417020                                                            000155
2SR. CAIXA, APOS O VENCIMENTO COBRAR 2% DE MULTA                                 NAO RECEBER APOS 30 DIAS DO VENCIMENTO.                                                                                                                                                                                                         01032200000000000000103220000000000000       0090339900006270257386032231000156
100000000000000000000009033990000627000000000000000000000000010002020011141503221700000000002            2  01111415032211032200000002532840000000001N010322000000000000000000000000000000000000000000000000000000000000000100011141508869PAULO ROBERTO TUNES SILVA               RUA PETROBRAS - 405 CASA 07 - VILA ANTON            03474060                                                            000158
2SR. CAIXA, APOS O VENCIMENTO COBRAR 2% DE MULTA                                 NAO RECEBER APOS 30 DIAS DO VENCIMENTO.                                                                                                                                                                                                         01032200000000000000103220000000000000       0090339900006270111415032217000159
100000000000000000000009033990000627000000000000000000000000010002020012449103221200000000002            2  01124491032211032200000002552190000000001N010322000000000000000000000000000000000000000000000000000000000000000100012449104810GILBERTO DOS SANTOS JUNIOR              RUA ALMIRANTE TAMANDARE - 89 AP.143 - BA            09310350                                                            000161
2SR. CAIXA, APOS O VENCIMENTO COBRAR 2% DE MULTA                                 NAO RECEBER APOS 30 DIAS DO VENCIMENTO.                                                                                                                                                                                                         01032200000000000000103220000000000000       0090339900006270124491032212000162
100000000000000000000009033990000627000000000000000000000000010002020011261303221000000000002            2  01112613032209032200000003366790000000001N010322000000000000000000000000000000000000000000000000000000000000000100011261359844JOVANETE DOS SANTOS PASSOS              RUA FULVIO MORGANTI - 672 - JARDIM PARAI            02417170                                                            000164
2SR. CAIXA, APOS O VENCIMENTO COBRAR 2% DE MULTA                                 NAO RECEBER APOS 30 DIAS DO VENCIMENTO.                                                                                                                                                                                                         01032200000000000000103220000000000000       0090339900006270112613032210000165
9                                                                                                                                                                                                                                                                                                                                                                                                         000166