01REMESSA01COBRANCA       00000000000008017025HB SANTOS CONSTRUTORA E INCORP237BRADESCO       080523        MX0000177                                                                                                                                                                                                                                                                                     000001
100000000000000000000009033990000627000000000000000000000000010002020025035105231600000000002            2  01250351052324052300000002999370000000001N080523000000000000000000000000000000000000000000000000000000000000000100025035170802WANDERSON LUIS DE CARVALHO              RUA JOAQUIM GONCALVES ROCHA - 302 - JARD            02859030                                                            000002
2SR. CAIXA, APOS O VENCIMENTO COBRAR 2% DE MULTA                                 NAO RECEBER APOS 30 DIAS DO VENCIMENTO.                                                                                                                                                                                                         08052300000000000000805230000000000000       0090339900006270250351052316000003
100000000000000000000009033990000627000000000000000000000000010002020007294305231300000000002            2  01072943052324052300000004034140000000001N080523000000000000000000000000000000000000000000000000000000000000000100007294351805CLAUDENIR APARECIDO VACARI              RUA CARLOS JOSE BORSTENS - 50 AP.93 - AV            11702750                                                            000005
2SR. CAIXA, APOS O VENCIMENTO COBRAR 2% DE MULTA                                 NAO RECEBER APOS 30 DIAS DO VENCIMENTO.                                                                                                                                                                                                         08052300000000000000805230000000000000       0090339900006270072943052313000006
100000000000000000000009033990000627000000000000000000000000010002020005071405231400000000002            2  01050714052324052300000003958230000000001N080523000000000000000000000000000000000000000000000000000000000000000100005071481855ERIBALDO SANTANA CARVALHO               RUA HONDURAS - 477 - PARQUE DAS AMERICAS            09351070                                                            000008
2SR. CAIXA, APOS O VENCIMENTO COBRAR 2% DE MULTA                                 NAO RECEBER APOS 30 DIAS DO VENCIMENTO.                                                                                                                                                                                                         08052300000000000000805230000000000000       0090339900006270050714052314000009
100000000000000000000009033990000627000000000000000000000000010002020002841705231800000000002            2  01028417052324052300000003703270000000001N080523000000000000000000000000000000000000000000000000000000000000000100002841756416LUCIANA PINHEIRO DE ASSIS NUNES         RUA RIO ACIMA - 81 - RIACHO GRANDE - SAO            09830100                                                            000011
2SR. CAIXA, APOS O VENCIMENTO COBRAR 2% DE MULTA                                 NAO RECEBER APOS 30 DIAS DO VENCIMENTO.                                                                                                                                                                                                         08052300000000000000805230000000000000       0090339900006270028417052318000012
100000000000000000000009033990000627000000000000000000000000010002020084302005231700000000002            2  01843020052324052300000003721050000000001N080523000000000000000000000000000000000000000000000000000000000000000100084302097868FAUSTO TADEU VILOR                      RUA ANTONIO TAVARES - 466 - BAIRRO CAMBU            01542010                                                            000014
2SR. CAIXA, APOS O VENCIMENTO COBRAR 2% DE MULTA                                 NAO RECEBER APOS 30 DIAS DO VENCIMENTO.                                                                                                                                                                                                         08052300000000000000805230000000000000       0090339900006270843020052317000015
100000000000000000000009033990000627000000000000000000000000010002020000991705231P00000000002            2  01009917052324052300000003568370000000001N080523000000000000000000000000000000000000000000000000000000000000000100000991748808JAILSON BORGES DE ANDRADE               RUA IPIOBUNA - 45 - JARDIM CUMBICA - GUA            07240040                                                            000017
2SR. CAIXA, APOS O VENCIMENTO COBRAR 2% DE MULTA                                 NAO RECEBER APOS 30 DIAS DO VENCIMENTO.                                                                                                                                                                                                         08052300000000000000805230000000000000       009033990000627000991705231P000018
100000000000000000000009033990000627000000000000000000000000010002020022151605231600000000002            2  01221516052324052300000003547650000000001N080523000000000000000000000000000000000000000000000000000000000000000100022151666816SAMIR LIMA DE ARAUJO                    AVENIDA GUARAPIRANGA - 2616 AP.131 BL.14            04902005                                                            000020
2SR. CAIXA, APOS O VENCIMENTO COBRAR 2% DE MULTA                                 NAO RECEBER APOS 30 DIAS DO VENCIMENTO.                                                                                                                                                                                                         08052300000000000000805230000000000000       0090339900006270221516052316000021
100000000000000000000009033990000627000000000000000000000000010002020022313105231800000000002            2  01223131052326052300000002730160000000001N080523000000000000000000000000000000000000000000000000000000000000000100022313116824ROSA MARIA BRITO DA SILVA               RUA SERVIDAO DE SAO MARCOS - 128 CASA 1             04930300                                                            000023
2SR. CAIXA, APOS O VENCIMENTO COBRAR 2% DE MULTA                                 NAO RECEBER APOS 30 DIAS DO VENCIMENTO.                                                                                                                                                                                                         08052300000000000000805230000000000000       0090339900006270223131052318000024
100000000000000000000009033990000627000000000000000000000000010002020027538005231P00000000002            2  01275380052326052300000002739670000000001N080523000000000000000000000000000000000000000000000000000000000000000100027538087249MARA LUCIA MENEZES DA COSTA             RUA LEILA  - 183 - ITAQUERA - SAO PAULO             08240020                                                            000026
2SR. CAIXA, APOS O VENCIMENTO COBRAR 2% DE MULTA                                 NAO RECEBER APOS 30 DIAS DO VENCIMENTO.                                                                                                                                                                                                         08052300000000000000805230000000000000       009033990000627027538005231P000027
100000000000000000000009033990000627000000000000000000000000010002020031278405231600000000002            2  01312784052324052300000003427120000000001N080523000000000000000000000000000000000000000000000000000000000000000100031278411836JEFFERSON DE PIERI PIRES ZAMUNER        RUA MANOEL ARCE - 277 - PARQUE BANCARIO             03922150                                                            000029
2SR. CAIXA, APOS O VENCIMENTO COBRAR 2% DE MULTA                                 NAO RECEBER APOS 30 DIAS DO VENCIMENTO.                                                                                                                                                                                                         08052300000000000000805230000000000000       0090339900006270312784052316000030
100000000000000000000009033990000627000000000000000000000000010002020019185705231800000000002            2  01191857052326052300000002493180000000001N080523000000000000000000000000000000000000000000000000000000000000000100019185769800AGUINALDO PESSOA DE LIMA                RUA JANUARIO ZINGARO - 252 AP.303 BL.04             05794300                                                            000032
2SR. CAIXA, APOS O VENCIMENTO COBRAR 2% DE MULTA                                 NAO RECEBER APOS 30 DIAS DO VENCIMENTO.                                                                                                                                                                                                         08052300000000000000805230000000000000       0090339900006270191857052318000033
100000000000000000000009033990000627000000000000000000000000010002020033303605231900000000002            2  01333036052326052300000002685350000000001N080523000000000000000000000000000000000000000000000000000000000000000100033303645809JESSICA DA SILVA FREITAS                RUA ARILDO VALADAO - 120 - JARDIM GUAEMB            04814600                                                            000035
2SR. CAIXA, APOS O VENCIMENTO COBRAR 2% DE MULTA                                 NAO RECEBER APOS 30 DIAS DO VENCIMENTO.                                                                                                                                                                                                         08052300000000000000805230000000000000       0090339900006270333036052319000036
100000000000000000000009033990000627000000000000000000000000010002020006422605231400000000002            2  01064226052324052300000003711680000000001N080523000000000000000000000000000000000000000000000000000000000000000100006422607881GERALDO ALVES DA SILVA                  RUA CARLOS JOSE BORSTENS - 50 AP.14 - AV            11702750                                                            000038
2SR. CAIXA, APOS O VENCIMENTO COBRAR 2% DE MULTA                                 NAO RECEBER APOS 30 DIAS DO VENCIMENTO.                                                                                                                                                                                                         08052300000000000000805230000000000000       0090339900006270064226052314000039
100000000000000000000009033990000627000000000000000000000000010002020033877105231600000000002            2  01338771052326052300000002517590000000001N080523000000000000000000000000000000000000000000000000000000000000000100033877129870HELDER FERREIRA VIANA                   RUA JOSE CALIXTO DO CARMO - 286 AP.35 -             11702690                                                            000041
2SR. CAIXA, APOS O VENCIMENTO COBRAR 2% DE MULTA                                 NAO RECEBER APOS 30 DIAS DO VENCIMENTO.                                                                                                                                                                                                         08052300000000000000805230000000000000       0090339900006270338771052316000042
100000000000000000000009033990000627000000000000000000000000010002020087573005231500000000002            2  01875730052326052300000002533740000000001N080523000000000000000000000000000000000000000000000000000000000000000100087573059604VANDERLEY DE ASSIS                      RUA ROMEU ALBANI - 268 - JARDIM PARQUE R            13803810                                                            000044
2SR. CAIXA, APOS O VENCIMENTO COBRAR 2% DE MULTA                                 NAO RECEBER APOS 30 DIAS DO VENCIMENTO.                                                                                                                                                                                                         08052300000000000000805230000000000000       0090339900006270875730052315000045
100000000000000000000009033990000627000000000000000000000000010002020010825505231200000000002            2  01108255052326052300000002644090000000001N080523000000000000000000000000000000000000000000000000000000000000000100010825513847JOSE APARECIDO PEREIRA                  RUA GENERAL OSORIO - 305 - JARDIM TRINTA            11515130                                                            000047
2SR. CAIXA, APOS O VENCIMENTO COBRAR 2% DE MULTA                                 NAO RECEBER APOS 30 DIAS DO VENCIMENTO.                                                                                                                                                                                                         08052300000000000000805230000000000000       0090339900006270108255052312000048
100000000000000000000009033990000627000000000000000000000000010002020039115105231400000000002            2  01391151052326052300000003259310000000001N080523000000000000000000000000000000000000000000000000000000000000000100039115139840LAIS CRISTINA RIBEIRO ANDO              RUA JOSE CALIXTO DO CARMO - 286 AP.65 -             11702690                                                            000050
2SR. CAIXA, APOS O VENCIMENTO COBRAR 2% DE MULTA                                 NAO RECEBER APOS 30 DIAS DO VENCIMENTO.                                                                                                                                                                                                         08052300000000000000805230000000000000       0090339900006270391151052314000051
100000000000000000000009033990000627000000000000000000000000010002020000593205231200000000002            2  01005932052324052300000003995610000000001N080523000000000000000000000000000000000000000000000000000000000000000100000593293860WALTER HELIO BARBOSA FILHO              AVENIDA ANTONIO FREDERICO OZANAN - 9500             13214206                                                            000053
2SR. CAIXA, APOS O VENCIMENTO COBRAR 2% DE MULTA                                 NAO RECEBER APOS 30 DIAS DO VENCIMENTO.                                                                                                                                                                                                         08052300000000000000805230000000000000       0090339900006270005932052312000054
100000000000000000000009033990000627000000000000000000000000010002020065584105231400000000002            2  01655841052324052300000002097480000000001N080523000000000000000000000000000000000000000000000000000000000000000100065584147834JOAQUIM DA COSTA MACHADO NETO           RUA CARLOS JOSE BORSTENS - 50 AP.42 - AV            11702750                                                            000056
2SR. CAIXA, APOS O VENCIMENTO COBRAR 2% DE MULTA                                 NAO RECEBER APOS 30 DIAS DO VENCIMENTO.                                                                                                                                                                                                         08052300000000000000805230000000000000       0090339900006270655841052314000057
100000000000000000000009033990000627000000000000000000000000010002020065584105232200000000002            2  01655841052324052300000002097470000000001N080523000000000000000000000000000000000000000000000000000000000000000100065584147834JOAQUIM DA COSTA MACHADO NETO           RUA CARLOS JOSE BORSTENS - 50 AP.42 - AV            11702750                                                            000059
2SR. CAIXA, APOS O VENCIMENTO COBRAR 2% DE MULTA                                 NAO RECEBER APOS 30 DIAS DO VENCIMENTO.                                                                                                                                                                                                         08052300000000000000805230000000000000       0090339900006270655841052322000060
100000000000000000000009033990000627000000000000000000000000010002020006684605231700000000002            2  01066846052326052300000002685050000000001N080523000000000000000000000000000000000000000000000000000000000000000100006684623884LAUDINOR VIEIRA GARCIA                  RUA CANDIDO SALES - 374 - JARDIM PRESIDE            07172000                                                            000062
2SR. CAIXA, APOS O VENCIMENTO COBRAR 2% DE MULTA                                 NAO RECEBER APOS 30 DIAS DO VENCIMENTO.                                                                                                                                                                                                         08052300000000000000805230000000000000       0090339900006270066846052317000063
100000000000000000000009033990000627000000000000000000000000010002020011663505231800000000002            2  01116635052326052300000002704360000000001N080523000000000000000000000000000000000000000000000000000000000000000100011663589844MARIA SAVIO QUARELLO                    AVENIDA MENDONCA DRUMOND - 321 - JARDIM             03524030                                                            000065
2SR. CAIXA, APOS O VENCIMENTO COBRAR 2% DE MULTA                                 NAO RECEBER APOS 30 DIAS DO VENCIMENTO.                                                                                                                                                                                                         08052300000000000000805230000000000000       0090339900006270116635052318000066
100000000000000000000009033990000627000000000000000000000000010002020010083805231P00000000002            2  01100838052326052300000002612860000000001N080523000000000000000000000000000000000000000000000000000000000000000100010083824855IONE FERREIRA COUTO DA SILVA            RUA JOSE RAGEL DE MESQUITA - 60 CS.01 -             07799999                                                            000068
2SR. CAIXA, APOS O VENCIMENTO COBRAR 2% DE MULTA                                 NAO RECEBER APOS 30 DIAS DO VENCIMENTO.                                                                                                                                                                                                         08052300000000000000805230000000000000       009033990000627010083805231P000069
100000000000000000000009033990000627000000000000000000000000010002020031010705231500000000002            2  01310107052326052300000002564050000000001N080523000000000000000000000000000000000000000000000000000000000000000100031010705890ANDRE GONZALEZ RABELLO                  RUA PARAIBA - 106 AP.61 - POMPEIA - SANT            11065470                                                            000071
2SR. CAIXA, APOS O VENCIMENTO COBRAR 2% DE MULTA                                 NAO RECEBER APOS 30 DIAS DO VENCIMENTO.                                                                                                                                                                                                         08052300000000000000805230000000000000       0090339900006270310107052315000072
100000000000000000000009033990000627000000000000000000000000010002020005351005231400000000002            2  01053510052326052300000002404050000000001N080523000000000000000000000000000000000000000000000000000000000000000100005351015897VALERIA ALVES MARCOLINO HINNIGER        RUA JOSE CALIXTO DO CARMO - 286 AP.92 -             11702690                                                            000074
2SR. CAIXA, APOS O VENCIMENTO COBRAR 2% DE MULTA                                 NAO RECEBER APOS 30 DIAS DO VENCIMENTO.                                                                                                                                                                                                         08052300000000000000805230000000000000       0090339900006270053510052314000075
100000000000000000000009033990000627000000000000000000000000010002020031898705231P00000000002            2  01318987052324052300000003823150000000001N080523000000000000000000000000000000000000000000000000000000000000000100031898775800ANITA MARTINS COLOMBO                   RUA CARLOS JOSE BORSTENS - 50 AP.115 - A            11702750                                                            000077
2SR. CAIXA, APOS O VENCIMENTO COBRAR 2% DE MULTA                                 NAO RECEBER APOS 30 DIAS DO VENCIMENTO.                                                                                                                                                                                                         08052300000000000000805230000000000000       009033990000627031898705231P000078
100000000000000000000009033990000627000000000000000000000000010002020037983405231P00000000002            2  01379834052326052300000002824010000000001N080523000000000000000000000000000000000000000000000000000000000000000100037983484801JOSE ERIVALDO SOUZA DO NASCIMENTO RAMOS RUA LETICIA - 250 - JARDIM GUARUJA - SAO            05877260                                                            000080
2SR. CAIXA, APOS O VENCIMENTO COBRAR 2% DE MULTA                                 NAO RECEBER APOS 30 DIAS DO VENCIMENTO.                                                                                                                                                                                                         08052300000000000000805230000000000000       009033990000627037983405231P000081
100000000000000000000009033990000627000000000000000000000000010002020056289205231000000000002            2  01562892052326052300000002133370000000001N080523000000000000000000000000000000000000000000000000000000000000000100056289286900PEDRO RIBEIRO                           RUA CONEGO MANOEL VAZ - 48 - SANTANA - S            02019050                                                            000083
2SR. CAIXA, APOS O VENCIMENTO COBRAR 2% DE MULTA                                 NAO RECEBER APOS 30 DIAS DO VENCIMENTO.                                                                                                                                                                                                         08052300000000000000805230000000000000       0090339900006270562892052310000084
100000000000000000000009033990000627000000000000000000000000010002020034812205231000000000002            2  01348122052324052300000005060120000000001N080523000000000000000000000000000000000000000000000000000000000000000100034812226880THAIS TORQUATO MIMOSO DE JESUS          RUA ARNALDO CINTRA - 416 AP.104 TORRE 2             03088000                                                            000086
2SR. CAIXA, APOS O VENCIMENTO COBRAR 2% DE MULTA                                 NAO RECEBER APOS 30 DIAS DO VENCIMENTO.                                                                                                                                                                                                         08052300000000000000805230000000000000       0090339900006270348122052310000087
100000000000000000000009033990000627000000000000000000000000010002020012849405231700000000002            2  01128494052326052300000005044070000000001N080523000000000000000000000000000000000000000000000000000000000000000100012849428809MOISES CLAUDIO DO ROSARIO               AVENIDA DR. AUGUSTO DE TOLEDO - 510 AP.1            09541520                                                            000089
2SR. CAIXA, APOS O VENCIMENTO COBRAR 2% DE MULTA                                 NAO RECEBER APOS 30 DIAS DO VENCIMENTO.                                                                                                                                                                                                         08052300000000000000805230000000000000       0090339900006270128494052317000090
100000000000000000000009033990000627000000000000000000000000010002020014087405231P00000000002            2  01140874052326052300000002784830000000001N080523000000000000000000000000000000000000000000000000000000000000000100014087484874SERGIO SANTOS DO NASCIMENTO             RUA JOSE CALIXTO DO CARMO - 286 AP.52 -             11702690                                                            000092
2SR. CAIXA, APOS O VENCIMENTO COBRAR 2% DE MULTA                                 NAO RECEBER APOS 30 DIAS DO VENCIMENTO.                                                                                                                                                                                                         08052300000000000000805230000000000000       009033990000627014087405231P000093
100000000000000000000009033990000627000000000000000000000000010002020026834505231900000000002            2  01268345052326052300000002565890000000001N080523000000000000000000000000000000000000000000000000000000000000000100026834550895RAQUEL CARDOSO JOAO                     RUA PEDROSO XAVIER - 277 AP.23 TORRE 01             02732020                                                            000095
2SR. CAIXA, APOS O VENCIMENTO COBRAR 2% DE MULTA                                 NAO RECEBER APOS 30 DIAS DO VENCIMENTO.                                                                                                                                                                                                         08052300000000000000805230000000000000       0090339900006270268345052319000096
100000000000000000000009033990000627000000000000000000000000010002020039540005231700000000002            2  01395400052326052300000002522630000000001N080523000000000000000000000000000000000000000000000000000000000000000100039540008816LUZINETE CLARINDO SILVA                 RUA DEINOS - 275 - BAIRRO CIDADE SATELIT            08340100                                                            000098
2SR. CAIXA, APOS O VENCIMENTO COBRAR 2% DE MULTA                                 NAO RECEBER APOS 30 DIAS DO VENCIMENTO.                                                                                                                                                                                                         08052300000000000000805230000000000000       0090339900006270395400052317000099
100000000000000000000009033990000627000000000000000000000000010002020003311005231400000000002            2  01033110052326052300000002627020000000001N080523000000000000000000000000000000000000000000000000000000000000000100003311030877SEBASTIAO SARUVA NETO                   RUA HAMILTON REGIS - 559 - BAIRRO DO LIM            08051440                                                            000101
2SR. CAIXA, APOS O VENCIMENTO COBRAR 2% DE MULTA                                 NAO RECEBER APOS 30 DIAS DO VENCIMENTO.                                                                                                                                                                                                         08052300000000000000805230000000000000       0090339900006270033110052314000102
100000000000000000000009033990000627000000000000000000000000010002020090091905231000000000002            2  01900919052326052300000002511040000000001N080523000000000000000000000000000000000000000000000000000000000000000100090091990882JUECIR CARVALHO DA LUZ                  RUA JOSE CALIXTO DO CARMO - 286 AP.114 -            11702690                                                            000104
2SR. CAIXA, APOS O VENCIMENTO COBRAR 2% DE MULTA                                 NAO RECEBER APOS 30 DIAS DO VENCIMENTO.                                                                                                                                                                                                         08052300000000000000805230000000000000       0090339900006270900919052310000105
100000000000000000000009033990000627000000000000000000000000010002020037325905231200000000002            2  01373259052326052300000002054920000000001N080523000000000000000000000000000000000000000000000000000000000000000100037325923830MARIA AUGUSTA OLIVEIRA DE ANDRADE       RUA JOSE CALIXTO DO CARMO - 286 AP.124 -            11702690                                                            000107
2SR. CAIXA, APOS O VENCIMENTO COBRAR 2% DE MULTA                                 NAO RECEBER APOS 30 DIAS DO VENCIMENTO.                                                                                                                                                                                                         08052300000000000000805230000000000000       0090339900006270373259052312000108
100000000000000000000009033990000627000000000000000000000000010002020012478805231P00000000002            2  01124788052324052300000003739520000000001N080523000000000000000000000000000000000000000000000000000000000000000100012478899809VITORIA BATISTA QUEIROZ                 RUA CARVALHO DE FREITAS - 255 AP.71A - V            05728030                                                            000110
2SR. CAIXA, APOS O VENCIMENTO COBRAR 2% DE MULTA                                 NAO RECEBER APOS 30 DIAS DO VENCIMENTO.                                                                                                                                                                                                         08052300000000000000805230000000000000       009033990000627012478805231P000111
100000000000000000000009033990000627000000000000000000000000010002020013184805231000000000002            2  01131848052326052300000002482490000000001N080523000000000000000000000000000000000000000000000000000000000000000100013184856810SYDNEY HENRIQUE GAMARANO JUNIOR         RUA JOSE CALIXTO DO CARMO - 286 AP.125 -            11702690                                                            000113
2SR. CAIXA, APOS O VENCIMENTO COBRAR 2% DE MULTA                                 NAO RECEBER APOS 30 DIAS DO VENCIMENTO.                                                                                                                                                                                                         08052300000000000000805230000000000000       0090339900006270131848052310000114
100000000000000000000009033990000627000000000000000000000000010002020097989905231400000000002            2  01979899052326052300000001725180000000001N080523000000000000000000000000000000000000000000000000000000000000000100097989924820NELSON LUIS BERRIBILLE                  RUA SILVEIRA IGNACIO SOBRINHO - 965 - VI            13560294                                                            000116
2SR. CAIXA, APOS O VENCIMENTO COBRAR 2% DE MULTA                                 NAO RECEBER APOS 30 DIAS DO VENCIMENTO.                                                                                                                                                                                                         08052300000000000000805230000000000000       0090339900006270979899052314000117
100000000000000000000009033990000627000000000000000000000000010002020097989905232200000000002            2  01979899052326052300000001725170000000001N080523000000000000000000000000000000000000000000000000000000000000000100097989924820NELSON LUIS BERRIBILLE                  RUA SILVEIRA IGNACIO SOBRINHO - 965 - VI            13560294                                                            000119
2SR. CAIXA, APOS O VENCIMENTO COBRAR 2% DE MULTA                                 NAO RECEBER APOS 30 DIAS DO VENCIMENTO.                                                                                                                                                                                                         08052300000000000000805230000000000000       0090339900006270979899052322000120
100000000000000000000009033990000627000000000000000000000000010002020032341805231300000000002            2  01323418052324052300000003884310000000001N080523000000000000000000000000000000000000000000000000000000000000000100032341847803PRISCILA ALVES DE FRANCA MIRANDA        RUA CARLOS JOSE BORSTENS - 50 AP.91 - AV            11702750                                                            000122
2SR. CAIXA, APOS O VENCIMENTO COBRAR 2% DE MULTA                                 NAO RECEBER APOS 30 DIAS DO VENCIMENTO.                                                                                                                                                                                                         08052300000000000000805230000000000000       0090339900006270323418052313000123
100000000000000000000009033990000627000000000000000000000000010002020016050605231900000000002            2  01160506052324052300000003605390000000001N080523000000000000000000000000000000000000000000000000000000000000000100016050684898ANDRE RODRIGUES DE OLIVEIRA             RUA CORACAO PAULISTA - 14 - FAZENDA ITAI            08132430                                                            000125
2SR. CAIXA, APOS O VENCIMENTO COBRAR 2% DE MULTA                                 NAO RECEBER APOS 30 DIAS DO VENCIMENTO.                                                                                                                                                                                                         08052300000000000000805230000000000000       0090339900006270160506052319000126
100000000000000000000009033990000627000000000000000000000000010002020021464905231200000000002            2  01214649052324052300000005682170000000001N080523000000000000000000000000000000000000000000000000000000000000000100021464965846ANDREA APARECIDA DE OLIVEIRA PECCI      RUA ANTONIO BOZ MARFIL - 103 - PARQUE DO            05396020                                                            000128
2SR. CAIXA, APOS O VENCIMENTO COBRAR 2% DE MULTA                                 NAO RECEBER APOS 30 DIAS DO VENCIMENTO.                                                                                                                                                                                                         08052300000000000000805230000000000000       0090339900006270214649052312000129
100000000000000000000009033990000627000000000000000000000000010002020030348105231400000000002            2  01303481052324052300000003442830000000001N080523000000000000000000000000000000000000000000000000000000000000000100030348198892KELLY CRISTINA CORDEIRO                 RUA CARLOS JOSE BORSTENS - 50 AP.25 - AV            11702750                                                            000131
2SR. CAIXA, APOS O VENCIMENTO COBRAR 2% DE MULTA                                 NAO RECEBER APOS 30 DIAS DO VENCIMENTO.                                                                                                                                                                                                         08052300000000000000805230000000000000       0090339900006270303481052314000132
100000000000000000000009033990000627000000000000000000000000010002020003597505231200000000002            2  01035975052326052300000002320320000000001N080523000000000000000000000000000000000000000000000000000000000000000100003597509827ANISIO FAUSTINO DE OLIVEIRA             RUA DOMINGOS DE MAMBRO - 5 CASA 20 - CIT            06040290                                                            000134
2SR. CAIXA, APOS O VENCIMENTO COBRAR 2% DE MULTA                                 NAO RECEBER APOS 30 DIAS DO VENCIMENTO.                                                                                                                                                                                                         08052300000000000000805230000000000000       0090339900006270035975052312000135
9                                                                                                                                                                                                                                                                                                                                                                                                         000136