01REMESSA01COBRANCA       00000000000008017025HB SANTOS CONSTRUTORA E INCORP237BRADESCO       100123        MX0000169                                                                                                                                                                                                                                                                                     000001
100000000000000000000009033990000627000000000000000000000000010002020025035101231400000000002            2  01250351012324012300000002893540000000001N090123000000000000000000000000000000000000000000000000000000000000000100025035170802WANDERSON LUIS DE CARVALHO              RUA JOAQUIM GONCALVES ROCHA - 302 - JARD            02859030                                                            000002
2SR. CAIXA, APOS O VENCIMENTO COBRAR 2% DE MULTA                                 NAO RECEBER APOS 30 DIAS DO VENCIMENTO.                                                                                                                                                                                                         10012300000000000001001230000000000000       0090339900006270250351012314000003
100000000000000000000009033990000627000000000000000000000000010002020007294301231100000000002            2  01072943012324012300000003891810000000001N090123000000000000000000000000000000000000000000000000000000000000000100007294351805CLAUDENIR APARECIDO VACARI              RUA CARLOS JOSE BORSTENS - 50 AP.93 - AV            11702750                                                            000005
2SR. CAIXA, APOS O VENCIMENTO COBRAR 2% DE MULTA                                 NAO RECEBER APOS 30 DIAS DO VENCIMENTO.                                                                                                                                                                                                         10012300000000000001001230000000000000       0090339900006270072943012311000006
100000000000000000000009033990000627000000000000000000000000010002020005071401231200000000002            2  01050714012324012300000003818580000000001N090123000000000000000000000000000000000000000000000000000000000000000100005071481855ERIBALDO SANTANA CARVALHO               RUA HONDURAS - 477 - PARQUE DAS AMERICAS            09351070                                                            000008
2SR. CAIXA, APOS O VENCIMENTO COBRAR 2% DE MULTA                                 NAO RECEBER APOS 30 DIAS DO VENCIMENTO.                                                                                                                                                                                                         10012300000000000001001230000000000000       0090339900006270050714012312000009
100000000000000000000009033990000627000000000000000000000000010002020002841701231600000000002            2  01028417012324012300000003572620000000001N090123000000000000000000000000000000000000000000000000000000000000000100002841756416LUCIANA PINHEIRO DE ASSIS NUNES         RUA RIO ACIMA - 81 - RIACHO GRANDE - SAO            09830100                                                            000011
2SR. CAIXA, APOS O VENCIMENTO COBRAR 2% DE MULTA                                 NAO RECEBER APOS 30 DIAS DO VENCIMENTO.                                                                                                                                                                                                         10012300000000000001001230000000000000       0090339900006270028417012316000012
100000000000000000000009033990000627000000000000000000000000010002020084302001231500000000002            2  01843020012324012300000003589770000000001N090123000000000000000000000000000000000000000000000000000000000000000100084302097868FAUSTO TADEU VILOR                      RUA ANTONIO TAVARES - 466 - BAIRRO CAMBU            01542010                                                            000014
2SR. CAIXA, APOS O VENCIMENTO COBRAR 2% DE MULTA                                 NAO RECEBER APOS 30 DIAS DO VENCIMENTO.                                                                                                                                                                                                         10012300000000000001001230000000000000       0090339900006270843020012315000015
100000000000000000000009033990000627000000000000000000000000010002020028804201231500000000002            2  01288042012324012300000003526980000000001N090123000000000000000000000000000000000000000000000000000000000000000100028804202882GILBERTO FABIANO CABRAL DE CAMARGO      RUA CARLOS JOSE BORSTENS - 50 AP.44 - AV            11702750                                                            000017
2SR. CAIXA, APOS O VENCIMENTO COBRAR 2% DE MULTA                                 NAO RECEBER APOS 30 DIAS DO VENCIMENTO.                                                                                                                                                                                                         10012300000000000001001230000000000000       0090339900006270288042012315000018
100000000000000000000009033990000627000000000000000000000000010002020000991701231800000000002            2  01009917012324012300000003442480000000001N090123000000000000000000000000000000000000000000000000000000000000000100000991748808JAILSON BORGES DE ANDRADE               RUA IPIOBUNA - 45 - JARDIM CUMBICA - GUA            07240040                                                            000020
2SR. CAIXA, APOS O VENCIMENTO COBRAR 2% DE MULTA                                 NAO RECEBER APOS 30 DIAS DO VENCIMENTO.                                                                                                                                                                                                         10012300000000000001001230000000000000       0090339900006270009917012318000021
100000000000000000000009033990000627000000000000000000000000010002020022151601231400000000002            2  01221516012324012300000003422490000000001N090123000000000000000000000000000000000000000000000000000000000000000100022151666816SAMIR LIMA DE ARAUJO                    AVENIDA GUARAPIRANGA - 2616 AP.131 BL.14            04902005                                                            000023
2SR. CAIXA, APOS O VENCIMENTO COBRAR 2% DE MULTA                                 NAO RECEBER APOS 30 DIAS DO VENCIMENTO.                                                                                                                                                                                                         10012300000000000001001230000000000000       0090339900006270221516012314000024
100000000000000000000009033990000627000000000000000000000000010002020022313101231600000000002            2  01223131012326012300000009767270000000001N090123000000000000000000000000000000000000000000000000000000000000000100022313116824ROSA MARIA BRITO DA SILVA               RUA SERVIDAO DE SAO MARCOS - 128 CASA 1             04930300                                                            000026
2SR. CAIXA, APOS O VENCIMENTO COBRAR 2% DE MULTA                                 NAO RECEBER APOS 30 DIAS DO VENCIMENTO.                                                                                                                                                                                                         10012300000000000001001230000000000000       0090339900006270223131012316000027
100000000000000000000009033990000627000000000000000000000000010002020027538001231800000000002            2  01275380012326012300000002642870000000001N090123000000000000000000000000000000000000000000000000000000000000000100027538087249MARA LUCIA MENEZES DA COSTA             RUA LEILA  - 183 - ITAQUERA - SAO PAULO             08240020                                                            000029
2SR. CAIXA, APOS O VENCIMENTO COBRAR 2% DE MULTA                                 NAO RECEBER APOS 30 DIAS DO VENCIMENTO.                                                                                                                                                                                                         10012300000000000001001230000000000000       0090339900006270275380012318000030
100000000000000000000009033990000627000000000000000000000000010002020031278401231400000000002            2  01312784012324012300000003306220000000001N090123000000000000000000000000000000000000000000000000000000000000000100031278411836JEFFERSON DE PIERI PIRES ZAMUNER        RUA MANOEL ARCE - 277 - PARQUE BANCARIO             03922150                                                            000032
2SR. CAIXA, APOS O VENCIMENTO COBRAR 2% DE MULTA                                 NAO RECEBER APOS 30 DIAS DO VENCIMENTO.                                                                                                                                                                                                         10012300000000000001001230000000000000       0090339900006270312784012314000033
100000000000000000000009033990000627000000000000000000000000010002020019185701231600000000002            2  01191857012326012300000002405080000000001N090123000000000000000000000000000000000000000000000000000000000000000100019185769800AGUINALDO PESSOA DE LIMA                RUA JANUARIO ZINGARO - 252 AP.303 BL.04             05794300                                                            000035
2SR. CAIXA, APOS O VENCIMENTO COBRAR 2% DE MULTA                                 NAO RECEBER APOS 30 DIAS DO VENCIMENTO.                                                                                                                                                                                                         10012300000000000001001230000000000000       0090339900006270191857012316000036
100000000000000000000009033990000627000000000000000000000000010002020033303601231700000000002            2  01333036012326012300000002590470000000001N090123000000000000000000000000000000000000000000000000000000000000000100033303645809JESSICA DA SILVA FREITAS                RUA ARILDO VALADAO - 120 - JARDIM GUAEMB            04814600                                                            000038
2SR. CAIXA, APOS O VENCIMENTO COBRAR 2% DE MULTA                                 NAO RECEBER APOS 30 DIAS DO VENCIMENTO.                                                                                                                                                                                                         10012300000000000001001230000000000000       0090339900006270333036012317000039
100000000000000000000009033990000627000000000000000000000000010002020006422601231200000000002            2  01064226012324012300000003580720000000001N090123000000000000000000000000000000000000000000000000000000000000000100006422607881GERALDO ALVES DA SILVA                  RUA CARLOS JOSE BORSTENS - 50 AP.14 - AV            11702750                                                            000041
2SR. CAIXA, APOS O VENCIMENTO COBRAR 2% DE MULTA                                 NAO RECEBER APOS 30 DIAS DO VENCIMENTO.                                                                                                                                                                                                         10012300000000000001001230000000000000       0090339900006270064226012312000042
100000000000000000000009033990000627000000000000000000000000010002020033877101231400000000002            2  01338771012326012300000002428640000000001N090123000000000000000000000000000000000000000000000000000000000000000100033877129870HELDER FERREIRA VIANA                   RUA JOSE CALIXTO DO CARMO - 286 AP.35 -             11702690                                                            000044
2SR. CAIXA, APOS O VENCIMENTO COBRAR 2% DE MULTA                                 NAO RECEBER APOS 30 DIAS DO VENCIMENTO.                                                                                                                                                                                                         10012300000000000001001230000000000000       0090339900006270338771012314000045
100000000000000000000009033990000627000000000000000000000000010002020087573001231300000000002            2  01875730012326012300000002444220000000001N090123000000000000000000000000000000000000000000000000000000000000000100087573059604VANDERLEY DE ASSIS                      RUA ROMEU ALBANI - 268 - JARDIM PARQUE R            13803810                                                            000047
2SR. CAIXA, APOS O VENCIMENTO COBRAR 2% DE MULTA                                 NAO RECEBER APOS 30 DIAS DO VENCIMENTO.                                                                                                                                                                                                         10012300000000000001001230000000000000       0090339900006270875730012313000048
100000000000000000000009033990000627000000000000000000000000010002020010825501231000000000002            2  01108255012326012300000002550660000000001N090123000000000000000000000000000000000000000000000000000000000000000100010825513847JOSE APARECIDO PEREIRA                  RUA GENERAL OSORIO - 305 - JARDIM TRINTA            11515130                                                            000050
2SR. CAIXA, APOS O VENCIMENTO COBRAR 2% DE MULTA                                 NAO RECEBER APOS 30 DIAS DO VENCIMENTO.                                                                                                                                                                                                         10012300000000000001001230000000000000       0090339900006270108255012310000051
100000000000000000000009033990000627000000000000000000000000010002020039115101231200000000002            2  01391151012326012300000003144140000000001N090123000000000000000000000000000000000000000000000000000000000000000100039115139840LAIS CRISTINA RIBEIRO ANDO              RUA JOSE CALIXTO DO CARMO - 286 AP.65 -             11702690                                                            000053
2SR. CAIXA, APOS O VENCIMENTO COBRAR 2% DE MULTA                                 NAO RECEBER APOS 30 DIAS DO VENCIMENTO.                                                                                                                                                                                                         10012300000000000001001230000000000000       0090339900006270391151012312000054
100000000000000000000009033990000627000000000000000000000000010002020029617501231000000000002            2  01296175012324012300000003514570000000001N090123000000000000000000000000000000000000000000000000000000000000000100029617510553MARILENE SOUZA DE OLIVEIRA              RUA DAS MONCOES - 460 AP.95 - BAIRRO JAR            09090521                                                            000056
2SR. CAIXA, APOS O VENCIMENTO COBRAR 2% DE MULTA                                 NAO RECEBER APOS 30 DIAS DO VENCIMENTO.                                                                                                                                                                                                         10012300000000000001001230000000000000       0090339900006270296175012310000057
100000000000000000000009033990000627000000000000000000000000010002020000593201231000000000002            2  01005932012324012300000003854640000000001N090123000000000000000000000000000000000000000000000000000000000000000100000593293860WALTER HELIO BARBOSA FILHO              AVENIDA ANTONIO FREDERICO OZANAN - 9500             13214206                                                            000059
2SR. CAIXA, APOS O VENCIMENTO COBRAR 2% DE MULTA                                 NAO RECEBER APOS 30 DIAS DO VENCIMENTO.                                                                                                                                                                                                         10012300000000000001001230000000000000       0090339900006270005932012310000060
100000000000000000000009033990000627000000000000000000000000010002020065584101231200000000002            2  01655841012324012300000002023480000000001N090123000000000000000000000000000000000000000000000000000000000000000100065584147834JOAQUIM DA COSTA MACHADO NETO           RUA CARLOS JOSE BORSTENS - 50 AP.42 - AV            11702750                                                            000062
2SR. CAIXA, APOS O VENCIMENTO COBRAR 2% DE MULTA                                 NAO RECEBER APOS 30 DIAS DO VENCIMENTO.                                                                                                                                                                                                         10012300000000000001001230000000000000       0090339900006270655841012312000063
100000000000000000000009033990000627000000000000000000000000010002020065584101232000000000002            2  01655841012324012300000002023470000000001N090123000000000000000000000000000000000000000000000000000000000000000100065584147834JOAQUIM DA COSTA MACHADO NETO           RUA CARLOS JOSE BORSTENS - 50 AP.42 - AV            11702750                                                            000065
2SR. CAIXA, APOS O VENCIMENTO COBRAR 2% DE MULTA                                 NAO RECEBER APOS 30 DIAS DO VENCIMENTO.                                                                                                                                                                                                         10012300000000000001001230000000000000       0090339900006270655841012320000066
100000000000000000000009033990000627000000000000000000000000010002020006684601231500000000002            2  01066846012326012300000002590180000000001N090123000000000000000000000000000000000000000000000000000000000000000100006684623884LAUDINOR VIEIRA GARCIA                  RUA CANDIDO SALES - 374 - JARDIM PRESIDE            07172000                                                            000068
2SR. CAIXA, APOS O VENCIMENTO COBRAR 2% DE MULTA                                 NAO RECEBER APOS 30 DIAS DO VENCIMENTO.                                                                                                                                                                                                         10012300000000000001001230000000000000       0090339900006270066846012315000069
100000000000000000000009033990000627000000000000000000000000010002020011663501231600000000002            2  01116635012326012300000002608800000000001N090123000000000000000000000000000000000000000000000000000000000000000100011663589844MARIA SAVIO QUARELLO                    AVENIDA MENDONCA DRUMOND - 321 - JARDIM             03524030                                                            000071
2SR. CAIXA, APOS O VENCIMENTO COBRAR 2% DE MULTA                                 NAO RECEBER APOS 30 DIAS DO VENCIMENTO.                                                                                                                                                                                                         10012300000000000001001230000000000000       0090339900006270116635012316000072
100000000000000000000009033990000627000000000000000000000000010002020010083801231800000000002            2  01100838012326012300000002520530000000001N090123000000000000000000000000000000000000000000000000000000000000000100010083824855IONE FERREIRA COUTO DA SILVA            RUA JOSE RAGEL DE MESQUITA - 60 CS.01 -             07799999                                                            000074
2SR. CAIXA, APOS O VENCIMENTO COBRAR 2% DE MULTA                                 NAO RECEBER APOS 30 DIAS DO VENCIMENTO.                                                                                                                                                                                                         10012300000000000001001230000000000000       0090339900006270100838012318000075
100000000000000000000009033990000627000000000000000000000000010002020031010701231300000000002            2  01310107012326012300000002473450000000001N090123000000000000000000000000000000000000000000000000000000000000000100031010705890ANDRE GONZALEZ RABELLO                  RUA PARAIBA - 106 AP.61 - POMPEIA - SANT            11065470                                                            000077
2SR. CAIXA, APOS O VENCIMENTO COBRAR 2% DE MULTA                                 NAO RECEBER APOS 30 DIAS DO VENCIMENTO.                                                                                                                                                                                                         10012300000000000001001230000000000000       0090339900006270310107012313000078
100000000000000000000009033990000627000000000000000000000000010002020005351001231200000000002            2  01053510012326012300000002319110000000001N090123000000000000000000000000000000000000000000000000000000000000000100005351015897VALERIA ALVES MARCOLINO HINNIGER        RUA JOSE CALIXTO DO CARMO - 286 AP.92 -             11702690                                                            000080
2SR. CAIXA, APOS O VENCIMENTO COBRAR 2% DE MULTA                                 NAO RECEBER APOS 30 DIAS DO VENCIMENTO.                                                                                                                                                                                                         10012300000000000001001230000000000000       0090339900006270053510012312000081
100000000000000000000009033990000627000000000000000000000000010002020031898701231800000000002            2  01318987012324012300000003688270000000001N090123000000000000000000000000000000000000000000000000000000000000000100031898775800ANITA MARTINS COLOMBO                   RUA CARLOS JOSE BORSTENS - 50 AP.115 - A            11702750                                                            000083
2SR. CAIXA, APOS O VENCIMENTO COBRAR 2% DE MULTA                                 NAO RECEBER APOS 30 DIAS DO VENCIMENTO.                                                                                                                                                                                                         10012300000000000001001230000000000000       0090339900006270318987012318000084
100000000000000000000009033990000627000000000000000000000000010002020037983401231800000000002            2  01379834012326012300000002724230000000001N090123000000000000000000000000000000000000000000000000000000000000000100037983484801JOSE ERIVALDO SOUZA DO NASCIMENTO RAMOS RUA LETICIA - 250 - JARDIM GUARUJA - SAO            05877260                                                            000086
2SR. CAIXA, APOS O VENCIMENTO COBRAR 2% DE MULTA                                 NAO RECEBER APOS 30 DIAS DO VENCIMENTO.                                                                                                                                                                                                         10012300000000000001001230000000000000       0090339900006270379834012318000087
100000000000000000000009033990000627000000000000000000000000010002020056289201231900000000002            2  01562892012326012300000002057990000000001N090123000000000000000000000000000000000000000000000000000000000000000100056289286900PEDRO RIBEIRO                           RUA CONEGO MANOEL VAZ - 48 - SANTANA - S            02019050                                                            000089
2SR. CAIXA, APOS O VENCIMENTO COBRAR 2% DE MULTA                                 NAO RECEBER APOS 30 DIAS DO VENCIMENTO.                                                                                                                                                                                                         10012300000000000001001230000000000000       0090339900006270562892012319000090
100000000000000000000009033990000627000000000000000000000000010002020034735301231500000000002            2  01347353012326012300000002824500000000001N090123000000000000000000000000000000000000000000000000000000000000000100034735328866DIEGO FELIPE MOLINA DA SILVA E SOUSA    RUA EMILIA PAULISTA - 135 - VILA TIRADEN            05364020                                                            000092
2SR. CAIXA, APOS O VENCIMENTO COBRAR 2% DE MULTA                                 NAO RECEBER APOS 30 DIAS DO VENCIMENTO.                                                                                                                                                                                                         10012300000000000001001230000000000000       0090339900006270347353012315000093
100000000000000000000009033990000627000000000000000000000000010002020034812201231900000000002            2  01348122012324012300000004881600000000001N090123000000000000000000000000000000000000000000000000000000000000000100034812226880THAIS TORQUATO MIMOSO DE JESUS          RUA ARNALDO CINTRA - 416 AP.104 TORRE 2             03088000                                                            000095
2SR. CAIXA, APOS O VENCIMENTO COBRAR 2% DE MULTA                                 NAO RECEBER APOS 30 DIAS DO VENCIMENTO.                                                                                                                                                                                                         10012300000000000001001230000000000000       0090339900006270348122012319000096
100000000000000000000009033990000627000000000000000000000000010002020012849401231500000000002            2  01128494012326012300000004865850000000001N090123000000000000000000000000000000000000000000000000000000000000000100012849428809MOISES CLAUDIO DO ROSARIO               AVENIDA DR. AUGUSTO DE TOLEDO - 510 AP.1            09541520                                                            000098
2SR. CAIXA, APOS O VENCIMENTO COBRAR 2% DE MULTA                                 NAO RECEBER APOS 30 DIAS DO VENCIMENTO.                                                                                                                                                                                                         10012300000000000001001230000000000000       0090339900006270128494012315000099
100000000000000000000009033990000627000000000000000000000000010002020003658601231P00000000002            2  01036586012326012300000002010170000000001N090123000000000000000000000000000000000000000000000000000000000000000100003658668814MARINEZ VALENTIN                        RUA JOSE CALIXTO DO CARMO - 286 AP.95 -             11702690                                                            000101
2SR. CAIXA, APOS O VENCIMENTO COBRAR 2% DE MULTA                                 NAO RECEBER APOS 30 DIAS DO VENCIMENTO.                                                                                                                                                                                                         10012300000000000001001230000000000000       009033990000627003658601231P000102
100000000000000000000009033990000627000000000000000000000000010002020003658601232800000000002            2  01036586012326012300000002010160000000001N090123000000000000000000000000000000000000000000000000000000000000000100003658668814MARINEZ VALENTIN                        RUA JOSE CALIXTO DO CARMO - 286 AP.95 -             11702690                                                            000104
2SR. CAIXA, APOS O VENCIMENTO COBRAR 2% DE MULTA                                 NAO RECEBER APOS 30 DIAS DO VENCIMENTO.                                                                                                                                                                                                         10012300000000000001001230000000000000       0090339900006270036586012328000105
100000000000000000000009033990000627000000000000000000000000010002020014087401231800000000002            2  01140874012326012300000002686440000000001N090123000000000000000000000000000000000000000000000000000000000000000100014087484874SERGIO SANTOS DO NASCIMENTO             RUA JOSE CALIXTO DO CARMO - 286 AP.52 -             11702690                                                            000107
2SR. CAIXA, APOS O VENCIMENTO COBRAR 2% DE MULTA                                 NAO RECEBER APOS 30 DIAS DO VENCIMENTO.                                                                                                                                                                                                         10012300000000000001001230000000000000       0090339900006270140874012318000108
100000000000000000000009033990000627000000000000000000000000010002020026834501231700000000002            2  01268345012326012300000002475240000000001N090123000000000000000000000000000000000000000000000000000000000000000100026834550895RAQUEL CARDOSO JOAO                     RUA PEDROSO XAVIER - 277 AP.23 TORRE 01             02732020                                                            000110
2SR. CAIXA, APOS O VENCIMENTO COBRAR 2% DE MULTA                                 NAO RECEBER APOS 30 DIAS DO VENCIMENTO.                                                                                                                                                                                                         10012300000000000001001230000000000000       0090339900006270268345012317000111
100000000000000000000009033990000627000000000000000000000000010002020039540001231500000000002            2  01395400012326012300000002433490000000001N090123000000000000000000000000000000000000000000000000000000000000000100039540008816LUZINETE CLARINDO SILVA                 RUA DEINOS - 275 - BAIRRO CIDADE SATELIT            08340100                                                            000113
2SR. CAIXA, APOS O VENCIMENTO COBRAR 2% DE MULTA                                 NAO RECEBER APOS 30 DIAS DO VENCIMENTO.                                                                                                                                                                                                         10012300000000000001001230000000000000       0090339900006270395400012315000114
100000000000000000000009033990000627000000000000000000000000010002020003311001231200000000002            2  01033110012326012300000002534190000000001N090123000000000000000000000000000000000000000000000000000000000000000100003311030877SEBASTIAO SARUVA NETO                   RUA HAMILTON REGIS - 559 - BAIRRO DO LIM            08051440                                                            000116
2SR. CAIXA, APOS O VENCIMENTO COBRAR 2% DE MULTA                                 NAO RECEBER APOS 30 DIAS DO VENCIMENTO.                                                                                                                                                                                                         10012300000000000001001230000000000000       0090339900006270033110012312000117
100000000000000000000009033990000627000000000000000000000000010002020090091901231900000000002            2  01900919012326012300000002422310000000001N090123000000000000000000000000000000000000000000000000000000000000000100090091990882JUECIR CARVALHO DA LUZ                  RUA JOSE CALIXTO DO CARMO - 286 AP.114 -            11702690                                                            000119
2SR. CAIXA, APOS O VENCIMENTO COBRAR 2% DE MULTA                                 NAO RECEBER APOS 30 DIAS DO VENCIMENTO.                                                                                                                                                                                                         10012300000000000001001230000000000000       0090339900006270900919012319000120
100000000000000000000009033990000627000000000000000000000000010002020037325901231000000000002            2  01373259012326012300000001982320000000001N090123000000000000000000000000000000000000000000000000000000000000000100037325923830MARIA AUGUSTA OLIVEIRA DE ANDRADE       RUA JOSE CALIXTO DO CARMO - 286 AP.124 -            11702690                                                            000122
2SR. CAIXA, APOS O VENCIMENTO COBRAR 2% DE MULTA                                 NAO RECEBER APOS 30 DIAS DO VENCIMENTO.                                                                                                                                                                                                         10012300000000000001001230000000000000       0090339900006270373259012310000123
100000000000000000000009033990000627000000000000000000000000010002020012478801231800000000002            2  01124788012324012300000003607590000000001N090123000000000000000000000000000000000000000000000000000000000000000100012478899809VITORIA BATISTA QUEIROZ                 RUA CARVALHO DE FREITAS - 255 AP.71A - V            05728030                                                            000125
2SR. CAIXA, APOS O VENCIMENTO COBRAR 2% DE MULTA                                 NAO RECEBER APOS 30 DIAS DO VENCIMENTO.                                                                                                                                                                                                         10012300000000000001001230000000000000       0090339900006270124788012318000126
100000000000000000000009033990000627000000000000000000000000010002020013184801231900000000002            2  01131848012326012300000002394770000000001N090123000000000000000000000000000000000000000000000000000000000000000100013184856810SYDNEY HENRIQUE GAMARANO JUNIOR         RUA JOSE CALIXTO DO CARMO - 286 AP.125 -            11702690                                                            000128
2SR. CAIXA, APOS O VENCIMENTO COBRAR 2% DE MULTA                                 NAO RECEBER APOS 30 DIAS DO VENCIMENTO.                                                                                                                                                                                                         10012300000000000001001230000000000000       0090339900006270131848012319000129
100000000000000000000009033990000627000000000000000000000000010002020097989901231200000000002            2  01979899012326012300000001664220000000001N090123000000000000000000000000000000000000000000000000000000000000000100097989924820NELSON LUIS BERRIBILLE                  RUA SILVEIRA IGNACIO SOBRINHO - 965 - VI            13560294                                                            000131
2SR. CAIXA, APOS O VENCIMENTO COBRAR 2% DE MULTA                                 NAO RECEBER APOS 30 DIAS DO VENCIMENTO.                                                                                                                                                                                                         10012300000000000001001230000000000000       0090339900006270979899012312000132
100000000000000000000009033990000627000000000000000000000000010002020097989901232000000000002            2  01979899012326012300000001664210000000001N090123000000000000000000000000000000000000000000000000000000000000000100097989924820NELSON LUIS BERRIBILLE                  RUA SILVEIRA IGNACIO SOBRINHO - 965 - VI            13560294                                                            000134
2SR. CAIXA, APOS O VENCIMENTO COBRAR 2% DE MULTA                                 NAO RECEBER APOS 30 DIAS DO VENCIMENTO.                                                                                                                                                                                                         10012300000000000001001230000000000000       0090339900006270979899012320000135
100000000000000000000009033990000627000000000000000000000000010002020032341801231100000000002            2  01323418012324012300000003747270000000001N090123000000000000000000000000000000000000000000000000000000000000000100032341847803PRISCILA ALVES DE FRANCA MIRANDA        RUA CARLOS JOSE BORSTENS - 50 AP.91 - AV            11702750                                                            000137
2SR. CAIXA, APOS O VENCIMENTO COBRAR 2% DE MULTA                                 NAO RECEBER APOS 30 DIAS DO VENCIMENTO.                                                                                                                                                                                                         10012300000000000001001230000000000000       0090339900006270323418012311000138
100000000000000000000009033990000627000000000000000000000000010002020016050601231700000000002            2  01160506012324012300000003478180000000001N090123000000000000000000000000000000000000000000000000000000000000000100016050684898ANDRE RODRIGUES DE OLIVEIRA             RUA CORACAO PAULISTA - 14 - FAZENDA ITAI            08132430                                                            000140
2SR. CAIXA, APOS O VENCIMENTO COBRAR 2% DE MULTA                                 NAO RECEBER APOS 30 DIAS DO VENCIMENTO.                                                                                                                                                                                                         10012300000000000001001230000000000000       0090339900006270160506012317000141
100000000000000000000009033990000627000000000000000000000000010002020021464901231000000000002            2  01214649012324012300000005481700000000001N090123000000000000000000000000000000000000000000000000000000000000000100021464965846ANDREA APARECIDA DE OLIVEIRA PECCI      RUA ANTONIO BOZ MARFIL - 103 - PARQUE DO            05396020                                                            000143
2SR. CAIXA, APOS O VENCIMENTO COBRAR 2% DE MULTA                                 NAO RECEBER APOS 30 DIAS DO VENCIMENTO.                                                                                                                                                                                                         10012300000000000001001230000000000000       0090339900006270214649012310000144
100000000000000000000009033990000627000000000000000000000000010002020030348101231200000000002            2  01303481012324012300000003321360000000001N090123000000000000000000000000000000000000000000000000000000000000000100030348198892KELLY CRISTINA CORDEIRO                 RUA CARLOS JOSE BORSTENS - 50 AP.25 - AV            11702750                                                            000146
2SR. CAIXA, APOS O VENCIMENTO COBRAR 2% DE MULTA                                 NAO RECEBER APOS 30 DIAS DO VENCIMENTO.                                                                                                                                                                                                         10012300000000000001001230000000000000       0090339900006270303481012312000147
100000000000000000000009033990000627000000000000000000000000010002020003597501231000000000002            2  01035975012326012300000002238330000000001N090123000000000000000000000000000000000000000000000000000000000000000100003597509827ANISIO FAUSTINO DE OLIVEIRA             RUA DOMINGOS DE MAMBRO - 5 CASA 20 - CIT            06040290                                                            000149
2SR. CAIXA, APOS O VENCIMENTO COBRAR 2% DE MULTA                                 NAO RECEBER APOS 30 DIAS DO VENCIMENTO.                                                                                                                                                                                                         10012300000000000001001230000000000000       0090339900006270035975012310000150
9                                                                                                                                                                                                                                                                                                                                                                                                         000151