01REMESSA01COBRANCA       00000000000005331186HB SANTOS CONSTRUTORA E INCORP237BRADESCO       010224        MX0000090                                                                                                                                                                                                                                                                                     000001
100000000000000000000009033990000995400000000000000000000000010002020026858602241000000000002            2  01268586022408022400000003330870000000001N010224000000000000000000000000000000000000000000000000000000000000000100026858625879GLAUCE FERREIRA DE OLIVEIRA FALSI       RUA LOURENCO ANTONIO BRAGANCA - 116 - JA            04403160                                                            000002
2SR. CAIXA, APOS O VENCIMENTO COBRAR 2% DE MULTA                                 NAO RECEBER APOS 30 DIAS DO VENCIMENTO.                                                                                                                                                                                                         01022400000000000000102240000000000000       0090339900009954268586022410000003
100000000000000000000009033990000995400000000000000000000000010002020029425002241300000000002            2  01294250022408022400000003167650000000001N010224000000000000000000000000000000000000000000000000000000000000000100029425027897FABIA DOS SANTOS DE ANDRADE             AVENIDA ALCIDES CANDIDO DOS SANTOS - 248            11705480                                                            000005
2SR. CAIXA, APOS O VENCIMENTO COBRAR 2% DE MULTA                                 NAO RECEBER APOS 30 DIAS DO VENCIMENTO.                                                                                                                                                                                                         01022400000000000000102240000000000000       0090339900009954294250022413000006
100000000000000000000009033990000995400000000000000000000000010002020078382702241900000000002            2  01783827022408022400000003201100000000001N010224000000000000000000000000000000000000000000000000000000000000000100078382700497JARMELINA BARBOSA DA SILVA              RUA OSCAR CINTRA GORDINHO - 211 AP.51 -             01512010                                                            000008
2SR. CAIXA, APOS O VENCIMENTO COBRAR 2% DE MULTA                                 NAO RECEBER APOS 30 DIAS DO VENCIMENTO.                                                                                                                                                                                                         01022400000000000000102240000000000000       0090339900009954783827022419000009
100000000000000000000009033990000995400000000000000000000000010002020007535302241800000000002            2  01075353022408022400000003139050000000001N010224000000000000000000000000000000000000000000000000000000000000000100007535375839AINAILDE PEREIRA DE CASTRO OLIVETTO     TRAVESSA DORALINA ELIETE ADAO DA SILVA -            08021026                                                            000011
2SR. CAIXA, APOS O VENCIMENTO COBRAR 2% DE MULTA                                 NAO RECEBER APOS 30 DIAS DO VENCIMENTO.                                                                                                                                                                                                         01022400000000000000102240000000000000       0090339900009954075353022418000012
100000000000000000000009033990000995400000000000000000000000010002020017229702241300000000002            2  01172297022408022400000003325160000000001N010224000000000000000000000000000000000000000000000000000000000000000100017229751802BERENICE VIEIRA KERSTING                RUA ATIBAIA - 17 AP.417 - BAIRRO IMPERAD            11707380                                                            000014
2SR. CAIXA, APOS O VENCIMENTO COBRAR 2% DE MULTA                                 NAO RECEBER APOS 30 DIAS DO VENCIMENTO.                                                                                                                                                                                                         01022400000000000000102240000000000000       0090339900009954172297022413000015
100000000000000000000009033990000995400000000000000000000000010002020028974202241500000000002            2  01289742022408022400000003105590000000001N010224000000000000000000000000000000000000000000000000000000000000000100028974233827MARISTELA FAVANI DE OLIVEIRA            RUA GIUSEPPE CARNEVALLI - 96 - BAIRRO BO            09572100                                                            000017
2SR. CAIXA, APOS O VENCIMENTO COBRAR 2% DE MULTA                                 NAO RECEBER APOS 30 DIAS DO VENCIMENTO.                                                                                                                                                                                                         01022400000000000000102240000000000000       0090339900009954289742022415000018
100000000000000000000009033990000995400000000000000000000000010002020092184802241200000000002            2  01921848022408022400000003064290000000001N010224000000000000000000000000000000000000000000000000000000000000000100092184804800CARMEM DO SOCORRO GUILHERME             ESTRADA SAO FRANCISCO - 1.850 AP.182A -             06765000                                                            000020
2SR. CAIXA, APOS O VENCIMENTO COBRAR 2% DE MULTA                                 NAO RECEBER APOS 30 DIAS DO VENCIMENTO.                                                                                                                                                                                                         01022400000000000000102240000000000000       0090339900009954921848022412000021
100000000000000000000009033990000995400000000000000000000000010002020009169702241200000000002            2  01091697022408022400000002457590000000001N010224000000000000000000000000000000000000000000000000000000000000000100009169701830TADEU CONSTANTINO LOPES                 RUA JOSE ANTONIO COELHO - 349 CASA 01 -             04011061                                                            000023
2SR. CAIXA, APOS O VENCIMENTO COBRAR 2% DE MULTA                                 NAO RECEBER APOS 30 DIAS DO VENCIMENTO.                                                                                                                                                                                                         01022400000000000000102240000000000000       0090339900009954091697022412000024
100000000000000000000009033990000995400000000000000000000000010002020042480102241000000000002            2  01424801022408022400000003126280000000001N010224000000000000000000000000000000000000000000000000000000000000000100042480155870JAMITRE SOIOMARA ALVES DO NASCIMENTO DAVRUA URUGUAI - 89 AP.75 - JARDIM GUILHERM            11702300                                                            000026
2SR. CAIXA, APOS O VENCIMENTO COBRAR 2% DE MULTA                                 NAO RECEBER APOS 30 DIAS DO VENCIMENTO.                                                                                                                                                                                                         01022400000000000000102240000000000000       0090339900009954424801022410000027
100000000000000000000009033990000995400000000000000000000000010002020001356902241700000000002            2  01013569022408022400000003172830000000001N010224000000000000000000000000000000000000000000000000000000000000000100001356993800DALVA MARIA DOS SANTOS                  RUA URUGUAI - 89 AP.74 - AVIACAO - PRAIA            11702300                                                            000029
2SR. CAIXA, APOS O VENCIMENTO COBRAR 2% DE MULTA                                 NAO RECEBER APOS 30 DIAS DO VENCIMENTO.                                                                                                                                                                                                         01022400000000000000102240000000000000       0090339900009954013569022417000030
100000000000000000000009033990000995400000000000000000000000010002020024615502241P00000000002            2  01246155022408022400000003618470000000001N010224000000000000000000000000000000000000000000000000000000000000000100024615557884GILBERTO JOSE GONSALES                  RUA URUGUAI - 89 AP.115 - JARDIM GUILHER            11702300                                                            000032
2SR. CAIXA, APOS O VENCIMENTO COBRAR 2% DE MULTA                                 NAO RECEBER APOS 30 DIAS DO VENCIMENTO.                                                                                                                                                                                                         01022400000000000000102240000000000000       009033990000995424615502241P000033
100000000000000000000009033990000995400000000000000000000000010002020036949502241900000000002            2  01369495022408022400000003386010000000001N010224000000000000000000000000000000000000000000000000000000000000000100036949505833FELIPE APARECIDO DOS SANTOS             RUA DAS MIMOSAS - 67 CASA 09 - VILA LUCI            03144010                                                            000035
2SR. CAIXA, APOS O VENCIMENTO COBRAR 2% DE MULTA                                 NAO RECEBER APOS 30 DIAS DO VENCIMENTO.                                                                                                                                                                                                         01022400000000000000102240000000000000       0090339900009954369495022419000036
100000000000000000000009033990000995400000000000000000000000010002020008539302241600000000002            2  01085393022408022400000003459530000000001N010224000000000000000000000000000000000000000000000000000000000000000100008539365871EDMILSON RAIMUNDO DOS SANTOS            RUA CALIDICE - 247 - PARQUE CRUZEIRO - S            08070010                                                            000038
2SR. CAIXA, APOS O VENCIMENTO COBRAR 2% DE MULTA                                 NAO RECEBER APOS 30 DIAS DO VENCIMENTO.                                                                                                                                                                                                         01022400000000000000102240000000000000       0090339900009954085393022416000039
100000000000000000000009033990000995400000000000000000000000010002020004611202241700000000002            2  01046112022408022400000002194210000000001N010224000000000000000000000000000000000000000000000000000000000000000100004611218830TANIA MARIA DA SILVA NUNES PEREIRA LUIZ RUA URUGUAI - 89 AP.103 - JARDIM GUILHER            11702300                                                            000041
2SR. CAIXA, APOS O VENCIMENTO COBRAR 2% DE MULTA                                 NAO RECEBER APOS 30 DIAS DO VENCIMENTO.                                                                                                                                                                                                         01022400000000000000102240000000000000       0090339900009954046112022417000042
100000000000000000000009033990000995400000000000000000000000010002020010548802241400000000002            2  01105488022408022400000003898750000000001N010224000000000000000000000000000000000000000000000000000000000000000100010548844801RICARDO DE JESUS CALDAS                 RUA ANTONIO AMBUBA - 50 CASA 60 - BAIRRO            05782370                                                            000044
2SR. CAIXA, APOS O VENCIMENTO COBRAR 2% DE MULTA                                 NAO RECEBER APOS 30 DIAS DO VENCIMENTO.                                                                                                                                                                                                         01022400000000000000102240000000000000       0090339900009954105488022414000045
100000000000000000000009033990000995400000000000000000000000010002020032038702241100000000002            2  01320387022408022400000002559320000000001N010224000000000000000000000000000000000000000000000000000000000000000100032038775893GUSTAVO PEREIRA DA CRUZ                 RUA SAO FIDELIS - 203 - JARDIM BRASIL -             16074050                                                            000047
2SR. CAIXA, APOS O VENCIMENTO COBRAR 2% DE MULTA                                 NAO RECEBER APOS 30 DIAS DO VENCIMENTO.                                                                                                                                                                                                         01022400000000000000102240000000000000       0090339900009954320387022411000048
100000000000000000000009033990000995400000000000000000000000010002020008993102241900000000002            2  01089931022408022400000012078580000000001N010224000000000000000000000000000000000000000000000000000000000000000100008993178801PATRICIA BITTENCOURT FRACARO            RUA MARCIO MAZZEI - 337 - VILA NOVA MAZZ            02316050                                                            000050
2SR. CAIXA, APOS O VENCIMENTO COBRAR 2% DE MULTA                                 NAO RECEBER APOS 30 DIAS DO VENCIMENTO.                                                                                                                                                                                                         01022400000000000000102240000000000000       0090339900009954089931022419000051
100000000000000000000009033990000995400000000000000000000000010002020025914202241500000000002            2  01259142022408022400000003479920000000001N010224000000000000000000000000000000000000000000000000000000000000000100025914206880JONAS DOS REIS MACHADO                  RUA PROFESSORA MARGARIDA RUTH FERREIRA D            02378200                                                            000053
2SR. CAIXA, APOS O VENCIMENTO COBRAR 2% DE MULTA                                 NAO RECEBER APOS 30 DIAS DO VENCIMENTO.                                                                                                                                                                                                         01022400000000000000102240000000000000       0090339900009954259142022415000054
100000000000000000000009033990000995400000000000000000000000010002020032549502241100000000002            2  01325495022408022400000003180430000000001N010224000000000000000000000000000000000000000000000000000000000000000100032549502833PAMELA DECENCI                          RUA URUGUAI - 89 AP.61 - AVIACAO - PRAIA            11702300                                                            000056
2SR. CAIXA, APOS O VENCIMENTO COBRAR 2% DE MULTA                                 NAO RECEBER APOS 30 DIAS DO VENCIMENTO.                                                                                                                                                                                                         01022400000000000000102240000000000000       0090339900009954325495022411000057
100000000000000000000009033990000995400000000000000000000000010002020027969402241000000000002            2  01279694022408022400000002557710000000001N010224000000000000000000000000000000000000000000000000000000000000000100027969412807THIAGO BARRETO PEREZ                    RUA ARMINDO GUARANA - 170 - VILA REGENTE            03335070                                                            000059
2SR. CAIXA, APOS O VENCIMENTO COBRAR 2% DE MULTA                                 NAO RECEBER APOS 30 DIAS DO VENCIMENTO.                                                                                                                                                                                                         01022400000000000000102240000000000000       0090339900009954279694022410000060
100000000000000000000009033990000995400000000000000000000000010002020013466502241100000000002            2  01134665022408022400000003426520000000001N010224000000000000000000000000000000000000000000000000000000000000000100013466586844MAURICIO DANTAS DA SILVA                RUA CASTOR - 57 - CIDADE SATELITE SANTA             08340120                                                            000062
2SR. CAIXA, APOS O VENCIMENTO COBRAR 2% DE MULTA                                 NAO RECEBER APOS 30 DIAS DO VENCIMENTO.                                                                                                                                                                                                         01022400000000000000102240000000000000       0090339900009954134665022411000063
9                                                                                                                                                                                                                                                                                                                                                                                                         000064