01REMESSA01COBRANCA       00000000000004991781AIRES CONSTRUTORA E INCORPORAD237BRADESCO       110618        MX0000106                                                                                                                                                                                                                                                                                     000001
100000000000000000000009077090006612500000000000000000000000010002100001224506181200000000002            2  01012245061825061800000003400250000000001N110618000000000000000000000000000000000000000000000000000000000000000100001224509579REINALDO JUNIOR MARTINS DE ABREU        AVENIDA INTERLAGOS - 7.224 - INTERLAGOS             04777000                                                            000002
2SR. CAIXA, APOS O VENCIMENTO COBRAR 10% DE MULTA                                NAO RECEBER APOS 30 DIAS DO VENCIMENTO.                                                                                                                                                                                                         11061800000000000001106180000000000000       0090770900066125012245061812000003
100000000000000000000009077090006612500000000000000000000000010002100003325106181300000000002            2  01033251061825061800000003306970000000001N110618000000000000000000000000000000000000000000000000000000000000000100003325102808MARCOS DE OLIVEIRA JUNIOR               RUA LUIS NOVELLETO - 91 - PARQUE CONTINE            05324080                                                            000005
2SR. CAIXA, APOS O VENCIMENTO COBRAR 10% DE MULTA                                NAO RECEBER APOS 30 DIAS DO VENCIMENTO.                                                                                                                                                                                                         11061800000000000001106180000000000000       0090770900066125033251061813000006
100000000000000000000009077090006612500000000000000000000000010002100016338906181500000000002            2  01163389061825061800000003354970000000001N110618000000000000000000000000000000000000000000000000000000000000000100016338929806EDVALDO DA SILVA ANDRADE                RUA ARIA - 434 - PARQUE ALVES DE LIMA -             04902170                                                            000008
2SR. CAIXA, APOS O VENCIMENTO COBRAR 10% DE MULTA                                NAO RECEBER APOS 30 DIAS DO VENCIMENTO.                                                                                                                                                                                                         11061800000000000001106180000000000000       0090770900066125163389061815000009
100000000000000000000009077090006612500000000000000000000000010002100026836906181500000000002            2  01268369061825061800000003038160000000001N110618000000000000000000000000000000000000000000000000000000000000000100026836908860VANDERLEI FIGUEIREDO DE CARVALHO        RUA TUPI - 840 - VILA TUPI - PRAIA GRAND            11703260                                                            000011
2SR. CAIXA, APOS O VENCIMENTO COBRAR 10% DE MULTA                                NAO RECEBER APOS 30 DIAS DO VENCIMENTO.                                                                                                                                                                                                         11061800000000000001106180000000000000       0090770900066125268369061815000012
100000000000000000000009077090006612500000000000000000000000010002100059861506181100000000002            2  01598615061825061800000003374550000000001N110618000000000000000000000000000000000000000000000000000000000000000100059861576800REINALDO LOPES DE OLIVEIRA              RUA DA SERVIDAO - 40 - VILA ROSCHEL - SA            04891045                                                            000014
2SR. CAIXA, APOS O VENCIMENTO COBRAR 10% DE MULTA                                NAO RECEBER APOS 30 DIAS DO VENCIMENTO.                                                                                                                                                                                                         11061800000000000001106180000000000000       0090770900066125598615061811000015
100000000000000000000009077090006612500000000000000000000000010002100016330906181P00000000002            2  01163309061825061800000003354120000000001N110618000000000000000000000000000000000000000000000000000000000000000100016330938830KARINA CORDEIRO PIASSA                  CONDE MOREIRA LIMA - 644 - JARDIM JABAQU            04384032                                                            000017
2SR. CAIXA, APOS O VENCIMENTO COBRAR 10% DE MULTA                                NAO RECEBER APOS 30 DIAS DO VENCIMENTO.                                                                                                                                                                                                         11061800000000000001106180000000000000       009077090006612516330906181P000018
100000000000000000000009077090006612500000000000000000000000010002100077027606181200000000002            2  01770276061825061800000003259940000000001N110618000000000000000000000000000000000000000000000000000000000000000100077027604868CLINEU LISSONI                          AVENIDA VILA EMA - 1100 AP.41 - VILA PRU            03156000                                                            000020
2SR. CAIXA, APOS O VENCIMENTO COBRAR 10% DE MULTA                                NAO RECEBER APOS 30 DIAS DO VENCIMENTO.                                                                                                                                                                                                         11061800000000000001106180000000000000       0090770900066125770276061812000021
100000000000000000000009077090006612500000000000000000000000010002100005627906181900000000002            2  01056279061825061800000003056340000000001N110618000000000000000000000000000000000000000000000000000000000000000100005627947861FERNANDO CESAR MARCELINO                RUA CASA FORTE - 46 AP.11 - AGUA FRIA -             02336040                                                            000023
2SR. CAIXA, APOS O VENCIMENTO COBRAR 10% DE MULTA                                NAO RECEBER APOS 30 DIAS DO VENCIMENTO.                                                                                                                                                                                                         11061800000000000001106180000000000000       0090770900066125056279061819000024
100000000000000000000009077090006612500000000000000000000000010002100029380706181P00000000002            2  01293807061825061800000003038340000000001N110618000000000000000000000000000000000000000000000000000000000000000100029380708882EDUARDO MENDONCA DAMASCENO              RUA MONTE CASTELO - 296 AP.12 - AVIACAO             11702720                                                            000026
2SR. CAIXA, APOS O VENCIMENTO COBRAR 10% DE MULTA                                NAO RECEBER APOS 30 DIAS DO VENCIMENTO.                                                                                                                                                                                                         11061800000000000001106180000000000000       009077090006612529380706181P000027
100000000000000000000009077090006612500000000000000000000000010002100023988506181300000000002            2  01239885061825061800000003085090000000001N110618000000000000000000000000000000000000000000000000000000000000000100023988525634DALMY PIMENTA                           SAO CAETANO - 136 - VILA SAO VICENTE - U            38026220                                                            000029
2SR. CAIXA, APOS O VENCIMENTO COBRAR 10% DE MULTA                                NAO RECEBER APOS 30 DIAS DO VENCIMENTO.                                                                                                                                                                                                         11061800000000000001106180000000000000       0090770900066125239885061813000030
100000000000000000000009077090006612500000000000000000000000010002100004735206181500000000002            2  01047352061825061800000003354310000000001N110618000000000000000000000000000000000000000000000000000000000000000100004735273832DARIO LUIZ GONCALVES                    RUA MONTE CASTELO - 295 AP.113 - AVIACAO            11702720                                                            000032
2SR. CAIXA, APOS O VENCIMENTO COBRAR 10% DE MULTA                                NAO RECEBER APOS 30 DIAS DO VENCIMENTO.                                                                                                                                                                                                         11061800000000000001106180000000000000       0090770900066125047352061815000033
100000000000000000000009077090006612500000000000000000000000010002100007635206181500000000002            2  01076352061825061800000002998960000000001N110618000000000000000000000000000000000000000000000000000000000000000100007635293893SILVIO CARDOSO ZACARIAS                 RUA SOLIDONIO LEITE - 2718 AP.102 BLOCO             03275000                                                            000035
2SR. CAIXA, APOS O VENCIMENTO COBRAR 10% DE MULTA                                NAO RECEBER APOS 30 DIAS DO VENCIMENTO.                                                                                                                                                                                                         11061800000000000001106180000000000000       0090770900066125076352061815000036
100000000000000000000009077090006612500000000000000000000000010002100067192906181500000000002            2  01671929061825061800000002935890000000001N110618000000000000000000000000000000000000000000000000000000000000000100067192920800SONIA MARIA RIBEIRO SUDO                RUA INGAZEIRA - 133 - SAO MIGUEL - SAO P            08032080                                                            000038
2SR. CAIXA, APOS O VENCIMENTO COBRAR 10% DE MULTA                                NAO RECEBER APOS 30 DIAS DO VENCIMENTO.                                                                                                                                                                                                         11061800000000000001106180000000000000       0090770900066125671929061815000039
100000000000000000000009077090006612500000000000000000000000010002100007975906181900000000002            2  01079759061825061800000003262700000000001N110618000000000000000000000000000000000000000000000000000000000000000100007975958808JOCY VIGNADO                            RUA PEDRO GONCALVES SOBRINHO - 568 - PAR            13098641                                                            000041
2SR. CAIXA, APOS O VENCIMENTO COBRAR 10% DE MULTA                                NAO RECEBER APOS 30 DIAS DO VENCIMENTO.                                                                                                                                                                                                         11061800000000000001106180000000000000       0090770900066125079759061819000042
100000000000000000000009077090006612500000000000000000000000010002100036712506181100000000002            2  01367125061825061800000003050760000000001N110618000000000000000000000000000000000000000000000000000000000000000100036712580803WALTER BARRETO DE ALMEIDA               RUA MONTE CASTELO - 296 AP.44 - AVIACAO             11702720                                                            000044
2SR. CAIXA, APOS O VENCIMENTO COBRAR 10% DE MULTA                                NAO RECEBER APOS 30 DIAS DO VENCIMENTO.                                                                                                                                                                                                         11061800000000000001106180000000000000       0090770900066125367125061811000045
100000000000000000000009077090006612500000000000000000000000010002100036386806181000000000002            2  01363868061825061800000003445910000000001N110618000000000000000000000000000000000000000000000000000000000000000100036386861833ALINE LEE WEI DE SOUZA                  AV. PRES.CASTELO BRANCO - 9127 AP.251 BL            11704600                                                            000047
2SR. CAIXA, APOS O VENCIMENTO COBRAR 10% DE MULTA                                NAO RECEBER APOS 30 DIAS DO VENCIMENTO.                                                                                                                                                                                                         11061800000000000001106180000000000000       0090770900066125363868061810000048
100000000000000000000009077090006612500000000000000000000000010002100026187906181500000000002            2  01261879061825061800000003197690000000001N110618000000000000000000000000000000000000000000000000000000000000000100026187960807CARINA CANTACESSO DE SOUZA              RUA MONTE CASTELO - 296 AP.91 - AVIACAO             11702720                                                            000050
2SR. CAIXA, APOS O VENCIMENTO COBRAR 10% DE MULTA                                NAO RECEBER APOS 30 DIAS DO VENCIMENTO.                                                                                                                                                                                                         11061800000000000001106180000000000000       0090770900066125261879061815000051
100000000000000000000009077090006612500000000000000000000000010002100070465306181100000000002            2  01704653061825061800000003134490000000001N110618000000000000000000000000000000000000000000000000000000000000000100070465320953SIDNEY CARASKI                          RUA DR.CELSO PACHECO BENTIM - 502 - PARQ            03571020                                                            000053
2SR. CAIXA, APOS O VENCIMENTO COBRAR 10% DE MULTA                                NAO RECEBER APOS 30 DIAS DO VENCIMENTO.                                                                                                                                                                                                         11061800000000000001106180000000000000       0090770900066125704653061811000054
100000000000000000000009077090006612500000000000000000000000010002100075759406181700000000002            2  01757594061825061800000002454570000000001N110618000000000000000000000000000000000000000000000000000000000000000100075759446800VALTER MUTAFEI                          RUA MONTE CASTELO - 295 AP.54 - AVIACAO             11702720                                                            000056
2SR. CAIXA, APOS O VENCIMENTO COBRAR 10% DE MULTA                                NAO RECEBER APOS 30 DIAS DO VENCIMENTO.                                                                                                                                                                                                         11061800000000000001106180000000000000       0090770900066125757594061817000057
100000000000000000000009077090006612500000000000000000000000010002100070328706181500000000002            2  01703287061825061800000003506980000000001N110618000000000000000000000000000000000000000000000000000000000000000100070328706868VALTER LIMA FERNANDES                   RUA DOMINGOS JORGE VELHO - 52 - CENTRO -            06843550                                                            000059
2SR. CAIXA, APOS O VENCIMENTO COBRAR 10% DE MULTA                                NAO RECEBER APOS 30 DIAS DO VENCIMENTO.                                                                                                                                                                                                         11061800000000000001106180000000000000       0090770900066125703287061815000060
100000000000000000000009077090006612500000000000000000000000010002100023132606181000000000002            2  01231326061825061800000001904960000000001N110618000000000000000000000000000000000000000000000000000000000000000100023132672882LEANDRO MORENO                          RUA MONTE CASTELO - 296 AP.64 - AVIACAO             11702720                                                            000062
2SR. CAIXA, APOS O VENCIMENTO COBRAR 10% DE MULTA                                NAO RECEBER APOS 30 DIAS DO VENCIMENTO.                                                                                                                                                                                                         11061800000000000001106180000000000000       0090770900066125231326061810000063
100000000000000000000009077090006612500000000000000000000000010002100099264606181P00000000002            2  01992646061825061800000003248710000000001N110618000000000000000000000000000000000000000000000000000000000000000100099264692800LEONTINO PINHEIRO DA SILVA              AVENIDA JOAO BATISTA FITIPALDI - 469 - V            08685000                                                            000065
2SR. CAIXA, APOS O VENCIMENTO COBRAR 10% DE MULTA                                NAO RECEBER APOS 30 DIAS DO VENCIMENTO.                                                                                                                                                                                                         11061800000000000001106180000000000000       009077090006612599264606181P000066
100000000000000000000009077090006612500000000000000000000000010002100000666306181000000000002            2  01006663061825061800000003134090000000001N110618000000000000000000000000000000000000000000000000000000000000000100000666344825LUIZ HENRIQUE DE CAMPOS                 RUA JOAO CARLOS CAVALCANTI REIS - 21 - J            02281206                                                            000068
2SR. CAIXA, APOS O VENCIMENTO COBRAR 10% DE MULTA                                NAO RECEBER APOS 30 DIAS DO VENCIMENTO.                                                                                                                                                                                                         11061800000000000001106180000000000000       0090770900066125006663061810000069
100000000000000000000009077090006612500000000000000000000000010002100029155006181000000000002            2  01291550061825061800000003309740000000001N110618000000000000000000000000000000000000000000000000000000000000000100029155026842DANIELA YOSHIDA                         RUA MONTE CASTELO - 262 AP.34 - AVIACAO             11702720                                                            000071
2SR. CAIXA, APOS O VENCIMENTO COBRAR 10% DE MULTA                                NAO RECEBER APOS 30 DIAS DO VENCIMENTO.                                                                                                                                                                                                         11061800000000000001106180000000000000       0090770900066125291550061810000072
100000000000000000000009077090006612500000000000000000000000010002100001204406181400000000002            2  01012044061825061800000002695290000000001N110618000000000000000000000000000000000000000000000000000000000000000100001204431809CEZAR TALAVERA JUNIOR                   RUA MAESTRO ARTURO DE ANGELIS  - 190 AP.            05139010                                                            000074
2SR. CAIXA, APOS O VENCIMENTO COBRAR 10% DE MULTA                                NAO RECEBER APOS 30 DIAS DO VENCIMENTO.                                                                                                                                                                                                         11061800000000000001106180000000000000       0090770900066125012044061814000075
100000000000000000000009077090006612500000000000000000000000010002100004227506181300000000002            2  01042275061825061800000003493940000000001N110618000000000000000000000000000000000000000000000000000000000000000100004227553970ALESSANDRO ISRAEL GOULART               RUA PROFESSORA CARLINDA RIBEIRO - 21 - F            02866200                                                            000077
2SR. CAIXA, APOS O VENCIMENTO COBRAR 10% DE MULTA                                NAO RECEBER APOS 30 DIAS DO VENCIMENTO.                                                                                                                                                                                                         11061800000000000001106180000000000000       0090770900066125042275061813000078
100000000000000000000009077090006612500000000000000000000000010002100060811406181700000000002            2  01608114061825061800000003220070000000001N110618000000000000000000000000000000000000000000000000000000000000000100060811420868HELIO BASSI                             AV.PARIS,575 - PRACA ANTONIO FIGUEROA -             11700082                                                            000080
2SR. CAIXA, APOS O VENCIMENTO COBRAR 10% DE MULTA                                NAO RECEBER APOS 30 DIAS DO VENCIMENTO.                                                                                                                                                                                                         11061800000000000001106180000000000000       0090770900066125608114061817000081
100000000000000000000009077090006612500000000000000000000000010002100001024706181700000000002            2  01010247061825061800000003047040000000001N110618000000000000000000000000000000000000000000000000000000000000000100001024794881CLAUDIO RODRIGUES                       RUA ARACATUBA - 242 - LAPA - SAO PAULO -            05058010                                                            000083
2SR. CAIXA, APOS O VENCIMENTO COBRAR 10% DE MULTA                                NAO RECEBER APOS 30 DIAS DO VENCIMENTO.                                                                                                                                                                                                         11061800000000000001106180000000000000       0090770900066125010247061817000084
100000000000000000000009077090006612500000000000000000000000010002100002225006181800000000002            2  01022250061825061800000004671510000000001N110618000000000000000000000000000000000000000000000000000000000000000100002225072841PEDRO EDUARDO DE AZEVEDO                RUA NATH ZILMAN - 46 - JARDIM SAMAMBAIA             07600000                                                            000086
2SR. CAIXA, APOS O VENCIMENTO COBRAR 10% DE MULTA                                NAO RECEBER APOS 30 DIAS DO VENCIMENTO.                                                                                                                                                                                                         11061800000000000001106180000000000000       0090770900066125022250061818000087
100000000000000000000009077090006612500000000000000000000000010002100022037506181600000000002            2  01220375061825061800000003250860000000001N110618000000000000000000000000000000000000000000000000000000000000000100022037552882ANDREIA CRISTINA FERNANDES DANTAS       PCA CASTRO ALVES - 163 AP.33 - VILA SAO             13224299                                                            000089
2SR. CAIXA, APOS O VENCIMENTO COBRAR 10% DE MULTA                                NAO RECEBER APOS 30 DIAS DO VENCIMENTO.                                                                                                                                                                                                         11061800000000000001106180000000000000       0090770900066125220375061816000090
100000000000000000000009077090006612500000000000000000000000010002100019288706181400000000002            2  01192887061825061800000002646950000000001N110618000000000000000000000000000000000000000000000000000000000000000100019288787844EMERSON LUIZ MARTINEZ PEREIRA           RUA MONTE CASTELO - 296 AP.74 - AVIACAO             11702720                                                            000092
2SR. CAIXA, APOS O VENCIMENTO COBRAR 10% DE MULTA                                NAO RECEBER APOS 30 DIAS DO VENCIMENTO.                                                                                                                                                                                                         11061800000000000001106180000000000000       0090770900066125192887061814000093
100000000000000000000009077090006612500000000000000000000000010002100027198406181800000000002            2  01271984061825061800000002242100000000001N110618000000000000000000000000000000000000000000000000000000000000000100027198452809CRISTIANE AURELIANO DA SILVA MAIA       RUA MONTE CASTELO - 262 AP.25 - AVIACAO             11702720                                                            000095
2SR. CAIXA, APOS O VENCIMENTO COBRAR 10% DE MULTA                                NAO RECEBER APOS 30 DIAS DO VENCIMENTO.                                                                                                                                                                                                         11061800000000000001106180000000000000       0090770900066125271984061818000096
100000000000000000000009077090006612500000000000000000000000010002100021246206181100000000002            2  01212462061825061800000002736240000000001N110618000000000000000000000000000000000000000000000000000000000000000100021246231840ALEXANDRO DA CUNHA MIGUES               AVENIDA CONSELHEIRO CARRAO - 1861 CONJ.5            03403001                                                            000098
2SR. CAIXA, APOS O VENCIMENTO COBRAR 10% DE MULTA                                NAO RECEBER APOS 30 DIAS DO VENCIMENTO.                                                                                                                                                                                                         11061800000000000001106180000000000000       0090770900066125212462061811000099
100000000000000000000009077090006612500000000000000000000000010002100004864906181000000000002            2  01048649061825061800000001638310000000001N110618000000000000000000000000000000000000000000000000000000000000000100004864924600RENATO SANTACHIARA SALVADORI            RUA PENSYLVANIA - 116 - PAYSAGE BRISE -             06730000                                                            000101
2SR. CAIXA, APOS O VENCIMENTO COBRAR 10% DE MULTA                                NAO RECEBER APOS 30 DIAS DO VENCIMENTO.                                                                                                                                                                                                         11061800000000000001106180000000000000       0090770900066125048649061810000102
100000000000000000000009077090006612500000000000000000000000010002100018834206181P00000000002            2  01188342061825061800000003196240000000001N110618000000000000000000000000000000000000000000000000000000000000000100018834257863ILTON FERNANDO MUTCHNIK                 RUA ASSUNGUI - 700 AP.222 - VILA GUMERCI            04131001                                                            000104
2SR. CAIXA, APOS O VENCIMENTO COBRAR 10% DE MULTA                                NAO RECEBER APOS 30 DIAS DO VENCIMENTO.                                                                                                                                                                                                         11061800000000000001106180000000000000       009077090006612518834206181P000105
100000000000000000000009077090006612500000000000000000000000010002100018470506181100000000002            2  01184705061825061800000004025410000000001N110618000000000000000000000000000000000000000000000000000000000000000100018470520881SILVANA ALVES DE OLIVEIRA               RUA MONTE CASTELO - 262 AP.91 - AVIACAO             11702720                                                            000107
2SR. CAIXA, APOS O VENCIMENTO COBRAR 10% DE MULTA                                NAO RECEBER APOS 30 DIAS DO VENCIMENTO.                                                                                                                                                                                                         11061800000000000001106180000000000000       0090770900066125184705061811000108
100000000000000000000009077090006612500000000000000000000000010002100009297506181100000000002            2  01092975061825061800000002802460000000001N110618000000000000000000000000000000000000000000000000000000000000000100009297523846MARCOS ROBERTO DE CASTRO FERREIRA       RUA MONTE CASTELO - 262 AP.105 - AVIACAO            11702720                                                            000110
2SR. CAIXA, APOS O VENCIMENTO COBRAR 10% DE MULTA                                NAO RECEBER APOS 30 DIAS DO VENCIMENTO.                                                                                                                                                                                                         11061800000000000001106180000000000000       0090770900066125092975061811000111
100000000000000000000009077090006612500000000000000000000000010002100001164106181000000000002            2  01011641061825061800000003472890000000001N110618000000000000000000000000000000000000000000000000000000000000000100001164158864DAVID BLEY LACERDA                      RUA CONEGO ARAUJO MARCONDES - 188 - BAIR            02550080                                                            000113
2SR. CAIXA, APOS O VENCIMENTO COBRAR 10% DE MULTA                                NAO RECEBER APOS 30 DIAS DO VENCIMENTO.                                                                                                                                                                                                         11061800000000000001106180000000000000       0090770900066125011641061810000114
100000000000000000000009077090006612500000000000000000000000010002100031498006181400000000002            2  01314980061825061800000004220790000000001N110618000000000000000000000000000000000000000000000000000000000000000100031498008895POLIANE  SIBELE DA SILVA                PRACA GENERAL COSTA BARRETO - 56 AP.181             03325070                                                            000116
2SR. CAIXA, APOS O VENCIMENTO COBRAR 10% DE MULTA                                NAO RECEBER APOS 30 DIAS DO VENCIMENTO.                                                                                                                                                                                                         11061800000000000001106180000000000000       0090770900066125314980061814000117
100000000000000000000009077090006612500000000000000000000000010002100000588106181800000000002            2  01005881061825061800000002475580000000001N110618000000000000000000000000000000000000000000000000000000000000000100000588109860JOSE LIARTE GIANTE                      AVENIDA LUIZ GONZAGA DO AMARAL - 143 - J            09320630                                                            000119
2SR. CAIXA, APOS O VENCIMENTO COBRAR 10% DE MULTA                                NAO RECEBER APOS 30 DIAS DO VENCIMENTO.                                                                                                                                                                                                         11061800000000000001106180000000000000       0090770900066125005881061818000120
100000000000000000000009077090006612500000000000000000000000010002100014386806181000000000002            2  01143868061825061800000001980360000000001N110618000000000000000000000000000000000000000000000000000000000000000100014386860134SEVERINO CARLOS DE OLIVEIRA             RUA MONTE CASTELO - 262 AP.54 - AVIACAO             11702720                                                            000122
2SR. CAIXA, APOS O VENCIMENTO COBRAR 10% DE MULTA                                NAO RECEBER APOS 30 DIAS DO VENCIMENTO.                                                                                                                                                                                                         11061800000000000001106180000000000000       0090770900066125143868061810000123
100000000000000000000009077090006612500000000000000000000000010002100029088206181800000000002            2  01290882061825061800000002201640000000001N110618000000000000000000000000000000000000000000000000000000000000000100029088221804FABIANO SPERANDEO                       RUA MONTE CASTELO - 296 AP.93 - AVIACAO             11702720                                                            000125
2SR. CAIXA, APOS O VENCIMENTO COBRAR 10% DE MULTA                                NAO RECEBER APOS 30 DIAS DO VENCIMENTO.                                                                                                                                                                                                         11061800000000000001106180000000000000       0090770900066125290882061818000126
100000000000000000000009077090006612500000000000000000000000010002100039393706181600000000002            2  01393937061825061800000001364870000000001N110618000000000000000000000000000000000000000000000000000000000000000100039393790850NAIRON RICARDO DE ARAUJO SANTOS         RUA MONTE CASTELO - 262 AP.23 - AVIACAO             11702720                                                            000128
2SR. CAIXA, APOS O VENCIMENTO COBRAR 10% DE MULTA                                NAO RECEBER APOS 30 DIAS DO VENCIMENTO.                                                                                                                                                                                                         11061800000000000001106180000000000000       0090770900066125393937061816000129
100000000000000000000009077090006612500000000000000000000000010002100041896806181700000000002            2  01418968061825061800000001987720000000001N110618000000000000000000000000000000000000000000000000000000000000000100041896807968SERGIO ROBERTO DA SILVA                 RUA DOS INGLESES - 542 AP.61 - MORRO DOS            01329000                                                            000131
2SR. CAIXA, APOS O VENCIMENTO COBRAR 10% DE MULTA                                NAO RECEBER APOS 30 DIAS DO VENCIMENTO.                                                                                                                                                                                                         11061800000000000001106180000000000000       0090770900066125418968061817000132
100000000000000000000009077090006612500000000000000000000000010002100088137306181500000000002            2  01881373061825061800000001802390000000001N110618000000000000000000000000000000000000000000000000000000000000000100088137384804ANA LUCIA DA SILVA                      RUA DOUTOR EPAMINONDAS BARRA - 147 - VIL            04438100                                                            000134
2SR. CAIXA, APOS O VENCIMENTO COBRAR 10% DE MULTA                                NAO RECEBER APOS 30 DIAS DO VENCIMENTO.                                                                                                                                                                                                         11061800000000000001106180000000000000       0090770900066125881373061815000135
9                                                                                                                                                                                                                                                                                                                                                                                                         000136