01REMESSA01COBRANCA       00000000000004991781AIRES CONSTRUTORA E INCORPORAD237BRADESCO       010817        MX0000087                                                                                                                                                                                                                                                                                     000001
100000000000000000000009077090006612500000000000000000000000010002100000000008011200000000002            2  01000000801110081700000002095800000000001N010817000000000000000000000000000000000000000000000000000000000000000100094852294887GISELDA MENON                           RUA OTAVIO BARRETO - 105 - VILA SANTISTA            02560080                                                            000002
2SR. CAIXA, APOS O VENCIMENTO COBRAR 10% DE MULTA                                NAO RECEBER APOS 30 DIAS DO VENCIMENTO.                                                                                                                                                                                                         01081700000000000000108170000000000000       0090770900066125000000080112000003
100000000000000000000009077090006612500000000000000000000000010002100000000028433800000000002            2  01000002843310081700000003214280000000001N010817000000000000000000000000000000000000000000000000000000000000000100006485911820CELIO MANUEL  MELIM SANTO               RUA JUVENAL FERREIRA  - 85 AP.61 - VILA             03512040                                                            000005
2SR. CAIXA, APOS O VENCIMENTO COBRAR 10% DE MULTA                                NAO RECEBER APOS 30 DIAS DO VENCIMENTO.                                                                                                                                                                                                         01081700000000000000108170000000000000       0090770900066125000000284338000006
100000000000000000000009077090006612500000000000000000000000010002100000000059466300000000002            2  01000005946610081700000002801470000000001N010817000000000000000000000000000000000000000000000000000000000000000100004693857823NIVALDO BARTOLOMEU FERREIRA             MNS JOSE MARINONI  - 33 - SANTO AMARO -             04430350                                                            000008
2SR. CAIXA, APOS O VENCIMENTO COBRAR 10% DE MULTA                                NAO RECEBER APOS 30 DIAS DO VENCIMENTO.                                                                                                                                                                                                         01081700000000000000108170000000000000       0090770900066125000000594663000009
100000000000000000000009077090006612500000000000000000000000010002100000000079788200000000002            2  01000007978810081700000002667640000000001N010817000000000000000000000000000000000000000000000000000000000000000100027993108853DALVA JESUS RODRIGUES CABRAL            RUA CRISTOVAO COLOMBO GONCALVES - 97 - C            04811050                                                            000011
2SR. CAIXA, APOS O VENCIMENTO COBRAR 10% DE MULTA                                NAO RECEBER APOS 30 DIAS DO VENCIMENTO.                                                                                                                                                                                                         01081700000000000000108170000000000000       0090770900066125000000797882000012
100000000000000000000009077090006612500000000000000000000000010002100000010001010300000000002            2  01001000101010081700000002771060000000001N010817000000000000000000000000000000000000000000000000000000000000000100000455495831PAULO HENRIQUE LOURENCO                 RUA FIGUEIRA  - 237 - CIDADE DAS FLORES             06184060                                                            000014
2SR. CAIXA, APOS O VENCIMENTO COBRAR 10% DE MULTA                                NAO RECEBER APOS 30 DIAS DO VENCIMENTO.                                                                                                                                                                                                         01081700000000000000108170000000000000       0090770900066125000100010103000015
100000000000000000000009077090006612500000000000000000000000010002100000019061919500000000002            2  01001906191910081700000003436510000000001N010817000000000000000000000000000000000000000000000000000000000000000100006140049857MARIA ALBANI DA SILVA EUSEBIO           RUA ORLANDO SEGALA - 108 - JARDIM ADRIAN            07135190                                                            000017
2SR. CAIXA, APOS O VENCIMENTO COBRAR 10% DE MULTA                                NAO RECEBER APOS 30 DIAS DO VENCIMENTO.                                                                                                                                                                                                         01081700000000000000108170000000000000       0090770900066125000190619195000018
100000000000000000000009077090006612500000000000000000000000010002100000031172931700000000002            2  01003117293110081700000003369870000000001N010817000000000000000000000000000000000000000000000000000000000000000100002324785897IZILDA NAPOLI                           RUA MONTE CASTELO - 295 AP.71 - AVIACAO             11702720                                                            000020
2SR. CAIXA, APOS O VENCIMENTO COBRAR 10% DE MULTA                                NAO RECEBER APOS 30 DIAS DO VENCIMENTO.                                                                                                                                                                                                         01081700000000000000108170000000000000       0090770900066125000311729317000021
100000000000000000000009077090006612500000000000000000000000010002100000036073136P00000000002            2  01003607313610081700000003490900000000001N010817000000000000000000000000000000000000000000000000000000000000000100007768713826FATIMA LUZIA BIANCHI                    DR. OLIDAIR AMBROSIO - 1487 AP.03 - CENT            14160170                                                            000023
2SR. CAIXA, APOS O VENCIMENTO COBRAR 10% DE MULTA                                NAO RECEBER APOS 30 DIAS DO VENCIMENTO.                                                                                                                                                                                                         01081700000000000000108170000000000000       009077090006612500036073136P000024
100000000000000000000009077090006612500000000000000000000000010002100000038923639200000000002            2  01003892363910081700000003439070000000001N010817000000000000000000000000000000000000000000000000000000000000000100021716847800DANIELLE FAGUNDES DE A.MATOS            CONDE MOREIRA LIMA - 644 - JARDIM JABAQU            04384032                                                            000026
2SR. CAIXA, APOS O VENCIMENTO COBRAR 10% DE MULTA                                NAO RECEBER APOS 30 DIAS DO VENCIMENTO.                                                                                                                                                                                                         01081700000000000000108170000000000000       0090770900066125000389236392000027
100000000000000000000009077090006612500000000000000000000000010002100000041913842000000000002            2  01004191384210081700000002873150000000001N010817000000000000000000000000000000000000000000000000000000000000000100028196184808VANESSA NOGUEIRA CAMBUI DA SILVA        CRISTOVAO COLOMBO - 217 - VILA AMERICA -            09110160                                                            000029
2SR. CAIXA, APOS O VENCIMENTO COBRAR 10% DE MULTA                                NAO RECEBER APOS 30 DIAS DO VENCIMENTO.                                                                                                                                                                                                         01081700000000000000108170000000000000       0090770900066125000419138420000030
100000000000000000000009077090006612500000000000000000000000010002100000045824246400000000002            2  01004582424610081700000003036300000000001N010817000000000000000000000000000000000000000000000000000000000000000100005678057863FABIO MOREIRA CAMPOS                    RUA FLORENCIO DA SILVA - 284 - VILA LIBA            03738070                                                            000032
2SR. CAIXA, APOS O VENCIMENTO COBRAR 10% DE MULTA                                NAO RECEBER APOS 30 DIAS DO VENCIMENTO.                                                                                                                                                                                                         01081700000000000000108170000000000000       0090770900066125000458242464000033
100000000000000000000009077090006612500000000000000000000000010002100000046784347000000000002            2  01004678434710081700000003065950000000001N010817000000000000000000000000000000000000000000000000000000000000000100007784496885GUILHERME LEONARDO DO NASCIMENTO        COMENDADOR RUBENS RONCARE - 127 - PONTE             11530120                                                            000035
2SR. CAIXA, APOS O VENCIMENTO COBRAR 10% DE MULTA                                NAO RECEBER APOS 30 DIAS DO VENCIMENTO.                                                                                                                                                                                                         01081700000000000000108170000000000000       0090770900066125000467843470000036
100000000000000000000009077090006612500000000000000000000000010002100000047734448000000000002            2  01004773444810081700000002962150000000001N010817000000000000000000000000000000000000000000000000000000000000000100016348237885AILTON LORENA                           AVENIDA BRASILIA - 194 - BELA VISTA - SA            09180260                                                            000038
2SR. CAIXA, APOS O VENCIMENTO COBRAR 10% DE MULTA                                NAO RECEBER APOS 30 DIAS DO VENCIMENTO.                                                                                                                                                                                                         01081700000000000000108170000000000000       0090770900066125000477344480000039
100000000000000000000009077090006612500000000000000000000000010002100000051574852300000000002            2  01005157485210081700000002858820000000001N010817000000000000000000000000000000000000000000000000000000000000000100081218486953OSMAR DA COSTA                          RUA MONTE CASTELO - 295 AP.33 - AVIACAO             11702720                                                            000041
2SR. CAIXA, APOS O VENCIMENTO COBRAR 10% DE MULTA                                NAO RECEBER APOS 30 DIAS DO VENCIMENTO.                                                                                                                                                                                                         01081700000000000000108170000000000000       0090770900066125000515748523000042
100000000000000000000009077090006612500000000000000000000000010002100000054585155800000000002            2  01005458515510081700000003247090000000001N010817000000000000000000000000000000000000000000000000000000000000000100004981884850SILVIO PAULINO GONCALVES                MARIA DE CASTRO MESQUITA - 84 AP.103 BLO            07110040                                                            000044
2SR. CAIXA, APOS O VENCIMENTO COBRAR 10% DE MULTA                                NAO RECEBER APOS 30 DIAS DO VENCIMENTO.                                                                                                                                                                                                         01081700000000000000108170000000000000       0090770900066125000545851558000045
100000000000000000000009077090006612500000000000000000000000010002100000055585256000000000002            2  01005558525610081700000002131400000000001N010817000000000000000000000000000000000000000000000000000000000000000100019282546837FABIO LEANDRO DE FREITAS ASSIS          RUA BASSIM NAGIB TRABULSI - 97 - PONTA D            11030540                                                            000047
2SR. CAIXA, APOS O VENCIMENTO COBRAR 10% DE MULTA                                NAO RECEBER APOS 30 DIAS DO VENCIMENTO.                                                                                                                                                                                                         01081700000000000000108170000000000000       0090770900066125000555852560000048
100000000000000000000009077090006612500000000000000000000000010002100000059425660600000000002            2  01005942566010081700000002962080000000001N010817000000000000000000000000000000000000000000000000000000000000000100008423485811EDSON LUIZ NUNES                        RUA NOEMIA PEDROSO BUENO - 41 - JARDIM G            09360440                                                            000050
2SR. CAIXA, APOS O VENCIMENTO COBRAR 10% DE MULTA                                NAO RECEBER APOS 30 DIAS DO VENCIMENTO.                                                                                                                                                                                                         01081700000000000000108170000000000000       0090770900066125000594256606000051
100000000000000000000009077090006612500000000000000000000000010002100000064156165P00000000002            2  01006415616510081700000003427490000000001N010817000000000000000000000000000000000000000000000000000000000000000100003010502877GIZELA VIEIRA BARROS                    RUA GIACOMO DALCIN - 157 - MAUA - SAO CA            09580350                                                            000053
2SR. CAIXA, APOS O VENCIMENTO COBRAR 10% DE MULTA                                NAO RECEBER APOS 30 DIAS DO VENCIMENTO.                                                                                                                                                                                                         01081700000000000000108170000000000000       009077090006612500064156165P000054
100000000000000000000009077090006612500000000000000000000000010002100000069156670900000000002            2  01006915667010081700000002790910000000001N010817000000000000000000000000000000000000000000000000000000000000000100012111060801CLAUDIA CRISTINA CRELIS COSTA           RUA RUI BARBOSA - 1736 AP.1533 - VILA SA            19015001                                                            000056
2SR. CAIXA, APOS O VENCIMENTO COBRAR 10% DE MULTA                                NAO RECEBER APOS 30 DIAS DO VENCIMENTO.                                                                                                                                                                                                         01081700000000000000108170000000000000       0090770900066125000691566709000057
100000000000000000000009077090006612500000000000000000000000010002100000070076271000000000002            2  01007007627110081700000002687300000000001N010817000000000000000000000000000000000000000000000000000000000000000100009777281889CARLITA DE FIGUEIREDO CARVALHO          AVENIDA ALBERTO DE ALMEIDA VINHAS - 4462            11701350                                                            000059
2SR. CAIXA, APOS O VENCIMENTO COBRAR 10% DE MULTA                                NAO RECEBER APOS 30 DIAS DO VENCIMENTO.                                                                                                                                                                                                         01081700000000000000108170000000000000       0090770900066125000700762710000060
100000000000000000000009077090006612500000000000000000000000010002100000073096974300000000002            2  01007309697410081700000003191370000000001N010817000000000000000000000000000000000000000000000000000000000000000100004213020894ELIETE DRUGOVICH DE LIMA                RUA OSVALDO CRUZ - 141 AP.144-B - SANTA             09541270                                                            000062
2SR. CAIXA, APOS O VENCIMENTO COBRAR 10% DE MULTA                                NAO RECEBER APOS 30 DIAS DO VENCIMENTO.                                                                                                                                                                                                         01081700000000000000108170000000000000       0090770900066125000730969743000063
100000000000000000000009077090006612500000000000000000000000010002100000075007176P00000000002            2  01007500717610081700000002435750000000001N010817000000000000000000000000000000000000000000000000000000000000000100085839817872MAURO CORREIA MARTINS                   RUA PROFESSOR JOSE AZEVEDO MINHOTO - 72             06114000                                                            000065
2SR. CAIXA, APOS O VENCIMENTO COBRAR 10% DE MULTA                                NAO RECEBER APOS 30 DIAS DO VENCIMENTO.                                                                                                                                                                                                         01081700000000000000108170000000000000       009077090006612500075007176P000066
100000000000000000000009077090006612500000000000000000000000010002100000078743480300000000002            2  01007874348010081700000002175220000000001N010817000000000000000000000000000000000000000000000000000000000000000100043122850800ANTONIO JOAQUIM GOES                    ANTONIO DOAS DA SILVA - 412 - VILA AMALI            02618110                                                            000068
2SR. CAIXA, APOS O VENCIMENTO COBRAR 10% DE MULTA                                NAO RECEBER APOS 30 DIAS DO VENCIMENTO.                                                                                                                                                                                                         01081700000000000000108170000000000000       0090770900066125000787434803000069
100000000000000000000009077090006612500000000000000000000000010002100000086448088000000000002            2  01008644808810081700000002855930000000001N010817000000000000000000000000000000000000000000000000000000000000000100003865776841FRANCISCO JOSE ROCCO                    RUA FABIO JOSE BEZERRA - 130 AP.86 - PAR            03805000                                                            000071
2SR. CAIXA, APOS O VENCIMENTO COBRAR 10% DE MULTA                                NAO RECEBER APOS 30 DIAS DO VENCIMENTO.                                                                                                                                                                                                         01081700000000000000108170000000000000       0090770900066125000864480880000072
100000000000000000000009077090006612500000000000000000000000010002100000091498393500000000002            2  01009149839310081700000002546830000000001N010817000000000000000000000000000000000000000000000000000000000000000100028309524803DEISE RIBEIRO BARBOSA                   RUA CANDIDO JOSE DE ANDRADE - 173 - ERME            03807030                                                            000074
2SR. CAIXA, APOS O VENCIMENTO COBRAR 10% DE MULTA                                NAO RECEBER APOS 30 DIAS DO VENCIMENTO.                                                                                                                                                                                                         01081700000000000000108170000000000000       0090770900066125000914983935000075
100000000000000000000009077090006612500000000000000000000000010002100000093508695P00000000002            2  01009350869510081700000003022790000000001N010817000000000000000000000000000000000000000000000000000000000000000100011277908893JOSE AILTON LOPES DE AZEVEDO            RUA MAESTRO JOAO SEPE - 19 - JARDIM MARI            04181030                                                            000077
2SR. CAIXA, APOS O VENCIMENTO COBRAR 10% DE MULTA                                NAO RECEBER APOS 30 DIAS DO VENCIMENTO.                                                                                                                                                                                                         01081700000000000000108170000000000000       009077090006612500093508695P000078
100000000000000000000009077090006612500000000000000000000000010002100000097798999200000000002            2  01009779899910081700000002279590000000001N010817000000000000000000000000000000000000000000000000000000000000000100025215106886KLEBER LUIZ DOS SANTOS                  RUA CAPITAO JOSE MEIRELES - 47 - CAPITAO            11330180                                                            000080
2SR. CAIXA, APOS O VENCIMENTO COBRAR 10% DE MULTA                                NAO RECEBER APOS 30 DIAS DO VENCIMENTO.                                                                                                                                                                                                         01081700000000000000108170000000000000       0090770900066125000977989992000081
100000000000000000000009077090006612500000000000000000000000010002100001014893103600000000002            2  01101489310310081700000002546190000000001N010817000000000000000000000000000000000000000000000000000000000000000100090206789815NEREIDE RODRIGUES FERREIRA              AVENIDA PADRE ESTANISLAU DE CAMPOS - 205            03590060                                                            000083
2SR. CAIXA, APOS O VENCIMENTO COBRAR 10% DE MULTA                                NAO RECEBER APOS 30 DIAS DO VENCIMENTO.                                                                                                                                                                                                         01081700000000000000108170000000000000       0090770900066125010148931036000084
100000000000000000000009077090006612500000000000000000000000010002100001057597107300000000002            2  01105759710710081700000002812190000000001N010817000000000000000000000000000000000000000000000000000000000000000100023027012835RUBEN ALBERTO DIAZ                      RUA MONTE CASTELO - 296 AP.104 - AVIACAO            11702720                                                            000086
2SR. CAIXA, APOS O VENCIMENTO COBRAR 10% DE MULTA                                NAO RECEBER APOS 30 DIAS DO VENCIMENTO.                                                                                                                                                                                                         01081700000000000000108170000000000000       0090770900066125010575971073000087
100000000000000000000009077090006612500000000000000000000000010002100010874100110P00000000002            2  01108741001110081700000002980370000000001N010817000000000000000000000000000000000000000000000000000000000000000100029150742833ANA DEISE SANTOS DE ALMEIDA             RUA MONTE CASTELO - 296 AP.121 - AVIACAO            11702720                                                            000089
2SR. CAIXA, APOS O VENCIMENTO COBRAR 10% DE MULTA                                NAO RECEBER APOS 30 DIAS DO VENCIMENTO.                                                                                                                                                                                                         01081700000000000000108170000000000000       009077090006612510874100110P000090
100000000000000000000009077090006612500000000000000000000000010002100010976101111600000000002            2  01109761011110081700000002454880000000001N010817000000000000000000000000000000000000000000000000000000000000000100000811752801SERGIO BUENO DA SILVA                   RUA MONTE CASTELO - 262 AP.75 - AVIACAO             11702720                                                            000092
2SR. CAIXA, APOS O VENCIMENTO COBRAR 10% DE MULTA                                NAO RECEBER APOS 30 DIAS DO VENCIMENTO.                                                                                                                                                                                                         01081700000000000000108170000000000000       0090770900066125109761011116000093
100000000000000000000009077090006612500000000000000000000000010002100011282104115000000000002            2  01112821041110081700000002345150000000001N010817000000000000000000000000000000000000000000000000000000000000000100027100951810MARCIA RAMALHO RODRIGUES                RUA MONTE CASTELO - 296 AP.82 - AVIACAO             11702720                                                            000095
2SR. CAIXA, APOS O VENCIMENTO COBRAR 10% DE MULTA                                NAO RECEBER APOS 30 DIAS DO VENCIMENTO.                                                                                                                                                                                                         01081700000000000000108170000000000000       0090770900066125112821041150000096
100000000000000000000009077090006612500000000000000000000000010002100011572107118300000000002            2  01115721071110081700000003120660000000001N010817000000000000000000000000000000000000000000000000000000000000000100018344803888MARCELO BERNARDO                        RUA ESTONIA - 06 - INTERLAGOS - SAO PAUL            04785140                                                            000098
2SR. CAIXA, APOS O VENCIMENTO COBRAR 10% DE MULTA                                NAO RECEBER APOS 30 DIAS DO VENCIMENTO.                                                                                                                                                                                                         01081700000000000000108170000000000000       0090770900066125115721071183000099
100000000000000000000009077090006612500000000000000000000000010002100012582115128700000000002            2  01125821151210081700000002327200000000001N010817000000000000000000000000000000000000000000000000000000000000000100030210501820ROGERIO MUNIZ DA CUNHA                  RUA MONTE CASTELO - 296 AP.34 - AVIACAO             11702720                                                            000101
2SR. CAIXA, APOS O VENCIMENTO COBRAR 10% DE MULTA                                NAO RECEBER APOS 30 DIAS DO VENCIMENTO.                                                                                                                                                                                                         01081700000000000000108170000000000000       0090770900066125125821151287000102
100000000000000000000009077090006612500000000000000000000000010002100012790117130300000000002            2  01127901171310081700000004375100000000001N010817000000000000000000000000000000000000000000000000000000000000000100004004328896VANDERLEI  MARTINS DE ALMEIDA           RUA MONSENHOR TABOSA - 03 - PARQUE CISPE            03819300                                                            000104
2SR. CAIXA, APOS O VENCIMENTO COBRAR 10% DE MULTA                                NAO RECEBER APOS 30 DIAS DO VENCIMENTO.                                                                                                                                                                                                         01081700000000000000108170000000000000       0090770900066125127901171303000105
100000000000000000000009077090006612500000000000000000000000010002100013225120135400000000002            2  01132251201310081700000002988330000000001N010817000000000000000000000000000000000000000000000000000000000000000100005133053860VICENTE ARCIPRETE JUNIOR                RUA JOSE SIMOES FERREIRA FILHO - 80 - JA            06040090                                                            000107
2SR. CAIXA, APOS O VENCIMENTO COBRAR 10% DE MULTA                                NAO RECEBER APOS 30 DIAS DO VENCIMENTO.                                                                                                                                                                                                         01081700000000000000108170000000000000       0090770900066125132251201354000108
100000000000000000000009077090006612500000000000000000000000010002100001382092141800000000002            2  01138209214110081700000000726850000000001N010817000000000000000000000000000000000000000000000000000000000000000100056660235868JOSE DA SILVA                           RUA MONTE CASTELO - 296 AP.32 - AVIACAO             11702720                                                            000110
2SR. CAIXA, APOS O VENCIMENTO COBRAR 10% DE MULTA                                NAO RECEBER APOS 30 DIAS DO VENCIMENTO.                                                                                                                                                                                                         01081700000000000000108170000000000000       0090770900066125013820921418000111
100000000000000000000009077090006612500000000000000000000000010002100013900124142800000000002            2  01139001241410081700000002639660000000001N010817000000000000000000000000000000000000000000000000000000000000000100016339432832ALEX MONTEIRO DA SILVA                  RUA IVA MOURA LIMA - 04 - JARDIM MIRNA I            04855540                                                            000113
2SR. CAIXA, APOS O VENCIMENTO COBRAR 10% DE MULTA                                NAO RECEBER APOS 30 DIAS DO VENCIMENTO.                                                                                                                                                                                                         01081700000000000000108170000000000000       0090770900066125139001241428000114
100000000000000000000009077090006612500000000000000000000000010002100013998125143200000000002            2  01139981251410081700000002695590000000001N010817000000000000000000000000000000000000000000000000000000000000000100031803864877ELEILSON FELIPPE SANTOS                 RUA SANTA GREGORIA - 193 - CIDADE DUTRA             04806030                                                            000116
2SR. CAIXA, APOS O VENCIMENTO COBRAR 10% DE MULTA                                NAO RECEBER APOS 30 DIAS DO VENCIMENTO.                                                                                                                                                                                                         01081700000000000000108170000000000000       0090770900066125139981251432000117
100000000000000000000009077090006612500000000000000000000000010002100014424127147600000000002            2  01144241271410081700000001855000000000001N010817000000000000000000000000000000000000000000000000000000000000000100026032632857MARILA LOPES PEREIRA                    RUA ESTRADA DO M BOI MIRIM - 820 BL.05 A            04905000                                                            000119
2SR. CAIXA, APOS O VENCIMENTO COBRAR 10% DE MULTA                                NAO RECEBER APOS 30 DIAS DO VENCIMENTO.                                                                                                                                                                                                         01081700000000000000108170000000000000       0090770900066125144241271476000120
100000000000000000000009077090006612500000000000000000000000010002100014522128148P00000000002            2  01145221281410081700000003212310000000001N010817000000000000000000000000000000000000000000000000000000000000000100063064537849ANTONIO APARECIDO DA SILVA DESTEFANO    RUA PROFESSOR TEODORO BRAGA - 46 - VILA             02966020                                                            000122
2SR. CAIXA, APOS O VENCIMENTO COBRAR 10% DE MULTA                                NAO RECEBER APOS 30 DIAS DO VENCIMENTO.                                                                                                                                                                                                         01081700000000000000108170000000000000       009077090006612514522128148P000123
100000000000000000000009077090006612500000000000000000000000010002100014856130152200000000002            2  01148561301510081700000003078350000000001N010817000000000000000000000000000000000000000000000000000000000000000100010107711834VALDEMAR FECCHIO                        RUA DOUTOR MARTINS DE OLIVEIRA - 529 AP.            05638030                                                            000125
2SR. CAIXA, APOS O VENCIMENTO COBRAR 10% DE MULTA                                NAO RECEBER APOS 30 DIAS DO VENCIMENTO.                                                                                                                                                                                                         01081700000000000000108170000000000000       0090770900066125148561301522000126
100000000000000000000009077090006612500000000000000000000000010002100015200131156200000000002            2  01152001311510081700000003960120000000001N010817000000000000000000000000000000000000000000000000000000000000000100003330791837MARLI DA SILVA BARBOSA                  RUA GLICERIO CERQUEIRA LEITE - 151 - JAR            03675040                                                            000128
2SR. CAIXA, APOS O VENCIMENTO COBRAR 10% DE MULTA                                NAO RECEBER APOS 30 DIAS DO VENCIMENTO.                                                                                                                                                                                                         01081700000000000000108170000000000000       0090770900066125152001311562000129
100000000000000000000009077090006612500000000000000000000000010002100015401132158500000000002            2  01154011321510081700000001609740000000001N010817000000000000000000000000000000000000000000000000000000000000000100008931031874MARIA MARINHO DE OLIVEIRA               AVENIDA 9 DE JULHO - 1854 AP.81 - BELA V            01312001                                                            000131
2SR. CAIXA, APOS O VENCIMENTO COBRAR 10% DE MULTA                                NAO RECEBER APOS 30 DIAS DO VENCIMENTO.                                                                                                                                                                                                         01081700000000000000108170000000000000       0090770900066125154011321585000132
100000000000000000000009077090006612500000000000000000000000010002100015606134160100000000002            2  01156061341610081700000001870220000000001N010817000000000000000000000000000000000000000000000000000000000000000100005920579846SONIA MARIA VALDO POLLO                 RUA PALMIRA CERVI BARBARO - 797 - CIDADE            13214370                                                            000134
2SR. CAIXA, APOS O VENCIMENTO COBRAR 10% DE MULTA                                NAO RECEBER APOS 30 DIAS DO VENCIMENTO.                                                                                                                                                                                                         01081700000000000000108170000000000000       0090770900066125156061341601000135
100000000000000000000009077090006612500000000000000000000000010002100017886137181200000000002            2  01178861371810081700000002811960000000001N010817000000000000000000000000000000000000000000000000000000000000000100002494107881CIRO FRANCISCO MARCHI DURIGON           RUA MONTE CASTELO - 262 AP.115 - AVIACAO            11702720                                                            000137
2SR. CAIXA, APOS O VENCIMENTO COBRAR 10% DE MULTA                                NAO RECEBER APOS 30 DIAS DO VENCIMENTO.                                                                                                                                                                                                         01081700000000000000108170000000000000       0090770900066125178861371812000138
100000000000000000000009077090006612500000000000000000000000010002100019043150190900000000002            2  01190431501910081700000002764310000000001N010817000000000000000000000000000000000000000000000000000000000000000100007002345869DOMINGOS DE BRITO GALVAO                RUA MONTE CASTELO - 262 AP.44 - AVIACAO             11702720                                                            000140
2SR. CAIXA, APOS O VENCIMENTO COBRAR 10% DE MULTA                                NAO RECEBER APOS 30 DIAS DO VENCIMENTO.                                                                                                                                                                                                         01081700000000000000108170000000000000       0090770900066125190431501909000141
100000000000000000000009077090006612500000000000000000000000010002100019696155195600000000002            2  01196961551910081700000001151490000000001N010817000000000000000000000000000000000000000000000000000000000000000100009346863862NELSON DE SOUZA SANTOS                  RUA PRIMEIRA CRUZ - 90 - PARQUE INDEPEND            03236060                                                            000143
2SR. CAIXA, APOS O VENCIMENTO COBRAR 10% DE MULTA                                NAO RECEBER APOS 30 DIAS DO VENCIMENTO.                                                                                                                                                                                                         01081700000000000000108170000000000000       0090770900066125196961551956000144
100000000000000000000009077090006612500000000000000000000000010002100020049157198700000000002            2  01200491571910081700000002664770000000001N010817000000000000000000000000000000000000000000000000000000000000000100016299008857FERNANDO CESAR CARVALHO                 AVENIDA MARCONDES DE BRITO - 1340 AP.74             03509000                                                            000146
2SR. CAIXA, APOS O VENCIMENTO COBRAR 10% DE MULTA                                NAO RECEBER APOS 30 DIAS DO VENCIMENTO.                                                                                                                                                                                                         01081700000000000000108170000000000000       0090770900066125200491571987000147
100000000000000000000009077090006612500000000000000000000000010002100002251875219300000000002            2  01225187521910081700000002677700000000001N010817000000000000000000000000000000000000000000000000000000000000000100031082898880VANESSA DOS SANTOS NEIVA                RUA MONTE CASTELO - 296 AP.33 - BAIRRO A            11702720                                                            000149
2SR. CAIXA, APOS O VENCIMENTO COBRAR 10% DE MULTA                                NAO RECEBER APOS 30 DIAS DO VENCIMENTO.                                                                                                                                                                                                         01081700000000000000108170000000000000       0090770900066125022518752193000150
100000000000000000000009077090006612500000000000000000000000010002100026874143250700000000002            2  01268741432510081700000001630350000000001N010817000000000000000000000000000000000000000000000000000000000000000100065895304834MARINHO BARBOSA CUNHA                   AVENIDA EDU CHAVES - 639 AP.43 - PARQUE             02229000                                                            000152
2SR. CAIXA, APOS O VENCIMENTO COBRAR 10% DE MULTA                                NAO RECEBER APOS 30 DIAS DO VENCIMENTO.                                                                                                                                                                                                         01081700000000000000108170000000000000       0090770900066125268741432507000153
9                                                                                                                                                                                                                                                                                                                                                                                                         000154