01REMESSA01COBRANCA       00000000000008017025HB SANTOS CONSTRUTORA E INCORP237BRADESCO       040621        MX0000130                                                                                                                                                                                                                                                                                     000001
100000000000000000000009033990000627000000000000000000000000010002020025035106211700000000002            2  01250351062124062100000002464900000000001N040621000000000000000000000000000000000000000000000000000000000000000100025035170802WANDERSON LUIS DE CARVALHO              RUA JOAQUIM GONCALVES ROCHA - 302 - JARD            02859030                                                            000002
2SR. CAIXA, APOS O VENCIMENTO COBRAR 2% DE MULTA                                 NAO RECEBER APOS 30 DIAS DO VENCIMENTO.                                                                                                                                                                                                         04062100000000000000406210000000000000       0090339900006270250351062117000003
100000000000000000000009033990000627000000000000000000000000010002020007294306211400000000002            2  01072943062124062100000003315320000000001N040621000000000000000000000000000000000000000000000000000000000000000100007294351805CLAUDENIR APARECIDO VACARI              RUA CARLOS JOSE BORSTENS - 50 AP.93 - AV            11702750                                                            000005
2SR. CAIXA, APOS O VENCIMENTO COBRAR 2% DE MULTA                                 NAO RECEBER APOS 30 DIAS DO VENCIMENTO.                                                                                                                                                                                                         04062100000000000000406210000000000000       0090339900006270072943062114000006
100000000000000000000009033990000627000000000000000000000000010002020007525006211P00000000002            2  01075250062124062100000003708340000000001N040621000000000000000000000000000000000000000000000000000000000000000100007525032866FERNANDO RIBEIRO                        RUA CARLOS JOSE BORSTENS - 50 AP.32 - AV            11702750                                                            000008
2SR. CAIXA, APOS O VENCIMENTO COBRAR 2% DE MULTA                                 NAO RECEBER APOS 30 DIAS DO VENCIMENTO.                                                                                                                                                                                                         04062100000000000000406210000000000000       009033990000627007525006211P000009
100000000000000000000009033990000627000000000000000000000000010002020005071406211500000000002            2  01050714062124062100000003252930000000001N040621000000000000000000000000000000000000000000000000000000000000000100005071481855ERIBALDO SANTANA CARVALHO               RUA HONDURAS - 477 - PARQUE DAS AMERICAS            09351070                                                            000011
2SR. CAIXA, APOS O VENCIMENTO COBRAR 2% DE MULTA                                 NAO RECEBER APOS 30 DIAS DO VENCIMENTO.                                                                                                                                                                                                         04062100000000000000406210000000000000       0090339900006270050714062115000012
100000000000000000000009033990000627000000000000000000000000010002020002841706211900000000002            2  01028417062124062100000003043410000000001N040621000000000000000000000000000000000000000000000000000000000000000100002841756416LUCIANA PINHEIRO DE ASSIS NUNES         RUA RIO ACIMA - 81 - RIACHO GRANDE - SAO            09830100                                                            000014
2SR. CAIXA, APOS O VENCIMENTO COBRAR 2% DE MULTA                                 NAO RECEBER APOS 30 DIAS DO VENCIMENTO.                                                                                                                                                                                                         04062100000000000000406210000000000000       0090339900006270028417062119000015
100000000000000000000009033990000627000000000000000000000000010002020084302006211800000000002            2  01843020062124062100000003058000000000001N040621000000000000000000000000000000000000000000000000000000000000000100084302097868FAUSTO TADEU VILOR                      RUA ANTONIO TAVARES - 466 - BAIRRO CAMBU            01542010                                                            000017
2SR. CAIXA, APOS O VENCIMENTO COBRAR 2% DE MULTA                                 NAO RECEBER APOS 30 DIAS DO VENCIMENTO.                                                                                                                                                                                                         04062100000000000000406210000000000000       0090339900006270843020062118000018
100000000000000000000009033990000627000000000000000000000000010002020028804206211800000000002            2  01288042062124062100000003004540000000001N040621000000000000000000000000000000000000000000000000000000000000000100028804202882GILBERTO FABIANO CABRAL DE CAMARGO      RUA CARLOS JOSE BORSTENS - 50 AP.44 - AV            11702750                                                            000020
2SR. CAIXA, APOS O VENCIMENTO COBRAR 2% DE MULTA                                 NAO RECEBER APOS 30 DIAS DO VENCIMENTO.                                                                                                                                                                                                         04062100000000000000406210000000000000       0090339900006270288042062118000021
100000000000000000000009033990000627000000000000000000000000010002020000991706211000000000002            2  01009917062124062100000002932540000000001N040621000000000000000000000000000000000000000000000000000000000000000100000991748808JAILSON BORGES DE ANDRADE               RUA IPIOBUNA - 45 - JARDIM CUMBICA - GUA            07240040                                                            000023
2SR. CAIXA, APOS O VENCIMENTO COBRAR 2% DE MULTA                                 NAO RECEBER APOS 30 DIAS DO VENCIMENTO.                                                                                                                                                                                                         04062100000000000000406210000000000000       0090339900006270009917062110000024
100000000000000000000009033990000627000000000000000000000000010002020022151606211700000000002            2  01221516062124062100000002915490000000001N040621000000000000000000000000000000000000000000000000000000000000000100022151666816SAMIR LIMA DE ARAUJO                    AVENIDA GUARAPIRANGA - 2616 AP.131 BL.14            04902005                                                            000026
2SR. CAIXA, APOS O VENCIMENTO COBRAR 2% DE MULTA                                 NAO RECEBER APOS 30 DIAS DO VENCIMENTO.                                                                                                                                                                                                         04062100000000000000406210000000000000       0090339900006270221516062117000027
100000000000000000000009033990000627000000000000000000000000010002020022313106211900000000002            2  01223131062126062100000002242720000000001N040621000000000000000000000000000000000000000000000000000000000000000100022313116824ROSA MARIA BRITO DA SILVA               RUA SERVIDAO DE SAO MARCOS - 113 - JARDI            04930300                                                            000029
2SR. CAIXA, APOS O VENCIMENTO COBRAR 2% DE MULTA                                 NAO RECEBER APOS 30 DIAS DO VENCIMENTO.                                                                                                                                                                                                         04062100000000000000406210000000000000       0090339900006270223131062119000030
100000000000000000000009033990000627000000000000000000000000010002020027538006211000000000002            2  01275380062126062100000002250540000000001N040621000000000000000000000000000000000000000000000000000000000000000100027538087249MARA LUCIA MENEZES DA COSTA             RUA LEILA  - 183 - ITAQUERA - SAO PAULO             08240020                                                            000032
2SR. CAIXA, APOS O VENCIMENTO COBRAR 2% DE MULTA                                 NAO RECEBER APOS 30 DIAS DO VENCIMENTO.                                                                                                                                                                                                         04062100000000000000406210000000000000       0090339900006270275380062110000033
100000000000000000000009033990000627000000000000000000000000010002020031278406211700000000002            2  01312784062124062100000002816480000000001N040621000000000000000000000000000000000000000000000000000000000000000100031278411836JEFFERSON DE PIERI PIRES ZAMUNER        RUA MANOEL ARCE - 277 - PARQUE BANCARIO             03922150                                                            000035
2SR. CAIXA, APOS O VENCIMENTO COBRAR 2% DE MULTA                                 NAO RECEBER APOS 30 DIAS DO VENCIMENTO.                                                                                                                                                                                                         04062100000000000000406210000000000000       0090339900006270312784062117000036
100000000000000000000009033990000627000000000000000000000000010002020019185706211900000000002            2  01191857062126062100000002048040000000001N040621000000000000000000000000000000000000000000000000000000000000000100019185769800AGUINALDO PESSOA DE LIMA                RUA JANUARIO ZINGARO - 252 AP.303 BL.04             05794300                                                            000038
2SR. CAIXA, APOS O VENCIMENTO COBRAR 2% DE MULTA                                 NAO RECEBER APOS 30 DIAS DO VENCIMENTO.                                                                                                                                                                                                         04062100000000000000406210000000000000       0090339900006270191857062119000039
100000000000000000000009033990000627000000000000000000000000010002020033303606211P00000000002            2  01333036062126062100000002205920000000001N040621000000000000000000000000000000000000000000000000000000000000000100033303645809JESSICA DA SILVA FREITAS                RUA ARILDO VALADAO - 120 - JARDIM GUAEMB            04814600                                                            000041
2SR. CAIXA, APOS O VENCIMENTO COBRAR 2% DE MULTA                                 NAO RECEBER APOS 30 DIAS DO VENCIMENTO.                                                                                                                                                                                                         04062100000000000000406210000000000000       009033990000627033303606211P000042
100000000000000000000009033990000627000000000000000000000000010002020006422606211500000000002            2  01064226062124062100000003050290000000001N040621000000000000000000000000000000000000000000000000000000000000000100006422607881GERALDO ALVES DA SILVA                  RUA CARLOS JOSE BORSTENS - 50 AP.14 - AV            11702750                                                            000044
2SR. CAIXA, APOS O VENCIMENTO COBRAR 2% DE MULTA                                 NAO RECEBER APOS 30 DIAS DO VENCIMENTO.                                                                                                                                                                                                         04062100000000000000406210000000000000       0090339900006270064226062115000045
100000000000000000000009033990000627000000000000000000000000010002020033877106211700000000002            2  01338771062126062100000002068120000000001N040621000000000000000000000000000000000000000000000000000000000000000100033877129870HELDER FERREIRA VIANA                   RUA JOSE CALIXTO DO CARMO - 286 AP.35 -             11702690                                                            000047
2SR. CAIXA, APOS O VENCIMENTO COBRAR 2% DE MULTA                                 NAO RECEBER APOS 30 DIAS DO VENCIMENTO.                                                                                                                                                                                                         04062100000000000000406210000000000000       0090339900006270338771062117000048
100000000000000000000009033990000627000000000000000000000000010002020028290706211000000000002            2  01282907062126062100000001906040000000001N040621000000000000000000000000000000000000000000000000000000000000000100028290719809VANESSA GIANGARRELLI PEREIRA            RUA BARINEL - 72 - JARDIM COTCHING - SAO            03462130                                                            000050
2SR. CAIXA, APOS O VENCIMENTO COBRAR 2% DE MULTA                                 NAO RECEBER APOS 30 DIAS DO VENCIMENTO.                                                                                                                                                                                                         04062100000000000000406210000000000000       0090339900006270282907062110000051
100000000000000000000009033990000627000000000000000000000000010002020087573006211600000000002            2  01875730062126062100000002081370000000001N040621000000000000000000000000000000000000000000000000000000000000000100087573059604VANDERLEY DE ASSIS                      RUA ROMEU ALBANI - 268 - JARDIM PARQUE R            13803810                                                            000053
2SR. CAIXA, APOS O VENCIMENTO COBRAR 2% DE MULTA                                 NAO RECEBER APOS 30 DIAS DO VENCIMENTO.                                                                                                                                                                                                         04062100000000000000406210000000000000       0090339900006270875730062116000054
100000000000000000000009033990000627000000000000000000000000010002020010825506211300000000002            2  01108255062126062100000002172010000000001N040621000000000000000000000000000000000000000000000000000000000000000100010825513847JOSE APARECIDO PEREIRA                  RUA GENERAL OSORIO - 305 - JARDIM TRINTA            11515130                                                            000056
2SR. CAIXA, APOS O VENCIMENTO COBRAR 2% DE MULTA                                 NAO RECEBER APOS 30 DIAS DO VENCIMENTO.                                                                                                                                                                                                         04062100000000000000406210000000000000       0090339900006270108255062113000057
100000000000000000000009033990000627000000000000000000000000010002020039115106211500000000002            2  01391151062126062100000002677390000000001N040621000000000000000000000000000000000000000000000000000000000000000100039115139840LAIS CRISTINA RIBEIRO ANDO              RUA JOSE CALIXTO DO CARMO - 286 AP.65 -             11702690                                                            000059
2SR. CAIXA, APOS O VENCIMENTO COBRAR 2% DE MULTA                                 NAO RECEBER APOS 30 DIAS DO VENCIMENTO.                                                                                                                                                                                                         04062100000000000000406210000000000000       0090339900006270391151062115000060
100000000000000000000009033990000627000000000000000000000000010002020029617506211300000000002            2  01296175062124062100000002993960000000001N040621000000000000000000000000000000000000000000000000000000000000000100029617510553MARILENE SOUZA DE OLIVEIRA              AVENIDA BRASIL - 393 AP.09 - PARQUE DAS             09210280                                                            000062
2SR. CAIXA, APOS O VENCIMENTO COBRAR 2% DE MULTA                                 NAO RECEBER APOS 30 DIAS DO VENCIMENTO.                                                                                                                                                                                                         04062100000000000000406210000000000000       0090339900006270296175062113000063
100000000000000000000009033990000627000000000000000000000000010002020000593206211300000000002            2  01005932062124062100000003283640000000001N040621000000000000000000000000000000000000000000000000000000000000000100000593293860WALTER HELIO BARBOSA FILHO              AVENIDA ANTONIO FREDERICO OZANAN - 9500             13214206                                                            000065
2SR. CAIXA, APOS O VENCIMENTO COBRAR 2% DE MULTA                                 NAO RECEBER APOS 30 DIAS DO VENCIMENTO.                                                                                                                                                                                                         04062100000000000000406210000000000000       0090339900006270005932062113000066
100000000000000000000009033990000627000000000000000000000000010002020065584106211500000000002            2  01655841062124062100000001723740000000001N040621000000000000000000000000000000000000000000000000000000000000000100065584147834JOAQUIM DA COSTA MACHADO NETO           RUA CARLOS JOSE BORSTENS - 50 AP.42 - AV            11702750                                                            000068
2SR. CAIXA, APOS O VENCIMENTO COBRAR 2% DE MULTA                                 NAO RECEBER APOS 30 DIAS DO VENCIMENTO.                                                                                                                                                                                                         04062100000000000000406210000000000000       0090339900006270655841062115000069
100000000000000000000009033990000627000000000000000000000000010002020065584106212300000000002            2  01655841062124062100000001723730000000001N040621000000000000000000000000000000000000000000000000000000000000000100065584147834JOAQUIM DA COSTA MACHADO NETO           RUA CARLOS JOSE BORSTENS - 50 AP.42 - AV            11702750                                                            000071
2SR. CAIXA, APOS O VENCIMENTO COBRAR 2% DE MULTA                                 NAO RECEBER APOS 30 DIAS DO VENCIMENTO.                                                                                                                                                                                                         04062100000000000000406210000000000000       0090339900006270655841062123000072
100000000000000000000009033990000627000000000000000000000000010002020006684606211800000000002            2  01066846062126062100000002205650000000001N040621000000000000000000000000000000000000000000000000000000000000000100006684623884LAUDINOR VIEIRA GARCIA                  RUA CANDIDO SALES - 374 - JARDIM PRESIDE            07172000                                                            000074
2SR. CAIXA, APOS O VENCIMENTO COBRAR 2% DE MULTA                                 NAO RECEBER APOS 30 DIAS DO VENCIMENTO.                                                                                                                                                                                                         04062100000000000000406210000000000000       0090339900006270066846062118000075
100000000000000000000009033990000627000000000000000000000000010002020011663506211900000000002            2  01116635062126062100000002221510000000001N040621000000000000000000000000000000000000000000000000000000000000000100011663589844MARIA SAVIO QUARELLO                    AVENIDA MENDONCA DRUMOND - 321 - JARDIM             03524030                                                            000077
2SR. CAIXA, APOS O VENCIMENTO COBRAR 2% DE MULTA                                 NAO RECEBER APOS 30 DIAS DO VENCIMENTO.                                                                                                                                                                                                         04062100000000000000406210000000000000       0090339900006270116635062119000078
100000000000000000000009033990000627000000000000000000000000010002020010083806211000000000002            2  01100838062126062100000002146350000000001N040621000000000000000000000000000000000000000000000000000000000000000100010083824855IONE FERREIRA COUTO DA SILVA            RUA JOSE RAGEL DE MESQUITA - 60 CS.01 -             07799999                                                            000080
2SR. CAIXA, APOS O VENCIMENTO COBRAR 2% DE MULTA                                 NAO RECEBER APOS 30 DIAS DO VENCIMENTO.                                                                                                                                                                                                         04062100000000000000406210000000000000       0090339900006270100838062110000081
100000000000000000000009033990000627000000000000000000000000010002020031010706211600000000002            2  01310107062126062100000002106260000000001N040621000000000000000000000000000000000000000000000000000000000000000100031010705890ANDRE GONZALEZ RABELLO                  RUA PARAIBA - 106 AP.61 - POMPEIA - SANT            11065470                                                            000083
2SR. CAIXA, APOS O VENCIMENTO COBRAR 2% DE MULTA                                 NAO RECEBER APOS 30 DIAS DO VENCIMENTO.                                                                                                                                                                                                         04062100000000000000406210000000000000       0090339900006270310107062116000084
100000000000000000000009033990000627000000000000000000000000010002020005351006211500000000002            2  01053510062126062100000001974840000000001N040621000000000000000000000000000000000000000000000000000000000000000100005351015897VALERIA ALVES MARCOLINO HINNIGER        RUA JOSE CALIXTO DO CARMO - 286 AP.92 -             11702690                                                            000086
2SR. CAIXA, APOS O VENCIMENTO COBRAR 2% DE MULTA                                 NAO RECEBER APOS 30 DIAS DO VENCIMENTO.                                                                                                                                                                                                         04062100000000000000406210000000000000       0090339900006270053510062115000087
100000000000000000000009033990000627000000000000000000000000010002020031898706211000000000002            2  01318987062124062100000003141920000000001N040621000000000000000000000000000000000000000000000000000000000000000100031898775800ANITA MARTINS COLOMBO                   RUA CARLOS JOSE BORSTENS - 50 AP.115 - A            11702750                                                            000089
2SR. CAIXA, APOS O VENCIMENTO COBRAR 2% DE MULTA                                 NAO RECEBER APOS 30 DIAS DO VENCIMENTO.                                                                                                                                                                                                         04062100000000000000406210000000000000       0090339900006270318987062110000090
100000000000000000000009033990000627000000000000000000000000010002020037983406211000000000002            2  01379834062126062100000002319810000000001N040621000000000000000000000000000000000000000000000000000000000000000100037983484801JOSE ERIVALDO SOUZA DO NASCIMENTO RAMOS RUA LETICIA - 250 - JARDIM GUARUJA - SAO            05877260                                                            000092
2SR. CAIXA, APOS O VENCIMENTO COBRAR 2% DE MULTA                                 NAO RECEBER APOS 30 DIAS DO VENCIMENTO.                                                                                                                                                                                                         04062100000000000000406210000000000000       0090339900006270379834062110000093
100000000000000000000009033990000627000000000000000000000000010002020056289206211100000000002            2  01562892062126062100000001752500000000001N040621000000000000000000000000000000000000000000000000000000000000000100056289286900PEDRO RIBEIRO                           RUA CONEGO MANOEL VAZ - 48 - SANTANA - S            02019050                                                            000095
2SR. CAIXA, APOS O VENCIMENTO COBRAR 2% DE MULTA                                 NAO RECEBER APOS 30 DIAS DO VENCIMENTO.                                                                                                                                                                                                         04062100000000000000406210000000000000       0090339900006270562892062111000096
100000000000000000000009033990000627000000000000000000000000010002020034735306211800000000002            2  01347353062126062100000002405190000000001N040621000000000000000000000000000000000000000000000000000000000000000100034735328866DIEGO FELIPE MOLINA DA SILVA E SOUSA    RUA EMILIA PAULISTA - 135 - VILA TIRADEN            05364020                                                            000098
2SR. CAIXA, APOS O VENCIMENTO COBRAR 2% DE MULTA                                 NAO RECEBER APOS 30 DIAS DO VENCIMENTO.                                                                                                                                                                                                         04062100000000000000406210000000000000       0090339900006270347353062118000099
100000000000000000000009033990000627000000000000000000000000010002020076175606211900000000002            2  01761756062124062100000004360330000000001N040621000000000000000000000000000000000000000000000000000000000000000100076175685687GILMAR DE OLIVEIRA BRAGA                RUA MARACAJU - 161 AP.202 - NOVA GRANADA            30431350                                                            000101
2SR. CAIXA, APOS O VENCIMENTO COBRAR 2% DE MULTA                                 NAO RECEBER APOS 30 DIAS DO VENCIMENTO.                                                                                                                                                                                                         04062100000000000000406210000000000000       0090339900006270761756062119000102
100000000000000000000009033990000627000000000000000000000000010002020034812206211100000000002            2  01348122062124062100000004158470000000001N040621000000000000000000000000000000000000000000000000000000000000000100034812226880THAIS TORQUATO MIMOSO DE JESUS          RUA ARNALDO CINTRA - 416 AP.104 TORRE 2             03088000                                                            000104
2SR. CAIXA, APOS O VENCIMENTO COBRAR 2% DE MULTA                                 NAO RECEBER APOS 30 DIAS DO VENCIMENTO.                                                                                                                                                                                                         04062100000000000000406210000000000000       0090339900006270348122062111000105
100000000000000000000009033990000627000000000000000000000000010002020012849406211800000000002            2  01128494062126062100000004143500000000001N040621000000000000000000000000000000000000000000000000000000000000000100012849428809MOISES CLAUDIO DO ROSARIO               AVENIDA DR. AUGUSTO DE TOLEDO - 510 AP.1            09541520                                                            000107
2SR. CAIXA, APOS O VENCIMENTO COBRAR 2% DE MULTA                                 NAO RECEBER APOS 30 DIAS DO VENCIMENTO.                                                                                                                                                                                                         04062100000000000000406210000000000000       0090339900006270128494062118000108
100000000000000000000009033990000627000000000000000000000000010002020015702306211800000000002            2  01157023062126062100000002298900000000001N040621000000000000000000000000000000000000000000000000000000000000000100015702353846MARIA DE LOURDES DE MACENO SOUZA        RUA JOSE CALIXTO DO CARMO - 286 AP.83 -             11702690                                                            000110
2SR. CAIXA, APOS O VENCIMENTO COBRAR 2% DE MULTA                                 NAO RECEBER APOS 30 DIAS DO VENCIMENTO.                                                                                                                                                                                                         04062100000000000000406210000000000000       0090339900006270157023062118000111
100000000000000000000009033990000627000000000000000000000000010002020003658606211200000000002            2  01036586062126062100000001711760000000001N040621000000000000000000000000000000000000000000000000000000000000000100003658668814MARINEZ VALENTIN                        RUA JOSE CALIXTO DO CARMO - 286 AP.95 -             11702690                                                            000113
2SR. CAIXA, APOS O VENCIMENTO COBRAR 2% DE MULTA                                 NAO RECEBER APOS 30 DIAS DO VENCIMENTO.                                                                                                                                                                                                         04062100000000000000406210000000000000       0090339900006270036586062112000114
100000000000000000000009033990000627000000000000000000000000010002020003658606212000000000002            2  01036586062126062100000001711750000000001N040621000000000000000000000000000000000000000000000000000000000000000100003658668814MARINEZ VALENTIN                        RUA JOSE CALIXTO DO CARMO - 286 AP.95 -             11702690                                                            000116
2SR. CAIXA, APOS O VENCIMENTO COBRAR 2% DE MULTA                                 NAO RECEBER APOS 30 DIAS DO VENCIMENTO.                                                                                                                                                                                                         04062100000000000000406210000000000000       0090339900006270036586062120000117
100000000000000000000009033990000627000000000000000000000000010002020014087406211000000000002            2  01140874062126062100000002287610000000001N040621000000000000000000000000000000000000000000000000000000000000000100014087484874SERGIO SANTOS DO NASCIMENTO             RUA PANTALEAO BRAZ - 21 - JARDIM ESTER -            05372080                                                            000119
2SR. CAIXA, APOS O VENCIMENTO COBRAR 2% DE MULTA                                 NAO RECEBER APOS 30 DIAS DO VENCIMENTO.                                                                                                                                                                                                         04062100000000000000406210000000000000       0090339900006270140874062110000120
100000000000000000000009033990000627000000000000000000000000010002020026834506211P00000000002            2  01268345062126062100000002107760000000001N040621000000000000000000000000000000000000000000000000000000000000000100026834550895RAQUEL CARDOSO JOAO                     RUA PEDROSO XAVIER - 277 AP.23 TORRE 01             02732020                                                            000122
2SR. CAIXA, APOS O VENCIMENTO COBRAR 2% DE MULTA                                 NAO RECEBER APOS 30 DIAS DO VENCIMENTO.                                                                                                                                                                                                         04062100000000000000406210000000000000       009033990000627026834506211P000123
100000000000000000000009033990000627000000000000000000000000010002020039540006211800000000002            2  01395400062126062100000002072230000000001N040621000000000000000000000000000000000000000000000000000000000000000100039540008816LUZINETE CLARINDO SILVA                 RUA DEINOS - 275 - BAIRRO CIDADE SATELIT            08340100                                                            000125
2SR. CAIXA, APOS O VENCIMENTO COBRAR 2% DE MULTA                                 NAO RECEBER APOS 30 DIAS DO VENCIMENTO.                                                                                                                                                                                                         04062100000000000000406210000000000000       0090339900006270395400062118000126
100000000000000000000009033990000627000000000000000000000000010002020003311006211500000000002            2  01033110062126062100000002157970000000001N040621000000000000000000000000000000000000000000000000000000000000000100003311030877SEBASTIAO SARUVA NETO                   RUA HAMILTON REGIS - 559 - BAIRRO DO LIM            08051440                                                            000128
2SR. CAIXA, APOS O VENCIMENTO COBRAR 2% DE MULTA                                 NAO RECEBER APOS 30 DIAS DO VENCIMENTO.                                                                                                                                                                                                         04062100000000000000406210000000000000       0090339900006270033110062115000129
100000000000000000000009033990000627000000000000000000000000010002020090091906211100000000002            2  01900919062126062100000002062720000000001N040621000000000000000000000000000000000000000000000000000000000000000100090091990882JUECIR CARVALHO DA LUZ                  RUA JOSE CALIXTO DO CARMO - 286 AP.114 -            11702690                                                            000131
2SR. CAIXA, APOS O VENCIMENTO COBRAR 2% DE MULTA                                 NAO RECEBER APOS 30 DIAS DO VENCIMENTO.                                                                                                                                                                                                         04062100000000000000406210000000000000       0090339900006270900919062111000132
100000000000000000000009033990000627000000000000000000000000010002020037325906211300000000002            2  01373259062126062100000001688050000000001N040621000000000000000000000000000000000000000000000000000000000000000100037325923830MARIA AUGUSTA OLIVEIRA DE ANDRADE       RUA CAIAPOS - 842 AP.63 - VILA TUPI - PR            11703320                                                            000134
2SR. CAIXA, APOS O VENCIMENTO COBRAR 2% DE MULTA                                 NAO RECEBER APOS 30 DIAS DO VENCIMENTO.                                                                                                                                                                                                         04062100000000000000406210000000000000       0090339900006270373259062113000135
100000000000000000000009033990000627000000000000000000000000010002020012478806211000000000002            2  01124788062124062100000003073180000000001N040621000000000000000000000000000000000000000000000000000000000000000100012478899809VITORIA BATISTA QUEIROZ                 RUA CARVALHO DE FREITAS - 255 AP.71A - V            05728030                                                            000137
2SR. CAIXA, APOS O VENCIMENTO COBRAR 2% DE MULTA                                 NAO RECEBER APOS 30 DIAS DO VENCIMENTO.                                                                                                                                                                                                         04062100000000000000406210000000000000       0090339900006270124788062110000138
100000000000000000000009033990000627000000000000000000000000010002020097989906211500000000002            2  01979899062126062100000001417170000000001N040621000000000000000000000000000000000000000000000000000000000000000100097989924820NELSON LUIS BERRIBILLE                  RUA SILVEIRA IGNACIO SOBRINHO - 965 - VI            13560294                                                            000140
2SR. CAIXA, APOS O VENCIMENTO COBRAR 2% DE MULTA                                 NAO RECEBER APOS 30 DIAS DO VENCIMENTO.                                                                                                                                                                                                         04062100000000000000406210000000000000       0090339900006270979899062115000141
100000000000000000000009033990000627000000000000000000000000010002020032341806211400000000002            2  01323418062124062100000003192160000000001N040621000000000000000000000000000000000000000000000000000000000000000100032341847803PRISCILA ALVES DE FRANCA MIRANDA        RUA CARLOS JOSE BORSTENS - 50 AP.91 - AV            11702750                                                            000143
2SR. CAIXA, APOS O VENCIMENTO COBRAR 2% DE MULTA                                 NAO RECEBER APOS 30 DIAS DO VENCIMENTO.                                                                                                                                                                                                         04062100000000000000406210000000000000       0090339900006270323418062114000144
100000000000000000000009033990000627000000000000000000000000010002020061915506211000000000002            2  01619155062126062100000001993530000000001N040621000000000000000000000000000000000000000000000000000000000000000100061915599849NOE ERMINIO CIOFFI                      RUA ASTURIA - 106 - IMIRIN - SAO PAULO -            02540000                                                            000146
2SR. CAIXA, APOS O VENCIMENTO COBRAR 2% DE MULTA                                 NAO RECEBER APOS 30 DIAS DO VENCIMENTO.                                                                                                                                                                                                         04062100000000000000406210000000000000       0090339900006270619155062110000147
100000000000000000000009033990000627000000000000000000000000010002020016050606211P00000000002            2  01160506062124062100000002962930000000001N040621000000000000000000000000000000000000000000000000000000000000000100016050684898ANDRE RODRIGUES DE OLIVEIRA             RUA CORACAO PAULISTA - 14 - FAZENDA ITAI            08132430                                                            000149
2SR. CAIXA, APOS O VENCIMENTO COBRAR 2% DE MULTA                                 NAO RECEBER APOS 30 DIAS DO VENCIMENTO.                                                                                                                                                                                                         04062100000000000000406210000000000000       009033990000627016050606211P000150
100000000000000000000009033990000627000000000000000000000000010002020021464906211300000000002            2  01214649062124062100000004669670000000001N040621000000000000000000000000000000000000000000000000000000000000000100021464965846ANDREA APARECIDA DE OLIVEIRA PECCI      RUA ANTONIO BOZ MARFIL - 103 - PARQUE DO            05396020                                                            000152
2SR. CAIXA, APOS O VENCIMENTO COBRAR 2% DE MULTA                                 NAO RECEBER APOS 30 DIAS DO VENCIMENTO.                                                                                                                                                                                                         04062100000000000000406210000000000000       0090339900006270214649062113000153
100000000000000000000009033990000627000000000000000000000000010002020030348106211500000000002            2  01303481062124062100000002829360000000001N040621000000000000000000000000000000000000000000000000000000000000000100030348198892KELLY CRISTINA CORDEIRO                 RUA JORGE TAVARES QUINTAS - 253 - JARDIM            11724180                                                            000155
2SR. CAIXA, APOS O VENCIMENTO COBRAR 2% DE MULTA                                 NAO RECEBER APOS 30 DIAS DO VENCIMENTO.                                                                                                                                                                                                         04062100000000000000406210000000000000       0090339900006270303481062115000156
9                                                                                                                                                                                                                                                                                                                                                                                                         000157