01REMESSA01COBRANCA       00000000000005331186HB SANTOS CONSTRUTORA E INCORP237BRADESCO       070623        MX0000074                                                                                                                                                                                                                                                                                     000001
100000000000000000000009033990000995400000000000000000000000010002020005723206231700000000002            2  01057232062323062300000003054910000000001N060623000000000000000000000000000000000000000000000000000000000000000100005723255843FRANCISCO DE ASSIS DA SILVA             PRACA NICOLAU GERAIGIRE - 25 VISOR - JAR            11095110                                                            000002
2SR. CAIXA, APOS O VENCIMENTO COBRAR 2% DE MULTA                                 NAO RECEBER APOS 30 DIAS DO VENCIMENTO.                                                                                                                                                                                                         07062300000000000000706230000000000000       0090339900009954057232062317000003
100000000000000000000009033990000995400000000000000000000000010002020032589106231000000000002            2  01325891062323062300000002890580000000001N060623000000000000000000000000000000000000000000000000000000000000000100032589165862RENATA ISABEL MARTINS SILVA             RUA HERCULANO DE FREITAS - 257 - FUNDACA            09520280                                                            000005
2SR. CAIXA, APOS O VENCIMENTO COBRAR 2% DE MULTA                                 NAO RECEBER APOS 30 DIAS DO VENCIMENTO.                                                                                                                                                                                                         07062300000000000000706230000000000000       0090339900009954325891062310000006
100000000000000000000009033990000995400000000000000000000000010002020088339306231400000000002            2  01883393062323062300000002921940000000001N060623000000000000000000000000000000000000000000000000000000000000000100088339319868MARCIA SIQUEIRA MELLO                   RUA ADELINO ALVES - 81 - SANTO AMARO - S            04710120                                                            000008
2SR. CAIXA, APOS O VENCIMENTO COBRAR 2% DE MULTA                                 NAO RECEBER APOS 30 DIAS DO VENCIMENTO.                                                                                                                                                                                                         07062300000000000000706230000000000000       0090339900009954883393062314000009
100000000000000000000009033990000995400000000000000000000000010002020046391206231P00000000002            2  01463912062323062300000003031120000000001N060623000000000000000000000000000000000000000000000000000000000000000100046391265810PAMELLA RODRIGUES DE OLIVEIRA           RUA AUGUSTA - 183 AP.301 BL.2A - VILA AU            07025130                                                            000011
2SR. CAIXA, APOS O VENCIMENTO COBRAR 2% DE MULTA                                 NAO RECEBER APOS 30 DIAS DO VENCIMENTO.                                                                                                                                                                                                         07062300000000000000706230000000000000       009033990000995446391206231P000012
100000000000000000000009033990000995400000000000000000000000010002020027964506231800000000002            2  01279645062323062300000003011680000000001N060623000000000000000000000000000000000000000000000000000000000000000100027964512838FABIO TADEU DE CAMPOS RADZIAVICIUS      RUA URUGUAI - 89 AP.94 - JARDIM GUILHERM            11702300                                                            000014
2SR. CAIXA, APOS O VENCIMENTO COBRAR 2% DE MULTA                                 NAO RECEBER APOS 30 DIAS DO VENCIMENTO.                                                                                                                                                                                                         07062300000000000000706230000000000000       0090339900009954279645062318000015
100000000000000000000009033990000995400000000000000000000000010002020011498306231600000000002            2  01114983062323062300000005812330000000001N060623000000000000000000000000000000000000000000000000000000000000000100011498329837GERSON GERALDO DAS NEVES                RUA DOMINGOS DELGADO - 144 - VILA SOUZA             02881070                                                            000017
2SR. CAIXA, APOS O VENCIMENTO COBRAR 2% DE MULTA                                 NAO RECEBER APOS 30 DIAS DO VENCIMENTO.                                                                                                                                                                                                         07062300000000000000706230000000000000       0090339900009954114983062316000018
100000000000000000000009033990000995400000000000000000000000010002020011498306232400000000002            2  01114983062323062300000002256410000000001N060623000000000000000000000000000000000000000000000000000000000000000100011498329837GERSON GERALDO DAS NEVES                RUA DOMINGOS DELGADO - 144 - VILA SOUZA             02881070                                                            000020
2SR. CAIXA, APOS O VENCIMENTO COBRAR 2% DE MULTA                                 NAO RECEBER APOS 30 DIAS DO VENCIMENTO.                                                                                                                                                                                                         07062300000000000000706230000000000000       0090339900009954114983062324000021
100000000000000000000009033990000995400000000000000000000000010002020025214406231200000000002            2  01252144062323062300000002670890000000001N060623000000000000000000000000000000000000000000000000000000000000000100025214401833JOSE MAURICIO DOS SANTOS RODRIGUES      RUA JOAO DE MACEDO RIBEIRO - 49 - VILA N            08111101                                                            000023
2SR. CAIXA, APOS O VENCIMENTO COBRAR 2% DE MULTA                                 NAO RECEBER APOS 30 DIAS DO VENCIMENTO.                                                                                                                                                                                                         07062300000000000000706230000000000000       0090339900009954252144062312000024
100000000000000000000009033990000995400000000000000000000000010002020033119106231P00000000002            2  01331191062323062300000002682200000000001N060623000000000000000000000000000000000000000000000000000000000000000100033119178802HUGO GOMES VENDRAME                     RUA SAO PAULO - 60 CASA 01 - VILA FREITA            06380110                                                            000026
2SR. CAIXA, APOS O VENCIMENTO COBRAR 2% DE MULTA                                 NAO RECEBER APOS 30 DIAS DO VENCIMENTO.                                                                                                                                                                                                         07062300000000000000706230000000000000       009033990000995433119106231P000027
100000000000000000000009033990000995400000000000000000000000010002020016631506231200000000002            2  01166315062323062300000002729010000000001N060623000000000000000000000000000000000000000000000000000000000000000100016631587468GILBERTO BEZERRA DA SILVA               AVENIDA JAIME TORRES - 745 CASA 3 - JARD            03670000                                                            000029
2SR. CAIXA, APOS O VENCIMENTO COBRAR 2% DE MULTA                                 NAO RECEBER APOS 30 DIAS DO VENCIMENTO.                                                                                                                                                                                                         07062300000000000000706230000000000000       0090339900009954166315062312000030
100000000000000000000009033990000995400000000000000000000000010002020007313206231500000000002            2  01073132062323062300000002709620000000001N060623000000000000000000000000000000000000000000000000000000000000000100007313251840SALVADOR GESUALDO PULVIRENTI            AVENIDA MARARI - 641 - VILA MARARI - SAO            04402010                                                            000032
2SR. CAIXA, APOS O VENCIMENTO COBRAR 2% DE MULTA                                 NAO RECEBER APOS 30 DIAS DO VENCIMENTO.                                                                                                                                                                                                         07062300000000000000706230000000000000       0090339900009954073132062315000033
100000000000000000000009033990000995400000000000000000000000010002020010676706231700000000002            2  01106767062323062300000002828200000000001N060623000000000000000000000000000000000000000000000000000000000000000100010676723896MERCEDES CRISTINA ROCHA SANDOVAL        RUA URUGUAI - 89 AP.83 - JARDIM GUILHERM            11702300                                                            000035
2SR. CAIXA, APOS O VENCIMENTO COBRAR 2% DE MULTA                                 NAO RECEBER APOS 30 DIAS DO VENCIMENTO.                                                                                                                                                                                                         07062300000000000000706230000000000000       0090339900009954106767062317000036
100000000000000000000009033990000995400000000000000000000000010002020009502806231500000000002            2  01095028062323062300000002953590000000001N060623000000000000000000000000000000000000000000000000000000000000000100009502844831CLAUDIA ROCHA SANDOVAL                  RUA URUGUAI - 89 AP.64 - JARDIM GUILHERM            11702300                                                            000038
2SR. CAIXA, APOS O VENCIMENTO COBRAR 2% DE MULTA                                 NAO RECEBER APOS 30 DIAS DO VENCIMENTO.                                                                                                                                                                                                         07062300000000000000706230000000000000       0090339900009954095028062315000039
100000000000000000000009033990000995400000000000000000000000010002020007594206231400000000002            2  01075942062323062300000002651530000000001N060623000000000000000000000000000000000000000000000000000000000000000100007594247809JOSE LUIS DE OLIVEIRA                   DONA EGLANTINA PENTEADO DA SILVA PRADO -            13044162                                                            000041
2SR. CAIXA, APOS O VENCIMENTO COBRAR 2% DE MULTA                                 NAO RECEBER APOS 30 DIAS DO VENCIMENTO.                                                                                                                                                                                                         07062300000000000000706230000000000000       0090339900009954075942062314000042
100000000000000000000009033990000995400000000000000000000000010002020005288706231800000000002            2  01052887062323062300000002731340000000001N060623000000000000000000000000000000000000000000000000000000000000000100005288796858MARCELO RODRIGUES FERREIRA              RUA MARCOS ANTONIO MARQUES - 302 - JARDI            06433020                                                            000044
2SR. CAIXA, APOS O VENCIMENTO COBRAR 2% DE MULTA                                 NAO RECEBER APOS 30 DIAS DO VENCIMENTO.                                                                                                                                                                                                         07062300000000000000706230000000000000       0090339900009954052887062318000045
100000000000000000000009033990000995400000000000000000000000010002020015835906231700000000002            2  01158359062323062300000002844280000000001N060623000000000000000000000000000000000000000000000000000000000000000100015835992823FLAVIO VERONEZ                          RUA ANDREA PAULINETTI - 127 AP.42 - BAIR            04707050                                                            000047
2SR. CAIXA, APOS O VENCIMENTO COBRAR 2% DE MULTA                                 NAO RECEBER APOS 30 DIAS DO VENCIMENTO.                                                                                                                                                                                                         07062300000000000000706230000000000000       0090339900009954158359062317000048
100000000000000000000009033990000995400000000000000000000000010002020000438106231500000000002            2  01004381062323062300000003210420000000001N060623000000000000000000000000000000000000000000000000000000000000000100000438161858WAGNECY VILLA NOVA LIEN                 RUA PROFESSOR FERREIRA PAULINO - 233 AP.            07025020                                                            000050
2SR. CAIXA, APOS O VENCIMENTO COBRAR 2% DE MULTA                                 NAO RECEBER APOS 30 DIAS DO VENCIMENTO.                                                                                                                                                                                                         07062300000000000000706230000000000000       0090339900009954004381062315000051
100000000000000000000009033990000995400000000000000000000000010002020026004506231100000000002            2  01260045062323062300000002844320000000001N060623000000000000000000000000000000000000000000000000000000000000000100026004595888EDIVALDO BEZERRA DA SILVA               AVENIDA GUATEMALA - 550 - JARDIM PINHEIR            09854750                                                            000053
2SR. CAIXA, APOS O VENCIMENTO COBRAR 2% DE MULTA                                 NAO RECEBER APOS 30 DIAS DO VENCIMENTO.                                                                                                                                                                                                         07062300000000000000706230000000000000       0090339900009954260045062311000054
100000000000000000000009033990000995400000000000000000000000010002020012470706231600000000002            2  01124707062323062300000003034690000000001N060623000000000000000000000000000000000000000000000000000000000000000100012470771870HILTON FERNANDES OLIVARES               RUA PATIO DA ESTACAO - 115 - BAIRRO CENT            09450000                                                            000056
2SR. CAIXA, APOS O VENCIMENTO COBRAR 2% DE MULTA                                 NAO RECEBER APOS 30 DIAS DO VENCIMENTO.                                                                                                                                                                                                         07062300000000000000706230000000000000       0090339900009954124707062316000057
100000000000000000000009033990000995400000000000000000000000010002020014025406231500000000002            2  01140254062323062300000003327470000000001N060623000000000000000000000000000000000000000000000000000000000000000100014025420899ANDREIA APARECIDA TAVARES BASTOS        RUA IBATIBA - 234 CASA 27 - RES.BOUGANVI            09220608                                                            000059
2SR. CAIXA, APOS O VENCIMENTO COBRAR 2% DE MULTA                                 NAO RECEBER APOS 30 DIAS DO VENCIMENTO.                                                                                                                                                                                                         07062300000000000000706230000000000000       0090339900009954140254062315000060
100000000000000000000009033990000995400000000000000000000000010002020018590006231400000000002            2  01185900062323062300000003013510000000001N060623000000000000000000000000000000000000000000000000000000000000000100018590038858JOSE SANDRO ROCHA SILVA                 RUA SANTO ANTONIO DO AVENTUREIRO - 216 A            07143040                                                            000062
2SR. CAIXA, APOS O VENCIMENTO COBRAR 2% DE MULTA                                 NAO RECEBER APOS 30 DIAS DO VENCIMENTO.                                                                                                                                                                                                         07062300000000000000706230000000000000       0090339900009954185900062314000063
100000000000000000000009033990000995400000000000000000000000010002020088578706231200000000002            2  01885787062323062300000002479690000000001N060623000000000000000000000000000000000000000000000000000000000000000100088578704800GILBERTO DO ESPIRITO SANTO SILVA        RUA URUGUAI - 89 AP.23 - JARDIM GUILHERM            11702300                                                            000065
2SR. CAIXA, APOS O VENCIMENTO COBRAR 2% DE MULTA                                 NAO RECEBER APOS 30 DIAS DO VENCIMENTO.                                                                                                                                                                                                         07062300000000000000706230000000000000       0090339900009954885787062312000066
100000000000000000000009033990000995400000000000000000000000010002020005105206231000000000002            2  01051052062323062300000002957320000000001N060623000000000000000000000000000000000000000000000000000000000000000100005105287835FABIO MOTTOLA DE OLIVEIRA               RUA RAUL MAZZONI - 133 - CHACARA AREAL -            13331022                                                            000068
2SR. CAIXA, APOS O VENCIMENTO COBRAR 2% DE MULTA                                 NAO RECEBER APOS 30 DIAS DO VENCIMENTO.                                                                                                                                                                                                         07062300000000000000706230000000000000       0090339900009954051052062310000069
100000000000000000000009033990000995400000000000000000000000010002020020792706231P00000000002            2  01207927062323062300000003074550000000001N060623000000000000000000000000000000000000000000000000000000000000000120792791000147TROVAO COMERCIO DE ALIMENTOS LTDA-ME    RUA QUINTA DA MAGNOLIA - 67 - JARDIM IPA            03582100                                                            000071
2SR. CAIXA, APOS O VENCIMENTO COBRAR 2% DE MULTA                                 NAO RECEBER APOS 30 DIAS DO VENCIMENTO.                                                                                                                                                                                                         07062300000000000000706230000000000000       009033990000995420792706231P000072
100000000000000000000009033990000995400000000000000000000000010002020007648106231300000000002            2  01076481062323062300000002887000000000001N060623000000000000000000000000000000000000000000000000000000000000000100007648112825MARA REGINA CAPRIO                      RUA DA TRINDADE - 790 - VILA IDEAL - SAO            15060280                                                            000074
2SR. CAIXA, APOS O VENCIMENTO COBRAR 2% DE MULTA                                 NAO RECEBER APOS 30 DIAS DO VENCIMENTO.                                                                                                                                                                                                         07062300000000000000706230000000000000       0090339900009954076481062313000075
100000000000000000000009033990000995400000000000000000000000010002020031157406231200000000002            2  01311574062323062300000003099940000000001N060623000000000000000000000000000000000000000000000000000000000000000100031157420885TALITA ANICHIARICO COSSI                RUA CNEO POMPEO DE CAMARGO - 817 - JARDI            13060150                                                            000077
2SR. CAIXA, APOS O VENCIMENTO COBRAR 2% DE MULTA                                 NAO RECEBER APOS 30 DIAS DO VENCIMENTO.                                                                                                                                                                                                         07062300000000000000706230000000000000       0090339900009954311574062312000078
100000000000000000000009033990000995400000000000000000000000010002020035572506231700000000002            2  01355725062323062300000003295940000000001N060623000000000000000000000000000000000000000000000000000000000000000100035572536865MARIA SIMONE SANTOS                     RUA JOSE PEZZOLO - 68 - VILA ELDIZIA - S            09181660                                                            000080
2SR. CAIXA, APOS O VENCIMENTO COBRAR 2% DE MULTA                                 NAO RECEBER APOS 30 DIAS DO VENCIMENTO.                                                                                                                                                                                                         07062300000000000000706230000000000000       0090339900009954355725062317000081
100000000000000000000009033990000995400000000000000000000000010002020008800306231400000000002            2  01088003062323062300000003003030000000001N060623000000000000000000000000000000000000000000000000000000000000000100008800368425INGO DIMITRI PEREIRA DA NOBREGA         RUA PROFESSOR MENDES PIMENTEL - 362 - JA            03973010                                                            000083
2SR. CAIXA, APOS O VENCIMENTO COBRAR 2% DE MULTA                                 NAO RECEBER APOS 30 DIAS DO VENCIMENTO.                                                                                                                                                                                                         07062300000000000000706230000000000000       0090339900009954088003062314000084
100000000000000000000009033990000995400000000000000000000000010002020005054106231900000000002            2  01050541062323062300000002906170000000001N060623000000000000000000000000000000000000000000000000000000000000000100005054169806PAULO ROBERTO DE MATTOS                 JARDIM BOTANICO - 849 - DISTRITO DE SOUS            13106258                                                            000086
2SR. CAIXA, APOS O VENCIMENTO COBRAR 2% DE MULTA                                 NAO RECEBER APOS 30 DIAS DO VENCIMENTO.                                                                                                                                                                                                         07062300000000000000706230000000000000       0090339900009954050541062319000087
100000000000000000000009033990000995400000000000000000000000010002020007552106231500000000002            2  01075521062323062300000002906170000000001N060623000000000000000000000000000000000000000000000000000000000000000100007552151846MAURO BORDONI                           AVENIDA DR. AUGUSTO DE TOLEDO - 769 AP.6            09540080                                                            000089
2SR. CAIXA, APOS O VENCIMENTO COBRAR 2% DE MULTA                                 NAO RECEBER APOS 30 DIAS DO VENCIMENTO.                                                                                                                                                                                                         07062300000000000000706230000000000000       0090339900009954075521062315000090
100000000000000000000009033990000995400000000000000000000000010002020012744206231800000000002            2  01127442062323062300000003233550000000001N060623000000000000000000000000000000000000000000000000000000000000000100012744201804ADAIL JOSE DE SOUSA                     RUA ROSARIA - 303 - BAIRRO SACADURA CABR            09061080                                                            000092
2SR. CAIXA, APOS O VENCIMENTO COBRAR 2% DE MULTA                                 NAO RECEBER APOS 30 DIAS DO VENCIMENTO.                                                                                                                                                                                                         07062300000000000000706230000000000000       0090339900009954127442062318000093
100000000000000000000009033990000995400000000000000000000000010002020068320606231500000000002            2  01683206062323062300000011451560000000001N060623000000000000000000000000000000000000000000000000000000000000000100068320663849ANTONIO CAVALCANTE LIMA                 RUA AMAZONAS - 1188 - CENTRO - SAO CAETA            09540201                                                            000095
2SR. CAIXA, APOS O VENCIMENTO COBRAR 2% DE MULTA                                 NAO RECEBER APOS 30 DIAS DO VENCIMENTO.                                                                                                                                                                                                         07062300000000000000706230000000000000       0090339900009954683206062315000096
100000000000000000000009033990000995400000000000000000000000010002020088926206231700000000002            2  01889262062323062300000002405690000000001N060623000000000000000000000000000000000000000000000000000000000000000100088926230872VALDEMAR LATANCE FILHO                  RUA MELO PINTO DA SILVA - 111 CASA 103 -            18116265                                                            000098
2SR. CAIXA, APOS O VENCIMENTO COBRAR 2% DE MULTA                                 NAO RECEBER APOS 30 DIAS DO VENCIMENTO.                                                                                                                                                                                                         07062300000000000000706230000000000000       0090339900009954889262062317000099
100000000000000000000009033990000995400000000000000000000000010002020004195306231400000000002            2  01041953062323062300000003139820000000001N060623000000000000000000000000000000000000000000000000000000000000000100004195345804LUIZ CARLOS SILVESTRE                   RUA CONDE VICENTE AZEVEDO - 377 - BAIRRO            04264000                                                            000101
2SR. CAIXA, APOS O VENCIMENTO COBRAR 2% DE MULTA                                 NAO RECEBER APOS 30 DIAS DO VENCIMENTO.                                                                                                                                                                                                         07062300000000000000706230000000000000       0090339900009954041953062314000102
9                                                                                                                                                                                                                                                                                                                                                                                                         000103