01REMESSA01COBRANCA       00000000000004991781AIRES CONSTRUTORA E INCORPORAD237BRADESCO       080617        MX0000084                                                                                                                                                                                                                                                                                     000001
100000000000000000000009077090006612500000000000000000000000010002100000012031212200000000002            2  01001203121225061700000003198800000000001N080617000000000000000000000000000000000000000000000000000000000000000100001224509579REINALDO JUNIOR MARTINS DE ABREU        RUA JUSTINO NIGRO - 449 - INTERLAGOS - S            04815030                                                            000002
2SR. CAIXA, APOS O VENCIMENTO COBRAR 10% DE MULTA                                NAO RECEBER APOS 30 DIAS DO VENCIMENTO.                                                                                                                                                                                                         08061700000000000000806170000000000000       0090770900066125000120312122000003
100000000000000000000009077090006612500000000000000000000000010002100000013041313P00000000002            2  01001304131325061700000003111040000000001N080617000000000000000000000000000000000000000000000000000000000000000100003325102808MARCOS DE OLIVEIRA JUNIOR               RUA LUIS NOVELLETO - 91 - PARQUE CONTINE            05324080                                                            000005
2SR. CAIXA, APOS O VENCIMENTO COBRAR 10% DE MULTA                                NAO RECEBER APOS 30 DIAS DO VENCIMENTO.                                                                                                                                                                                                         08061700000000000000806170000000000000       009077090006612500013041313P000006
100000000000000000000009077090006612500000000000000000000000010002100000015081515300000000002            2  01001508151525061700000003156200000000001N080617000000000000000000000000000000000000000000000000000000000000000100016338929806EDVALDO DA SILVA ANDRADE                RUA ARIA - 434 - PARQUE ALVES DE LIMA -             04902170                                                            000008
2SR. CAIXA, APOS O VENCIMENTO COBRAR 10% DE MULTA                                NAO RECEBER APOS 30 DIAS DO VENCIMENTO.                                                                                                                                                                                                         08061700000000000000806170000000000000       0090770900066125000150815153000009
100000000000000000000009077090006612500000000000000000000000010002100000017011717700000000002            2  01001701171725061700000003009230000000001N080617000000000000000000000000000000000000000000000000000000000000000100030098603825DEUZIANA MOREIRA DE SA                  RUA JOAO AVELINO PINHO MELLAO - 114 - JA            05659010                                                            000011
2SR. CAIXA, APOS O VENCIMENTO COBRAR 10% DE MULTA                                NAO RECEBER APOS 30 DIAS DO VENCIMENTO.                                                                                                                                                                                                         08061700000000000000806170000000000000       0090770900066125000170117177000012
100000000000000000000009077090006612500000000000000000000000010002100000018031818900000000002            2  01001803181825061700000002858160000000001N080617000000000000000000000000000000000000000000000000000000000000000100026836908860VANDERLEI FIGUEIREDO DE CARVALHO        RUA TUPI - 840 - VILA TUPI - PRAIA GRAND            11703260                                                            000014
2SR. CAIXA, APOS O VENCIMENTO COBRAR 10% DE MULTA                                NAO RECEBER APOS 30 DIAS DO VENCIMENTO.                                                                                                                                                                                                         08061700000000000000806170000000000000       0090770900066125000180318189000015
100000000000000000000009077090006612500000000000000000000000010002100000020072020500000000002            2  01002007202025061700000003174630000000001N080617000000000000000000000000000000000000000000000000000000000000000100059861576800REINALDO LOPES DE OLIVEIRA              RUA DA SERVIDAO - 40 - VILA ROSCHEL - SA            04891045                                                            000017
2SR. CAIXA, APOS O VENCIMENTO COBRAR 10% DE MULTA                                NAO RECEBER APOS 30 DIAS DO VENCIMENTO.                                                                                                                                                                                                         08061700000000000000806170000000000000       0090770900066125000200720205000018
100000000000000000000009077090006612500000000000000000000000010002100000021122121900000000002            2  01002112212125061700000001812360000000001N080617000000000000000000000000000000000000000000000000000000000000000100008158846807JULIO CESAR KYOO WATANUKI               AVENIDA PRESIDENTE CASTELO BRANCO - 460             11700800                                                            000020
2SR. CAIXA, APOS O VENCIMENTO COBRAR 10% DE MULTA                                NAO RECEBER APOS 30 DIAS DO VENCIMENTO.                                                                                                                                                                                                         08061700000000000000806170000000000000       0090770900066125000211221219000021
100000000000000000000009077090006612500000000000000000000000010002100000028232628300000000002            2  01002823262825061700000003569750000000001N080617000000000000000000000000000000000000000000000000000000000000000100007733816866GILBERTO MINORU IRITSU                  ACACIA - 410 - JARDIM DAS FLORES - OSASC            06120120                                                            000023
2SR. CAIXA, APOS O VENCIMENTO COBRAR 10% DE MULTA                                NAO RECEBER APOS 30 DIAS DO VENCIMENTO.                                                                                                                                                                                                         08061700000000000000806170000000000000       0090770900066125000282326283000024
100000000000000000000009077090006612500000000000000000000000010002100000030152830500000000002            2  01003015283025061700000002847300000000001N080617000000000000000000000000000000000000000000000000000000000000000100028379879805EDMILSON DANIEL GARCIA WATANUKI         RUA MONTE CASTELO - 295 AP.82 - AVIACAO             11702720                                                            000026
2SR. CAIXA, APOS O VENCIMENTO COBRAR 10% DE MULTA                                NAO RECEBER APOS 30 DIAS DO VENCIMENTO.                                                                                                                                                                                                         08061700000000000000806170000000000000       0090770900066125000301528305000027
100000000000000000000009077090006612500000000000000000000000010002100000037943538900000000002            2  01003794353825061700000003155410000000001N080617000000000000000000000000000000000000000000000000000000000000000100016330938830KARINA CORDEIRO PIASSA                  CONDE MOREIRA LIMA - 644 - JARDIM JABAQU            04384032                                                            000029
2SR. CAIXA, APOS O VENCIMENTO COBRAR 10% DE MULTA                                NAO RECEBER APOS 30 DIAS DO VENCIMENTO.                                                                                                                                                                                                         08061700000000000000806170000000000000       0090770900066125000379435389000030
100000000000000000000009077090006612500000000000000000000000010002100000043834044300000000002            2  01004383404425061700000003066800000000001N080617000000000000000000000000000000000000000000000000000000000000000100077027604868CLINEU LISSONI                          AVENIDA VILA EMA - 1100 AP.41 - VILA PRU            03156000                                                            000032
2SR. CAIXA, APOS O VENCIMENTO COBRAR 10% DE MULTA                                NAO RECEBER APOS 30 DIAS DO VENCIMENTO.                                                                                                                                                                                                         08061700000000000000806170000000000000       0090770900066125000438340443000033
100000000000000000000009077090006612500000000000000000000000010002100000050604751200000000002            2  01005060475125061700000002875270000000001N080617000000000000000000000000000000000000000000000000000000000000000100005627947861FERNANDO CESAR MARCELINO                RUA CASA FORTE - 46 AP.11 - AGUA FRIA -             02336040                                                            000035
2SR. CAIXA, APOS O VENCIMENTO COBRAR 10% DE MULTA                                NAO RECEBER APOS 30 DIAS DO VENCIMENTO.                                                                                                                                                                                                         08061700000000000000806170000000000000       0090770900066125000506047512000036
100000000000000000000009077090006612500000000000000000000000010002100000052524953300000000002            2  01005252495325061700000002858330000000001N080617000000000000000000000000000000000000000000000000000000000000000100029380708882EDUARDO MENDONCA DAMASCENO              RUA MONTE CASTELO - 296 AP.12 - AVIACAO             11702720                                                            000038
2SR. CAIXA, APOS O VENCIMENTO COBRAR 10% DE MULTA                                NAO RECEBER APOS 30 DIAS DO VENCIMENTO.                                                                                                                                                                                                         08061700000000000000806170000000000000       0090770900066125000525249533000039
100000000000000000000009077090006612500000000000000000000000010002100000056595357800000000002            2  01005659535725061700000002902310000000001N080617000000000000000000000000000000000000000000000000000000000000000100023988525634DALMY PIMENTA                           SAO CAETANO - 136 - VILA SAO VICENTE - U            38026220                                                            000041
2SR. CAIXA, APOS O VENCIMENTO COBRAR 10% DE MULTA                                NAO RECEBER APOS 30 DIAS DO VENCIMENTO.                                                                                                                                                                                                         08061700000000000000806170000000000000       0090770900066125000565953578000042
100000000000000000000009077090006612500000000000000000000000010002100000058495559P00000000002            2  01005849555925061700000003155560000000001N080617000000000000000000000000000000000000000000000000000000000000000100004735273832DARIO LUIZ GONCALVES                    RUA MONTE CASTELO - 295 AP.113 - AVIACAO            11702720                                                            000044
2SR. CAIXA, APOS O VENCIMENTO COBRAR 10% DE MULTA                                NAO RECEBER APOS 30 DIAS DO VENCIMENTO.                                                                                                                                                                                                         08061700000000000000806170000000000000       009077090006612500058495559P000045
100000000000000000000009077090006612500000000000000000000000010002100000060375761300000000002            2  01006037576125061700000002821280000000001N080617000000000000000000000000000000000000000000000000000000000000000100007635293893SILVIO CARDOSO ZACARIAS                 RUA SOLIDONIO LEITE - 2718 AP.102 BLOCO             03275000                                                            000047
2SR. CAIXA, APOS O VENCIMENTO COBRAR 10% DE MULTA                                NAO RECEBER APOS 30 DIAS DO VENCIMENTO.                                                                                                                                                                                                         08061700000000000000806170000000000000       0090770900066125000603757613000048
100000000000000000000009077090006612500000000000000000000000010002100000062205963300000000002            2  01006220596325061700000002761930000000001N080617000000000000000000000000000000000000000000000000000000000000000100067192920800SONIA MARIA RIBEIRO SUDO                RUA INGAZEIRA - 133 - SAO MIGUEL - SAO P            08032080                                                            000050
2SR. CAIXA, APOS O VENCIMENTO COBRAR 10% DE MULTA                                NAO RECEBER APOS 30 DIAS DO VENCIMENTO.                                                                                                                                                                                                         08061700000000000000806170000000000000       0090770900066125000622059633000051
100000000000000000000009077090006612500000000000000000000000010002100000063116064900000000002            2  01006311606425061700000003069410000000001N080617000000000000000000000000000000000000000000000000000000000000000100007975958808JOCY VIGNADO                            RUA PEDRO GONCALVES SOBRINHO - 568 - PAR            13098641                                                            000053
2SR. CAIXA, APOS O VENCIMENTO COBRAR 10% DE MULTA                                NAO RECEBER APOS 30 DIAS DO VENCIMENTO.                                                                                                                                                                                                         08061700000000000000806170000000000000       0090770900066125000631160649000054
100000000000000000000009077090006612500000000000000000000000010002100000068116569200000000002            2  01006811656925061700000002870030000000001N080617000000000000000000000000000000000000000000000000000000000000000100036712580803WALTER BARRETO DE ALMEIDA               RUA MONTE CASTELO - 296 AP.44 - AVIACAO             11702720                                                            000056
2SR. CAIXA, APOS O VENCIMENTO COBRAR 10% DE MULTA                                NAO RECEBER APOS 30 DIAS DO VENCIMENTO.                                                                                                                                                                                                         08061700000000000000806170000000000000       0090770900066125000681165692000057
100000000000000000000009077090006612500000000000000000000000010002100000073997075200000000002            2  01007399707525061700000003048790000000001N080617000000000000000000000000000000000000000000000000000000000000000100004290973876VLADIMIR PAIOLA BORREGO                 RUA GOMES - 429 - VILA IVONE - SAO PAULO            03275010                                                            000059
2SR. CAIXA, APOS O VENCIMENTO COBRAR 10% DE MULTA                                NAO RECEBER APOS 30 DIAS DO VENCIMENTO.                                                                                                                                                                                                         08061700000000000000806170000000000000       0090770900066125000739970752000060
100000000000000000000009077090006612500000000000000000000000010002100000075997277800000000002            2  01007599727725061700000003241760000000001N080617000000000000000000000000000000000000000000000000000000000000000100036386861833ALINE LEE WEI DE SOUZA                  AV. PRES.CASTELO BRANCO - 9127 AP.251 BL            11704600                                                            000062
2SR. CAIXA, APOS O VENCIMENTO COBRAR 10% DE MULTA                                NAO RECEBER APOS 30 DIAS DO VENCIMENTO.                                                                                                                                                                                                         08061700000000000000806170000000000000       0090770900066125000759972778000063
100000000000000000000009077090006612500000000000000000000000010002100000076867378300000000002            2  01007686737825061700000003008240000000001N080617000000000000000000000000000000000000000000000000000000000000000100026187960807CARINA CANTACESSO DE SOUZA              RUA MONTE CASTELO - 296 AP.91 - AVIACAO             11702720                                                            000065
2SR. CAIXA, APOS O VENCIMENTO COBRAR 10% DE MULTA                                NAO RECEBER APOS 30 DIAS DO VENCIMENTO.                                                                                                                                                                                                         08061700000000000000806170000000000000       0090770900066125000768673783000066
100000000000000000000009077090006612500000000000000000000000010002100000082727784600000000002            2  01008272778425061700000002948800000000001N080617000000000000000000000000000000000000000000000000000000000000000100070465320953SIDNEY CARASKI                          RUA DR.CELSO PACHECO BENTIM - 502 - PARQ            03571020                                                            000068
2SR. CAIXA, APOS O VENCIMENTO COBRAR 10% DE MULTA                                NAO RECEBER APOS 30 DIAS DO VENCIMENTO.                                                                                                                                                                                                         08061700000000000000806170000000000000       0090770900066125000827277846000069
100000000000000000000009077090006612500000000000000000000000010002100000083533985000000000002            2  01008353398525061700000002309160000000001N080617000000000000000000000000000000000000000000000000000000000000000100075759446800VALTER MUTAFEI                          RUA MONTE CASTELO - 295 AP.54 - AVIACAO             11702720                                                            000071
2SR. CAIXA, APOS O VENCIMENTO COBRAR 10% DE MULTA                                NAO RECEBER APOS 30 DIAS DO VENCIMENTO.                                                                                                                                                                                                         08061700000000000000806170000000000000       0090770900066125000835339850000072
100000000000000000000009077090006612500000000000000000000000010002100000087358189400000000002            2  01008735818925061700000003299210000000001N080617000000000000000000000000000000000000000000000000000000000000000100070328706868VALTER LIMA FERNANDES                   RUA DOMINGOS JORGE VELHO - 52 - CENTRO -            06843550                                                            000074
2SR. CAIXA, APOS O VENCIMENTO COBRAR 10% DE MULTA                                NAO RECEBER APOS 30 DIAS DO VENCIMENTO.                                                                                                                                                                                                         08061700000000000000806170000000000000       0090770900066125000873581894000075
100000000000000000000009077090006612500000000000000000000000010002100000088428290200000000002            2  01008842829025061700000001792100000000001N080617000000000000000000000000000000000000000000000000000000000000000100023132672882LEANDRO MORENO                          RUA MONTE CASTELO - 296 AP.64 - AVIACAO             11702720                                                            000077
2SR. CAIXA, APOS O VENCIMENTO COBRAR 10% DE MULTA                                NAO RECEBER APOS 30 DIAS DO VENCIMENTO.                                                                                                                                                                                                         08061700000000000000806170000000000000       0090770900066125000884282902000078
100000000000000000000009077090006612500000000000000000000000010002100000090458492700000000002            2  01009045849225061700000003056260000000001N080617000000000000000000000000000000000000000000000000000000000000000100099264692800LEONTINO PINHEIRO DA SILVA              AVENIDA JOAO BATISTA FITIPALDI - 469 - V            08685000                                                            000080
2SR. CAIXA, APOS O VENCIMENTO COBRAR 10% DE MULTA                                NAO RECEBER APOS 30 DIAS DO VENCIMENTO.                                                                                                                                                                                                         08061700000000000000806170000000000000       0090770900066125000904584927000081
100000000000000000000009077090006612500000000000000000000000010002100000092488594P00000000002            2  01009248859425061700000002948420000000001N080617000000000000000000000000000000000000000000000000000000000000000100000666344825LUIZ HENRIQUE DE CAMPOS                 RUA JOAO CARLOS CAVALCANTI REIS - 21 - J            02281206                                                            000083
2SR. CAIXA, APOS O VENCIMENTO COBRAR 10% DE MULTA                                NAO RECEBER APOS 30 DIAS DO VENCIMENTO.                                                                                                                                                                                                         08061700000000000000806170000000000000       009077090006612500092488594P000084
100000000000000000000009077090006612500000000000000000000000010002100000096748898700000000002            2  01009674889825061700000003113670000000001N080617000000000000000000000000000000000000000000000000000000000000000100029155026842DANIELA YOSHIDA                         RUA FREI JOAO DO ROSARIO - 639 - VILA MA            04401090                                                            000086
2SR. CAIXA, APOS O VENCIMENTO COBRAR 10% DE MULTA                                NAO RECEBER APOS 30 DIAS DO VENCIMENTO.                                                                                                                                                                                                         08061700000000000000806170000000000000       0090770900066125000967488987000087
100000000000000000000009077090006612500000000000000000000000010002100001024894104700000000002            2  01102489410425061700000002680210000000001N080617000000000000000000000000000000000000000000000000000000000000000100034325567801LUIZ FERNANDO ALAMINO                   AVENIDA FLOR DE VILA FORMOSA - 337 - VIL            03366010                                                            000089
2SR. CAIXA, APOS O VENCIMENTO COBRAR 10% DE MULTA                                NAO RECEBER APOS 30 DIAS DO VENCIMENTO.                                                                                                                                                                                                         08061700000000000000806170000000000000       0090770900066125010248941047000090
100000000000000000000009077090006612500000000000000000000000010002100001045296106500000000002            2  01104529610625061700000002535620000000001N080617000000000000000000000000000000000000000000000000000000000000000100001204431809CEZAR TALAVERA JUNIOR                   RUA MAESTRO ARTURO DE ANGELIS  - 190 AP.            05139010                                                            000092
2SR. CAIXA, APOS O VENCIMENTO COBRAR 10% DE MULTA                                NAO RECEBER APOS 30 DIAS DO VENCIMENTO.                                                                                                                                                                                                         08061700000000000000806170000000000000       0090770900066125010452961065000093
100000000000000000000009077090006612500000000000000000000000010002100001067498108000000000002            2  01106749810825061700000003286950000000001N080617000000000000000000000000000000000000000000000000000000000000000100004227553970ALESSANDRO ISRAEL GOULART               RUA PROFESSORA CARLINDA RIBEIRO - 21 - F            02866200                                                            000095
2SR. CAIXA, APOS O VENCIMENTO COBRAR 10% DE MULTA                                NAO RECEBER APOS 30 DIAS DO VENCIMENTO.                                                                                                                                                                                                         08061700000000000000806170000000000000       0090770900066125010674981080000096
100000000000000000000009077090006612500000000000000000000000010002100001077599109500000000002            2  01107759910925061700000003029300000000001N080617000000000000000000000000000000000000000000000000000000000000000100060811420868HELIO BASSI                             AV.PARIS,575 - PRACA ANTONIO FIGUEROA -             11700082                                                            000098
2SR. CAIXA, APOS O VENCIMENTO COBRAR 10% DE MULTA                                NAO RECEBER APOS 30 DIAS DO VENCIMENTO.                                                                                                                                                                                                         08061700000000000000806170000000000000       0090770900066125010775991095000099
100000000000000000000009077090006612500000000000000000000000010002100011474106117P00000000002            2  01114741061125061700000002699060000000001N080617000000000000000000000000000000000000000000000000000000000000000100027317668591ERONILTON SOUSA MOTA                    AVENIDA PRESIDENTE KENNEDY - 3203 - AVIA            11701330                                                            000101
2SR. CAIXA, APOS O VENCIMENTO COBRAR 10% DE MULTA                                NAO RECEBER APOS 30 DIAS DO VENCIMENTO.                                                                                                                                                                                                         08061700000000000000806170000000000000       009077090006612511474106117P000102
100000000000000000000009077090006612500000000000000000000000010002100011672108119300000000002            2  01116721081125061700000002866530000000001N080617000000000000000000000000000000000000000000000000000000000000000100001024794881CLAUDIO RODRIGUES                       RUA ARACATUBA - 242 - LAPA - SAO PAULO -            05058010                                                            000104
2SR. CAIXA, APOS O VENCIMENTO COBRAR 10% DE MULTA                                NAO RECEBER APOS 30 DIAS DO VENCIMENTO.                                                                                                                                                                                                         08061700000000000000806170000000000000       0090770900066125116721081193000105
100000000000000000000009077090006612500000000000000000000000010002100011872109121300000000002            2  01118721091225061700000004394750000000001N080617000000000000000000000000000000000000000000000000000000000000000100002225072841PEDRO EDUARDO DE AZEVEDO                RUA NATH ZILMAN - 46 - JARDIM SAMAMBAIA             07600000                                                            000107
2SR. CAIXA, APOS O VENCIMENTO COBRAR 10% DE MULTA                                NAO RECEBER APOS 30 DIAS DO VENCIMENTO.                                                                                                                                                                                                         08061700000000000000806170000000000000       0090770900066125118721091213000108
100000000000000000000009077090006612500000000000000000000000010002100011974110122P00000000002            2  01119741101225061700000003058280000000001N080617000000000000000000000000000000000000000000000000000000000000000100015039262817MARCOS ROBERTO DANTAS                   RUA SAO JOSE - 163 AP.33 - BAIRRO SAO JO            13224300                                                            000110
2SR. CAIXA, APOS O VENCIMENTO COBRAR 10% DE MULTA                                NAO RECEBER APOS 30 DIAS DO VENCIMENTO.                                                                                                                                                                                                         08061700000000000000806170000000000000       009077090006612511974110122P000111
100000000000000000000009077090006612500000000000000000000000010002100012179112124200000000002            2  01121791121225061700000004316710000000001N080617000000000000000000000000000000000000000000000000000000000000000100037555503859RAPHAEL DE MELLO                        RUA MARECHAL HERMES - 126 AP.121 - CANTO            11700250                                                            000113
2SR. CAIXA, APOS O VENCIMENTO COBRAR 10% DE MULTA                                NAO RECEBER APOS 30 DIAS DO VENCIMENTO.                                                                                                                                                                                                         08061700000000000000806170000000000000       0090770900066125121791121242000114
100000000000000000000009077090006612500000000000000000000000010002100012483114127500000000002            2  01124831141225061700000002490140000000001N080617000000000000000000000000000000000000000000000000000000000000000100019288787844EMERSON LUIZ MARTINEZ PEREIRA           RUA MONTE CASTELO - 296 AP.74 - AVIACAO             11702720                                                            000116
2SR. CAIXA, APOS O VENCIMENTO COBRAR 10% DE MULTA                                NAO RECEBER APOS 30 DIAS DO VENCIMENTO.                                                                                                                                                                                                         08061700000000000000806170000000000000       0090770900066125124831141275000117
100000000000000000000009077090006612500000000000000000000000010002100012686116129P00000000002            2  01126861161225061700000002109270000000001N080617000000000000000000000000000000000000000000000000000000000000000100027198452809CRISTIANE AURELIANO DA SILVA MAIA       RUA MONTE CASTELO - 262 AP.25 - AVIACAO             11702720                                                            000119
2SR. CAIXA, APOS O VENCIMENTO COBRAR 10% DE MULTA                                NAO RECEBER APOS 30 DIAS DO VENCIMENTO.                                                                                                                                                                                                         08061700000000000000806170000000000000       009077090006612512686116129P000120
100000000000000000000009077090006612500000000000000000000000010002100013030118133000000000002            2  01130301181325061700000002574130000000001N080617000000000000000000000000000000000000000000000000000000000000000100021246231840ALEXANDRO DA CUNHA MIGUES               AVENIDA CONSELHEIRO CARRAO - 1861 CONJ.5            03403001                                                            000122
2SR. CAIXA, APOS O VENCIMENTO COBRAR 10% DE MULTA                                NAO RECEBER APOS 30 DIAS DO VENCIMENTO.                                                                                                                                                                                                         08061700000000000000806170000000000000       0090770900066125130301181330000123
100000000000000000000009077090006612500000000000000000000000010002100013333121136500000000002            2  01133331211325061700000001541250000000001N080617000000000000000000000000000000000000000000000000000000000000000100004864924600RENATO SANTACHIARA SALVADORI            RUA PENSYLVANIA - 116 - PAYSAGE BRISE -             06730000                                                            000125
2SR. CAIXA, APOS O VENCIMENTO COBRAR 10% DE MULTA                                NAO RECEBER APOS 30 DIAS DO VENCIMENTO.                                                                                                                                                                                                         08061700000000000000806170000000000000       0090770900066125133331211365000126
100000000000000000000009077090006612500000000000000000000000010002100013534122138800000000002            2  01135341221325061700000003786920000000001N080617000000000000000000000000000000000000000000000000000000000000000100018470520881SILVANA ALVES DE OLIVEIRA               RUA MONTE CASTELO - 262 AP.91 - AVIACAO             11702720                                                            000128
2SR. CAIXA, APOS O VENCIMENTO COBRAR 10% DE MULTA                                NAO RECEBER APOS 30 DIAS DO VENCIMENTO.                                                                                                                                                                                                         08061700000000000000806170000000000000       0090770900066125135341221388000129
100000000000000000000009077090006612500000000000000000000000010002100013636123139400000000002            2  01136361231325061700000002636440000000001N080617000000000000000000000000000000000000000000000000000000000000000100009297523846MARCOS ROBERTO DE CASTRO FERREIRA       RUA MONTE CASTELO - 262 AP.105 - AVIACAO            11702720                                                            000131
2SR. CAIXA, APOS O VENCIMENTO COBRAR 10% DE MULTA                                NAO RECEBER APOS 30 DIAS DO VENCIMENTO.                                                                                                                                                                                                         08061700000000000000806170000000000000       0090770900066125136361231394000132
100000000000000000000009077090006612500000000000000000000000010002100014105126144000000000002            2  01141051261425061700000003267140000000001N080617000000000000000000000000000000000000000000000000000000000000000100001164158864DAVID BLEY LACERDA                      RUA CONEGO ARAUJO MARCONDES - 188 - BAIR            02550080                                                            000134
2SR. CAIXA, APOS O VENCIMENTO COBRAR 10% DE MULTA                                NAO RECEBER APOS 30 DIAS DO VENCIMENTO.                                                                                                                                                                                                         08061700000000000000806170000000000000       0090770900066125141051261440000135
100000000000000000000009077090006612500000000000000000000000010002100015497133159300000000002            2  01154971331525061700000003970730000000001N080617000000000000000000000000000000000000000000000000000000000000000100031498008895POLIANE  SIBELE DA SILVA                RUA FRANCISCO RODRIGUES SECKLER - 452 CA            08230020                                                            000137
2SR. CAIXA, APOS O VENCIMENTO COBRAR 10% DE MULTA                                NAO RECEBER APOS 30 DIAS DO VENCIMENTO.                                                                                                                                                                                                         08061700000000000000806170000000000000       0090770900066125154971331593000138
100000000000000000000009077090006612500000000000000000000000010002100016613140170P00000000002            2  01166131401725061700000002328920000000001N080617000000000000000000000000000000000000000000000000000000000000000100000588109860JOSE LIARTE GIANTE                      AVENIDA LUIZ GONZAGA DO AMARAL - 143 - J            09320630                                                            000140
2SR. CAIXA, APOS O VENCIMENTO COBRAR 10% DE MULTA                                NAO RECEBER APOS 30 DIAS DO VENCIMENTO.                                                                                                                                                                                                         08061700000000000000806170000000000000       009077090006612516613140170P000141
100000000000000000000009077090006612500000000000000000000000010002100017575144178600000000002            2  01175751441725061700000002635280000000001N080617000000000000000000000000000000000000000000000000000000000000000100000764632817LUIZ CARLOS ANTUNES JUNIOR              RUA MONTE CASTELO - 262 AP.35 - AVIACAO             11702720                                                            000143
2SR. CAIXA, APOS O VENCIMENTO COBRAR 10% DE MULTA                                NAO RECEBER APOS 30 DIAS DO VENCIMENTO.                                                                                                                                                                                                         08061700000000000000806170000000000000       0090770900066125175751441786000144
100000000000000000000009077090006612500000000000000000000000010002100018244146184800000000002            2  01182441461825061700000001863050000000001N080617000000000000000000000000000000000000000000000000000000000000000100014386860134SEVERINO CARLOS DE OLIVEIRA             RUA MONTE CASTELO - 262 AP.54 - AVIACAO             11702720                                                            000146
2SR. CAIXA, APOS O VENCIMENTO COBRAR 10% DE MULTA                                NAO RECEBER APOS 30 DIAS DO VENCIMENTO.                                                                                                                                                                                                         08061700000000000000806170000000000000       0090770900066125182441461848000147
100000000000000000000009077090006612500000000000000000000000010002100018641147187900000000002            2  01186411471825061700000002071210000000001N080617000000000000000000000000000000000000000000000000000000000000000100029088221804FABIANO SPERANDEO                       RUA MONTE CASTELO - 296 AP.93 - AVIACAO             11702720                                                            000149
2SR. CAIXA, APOS O VENCIMENTO COBRAR 10% DE MULTA                                NAO RECEBER APOS 30 DIAS DO VENCIMENTO.                                                                                                                                                                                                         08061700000000000000806170000000000000       0090770900066125186411471879000150
100000000000000000000009077090006612500000000000000000000000010002100019144151191700000000002            2  01191441511925061700000001567500000000001N080617000000000000000000000000000000000000000000000000000000000000000100053018338715JAIME YOSHIO YONAMINE                   AVENIDA MARCONDES DE BRITO - 1.283 CASA             03509000                                                            000152
2SR. CAIXA, APOS O VENCIMENTO COBRAR 10% DE MULTA                                NAO RECEBER APOS 30 DIAS DO VENCIMENTO.                                                                                                                                                                                                         08061700000000000000806170000000000000       0090770900066125191441511917000153
100000000000000000000009077090006612500000000000000000000000010002100021260161208900000000002            2  01212601612025061700000001284010000000001N080617000000000000000000000000000000000000000000000000000000000000000100039393790850NAIRON RICARDO DE ARAUJO SANTOS         RUA MONTE CASTELO - 262 AP.23 - AVIACAO             11702720                                                            000155
2SR. CAIXA, APOS O VENCIMENTO COBRAR 10% DE MULTA                                NAO RECEBER APOS 30 DIAS DO VENCIMENTO.                                                                                                                                                                                                         08061700000000000000806170000000000000       0090770900066125212601612089000156
100000000000000000000009077090006612500000000000000000000000010002100021379165209600000000002            2  01213791652025061700000003302620000000001N080617000000000000000000000000000000000000000000000000000000000000000100066104106820ANADIR FERREIRA                         RUA MONTE CASTELO - 296 AP.61 - AVIACAO             11702720                                                            000158
2SR. CAIXA, APOS O VENCIMENTO COBRAR 10% DE MULTA                                NAO RECEBER APOS 30 DIAS DO VENCIMENTO.                                                                                                                                                                                                         08061700000000000000806170000000000000       0090770900066125213791652096000159
100000000000000000000009077090006612500000000000000000000000010002100021439166210200000000002            2  01214391662125061700000001869960000000001N080617000000000000000000000000000000000000000000000000000000000000000100041896807968SERGIO ROBERTO DA SILVA                 RUA DOS INGLESES - 542 AP.61 - MORRO DOS            01329000                                                            000161
2SR. CAIXA, APOS O VENCIMENTO COBRAR 10% DE MULTA                                NAO RECEBER APOS 30 DIAS DO VENCIMENTO.                                                                                                                                                                                                         08061700000000000000806170000000000000       0090770900066125214391662102000162
100000000000000000000009077090006612500000000000000000000000010002100022072129215300000000002            2  01220721292125061700000001695610000000001N080617000000000000000000000000000000000000000000000000000000000000000100088137384804ANA LUCIA DA SILVA                      RUA DOUTOR EPAMINONDAS BARRA - 147 - VIL            04438100                                                            000164
2SR. CAIXA, APOS O VENCIMENTO COBRAR 10% DE MULTA                                NAO RECEBER APOS 30 DIAS DO VENCIMENTO.                                                                                                                                                                                                         08061700000000000000806170000000000000       0090770900066125220721292153000165
9                                                                                                                                                                                                                                                                                                                                                                                                         000166