01REMESSA01COBRANCA       00000000000008017025HB SANTOS CONSTRUTORA E INCORP237BRADESCO       080819        MX0000085                                                                                                                                                                                                                                                                                     000001
100000000000000000000009033990000627000000000000000000000000010002020025035108191P00000000002            2  01250351081924081900000002091270000000001N070819000000000000000000000000000000000000000000000000000000000000000100025035170802WANDERSON LUIS DE CARVALHO              RUA JOAQUIM GONCALVES ROCHA - 302 - JARD            02859030                                                            000002
2SR. CAIXA, APOS O VENCIMENTO COBRAR 2% DE MULTA                                 NAO RECEBER APOS 30 DIAS DO VENCIMENTO.                                                                                                                                                                                                         08081900000000000000808190000000000000       009033990000627025035108191P000003
100000000000000000000009033990000627000000000000000000000000010002020007294308191700000000002            2  01072943081924081900000002812790000000001N070819000000000000000000000000000000000000000000000000000000000000000100007294351805CLAUDENIR APARECIDO VACARI              RUA CARLOS JOSE BORSTENS - 50 AP.93 - AV            11702750                                                            000005
2SR. CAIXA, APOS O VENCIMENTO COBRAR 2% DE MULTA                                 NAO RECEBER APOS 30 DIAS DO VENCIMENTO.                                                                                                                                                                                                         08081900000000000000808190000000000000       0090339900006270072943081917000006
100000000000000000000009033990000627000000000000000000000000010002020042976108191700000000002            2  01429761081924081900000002842310000000001N070819000000000000000000000000000000000000000000000000000000000000000100042976111634ACACIO TOSCANO BONDANCA                 RUA COMENDADOR JACOMO ANTONIO LA SELVA -            12946797                                                            000008
2SR. CAIXA, APOS O VENCIMENTO COBRAR 2% DE MULTA                                 NAO RECEBER APOS 30 DIAS DO VENCIMENTO.                                                                                                                                                                                                         08081900000000000000808190000000000000       0090339900006270429761081917000009
100000000000000000000009033990000627000000000000000000000000010002020035438008191000000000002            2  01354380081924081900000002400470000000001N070819000000000000000000000000000000000000000000000000000000000000000100035438022836ALESSANDRO FARACO DOS SANTOS            RUA PEDRO POMAR  - 145 - JARDIM ELISA MA            02875020                                                            000011
2SR. CAIXA, APOS O VENCIMENTO COBRAR 2% DE MULTA                                 NAO RECEBER APOS 30 DIAS DO VENCIMENTO.                                                                                                                                                                                                         08081900000000000000808190000000000000       0090339900006270354380081910000012
100000000000000000000009033990000627000000000000000000000000010002020007525008191200000000002            2  01075250081924081900000003146220000000001N070819000000000000000000000000000000000000000000000000000000000000000100007525032866FERNANDO RIBEIRO                        RUA CARLOS JOSE BORSTENS - 50 AP.32 - AV            11702750                                                            000014
2SR. CAIXA, APOS O VENCIMENTO COBRAR 2% DE MULTA                                 NAO RECEBER APOS 30 DIAS DO VENCIMENTO.                                                                                                                                                                                                         08081900000000000000808190000000000000       0090339900006270075250081912000015
100000000000000000000009033990000627000000000000000000000000010002020005071408191800000000002            2  01050714081924081900000002759830000000001N070819000000000000000000000000000000000000000000000000000000000000000100005071481855ERIBALDO SANTANA CARVALHO               RUA HONDURAS - 477 - PARQUE DAS AMERICAS            09351070                                                            000017
2SR. CAIXA, APOS O VENCIMENTO COBRAR 2% DE MULTA                                 NAO RECEBER APOS 30 DIAS DO VENCIMENTO.                                                                                                                                                                                                         08081900000000000000808190000000000000       0090339900006270050714081918000018
100000000000000000000009033990000627000000000000000000000000010002020002841708191100000000002            2  01028417081924081900000002582090000000001N070819000000000000000000000000000000000000000000000000000000000000000100002841756416LUCIANA PINHEIRO DE ASSIS NUNES         RUA RIO ACIMA - 81 - RIACHO GRANDE - SAO            09830100                                                            000020
2SR. CAIXA, APOS O VENCIMENTO COBRAR 2% DE MULTA                                 NAO RECEBER APOS 30 DIAS DO VENCIMENTO.                                                                                                                                                                                                         08081900000000000000808190000000000000       0090339900006270028417081911000021
100000000000000000000009033990000627000000000000000000000000010002020084302008191000000000002            2  01843020081924081900000002594470000000001N070819000000000000000000000000000000000000000000000000000000000000000100084302097868FAUSTO TADEU VILOR                      RUA ANTONIO TAVARES - 466 - BAIRRO CAMBU            01542010                                                            000023
2SR. CAIXA, APOS O VENCIMENTO COBRAR 2% DE MULTA                                 NAO RECEBER APOS 30 DIAS DO VENCIMENTO.                                                                                                                                                                                                         08081900000000000000808190000000000000       0090339900006270843020081910000024
100000000000000000000009033990000627000000000000000000000000010002020028804208191000000000002            2  01288042081924081900000002549080000000001N070819000000000000000000000000000000000000000000000000000000000000000100028804202882GILBERTO FABIANO CABRAL DE CAMARGO      RUA CARLOS JOSE BORSTENS - 50 AP.44 - AV            11702750                                                            000026
2SR. CAIXA, APOS O VENCIMENTO COBRAR 2% DE MULTA                                 NAO RECEBER APOS 30 DIAS DO VENCIMENTO.                                                                                                                                                                                                         08081900000000000000808190000000000000       0090339900006270288042081910000027
100000000000000000000009033990000627000000000000000000000000010002020000991708191300000000002            2  01009917081924081900000002488000000000001N070819000000000000000000000000000000000000000000000000000000000000000100000991748808JAILSON BORGES DE ANDRADE               RUA IPIOBUNA - 45 - JARDIM CUMBICA - GUA            07240040                                                            000029
2SR. CAIXA, APOS O VENCIMENTO COBRAR 2% DE MULTA                                 NAO RECEBER APOS 30 DIAS DO VENCIMENTO.                                                                                                                                                                                                         08081900000000000000808190000000000000       0090339900006270009917081913000030
100000000000000000000009033990000627000000000000000000000000010002020092180208191000000000002            2  01921802081924081900000003392090000000001N070819000000000000000000000000000000000000000000000000000000000000000100092180299834LUIS ROBERTO DE SA DUARTE               RUA TEBAS - 296 AP.84 BLOCO 2 CE - JARDI            04634031                                                            000032
2SR. CAIXA, APOS O VENCIMENTO COBRAR 2% DE MULTA                                 NAO RECEBER APOS 30 DIAS DO VENCIMENTO.                                                                                                                                                                                                         08081900000000000000808190000000000000       0090339900006270921802081910000033
100000000000000000000009033990000627000000000000000000000000010002020092180208192900000000002            2  01921802081930081900000003392040000000001N070819000000000000000000000000000000000000000000000000000000000000000100092180299834LUIS ROBERTO DE SA DUARTE               RUA TEBAS - 296 AP.84 BLOCO 2 CE - JARDI            04634031                                                            000035
2SR. CAIXA, APOS O VENCIMENTO COBRAR 2% DE MULTA                                 NAO RECEBER APOS 30 DIAS DO VENCIMENTO.                                                                                                                                                                                                         08081900000000000000808190000000000000       0090339900006270921802081929000036
100000000000000000000009033990000627000000000000000000000000010002020092180208193700000000002            2  01921802081930081900000003392050000000001N070819000000000000000000000000000000000000000000000000000000000000000100092180299834LUIS ROBERTO DE SA DUARTE               RUA TEBAS - 296 AP.84 BLOCO 2 CE - JARDI            04634031                                                            000038
2SR. CAIXA, APOS O VENCIMENTO COBRAR 2% DE MULTA                                 NAO RECEBER APOS 30 DIAS DO VENCIMENTO.                                                                                                                                                                                                         08081900000000000000808190000000000000       0090339900006270921802081937000039
100000000000000000000009033990000627000000000000000000000000010002020092180208194500000000002            2  01921802081930081900000003392060000000001N070819000000000000000000000000000000000000000000000000000000000000000100092180299834LUIS ROBERTO DE SA DUARTE               RUA TEBAS - 296 AP.84 BLOCO 2 CE - JARDI            04634031                                                            000041
2SR. CAIXA, APOS O VENCIMENTO COBRAR 2% DE MULTA                                 NAO RECEBER APOS 30 DIAS DO VENCIMENTO.                                                                                                                                                                                                         08081900000000000000808190000000000000       0090339900006270921802081945000042
100000000000000000000009033990000627000000000000000000000000010002020092180208195300000000002            2  01921802081930081900000003392070000000001N070819000000000000000000000000000000000000000000000000000000000000000100092180299834LUIS ROBERTO DE SA DUARTE               RUA TEBAS - 296 AP.84 BLOCO 2 CE - JARDI            04634031                                                            000044
2SR. CAIXA, APOS O VENCIMENTO COBRAR 2% DE MULTA                                 NAO RECEBER APOS 30 DIAS DO VENCIMENTO.                                                                                                                                                                                                         08081900000000000000808190000000000000       0090339900006270921802081953000045
100000000000000000000009033990000627000000000000000000000000010002020092180208196100000000002            2  01921802081930081900000003392080000000001N070819000000000000000000000000000000000000000000000000000000000000000100092180299834LUIS ROBERTO DE SA DUARTE               RUA TEBAS - 296 AP.84 BLOCO 2 CE - JARDI            04634031                                                            000047
2SR. CAIXA, APOS O VENCIMENTO COBRAR 2% DE MULTA                                 NAO RECEBER APOS 30 DIAS DO VENCIMENTO.                                                                                                                                                                                                         08081900000000000000808190000000000000       0090339900006270921802081961000048
100000000000000000000009033990000627000000000000000000000000010002020022151608191P00000000002            2  01221516081924081900000002473580000000001N070819000000000000000000000000000000000000000000000000000000000000000100022151666816SAMIR LIMA DE ARAUJO                    AVENIDA GUARAPIRANGA - 2616 AP.42 BLOCO1            04902005                                                            000050
2SR. CAIXA, APOS O VENCIMENTO COBRAR 2% DE MULTA                                 NAO RECEBER APOS 30 DIAS DO VENCIMENTO.                                                                                                                                                                                                         08081900000000000000808190000000000000       009033990000627022151608191P000051
100000000000000000000009033990000627000000000000000000000000010002020022313108191100000000002            2  01223131081926081900000001902760000000001N070819000000000000000000000000000000000000000000000000000000000000000100022313116824ROSA MARIA BRITO DA SILVA               RUA SERVIDAO DE SAO MARCOS - 113 - JARDI            04930300                                                            000053
2SR. CAIXA, APOS O VENCIMENTO COBRAR 2% DE MULTA                                 NAO RECEBER APOS 30 DIAS DO VENCIMENTO.                                                                                                                                                                                                         08081900000000000000808190000000000000       0090339900006270223131081911000054
100000000000000000000009033990000627000000000000000000000000010002020027538008191300000000002            2  01275380081926081900000001909390000000001N070819000000000000000000000000000000000000000000000000000000000000000100027538087249MARA LUCIA MENEZES DA COSTA             RUA LEILA  - 183 - ITAQUERA - SAO PAULO             08240020                                                            000056
2SR. CAIXA, APOS O VENCIMENTO COBRAR 2% DE MULTA                                 NAO RECEBER APOS 30 DIAS DO VENCIMENTO.                                                                                                                                                                                                         08081900000000000000808190000000000000       0090339900006270275380081913000057
100000000000000000000009033990000627000000000000000000000000010002020031278408191P00000000002            2  01312784081924081900000002389530000000001N070819000000000000000000000000000000000000000000000000000000000000000100031278411836JEFFERSON DE PIERI PIRES ZAMUNER        RUA MANOEL ARCE - 277 - PARQUE BANCARIO             03922150                                                            000059
2SR. CAIXA, APOS O VENCIMENTO COBRAR 2% DE MULTA                                 NAO RECEBER APOS 30 DIAS DO VENCIMENTO.                                                                                                                                                                                                         08081900000000000000808190000000000000       009033990000627031278408191P000060
100000000000000000000009033990000627000000000000000000000000010002020019185708191100000000002            2  01191857081926081900000001737580000000001N070819000000000000000000000000000000000000000000000000000000000000000100019185769800AGUINALDO PESSOA DE LIMA                RUA JANUARIO ZINGARO - 252 AP.303 BL.04             05794300                                                            000062
2SR. CAIXA, APOS O VENCIMENTO COBRAR 2% DE MULTA                                 NAO RECEBER APOS 30 DIAS DO VENCIMENTO.                                                                                                                                                                                                         08081900000000000000808190000000000000       0090339900006270191857081911000063
100000000000000000000009033990000627000000000000000000000000010002020033303608191200000000002            2  01333036081926081900000001871540000000001N070819000000000000000000000000000000000000000000000000000000000000000100033303645809JESSICA DA SILVA FREITAS                RUA ARILDO VALADAO - 120 - JARDIM GUAEMB            04814600                                                            000065
2SR. CAIXA, APOS O VENCIMENTO COBRAR 2% DE MULTA                                 NAO RECEBER APOS 30 DIAS DO VENCIMENTO.                                                                                                                                                                                                         08081900000000000000808190000000000000       0090339900006270333036081912000066
100000000000000000000009033990000627000000000000000000000000010002020004824408191100000000002            2  01048244081926081900000001886340000000001N070819000000000000000000000000000000000000000000000000000000000000000100004824443806ROSIMEIRE CLARA FERREIRA REZENDE        RUA JOSE CALIXTO DO CARMO - 286 AP.43 -             11702690                                                            000068
2SR. CAIXA, APOS O VENCIMENTO COBRAR 2% DE MULTA                                 NAO RECEBER APOS 30 DIAS DO VENCIMENTO.                                                                                                                                                                                                         08081900000000000000808190000000000000       0090339900006270048244081911000069
100000000000000000000009033990000627000000000000000000000000010002020006422608191800000000002            2  01064226081924081900000002587920000000001N070819000000000000000000000000000000000000000000000000000000000000000100006422607881GERALDO ALVES DA SILVA                  RUA CARLOS JOSE BORSTENS - 50 AP.14 - AV            11702750                                                            000071
2SR. CAIXA, APOS O VENCIMENTO COBRAR 2% DE MULTA                                 NAO RECEBER APOS 30 DIAS DO VENCIMENTO.                                                                                                                                                                                                         08081900000000000000808190000000000000       0090339900006270064226081918000072
100000000000000000000009033990000627000000000000000000000000010002020033877108191P00000000002            2  01338771081926081900000001754620000000001N070819000000000000000000000000000000000000000000000000000000000000000100033877129870HELDER FERREIRA VIANA                   RUA JOSE CALIXTO DO CARMO - 286 AP.35 -             11702690                                                            000074
2SR. CAIXA, APOS O VENCIMENTO COBRAR 2% DE MULTA                                 NAO RECEBER APOS 30 DIAS DO VENCIMENTO.                                                                                                                                                                                                         08081900000000000000808190000000000000       009033990000627033877108191P000075
100000000000000000000009033990000627000000000000000000000000010002020028290708191300000000002            2  01282907081926081900000001617100000000001N070819000000000000000000000000000000000000000000000000000000000000000100028290719809VANESSA GIANGARRELLI PEREIRA            RUA BARINEL - 72 - JARDIM COTCHING - SAO            03462130                                                            000077
2SR. CAIXA, APOS O VENCIMENTO COBRAR 2% DE MULTA                                 NAO RECEBER APOS 30 DIAS DO VENCIMENTO.                                                                                                                                                                                                         08081900000000000000808190000000000000       0090339900006270282907081913000078
100000000000000000000009033990000627000000000000000000000000010002020028290708192100000000002            2  01282907081926081900000001617050000000001N070819000000000000000000000000000000000000000000000000000000000000000100028290719809VANESSA GIANGARRELLI PEREIRA            RUA BARINEL - 72 - JARDIM COTCHING - SAO            03462130                                                            000080
2SR. CAIXA, APOS O VENCIMENTO COBRAR 2% DE MULTA                                 NAO RECEBER APOS 30 DIAS DO VENCIMENTO.                                                                                                                                                                                                         08081900000000000000808190000000000000       0090339900006270282907081921000081
100000000000000000000009033990000627000000000000000000000000010002020087573008191900000000002            2  01875730081926081900000001765870000000001N070819000000000000000000000000000000000000000000000000000000000000000100087573059604VANDERLEY DE ASSIS                      RUA ROMEU ALBANI - 268 - JARDIM PARQUE R            13803810                                                            000083
2SR. CAIXA, APOS O VENCIMENTO COBRAR 2% DE MULTA                                 NAO RECEBER APOS 30 DIAS DO VENCIMENTO.                                                                                                                                                                                                         08081900000000000000808190000000000000       0090339900006270875730081919000084
100000000000000000000009033990000627000000000000000000000000010002020010825508191600000000002            2  01108255081926081900000001842790000000001N070819000000000000000000000000000000000000000000000000000000000000000100010825513847JOSE APARECIDO PEREIRA                  RUA GENERAL OSORIO - 305 - JARDIM TRINTA            11515130                                                            000086
2SR. CAIXA, APOS O VENCIMENTO COBRAR 2% DE MULTA                                 NAO RECEBER APOS 30 DIAS DO VENCIMENTO.                                                                                                                                                                                                         08081900000000000000808190000000000000       0090339900006270108255081916000087
100000000000000000000009033990000627000000000000000000000000010002020038818508191600000000002            2  01388185081926081900000001874280000000001N070819000000000000000000000000000000000000000000000000000000000000000100038818572814MAURICIUS ALEXANDRE ESTEVAM NABOR       RUA JOSE CALIXTO DO CARMO - 286 AP.25 -             11702690                                                            000089
2SR. CAIXA, APOS O VENCIMENTO COBRAR 2% DE MULTA                                 NAO RECEBER APOS 30 DIAS DO VENCIMENTO.                                                                                                                                                                                                         08081900000000000000808190000000000000       0090339900006270388185081916000090
100000000000000000000009033990000627000000000000000000000000010002020039115108191800000000002            2  01391151081926081900000002271540000000001N070819000000000000000000000000000000000000000000000000000000000000000100039115139840LAIS CRISTINA RIBEIRO ANDO              RUA PERU - 769 AP.17 - VILA GUILHERMINA             11702250                                                            000092
2SR. CAIXA, APOS O VENCIMENTO COBRAR 2% DE MULTA                                 NAO RECEBER APOS 30 DIAS DO VENCIMENTO.                                                                                                                                                                                                         08081900000000000000808190000000000000       0090339900006270391151081918000093
100000000000000000000009033990000627000000000000000000000000010002020029617508191600000000002            2  01296175081924081900000002540140000000001N070819000000000000000000000000000000000000000000000000000000000000000100029617510553MARILENE SOUZA DE OLIVEIRA              AVENIDA BRASIL - 393 AP.09 - PARQUE DAS             09210280                                                            000095
2SR. CAIXA, APOS O VENCIMENTO COBRAR 2% DE MULTA                                 NAO RECEBER APOS 30 DIAS DO VENCIMENTO.                                                                                                                                                                                                         08081900000000000000808190000000000000       0090339900006270296175081916000096
100000000000000000000009033990000627000000000000000000000000010002020000593208191600000000002            2  01005932081924081900000002785900000000001N070819000000000000000000000000000000000000000000000000000000000000000100000593293860WALTER HELIO BARBOSA FILHO              AVENIDA ANTONIO FREDERICO OZANAN - 9500             13214206                                                            000098
2SR. CAIXA, APOS O VENCIMENTO COBRAR 2% DE MULTA                                 NAO RECEBER APOS 30 DIAS DO VENCIMENTO.                                                                                                                                                                                                         08081900000000000000808190000000000000       0090339900006270005932081916000099
100000000000000000000009033990000627000000000000000000000000010002020007730008191100000000002            2  01077300081924081900000003961820000000001N070819000000000000000000000000000000000000000000000000000000000000000100007730084899ARNALDO LUIZ VONO                       RUA CARLOS JOSE BORSTENS - 50 AP.122 - A            11702750                                                            000101
2SR. CAIXA, APOS O VENCIMENTO COBRAR 2% DE MULTA                                 NAO RECEBER APOS 30 DIAS DO VENCIMENTO.                                                                                                                                                                                                         08081900000000000000808190000000000000       0090339900006270077300081911000102
100000000000000000000009033990000627000000000000000000000000010002020065584108191800000000002            2  01655841081924081900000001462440000000001N070819000000000000000000000000000000000000000000000000000000000000000100065584147834JOAQUIM DA COSTA MACHADO NETO           RUA CARLOS JOSE BORSTENS - 50 AP.42 - AV            11702750                                                            000104
2SR. CAIXA, APOS O VENCIMENTO COBRAR 2% DE MULTA                                 NAO RECEBER APOS 30 DIAS DO VENCIMENTO.                                                                                                                                                                                                         08081900000000000000808190000000000000       0090339900006270655841081918000105
100000000000000000000009033990000627000000000000000000000000010002020065584108192600000000002            2  01655841081924081900000001462310000000001N070819000000000000000000000000000000000000000000000000000000000000000100065584147834JOAQUIM DA COSTA MACHADO NETO           RUA CARLOS JOSE BORSTENS - 50 AP.42 - AV            11702750                                                            000107
2SR. CAIXA, APOS O VENCIMENTO COBRAR 2% DE MULTA                                 NAO RECEBER APOS 30 DIAS DO VENCIMENTO.                                                                                                                                                                                                         08081900000000000000808190000000000000       0090339900006270655841081926000108
100000000000000000000009033990000627000000000000000000000000010002020001616908191P00000000002            2  01016169081924081900000011641150000000001N070819000000000000000000000000000000000000000000000000000000000000000100001616913827CLAUDIO LUIZ PAULELLA                   PRACA NESTOR DOS SANTOS ARRUDA - 26 - VI            13920000                                                            000110
2SR. CAIXA, APOS O VENCIMENTO COBRAR 2% DE MULTA                                 NAO RECEBER APOS 30 DIAS DO VENCIMENTO.                                                                                                                                                                                                         08081900000000000000808190000000000000       009033990000627001616908191P000111
100000000000000000000009033990000627000000000000000000000000010002020001616908192800000000002            2  01016169081924081900000002571980000000001N070819000000000000000000000000000000000000000000000000000000000000000100001616913827CLAUDIO LUIZ PAULELLA                   PRACA NESTOR DOS SANTOS ARRUDA - 26 - VI            13920000                                                            000113
2SR. CAIXA, APOS O VENCIMENTO COBRAR 2% DE MULTA                                 NAO RECEBER APOS 30 DIAS DO VENCIMENTO.                                                                                                                                                                                                         08081900000000000000808190000000000000       0090339900006270016169081928000114
100000000000000000000009033990000627000000000000000000000000010002020006684608191000000000002            2  01066846081926081900000001871290000000001N070819000000000000000000000000000000000000000000000000000000000000000100006684623884LAUDINOR VIEIRA GARCIA                  RUA CANDIDO SALES - 374 - JARDIM PRESIDE            07172000                                                            000116
2SR. CAIXA, APOS O VENCIMENTO COBRAR 2% DE MULTA                                 NAO RECEBER APOS 30 DIAS DO VENCIMENTO.                                                                                                                                                                                                         08081900000000000000808190000000000000       0090339900006270066846081910000117
100000000000000000000009033990000627000000000000000000000000010002020011663508191100000000002            2  01116635081926081900000001884780000000001N070819000000000000000000000000000000000000000000000000000000000000000100011663589844MARIA SAVIO QUARELLO                    AVENIDA MENDONCA DRUMOND - 321 - JARDIM             03524030                                                            000119
2SR. CAIXA, APOS O VENCIMENTO COBRAR 2% DE MULTA                                 NAO RECEBER APOS 30 DIAS DO VENCIMENTO.                                                                                                                                                                                                         08081900000000000000808190000000000000       0090339900006270116635081911000120
100000000000000000000009033990000627000000000000000000000000010002020010083808191300000000002            2  01100838081926081900000001820990000000001N070819000000000000000000000000000000000000000000000000000000000000000100010083824855IONE FERREIRA COUTO DA SILVA            RUA JOSE RAGEL DE MESQUITA - 60 CS.01 -             07799999                                                            000122
2SR. CAIXA, APOS O VENCIMENTO COBRAR 2% DE MULTA                                 NAO RECEBER APOS 30 DIAS DO VENCIMENTO.                                                                                                                                                                                                         08081900000000000000808190000000000000       0090339900006270100838081913000123
100000000000000000000009033990000627000000000000000000000000010002020036881708191600000000002            2  01368817081926081900000001787000000000001N070819000000000000000000000000000000000000000000000000000000000000000100036881778864ANDRE GONZALEZ RABELLO                  RUA PARAIBA - 106 AP.61 - POMPEIA - SANT            11065470                                                            000125
2SR. CAIXA, APOS O VENCIMENTO COBRAR 2% DE MULTA                                 NAO RECEBER APOS 30 DIAS DO VENCIMENTO.                                                                                                                                                                                                         08081900000000000000808190000000000000       0090339900006270368817081916000126
100000000000000000000009033990000627000000000000000000000000010002020018207008191500000000002            2  01182070081924081900000002463220000000001N070819000000000000000000000000000000000000000000000000000000000000000100018207096802ROBERTO VALENTE TAVARES                 RUA SEBASTIAO GOMES - 218 - JARDIM SANTO            13835000                                                            000128
2SR. CAIXA, APOS O VENCIMENTO COBRAR 2% DE MULTA                                 NAO RECEBER APOS 30 DIAS DO VENCIMENTO.                                                                                                                                                                                                         08081900000000000000808190000000000000       0090339900006270182070081915000129
100000000000000000000009033990000627000000000000000000000000010002020005351008191800000000002            2  01053510081926081900000001675490000000001N070819000000000000000000000000000000000000000000000000000000000000000100005351015897VALERIA ALVES MARCOLINO HINNIGER        RUA MONGOLIA - 230 AP.71 BL.4 - PARQUE N            09280220                                                            000131
2SR. CAIXA, APOS O VENCIMENTO COBRAR 2% DE MULTA                                 NAO RECEBER APOS 30 DIAS DO VENCIMENTO.                                                                                                                                                                                                         08081900000000000000808190000000000000       0090339900006270053510081918000132
100000000000000000000009033990000627000000000000000000000000010002020031898708191300000000002            2  01318987081924081900000002665670000000001N070819000000000000000000000000000000000000000000000000000000000000000100031898775800ANITA MARTINS COLOMBO                   RUA CARLOS JOSE BORSTENS - 50 AP.115 - A            11702750                                                            000134
2SR. CAIXA, APOS O VENCIMENTO COBRAR 2% DE MULTA                                 NAO RECEBER APOS 30 DIAS DO VENCIMENTO.                                                                                                                                                                                                         08081900000000000000808190000000000000       0090339900006270318987081913000135
100000000000000000000009033990000627000000000000000000000000010002020037983408191300000000002            2  01379834081926081900000001968150000000001N070819000000000000000000000000000000000000000000000000000000000000000100037983484801JOSE ERIVALDO SOUZA DO NASCIMENTO RAMOS RUA LETICIA - 250 - JARDIM GUARUJA - SAO            05877260                                                            000137
2SR. CAIXA, APOS O VENCIMENTO COBRAR 2% DE MULTA                                 NAO RECEBER APOS 30 DIAS DO VENCIMENTO.                                                                                                                                                                                                         08081900000000000000808190000000000000       0090339900006270379834081913000138
100000000000000000000009033990000627000000000000000000000000010002020056289208191400000000002            2  01562892081926081900000001486840000000001N070819000000000000000000000000000000000000000000000000000000000000000100056289286900PEDRO RIBEIRO                           RUA CONEGO MANOEL VAZ - 48 - SANTANA - S            02019050                                                            000140
2SR. CAIXA, APOS O VENCIMENTO COBRAR 2% DE MULTA                                 NAO RECEBER APOS 30 DIAS DO VENCIMENTO.                                                                                                                                                                                                         08081900000000000000808190000000000000       0090339900006270562892081914000141
100000000000000000000009033990000627000000000000000000000000010002020005025508191800000000002            2  01050255081926081900000002115930000000001N070819000000000000000000000000000000000000000000000000000000000000000100005025595860CONCEICAO APARECIDA DE MESQUITA PEREIRA RUA TRIUNFO - 835 AP.105 - JARDIM SAO LU            14020670                                                            000143
2SR. CAIXA, APOS O VENCIMENTO COBRAR 2% DE MULTA                                 NAO RECEBER APOS 30 DIAS DO VENCIMENTO.                                                                                                                                                                                                         08081900000000000000808190000000000000       0090339900006270050255081918000144
100000000000000000000009033990000627000000000000000000000000010002020034735308191000000000002            2  01347353081926081900000002040590000000001N070819000000000000000000000000000000000000000000000000000000000000000100034735328866DIEGO FELIPE MOLINA DA SILVA E SOUSA    RUA EMILIA PAULISTA - 135 - VILA TIRADEN            05364020                                                            000146
2SR. CAIXA, APOS O VENCIMENTO COBRAR 2% DE MULTA                                 NAO RECEBER APOS 30 DIAS DO VENCIMENTO.                                                                                                                                                                                                         08081900000000000000808190000000000000       0090339900006270347353081910000147
100000000000000000000009033990000627000000000000000000000000010002020076175608191100000000002            2  01761756081924081900000003699360000000001N070819000000000000000000000000000000000000000000000000000000000000000100076175685687GILMAR DE OLIVEIRA BRAGA                RUA MARACAJU - 161 AP.202 - NOVA GRANADA            30431350                                                            000149
2SR. CAIXA, APOS O VENCIMENTO COBRAR 2% DE MULTA                                 NAO RECEBER APOS 30 DIAS DO VENCIMENTO.                                                                                                                                                                                                         08081900000000000000808190000000000000       0090339900006270761756081911000150
100000000000000000000009033990000627000000000000000000000000010002020034812208191400000000002            2  01348122081924081900000003528120000000001N070819000000000000000000000000000000000000000000000000000000000000000100034812226880THAIS TORQUATO MIMOSO DE JESUS          RUA ARNALDO CINTRA - 416 AP.104 TORRE 2             03088000                                                            000152
2SR. CAIXA, APOS O VENCIMENTO COBRAR 2% DE MULTA                                 NAO RECEBER APOS 30 DIAS DO VENCIMENTO.                                                                                                                                                                                                         08081900000000000000808190000000000000       0090339900006270348122081914000153
9                                                                                                                                                                                                                                                                                                                                                                                                         000154