01REMESSA01COBRANCA       00000000000005331186HB SANTOS CONSTRUTORA E INCORP237BRADESCO       010923        MX0000080                                                                                                                                                                                                                                                                                     000001
100000000000000000000009033990000995400000000000000000000000010002020026858609231100000000002            2  01268586092308092300000003193470000000001N010923000000000000000000000000000000000000000000000000000000000000000100026858625879GLAUCE FERREIRA DE OLIVEIRA FALSI       RUA LOURENCO ANTONIO BRAGANCA - 116 - JA            04403160                                                            000002
2SR. CAIXA, APOS O VENCIMENTO COBRAR 2% DE MULTA                                 NAO RECEBER APOS 30 DIAS DO VENCIMENTO.                                                                                                                                                                                                         01092300000000000000109230000000000000       0090339900009954268586092311000003
100000000000000000000009033990000995400000000000000000000000010002020029425009231400000000002            2  01294250092308092300000003036980000000001N010923000000000000000000000000000000000000000000000000000000000000000100029425027897FABIA DOS SANTOS DE ANDRADE             AVENIDA ALCIDES CANDIDO DOS SANTOS - 248            11705480                                                            000005
2SR. CAIXA, APOS O VENCIMENTO COBRAR 2% DE MULTA                                 NAO RECEBER APOS 30 DIAS DO VENCIMENTO.                                                                                                                                                                                                         01092300000000000000109230000000000000       0090339900009954294250092314000006
100000000000000000000009033990000995400000000000000000000000010002020078382709231P00000000002            2  01783827092308092300000003069040000000001N010923000000000000000000000000000000000000000000000000000000000000000100078382700497JARMELINA BARBOSA DA SILVA              RUA OSCAR CINTRA GORDINHO - 211 AP.51 -             01512010                                                            000008
2SR. CAIXA, APOS O VENCIMENTO COBRAR 2% DE MULTA                                 NAO RECEBER APOS 30 DIAS DO VENCIMENTO.                                                                                                                                                                                                         01092300000000000000109230000000000000       009033990000995478382709231P000009
100000000000000000000009033990000995400000000000000000000000010002020007535309231900000000002            2  01075353092308092300000003009570000000001N010923000000000000000000000000000000000000000000000000000000000000000100007535375839AINAILDE PEREIRA DE CASTRO OLIVETTO     TRAVESSA DORALINA ELIETE ADAO DA SILVA -            08021026                                                            000011
2SR. CAIXA, APOS O VENCIMENTO COBRAR 2% DE MULTA                                 NAO RECEBER APOS 30 DIAS DO VENCIMENTO.                                                                                                                                                                                                         01092300000000000000109230000000000000       0090339900009954075353092319000012
100000000000000000000009033990000995400000000000000000000000010002020017229709231400000000002            2  01172297092308092300000003187980000000001N010923000000000000000000000000000000000000000000000000000000000000000100017229751802BERENICE VIEIRA KERSTING                RUA ATIBAIA - 17 AP.417 - BAIRRO IMPERAD            11707380                                                            000014
2SR. CAIXA, APOS O VENCIMENTO COBRAR 2% DE MULTA                                 NAO RECEBER APOS 30 DIAS DO VENCIMENTO.                                                                                                                                                                                                         01092300000000000000109230000000000000       0090339900009954172297092314000015
100000000000000000000009033990000995400000000000000000000000010002020028974209231600000000002            2  01289742092308092300000002977490000000001N010923000000000000000000000000000000000000000000000000000000000000000100028974233827MARISTELA FAVANI DE OLIVEIRA            RUA GIUSEPPE CARNEVALLI - 96 - BAIRRO BO            09572100                                                            000017
2SR. CAIXA, APOS O VENCIMENTO COBRAR 2% DE MULTA                                 NAO RECEBER APOS 30 DIAS DO VENCIMENTO.                                                                                                                                                                                                         01092300000000000000109230000000000000       0090339900009954289742092316000018
100000000000000000000009033990000995400000000000000000000000010002020092184809231300000000002            2  01921848092308092300000002937870000000001N010923000000000000000000000000000000000000000000000000000000000000000100092184804800CARMEM DO SOCORRO GUILHERME             ESTRADA SAO FRANCISCO - 1.850 AP.182A -             06765000                                                            000020
2SR. CAIXA, APOS O VENCIMENTO COBRAR 2% DE MULTA                                 NAO RECEBER APOS 30 DIAS DO VENCIMENTO.                                                                                                                                                                                                         01092300000000000000109230000000000000       0090339900009954921848092313000021
100000000000000000000009033990000995400000000000000000000000010002020009169709231300000000002            2  01091697092308092300000006487890000000001N010923000000000000000000000000000000000000000000000000000000000000000100009169701830TADEU CONSTANTINO LOPES                 RUA JOSE ANTONIO COELHO - 349 CASA 01 -             04011061                                                            000023
2SR. CAIXA, APOS O VENCIMENTO COBRAR 2% DE MULTA                                 NAO RECEBER APOS 30 DIAS DO VENCIMENTO.                                                                                                                                                                                                         01092300000000000000109230000000000000       0090339900009954091697092313000024
100000000000000000000009033990000995400000000000000000000000010002020009169709232100000000002            2  01091697092308092300000002356200000000001N010923000000000000000000000000000000000000000000000000000000000000000100009169701830TADEU CONSTANTINO LOPES                 RUA JOSE ANTONIO COELHO - 349 CASA 01 -             04011061                                                            000026
2SR. CAIXA, APOS O VENCIMENTO COBRAR 2% DE MULTA                                 NAO RECEBER APOS 30 DIAS DO VENCIMENTO.                                                                                                                                                                                                         01092300000000000000109230000000000000       0090339900009954091697092321000027
100000000000000000000009033990000995400000000000000000000000010002020042480109231100000000002            2  01424801092308092300000002997320000000001N010923000000000000000000000000000000000000000000000000000000000000000100042480155870JAMITRE SOIOMARA ALVES DO NASCIMENTO DAVRUA URUGUAI - 89 AP.75 - JARDIM GUILHERM            11702300                                                            000029
2SR. CAIXA, APOS O VENCIMENTO COBRAR 2% DE MULTA                                 NAO RECEBER APOS 30 DIAS DO VENCIMENTO.                                                                                                                                                                                                         01092300000000000000109230000000000000       0090339900009954424801092311000030
100000000000000000000009033990000995400000000000000000000000010002020008966509231700000000002            2  01089665092308092300000002831970000000001N010923000000000000000000000000000000000000000000000000000000000000000100008966511856MONICA SILVA REIS                       RUA ORATORIO - 264 E FUNDOS - BANGU - SA            09280550                                                            000032
2SR. CAIXA, APOS O VENCIMENTO COBRAR 2% DE MULTA                                 NAO RECEBER APOS 30 DIAS DO VENCIMENTO.                                                                                                                                                                                                         01092300000000000000109230000000000000       0090339900009954089665092317000033
100000000000000000000009033990000995400000000000000000000000010002020001356909231800000000002            2  01013569092308092300000003041940000000001N010923000000000000000000000000000000000000000000000000000000000000000100001356993800DALVA MARIA DOS SANTOS                  RUA URUGUAI - 89 AP.74 - AVIACAO - PRAIA            11702300                                                            000035
2SR. CAIXA, APOS O VENCIMENTO COBRAR 2% DE MULTA                                 NAO RECEBER APOS 30 DIAS DO VENCIMENTO.                                                                                                                                                                                                         01092300000000000000109230000000000000       0090339900009954013569092318000036
100000000000000000000009033990000995400000000000000000000000010002020024615509231000000000002            2  01246155092308092300000003469200000000001N010923000000000000000000000000000000000000000000000000000000000000000100024615557884GILBERTO JOSE GONSALES                  RUA URUGUAI - 89 AP.115 - JARDIM GUILHER            11702300                                                            000038
2SR. CAIXA, APOS O VENCIMENTO COBRAR 2% DE MULTA                                 NAO RECEBER APOS 30 DIAS DO VENCIMENTO.                                                                                                                                                                                                         01092300000000000000109230000000000000       0090339900009954246155092310000039
100000000000000000000009033990000995400000000000000000000000010002020036949509231P00000000002            2  01369495092308092300000003246330000000001N010923000000000000000000000000000000000000000000000000000000000000000100036949505833FELIPE APARECIDO DOS SANTOS             RUA DAS MIMOSAS - 67 CASA 09 - VILA LUCI            03144010                                                            000041
2SR. CAIXA, APOS O VENCIMENTO COBRAR 2% DE MULTA                                 NAO RECEBER APOS 30 DIAS DO VENCIMENTO.                                                                                                                                                                                                         01092300000000000000109230000000000000       009033990000995436949509231P000042
100000000000000000000009033990000995400000000000000000000000010002020008539309231700000000002            2  01085393092308092300000003316810000000001N010923000000000000000000000000000000000000000000000000000000000000000100008539365871EDMILSON RAIMUNDO DOS SANTOS            RUA CALIDICE - 247 - PARQUE CRUZEIRO - S            08070010                                                            000044
2SR. CAIXA, APOS O VENCIMENTO COBRAR 2% DE MULTA                                 NAO RECEBER APOS 30 DIAS DO VENCIMENTO.                                                                                                                                                                                                         01092300000000000000109230000000000000       0090339900009954085393092317000045
100000000000000000000009033990000995400000000000000000000000010002020024558909231200000000002            2  01245589092308092300000005712780000000001N010923000000000000000000000000000000000000000000000000000000000000000100024558912838EDILENE GORGATTI                        RUA ITARARE - 76 AP.142 - JARDIM GUILHER            11701820                                                            000047
2SR. CAIXA, APOS O VENCIMENTO COBRAR 2% DE MULTA                                 NAO RECEBER APOS 30 DIAS DO VENCIMENTO.                                                                                                                                                                                                         01092300000000000000109230000000000000       0090339900009954245589092312000048
100000000000000000000009033990000995400000000000000000000000010002020004611209231800000000002            2  01046112092308092300000002103680000000001N010923000000000000000000000000000000000000000000000000000000000000000100004611218830TANIA MARIA DA SILVA NUNES PEREIRA LUIZ RUA URUGUAI - 89 AP.103 - JARDIM GUILHER            11702300                                                            000050
2SR. CAIXA, APOS O VENCIMENTO COBRAR 2% DE MULTA                                 NAO RECEBER APOS 30 DIAS DO VENCIMENTO.                                                                                                                                                                                                         01092300000000000000109230000000000000       0090339900009954046112092318000051
100000000000000000000009033990000995400000000000000000000000010002020010548809231500000000002            2  01105488092308092300000003737910000000001N010923000000000000000000000000000000000000000000000000000000000000000100010548844801RICARDO DE JESUS CALDAS                 RUA ANTONIO AMBUBA - 50 CASA 60 - BAIRRO            05782370                                                            000053
2SR. CAIXA, APOS O VENCIMENTO COBRAR 2% DE MULTA                                 NAO RECEBER APOS 30 DIAS DO VENCIMENTO.                                                                                                                                                                                                         01092300000000000000109230000000000000       0090339900009954105488092315000054
100000000000000000000009033990000995400000000000000000000000010002020032038709231200000000002            2  01320387092308092300000002453730000000001N010923000000000000000000000000000000000000000000000000000000000000000100032038775893GUSTAVO PEREIRA DA CRUZ                 RUA SAO FIDELIS - 203 - JARDIM BRASIL -             16074050                                                            000056
2SR. CAIXA, APOS O VENCIMENTO COBRAR 2% DE MULTA                                 NAO RECEBER APOS 30 DIAS DO VENCIMENTO.                                                                                                                                                                                                         01092300000000000000109230000000000000       0090339900009954320387092312000057
100000000000000000000009033990000995400000000000000000000000010002020008993109231P00000000002            2  01089931092308092300000011580310000000001N010923000000000000000000000000000000000000000000000000000000000000000100008993178801PATRICIA BITTENCOURT FRACARO            RUA MARCIO MAZZEI - 337 - VILA NOVA MAZZ            02316050                                                            000059
2SR. CAIXA, APOS O VENCIMENTO COBRAR 2% DE MULTA                                 NAO RECEBER APOS 30 DIAS DO VENCIMENTO.                                                                                                                                                                                                         01092300000000000000109230000000000000       009033990000995408993109231P000060
100000000000000000000009033990000995400000000000000000000000010002020025914209231600000000002            2  01259142092308092300000003336360000000001N010923000000000000000000000000000000000000000000000000000000000000000100025914206880JONAS DOS REIS MACHADO                  RUA PROFESSORA MARGARIDA RUTH FERREIRA D            02378200                                                            000062
2SR. CAIXA, APOS O VENCIMENTO COBRAR 2% DE MULTA                                 NAO RECEBER APOS 30 DIAS DO VENCIMENTO.                                                                                                                                                                                                         01092300000000000000109230000000000000       0090339900009954259142092316000063
100000000000000000000009033990000995400000000000000000000000010002020032549509231200000000002            2  01325495092308092300000003049230000000001N010923000000000000000000000000000000000000000000000000000000000000000100032549502833PAMELA DECENCI                          RUA URUGUAI - 89 AP.61 - AVIACAO - PRAIA            11702300                                                            000065
2SR. CAIXA, APOS O VENCIMENTO COBRAR 2% DE MULTA                                 NAO RECEBER APOS 30 DIAS DO VENCIMENTO.                                                                                                                                                                                                         01092300000000000000109230000000000000       0090339900009954325495092312000066
100000000000000000000009033990000995400000000000000000000000010002020027969409231100000000002            2  01279694092308092300000002452200000000001N010923000000000000000000000000000000000000000000000000000000000000000100027969412807THIAGO BARRETO PEREZ                    RUA ARMINDO GUARANA - 170 - VILA REGENTE            03335070                                                            000068
2SR. CAIXA, APOS O VENCIMENTO COBRAR 2% DE MULTA                                 NAO RECEBER APOS 30 DIAS DO VENCIMENTO.                                                                                                                                                                                                         01092300000000000000109230000000000000       0090339900009954279694092311000069
100000000000000000000009033990000995400000000000000000000000010002020013466509231200000000002            2  01134665092308092300000003285170000000001N010923000000000000000000000000000000000000000000000000000000000000000100013466586844MAURICIO DANTAS DA SILVA                RUA CASTOR - 57 - CIDADE SATELITE SANTA             08340120                                                            000071
2SR. CAIXA, APOS O VENCIMENTO COBRAR 2% DE MULTA                                 NAO RECEBER APOS 30 DIAS DO VENCIMENTO.                                                                                                                                                                                                         01092300000000000000109230000000000000       0090339900009954134665092312000072
9                                                                                                                                                                                                                                                                                                                                                                                                         000073