01REMESSA01COBRANCA       00000000000005331186HB SANTOS CONSTRUTORA E INCORP237BRADESCO       070122        MX0000040                                                                                                                                                                                                                                                                                     000001
100000000000000000000009033990000995400000000000000000000000010002020005723201221200000000002            2  01057232012223012200000002627960000000001N070122000000000000000000000000000000000000000000000000000000000000000100005723255843FRANCISCO DE ASSIS DA SILVA             PRACA NICOLAU GERAIGIRE - 25 VISOR - JAR            11095110                                                            000002
2SR. CAIXA, APOS O VENCIMENTO COBRAR 2% DE MULTA                                 NAO RECEBER APOS 30 DIAS DO VENCIMENTO.                                                                                                                                                                                                         07012200000000000000701220000000000000       0090339900009954057232012212000003
100000000000000000000009033990000995400000000000000000000000010002020004928101222500000000002            2  01049281012223012200000002569950000000001N070122000000000000000000000000000000000000000000000000000000000000000100004928157800ADEMIR APARECIDO ANTUNES                RUA JAIME TAVEIRA - 91 AP.056 B - CHACAR            03732060                                                            000005
2SR. CAIXA, APOS O VENCIMENTO COBRAR 2% DE MULTA                                 NAO RECEBER APOS 30 DIAS DO VENCIMENTO.                                                                                                                                                                                                         07012200000000000000701220000000000000       0090339900009954049281012225000006
100000000000000000000009033990000995400000000000000000000000010002020011238001222200000000002            2  01112380012223012200000002536620000000001N070122000000000000000000000000000000000000000000000000000000000000000100011238052886SOLANGE DIAS DE SOUZA ROMANO            AVENIDA DR. ALTINO ARANTES - 865 AP.132             04042034                                                            000008
2SR. CAIXA, APOS O VENCIMENTO COBRAR 2% DE MULTA                                 NAO RECEBER APOS 30 DIAS DO VENCIMENTO.                                                                                                                                                                                                         07012200000000000000701220000000000000       0090339900009954112380012222000009
100000000000000000000009033990000995400000000000000000000000010002020032589101221600000000002            2  01325891012223012200000002486620000000001N070122000000000000000000000000000000000000000000000000000000000000000100032589165862RENATA ISABEL MARTINS SILVA             RUA HERCULANO DE FREITAS - 257 - FUNDACA            09520280                                                            000011
2SR. CAIXA, APOS O VENCIMENTO COBRAR 2% DE MULTA                                 NAO RECEBER APOS 30 DIAS DO VENCIMENTO.                                                                                                                                                                                                         07012200000000000000701220000000000000       0090339900009954325891012216000012
100000000000000000000009033990000995400000000000000000000000010002020088339301222800000000002            2  01883393012223012200000002513560000000001N070122000000000000000000000000000000000000000000000000000000000000000100088339319868MARCIA SIQUEIRA MELLO                   RUA ADELINO ALVES - 81 - SANTO AMARO - S            04710120                                                            000014
2SR. CAIXA, APOS O VENCIMENTO COBRAR 2% DE MULTA                                 NAO RECEBER APOS 30 DIAS DO VENCIMENTO.                                                                                                                                                                                                         07012200000000000000701220000000000000       0090339900009954883393012228000015
100000000000000000000009033990000995400000000000000000000000010002020046391201222300000000002            2  01463912012223012200000002607460000000001N070122000000000000000000000000000000000000000000000000000000000000000100046391265810PAMELLA RODRIGUES DE OLIVEIRA           RUA AUGUSTA - 183 AP.301 BL.2A - VILA AU            07025130                                                            000017
2SR. CAIXA, APOS O VENCIMENTO COBRAR 2% DE MULTA                                 NAO RECEBER APOS 30 DIAS DO VENCIMENTO.                                                                                                                                                                                                         07012200000000000000701220000000000000       0090339900009954463912012223000018
100000000000000000000009033990000995400000000000000000000000010002020027964501222100000000002            2  01279645012223012200000002590790000000001N070122000000000000000000000000000000000000000000000000000000000000000100027964512838FABIO TADEU DE CAMPOS RADZIAVICIUS      AV.PROF.LUIZ IGNACIO ANHAIA MELLO - 2.58            03154100                                                            000020
2SR. CAIXA, APOS O VENCIMENTO COBRAR 2% DE MULTA                                 NAO RECEBER APOS 30 DIAS DO VENCIMENTO.                                                                                                                                                                                                         07012200000000000000701220000000000000       0090339900009954279645012221000021
100000000000000000000009033990000995400000000000000000000000010002020011498301221100000000002            2  01114983012223012200000001941050000000001N070122000000000000000000000000000000000000000000000000000000000000000100011498329837GERSON GERALDO DAS NEVES                RUA DOMINGOS DELGADO - 144 - VILA SOUZA             02881070                                                            000023
2SR. CAIXA, APOS O VENCIMENTO COBRAR 2% DE MULTA                                 NAO RECEBER APOS 30 DIAS DO VENCIMENTO.                                                                                                                                                                                                         07012200000000000000701220000000000000       0090339900009954114983012211000024
100000000000000000000009033990000995400000000000000000000000010002020000884201222100000000002            2  01008842012223012200000002364260000000001N070122000000000000000000000000000000000000000000000000000000000000000100000884239802ADEMIR MARTINS                          RUA CAIRO - 221 - VILA METALURGICA - SAN            09220170                                                            000026
2SR. CAIXA, APOS O VENCIMENTO COBRAR 2% DE MULTA                                 NAO RECEBER APOS 30 DIAS DO VENCIMENTO.                                                                                                                                                                                                         07012200000000000000701220000000000000       0090339900009954008842012221000027
100000000000000000000009033990000995400000000000000000000000010002020025214401222600000000002            2  01252144012223012200000002297600000000001N070122000000000000000000000000000000000000000000000000000000000000000100025214401833JOSE MAURICIO DOS SANTOS RODRIGUES      RUA JOAO DE MACEDO RIBEIRO - 49 - VILA N            08111101                                                            000029
2SR. CAIXA, APOS O VENCIMENTO COBRAR 2% DE MULTA                                 NAO RECEBER APOS 30 DIAS DO VENCIMENTO.                                                                                                                                                                                                         07012200000000000000701220000000000000       0090339900009954252144012226000030
100000000000000000000009033990000995400000000000000000000000010002020033119101222300000000002            2  01331191012223012200000002307330000000001N070122000000000000000000000000000000000000000000000000000000000000000100033119178802HUGO GOMES VENDRAME                     RUA SAO PAULO - 60 CASA 01 - VILA FREITA            06380110                                                            000032
2SR. CAIXA, APOS O VENCIMENTO COBRAR 2% DE MULTA                                 NAO RECEBER APOS 30 DIAS DO VENCIMENTO.                                                                                                                                                                                                         07012200000000000000701220000000000000       0090339900009954331191012223000033
100000000000000000000009033990000995400000000000000000000000010002020016631501222600000000002            2  01166315012223012200000002347590000000001N070122000000000000000000000000000000000000000000000000000000000000000100016631587468GILBERTO BEZERRA DA SILVA               AVENIDA JAIME TORRES - 745 CASA 3 - JARD            03670000                                                            000035
2SR. CAIXA, APOS O VENCIMENTO COBRAR 2% DE MULTA                                 NAO RECEBER APOS 30 DIAS DO VENCIMENTO.                                                                                                                                                                                                         07012200000000000000701220000000000000       0090339900009954166315012226000036
100000000000000000000009033990000995400000000000000000000000010002020007313201222900000000002            2  01073132012223012200000002330920000000001N070122000000000000000000000000000000000000000000000000000000000000000100007313251840SALVADOR GESUALDO PULVIRENTI            AVENIDA MARARI - 641 - VILA MARARI - SAO            04402010                                                            000038
2SR. CAIXA, APOS O VENCIMENTO COBRAR 2% DE MULTA                                 NAO RECEBER APOS 30 DIAS DO VENCIMENTO.                                                                                                                                                                                                         07012200000000000000701220000000000000       0090339900009954073132012229000039
100000000000000000000009033990000995400000000000000000000000010002020010676701222000000000002            2  01106767012223012200000002432930000000001N070122000000000000000000000000000000000000000000000000000000000000000100010676723896MERCEDES CRISTINA ROCHA SANDOVAL        RUA ITARARE - 446 AP.806 - JARDIM GUILHE            11701620                                                            000041
2SR. CAIXA, APOS O VENCIMENTO COBRAR 2% DE MULTA                                 NAO RECEBER APOS 30 DIAS DO VENCIMENTO.                                                                                                                                                                                                         07012200000000000000701220000000000000       0090339900009954106767012220000042
100000000000000000000009033990000995400000000000000000000000010002020009502801222900000000002            2  01095028012223012200000002540790000000001N070122000000000000000000000000000000000000000000000000000000000000000100009502844831CLAUDIA ROCHA SANDOVAL                  RUA ABAETE - 29.153 - VILA TUPI - PRAIA             11703490                                                            000044
2SR. CAIXA, APOS O VENCIMENTO COBRAR 2% DE MULTA                                 NAO RECEBER APOS 30 DIAS DO VENCIMENTO.                                                                                                                                                                                                         07012200000000000000701220000000000000       0090339900009954095028012229000045
100000000000000000000009033990000995400000000000000000000000010002020007594201222800000000002            2  01075942012223012200000002280930000000001N070122000000000000000000000000000000000000000000000000000000000000000100007594247809JOSE LUIS DE OLIVEIRA                   DONA EGLANTINA PENTEADO DA SILVA PRADO -            13044162                                                            000047
2SR. CAIXA, APOS O VENCIMENTO COBRAR 2% DE MULTA                                 NAO RECEBER APOS 30 DIAS DO VENCIMENTO.                                                                                                                                                                                                         07012200000000000000701220000000000000       0090339900009954075942012228000048
100000000000000000000009033990000995400000000000000000000000010002020005288701222100000000002            2  01052887012223012200000002349600000000001N070122000000000000000000000000000000000000000000000000000000000000000100005288796858MARCELO RODRIGUES FERREIRA              RUA MARCOS ANTONIO MARQUES - 302 - JARDI            06433020                                                            000050
2SR. CAIXA, APOS O VENCIMENTO COBRAR 2% DE MULTA                                 NAO RECEBER APOS 30 DIAS DO VENCIMENTO.                                                                                                                                                                                                         07012200000000000000701220000000000000       0090339900009954052887012221000051
100000000000000000000009033990000995400000000000000000000000010002020015835901222000000000002            2  01158359012223012200000002446770000000001N070122000000000000000000000000000000000000000000000000000000000000000100015835992823FLAVIO VERONEZ                          RUA ANDREA PAULINETTI - 127 AP.42 - BAIR            04707050                                                            000053
2SR. CAIXA, APOS O VENCIMENTO COBRAR 2% DE MULTA                                 NAO RECEBER APOS 30 DIAS DO VENCIMENTO.                                                                                                                                                                                                         07012200000000000000701220000000000000       0090339900009954158359012220000054
100000000000000000000009033990000995400000000000000000000000010002020000438101222900000000002            2  01004381012223012200000002761740000000001N070122000000000000000000000000000000000000000000000000000000000000000100000438161858WAGNECY VILLA NOVA LIEN                 MACHADO - 106 - VILA AUGUSTA - GUARULHOS            07025210                                                            000056
2SR. CAIXA, APOS O VENCIMENTO COBRAR 2% DE MULTA                                 NAO RECEBER APOS 30 DIAS DO VENCIMENTO.                                                                                                                                                                                                         07012200000000000000701220000000000000       0090339900009954004381012229000057
100000000000000000000009033990000995400000000000000000000000010002020026004501222500000000002            2  01260045012223012200000002446810000000001N070122000000000000000000000000000000000000000000000000000000000000000100026004595888EDIVALDO BEZERRA DA SILVA               AVENIDA GUATEMALA - 550 - JARDIM PINHEIR            09854750                                                            000059
2SR. CAIXA, APOS O VENCIMENTO COBRAR 2% DE MULTA                                 NAO RECEBER APOS 30 DIAS DO VENCIMENTO.                                                                                                                                                                                                         07012200000000000000701220000000000000       0090339900009954260045012225000060
100000000000000000000009033990000995400000000000000000000000010002020012470701222P00000000002            2  01124707012223012200000002610560000000001N070122000000000000000000000000000000000000000000000000000000000000000100012470771870HILTON FERNANDES OLIVARES               RUA PATIO DA ESTACAO - 115 - BAIRRO CENT            09450000                                                            000062
2SR. CAIXA, APOS O VENCIMENTO COBRAR 2% DE MULTA                                 NAO RECEBER APOS 30 DIAS DO VENCIMENTO.                                                                                                                                                                                                         07012200000000000000701220000000000000       009033990000995412470701222P000063
100000000000000000000009033990000995400000000000000000000000010002020014025401222900000000002            2  01140254012223012200000002862420000000001N070122000000000000000000000000000000000000000000000000000000000000000100014025420899ANDREIA APARECIDA TAVARES BASTOS        RUA IBATIBA - 234 CASA 27 - RES.BOUGANVI            09220608                                                            000065
2SR. CAIXA, APOS O VENCIMENTO COBRAR 2% DE MULTA                                 NAO RECEBER APOS 30 DIAS DO VENCIMENTO.                                                                                                                                                                                                         07012200000000000000701220000000000000       0090339900009954140254012229000066
100000000000000000000009033990000995400000000000000000000000010002020018590001221P00000000002            2  01185900012223012200000002592340000000001N070122000000000000000000000000000000000000000000000000000000000000000100018590038858JOSE SANDRO ROCHA SILVA                 RUA SANTO ANTONIO DO AVENTUREIRO - 216 A            07143040                                                            000068
2SR. CAIXA, APOS O VENCIMENTO COBRAR 2% DE MULTA                                 NAO RECEBER APOS 30 DIAS DO VENCIMENTO.                                                                                                                                                                                                         07012200000000000000701220000000000000       009033990000995418590001221P000069
100000000000000000000009033990000995400000000000000000000000010002020088578701222600000000002            2  01885787012223012200000002133110000000001N070122000000000000000000000000000000000000000000000000000000000000000100088578704800GILBERTO DO ESPIRITO SANTO SILVA        RUA GUARANY - 697 CASA 01 - PARQUE SAO V            11360000                                                            000071
2SR. CAIXA, APOS O VENCIMENTO COBRAR 2% DE MULTA                                 NAO RECEBER APOS 30 DIAS DO VENCIMENTO.                                                                                                                                                                                                         07012200000000000000701220000000000000       0090339900009954885787012226000072
100000000000000000000009033990000995400000000000000000000000010002020015378201222700000000002            2  01153782012223012200000003187500000000001N070122000000000000000000000000000000000000000000000000000000000000000100015378295807SERGIO FERNANDES                        RUA VALDEMAR MARTINS - 116 AP.115 - BAIR            02535000                                                            000074
2SR. CAIXA, APOS O VENCIMENTO COBRAR 2% DE MULTA                                 NAO RECEBER APOS 30 DIAS DO VENCIMENTO.                                                                                                                                                                                                         07012200000000000000701220000000000000       0090339900009954153782012227000075
100000000000000000000009033990000995400000000000000000000000010002020005105201222400000000002            2  01051052012223012200000002544000000000001N070122000000000000000000000000000000000000000000000000000000000000000100005105287835FABIO MOTTOLA DE OLIVEIRA               RUA RAUL MAZZONI - 133 - CHACARA AREAL -            13331022                                                            000077
2SR. CAIXA, APOS O VENCIMENTO COBRAR 2% DE MULTA                                 NAO RECEBER APOS 30 DIAS DO VENCIMENTO.                                                                                                                                                                                                         07012200000000000000701220000000000000       0090339900009954051052012224000078
100000000000000000000009033990000995400000000000000000000000010002020007648101222700000000002            2  01076481012223012200000002483540000000001N070122000000000000000000000000000000000000000000000000000000000000000100007648112825MARA REGINA CAPRIO                      RUA DA TRINDADE - 790 - VILA IDEAL - SAO            15060280                                                            000080
2SR. CAIXA, APOS O VENCIMENTO COBRAR 2% DE MULTA                                 NAO RECEBER APOS 30 DIAS DO VENCIMENTO.                                                                                                                                                                                                         07012200000000000000701220000000000000       0090339900009954076481012227000081
100000000000000000000009033990000995400000000000000000000000010002020031157401221800000000002            2  01311574012223012200000002666670000000001N070122000000000000000000000000000000000000000000000000000000000000000100031157420885TALITA ANICHIARICO COSSI                RUA CNEO POMPEO DE CAMARGO - 817 - JARDI            13060150                                                            000083
2SR. CAIXA, APOS O VENCIMENTO COBRAR 2% DE MULTA                                 NAO RECEBER APOS 30 DIAS DO VENCIMENTO.                                                                                                                                                                                                         07012200000000000000701220000000000000       0090339900009954311574012218000084
100000000000000000000009033990000995400000000000000000000000010002020035572501222000000000002            2  01355725012223012200000002835290000000001N070122000000000000000000000000000000000000000000000000000000000000000100035572536865MARIA SIMONE SANTOS                     RUA JOSE PEZZOLO - 68 - VILA ELDIZIA - S            09181660                                                            000086
2SR. CAIXA, APOS O VENCIMENTO COBRAR 2% DE MULTA                                 NAO RECEBER APOS 30 DIAS DO VENCIMENTO.                                                                                                                                                                                                         07012200000000000000701220000000000000       0090339900009954355725012220000087
100000000000000000000009033990000995400000000000000000000000010002020008800301221P00000000002            2  01088003012223012200000002583330000000001N070122000000000000000000000000000000000000000000000000000000000000000100008800368425INGO DIMITRI PEREIRA DA NOBREGA         RUA PROFESSOR MENDES PIMENTEL - 362 - JA            03973010                                                            000089
2SR. CAIXA, APOS O VENCIMENTO COBRAR 2% DE MULTA                                 NAO RECEBER APOS 30 DIAS DO VENCIMENTO.                                                                                                                                                                                                         07012200000000000000701220000000000000       009033990000995408800301221P000090
100000000000000000000009033990000995400000000000000000000000010002020018312401221P00000000002            2  01183124012223012200000008958330000000001N070122000000000000000000000000000000000000000000000000000000000000000100018312408827PAULO LUIZ FERREIRA                     AVENIDA MARCONDES SALGADO - 20 AP.26 B -            11702530                                                            000092
2SR. CAIXA, APOS O VENCIMENTO COBRAR 2% DE MULTA                                 NAO RECEBER APOS 30 DIAS DO VENCIMENTO.                                                                                                                                                                                                         07012200000000000000701220000000000000       009033990000995418312401221P000093
100000000000000000000009033990000995400000000000000000000000010002020005054101221400000000002            2  01050541012223012200000002500000000000001N070122000000000000000000000000000000000000000000000000000000000000000100005054169806PAULO ROBERTO DE MATTOS                 JARDIM BOTANICO - 849 - DISTRITO DE SOUS            13106258                                                            000095
2SR. CAIXA, APOS O VENCIMENTO COBRAR 2% DE MULTA                                 NAO RECEBER APOS 30 DIAS DO VENCIMENTO.                                                                                                                                                                                                         07012200000000000000701220000000000000       0090339900009954050541012214000096
100000000000000000000009033990000995400000000000000000000000010002020007552101221000000000002            2  01075521012223012200000002500000000000001N070122000000000000000000000000000000000000000000000000000000000000000100007552151846MAURO BORDONI                           AVENIDA DR. AUGUSTO DE TOLEDO - 769 AP.6            09540080                                                            000098
2SR. CAIXA, APOS O VENCIMENTO COBRAR 2% DE MULTA                                 NAO RECEBER APOS 30 DIAS DO VENCIMENTO.                                                                                                                                                                                                         07012200000000000000701220000000000000       0090339900009954075521012210000099
9                                                                                                                                                                                                                                                                                                                                                                                                         000100