01REMESSA01COBRANCA       00000000000008017025HB SANTOS CONSTRUTORA E INCORP237BRADESCO       011220        MX0000117                                                                                                                                                                                                                                                                                     000001
100000000000000000000009033990000627000000000000000000000000010002020029671512201300000000002            2  01296715122009122000000002832370000000001N011220000000000000000000000000000000000000000000000000000000000000000100029671526845ROGERIO CONSENTINO                      RUA CARLOS MAZER  - 678 - VILA CARMOSINA            08290700                                                            000002
2SR. CAIXA, APOS O VENCIMENTO COBRAR 2% DE MULTA                                 NAO RECEBER APOS 30 DIAS DO VENCIMENTO.                                                                                                                                                                                                         01122000000000000000112200000000000000       0090339900006270296715122013000003
100000000000000000000009033990000627000000000000000000000000010002020003863012201500000000002            2  01038630122009122000000002675410000000001N011220000000000000000000000000000000000000000000000000000000000000000100003863075803HERALDO MENQUINI                        RUA CARLOS JOSE BORSTENS - 50 AP.15 - AV            11702750                                                            000005
2SR. CAIXA, APOS O VENCIMENTO COBRAR 2% DE MULTA                                 NAO RECEBER APOS 30 DIAS DO VENCIMENTO.                                                                                                                                                                                                         01122000000000000000112200000000000000       0090339900006270038630122015000006
100000000000000000000009033990000627000000000000000000000000010002020029028412201200000000002            2  01290284122009122000000002740690000000001N011220000000000000000000000000000000000000000000000000000000000000000100029028478825LEONARDO LOUZADA                        RUA CARLOS JOSE BORSTENS - 50 AP.35 - AV            11702750                                                            000008
2SR. CAIXA, APOS O VENCIMENTO COBRAR 2% DE MULTA                                 NAO RECEBER APOS 30 DIAS DO VENCIMENTO.                                                                                                                                                                                                         01122000000000000000112200000000000000       0090339900006270290284122012000009
100000000000000000000009033990000627000000000000000000000000010002020032878512201P00000000002            2  01328785122009122000000003960860000000001N011220000000000000000000000000000000000000000000000000000000000000000100032878512847LEONARDO MOURA MONIZ CALDEIRA           RUA BALSA - 682 AP.134 T.02 - VILA ARCAD            02910000                                                            000011
2SR. CAIXA, APOS O VENCIMENTO COBRAR 2% DE MULTA                                 NAO RECEBER APOS 30 DIAS DO VENCIMENTO.                                                                                                                                                                                                         01122000000000000000112200000000000000       009033990000627032878512201P000012
100000000000000000000009033990000627000000000000000000000000010002020016479012201700000000002            2  01164790122009122000000004213640000000001N011220000000000000000000000000000000000000000000000000000000000000000100016479002806LOURDES PEREIRA DE QUEIROZ SECANECHIA   RUA PAULINO CURSI - 437 - CIDADE SAO MAT            03960060                                                            000014
2SR. CAIXA, APOS O VENCIMENTO COBRAR 2% DE MULTA                                 NAO RECEBER APOS 30 DIAS DO VENCIMENTO.                                                                                                                                                                                                         01122000000000000000112200000000000000       0090339900006270164790122017000015
100000000000000000000009033990000627000000000000000000000000010002020019635012201400000000002            2  01196350122009122000000003108920000000001N011220000000000000000000000000000000000000000000000000000000000000000100019635091885IVAN VIEIRA SILVA                       ABRAO JORGE - 3001 - JARDIM INTEGRACAO -            14405397                                                            000017
2SR. CAIXA, APOS O VENCIMENTO COBRAR 2% DE MULTA                                 NAO RECEBER APOS 30 DIAS DO VENCIMENTO.                                                                                                                                                                                                         01122000000000000000112200000000000000       0090339900006270196350122014000018
100000000000000000000009033990000627000000000000000000000000010002020009361412201400000000002            2  01093614122009122000000003059100000000001N011220000000000000000000000000000000000000000000000000000000000000000100009361471805JOSE BARBOSA DA SILVA                   RUA ALFREDO INACIO TRINDADE  - 60 AP.44             02344100                                                            000020
2SR. CAIXA, APOS O VENCIMENTO COBRAR 2% DE MULTA                                 NAO RECEBER APOS 30 DIAS DO VENCIMENTO.                                                                                                                                                                                                         01122000000000000000112200000000000000       0090339900006270093614122014000021
100000000000000000000009033990000627000000000000000000000000010002020012756912201800000000002            2  01127569122009122000000002640700000000001N011220000000000000000000000000000000000000000000000000000000000000000100012756959812ITAMAR JUVENAL DIAS DA SILVA            RUA ELISEU REINALDO MORAES VIEIRA - 90 A            02858000                                                            000023
2SR. CAIXA, APOS O VENCIMENTO COBRAR 2% DE MULTA                                 NAO RECEBER APOS 30 DIAS DO VENCIMENTO.                                                                                                                                                                                                         01122000000000000000112200000000000000       0090339900006270127569122018000024
100000000000000000000009033990000627000000000000000000000000010002020002731012201500000000002            2  01027310122009122000000003122020000000001N011220000000000000000000000000000000000000000000000000000000000000000100002731042842VALTER CERQUEIRA VILLA NOVA             RUA MACHADO - 106 - VILA AUGUSTA - GUARU            07025210                                                            000026
2SR. CAIXA, APOS O VENCIMENTO COBRAR 2% DE MULTA                                 NAO RECEBER APOS 30 DIAS DO VENCIMENTO.                                                                                                                                                                                                         01122000000000000000112200000000000000       0090339900006270027310122015000027
100000000000000000000009033990000627000000000000000000000000010002020002731012202300000000002            2  01027310122009122000000003122010000000001N011220000000000000000000000000000000000000000000000000000000000000000100002731042842VALTER CERQUEIRA VILLA NOVA             RUA MACHADO - 106 - VILA AUGUSTA - GUARU            07025210                                                            000029
2SR. CAIXA, APOS O VENCIMENTO COBRAR 2% DE MULTA                                 NAO RECEBER APOS 30 DIAS DO VENCIMENTO.                                                                                                                                                                                                         01122000000000000000112200000000000000       0090339900006270027310122023000030
100000000000000000000009033990000627000000000000000000000000010002020028802112201300000000002            2  01288021122009122000000002819100000000001N011220000000000000000000000000000000000000000000000000000000000000000100028802158894ELIEL HENRIQUE ZUZA                     RUA CARLOS JOSE BORSTENS - 50 AP.43 - BA            11702750                                                            000032
2SR. CAIXA, APOS O VENCIMENTO COBRAR 2% DE MULTA                                 NAO RECEBER APOS 30 DIAS DO VENCIMENTO.                                                                                                                                                                                                         01122000000000000000112200000000000000       0090339900006270288021122013000033
100000000000000000000009033990000627000000000000000000000000010002020005313712201300000000002            2  01053137122011122000000002278780000000001N011220000000000000000000000000000000000000000000000000000000000000000100005313717863EDIMICIO JOSE DE ARAUJO                 RUA JOSE CALIXTO DO CARMO - 286 AP.101 -            11702690                                                            000035
2SR. CAIXA, APOS O VENCIMENTO COBRAR 2% DE MULTA                                 NAO RECEBER APOS 30 DIAS DO VENCIMENTO.                                                                                                                                                                                                         01122000000000000000112200000000000000       0090339900006270053137122013000036
100000000000000000000009033990000627000000000000000000000000010002020029433612201100000000002            2  01294336122011122000000002189150000000001N011220000000000000000000000000000000000000000000000000000000000000000100029433631897MARIO MUNIZ                             RUA JOSE CALIXTO DO CARMO - 286 AP.53 -             11702690                                                            000038
2SR. CAIXA, APOS O VENCIMENTO COBRAR 2% DE MULTA                                 NAO RECEBER APOS 30 DIAS DO VENCIMENTO.                                                                                                                                                                                                         01122000000000000000112200000000000000       0090339900006270294336122011000039
100000000000000000000009033990000627000000000000000000000000010002020001847212201P00000000002            2  01018472122011122000000002015350000000001N011220000000000000000000000000000000000000000000000000000000000000000100001847204864AMERICA CONCEICAO DA SILVA              RUA JOSE CALIXTO DO CARMO - 286 AP.44 -             11702690                                                            000041
2SR. CAIXA, APOS O VENCIMENTO COBRAR 2% DE MULTA                                 NAO RECEBER APOS 30 DIAS DO VENCIMENTO.                                                                                                                                                                                                         01122000000000000000112200000000000000       009033990000627001847212201P000042
100000000000000000000009033990000627000000000000000000000000010002020005029812201400000000002            2  01050298122009122000000002692330000000001N011220000000000000000000000000000000000000000000000000000000000000000100005029828885LAURINETE DA CONCEICAO DE NORONHA       RUA MARIA LUCIA DE TOLEDO LEITE MORAES -            04434040                                                            000044
2SR. CAIXA, APOS O VENCIMENTO COBRAR 2% DE MULTA                                 NAO RECEBER APOS 30 DIAS DO VENCIMENTO.                                                                                                                                                                                                         01122000000000000000112200000000000000       0090339900006270050298122014000045
100000000000000000000009033990000627000000000000000000000000010002020013388912201600000000002            2  01133889122011122000000002134060000000001N011220000000000000000000000000000000000000000000000000000000000000000100013388936889NEUTON DE SOUZA RAMOS                   RUA MARIA CRISTINA - 932 - JARDIM CASQUE            11533160                                                            000047
2SR. CAIXA, APOS O VENCIMENTO COBRAR 2% DE MULTA                                 NAO RECEBER APOS 30 DIAS DO VENCIMENTO.                                                                                                                                                                                                         01122000000000000000112200000000000000       0090339900006270133889122016000048
100000000000000000000009033990000627000000000000000000000000010002020012774912201600000000002            2  01127749122011122000000002174140000000001N011220000000000000000000000000000000000000000000000000000000000000000100012774906865JOSE MILTON SANTIAGO                    RUA BATATAIS - 47 - CIDADE ESTELA - POA             08563140                                                            000050
2SR. CAIXA, APOS O VENCIMENTO COBRAR 2% DE MULTA                                 NAO RECEBER APOS 30 DIAS DO VENCIMENTO.                                                                                                                                                                                                         01122000000000000000112200000000000000       0090339900006270127749122016000051
100000000000000000000009033990000627000000000000000000000000010002020016294112201100000000002            2  01162941122009122000000002673020000000001N011220000000000000000000000000000000000000000000000000000000000000000100016294119812JURACY FELIX DE ARRUDA                  RUA CARLOS JOSE BORSTENS - 50 AP.23 - AV            11702750                                                            000053
2SR. CAIXA, APOS O VENCIMENTO COBRAR 2% DE MULTA                                 NAO RECEBER APOS 30 DIAS DO VENCIMENTO.                                                                                                                                                                                                         01122000000000000000112200000000000000       0090339900006270162941122011000054
100000000000000000000009033990000627000000000000000000000000010002020005613812201600000000002            2  01056138122011122000000001999610000000001N011220000000000000000000000000000000000000000000000000000000000000000100005613843805NILZA MARIA DE OLIVEIRA                 RUA JOSE GONCALVES DE FREITAS - 66 C2 -             08210550                                                            000056
2SR. CAIXA, APOS O VENCIMENTO COBRAR 2% DE MULTA                                 NAO RECEBER APOS 30 DIAS DO VENCIMENTO.                                                                                                                                                                                                         01122000000000000000112200000000000000       0090339900006270056138122016000057
100000000000000000000009033990000627000000000000000000000000010002020007574912201600000000002            2  01075749122011122000000002052550000000001N011220000000000000000000000000000000000000000000000000000000000000000100007574936889JORGE LUCIANO PEREIRA BORRIELLO         RUA JOSE CALIXTO DO CARMO - 286 AP.54 -             11702690                                                            000059
2SR. CAIXA, APOS O VENCIMENTO COBRAR 2% DE MULTA                                 NAO RECEBER APOS 30 DIAS DO VENCIMENTO.                                                                                                                                                                                                         01122000000000000000112200000000000000       0090339900006270075749122016000060
100000000000000000000009033990000627000000000000000000000000010002020008214912201900000000002            2  01082149122011122000000002083690000000001N011220000000000000000000000000000000000000000000000000000000000000000100008214973830JAMIL CHALA                             RUA JOSE CALIXTO DO CARMO - 286 AP.22 -             11702690                                                            000062
2SR. CAIXA, APOS O VENCIMENTO COBRAR 2% DE MULTA                                 NAO RECEBER APOS 30 DIAS DO VENCIMENTO.                                                                                                                                                                                                         01122000000000000000112200000000000000       0090339900006270082149122019000063
100000000000000000000009033990000627000000000000000000000000010002020032495012201600000000002            2  01324950122011122000000002335040000000001N011220000000000000000000000000000000000000000000000000000000000000000100032495004881PAULO EDUARDO DOS SANTOS                RUA REPUBLICA DO IRAQUE - 1119 - CAMPO B            04611002                                                            000065
2SR. CAIXA, APOS O VENCIMENTO COBRAR 2% DE MULTA                                 NAO RECEBER APOS 30 DIAS DO VENCIMENTO.                                                                                                                                                                                                         01122000000000000000112200000000000000       0090339900006270324950122016000066
100000000000000000000009033990000627000000000000000000000000010002020016498012201300000000002            2  01164980122011122000000002047900000000001N011220000000000000000000000000000000000000000000000000000000000000000100016498053810GILMA CEZARIO GARCIA CORRITORI          RUA LAURENTINO XAVIER DOS SANTOS - 336 -            08240740                                                            000068
2SR. CAIXA, APOS O VENCIMENTO COBRAR 2% DE MULTA                                 NAO RECEBER APOS 30 DIAS DO VENCIMENTO.                                                                                                                                                                                                         01122000000000000000112200000000000000       0090339900006270164980122013000069
100000000000000000000009033990000627000000000000000000000000010002020029339012201200000000002            2  01293390122011122000000002189860000000001N011220000000000000000000000000000000000000000000000000000000000000000100029339051831RONALD DIDOFF                           RUA CORONEL FERREIRA BRAGA - 188 - VILA             03522010                                                            000071
2SR. CAIXA, APOS O VENCIMENTO COBRAR 2% DE MULTA                                 NAO RECEBER APOS 30 DIAS DO VENCIMENTO.                                                                                                                                                                                                         01122000000000000000112200000000000000       0090339900006270293390122012000072
100000000000000000000009033990000627000000000000000000000000010002020017357812201400000000002            2  01173578122011122000000002319270000000001N011220000000000000000000000000000000000000000000000000000000000000000100017357859894MARCIO GUIMARAES                        RUA GENERAL CAMARA - 188 SALA 11 - CENTR            11010120                                                            000074
2SR. CAIXA, APOS O VENCIMENTO COBRAR 2% DE MULTA                                 NAO RECEBER APOS 30 DIAS DO VENCIMENTO.                                                                                                                                                                                                         01122000000000000000112200000000000000       0090339900006270173578122014000075
100000000000000000000009033990000627000000000000000000000000010002020010563012201400000000002            2  01105630122011122000000002378530000000001N011220000000000000000000000000000000000000000000000000000000000000000100010563033878VERA LUCIA RIBEIRO LONGANEZI            RUA DOS CAMARES - 150 AP.24 BL.02 - CARA            02068030                                                            000077
2SR. CAIXA, APOS O VENCIMENTO COBRAR 2% DE MULTA                                 NAO RECEBER APOS 30 DIAS DO VENCIMENTO.                                                                                                                                                                                                         01122000000000000000112200000000000000       0090339900006270105630122014000078
100000000000000000000009033990000627000000000000000000000000010002020005529612201900000000002            2  01055296122011122000000002158440000000001N011220000000000000000000000000000000000000000000000000000000000000000100005529616801JOAQUIM JORGE DA COSTA                  RUA JOSE CALIXTO DO CARMO - 286 AP.106 -            11702690                                                            000080
2SR. CAIXA, APOS O VENCIMENTO COBRAR 2% DE MULTA                                 NAO RECEBER APOS 30 DIAS DO VENCIMENTO.                                                                                                                                                                                                         01122000000000000000112200000000000000       0090339900006270055296122019000081
100000000000000000000009033990000627000000000000000000000000010002020022014112201300000000002            2  01220141122011122000000002152150000000001N011220000000000000000000000000000000000000000000000000000000000000000100022014140847CAMILA SILVEIRA CANIZARES               AVENIDA PRESIDENTE CASTELO BRANCO - 5.74            11703650                                                            000083
2SR. CAIXA, APOS O VENCIMENTO COBRAR 2% DE MULTA                                 NAO RECEBER APOS 30 DIAS DO VENCIMENTO.                                                                                                                                                                                                         01122000000000000000112200000000000000       0090339900006270220141122013000084
100000000000000000000009033990000627000000000000000000000000010002020015550712201500000000002            2  01155507122009122000000002040780000000001N011220000000000000000000000000000000000000000000000000000000000000000100015550706806MARY MIWA                               RUA CARLOS JOSE BORSTENS - 50 AP.105 - A            11702750                                                            000086
2SR. CAIXA, APOS O VENCIMENTO COBRAR 2% DE MULTA                                 NAO RECEBER APOS 30 DIAS DO VENCIMENTO.                                                                                                                                                                                                         01122000000000000000112200000000000000       0090339900006270155507122015000087
100000000000000000000009033990000627000000000000000000000000010002020015464612201500000000002            2  01154646122011122000000002269040000000001N011220000000000000000000000000000000000000000000000000000000000000000100015464647864SONIA TERESA VOLPATO                    RUA JOSE CALIXTO DO CARMO - 286 AP.73 -             11702690                                                            000089
2SR. CAIXA, APOS O VENCIMENTO COBRAR 2% DE MULTA                                 NAO RECEBER APOS 30 DIAS DO VENCIMENTO.                                                                                                                                                                                                         01122000000000000000112200000000000000       0090339900006270154646122015000090
100000000000000000000009033990000627000000000000000000000000010002020008657812201400000000002            2  01086578122011122000000002246260000000001N011220000000000000000000000000000000000000000000000000000000000000000100008657886855ARLINDO DA CRUZ                         AVENIDA ARICANDUVA - 8.256 AP.54 BL.10 -            03951220                                                            000092
2SR. CAIXA, APOS O VENCIMENTO COBRAR 2% DE MULTA                                 NAO RECEBER APOS 30 DIAS DO VENCIMENTO.                                                                                                                                                                                                         01122000000000000000112200000000000000       0090339900006270086578122014000093
100000000000000000000009033990000627000000000000000000000000010002020004265712201400000000002            2  01042657122009122000000003007030000000001N011220000000000000000000000000000000000000000000000000000000000000000100004265781713ALEXANDRE CASADO COSTA                  RUA CARLOS JOSE BORSTENS - 50 AP.33 - AV            11702750                                                            000095
2SR. CAIXA, APOS O VENCIMENTO COBRAR 2% DE MULTA                                 NAO RECEBER APOS 30 DIAS DO VENCIMENTO.                                                                                                                                                                                                         01122000000000000000112200000000000000       0090339900006270042657122014000096
100000000000000000000009033990000627000000000000000000000000010002020004265712202200000000002            2  01042657122009122000000003007020000000001N011220000000000000000000000000000000000000000000000000000000000000000100004265781713ALEXANDRE CASADO COSTA                  RUA CARLOS JOSE BORSTENS - 50 AP.33 - AV            11702750                                                            000098
2SR. CAIXA, APOS O VENCIMENTO COBRAR 2% DE MULTA                                 NAO RECEBER APOS 30 DIAS DO VENCIMENTO.                                                                                                                                                                                                         01122000000000000000112200000000000000       0090339900006270042657122022000099
100000000000000000000009033990000627000000000000000000000000010002020004265712203000000000002            2  01042657122009122000000003007010000000001N011220000000000000000000000000000000000000000000000000000000000000000100004265781713ALEXANDRE CASADO COSTA                  RUA CARLOS JOSE BORSTENS - 50 AP.33 - AV            11702750                                                            000101
2SR. CAIXA, APOS O VENCIMENTO COBRAR 2% DE MULTA                                 NAO RECEBER APOS 30 DIAS DO VENCIMENTO.                                                                                                                                                                                                         01122000000000000000112200000000000000       0090339900006270042657122030000102
100000000000000000000009033990000627000000000000000000000000010002020059735112201200000000002            2  01597351122009122000000001270100000000001N011220000000000000000000000000000000000000000000000000000000000000000100059735180863HELIO JOSE MARQUES                      RUA MARTIM AFONSO DE SOUZA - 1007 AP.102            11702790                                                            000104
2SR. CAIXA, APOS O VENCIMENTO COBRAR 2% DE MULTA                                 NAO RECEBER APOS 30 DIAS DO VENCIMENTO.                                                                                                                                                                                                         01122000000000000000112200000000000000       0090339900006270597351122012000105
100000000000000000000009033990000627000000000000000000000000010002020026347812201600000000002            2  01263478122011122000000002401190000000001N011220000000000000000000000000000000000000000000000000000000000000000100026347872862VALDECI SILVA MEIRELES                  RUA JOSE BATISTA DA SILVA - 292 - JARDIM            06851470                                                            000107
2SR. CAIXA, APOS O VENCIMENTO COBRAR 2% DE MULTA                                 NAO RECEBER APOS 30 DIAS DO VENCIMENTO.                                                                                                                                                                                                         01122000000000000000112200000000000000       0090339900006270263478122016000108
100000000000000000000009033990000627000000000000000000000000010002020025443612201700000000002            2  01254436122009122000000004349850000000001N011220000000000000000000000000000000000000000000000000000000000000000100025443691830SILVANETE PEREIRA CARNELOS              RUA CARLOS JOSE BORSTENS - 50 AP.102 - A            11702750                                                            000110
2SR. CAIXA, APOS O VENCIMENTO COBRAR 2% DE MULTA                                 NAO RECEBER APOS 30 DIAS DO VENCIMENTO.                                                                                                                                                                                                         01122000000000000000112200000000000000       0090339900006270254436122017000111
100000000000000000000009033990000627000000000000000000000000010002020013135212201700000000002            2  01131352122011122000000002206100000000001N011220000000000000000000000000000000000000000000000000000000000000000100013135261859EDUARDO ZANOLA                          RUA ROLANDO PIETRO BONINI - 46 - JARDIM             09781040                                                            000113
2SR. CAIXA, APOS O VENCIMENTO COBRAR 2% DE MULTA                                 NAO RECEBER APOS 30 DIAS DO VENCIMENTO.                                                                                                                                                                                                         01122000000000000000112200000000000000       0090339900006270131352122017000114
100000000000000000000009033990000627000000000000000000000000010002020009797612201800000000002            2  01097976122011122000000002148510000000001N011220000000000000000000000000000000000000000000000000000000000000000100009797626857RICARDO SOBRAL DE OLIVEIRA              RUA 23 DE MAIO - 139 AP.32 - VILA MIRIM             11704690                                                            000116
2SR. CAIXA, APOS O VENCIMENTO COBRAR 2% DE MULTA                                 NAO RECEBER APOS 30 DIAS DO VENCIMENTO.                                                                                                                                                                                                         01122000000000000000112200000000000000       0090339900006270097976122018000117
100000000000000000000009033990000627000000000000000000000000010002020004767612201900000000002            2  01047676122009122000000003673910000000001N011220000000000000000000000000000000000000000000000000000000000000000100004767679893ORLANDO GRANDE FILHO                    RUA ORLANDO MIGLIARI - 101 - JARDIM OURO            19906140                                                            000119
2SR. CAIXA, APOS O VENCIMENTO COBRAR 2% DE MULTA                                 NAO RECEBER APOS 30 DIAS DO VENCIMENTO.                                                                                                                                                                                                         01122000000000000000112200000000000000       0090339900006270047676122019000120
100000000000000000000009033990000627000000000000000000000000010002020006512512201600000000002            2  01065125122011122000000001932680000000001N011220000000000000000000000000000000000000000000000000000000000000000100006512547870MARIA DO CARMO FAGUNDES DOS REIS        RUA CARLOS MALCHER - 98 - PARQUE EDU CHA            02232020                                                            000122
2SR. CAIXA, APOS O VENCIMENTO COBRAR 2% DE MULTA                                 NAO RECEBER APOS 30 DIAS DO VENCIMENTO.                                                                                                                                                                                                         01122000000000000000112200000000000000       0090339900006270065125122016000123
100000000000000000000009033990000627000000000000000000000000010002020022728412201900000000002            2  01227284122011122000000002324820000000001N011220000000000000000000000000000000000000000000000000000000000000000100022728497842WILLIAN DE SOUZA MELLO                  RUA JOSE CALIXTO DO CARMO - 286 AP.111 -            11702690                                                            000125
2SR. CAIXA, APOS O VENCIMENTO COBRAR 2% DE MULTA                                 NAO RECEBER APOS 30 DIAS DO VENCIMENTO.                                                                                                                                                                                                         01122000000000000000112200000000000000       0090339900006270227284122019000126
100000000000000000000009033990000627000000000000000000000000010002020016909712201300000000002            2  01169097122011122000000002054410000000001N011220000000000000000000000000000000000000000000000000000000000000000100016909746805EDIVALDO SANTANA DOS SANTOS             ESTRADA JOAO GASPAR DELGADO - 80 AP.213             08536100                                                            000128
2SR. CAIXA, APOS O VENCIMENTO COBRAR 2% DE MULTA                                 NAO RECEBER APOS 30 DIAS DO VENCIMENTO.                                                                                                                                                                                                         01122000000000000000112200000000000000       0090339900006270169097122013000129
100000000000000000000009033990000627000000000000000000000000010002020022036012201000000000002            2  01220360122009122000000003190290000000001N011220000000000000000000000000000000000000000000000000000000000000000100022036003818DERLIS TERAN QUIROGA ROGATO             RUA JOAO RIBEIRO - 709 AP.61 - CAMPESTRE            09070250                                                            000131
2SR. CAIXA, APOS O VENCIMENTO COBRAR 2% DE MULTA                                 NAO RECEBER APOS 30 DIAS DO VENCIMENTO.                                                                                                                                                                                                         01122000000000000000112200000000000000       0090339900006270220360122010000132
100000000000000000000009033990000627000000000000000000000000010002020017229712203500000000002            2  01172297122009122000000003078920000000001N011220000000000000000000000000000000000000000000000000000000000000000100017229751802BERENICE VIEIRA KERSTING                RUA ATIBAIA - 17 AP.417 - BAIRRO IMPERAD            11707380                                                            000134
2SR. CAIXA, APOS O VENCIMENTO COBRAR 2% DE MULTA                                 NAO RECEBER APOS 30 DIAS DO VENCIMENTO.                                                                                                                                                                                                         01122000000000000000112200000000000000       0090339900006270172297122035000135
100000000000000000000009033990000627000000000000000000000000010002020012475612201400000000002            2  01124756122011122000000002226870000000001N011220000000000000000000000000000000000000000000000000000000000000000100012475663820CELIDALVA GOES DE CARVALHO              RUA JOSE CALIXTO DO CARMO - 286 AP.91 -             11702690                                                            000137
2SR. CAIXA, APOS O VENCIMENTO COBRAR 2% DE MULTA                                 NAO RECEBER APOS 30 DIAS DO VENCIMENTO.                                                                                                                                                                                                         01122000000000000000112200000000000000       0090339900006270124756122014000138
100000000000000000000009033990000627000000000000000000000000010002020033451612201100000000002            2  01334516122011122000000001859570000000001N011220000000000000000000000000000000000000000000000000000000000000000100033451620839ARAO ELISIARIO  NUNES                   RUA JOSE CALIXTO DO CARMO - 286 AP.64 -             11702690                                                            000140
2SR. CAIXA, APOS O VENCIMENTO COBRAR 2% DE MULTA                                 NAO RECEBER APOS 30 DIAS DO VENCIMENTO.                                                                                                                                                                                                         01122000000000000000112200000000000000       0090339900006270334516122011000141
100000000000000000000009033990000627000000000000000000000000010002020095758212201100000000002            2  01957582122011122000000002261490000000001N011220000000000000000000000000000000000000000000000000000000000000000100095758275891SHIRLEY TUNES ASTOLFI                   RUA GUAPERUVU - 656 AP.84 - VILA ARICAND            03504010                                                            000143
2SR. CAIXA, APOS O VENCIMENTO COBRAR 2% DE MULTA                                 NAO RECEBER APOS 30 DIAS DO VENCIMENTO.                                                                                                                                                                                                         01122000000000000000112200000000000000       0090339900006270957582122011000144
100000000000000000000009033990000627000000000000000000000000010002020045839212201900000000002            2  01458392122011122000000001443360000000001N011220000000000000000000000000000000000000000000000000000000000000000100045839263834LEONARDO ANTONIO CONCELLIERI            RUA JOSE CALIXTO DO CARMO - 286 AP.51 -             11702690                                                            000146
2SR. CAIXA, APOS O VENCIMENTO COBRAR 2% DE MULTA                                 NAO RECEBER APOS 30 DIAS DO VENCIMENTO.                                                                                                                                                                                                         01122000000000000000112200000000000000       0090339900006270458392122019000147
100000000000000000000009033990000627000000000000000000000000010002020011369112201P00000000002            2  01113691122011122000000002031370000000001N011220000000000000000000000000000000000000000000000000000000000000000100011369165803ELIANA CORREA DE OLIVEIRA               AVENIDA ELIAS MALUF - 2695 CASA 419 - WA            18055215                                                            000149
2SR. CAIXA, APOS O VENCIMENTO COBRAR 2% DE MULTA                                 NAO RECEBER APOS 30 DIAS DO VENCIMENTO.                                                                                                                                                                                                         01122000000000000000112200000000000000       009033990000627011369112201P000150
100000000000000000000009033990000627000000000000000000000000010002020002253812201300000000002            2  01022538122011122000000005510050000000001N011220000000000000000000000000000000000000000000000000000000000000000100002253816809EDMILSON ALVES DA SILVA                 RUA JOSE CALIXTO DO CARMO - 286 AP.93 -             11702690                                                            000152
2SR. CAIXA, APOS O VENCIMENTO COBRAR 2% DE MULTA                                 NAO RECEBER APOS 30 DIAS DO VENCIMENTO.                                                                                                                                                                                                         01122000000000000000112200000000000000       0090339900006270022538122013000153
100000000000000000000009033990000627000000000000000000000000010002020002253812202100000000002            2  01022538122011122000000001805490000000001N011220000000000000000000000000000000000000000000000000000000000000000100002253816809EDMILSON ALVES DA SILVA                 RUA JOSE CALIXTO DO CARMO - 286 AP.93 -             11702690                                                            000155
2SR. CAIXA, APOS O VENCIMENTO COBRAR 2% DE MULTA                                 NAO RECEBER APOS 30 DIAS DO VENCIMENTO.                                                                                                                                                                                                         01122000000000000000112200000000000000       0090339900006270022538122021000156
100000000000000000000009033990000627000000000000000000000000010002020037947012201500000000002            2  01379470122011122000000003206670000000001N011220000000000000000000000000000000000000000000000000000000000000000100037947070873BRUNO DE CAETANO MARRINHAS              RUA JOAO PELLOZO - 186 - JARDIM MILENA -            09182200                                                            000158
2SR. CAIXA, APOS O VENCIMENTO COBRAR 2% DE MULTA                                 NAO RECEBER APOS 30 DIAS DO VENCIMENTO.                                                                                                                                                                                                         01122000000000000000112200000000000000       0090339900006270379470122015000159
100000000000000000000009033990000627000000000000000000000000010002020037517712201300000000002            2  01375177122009122000000003383810000000001N011220000000000000000000000000000000000000000000000000000000000000000100037517785869RENATO JOSE DE LIMA MELO                RUA ARISTIDES LOBO - 148 AP.41 BLOCO 03             03041100                                                            000161
2SR. CAIXA, APOS O VENCIMENTO COBRAR 2% DE MULTA                                 NAO RECEBER APOS 30 DIAS DO VENCIMENTO.                                                                                                                                                                                                         01122000000000000000112200000000000000       0090339900006270375177122013000162
100000000000000000000009033990000627000000000000000000000000010002020070367912201400000000002            2  01703679122011122000000001695460000000001N011220000000000000000000000000000000000000000000000000000000000000000100070367949849TEODOMIRO ALVES DOS SANTOS              RUA ANDRE PAZ - 13 - JARDIM SANTO ANDRE             08390230                                                            000164
2SR. CAIXA, APOS O VENCIMENTO COBRAR 2% DE MULTA                                 NAO RECEBER APOS 30 DIAS DO VENCIMENTO.                                                                                                                                                                                                         01122000000000000000112200000000000000       0090339900006270703679122014000165
100000000000000000000009033990000627000000000000000000000000010002020004410812201300000000002            2  01044108122009122000000002514190000000001N011220000000000000000000000000000000000000000000000000000000000000000100004410802860LUIZ ALBERTO MARINHO                    RUA DA INDEPENDENCIA - 706 AP.41B - CAMB            01524000                                                            000167
2SR. CAIXA, APOS O VENCIMENTO COBRAR 2% DE MULTA                                 NAO RECEBER APOS 30 DIAS DO VENCIMENTO.                                                                                                                                                                                                         01122000000000000000112200000000000000       0090339900006270044108122013000168
100000000000000000000009033990000627000000000000000000000000010002020018035012201000000000002            2  01180350122011122000000002269200000000001N011220000000000000000000000000000000000000000000000000000000000000000100018035075861ROSANGELA BISPO SANTOS                  RUA CASSIANO GABUS MENDES - 292 - JD. CA            09896160                                                            000170
2SR. CAIXA, APOS O VENCIMENTO COBRAR 2% DE MULTA                                 NAO RECEBER APOS 30 DIAS DO VENCIMENTO.                                                                                                                                                                                                         01122000000000000000112200000000000000       0090339900006270180350122010000171
100000000000000000000009033990000627000000000000000000000000010002020004767612202700000000002            2  01047676122009122000000003356420000000001N011220000000000000000000000000000000000000000000000000000000000000000100004767679893ORLANDO GRANDE FILHO                    RUA ORLANDO MIGLIARI - 101 - JARDIM OURO            19906140                                                            000173
2SR. CAIXA, APOS O VENCIMENTO COBRAR 2% DE MULTA                                 NAO RECEBER APOS 30 DIAS DO VENCIMENTO.                                                                                                                                                                                                         01122000000000000000112200000000000000       0090339900006270047676122027000174
100000000000000000000009033990000627000000000000000000000000010002020064677812201400000000002            2  01646778122009122000000002699970000000001N011220000000000000000000000000000000000000000000000000000000000000000100064677850887ANTONIO CARLOS DE OLIVEIRA              RUA DR.ANTONIO MAZILLI FILHO - 435 - PAR            02230070                                                            000176
2SR. CAIXA, APOS O VENCIMENTO COBRAR 2% DE MULTA                                 NAO RECEBER APOS 30 DIAS DO VENCIMENTO.                                                                                                                                                                                                         01122000000000000000112200000000000000       0090339900006270646778122014000177
100000000000000000000009033990000627000000000000000000000000010002020007328912201P00000000002            2  01073289122009122000000003294100000000001N011220000000000000000000000000000000000000000000000000000000000000000100007328927836BENEDITO APARECIDO ROCHA                AVENIDA SENADOR JOSE ERMINIO DE MORAES -            02357002                                                            000179
2SR. CAIXA, APOS O VENCIMENTO COBRAR 2% DE MULTA                                 NAO RECEBER APOS 30 DIAS DO VENCIMENTO.                                                                                                                                                                                                         01122000000000000000112200000000000000       009033990000627007328912201P000180
100000000000000000000009033990000627000000000000000000000000010002020028082612201900000000002            2  01280826122011122000000001882370000000001N011220000000000000000000000000000000000000000000000000000000000000000100028082615869PRISCILA PEREIRA                        ALAMEDA AFONSO BOCCHIGLIERI - 184 - INTE            04445130                                                            000182
2SR. CAIXA, APOS O VENCIMENTO COBRAR 2% DE MULTA                                 NAO RECEBER APOS 30 DIAS DO VENCIMENTO.                                                                                                                                                                                                         01122000000000000000112200000000000000       0090339900006270280826122019000183
100000000000000000000009033990000627000000000000000000000000010002020013184812201700000000002            2  01131848122011122000000001952030000000001N011220000000000000000000000000000000000000000000000000000000000000000100013184856810SYDNEY HENRIQUE GAMARANO JUNIOR         RUA JOSE CALIXTO DO CARMO - 286 AP.125 -            11702690                                                            000185
2SR. CAIXA, APOS O VENCIMENTO COBRAR 2% DE MULTA                                 NAO RECEBER APOS 30 DIAS DO VENCIMENTO.                                                                                                                                                                                                         01122000000000000000112200000000000000       0090339900006270131848122017000186
100000000000000000000009033990000627000000000000000000000000010002020058488612201700000000002            2  01584886122009122000000002462560000000001N011220000000000000000000000000000000000000000000000000000000000000000100058488618972ADAILTON ZANUTTO MORESCHI               R:RAPHAEL UNGARO - COND.RESERVA SERRA Q.            13212138                                                            000188
2SR. CAIXA, APOS O VENCIMENTO COBRAR 2% DE MULTA                                 NAO RECEBER APOS 30 DIAS DO VENCIMENTO.                                                                                                                                                                                                         01122000000000000000112200000000000000       0090339900006270584886122017000189
100000000000000000000009033990000627000000000000000000000000010002020040194812201100000000002            2  01401948122009122000000003270000000000001N011220000000000000000000000000000000000000000000000000000000000000000100040194815803JULIANA SANTOS PENSSE                   RUA SALVADOR SOARES - 85 - QUINHOES DA B            13190240                                                            000191
2SR. CAIXA, APOS O VENCIMENTO COBRAR 2% DE MULTA                                 NAO RECEBER APOS 30 DIAS DO VENCIMENTO.                                                                                                                                                                                                         01122000000000000000112200000000000000       0090339900006270401948122011000192
100000000000000000000009033990000627000000000000000000000000010002020011381912201800000000002            2  01113819122009122000000002609430000000001N011220000000000000000000000000000000000000000000000000000000000000000100011381987818MARIO DONIZETE MIGUEL DA SILVA          RUA JASPE - 215 - NOVA HIGIANOPOLIS - JA            06642270                                                            000194
2SR. CAIXA, APOS O VENCIMENTO COBRAR 2% DE MULTA                                 NAO RECEBER APOS 30 DIAS DO VENCIMENTO.                                                                                                                                                                                                         01122000000000000000112200000000000000       0090339900006270113819122018000195
100000000000000000000009033990000627000000000000000000000000010002020002196012201100000000002            2  01021960122011122000000001851640000000001N011220000000000000000000000000000000000000000000000000000000000000000100002196012831VILEFORT DIAS BORGES                    RUA PORTO XAVIER - 189 AP.64 - VILA CARM            08210170                                                            000197
2SR. CAIXA, APOS O VENCIMENTO COBRAR 2% DE MULTA                                 NAO RECEBER APOS 30 DIAS DO VENCIMENTO.                                                                                                                                                                                                         01122000000000000000112200000000000000       0090339900006270021960122011000198
9                                                                                                                                                                                                                                                                                                                                                                                                         000199