01REMESSA01COBRANCA       00000000000008017025HB SANTOS CONSTRUTORA E INCORP237BRADESCO       011118        MX0000066                                                                                                                                                                                                                                                                                     000001
100000000000000000000009033990000627000000000000000000000000010002020029671511181P00000000002            2  01296715111809111800000002349770000000001N011118000000000000000000000000000000000000000000000000000000000000000100029671526845ROGERIO CONSENTINO                      RUA CARLOS MAZER  - 678 - VILA CARMOSINA            08290700                                                            000002
2SR. CAIXA, APOS O VENCIMENTO COBRAR 2% DE MULTA                                 NAO RECEBER APOS 30 DIAS DO VENCIMENTO.                                                                                                                                                                                                         01111800000000000000111180000000000000       009033990000627029671511181P000003
100000000000000000000009033990000627000000000000000000000000010002020003863011181100000000002            2  01038630111809111800000002219560000000001N011118000000000000000000000000000000000000000000000000000000000000000100003863075803HERALDO MENQUINI                        RUA OCEANICA AMABILE - 346 AP.415 - CIDA            11704420                                                            000005
2SR. CAIXA, APOS O VENCIMENTO COBRAR 2% DE MULTA                                 NAO RECEBER APOS 30 DIAS DO VENCIMENTO.                                                                                                                                                                                                         01111800000000000000111180000000000000       0090339900006270038630111811000006
100000000000000000000009033990000627000000000000000000000000010002020029028411181900000000002            2  01290284111809111800000002273720000000001N011118000000000000000000000000000000000000000000000000000000000000000100029028478825LEONARDO LOUZADA                        RUA ILHEUS - QUADRA 31 - 244 - BAIRRO CE            19274000                                                            000008
2SR. CAIXA, APOS O VENCIMENTO COBRAR 2% DE MULTA                                 NAO RECEBER APOS 30 DIAS DO VENCIMENTO.                                                                                                                                                                                                         01111800000000000000111180000000000000       0090339900006270290284111819000009
100000000000000000000009033990000627000000000000000000000000010002020032878511181600000000002            2  01328785111809111800000003285970000000001N011118000000000000000000000000000000000000000000000000000000000000000100032878512847LEONARDO MOURA MONIZ CALDEIRA           RUA BALSA - 682 AP.134 T.02 - VILA ARCAD            02910000                                                            000011
2SR. CAIXA, APOS O VENCIMENTO COBRAR 2% DE MULTA                                 NAO RECEBER APOS 30 DIAS DO VENCIMENTO.                                                                                                                                                                                                         01111800000000000000111180000000000000       0090339900006270328785111816000012
100000000000000000000009033990000627000000000000000000000000010002020016479011181300000000002            2  01164790111809111800000003495680000000001N011118000000000000000000000000000000000000000000000000000000000000000100016479002806LOURDES PEREIRA DE QUEIROZ SECANECHIA   RUA PAULINO CURSI - 437 - CIDADE SAO MAT            03960060                                                            000014
2SR. CAIXA, APOS O VENCIMENTO COBRAR 2% DE MULTA                                 NAO RECEBER APOS 30 DIAS DO VENCIMENTO.                                                                                                                                                                                                         01111800000000000000111180000000000000       0090339900006270164790111813000015
100000000000000000000009033990000627000000000000000000000000010002020019635011181000000000002            2  01196350111809111800000002579200000000001N011118000000000000000000000000000000000000000000000000000000000000000100019635091885IVAN VIEIRA SILVA                       ABRAO JORGE - 3001 - JARDIM INTEGRACAO -            14405397                                                            000017
2SR. CAIXA, APOS O VENCIMENTO COBRAR 2% DE MULTA                                 NAO RECEBER APOS 30 DIAS DO VENCIMENTO.                                                                                                                                                                                                         01111800000000000000111180000000000000       0090339900006270196350111810000018
100000000000000000000009033990000627000000000000000000000000010002020009361411181000000000002            2  01093614111809111800000002537860000000001N011118000000000000000000000000000000000000000000000000000000000000000100009361471805JOSE BARBOSA DA SILVA                   RUA ALFREDO INACIO TRINDADE  - 60 AP.44             02344100                                                            000020
2SR. CAIXA, APOS O VENCIMENTO COBRAR 2% DE MULTA                                 NAO RECEBER APOS 30 DIAS DO VENCIMENTO.                                                                                                                                                                                                         01111800000000000000111180000000000000       0090339900006270093614111810000021
100000000000000000000009033990000627000000000000000000000000010002020012756911181400000000002            2  01127569111809111800000002190740000000001N011118000000000000000000000000000000000000000000000000000000000000000100012756959812ITAMAR JUVENAL DIAS DA SILVA            RUA ELISEU REINALDO MORAES VIEIRA - 90 A            02858000                                                            000023
2SR. CAIXA, APOS O VENCIMENTO COBRAR 2% DE MULTA                                 NAO RECEBER APOS 30 DIAS DO VENCIMENTO.                                                                                                                                                                                                         01111800000000000000111180000000000000       0090339900006270127569111814000024
100000000000000000000009033990000627000000000000000000000000010002020002731011181100000000002            2  01027310111809111800000002590030000000001N011118000000000000000000000000000000000000000000000000000000000000000100002731042842VALTER CERQUEIRA VILLA NOVA             RUA MACHADO - 106 - VILA AUGUSTA - GUARU            07025210                                                            000026
2SR. CAIXA, APOS O VENCIMENTO COBRAR 2% DE MULTA                                 NAO RECEBER APOS 30 DIAS DO VENCIMENTO.                                                                                                                                                                                                         01111800000000000000111180000000000000       0090339900006270027310111811000027
100000000000000000000009033990000627000000000000000000000000010002020002731011182P00000000002            2  01027310111809111800000002590030000000001N011118000000000000000000000000000000000000000000000000000000000000000100002731042842VALTER CERQUEIRA VILLA NOVA             RUA MACHADO - 106 - VILA AUGUSTA - GUARU            07025210                                                            000029
2SR. CAIXA, APOS O VENCIMENTO COBRAR 2% DE MULTA                                 NAO RECEBER APOS 30 DIAS DO VENCIMENTO.                                                                                                                                                                                                         01111800000000000000111180000000000000       009033990000627002731011182P000030
100000000000000000000009033990000627000000000000000000000000010002020028802111181P00000000002            2  01288021111809111800000002338760000000001N011118000000000000000000000000000000000000000000000000000000000000000100028802158894ELIEL HENRIQUE ZUZA                     RUA CARLOS JOSE BORSTENS - 50 AP.43 - BA            11702750                                                            000032
2SR. CAIXA, APOS O VENCIMENTO COBRAR 2% DE MULTA                                 NAO RECEBER APOS 30 DIAS DO VENCIMENTO.                                                                                                                                                                                                         01111800000000000000111180000000000000       009033990000627028802111181P000033
100000000000000000000009033990000627000000000000000000000000010002020008739111181300000000002            2  01087391111809111800000002187320000000001N011118000000000000000000000000000000000000000000000000000000000000000100008739150895VANGEVALDO BATISTA SANT ANNA            TRAVESSA TOMAZIN - 02 - ERMELINO MATARAZ            03811125                                                            000035
2SR. CAIXA, APOS O VENCIMENTO COBRAR 2% DE MULTA                                 NAO RECEBER APOS 30 DIAS DO VENCIMENTO.                                                                                                                                                                                                         01111800000000000000111180000000000000       0090339900006270087391111813000036
100000000000000000000009033990000627000000000000000000000000010002020005313711181P00000000002            2  01053137111811111800000001914130000000001N011118000000000000000000000000000000000000000000000000000000000000000100005313717863EDIMICIO JOSE DE ARAUJO                 PRACA NICOLAU GERAIGIRE - 680 CA A - JAR            11095110                                                            000038
2SR. CAIXA, APOS O VENCIMENTO COBRAR 2% DE MULTA                                 NAO RECEBER APOS 30 DIAS DO VENCIMENTO.                                                                                                                                                                                                         01111800000000000000111180000000000000       009033990000627005313711181P000039
100000000000000000000009033990000627000000000000000000000000010002020029433611181800000000002            2  01294336111811111800000001838820000000001N011118000000000000000000000000000000000000000000000000000000000000000100029433631897MARIO MUNIZ                             RUA LIBERO BADARO - 1115 - BAIRRO CIDADE            11704070                                                            000041
2SR. CAIXA, APOS O VENCIMENTO COBRAR 2% DE MULTA                                 NAO RECEBER APOS 30 DIAS DO VENCIMENTO.                                                                                                                                                                                                         01111800000000000000111180000000000000       0090339900006270294336111818000042
100000000000000000000009033990000627000000000000000000000000010002020001847211181600000000002            2  01018472111811111800000001692880000000001N011118000000000000000000000000000000000000000000000000000000000000000100001847204864AMERICA CONCEICAO DA SILVA              RUA CAMINHO DO GUARAMAR - 199 AP.11 BLOC            11721050                                                            000044
2SR. CAIXA, APOS O VENCIMENTO COBRAR 2% DE MULTA                                 NAO RECEBER APOS 30 DIAS DO VENCIMENTO.                                                                                                                                                                                                         01111800000000000000111180000000000000       0090339900006270018472111816000045
100000000000000000000009033990000627000000000000000000000000010002020005029811181000000000002            2  01050298111809111800000002233600000000001N011118000000000000000000000000000000000000000000000000000000000000000100005029828885LAURINETE DA CONCEICAO DE NORONHA       RUA MARIA LUCIA DE TOLEDO LEITE MORAES -            04434040                                                            000047
2SR. CAIXA, APOS O VENCIMENTO COBRAR 2% DE MULTA                                 NAO RECEBER APOS 30 DIAS DO VENCIMENTO.                                                                                                                                                                                                         01111800000000000000111180000000000000       0090339900006270050298111810000048
100000000000000000000009033990000627000000000000000000000000010002020027682111181P00000000002            2  01276821111811111800000001784660000000001N011118000000000000000000000000000000000000000000000000000000000000000100027682175818ALINE TEIXEIRA                          RUA CRUZEIRO DO SUL - 309 - JARDIM BOM P            06385060                                                            000050
2SR. CAIXA, APOS O VENCIMENTO COBRAR 2% DE MULTA                                 NAO RECEBER APOS 30 DIAS DO VENCIMENTO.                                                                                                                                                                                                         01111800000000000000111180000000000000       009033990000627027682111181P000051
100000000000000000000009033990000627000000000000000000000000010002020013388911181200000000002            2  01133889111811111800000001792580000000001N011118000000000000000000000000000000000000000000000000000000000000000100013388936889NEUTON DE SOUZA RAMOS                   RUA MARIA CRISTINA - 932 - JARDIM CASQUE            11533160                                                            000053
2SR. CAIXA, APOS O VENCIMENTO COBRAR 2% DE MULTA                                 NAO RECEBER APOS 30 DIAS DO VENCIMENTO.                                                                                                                                                                                                         01111800000000000000111180000000000000       0090339900006270133889111812000054
100000000000000000000009033990000627000000000000000000000000010002020012774911181200000000002            2  01127749111811111800000001826220000000001N011118000000000000000000000000000000000000000000000000000000000000000100012774906865JOSE MILTON SANTIAGO                    RUA BATATAIS - 47 - CIDADE ESTELA - POA             08563140                                                            000056
2SR. CAIXA, APOS O VENCIMENTO COBRAR 2% DE MULTA                                 NAO RECEBER APOS 30 DIAS DO VENCIMENTO.                                                                                                                                                                                                         01111800000000000000111180000000000000       0090339900006270127749111812000057
100000000000000000000009033990000627000000000000000000000000010002020016294111181800000000002            2  01162941111809111800000002217570000000001N011118000000000000000000000000000000000000000000000000000000000000000100016294119812JURACY FELIX DE ARRUDA                  RUA CARLOS JOSE BORSTENS - 50 AP.23 - AV            11702750                                                            000059
2SR. CAIXA, APOS O VENCIMENTO COBRAR 2% DE MULTA                                 NAO RECEBER APOS 30 DIAS DO VENCIMENTO.                                                                                                                                                                                                         01111800000000000000111180000000000000       0090339900006270162941111818000060
100000000000000000000009033990000627000000000000000000000000010002020005613811181200000000002            2  01056138111811111800000001679620000000001N011118000000000000000000000000000000000000000000000000000000000000000100005613843805NILZA MARIA DE OLIVEIRA                 RUA JOSE GONCALVES DE FREITAS - 66 C2 -             08210550                                                            000062
2SR. CAIXA, APOS O VENCIMENTO COBRAR 2% DE MULTA                                 NAO RECEBER APOS 30 DIAS DO VENCIMENTO.                                                                                                                                                                                                         01111800000000000000111180000000000000       0090339900006270056138111812000063
100000000000000000000009033990000627000000000000000000000000010002020007574911181200000000002            2  01075749111811111800000001724090000000001N011118000000000000000000000000000000000000000000000000000000000000000100007574936889JORGE LUCIANO PEREIRA BORRIELLO         RUA FABIO DE ALMEIDA MAGALHAES - 179 - J            05135370                                                            000065
2SR. CAIXA, APOS O VENCIMENTO COBRAR 2% DE MULTA                                 NAO RECEBER APOS 30 DIAS DO VENCIMENTO.                                                                                                                                                                                                         01111800000000000000111180000000000000       0090339900006270075749111812000066
100000000000000000000009033990000627000000000000000000000000010002020032408111181500000000002            2  01324081111811111800000001625470000000001N011118000000000000000000000000000000000000000000000000000000000000000100032408151848DEILSON DO NASCIMENTO CANDIDO DA SILVA  RUA HEREMITA SANTA DO NASCIMENTO - 37 AP            11345340                                                            000068
2SR. CAIXA, APOS O VENCIMENTO COBRAR 2% DE MULTA                                 NAO RECEBER APOS 30 DIAS DO VENCIMENTO.                                                                                                                                                                                                         01111800000000000000111180000000000000       0090339900006270324081111815000069
100000000000000000000009033990000627000000000000000000000000010002020008214911181500000000002            2  01082149111811111800000001750260000000001N011118000000000000000000000000000000000000000000000000000000000000000100008214973830JAMIL CHALA                             AVENIDA COSTA MACHADO - 291 AP.133-A - C            11700650                                                            000071
2SR. CAIXA, APOS O VENCIMENTO COBRAR 2% DE MULTA                                 NAO RECEBER APOS 30 DIAS DO VENCIMENTO.                                                                                                                                                                                                         01111800000000000000111180000000000000       0090339900006270082149111815000072
100000000000000000000009033990000627000000000000000000000000010002020032495011181200000000002            2  01324950111811111800000001961390000000001N011118000000000000000000000000000000000000000000000000000000000000000100032495004881PAULO EDUARDO DOS SANTOS                RUA REPUBLICA DO IRAQUE - 1119 - CAMPO B            04611002                                                            000074
2SR. CAIXA, APOS O VENCIMENTO COBRAR 2% DE MULTA                                 NAO RECEBER APOS 30 DIAS DO VENCIMENTO.                                                                                                                                                                                                         01111800000000000000111180000000000000       0090339900006270324950111812000075
100000000000000000000009033990000627000000000000000000000000010002020006471811181200000000002            2  01064718111809111800000002183250000000001N011118000000000000000000000000000000000000000000000000000000000000000100006471825803JOSIVALDO BASTOS DE OLIVEIRA            RUA MARIA DIAS HOG - 263 - PARQUE CONTIN            07085035                                                            000077
2SR. CAIXA, APOS O VENCIMENTO COBRAR 2% DE MULTA                                 NAO RECEBER APOS 30 DIAS DO VENCIMENTO.                                                                                                                                                                                                         01111800000000000000111180000000000000       0090339900006270064718111812000078
100000000000000000000009033990000627000000000000000000000000010002020038856811181900000000002            2  01388568111811111800000001818260000000001N011118000000000000000000000000000000000000000000000000000000000000000100038856851830FELIPE BIANCHI DA COSTA FREITAS         AVENIDA ENGENHEIRO ARMANDO DE ARRUDA PER            04325001                                                            000080
2SR. CAIXA, APOS O VENCIMENTO COBRAR 2% DE MULTA                                 NAO RECEBER APOS 30 DIAS DO VENCIMENTO.                                                                                                                                                                                                         01111800000000000000111180000000000000       0090339900006270388568111819000081
100000000000000000000009033990000627000000000000000000000000010002020016498011181P00000000002            2  01164980111811111800000001720180000000001N011118000000000000000000000000000000000000000000000000000000000000000100016498053810GILMA CEZARIO GARCIA CORRITORI          RUA LAURENTINO XAVIER DOS SANTOS - 336 -            08240740                                                            000083
2SR. CAIXA, APOS O VENCIMENTO COBRAR 2% DE MULTA                                 NAO RECEBER APOS 30 DIAS DO VENCIMENTO.                                                                                                                                                                                                         01111800000000000000111180000000000000       009033990000627016498011181P000084
100000000000000000000009033990000627000000000000000000000000010002020030098611181200000000002            2  01300986111811111800000001846770000000001N011118000000000000000000000000000000000000000000000000000000000000000100030098603825DEUZIANA MOREIRA DE SA                  RUA JOAO AVELINO PINHO MELLAO - 114 - JA            05659010                                                            000086
2SR. CAIXA, APOS O VENCIMENTO COBRAR 2% DE MULTA                                 NAO RECEBER APOS 30 DIAS DO VENCIMENTO.                                                                                                                                                                                                         01111800000000000000111180000000000000       0090339900006270300986111812000087
100000000000000000000009033990000627000000000000000000000000010002020029339011181900000000002            2  01293390111811111800000001839450000000001N011118000000000000000000000000000000000000000000000000000000000000000100029339051831RONALD DIDOFF                           RUA CORONEL FERREIRA BRAGA - 188 - VILA             03522010                                                            000089
2SR. CAIXA, APOS O VENCIMENTO COBRAR 2% DE MULTA                                 NAO RECEBER APOS 30 DIAS DO VENCIMENTO.                                                                                                                                                                                                         01111800000000000000111180000000000000       0090339900006270293390111819000090
100000000000000000000009033990000627000000000000000000000000010002020017357811181000000000002            2  01173578111811111800000001948130000000001N011118000000000000000000000000000000000000000000000000000000000000000100017357859894MARCIO GUIMARAES                        RUA GENERAL CAMARA - 188 SALA 11 - CENTR            11010120                                                            000092
2SR. CAIXA, APOS O VENCIMENTO COBRAR 2% DE MULTA                                 NAO RECEBER APOS 30 DIAS DO VENCIMENTO.                                                                                                                                                                                                         01111800000000000000111180000000000000       0090339900006270173578111810000093
100000000000000000000009033990000627000000000000000000000000010002020010563011181000000000002            2  01105630111811111800000001997930000000001N011118000000000000000000000000000000000000000000000000000000000000000100010563033878VERA LUCIA RIBEIRO LONGANEZI            RUA DOS CAMARES - 150 AP.24 BL.02 - CARA            02068030                                                            000095
2SR. CAIXA, APOS O VENCIMENTO COBRAR 2% DE MULTA                                 NAO RECEBER APOS 30 DIAS DO VENCIMENTO.                                                                                                                                                                                                         01111800000000000000111180000000000000       0090339900006270105630111810000096
100000000000000000000009033990000627000000000000000000000000010002020005529611181500000000002            2  01055296111811111800000001813040000000001N011118000000000000000000000000000000000000000000000000000000000000000100005529616801JOAQUIM JORGE DA COSTA                  RUA CONEGO XAVIER - 13 - SACOMA - SAO PA            04231030                                                            000098
2SR. CAIXA, APOS O VENCIMENTO COBRAR 2% DE MULTA                                 NAO RECEBER APOS 30 DIAS DO VENCIMENTO.                                                                                                                                                                                                         01111800000000000000111180000000000000       0090339900006270055296111815000099
100000000000000000000009033990000627000000000000000000000000010002020022014111181P00000000002            2  01220141111811111800000001807760000000001N011118000000000000000000000000000000000000000000000000000000000000000100022014140847CAMILA SILVEIRA CANIZARES               AVENIDA PRESIDENTE CASTELO BRANCO - 5.74            11703650                                                            000101
2SR. CAIXA, APOS O VENCIMENTO COBRAR 2% DE MULTA                                 NAO RECEBER APOS 30 DIAS DO VENCIMENTO.                                                                                                                                                                                                         01111800000000000000111180000000000000       009033990000627022014111181P000102
100000000000000000000009033990000627000000000000000000000000010002020015550711181100000000002            2  01155507111809111800000001693050000000001N011118000000000000000000000000000000000000000000000000000000000000000100015550706806MARY MIWA                               RUA CARLOS JOSE BORSTENS - 50 AP.105 - A            11702750                                                            000104
2SR. CAIXA, APOS O VENCIMENTO COBRAR 2% DE MULTA                                 NAO RECEBER APOS 30 DIAS DO VENCIMENTO.                                                                                                                                                                                                         01111800000000000000111180000000000000       0090339900006270155507111811000105
100000000000000000000009033990000627000000000000000000000000010002020015464611181100000000002            2  01154646111811111800000001905930000000001N011118000000000000000000000000000000000000000000000000000000000000000100015464647864SONIA TERESA VOLPATO                    RUA PEDRO BADRA - 51 AP.73 - JABAQUARA -            04348090                                                            000107
2SR. CAIXA, APOS O VENCIMENTO COBRAR 2% DE MULTA                                 NAO RECEBER APOS 30 DIAS DO VENCIMENTO.                                                                                                                                                                                                         01111800000000000000111180000000000000       0090339900006270154646111811000108
100000000000000000000009033990000627000000000000000000000000010002020008657811181000000000002            2  01086578111811111800000001886810000000001N011118000000000000000000000000000000000000000000000000000000000000000100008657886855ARLINDO DA CRUZ                         AVENIDA ARICANDUVA - 8.256 AP.54 BL.10 -            03951220                                                            000110
2SR. CAIXA, APOS O VENCIMENTO COBRAR 2% DE MULTA                                 NAO RECEBER APOS 30 DIAS DO VENCIMENTO.                                                                                                                                                                                                         01111800000000000000111180000000000000       0090339900006270086578111810000111
100000000000000000000009033990000627000000000000000000000000010002020004265711181000000000002            2  01042657111809111800000002494680000000001N011118000000000000000000000000000000000000000000000000000000000000000100004265781713ALEXANDRE CASADO COSTA                  RUA CARLOS JOSE BORSTENS - 50 AP.33 - AV            11702750                                                            000113
2SR. CAIXA, APOS O VENCIMENTO COBRAR 2% DE MULTA                                 NAO RECEBER APOS 30 DIAS DO VENCIMENTO.                                                                                                                                                                                                         01111800000000000000111180000000000000       0090339900006270042657111810000114
100000000000000000000009033990000627000000000000000000000000010002020059735111181900000000002            2  01597351111809111800000001053700000000001N011118000000000000000000000000000000000000000000000000000000000000000100059735180863HELIO JOSE MARQUES                      RUA MARTIM AFONSO DE SOUZA - 1007 AP.102            11702790                                                            000116
2SR. CAIXA, APOS O VENCIMENTO COBRAR 2% DE MULTA                                 NAO RECEBER APOS 30 DIAS DO VENCIMENTO.                                                                                                                                                                                                         01111800000000000000111180000000000000       0090339900006270597351111819000117
100000000000000000000009033990000627000000000000000000000000010002020026347811181200000000002            2  01263478111811111800000002016950000000001N011118000000000000000000000000000000000000000000000000000000000000000100026347872862VALDECI SILVA MEIRELES                  RUA JOSE BATISTA DA SILVA - 292 - JARDIM            06851470                                                            000119
2SR. CAIXA, APOS O VENCIMENTO COBRAR 2% DE MULTA                                 NAO RECEBER APOS 30 DIAS DO VENCIMENTO.                                                                                                                                                                                                         01111800000000000000111180000000000000       0090339900006270263478111812000120
100000000000000000000009033990000627000000000000000000000000010002020025443611181300000000002            2  01254436111809111800000003608670000000001N011118000000000000000000000000000000000000000000000000000000000000000100025443691830SILVANETE PEREIRA CARNELOS              RUA CARLOS JOSE BORSTENS - 50 AP.102 - A            11702750                                                            000122
2SR. CAIXA, APOS O VENCIMENTO COBRAR 2% DE MULTA                                 NAO RECEBER APOS 30 DIAS DO VENCIMENTO.                                                                                                                                                                                                         01111800000000000000111180000000000000       0090339900006270254436111813000123
100000000000000000000009033990000627000000000000000000000000010002020013135211181300000000002            2  01131352111811111800000001853080000000001N011118000000000000000000000000000000000000000000000000000000000000000100013135261859EDUARDO ZANOLA                          RUA ROLANDO PIETRO BONINI - 46 - JARDIM             09781040                                                            000125
2SR. CAIXA, APOS O VENCIMENTO COBRAR 2% DE MULTA                                 NAO RECEBER APOS 30 DIAS DO VENCIMENTO.                                                                                                                                                                                                         01111800000000000000111180000000000000       0090339900006270131352111813000126
100000000000000000000009033990000627000000000000000000000000010002020009797611181400000000002            2  01097976111811111800000001804710000000001N011118000000000000000000000000000000000000000000000000000000000000000100009797626857RICARDO SOBRAL DE OLIVEIRA              RUA 23 DE MAIO - 139 AP.32 - VILA MIRIM             11704690                                                            000128
2SR. CAIXA, APOS O VENCIMENTO COBRAR 2% DE MULTA                                 NAO RECEBER APOS 30 DIAS DO VENCIMENTO.                                                                                                                                                                                                         01111800000000000000111180000000000000       0090339900006270097976111814000129
9                                                                                                                                                                                                                                                                                                                                                                                                         000130