01REMESSA01COBRANCA       00000000000005331186HB SANTOS CONSTRUTORA E INCORP237BRADESCO       090524        MX0000097                                                                                                                                                                                                                                                                                     000001
100000000000000000000009033990000995400000000000000000000000010002020005723205241900000000002            2  01057232052423052400000003352920000000001N080524000000000000000000000000000000000000000000000000000000000000000100005723255843FRANCISCO DE ASSIS DA SILVA             PRACA NICOLAU GERAIGIRE - 25 VISOR - JAR            11095110                                                            000002
2SR. CAIXA, APOS O VENCIMENTO COBRAR 2% DE MULTA                                 NAO RECEBER APOS 30 DIAS DO VENCIMENTO.                                                                                                                                                                                                         09052400000000000000905240000000000000       0090339900009954057232052419000003
100000000000000000000009033990000995400000000000000000000000010002020032589105241200000000002            2  01325891052423052400000003172540000000001N080524000000000000000000000000000000000000000000000000000000000000000100032589165862RENATA ISABEL MARTINS SILVA             RUA HERCULANO DE FREITAS - 257 - FUNDACA            09520280                                                            000005
2SR. CAIXA, APOS O VENCIMENTO COBRAR 2% DE MULTA                                 NAO RECEBER APOS 30 DIAS DO VENCIMENTO.                                                                                                                                                                                                         09052400000000000000905240000000000000       0090339900009954325891052412000006
100000000000000000000009033990000995400000000000000000000000010002020046391205241100000000002            2  01463912052423052400000003326810000000001N080524000000000000000000000000000000000000000000000000000000000000000100046391265810PAMELLA RODRIGUES DE OLIVEIRA           RUA AUGUSTA - 183 AP.301 BL.2A - VILA AU            07025130                                                            000008
2SR. CAIXA, APOS O VENCIMENTO COBRAR 2% DE MULTA                                 NAO RECEBER APOS 30 DIAS DO VENCIMENTO.                                                                                                                                                                                                         09052400000000000000905240000000000000       0090339900009954463912052411000009
100000000000000000000009033990000995400000000000000000000000010002020027964505241P00000000002            2  01279645052423052400000003305460000000001N080524000000000000000000000000000000000000000000000000000000000000000100027964512838FABIO TADEU DE CAMPOS RADZIAVICIUS      RUA URUGUAI - 89 AP.94 - JARDIM GUILHERM            11702300                                                            000011
2SR. CAIXA, APOS O VENCIMENTO COBRAR 2% DE MULTA                                 NAO RECEBER APOS 30 DIAS DO VENCIMENTO.                                                                                                                                                                                                         09052400000000000000905240000000000000       009033990000995427964505241P000012
100000000000000000000009033990000995400000000000000000000000010002020011498305241800000000002            2  01114983052423052400000002476520000000001N080524000000000000000000000000000000000000000000000000000000000000000100011498329837GERSON GERALDO DAS NEVES                RUA DOMINGOS DELGADO - 144 - VILA SOUZA             02881070                                                            000014
2SR. CAIXA, APOS O VENCIMENTO COBRAR 2% DE MULTA                                 NAO RECEBER APOS 30 DIAS DO VENCIMENTO.                                                                                                                                                                                                         09052400000000000000905240000000000000       0090339900009954114983052418000015
100000000000000000000009033990000995400000000000000000000000010002020025214405241400000000002            2  01252144052423052400000002931430000000001N080524000000000000000000000000000000000000000000000000000000000000000100025214401833JOSE MAURICIO DOS SANTOS RODRIGUES      RUA JOAO DE MACEDO RIBEIRO - 49 - VILA N            08111101                                                            000017
2SR. CAIXA, APOS O VENCIMENTO COBRAR 2% DE MULTA                                 NAO RECEBER APOS 30 DIAS DO VENCIMENTO.                                                                                                                                                                                                         09052400000000000000905240000000000000       0090339900009954252144052414000018
100000000000000000000009033990000995400000000000000000000000010002020033119105241100000000002            2  01331191052423052400000002943840000000001N080524000000000000000000000000000000000000000000000000000000000000000100033119178802HUGO GOMES VENDRAME                     RUA URUGUAI - 89 AP.52 - JARDIM GUILHERM            11702300                                                            000020
2SR. CAIXA, APOS O VENCIMENTO COBRAR 2% DE MULTA                                 NAO RECEBER APOS 30 DIAS DO VENCIMENTO.                                                                                                                                                                                                         09052400000000000000905240000000000000       0090339900009954331191052411000021
100000000000000000000009033990000995400000000000000000000000010002020016631505241400000000002            2  01166315052423052400000002995210000000001N080524000000000000000000000000000000000000000000000000000000000000000100016631587468GILBERTO BEZERRA DA SILVA               AVENIDA JAIME TORRES - 745 CASA 3 - JARD            03670000                                                            000023
2SR. CAIXA, APOS O VENCIMENTO COBRAR 2% DE MULTA                                 NAO RECEBER APOS 30 DIAS DO VENCIMENTO.                                                                                                                                                                                                         09052400000000000000905240000000000000       0090339900009954166315052414000024
100000000000000000000009033990000995400000000000000000000000010002020007313205241700000000002            2  01073132052423052400000002973960000000001N080524000000000000000000000000000000000000000000000000000000000000000100007313251840SALVADOR GESUALDO PULVIRENTI            AVENIDA MARARI - 641 - VILA MARARI - SAO            04402010                                                            000026
2SR. CAIXA, APOS O VENCIMENTO COBRAR 2% DE MULTA                                 NAO RECEBER APOS 30 DIAS DO VENCIMENTO.                                                                                                                                                                                                         09052400000000000000905240000000000000       0090339900009954073132052417000027
100000000000000000000009033990000995400000000000000000000000010002020010676705241900000000002            2  01106767052423052400000003104090000000001N080524000000000000000000000000000000000000000000000000000000000000000100010676723896MERCEDES CRISTINA ROCHA SANDOVAL        RUA URUGUAI - 89 AP.83 - JARDIM GUILHERM            11702300                                                            000029
2SR. CAIXA, APOS O VENCIMENTO COBRAR 2% DE MULTA                                 NAO RECEBER APOS 30 DIAS DO VENCIMENTO.                                                                                                                                                                                                         09052400000000000000905240000000000000       0090339900009954106767052419000030
100000000000000000000009033990000995400000000000000000000000010002020009502805241700000000002            2  01095028052423052400000003241710000000001N080524000000000000000000000000000000000000000000000000000000000000000100009502844831CLAUDIA ROCHA SANDOVAL                  RUA URUGUAI - 89 AP.64 - JARDIM GUILHERM            11702300                                                            000032
2SR. CAIXA, APOS O VENCIMENTO COBRAR 2% DE MULTA                                 NAO RECEBER APOS 30 DIAS DO VENCIMENTO.                                                                                                                                                                                                         09052400000000000000905240000000000000       0090339900009954095028052417000033
100000000000000000000009033990000995400000000000000000000000010002020007594205241600000000002            2  01075942052423052400000002910180000000001N080524000000000000000000000000000000000000000000000000000000000000000100007594247809JOSE LUIS DE OLIVEIRA                   DONA EGLANTINA PENTEADO DA SILVA PRADO -            13044162                                                            000035
2SR. CAIXA, APOS O VENCIMENTO COBRAR 2% DE MULTA                                 NAO RECEBER APOS 30 DIAS DO VENCIMENTO.                                                                                                                                                                                                         09052400000000000000905240000000000000       0090339900009954075942052416000036
100000000000000000000009033990000995400000000000000000000000010002020005288705241P00000000002            2  01052887052423052400000002997770000000001N080524000000000000000000000000000000000000000000000000000000000000000100005288796858MARCELO RODRIGUES FERREIRA              RUA MARCOS ANTONIO MARQUES - 302 - JARDI            06433020                                                            000038
2SR. CAIXA, APOS O VENCIMENTO COBRAR 2% DE MULTA                                 NAO RECEBER APOS 30 DIAS DO VENCIMENTO.                                                                                                                                                                                                         09052400000000000000905240000000000000       009033990000995405288705241P000039
100000000000000000000009033990000995400000000000000000000000010002020015835905241900000000002            2  01158359052423052400000003121740000000001N080524000000000000000000000000000000000000000000000000000000000000000100015835992823FLAVIO VERONEZ                          RUA ANDREA PAULINETTI - 127 AP.42 - BAIR            04707050                                                            000041
2SR. CAIXA, APOS O VENCIMENTO COBRAR 2% DE MULTA                                 NAO RECEBER APOS 30 DIAS DO VENCIMENTO.                                                                                                                                                                                                         09052400000000000000905240000000000000       0090339900009954158359052419000042
100000000000000000000009033990000995400000000000000000000000010002020000438105241700000000002            2  01004381052423052400000003523590000000001N080524000000000000000000000000000000000000000000000000000000000000000100000438161858WAGNECY VILLA NOVA LIEN                 RUA PROFESSOR FERREIRA PAULINO - 233 AP.            07025020                                                            000044
2SR. CAIXA, APOS O VENCIMENTO COBRAR 2% DE MULTA                                 NAO RECEBER APOS 30 DIAS DO VENCIMENTO.                                                                                                                                                                                                         09052400000000000000905240000000000000       0090339900009954004381052417000045
100000000000000000000009033990000995400000000000000000000000010002020026004505241300000000002            2  01260045052423052400000003121780000000001N080524000000000000000000000000000000000000000000000000000000000000000100026004595888EDIVALDO BEZERRA DA SILVA               AVENIDA GUATEMALA - 550 - JARDIM PINHEIR            09854750                                                            000047
2SR. CAIXA, APOS O VENCIMENTO COBRAR 2% DE MULTA                                 NAO RECEBER APOS 30 DIAS DO VENCIMENTO.                                                                                                                                                                                                         09052400000000000000905240000000000000       0090339900009954260045052413000048
100000000000000000000009033990000995400000000000000000000000010002020012470705241800000000002            2  01124707052423052400000003330730000000001N080524000000000000000000000000000000000000000000000000000000000000000100012470771870HILTON FERNANDES OLIVARES               RUA PATIO DA ESTACAO - 115 - BAIRRO CENT            09450000                                                            000050
2SR. CAIXA, APOS O VENCIMENTO COBRAR 2% DE MULTA                                 NAO RECEBER APOS 30 DIAS DO VENCIMENTO.                                                                                                                                                                                                         09052400000000000000905240000000000000       0090339900009954124707052418000051
100000000000000000000009033990000995400000000000000000000000010002020014025405241700000000002            2  01140254052423052400000003652050000000001N080524000000000000000000000000000000000000000000000000000000000000000100014025420899ANDREIA APARECIDA TAVARES BASTOS        RUA IBATIBA - 234 CASA 27 - RES.BOUGANVI            09220608                                                            000053
2SR. CAIXA, APOS O VENCIMENTO COBRAR 2% DE MULTA                                 NAO RECEBER APOS 30 DIAS DO VENCIMENTO.                                                                                                                                                                                                         09052400000000000000905240000000000000       0090339900009954140254052417000054
100000000000000000000009033990000995400000000000000000000000010002020088578705241400000000002            2  01885787052423052400000002721580000000001N080524000000000000000000000000000000000000000000000000000000000000000100088578704800GILBERTO DO ESPIRITO SANTO SILVA        RUA URUGUAI - 89 AP.23 - JARDIM GUILHERM            11702300                                                            000056
2SR. CAIXA, APOS O VENCIMENTO COBRAR 2% DE MULTA                                 NAO RECEBER APOS 30 DIAS DO VENCIMENTO.                                                                                                                                                                                                         09052400000000000000905240000000000000       0090339900009954885787052414000057
100000000000000000000009033990000995400000000000000000000000010002020020792705241100000000002            2  01207927052423052400000003374480000000001N080524000000000000000000000000000000000000000000000000000000000000000120792791000147TROVAO COMERCIO DE ALIMENTOS LTDA-ME    RUA QUINTA DA MAGNOLIA - 67 - JARDIM IPA            03582100                                                            000059
2SR. CAIXA, APOS O VENCIMENTO COBRAR 2% DE MULTA                                 NAO RECEBER APOS 30 DIAS DO VENCIMENTO.                                                                                                                                                                                                         09052400000000000000905240000000000000       0090339900009954207927052411000060
100000000000000000000009033990000995400000000000000000000000010002020007648105241500000000002            2  01076481052423052400000003168620000000001N080524000000000000000000000000000000000000000000000000000000000000000100007648112825MARA REGINA CAPRIO                      RUA DA TRINDADE - 790 - VILA IDEAL - SAO            15060280                                                            000062
2SR. CAIXA, APOS O VENCIMENTO COBRAR 2% DE MULTA                                 NAO RECEBER APOS 30 DIAS DO VENCIMENTO.                                                                                                                                                                                                         09052400000000000000905240000000000000       0090339900009954076481052415000063
100000000000000000000009033990000995400000000000000000000000010002020031157405241400000000002            2  01311574052423052400000003402350000000001N080524000000000000000000000000000000000000000000000000000000000000000100031157420885TALITA ANICHIARICO COSSI                RUA CNEO POMPEO DE CAMARGO - 817 - JARDI            13060150                                                            000065
2SR. CAIXA, APOS O VENCIMENTO COBRAR 2% DE MULTA                                 NAO RECEBER APOS 30 DIAS DO VENCIMENTO.                                                                                                                                                                                                         09052400000000000000905240000000000000       0090339900009954311574052414000066
100000000000000000000009033990000995400000000000000000000000010002020035572505241900000000002            2  01355725052423052400000003617450000000001N080524000000000000000000000000000000000000000000000000000000000000000100035572536865MARIA SIMONE SANTOS                     RUA JOSE PEZZOLO - 68 - VILA ELDIZIA - S            09181660                                                            000068
2SR. CAIXA, APOS O VENCIMENTO COBRAR 2% DE MULTA                                 NAO RECEBER APOS 30 DIAS DO VENCIMENTO.                                                                                                                                                                                                         09052400000000000000905240000000000000       0090339900009954355725052419000069
100000000000000000000009033990000995400000000000000000000000010002020008800305241600000000002            2  01088003052423052400000003295980000000001N080524000000000000000000000000000000000000000000000000000000000000000100008800368425INGO DIMITRI PEREIRA DA NOBREGA         RUA PROFESSOR MENDES PIMENTEL - 362 - JA            03973010                                                            000071
2SR. CAIXA, APOS O VENCIMENTO COBRAR 2% DE MULTA                                 NAO RECEBER APOS 30 DIAS DO VENCIMENTO.                                                                                                                                                                                                         09052400000000000000905240000000000000       0090339900009954088003052416000072
100000000000000000000009033990000995400000000000000000000000010002020005054105241000000000002            2  01050541052423052400000003189670000000001N080524000000000000000000000000000000000000000000000000000000000000000100005054169806PAULO ROBERTO DE MATTOS                 JARDIM BOTANICO - 849 - DISTRITO DE SOUS            13106258                                                            000074
2SR. CAIXA, APOS O VENCIMENTO COBRAR 2% DE MULTA                                 NAO RECEBER APOS 30 DIAS DO VENCIMENTO.                                                                                                                                                                                                         09052400000000000000905240000000000000       0090339900009954050541052410000075
100000000000000000000009033990000995400000000000000000000000010002020007552105241700000000002            2  01075521052423052400000003189670000000001N080524000000000000000000000000000000000000000000000000000000000000000100007552151846MAURO BORDONI                           AVENIDA DR. AUGUSTO DE TOLEDO - 769 AP.6            09540080                                                            000077
2SR. CAIXA, APOS O VENCIMENTO COBRAR 2% DE MULTA                                 NAO RECEBER APOS 30 DIAS DO VENCIMENTO.                                                                                                                                                                                                         09052400000000000000905240000000000000       0090339900009954075521052417000078
100000000000000000000009033990000995400000000000000000000000010002020012744205241P00000000002            2  01127442052423052400000003548980000000001N080524000000000000000000000000000000000000000000000000000000000000000100012744201804ADAIL JOSE DE SOUSA                     RUA ROSARIA - 303 - BAIRRO SACADURA CABR            09061080                                                            000080
2SR. CAIXA, APOS O VENCIMENTO COBRAR 2% DE MULTA                                 NAO RECEBER APOS 30 DIAS DO VENCIMENTO.                                                                                                                                                                                                         09052400000000000000905240000000000000       009033990000995412744205241P000081
100000000000000000000009033990000995400000000000000000000000010002020068320605241700000000002            2  01683206052423052400000012568630000000001N080524000000000000000000000000000000000000000000000000000000000000000100068320663849ANTONIO CAVALCANTE LIMA                 RUA AMAZONAS - 1188 - CENTRO - SAO CAETA            09540201                                                            000083
2SR. CAIXA, APOS O VENCIMENTO COBRAR 2% DE MULTA                                 NAO RECEBER APOS 30 DIAS DO VENCIMENTO.                                                                                                                                                                                                         09052400000000000000905240000000000000       0090339900009954683206052417000084
100000000000000000000009033990000995400000000000000000000000010002020088926205241900000000002            2  01889262052423052400000002640370000000001N080524000000000000000000000000000000000000000000000000000000000000000100088926230872VALDEMAR LATANCE FILHO                  RUA MELO PINTO DA SILVA - 111 CASA 103 -            18116265                                                            000086
2SR. CAIXA, APOS O VENCIMENTO COBRAR 2% DE MULTA                                 NAO RECEBER APOS 30 DIAS DO VENCIMENTO.                                                                                                                                                                                                         09052400000000000000905240000000000000       0090339900009954889262052419000087
9                                                                                                                                                                                                                                                                                                                                                                                                         000088