01REMESSA01COBRANCA       00000000000005623874H B SANTOS CONSTRUTORA E INCOR237BRADESCO       010624        MX0000017                                                                                                                                                                                                                                                                                     000001
100000000000000000000009033990001086300000000000000000000000010002020087902706241P00000000002            2  01879027062410062400000003489490000000001N010624000000000000000000000000000000000000000000000000000000000000000100087902737887WAGNER CERQUEIRA VILA NOVA              RUA JOAQUIM FERREIRA - 124 AP.211 T.01 -            05033080                                                            000002
2SR. CAIXA, APOS O VENCIMENTO COBRAR 2% DE MULTA                                 NAO RECEBER APOS 30 DIAS DO VENCIMENTO.                                                                                                                                                                                                         01062400000000000000106240000000000000       009033990001086387902706241P000003
100000000000000000000009033990001086300000000000000000000000010002020015095606241600000000002            2  01150956062410062400000003242920000000001N010624000000000000000000000000000000000000000000000000000000000000000100015095698803MARCOS CESAR SOUZA SENA                 RUA SALVADOR PELUSO BASILE - 381 - JARDI            06755010                                                            000005
2SR. CAIXA, APOS O VENCIMENTO COBRAR 2% DE MULTA                                 NAO RECEBER APOS 30 DIAS DO VENCIMENTO.                                                                                                                                                                                                         01062400000000000000106240000000000000       0090339900010863150956062416000006
100000000000000000000009033990001086300000000000000000000000010002020011947906242000000000002            2  01119479062410062400000003178800000000001N010624000000000000000000000000000000000000000000000000000000000000000100011947951882DECIO VITORINO DOS SANTOS               RUA GREGORIA DE FREGEL - 380 AP.21 BL24             09811430                                                            000008
2SR. CAIXA, APOS O VENCIMENTO COBRAR 2% DE MULTA                                 NAO RECEBER APOS 30 DIAS DO VENCIMENTO.                                                                                                                                                                                                         01062400000000000000106240000000000000       0090339900010863119479062420000009
100000000000000000000009033990001086300000000000000000000000010002020000181206242400000000002            2  01001812062410062400000002858470000000001N010624000000000000000000000000000000000000000000000000000000000000000100000181223023DARLIN SANTA CATARINA                   RUA S-13 QUADRA 60 LR 08 - 750 - SETOR S            77425090                                                            000011
2SR. CAIXA, APOS O VENCIMENTO COBRAR 2% DE MULTA                                 NAO RECEBER APOS 30 DIAS DO VENCIMENTO.                                                                                                                                                                                                         01062400000000000000106240000000000000       0090339900010863001812062424000012
100000000000000000000009033990001086300000000000000000000000010002020034311706242P00000000002            2  01343117062410062400000003334940000000001N010624000000000000000000000000000000000000000000000000000000000000000100034311774842RAFAEL MARCOS SOUSA                     RUA AGUA BRANCA - 270 - JARDIM RUY BARBO            13219120                                                            000014
2SR. CAIXA, APOS O VENCIMENTO COBRAR 2% DE MULTA                                 NAO RECEBER APOS 30 DIAS DO VENCIMENTO.                                                                                                                                                                                                         01062400000000000000106240000000000000       009033990001086334311706242P000015
100000000000000000000009033990001086300000000000000000000000010002020035839606242300000000002            2  01358396062410062400000003319360000000001N010624000000000000000000000000000000000000000000000000000000000000000100035839657875JUNIOR SILVA TEODORO DOS SANTOS         RUA ARMANDO DE SALLES OLIVEIRA - 123 AP.            11510020                                                            000017
2SR. CAIXA, APOS O VENCIMENTO COBRAR 2% DE MULTA                                 NAO RECEBER APOS 30 DIAS DO VENCIMENTO.                                                                                                                                                                                                         01062400000000000000106240000000000000       0090339900010863358396062423000018
100000000000000000000009033990001086300000000000000000000000010002020030898206241900000000002            2  01308982062410062400000003028540000000001N010624000000000000000000000000000000000000000000000000000000000000000100030898241839LUIZ DANIEL CANNITO                     RUA FOZ DO DOURO - 195 CASA 01 - JARDIM             03924080                                                            000020
2SR. CAIXA, APOS O VENCIMENTO COBRAR 2% DE MULTA                                 NAO RECEBER APOS 30 DIAS DO VENCIMENTO.                                                                                                                                                                                                         01062400000000000000106240000000000000       0090339900010863308982062419000021
100000000000000000000009033990001086300000000000000000000000010002020018433906242700000000002            2  01184339062410062400000003232480000000001N010624000000000000000000000000000000000000000000000000000000000000000100018433908847TELMA CRISTIANY DE CAMPOS               AVENIDA MARECHAL MAURICIO JOSE CARDOSO -            11700140                                                            000023
2SR. CAIXA, APOS O VENCIMENTO COBRAR 2% DE MULTA                                 NAO RECEBER APOS 30 DIAS DO VENCIMENTO.                                                                                                                                                                                                         01062400000000000000106240000000000000       0090339900010863184339062427000024
100000000000000000000009033990001086300000000000000000000000010002020001803106242900000000002            2  01018031062410062400000002950000000000001N010624000000000000000000000000000000000000000000000000000000000000000100001803106824MAGNA FLORA CALIS                       RUA DOS EXPEDICIONARIOS - 59 AP.13 - CAN            11700750                                                            000026
2SR. CAIXA, APOS O VENCIMENTO COBRAR 2% DE MULTA                                 NAO RECEBER APOS 30 DIAS DO VENCIMENTO.                                                                                                                                                                                                         01062400000000000000106240000000000000       0090339900010863018031062429000027
100000000000000000000009033990001086300000000000000000000000010002020026327306242800000000002            2  01263273062410062400000003168080000000001N010624000000000000000000000000000000000000000000000000000000000000000100026327304818GEANICE BARBOSA DA SILVA                RUA FLAMENGO - 77 - VILA GUILHERMINA - P            11701540                                                            000029
2SR. CAIXA, APOS O VENCIMENTO COBRAR 2% DE MULTA                                 NAO RECEBER APOS 30 DIAS DO VENCIMENTO.                                                                                                                                                                                                         01062400000000000000106240000000000000       0090339900010863263273062428000030
100000000000000000000009033990001086300000000000000000000000010002020008732206242800000000002            2  01087322062410062400000002865820000000001N010624000000000000000000000000000000000000000000000000000000000000000100008732244851JOSENILTON SOUSA DE OLIVEIRA            RUA GENERAL ISIDORO DIAS LOPES - 456 - B            08561410                                                            000032
2SR. CAIXA, APOS O VENCIMENTO COBRAR 2% DE MULTA                                 NAO RECEBER APOS 30 DIAS DO VENCIMENTO.                                                                                                                                                                                                         01062400000000000000106240000000000000       0090339900010863087322062428000033
100000000000000000000009033990001086300000000000000000000000010002020017372406242800000000002            2  01173724062410062400000003079440000000001N010624000000000000000000000000000000000000000000000000000000000000000100017372408822EDUARDO PEREIRA DA SILVA                AVENIDA PARIS - 587 - BOQUEIRAO - PRAIA             11700080                                                            000035
2SR. CAIXA, APOS O VENCIMENTO COBRAR 2% DE MULTA                                 NAO RECEBER APOS 30 DIAS DO VENCIMENTO.                                                                                                                                                                                                         01062400000000000000106240000000000000       0090339900010863173724062428000036
100000000000000000000009033990001086300000000000000000000000010002020003979206242P00000000002            2  01039792062410062400000002862510000000001N010624000000000000000000000000000000000000000000000000000000000000000100003979280845JORGE LUIZ PARRA MORENO                 AVENIDA ALZIRA DE JESUS DA SILVA - 230 -            15061719                                                            000038
2SR. CAIXA, APOS O VENCIMENTO COBRAR 2% DE MULTA                                 NAO RECEBER APOS 30 DIAS DO VENCIMENTO.                                                                                                                                                                                                         01062400000000000000106240000000000000       009033990001086303979206242P000039
100000000000000000000009033990001086300000000000000000000000010002020026980306242200000000002            2  01269803062410062400000002619710000000001N010624000000000000000000000000000000000000000000000000000000000000000100026980385860DENISE CAMPOS MORALES GABRIEL           RUA QUINCIO PEIRAO - 27 AP.13 - PONTA DA            11030040                                                            000041
2SR. CAIXA, APOS O VENCIMENTO COBRAR 2% DE MULTA                                 NAO RECEBER APOS 30 DIAS DO VENCIMENTO.                                                                                                                                                                                                         01062400000000000000106240000000000000       0090339900010863269803062422000042
100000000000000000000009033990001086300000000000000000000000010002020034263806241100000000002            2  01342638062410062400000003318560000000001N010624000000000000000000000000000000000000000000000000000000000000000100034263879805LARISSA FERREIRA NONATO                 RUA HEIZO NAKANO - 65 CASA 71 - BAIRRO J            09811370                                                            000044
2SR. CAIXA, APOS O VENCIMENTO COBRAR 2% DE MULTA                                 NAO RECEBER APOS 30 DIAS DO VENCIMENTO.                                                                                                                                                                                                         01062400000000000000106240000000000000       0090339900010863342638062411000045
100000000000000000000009033990001086300000000000000000000000010002020025388006242300000000002            2  01253880062410062400000003071220000000001N010624000000000000000000000000000000000000000000000000000000000000000100025388047873DANIEL DA SILVA FERNANDES               AVENIDA PRESIDENTE CASTELO BRANCO - 4772            11702705                                                            000047
2SR. CAIXA, APOS O VENCIMENTO COBRAR 2% DE MULTA                                 NAO RECEBER APOS 30 DIAS DO VENCIMENTO.                                                                                                                                                                                                         01062400000000000000106240000000000000       0090339900010863253880062423000048
100000000000000000000009033990001086300000000000000000000000010002020035778006241800000000002            2  01357780062410062400000003054670000000001N010624000000000000000000000000000000000000000000000000000000000000000100035778038860BRUNA QUEIROZ MENDES                    RUA JOSE DA SILVA XAVIER - 91 - PARQUE S            11365260                                                            000050
2SR. CAIXA, APOS O VENCIMENTO COBRAR 2% DE MULTA                                 NAO RECEBER APOS 30 DIAS DO VENCIMENTO.                                                                                                                                                                                                         01062400000000000000106240000000000000       0090339900010863357780062418000051
100000000000000000000009033990001086300000000000000000000000010002020038699006242900000000002            2  01386990062410062400000003472340000000001N010624000000000000000000000000000000000000000000000000000000000000000100038699045859ALAN DE LIMA                            ALAMEDA TTE JOSE BERNARDINO - 1335 - JAR            08671020                                                            000053
2SR. CAIXA, APOS O VENCIMENTO COBRAR 2% DE MULTA                                 NAO RECEBER APOS 30 DIAS DO VENCIMENTO.                                                                                                                                                                                                         01062400000000000000106240000000000000       0090339900010863386990062429000054
100000000000000000000009033990001086300000000000000000000000010002020015344906242P00000000002            2  01153449062410062400000002349110000000001N010624000000000000000000000000000000000000000000000000000000000000000100015344993854MAURICIO MENDES RODRIGUES               RUA SAO PAULO - 2.297 AP.86 - BAIRRO SAN            09541100                                                            000056
2SR. CAIXA, APOS O VENCIMENTO COBRAR 2% DE MULTA                                 NAO RECEBER APOS 30 DIAS DO VENCIMENTO.                                                                                                                                                                                                         01062400000000000000106240000000000000       009033990001086315344906242P000057
100000000000000000000009033990001086300000000000000000000000010002020010371906241100000000002            2  01103719062410062400000003285290000000001N010624000000000000000000000000000000000000000000000000000000000000000100010371903866ANDREA VILELLA VITORINO                 RUA CORONEL JORDAO - 479 CASA 2 - BAIRRO            02075030                                                            000059
2SR. CAIXA, APOS O VENCIMENTO COBRAR 2% DE MULTA                                 NAO RECEBER APOS 30 DIAS DO VENCIMENTO.                                                                                                                                                                                                         01062400000000000000106240000000000000       0090339900010863103719062411000060
100000000000000000000009033990001086300000000000000000000000010002020090102906241200000000002            2  01901029062410062400000002597370000000001N010624000000000000000000000000000000000000000000000000000000000000000100090102983887JERONYMO MOREIRA NERY NETO              AVENIDA PRESIDENTE CASTELO BRANCO - 3.70            11702700                                                            000062
2SR. CAIXA, APOS O VENCIMENTO COBRAR 2% DE MULTA                                 NAO RECEBER APOS 30 DIAS DO VENCIMENTO.                                                                                                                                                                                                         01062400000000000000106240000000000000       0090339900010863901029062412000063
100000000000000000000009033990001086300000000000000000000000010002020038609906241800000000002            2  01386099062410062400000003268930000000001N010624000000000000000000000000000000000000000000000000000000000000000100038609977854RODRIGO CACCAOS CUBINHETZ               RUA MANUEL DO COUTO REIS - 39 - JARDIM I            03153080                                                            000065
2SR. CAIXA, APOS O VENCIMENTO COBRAR 2% DE MULTA                                 NAO RECEBER APOS 30 DIAS DO VENCIMENTO.                                                                                                                                                                                                         01062400000000000000106240000000000000       0090339900010863386099062418000066
100000000000000000000009033990001086300000000000000000000000010002020001820006241700000000002            2  01018200062410062400000002831180000000001N010624000000000000000000000000000000000000000000000000000000000000000100001820082822JOSE MANUEL ALEGRE DA SILVA E SOUSA     PRACA JAPAO - 19 - AVIACAO - PRAIA GRAND            11702640                                                            000068
2SR. CAIXA, APOS O VENCIMENTO COBRAR 2% DE MULTA                                 NAO RECEBER APOS 30 DIAS DO VENCIMENTO.                                                                                                                                                                                                         01062400000000000000106240000000000000       0090339900010863018200062417000069
100000000000000000000009033990001086300000000000000000000000010002020003439906241600000000002            2  01034399062410062400000002544340000000001N010624000000000000000000000000000000000000000000000000000000000000000100003439966852BEN HUR FREDI                           RUA VICENTA ROBLES - 177 - JARDIM ADRIAN            07135300                                                            000071
2SR. CAIXA, APOS O VENCIMENTO COBRAR 2% DE MULTA                                 NAO RECEBER APOS 30 DIAS DO VENCIMENTO.                                                                                                                                                                                                         01062400000000000000106240000000000000       0090339900010863034399062416000072
9                                                                                                                                                                                                                                                                                                                                                                                                         000073