01REMESSA01COBRANCA       00000000000005316116AIRES CONSTRUTORA E INCORPORAD237BRADESCO       010222        MX0000187                                                                                                                                                                                                                                                                                     000001
100000000000000000000009002800441612000000000000000000000000010002100003865702221700000000002            2  01038657022210022200000003743180000000001N010222000000000000000000000000000000000000000000000000000000000000000100003865776841FRANCISCO JOSE ROCCO                    AVENIDA PADRES OLIVETANOS - 215 AP.83 -             03648000                                                            000002
2SR. CAIXA, APOS O VENCIMENTO COBRAR 10% DE MULTA                                NAO RECEBER APOS 30 DIAS DO VENCIMENTO.                                                                                                                                                                                                         01022200000000000000102220000000000000       0090028004416120038657022217000003
100000000000000000000009002800441612000000000000000000000000010002100028309502221300000000002            2  01283095022210022200000003338050000000001N010222000000000000000000000000000000000000000000000000000000000000000100028309524803DEISE RIBEIRO BARBOSA                   RUA CANDIDO JOSE DE ANDRADE - 173 - ERME            03807030                                                            000005
2SR. CAIXA, APOS O VENCIMENTO COBRAR 10% DE MULTA                                NAO RECEBER APOS 30 DIAS DO VENCIMENTO.                                                                                                                                                                                                         01022200000000000000102220000000000000       0090028004416120283095022213000006
100000000000000000000009002800441612000000000000000000000000010002100011277902221300000000002            2  01112779022210022200000003961910000000001N010222000000000000000000000000000000000000000000000000000000000000000100011277908893JOSE AILTON LOPES DE AZEVEDO            RUA MAESTRO JOAO SEPE - 19 - JARDIM MARI            04181030                                                            000008
2SR. CAIXA, APOS O VENCIMENTO COBRAR 10% DE MULTA                                NAO RECEBER APOS 30 DIAS DO VENCIMENTO.                                                                                                                                                                                                         01022200000000000000102220000000000000       0090028004416120112779022213000009
100000000000000000000009002800441612000000000000000000000000010002100025215102221000000000002            2  01252151022210022200000002987750000000001N010222000000000000000000000000000000000000000000000000000000000000000100025215106886KLEBER LUIZ DOS SANTOS                  RUA MONTE CASTELO - 262 AP.15 - AVIACAO             11702720                                                            000011
2SR. CAIXA, APOS O VENCIMENTO COBRAR 10% DE MULTA                                NAO RECEBER APOS 30 DIAS DO VENCIMENTO.                                                                                                                                                                                                         01022200000000000000102220000000000000       0090028004416120252151022210000012
100000000000000000000009002800441612000000000000000000000000010002100090206702221800000000002            2  01902067022210022200000003337210000000001N010222000000000000000000000000000000000000000000000000000000000000000100090206789815NEREIDE RODRIGUES FERREIRA              AVENIDA PADRE ESTANISLAU DE CAMPOS - 205            03590060                                                            000014
2SR. CAIXA, APOS O VENCIMENTO COBRAR 10% DE MULTA                                NAO RECEBER APOS 30 DIAS DO VENCIMENTO.                                                                                                                                                                                                         01022200000000000000102220000000000000       0090028004416120902067022218000015
100000000000000000000009002800441612000000000000000000000000010002100029150702221600000000002            2  01291507022210022200000003906250000000001N010222000000000000000000000000000000000000000000000000000000000000000100029150742833ANA DEISE SANTOS DE ALMEIDA             RUA MONTE CASTELO - 296 AP.121 - AVIACAO            11702720                                                            000017
2SR. CAIXA, APOS O VENCIMENTO COBRAR 10% DE MULTA                                NAO RECEBER APOS 30 DIAS DO VENCIMENTO.                                                                                                                                                                                                         01022200000000000000102220000000000000       0090028004416120291507022216000018
100000000000000000000009002800441612000000000000000000000000010002100000811702221100000000002            2  01008117022210022200000003217510000000001N010222000000000000000000000000000000000000000000000000000000000000000100000811752801SERGIO BUENO DA SILVA                   RUA MONTE CASTELO - 262 AP.75 - AVIACAO             11702720                                                            000020
2SR. CAIXA, APOS O VENCIMENTO COBRAR 10% DE MULTA                                NAO RECEBER APOS 30 DIAS DO VENCIMENTO.                                                                                                                                                                                                         01022200000000000000102220000000000000       0090028004416120008117022211000021
100000000000000000000009002800441612000000000000000000000000010002100018344802221800000000002            2  01183448022210022200000004375020000000001N010222000000000000000000000000000000000000000000000000000000000000000100018344803888MARCELO BERNARDO                        RUA MONTE CASTELO - 262 AP.84 - AVIACAO             11702720                                                            000023
2SR. CAIXA, APOS O VENCIMENTO COBRAR 10% DE MULTA                                NAO RECEBER APOS 30 DIAS DO VENCIMENTO.                                                                                                                                                                                                         01022200000000000000102220000000000000       0090028004416120183448022218000024
100000000000000000000009002800441612000000000000000000000000010002100031803802221300000000002            2  01318038022210022200000003533050000000001N010222000000000000000000000000000000000000000000000000000000000000000100031803864877ELEILSON FELIPPE SANTOS                 RUA SANTA GREGORIA - 193 - CIDADE DUTRA             04806030                                                            000026
2SR. CAIXA, APOS O VENCIMENTO COBRAR 10% DE MULTA                                NAO RECEBER APOS 30 DIAS DO VENCIMENTO.                                                                                                                                                                                                         01022200000000000000102220000000000000       0090028004416120318038022213000027
100000000000000000000009002800441612000000000000000000000000010002100063064502221800000000002            2  01630645022210022200000004210260000000001N010222000000000000000000000000000000000000000000000000000000000000000100063064537849ANTONIO APARECIDO DA SILVA DESTEFANO    RUA PROFESSOR TEODORO BRAGA - 46 - VILA             02966020                                                            000029
2SR. CAIXA, APOS O VENCIMENTO COBRAR 10% DE MULTA                                NAO RECEBER APOS 30 DIAS DO VENCIMENTO.                                                                                                                                                                                                         01022200000000000000102220000000000000       0090028004416120630645022218000030
100000000000000000000009002800441612000000000000000000000000010002100005920502221700000000002            2  01059205022210022200000002451240000000001N010222000000000000000000000000000000000000000000000000000000000000000100005920579846SONIA MARIA VALDO POLLO                 RUA PALMIRA CERVI BARBARO - 797 - CIDADE            13214370                                                            000032
2SR. CAIXA, APOS O VENCIMENTO COBRAR 10% DE MULTA                                NAO RECEBER APOS 30 DIAS DO VENCIMENTO.                                                                                                                                                                                                         01022200000000000000102220000000000000       0090028004416120059205022217000033
100000000000000000000009002800441612000000000000000000000000010002100002494102221800000000002            2  01024941022210022200000003685540000000001N010222000000000000000000000000000000000000000000000000000000000000000100002494107881CIRO FRANCISCO MARCHI DURIGON           RUA MONTE CASTELO - 262 AP.115 - AVIACAO            11702720                                                            000035
2SR. CAIXA, APOS O VENCIMENTO COBRAR 10% DE MULTA                                NAO RECEBER APOS 30 DIAS DO VENCIMENTO.                                                                                                                                                                                                         01022200000000000000102220000000000000       0090028004416120024941022218000036
100000000000000000000009002800441612000000000000000000000000010002100007002302221500000000002            2  01070023022210022200000003623070000000001N010222000000000000000000000000000000000000000000000000000000000000000100007002345869DOMINGOS DE BRITO GALVAO                RUA MONTE CASTELO - 262 AP.44 - AVIACAO             11702720                                                            000038
2SR. CAIXA, APOS O VENCIMENTO COBRAR 10% DE MULTA                                NAO RECEBER APOS 30 DIAS DO VENCIMENTO.                                                                                                                                                                                                         01022200000000000000102220000000000000       0090028004416120070023022215000039
100000000000000000000009002800441612000000000000000000000000010002100016299002221900000000002            2  01162990022210022200000003492640000000001N010222000000000000000000000000000000000000000000000000000000000000000100016299008857FERNANDO CESAR CARVALHO                 AVENIDA MARCONDES DE BRITO - 1340 AP.74             03509000                                                            000041
2SR. CAIXA, APOS O VENCIMENTO COBRAR 10% DE MULTA                                NAO RECEBER APOS 30 DIAS DO VENCIMENTO.                                                                                                                                                                                                         01022200000000000000102220000000000000       0090028004416120162990022219000042
100000000000000000000009002800441612000000000000000000000000010002100065895302221200000000002            2  01658953022210022200000002136800000000001N010222000000000000000000000000000000000000000000000000000000000000000100065895304834MARINHO BARBOSA CUNHA                   AVENIDA EDU CHAVES - 639 AP.43 - PARQUE             02229000                                                            000044
2SR. CAIXA, APOS O VENCIMENTO COBRAR 10% DE MULTA                                NAO RECEBER APOS 30 DIAS DO VENCIMENTO.                                                                                                                                                                                                         01022200000000000000102220000000000000       0090028004416120658953022212000045
100000000000000000000009002800441612000000000000000000000000010002100055975302221P00000000002            2  01559753022210022200000000797580000000001N010222000000000000000000000000000000000000000000000000000000000000000100055975372887BENEVENUTO THEODORO DA SILVA NETO       RUA MONTE CASTELO - 296 AP.63 - AVIACAO             11702720                                                            000047
2SR. CAIXA, APOS O VENCIMENTO COBRAR 10% DE MULTA                                NAO RECEBER APOS 30 DIAS DO VENCIMENTO.                                                                                                                                                                                                         01022200000000000000102220000000000000       009002800441612055975302221P000048
9                                                                                                                                                                                                                                                                                                                                                                                                         000049