01REMESSA01COBRANCA       00000000000004991781AIRES CONSTRUTORA E INCORPORAD237BRADESCO       010620        MX0000142                                                                                                                                                                                                                                                                                     000001
100000000000000000000009077090006612500000000000000000000000010002100000455406201400000000002            2  01004554062010062000000003283150000000001N010620000000000000000000000000000000000000000000000000000000000000000100000455495831PAULO HENRIQUE LOURENCO                 RUA FIGUEIRA  - 237 - CIDADE DAS FLORES             06184060                                                            000002
2SR. CAIXA, APOS O VENCIMENTO COBRAR 10% DE MULTA                                NAO RECEBER APOS 30 DIAS DO VENCIMENTO.                                                                                                                                                                                                         01062000000000000000106200000000000000       0090770900066125004554062014000003
100000000000000000000009077090006612500000000000000000000000010002100006140006201500000000002            2  01061400062010062000000004071590000000001N010620000000000000000000000000000000000000000000000000000000000000000100006140049857MARIA ALBANI DA SILVA EUSEBIO           RUA ORLANDO SEGALA - 108 - JARDIM ADRIAN            07135190                                                            000005
2SR. CAIXA, APOS O VENCIMENTO COBRAR 10% DE MULTA                                NAO RECEBER APOS 30 DIAS DO VENCIMENTO.                                                                                                                                                                                                         01062000000000000000106200000000000000       0090770900066125061400062015000006
100000000000000000000009077090006612500000000000000000000000010002100007768706201400000000002            2  01077687062010062000000004136020000000001N010620000000000000000000000000000000000000000000000000000000000000000100007768713826FATIMA LUZIA BIANCHI                    RUA MONTE CASTELO - 295 AP.121 - AVIACAO            11702720                                                            000008
2SR. CAIXA, APOS O VENCIMENTO COBRAR 10% DE MULTA                                NAO RECEBER APOS 30 DIAS DO VENCIMENTO.                                                                                                                                                                                                         01062000000000000000106200000000000000       0090770900066125077687062014000009
100000000000000000000009077090006612500000000000000000000000010002100085416906201500000000002            2  01854169062010062000000003454140000000001N010620000000000000000000000000000000000000000000000000000000000000000100085416940891ANTONIO DE SOUSA MENDES                 RUA MONTE CASTELO - 296 AP.52 - AVIACAO             11702720                                                            000011
2SR. CAIXA, APOS O VENCIMENTO COBRAR 10% DE MULTA                                NAO RECEBER APOS 30 DIAS DO VENCIMENTO.                                                                                                                                                                                                         01062000000000000000106200000000000000       0090770900066125854169062015000012
100000000000000000000009077090006612500000000000000000000000010002100005678006201900000000002            2  01056780062010062000000003597410000000001N010620000000000000000000000000000000000000000000000000000000000000000100005678057863FABIO MOREIRA CAMPOS                    RUA FLORENCIO DA SILVA - 284 - VILA LIBA            03738070                                                            000014
2SR. CAIXA, APOS O VENCIMENTO COBRAR 10% DE MULTA                                NAO RECEBER APOS 30 DIAS DO VENCIMENTO.                                                                                                                                                                                                         01062000000000000000106200000000000000       0090770900066125056780062019000015
100000000000000000000009077090006612500000000000000000000000010002100016348206201500000000002            2  01163482062010062000000003509540000000001N010620000000000000000000000000000000000000000000000000000000000000000100016348237885AILTON LORENA                           AVENIDA BRASILIA - 194 - BELA VISTA - SA            09180260                                                            000017
2SR. CAIXA, APOS O VENCIMENTO COBRAR 10% DE MULTA                                NAO RECEBER APOS 30 DIAS DO VENCIMENTO.                                                                                                                                                                                                         01062000000000000000106200000000000000       0090770900066125163482062015000018
100000000000000000000009077090006612500000000000000000000000010002100081218406201900000000002            2  01812184062010062000000003387140000000001N010620000000000000000000000000000000000000000000000000000000000000000100081218486953OSMAR DA COSTA - A/C RITA GONCALVES     AVENIDA ALMEIDA JUNIOR - 717 - SAMAMBAIA            11713050                                                            000020
2SR. CAIXA, APOS O VENCIMENTO COBRAR 10% DE MULTA                                NAO RECEBER APOS 30 DIAS DO VENCIMENTO.                                                                                                                                                                                                         01062000000000000000106200000000000000       0090770900066125812184062019000021
100000000000000000000009077090006612500000000000000000000000010002100004981806201100000000002            2  01049818062010062000000003847190000000001N010620000000000000000000000000000000000000000000000000000000000000000100004981884850SILVIO PAULINO GONCALVES                MARIA DE CASTRO MESQUITA - 84 AP.103 BLO            07110040                                                            000023
2SR. CAIXA, APOS O VENCIMENTO COBRAR 10% DE MULTA                                NAO RECEBER APOS 30 DIAS DO VENCIMENTO.                                                                                                                                                                                                         01062000000000000000106200000000000000       0090770900066125049818062011000024
100000000000000000000009077090006612500000000000000000000000010002100019282506201600000000002            2  01192825062010062000000002525270000000001N010620000000000000000000000000000000000000000000000000000000000000000100019282546837FABIO LEANDRO DE FREITAS ASSIS          RUA BASSIM NAGIB TRABULSI - 97 - PONTA D            11030540                                                            000026
2SR. CAIXA, APOS O VENCIMENTO COBRAR 10% DE MULTA                                NAO RECEBER APOS 30 DIAS DO VENCIMENTO.                                                                                                                                                                                                         01062000000000000000106200000000000000       0090770900066125192825062016000027
100000000000000000000009077090006612500000000000000000000000010002100008423406201P00000000002            2  01084234062010062000000003509470000000001N010620000000000000000000000000000000000000000000000000000000000000000100008423485811EDSON LUIZ NUNES                        RUA NOEMIA PEDROSO BUENO - 41 - JARDIM G            09360440                                                            000029
2SR. CAIXA, APOS O VENCIMENTO COBRAR 10% DE MULTA                                NAO RECEBER APOS 30 DIAS DO VENCIMENTO.                                                                                                                                                                                                         01062000000000000000106200000000000000       009077090006612508423406201P000030
100000000000000000000009077090006612500000000000000000000000010002100003865706201400000000002            2  01038657062010062000000003383730000000001N010620000000000000000000000000000000000000000000000000000000000000000100003865776841FRANCISCO JOSE ROCCO                    RUA FABIO JOSE BEZERRA - 130 AP.86 - PAR            03805000                                                            000032
2SR. CAIXA, APOS O VENCIMENTO COBRAR 10% DE MULTA                                NAO RECEBER APOS 30 DIAS DO VENCIMENTO.                                                                                                                                                                                                         01062000000000000000106200000000000000       0090770900066125038657062014000033
100000000000000000000009077090006612500000000000000000000000010002100028309506201000000000002            2  01283095062010062000000003017500000000001N010620000000000000000000000000000000000000000000000000000000000000000100028309524803DEISE RIBEIRO BARBOSA                   RUA CANDIDO JOSE DE ANDRADE - 173 - ERME            03807030                                                            000035
2SR. CAIXA, APOS O VENCIMENTO COBRAR 10% DE MULTA                                NAO RECEBER APOS 30 DIAS DO VENCIMENTO.                                                                                                                                                                                                         01062000000000000000106200000000000000       0090770900066125283095062010000036
100000000000000000000009077090006612500000000000000000000000010002100011277906201000000000002            2  01112779062010062000000003581440000000001N010620000000000000000000000000000000000000000000000000000000000000000100011277908893JOSE AILTON LOPES DE AZEVEDO            RUA MAESTRO JOAO SEPE - 19 - JARDIM MARI            04181030                                                            000038
2SR. CAIXA, APOS O VENCIMENTO COBRAR 10% DE MULTA                                NAO RECEBER APOS 30 DIAS DO VENCIMENTO.                                                                                                                                                                                                         01062000000000000000106200000000000000       0090770900066125112779062010000039
100000000000000000000009077090006612500000000000000000000000010002100025215106201800000000002            2  01252151062010062000000002700850000000001N010620000000000000000000000000000000000000000000000000000000000000000100025215106886KLEBER LUIZ DOS SANTOS                  RUA MONTE CASTELO - 262 AP.15 - AVIACAO             11702720                                                            000041
2SR. CAIXA, APOS O VENCIMENTO COBRAR 10% DE MULTA                                NAO RECEBER APOS 30 DIAS DO VENCIMENTO.                                                                                                                                                                                                         01062000000000000000106200000000000000       0090770900066125252151062018000042
100000000000000000000009077090006612500000000000000000000000010002100090206706201500000000002            2  01902067062010062000000003016750000000001N010620000000000000000000000000000000000000000000000000000000000000000100090206789815NEREIDE RODRIGUES FERREIRA              AVENIDA PADRE ESTANISLAU DE CAMPOS - 205            03590060                                                            000044
2SR. CAIXA, APOS O VENCIMENTO COBRAR 10% DE MULTA                                NAO RECEBER APOS 30 DIAS DO VENCIMENTO.                                                                                                                                                                                                         01062000000000000000106200000000000000       0090770900066125902067062015000045
100000000000000000000009077090006612500000000000000000000000010002100029150706201300000000002            2  01291507062010062000000003531150000000001N010620000000000000000000000000000000000000000000000000000000000000000100029150742833ANA DEISE SANTOS DE ALMEIDA             RUA MONTE CASTELO - 296 AP.121 - AVIACAO            11702720                                                            000047
2SR. CAIXA, APOS O VENCIMENTO COBRAR 10% DE MULTA                                NAO RECEBER APOS 30 DIAS DO VENCIMENTO.                                                                                                                                                                                                         01062000000000000000106200000000000000       0090770900066125291507062013000048
100000000000000000000009077090006612500000000000000000000000010002100000811706201900000000002            2  01008117062010062000000002908540000000001N010620000000000000000000000000000000000000000000000000000000000000000100000811752801SERGIO BUENO DA SILVA                   RUA MONTE CASTELO - 262 AP.75 - AVIACAO             11702720                                                            000050
2SR. CAIXA, APOS O VENCIMENTO COBRAR 10% DE MULTA                                NAO RECEBER APOS 30 DIAS DO VENCIMENTO.                                                                                                                                                                                                         01062000000000000000106200000000000000       0090770900066125008117062019000051
100000000000000000000009077090006612500000000000000000000000010002100018344806201500000000002            2  01183448062010062000000003954910000000001N010620000000000000000000000000000000000000000000000000000000000000000100018344803888MARCELO BERNARDO                        RUA MONTE CASTELO - 262 AP.84 - AVIACAO             11702720                                                            000053
2SR. CAIXA, APOS O VENCIMENTO COBRAR 10% DE MULTA                                NAO RECEBER APOS 30 DIAS DO VENCIMENTO.                                                                                                                                                                                                         01062000000000000000106200000000000000       0090770900066125183448062015000054
100000000000000000000009077090006612500000000000000000000000010002100004004306201200000000002            2  01040043062010062000000005183610000000001N010620000000000000000000000000000000000000000000000000000000000000000100004004328896VANDERLEI  MARTINS DE ALMEIDA           RUA MONSENHOR TABOSA - 03 - PARQUE CISPE            03819300                                                            000056
2SR. CAIXA, APOS O VENCIMENTO COBRAR 10% DE MULTA                                NAO RECEBER APOS 30 DIAS DO VENCIMENTO.                                                                                                                                                                                                         01062000000000000000106200000000000000       0090770900066125040043062012000057
100000000000000000000009077090006612500000000000000000000000010002100031803806201000000000002            2  01318038062010062000000003193770000000001N010620000000000000000000000000000000000000000000000000000000000000000100031803864877ELEILSON FELIPPE SANTOS                 RUA SANTA GREGORIA - 193 - CIDADE DUTRA             04806030                                                            000059
2SR. CAIXA, APOS O VENCIMENTO COBRAR 10% DE MULTA                                NAO RECEBER APOS 30 DIAS DO VENCIMENTO.                                                                                                                                                                                                         01062000000000000000106200000000000000       0090770900066125318038062010000060
100000000000000000000009077090006612500000000000000000000000010002100026032606201900000000002            2  01260326062010062000000002197840000000001N010620000000000000000000000000000000000000000000000000000000000000000100026032632857MARILA LOPES PEREIRA                    AVENIDA LUIZ GUSHIKEN - 1761 AP.13 BL.05            05831315                                                            000062
2SR. CAIXA, APOS O VENCIMENTO COBRAR 10% DE MULTA                                NAO RECEBER APOS 30 DIAS DO VENCIMENTO.                                                                                                                                                                                                         01062000000000000000106200000000000000       0090770900066125260326062019000063
100000000000000000000009077090006612500000000000000000000000010002100010107706201000000000002            2  01101077062010062000000003647260000000001N010620000000000000000000000000000000000000000000000000000000000000000100010107711834VALDEMAR FECCHIO                        RUA DEPUTADO EMILIO CARLOS - 355 AP.21-B            06028010                                                            000065
2SR. CAIXA, APOS O VENCIMENTO COBRAR 10% DE MULTA                                NAO RECEBER APOS 30 DIAS DO VENCIMENTO.                                                                                                                                                                                                         01062000000000000000106200000000000000       0090770900066125101077062010000066
100000000000000000000009077090006612500000000000000000000000010002100003330706201P00000000002            2  01033307062010062000000004691970000000001N010620000000000000000000000000000000000000000000000000000000000000000100003330791837MARLI DA SILVA BARBOSA                  RUA GLICERIO CERQUEIRA LEITE - 151 - JAR            03675040                                                            000068
2SR. CAIXA, APOS O VENCIMENTO COBRAR 10% DE MULTA                                NAO RECEBER APOS 30 DIAS DO VENCIMENTO.                                                                                                                                                                                                         01062000000000000000106200000000000000       009077090006612503330706201P000069
100000000000000000000009077090006612500000000000000000000000010002100005920506201400000000002            2  01059205062010062000000002215850000000001N010620000000000000000000000000000000000000000000000000000000000000000100005920579846SONIA MARIA VALDO POLLO                 RUA PALMIRA CERVI BARBARO - 797 - CIDADE            13214370                                                            000071
2SR. CAIXA, APOS O VENCIMENTO COBRAR 10% DE MULTA                                NAO RECEBER APOS 30 DIAS DO VENCIMENTO.                                                                                                                                                                                                         01062000000000000000106200000000000000       0090770900066125059205062014000072
100000000000000000000009077090006612500000000000000000000000010002100002494106201500000000002            2  01024941062010062000000003331630000000001N010620000000000000000000000000000000000000000000000000000000000000000100002494107881CIRO FRANCISCO MARCHI DURIGON           RUA MONTE CASTELO - 262 AP.115 - AVIACAO            11702720                                                            000074
2SR. CAIXA, APOS O VENCIMENTO COBRAR 10% DE MULTA                                NAO RECEBER APOS 30 DIAS DO VENCIMENTO.                                                                                                                                                                                                         01062000000000000000106200000000000000       0090770900066125024941062015000075
100000000000000000000009077090006612500000000000000000000000010002100007002306201200000000002            2  01070023062010062000000003275140000000001N010620000000000000000000000000000000000000000000000000000000000000000100007002345869DOMINGOS DE BRITO GALVAO                RUA MONTE CASTELO - 262 AP.44 - AVIACAO             11702720                                                            000077
2SR. CAIXA, APOS O VENCIMENTO COBRAR 10% DE MULTA                                NAO RECEBER APOS 30 DIAS DO VENCIMENTO.                                                                                                                                                                                                         01062000000000000000106200000000000000       0090770900066125070023062012000078
100000000000000000000009077090006612500000000000000000000000010002100016299006201600000000002            2  01162990062010062000000003157250000000001N010620000000000000000000000000000000000000000000000000000000000000000100016299008857FERNANDO CESAR CARVALHO                 AVENIDA MARCONDES DE BRITO - 1340 AP.74             03509000                                                            000080
2SR. CAIXA, APOS O VENCIMENTO COBRAR 10% DE MULTA                                NAO RECEBER APOS 30 DIAS DO VENCIMENTO.                                                                                                                                                                                                         01062000000000000000106200000000000000       0090770900066125162990062016000081
100000000000000000000009077090006612500000000000000000000000010002100031082806201P00000000002            2  01310828062010062000000003172560000000001N010620000000000000000000000000000000000000000000000000000000000000000100031082898880VANESSA DOS SANTOS NEIVA                RUA MONTE CASTELO - 296 AP.33 - BAIRRO A            11702720                                                            000083
2SR. CAIXA, APOS O VENCIMENTO COBRAR 10% DE MULTA                                NAO RECEBER APOS 30 DIAS DO VENCIMENTO.                                                                                                                                                                                                         01062000000000000000106200000000000000       009077090006612531082806201P000084
100000000000000000000009077090006612500000000000000000000000010002100065895306201P00000000002            2  01658953062010062000000001931620000000001N010620000000000000000000000000000000000000000000000000000000000000000100065895304834MARINHO BARBOSA CUNHA                   AVENIDA EDU CHAVES - 639 AP.43 - PARQUE             02229000                                                            000086
2SR. CAIXA, APOS O VENCIMENTO COBRAR 10% DE MULTA                                NAO RECEBER APOS 30 DIAS DO VENCIMENTO.                                                                                                                                                                                                         01062000000000000000106200000000000000       009077090006612565895306201P000087
9                                                                                                                                                                                                                                                                                                                                                                                                         000088