01REMESSA01COBRANCA       00000000000008017025HB SANTOS CONSTRUTORA E INCORP237BRADESCO       031220        MX0000118                                                                                                                                                                                                                                                                                     000001
100000000000000000000009033990000627000000000000000000000000010002020025035112201200000000002            2  01250351122024122000000002356830000000001N031220000000000000000000000000000000000000000000000000000000000000000100025035170802WANDERSON LUIS DE CARVALHO              RUA JOAQUIM GONCALVES ROCHA - 302 - JARD            02859030                                                            000002
2SR. CAIXA, APOS O VENCIMENTO COBRAR 2% DE MULTA                                 NAO RECEBER APOS 30 DIAS DO VENCIMENTO.                                                                                                                                                                                                         03122000000000000000312200000000000000       0090339900006270250351122012000003
100000000000000000000009033990000627000000000000000000000000010002020007294312201P00000000002            2  01072943122024122000000003169980000000001N031220000000000000000000000000000000000000000000000000000000000000000100007294351805CLAUDENIR APARECIDO VACARI              RUA CARLOS JOSE BORSTENS - 50 AP.93 - AV            11702750                                                            000005
2SR. CAIXA, APOS O VENCIMENTO COBRAR 2% DE MULTA                                 NAO RECEBER APOS 30 DIAS DO VENCIMENTO.                                                                                                                                                                                                         03122000000000000000312200000000000000       009033990000627007294312201P000006
100000000000000000000009033990000627000000000000000000000000010002020042976112201P00000000002            2  01429761122024122000000003203260000000001N031220000000000000000000000000000000000000000000000000000000000000000100042976111634ACACIO TOSCANO BONDANCA                 RUA CARLOS JOSE BORSTENS - 50 AP.103 - A            11702750                                                            000008
2SR. CAIXA, APOS O VENCIMENTO COBRAR 2% DE MULTA                                 NAO RECEBER APOS 30 DIAS DO VENCIMENTO.                                                                                                                                                                                                         03122000000000000000312200000000000000       009033990000627042976112201P000009
100000000000000000000009033990000627000000000000000000000000010002020035438012201300000000002            2  01354380122024122000000002705310000000001N031220000000000000000000000000000000000000000000000000000000000000000100035438022836ALESSANDRO FARACO DOS SANTOS            RUA PEDRO POMAR  - 145 - JARDIM ELISA MA            02875020                                                            000011
2SR. CAIXA, APOS O VENCIMENTO COBRAR 2% DE MULTA                                 NAO RECEBER APOS 30 DIAS DO VENCIMENTO.                                                                                                                                                                                                         03122000000000000000312200000000000000       0090339900006270354380122013000012
100000000000000000000009033990000627000000000000000000000000010002020007525012201500000000002            2  01075250122024122000000003545760000000001N031220000000000000000000000000000000000000000000000000000000000000000100007525032866FERNANDO RIBEIRO                        RUA CARLOS JOSE BORSTENS - 50 AP.32 - AV            11702750                                                            000014
2SR. CAIXA, APOS O VENCIMENTO COBRAR 2% DE MULTA                                 NAO RECEBER APOS 30 DIAS DO VENCIMENTO.                                                                                                                                                                                                         03122000000000000000312200000000000000       0090339900006270075250122015000015
100000000000000000000009033990000627000000000000000000000000010002020005071412201000000000002            2  01050714122024122000000003110300000000001N031220000000000000000000000000000000000000000000000000000000000000000100005071481855ERIBALDO SANTANA CARVALHO               RUA HONDURAS - 477 - PARQUE DAS AMERICAS            09351070                                                            000017
2SR. CAIXA, APOS O VENCIMENTO COBRAR 2% DE MULTA                                 NAO RECEBER APOS 30 DIAS DO VENCIMENTO.                                                                                                                                                                                                         03122000000000000000312200000000000000       0090339900006270050714122010000018
100000000000000000000009033990000627000000000000000000000000010002020002841712201400000000002            2  01028417122024122000000002909980000000001N031220000000000000000000000000000000000000000000000000000000000000000100002841756416LUCIANA PINHEIRO DE ASSIS NUNES         RUA RIO ACIMA - 81 - RIACHO GRANDE - SAO            09830100                                                            000020
2SR. CAIXA, APOS O VENCIMENTO COBRAR 2% DE MULTA                                 NAO RECEBER APOS 30 DIAS DO VENCIMENTO.                                                                                                                                                                                                         03122000000000000000312200000000000000       0090339900006270028417122014000021
100000000000000000000009033990000627000000000000000000000000010002020084302012201300000000002            2  01843020122024122000000002923940000000001N031220000000000000000000000000000000000000000000000000000000000000000100084302097868FAUSTO TADEU VILOR                      RUA ANTONIO TAVARES - 466 - BAIRRO CAMBU            01542010                                                            000023
2SR. CAIXA, APOS O VENCIMENTO COBRAR 2% DE MULTA                                 NAO RECEBER APOS 30 DIAS DO VENCIMENTO.                                                                                                                                                                                                         03122000000000000000312200000000000000       0090339900006270843020122013000024
100000000000000000000009033990000627000000000000000000000000010002020028804212201300000000002            2  01288042122024122000000002872810000000001N031220000000000000000000000000000000000000000000000000000000000000000100028804202882GILBERTO FABIANO CABRAL DE CAMARGO      RUA CARLOS JOSE BORSTENS - 50 AP.44 - AV            11702750                                                            000026
2SR. CAIXA, APOS O VENCIMENTO COBRAR 2% DE MULTA                                 NAO RECEBER APOS 30 DIAS DO VENCIMENTO.                                                                                                                                                                                                         03122000000000000000312200000000000000       0090339900006270288042122013000027
100000000000000000000009033990000627000000000000000000000000010002020000991712201600000000002            2  01009917122024122000000002803960000000001N031220000000000000000000000000000000000000000000000000000000000000000100000991748808JAILSON BORGES DE ANDRADE               RUA IPIOBUNA - 45 - JARDIM CUMBICA - GUA            07240040                                                            000029
2SR. CAIXA, APOS O VENCIMENTO COBRAR 2% DE MULTA                                 NAO RECEBER APOS 30 DIAS DO VENCIMENTO.                                                                                                                                                                                                         03122000000000000000312200000000000000       0090339900006270009917122016000030
100000000000000000000009033990000627000000000000000000000000010002020022151612201200000000002            2  01221516122024122000000002787680000000001N031220000000000000000000000000000000000000000000000000000000000000000100022151666816SAMIR LIMA DE ARAUJO                    AVENIDA GUARAPIRANGA - 2616 AP.131 BL.14            04902005                                                            000032
2SR. CAIXA, APOS O VENCIMENTO COBRAR 2% DE MULTA                                 NAO RECEBER APOS 30 DIAS DO VENCIMENTO.                                                                                                                                                                                                         03122000000000000000312200000000000000       0090339900006270221516122012000033
100000000000000000000009033990000627000000000000000000000000010002020022313112201400000000002            2  01223131122026122000000002144390000000001N031220000000000000000000000000000000000000000000000000000000000000000100022313116824ROSA MARIA BRITO DA SILVA               RUA SERVIDAO DE SAO MARCOS - 113 - JARDI            04930300                                                            000035
2SR. CAIXA, APOS O VENCIMENTO COBRAR 2% DE MULTA                                 NAO RECEBER APOS 30 DIAS DO VENCIMENTO.                                                                                                                                                                                                         03122000000000000000312200000000000000       0090339900006270223131122014000036
100000000000000000000009033990000627000000000000000000000000010002020027538012201600000000002            2  01275380122026122000000002151880000000001N031220000000000000000000000000000000000000000000000000000000000000000100027538087249MARA LUCIA MENEZES DA COSTA             RUA LEILA  - 183 - ITAQUERA - SAO PAULO             08240020                                                            000038
2SR. CAIXA, APOS O VENCIMENTO COBRAR 2% DE MULTA                                 NAO RECEBER APOS 30 DIAS DO VENCIMENTO.                                                                                                                                                                                                         03122000000000000000312200000000000000       0090339900006270275380122016000039
100000000000000000000009033990000627000000000000000000000000010002020031278412201200000000002            2  01312784122024122000000002692990000000001N031220000000000000000000000000000000000000000000000000000000000000000100031278411836JEFFERSON DE PIERI PIRES ZAMUNER        RUA MANOEL ARCE - 277 - PARQUE BANCARIO             03922150                                                            000041
2SR. CAIXA, APOS O VENCIMENTO COBRAR 2% DE MULTA                                 NAO RECEBER APOS 30 DIAS DO VENCIMENTO.                                                                                                                                                                                                         03122000000000000000312200000000000000       0090339900006270312784122012000042
100000000000000000000009033990000627000000000000000000000000010002020019185712201400000000002            2  01191857122026122000000001958240000000001N031220000000000000000000000000000000000000000000000000000000000000000100019185769800AGUINALDO PESSOA DE LIMA                RUA JANUARIO ZINGARO - 252 AP.303 BL.04             05794300                                                            000044
2SR. CAIXA, APOS O VENCIMENTO COBRAR 2% DE MULTA                                 NAO RECEBER APOS 30 DIAS DO VENCIMENTO.                                                                                                                                                                                                         03122000000000000000312200000000000000       0090339900006270191857122014000045
100000000000000000000009033990000627000000000000000000000000010002020033303612201500000000002            2  01333036122026122000000002109200000000001N031220000000000000000000000000000000000000000000000000000000000000000100033303645809JESSICA DA SILVA FREITAS                RUA ARILDO VALADAO - 120 - JARDIM GUAEMB            04814600                                                            000047
2SR. CAIXA, APOS O VENCIMENTO COBRAR 2% DE MULTA                                 NAO RECEBER APOS 30 DIAS DO VENCIMENTO.                                                                                                                                                                                                         03122000000000000000312200000000000000       0090339900006270333036122015000048
100000000000000000000009033990000627000000000000000000000000010002020004824412201400000000002            2  01048244122026122000000002125910000000001N031220000000000000000000000000000000000000000000000000000000000000000100004824443806ROSIMEIRE CLARA FERREIRA REZENDE        RUA JOSE CALIXTO DO CARMO - 286 AP.43 -             11702690                                                            000050
2SR. CAIXA, APOS O VENCIMENTO COBRAR 2% DE MULTA                                 NAO RECEBER APOS 30 DIAS DO VENCIMENTO.                                                                                                                                                                                                         03122000000000000000312200000000000000       0090339900006270048244122014000051
100000000000000000000009033990000627000000000000000000000000010002020006422612201000000000002            2  01064226122024122000000002916560000000001N031220000000000000000000000000000000000000000000000000000000000000000100006422607881GERALDO ALVES DA SILVA                  RUA CARLOS JOSE BORSTENS - 50 AP.14 - AV            11702750                                                            000053
2SR. CAIXA, APOS O VENCIMENTO COBRAR 2% DE MULTA                                 NAO RECEBER APOS 30 DIAS DO VENCIMENTO.                                                                                                                                                                                                         03122000000000000000312200000000000000       0090339900006270064226122010000054
100000000000000000000009033990000627000000000000000000000000010002020033877112201200000000002            2  01338771122026122000000001977450000000001N031220000000000000000000000000000000000000000000000000000000000000000100033877129870HELDER FERREIRA VIANA                   RUA JOSE CALIXTO DO CARMO - 286 AP.35 -             11702690                                                            000056
2SR. CAIXA, APOS O VENCIMENTO COBRAR 2% DE MULTA                                 NAO RECEBER APOS 30 DIAS DO VENCIMENTO.                                                                                                                                                                                                         03122000000000000000312200000000000000       0090339900006270338771122012000057
100000000000000000000009033990000627000000000000000000000000010002020028290712201600000000002            2  01282907122026122000000001822480000000001N031220000000000000000000000000000000000000000000000000000000000000000100028290719809VANESSA GIANGARRELLI PEREIRA            RUA BARINEL - 72 - JARDIM COTCHING - SAO            03462130                                                            000059
2SR. CAIXA, APOS O VENCIMENTO COBRAR 2% DE MULTA                                 NAO RECEBER APOS 30 DIAS DO VENCIMENTO.                                                                                                                                                                                                         03122000000000000000312200000000000000       0090339900006270282907122016000060
100000000000000000000009033990000627000000000000000000000000010002020028290712202400000000002            2  01282907122026122000000001822460000000001N031220000000000000000000000000000000000000000000000000000000000000000100028290719809VANESSA GIANGARRELLI PEREIRA            RUA BARINEL - 72 - JARDIM COTCHING - SAO            03462130                                                            000062
2SR. CAIXA, APOS O VENCIMENTO COBRAR 2% DE MULTA                                 NAO RECEBER APOS 30 DIAS DO VENCIMENTO.                                                                                                                                                                                                         03122000000000000000312200000000000000       0090339900006270282907122024000063
100000000000000000000009033990000627000000000000000000000000010002020028290712203200000000002            2  01282907122026122000000001822470000000001N031220000000000000000000000000000000000000000000000000000000000000000100028290719809VANESSA GIANGARRELLI PEREIRA            RUA BARINEL - 72 - JARDIM COTCHING - SAO            03462130                                                            000065
2SR. CAIXA, APOS O VENCIMENTO COBRAR 2% DE MULTA                                 NAO RECEBER APOS 30 DIAS DO VENCIMENTO.                                                                                                                                                                                                         03122000000000000000312200000000000000       0090339900006270282907122032000066
100000000000000000000009033990000627000000000000000000000000010002020087573012201100000000002            2  01875730122026122000000001990120000000001N031220000000000000000000000000000000000000000000000000000000000000000100087573059604VANDERLEY DE ASSIS                      RUA ROMEU ALBANI - 268 - JARDIM PARQUE R            13803810                                                            000068
2SR. CAIXA, APOS O VENCIMENTO COBRAR 2% DE MULTA                                 NAO RECEBER APOS 30 DIAS DO VENCIMENTO.                                                                                                                                                                                                         03122000000000000000312200000000000000       0090339900006270875730122011000069
100000000000000000000009033990000627000000000000000000000000010002020010825512201900000000002            2  01108255122026122000000002076780000000001N031220000000000000000000000000000000000000000000000000000000000000000100010825513847JOSE APARECIDO PEREIRA                  RUA GENERAL OSORIO - 305 - JARDIM TRINTA            11515130                                                            000071
2SR. CAIXA, APOS O VENCIMENTO COBRAR 2% DE MULTA                                 NAO RECEBER APOS 30 DIAS DO VENCIMENTO.                                                                                                                                                                                                         03122000000000000000312200000000000000       0090339900006270108255122019000072
100000000000000000000009033990000627000000000000000000000000010002020039115112201000000000002            2  01391151122026122000000002560010000000001N031220000000000000000000000000000000000000000000000000000000000000000100039115139840LAIS CRISTINA RIBEIRO ANDO              RUA JOSE CALIXTO DO CARMO - 286 AP.65 -             11702690                                                            000074
2SR. CAIXA, APOS O VENCIMENTO COBRAR 2% DE MULTA                                 NAO RECEBER APOS 30 DIAS DO VENCIMENTO.                                                                                                                                                                                                         03122000000000000000312200000000000000       0090339900006270391151122010000075
100000000000000000000009033990000627000000000000000000000000010002020029617512201900000000002            2  01296175122024122000000002862700000000001N031220000000000000000000000000000000000000000000000000000000000000000100029617510553MARILENE SOUZA DE OLIVEIRA              AVENIDA BRASIL - 393 AP.09 - PARQUE DAS             09210280                                                            000077
2SR. CAIXA, APOS O VENCIMENTO COBRAR 2% DE MULTA                                 NAO RECEBER APOS 30 DIAS DO VENCIMENTO.                                                                                                                                                                                                         03122000000000000000312200000000000000       0090339900006270296175122019000078
100000000000000000000009033990000627000000000000000000000000010002020000593212201900000000002            2  01005932122024122000000003139690000000001N031220000000000000000000000000000000000000000000000000000000000000000100000593293860WALTER HELIO BARBOSA FILHO              AVENIDA ANTONIO FREDERICO OZANAN - 9500             13214206                                                            000080
2SR. CAIXA, APOS O VENCIMENTO COBRAR 2% DE MULTA                                 NAO RECEBER APOS 30 DIAS DO VENCIMENTO.                                                                                                                                                                                                         03122000000000000000312200000000000000       0090339900006270005932122019000081
100000000000000000000009033990000627000000000000000000000000010002020007730012201400000000002            2  01077300122024122000000004464940000000001N031220000000000000000000000000000000000000000000000000000000000000000100007730084899ARNALDO LUIZ VONO                       RUA CARLOS JOSE BORSTENS - 50 AP.122 - A            11702750                                                            000083
2SR. CAIXA, APOS O VENCIMENTO COBRAR 2% DE MULTA                                 NAO RECEBER APOS 30 DIAS DO VENCIMENTO.                                                                                                                                                                                                         03122000000000000000312200000000000000       0090339900006270077300122014000084
100000000000000000000009033990000627000000000000000000000000010002020065584112201000000000002            2  01655841122024122000000001648170000000001N031220000000000000000000000000000000000000000000000000000000000000000100065584147834JOAQUIM DA COSTA MACHADO NETO           RUA CARLOS JOSE BORSTENS - 50 AP.42 - AV            11702750                                                            000086
2SR. CAIXA, APOS O VENCIMENTO COBRAR 2% DE MULTA                                 NAO RECEBER APOS 30 DIAS DO VENCIMENTO.                                                                                                                                                                                                         03122000000000000000312200000000000000       0090339900006270655841122010000087
100000000000000000000009033990000627000000000000000000000000010002020065584112202900000000002            2  01655841122024122000000001648160000000001N031220000000000000000000000000000000000000000000000000000000000000000100065584147834JOAQUIM DA COSTA MACHADO NETO           RUA CARLOS JOSE BORSTENS - 50 AP.42 - AV            11702750                                                            000089
2SR. CAIXA, APOS O VENCIMENTO COBRAR 2% DE MULTA                                 NAO RECEBER APOS 30 DIAS DO VENCIMENTO.                                                                                                                                                                                                         03122000000000000000312200000000000000       0090339900006270655841122029000090
100000000000000000000009033990000627000000000000000000000000010002020001616912201200000000002            2  01016169122024122000000002898610000000001N031220000000000000000000000000000000000000000000000000000000000000000100001616913827CLAUDIO LUIZ PAULELLA                   PRACA NESTOR DOS SANTOS ARRUDA - 26 - VI            13920000                                                            000092
2SR. CAIXA, APOS O VENCIMENTO COBRAR 2% DE MULTA                                 NAO RECEBER APOS 30 DIAS DO VENCIMENTO.                                                                                                                                                                                                         03122000000000000000312200000000000000       0090339900006270016169122012000093
100000000000000000000009033990000627000000000000000000000000010002020006684612201300000000002            2  01066846122026122000000002108930000000001N031220000000000000000000000000000000000000000000000000000000000000000100006684623884LAUDINOR VIEIRA GARCIA                  RUA CANDIDO SALES - 374 - JARDIM PRESIDE            07172000                                                            000095
2SR. CAIXA, APOS O VENCIMENTO COBRAR 2% DE MULTA                                 NAO RECEBER APOS 30 DIAS DO VENCIMENTO.                                                                                                                                                                                                         03122000000000000000312200000000000000       0090339900006270066846122013000096
100000000000000000000009033990000627000000000000000000000000010002020011663512201400000000002            2  01116635122026122000000002124120000000001N031220000000000000000000000000000000000000000000000000000000000000000100011663589844MARIA SAVIO QUARELLO                    AVENIDA MENDONCA DRUMOND - 321 - JARDIM             03524030                                                            000098
2SR. CAIXA, APOS O VENCIMENTO COBRAR 2% DE MULTA                                 NAO RECEBER APOS 30 DIAS DO VENCIMENTO.                                                                                                                                                                                                         03122000000000000000312200000000000000       0090339900006270116635122014000099
100000000000000000000009033990000627000000000000000000000000010002020010083812201600000000002            2  01100838122026122000000002052250000000001N031220000000000000000000000000000000000000000000000000000000000000000100010083824855IONE FERREIRA COUTO DA SILVA            RUA JOSE RAGEL DE MESQUITA - 60 CS.01 -             07799999                                                            000101
2SR. CAIXA, APOS O VENCIMENTO COBRAR 2% DE MULTA                                 NAO RECEBER APOS 30 DIAS DO VENCIMENTO.                                                                                                                                                                                                         03122000000000000000312200000000000000       0090339900006270100838122016000102
100000000000000000000009033990000627000000000000000000000000010002020031010712201100000000002            2  01310107122026122000000002013920000000001N031220000000000000000000000000000000000000000000000000000000000000000100031010705890ANDRE GONZALEZ RABELLO                  RUA PARAIBA - 106 AP.61 - POMPEIA - SANT            11065470                                                            000104
2SR. CAIXA, APOS O VENCIMENTO COBRAR 2% DE MULTA                                 NAO RECEBER APOS 30 DIAS DO VENCIMENTO.                                                                                                                                                                                                         03122000000000000000312200000000000000       0090339900006270310107122011000105
100000000000000000000009033990000627000000000000000000000000010002020005351012201000000000002            2  01053510122026122000000001888260000000001N031220000000000000000000000000000000000000000000000000000000000000000100005351015897VALERIA ALVES MARCOLINO HINNIGER        RUA JOSE CALIXTO DO CARMO - 286 AP.92 -             11702690                                                            000107
2SR. CAIXA, APOS O VENCIMENTO COBRAR 2% DE MULTA                                 NAO RECEBER APOS 30 DIAS DO VENCIMENTO.                                                                                                                                                                                                         03122000000000000000312200000000000000       0090339900006270053510122010000108
100000000000000000000009033990000627000000000000000000000000010002020031898712201600000000002            2  01318987122024122000000003004180000000001N031220000000000000000000000000000000000000000000000000000000000000000100031898775800ANITA MARTINS COLOMBO                   RUA CARLOS JOSE BORSTENS - 50 AP.115 - A            11702750                                                            000110
2SR. CAIXA, APOS O VENCIMENTO COBRAR 2% DE MULTA                                 NAO RECEBER APOS 30 DIAS DO VENCIMENTO.                                                                                                                                                                                                         03122000000000000000312200000000000000       0090339900006270318987122016000111
100000000000000000000009033990000627000000000000000000000000010002020037983412201600000000002            2  01379834122026122000000002218100000000001N031220000000000000000000000000000000000000000000000000000000000000000100037983484801JOSE ERIVALDO SOUZA DO NASCIMENTO RAMOS RUA LETICIA - 250 - JARDIM GUARUJA - SAO            05877260                                                            000113
2SR. CAIXA, APOS O VENCIMENTO COBRAR 2% DE MULTA                                 NAO RECEBER APOS 30 DIAS DO VENCIMENTO.                                                                                                                                                                                                         03122000000000000000312200000000000000       0090339900006270379834122016000114
100000000000000000000009033990000627000000000000000000000000010002020056289212201700000000002            2  01562892122026122000000001675660000000001N031220000000000000000000000000000000000000000000000000000000000000000100056289286900PEDRO RIBEIRO                           RUA CONEGO MANOEL VAZ - 48 - SANTANA - S            02019050                                                            000116
2SR. CAIXA, APOS O VENCIMENTO COBRAR 2% DE MULTA                                 NAO RECEBER APOS 30 DIAS DO VENCIMENTO.                                                                                                                                                                                                         03122000000000000000312200000000000000       0090339900006270562892122017000117
100000000000000000000009033990000627000000000000000000000000010002020005025512201000000000002            2  01050255122026122000000002384640000000001N031220000000000000000000000000000000000000000000000000000000000000000100005025595860CONCEICAO APARECIDA DE MESQUITA PEREIRA RUA JOSE CALIXTO DO CARMO - 286 AP.121 -            11702690                                                            000119
2SR. CAIXA, APOS O VENCIMENTO COBRAR 2% DE MULTA                                 NAO RECEBER APOS 30 DIAS DO VENCIMENTO.                                                                                                                                                                                                         03122000000000000000312200000000000000       0090339900006270050255122010000120
100000000000000000000009033990000627000000000000000000000000010002020034735312201300000000002            2  01347353122026122000000002299740000000001N031220000000000000000000000000000000000000000000000000000000000000000100034735328866DIEGO FELIPE MOLINA DA SILVA E SOUSA    RUA EMILIA PAULISTA - 135 - VILA TIRADEN            05364020                                                            000122
2SR. CAIXA, APOS O VENCIMENTO COBRAR 2% DE MULTA                                 NAO RECEBER APOS 30 DIAS DO VENCIMENTO.                                                                                                                                                                                                         03122000000000000000312200000000000000       0090339900006270347353122013000123
100000000000000000000009033990000627000000000000000000000000010002020076175612201400000000002            2  01761756122024122000000004169160000000001N031220000000000000000000000000000000000000000000000000000000000000000100076175685687GILMAR DE OLIVEIRA BRAGA                RUA MARACAJU - 161 AP.202 - NOVA GRANADA            30431350                                                            000125
2SR. CAIXA, APOS O VENCIMENTO COBRAR 2% DE MULTA                                 NAO RECEBER APOS 30 DIAS DO VENCIMENTO.                                                                                                                                                                                                         03122000000000000000312200000000000000       0090339900006270761756122014000126
100000000000000000000009033990000627000000000000000000000000010002020034812212201700000000002            2  01348122122024122000000003976150000000001N031220000000000000000000000000000000000000000000000000000000000000000100034812226880THAIS TORQUATO MIMOSO DE JESUS          RUA ARNALDO CINTRA - 416 AP.104 TORRE 2             03088000                                                            000128
2SR. CAIXA, APOS O VENCIMENTO COBRAR 2% DE MULTA                                 NAO RECEBER APOS 30 DIAS DO VENCIMENTO.                                                                                                                                                                                                         03122000000000000000312200000000000000       0090339900006270348122122017000129
100000000000000000000009033990000627000000000000000000000000010002020012849412201300000000002            2  01128494122026122000000003961840000000001N031220000000000000000000000000000000000000000000000000000000000000000100012849428809MOISES CLAUDIO DO ROSARIO               AVENIDA DR. AUGUSTO DE TOLEDO - 510 AP.1            09541520                                                            000131
2SR. CAIXA, APOS O VENCIMENTO COBRAR 2% DE MULTA                                 NAO RECEBER APOS 30 DIAS DO VENCIMENTO.                                                                                                                                                                                                         03122000000000000000312200000000000000       0090339900006270128494122013000132
100000000000000000000009033990000627000000000000000000000000010002020015702312201300000000002            2  01157023122026122000000002198110000000001N031220000000000000000000000000000000000000000000000000000000000000000100015702353846MARIA DE LOURDES DE MACENO SOUZA        RUA JOSE CALIXTO DO CARMO - 286 AP.83 -             11702690                                                            000134
2SR. CAIXA, APOS O VENCIMENTO COBRAR 2% DE MULTA                                 NAO RECEBER APOS 30 DIAS DO VENCIMENTO.                                                                                                                                                                                                         03122000000000000000312200000000000000       0090339900006270157023122013000135
100000000000000000000009033990000627000000000000000000000000010002020003658612201800000000002            2  01036586122026122000000001636710000000001N031220000000000000000000000000000000000000000000000000000000000000000100003658668814MARINEZ VALENTIN                        RUA JOSE CALIXTO DO CARMO - 286 AP.95 -             11702690                                                            000137
2SR. CAIXA, APOS O VENCIMENTO COBRAR 2% DE MULTA                                 NAO RECEBER APOS 30 DIAS DO VENCIMENTO.                                                                                                                                                                                                         03122000000000000000312200000000000000       0090339900006270036586122018000138
100000000000000000000009033990000627000000000000000000000000010002020003658612202600000000002            2  01036586122026122000000001636700000000001N031220000000000000000000000000000000000000000000000000000000000000000100003658668814MARINEZ VALENTIN                        RUA JOSE CALIXTO DO CARMO - 286 AP.95 -             11702690                                                            000140
2SR. CAIXA, APOS O VENCIMENTO COBRAR 2% DE MULTA                                 NAO RECEBER APOS 30 DIAS DO VENCIMENTO.                                                                                                                                                                                                         03122000000000000000312200000000000000       0090339900006270036586122026000141
100000000000000000000009033990000627000000000000000000000000010002020014087412201600000000002            2  01140874122026122000000002187320000000001N031220000000000000000000000000000000000000000000000000000000000000000100014087484874SERGIO SANTOS DO NASCIMENTO             RUA PANTALEAO BRAZ - 21 - JARDIM ESTER -            05372080                                                            000143
2SR. CAIXA, APOS O VENCIMENTO COBRAR 2% DE MULTA                                 NAO RECEBER APOS 30 DIAS DO VENCIMENTO.                                                                                                                                                                                                         03122000000000000000312200000000000000       0090339900006270140874122016000144
100000000000000000000009033990000627000000000000000000000000010002020026834512201500000000002            2  01268345122026122000000002015350000000001N031220000000000000000000000000000000000000000000000000000000000000000100026834550895RAQUEL CARDOSO JOAO                     RUA PEDROSO XAVIER - 277 AP.23 TORRE 01             02732020                                                            000146
2SR. CAIXA, APOS O VENCIMENTO COBRAR 2% DE MULTA                                 NAO RECEBER APOS 30 DIAS DO VENCIMENTO.                                                                                                                                                                                                         03122000000000000000312200000000000000       0090339900006270268345122015000147
100000000000000000000009033990000627000000000000000000000000010002020039540012201300000000002            2  01395400122026122000000001981380000000001N031220000000000000000000000000000000000000000000000000000000000000000100039540008816LUZINETE CLARINDO SILVA                 RUA DEINOS - 275 - BAIRRO CIDADE SATELIT            08340100                                                            000149
2SR. CAIXA, APOS O VENCIMENTO COBRAR 2% DE MULTA                                 NAO RECEBER APOS 30 DIAS DO VENCIMENTO.                                                                                                                                                                                                         03122000000000000000312200000000000000       0090339900006270395400122013000150
100000000000000000000009033990000627000000000000000000000000010002020003311012201000000000002            2  01033110122026122000000002063360000000001N031220000000000000000000000000000000000000000000000000000000000000000100003311030877SEBASTIAO SARUVA NETO                   RUA HAMILTON REGIS - 559 - BAIRRO DO LIM            08051440                                                            000152
2SR. CAIXA, APOS O VENCIMENTO COBRAR 2% DE MULTA                                 NAO RECEBER APOS 30 DIAS DO VENCIMENTO.                                                                                                                                                                                                         03122000000000000000312200000000000000       0090339900006270033110122010000153
100000000000000000000009033990000627000000000000000000000000010002020090091912201700000000002            2  01900919122026122000000001972290000000001N031220000000000000000000000000000000000000000000000000000000000000000100090091990882JUECIR CARVALHO DA LUZ                  RUA JOSE CALIXTO DO CARMO - 286 AP.114 -            11702690                                                            000155
2SR. CAIXA, APOS O VENCIMENTO COBRAR 2% DE MULTA                                 NAO RECEBER APOS 30 DIAS DO VENCIMENTO.                                                                                                                                                                                                         03122000000000000000312200000000000000       0090339900006270900919122017000156
100000000000000000000009033990000627000000000000000000000000010002020037325912201900000000002            2  01373259122026122000000001614030000000001N031220000000000000000000000000000000000000000000000000000000000000000100037325923830MARIA AUGUSTA OLIVEIRA DE ANDRADE       RUA CAIAPOS - 842 AP.63 - VILA TUPI - PR            11703320                                                            000158
2SR. CAIXA, APOS O VENCIMENTO COBRAR 2% DE MULTA                                 NAO RECEBER APOS 30 DIAS DO VENCIMENTO.                                                                                                                                                                                                         03122000000000000000312200000000000000       0090339900006270373259122019000159
100000000000000000000009033990000627000000000000000000000000010002020012478812201600000000002            2  01124788122024122000000002938440000000001N031220000000000000000000000000000000000000000000000000000000000000000100012478899809VITORIA BATISTA QUEIROZ                 RUA CARVALHO DE FREITAS - 255 AP.71A - V            05728030                                                            000161
2SR. CAIXA, APOS O VENCIMENTO COBRAR 2% DE MULTA                                 NAO RECEBER APOS 30 DIAS DO VENCIMENTO.                                                                                                                                                                                                         03122000000000000000312200000000000000       0090339900006270124788122016000162
9                                                                                                                                                                                                                                                                                                                                                                                                         000163