01REMESSA01COBRANCA       00000000000005331186HB SANTOS CONSTRUTORA E INCORP237BRADESCO       120724        MX0000101                                                                                                                                                                                                                                                                                     000001
100000000000000000000009033990000995400000000000000000000000010002020005723207241P00000000002            2  01057232072423072400000003407780000000001N100724000000000000000000000000000000000000000000000000000000000000000100005723255843FRANCISCO DE ASSIS DA SILVA             PRACA NICOLAU GERAIGIRE - 25 VISOR - JAR            11095110                                                            000002
2SR. CAIXA, APOS O VENCIMENTO COBRAR 2% DE MULTA                                 NAO RECEBER APOS 30 DIAS DO VENCIMENTO.                                                                                                                                                                                                         12072400000000000001207240000000000000       009033990000995405723207241P000003
100000000000000000000009033990000995400000000000000000000000010002020032589107241300000000002            2  01325891072423072400000003224450000000001N100724000000000000000000000000000000000000000000000000000000000000000100032589165862RENATA ISABEL MARTINS SILVA             RUA HERCULANO DE FREITAS - 257 - FUNDACA            09520280                                                            000005
2SR. CAIXA, APOS O VENCIMENTO COBRAR 2% DE MULTA                                 NAO RECEBER APOS 30 DIAS DO VENCIMENTO.                                                                                                                                                                                                         12072400000000000001207240000000000000       0090339900009954325891072413000006
100000000000000000000009033990000995400000000000000000000000010002020046391207241200000000002            2  01463912072423072400000003381230000000001N100724000000000000000000000000000000000000000000000000000000000000000100046391265810PAMELLA RODRIGUES DE OLIVEIRA           RUA AUGUSTA - 183 AP.301 BL.2A - VILA AU            07025130                                                            000008
2SR. CAIXA, APOS O VENCIMENTO COBRAR 2% DE MULTA                                 NAO RECEBER APOS 30 DIAS DO VENCIMENTO.                                                                                                                                                                                                         12072400000000000001207240000000000000       0090339900009954463912072412000009
100000000000000000000009033990000995400000000000000000000000010002020027964507241000000000002            2  01279645072423072400000003359540000000001N100724000000000000000000000000000000000000000000000000000000000000000100027964512838FABIO TADEU DE CAMPOS RADZIAVICIUS      RUA URUGUAI - 89 AP.94 - JARDIM GUILHERM            11702300                                                            000011
2SR. CAIXA, APOS O VENCIMENTO COBRAR 2% DE MULTA                                 NAO RECEBER APOS 30 DIAS DO VENCIMENTO.                                                                                                                                                                                                         12072400000000000001207240000000000000       0090339900009954279645072410000012
100000000000000000000009033990000995400000000000000000000000010002020011498307241900000000002            2  01114983072423072400000002517040000000001N100724000000000000000000000000000000000000000000000000000000000000000100011498329837GERSON GERALDO DAS NEVES                RUA DOMINGOS DELGADO - 144 - VILA SOUZA             02881070                                                            000014
2SR. CAIXA, APOS O VENCIMENTO COBRAR 2% DE MULTA                                 NAO RECEBER APOS 30 DIAS DO VENCIMENTO.                                                                                                                                                                                                         12072400000000000001207240000000000000       0090339900009954114983072419000015
100000000000000000000009033990000995400000000000000000000000010002020025214407241500000000002            2  01252144072423072400000002979380000000001N100724000000000000000000000000000000000000000000000000000000000000000100025214401833JOSE MAURICIO DOS SANTOS RODRIGUES      RUA JOAO DE MACEDO RIBEIRO - 49 - VILA N            08111101                                                            000017
2SR. CAIXA, APOS O VENCIMENTO COBRAR 2% DE MULTA                                 NAO RECEBER APOS 30 DIAS DO VENCIMENTO.                                                                                                                                                                                                         12072400000000000001207240000000000000       0090339900009954252144072415000018
100000000000000000000009033990000995400000000000000000000000010002020033119107241200000000002            2  01331191072423072400000002992010000000001N100724000000000000000000000000000000000000000000000000000000000000000100033119178802HUGO GOMES VENDRAME                     RUA URUGUAI - 89 AP.52 - JARDIM GUILHERM            11702300                                                            000020
2SR. CAIXA, APOS O VENCIMENTO COBRAR 2% DE MULTA                                 NAO RECEBER APOS 30 DIAS DO VENCIMENTO.                                                                                                                                                                                                         12072400000000000001207240000000000000       0090339900009954331191072412000021
100000000000000000000009033990000995400000000000000000000000010002020016631507241500000000002            2  01166315072423072400000003044210000000001N100724000000000000000000000000000000000000000000000000000000000000000100016631587468GILBERTO BEZERRA DA SILVA               AVENIDA JAIME TORRES - 745 CASA 3 - JARD            03670000                                                            000023
2SR. CAIXA, APOS O VENCIMENTO COBRAR 2% DE MULTA                                 NAO RECEBER APOS 30 DIAS DO VENCIMENTO.                                                                                                                                                                                                         12072400000000000001207240000000000000       0090339900009954166315072415000024
100000000000000000000009033990000995400000000000000000000000010002020007313207241800000000002            2  01073132072423072400000003022610000000001N100724000000000000000000000000000000000000000000000000000000000000000100007313251840SALVADOR GESUALDO PULVIRENTI            AVENIDA MARARI - 641 - VILA MARARI - SAO            04402010                                                            000026
2SR. CAIXA, APOS O VENCIMENTO COBRAR 2% DE MULTA                                 NAO RECEBER APOS 30 DIAS DO VENCIMENTO.                                                                                                                                                                                                         12072400000000000001207240000000000000       0090339900009954073132072418000027
100000000000000000000009033990000995400000000000000000000000010002020010676707241P00000000002            2  01106767072423072400000003154870000000001N100724000000000000000000000000000000000000000000000000000000000000000100010676723896MERCEDES CRISTINA ROCHA SANDOVAL        RUA URUGUAI - 89 AP.83 - JARDIM GUILHERM            11702300                                                            000029
2SR. CAIXA, APOS O VENCIMENTO COBRAR 2% DE MULTA                                 NAO RECEBER APOS 30 DIAS DO VENCIMENTO.                                                                                                                                                                                                         12072400000000000001207240000000000000       009033990000995410676707241P000030
100000000000000000000009033990000995400000000000000000000000010002020009502807241800000000002            2  01095028072423072400000003294740000000001N100724000000000000000000000000000000000000000000000000000000000000000100009502844831CLAUDIA ROCHA SANDOVAL                  RUA URUGUAI - 89 AP.64 - JARDIM GUILHERM            11702300                                                            000032
2SR. CAIXA, APOS O VENCIMENTO COBRAR 2% DE MULTA                                 NAO RECEBER APOS 30 DIAS DO VENCIMENTO.                                                                                                                                                                                                         12072400000000000001207240000000000000       0090339900009954095028072418000033
100000000000000000000009033990000995400000000000000000000000010002020007594207241700000000002            2  01075942072423072400000002957790000000001N100724000000000000000000000000000000000000000000000000000000000000000100007594247809JOSE LUIS DE OLIVEIRA                   DONA EGLANTINA PENTEADO DA SILVA PRADO -            13044162                                                            000035
2SR. CAIXA, APOS O VENCIMENTO COBRAR 2% DE MULTA                                 NAO RECEBER APOS 30 DIAS DO VENCIMENTO.                                                                                                                                                                                                         12072400000000000001207240000000000000       0090339900009954075942072417000036
100000000000000000000009033990000995400000000000000000000000010002020005288707241000000000002            2  01052887072423072400000003046810000000001N100724000000000000000000000000000000000000000000000000000000000000000100005288796858MARCELO RODRIGUES FERREIRA              RUA MARCOS ANTONIO MARQUES - 302 - JARDI            06433020                                                            000038
2SR. CAIXA, APOS O VENCIMENTO COBRAR 2% DE MULTA                                 NAO RECEBER APOS 30 DIAS DO VENCIMENTO.                                                                                                                                                                                                         12072400000000000001207240000000000000       0090339900009954052887072410000039
100000000000000000000009033990000995400000000000000000000000010002020015835907241P00000000002            2  01158359072423072400000003172810000000001N100724000000000000000000000000000000000000000000000000000000000000000100015835992823FLAVIO VERONEZ                          RUA ANDREA PAULINETTI - 127 AP.42 - BAIR            04707050                                                            000041
2SR. CAIXA, APOS O VENCIMENTO COBRAR 2% DE MULTA                                 NAO RECEBER APOS 30 DIAS DO VENCIMENTO.                                                                                                                                                                                                         12072400000000000001207240000000000000       009033990000995415835907241P000042
100000000000000000000009033990000995400000000000000000000000010002020000438107241800000000002            2  01004381072423072400000003581240000000001N100724000000000000000000000000000000000000000000000000000000000000000100000438161858WAGNECY VILLA NOVA LIEN                 RUA PROFESSOR FERREIRA PAULINO - 233 AP.            07025020                                                            000044
2SR. CAIXA, APOS O VENCIMENTO COBRAR 2% DE MULTA                                 NAO RECEBER APOS 30 DIAS DO VENCIMENTO.                                                                                                                                                                                                         12072400000000000001207240000000000000       0090339900009954004381072418000045
100000000000000000000009033990000995400000000000000000000000010002020026004507241400000000002            2  01260045072423072400000003172850000000001N100724000000000000000000000000000000000000000000000000000000000000000100026004595888EDIVALDO BEZERRA DA SILVA               AVENIDA GUATEMALA - 550 - JARDIM PINHEIR            09854750                                                            000047
2SR. CAIXA, APOS O VENCIMENTO COBRAR 2% DE MULTA                                 NAO RECEBER APOS 30 DIAS DO VENCIMENTO.                                                                                                                                                                                                         12072400000000000001207240000000000000       0090339900009954260045072414000048
100000000000000000000009033990000995400000000000000000000000010002020012470707241900000000002            2  01124707072423072400000003385230000000001N100724000000000000000000000000000000000000000000000000000000000000000100012470771870HILTON FERNANDES OLIVARES               RUA PATIO DA ESTACAO - 115 - BAIRRO CENT            09450000                                                            000050
2SR. CAIXA, APOS O VENCIMENTO COBRAR 2% DE MULTA                                 NAO RECEBER APOS 30 DIAS DO VENCIMENTO.                                                                                                                                                                                                         12072400000000000001207240000000000000       0090339900009954124707072419000051
100000000000000000000009033990000995400000000000000000000000010002020014025407241800000000002            2  01140254072423072400000003711800000000001N100724000000000000000000000000000000000000000000000000000000000000000100014025420899ANDREIA APARECIDA TAVARES BASTOS        RUA IBATIBA - 234 CASA 27 - RES.BOUGANVI            09220608                                                            000053
2SR. CAIXA, APOS O VENCIMENTO COBRAR 2% DE MULTA                                 NAO RECEBER APOS 30 DIAS DO VENCIMENTO.                                                                                                                                                                                                         12072400000000000001207240000000000000       0090339900009954140254072418000054
100000000000000000000009033990000995400000000000000000000000010002020088578707241500000000002            2  01885787072423072400000006483690000000001N100724000000000000000000000000000000000000000000000000000000000000000100088578704800GILBERTO DO ESPIRITO SANTO SILVA        RUA URUGUAI - 89 AP.23 - JARDIM GUILHERM            11702300                                                            000056
2SR. CAIXA, APOS O VENCIMENTO COBRAR 2% DE MULTA                                 NAO RECEBER APOS 30 DIAS DO VENCIMENTO.                                                                                                                                                                                                         12072400000000000001207240000000000000       0090339900009954885787072415000057
100000000000000000000009033990000995400000000000000000000000010002020088578707242300000000002            2  01885787072423072400000002766110000000001N100724000000000000000000000000000000000000000000000000000000000000000100088578704800GILBERTO DO ESPIRITO SANTO SILVA        RUA URUGUAI - 89 AP.23 - JARDIM GUILHERM            11702300                                                            000059
2SR. CAIXA, APOS O VENCIMENTO COBRAR 2% DE MULTA                                 NAO RECEBER APOS 30 DIAS DO VENCIMENTO.                                                                                                                                                                                                         12072400000000000001207240000000000000       0090339900009954885787072423000060
100000000000000000000009033990000995400000000000000000000000010002020005105207241300000000002            2  01051052072423072400000003298900000000001N100724000000000000000000000000000000000000000000000000000000000000000100005105287835FABIO MOTTOLA DE OLIVEIRA               RUA RAUL MAZZONI - 133 - CHACARA AREAL -            13331022                                                            000062
2SR. CAIXA, APOS O VENCIMENTO COBRAR 2% DE MULTA                                 NAO RECEBER APOS 30 DIAS DO VENCIMENTO.                                                                                                                                                                                                         12072400000000000001207240000000000000       0090339900009954051052072413000063
100000000000000000000009033990000995400000000000000000000000010002020020792707241200000000002            2  01207927072423072400000003429690000000001N100724000000000000000000000000000000000000000000000000000000000000000120792791000147TROVAO COMERCIO DE ALIMENTOS LTDA-ME    RUA QUINTA DA MAGNOLIA - 67 - JARDIM IPA            03582100                                                            000065
2SR. CAIXA, APOS O VENCIMENTO COBRAR 2% DE MULTA                                 NAO RECEBER APOS 30 DIAS DO VENCIMENTO.                                                                                                                                                                                                         12072400000000000001207240000000000000       0090339900009954207927072412000066
100000000000000000000009033990000995400000000000000000000000010002020007648107241600000000002            2  01076481072423072400000003220460000000001N100724000000000000000000000000000000000000000000000000000000000000000100007648112825MARA REGINA CAPRIO                      RUA DA TRINDADE - 790 - VILA IDEAL - SAO            15060280                                                            000068
2SR. CAIXA, APOS O VENCIMENTO COBRAR 2% DE MULTA                                 NAO RECEBER APOS 30 DIAS DO VENCIMENTO.                                                                                                                                                                                                         12072400000000000001207240000000000000       0090339900009954076481072416000069
100000000000000000000009033990000995400000000000000000000000010002020031157407241500000000002            2  01311574072423072400000003458020000000001N100724000000000000000000000000000000000000000000000000000000000000000100031157420885TALITA ANICHIARICO COSSI                RUA CNEO POMPEO DE CAMARGO - 817 - JARDI            13060150                                                            000071
2SR. CAIXA, APOS O VENCIMENTO COBRAR 2% DE MULTA                                 NAO RECEBER APOS 30 DIAS DO VENCIMENTO.                                                                                                                                                                                                         12072400000000000001207240000000000000       0090339900009954311574072415000072
100000000000000000000009033990000995400000000000000000000000010002020035572507241P00000000002            2  01355725072423072400000003676630000000001N100724000000000000000000000000000000000000000000000000000000000000000100035572536865MARIA SIMONE SANTOS                     RUA JOSE PEZZOLO - 68 - VILA ELDIZIA - S            09181660                                                            000074
2SR. CAIXA, APOS O VENCIMENTO COBRAR 2% DE MULTA                                 NAO RECEBER APOS 30 DIAS DO VENCIMENTO.                                                                                                                                                                                                         12072400000000000001207240000000000000       009033990000995435572507241P000075
100000000000000000000009033990000995400000000000000000000000010002020008800307241700000000002            2  01088003072423072400000003349900000000001N100724000000000000000000000000000000000000000000000000000000000000000100008800368425INGO DIMITRI PEREIRA DA NOBREGA         RUA PROFESSOR MENDES PIMENTEL - 362 - JA            03973010                                                            000077
2SR. CAIXA, APOS O VENCIMENTO COBRAR 2% DE MULTA                                 NAO RECEBER APOS 30 DIAS DO VENCIMENTO.                                                                                                                                                                                                         12072400000000000001207240000000000000       0090339900009954088003072417000078
100000000000000000000009033990000995400000000000000000000000010002020005054107241100000000002            2  01050541072423072400000003241860000000001N100724000000000000000000000000000000000000000000000000000000000000000100005054169806PAULO ROBERTO DE MATTOS                 JARDIM BOTANICO - 849 - DISTRITO DE SOUS            13106258                                                            000080
2SR. CAIXA, APOS O VENCIMENTO COBRAR 2% DE MULTA                                 NAO RECEBER APOS 30 DIAS DO VENCIMENTO.                                                                                                                                                                                                         12072400000000000001207240000000000000       0090339900009954050541072411000081
100000000000000000000009033990000995400000000000000000000000010002020007552107241800000000002            2  01075521072423072400000003241860000000001N100724000000000000000000000000000000000000000000000000000000000000000100007552151846MAURO BORDONI                           AVENIDA DR. AUGUSTO DE TOLEDO - 769 AP.6            09540080                                                            000083
2SR. CAIXA, APOS O VENCIMENTO COBRAR 2% DE MULTA                                 NAO RECEBER APOS 30 DIAS DO VENCIMENTO.                                                                                                                                                                                                         12072400000000000001207240000000000000       0090339900009954075521072418000084
100000000000000000000009033990000995400000000000000000000000010002020012744207241000000000002            2  01127442072423072400000003607040000000001N100724000000000000000000000000000000000000000000000000000000000000000100012744201804ADAIL JOSE DE SOUSA                     RUA ROSARIA - 303 - BAIRRO SACADURA CABR            09061080                                                            000086
2SR. CAIXA, APOS O VENCIMENTO COBRAR 2% DE MULTA                                 NAO RECEBER APOS 30 DIAS DO VENCIMENTO.                                                                                                                                                                                                         12072400000000000001207240000000000000       0090339900009954127442072410000087
100000000000000000000009033990000995400000000000000000000000010002020068320607241800000000002            2  01683206072423072400000012774260000000001N100724000000000000000000000000000000000000000000000000000000000000000100068320663849ANTONIO CAVALCANTE LIMA                 RUA AMAZONAS - 1188 - CENTRO - SAO CAETA            09540201                                                            000089
2SR. CAIXA, APOS O VENCIMENTO COBRAR 2% DE MULTA                                 NAO RECEBER APOS 30 DIAS DO VENCIMENTO.                                                                                                                                                                                                         12072400000000000001207240000000000000       0090339900009954683206072418000090
100000000000000000000009033990000995400000000000000000000000010002020088926207241P00000000002            2  01889262072423072400000002683570000000001N100724000000000000000000000000000000000000000000000000000000000000000100088926230872VALDEMAR LATANCE FILHO                  RUA MELO PINTO DA SILVA - 111 CASA 103 -            18116265                                                            000092
2SR. CAIXA, APOS O VENCIMENTO COBRAR 2% DE MULTA                                 NAO RECEBER APOS 30 DIAS DO VENCIMENTO.                                                                                                                                                                                                         12072400000000000001207240000000000000       009033990000995488926207241P000093
9                                                                                                                                                                                                                                                                                                                                                                                                         000094