01REMESSA01COBRANCA       00000000000005316116AIRES CONSTRUTORA E INCORPORAD237BRADESCO       010921        MX0000178                                                                                                                                                                                                                                                                                     000001
100000000000000000000009002800441612000000000000000000000000010002100023132609211200000000002            2  01231326092125092100000002313970000000001N010921000000000000000000000000000000000000000000000000000000000000000100023132672882LEANDRO MORENO                          RUA MONTE CASTELO - 296 AP.64 - AVIACAO             11702720                                                            000002
2SR. CAIXA, APOS O VENCIMENTO COBRAR 10% DE MULTA                                NAO RECEBER APOS 30 DIAS DO VENCIMENTO.                                                                                                                                                                                                         01092100000000000000109210000000000000       0090028004416120231326092112000003
100000000000000000000009002800441612000000000000000000000000010002100000666309211200000000002            2  01006663092125092100000003807060000000001N010921000000000000000000000000000000000000000000000000000000000000000100000666344825LUIZ HENRIQUE DE CAMPOS                 RUA JOAO CARLOS CAVALCANTI REIS - 21 - J            02281206                                                            000005
2SR. CAIXA, APOS O VENCIMENTO COBRAR 10% DE MULTA                                NAO RECEBER APOS 30 DIAS DO VENCIMENTO.                                                                                                                                                                                                         01092100000000000000109210000000000000       0090028004416120006663092112000006
100000000000000000000009002800441612000000000000000000000000010002100029155009211200000000002            2  01291550092125092100000004020390000000001N010921000000000000000000000000000000000000000000000000000000000000000100029155026842DANIELA YOSHIDA                         RUA MONTE CASTELO - 262 AP.34 - AVIACAO             11702720                                                            000008
2SR. CAIXA, APOS O VENCIMENTO COBRAR 10% DE MULTA                                NAO RECEBER APOS 30 DIAS DO VENCIMENTO.                                                                                                                                                                                                         01092100000000000000109210000000000000       0090028004416120291550092112000009
100000000000000000000009002800441612000000000000000000000000010002100001204409211600000000002            2  01012044092125092100000003274070000000001N010921000000000000000000000000000000000000000000000000000000000000000100001204431809CEZAR TALAVERA JUNIOR                   RUA MAESTRO ARTURO DE ANGELIS  - 190 AP.            05139010                                                            000011
2SR. CAIXA, APOS O VENCIMENTO COBRAR 10% DE MULTA                                NAO RECEBER APOS 30 DIAS DO VENCIMENTO.                                                                                                                                                                                                         01092100000000000000109210000000000000       0090028004416120012044092116000012
100000000000000000000009002800441612000000000000000000000000010002100004227509211500000000002            2  01042275092125092100000004244170000000001N010921000000000000000000000000000000000000000000000000000000000000000100004227553970ALESSANDRO ISRAEL GOULART               RUA PROFESSORA CARLINDA RIBEIRO - 21 - F            02866200                                                            000014
2SR. CAIXA, APOS O VENCIMENTO COBRAR 10% DE MULTA                                NAO RECEBER APOS 30 DIAS DO VENCIMENTO.                                                                                                                                                                                                         01092100000000000000109210000000000000       0090028004416120042275092115000015
100000000000000000000009002800441612000000000000000000000000010002100001024709211900000000002            2  01010247092125092100000003701280000000001N010921000000000000000000000000000000000000000000000000000000000000000100001024794881CLAUDIO RODRIGUES                       RUA ARACATUBA - 242 - LAPA - SAO PAULO -            05058010                                                            000017
2SR. CAIXA, APOS O VENCIMENTO COBRAR 10% DE MULTA                                NAO RECEBER APOS 30 DIAS DO VENCIMENTO.                                                                                                                                                                                                         01092100000000000000109210000000000000       0090028004416120010247092119000018
100000000000000000000009002800441612000000000000000000000000010002100002225009211P00000000002            2  01022250092125092100000005674580000000001N010921000000000000000000000000000000000000000000000000000000000000000100002225072841PEDRO EDUARDO DE AZEVEDO                RUA NATH ZILMAN - 46 - JARDIM SAMAMBAIA             07623085                                                            000020
2SR. CAIXA, APOS O VENCIMENTO COBRAR 10% DE MULTA                                NAO RECEBER APOS 30 DIAS DO VENCIMENTO.                                                                                                                                                                                                         01092100000000000000109210000000000000       009002800441612002225009211P000021
100000000000000000000009002800441612000000000000000000000000010002100022037509211800000000002            2  01220375092125092100000003948880000000001N010921000000000000000000000000000000000000000000000000000000000000000100022037552882ANDREIA CRISTINA FERNANDES DANTAS       PCA CASTRO ALVES - 163 AP.33 - VILA SAO             13224299                                                            000023
2SR. CAIXA, APOS O VENCIMENTO COBRAR 10% DE MULTA                                NAO RECEBER APOS 30 DIAS DO VENCIMENTO.                                                                                                                                                                                                         01092100000000000000109210000000000000       0090028004416120220375092118000024
100000000000000000000009002800441612000000000000000000000000010002100027198409211P00000000002            2  01271984092125092100000002723520000000001N010921000000000000000000000000000000000000000000000000000000000000000100027198452809CRISTIANE AURELIANO DA SILVA MAIA       RUA MONTE CASTELO - 262 AP.25 - AVIACAO             11702720                                                            000026
2SR. CAIXA, APOS O VENCIMENTO COBRAR 10% DE MULTA                                NAO RECEBER APOS 30 DIAS DO VENCIMENTO.                                                                                                                                                                                                         01092100000000000000109210000000000000       009002800441612027198409211P000027
100000000000000000000009002800441612000000000000000000000000010002100021246209211300000000002            2  01212462092125092100000003323790000000001N010921000000000000000000000000000000000000000000000000000000000000000100021246231840ALEXANDRO DA CUNHA MIGUES               RUA DULCE - 71  - VILA CARRAO - SAO PAUL            03427040                                                            000029
2SR. CAIXA, APOS O VENCIMENTO COBRAR 10% DE MULTA                                NAO RECEBER APOS 30 DIAS DO VENCIMENTO.                                                                                                                                                                                                         01092100000000000000109210000000000000       0090028004416120212462092113000030
100000000000000000000009002800441612000000000000000000000000010002100018470509211300000000002            2  01184705092125092100000004889790000000001N010921000000000000000000000000000000000000000000000000000000000000000100018470520881SILVANA ALVES DE OLIVEIRA               RUA MONTE CASTELO - 262 AP.91 - AVIACAO             11702720                                                            000032
2SR. CAIXA, APOS O VENCIMENTO COBRAR 10% DE MULTA                                NAO RECEBER APOS 30 DIAS DO VENCIMENTO.                                                                                                                                                                                                         01092100000000000000109210000000000000       0090028004416120184705092113000033
100000000000000000000009002800441612000000000000000000000000010002100009297509211300000000002            2  01092975092125092100000003404200000000001N010921000000000000000000000000000000000000000000000000000000000000000100009297523846MARCOS ROBERTO DE CASTRO FERREIRA       RUA MONTE CASTELO - 262 AP.105 - AVIACAO            11702720                                                            000035
2SR. CAIXA, APOS O VENCIMENTO COBRAR 10% DE MULTA                                NAO RECEBER APOS 30 DIAS DO VENCIMENTO.                                                                                                                                                                                                         01092100000000000000109210000000000000       0090028004416120092975092113000036
100000000000000000000009002800441612000000000000000000000000010002100001164109211200000000002            2  01011641092125092100000004218600000000001N010921000000000000000000000000000000000000000000000000000000000000000100001164158864DAVID BLEY LACERDA                      RUA CONEGO ARAUJO MARCONDES - 188 - BAIR            02550080                                                            000038
2SR. CAIXA, APOS O VENCIMENTO COBRAR 10% DE MULTA                                NAO RECEBER APOS 30 DIAS DO VENCIMENTO.                                                                                                                                                                                                         01092100000000000000109210000000000000       0090028004416120011641092112000039
100000000000000000000009002800441612000000000000000000000000010002100031498009211600000000002            2  01314980092125092100000005127090000000001N010921000000000000000000000000000000000000000000000000000000000000000100031498008895POLIANE  SIBELE DA SILVA                PRACA GENERAL COSTA BARRETO - 56 AP.181             03325070                                                            000041
2SR. CAIXA, APOS O VENCIMENTO COBRAR 10% DE MULTA                                NAO RECEBER APOS 30 DIAS DO VENCIMENTO.                                                                                                                                                                                                         01092100000000000000109210000000000000       0090028004416120314980092116000042
100000000000000000000009002800441612000000000000000000000000010002100000588109211P00000000002            2  01005881092125092100000003007130000000001N010921000000000000000000000000000000000000000000000000000000000000000100000588109860JOSE LIARTE GIANTE                      AVENIDA LUIZ GONZAGA DO AMARAL - 143 - J            09320630                                                            000044
2SR. CAIXA, APOS O VENCIMENTO COBRAR 10% DE MULTA                                NAO RECEBER APOS 30 DIAS DO VENCIMENTO.                                                                                                                                                                                                         01092100000000000000109210000000000000       009002800441612000588109211P000045
100000000000000000000009002800441612000000000000000000000000010002100014386809211200000000002            2  01143868092125092100000002405590000000001N010921000000000000000000000000000000000000000000000000000000000000000100014386860134SEVERINO CARLOS DE OLIVEIRA             RUA MONTE CASTELO - 262 AP.54 - AVIACAO             11702720                                                            000047
2SR. CAIXA, APOS O VENCIMENTO COBRAR 10% DE MULTA                                NAO RECEBER APOS 30 DIAS DO VENCIMENTO.                                                                                                                                                                                                         01092100000000000000109210000000000000       0090028004416120143868092112000048
100000000000000000000009002800441612000000000000000000000000010002100039393709211800000000002            2  01393937092125092100000001657980000000001N010921000000000000000000000000000000000000000000000000000000000000000100039393790850NAIRON RICARDO DE ARAUJO SANTOS         RUA NITEROI - 267 CASA 04 - JARDIM INDEP            11380350                                                            000050
2SR. CAIXA, APOS O VENCIMENTO COBRAR 10% DE MULTA                                NAO RECEBER APOS 30 DIAS DO VENCIMENTO.                                                                                                                                                                                                         01092100000000000000109210000000000000       0090028004416120393937092118000051
100000000000000000000009002800441612000000000000000000000000010002100004735209211700000000002            2  01047352092125092100000001710200000000001N010921000000000000000000000000000000000000000000000000000000000000000100004735273832DARIO LUIZ GONCALVES                    RUA MONTE CASTELO - 295 AP.113 - AVIACAO            11702720                                                            000053
2SR. CAIXA, APOS O VENCIMENTO COBRAR 10% DE MULTA                                NAO RECEBER APOS 30 DIAS DO VENCIMENTO.                                                                                                                                                                                                         01092100000000000000109210000000000000       0090028004416120047352092117000054
100000000000000000000009002800441612000000000000000000000000010002100019288709211600000000002            2  01192887092125092100000002232830000000001N010921000000000000000000000000000000000000000000000000000000000000000100019288787844EMERSON LUIZ MARTINEZ PEREIRA           RUA MONTE CASTELO - 296 AP.74 - AVIACAO             11702720                                                            000056
2SR. CAIXA, APOS O VENCIMENTO COBRAR 10% DE MULTA                                NAO RECEBER APOS 30 DIAS DO VENCIMENTO.                                                                                                                                                                                                         01092100000000000000109210000000000000       0090028004416120192887092116000057
9                                                                                                                                                                                                                                                                                                                                                                                                         000058