01REMESSA01COBRANCA       00000000000005316116AIRES CONSTRUTORA E INCORPORAD237BRADESCO       020721        MX0000174                                                                                                                                                                                                                                                                                     000001
100000000000000000000009002800441612000000000000000000000000010002100007975907211P00000000002            2  01079759072125072100000003923960000000001N020721000000000000000000000000000000000000000000000000000000000000000100007975958808JOCY VIGNADO                            RUA PEDRO GONCALVES SOBRINHO - 568 - PAR            13098641                                                            000002
2SR. CAIXA, APOS O VENCIMENTO COBRAR 10% DE MULTA                                NAO RECEBER APOS 30 DIAS DO VENCIMENTO.                                                                                                                                                                                                         02072100000000000000207210000000000000       009002800441612007975907211P000003
100000000000000000000009002800441612000000000000000000000000010002100023132607211100000000002            2  01231326072125072100000002291000000000001N020721000000000000000000000000000000000000000000000000000000000000000100023132672882LEANDRO MORENO                          RUA MONTE CASTELO - 296 AP.64 - AVIACAO             11702720                                                            000005
2SR. CAIXA, APOS O VENCIMENTO COBRAR 10% DE MULTA                                NAO RECEBER APOS 30 DIAS DO VENCIMENTO.                                                                                                                                                                                                         02072100000000000000207210000000000000       0090028004416120231326072111000006
100000000000000000000009002800441612000000000000000000000000010002100099264607211000000000002            2  01992646072125072100000003907120000000001N020721000000000000000000000000000000000000000000000000000000000000000100099264692800LEONTINO PINHEIRO DA SILVA              AVENIDA JOAO BATISTA FITIPALDI - 469 - V            08685000                                                            000008
2SR. CAIXA, APOS O VENCIMENTO COBRAR 10% DE MULTA                                NAO RECEBER APOS 30 DIAS DO VENCIMENTO.                                                                                                                                                                                                         02072100000000000000207210000000000000       0090028004416120992646072110000009
100000000000000000000009002800441612000000000000000000000000010002100000666307211100000000002            2  01006663072125072100000003769270000000001N020721000000000000000000000000000000000000000000000000000000000000000100000666344825LUIZ HENRIQUE DE CAMPOS                 RUA JOAO CARLOS CAVALCANTI REIS - 21 - J            02281206                                                            000011
2SR. CAIXA, APOS O VENCIMENTO COBRAR 10% DE MULTA                                NAO RECEBER APOS 30 DIAS DO VENCIMENTO.                                                                                                                                                                                                         02072100000000000000207210000000000000       0090028004416120006663072111000012
100000000000000000000009002800441612000000000000000000000000010002100029155007211100000000002            2  01291550072125072100000003980490000000001N020721000000000000000000000000000000000000000000000000000000000000000100029155026842DANIELA YOSHIDA                         RUA MONTE CASTELO - 262 AP.34 - AVIACAO             11702720                                                            000014
2SR. CAIXA, APOS O VENCIMENTO COBRAR 10% DE MULTA                                NAO RECEBER APOS 30 DIAS DO VENCIMENTO.                                                                                                                                                                                                         02072100000000000000207210000000000000       0090028004416120291550072111000015
100000000000000000000009002800441612000000000000000000000000010002100001204407211500000000002            2  01012044072125072100000003241570000000001N020721000000000000000000000000000000000000000000000000000000000000000100001204431809CEZAR TALAVERA JUNIOR                   RUA MAESTRO ARTURO DE ANGELIS  - 190 AP.            05139010                                                            000017
2SR. CAIXA, APOS O VENCIMENTO COBRAR 10% DE MULTA                                NAO RECEBER APOS 30 DIAS DO VENCIMENTO.                                                                                                                                                                                                         02072100000000000000207210000000000000       0090028004416120012044072115000018
100000000000000000000009002800441612000000000000000000000000010002100004227507211400000000002            2  01042275072125072100000004202040000000001N020721000000000000000000000000000000000000000000000000000000000000000100004227553970ALESSANDRO ISRAEL GOULART               RUA PROFESSORA CARLINDA RIBEIRO - 21 - F            02866200                                                            000020
2SR. CAIXA, APOS O VENCIMENTO COBRAR 10% DE MULTA                                NAO RECEBER APOS 30 DIAS DO VENCIMENTO.                                                                                                                                                                                                         02072100000000000000207210000000000000       0090028004416120042275072114000021
100000000000000000000009002800441612000000000000000000000000010002100001024707211800000000002            2  01010247072125072100000003664550000000001N020721000000000000000000000000000000000000000000000000000000000000000100001024794881CLAUDIO RODRIGUES                       RUA ARACATUBA - 242 - LAPA - SAO PAULO -            05058010                                                            000023
2SR. CAIXA, APOS O VENCIMENTO COBRAR 10% DE MULTA                                NAO RECEBER APOS 30 DIAS DO VENCIMENTO.                                                                                                                                                                                                         02072100000000000000207210000000000000       0090028004416120010247072118000024
100000000000000000000009002800441612000000000000000000000000010002100002225007211900000000002            2  01022250072125072100000005618260000000001N020721000000000000000000000000000000000000000000000000000000000000000100002225072841PEDRO EDUARDO DE AZEVEDO                RUA NATH ZILMAN - 46 - JARDIM SAMAMBAIA             07623085                                                            000026
2SR. CAIXA, APOS O VENCIMENTO COBRAR 10% DE MULTA                                NAO RECEBER APOS 30 DIAS DO VENCIMENTO.                                                                                                                                                                                                         02072100000000000000207210000000000000       0090028004416120022250072119000027
100000000000000000000009002800441612000000000000000000000000010002100022037507211700000000002            2  01220375072125072100000003909680000000001N020721000000000000000000000000000000000000000000000000000000000000000100022037552882ANDREIA CRISTINA FERNANDES DANTAS       PCA CASTRO ALVES - 163 AP.33 - VILA SAO             13224299                                                            000029
2SR. CAIXA, APOS O VENCIMENTO COBRAR 10% DE MULTA                                NAO RECEBER APOS 30 DIAS DO VENCIMENTO.                                                                                                                                                                                                         02072100000000000000207210000000000000       0090028004416120220375072117000030
100000000000000000000009002800441612000000000000000000000000010002100027198407211900000000002            2  01271984072125072100000002696490000000001N020721000000000000000000000000000000000000000000000000000000000000000100027198452809CRISTIANE AURELIANO DA SILVA MAIA       RUA MONTE CASTELO - 262 AP.25 - AVIACAO             11702720                                                            000032
2SR. CAIXA, APOS O VENCIMENTO COBRAR 10% DE MULTA                                NAO RECEBER APOS 30 DIAS DO VENCIMENTO.                                                                                                                                                                                                         02072100000000000000207210000000000000       0090028004416120271984072119000033
100000000000000000000009002800441612000000000000000000000000010002100021246207211200000000002            2  01212462072125072100000003290800000000001N020721000000000000000000000000000000000000000000000000000000000000000100021246231840ALEXANDRO DA CUNHA MIGUES               RUA DULCE - 71  - VILA CARRAO - SAO PAUL            03427040                                                            000035
2SR. CAIXA, APOS O VENCIMENTO COBRAR 10% DE MULTA                                NAO RECEBER APOS 30 DIAS DO VENCIMENTO.                                                                                                                                                                                                         02072100000000000000207210000000000000       0090028004416120212462072112000036
100000000000000000000009002800441612000000000000000000000000010002100018470507211200000000002            2  01184705072125072100000004841250000000001N020721000000000000000000000000000000000000000000000000000000000000000100018470520881SILVANA ALVES DE OLIVEIRA               RUA MONTE CASTELO - 262 AP.91 - AVIACAO             11702720                                                            000038
2SR. CAIXA, APOS O VENCIMENTO COBRAR 10% DE MULTA                                NAO RECEBER APOS 30 DIAS DO VENCIMENTO.                                                                                                                                                                                                         02072100000000000000207210000000000000       0090028004416120184705072112000039
100000000000000000000009002800441612000000000000000000000000010002100009297507211200000000002            2  01092975072125072100000003370410000000001N020721000000000000000000000000000000000000000000000000000000000000000100009297523846MARCOS ROBERTO DE CASTRO FERREIRA       RUA MONTE CASTELO - 262 AP.105 - AVIACAO            11702720                                                            000041
2SR. CAIXA, APOS O VENCIMENTO COBRAR 10% DE MULTA                                NAO RECEBER APOS 30 DIAS DO VENCIMENTO.                                                                                                                                                                                                         02072100000000000000207210000000000000       0090028004416120092975072112000042
100000000000000000000009002800441612000000000000000000000000010002100001164107211100000000002            2  01011641072125072100000004176730000000001N020721000000000000000000000000000000000000000000000000000000000000000100001164158864DAVID BLEY LACERDA                      RUA CONEGO ARAUJO MARCONDES - 188 - BAIR            02550080                                                            000044
2SR. CAIXA, APOS O VENCIMENTO COBRAR 10% DE MULTA                                NAO RECEBER APOS 30 DIAS DO VENCIMENTO.                                                                                                                                                                                                         02072100000000000000207210000000000000       0090028004416120011641072111000045
100000000000000000000009002800441612000000000000000000000000010002100031498007211500000000002            2  01314980072125072100000005076200000000001N020721000000000000000000000000000000000000000000000000000000000000000100031498008895POLIANE  SIBELE DA SILVA                PRACA GENERAL COSTA BARRETO - 56 AP.181             03325070                                                            000047
2SR. CAIXA, APOS O VENCIMENTO COBRAR 10% DE MULTA                                NAO RECEBER APOS 30 DIAS DO VENCIMENTO.                                                                                                                                                                                                         02072100000000000000207210000000000000       0090028004416120314980072115000048
100000000000000000000009002800441612000000000000000000000000010002100000588107211900000000002            2  01005881072125072100000002977280000000001N020721000000000000000000000000000000000000000000000000000000000000000100000588109860JOSE LIARTE GIANTE                      AVENIDA LUIZ GONZAGA DO AMARAL - 143 - J            09320630                                                            000050
2SR. CAIXA, APOS O VENCIMENTO COBRAR 10% DE MULTA                                NAO RECEBER APOS 30 DIAS DO VENCIMENTO.                                                                                                                                                                                                         02072100000000000000207210000000000000       0090028004416120005881072119000051
100000000000000000000009002800441612000000000000000000000000010002100014386807211100000000002            2  01143868072125072100000002381710000000001N020721000000000000000000000000000000000000000000000000000000000000000100014386860134SEVERINO CARLOS DE OLIVEIRA             RUA MONTE CASTELO - 262 AP.54 - AVIACAO             11702720                                                            000053
2SR. CAIXA, APOS O VENCIMENTO COBRAR 10% DE MULTA                                NAO RECEBER APOS 30 DIAS DO VENCIMENTO.                                                                                                                                                                                                         02072100000000000000207210000000000000       0090028004416120143868072111000054
100000000000000000000009002800441612000000000000000000000000010002100039393707211700000000002            2  01393937072125072100000001641520000000001N020721000000000000000000000000000000000000000000000000000000000000000100039393790850NAIRON RICARDO DE ARAUJO SANTOS         RUA NITEROI - 267 CASA 04 - JARDIM INDEP            11380350                                                            000056
2SR. CAIXA, APOS O VENCIMENTO COBRAR 10% DE MULTA                                NAO RECEBER APOS 30 DIAS DO VENCIMENTO.                                                                                                                                                                                                         02072100000000000000207210000000000000       0090028004416120393937072117000057
100000000000000000000009002800441612000000000000000000000000010002100004735207211600000000002            2  01047352072125072100000001693220000000001N020721000000000000000000000000000000000000000000000000000000000000000100004735273832DARIO LUIZ GONCALVES                    RUA MONTE CASTELO - 295 AP.113 - AVIACAO            11702720                                                            000059
2SR. CAIXA, APOS O VENCIMENTO COBRAR 10% DE MULTA                                NAO RECEBER APOS 30 DIAS DO VENCIMENTO.                                                                                                                                                                                                         02072100000000000000207210000000000000       0090028004416120047352072116000060
100000000000000000000009002800441612000000000000000000000000010002100019288707211500000000002            2  01192887072125072100000002210670000000001N020721000000000000000000000000000000000000000000000000000000000000000100019288787844EMERSON LUIZ MARTINEZ PEREIRA           RUA MONTE CASTELO - 296 AP.74 - AVIACAO             11702720                                                            000062
2SR. CAIXA, APOS O VENCIMENTO COBRAR 10% DE MULTA                                NAO RECEBER APOS 30 DIAS DO VENCIMENTO.                                                                                                                                                                                                         02072100000000000000207210000000000000       0090028004416120192887072115000063
9                                                                                                                                                                                                                                                                                                                                                                                                         000064