01REMESSA01COBRANCA       00000000000008017025HB SANTOS CONSTRUTORA E INCORP237BRADESCO       011123        MX0000189                                                                                                                                                                                                                                                                                     000001
100000000000000000000009033990000627000000000000000000000000010002020016479011231300000000002            2  01164790112309112300000005652450000000001N011123000000000000000000000000000000000000000000000000000000000000000100016479002806LOURDES PEREIRA DE QUEIROZ SECANECHIA   RUA PAULINO CURSI - 437 - CIDADE SAO MAT            03960060                                                            000002
2SR. CAIXA, APOS O VENCIMENTO COBRAR 2% DE MULTA                                 NAO RECEBER APOS 30 DIAS DO VENCIMENTO.                                                                                                                                                                                                         01112300000000000000111230000000000000       0090339900006270164790112313000003
100000000000000000000009033990000627000000000000000000000000010002020017229711232300000000002            2  01172297112309112300000004301470000000001N011123000000000000000000000000000000000000000000000000000000000000000100017229751802BERENICE VIEIRA KERSTING                RUA ATIBAIA - 17 AP.417 - BAIRRO IMPERAD            11707380                                                            000005
2SR. CAIXA, APOS O VENCIMENTO COBRAR 2% DE MULTA                                 NAO RECEBER APOS 30 DIAS DO VENCIMENTO.                                                                                                                                                                                                         01112300000000000000111230000000000000       0090339900006270172297112323000006
100000000000000000000009033990000627000000000000000000000000010002020009361411231000000000002            2  01093614112309112300000004103680000000001N011123000000000000000000000000000000000000000000000000000000000000000100009361471805JOSE BARBOSA DA SILVA                   RUA ALFREDO INACIO TRINDADE  - 60 AP.44             02344100                                                            000008
2SR. CAIXA, APOS O VENCIMENTO COBRAR 2% DE MULTA                                 NAO RECEBER APOS 30 DIAS DO VENCIMENTO.                                                                                                                                                                                                         01112300000000000000111230000000000000       0090339900006270093614112310000009
100000000000000000000009033990000627000000000000000000000000010002020012756911231400000000002            2  01127569112309112300000003542360000000001N011123000000000000000000000000000000000000000000000000000000000000000100012756959812ITAMAR JUVENAL DIAS DA SILVA            RUA ELISEU REINALDO MORAES VIEIRA - 90 A            02858000                                                            000011
2SR. CAIXA, APOS O VENCIMENTO COBRAR 2% DE MULTA                                 NAO RECEBER APOS 30 DIAS DO VENCIMENTO.                                                                                                                                                                                                         01112300000000000000111230000000000000       0090339900006270127569112314000012
100000000000000000000009033990000627000000000000000000000000010002020029433611231800000000002            2  01294336112311112300000002937800000000001N011123000000000000000000000000000000000000000000000000000000000000000100029433631897MARIO MUNIZ                             RUA JOSE CALIXTO DO CARMO - 286 AP.53 -             11702690                                                            000014
2SR. CAIXA, APOS O VENCIMENTO COBRAR 2% DE MULTA                                 NAO RECEBER APOS 30 DIAS DO VENCIMENTO.                                                                                                                                                                                                         01112300000000000000111230000000000000       0090339900006270294336112318000015
100000000000000000000009033990000627000000000000000000000000010002020005029811231000000000002            2  01050298112309112300000003611650000000001N011123000000000000000000000000000000000000000000000000000000000000000100005029828885LAURINETE DA CONCEICAO DE NORONHA       RUA MARIA LUCIA DE TOLEDO LEITE MORAES -            04434040                                                            000017
2SR. CAIXA, APOS O VENCIMENTO COBRAR 2% DE MULTA                                 NAO RECEBER APOS 30 DIAS DO VENCIMENTO.                                                                                                                                                                                                         01112300000000000000111230000000000000       0090339900006270050298112310000018
100000000000000000000009033990000627000000000000000000000000010002020013388911231200000000002            2  01133889112311112300000002863900000000001N011123000000000000000000000000000000000000000000000000000000000000000100013388936889NEUTON DE SOUZA RAMOS                   RUA JOSE CALIXTO DO CARMO - 286 AP.61 -             11702690                                                            000020
2SR. CAIXA, APOS O VENCIMENTO COBRAR 2% DE MULTA                                 NAO RECEBER APOS 30 DIAS DO VENCIMENTO.                                                                                                                                                                                                         01112300000000000000111230000000000000       0090339900006270133889112312000021
100000000000000000000009033990000627000000000000000000000000010002020012774911231200000000002            2  01127749112311112300000002917670000000001N011123000000000000000000000000000000000000000000000000000000000000000100012774906865JOSE MILTON SANTIAGO                    RUA BATATAIS - 47 - CIDADE ESTELA - POA             08563140                                                            000023
2SR. CAIXA, APOS O VENCIMENTO COBRAR 2% DE MULTA                                 NAO RECEBER APOS 30 DIAS DO VENCIMENTO.                                                                                                                                                                                                         01112300000000000000111230000000000000       0090339900006270127749112312000024
100000000000000000000009033990000627000000000000000000000000010002020005613811231200000000002            2  01056138112311112300000002683440000000001N011123000000000000000000000000000000000000000000000000000000000000000100005613843805NILZA MARIA DE OLIVEIRA                 RUA JOSE GONCALVES DE FREITAS - 66 C2 -             08210550                                                            000026
2SR. CAIXA, APOS O VENCIMENTO COBRAR 2% DE MULTA                                 NAO RECEBER APOS 30 DIAS DO VENCIMENTO.                                                                                                                                                                                                         01112300000000000000111230000000000000       0090339900006270056138112312000027
100000000000000000000009033990000627000000000000000000000000010002020007574911231200000000002            2  01075749112311112300000002754500000000001N011123000000000000000000000000000000000000000000000000000000000000000100007574936889JORGE LUCIANO PEREIRA BORRIELLO         RUA JOSE CALIXTO DO CARMO - 286 AP.54 -             11702690                                                            000029
2SR. CAIXA, APOS O VENCIMENTO COBRAR 2% DE MULTA                                 NAO RECEBER APOS 30 DIAS DO VENCIMENTO.                                                                                                                                                                                                         01112300000000000000111230000000000000       0090339900006270075749112312000030
100000000000000000000009033990000627000000000000000000000000010002020008214911231500000000002            2  01082149112311112300000002796290000000001N011123000000000000000000000000000000000000000000000000000000000000000100008214973830JAMIL CHALA                             RUA JOSE CALIXTO DO CARMO - 286 AP.22 -             11702690                                                            000032
2SR. CAIXA, APOS O VENCIMENTO COBRAR 2% DE MULTA                                 NAO RECEBER APOS 30 DIAS DO VENCIMENTO.                                                                                                                                                                                                         01112300000000000000111230000000000000       0090339900006270082149112315000033
100000000000000000000009033990000627000000000000000000000000010002020032495011231200000000002            2  01324950112311112300000003133610000000001N011123000000000000000000000000000000000000000000000000000000000000000100032495004881PAULO EDUARDO DOS SANTOS                RUA REPUBLICA DO IRAQUE - 1119 - CAMPO B            04611002                                                            000035
2SR. CAIXA, APOS O VENCIMENTO COBRAR 2% DE MULTA                                 NAO RECEBER APOS 30 DIAS DO VENCIMENTO.                                                                                                                                                                                                         01112300000000000000111230000000000000       0090339900006270324950112312000036
100000000000000000000009033990000627000000000000000000000000010002020016498011231P00000000002            2  01164980112311112300000002748240000000001N011123000000000000000000000000000000000000000000000000000000000000000100016498053810GILMA CEZARIO GARCIA CORRITORI          RUA LAURENTINO XAVIER DOS SANTOS - 336 -            08240740                                                            000038
2SR. CAIXA, APOS O VENCIMENTO COBRAR 2% DE MULTA                                 NAO RECEBER APOS 30 DIAS DO VENCIMENTO.                                                                                                                                                                                                         01112300000000000000111230000000000000       009033990000627016498011231P000039
100000000000000000000009033990000627000000000000000000000000010002020029339011231900000000002            2  01293390112311112300000002938780000000001N011123000000000000000000000000000000000000000000000000000000000000000100029339051831RONALD DIDOFF                           RUA CORONEL FERREIRA BRAGA - 188 - VILA             03522010                                                            000041
2SR. CAIXA, APOS O VENCIMENTO COBRAR 2% DE MULTA                                 NAO RECEBER APOS 30 DIAS DO VENCIMENTO.                                                                                                                                                                                                         01112300000000000000111230000000000000       0090339900006270293390112319000042
100000000000000000000009033990000627000000000000000000000000010002020017357811231000000000002            2  01173578112311112300000003112430000000001N011123000000000000000000000000000000000000000000000000000000000000000100017357859894MARCIO GUIMARAES                        RUA GENERAL CAMARA - 188 SALA 11 - CENTR            11010120                                                            000044
2SR. CAIXA, APOS O VENCIMENTO COBRAR 2% DE MULTA                                 NAO RECEBER APOS 30 DIAS DO VENCIMENTO.                                                                                                                                                                                                         01112300000000000000111230000000000000       0090339900006270173578112310000045
100000000000000000000009033990000627000000000000000000000000010002020010563011231000000000002            2  01105630112311112300000003191990000000001N011123000000000000000000000000000000000000000000000000000000000000000100010563033878VERA LUCIA RIBEIRO LONGANEZI            RUA DOS CAMARES - 150 AP.24 BL.02 - CARA            02068030                                                            000047
2SR. CAIXA, APOS O VENCIMENTO COBRAR 2% DE MULTA                                 NAO RECEBER APOS 30 DIAS DO VENCIMENTO.                                                                                                                                                                                                         01112300000000000000111230000000000000       0090339900006270105630112310000048
100000000000000000000009033990000627000000000000000000000000010002020005529611231500000000002            2  01055296112311112300000002896610000000001N011123000000000000000000000000000000000000000000000000000000000000000100005529616801JOAQUIM JORGE DA COSTA                  RUA JOSE CALIXTO DO CARMO - 286 AP.106 -            11702690                                                            000050
2SR. CAIXA, APOS O VENCIMENTO COBRAR 2% DE MULTA                                 NAO RECEBER APOS 30 DIAS DO VENCIMENTO.                                                                                                                                                                                                         01112300000000000000111230000000000000       0090339900006270055296112315000051
100000000000000000000009033990000627000000000000000000000000010002020015550711231100000000002            2  01155507112309112300000002737630000000001N011123000000000000000000000000000000000000000000000000000000000000000100015550706806MARY MIWA                               RUA CARLOS JOSE BORSTENS - 50 AP.105 - A            11702750                                                            000053
2SR. CAIXA, APOS O VENCIMENTO COBRAR 2% DE MULTA                                 NAO RECEBER APOS 30 DIAS DO VENCIMENTO.                                                                                                                                                                                                         01112300000000000000111230000000000000       0090339900006270155507112311000054
100000000000000000000009033990000627000000000000000000000000010002020015464611231100000000002            2  01154646112311112300000003045040000000001N011123000000000000000000000000000000000000000000000000000000000000000100015464647864SONIA TERESA VOLPATO                    RUA JOSE CALIXTO DO CARMO - 286 AP.73 -             11702690                                                            000056
2SR. CAIXA, APOS O VENCIMENTO COBRAR 2% DE MULTA                                 NAO RECEBER APOS 30 DIAS DO VENCIMENTO.                                                                                                                                                                                                         01112300000000000000111230000000000000       0090339900006270154646112311000057
100000000000000000000009033990000627000000000000000000000000010002020008657811231000000000002            2  01086578112311112300000003014480000000001N011123000000000000000000000000000000000000000000000000000000000000000100008657886855ARLINDO DA CRUZ                         AVENIDA ARICANDUVA - 8.256 AP.54 BL.10 -            03951220                                                            000059
2SR. CAIXA, APOS O VENCIMENTO COBRAR 2% DE MULTA                                 NAO RECEBER APOS 30 DIAS DO VENCIMENTO.                                                                                                                                                                                                         01112300000000000000111230000000000000       0090339900006270086578112310000060
100000000000000000000009033990000627000000000000000000000000010002020059735111231900000000002            2  01597351112309112300000001703810000000001N011123000000000000000000000000000000000000000000000000000000000000000100059735180863HELIO JOSE MARQUES                      RUA MARTIM AFONSO DE SOUZA - 1007 AP.102            11702790                                                            000062
2SR. CAIXA, APOS O VENCIMENTO COBRAR 2% DE MULTA                                 NAO RECEBER APOS 30 DIAS DO VENCIMENTO.                                                                                                                                                                                                         01112300000000000000111230000000000000       0090339900006270597351112319000063
100000000000000000000009033990000627000000000000000000000000010002020026347811231200000000002            2  01263478112311112300000003222380000000001N011123000000000000000000000000000000000000000000000000000000000000000100026347872862VALDECI SILVA MEIRELES                  RUA JOSE BATISTA DA SILVA - 292 - JARDIM            06851470                                                            000065
2SR. CAIXA, APOS O VENCIMENTO COBRAR 2% DE MULTA                                 NAO RECEBER APOS 30 DIAS DO VENCIMENTO.                                                                                                                                                                                                         01112300000000000000111230000000000000       0090339900006270263478112312000066
100000000000000000000009033990000627000000000000000000000000010002020013135211231300000000002            2  01131352112311112300000002960530000000001N011123000000000000000000000000000000000000000000000000000000000000000100013135261859EDUARDO ZANOLA                          RUA ROLANDO PIETRO BONINI - 46 - JARDIM             09781040                                                            000068
2SR. CAIXA, APOS O VENCIMENTO COBRAR 2% DE MULTA                                 NAO RECEBER APOS 30 DIAS DO VENCIMENTO.                                                                                                                                                                                                         01112300000000000000111230000000000000       0090339900006270131352112313000069
100000000000000000000009033990000627000000000000000000000000010002020009797611231400000000002            2  01097976112311112300000002883230000000001N011123000000000000000000000000000000000000000000000000000000000000000100009797626857RICARDO SOBRAL DE OLIVEIRA              RUA 23 DE MAIO - 139 AP.32 - VILA MIRIM             11704690                                                            000071
2SR. CAIXA, APOS O VENCIMENTO COBRAR 2% DE MULTA                                 NAO RECEBER APOS 30 DIAS DO VENCIMENTO.                                                                                                                                                                                                         01112300000000000000111230000000000000       0090339900006270097976112314000072
100000000000000000000009033990000627000000000000000000000000010002020022728411231500000000002            2  01227284112311112300000003119880000000001N011123000000000000000000000000000000000000000000000000000000000000000100022728497842WILLIAN DE SOUZA MELLO                  RUA JOSE CALIXTO DO CARMO - 286 AP.111 -            11702690                                                            000074
2SR. CAIXA, APOS O VENCIMENTO COBRAR 2% DE MULTA                                 NAO RECEBER APOS 30 DIAS DO VENCIMENTO.                                                                                                                                                                                                         01112300000000000000111230000000000000       0090339900006270227284112315000075
100000000000000000000009033990000627000000000000000000000000010002020016909711231P00000000002            2  01169097112311112300000002757000000000001N011123000000000000000000000000000000000000000000000000000000000000000100016909746805EDIVALDO SANTANA DOS SANTOS             ESTRADA JOAO GASPAR DELGADO - 80 AP.213             08536100                                                            000077
2SR. CAIXA, APOS O VENCIMENTO COBRAR 2% DE MULTA                                 NAO RECEBER APOS 30 DIAS DO VENCIMENTO.                                                                                                                                                                                                         01112300000000000000111230000000000000       009033990000627016909711231P000078
100000000000000000000009033990000627000000000000000000000000010002020022036011231700000000002            2  01220360112309112300000004279650000000001N011123000000000000000000000000000000000000000000000000000000000000000100022036003818DERLIS TERAN QUIROGA ROGATO             RUA JOAO RIBEIRO - 320 AP.131SB - CAMPES            09070250                                                            000080
2SR. CAIXA, APOS O VENCIMENTO COBRAR 2% DE MULTA                                 NAO RECEBER APOS 30 DIAS DO VENCIMENTO.                                                                                                                                                                                                         01112300000000000000111230000000000000       0090339900006270220360112317000081
100000000000000000000009033990000627000000000000000000000000010002020017229711233100000000002            2  01172297112309112300000004130230000000001N011123000000000000000000000000000000000000000000000000000000000000000100017229751802BERENICE VIEIRA KERSTING                RUA ATIBAIA - 17 AP.417 - BAIRRO IMPERAD            11707380                                                            000083
2SR. CAIXA, APOS O VENCIMENTO COBRAR 2% DE MULTA                                 NAO RECEBER APOS 30 DIAS DO VENCIMENTO.                                                                                                                                                                                                         01112300000000000000111230000000000000       0090339900006270172297112331000084
100000000000000000000009033990000627000000000000000000000000010002020033451611231800000000002            2  01334516112311112300000002495560000000001N011123000000000000000000000000000000000000000000000000000000000000000100033451620839ARAO ELISIARIO  NUNES                   RUA JOSE CALIXTO DO CARMO - 286 AP.64 -             11702690                                                            000086
2SR. CAIXA, APOS O VENCIMENTO COBRAR 2% DE MULTA                                 NAO RECEBER APOS 30 DIAS DO VENCIMENTO.                                                                                                                                                                                                         01112300000000000000111230000000000000       0090339900006270334516112318000087
100000000000000000000009033990000627000000000000000000000000010002020011369111231600000000002            2  01113691112311112300000002726080000000001N011123000000000000000000000000000000000000000000000000000000000000000100011369165803ELIANA CORREA DE OLIVEIRA               RUA MAESTRO ZEFERINO SANTANA - 65 - VILA            18040010                                                            000089
2SR. CAIXA, APOS O VENCIMENTO COBRAR 2% DE MULTA                                 NAO RECEBER APOS 30 DIAS DO VENCIMENTO.                                                                                                                                                                                                         01112300000000000000111230000000000000       0090339900006270113691112316000090
100000000000000000000009033990000627000000000000000000000000010002020002253811231P00000000002            2  01022538112311112300000002422950000000001N011123000000000000000000000000000000000000000000000000000000000000000100002253816809EDMILSON ALVES DA SILVA                 RUA JOSE CALIXTO DO CARMO - 286 AP.93 -             11702690                                                            000092
2SR. CAIXA, APOS O VENCIMENTO COBRAR 2% DE MULTA                                 NAO RECEBER APOS 30 DIAS DO VENCIMENTO.                                                                                                                                                                                                         01112300000000000000111230000000000000       009033990000627002253811231P000093
100000000000000000000009033990000627000000000000000000000000010002020037517711231P00000000002            2  01375177112309112300000004539240000000001N011123000000000000000000000000000000000000000000000000000000000000000100037517785869RENATO JOSE DE LIMA MELO                RUA ARISTIDES LOBO - 148 AP.41 BLOCO 03             03041100                                                            000095
2SR. CAIXA, APOS O VENCIMENTO COBRAR 2% DE MULTA                                 NAO RECEBER APOS 30 DIAS DO VENCIMENTO.                                                                                                                                                                                                         01112300000000000000111230000000000000       009033990000627037517711231P000096
100000000000000000000009033990000627000000000000000000000000010002020070367911231000000000002            2  01703679112311112300000002275310000000001N011123000000000000000000000000000000000000000000000000000000000000000100070367949849TEODOMIRO ALVES DOS SANTOS              RUA ANDRE PAZ - 13 - JARDIM SANTO ANDRE             08390230                                                            000098
2SR. CAIXA, APOS O VENCIMENTO COBRAR 2% DE MULTA                                 NAO RECEBER APOS 30 DIAS DO VENCIMENTO.                                                                                                                                                                                                         01112300000000000000111230000000000000       0090339900006270703679112310000099
100000000000000000000009033990000627000000000000000000000000010002020004410811231P00000000002            2  01044108112309112300000003372700000000001N011123000000000000000000000000000000000000000000000000000000000000000100004410802860LUIZ ALBERTO MARINHO                    AVENIDA BOSQUE DA SAUDE - 546 AP11 -  -             04142081                                                            000101
2SR. CAIXA, APOS O VENCIMENTO COBRAR 2% DE MULTA                                 NAO RECEBER APOS 30 DIAS DO VENCIMENTO.                                                                                                                                                                                                         01112300000000000000111230000000000000       009033990000627004410811231P000102
100000000000000000000009033990000627000000000000000000000000010002020004767611231500000000002            2  01047676112309112300000004502450000000001N011123000000000000000000000000000000000000000000000000000000000000000100004767679893ORLANDO GRANDE FILHO                    RUA ORLANDO MIGLIARI - 101 - JARDIM OURO            19906140                                                            000104
2SR. CAIXA, APOS O VENCIMENTO COBRAR 2% DE MULTA                                 NAO RECEBER APOS 30 DIAS DO VENCIMENTO.                                                                                                                                                                                                         01112300000000000000111230000000000000       0090339900006270047676112315000105
100000000000000000000009033990000627000000000000000000000000010002020064677811231000000000002            2  01646778112309112300000003621880000000001N011123000000000000000000000000000000000000000000000000000000000000000100064677850887ANTONIO CARLOS DE OLIVEIRA              RUA DR.ANTONIO MAZILLI FILHO - 435 - PAR            02230070                                                            000107
2SR. CAIXA, APOS O VENCIMENTO COBRAR 2% DE MULTA                                 NAO RECEBER APOS 30 DIAS DO VENCIMENTO.                                                                                                                                                                                                         01112300000000000000111230000000000000       0090339900006270646778112310000108
100000000000000000000009033990000627000000000000000000000000010002020028082611231500000000002            2  01280826112311112300000002526130000000001N011123000000000000000000000000000000000000000000000000000000000000000100028082615869PRISCILA PEREIRA                        ALAMEDA AFONSO BOCCHIGLIERI - 184 - INTE            04445130                                                            000110
2SR. CAIXA, APOS O VENCIMENTO COBRAR 2% DE MULTA                                 NAO RECEBER APOS 30 DIAS DO VENCIMENTO.                                                                                                                                                                                                         01112300000000000000111230000000000000       0090339900006270280826112315000111
100000000000000000000009033990000627000000000000000000000000010002020058488611231300000000002            2  01584886112309112300000003303450000000001N011123000000000000000000000000000000000000000000000000000000000000000100058488618972ADAILTON ZANUTTO MORESCHI               R:RAPHAEL UNGARO - COND.RESERVA SERRA Q.            13212138                                                            000113
2SR. CAIXA, APOS O VENCIMENTO COBRAR 2% DE MULTA                                 NAO RECEBER APOS 30 DIAS DO VENCIMENTO.                                                                                                                                                                                                         01112300000000000000111230000000000000       0090339900006270584886112313000114
100000000000000000000009033990000627000000000000000000000000010002020002196011231800000000002            2  01021960112311112300000002484880000000001N011123000000000000000000000000000000000000000000000000000000000000000100002196012831VILEFORT DIAS BORGES                    RUA PORTO XAVIER - 189 AP.64 - VILA CARM            08210170                                                            000116
2SR. CAIXA, APOS O VENCIMENTO COBRAR 2% DE MULTA                                 NAO RECEBER APOS 30 DIAS DO VENCIMENTO.                                                                                                                                                                                                         01112300000000000000111230000000000000       0090339900006270021960112318000117
100000000000000000000009033990000627000000000000000000000000010002020031861511231600000000002            2  01318615112311112300000002582730000000001N011123000000000000000000000000000000000000000000000000000000000000000100031861586809VANIA TOMAZ                              -  -  -  -                                         00000000                                                            000119
2SR. CAIXA, APOS O VENCIMENTO COBRAR 2% DE MULTA                                 NAO RECEBER APOS 30 DIAS DO VENCIMENTO.                                                                                                                                                                                                         01112300000000000000111230000000000000       0090339900006270318615112316000120
100000000000000000000009033990000627000000000000000000000000010002020003104511231P00000000002            2  01031045112309112300000009616210000000001N011123000000000000000000000000000000000000000000000000000000000000000100003104580804NELSON RODRIGUES                        RUA CARLOS JOSE BORSTENS - 50 AP.81 - AV            11702750                                                            000122
2SR. CAIXA, APOS O VENCIMENTO COBRAR 2% DE MULTA                                 NAO RECEBER APOS 30 DIAS DO VENCIMENTO.                                                                                                                                                                                                         01112300000000000000111230000000000000       009033990000627003104511231P000123
100000000000000000000009033990000627000000000000000000000000010002020007715311231800000000002            2  01077153112309112300000004062850000000001N011123000000000000000000000000000000000000000000000000000000000000000100007715360627NILTON RENNAN OLIVEIRA GOMES FILHO      RUA CARLOS JOSE BORSTENS - 50 AP.21 - AV            11702750                                                            000125
2SR. CAIXA, APOS O VENCIMENTO COBRAR 2% DE MULTA                                 NAO RECEBER APOS 30 DIAS DO VENCIMENTO.                                                                                                                                                                                                         01112300000000000000111230000000000000       0090339900006270077153112318000126
100000000000000000000009033990000627000000000000000000000000010002020007194011231900000000002            2  01071940112311112300000002888140000000001N011123000000000000000000000000000000000000000000000000000000000000000100007194010895RAUL AMANTINO KIRK DE SANCTIS           AVENIDA SANTA CATARINA - 756 AP.01 - VIL            04378000                                                            000128
2SR. CAIXA, APOS O VENCIMENTO COBRAR 2% DE MULTA                                 NAO RECEBER APOS 30 DIAS DO VENCIMENTO.                                                                                                                                                                                                         01112300000000000000111230000000000000       0090339900006270071940112319000129
100000000000000000000009033990000627000000000000000000000000010002020011141511231800000000002            2  01111415112311112300000003034920000000001N011123000000000000000000000000000000000000000000000000000000000000000100011141508869PAULO ROBERTO TUNES SILVA               RUA PETROBRAS - 405 CASA 07 - VILA ANTON            03474060                                                            000131
2SR. CAIXA, APOS O VENCIMENTO COBRAR 2% DE MULTA                                 NAO RECEBER APOS 30 DIAS DO VENCIMENTO.                                                                                                                                                                                                         01112300000000000000111230000000000000       0090339900006270111415112318000132
100000000000000000000009033990000627000000000000000000000000010002020012449111231300000000002            2  01124491112311112300000003058070000000001N011123000000000000000000000000000000000000000000000000000000000000000100012449104810GILBERTO DOS SANTOS JUNIOR              RUA ALMIRANTE TAMANDARE - 89 AP.143 - BA            09310350                                                            000134
2SR. CAIXA, APOS O VENCIMENTO COBRAR 2% DE MULTA                                 NAO RECEBER APOS 30 DIAS DO VENCIMENTO.                                                                                                                                                                                                         01112300000000000000111230000000000000       0090339900006270124491112313000135
100000000000000000000009033990000627000000000000000000000000010002020011261311231100000000002            2  01112613112309112300000004033760000000001N011123000000000000000000000000000000000000000000000000000000000000000100011261359844JOVANETE DOS SANTOS PASSOS              RUA FULVIO MORGANTI - 672 - JARDIM PARAI            02417170                                                            000137
2SR. CAIXA, APOS O VENCIMENTO COBRAR 2% DE MULTA                                 NAO RECEBER APOS 30 DIAS DO VENCIMENTO.                                                                                                                                                                                                         01112300000000000000111230000000000000       0090339900006270112613112311000138
100000000000000000000009033990000627000000000000000000000000010002020036279311231000000000002            2  01362793112309112300000003585760000000001N011123000000000000000000000000000000000000000000000000000000000000000100036279398838BRUNO DOCINI ORTEGA                     RUA GENERAL EUCLIDES FIGUEIREDO - 146 AP            11700780                                                            000140
2SR. CAIXA, APOS O VENCIMENTO COBRAR 2% DE MULTA                                 NAO RECEBER APOS 30 DIAS DO VENCIMENTO.                                                                                                                                                                                                         01112300000000000000111230000000000000       0090339900006270362793112310000141
100000000000000000000009033990000627000000000000000000000000010002020008475111231000000000002            2  01084751112309112300000004041260000000001N011123000000000000000000000000000000000000000000000000000000000000000100008475110819HELENA ROSA DOS SANTOS                  AVENIDA ZELIA - 278 CASA 02 - PARQUE DOS            06436000                                                            000143
2SR. CAIXA, APOS O VENCIMENTO COBRAR 2% DE MULTA                                 NAO RECEBER APOS 30 DIAS DO VENCIMENTO.                                                                                                                                                                                                         01112300000000000000111230000000000000       0090339900006270084751112310000144
100000000000000000000009033990000627000000000000000000000000010002020001098211231P00000000002            2  01010982112309112300000004418930000000001N011123000000000000000000000000000000000000000000000000000000000000000100001098222857JANDIRA DOS SANTOS PASSOS               RUA FULVIO MORGANTI - 672 - JARDIM PARAI            02417170                                                            000146
2SR. CAIXA, APOS O VENCIMENTO COBRAR 2% DE MULTA                                 NAO RECEBER APOS 30 DIAS DO VENCIMENTO.                                                                                                                                                                                                         01112300000000000000111230000000000000       009033990000627001098211231P000147
9                                                                                                                                                                                                                                                                                                                                                                                                         000148