01REMESSA01COBRANCA       00000000000008017025HB SANTOS CONSTRUTORA E INCORP237BRADESCO       090318        MX0000051                                                                                                                                                                                                                                                                                     000001
100000000000000000000009033990000627000000000000000000000000010002020025035103181500000000002            2  01250351031824031800000001841800000000001N090318000000000000000000000000000000000000000000000000000000000000000100025035170802WANDERSON LUIS DE CARVALHO              RUA JOAQUIM GONCALVES ROCHA - 302 - JARD            02859030                                                            000002
2SR. CAIXA, APOS O VENCIMENTO COBRAR 2% DE MULTA                                 NAO RECEBER APOS 30 DIAS DO VENCIMENTO.                                                                                                                                                                                                         09031800000000000000903180000000000000       0090339900006270250351031815000003
100000000000000000000009033990000627000000000000000000000000010002020007294303181200000000002            2  01072943031824031800000002477270000000001N090318000000000000000000000000000000000000000000000000000000000000000100007294351805CLAUDENIR APARECIDO VACARI              RUA OFELIA CHAVES DE MEIRELLES - 989 CAS            11360210                                                            000005
2SR. CAIXA, APOS O VENCIMENTO COBRAR 2% DE MULTA                                 NAO RECEBER APOS 30 DIAS DO VENCIMENTO.                                                                                                                                                                                                         09031800000000000000903180000000000000       0090339900006270072943031812000006
100000000000000000000009033990000627000000000000000000000000010002020042976103181200000000002            2  01429761031824031800000002503260000000001N090318000000000000000000000000000000000000000000000000000000000000000100042976111634ACACIO TOSCANO BONDANCA                 RUA COMENDADOR JACOMO ANTONIO LA SELVA -            12946797                                                            000008
2SR. CAIXA, APOS O VENCIMENTO COBRAR 2% DE MULTA                                 NAO RECEBER APOS 30 DIAS DO VENCIMENTO.                                                                                                                                                                                                         09031800000000000000903180000000000000       0090339900006270429761031812000009
100000000000000000000009033990000627000000000000000000000000010002020035438003181600000000002            2  01354380031824031800000002114130000000001N090318000000000000000000000000000000000000000000000000000000000000000100035438022836ALESSANDRO FARACO DOS SANTOS            RUA PEDRO POMAR  - 145 - JARDIM ELISA MA            02875020                                                            000011
2SR. CAIXA, APOS O VENCIMENTO COBRAR 2% DE MULTA                                 NAO RECEBER APOS 30 DIAS DO VENCIMENTO.                                                                                                                                                                                                         09031800000000000000903180000000000000       0090339900006270354380031816000012
100000000000000000000009033990000627000000000000000000000000010002020007525003181800000000002            2  01075250031824031800000002770940000000001N090318000000000000000000000000000000000000000000000000000000000000000100007525032866FERNANDO RIBEIRO                        RUA ALDO COLI - 539 - VILA MIRIM - PRAIA            11704760                                                            000014
2SR. CAIXA, APOS O VENCIMENTO COBRAR 2% DE MULTA                                 NAO RECEBER APOS 30 DIAS DO VENCIMENTO.                                                                                                                                                                                                         09031800000000000000903180000000000000       0090339900006270075250031818000015
100000000000000000000009033990000627000000000000000000000000010002020005071403181300000000002            2  01050714031824031800000002430630000000001N090318000000000000000000000000000000000000000000000000000000000000000100005071481855ERIBALDO SANTANA CARVALHO               RUA HONDURAS - 477 - PARQUE DAS AMERICAS            09351070                                                            000017
2SR. CAIXA, APOS O VENCIMENTO COBRAR 2% DE MULTA                                 NAO RECEBER APOS 30 DIAS DO VENCIMENTO.                                                                                                                                                                                                         09031800000000000000903180000000000000       0090339900006270050714031813000018
100000000000000000000009033990000627000000000000000000000000010002020002841703181700000000002            2  01028417031824031800000002274070000000001N090318000000000000000000000000000000000000000000000000000000000000000100002841756416LUCIANA PINHEIRO DE ASSIS NUNES         RUA RIO ACIMA - 81 - RIACHO GRANDE - SAO            09830100                                                            000020
2SR. CAIXA, APOS O VENCIMENTO COBRAR 2% DE MULTA                                 NAO RECEBER APOS 30 DIAS DO VENCIMENTO.                                                                                                                                                                                                         09031800000000000000903180000000000000       0090339900006270028417031817000021
100000000000000000000009033990000627000000000000000000000000010002020084302003181600000000002            2  01843020031824031800000002284960000000001N090318000000000000000000000000000000000000000000000000000000000000000100084302097868FAUSTO TADEU VILOR                      RUA ANTONIO TAVARES - 466 - BAIRRO CAMBU            01542010                                                            000023
2SR. CAIXA, APOS O VENCIMENTO COBRAR 2% DE MULTA                                 NAO RECEBER APOS 30 DIAS DO VENCIMENTO.                                                                                                                                                                                                         09031800000000000000903180000000000000       0090339900006270843020031816000024
100000000000000000000009033990000627000000000000000000000000010002020028804203181600000000002            2  01288042031824031800000002245010000000001N090318000000000000000000000000000000000000000000000000000000000000000100028804202882GILBERTO FABIANO CABRAL DE CAMARGO      RUA JOAO AMADO COUTINHO - 444 AP.11 A -             02815000                                                            000026
2SR. CAIXA, APOS O VENCIMENTO COBRAR 2% DE MULTA                                 NAO RECEBER APOS 30 DIAS DO VENCIMENTO.                                                                                                                                                                                                         09031800000000000000903180000000000000       0090339900006270288042031816000027
100000000000000000000009033990000627000000000000000000000000010002020000991703181900000000002            2  01009917031824031800000002191200000000001N090318000000000000000000000000000000000000000000000000000000000000000100000991748808JAILSON BORGES DE ANDRADE               RUA IPIOBUNA - 45 - JARDIM CUMBICA - GUA            07240040                                                            000029
2SR. CAIXA, APOS O VENCIMENTO COBRAR 2% DE MULTA                                 NAO RECEBER APOS 30 DIAS DO VENCIMENTO.                                                                                                                                                                                                         09031800000000000000903180000000000000       0090339900006270009917031819000030
100000000000000000000009033990000627000000000000000000000000010002020092180203181600000000002            2  01921802031824031800000002987460000000001N090318000000000000000000000000000000000000000000000000000000000000000100092180299834LUIS ROBERTO DE SA DUARTE               RUA TEBAS - 296 AP.84 BLOCO 2 CE - JARDI            04634031                                                            000032
2SR. CAIXA, APOS O VENCIMENTO COBRAR 2% DE MULTA                                 NAO RECEBER APOS 30 DIAS DO VENCIMENTO.                                                                                                                                                                                                         09031800000000000000903180000000000000       0090339900006270921802031816000033
100000000000000000000009033990000627000000000000000000000000010002020022151603181500000000002            2  01221516031824031800000002178500000000001N090318000000000000000000000000000000000000000000000000000000000000000100022151666816SAMIR LIMA DE ARAUJO                    AVENIDA GUARAPIRANGA - 2616 AP.42 BLOCO1            04902005                                                            000035
2SR. CAIXA, APOS O VENCIMENTO COBRAR 2% DE MULTA                                 NAO RECEBER APOS 30 DIAS DO VENCIMENTO.                                                                                                                                                                                                         09031800000000000000903180000000000000       0090339900006270221516031815000036
100000000000000000000009033990000627000000000000000000000000010002020022313103181700000000002            2  01223131031826031800000001730800000000001N090318000000000000000000000000000000000000000000000000000000000000000100022313116824ROSA MARIA BRITO DA SILVA               RUA SERVIDAO DE SAO MARCOS - 113 - JARDI            04930300                                                            000038
2SR. CAIXA, APOS O VENCIMENTO COBRAR 2% DE MULTA                                 NAO RECEBER APOS 30 DIAS DO VENCIMENTO.                                                                                                                                                                                                         09031800000000000000903180000000000000       0090339900006270223131031817000039
100000000000000000000009033990000627000000000000000000000000010002020027538003181900000000002            2  01275380031826031800000001736830000000001N090318000000000000000000000000000000000000000000000000000000000000000100027538087249MARA LUCIA MENEZES DA COSTA             RUA LEILA  - 183 - ITAQUERA - SAO PAULO             08240020                                                            000041
2SR. CAIXA, APOS O VENCIMENTO COBRAR 2% DE MULTA                                 NAO RECEBER APOS 30 DIAS DO VENCIMENTO.                                                                                                                                                                                                         09031800000000000000903180000000000000       0090339900006270275380031819000042
100000000000000000000009033990000627000000000000000000000000010002020020105503181700000000002            2  01201055031826031800000001838670000000001N090318000000000000000000000000000000000000000000000000000000000000000100020105503827VALTER DE SOUSA LIBARINO FILHO          RUA DAS PAINEIRAS - 140 - LARANJEIRAS -             07700000                                                            000044
2SR. CAIXA, APOS O VENCIMENTO COBRAR 2% DE MULTA                                 NAO RECEBER APOS 30 DIAS DO VENCIMENTO.                                                                                                                                                                                                         09031800000000000000903180000000000000       0090339900006270201055031817000045
100000000000000000000009033990000627000000000000000000000000010002020031278403181500000000002            2  01312784031824031800000002104500000000001N090318000000000000000000000000000000000000000000000000000000000000000100031278411836JEFFERSON DE PIERI PIRES ZAMUNER        RUA MANOEL ARCE - 277 - PARQUE BANCARIO             03922150                                                            000047
2SR. CAIXA, APOS O VENCIMENTO COBRAR 2% DE MULTA                                 NAO RECEBER APOS 30 DIAS DO VENCIMENTO.                                                                                                                                                                                                         09031800000000000000903180000000000000       0090339900006270312784031815000048
100000000000000000000009033990000627000000000000000000000000010002020019185703181700000000002            2  01191857031826031800000001580560000000001N090318000000000000000000000000000000000000000000000000000000000000000100019185769800AGUINALDO PESSOA DE LIMA                RUA JANUARIO ZINGARO - 252 AP.303 BL.04             05794300                                                            000050
2SR. CAIXA, APOS O VENCIMENTO COBRAR 2% DE MULTA                                 NAO RECEBER APOS 30 DIAS DO VENCIMENTO.                                                                                                                                                                                                         09031800000000000000903180000000000000       0090339900006270191857031817000051
100000000000000000000009033990000627000000000000000000000000010002020033303603181800000000002            2  01333036031826031800000001065020000000001N090318000000000000000000000000000000000000000000000000000000000000000100033303645809JESSICA DA SILVA FREITAS                RUA ARILDO VALADAO - 120 - JARDIM GUAEMB            04814600                                                            000053
2SR. CAIXA, APOS O VENCIMENTO COBRAR 2% DE MULTA                                 NAO RECEBER APOS 30 DIAS DO VENCIMENTO.                                                                                                                                                                                                         09031800000000000000903180000000000000       0090339900006270333036031818000054
100000000000000000000009033990000627000000000000000000000000010002020004824403181700000000002            2  01048244031826031800000001715860000000001N090318000000000000000000000000000000000000000000000000000000000000000100004824443806ROSIMEIRE CLARA FERREIRA REZENDE        RUA JOAQUIM DE OLIVEIRA FREITAS - 912 AP            05133000                                                            000056
2SR. CAIXA, APOS O VENCIMENTO COBRAR 2% DE MULTA                                 NAO RECEBER APOS 30 DIAS DO VENCIMENTO.                                                                                                                                                                                                         09031800000000000000903180000000000000       0090339900006270048244031817000057
100000000000000000000009033990000627000000000000000000000000010002020006422603181300000000002            2  01064226031824031800000042582980000000001N090318000000000000000000000000000000000000000000000000000000000000000100006422607881GERALDO ALVES DA SILVA                  RUA ALFREDO JOREL - 195 AP.5 CONDOMINIO             04195020                                                            000059
2SR. CAIXA, APOS O VENCIMENTO COBRAR 2% DE MULTA                                 NAO RECEBER APOS 30 DIAS DO VENCIMENTO.                                                                                                                                                                                                         09031800000000000000903180000000000000       0090339900006270064226031813000060
100000000000000000000009033990000627000000000000000000000000010002020006422603182100000000002            2  01064226031824031800000002279230000000001N090318000000000000000000000000000000000000000000000000000000000000000100006422607881GERALDO ALVES DA SILVA                  RUA ALFREDO JOREL - 195 AP.5 CONDOMINIO             04195020                                                            000062
2SR. CAIXA, APOS O VENCIMENTO COBRAR 2% DE MULTA                                 NAO RECEBER APOS 30 DIAS DO VENCIMENTO.                                                                                                                                                                                                         09031800000000000000903180000000000000       0090339900006270064226031821000063
100000000000000000000009033990000627000000000000000000000000010002020033877103181500000000002            2  01338771031826031800000001596050000000001N090318000000000000000000000000000000000000000000000000000000000000000100033877129870HELDER FERREIRA VIANA                   RUA LEOPOLDO MOTTA E SILVA - 93 AP.34 -             11320340                                                            000065
2SR. CAIXA, APOS O VENCIMENTO COBRAR 2% DE MULTA                                 NAO RECEBER APOS 30 DIAS DO VENCIMENTO.                                                                                                                                                                                                         09031800000000000000903180000000000000       0090339900006270338771031815000066
100000000000000000000009033990000627000000000000000000000000010002020028290703181900000000002            2  01282907031826031800000001470950000000001N090318000000000000000000000000000000000000000000000000000000000000000100028290719809VANESSA GIANGARRELLI PEREIRA            RUA BARINEL - 72 - JARDIM COTCHING - SAO            03462130                                                            000068
2SR. CAIXA, APOS O VENCIMENTO COBRAR 2% DE MULTA                                 NAO RECEBER APOS 30 DIAS DO VENCIMENTO.                                                                                                                                                                                                         09031800000000000000903180000000000000       0090339900006270282907031819000069
100000000000000000000009033990000627000000000000000000000000010002020087573003181400000000002            2  01875730031826031800000001606280000000001N090318000000000000000000000000000000000000000000000000000000000000000100087573059604VANDERLEY DE ASSIS                      RUA ROMEU ALBANI - 268 - JARDIM PARQUE R            13803810                                                            000071
2SR. CAIXA, APOS O VENCIMENTO COBRAR 2% DE MULTA                                 NAO RECEBER APOS 30 DIAS DO VENCIMENTO.                                                                                                                                                                                                         09031800000000000000903180000000000000       0090339900006270875730031814000072
100000000000000000000009033990000627000000000000000000000000010002020010825503181100000000002            2  01108255031826031800000001676240000000001N090318000000000000000000000000000000000000000000000000000000000000000100010825513847JOSE APARECIDO PEREIRA                  RUA GENERAL OSORIO - 305 - JARDIM TRINTA            11515130                                                            000074
2SR. CAIXA, APOS O VENCIMENTO COBRAR 2% DE MULTA                                 NAO RECEBER APOS 30 DIAS DO VENCIMENTO.                                                                                                                                                                                                         09031800000000000000903180000000000000       0090339900006270108255031811000075
100000000000000000000009033990000627000000000000000000000000010002020038818503181100000000002            2  01388185031826031800000002619140000000001N090318000000000000000000000000000000000000000000000000000000000000000100038818572814MAURICIUS ALEXANDRE ESTEVAM NABOR       RUA RAUL SERAPIAO BARROSO - 379 - ESPLAN            11340330                                                            000077
2SR. CAIXA, APOS O VENCIMENTO COBRAR 2% DE MULTA                                 NAO RECEBER APOS 30 DIAS DO VENCIMENTO.                                                                                                                                                                                                         09031800000000000000903180000000000000       0090339900006270388185031811000078
100000000000000000000009033990000627000000000000000000000000010002020039115103181300000000002            2  01391151031826031800000002066250000000001N090318000000000000000000000000000000000000000000000000000000000000000100039115139840LAIS CRISTINA RIBEIRO ANDO              RUA PERU - 769 AP.17 - VILA GUILHERMINA             11702250                                                            000080
2SR. CAIXA, APOS O VENCIMENTO COBRAR 2% DE MULTA                                 NAO RECEBER APOS 30 DIAS DO VENCIMENTO.                                                                                                                                                                                                         09031800000000000000903180000000000000       0090339900006270391151031813000081
100000000000000000000009033990000627000000000000000000000000010002020029617503181100000000002            2  01296175031824031800000002237120000000001N090318000000000000000000000000000000000000000000000000000000000000000100029617510553MARILENE SOUZA DE OLIVEIRA              AVENIDA BRASIL - 393 AP.09 - PARQUE DAS             09210280                                                            000083
2SR. CAIXA, APOS O VENCIMENTO COBRAR 2% DE MULTA                                 NAO RECEBER APOS 30 DIAS DO VENCIMENTO.                                                                                                                                                                                                         09031800000000000000903180000000000000       0090339900006270296175031811000084
100000000000000000000009033990000627000000000000000000000000010002020007730003181700000000002            2  01077300031824031800000003489230000000001N090318000000000000000000000000000000000000000000000000000000000000000100007730084899ARNALDO LUIZ VONO                       RUA CRESPO DE CARVALHO - 36 - PARQUE SAO            02832210                                                            000086
2SR. CAIXA, APOS O VENCIMENTO COBRAR 2% DE MULTA                                 NAO RECEBER APOS 30 DIAS DO VENCIMENTO.                                                                                                                                                                                                         09031800000000000000903180000000000000       0090339900006270077300031817000087
100000000000000000000009033990000627000000000000000000000000010002020065584103181300000000002            2  01655841031824031800000001287970000000001N090318000000000000000000000000000000000000000000000000000000000000000100065584147834JOAQUIM DA COSTA MACHADO NETO           RUA SERTANISTA FRANCISCO MEIRELIS - 439             11703460                                                            000089
2SR. CAIXA, APOS O VENCIMENTO COBRAR 2% DE MULTA                                 NAO RECEBER APOS 30 DIAS DO VENCIMENTO.                                                                                                                                                                                                         09031800000000000000903180000000000000       0090339900006270655841031813000090
100000000000000000000009033990000627000000000000000000000000010002020001616903181500000000002            2  01016169031824031800000002265180000000001N090318000000000000000000000000000000000000000000000000000000000000000100001616913827CLAUDIO LUIZ PAULELLA                   PRACA NESTOR DOS SANTOS ARRUDA - 26 - VI            13920000                                                            000092
2SR. CAIXA, APOS O VENCIMENTO COBRAR 2% DE MULTA                                 NAO RECEBER APOS 30 DIAS DO VENCIMENTO.                                                                                                                                                                                                         09031800000000000000903180000000000000       0090339900006270016169031815000093
100000000000000000000009033990000627000000000000000000000000010002020006684603181600000000002            2  01066846031826031800000001702160000000001N090318000000000000000000000000000000000000000000000000000000000000000100006684623884LAUDINOR VIEIRA GARCIA                  RUA CANDIDO SALES - 374 - JARDIM PRESIDE            07172000                                                            000095
2SR. CAIXA, APOS O VENCIMENTO COBRAR 2% DE MULTA                                 NAO RECEBER APOS 30 DIAS DO VENCIMENTO.                                                                                                                                                                                                         09031800000000000000903180000000000000       0090339900006270066846031816000096
100000000000000000000009033990000627000000000000000000000000010002020011663503181700000000002            2  01116635031826031800000001714430000000001N090318000000000000000000000000000000000000000000000000000000000000000100011663589844MARIA SAVIO QUARELLO                    AVENIDA MENDONCA DRUMOND - 321 - JARDIM             03524030                                                            000098
2SR. CAIXA, APOS O VENCIMENTO COBRAR 2% DE MULTA                                 NAO RECEBER APOS 30 DIAS DO VENCIMENTO.                                                                                                                                                                                                         09031800000000000000903180000000000000       0090339900006270116635031817000099
100000000000000000000009033990000627000000000000000000000000010002020010083803181900000000002            2  01100838031826031800000001656410000000001N090318000000000000000000000000000000000000000000000000000000000000000100010083824855IONE FERREIRA COUTO DA SILVA            RUA JOSE RAGEL DE MESQUITA - 60 CS.01 -             07799999                                                            000101
2SR. CAIXA, APOS O VENCIMENTO COBRAR 2% DE MULTA                                 NAO RECEBER APOS 30 DIAS DO VENCIMENTO.                                                                                                                                                                                                         09031800000000000000903180000000000000       0090339900006270100838031819000102
100000000000000000000009033990000627000000000000000000000000010002020036881703181100000000002            2  01368817031826031800000001625490000000001N090318000000000000000000000000000000000000000000000000000000000000000100036881778864ANDRE GONZALEZ RABELLO                  RUA PARAIBA - 106 AP.61 - POMPEIA - SANT            11065470                                                            000104
2SR. CAIXA, APOS O VENCIMENTO COBRAR 2% DE MULTA                                 NAO RECEBER APOS 30 DIAS DO VENCIMENTO.                                                                                                                                                                                                         09031800000000000000903180000000000000       0090339900006270368817031811000105
100000000000000000000009033990000627000000000000000000000000010002020018207003181000000000002            2  01182070031824031800000002169400000000001N090318000000000000000000000000000000000000000000000000000000000000000100018207096802ROBERTO VALENTE TAVARES                 RUA SEBASTIAO GOMES - 218 - JARDIM SANTO            13835000                                                            000107
2SR. CAIXA, APOS O VENCIMENTO COBRAR 2% DE MULTA                                 NAO RECEBER APOS 30 DIAS DO VENCIMENTO.                                                                                                                                                                                                         09031800000000000000903180000000000000       0090339900006270182070031810000108
100000000000000000000009033990000627000000000000000000000000010002020005351003181300000000002            2  01053510031826031800000001524060000000001N090318000000000000000000000000000000000000000000000000000000000000000100005351015897VALERIA ALVES MARCOLINO HINNIGER        RUA MONGOLIA - 230 AP.71 BL.4 - PARQUE N            09280220                                                            000110
2SR. CAIXA, APOS O VENCIMENTO COBRAR 2% DE MULTA                                 NAO RECEBER APOS 30 DIAS DO VENCIMENTO.                                                                                                                                                                                                         09031800000000000000903180000000000000       0090339900006270053510031813000111
100000000000000000000009033990000627000000000000000000000000010002020031898703181900000000002            2  01318987031824031800000002347690000000001N090318000000000000000000000000000000000000000000000000000000000000000100031898775800ANITA MARTINS COLOMBO                   RUA CARLOS JOSE BORSTENS - 50 AP.115 - A            11702750                                                            000113
2SR. CAIXA, APOS O VENCIMENTO COBRAR 2% DE MULTA                                 NAO RECEBER APOS 30 DIAS DO VENCIMENTO.                                                                                                                                                                                                         09031800000000000000903180000000000000       0090339900006270318987031819000114
9                                                                                                                                                                                                                                                                                                                                                                                                         000115