01REMESSA01COBRANCA       00000000000008017025HB SANTOS CONSTRUTORA E INCORP237BRADESCO       010420        MX0000101                                                                                                                                                                                                                                                                                     000001
100000000000000000000009033990000627000000000000000000000000010002020025035104201900000000002            2  01250351042024042000000002220080000000001N010420000000000000000000000000000000000000000000000000000000000000000100025035170802WANDERSON LUIS DE CARVALHO              RUA JOAQUIM GONCALVES ROCHA - 302 - JARD            02859030                                                            000002
2SR. CAIXA, APOS O VENCIMENTO COBRAR 2% DE MULTA                                 NAO RECEBER APOS 30 DIAS DO VENCIMENTO.                                                                                                                                                                                                         01042000000000000000104200000000000000       0090339900006270250351042019000003
100000000000000000000009033990000627000000000000000000000000010002020007294304201600000000002            2  01072943042024042000000002986050000000001N010420000000000000000000000000000000000000000000000000000000000000000100007294351805CLAUDENIR APARECIDO VACARI              RUA CARLOS JOSE BORSTENS - 50 AP.93 - AV            11702750                                                            000005
2SR. CAIXA, APOS O VENCIMENTO COBRAR 2% DE MULTA                                 NAO RECEBER APOS 30 DIAS DO VENCIMENTO.                                                                                                                                                                                                         01042000000000000000104200000000000000       0090339900006270072943042016000006
100000000000000000000009033990000627000000000000000000000000010002020042976104201600000000002            2  01429761042024042000000003017390000000001N010420000000000000000000000000000000000000000000000000000000000000000100042976111634ACACIO TOSCANO BONDANCA                 RUA COMENDADOR JACOMO ANTONIO LA SELVA -            12946797                                                            000008
2SR. CAIXA, APOS O VENCIMENTO COBRAR 2% DE MULTA                                 NAO RECEBER APOS 30 DIAS DO VENCIMENTO.                                                                                                                                                                                                         01042000000000000000104200000000000000       0090339900006270429761042016000009
100000000000000000000009033990000627000000000000000000000000010002020035438004201P00000000002            2  01354380042024042000000002548330000000001N010420000000000000000000000000000000000000000000000000000000000000000100035438022836ALESSANDRO FARACO DOS SANTOS            RUA PEDRO POMAR  - 145 - JARDIM ELISA MA            02875020                                                            000011
2SR. CAIXA, APOS O VENCIMENTO COBRAR 2% DE MULTA                                 NAO RECEBER APOS 30 DIAS DO VENCIMENTO.                                                                                                                                                                                                         01042000000000000000104200000000000000       009033990000627035438004201P000012
100000000000000000000009033990000627000000000000000000000000010002020007525004201100000000002            2  01075250042024042000000003340010000000001N010420000000000000000000000000000000000000000000000000000000000000000100007525032866FERNANDO RIBEIRO                        RUA CARLOS JOSE BORSTENS - 50 AP.32 - AV            11702750                                                            000014
2SR. CAIXA, APOS O VENCIMENTO COBRAR 2% DE MULTA                                 NAO RECEBER APOS 30 DIAS DO VENCIMENTO.                                                                                                                                                                                                         01042000000000000000104200000000000000       0090339900006270075250042011000015
100000000000000000000009033990000627000000000000000000000000010002020005071404201700000000002            2  01050714042024042000000002929840000000001N010420000000000000000000000000000000000000000000000000000000000000000100005071481855ERIBALDO SANTANA CARVALHO               RUA HONDURAS - 477 - PARQUE DAS AMERICAS            09351070                                                            000017
2SR. CAIXA, APOS O VENCIMENTO COBRAR 2% DE MULTA                                 NAO RECEBER APOS 30 DIAS DO VENCIMENTO.                                                                                                                                                                                                         01042000000000000000104200000000000000       0090339900006270050714042017000018
100000000000000000000009033990000627000000000000000000000000010002020002841704201000000000002            2  01028417042024042000000002741140000000001N010420000000000000000000000000000000000000000000000000000000000000000100002841756416LUCIANA PINHEIRO DE ASSIS NUNES         RUA RIO ACIMA - 81 - RIACHO GRANDE - SAO            09830100                                                            000020
2SR. CAIXA, APOS O VENCIMENTO COBRAR 2% DE MULTA                                 NAO RECEBER APOS 30 DIAS DO VENCIMENTO.                                                                                                                                                                                                         01042000000000000000104200000000000000       0090339900006270028417042010000021
100000000000000000000009033990000627000000000000000000000000010002020084302004201P00000000002            2  01843020042024042000000002754280000000001N010420000000000000000000000000000000000000000000000000000000000000000100084302097868FAUSTO TADEU VILOR                      RUA ANTONIO TAVARES - 466 - BAIRRO CAMBU            01542010                                                            000023
2SR. CAIXA, APOS O VENCIMENTO COBRAR 2% DE MULTA                                 NAO RECEBER APOS 30 DIAS DO VENCIMENTO.                                                                                                                                                                                                         01042000000000000000104200000000000000       009033990000627084302004201P000024
100000000000000000000009033990000627000000000000000000000000010002020028804204201P00000000002            2  01288042042024042000000002706100000000001N010420000000000000000000000000000000000000000000000000000000000000000100028804202882GILBERTO FABIANO CABRAL DE CAMARGO      RUA CARLOS JOSE BORSTENS - 50 AP.44 - AV            11702750                                                            000026
2SR. CAIXA, APOS O VENCIMENTO COBRAR 2% DE MULTA                                 NAO RECEBER APOS 30 DIAS DO VENCIMENTO.                                                                                                                                                                                                         01042000000000000000104200000000000000       009033990000627028804204201P000027
100000000000000000000009033990000627000000000000000000000000010002020000991704201200000000002            2  01009917042024042000000002641260000000001N010420000000000000000000000000000000000000000000000000000000000000000100000991748808JAILSON BORGES DE ANDRADE               RUA IPIOBUNA - 45 - JARDIM CUMBICA - GUA            07240040                                                            000029
2SR. CAIXA, APOS O VENCIMENTO COBRAR 2% DE MULTA                                 NAO RECEBER APOS 30 DIAS DO VENCIMENTO.                                                                                                                                                                                                         01042000000000000000104200000000000000       0090339900006270009917042012000030
100000000000000000000009033990000627000000000000000000000000010002020092180204201P00000000002            2  01921802042024042000000003601040000000001N010420000000000000000000000000000000000000000000000000000000000000000100092180299834LUIS ROBERTO DE SA DUARTE               RUA TEBAS - 296 AP.84 BLOCO 2 CE - JARDI            04634031                                                            000032
2SR. CAIXA, APOS O VENCIMENTO COBRAR 2% DE MULTA                                 NAO RECEBER APOS 30 DIAS DO VENCIMENTO.                                                                                                                                                                                                         01042000000000000000104200000000000000       009033990000627092180204201P000033
100000000000000000000009033990000627000000000000000000000000010002020092180204202800000000002            2  01921802042024042000000003600990000000001N010420000000000000000000000000000000000000000000000000000000000000000100092180299834LUIS ROBERTO DE SA DUARTE               RUA TEBAS - 296 AP.84 BLOCO 2 CE - JARDI            04634031                                                            000035
2SR. CAIXA, APOS O VENCIMENTO COBRAR 2% DE MULTA                                 NAO RECEBER APOS 30 DIAS DO VENCIMENTO.                                                                                                                                                                                                         01042000000000000000104200000000000000       0090339900006270921802042028000036
100000000000000000000009033990000627000000000000000000000000010002020092180204203600000000002            2  01921802042024042000000003601000000000001N010420000000000000000000000000000000000000000000000000000000000000000100092180299834LUIS ROBERTO DE SA DUARTE               RUA TEBAS - 296 AP.84 BLOCO 2 CE - JARDI            04634031                                                            000038
2SR. CAIXA, APOS O VENCIMENTO COBRAR 2% DE MULTA                                 NAO RECEBER APOS 30 DIAS DO VENCIMENTO.                                                                                                                                                                                                         01042000000000000000104200000000000000       0090339900006270921802042036000039
100000000000000000000009033990000627000000000000000000000000010002020092180204204400000000002            2  01921802042024042000000003601010000000001N010420000000000000000000000000000000000000000000000000000000000000000100092180299834LUIS ROBERTO DE SA DUARTE               RUA TEBAS - 296 AP.84 BLOCO 2 CE - JARDI            04634031                                                            000041
2SR. CAIXA, APOS O VENCIMENTO COBRAR 2% DE MULTA                                 NAO RECEBER APOS 30 DIAS DO VENCIMENTO.                                                                                                                                                                                                         01042000000000000000104200000000000000       0090339900006270921802042044000042
100000000000000000000009033990000627000000000000000000000000010002020092180204205200000000002            2  01921802042024042000000003601020000000001N010420000000000000000000000000000000000000000000000000000000000000000100092180299834LUIS ROBERTO DE SA DUARTE               RUA TEBAS - 296 AP.84 BLOCO 2 CE - JARDI            04634031                                                            000044
2SR. CAIXA, APOS O VENCIMENTO COBRAR 2% DE MULTA                                 NAO RECEBER APOS 30 DIAS DO VENCIMENTO.                                                                                                                                                                                                         01042000000000000000104200000000000000       0090339900006270921802042052000045
100000000000000000000009033990000627000000000000000000000000010002020092180204206000000000002            2  01921802042024042000000003601030000000001N010420000000000000000000000000000000000000000000000000000000000000000100092180299834LUIS ROBERTO DE SA DUARTE               RUA TEBAS - 296 AP.84 BLOCO 2 CE - JARDI            04634031                                                            000047
2SR. CAIXA, APOS O VENCIMENTO COBRAR 2% DE MULTA                                 NAO RECEBER APOS 30 DIAS DO VENCIMENTO.                                                                                                                                                                                                         01042000000000000000104200000000000000       0090339900006270921802042060000048
100000000000000000000009033990000627000000000000000000000000010002020022151604201900000000002            2  01221516042024042000000002625940000000001N010420000000000000000000000000000000000000000000000000000000000000000100022151666816SAMIR LIMA DE ARAUJO                    AVENIDA GUARAPIRANGA - 2616 AP.42 BLOCO1            04902005                                                            000050
2SR. CAIXA, APOS O VENCIMENTO COBRAR 2% DE MULTA                                 NAO RECEBER APOS 30 DIAS DO VENCIMENTO.                                                                                                                                                                                                         01042000000000000000104200000000000000       0090339900006270221516042019000051
100000000000000000000009033990000627000000000000000000000000010002020022313104201000000000002            2  01223131042026042000000002019970000000001N010420000000000000000000000000000000000000000000000000000000000000000100022313116824ROSA MARIA BRITO DA SILVA               RUA SERVIDAO DE SAO MARCOS - 113 - JARDI            04930300                                                            000053
2SR. CAIXA, APOS O VENCIMENTO COBRAR 2% DE MULTA                                 NAO RECEBER APOS 30 DIAS DO VENCIMENTO.                                                                                                                                                                                                         01042000000000000000104200000000000000       0090339900006270223131042010000054
100000000000000000000009033990000627000000000000000000000000010002020027538004201200000000002            2  01275380042026042000000002027020000000001N010420000000000000000000000000000000000000000000000000000000000000000100027538087249MARA LUCIA MENEZES DA COSTA             RUA LEILA  - 183 - ITAQUERA - SAO PAULO             08240020                                                            000056
2SR. CAIXA, APOS O VENCIMENTO COBRAR 2% DE MULTA                                 NAO RECEBER APOS 30 DIAS DO VENCIMENTO.                                                                                                                                                                                                         01042000000000000000104200000000000000       0090339900006270275380042012000057
100000000000000000000009033990000627000000000000000000000000010002020031278404201900000000002            2  01312784042024042000000002536720000000001N010420000000000000000000000000000000000000000000000000000000000000000100031278411836JEFFERSON DE PIERI PIRES ZAMUNER        RUA MANOEL ARCE - 277 - PARQUE BANCARIO             03922150                                                            000059
2SR. CAIXA, APOS O VENCIMENTO COBRAR 2% DE MULTA                                 NAO RECEBER APOS 30 DIAS DO VENCIMENTO.                                                                                                                                                                                                         01042000000000000000104200000000000000       0090339900006270312784042019000060
100000000000000000000009033990000627000000000000000000000000010002020019185704201000000000002            2  01191857042026042000000001844620000000001N010420000000000000000000000000000000000000000000000000000000000000000100019185769800AGUINALDO PESSOA DE LIMA                RUA JANUARIO ZINGARO - 252 AP.303 BL.04             05794300                                                            000062
2SR. CAIXA, APOS O VENCIMENTO COBRAR 2% DE MULTA                                 NAO RECEBER APOS 30 DIAS DO VENCIMENTO.                                                                                                                                                                                                         01042000000000000000104200000000000000       0090339900006270191857042010000063
100000000000000000000009033990000627000000000000000000000000010002020033303604201100000000002            2  01333036042026042000000001986820000000001N010420000000000000000000000000000000000000000000000000000000000000000100033303645809JESSICA DA SILVA FREITAS                RUA ARILDO VALADAO - 120 - JARDIM GUAEMB            04814600                                                            000065
2SR. CAIXA, APOS O VENCIMENTO COBRAR 2% DE MULTA                                 NAO RECEBER APOS 30 DIAS DO VENCIMENTO.                                                                                                                                                                                                         01042000000000000000104200000000000000       0090339900006270333036042011000066
100000000000000000000009033990000627000000000000000000000000010002020004824404201000000000002            2  01048244042026042000000002002550000000001N010420000000000000000000000000000000000000000000000000000000000000000100004824443806ROSIMEIRE CLARA FERREIRA REZENDE        RUA JOSE CALIXTO DO CARMO - 286 AP.43 -             11702690                                                            000068
2SR. CAIXA, APOS O VENCIMENTO COBRAR 2% DE MULTA                                 NAO RECEBER APOS 30 DIAS DO VENCIMENTO.                                                                                                                                                                                                         01042000000000000000104200000000000000       0090339900006270048244042010000069
100000000000000000000009033990000627000000000000000000000000010002020006422604201700000000002            2  01064226042024042000000002747330000000001N010420000000000000000000000000000000000000000000000000000000000000000100006422607881GERALDO ALVES DA SILVA                  RUA CARLOS JOSE BORSTENS - 50 AP.14 - AV            11702750                                                            000071
2SR. CAIXA, APOS O VENCIMENTO COBRAR 2% DE MULTA                                 NAO RECEBER APOS 30 DIAS DO VENCIMENTO.                                                                                                                                                                                                         01042000000000000000104200000000000000       0090339900006270064226042017000072
100000000000000000000009033990000627000000000000000000000000010002020033877104201900000000002            2  01338771042026042000000001862710000000001N010420000000000000000000000000000000000000000000000000000000000000000100033877129870HELDER FERREIRA VIANA                   RUA JOSE CALIXTO DO CARMO - 286 AP.35 -             11702690                                                            000074
2SR. CAIXA, APOS O VENCIMENTO COBRAR 2% DE MULTA                                 NAO RECEBER APOS 30 DIAS DO VENCIMENTO.                                                                                                                                                                                                         01042000000000000000104200000000000000       0090339900006270338771042019000075
100000000000000000000009033990000627000000000000000000000000010002020028290704201200000000002            2  01282907042026042000000001716710000000001N010420000000000000000000000000000000000000000000000000000000000000000100028290719809VANESSA GIANGARRELLI PEREIRA            RUA BARINEL - 72 - JARDIM COTCHING - SAO            03462130                                                            000077
2SR. CAIXA, APOS O VENCIMENTO COBRAR 2% DE MULTA                                 NAO RECEBER APOS 30 DIAS DO VENCIMENTO.                                                                                                                                                                                                         01042000000000000000104200000000000000       0090339900006270282907042012000078
100000000000000000000009033990000627000000000000000000000000010002020087573004201800000000002            2  01875730042026042000000001874640000000001N010420000000000000000000000000000000000000000000000000000000000000000100087573059604VANDERLEY DE ASSIS                      RUA ROMEU ALBANI - 268 - JARDIM PARQUE R            13803810                                                            000080
2SR. CAIXA, APOS O VENCIMENTO COBRAR 2% DE MULTA                                 NAO RECEBER APOS 30 DIAS DO VENCIMENTO.                                                                                                                                                                                                         01042000000000000000104200000000000000       0090339900006270875730042018000081
100000000000000000000009033990000627000000000000000000000000010002020010825504201500000000002            2  01108255042026042000000001956290000000001N010420000000000000000000000000000000000000000000000000000000000000000100010825513847JOSE APARECIDO PEREIRA                  RUA GENERAL OSORIO - 305 - JARDIM TRINTA            11515130                                                            000083
2SR. CAIXA, APOS O VENCIMENTO COBRAR 2% DE MULTA                                 NAO RECEBER APOS 30 DIAS DO VENCIMENTO.                                                                                                                                                                                                         01042000000000000000104200000000000000       0090339900006270108255042015000084
100000000000000000000009033990000627000000000000000000000000010002020038818504201500000000002            2  01388185042026042000000001989730000000001N010420000000000000000000000000000000000000000000000000000000000000000100038818572814MAURICIUS ALEXANDRE ESTEVAM NABOR       RUA JOSE CALIXTO DO CARMO - 286 AP.25 -             11702690                                                            000086
2SR. CAIXA, APOS O VENCIMENTO COBRAR 2% DE MULTA                                 NAO RECEBER APOS 30 DIAS DO VENCIMENTO.                                                                                                                                                                                                         01042000000000000000104200000000000000       0090339900006270388185042015000087
100000000000000000000009033990000627000000000000000000000000010002020039115104201700000000002            2  01391151042026042000000002411460000000001N010420000000000000000000000000000000000000000000000000000000000000000100039115139840LAIS CRISTINA RIBEIRO ANDO              RUA JOSE CALIXTO DO CARMO - 286 AP.65 -             11702690                                                            000089
2SR. CAIXA, APOS O VENCIMENTO COBRAR 2% DE MULTA                                 NAO RECEBER APOS 30 DIAS DO VENCIMENTO.                                                                                                                                                                                                         01042000000000000000104200000000000000       0090339900006270391151042017000090
100000000000000000000009033990000627000000000000000000000000010002020029617504201500000000002            2  01296175042024042000000002696600000000001N010420000000000000000000000000000000000000000000000000000000000000000100029617510553MARILENE SOUZA DE OLIVEIRA              AVENIDA BRASIL - 393 AP.09 - PARQUE DAS             09210280                                                            000092
2SR. CAIXA, APOS O VENCIMENTO COBRAR 2% DE MULTA                                 NAO RECEBER APOS 30 DIAS DO VENCIMENTO.                                                                                                                                                                                                         01042000000000000000104200000000000000       0090339900006270296175042015000093
100000000000000000000009033990000627000000000000000000000000010002020000593204201500000000002            2  01005932042024042000000002957510000000001N010420000000000000000000000000000000000000000000000000000000000000000100000593293860WALTER HELIO BARBOSA FILHO              AVENIDA ANTONIO FREDERICO OZANAN - 9500             13214206                                                            000095
2SR. CAIXA, APOS O VENCIMENTO COBRAR 2% DE MULTA                                 NAO RECEBER APOS 30 DIAS DO VENCIMENTO.                                                                                                                                                                                                         01042000000000000000104200000000000000       0090339900006270005932042015000096
100000000000000000000009033990000627000000000000000000000000010002020007730004201000000000002            2  01077300042024042000000004205870000000001N010420000000000000000000000000000000000000000000000000000000000000000100007730084899ARNALDO LUIZ VONO                       RUA CARLOS JOSE BORSTENS - 50 AP.122 - A            11702750                                                            000098
2SR. CAIXA, APOS O VENCIMENTO COBRAR 2% DE MULTA                                 NAO RECEBER APOS 30 DIAS DO VENCIMENTO.                                                                                                                                                                                                         01042000000000000000104200000000000000       0090339900006270077300042010000099
100000000000000000000009033990000627000000000000000000000000010002020065584104201700000000002            2  01655841042024042000000001552530000000001N010420000000000000000000000000000000000000000000000000000000000000000100065584147834JOAQUIM DA COSTA MACHADO NETO           RUA CARLOS JOSE BORSTENS - 50 AP.42 - AV            11702750                                                            000101
2SR. CAIXA, APOS O VENCIMENTO COBRAR 2% DE MULTA                                 NAO RECEBER APOS 30 DIAS DO VENCIMENTO.                                                                                                                                                                                                         01042000000000000000104200000000000000       0090339900006270655841042017000102
100000000000000000000009033990000627000000000000000000000000010002020001616904201900000000002            2  01016169042024042000000002730410000000001N010420000000000000000000000000000000000000000000000000000000000000000100001616913827CLAUDIO LUIZ PAULELLA                   PRACA NESTOR DOS SANTOS ARRUDA - 26 - VI            13920000                                                            000104
2SR. CAIXA, APOS O VENCIMENTO COBRAR 2% DE MULTA                                 NAO RECEBER APOS 30 DIAS DO VENCIMENTO.                                                                                                                                                                                                         01042000000000000000104200000000000000       0090339900006270016169042019000105
100000000000000000000009033990000627000000000000000000000000010002020006684604201P00000000002            2  01066846042026042000000001986560000000001N010420000000000000000000000000000000000000000000000000000000000000000100006684623884LAUDINOR VIEIRA GARCIA                  RUA CANDIDO SALES - 374 - JARDIM PRESIDE            07172000                                                            000107
2SR. CAIXA, APOS O VENCIMENTO COBRAR 2% DE MULTA                                 NAO RECEBER APOS 30 DIAS DO VENCIMENTO.                                                                                                                                                                                                         01042000000000000000104200000000000000       009033990000627006684604201P000108
100000000000000000000009033990000627000000000000000000000000010002020011663504201000000000002            2  01116635042026042000000002000870000000001N010420000000000000000000000000000000000000000000000000000000000000000100011663589844MARIA SAVIO QUARELLO                    AVENIDA MENDONCA DRUMOND - 321 - JARDIM             03524030                                                            000110
2SR. CAIXA, APOS O VENCIMENTO COBRAR 2% DE MULTA                                 NAO RECEBER APOS 30 DIAS DO VENCIMENTO.                                                                                                                                                                                                         01042000000000000000104200000000000000       0090339900006270116635042010000111
100000000000000000000009033990000627000000000000000000000000010002020010083804201200000000002            2  01100838042026042000000001933160000000001N010420000000000000000000000000000000000000000000000000000000000000000100010083824855IONE FERREIRA COUTO DA SILVA            RUA JOSE RAGEL DE MESQUITA - 60 CS.01 -             07799999                                                            000113
2SR. CAIXA, APOS O VENCIMENTO COBRAR 2% DE MULTA                                 NAO RECEBER APOS 30 DIAS DO VENCIMENTO.                                                                                                                                                                                                         01042000000000000000104200000000000000       0090339900006270100838042012000114
100000000000000000000009033990000627000000000000000000000000010002020036881704201500000000002            2  01368817042026042000000001897070000000001N010420000000000000000000000000000000000000000000000000000000000000000100036881778864ANDRE GONZALEZ RABELLO                  RUA PARAIBA - 106 AP.61 - POMPEIA - SANT            11065470                                                            000116
2SR. CAIXA, APOS O VENCIMENTO COBRAR 2% DE MULTA                                 NAO RECEBER APOS 30 DIAS DO VENCIMENTO.                                                                                                                                                                                                         01042000000000000000104200000000000000       0090339900006270368817042015000117
100000000000000000000009033990000627000000000000000000000000010002020018207004201400000000002            2  01182070042024042000000002614940000000001N010420000000000000000000000000000000000000000000000000000000000000000100018207096802ROBERTO VALENTE TAVARES                 RUA SEBASTIAO GOMES - 218 - JARDIM SANTO            13835000                                                            000119
2SR. CAIXA, APOS O VENCIMENTO COBRAR 2% DE MULTA                                 NAO RECEBER APOS 30 DIAS DO VENCIMENTO.                                                                                                                                                                                                         01042000000000000000104200000000000000       0090339900006270182070042014000120
100000000000000000000009033990000627000000000000000000000000010002020005351004201700000000002            2  01053510042026042000000001778700000000001N010420000000000000000000000000000000000000000000000000000000000000000100005351015897VALERIA ALVES MARCOLINO HINNIGER        RUA JOSE CALIXTO DO CARMO - 286 AP.92 -             11702690                                                            000122
2SR. CAIXA, APOS O VENCIMENTO COBRAR 2% DE MULTA                                 NAO RECEBER APOS 30 DIAS DO VENCIMENTO.                                                                                                                                                                                                         01042000000000000000104200000000000000       0090339900006270053510042017000123
100000000000000000000009033990000627000000000000000000000000010002020031898704201200000000002            2  01318987042024042000000002829870000000001N010420000000000000000000000000000000000000000000000000000000000000000100031898775800ANITA MARTINS COLOMBO                   RUA CARLOS JOSE BORSTENS - 50 AP.115 - A            11702750                                                            000125
2SR. CAIXA, APOS O VENCIMENTO COBRAR 2% DE MULTA                                 NAO RECEBER APOS 30 DIAS DO VENCIMENTO.                                                                                                                                                                                                         01042000000000000000104200000000000000       0090339900006270318987042012000126
100000000000000000000009033990000627000000000000000000000000010002020037983404201200000000002            2  01379834042026042000000002089380000000001N010420000000000000000000000000000000000000000000000000000000000000000100037983484801JOSE ERIVALDO SOUZA DO NASCIMENTO RAMOS RUA LETICIA - 250 - JARDIM GUARUJA - SAO            05877260                                                            000128
2SR. CAIXA, APOS O VENCIMENTO COBRAR 2% DE MULTA                                 NAO RECEBER APOS 30 DIAS DO VENCIMENTO.                                                                                                                                                                                                         01042000000000000000104200000000000000       0090339900006270379834042012000129
100000000000000000000009033990000627000000000000000000000000010002020056289204201300000000002            2  01562892042026042000000001578420000000001N010420000000000000000000000000000000000000000000000000000000000000000100056289286900PEDRO RIBEIRO                           RUA CONEGO MANOEL VAZ - 48 - SANTANA - S            02019050                                                            000131
2SR. CAIXA, APOS O VENCIMENTO COBRAR 2% DE MULTA                                 NAO RECEBER APOS 30 DIAS DO VENCIMENTO.                                                                                                                                                                                                         01042000000000000000104200000000000000       0090339900006270562892042013000132
100000000000000000000009033990000627000000000000000000000000010002020005025504201700000000002            2  01050255042026042000000002246270000000001N010420000000000000000000000000000000000000000000000000000000000000000100005025595860CONCEICAO APARECIDA DE MESQUITA PEREIRA RUA TRIUNFO - 835 AP.105 - JARDIM SAO LU            14020670                                                            000134
2SR. CAIXA, APOS O VENCIMENTO COBRAR 2% DE MULTA                                 NAO RECEBER APOS 30 DIAS DO VENCIMENTO.                                                                                                                                                                                                         01042000000000000000104200000000000000       0090339900006270050255042017000135
100000000000000000000009033990000627000000000000000000000000010002020034735304201P00000000002            2  01347353042026042000000002166290000000001N010420000000000000000000000000000000000000000000000000000000000000000100034735328866DIEGO FELIPE MOLINA DA SILVA E SOUSA    RUA EMILIA PAULISTA - 135 - VILA TIRADEN            05364020                                                            000137
2SR. CAIXA, APOS O VENCIMENTO COBRAR 2% DE MULTA                                 NAO RECEBER APOS 30 DIAS DO VENCIMENTO.                                                                                                                                                                                                         01042000000000000000104200000000000000       009033990000627034735304201P000138
100000000000000000000009033990000627000000000000000000000000010002020076175604201000000000002            2  01761756042024042000000003927240000000001N010420000000000000000000000000000000000000000000000000000000000000000100076175685687GILMAR DE OLIVEIRA BRAGA                RUA MARACAJU - 161 AP.202 - NOVA GRANADA            30431350                                                            000140
2SR. CAIXA, APOS O VENCIMENTO COBRAR 2% DE MULTA                                 NAO RECEBER APOS 30 DIAS DO VENCIMENTO.                                                                                                                                                                                                         01042000000000000000104200000000000000       0090339900006270761756042010000141
100000000000000000000009033990000627000000000000000000000000010002020034812204201300000000002            2  01348122042024042000000003745440000000001N010420000000000000000000000000000000000000000000000000000000000000000100034812226880THAIS TORQUATO MIMOSO DE JESUS          RUA ARNALDO CINTRA - 416 AP.104 TORRE 2             03088000                                                            000143
2SR. CAIXA, APOS O VENCIMENTO COBRAR 2% DE MULTA                                 NAO RECEBER APOS 30 DIAS DO VENCIMENTO.                                                                                                                                                                                                         01042000000000000000104200000000000000       0090339900006270348122042013000144
100000000000000000000009033990000627000000000000000000000000010002020012849404201P00000000002            2  01128494042026042000000003731960000000001N010420000000000000000000000000000000000000000000000000000000000000000100012849428809MOISES CLAUDIO DO ROSARIO               AVENIDA DR. AUGUSTO DE TOLEDO - 510 AP.1            09541520                                                            000146
2SR. CAIXA, APOS O VENCIMENTO COBRAR 2% DE MULTA                                 NAO RECEBER APOS 30 DIAS DO VENCIMENTO.                                                                                                                                                                                                         01042000000000000000104200000000000000       009033990000627012849404201P000147
100000000000000000000009033990000627000000000000000000000000010002020015702304201P00000000002            2  01157023042026042000000002070570000000001N010420000000000000000000000000000000000000000000000000000000000000000100015702353846MARIA DE LOURDES DE MACENO SOUZA        RUA JOSE CALIXTO DO CARMO - 286 AP.83 -             11702690                                                            000149
2SR. CAIXA, APOS O VENCIMENTO COBRAR 2% DE MULTA                                 NAO RECEBER APOS 30 DIAS DO VENCIMENTO.                                                                                                                                                                                                         01042000000000000000104200000000000000       009033990000627015702304201P000150
100000000000000000000009033990000627000000000000000000000000010002020006749704201100000000002            2  01067497042023042000000002000130000000001N010420000000000000000000000000000000000000000000000000000000000000000100006749731600MARCELA DA ROCHA REIS                   RUA COLOMBIA - 665 AP.1204 - JARDIM GUIL            11702020                                                            000152
2SR. CAIXA, APOS O VENCIMENTO COBRAR 2% DE MULTA                                 NAO RECEBER APOS 30 DIAS DO VENCIMENTO.                                                                                                                                                                                                         01042000000000000000104200000000000000       0090339900006270067497042011000153
100000000000000000000009033990000627000000000000000000000000010002020006749704202P00000000002            2  01067497042023042000000002000120000000001N010420000000000000000000000000000000000000000000000000000000000000000100006749731600MARCELA DA ROCHA REIS                   RUA COLOMBIA - 665 AP.1204 - JARDIM GUIL            11702020                                                            000155
2SR. CAIXA, APOS O VENCIMENTO COBRAR 2% DE MULTA                                 NAO RECEBER APOS 30 DIAS DO VENCIMENTO.                                                                                                                                                                                                         01042000000000000000104200000000000000       009033990000627006749704202P000156
100000000000000000000009033990000627000000000000000000000000010002020003658604201400000000002            2  01036586042026042000000001541750000000001N010420000000000000000000000000000000000000000000000000000000000000000100003658668814MARINEZ VALENTIN                        RUA JOSE CALIXTO DO CARMO - 286 AP.95 -             11702690                                                            000158
2SR. CAIXA, APOS O VENCIMENTO COBRAR 2% DE MULTA                                 NAO RECEBER APOS 30 DIAS DO VENCIMENTO.                                                                                                                                                                                                         01042000000000000000104200000000000000       0090339900006270036586042014000159
100000000000000000000009033990000627000000000000000000000000010002020014087404201200000000002            2  01140874042026042000000002060410000000001N010420000000000000000000000000000000000000000000000000000000000000000100014087484874SERGIO SANTOS DO NASCIMENTO             RUA PANTALEAO BRAZ - 21 - JARDIM ESTER -            05372080                                                            000161
2SR. CAIXA, APOS O VENCIMENTO COBRAR 2% DE MULTA                                 NAO RECEBER APOS 30 DIAS DO VENCIMENTO.                                                                                                                                                                                                         01042000000000000000104200000000000000       0090339900006270140874042012000162
100000000000000000000009033990000627000000000000000000000000010002020039540004201P00000000002            2  01395400042026042000000001866410000000001N010420000000000000000000000000000000000000000000000000000000000000000100039540008816LUZINETE CLARINDO SILVA                 RUA DEINOS - 275 - BAIRRO CIDADE SATELIT            08340100                                                            000164
2SR. CAIXA, APOS O VENCIMENTO COBRAR 2% DE MULTA                                 NAO RECEBER APOS 30 DIAS DO VENCIMENTO.                                                                                                                                                                                                         01042000000000000000104200000000000000       009033990000627039540004201P000165
100000000000000000000009033990000627000000000000000000000000010002020005723204201400000000002            2  01057232042023042000000002614890000000001N010420000000000000000000000000000000000000000000000000000000000000000100005723255843FRANCISCO DE ASSIS DA SILVA             PRACA NICOLAU GERAIGIRE - 25 VISOR - JAR            11095110                                                            000167
2SR. CAIXA, APOS O VENCIMENTO COBRAR 2% DE MULTA                                 NAO RECEBER APOS 30 DIAS DO VENCIMENTO.                                                                                                                                                                                                         01042000000000000000104200000000000000       0090339900006270057232042014000168
100000000000000000000009033990000627000000000000000000000000010002020003311004201700000000002            2  01033110042026042000000001943620000000001N010420000000000000000000000000000000000000000000000000000000000000000100003311030877SEBASTIAO SARUVA NETO                   RUA HAMILTON REGIS - 559 - BAIRRO DO LIM            08051440                                                            000170
2SR. CAIXA, APOS O VENCIMENTO COBRAR 2% DE MULTA                                 NAO RECEBER APOS 30 DIAS DO VENCIMENTO.                                                                                                                                                                                                         01042000000000000000104200000000000000       0090339900006270033110042017000171
9                                                                                                                                                                                                                                                                                                                                                                                                         000172