01REMESSA01COBRANCA       00000000000005316116AIRES CONSTRUTORA E INCORPORAD237BRADESCO       101022        MX0000204                                                                                                                                                                                                                                                                                     000001
100000000000000000000009002800441612000000000000000000000000010002100001204410221900000000002            2  01012044102225102200000003538860000000001N071022000000000000000000000000000000000000000000000000000000000000000100001204431809CEZAR TALAVERA JUNIOR                   RUA MAESTRO ARTURO DE ANGELIS  - 190 AP.            05139010                                                            000002
2SR. CAIXA, APOS O VENCIMENTO COBRAR 10% DE MULTA                                NAO RECEBER APOS 30 DIAS DO VENCIMENTO.                                                                                                                                                                                                         10102200000000000001010220000000000000       0090028004416120012044102219000003
100000000000000000000009002800441612000000000000000000000000010002100001024710221100000000002            2  01010247102225102200000004000640000000001N071022000000000000000000000000000000000000000000000000000000000000000100001024794881CLAUDIO RODRIGUES                       RUA ARACATUBA - 242 - LAPA - SAO PAULO -            05058010                                                            000005
2SR. CAIXA, APOS O VENCIMENTO COBRAR 10% DE MULTA                                NAO RECEBER APOS 30 DIAS DO VENCIMENTO.                                                                                                                                                                                                         10102200000000000001010220000000000000       0090028004416120010247102211000006
100000000000000000000009002800441612000000000000000000000000010002100002225010221200000000002            2  01022250102225102200000006133500000000001N071022000000000000000000000000000000000000000000000000000000000000000100002225072841PEDRO EDUARDO DE AZEVEDO                RUA NATH ZILMAN - 46 - JARDIM SAMAMBAIA             07623085                                                            000008
2SR. CAIXA, APOS O VENCIMENTO COBRAR 10% DE MULTA                                NAO RECEBER APOS 30 DIAS DO VENCIMENTO.                                                                                                                                                                                                         10102200000000000001010220000000000000       0090028004416120022250102212000009
100000000000000000000009002800441612000000000000000000000000010002100027198410221200000000002            2  01271984102225102200000002943760000000001N071022000000000000000000000000000000000000000000000000000000000000000100027198452809CRISTIANE AURELIANO DA SILVA MAIA       RUA MONTE CASTELO - 262 AP.25 - AVIACAO             11702720                                                            000011
2SR. CAIXA, APOS O VENCIMENTO COBRAR 10% DE MULTA                                NAO RECEBER APOS 30 DIAS DO VENCIMENTO.                                                                                                                                                                                                         10102200000000000001010220000000000000       0090028004416120271984102212000012
100000000000000000000009002800441612000000000000000000000000010002100021246210221600000000002            2  01212462102225102200000003592610000000001N071022000000000000000000000000000000000000000000000000000000000000000100021246231840ALEXANDRO DA CUNHA MIGUES               RUA DULCE - 71  - VILA CARRAO - SAO PAUL            03427040                                                            000014
2SR. CAIXA, APOS O VENCIMENTO COBRAR 10% DE MULTA                                NAO RECEBER APOS 30 DIAS DO VENCIMENTO.                                                                                                                                                                                                         10102200000000000001010220000000000000       0090028004416120212462102216000015
100000000000000000000009002800441612000000000000000000000000010002100018470510221600000000002            2  01184705102225102200000005285250000000001N071022000000000000000000000000000000000000000000000000000000000000000100018470520881SILVANA ALVES DE OLIVEIRA               RUA MONTE CASTELO - 262 AP.91 - AVIACAO             11702720                                                            000017
2SR. CAIXA, APOS O VENCIMENTO COBRAR 10% DE MULTA                                NAO RECEBER APOS 30 DIAS DO VENCIMENTO.                                                                                                                                                                                                         10102200000000000001010220000000000000       0090028004416120184705102216000018
100000000000000000000009002800441612000000000000000000000000010002100009297510221600000000002            2  01092975102225102200000003679520000000001N071022000000000000000000000000000000000000000000000000000000000000000100009297523846MARCOS ROBERTO DE CASTRO FERREIRA       RUA MONTE CASTELO - 262 AP.105 - AVIACAO            11702720                                                            000020
2SR. CAIXA, APOS O VENCIMENTO COBRAR 10% DE MULTA                                NAO RECEBER APOS 30 DIAS DO VENCIMENTO.                                                                                                                                                                                                         10102200000000000001010220000000000000       0090028004416120092975102216000021
100000000000000000000009002800441612000000000000000000000000010002100001164110221500000000002            2  01011641102225102200000004559770000000001N071022000000000000000000000000000000000000000000000000000000000000000100001164158864DAVID BLEY LACERDA                      RUA CONEGO ARAUJO MARCONDES - 188 - BAIR            02550080                                                            000023
2SR. CAIXA, APOS O VENCIMENTO COBRAR 10% DE MULTA                                NAO RECEBER APOS 30 DIAS DO VENCIMENTO.                                                                                                                                                                                                         10102200000000000001010220000000000000       0090028004416120011641102215000024
100000000000000000000009002800441612000000000000000000000000010002100031498010221900000000002            2  01314980102225102200000005541750000000001N071022000000000000000000000000000000000000000000000000000000000000000100031498008895POLIANE  SIBELE DA SILVA                PRACA GENERAL COSTA BARRETO - 56 AP.181             03325070                                                            000026
2SR. CAIXA, APOS O VENCIMENTO COBRAR 10% DE MULTA                                NAO RECEBER APOS 30 DIAS DO VENCIMENTO.                                                                                                                                                                                                         10102200000000000001010220000000000000       0090028004416120314980102219000027
100000000000000000000009002800441612000000000000000000000000010002100014386810221500000000002            2  01143868102225102200000002600140000000001N071022000000000000000000000000000000000000000000000000000000000000000100014386860134SEVERINO CARLOS DE OLIVEIRA             RUA MONTE CASTELO - 262 AP.54 - AVIACAO             11702720                                                            000029
2SR. CAIXA, APOS O VENCIMENTO COBRAR 10% DE MULTA                                NAO RECEBER APOS 30 DIAS DO VENCIMENTO.                                                                                                                                                                                                         10102200000000000001010220000000000000       0090028004416120143868102215000030
100000000000000000000009002800441612000000000000000000000000010002100039393710221000000000002            2  01393937102225102200000001792080000000001N071022000000000000000000000000000000000000000000000000000000000000000100039393790850NAIRON RICARDO DE ARAUJO SANTOS         RUA NITEROI - 267 CASA 04 - JARDIM INDEP            11380350                                                            000032
2SR. CAIXA, APOS O VENCIMENTO COBRAR 10% DE MULTA                                NAO RECEBER APOS 30 DIAS DO VENCIMENTO.                                                                                                                                                                                                         10102200000000000001010220000000000000       0090028004416120393937102210000033
100000000000000000000009002800441612000000000000000000000000010002100019288710221900000000002            2  01192887102225102200000002413420000000001N071022000000000000000000000000000000000000000000000000000000000000000100019288787844EMERSON LUIZ MARTINEZ PEREIRA           RUA MONTE CASTELO - 296 AP.74 - AVIACAO             11702720                                                            000035
2SR. CAIXA, APOS O VENCIMENTO COBRAR 10% DE MULTA                                NAO RECEBER APOS 30 DIAS DO VENCIMENTO.                                                                                                                                                                                                         10102200000000000001010220000000000000       0090028004416120192887102219000036
9                                                                                                                                                                                                                                                                                                                                                                                                         000037