01REMESSA01COBRANCA       00000000000005331186HB SANTOS CONSTRUTORA E INCORP237BRADESCO       010523        MX0000071                                                                                                                                                                                                                                                                                     000001
100000000000000000000009033990000995400000000000000000000000010002020026858605231P00000000002            2  01268586052308052300000003076420000000001N010523000000000000000000000000000000000000000000000000000000000000000100026858625879GLAUCE FERREIRA DE OLIVEIRA FALSI       RUA LOURENCO ANTONIO BRAGANCA - 116 - JA            04403160                                                            000002
2SR. CAIXA, APOS O VENCIMENTO COBRAR 2% DE MULTA                                 NAO RECEBER APOS 30 DIAS DO VENCIMENTO.                                                                                                                                                                                                         01052300000000000000105230000000000000       009033990000995426858605231P000003
100000000000000000000009033990000995400000000000000000000000010002020016960805231000000000002            2  01169608052308052300000002937460000000001N010523000000000000000000000000000000000000000000000000000000000000000100016960804876LUIZ ALVES DE SOUZA JUNIOR              RUA URUGUAI - 89 AP.61 - JARDIM GUILHERM            11702300                                                            000005
2SR. CAIXA, APOS O VENCIMENTO COBRAR 2% DE MULTA                                 NAO RECEBER APOS 30 DIAS DO VENCIMENTO.                                                                                                                                                                                                         01052300000000000000105230000000000000       0090339900009954169608052310000006
100000000000000000000009033990000995400000000000000000000000010002020029425005231200000000002            2  01294250052308052300000002925660000000001N010523000000000000000000000000000000000000000000000000000000000000000100029425027897FABIA DOS SANTOS DE ANDRADE             AVENIDA ALCIDES CANDIDO DOS SANTOS - 248            11705480                                                            000008
2SR. CAIXA, APOS O VENCIMENTO COBRAR 2% DE MULTA                                 NAO RECEBER APOS 30 DIAS DO VENCIMENTO.                                                                                                                                                                                                         01052300000000000000105230000000000000       0090339900009954294250052312000009
100000000000000000000009033990000995400000000000000000000000010002020078382705231800000000002            2  01783827052308052300000002956530000000001N010523000000000000000000000000000000000000000000000000000000000000000100078382700497JARMELINA BARBOSA DA SILVA              RUA OSCAR CINTRA GORDINHO - 211 AP.51 -             01512010                                                            000011
2SR. CAIXA, APOS O VENCIMENTO COBRAR 2% DE MULTA                                 NAO RECEBER APOS 30 DIAS DO VENCIMENTO.                                                                                                                                                                                                         01052300000000000000105230000000000000       0090339900009954783827052318000012
100000000000000000000009033990000995400000000000000000000000010002020007535305231700000000002            2  01075353052308052300000002899250000000001N010523000000000000000000000000000000000000000000000000000000000000000100007535375839AINAILDE PEREIRA DE CASTRO OLIVETTO     TRAVESSA DORALINA ELIETE ADAO DA SILVA -            08021026                                                            000014
2SR. CAIXA, APOS O VENCIMENTO COBRAR 2% DE MULTA                                 NAO RECEBER APOS 30 DIAS DO VENCIMENTO.                                                                                                                                                                                                         01052300000000000000105230000000000000       0090339900009954075353052317000015
100000000000000000000009033990000995400000000000000000000000010002020017229705231200000000002            2  01172297052308052300000003071120000000001N010523000000000000000000000000000000000000000000000000000000000000000100017229751802BERENICE VIEIRA KERSTING                RUA ATIBAIA - 17 AP.417 - BAIRRO IMPERAD            11707380                                                            000017
2SR. CAIXA, APOS O VENCIMENTO COBRAR 2% DE MULTA                                 NAO RECEBER APOS 30 DIAS DO VENCIMENTO.                                                                                                                                                                                                         01052300000000000000105230000000000000       0090339900009954172297052312000018
100000000000000000000009033990000995400000000000000000000000010002020028974205231400000000002            2  01289742052308052300000002868360000000001N010523000000000000000000000000000000000000000000000000000000000000000100028974233827MARISTELA FAVANI DE OLIVEIRA            RUA GIUSEPPE CARNEVALLI - 96 - BAIRRO BO            09572100                                                            000020
2SR. CAIXA, APOS O VENCIMENTO COBRAR 2% DE MULTA                                 NAO RECEBER APOS 30 DIAS DO VENCIMENTO.                                                                                                                                                                                                         01052300000000000000105230000000000000       0090339900009954289742052314000021
100000000000000000000009033990000995400000000000000000000000010002020092184805231100000000002            2  01921848052308052300000002830180000000001N010523000000000000000000000000000000000000000000000000000000000000000100092184804800CARMEM DO SOCORRO GUILHERME             ESTRADA SAO FRANCISCO - 1.850 AP.182A -             06765000                                                            000023
2SR. CAIXA, APOS O VENCIMENTO COBRAR 2% DE MULTA                                 NAO RECEBER APOS 30 DIAS DO VENCIMENTO.                                                                                                                                                                                                         01052300000000000000105230000000000000       0090339900009954921848052311000024
100000000000000000000009033990000995400000000000000000000000010002020009169705231100000000002            2  01091697052308052300000002269830000000001N010523000000000000000000000000000000000000000000000000000000000000000100009169701830TADEU CONSTANTINO LOPES                 RUA JOSE ANTONIO COELHO - 349 CASA 01 -             04011061                                                            000026
2SR. CAIXA, APOS O VENCIMENTO COBRAR 2% DE MULTA                                 NAO RECEBER APOS 30 DIAS DO VENCIMENTO.                                                                                                                                                                                                         01052300000000000000105230000000000000       0090339900009954091697052311000027
100000000000000000000009033990000995400000000000000000000000010002020042480105231P00000000002            2  01424801052308052300000002887450000000001N010523000000000000000000000000000000000000000000000000000000000000000100042480155870JAMITRE SOIOMARA ALVES DO NASCIMENTO DAVRUA URUGUAI - 89 AP.75 - JARDIM GUILHERM            11702300                                                            000029
2SR. CAIXA, APOS O VENCIMENTO COBRAR 2% DE MULTA                                 NAO RECEBER APOS 30 DIAS DO VENCIMENTO.                                                                                                                                                                                                         01052300000000000000105230000000000000       009033990000995442480105231P000030
100000000000000000000009033990000995400000000000000000000000010002020008966505231500000000002            2  01089665052308052300000002728170000000001N010523000000000000000000000000000000000000000000000000000000000000000100008966511856MONICA SILVA REIS                       RUA ORATORIO - 264 E FUNDOS - BANGU - SA            09280550                                                            000032
2SR. CAIXA, APOS O VENCIMENTO COBRAR 2% DE MULTA                                 NAO RECEBER APOS 30 DIAS DO VENCIMENTO.                                                                                                                                                                                                         01052300000000000000105230000000000000       0090339900009954089665052315000033
100000000000000000000009033990000995400000000000000000000000010002020001356905231600000000002            2  01013569052308052300000002930440000000001N010523000000000000000000000000000000000000000000000000000000000000000100001356993800DALVA MARIA DOS SANTOS                  RUA URUGUAI - 89 AP.74 - AVIACAO - PRAIA            11702300                                                            000035
2SR. CAIXA, APOS O VENCIMENTO COBRAR 2% DE MULTA                                 NAO RECEBER APOS 30 DIAS DO VENCIMENTO.                                                                                                                                                                                                         01052300000000000000105230000000000000       0090339900009954013569052316000036
100000000000000000000009033990000995400000000000000000000000010002020024615505231900000000002            2  01246155052308052300000003342040000000001N010523000000000000000000000000000000000000000000000000000000000000000100024615557884GILBERTO JOSE GONSALES                  RUA URUGUAI - 89 AP.115 - JARDIM GUILHER            11702300                                                            000038
2SR. CAIXA, APOS O VENCIMENTO COBRAR 2% DE MULTA                                 NAO RECEBER APOS 30 DIAS DO VENCIMENTO.                                                                                                                                                                                                         01052300000000000000105230000000000000       0090339900009954246155052319000039
100000000000000000000009033990000995400000000000000000000000010002020031473705231900000000002            2  01314737052308052300000002362310000000001N010523000000000000000000000000000000000000000000000000000000000000000100031473799813MURIEL DA SILVA DE MOURA SOUZA          RUA CAPITAO PAULINO FREIRE - 300 AP.014             08717100                                                            000041
2SR. CAIXA, APOS O VENCIMENTO COBRAR 2% DE MULTA                                 NAO RECEBER APOS 30 DIAS DO VENCIMENTO.                                                                                                                                                                                                         01052300000000000000105230000000000000       0090339900009954314737052319000042
100000000000000000000009033990000995400000000000000000000000010002020036949505231800000000002            2  01369495052308052300000003127340000000001N010523000000000000000000000000000000000000000000000000000000000000000100036949505833FELIPE APARECIDO DOS SANTOS             RUA DAS MIMOSAS - 67 CASA 09 - VILA LUCI            03144010                                                            000044
2SR. CAIXA, APOS O VENCIMENTO COBRAR 2% DE MULTA                                 NAO RECEBER APOS 30 DIAS DO VENCIMENTO.                                                                                                                                                                                                         01052300000000000000105230000000000000       0090339900009954369495052318000045
100000000000000000000009033990000995400000000000000000000000010002020008539305231500000000002            2  01085393052308052300000003195230000000001N010523000000000000000000000000000000000000000000000000000000000000000100008539365871EDMILSON RAIMUNDO DOS SANTOS            RUA CALIDICE - 247 - PARQUE CRUZEIRO - S            08070010                                                            000047
2SR. CAIXA, APOS O VENCIMENTO COBRAR 2% DE MULTA                                 NAO RECEBER APOS 30 DIAS DO VENCIMENTO.                                                                                                                                                                                                         01052300000000000000105230000000000000       0090339900009954085393052315000048
100000000000000000000009033990000995400000000000000000000000010002020031040905231400000000002            2  01310409052308052300000003291900000000001N010523000000000000000000000000000000000000000000000000000000000000000100031040952801ANDRESSA REGINA FAVERANI LUPPI          RUA AMALIA BELLOTTI PASTORELLO - 169 - T            11724030                                                            000050
2SR. CAIXA, APOS O VENCIMENTO COBRAR 2% DE MULTA                                 NAO RECEBER APOS 30 DIAS DO VENCIMENTO.                                                                                                                                                                                                         01052300000000000000105230000000000000       0090339900009954310409052314000051
100000000000000000000009033990000995400000000000000000000000010002020024558905231000000000002            2  01245589052308052300000005503370000000001N010523000000000000000000000000000000000000000000000000000000000000000100024558912838EDILENE GORGATTI                        RUA ITARARE - 76 AP.142 - JARDIM GUILHER            11701820                                                            000053
2SR. CAIXA, APOS O VENCIMENTO COBRAR 2% DE MULTA                                 NAO RECEBER APOS 30 DIAS DO VENCIMENTO.                                                                                                                                                                                                         01052300000000000000105230000000000000       0090339900009954245589052310000054
100000000000000000000009033990000995400000000000000000000000010002020004611205231600000000002            2  01046112052308052300000002026560000000001N010523000000000000000000000000000000000000000000000000000000000000000100004611218830TANIA MARIA DA SILVA NUNES PEREIRA LUIZ RUA URUGUAI - 89 AP.103 - JARDIM GUILHER            11702300                                                            000056
2SR. CAIXA, APOS O VENCIMENTO COBRAR 2% DE MULTA                                 NAO RECEBER APOS 30 DIAS DO VENCIMENTO.                                                                                                                                                                                                         01052300000000000000105230000000000000       0090339900009954046112052316000057
100000000000000000000009033990000995400000000000000000000000010002020010548805231300000000002            2  01105488052308052300000003600890000000001N010523000000000000000000000000000000000000000000000000000000000000000100010548844801RICARDO DE JESUS CALDAS                 RUA ANTONIO AMBUBA - 50 CASA 60 - BAIRRO            05782370                                                            000059
2SR. CAIXA, APOS O VENCIMENTO COBRAR 2% DE MULTA                                 NAO RECEBER APOS 30 DIAS DO VENCIMENTO.                                                                                                                                                                                                         01052300000000000000105230000000000000       0090339900009954105488052313000060
100000000000000000000009033990000995400000000000000000000000010002020039623805231200000000002            2  01396238052308052300000003164740000000001N010523000000000000000000000000000000000000000000000000000000000000000100039623826826LEONARDO GUEDES PINTO                   RUA URUGUAI - 89 AP.24 - AVIACAO - PRAIA            11702300                                                            000062
2SR. CAIXA, APOS O VENCIMENTO COBRAR 2% DE MULTA                                 NAO RECEBER APOS 30 DIAS DO VENCIMENTO.                                                                                                                                                                                                         01052300000000000000105230000000000000       0090339900009954396238052312000063
100000000000000000000009033990000995400000000000000000000000010002020039558605231100000000002            2  01395586052308052300000002905460000000001N010523000000000000000000000000000000000000000000000000000000000000000100039558638838TAMIRES ROCHA FRANCISCO                 RUA DUARTE DE CARVALHO - 185 AP.102 - BA            03084030                                                            000065
2SR. CAIXA, APOS O VENCIMENTO COBRAR 2% DE MULTA                                 NAO RECEBER APOS 30 DIAS DO VENCIMENTO.                                                                                                                                                                                                         01052300000000000000105230000000000000       0090339900009954395586052311000066
100000000000000000000009033990000995400000000000000000000000010002020032038705231000000000002            2  01320387052308052300000002363790000000001N010523000000000000000000000000000000000000000000000000000000000000000100032038775893GUSTAVO PEREIRA DA CRUZ                 RUA SAO FIDELIS - 203 - JARDIM BRASIL -             16074050                                                            000068
2SR. CAIXA, APOS O VENCIMENTO COBRAR 2% DE MULTA                                 NAO RECEBER APOS 30 DIAS DO VENCIMENTO.                                                                                                                                                                                                         01052300000000000000105230000000000000       0090339900009954320387052310000069
100000000000000000000009033990000995400000000000000000000000010002020008993105231800000000002            2  01089931052308052300000011155820000000001N010523000000000000000000000000000000000000000000000000000000000000000100008993178801PATRICIA BITTENCOURT FRACARO            RUA MARCIO MAZZEI - 337 - VILA NOVA MAZZ            02316050                                                            000071
2SR. CAIXA, APOS O VENCIMENTO COBRAR 2% DE MULTA                                 NAO RECEBER APOS 30 DIAS DO VENCIMENTO.                                                                                                                                                                                                         01052300000000000000105230000000000000       0090339900009954089931052318000072
100000000000000000000009033990000995400000000000000000000000010002020012955205231000000000002            2  01129552052308052300000005478020000000001N010523000000000000000000000000000000000000000000000000000000000000000100012955241806MAURO ALVES SILVA                       RUA TRAITUBA - 354 - BAIRRO SAUDE - SAO             04142050                                                            000074
2SR. CAIXA, APOS O VENCIMENTO COBRAR 2% DE MULTA                                 NAO RECEBER APOS 30 DIAS DO VENCIMENTO.                                                                                                                                                                                                         01052300000000000000105230000000000000       0090339900009954129552052310000075
100000000000000000000009033990000995400000000000000000000000010002020025914205231400000000002            2  01259142052308052300000003214060000000001N010523000000000000000000000000000000000000000000000000000000000000000100025914206880JONAS DOS REIS MACHADO                  RUA PROFESSORA MARGARIDA RUTH FERREIRA D            02378200                                                            000077
2SR. CAIXA, APOS O VENCIMENTO COBRAR 2% DE MULTA                                 NAO RECEBER APOS 30 DIAS DO VENCIMENTO.                                                                                                                                                                                                         01052300000000000000105230000000000000       0090339900009954259142052314000078
9                                                                                                                                                                                                                                                                                                                                                                                                         000079