01REMESSA01COBRANCA       00000000000005331186HB SANTOS CONSTRUTORA E INCORP237BRADESCO       010524        MX0000096                                                                                                                                                                                                                                                                                     000001
100000000000000000000009033990000995400000000000000000000000010002020026858605241700000000002            2  01268586052408052400000003410170000000001N010524000000000000000000000000000000000000000000000000000000000000000100026858625879GLAUCE FERREIRA DE OLIVEIRA FALSI       RUA LOURENCO ANTONIO BRAGANCA - 116 - JA            04403160                                                            000002
2SR. CAIXA, APOS O VENCIMENTO COBRAR 2% DE MULTA                                 NAO RECEBER APOS 30 DIAS DO VENCIMENTO.                                                                                                                                                                                                         01052400000000000000105240000000000000       0090339900009954268586052417000003
100000000000000000000009033990000995400000000000000000000000010002020029425005241P00000000002            2  01294250052408052400000003243070000000001N010524000000000000000000000000000000000000000000000000000000000000000100029425027897FABIA DOS SANTOS DE ANDRADE             AVENIDA ALCIDES CANDIDO DOS SANTOS - 248            11705480                                                            000005
2SR. CAIXA, APOS O VENCIMENTO COBRAR 2% DE MULTA                                 NAO RECEBER APOS 30 DIAS DO VENCIMENTO.                                                                                                                                                                                                         01052400000000000000105240000000000000       009033990000995429425005241P000006
100000000000000000000009033990000995400000000000000000000000010002020078382705241500000000002            2  01783827052408052400000003277310000000001N010524000000000000000000000000000000000000000000000000000000000000000100078382700497JARMELINA BARBOSA DA SILVA              RUA OSCAR CINTRA GORDINHO - 211 AP.51 -             01512010                                                            000008
2SR. CAIXA, APOS O VENCIMENTO COBRAR 2% DE MULTA                                 NAO RECEBER APOS 30 DIAS DO VENCIMENTO.                                                                                                                                                                                                         01052400000000000000105240000000000000       0090339900009954783827052415000009
100000000000000000000009033990000995400000000000000000000000010002020007535305241400000000002            2  01075353052408052400000003213780000000001N010524000000000000000000000000000000000000000000000000000000000000000100007535375839AINAILDE PEREIRA DE CASTRO OLIVETTO     TRAVESSA DORALINA ELIETE ADAO DA SILVA -            08021026                                                            000011
2SR. CAIXA, APOS O VENCIMENTO COBRAR 2% DE MULTA                                 NAO RECEBER APOS 30 DIAS DO VENCIMENTO.                                                                                                                                                                                                         01052400000000000000105240000000000000       0090339900009954075353052414000012
100000000000000000000009033990000995400000000000000000000000010002020017229705241P00000000002            2  01172297052408052400000003404320000000001N010524000000000000000000000000000000000000000000000000000000000000000100017229751802BERENICE VIEIRA KERSTING                RUA ATIBAIA - 17 AP.417 - BAIRRO IMPERAD            11707380                                                            000014
2SR. CAIXA, APOS O VENCIMENTO COBRAR 2% DE MULTA                                 NAO RECEBER APOS 30 DIAS DO VENCIMENTO.                                                                                                                                                                                                         01052400000000000000105240000000000000       009033990000995417229705241P000015
100000000000000000000009033990000995400000000000000000000000010002020028974205241100000000002            2  01289742052408052400000003179530000000001N010524000000000000000000000000000000000000000000000000000000000000000100028974233827MARISTELA FAVANI DE OLIVEIRA            RUA GIUSEPPE CARNEVALLI - 96 - BAIRRO BO            09572100                                                            000017
2SR. CAIXA, APOS O VENCIMENTO COBRAR 2% DE MULTA                                 NAO RECEBER APOS 30 DIAS DO VENCIMENTO.                                                                                                                                                                                                         01052400000000000000105240000000000000       0090339900009954289742052411000018
100000000000000000000009033990000995400000000000000000000000010002020092184805241900000000002            2  01921848052408052400000003137240000000001N010524000000000000000000000000000000000000000000000000000000000000000100092184804800CARMEM DO SOCORRO GUILHERME             ESTRADA SAO FRANCISCO - 1.850 AP.182A -             06765000                                                            000020
2SR. CAIXA, APOS O VENCIMENTO COBRAR 2% DE MULTA                                 NAO RECEBER APOS 30 DIAS DO VENCIMENTO.                                                                                                                                                                                                         01052400000000000000105240000000000000       0090339900009954921848052419000021
100000000000000000000009033990000995400000000000000000000000010002020009169705241900000000002            2  01091697052408052400000002516100000000001N010524000000000000000000000000000000000000000000000000000000000000000100009169701830TADEU CONSTANTINO LOPES                 RUA JOSE ANTONIO COELHO - 349 CASA 01 -             04011061                                                            000023
2SR. CAIXA, APOS O VENCIMENTO COBRAR 2% DE MULTA                                 NAO RECEBER APOS 30 DIAS DO VENCIMENTO.                                                                                                                                                                                                         01052400000000000000105240000000000000       0090339900009954091697052419000024
100000000000000000000009033990000995400000000000000000000000010002020042480105241700000000002            2  01424801052408052400000003200710000000001N010524000000000000000000000000000000000000000000000000000000000000000100042480155870JAMITRE SOIOMARA ALVES DO NASCIMENTO DAVRUA URUGUAI - 89 AP.75 - JARDIM GUILHERM            11702300                                                            000026
2SR. CAIXA, APOS O VENCIMENTO COBRAR 2% DE MULTA                                 NAO RECEBER APOS 30 DIAS DO VENCIMENTO.                                                                                                                                                                                                         01052400000000000000105240000000000000       0090339900009954424801052417000027
100000000000000000000009033990000995400000000000000000000000010002020001356905241300000000002            2  01013569052408052400000003248370000000001N010524000000000000000000000000000000000000000000000000000000000000000100001356993800DALVA MARIA DOS SANTOS                  RUA URUGUAI - 89 AP.74 - AVIACAO - PRAIA            11702300                                                            000029
2SR. CAIXA, APOS O VENCIMENTO COBRAR 2% DE MULTA                                 NAO RECEBER APOS 30 DIAS DO VENCIMENTO.                                                                                                                                                                                                         01052400000000000000105240000000000000       0090339900009954013569052413000030
100000000000000000000009033990000995400000000000000000000000010002020024615505241600000000002            2  01246155052408052400000003704630000000001N010524000000000000000000000000000000000000000000000000000000000000000100024615557884GILBERTO JOSE GONSALES                  RUA URUGUAI - 89 AP.115 - JARDIM GUILHER            11702300                                                            000032
2SR. CAIXA, APOS O VENCIMENTO COBRAR 2% DE MULTA                                 NAO RECEBER APOS 30 DIAS DO VENCIMENTO.                                                                                                                                                                                                         01052400000000000000105240000000000000       0090339900009954246155052416000033
100000000000000000000009033990000995400000000000000000000000010002020008539305241200000000002            2  01085393052408052400000003541900000000001N010524000000000000000000000000000000000000000000000000000000000000000100008539365871EDMILSON RAIMUNDO DOS SANTOS            RUA CALIDICE - 247 - PARQUE CRUZEIRO - S            08070010                                                            000035
2SR. CAIXA, APOS O VENCIMENTO COBRAR 2% DE MULTA                                 NAO RECEBER APOS 30 DIAS DO VENCIMENTO.                                                                                                                                                                                                         01052400000000000000105240000000000000       0090339900009954085393052412000036
100000000000000000000009033990000995400000000000000000000000010002020004611205241300000000002            2  01046112052408052400000002246450000000001N010524000000000000000000000000000000000000000000000000000000000000000100004611218830TANIA MARIA DA SILVA NUNES PEREIRA LUIZ RUA URUGUAI - 89 AP.103 - JARDIM GUILHER            11702300                                                            000038
2SR. CAIXA, APOS O VENCIMENTO COBRAR 2% DE MULTA                                 NAO RECEBER APOS 30 DIAS DO VENCIMENTO.                                                                                                                                                                                                         01052400000000000000105240000000000000       0090339900009954046112052413000039
100000000000000000000009033990000995400000000000000000000000010002020010548805241000000000002            2  01105488052408052400000003991570000000001N010524000000000000000000000000000000000000000000000000000000000000000100010548844801RICARDO DE JESUS CALDAS                 RUA ANTONIO AMBUBA - 50 CASA 60 - BAIRRO            05782370                                                            000041
2SR. CAIXA, APOS O VENCIMENTO COBRAR 2% DE MULTA                                 NAO RECEBER APOS 30 DIAS DO VENCIMENTO.                                                                                                                                                                                                         01052400000000000000105240000000000000       0090339900009954105488052410000042
100000000000000000000009033990000995400000000000000000000000010002020032038705241800000000002            2  01320387052408052400000002620250000000001N010524000000000000000000000000000000000000000000000000000000000000000100032038775893GUSTAVO PEREIRA DA CRUZ                 RUA SAO FIDELIS - 203 - JARDIM BRASIL -             16074050                                                            000044
2SR. CAIXA, APOS O VENCIMENTO COBRAR 2% DE MULTA                                 NAO RECEBER APOS 30 DIAS DO VENCIMENTO.                                                                                                                                                                                                         01052400000000000000105240000000000000       0090339900009954320387052418000045
100000000000000000000009033990000995400000000000000000000000010002020008993105241500000000002            2  01089931052408052400000012366150000000001N010524000000000000000000000000000000000000000000000000000000000000000100008993178801PATRICIA BITTENCOURT FRACARO            RUA MARCIO MAZZEI - 337 - VILA NOVA MAZZ            02316050                                                            000047
2SR. CAIXA, APOS O VENCIMENTO COBRAR 2% DE MULTA                                 NAO RECEBER APOS 30 DIAS DO VENCIMENTO.                                                                                                                                                                                                         01052400000000000000105240000000000000       0090339900009954089931052415000048
100000000000000000000009033990000995400000000000000000000000010002020025914205241100000000002            2  01259142052408052400000003562760000000001N010524000000000000000000000000000000000000000000000000000000000000000100025914206880JONAS DOS REIS MACHADO                  RUA PROFESSORA MARGARIDA RUTH FERREIRA D            02378200                                                            000050
2SR. CAIXA, APOS O VENCIMENTO COBRAR 2% DE MULTA                                 NAO RECEBER APOS 30 DIAS DO VENCIMENTO.                                                                                                                                                                                                         01052400000000000000105240000000000000       0090339900009954259142052411000051
100000000000000000000009033990000995400000000000000000000000010002020032549505241800000000002            2  01325495052408052400000003256140000000001N010524000000000000000000000000000000000000000000000000000000000000000100032549502833PAMELA DECENCI                          RUA URUGUAI - 89 AP.61 - AVIACAO - PRAIA            11702300                                                            000053
2SR. CAIXA, APOS O VENCIMENTO COBRAR 2% DE MULTA                                 NAO RECEBER APOS 30 DIAS DO VENCIMENTO.                                                                                                                                                                                                         01052400000000000000105240000000000000       0090339900009954325495052418000054
100000000000000000000009033990000995400000000000000000000000010002020027969405241700000000002            2  01279694052408052400000002618600000000001N010524000000000000000000000000000000000000000000000000000000000000000100027969412807THIAGO BARRETO PEREZ                    RUA ARMINDO GUARANA - 170 - VILA REGENTE            03335070                                                            000056
2SR. CAIXA, APOS O VENCIMENTO COBRAR 2% DE MULTA                                 NAO RECEBER APOS 30 DIAS DO VENCIMENTO.                                                                                                                                                                                                         01052400000000000000105240000000000000       0090339900009954279694052417000057
100000000000000000000009033990000995400000000000000000000000010002020013466505241800000000002            2  01134665052408052400000003508100000000001N010524000000000000000000000000000000000000000000000000000000000000000100013466586844MAURICIO DANTAS DA SILVA                RUA CASTOR - 57 - CIDADE SATELITE SANTA             08340120                                                            000059
2SR. CAIXA, APOS O VENCIMENTO COBRAR 2% DE MULTA                                 NAO RECEBER APOS 30 DIAS DO VENCIMENTO.                                                                                                                                                                                                         01052400000000000000105240000000000000       0090339900009954134665052418000060
100000000000000000000009033990000995400000000000000000000000010002020036263805241700000000002            2  01362638052408052400000003466630000000001N010524000000000000000000000000000000000000000000000000000000000000000100036263883871DIEGO ELIAS DA SILVA                    AVENIDA DEZENOVE DE JANEIRO - 160 - VILA            03449000                                                            000062
2SR. CAIXA, APOS O VENCIMENTO COBRAR 2% DE MULTA                                 NAO RECEBER APOS 30 DIAS DO VENCIMENTO.                                                                                                                                                                                                         01052400000000000000105240000000000000       0090339900009954362638052417000063
9                                                                                                                                                                                                                                                                                                                                                                                                         000064