01REMESSA01COBRANCA       00000000000008017025HB SANTOS CONSTRUTORA E INCORP237BRADESCO       010522        MX0000152                                                                                                                                                                                                                                                                                     000001
100000000000000000000009033990000627000000000000000000000000010002020016479005221300000000002            2  01164790052209052200000004797100000000001N010522000000000000000000000000000000000000000000000000000000000000000100016479002806LOURDES PEREIRA DE QUEIROZ SECANECHIA   RUA PAULINO CURSI - 437 - CIDADE SAO MAT            03960060                                                            000002
2SR. CAIXA, APOS O VENCIMENTO COBRAR 2% DE MULTA                                 NAO RECEBER APOS 30 DIAS DO VENCIMENTO.                                                                                                                                                                                                         01052200000000000000105220000000000000       0090339900006270164790052213000003
100000000000000000000009033990000627000000000000000000000000010002020017229705222300000000002            2  01172297052209052200000003650540000000001N010522000000000000000000000000000000000000000000000000000000000000000100017229751802BERENICE VIEIRA KERSTING                RUA ATIBAIA - 17 AP.417 - BAIRRO IMPERAD            11707380                                                            000005
2SR. CAIXA, APOS O VENCIMENTO COBRAR 2% DE MULTA                                 NAO RECEBER APOS 30 DIAS DO VENCIMENTO.                                                                                                                                                                                                         01052200000000000000105220000000000000       0090339900006270172297052223000006
100000000000000000000009033990000627000000000000000000000000010002020009361405221000000000002            2  01093614052209052200000003482710000000001N010522000000000000000000000000000000000000000000000000000000000000000100009361471805JOSE BARBOSA DA SILVA                   RUA ALFREDO INACIO TRINDADE  - 60 AP.44             02344100                                                            000008
2SR. CAIXA, APOS O VENCIMENTO COBRAR 2% DE MULTA                                 NAO RECEBER APOS 30 DIAS DO VENCIMENTO.                                                                                                                                                                                                         01052200000000000000105220000000000000       0090339900006270093614052210000009
100000000000000000000009033990000627000000000000000000000000010002020012756905221400000000002            2  01127569052209052200000003006340000000001N010522000000000000000000000000000000000000000000000000000000000000000100012756959812ITAMAR JUVENAL DIAS DA SILVA            RUA ELISEU REINALDO MORAES VIEIRA - 90 A            02858000                                                            000011
2SR. CAIXA, APOS O VENCIMENTO COBRAR 2% DE MULTA                                 NAO RECEBER APOS 30 DIAS DO VENCIMENTO.                                                                                                                                                                                                         01052200000000000000105220000000000000       0090339900006270127569052214000012
100000000000000000000009033990000627000000000000000000000000010002020029433605221800000000002            2  01294336052211052200000002493040000000001N010522000000000000000000000000000000000000000000000000000000000000000100029433631897MARIO MUNIZ                             RUA JOSE CALIXTO DO CARMO - 286 AP.53 -             11702690                                                            000014
2SR. CAIXA, APOS O VENCIMENTO COBRAR 2% DE MULTA                                 NAO RECEBER APOS 30 DIAS DO VENCIMENTO.                                                                                                                                                                                                         01052200000000000000105220000000000000       0090339900006270294336052218000015
100000000000000000000009033990000627000000000000000000000000010002020005029805221000000000002            2  01050298052209052200000003065130000000001N010522000000000000000000000000000000000000000000000000000000000000000100005029828885LAURINETE DA CONCEICAO DE NORONHA       RUA MARIA LUCIA DE TOLEDO LEITE MORAES -            04434040                                                            000017
2SR. CAIXA, APOS O VENCIMENTO COBRAR 2% DE MULTA                                 NAO RECEBER APOS 30 DIAS DO VENCIMENTO.                                                                                                                                                                                                         01052200000000000000105220000000000000       0090339900006270050298052210000018
100000000000000000000009033990000627000000000000000000000000010002020013388905221200000000002            2  01133889052211052200000002430310000000001N010522000000000000000000000000000000000000000000000000000000000000000100013388936889NEUTON DE SOUZA RAMOS                   RUA MARIA CRISTINA - 932 - JARDIM CASQUE            11533160                                                            000020
2SR. CAIXA, APOS O VENCIMENTO COBRAR 2% DE MULTA                                 NAO RECEBER APOS 30 DIAS DO VENCIMENTO.                                                                                                                                                                                                         01052200000000000000105220000000000000       0090339900006270133889052212000021
100000000000000000000009033990000627000000000000000000000000010002020012774905221200000000002            2  01127749052211052200000002475950000000001N010522000000000000000000000000000000000000000000000000000000000000000100012774906865JOSE MILTON SANTIAGO                    RUA BATATAIS - 47 - CIDADE ESTELA - POA             08563140                                                            000023
2SR. CAIXA, APOS O VENCIMENTO COBRAR 2% DE MULTA                                 NAO RECEBER APOS 30 DIAS DO VENCIMENTO.                                                                                                                                                                                                         01052200000000000000105220000000000000       0090339900006270127749052212000024
100000000000000000000009033990000627000000000000000000000000010002020016294105221800000000002            2  01162941052209052200000003043140000000001N010522000000000000000000000000000000000000000000000000000000000000000100016294119812JURACY FELIX DE ARRUDA                  RUA CARLOS JOSE BORSTENS - 50 AP.23 - AV            11702750                                                            000026
2SR. CAIXA, APOS O VENCIMENTO COBRAR 2% DE MULTA                                 NAO RECEBER APOS 30 DIAS DO VENCIMENTO.                                                                                                                                                                                                         01052200000000000000105220000000000000       0090339900006270162941052218000027
100000000000000000000009033990000627000000000000000000000000010002020005613805221200000000002            2  01056138052211052200000002277180000000001N010522000000000000000000000000000000000000000000000000000000000000000100005613843805NILZA MARIA DE OLIVEIRA                 RUA JOSE GONCALVES DE FREITAS - 66 C2 -             08210550                                                            000029
2SR. CAIXA, APOS O VENCIMENTO COBRAR 2% DE MULTA                                 NAO RECEBER APOS 30 DIAS DO VENCIMENTO.                                                                                                                                                                                                         01052200000000000000105220000000000000       0090339900006270056138052212000030
100000000000000000000009033990000627000000000000000000000000010002020007574905221200000000002            2  01075749052211052200000002337470000000001N010522000000000000000000000000000000000000000000000000000000000000000100007574936889JORGE LUCIANO PEREIRA BORRIELLO         RUA JOSE CALIXTO DO CARMO - 286 AP.54 -             11702690                                                            000032
2SR. CAIXA, APOS O VENCIMENTO COBRAR 2% DE MULTA                                 NAO RECEBER APOS 30 DIAS DO VENCIMENTO.                                                                                                                                                                                                         01052200000000000000105220000000000000       0090339900006270075749052212000033
100000000000000000000009033990000627000000000000000000000000010002020008214905221500000000002            2  01082149052211052200000002372920000000001N010522000000000000000000000000000000000000000000000000000000000000000100008214973830JAMIL CHALA                             RUA JOSE CALIXTO DO CARMO - 286 AP.22 -             11702690                                                            000035
2SR. CAIXA, APOS O VENCIMENTO COBRAR 2% DE MULTA                                 NAO RECEBER APOS 30 DIAS DO VENCIMENTO.                                                                                                                                                                                                         01052200000000000000105220000000000000       0090339900006270082149052215000036
100000000000000000000009033990000627000000000000000000000000010002020032495005221200000000002            2  01324950052211052200000002659180000000001N010522000000000000000000000000000000000000000000000000000000000000000100032495004881PAULO EDUARDO DOS SANTOS                RUA REPUBLICA DO IRAQUE - 1119 - CAMPO B            04611002                                                            000038
2SR. CAIXA, APOS O VENCIMENTO COBRAR 2% DE MULTA                                 NAO RECEBER APOS 30 DIAS DO VENCIMENTO.                                                                                                                                                                                                         01052200000000000000105220000000000000       0090339900006270324950052212000039
100000000000000000000009033990000627000000000000000000000000010002020016498005221P00000000002            2  01164980052211052200000002332160000000001N010522000000000000000000000000000000000000000000000000000000000000000100016498053810GILMA CEZARIO GARCIA CORRITORI          RUA LAURENTINO XAVIER DOS SANTOS - 336 -            08240740                                                            000041
2SR. CAIXA, APOS O VENCIMENTO COBRAR 2% DE MULTA                                 NAO RECEBER APOS 30 DIAS DO VENCIMENTO.                                                                                                                                                                                                         01052200000000000000105220000000000000       009033990000627016498005221P000042
100000000000000000000009033990000627000000000000000000000000010002020029339005221900000000002            2  01293390052211052200000002493860000000001N010522000000000000000000000000000000000000000000000000000000000000000100029339051831RONALD DIDOFF                           RUA CORONEL FERREIRA BRAGA - 188 - VILA             03522010                                                            000044
2SR. CAIXA, APOS O VENCIMENTO COBRAR 2% DE MULTA                                 NAO RECEBER APOS 30 DIAS DO VENCIMENTO.                                                                                                                                                                                                         01052200000000000000105220000000000000       0090339900006270293390052219000045
100000000000000000000009033990000627000000000000000000000000010002020017357805221000000000002            2  01173578052211052200000002641220000000001N010522000000000000000000000000000000000000000000000000000000000000000100017357859894MARCIO GUIMARAES                        RUA GENERAL CAMARA - 188 SALA 11 - CENTR            11010120                                                            000047
2SR. CAIXA, APOS O VENCIMENTO COBRAR 2% DE MULTA                                 NAO RECEBER APOS 30 DIAS DO VENCIMENTO.                                                                                                                                                                                                         01052200000000000000105220000000000000       0090339900006270173578052210000048
100000000000000000000009033990000627000000000000000000000000010002020010563005221000000000002            2  01105630052211052200000002708720000000001N010522000000000000000000000000000000000000000000000000000000000000000100010563033878VERA LUCIA RIBEIRO LONGANEZI            RUA DOS CAMARES - 150 AP.24 BL.02 - CARA            02068030                                                            000050
2SR. CAIXA, APOS O VENCIMENTO COBRAR 2% DE MULTA                                 NAO RECEBER APOS 30 DIAS DO VENCIMENTO.                                                                                                                                                                                                         01052200000000000000105220000000000000       0090339900006270105630052210000051
100000000000000000000009033990000627000000000000000000000000010002020005529605221500000000002            2  01055296052211052200000002458080000000001N010522000000000000000000000000000000000000000000000000000000000000000100005529616801JOAQUIM JORGE DA COSTA                  RUA JOSE CALIXTO DO CARMO - 286 AP.106 -            11702690                                                            000053
2SR. CAIXA, APOS O VENCIMENTO COBRAR 2% DE MULTA                                 NAO RECEBER APOS 30 DIAS DO VENCIMENTO.                                                                                                                                                                                                         01052200000000000000105220000000000000       0090339900006270055296052215000054
100000000000000000000009033990000627000000000000000000000000010002020015550705221100000000002            2  01155507052209052200000002323360000000001N010522000000000000000000000000000000000000000000000000000000000000000100015550706806MARY MIWA                               RUA CARLOS JOSE BORSTENS - 50 AP.105 - A            11702750                                                            000056
2SR. CAIXA, APOS O VENCIMENTO COBRAR 2% DE MULTA                                 NAO RECEBER APOS 30 DIAS DO VENCIMENTO.                                                                                                                                                                                                         01052200000000000000105220000000000000       0090339900006270155507052211000057
100000000000000000000009033990000627000000000000000000000000010002020015464605221100000000002            2  01154646052211052200000002584020000000001N010522000000000000000000000000000000000000000000000000000000000000000100015464647864SONIA TERESA VOLPATO                    RUA JOSE CALIXTO DO CARMO - 286 AP.73 -             11702690                                                            000059
2SR. CAIXA, APOS O VENCIMENTO COBRAR 2% DE MULTA                                 NAO RECEBER APOS 30 DIAS DO VENCIMENTO.                                                                                                                                                                                                         01052200000000000000105220000000000000       0090339900006270154646052211000060
100000000000000000000009033990000627000000000000000000000000010002020008657805221000000000002            2  01086578052211052200000002558070000000001N010522000000000000000000000000000000000000000000000000000000000000000100008657886855ARLINDO DA CRUZ                         AVENIDA ARICANDUVA - 8.256 AP.54 BL.10 -            03951220                                                            000062
2SR. CAIXA, APOS O VENCIMENTO COBRAR 2% DE MULTA                                 NAO RECEBER APOS 30 DIAS DO VENCIMENTO.                                                                                                                                                                                                         01052200000000000000105220000000000000       0090339900006270086578052210000063
100000000000000000000009033990000627000000000000000000000000010002020059735105221900000000002            2  01597351052209052200000001445960000000001N010522000000000000000000000000000000000000000000000000000000000000000100059735180863HELIO JOSE MARQUES                      RUA MARTIM AFONSO DE SOUZA - 1007 AP.102            11702790                                                            000065
2SR. CAIXA, APOS O VENCIMENTO COBRAR 2% DE MULTA                                 NAO RECEBER APOS 30 DIAS DO VENCIMENTO.                                                                                                                                                                                                         01052200000000000000105220000000000000       0090339900006270597351052219000066
100000000000000000000009033990000627000000000000000000000000010002020026347805221200000000002            2  01263478052211052200000002734520000000001N010522000000000000000000000000000000000000000000000000000000000000000100026347872862VALDECI SILVA MEIRELES                  RUA JOSE BATISTA DA SILVA - 292 - JARDIM            06851470                                                            000068
2SR. CAIXA, APOS O VENCIMENTO COBRAR 2% DE MULTA                                 NAO RECEBER APOS 30 DIAS DO VENCIMENTO.                                                                                                                                                                                                         01052200000000000000105220000000000000       0090339900006270263478052212000069
100000000000000000000009033990000627000000000000000000000000010002020013135205221300000000002            2  01131352052211052200000002512330000000001N010522000000000000000000000000000000000000000000000000000000000000000100013135261859EDUARDO ZANOLA                          RUA ROLANDO PIETRO BONINI - 46 - JARDIM             09781040                                                            000071
2SR. CAIXA, APOS O VENCIMENTO COBRAR 2% DE MULTA                                 NAO RECEBER APOS 30 DIAS DO VENCIMENTO.                                                                                                                                                                                                         01052200000000000000105220000000000000       0090339900006270131352052213000072
100000000000000000000009033990000627000000000000000000000000010002020009797605221400000000002            2  01097976052211052200000002446740000000001N010522000000000000000000000000000000000000000000000000000000000000000100009797626857RICARDO SOBRAL DE OLIVEIRA              RUA 23 DE MAIO - 139 AP.32 - VILA MIRIM             11704690                                                            000074
2SR. CAIXA, APOS O VENCIMENTO COBRAR 2% DE MULTA                                 NAO RECEBER APOS 30 DIAS DO VENCIMENTO.                                                                                                                                                                                                         01052200000000000000105220000000000000       0090339900006270097976052214000075
100000000000000000000009033990000627000000000000000000000000010002020004767605221500000000002            2  01047676052209052200000004182600000000001N010522000000000000000000000000000000000000000000000000000000000000000100004767679893ORLANDO GRANDE FILHO                    RUA ORLANDO MIGLIARI - 101 - JARDIM OURO            19906140                                                            000077
2SR. CAIXA, APOS O VENCIMENTO COBRAR 2% DE MULTA                                 NAO RECEBER APOS 30 DIAS DO VENCIMENTO.                                                                                                                                                                                                         01052200000000000000105220000000000000       0090339900006270047676052215000078
100000000000000000000009033990000627000000000000000000000000010002020006512505221200000000002            2  01065125052211052200000002200950000000001N010522000000000000000000000000000000000000000000000000000000000000000100006512547870MARIA DO CARMO FAGUNDES DOS REIS        RUA CARLOS MALCHER - 98 - PARQUE EDU CHA            02232020                                                            000080
2SR. CAIXA, APOS O VENCIMENTO COBRAR 2% DE MULTA                                 NAO RECEBER APOS 30 DIAS DO VENCIMENTO.                                                                                                                                                                                                         01052200000000000000105220000000000000       0090339900006270065125052212000081
100000000000000000000009033990000627000000000000000000000000010002020022728405221500000000002            2  01227284052211052200000002647550000000001N010522000000000000000000000000000000000000000000000000000000000000000100022728497842WILLIAN DE SOUZA MELLO                  RUA JOSE CALIXTO DO CARMO - 286 AP.111 -            11702690                                                            000083
2SR. CAIXA, APOS O VENCIMENTO COBRAR 2% DE MULTA                                 NAO RECEBER APOS 30 DIAS DO VENCIMENTO.                                                                                                                                                                                                         01052200000000000000105220000000000000       0090339900006270227284052215000084
100000000000000000000009033990000627000000000000000000000000010002020016909705221P00000000002            2  01169097052211052200000002339590000000001N010522000000000000000000000000000000000000000000000000000000000000000100016909746805EDIVALDO SANTANA DOS SANTOS             ESTRADA JOAO GASPAR DELGADO - 80 AP.213             08536100                                                            000086
2SR. CAIXA, APOS O VENCIMENTO COBRAR 2% DE MULTA                                 NAO RECEBER APOS 30 DIAS DO VENCIMENTO.                                                                                                                                                                                                         01052200000000000000105220000000000000       009033990000627016909705221P000087
100000000000000000000009033990000627000000000000000000000000010002020022036005221700000000002            2  01220360052209052200000003632030000000001N010522000000000000000000000000000000000000000000000000000000000000000100022036003818DERLIS TERAN QUIROGA ROGATO             RUA JOAO RIBEIRO - 320 AP.131SB - CAMPES            09070250                                                            000089
2SR. CAIXA, APOS O VENCIMENTO COBRAR 2% DE MULTA                                 NAO RECEBER APOS 30 DIAS DO VENCIMENTO.                                                                                                                                                                                                         01052200000000000000105220000000000000       0090339900006270220360052217000090
100000000000000000000009033990000627000000000000000000000000010002020017229705223100000000002            2  01172297052209052200000003505240000000001N010522000000000000000000000000000000000000000000000000000000000000000100017229751802BERENICE VIEIRA KERSTING                RUA ATIBAIA - 17 AP.417 - BAIRRO IMPERAD            11707380                                                            000092
2SR. CAIXA, APOS O VENCIMENTO COBRAR 2% DE MULTA                                 NAO RECEBER APOS 30 DIAS DO VENCIMENTO.                                                                                                                                                                                                         01052200000000000000105220000000000000       0090339900006270172297052231000093
100000000000000000000009033990000627000000000000000000000000010002020012475605221000000000002            2  01124756052211052200000002536010000000001N010522000000000000000000000000000000000000000000000000000000000000000100012475663820CELIDALVA GOES DE CARVALHO              RUA JOSE CALIXTO DO CARMO - 286 AP.91 -             11702690                                                            000095
2SR. CAIXA, APOS O VENCIMENTO COBRAR 2% DE MULTA                                 NAO RECEBER APOS 30 DIAS DO VENCIMENTO.                                                                                                                                                                                                         01052200000000000000105220000000000000       0090339900006270124756052210000096
100000000000000000000009033990000627000000000000000000000000010002020033451605221800000000002            2  01334516052211052200000002117730000000001N010522000000000000000000000000000000000000000000000000000000000000000100033451620839ARAO ELISIARIO  NUNES                   RUA JOSE CALIXTO DO CARMO - 286 AP.64 -             11702690                                                            000098
2SR. CAIXA, APOS O VENCIMENTO COBRAR 2% DE MULTA                                 NAO RECEBER APOS 30 DIAS DO VENCIMENTO.                                                                                                                                                                                                         01052200000000000000105220000000000000       0090339900006270334516052218000099
100000000000000000000009033990000627000000000000000000000000010002020045839205221500000000002            2  01458392052211052200000001643730000000001N010522000000000000000000000000000000000000000000000000000000000000000100045839263834LEONARDO ANTONIO CONCELLIERI            RUA JOSE CALIXTO DO CARMO - 286 AP.51 -             11702690                                                            000101
2SR. CAIXA, APOS O VENCIMENTO COBRAR 2% DE MULTA                                 NAO RECEBER APOS 30 DIAS DO VENCIMENTO.                                                                                                                                                                                                         01052200000000000000105220000000000000       0090339900006270458392052215000102
100000000000000000000009033990000627000000000000000000000000010002020011369105221600000000002            2  01113691052211052200000002313360000000001N010522000000000000000000000000000000000000000000000000000000000000000100011369165803ELIANA CORREA DE OLIVEIRA               RUA MAESTRO ZEFERINO SANTANA - 65 - VILA            18040010                                                            000104
2SR. CAIXA, APOS O VENCIMENTO COBRAR 2% DE MULTA                                 NAO RECEBER APOS 30 DIAS DO VENCIMENTO.                                                                                                                                                                                                         01052200000000000000105220000000000000       0090339900006270113691052216000105
100000000000000000000009033990000627000000000000000000000000010002020002253805221P00000000002            2  01022538052211052200000002056130000000001N010522000000000000000000000000000000000000000000000000000000000000000100002253816809EDMILSON ALVES DA SILVA                 RUA JOSE CALIXTO DO CARMO - 286 AP.93 -             11702690                                                            000107
2SR. CAIXA, APOS O VENCIMENTO COBRAR 2% DE MULTA                                 NAO RECEBER APOS 30 DIAS DO VENCIMENTO.                                                                                                                                                                                                         01052200000000000000105220000000000000       009033990000627002253805221P000108
100000000000000000000009033990000627000000000000000000000000010002020037947005221100000000002            2  01379470052211052200000003651820000000001N010522000000000000000000000000000000000000000000000000000000000000000100037947070873BRUNO DE CAETANO MARRINHAS              AVENIDA GENERAL BARRETO DE MENEZES - 323            09791150                                                            000110
2SR. CAIXA, APOS O VENCIMENTO COBRAR 2% DE MULTA                                 NAO RECEBER APOS 30 DIAS DO VENCIMENTO.                                                                                                                                                                                                         01052200000000000000105220000000000000       0090339900006270379470052211000111
100000000000000000000009033990000627000000000000000000000000010002020037517705221P00000000002            2  01375177052209052200000003852340000000001N010522000000000000000000000000000000000000000000000000000000000000000100037517785869RENATO JOSE DE LIMA MELO                RUA ARISTIDES LOBO - 148 AP.41 BLOCO 03             03041100                                                            000113
2SR. CAIXA, APOS O VENCIMENTO COBRAR 2% DE MULTA                                 NAO RECEBER APOS 30 DIAS DO VENCIMENTO.                                                                                                                                                                                                         01052200000000000000105220000000000000       009033990000627037517705221P000114
100000000000000000000009033990000627000000000000000000000000010002020070367905221000000000002            2  01703679052211052200000001930830000000001N010522000000000000000000000000000000000000000000000000000000000000000100070367949849TEODOMIRO ALVES DOS SANTOS              RUA ANDRE PAZ - 13 - JARDIM SANTO ANDRE             08390230                                                            000116
2SR. CAIXA, APOS O VENCIMENTO COBRAR 2% DE MULTA                                 NAO RECEBER APOS 30 DIAS DO VENCIMENTO.                                                                                                                                                                                                         01052200000000000000105220000000000000       0090339900006270703679052210000117
100000000000000000000009033990000627000000000000000000000000010002020004410805221P00000000002            2  01044108052209052200000002862340000000001N010522000000000000000000000000000000000000000000000000000000000000000100004410802860LUIZ ALBERTO MARINHO                    RUA DA INDEPENDENCIA - 706 AP.41B - CAMB            01524000                                                            000119
2SR. CAIXA, APOS O VENCIMENTO COBRAR 2% DE MULTA                                 NAO RECEBER APOS 30 DIAS DO VENCIMENTO.                                                                                                                                                                                                         01052200000000000000105220000000000000       009033990000627004410805221P000120
100000000000000000000009033990000627000000000000000000000000010002020018035005221700000000002            2  01180350052211052200000002584210000000001N010522000000000000000000000000000000000000000000000000000000000000000100018035075861ROSANGELA BISPO SANTOS                  RUA CASSIANO GABUS MENDES - 292 - JD. CA            09896160                                                            000122
2SR. CAIXA, APOS O VENCIMENTO COBRAR 2% DE MULTA                                 NAO RECEBER APOS 30 DIAS DO VENCIMENTO.                                                                                                                                                                                                         01052200000000000000105220000000000000       0090339900006270180350052217000123
100000000000000000000009033990000627000000000000000000000000010002020004767605222300000000002            2  01047676052209052200000003821150000000001N010522000000000000000000000000000000000000000000000000000000000000000100004767679893ORLANDO GRANDE FILHO                    RUA ORLANDO MIGLIARI - 101 - JARDIM OURO            19906140                                                            000125
2SR. CAIXA, APOS O VENCIMENTO COBRAR 2% DE MULTA                                 NAO RECEBER APOS 30 DIAS DO VENCIMENTO.                                                                                                                                                                                                         01052200000000000000105220000000000000       0090339900006270047676052223000126
100000000000000000000009033990000627000000000000000000000000010002020064677805221000000000002            2  01646778052209052200000003073820000000001N010522000000000000000000000000000000000000000000000000000000000000000100064677850887ANTONIO CARLOS DE OLIVEIRA              RUA DR.ANTONIO MAZILLI FILHO - 435 - PAR            02230070                                                            000128
2SR. CAIXA, APOS O VENCIMENTO COBRAR 2% DE MULTA                                 NAO RECEBER APOS 30 DIAS DO VENCIMENTO.                                                                                                                                                                                                         01052200000000000000105220000000000000       0090339900006270646778052210000129
100000000000000000000009033990000627000000000000000000000000010002020007328905221600000000002            2  01073289052209052200000003750230000000001N010522000000000000000000000000000000000000000000000000000000000000000100007328927836BENEDITO APARECIDO ROCHA                AVENIDA SENADOR JOSE ERMINIO DE MORAES -            02357002                                                            000131
2SR. CAIXA, APOS O VENCIMENTO COBRAR 2% DE MULTA                                 NAO RECEBER APOS 30 DIAS DO VENCIMENTO.                                                                                                                                                                                                         01052200000000000000105220000000000000       0090339900006270073289052216000132
100000000000000000000009033990000627000000000000000000000000010002020058488605221300000000002            2  01584886052209052200000002803550000000001N010522000000000000000000000000000000000000000000000000000000000000000100058488618972ADAILTON ZANUTTO MORESCHI               R:RAPHAEL UNGARO - COND.RESERVA SERRA Q.            13212138                                                            000134
2SR. CAIXA, APOS O VENCIMENTO COBRAR 2% DE MULTA                                 NAO RECEBER APOS 30 DIAS DO VENCIMENTO.                                                                                                                                                                                                         01052200000000000000105220000000000000       0090339900006270584886052213000135
100000000000000000000009033990000627000000000000000000000000010002020002196005221800000000002            2  01021960052211052200000002108670000000001N010522000000000000000000000000000000000000000000000000000000000000000100002196012831VILEFORT DIAS BORGES                    RUA PORTO XAVIER - 189 AP.64 - VILA CARM            08210170                                                            000137
2SR. CAIXA, APOS O VENCIMENTO COBRAR 2% DE MULTA                                 NAO RECEBER APOS 30 DIAS DO VENCIMENTO.                                                                                                                                                                                                         01052200000000000000105220000000000000       0090339900006270021960052218000138
100000000000000000000009033990000627000000000000000000000000010002020031861505221600000000002            2  01318615052211052200000002191720000000001N010522000000000000000000000000000000000000000000000000000000000000000100031861586809VANIA TOMAZ                              -  -  -  -                                         00000000                                                            000140
2SR. CAIXA, APOS O VENCIMENTO COBRAR 2% DE MULTA                                 NAO RECEBER APOS 30 DIAS DO VENCIMENTO.                                                                                                                                                                                                         01052200000000000000105220000000000000       0090339900006270318615052216000141
100000000000000000000009033990000627000000000000000000000000010002020003104505221P00000000002            2  01031045052209052200000008161040000000001N010522000000000000000000000000000000000000000000000000000000000000000100003104580804NELSON RODRIGUES                        RUA CARLOS JOSE BORSTENS - 50 AP.81 - AV            11702750                                                            000143
2SR. CAIXA, APOS O VENCIMENTO COBRAR 2% DE MULTA                                 NAO RECEBER APOS 30 DIAS DO VENCIMENTO.                                                                                                                                                                                                         01052200000000000000105220000000000000       009033990000627003104505221P000144
100000000000000000000009033990000627000000000000000000000000010002020007715305221800000000002            2  01077153052209052200000003448030000000001N010522000000000000000000000000000000000000000000000000000000000000000100007715360627NILTON RENNAN OLIVEIRA GOMES FILHO      RUA CARLOS JOSE BORSTENS - 50 AP.21 - AV            11702750                                                            000146
2SR. CAIXA, APOS O VENCIMENTO COBRAR 2% DE MULTA                                 NAO RECEBER APOS 30 DIAS DO VENCIMENTO.                                                                                                                                                                                                         01052200000000000000105220000000000000       0090339900006270077153052218000147
100000000000000000000009033990000627000000000000000000000000010002020007194005221900000000002            2  01071940052211052200000002450900000000001N010522000000000000000000000000000000000000000000000000000000000000000100007194010895RAUL AMANTINO KIRK DE SANCTIS           AVENIDA SANTA CATARINA - 756 AP.01 - VIL            04378000                                                            000149
2SR. CAIXA, APOS O VENCIMENTO COBRAR 2% DE MULTA                                 NAO RECEBER APOS 30 DIAS DO VENCIMENTO.                                                                                                                                                                                                         01052200000000000000105220000000000000       0090339900006270071940052219000150
100000000000000000000009033990000627000000000000000000000000010002020025738605221600000000002            2  01257386052209052200000004952150000000001N010522000000000000000000000000000000000000000000000000000000000000000100025738614810VILMAR JOSE PEREIRA                     ALAMEDA TIETE - 646 - CERQUEIRA CESAR -             01417020                                                            000152
2SR. CAIXA, APOS O VENCIMENTO COBRAR 2% DE MULTA                                 NAO RECEBER APOS 30 DIAS DO VENCIMENTO.                                                                                                                                                                                                         01052200000000000000105220000000000000       0090339900006270257386052216000153
100000000000000000000009033990000627000000000000000000000000010002020011141505221800000000002            2  01111415052211052200000002575430000000001N010522000000000000000000000000000000000000000000000000000000000000000100011141508869PAULO ROBERTO TUNES SILVA               RUA PETROBRAS - 405 CASA 07 - VILA ANTON            03474060                                                            000155
2SR. CAIXA, APOS O VENCIMENTO COBRAR 2% DE MULTA                                 NAO RECEBER APOS 30 DIAS DO VENCIMENTO.                                                                                                                                                                                                         01052200000000000000105220000000000000       0090339900006270111415052218000156
100000000000000000000009033990000627000000000000000000000000010002020012449105221300000000002            2  01124491052211052200000002595100000000001N010522000000000000000000000000000000000000000000000000000000000000000100012449104810GILBERTO DOS SANTOS JUNIOR              RUA ALMIRANTE TAMANDARE - 89 AP.143 - BA            09310350                                                            000158
2SR. CAIXA, APOS O VENCIMENTO COBRAR 2% DE MULTA                                 NAO RECEBER APOS 30 DIAS DO VENCIMENTO.                                                                                                                                                                                                         01052200000000000000105220000000000000       0090339900006270124491052213000159
100000000000000000000009033990000627000000000000000000000000010002020011261305221100000000002            2  01112613052209052200000003423370000000001N010522000000000000000000000000000000000000000000000000000000000000000100011261359844JOVANETE DOS SANTOS PASSOS              RUA FULVIO MORGANTI - 672 - JARDIM PARAI            02417170                                                            000161
2SR. CAIXA, APOS O VENCIMENTO COBRAR 2% DE MULTA                                 NAO RECEBER APOS 30 DIAS DO VENCIMENTO.                                                                                                                                                                                                         01052200000000000000105220000000000000       0090339900006270112613052211000162
9                                                                                                                                                                                                                                                                                                                                                                                                         000163