01REMESSA01COBRANCA       00000000000008017025HB SANTOS CONSTRUTORA E INCORP237BRADESCO       100822        MX0000159                                                                                                                                                                                                                                                                                     000001
100000000000000000000009033990000627000000000000000000000000010002020025035108221500000000002            2  01250351082224082200000002763020000000001N090822000000000000000000000000000000000000000000000000000000000000000100025035170802WANDERSON LUIS DE CARVALHO              RUA JOAQUIM GONCALVES ROCHA - 302 - JARD            02859030                                                            000002
2SR. CAIXA, APOS O VENCIMENTO COBRAR 2% DE MULTA                                 NAO RECEBER APOS 30 DIAS DO VENCIMENTO.                                                                                                                                                                                                         10082200000000000001008220000000000000       0090339900006270250351082215000003
100000000000000000000009033990000627000000000000000000000000010002020007294308221200000000002            2  01072943082224082200000003716260000000001N090822000000000000000000000000000000000000000000000000000000000000000100007294351805CLAUDENIR APARECIDO VACARI              RUA CARLOS JOSE BORSTENS - 50 AP.93 - AV            11702750                                                            000005
2SR. CAIXA, APOS O VENCIMENTO COBRAR 2% DE MULTA                                 NAO RECEBER APOS 30 DIAS DO VENCIMENTO.                                                                                                                                                                                                         10082200000000000001008220000000000000       0090339900006270072943082212000006
100000000000000000000009033990000627000000000000000000000000010002020007525008221800000000002            2  01075250082224082200000004156820000000001N090822000000000000000000000000000000000000000000000000000000000000000100007525032866FERNANDO RIBEIRO                        RUA CARLOS JOSE BORSTENS - 50 AP.32 - AV            11702750                                                            000008
2SR. CAIXA, APOS O VENCIMENTO COBRAR 2% DE MULTA                                 NAO RECEBER APOS 30 DIAS DO VENCIMENTO.                                                                                                                                                                                                         10082200000000000001008220000000000000       0090339900006270075250082218000009
100000000000000000000009033990000627000000000000000000000000010002020005071408221300000000002            2  01050714082224082200000003646340000000001N090822000000000000000000000000000000000000000000000000000000000000000100005071481855ERIBALDO SANTANA CARVALHO               RUA HONDURAS - 477 - PARQUE DAS AMERICAS            09351070                                                            000011
2SR. CAIXA, APOS O VENCIMENTO COBRAR 2% DE MULTA                                 NAO RECEBER APOS 30 DIAS DO VENCIMENTO.                                                                                                                                                                                                         10082200000000000001008220000000000000       0090339900006270050714082213000012
100000000000000000000009033990000627000000000000000000000000010002020002841708221700000000002            2  01028417082224082200000003411480000000001N090822000000000000000000000000000000000000000000000000000000000000000100002841756416LUCIANA PINHEIRO DE ASSIS NUNES         RUA RIO ACIMA - 81 - RIACHO GRANDE - SAO            09830100                                                            000014
2SR. CAIXA, APOS O VENCIMENTO COBRAR 2% DE MULTA                                 NAO RECEBER APOS 30 DIAS DO VENCIMENTO.                                                                                                                                                                                                         10082200000000000001008220000000000000       0090339900006270028417082217000015
100000000000000000000009033990000627000000000000000000000000010002020084302008221600000000002            2  01843020082224082200000003427850000000001N090822000000000000000000000000000000000000000000000000000000000000000100084302097868FAUSTO TADEU VILOR                      RUA ANTONIO TAVARES - 466 - BAIRRO CAMBU            01542010                                                            000017
2SR. CAIXA, APOS O VENCIMENTO COBRAR 2% DE MULTA                                 NAO RECEBER APOS 30 DIAS DO VENCIMENTO.                                                                                                                                                                                                         10082200000000000001008220000000000000       0090339900006270843020082216000018
100000000000000000000009033990000627000000000000000000000000010002020028804208221600000000002            2  01288042082224082200000003367890000000001N090822000000000000000000000000000000000000000000000000000000000000000100028804202882GILBERTO FABIANO CABRAL DE CAMARGO      RUA CARLOS JOSE BORSTENS - 50 AP.44 - AV            11702750                                                            000020
2SR. CAIXA, APOS O VENCIMENTO COBRAR 2% DE MULTA                                 NAO RECEBER APOS 30 DIAS DO VENCIMENTO.                                                                                                                                                                                                         10082200000000000001008220000000000000       0090339900006270288042082216000021
100000000000000000000009033990000627000000000000000000000000010002020000991708221900000000002            2  01009917082224082200000003287200000000001N090822000000000000000000000000000000000000000000000000000000000000000100000991748808JAILSON BORGES DE ANDRADE               RUA IPIOBUNA - 45 - JARDIM CUMBICA - GUA            07240040                                                            000023
2SR. CAIXA, APOS O VENCIMENTO COBRAR 2% DE MULTA                                 NAO RECEBER APOS 30 DIAS DO VENCIMENTO.                                                                                                                                                                                                         10082200000000000001008220000000000000       0090339900006270009917082219000024
100000000000000000000009033990000627000000000000000000000000010002020022151608221500000000002            2  01221516082224082200000003268110000000001N090822000000000000000000000000000000000000000000000000000000000000000100022151666816SAMIR LIMA DE ARAUJO                    AVENIDA GUARAPIRANGA - 2616 AP.131 BL.14            04902005                                                            000026
2SR. CAIXA, APOS O VENCIMENTO COBRAR 2% DE MULTA                                 NAO RECEBER APOS 30 DIAS DO VENCIMENTO.                                                                                                                                                                                                         10082200000000000001008220000000000000       0090339900006270221516082215000027
100000000000000000000009033990000627000000000000000000000000010002020022313108221700000000002            2  01223131082226082200000002514700000000001N090822000000000000000000000000000000000000000000000000000000000000000100022313116824ROSA MARIA BRITO DA SILVA               RUA SERVIDAO DE SAO MARCOS - 128 CASA 1             04930300                                                            000029
2SR. CAIXA, APOS O VENCIMENTO COBRAR 2% DE MULTA                                 NAO RECEBER APOS 30 DIAS DO VENCIMENTO.                                                                                                                                                                                                         10082200000000000001008220000000000000       0090339900006270223131082217000030
100000000000000000000009033990000627000000000000000000000000010002020027538008221900000000002            2  01275380082226082200000002523470000000001N090822000000000000000000000000000000000000000000000000000000000000000100027538087249MARA LUCIA MENEZES DA COSTA             RUA LEILA  - 183 - ITAQUERA - SAO PAULO             08240020                                                            000032
2SR. CAIXA, APOS O VENCIMENTO COBRAR 2% DE MULTA                                 NAO RECEBER APOS 30 DIAS DO VENCIMENTO.                                                                                                                                                                                                         10082200000000000001008220000000000000       0090339900006270275380082219000033
100000000000000000000009033990000627000000000000000000000000010002020031278408221500000000002            2  01312784082224082200000003157080000000001N090822000000000000000000000000000000000000000000000000000000000000000100031278411836JEFFERSON DE PIERI PIRES ZAMUNER        RUA MANOEL ARCE - 277 - PARQUE BANCARIO             03922150                                                            000035
2SR. CAIXA, APOS O VENCIMENTO COBRAR 2% DE MULTA                                 NAO RECEBER APOS 30 DIAS DO VENCIMENTO.                                                                                                                                                                                                         10082200000000000001008220000000000000       0090339900006270312784082215000036
100000000000000000000009033990000627000000000000000000000000010002020019185708221700000000002            2  01191857082226082200000002296420000000001N090822000000000000000000000000000000000000000000000000000000000000000100019185769800AGUINALDO PESSOA DE LIMA                RUA JANUARIO ZINGARO - 252 AP.303 BL.04             05794300                                                            000038
2SR. CAIXA, APOS O VENCIMENTO COBRAR 2% DE MULTA                                 NAO RECEBER APOS 30 DIAS DO VENCIMENTO.                                                                                                                                                                                                         10082200000000000001008220000000000000       0090339900006270191857082217000039
100000000000000000000009033990000627000000000000000000000000010002020033303608221800000000002            2  01333036082226082200000002473430000000001N090822000000000000000000000000000000000000000000000000000000000000000100033303645809JESSICA DA SILVA FREITAS                RUA ARILDO VALADAO - 120 - JARDIM GUAEMB            04814600                                                            000041
2SR. CAIXA, APOS O VENCIMENTO COBRAR 2% DE MULTA                                 NAO RECEBER APOS 30 DIAS DO VENCIMENTO.                                                                                                                                                                                                         10082200000000000001008220000000000000       0090339900006270333036082218000042
100000000000000000000009033990000627000000000000000000000000010002020006422608221300000000002            2  01064226082224082200000003419200000000001N090822000000000000000000000000000000000000000000000000000000000000000100006422607881GERALDO ALVES DA SILVA                  RUA CARLOS JOSE BORSTENS - 50 AP.14 - AV            11702750                                                            000044
2SR. CAIXA, APOS O VENCIMENTO COBRAR 2% DE MULTA                                 NAO RECEBER APOS 30 DIAS DO VENCIMENTO.                                                                                                                                                                                                         10082200000000000001008220000000000000       0090339900006270064226082213000045
100000000000000000000009033990000627000000000000000000000000010002020033877108221500000000002            2  01338771082226082200000002318920000000001N090822000000000000000000000000000000000000000000000000000000000000000100033877129870HELDER FERREIRA VIANA                   RUA JOSE CALIXTO DO CARMO - 286 AP.35 -             11702690                                                            000047
2SR. CAIXA, APOS O VENCIMENTO COBRAR 2% DE MULTA                                 NAO RECEBER APOS 30 DIAS DO VENCIMENTO.                                                                                                                                                                                                         10082200000000000001008220000000000000       0090339900006270338771082215000048
100000000000000000000009033990000627000000000000000000000000010002020028290708221900000000002            2  01282907082226082200000002137200000000001N090822000000000000000000000000000000000000000000000000000000000000000100028290719809VANESSA GIANGARRELLI PEREIRA            RUA BARINEL - 72 - JARDIM COTCHING - SAO            03462130                                                            000050
2SR. CAIXA, APOS O VENCIMENTO COBRAR 2% DE MULTA                                 NAO RECEBER APOS 30 DIAS DO VENCIMENTO.                                                                                                                                                                                                         10082200000000000001008220000000000000       0090339900006270282907082219000051
100000000000000000000009033990000627000000000000000000000000010002020087573008221400000000002            2  01875730082226082200000002333790000000001N090822000000000000000000000000000000000000000000000000000000000000000100087573059604VANDERLEY DE ASSIS                      RUA ROMEU ALBANI - 268 - JARDIM PARQUE R            13803810                                                            000053
2SR. CAIXA, APOS O VENCIMENTO COBRAR 2% DE MULTA                                 NAO RECEBER APOS 30 DIAS DO VENCIMENTO.                                                                                                                                                                                                         10082200000000000001008220000000000000       0090339900006270875730082214000054
100000000000000000000009033990000627000000000000000000000000010002020010825508221100000000002            2  01108255082226082200000002435420000000001N090822000000000000000000000000000000000000000000000000000000000000000100010825513847JOSE APARECIDO PEREIRA                  RUA GENERAL OSORIO - 305 - JARDIM TRINTA            11515130                                                            000056
2SR. CAIXA, APOS O VENCIMENTO COBRAR 2% DE MULTA                                 NAO RECEBER APOS 30 DIAS DO VENCIMENTO.                                                                                                                                                                                                         10082200000000000001008220000000000000       0090339900006270108255082211000057
100000000000000000000009033990000627000000000000000000000000010002020039115108221300000000002            2  01391151082226082200000003002080000000001N090822000000000000000000000000000000000000000000000000000000000000000100039115139840LAIS CRISTINA RIBEIRO ANDO              RUA JOSE CALIXTO DO CARMO - 286 AP.65 -             11702690                                                            000059
2SR. CAIXA, APOS O VENCIMENTO COBRAR 2% DE MULTA                                 NAO RECEBER APOS 30 DIAS DO VENCIMENTO.                                                                                                                                                                                                         10082200000000000001008220000000000000       0090339900006270391151082213000060
100000000000000000000009033990000627000000000000000000000000010002020029617508221100000000002            2  01296175082224082200000003356050000000001N090822000000000000000000000000000000000000000000000000000000000000000100029617510553MARILENE SOUZA DE OLIVEIRA              RUA DAS MONCOES - 460 AP.95 - BAIRRO JAR            09090521                                                            000062
2SR. CAIXA, APOS O VENCIMENTO COBRAR 2% DE MULTA                                 NAO RECEBER APOS 30 DIAS DO VENCIMENTO.                                                                                                                                                                                                         10082200000000000001008220000000000000       0090339900006270296175082211000063
100000000000000000000009033990000627000000000000000000000000010002020000593208221100000000002            2  01005932082224082200000003680760000000001N090822000000000000000000000000000000000000000000000000000000000000000100000593293860WALTER HELIO BARBOSA FILHO              AVENIDA ANTONIO FREDERICO OZANAN - 9500             13214206                                                            000065
2SR. CAIXA, APOS O VENCIMENTO COBRAR 2% DE MULTA                                 NAO RECEBER APOS 30 DIAS DO VENCIMENTO.                                                                                                                                                                                                         10082200000000000001008220000000000000       0090339900006270005932082211000066
100000000000000000000009033990000627000000000000000000000000010002020065584108221300000000002            2  01655841082224082200000001932210000000001N090822000000000000000000000000000000000000000000000000000000000000000100065584147834JOAQUIM DA COSTA MACHADO NETO           RUA CARLOS JOSE BORSTENS - 50 AP.42 - AV            11702750                                                            000068
2SR. CAIXA, APOS O VENCIMENTO COBRAR 2% DE MULTA                                 NAO RECEBER APOS 30 DIAS DO VENCIMENTO.                                                                                                                                                                                                         10082200000000000001008220000000000000       0090339900006270655841082213000069
100000000000000000000009033990000627000000000000000000000000010002020065584108222100000000002            2  01655841082224082200000001932200000000001N090822000000000000000000000000000000000000000000000000000000000000000100065584147834JOAQUIM DA COSTA MACHADO NETO           RUA CARLOS JOSE BORSTENS - 50 AP.42 - AV            11702750                                                            000071
2SR. CAIXA, APOS O VENCIMENTO COBRAR 2% DE MULTA                                 NAO RECEBER APOS 30 DIAS DO VENCIMENTO.                                                                                                                                                                                                         10082200000000000001008220000000000000       0090339900006270655841082221000072
100000000000000000000009033990000627000000000000000000000000010002020006684608221600000000002            2  01066846082226082200000002473140000000001N090822000000000000000000000000000000000000000000000000000000000000000100006684623884LAUDINOR VIEIRA GARCIA                  RUA CANDIDO SALES - 374 - JARDIM PRESIDE            07172000                                                            000074
2SR. CAIXA, APOS O VENCIMENTO COBRAR 2% DE MULTA                                 NAO RECEBER APOS 30 DIAS DO VENCIMENTO.                                                                                                                                                                                                         10082200000000000001008220000000000000       0090339900006270066846082216000075
100000000000000000000009033990000627000000000000000000000000010002020011663508221700000000002            2  01116635082226082200000002490930000000001N090822000000000000000000000000000000000000000000000000000000000000000100011663589844MARIA SAVIO QUARELLO                    AVENIDA MENDONCA DRUMOND - 321 - JARDIM             03524030                                                            000077
2SR. CAIXA, APOS O VENCIMENTO COBRAR 2% DE MULTA                                 NAO RECEBER APOS 30 DIAS DO VENCIMENTO.                                                                                                                                                                                                         10082200000000000001008220000000000000       0090339900006270116635082217000078
100000000000000000000009033990000627000000000000000000000000010002020010083808221900000000002            2  01100838082226082200000002406660000000001N090822000000000000000000000000000000000000000000000000000000000000000100010083824855IONE FERREIRA COUTO DA SILVA            RUA JOSE RAGEL DE MESQUITA - 60 CS.01 -             07799999                                                            000080
2SR. CAIXA, APOS O VENCIMENTO COBRAR 2% DE MULTA                                 NAO RECEBER APOS 30 DIAS DO VENCIMENTO.                                                                                                                                                                                                         10082200000000000001008220000000000000       0090339900006270100838082219000081
100000000000000000000009033990000627000000000000000000000000010002020031010708221400000000002            2  01310107082226082200000002361710000000001N090822000000000000000000000000000000000000000000000000000000000000000100031010705890ANDRE GONZALEZ RABELLO                  RUA PARAIBA - 106 AP.61 - POMPEIA - SANT            11065470                                                            000083
2SR. CAIXA, APOS O VENCIMENTO COBRAR 2% DE MULTA                                 NAO RECEBER APOS 30 DIAS DO VENCIMENTO.                                                                                                                                                                                                         10082200000000000001008220000000000000       0090339900006270310107082214000084
100000000000000000000009033990000627000000000000000000000000010002020005351008221300000000002            2  01053510082226082200000002214330000000001N090822000000000000000000000000000000000000000000000000000000000000000100005351015897VALERIA ALVES MARCOLINO HINNIGER        RUA JOSE CALIXTO DO CARMO - 286 AP.92 -             11702690                                                            000086
2SR. CAIXA, APOS O VENCIMENTO COBRAR 2% DE MULTA                                 NAO RECEBER APOS 30 DIAS DO VENCIMENTO.                                                                                                                                                                                                         10082200000000000001008220000000000000       0090339900006270053510082213000087
100000000000000000000009033990000627000000000000000000000000010002020031898708221900000000002            2  01318987082224082200000003521900000000001N090822000000000000000000000000000000000000000000000000000000000000000100031898775800ANITA MARTINS COLOMBO                   RUA CARLOS JOSE BORSTENS - 50 AP.115 - A            11702750                                                            000089
2SR. CAIXA, APOS O VENCIMENTO COBRAR 2% DE MULTA                                 NAO RECEBER APOS 30 DIAS DO VENCIMENTO.                                                                                                                                                                                                         10082200000000000001008220000000000000       0090339900006270318987082219000090
100000000000000000000009033990000627000000000000000000000000010002020037983408221900000000002            2  01379834082226082200000002601150000000001N090822000000000000000000000000000000000000000000000000000000000000000100037983484801JOSE ERIVALDO SOUZA DO NASCIMENTO RAMOS RUA LETICIA - 250 - JARDIM GUARUJA - SAO            05877260                                                            000092
2SR. CAIXA, APOS O VENCIMENTO COBRAR 2% DE MULTA                                 NAO RECEBER APOS 30 DIAS DO VENCIMENTO.                                                                                                                                                                                                         10082200000000000001008220000000000000       0090339900006270379834082219000093
100000000000000000000009033990000627000000000000000000000000010002020037983408222700000000002            2  01379834082226082200000002601140000000001N090822000000000000000000000000000000000000000000000000000000000000000100037983484801JOSE ERIVALDO SOUZA DO NASCIMENTO RAMOS RUA LETICIA - 250 - JARDIM GUARUJA - SAO            05877260                                                            000095
2SR. CAIXA, APOS O VENCIMENTO COBRAR 2% DE MULTA                                 NAO RECEBER APOS 30 DIAS DO VENCIMENTO.                                                                                                                                                                                                         10082200000000000001008220000000000000       0090339900006270379834082227000096
100000000000000000000009033990000627000000000000000000000000010002020056289208221P00000000002            2  01562892082226082200000001965010000000001N090822000000000000000000000000000000000000000000000000000000000000000100056289286900PEDRO RIBEIRO                           RUA CONEGO MANOEL VAZ - 48 - SANTANA - S            02019050                                                            000098
2SR. CAIXA, APOS O VENCIMENTO COBRAR 2% DE MULTA                                 NAO RECEBER APOS 30 DIAS DO VENCIMENTO.                                                                                                                                                                                                         10082200000000000001008220000000000000       009033990000627056289208221P000099
100000000000000000000009033990000627000000000000000000000000010002020034735308221600000000002            2  01347353082226082200000002696900000000001N090822000000000000000000000000000000000000000000000000000000000000000100034735328866DIEGO FELIPE MOLINA DA SILVA E SOUSA    RUA EMILIA PAULISTA - 135 - VILA TIRADEN            05364020                                                            000101
2SR. CAIXA, APOS O VENCIMENTO COBRAR 2% DE MULTA                                 NAO RECEBER APOS 30 DIAS DO VENCIMENTO.                                                                                                                                                                                                         10082200000000000001008220000000000000       0090339900006270347353082216000102
100000000000000000000009033990000627000000000000000000000000010002020034812208221P00000000002            2  01348122082224082200000004661410000000001N090822000000000000000000000000000000000000000000000000000000000000000100034812226880THAIS TORQUATO MIMOSO DE JESUS          RUA ARNALDO CINTRA - 416 AP.104 TORRE 2             03088000                                                            000104
2SR. CAIXA, APOS O VENCIMENTO COBRAR 2% DE MULTA                                 NAO RECEBER APOS 30 DIAS DO VENCIMENTO.                                                                                                                                                                                                         10082200000000000001008220000000000000       009033990000627034812208221P000105
100000000000000000000009033990000627000000000000000000000000010002020012849408221600000000002            2  01128494082226082200000004646010000000001N090822000000000000000000000000000000000000000000000000000000000000000100012849428809MOISES CLAUDIO DO ROSARIO               AVENIDA DR. AUGUSTO DE TOLEDO - 510 AP.1            09541520                                                            000107
2SR. CAIXA, APOS O VENCIMENTO COBRAR 2% DE MULTA                                 NAO RECEBER APOS 30 DIAS DO VENCIMENTO.                                                                                                                                                                                                         10082200000000000001008220000000000000       0090339900006270128494082216000108
100000000000000000000009033990000627000000000000000000000000010002020015702308221600000000002            2  01157023082226082200000002577690000000001N090822000000000000000000000000000000000000000000000000000000000000000100015702353846MARIA DE LOURDES DE MACENO SOUZA        RUA JOSE CALIXTO DO CARMO - 286 AP.83 -             11702690                                                            000110
2SR. CAIXA, APOS O VENCIMENTO COBRAR 2% DE MULTA                                 NAO RECEBER APOS 30 DIAS DO VENCIMENTO.                                                                                                                                                                                                         10082200000000000001008220000000000000       0090339900006270157023082216000111
100000000000000000000009033990000627000000000000000000000000010002020003658608221000000000002            2  01036586082226082200000001919350000000001N090822000000000000000000000000000000000000000000000000000000000000000100003658668814MARINEZ VALENTIN                        RUA JOSE CALIXTO DO CARMO - 286 AP.95 -             11702690                                                            000113
2SR. CAIXA, APOS O VENCIMENTO COBRAR 2% DE MULTA                                 NAO RECEBER APOS 30 DIAS DO VENCIMENTO.                                                                                                                                                                                                         10082200000000000001008220000000000000       0090339900006270036586082210000114
100000000000000000000009033990000627000000000000000000000000010002020003658608222900000000002            2  01036586082226082200000001919340000000001N090822000000000000000000000000000000000000000000000000000000000000000100003658668814MARINEZ VALENTIN                        RUA JOSE CALIXTO DO CARMO - 286 AP.95 -             11702690                                                            000116
2SR. CAIXA, APOS O VENCIMENTO COBRAR 2% DE MULTA                                 NAO RECEBER APOS 30 DIAS DO VENCIMENTO.                                                                                                                                                                                                         10082200000000000001008220000000000000       0090339900006270036586082229000117
100000000000000000000009033990000627000000000000000000000000010002020014087408221900000000002            2  01140874082226082200000002565070000000001N090822000000000000000000000000000000000000000000000000000000000000000100014087484874SERGIO SANTOS DO NASCIMENTO             RUA JOSE CALIXTO DO CARMO - 286 AP.52 -             11702690                                                            000119
2SR. CAIXA, APOS O VENCIMENTO COBRAR 2% DE MULTA                                 NAO RECEBER APOS 30 DIAS DO VENCIMENTO.                                                                                                                                                                                                         10082200000000000001008220000000000000       0090339900006270140874082219000120
100000000000000000000009033990000627000000000000000000000000010002020026834508221800000000002            2  01268345082226082200000002363400000000001N090822000000000000000000000000000000000000000000000000000000000000000100026834550895RAQUEL CARDOSO JOAO                     RUA PEDROSO XAVIER - 277 AP.23 TORRE 01             02732020                                                            000122
2SR. CAIXA, APOS O VENCIMENTO COBRAR 2% DE MULTA                                 NAO RECEBER APOS 30 DIAS DO VENCIMENTO.                                                                                                                                                                                                         10082200000000000001008220000000000000       0090339900006270268345082218000123
100000000000000000000009033990000627000000000000000000000000010002020039540008221600000000002            2  01395400082226082200000002323540000000001N090822000000000000000000000000000000000000000000000000000000000000000100039540008816LUZINETE CLARINDO SILVA                 RUA DEINOS - 275 - BAIRRO CIDADE SATELIT            08340100                                                            000125
2SR. CAIXA, APOS O VENCIMENTO COBRAR 2% DE MULTA                                 NAO RECEBER APOS 30 DIAS DO VENCIMENTO.                                                                                                                                                                                                         10082200000000000001008220000000000000       0090339900006270395400082216000126
100000000000000000000009033990000627000000000000000000000000010002020003311008221300000000002            2  01033110082226082200000002419700000000001N090822000000000000000000000000000000000000000000000000000000000000000100003311030877SEBASTIAO SARUVA NETO                   RUA HAMILTON REGIS - 559 - BAIRRO DO LIM            08051440                                                            000128
2SR. CAIXA, APOS O VENCIMENTO COBRAR 2% DE MULTA                                 NAO RECEBER APOS 30 DIAS DO VENCIMENTO.                                                                                                                                                                                                         10082200000000000001008220000000000000       0090339900006270033110082213000129
100000000000000000000009033990000627000000000000000000000000010002020090091908221P00000000002            2  01900919082226082200000002312870000000001N090822000000000000000000000000000000000000000000000000000000000000000100090091990882JUECIR CARVALHO DA LUZ                  RUA JOSE CALIXTO DO CARMO - 286 AP.114 -            11702690                                                            000131
2SR. CAIXA, APOS O VENCIMENTO COBRAR 2% DE MULTA                                 NAO RECEBER APOS 30 DIAS DO VENCIMENTO.                                                                                                                                                                                                         10082200000000000001008220000000000000       009033990000627090091908221P000132
100000000000000000000009033990000627000000000000000000000000010002020037325908221100000000002            2  01373259082226082200000001892760000000001N090822000000000000000000000000000000000000000000000000000000000000000100037325923830MARIA AUGUSTA OLIVEIRA DE ANDRADE       RUA JOSE CALIXTO DO CARMO - 286 AP.124 -            11702690                                                            000134
2SR. CAIXA, APOS O VENCIMENTO COBRAR 2% DE MULTA                                 NAO RECEBER APOS 30 DIAS DO VENCIMENTO.                                                                                                                                                                                                         10082200000000000001008220000000000000       0090339900006270373259082211000135
100000000000000000000009033990000627000000000000000000000000010002020012478808221900000000002            2  01124788082224082200000003444860000000001N090822000000000000000000000000000000000000000000000000000000000000000100012478899809VITORIA BATISTA QUEIROZ                 RUA CARVALHO DE FREITAS - 255 AP.71A - V            05728030                                                            000137
2SR. CAIXA, APOS O VENCIMENTO COBRAR 2% DE MULTA                                 NAO RECEBER APOS 30 DIAS DO VENCIMENTO.                                                                                                                                                                                                         10082200000000000001008220000000000000       0090339900006270124788082219000138
100000000000000000000009033990000627000000000000000000000000010002020013184808221P00000000002            2  01131848082226082200000002286580000000001N090822000000000000000000000000000000000000000000000000000000000000000100013184856810SYDNEY HENRIQUE GAMARANO JUNIOR         RUA JOSE CALIXTO DO CARMO - 286 AP.125 -            11702690                                                            000140
2SR. CAIXA, APOS O VENCIMENTO COBRAR 2% DE MULTA                                 NAO RECEBER APOS 30 DIAS DO VENCIMENTO.                                                                                                                                                                                                         10082200000000000001008220000000000000       009033990000627013184808221P000141
100000000000000000000009033990000627000000000000000000000000010002020097989908221300000000002            2  01979899082226082200000001589040000000001N090822000000000000000000000000000000000000000000000000000000000000000100097989924820NELSON LUIS BERRIBILLE                  RUA SILVEIRA IGNACIO SOBRINHO - 965 - VI            13560294                                                            000143
2SR. CAIXA, APOS O VENCIMENTO COBRAR 2% DE MULTA                                 NAO RECEBER APOS 30 DIAS DO VENCIMENTO.                                                                                                                                                                                                         10082200000000000001008220000000000000       0090339900006270979899082213000144
100000000000000000000009033990000627000000000000000000000000010002020097989908222100000000002            2  01979899082226082200000001589030000000001N090822000000000000000000000000000000000000000000000000000000000000000100097989924820NELSON LUIS BERRIBILLE                  RUA SILVEIRA IGNACIO SOBRINHO - 965 - VI            13560294                                                            000146
2SR. CAIXA, APOS O VENCIMENTO COBRAR 2% DE MULTA                                 NAO RECEBER APOS 30 DIAS DO VENCIMENTO.                                                                                                                                                                                                         10082200000000000001008220000000000000       0090339900006270979899082221000147
100000000000000000000009033990000627000000000000000000000000010002020032341808221200000000002            2  01323418082224082200000003578230000000001N090822000000000000000000000000000000000000000000000000000000000000000100032341847803PRISCILA ALVES DE FRANCA MIRANDA        RUA CARLOS JOSE BORSTENS - 50 AP.91 - AV            11702750                                                            000149
2SR. CAIXA, APOS O VENCIMENTO COBRAR 2% DE MULTA                                 NAO RECEBER APOS 30 DIAS DO VENCIMENTO.                                                                                                                                                                                                         10082200000000000001008220000000000000       0090339900006270323418082212000150
100000000000000000000009033990000627000000000000000000000000010002020016050608221800000000002            2  01160506082224082200000003321280000000001N090822000000000000000000000000000000000000000000000000000000000000000100016050684898ANDRE RODRIGUES DE OLIVEIRA             RUA CORACAO PAULISTA - 14 - FAZENDA ITAI            08132430                                                            000152
2SR. CAIXA, APOS O VENCIMENTO COBRAR 2% DE MULTA                                 NAO RECEBER APOS 30 DIAS DO VENCIMENTO.                                                                                                                                                                                                         10082200000000000001008220000000000000       0090339900006270160506082218000153
100000000000000000000009033990000627000000000000000000000000010002020021464908221100000000002            2  01214649082224082200000005234440000000001N090822000000000000000000000000000000000000000000000000000000000000000100021464965846ANDREA APARECIDA DE OLIVEIRA PECCI      RUA ANTONIO BOZ MARFIL - 103 - PARQUE DO            05396020                                                            000155
2SR. CAIXA, APOS O VENCIMENTO COBRAR 2% DE MULTA                                 NAO RECEBER APOS 30 DIAS DO VENCIMENTO.                                                                                                                                                                                                         10082200000000000001008220000000000000       0090339900006270214649082211000156
100000000000000000000009033990000627000000000000000000000000010002020030348108221300000000002            2  01303481082224082200000003171540000000001N090822000000000000000000000000000000000000000000000000000000000000000100030348198892KELLY CRISTINA CORDEIRO                 RUA CARLOS JOSE BORSTENS - 50 AP.25 - AV            11702750                                                            000158
2SR. CAIXA, APOS O VENCIMENTO COBRAR 2% DE MULTA                                 NAO RECEBER APOS 30 DIAS DO VENCIMENTO.                                                                                                                                                                                                         10082200000000000001008220000000000000       0090339900006270303481082213000159
9                                                                                                                                                                                                                                                                                                                                                                                                         000160