01REMESSA01COBRANCA       00000000000004991781AIRES CONSTRUTORA E INCORPORAD237BRADESCO       011019        MX0000129                                                                                                                                                                                                                                                                                     000001
100000000000000000000009077090006612500000000000000000000000010002100094852210191100000000002            2  01948522101910101900000002385980000000001N011019000000000000000000000000000000000000000000000000000000000000000100094852294887GISELDA MENON                           RUA OTAVIO BARRETO - 105 - VILA SANTISTA            02560080                                                            000002
2SR. CAIXA, APOS O VENCIMENTO COBRAR 10% DE MULTA                                NAO RECEBER APOS 30 DIAS DO VENCIMENTO.                                                                                                                                                                                                         01101900000000000000110190000000000000       0090770900066125948522101911000003
100000000000000000000009077090006612500000000000000000000000010002100006485910191800000000002            2  01064859101910101900000003659340000000001N011019000000000000000000000000000000000000000000000000000000000000000100006485911820CELIO MANUEL  MELIM SANTO               RUA JUVENAL FERREIRA  - 85 AP.61 - VILA             03512040                                                            000005
2SR. CAIXA, APOS O VENCIMENTO COBRAR 10% DE MULTA                                NAO RECEBER APOS 30 DIAS DO VENCIMENTO.                                                                                                                                                                                                         01101900000000000000110190000000000000       0090770900066125064859101918000006
100000000000000000000009077090006612500000000000000000000000010002100004693810191700000000002            2  01046938101910101900000003189380000000001N011019000000000000000000000000000000000000000000000000000000000000000100004693857823NIVALDO BARTOLOMEU FERREIRA             MNS JOSE MARINONI  - 33 - SANTO AMARO -             04430350                                                            000008
2SR. CAIXA, APOS O VENCIMENTO COBRAR 10% DE MULTA                                NAO RECEBER APOS 30 DIAS DO VENCIMENTO.                                                                                                                                                                                                         01101900000000000000110190000000000000       0090770900066125046938101917000009
100000000000000000000009077090006612500000000000000000000000010002100027993110191600000000002            2  01279931101910101900000003036990000000001N011019000000000000000000000000000000000000000000000000000000000000000100027993108853DALVA JESUS RODRIGUES CABRAL            RUA CRISTOVAO COLOMBO GONCALVES - 97 - C            04811050                                                            000011
2SR. CAIXA, APOS O VENCIMENTO COBRAR 10% DE MULTA                                NAO RECEBER APOS 30 DIAS DO VENCIMENTO.                                                                                                                                                                                                         01101900000000000000110190000000000000       0090770900066125279931101916000012
100000000000000000000009077090006612500000000000000000000000010002100027993110192400000000002            2  01279931101910101900000003036970000000001N011019000000000000000000000000000000000000000000000000000000000000000100027993108853DALVA JESUS RODRIGUES CABRAL            RUA CRISTOVAO COLOMBO GONCALVES - 97 - C            04811050                                                            000014
2SR. CAIXA, APOS O VENCIMENTO COBRAR 10% DE MULTA                                NAO RECEBER APOS 30 DIAS DO VENCIMENTO.                                                                                                                                                                                                         01101900000000000000110190000000000000       0090770900066125279931101924000015
100000000000000000000009077090006612500000000000000000000000010002100027993110193200000000002            2  01279931101910101900000003036980000000001N011019000000000000000000000000000000000000000000000000000000000000000100027993108853DALVA JESUS RODRIGUES CABRAL            RUA CRISTOVAO COLOMBO GONCALVES - 97 - C            04811050                                                            000017
2SR. CAIXA, APOS O VENCIMENTO COBRAR 10% DE MULTA                                NAO RECEBER APOS 30 DIAS DO VENCIMENTO.                                                                                                                                                                                                         01101900000000000000110190000000000000       0090770900066125279931101932000018
100000000000000000000009077090006612500000000000000000000000010002100000455410191500000000002            2  01004554101910101900000003154750000000001N011019000000000000000000000000000000000000000000000000000000000000000100000455495831PAULO HENRIQUE LOURENCO                 RUA FIGUEIRA  - 237 - CIDADE DAS FLORES             06184060                                                            000020
2SR. CAIXA, APOS O VENCIMENTO COBRAR 10% DE MULTA                                NAO RECEBER APOS 30 DIAS DO VENCIMENTO.                                                                                                                                                                                                         01101900000000000000110190000000000000       0090770900066125004554101915000021
100000000000000000000009077090006612500000000000000000000000010002100006140010191600000000002            2  01061400101910101900000003912310000000001N011019000000000000000000000000000000000000000000000000000000000000000100006140049857MARIA ALBANI DA SILVA EUSEBIO           RUA ORLANDO SEGALA - 108 - JARDIM ADRIAN            07135190                                                            000023
2SR. CAIXA, APOS O VENCIMENTO COBRAR 10% DE MULTA                                NAO RECEBER APOS 30 DIAS DO VENCIMENTO.                                                                                                                                                                                                         01101900000000000000110190000000000000       0090770900066125061400101916000024
100000000000000000000009077090006612500000000000000000000000010002100007768710191500000000002            2  01077687101910101900000003974250000000001N011019000000000000000000000000000000000000000000000000000000000000000100007768713826FATIMA LUZIA BIANCHI                    RUA MONTE CASTELO - 295 AP.121 - AVIACAO            11702720                                                            000026
2SR. CAIXA, APOS O VENCIMENTO COBRAR 10% DE MULTA                                NAO RECEBER APOS 30 DIAS DO VENCIMENTO.                                                                                                                                                                                                         01101900000000000000110190000000000000       0090770900066125077687101915000027
100000000000000000000009077090006612500000000000000000000000010002100021716810191200000000002            2  01217168101910101900000003915250000000001N011019000000000000000000000000000000000000000000000000000000000000000100021716847800ANDRE LUIZ FAGUNDES DE A.MATOS          CONDE MOREIRA LIMA - 644 - JARDIM JABAQU            04384032                                                            000029
2SR. CAIXA, APOS O VENCIMENTO COBRAR 10% DE MULTA                                NAO RECEBER APOS 30 DIAS DO VENCIMENTO.                                                                                                                                                                                                         01101900000000000000110190000000000000       0090770900066125217168101912000030
100000000000000000000009077090006612500000000000000000000000010002100085416910191600000000002            2  01854169101910101900000003319030000000001N011019000000000000000000000000000000000000000000000000000000000000000100085416940891ANTONIO DE SOUSA MENDES                 RUA MONTE CASTELO - 296 AP.52 - AVIACAO             11702720                                                            000032
2SR. CAIXA, APOS O VENCIMENTO COBRAR 10% DE MULTA                                NAO RECEBER APOS 30 DIAS DO VENCIMENTO.                                                                                                                                                                                                         01101900000000000000110190000000000000       0090770900066125854169101916000033
100000000000000000000009077090006612500000000000000000000000010002100005678010191P00000000002            2  01056780101910101900000003456700000000001N011019000000000000000000000000000000000000000000000000000000000000000100005678057863FABIO MOREIRA CAMPOS                    RUA FLORENCIO DA SILVA - 284 - VILA LIBA            03738070                                                            000035
2SR. CAIXA, APOS O VENCIMENTO COBRAR 10% DE MULTA                                NAO RECEBER APOS 30 DIAS DO VENCIMENTO.                                                                                                                                                                                                         01101900000000000000110190000000000000       009077090006612505678010191P000036
100000000000000000000009077090006612500000000000000000000000010002100016348210191600000000002            2  01163482101910101900000003372260000000001N011019000000000000000000000000000000000000000000000000000000000000000100016348237885AILTON LORENA                           AVENIDA BRASILIA - 194 - BELA VISTA - SA            09180260                                                            000038
2SR. CAIXA, APOS O VENCIMENTO COBRAR 10% DE MULTA                                NAO RECEBER APOS 30 DIAS DO VENCIMENTO.                                                                                                                                                                                                         01101900000000000000110190000000000000       0090770900066125163482101916000039
100000000000000000000009077090006612500000000000000000000000010002100081218410191P00000000002            2  01812184101910101900000003254660000000001N011019000000000000000000000000000000000000000000000000000000000000000100081218486953OSMAR DA COSTA                          RUA MONTE CASTELO - 295 AP.33 - AVIACAO             11702720                                                            000041
2SR. CAIXA, APOS O VENCIMENTO COBRAR 10% DE MULTA                                NAO RECEBER APOS 30 DIAS DO VENCIMENTO.                                                                                                                                                                                                         01101900000000000000110190000000000000       009077090006612581218410191P000042
100000000000000000000009077090006612500000000000000000000000010002100004981810191200000000002            2  01049818101910101900000003696700000000001N011019000000000000000000000000000000000000000000000000000000000000000100004981884850SILVIO PAULINO GONCALVES                MARIA DE CASTRO MESQUITA - 84 AP.103 BLO            07110040                                                            000044
2SR. CAIXA, APOS O VENCIMENTO COBRAR 10% DE MULTA                                NAO RECEBER APOS 30 DIAS DO VENCIMENTO.                                                                                                                                                                                                         01101900000000000000110190000000000000       0090770900066125049818101912000045
100000000000000000000009077090006612500000000000000000000000010002100019282510191700000000002            2  01192825101910101900000002426500000000001N011019000000000000000000000000000000000000000000000000000000000000000100019282546837FABIO LEANDRO DE FREITAS ASSIS          RUA BASSIM NAGIB TRABULSI - 97 - PONTA D            11030540                                                            000047
2SR. CAIXA, APOS O VENCIMENTO COBRAR 10% DE MULTA                                NAO RECEBER APOS 30 DIAS DO VENCIMENTO.                                                                                                                                                                                                         01101900000000000000110190000000000000       0090770900066125192825101917000048
100000000000000000000009077090006612500000000000000000000000010002100008423410191000000000002            2  01084234101910101900000003372190000000001N011019000000000000000000000000000000000000000000000000000000000000000100008423485811EDSON LUIZ NUNES                        RUA NOEMIA PEDROSO BUENO - 41 - JARDIM G            09360440                                                            000050
2SR. CAIXA, APOS O VENCIMENTO COBRAR 10% DE MULTA                                NAO RECEBER APOS 30 DIAS DO VENCIMENTO.                                                                                                                                                                                                         01101900000000000000110190000000000000       0090770900066125084234101910000051
100000000000000000000009077090006612500000000000000000000000010002100009777210191700000000002            2  01097772101910101900000003059380000000001N011019000000000000000000000000000000000000000000000000000000000000000100009777281889CARLITA DE FIGUEIREDO CARVALHO          AVENIDA ALBERTO DE ALMEIDA VINHAS - 4462            11701350                                                            000053
2SR. CAIXA, APOS O VENCIMENTO COBRAR 10% DE MULTA                                NAO RECEBER APOS 30 DIAS DO VENCIMENTO.                                                                                                                                                                                                         01101900000000000000110190000000000000       0090770900066125097772101917000054
100000000000000000000009077090006612500000000000000000000000010002100043122810191900000000002            2  01431228101910101900000002476430000000001N011019000000000000000000000000000000000000000000000000000000000000000100043122850800ANTONIO JOAQUIM GOES                    ANTONIO DOAS DA SILVA - 412 - VILA AMALI            02618110                                                            000056
2SR. CAIXA, APOS O VENCIMENTO COBRAR 10% DE MULTA                                NAO RECEBER APOS 30 DIAS DO VENCIMENTO.                                                                                                                                                                                                         01101900000000000000110190000000000000       0090770900066125431228101919000057
100000000000000000000009077090006612500000000000000000000000010002100003865710191500000000002            2  01038657101910101900000003251380000000001N011019000000000000000000000000000000000000000000000000000000000000000100003865776841FRANCISCO JOSE ROCCO                    RUA FABIO JOSE BEZERRA - 130 AP.86 - PAR            03805000                                                            000059
2SR. CAIXA, APOS O VENCIMENTO COBRAR 10% DE MULTA                                NAO RECEBER APOS 30 DIAS DO VENCIMENTO.                                                                                                                                                                                                         01101900000000000000110190000000000000       0090770900066125038657101915000060
100000000000000000000009077090006612500000000000000000000000010002100028309510191100000000002            2  01283095101910101900000002899470000000001N011019000000000000000000000000000000000000000000000000000000000000000100028309524803DEISE RIBEIRO BARBOSA                   RUA CANDIDO JOSE DE ANDRADE - 173 - ERME            03807030                                                            000062
2SR. CAIXA, APOS O VENCIMENTO COBRAR 10% DE MULTA                                NAO RECEBER APOS 30 DIAS DO VENCIMENTO.                                                                                                                                                                                                         01101900000000000000110190000000000000       0090770900066125283095101911000063
100000000000000000000009077090006612500000000000000000000000010002100011277910191100000000002            2  01112779101910101900000003441350000000001N011019000000000000000000000000000000000000000000000000000000000000000100011277908893JOSE AILTON LOPES DE AZEVEDO            RUA MAESTRO JOAO SEPE - 19 - JARDIM MARI            04181030                                                            000065
2SR. CAIXA, APOS O VENCIMENTO COBRAR 10% DE MULTA                                NAO RECEBER APOS 30 DIAS DO VENCIMENTO.                                                                                                                                                                                                         01101900000000000000110190000000000000       0090770900066125112779101911000066
100000000000000000000009077090006612500000000000000000000000010002100025215110191900000000002            2  01252151101910101900000002595200000000001N011019000000000000000000000000000000000000000000000000000000000000000100025215106886KLEBER LUIZ DOS SANTOS                  RUA MONTE CASTELO - 262 AP.15 - AVIACAO             11702720                                                            000068
2SR. CAIXA, APOS O VENCIMENTO COBRAR 10% DE MULTA                                NAO RECEBER APOS 30 DIAS DO VENCIMENTO.                                                                                                                                                                                                         01101900000000000000110190000000000000       0090770900066125252151101919000069
100000000000000000000009077090006612500000000000000000000000010002100090206710191600000000002            2  01902067101910101900000002898750000000001N011019000000000000000000000000000000000000000000000000000000000000000100090206789815NEREIDE RODRIGUES FERREIRA              AVENIDA PADRE ESTANISLAU DE CAMPOS - 205            03590060                                                            000071
2SR. CAIXA, APOS O VENCIMENTO COBRAR 10% DE MULTA                                NAO RECEBER APOS 30 DIAS DO VENCIMENTO.                                                                                                                                                                                                         01101900000000000000110190000000000000       0090770900066125902067101916000072
100000000000000000000009077090006612500000000000000000000000010002100029150710191400000000002            2  01291507101910101900000003393020000000001N011019000000000000000000000000000000000000000000000000000000000000000100029150742833ANA DEISE SANTOS DE ALMEIDA             RUA MONTE CASTELO - 296 AP.121 - AVIACAO            11702720                                                            000074
2SR. CAIXA, APOS O VENCIMENTO COBRAR 10% DE MULTA                                NAO RECEBER APOS 30 DIAS DO VENCIMENTO.                                                                                                                                                                                                         01101900000000000000110190000000000000       0090770900066125291507101914000075
100000000000000000000009077090006612500000000000000000000000010002100000811710191P00000000002            2  01008117101910101900000002794780000000001N011019000000000000000000000000000000000000000000000000000000000000000100000811752801SERGIO BUENO DA SILVA                   RUA MONTE CASTELO - 262 AP.75 - AVIACAO             11702720                                                            000077
2SR. CAIXA, APOS O VENCIMENTO COBRAR 10% DE MULTA                                NAO RECEBER APOS 30 DIAS DO VENCIMENTO.                                                                                                                                                                                                         01101900000000000000110190000000000000       009077090006612500811710191P000078
100000000000000000000009077090006612500000000000000000000000010002100018344810191600000000002            2  01183448101910101900000003552760000000001N011019000000000000000000000000000000000000000000000000000000000000000100018344803888MARCELO BERNARDO                        RUA MONTE CASTELO - 262 AP.84 - AVIACAO             11702720                                                            000080
2SR. CAIXA, APOS O VENCIMENTO COBRAR 10% DE MULTA                                NAO RECEBER APOS 30 DIAS DO VENCIMENTO.                                                                                                                                                                                                         01101900000000000000110190000000000000       0090770900066125183448101916000081
100000000000000000000009077090006612500000000000000000000000010002100004004310191300000000002            2  01040043101910101900000004980860000000001N011019000000000000000000000000000000000000000000000000000000000000000100004004328896VANDERLEI  MARTINS DE ALMEIDA           RUA MONSENHOR TABOSA - 03 - PARQUE CISPE            03819300                                                            000083
2SR. CAIXA, APOS O VENCIMENTO COBRAR 10% DE MULTA                                NAO RECEBER APOS 30 DIAS DO VENCIMENTO.                                                                                                                                                                                                         01101900000000000000110190000000000000       0090770900066125040043101913000084
100000000000000000000009077090006612500000000000000000000000010002100016339410191400000000002            2  01163394101910101900000003005130000000001N011019000000000000000000000000000000000000000000000000000000000000000100016339432832ALEX MONTEIRO DA SILVA                  RUA IVA MOURA LIMA - 04 - JARDIM MIRNA I            04855540                                                            000086
2SR. CAIXA, APOS O VENCIMENTO COBRAR 10% DE MULTA                                NAO RECEBER APOS 30 DIAS DO VENCIMENTO.                                                                                                                                                                                                         01101900000000000000110190000000000000       0090770900066125163394101914000087
100000000000000000000009077090006612500000000000000000000000010002100031803810191100000000002            2  01318038101910101900000003068850000000001N011019000000000000000000000000000000000000000000000000000000000000000100031803864877ELEILSON FELIPPE SANTOS                 RUA SANTA GREGORIA - 193 - CIDADE DUTRA             04806030                                                            000089
2SR. CAIXA, APOS O VENCIMENTO COBRAR 10% DE MULTA                                NAO RECEBER APOS 30 DIAS DO VENCIMENTO.                                                                                                                                                                                                         01101900000000000000110190000000000000       0090770900066125318038101911000090
100000000000000000000009077090006612500000000000000000000000010002100026032610191P00000000002            2  01260326101910101900000002111870000000001N011019000000000000000000000000000000000000000000000000000000000000000100026032632857MARILA LOPES PEREIRA                    AVENIDA LUIZ GISHOKEM - 1761 AP.13 BL.05            05831315                                                            000092
2SR. CAIXA, APOS O VENCIMENTO COBRAR 10% DE MULTA                                NAO RECEBER APOS 30 DIAS DO VENCIMENTO.                                                                                                                                                                                                         01101900000000000000110190000000000000       009077090006612526032610191P000093
100000000000000000000009077090006612500000000000000000000000010002100063064510191600000000002            2  01630645101910101900000003657080000000001N011019000000000000000000000000000000000000000000000000000000000000000100063064537849ANTONIO APARECIDO DA SILVA DESTEFANO    RUA PROFESSOR TEODORO BRAGA - 46 - VILA             02966020                                                            000095
2SR. CAIXA, APOS O VENCIMENTO COBRAR 10% DE MULTA                                NAO RECEBER APOS 30 DIAS DO VENCIMENTO.                                                                                                                                                                                                         01101900000000000000110190000000000000       0090770900066125630645101916000096
100000000000000000000009077090006612500000000000000000000000010002100010107710191100000000002            2  01101077101910101900000003504580000000001N011019000000000000000000000000000000000000000000000000000000000000000100010107711834VALDEMAR FECCHIO                        RUA DEPUTADO EMILIO CARLOS - 355 AP.21-B            06028010                                                            000098
2SR. CAIXA, APOS O VENCIMENTO COBRAR 10% DE MULTA                                NAO RECEBER APOS 30 DIAS DO VENCIMENTO.                                                                                                                                                                                                         01101900000000000000110190000000000000       0090770900066125101077101911000099
100000000000000000000009077090006612500000000000000000000000010002100003330710191000000000002            2  01033307101910101900000004508450000000001N011019000000000000000000000000000000000000000000000000000000000000000100003330791837MARLI DA SILVA BARBOSA                  RUA GLICERIO CERQUEIRA LEITE - 151 - JAR            03675040                                                            000101
2SR. CAIXA, APOS O VENCIMENTO COBRAR 10% DE MULTA                                NAO RECEBER APOS 30 DIAS DO VENCIMENTO.                                                                                                                                                                                                         01101900000000000000110190000000000000       0090770900066125033307101910000102
100000000000000000000009077090006612500000000000000000000000010002100008931010191900000000002            2  01089310101910101900000001832620000000001N011019000000000000000000000000000000000000000000000000000000000000000100008931031874BENEVENUTO THEODORO DA SILVA NETO       RUA MONTE CASTELO - 296 AP.63 - AVIACAO             11702720                                                            000104
2SR. CAIXA, APOS O VENCIMENTO COBRAR 10% DE MULTA                                NAO RECEBER APOS 30 DIAS DO VENCIMENTO.                                                                                                                                                                                                         01101900000000000000110190000000000000       0090770900066125089310101919000105
100000000000000000000009077090006612500000000000000000000000010002100005920510191500000000002            2  01059205101910101900000002129180000000001N011019000000000000000000000000000000000000000000000000000000000000000100005920579846SONIA MARIA VALDO POLLO                 RUA PALMIRA CERVI BARBARO - 797 - CIDADE            13214370                                                            000107
2SR. CAIXA, APOS O VENCIMENTO COBRAR 10% DE MULTA                                NAO RECEBER APOS 30 DIAS DO VENCIMENTO.                                                                                                                                                                                                         01101900000000000000110190000000000000       0090770900066125059205101915000108
100000000000000000000009077090006612500000000000000000000000010002100002494110191600000000002            2  01024941101910101900000003201300000000001N011019000000000000000000000000000000000000000000000000000000000000000100002494107881CIRO FRANCISCO MARCHI DURIGON           RUA MONTE CASTELO - 262 AP.115 - AVIACAO            11702720                                                            000110
2SR. CAIXA, APOS O VENCIMENTO COBRAR 10% DE MULTA                                NAO RECEBER APOS 30 DIAS DO VENCIMENTO.                                                                                                                                                                                                         01101900000000000000110190000000000000       0090770900066125024941101916000111
100000000000000000000009077090006612500000000000000000000000010002100007002310191300000000002            2  01070023101910101900000003147050000000001N011019000000000000000000000000000000000000000000000000000000000000000100007002345869DOMINGOS DE BRITO GALVAO                RUA MONTE CASTELO - 262 AP.44 - AVIACAO             11702720                                                            000113
2SR. CAIXA, APOS O VENCIMENTO COBRAR 10% DE MULTA                                NAO RECEBER APOS 30 DIAS DO VENCIMENTO.                                                                                                                                                                                                         01101900000000000000110190000000000000       0090770900066125070023101913000114
100000000000000000000009077090006612500000000000000000000000010002100009346810191300000000002            2  01093468101910101900000001310910000000001N011019000000000000000000000000000000000000000000000000000000000000000100009346863862NELSON DE SOUZA SANTOS                  RUA PRIMEIRA CRUZ - 90 - PARQUE INDEPEND            03236060                                                            000116
2SR. CAIXA, APOS O VENCIMENTO COBRAR 10% DE MULTA                                NAO RECEBER APOS 30 DIAS DO VENCIMENTO.                                                                                                                                                                                                         01101900000000000000110190000000000000       0090770900066125093468101913000117
100000000000000000000009077090006612500000000000000000000000010002100016299010191700000000002            2  01162990101910101900000003033760000000001N011019000000000000000000000000000000000000000000000000000000000000000100016299008857FERNANDO CESAR CARVALHO                 AVENIDA MARCONDES DE BRITO - 1340 AP.74             03509000                                                            000119
2SR. CAIXA, APOS O VENCIMENTO COBRAR 10% DE MULTA                                NAO RECEBER APOS 30 DIAS DO VENCIMENTO.                                                                                                                                                                                                         01101900000000000000110190000000000000       0090770900066125162990101917000120
100000000000000000000009077090006612500000000000000000000000010002100031082810191000000000002            2  01310828101910101900000003048460000000001N011019000000000000000000000000000000000000000000000000000000000000000100031082898880VANESSA DOS SANTOS NEIVA                RUA MONTE CASTELO - 296 AP.33 - BAIRRO A            11702720                                                            000122
2SR. CAIXA, APOS O VENCIMENTO COBRAR 10% DE MULTA                                NAO RECEBER APOS 30 DIAS DO VENCIMENTO.                                                                                                                                                                                                         01101900000000000000110190000000000000       0090770900066125310828101910000123
100000000000000000000009077090006612500000000000000000000000010002100065895310191000000000002            2  01658953101910101900000001856070000000001N011019000000000000000000000000000000000000000000000000000000000000000100065895304834MARINHO BARBOSA CUNHA                   AVENIDA EDU CHAVES - 639 AP.43 - PARQUE             02229000                                                            000125
2SR. CAIXA, APOS O VENCIMENTO COBRAR 10% DE MULTA                                NAO RECEBER APOS 30 DIAS DO VENCIMENTO.                                                                                                                                                                                                         01101900000000000000110190000000000000       0090770900066125658953101910000126
9                                                                                                                                                                                                                                                                                                                                                                                                         000127