01REMESSA01COBRANCA       00000000000005316116AIRES CONSTRUTORA E INCORPORAD237BRADESCO       240920        MX0000153                                                                                                                                                                                                                                                                                     000001
100000000000000000000009002800441612000000000000000000000000010002100002252109202100000000002            2  01022521092027092000000000020000000000001N240920000000000000000000000000000000000000000000000000000000000000000100002252149892AIRES MOTA DOS SANTOS                   AVENIDA BRASIL - 600 - AVIACAO - PRAIA G            11701090                                                            000002
2SR. CAIXA, APOS O VENCIMENTO COBRAR 10% DE MULTA                                NAO RECEBER APOS 30 DIAS DO VENCIMENTO.                                                                                                                                                                                                         24092000000000000002409200000000000000       0090028004416120022521092021000003
9                                                                                                                                                                                                                                                                                                                                                                                                         000004