01REMESSA01COBRANCA       00000000000004991781AIRES CONSTRUTORA E INCORPORAD237BRADESCO       110418        MX0000102                                                                                                                                                                                                                                                                                     000001
100000000000000000000009077090006612500000000000000000000000010002100001224504181100000000002            2  01012245041825041800000003366500000000001N110418000000000000000000000000000000000000000000000000000000000000000100001224509579REINALDO JUNIOR MARTINS DE ABREU        RUA JUSTINO NIGRO - 449 - INTERLAGOS - S            04815030                                                            000002
2SR. CAIXA, APOS O VENCIMENTO COBRAR 10% DE MULTA                                NAO RECEBER APOS 30 DIAS DO VENCIMENTO.                                                                                                                                                                                                         11041800000000000001104180000000000000       0090770900066125012245041811000003
100000000000000000000009077090006612500000000000000000000000010002100003325104181200000000002            2  01033251041825041800000003274150000000001N110418000000000000000000000000000000000000000000000000000000000000000100003325102808MARCOS DE OLIVEIRA JUNIOR               RUA LUIS NOVELLETO - 91 - PARQUE CONTINE            05324080                                                            000005
2SR. CAIXA, APOS O VENCIMENTO COBRAR 10% DE MULTA                                NAO RECEBER APOS 30 DIAS DO VENCIMENTO.                                                                                                                                                                                                         11041800000000000001104180000000000000       0090770900066125033251041812000006
100000000000000000000009077090006612500000000000000000000000010002100016338904181400000000002            2  01163389041825041800000003321670000000001N110418000000000000000000000000000000000000000000000000000000000000000100016338929806EDVALDO DA SILVA ANDRADE                RUA ARIA - 434 - PARQUE ALVES DE LIMA -             04902170                                                            000008
2SR. CAIXA, APOS O VENCIMENTO COBRAR 10% DE MULTA                                NAO RECEBER APOS 30 DIAS DO VENCIMENTO.                                                                                                                                                                                                         11041800000000000001104180000000000000       0090770900066125163389041814000009
100000000000000000000009077090006612500000000000000000000000010002100026836904181400000000002            2  01268369041825041800000003008000000000001N110418000000000000000000000000000000000000000000000000000000000000000100026836908860VANDERLEI FIGUEIREDO DE CARVALHO        RUA TUPI - 840 - VILA TUPI - PRAIA GRAND            11703260                                                            000011
2SR. CAIXA, APOS O VENCIMENTO COBRAR 10% DE MULTA                                NAO RECEBER APOS 30 DIAS DO VENCIMENTO.                                                                                                                                                                                                         11041800000000000001104180000000000000       0090770900066125268369041814000012
100000000000000000000009077090006612500000000000000000000000010002100059861504181000000000002            2  01598615041825041800000003341050000000001N110418000000000000000000000000000000000000000000000000000000000000000100059861576800REINALDO LOPES DE OLIVEIRA              RUA DA SERVIDAO - 40 - VILA ROSCHEL - SA            04891045                                                            000014
2SR. CAIXA, APOS O VENCIMENTO COBRAR 10% DE MULTA                                NAO RECEBER APOS 30 DIAS DO VENCIMENTO.                                                                                                                                                                                                         11041800000000000001104180000000000000       0090770900066125598615041810000015
100000000000000000000009077090006612500000000000000000000000010002100016330904181900000000002            2  01163309041825041800000003320830000000001N110418000000000000000000000000000000000000000000000000000000000000000100016330938830KARINA CORDEIRO PIASSA                  CONDE MOREIRA LIMA - 644 - JARDIM JABAQU            04384032                                                            000017
2SR. CAIXA, APOS O VENCIMENTO COBRAR 10% DE MULTA                                NAO RECEBER APOS 30 DIAS DO VENCIMENTO.                                                                                                                                                                                                         11041800000000000001104180000000000000       0090770900066125163309041819000018
100000000000000000000009077090006612500000000000000000000000010002100077027604181100000000002            2  01770276041825041800000003227580000000001N110418000000000000000000000000000000000000000000000000000000000000000100077027604868CLINEU LISSONI                          AVENIDA VILA EMA - 1100 AP.41 - VILA PRU            03156000                                                            000020
2SR. CAIXA, APOS O VENCIMENTO COBRAR 10% DE MULTA                                NAO RECEBER APOS 30 DIAS DO VENCIMENTO.                                                                                                                                                                                                         11041800000000000001104180000000000000       0090770900066125770276041811000021
100000000000000000000009077090006612500000000000000000000000010002100005627904181800000000002            2  01056279041825041800000003026000000000001N110418000000000000000000000000000000000000000000000000000000000000000100005627947861FERNANDO CESAR MARCELINO                RUA CASA FORTE - 46 AP.11 - AGUA FRIA -             02336040                                                            000023
2SR. CAIXA, APOS O VENCIMENTO COBRAR 10% DE MULTA                                NAO RECEBER APOS 30 DIAS DO VENCIMENTO.                                                                                                                                                                                                         11041800000000000001104180000000000000       0090770900066125056279041818000024
100000000000000000000009077090006612500000000000000000000000010002100029380704181900000000002            2  01293807041825041800000003008180000000001N110418000000000000000000000000000000000000000000000000000000000000000100029380708882EDUARDO MENDONCA DAMASCENO              RUA MONTE CASTELO - 296 AP.12 - AVIACAO             11702720                                                            000026
2SR. CAIXA, APOS O VENCIMENTO COBRAR 10% DE MULTA                                NAO RECEBER APOS 30 DIAS DO VENCIMENTO.                                                                                                                                                                                                         11041800000000000001104180000000000000       0090770900066125293807041819000027
100000000000000000000009077090006612500000000000000000000000010002100023988504181200000000002            2  01239885041825041800000003054470000000001N110418000000000000000000000000000000000000000000000000000000000000000100023988525634DALMY PIMENTA                           SAO CAETANO - 136 - VILA SAO VICENTE - U            38026220                                                            000029
2SR. CAIXA, APOS O VENCIMENTO COBRAR 10% DE MULTA                                NAO RECEBER APOS 30 DIAS DO VENCIMENTO.                                                                                                                                                                                                         11041800000000000001104180000000000000       0090770900066125239885041812000030
100000000000000000000009077090006612500000000000000000000000010002100004735204181400000000002            2  01047352041825041800000003321010000000001N110418000000000000000000000000000000000000000000000000000000000000000100004735273832DARIO LUIZ GONCALVES                    RUA MONTE CASTELO - 295 AP.113 - AVIACAO            11702720                                                            000032
2SR. CAIXA, APOS O VENCIMENTO COBRAR 10% DE MULTA                                NAO RECEBER APOS 30 DIAS DO VENCIMENTO.                                                                                                                                                                                                         11041800000000000001104180000000000000       0090770900066125047352041814000033
100000000000000000000009077090006612500000000000000000000000010002100007635204181400000000002            2  01076352041825041800000002969190000000001N110418000000000000000000000000000000000000000000000000000000000000000100007635293893SILVIO CARDOSO ZACARIAS                 RUA SOLIDONIO LEITE - 2718 AP.102 BLOCO             03275000                                                            000035
2SR. CAIXA, APOS O VENCIMENTO COBRAR 10% DE MULTA                                NAO RECEBER APOS 30 DIAS DO VENCIMENTO.                                                                                                                                                                                                         11041800000000000001104180000000000000       0090770900066125076352041814000036
100000000000000000000009077090006612500000000000000000000000010002100067192904181400000000002            2  01671929041825041800000002906750000000001N110418000000000000000000000000000000000000000000000000000000000000000100067192920800SONIA MARIA RIBEIRO SUDO                RUA INGAZEIRA - 133 - SAO MIGUEL - SAO P            08032080                                                            000038
2SR. CAIXA, APOS O VENCIMENTO COBRAR 10% DE MULTA                                NAO RECEBER APOS 30 DIAS DO VENCIMENTO.                                                                                                                                                                                                         11041800000000000001104180000000000000       0090770900066125671929041814000039
100000000000000000000009077090006612500000000000000000000000010002100007975904181800000000002            2  01079759041825041800000003230320000000001N110418000000000000000000000000000000000000000000000000000000000000000100007975958808JOCY VIGNADO                            RUA PEDRO GONCALVES SOBRINHO - 568 - PAR            13098641                                                            000041
2SR. CAIXA, APOS O VENCIMENTO COBRAR 10% DE MULTA                                NAO RECEBER APOS 30 DIAS DO VENCIMENTO.                                                                                                                                                                                                         11041800000000000001104180000000000000       0090770900066125079759041818000042
100000000000000000000009077090006612500000000000000000000000010002100036712504181000000000002            2  01367125041825041800000003020480000000001N110418000000000000000000000000000000000000000000000000000000000000000100036712580803WALTER BARRETO DE ALMEIDA               RUA MONTE CASTELO - 296 AP.44 - AVIACAO             11702720                                                            000044
2SR. CAIXA, APOS O VENCIMENTO COBRAR 10% DE MULTA                                NAO RECEBER APOS 30 DIAS DO VENCIMENTO.                                                                                                                                                                                                         11041800000000000001104180000000000000       0090770900066125367125041810000045
100000000000000000000009077090006612500000000000000000000000010002100004290904181000000000002            2  01042909041825041800000003208620000000001N110418000000000000000000000000000000000000000000000000000000000000000100004290973876VLADIMIR PAIOLA BORREGO                 RUA GOMES - 429 - VILA IVONE - SAO PAULO            03275010                                                            000047
2SR. CAIXA, APOS O VENCIMENTO COBRAR 10% DE MULTA                                NAO RECEBER APOS 30 DIAS DO VENCIMENTO.                                                                                                                                                                                                         11041800000000000001104180000000000000       0090770900066125042909041810000048
100000000000000000000009077090006612500000000000000000000000010002100036386804181P00000000002            2  01363868041825041800000003411710000000001N110418000000000000000000000000000000000000000000000000000000000000000100036386861833ALINE LEE WEI DE SOUZA                  AV. PRES.CASTELO BRANCO - 9127 AP.251 BL            11704600                                                            000050
2SR. CAIXA, APOS O VENCIMENTO COBRAR 10% DE MULTA                                NAO RECEBER APOS 30 DIAS DO VENCIMENTO.                                                                                                                                                                                                         11041800000000000001104180000000000000       009077090006612536386804181P000051
100000000000000000000009077090006612500000000000000000000000010002100026187904181400000000002            2  01261879041825041800000003165950000000001N110418000000000000000000000000000000000000000000000000000000000000000100026187960807CARINA CANTACESSO DE SOUZA              RUA MONTE CASTELO - 296 AP.91 - AVIACAO             11702720                                                            000053
2SR. CAIXA, APOS O VENCIMENTO COBRAR 10% DE MULTA                                NAO RECEBER APOS 30 DIAS DO VENCIMENTO.                                                                                                                                                                                                         11041800000000000001104180000000000000       0090770900066125261879041814000054
100000000000000000000009077090006612500000000000000000000000010002100070465304181000000000002            2  01704653041825041800000003103380000000001N110418000000000000000000000000000000000000000000000000000000000000000100070465320953SIDNEY CARASKI                          RUA DR.CELSO PACHECO BENTIM - 502 - PARQ            03571020                                                            000056
2SR. CAIXA, APOS O VENCIMENTO COBRAR 10% DE MULTA                                NAO RECEBER APOS 30 DIAS DO VENCIMENTO.                                                                                                                                                                                                         11041800000000000001104180000000000000       0090770900066125704653041810000057
100000000000000000000009077090006612500000000000000000000000010002100075759404181600000000002            2  01757594041825041800000002430210000000001N110418000000000000000000000000000000000000000000000000000000000000000100075759446800VALTER MUTAFEI                          RUA MONTE CASTELO - 295 AP.54 - AVIACAO             11702720                                                            000059
2SR. CAIXA, APOS O VENCIMENTO COBRAR 10% DE MULTA                                NAO RECEBER APOS 30 DIAS DO VENCIMENTO.                                                                                                                                                                                                         11041800000000000001104180000000000000       0090770900066125757594041816000060
100000000000000000000009077090006612500000000000000000000000010002100070328704181400000000002            2  01703287041825041800000003472170000000001N110418000000000000000000000000000000000000000000000000000000000000000100070328706868VALTER LIMA FERNANDES                   RUA DOMINGOS JORGE VELHO - 52 - CENTRO -            06843550                                                            000062
2SR. CAIXA, APOS O VENCIMENTO COBRAR 10% DE MULTA                                NAO RECEBER APOS 30 DIAS DO VENCIMENTO.                                                                                                                                                                                                         11041800000000000001104180000000000000       0090770900066125703287041814000063
100000000000000000000009077090006612500000000000000000000000010002100023132604181P00000000002            2  01231326041825041800000001886050000000001N110418000000000000000000000000000000000000000000000000000000000000000100023132672882LEANDRO MORENO                          RUA MONTE CASTELO - 296 AP.64 - AVIACAO             11702720                                                            000065
2SR. CAIXA, APOS O VENCIMENTO COBRAR 10% DE MULTA                                NAO RECEBER APOS 30 DIAS DO VENCIMENTO.                                                                                                                                                                                                         11041800000000000001104180000000000000       009077090006612523132604181P000066
100000000000000000000009077090006612500000000000000000000000010002100099264604181900000000002            2  01992646041825041800000003216470000000001N110418000000000000000000000000000000000000000000000000000000000000000100099264692800LEONTINO PINHEIRO DA SILVA              AVENIDA JOAO BATISTA FITIPALDI - 469 - V            08685000                                                            000068
2SR. CAIXA, APOS O VENCIMENTO COBRAR 10% DE MULTA                                NAO RECEBER APOS 30 DIAS DO VENCIMENTO.                                                                                                                                                                                                         11041800000000000001104180000000000000       0090770900066125992646041819000069
100000000000000000000009077090006612500000000000000000000000010002100000666304181P00000000002            2  01006663041825041800000003102990000000001N110418000000000000000000000000000000000000000000000000000000000000000100000666344825LUIZ HENRIQUE DE CAMPOS                 RUA JOAO CARLOS CAVALCANTI REIS - 21 - J            02281206                                                            000071
2SR. CAIXA, APOS O VENCIMENTO COBRAR 10% DE MULTA                                NAO RECEBER APOS 30 DIAS DO VENCIMENTO.                                                                                                                                                                                                         11041800000000000001104180000000000000       009077090006612500666304181P000072
100000000000000000000009077090006612500000000000000000000000010002100029155004181P00000000002            2  01291550041825041800000003276890000000001N110418000000000000000000000000000000000000000000000000000000000000000100029155026842DANIELA YOSHIDA                         RUA MONTE CASTELO - 262 AP.34 - AVIACAO             11702720                                                            000074
2SR. CAIXA, APOS O VENCIMENTO COBRAR 10% DE MULTA                                NAO RECEBER APOS 30 DIAS DO VENCIMENTO.                                                                                                                                                                                                         11041800000000000001104180000000000000       009077090006612529155004181P000075
100000000000000000000009077090006612500000000000000000000000010002100034325504181600000000002            2  01343255041825041800000002820710000000001N110418000000000000000000000000000000000000000000000000000000000000000100034325567801LUIZ FERNANDO ALAMINO                   AVENIDA FLOR DE VILA FORMOSA - 337 - VIL            03366010                                                            000077
2SR. CAIXA, APOS O VENCIMENTO COBRAR 10% DE MULTA                                NAO RECEBER APOS 30 DIAS DO VENCIMENTO.                                                                                                                                                                                                         11041800000000000001104180000000000000       0090770900066125343255041816000078
100000000000000000000009077090006612500000000000000000000000010002100001204404181300000000002            2  01012044041825041800000002668540000000001N110418000000000000000000000000000000000000000000000000000000000000000100001204431809CEZAR TALAVERA JUNIOR                   RUA MAESTRO ARTURO DE ANGELIS  - 190 AP.            05139010                                                            000080
2SR. CAIXA, APOS O VENCIMENTO COBRAR 10% DE MULTA                                NAO RECEBER APOS 30 DIAS DO VENCIMENTO.                                                                                                                                                                                                         11041800000000000001104180000000000000       0090770900066125012044041813000081
100000000000000000000009077090006612500000000000000000000000010002100004227504181200000000002            2  01042275041825041800000003459260000000001N110418000000000000000000000000000000000000000000000000000000000000000100004227553970ALESSANDRO ISRAEL GOULART               RUA PROFESSORA CARLINDA RIBEIRO - 21 - F            02866200                                                            000083
2SR. CAIXA, APOS O VENCIMENTO COBRAR 10% DE MULTA                                NAO RECEBER APOS 30 DIAS DO VENCIMENTO.                                                                                                                                                                                                         11041800000000000001104180000000000000       0090770900066125042275041812000084
100000000000000000000009077090006612500000000000000000000000010002100060811404181600000000002            2  01608114041825041800000003188110000000001N110418000000000000000000000000000000000000000000000000000000000000000100060811420868HELIO BASSI                             AV.PARIS,575 - PRACA ANTONIO FIGUEROA -             11700082                                                            000086
2SR. CAIXA, APOS O VENCIMENTO COBRAR 10% DE MULTA                                NAO RECEBER APOS 30 DIAS DO VENCIMENTO.                                                                                                                                                                                                         11041800000000000001104180000000000000       0090770900066125608114041816000087
100000000000000000000009077090006612500000000000000000000000010002100001024704181600000000002            2  01010247041825041800000003016800000000001N110418000000000000000000000000000000000000000000000000000000000000000100001024794881CLAUDIO RODRIGUES                       RUA ARACATUBA - 242 - LAPA - SAO PAULO -            05058010                                                            000089
2SR. CAIXA, APOS O VENCIMENTO COBRAR 10% DE MULTA                                NAO RECEBER APOS 30 DIAS DO VENCIMENTO.                                                                                                                                                                                                         11041800000000000001104180000000000000       0090770900066125010247041816000090
100000000000000000000009077090006612500000000000000000000000010002100002225004181700000000002            2  01022250041825041800000004625140000000001N110418000000000000000000000000000000000000000000000000000000000000000100002225072841PEDRO EDUARDO DE AZEVEDO                RUA NATH ZILMAN - 46 - JARDIM SAMAMBAIA             07600000                                                            000092
2SR. CAIXA, APOS O VENCIMENTO COBRAR 10% DE MULTA                                NAO RECEBER APOS 30 DIAS DO VENCIMENTO.                                                                                                                                                                                                         11041800000000000001104180000000000000       0090770900066125022250041817000093
100000000000000000000009077090006612500000000000000000000000010002100022037504181500000000002            2  01220375041825041800000003218600000000001N110418000000000000000000000000000000000000000000000000000000000000000100022037552882ANDREIA CRISTINA FERNANDES DANTAS       PCA CASTRO ALVES - 163 AP.33 - VILA SAO             13224299                                                            000095
2SR. CAIXA, APOS O VENCIMENTO COBRAR 10% DE MULTA                                NAO RECEBER APOS 30 DIAS DO VENCIMENTO.                                                                                                                                                                                                         11041800000000000001104180000000000000       0090770900066125220375041815000096
100000000000000000000009077090006612500000000000000000000000010002100019288704181300000000002            2  01192887041825041800000002620680000000001N110418000000000000000000000000000000000000000000000000000000000000000100019288787844EMERSON LUIZ MARTINEZ PEREIRA           RUA MONTE CASTELO - 296 AP.74 - AVIACAO             11702720                                                            000098
2SR. CAIXA, APOS O VENCIMENTO COBRAR 10% DE MULTA                                NAO RECEBER APOS 30 DIAS DO VENCIMENTO.                                                                                                                                                                                                         11041800000000000001104180000000000000       0090770900066125192887041813000099
100000000000000000000009077090006612500000000000000000000000010002100027198404181700000000002            2  01271984041825041800000002219850000000001N110418000000000000000000000000000000000000000000000000000000000000000100027198452809CRISTIANE AURELIANO DA SILVA MAIA       RUA MONTE CASTELO - 262 AP.25 - AVIACAO             11702720                                                            000101
2SR. CAIXA, APOS O VENCIMENTO COBRAR 10% DE MULTA                                NAO RECEBER APOS 30 DIAS DO VENCIMENTO.                                                                                                                                                                                                         11041800000000000001104180000000000000       0090770900066125271984041817000102
100000000000000000000009077090006612500000000000000000000000010002100021246204181000000000002            2  01212462041825041800000002709080000000001N110418000000000000000000000000000000000000000000000000000000000000000100021246231840ALEXANDRO DA CUNHA MIGUES               AVENIDA CONSELHEIRO CARRAO - 1861 CONJ.5            03403001                                                            000104
2SR. CAIXA, APOS O VENCIMENTO COBRAR 10% DE MULTA                                NAO RECEBER APOS 30 DIAS DO VENCIMENTO.                                                                                                                                                                                                         11041800000000000001104180000000000000       0090770900066125212462041810000105
100000000000000000000009077090006612500000000000000000000000010002100004864904181P00000000002            2  01048649041825041800000001622050000000001N110418000000000000000000000000000000000000000000000000000000000000000100004864924600RENATO SANTACHIARA SALVADORI            RUA PENSYLVANIA - 116 - PAYSAGE BRISE -             06730000                                                            000107
2SR. CAIXA, APOS O VENCIMENTO COBRAR 10% DE MULTA                                NAO RECEBER APOS 30 DIAS DO VENCIMENTO.                                                                                                                                                                                                         11041800000000000001104180000000000000       009077090006612504864904181P000108
100000000000000000000009077090006612500000000000000000000000010002100018834204181900000000002            2  01188342041825041800000003164520000000001N110418000000000000000000000000000000000000000000000000000000000000000100018834257863ILTON FERNANDO MUTCHNIK                 RUA ASSUNGUI - 700 AP.222 - VILA GUMERCI            04131001                                                            000110
2SR. CAIXA, APOS O VENCIMENTO COBRAR 10% DE MULTA                                NAO RECEBER APOS 30 DIAS DO VENCIMENTO.                                                                                                                                                                                                         11041800000000000001104180000000000000       0090770900066125188342041819000111
100000000000000000000009077090006612500000000000000000000000010002100018470504181000000000002            2  01184705041825041800000003985450000000001N110418000000000000000000000000000000000000000000000000000000000000000100018470520881SILVANA ALVES DE OLIVEIRA               RUA MONTE CASTELO - 262 AP.91 - AVIACAO             11702720                                                            000113
2SR. CAIXA, APOS O VENCIMENTO COBRAR 10% DE MULTA                                NAO RECEBER APOS 30 DIAS DO VENCIMENTO.                                                                                                                                                                                                         11041800000000000001104180000000000000       0090770900066125184705041810000114
100000000000000000000009077090006612500000000000000000000000010002100009297504181000000000002            2  01092975041825041800000002774650000000001N110418000000000000000000000000000000000000000000000000000000000000000100009297523846MARCOS ROBERTO DE CASTRO FERREIRA       RUA MONTE CASTELO - 262 AP.105 - AVIACAO            11702720                                                            000116
2SR. CAIXA, APOS O VENCIMENTO COBRAR 10% DE MULTA                                NAO RECEBER APOS 30 DIAS DO VENCIMENTO.                                                                                                                                                                                                         11041800000000000001104180000000000000       0090770900066125092975041810000117
100000000000000000000009077090006612500000000000000000000000010002100001164104181P00000000002            2  01011641041825041800000003438420000000001N110418000000000000000000000000000000000000000000000000000000000000000100001164158864DAVID BLEY LACERDA                      RUA CONEGO ARAUJO MARCONDES - 188 - BAIR            02550080                                                            000119
2SR. CAIXA, APOS O VENCIMENTO COBRAR 10% DE MULTA                                NAO RECEBER APOS 30 DIAS DO VENCIMENTO.                                                                                                                                                                                                         11041800000000000001104180000000000000       009077090006612501164104181P000120
100000000000000000000009077090006612500000000000000000000000010002100031498004181300000000002            2  01314980041825041800000004178900000000001N110418000000000000000000000000000000000000000000000000000000000000000100031498008895POLIANE  SIBELE DA SILVA                PRACA GENERAL COSTA BARRETO - 56 AP.181             03325070                                                            000122
2SR. CAIXA, APOS O VENCIMENTO COBRAR 10% DE MULTA                                NAO RECEBER APOS 30 DIAS DO VENCIMENTO.                                                                                                                                                                                                         11041800000000000001104180000000000000       0090770900066125314980041813000123
100000000000000000000009077090006612500000000000000000000000010002100000588104181700000000002            2  01005881041825041800000002451000000000001N110418000000000000000000000000000000000000000000000000000000000000000100000588109860JOSE LIARTE GIANTE                      AVENIDA LUIZ GONZAGA DO AMARAL - 143 - J            09320630                                                            000125
2SR. CAIXA, APOS O VENCIMENTO COBRAR 10% DE MULTA                                NAO RECEBER APOS 30 DIAS DO VENCIMENTO.                                                                                                                                                                                                         11041800000000000001104180000000000000       0090770900066125005881041817000126
100000000000000000000009077090006612500000000000000000000000010002100014386804181P00000000002            2  01143868041825041800000001960710000000001N110418000000000000000000000000000000000000000000000000000000000000000100014386860134SEVERINO CARLOS DE OLIVEIRA             RUA MONTE CASTELO - 262 AP.54 - AVIACAO             11702720                                                            000128
2SR. CAIXA, APOS O VENCIMENTO COBRAR 10% DE MULTA                                NAO RECEBER APOS 30 DIAS DO VENCIMENTO.                                                                                                                                                                                                         11041800000000000001104180000000000000       009077090006612514386804181P000129
100000000000000000000009077090006612500000000000000000000000010002100029088204181700000000002            2  01290882041825041800000002179790000000001N110418000000000000000000000000000000000000000000000000000000000000000100029088221804FABIANO SPERANDEO                       RUA MONTE CASTELO - 296 AP.93 - AVIACAO             11702720                                                            000131
2SR. CAIXA, APOS O VENCIMENTO COBRAR 10% DE MULTA                                NAO RECEBER APOS 30 DIAS DO VENCIMENTO.                                                                                                                                                                                                         11041800000000000001104180000000000000       0090770900066125290882041817000132
100000000000000000000009077090006612500000000000000000000000010002100039393704181500000000002            2  01393937041825041800000001351320000000001N110418000000000000000000000000000000000000000000000000000000000000000100039393790850NAIRON RICARDO DE ARAUJO SANTOS         RUA MONTE CASTELO - 262 AP.23 - AVIACAO             11702720                                                            000134
2SR. CAIXA, APOS O VENCIMENTO COBRAR 10% DE MULTA                                NAO RECEBER APOS 30 DIAS DO VENCIMENTO.                                                                                                                                                                                                         11041800000000000001104180000000000000       0090770900066125393937041815000135
100000000000000000000009077090006612500000000000000000000000010002100039393704182300000000002            2  01393937041825041800000001351320000000001N110418000000000000000000000000000000000000000000000000000000000000000100039393790850NAIRON RICARDO DE ARAUJO SANTOS         RUA MONTE CASTELO - 262 AP.23 - AVIACAO             11702720                                                            000137
2SR. CAIXA, APOS O VENCIMENTO COBRAR 10% DE MULTA                                NAO RECEBER APOS 30 DIAS DO VENCIMENTO.                                                                                                                                                                                                         11041800000000000001104180000000000000       0090770900066125393937041823000138
100000000000000000000009077090006612500000000000000000000000010002100041896804181600000000002            2  01418968041825041800000001967990000000001N110418000000000000000000000000000000000000000000000000000000000000000100041896807968SERGIO ROBERTO DA SILVA                 RUA DOS INGLESES - 542 AP.61 - MORRO DOS            01329000                                                            000140
2SR. CAIXA, APOS O VENCIMENTO COBRAR 10% DE MULTA                                NAO RECEBER APOS 30 DIAS DO VENCIMENTO.                                                                                                                                                                                                         11041800000000000001104180000000000000       0090770900066125418968041816000141
100000000000000000000009077090006612500000000000000000000000010002100088137304181400000000002            2  01881373041825041800000001784500000000001N110418000000000000000000000000000000000000000000000000000000000000000100088137384804ANA LUCIA DA SILVA                      RUA DOUTOR EPAMINONDAS BARRA - 147 - VIL            04438100                                                            000143
2SR. CAIXA, APOS O VENCIMENTO COBRAR 10% DE MULTA                                NAO RECEBER APOS 30 DIAS DO VENCIMENTO.                                                                                                                                                                                                         11041800000000000001104180000000000000       0090770900066125881373041814000144
9                                                                                                                                                                                                                                                                                                                                                                                                         000145