01REMESSA01COBRANCA       00000000000008017025HB SANTOS CONSTRUTORA E INCORP237BRADESCO       011217        MX0000044                                                                                                                                                                                                                                                                                     000001
100000000000000000000009033990000627000000000000000000000000010002020029671512171800000000002            2  01296715121709121700000002180560000000001N011217000000000000000000000000000000000000000000000000000000000000000100029671526845ROGERIO CONSENTINO                      RUA CARLOS MAZER  - 678 - VILA CARMOSINA            08290700                                                            000002
2SR. CAIXA, APOS O VENCIMENTO COBRAR 2% DE MULTA                                 NAO RECEBER APOS 30 DIAS DO VENCIMENTO.                                                                                                                                                                                                         01121700000000000000112170000000000000       0090339900006270296715121718000003
100000000000000000000009033990000627000000000000000000000000010002020003863012171P00000000002            2  01038630121709121700000002059710000000001N011217000000000000000000000000000000000000000000000000000000000000000100003863075803HERALDO MENQUINI                        RUA OCEANICA AMABILE - 346 AP.415 - CIDA            11704420                                                            000005
2SR. CAIXA, APOS O VENCIMENTO COBRAR 2% DE MULTA                                 NAO RECEBER APOS 30 DIAS DO VENCIMENTO.                                                                                                                                                                                                         01121700000000000000112170000000000000       009033990000627003863012171P000006
100000000000000000000009033990000627000000000000000000000000010002020013135212171100000000002            2  01131352121709121700000002519180000000001N011217000000000000000000000000000000000000000000000000000000000000000100013135261859EDUARDO ZANOLA                          RUA ROLANDO PIETRO BONINI - 46 - JARDIM             09781040                                                            000008
2SR. CAIXA, APOS O VENCIMENTO COBRAR 2% DE MULTA                                 NAO RECEBER APOS 30 DIAS DO VENCIMENTO.                                                                                                                                                                                                         01121700000000000000112170000000000000       0090339900006270131352121711000009
100000000000000000000009033990000627000000000000000000000000010002020029028412171700000000002            2  01290284121709121700000002109980000000001N011217000000000000000000000000000000000000000000000000000000000000000100029028478825LEONARDO LOUZADA                        RUA ILHEUS - QUADRA 31 - 244 - BAIRRO CE            19274000                                                            000011
2SR. CAIXA, APOS O VENCIMENTO COBRAR 2% DE MULTA                                 NAO RECEBER APOS 30 DIAS DO VENCIMENTO.                                                                                                                                                                                                         01121700000000000000112170000000000000       0090339900006270290284121717000012
100000000000000000000009033990000627000000000000000000000000010002020032878512171400000000002            2  01328785121709121700000003049340000000001N011217000000000000000000000000000000000000000000000000000000000000000100032878512847LEONARDO MOURA MONIZ CALDEIRA           RUA BALSA - 682 AP.134 T.02 - VILA ARCAD            02910000                                                            000014
2SR. CAIXA, APOS O VENCIMENTO COBRAR 2% DE MULTA                                 NAO RECEBER APOS 30 DIAS DO VENCIMENTO.                                                                                                                                                                                                         01121700000000000000112170000000000000       0090339900006270328785121714000015
100000000000000000000009033990000627000000000000000000000000010002020016479012171100000000002            2  01164790121709121700000003243930000000001N011217000000000000000000000000000000000000000000000000000000000000000100016479002806LOURDES PEREIRA DE QUEIROZ SECANECHIA   RUA PAULINO CURSI - 437 - CIDADE SAO MAT            03960060                                                            000017
2SR. CAIXA, APOS O VENCIMENTO COBRAR 2% DE MULTA                                 NAO RECEBER APOS 30 DIAS DO VENCIMENTO.                                                                                                                                                                                                         01121700000000000000112170000000000000       0090339900006270164790121711000018
100000000000000000000009033990000627000000000000000000000000010002020019635012171900000000002            2  01196350121709121700000002393450000000001N011217000000000000000000000000000000000000000000000000000000000000000100019635091885IVAN VIEIRA SILVA                       ABRAO JORGE - 3001 - JARDIM INTEGRACAO -            14405397                                                            000020
2SR. CAIXA, APOS O VENCIMENTO COBRAR 2% DE MULTA                                 NAO RECEBER APOS 30 DIAS DO VENCIMENTO.                                                                                                                                                                                                         01121700000000000000112170000000000000       0090339900006270196350121719000021
100000000000000000000009033990000627000000000000000000000000010002020009361412171900000000002            2  01093614121709121700000002355110000000001N011217000000000000000000000000000000000000000000000000000000000000000100009361471805JOSE BARBOSA DA SILVA                   RUA ALFREDO INACIO TRINDADE  - 60 AP.44             02344100                                                            000023
2SR. CAIXA, APOS O VENCIMENTO COBRAR 2% DE MULTA                                 NAO RECEBER APOS 30 DIAS DO VENCIMENTO.                                                                                                                                                                                                         01121700000000000000112170000000000000       0090339900006270093614121719000024
100000000000000000000009033990000627000000000000000000000000010002020012756912171200000000002            2  01127569121709121700000002032960000000001N011217000000000000000000000000000000000000000000000000000000000000000100012756959812ITAMAR JUVENAL DIAS DA SILVA            RUA ELISEU REINALDO MORAES VIEIRA - 90 A            02858000                                                            000026
2SR. CAIXA, APOS O VENCIMENTO COBRAR 2% DE MULTA                                 NAO RECEBER APOS 30 DIAS DO VENCIMENTO.                                                                                                                                                                                                         01121700000000000000112170000000000000       0090339900006270127569121712000027
100000000000000000000009033990000627000000000000000000000000010002020002731012171P00000000002            2  01027310121709121700000002403510000000001N011217000000000000000000000000000000000000000000000000000000000000000100002731042842VALTER CERQUEIRA VILLA NOVA             RUA MACHADO - 106 - VILA AUGUSTA - GUARU            07025210                                                            000029
2SR. CAIXA, APOS O VENCIMENTO COBRAR 2% DE MULTA                                 NAO RECEBER APOS 30 DIAS DO VENCIMENTO.                                                                                                                                                                                                         01121700000000000000112170000000000000       009033990000627002731012171P000030
100000000000000000000009033990000627000000000000000000000000010002020002731012172800000000002            2  01027310121709121700000002403510000000001N011217000000000000000000000000000000000000000000000000000000000000000100002731042842VALTER CERQUEIRA VILLA NOVA             RUA MACHADO - 106 - VILA AUGUSTA - GUARU            07025210                                                            000032
2SR. CAIXA, APOS O VENCIMENTO COBRAR 2% DE MULTA                                 NAO RECEBER APOS 30 DIAS DO VENCIMENTO.                                                                                                                                                                                                         01121700000000000000112170000000000000       0090339900006270027310121728000033
100000000000000000000009033990000627000000000000000000000000010002020028802112171800000000002            2  01288021121709121700000002170340000000001N011217000000000000000000000000000000000000000000000000000000000000000100028802158894ELIEL HENRIQUE ZUZA                     RUA MONTE CASTELO - 262 AP.14 - BAIRRO A            11702720                                                            000035
2SR. CAIXA, APOS O VENCIMENTO COBRAR 2% DE MULTA                                 NAO RECEBER APOS 30 DIAS DO VENCIMENTO.                                                                                                                                                                                                         01121700000000000000112170000000000000       0090339900006270288021121718000036
100000000000000000000009033990000627000000000000000000000000010002020008739112171100000000002            2  01087391121709121700000002029810000000001N011217000000000000000000000000000000000000000000000000000000000000000100008739150895VANGEVALDO BATISTA SANT ANNA            TRAVESSA TOMAZIN - 02 - ERMELINO MATARAZ            03811125                                                            000038
2SR. CAIXA, APOS O VENCIMENTO COBRAR 2% DE MULTA                                 NAO RECEBER APOS 30 DIAS DO VENCIMENTO.                                                                                                                                                                                                         01121700000000000000112170000000000000       0090339900006270087391121711000039
100000000000000000000009033990000627000000000000000000000000010002020005313712171800000000002            2  01053137121711121700000001811940000000001N011217000000000000000000000000000000000000000000000000000000000000000100005313717863EDIMICIO JOSE DE ARAUJO                 PRACA NICOLAU GERAIGIRE - 680 CA A - JAR            11095110                                                            000041
2SR. CAIXA, APOS O VENCIMENTO COBRAR 2% DE MULTA                                 NAO RECEBER APOS 30 DIAS DO VENCIMENTO.                                                                                                                                                                                                         01121700000000000000112170000000000000       0090339900006270053137121718000042
100000000000000000000009033990000627000000000000000000000000010002020029433612171600000000002            2  01294336121711121700000001740660000000001N011217000000000000000000000000000000000000000000000000000000000000000100029433631897MARIO MUNIZ                             RUA LIBERO BADARO - 1115 - BAIRRO CIDADE            11704070                                                            000044
2SR. CAIXA, APOS O VENCIMENTO COBRAR 2% DE MULTA                                 NAO RECEBER APOS 30 DIAS DO VENCIMENTO.                                                                                                                                                                                                         01121700000000000000112170000000000000       0090339900006270294336121716000045
100000000000000000000009033990000627000000000000000000000000010002020001847212171400000000002            2  01018472121711121700000001602520000000001N011217000000000000000000000000000000000000000000000000000000000000000100001847204864AMERICA CONCEICAO DA SILVA              RUA CAMINHO DO GUARAMAR - 199 AP.11 BLOC            11721050                                                            000047
2SR. CAIXA, APOS O VENCIMENTO COBRAR 2% DE MULTA                                 NAO RECEBER APOS 30 DIAS DO VENCIMENTO.                                                                                                                                                                                                         01121700000000000000112170000000000000       0090339900006270018472121714000048
100000000000000000000009033990000627000000000000000000000000010002020005029812171900000000002            2  01050298121709121700000002072740000000001N011217000000000000000000000000000000000000000000000000000000000000000100005029828885LAURINETE DA CONCEICAO DE NORONHA       RUA MARIA LUCIA DE TOLEDO LEITE MORAES -            04434040                                                            000050
2SR. CAIXA, APOS O VENCIMENTO COBRAR 2% DE MULTA                                 NAO RECEBER APOS 30 DIAS DO VENCIMENTO.                                                                                                                                                                                                         01121700000000000000112170000000000000       0090339900006270050298121719000051
100000000000000000000009033990000627000000000000000000000000010002020027682112171800000000002            2  01276821121711121700000001689390000000001N011217000000000000000000000000000000000000000000000000000000000000000100027682175818ALINE TEIXEIRA                          RUA CRUZEIRO DO SUL - 309 - JARDIM BOM P            06385060                                                            000053
2SR. CAIXA, APOS O VENCIMENTO COBRAR 2% DE MULTA                                 NAO RECEBER APOS 30 DIAS DO VENCIMENTO.                                                                                                                                                                                                         01121700000000000000112170000000000000       0090339900006270276821121718000054
100000000000000000000009033990000627000000000000000000000000010002020013388912171000000000002            2  01133889121711121700000001696880000000001N011217000000000000000000000000000000000000000000000000000000000000000100013388936889NEUTON DE SOUZA RAMOS                   RUA MARIA CRISTINA - 932 - JARDIM CASQUE            11533160                                                            000056
2SR. CAIXA, APOS O VENCIMENTO COBRAR 2% DE MULTA                                 NAO RECEBER APOS 30 DIAS DO VENCIMENTO.                                                                                                                                                                                                         01121700000000000000112170000000000000       0090339900006270133889121710000057
100000000000000000000009033990000627000000000000000000000000010002020012774912171000000000002            2  01127749121711121700000001728720000000001N011217000000000000000000000000000000000000000000000000000000000000000100012774906865JOSE MILTON SANTIAGO                    RUA BATATAIS - 47 - CIDADE ESTELA - POA             08563140                                                            000059
2SR. CAIXA, APOS O VENCIMENTO COBRAR 2% DE MULTA                                 NAO RECEBER APOS 30 DIAS DO VENCIMENTO.                                                                                                                                                                                                         01121700000000000000112170000000000000       0090339900006270127749121710000060
100000000000000000000009033990000627000000000000000000000000010002020004234912171600000000002            2  01042349121709121700000003020510000000001N011217000000000000000000000000000000000000000000000000000000000000000100004234989835LUIZ ISRAEL DA COSTA                    AVENIDA FERNANDO PACHECO JORDAO - 907 -             08121510                                                            000062
2SR. CAIXA, APOS O VENCIMENTO COBRAR 2% DE MULTA                                 NAO RECEBER APOS 30 DIAS DO VENCIMENTO.                                                                                                                                                                                                         01121700000000000000112170000000000000       0090339900006270042349121716000063
100000000000000000000009033990000627000000000000000000000000010002020016294112171600000000002            2  01162941121709121700000002057880000000001N011217000000000000000000000000000000000000000000000000000000000000000100016294119812JURACY FELIX DE ARRUDA                  RUA ERNA - 13 - ALTO DA MOOCA - SAO PAUL            03165050                                                            000065
2SR. CAIXA, APOS O VENCIMENTO COBRAR 2% DE MULTA                                 NAO RECEBER APOS 30 DIAS DO VENCIMENTO.                                                                                                                                                                                                         01121700000000000000112170000000000000       0090339900006270162941121716000066
100000000000000000000009033990000627000000000000000000000000010002020005613812171000000000002            2  01056138121711121700000001589960000000001N011217000000000000000000000000000000000000000000000000000000000000000100005613843805NILZA MARIA DE OLIVEIRA                 RUA JOSE GONCALVES DE FREITAS - 66 C2 -             08210550                                                            000068
2SR. CAIXA, APOS O VENCIMENTO COBRAR 2% DE MULTA                                 NAO RECEBER APOS 30 DIAS DO VENCIMENTO.                                                                                                                                                                                                         01121700000000000000112170000000000000       0090339900006270056138121710000069
100000000000000000000009033990000627000000000000000000000000010002020007574912171000000000002            2  01075749121711121700000001632060000000001N011217000000000000000000000000000000000000000000000000000000000000000100007574936889JORGE LUCIANO PEREIRA BORRIELLO         RUA FABIO DE ALMEIDA MAGALHAES - 179 - J            05135370                                                            000071
2SR. CAIXA, APOS O VENCIMENTO COBRAR 2% DE MULTA                                 NAO RECEBER APOS 30 DIAS DO VENCIMENTO.                                                                                                                                                                                                         01121700000000000000112170000000000000       0090339900006270075749121710000072
100000000000000000000009033990000627000000000000000000000000010002020032408112171300000000002            2  01324081121711121700000001538680000000001N011217000000000000000000000000000000000000000000000000000000000000000100032408151848DEILSON DO NASCIMENTO CANDIDO DA SILVA  RUA HEREMITA SANTA DO NASCIMENTO - 37 AP            11345340                                                            000074
2SR. CAIXA, APOS O VENCIMENTO COBRAR 2% DE MULTA                                 NAO RECEBER APOS 30 DIAS DO VENCIMENTO.                                                                                                                                                                                                         01121700000000000000112170000000000000       0090339900006270324081121713000075
100000000000000000000009033990000627000000000000000000000000010002020008214912171300000000002            2  01082149121711121700000001656820000000001N011217000000000000000000000000000000000000000000000000000000000000000100008214973830JAMIL CHALA                             AVENIDA COSTA MACHADO - 291 AP.133-A - C            11700650                                                            000077
2SR. CAIXA, APOS O VENCIMENTO COBRAR 2% DE MULTA                                 NAO RECEBER APOS 30 DIAS DO VENCIMENTO.                                                                                                                                                                                                         01121700000000000000112170000000000000       0090339900006270082149121713000078
100000000000000000000009033990000627000000000000000000000000010002020032495012171000000000002            2  01324950121711121700000001856680000000001N011217000000000000000000000000000000000000000000000000000000000000000100032495004881PAULO EDUARDO DOS SANTOS                RUA REPUBLICA DO IRAQUE - 1119 - CAMPO B            04611002                                                            000080
2SR. CAIXA, APOS O VENCIMENTO COBRAR 2% DE MULTA                                 NAO RECEBER APOS 30 DIAS DO VENCIMENTO.                                                                                                                                                                                                         01121700000000000000112170000000000000       0090339900006270324950121710000081
100000000000000000000009033990000627000000000000000000000000010002020006471812171000000000002            2  01064718121709121700000002026040000000001N011217000000000000000000000000000000000000000000000000000000000000000100006471825803JOSIVALDO BASTOS DE OLIVEIRA            RUA MARIA DIAS HOG - 263 - PARQUE CONTIN            07085035                                                            000083
2SR. CAIXA, APOS O VENCIMENTO COBRAR 2% DE MULTA                                 NAO RECEBER APOS 30 DIAS DO VENCIMENTO.                                                                                                                                                                                                         01121700000000000000112170000000000000       0090339900006270064718121710000084
100000000000000000000009033990000627000000000000000000000000010002020038856812171700000000002            2  01388568121711121700000001721180000000001N011217000000000000000000000000000000000000000000000000000000000000000100038856851830FELIPE BIANCHI DA COSTA FREITAS         AVENIDA ENGENHEIRO ARMANDO DE ARRUDA PER            04325001                                                            000086
2SR. CAIXA, APOS O VENCIMENTO COBRAR 2% DE MULTA                                 NAO RECEBER APOS 30 DIAS DO VENCIMENTO.                                                                                                                                                                                                         01121700000000000000112170000000000000       0090339900006270388568121717000087
100000000000000000000009033990000627000000000000000000000000010002020030098612171000000000002            2  01300986121711121700000001748180000000001N011217000000000000000000000000000000000000000000000000000000000000000100030098603825DEUZIANA MOREIRA DE SA                  RUA JOAO AVELINO PINHO MELLAO - 114 - JA            05659010                                                            000089
2SR. CAIXA, APOS O VENCIMENTO COBRAR 2% DE MULTA                                 NAO RECEBER APOS 30 DIAS DO VENCIMENTO.                                                                                                                                                                                                         01121700000000000000112170000000000000       0090339900006270300986121710000090
100000000000000000000009033990000627000000000000000000000000010002020030098612172900000000002            2  01300986121711121700000001748180000000001N011217000000000000000000000000000000000000000000000000000000000000000100030098603825DEUZIANA MOREIRA DE SA                  RUA JOAO AVELINO PINHO MELLAO - 114 - JA            05659010                                                            000092
2SR. CAIXA, APOS O VENCIMENTO COBRAR 2% DE MULTA                                 NAO RECEBER APOS 30 DIAS DO VENCIMENTO.                                                                                                                                                                                                         01121700000000000000112170000000000000       0090339900006270300986121729000093
100000000000000000000009033990000627000000000000000000000000010002020029339012171700000000002            2  01293390121711121700000001741240000000001N011217000000000000000000000000000000000000000000000000000000000000000100029339051831RONALD DIDOFF                           RUA CORONEL FERREIRA BRAGA - 188 - VILA             03522010                                                            000095
2SR. CAIXA, APOS O VENCIMENTO COBRAR 2% DE MULTA                                 NAO RECEBER APOS 30 DIAS DO VENCIMENTO.                                                                                                                                                                                                         01121700000000000000112170000000000000       0090339900006270293390121717000096
100000000000000000000009033990000627000000000000000000000000010002020017357812171900000000002            2  01173578121711121700000001844130000000001N011217000000000000000000000000000000000000000000000000000000000000000100017357859894MARCIO GUIMARAES                        RUA GENERAL CAMARA - 188 SALA 11 - CENTR            11010120                                                            000098
2SR. CAIXA, APOS O VENCIMENTO COBRAR 2% DE MULTA                                 NAO RECEBER APOS 30 DIAS DO VENCIMENTO.                                                                                                                                                                                                         01121700000000000000112170000000000000       0090339900006270173578121719000099
100000000000000000000009033990000627000000000000000000000000010002020010563012171900000000002            2  01105630121711121700000001891270000000001N011217000000000000000000000000000000000000000000000000000000000000000100010563033878VERA LUCIA RIBEIRO LONGANEZI            RUA DOS CAMARES - 150 AP.24 BL.02 - CARA            02068030                                                            000101
2SR. CAIXA, APOS O VENCIMENTO COBRAR 2% DE MULTA                                 NAO RECEBER APOS 30 DIAS DO VENCIMENTO.                                                                                                                                                                                                         01121700000000000000112170000000000000       0090339900006270105630121719000102
100000000000000000000009033990000627000000000000000000000000010002020005529612171300000000002            2  01055296121711121700000001716250000000001N011217000000000000000000000000000000000000000000000000000000000000000100005529616801JOAQUIM JORGE DA COSTA                  RUA CONEGO XAVIER - 13 - SACOMA - SAO PA            04231030                                                            000104
2SR. CAIXA, APOS O VENCIMENTO COBRAR 2% DE MULTA                                 NAO RECEBER APOS 30 DIAS DO VENCIMENTO.                                                                                                                                                                                                         01121700000000000000112170000000000000       0090339900006270055296121713000105
100000000000000000000009033990000627000000000000000000000000010002020022014112171800000000002            2  01220141121711121700000001711250000000001N011217000000000000000000000000000000000000000000000000000000000000000100022014140847CAMILA SILVEIRA CANIZARES               AVENIDA PRESIDENTE CASTELO BRANCO - 5.74            11703650                                                            000107
2SR. CAIXA, APOS O VENCIMENTO COBRAR 2% DE MULTA                                 NAO RECEBER APOS 30 DIAS DO VENCIMENTO.                                                                                                                                                                                                         01121700000000000000112170000000000000       0090339900006270220141121718000108
9                                                                                                                                                                                                                                                                                                                                                                                                         000109