01REMESSA01COBRANCA       00000000000008017025HB SANTOS CONSTRUTORA E INCORP237BRADESCO       010319        MX0000074                                                                                                                                                                                                                                                                                     000001
100000000000000000000009033990000627000000000000000000000000010002020029671503191300000000002            2  01296715031909031900000002421060000000001N010319000000000000000000000000000000000000000000000000000000000000000100029671526845ROGERIO CONSENTINO                      RUA CARLOS MAZER  - 678 - VILA CARMOSINA            08290700                                                            000002
2SR. CAIXA, APOS O VENCIMENTO COBRAR 2% DE MULTA                                 NAO RECEBER APOS 30 DIAS DO VENCIMENTO.                                                                                                                                                                                                         01031900000000000000103190000000000000       0090339900006270296715031913000003
100000000000000000000009033990000627000000000000000000000000010002020003863003191500000000002            2  01038630031909031900000002286900000000001N010319000000000000000000000000000000000000000000000000000000000000000100003863075803HERALDO MENQUINI                        RUA CARLOS JOSE BORSTENS - 50 AP.15 - AV            11702750                                                            000005
2SR. CAIXA, APOS O VENCIMENTO COBRAR 2% DE MULTA                                 NAO RECEBER APOS 30 DIAS DO VENCIMENTO.                                                                                                                                                                                                         01031900000000000000103190000000000000       0090339900006270038630031915000006
100000000000000000000009033990000627000000000000000000000000010002020029028403191200000000002            2  01290284031909031900000002342700000000001N010319000000000000000000000000000000000000000000000000000000000000000100029028478825LEONARDO LOUZADA                        RUA ILHEUS - QUADRA 31 - 244 - BAIRRO CE            19274000                                                            000008
2SR. CAIXA, APOS O VENCIMENTO COBRAR 2% DE MULTA                                 NAO RECEBER APOS 30 DIAS DO VENCIMENTO.                                                                                                                                                                                                         01031900000000000000103190000000000000       0090339900006270290284031912000009
100000000000000000000009033990000627000000000000000000000000010002020032878503191P00000000002            2  01328785031909031900000003385660000000001N010319000000000000000000000000000000000000000000000000000000000000000100032878512847LEONARDO MOURA MONIZ CALDEIRA           RUA BALSA - 682 AP.134 T.02 - VILA ARCAD            02910000                                                            000011
2SR. CAIXA, APOS O VENCIMENTO COBRAR 2% DE MULTA                                 NAO RECEBER APOS 30 DIAS DO VENCIMENTO.                                                                                                                                                                                                         01031900000000000000103190000000000000       009033990000627032878503191P000012
100000000000000000000009033990000627000000000000000000000000010002020016479003191700000000002            2  01164790031909031900000003601730000000001N010319000000000000000000000000000000000000000000000000000000000000000100016479002806LOURDES PEREIRA DE QUEIROZ SECANECHIA   RUA PAULINO CURSI - 437 - CIDADE SAO MAT            03960060                                                            000014
2SR. CAIXA, APOS O VENCIMENTO COBRAR 2% DE MULTA                                 NAO RECEBER APOS 30 DIAS DO VENCIMENTO.                                                                                                                                                                                                         01031900000000000000103190000000000000       0090339900006270164790031917000015
100000000000000000000009033990000627000000000000000000000000010002020019635003191400000000002            2  01196350031909031900000002657450000000001N010319000000000000000000000000000000000000000000000000000000000000000100019635091885IVAN VIEIRA SILVA                       ABRAO JORGE - 3001 - JARDIM INTEGRACAO -            14405397                                                            000017
2SR. CAIXA, APOS O VENCIMENTO COBRAR 2% DE MULTA                                 NAO RECEBER APOS 30 DIAS DO VENCIMENTO.                                                                                                                                                                                                         01031900000000000000103190000000000000       0090339900006270196350031914000018
100000000000000000000009033990000627000000000000000000000000010002020009361403191400000000002            2  01093614031909031900000002614860000000001N010319000000000000000000000000000000000000000000000000000000000000000100009361471805JOSE BARBOSA DA SILVA                   RUA ALFREDO INACIO TRINDADE  - 60 AP.44             02344100                                                            000020
2SR. CAIXA, APOS O VENCIMENTO COBRAR 2% DE MULTA                                 NAO RECEBER APOS 30 DIAS DO VENCIMENTO.                                                                                                                                                                                                         01031900000000000000103190000000000000       0090339900006270093614031914000021
100000000000000000000009033990000627000000000000000000000000010002020012756903191800000000002            2  01127569031909031900000002257200000000001N010319000000000000000000000000000000000000000000000000000000000000000100012756959812ITAMAR JUVENAL DIAS DA SILVA            RUA ELISEU REINALDO MORAES VIEIRA - 90 A            02858000                                                            000023
2SR. CAIXA, APOS O VENCIMENTO COBRAR 2% DE MULTA                                 NAO RECEBER APOS 30 DIAS DO VENCIMENTO.                                                                                                                                                                                                         01031900000000000000103190000000000000       0090339900006270127569031918000024
100000000000000000000009033990000627000000000000000000000000010002020002731003191500000000002            2  01027310031909031900000002668620000000001N010319000000000000000000000000000000000000000000000000000000000000000100002731042842VALTER CERQUEIRA VILLA NOVA             RUA MACHADO - 106 - VILA AUGUSTA - GUARU            07025210                                                            000026
2SR. CAIXA, APOS O VENCIMENTO COBRAR 2% DE MULTA                                 NAO RECEBER APOS 30 DIAS DO VENCIMENTO.                                                                                                                                                                                                         01031900000000000000103190000000000000       0090339900006270027310031915000027
100000000000000000000009033990000627000000000000000000000000010002020002731003192300000000002            2  01027310031909031900000002668620000000001N010319000000000000000000000000000000000000000000000000000000000000000100002731042842VALTER CERQUEIRA VILLA NOVA             RUA MACHADO - 106 - VILA AUGUSTA - GUARU            07025210                                                            000029
2SR. CAIXA, APOS O VENCIMENTO COBRAR 2% DE MULTA                                 NAO RECEBER APOS 30 DIAS DO VENCIMENTO.                                                                                                                                                                                                         01031900000000000000103190000000000000       0090339900006270027310031923000030
100000000000000000000009033990000627000000000000000000000000010002020028802103191300000000002            2  01288021031909031900000002409710000000001N010319000000000000000000000000000000000000000000000000000000000000000100028802158894ELIEL HENRIQUE ZUZA                     RUA CARLOS JOSE BORSTENS - 50 AP.43 - BA            11702750                                                            000032
2SR. CAIXA, APOS O VENCIMENTO COBRAR 2% DE MULTA                                 NAO RECEBER APOS 30 DIAS DO VENCIMENTO.                                                                                                                                                                                                         01031900000000000000103190000000000000       0090339900006270288021031913000033
100000000000000000000009033990000627000000000000000000000000010002020008739103191700000000002            2  01087391031909031900000002253680000000001N010319000000000000000000000000000000000000000000000000000000000000000100008739150895VANGEVALDO BATISTA SANT ANNA            TRAVESSA TOMAZIN - 02 - ERMELINO MATARAZ            03811125                                                            000035
2SR. CAIXA, APOS O VENCIMENTO COBRAR 2% DE MULTA                                 NAO RECEBER APOS 30 DIAS DO VENCIMENTO.                                                                                                                                                                                                         01031900000000000000103190000000000000       0090339900006270087391031917000036
100000000000000000000009033990000627000000000000000000000000010002020005313703191300000000002            2  01053137031911031900000001952700000000001N010319000000000000000000000000000000000000000000000000000000000000000100005313717863EDIMICIO JOSE DE ARAUJO                 PRACA NICOLAU GERAIGIRE - 680 CA A - JAR            11095110                                                            000038
2SR. CAIXA, APOS O VENCIMENTO COBRAR 2% DE MULTA                                 NAO RECEBER APOS 30 DIAS DO VENCIMENTO.                                                                                                                                                                                                         01031900000000000000103190000000000000       0090339900006270053137031913000039
100000000000000000000009033990000627000000000000000000000000010002020029433603191100000000002            2  01294336031911031900000033765970000000001N010319000000000000000000000000000000000000000000000000000000000000000100029433631897MARIO MUNIZ                             RUA LIBERO BADARO - 1115 - BAIRRO CIDADE            11704070                                                            000041
2SR. CAIXA, APOS O VENCIMENTO COBRAR 2% DE MULTA                                 NAO RECEBER APOS 30 DIAS DO VENCIMENTO.                                                                                                                                                                                                         01031900000000000000103190000000000000       0090339900006270294336031911000042
100000000000000000000009033990000627000000000000000000000000010002020029433603192P00000000002            2  01294336031911031900000001875870000000001N010319000000000000000000000000000000000000000000000000000000000000000100029433631897MARIO MUNIZ                             RUA LIBERO BADARO - 1115 - BAIRRO CIDADE            11704070                                                            000044
2SR. CAIXA, APOS O VENCIMENTO COBRAR 2% DE MULTA                                 NAO RECEBER APOS 30 DIAS DO VENCIMENTO.                                                                                                                                                                                                         01031900000000000000103190000000000000       009033990000627029433603192P000045
100000000000000000000009033990000627000000000000000000000000010002020001847203191P00000000002            2  01018472031911031900000001726990000000001N010319000000000000000000000000000000000000000000000000000000000000000100001847204864AMERICA CONCEICAO DA SILVA              RUA CAMINHO DO GUARAMAR - 199 AP.11 BLOC            11721050                                                            000047
2SR. CAIXA, APOS O VENCIMENTO COBRAR 2% DE MULTA                                 NAO RECEBER APOS 30 DIAS DO VENCIMENTO.                                                                                                                                                                                                         01031900000000000000103190000000000000       009033990000627001847203191P000048
100000000000000000000009033990000627000000000000000000000000010002020005029803191400000000002            2  01050298031909031900000002301360000000001N010319000000000000000000000000000000000000000000000000000000000000000100005029828885LAURINETE DA CONCEICAO DE NORONHA       RUA MARIA LUCIA DE TOLEDO LEITE MORAES -            04434040                                                            000050
2SR. CAIXA, APOS O VENCIMENTO COBRAR 2% DE MULTA                                 NAO RECEBER APOS 30 DIAS DO VENCIMENTO.                                                                                                                                                                                                         01031900000000000000103190000000000000       0090339900006270050298031914000051
100000000000000000000009033990000627000000000000000000000000010002020022313103191400000000002            2  01223131031911031900000034860510000000001N010319000000000000000000000000000000000000000000000000000000000000000100022313116824ROSA MARIA BRITO DA SILVA               RUA SERVIDAO DE SAO MARCOS - 113 - JARDI            04930300                                                            000053
2SR. CAIXA, APOS O VENCIMENTO COBRAR 2% DE MULTA                                 NAO RECEBER APOS 30 DIAS DO VENCIMENTO.                                                                                                                                                                                                         01031900000000000000103190000000000000       0090339900006270223131031914000054
100000000000000000000009033990000627000000000000000000000000010002020019185703191400000000002            2  01191857031911031900000030761300000000001N010319000000000000000000000000000000000000000000000000000000000000000100019185769800AGUINALDO PESSOA DE LIMA                RUA JANUARIO ZINGARO - 252 AP.303 BL.04             05794300                                                            000056
2SR. CAIXA, APOS O VENCIMENTO COBRAR 2% DE MULTA                                 NAO RECEBER APOS 30 DIAS DO VENCIMENTO.                                                                                                                                                                                                         01031900000000000000103190000000000000       0090339900006270191857031914000057
100000000000000000000009033990000627000000000000000000000000010002020027682103191300000000002            2  01276821031911031900000032771600000000001N010319000000000000000000000000000000000000000000000000000000000000000100027682175818ALINE TEIXEIRA                          RUA CRUZEIRO DO SUL - 309 - JARDIM BOM P            06385060                                                            000059
2SR. CAIXA, APOS O VENCIMENTO COBRAR 2% DE MULTA                                 NAO RECEBER APOS 30 DIAS DO VENCIMENTO.                                                                                                                                                                                                         01031900000000000000103190000000000000       0090339900006270276821031913000060
100000000000000000000009033990000627000000000000000000000000010002020027682103192100000000002            2  01276821031911031900000001820620000000001N010319000000000000000000000000000000000000000000000000000000000000000100027682175818ALINE TEIXEIRA                          RUA CRUZEIRO DO SUL - 309 - JARDIM BOM P            06385060                                                            000062
2SR. CAIXA, APOS O VENCIMENTO COBRAR 2% DE MULTA                                 NAO RECEBER APOS 30 DIAS DO VENCIMENTO.                                                                                                                                                                                                         01031900000000000000103190000000000000       0090339900006270276821031921000063
100000000000000000000009033990000627000000000000000000000000010002020033303603191500000000002            2  01333036031911031900000034877420000000001N010319000000000000000000000000000000000000000000000000000000000000000100033303645809JESSICA DA SILVA FREITAS                RUA ARILDO VALADAO - 120 - JARDIM GUAEMB            04814600                                                            000065
2SR. CAIXA, APOS O VENCIMENTO COBRAR 2% DE MULTA                                 NAO RECEBER APOS 30 DIAS DO VENCIMENTO.                                                                                                                                                                                                         01031900000000000000103190000000000000       0090339900006270333036031915000066
100000000000000000000009033990000627000000000000000000000000010002020004824403191400000000002            2  01048244031911031900000032627230000000001N010319000000000000000000000000000000000000000000000000000000000000000100004824443806ROSIMEIRE CLARA FERREIRA REZENDE        RUA JOAQUIM DE OLIVEIRA FREITAS - 912 AP            05133000                                                            000068
2SR. CAIXA, APOS O VENCIMENTO COBRAR 2% DE MULTA                                 NAO RECEBER APOS 30 DIAS DO VENCIMENTO.                                                                                                                                                                                                         01031900000000000000103190000000000000       0090339900006270048244031914000069
100000000000000000000009033990000627000000000000000000000000010002020033877103191200000000002            2  01338771031911031900000001831870000000001N010319000000000000000000000000000000000000000000000000000000000000000100033877129870HELDER FERREIRA VIANA                   RUA TUPI - 254 - VILA TUPI - PRAIA GRAND            11703260                                                            000071
2SR. CAIXA, APOS O VENCIMENTO COBRAR 2% DE MULTA                                 NAO RECEBER APOS 30 DIAS DO VENCIMENTO.                                                                                                                                                                                                         01031900000000000000103190000000000000       0090339900006270338771031912000072
100000000000000000000009033990000627000000000000000000000000010002020013388903191600000000002            2  01133889031911031900000001828700000000001N010319000000000000000000000000000000000000000000000000000000000000000100013388936889NEUTON DE SOUZA RAMOS                   RUA MARIA CRISTINA - 932 - JARDIM CASQUE            11533160                                                            000074
2SR. CAIXA, APOS O VENCIMENTO COBRAR 2% DE MULTA                                 NAO RECEBER APOS 30 DIAS DO VENCIMENTO.                                                                                                                                                                                                         01031900000000000000103190000000000000       0090339900006270133889031916000075
100000000000000000000009033990000627000000000000000000000000010002020012774903191600000000002            2  01127749031911031900000001863020000000001N010319000000000000000000000000000000000000000000000000000000000000000100012774906865JOSE MILTON SANTIAGO                    RUA BATATAIS - 47 - CIDADE ESTELA - POA             08563140                                                            000077
2SR. CAIXA, APOS O VENCIMENTO COBRAR 2% DE MULTA                                 NAO RECEBER APOS 30 DIAS DO VENCIMENTO.                                                                                                                                                                                                         01031900000000000000103190000000000000       0090339900006270127749031916000078
100000000000000000000009033990000627000000000000000000000000010002020016294103191100000000002            2  01162941031909031900000002284850000000001N010319000000000000000000000000000000000000000000000000000000000000000100016294119812JURACY FELIX DE ARRUDA                  RUA CARLOS JOSE BORSTENS - 50 AP.23 - AV            11702750                                                            000080
2SR. CAIXA, APOS O VENCIMENTO COBRAR 2% DE MULTA                                 NAO RECEBER APOS 30 DIAS DO VENCIMENTO.                                                                                                                                                                                                         01031900000000000000103190000000000000       0090339900006270162941031911000081
100000000000000000000009033990000627000000000000000000000000010002020087573003191100000000002            2  01875730031911031900000034716570000000001N010319000000000000000000000000000000000000000000000000000000000000000100087573059604VANDERLEY DE ASSIS                      RUA ROMEU ALBANI - 268 - JARDIM PARQUE R            13803810                                                            000083
2SR. CAIXA, APOS O VENCIMENTO COBRAR 2% DE MULTA                                 NAO RECEBER APOS 30 DIAS DO VENCIMENTO.                                                                                                                                                                                                         01031900000000000000103190000000000000       0090339900006270875730031911000084
100000000000000000000009033990000627000000000000000000000000010002020005613803191600000000002            2  01056138031911031900000010108540000000001N010319000000000000000000000000000000000000000000000000000000000000000100005613843805NILZA MARIA DE OLIVEIRA                 RUA JOSE GONCALVES DE FREITAS - 66 C2 -             08210550                                                            000086
2SR. CAIXA, APOS O VENCIMENTO COBRAR 2% DE MULTA                                 NAO RECEBER APOS 30 DIAS DO VENCIMENTO.                                                                                                                                                                                                         01031900000000000000103190000000000000       0090339900006270056138031916000087
100000000000000000000009033990000627000000000000000000000000010002020005613803192400000000002            2  01056138031911031900000001713460000000001N010319000000000000000000000000000000000000000000000000000000000000000100005613843805NILZA MARIA DE OLIVEIRA                 RUA JOSE GONCALVES DE FREITAS - 66 C2 -             08210550                                                            000089
2SR. CAIXA, APOS O VENCIMENTO COBRAR 2% DE MULTA                                 NAO RECEBER APOS 30 DIAS DO VENCIMENTO.                                                                                                                                                                                                         01031900000000000000103190000000000000       0090339900006270056138031924000090
100000000000000000000009033990000627000000000000000000000000010002020007574903191600000000002            2  01075749031911031900000001758830000000001N010319000000000000000000000000000000000000000000000000000000000000000100007574936889JORGE LUCIANO PEREIRA BORRIELLO         RUA FABIO DE ALMEIDA MAGALHAES - 179 - J            05135370                                                            000092
2SR. CAIXA, APOS O VENCIMENTO COBRAR 2% DE MULTA                                 NAO RECEBER APOS 30 DIAS DO VENCIMENTO.                                                                                                                                                                                                         01031900000000000000103190000000000000       0090339900006270075749031916000093
100000000000000000000009033990000627000000000000000000000000010002020032408103191900000000002            2  01324081031911031900000001658230000000001N010319000000000000000000000000000000000000000000000000000000000000000100032408151848DEILSON DO NASCIMENTO CANDIDO DA SILVA  RUA HEREMITA SANTA DO NASCIMENTO - 37 AP            11345340                                                            000095
2SR. CAIXA, APOS O VENCIMENTO COBRAR 2% DE MULTA                                 NAO RECEBER APOS 30 DIAS DO VENCIMENTO.                                                                                                                                                                                                         01031900000000000000103190000000000000       0090339900006270324081031919000096
100000000000000000000009033990000627000000000000000000000000010002020039115103191000000000002            2  01391151031911031900000033467680000000001N010319000000000000000000000000000000000000000000000000000000000000000100039115139840LAIS CRISTINA RIBEIRO ANDO              RUA PERU - 769 AP.17 - VILA GUILHERMINA             11702250                                                            000098
2SR. CAIXA, APOS O VENCIMENTO COBRAR 2% DE MULTA                                 NAO RECEBER APOS 30 DIAS DO VENCIMENTO.                                                                                                                                                                                                         01031900000000000000103190000000000000       0090339900006270391151031910000099
100000000000000000000009033990000627000000000000000000000000010002020008214903191900000000002            2  01082149031911031900000001785530000000001N010319000000000000000000000000000000000000000000000000000000000000000100008214973830JAMIL CHALA                             AVENIDA COSTA MACHADO - 291 AP.133-A - C            11700650                                                            000101
2SR. CAIXA, APOS O VENCIMENTO COBRAR 2% DE MULTA                                 NAO RECEBER APOS 30 DIAS DO VENCIMENTO.                                                                                                                                                                                                         01031900000000000000103190000000000000       0090339900006270082149031919000102
100000000000000000000009033990000627000000000000000000000000010002020032495003191600000000002            2  01324950031911031900000036016310000000001N010319000000000000000000000000000000000000000000000000000000000000000100032495004881PAULO EDUARDO DOS SANTOS                RUA REPUBLICA DO IRAQUE - 1119 - CAMPO B            04611002                                                            000104
2SR. CAIXA, APOS O VENCIMENTO COBRAR 2% DE MULTA                                 NAO RECEBER APOS 30 DIAS DO VENCIMENTO.                                                                                                                                                                                                         01031900000000000000103190000000000000       0090339900006270324950031916000105
100000000000000000000009033990000627000000000000000000000000010002020032495003192400000000002            2  01324950031911031900000002000920000000001N010319000000000000000000000000000000000000000000000000000000000000000100032495004881PAULO EDUARDO DOS SANTOS                RUA REPUBLICA DO IRAQUE - 1119 - CAMPO B            04611002                                                            000107
2SR. CAIXA, APOS O VENCIMENTO COBRAR 2% DE MULTA                                 NAO RECEBER APOS 30 DIAS DO VENCIMENTO.                                                                                                                                                                                                         01031900000000000000103190000000000000       0090339900006270324950031924000108
100000000000000000000009033990000627000000000000000000000000010002020006471803191600000000002            2  01064718031909031900000002249490000000001N010319000000000000000000000000000000000000000000000000000000000000000100006471825803JOSIVALDO BASTOS DE OLIVEIRA            RUA MARIA DIAS HOG - 263 - PARQUE CONTIN            07085035                                                            000110
2SR. CAIXA, APOS O VENCIMENTO COBRAR 2% DE MULTA                                 NAO RECEBER APOS 30 DIAS DO VENCIMENTO.                                                                                                                                                                                                         01031900000000000000103190000000000000       0090339900006270064718031916000111
100000000000000000000009033990000627000000000000000000000000010002020038856803191200000000002            2  01388568031911031900000001854900000000001N010319000000000000000000000000000000000000000000000000000000000000000100038856851830FELIPE BIANCHI DA COSTA FREITAS         AVENIDA ENGENHEIRO ARMANDO DE ARRUDA PER            04325001                                                            000113
2SR. CAIXA, APOS O VENCIMENTO COBRAR 2% DE MULTA                                 NAO RECEBER APOS 30 DIAS DO VENCIMENTO.                                                                                                                                                                                                         01031900000000000000103190000000000000       0090339900006270388568031912000114
100000000000000000000009033990000627000000000000000000000000010002020016498003191300000000002            2  01164980031911031900000001754840000000001N010319000000000000000000000000000000000000000000000000000000000000000100016498053810GILMA CEZARIO GARCIA CORRITORI          RUA LAURENTINO XAVIER DOS SANTOS - 336 -            08240740                                                            000116
2SR. CAIXA, APOS O VENCIMENTO COBRAR 2% DE MULTA                                 NAO RECEBER APOS 30 DIAS DO VENCIMENTO.                                                                                                                                                                                                         01031900000000000000103190000000000000       0090339900006270164980031913000117
100000000000000000000009033990000627000000000000000000000000010002020029339003191200000000002            2  01293390031911031900000040273990000000001N010319000000000000000000000000000000000000000000000000000000000000000100029339051831RONALD DIDOFF                           RUA CORONEL FERREIRA BRAGA - 188 - VILA             03522010                                                            000119
2SR. CAIXA, APOS O VENCIMENTO COBRAR 2% DE MULTA                                 NAO RECEBER APOS 30 DIAS DO VENCIMENTO.                                                                                                                                                                                                         01031900000000000000103190000000000000       0090339900006270293390031912000120
100000000000000000000009033990000627000000000000000000000000010002020029339003192000000000002            2  01293390031911031900000001876520000000001N010319000000000000000000000000000000000000000000000000000000000000000100029339051831RONALD DIDOFF                           RUA CORONEL FERREIRA BRAGA - 188 - VILA             03522010                                                            000122
2SR. CAIXA, APOS O VENCIMENTO COBRAR 2% DE MULTA                                 NAO RECEBER APOS 30 DIAS DO VENCIMENTO.                                                                                                                                                                                                         01031900000000000000103190000000000000       0090339900006270293390031920000123
100000000000000000000009033990000627000000000000000000000000010002020017357803191400000000002            2  01173578031911031900000025672860000000001N010319000000000000000000000000000000000000000000000000000000000000000100017357859894MARCIO GUIMARAES                        RUA GENERAL CAMARA - 188 SALA 11 - CENTR            11010120                                                            000125
2SR. CAIXA, APOS O VENCIMENTO COBRAR 2% DE MULTA                                 NAO RECEBER APOS 30 DIAS DO VENCIMENTO.                                                                                                                                                                                                         01031900000000000000103190000000000000       0090339900006270173578031914000126
100000000000000000000009033990000627000000000000000000000000010002020017357803192200000000002            2  01173578031911031900000001987390000000001N010319000000000000000000000000000000000000000000000000000000000000000100017357859894MARCIO GUIMARAES                        RUA GENERAL CAMARA - 188 SALA 11 - CENTR            11010120                                                            000128
2SR. CAIXA, APOS O VENCIMENTO COBRAR 2% DE MULTA                                 NAO RECEBER APOS 30 DIAS DO VENCIMENTO.                                                                                                                                                                                                         01031900000000000000103190000000000000       0090339900006270173578031922000129
100000000000000000000009033990000627000000000000000000000000010002020010563003191400000000002            2  01105630031911031900000036687430000000001N010319000000000000000000000000000000000000000000000000000000000000000100010563033878VERA LUCIA RIBEIRO LONGANEZI            RUA DOS CAMARES - 150 AP.24 BL.02 - CARA            02068030                                                            000131
2SR. CAIXA, APOS O VENCIMENTO COBRAR 2% DE MULTA                                 NAO RECEBER APOS 30 DIAS DO VENCIMENTO.                                                                                                                                                                                                         01031900000000000000103190000000000000       0090339900006270105630031914000132
100000000000000000000009033990000627000000000000000000000000010002020010563003192200000000002            2  01105630031911031900000002038190000000001N010319000000000000000000000000000000000000000000000000000000000000000100010563033878VERA LUCIA RIBEIRO LONGANEZI            RUA DOS CAMARES - 150 AP.24 BL.02 - CARA            02068030                                                            000134
2SR. CAIXA, APOS O VENCIMENTO COBRAR 2% DE MULTA                                 NAO RECEBER APOS 30 DIAS DO VENCIMENTO.                                                                                                                                                                                                         01031900000000000000103190000000000000       0090339900006270105630031922000135
100000000000000000000009033990000627000000000000000000000000010002020005529603191900000000002            2  01055296031911031900000034003030000000001N010319000000000000000000000000000000000000000000000000000000000000000100005529616801JOAQUIM JORGE DA COSTA                  RUA CONEGO XAVIER - 13 - SACOMA - SAO PA            04231030                                                            000137
2SR. CAIXA, APOS O VENCIMENTO COBRAR 2% DE MULTA                                 NAO RECEBER APOS 30 DIAS DO VENCIMENTO.                                                                                                                                                                                                         01031900000000000000103190000000000000       0090339900006270055296031919000138
100000000000000000000009033990000627000000000000000000000000010002020005529603192700000000002            2  01055296031911031900000001849580000000001N010319000000000000000000000000000000000000000000000000000000000000000100005529616801JOAQUIM JORGE DA COSTA                  RUA CONEGO XAVIER - 13 - SACOMA - SAO PA            04231030                                                            000140
2SR. CAIXA, APOS O VENCIMENTO COBRAR 2% DE MULTA                                 NAO RECEBER APOS 30 DIAS DO VENCIMENTO.                                                                                                                                                                                                         01031900000000000000103190000000000000       0090339900006270055296031927000141
100000000000000000000009033990000627000000000000000000000000010002020022014103191300000000002            2  01220141031911031900000023146140000000001N010319000000000000000000000000000000000000000000000000000000000000000100022014140847CAMILA SILVEIRA CANIZARES               AVENIDA PRESIDENTE CASTELO BRANCO - 5.74            11703650                                                            000143
2SR. CAIXA, APOS O VENCIMENTO COBRAR 2% DE MULTA                                 NAO RECEBER APOS 30 DIAS DO VENCIMENTO.                                                                                                                                                                                                         01031900000000000000103190000000000000       0090339900006270220141031913000144
100000000000000000000009033990000627000000000000000000000000010002020022014103192100000000002            2  01220141031911031900000001844190000000001N010319000000000000000000000000000000000000000000000000000000000000000100022014140847CAMILA SILVEIRA CANIZARES               AVENIDA PRESIDENTE CASTELO BRANCO - 5.74            11703650                                                            000146
2SR. CAIXA, APOS O VENCIMENTO COBRAR 2% DE MULTA                                 NAO RECEBER APOS 30 DIAS DO VENCIMENTO.                                                                                                                                                                                                         01031900000000000000103190000000000000       0090339900006270220141031921000147
100000000000000000000009033990000627000000000000000000000000010002020036881703191900000000002            2  01368817031911031900000031643610000000001N010319000000000000000000000000000000000000000000000000000000000000000100036881778864ANDRE GONZALEZ RABELLO                  RUA PARAIBA - 106 AP.61 - POMPEIA - SANT            11065470                                                            000149
2SR. CAIXA, APOS O VENCIMENTO COBRAR 2% DE MULTA                                 NAO RECEBER APOS 30 DIAS DO VENCIMENTO.                                                                                                                                                                                                         01031900000000000000103190000000000000       0090339900006270368817031919000150
100000000000000000000009033990000627000000000000000000000000010002020015550703191500000000002            2  01155507031909031900000001744420000000001N010319000000000000000000000000000000000000000000000000000000000000000100015550706806MARY MIWA                               RUA CARLOS JOSE BORSTENS - 50 AP.105 - A            11702750                                                            000152
2SR. CAIXA, APOS O VENCIMENTO COBRAR 2% DE MULTA                                 NAO RECEBER APOS 30 DIAS DO VENCIMENTO.                                                                                                                                                                                                         01031900000000000000103190000000000000       0090339900006270155507031915000153
100000000000000000000009033990000627000000000000000000000000010002020015464603191500000000002            2  01154646031911031900000001944340000000001N010319000000000000000000000000000000000000000000000000000000000000000100015464647864SONIA TERESA VOLPATO                    RUA PEDRO BADRA - 51 AP.73 - JABAQUARA -            04348090                                                            000155
2SR. CAIXA, APOS O VENCIMENTO COBRAR 2% DE MULTA                                 NAO RECEBER APOS 30 DIAS DO VENCIMENTO.                                                                                                                                                                                                         01031900000000000000103190000000000000       0090339900006270154646031915000156
100000000000000000000009033990000627000000000000000000000000010002020008657803191400000000002            2  01086578031911031900000001924830000000001N010319000000000000000000000000000000000000000000000000000000000000000100008657886855ARLINDO DA CRUZ                         AVENIDA ARICANDUVA - 8.256 AP.54 BL.10 -            03951220                                                            000158
2SR. CAIXA, APOS O VENCIMENTO COBRAR 2% DE MULTA                                 NAO RECEBER APOS 30 DIAS DO VENCIMENTO.                                                                                                                                                                                                         01031900000000000000103190000000000000       0090339900006270086578031914000159
100000000000000000000009033990000627000000000000000000000000010002020004265703191400000000002            2  01042657031909031900000002570360000000001N010319000000000000000000000000000000000000000000000000000000000000000100004265781713ALEXANDRE CASADO COSTA                  RUA CARLOS JOSE BORSTENS - 50 AP.33 - AV            11702750                                                            000161
2SR. CAIXA, APOS O VENCIMENTO COBRAR 2% DE MULTA                                 NAO RECEBER APOS 30 DIAS DO VENCIMENTO.                                                                                                                                                                                                         01031900000000000000103190000000000000       0090339900006270042657031914000162
100000000000000000000009033990000627000000000000000000000000010002020059735103191200000000002            2  01597351031909031900000001085660000000001N010319000000000000000000000000000000000000000000000000000000000000000100059735180863HELIO JOSE MARQUES                      RUA MARTIM AFONSO DE SOUZA - 1007 AP.102            11702790                                                            000164
2SR. CAIXA, APOS O VENCIMENTO COBRAR 2% DE MULTA                                 NAO RECEBER APOS 30 DIAS DO VENCIMENTO.                                                                                                                                                                                                         01031900000000000000103190000000000000       0090339900006270597351031912000165
100000000000000000000009033990000627000000000000000000000000010002020037983403191600000000002            2  01379834031911031900000040022160000000001N010319000000000000000000000000000000000000000000000000000000000000000100037983484801JOSE ERIVALDO SOUZA DO NASCIMENTO RAMOS RUA LETICIA - 250 - JARDIM GUARUJA - SAO            05877260                                                            000167
2SR. CAIXA, APOS O VENCIMENTO COBRAR 2% DE MULTA                                 NAO RECEBER APOS 30 DIAS DO VENCIMENTO.                                                                                                                                                                                                         01031900000000000000103190000000000000       0090339900006270379834031916000168
100000000000000000000009033990000627000000000000000000000000010002020026347803191600000000002            2  01263478031911031900000042319220000000001N010319000000000000000000000000000000000000000000000000000000000000000100026347872862VALDECI SILVA MEIRELES                  RUA JOSE BATISTA DA SILVA - 292 - JARDIM            06851470                                                            000170
2SR. CAIXA, APOS O VENCIMENTO COBRAR 2% DE MULTA                                 NAO RECEBER APOS 30 DIAS DO VENCIMENTO.                                                                                                                                                                                                         01031900000000000000103190000000000000       0090339900006270263478031916000171
100000000000000000000009033990000627000000000000000000000000010002020026347803192400000000002            2  01263478031911031900000002057600000000001N010319000000000000000000000000000000000000000000000000000000000000000100026347872862VALDECI SILVA MEIRELES                  RUA JOSE BATISTA DA SILVA - 292 - JARDIM            06851470                                                            000173
2SR. CAIXA, APOS O VENCIMENTO COBRAR 2% DE MULTA                                 NAO RECEBER APOS 30 DIAS DO VENCIMENTO.                                                                                                                                                                                                         01031900000000000000103190000000000000       0090339900006270263478031924000174
100000000000000000000009033990000627000000000000000000000000010002020025443603191700000000002            2  01254436031909031900000003718160000000001N010319000000000000000000000000000000000000000000000000000000000000000100025443691830SILVANETE PEREIRA CARNELOS              RUA CARLOS JOSE BORSTENS - 50 AP.102 - A            11702750                                                            000176
2SR. CAIXA, APOS O VENCIMENTO COBRAR 2% DE MULTA                                 NAO RECEBER APOS 30 DIAS DO VENCIMENTO.                                                                                                                                                                                                         01031900000000000000103190000000000000       0090339900006270254436031917000177
100000000000000000000009033990000627000000000000000000000000010002020056289203191700000000002            2  01562892031911031900000044025040000000001N010319000000000000000000000000000000000000000000000000000000000000000100056289286900PEDRO RIBEIRO                           RUA CONEGO MANOEL VAZ - 48 - SANTANA - S            02019050                                                            000179
2SR. CAIXA, APOS O VENCIMENTO COBRAR 2% DE MULTA                                 NAO RECEBER APOS 30 DIAS DO VENCIMENTO.                                                                                                                                                                                                         01031900000000000000103190000000000000       0090339900006270562892031917000180
100000000000000000000009033990000627000000000000000000000000010002020013135203191700000000002            2  01131352031911031900000001890430000000001N010319000000000000000000000000000000000000000000000000000000000000000100013135261859EDUARDO ZANOLA                          RUA ROLANDO PIETRO BONINI - 46 - JARDIM             09781040                                                            000182
2SR. CAIXA, APOS O VENCIMENTO COBRAR 2% DE MULTA                                 NAO RECEBER APOS 30 DIAS DO VENCIMENTO.                                                                                                                                                                                                         01031900000000000000103190000000000000       0090339900006270131352031917000183
100000000000000000000009033990000627000000000000000000000000010002020009797603191800000000002            2  01097976031911031900000001841070000000001N010319000000000000000000000000000000000000000000000000000000000000000100009797626857RICARDO SOBRAL DE OLIVEIRA              RUA 23 DE MAIO - 139 AP.32 - VILA MIRIM             11704690                                                            000185
2SR. CAIXA, APOS O VENCIMENTO COBRAR 2% DE MULTA                                 NAO RECEBER APOS 30 DIAS DO VENCIMENTO.                                                                                                                                                                                                         01031900000000000000103190000000000000       0090339900006270097976031918000186
100000000000000000000009033990000627000000000000000000000000010002020034735303191300000000002            2  01347353031911031900000043830770000000001N010319000000000000000000000000000000000000000000000000000000000000000100034735328866DIEGO FELIPE MOLINA DA SILVA E SOUSA    RUA EMILIA PAULISTA - 135 - VILA TIRADEN            05364020                                                            000188
2SR. CAIXA, APOS O VENCIMENTO COBRAR 2% DE MULTA                                 NAO RECEBER APOS 30 DIAS DO VENCIMENTO.                                                                                                                                                                                                         01031900000000000000103190000000000000       0090339900006270347353031913000189
100000000000000000000009033990000627000000000000000000000000010002020004767603191900000000002            2  01047676031909031900000003140380000000001N010319000000000000000000000000000000000000000000000000000000000000000100004767679893ORLANDO GRANDE FILHO                    RUA ORLANDO MIGLIARI - 101 - JARDIM OURO            19906140                                                            000191
2SR. CAIXA, APOS O VENCIMENTO COBRAR 2% DE MULTA                                 NAO RECEBER APOS 30 DIAS DO VENCIMENTO.                                                                                                                                                                                                         01031900000000000000103190000000000000       0090339900006270047676031919000192
100000000000000000000009033990000627000000000000000000000000010002020006512503191600000000002            2  01065125031911031900000051007530000000001N010319000000000000000000000000000000000000000000000000000000000000000100006512547870MARIA DO CARMO FAGUNDES DOS REIS        RUA CARLOS MALCHER - 98 - PARQUE EDU CHA            02232020                                                            000194
2SR. CAIXA, APOS O VENCIMENTO COBRAR 2% DE MULTA                                 NAO RECEBER APOS 30 DIAS DO VENCIMENTO.                                                                                                                                                                                                         01031900000000000000103190000000000000       0090339900006270065125031916000195
100000000000000000000009033990000627000000000000000000000000010002020006512503192400000000002            2  01065125031911031900000001656130000000001N010319000000000000000000000000000000000000000000000000000000000000000100006512547870MARIA DO CARMO FAGUNDES DOS REIS        RUA CARLOS MALCHER - 98 - PARQUE EDU CHA            02232020                                                            000197
2SR. CAIXA, APOS O VENCIMENTO COBRAR 2% DE MULTA                                 NAO RECEBER APOS 30 DIAS DO VENCIMENTO.                                                                                                                                                                                                         01031900000000000000103190000000000000       0090339900006270065125031924000198
100000000000000000000009033990000627000000000000000000000000010002020022728403191900000000002            2  01227284031911031900000044176790000000001N010319000000000000000000000000000000000000000000000000000000000000000100022728497842WILLIAN DE SOUZA MELLO                  RUA PEDRO AMERICO - 208 AP.42 BL.B - CAM            11075401                                                            000200
2SR. CAIXA, APOS O VENCIMENTO COBRAR 2% DE MULTA                                 NAO RECEBER APOS 30 DIAS DO VENCIMENTO.                                                                                                                                                                                                         01031900000000000000103190000000000000       0090339900006270227284031919000201
100000000000000000000009033990000627000000000000000000000000010002020022728403192700000000002            2  01227284031911031900000001992150000000001N010319000000000000000000000000000000000000000000000000000000000000000100022728497842WILLIAN DE SOUZA MELLO                  RUA PEDRO AMERICO - 208 AP.42 BL.B - CAM            11075401                                                            000203
2SR. CAIXA, APOS O VENCIMENTO COBRAR 2% DE MULTA                                 NAO RECEBER APOS 30 DIAS DO VENCIMENTO.                                                                                                                                                                                                         01031900000000000000103190000000000000       0090339900006270227284031927000204
9                                                                                                                                                                                                                                                                                                                                                                                                         000205