01REMESSA01COBRANCA       00000000000005331186HB SANTOS CONSTRUTORA E INCORP237BRADESCO       030222        MX0000042                                                                                                                                                                                                                                                                                     000001
100000000000000000000009033990000995400000000000000000000000010002020005723202221800000000002            2  01057232022223022200000002645560000000001N020222000000000000000000000000000000000000000000000000000000000000000100005723255843FRANCISCO DE ASSIS DA SILVA             PRACA NICOLAU GERAIGIRE - 25 VISOR - JAR            11095110                                                            000002
2SR. CAIXA, APOS O VENCIMENTO COBRAR 2% DE MULTA                                 NAO RECEBER APOS 30 DIAS DO VENCIMENTO.                                                                                                                                                                                                         03022200000000000000302220000000000000       0090339900009954057232022218000003
100000000000000000000009033990000995400000000000000000000000010002020004928102221200000000002            2  01049281022223022200000002587160000000001N020222000000000000000000000000000000000000000000000000000000000000000100004928157800ADEMIR APARECIDO ANTUNES                RUA URUGUAI - 89 AP.105 - JARDIM GUILHER            11702300                                                            000005
2SR. CAIXA, APOS O VENCIMENTO COBRAR 2% DE MULTA                                 NAO RECEBER APOS 30 DIAS DO VENCIMENTO.                                                                                                                                                                                                         03022200000000000000302220000000000000       0090339900009954049281022212000006
100000000000000000000009033990000995400000000000000000000000010002020011238002221P00000000002            2  01112380022223022200000002553610000000001N020222000000000000000000000000000000000000000000000000000000000000000100011238052886SOLANGE DIAS DE SOUZA ROMANO            AVENIDA DR. ALTINO ARANTES - 865 AP.132             04042034                                                            000008
2SR. CAIXA, APOS O VENCIMENTO COBRAR 2% DE MULTA                                 NAO RECEBER APOS 30 DIAS DO VENCIMENTO.                                                                                                                                                                                                         03022200000000000000302220000000000000       009033990000995411238002221P000009
100000000000000000000009033990000995400000000000000000000000010002020032589102221100000000002            2  01325891022223022200000002503270000000001N020222000000000000000000000000000000000000000000000000000000000000000100032589165862RENATA ISABEL MARTINS SILVA             RUA HERCULANO DE FREITAS - 257 - FUNDACA            09520280                                                            000011
2SR. CAIXA, APOS O VENCIMENTO COBRAR 2% DE MULTA                                 NAO RECEBER APOS 30 DIAS DO VENCIMENTO.                                                                                                                                                                                                         03022200000000000000302220000000000000       0090339900009954325891022211000012
100000000000000000000009033990000995400000000000000000000000010002020088339302221500000000002            2  01883393022223022200000002530390000000001N020222000000000000000000000000000000000000000000000000000000000000000100088339319868MARCIA SIQUEIRA MELLO                   RUA ADELINO ALVES - 81 - SANTO AMARO - S            04710120                                                            000014
2SR. CAIXA, APOS O VENCIMENTO COBRAR 2% DE MULTA                                 NAO RECEBER APOS 30 DIAS DO VENCIMENTO.                                                                                                                                                                                                         03022200000000000000302220000000000000       0090339900009954883393022215000015
100000000000000000000009033990000995400000000000000000000000010002020046391202221000000000002            2  01463912022223022200000002624920000000001N020222000000000000000000000000000000000000000000000000000000000000000100046391265810PAMELLA RODRIGUES DE OLIVEIRA           RUA AUGUSTA - 183 AP.301 BL.2A - VILA AU            07025130                                                            000017
2SR. CAIXA, APOS O VENCIMENTO COBRAR 2% DE MULTA                                 NAO RECEBER APOS 30 DIAS DO VENCIMENTO.                                                                                                                                                                                                         03022200000000000000302220000000000000       0090339900009954463912022210000018
100000000000000000000009033990000995400000000000000000000000010002020027964502221900000000002            2  01279645022223022200000002608140000000001N020222000000000000000000000000000000000000000000000000000000000000000100027964512838FABIO TADEU DE CAMPOS RADZIAVICIUS      AV.PROF.LUIZ IGNACIO ANHAIA MELLO - 2.58            03154100                                                            000020
2SR. CAIXA, APOS O VENCIMENTO COBRAR 2% DE MULTA                                 NAO RECEBER APOS 30 DIAS DO VENCIMENTO.                                                                                                                                                                                                         03022200000000000000302220000000000000       0090339900009954279645022219000021
100000000000000000000009033990000995400000000000000000000000010002020011498302221700000000002            2  01114983022223022200000001954050000000001N020222000000000000000000000000000000000000000000000000000000000000000100011498329837GERSON GERALDO DAS NEVES                RUA DOMINGOS DELGADO - 144 - VILA SOUZA             02881070                                                            000023
2SR. CAIXA, APOS O VENCIMENTO COBRAR 2% DE MULTA                                 NAO RECEBER APOS 30 DIAS DO VENCIMENTO.                                                                                                                                                                                                         03022200000000000000302220000000000000       0090339900009954114983022217000024
100000000000000000000009033990000995400000000000000000000000010002020000884202221900000000002            2  01008842022223022200000002380090000000001N020222000000000000000000000000000000000000000000000000000000000000000100000884239802ADEMIR MARTINS                          RUA CAIRO - 221 - VILA METALURGICA - SAN            09220170                                                            000026
2SR. CAIXA, APOS O VENCIMENTO COBRAR 2% DE MULTA                                 NAO RECEBER APOS 30 DIAS DO VENCIMENTO.                                                                                                                                                                                                         03022200000000000000302220000000000000       0090339900009954008842022219000027
100000000000000000000009033990000995400000000000000000000000010002020025214402221300000000002            2  01252144022223022200000002312980000000001N020222000000000000000000000000000000000000000000000000000000000000000100025214401833JOSE MAURICIO DOS SANTOS RODRIGUES      RUA JOAO DE MACEDO RIBEIRO - 49 - VILA N            08111101                                                            000029
2SR. CAIXA, APOS O VENCIMENTO COBRAR 2% DE MULTA                                 NAO RECEBER APOS 30 DIAS DO VENCIMENTO.                                                                                                                                                                                                         03022200000000000000302220000000000000       0090339900009954252144022213000030
100000000000000000000009033990000995400000000000000000000000010002020033119102221000000000002            2  01331191022223022200000002322780000000001N020222000000000000000000000000000000000000000000000000000000000000000100033119178802HUGO GOMES VENDRAME                     RUA SAO PAULO - 60 CASA 01 - VILA FREITA            06380110                                                            000032
2SR. CAIXA, APOS O VENCIMENTO COBRAR 2% DE MULTA                                 NAO RECEBER APOS 30 DIAS DO VENCIMENTO.                                                                                                                                                                                                         03022200000000000000302220000000000000       0090339900009954331191022210000033
100000000000000000000009033990000995400000000000000000000000010002020016631502221300000000002            2  01166315022223022200000002363310000000001N020222000000000000000000000000000000000000000000000000000000000000000100016631587468GILBERTO BEZERRA DA SILVA               AVENIDA JAIME TORRES - 745 CASA 3 - JARD            03670000                                                            000035
2SR. CAIXA, APOS O VENCIMENTO COBRAR 2% DE MULTA                                 NAO RECEBER APOS 30 DIAS DO VENCIMENTO.                                                                                                                                                                                                         03022200000000000000302220000000000000       0090339900009954166315022213000036
100000000000000000000009033990000995400000000000000000000000010002020007313202221600000000002            2  01073132022223022200000002346530000000001N020222000000000000000000000000000000000000000000000000000000000000000100007313251840SALVADOR GESUALDO PULVIRENTI            AVENIDA MARARI - 641 - VILA MARARI - SAO            04402010                                                            000038
2SR. CAIXA, APOS O VENCIMENTO COBRAR 2% DE MULTA                                 NAO RECEBER APOS 30 DIAS DO VENCIMENTO.                                                                                                                                                                                                         03022200000000000000302220000000000000       0090339900009954073132022216000039
100000000000000000000009033990000995400000000000000000000000010002020010676702221800000000002            2  01106767022223022200000002449220000000001N020222000000000000000000000000000000000000000000000000000000000000000100010676723896MERCEDES CRISTINA ROCHA SANDOVAL        RUA ITARARE - 446 AP.806 - JARDIM GUILHE            11701620                                                            000041
2SR. CAIXA, APOS O VENCIMENTO COBRAR 2% DE MULTA                                 NAO RECEBER APOS 30 DIAS DO VENCIMENTO.                                                                                                                                                                                                         03022200000000000000302220000000000000       0090339900009954106767022218000042
100000000000000000000009033990000995400000000000000000000000010002020009502802221600000000002            2  01095028022223022200000002557800000000001N020222000000000000000000000000000000000000000000000000000000000000000100009502844831CLAUDIA ROCHA SANDOVAL                  RUA ABAETE - 29.153 - VILA TUPI - PRAIA             11703490                                                            000044
2SR. CAIXA, APOS O VENCIMENTO COBRAR 2% DE MULTA                                 NAO RECEBER APOS 30 DIAS DO VENCIMENTO.                                                                                                                                                                                                         03022200000000000000302220000000000000       0090339900009954095028022216000045
100000000000000000000009033990000995400000000000000000000000010002020007594202221500000000002            2  01075942022223022200000002296200000000001N020222000000000000000000000000000000000000000000000000000000000000000100007594247809JOSE LUIS DE OLIVEIRA                   DONA EGLANTINA PENTEADO DA SILVA PRADO -            13044162                                                            000047
2SR. CAIXA, APOS O VENCIMENTO COBRAR 2% DE MULTA                                 NAO RECEBER APOS 30 DIAS DO VENCIMENTO.                                                                                                                                                                                                         03022200000000000000302220000000000000       0090339900009954075942022215000048
100000000000000000000009033990000995400000000000000000000000010002020005288702221900000000002            2  01052887022223022200000002365330000000001N020222000000000000000000000000000000000000000000000000000000000000000100005288796858MARCELO RODRIGUES FERREIRA              RUA MARCOS ANTONIO MARQUES - 302 - JARDI            06433020                                                            000050
2SR. CAIXA, APOS O VENCIMENTO COBRAR 2% DE MULTA                                 NAO RECEBER APOS 30 DIAS DO VENCIMENTO.                                                                                                                                                                                                         03022200000000000000302220000000000000       0090339900009954052887022219000051
100000000000000000000009033990000995400000000000000000000000010002020015835902221800000000002            2  01158359022223022200000002463150000000001N020222000000000000000000000000000000000000000000000000000000000000000100015835992823FLAVIO VERONEZ                          RUA ANDREA PAULINETTI - 127 AP.42 - BAIR            04707050                                                            000053
2SR. CAIXA, APOS O VENCIMENTO COBRAR 2% DE MULTA                                 NAO RECEBER APOS 30 DIAS DO VENCIMENTO.                                                                                                                                                                                                         03022200000000000000302220000000000000       0090339900009954158359022218000054
100000000000000000000009033990000995400000000000000000000000010002020000438102221600000000002            2  01004381022223022200000002780230000000001N020222000000000000000000000000000000000000000000000000000000000000000100000438161858WAGNECY VILLA NOVA LIEN                 MACHADO - 106 - VILA AUGUSTA - GUARULHOS            07025210                                                            000056
2SR. CAIXA, APOS O VENCIMENTO COBRAR 2% DE MULTA                                 NAO RECEBER APOS 30 DIAS DO VENCIMENTO.                                                                                                                                                                                                         03022200000000000000302220000000000000       0090339900009954004381022216000057
100000000000000000000009033990000995400000000000000000000000010002020026004502221200000000002            2  01260045022223022200000002463190000000001N020222000000000000000000000000000000000000000000000000000000000000000100026004595888EDIVALDO BEZERRA DA SILVA               AVENIDA GUATEMALA - 550 - JARDIM PINHEIR            09854750                                                            000059
2SR. CAIXA, APOS O VENCIMENTO COBRAR 2% DE MULTA                                 NAO RECEBER APOS 30 DIAS DO VENCIMENTO.                                                                                                                                                                                                         03022200000000000000302220000000000000       0090339900009954260045022212000060
100000000000000000000009033990000995400000000000000000000000010002020012470702221700000000002            2  01124707022223022200000002628040000000001N020222000000000000000000000000000000000000000000000000000000000000000100012470771870HILTON FERNANDES OLIVARES               RUA PATIO DA ESTACAO - 115 - BAIRRO CENT            09450000                                                            000062
2SR. CAIXA, APOS O VENCIMENTO COBRAR 2% DE MULTA                                 NAO RECEBER APOS 30 DIAS DO VENCIMENTO.                                                                                                                                                                                                         03022200000000000000302220000000000000       0090339900009954124707022217000063
100000000000000000000009033990000995400000000000000000000000010002020014025402221600000000002            2  01140254022223022200000002881590000000001N020222000000000000000000000000000000000000000000000000000000000000000100014025420899ANDREIA APARECIDA TAVARES BASTOS        RUA IBATIBA - 234 CASA 27 - RES.BOUGANVI            09220608                                                            000065
2SR. CAIXA, APOS O VENCIMENTO COBRAR 2% DE MULTA                                 NAO RECEBER APOS 30 DIAS DO VENCIMENTO.                                                                                                                                                                                                         03022200000000000000302220000000000000       0090339900009954140254022216000066
100000000000000000000009033990000995400000000000000000000000010002020018590002221500000000002            2  01185900022223022200000002609700000000001N020222000000000000000000000000000000000000000000000000000000000000000100018590038858JOSE SANDRO ROCHA SILVA                 RUA SANTO ANTONIO DO AVENTUREIRO - 216 A            07143040                                                            000068
2SR. CAIXA, APOS O VENCIMENTO COBRAR 2% DE MULTA                                 NAO RECEBER APOS 30 DIAS DO VENCIMENTO.                                                                                                                                                                                                         03022200000000000000302220000000000000       0090339900009954185900022215000069
100000000000000000000009033990000995400000000000000000000000010002020088578702221300000000002            2  01885787022223022200000002147390000000001N020222000000000000000000000000000000000000000000000000000000000000000100088578704800GILBERTO DO ESPIRITO SANTO SILVA        RUA GUARANY - 697 CASA 01 - PARQUE SAO V            11360000                                                            000071
2SR. CAIXA, APOS O VENCIMENTO COBRAR 2% DE MULTA                                 NAO RECEBER APOS 30 DIAS DO VENCIMENTO.                                                                                                                                                                                                         03022200000000000000302220000000000000       0090339900009954885787022213000072
100000000000000000000009033990000995400000000000000000000000010002020015378202221400000000002            2  01153782022223022200000003208840000000001N020222000000000000000000000000000000000000000000000000000000000000000100015378295807SERGIO FERNANDES                        RUA VALDEMAR MARTINS - 116 AP.115 - BAIR            02535000                                                            000074
2SR. CAIXA, APOS O VENCIMENTO COBRAR 2% DE MULTA                                 NAO RECEBER APOS 30 DIAS DO VENCIMENTO.                                                                                                                                                                                                         03022200000000000000302220000000000000       0090339900009954153782022214000075
100000000000000000000009033990000995400000000000000000000000010002020005105202221100000000002            2  01051052022223022200000002561030000000001N020222000000000000000000000000000000000000000000000000000000000000000100005105287835FABIO MOTTOLA DE OLIVEIRA               RUA RAUL MAZZONI - 133 - CHACARA AREAL -            13331022                                                            000077
2SR. CAIXA, APOS O VENCIMENTO COBRAR 2% DE MULTA                                 NAO RECEBER APOS 30 DIAS DO VENCIMENTO.                                                                                                                                                                                                         03022200000000000000302220000000000000       0090339900009954051052022211000078
100000000000000000000009033990000995400000000000000000000000010002020020792702221000000000002            2  01207927022223022200000002662540000000001N020222000000000000000000000000000000000000000000000000000000000000000120792791000147TROVAO COMERCIO DE ALIMENTOS LTDA-ME    RUA QUINTA DA MAGNOLIA - 67 - JARDIM IPA            03582100                                                            000080
2SR. CAIXA, APOS O VENCIMENTO COBRAR 2% DE MULTA                                 NAO RECEBER APOS 30 DIAS DO VENCIMENTO.                                                                                                                                                                                                         03022200000000000000302220000000000000       0090339900009954207927022210000081
100000000000000000000009033990000995400000000000000000000000010002020007648102221400000000002            2  01076481022223022200000002500170000000001N020222000000000000000000000000000000000000000000000000000000000000000100007648112825MARA REGINA CAPRIO                      RUA DA TRINDADE - 790 - VILA IDEAL - SAO            15060280                                                            000083
2SR. CAIXA, APOS O VENCIMENTO COBRAR 2% DE MULTA                                 NAO RECEBER APOS 30 DIAS DO VENCIMENTO.                                                                                                                                                                                                         03022200000000000000302220000000000000       0090339900009954076481022214000084
100000000000000000000009033990000995400000000000000000000000010002020031157402221300000000002            2  01311574022223022200000002684530000000001N020222000000000000000000000000000000000000000000000000000000000000000100031157420885TALITA ANICHIARICO COSSI                RUA CNEO POMPEO DE CAMARGO - 817 - JARDI            13060150                                                            000086
2SR. CAIXA, APOS O VENCIMENTO COBRAR 2% DE MULTA                                 NAO RECEBER APOS 30 DIAS DO VENCIMENTO.                                                                                                                                                                                                         03022200000000000000302220000000000000       0090339900009954311574022213000087
100000000000000000000009033990000995400000000000000000000000010002020035572502221800000000002            2  01355725022223022200000002854280000000001N020222000000000000000000000000000000000000000000000000000000000000000100035572536865MARIA SIMONE SANTOS                     RUA JOSE PEZZOLO - 68 - VILA ELDIZIA - S            09181660                                                            000089
2SR. CAIXA, APOS O VENCIMENTO COBRAR 2% DE MULTA                                 NAO RECEBER APOS 30 DIAS DO VENCIMENTO.                                                                                                                                                                                                         03022200000000000000302220000000000000       0090339900009954355725022218000090
100000000000000000000009033990000995400000000000000000000000010002020008800302221500000000002            2  01088003022223022200000002600630000000001N020222000000000000000000000000000000000000000000000000000000000000000100008800368425INGO DIMITRI PEREIRA DA NOBREGA         RUA PROFESSOR MENDES PIMENTEL - 362 - JA            03973010                                                            000092
2SR. CAIXA, APOS O VENCIMENTO COBRAR 2% DE MULTA                                 NAO RECEBER APOS 30 DIAS DO VENCIMENTO.                                                                                                                                                                                                         03022200000000000000302220000000000000       0090339900009954088003022215000093
100000000000000000000009033990000995400000000000000000000000010002020018312402221500000000002            2  01183124022223022200000009018310000000001N020222000000000000000000000000000000000000000000000000000000000000000100018312408827PAULO LUIZ FERREIRA                     AVENIDA MARCONDES SALGADO - 20 AP.26 B -            11702530                                                            000095
2SR. CAIXA, APOS O VENCIMENTO COBRAR 2% DE MULTA                                 NAO RECEBER APOS 30 DIAS DO VENCIMENTO.                                                                                                                                                                                                         03022200000000000000302220000000000000       0090339900009954183124022215000096
100000000000000000000009033990000995400000000000000000000000010002020005054102221P00000000002            2  01050541022223022200000002516740000000001N020222000000000000000000000000000000000000000000000000000000000000000100005054169806PAULO ROBERTO DE MATTOS                 JARDIM BOTANICO - 849 - DISTRITO DE SOUS            13106258                                                            000098
2SR. CAIXA, APOS O VENCIMENTO COBRAR 2% DE MULTA                                 NAO RECEBER APOS 30 DIAS DO VENCIMENTO.                                                                                                                                                                                                         03022200000000000000302220000000000000       009033990000995405054102221P000099
100000000000000000000009033990000995400000000000000000000000010002020007552102221600000000002            2  01075521022223022200000002516740000000001N020222000000000000000000000000000000000000000000000000000000000000000100007552151846MAURO BORDONI                           AVENIDA DR. AUGUSTO DE TOLEDO - 769 AP.6            09540080                                                            000101
2SR. CAIXA, APOS O VENCIMENTO COBRAR 2% DE MULTA                                 NAO RECEBER APOS 30 DIAS DO VENCIMENTO.                                                                                                                                                                                                         03022200000000000000302220000000000000       0090339900009954075521022216000102
100000000000000000000009033990000995400000000000000000000000010002020012744202221900000000002            2  01127442022223022200000002800260000000001N020222000000000000000000000000000000000000000000000000000000000000000100012744201804ADAIL JOSE DE SOUSA                     RUA ROSARIA - 303 - BAIRRO SACADURA CABR            09061080                                                            000104
2SR. CAIXA, APOS O VENCIMENTO COBRAR 2% DE MULTA                                 NAO RECEBER APOS 30 DIAS DO VENCIMENTO.                                                                                                                                                                                                         03022200000000000000302220000000000000       0090339900009954127442022219000105
9                                                                                                                                                                                                                                                                                                                                                                                                         000106