01REMESSA01COBRANCA       00000000000005316116AIRES CONSTRUTORA E INCORPORAD237BRADESCO       010623        MX0000219                                                                                                                                                                                                                                                                                     000001
100000000000000000000009002800441612000000000000000000000000010002100025215106231P00000000002            2  01252151062310062300000003314850000000001N010623000000000000000000000000000000000000000000000000000000000000000100025215106886KLEBER LUIZ DOS SANTOS                  RUA MONTE CASTELO - 262 AP.15 - AVIACAO             11702720                                                            000002
2SR. CAIXA, APOS O VENCIMENTO COBRAR 10% DE MULTA                                NAO RECEBER APOS 30 DIAS DO VENCIMENTO.                                                                                                                                                                                                         01062300000000000000106230000000000000       009002800441612025215106231P000003
100000000000000000000009002800441612000000000000000000000000010002100031803806231200000000002            2  01318038062310062300000003919860000000001N010623000000000000000000000000000000000000000000000000000000000000000100031803864877ELEILSON FELIPPE SANTOS                 RUA SANTA GREGORIA - 193 - CIDADE DUTRA             04806030                                                            000005
2SR. CAIXA, APOS O VENCIMENTO COBRAR 10% DE MULTA                                NAO RECEBER APOS 30 DIAS DO VENCIMENTO.                                                                                                                                                                                                         01062300000000000000106230000000000000       0090028004416120318038062312000006
100000000000000000000009002800441612000000000000000000000000010002100063064506231700000000002            2  01630645062310062300000004671210000000001N010623000000000000000000000000000000000000000000000000000000000000000100063064537849ANTONIO APARECIDO DA SILVA DESTEFANO    RUA PROFESSOR TEODORO BRAGA - 46 - VILA             02966020                                                            000008
2SR. CAIXA, APOS O VENCIMENTO COBRAR 10% DE MULTA                                NAO RECEBER APOS 30 DIAS DO VENCIMENTO.                                                                                                                                                                                                         01062300000000000000106230000000000000       0090028004416120630645062317000009
100000000000000000000009002800441612000000000000000000000000010002100005920506231600000000002            2  01059205062310062300000002719620000000001N010623000000000000000000000000000000000000000000000000000000000000000100005920579846SONIA MARIA VALDO POLLO                 RUA PALMIRA CERVI BARBARO - 797 - CIDADE            13214370                                                            000011
2SR. CAIXA, APOS O VENCIMENTO COBRAR 10% DE MULTA                                NAO RECEBER APOS 30 DIAS DO VENCIMENTO.                                                                                                                                                                                                         01062300000000000000106230000000000000       0090028004416120059205062316000012
100000000000000000000009002800441612000000000000000000000000010002100002494106231700000000002            2  01024941062310062300000004089050000000001N010623000000000000000000000000000000000000000000000000000000000000000100002494107881CIRO FRANCISCO MARCHI DURIGON           RUA MONTE CASTELO - 262 AP.115 - AVIACAO            11702720                                                            000014
2SR. CAIXA, APOS O VENCIMENTO COBRAR 10% DE MULTA                                NAO RECEBER APOS 30 DIAS DO VENCIMENTO.                                                                                                                                                                                                         01062300000000000000106230000000000000       0090028004416120024941062317000015
100000000000000000000009002800441612000000000000000000000000010002100016299006231800000000002            2  01162990062310062300000003875000000000001N010623000000000000000000000000000000000000000000000000000000000000000100016299008857FERNANDO CESAR CARVALHO                 AVENIDA MARCONDES DE BRITO - 1340 AP.74             03509000                                                            000017
2SR. CAIXA, APOS O VENCIMENTO COBRAR 10% DE MULTA                                NAO RECEBER APOS 30 DIAS DO VENCIMENTO.                                                                                                                                                                                                         01062300000000000000106230000000000000       0090028004416120162990062318000018
9                                                                                                                                                                                                                                                                                                                                                                                                         000019