01REMESSA01COBRANCA       00000000000008017025HB SANTOS CONSTRUTORA E INCORP237BRADESCO       010520        MX0000102                                                                                                                                                                                                                                                                                     000001
100000000000000000000009033990000627000000000000000000000000010002020029671505201500000000002            2  01296715052009052000000002688040000000001N010520000000000000000000000000000000000000000000000000000000000000000100029671526845ROGERIO CONSENTINO                      RUA CARLOS MAZER  - 678 - VILA CARMOSINA            08290700                                                            000002
2SR. CAIXA, APOS O VENCIMENTO COBRAR 2% DE MULTA                                 NAO RECEBER APOS 30 DIAS DO VENCIMENTO.                                                                                                                                                                                                         01052000000000000000105200000000000000       0090339900006270296715052015000003
100000000000000000000009033990000627000000000000000000000000010002020003863005201700000000002            2  01038630052009052000000002539070000000001N010520000000000000000000000000000000000000000000000000000000000000000100003863075803HERALDO MENQUINI                        RUA CARLOS JOSE BORSTENS - 50 AP.15 - AV            11702750                                                            000005
2SR. CAIXA, APOS O VENCIMENTO COBRAR 2% DE MULTA                                 NAO RECEBER APOS 30 DIAS DO VENCIMENTO.                                                                                                                                                                                                         01052000000000000000105200000000000000       0090339900006270038630052017000006
100000000000000000000009033990000627000000000000000000000000010002020029028405201400000000002            2  01290284052009052000000002601030000000001N010520000000000000000000000000000000000000000000000000000000000000000100029028478825LEONARDO LOUZADA                        RUA CARLOS JOSE BORSTENS - 50 AP.35 - AV            11702750                                                            000008
2SR. CAIXA, APOS O VENCIMENTO COBRAR 2% DE MULTA                                 NAO RECEBER APOS 30 DIAS DO VENCIMENTO.                                                                                                                                                                                                         01052000000000000000105200000000000000       0090339900006270290284052014000009
100000000000000000000009033990000627000000000000000000000000010002020032878505201100000000002            2  01328785052009052000000003759010000000001N010520000000000000000000000000000000000000000000000000000000000000000100032878512847LEONARDO MOURA MONIZ CALDEIRA           RUA BALSA - 682 AP.134 T.02 - VILA ARCAD            02910000                                                            000011
2SR. CAIXA, APOS O VENCIMENTO COBRAR 2% DE MULTA                                 NAO RECEBER APOS 30 DIAS DO VENCIMENTO.                                                                                                                                                                                                         01052000000000000000105200000000000000       0090339900006270328785052011000012
100000000000000000000009033990000627000000000000000000000000010002020016479005201900000000002            2  01164790052009052000000003998920000000001N010520000000000000000000000000000000000000000000000000000000000000000100016479002806LOURDES PEREIRA DE QUEIROZ SECANECHIA   RUA PAULINO CURSI - 437 - CIDADE SAO MAT            03960060                                                            000014
2SR. CAIXA, APOS O VENCIMENTO COBRAR 2% DE MULTA                                 NAO RECEBER APOS 30 DIAS DO VENCIMENTO.                                                                                                                                                                                                         01052000000000000000105200000000000000       0090339900006270164790052019000015
100000000000000000000009033990000627000000000000000000000000010002020019635005201600000000002            2  01196350052009052000000002950500000000001N010520000000000000000000000000000000000000000000000000000000000000000100019635091885IVAN VIEIRA SILVA                       ABRAO JORGE - 3001 - JARDIM INTEGRACAO -            14405397                                                            000017
2SR. CAIXA, APOS O VENCIMENTO COBRAR 2% DE MULTA                                 NAO RECEBER APOS 30 DIAS DO VENCIMENTO.                                                                                                                                                                                                         01052000000000000000105200000000000000       0090339900006270196350052016000018
100000000000000000000009033990000627000000000000000000000000010002020009361405201600000000002            2  01093614052009052000000002903220000000001N010520000000000000000000000000000000000000000000000000000000000000000100009361471805JOSE BARBOSA DA SILVA                   RUA ALFREDO INACIO TRINDADE  - 60 AP.44             02344100                                                            000020
2SR. CAIXA, APOS O VENCIMENTO COBRAR 2% DE MULTA                                 NAO RECEBER APOS 30 DIAS DO VENCIMENTO.                                                                                                                                                                                                         01052000000000000000105200000000000000       0090339900006270093614052016000021
100000000000000000000009033990000627000000000000000000000000010002020012756905201P00000000002            2  01127569052009052000000002506120000000001N010520000000000000000000000000000000000000000000000000000000000000000100012756959812ITAMAR JUVENAL DIAS DA SILVA            RUA ELISEU REINALDO MORAES VIEIRA - 90 A            02858000                                                            000023
2SR. CAIXA, APOS O VENCIMENTO COBRAR 2% DE MULTA                                 NAO RECEBER APOS 30 DIAS DO VENCIMENTO.                                                                                                                                                                                                         01052000000000000000105200000000000000       009033990000627012756905201P000024
100000000000000000000009033990000627000000000000000000000000010002020002731005201700000000002            2  01027310052009052000000002962910000000001N010520000000000000000000000000000000000000000000000000000000000000000100002731042842VALTER CERQUEIRA VILLA NOVA             RUA MACHADO - 106 - VILA AUGUSTA - GUARU            07025210                                                            000026
2SR. CAIXA, APOS O VENCIMENTO COBRAR 2% DE MULTA                                 NAO RECEBER APOS 30 DIAS DO VENCIMENTO.                                                                                                                                                                                                         01052000000000000000105200000000000000       0090339900006270027310052017000027
100000000000000000000009033990000627000000000000000000000000010002020002731005202500000000002            2  01027310052009052000000002962900000000001N010520000000000000000000000000000000000000000000000000000000000000000100002731042842VALTER CERQUEIRA VILLA NOVA             RUA MACHADO - 106 - VILA AUGUSTA - GUARU            07025210                                                            000029
2SR. CAIXA, APOS O VENCIMENTO COBRAR 2% DE MULTA                                 NAO RECEBER APOS 30 DIAS DO VENCIMENTO.                                                                                                                                                                                                         01052000000000000000105200000000000000       0090339900006270027310052025000030
100000000000000000000009033990000627000000000000000000000000010002020028802105201500000000002            2  01288021052009052000000002675430000000001N010520000000000000000000000000000000000000000000000000000000000000000100028802158894ELIEL HENRIQUE ZUZA                     RUA CARLOS JOSE BORSTENS - 50 AP.43 - BA            11702750                                                            000032
2SR. CAIXA, APOS O VENCIMENTO COBRAR 2% DE MULTA                                 NAO RECEBER APOS 30 DIAS DO VENCIMENTO.                                                                                                                                                                                                         01052000000000000000105200000000000000       0090339900006270288021052015000033
100000000000000000000009033990000627000000000000000000000000010002020008739105201900000000002            2  01087391052009052000000002502220000000001N010520000000000000000000000000000000000000000000000000000000000000000100008739150895VANGEVALDO BATISTA SANT ANNA            TRAVESSA TOMAZIN - 02 - ERMELINO MATARAZ            03811125                                                            000035
2SR. CAIXA, APOS O VENCIMENTO COBRAR 2% DE MULTA                                 NAO RECEBER APOS 30 DIAS DO VENCIMENTO.                                                                                                                                                                                                         01052000000000000000105200000000000000       0090339900006270087391052019000036
100000000000000000000009033990000627000000000000000000000000010002020005313705201500000000002            2  01053137052011052000000002162660000000001N010520000000000000000000000000000000000000000000000000000000000000000100005313717863EDIMICIO JOSE DE ARAUJO                 PRACA NICOLAU GERAIGIRE - 680 CA A - JAR            11095110                                                            000038
2SR. CAIXA, APOS O VENCIMENTO COBRAR 2% DE MULTA                                 NAO RECEBER APOS 30 DIAS DO VENCIMENTO.                                                                                                                                                                                                         01052000000000000000105200000000000000       0090339900006270053137052015000039
100000000000000000000009033990000627000000000000000000000000010002020029433605201300000000002            2  01294336052011052000000002077580000000001N010520000000000000000000000000000000000000000000000000000000000000000100029433631897MARIO MUNIZ                             RUA JOSE CALIXTO DO CARMO - 286 AP.53 -             11702690                                                            000041
2SR. CAIXA, APOS O VENCIMENTO COBRAR 2% DE MULTA                                 NAO RECEBER APOS 30 DIAS DO VENCIMENTO.                                                                                                                                                                                                         01052000000000000000105200000000000000       0090339900006270294336052013000042
100000000000000000000009033990000627000000000000000000000000010002020001847205201100000000002            2  01018472052011052000000001912660000000001N010520000000000000000000000000000000000000000000000000000000000000000100001847204864AMERICA CONCEICAO DA SILVA              RUA JOSE CALIXTO DO CARMO - 286 AP.44 -             11702690                                                            000044
2SR. CAIXA, APOS O VENCIMENTO COBRAR 2% DE MULTA                                 NAO RECEBER APOS 30 DIAS DO VENCIMENTO.                                                                                                                                                                                                         01052000000000000000105200000000000000       0090339900006270018472052011000045
100000000000000000000009033990000627000000000000000000000000010002020005029805201600000000002            2  01050298052009052000000002555140000000001N010520000000000000000000000000000000000000000000000000000000000000000100005029828885LAURINETE DA CONCEICAO DE NORONHA       RUA MARIA LUCIA DE TOLEDO LEITE MORAES -            04434040                                                            000047
2SR. CAIXA, APOS O VENCIMENTO COBRAR 2% DE MULTA                                 NAO RECEBER APOS 30 DIAS DO VENCIMENTO.                                                                                                                                                                                                         01052000000000000000105200000000000000       0090339900006270050298052016000048
100000000000000000000009033990000627000000000000000000000000010002020013388905201800000000002            2  01133889052011052000000002025310000000001N010520000000000000000000000000000000000000000000000000000000000000000100013388936889NEUTON DE SOUZA RAMOS                   RUA MARIA CRISTINA - 932 - JARDIM CASQUE            11533160                                                            000050
2SR. CAIXA, APOS O VENCIMENTO COBRAR 2% DE MULTA                                 NAO RECEBER APOS 30 DIAS DO VENCIMENTO.                                                                                                                                                                                                         01052000000000000000105200000000000000       0090339900006270133889052018000051
100000000000000000000009033990000627000000000000000000000000010002020012774905201800000000002            2  01127749052011052000000002063350000000001N010520000000000000000000000000000000000000000000000000000000000000000100012774906865JOSE MILTON SANTIAGO                    RUA BATATAIS - 47 - CIDADE ESTELA - POA             08563140                                                            000053
2SR. CAIXA, APOS O VENCIMENTO COBRAR 2% DE MULTA                                 NAO RECEBER APOS 30 DIAS DO VENCIMENTO.                                                                                                                                                                                                         01052000000000000000105200000000000000       0090339900006270127749052018000054
100000000000000000000009033990000627000000000000000000000000010002020016294105201300000000002            2  01162941052009052000000002536800000000001N010520000000000000000000000000000000000000000000000000000000000000000100016294119812JURACY FELIX DE ARRUDA                  RUA CARLOS JOSE BORSTENS - 50 AP.23 - AV            11702750                                                            000056
2SR. CAIXA, APOS O VENCIMENTO COBRAR 2% DE MULTA                                 NAO RECEBER APOS 30 DIAS DO VENCIMENTO.                                                                                                                                                                                                         01052000000000000000105200000000000000       0090339900006270162941052013000057
100000000000000000000009033990000627000000000000000000000000010002020005613805201800000000002            2  01056138052011052000000001897710000000001N010520000000000000000000000000000000000000000000000000000000000000000100005613843805NILZA MARIA DE OLIVEIRA                 RUA JOSE GONCALVES DE FREITAS - 66 C2 -             08210550                                                            000059
2SR. CAIXA, APOS O VENCIMENTO COBRAR 2% DE MULTA                                 NAO RECEBER APOS 30 DIAS DO VENCIMENTO.                                                                                                                                                                                                         01052000000000000000105200000000000000       0090339900006270056138052018000060
100000000000000000000009033990000627000000000000000000000000010002020007574905201800000000002            2  01075749052011052000000001947950000000001N010520000000000000000000000000000000000000000000000000000000000000000100007574936889JORGE LUCIANO PEREIRA BORRIELLO         RUA JOSE CALIXTO DO CARMO - 286 AP.54 -             11702690                                                            000062
2SR. CAIXA, APOS O VENCIMENTO COBRAR 2% DE MULTA                                 NAO RECEBER APOS 30 DIAS DO VENCIMENTO.                                                                                                                                                                                                         01052000000000000000105200000000000000       0090339900006270075749052018000063
100000000000000000000009033990000627000000000000000000000000010002020008214905201000000000002            2  01082149052011052000000001977510000000001N010520000000000000000000000000000000000000000000000000000000000000000100008214973830JAMIL CHALA                             RUA JOSE CALIXTO DO CARMO - 286 AP.22 -             11702690                                                            000065
2SR. CAIXA, APOS O VENCIMENTO COBRAR 2% DE MULTA                                 NAO RECEBER APOS 30 DIAS DO VENCIMENTO.                                                                                                                                                                                                         01052000000000000000105200000000000000       0090339900006270082149052010000066
100000000000000000000009033990000627000000000000000000000000010002020032495005201800000000002            2  01324950052011052000000002216050000000001N010520000000000000000000000000000000000000000000000000000000000000000100032495004881PAULO EDUARDO DOS SANTOS                RUA REPUBLICA DO IRAQUE - 1119 - CAMPO B            04611002                                                            000068
2SR. CAIXA, APOS O VENCIMENTO COBRAR 2% DE MULTA                                 NAO RECEBER APOS 30 DIAS DO VENCIMENTO.                                                                                                                                                                                                         01052000000000000000105200000000000000       0090339900006270324950052018000069
100000000000000000000009033990000627000000000000000000000000010002020006471805201800000000002            2  01064718052009052000000002497540000000001N010520000000000000000000000000000000000000000000000000000000000000000100006471825803JOSIVALDO BASTOS DE OLIVEIRA            RUA MARIA DIAS HOG - 263 - PARQUE CONTIN            07085035                                                            000071
2SR. CAIXA, APOS O VENCIMENTO COBRAR 2% DE MULTA                                 NAO RECEBER APOS 30 DIAS DO VENCIMENTO.                                                                                                                                                                                                         01052000000000000000105200000000000000       0090339900006270064718052018000072
100000000000000000000009033990000627000000000000000000000000010002020016498005201500000000002            2  01164980052011052000000001943530000000001N010520000000000000000000000000000000000000000000000000000000000000000100016498053810GILMA CEZARIO GARCIA CORRITORI          RUA LAURENTINO XAVIER DOS SANTOS - 336 -            08240740                                                            000074
2SR. CAIXA, APOS O VENCIMENTO COBRAR 2% DE MULTA                                 NAO RECEBER APOS 30 DIAS DO VENCIMENTO.                                                                                                                                                                                                         01052000000000000000105200000000000000       0090339900006270164980052015000075
100000000000000000000009033990000627000000000000000000000000010002020029339005201400000000002            2  01293390052011052000000002078270000000001N010520000000000000000000000000000000000000000000000000000000000000000100029339051831RONALD DIDOFF                           RUA CORONEL FERREIRA BRAGA - 188 - VILA             03522010                                                            000077
2SR. CAIXA, APOS O VENCIMENTO COBRAR 2% DE MULTA                                 NAO RECEBER APOS 30 DIAS DO VENCIMENTO.                                                                                                                                                                                                         01052000000000000000105200000000000000       0090339900006270293390052014000078
100000000000000000000009033990000627000000000000000000000000010002020017357805201600000000002            2  01173578052011052000000002201070000000001N010520000000000000000000000000000000000000000000000000000000000000000100017357859894MARCIO GUIMARAES                        RUA GENERAL CAMARA - 188 SALA 11 - CENTR            11010120                                                            000080
2SR. CAIXA, APOS O VENCIMENTO COBRAR 2% DE MULTA                                 NAO RECEBER APOS 30 DIAS DO VENCIMENTO.                                                                                                                                                                                                         01052000000000000000105200000000000000       0090339900006270173578052016000081
100000000000000000000009033990000627000000000000000000000000010002020010563005201600000000002            2  01105630052011052000000002257330000000001N010520000000000000000000000000000000000000000000000000000000000000000100010563033878VERA LUCIA RIBEIRO LONGANEZI            RUA DOS CAMARES - 150 AP.24 BL.02 - CARA            02068030                                                            000083
2SR. CAIXA, APOS O VENCIMENTO COBRAR 2% DE MULTA                                 NAO RECEBER APOS 30 DIAS DO VENCIMENTO.                                                                                                                                                                                                         01052000000000000000105200000000000000       0090339900006270105630052016000084
100000000000000000000009033990000627000000000000000000000000010002020005529605201000000000002            2  01055296052011052000000002048450000000001N010520000000000000000000000000000000000000000000000000000000000000000100005529616801JOAQUIM JORGE DA COSTA                  RUA JOSE CALIXTO DO CARMO - 286 AP.106 -            11702690                                                            000086
2SR. CAIXA, APOS O VENCIMENTO COBRAR 2% DE MULTA                                 NAO RECEBER APOS 30 DIAS DO VENCIMENTO.                                                                                                                                                                                                         01052000000000000000105200000000000000       0090339900006270055296052010000087
100000000000000000000009033990000627000000000000000000000000010002020022014105201500000000002            2  01220141052011052000000002042480000000001N010520000000000000000000000000000000000000000000000000000000000000000100022014140847CAMILA SILVEIRA CANIZARES               AVENIDA PRESIDENTE CASTELO BRANCO - 5.74            11703650                                                            000089
2SR. CAIXA, APOS O VENCIMENTO COBRAR 2% DE MULTA                                 NAO RECEBER APOS 30 DIAS DO VENCIMENTO.                                                                                                                                                                                                         01052000000000000000105200000000000000       0090339900006270220141052015000090
100000000000000000000009033990000627000000000000000000000000010002020015550705201700000000002            2  01155507052009052000000001936780000000001N010520000000000000000000000000000000000000000000000000000000000000000100015550706806MARY MIWA                               RUA CARLOS JOSE BORSTENS - 50 AP.105 - A            11702750                                                            000092
2SR. CAIXA, APOS O VENCIMENTO COBRAR 2% DE MULTA                                 NAO RECEBER APOS 30 DIAS DO VENCIMENTO.                                                                                                                                                                                                         01052000000000000000105200000000000000       0090339900006270155507052017000093
100000000000000000000009033990000627000000000000000000000000010002020015464605201700000000002            2  01154646052011052000000002153410000000001N010520000000000000000000000000000000000000000000000000000000000000000100015464647864SONIA TERESA VOLPATO                    RUA JOSE CALIXTO DO CARMO - 286 AP.73 -             11702690                                                            000095
2SR. CAIXA, APOS O VENCIMENTO COBRAR 2% DE MULTA                                 NAO RECEBER APOS 30 DIAS DO VENCIMENTO.                                                                                                                                                                                                         01052000000000000000105200000000000000       0090339900006270154646052017000096
100000000000000000000009033990000627000000000000000000000000010002020008657805201600000000002            2  01086578052011052000000002131790000000001N010520000000000000000000000000000000000000000000000000000000000000000100008657886855ARLINDO DA CRUZ                         AVENIDA ARICANDUVA - 8.256 AP.54 BL.10 -            03951220                                                            000098
2SR. CAIXA, APOS O VENCIMENTO COBRAR 2% DE MULTA                                 NAO RECEBER APOS 30 DIAS DO VENCIMENTO.                                                                                                                                                                                                         01052000000000000000105200000000000000       0090339900006270086578052016000099
100000000000000000000009033990000627000000000000000000000000010002020004265705201600000000002            2  01042657052009052000000002853800000000001N010520000000000000000000000000000000000000000000000000000000000000000100004265781713ALEXANDRE CASADO COSTA                  RUA CARLOS JOSE BORSTENS - 50 AP.33 - AV            11702750                                                            000101
2SR. CAIXA, APOS O VENCIMENTO COBRAR 2% DE MULTA                                 NAO RECEBER APOS 30 DIAS DO VENCIMENTO.                                                                                                                                                                                                         01052000000000000000105200000000000000       0090339900006270042657052016000102
100000000000000000000009033990000627000000000000000000000000010002020059735105201400000000002            2  01597351052009052000000001205380000000001N010520000000000000000000000000000000000000000000000000000000000000000100059735180863HELIO JOSE MARQUES                      RUA MARTIM AFONSO DE SOUZA - 1007 AP.102            11702790                                                            000104
2SR. CAIXA, APOS O VENCIMENTO COBRAR 2% DE MULTA                                 NAO RECEBER APOS 30 DIAS DO VENCIMENTO.                                                                                                                                                                                                         01052000000000000000105200000000000000       0090339900006270597351052014000105
100000000000000000000009033990000627000000000000000000000000010002020026347805201800000000002            2  01263478052011052000000002278830000000001N010520000000000000000000000000000000000000000000000000000000000000000100026347872862VALDECI SILVA MEIRELES                  RUA JOSE BATISTA DA SILVA - 292 - JARDIM            06851470                                                            000107
2SR. CAIXA, APOS O VENCIMENTO COBRAR 2% DE MULTA                                 NAO RECEBER APOS 30 DIAS DO VENCIMENTO.                                                                                                                                                                                                         01052000000000000000105200000000000000       0090339900006270263478052018000108
100000000000000000000009033990000627000000000000000000000000010002020025443605201900000000002            2  01254436052009052000000004128190000000001N010520000000000000000000000000000000000000000000000000000000000000000100025443691830SILVANETE PEREIRA CARNELOS              RUA CARLOS JOSE BORSTENS - 50 AP.102 - A            11702750                                                            000110
2SR. CAIXA, APOS O VENCIMENTO COBRAR 2% DE MULTA                                 NAO RECEBER APOS 30 DIAS DO VENCIMENTO.                                                                                                                                                                                                         01052000000000000000105200000000000000       0090339900006270254436052019000111
100000000000000000000009033990000627000000000000000000000000010002020013135205201900000000002            2  01131352052011052000000002093680000000001N010520000000000000000000000000000000000000000000000000000000000000000100013135261859EDUARDO ZANOLA                          RUA ROLANDO PIETRO BONINI - 46 - JARDIM             09781040                                                            000113
2SR. CAIXA, APOS O VENCIMENTO COBRAR 2% DE MULTA                                 NAO RECEBER APOS 30 DIAS DO VENCIMENTO.                                                                                                                                                                                                         01052000000000000000105200000000000000       0090339900006270131352052019000114
100000000000000000000009033990000627000000000000000000000000010002020009797605201P00000000002            2  01097976052011052000000002039030000000001N010520000000000000000000000000000000000000000000000000000000000000000100009797626857RICARDO SOBRAL DE OLIVEIRA              RUA 23 DE MAIO - 139 AP.32 - VILA MIRIM             11704690                                                            000116
2SR. CAIXA, APOS O VENCIMENTO COBRAR 2% DE MULTA                                 NAO RECEBER APOS 30 DIAS DO VENCIMENTO.                                                                                                                                                                                                         01052000000000000000105200000000000000       009033990000627009797605201P000117
100000000000000000000009033990000627000000000000000000000000010002020004767605201000000000002            2  01047676052009052000000003486690000000001N010520000000000000000000000000000000000000000000000000000000000000000100004767679893ORLANDO GRANDE FILHO                    RUA ORLANDO MIGLIARI - 101 - JARDIM OURO            19906140                                                            000119
2SR. CAIXA, APOS O VENCIMENTO COBRAR 2% DE MULTA                                 NAO RECEBER APOS 30 DIAS DO VENCIMENTO.                                                                                                                                                                                                         01052000000000000000105200000000000000       0090339900006270047676052010000120
100000000000000000000009033990000627000000000000000000000000010002020006512505201800000000002            2  01065125052011052000000001834190000000001N010520000000000000000000000000000000000000000000000000000000000000000100006512547870MARIA DO CARMO FAGUNDES DOS REIS        RUA CARLOS MALCHER - 98 - PARQUE EDU CHA            02232020                                                            000122
2SR. CAIXA, APOS O VENCIMENTO COBRAR 2% DE MULTA                                 NAO RECEBER APOS 30 DIAS DO VENCIMENTO.                                                                                                                                                                                                         01052000000000000000105200000000000000       0090339900006270065125052018000123
100000000000000000000009033990000627000000000000000000000000010002020022728405201000000000002            2  01227284052011052000000002206340000000001N010520000000000000000000000000000000000000000000000000000000000000000100022728497842WILLIAN DE SOUZA MELLO                  RUA JOSE CALIXTO DO CARMO - 286 AP.111 -            11702690                                                            000125
2SR. CAIXA, APOS O VENCIMENTO COBRAR 2% DE MULTA                                 NAO RECEBER APOS 30 DIAS DO VENCIMENTO.                                                                                                                                                                                                         01052000000000000000105200000000000000       0090339900006270227284052010000126
100000000000000000000009033990000627000000000000000000000000010002020016909705201500000000002            2  01169097052011052000000001949730000000001N010520000000000000000000000000000000000000000000000000000000000000000100016909746805EDIVALDO SANTANA DOS SANTOS             ESTRADA JOAO GASPAR DELGADO - 80 AP.213             08536100                                                            000128
2SR. CAIXA, APOS O VENCIMENTO COBRAR 2% DE MULTA                                 NAO RECEBER APOS 30 DIAS DO VENCIMENTO.                                                                                                                                                                                                         01052000000000000000105200000000000000       0090339900006270169097052015000129
100000000000000000000009033990000627000000000000000000000000010002020022036005201200000000002            2  01220360052009052000000003027710000000001N010520000000000000000000000000000000000000000000000000000000000000000100022036003818DERLIS TERAN QUIROGA ROGATO             RUA JOAO RIBEIRO - 709 AP.61 - CAMPESTRE            09070250                                                            000131
2SR. CAIXA, APOS O VENCIMENTO COBRAR 2% DE MULTA                                 NAO RECEBER APOS 30 DIAS DO VENCIMENTO.                                                                                                                                                                                                         01052000000000000000105200000000000000       0090339900006270220360052012000132
100000000000000000000009033990000627000000000000000000000000010002020017229705202900000000002            2  01172297052009052000000002922010000000001N010520000000000000000000000000000000000000000000000000000000000000000100017229751802BERENICE VIEIRA KERSTING                RUA ATIBAIA - 17 AP.417 - BAIRRO IMPERAD            11707380                                                            000134
2SR. CAIXA, APOS O VENCIMENTO COBRAR 2% DE MULTA                                 NAO RECEBER APOS 30 DIAS DO VENCIMENTO.                                                                                                                                                                                                         01052000000000000000105200000000000000       0090339900006270172297052029000135
100000000000000000000009033990000627000000000000000000000000010002020012475605201600000000002            2  01124756052011052000000002113390000000001N010520000000000000000000000000000000000000000000000000000000000000000100012475663820CELIDALVA GOES DE CARVALHO              RUA AURELIO BELOTTI JUNIOR - 28 - JARDIM            05759210                                                            000137
2SR. CAIXA, APOS O VENCIMENTO COBRAR 2% DE MULTA                                 NAO RECEBER APOS 30 DIAS DO VENCIMENTO.                                                                                                                                                                                                         01052000000000000000105200000000000000       0090339900006270124756052016000138
100000000000000000000009033990000627000000000000000000000000010002020033451605201300000000002            2  01334516052011052000000001764790000000001N010520000000000000000000000000000000000000000000000000000000000000000100033451620839ARAO ELISIARIO  NUNES                   RUA JOSE CALIXTO DO CARMO - 286 AP.64 -             11702690                                                            000140
2SR. CAIXA, APOS O VENCIMENTO COBRAR 2% DE MULTA                                 NAO RECEBER APOS 30 DIAS DO VENCIMENTO.                                                                                                                                                                                                         01052000000000000000105200000000000000       0090339900006270334516052013000141
100000000000000000000009033990000627000000000000000000000000010002020095758205201300000000002            2  01957582052011052000000002146240000000001N010520000000000000000000000000000000000000000000000000000000000000000100095758275891SHIRLEY TUNES ASTOLFI                   RUA GUAPERUVU - 656 AP.84 - VILA ARICAND            03504010                                                            000143
2SR. CAIXA, APOS O VENCIMENTO COBRAR 2% DE MULTA                                 NAO RECEBER APOS 30 DIAS DO VENCIMENTO.                                                                                                                                                                                                         01052000000000000000105200000000000000       0090339900006270957582052013000144
100000000000000000000009033990000627000000000000000000000000010002020045839205201000000000002            2  01458392052011052000000001369810000000001N010520000000000000000000000000000000000000000000000000000000000000000100045839263834LEONARDO ANTONIO CONCELLIERI            RUA JOSE CALIXTO DO CARMO - 286 AP.51 -             11702690                                                            000146
2SR. CAIXA, APOS O VENCIMENTO COBRAR 2% DE MULTA                                 NAO RECEBER APOS 30 DIAS DO VENCIMENTO.                                                                                                                                                                                                         01052000000000000000105200000000000000       0090339900006270458392052010000147
100000000000000000000009033990000627000000000000000000000000010002020011369105201100000000002            2  01113691052011052000000001927840000000001N010520000000000000000000000000000000000000000000000000000000000000000100011369165803ELIANA CORREA DE OLIVEIRA               AVENIDA ELIAS MALUF - 2695 CASA 419 - WA            18055215                                                            000149
2SR. CAIXA, APOS O VENCIMENTO COBRAR 2% DE MULTA                                 NAO RECEBER APOS 30 DIAS DO VENCIMENTO.                                                                                                                                                                                                         01052000000000000000105200000000000000       0090339900006270113691052011000150
100000000000000000000009033990000627000000000000000000000000010002020026858605201800000000002            2  01268586052008052000000002684840000000001N010520000000000000000000000000000000000000000000000000000000000000000100026858625879GLAUCE FERREIRA DE OLIVEIRA FALSI       RUA CATULO DA PAIXAO CEARENSE - 190 AP.1            04145010                                                            000152
2SR. CAIXA, APOS O VENCIMENTO COBRAR 2% DE MULTA                                 NAO RECEBER APOS 30 DIAS DO VENCIMENTO.                                                                                                                                                                                                         01052000000000000000105200000000000000       0090339900006270268586052018000153
100000000000000000000009033990000627000000000000000000000000010002020002253805201500000000002            2  01022538052011052000000001713490000000001N010520000000000000000000000000000000000000000000000000000000000000000100002253816809EDMILSON ALVES DA SILVA                 ESTRADA SAO FRANCISCO - 2.008 AP.14 T.G             06764290                                                            000155
2SR. CAIXA, APOS O VENCIMENTO COBRAR 2% DE MULTA                                 NAO RECEBER APOS 30 DIAS DO VENCIMENTO.                                                                                                                                                                                                         01052000000000000000105200000000000000       0090339900006270022538052015000156
100000000000000000000009033990000627000000000000000000000000010002020037947005201700000000002            2  01379470052011052000000003043260000000001N010520000000000000000000000000000000000000000000000000000000000000000100037947070873BRUNO DE CAETANO MARRINHAS              RUA ADRIATICO - 151 AP.82 BLOCO 18 - JAR            09172180                                                            000158
2SR. CAIXA, APOS O VENCIMENTO COBRAR 2% DE MULTA                                 NAO RECEBER APOS 30 DIAS DO VENCIMENTO.                                                                                                                                                                                                         01052000000000000000105200000000000000       0090339900006270379470052017000159
100000000000000000000009033990000627000000000000000000000000010002020037517705201500000000002            2  01375177052009052000000003211360000000001N010520000000000000000000000000000000000000000000000000000000000000000100037517785869RENATO JOSE DE LIMA MELO                RUA ARISTIDES LOBO - 148 AP.41 BLOCO 03             03041100                                                            000161
2SR. CAIXA, APOS O VENCIMENTO COBRAR 2% DE MULTA                                 NAO RECEBER APOS 30 DIAS DO VENCIMENTO.                                                                                                                                                                                                         01052000000000000000105200000000000000       0090339900006270375177052015000162
100000000000000000000009033990000627000000000000000000000000010002020070367905201600000000002            2  01703679052011052000000001609060000000001N010520000000000000000000000000000000000000000000000000000000000000000100070367949849TEODOMIRO ALVES DOS SANTOS              RUA ANDRE PAZ - 13 - JARDIM SANTO ANDRE             08390230                                                            000164
2SR. CAIXA, APOS O VENCIMENTO COBRAR 2% DE MULTA                                 NAO RECEBER APOS 30 DIAS DO VENCIMENTO.                                                                                                                                                                                                         01052000000000000000105200000000000000       0090339900006270703679052016000165
9                                                                                                                                                                                                                                                                                                                                                                                                         000166