01REMESSA01COBRANCA       00000000000004991781AIRES CONSTRUTORA E INCORPORAD237BRADESCO       010917        MX0000089                                                                                                                                                                                                                                                                                     000001
100000000000000000000009077090006612500000000000000000000000010002100000000008111900000000002            2  01000000811110091700000002106280000000001N010917000000000000000000000000000000000000000000000000000000000000000100094852294887GISELDA MENON                           RUA OTAVIO BARRETO - 105 - VILA SANTISTA            02560080                                                            000002
2SR. CAIXA, APOS O VENCIMENTO COBRAR 10% DE MULTA                                NAO RECEBER APOS 30 DIAS DO VENCIMENTO.                                                                                                                                                                                                         01091700000000000000109170000000000000       0090770900066125000000081119000003
100000000000000000000009077090006612500000000000000000000000010002100000000028533400000000002            2  01000002853310091700000003230350000000001N010917000000000000000000000000000000000000000000000000000000000000000100006485911820CELIO MANUEL  MELIM SANTO               RUA JUVENAL FERREIRA  - 85 AP.61 - VILA             03512040                                                            000005
2SR. CAIXA, APOS O VENCIMENTO COBRAR 10% DE MULTA                                NAO RECEBER APOS 30 DIAS DO VENCIMENTO.                                                                                                                                                                                                         01091700000000000000109170000000000000       0090770900066125000000285334000006
100000000000000000000009077090006612500000000000000000000000010002100000000059566P00000000002            2  01000005956610091700000002815480000000001N010917000000000000000000000000000000000000000000000000000000000000000100004693857823NIVALDO BARTOLOMEU FERREIRA             MNS JOSE MARINONI  - 33 - SANTO AMARO -             04430350                                                            000008
2SR. CAIXA, APOS O VENCIMENTO COBRAR 10% DE MULTA                                NAO RECEBER APOS 30 DIAS DO VENCIMENTO.                                                                                                                                                                                                         01091700000000000000109170000000000000       009077090006612500000059566P000009
100000000000000000000009077090006612500000000000000000000000010002100000000079888900000000002            2  01000007988810091700000002680980000000001N010917000000000000000000000000000000000000000000000000000000000000000100027993108853DALVA JESUS RODRIGUES CABRAL            RUA CRISTOVAO COLOMBO GONCALVES - 97 - C            04811050                                                            000011
2SR. CAIXA, APOS O VENCIMENTO COBRAR 10% DE MULTA                                NAO RECEBER APOS 30 DIAS DO VENCIMENTO.                                                                                                                                                                                                         01091700000000000000109170000000000000       0090770900066125000000798889000012
100000000000000000000009077090006612500000000000000000000000010002100000010011010800000000002            2  01001001101010091700000002784920000000001N010917000000000000000000000000000000000000000000000000000000000000000100000455495831PAULO HENRIQUE LOURENCO                 RUA FIGUEIRA  - 237 - CIDADE DAS FLORES             06184060                                                            000014
2SR. CAIXA, APOS O VENCIMENTO COBRAR 10% DE MULTA                                NAO RECEBER APOS 30 DIAS DO VENCIMENTO.                                                                                                                                                                                                         01091700000000000000109170000000000000       0090770900066125000100110108000015
100000000000000000000009077090006612500000000000000000000000010002100000019071919P00000000002            2  01001907191910091700000003453690000000001N010917000000000000000000000000000000000000000000000000000000000000000100006140049857MARIA ALBANI DA SILVA EUSEBIO           RUA ORLANDO SEGALA - 108 - JARDIM ADRIAN            07135190                                                            000017
2SR. CAIXA, APOS O VENCIMENTO COBRAR 10% DE MULTA                                NAO RECEBER APOS 30 DIAS DO VENCIMENTO.                                                                                                                                                                                                         01091700000000000000109170000000000000       009077090006612500019071919P000018
100000000000000000000009077090006612500000000000000000000000010002100000031182931100000000002            2  01003118293110091700000003386720000000001N010917000000000000000000000000000000000000000000000000000000000000000100002324785897IZILDA NAPOLI                           RUA MONTE CASTELO - 295 AP.71 - AVIACAO             11702720                                                            000020
2SR. CAIXA, APOS O VENCIMENTO COBRAR 10% DE MULTA                                NAO RECEBER APOS 30 DIAS DO VENCIMENTO.                                                                                                                                                                                                         01091700000000000000109170000000000000       0090770900066125000311829311000021
100000000000000000000009077090006612500000000000000000000000010002100000036083136400000000002            2  01003608313610091700000003508350000000001N010917000000000000000000000000000000000000000000000000000000000000000100007768713826FATIMA LUZIA BIANCHI                    DR. OLIDAIR AMBROSIO - 1487 AP.03 - CENT            14160170                                                            000023
2SR. CAIXA, APOS O VENCIMENTO COBRAR 10% DE MULTA                                NAO RECEBER APOS 30 DIAS DO VENCIMENTO.                                                                                                                                                                                                         01091700000000000000109170000000000000       0090770900066125000360831364000024
100000000000000000000009077090006612500000000000000000000000010002100000038933639700000000002            2  01003893363910091700000003456270000000001N010917000000000000000000000000000000000000000000000000000000000000000100021716847800DANIELLE FAGUNDES DE A.MATOS            CONDE MOREIRA LIMA - 644 - JARDIM JABAQU            04384032                                                            000026
2SR. CAIXA, APOS O VENCIMENTO COBRAR 10% DE MULTA                                NAO RECEBER APOS 30 DIAS DO VENCIMENTO.                                                                                                                                                                                                         01091700000000000000109170000000000000       0090770900066125000389336397000027
100000000000000000000009077090006612500000000000000000000000010002100000041923842500000000002            2  01004192384210091700000002887520000000001N010917000000000000000000000000000000000000000000000000000000000000000100028196184808VANESSA NOGUEIRA CAMBUI DA SILVA        CRISTOVAO COLOMBO - 217 - VILA AMERICA -            09110160                                                            000029
2SR. CAIXA, APOS O VENCIMENTO COBRAR 10% DE MULTA                                NAO RECEBER APOS 30 DIAS DO VENCIMENTO.                                                                                                                                                                                                         01091700000000000000109170000000000000       0090770900066125000419238425000030
100000000000000000000009077090006612500000000000000000000000010002100000044814145700000000002            2  01004481414510091700000002929930000000001N010917000000000000000000000000000000000000000000000000000000000000000100085416940891ANTONIO DE SOUSA MENDES                 RUA MONTE CASTELO - 296 AP.52 - AVIACAO             11702720                                                            000032
2SR. CAIXA, APOS O VENCIMENTO COBRAR 10% DE MULTA                                NAO RECEBER APOS 30 DIAS DO VENCIMENTO.                                                                                                                                                                                                         01091700000000000000109170000000000000       0090770900066125000448141457000033
100000000000000000000009077090006612500000000000000000000000010002100000045834246900000000002            2  01004583424610091700000003051480000000001N010917000000000000000000000000000000000000000000000000000000000000000100005678057863FABIO MOREIRA CAMPOS                    RUA FLORENCIO DA SILVA - 284 - VILA LIBA            03738070                                                            000035
2SR. CAIXA, APOS O VENCIMENTO COBRAR 10% DE MULTA                                NAO RECEBER APOS 30 DIAS DO VENCIMENTO.                                                                                                                                                                                                         01091700000000000000109170000000000000       0090770900066125000458342469000036
100000000000000000000009077090006612500000000000000000000000010002100000046794347500000000002            2  01004679434710091700000003081280000000001N010917000000000000000000000000000000000000000000000000000000000000000100007784496885GUILHERME LEONARDO DO NASCIMENTO        COMENDADOR RUBENS RONCARE - 127 - PONTE             11530120                                                            000038
2SR. CAIXA, APOS O VENCIMENTO COBRAR 10% DE MULTA                                NAO RECEBER APOS 30 DIAS DO VENCIMENTO.                                                                                                                                                                                                         01091700000000000000109170000000000000       0090770900066125000467943475000039
100000000000000000000009077090006612500000000000000000000000010002100000047744448500000000002            2  01004774444810091700000002976960000000001N010917000000000000000000000000000000000000000000000000000000000000000100016348237885AILTON LORENA                           AVENIDA BRASILIA - 194 - BELA VISTA - SA            09180260                                                            000041
2SR. CAIXA, APOS O VENCIMENTO COBRAR 10% DE MULTA                                NAO RECEBER APOS 30 DIAS DO VENCIMENTO.                                                                                                                                                                                                         01091700000000000000109170000000000000       0090770900066125000477444485000042
100000000000000000000009077090006612500000000000000000000000010002100000051584852800000000002            2  01005158485210091700000002873110000000001N010917000000000000000000000000000000000000000000000000000000000000000100081218486953OSMAR DA COSTA                          RUA MONTE CASTELO - 295 AP.33 - AVIACAO             11702720                                                            000044
2SR. CAIXA, APOS O VENCIMENTO COBRAR 10% DE MULTA                                NAO RECEBER APOS 30 DIAS DO VENCIMENTO.                                                                                                                                                                                                         01091700000000000000109170000000000000       0090770900066125000515848528000045
100000000000000000000009077090006612500000000000000000000000010002100000054595155200000000002            2  01005459515510091700000003263330000000001N010917000000000000000000000000000000000000000000000000000000000000000100004981884850SILVIO PAULINO GONCALVES                MARIA DE CASTRO MESQUITA - 84 AP.103 BLO            07110040                                                            000047
2SR. CAIXA, APOS O VENCIMENTO COBRAR 10% DE MULTA                                NAO RECEBER APOS 30 DIAS DO VENCIMENTO.                                                                                                                                                                                                         01091700000000000000109170000000000000       0090770900066125000545951552000048
100000000000000000000009077090006612500000000000000000000000010002100000055595256500000000002            2  01005559525610091700000002142060000000001N010917000000000000000000000000000000000000000000000000000000000000000100019282546837FABIO LEANDRO DE FREITAS ASSIS          RUA BASSIM NAGIB TRABULSI - 97 - PONTA D            11030540                                                            000050
2SR. CAIXA, APOS O VENCIMENTO COBRAR 10% DE MULTA                                NAO RECEBER APOS 30 DIAS DO VENCIMENTO.                                                                                                                                                                                                         01091700000000000000109170000000000000       0090770900066125000555952565000051
100000000000000000000009077090006612500000000000000000000000010002100000059435660000000000002            2  01005943566010091700000002976890000000001N010917000000000000000000000000000000000000000000000000000000000000000100008423485811EDSON LUIZ NUNES                        RUA NOEMIA PEDROSO BUENO - 41 - JARDIM G            09360440                                                            000053
2SR. CAIXA, APOS O VENCIMENTO COBRAR 10% DE MULTA                                NAO RECEBER APOS 30 DIAS DO VENCIMENTO.                                                                                                                                                                                                         01091700000000000000109170000000000000       0090770900066125000594356600000054
100000000000000000000009077090006612500000000000000000000000010002100000064166165400000000002            2  01006416616510091700000003444630000000001N010917000000000000000000000000000000000000000000000000000000000000000100003010502877GIZELA VIEIRA BARROS                    RUA GIACOMO DALCIN - 157 - MAUA - SAO CA            09580350                                                            000056
2SR. CAIXA, APOS O VENCIMENTO COBRAR 10% DE MULTA                                NAO RECEBER APOS 30 DIAS DO VENCIMENTO.                                                                                                                                                                                                         01091700000000000000109170000000000000       0090770900066125000641661654000057
100000000000000000000009077090006612500000000000000000000000010002100000069166670300000000002            2  01006916667010091700000002804860000000001N010917000000000000000000000000000000000000000000000000000000000000000100012111060801CLAUDIA CRISTINA CRELIS COSTA           RUA RUI BARBOSA - 1736 AP.1533 - VILA SA            19015001                                                            000059
2SR. CAIXA, APOS O VENCIMENTO COBRAR 10% DE MULTA                                NAO RECEBER APOS 30 DIAS DO VENCIMENTO.                                                                                                                                                                                                         01091700000000000000109170000000000000       0090770900066125000691666703000060
100000000000000000000009077090006612500000000000000000000000010002100000070086271500000000002            2  01007008627110091700000002700740000000001N010917000000000000000000000000000000000000000000000000000000000000000100009777281889CARLITA DE FIGUEIREDO CARVALHO          AVENIDA ALBERTO DE ALMEIDA VINHAS - 4462            11701350                                                            000062
2SR. CAIXA, APOS O VENCIMENTO COBRAR 10% DE MULTA                                NAO RECEBER APOS 30 DIAS DO VENCIMENTO.                                                                                                                                                                                                         01091700000000000000109170000000000000       0090770900066125000700862715000063
100000000000000000000009077090006612500000000000000000000000010002100000073106974600000000002            2  01007310697410091700000003207330000000001N010917000000000000000000000000000000000000000000000000000000000000000100004213020894ELIETE DRUGOVICH DE LIMA                RUA OSVALDO CRUZ - 141 AP.144-B - SANTA             09541270                                                            000065
2SR. CAIXA, APOS O VENCIMENTO COBRAR 10% DE MULTA                                NAO RECEBER APOS 30 DIAS DO VENCIMENTO.                                                                                                                                                                                                         01091700000000000000109170000000000000       0090770900066125000731069746000066
100000000000000000000009077090006612500000000000000000000000010002100000075017176400000000002            2  01007501717610091700000002447930000000001N010917000000000000000000000000000000000000000000000000000000000000000100085839817872MAURO CORREIA MARTINS                   RUA PROFESSOR JOSE AZEVEDO MINHOTO - 72             06114000                                                            000068
2SR. CAIXA, APOS O VENCIMENTO COBRAR 10% DE MULTA                                NAO RECEBER APOS 30 DIAS DO VENCIMENTO.                                                                                                                                                                                                         01091700000000000000109170000000000000       0090770900066125000750171764000069
100000000000000000000009077090006612500000000000000000000000010002100000078753480800000000002            2  01007875348010091700000002186100000000001N010917000000000000000000000000000000000000000000000000000000000000000100043122850800ANTONIO JOAQUIM GOES                    ANTONIO DOAS DA SILVA - 412 - VILA AMALI            02618110                                                            000071
2SR. CAIXA, APOS O VENCIMENTO COBRAR 10% DE MULTA                                NAO RECEBER APOS 30 DIAS DO VENCIMENTO.                                                                                                                                                                                                         01091700000000000000109170000000000000       0090770900066125000787534808000072
100000000000000000000009077090006612500000000000000000000000010002100000086458088500000000002            2  01008645808810091700000002870210000000001N010917000000000000000000000000000000000000000000000000000000000000000100003865776841FRANCISCO JOSE ROCCO                    RUA FABIO JOSE BEZERRA - 130 AP.86 - PAR            03805000                                                            000074
2SR. CAIXA, APOS O VENCIMENTO COBRAR 10% DE MULTA                                NAO RECEBER APOS 30 DIAS DO VENCIMENTO.                                                                                                                                                                                                         01091700000000000000109170000000000000       0090770900066125000864580885000075
100000000000000000000009077090006612500000000000000000000000010002100000091508393800000000002            2  01009150839310091700000002559560000000001N010917000000000000000000000000000000000000000000000000000000000000000100028309524803DEISE RIBEIRO BARBOSA                   RUA CANDIDO JOSE DE ANDRADE - 173 - ERME            03807030                                                            000077
2SR. CAIXA, APOS O VENCIMENTO COBRAR 10% DE MULTA                                NAO RECEBER APOS 30 DIAS DO VENCIMENTO.                                                                                                                                                                                                         01091700000000000000109170000000000000       0090770900066125000915083938000078
100000000000000000000009077090006612500000000000000000000000010002100000093518695400000000002            2  01009351869510091700000003037900000000001N010917000000000000000000000000000000000000000000000000000000000000000100011277908893JOSE AILTON LOPES DE AZEVEDO            RUA MAESTRO JOAO SEPE - 19 - JARDIM MARI            04181030                                                            000080
2SR. CAIXA, APOS O VENCIMENTO COBRAR 10% DE MULTA                                NAO RECEBER APOS 30 DIAS DO VENCIMENTO.                                                                                                                                                                                                         01091700000000000000109170000000000000       0090770900066125000935186954000081
100000000000000000000009077090006612500000000000000000000000010002100000097808999500000000002            2  01009780899910091700000002290990000000001N010917000000000000000000000000000000000000000000000000000000000000000100025215106886KLEBER LUIZ DOS SANTOS                  RUA CAPITAO JOSE MEIRELES - 47 - CAPITAO            11330180                                                            000083
2SR. CAIXA, APOS O VENCIMENTO COBRAR 10% DE MULTA                                NAO RECEBER APOS 30 DIAS DO VENCIMENTO.                                                                                                                                                                                                         01091700000000000000109170000000000000       0090770900066125000978089995000084
100000000000000000000009077090006612500000000000000000000000010002100001014993103P00000000002            2  01101499310310091700000002558920000000001N010917000000000000000000000000000000000000000000000000000000000000000100090206789815NEREIDE RODRIGUES FERREIRA              AVENIDA PADRE ESTANISLAU DE CAMPOS - 205            03590060                                                            000086
2SR. CAIXA, APOS O VENCIMENTO COBRAR 10% DE MULTA                                NAO RECEBER APOS 30 DIAS DO VENCIMENTO.                                                                                                                                                                                                         01091700000000000000109170000000000000       009077090006612501014993103P000087
100000000000000000000009077090006612500000000000000000000000010002100010875100110800000000002            2  01108751001110091700000002995270000000001N010917000000000000000000000000000000000000000000000000000000000000000100029150742833ANA DEISE SANTOS DE ALMEIDA             RUA MONTE CASTELO - 296 AP.121 - AVIACAO            11702720                                                            000089
2SR. CAIXA, APOS O VENCIMENTO COBRAR 10% DE MULTA                                NAO RECEBER APOS 30 DIAS DO VENCIMENTO.                                                                                                                                                                                                         01091700000000000000109170000000000000       0090770900066125108751001108000090
100000000000000000000009077090006612500000000000000000000000010002100010977101111400000000002            2  01109771011110091700000002467150000000001N010917000000000000000000000000000000000000000000000000000000000000000100000811752801SERGIO BUENO DA SILVA                   RUA MONTE CASTELO - 262 AP.75 - AVIACAO             11702720                                                            000092
2SR. CAIXA, APOS O VENCIMENTO COBRAR 10% DE MULTA                                NAO RECEBER APOS 30 DIAS DO VENCIMENTO.                                                                                                                                                                                                         01091700000000000000109170000000000000       0090770900066125109771011114000093
100000000000000000000009077090006612500000000000000000000000010002100011283104115900000000002            2  01112831041110091700000002356880000000001N010917000000000000000000000000000000000000000000000000000000000000000100027100951810MARCIA RAMALHO RODRIGUES                RUA MONTE CASTELO - 296 AP.82 - AVIACAO             11702720                                                            000095
2SR. CAIXA, APOS O VENCIMENTO COBRAR 10% DE MULTA                                NAO RECEBER APOS 30 DIAS DO VENCIMENTO.                                                                                                                                                                                                         01091700000000000000109170000000000000       0090770900066125112831041159000096
100000000000000000000009077090006612500000000000000000000000010002100011573107118100000000002            2  01115731071110091700000003136260000000001N010917000000000000000000000000000000000000000000000000000000000000000100018344803888MARCELO BERNARDO                        RUA ESTONIA - 06 - INTERLAGOS - SAO PAUL            04785140                                                            000098
2SR. CAIXA, APOS O VENCIMENTO COBRAR 10% DE MULTA                                NAO RECEBER APOS 30 DIAS DO VENCIMENTO.                                                                                                                                                                                                         01091700000000000000109170000000000000       0090770900066125115731071181000099
100000000000000000000009077090006612500000000000000000000000010002100012583115128500000000002            2  01125831151210091700000002338840000000001N010917000000000000000000000000000000000000000000000000000000000000000100030210501820ROGERIO MUNIZ DA CUNHA                  RUA MONTE CASTELO - 296 AP.34 - AVIACAO             11702720                                                            000101
2SR. CAIXA, APOS O VENCIMENTO COBRAR 10% DE MULTA                                NAO RECEBER APOS 30 DIAS DO VENCIMENTO.                                                                                                                                                                                                         01091700000000000000109170000000000000       0090770900066125125831151285000102
100000000000000000000009077090006612500000000000000000000000010002100012791117130100000000002            2  01127911171310091700000004396980000000001N010917000000000000000000000000000000000000000000000000000000000000000100004004328896VANDERLEI  MARTINS DE ALMEIDA           RUA MONSENHOR TABOSA - 03 - PARQUE CISPE            03819300                                                            000104
2SR. CAIXA, APOS O VENCIMENTO COBRAR 10% DE MULTA                                NAO RECEBER APOS 30 DIAS DO VENCIMENTO.                                                                                                                                                                                                         01091700000000000000109170000000000000       0090770900066125127911171301000105
100000000000000000000009077090006612500000000000000000000000010002100013226120135200000000002            2  01132261201310091700000003003270000000001N010917000000000000000000000000000000000000000000000000000000000000000100005133053860VICENTE ARCIPRETE JUNIOR                RUA JOSE SIMOES FERREIRA FILHO - 80 - JA            06040090                                                            000107
2SR. CAIXA, APOS O VENCIMENTO COBRAR 10% DE MULTA                                NAO RECEBER APOS 30 DIAS DO VENCIMENTO.                                                                                                                                                                                                         01091700000000000000109170000000000000       0090770900066125132261201352000108
100000000000000000000009077090006612500000000000000000000000010002100001382192141100000000002            2  01138219214110091700000000730480000000001N010917000000000000000000000000000000000000000000000000000000000000000100056660235868JOSE DA SILVA                           RUA MONTE CASTELO - 296 AP.32 - AVIACAO             11702720                                                            000110
2SR. CAIXA, APOS O VENCIMENTO COBRAR 10% DE MULTA                                NAO RECEBER APOS 30 DIAS DO VENCIMENTO.                                                                                                                                                                                                         01091700000000000000109170000000000000       0090770900066125013821921411000111
100000000000000000000009077090006612500000000000000000000000010002100013901124142600000000002            2  01139011241410091700000002652860000000001N010917000000000000000000000000000000000000000000000000000000000000000100016339432832ALEX MONTEIRO DA SILVA                  RUA IVA MOURA LIMA - 04 - JARDIM MIRNA I            04855540                                                            000113
2SR. CAIXA, APOS O VENCIMENTO COBRAR 10% DE MULTA                                NAO RECEBER APOS 30 DIAS DO VENCIMENTO.                                                                                                                                                                                                         01091700000000000000109170000000000000       0090770900066125139011241426000114
100000000000000000000009077090006612500000000000000000000000010002100013999125143000000000002            2  01139991251410091700000002709070000000001N010917000000000000000000000000000000000000000000000000000000000000000100031803864877ELEILSON FELIPPE SANTOS                 RUA SANTA GREGORIA - 193 - CIDADE DUTRA             04806030                                                            000116
2SR. CAIXA, APOS O VENCIMENTO COBRAR 10% DE MULTA                                NAO RECEBER APOS 30 DIAS DO VENCIMENTO.                                                                                                                                                                                                         01091700000000000000109170000000000000       0090770900066125139991251430000117
100000000000000000000009077090006612500000000000000000000000010002100014425127147400000000002            2  01144251271410091700000001864280000000001N010917000000000000000000000000000000000000000000000000000000000000000100026032632857MARILA LOPES PEREIRA                    RUA ESTRADA DO M BOI MIRIM - 820 BL.05 A            04905000                                                            000119
2SR. CAIXA, APOS O VENCIMENTO COBRAR 10% DE MULTA                                NAO RECEBER APOS 30 DIAS DO VENCIMENTO.                                                                                                                                                                                                         01091700000000000000109170000000000000       0090770900066125144251271474000120
100000000000000000000009077090006612500000000000000000000000010002100014523128148800000000002            2  01145231281410091700000003228370000000001N010917000000000000000000000000000000000000000000000000000000000000000100063064537849ANTONIO APARECIDO DA SILVA DESTEFANO    RUA PROFESSOR TEODORO BRAGA - 46 - VILA             02966020                                                            000122
2SR. CAIXA, APOS O VENCIMENTO COBRAR 10% DE MULTA                                NAO RECEBER APOS 30 DIAS DO VENCIMENTO.                                                                                                                                                                                                         01091700000000000000109170000000000000       0090770900066125145231281488000123
100000000000000000000009077090006612500000000000000000000000010002100014857130152000000000002            2  01148571301510091700000003093740000000001N010917000000000000000000000000000000000000000000000000000000000000000100010107711834VALDEMAR FECCHIO                        RUA DOUTOR MARTINS DE OLIVEIRA - 529 AP.            05638030                                                            000125
2SR. CAIXA, APOS O VENCIMENTO COBRAR 10% DE MULTA                                NAO RECEBER APOS 30 DIAS DO VENCIMENTO.                                                                                                                                                                                                         01091700000000000000109170000000000000       0090770900066125148571301520000126
100000000000000000000009077090006612500000000000000000000000010002100015201131156000000000002            2  01152011311510091700000003979920000000001N010917000000000000000000000000000000000000000000000000000000000000000100003330791837MARLI DA SILVA BARBOSA                  RUA GLICERIO CERQUEIRA LEITE - 151 - JAR            03675040                                                            000128
2SR. CAIXA, APOS O VENCIMENTO COBRAR 10% DE MULTA                                NAO RECEBER APOS 30 DIAS DO VENCIMENTO.                                                                                                                                                                                                         01091700000000000000109170000000000000       0090770900066125152011311560000129
100000000000000000000009077090006612500000000000000000000000010002100015402132158300000000002            2  01154021321510091700000001617790000000001N010917000000000000000000000000000000000000000000000000000000000000000100008931031874MARIA MARINHO DE OLIVEIRA               AVENIDA 9 DE JULHO - 1854 AP.81 - BELA V            01312001                                                            000131
2SR. CAIXA, APOS O VENCIMENTO COBRAR 10% DE MULTA                                NAO RECEBER APOS 30 DIAS DO VENCIMENTO.                                                                                                                                                                                                         01091700000000000000109170000000000000       0090770900066125154021321583000132
100000000000000000000009077090006612500000000000000000000000010002100015607134160P00000000002            2  01156071341610091700000001879570000000001N010917000000000000000000000000000000000000000000000000000000000000000100005920579846SONIA MARIA VALDO POLLO                 RUA PALMIRA CERVI BARBARO - 797 - CIDADE            13214370                                                            000134
2SR. CAIXA, APOS O VENCIMENTO COBRAR 10% DE MULTA                                NAO RECEBER APOS 30 DIAS DO VENCIMENTO.                                                                                                                                                                                                         01091700000000000000109170000000000000       009077090006612515607134160P000135
100000000000000000000009077090006612500000000000000000000000010002100017887137181000000000002            2  01178871371810091700000002826020000000001N010917000000000000000000000000000000000000000000000000000000000000000100002494107881CIRO FRANCISCO MARCHI DURIGON           RUA MONTE CASTELO - 262 AP.115 - AVIACAO            11702720                                                            000137
2SR. CAIXA, APOS O VENCIMENTO COBRAR 10% DE MULTA                                NAO RECEBER APOS 30 DIAS DO VENCIMENTO.                                                                                                                                                                                                         01091700000000000000109170000000000000       0090770900066125178871371810000138
100000000000000000000009077090006612500000000000000000000000010002100019044150190700000000002            2  01190441501910091700000002778130000000001N010917000000000000000000000000000000000000000000000000000000000000000100007002345869DOMINGOS DE BRITO GALVAO                RUA MONTE CASTELO - 262 AP.44 - AVIACAO             11702720                                                            000140
2SR. CAIXA, APOS O VENCIMENTO COBRAR 10% DE MULTA                                NAO RECEBER APOS 30 DIAS DO VENCIMENTO.                                                                                                                                                                                                         01091700000000000000109170000000000000       0090770900066125190441501907000141
100000000000000000000009077090006612500000000000000000000000010002100019697155195400000000002            2  01196971551910091700000001157250000000001N010917000000000000000000000000000000000000000000000000000000000000000100009346863862NELSON DE SOUZA SANTOS                  RUA PRIMEIRA CRUZ - 90 - PARQUE INDEPEND            03236060                                                            000143
2SR. CAIXA, APOS O VENCIMENTO COBRAR 10% DE MULTA                                NAO RECEBER APOS 30 DIAS DO VENCIMENTO.                                                                                                                                                                                                         01091700000000000000109170000000000000       0090770900066125196971551954000144
100000000000000000000009077090006612500000000000000000000000010002100020050157198000000000002            2  01200501571910091700000002678090000000001N010917000000000000000000000000000000000000000000000000000000000000000100016299008857FERNANDO CESAR CARVALHO                 AVENIDA MARCONDES DE BRITO - 1340 AP.74             03509000                                                            000146
2SR. CAIXA, APOS O VENCIMENTO COBRAR 10% DE MULTA                                NAO RECEBER APOS 30 DIAS DO VENCIMENTO.                                                                                                                                                                                                         01091700000000000000109170000000000000       0090770900066125200501571980000147
100000000000000000000009077090006612500000000000000000000000010002100002251975219700000000002            2  01225197521910091700000002691090000000001N010917000000000000000000000000000000000000000000000000000000000000000100031082898880VANESSA DOS SANTOS NEIVA                RUA MONTE CASTELO - 296 AP.33 - BAIRRO A            11702720                                                            000149
2SR. CAIXA, APOS O VENCIMENTO COBRAR 10% DE MULTA                                NAO RECEBER APOS 30 DIAS DO VENCIMENTO.                                                                                                                                                                                                         01091700000000000000109170000000000000       0090770900066125022519752197000150
100000000000000000000009077090006612500000000000000000000000010002100026875143250500000000002            2  01268751432510091700000001638500000000001N010917000000000000000000000000000000000000000000000000000000000000000100065895304834MARINHO BARBOSA CUNHA                   AVENIDA EDU CHAVES - 639 AP.43 - PARQUE             02229000                                                            000152
2SR. CAIXA, APOS O VENCIMENTO COBRAR 10% DE MULTA                                NAO RECEBER APOS 30 DIAS DO VENCIMENTO.                                                                                                                                                                                                         01091700000000000000109170000000000000       0090770900066125268751432505000153
9                                                                                                                                                                                                                                                                                                                                                                                                         000154