01REMESSA01COBRANCA       00000000000005316116AIRES CONSTRUTORA E INCORPORAD237BRADESCO       010921        MX0000177                                                                                                                                                                                                                                                                                     000001
100000000000000000000009002800441612000000000000000000000000010002100003865709211800000000002            2  01038657092110092100000003646580000000001N010921000000000000000000000000000000000000000000000000000000000000000100003865776841FRANCISCO JOSE ROCCO                    AVENIDA PADRES OLIVETANOS - 215 AP.83 -             03648000                                                            000002
2SR. CAIXA, APOS O VENCIMENTO COBRAR 10% DE MULTA                                NAO RECEBER APOS 30 DIAS DO VENCIMENTO.                                                                                                                                                                                                         01092100000000000000109210000000000000       0090028004416120038657092118000003
100000000000000000000009002800441612000000000000000000000000010002100028309509211400000000002            2  01283095092110092100000003251910000000001N010921000000000000000000000000000000000000000000000000000000000000000100028309524803DEISE RIBEIRO BARBOSA                   RUA CANDIDO JOSE DE ANDRADE - 173 - ERME            03807030                                                            000005
2SR. CAIXA, APOS O VENCIMENTO COBRAR 10% DE MULTA                                NAO RECEBER APOS 30 DIAS DO VENCIMENTO.                                                                                                                                                                                                         01092100000000000000109210000000000000       0090028004416120283095092114000006
100000000000000000000009002800441612000000000000000000000000010002100011277909211400000000002            2  01112779092110092100000003859670000000001N010921000000000000000000000000000000000000000000000000000000000000000100011277908893JOSE AILTON LOPES DE AZEVEDO            RUA MAESTRO JOAO SEPE - 19 - JARDIM MARI            04181030                                                            000008
2SR. CAIXA, APOS O VENCIMENTO COBRAR 10% DE MULTA                                NAO RECEBER APOS 30 DIAS DO VENCIMENTO.                                                                                                                                                                                                         01092100000000000000109210000000000000       0090028004416120112779092114000009
100000000000000000000009002800441612000000000000000000000000010002100025215109211100000000002            2  01252151092110092100000002910650000000001N010921000000000000000000000000000000000000000000000000000000000000000100025215106886KLEBER LUIZ DOS SANTOS                  RUA MONTE CASTELO - 262 AP.15 - AVIACAO             11702720                                                            000011
2SR. CAIXA, APOS O VENCIMENTO COBRAR 10% DE MULTA                                NAO RECEBER APOS 30 DIAS DO VENCIMENTO.                                                                                                                                                                                                         01092100000000000000109210000000000000       0090028004416120252151092111000012
100000000000000000000009002800441612000000000000000000000000010002100090206709211900000000002            2  01902067092110092100000003251080000000001N010921000000000000000000000000000000000000000000000000000000000000000100090206789815NEREIDE RODRIGUES FERREIRA              AVENIDA PADRE ESTANISLAU DE CAMPOS - 205            03590060                                                            000014
2SR. CAIXA, APOS O VENCIMENTO COBRAR 10% DE MULTA                                NAO RECEBER APOS 30 DIAS DO VENCIMENTO.                                                                                                                                                                                                         01092100000000000000109210000000000000       0090028004416120902067092119000015
100000000000000000000009002800441612000000000000000000000000010002100029150709211700000000002            2  01291507092110092100000003805440000000001N010921000000000000000000000000000000000000000000000000000000000000000100029150742833ANA DEISE SANTOS DE ALMEIDA             RUA MONTE CASTELO - 296 AP.121 - AVIACAO            11702720                                                            000017
2SR. CAIXA, APOS O VENCIMENTO COBRAR 10% DE MULTA                                NAO RECEBER APOS 30 DIAS DO VENCIMENTO.                                                                                                                                                                                                         01092100000000000000109210000000000000       0090028004416120291507092117000018
100000000000000000000009002800441612000000000000000000000000010002100000811709211200000000002            2  01008117092110092100000003134480000000001N010921000000000000000000000000000000000000000000000000000000000000000100000811752801SERGIO BUENO DA SILVA                   RUA MONTE CASTELO - 262 AP.75 - AVIACAO             11702720                                                            000020
2SR. CAIXA, APOS O VENCIMENTO COBRAR 10% DE MULTA                                NAO RECEBER APOS 30 DIAS DO VENCIMENTO.                                                                                                                                                                                                         01092100000000000000109210000000000000       0090028004416120008117092112000021
100000000000000000000009002800441612000000000000000000000000010002100018344809211900000000002            2  01183448092110092100000004262120000000001N010921000000000000000000000000000000000000000000000000000000000000000100018344803888MARCELO BERNARDO                        RUA MONTE CASTELO - 262 AP.84 - AVIACAO             11702720                                                            000023
2SR. CAIXA, APOS O VENCIMENTO COBRAR 10% DE MULTA                                NAO RECEBER APOS 30 DIAS DO VENCIMENTO.                                                                                                                                                                                                         01092100000000000000109210000000000000       0090028004416120183448092119000024
100000000000000000000009002800441612000000000000000000000000010002100004004309211600000000002            2  01040043092110092100000005586290000000001N010921000000000000000000000000000000000000000000000000000000000000000100004004328896VANDERLEI  MARTINS DE ALMEIDA           RUA MONSENHOR TABOSA - 03 - PARQUE CISPE            03819300                                                            000026
2SR. CAIXA, APOS O VENCIMENTO COBRAR 10% DE MULTA                                NAO RECEBER APOS 30 DIAS DO VENCIMENTO.                                                                                                                                                                                                         01092100000000000000109210000000000000       0090028004416120040043092116000027
100000000000000000000009002800441612000000000000000000000000010002100031803809211400000000002            2  01318038092110092100000003441870000000001N010921000000000000000000000000000000000000000000000000000000000000000100031803864877ELEILSON FELIPPE SANTOS                 RUA SANTA GREGORIA - 193 - CIDADE DUTRA             04806030                                                            000029
2SR. CAIXA, APOS O VENCIMENTO COBRAR 10% DE MULTA                                NAO RECEBER APOS 30 DIAS DO VENCIMENTO.                                                                                                                                                                                                         01092100000000000000109210000000000000       0090028004416120318038092114000030
100000000000000000000009002800441612000000000000000000000000010002100063064509211900000000002            2  01630645092110092100000004101600000000001N010921000000000000000000000000000000000000000000000000000000000000000100063064537849ANTONIO APARECIDO DA SILVA DESTEFANO    RUA PROFESSOR TEODORO BRAGA - 46 - VILA             02966020                                                            000032
2SR. CAIXA, APOS O VENCIMENTO COBRAR 10% DE MULTA                                NAO RECEBER APOS 30 DIAS DO VENCIMENTO.                                                                                                                                                                                                         01092100000000000000109210000000000000       0090028004416120630645092119000033
100000000000000000000009002800441612000000000000000000000000010002100005920509211800000000002            2  01059205092110092100000002387980000000001N010921000000000000000000000000000000000000000000000000000000000000000100005920579846SONIA MARIA VALDO POLLO                 RUA PALMIRA CERVI BARBARO - 797 - CIDADE            13214370                                                            000035
2SR. CAIXA, APOS O VENCIMENTO COBRAR 10% DE MULTA                                NAO RECEBER APOS 30 DIAS DO VENCIMENTO.                                                                                                                                                                                                         01092100000000000000109210000000000000       0090028004416120059205092118000036
100000000000000000000009002800441612000000000000000000000000010002100002494109211900000000002            2  01024941092110092100000003590440000000001N010921000000000000000000000000000000000000000000000000000000000000000100002494107881CIRO FRANCISCO MARCHI DURIGON           RUA MONTE CASTELO - 262 AP.115 - AVIACAO            11702720                                                            000038
2SR. CAIXA, APOS O VENCIMENTO COBRAR 10% DE MULTA                                NAO RECEBER APOS 30 DIAS DO VENCIMENTO.                                                                                                                                                                                                         01092100000000000000109210000000000000       0090028004416120024941092119000039
100000000000000000000009002800441612000000000000000000000000010002100007002309211600000000002            2  01070023092110092100000003529570000000001N010921000000000000000000000000000000000000000000000000000000000000000100007002345869DOMINGOS DE BRITO GALVAO                RUA MONTE CASTELO - 262 AP.44 - AVIACAO             11702720                                                            000041
2SR. CAIXA, APOS O VENCIMENTO COBRAR 10% DE MULTA                                NAO RECEBER APOS 30 DIAS DO VENCIMENTO.                                                                                                                                                                                                         01092100000000000000109210000000000000       0090028004416120070023092116000042
100000000000000000000009002800441612000000000000000000000000010002100016299009211P00000000002            2  01162990092110092100000003402510000000001N010921000000000000000000000000000000000000000000000000000000000000000100016299008857FERNANDO CESAR CARVALHO                 AVENIDA MARCONDES DE BRITO - 1340 AP.74             03509000                                                            000044
2SR. CAIXA, APOS O VENCIMENTO COBRAR 10% DE MULTA                                NAO RECEBER APOS 30 DIAS DO VENCIMENTO.                                                                                                                                                                                                         01092100000000000000109210000000000000       009002800441612016299009211P000045
100000000000000000000009002800441612000000000000000000000000010002100065895309211300000000002            2  01658953092110092100000002081650000000001N010921000000000000000000000000000000000000000000000000000000000000000100065895304834MARINHO BARBOSA CUNHA                   AVENIDA EDU CHAVES - 639 AP.43 - PARQUE             02229000                                                            000047
2SR. CAIXA, APOS O VENCIMENTO COBRAR 10% DE MULTA                                NAO RECEBER APOS 30 DIAS DO VENCIMENTO.                                                                                                                                                                                                         01092100000000000000109210000000000000       0090028004416120658953092113000048
100000000000000000000009002800441612000000000000000000000000010002100055975309211000000000002            2  01559753092110092100000000777000000000001N010921000000000000000000000000000000000000000000000000000000000000000100055975372887BENEVENUTO THEODORO DA SILVA NETO       RUA MONTE CASTELO - 296 AP.63 - AVIACAO             11702720                                                            000050
2SR. CAIXA, APOS O VENCIMENTO COBRAR 10% DE MULTA                                NAO RECEBER APOS 30 DIAS DO VENCIMENTO.                                                                                                                                                                                                         01092100000000000000109210000000000000       0090028004416120559753092110000051
9                                                                                                                                                                                                                                                                                                                                                                                                         000052