01REMESSA01COBRANCA       00000000000008017025HB SANTOS CONSTRUTORA E INCORP237BRADESCO       050821        MX0000134                                                                                                                                                                                                                                                                                     000001
100000000000000000000009033990000627000000000000000000000000010002020025035108211800000000002            2  01250351082124082100000002502020000000001N050821000000000000000000000000000000000000000000000000000000000000000100025035170802WANDERSON LUIS DE CARVALHO              RUA JOAQUIM GONCALVES ROCHA - 302 - JARD            02859030                                                            000002
2SR. CAIXA, APOS O VENCIMENTO COBRAR 2% DE MULTA                                 NAO RECEBER APOS 30 DIAS DO VENCIMENTO.                                                                                                                                                                                                         05082100000000000000508210000000000000       0090339900006270250351082118000003
100000000000000000000009033990000627000000000000000000000000010002020007294308211500000000002            2  01072943082124082100000003365230000000001N050821000000000000000000000000000000000000000000000000000000000000000100007294351805CLAUDENIR APARECIDO VACARI              RUA CARLOS JOSE BORSTENS - 50 AP.93 - AV            11702750                                                            000005
2SR. CAIXA, APOS O VENCIMENTO COBRAR 2% DE MULTA                                 NAO RECEBER APOS 30 DIAS DO VENCIMENTO.                                                                                                                                                                                                         05082100000000000000508210000000000000       0090339900006270072943082115000006
100000000000000000000009033990000627000000000000000000000000010002020007525008211000000000002            2  01075250082124082100000003764170000000001N050821000000000000000000000000000000000000000000000000000000000000000100007525032866FERNANDO RIBEIRO                        RUA CARLOS JOSE BORSTENS - 50 AP.32 - AV            11702750                                                            000008
2SR. CAIXA, APOS O VENCIMENTO COBRAR 2% DE MULTA                                 NAO RECEBER APOS 30 DIAS DO VENCIMENTO.                                                                                                                                                                                                         05082100000000000000508210000000000000       0090339900006270075250082110000009
100000000000000000000009033990000627000000000000000000000000010002020005071408211600000000002            2  01050714082124082100000003301910000000001N050821000000000000000000000000000000000000000000000000000000000000000100005071481855ERIBALDO SANTANA CARVALHO               RUA HONDURAS - 477 - PARQUE DAS AMERICAS            09351070                                                            000011
2SR. CAIXA, APOS O VENCIMENTO COBRAR 2% DE MULTA                                 NAO RECEBER APOS 30 DIAS DO VENCIMENTO.                                                                                                                                                                                                         05082100000000000000508210000000000000       0090339900006270050714082116000012
100000000000000000000009033990000627000000000000000000000000010002020002841708211P00000000002            2  01028417082124082100000003089240000000001N050821000000000000000000000000000000000000000000000000000000000000000100002841756416LUCIANA PINHEIRO DE ASSIS NUNES         RUA RIO ACIMA - 81 - RIACHO GRANDE - SAO            09830100                                                            000014
2SR. CAIXA, APOS O VENCIMENTO COBRAR 2% DE MULTA                                 NAO RECEBER APOS 30 DIAS DO VENCIMENTO.                                                                                                                                                                                                         05082100000000000000508210000000000000       009033990000627002841708211P000015
100000000000000000000009033990000627000000000000000000000000010002020084302008211900000000002            2  01843020082124082100000003104050000000001N050821000000000000000000000000000000000000000000000000000000000000000100084302097868FAUSTO TADEU VILOR                      RUA ANTONIO TAVARES - 466 - BAIRRO CAMBU            01542010                                                            000017
2SR. CAIXA, APOS O VENCIMENTO COBRAR 2% DE MULTA                                 NAO RECEBER APOS 30 DIAS DO VENCIMENTO.                                                                                                                                                                                                         05082100000000000000508210000000000000       0090339900006270843020082119000018
100000000000000000000009033990000627000000000000000000000000010002020028804208211900000000002            2  01288042082124082100000003049770000000001N050821000000000000000000000000000000000000000000000000000000000000000100028804202882GILBERTO FABIANO CABRAL DE CAMARGO      RUA CARLOS JOSE BORSTENS - 50 AP.44 - AV            11702750                                                            000020
2SR. CAIXA, APOS O VENCIMENTO COBRAR 2% DE MULTA                                 NAO RECEBER APOS 30 DIAS DO VENCIMENTO.                                                                                                                                                                                                         05082100000000000000508210000000000000       0090339900006270288042082119000021
100000000000000000000009033990000627000000000000000000000000010002020000991708211100000000002            2  01009917082124082100000002976690000000001N050821000000000000000000000000000000000000000000000000000000000000000100000991748808JAILSON BORGES DE ANDRADE               RUA IPIOBUNA - 45 - JARDIM CUMBICA - GUA            07240040                                                            000023
2SR. CAIXA, APOS O VENCIMENTO COBRAR 2% DE MULTA                                 NAO RECEBER APOS 30 DIAS DO VENCIMENTO.                                                                                                                                                                                                         05082100000000000000508210000000000000       0090339900006270009917082111000024
100000000000000000000009033990000627000000000000000000000000010002020022151608211800000000002            2  01221516082124082100000002959390000000001N050821000000000000000000000000000000000000000000000000000000000000000100022151666816SAMIR LIMA DE ARAUJO                    AVENIDA GUARAPIRANGA - 2616 AP.131 BL.14            04902005                                                            000026
2SR. CAIXA, APOS O VENCIMENTO COBRAR 2% DE MULTA                                 NAO RECEBER APOS 30 DIAS DO VENCIMENTO.                                                                                                                                                                                                         05082100000000000000508210000000000000       0090339900006270221516082118000027
100000000000000000000009033990000627000000000000000000000000010002020022313108211P00000000002            2  01223131082126082100000002276490000000001N050821000000000000000000000000000000000000000000000000000000000000000100022313116824ROSA MARIA BRITO DA SILVA               RUA SERVIDAO DE SAO MARCOS - 113 - JARDI            04930300                                                            000029
2SR. CAIXA, APOS O VENCIMENTO COBRAR 2% DE MULTA                                 NAO RECEBER APOS 30 DIAS DO VENCIMENTO.                                                                                                                                                                                                         05082100000000000000508210000000000000       009033990000627022313108211P000030
100000000000000000000009033990000627000000000000000000000000010002020027538008211100000000002            2  01275380082126082100000002284430000000001N050821000000000000000000000000000000000000000000000000000000000000000100027538087249MARA LUCIA MENEZES DA COSTA             RUA LEILA  - 183 - ITAQUERA - SAO PAULO             08240020                                                            000032
2SR. CAIXA, APOS O VENCIMENTO COBRAR 2% DE MULTA                                 NAO RECEBER APOS 30 DIAS DO VENCIMENTO.                                                                                                                                                                                                         05082100000000000000508210000000000000       0090339900006270275380082111000033
100000000000000000000009033990000627000000000000000000000000010002020031278408211800000000002            2  01312784082124082100000002858880000000001N050821000000000000000000000000000000000000000000000000000000000000000100031278411836JEFFERSON DE PIERI PIRES ZAMUNER        RUA MANOEL ARCE - 277 - PARQUE BANCARIO             03922150                                                            000035
2SR. CAIXA, APOS O VENCIMENTO COBRAR 2% DE MULTA                                 NAO RECEBER APOS 30 DIAS DO VENCIMENTO.                                                                                                                                                                                                         05082100000000000000508210000000000000       0090339900006270312784082118000036
100000000000000000000009033990000627000000000000000000000000010002020019185708211P00000000002            2  01191857082126082100000002078880000000001N050821000000000000000000000000000000000000000000000000000000000000000100019185769800AGUINALDO PESSOA DE LIMA                RUA JANUARIO ZINGARO - 252 AP.303 BL.04             05794300                                                            000038
2SR. CAIXA, APOS O VENCIMENTO COBRAR 2% DE MULTA                                 NAO RECEBER APOS 30 DIAS DO VENCIMENTO.                                                                                                                                                                                                         05082100000000000000508210000000000000       009033990000627019185708211P000039
100000000000000000000009033990000627000000000000000000000000010002020033303608211000000000002            2  01333036082126082100000002239130000000001N050821000000000000000000000000000000000000000000000000000000000000000100033303645809JESSICA DA SILVA FREITAS                RUA ARILDO VALADAO - 120 - JARDIM GUAEMB            04814600                                                            000041
2SR. CAIXA, APOS O VENCIMENTO COBRAR 2% DE MULTA                                 NAO RECEBER APOS 30 DIAS DO VENCIMENTO.                                                                                                                                                                                                         05082100000000000000508210000000000000       0090339900006270333036082110000042
100000000000000000000009033990000627000000000000000000000000010002020006422608211600000000002            2  01064226082124082100000003096220000000001N050821000000000000000000000000000000000000000000000000000000000000000100006422607881GERALDO ALVES DA SILVA                  RUA CARLOS JOSE BORSTENS - 50 AP.14 - AV            11702750                                                            000044
2SR. CAIXA, APOS O VENCIMENTO COBRAR 2% DE MULTA                                 NAO RECEBER APOS 30 DIAS DO VENCIMENTO.                                                                                                                                                                                                         05082100000000000000508210000000000000       0090339900006270064226082116000045
100000000000000000000009033990000627000000000000000000000000010002020033877108211800000000002            2  01338771082126082100000002099260000000001N050821000000000000000000000000000000000000000000000000000000000000000100033877129870HELDER FERREIRA VIANA                   RUA JOSE CALIXTO DO CARMO - 286 AP.35 -             11702690                                                            000047
2SR. CAIXA, APOS O VENCIMENTO COBRAR 2% DE MULTA                                 NAO RECEBER APOS 30 DIAS DO VENCIMENTO.                                                                                                                                                                                                         05082100000000000000508210000000000000       0090339900006270338771082118000048
100000000000000000000009033990000627000000000000000000000000010002020028290708211100000000002            2  01282907082126082100000001934740000000001N050821000000000000000000000000000000000000000000000000000000000000000100028290719809VANESSA GIANGARRELLI PEREIRA            RUA BARINEL - 72 - JARDIM COTCHING - SAO            03462130                                                            000050
2SR. CAIXA, APOS O VENCIMENTO COBRAR 2% DE MULTA                                 NAO RECEBER APOS 30 DIAS DO VENCIMENTO.                                                                                                                                                                                                         05082100000000000000508210000000000000       0090339900006270282907082111000051
100000000000000000000009033990000627000000000000000000000000010002020087573008211700000000002            2  01875730082126082100000002112710000000001N050821000000000000000000000000000000000000000000000000000000000000000100087573059604VANDERLEY DE ASSIS                      RUA ROMEU ALBANI - 268 - JARDIM PARQUE R            13803810                                                            000053
2SR. CAIXA, APOS O VENCIMENTO COBRAR 2% DE MULTA                                 NAO RECEBER APOS 30 DIAS DO VENCIMENTO.                                                                                                                                                                                                         05082100000000000000508210000000000000       0090339900006270875730082117000054
100000000000000000000009033990000627000000000000000000000000010002020010825508211400000000002            2  01108255082126082100000002204710000000001N050821000000000000000000000000000000000000000000000000000000000000000100010825513847JOSE APARECIDO PEREIRA                  RUA GENERAL OSORIO - 305 - JARDIM TRINTA            11515130                                                            000056
2SR. CAIXA, APOS O VENCIMENTO COBRAR 2% DE MULTA                                 NAO RECEBER APOS 30 DIAS DO VENCIMENTO.                                                                                                                                                                                                         05082100000000000000508210000000000000       0090339900006270108255082114000057
100000000000000000000009033990000627000000000000000000000000010002020039115108211600000000002            2  01391151082126082100000002717700000000001N050821000000000000000000000000000000000000000000000000000000000000000100039115139840LAIS CRISTINA RIBEIRO ANDO              RUA JOSE CALIXTO DO CARMO - 286 AP.65 -             11702690                                                            000059
2SR. CAIXA, APOS O VENCIMENTO COBRAR 2% DE MULTA                                 NAO RECEBER APOS 30 DIAS DO VENCIMENTO.                                                                                                                                                                                                         05082100000000000000508210000000000000       0090339900006270391151082116000060
100000000000000000000009033990000627000000000000000000000000010002020029617508211400000000002            2  01296175082124082100000003039030000000001N050821000000000000000000000000000000000000000000000000000000000000000100029617510553MARILENE SOUZA DE OLIVEIRA              AVENIDA BRASIL - 393 AP.09 - PARQUE DAS             09210280                                                            000062
2SR. CAIXA, APOS O VENCIMENTO COBRAR 2% DE MULTA                                 NAO RECEBER APOS 30 DIAS DO VENCIMENTO.                                                                                                                                                                                                         05082100000000000000508210000000000000       0090339900006270296175082114000063
100000000000000000000009033990000627000000000000000000000000010002020000593208211400000000002            2  01005932082124082100000003333080000000001N050821000000000000000000000000000000000000000000000000000000000000000100000593293860WALTER HELIO BARBOSA FILHO              AVENIDA ANTONIO FREDERICO OZANAN - 9500             13214206                                                            000065
2SR. CAIXA, APOS O VENCIMENTO COBRAR 2% DE MULTA                                 NAO RECEBER APOS 30 DIAS DO VENCIMENTO.                                                                                                                                                                                                         05082100000000000000508210000000000000       0090339900006270005932082114000066
100000000000000000000009033990000627000000000000000000000000010002020065584108211600000000002            2  01655841082124082100000001749700000000001N050821000000000000000000000000000000000000000000000000000000000000000100065584147834JOAQUIM DA COSTA MACHADO NETO           RUA CARLOS JOSE BORSTENS - 50 AP.42 - AV            11702750                                                            000068
2SR. CAIXA, APOS O VENCIMENTO COBRAR 2% DE MULTA                                 NAO RECEBER APOS 30 DIAS DO VENCIMENTO.                                                                                                                                                                                                         05082100000000000000508210000000000000       0090339900006270655841082116000069
100000000000000000000009033990000627000000000000000000000000010002020065584108212400000000002            2  01655841082124082100000001749680000000001N050821000000000000000000000000000000000000000000000000000000000000000100065584147834JOAQUIM DA COSTA MACHADO NETO           RUA CARLOS JOSE BORSTENS - 50 AP.42 - AV            11702750                                                            000071
2SR. CAIXA, APOS O VENCIMENTO COBRAR 2% DE MULTA                                 NAO RECEBER APOS 30 DIAS DO VENCIMENTO.                                                                                                                                                                                                         05082100000000000000508210000000000000       0090339900006270655841082124000072
100000000000000000000009033990000627000000000000000000000000010002020006684608211900000000002            2  01066846082126082100000002238860000000001N050821000000000000000000000000000000000000000000000000000000000000000100006684623884LAUDINOR VIEIRA GARCIA                  RUA CANDIDO SALES - 374 - JARDIM PRESIDE            07172000                                                            000074
2SR. CAIXA, APOS O VENCIMENTO COBRAR 2% DE MULTA                                 NAO RECEBER APOS 30 DIAS DO VENCIMENTO.                                                                                                                                                                                                         05082100000000000000508210000000000000       0090339900006270066846082119000075
100000000000000000000009033990000627000000000000000000000000010002020011663508211P00000000002            2  01116635082126082100000002254960000000001N050821000000000000000000000000000000000000000000000000000000000000000100011663589844MARIA SAVIO QUARELLO                    AVENIDA MENDONCA DRUMOND - 321 - JARDIM             03524030                                                            000077
2SR. CAIXA, APOS O VENCIMENTO COBRAR 2% DE MULTA                                 NAO RECEBER APOS 30 DIAS DO VENCIMENTO.                                                                                                                                                                                                         05082100000000000000508210000000000000       009033990000627011663508211P000078
100000000000000000000009033990000627000000000000000000000000010002020010083808211100000000002            2  01100838082126082100000002178670000000001N050821000000000000000000000000000000000000000000000000000000000000000100010083824855IONE FERREIRA COUTO DA SILVA            RUA JOSE RAGEL DE MESQUITA - 60 CS.01 -             07799999                                                            000080
2SR. CAIXA, APOS O VENCIMENTO COBRAR 2% DE MULTA                                 NAO RECEBER APOS 30 DIAS DO VENCIMENTO.                                                                                                                                                                                                         05082100000000000000508210000000000000       0090339900006270100838082111000081
100000000000000000000009033990000627000000000000000000000000010002020031010708211700000000002            2  01310107082126082100000002137980000000001N050821000000000000000000000000000000000000000000000000000000000000000100031010705890ANDRE GONZALEZ RABELLO                  RUA PARAIBA - 106 AP.61 - POMPEIA - SANT            11065470                                                            000083
2SR. CAIXA, APOS O VENCIMENTO COBRAR 2% DE MULTA                                 NAO RECEBER APOS 30 DIAS DO VENCIMENTO.                                                                                                                                                                                                         05082100000000000000508210000000000000       0090339900006270310107082117000084
100000000000000000000009033990000627000000000000000000000000010002020005351008211600000000002            2  01053510082126082100000002004570000000001N050821000000000000000000000000000000000000000000000000000000000000000100005351015897VALERIA ALVES MARCOLINO HINNIGER        RUA JOSE CALIXTO DO CARMO - 286 AP.92 -             11702690                                                            000086
2SR. CAIXA, APOS O VENCIMENTO COBRAR 2% DE MULTA                                 NAO RECEBER APOS 30 DIAS DO VENCIMENTO.                                                                                                                                                                                                         05082100000000000000508210000000000000       0090339900006270053510082116000087
100000000000000000000009033990000627000000000000000000000000010002020031898708211100000000002            2  01318987082124082100000003189220000000001N050821000000000000000000000000000000000000000000000000000000000000000100031898775800ANITA MARTINS COLOMBO                   RUA CARLOS JOSE BORSTENS - 50 AP.115 - A            11702750                                                            000089
2SR. CAIXA, APOS O VENCIMENTO COBRAR 2% DE MULTA                                 NAO RECEBER APOS 30 DIAS DO VENCIMENTO.                                                                                                                                                                                                         05082100000000000000508210000000000000       0090339900006270318987082111000090
100000000000000000000009033990000627000000000000000000000000010002020037983408211100000000002            2  01379834082126082100000002354740000000001N050821000000000000000000000000000000000000000000000000000000000000000100037983484801JOSE ERIVALDO SOUZA DO NASCIMENTO RAMOS RUA LETICIA - 250 - JARDIM GUARUJA - SAO            05877260                                                            000092
2SR. CAIXA, APOS O VENCIMENTO COBRAR 2% DE MULTA                                 NAO RECEBER APOS 30 DIAS DO VENCIMENTO.                                                                                                                                                                                                         05082100000000000000508210000000000000       0090339900006270379834082111000093
100000000000000000000009033990000627000000000000000000000000010002020056289208211200000000002            2  01562892082126082100000001778880000000001N050821000000000000000000000000000000000000000000000000000000000000000100056289286900PEDRO RIBEIRO                           RUA CONEGO MANOEL VAZ - 48 - SANTANA - S            02019050                                                            000095
2SR. CAIXA, APOS O VENCIMENTO COBRAR 2% DE MULTA                                 NAO RECEBER APOS 30 DIAS DO VENCIMENTO.                                                                                                                                                                                                         05082100000000000000508210000000000000       0090339900006270562892082112000096
100000000000000000000009033990000627000000000000000000000000010002020034735308211900000000002            2  01347353082126082100000002441400000000001N050821000000000000000000000000000000000000000000000000000000000000000100034735328866DIEGO FELIPE MOLINA DA SILVA E SOUSA    RUA EMILIA PAULISTA - 135 - VILA TIRADEN            05364020                                                            000098
2SR. CAIXA, APOS O VENCIMENTO COBRAR 2% DE MULTA                                 NAO RECEBER APOS 30 DIAS DO VENCIMENTO.                                                                                                                                                                                                         05082100000000000000508210000000000000       0090339900006270347353082119000099
100000000000000000000009033990000627000000000000000000000000010002020076175608211P00000000002            2  01761756082124082100000004425980000000001N050821000000000000000000000000000000000000000000000000000000000000000100076175685687GILMAR DE OLIVEIRA BRAGA                RUA MARACAJU - 161 AP.202 - NOVA GRANADA            30431350                                                            000101
2SR. CAIXA, APOS O VENCIMENTO COBRAR 2% DE MULTA                                 NAO RECEBER APOS 30 DIAS DO VENCIMENTO.                                                                                                                                                                                                         05082100000000000000508210000000000000       009033990000627076175608211P000102
100000000000000000000009033990000627000000000000000000000000010002020034812208211200000000002            2  01348122082124082100000004221080000000001N050821000000000000000000000000000000000000000000000000000000000000000100034812226880THAIS TORQUATO MIMOSO DE JESUS          RUA ARNALDO CINTRA - 416 AP.104 TORRE 2             03088000                                                            000104
2SR. CAIXA, APOS O VENCIMENTO COBRAR 2% DE MULTA                                 NAO RECEBER APOS 30 DIAS DO VENCIMENTO.                                                                                                                                                                                                         05082100000000000000508210000000000000       0090339900006270348122082112000105
100000000000000000000009033990000627000000000000000000000000010002020012849408211900000000002            2  01128494082126082100000004205890000000001N050821000000000000000000000000000000000000000000000000000000000000000100012849428809MOISES CLAUDIO DO ROSARIO               AVENIDA DR. AUGUSTO DE TOLEDO - 510 AP.1            09541520                                                            000107
2SR. CAIXA, APOS O VENCIMENTO COBRAR 2% DE MULTA                                 NAO RECEBER APOS 30 DIAS DO VENCIMENTO.                                                                                                                                                                                                         05082100000000000000508210000000000000       0090339900006270128494082119000108
100000000000000000000009033990000627000000000000000000000000010002020015702308211900000000002            2  01157023082126082100000002333510000000001N050821000000000000000000000000000000000000000000000000000000000000000100015702353846MARIA DE LOURDES DE MACENO SOUZA        RUA JOSE CALIXTO DO CARMO - 286 AP.83 -             11702690                                                            000110
2SR. CAIXA, APOS O VENCIMENTO COBRAR 2% DE MULTA                                 NAO RECEBER APOS 30 DIAS DO VENCIMENTO.                                                                                                                                                                                                         05082100000000000000508210000000000000       0090339900006270157023082119000111
100000000000000000000009033990000627000000000000000000000000010002020003658608211300000000002            2  01036586082126082100000001737530000000001N050821000000000000000000000000000000000000000000000000000000000000000100003658668814MARINEZ VALENTIN                        RUA JOSE CALIXTO DO CARMO - 286 AP.95 -             11702690                                                            000113
2SR. CAIXA, APOS O VENCIMENTO COBRAR 2% DE MULTA                                 NAO RECEBER APOS 30 DIAS DO VENCIMENTO.                                                                                                                                                                                                         05082100000000000000508210000000000000       0090339900006270036586082113000114
100000000000000000000009033990000627000000000000000000000000010002020003658608212100000000002            2  01036586082126082100000001737520000000001N050821000000000000000000000000000000000000000000000000000000000000000100003658668814MARINEZ VALENTIN                        RUA JOSE CALIXTO DO CARMO - 286 AP.95 -             11702690                                                            000116
2SR. CAIXA, APOS O VENCIMENTO COBRAR 2% DE MULTA                                 NAO RECEBER APOS 30 DIAS DO VENCIMENTO.                                                                                                                                                                                                         05082100000000000000508210000000000000       0090339900006270036586082121000117
100000000000000000000009033990000627000000000000000000000000010002020014087408211100000000002            2  01140874082126082100000002322060000000001N050821000000000000000000000000000000000000000000000000000000000000000100014087484874SERGIO SANTOS DO NASCIMENTO             RUA PANTALEAO BRAZ - 21 - JARDIM ESTER -            05372080                                                            000119
2SR. CAIXA, APOS O VENCIMENTO COBRAR 2% DE MULTA                                 NAO RECEBER APOS 30 DIAS DO VENCIMENTO.                                                                                                                                                                                                         05082100000000000000508210000000000000       0090339900006270140874082111000120
100000000000000000000009033990000627000000000000000000000000010002020026834508211000000000002            2  01268345082126082100000002139500000000001N050821000000000000000000000000000000000000000000000000000000000000000100026834550895RAQUEL CARDOSO JOAO                     RUA PEDROSO XAVIER - 277 AP.23 TORRE 01             02732020                                                            000122
2SR. CAIXA, APOS O VENCIMENTO COBRAR 2% DE MULTA                                 NAO RECEBER APOS 30 DIAS DO VENCIMENTO.                                                                                                                                                                                                         05082100000000000000508210000000000000       0090339900006270268345082110000123
100000000000000000000009033990000627000000000000000000000000010002020039540008211900000000002            2  01395400082126082100000002103430000000001N050821000000000000000000000000000000000000000000000000000000000000000100039540008816LUZINETE CLARINDO SILVA                 RUA DEINOS - 275 - BAIRRO CIDADE SATELIT            08340100                                                            000125
2SR. CAIXA, APOS O VENCIMENTO COBRAR 2% DE MULTA                                 NAO RECEBER APOS 30 DIAS DO VENCIMENTO.                                                                                                                                                                                                         05082100000000000000508210000000000000       0090339900006270395400082119000126
100000000000000000000009033990000627000000000000000000000000010002020003311008211600000000002            2  01033110082126082100000002190460000000001N050821000000000000000000000000000000000000000000000000000000000000000100003311030877SEBASTIAO SARUVA NETO                   RUA HAMILTON REGIS - 559 - BAIRRO DO LIM            08051440                                                            000128
2SR. CAIXA, APOS O VENCIMENTO COBRAR 2% DE MULTA                                 NAO RECEBER APOS 30 DIAS DO VENCIMENTO.                                                                                                                                                                                                         05082100000000000000508210000000000000       0090339900006270033110082116000129
100000000000000000000009033990000627000000000000000000000000010002020090091908211200000000002            2  01900919082126082100000002093780000000001N050821000000000000000000000000000000000000000000000000000000000000000100090091990882JUECIR CARVALHO DA LUZ                  RUA JOSE CALIXTO DO CARMO - 286 AP.114 -            11702690                                                            000131
2SR. CAIXA, APOS O VENCIMENTO COBRAR 2% DE MULTA                                 NAO RECEBER APOS 30 DIAS DO VENCIMENTO.                                                                                                                                                                                                         05082100000000000000508210000000000000       0090339900006270900919082112000132
100000000000000000000009033990000627000000000000000000000000010002020037325908211400000000002            2  01373259082126082100000001713470000000001N050821000000000000000000000000000000000000000000000000000000000000000100037325923830MARIA AUGUSTA OLIVEIRA DE ANDRADE       RUA CAIAPOS - 842 AP.63 - VILA TUPI - PR            11703320                                                            000134
2SR. CAIXA, APOS O VENCIMENTO COBRAR 2% DE MULTA                                 NAO RECEBER APOS 30 DIAS DO VENCIMENTO.                                                                                                                                                                                                         05082100000000000000508210000000000000       0090339900006270373259082114000135
100000000000000000000009033990000627000000000000000000000000010002020012478808211100000000002            2  01124788082124082100000003119450000000001N050821000000000000000000000000000000000000000000000000000000000000000100012478899809VITORIA BATISTA QUEIROZ                 RUA CARVALHO DE FREITAS - 255 AP.71A - V            05728030                                                            000137
2SR. CAIXA, APOS O VENCIMENTO COBRAR 2% DE MULTA                                 NAO RECEBER APOS 30 DIAS DO VENCIMENTO.                                                                                                                                                                                                         05082100000000000000508210000000000000       0090339900006270124788082111000138
100000000000000000000009033990000627000000000000000000000000010002020097989908211600000000002            2  01979899082126082100000001438510000000001N050821000000000000000000000000000000000000000000000000000000000000000100097989924820NELSON LUIS BERRIBILLE                  RUA SILVEIRA IGNACIO SOBRINHO - 965 - VI            13560294                                                            000140
2SR. CAIXA, APOS O VENCIMENTO COBRAR 2% DE MULTA                                 NAO RECEBER APOS 30 DIAS DO VENCIMENTO.                                                                                                                                                                                                         05082100000000000000508210000000000000       0090339900006270979899082116000141
100000000000000000000009033990000627000000000000000000000000010002020097989908212400000000002            2  01979899082126082100000001438500000000001N050821000000000000000000000000000000000000000000000000000000000000000100097989924820NELSON LUIS BERRIBILLE                  RUA SILVEIRA IGNACIO SOBRINHO - 965 - VI            13560294                                                            000143
2SR. CAIXA, APOS O VENCIMENTO COBRAR 2% DE MULTA                                 NAO RECEBER APOS 30 DIAS DO VENCIMENTO.                                                                                                                                                                                                         05082100000000000000508210000000000000       0090339900006270979899082124000144
100000000000000000000009033990000627000000000000000000000000010002020032341808211500000000002            2  01323418082124082100000003240220000000001N050821000000000000000000000000000000000000000000000000000000000000000100032341847803PRISCILA ALVES DE FRANCA MIRANDA        RUA CARLOS JOSE BORSTENS - 50 AP.91 - AV            11702750                                                            000146
2SR. CAIXA, APOS O VENCIMENTO COBRAR 2% DE MULTA                                 NAO RECEBER APOS 30 DIAS DO VENCIMENTO.                                                                                                                                                                                                         05082100000000000000508210000000000000       0090339900006270323418082115000147
100000000000000000000009033990000627000000000000000000000000010002020016050608211000000000002            2  01160506082124082100000003007540000000001N050821000000000000000000000000000000000000000000000000000000000000000100016050684898ANDRE RODRIGUES DE OLIVEIRA             RUA CORACAO PAULISTA - 14 - FAZENDA ITAI            08132430                                                            000149
2SR. CAIXA, APOS O VENCIMENTO COBRAR 2% DE MULTA                                 NAO RECEBER APOS 30 DIAS DO VENCIMENTO.                                                                                                                                                                                                         05082100000000000000508210000000000000       0090339900006270160506082110000150
100000000000000000000009033990000627000000000000000000000000010002020021464908211400000000002            2  01214649082124082100000004739980000000001N050821000000000000000000000000000000000000000000000000000000000000000100021464965846ANDREA APARECIDA DE OLIVEIRA PECCI      RUA ANTONIO BOZ MARFIL - 103 - PARQUE DO            05396020                                                            000152
2SR. CAIXA, APOS O VENCIMENTO COBRAR 2% DE MULTA                                 NAO RECEBER APOS 30 DIAS DO VENCIMENTO.                                                                                                                                                                                                         05082100000000000000508210000000000000       0090339900006270214649082114000153
100000000000000000000009033990000627000000000000000000000000010002020030348108211600000000002            2  01303481082124082100000002871960000000001N050821000000000000000000000000000000000000000000000000000000000000000100030348198892KELLY CRISTINA CORDEIRO                 RUA CARLOS JOSE BORSTENS - 50 AP.25 - AV            11702750                                                            000155
2SR. CAIXA, APOS O VENCIMENTO COBRAR 2% DE MULTA                                 NAO RECEBER APOS 30 DIAS DO VENCIMENTO.                                                                                                                                                                                                         05082100000000000000508210000000000000       0090339900006270303481082116000156
9                                                                                                                                                                                                                                                                                                                                                                                                         000157