01REMESSA01COBRANCA       00000000000005316116AIRES CONSTRUTORA E INCORPORAD237BRADESCO       011021        MX0000180                                                                                                                                                                                                                                                                                     000001
100000000000000000000009002800441612000000000000000000000000010002100023132610211800000000002            2  01231326102125102100000002325540000000001N011021000000000000000000000000000000000000000000000000000000000000000100023132672882LEANDRO MORENO                          RUA MONTE CASTELO - 296 AP.64 - AVIACAO             11702720                                                            000002
2SR. CAIXA, APOS O VENCIMENTO COBRAR 10% DE MULTA                                NAO RECEBER APOS 30 DIAS DO VENCIMENTO.                                                                                                                                                                                                         01102100000000000000110210000000000000       0090028004416120231326102118000003
100000000000000000000009002800441612000000000000000000000000010002100000666310211800000000002            2  01006663102125102100000003826100000000001N011021000000000000000000000000000000000000000000000000000000000000000100000666344825LUIZ HENRIQUE DE CAMPOS                 RUA JOAO CARLOS CAVALCANTI REIS - 21 - J            02281206                                                            000005
2SR. CAIXA, APOS O VENCIMENTO COBRAR 10% DE MULTA                                NAO RECEBER APOS 30 DIAS DO VENCIMENTO.                                                                                                                                                                                                         01102100000000000000110210000000000000       0090028004416120006663102118000006
100000000000000000000009002800441612000000000000000000000000010002100029155010211800000000002            2  01291550102125102100000004040490000000001N011021000000000000000000000000000000000000000000000000000000000000000100029155026842DANIELA YOSHIDA                         RUA MONTE CASTELO - 262 AP.34 - AVIACAO             11702720                                                            000008
2SR. CAIXA, APOS O VENCIMENTO COBRAR 10% DE MULTA                                NAO RECEBER APOS 30 DIAS DO VENCIMENTO.                                                                                                                                                                                                         01102100000000000000110210000000000000       0090028004416120291550102118000009
100000000000000000000009002800441612000000000000000000000000010002100001204410211100000000002            2  01012044102125102100000003290440000000001N011021000000000000000000000000000000000000000000000000000000000000000100001204431809CEZAR TALAVERA JUNIOR                   RUA MAESTRO ARTURO DE ANGELIS  - 190 AP.            05139010                                                            000011
2SR. CAIXA, APOS O VENCIMENTO COBRAR 10% DE MULTA                                NAO RECEBER APOS 30 DIAS DO VENCIMENTO.                                                                                                                                                                                                         01102100000000000000110210000000000000       0090028004416120012044102111000012
100000000000000000000009002800441612000000000000000000000000010002100004227510211000000000002            2  01042275102125102100000004265390000000001N011021000000000000000000000000000000000000000000000000000000000000000100004227553970ALESSANDRO ISRAEL GOULART               RUA PROFESSORA CARLINDA RIBEIRO - 21 - F            02866200                                                            000014
2SR. CAIXA, APOS O VENCIMENTO COBRAR 10% DE MULTA                                NAO RECEBER APOS 30 DIAS DO VENCIMENTO.                                                                                                                                                                                                         01102100000000000000110210000000000000       0090028004416120042275102110000015
100000000000000000000009002800441612000000000000000000000000010002100001024710211400000000002            2  01010247102125102100000003719790000000001N011021000000000000000000000000000000000000000000000000000000000000000100001024794881CLAUDIO RODRIGUES                       RUA ARACATUBA - 242 - LAPA - SAO PAULO -            05058010                                                            000017
2SR. CAIXA, APOS O VENCIMENTO COBRAR 10% DE MULTA                                NAO RECEBER APOS 30 DIAS DO VENCIMENTO.                                                                                                                                                                                                         01102100000000000000110210000000000000       0090028004416120010247102114000018
100000000000000000000009002800441612000000000000000000000000010002100002225010211500000000002            2  01022250102125102100000005702950000000001N011021000000000000000000000000000000000000000000000000000000000000000100002225072841PEDRO EDUARDO DE AZEVEDO                RUA NATH ZILMAN - 46 - JARDIM SAMAMBAIA             07623085                                                            000020
2SR. CAIXA, APOS O VENCIMENTO COBRAR 10% DE MULTA                                NAO RECEBER APOS 30 DIAS DO VENCIMENTO.                                                                                                                                                                                                         01102100000000000000110210000000000000       0090028004416120022250102115000021
100000000000000000000009002800441612000000000000000000000000010002100022037510211300000000002            2  01220375102125102100000003968620000000001N011021000000000000000000000000000000000000000000000000000000000000000100022037552882ANDREIA CRISTINA FERNANDES DANTAS       PCA CASTRO ALVES - 163 AP.33 - VILA SAO             13224299                                                            000023
2SR. CAIXA, APOS O VENCIMENTO COBRAR 10% DE MULTA                                NAO RECEBER APOS 30 DIAS DO VENCIMENTO.                                                                                                                                                                                                         01102100000000000000110210000000000000       0090028004416120220375102113000024
100000000000000000000009002800441612000000000000000000000000010002100027198410211500000000002            2  01271984102125102100000002737140000000001N011021000000000000000000000000000000000000000000000000000000000000000100027198452809CRISTIANE AURELIANO DA SILVA MAIA       RUA MONTE CASTELO - 262 AP.25 - AVIACAO             11702720                                                            000026
2SR. CAIXA, APOS O VENCIMENTO COBRAR 10% DE MULTA                                NAO RECEBER APOS 30 DIAS DO VENCIMENTO.                                                                                                                                                                                                         01102100000000000000110210000000000000       0090028004416120271984102115000027
100000000000000000000009002800441612000000000000000000000000010002100021246210211900000000002            2  01212462102125102100000003340410000000001N011021000000000000000000000000000000000000000000000000000000000000000100021246231840ALEXANDRO DA CUNHA MIGUES               RUA DULCE - 71  - VILA CARRAO - SAO PAUL            03427040                                                            000029
2SR. CAIXA, APOS O VENCIMENTO COBRAR 10% DE MULTA                                NAO RECEBER APOS 30 DIAS DO VENCIMENTO.                                                                                                                                                                                                         01102100000000000000110210000000000000       0090028004416120212462102119000030
100000000000000000000009002800441612000000000000000000000000010002100018470510211900000000002            2  01184705102125102100000004914240000000001N011021000000000000000000000000000000000000000000000000000000000000000100018470520881SILVANA ALVES DE OLIVEIRA               RUA MONTE CASTELO - 262 AP.91 - AVIACAO             11702720                                                            000032
2SR. CAIXA, APOS O VENCIMENTO COBRAR 10% DE MULTA                                NAO RECEBER APOS 30 DIAS DO VENCIMENTO.                                                                                                                                                                                                         01102100000000000000110210000000000000       0090028004416120184705102119000033
100000000000000000000009002800441612000000000000000000000000010002100009297510211900000000002            2  01092975102125102100000003421220000000001N011021000000000000000000000000000000000000000000000000000000000000000100009297523846MARCOS ROBERTO DE CASTRO FERREIRA       RUA MONTE CASTELO - 262 AP.105 - AVIACAO            11702720                                                            000035
2SR. CAIXA, APOS O VENCIMENTO COBRAR 10% DE MULTA                                NAO RECEBER APOS 30 DIAS DO VENCIMENTO.                                                                                                                                                                                                         01102100000000000000110210000000000000       0090028004416120092975102119000036
100000000000000000000009002800441612000000000000000000000000010002100001164110211800000000002            2  01011641102125102100000004239690000000001N011021000000000000000000000000000000000000000000000000000000000000000100001164158864DAVID BLEY LACERDA                      RUA CONEGO ARAUJO MARCONDES - 188 - BAIR            02550080                                                            000038
2SR. CAIXA, APOS O VENCIMENTO COBRAR 10% DE MULTA                                NAO RECEBER APOS 30 DIAS DO VENCIMENTO.                                                                                                                                                                                                         01102100000000000000110210000000000000       0090028004416120011641102118000039
100000000000000000000009002800441612000000000000000000000000010002100031498010211100000000002            2  01314980102125102100000005152730000000001N011021000000000000000000000000000000000000000000000000000000000000000100031498008895POLIANE  SIBELE DA SILVA                PRACA GENERAL COSTA BARRETO - 56 AP.181             03325070                                                            000041
2SR. CAIXA, APOS O VENCIMENTO COBRAR 10% DE MULTA                                NAO RECEBER APOS 30 DIAS DO VENCIMENTO.                                                                                                                                                                                                         01102100000000000000110210000000000000       0090028004416120314980102111000042
100000000000000000000009002800441612000000000000000000000000010002100000588110211500000000002            2  01005881102125102100000003022170000000001N011021000000000000000000000000000000000000000000000000000000000000000100000588109860JOSE LIARTE GIANTE                      AVENIDA LUIZ GONZAGA DO AMARAL - 143 - J            09320630                                                            000044
2SR. CAIXA, APOS O VENCIMENTO COBRAR 10% DE MULTA                                NAO RECEBER APOS 30 DIAS DO VENCIMENTO.                                                                                                                                                                                                         01102100000000000000110210000000000000       0090028004416120005881102115000045
100000000000000000000009002800441612000000000000000000000000010002100014386810211800000000002            2  01143868102125102100000002417620000000001N011021000000000000000000000000000000000000000000000000000000000000000100014386860134SEVERINO CARLOS DE OLIVEIRA             RUA MONTE CASTELO - 262 AP.54 - AVIACAO             11702720                                                            000047
2SR. CAIXA, APOS O VENCIMENTO COBRAR 10% DE MULTA                                NAO RECEBER APOS 30 DIAS DO VENCIMENTO.                                                                                                                                                                                                         01102100000000000000110210000000000000       0090028004416120143868102118000048
100000000000000000000009002800441612000000000000000000000000010002100039393710211300000000002            2  01393937102125102100000001666270000000001N011021000000000000000000000000000000000000000000000000000000000000000100039393790850NAIRON RICARDO DE ARAUJO SANTOS         RUA NITEROI - 267 CASA 04 - JARDIM INDEP            11380350                                                            000050
2SR. CAIXA, APOS O VENCIMENTO COBRAR 10% DE MULTA                                NAO RECEBER APOS 30 DIAS DO VENCIMENTO.                                                                                                                                                                                                         01102100000000000000110210000000000000       0090028004416120393937102113000051
100000000000000000000009002800441612000000000000000000000000010002100004735210211200000000002            2  01047352102125102100000001718750000000001N011021000000000000000000000000000000000000000000000000000000000000000100004735273832DARIO LUIZ GONCALVES                    RUA MONTE CASTELO - 295 AP.113 - AVIACAO            11702720                                                            000053
2SR. CAIXA, APOS O VENCIMENTO COBRAR 10% DE MULTA                                NAO RECEBER APOS 30 DIAS DO VENCIMENTO.                                                                                                                                                                                                         01102100000000000000110210000000000000       0090028004416120047352102112000054
100000000000000000000009002800441612000000000000000000000000010002100019288710211100000000002            2  01192887102125102100000002243990000000001N011021000000000000000000000000000000000000000000000000000000000000000100019288787844EMERSON LUIZ MARTINEZ PEREIRA           RUA MONTE CASTELO - 296 AP.74 - AVIACAO             11702720                                                            000056
2SR. CAIXA, APOS O VENCIMENTO COBRAR 10% DE MULTA                                NAO RECEBER APOS 30 DIAS DO VENCIMENTO.                                                                                                                                                                                                         01102100000000000000110210000000000000       0090028004416120192887102111000057
9                                                                                                                                                                                                                                                                                                                                                                                                         000058