01REMESSA01COBRANCA       00000000000005331186HB SANTOS CONSTRUTORA E INCORP237BRADESCO       101023        MX0000083                                                                                                                                                                                                                                                                                     000001
100000000000000000000009033990000995400000000000000000000000010002020005723210231900000000002            2  01057232102323102300000003166340000000001N091023000000000000000000000000000000000000000000000000000000000000000100005723255843FRANCISCO DE ASSIS DA SILVA             PRACA NICOLAU GERAIGIRE - 25 VISOR - JAR            11095110                                                            000002
2SR. CAIXA, APOS O VENCIMENTO COBRAR 2% DE MULTA                                 NAO RECEBER APOS 30 DIAS DO VENCIMENTO.                                                                                                                                                                                                         10102300000000000001010230000000000000       0090339900009954057232102319000003
100000000000000000000009033990000995400000000000000000000000010002020032589110231200000000002            2  01325891102323102300000002996010000000001N091023000000000000000000000000000000000000000000000000000000000000000100032589165862RENATA ISABEL MARTINS SILVA             RUA HERCULANO DE FREITAS - 257 - FUNDACA            09520280                                                            000005
2SR. CAIXA, APOS O VENCIMENTO COBRAR 2% DE MULTA                                 NAO RECEBER APOS 30 DIAS DO VENCIMENTO.                                                                                                                                                                                                         10102300000000000001010230000000000000       0090339900009954325891102312000006
100000000000000000000009033990000995400000000000000000000000010002020046391210231100000000002            2  01463912102323102300000003141680000000001N091023000000000000000000000000000000000000000000000000000000000000000100046391265810PAMELLA RODRIGUES DE OLIVEIRA           RUA AUGUSTA - 183 AP.301 BL.2A - VILA AU            07025130                                                            000008
2SR. CAIXA, APOS O VENCIMENTO COBRAR 2% DE MULTA                                 NAO RECEBER APOS 30 DIAS DO VENCIMENTO.                                                                                                                                                                                                         10102300000000000001010230000000000000       0090339900009954463912102311000009
100000000000000000000009033990000995400000000000000000000000010002020027964510231P00000000002            2  01279645102323102300000003121530000000001N091023000000000000000000000000000000000000000000000000000000000000000100027964512838FABIO TADEU DE CAMPOS RADZIAVICIUS      RUA URUGUAI - 89 AP.94 - JARDIM GUILHERM            11702300                                                            000011
2SR. CAIXA, APOS O VENCIMENTO COBRAR 2% DE MULTA                                 NAO RECEBER APOS 30 DIAS DO VENCIMENTO.                                                                                                                                                                                                         10102300000000000001010230000000000000       009033990000995427964510231P000012
100000000000000000000009033990000995400000000000000000000000010002020011498310231800000000002            2  01114983102323102300000002338710000000001N091023000000000000000000000000000000000000000000000000000000000000000100011498329837GERSON GERALDO DAS NEVES                RUA DOMINGOS DELGADO - 144 - VILA SOUZA             02881070                                                            000014
2SR. CAIXA, APOS O VENCIMENTO COBRAR 2% DE MULTA                                 NAO RECEBER APOS 30 DIAS DO VENCIMENTO.                                                                                                                                                                                                         10102300000000000001010230000000000000       0090339900009954114983102318000015
100000000000000000000009033990000995400000000000000000000000010002020025214410231400000000002            2  01252144102323102300000002768310000000001N091023000000000000000000000000000000000000000000000000000000000000000100025214401833JOSE MAURICIO DOS SANTOS RODRIGUES      RUA JOAO DE MACEDO RIBEIRO - 49 - VILA N            08111101                                                            000017
2SR. CAIXA, APOS O VENCIMENTO COBRAR 2% DE MULTA                                 NAO RECEBER APOS 30 DIAS DO VENCIMENTO.                                                                                                                                                                                                         10102300000000000001010230000000000000       0090339900009954252144102314000018
100000000000000000000009033990000995400000000000000000000000010002020033119110231100000000002            2  01331191102323102300000002780030000000001N091023000000000000000000000000000000000000000000000000000000000000000100033119178802HUGO GOMES VENDRAME                     RUA SAO PAULO - 60 CASA 01 - VILA FREITA            06380110                                                            000020
2SR. CAIXA, APOS O VENCIMENTO COBRAR 2% DE MULTA                                 NAO RECEBER APOS 30 DIAS DO VENCIMENTO.                                                                                                                                                                                                         10102300000000000001010230000000000000       0090339900009954331191102311000021
100000000000000000000009033990000995400000000000000000000000010002020016631510231400000000002            2  01166315102323102300000002828550000000001N091023000000000000000000000000000000000000000000000000000000000000000100016631587468GILBERTO BEZERRA DA SILVA               AVENIDA JAIME TORRES - 745 CASA 3 - JARD            03670000                                                            000023
2SR. CAIXA, APOS O VENCIMENTO COBRAR 2% DE MULTA                                 NAO RECEBER APOS 30 DIAS DO VENCIMENTO.                                                                                                                                                                                                         10102300000000000001010230000000000000       0090339900009954166315102314000024
100000000000000000000009033990000995400000000000000000000000010002020007313210231700000000002            2  01073132102323102300000002808460000000001N091023000000000000000000000000000000000000000000000000000000000000000100007313251840SALVADOR GESUALDO PULVIRENTI            AVENIDA MARARI - 641 - VILA MARARI - SAO            04402010                                                            000026
2SR. CAIXA, APOS O VENCIMENTO COBRAR 2% DE MULTA                                 NAO RECEBER APOS 30 DIAS DO VENCIMENTO.                                                                                                                                                                                                         10102300000000000001010230000000000000       0090339900009954073132102317000027
100000000000000000000009033990000995400000000000000000000000010002020010676710231900000000002            2  01106767102323102300000002931360000000001N091023000000000000000000000000000000000000000000000000000000000000000100010676723896MERCEDES CRISTINA ROCHA SANDOVAL        RUA URUGUAI - 89 AP.83 - JARDIM GUILHERM            11702300                                                            000029
2SR. CAIXA, APOS O VENCIMENTO COBRAR 2% DE MULTA                                 NAO RECEBER APOS 30 DIAS DO VENCIMENTO.                                                                                                                                                                                                         10102300000000000001010230000000000000       0090339900009954106767102319000030
100000000000000000000009033990000995400000000000000000000000010002020009502810231700000000002            2  01095028102323102300000003061320000000001N091023000000000000000000000000000000000000000000000000000000000000000100009502844831CLAUDIA ROCHA SANDOVAL                  RUA URUGUAI - 89 AP.64 - JARDIM GUILHERM            11702300                                                            000032
2SR. CAIXA, APOS O VENCIMENTO COBRAR 2% DE MULTA                                 NAO RECEBER APOS 30 DIAS DO VENCIMENTO.                                                                                                                                                                                                         10102300000000000001010230000000000000       0090339900009954095028102317000033
100000000000000000000009033990000995400000000000000000000000010002020007594210231600000000002            2  01075942102323102300000002748250000000001N091023000000000000000000000000000000000000000000000000000000000000000100007594247809JOSE LUIS DE OLIVEIRA                   DONA EGLANTINA PENTEADO DA SILVA PRADO -            13044162                                                            000035
2SR. CAIXA, APOS O VENCIMENTO COBRAR 2% DE MULTA                                 NAO RECEBER APOS 30 DIAS DO VENCIMENTO.                                                                                                                                                                                                         10102300000000000001010230000000000000       0090339900009954075942102316000036
100000000000000000000009033990000995400000000000000000000000010002020005288710231P00000000002            2  01052887102323102300000002830970000000001N091023000000000000000000000000000000000000000000000000000000000000000100005288796858MARCELO RODRIGUES FERREIRA              RUA MARCOS ANTONIO MARQUES - 302 - JARDI            06433020                                                            000038
2SR. CAIXA, APOS O VENCIMENTO COBRAR 2% DE MULTA                                 NAO RECEBER APOS 30 DIAS DO VENCIMENTO.                                                                                                                                                                                                         10102300000000000001010230000000000000       009033990000995405288710231P000039
100000000000000000000009033990000995400000000000000000000000010002020015835910231900000000002            2  01158359102323102300000002948030000000001N091023000000000000000000000000000000000000000000000000000000000000000100015835992823FLAVIO VERONEZ                          RUA ANDREA PAULINETTI - 127 AP.42 - BAIR            04707050                                                            000041
2SR. CAIXA, APOS O VENCIMENTO COBRAR 2% DE MULTA                                 NAO RECEBER APOS 30 DIAS DO VENCIMENTO.                                                                                                                                                                                                         10102300000000000001010230000000000000       0090339900009954158359102319000042
100000000000000000000009033990000995400000000000000000000000010002020000438110231700000000002            2  01004381102323102300000003327520000000001N091023000000000000000000000000000000000000000000000000000000000000000100000438161858WAGNECY VILLA NOVA LIEN                 RUA PROFESSOR FERREIRA PAULINO - 233 AP.            07025020                                                            000044
2SR. CAIXA, APOS O VENCIMENTO COBRAR 2% DE MULTA                                 NAO RECEBER APOS 30 DIAS DO VENCIMENTO.                                                                                                                                                                                                         10102300000000000001010230000000000000       0090339900009954004381102317000045
100000000000000000000009033990000995400000000000000000000000010002020026004510231300000000002            2  01260045102323102300000002948070000000001N091023000000000000000000000000000000000000000000000000000000000000000100026004595888EDIVALDO BEZERRA DA SILVA               AVENIDA GUATEMALA - 550 - JARDIM PINHEIR            09854750                                                            000047
2SR. CAIXA, APOS O VENCIMENTO COBRAR 2% DE MULTA                                 NAO RECEBER APOS 30 DIAS DO VENCIMENTO.                                                                                                                                                                                                         10102300000000000001010230000000000000       0090339900009954260045102313000048
100000000000000000000009033990000995400000000000000000000000010002020012470710231800000000002            2  01124707102323102300000003145390000000001N091023000000000000000000000000000000000000000000000000000000000000000100012470771870HILTON FERNANDES OLIVARES               RUA PATIO DA ESTACAO - 115 - BAIRRO CENT            09450000                                                            000050
2SR. CAIXA, APOS O VENCIMENTO COBRAR 2% DE MULTA                                 NAO RECEBER APOS 30 DIAS DO VENCIMENTO.                                                                                                                                                                                                         10102300000000000001010230000000000000       0090339900009954124707102318000051
100000000000000000000009033990000995400000000000000000000000010002020014025410231700000000002            2  01140254102323102300000003448830000000001N091023000000000000000000000000000000000000000000000000000000000000000100014025420899ANDREIA APARECIDA TAVARES BASTOS        RUA IBATIBA - 234 CASA 27 - RES.BOUGANVI            09220608                                                            000053
2SR. CAIXA, APOS O VENCIMENTO COBRAR 2% DE MULTA                                 NAO RECEBER APOS 30 DIAS DO VENCIMENTO.                                                                                                                                                                                                         10102300000000000001010230000000000000       0090339900009954140254102317000054
100000000000000000000009033990000995400000000000000000000000010002020018590010231600000000002            2  01185900102323102300000003123430000000001N091023000000000000000000000000000000000000000000000000000000000000000100018590038858JOSE SANDRO ROCHA SILVA                 RUA SANTO ANTONIO DO AVENTUREIRO - 216 A            07143040                                                            000056
2SR. CAIXA, APOS O VENCIMENTO COBRAR 2% DE MULTA                                 NAO RECEBER APOS 30 DIAS DO VENCIMENTO.                                                                                                                                                                                                         10102300000000000001010230000000000000       0090339900009954185900102316000057
100000000000000000000009033990000995400000000000000000000000010002020088578710231400000000002            2  01885787102323102300000002570140000000001N091023000000000000000000000000000000000000000000000000000000000000000100088578704800GILBERTO DO ESPIRITO SANTO SILVA        RUA URUGUAI - 89 AP.23 - JARDIM GUILHERM            11702300                                                            000059
2SR. CAIXA, APOS O VENCIMENTO COBRAR 2% DE MULTA                                 NAO RECEBER APOS 30 DIAS DO VENCIMENTO.                                                                                                                                                                                                         10102300000000000001010230000000000000       0090339900009954885787102314000060
100000000000000000000009033990000995400000000000000000000000010002020005105210231200000000002            2  01051052102323102300000003065190000000001N091023000000000000000000000000000000000000000000000000000000000000000100005105287835FABIO MOTTOLA DE OLIVEIRA               RUA RAUL MAZZONI - 133 - CHACARA AREAL -            13331022                                                            000062
2SR. CAIXA, APOS O VENCIMENTO COBRAR 2% DE MULTA                                 NAO RECEBER APOS 30 DIAS DO VENCIMENTO.                                                                                                                                                                                                         10102300000000000001010230000000000000       0090339900009954051052102312000063
100000000000000000000009033990000995400000000000000000000000010002020020792710231100000000002            2  01207927102323102300000003186700000000001N091023000000000000000000000000000000000000000000000000000000000000000120792791000147TROVAO COMERCIO DE ALIMENTOS LTDA-ME    RUA QUINTA DA MAGNOLIA - 67 - JARDIM IPA            03582100                                                            000065
2SR. CAIXA, APOS O VENCIMENTO COBRAR 2% DE MULTA                                 NAO RECEBER APOS 30 DIAS DO VENCIMENTO.                                                                                                                                                                                                         10102300000000000001010230000000000000       0090339900009954207927102311000066
100000000000000000000009033990000995400000000000000000000000010002020007648110231500000000002            2  01076481102323102300000002992300000000001N091023000000000000000000000000000000000000000000000000000000000000000100007648112825MARA REGINA CAPRIO                      RUA DA TRINDADE - 790 - VILA IDEAL - SAO            15060280                                                            000068
2SR. CAIXA, APOS O VENCIMENTO COBRAR 2% DE MULTA                                 NAO RECEBER APOS 30 DIAS DO VENCIMENTO.                                                                                                                                                                                                         10102300000000000001010230000000000000       0090339900009954076481102315000069
100000000000000000000009033990000995400000000000000000000000010002020007648110232300000000002            2  01076481102323102300000002992290000000001N091023000000000000000000000000000000000000000000000000000000000000000100007648112825MARA REGINA CAPRIO                      RUA DA TRINDADE - 790 - VILA IDEAL - SAO            15060280                                                            000071
2SR. CAIXA, APOS O VENCIMENTO COBRAR 2% DE MULTA                                 NAO RECEBER APOS 30 DIAS DO VENCIMENTO.                                                                                                                                                                                                         10102300000000000001010230000000000000       0090339900009954076481102323000072
100000000000000000000009033990000995400000000000000000000000010002020031157410231400000000002            2  01311574102323102300000003213020000000001N091023000000000000000000000000000000000000000000000000000000000000000100031157420885TALITA ANICHIARICO COSSI                RUA CNEO POMPEO DE CAMARGO - 817 - JARDI            13060150                                                            000074
2SR. CAIXA, APOS O VENCIMENTO COBRAR 2% DE MULTA                                 NAO RECEBER APOS 30 DIAS DO VENCIMENTO.                                                                                                                                                                                                         10102300000000000001010230000000000000       0090339900009954311574102314000075
100000000000000000000009033990000995400000000000000000000000010002020035572510231900000000002            2  01355725102323102300000003416150000000001N091023000000000000000000000000000000000000000000000000000000000000000100035572536865MARIA SIMONE SANTOS                     RUA JOSE PEZZOLO - 68 - VILA ELDIZIA - S            09181660                                                            000077
2SR. CAIXA, APOS O VENCIMENTO COBRAR 2% DE MULTA                                 NAO RECEBER APOS 30 DIAS DO VENCIMENTO.                                                                                                                                                                                                         10102300000000000001010230000000000000       0090339900009954355725102319000078
100000000000000000000009033990000995400000000000000000000000010002020008800310231600000000002            2  01088003102323102300000003112560000000001N091023000000000000000000000000000000000000000000000000000000000000000100008800368425INGO DIMITRI PEREIRA DA NOBREGA         RUA PROFESSOR MENDES PIMENTEL - 362 - JA            03973010                                                            000080
2SR. CAIXA, APOS O VENCIMENTO COBRAR 2% DE MULTA                                 NAO RECEBER APOS 30 DIAS DO VENCIMENTO.                                                                                                                                                                                                         10102300000000000001010230000000000000       0090339900009954088003102316000081
100000000000000000000009033990000995400000000000000000000000010002020005054110231000000000002            2  01050541102323102300000003012170000000001N091023000000000000000000000000000000000000000000000000000000000000000100005054169806PAULO ROBERTO DE MATTOS                 JARDIM BOTANICO - 849 - DISTRITO DE SOUS            13106258                                                            000083
2SR. CAIXA, APOS O VENCIMENTO COBRAR 2% DE MULTA                                 NAO RECEBER APOS 30 DIAS DO VENCIMENTO.                                                                                                                                                                                                         10102300000000000001010230000000000000       0090339900009954050541102310000084
100000000000000000000009033990000995400000000000000000000000010002020007552110231700000000002            2  01075521102323102300000003012170000000001N091023000000000000000000000000000000000000000000000000000000000000000100007552151846MAURO BORDONI                           AVENIDA DR. AUGUSTO DE TOLEDO - 769 AP.6            09540080                                                            000086
2SR. CAIXA, APOS O VENCIMENTO COBRAR 2% DE MULTA                                 NAO RECEBER APOS 30 DIAS DO VENCIMENTO.                                                                                                                                                                                                         10102300000000000001010230000000000000       0090339900009954075521102317000087
100000000000000000000009033990000995400000000000000000000000010002020012744210231P00000000002            2  01127442102323102300000003351490000000001N091023000000000000000000000000000000000000000000000000000000000000000100012744201804ADAIL JOSE DE SOUSA                     RUA ROSARIA - 303 - BAIRRO SACADURA CABR            09061080                                                            000089
2SR. CAIXA, APOS O VENCIMENTO COBRAR 2% DE MULTA                                 NAO RECEBER APOS 30 DIAS DO VENCIMENTO.                                                                                                                                                                                                         10102300000000000001010230000000000000       009033990000995412744210231P000090
100000000000000000000009033990000995400000000000000000000000010002020068320610231700000000002            2  01683206102323102300000011869250000000001N091023000000000000000000000000000000000000000000000000000000000000000100068320663849ANTONIO CAVALCANTE LIMA                 RUA AMAZONAS - 1188 - CENTRO - SAO CAETA            09540201                                                            000092
2SR. CAIXA, APOS O VENCIMENTO COBRAR 2% DE MULTA                                 NAO RECEBER APOS 30 DIAS DO VENCIMENTO.                                                                                                                                                                                                         10102300000000000001010230000000000000       0090339900009954683206102317000093
100000000000000000000009033990000995400000000000000000000000010002020088926210231900000000002            2  01889262102323102300000002493440000000001N091023000000000000000000000000000000000000000000000000000000000000000100088926230872VALDEMAR LATANCE FILHO                  RUA MELO PINTO DA SILVA - 111 CASA 103 -            18116265                                                            000095
2SR. CAIXA, APOS O VENCIMENTO COBRAR 2% DE MULTA                                 NAO RECEBER APOS 30 DIAS DO VENCIMENTO.                                                                                                                                                                                                         10102300000000000001010230000000000000       0090339900009954889262102319000096
100000000000000000000009033990000995400000000000000000000000010002020004195310231600000000002            2  01041953102323102300000003254350000000001N091023000000000000000000000000000000000000000000000000000000000000000100004195345804LUIZ CARLOS SILVESTRE                   RUA CONDE VICENTE AZEVEDO - 377 - BAIRRO            04264000                                                            000098
2SR. CAIXA, APOS O VENCIMENTO COBRAR 2% DE MULTA                                 NAO RECEBER APOS 30 DIAS DO VENCIMENTO.                                                                                                                                                                                                         10102300000000000001010230000000000000       0090339900009954041953102316000099
9                                                                                                                                                                                                                                                                                                                                                                                                         000100