01REMESSA01COBRANCA       00000000000008017025HB SANTOS CONSTRUTORA E INCORP237BRADESCO       010219        MX0000072                                                                                                                                                                                                                                                                                     000001
100000000000000000000009033990000627000000000000000000000000010002020029671502191800000000002            2  01296715021909021900000002403040000000001N010219000000000000000000000000000000000000000000000000000000000000000100029671526845ROGERIO CONSENTINO                      RUA CARLOS MAZER  - 678 - VILA CARMOSINA            08290700                                                            000002
2SR. CAIXA, APOS O VENCIMENTO COBRAR 2% DE MULTA                                 NAO RECEBER APOS 30 DIAS DO VENCIMENTO.                                                                                                                                                                                                         01021900000000000000102190000000000000       0090339900006270296715021918000003
100000000000000000000009033990000627000000000000000000000000010002020003863002191P00000000002            2  01038630021909021900000002269880000000001N010219000000000000000000000000000000000000000000000000000000000000000100003863075803HERALDO MENQUINI                        RUA CARLOS JOSE BORSTENS - 50 AP.15 - AV            11702750                                                            000005
2SR. CAIXA, APOS O VENCIMENTO COBRAR 2% DE MULTA                                 NAO RECEBER APOS 30 DIAS DO VENCIMENTO.                                                                                                                                                                                                         01021900000000000000102190000000000000       009033990000627003863002191P000006
100000000000000000000009033990000627000000000000000000000000010002020029028402191700000000002            2  01290284021909021900000002325260000000001N010219000000000000000000000000000000000000000000000000000000000000000100029028478825LEONARDO LOUZADA                        RUA ILHEUS - QUADRA 31 - 244 - BAIRRO CE            19274000                                                            000008
2SR. CAIXA, APOS O VENCIMENTO COBRAR 2% DE MULTA                                 NAO RECEBER APOS 30 DIAS DO VENCIMENTO.                                                                                                                                                                                                         01021900000000000000102190000000000000       0090339900006270290284021917000009
100000000000000000000009033990000627000000000000000000000000010002020032878502191400000000002            2  01328785021909021900000003360460000000001N010219000000000000000000000000000000000000000000000000000000000000000100032878512847LEONARDO MOURA MONIZ CALDEIRA           RUA BALSA - 682 AP.134 T.02 - VILA ARCAD            02910000                                                            000011
2SR. CAIXA, APOS O VENCIMENTO COBRAR 2% DE MULTA                                 NAO RECEBER APOS 30 DIAS DO VENCIMENTO.                                                                                                                                                                                                         01021900000000000000102190000000000000       0090339900006270328785021914000012
100000000000000000000009033990000627000000000000000000000000010002020016479002191100000000002            2  01164790021909021900000003574920000000001N010219000000000000000000000000000000000000000000000000000000000000000100016479002806LOURDES PEREIRA DE QUEIROZ SECANECHIA   RUA PAULINO CURSI - 437 - CIDADE SAO MAT            03960060                                                            000014
2SR. CAIXA, APOS O VENCIMENTO COBRAR 2% DE MULTA                                 NAO RECEBER APOS 30 DIAS DO VENCIMENTO.                                                                                                                                                                                                         01021900000000000000102190000000000000       0090339900006270164790021911000015
100000000000000000000009033990000627000000000000000000000000010002020019635002191900000000002            2  01196350021909021900000002637670000000001N010219000000000000000000000000000000000000000000000000000000000000000100019635091885IVAN VIEIRA SILVA                       ABRAO JORGE - 3001 - JARDIM INTEGRACAO -            14405397                                                            000017
2SR. CAIXA, APOS O VENCIMENTO COBRAR 2% DE MULTA                                 NAO RECEBER APOS 30 DIAS DO VENCIMENTO.                                                                                                                                                                                                         01021900000000000000102190000000000000       0090339900006270196350021919000018
100000000000000000000009033990000627000000000000000000000000010002020009361402191900000000002            2  01093614021909021900000002595390000000001N010219000000000000000000000000000000000000000000000000000000000000000100009361471805JOSE BARBOSA DA SILVA                   RUA ALFREDO INACIO TRINDADE  - 60 AP.44             02344100                                                            000020
2SR. CAIXA, APOS O VENCIMENTO COBRAR 2% DE MULTA                                 NAO RECEBER APOS 30 DIAS DO VENCIMENTO.                                                                                                                                                                                                         01021900000000000000102190000000000000       0090339900006270093614021919000021
100000000000000000000009033990000627000000000000000000000000010002020012756902191200000000002            2  01127569021909021900000002240400000000001N010219000000000000000000000000000000000000000000000000000000000000000100012756959812ITAMAR JUVENAL DIAS DA SILVA            RUA ELISEU REINALDO MORAES VIEIRA - 90 A            02858000                                                            000023
2SR. CAIXA, APOS O VENCIMENTO COBRAR 2% DE MULTA                                 NAO RECEBER APOS 30 DIAS DO VENCIMENTO.                                                                                                                                                                                                         01021900000000000000102190000000000000       0090339900006270127569021912000024
100000000000000000000009033990000627000000000000000000000000010002020002731002191P00000000002            2  01027310021909021900000002648750000000001N010219000000000000000000000000000000000000000000000000000000000000000100002731042842VALTER CERQUEIRA VILLA NOVA             RUA MACHADO - 106 - VILA AUGUSTA - GUARU            07025210                                                            000026
2SR. CAIXA, APOS O VENCIMENTO COBRAR 2% DE MULTA                                 NAO RECEBER APOS 30 DIAS DO VENCIMENTO.                                                                                                                                                                                                         01021900000000000000102190000000000000       009033990000627002731002191P000027
100000000000000000000009033990000627000000000000000000000000010002020002731002192800000000002            2  01027310021909021900000002648750000000001N010219000000000000000000000000000000000000000000000000000000000000000100002731042842VALTER CERQUEIRA VILLA NOVA             RUA MACHADO - 106 - VILA AUGUSTA - GUARU            07025210                                                            000029
2SR. CAIXA, APOS O VENCIMENTO COBRAR 2% DE MULTA                                 NAO RECEBER APOS 30 DIAS DO VENCIMENTO.                                                                                                                                                                                                         01021900000000000000102190000000000000       0090339900006270027310021928000030
100000000000000000000009033990000627000000000000000000000000010002020028802102191800000000002            2  01288021021909021900000002391770000000001N010219000000000000000000000000000000000000000000000000000000000000000100028802158894ELIEL HENRIQUE ZUZA                     RUA CARLOS JOSE BORSTENS - 50 AP.43 - BA            11702750                                                            000032
2SR. CAIXA, APOS O VENCIMENTO COBRAR 2% DE MULTA                                 NAO RECEBER APOS 30 DIAS DO VENCIMENTO.                                                                                                                                                                                                         01021900000000000000102190000000000000       0090339900006270288021021918000033
100000000000000000000009033990000627000000000000000000000000010002020008739102191100000000002            2  01087391021909021900000002236900000000001N010219000000000000000000000000000000000000000000000000000000000000000100008739150895VANGEVALDO BATISTA SANT ANNA            TRAVESSA TOMAZIN - 02 - ERMELINO MATARAZ            03811125                                                            000035
2SR. CAIXA, APOS O VENCIMENTO COBRAR 2% DE MULTA                                 NAO RECEBER APOS 30 DIAS DO VENCIMENTO.                                                                                                                                                                                                         01021900000000000000102190000000000000       0090339900006270087391021911000036
100000000000000000000009033990000627000000000000000000000000010002020005313702191800000000002            2  01053137021911021900000001942990000000001N010219000000000000000000000000000000000000000000000000000000000000000100005313717863EDIMICIO JOSE DE ARAUJO                 PRACA NICOLAU GERAIGIRE - 680 CA A - JAR            11095110                                                            000038
2SR. CAIXA, APOS O VENCIMENTO COBRAR 2% DE MULTA                                 NAO RECEBER APOS 30 DIAS DO VENCIMENTO.                                                                                                                                                                                                         01021900000000000000102190000000000000       0090339900006270053137021918000039
100000000000000000000009033990000627000000000000000000000000010002020029433602191600000000002            2  01294336021911021900000001866540000000001N010219000000000000000000000000000000000000000000000000000000000000000100029433631897MARIO MUNIZ                             RUA LIBERO BADARO - 1115 - BAIRRO CIDADE            11704070                                                            000041
2SR. CAIXA, APOS O VENCIMENTO COBRAR 2% DE MULTA                                 NAO RECEBER APOS 30 DIAS DO VENCIMENTO.                                                                                                                                                                                                         01021900000000000000102190000000000000       0090339900006270294336021916000042
100000000000000000000009033990000627000000000000000000000000010002020001847202191400000000002            2  01018472021911021900000001718400000000001N010219000000000000000000000000000000000000000000000000000000000000000100001847204864AMERICA CONCEICAO DA SILVA              RUA CAMINHO DO GUARAMAR - 199 AP.11 BLOC            11721050                                                            000044
2SR. CAIXA, APOS O VENCIMENTO COBRAR 2% DE MULTA                                 NAO RECEBER APOS 30 DIAS DO VENCIMENTO.                                                                                                                                                                                                         01021900000000000000102190000000000000       0090339900006270018472021914000045
100000000000000000000009033990000627000000000000000000000000010002020005029802191900000000002            2  01050298021909021900000002284230000000001N010219000000000000000000000000000000000000000000000000000000000000000100005029828885LAURINETE DA CONCEICAO DE NORONHA       RUA MARIA LUCIA DE TOLEDO LEITE MORAES -            04434040                                                            000047
2SR. CAIXA, APOS O VENCIMENTO COBRAR 2% DE MULTA                                 NAO RECEBER APOS 30 DIAS DO VENCIMENTO.                                                                                                                                                                                                         01021900000000000000102190000000000000       0090339900006270050298021919000048
100000000000000000000009033990000627000000000000000000000000010002020027682102191800000000002            2  01276821021911021900000001811560000000001N010219000000000000000000000000000000000000000000000000000000000000000100027682175818ALINE TEIXEIRA                          RUA CRUZEIRO DO SUL - 309 - JARDIM BOM P            06385060                                                            000050
2SR. CAIXA, APOS O VENCIMENTO COBRAR 2% DE MULTA                                 NAO RECEBER APOS 30 DIAS DO VENCIMENTO.                                                                                                                                                                                                         01021900000000000000102190000000000000       0090339900006270276821021918000051
100000000000000000000009033990000627000000000000000000000000010002020013388902191000000000002            2  01133889021911021900000001819600000000001N010219000000000000000000000000000000000000000000000000000000000000000100013388936889NEUTON DE SOUZA RAMOS                   RUA MARIA CRISTINA - 932 - JARDIM CASQUE            11533160                                                            000053
2SR. CAIXA, APOS O VENCIMENTO COBRAR 2% DE MULTA                                 NAO RECEBER APOS 30 DIAS DO VENCIMENTO.                                                                                                                                                                                                         01021900000000000000102190000000000000       0090339900006270133889021910000054
100000000000000000000009033990000627000000000000000000000000010002020012774902191000000000002            2  01127749021911021900000001853750000000001N010219000000000000000000000000000000000000000000000000000000000000000100012774906865JOSE MILTON SANTIAGO                    RUA BATATAIS - 47 - CIDADE ESTELA - POA             08563140                                                            000056
2SR. CAIXA, APOS O VENCIMENTO COBRAR 2% DE MULTA                                 NAO RECEBER APOS 30 DIAS DO VENCIMENTO.                                                                                                                                                                                                         01021900000000000000102190000000000000       0090339900006270127749021910000057
100000000000000000000009033990000627000000000000000000000000010002020016294102191600000000002            2  01162941021909021900000002267840000000001N010219000000000000000000000000000000000000000000000000000000000000000100016294119812JURACY FELIX DE ARRUDA                  RUA CARLOS JOSE BORSTENS - 50 AP.23 - AV            11702750                                                            000059
2SR. CAIXA, APOS O VENCIMENTO COBRAR 2% DE MULTA                                 NAO RECEBER APOS 30 DIAS DO VENCIMENTO.                                                                                                                                                                                                         01021900000000000000102190000000000000       0090339900006270162941021916000060
100000000000000000000009033990000627000000000000000000000000010002020005613802191000000000002            2  01056138021911021900000001704940000000001N010219000000000000000000000000000000000000000000000000000000000000000100005613843805NILZA MARIA DE OLIVEIRA                 RUA JOSE GONCALVES DE FREITAS - 66 C2 -             08210550                                                            000062
2SR. CAIXA, APOS O VENCIMENTO COBRAR 2% DE MULTA                                 NAO RECEBER APOS 30 DIAS DO VENCIMENTO.                                                                                                                                                                                                         01021900000000000000102190000000000000       0090339900006270056138021910000063
100000000000000000000009033990000627000000000000000000000000010002020007574902191000000000002            2  01075749021911021900000001750080000000001N010219000000000000000000000000000000000000000000000000000000000000000100007574936889JORGE LUCIANO PEREIRA BORRIELLO         RUA FABIO DE ALMEIDA MAGALHAES - 179 - J            05135370                                                            000065
2SR. CAIXA, APOS O VENCIMENTO COBRAR 2% DE MULTA                                 NAO RECEBER APOS 30 DIAS DO VENCIMENTO.                                                                                                                                                                                                         01021900000000000000102190000000000000       0090339900006270075749021910000066
100000000000000000000009033990000627000000000000000000000000010002020032408102191300000000002            2  01324081021911021900000001649980000000001N010219000000000000000000000000000000000000000000000000000000000000000100032408151848DEILSON DO NASCIMENTO CANDIDO DA SILVA  RUA HEREMITA SANTA DO NASCIMENTO - 37 AP            11345340                                                            000068
2SR. CAIXA, APOS O VENCIMENTO COBRAR 2% DE MULTA                                 NAO RECEBER APOS 30 DIAS DO VENCIMENTO.                                                                                                                                                                                                         01021900000000000000102190000000000000       0090339900006270324081021913000069
100000000000000000000009033990000627000000000000000000000000010002020008214902191300000000002            2  01082149021911021900000001776650000000001N010219000000000000000000000000000000000000000000000000000000000000000100008214973830JAMIL CHALA                             AVENIDA COSTA MACHADO - 291 AP.133-A - C            11700650                                                            000071
2SR. CAIXA, APOS O VENCIMENTO COBRAR 2% DE MULTA                                 NAO RECEBER APOS 30 DIAS DO VENCIMENTO.                                                                                                                                                                                                         01021900000000000000102190000000000000       0090339900006270082149021913000072
100000000000000000000009033990000627000000000000000000000000010002020032495002191000000000002            2  01324950021911021900000001990970000000001N010219000000000000000000000000000000000000000000000000000000000000000100032495004881PAULO EDUARDO DOS SANTOS                RUA REPUBLICA DO IRAQUE - 1119 - CAMPO B            04611002                                                            000074
2SR. CAIXA, APOS O VENCIMENTO COBRAR 2% DE MULTA                                 NAO RECEBER APOS 30 DIAS DO VENCIMENTO.                                                                                                                                                                                                         01021900000000000000102190000000000000       0090339900006270324950021910000075
100000000000000000000009033990000627000000000000000000000000010002020006471802191000000000002            2  01064718021909021900000002232740000000001N010219000000000000000000000000000000000000000000000000000000000000000100006471825803JOSIVALDO BASTOS DE OLIVEIRA            RUA MARIA DIAS HOG - 263 - PARQUE CONTIN            07085035                                                            000077
2SR. CAIXA, APOS O VENCIMENTO COBRAR 2% DE MULTA                                 NAO RECEBER APOS 30 DIAS DO VENCIMENTO.                                                                                                                                                                                                         01021900000000000000102190000000000000       0090339900006270064718021910000078
100000000000000000000009033990000627000000000000000000000000010002020038856802191700000000002            2  01388568021911021900000001845670000000001N010219000000000000000000000000000000000000000000000000000000000000000100038856851830FELIPE BIANCHI DA COSTA FREITAS         AVENIDA ENGENHEIRO ARMANDO DE ARRUDA PER            04325001                                                            000080
2SR. CAIXA, APOS O VENCIMENTO COBRAR 2% DE MULTA                                 NAO RECEBER APOS 30 DIAS DO VENCIMENTO.                                                                                                                                                                                                         01021900000000000000102190000000000000       0090339900006270388568021917000081
100000000000000000000009033990000627000000000000000000000000010002020016498002191800000000002            2  01164980021911021900000001746110000000001N010219000000000000000000000000000000000000000000000000000000000000000100016498053810GILMA CEZARIO GARCIA CORRITORI          RUA LAURENTINO XAVIER DOS SANTOS - 336 -            08240740                                                            000083
2SR. CAIXA, APOS O VENCIMENTO COBRAR 2% DE MULTA                                 NAO RECEBER APOS 30 DIAS DO VENCIMENTO.                                                                                                                                                                                                         01021900000000000000102190000000000000       0090339900006270164980021918000084
100000000000000000000009033990000627000000000000000000000000010002020030098602191000000000002            2  01300986021911021900000001874610000000001N010219000000000000000000000000000000000000000000000000000000000000000100030098603825DEUZIANA MOREIRA DE SA                  RUA JOAO AVELINO PINHO MELLAO - 114 - JA            05659010                                                            000086
2SR. CAIXA, APOS O VENCIMENTO COBRAR 2% DE MULTA                                 NAO RECEBER APOS 30 DIAS DO VENCIMENTO.                                                                                                                                                                                                         01021900000000000000102190000000000000       0090339900006270300986021910000087
100000000000000000000009033990000627000000000000000000000000010002020029339002191700000000002            2  01293390021911021900000001867180000000001N010219000000000000000000000000000000000000000000000000000000000000000100029339051831RONALD DIDOFF                           RUA CORONEL FERREIRA BRAGA - 188 - VILA             03522010                                                            000089
2SR. CAIXA, APOS O VENCIMENTO COBRAR 2% DE MULTA                                 NAO RECEBER APOS 30 DIAS DO VENCIMENTO.                                                                                                                                                                                                         01021900000000000000102190000000000000       0090339900006270293390021917000090
100000000000000000000009033990000627000000000000000000000000010002020017357802191900000000002            2  01173578021911021900000001977500000000001N010219000000000000000000000000000000000000000000000000000000000000000100017357859894MARCIO GUIMARAES                        RUA GENERAL CAMARA - 188 SALA 11 - CENTR            11010120                                                            000092
2SR. CAIXA, APOS O VENCIMENTO COBRAR 2% DE MULTA                                 NAO RECEBER APOS 30 DIAS DO VENCIMENTO.                                                                                                                                                                                                         01021900000000000000102190000000000000       0090339900006270173578021919000093
100000000000000000000009033990000627000000000000000000000000010002020010563002191900000000002            2  01105630021911021900000002028050000000001N010219000000000000000000000000000000000000000000000000000000000000000100010563033878VERA LUCIA RIBEIRO LONGANEZI            RUA DOS CAMARES - 150 AP.24 BL.02 - CARA            02068030                                                            000095
2SR. CAIXA, APOS O VENCIMENTO COBRAR 2% DE MULTA                                 NAO RECEBER APOS 30 DIAS DO VENCIMENTO.                                                                                                                                                                                                         01021900000000000000102190000000000000       0090339900006270105630021919000096
100000000000000000000009033990000627000000000000000000000000010002020005529602191300000000002            2  01055296021911021900000001840380000000001N010219000000000000000000000000000000000000000000000000000000000000000100005529616801JOAQUIM JORGE DA COSTA                  RUA CONEGO XAVIER - 13 - SACOMA - SAO PA            04231030                                                            000098
2SR. CAIXA, APOS O VENCIMENTO COBRAR 2% DE MULTA                                 NAO RECEBER APOS 30 DIAS DO VENCIMENTO.                                                                                                                                                                                                         01021900000000000000102190000000000000       0090339900006270055296021913000099
100000000000000000000009033990000627000000000000000000000000010002020022014102191800000000002            2  01220141021911021900000001835010000000001N010219000000000000000000000000000000000000000000000000000000000000000100022014140847CAMILA SILVEIRA CANIZARES               AVENIDA PRESIDENTE CASTELO BRANCO - 5.74            11703650                                                            000101
2SR. CAIXA, APOS O VENCIMENTO COBRAR 2% DE MULTA                                 NAO RECEBER APOS 30 DIAS DO VENCIMENTO.                                                                                                                                                                                                         01021900000000000000102190000000000000       0090339900006270220141021918000102
100000000000000000000009033990000627000000000000000000000000010002020010083802191000000000002            2  01100838021906021900000032072220000000001N010219000000000000000000000000000000000000000000000000000000000000000100010083824855IONE FERREIRA COUTO DA SILVA            RUA JOSE RAGEL DE MESQUITA - 60 CS.01 -             07799999                                                            000104
2SR. CAIXA, APOS O VENCIMENTO COBRAR 2% DE MULTA                                 NAO RECEBER APOS 30 DIAS DO VENCIMENTO.                                                                                                                                                                                                         01021900000000000000102190000000000000       0090339900006270100838021910000105
100000000000000000000009033990000627000000000000000000000000010002020015550702191P00000000002            2  01155507021909021900000001731430000000001N010219000000000000000000000000000000000000000000000000000000000000000100015550706806MARY MIWA                               RUA CARLOS JOSE BORSTENS - 50 AP.105 - A            11702750                                                            000107
2SR. CAIXA, APOS O VENCIMENTO COBRAR 2% DE MULTA                                 NAO RECEBER APOS 30 DIAS DO VENCIMENTO.                                                                                                                                                                                                         01021900000000000000102190000000000000       009033990000627015550702191P000108
100000000000000000000009033990000627000000000000000000000000010002020015464602191P00000000002            2  01154646021901021900000039906540000000001N010219000000000000000000000000000000000000000000000000000000000000000100015464647864SONIA TERESA VOLPATO                    RUA PEDRO BADRA - 51 AP.73 - JABAQUARA -            04348090                                                            000110
2SR. CAIXA, APOS O VENCIMENTO COBRAR 2% DE MULTA                                 NAO RECEBER APOS 30 DIAS DO VENCIMENTO.                                                                                                                                                                                                         01021900000000000000102190000000000000       009033990000627015464602191P000111
100000000000000000000009033990000627000000000000000000000000010002020015464602192800000000002            2  01154646021911021900000001934670000000001N010219000000000000000000000000000000000000000000000000000000000000000100015464647864SONIA TERESA VOLPATO                    RUA PEDRO BADRA - 51 AP.73 - JABAQUARA -            04348090                                                            000113
2SR. CAIXA, APOS O VENCIMENTO COBRAR 2% DE MULTA                                 NAO RECEBER APOS 30 DIAS DO VENCIMENTO.                                                                                                                                                                                                         01021900000000000000102190000000000000       0090339900006270154646021928000114
100000000000000000000009033990000627000000000000000000000000010002020008657802191900000000002            2  01086578021911021900000001915250000000001N010219000000000000000000000000000000000000000000000000000000000000000100008657886855ARLINDO DA CRUZ                         AVENIDA ARICANDUVA - 8.256 AP.54 BL.10 -            03951220                                                            000116
2SR. CAIXA, APOS O VENCIMENTO COBRAR 2% DE MULTA                                 NAO RECEBER APOS 30 DIAS DO VENCIMENTO.                                                                                                                                                                                                         01021900000000000000102190000000000000       0090339900006270086578021919000117
100000000000000000000009033990000627000000000000000000000000010002020004265702191900000000002            2  01042657021909021900000002551230000000001N010219000000000000000000000000000000000000000000000000000000000000000100004265781713ALEXANDRE CASADO COSTA                  RUA CARLOS JOSE BORSTENS - 50 AP.33 - AV            11702750                                                            000119
2SR. CAIXA, APOS O VENCIMENTO COBRAR 2% DE MULTA                                 NAO RECEBER APOS 30 DIAS DO VENCIMENTO.                                                                                                                                                                                                         01021900000000000000102190000000000000       0090339900006270042657021919000120
100000000000000000000009033990000627000000000000000000000000010002020059735102191700000000002            2  01597351021909021900000001077580000000001N010219000000000000000000000000000000000000000000000000000000000000000100059735180863HELIO JOSE MARQUES                      RUA MARTIM AFONSO DE SOUZA - 1007 AP.102            11702790                                                            000122
2SR. CAIXA, APOS O VENCIMENTO COBRAR 2% DE MULTA                                 NAO RECEBER APOS 30 DIAS DO VENCIMENTO.                                                                                                                                                                                                         01021900000000000000102190000000000000       0090339900006270597351021917000123
100000000000000000000009033990000627000000000000000000000000010002020026347802191000000000002            2  01263478021911021900000002047360000000001N010219000000000000000000000000000000000000000000000000000000000000000100026347872862VALDECI SILVA MEIRELES                  RUA JOSE BATISTA DA SILVA - 292 - JARDIM            06851470                                                            000125
2SR. CAIXA, APOS O VENCIMENTO COBRAR 2% DE MULTA                                 NAO RECEBER APOS 30 DIAS DO VENCIMENTO.                                                                                                                                                                                                         01021900000000000000102190000000000000       0090339900006270263478021910000126
100000000000000000000009033990000627000000000000000000000000010002020025443602191100000000002            2  01254436021909021900000003690480000000001N010219000000000000000000000000000000000000000000000000000000000000000100025443691830SILVANETE PEREIRA CARNELOS              RUA CARLOS JOSE BORSTENS - 50 AP.102 - A            11702750                                                            000128
2SR. CAIXA, APOS O VENCIMENTO COBRAR 2% DE MULTA                                 NAO RECEBER APOS 30 DIAS DO VENCIMENTO.                                                                                                                                                                                                         01021900000000000000102190000000000000       0090339900006270254436021911000129
100000000000000000000009033990000627000000000000000000000000010002020013135202191100000000002            2  01131352021911021900000001881020000000001N010219000000000000000000000000000000000000000000000000000000000000000100013135261859EDUARDO ZANOLA                          RUA ROLANDO PIETRO BONINI - 46 - JARDIM             09781040                                                            000131
2SR. CAIXA, APOS O VENCIMENTO COBRAR 2% DE MULTA                                 NAO RECEBER APOS 30 DIAS DO VENCIMENTO.                                                                                                                                                                                                         01021900000000000000102190000000000000       0090339900006270131352021911000132
100000000000000000000009033990000627000000000000000000000000010002020009797602191200000000002            2  01097976021911021900000001831910000000001N010219000000000000000000000000000000000000000000000000000000000000000100009797626857RICARDO SOBRAL DE OLIVEIRA              RUA 23 DE MAIO - 139 AP.32 - VILA MIRIM             11704690                                                            000134
2SR. CAIXA, APOS O VENCIMENTO COBRAR 2% DE MULTA                                 NAO RECEBER APOS 30 DIAS DO VENCIMENTO.                                                                                                                                                                                                         01021900000000000000102190000000000000       0090339900006270097976021912000135
100000000000000000000009033990000627000000000000000000000000010002020004767602191300000000002            2  01047676021909021900000003117000000000001N010219000000000000000000000000000000000000000000000000000000000000000100004767679893ORLANDO GRANDE FILHO                    RUA ORLANDO MIGLIARI - 101 - JARDIM OURO            19906140                                                            000137
2SR. CAIXA, APOS O VENCIMENTO COBRAR 2% DE MULTA                                 NAO RECEBER APOS 30 DIAS DO VENCIMENTO.                                                                                                                                                                                                         01021900000000000000102190000000000000       0090339900006270047676021913000138
100000000000000000000009033990000627000000000000000000000000010002020006512502191000000000002            2  01065125021911021900000001647890000000001N010219000000000000000000000000000000000000000000000000000000000000000100006512547870MARIA DO CARMO FAGUNDES DOS REIS        RUA CARLOS MALCHER - 98 - PARQUE EDU CHA            02232020                                                            000140
2SR. CAIXA, APOS O VENCIMENTO COBRAR 2% DE MULTA                                 NAO RECEBER APOS 30 DIAS DO VENCIMENTO.                                                                                                                                                                                                         01021900000000000000102190000000000000       0090339900006270065125021910000141
9                                                                                                                                                                                                                                                                                                                                                                                                         000142