01REMESSA01COBRANCA       00000000000005331186HB SANTOS CONSTRUTORA E INCORP237BRADESCO       011221        MX0000037                                                                                                                                                                                                                                                                                     000001
100000000000000000000009033990000995400000000000000000000000010002020026858612211300000000002            2  01268586122108122100000002684840000000001N011221000000000000000000000000000000000000000000000000000000000000000100026858625879GLAUCE FERREIRA DE OLIVEIRA FALSI       RUA LOURENCO ANTONIO BRAGANCA - 116 - JA            04403160                                                            000002
2SR. CAIXA, APOS O VENCIMENTO COBRAR 2% DE MULTA                                 NAO RECEBER APOS 30 DIAS DO VENCIMENTO.                                                                                                                                                                                                         01122100000000000000112210000000000000       0090339900009954268586122113000003
100000000000000000000009033990000995400000000000000000000000010002020016960812211400000000002            2  01169608122108122100000002563570000000001N011221000000000000000000000000000000000000000000000000000000000000000100016960804876LUIZ ALVES DE SOUZA JUNIOR              RUA FRANCISCO ALVES - 394 CASA B - PAECA            11450320                                                            000005
2SR. CAIXA, APOS O VENCIMENTO COBRAR 2% DE MULTA                                 NAO RECEBER APOS 30 DIAS DO VENCIMENTO.                                                                                                                                                                                                         01122100000000000000112210000000000000       0090339900009954169608122114000006
100000000000000000000009033990000995400000000000000000000000010002020008899312211100000000002            2  01088993122108122100000002546900000000001N011221000000000000000000000000000000000000000000000000000000000000000100008899362858ELAINE D ALMEIDA FERDINANDY             ALAMEDA SUBTENENTE AVIADOR FRANCISCO HIE            02187040                                                            000008
2SR. CAIXA, APOS O VENCIMENTO COBRAR 2% DE MULTA                                 NAO RECEBER APOS 30 DIAS DO VENCIMENTO.                                                                                                                                                                                                         01122100000000000000112210000000000000       0090339900009954088993122111000009
100000000000000000000009033990000995400000000000000000000000010002020029425012211600000000002            2  01294250122108122100000002553280000000001N011221000000000000000000000000000000000000000000000000000000000000000100029425027897FABIA DOS SANTOS DE ANDRADE             AVENIDA ALCIDES CANDIDO DOS SANTOS - 248            11705480                                                            000011
2SR. CAIXA, APOS O VENCIMENTO COBRAR 2% DE MULTA                                 NAO RECEBER APOS 30 DIAS DO VENCIMENTO.                                                                                                                                                                                                         01122100000000000000112210000000000000       0090339900009954294250122116000012
100000000000000000000009033990000995400000000000000000000000010002020078382712211100000000002            2  01783827122108122100000002580230000000001N011221000000000000000000000000000000000000000000000000000000000000000100078382700497JARMELINA BARBOSA DA SILVA              RUA OSCAR CINTRA GORDINHO - 211 AP.51 -             01512010                                                            000014
2SR. CAIXA, APOS O VENCIMENTO COBRAR 2% DE MULTA                                 NAO RECEBER APOS 30 DIAS DO VENCIMENTO.                                                                                                                                                                                                         01122100000000000000112210000000000000       0090339900009954783827122111000015
100000000000000000000009033990000995400000000000000000000000010002020007535312211000000000002            2  01075353122108122100000002530230000000001N011221000000000000000000000000000000000000000000000000000000000000000100007535375839AINAILDE PEREIRA DE CASTRO OLIVETTO     TRAVESSA DORALINA ELIETE ADAO DA SILVA -            08021026                                                            000017
2SR. CAIXA, APOS O VENCIMENTO COBRAR 2% DE MULTA                                 NAO RECEBER APOS 30 DIAS DO VENCIMENTO.                                                                                                                                                                                                         01122100000000000000112210000000000000       0090339900009954075353122110000018
100000000000000000000009033990000995400000000000000000000000010002020028974212211800000000002            2  01289742122108122100000002503280000000001N011221000000000000000000000000000000000000000000000000000000000000000100028974233827MARISTELA FAVANI DE OLIVEIRA            RUA GIUSEPPE CARNEVALLI - 96 - BAIRRO BO            09572100                                                            000020
2SR. CAIXA, APOS O VENCIMENTO COBRAR 2% DE MULTA                                 NAO RECEBER APOS 30 DIAS DO VENCIMENTO.                                                                                                                                                                                                         01122100000000000000112210000000000000       0090339900009954289742122118000021
100000000000000000000009033990000995400000000000000000000000010002020092184812211500000000002            2  01921848122108122100000002469950000000001N011221000000000000000000000000000000000000000000000000000000000000000100092184804800CARMEM DO SOCORRO GUILHERME             ESTRADA SAO FRANCISCO - 1.850 AP.182A -             06765000                                                            000023
2SR. CAIXA, APOS O VENCIMENTO COBRAR 2% DE MULTA                                 NAO RECEBER APOS 30 DIAS DO VENCIMENTO.                                                                                                                                                                                                         01122100000000000000112210000000000000       0090339900009954921848122115000024
100000000000000000000009033990000995400000000000000000000000010002020092184812212300000000002            2  01921848122108122100000002469940000000001N011221000000000000000000000000000000000000000000000000000000000000000100092184804800CARMEM DO SOCORRO GUILHERME             ESTRADA SAO FRANCISCO - 1.850 AP.182A -             06765000                                                            000026
2SR. CAIXA, APOS O VENCIMENTO COBRAR 2% DE MULTA                                 NAO RECEBER APOS 30 DIAS DO VENCIMENTO.                                                                                                                                                                                                         01122100000000000000112210000000000000       0090339900009954921848122123000027
100000000000000000000009033990000995400000000000000000000000010002020009169712211500000000002            2  01091697122108122100000001980920000000001N011221000000000000000000000000000000000000000000000000000000000000000100009169701830TADEU CONSTANTINO LOPES                 RUA JOSE ANTONIO COELHO - 349 CASA 01 -             04011061                                                            000029
2SR. CAIXA, APOS O VENCIMENTO COBRAR 2% DE MULTA                                 NAO RECEBER APOS 30 DIAS DO VENCIMENTO.                                                                                                                                                                                                         01122100000000000000112210000000000000       0090339900009954091697122115000030
100000000000000000000009033990000995400000000000000000000000010002020042480112211300000000002            2  01424801122108122100000002519950000000001N011221000000000000000000000000000000000000000000000000000000000000000100042480155870JAMITRE SOIOMARA ALVES DO NASCIMENTO DAVRUA SERTANISTA GILBERTO PINTO FRANCISCO             11703440                                                            000032
2SR. CAIXA, APOS O VENCIMENTO COBRAR 2% DE MULTA                                 NAO RECEBER APOS 30 DIAS DO VENCIMENTO.                                                                                                                                                                                                         01122100000000000000112210000000000000       0090339900009954424801122113000033
100000000000000000000009033990000995400000000000000000000000010002020004611212211P00000000002            2  01046112122108122100000002466260000000001N011221000000000000000000000000000000000000000000000000000000000000000100004611218830TANIA MARIA DA SILVA NUNES PEREIRA LUIZ RODOVIA RAPOSO TAVARES, 7389 KM 17,5 - A            05576200                                                            000035
2SR. CAIXA, APOS O VENCIMENTO COBRAR 2% DE MULTA                                 NAO RECEBER APOS 30 DIAS DO VENCIMENTO.                                                                                                                                                                                                         01122100000000000000112210000000000000       009033990000995404611212211P000036
100000000000000000000009033990000995400000000000000000000000010002020008966512211900000000002            2  01089665122108122100000002380920000000001N011221000000000000000000000000000000000000000000000000000000000000000100008966511856MONICA SILVA REIS                       RUA ORATORIO - 264 E FUNDOS - BANGU - SA            09280550                                                            000038
2SR. CAIXA, APOS O VENCIMENTO COBRAR 2% DE MULTA                                 NAO RECEBER APOS 30 DIAS DO VENCIMENTO.                                                                                                                                                                                                         01122100000000000000112210000000000000       0090339900009954089665122119000039
100000000000000000000009033990000995400000000000000000000000010002020001356912211P00000000002            2  01013569122108122100000002557450000000001N011221000000000000000000000000000000000000000000000000000000000000000100001356993800DALVA MARIA DOS SANTOS                  RUA SOLDADO CESARIO AGUIAR - 30 - VILA G            07070050                                                            000041
2SR. CAIXA, APOS O VENCIMENTO COBRAR 2% DE MULTA                                 NAO RECEBER APOS 30 DIAS DO VENCIMENTO.                                                                                                                                                                                                         01122100000000000000112210000000000000       009033990000995401356912211P000042
100000000000000000000009033990000995400000000000000000000000010002020024615512211200000000002            2  01246155122108122100000002916670000000001N011221000000000000000000000000000000000000000000000000000000000000000100024615557884GILBERTO JOSE GONSALES                  RUA DOS GOYTACAZES - 447 AP.206 BL.2 - C            28013266                                                            000044
2SR. CAIXA, APOS O VENCIMENTO COBRAR 2% DE MULTA                                 NAO RECEBER APOS 30 DIAS DO VENCIMENTO.                                                                                                                                                                                                         01122100000000000000112210000000000000       0090339900009954246155122112000045
100000000000000000000009033990000995400000000000000000000000010002020008878812211700000000002            2  01088788122108122100000002804970000000001N011221000000000000000000000000000000000000000000000000000000000000000100008878832812LUIZ ANTONIO DE OLIVEIRA                RUA TORRINHA - 220 AP.132 - BAIRRO TATUA            03332010                                                            000047
2SR. CAIXA, APOS O VENCIMENTO COBRAR 2% DE MULTA                                 NAO RECEBER APOS 30 DIAS DO VENCIMENTO.                                                                                                                                                                                                         01122100000000000000112210000000000000       0090339900009954088788122117000048
100000000000000000000009033990000995400000000000000000000000010002020031473712211200000000002            2  01314737122108122100000002061630000000001N011221000000000000000000000000000000000000000000000000000000000000000100031473799813MURIEL DA SILVA DE MOURA SOUZA          RUA CAPITAO PAULINO FREIRE - 300 AP.014             08717100                                                            000050
2SR. CAIXA, APOS O VENCIMENTO COBRAR 2% DE MULTA                                 NAO RECEBER APOS 30 DIAS DO VENCIMENTO.                                                                                                                                                                                                         01122100000000000000112210000000000000       0090339900009954314737122112000051
100000000000000000000009033990000995400000000000000000000000010002020036949512211100000000002            2  01369495122108122100000002729300000000001N011221000000000000000000000000000000000000000000000000000000000000000100036949505833FELIPE APARECIDO DOS SANTOS             RUA DAS MIMOSAS - 67 CASA 09 - VILA LUCI            03144010                                                            000053
2SR. CAIXA, APOS O VENCIMENTO COBRAR 2% DE MULTA                                 NAO RECEBER APOS 30 DIAS DO VENCIMENTO.                                                                                                                                                                                                         01122100000000000000112210000000000000       0090339900009954369495122111000054
100000000000000000000009033990000995400000000000000000000000010002020008539312211900000000002            2  01085393122108122100000002788540000000001N011221000000000000000000000000000000000000000000000000000000000000000100008539365871EDMILSON RAIMUNDO DOS SANTOS            RUA CALIDICE - 247 - PARQUE CRUZEIRO - S            08070010                                                            000056
2SR. CAIXA, APOS O VENCIMENTO COBRAR 2% DE MULTA                                 NAO RECEBER APOS 30 DIAS DO VENCIMENTO.                                                                                                                                                                                                         01122100000000000000112210000000000000       0090339900009954085393122119000057
9                                                                                                                                                                                                                                                                                                                                                                                                         000058