01REMESSA01COBRANCA       00000000000004991781AIRES CONSTRUTORA E INCORPORAD237BRADESCO       010118        MX0000095                                                                                                                                                                                                                                                                                     000001
100000000000000000000009077090006612500000000000000000000000010002100094852201181500000000002            2  01948522011810011800000002148720000000001N010118000000000000000000000000000000000000000000000000000000000000000100094852294887GISELDA MENON                           RUA OTAVIO BARRETO - 105 - VILA SANTISTA            02560080                                                            000002
2SR. CAIXA, APOS O VENCIMENTO COBRAR 10% DE MULTA                                NAO RECEBER APOS 30 DIAS DO VENCIMENTO.                                                                                                                                                                                                         01011800000000000000101180000000000000       0090770900066125948522011815000003
100000000000000000000009077090006612500000000000000000000000010002100006485901181100000000002            2  01064859011810011800000003295440000000001N010118000000000000000000000000000000000000000000000000000000000000000100006485911820CELIO MANUEL  MELIM SANTO               RUA JUVENAL FERREIRA  - 85 AP.61 - VILA             03512040                                                            000005
2SR. CAIXA, APOS O VENCIMENTO COBRAR 10% DE MULTA                                NAO RECEBER APOS 30 DIAS DO VENCIMENTO.                                                                                                                                                                                                         01011800000000000000101180000000000000       0090770900066125064859011811000006
100000000000000000000009077090006612500000000000000000000000010002100004693801181000000000002            2  01046938011810011800000002872220000000001N010118000000000000000000000000000000000000000000000000000000000000000100004693857823NIVALDO BARTOLOMEU FERREIRA             MNS JOSE MARINONI  - 33 - SANTO AMARO -             04430350                                                            000008
2SR. CAIXA, APOS O VENCIMENTO COBRAR 10% DE MULTA                                NAO RECEBER APOS 30 DIAS DO VENCIMENTO.                                                                                                                                                                                                         01011800000000000000101180000000000000       0090770900066125046938011810000009
100000000000000000000009077090006612500000000000000000000000010002100027993101181P00000000002            2  01279931011810011800000002735000000000001N010118000000000000000000000000000000000000000000000000000000000000000100027993108853DALVA JESUS RODRIGUES CABRAL            RUA CRISTOVAO COLOMBO GONCALVES - 97 - C            04811050                                                            000011
2SR. CAIXA, APOS O VENCIMENTO COBRAR 10% DE MULTA                                NAO RECEBER APOS 30 DIAS DO VENCIMENTO.                                                                                                                                                                                                         01011800000000000000101180000000000000       009077090006612527993101181P000012
100000000000000000000009077090006612500000000000000000000000010002100000455401181900000000002            2  01004554011810011800000002841020000000001N010118000000000000000000000000000000000000000000000000000000000000000100000455495831PAULO HENRIQUE LOURENCO                 RUA FIGUEIRA  - 237 - CIDADE DAS FLORES             06184060                                                            000014
2SR. CAIXA, APOS O VENCIMENTO COBRAR 10% DE MULTA                                NAO RECEBER APOS 30 DIAS DO VENCIMENTO.                                                                                                                                                                                                         01011800000000000000101180000000000000       0090770900066125004554011819000015
100000000000000000000009077090006612500000000000000000000000010002100006140001181P00000000002            2  01061400011810011800000003523280000000001N010118000000000000000000000000000000000000000000000000000000000000000100006140049857MARIA ALBANI DA SILVA EUSEBIO           RUA ORLANDO SEGALA - 108 - JARDIM ADRIAN            07135190                                                            000017
2SR. CAIXA, APOS O VENCIMENTO COBRAR 10% DE MULTA                                NAO RECEBER APOS 30 DIAS DO VENCIMENTO.                                                                                                                                                                                                         01011800000000000000101180000000000000       009077090006612506140001181P000018
100000000000000000000009077090006612500000000000000000000000010002100002324701181400000000002            2  01023247011810011800000003454960000000001N010118000000000000000000000000000000000000000000000000000000000000000100002324785897IZILDA NAPOLI                           RUA MONTE CASTELO - 295 AP.71 - AVIACAO             11702720                                                            000020
2SR. CAIXA, APOS O VENCIMENTO COBRAR 10% DE MULTA                                NAO RECEBER APOS 30 DIAS DO VENCIMENTO.                                                                                                                                                                                                         01011800000000000000101180000000000000       0090770900066125023247011814000021
100000000000000000000009077090006612500000000000000000000000010002100007768701181900000000002            2  01077687011810011800000003579050000000001N010118000000000000000000000000000000000000000000000000000000000000000100007768713826FATIMA LUZIA BIANCHI                    DR. OLIDAIR AMBROSIO - 1487 AP.03 - CENT            14160170                                                            000023
2SR. CAIXA, APOS O VENCIMENTO COBRAR 10% DE MULTA                                NAO RECEBER APOS 30 DIAS DO VENCIMENTO.                                                                                                                                                                                                         01011800000000000000101180000000000000       0090770900066125077687011819000024
100000000000000000000009077090006612500000000000000000000000010002100021716801181600000000002            2  01217168011810011800000003525910000000001N010118000000000000000000000000000000000000000000000000000000000000000100021716847800DANIELLE FAGUNDES DE A.MATOS            CONDE MOREIRA LIMA - 644 - JARDIM JABAQU            04384032                                                            000026
2SR. CAIXA, APOS O VENCIMENTO COBRAR 10% DE MULTA                                NAO RECEBER APOS 30 DIAS DO VENCIMENTO.                                                                                                                                                                                                         01011800000000000000101180000000000000       0090770900066125217168011816000027
100000000000000000000009077090006612500000000000000000000000010002100085416901181P00000000002            2  01854169011810011800000002988970000000001N010118000000000000000000000000000000000000000000000000000000000000000100085416940891ANTONIO DE SOUSA MENDES                 RUA MONTE CASTELO - 296 AP.52 - AVIACAO             11702720                                                            000029
2SR. CAIXA, APOS O VENCIMENTO COBRAR 10% DE MULTA                                NAO RECEBER APOS 30 DIAS DO VENCIMENTO.                                                                                                                                                                                                         01011800000000000000101180000000000000       009077090006612585416901181P000030
100000000000000000000009077090006612500000000000000000000000010002100005678001181300000000002            2  01056780011810011800000003112970000000001N010118000000000000000000000000000000000000000000000000000000000000000100005678057863FABIO MOREIRA CAMPOS                    RUA FLORENCIO DA SILVA - 284 - VILA LIBA            03738070                                                            000032
2SR. CAIXA, APOS O VENCIMENTO COBRAR 10% DE MULTA                                NAO RECEBER APOS 30 DIAS DO VENCIMENTO.                                                                                                                                                                                                         01011800000000000000101180000000000000       0090770900066125056780011813000033
100000000000000000000009077090006612500000000000000000000000010002100007784401181P00000000002            2  01077844011810011800000003143370000000001N010118000000000000000000000000000000000000000000000000000000000000000100007784496885GUILHERME LEONARDO DO NASCIMENTO        COMENDADOR RUBENS RONCARE - 127 - PONTE             11530120                                                            000035
2SR. CAIXA, APOS O VENCIMENTO COBRAR 10% DE MULTA                                NAO RECEBER APOS 30 DIAS DO VENCIMENTO.                                                                                                                                                                                                         01011800000000000000101180000000000000       009077090006612507784401181P000036
100000000000000000000009077090006612500000000000000000000000010002100016348201181P00000000002            2  01163482011810011800000003036940000000001N010118000000000000000000000000000000000000000000000000000000000000000100016348237885AILTON LORENA                           AVENIDA BRASILIA - 194 - BELA VISTA - SA            09180260                                                            000038
2SR. CAIXA, APOS O VENCIMENTO COBRAR 10% DE MULTA                                NAO RECEBER APOS 30 DIAS DO VENCIMENTO.                                                                                                                                                                                                         01011800000000000000101180000000000000       009077090006612516348201181P000039
100000000000000000000009077090006612500000000000000000000000010002100081218401181300000000002            2  01812184011810011800000002931010000000001N010118000000000000000000000000000000000000000000000000000000000000000100081218486953OSMAR DA COSTA                          RUA MONTE CASTELO - 295 AP.33 - AVIACAO             11702720                                                            000041
2SR. CAIXA, APOS O VENCIMENTO COBRAR 10% DE MULTA                                NAO RECEBER APOS 30 DIAS DO VENCIMENTO.                                                                                                                                                                                                         01011800000000000000101180000000000000       0090770900066125812184011813000042
100000000000000000000009077090006612500000000000000000000000010002100004981801181600000000002            2  01049818011810011800000003329090000000001N010118000000000000000000000000000000000000000000000000000000000000000100004981884850SILVIO PAULINO GONCALVES                MARIA DE CASTRO MESQUITA - 84 AP.103 BLO            07110040                                                            000044
2SR. CAIXA, APOS O VENCIMENTO COBRAR 10% DE MULTA                                NAO RECEBER APOS 30 DIAS DO VENCIMENTO.                                                                                                                                                                                                         01011800000000000000101180000000000000       0090770900066125049818011816000045
100000000000000000000009077090006612500000000000000000000000010002100019282501181000000000002            2  01192825011810011800000002185220000000001N010118000000000000000000000000000000000000000000000000000000000000000100019282546837FABIO LEANDRO DE FREITAS ASSIS          RUA BASSIM NAGIB TRABULSI - 97 - PONTA D            11030540                                                            000047
2SR. CAIXA, APOS O VENCIMENTO COBRAR 10% DE MULTA                                NAO RECEBER APOS 30 DIAS DO VENCIMENTO.                                                                                                                                                                                                         01011800000000000000101180000000000000       0090770900066125192825011810000048
100000000000000000000009077090006612500000000000000000000000010002100008423401181400000000002            2  01084234011810011800000003036870000000001N010118000000000000000000000000000000000000000000000000000000000000000100008423485811EDSON LUIZ NUNES                        RUA NOEMIA PEDROSO BUENO - 41 - JARDIM G            09360440                                                            000050
2SR. CAIXA, APOS O VENCIMENTO COBRAR 10% DE MULTA                                NAO RECEBER APOS 30 DIAS DO VENCIMENTO.                                                                                                                                                                                                         01011800000000000000101180000000000000       0090770900066125084234011814000051
100000000000000000000009077090006612500000000000000000000000010002100003010501181300000000002            2  01030105011810011800000003514040000000001N010118000000000000000000000000000000000000000000000000000000000000000100003010502877GIZELA VIEIRA BARROS                    RUA GIACOMO DALCIN - 157 - MAUA - SAO CA            09580350                                                            000053
2SR. CAIXA, APOS O VENCIMENTO COBRAR 10% DE MULTA                                NAO RECEBER APOS 30 DIAS DO VENCIMENTO.                                                                                                                                                                                                         01011800000000000000101180000000000000       0090770900066125030105011813000054
100000000000000000000009077090006612500000000000000000000000010002100012111001181900000000002            2  01121110011810011800000002861370000000001N010118000000000000000000000000000000000000000000000000000000000000000100012111060801CLAUDIA CRISTINA CRELIS COSTA           RUA RUI BARBOSA - 1736 AP.1533 - VILA SA            19015001                                                            000056
2SR. CAIXA, APOS O VENCIMENTO COBRAR 10% DE MULTA                                NAO RECEBER APOS 30 DIAS DO VENCIMENTO.                                                                                                                                                                                                         01011800000000000000101180000000000000       0090770900066125121110011819000057
100000000000000000000009077090006612500000000000000000000000010002100009777201181000000000002            2  01097772011810011800000002755160000000001N010118000000000000000000000000000000000000000000000000000000000000000100009777281889CARLITA DE FIGUEIREDO CARVALHO          AVENIDA ALBERTO DE ALMEIDA VINHAS - 4462            11701350                                                            000059
2SR. CAIXA, APOS O VENCIMENTO COBRAR 10% DE MULTA                                NAO RECEBER APOS 30 DIAS DO VENCIMENTO.                                                                                                                                                                                                         01011800000000000000101180000000000000       0090770900066125097772011810000060
100000000000000000000009077090006612500000000000000000000000010002100004213001181800000000002            2  01042130011810011800000003271970000000001N010118000000000000000000000000000000000000000000000000000000000000000100004213020894ELIETE DRUGOVICH DE LIMA                RUA OSVALDO CRUZ - 141 AP.144-B - SANTA             09541270                                                            000062
2SR. CAIXA, APOS O VENCIMENTO COBRAR 10% DE MULTA                                NAO RECEBER APOS 30 DIAS DO VENCIMENTO.                                                                                                                                                                                                         01011800000000000000101180000000000000       0090770900066125042130011818000063
100000000000000000000009077090006612500000000000000000000000010002100085839801181000000000002            2  01858398011810011800000002497250000000001N010118000000000000000000000000000000000000000000000000000000000000000100085839817872MAURO CORREIA MARTINS                   RUA PROFESSOR JOSE AZEVEDO MINHOTO - 72             06114000                                                            000065
2SR. CAIXA, APOS O VENCIMENTO COBRAR 10% DE MULTA                                NAO RECEBER APOS 30 DIAS DO VENCIMENTO.                                                                                                                                                                                                         01011800000000000000101180000000000000       0090770900066125858398011810000066
100000000000000000000009077090006612500000000000000000000000010002100043122801181200000000002            2  01431228011810011800000002230160000000001N010118000000000000000000000000000000000000000000000000000000000000000100043122850800ANTONIO JOAQUIM GOES                    ANTONIO DOAS DA SILVA - 412 - VILA AMALI            02618110                                                            000068
2SR. CAIXA, APOS O VENCIMENTO COBRAR 10% DE MULTA                                NAO RECEBER APOS 30 DIAS DO VENCIMENTO.                                                                                                                                                                                                         01011800000000000000101180000000000000       0090770900066125431228011812000069
100000000000000000000009077090006612500000000000000000000000010002100003865701181900000000002            2  01038657011810011800000002928040000000001N010118000000000000000000000000000000000000000000000000000000000000000100003865776841FRANCISCO JOSE ROCCO                    RUA FABIO JOSE BEZERRA - 130 AP.86 - PAR            03805000                                                            000071
2SR. CAIXA, APOS O VENCIMENTO COBRAR 10% DE MULTA                                NAO RECEBER APOS 30 DIAS DO VENCIMENTO.                                                                                                                                                                                                         01011800000000000000101180000000000000       0090770900066125038657011819000072
100000000000000000000009077090006612500000000000000000000000010002100028309501181500000000002            2  01283095011810011800000002611140000000001N010118000000000000000000000000000000000000000000000000000000000000000100028309524803DEISE RIBEIRO BARBOSA                   RUA CANDIDO JOSE DE ANDRADE - 173 - ERME            03807030                                                            000074
2SR. CAIXA, APOS O VENCIMENTO COBRAR 10% DE MULTA                                NAO RECEBER APOS 30 DIAS DO VENCIMENTO.                                                                                                                                                                                                         01011800000000000000101180000000000000       0090770900066125283095011815000075
100000000000000000000009077090006612500000000000000000000000010002100011277901181500000000002            2  01112779011810011800000003099120000000001N010118000000000000000000000000000000000000000000000000000000000000000100011277908893JOSE AILTON LOPES DE AZEVEDO            RUA MAESTRO JOAO SEPE - 19 - JARDIM MARI            04181030                                                            000077
2SR. CAIXA, APOS O VENCIMENTO COBRAR 10% DE MULTA                                NAO RECEBER APOS 30 DIAS DO VENCIMENTO.                                                                                                                                                                                                         01011800000000000000101180000000000000       0090770900066125112779011815000078
100000000000000000000009077090006612500000000000000000000000010002100025215101181200000000002            2  01252151011810011800000002337150000000001N010118000000000000000000000000000000000000000000000000000000000000000100025215106886KLEBER LUIZ DOS SANTOS                  RUA MONTE CASTELO - 262 AP.15 - AVIACAO             11702720                                                            000080
2SR. CAIXA, APOS O VENCIMENTO COBRAR 10% DE MULTA                                NAO RECEBER APOS 30 DIAS DO VENCIMENTO.                                                                                                                                                                                                         01011800000000000000101180000000000000       0090770900066125252151011812000081
100000000000000000000009077090006612500000000000000000000000010002100090206701181P00000000002            2  01902067011810011800000002610480000000001N010118000000000000000000000000000000000000000000000000000000000000000100090206789815NEREIDE RODRIGUES FERREIRA              AVENIDA PADRE ESTANISLAU DE CAMPOS - 205            03590060                                                            000083
2SR. CAIXA, APOS O VENCIMENTO COBRAR 10% DE MULTA                                NAO RECEBER APOS 30 DIAS DO VENCIMENTO.                                                                                                                                                                                                         01011800000000000000101180000000000000       009077090006612590206701181P000084
100000000000000000000009077090006612500000000000000000000000010002100029150701181800000000002            2  01291507011810011800000003055630000000001N010118000000000000000000000000000000000000000000000000000000000000000100029150742833ANA DEISE SANTOS DE ALMEIDA             RUA MONTE CASTELO - 296 AP.121 - AVIACAO            11702720                                                            000086
2SR. CAIXA, APOS O VENCIMENTO COBRAR 10% DE MULTA                                NAO RECEBER APOS 30 DIAS DO VENCIMENTO.                                                                                                                                                                                                         01011800000000000000101180000000000000       0090770900066125291507011818000087
100000000000000000000009077090006612500000000000000000000000010002100000811701181300000000002            2  01008117011810011800000002516870000000001N010118000000000000000000000000000000000000000000000000000000000000000100000811752801SERGIO BUENO DA SILVA                   RUA MONTE CASTELO - 262 AP.75 - AVIACAO             11702720                                                            000089
2SR. CAIXA, APOS O VENCIMENTO COBRAR 10% DE MULTA                                NAO RECEBER APOS 30 DIAS DO VENCIMENTO.                                                                                                                                                                                                         01011800000000000000101180000000000000       0090770900066125008117011813000090
100000000000000000000009077090006612500000000000000000000000010002100027100901181800000000002            2  01271009011810011800000002404360000000001N010118000000000000000000000000000000000000000000000000000000000000000100027100951810MARCIA RAMALHO RODRIGUES                RUA MONTE CASTELO - 296 AP.82 - AVIACAO             11702720                                                            000092
2SR. CAIXA, APOS O VENCIMENTO COBRAR 10% DE MULTA                                NAO RECEBER APOS 30 DIAS DO VENCIMENTO.                                                                                                                                                                                                         01011800000000000000101180000000000000       0090770900066125271009011818000093
100000000000000000000009077090006612500000000000000000000000010002100018344801181P00000000002            2  01183448011810011800000011889870000000001N010118000000000000000000000000000000000000000000000000000000000000000100018344803888MARCELO BERNARDO                        RUA ESTONIA - 06 - INTERLAGOS - SAO PAUL            04785140                                                            000095
2SR. CAIXA, APOS O VENCIMENTO COBRAR 10% DE MULTA                                NAO RECEBER APOS 30 DIAS DO VENCIMENTO.                                                                                                                                                                                                         01011800000000000000101180000000000000       009077090006612518344801181P000096
100000000000000000000009077090006612500000000000000000000000010002100030210501181300000000002            2  01302105011810011800000002385960000000001N010118000000000000000000000000000000000000000000000000000000000000000100030210501820ROGERIO MUNIZ DA CUNHA                  RUA MONTE CASTELO - 296 AP.34 - AVIACAO             11702720                                                            000098
2SR. CAIXA, APOS O VENCIMENTO COBRAR 10% DE MULTA                                NAO RECEBER APOS 30 DIAS DO VENCIMENTO.                                                                                                                                                                                                         01011800000000000000101180000000000000       0090770900066125302105011813000099
100000000000000000000009077090006612500000000000000000000000010002100004004301181700000000002            2  01040043011810011800000004485580000000001N010118000000000000000000000000000000000000000000000000000000000000000100004004328896VANDERLEI  MARTINS DE ALMEIDA           RUA MONSENHOR TABOSA - 03 - PARQUE CISPE            03819300                                                            000101
2SR. CAIXA, APOS O VENCIMENTO COBRAR 10% DE MULTA                                NAO RECEBER APOS 30 DIAS DO VENCIMENTO.                                                                                                                                                                                                         01011800000000000000101180000000000000       0090770900066125040043011817000102
100000000000000000000009077090006612500000000000000000000000010002100005133001181100000000002            2  01051330011810011800000003063790000000001N010118000000000000000000000000000000000000000000000000000000000000000100005133053860VICENTE ARCIPRETE JUNIOR                RUA JOSE SIMOES FERREIRA FILHO - 80 - JA            06040090                                                            000104
2SR. CAIXA, APOS O VENCIMENTO COBRAR 10% DE MULTA                                NAO RECEBER APOS 30 DIAS DO VENCIMENTO.                                                                                                                                                                                                         01011800000000000000101180000000000000       0090770900066125051330011811000105
100000000000000000000009077090006612500000000000000000000000010002100056660201181600000000002            2  01566602011810011800000000745200000000001N010118000000000000000000000000000000000000000000000000000000000000000100056660235868JOSE DA SILVA                           RUA MONTE CASTELO - 296 AP.32 - AVIACAO             11702720                                                            000107
2SR. CAIXA, APOS O VENCIMENTO COBRAR 10% DE MULTA                                NAO RECEBER APOS 30 DIAS DO VENCIMENTO.                                                                                                                                                                                                         01011800000000000000101180000000000000       0090770900066125566602011816000108
100000000000000000000009077090006612500000000000000000000000010002100016339401181800000000002            2  01163394011810011800000002706310000000001N010118000000000000000000000000000000000000000000000000000000000000000100016339432832ALEX MONTEIRO DA SILVA                  RUA IVA MOURA LIMA - 04 - JARDIM MIRNA I            04855540                                                            000110
2SR. CAIXA, APOS O VENCIMENTO COBRAR 10% DE MULTA                                NAO RECEBER APOS 30 DIAS DO VENCIMENTO.                                                                                                                                                                                                         01011800000000000000101180000000000000       0090770900066125163394011818000111
100000000000000000000009077090006612500000000000000000000000010002100031803801181500000000002            2  01318038011810011800000002763660000000001N010118000000000000000000000000000000000000000000000000000000000000000100031803864877ELEILSON FELIPPE SANTOS                 RUA SANTA GREGORIA - 193 - CIDADE DUTRA             04806030                                                            000113
2SR. CAIXA, APOS O VENCIMENTO COBRAR 10% DE MULTA                                NAO RECEBER APOS 30 DIAS DO VENCIMENTO.                                                                                                                                                                                                         01011800000000000000101180000000000000       0090770900066125318038011815000114
100000000000000000000009077090006612500000000000000000000000010002100026032601181300000000002            2  01260326011810011800000001901840000000001N010118000000000000000000000000000000000000000000000000000000000000000100026032632857MARILA LOPES PEREIRA                    AVENIDA LUIZ GISHOKEM - 1761 AP.13 BL.05            05831315                                                            000116
2SR. CAIXA, APOS O VENCIMENTO COBRAR 10% DE MULTA                                NAO RECEBER APOS 30 DIAS DO VENCIMENTO.                                                                                                                                                                                                         01011800000000000000101180000000000000       0090770900066125260326011813000117
100000000000000000000009077090006612500000000000000000000000010002100063064501181P00000000002            2  01630645011810011800000003293420000000001N010118000000000000000000000000000000000000000000000000000000000000000100063064537849ANTONIO APARECIDO DA SILVA DESTEFANO    RUA PROFESSOR TEODORO BRAGA - 46 - VILA             02966020                                                            000119
2SR. CAIXA, APOS O VENCIMENTO COBRAR 10% DE MULTA                                NAO RECEBER APOS 30 DIAS DO VENCIMENTO.                                                                                                                                                                                                         01011800000000000000101180000000000000       009077090006612563064501181P000120
100000000000000000000009077090006612500000000000000000000000010002100010107701181500000000002            2  01101077011810011800000003156080000000001N010118000000000000000000000000000000000000000000000000000000000000000100010107711834VALDEMAR FECCHIO                        RUA DOUTOR MARTINS DE OLIVEIRA - 529 AP.            05638030                                                            000122
2SR. CAIXA, APOS O VENCIMENTO COBRAR 10% DE MULTA                                NAO RECEBER APOS 30 DIAS DO VENCIMENTO.                                                                                                                                                                                                         01011800000000000000101180000000000000       0090770900066125101077011815000123
100000000000000000000009077090006612500000000000000000000000010002100003330701181400000000002            2  01033307011810011800000004060120000000001N010118000000000000000000000000000000000000000000000000000000000000000100003330791837MARLI DA SILVA BARBOSA                  RUA GLICERIO CERQUEIRA LEITE - 151 - JAR            03675040                                                            000125
2SR. CAIXA, APOS O VENCIMENTO COBRAR 10% DE MULTA                                NAO RECEBER APOS 30 DIAS DO VENCIMENTO.                                                                                                                                                                                                         01011800000000000000101180000000000000       0090770900066125033307011814000126
100000000000000000000009077090006612500000000000000000000000010002100008931001181200000000002            2  01089310011810011800000001650390000000001N010118000000000000000000000000000000000000000000000000000000000000000100008931031874MARIA MARINHO DE OLIVEIRA               AVENIDA 9 DE JULHO - 1854 AP.81 - BELA V            01312001                                                            000128
2SR. CAIXA, APOS O VENCIMENTO COBRAR 10% DE MULTA                                NAO RECEBER APOS 30 DIAS DO VENCIMENTO.                                                                                                                                                                                                         01011800000000000000101180000000000000       0090770900066125089310011812000129
100000000000000000000009077090006612500000000000000000000000010002100005920501181900000000002            2  01059205011810011800000011875680000000001N010118000000000000000000000000000000000000000000000000000000000000000100005920579846SONIA MARIA VALDO POLLO                 RUA PALMIRA CERVI BARBARO - 797 - CIDADE            13214370                                                            000131
2SR. CAIXA, APOS O VENCIMENTO COBRAR 10% DE MULTA                                NAO RECEBER APOS 30 DIAS DO VENCIMENTO.                                                                                                                                                                                                         01011800000000000000101180000000000000       0090770900066125059205011819000132
100000000000000000000009077090006612500000000000000000000000010002100005920501182700000000002            2  01059205011810011800000001917440000000001N010118000000000000000000000000000000000000000000000000000000000000000100005920579846SONIA MARIA VALDO POLLO                 RUA PALMIRA CERVI BARBARO - 797 - CIDADE            13214370                                                            000134
2SR. CAIXA, APOS O VENCIMENTO COBRAR 10% DE MULTA                                NAO RECEBER APOS 30 DIAS DO VENCIMENTO.                                                                                                                                                                                                         01011800000000000000101180000000000000       0090770900066125059205011827000135
100000000000000000000009077090006612500000000000000000000000010002100002494101181P00000000002            2  01024941011810011800000002882960000000001N010118000000000000000000000000000000000000000000000000000000000000000100002494107881CIRO FRANCISCO MARCHI DURIGON           RUA MONTE CASTELO - 262 AP.115 - AVIACAO            11702720                                                            000137
2SR. CAIXA, APOS O VENCIMENTO COBRAR 10% DE MULTA                                NAO RECEBER APOS 30 DIAS DO VENCIMENTO.                                                                                                                                                                                                         01011800000000000000101180000000000000       009077090006612502494101181P000138
100000000000000000000009077090006612500000000000000000000000010002100007002301181700000000002            2  01070023011810011800000002834110000000001N010118000000000000000000000000000000000000000000000000000000000000000100007002345869DOMINGOS DE BRITO GALVAO                RUA MONTE CASTELO - 262 AP.44 - AVIACAO             11702720                                                            000140
2SR. CAIXA, APOS O VENCIMENTO COBRAR 10% DE MULTA                                NAO RECEBER APOS 30 DIAS DO VENCIMENTO.                                                                                                                                                                                                         01011800000000000000101180000000000000       0090770900066125070023011817000141
100000000000000000000009077090006612500000000000000000000000010002100009346801181700000000002            2  01093468011810011800000001180570000000001N010118000000000000000000000000000000000000000000000000000000000000000100009346863862NELSON DE SOUZA SANTOS                  RUA PRIMEIRA CRUZ - 90 - PARQUE INDEPEND            03236060                                                            000143
2SR. CAIXA, APOS O VENCIMENTO COBRAR 10% DE MULTA                                NAO RECEBER APOS 30 DIAS DO VENCIMENTO.                                                                                                                                                                                                         01011800000000000000101180000000000000       0090770900066125093468011817000144
100000000000000000000009077090006612500000000000000000000000010002100016299001181000000000002            2  01162990011810011800000002732050000000001N010118000000000000000000000000000000000000000000000000000000000000000100016299008857FERNANDO CESAR CARVALHO                 AVENIDA MARCONDES DE BRITO - 1340 AP.74             03509000                                                            000146
2SR. CAIXA, APOS O VENCIMENTO COBRAR 10% DE MULTA                                NAO RECEBER APOS 30 DIAS DO VENCIMENTO.                                                                                                                                                                                                         01011800000000000000101180000000000000       0090770900066125162990011810000147
100000000000000000000009077090006612500000000000000000000000010002100031082801181400000000002            2  01310828011810011800000002745320000000001N010118000000000000000000000000000000000000000000000000000000000000000100031082898880VANESSA DOS SANTOS NEIVA                RUA MONTE CASTELO - 296 AP.33 - BAIRRO A            11702720                                                            000149
2SR. CAIXA, APOS O VENCIMENTO COBRAR 10% DE MULTA                                NAO RECEBER APOS 30 DIAS DO VENCIMENTO.                                                                                                                                                                                                         01011800000000000000101180000000000000       0090770900066125310828011814000150
100000000000000000000009077090006612500000000000000000000000010002100065895301181400000000002            2  01658953011810011800000001671510000000001N010118000000000000000000000000000000000000000000000000000000000000000100065895304834MARINHO BARBOSA CUNHA                   AVENIDA EDU CHAVES - 639 AP.43 - PARQUE             02229000                                                            000152
2SR. CAIXA, APOS O VENCIMENTO COBRAR 10% DE MULTA                                NAO RECEBER APOS 30 DIAS DO VENCIMENTO.                                                                                                                                                                                                         01011800000000000000101180000000000000       0090770900066125658953011814000153
9                                                                                                                                                                                                                                                                                                                                                                                                         000154