01REMESSA01COBRANCA       00000000000004991781AIRES CONSTRUTORA E INCORPORAD237BRADESCO       010319        MX0000115                                                                                                                                                                                                                                                                                     000001
100000000000000000000009077090006612500000000000000000000000010002100094852203191300000000002            2  01948522031910031900000002304120000000001N010319000000000000000000000000000000000000000000000000000000000000000100094852294887GISELDA MENON                           RUA OTAVIO BARRETO - 105 - VILA SANTISTA            02560080                                                            000002
2SR. CAIXA, APOS O VENCIMENTO COBRAR 10% DE MULTA                                NAO RECEBER APOS 30 DIAS DO VENCIMENTO.                                                                                                                                                                                                         01031900000000000000103190000000000000       0090770900066125948522031913000003
100000000000000000000009077090006612500000000000000000000000010002100006485903191P00000000002            2  01064859031910031900000003533770000000001N010319000000000000000000000000000000000000000000000000000000000000000100006485911820CELIO MANUEL  MELIM SANTO               RUA JUVENAL FERREIRA  - 85 AP.61 - VILA             03512040                                                            000005
2SR. CAIXA, APOS O VENCIMENTO COBRAR 10% DE MULTA                                NAO RECEBER APOS 30 DIAS DO VENCIMENTO.                                                                                                                                                                                                         01031900000000000000103190000000000000       009077090006612506485903191P000006
100000000000000000000009077090006612500000000000000000000000010002100004693803191900000000002            2  01046938031910031900000003079950000000001N010319000000000000000000000000000000000000000000000000000000000000000100004693857823NIVALDO BARTOLOMEU FERREIRA             MNS JOSE MARINONI  - 33 - SANTO AMARO -             04430350                                                            000008
2SR. CAIXA, APOS O VENCIMENTO COBRAR 10% DE MULTA                                NAO RECEBER APOS 30 DIAS DO VENCIMENTO.                                                                                                                                                                                                         01031900000000000000103190000000000000       0090770900066125046938031919000009
100000000000000000000009077090006612500000000000000000000000010002100027993103191800000000002            2  01279931031910031900000002932790000000001N010319000000000000000000000000000000000000000000000000000000000000000100027993108853DALVA JESUS RODRIGUES CABRAL            RUA CRISTOVAO COLOMBO GONCALVES - 97 - C            04811050                                                            000011
2SR. CAIXA, APOS O VENCIMENTO COBRAR 10% DE MULTA                                NAO RECEBER APOS 30 DIAS DO VENCIMENTO.                                                                                                                                                                                                         01031900000000000000103190000000000000       0090770900066125279931031918000012
100000000000000000000009077090006612500000000000000000000000010002100000455403191700000000002            2  01004554031910031900000003046500000000001N010319000000000000000000000000000000000000000000000000000000000000000100000455495831PAULO HENRIQUE LOURENCO                 RUA FIGUEIRA  - 237 - CIDADE DAS FLORES             06184060                                                            000014
2SR. CAIXA, APOS O VENCIMENTO COBRAR 10% DE MULTA                                NAO RECEBER APOS 30 DIAS DO VENCIMENTO.                                                                                                                                                                                                         01031900000000000000103190000000000000       0090770900066125004554031917000015
100000000000000000000009077090006612500000000000000000000000010002100006140003191800000000002            2  01061400031910031900000003778080000000001N010319000000000000000000000000000000000000000000000000000000000000000100006140049857MARIA ALBANI DA SILVA EUSEBIO           RUA ORLANDO SEGALA - 108 - JARDIM ADRIAN            07135190                                                            000017
2SR. CAIXA, APOS O VENCIMENTO COBRAR 10% DE MULTA                                NAO RECEBER APOS 30 DIAS DO VENCIMENTO.                                                                                                                                                                                                         01031900000000000000103190000000000000       0090770900066125061400031918000018
100000000000000000000009077090006612500000000000000000000000010002100007768703191700000000002            2  01077687031910031900000003837890000000001N010319000000000000000000000000000000000000000000000000000000000000000100007768713826FATIMA LUZIA BIANCHI                    DR. OLIDAIR AMBROSIO - 1487 AP.03 - CENT            14160170                                                            000020
2SR. CAIXA, APOS O VENCIMENTO COBRAR 10% DE MULTA                                NAO RECEBER APOS 30 DIAS DO VENCIMENTO.                                                                                                                                                                                                         01031900000000000000103190000000000000       0090770900066125077687031917000021
100000000000000000000009077090006612500000000000000000000000010002100021716803191400000000002            2  01217168031910031900000003780920000000001N010319000000000000000000000000000000000000000000000000000000000000000100021716847800DANIELLE FAGUNDES DE A.MATOS            CONDE MOREIRA LIMA - 644 - JARDIM JABAQU            04384032                                                            000023
2SR. CAIXA, APOS O VENCIMENTO COBRAR 10% DE MULTA                                NAO RECEBER APOS 30 DIAS DO VENCIMENTO.                                                                                                                                                                                                         01031900000000000000103190000000000000       0090770900066125217168031914000024
100000000000000000000009077090006612500000000000000000000000010002100085416903191800000000002            2  01854169031910031900000003205140000000001N010319000000000000000000000000000000000000000000000000000000000000000100085416940891ANTONIO DE SOUSA MENDES                 RUA MONTE CASTELO - 296 AP.52 - AVIACAO             11702720                                                            000026
2SR. CAIXA, APOS O VENCIMENTO COBRAR 10% DE MULTA                                NAO RECEBER APOS 30 DIAS DO VENCIMENTO.                                                                                                                                                                                                         01031900000000000000103190000000000000       0090770900066125854169031918000027
100000000000000000000009077090006612500000000000000000000000010002100005678003191100000000002            2  01056780031910031900000003338100000000001N010319000000000000000000000000000000000000000000000000000000000000000100005678057863FABIO MOREIRA CAMPOS                    RUA FLORENCIO DA SILVA - 284 - VILA LIBA            03738070                                                            000029
2SR. CAIXA, APOS O VENCIMENTO COBRAR 10% DE MULTA                                NAO RECEBER APOS 30 DIAS DO VENCIMENTO.                                                                                                                                                                                                         01031900000000000000103190000000000000       0090770900066125056780031911000030
100000000000000000000009077090006612500000000000000000000000010002100007784403191800000000002            2  01077844031910031900000003370700000000001N010319000000000000000000000000000000000000000000000000000000000000000100007784496885GUILHERME LEONARDO DO NASCIMENTO        COMENDADOR RUBENS RONCARE - 127 - PONTE             11530120                                                            000032
2SR. CAIXA, APOS O VENCIMENTO COBRAR 10% DE MULTA                                NAO RECEBER APOS 30 DIAS DO VENCIMENTO.                                                                                                                                                                                                         01031900000000000000103190000000000000       0090770900066125077844031918000033
100000000000000000000009077090006612500000000000000000000000010002100016348203191800000000002            2  01163482031910031900000003256560000000001N010319000000000000000000000000000000000000000000000000000000000000000100016348237885AILTON LORENA                           AVENIDA BRASILIA - 194 - BELA VISTA - SA            09180260                                                            000035
2SR. CAIXA, APOS O VENCIMENTO COBRAR 10% DE MULTA                                NAO RECEBER APOS 30 DIAS DO VENCIMENTO.                                                                                                                                                                                                         01031900000000000000103190000000000000       0090770900066125163482031918000036
100000000000000000000009077090006612500000000000000000000000010002100081218403191100000000002            2  01812184031910031900000003143000000000001N010319000000000000000000000000000000000000000000000000000000000000000100081218486953OSMAR DA COSTA                          RUA MONTE CASTELO - 295 AP.33 - AVIACAO             11702720                                                            000038
2SR. CAIXA, APOS O VENCIMENTO COBRAR 10% DE MULTA                                NAO RECEBER APOS 30 DIAS DO VENCIMENTO.                                                                                                                                                                                                         01031900000000000000103190000000000000       0090770900066125812184031911000039
100000000000000000000009077090006612500000000000000000000000010002100004981803191400000000002            2  01049818031910031900000003569860000000001N010319000000000000000000000000000000000000000000000000000000000000000100004981884850SILVIO PAULINO GONCALVES                MARIA DE CASTRO MESQUITA - 84 AP.103 BLO            07110040                                                            000041
2SR. CAIXA, APOS O VENCIMENTO COBRAR 10% DE MULTA                                NAO RECEBER APOS 30 DIAS DO VENCIMENTO.                                                                                                                                                                                                         01031900000000000000103190000000000000       0090770900066125049818031914000042
100000000000000000000009077090006612500000000000000000000000010002100019282503191900000000002            2  01192825031910031900000007588330000000001N010319000000000000000000000000000000000000000000000000000000000000000100019282546837FABIO LEANDRO DE FREITAS ASSIS          RUA BASSIM NAGIB TRABULSI - 97 - PONTA D            11030540                                                            000044
2SR. CAIXA, APOS O VENCIMENTO COBRAR 10% DE MULTA                                NAO RECEBER APOS 30 DIAS DO VENCIMENTO.                                                                                                                                                                                                         01031900000000000000103190000000000000       0090770900066125192825031919000045
100000000000000000000009077090006612500000000000000000000000010002100019282503192700000000002            2  01192825031910031900000002343260000000001N010319000000000000000000000000000000000000000000000000000000000000000100019282546837FABIO LEANDRO DE FREITAS ASSIS          RUA BASSIM NAGIB TRABULSI - 97 - PONTA D            11030540                                                            000047
2SR. CAIXA, APOS O VENCIMENTO COBRAR 10% DE MULTA                                NAO RECEBER APOS 30 DIAS DO VENCIMENTO.                                                                                                                                                                                                         01031900000000000000103190000000000000       0090770900066125192825031927000048
100000000000000000000009077090006612500000000000000000000000010002100008423403191200000000002            2  01084234031910031900000003256490000000001N010319000000000000000000000000000000000000000000000000000000000000000100008423485811EDSON LUIZ NUNES                        RUA NOEMIA PEDROSO BUENO - 41 - JARDIM G            09360440                                                            000050
2SR. CAIXA, APOS O VENCIMENTO COBRAR 10% DE MULTA                                NAO RECEBER APOS 30 DIAS DO VENCIMENTO.                                                                                                                                                                                                         01031900000000000000103190000000000000       0090770900066125084234031912000051
100000000000000000000009077090006612500000000000000000000000010002100003010503191100000000002            2  01030105031910031900000003768180000000001N010319000000000000000000000000000000000000000000000000000000000000000100003010502877GIZELA VIEIRA BARROS                    RUA GIACOMO DALCIN - 157 - MAUA - SAO CA            09580350                                                            000053
2SR. CAIXA, APOS O VENCIMENTO COBRAR 10% DE MULTA                                NAO RECEBER APOS 30 DIAS DO VENCIMENTO.                                                                                                                                                                                                         01031900000000000000103190000000000000       0090770900066125030105031911000054
100000000000000000000009077090006612500000000000000000000000010002100009777203191900000000002            2  01097772031910031900000002954410000000001N010319000000000000000000000000000000000000000000000000000000000000000100009777281889CARLITA DE FIGUEIREDO CARVALHO          AVENIDA ALBERTO DE ALMEIDA VINHAS - 4462            11701350                                                            000056
2SR. CAIXA, APOS O VENCIMENTO COBRAR 10% DE MULTA                                NAO RECEBER APOS 30 DIAS DO VENCIMENTO.                                                                                                                                                                                                         01031900000000000000103190000000000000       0090770900066125097772031919000057
100000000000000000000009077090006612500000000000000000000000010002100004213003191600000000002            2  01042130031910031900000003508610000000001N010319000000000000000000000000000000000000000000000000000000000000000100004213020894ELIETE DRUGOVICH DE LIMA                RUA OSVALDO CRUZ - 141 AP.144-B - SANTA             09541270                                                            000059
2SR. CAIXA, APOS O VENCIMENTO COBRAR 10% DE MULTA                                NAO RECEBER APOS 30 DIAS DO VENCIMENTO.                                                                                                                                                                                                         01031900000000000000103190000000000000       0090770900066125042130031916000060
100000000000000000000009077090006612500000000000000000000000010002100043122803191000000000002            2  01431228031910031900000002391450000000001N010319000000000000000000000000000000000000000000000000000000000000000100043122850800ANTONIO JOAQUIM GOES                    ANTONIO DOAS DA SILVA - 412 - VILA AMALI            02618110                                                            000062
2SR. CAIXA, APOS O VENCIMENTO COBRAR 10% DE MULTA                                NAO RECEBER APOS 30 DIAS DO VENCIMENTO.                                                                                                                                                                                                         01031900000000000000103190000000000000       0090770900066125431228031910000063
100000000000000000000009077090006612500000000000000000000000010002100003865703191700000000002            2  01038657031910031900000003139800000000001N010319000000000000000000000000000000000000000000000000000000000000000100003865776841FRANCISCO JOSE ROCCO                    RUA FABIO JOSE BEZERRA - 130 AP.86 - PAR            03805000                                                            000065
2SR. CAIXA, APOS O VENCIMENTO COBRAR 10% DE MULTA                                NAO RECEBER APOS 30 DIAS DO VENCIMENTO.                                                                                                                                                                                                         01031900000000000000103190000000000000       0090770900066125038657031917000066
100000000000000000000009077090006612500000000000000000000000010002100028309503191300000000002            2  01283095031910031900000002799990000000001N010319000000000000000000000000000000000000000000000000000000000000000100028309524803DEISE RIBEIRO BARBOSA                   RUA CANDIDO JOSE DE ANDRADE - 173 - ERME            03807030                                                            000068
2SR. CAIXA, APOS O VENCIMENTO COBRAR 10% DE MULTA                                NAO RECEBER APOS 30 DIAS DO VENCIMENTO.                                                                                                                                                                                                         01031900000000000000103190000000000000       0090770900066125283095031913000069
100000000000000000000009077090006612500000000000000000000000010002100011277903191300000000002            2  01112779031910031900000003323270000000001N010319000000000000000000000000000000000000000000000000000000000000000100011277908893JOSE AILTON LOPES DE AZEVEDO            RUA MAESTRO JOAO SEPE - 19 - JARDIM MARI            04181030                                                            000071
2SR. CAIXA, APOS O VENCIMENTO COBRAR 10% DE MULTA                                NAO RECEBER APOS 30 DIAS DO VENCIMENTO.                                                                                                                                                                                                         01031900000000000000103190000000000000       0090770900066125112779031913000072
100000000000000000000009077090006612500000000000000000000000010002100025215103191000000000002            2  01252151031910031900000002506160000000001N010319000000000000000000000000000000000000000000000000000000000000000100025215106886KLEBER LUIZ DOS SANTOS                  RUA MONTE CASTELO - 262 AP.15 - AVIACAO             11702720                                                            000074
2SR. CAIXA, APOS O VENCIMENTO COBRAR 10% DE MULTA                                NAO RECEBER APOS 30 DIAS DO VENCIMENTO.                                                                                                                                                                                                         01031900000000000000103190000000000000       0090770900066125252151031910000075
100000000000000000000009077090006612500000000000000000000000010002100090206703191800000000002            2  01902067031910031900000002799280000000001N010319000000000000000000000000000000000000000000000000000000000000000100090206789815NEREIDE RODRIGUES FERREIRA              AVENIDA PADRE ESTANISLAU DE CAMPOS - 205            03590060                                                            000077
2SR. CAIXA, APOS O VENCIMENTO COBRAR 10% DE MULTA                                NAO RECEBER APOS 30 DIAS DO VENCIMENTO.                                                                                                                                                                                                         01031900000000000000103190000000000000       0090770900066125902067031918000078
100000000000000000000009077090006612500000000000000000000000010002100029150703191600000000002            2  01291507031910031900000003276610000000001N010319000000000000000000000000000000000000000000000000000000000000000100029150742833ANA DEISE SANTOS DE ALMEIDA             RUA MONTE CASTELO - 296 AP.121 - AVIACAO            11702720                                                            000080
2SR. CAIXA, APOS O VENCIMENTO COBRAR 10% DE MULTA                                NAO RECEBER APOS 30 DIAS DO VENCIMENTO.                                                                                                                                                                                                         01031900000000000000103190000000000000       0090770900066125291507031916000081
100000000000000000000009077090006612500000000000000000000000010002100000811703191100000000002            2  01008117031910031900000002698890000000001N010319000000000000000000000000000000000000000000000000000000000000000100000811752801SERGIO BUENO DA SILVA                   RUA MONTE CASTELO - 262 AP.75 - AVIACAO             11702720                                                            000083
2SR. CAIXA, APOS O VENCIMENTO COBRAR 10% DE MULTA                                NAO RECEBER APOS 30 DIAS DO VENCIMENTO.                                                                                                                                                                                                         01031900000000000000103190000000000000       0090770900066125008117031911000084
100000000000000000000009077090006612500000000000000000000000010002100018344803191800000000002            2  01183448031910031900000003430860000000001N010319000000000000000000000000000000000000000000000000000000000000000100018344803888MARCELO BERNARDO                        RUA MONTE CASTELO - 262 AP.84 - AVIACAO             11702720                                                            000086
2SR. CAIXA, APOS O VENCIMENTO COBRAR 10% DE MULTA                                NAO RECEBER APOS 30 DIAS DO VENCIMENTO.                                                                                                                                                                                                         01031900000000000000103190000000000000       0090770900066125183448031918000087
100000000000000000000009077090006612500000000000000000000000010002100004004303191500000000002            2  01040043031910031900000004809970000000001N010319000000000000000000000000000000000000000000000000000000000000000100004004328896VANDERLEI  MARTINS DE ALMEIDA           RUA MONSENHOR TABOSA - 03 - PARQUE CISPE            03819300                                                            000089
2SR. CAIXA, APOS O VENCIMENTO COBRAR 10% DE MULTA                                NAO RECEBER APOS 30 DIAS DO VENCIMENTO.                                                                                                                                                                                                         01031900000000000000103190000000000000       0090770900066125040043031915000090
100000000000000000000009077090006612500000000000000000000000010002100005133003191P00000000002            2  01051330031910031900000003285360000000001N010319000000000000000000000000000000000000000000000000000000000000000100005133053860VICENTE ARCIPRETE JUNIOR                RUA JOSE SIMOES FERREIRA FILHO - 80 - JA            06040090                                                            000092
2SR. CAIXA, APOS O VENCIMENTO COBRAR 10% DE MULTA                                NAO RECEBER APOS 30 DIAS DO VENCIMENTO.                                                                                                                                                                                                         01031900000000000000103190000000000000       009077090006612505133003191P000093
100000000000000000000009077090006612500000000000000000000000010002100056660203191400000000002            2  01566602031910031900000000799110000000001N010319000000000000000000000000000000000000000000000000000000000000000100056660235868JOSE DA SILVA                           RUA MONTE CASTELO - 296 AP.32 - AVIACAO             11702720                                                            000095
2SR. CAIXA, APOS O VENCIMENTO COBRAR 10% DE MULTA                                NAO RECEBER APOS 30 DIAS DO VENCIMENTO.                                                                                                                                                                                                         01031900000000000000103190000000000000       0090770900066125566602031914000096
100000000000000000000009077090006612500000000000000000000000010002100016339403191600000000002            2  01163394031910031900000002902020000000001N010319000000000000000000000000000000000000000000000000000000000000000100016339432832ALEX MONTEIRO DA SILVA                  RUA IVA MOURA LIMA - 04 - JARDIM MIRNA I            04855540                                                            000098
2SR. CAIXA, APOS O VENCIMENTO COBRAR 10% DE MULTA                                NAO RECEBER APOS 30 DIAS DO VENCIMENTO.                                                                                                                                                                                                         01031900000000000000103190000000000000       0090770900066125163394031916000099
100000000000000000000009077090006612500000000000000000000000010002100031803803191300000000002            2  01318038031910031900000002963550000000001N010319000000000000000000000000000000000000000000000000000000000000000100031803864877ELEILSON FELIPPE SANTOS                 RUA SANTA GREGORIA - 193 - CIDADE DUTRA             04806030                                                            000101
2SR. CAIXA, APOS O VENCIMENTO COBRAR 10% DE MULTA                                NAO RECEBER APOS 30 DIAS DO VENCIMENTO.                                                                                                                                                                                                         01031900000000000000103190000000000000       0090770900066125318038031913000102
100000000000000000000009077090006612500000000000000000000000010002100026032603191100000000002            2  01260326031910031900000002039410000000001N010319000000000000000000000000000000000000000000000000000000000000000100026032632857MARILA LOPES PEREIRA                    AVENIDA LUIZ GISHOKEM - 1761 AP.13 BL.05            05831315                                                            000104
2SR. CAIXA, APOS O VENCIMENTO COBRAR 10% DE MULTA                                NAO RECEBER APOS 30 DIAS DO VENCIMENTO.                                                                                                                                                                                                         01031900000000000000103190000000000000       0090770900066125260326031911000105
100000000000000000000009077090006612500000000000000000000000010002100063064503191800000000002            2  01630645031910031900000003531610000000001N010319000000000000000000000000000000000000000000000000000000000000000100063064537849ANTONIO APARECIDO DA SILVA DESTEFANO    RUA PROFESSOR TEODORO BRAGA - 46 - VILA             02966020                                                            000107
2SR. CAIXA, APOS O VENCIMENTO COBRAR 10% DE MULTA                                NAO RECEBER APOS 30 DIAS DO VENCIMENTO.                                                                                                                                                                                                         01031900000000000000103190000000000000       0090770900066125630645031918000108
100000000000000000000009077090006612500000000000000000000000010002100010107703191300000000002            2  01101077031910031900000003384330000000001N010319000000000000000000000000000000000000000000000000000000000000000100010107711834VALDEMAR FECCHIO                        RUA DEPUTADO EMILIO CARLOS - 355 AP.21-B            06028010                                                            000110
2SR. CAIXA, APOS O VENCIMENTO COBRAR 10% DE MULTA                                NAO RECEBER APOS 30 DIAS DO VENCIMENTO.                                                                                                                                                                                                         01031900000000000000103190000000000000       0090770900066125101077031913000111
100000000000000000000009077090006612500000000000000000000000010002100003330703191200000000002            2  01033307031910031900000004353750000000001N010319000000000000000000000000000000000000000000000000000000000000000100003330791837MARLI DA SILVA BARBOSA                  RUA GLICERIO CERQUEIRA LEITE - 151 - JAR            03675040                                                            000113
2SR. CAIXA, APOS O VENCIMENTO COBRAR 10% DE MULTA                                NAO RECEBER APOS 30 DIAS DO VENCIMENTO.                                                                                                                                                                                                         01031900000000000000103190000000000000       0090770900066125033307031912000114
100000000000000000000009077090006612500000000000000000000000010002100008931003191000000000002            2  01089310031910031900000001769740000000001N010319000000000000000000000000000000000000000000000000000000000000000100008931031874BENEVENUTO THEODORO DA SILVA NETO       RUA MONTE CASTELO - 296 AP.63 - AVIACAO             11702720                                                            000116
2SR. CAIXA, APOS O VENCIMENTO COBRAR 10% DE MULTA                                NAO RECEBER APOS 30 DIAS DO VENCIMENTO.                                                                                                                                                                                                         01031900000000000000103190000000000000       0090770900066125089310031910000117
100000000000000000000009077090006612500000000000000000000000010002100005920503191700000000002            2  01059205031910031900000002056130000000001N010319000000000000000000000000000000000000000000000000000000000000000100005920579846SONIA MARIA VALDO POLLO                 RUA PALMIRA CERVI BARBARO - 797 - CIDADE            13214370                                                            000119
2SR. CAIXA, APOS O VENCIMENTO COBRAR 10% DE MULTA                                NAO RECEBER APOS 30 DIAS DO VENCIMENTO.                                                                                                                                                                                                         01031900000000000000103190000000000000       0090770900066125059205031917000120
100000000000000000000009077090006612500000000000000000000000010002100002494103191800000000002            2  01024941031910031900000003091460000000001N010319000000000000000000000000000000000000000000000000000000000000000100002494107881CIRO FRANCISCO MARCHI DURIGON           RUA MONTE CASTELO - 262 AP.115 - AVIACAO            11702720                                                            000122
2SR. CAIXA, APOS O VENCIMENTO COBRAR 10% DE MULTA                                NAO RECEBER APOS 30 DIAS DO VENCIMENTO.                                                                                                                                                                                                         01031900000000000000103190000000000000       0090770900066125024941031918000123
100000000000000000000009077090006612500000000000000000000000010002100007002303191500000000002            2  01070023031910031900000003039070000000001N010319000000000000000000000000000000000000000000000000000000000000000100007002345869DOMINGOS DE BRITO GALVAO                RUA MONTE CASTELO - 262 AP.44 - AVIACAO             11702720                                                            000125
2SR. CAIXA, APOS O VENCIMENTO COBRAR 10% DE MULTA                                NAO RECEBER APOS 30 DIAS DO VENCIMENTO.                                                                                                                                                                                                         01031900000000000000103190000000000000       0090770900066125070023031915000126
100000000000000000000009077090006612500000000000000000000000010002100009346803191500000000002            2  01093468031910031900000001265930000000001N010319000000000000000000000000000000000000000000000000000000000000000100009346863862NELSON DE SOUZA SANTOS                  RUA PRIMEIRA CRUZ - 90 - PARQUE INDEPEND            03236060                                                            000128
2SR. CAIXA, APOS O VENCIMENTO COBRAR 10% DE MULTA                                NAO RECEBER APOS 30 DIAS DO VENCIMENTO.                                                                                                                                                                                                         01031900000000000000103190000000000000       0090770900066125093468031915000129
100000000000000000000009077090006612500000000000000000000000010002100016299003191900000000002            2  01162990031910031900000006157320000000001N010319000000000000000000000000000000000000000000000000000000000000000100016299008857FERNANDO CESAR CARVALHO                 AVENIDA MARCONDES DE BRITO - 1340 AP.74             03509000                                                            000131
2SR. CAIXA, APOS O VENCIMENTO COBRAR 10% DE MULTA                                NAO RECEBER APOS 30 DIAS DO VENCIMENTO.                                                                                                                                                                                                         01031900000000000000103190000000000000       0090770900066125162990031919000132
100000000000000000000009077090006612500000000000000000000000010002100016299003192700000000002            2  01162990031910031900000002929670000000001N010319000000000000000000000000000000000000000000000000000000000000000100016299008857FERNANDO CESAR CARVALHO                 AVENIDA MARCONDES DE BRITO - 1340 AP.74             03509000                                                            000134
2SR. CAIXA, APOS O VENCIMENTO COBRAR 10% DE MULTA                                NAO RECEBER APOS 30 DIAS DO VENCIMENTO.                                                                                                                                                                                                         01031900000000000000103190000000000000       0090770900066125162990031927000135
100000000000000000000009077090006612500000000000000000000000010002100031082803191200000000002            2  01310828031910031900000002943860000000001N010319000000000000000000000000000000000000000000000000000000000000000100031082898880VANESSA DOS SANTOS NEIVA                RUA MONTE CASTELO - 296 AP.33 - BAIRRO A            11702720                                                            000137
2SR. CAIXA, APOS O VENCIMENTO COBRAR 10% DE MULTA                                NAO RECEBER APOS 30 DIAS DO VENCIMENTO.                                                                                                                                                                                                         01031900000000000000103190000000000000       0090770900066125310828031912000138
100000000000000000000009077090006612500000000000000000000000010002100065895303191200000000002            2  01658953031910031900000001792390000000001N010319000000000000000000000000000000000000000000000000000000000000000100065895304834MARINHO BARBOSA CUNHA                   AVENIDA EDU CHAVES - 639 AP.43 - PARQUE             02229000                                                            000140
2SR. CAIXA, APOS O VENCIMENTO COBRAR 10% DE MULTA                                NAO RECEBER APOS 30 DIAS DO VENCIMENTO.                                                                                                                                                                                                         01031900000000000000103190000000000000       0090770900066125658953031912000141
9                                                                                                                                                                                                                                                                                                                                                                                                         000142