01REMESSA01COBRANCA       00000000000008017025HB SANTOS CONSTRUTORA E INCORP237BRADESCO       010517        MX0000029                                                                                                                                                                                                                                                                                     000001
100000000000000000000009033990000627000000000000000000000000010002020016723138171000000000002            2  01167231381709051700000002101590000000001N010517000000000000000000000000000000000000000000000000000000000000000100029671526845ROGERIO CONSENTINO                      RUA CARLOS MAZER  - 678 - VILA CARMOSINA            08290700                                                            000002
2SR. CAIXA, APOS O VENCIMENTO COBRAR 2% DE MULTA                                 NAO RECEBER APOS 30 DIAS DO VENCIMENTO.                                                                                                                                                                                                         01051700000000000000105170000000000000       0090339900006270167231381710000003
100000000000000000000009033990000627000000000000000000000000010002020017073141174900000000002            2  01170731411709051700000001985100000000001N010517000000000000000000000000000000000000000000000000000000000000000100003863075803HERALDO MENQUINI                        RUA OCEANICA AMABILE - 346 AP.415 - CIDA            11704420                                                            000005
2SR. CAIXA, APOS O VENCIMENTO COBRAR 2% DE MULTA                                 NAO RECEBER APOS 30 DIAS DO VENCIMENTO.                                                                                                                                                                                                         01051700000000000000105170000000000000       0090339900006270170731411749000006
100000000000000000000009033990000627000000000000000000000000010002020017220142175400000000002            2  01172201421709051700000002959040000000001N010517000000000000000000000000000000000000000000000000000000000000000100025047474895DEMETRIUS GOLDSTEIN GUEDES              PRACA PALMARES - 28 - MACUCO - SANTOS -             11015330                                                            000008
2SR. CAIXA, APOS O VENCIMENTO COBRAR 2% DE MULTA                                 NAO RECEBER APOS 30 DIAS DO VENCIMENTO.                                                                                                                                                                                                         01051700000000000000105170000000000000       0090339900006270172201421754000009
100000000000000000000009033990000627000000000000000000000000010002020018494145186800000000002            2  01184941451809051700000002344930000000001N010517000000000000000000000000000000000000000000000000000000000000000100067470041834PEDRO RAIMUNDO MAGALHAES                RUA TANCREDO DE ALMEIDA NEVES - 36 - JAR            06865010                                                            000011
2SR. CAIXA, APOS O VENCIMENTO COBRAR 2% DE MULTA                                 NAO RECEBER APOS 30 DIAS DO VENCIMENTO.                                                                                                                                                                                                         01051700000000000000105170000000000000       0090339900006270184941451868000012
100000000000000000000009033990000627000000000000000000000000010002020018751148188600000000002            2  01187511481809051700000002427940000000001N010517000000000000000000000000000000000000000000000000000000000000000100013135261859EDUARDO ZANOLA                          RUA ROLANDO PIETRO BONINI - 46 - JARDIM             09781040                                                            000014
2SR. CAIXA, APOS O VENCIMENTO COBRAR 2% DE MULTA                                 NAO RECEBER APOS 30 DIAS DO VENCIMENTO.                                                                                                                                                                                                         01051700000000000000105170000000000000       0090339900006270187511481886000015
100000000000000000000009033990000627000000000000000000000000010002020018896149189600000000002            2  01188961491809051700000002033550000000001N010517000000000000000000000000000000000000000000000000000000000000000100029028478825LEONARDO LOUZADA                        RUA ILHEUS - QUADRA 31 - 244 - BAIRRO CE            19274000                                                            000017
2SR. CAIXA, APOS O VENCIMENTO COBRAR 2% DE MULTA                                 NAO RECEBER APOS 30 DIAS DO VENCIMENTO.                                                                                                                                                                                                         01051700000000000000105170000000000000       0090339900006270188961491896000018
100000000000000000000009033990000627000000000000000000000000010002020019897156197900000000002            2  01198971561909051700000002938890000000001N010517000000000000000000000000000000000000000000000000000000000000000100032878512847LEONARDO MOURA MONIZ CALDEIRA           RUA BALSA - 682 AP.134 T.02 - VILA ARCAD            02910000                                                            000020
2SR. CAIXA, APOS O VENCIMENTO COBRAR 2% DE MULTA                                 NAO RECEBER APOS 30 DIAS DO VENCIMENTO.                                                                                                                                                                                                         01051700000000000000105170000000000000       0090339900006270198971561979000021
100000000000000000000009033990000627000000000000000000000000010002020020441159201100000000002            2  01204411592009051700000003126440000000001N010517000000000000000000000000000000000000000000000000000000000000000100016479002806LOURDES PEREIRA DE QUEIROZ SECANECHIA   RUA PAULINO CURSI - 437 - CIDADE SAO MAT            03960060                                                            000023
2SR. CAIXA, APOS O VENCIMENTO COBRAR 2% DE MULTA                                 NAO RECEBER APOS 30 DIAS DO VENCIMENTO.                                                                                                                                                                                                         01051700000000000000105170000000000000       0090339900006270204411592011000024
100000000000000000000009033990000627000000000000000000000000010002020020911162205000000000002            2  01209111622009051700000002306750000000001N010517000000000000000000000000000000000000000000000000000000000000000100019635091885IVAN VIEIRA SILVA                       ABRAO JORGE - 3001 - JARDIM INTEGRACAO -            14405397                                                            000026
2SR. CAIXA, APOS O VENCIMENTO COBRAR 2% DE MULTA                                 NAO RECEBER APOS 30 DIAS DO VENCIMENTO.                                                                                                                                                                                                         01051700000000000000105170000000000000       0090339900006270209111622050000027
100000000000000000000009033990000627000000000000000000000000010002020022158170216600000000002            2  01221581702109051700000002269790000000001N010517000000000000000000000000000000000000000000000000000000000000000100009361471805JOSE BARBOSA DA SILVA                   RUA ALFREDO INACIO TRINDADE  - 60 AP.44             02344100                                                            000029
2SR. CAIXA, APOS O VENCIMENTO COBRAR 2% DE MULTA                                 NAO RECEBER APOS 30 DIAS DO VENCIMENTO.                                                                                                                                                                                                         01051700000000000000105170000000000000       0090339900006270221581702166000030
100000000000000000000009033990000627000000000000000000000000010002020022305171217100000000002            2  01223051712109051700000001959340000000001N010517000000000000000000000000000000000000000000000000000000000000000100012756959812ITAMAR JUVENAL DIAS DA SILVA            RUA ELISEU REINALDO MORAES VIEIRA - 90 A            02858000                                                            000032
2SR. CAIXA, APOS O VENCIMENTO COBRAR 2% DE MULTA                                 NAO RECEBER APOS 30 DIAS DO VENCIMENTO.                                                                                                                                                                                                         01051700000000000000105170000000000000       0090339900006270223051712171000033
100000000000000000000009033990000627000000000000000000000000010002020022870175222100000000002            2  01228701752209051700000002316450000000001N010517000000000000000000000000000000000000000000000000000000000000000100002731042842VALTER CERQUEIRA VILLA NOVA             RUA MACHADO - 106 - VILA AUGUSTA - GUARU            07025210                                                            000035
2SR. CAIXA, APOS O VENCIMENTO COBRAR 2% DE MULTA                                 NAO RECEBER APOS 30 DIAS DO VENCIMENTO.                                                                                                                                                                                                         01051700000000000000105170000000000000       0090339900006270228701752221000036
100000000000000000000009033990000627000000000000000000000000010002020023005175222600000000002            2  01230051752209051700000002316450000000001N010517000000000000000000000000000000000000000000000000000000000000000100002731042842VALTER CERQUEIRA VILLA NOVA             RUA MACHADO - 106 - VILA AUGUSTA - GUARU            07025210                                                            000038
2SR. CAIXA, APOS O VENCIMENTO COBRAR 2% DE MULTA                                 NAO RECEBER APOS 30 DIAS DO VENCIMENTO.                                                                                                                                                                                                         01051700000000000000105170000000000000       0090339900006270230051752226000039
100000000000000000000009033990000627000000000000000000000000010002020023158177224000000000002            2  01231581772209051700000002091730000000001N010517000000000000000000000000000000000000000000000000000000000000000100028802158894ELIEL HENRIQUE ZUZA                     RUA MONTE CASTELO - 262 AP.14 - BAIRRO A            11702720                                                            000041
2SR. CAIXA, APOS O VENCIMENTO COBRAR 2% DE MULTA                                 NAO RECEBER APOS 30 DIAS DO VENCIMENTO.                                                                                                                                                                                                         01051700000000000000105170000000000000       0090339900006270231581772240000042
100000000000000000000009033990000627000000000000000000000000010002020023307178225200000000002            2  01233071782209051700000001956300000000001N010517000000000000000000000000000000000000000000000000000000000000000100008739150895VANGEVALDO BATISTA SANT ANNA            TRAVESSA TOMAZIN - 02 - ERMELINO MATARAZ            03811125                                                            000044
2SR. CAIXA, APOS O VENCIMENTO COBRAR 2% DE MULTA                                 NAO RECEBER APOS 30 DIAS DO VENCIMENTO.                                                                                                                                                                                                         01051700000000000000105170000000000000       0090339900006270233071782252000045
100000000000000000000009033990000627000000000000000000000000010002020023745181228100000000002            2  01237451812211051700000001746900000000001N010517000000000000000000000000000000000000000000000000000000000000000100005313717863EDIMICIO JOSE DE ARAUJO                 PRACA NICOLAU GERAIGIRE - 680 CA A - JAR            11095110                                                            000047
2SR. CAIXA, APOS O VENCIMENTO COBRAR 2% DE MULTA                                 NAO RECEBER APOS 30 DIAS DO VENCIMENTO.                                                                                                                                                                                                         01051700000000000000105170000000000000       0090339900006270237451812281000048
100000000000000000000009033990000627000000000000000000000000010002020023891182229500000000002            2  01238911822211051700000001678180000000001N010517000000000000000000000000000000000000000000000000000000000000000100029433631897MARIO MUNIZ                             RUA LIBERO BADARO - 1115 - BAIRRO CIDADE            11704070                                                            000050
2SR. CAIXA, APOS O VENCIMENTO COBRAR 2% DE MULTA                                 NAO RECEBER APOS 30 DIAS DO VENCIMENTO.                                                                                                                                                                                                         01051700000000000000105170000000000000       0090339900006270238911822295000051
100000000000000000000009033990000627000000000000000000000000010002020024035183230800000000002            2  01240351832311051700000001504910000000001N010517000000000000000000000000000000000000000000000000000000000000000100038856851830FELIPE BIANCHI DA COSTA FREITAS         AVENIDA ENGENHEIRO ARMANDO DE ARRUDA PER            04325001                                                            000053
2SR. CAIXA, APOS O VENCIMENTO COBRAR 2% DE MULTA                                 NAO RECEBER APOS 30 DIAS DO VENCIMENTO.                                                                                                                                                                                                         01051700000000000000105170000000000000       0090339900006270240351832308000054
100000000000000000000009033990000627000000000000000000000000010002020024329180232200000000002            2  01243291802311051700000001545010000000001N010517000000000000000000000000000000000000000000000000000000000000000100001847204864AMERICA CONCEICAO DA SILVA              RUA CAMINHO DO GUARAMAR - 199 AP.11 BLOC            11721050                                                            000056
2SR. CAIXA, APOS O VENCIMENTO COBRAR 2% DE MULTA                                 NAO RECEBER APOS 30 DIAS DO VENCIMENTO.                                                                                                                                                                                                         01051700000000000000105170000000000000       0090339900006270243291802322000057
100000000000000000000009033990000627000000000000000000000000010002020025650189241300000000002            2  01256501892409051700000001997670000000001N010517000000000000000000000000000000000000000000000000000000000000000100005029828885LAURINETE DA CONCEICAO DE NORONHA       RUA MARIA LUCIA DE TOLEDO LEITE MORAES -            04434040                                                            000059
2SR. CAIXA, APOS O VENCIMENTO COBRAR 2% DE MULTA                                 NAO RECEBER APOS 30 DIAS DO VENCIMENTO.                                                                                                                                                                                                         01051700000000000000105170000000000000       0090339900006270256501892413000060
100000000000000000000009033990000627000000000000000000000000010002020027108195252P00000000002            2  01271081952511051700000001628760000000001N010517000000000000000000000000000000000000000000000000000000000000000100027682175818ALINE TEIXEIRA                          RUA CRUZEIRO DO SUL - 309 - JARDIM BOM P            06385060                                                            000062
2SR. CAIXA, APOS O VENCIMENTO COBRAR 2% DE MULTA                                 NAO RECEBER APOS 30 DIAS DO VENCIMENTO.                                                                                                                                                                                                         01051700000000000000105170000000000000       009033990000627027108195252P000063
100000000000000000000009033990000627000000000000000000000000010002020027251195252500000000002            2  01272511952511051700000001628760000000001N010517000000000000000000000000000000000000000000000000000000000000000100027682175818ALINE TEIXEIRA                          RUA CRUZEIRO DO SUL - 309 - JARDIM BOM P            06385060                                                            000065
2SR. CAIXA, APOS O VENCIMENTO COBRAR 2% DE MULTA                                 NAO RECEBER APOS 30 DIAS DO VENCIMENTO.                                                                                                                                                                                                         01051700000000000000105170000000000000       0090339900006270272511952525000066
100000000000000000000009033990000627000000000000000000000000010002020027838200257200000000002            2  01278382002511051700000001635970000000001N010517000000000000000000000000000000000000000000000000000000000000000100013388936889NEUTON DE SOUZA RAMOS                   RUA MARIA CRISTINA - 932 - JARDIM CASQUE            11533160                                                            000068
2SR. CAIXA, APOS O VENCIMENTO COBRAR 2% DE MULTA                                 NAO RECEBER APOS 30 DIAS DO VENCIMENTO.                                                                                                                                                                                                         01051700000000000000105170000000000000       0090339900006270278382002572000069
9                                                                                                                                                                                                                                                                                                                                                                                                         000070