01REMESSA01COBRANCA       00000000000008017025HB SANTOS CONSTRUTORA E INCORP237BRADESCO       100723        MX0000181                                                                                                                                                                                                                                                                                     000001
100000000000000000000009033990000627000000000000000000000000010002020025035107231700000000002            2  01250351072324072300000003054870000000001N100723000000000000000000000000000000000000000000000000000000000000000100025035170802WANDERSON LUIS DE CARVALHO              RUA JOAQUIM GONCALVES ROCHA - 302 - JARD            02859030                                                            000002
2SR. CAIXA, APOS O VENCIMENTO COBRAR 2% DE MULTA                                 NAO RECEBER APOS 30 DIAS DO VENCIMENTO.                                                                                                                                                                                                         10072300000000000001007230000000000000       0090339900006270250351072317000003
100000000000000000000009033990000627000000000000000000000000010002020007294307231400000000002            2  01072943072324072300000004108780000000001N100723000000000000000000000000000000000000000000000000000000000000000100007294351805CLAUDENIR APARECIDO VACARI              RUA CARLOS JOSE BORSTENS - 50 AP.93 - AV            11702750                                                            000005
2SR. CAIXA, APOS O VENCIMENTO COBRAR 2% DE MULTA                                 NAO RECEBER APOS 30 DIAS DO VENCIMENTO.                                                                                                                                                                                                         10072300000000000001007230000000000000       0090339900006270072943072314000006
100000000000000000000009033990000627000000000000000000000000010002020005071407231500000000002            2  01050714072324072300000004031460000000001N100723000000000000000000000000000000000000000000000000000000000000000100005071481855ERIBALDO SANTANA CARVALHO               RUA HONDURAS - 477 - PARQUE DAS AMERICAS            09351070                                                            000008
2SR. CAIXA, APOS O VENCIMENTO COBRAR 2% DE MULTA                                 NAO RECEBER APOS 30 DIAS DO VENCIMENTO.                                                                                                                                                                                                         10072300000000000001007230000000000000       0090339900006270050714072315000009
100000000000000000000009033990000627000000000000000000000000010002020002841707231900000000002            2  01028417072324072300000003771790000000001N100723000000000000000000000000000000000000000000000000000000000000000100002841756416LUCIANA PINHEIRO DE ASSIS NUNES         RUA RIO ACIMA - 81 - RIACHO GRANDE - SAO            09830100                                                            000011
2SR. CAIXA, APOS O VENCIMENTO COBRAR 2% DE MULTA                                 NAO RECEBER APOS 30 DIAS DO VENCIMENTO.                                                                                                                                                                                                         10072300000000000001007230000000000000       0090339900006270028417072319000012
100000000000000000000009033990000627000000000000000000000000010002020084302007231800000000002            2  01843020072324072300000003789900000000001N100723000000000000000000000000000000000000000000000000000000000000000100084302097868FAUSTO TADEU VILOR                      RUA ANTONIO TAVARES - 466 - BAIRRO CAMBU            01542010                                                            000014
2SR. CAIXA, APOS O VENCIMENTO COBRAR 2% DE MULTA                                 NAO RECEBER APOS 30 DIAS DO VENCIMENTO.                                                                                                                                                                                                         10072300000000000001007230000000000000       0090339900006270843020072318000015
100000000000000000000009033990000627000000000000000000000000010002020000991707231000000000002            2  01009917072324072300000003634400000000001N100723000000000000000000000000000000000000000000000000000000000000000100000991748808JAILSON BORGES DE ANDRADE               RUA IPIOBUNA - 45 - JARDIM CUMBICA - GUA            07240040                                                            000017
2SR. CAIXA, APOS O VENCIMENTO COBRAR 2% DE MULTA                                 NAO RECEBER APOS 30 DIAS DO VENCIMENTO.                                                                                                                                                                                                         10072300000000000001007230000000000000       0090339900006270009917072310000018
100000000000000000000009033990000627000000000000000000000000010002020022151607231700000000002            2  01221516072324072300000003613290000000001N100723000000000000000000000000000000000000000000000000000000000000000100022151666816SAMIR LIMA DE ARAUJO                    AVENIDA GUARAPIRANGA - 2616 AP.131 BL.14            04902005                                                            000020
2SR. CAIXA, APOS O VENCIMENTO COBRAR 2% DE MULTA                                 NAO RECEBER APOS 30 DIAS DO VENCIMENTO.                                                                                                                                                                                                         10072300000000000001007230000000000000       0090339900006270221516072317000021
100000000000000000000009033990000627000000000000000000000000010002020022313107231900000000002            2  01223131072326072300000002780850000000001N100723000000000000000000000000000000000000000000000000000000000000000100022313116824ROSA MARIA BRITO DA SILVA               RUA SERVIDAO DE SAO MARCOS - 128 CASA 1             04930300                                                            000023
2SR. CAIXA, APOS O VENCIMENTO COBRAR 2% DE MULTA                                 NAO RECEBER APOS 30 DIAS DO VENCIMENTO.                                                                                                                                                                                                         10072300000000000001007230000000000000       0090339900006270223131072319000024
100000000000000000000009033990000627000000000000000000000000010002020027538007231000000000002            2  01275380072326072300000002790530000000001N100723000000000000000000000000000000000000000000000000000000000000000100027538087249MARA LUCIA MENEZES DA COSTA             RUA LEILA  - 183 - ITAQUERA - SAO PAULO             08240020                                                            000026
2SR. CAIXA, APOS O VENCIMENTO COBRAR 2% DE MULTA                                 NAO RECEBER APOS 30 DIAS DO VENCIMENTO.                                                                                                                                                                                                         10072300000000000001007230000000000000       0090339900006270275380072310000027
100000000000000000000009033990000627000000000000000000000000010002020031278407231700000000002            2  01312784072324072300000003490540000000001N100723000000000000000000000000000000000000000000000000000000000000000100031278411836JEFFERSON DE PIERI PIRES ZAMUNER        RUA MANOEL ARCE - 277 - PARQUE BANCARIO             03922150                                                            000029
2SR. CAIXA, APOS O VENCIMENTO COBRAR 2% DE MULTA                                 NAO RECEBER APOS 30 DIAS DO VENCIMENTO.                                                                                                                                                                                                         10072300000000000001007230000000000000       0090339900006270312784072317000030
100000000000000000000009033990000627000000000000000000000000010002020019185707231900000000002            2  01191857072326072300000002539470000000001N100723000000000000000000000000000000000000000000000000000000000000000100019185769800AGUINALDO PESSOA DE LIMA                RUA JANUARIO ZINGARO - 252 AP.303 BL.04             05794300                                                            000032
2SR. CAIXA, APOS O VENCIMENTO COBRAR 2% DE MULTA                                 NAO RECEBER APOS 30 DIAS DO VENCIMENTO.                                                                                                                                                                                                         10072300000000000001007230000000000000       0090339900006270191857072319000033
100000000000000000000009033990000627000000000000000000000000010002020033303607231P00000000002            2  01333036072326072300000002735200000000001N100723000000000000000000000000000000000000000000000000000000000000000100033303645809JESSICA DA SILVA FREITAS                RUA ARILDO VALADAO - 120 - JARDIM GUAEMB            04814600                                                            000035
2SR. CAIXA, APOS O VENCIMENTO COBRAR 2% DE MULTA                                 NAO RECEBER APOS 30 DIAS DO VENCIMENTO.                                                                                                                                                                                                         10072300000000000001007230000000000000       009033990000627033303607231P000036
100000000000000000000009033990000627000000000000000000000000010002020006422607231500000000002            2  01064226072324072300000003780350000000001N100723000000000000000000000000000000000000000000000000000000000000000100006422607881GERALDO ALVES DA SILVA                  RUA CARLOS JOSE BORSTENS - 50 AP.14 - AV            11702750                                                            000038
2SR. CAIXA, APOS O VENCIMENTO COBRAR 2% DE MULTA                                 NAO RECEBER APOS 30 DIAS DO VENCIMENTO.                                                                                                                                                                                                         10072300000000000001007230000000000000       0090339900006270064226072315000039
100000000000000000000009033990000627000000000000000000000000010002020033877107231700000000002            2  01338771072326072300000002564330000000001N100723000000000000000000000000000000000000000000000000000000000000000100033877129870HELDER FERREIRA VIANA                   RUA JOSE CALIXTO DO CARMO - 286 AP.35 -             11702690                                                            000041
2SR. CAIXA, APOS O VENCIMENTO COBRAR 2% DE MULTA                                 NAO RECEBER APOS 30 DIAS DO VENCIMENTO.                                                                                                                                                                                                         10072300000000000001007230000000000000       0090339900006270338771072317000042
100000000000000000000009033990000627000000000000000000000000010002020087573007231600000000002            2  01875730072326072300000002580780000000001N100723000000000000000000000000000000000000000000000000000000000000000100087573059604VANDERLEY DE ASSIS                      RUA ROMEU ALBANI - 268 - JARDIM PARQUE R            13803810                                                            000044
2SR. CAIXA, APOS O VENCIMENTO COBRAR 2% DE MULTA                                 NAO RECEBER APOS 30 DIAS DO VENCIMENTO.                                                                                                                                                                                                         10072300000000000001007230000000000000       0090339900006270875730072316000045
100000000000000000000009033990000627000000000000000000000000010002020010825507231300000000002            2  01108255072326072300000002693180000000001N100723000000000000000000000000000000000000000000000000000000000000000100010825513847JOSE APARECIDO PEREIRA                  RUA GENERAL OSORIO - 305 - JARDIM TRINTA            11515130                                                            000047
2SR. CAIXA, APOS O VENCIMENTO COBRAR 2% DE MULTA                                 NAO RECEBER APOS 30 DIAS DO VENCIMENTO.                                                                                                                                                                                                         10072300000000000001007230000000000000       0090339900006270108255072313000048
100000000000000000000009033990000627000000000000000000000000010002020039115107231500000000002            2  01391151072326072300000003319820000000001N100723000000000000000000000000000000000000000000000000000000000000000100039115139840LAIS CRISTINA RIBEIRO ANDO              RUA JOSE CALIXTO DO CARMO - 286 AP.65 -             11702690                                                            000050
2SR. CAIXA, APOS O VENCIMENTO COBRAR 2% DE MULTA                                 NAO RECEBER APOS 30 DIAS DO VENCIMENTO.                                                                                                                                                                                                         10072300000000000001007230000000000000       0090339900006270391151072315000051
100000000000000000000009033990000627000000000000000000000000010002020000593207231300000000002            2  01005932072324072300000004069540000000001N100723000000000000000000000000000000000000000000000000000000000000000100000593293860WALTER HELIO BARBOSA FILHO              AVENIDA ANTONIO FREDERICO OZANAN - 9500             13214206                                                            000053
2SR. CAIXA, APOS O VENCIMENTO COBRAR 2% DE MULTA                                 NAO RECEBER APOS 30 DIAS DO VENCIMENTO.                                                                                                                                                                                                         10072300000000000001007230000000000000       0090339900006270005932072313000054
100000000000000000000009033990000627000000000000000000000000010002020065584107231500000000002            2  01655841072324072300000002136290000000001N100723000000000000000000000000000000000000000000000000000000000000000100065584147834JOAQUIM DA COSTA MACHADO NETO           RUA CARLOS JOSE BORSTENS - 50 AP.42 - AV            11702750                                                            000056
2SR. CAIXA, APOS O VENCIMENTO COBRAR 2% DE MULTA                                 NAO RECEBER APOS 30 DIAS DO VENCIMENTO.                                                                                                                                                                                                         10072300000000000001007230000000000000       0090339900006270655841072315000057
100000000000000000000009033990000627000000000000000000000000010002020065584107232300000000002            2  01655841072324072300000002136280000000001N100723000000000000000000000000000000000000000000000000000000000000000100065584147834JOAQUIM DA COSTA MACHADO NETO           RUA CARLOS JOSE BORSTENS - 50 AP.42 - AV            11702750                                                            000059
2SR. CAIXA, APOS O VENCIMENTO COBRAR 2% DE MULTA                                 NAO RECEBER APOS 30 DIAS DO VENCIMENTO.                                                                                                                                                                                                         10072300000000000001007230000000000000       0090339900006270655841072323000060
100000000000000000000009033990000627000000000000000000000000010002020006684607231800000000002            2  01066846072326072300000002734900000000001N100723000000000000000000000000000000000000000000000000000000000000000100006684623884LAUDINOR VIEIRA GARCIA                  RUA CANDIDO SALES - 374 - JARDIM PRESIDE            07172000                                                            000062
2SR. CAIXA, APOS O VENCIMENTO COBRAR 2% DE MULTA                                 NAO RECEBER APOS 30 DIAS DO VENCIMENTO.                                                                                                                                                                                                         10072300000000000001007230000000000000       0090339900006270066846072318000063
100000000000000000000009033990000627000000000000000000000000010002020011663507231900000000002            2  01116635072326072300000002754560000000001N100723000000000000000000000000000000000000000000000000000000000000000100011663589844MARIA SAVIO QUARELLO                    AVENIDA MENDONCA DRUMOND - 321 - JARDIM             03524030                                                            000065
2SR. CAIXA, APOS O VENCIMENTO COBRAR 2% DE MULTA                                 NAO RECEBER APOS 30 DIAS DO VENCIMENTO.                                                                                                                                                                                                         10072300000000000001007230000000000000       0090339900006270116635072319000066
100000000000000000000009033990000627000000000000000000000000010002020010083807231000000000002            2  01100838072326072300000002661370000000001N100723000000000000000000000000000000000000000000000000000000000000000100010083824855IONE FERREIRA COUTO DA SILVA            RUA JOSE RAGEL DE MESQUITA - 60 CS.01 -             07799999                                                            000068
2SR. CAIXA, APOS O VENCIMENTO COBRAR 2% DE MULTA                                 NAO RECEBER APOS 30 DIAS DO VENCIMENTO.                                                                                                                                                                                                         10072300000000000001007230000000000000       0090339900006270100838072310000069
100000000000000000000009033990000627000000000000000000000000010002020031010707231600000000002            2  01310107072326072300000002611650000000001N100723000000000000000000000000000000000000000000000000000000000000000100031010705890ANDRE GONZALEZ RABELLO                  RUA PARAIBA - 106 AP.61 - POMPEIA - SANT            11065470                                                            000071
2SR. CAIXA, APOS O VENCIMENTO COBRAR 2% DE MULTA                                 NAO RECEBER APOS 30 DIAS DO VENCIMENTO.                                                                                                                                                                                                         10072300000000000001007230000000000000       0090339900006270310107072316000072
100000000000000000000009033990000627000000000000000000000000010002020005351007231500000000002            2  01053510072326072300000002448680000000001N100723000000000000000000000000000000000000000000000000000000000000000100005351015897VALERIA ALVES MARCOLINO HINNIGER        RUA JOSE CALIXTO DO CARMO - 286 AP.92 -             11702690                                                            000074
2SR. CAIXA, APOS O VENCIMENTO COBRAR 2% DE MULTA                                 NAO RECEBER APOS 30 DIAS DO VENCIMENTO.                                                                                                                                                                                                         10072300000000000001007230000000000000       0090339900006270053510072315000075
100000000000000000000009033990000627000000000000000000000000010002020031898707231000000000002            2  01318987072324072300000003893890000000001N100723000000000000000000000000000000000000000000000000000000000000000100031898775800ANITA MARTINS COLOMBO                   RUA CARLOS JOSE BORSTENS - 50 AP.115 - A            11702750                                                            000077
2SR. CAIXA, APOS O VENCIMENTO COBRAR 2% DE MULTA                                 NAO RECEBER APOS 30 DIAS DO VENCIMENTO.                                                                                                                                                                                                         10072300000000000001007230000000000000       0090339900006270318987072310000078
100000000000000000000009033990000627000000000000000000000000010002020037983407231000000000002            2  01379834072326072300000002876440000000001N100723000000000000000000000000000000000000000000000000000000000000000100037983484801JOSE ERIVALDO SOUZA DO NASCIMENTO RAMOS RUA LETICIA - 250 - JARDIM GUARUJA - SAO            05877260                                                            000080
2SR. CAIXA, APOS O VENCIMENTO COBRAR 2% DE MULTA                                 NAO RECEBER APOS 30 DIAS DO VENCIMENTO.                                                                                                                                                                                                         10072300000000000001007230000000000000       0090339900006270379834072310000081
100000000000000000000009033990000627000000000000000000000000010002020037983407232900000000002            2  01379834072326072300000002876430000000001N100723000000000000000000000000000000000000000000000000000000000000000100037983484801JOSE ERIVALDO SOUZA DO NASCIMENTO RAMOS RUA LETICIA - 250 - JARDIM GUARUJA - SAO            05877260                                                            000083
2SR. CAIXA, APOS O VENCIMENTO COBRAR 2% DE MULTA                                 NAO RECEBER APOS 30 DIAS DO VENCIMENTO.                                                                                                                                                                                                         10072300000000000001007230000000000000       0090339900006270379834072329000084
100000000000000000000009033990000627000000000000000000000000010002020056289207231100000000002            2  01562892072326072300000009497020000000001N100723000000000000000000000000000000000000000000000000000000000000000100056289286900PEDRO RIBEIRO                           RUA CONEGO MANOEL VAZ - 48 - SANTANA - S            02019050                                                            000086
2SR. CAIXA, APOS O VENCIMENTO COBRAR 2% DE MULTA                                 NAO RECEBER APOS 30 DIAS DO VENCIMENTO.                                                                                                                                                                                                         10072300000000000001007230000000000000       0090339900006270562892072311000087
100000000000000000000009033990000627000000000000000000000000010002020056289207232P00000000002            2  01562892072326072300000002172970000000001N100723000000000000000000000000000000000000000000000000000000000000000100056289286900PEDRO RIBEIRO                           RUA CONEGO MANOEL VAZ - 48 - SANTANA - S            02019050                                                            000089
2SR. CAIXA, APOS O VENCIMENTO COBRAR 2% DE MULTA                                 NAO RECEBER APOS 30 DIAS DO VENCIMENTO.                                                                                                                                                                                                         10072300000000000001007230000000000000       009033990000627056289207232P000090
100000000000000000000009033990000627000000000000000000000000010002020034812207231100000000002            2  01348122072324072300000005153740000000001N100723000000000000000000000000000000000000000000000000000000000000000100034812226880THAIS TORQUATO MIMOSO DE JESUS          RUA ARNALDO CINTRA - 416 AP.104 TORRE 2             03088000                                                            000092
2SR. CAIXA, APOS O VENCIMENTO COBRAR 2% DE MULTA                                 NAO RECEBER APOS 30 DIAS DO VENCIMENTO.                                                                                                                                                                                                         10072300000000000001007230000000000000       0090339900006270348122072311000093
100000000000000000000009033990000627000000000000000000000000010002020012849407231800000000002            2  01128494072326072300000005137720000000001N100723000000000000000000000000000000000000000000000000000000000000000100012849428809MOISES CLAUDIO DO ROSARIO               AVENIDA DR. AUGUSTO DE TOLEDO - 510 AP.1            09541520                                                            000095
2SR. CAIXA, APOS O VENCIMENTO COBRAR 2% DE MULTA                                 NAO RECEBER APOS 30 DIAS DO VENCIMENTO.                                                                                                                                                                                                         10072300000000000001007230000000000000       0090339900006270128494072318000096
100000000000000000000009033990000627000000000000000000000000010002020014087407231000000000002            2  01140874072326072300000002836530000000001N100723000000000000000000000000000000000000000000000000000000000000000100014087484874SERGIO SANTOS DO NASCIMENTO             RUA JOSE CALIXTO DO CARMO - 286 AP.52 -             11702690                                                            000098
2SR. CAIXA, APOS O VENCIMENTO COBRAR 2% DE MULTA                                 NAO RECEBER APOS 30 DIAS DO VENCIMENTO.                                                                                                                                                                                                         10072300000000000001007230000000000000       0090339900006270140874072310000099
100000000000000000000009033990000627000000000000000000000000010002020026834507231P00000000002            2  01268345072326072300000002613520000000001N100723000000000000000000000000000000000000000000000000000000000000000100026834550895RAQUEL CARDOSO JOAO                     RUA PEDROSO XAVIER - 277 AP.23 TORRE 01             02732020                                                            000101
2SR. CAIXA, APOS O VENCIMENTO COBRAR 2% DE MULTA                                 NAO RECEBER APOS 30 DIAS DO VENCIMENTO.                                                                                                                                                                                                         10072300000000000001007230000000000000       009033990000627026834507231P000102
100000000000000000000009033990000627000000000000000000000000010002020039540007231800000000002            2  01395400072326072300000002569460000000001N100723000000000000000000000000000000000000000000000000000000000000000100039540008816LUZINETE CLARINDO SILVA                 RUA DEINOS - 275 - BAIRRO CIDADE SATELIT            08340100                                                            000104
2SR. CAIXA, APOS O VENCIMENTO COBRAR 2% DE MULTA                                 NAO RECEBER APOS 30 DIAS DO VENCIMENTO.                                                                                                                                                                                                         10072300000000000001007230000000000000       0090339900006270395400072318000105
100000000000000000000009033990000627000000000000000000000000010002020003311007231500000000002            2  01033110072326072300000002675800000000001N100723000000000000000000000000000000000000000000000000000000000000000100003311030877SEBASTIAO SARUVA NETO                   RUA HAMILTON REGIS - 559 - BAIRRO DO LIM            08051440                                                            000107
2SR. CAIXA, APOS O VENCIMENTO COBRAR 2% DE MULTA                                 NAO RECEBER APOS 30 DIAS DO VENCIMENTO.                                                                                                                                                                                                         10072300000000000001007230000000000000       0090339900006270033110072315000108
100000000000000000000009033990000627000000000000000000000000010002020090091907231100000000002            2  01900919072326072300000002557660000000001N100723000000000000000000000000000000000000000000000000000000000000000100090091990882JUECIR CARVALHO DA LUZ                  RUA JOSE CALIXTO DO CARMO - 286 AP.114 -            11702690                                                            000110
2SR. CAIXA, APOS O VENCIMENTO COBRAR 2% DE MULTA                                 NAO RECEBER APOS 30 DIAS DO VENCIMENTO.                                                                                                                                                                                                         10072300000000000001007230000000000000       0090339900006270900919072311000111
100000000000000000000009033990000627000000000000000000000000010002020037325907231300000000002            2  01373259072326072300000006730840000000001N100723000000000000000000000000000000000000000000000000000000000000000100037325923830MARIA AUGUSTA OLIVEIRA DE ANDRADE       RUA JOSE CALIXTO DO CARMO - 286 AP.124 -            11702690                                                            000113
2SR. CAIXA, APOS O VENCIMENTO COBRAR 2% DE MULTA                                 NAO RECEBER APOS 30 DIAS DO VENCIMENTO.                                                                                                                                                                                                         10072300000000000001007230000000000000       0090339900006270373259072313000114
100000000000000000000009033990000627000000000000000000000000010002020037325907232100000000002            2  01373259072326072300000002093070000000001N100723000000000000000000000000000000000000000000000000000000000000000100037325923830MARIA AUGUSTA OLIVEIRA DE ANDRADE       RUA JOSE CALIXTO DO CARMO - 286 AP.124 -            11702690                                                            000116
2SR. CAIXA, APOS O VENCIMENTO COBRAR 2% DE MULTA                                 NAO RECEBER APOS 30 DIAS DO VENCIMENTO.                                                                                                                                                                                                         10072300000000000001007230000000000000       0090339900006270373259072321000117
100000000000000000000009033990000627000000000000000000000000010002020012478807231000000000002            2  01124788072324072300000003808710000000001N100723000000000000000000000000000000000000000000000000000000000000000100012478899809VITORIA BATISTA QUEIROZ                 RUA CARVALHO DE FREITAS - 255 AP.71A - V            05728030                                                            000119
2SR. CAIXA, APOS O VENCIMENTO COBRAR 2% DE MULTA                                 NAO RECEBER APOS 30 DIAS DO VENCIMENTO.                                                                                                                                                                                                         10072300000000000001007230000000000000       0090339900006270124788072310000120
100000000000000000000009033990000627000000000000000000000000010002020013184807231100000000002            2  01131848072326072300000002528580000000001N100723000000000000000000000000000000000000000000000000000000000000000100013184856810SYDNEY HENRIQUE GAMARANO JUNIOR         RUA JOSE CALIXTO DO CARMO - 286 AP.125 -            11702690                                                            000122
2SR. CAIXA, APOS O VENCIMENTO COBRAR 2% DE MULTA                                 NAO RECEBER APOS 30 DIAS DO VENCIMENTO.                                                                                                                                                                                                         10072300000000000001007230000000000000       0090339900006270131848072311000123
100000000000000000000009033990000627000000000000000000000000010002020097989907231500000000002            2  01979899072326072300000001757200000000001N100723000000000000000000000000000000000000000000000000000000000000000100097989924820NELSON LUIS BERRIBILLE                  RUA SILVEIRA IGNACIO SOBRINHO - 965 - VI            13560294                                                            000125
2SR. CAIXA, APOS O VENCIMENTO COBRAR 2% DE MULTA                                 NAO RECEBER APOS 30 DIAS DO VENCIMENTO.                                                                                                                                                                                                         10072300000000000001007230000000000000       0090339900006270979899072315000126
100000000000000000000009033990000627000000000000000000000000010002020097989907232300000000002            2  01979899072326072300000001757190000000001N100723000000000000000000000000000000000000000000000000000000000000000100097989924820NELSON LUIS BERRIBILLE                  RUA SILVEIRA IGNACIO SOBRINHO - 965 - VI            13560294                                                            000128
2SR. CAIXA, APOS O VENCIMENTO COBRAR 2% DE MULTA                                 NAO RECEBER APOS 30 DIAS DO VENCIMENTO.                                                                                                                                                                                                         10072300000000000001007230000000000000       0090339900006270979899072323000129
100000000000000000000009033990000627000000000000000000000000010002020032341807231400000000002            2  01323418072324072300000003956180000000001N100723000000000000000000000000000000000000000000000000000000000000000100032341847803PRISCILA ALVES DE FRANCA MIRANDA        RUA CARLOS JOSE BORSTENS - 50 AP.91 - AV            11702750                                                            000131
2SR. CAIXA, APOS O VENCIMENTO COBRAR 2% DE MULTA                                 NAO RECEBER APOS 30 DIAS DO VENCIMENTO.                                                                                                                                                                                                         10072300000000000001007230000000000000       0090339900006270323418072314000132
100000000000000000000009033990000627000000000000000000000000010002020016050607231P00000000002            2  01160506072324072300000003672100000000001N100723000000000000000000000000000000000000000000000000000000000000000100016050684898ANDRE RODRIGUES DE OLIVEIRA             RUA CORACAO PAULISTA - 14 - FAZENDA ITAI            08132430                                                            000134
2SR. CAIXA, APOS O VENCIMENTO COBRAR 2% DE MULTA                                 NAO RECEBER APOS 30 DIAS DO VENCIMENTO.                                                                                                                                                                                                         10072300000000000001007230000000000000       009033990000627016050607231P000135
100000000000000000000009033990000627000000000000000000000000010002020021464907231300000000002            2  01214649072324072300000005787300000000001N100723000000000000000000000000000000000000000000000000000000000000000100021464965846ANDREA APARECIDA DE OLIVEIRA PECCI      RUA ANTONIO BOZ MARFIL - 103 - PARQUE DO            05396020                                                            000137
2SR. CAIXA, APOS O VENCIMENTO COBRAR 2% DE MULTA                                 NAO RECEBER APOS 30 DIAS DO VENCIMENTO.                                                                                                                                                                                                         10072300000000000001007230000000000000       0090339900006270214649072313000138
100000000000000000000009033990000627000000000000000000000000010002020030348107231500000000002            2  01303481072324072300000003506540000000001N100723000000000000000000000000000000000000000000000000000000000000000100030348198892KELLY CRISTINA CORDEIRO                 RUA CARLOS JOSE BORSTENS - 50 AP.25 - AV            11702750                                                            000140
2SR. CAIXA, APOS O VENCIMENTO COBRAR 2% DE MULTA                                 NAO RECEBER APOS 30 DIAS DO VENCIMENTO.                                                                                                                                                                                                         10072300000000000001007230000000000000       0090339900006270303481072315000141
100000000000000000000009033990000627000000000000000000000000010002020003597507231300000000002            2  01035975072326072300000002363400000000001N100723000000000000000000000000000000000000000000000000000000000000000100003597509827ANISIO FAUSTINO DE OLIVEIRA             RUA DOMINGOS DE MAMBRO - 5 CASA 20 - CIT            06040290                                                            000143
2SR. CAIXA, APOS O VENCIMENTO COBRAR 2% DE MULTA                                 NAO RECEBER APOS 30 DIAS DO VENCIMENTO.                                                                                                                                                                                                         10072300000000000001007230000000000000       0090339900006270035975072313000144
9                                                                                                                                                                                                                                                                                                                                                                                                         000145