01REMESSA01COBRANCA       00000000000004991781AIRES CONSTRUTORA E INCORPORAD237BRADESCO       160317        MX0000077                                                                                                                                                                                                                                                                                     000001
100000000000000000000009077090006612500000000000000000000000010002100026686193248900000000002            2  01266861932428031700000000028280000000099N160317000000000000000000000000000000000000000000000000000000000000000100002252149892AIRES MOTA DOS SANTOS                   AVENIDA BRASIL - 600 - AVIACAO - PRAIA G            11701090                                                            000002
2SR. CAIXA, APOS O VENCIMENTO COBRAR 10% DE MULTA                                NAO RECEBER APOS 30 DIAS DO VENCIMENTO.                                                                                                                                                                                                         16031700000000000001603170000000000000       0090770900066125266861932489000003
9                                                                                                                                                                                                                                                                                                                                                                                                         000004