01REMESSA01COBRANCA       00000000000005623874H B SANTOS CONSTRUTORA E INCOR237BRADESCO       130623        MX0000002                                                                                                                                                                                                                                                                                     000001
100000000000000000000009033990001086300000000000000000000000010002100002252106232700000000002            2  01022521062315062300000000012000000000001N130623000000000000000000000000000000000000000000000000000000000000000100002252149892AIRES MOTA DOS SANTOS                   AVENIDA BRASIL - 600 - AVIACAO - PRAIA G            11701090                                                            000002
2SR. CAIXA, APOS O VENCIMENTO COBRAR 10% DE MULTA                                NAO RECEBER APOS 30 DIAS DO VENCIMENTO.                                                                                                                                                                                                         13062300000000000001306230000000000000       0090339900010863022521062327000003
9                                                                                                                                                                                                                                                                                                                                                                                                         000004