01REMESSA01COBRANCA       00000000000008017025HB SANTOS CONSTRUTORA E INCORP237BRADESCO       120624        MX0000204                                                                                                                                                                                                                                                                                     000001
100000000000000000000009033990000627000000000000000000000000010002020025035106241900000000002            2  01250351062424062400000003349410000000001N120624000000000000000000000000000000000000000000000000000000000000000100025035170802WANDERSON LUIS DE CARVALHO              RUA JOAQUIM GONCALVES ROCHA - 302 - JARD            02859030                                                            000002
2SR. CAIXA, APOS O VENCIMENTO COBRAR 2% DE MULTA                                 NAO RECEBER APOS 30 DIAS DO VENCIMENTO.                                                                                                                                                                                                         12062400000000000001206240000000000000       0090339900006270250351062419000003
100000000000000000000009033990000627000000000000000000000000010002020007294306241600000000002            2  01072943062424062400000004504970000000001N120624000000000000000000000000000000000000000000000000000000000000000100007294351805CLAUDENIR APARECIDO VACARI              RUA CARLOS JOSE BORSTENS - 50 AP.93 - AV            11702750                                                            000005
2SR. CAIXA, APOS O VENCIMENTO COBRAR 2% DE MULTA                                 NAO RECEBER APOS 30 DIAS DO VENCIMENTO.                                                                                                                                                                                                         12062400000000000001206240000000000000       0090339900006270072943062416000006
100000000000000000000009033990000627000000000000000000000000010002020002841706241000000000002            2  01028417062424062400000004135490000000001N120624000000000000000000000000000000000000000000000000000000000000000100002841756416LUCIANA PINHEIRO DE ASSIS NUNES         RUA RIO ACIMA - 81 - RIACHO GRANDE - SAO            09830100                                                            000008
2SR. CAIXA, APOS O VENCIMENTO COBRAR 2% DE MULTA                                 NAO RECEBER APOS 30 DIAS DO VENCIMENTO.                                                                                                                                                                                                         12062400000000000001206240000000000000       0090339900006270028417062410000009
100000000000000000000009033990000627000000000000000000000000010002020000991706241200000000002            2  01009917062424062400000003984840000000001N120624000000000000000000000000000000000000000000000000000000000000000100000991748808JAILSON BORGES DE ANDRADE               RUA IPIOBUNA - 45 - JARDIM CUMBICA - GUA            07240040                                                            000011
2SR. CAIXA, APOS O VENCIMENTO COBRAR 2% DE MULTA                                 NAO RECEBER APOS 30 DIAS DO VENCIMENTO.                                                                                                                                                                                                         12062400000000000001206240000000000000       0090339900006270009917062412000012
100000000000000000000009033990000627000000000000000000000000010002020022151606241900000000002            2  01221516062424062400000003961690000000001N120624000000000000000000000000000000000000000000000000000000000000000100022151666816SAMIR LIMA DE ARAUJO                    AVENIDA GUARAPIRANGA - 2616 AP.131 BL.14            04902005                                                            000014
2SR. CAIXA, APOS O VENCIMENTO COBRAR 2% DE MULTA                                 NAO RECEBER APOS 30 DIAS DO VENCIMENTO.                                                                                                                                                                                                         12062400000000000001206240000000000000       0090339900006270221516062419000015
100000000000000000000009033990000627000000000000000000000000010002020022313106241000000000002            2  01223131062426062400000003048750000000001N120624000000000000000000000000000000000000000000000000000000000000000100022313116824ROSA MARIA BRITO DA SILVA               RUA JOSE CALIXTO DO CARMO - 286 AP.41 -             11702690                                                            000017
2SR. CAIXA, APOS O VENCIMENTO COBRAR 2% DE MULTA                                 NAO RECEBER APOS 30 DIAS DO VENCIMENTO.                                                                                                                                                                                                         12062400000000000001206240000000000000       0090339900006270223131062410000018
100000000000000000000009033990000627000000000000000000000000010002020027538006241200000000002            2  01275380062426062400000003059340000000001N120624000000000000000000000000000000000000000000000000000000000000000100027538087249MARA LUCIA MENEZES DA COSTA             RUA LEILA  - 183 - ITAQUERA - SAO PAULO             08240020                                                            000020
2SR. CAIXA, APOS O VENCIMENTO COBRAR 2% DE MULTA                                 NAO RECEBER APOS 30 DIAS DO VENCIMENTO.                                                                                                                                                                                                         12062400000000000001206240000000000000       0090339900006270275380062412000021
100000000000000000000009033990000627000000000000000000000000010002020031278406241900000000002            2  01312784062424062400000003827100000000001N120624000000000000000000000000000000000000000000000000000000000000000100031278411836JEFFERSON DE PIERI PIRES ZAMUNER        RUA MANOEL ARCE - 277 - PARQUE BANCARIO             03922150                                                            000023
2SR. CAIXA, APOS O VENCIMENTO COBRAR 2% DE MULTA                                 NAO RECEBER APOS 30 DIAS DO VENCIMENTO.                                                                                                                                                                                                         12062400000000000001206240000000000000       0090339900006270312784062419000024
100000000000000000000009033990000627000000000000000000000000010002020019185706241000000000002            2  01191857062426062400000002784130000000001N120624000000000000000000000000000000000000000000000000000000000000000100019185769800AGUINALDO PESSOA DE LIMA                RUA JANUARIO ZINGARO - 252 AP.303 BL.04             05794300                                                            000026
2SR. CAIXA, APOS O VENCIMENTO COBRAR 2% DE MULTA                                 NAO RECEBER APOS 30 DIAS DO VENCIMENTO.                                                                                                                                                                                                         12062400000000000001206240000000000000       0090339900006270191857062410000027
100000000000000000000009033990000627000000000000000000000000010002020006422606241700000000002            2  01064226062424062400000004144870000000001N120624000000000000000000000000000000000000000000000000000000000000000100006422607881GERALDO ALVES DA SILVA                  RUA CARLOS JOSE BORSTENS - 50 AP.14 - AV            11702750                                                            000029
2SR. CAIXA, APOS O VENCIMENTO COBRAR 2% DE MULTA                                 NAO RECEBER APOS 30 DIAS DO VENCIMENTO.                                                                                                                                                                                                         12062400000000000001206240000000000000       0090339900006270064226062417000030
100000000000000000000009033990000627000000000000000000000000010002020033877106241900000000002            2  01338771062426062400000002811360000000001N120624000000000000000000000000000000000000000000000000000000000000000100033877129870HELDER FERREIRA VIANA                   RUA JOSE CALIXTO DO CARMO - 286 AP.35 -             11702690                                                            000032
2SR. CAIXA, APOS O VENCIMENTO COBRAR 2% DE MULTA                                 NAO RECEBER APOS 30 DIAS DO VENCIMENTO.                                                                                                                                                                                                         12062400000000000001206240000000000000       0090339900006270338771062419000033
100000000000000000000009033990000627000000000000000000000000010002020087573006241800000000002            2  01875730062426062400000002829410000000001N120624000000000000000000000000000000000000000000000000000000000000000100087573059604VANDERLEY DE ASSIS                      RUA ROMEU ALBANI - 268 - JARDIM PARQUE R            13803810                                                            000035
2SR. CAIXA, APOS O VENCIMENTO COBRAR 2% DE MULTA                                 NAO RECEBER APOS 30 DIAS DO VENCIMENTO.                                                                                                                                                                                                         12062400000000000001206240000000000000       0090339900006270875730062418000036
100000000000000000000009033990000627000000000000000000000000010002020010825506241500000000002            2  01108255062426062400000002952630000000001N120624000000000000000000000000000000000000000000000000000000000000000100010825513847JOSE APARECIDO PEREIRA                  RUA UTUCURA - 120 - CIDADE IPAVA - SAO P            04950060                                                            000038
2SR. CAIXA, APOS O VENCIMENTO COBRAR 2% DE MULTA                                 NAO RECEBER APOS 30 DIAS DO VENCIMENTO.                                                                                                                                                                                                         12062400000000000001206240000000000000       0090339900006270108255062415000039
100000000000000000000009033990000627000000000000000000000000010002020039115106241700000000002            2  01391151062426062400000003639650000000001N120624000000000000000000000000000000000000000000000000000000000000000100039115139840LAIS CRISTINA RIBEIRO ANDO              RUA JOSE CALIXTO DO CARMO - 286 AP.65 -             11702690                                                            000041
2SR. CAIXA, APOS O VENCIMENTO COBRAR 2% DE MULTA                                 NAO RECEBER APOS 30 DIAS DO VENCIMENTO.                                                                                                                                                                                                         12062400000000000001206240000000000000       0090339900006270391151062417000042
100000000000000000000009033990000627000000000000000000000000010002020000593206241500000000002            2  01005932062424062400000004461940000000001N120624000000000000000000000000000000000000000000000000000000000000000100000593293860WALTER HELIO BARBOSA FILHO              AVENIDA ANTONIO FREDERICO OZANAN - 9500             13214206                                                            000044
2SR. CAIXA, APOS O VENCIMENTO COBRAR 2% DE MULTA                                 NAO RECEBER APOS 30 DIAS DO VENCIMENTO.                                                                                                                                                                                                         12062400000000000001206240000000000000       0090339900006270005932062415000045
100000000000000000000009033990000627000000000000000000000000010002020006684606241P00000000002            2  01066846062426062400000002998390000000001N120624000000000000000000000000000000000000000000000000000000000000000100006684623884LAUDINOR VIEIRA GARCIA                  RUA CANDIDO SALES - 374 - JARDIM PRESIDE            07172000                                                            000047
2SR. CAIXA, APOS O VENCIMENTO COBRAR 2% DE MULTA                                 NAO RECEBER APOS 30 DIAS DO VENCIMENTO.                                                                                                                                                                                                         12062400000000000001206240000000000000       009033990000627006684606241P000048
100000000000000000000009033990000627000000000000000000000000010002020011663506241000000000002            2  01116635062426062400000003019920000000001N120624000000000000000000000000000000000000000000000000000000000000000100011663589844MARIA SAVIO QUARELLO                    AVENIDA MENDONCA DRUMOND - 321 - JARDIM             03524030                                                            000050
2SR. CAIXA, APOS O VENCIMENTO COBRAR 2% DE MULTA                                 NAO RECEBER APOS 30 DIAS DO VENCIMENTO.                                                                                                                                                                                                         12062400000000000001206240000000000000       0090339900006270116635062410000051
100000000000000000000009033990000627000000000000000000000000010002020010083806241200000000002            2  01100838062426062400000002917750000000001N120624000000000000000000000000000000000000000000000000000000000000000100010083824855IONE FERREIRA COUTO DA SILVA            RUA JOSE RAGEL DE MESQUITA - 60 CS.01 -             07799999                                                            000053
2SR. CAIXA, APOS O VENCIMENTO COBRAR 2% DE MULTA                                 NAO RECEBER APOS 30 DIAS DO VENCIMENTO.                                                                                                                                                                                                         12062400000000000001206240000000000000       0090339900006270100838062412000054
100000000000000000000009033990000627000000000000000000000000010002020031010706241800000000002            2  01310107062426062400000002863250000000001N120624000000000000000000000000000000000000000000000000000000000000000100031010705890ANDRE GONZALEZ RABELLO                  RUA PARAIBA - 106 AP.61 - POMPEIA - SANT            11065470                                                            000056
2SR. CAIXA, APOS O VENCIMENTO COBRAR 2% DE MULTA                                 NAO RECEBER APOS 30 DIAS DO VENCIMENTO.                                                                                                                                                                                                         12062400000000000001206240000000000000       0090339900006270310107062418000057
100000000000000000000009033990000627000000000000000000000000010002020005351006241700000000002            2  01053510062426062400000002684580000000001N120624000000000000000000000000000000000000000000000000000000000000000100005351015897VALERIA ALVES MARCOLINO HINNIGER        RUA JOSE CALIXTO DO CARMO - 286 AP.92 -             11702690                                                            000059
2SR. CAIXA, APOS O VENCIMENTO COBRAR 2% DE MULTA                                 NAO RECEBER APOS 30 DIAS DO VENCIMENTO.                                                                                                                                                                                                         12062400000000000001206240000000000000       0090339900006270053510062417000060
100000000000000000000009033990000627000000000000000000000000010002020031898706241200000000002            2  01318987062424062400000004269350000000001N120624000000000000000000000000000000000000000000000000000000000000000100031898775800ANITA MARTINS COLOMBO                   RUA CARLOS JOSE BORSTENS - 50 AP.115 - A            11702750                                                            000062
2SR. CAIXA, APOS O VENCIMENTO COBRAR 2% DE MULTA                                 NAO RECEBER APOS 30 DIAS DO VENCIMENTO.                                                                                                                                                                                                         12062400000000000001206240000000000000       0090339900006270318987062412000063
100000000000000000000009033990000627000000000000000000000000010002020037983406241200000000002            2  01379834062426062400000003153560000000001N120624000000000000000000000000000000000000000000000000000000000000000100037983484801JOSE ERIVALDO SOUZA DO NASCIMENTO RAMOS RUA LETICIA - 250 - JARDIM GUARUJA - SAO            05877260                                                            000065
2SR. CAIXA, APOS O VENCIMENTO COBRAR 2% DE MULTA                                 NAO RECEBER APOS 30 DIAS DO VENCIMENTO.                                                                                                                                                                                                         12062400000000000001206240000000000000       0090339900006270379834062412000066
100000000000000000000009033990000627000000000000000000000000010002020056289206241300000000002            2  01562892062426062400000002382310000000001N120624000000000000000000000000000000000000000000000000000000000000000100056289286900PEDRO RIBEIRO                           RUA CONEGO MANOEL VAZ - 48 - SANTANA - S            02019050                                                            000068
2SR. CAIXA, APOS O VENCIMENTO COBRAR 2% DE MULTA                                 NAO RECEBER APOS 30 DIAS DO VENCIMENTO.                                                                                                                                                                                                         12062400000000000001206240000000000000       0090339900006270562892062413000069
100000000000000000000009033990000627000000000000000000000000010002020034812206241300000000002            2  01348122062424062400000005650680000000001N120624000000000000000000000000000000000000000000000000000000000000000100034812226880THAIS TORQUATO MIMOSO DE JESUS          RUA ARNALDO CINTRA - 416 AP.104 TORRE 2             03088000                                                            000071
2SR. CAIXA, APOS O VENCIMENTO COBRAR 2% DE MULTA                                 NAO RECEBER APOS 30 DIAS DO VENCIMENTO.                                                                                                                                                                                                         12062400000000000001206240000000000000       0090339900006270348122062413000072
100000000000000000000009033990000627000000000000000000000000010002020012849406241P00000000002            2  01128494062426062400000005632680000000001N120624000000000000000000000000000000000000000000000000000000000000000100012849428809MOISES CLAUDIO DO ROSARIO               AVENIDA AYRTON SENNA - 255 CASA 01 - SAN            06149201                                                            000074
2SR. CAIXA, APOS O VENCIMENTO COBRAR 2% DE MULTA                                 NAO RECEBER APOS 30 DIAS DO VENCIMENTO.                                                                                                                                                                                                         12062400000000000001206240000000000000       009033990000627012849406241P000075
100000000000000000000009033990000627000000000000000000000000010002020026834506241100000000002            2  01268345062426062400000002865320000000001N120624000000000000000000000000000000000000000000000000000000000000000100026834550895RAQUEL CARDOSO JOAO                     RUA PEDROSO XAVIER - 277 AP.23 TORRE 01             02732020                                                            000077
2SR. CAIXA, APOS O VENCIMENTO COBRAR 2% DE MULTA                                 NAO RECEBER APOS 30 DIAS DO VENCIMENTO.                                                                                                                                                                                                         12062400000000000001206240000000000000       0090339900006270268345062411000078
100000000000000000000009033990000627000000000000000000000000010002020039540006241P00000000002            2  01395400062426062400000002816980000000001N120624000000000000000000000000000000000000000000000000000000000000000100039540008816LUZINETE CLARINDO SILVA                 RUA DEINOS - 275 - BAIRRO CIDADE SATELIT            08340100                                                            000080
2SR. CAIXA, APOS O VENCIMENTO COBRAR 2% DE MULTA                                 NAO RECEBER APOS 30 DIAS DO VENCIMENTO.                                                                                                                                                                                                         12062400000000000001206240000000000000       009033990000627039540006241P000081
100000000000000000000009033990000627000000000000000000000000010002020003311006241700000000002            2  01033110062426062400000002933590000000001N120624000000000000000000000000000000000000000000000000000000000000000100003311030877SEBASTIAO SARUVA NETO                   RUA HAMILTON REGIS - 559 - BAIRRO DO LIM            08051440                                                            000083
2SR. CAIXA, APOS O VENCIMENTO COBRAR 2% DE MULTA                                 NAO RECEBER APOS 30 DIAS DO VENCIMENTO.                                                                                                                                                                                                         12062400000000000001206240000000000000       0090339900006270033110062417000084
100000000000000000000009033990000627000000000000000000000000010002020012478806241200000000002            2  01124788062424062400000004175940000000001N120624000000000000000000000000000000000000000000000000000000000000000100012478899809VITORIA BATISTA QUEIROZ                 RUA CARVALHO DE FREITAS - 255 AP.71A - V            05728030                                                            000086
2SR. CAIXA, APOS O VENCIMENTO COBRAR 2% DE MULTA                                 NAO RECEBER APOS 30 DIAS DO VENCIMENTO.                                                                                                                                                                                                         12062400000000000001206240000000000000       0090339900006270124788062412000087
100000000000000000000009033990000627000000000000000000000000010002020013184806241300000000002            2  01131848062426062400000002772180000000001N120624000000000000000000000000000000000000000000000000000000000000000100013184856810SYDNEY HENRIQUE GAMARANO JUNIOR         RUA JOSE CALIXTO DO CARMO - 286 AP.125 -            11702690                                                            000089
2SR. CAIXA, APOS O VENCIMENTO COBRAR 2% DE MULTA                                 NAO RECEBER APOS 30 DIAS DO VENCIMENTO.                                                                                                                                                                                                         12062400000000000001206240000000000000       0090339900006270131848062413000090
100000000000000000000009033990000627000000000000000000000000010002020097989906241700000000002            2  01979899062426062400000001926470000000001N120624000000000000000000000000000000000000000000000000000000000000000100097989924820NELSON LUIS BERRIBILLE                  RUA SILVEIRA IGNACIO SOBRINHO - 965 - VI            13560294                                                            000092
2SR. CAIXA, APOS O VENCIMENTO COBRAR 2% DE MULTA                                 NAO RECEBER APOS 30 DIAS DO VENCIMENTO.                                                                                                                                                                                                         12062400000000000001206240000000000000       0090339900006270979899062417000093
100000000000000000000009033990000627000000000000000000000000010002020097989906242500000000002            2  01979899062426062400000001926460000000001N120624000000000000000000000000000000000000000000000000000000000000000100097989924820NELSON LUIS BERRIBILLE                  RUA SILVEIRA IGNACIO SOBRINHO - 965 - VI            13560294                                                            000095
2SR. CAIXA, APOS O VENCIMENTO COBRAR 2% DE MULTA                                 NAO RECEBER APOS 30 DIAS DO VENCIMENTO.                                                                                                                                                                                                         12062400000000000001206240000000000000       0090339900006270979899062425000096
100000000000000000000009033990000627000000000000000000000000010002020032341806241600000000002            2  01323418062424062400000004337650000000001N120624000000000000000000000000000000000000000000000000000000000000000100032341847803PRISCILA ALVES DE FRANCA MIRANDA        RUA CARLOS JOSE BORSTENS - 50 AP.91 - AV            11702750                                                            000098
2SR. CAIXA, APOS O VENCIMENTO COBRAR 2% DE MULTA                                 NAO RECEBER APOS 30 DIAS DO VENCIMENTO.                                                                                                                                                                                                         12062400000000000001206240000000000000       0090339900006270323418062416000099
100000000000000000000009033990000627000000000000000000000000010002020016050606241100000000002            2  01160506062424062400000004026180000000001N120624000000000000000000000000000000000000000000000000000000000000000100016050684898ANDRE RODRIGUES DE OLIVEIRA             RUA CORACAO PAULISTA - 14 - FAZENDA ITAI            08132430                                                            000101
2SR. CAIXA, APOS O VENCIMENTO COBRAR 2% DE MULTA                                 NAO RECEBER APOS 30 DIAS DO VENCIMENTO.                                                                                                                                                                                                         12062400000000000001206240000000000000       0090339900006270160506062411000102
100000000000000000000009033990000627000000000000000000000000010002020021464906241500000000002            2  01214649062424062400000006345340000000001N120624000000000000000000000000000000000000000000000000000000000000000100021464965846ANDREA APARECIDA DE OLIVEIRA PECCI      RUA ANTONIO BOZ MARFIL - 103 - PARQUE DO            05396020                                                            000104
2SR. CAIXA, APOS O VENCIMENTO COBRAR 2% DE MULTA                                 NAO RECEBER APOS 30 DIAS DO VENCIMENTO.                                                                                                                                                                                                         12062400000000000001206240000000000000       0090339900006270214649062415000105
100000000000000000000009033990000627000000000000000000000000010002020003597506241500000000002            2  01035975062426062400000002591090000000001N120624000000000000000000000000000000000000000000000000000000000000000100003597509827ANISIO FAUSTINO DE OLIVEIRA             RUA DOMINGOS DE MAMBRO - 5 CASA 20 - CIT            06040290                                                            000107
2SR. CAIXA, APOS O VENCIMENTO COBRAR 2% DE MULTA                                 NAO RECEBER APOS 30 DIAS DO VENCIMENTO.                                                                                                                                                                                                         12062400000000000001206240000000000000       0090339900006270035975062415000108
100000000000000000000009033990000627000000000000000000000000010002020018531506241400000000002            2  01185315062426062400000002294720000000001N120624000000000000000000000000000000000000000000000000000000000000000100018531558883FABIO HENRIQUE HADDAD                   RUA REGO BARROS - 815 T.A AP.56 - JARDIM            03460000                                                            000110
2SR. CAIXA, APOS O VENCIMENTO COBRAR 2% DE MULTA                                 NAO RECEBER APOS 30 DIAS DO VENCIMENTO.                                                                                                                                                                                                         12062400000000000001206240000000000000       0090339900006270185315062414000111
9                                                                                                                                                                                                                                                                                                                                                                                                         000112