01REMESSA01COBRANCA       00000000000005623874H B SANTOS CONSTRUTORA E INCOR237BRADESCO       010524        MX0000014                                                                                                                                                                                                                                                                                     000001
100000000000000000000009033990001086300000000000000000000000010002020087902705241400000000002            2  01879027052410052400000003470440000000001N010524000000000000000000000000000000000000000000000000000000000000000100087902737887WAGNER CERQUEIRA VILA NOVA              RUA JOAQUIM FERREIRA - 124 AP.211 T.01 -            05033080                                                            000002
2SR. CAIXA, APOS O VENCIMENTO COBRAR 2% DE MULTA                                 NAO RECEBER APOS 30 DIAS DO VENCIMENTO.                                                                                                                                                                                                         01052400000000000000105240000000000000       0090339900010863879027052414000003
100000000000000000000009033990001086300000000000000000000000010002020015095605241000000000002            2  01150956052410052400000003225210000000001N010524000000000000000000000000000000000000000000000000000000000000000100015095698803MARCOS CESAR SOUZA SENA                 RUA SALVADOR PELUSO BASILE - 381 - JARDI            06755010                                                            000005
2SR. CAIXA, APOS O VENCIMENTO COBRAR 2% DE MULTA                                 NAO RECEBER APOS 30 DIAS DO VENCIMENTO.                                                                                                                                                                                                         01052400000000000000105240000000000000       0090339900010863150956052410000006
100000000000000000000009033990001086300000000000000000000000010002020011947905241700000000002            2  01119479052410052400000003161440000000001N010524000000000000000000000000000000000000000000000000000000000000000100011947951882DECIO VITORINO DOS SANTOS               RUA GREGORIA DE FREGEL - 380 AP.21 BL24             09811430                                                            000008
2SR. CAIXA, APOS O VENCIMENTO COBRAR 2% DE MULTA                                 NAO RECEBER APOS 30 DIAS DO VENCIMENTO.                                                                                                                                                                                                         01052400000000000000105240000000000000       0090339900010863119479052417000009
100000000000000000000009033990001086300000000000000000000000010002020000181205241000000000002            2  01001812052410052400000002842860000000001N010524000000000000000000000000000000000000000000000000000000000000000100000181223023DARLIN SANTA CATARINA                   RUA S-13 QUADRA 60 LR 08 - 750 - SETOR S            77425090                                                            000011
2SR. CAIXA, APOS O VENCIMENTO COBRAR 2% DE MULTA                                 NAO RECEBER APOS 30 DIAS DO VENCIMENTO.                                                                                                                                                                                                         01052400000000000000105240000000000000       0090339900010863001812052410000012
100000000000000000000009033990001086300000000000000000000000010002020034311705241600000000002            2  01343117052410052400000003316730000000001N010524000000000000000000000000000000000000000000000000000000000000000100034311774842RAFAEL MARCOS SOUSA                     RUA AGUA BRANCA - 270 - JARDIM RUY BARBO            13219120                                                            000014
2SR. CAIXA, APOS O VENCIMENTO COBRAR 2% DE MULTA                                 NAO RECEBER APOS 30 DIAS DO VENCIMENTO.                                                                                                                                                                                                         01052400000000000000105240000000000000       0090339900010863343117052416000015
100000000000000000000009033990001086300000000000000000000000010002020035839605241P00000000002            2  01358396052410052400000003301240000000001N010524000000000000000000000000000000000000000000000000000000000000000100035839657875JUNIOR SILVA TEODORO DOS SANTOS         RUA ARMANDO DE SALLES OLIVEIRA - 123 AP.            11510020                                                            000017
2SR. CAIXA, APOS O VENCIMENTO COBRAR 2% DE MULTA                                 NAO RECEBER APOS 30 DIAS DO VENCIMENTO.                                                                                                                                                                                                         01052400000000000000105240000000000000       009033990001086335839605241P000018
100000000000000000000009033990001086300000000000000000000000010002020030898205241300000000002            2  01308982052410052400000003012000000000001N010524000000000000000000000000000000000000000000000000000000000000000100030898241839LUIZ DANIEL CANNITO                     RUA FOZ DO DOURO - 195 CASA 01 - JARDIM             03924080                                                            000020
2SR. CAIXA, APOS O VENCIMENTO COBRAR 2% DE MULTA                                 NAO RECEBER APOS 30 DIAS DO VENCIMENTO.                                                                                                                                                                                                         01052400000000000000105240000000000000       0090339900010863308982052413000021
100000000000000000000009033990001086300000000000000000000000010002020018433905241300000000002            2  01184339052410052400000003214830000000001N010524000000000000000000000000000000000000000000000000000000000000000100018433908847TELMA CRISTIANY DE CAMPOS               AVENIDA MARECHAL MAURICIO JOSE CARDOSO -            11700140                                                            000023
2SR. CAIXA, APOS O VENCIMENTO COBRAR 2% DE MULTA                                 NAO RECEBER APOS 30 DIAS DO VENCIMENTO.                                                                                                                                                                                                         01052400000000000000105240000000000000       0090339900010863184339052413000024
100000000000000000000009033990001086300000000000000000000000010002020001803105241500000000002            2  01018031052410052400000002933890000000001N010524000000000000000000000000000000000000000000000000000000000000000100001803106824MAGNA FLORA CALIS                       RUA DOS EXPEDICIONARIOS - 59 AP.13 - CAN            11700750                                                            000026
2SR. CAIXA, APOS O VENCIMENTO COBRAR 2% DE MULTA                                 NAO RECEBER APOS 30 DIAS DO VENCIMENTO.                                                                                                                                                                                                         01052400000000000000105240000000000000       0090339900010863018031052415000027
100000000000000000000009033990001086300000000000000000000000010002020026327305241400000000002            2  01263273052410052400000003150780000000001N010524000000000000000000000000000000000000000000000000000000000000000100026327304818GEANICE BARBOSA DA SILVA                RUA FLAMENGO - 77 - VILA GUILHERMINA - P            11701540                                                            000029
2SR. CAIXA, APOS O VENCIMENTO COBRAR 2% DE MULTA                                 NAO RECEBER APOS 30 DIAS DO VENCIMENTO.                                                                                                                                                                                                         01052400000000000000105240000000000000       0090339900010863263273052414000030
100000000000000000000009033990001086300000000000000000000000010002020008732205241400000000002            2  01087322052410052400000002850170000000001N010524000000000000000000000000000000000000000000000000000000000000000100008732244851JOSENILTON SOUSA DE OLIVEIRA            RUA GENERAL ISIDORO DIAS LOPES - 456 - B            08561410                                                            000032
2SR. CAIXA, APOS O VENCIMENTO COBRAR 2% DE MULTA                                 NAO RECEBER APOS 30 DIAS DO VENCIMENTO.                                                                                                                                                                                                         01052400000000000000105240000000000000       0090339900010863087322052414000033
100000000000000000000009033990001086300000000000000000000000010002020017372405241400000000002            2  01173724052410052400000003062630000000001N010524000000000000000000000000000000000000000000000000000000000000000100017372408822EDUARDO PEREIRA DA SILVA                AVENIDA PARIS - 587 - BOQUEIRAO - PRAIA             11700080                                                            000035
2SR. CAIXA, APOS O VENCIMENTO COBRAR 2% DE MULTA                                 NAO RECEBER APOS 30 DIAS DO VENCIMENTO.                                                                                                                                                                                                         01052400000000000000105240000000000000       0090339900010863173724052414000036
100000000000000000000009033990001086300000000000000000000000010002020003979205241600000000002            2  01039792052410052400000002846880000000001N010524000000000000000000000000000000000000000000000000000000000000000100003979280845JORGE LUIZ PARRA MORENO                 AVENIDA ALZIRA DE JESUS DA SILVA - 230 -            15061719                                                            000038
2SR. CAIXA, APOS O VENCIMENTO COBRAR 2% DE MULTA                                 NAO RECEBER APOS 30 DIAS DO VENCIMENTO.                                                                                                                                                                                                         01052400000000000000105240000000000000       0090339900010863039792052416000039
100000000000000000000009033990001086300000000000000000000000010002020026980305241900000000002            2  01269803052410052400000002605410000000001N010524000000000000000000000000000000000000000000000000000000000000000100026980385860DENISE CAMPOS MORALES GABRIEL           RUA QUINCIO PEIRAO - 27 AP.13 - PONTA DA            11030040                                                            000041
2SR. CAIXA, APOS O VENCIMENTO COBRAR 2% DE MULTA                                 NAO RECEBER APOS 30 DIAS DO VENCIMENTO.                                                                                                                                                                                                         01052400000000000000105240000000000000       0090339900010863269803052419000042
100000000000000000000009033990001086300000000000000000000000010002020034263805241600000000002            2  01342638052410052400000003300440000000001N010524000000000000000000000000000000000000000000000000000000000000000100034263879805LARISSA FERREIRA NONATO                 RUA HEIZO NAKANO - 65 CASA 71 - BAIRRO J            09811370                                                            000044
2SR. CAIXA, APOS O VENCIMENTO COBRAR 2% DE MULTA                                 NAO RECEBER APOS 30 DIAS DO VENCIMENTO.                                                                                                                                                                                                         01052400000000000000105240000000000000       0090339900010863342638052416000045
100000000000000000000009033990001086300000000000000000000000010002020025388005241P00000000002            2  01253880052410052400000003054450000000001N010524000000000000000000000000000000000000000000000000000000000000000100025388047873DANIEL DA SILVA FERNANDES               AVENIDA PRESIDENTE CASTELO BRANCO - 4772            11702705                                                            000047
2SR. CAIXA, APOS O VENCIMENTO COBRAR 2% DE MULTA                                 NAO RECEBER APOS 30 DIAS DO VENCIMENTO.                                                                                                                                                                                                         01052400000000000000105240000000000000       009033990001086325388005241P000048
100000000000000000000009033990001086300000000000000000000000010002020035778005241200000000002            2  01357780052410052400000003037990000000001N010524000000000000000000000000000000000000000000000000000000000000000100035778038860BRUNA QUEIROZ MENDES                    RUA JOSE DA SILVA XAVIER - 91 - PARQUE S            11365260                                                            000050
2SR. CAIXA, APOS O VENCIMENTO COBRAR 2% DE MULTA                                 NAO RECEBER APOS 30 DIAS DO VENCIMENTO.                                                                                                                                                                                                         01052400000000000000105240000000000000       0090339900010863357780052412000051
100000000000000000000009033990001086300000000000000000000000010002020038699005241500000000002            2  01386990052410052400000003453380000000001N010524000000000000000000000000000000000000000000000000000000000000000100038699045859ALAN DE LIMA                            ALAMEDA TTE JOSE BERNARDINO - 1335 - JAR            08671020                                                            000053
2SR. CAIXA, APOS O VENCIMENTO COBRAR 2% DE MULTA                                 NAO RECEBER APOS 30 DIAS DO VENCIMENTO.                                                                                                                                                                                                         01052400000000000000105240000000000000       0090339900010863386990052415000054
9                                                                                                                                                                                                                                                                                                                                                                                                         000055