01REMESSA01COBRANCA       00000000000004991781AIRES CONSTRUTORA E INCORPORAD237BRADESCO       010619        MX0000121                                                                                                                                                                                                                                                                                     000001
100000000000000000000009077090006612500000000000000000000000010002100094852206191P00000000002            2  01948522061910061900000002338860000000001N010619000000000000000000000000000000000000000000000000000000000000000100094852294887GISELDA MENON                           RUA OTAVIO BARRETO - 105 - VILA SANTISTA            02560080                                                            000002
2SR. CAIXA, APOS O VENCIMENTO COBRAR 10% DE MULTA                                NAO RECEBER APOS 30 DIAS DO VENCIMENTO.                                                                                                                                                                                                         01061900000000000000106190000000000000       009077090006612594852206191P000003
100000000000000000000009077090006612500000000000000000000000010002100006485906191600000000002            2  01064859061910061900000003587050000000001N010619000000000000000000000000000000000000000000000000000000000000000100006485911820CELIO MANUEL  MELIM SANTO               RUA JUVENAL FERREIRA  - 85 AP.61 - VILA             03512040                                                            000005
2SR. CAIXA, APOS O VENCIMENTO COBRAR 10% DE MULTA                                NAO RECEBER APOS 30 DIAS DO VENCIMENTO.                                                                                                                                                                                                         01061900000000000000106190000000000000       0090770900066125064859061916000006
100000000000000000000009077090006612500000000000000000000000010002100004693806191500000000002            2  01046938061910061900000003126380000000001N010619000000000000000000000000000000000000000000000000000000000000000100004693857823NIVALDO BARTOLOMEU FERREIRA             MNS JOSE MARINONI  - 33 - SANTO AMARO -             04430350                                                            000008
2SR. CAIXA, APOS O VENCIMENTO COBRAR 10% DE MULTA                                NAO RECEBER APOS 30 DIAS DO VENCIMENTO.                                                                                                                                                                                                         01061900000000000000106190000000000000       0090770900066125046938061915000009
100000000000000000000009077090006612500000000000000000000000010002100027993106191400000000002            2  01279931061910061900000002977000000000001N010619000000000000000000000000000000000000000000000000000000000000000100027993108853DALVA JESUS RODRIGUES CABRAL            RUA CRISTOVAO COLOMBO GONCALVES - 97 - C            04811050                                                            000011
2SR. CAIXA, APOS O VENCIMENTO COBRAR 10% DE MULTA                                NAO RECEBER APOS 30 DIAS DO VENCIMENTO.                                                                                                                                                                                                         01061900000000000000106190000000000000       0090770900066125279931061914000012
100000000000000000000009077090006612500000000000000000000000010002100000455406191300000000002            2  01004554061910061900000003092430000000001N010619000000000000000000000000000000000000000000000000000000000000000100000455495831PAULO HENRIQUE LOURENCO                 RUA FIGUEIRA  - 237 - CIDADE DAS FLORES             06184060                                                            000014
2SR. CAIXA, APOS O VENCIMENTO COBRAR 10% DE MULTA                                NAO RECEBER APOS 30 DIAS DO VENCIMENTO.                                                                                                                                                                                                         01061900000000000000106190000000000000       0090770900066125004554061913000015
100000000000000000000009077090006612500000000000000000000000010002100006140006191400000000002            2  01061400061910061900000003835030000000001N010619000000000000000000000000000000000000000000000000000000000000000100006140049857MARIA ALBANI DA SILVA EUSEBIO           RUA ORLANDO SEGALA - 108 - JARDIM ADRIAN            07135190                                                            000017
2SR. CAIXA, APOS O VENCIMENTO COBRAR 10% DE MULTA                                NAO RECEBER APOS 30 DIAS DO VENCIMENTO.                                                                                                                                                                                                         01061900000000000000106190000000000000       0090770900066125061400061914000018
100000000000000000000009077090006612500000000000000000000000010002100007768706191300000000002            2  01077687061910061900000003895750000000001N010619000000000000000000000000000000000000000000000000000000000000000100007768713826FATIMA LUZIA BIANCHI                    DR. OLIDAIR AMBROSIO - 1487 AP.03 - CENT            14160170                                                            000020
2SR. CAIXA, APOS O VENCIMENTO COBRAR 10% DE MULTA                                NAO RECEBER APOS 30 DIAS DO VENCIMENTO.                                                                                                                                                                                                         01061900000000000000106190000000000000       0090770900066125077687061913000021
100000000000000000000009077090006612500000000000000000000000010002100021716806191000000000002            2  01217168061910061900000003837910000000001N010619000000000000000000000000000000000000000000000000000000000000000100021716847800DANIELLE FAGUNDES DE A.MATOS            CONDE MOREIRA LIMA - 644 - JARDIM JABAQU            04384032                                                            000023
2SR. CAIXA, APOS O VENCIMENTO COBRAR 10% DE MULTA                                NAO RECEBER APOS 30 DIAS DO VENCIMENTO.                                                                                                                                                                                                         01061900000000000000106190000000000000       0090770900066125217168061910000024
100000000000000000000009077090006612500000000000000000000000010002100085416906191400000000002            2  01854169061910061900000003253470000000001N010619000000000000000000000000000000000000000000000000000000000000000100085416940891ANTONIO DE SOUSA MENDES                 RUA MONTE CASTELO - 296 AP.52 - AVIACAO             11702720                                                            000026
2SR. CAIXA, APOS O VENCIMENTO COBRAR 10% DE MULTA                                NAO RECEBER APOS 30 DIAS DO VENCIMENTO.                                                                                                                                                                                                         01061900000000000000106190000000000000       0090770900066125854169061914000027
100000000000000000000009077090006612500000000000000000000000010002100005678006191800000000002            2  01056780061910061900000003388420000000001N010619000000000000000000000000000000000000000000000000000000000000000100005678057863FABIO MOREIRA CAMPOS                    RUA FLORENCIO DA SILVA - 284 - VILA LIBA            03738070                                                            000029
2SR. CAIXA, APOS O VENCIMENTO COBRAR 10% DE MULTA                                NAO RECEBER APOS 30 DIAS DO VENCIMENTO.                                                                                                                                                                                                         01061900000000000000106190000000000000       0090770900066125056780061918000030
100000000000000000000009077090006612500000000000000000000000010002100016348206191400000000002            2  01163482061910061900000003305650000000001N010619000000000000000000000000000000000000000000000000000000000000000100016348237885AILTON LORENA                           AVENIDA BRASILIA - 194 - BELA VISTA - SA            09180260                                                            000032
2SR. CAIXA, APOS O VENCIMENTO COBRAR 10% DE MULTA                                NAO RECEBER APOS 30 DIAS DO VENCIMENTO.                                                                                                                                                                                                         01061900000000000000106190000000000000       0090770900066125163482061914000033
100000000000000000000009077090006612500000000000000000000000010002100081218406191800000000002            2  01812184061910061900000003190380000000001N010619000000000000000000000000000000000000000000000000000000000000000100081218486953OSMAR DA COSTA                          RUA MONTE CASTELO - 295 AP.33 - AVIACAO             11702720                                                            000035
2SR. CAIXA, APOS O VENCIMENTO COBRAR 10% DE MULTA                                NAO RECEBER APOS 30 DIAS DO VENCIMENTO.                                                                                                                                                                                                         01061900000000000000106190000000000000       0090770900066125812184061918000036
100000000000000000000009077090006612500000000000000000000000010002100004981806191000000000002            2  01049818061910061900000003623680000000001N010619000000000000000000000000000000000000000000000000000000000000000100004981884850SILVIO PAULINO GONCALVES                MARIA DE CASTRO MESQUITA - 84 AP.103 BLO            07110040                                                            000038
2SR. CAIXA, APOS O VENCIMENTO COBRAR 10% DE MULTA                                NAO RECEBER APOS 30 DIAS DO VENCIMENTO.                                                                                                                                                                                                         01061900000000000000106190000000000000       0090770900066125049818061910000039
100000000000000000000009077090006612500000000000000000000000010002100019282506191500000000002            2  01192825061910061900000002378580000000001N010619000000000000000000000000000000000000000000000000000000000000000100019282546837FABIO LEANDRO DE FREITAS ASSIS          RUA BASSIM NAGIB TRABULSI - 97 - PONTA D            11030540                                                            000041
2SR. CAIXA, APOS O VENCIMENTO COBRAR 10% DE MULTA                                NAO RECEBER APOS 30 DIAS DO VENCIMENTO.                                                                                                                                                                                                         01061900000000000000106190000000000000       0090770900066125192825061915000042
100000000000000000000009077090006612500000000000000000000000010002100008423406191900000000002            2  01084234061910061900000003305580000000001N010619000000000000000000000000000000000000000000000000000000000000000100008423485811EDSON LUIZ NUNES                        RUA NOEMIA PEDROSO BUENO - 41 - JARDIM G            09360440                                                            000044
2SR. CAIXA, APOS O VENCIMENTO COBRAR 10% DE MULTA                                NAO RECEBER APOS 30 DIAS DO VENCIMENTO.                                                                                                                                                                                                         01061900000000000000106190000000000000       0090770900066125084234061919000045
100000000000000000000009077090006612500000000000000000000000010002100009777206191500000000002            2  01097772061910061900000002998950000000001N010619000000000000000000000000000000000000000000000000000000000000000100009777281889CARLITA DE FIGUEIREDO CARVALHO          AVENIDA ALBERTO DE ALMEIDA VINHAS - 4462            11701350                                                            000047
2SR. CAIXA, APOS O VENCIMENTO COBRAR 10% DE MULTA                                NAO RECEBER APOS 30 DIAS DO VENCIMENTO.                                                                                                                                                                                                         01061900000000000000106190000000000000       0090770900066125097772061915000048
100000000000000000000009077090006612500000000000000000000000010002100004213006191200000000002            2  01042130061910061900000003561500000000001N010619000000000000000000000000000000000000000000000000000000000000000100004213020894ELIETE DRUGOVICH DE LIMA                RUA OSVALDO CRUZ - 141 AP.144-B - SANTA             09541270                                                            000050
2SR. CAIXA, APOS O VENCIMENTO COBRAR 10% DE MULTA                                NAO RECEBER APOS 30 DIAS DO VENCIMENTO.                                                                                                                                                                                                         01061900000000000000106190000000000000       0090770900066125042130061912000051
100000000000000000000009077090006612500000000000000000000000010002100043122806191700000000002            2  01431228061910061900000002427510000000001N010619000000000000000000000000000000000000000000000000000000000000000100043122850800ANTONIO JOAQUIM GOES                    ANTONIO DOAS DA SILVA - 412 - VILA AMALI            02618110                                                            000053
2SR. CAIXA, APOS O VENCIMENTO COBRAR 10% DE MULTA                                NAO RECEBER APOS 30 DIAS DO VENCIMENTO.                                                                                                                                                                                                         01061900000000000000106190000000000000       0090770900066125431228061917000054
100000000000000000000009077090006612500000000000000000000000010002100003865706191300000000002            2  01038657061910061900000003187140000000001N010619000000000000000000000000000000000000000000000000000000000000000100003865776841FRANCISCO JOSE ROCCO                    RUA FABIO JOSE BEZERRA - 130 AP.86 - PAR            03805000                                                            000056
2SR. CAIXA, APOS O VENCIMENTO COBRAR 10% DE MULTA                                NAO RECEBER APOS 30 DIAS DO VENCIMENTO.                                                                                                                                                                                                         01061900000000000000106190000000000000       0090770900066125038657061913000057
100000000000000000000009077090006612500000000000000000000000010002100028309506191P00000000002            2  01283095061910061900000002842200000000001N010619000000000000000000000000000000000000000000000000000000000000000100028309524803DEISE RIBEIRO BARBOSA                   RUA CANDIDO JOSE DE ANDRADE - 173 - ERME            03807030                                                            000059
2SR. CAIXA, APOS O VENCIMENTO COBRAR 10% DE MULTA                                NAO RECEBER APOS 30 DIAS DO VENCIMENTO.                                                                                                                                                                                                         01061900000000000000106190000000000000       009077090006612528309506191P000060
100000000000000000000009077090006612500000000000000000000000010002100011277906191P00000000002            2  01112779061910061900000003373370000000001N010619000000000000000000000000000000000000000000000000000000000000000100011277908893JOSE AILTON LOPES DE AZEVEDO            RUA MAESTRO JOAO SEPE - 19 - JARDIM MARI            04181030                                                            000062
2SR. CAIXA, APOS O VENCIMENTO COBRAR 10% DE MULTA                                NAO RECEBER APOS 30 DIAS DO VENCIMENTO.                                                                                                                                                                                                         01061900000000000000106190000000000000       009077090006612511277906191P000063
100000000000000000000009077090006612500000000000000000000000010002100025215106191700000000002            2  01252151061910061900000002543940000000001N010619000000000000000000000000000000000000000000000000000000000000000100025215106886KLEBER LUIZ DOS SANTOS                  RUA MONTE CASTELO - 262 AP.15 - AVIACAO             11702720                                                            000065
2SR. CAIXA, APOS O VENCIMENTO COBRAR 10% DE MULTA                                NAO RECEBER APOS 30 DIAS DO VENCIMENTO.                                                                                                                                                                                                         01061900000000000000106190000000000000       0090770900066125252151061917000066
100000000000000000000009077090006612500000000000000000000000010002100090206706191400000000002            2  01902067061910061900000002841490000000001N010619000000000000000000000000000000000000000000000000000000000000000100090206789815NEREIDE RODRIGUES FERREIRA              AVENIDA PADRE ESTANISLAU DE CAMPOS - 205            03590060                                                            000068
2SR. CAIXA, APOS O VENCIMENTO COBRAR 10% DE MULTA                                NAO RECEBER APOS 30 DIAS DO VENCIMENTO.                                                                                                                                                                                                         01061900000000000000106190000000000000       0090770900066125902067061914000069
100000000000000000000009077090006612500000000000000000000000010002100029150706191200000000002            2  01291507061910061900000003326000000000001N010619000000000000000000000000000000000000000000000000000000000000000100029150742833ANA DEISE SANTOS DE ALMEIDA             RUA MONTE CASTELO - 296 AP.121 - AVIACAO            11702720                                                            000071
2SR. CAIXA, APOS O VENCIMENTO COBRAR 10% DE MULTA                                NAO RECEBER APOS 30 DIAS DO VENCIMENTO.                                                                                                                                                                                                         01061900000000000000106190000000000000       0090770900066125291507061912000072
100000000000000000000009077090006612500000000000000000000000010002100000811706191800000000002            2  01008117061910061900000002739570000000001N010619000000000000000000000000000000000000000000000000000000000000000100000811752801SERGIO BUENO DA SILVA                   RUA MONTE CASTELO - 262 AP.75 - AVIACAO             11702720                                                            000074
2SR. CAIXA, APOS O VENCIMENTO COBRAR 10% DE MULTA                                NAO RECEBER APOS 30 DIAS DO VENCIMENTO.                                                                                                                                                                                                         01061900000000000000106190000000000000       0090770900066125008117061918000075
100000000000000000000009077090006612500000000000000000000000010002100018344806191400000000002            2  01183448061910061900000003482580000000001N010619000000000000000000000000000000000000000000000000000000000000000100018344803888MARCELO BERNARDO                        RUA MONTE CASTELO - 262 AP.84 - AVIACAO             11702720                                                            000077
2SR. CAIXA, APOS O VENCIMENTO COBRAR 10% DE MULTA                                NAO RECEBER APOS 30 DIAS DO VENCIMENTO.                                                                                                                                                                                                         01061900000000000000106190000000000000       0090770900066125183448061914000078
100000000000000000000009077090006612500000000000000000000000010002100004004306191100000000002            2  01040043061910061900000004882480000000001N010619000000000000000000000000000000000000000000000000000000000000000100004004328896VANDERLEI  MARTINS DE ALMEIDA           RUA MONSENHOR TABOSA - 03 - PARQUE CISPE            03819300                                                            000080
2SR. CAIXA, APOS O VENCIMENTO COBRAR 10% DE MULTA                                NAO RECEBER APOS 30 DIAS DO VENCIMENTO.                                                                                                                                                                                                         01061900000000000000106190000000000000       0090770900066125040043061911000081
100000000000000000000009077090006612500000000000000000000000010002100005133006191600000000002            2  01051330061910061900000003334890000000001N010619000000000000000000000000000000000000000000000000000000000000000100005133053860VICENTE ARCIPRETE JUNIOR                RUA JOSE SIMOES FERREIRA FILHO - 80 - JA            06040090                                                            000083
2SR. CAIXA, APOS O VENCIMENTO COBRAR 10% DE MULTA                                NAO RECEBER APOS 30 DIAS DO VENCIMENTO.                                                                                                                                                                                                         01061900000000000000106190000000000000       0090770900066125051330061916000084
100000000000000000000009077090006612500000000000000000000000010002100056660206191000000000002            2  01566602061910061900000000811170000000001N010619000000000000000000000000000000000000000000000000000000000000000100056660235868JOSE DA SILVA                           RUA MONTE CASTELO - 296 AP.32 - AVIACAO             11702720                                                            000086
2SR. CAIXA, APOS O VENCIMENTO COBRAR 10% DE MULTA                                NAO RECEBER APOS 30 DIAS DO VENCIMENTO.                                                                                                                                                                                                         01061900000000000000106190000000000000       0090770900066125566602061910000087
100000000000000000000009077090006612500000000000000000000000010002100016339406191200000000002            2  01163394061910061900000002945770000000001N010619000000000000000000000000000000000000000000000000000000000000000100016339432832ALEX MONTEIRO DA SILVA                  RUA IVA MOURA LIMA - 04 - JARDIM MIRNA I            04855540                                                            000089
2SR. CAIXA, APOS O VENCIMENTO COBRAR 10% DE MULTA                                NAO RECEBER APOS 30 DIAS DO VENCIMENTO.                                                                                                                                                                                                         01061900000000000000106190000000000000       0090770900066125163394061912000090
100000000000000000000009077090006612500000000000000000000000010002100031803806191P00000000002            2  01318038061910061900000003008230000000001N010619000000000000000000000000000000000000000000000000000000000000000100031803864877ELEILSON FELIPPE SANTOS                 RUA SANTA GREGORIA - 193 - CIDADE DUTRA             04806030                                                            000092
2SR. CAIXA, APOS O VENCIMENTO COBRAR 10% DE MULTA                                NAO RECEBER APOS 30 DIAS DO VENCIMENTO.                                                                                                                                                                                                         01061900000000000000106190000000000000       009077090006612531803806191P000093
100000000000000000000009077090006612500000000000000000000000010002100026032606191800000000002            2  01260326061910061900000002070160000000001N010619000000000000000000000000000000000000000000000000000000000000000100026032632857MARILA LOPES PEREIRA                    AVENIDA LUIZ GISHOKEM - 1761 AP.13 BL.05            05831315                                                            000095
2SR. CAIXA, APOS O VENCIMENTO COBRAR 10% DE MULTA                                NAO RECEBER APOS 30 DIAS DO VENCIMENTO.                                                                                                                                                                                                         01061900000000000000106190000000000000       0090770900066125260326061918000096
100000000000000000000009077090006612500000000000000000000000010002100063064506191400000000002            2  01630645061910061900000003584860000000001N010619000000000000000000000000000000000000000000000000000000000000000100063064537849ANTONIO APARECIDO DA SILVA DESTEFANO    RUA PROFESSOR TEODORO BRAGA - 46 - VILA             02966020                                                            000098
2SR. CAIXA, APOS O VENCIMENTO COBRAR 10% DE MULTA                                NAO RECEBER APOS 30 DIAS DO VENCIMENTO.                                                                                                                                                                                                         01061900000000000000106190000000000000       0090770900066125630645061914000099
100000000000000000000009077090006612500000000000000000000000010002100010107706191P00000000002            2  01101077061910061900000003435350000000001N010619000000000000000000000000000000000000000000000000000000000000000100010107711834VALDEMAR FECCHIO                        RUA DEPUTADO EMILIO CARLOS - 355 AP.21-B            06028010                                                            000101
2SR. CAIXA, APOS O VENCIMENTO COBRAR 10% DE MULTA                                NAO RECEBER APOS 30 DIAS DO VENCIMENTO.                                                                                                                                                                                                         01061900000000000000106190000000000000       009077090006612510107706191P000102
100000000000000000000009077090006612500000000000000000000000010002100003330706191900000000002            2  01033307061910061900000004419390000000001N010619000000000000000000000000000000000000000000000000000000000000000100003330791837MARLI DA SILVA BARBOSA                  RUA GLICERIO CERQUEIRA LEITE - 151 - JAR            03675040                                                            000104
2SR. CAIXA, APOS O VENCIMENTO COBRAR 10% DE MULTA                                NAO RECEBER APOS 30 DIAS DO VENCIMENTO.                                                                                                                                                                                                         01061900000000000000106190000000000000       0090770900066125033307061919000105
100000000000000000000009077090006612500000000000000000000000010002100008931006191700000000002            2  01089310061910061900000001796420000000001N010619000000000000000000000000000000000000000000000000000000000000000100008931031874BENEVENUTO THEODORO DA SILVA NETO       RUA MONTE CASTELO - 296 AP.63 - AVIACAO             11702720                                                            000107
2SR. CAIXA, APOS O VENCIMENTO COBRAR 10% DE MULTA                                NAO RECEBER APOS 30 DIAS DO VENCIMENTO.                                                                                                                                                                                                         01061900000000000000106190000000000000       0090770900066125089310061917000108
100000000000000000000009077090006612500000000000000000000000010002100005920506191300000000002            2  01059205061910061900000002087120000000001N010619000000000000000000000000000000000000000000000000000000000000000100005920579846SONIA MARIA VALDO POLLO                 RUA PALMIRA CERVI BARBARO - 797 - CIDADE            13214370                                                            000110
2SR. CAIXA, APOS O VENCIMENTO COBRAR 10% DE MULTA                                NAO RECEBER APOS 30 DIAS DO VENCIMENTO.                                                                                                                                                                                                         01061900000000000000106190000000000000       0090770900066125059205061913000111
100000000000000000000009077090006612500000000000000000000000010002100002494106191400000000002            2  01024941061910061900000003138060000000001N010619000000000000000000000000000000000000000000000000000000000000000100002494107881CIRO FRANCISCO MARCHI DURIGON           RUA MONTE CASTELO - 262 AP.115 - AVIACAO            11702720                                                            000113
2SR. CAIXA, APOS O VENCIMENTO COBRAR 10% DE MULTA                                NAO RECEBER APOS 30 DIAS DO VENCIMENTO.                                                                                                                                                                                                         01061900000000000000106190000000000000       0090770900066125024941061914000114
100000000000000000000009077090006612500000000000000000000000010002100007002306191100000000002            2  01070023061910061900000003084890000000001N010619000000000000000000000000000000000000000000000000000000000000000100007002345869DOMINGOS DE BRITO GALVAO                RUA MONTE CASTELO - 262 AP.44 - AVIACAO             11702720                                                            000116
2SR. CAIXA, APOS O VENCIMENTO COBRAR 10% DE MULTA                                NAO RECEBER APOS 30 DIAS DO VENCIMENTO.                                                                                                                                                                                                         01061900000000000000106190000000000000       0090770900066125070023061911000117
100000000000000000000009077090006612500000000000000000000000010002100009346806191100000000002            2  01093468061910061900000001285010000000001N010619000000000000000000000000000000000000000000000000000000000000000100009346863862NELSON DE SOUZA SANTOS                  RUA PRIMEIRA CRUZ - 90 - PARQUE INDEPEND            03236060                                                            000119
2SR. CAIXA, APOS O VENCIMENTO COBRAR 10% DE MULTA                                NAO RECEBER APOS 30 DIAS DO VENCIMENTO.                                                                                                                                                                                                         01061900000000000000106190000000000000       0090770900066125093468061911000120
100000000000000000000009077090006612500000000000000000000000010002100016299006191500000000002            2  01162990061910061900000002973840000000001N010619000000000000000000000000000000000000000000000000000000000000000100016299008857FERNANDO CESAR CARVALHO                 AVENIDA MARCONDES DE BRITO - 1340 AP.74             03509000                                                            000122
2SR. CAIXA, APOS O VENCIMENTO COBRAR 10% DE MULTA                                NAO RECEBER APOS 30 DIAS DO VENCIMENTO.                                                                                                                                                                                                         01061900000000000000106190000000000000       0090770900066125162990061915000123
100000000000000000000009077090006612500000000000000000000000010002100031082806191900000000002            2  01310828061910061900000002988240000000001N010619000000000000000000000000000000000000000000000000000000000000000100031082898880VANESSA DOS SANTOS NEIVA                RUA MONTE CASTELO - 296 AP.33 - BAIRRO A            11702720                                                            000125
2SR. CAIXA, APOS O VENCIMENTO COBRAR 10% DE MULTA                                NAO RECEBER APOS 30 DIAS DO VENCIMENTO.                                                                                                                                                                                                         01061900000000000000106190000000000000       0090770900066125310828061919000126
100000000000000000000009077090006612500000000000000000000000010002100065895306191900000000002            2  01658953061910061900000001819410000000001N010619000000000000000000000000000000000000000000000000000000000000000100065895304834MARINHO BARBOSA CUNHA                   AVENIDA EDU CHAVES - 639 AP.43 - PARQUE             02229000                                                            000128
2SR. CAIXA, APOS O VENCIMENTO COBRAR 10% DE MULTA                                NAO RECEBER APOS 30 DIAS DO VENCIMENTO.                                                                                                                                                                                                         01061900000000000000106190000000000000       0090770900066125658953061919000129
9                                                                                                                                                                                                                                                                                                                                                                                                         000130