01REMESSA01COBRANCA       00000000000008017025HB SANTOS CONSTRUTORA E INCORP237BRADESCO       070623        MX0000179                                                                                                                                                                                                                                                                                     000001
100000000000000000000009033990000627000000000000000000000000010002020025035106231100000000002            2  01250351062324062300000003028110000000001N060623000000000000000000000000000000000000000000000000000000000000000100025035170802WANDERSON LUIS DE CARVALHO              RUA JOAQUIM GONCALVES ROCHA - 302 - JARD            02859030                                                            000002
2SR. CAIXA, APOS O VENCIMENTO COBRAR 2% DE MULTA                                 NAO RECEBER APOS 30 DIAS DO VENCIMENTO.                                                                                                                                                                                                         07062300000000000000706230000000000000       0090339900006270250351062311000003
100000000000000000000009033990000627000000000000000000000000010002020007294306231900000000002            2  01072943062324062300000004072790000000001N060623000000000000000000000000000000000000000000000000000000000000000100007294351805CLAUDENIR APARECIDO VACARI              RUA CARLOS JOSE BORSTENS - 50 AP.93 - AV            11702750                                                            000005
2SR. CAIXA, APOS O VENCIMENTO COBRAR 2% DE MULTA                                 NAO RECEBER APOS 30 DIAS DO VENCIMENTO.                                                                                                                                                                                                         07062300000000000000706230000000000000       0090339900006270072943062319000006
100000000000000000000009033990000627000000000000000000000000010002020005071406231P00000000002            2  01050714062324062300000003996150000000001N060623000000000000000000000000000000000000000000000000000000000000000100005071481855ERIBALDO SANTANA CARVALHO               RUA HONDURAS - 477 - PARQUE DAS AMERICAS            09351070                                                            000008
2SR. CAIXA, APOS O VENCIMENTO COBRAR 2% DE MULTA                                 NAO RECEBER APOS 30 DIAS DO VENCIMENTO.                                                                                                                                                                                                         07062300000000000000706230000000000000       009033990000627005071406231P000009
100000000000000000000009033990000627000000000000000000000000010002020002841706231300000000002            2  01028417062324062300000003738750000000001N060623000000000000000000000000000000000000000000000000000000000000000100002841756416LUCIANA PINHEIRO DE ASSIS NUNES         RUA RIO ACIMA - 81 - RIACHO GRANDE - SAO            09830100                                                            000011
2SR. CAIXA, APOS O VENCIMENTO COBRAR 2% DE MULTA                                 NAO RECEBER APOS 30 DIAS DO VENCIMENTO.                                                                                                                                                                                                         07062300000000000000706230000000000000       0090339900006270028417062313000012
100000000000000000000009033990000627000000000000000000000000010002020084302006231200000000002            2  01843020062324062300000003756700000000001N060623000000000000000000000000000000000000000000000000000000000000000100084302097868FAUSTO TADEU VILOR                      RUA ANTONIO TAVARES - 466 - BAIRRO CAMBU            01542010                                                            000014
2SR. CAIXA, APOS O VENCIMENTO COBRAR 2% DE MULTA                                 NAO RECEBER APOS 30 DIAS DO VENCIMENTO.                                                                                                                                                                                                         07062300000000000000706230000000000000       0090339900006270843020062312000015
100000000000000000000009033990000627000000000000000000000000010002020000991706231500000000002            2  01009917062324062300000003602560000000001N060623000000000000000000000000000000000000000000000000000000000000000100000991748808JAILSON BORGES DE ANDRADE               RUA IPIOBUNA - 45 - JARDIM CUMBICA - GUA            07240040                                                            000017
2SR. CAIXA, APOS O VENCIMENTO COBRAR 2% DE MULTA                                 NAO RECEBER APOS 30 DIAS DO VENCIMENTO.                                                                                                                                                                                                         07062300000000000000706230000000000000       0090339900006270009917062315000018
100000000000000000000009033990000627000000000000000000000000010002020022151606231100000000002            2  01221516062324062300000003581640000000001N060623000000000000000000000000000000000000000000000000000000000000000100022151666816SAMIR LIMA DE ARAUJO                    AVENIDA GUARAPIRANGA - 2616 AP.131 BL.14            04902005                                                            000020
2SR. CAIXA, APOS O VENCIMENTO COBRAR 2% DE MULTA                                 NAO RECEBER APOS 30 DIAS DO VENCIMENTO.                                                                                                                                                                                                         07062300000000000000706230000000000000       0090339900006270221516062311000021
100000000000000000000009033990000627000000000000000000000000010002020022313106231300000000002            2  01223131062326062300000002754780000000001N060623000000000000000000000000000000000000000000000000000000000000000100022313116824ROSA MARIA BRITO DA SILVA               RUA SERVIDAO DE SAO MARCOS - 128 CASA 1             04930300                                                            000023
2SR. CAIXA, APOS O VENCIMENTO COBRAR 2% DE MULTA                                 NAO RECEBER APOS 30 DIAS DO VENCIMENTO.                                                                                                                                                                                                         07062300000000000000706230000000000000       0090339900006270223131062313000024
100000000000000000000009033990000627000000000000000000000000010002020027538006231500000000002            2  01275380062326062300000002764370000000001N060623000000000000000000000000000000000000000000000000000000000000000100027538087249MARA LUCIA MENEZES DA COSTA             RUA LEILA  - 183 - ITAQUERA - SAO PAULO             08240020                                                            000026
2SR. CAIXA, APOS O VENCIMENTO COBRAR 2% DE MULTA                                 NAO RECEBER APOS 30 DIAS DO VENCIMENTO.                                                                                                                                                                                                         07062300000000000000706230000000000000       0090339900006270275380062315000027
100000000000000000000009033990000627000000000000000000000000010002020031278406231100000000002            2  01312784062324062300000003459960000000001N060623000000000000000000000000000000000000000000000000000000000000000100031278411836JEFFERSON DE PIERI PIRES ZAMUNER        RUA MANOEL ARCE - 277 - PARQUE BANCARIO             03922150                                                            000029
2SR. CAIXA, APOS O VENCIMENTO COBRAR 2% DE MULTA                                 NAO RECEBER APOS 30 DIAS DO VENCIMENTO.                                                                                                                                                                                                         07062300000000000000706230000000000000       0090339900006270312784062311000030
100000000000000000000009033990000627000000000000000000000000010002020019185706231300000000002            2  01191857062326062300000002515660000000001N060623000000000000000000000000000000000000000000000000000000000000000100019185769800AGUINALDO PESSOA DE LIMA                RUA JANUARIO ZINGARO - 252 AP.303 BL.04             05794300                                                            000032
2SR. CAIXA, APOS O VENCIMENTO COBRAR 2% DE MULTA                                 NAO RECEBER APOS 30 DIAS DO VENCIMENTO.                                                                                                                                                                                                         07062300000000000000706230000000000000       0090339900006270191857062313000033
100000000000000000000009033990000627000000000000000000000000010002020033303606231400000000002            2  01333036062326062300000002709560000000001N060623000000000000000000000000000000000000000000000000000000000000000100033303645809JESSICA DA SILVA FREITAS                RUA ARILDO VALADAO - 120 - JARDIM GUAEMB            04814600                                                            000035
2SR. CAIXA, APOS O VENCIMENTO COBRAR 2% DE MULTA                                 NAO RECEBER APOS 30 DIAS DO VENCIMENTO.                                                                                                                                                                                                         07062300000000000000706230000000000000       0090339900006270333036062314000036
100000000000000000000009033990000627000000000000000000000000010002020006422606231P00000000002            2  01064226062324062300000003747240000000001N060623000000000000000000000000000000000000000000000000000000000000000100006422607881GERALDO ALVES DA SILVA                  RUA CARLOS JOSE BORSTENS - 50 AP.14 - AV            11702750                                                            000038
2SR. CAIXA, APOS O VENCIMENTO COBRAR 2% DE MULTA                                 NAO RECEBER APOS 30 DIAS DO VENCIMENTO.                                                                                                                                                                                                         07062300000000000000706230000000000000       009033990000627006422606231P000039
100000000000000000000009033990000627000000000000000000000000010002020033877106231100000000002            2  01338771062326062300000002540290000000001N060623000000000000000000000000000000000000000000000000000000000000000100033877129870HELDER FERREIRA VIANA                   RUA JOSE CALIXTO DO CARMO - 286 AP.35 -             11702690                                                            000041
2SR. CAIXA, APOS O VENCIMENTO COBRAR 2% DE MULTA                                 NAO RECEBER APOS 30 DIAS DO VENCIMENTO.                                                                                                                                                                                                         07062300000000000000706230000000000000       0090339900006270338771062311000042
100000000000000000000009033990000627000000000000000000000000010002020087573006231000000000002            2  01875730062326062300000002556580000000001N060623000000000000000000000000000000000000000000000000000000000000000100087573059604VANDERLEY DE ASSIS                      RUA ROMEU ALBANI - 268 - JARDIM PARQUE R            13803810                                                            000044
2SR. CAIXA, APOS O VENCIMENTO COBRAR 2% DE MULTA                                 NAO RECEBER APOS 30 DIAS DO VENCIMENTO.                                                                                                                                                                                                         07062300000000000000706230000000000000       0090339900006270875730062310000045
100000000000000000000009033990000627000000000000000000000000010002020010825506231800000000002            2  01108255062326062300000002667930000000001N060623000000000000000000000000000000000000000000000000000000000000000100010825513847JOSE APARECIDO PEREIRA                  RUA GENERAL OSORIO - 305 - JARDIM TRINTA            11515130                                                            000047
2SR. CAIXA, APOS O VENCIMENTO COBRAR 2% DE MULTA                                 NAO RECEBER APOS 30 DIAS DO VENCIMENTO.                                                                                                                                                                                                         07062300000000000000706230000000000000       0090339900006270108255062318000048
100000000000000000000009033990000627000000000000000000000000010002020039115106231P00000000002            2  01391151062326062300000003288700000000001N060623000000000000000000000000000000000000000000000000000000000000000100039115139840LAIS CRISTINA RIBEIRO ANDO              RUA JOSE CALIXTO DO CARMO - 286 AP.65 -             11702690                                                            000050
2SR. CAIXA, APOS O VENCIMENTO COBRAR 2% DE MULTA                                 NAO RECEBER APOS 30 DIAS DO VENCIMENTO.                                                                                                                                                                                                         07062300000000000000706230000000000000       009033990000627039115106231P000051
100000000000000000000009033990000627000000000000000000000000010002020000593206231800000000002            2  01005932062324062300000004033890000000001N060623000000000000000000000000000000000000000000000000000000000000000100000593293860WALTER HELIO BARBOSA FILHO              AVENIDA ANTONIO FREDERICO OZANAN - 9500             13214206                                                            000053
2SR. CAIXA, APOS O VENCIMENTO COBRAR 2% DE MULTA                                 NAO RECEBER APOS 30 DIAS DO VENCIMENTO.                                                                                                                                                                                                         07062300000000000000706230000000000000       0090339900006270005932062318000054
100000000000000000000009033990000627000000000000000000000000010002020065584106231P00000000002            2  01655841062324062300000002117580000000001N060623000000000000000000000000000000000000000000000000000000000000000100065584147834JOAQUIM DA COSTA MACHADO NETO           RUA CARLOS JOSE BORSTENS - 50 AP.42 - AV            11702750                                                            000056
2SR. CAIXA, APOS O VENCIMENTO COBRAR 2% DE MULTA                                 NAO RECEBER APOS 30 DIAS DO VENCIMENTO.                                                                                                                                                                                                         07062300000000000000706230000000000000       009033990000627065584106231P000057
100000000000000000000009033990000627000000000000000000000000010002020065584106232800000000002            2  01655841062324062300000002117570000000001N060623000000000000000000000000000000000000000000000000000000000000000100065584147834JOAQUIM DA COSTA MACHADO NETO           RUA CARLOS JOSE BORSTENS - 50 AP.42 - AV            11702750                                                            000059
2SR. CAIXA, APOS O VENCIMENTO COBRAR 2% DE MULTA                                 NAO RECEBER APOS 30 DIAS DO VENCIMENTO.                                                                                                                                                                                                         07062300000000000000706230000000000000       0090339900006270655841062328000060
100000000000000000000009033990000627000000000000000000000000010002020006684606231200000000002            2  01066846062326062300000002709260000000001N060623000000000000000000000000000000000000000000000000000000000000000100006684623884LAUDINOR VIEIRA GARCIA                  RUA CANDIDO SALES - 374 - JARDIM PRESIDE            07172000                                                            000062
2SR. CAIXA, APOS O VENCIMENTO COBRAR 2% DE MULTA                                 NAO RECEBER APOS 30 DIAS DO VENCIMENTO.                                                                                                                                                                                                         07062300000000000000706230000000000000       0090339900006270066846062312000063
100000000000000000000009033990000627000000000000000000000000010002020011663506231300000000002            2  01116635062326062300000002728740000000001N060623000000000000000000000000000000000000000000000000000000000000000100011663589844MARIA SAVIO QUARELLO                    AVENIDA MENDONCA DRUMOND - 321 - JARDIM             03524030                                                            000065
2SR. CAIXA, APOS O VENCIMENTO COBRAR 2% DE MULTA                                 NAO RECEBER APOS 30 DIAS DO VENCIMENTO.                                                                                                                                                                                                         07062300000000000000706230000000000000       0090339900006270116635062313000066
100000000000000000000009033990000627000000000000000000000000010002020010083806231500000000002            2  01100838062326062300000002636420000000001N060623000000000000000000000000000000000000000000000000000000000000000100010083824855IONE FERREIRA COUTO DA SILVA            RUA JOSE RAGEL DE MESQUITA - 60 CS.01 -             07799999                                                            000068
2SR. CAIXA, APOS O VENCIMENTO COBRAR 2% DE MULTA                                 NAO RECEBER APOS 30 DIAS DO VENCIMENTO.                                                                                                                                                                                                         07062300000000000000706230000000000000       0090339900006270100838062315000069
100000000000000000000009033990000627000000000000000000000000010002020031010706231000000000002            2  01310107062326062300000002587170000000001N060623000000000000000000000000000000000000000000000000000000000000000100031010705890ANDRE GONZALEZ RABELLO                  RUA PARAIBA - 106 AP.61 - POMPEIA - SANT            11065470                                                            000071
2SR. CAIXA, APOS O VENCIMENTO COBRAR 2% DE MULTA                                 NAO RECEBER APOS 30 DIAS DO VENCIMENTO.                                                                                                                                                                                                         07062300000000000000706230000000000000       0090339900006270310107062310000072
100000000000000000000009033990000627000000000000000000000000010002020005351006231P00000000002            2  01053510062326062300000002425720000000001N060623000000000000000000000000000000000000000000000000000000000000000100005351015897VALERIA ALVES MARCOLINO HINNIGER        RUA JOSE CALIXTO DO CARMO - 286 AP.92 -             11702690                                                            000074
2SR. CAIXA, APOS O VENCIMENTO COBRAR 2% DE MULTA                                 NAO RECEBER APOS 30 DIAS DO VENCIMENTO.                                                                                                                                                                                                         07062300000000000000706230000000000000       009033990000627005351006231P000075
100000000000000000000009033990000627000000000000000000000000010002020031898706231500000000002            2  01318987062324062300000003859780000000001N060623000000000000000000000000000000000000000000000000000000000000000100031898775800ANITA MARTINS COLOMBO                   RUA CARLOS JOSE BORSTENS - 50 AP.115 - A            11702750                                                            000077
2SR. CAIXA, APOS O VENCIMENTO COBRAR 2% DE MULTA                                 NAO RECEBER APOS 30 DIAS DO VENCIMENTO.                                                                                                                                                                                                         07062300000000000000706230000000000000       0090339900006270318987062315000078
100000000000000000000009033990000627000000000000000000000000010002020037983406231500000000002            2  01379834062326062300000002849470000000001N060623000000000000000000000000000000000000000000000000000000000000000100037983484801JOSE ERIVALDO SOUZA DO NASCIMENTO RAMOS RUA LETICIA - 250 - JARDIM GUARUJA - SAO            05877260                                                            000080
2SR. CAIXA, APOS O VENCIMENTO COBRAR 2% DE MULTA                                 NAO RECEBER APOS 30 DIAS DO VENCIMENTO.                                                                                                                                                                                                         07062300000000000000706230000000000000       0090339900006270379834062315000081
100000000000000000000009033990000627000000000000000000000000010002020056289206231600000000002            2  01562892062326062300000002152600000000001N060623000000000000000000000000000000000000000000000000000000000000000100056289286900PEDRO RIBEIRO                           RUA CONEGO MANOEL VAZ - 48 - SANTANA - S            02019050                                                            000083
2SR. CAIXA, APOS O VENCIMENTO COBRAR 2% DE MULTA                                 NAO RECEBER APOS 30 DIAS DO VENCIMENTO.                                                                                                                                                                                                         07062300000000000000706230000000000000       0090339900006270562892062316000084
100000000000000000000009033990000627000000000000000000000000010002020034812206231600000000002            2  01348122062324062300000005108600000000001N060623000000000000000000000000000000000000000000000000000000000000000100034812226880THAIS TORQUATO MIMOSO DE JESUS          RUA ARNALDO CINTRA - 416 AP.104 TORRE 2             03088000                                                            000086
2SR. CAIXA, APOS O VENCIMENTO COBRAR 2% DE MULTA                                 NAO RECEBER APOS 30 DIAS DO VENCIMENTO.                                                                                                                                                                                                         07062300000000000000706230000000000000       0090339900006270348122062316000087
100000000000000000000009033990000627000000000000000000000000010002020012849406231200000000002            2  01128494062326062300000005089550000000001N060623000000000000000000000000000000000000000000000000000000000000000100012849428809MOISES CLAUDIO DO ROSARIO               AVENIDA DR. AUGUSTO DE TOLEDO - 510 AP.1            09541520                                                            000089
2SR. CAIXA, APOS O VENCIMENTO COBRAR 2% DE MULTA                                 NAO RECEBER APOS 30 DIAS DO VENCIMENTO.                                                                                                                                                                                                         07062300000000000000706230000000000000       0090339900006270128494062312000090
100000000000000000000009033990000627000000000000000000000000010002020014087406231500000000002            2  01140874062326062300000002809940000000001N060623000000000000000000000000000000000000000000000000000000000000000100014087484874SERGIO SANTOS DO NASCIMENTO             RUA JOSE CALIXTO DO CARMO - 286 AP.52 -             11702690                                                            000092
2SR. CAIXA, APOS O VENCIMENTO COBRAR 2% DE MULTA                                 NAO RECEBER APOS 30 DIAS DO VENCIMENTO.                                                                                                                                                                                                         07062300000000000000706230000000000000       0090339900006270140874062315000093
100000000000000000000009033990000627000000000000000000000000010002020026834506231400000000002            2  01268345062326062300000002589020000000001N060623000000000000000000000000000000000000000000000000000000000000000100026834550895RAQUEL CARDOSO JOAO                     RUA PEDROSO XAVIER - 277 AP.23 TORRE 01             02732020                                                            000095
2SR. CAIXA, APOS O VENCIMENTO COBRAR 2% DE MULTA                                 NAO RECEBER APOS 30 DIAS DO VENCIMENTO.                                                                                                                                                                                                         07062300000000000000706230000000000000       0090339900006270268345062314000096
100000000000000000000009033990000627000000000000000000000000010002020039540006231200000000002            2  01395400062326062300000002545370000000001N060623000000000000000000000000000000000000000000000000000000000000000100039540008816LUZINETE CLARINDO SILVA                 RUA DEINOS - 275 - BAIRRO CIDADE SATELIT            08340100                                                            000098
2SR. CAIXA, APOS O VENCIMENTO COBRAR 2% DE MULTA                                 NAO RECEBER APOS 30 DIAS DO VENCIMENTO.                                                                                                                                                                                                         07062300000000000000706230000000000000       0090339900006270395400062312000099
100000000000000000000009033990000627000000000000000000000000010002020003311006231P00000000002            2  01033110062326062300000002650710000000001N060623000000000000000000000000000000000000000000000000000000000000000100003311030877SEBASTIAO SARUVA NETO                   RUA HAMILTON REGIS - 559 - BAIRRO DO LIM            08051440                                                            000101
2SR. CAIXA, APOS O VENCIMENTO COBRAR 2% DE MULTA                                 NAO RECEBER APOS 30 DIAS DO VENCIMENTO.                                                                                                                                                                                                         07062300000000000000706230000000000000       009033990000627003311006231P000102
100000000000000000000009033990000627000000000000000000000000010002020090091906231600000000002            2  01900919062326062300000002533680000000001N060623000000000000000000000000000000000000000000000000000000000000000100090091990882JUECIR CARVALHO DA LUZ                  RUA JOSE CALIXTO DO CARMO - 286 AP.114 -            11702690                                                            000104
2SR. CAIXA, APOS O VENCIMENTO COBRAR 2% DE MULTA                                 NAO RECEBER APOS 30 DIAS DO VENCIMENTO.                                                                                                                                                                                                         07062300000000000000706230000000000000       0090339900006270900919062316000105
100000000000000000000009033990000627000000000000000000000000010002020037325906231800000000002            2  01373259062326062300000002073450000000001N060623000000000000000000000000000000000000000000000000000000000000000100037325923830MARIA AUGUSTA OLIVEIRA DE ANDRADE       RUA JOSE CALIXTO DO CARMO - 286 AP.124 -            11702690                                                            000107
2SR. CAIXA, APOS O VENCIMENTO COBRAR 2% DE MULTA                                 NAO RECEBER APOS 30 DIAS DO VENCIMENTO.                                                                                                                                                                                                         07062300000000000000706230000000000000       0090339900006270373259062318000108
100000000000000000000009033990000627000000000000000000000000010002020012478806231500000000002            2  01124788062324062300000003775350000000001N060623000000000000000000000000000000000000000000000000000000000000000100012478899809VITORIA BATISTA QUEIROZ                 RUA CARVALHO DE FREITAS - 255 AP.71A - V            05728030                                                            000110
2SR. CAIXA, APOS O VENCIMENTO COBRAR 2% DE MULTA                                 NAO RECEBER APOS 30 DIAS DO VENCIMENTO.                                                                                                                                                                                                         07062300000000000000706230000000000000       0090339900006270124788062315000111
100000000000000000000009033990000627000000000000000000000000010002020013184806231600000000002            2  01131848062326062300000002504870000000001N060623000000000000000000000000000000000000000000000000000000000000000100013184856810SYDNEY HENRIQUE GAMARANO JUNIOR         RUA JOSE CALIXTO DO CARMO - 286 AP.125 -            11702690                                                            000113
2SR. CAIXA, APOS O VENCIMENTO COBRAR 2% DE MULTA                                 NAO RECEBER APOS 30 DIAS DO VENCIMENTO.                                                                                                                                                                                                         07062300000000000000706230000000000000       0090339900006270131848062316000114
100000000000000000000009033990000627000000000000000000000000010002020097989906231P00000000002            2  01979899062326062300000001740730000000001N060623000000000000000000000000000000000000000000000000000000000000000100097989924820NELSON LUIS BERRIBILLE                  RUA SILVEIRA IGNACIO SOBRINHO - 965 - VI            13560294                                                            000116
2SR. CAIXA, APOS O VENCIMENTO COBRAR 2% DE MULTA                                 NAO RECEBER APOS 30 DIAS DO VENCIMENTO.                                                                                                                                                                                                         07062300000000000000706230000000000000       009033990000627097989906231P000117
100000000000000000000009033990000627000000000000000000000000010002020032341806231900000000002            2  01323418062324062300000003921530000000001N060623000000000000000000000000000000000000000000000000000000000000000100032341847803PRISCILA ALVES DE FRANCA MIRANDA        RUA CARLOS JOSE BORSTENS - 50 AP.91 - AV            11702750                                                            000119
2SR. CAIXA, APOS O VENCIMENTO COBRAR 2% DE MULTA                                 NAO RECEBER APOS 30 DIAS DO VENCIMENTO.                                                                                                                                                                                                         07062300000000000000706230000000000000       0090339900006270323418062319000120
100000000000000000000009033990000627000000000000000000000000010002020016050606231400000000002            2  01160506062324062300000003639930000000001N060623000000000000000000000000000000000000000000000000000000000000000100016050684898ANDRE RODRIGUES DE OLIVEIRA             RUA CORACAO PAULISTA - 14 - FAZENDA ITAI            08132430                                                            000122
2SR. CAIXA, APOS O VENCIMENTO COBRAR 2% DE MULTA                                 NAO RECEBER APOS 30 DIAS DO VENCIMENTO.                                                                                                                                                                                                         07062300000000000000706230000000000000       0090339900006270160506062314000123
100000000000000000000009033990000627000000000000000000000000010002020021464906231800000000002            2  01214649062324062300000005736610000000001N060623000000000000000000000000000000000000000000000000000000000000000100021464965846ANDREA APARECIDA DE OLIVEIRA PECCI      RUA ANTONIO BOZ MARFIL - 103 - PARQUE DO            05396020                                                            000125
2SR. CAIXA, APOS O VENCIMENTO COBRAR 2% DE MULTA                                 NAO RECEBER APOS 30 DIAS DO VENCIMENTO.                                                                                                                                                                                                         07062300000000000000706230000000000000       0090339900006270214649062318000126
100000000000000000000009033990000627000000000000000000000000010002020030348106231P00000000002            2  01303481062324062300000003475820000000001N060623000000000000000000000000000000000000000000000000000000000000000100030348198892KELLY CRISTINA CORDEIRO                 RUA CARLOS JOSE BORSTENS - 50 AP.25 - AV            11702750                                                            000128
2SR. CAIXA, APOS O VENCIMENTO COBRAR 2% DE MULTA                                 NAO RECEBER APOS 30 DIAS DO VENCIMENTO.                                                                                                                                                                                                         07062300000000000000706230000000000000       009033990000627030348106231P000129
100000000000000000000009033990000627000000000000000000000000010002020003597506231800000000002            2  01035975062326062300000002341240000000001N060623000000000000000000000000000000000000000000000000000000000000000100003597509827ANISIO FAUSTINO DE OLIVEIRA             RUA DOMINGOS DE MAMBRO - 5 CASA 20 - CIT            06040290                                                            000131
2SR. CAIXA, APOS O VENCIMENTO COBRAR 2% DE MULTA                                 NAO RECEBER APOS 30 DIAS DO VENCIMENTO.                                                                                                                                                                                                         07062300000000000000706230000000000000       0090339900006270035975062318000132
9                                                                                                                                                                                                                                                                                                                                                                                                         000133