01REMESSA01COBRANCA       00000000000004991781AIRES CONSTRUTORA E INCORPORAD237BRADESCO       010820        MX0000146                                                                                                                                                                                                                                                                                     000001
100000000000000000000009077090006612500000000000000000000000010002100006140008201600000000002            2  01061400082010082000000004112410000000001N010820000000000000000000000000000000000000000000000000000000000000000100006140049857MARIA ALBANI DA SILVA EUSEBIO           RUA ORLANDO SEGALA - 108 - JARDIM ADRIAN            07135190                                                            000002
2SR. CAIXA, APOS O VENCIMENTO COBRAR 10% DE MULTA                                NAO RECEBER APOS 30 DIAS DO VENCIMENTO.                                                                                                                                                                                                         01082000000000000000108200000000000000       0090770900066125061400082016000003
100000000000000000000009077090006612500000000000000000000000010002100085416908201600000000002            2  01854169082010082000000003488770000000001N010820000000000000000000000000000000000000000000000000000000000000000100085416940891ANTONIO DE SOUSA MENDES                 RUA MONTE CASTELO - 296 AP.52 - AVIACAO             11702720                                                            000005
2SR. CAIXA, APOS O VENCIMENTO COBRAR 10% DE MULTA                                NAO RECEBER APOS 30 DIAS DO VENCIMENTO.                                                                                                                                                                                                         01082000000000000000108200000000000000       0090770900066125854169082016000006
100000000000000000000009077090006612500000000000000000000000010002100005678008201P00000000002            2  01056780082010082000000003633480000000001N010820000000000000000000000000000000000000000000000000000000000000000100005678057863FABIO MOREIRA CAMPOS                    RUA FLORENCIO DA SILVA - 284 - VILA LIBA            03738070                                                            000008
2SR. CAIXA, APOS O VENCIMENTO COBRAR 10% DE MULTA                                NAO RECEBER APOS 30 DIAS DO VENCIMENTO.                                                                                                                                                                                                         01082000000000000000108200000000000000       009077090006612505678008201P000009
100000000000000000000009077090006612500000000000000000000000010002100016348208201600000000002            2  01163482082010082000000003544730000000001N010820000000000000000000000000000000000000000000000000000000000000000100016348237885AILTON LORENA                           AVENIDA BRASILIA - 194 - BELA VISTA - SA            09180260                                                            000011
2SR. CAIXA, APOS O VENCIMENTO COBRAR 10% DE MULTA                                NAO RECEBER APOS 30 DIAS DO VENCIMENTO.                                                                                                                                                                                                         01082000000000000000108200000000000000       0090770900066125163482082016000012
100000000000000000000009077090006612500000000000000000000000010002100081218408201P00000000002            2  01812184082010082000000003421100000000001N010820000000000000000000000000000000000000000000000000000000000000000100081218486953OSMAR DA COSTA - A/C RITA GONCALVES     AVENIDA ALMEIDA JUNIOR - 717 - SAMAMBAIA            11713050                                                            000014
2SR. CAIXA, APOS O VENCIMENTO COBRAR 10% DE MULTA                                NAO RECEBER APOS 30 DIAS DO VENCIMENTO.                                                                                                                                                                                                         01082000000000000000108200000000000000       009077090006612581218408201P000015
100000000000000000000009077090006612500000000000000000000000010002100004981808201200000000002            2  01049818082010082000000003885760000000001N010820000000000000000000000000000000000000000000000000000000000000000100004981884850SILVIO PAULINO GONCALVES                MARIA DE CASTRO MESQUITA - 84 AP.103 BLO            07110040                                                            000017
2SR. CAIXA, APOS O VENCIMENTO COBRAR 10% DE MULTA                                NAO RECEBER APOS 30 DIAS DO VENCIMENTO.                                                                                                                                                                                                         01082000000000000000108200000000000000       0090770900066125049818082012000018
100000000000000000000009077090006612500000000000000000000000010002100019282508201700000000002            2  01192825082010082000000002550590000000001N010820000000000000000000000000000000000000000000000000000000000000000100019282546837FABIO LEANDRO DE FREITAS ASSIS          RUA BASSIM NAGIB TRABULSI - 97 - PONTA D            11030540                                                            000020
2SR. CAIXA, APOS O VENCIMENTO COBRAR 10% DE MULTA                                NAO RECEBER APOS 30 DIAS DO VENCIMENTO.                                                                                                                                                                                                         01082000000000000000108200000000000000       0090770900066125192825082017000021
100000000000000000000009077090006612500000000000000000000000010002100008423408201000000000002            2  01084234082010082000000003544660000000001N010820000000000000000000000000000000000000000000000000000000000000000100008423485811EDSON LUIZ NUNES                        RUA NOEMIA PEDROSO BUENO - 41 - JARDIM G            09360440                                                            000023
2SR. CAIXA, APOS O VENCIMENTO COBRAR 10% DE MULTA                                NAO RECEBER APOS 30 DIAS DO VENCIMENTO.                                                                                                                                                                                                         01082000000000000000108200000000000000       0090770900066125084234082010000024
100000000000000000000009077090006612500000000000000000000000010002100003865708201500000000002            2  01038657082010082000000003417650000000001N010820000000000000000000000000000000000000000000000000000000000000000100003865776841FRANCISCO JOSE ROCCO                    RUA FABIO JOSE BEZERRA - 130 AP.86 - PAR            03805000                                                            000026
2SR. CAIXA, APOS O VENCIMENTO COBRAR 10% DE MULTA                                NAO RECEBER APOS 30 DIAS DO VENCIMENTO.                                                                                                                                                                                                         01082000000000000000108200000000000000       0090770900066125038657082015000027
100000000000000000000009077090006612500000000000000000000000010002100028309508201100000000002            2  01283095082010082000000003047750000000001N010820000000000000000000000000000000000000000000000000000000000000000100028309524803DEISE RIBEIRO BARBOSA                   RUA CANDIDO JOSE DE ANDRADE - 173 - ERME            03807030                                                            000029
2SR. CAIXA, APOS O VENCIMENTO COBRAR 10% DE MULTA                                NAO RECEBER APOS 30 DIAS DO VENCIMENTO.                                                                                                                                                                                                         01082000000000000000108200000000000000       0090770900066125283095082011000030
100000000000000000000009077090006612500000000000000000000000010002100011277908201100000000002            2  01112779082010082000000003617350000000001N010820000000000000000000000000000000000000000000000000000000000000000100011277908893JOSE AILTON LOPES DE AZEVEDO            RUA MAESTRO JOAO SEPE - 19 - JARDIM MARI            04181030                                                            000032
2SR. CAIXA, APOS O VENCIMENTO COBRAR 10% DE MULTA                                NAO RECEBER APOS 30 DIAS DO VENCIMENTO.                                                                                                                                                                                                         01082000000000000000108200000000000000       0090770900066125112779082011000033
100000000000000000000009077090006612500000000000000000000000010002100025215108201900000000002            2  01252151082010082000000002727920000000001N010820000000000000000000000000000000000000000000000000000000000000000100025215106886KLEBER LUIZ DOS SANTOS                  RUA MONTE CASTELO - 262 AP.15 - AVIACAO             11702720                                                            000035
2SR. CAIXA, APOS O VENCIMENTO COBRAR 10% DE MULTA                                NAO RECEBER APOS 30 DIAS DO VENCIMENTO.                                                                                                                                                                                                         01082000000000000000108200000000000000       0090770900066125252151082019000036
100000000000000000000009077090006612500000000000000000000000010002100090206708201600000000002            2  01902067082010082000000003046990000000001N010820000000000000000000000000000000000000000000000000000000000000000100090206789815NEREIDE RODRIGUES FERREIRA              AVENIDA PADRE ESTANISLAU DE CAMPOS - 205            03590060                                                            000038
2SR. CAIXA, APOS O VENCIMENTO COBRAR 10% DE MULTA                                NAO RECEBER APOS 30 DIAS DO VENCIMENTO.                                                                                                                                                                                                         01082000000000000000108200000000000000       0090770900066125902067082016000039
100000000000000000000009077090006612500000000000000000000000010002100029150708201400000000002            2  01291507082010082000000003566550000000001N010820000000000000000000000000000000000000000000000000000000000000000100029150742833ANA DEISE SANTOS DE ALMEIDA             RUA MONTE CASTELO - 296 AP.121 - AVIACAO            11702720                                                            000041
2SR. CAIXA, APOS O VENCIMENTO COBRAR 10% DE MULTA                                NAO RECEBER APOS 30 DIAS DO VENCIMENTO.                                                                                                                                                                                                         01082000000000000000108200000000000000       0090770900066125291507082014000042
100000000000000000000009077090006612500000000000000000000000010002100000811708201P00000000002            2  01008117082010082000000002937700000000001N010820000000000000000000000000000000000000000000000000000000000000000100000811752801SERGIO BUENO DA SILVA                   RUA MONTE CASTELO - 262 AP.75 - AVIACAO             11702720                                                            000044
2SR. CAIXA, APOS O VENCIMENTO COBRAR 10% DE MULTA                                NAO RECEBER APOS 30 DIAS DO VENCIMENTO.                                                                                                                                                                                                         01082000000000000000108200000000000000       009077090006612500811708201P000045
100000000000000000000009077090006612500000000000000000000000010002100018344808201600000000002            2  01183448082010082000000003994550000000001N010820000000000000000000000000000000000000000000000000000000000000000100018344803888MARCELO BERNARDO                        RUA MONTE CASTELO - 262 AP.84 - AVIACAO             11702720                                                            000047
2SR. CAIXA, APOS O VENCIMENTO COBRAR 10% DE MULTA                                NAO RECEBER APOS 30 DIAS DO VENCIMENTO.                                                                                                                                                                                                         01082000000000000000108200000000000000       0090770900066125183448082016000048
100000000000000000000009077090006612500000000000000000000000010002100004004308201300000000002            2  01040043082010082000000005235580000000001N010820000000000000000000000000000000000000000000000000000000000000000100004004328896VANDERLEI  MARTINS DE ALMEIDA           RUA MONSENHOR TABOSA - 03 - PARQUE CISPE            03819300                                                            000050
2SR. CAIXA, APOS O VENCIMENTO COBRAR 10% DE MULTA                                NAO RECEBER APOS 30 DIAS DO VENCIMENTO.                                                                                                                                                                                                         01082000000000000000108200000000000000       0090770900066125040043082013000051
100000000000000000000009077090006612500000000000000000000000010002100016339408201400000000002            2  01163394082010082000000003158830000000001N010820000000000000000000000000000000000000000000000000000000000000000100016339432832ALEX MONTEIRO DA SILVA                  RUA IVA MOURA LIMA - 04 - JARDIM MIRNA I            04855540                                                            000053
2SR. CAIXA, APOS O VENCIMENTO COBRAR 10% DE MULTA                                NAO RECEBER APOS 30 DIAS DO VENCIMENTO.                                                                                                                                                                                                         01082000000000000000108200000000000000       0090770900066125163394082014000054
100000000000000000000009077090006612500000000000000000000000010002100031803808201100000000002            2  01318038082010082000000003225790000000001N010820000000000000000000000000000000000000000000000000000000000000000100031803864877ELEILSON FELIPPE SANTOS                 RUA SANTA GREGORIA - 193 - CIDADE DUTRA             04806030                                                            000056
2SR. CAIXA, APOS O VENCIMENTO COBRAR 10% DE MULTA                                NAO RECEBER APOS 30 DIAS DO VENCIMENTO.                                                                                                                                                                                                         01082000000000000000108200000000000000       0090770900066125318038082011000057
100000000000000000000009077090006612500000000000000000000000010002100026032608201P00000000002            2  01260326082010082000000002219870000000001N010820000000000000000000000000000000000000000000000000000000000000000100026032632857MARILA LOPES PEREIRA                    AVENIDA LUIZ GUSHIKEN - 1761 AP.13 BL.05            05831315                                                            000059
2SR. CAIXA, APOS O VENCIMENTO COBRAR 10% DE MULTA                                NAO RECEBER APOS 30 DIAS DO VENCIMENTO.                                                                                                                                                                                                         01082000000000000000108200000000000000       009077090006612526032608201P000060
100000000000000000000009077090006612500000000000000000000000010002100063064508201600000000002            2  01630645082010082000000003844110000000001N010820000000000000000000000000000000000000000000000000000000000000000100063064537849ANTONIO APARECIDO DA SILVA DESTEFANO    RUA PROFESSOR TEODORO BRAGA - 46 - VILA             02966020                                                            000062
2SR. CAIXA, APOS O VENCIMENTO COBRAR 10% DE MULTA                                NAO RECEBER APOS 30 DIAS DO VENCIMENTO.                                                                                                                                                                                                         01082000000000000000108200000000000000       0090770900066125630645082016000063
100000000000000000000009077090006612500000000000000000000000010002100010107708201100000000002            2  01101077082010082000000003683830000000001N010820000000000000000000000000000000000000000000000000000000000000000100010107711834VALDEMAR FECCHIO                        RUA DOUTOR MARTINS DE OLIVEIRA - 529 AP.            05638030                                                            000065
2SR. CAIXA, APOS O VENCIMENTO COBRAR 10% DE MULTA                                NAO RECEBER APOS 30 DIAS DO VENCIMENTO.                                                                                                                                                                                                         01082000000000000000108200000000000000       0090770900066125101077082011000066
100000000000000000000009077090006612500000000000000000000000010002100003330708201000000000002            2  01033307082010082000000004739010000000001N010820000000000000000000000000000000000000000000000000000000000000000100003330791837MARLI DA SILVA BARBOSA                  RUA GLICERIO CERQUEIRA LEITE - 151 - JAR            03675040                                                            000068
2SR. CAIXA, APOS O VENCIMENTO COBRAR 10% DE MULTA                                NAO RECEBER APOS 30 DIAS DO VENCIMENTO.                                                                                                                                                                                                         01082000000000000000108200000000000000       0090770900066125033307082010000069
100000000000000000000009077090006612500000000000000000000000010002100005920508201500000000002            2  01059205082010082000000002238060000000001N010820000000000000000000000000000000000000000000000000000000000000000100005920579846SONIA MARIA VALDO POLLO                 RUA PALMIRA CERVI BARBARO - 797 - CIDADE            13214370                                                            000071
2SR. CAIXA, APOS O VENCIMENTO COBRAR 10% DE MULTA                                NAO RECEBER APOS 30 DIAS DO VENCIMENTO.                                                                                                                                                                                                         01082000000000000000108200000000000000       0090770900066125059205082015000072
100000000000000000000009077090006612500000000000000000000000010002100002494108201600000000002            2  01024941082010082000000003365030000000001N010820000000000000000000000000000000000000000000000000000000000000000100002494107881CIRO FRANCISCO MARCHI DURIGON           RUA MONTE CASTELO - 262 AP.115 - AVIACAO            11702720                                                            000074
2SR. CAIXA, APOS O VENCIMENTO COBRAR 10% DE MULTA                                NAO RECEBER APOS 30 DIAS DO VENCIMENTO.                                                                                                                                                                                                         01082000000000000000108200000000000000       0090770900066125024941082016000075
100000000000000000000009077090006612500000000000000000000000010002100007002308201300000000002            2  01070023082010082000000003307980000000001N010820000000000000000000000000000000000000000000000000000000000000000100007002345869DOMINGOS DE BRITO GALVAO                RUA MONTE CASTELO - 262 AP.44 - AVIACAO             11702720                                                            000077
2SR. CAIXA, APOS O VENCIMENTO COBRAR 10% DE MULTA                                NAO RECEBER APOS 30 DIAS DO VENCIMENTO.                                                                                                                                                                                                         01082000000000000000108200000000000000       0090770900066125070023082013000078
100000000000000000000009077090006612500000000000000000000000010002100016299008201700000000002            2  01162990082010082000000003188910000000001N010820000000000000000000000000000000000000000000000000000000000000000100016299008857FERNANDO CESAR CARVALHO                 AVENIDA MARCONDES DE BRITO - 1340 AP.74             03509000                                                            000080
2SR. CAIXA, APOS O VENCIMENTO COBRAR 10% DE MULTA                                NAO RECEBER APOS 30 DIAS DO VENCIMENTO.                                                                                                                                                                                                         01082000000000000000108200000000000000       0090770900066125162990082017000081
100000000000000000000009077090006612500000000000000000000000010002100031082808201000000000002            2  01310828082010082000000003204360000000001N010820000000000000000000000000000000000000000000000000000000000000000100031082898880VANESSA DOS SANTOS NEIVA                RUA MONTE CASTELO - 296 AP.33 - BAIRRO A            11702720                                                            000083
2SR. CAIXA, APOS O VENCIMENTO COBRAR 10% DE MULTA                                NAO RECEBER APOS 30 DIAS DO VENCIMENTO.                                                                                                                                                                                                         01082000000000000000108200000000000000       0090770900066125310828082010000084
100000000000000000000009077090006612500000000000000000000000010002100065895308201000000000002            2  01658953082010082000000001950990000000001N010820000000000000000000000000000000000000000000000000000000000000000100065895304834MARINHO BARBOSA CUNHA                   AVENIDA EDU CHAVES - 639 AP.43 - PARQUE             02229000                                                            000086
2SR. CAIXA, APOS O VENCIMENTO COBRAR 10% DE MULTA                                NAO RECEBER APOS 30 DIAS DO VENCIMENTO.                                                                                                                                                                                                         01082000000000000000108200000000000000       0090770900066125658953082010000087
100000000000000000000009077090006612500000000000000000000000010002100055975308201800000000002            2  01559753082010082000000000728200000000001N010820000000000000000000000000000000000000000000000000000000000000000100055975372887BENEVENUTO THEODORO DA SILVA NETO       RUA MONTE CASTELO - 296 AP.63 - AVIACAO             11702720                                                            000089
2SR. CAIXA, APOS O VENCIMENTO COBRAR 10% DE MULTA                                NAO RECEBER APOS 30 DIAS DO VENCIMENTO.                                                                                                                                                                                                         01082000000000000000108200000000000000       0090770900066125559753082018000090
100000000000000000000009077090006612500000000000000000000000010002100055975308202600000000002            2  01559753082010082000000000728210000000001N010820000000000000000000000000000000000000000000000000000000000000000100055975372887BENEVENUTO THEODORO DA SILVA NETO       RUA MONTE CASTELO - 296 AP.63 - AVIACAO             11702720                                                            000092
2SR. CAIXA, APOS O VENCIMENTO COBRAR 10% DE MULTA                                NAO RECEBER APOS 30 DIAS DO VENCIMENTO.                                                                                                                                                                                                         01082000000000000000108200000000000000       0090770900066125559753082026000093
9                                                                                                                                                                                                                                                                                                                                                                                                         000094