01REMESSA01COBRANCA       00000000000005331186HB SANTOS CONSTRUTORA E INCORP237BRADESCO       011021        MX0000033                                                                                                                                                                                                                                                                                     000001
100000000000000000000009033990000995400000000000000000000000010002020026858610211200000000002            2  01268586102108102100000002684840000000001N011021000000000000000000000000000000000000000000000000000000000000000100026858625879GLAUCE FERREIRA DE OLIVEIRA FALSI       RUA LOURENCO ANTONIO BRAGANCA - 116 - JA            04403160                                                            000002
2SR. CAIXA, APOS O VENCIMENTO COBRAR 2% DE MULTA                                 NAO RECEBER APOS 30 DIAS DO VENCIMENTO.                                                                                                                                                                                                         01102100000000000000110210000000000000       0090339900009954268586102112000003
100000000000000000000009033990000995400000000000000000000000010002020016960810211300000000002            2  01169608102108102100000002563570000000001N011021000000000000000000000000000000000000000000000000000000000000000100016960804876LUIZ ALVES DE SOUZA JUNIOR              RUA FRANCISCO ALVES - 394 CASA B - PAECA            11450320                                                            000005
2SR. CAIXA, APOS O VENCIMENTO COBRAR 2% DE MULTA                                 NAO RECEBER APOS 30 DIAS DO VENCIMENTO.                                                                                                                                                                                                         01102100000000000000110210000000000000       0090339900009954169608102113000006
100000000000000000000009033990000995400000000000000000000000010002020008899310211000000000002            2  01088993102108102100000002546900000000001N011021000000000000000000000000000000000000000000000000000000000000000100008899362858ELAINE D ALMEIDA FERDINANDY             ALAMEDA SUBTENENTE AVIADOR FRANCISCO HIE            02187040                                                            000008
2SR. CAIXA, APOS O VENCIMENTO COBRAR 2% DE MULTA                                 NAO RECEBER APOS 30 DIAS DO VENCIMENTO.                                                                                                                                                                                                         01102100000000000000110210000000000000       0090339900009954088993102110000009
100000000000000000000009033990000995400000000000000000000000010002020029425010211500000000002            2  01294250102108102100000002553280000000001N011021000000000000000000000000000000000000000000000000000000000000000100029425027897FABIA DOS SANTOS DE ANDRADE             AVENIDA ALCIDES CANDIDO DOS SANTOS - 248            11705480                                                            000011
2SR. CAIXA, APOS O VENCIMENTO COBRAR 2% DE MULTA                                 NAO RECEBER APOS 30 DIAS DO VENCIMENTO.                                                                                                                                                                                                         01102100000000000000110210000000000000       0090339900009954294250102115000012
100000000000000000000009033990000995400000000000000000000000010002020078382710211000000000002            2  01783827102108102100000002580230000000001N011021000000000000000000000000000000000000000000000000000000000000000100078382700497JARMELINA BARBOSA DA SILVA              RUA OSCAR CINTRA GORDINHO - 211 AP.51 -             01512010                                                            000014
2SR. CAIXA, APOS O VENCIMENTO COBRAR 2% DE MULTA                                 NAO RECEBER APOS 30 DIAS DO VENCIMENTO.                                                                                                                                                                                                         01102100000000000000110210000000000000       0090339900009954783827102110000015
100000000000000000000009033990000995400000000000000000000000010002020007535310211P00000000002            2  01075353102108102100000002530230000000001N011021000000000000000000000000000000000000000000000000000000000000000100007535375839AINAILDE PEREIRA DE CASTRO OLIVETTO     TRAVESSA DORALINA ELIETE ADAO DA SILVA -            08021026                                                            000017
2SR. CAIXA, APOS O VENCIMENTO COBRAR 2% DE MULTA                                 NAO RECEBER APOS 30 DIAS DO VENCIMENTO.                                                                                                                                                                                                         01102100000000000000110210000000000000       009033990000995407535310211P000018
100000000000000000000009033990000995400000000000000000000000010002020028974210211700000000002            2  01289742102108102100000002503280000000001N011021000000000000000000000000000000000000000000000000000000000000000100028974233827MARISTELA FAVANI DE OLIVEIRA            RUA GIUSEPPE CARNEVALLI - 96 - BAIRRO BO            09572100                                                            000020
2SR. CAIXA, APOS O VENCIMENTO COBRAR 2% DE MULTA                                 NAO RECEBER APOS 30 DIAS DO VENCIMENTO.                                                                                                                                                                                                         01102100000000000000110210000000000000       0090339900009954289742102117000021
100000000000000000000009033990000995400000000000000000000000010002020092184810211400000000002            2  01921848102108102100000002469950000000001N011021000000000000000000000000000000000000000000000000000000000000000100092184804800CARMEM DO SOCORRO GUILHERME             ESTRADA SAO FRANCISCO - 1.850 AP.182A -             06765000                                                            000023
2SR. CAIXA, APOS O VENCIMENTO COBRAR 2% DE MULTA                                 NAO RECEBER APOS 30 DIAS DO VENCIMENTO.                                                                                                                                                                                                         01102100000000000000110210000000000000       0090339900009954921848102114000024
100000000000000000000009033990000995400000000000000000000000010002020092184810212200000000002            2  01921848102108102100000002469940000000001N011021000000000000000000000000000000000000000000000000000000000000000100092184804800CARMEM DO SOCORRO GUILHERME             ESTRADA SAO FRANCISCO - 1.850 AP.182A -             06765000                                                            000026
2SR. CAIXA, APOS O VENCIMENTO COBRAR 2% DE MULTA                                 NAO RECEBER APOS 30 DIAS DO VENCIMENTO.                                                                                                                                                                                                         01102100000000000000110210000000000000       0090339900009954921848102122000027
100000000000000000000009033990000995400000000000000000000000010002020009169710211400000000002            2  01091697102108102100000001980920000000001N011021000000000000000000000000000000000000000000000000000000000000000100009169701830TADEU CONSTANTINO LOPES                 RUA JOSE ANTONIO COELHO - 349 CASA 01 -             04011061                                                            000029
2SR. CAIXA, APOS O VENCIMENTO COBRAR 2% DE MULTA                                 NAO RECEBER APOS 30 DIAS DO VENCIMENTO.                                                                                                                                                                                                         01102100000000000000110210000000000000       0090339900009954091697102114000030
100000000000000000000009033990000995400000000000000000000000010002020042480110211200000000002            2  01424801102108102100000002519950000000001N011021000000000000000000000000000000000000000000000000000000000000000100042480155870JAMITRE SOIOMARA ALVES DO NASCIMENTO DAVRUA SERTANISTA GILBERTO PINTO FRANCISCO             11703440                                                            000032
2SR. CAIXA, APOS O VENCIMENTO COBRAR 2% DE MULTA                                 NAO RECEBER APOS 30 DIAS DO VENCIMENTO.                                                                                                                                                                                                         01102100000000000000110210000000000000       0090339900009954424801102112000033
100000000000000000000009033990000995400000000000000000000000010002020004611210211900000000002            2  01046112102108102100000002466260000000001N011021000000000000000000000000000000000000000000000000000000000000000100004611218830TANIA MARIA DA SILVA NUNES PEREIRA LUIZ RODOVIA RAPOSO TAVARES, 7389 KM 17,5 - A            05576200                                                            000035
2SR. CAIXA, APOS O VENCIMENTO COBRAR 2% DE MULTA                                 NAO RECEBER APOS 30 DIAS DO VENCIMENTO.                                                                                                                                                                                                         01102100000000000000110210000000000000       0090339900009954046112102119000036
100000000000000000000009033990000995400000000000000000000000010002020008966510211800000000002            2  01089665102108102100000002380920000000001N011021000000000000000000000000000000000000000000000000000000000000000100008966511856MONICA SILVA REIS                       RUA ORATORIO - 264 E FUNDOS - BANGU - SA            09280550                                                            000038
2SR. CAIXA, APOS O VENCIMENTO COBRAR 2% DE MULTA                                 NAO RECEBER APOS 30 DIAS DO VENCIMENTO.                                                                                                                                                                                                         01102100000000000000110210000000000000       0090339900009954089665102118000039
100000000000000000000009033990000995400000000000000000000000010002020036898610211600000000002            2  01368986102108102100000002397590000000001N011021000000000000000000000000000000000000000000000000000000000000000100036898609890GABRIEL FRANCHESCHI PALVO               SGAN 911,MODULO F, BLOCO A, GREEN PARK -            70790110                                                            000041
2SR. CAIXA, APOS O VENCIMENTO COBRAR 2% DE MULTA                                 NAO RECEBER APOS 30 DIAS DO VENCIMENTO.                                                                                                                                                                                                         01102100000000000000110210000000000000       0090339900009954368986102116000042
100000000000000000000009033990000995400000000000000000000000010002020001356910211900000000002            2  01013569102108102100000002557450000000001N011021000000000000000000000000000000000000000000000000000000000000000100001356993800DALVA MARIA DOS SANTOS                  RUA SOLDADO CESARIO AGUIAR - 30 - VILA G            07070050                                                            000044
2SR. CAIXA, APOS O VENCIMENTO COBRAR 2% DE MULTA                                 NAO RECEBER APOS 30 DIAS DO VENCIMENTO.                                                                                                                                                                                                         01102100000000000000110210000000000000       0090339900009954013569102119000045
100000000000000000000009033990000995400000000000000000000000010002020024615510211100000000002            2  01246155102108102100000002916670000000001N011021000000000000000000000000000000000000000000000000000000000000000100024615557884GILBERTO JOSE GONSALES                  RUA DOS GOYTACAZES - 447 AP.206 BL.2 - C            28013266                                                            000047
2SR. CAIXA, APOS O VENCIMENTO COBRAR 2% DE MULTA                                 NAO RECEBER APOS 30 DIAS DO VENCIMENTO.                                                                                                                                                                                                         01102100000000000000110210000000000000       0090339900009954246155102111000048
100000000000000000000009033990000995400000000000000000000000010002020052623110211000000000002            2  01526231102108102100000002183460000000001N011021000000000000000000000000000000000000000000000000000000000000000100052623130515MARCOS ROBERTO DE SANTANA               RUA GUARANI - 57 - BAIRRO OLIMPICO - SAO            09540510                                                            000050
2SR. CAIXA, APOS O VENCIMENTO COBRAR 2% DE MULTA                                 NAO RECEBER APOS 30 DIAS DO VENCIMENTO.                                                                                                                                                                                                         01102100000000000000110210000000000000       0090339900009954526231102110000051
100000000000000000000009033990000995400000000000000000000000010002020008878810211600000000002            2  01088788102108102100000002804970000000001N011021000000000000000000000000000000000000000000000000000000000000000100008878832812LUIZ ANTONIO DE OLIVEIRA                RUA TORRINHA - 220 AP.132 - BAIRRO TATUA            03332010                                                            000053
2SR. CAIXA, APOS O VENCIMENTO COBRAR 2% DE MULTA                                 NAO RECEBER APOS 30 DIAS DO VENCIMENTO.                                                                                                                                                                                                         01102100000000000000110210000000000000       0090339900009954088788102116000054
100000000000000000000009033990000995400000000000000000000000010002020031473710211100000000002            2  01314737102108102100000002061630000000001N011021000000000000000000000000000000000000000000000000000000000000000100031473799813MURIEL DA SILVA DE MOURA SOUZA          RUA CAPITAO PAULINO FREIRE - 300 AP.014             08717100                                                            000056
2SR. CAIXA, APOS O VENCIMENTO COBRAR 2% DE MULTA                                 NAO RECEBER APOS 30 DIAS DO VENCIMENTO.                                                                                                                                                                                                         01102100000000000000110210000000000000       0090339900009954314737102111000057
100000000000000000000009033990000995400000000000000000000000010002020036949510211000000000002            2  01369495102108102100000002729300000000001N011021000000000000000000000000000000000000000000000000000000000000000100036949505833FELIPE APARECIDO DOS SANTOS             RUA DAS MIMOSAS - 67 CASA 09 - VILA LUCI            03144010                                                            000059
2SR. CAIXA, APOS O VENCIMENTO COBRAR 2% DE MULTA                                 NAO RECEBER APOS 30 DIAS DO VENCIMENTO.                                                                                                                                                                                                         01102100000000000000110210000000000000       0090339900009954369495102110000060
9                                                                                                                                                                                                                                                                                                                                                                                                         000061