01REMESSA01COBRANCA       00000000000008017025HB SANTOS CONSTRUTORA E INCORP237BRADESCO       050520        MX0000104                                                                                                                                                                                                                                                                                     000001
100000000000000000000009033990000627000000000000000000000000010002020092180205202300000000002            2  01921802052024052000000003628000000000001N050520000000000000000000000000000000000000000000000000000000000000000100092180299834LUIS ROBERTO DE SA DUARTE               RUA TEBAS - 296 AP.84 BLOCO 2 CE - JARDI            04634031                                                            000002
2SR. CAIXA, APOS O VENCIMENTO COBRAR 2% DE MULTA                                 NAO RECEBER APOS 30 DIAS DO VENCIMENTO.                                                                                                                                                                                                         05052000000000000000505200000000000000       0090339900006270921802052023000003
100000000000000000000009033990000627000000000000000000000000010002020092180205203100000000002            2  01921802052024052000000003628010000000001N050520000000000000000000000000000000000000000000000000000000000000000100092180299834LUIS ROBERTO DE SA DUARTE               RUA TEBAS - 296 AP.84 BLOCO 2 CE - JARDI            04634031                                                            000005
2SR. CAIXA, APOS O VENCIMENTO COBRAR 2% DE MULTA                                 NAO RECEBER APOS 30 DIAS DO VENCIMENTO.                                                                                                                                                                                                         05052000000000000000505200000000000000       0090339900006270921802052031000006
100000000000000000000009033990000627000000000000000000000000010002020092180205204P00000000002            2  01921802052024052000000003628020000000001N050520000000000000000000000000000000000000000000000000000000000000000100092180299834LUIS ROBERTO DE SA DUARTE               RUA TEBAS - 296 AP.84 BLOCO 2 CE - JARDI            04634031                                                            000008
2SR. CAIXA, APOS O VENCIMENTO COBRAR 2% DE MULTA                                 NAO RECEBER APOS 30 DIAS DO VENCIMENTO.                                                                                                                                                                                                         05052000000000000000505200000000000000       009033990000627092180205204P000009
100000000000000000000009033990000627000000000000000000000000010002020092180205205800000000002            2  01921802052024052000000003628030000000001N050520000000000000000000000000000000000000000000000000000000000000000100092180299834LUIS ROBERTO DE SA DUARTE               RUA TEBAS - 296 AP.84 BLOCO 2 CE - JARDI            04634031                                                            000011
2SR. CAIXA, APOS O VENCIMENTO COBRAR 2% DE MULTA                                 NAO RECEBER APOS 30 DIAS DO VENCIMENTO.                                                                                                                                                                                                         05052000000000000000505200000000000000       0090339900006270921802052058000012
100000000000000000000009033990000627000000000000000000000000010002020092180205206600000000002            2  01921802052024052000000003628040000000001N050520000000000000000000000000000000000000000000000000000000000000000100092180299834LUIS ROBERTO DE SA DUARTE               RUA TEBAS - 296 AP.84 BLOCO 2 CE - JARDI            04634031                                                            000014
2SR. CAIXA, APOS O VENCIMENTO COBRAR 2% DE MULTA                                 NAO RECEBER APOS 30 DIAS DO VENCIMENTO.                                                                                                                                                                                                         05052000000000000000505200000000000000       0090339900006270921802052066000015
9                                                                                                                                                                                                                                                                                                                                                                                                         000016