01REMESSA01COBRANCA       00000000000004991786AIRES DESENVOLVIMENTO IMOBILIA237BRADESCO       130217        MX0000003                                                                                                                                                                                                                                                                                     000001
100000000000000000000009077090011102300000000000000000000000010002100026778102112000000000002            2  01267781021116021700000000020740000000099N130217000000000000000000000000000000000000000000000000000000000000000100002252149892AIRES MOTA                              AV. BRASIL - 600 - BOQUEIRAO - PRAIA GRA            11701090                                                            000002
2SR. CAIXA, APOS O VENCIMENTO COBRAR 10% DE MULTA                                NAO RECEBER APOS 30 DIAS DO VENCIMENTO.                                                                                                                                                                                                         13021700000000000001302170000000000000       0090770900111023267781021120000003
9                                                                                                                                                                                                                                                                                                                                                                                                         000004