01REMESSA01COBRANCA       00000000000005331186HB SANTOS CONSTRUTORA E INCORP237BRADESCO       011021        MX0000034                                                                                                                                                                                                                                                                                     000001
100000000000000000000009033990000995400000000000000000000000010002020005723210211400000000002            2  01057232102123102100000002627960000000001N011021000000000000000000000000000000000000000000000000000000000000000100005723255843FRANCISCO DE ASSIS DA SILVA             PRACA NICOLAU GERAIGIRE - 25 VISOR - JAR            11095110                                                            000002
2SR. CAIXA, APOS O VENCIMENTO COBRAR 2% DE MULTA                                 NAO RECEBER APOS 30 DIAS DO VENCIMENTO.                                                                                                                                                                                                         01102100000000000000110210000000000000       0090339900009954057232102114000003
100000000000000000000009033990000995400000000000000000000000010002020004928110211900000000002            2  01049281102123102100000002569950000000001N011021000000000000000000000000000000000000000000000000000000000000000100004928157800ADEMIR APARECIDO ANTUNES                RUA JAIME TAVEIRA - 91 AP.056 B - CHACAR            03732060                                                            000005
2SR. CAIXA, APOS O VENCIMENTO COBRAR 2% DE MULTA                                 NAO RECEBER APOS 30 DIAS DO VENCIMENTO.                                                                                                                                                                                                         01102100000000000000110210000000000000       0090339900009954049281102119000006
100000000000000000000009033990000995400000000000000000000000010002020011238010211600000000002            2  01112380102123102100000002536620000000001N011021000000000000000000000000000000000000000000000000000000000000000100011238052886SOLANGE DIAS DE SOUZA ROMANO            AVENIDA DR. ALTINO ARANTES - 865 AP.132             04042034                                                            000008
2SR. CAIXA, APOS O VENCIMENTO COBRAR 2% DE MULTA                                 NAO RECEBER APOS 30 DIAS DO VENCIMENTO.                                                                                                                                                                                                         01102100000000000000110210000000000000       0090339900009954112380102116000009
100000000000000000000009033990000995400000000000000000000000010002020032589110211800000000002            2  01325891102123102100000002486620000000001N011021000000000000000000000000000000000000000000000000000000000000000100032589165862RENATA ISABEL MARTINS SILVA             RUA HERCULANO DE FREITAS - 257 - FUNDACA            09520280                                                            000011
2SR. CAIXA, APOS O VENCIMENTO COBRAR 2% DE MULTA                                 NAO RECEBER APOS 30 DIAS DO VENCIMENTO.                                                                                                                                                                                                         01102100000000000000110210000000000000       0090339900009954325891102118000012
100000000000000000000009033990000995400000000000000000000000010002020088339310211100000000002            2  01883393102123102100000002513560000000001N011021000000000000000000000000000000000000000000000000000000000000000100088339319868MARCIA SIQUEIRA MELLO                   RUA ADELINO ALVES - 81 - SANTO AMARO - S            04710120                                                            000014
2SR. CAIXA, APOS O VENCIMENTO COBRAR 2% DE MULTA                                 NAO RECEBER APOS 30 DIAS DO VENCIMENTO.                                                                                                                                                                                                         01102100000000000000110210000000000000       0090339900009954883393102111000015
100000000000000000000009033990000995400000000000000000000000010002020088339310212P00000000002            2  01883393102123102100000002513550000000001N011021000000000000000000000000000000000000000000000000000000000000000100088339319868MARCIA SIQUEIRA MELLO                   RUA ADELINO ALVES - 81 - SANTO AMARO - S            04710120                                                            000017
2SR. CAIXA, APOS O VENCIMENTO COBRAR 2% DE MULTA                                 NAO RECEBER APOS 30 DIAS DO VENCIMENTO.                                                                                                                                                                                                         01102100000000000000110210000000000000       009033990000995488339310212P000018
100000000000000000000009033990000995400000000000000000000000010002020046391210211700000000002            2  01463912102123102100000002607460000000001N011021000000000000000000000000000000000000000000000000000000000000000100046391265810PAMELLA RODRIGUES DE OLIVEIRA           RUA AUGUSTA - 183 AP.301 BL.2A - VILA AU            07025130                                                            000020
2SR. CAIXA, APOS O VENCIMENTO COBRAR 2% DE MULTA                                 NAO RECEBER APOS 30 DIAS DO VENCIMENTO.                                                                                                                                                                                                         01102100000000000000110210000000000000       0090339900009954463912102117000021
100000000000000000000009033990000995400000000000000000000000010002020027964510211500000000002            2  01279645102123102100000001590790000000001N011021000000000000000000000000000000000000000000000000000000000000000100027964512838FABIO TADEU DE CAMPOS RADZIAVICIUS      AV.PROF.LUIZ IGNACIO ANHAIA MELLO - 2.58            03154100                                                            000023
2SR. CAIXA, APOS O VENCIMENTO COBRAR 2% DE MULTA                                 NAO RECEBER APOS 30 DIAS DO VENCIMENTO.                                                                                                                                                                                                         01102100000000000000110210000000000000       0090339900009954279645102115000024
100000000000000000000009033990000995400000000000000000000000010002020011498310211300000000002            2  01114983102123102100000001941050000000001N011021000000000000000000000000000000000000000000000000000000000000000100011498329837GERSON GERALDO DAS NEVES                RUA DOMINGOS DELGADO - 144 - VILA SOUZA             02881070                                                            000026
2SR. CAIXA, APOS O VENCIMENTO COBRAR 2% DE MULTA                                 NAO RECEBER APOS 30 DIAS DO VENCIMENTO.                                                                                                                                                                                                         01102100000000000000110210000000000000       0090339900009954114983102113000027
100000000000000000000009033990000995400000000000000000000000010002020068875610211100000000002            2  01688756102123102100000002574130000000001N011021000000000000000000000000000000000000000000000000000000000000000100068875673691ILDETE BATISTA NEIVA GOLFAR             RUA MARECHAL MAURICIO JOSE CARDOSO - 230            11700140                                                            000029
2SR. CAIXA, APOS O VENCIMENTO COBRAR 2% DE MULTA                                 NAO RECEBER APOS 30 DIAS DO VENCIMENTO.                                                                                                                                                                                                         01102100000000000000110210000000000000       0090339900009954688756102111000030
100000000000000000000009033990000995400000000000000000000000010002020000884210211500000000002            2  01008842102123102100000002364260000000001N011021000000000000000000000000000000000000000000000000000000000000000100000884239802ADEMIR MARTINS                          RUA CAIRO - 221 - VILA METALURGICA - SAN            09220170                                                            000032
2SR. CAIXA, APOS O VENCIMENTO COBRAR 2% DE MULTA                                 NAO RECEBER APOS 30 DIAS DO VENCIMENTO.                                                                                                                                                                                                         01102100000000000000110210000000000000       0090339900009954008842102115000033
100000000000000000000009033990000995400000000000000000000000010002020025214410211P00000000002            2  01252144102123102100000002297600000000001N011021000000000000000000000000000000000000000000000000000000000000000100025214401833JOSE MAURICIO DOS SANTOS RODRIGUES      RUA JOAO DE MACEDO RIBEIRO - 49 - VILA N            08111101                                                            000035
2SR. CAIXA, APOS O VENCIMENTO COBRAR 2% DE MULTA                                 NAO RECEBER APOS 30 DIAS DO VENCIMENTO.                                                                                                                                                                                                         01102100000000000000110210000000000000       009033990000995425214410211P000036
100000000000000000000009033990000995400000000000000000000000010002020033119110211700000000002            2  01331191102123102100000002307330000000001N011021000000000000000000000000000000000000000000000000000000000000000100033119178802HUGO GOMES VENDRAME                     RUA SAO PAULO - 60 CASA 01 - VILA FREITA            06380110                                                            000038
2SR. CAIXA, APOS O VENCIMENTO COBRAR 2% DE MULTA                                 NAO RECEBER APOS 30 DIAS DO VENCIMENTO.                                                                                                                                                                                                         01102100000000000000110210000000000000       0090339900009954331191102117000039
100000000000000000000009033990000995400000000000000000000000010002020016631510211P00000000002            2  01166315102123102100000002347590000000001N011021000000000000000000000000000000000000000000000000000000000000000100016631587468GILBERTO BEZERRA DA SILVA               AVENIDA JAIME TORRES - 745 CASA 3 - JARD            03670000                                                            000041
2SR. CAIXA, APOS O VENCIMENTO COBRAR 2% DE MULTA                                 NAO RECEBER APOS 30 DIAS DO VENCIMENTO.                                                                                                                                                                                                         01102100000000000000110210000000000000       009033990000995416631510211P000042
100000000000000000000009033990000995400000000000000000000000010002020007313210211200000000002            2  01073132102123102100000002330920000000001N011021000000000000000000000000000000000000000000000000000000000000000100007313251840SALVADOR GESUALDO PULVIRENTI            AVENIDA MARARI - 641 - VILA MARARI - SAO            04402010                                                            000044
2SR. CAIXA, APOS O VENCIMENTO COBRAR 2% DE MULTA                                 NAO RECEBER APOS 30 DIAS DO VENCIMENTO.                                                                                                                                                                                                         01102100000000000000110210000000000000       0090339900009954073132102112000045
100000000000000000000009033990000995400000000000000000000000010002020010676710211400000000002            2  01106767102123102100000002432930000000001N011021000000000000000000000000000000000000000000000000000000000000000100010676723896MERCEDES CRISTINA ROCHA SANDOVAL        RUA ITARARE - 446 AP.806 - JARDIM GUILHE            11701620                                                            000047
2SR. CAIXA, APOS O VENCIMENTO COBRAR 2% DE MULTA                                 NAO RECEBER APOS 30 DIAS DO VENCIMENTO.                                                                                                                                                                                                         01102100000000000000110210000000000000       0090339900009954106767102114000048
100000000000000000000009033990000995400000000000000000000000010002020009502810211200000000002            2  01095028102123102100000002540790000000001N011021000000000000000000000000000000000000000000000000000000000000000100009502844831CLAUDIA ROCHA SANDOVAL                  RUA ABAETE - 29.153 - VILA TUPI - PRAIA             11703490                                                            000050
2SR. CAIXA, APOS O VENCIMENTO COBRAR 2% DE MULTA                                 NAO RECEBER APOS 30 DIAS DO VENCIMENTO.                                                                                                                                                                                                         01102100000000000000110210000000000000       0090339900009954095028102112000051
100000000000000000000009033990000995400000000000000000000000010002020007594210211100000000002            2  01075942102123102100000002280930000000001N011021000000000000000000000000000000000000000000000000000000000000000100007594247809JOSE LUIS DE OLIVEIRA                   DONA EGLANTINA PENTEADO DA SILVA PRADO -            13044162                                                            000053
2SR. CAIXA, APOS O VENCIMENTO COBRAR 2% DE MULTA                                 NAO RECEBER APOS 30 DIAS DO VENCIMENTO.                                                                                                                                                                                                         01102100000000000000110210000000000000       0090339900009954075942102111000054
100000000000000000000009033990000995400000000000000000000000010002020005288710211500000000002            2  01052887102123102100000002349600000000001N011021000000000000000000000000000000000000000000000000000000000000000100005288796858MARCELO RODRIGUES FERREIRA              RUA MARCOS ANTONIO MARQUES - 302 - JARDI            06433020                                                            000056
2SR. CAIXA, APOS O VENCIMENTO COBRAR 2% DE MULTA                                 NAO RECEBER APOS 30 DIAS DO VENCIMENTO.                                                                                                                                                                                                         01102100000000000000110210000000000000       0090339900009954052887102115000057
100000000000000000000009033990000995400000000000000000000000010002020015835910211400000000002            2  01158359102123102100000002446770000000001N011021000000000000000000000000000000000000000000000000000000000000000100015835992823FLAVIO VERONEZ                          RUA ANDREA PAULINETTI - 127 AP.42 - BAIR            04707050                                                            000059
2SR. CAIXA, APOS O VENCIMENTO COBRAR 2% DE MULTA                                 NAO RECEBER APOS 30 DIAS DO VENCIMENTO.                                                                                                                                                                                                         01102100000000000000110210000000000000       0090339900009954158359102114000060
100000000000000000000009033990000995400000000000000000000000010002020000438110211200000000002            2  01004381102123102100000002761740000000001N011021000000000000000000000000000000000000000000000000000000000000000100000438161858WAGNECY VILLA NOVA LIEN                 MACHADO - 106 - VILA AUGUSTA - GUARULHOS            07025210                                                            000062
2SR. CAIXA, APOS O VENCIMENTO COBRAR 2% DE MULTA                                 NAO RECEBER APOS 30 DIAS DO VENCIMENTO.                                                                                                                                                                                                         01102100000000000000110210000000000000       0090339900009954004381102112000063
100000000000000000000009033990000995400000000000000000000000010002020026004510211900000000002            2  01260045102123102100000002446810000000001N011021000000000000000000000000000000000000000000000000000000000000000100026004595888EDIVALDO BEZERRA DA SILVA               AVENIDA GUATEMALA - 550 - JARDIM PINHEIR            09854750                                                            000065
2SR. CAIXA, APOS O VENCIMENTO COBRAR 2% DE MULTA                                 NAO RECEBER APOS 30 DIAS DO VENCIMENTO.                                                                                                                                                                                                         01102100000000000000110210000000000000       0090339900009954260045102119000066
100000000000000000000009033990000995400000000000000000000000010002020012470710211300000000002            2  01124707102123102100000002610560000000001N011021000000000000000000000000000000000000000000000000000000000000000100012470771870HILTON FERNANDES OLIVARES               RUA PATIO DA ESTACAO - 115 - BAIRRO CENT            09450000                                                            000068
2SR. CAIXA, APOS O VENCIMENTO COBRAR 2% DE MULTA                                 NAO RECEBER APOS 30 DIAS DO VENCIMENTO.                                                                                                                                                                                                         01102100000000000000110210000000000000       0090339900009954124707102113000069
100000000000000000000009033990000995400000000000000000000000010002020014025410211200000000002            2  01140254102123102100000002862420000000001N011021000000000000000000000000000000000000000000000000000000000000000100014025420899ANDREIA APARECIDA TAVARES BASTOS        RUA IBATIBA - 234 CASA 27 - RES.BOUGANVI            09220608                                                            000071
2SR. CAIXA, APOS O VENCIMENTO COBRAR 2% DE MULTA                                 NAO RECEBER APOS 30 DIAS DO VENCIMENTO.                                                                                                                                                                                                         01102100000000000000110210000000000000       0090339900009954140254102112000072
100000000000000000000009033990000995400000000000000000000000010002020018590010211100000000002            2  01185900102123102100000010000000000000001N011021000000000000000000000000000000000000000000000000000000000000000100018590038858JOSE SANDRO ROCHA SILVA                 RUA SANTO ANTONIO DO AVENTUREIRO - 216 A            07143040                                                            000074
2SR. CAIXA, APOS O VENCIMENTO COBRAR 2% DE MULTA                                 NAO RECEBER APOS 30 DIAS DO VENCIMENTO.                                                                                                                                                                                                         01102100000000000000110210000000000000       0090339900009954185900102111000075
100000000000000000000009033990000995400000000000000000000000010002020018590010212P00000000002            2  01185900102123102100000002592340000000001N011021000000000000000000000000000000000000000000000000000000000000000100018590038858JOSE SANDRO ROCHA SILVA                 RUA SANTO ANTONIO DO AVENTUREIRO - 216 A            07143040                                                            000077
2SR. CAIXA, APOS O VENCIMENTO COBRAR 2% DE MULTA                                 NAO RECEBER APOS 30 DIAS DO VENCIMENTO.                                                                                                                                                                                                         01102100000000000000110210000000000000       009033990000995418590010212P000078
100000000000000000000009033990000995400000000000000000000000010002020088578710211P00000000002            2  01885787102123102100000002133110000000001N011021000000000000000000000000000000000000000000000000000000000000000100088578704800GILBERTO DO ESPIRITO SANTO SILVA        RUA GUARANY - 697 CASA 01 - PARQUE SAO V            11360000                                                            000080
2SR. CAIXA, APOS O VENCIMENTO COBRAR 2% DE MULTA                                 NAO RECEBER APOS 30 DIAS DO VENCIMENTO.                                                                                                                                                                                                         01102100000000000000110210000000000000       009033990000995488578710211P000081
100000000000000000000009033990000995400000000000000000000000010002020015378210211000000000002            2  01153782102123102100000003187500000000001N011021000000000000000000000000000000000000000000000000000000000000000100015378295807SERGIO FERNANDES                        RUA VALDEMAR MARTINS - 116 AP.115 - BAIR            02535000                                                            000083
2SR. CAIXA, APOS O VENCIMENTO COBRAR 2% DE MULTA                                 NAO RECEBER APOS 30 DIAS DO VENCIMENTO.                                                                                                                                                                                                         01102100000000000000110210000000000000       0090339900009954153782102110000084
100000000000000000000009033990000995400000000000000000000000010002020020792710211700000000002            2  01207927102123102100000002644830000000001N011021000000000000000000000000000000000000000000000000000000000000000120792791000147TROVAO COMERCIO DE ALIMENTOS LTDA-ME    RUA QUINTA DA MAGNOLIA - 67 - JARDIM IPA            03582100                                                            000086
2SR. CAIXA, APOS O VENCIMENTO COBRAR 2% DE MULTA                                 NAO RECEBER APOS 30 DIAS DO VENCIMENTO.                                                                                                                                                                                                         01102100000000000000110210000000000000       0090339900009954207927102117000087
100000000000000000000009033990000995400000000000000000000000010002020007648110211000000000002            2  01076481102123102100000002483540000000001N011021000000000000000000000000000000000000000000000000000000000000000100007648112825MARA REGINA CAPRIO                      RUA DA TRINDADE - 790 - VILA IDEAL - SAO            15060280                                                            000089
2SR. CAIXA, APOS O VENCIMENTO COBRAR 2% DE MULTA                                 NAO RECEBER APOS 30 DIAS DO VENCIMENTO.                                                                                                                                                                                                         01102100000000000000110210000000000000       0090339900009954076481102110000090
9                                                                                                                                                                                                                                                                                                                                                                                                         000091