01REMESSA01COBRANCA       00000000000004991454AIRES CONSTRUTORA E INCORPORAD237BRADESCO       100217        MX0000065                                                                                                                                                                                                                                                                                     000001
100000000000000000000009077090001674800000000000000000000000010002100026677193248P00000000002            2  01266771932419021700000000008990000000099N100217000000000000000000000000000000000000000000000000000000000000000100002252149892AIRES MOTA DOS SANTOS                   AVENIDA BRASIL - 600 - AVIACAO - PRAIA G            11701090                                                            000002
2SR. CAIXA, APOS O VENCIMENTO COBRAR 10% DE MULTA                                NAO RECEBER APOS 30 DIAS DO VENCIMENTO.                                                                                                                                                                                                         10021700000000000001002170000000000000       009077090001674826677193248P000003
9                                                                                                                                                                                                                                                                                                                                                                                                         000004