01REMESSA01COBRANCA       00000000000004991454AIRES CONSTRUTORA E INCORPORAD237BRADESCO       011217        MX0000078                                                                                                                                                                                                                                                                                     000001
100000000000000000000009077090001674800000000000000000000000010002100094852212171800000000002            2  01948522121710121700000009195830000000001N011217000000000000000000000000000000000000000000000000000000000000000100094852294887GISELDA MENON                           RUA OTAVIO BARRETO - 105 - VILA SANTISTA            02560080                                                            000002
2SR. CAIXA, APOS O VENCIMENTO COBRAR 10% DE MULTA                                NAO RECEBER APOS 30 DIAS DO VENCIMENTO.                                                                                                                                                                                                         01121700000000000000112170000000000000       0090770900016748948522121718000003
100000000000000000000009077090001674800000000000000000000000010002100094852212172600000000002            2  01948522121710121700000002138030000000001N011217000000000000000000000000000000000000000000000000000000000000000100094852294887GISELDA MENON                           RUA OTAVIO BARRETO - 105 - VILA SANTISTA            02560080                                                            000005
2SR. CAIXA, APOS O VENCIMENTO COBRAR 10% DE MULTA                                NAO RECEBER APOS 30 DIAS DO VENCIMENTO.                                                                                                                                                                                                         01121700000000000000112170000000000000       0090770900016748948522121726000006
100000000000000000000009077090001674800000000000000000000000010002100006485912171400000000002            2  01064859121710121700000003279040000000001N011217000000000000000000000000000000000000000000000000000000000000000100006485911820CELIO MANUEL  MELIM SANTO               RUA JUVENAL FERREIRA  - 85 AP.61 - VILA             03512040                                                            000008
2SR. CAIXA, APOS O VENCIMENTO COBRAR 10% DE MULTA                                NAO RECEBER APOS 30 DIAS DO VENCIMENTO.                                                                                                                                                                                                         01121700000000000000112170000000000000       0090770900016748064859121714000009
100000000000000000000009077090001674800000000000000000000000010002100004693812171300000000002            2  01046938121710121700000002857930000000001N011217000000000000000000000000000000000000000000000000000000000000000100004693857823NIVALDO BARTOLOMEU FERREIRA             MNS JOSE MARINONI  - 33 - SANTO AMARO -             04430350                                                            000011
2SR. CAIXA, APOS O VENCIMENTO COBRAR 10% DE MULTA                                NAO RECEBER APOS 30 DIAS DO VENCIMENTO.                                                                                                                                                                                                         01121700000000000000112170000000000000       0090770900016748046938121713000012
100000000000000000000009077090001674800000000000000000000000010002100027993112171200000000002            2  01279931121710121700000002721390000000001N011217000000000000000000000000000000000000000000000000000000000000000100027993108853DALVA JESUS RODRIGUES CABRAL            RUA CRISTOVAO COLOMBO GONCALVES - 97 - C            04811050                                                            000014
2SR. CAIXA, APOS O VENCIMENTO COBRAR 10% DE MULTA                                NAO RECEBER APOS 30 DIAS DO VENCIMENTO.                                                                                                                                                                                                         01121700000000000000112170000000000000       0090770900016748279931121712000015
100000000000000000000009077090001674800000000000000000000000010002100000455412171100000000002            2  01004554121710121700000002826890000000001N011217000000000000000000000000000000000000000000000000000000000000000100000455495831PAULO HENRIQUE LOURENCO                 RUA FIGUEIRA  - 237 - CIDADE DAS FLORES             06184060                                                            000017
2SR. CAIXA, APOS O VENCIMENTO COBRAR 10% DE MULTA                                NAO RECEBER APOS 30 DIAS DO VENCIMENTO.                                                                                                                                                                                                         01121700000000000000112170000000000000       0090770900016748004554121711000018
100000000000000000000009077090001674800000000000000000000000010002100006140012171200000000002            2  01061400121710121700000003505750000000001N011217000000000000000000000000000000000000000000000000000000000000000100006140049857MARIA ALBANI DA SILVA EUSEBIO           RUA ORLANDO SEGALA - 108 - JARDIM ADRIAN            07135190                                                            000020
2SR. CAIXA, APOS O VENCIMENTO COBRAR 10% DE MULTA                                NAO RECEBER APOS 30 DIAS DO VENCIMENTO.                                                                                                                                                                                                         01121700000000000000112170000000000000       0090770900016748061400121712000021
100000000000000000000009077090001674800000000000000000000000010002100002324712171700000000002            2  01023247121710121700000003437770000000001N011217000000000000000000000000000000000000000000000000000000000000000100002324785897IZILDA NAPOLI                           RUA MONTE CASTELO - 295 AP.71 - AVIACAO             11702720                                                            000023
2SR. CAIXA, APOS O VENCIMENTO COBRAR 10% DE MULTA                                NAO RECEBER APOS 30 DIAS DO VENCIMENTO.                                                                                                                                                                                                         01121700000000000000112170000000000000       0090770900016748023247121717000024
100000000000000000000009077090001674800000000000000000000000010002100007768712171100000000002            2  01077687121710121700000003561240000000001N011217000000000000000000000000000000000000000000000000000000000000000100007768713826FATIMA LUZIA BIANCHI                    DR. OLIDAIR AMBROSIO - 1487 AP.03 - CENT            14160170                                                            000026
2SR. CAIXA, APOS O VENCIMENTO COBRAR 10% DE MULTA                                NAO RECEBER APOS 30 DIAS DO VENCIMENTO.                                                                                                                                                                                                         01121700000000000000112170000000000000       0090770900016748077687121711000027
100000000000000000000009077090001674800000000000000000000000010002100021716812171900000000002            2  01217168121710121700000003508370000000001N011217000000000000000000000000000000000000000000000000000000000000000100021716847800DANIELLE FAGUNDES DE A.MATOS            CONDE MOREIRA LIMA - 644 - JARDIM JABAQU            04384032                                                            000029
2SR. CAIXA, APOS O VENCIMENTO COBRAR 10% DE MULTA                                NAO RECEBER APOS 30 DIAS DO VENCIMENTO.                                                                                                                                                                                                         01121700000000000000112170000000000000       0090770900016748217168121719000030
100000000000000000000009077090001674800000000000000000000000010002100085416912171200000000002            2  01854169121710121700000002974100000000001N011217000000000000000000000000000000000000000000000000000000000000000100085416940891ANTONIO DE SOUSA MENDES                 RUA MONTE CASTELO - 296 AP.52 - AVIACAO             11702720                                                            000032
2SR. CAIXA, APOS O VENCIMENTO COBRAR 10% DE MULTA                                NAO RECEBER APOS 30 DIAS DO VENCIMENTO.                                                                                                                                                                                                         01121700000000000000112170000000000000       0090770900016748854169121712000033
100000000000000000000009077090001674800000000000000000000000010002100005678012171600000000002            2  01056780121710121700000003097480000000001N011217000000000000000000000000000000000000000000000000000000000000000100005678057863FABIO MOREIRA CAMPOS                    RUA FLORENCIO DA SILVA - 284 - VILA LIBA            03738070                                                            000035
2SR. CAIXA, APOS O VENCIMENTO COBRAR 10% DE MULTA                                NAO RECEBER APOS 30 DIAS DO VENCIMENTO.                                                                                                                                                                                                         01121700000000000000112170000000000000       0090770900016748056780121716000036
100000000000000000000009077090001674800000000000000000000000010002100007784412171200000000002            2  01077844121710121700000003127730000000001N011217000000000000000000000000000000000000000000000000000000000000000100007784496885GUILHERME LEONARDO DO NASCIMENTO        COMENDADOR RUBENS RONCARE - 127 - PONTE             11530120                                                            000038
2SR. CAIXA, APOS O VENCIMENTO COBRAR 10% DE MULTA                                NAO RECEBER APOS 30 DIAS DO VENCIMENTO.                                                                                                                                                                                                         01121700000000000000112170000000000000       0090770900016748077844121712000039
100000000000000000000009077090001674800000000000000000000000010002100016348212171200000000002            2  01163482121710121700000003021830000000001N011217000000000000000000000000000000000000000000000000000000000000000100016348237885AILTON LORENA                           AVENIDA BRASILIA - 194 - BELA VISTA - SA            09180260                                                            000041
2SR. CAIXA, APOS O VENCIMENTO COBRAR 10% DE MULTA                                NAO RECEBER APOS 30 DIAS DO VENCIMENTO.                                                                                                                                                                                                         01121700000000000000112170000000000000       0090770900016748163482121712000042
100000000000000000000009077090001674800000000000000000000000010002100081218412171600000000002            2  01812184121710121700000002916430000000001N011217000000000000000000000000000000000000000000000000000000000000000100081218486953OSMAR DA COSTA                          RUA MONTE CASTELO - 295 AP.33 - AVIACAO             11702720                                                            000044
2SR. CAIXA, APOS O VENCIMENTO COBRAR 10% DE MULTA                                NAO RECEBER APOS 30 DIAS DO VENCIMENTO.                                                                                                                                                                                                         01121700000000000000112170000000000000       0090770900016748812184121716000045
100000000000000000000009077090001674800000000000000000000000010002100004981812171900000000002            2  01049818121710121700000003312530000000001N011217000000000000000000000000000000000000000000000000000000000000000100004981884850SILVIO PAULINO GONCALVES                MARIA DE CASTRO MESQUITA - 84 AP.103 BLO            07110040                                                            000047
2SR. CAIXA, APOS O VENCIMENTO COBRAR 10% DE MULTA                                NAO RECEBER APOS 30 DIAS DO VENCIMENTO.                                                                                                                                                                                                         01121700000000000000112170000000000000       0090770900016748049818121719000048
100000000000000000000009077090001674800000000000000000000000010002100019282512171300000000002            2  01192825121710121700000002174350000000001N011217000000000000000000000000000000000000000000000000000000000000000100019282546837FABIO LEANDRO DE FREITAS ASSIS          RUA BASSIM NAGIB TRABULSI - 97 - PONTA D            11030540                                                            000050
2SR. CAIXA, APOS O VENCIMENTO COBRAR 10% DE MULTA                                NAO RECEBER APOS 30 DIAS DO VENCIMENTO.                                                                                                                                                                                                         01121700000000000000112170000000000000       0090770900016748192825121713000051
100000000000000000000009077090001674800000000000000000000000010002100008423412171700000000002            2  01084234121710121700000003021760000000001N011217000000000000000000000000000000000000000000000000000000000000000100008423485811EDSON LUIZ NUNES                        RUA NOEMIA PEDROSO BUENO - 41 - JARDIM G            09360440                                                            000053
2SR. CAIXA, APOS O VENCIMENTO COBRAR 10% DE MULTA                                NAO RECEBER APOS 30 DIAS DO VENCIMENTO.                                                                                                                                                                                                         01121700000000000000112170000000000000       0090770900016748084234121717000054
100000000000000000000009077090001674800000000000000000000000010002100003010512171600000000002            2  01030105121710121700000003496560000000001N011217000000000000000000000000000000000000000000000000000000000000000100003010502877GIZELA VIEIRA BARROS                    RUA GIACOMO DALCIN - 157 - MAUA - SAO CA            09580350                                                            000056
2SR. CAIXA, APOS O VENCIMENTO COBRAR 10% DE MULTA                                NAO RECEBER APOS 30 DIAS DO VENCIMENTO.                                                                                                                                                                                                         01121700000000000000112170000000000000       0090770900016748030105121716000057
100000000000000000000009077090001674800000000000000000000000010002100012111012171100000000002            2  01121110121710121700000002847130000000001N011217000000000000000000000000000000000000000000000000000000000000000100012111060801CLAUDIA CRISTINA CRELIS COSTA           RUA RUI BARBOSA - 1736 AP.1533 - VILA SA            19015001                                                            000059
2SR. CAIXA, APOS O VENCIMENTO COBRAR 10% DE MULTA                                NAO RECEBER APOS 30 DIAS DO VENCIMENTO.                                                                                                                                                                                                         01121700000000000000112170000000000000       0090770900016748121110121711000060
100000000000000000000009077090001674800000000000000000000000010002100009777212171300000000002            2  01097772121710121700000002741450000000001N011217000000000000000000000000000000000000000000000000000000000000000100009777281889CARLITA DE FIGUEIREDO CARVALHO          AVENIDA ALBERTO DE ALMEIDA VINHAS - 4462            11701350                                                            000062
2SR. CAIXA, APOS O VENCIMENTO COBRAR 10% DE MULTA                                NAO RECEBER APOS 30 DIAS DO VENCIMENTO.                                                                                                                                                                                                         01121700000000000000112170000000000000       0090770900016748097772121713000063
100000000000000000000009077090001674800000000000000000000000010002100004213012171000000000002            2  01042130121710121700000003255690000000001N011217000000000000000000000000000000000000000000000000000000000000000100004213020894ELIETE DRUGOVICH DE LIMA                RUA OSVALDO CRUZ - 141 AP.144-B - SANTA             09541270                                                            000065
2SR. CAIXA, APOS O VENCIMENTO COBRAR 10% DE MULTA                                NAO RECEBER APOS 30 DIAS DO VENCIMENTO.                                                                                                                                                                                                         01121700000000000000112170000000000000       0090770900016748042130121710000066
100000000000000000000009077090001674800000000000000000000000010002100085839812171300000000002            2  01858398121710121700000002484830000000001N011217000000000000000000000000000000000000000000000000000000000000000100085839817872MAURO CORREIA MARTINS                   RUA PROFESSOR JOSE AZEVEDO MINHOTO - 72             06114000                                                            000068
2SR. CAIXA, APOS O VENCIMENTO COBRAR 10% DE MULTA                                NAO RECEBER APOS 30 DIAS DO VENCIMENTO.                                                                                                                                                                                                         01121700000000000000112170000000000000       0090770900016748858398121713000069
100000000000000000000009077090001674800000000000000000000000010002100043122812171500000000002            2  01431228121710121700000002219060000000001N011217000000000000000000000000000000000000000000000000000000000000000100043122850800ANTONIO JOAQUIM GOES                    ANTONIO DOAS DA SILVA - 412 - VILA AMALI            02618110                                                            000071
2SR. CAIXA, APOS O VENCIMENTO COBRAR 10% DE MULTA                                NAO RECEBER APOS 30 DIAS DO VENCIMENTO.                                                                                                                                                                                                         01121700000000000000112170000000000000       0090770900016748431228121715000072
100000000000000000000009077090001674800000000000000000000000010002100003865712171100000000002            2  01038657121710121700000002913470000000001N011217000000000000000000000000000000000000000000000000000000000000000100003865776841FRANCISCO JOSE ROCCO                    RUA FABIO JOSE BEZERRA - 130 AP.86 - PAR            03805000                                                            000074
2SR. CAIXA, APOS O VENCIMENTO COBRAR 10% DE MULTA                                NAO RECEBER APOS 30 DIAS DO VENCIMENTO.                                                                                                                                                                                                         01121700000000000000112170000000000000       0090770900016748038657121711000075
100000000000000000000009077090001674800000000000000000000000010002100028309512171800000000002            2  01283095121710121700000002598150000000001N011217000000000000000000000000000000000000000000000000000000000000000100028309524803DEISE RIBEIRO BARBOSA                   RUA CANDIDO JOSE DE ANDRADE - 173 - ERME            03807030                                                            000077
2SR. CAIXA, APOS O VENCIMENTO COBRAR 10% DE MULTA                                NAO RECEBER APOS 30 DIAS DO VENCIMENTO.                                                                                                                                                                                                         01121700000000000000112170000000000000       0090770900016748283095121718000078
100000000000000000000009077090001674800000000000000000000000010002100011277912171800000000002            2  01112779121710121700000003083700000000001N011217000000000000000000000000000000000000000000000000000000000000000100011277908893JOSE AILTON LOPES DE AZEVEDO            RUA MAESTRO JOAO SEPE - 19 - JARDIM MARI            04181030                                                            000080
2SR. CAIXA, APOS O VENCIMENTO COBRAR 10% DE MULTA                                NAO RECEBER APOS 30 DIAS DO VENCIMENTO.                                                                                                                                                                                                         01121700000000000000112170000000000000       0090770900016748112779121718000081
100000000000000000000009077090001674800000000000000000000000010002100025215112171500000000002            2  01252151121710121700000002325520000000001N011217000000000000000000000000000000000000000000000000000000000000000100025215106886KLEBER LUIZ DOS SANTOS                  RUA MONTE CASTELO - 262 AP.15 - AVIACAO             11702720                                                            000083
2SR. CAIXA, APOS O VENCIMENTO COBRAR 10% DE MULTA                                NAO RECEBER APOS 30 DIAS DO VENCIMENTO.                                                                                                                                                                                                         01121700000000000000112170000000000000       0090770900016748252151121715000084
100000000000000000000009077090001674800000000000000000000000010002100090206712171200000000002            2  01902067121710121700000002597490000000001N011217000000000000000000000000000000000000000000000000000000000000000100090206789815NEREIDE RODRIGUES FERREIRA              AVENIDA PADRE ESTANISLAU DE CAMPOS - 205            03590060                                                            000086
2SR. CAIXA, APOS O VENCIMENTO COBRAR 10% DE MULTA                                NAO RECEBER APOS 30 DIAS DO VENCIMENTO.                                                                                                                                                                                                         01121700000000000000112170000000000000       0090770900016748902067121712000087
100000000000000000000009077090001674800000000000000000000000010002100029150712171000000000002            2  01291507121710121700000003040430000000001N011217000000000000000000000000000000000000000000000000000000000000000100029150742833ANA DEISE SANTOS DE ALMEIDA             RUA MONTE CASTELO - 296 AP.121 - AVIACAO            11702720                                                            000089
2SR. CAIXA, APOS O VENCIMENTO COBRAR 10% DE MULTA                                NAO RECEBER APOS 30 DIAS DO VENCIMENTO.                                                                                                                                                                                                         01121700000000000000112170000000000000       0090770900016748291507121710000090
100000000000000000000009077090001674800000000000000000000000010002100000811712171600000000002            2  01008117121710121700000002504350000000001N011217000000000000000000000000000000000000000000000000000000000000000100000811752801SERGIO BUENO DA SILVA                   RUA MONTE CASTELO - 262 AP.75 - AVIACAO             11702720                                                            000092
2SR. CAIXA, APOS O VENCIMENTO COBRAR 10% DE MULTA                                NAO RECEBER APOS 30 DIAS DO VENCIMENTO.                                                                                                                                                                                                         01121700000000000000112170000000000000       0090770900016748008117121716000093
100000000000000000000009077090001674800000000000000000000000010002100027100912171000000000002            2  01271009121710121700000002392400000000001N011217000000000000000000000000000000000000000000000000000000000000000100027100951810MARCIA RAMALHO RODRIGUES                RUA MONTE CASTELO - 296 AP.82 - AVIACAO             11702720                                                            000095
2SR. CAIXA, APOS O VENCIMENTO COBRAR 10% DE MULTA                                NAO RECEBER APOS 30 DIAS DO VENCIMENTO.                                                                                                                                                                                                         01121700000000000000112170000000000000       0090770900016748271009121710000096
100000000000000000000009077090001674800000000000000000000000010002100018344812171200000000002            2  01183448121710121700000003183540000000001N011217000000000000000000000000000000000000000000000000000000000000000100018344803888MARCELO BERNARDO                        RUA ESTONIA - 06 - INTERLAGOS - SAO PAUL            04785140                                                            000098
2SR. CAIXA, APOS O VENCIMENTO COBRAR 10% DE MULTA                                NAO RECEBER APOS 30 DIAS DO VENCIMENTO.                                                                                                                                                                                                         01121700000000000000112170000000000000       0090770900016748183448121712000099
100000000000000000000009077090001674800000000000000000000000010002100030210512171600000000002            2  01302105121710121700000002374090000000001N011217000000000000000000000000000000000000000000000000000000000000000100030210501820ROGERIO MUNIZ DA CUNHA                  RUA MONTE CASTELO - 296 AP.34 - AVIACAO             11702720                                                            000101
2SR. CAIXA, APOS O VENCIMENTO COBRAR 10% DE MULTA                                NAO RECEBER APOS 30 DIAS DO VENCIMENTO.                                                                                                                                                                                                         01121700000000000000112170000000000000       0090770900016748302105121716000102
100000000000000000000009077090001674800000000000000000000000010002100004004312171P00000000002            2  01040043121710121700000004463260000000001N011217000000000000000000000000000000000000000000000000000000000000000100004004328896VANDERLEI  MARTINS DE ALMEIDA           RUA MONSENHOR TABOSA - 03 - PARQUE CISPE            03819300                                                            000104
2SR. CAIXA, APOS O VENCIMENTO COBRAR 10% DE MULTA                                NAO RECEBER APOS 30 DIAS DO VENCIMENTO.                                                                                                                                                                                                         01121700000000000000112170000000000000       009077090001674804004312171P000105
100000000000000000000009077090001674800000000000000000000000010002100005133012171400000000002            2  01051330121710121700000003048550000000001N011217000000000000000000000000000000000000000000000000000000000000000100005133053860VICENTE ARCIPRETE JUNIOR                RUA JOSE SIMOES FERREIRA FILHO - 80 - JA            06040090                                                            000107
2SR. CAIXA, APOS O VENCIMENTO COBRAR 10% DE MULTA                                NAO RECEBER APOS 30 DIAS DO VENCIMENTO.                                                                                                                                                                                                         01121700000000000000112170000000000000       0090770900016748051330121714000108
100000000000000000000009077090001674800000000000000000000000010002100056660212171900000000002            2  01566602121710121700000000741490000000001N011217000000000000000000000000000000000000000000000000000000000000000100056660235868JOSE DA SILVA                           RUA MONTE CASTELO - 296 AP.32 - AVIACAO             11702720                                                            000110
2SR. CAIXA, APOS O VENCIMENTO COBRAR 10% DE MULTA                                NAO RECEBER APOS 30 DIAS DO VENCIMENTO.                                                                                                                                                                                                         01121700000000000000112170000000000000       0090770900016748566602121719000111
100000000000000000000009077090001674800000000000000000000000010002100016339412171000000000002            2  01163394121710121700000002692850000000001N011217000000000000000000000000000000000000000000000000000000000000000100016339432832ALEX MONTEIRO DA SILVA                  RUA IVA MOURA LIMA - 04 - JARDIM MIRNA I            04855540                                                            000113
2SR. CAIXA, APOS O VENCIMENTO COBRAR 10% DE MULTA                                NAO RECEBER APOS 30 DIAS DO VENCIMENTO.                                                                                                                                                                                                         01121700000000000000112170000000000000       0090770900016748163394121710000114
100000000000000000000009077090001674800000000000000000000000010002100031803812171800000000002            2  01318038121710121700000002749910000000001N011217000000000000000000000000000000000000000000000000000000000000000100031803864877ELEILSON FELIPPE SANTOS                 RUA SANTA GREGORIA - 193 - CIDADE DUTRA             04806030                                                            000116
2SR. CAIXA, APOS O VENCIMENTO COBRAR 10% DE MULTA                                NAO RECEBER APOS 30 DIAS DO VENCIMENTO.                                                                                                                                                                                                         01121700000000000000112170000000000000       0090770900016748318038121718000117
100000000000000000000009077090001674800000000000000000000000010002100026032612171600000000002            2  01260326121710121700000001892380000000001N011217000000000000000000000000000000000000000000000000000000000000000100026032632857MARILA LOPES PEREIRA                    AVENIDA LUIZ GISHOKEM - 1761 AP.13 BL.05            05831315                                                            000119
2SR. CAIXA, APOS O VENCIMENTO COBRAR 10% DE MULTA                                NAO RECEBER APOS 30 DIAS DO VENCIMENTO.                                                                                                                                                                                                         01121700000000000000112170000000000000       0090770900016748260326121716000120
100000000000000000000009077090001674800000000000000000000000010002100063064512171200000000002            2  01630645121710121700000003277030000000001N011217000000000000000000000000000000000000000000000000000000000000000100063064537849ANTONIO APARECIDO DA SILVA DESTEFANO    RUA PROFESSOR TEODORO BRAGA - 46 - VILA             02966020                                                            000122
2SR. CAIXA, APOS O VENCIMENTO COBRAR 10% DE MULTA                                NAO RECEBER APOS 30 DIAS DO VENCIMENTO.                                                                                                                                                                                                         01121700000000000000112170000000000000       0090770900016748630645121712000123
100000000000000000000009077090001674800000000000000000000000010002100010107712171800000000002            2  01101077121710121700000003140380000000001N011217000000000000000000000000000000000000000000000000000000000000000100010107711834VALDEMAR FECCHIO                        RUA DOUTOR MARTINS DE OLIVEIRA - 529 AP.            05638030                                                            000125
2SR. CAIXA, APOS O VENCIMENTO COBRAR 10% DE MULTA                                NAO RECEBER APOS 30 DIAS DO VENCIMENTO.                                                                                                                                                                                                         01121700000000000000112170000000000000       0090770900016748101077121718000126
100000000000000000000009077090001674800000000000000000000000010002100003330712171700000000002            2  01033307121710121700000004039920000000001N011217000000000000000000000000000000000000000000000000000000000000000100003330791837MARLI DA SILVA BARBOSA                  RUA GLICERIO CERQUEIRA LEITE - 151 - JAR            03675040                                                            000128
2SR. CAIXA, APOS O VENCIMENTO COBRAR 10% DE MULTA                                NAO RECEBER APOS 30 DIAS DO VENCIMENTO.                                                                                                                                                                                                         01121700000000000000112170000000000000       0090770900016748033307121717000129
100000000000000000000009077090001674800000000000000000000000010002100008931012171500000000002            2  01089310121710121700000001642180000000001N011217000000000000000000000000000000000000000000000000000000000000000100008931031874MARIA MARINHO DE OLIVEIRA               AVENIDA 9 DE JULHO - 1854 AP.81 - BELA V            01312001                                                            000131
2SR. CAIXA, APOS O VENCIMENTO COBRAR 10% DE MULTA                                NAO RECEBER APOS 30 DIAS DO VENCIMENTO.                                                                                                                                                                                                         01121700000000000000112170000000000000       0090770900016748089310121715000132
100000000000000000000009077090001674800000000000000000000000010002100005920512171100000000002            2  01059205121710121700000001907900000000001N011217000000000000000000000000000000000000000000000000000000000000000100005920579846SONIA MARIA VALDO POLLO                 RUA PALMIRA CERVI BARBARO - 797 - CIDADE            13214370                                                            000134
2SR. CAIXA, APOS O VENCIMENTO COBRAR 10% DE MULTA                                NAO RECEBER APOS 30 DIAS DO VENCIMENTO.                                                                                                                                                                                                         01121700000000000000112170000000000000       0090770900016748059205121711000135
100000000000000000000009077090001674800000000000000000000000010002100002494112171200000000002            2  01024941121710121700000002868620000000001N011217000000000000000000000000000000000000000000000000000000000000000100002494107881CIRO FRANCISCO MARCHI DURIGON           RUA MONTE CASTELO - 262 AP.115 - AVIACAO            11702720                                                            000137
2SR. CAIXA, APOS O VENCIMENTO COBRAR 10% DE MULTA                                NAO RECEBER APOS 30 DIAS DO VENCIMENTO.                                                                                                                                                                                                         01121700000000000000112170000000000000       0090770900016748024941121712000138
100000000000000000000009077090001674800000000000000000000000010002100007002312171P00000000002            2  01070023121710121700000002820010000000001N011217000000000000000000000000000000000000000000000000000000000000000100007002345869DOMINGOS DE BRITO GALVAO                RUA MONTE CASTELO - 262 AP.44 - AVIACAO             11702720                                                            000140
2SR. CAIXA, APOS O VENCIMENTO COBRAR 10% DE MULTA                                NAO RECEBER APOS 30 DIAS DO VENCIMENTO.                                                                                                                                                                                                         01121700000000000000112170000000000000       009077090001674807002312171P000141
100000000000000000000009077090001674800000000000000000000000010002100009346812171P00000000002            2  01093468121710121700000001174700000000001N011217000000000000000000000000000000000000000000000000000000000000000100009346863862NELSON DE SOUZA SANTOS                  RUA PRIMEIRA CRUZ - 90 - PARQUE INDEPEND            03236060                                                            000143
2SR. CAIXA, APOS O VENCIMENTO COBRAR 10% DE MULTA                                NAO RECEBER APOS 30 DIAS DO VENCIMENTO.                                                                                                                                                                                                         01121700000000000000112170000000000000       009077090001674809346812171P000144
100000000000000000000009077090001674800000000000000000000000010002100016299012171300000000002            2  01162990121710121700000002718460000000001N011217000000000000000000000000000000000000000000000000000000000000000100016299008857FERNANDO CESAR CARVALHO                 AVENIDA MARCONDES DE BRITO - 1340 AP.74             03509000                                                            000146
2SR. CAIXA, APOS O VENCIMENTO COBRAR 10% DE MULTA                                NAO RECEBER APOS 30 DIAS DO VENCIMENTO.                                                                                                                                                                                                         01121700000000000000112170000000000000       0090770900016748162990121713000147
100000000000000000000009077090001674800000000000000000000000010002100031082812171700000000002            2  01310828121710121700000002731660000000001N011217000000000000000000000000000000000000000000000000000000000000000100031082898880VANESSA DOS SANTOS NEIVA                RUA MONTE CASTELO - 296 AP.33 - BAIRRO A            11702720                                                            000149
2SR. CAIXA, APOS O VENCIMENTO COBRAR 10% DE MULTA                                NAO RECEBER APOS 30 DIAS DO VENCIMENTO.                                                                                                                                                                                                         01121700000000000000112170000000000000       0090770900016748310828121717000150
100000000000000000000009077090001674800000000000000000000000010002100065895312171700000000002            2  01658953121710121700000001663190000000001N011217000000000000000000000000000000000000000000000000000000000000000100065895304834MARINHO BARBOSA CUNHA                   AVENIDA EDU CHAVES - 639 AP.43 - PARQUE             02229000                                                            000152
2SR. CAIXA, APOS O VENCIMENTO COBRAR 10% DE MULTA                                NAO RECEBER APOS 30 DIAS DO VENCIMENTO.                                                                                                                                                                                                         01121700000000000000112170000000000000       0090770900016748658953121717000153
9                                                                                                                                                                                                                                                                                                                                                                                                         000154