01REMESSA01COBRANCA       00000000000005316116AIRES CONSTRUTORA E INCORPORAD237BRADESCO       010324        MX0000237                                                                                                                                                                                                                                                                                     000001
100000000000000000000009002800441612000000000000000000000000010002020002494103241800000000002            2  01024941032410032400000004319640000000001N010324000000000000000000000000000000000000000000000000000000000000000100002494107881CIRO FRANCISCO MARCHI DURIGON           RUA MONTE CASTELO - 262 AP.115 - AVIACAO            11702720                                                            000002
2SR. CAIXA, APOS O VENCIMENTO COBRAR 2% DE MULTA                                 NAO RECEBER APOS 30 DIAS DO VENCIMENTO.                                                                                                                                                                                                         01032400000000000000103240000000000000       0090028004416120024941032418000003
100000000000000000000009002800441612000000000000000000000000010002020016299003241900000000002            2  01162990032410032400000004093520000000001N010324000000000000000000000000000000000000000000000000000000000000000100016299008857FERNANDO CESAR CARVALHO                 AVENIDA MARCONDES DE BRITO - 1340 AP.74             03509000                                                            000005
2SR. CAIXA, APOS O VENCIMENTO COBRAR 2% DE MULTA                                 NAO RECEBER APOS 30 DIAS DO VENCIMENTO.                                                                                                                                                                                                         01032400000000000000103240000000000000       0090028004416120162990032419000006
9                                                                                                                                                                                                                                                                                                                                                                                                         000007