01REMESSA01COBRANCA       00000000000004991454AIRES CONSTRUTORA E INCORPORAD237BRADESCO       011117        MX0000076                                                                                                                                                                                                                                                                                     000001
100000000000000000000009077090001674800000000000000000000000010002100094852211171200000000002            2  01948522111710111700000002127390000000001N011117000000000000000000000000000000000000000000000000000000000000000100094852294887GISELDA MENON                           RUA OTAVIO BARRETO - 105 - VILA SANTISTA            02560080                                                            000002
2SR. CAIXA, APOS O VENCIMENTO COBRAR 10% DE MULTA                                NAO RECEBER APOS 30 DIAS DO VENCIMENTO.                                                                                                                                                                                                         01111700000000000000111170000000000000       0090770900016748948522111712000003
100000000000000000000009077090001674800000000000000000000000010002100006485911171900000000002            2  01064859111710111700000003262730000000001N011117000000000000000000000000000000000000000000000000000000000000000100006485911820CELIO MANUEL  MELIM SANTO               RUA JUVENAL FERREIRA  - 85 AP.61 - VILA             03512040                                                            000005
2SR. CAIXA, APOS O VENCIMENTO COBRAR 10% DE MULTA                                NAO RECEBER APOS 30 DIAS DO VENCIMENTO.                                                                                                                                                                                                         01111700000000000000111170000000000000       0090770900016748064859111719000006
100000000000000000000009077090001674800000000000000000000000010002100004693811171800000000002            2  01046938111710111700000002843710000000001N011117000000000000000000000000000000000000000000000000000000000000000100004693857823NIVALDO BARTOLOMEU FERREIRA             MNS JOSE MARINONI  - 33 - SANTO AMARO -             04430350                                                            000008
2SR. CAIXA, APOS O VENCIMENTO COBRAR 10% DE MULTA                                NAO RECEBER APOS 30 DIAS DO VENCIMENTO.                                                                                                                                                                                                         01111700000000000000111170000000000000       0090770900016748046938111718000009
100000000000000000000009077090001674800000000000000000000000010002100027993111171700000000002            2  01279931111710111700000002707850000000001N011117000000000000000000000000000000000000000000000000000000000000000100027993108853DALVA JESUS RODRIGUES CABRAL            RUA CRISTOVAO COLOMBO GONCALVES - 97 - C            04811050                                                            000011
2SR. CAIXA, APOS O VENCIMENTO COBRAR 10% DE MULTA                                NAO RECEBER APOS 30 DIAS DO VENCIMENTO.                                                                                                                                                                                                         01111700000000000000111170000000000000       0090770900016748279931111717000012
100000000000000000000009077090001674800000000000000000000000010002100000455411171600000000002            2  01004554111710111700000002812830000000001N011117000000000000000000000000000000000000000000000000000000000000000100000455495831PAULO HENRIQUE LOURENCO                 RUA FIGUEIRA  - 237 - CIDADE DAS FLORES             06184060                                                            000014
2SR. CAIXA, APOS O VENCIMENTO COBRAR 10% DE MULTA                                NAO RECEBER APOS 30 DIAS DO VENCIMENTO.                                                                                                                                                                                                         01111700000000000000111170000000000000       0090770900016748004554111716000015
100000000000000000000009077090001674800000000000000000000000010002100006140011171700000000002            2  01061400111710111700000003488310000000001N011117000000000000000000000000000000000000000000000000000000000000000100006140049857MARIA ALBANI DA SILVA EUSEBIO           RUA ORLANDO SEGALA - 108 - JARDIM ADRIAN            07135190                                                            000017
2SR. CAIXA, APOS O VENCIMENTO COBRAR 10% DE MULTA                                NAO RECEBER APOS 30 DIAS DO VENCIMENTO.                                                                                                                                                                                                         01111700000000000000111170000000000000       0090770900016748061400111717000018
100000000000000000000009077090001674800000000000000000000000010002100002324711171100000000002            2  01023247111710111700000003420670000000001N011117000000000000000000000000000000000000000000000000000000000000000100002324785897IZILDA NAPOLI                           RUA MONTE CASTELO - 295 AP.71 - AVIACAO             11702720                                                            000020
2SR. CAIXA, APOS O VENCIMENTO COBRAR 10% DE MULTA                                NAO RECEBER APOS 30 DIAS DO VENCIMENTO.                                                                                                                                                                                                         01111700000000000000111170000000000000       0090770900016748023247111711000021
100000000000000000000009077090001674800000000000000000000000010002100007768711171600000000002            2  01077687111710111700000003543520000000001N011117000000000000000000000000000000000000000000000000000000000000000100007768713826FATIMA LUZIA BIANCHI                    DR. OLIDAIR AMBROSIO - 1487 AP.03 - CENT            14160170                                                            000023
2SR. CAIXA, APOS O VENCIMENTO COBRAR 10% DE MULTA                                NAO RECEBER APOS 30 DIAS DO VENCIMENTO.                                                                                                                                                                                                         01111700000000000000111170000000000000       0090770900016748077687111716000024
100000000000000000000009077090001674800000000000000000000000010002100021716811171300000000002            2  01217168111710111700000003490920000000001N011117000000000000000000000000000000000000000000000000000000000000000100021716847800DANIELLE FAGUNDES DE A.MATOS            CONDE MOREIRA LIMA - 644 - JARDIM JABAQU            04384032                                                            000026
2SR. CAIXA, APOS O VENCIMENTO COBRAR 10% DE MULTA                                NAO RECEBER APOS 30 DIAS DO VENCIMENTO.                                                                                                                                                                                                         01111700000000000000111170000000000000       0090770900016748217168111713000027
100000000000000000000009077090001674800000000000000000000000010002100085416911171700000000002            2  01854169111710111700000002959300000000001N011117000000000000000000000000000000000000000000000000000000000000000100085416940891ANTONIO DE SOUSA MENDES                 RUA MONTE CASTELO - 296 AP.52 - AVIACAO             11702720                                                            000029
2SR. CAIXA, APOS O VENCIMENTO COBRAR 10% DE MULTA                                NAO RECEBER APOS 30 DIAS DO VENCIMENTO.                                                                                                                                                                                                         01111700000000000000111170000000000000       0090770900016748854169111717000030
100000000000000000000009077090001674800000000000000000000000010002100005678011171000000000002            2  01056780111710111700000003082070000000001N011117000000000000000000000000000000000000000000000000000000000000000100005678057863FABIO MOREIRA CAMPOS                    RUA FLORENCIO DA SILVA - 284 - VILA LIBA            03738070                                                            000032
2SR. CAIXA, APOS O VENCIMENTO COBRAR 10% DE MULTA                                NAO RECEBER APOS 30 DIAS DO VENCIMENTO.                                                                                                                                                                                                         01111700000000000000111170000000000000       0090770900016748056780111710000033
100000000000000000000009077090001674800000000000000000000000010002100007784411171700000000002            2  01077844111710111700000003112170000000001N011117000000000000000000000000000000000000000000000000000000000000000100007784496885GUILHERME LEONARDO DO NASCIMENTO        COMENDADOR RUBENS RONCARE - 127 - PONTE             11530120                                                            000035
2SR. CAIXA, APOS O VENCIMENTO COBRAR 10% DE MULTA                                NAO RECEBER APOS 30 DIAS DO VENCIMENTO.                                                                                                                                                                                                         01111700000000000000111170000000000000       0090770900016748077844111717000036
100000000000000000000009077090001674800000000000000000000000010002100016348211171700000000002            2  01163482111710111700000003006800000000001N011117000000000000000000000000000000000000000000000000000000000000000100016348237885AILTON LORENA                           AVENIDA BRASILIA - 194 - BELA VISTA - SA            09180260                                                            000038
2SR. CAIXA, APOS O VENCIMENTO COBRAR 10% DE MULTA                                NAO RECEBER APOS 30 DIAS DO VENCIMENTO.                                                                                                                                                                                                         01111700000000000000111170000000000000       0090770900016748163482111717000039
100000000000000000000009077090001674800000000000000000000000010002100081218411171000000000002            2  01812184111710111700000002901920000000001N011117000000000000000000000000000000000000000000000000000000000000000100081218486953OSMAR DA COSTA                          RUA MONTE CASTELO - 295 AP.33 - AVIACAO             11702720                                                            000041
2SR. CAIXA, APOS O VENCIMENTO COBRAR 10% DE MULTA                                NAO RECEBER APOS 30 DIAS DO VENCIMENTO.                                                                                                                                                                                                         01111700000000000000111170000000000000       0090770900016748812184111710000042
100000000000000000000009077090001674800000000000000000000000010002100004981811171300000000002            2  01049818111710111700000003296050000000001N011117000000000000000000000000000000000000000000000000000000000000000100004981884850SILVIO PAULINO GONCALVES                MARIA DE CASTRO MESQUITA - 84 AP.103 BLO            07110040                                                            000044
2SR. CAIXA, APOS O VENCIMENTO COBRAR 10% DE MULTA                                NAO RECEBER APOS 30 DIAS DO VENCIMENTO.                                                                                                                                                                                                         01111700000000000000111170000000000000       0090770900016748049818111713000045
100000000000000000000009077090001674800000000000000000000000010002100019282511171800000000002            2  01192825111710111700000002163530000000001N011117000000000000000000000000000000000000000000000000000000000000000100019282546837FABIO LEANDRO DE FREITAS ASSIS          RUA BASSIM NAGIB TRABULSI - 97 - PONTA D            11030540                                                            000047
2SR. CAIXA, APOS O VENCIMENTO COBRAR 10% DE MULTA                                NAO RECEBER APOS 30 DIAS DO VENCIMENTO.                                                                                                                                                                                                         01111700000000000000111170000000000000       0090770900016748192825111718000048
100000000000000000000009077090001674800000000000000000000000010002100008423411171100000000002            2  01084234111710111700000003006730000000001N011117000000000000000000000000000000000000000000000000000000000000000100008423485811EDSON LUIZ NUNES                        RUA NOEMIA PEDROSO BUENO - 41 - JARDIM G            09360440                                                            000050
2SR. CAIXA, APOS O VENCIMENTO COBRAR 10% DE MULTA                                NAO RECEBER APOS 30 DIAS DO VENCIMENTO.                                                                                                                                                                                                         01111700000000000000111170000000000000       0090770900016748084234111711000051
100000000000000000000009077090001674800000000000000000000000010002100003010511171000000000002            2  01030105111710111700000003479160000000001N011117000000000000000000000000000000000000000000000000000000000000000100003010502877GIZELA VIEIRA BARROS                    RUA GIACOMO DALCIN - 157 - MAUA - SAO CA            09580350                                                            000053
2SR. CAIXA, APOS O VENCIMENTO COBRAR 10% DE MULTA                                NAO RECEBER APOS 30 DIAS DO VENCIMENTO.                                                                                                                                                                                                         01111700000000000000111170000000000000       0090770900016748030105111710000054
100000000000000000000009077090001674800000000000000000000000010002100012111011171600000000002            2  01121110111710111700000002832970000000001N011117000000000000000000000000000000000000000000000000000000000000000100012111060801CLAUDIA CRISTINA CRELIS COSTA           RUA RUI BARBOSA - 1736 AP.1533 - VILA SA            19015001                                                            000056
2SR. CAIXA, APOS O VENCIMENTO COBRAR 10% DE MULTA                                NAO RECEBER APOS 30 DIAS DO VENCIMENTO.                                                                                                                                                                                                         01111700000000000000111170000000000000       0090770900016748121110111716000057
100000000000000000000009077090001674800000000000000000000000010002100009777211171800000000002            2  01097772111710111700000002727810000000001N011117000000000000000000000000000000000000000000000000000000000000000100009777281889CARLITA DE FIGUEIREDO CARVALHO          AVENIDA ALBERTO DE ALMEIDA VINHAS - 4462            11701350                                                            000059
2SR. CAIXA, APOS O VENCIMENTO COBRAR 10% DE MULTA                                NAO RECEBER APOS 30 DIAS DO VENCIMENTO.                                                                                                                                                                                                         01111700000000000000111170000000000000       0090770900016748097772111718000060
100000000000000000000009077090001674800000000000000000000000010002100004213011171500000000002            2  01042130111710111700000003239490000000001N011117000000000000000000000000000000000000000000000000000000000000000100004213020894ELIETE DRUGOVICH DE LIMA                RUA OSVALDO CRUZ - 141 AP.144-B - SANTA             09541270                                                            000062
2SR. CAIXA, APOS O VENCIMENTO COBRAR 10% DE MULTA                                NAO RECEBER APOS 30 DIAS DO VENCIMENTO.                                                                                                                                                                                                         01111700000000000000111170000000000000       0090770900016748042130111715000063
100000000000000000000009077090001674800000000000000000000000010002100085839811171800000000002            2  01858398111710111700000002472470000000001N011117000000000000000000000000000000000000000000000000000000000000000100085839817872MAURO CORREIA MARTINS                   RUA PROFESSOR JOSE AZEVEDO MINHOTO - 72             06114000                                                            000065
2SR. CAIXA, APOS O VENCIMENTO COBRAR 10% DE MULTA                                NAO RECEBER APOS 30 DIAS DO VENCIMENTO.                                                                                                                                                                                                         01111700000000000000111170000000000000       0090770900016748858398111718000066
100000000000000000000009077090001674800000000000000000000000010002100043122811171P00000000002            2  01431228111710111700000002208020000000001N011117000000000000000000000000000000000000000000000000000000000000000100043122850800ANTONIO JOAQUIM GOES                    ANTONIO DOAS DA SILVA - 412 - VILA AMALI            02618110                                                            000068
2SR. CAIXA, APOS O VENCIMENTO COBRAR 10% DE MULTA                                NAO RECEBER APOS 30 DIAS DO VENCIMENTO.                                                                                                                                                                                                         01111700000000000000111170000000000000       009077090001674843122811171P000069
100000000000000000000009077090001674800000000000000000000000010002100003865711171600000000002            2  01038657111710111700000002898980000000001N011117000000000000000000000000000000000000000000000000000000000000000100003865776841FRANCISCO JOSE ROCCO                    RUA FABIO JOSE BEZERRA - 130 AP.86 - PAR            03805000                                                            000071
2SR. CAIXA, APOS O VENCIMENTO COBRAR 10% DE MULTA                                NAO RECEBER APOS 30 DIAS DO VENCIMENTO.                                                                                                                                                                                                         01111700000000000000111170000000000000       0090770900016748038657111716000072
100000000000000000000009077090001674800000000000000000000000010002100028309511171200000000002            2  01283095111710111700000002585220000000001N011117000000000000000000000000000000000000000000000000000000000000000100028309524803DEISE RIBEIRO BARBOSA                   RUA CANDIDO JOSE DE ANDRADE - 173 - ERME            03807030                                                            000074
2SR. CAIXA, APOS O VENCIMENTO COBRAR 10% DE MULTA                                NAO RECEBER APOS 30 DIAS DO VENCIMENTO.                                                                                                                                                                                                         01111700000000000000111170000000000000       0090770900016748283095111712000075
100000000000000000000009077090001674800000000000000000000000010002100011277911171200000000002            2  01112779111710111700000003068360000000001N011117000000000000000000000000000000000000000000000000000000000000000100011277908893JOSE AILTON LOPES DE AZEVEDO            RUA MAESTRO JOAO SEPE - 19 - JARDIM MARI            04181030                                                            000077
2SR. CAIXA, APOS O VENCIMENTO COBRAR 10% DE MULTA                                NAO RECEBER APOS 30 DIAS DO VENCIMENTO.                                                                                                                                                                                                         01111700000000000000111170000000000000       0090770900016748112779111712000078
100000000000000000000009077090001674800000000000000000000000010002100025215111171P00000000002            2  01252151111710111700000002313950000000001N011117000000000000000000000000000000000000000000000000000000000000000100025215106886KLEBER LUIZ DOS SANTOS                  RUA CAPITAO JOSE MEIRELES - 47 - CAPITAO            11330180                                                            000080
2SR. CAIXA, APOS O VENCIMENTO COBRAR 10% DE MULTA                                NAO RECEBER APOS 30 DIAS DO VENCIMENTO.                                                                                                                                                                                                         01111700000000000000111170000000000000       009077090001674825215111171P000081
100000000000000000000009077090001674800000000000000000000000010002100090206711171700000000002            2  01902067111710111700000002584570000000001N011117000000000000000000000000000000000000000000000000000000000000000100090206789815NEREIDE RODRIGUES FERREIRA              AVENIDA PADRE ESTANISLAU DE CAMPOS - 205            03590060                                                            000083
2SR. CAIXA, APOS O VENCIMENTO COBRAR 10% DE MULTA                                NAO RECEBER APOS 30 DIAS DO VENCIMENTO.                                                                                                                                                                                                         01111700000000000000111170000000000000       0090770900016748902067111717000084
100000000000000000000009077090001674800000000000000000000000010002100029150711171500000000002            2  01291507111710111700000003025300000000001N011117000000000000000000000000000000000000000000000000000000000000000100029150742833ANA DEISE SANTOS DE ALMEIDA             RUA MONTE CASTELO - 296 AP.121 - AVIACAO            11702720                                                            000086
2SR. CAIXA, APOS O VENCIMENTO COBRAR 10% DE MULTA                                NAO RECEBER APOS 30 DIAS DO VENCIMENTO.                                                                                                                                                                                                         01111700000000000000111170000000000000       0090770900016748291507111715000087
100000000000000000000009077090001674800000000000000000000000010002100000811711171000000000002            2  01008117111710111700000002491890000000001N011117000000000000000000000000000000000000000000000000000000000000000100000811752801SERGIO BUENO DA SILVA                   RUA MONTE CASTELO - 262 AP.75 - AVIACAO             11702720                                                            000089
2SR. CAIXA, APOS O VENCIMENTO COBRAR 10% DE MULTA                                NAO RECEBER APOS 30 DIAS DO VENCIMENTO.                                                                                                                                                                                                         01111700000000000000111170000000000000       0090770900016748008117111710000090
100000000000000000000009077090001674800000000000000000000000010002100027100911171500000000002            2  01271009111710111700000002380500000000001N011117000000000000000000000000000000000000000000000000000000000000000100027100951810MARCIA RAMALHO RODRIGUES                RUA MONTE CASTELO - 296 AP.82 - AVIACAO             11702720                                                            000092
2SR. CAIXA, APOS O VENCIMENTO COBRAR 10% DE MULTA                                NAO RECEBER APOS 30 DIAS DO VENCIMENTO.                                                                                                                                                                                                         01111700000000000000111170000000000000       0090770900016748271009111715000093
100000000000000000000009077090001674800000000000000000000000010002100018344811171700000000002            2  01183448111710111700000003167700000000001N011117000000000000000000000000000000000000000000000000000000000000000100018344803888MARCELO BERNARDO                        RUA ESTONIA - 06 - INTERLAGOS - SAO PAUL            04785140                                                            000095
2SR. CAIXA, APOS O VENCIMENTO COBRAR 10% DE MULTA                                NAO RECEBER APOS 30 DIAS DO VENCIMENTO.                                                                                                                                                                                                         01111700000000000000111170000000000000       0090770900016748183448111717000096
100000000000000000000009077090001674800000000000000000000000010002100030210511171000000000002            2  01302105111710111700000002362280000000001N011117000000000000000000000000000000000000000000000000000000000000000100030210501820ROGERIO MUNIZ DA CUNHA                  RUA MONTE CASTELO - 296 AP.34 - AVIACAO             11702720                                                            000098
2SR. CAIXA, APOS O VENCIMENTO COBRAR 10% DE MULTA                                NAO RECEBER APOS 30 DIAS DO VENCIMENTO.                                                                                                                                                                                                         01111700000000000000111170000000000000       0090770900016748302105111710000099
100000000000000000000009077090001674800000000000000000000000010002100004004311171400000000002            2  01040043111710111700000004441050000000001N011117000000000000000000000000000000000000000000000000000000000000000100004004328896VANDERLEI  MARTINS DE ALMEIDA           RUA MONSENHOR TABOSA - 03 - PARQUE CISPE            03819300                                                            000101
2SR. CAIXA, APOS O VENCIMENTO COBRAR 10% DE MULTA                                NAO RECEBER APOS 30 DIAS DO VENCIMENTO.                                                                                                                                                                                                         01111700000000000000111170000000000000       0090770900016748040043111714000102
100000000000000000000009077090001674800000000000000000000000010002100005133011171900000000002            2  01051330111710111700000003033380000000001N011117000000000000000000000000000000000000000000000000000000000000000100005133053860VICENTE ARCIPRETE JUNIOR                RUA JOSE SIMOES FERREIRA FILHO - 80 - JA            06040090                                                            000104
2SR. CAIXA, APOS O VENCIMENTO COBRAR 10% DE MULTA                                NAO RECEBER APOS 30 DIAS DO VENCIMENTO.                                                                                                                                                                                                         01111700000000000000111170000000000000       0090770900016748051330111719000105
100000000000000000000009077090001674800000000000000000000000010002100056660211171300000000002            2  01566602111710111700000000737800000000001N011117000000000000000000000000000000000000000000000000000000000000000100056660235868JOSE DA SILVA                           RUA MONTE CASTELO - 296 AP.32 - AVIACAO             11702720                                                            000107
2SR. CAIXA, APOS O VENCIMENTO COBRAR 10% DE MULTA                                NAO RECEBER APOS 30 DIAS DO VENCIMENTO.                                                                                                                                                                                                         01111700000000000000111170000000000000       0090770900016748566602111713000108
100000000000000000000009077090001674800000000000000000000000010002100016339411171500000000002            2  01163394111710111700000002679450000000001N011117000000000000000000000000000000000000000000000000000000000000000100016339432832ALEX MONTEIRO DA SILVA                  RUA IVA MOURA LIMA - 04 - JARDIM MIRNA I            04855540                                                            000110
2SR. CAIXA, APOS O VENCIMENTO COBRAR 10% DE MULTA                                NAO RECEBER APOS 30 DIAS DO VENCIMENTO.                                                                                                                                                                                                         01111700000000000000111170000000000000       0090770900016748163394111715000111
100000000000000000000009077090001674800000000000000000000000010002100031803811171200000000002            2  01318038111710111700000002736230000000001N011117000000000000000000000000000000000000000000000000000000000000000100031803864877ELEILSON FELIPPE SANTOS                 RUA SANTA GREGORIA - 193 - CIDADE DUTRA             04806030                                                            000113
2SR. CAIXA, APOS O VENCIMENTO COBRAR 10% DE MULTA                                NAO RECEBER APOS 30 DIAS DO VENCIMENTO.                                                                                                                                                                                                         01111700000000000000111170000000000000       0090770900016748318038111712000114
100000000000000000000009077090001674800000000000000000000000010002100026032611171000000000002            2  01260326111710111700000001882970000000001N011117000000000000000000000000000000000000000000000000000000000000000100026032632857MARILA LOPES PEREIRA                    AVENIDA LUIZ GISHOKEM - 1761 AP.13 BL.05            05831315                                                            000116
2SR. CAIXA, APOS O VENCIMENTO COBRAR 10% DE MULTA                                NAO RECEBER APOS 30 DIAS DO VENCIMENTO.                                                                                                                                                                                                         01111700000000000000111170000000000000       0090770900016748260326111710000117
100000000000000000000009077090001674800000000000000000000000010002100063064511171700000000002            2  01630645111710111700000003260730000000001N011117000000000000000000000000000000000000000000000000000000000000000100063064537849ANTONIO APARECIDO DA SILVA DESTEFANO    RUA PROFESSOR TEODORO BRAGA - 46 - VILA             02966020                                                            000119
2SR. CAIXA, APOS O VENCIMENTO COBRAR 10% DE MULTA                                NAO RECEBER APOS 30 DIAS DO VENCIMENTO.                                                                                                                                                                                                         01111700000000000000111170000000000000       0090770900016748630645111717000120
100000000000000000000009077090001674800000000000000000000000010002100010107711171200000000002            2  01101077111710111700000003124760000000001N011117000000000000000000000000000000000000000000000000000000000000000100010107711834VALDEMAR FECCHIO                        RUA DOUTOR MARTINS DE OLIVEIRA - 529 AP.            05638030                                                            000122
2SR. CAIXA, APOS O VENCIMENTO COBRAR 10% DE MULTA                                NAO RECEBER APOS 30 DIAS DO VENCIMENTO.                                                                                                                                                                                                         01111700000000000000111170000000000000       0090770900016748101077111712000123
100000000000000000000009077090001674800000000000000000000000010002100003330711171100000000002            2  01033307111710111700000004019820000000001N011117000000000000000000000000000000000000000000000000000000000000000100003330791837MARLI DA SILVA BARBOSA                  RUA GLICERIO CERQUEIRA LEITE - 151 - JAR            03675040                                                            000125
2SR. CAIXA, APOS O VENCIMENTO COBRAR 10% DE MULTA                                NAO RECEBER APOS 30 DIAS DO VENCIMENTO.                                                                                                                                                                                                         01111700000000000000111170000000000000       0090770900016748033307111711000126
100000000000000000000009077090001674800000000000000000000000010002100008931011171P00000000002            2  01089310111710111700000001634010000000001N011117000000000000000000000000000000000000000000000000000000000000000100008931031874MARIA MARINHO DE OLIVEIRA               AVENIDA 9 DE JULHO - 1854 AP.81 - BELA V            01312001                                                            000128
2SR. CAIXA, APOS O VENCIMENTO COBRAR 10% DE MULTA                                NAO RECEBER APOS 30 DIAS DO VENCIMENTO.                                                                                                                                                                                                         01111700000000000000111170000000000000       009077090001674808931011171P000129
100000000000000000000009077090001674800000000000000000000000010002100005920511171600000000002            2  01059205111710111700000001898410000000001N011117000000000000000000000000000000000000000000000000000000000000000100005920579846SONIA MARIA VALDO POLLO                 RUA PALMIRA CERVI BARBARO - 797 - CIDADE            13214370                                                            000131
2SR. CAIXA, APOS O VENCIMENTO COBRAR 10% DE MULTA                                NAO RECEBER APOS 30 DIAS DO VENCIMENTO.                                                                                                                                                                                                         01111700000000000000111170000000000000       0090770900016748059205111716000132
100000000000000000000009077090001674800000000000000000000000010002100002494111171700000000002            2  01024941111710111700000002854350000000001N011117000000000000000000000000000000000000000000000000000000000000000100002494107881CIRO FRANCISCO MARCHI DURIGON           RUA MONTE CASTELO - 262 AP.115 - AVIACAO            11702720                                                            000134
2SR. CAIXA, APOS O VENCIMENTO COBRAR 10% DE MULTA                                NAO RECEBER APOS 30 DIAS DO VENCIMENTO.                                                                                                                                                                                                         01111700000000000000111170000000000000       0090770900016748024941111717000135
100000000000000000000009077090001674800000000000000000000000010002100007002311171400000000002            2  01070023111710111700000002805980000000001N011117000000000000000000000000000000000000000000000000000000000000000100007002345869DOMINGOS DE BRITO GALVAO                RUA MONTE CASTELO - 262 AP.44 - AVIACAO             11702720                                                            000137
2SR. CAIXA, APOS O VENCIMENTO COBRAR 10% DE MULTA                                NAO RECEBER APOS 30 DIAS DO VENCIMENTO.                                                                                                                                                                                                         01111700000000000000111170000000000000       0090770900016748070023111714000138
100000000000000000000009077090001674800000000000000000000000010002100009346811171400000000002            2  01093468111710111700000001168860000000001N011117000000000000000000000000000000000000000000000000000000000000000100009346863862NELSON DE SOUZA SANTOS                  RUA PRIMEIRA CRUZ - 90 - PARQUE INDEPEND            03236060                                                            000140
2SR. CAIXA, APOS O VENCIMENTO COBRAR 10% DE MULTA                                NAO RECEBER APOS 30 DIAS DO VENCIMENTO.                                                                                                                                                                                                         01111700000000000000111170000000000000       0090770900016748093468111714000141
100000000000000000000009077090001674800000000000000000000000010002100016299011171800000000002            2  01162990111710111700000002704940000000001N011117000000000000000000000000000000000000000000000000000000000000000100016299008857FERNANDO CESAR CARVALHO                 AVENIDA MARCONDES DE BRITO - 1340 AP.74             03509000                                                            000143
2SR. CAIXA, APOS O VENCIMENTO COBRAR 10% DE MULTA                                NAO RECEBER APOS 30 DIAS DO VENCIMENTO.                                                                                                                                                                                                         01111700000000000000111170000000000000       0090770900016748162990111718000144
100000000000000000000009077090001674800000000000000000000000010002100031082811171100000000002            2  01310828111710111700000002718070000000001N011117000000000000000000000000000000000000000000000000000000000000000100031082898880VANESSA DOS SANTOS NEIVA                RUA MONTE CASTELO - 296 AP.33 - BAIRRO A            11702720                                                            000146
2SR. CAIXA, APOS O VENCIMENTO COBRAR 10% DE MULTA                                NAO RECEBER APOS 30 DIAS DO VENCIMENTO.                                                                                                                                                                                                         01111700000000000000111170000000000000       0090770900016748310828111711000147
100000000000000000000009077090001674800000000000000000000000010002100065895311171100000000002            2  01658953111710111700000001654920000000001N011117000000000000000000000000000000000000000000000000000000000000000100065895304834MARINHO BARBOSA CUNHA                   AVENIDA EDU CHAVES - 639 AP.43 - PARQUE             02229000                                                            000149
2SR. CAIXA, APOS O VENCIMENTO COBRAR 10% DE MULTA                                NAO RECEBER APOS 30 DIAS DO VENCIMENTO.                                                                                                                                                                                                         01111700000000000000111170000000000000       0090770900016748658953111711000150
9                                                                                                                                                                                                                                                                                                                                                                                                         000151