01REMESSA01COBRANCA       00000000000004991781AIRES CONSTRUTORA E INCORPORAD237BRADESCO       080819        MX0000126                                                                                                                                                                                                                                                                                     000001
100000000000000000000009077090006612500000000000000000000000010002100001224508191000000000002            2  01012245081925081900000003646160000000001N070819000000000000000000000000000000000000000000000000000000000000000100001224509579REINALDO JUNIOR MARTINS DE ABREU        AVENIDA INTERLAGOS - 7.224 - INTERLAGOS             04777000                                                            000002
2SR. CAIXA, APOS O VENCIMENTO COBRAR 10% DE MULTA                                NAO RECEBER APOS 30 DIAS DO VENCIMENTO.                                                                                                                                                                                                         08081900000000000000808190000000000000       0090770900066125012245081910000003
100000000000000000000009077090006612500000000000000000000000010002100016338908191300000000002            2  01163389081925081900000003597590000000001N070819000000000000000000000000000000000000000000000000000000000000000100016338929806EDVALDO DA SILVA ANDRADE                RUA ARIA - 434 - PARQUE ALVES DE LIMA -             04902170                                                            000005
2SR. CAIXA, APOS O VENCIMENTO COBRAR 10% DE MULTA                                NAO RECEBER APOS 30 DIAS DO VENCIMENTO.                                                                                                                                                                                                         08081900000000000000808190000000000000       0090770900066125163389081913000006
100000000000000000000009077090006612500000000000000000000000010002100026836908191300000000002            2  01268369081925081900000003257890000000001N070819000000000000000000000000000000000000000000000000000000000000000100026836908860VANDERLEI FIGUEIREDO DE CARVALHO        RUA TUPI - 840 - VILA TUPI - PRAIA GRAND            11703260                                                            000008
2SR. CAIXA, APOS O VENCIMENTO COBRAR 10% DE MULTA                                NAO RECEBER APOS 30 DIAS DO VENCIMENTO.                                                                                                                                                                                                         08081900000000000000808190000000000000       0090770900066125268369081913000009
100000000000000000000009077090006612500000000000000000000000010002100059861508191P00000000002            2  01598615081925081900000003618600000000001N070819000000000000000000000000000000000000000000000000000000000000000100059861576800REINALDO LOPES DE OLIVEIRA              RUA DA SERVIDAO - 40 - VILA ROSCHEL - SA            04891045                                                            000011
2SR. CAIXA, APOS O VENCIMENTO COBRAR 10% DE MULTA                                NAO RECEBER APOS 30 DIAS DO VENCIMENTO.                                                                                                                                                                                                         08081900000000000000808190000000000000       009077090006612559861508191P000012
100000000000000000000009077090006612500000000000000000000000010002100016330908191800000000002            2  01163309081925081900000003596680000000001N070819000000000000000000000000000000000000000000000000000000000000000100016330938830KARINA CORDEIRO PIASSA                  CONDE MOREIRA LIMA - 644 - JARDIM JABAQU            04384032                                                            000014
2SR. CAIXA, APOS O VENCIMENTO COBRAR 10% DE MULTA                                NAO RECEBER APOS 30 DIAS DO VENCIMENTO.                                                                                                                                                                                                         08081900000000000000808190000000000000       0090770900066125163309081918000015
100000000000000000000009077090006612500000000000000000000000010002100077027608191000000000002            2  01770276081925081900000003495700000000001N070819000000000000000000000000000000000000000000000000000000000000000100077027604868CLINEU LISSONI                          AVENIDA VILA EMA - 1100 AP.41 - VILA PRU            03156000                                                            000017
2SR. CAIXA, APOS O VENCIMENTO COBRAR 10% DE MULTA                                NAO RECEBER APOS 30 DIAS DO VENCIMENTO.                                                                                                                                                                                                         08081900000000000000808190000000000000       0090770900066125770276081910000018
100000000000000000000009077090006612500000000000000000000000010002100029380708191800000000002            2  01293807081925081900000003258080000000001N070819000000000000000000000000000000000000000000000000000000000000000100029380708882EDUARDO MENDONCA DAMASCENO              RUA MONTE CASTELO - 296 AP.12 - AVIACAO             11702720                                                            000020
2SR. CAIXA, APOS O VENCIMENTO COBRAR 10% DE MULTA                                NAO RECEBER APOS 30 DIAS DO VENCIMENTO.                                                                                                                                                                                                         08081900000000000000808190000000000000       0090770900066125293807081918000021
100000000000000000000009077090006612500000000000000000000000010002100023988508191100000000002            2  01239885081925081900000003308210000000001N070819000000000000000000000000000000000000000000000000000000000000000100023988525634DALMY PIMENTA                           SAO CAETANO - 136 - VILA SAO VICENTE - U            38026220                                                            000023
2SR. CAIXA, APOS O VENCIMENTO COBRAR 10% DE MULTA                                NAO RECEBER APOS 30 DIAS DO VENCIMENTO.                                                                                                                                                                                                         08081900000000000000808190000000000000       0090770900066125239885081911000024
100000000000000000000009077090006612500000000000000000000000010002100004735208191300000000002            2  01047352081925081900000003596910000000001N070819000000000000000000000000000000000000000000000000000000000000000100004735273832DARIO LUIZ GONCALVES                    RUA MONTE CASTELO - 295 AP.113 - AVIACAO            11702720                                                            000026
2SR. CAIXA, APOS O VENCIMENTO COBRAR 10% DE MULTA                                NAO RECEBER APOS 30 DIAS DO VENCIMENTO.                                                                                                                                                                                                         08081900000000000000808190000000000000       0090770900066125047352081913000027
100000000000000000000009077090006612500000000000000000000000010002100007635208191300000000002            2  01076352081925081900000003215850000000001N070819000000000000000000000000000000000000000000000000000000000000000100007635293893SILVIO CARDOSO ZACARIAS                 RUA SOLIDONIO LEITE - 2718 AP.102 BLOCO             03275000                                                            000029
2SR. CAIXA, APOS O VENCIMENTO COBRAR 10% DE MULTA                                NAO RECEBER APOS 30 DIAS DO VENCIMENTO.                                                                                                                                                                                                         08081900000000000000808190000000000000       0090770900066125076352081913000030
100000000000000000000009077090006612500000000000000000000000010002100007975908191700000000002            2  01079759081925081900000003498670000000001N070819000000000000000000000000000000000000000000000000000000000000000100007975958808JOCY VIGNADO                            RUA PEDRO GONCALVES SOBRINHO - 568 - PAR            13098641                                                            000032
2SR. CAIXA, APOS O VENCIMENTO COBRAR 10% DE MULTA                                NAO RECEBER APOS 30 DIAS DO VENCIMENTO.                                                                                                                                                                                                         08081900000000000000808190000000000000       0090770900066125079759081917000033
100000000000000000000009077090006612500000000000000000000000010002100036386808191900000000002            2  01363868081925081900000003695110000000001N070819000000000000000000000000000000000000000000000000000000000000000100036386861833ALINE LEE WEI DE SOUZA                  AV. PRES.CASTELO BRANCO - 9127 AP.251 BL            11704600                                                            000035
2SR. CAIXA, APOS O VENCIMENTO COBRAR 10% DE MULTA                                NAO RECEBER APOS 30 DIAS DO VENCIMENTO.                                                                                                                                                                                                         08081900000000000000808190000000000000       0090770900066125363868081919000036
100000000000000000000009077090006612500000000000000000000000010002100070465308191P00000000002            2  01704653081925081900000001007000000000001N070819000000000000000000000000000000000000000000000000000000000000000100070465320953SIDNEY CARASKI                          RUA DR.CELSO PACHECO BENTIM - 502 - PARQ            03571020                                                            000038
2SR. CAIXA, APOS O VENCIMENTO COBRAR 10% DE MULTA                                NAO RECEBER APOS 30 DIAS DO VENCIMENTO.                                                                                                                                                                                                         08081900000000000000808190000000000000       009077090006612570465308191P000039
100000000000000000000009077090006612500000000000000000000000010002100075759408191500000000002            2  01757594081925081900000002632100000000001N070819000000000000000000000000000000000000000000000000000000000000000100075759446800VALTER MUTAFEI                          RUA MONTE CASTELO - 295 AP.54 - AVIACAO             11702720                                                            000041
2SR. CAIXA, APOS O VENCIMENTO COBRAR 10% DE MULTA                                NAO RECEBER APOS 30 DIAS DO VENCIMENTO.                                                                                                                                                                                                         08081900000000000000808190000000000000       0090770900066125757594081915000042
100000000000000000000009077090006612500000000000000000000000010002100070328708191300000000002            2  01703287081925081900000003760610000000001N070819000000000000000000000000000000000000000000000000000000000000000100070328706868VALTER LIMA FERNANDES                   RUA DOMINGOS JORGE VELHO - 52 - CENTRO -            06843550                                                            000044
2SR. CAIXA, APOS O VENCIMENTO COBRAR 10% DE MULTA                                NAO RECEBER APOS 30 DIAS DO VENCIMENTO.                                                                                                                                                                                                         08081900000000000000808190000000000000       0090770900066125703287081913000045
100000000000000000000009077090006612500000000000000000000000010002100023132608191900000000002            2  01231326081925081900000002042710000000001N070819000000000000000000000000000000000000000000000000000000000000000100023132672882LEANDRO MORENO                          RUA MONTE CASTELO - 296 AP.64 - AVIACAO             11702720                                                            000047
2SR. CAIXA, APOS O VENCIMENTO COBRAR 10% DE MULTA                                NAO RECEBER APOS 30 DIAS DO VENCIMENTO.                                                                                                                                                                                                         08081900000000000000808190000000000000       0090770900066125231326081919000048
100000000000000000000009077090006612500000000000000000000000010002100099264608191800000000002            2  01992646081925081900000003483650000000001N070819000000000000000000000000000000000000000000000000000000000000000100099264692800LEONTINO PINHEIRO DA SILVA              AVENIDA JOAO BATISTA FITIPALDI - 469 - V            08685000                                                            000050
2SR. CAIXA, APOS O VENCIMENTO COBRAR 10% DE MULTA                                NAO RECEBER APOS 30 DIAS DO VENCIMENTO.                                                                                                                                                                                                         08081900000000000000808190000000000000       0090770900066125992646081918000051
100000000000000000000009077090006612500000000000000000000000010002100000666308191900000000002            2  01006663081925081900000003360770000000001N070819000000000000000000000000000000000000000000000000000000000000000100000666344825LUIZ HENRIQUE DE CAMPOS                 RUA JOAO CARLOS CAVALCANTI REIS - 21 - J            02281206                                                            000053
2SR. CAIXA, APOS O VENCIMENTO COBRAR 10% DE MULTA                                NAO RECEBER APOS 30 DIAS DO VENCIMENTO.                                                                                                                                                                                                         08081900000000000000808190000000000000       0090770900066125006663081919000054
100000000000000000000009077090006612500000000000000000000000010002100029155008191900000000002            2  01291550081925081900000003549110000000001N070819000000000000000000000000000000000000000000000000000000000000000100029155026842DANIELA YOSHIDA                         RUA MONTE CASTELO - 262 AP.34 - AVIACAO             11702720                                                            000056
2SR. CAIXA, APOS O VENCIMENTO COBRAR 10% DE MULTA                                NAO RECEBER APOS 30 DIAS DO VENCIMENTO.                                                                                                                                                                                                         08081900000000000000808190000000000000       0090770900066125291550081919000057
100000000000000000000009077090006612500000000000000000000000010002100001204408191200000000002            2  01012044081925081900000002890250000000001N070819000000000000000000000000000000000000000000000000000000000000000100001204431809CEZAR TALAVERA JUNIOR                   RUA MAESTRO ARTURO DE ANGELIS  - 190 AP.            05139010                                                            000059
2SR. CAIXA, APOS O VENCIMENTO COBRAR 10% DE MULTA                                NAO RECEBER APOS 30 DIAS DO VENCIMENTO.                                                                                                                                                                                                         08081900000000000000808190000000000000       0090770900066125012044081912000060
100000000000000000000009077090006612500000000000000000000000010002100004227508191100000000002            2  01042275081925081900000003746610000000001N070819000000000000000000000000000000000000000000000000000000000000000100004227553970ALESSANDRO ISRAEL GOULART               RUA PROFESSORA CARLINDA RIBEIRO - 21 - F            02866200                                                            000062
2SR. CAIXA, APOS O VENCIMENTO COBRAR 10% DE MULTA                                NAO RECEBER APOS 30 DIAS DO VENCIMENTO.                                                                                                                                                                                                         08081900000000000000808190000000000000       0090770900066125042275081911000063
100000000000000000000009077090006612500000000000000000000000010002100060811408191500000000002            2  01608114081925081900000003452940000000001N070819000000000000000000000000000000000000000000000000000000000000000100060811420868HELIO BASSI                             AV.PARIS,575 - PRACA ANTONIO FIGUEROA -             11700082                                                            000065
2SR. CAIXA, APOS O VENCIMENTO COBRAR 10% DE MULTA                                NAO RECEBER APOS 30 DIAS DO VENCIMENTO.                                                                                                                                                                                                         08081900000000000000808190000000000000       0090770900066125608114081915000066
100000000000000000000009077090006612500000000000000000000000010002100001024708191500000000002            2  01010247081925081900000003267400000000001N070819000000000000000000000000000000000000000000000000000000000000000100001024794881CLAUDIO RODRIGUES                       RUA ARACATUBA - 242 - LAPA - SAO PAULO -            05058010                                                            000068
2SR. CAIXA, APOS O VENCIMENTO COBRAR 10% DE MULTA                                NAO RECEBER APOS 30 DIAS DO VENCIMENTO.                                                                                                                                                                                                         08081900000000000000808190000000000000       0090770900066125010247081915000069
100000000000000000000009077090006612500000000000000000000000010002100002225008191600000000002            2  01022250081925081900000005009360000000001N070819000000000000000000000000000000000000000000000000000000000000000100002225072841PEDRO EDUARDO DE AZEVEDO                RUA NATH ZILMAN - 46 - JARDIM SAMAMBAIA             07600000                                                            000071
2SR. CAIXA, APOS O VENCIMENTO COBRAR 10% DE MULTA                                NAO RECEBER APOS 30 DIAS DO VENCIMENTO.                                                                                                                                                                                                         08081900000000000000808190000000000000       0090770900066125022250081916000072
100000000000000000000009077090006612500000000000000000000000010002100022037508191400000000002            2  01220375081925081900000003485970000000001N070819000000000000000000000000000000000000000000000000000000000000000100022037552882ANDREIA CRISTINA FERNANDES DANTAS       PCA CASTRO ALVES - 163 AP.33 - VILA SAO             13224299                                                            000074
2SR. CAIXA, APOS O VENCIMENTO COBRAR 10% DE MULTA                                NAO RECEBER APOS 30 DIAS DO VENCIMENTO.                                                                                                                                                                                                         08081900000000000000808190000000000000       0090770900066125220375081914000075
100000000000000000000009077090006612500000000000000000000000010002100019288708191200000000002            2  01192887081925081900000002838360000000001N070819000000000000000000000000000000000000000000000000000000000000000100019288787844EMERSON LUIZ MARTINEZ PEREIRA           RUA MONTE CASTELO - 296 AP.74 - AVIACAO             11702720                                                            000077
2SR. CAIXA, APOS O VENCIMENTO COBRAR 10% DE MULTA                                NAO RECEBER APOS 30 DIAS DO VENCIMENTO.                                                                                                                                                                                                         08081900000000000000808190000000000000       0090770900066125192887081912000078
100000000000000000000009077090006612500000000000000000000000010002100027198408191600000000002            2  01271984081925081900000002404250000000001N070819000000000000000000000000000000000000000000000000000000000000000100027198452809CRISTIANE AURELIANO DA SILVA MAIA       RUA MONTE CASTELO - 262 AP.25 - AVIACAO             11702720                                                            000080
2SR. CAIXA, APOS O VENCIMENTO COBRAR 10% DE MULTA                                NAO RECEBER APOS 30 DIAS DO VENCIMENTO.                                                                                                                                                                                                         08081900000000000000808190000000000000       0090770900066125271984081916000081
100000000000000000000009077090006612500000000000000000000000010002100021246208191P00000000002            2  01212462081925081900000002934150000000001N070819000000000000000000000000000000000000000000000000000000000000000100021246231840ALEXANDRO DA CUNHA MIGUES               AVENIDA CONSELHEIRO CARRAO - 1861 CONJ.5            03403001                                                            000083
2SR. CAIXA, APOS O VENCIMENTO COBRAR 10% DE MULTA                                NAO RECEBER APOS 30 DIAS DO VENCIMENTO.                                                                                                                                                                                                         08081900000000000000808190000000000000       009077090006612521246208191P000084
100000000000000000000009077090006612500000000000000000000000010002100018834208191800000000002            2  01188342081925081900000003427380000000001N070819000000000000000000000000000000000000000000000000000000000000000100018834257863ILTON FERNANDO MUTCHNIK                 RUA ASSUNGUI - 700 AP.222 - VILA GUMERCI            04131001                                                            000086
2SR. CAIXA, APOS O VENCIMENTO COBRAR 10% DE MULTA                                NAO RECEBER APOS 30 DIAS DO VENCIMENTO.                                                                                                                                                                                                         08081900000000000000808190000000000000       0090770900066125188342081918000087
100000000000000000000009077090006612500000000000000000000000010002100018470508191P00000000002            2  01184705081925081900000004316550000000001N070819000000000000000000000000000000000000000000000000000000000000000100018470520881SILVANA ALVES DE OLIVEIRA               RUA MONTE CASTELO - 262 AP.91 - AVIACAO             11702720                                                            000089
2SR. CAIXA, APOS O VENCIMENTO COBRAR 10% DE MULTA                                NAO RECEBER APOS 30 DIAS DO VENCIMENTO.                                                                                                                                                                                                         08081900000000000000808190000000000000       009077090006612518470508191P000090
100000000000000000000009077090006612500000000000000000000000010002100009297508191P00000000002            2  01092975081925081900000003005130000000001N070819000000000000000000000000000000000000000000000000000000000000000100009297523846MARCOS ROBERTO DE CASTRO FERREIRA       RUA MONTE CASTELO - 262 AP.105 - AVIACAO            11702720                                                            000092
2SR. CAIXA, APOS O VENCIMENTO COBRAR 10% DE MULTA                                NAO RECEBER APOS 30 DIAS DO VENCIMENTO.                                                                                                                                                                                                         08081900000000000000808190000000000000       009077090006612509297508191P000093
100000000000000000000009077090006612500000000000000000000000010002100001164108191900000000002            2  01011641081925081900000003724040000000001N070819000000000000000000000000000000000000000000000000000000000000000100001164158864DAVID BLEY LACERDA                      RUA CONEGO ARAUJO MARCONDES - 188 - BAIR            02550080                                                            000095
2SR. CAIXA, APOS O VENCIMENTO COBRAR 10% DE MULTA                                NAO RECEBER APOS 30 DIAS DO VENCIMENTO.                                                                                                                                                                                                         08081900000000000000808190000000000000       0090770900066125011641081919000096
100000000000000000000009077090006612500000000000000000000000010002100031498008191200000000002            2  01314980081925081900000004526040000000001N070819000000000000000000000000000000000000000000000000000000000000000100031498008895POLIANE  SIBELE DA SILVA                PRACA GENERAL COSTA BARRETO - 56 AP.181             03325070                                                            000098
2SR. CAIXA, APOS O VENCIMENTO COBRAR 10% DE MULTA                                NAO RECEBER APOS 30 DIAS DO VENCIMENTO.                                                                                                                                                                                                         08081900000000000000808190000000000000       0090770900066125314980081912000099
100000000000000000000009077090006612500000000000000000000000010002100000588108191600000000002            2  01005881081925081900000002654620000000001N070819000000000000000000000000000000000000000000000000000000000000000100000588109860JOSE LIARTE GIANTE                      AVENIDA LUIZ GONZAGA DO AMARAL - 143 - J            09320630                                                            000101
2SR. CAIXA, APOS O VENCIMENTO COBRAR 10% DE MULTA                                NAO RECEBER APOS 30 DIAS DO VENCIMENTO.                                                                                                                                                                                                         08081900000000000000808190000000000000       0090770900066125005881081916000102
100000000000000000000009077090006612500000000000000000000000010002100014386808191900000000002            2  01143868081925081900000002123570000000001N070819000000000000000000000000000000000000000000000000000000000000000100014386860134SEVERINO CARLOS DE OLIVEIRA             RUA MONTE CASTELO - 262 AP.54 - AVIACAO             11702720                                                            000104
2SR. CAIXA, APOS O VENCIMENTO COBRAR 10% DE MULTA                                NAO RECEBER APOS 30 DIAS DO VENCIMENTO.                                                                                                                                                                                                         08081900000000000000808190000000000000       0090770900066125143868081919000105
100000000000000000000009077090006612500000000000000000000000010002100029088208191600000000002            2  01290882081925081900000002360870000000001N070819000000000000000000000000000000000000000000000000000000000000000100029088221804FABIANO SPERANDEO                       RUA MONTE CASTELO - 296 AP.93 - AVIACAO             11702720                                                            000107
2SR. CAIXA, APOS O VENCIMENTO COBRAR 10% DE MULTA                                NAO RECEBER APOS 30 DIAS DO VENCIMENTO.                                                                                                                                                                                                         08081900000000000000808190000000000000       0090770900066125290882081916000108
100000000000000000000009077090006612500000000000000000000000010002100039393708191400000000002            2  01393937081925081900000001463580000000001N070819000000000000000000000000000000000000000000000000000000000000000100039393790850NAIRON RICARDO DE ARAUJO SANTOS         RUA MONTE CASTELO - 262 AP.23 - AVIACAO             11702720                                                            000110
2SR. CAIXA, APOS O VENCIMENTO COBRAR 10% DE MULTA                                NAO RECEBER APOS 30 DIAS DO VENCIMENTO.                                                                                                                                                                                                         08081900000000000000808190000000000000       0090770900066125393937081914000111
100000000000000000000009077090006612500000000000000000000000010002100041896808191500000000002            2  01418968081925081900000002131470000000001N070819000000000000000000000000000000000000000000000000000000000000000100041896807968SERGIO ROBERTO DA SILVA                 RUA DOS INGLESES - 542 AP.61 - MORRO DOS            01329000                                                            000113
2SR. CAIXA, APOS O VENCIMENTO COBRAR 10% DE MULTA                                NAO RECEBER APOS 30 DIAS DO VENCIMENTO.                                                                                                                                                                                                         08081900000000000000808190000000000000       0090770900066125418968081915000114
9                                                                                                                                                                                                                                                                                                                                                                                                         000115