01REMESSA01COBRANCA       00000000000005331186HB SANTOS CONSTRUTORA E INCORP237BRADESCO       011122        MX0000059                                                                                                                                                                                                                                                                                     000001
100000000000000000000009033990000995400000000000000000000000010002020026858611221500000000002            2  01268586112208112200000002913110000000001N011122000000000000000000000000000000000000000000000000000000000000000100026858625879GLAUCE FERREIRA DE OLIVEIRA FALSI       RUA LOURENCO ANTONIO BRAGANCA - 116 - JA            04403160                                                            000002
2SR. CAIXA, APOS O VENCIMENTO COBRAR 2% DE MULTA                                 NAO RECEBER APOS 30 DIAS DO VENCIMENTO.                                                                                                                                                                                                         01112200000000000000111220000000000000       0090339900009954268586112215000003
100000000000000000000009033990000995400000000000000000000000010002020016960811221600000000002            2  01169608112208112200000002781530000000001N011122000000000000000000000000000000000000000000000000000000000000000100016960804876LUIZ ALVES DE SOUZA JUNIOR              RUA URUGUAI - 89 AP.61 - JARDIM GUILHERM            11702300                                                            000005
2SR. CAIXA, APOS O VENCIMENTO COBRAR 2% DE MULTA                                 NAO RECEBER APOS 30 DIAS DO VENCIMENTO.                                                                                                                                                                                                         01112200000000000000111220000000000000       0090339900009954169608112216000006
100000000000000000000009033990000995400000000000000000000000010002020029425011221800000000002            2  01294250112208112200000002770360000000001N011122000000000000000000000000000000000000000000000000000000000000000100029425027897FABIA DOS SANTOS DE ANDRADE             AVENIDA ALCIDES CANDIDO DOS SANTOS - 248            11705480                                                            000008
2SR. CAIXA, APOS O VENCIMENTO COBRAR 2% DE MULTA                                 NAO RECEBER APOS 30 DIAS DO VENCIMENTO.                                                                                                                                                                                                         01112200000000000000111220000000000000       0090339900009954294250112218000009
100000000000000000000009033990000995400000000000000000000000010002020078382711221300000000002            2  01783827112208112200000002799590000000001N011122000000000000000000000000000000000000000000000000000000000000000100078382700497JARMELINA BARBOSA DA SILVA              RUA OSCAR CINTRA GORDINHO - 211 AP.51 -             01512010                                                            000011
2SR. CAIXA, APOS O VENCIMENTO COBRAR 2% DE MULTA                                 NAO RECEBER APOS 30 DIAS DO VENCIMENTO.                                                                                                                                                                                                         01112200000000000000111220000000000000       0090339900009954783827112213000012
100000000000000000000009033990000995400000000000000000000000010002020007535311221200000000002            2  01075353112208112200000002745350000000001N011122000000000000000000000000000000000000000000000000000000000000000100007535375839AINAILDE PEREIRA DE CASTRO OLIVETTO     TRAVESSA DORALINA ELIETE ADAO DA SILVA -            08021026                                                            000014
2SR. CAIXA, APOS O VENCIMENTO COBRAR 2% DE MULTA                                 NAO RECEBER APOS 30 DIAS DO VENCIMENTO.                                                                                                                                                                                                         01112200000000000000111220000000000000       0090339900009954075353112212000015
100000000000000000000009033990000995400000000000000000000000010002020017229711221800000000002            2  01172297112208112200000002908090000000001N011122000000000000000000000000000000000000000000000000000000000000000100017229751802BERENICE VIEIRA KERSTING                RUA ATIBAIA - 17 AP.417 - BAIRRO IMPERAD            11707380                                                            000017
2SR. CAIXA, APOS O VENCIMENTO COBRAR 2% DE MULTA                                 NAO RECEBER APOS 30 DIAS DO VENCIMENTO.                                                                                                                                                                                                         01112200000000000000111220000000000000       0090339900009954172297112218000018
100000000000000000000009033990000995400000000000000000000000010002020028974211221P00000000002            2  01289742112208112200000002716100000000001N011122000000000000000000000000000000000000000000000000000000000000000100028974233827MARISTELA FAVANI DE OLIVEIRA            RUA GIUSEPPE CARNEVALLI - 96 - BAIRRO BO            09572100                                                            000020
2SR. CAIXA, APOS O VENCIMENTO COBRAR 2% DE MULTA                                 NAO RECEBER APOS 30 DIAS DO VENCIMENTO.                                                                                                                                                                                                         01112200000000000000111220000000000000       009033990000995428974211221P000021
100000000000000000000009033990000995400000000000000000000000010002020092184811221700000000002            2  01921848112208112200000002679950000000001N011122000000000000000000000000000000000000000000000000000000000000000100092184804800CARMEM DO SOCORRO GUILHERME             ESTRADA SAO FRANCISCO - 1.850 AP.182A -             06765000                                                            000023
2SR. CAIXA, APOS O VENCIMENTO COBRAR 2% DE MULTA                                 NAO RECEBER APOS 30 DIAS DO VENCIMENTO.                                                                                                                                                                                                         01112200000000000000111220000000000000       0090339900009954921848112217000024
100000000000000000000009033990000995400000000000000000000000010002020009169711221700000000002            2  01091697112208112200000002149330000000001N011122000000000000000000000000000000000000000000000000000000000000000100009169701830TADEU CONSTANTINO LOPES                 RUA JOSE ANTONIO COELHO - 349 CASA 01 -             04011061                                                            000026
2SR. CAIXA, APOS O VENCIMENTO COBRAR 2% DE MULTA                                 NAO RECEBER APOS 30 DIAS DO VENCIMENTO.                                                                                                                                                                                                         01112200000000000000111220000000000000       0090339900009954091697112217000027
100000000000000000000009033990000995400000000000000000000000010002020042480111221500000000002            2  01424801112208112200000002734180000000001N011122000000000000000000000000000000000000000000000000000000000000000100042480155870JAMITRE SOIOMARA ALVES DO NASCIMENTO DAVRUA URUGUAI - 89 AP.75 - JARDIM GUILHERM            11702300                                                            000029
2SR. CAIXA, APOS O VENCIMENTO COBRAR 2% DE MULTA                                 NAO RECEBER APOS 30 DIAS DO VENCIMENTO.                                                                                                                                                                                                         01112200000000000000111220000000000000       0090339900009954424801112215000030
100000000000000000000009033990000995400000000000000000000000010002020008966511221000000000002            2  01089665112208112200000002583350000000001N011122000000000000000000000000000000000000000000000000000000000000000100008966511856MONICA SILVA REIS                       RUA ORATORIO - 264 E FUNDOS - BANGU - SA            09280550                                                            000032
2SR. CAIXA, APOS O VENCIMENTO COBRAR 2% DE MULTA                                 NAO RECEBER APOS 30 DIAS DO VENCIMENTO.                                                                                                                                                                                                         01112200000000000000111220000000000000       0090339900009954089665112210000033
100000000000000000000009033990000995400000000000000000000000010002020001356911221100000000002            2  01013569112208112200000002774880000000001N011122000000000000000000000000000000000000000000000000000000000000000100001356993800DALVA MARIA DOS SANTOS                  RUA URUGUAI - 89 AP.74 - AVIACAO - PRAIA            11702300                                                            000035
2SR. CAIXA, APOS O VENCIMENTO COBRAR 2% DE MULTA                                 NAO RECEBER APOS 30 DIAS DO VENCIMENTO.                                                                                                                                                                                                         01112200000000000000111220000000000000       0090339900009954013569112211000036
100000000000000000000009033990000995400000000000000000000000010002020024615511221400000000002            2  01246155112208112200000003164630000000001N011122000000000000000000000000000000000000000000000000000000000000000100024615557884GILBERTO JOSE GONSALES                  RUA URUGUAI - 89 AP.115 - JARDIM GUILHER            11702300                                                            000038
2SR. CAIXA, APOS O VENCIMENTO COBRAR 2% DE MULTA                                 NAO RECEBER APOS 30 DIAS DO VENCIMENTO.                                                                                                                                                                                                         01112200000000000000111220000000000000       0090339900009954246155112214000039
100000000000000000000009033990000995400000000000000000000000010002020008878811221900000000002            2  01088788112208112200000003043450000000001N011122000000000000000000000000000000000000000000000000000000000000000100008878832812LUIZ ANTONIO DE OLIVEIRA                RUA TORRINHA - 220 AP.132 - BAIRRO TATUA            03332010                                                            000041
2SR. CAIXA, APOS O VENCIMENTO COBRAR 2% DE MULTA                                 NAO RECEBER APOS 30 DIAS DO VENCIMENTO.                                                                                                                                                                                                         01112200000000000000111220000000000000       0090339900009954088788112219000042
100000000000000000000009033990000995400000000000000000000000010002020031473711221400000000002            2  01314737112208112200000002236900000000001N011122000000000000000000000000000000000000000000000000000000000000000100031473799813MURIEL DA SILVA DE MOURA SOUZA          RUA CAPITAO PAULINO FREIRE - 300 AP.014             08717100                                                            000044
2SR. CAIXA, APOS O VENCIMENTO COBRAR 2% DE MULTA                                 NAO RECEBER APOS 30 DIAS DO VENCIMENTO.                                                                                                                                                                                                         01112200000000000000111220000000000000       0090339900009954314737112214000045
100000000000000000000009033990000995400000000000000000000000010002020036949511221300000000002            2  01369495112208112200000002961340000000001N011122000000000000000000000000000000000000000000000000000000000000000100036949505833FELIPE APARECIDO DOS SANTOS             RUA DAS MIMOSAS - 67 CASA 09 - VILA LUCI            03144010                                                            000047
2SR. CAIXA, APOS O VENCIMENTO COBRAR 2% DE MULTA                                 NAO RECEBER APOS 30 DIAS DO VENCIMENTO.                                                                                                                                                                                                         01112200000000000000111220000000000000       0090339900009954369495112213000048
100000000000000000000009033990000995400000000000000000000000010002020008539311221000000000002            2  01085393112208112200000003025620000000001N011122000000000000000000000000000000000000000000000000000000000000000100008539365871EDMILSON RAIMUNDO DOS SANTOS            RUA CALIDICE - 247 - PARQUE CRUZEIRO - S            08070010                                                            000050
2SR. CAIXA, APOS O VENCIMENTO COBRAR 2% DE MULTA                                 NAO RECEBER APOS 30 DIAS DO VENCIMENTO.                                                                                                                                                                                                         01112200000000000000111220000000000000       0090339900009954085393112210000051
100000000000000000000009033990000995400000000000000000000000010002020031040911221P00000000002            2  01310409112208112200000003117160000000001N011122000000000000000000000000000000000000000000000000000000000000000100031040952801ANDRESSA REGINA FAVERANI LUPPI          RUA AMALIA BELLOTTI PASTORELLO - 169 - T            11724030                                                            000053
2SR. CAIXA, APOS O VENCIMENTO COBRAR 2% DE MULTA                                 NAO RECEBER APOS 30 DIAS DO VENCIMENTO.                                                                                                                                                                                                         01112200000000000000111220000000000000       009033990000995431040911221P000054
100000000000000000000009033990000995400000000000000000000000010002020024558911221600000000002            2  01245589112208112200000005211230000000001N011122000000000000000000000000000000000000000000000000000000000000000100024558912838EDILENE GORGATTI                        RUA ITARARE - 76 AP.142 - JARDIM GUILHER            11701820                                                            000056
2SR. CAIXA, APOS O VENCIMENTO COBRAR 2% DE MULTA                                 NAO RECEBER APOS 30 DIAS DO VENCIMENTO.                                                                                                                                                                                                         01112200000000000000111220000000000000       0090339900009954245589112216000057
100000000000000000000009033990000995400000000000000000000000010002020004611211221100000000002            2  01046112112208112200000001918980000000001N011122000000000000000000000000000000000000000000000000000000000000000100004611218830TANIA MARIA DA SILVA NUNES PEREIRA LUIZ RUA URUGUAI - 89 AP.103 - JARDIM GUILHER            11702300                                                            000059
2SR. CAIXA, APOS O VENCIMENTO COBRAR 2% DE MULTA                                 NAO RECEBER APOS 30 DIAS DO VENCIMENTO.                                                                                                                                                                                                         01112200000000000000111220000000000000       0090339900009954046112112211000060
100000000000000000000009033990000995400000000000000000000000010002020010548811221900000000002            2  01105488112208112200000003409730000000001N011122000000000000000000000000000000000000000000000000000000000000000100010548844801RICARDO DE JESUS CALDAS                 RUA ANTONIO AMBUBA - 50 CASA 60 - BAIRRO            05782370                                                            000062
2SR. CAIXA, APOS O VENCIMENTO COBRAR 2% DE MULTA                                 NAO RECEBER APOS 30 DIAS DO VENCIMENTO.                                                                                                                                                                                                         01112200000000000000111220000000000000       0090339900009954105488112219000063
100000000000000000000009033990000995400000000000000000000000010002020039623811221800000000002            2  01396238112208112200000002996750000000001N011122000000000000000000000000000000000000000000000000000000000000000100039623826826LEONARDO GUEDES PINTO                   RUA URUGUAI - 89 AP.24 - AVIACAO - PRAIA            11702300                                                            000065
2SR. CAIXA, APOS O VENCIMENTO COBRAR 2% DE MULTA                                 NAO RECEBER APOS 30 DIAS DO VENCIMENTO.                                                                                                                                                                                                         01112200000000000000111220000000000000       0090339900009954396238112218000066
100000000000000000000009033990000995400000000000000000000000010002020039558611221700000000002            2  01395586112208112200000002751220000000001N011122000000000000000000000000000000000000000000000000000000000000000100039558638838TAMIRES ROCHA FRANCISCO                 RUA DUARTE DE CARVALHO - 185 AP.102 - BA            03084030                                                            000068
2SR. CAIXA, APOS O VENCIMENTO COBRAR 2% DE MULTA                                 NAO RECEBER APOS 30 DIAS DO VENCIMENTO.                                                                                                                                                                                                         01112200000000000000111220000000000000       0090339900009954395586112217000069
100000000000000000000009033990000995400000000000000000000000010002020032038711221600000000002            2  01320387112208112200000002238310000000001N011122000000000000000000000000000000000000000000000000000000000000000100032038775893GUSTAVO PEREIRA DA CRUZ                 RUA SAO FIDELIS - 203 - JARDIM BRASIL -             16074050                                                            000071
2SR. CAIXA, APOS O VENCIMENTO COBRAR 2% DE MULTA                                 NAO RECEBER APOS 30 DIAS DO VENCIMENTO.                                                                                                                                                                                                         01112200000000000000111220000000000000       0090339900009954320387112216000072
100000000000000000000009033990000995400000000000000000000000010002020008993111221300000000002            2  01089931112208112200000010563620000000001N011122000000000000000000000000000000000000000000000000000000000000000100008993178801PATRICIA BITTENCOURT FRACARO            RUA MARCIO MAZZEI - 337 - VILA NOVA MAZZ            02316050                                                            000074
2SR. CAIXA, APOS O VENCIMENTO COBRAR 2% DE MULTA                                 NAO RECEBER APOS 30 DIAS DO VENCIMENTO.                                                                                                                                                                                                         01112200000000000000111220000000000000       0090339900009954089931112213000075
100000000000000000000009033990000995400000000000000000000000010002020012955211221600000000002            2  01129552112208112200000005187230000000001N011122000000000000000000000000000000000000000000000000000000000000000100012955241806MAURO ALVES SILVA                       RUA TRAITUBA - 354 - BAIRRO SAUDE - SAO             04142050                                                            000077
2SR. CAIXA, APOS O VENCIMENTO COBRAR 2% DE MULTA                                 NAO RECEBER APOS 30 DIAS DO VENCIMENTO.                                                                                                                                                                                                         01112200000000000000111220000000000000       0090339900009954129552112216000078
9                                                                                                                                                                                                                                                                                                                                                                                                         000079