01REMESSA01COBRANCA       00000000000004991781AIRES CONSTRUTORA E INCORPORAD237BRADESCO       010520        MX0000140                                                                                                                                                                                                                                                                                     000001
100000000000000000000009077090006612500000000000000000000000010002100000455405201900000000002            2  01004554052010052000000003266820000000001N010520000000000000000000000000000000000000000000000000000000000000000100000455495831PAULO HENRIQUE LOURENCO                 RUA FIGUEIRA  - 237 - CIDADE DAS FLORES             06184060                                                            000002
2SR. CAIXA, APOS O VENCIMENTO COBRAR 10% DE MULTA                                NAO RECEBER APOS 30 DIAS DO VENCIMENTO.                                                                                                                                                                                                         01052000000000000000105200000000000000       0090770900066125004554052019000003
100000000000000000000009077090006612500000000000000000000000010002100006140005201P00000000002            2  01061400052010052000000004051330000000001N010520000000000000000000000000000000000000000000000000000000000000000100006140049857MARIA ALBANI DA SILVA EUSEBIO           RUA ORLANDO SEGALA - 108 - JARDIM ADRIAN            07135190                                                            000005
2SR. CAIXA, APOS O VENCIMENTO COBRAR 10% DE MULTA                                NAO RECEBER APOS 30 DIAS DO VENCIMENTO.                                                                                                                                                                                                         01052000000000000000105200000000000000       009077090006612506140005201P000006
100000000000000000000009077090006612500000000000000000000000010002100007768705201900000000002            2  01077687052010052000000004115440000000001N010520000000000000000000000000000000000000000000000000000000000000000100007768713826FATIMA LUZIA BIANCHI                    RUA MONTE CASTELO - 295 AP.121 - AVIACAO            11702720                                                            000008
2SR. CAIXA, APOS O VENCIMENTO COBRAR 10% DE MULTA                                NAO RECEBER APOS 30 DIAS DO VENCIMENTO.                                                                                                                                                                                                         01052000000000000000105200000000000000       0090770900066125077687052019000009
100000000000000000000009077090006612500000000000000000000000010002100085416905201P00000000002            2  01854169052010052000000003436960000000001N010520000000000000000000000000000000000000000000000000000000000000000100085416940891ANTONIO DE SOUSA MENDES                 RUA MONTE CASTELO - 296 AP.52 - AVIACAO             11702720                                                            000011
2SR. CAIXA, APOS O VENCIMENTO COBRAR 10% DE MULTA                                NAO RECEBER APOS 30 DIAS DO VENCIMENTO.                                                                                                                                                                                                         01052000000000000000105200000000000000       009077090006612585416905201P000012
100000000000000000000009077090006612500000000000000000000000010002100005678005201300000000002            2  01056780052010052000000003579510000000001N010520000000000000000000000000000000000000000000000000000000000000000100005678057863FABIO MOREIRA CAMPOS                    RUA FLORENCIO DA SILVA - 284 - VILA LIBA            03738070                                                            000014
2SR. CAIXA, APOS O VENCIMENTO COBRAR 10% DE MULTA                                NAO RECEBER APOS 30 DIAS DO VENCIMENTO.                                                                                                                                                                                                         01052000000000000000105200000000000000       0090770900066125056780052013000015
100000000000000000000009077090006612500000000000000000000000010002100016348205201P00000000002            2  01163482052010052000000003492080000000001N010520000000000000000000000000000000000000000000000000000000000000000100016348237885AILTON LORENA                           AVENIDA BRASILIA - 194 - BELA VISTA - SA            09180260                                                            000017
2SR. CAIXA, APOS O VENCIMENTO COBRAR 10% DE MULTA                                NAO RECEBER APOS 30 DIAS DO VENCIMENTO.                                                                                                                                                                                                         01052000000000000000105200000000000000       009077090006612516348205201P000018
100000000000000000000009077090006612500000000000000000000000010002100081218405201300000000002            2  01812184052010052000000003370290000000001N010520000000000000000000000000000000000000000000000000000000000000000100081218486953OSMAR DA COSTA - A/C RITA GONCALVES     AVENIDA ALMEIDA JUNIOR - 717 - SAMAMBAIA            11713050                                                            000020
2SR. CAIXA, APOS O VENCIMENTO COBRAR 10% DE MULTA                                NAO RECEBER APOS 30 DIAS DO VENCIMENTO.                                                                                                                                                                                                         01052000000000000000105200000000000000       0090770900066125812184052013000021
100000000000000000000009077090006612500000000000000000000000010002100004981805201600000000002            2  01049818052010052000000003828050000000001N010520000000000000000000000000000000000000000000000000000000000000000100004981884850SILVIO PAULINO GONCALVES                MARIA DE CASTRO MESQUITA - 84 AP.103 BLO            07110040                                                            000023
2SR. CAIXA, APOS O VENCIMENTO COBRAR 10% DE MULTA                                NAO RECEBER APOS 30 DIAS DO VENCIMENTO.                                                                                                                                                                                                         01052000000000000000105200000000000000       0090770900066125049818052016000024
100000000000000000000009077090006612500000000000000000000000010002100019282505201000000000002            2  01192825052010052000000002512710000000001N010520000000000000000000000000000000000000000000000000000000000000000100019282546837FABIO LEANDRO DE FREITAS ASSIS          RUA BASSIM NAGIB TRABULSI - 97 - PONTA D            11030540                                                            000026
2SR. CAIXA, APOS O VENCIMENTO COBRAR 10% DE MULTA                                NAO RECEBER APOS 30 DIAS DO VENCIMENTO.                                                                                                                                                                                                         01052000000000000000105200000000000000       0090770900066125192825052010000027
100000000000000000000009077090006612500000000000000000000000010002100008423405201400000000002            2  01084234052010052000000003492010000000001N010520000000000000000000000000000000000000000000000000000000000000000100008423485811EDSON LUIZ NUNES                        RUA NOEMIA PEDROSO BUENO - 41 - JARDIM G            09360440                                                            000029
2SR. CAIXA, APOS O VENCIMENTO COBRAR 10% DE MULTA                                NAO RECEBER APOS 30 DIAS DO VENCIMENTO.                                                                                                                                                                                                         01052000000000000000105200000000000000       0090770900066125084234052014000030
100000000000000000000009077090006612500000000000000000000000010002100003865705201900000000002            2  01038657052010052000000003366900000000001N010520000000000000000000000000000000000000000000000000000000000000000100003865776841FRANCISCO JOSE ROCCO                    RUA FABIO JOSE BEZERRA - 130 AP.86 - PAR            03805000                                                            000032
2SR. CAIXA, APOS O VENCIMENTO COBRAR 10% DE MULTA                                NAO RECEBER APOS 30 DIAS DO VENCIMENTO.                                                                                                                                                                                                         01052000000000000000105200000000000000       0090770900066125038657052019000033
100000000000000000000009077090006612500000000000000000000000010002100028309505201500000000002            2  01283095052010052000000003002490000000001N010520000000000000000000000000000000000000000000000000000000000000000100028309524803DEISE RIBEIRO BARBOSA                   RUA CANDIDO JOSE DE ANDRADE - 173 - ERME            03807030                                                            000035
2SR. CAIXA, APOS O VENCIMENTO COBRAR 10% DE MULTA                                NAO RECEBER APOS 30 DIAS DO VENCIMENTO.                                                                                                                                                                                                         01052000000000000000105200000000000000       0090770900066125283095052015000036
100000000000000000000009077090006612500000000000000000000000010002100011277905201500000000002            2  01112779052010052000000003563620000000001N010520000000000000000000000000000000000000000000000000000000000000000100011277908893JOSE AILTON LOPES DE AZEVEDO            RUA MAESTRO JOAO SEPE - 19 - JARDIM MARI            04181030                                                            000038
2SR. CAIXA, APOS O VENCIMENTO COBRAR 10% DE MULTA                                NAO RECEBER APOS 30 DIAS DO VENCIMENTO.                                                                                                                                                                                                         01052000000000000000105200000000000000       0090770900066125112779052015000039
100000000000000000000009077090006612500000000000000000000000010002100025215105201200000000002            2  01252151052010052000000006728860000000001N010520000000000000000000000000000000000000000000000000000000000000000100025215106886KLEBER LUIZ DOS SANTOS                  RUA MONTE CASTELO - 262 AP.15 - AVIACAO             11702720                                                            000041
2SR. CAIXA, APOS O VENCIMENTO COBRAR 10% DE MULTA                                NAO RECEBER APOS 30 DIAS DO VENCIMENTO.                                                                                                                                                                                                         01052000000000000000105200000000000000       0090770900066125252151052012000042
100000000000000000000009077090006612500000000000000000000000010002100090206705201P00000000002            2  01902067052010052000000003001740000000001N010520000000000000000000000000000000000000000000000000000000000000000100090206789815NEREIDE RODRIGUES FERREIRA              AVENIDA PADRE ESTANISLAU DE CAMPOS - 205            03590060                                                            000044
2SR. CAIXA, APOS O VENCIMENTO COBRAR 10% DE MULTA                                NAO RECEBER APOS 30 DIAS DO VENCIMENTO.                                                                                                                                                                                                         01052000000000000000105200000000000000       009077090006612590206705201P000045
100000000000000000000009077090006612500000000000000000000000010002100029150705201800000000002            2  01291507052010052000000003513580000000001N010520000000000000000000000000000000000000000000000000000000000000000100029150742833ANA DEISE SANTOS DE ALMEIDA             RUA MONTE CASTELO - 296 AP.121 - AVIACAO            11702720                                                            000047
2SR. CAIXA, APOS O VENCIMENTO COBRAR 10% DE MULTA                                NAO RECEBER APOS 30 DIAS DO VENCIMENTO.                                                                                                                                                                                                         01052000000000000000105200000000000000       0090770900066125291507052018000048
100000000000000000000009077090006612500000000000000000000000010002100000811705201300000000002            2  01008117052010052000000002894070000000001N010520000000000000000000000000000000000000000000000000000000000000000100000811752801SERGIO BUENO DA SILVA                   RUA MONTE CASTELO - 262 AP.75 - AVIACAO             11702720                                                            000050
2SR. CAIXA, APOS O VENCIMENTO COBRAR 10% DE MULTA                                NAO RECEBER APOS 30 DIAS DO VENCIMENTO.                                                                                                                                                                                                         01052000000000000000105200000000000000       0090770900066125008117052013000051
100000000000000000000009077090006612500000000000000000000000010002100018344805201P00000000002            2  01183448052010052000000003935230000000001N010520000000000000000000000000000000000000000000000000000000000000000100018344803888MARCELO BERNARDO                        RUA MONTE CASTELO - 262 AP.84 - AVIACAO             11702720                                                            000053
2SR. CAIXA, APOS O VENCIMENTO COBRAR 10% DE MULTA                                NAO RECEBER APOS 30 DIAS DO VENCIMENTO.                                                                                                                                                                                                         01052000000000000000105200000000000000       009077090006612518344805201P000054
100000000000000000000009077090006612500000000000000000000000010002100004004305201700000000002            2  01040043052010052000000005157820000000001N010520000000000000000000000000000000000000000000000000000000000000000100004004328896VANDERLEI  MARTINS DE ALMEIDA           RUA MONSENHOR TABOSA - 03 - PARQUE CISPE            03819300                                                            000056
2SR. CAIXA, APOS O VENCIMENTO COBRAR 10% DE MULTA                                NAO RECEBER APOS 30 DIAS DO VENCIMENTO.                                                                                                                                                                                                         01052000000000000000105200000000000000       0090770900066125040043052017000057
100000000000000000000009077090006612500000000000000000000000010002100031803805201500000000002            2  01318038052010052000000003177880000000001N010520000000000000000000000000000000000000000000000000000000000000000100031803864877ELEILSON FELIPPE SANTOS                 RUA SANTA GREGORIA - 193 - CIDADE DUTRA             04806030                                                            000059
2SR. CAIXA, APOS O VENCIMENTO COBRAR 10% DE MULTA                                NAO RECEBER APOS 30 DIAS DO VENCIMENTO.                                                                                                                                                                                                         01052000000000000000105200000000000000       0090770900066125318038052015000060
100000000000000000000009077090006612500000000000000000000000010002100026032605201300000000002            2  01260326052010052000000002186910000000001N010520000000000000000000000000000000000000000000000000000000000000000100026032632857MARILA LOPES PEREIRA                    AVENIDA LUIZ GUSHIKEN - 1761 AP.13 BL.05            05831315                                                            000062
2SR. CAIXA, APOS O VENCIMENTO COBRAR 10% DE MULTA                                NAO RECEBER APOS 30 DIAS DO VENCIMENTO.                                                                                                                                                                                                         01052000000000000000105200000000000000       0090770900066125260326052013000063
100000000000000000000009077090006612500000000000000000000000010002100010107705201500000000002            2  01101077052010052000000003629110000000001N010520000000000000000000000000000000000000000000000000000000000000000100010107711834VALDEMAR FECCHIO                        RUA DEPUTADO EMILIO CARLOS - 355 AP.21-B            06028010                                                            000065
2SR. CAIXA, APOS O VENCIMENTO COBRAR 10% DE MULTA                                NAO RECEBER APOS 30 DIAS DO VENCIMENTO.                                                                                                                                                                                                         01052000000000000000105200000000000000       0090770900066125101077052015000066
100000000000000000000009077090006612500000000000000000000000010002100003330705201400000000002            2  01033307052010052000000004668630000000001N010520000000000000000000000000000000000000000000000000000000000000000100003330791837MARLI DA SILVA BARBOSA                  RUA GLICERIO CERQUEIRA LEITE - 151 - JAR            03675040                                                            000068
2SR. CAIXA, APOS O VENCIMENTO COBRAR 10% DE MULTA                                NAO RECEBER APOS 30 DIAS DO VENCIMENTO.                                                                                                                                                                                                         01052000000000000000105200000000000000       0090770900066125033307052014000069
100000000000000000000009077090006612500000000000000000000000010002100005920505201900000000002            2  01059205052010052000000002204830000000001N010520000000000000000000000000000000000000000000000000000000000000000100005920579846SONIA MARIA VALDO POLLO                 RUA PALMIRA CERVI BARBARO - 797 - CIDADE            13214370                                                            000071
2SR. CAIXA, APOS O VENCIMENTO COBRAR 10% DE MULTA                                NAO RECEBER APOS 30 DIAS DO VENCIMENTO.                                                                                                                                                                                                         01052000000000000000105200000000000000       0090770900066125059205052019000072
100000000000000000000009077090006612500000000000000000000000010002100002494105201P00000000002            2  01024941052010052000000003315050000000001N010520000000000000000000000000000000000000000000000000000000000000000100002494107881CIRO FRANCISCO MARCHI DURIGON           RUA MONTE CASTELO - 262 AP.115 - AVIACAO            11702720                                                            000074
2SR. CAIXA, APOS O VENCIMENTO COBRAR 10% DE MULTA                                NAO RECEBER APOS 30 DIAS DO VENCIMENTO.                                                                                                                                                                                                         01052000000000000000105200000000000000       009077090006612502494105201P000075
100000000000000000000009077090006612500000000000000000000000010002100007002305201700000000002            2  01070023052010052000000003258850000000001N010520000000000000000000000000000000000000000000000000000000000000000100007002345869DOMINGOS DE BRITO GALVAO                RUA MONTE CASTELO - 262 AP.44 - AVIACAO             11702720                                                            000077
2SR. CAIXA, APOS O VENCIMENTO COBRAR 10% DE MULTA                                NAO RECEBER APOS 30 DIAS DO VENCIMENTO.                                                                                                                                                                                                         01052000000000000000105200000000000000       0090770900066125070023052017000078
100000000000000000000009077090006612500000000000000000000000010002100016299005201000000000002            2  01162990052010052000000003141540000000001N010520000000000000000000000000000000000000000000000000000000000000000100016299008857FERNANDO CESAR CARVALHO                 AVENIDA MARCONDES DE BRITO - 1340 AP.74             03509000                                                            000080
2SR. CAIXA, APOS O VENCIMENTO COBRAR 10% DE MULTA                                NAO RECEBER APOS 30 DIAS DO VENCIMENTO.                                                                                                                                                                                                         01052000000000000000105200000000000000       0090770900066125162990052010000081
100000000000000000000009077090006612500000000000000000000000010002100031082805201400000000002            2  01310828052010052000000003156780000000001N010520000000000000000000000000000000000000000000000000000000000000000100031082898880VANESSA DOS SANTOS NEIVA                RUA MONTE CASTELO - 296 AP.33 - BAIRRO A            11702720                                                            000083
2SR. CAIXA, APOS O VENCIMENTO COBRAR 10% DE MULTA                                NAO RECEBER APOS 30 DIAS DO VENCIMENTO.                                                                                                                                                                                                         01052000000000000000105200000000000000       0090770900066125310828052014000084
100000000000000000000009077090006612500000000000000000000000010002100065895305201400000000002            2  01658953052010052000000001922010000000001N010520000000000000000000000000000000000000000000000000000000000000000100065895304834MARINHO BARBOSA CUNHA                   AVENIDA EDU CHAVES - 639 AP.43 - PARQUE             02229000                                                            000086
2SR. CAIXA, APOS O VENCIMENTO COBRAR 10% DE MULTA                                NAO RECEBER APOS 30 DIAS DO VENCIMENTO.                                                                                                                                                                                                         01052000000000000000105200000000000000       0090770900066125658953052014000087
9                                                                                                                                                                                                                                                                                                                                                                                                         000088