01REMESSA01COBRANCA       00000000000005316116AIRES CONSTRUTORA E INCORPORAD237BRADESCO       090321        MX0000166                                                                                                                                                                                                                                                                                     000001
100000000000000000000009002800441612000000000000000000000000010002100029380703211900000000002            2  01293807032125032100000003581930000000001N090321000000000000000000000000000000000000000000000000000000000000000100029380708882EDUARDO MENDONCA DAMASCENO              RUA MONTE CASTELO - 296 AP.12 - AVIACAO             11702720                                                            000002
2SR. CAIXA, APOS O VENCIMENTO COBRAR 10% DE MULTA                                NAO RECEBER APOS 30 DIAS DO VENCIMENTO.                                                                                                                                                                                                         09032100000000000000903210000000000000       0090028004416120293807032119000003
100000000000000000000009002800441612000000000000000000000000010002100023988503211200000000002            2  01239885032125032100000003637030000000001N090321000000000000000000000000000000000000000000000000000000000000000100023988525634DALMY PIMENTA                           RUA JOAQUIM TELESFORO DE OLIVEIRA - 344             38061608                                                            000005
2SR. CAIXA, APOS O VENCIMENTO COBRAR 10% DE MULTA                                NAO RECEBER APOS 30 DIAS DO VENCIMENTO.                                                                                                                                                                                                         09032100000000000000903210000000000000       0090028004416120239885032112000006
100000000000000000000009002800441612000000000000000000000000010002100007975903211800000000002            2  01079759032125032100000003846450000000001N090321000000000000000000000000000000000000000000000000000000000000000100007975958808JOCY VIGNADO                            RUA PEDRO GONCALVES SOBRINHO - 568 - PAR            13098641                                                            000008
2SR. CAIXA, APOS O VENCIMENTO COBRAR 10% DE MULTA                                NAO RECEBER APOS 30 DIAS DO VENCIMENTO.                                                                                                                                                                                                         09032100000000000000903210000000000000       0090028004416120079759032118000009
100000000000000000000009002800441612000000000000000000000000010002100023132603211P00000000002            2  01231326032125032100000002245750000000001N090321000000000000000000000000000000000000000000000000000000000000000100023132672882LEANDRO MORENO                          RUA MONTE CASTELO - 296 AP.64 - AVIACAO             11702720                                                            000011
2SR. CAIXA, APOS O VENCIMENTO COBRAR 10% DE MULTA                                NAO RECEBER APOS 30 DIAS DO VENCIMENTO.                                                                                                                                                                                                         09032100000000000000903210000000000000       009002800441612023132603211P000012
100000000000000000000009002800441612000000000000000000000000010002100099264603211900000000002            2  01992646032125032100000003829940000000001N090321000000000000000000000000000000000000000000000000000000000000000100099264692800LEONTINO PINHEIRO DA SILVA              AVENIDA JOAO BATISTA FITIPALDI - 469 - V            08685000                                                            000014
2SR. CAIXA, APOS O VENCIMENTO COBRAR 10% DE MULTA                                NAO RECEBER APOS 30 DIAS DO VENCIMENTO.                                                                                                                                                                                                         09032100000000000000903210000000000000       0090028004416120992646032119000015
100000000000000000000009002800441612000000000000000000000000010002100000666303211P00000000002            2  01006663032125032100000003694820000000001N090321000000000000000000000000000000000000000000000000000000000000000100000666344825LUIZ HENRIQUE DE CAMPOS                 RUA JOAO CARLOS CAVALCANTI REIS - 21 - J            02281206                                                            000017
2SR. CAIXA, APOS O VENCIMENTO COBRAR 10% DE MULTA                                NAO RECEBER APOS 30 DIAS DO VENCIMENTO.                                                                                                                                                                                                         09032100000000000000903210000000000000       009002800441612000666303211P000018
100000000000000000000009002800441612000000000000000000000000010002100029155003211P00000000002            2  01291550032125032100000003901870000000001N090321000000000000000000000000000000000000000000000000000000000000000100029155026842DANIELA YOSHIDA                         RUA MONTE CASTELO - 262 AP.34 - AVIACAO             11702720                                                            000020
2SR. CAIXA, APOS O VENCIMENTO COBRAR 10% DE MULTA                                NAO RECEBER APOS 30 DIAS DO VENCIMENTO.                                                                                                                                                                                                         09032100000000000000903210000000000000       009002800441612029155003211P000021
100000000000000000000009002800441612000000000000000000000000010002100001204403211300000000002            2  01012044032125032100000003177530000000001N090321000000000000000000000000000000000000000000000000000000000000000100001204431809CEZAR TALAVERA JUNIOR                   RUA MAESTRO ARTURO DE ANGELIS  - 190 AP.            05139010                                                            000023
2SR. CAIXA, APOS O VENCIMENTO COBRAR 10% DE MULTA                                NAO RECEBER APOS 30 DIAS DO VENCIMENTO.                                                                                                                                                                                                         09032100000000000000903210000000000000       0090028004416120012044032113000024
100000000000000000000009002800441612000000000000000000000000010002100004227503211200000000002            2  01042275032125032100000004119030000000001N090321000000000000000000000000000000000000000000000000000000000000000100004227553970ALESSANDRO ISRAEL GOULART               RUA PROFESSORA CARLINDA RIBEIRO - 21 - F            02866200                                                            000026
2SR. CAIXA, APOS O VENCIMENTO COBRAR 10% DE MULTA                                NAO RECEBER APOS 30 DIAS DO VENCIMENTO.                                                                                                                                                                                                         09032100000000000000903210000000000000       0090028004416120042275032112000027
100000000000000000000009002800441612000000000000000000000000010002100060811403211600000000002            2  01608114032125032100000003796160000000001N090321000000000000000000000000000000000000000000000000000000000000000100060811420868HELIO BASSI                             AV.PARIS,575 - PRACA ANTONIO FIGUEROA -             11700082                                                            000029
2SR. CAIXA, APOS O VENCIMENTO COBRAR 10% DE MULTA                                NAO RECEBER APOS 30 DIAS DO VENCIMENTO.                                                                                                                                                                                                         09032100000000000000903210000000000000       0090028004416120608114032116000030
100000000000000000000009002800441612000000000000000000000000010002100001024703211600000000002            2  01010247032125032100000003592170000000001N090321000000000000000000000000000000000000000000000000000000000000000100001024794881CLAUDIO RODRIGUES                       RUA ARACATUBA - 242 - LAPA - SAO PAULO -            05058010                                                            000032
2SR. CAIXA, APOS O VENCIMENTO COBRAR 10% DE MULTA                                NAO RECEBER APOS 30 DIAS DO VENCIMENTO.                                                                                                                                                                                                         09032100000000000000903210000000000000       0090028004416120010247032116000033
100000000000000000000009002800441612000000000000000000000000010002100002225003211700000000002            2  01022250032125032100000005507290000000001N090321000000000000000000000000000000000000000000000000000000000000000100002225072841PEDRO EDUARDO DE AZEVEDO                RUA NATH ZILMAN - 46 - JARDIM SAMAMBAIA             07623085                                                            000035
2SR. CAIXA, APOS O VENCIMENTO COBRAR 10% DE MULTA                                NAO RECEBER APOS 30 DIAS DO VENCIMENTO.                                                                                                                                                                                                         09032100000000000000903210000000000000       0090028004416120022250032117000036
100000000000000000000009002800441612000000000000000000000000010002100022037503211500000000002            2  01220375032125032100000003832460000000001N090321000000000000000000000000000000000000000000000000000000000000000100022037552882ANDREIA CRISTINA FERNANDES DANTAS       PCA CASTRO ALVES - 163 AP.33 - VILA SAO             13224299                                                            000038
2SR. CAIXA, APOS O VENCIMENTO COBRAR 10% DE MULTA                                NAO RECEBER APOS 30 DIAS DO VENCIMENTO.                                                                                                                                                                                                         09032100000000000000903210000000000000       0090028004416120220375032115000039
100000000000000000000009002800441612000000000000000000000000010002100027198403211700000000002            2  01271984032125032100000002643220000000001N090321000000000000000000000000000000000000000000000000000000000000000100027198452809CRISTIANE AURELIANO DA SILVA MAIA       RUA MONTE CASTELO - 262 AP.25 - AVIACAO             11702720                                                            000041
2SR. CAIXA, APOS O VENCIMENTO COBRAR 10% DE MULTA                                NAO RECEBER APOS 30 DIAS DO VENCIMENTO.                                                                                                                                                                                                         09032100000000000000903210000000000000       0090028004416120271984032117000042
100000000000000000000009002800441612000000000000000000000000010002100021246203211000000000002            2  01212462032125032100000003225800000000001N090321000000000000000000000000000000000000000000000000000000000000000100021246231840ALEXANDRO DA CUNHA MIGUES               RUA DULCE - 71  - VILA CARRAO - SAO PAUL            03427040                                                            000044
2SR. CAIXA, APOS O VENCIMENTO COBRAR 10% DE MULTA                                NAO RECEBER APOS 30 DIAS DO VENCIMENTO.                                                                                                                                                                                                         09032100000000000000903210000000000000       0090028004416120212462032110000045
100000000000000000000009002800441612000000000000000000000000010002100018470503211000000000002            2  01184705032125032100000004745610000000001N090321000000000000000000000000000000000000000000000000000000000000000100018470520881SILVANA ALVES DE OLIVEIRA               RUA MONTE CASTELO - 262 AP.91 - AVIACAO             11702720                                                            000047
2SR. CAIXA, APOS O VENCIMENTO COBRAR 10% DE MULTA                                NAO RECEBER APOS 30 DIAS DO VENCIMENTO.                                                                                                                                                                                                         09032100000000000000903210000000000000       0090028004416120184705032110000048
100000000000000000000009002800441612000000000000000000000000010002100009297503211000000000002            2  01092975032125032100000003303840000000001N090321000000000000000000000000000000000000000000000000000000000000000100009297523846MARCOS ROBERTO DE CASTRO FERREIRA       RUA MONTE CASTELO - 262 AP.105 - AVIACAO            11702720                                                            000050
2SR. CAIXA, APOS O VENCIMENTO COBRAR 10% DE MULTA                                NAO RECEBER APOS 30 DIAS DO VENCIMENTO.                                                                                                                                                                                                         09032100000000000000903210000000000000       0090028004416120092975032110000051
100000000000000000000009002800441612000000000000000000000000010002100001164103211P00000000002            2  01011641032125032100000004094230000000001N090321000000000000000000000000000000000000000000000000000000000000000100001164158864DAVID BLEY LACERDA                      RUA CONEGO ARAUJO MARCONDES - 188 - BAIR            02550080                                                            000053
2SR. CAIXA, APOS O VENCIMENTO COBRAR 10% DE MULTA                                NAO RECEBER APOS 30 DIAS DO VENCIMENTO.                                                                                                                                                                                                         09032100000000000000903210000000000000       009002800441612001164103211P000054
100000000000000000000009002800441612000000000000000000000000010002100031498003211300000000002            2  01314980032125032100000004975940000000001N090321000000000000000000000000000000000000000000000000000000000000000100031498008895POLIANE  SIBELE DA SILVA                PRACA GENERAL COSTA BARRETO - 56 AP.181             03325070                                                            000056
2SR. CAIXA, APOS O VENCIMENTO COBRAR 10% DE MULTA                                NAO RECEBER APOS 30 DIAS DO VENCIMENTO.                                                                                                                                                                                                         09032100000000000000903210000000000000       0090028004416120314980032113000057
100000000000000000000009002800441612000000000000000000000000010002100000588103211700000000002            2  01005881032125032100000002918470000000001N090321000000000000000000000000000000000000000000000000000000000000000100000588109860JOSE LIARTE GIANTE                      AVENIDA LUIZ GONZAGA DO AMARAL - 143 - J            09320630                                                            000059
2SR. CAIXA, APOS O VENCIMENTO COBRAR 10% DE MULTA                                NAO RECEBER APOS 30 DIAS DO VENCIMENTO.                                                                                                                                                                                                         09032100000000000000903210000000000000       0090028004416120005881032117000060
100000000000000000000009002800441612000000000000000000000000010002100014386803211P00000000002            2  01143868032125032100000002334670000000001N090321000000000000000000000000000000000000000000000000000000000000000100014386860134SEVERINO CARLOS DE OLIVEIRA             RUA MONTE CASTELO - 262 AP.54 - AVIACAO             11702720                                                            000062
2SR. CAIXA, APOS O VENCIMENTO COBRAR 10% DE MULTA                                NAO RECEBER APOS 30 DIAS DO VENCIMENTO.                                                                                                                                                                                                         09032100000000000000903210000000000000       009002800441612014386803211P000063
100000000000000000000009002800441612000000000000000000000000010002100039393703211500000000002            2  01393937032125032100000001609080000000001N090321000000000000000000000000000000000000000000000000000000000000000100039393790850NAIRON RICARDO DE ARAUJO SANTOS         RUA NITEROI - 267 CASA 04 - JARDIM INDEP            11380350                                                            000065
2SR. CAIXA, APOS O VENCIMENTO COBRAR 10% DE MULTA                                NAO RECEBER APOS 30 DIAS DO VENCIMENTO.                                                                                                                                                                                                         09032100000000000000903210000000000000       0090028004416120393937032115000066
100000000000000000000009002800441612000000000000000000000000010002100004735203211400000000002            2  01047352032125032100000001659780000000001N090321000000000000000000000000000000000000000000000000000000000000000100004735273832DARIO LUIZ GONCALVES                    RUA MONTE CASTELO - 295 AP.113 - AVIACAO            11702720                                                            000068
2SR. CAIXA, APOS O VENCIMENTO COBRAR 10% DE MULTA                                NAO RECEBER APOS 30 DIAS DO VENCIMENTO.                                                                                                                                                                                                         09032100000000000000903210000000000000       0090028004416120047352032114000069
100000000000000000000009002800441612000000000000000000000000010002100019288703211300000000002            2  01192887032125032100000002167000000000001N090321000000000000000000000000000000000000000000000000000000000000000100019288787844EMERSON LUIZ MARTINEZ PEREIRA           RUA MONTE CASTELO - 296 AP.74 - AVIACAO             11702720                                                            000071
2SR. CAIXA, APOS O VENCIMENTO COBRAR 10% DE MULTA                                NAO RECEBER APOS 30 DIAS DO VENCIMENTO.                                                                                                                                                                                                         09032100000000000000903210000000000000       0090028004416120192887032113000072
9                                                                                                                                                                                                                                                                                                                                                                                                         000073