01REMESSA01COBRANCA       00000000000008017025HB SANTOS CONSTRUTORA E INCORP237BRADESCO       010422        MX0000150                                                                                                                                                                                                                                                                                     000001
100000000000000000000009033990000627000000000000000000000000010002020016479004221800000000002            2  01164790042209042200000004759860000000001N010422000000000000000000000000000000000000000000000000000000000000000100016479002806LOURDES PEREIRA DE QUEIROZ SECANECHIA   RUA PAULINO CURSI - 437 - CIDADE SAO MAT            03960060                                                            000002
2SR. CAIXA, APOS O VENCIMENTO COBRAR 2% DE MULTA                                 NAO RECEBER APOS 30 DIAS DO VENCIMENTO.                                                                                                                                                                                                         01042200000000000000104220000000000000       0090339900006270164790042218000003
100000000000000000000009033990000627000000000000000000000000010002020009361404221500000000002            2  01093614042209042200000003455680000000001N010422000000000000000000000000000000000000000000000000000000000000000100009361471805JOSE BARBOSA DA SILVA                   RUA ALFREDO INACIO TRINDADE  - 60 AP.44             02344100                                                            000005
2SR. CAIXA, APOS O VENCIMENTO COBRAR 2% DE MULTA                                 NAO RECEBER APOS 30 DIAS DO VENCIMENTO.                                                                                                                                                                                                         01042200000000000000104220000000000000       0090339900006270093614042215000006
100000000000000000000009033990000627000000000000000000000000010002020012756904221900000000002            2  01127569042209042200000002983000000000001N010422000000000000000000000000000000000000000000000000000000000000000100012756959812ITAMAR JUVENAL DIAS DA SILVA            RUA ELISEU REINALDO MORAES VIEIRA - 90 A            02858000                                                            000008
2SR. CAIXA, APOS O VENCIMENTO COBRAR 2% DE MULTA                                 NAO RECEBER APOS 30 DIAS DO VENCIMENTO.                                                                                                                                                                                                         01042200000000000000104220000000000000       0090339900006270127569042219000009
100000000000000000000009033990000627000000000000000000000000010002020029433604221200000000002            2  01294336042211042200000002472290000000001N010422000000000000000000000000000000000000000000000000000000000000000100029433631897MARIO MUNIZ                             RUA JOSE CALIXTO DO CARMO - 286 AP.53 -             11702690                                                            000011
2SR. CAIXA, APOS O VENCIMENTO COBRAR 2% DE MULTA                                 NAO RECEBER APOS 30 DIAS DO VENCIMENTO.                                                                                                                                                                                                         01042200000000000000104220000000000000       0090339900006270294336042212000012
100000000000000000000009033990000627000000000000000000000000010002020005029804221500000000002            2  01050298042209042200000003041340000000001N010422000000000000000000000000000000000000000000000000000000000000000100005029828885LAURINETE DA CONCEICAO DE NORONHA       RUA MARIA LUCIA DE TOLEDO LEITE MORAES -            04434040                                                            000014
2SR. CAIXA, APOS O VENCIMENTO COBRAR 2% DE MULTA                                 NAO RECEBER APOS 30 DIAS DO VENCIMENTO.                                                                                                                                                                                                         01042200000000000000104220000000000000       0090339900006270050298042215000015
100000000000000000000009033990000627000000000000000000000000010002020013388904221700000000002            2  01133889042211042200000002410080000000001N010422000000000000000000000000000000000000000000000000000000000000000100013388936889NEUTON DE SOUZA RAMOS                   RUA MARIA CRISTINA - 932 - JARDIM CASQUE            11533160                                                            000017
2SR. CAIXA, APOS O VENCIMENTO COBRAR 2% DE MULTA                                 NAO RECEBER APOS 30 DIAS DO VENCIMENTO.                                                                                                                                                                                                         01042200000000000000104220000000000000       0090339900006270133889042217000018
100000000000000000000009033990000627000000000000000000000000010002020012774904221700000000002            2  01127749042211042200000002455340000000001N010422000000000000000000000000000000000000000000000000000000000000000100012774906865JOSE MILTON SANTIAGO                    RUA BATATAIS - 47 - CIDADE ESTELA - POA             08563140                                                            000020
2SR. CAIXA, APOS O VENCIMENTO COBRAR 2% DE MULTA                                 NAO RECEBER APOS 30 DIAS DO VENCIMENTO.                                                                                                                                                                                                         01042200000000000000104220000000000000       0090339900006270127749042217000021
100000000000000000000009033990000627000000000000000000000000010002020016294104221200000000002            2  01162941042209042200000003019520000000001N010422000000000000000000000000000000000000000000000000000000000000000100016294119812JURACY FELIX DE ARRUDA                  RUA CARLOS JOSE BORSTENS - 50 AP.23 - AV            11702750                                                            000023
2SR. CAIXA, APOS O VENCIMENTO COBRAR 2% DE MULTA                                 NAO RECEBER APOS 30 DIAS DO VENCIMENTO.                                                                                                                                                                                                         01042200000000000000104220000000000000       0090339900006270162941042212000024
100000000000000000000009033990000627000000000000000000000000010002020005613804221700000000002            2  01056138042211042200000002258220000000001N010422000000000000000000000000000000000000000000000000000000000000000100005613843805NILZA MARIA DE OLIVEIRA                 RUA JOSE GONCALVES DE FREITAS - 66 C2 -             08210550                                                            000026
2SR. CAIXA, APOS O VENCIMENTO COBRAR 2% DE MULTA                                 NAO RECEBER APOS 30 DIAS DO VENCIMENTO.                                                                                                                                                                                                         01042200000000000000104220000000000000       0090339900006270056138042217000027
100000000000000000000009033990000627000000000000000000000000010002020007574904221700000000002            2  01075749042211042200000002318010000000001N010422000000000000000000000000000000000000000000000000000000000000000100007574936889JORGE LUCIANO PEREIRA BORRIELLO         RUA JOSE CALIXTO DO CARMO - 286 AP.54 -             11702690                                                            000029
2SR. CAIXA, APOS O VENCIMENTO COBRAR 2% DE MULTA                                 NAO RECEBER APOS 30 DIAS DO VENCIMENTO.                                                                                                                                                                                                         01042200000000000000104220000000000000       0090339900006270075749042217000030
100000000000000000000009033990000627000000000000000000000000010002020008214904221P00000000002            2  01082149042211042200000002353170000000001N010422000000000000000000000000000000000000000000000000000000000000000100008214973830JAMIL CHALA                             RUA JOSE CALIXTO DO CARMO - 286 AP.22 -             11702690                                                            000032
2SR. CAIXA, APOS O VENCIMENTO COBRAR 2% DE MULTA                                 NAO RECEBER APOS 30 DIAS DO VENCIMENTO.                                                                                                                                                                                                         01042200000000000000104220000000000000       009033990000627008214904221P000033
100000000000000000000009033990000627000000000000000000000000010002020032495004221700000000002            2  01324950042211042200000002637040000000001N010422000000000000000000000000000000000000000000000000000000000000000100032495004881PAULO EDUARDO DOS SANTOS                RUA REPUBLICA DO IRAQUE - 1119 - CAMPO B            04611002                                                            000035
2SR. CAIXA, APOS O VENCIMENTO COBRAR 2% DE MULTA                                 NAO RECEBER APOS 30 DIAS DO VENCIMENTO.                                                                                                                                                                                                         01042200000000000000104220000000000000       0090339900006270324950042217000036
100000000000000000000009033990000627000000000000000000000000010002020016498004221400000000002            2  01164980042211042200000002312750000000001N010422000000000000000000000000000000000000000000000000000000000000000100016498053810GILMA CEZARIO GARCIA CORRITORI          RUA LAURENTINO XAVIER DOS SANTOS - 336 -            08240740                                                            000038
2SR. CAIXA, APOS O VENCIMENTO COBRAR 2% DE MULTA                                 NAO RECEBER APOS 30 DIAS DO VENCIMENTO.                                                                                                                                                                                                         01042200000000000000104220000000000000       0090339900006270164980042214000039
100000000000000000000009033990000627000000000000000000000000010002020029339004221300000000002            2  01293390042211042200000002473100000000001N010422000000000000000000000000000000000000000000000000000000000000000100029339051831RONALD DIDOFF                           RUA CORONEL FERREIRA BRAGA - 188 - VILA             03522010                                                            000041
2SR. CAIXA, APOS O VENCIMENTO COBRAR 2% DE MULTA                                 NAO RECEBER APOS 30 DIAS DO VENCIMENTO.                                                                                                                                                                                                         01042200000000000000104220000000000000       0090339900006270293390042213000042
100000000000000000000009033990000627000000000000000000000000010002020017357804221500000000002            2  01173578042211042200000002619230000000001N010422000000000000000000000000000000000000000000000000000000000000000100017357859894MARCIO GUIMARAES                        RUA GENERAL CAMARA - 188 SALA 11 - CENTR            11010120                                                            000044
2SR. CAIXA, APOS O VENCIMENTO COBRAR 2% DE MULTA                                 NAO RECEBER APOS 30 DIAS DO VENCIMENTO.                                                                                                                                                                                                         01042200000000000000104220000000000000       0090339900006270173578042215000045
100000000000000000000009033990000627000000000000000000000000010002020010563004221500000000002            2  01105630042211042200000002686170000000001N010422000000000000000000000000000000000000000000000000000000000000000100010563033878VERA LUCIA RIBEIRO LONGANEZI            RUA DOS CAMARES - 150 AP.24 BL.02 - CARA            02068030                                                            000047
2SR. CAIXA, APOS O VENCIMENTO COBRAR 2% DE MULTA                                 NAO RECEBER APOS 30 DIAS DO VENCIMENTO.                                                                                                                                                                                                         01042200000000000000104220000000000000       0090339900006270105630042215000048
100000000000000000000009033990000627000000000000000000000000010002020005529604221P00000000002            2  01055296042211042200000002437620000000001N010422000000000000000000000000000000000000000000000000000000000000000100005529616801JOAQUIM JORGE DA COSTA                  RUA JOSE CALIXTO DO CARMO - 286 AP.106 -            11702690                                                            000050
2SR. CAIXA, APOS O VENCIMENTO COBRAR 2% DE MULTA                                 NAO RECEBER APOS 30 DIAS DO VENCIMENTO.                                                                                                                                                                                                         01042200000000000000104220000000000000       009033990000627005529604221P000051
100000000000000000000009033990000627000000000000000000000000010002020015550704221600000000002            2  01155507042209042200000002305330000000001N010422000000000000000000000000000000000000000000000000000000000000000100015550706806MARY MIWA                               RUA CARLOS JOSE BORSTENS - 50 AP.105 - A            11702750                                                            000053
2SR. CAIXA, APOS O VENCIMENTO COBRAR 2% DE MULTA                                 NAO RECEBER APOS 30 DIAS DO VENCIMENTO.                                                                                                                                                                                                         01042200000000000000104220000000000000       0090339900006270155507042216000054
100000000000000000000009033990000627000000000000000000000000010002020015464604221600000000002            2  01154646042211042200000002562510000000001N010422000000000000000000000000000000000000000000000000000000000000000100015464647864SONIA TERESA VOLPATO                    RUA JOSE CALIXTO DO CARMO - 286 AP.73 -             11702690                                                            000056
2SR. CAIXA, APOS O VENCIMENTO COBRAR 2% DE MULTA                                 NAO RECEBER APOS 30 DIAS DO VENCIMENTO.                                                                                                                                                                                                         01042200000000000000104220000000000000       0090339900006270154646042216000057
100000000000000000000009033990000627000000000000000000000000010002020008657804221500000000002            2  01086578042211042200000002536780000000001N010422000000000000000000000000000000000000000000000000000000000000000100008657886855ARLINDO DA CRUZ                         AVENIDA ARICANDUVA - 8.256 AP.54 BL.10 -            03951220                                                            000059
2SR. CAIXA, APOS O VENCIMENTO COBRAR 2% DE MULTA                                 NAO RECEBER APOS 30 DIAS DO VENCIMENTO.                                                                                                                                                                                                         01042200000000000000104220000000000000       0090339900006270086578042215000060
100000000000000000000009033990000627000000000000000000000000010002020059735104221300000000002            2  01597351042209042200000001434740000000001N010422000000000000000000000000000000000000000000000000000000000000000100059735180863HELIO JOSE MARQUES                      RUA MARTIM AFONSO DE SOUZA - 1007 AP.102            11702790                                                            000062
2SR. CAIXA, APOS O VENCIMENTO COBRAR 2% DE MULTA                                 NAO RECEBER APOS 30 DIAS DO VENCIMENTO.                                                                                                                                                                                                         01042200000000000000104220000000000000       0090339900006270597351042213000063
100000000000000000000009033990000627000000000000000000000000010002020026347804221700000000002            2  01263478042211042200000002711760000000001N010422000000000000000000000000000000000000000000000000000000000000000100026347872862VALDECI SILVA MEIRELES                  RUA JOSE BATISTA DA SILVA - 292 - JARDIM            06851470                                                            000065
2SR. CAIXA, APOS O VENCIMENTO COBRAR 2% DE MULTA                                 NAO RECEBER APOS 30 DIAS DO VENCIMENTO.                                                                                                                                                                                                         01042200000000000000104220000000000000       0090339900006270263478042217000066
100000000000000000000009033990000627000000000000000000000000010002020013135204221800000000002            2  01131352042211042200000002491420000000001N010422000000000000000000000000000000000000000000000000000000000000000100013135261859EDUARDO ZANOLA                          RUA ROLANDO PIETRO BONINI - 46 - JARDIM             09781040                                                            000068
2SR. CAIXA, APOS O VENCIMENTO COBRAR 2% DE MULTA                                 NAO RECEBER APOS 30 DIAS DO VENCIMENTO.                                                                                                                                                                                                         01042200000000000000104220000000000000       0090339900006270131352042218000069
100000000000000000000009033990000627000000000000000000000000010002020009797604221900000000002            2  01097976042211042200000002426370000000001N010422000000000000000000000000000000000000000000000000000000000000000100009797626857RICARDO SOBRAL DE OLIVEIRA              RUA 23 DE MAIO - 139 AP.32 - VILA MIRIM             11704690                                                            000071
2SR. CAIXA, APOS O VENCIMENTO COBRAR 2% DE MULTA                                 NAO RECEBER APOS 30 DIAS DO VENCIMENTO.                                                                                                                                                                                                         01042200000000000000104220000000000000       0090339900006270097976042219000072
100000000000000000000009033990000627000000000000000000000000010002020004767604221P00000000002            2  01047676042209042200000004150130000000001N010422000000000000000000000000000000000000000000000000000000000000000100004767679893ORLANDO GRANDE FILHO                    RUA ORLANDO MIGLIARI - 101 - JARDIM OURO            19906140                                                            000074
2SR. CAIXA, APOS O VENCIMENTO COBRAR 2% DE MULTA                                 NAO RECEBER APOS 30 DIAS DO VENCIMENTO.                                                                                                                                                                                                         01042200000000000000104220000000000000       009033990000627004767604221P000075
100000000000000000000009033990000627000000000000000000000000010002020006512504221700000000002            2  01065125042211042200000002182630000000001N010422000000000000000000000000000000000000000000000000000000000000000100006512547870MARIA DO CARMO FAGUNDES DOS REIS        RUA CARLOS MALCHER - 98 - PARQUE EDU CHA            02232020                                                            000077
2SR. CAIXA, APOS O VENCIMENTO COBRAR 2% DE MULTA                                 NAO RECEBER APOS 30 DIAS DO VENCIMENTO.                                                                                                                                                                                                         01042200000000000000104220000000000000       0090339900006270065125042217000078
100000000000000000000009033990000627000000000000000000000000010002020022728404221P00000000002            2  01227284042211042200000002625510000000001N010422000000000000000000000000000000000000000000000000000000000000000100022728497842WILLIAN DE SOUZA MELLO                  RUA JOSE CALIXTO DO CARMO - 286 AP.111 -            11702690                                                            000080
2SR. CAIXA, APOS O VENCIMENTO COBRAR 2% DE MULTA                                 NAO RECEBER APOS 30 DIAS DO VENCIMENTO.                                                                                                                                                                                                         01042200000000000000104220000000000000       009033990000627022728404221P000081
100000000000000000000009033990000627000000000000000000000000010002020016909704221400000000002            2  01169097042211042200000002320110000000001N010422000000000000000000000000000000000000000000000000000000000000000100016909746805EDIVALDO SANTANA DOS SANTOS             ESTRADA JOAO GASPAR DELGADO - 80 AP.213             08536100                                                            000083
2SR. CAIXA, APOS O VENCIMENTO COBRAR 2% DE MULTA                                 NAO RECEBER APOS 30 DIAS DO VENCIMENTO.                                                                                                                                                                                                         01042200000000000000104220000000000000       0090339900006270169097042214000084
100000000000000000000009033990000627000000000000000000000000010002020022036004221100000000002            2  01220360042209042200000003603840000000001N010422000000000000000000000000000000000000000000000000000000000000000100022036003818DERLIS TERAN QUIROGA ROGATO             RUA JOAO RIBEIRO - 320 AP.131SB - CAMPES            09070250                                                            000086
2SR. CAIXA, APOS O VENCIMENTO COBRAR 2% DE MULTA                                 NAO RECEBER APOS 30 DIAS DO VENCIMENTO.                                                                                                                                                                                                         01042200000000000000104220000000000000       0090339900006270220360042211000087
100000000000000000000009033990000627000000000000000000000000010002020017229704223600000000002            2  01172297042209042200000003478030000000001N010422000000000000000000000000000000000000000000000000000000000000000100017229751802BERENICE VIEIRA KERSTING                RUA ATIBAIA - 17 AP.417 - BAIRRO IMPERAD            11707380                                                            000089
2SR. CAIXA, APOS O VENCIMENTO COBRAR 2% DE MULTA                                 NAO RECEBER APOS 30 DIAS DO VENCIMENTO.                                                                                                                                                                                                         01042200000000000000104220000000000000       0090339900006270172297042236000090
100000000000000000000009033990000627000000000000000000000000010002020012475604221500000000002            2  01124756042211042200000002514900000000001N010422000000000000000000000000000000000000000000000000000000000000000100012475663820CELIDALVA GOES DE CARVALHO              RUA JOSE CALIXTO DO CARMO - 286 AP.91 -             11702690                                                            000092
2SR. CAIXA, APOS O VENCIMENTO COBRAR 2% DE MULTA                                 NAO RECEBER APOS 30 DIAS DO VENCIMENTO.                                                                                                                                                                                                         01042200000000000000104220000000000000       0090339900006270124756042215000093
100000000000000000000009033990000627000000000000000000000000010002020033451604221200000000002            2  01334516042211042200000002100100000000001N010422000000000000000000000000000000000000000000000000000000000000000100033451620839ARAO ELISIARIO  NUNES                   RUA JOSE CALIXTO DO CARMO - 286 AP.64 -             11702690                                                            000095
2SR. CAIXA, APOS O VENCIMENTO COBRAR 2% DE MULTA                                 NAO RECEBER APOS 30 DIAS DO VENCIMENTO.                                                                                                                                                                                                         01042200000000000000104220000000000000       0090339900006270334516042212000096
100000000000000000000009033990000627000000000000000000000000010002020045839204221P00000000002            2  01458392042211042200000001630050000000001N010422000000000000000000000000000000000000000000000000000000000000000100045839263834LEONARDO ANTONIO CONCELLIERI            RUA JOSE CALIXTO DO CARMO - 286 AP.51 -             11702690                                                            000098
2SR. CAIXA, APOS O VENCIMENTO COBRAR 2% DE MULTA                                 NAO RECEBER APOS 30 DIAS DO VENCIMENTO.                                                                                                                                                                                                         01042200000000000000104220000000000000       009033990000627045839204221P000099
100000000000000000000009033990000627000000000000000000000000010002020011369104221000000000002            2  01113691042211042200000002294100000000001N010422000000000000000000000000000000000000000000000000000000000000000100011369165803ELIANA CORREA DE OLIVEIRA               RUA MAESTRO ZEFERINO SANTANA - 65 - VILA            18040010                                                            000101
2SR. CAIXA, APOS O VENCIMENTO COBRAR 2% DE MULTA                                 NAO RECEBER APOS 30 DIAS DO VENCIMENTO.                                                                                                                                                                                                         01042200000000000000104220000000000000       0090339900006270113691042210000102
100000000000000000000009033990000627000000000000000000000000010002020002253804221400000000002            2  01022538042211042200000002039010000000001N010422000000000000000000000000000000000000000000000000000000000000000100002253816809EDMILSON ALVES DA SILVA                 RUA JOSE CALIXTO DO CARMO - 286 AP.93 -             11702690                                                            000104
2SR. CAIXA, APOS O VENCIMENTO COBRAR 2% DE MULTA                                 NAO RECEBER APOS 30 DIAS DO VENCIMENTO.                                                                                                                                                                                                         01042200000000000000104220000000000000       0090339900006270022538042214000105
100000000000000000000009033990000627000000000000000000000000010002020037947004221600000000002            2  01379470042211042200000003621420000000001N010422000000000000000000000000000000000000000000000000000000000000000100037947070873BRUNO DE CAETANO MARRINHAS              AVENIDA GENERAL BARRETO DE MENEZES - 323            09791150                                                            000107
2SR. CAIXA, APOS O VENCIMENTO COBRAR 2% DE MULTA                                 NAO RECEBER APOS 30 DIAS DO VENCIMENTO.                                                                                                                                                                                                         01042200000000000000104220000000000000       0090339900006270379470042216000108
100000000000000000000009033990000627000000000000000000000000010002020037517704221400000000002            2  01375177042209042200000003822440000000001N010422000000000000000000000000000000000000000000000000000000000000000100037517785869RENATO JOSE DE LIMA MELO                RUA ARISTIDES LOBO - 148 AP.41 BLOCO 03             03041100                                                            000110
2SR. CAIXA, APOS O VENCIMENTO COBRAR 2% DE MULTA                                 NAO RECEBER APOS 30 DIAS DO VENCIMENTO.                                                                                                                                                                                                         01042200000000000000104220000000000000       0090339900006270375177042214000111
100000000000000000000009033990000627000000000000000000000000010002020070367904221500000000002            2  01703679042211042200000003596740000000001N010422000000000000000000000000000000000000000000000000000000000000000100070367949849TEODOMIRO ALVES DOS SANTOS              RUA ANDRE PAZ - 13 - JARDIM SANTO ANDRE             08390230                                                            000113
2SR. CAIXA, APOS O VENCIMENTO COBRAR 2% DE MULTA                                 NAO RECEBER APOS 30 DIAS DO VENCIMENTO.                                                                                                                                                                                                         01042200000000000000104220000000000000       0090339900006270703679042215000114
100000000000000000000009033990000627000000000000000000000000010002020070367904222300000000002            2  01703679042211042200000001914760000000001N010422000000000000000000000000000000000000000000000000000000000000000100070367949849TEODOMIRO ALVES DOS SANTOS              RUA ANDRE PAZ - 13 - JARDIM SANTO ANDRE             08390230                                                            000116
2SR. CAIXA, APOS O VENCIMENTO COBRAR 2% DE MULTA                                 NAO RECEBER APOS 30 DIAS DO VENCIMENTO.                                                                                                                                                                                                         01042200000000000000104220000000000000       0090339900006270703679042223000117
100000000000000000000009033990000627000000000000000000000000010002020004410804221400000000002            2  01044108042209042200000002840120000000001N010422000000000000000000000000000000000000000000000000000000000000000100004410802860LUIZ ALBERTO MARINHO                    RUA DA INDEPENDENCIA - 706 AP.41B - CAMB            01524000                                                            000119
2SR. CAIXA, APOS O VENCIMENTO COBRAR 2% DE MULTA                                 NAO RECEBER APOS 30 DIAS DO VENCIMENTO.                                                                                                                                                                                                         01042200000000000000104220000000000000       0090339900006270044108042214000120
100000000000000000000009033990000627000000000000000000000000010002020018035004221100000000002            2  01180350042211042200000002562700000000001N010422000000000000000000000000000000000000000000000000000000000000000100018035075861ROSANGELA BISPO SANTOS                  RUA CASSIANO GABUS MENDES - 292 - JD. CA            09896160                                                            000122
2SR. CAIXA, APOS O VENCIMENTO COBRAR 2% DE MULTA                                 NAO RECEBER APOS 30 DIAS DO VENCIMENTO.                                                                                                                                                                                                         01042200000000000000104220000000000000       0090339900006270180350042211000123
100000000000000000000009033990000627000000000000000000000000010002020004767604222800000000002            2  01047676042209042200000003791490000000001N010422000000000000000000000000000000000000000000000000000000000000000100004767679893ORLANDO GRANDE FILHO                    RUA ORLANDO MIGLIARI - 101 - JARDIM OURO            19906140                                                            000125
2SR. CAIXA, APOS O VENCIMENTO COBRAR 2% DE MULTA                                 NAO RECEBER APOS 30 DIAS DO VENCIMENTO.                                                                                                                                                                                                         01042200000000000000104220000000000000       0090339900006270047676042228000126
100000000000000000000009033990000627000000000000000000000000010002020064677804221500000000002            2  01646778042209042200000003049960000000001N010422000000000000000000000000000000000000000000000000000000000000000100064677850887ANTONIO CARLOS DE OLIVEIRA              RUA DR.ANTONIO MAZILLI FILHO - 435 - PAR            02230070                                                            000128
2SR. CAIXA, APOS O VENCIMENTO COBRAR 2% DE MULTA                                 NAO RECEBER APOS 30 DIAS DO VENCIMENTO.                                                                                                                                                                                                         01042200000000000000104220000000000000       0090339900006270646778042215000129
100000000000000000000009033990000627000000000000000000000000010002020007328904221000000000002            2  01073289042209042200000003721120000000001N010422000000000000000000000000000000000000000000000000000000000000000100007328927836BENEDITO APARECIDO ROCHA                AVENIDA SENADOR JOSE ERMINIO DE MORAES -            02357002                                                            000131
2SR. CAIXA, APOS O VENCIMENTO COBRAR 2% DE MULTA                                 NAO RECEBER APOS 30 DIAS DO VENCIMENTO.                                                                                                                                                                                                         01042200000000000000104220000000000000       0090339900006270073289042210000132
100000000000000000000009033990000627000000000000000000000000010002020058488604221800000000002            2  01584886042209042200000002781790000000001N010422000000000000000000000000000000000000000000000000000000000000000100058488618972ADAILTON ZANUTTO MORESCHI               R:RAPHAEL UNGARO - COND.RESERVA SERRA Q.            13212138                                                            000134
2SR. CAIXA, APOS O VENCIMENTO COBRAR 2% DE MULTA                                 NAO RECEBER APOS 30 DIAS DO VENCIMENTO.                                                                                                                                                                                                         01042200000000000000104220000000000000       0090339900006270584886042218000135
100000000000000000000009033990000627000000000000000000000000010002020002196004221200000000002            2  01021960042211042200000002091120000000001N010422000000000000000000000000000000000000000000000000000000000000000100002196012831VILEFORT DIAS BORGES                    RUA PORTO XAVIER - 189 AP.64 - VILA CARM            08210170                                                            000137
2SR. CAIXA, APOS O VENCIMENTO COBRAR 2% DE MULTA                                 NAO RECEBER APOS 30 DIAS DO VENCIMENTO.                                                                                                                                                                                                         01042200000000000000104220000000000000       0090339900006270021960042212000138
100000000000000000000009033990000627000000000000000000000000010002020031861504221000000000002            2  01318615042211042200000002173480000000001N010422000000000000000000000000000000000000000000000000000000000000000100031861586809VANIA TOMAZ                              -  -  -  -                                         00000000                                                            000140
2SR. CAIXA, APOS O VENCIMENTO COBRAR 2% DE MULTA                                 NAO RECEBER APOS 30 DIAS DO VENCIMENTO.                                                                                                                                                                                                         01042200000000000000104220000000000000       0090339900006270318615042210000141
100000000000000000000009033990000627000000000000000000000000010002020003104504221400000000002            2  01031045042209042200000008097690000000001N010422000000000000000000000000000000000000000000000000000000000000000100003104580804NELSON RODRIGUES                        RUA CARLOS JOSE BORSTENS - 50 AP.81 - AV            11702750                                                            000143
2SR. CAIXA, APOS O VENCIMENTO COBRAR 2% DE MULTA                                 NAO RECEBER APOS 30 DIAS DO VENCIMENTO.                                                                                                                                                                                                         01042200000000000000104220000000000000       0090339900006270031045042214000144
100000000000000000000009033990000627000000000000000000000000010002020007715304221200000000002            2  01077153042209042200000003421270000000001N010422000000000000000000000000000000000000000000000000000000000000000100007715360627NILTON RENNAN OLIVEIRA GOMES FILHO      RUA CARLOS JOSE BORSTENS - 50 AP.21 - AV            11702750                                                            000146
2SR. CAIXA, APOS O VENCIMENTO COBRAR 2% DE MULTA                                 NAO RECEBER APOS 30 DIAS DO VENCIMENTO.                                                                                                                                                                                                         01042200000000000000104220000000000000       0090339900006270077153042212000147
100000000000000000000009033990000627000000000000000000000000010002020007194004221300000000002            2  01071940042211042200000002430500000000001N010422000000000000000000000000000000000000000000000000000000000000000100007194010895RAUL AMANTINO KIRK DE SANCTIS           AVENIDA SANTA CATARINA - 756 AP.01 - VIL            04378000                                                            000149
2SR. CAIXA, APOS O VENCIMENTO COBRAR 2% DE MULTA                                 NAO RECEBER APOS 30 DIAS DO VENCIMENTO.                                                                                                                                                                                                         01042200000000000000104220000000000000       0090339900006270071940042213000150
100000000000000000000009033990000627000000000000000000000000010002020025738604221000000000002            2  01257386042209042200000004913710000000001N010422000000000000000000000000000000000000000000000000000000000000000100025738614810VILMAR JOSE PEREIRA                     ALAMEDA TIETE - 646 - CERQUEIRA CESAR -             01417020                                                            000152
2SR. CAIXA, APOS O VENCIMENTO COBRAR 2% DE MULTA                                 NAO RECEBER APOS 30 DIAS DO VENCIMENTO.                                                                                                                                                                                                         01042200000000000000104220000000000000       0090339900006270257386042210000153
100000000000000000000009033990000627000000000000000000000000010002020025738604222900000000002            2  01257386042209042200000004913690000000001N010422000000000000000000000000000000000000000000000000000000000000000100025738614810VILMAR JOSE PEREIRA                     ALAMEDA TIETE - 646 - CERQUEIRA CESAR -             01417020                                                            000155
2SR. CAIXA, APOS O VENCIMENTO COBRAR 2% DE MULTA                                 NAO RECEBER APOS 30 DIAS DO VENCIMENTO.                                                                                                                                                                                                         01042200000000000000104220000000000000       0090339900006270257386042229000156
100000000000000000000009033990000627000000000000000000000000010002020025738604223700000000002            2  01257386042209042200000004913700000000001N010422000000000000000000000000000000000000000000000000000000000000000100025738614810VILMAR JOSE PEREIRA                     ALAMEDA TIETE - 646 - CERQUEIRA CESAR -             01417020                                                            000158
2SR. CAIXA, APOS O VENCIMENTO COBRAR 2% DE MULTA                                 NAO RECEBER APOS 30 DIAS DO VENCIMENTO.                                                                                                                                                                                                         01042200000000000000104220000000000000       0090339900006270257386042237000159
100000000000000000000009033990000627000000000000000000000000010002020011141504221200000000002            2  01111415042211042200000002553990000000001N010422000000000000000000000000000000000000000000000000000000000000000100011141508869PAULO ROBERTO TUNES SILVA               RUA PETROBRAS - 405 CASA 07 - VILA ANTON            03474060                                                            000161
2SR. CAIXA, APOS O VENCIMENTO COBRAR 2% DE MULTA                                 NAO RECEBER APOS 30 DIAS DO VENCIMENTO.                                                                                                                                                                                                         01042200000000000000104220000000000000       0090339900006270111415042212000162
100000000000000000000009033990000627000000000000000000000000010002020012449104221800000000002            2  01124491042211042200000002573500000000001N010422000000000000000000000000000000000000000000000000000000000000000100012449104810GILBERTO DOS SANTOS JUNIOR              RUA ALMIRANTE TAMANDARE - 89 AP.143 - BA            09310350                                                            000164
2SR. CAIXA, APOS O VENCIMENTO COBRAR 2% DE MULTA                                 NAO RECEBER APOS 30 DIAS DO VENCIMENTO.                                                                                                                                                                                                         01042200000000000000104220000000000000       0090339900006270124491042218000165
100000000000000000000009033990000627000000000000000000000000010002020011261304221600000000002            2  01112613042209042200000003396800000000001N010422000000000000000000000000000000000000000000000000000000000000000100011261359844JOVANETE DOS SANTOS PASSOS              RUA FULVIO MORGANTI - 672 - JARDIM PARAI            02417170                                                            000167
2SR. CAIXA, APOS O VENCIMENTO COBRAR 2% DE MULTA                                 NAO RECEBER APOS 30 DIAS DO VENCIMENTO.                                                                                                                                                                                                         01042200000000000000104220000000000000       0090339900006270112613042216000168
9                                                                                                                                                                                                                                                                                                                                                                                                         000169