01REMESSA01COBRANCA       00000000000005331186HB SANTOS CONSTRUTORA E INCORP237BRADESCO       011121        MX0000035                                                                                                                                                                                                                                                                                     000001
100000000000000000000009033990000995400000000000000000000000010002020026858611211800000000002            2  01268586112108112100000002684840000000001N011121000000000000000000000000000000000000000000000000000000000000000100026858625879GLAUCE FERREIRA DE OLIVEIRA FALSI       RUA LOURENCO ANTONIO BRAGANCA - 116 - JA            04403160                                                            000002
2SR. CAIXA, APOS O VENCIMENTO COBRAR 2% DE MULTA                                 NAO RECEBER APOS 30 DIAS DO VENCIMENTO.                                                                                                                                                                                                         01112100000000000000111210000000000000       0090339900009954268586112118000003
100000000000000000000009033990000995400000000000000000000000010002020016960811211900000000002            2  01169608112108112100000002563570000000001N011121000000000000000000000000000000000000000000000000000000000000000100016960804876LUIZ ALVES DE SOUZA JUNIOR              RUA FRANCISCO ALVES - 394 CASA B - PAECA            11450320                                                            000005
2SR. CAIXA, APOS O VENCIMENTO COBRAR 2% DE MULTA                                 NAO RECEBER APOS 30 DIAS DO VENCIMENTO.                                                                                                                                                                                                         01112100000000000000111210000000000000       0090339900009954169608112119000006
100000000000000000000009033990000995400000000000000000000000010002020008899311211600000000002            2  01088993112108112100000002546900000000001N011121000000000000000000000000000000000000000000000000000000000000000100008899362858ELAINE D ALMEIDA FERDINANDY             ALAMEDA SUBTENENTE AVIADOR FRANCISCO HIE            02187040                                                            000008
2SR. CAIXA, APOS O VENCIMENTO COBRAR 2% DE MULTA                                 NAO RECEBER APOS 30 DIAS DO VENCIMENTO.                                                                                                                                                                                                         01112100000000000000111210000000000000       0090339900009954088993112116000009
100000000000000000000009033990000995400000000000000000000000010002020029425011211000000000002            2  01294250112108112100000002553280000000001N011121000000000000000000000000000000000000000000000000000000000000000100029425027897FABIA DOS SANTOS DE ANDRADE             AVENIDA ALCIDES CANDIDO DOS SANTOS - 248            11705480                                                            000011
2SR. CAIXA, APOS O VENCIMENTO COBRAR 2% DE MULTA                                 NAO RECEBER APOS 30 DIAS DO VENCIMENTO.                                                                                                                                                                                                         01112100000000000000111210000000000000       0090339900009954294250112110000012
100000000000000000000009033990000995400000000000000000000000010002020078382711211600000000002            2  01783827112108112100000002580230000000001N011121000000000000000000000000000000000000000000000000000000000000000100078382700497JARMELINA BARBOSA DA SILVA              RUA OSCAR CINTRA GORDINHO - 211 AP.51 -             01512010                                                            000014
2SR. CAIXA, APOS O VENCIMENTO COBRAR 2% DE MULTA                                 NAO RECEBER APOS 30 DIAS DO VENCIMENTO.                                                                                                                                                                                                         01112100000000000000111210000000000000       0090339900009954783827112116000015
100000000000000000000009033990000995400000000000000000000000010002020007535311211500000000002            2  01075353112108112100000002530230000000001N011121000000000000000000000000000000000000000000000000000000000000000100007535375839AINAILDE PEREIRA DE CASTRO OLIVETTO     TRAVESSA DORALINA ELIETE ADAO DA SILVA -            08021026                                                            000017
2SR. CAIXA, APOS O VENCIMENTO COBRAR 2% DE MULTA                                 NAO RECEBER APOS 30 DIAS DO VENCIMENTO.                                                                                                                                                                                                         01112100000000000000111210000000000000       0090339900009954075353112115000018
100000000000000000000009033990000995400000000000000000000000010002020017229711211000000000002            2  01172297112108112100000002680230000000001N011121000000000000000000000000000000000000000000000000000000000000000100017229751802BERENICE VIEIRA KERSTING                RUA ATIBAIA - 17 AP.417 - BAIRRO IMPERAD            11707380                                                            000020
2SR. CAIXA, APOS O VENCIMENTO COBRAR 2% DE MULTA                                 NAO RECEBER APOS 30 DIAS DO VENCIMENTO.                                                                                                                                                                                                         01112100000000000000111210000000000000       0090339900009954172297112110000021
100000000000000000000009033990000995400000000000000000000000010002020028974211211200000000002            2  01289742112108112100000002503280000000001N011121000000000000000000000000000000000000000000000000000000000000000100028974233827MARISTELA FAVANI DE OLIVEIRA            RUA GIUSEPPE CARNEVALLI - 96 - BAIRRO BO            09572100                                                            000023
2SR. CAIXA, APOS O VENCIMENTO COBRAR 2% DE MULTA                                 NAO RECEBER APOS 30 DIAS DO VENCIMENTO.                                                                                                                                                                                                         01112100000000000000111210000000000000       0090339900009954289742112112000024
100000000000000000000009033990000995400000000000000000000000010002020092184811211P00000000002            2  01921848112108112100000002469950000000001N011121000000000000000000000000000000000000000000000000000000000000000100092184804800CARMEM DO SOCORRO GUILHERME             ESTRADA SAO FRANCISCO - 1.850 AP.182A -             06765000                                                            000026
2SR. CAIXA, APOS O VENCIMENTO COBRAR 2% DE MULTA                                 NAO RECEBER APOS 30 DIAS DO VENCIMENTO.                                                                                                                                                                                                         01112100000000000000111210000000000000       009033990000995492184811211P000027
100000000000000000000009033990000995400000000000000000000000010002020092184811212800000000002            2  01921848112108112100000002469940000000001N011121000000000000000000000000000000000000000000000000000000000000000100092184804800CARMEM DO SOCORRO GUILHERME             ESTRADA SAO FRANCISCO - 1.850 AP.182A -             06765000                                                            000029
2SR. CAIXA, APOS O VENCIMENTO COBRAR 2% DE MULTA                                 NAO RECEBER APOS 30 DIAS DO VENCIMENTO.                                                                                                                                                                                                         01112100000000000000111210000000000000       0090339900009954921848112128000030
100000000000000000000009033990000995400000000000000000000000010002020009169711211P00000000002            2  01091697112108112100000001980920000000001N011121000000000000000000000000000000000000000000000000000000000000000100009169701830TADEU CONSTANTINO LOPES                 RUA JOSE ANTONIO COELHO - 349 CASA 01 -             04011061                                                            000032
2SR. CAIXA, APOS O VENCIMENTO COBRAR 2% DE MULTA                                 NAO RECEBER APOS 30 DIAS DO VENCIMENTO.                                                                                                                                                                                                         01112100000000000000111210000000000000       009033990000995409169711211P000033
100000000000000000000009033990000995400000000000000000000000010002020042480111211800000000002            2  01424801112108112100000002519950000000001N011121000000000000000000000000000000000000000000000000000000000000000100042480155870JAMITRE SOIOMARA ALVES DO NASCIMENTO DAVRUA SERTANISTA GILBERTO PINTO FRANCISCO             11703440                                                            000035
2SR. CAIXA, APOS O VENCIMENTO COBRAR 2% DE MULTA                                 NAO RECEBER APOS 30 DIAS DO VENCIMENTO.                                                                                                                                                                                                         01112100000000000000111210000000000000       0090339900009954424801112118000036
100000000000000000000009033990000995400000000000000000000000010002020004611211211400000000002            2  01046112112108112100000002466260000000001N011121000000000000000000000000000000000000000000000000000000000000000100004611218830TANIA MARIA DA SILVA NUNES PEREIRA LUIZ RODOVIA RAPOSO TAVARES, 7389 KM 17,5 - A            05576200                                                            000038
2SR. CAIXA, APOS O VENCIMENTO COBRAR 2% DE MULTA                                 NAO RECEBER APOS 30 DIAS DO VENCIMENTO.                                                                                                                                                                                                         01112100000000000000111210000000000000       0090339900009954046112112114000039
100000000000000000000009033990000995400000000000000000000000010002020008966511211300000000002            2  01089665112108112100000002380920000000001N011121000000000000000000000000000000000000000000000000000000000000000100008966511856MONICA SILVA REIS                       RUA ORATORIO - 264 E FUNDOS - BANGU - SA            09280550                                                            000041
2SR. CAIXA, APOS O VENCIMENTO COBRAR 2% DE MULTA                                 NAO RECEBER APOS 30 DIAS DO VENCIMENTO.                                                                                                                                                                                                         01112100000000000000111210000000000000       0090339900009954089665112113000042
100000000000000000000009033990000995400000000000000000000000010002020036898611211100000000002            2  01368986112108112100000002397590000000001N011121000000000000000000000000000000000000000000000000000000000000000100036898609890GABRIEL FRANCHESCHI PALVO               SGAN 911,MODULO F, BLOCO A, GREEN PARK -            70790110                                                            000044
2SR. CAIXA, APOS O VENCIMENTO COBRAR 2% DE MULTA                                 NAO RECEBER APOS 30 DIAS DO VENCIMENTO.                                                                                                                                                                                                         01112100000000000000111210000000000000       0090339900009954368986112111000045
100000000000000000000009033990000995400000000000000000000000010002020001356911211400000000002            2  01013569112108112100000002557450000000001N011121000000000000000000000000000000000000000000000000000000000000000100001356993800DALVA MARIA DOS SANTOS                  RUA SOLDADO CESARIO AGUIAR - 30 - VILA G            07070050                                                            000047
2SR. CAIXA, APOS O VENCIMENTO COBRAR 2% DE MULTA                                 NAO RECEBER APOS 30 DIAS DO VENCIMENTO.                                                                                                                                                                                                         01112100000000000000111210000000000000       0090339900009954013569112114000048
100000000000000000000009033990000995400000000000000000000000010002020024615511211700000000002            2  01246155112108112100000002916670000000001N011121000000000000000000000000000000000000000000000000000000000000000100024615557884GILBERTO JOSE GONSALES                  RUA DOS GOYTACAZES - 447 AP.206 BL.2 - C            28013266                                                            000050
2SR. CAIXA, APOS O VENCIMENTO COBRAR 2% DE MULTA                                 NAO RECEBER APOS 30 DIAS DO VENCIMENTO.                                                                                                                                                                                                         01112100000000000000111210000000000000       0090339900009954246155112117000051
100000000000000000000009033990000995400000000000000000000000010002020052623111211600000000002            2  01526231112108112100000002183460000000001N011121000000000000000000000000000000000000000000000000000000000000000100052623130515MARCOS ROBERTO DE SANTANA               RUA GUARANI - 57 - BAIRRO OLIMPICO - SAO            09540510                                                            000053
2SR. CAIXA, APOS O VENCIMENTO COBRAR 2% DE MULTA                                 NAO RECEBER APOS 30 DIAS DO VENCIMENTO.                                                                                                                                                                                                         01112100000000000000111210000000000000       0090339900009954526231112116000054
100000000000000000000009033990000995400000000000000000000000010002020008878811211100000000002            2  01088788112108112100000002804970000000001N011121000000000000000000000000000000000000000000000000000000000000000100008878832812LUIZ ANTONIO DE OLIVEIRA                RUA TORRINHA - 220 AP.132 - BAIRRO TATUA            03332010                                                            000056
2SR. CAIXA, APOS O VENCIMENTO COBRAR 2% DE MULTA                                 NAO RECEBER APOS 30 DIAS DO VENCIMENTO.                                                                                                                                                                                                         01112100000000000000111210000000000000       0090339900009954088788112111000057
100000000000000000000009033990000995400000000000000000000000010002020031473711211700000000002            2  01314737112108112100000002061630000000001N011121000000000000000000000000000000000000000000000000000000000000000100031473799813MURIEL DA SILVA DE MOURA SOUZA          RUA CAPITAO PAULINO FREIRE - 300 AP.014             08717100                                                            000059
2SR. CAIXA, APOS O VENCIMENTO COBRAR 2% DE MULTA                                 NAO RECEBER APOS 30 DIAS DO VENCIMENTO.                                                                                                                                                                                                         01112100000000000000111210000000000000       0090339900009954314737112117000060
100000000000000000000009033990000995400000000000000000000000010002020036949511211600000000002            2  01369495112108112100000002729300000000001N011121000000000000000000000000000000000000000000000000000000000000000100036949505833FELIPE APARECIDO DOS SANTOS             RUA DAS MIMOSAS - 67 CASA 09 - VILA LUCI            03144010                                                            000062
2SR. CAIXA, APOS O VENCIMENTO COBRAR 2% DE MULTA                                 NAO RECEBER APOS 30 DIAS DO VENCIMENTO.                                                                                                                                                                                                         01112100000000000000111210000000000000       0090339900009954369495112116000063
100000000000000000000009033990000995400000000000000000000000010002020008539311211300000000002            2  01085393112108112100000002788540000000001N011121000000000000000000000000000000000000000000000000000000000000000100008539365871EDMILSON RAIMUNDO DOS SANTOS            RUA CALIDICE - 247 - PARQUE CRUZEIRO - S            08070010                                                            000065
2SR. CAIXA, APOS O VENCIMENTO COBRAR 2% DE MULTA                                 NAO RECEBER APOS 30 DIAS DO VENCIMENTO.                                                                                                                                                                                                         01112100000000000000111210000000000000       0090339900009954085393112113000066
9                                                                                                                                                                                                                                                                                                                                                                                                         000067