01REMESSA01COBRANCA       00000000000008017025HB SANTOS CONSTRUTORA E INCORP237BRADESCO       011222        MX0000166                                                                                                                                                                                                                                                                                     000001
100000000000000000000009033990000627000000000000000000000000010002020016479012221100000000002            2  01164790122209122200000005116900000000001N011222000000000000000000000000000000000000000000000000000000000000000100016479002806LOURDES PEREIRA DE QUEIROZ SECANECHIA   RUA PAULINO CURSI - 437 - CIDADE SAO MAT            03960060                                                            000002
2SR. CAIXA, APOS O VENCIMENTO COBRAR 2% DE MULTA                                 NAO RECEBER APOS 30 DIAS DO VENCIMENTO.                                                                                                                                                                                                         01122200000000000000112220000000000000       0090339900006270164790122211000003
100000000000000000000009033990000627000000000000000000000000010002020017229712222100000000002            2  01172297122209122200000003893910000000001N011222000000000000000000000000000000000000000000000000000000000000000100017229751802BERENICE VIEIRA KERSTING                RUA ATIBAIA - 17 AP.417 - BAIRRO IMPERAD            11707380                                                            000005
2SR. CAIXA, APOS O VENCIMENTO COBRAR 2% DE MULTA                                 NAO RECEBER APOS 30 DIAS DO VENCIMENTO.                                                                                                                                                                                                         01122200000000000000112220000000000000       0090339900006270172297122221000006
100000000000000000000009033990000627000000000000000000000000010002020009361412221900000000002            2  01093614122209122200000003714870000000001N011222000000000000000000000000000000000000000000000000000000000000000100009361471805JOSE BARBOSA DA SILVA                   RUA ALFREDO INACIO TRINDADE  - 60 AP.44             02344100                                                            000008
2SR. CAIXA, APOS O VENCIMENTO COBRAR 2% DE MULTA                                 NAO RECEBER APOS 30 DIAS DO VENCIMENTO.                                                                                                                                                                                                         01122200000000000000112220000000000000       0090339900006270093614122219000009
100000000000000000000009033990000627000000000000000000000000010002020012756912221200000000002            2  01127569122209122200000003206750000000001N011222000000000000000000000000000000000000000000000000000000000000000100012756959812ITAMAR JUVENAL DIAS DA SILVA            RUA ELISEU REINALDO MORAES VIEIRA - 90 A            02858000                                                            000011
2SR. CAIXA, APOS O VENCIMENTO COBRAR 2% DE MULTA                                 NAO RECEBER APOS 30 DIAS DO VENCIMENTO.                                                                                                                                                                                                         01122200000000000000112220000000000000       0090339900006270127569122212000012
100000000000000000000009033990000627000000000000000000000000010002020029433612221600000000002            2  01294336122211122200000002658620000000001N011222000000000000000000000000000000000000000000000000000000000000000100029433631897MARIO MUNIZ                             RUA JOSE CALIXTO DO CARMO - 286 AP.53 -             11702690                                                            000014
2SR. CAIXA, APOS O VENCIMENTO COBRAR 2% DE MULTA                                 NAO RECEBER APOS 30 DIAS DO VENCIMENTO.                                                                                                                                                                                                         01122200000000000000112220000000000000       0090339900006270294336122216000015
100000000000000000000009033990000627000000000000000000000000010002020005029812221900000000002            2  01050298122209122200000003269470000000001N011222000000000000000000000000000000000000000000000000000000000000000100005029828885LAURINETE DA CONCEICAO DE NORONHA       RUA MARIA LUCIA DE TOLEDO LEITE MORAES -            04434040                                                            000017
2SR. CAIXA, APOS O VENCIMENTO COBRAR 2% DE MULTA                                 NAO RECEBER APOS 30 DIAS DO VENCIMENTO.                                                                                                                                                                                                         01122200000000000000112220000000000000       0090339900006270050298122219000018
100000000000000000000009033990000627000000000000000000000000010002020013388912221000000000002            2  01133889122211122200000002591730000000001N011222000000000000000000000000000000000000000000000000000000000000000100013388936889NEUTON DE SOUZA RAMOS                   RUA JOSE CALIXTO DO CARMO - 286 AP.61 -             11702690                                                            000020
2SR. CAIXA, APOS O VENCIMENTO COBRAR 2% DE MULTA                                 NAO RECEBER APOS 30 DIAS DO VENCIMENTO.                                                                                                                                                                                                         01122200000000000000112220000000000000       0090339900006270133889122210000021
100000000000000000000009033990000627000000000000000000000000010002020012774912221000000000002            2  01127749122211122200000002640400000000001N011222000000000000000000000000000000000000000000000000000000000000000100012774906865JOSE MILTON SANTIAGO                    RUA BATATAIS - 47 - CIDADE ESTELA - POA             08563140                                                            000023
2SR. CAIXA, APOS O VENCIMENTO COBRAR 2% DE MULTA                                 NAO RECEBER APOS 30 DIAS DO VENCIMENTO.                                                                                                                                                                                                         01122200000000000000112220000000000000       0090339900006270127749122210000024
100000000000000000000009033990000627000000000000000000000000010002020005613812221000000000002            2  01056138122211122200000002428430000000001N011222000000000000000000000000000000000000000000000000000000000000000100005613843805NILZA MARIA DE OLIVEIRA                 RUA JOSE GONCALVES DE FREITAS - 66 C2 -             08210550                                                            000026
2SR. CAIXA, APOS O VENCIMENTO COBRAR 2% DE MULTA                                 NAO RECEBER APOS 30 DIAS DO VENCIMENTO.                                                                                                                                                                                                         01122200000000000000112220000000000000       0090339900006270056138122210000027
100000000000000000000009033990000627000000000000000000000000010002020007574912221000000000002            2  01075749122211122200000002492720000000001N011222000000000000000000000000000000000000000000000000000000000000000100007574936889JORGE LUCIANO PEREIRA BORRIELLO         RUA JOSE CALIXTO DO CARMO - 286 AP.54 -             11702690                                                            000029
2SR. CAIXA, APOS O VENCIMENTO COBRAR 2% DE MULTA                                 NAO RECEBER APOS 30 DIAS DO VENCIMENTO.                                                                                                                                                                                                         01122200000000000000112220000000000000       0090339900006270075749122210000030
100000000000000000000009033990000627000000000000000000000000010002020008214912221300000000002            2  01082149122211122200000002530540000000001N011222000000000000000000000000000000000000000000000000000000000000000100008214973830JAMIL CHALA                             RUA JOSE CALIXTO DO CARMO - 286 AP.22 -             11702690                                                            000032
2SR. CAIXA, APOS O VENCIMENTO COBRAR 2% DE MULTA                                 NAO RECEBER APOS 30 DIAS DO VENCIMENTO.                                                                                                                                                                                                         01122200000000000000112220000000000000       0090339900006270082149122213000033
100000000000000000000009033990000627000000000000000000000000010002020032495012221000000000002            2  01324950122211122200000002835790000000001N011222000000000000000000000000000000000000000000000000000000000000000100032495004881PAULO EDUARDO DOS SANTOS                RUA REPUBLICA DO IRAQUE - 1119 - CAMPO B            04611002                                                            000035
2SR. CAIXA, APOS O VENCIMENTO COBRAR 2% DE MULTA                                 NAO RECEBER APOS 30 DIAS DO VENCIMENTO.                                                                                                                                                                                                         01122200000000000000112220000000000000       0090339900006270324950122210000036
100000000000000000000009033990000627000000000000000000000000010002020016498012221800000000002            2  01164980122211122200000002487060000000001N011222000000000000000000000000000000000000000000000000000000000000000100016498053810GILMA CEZARIO GARCIA CORRITORI          RUA LAURENTINO XAVIER DOS SANTOS - 336 -            08240740                                                            000038
2SR. CAIXA, APOS O VENCIMENTO COBRAR 2% DE MULTA                                 NAO RECEBER APOS 30 DIAS DO VENCIMENTO.                                                                                                                                                                                                         01122200000000000000112220000000000000       0090339900006270164980122218000039
100000000000000000000009033990000627000000000000000000000000010002020029339012221700000000002            2  01293390122211122200000002659490000000001N011222000000000000000000000000000000000000000000000000000000000000000100029339051831RONALD DIDOFF                           RUA CORONEL FERREIRA BRAGA - 188 - VILA             03522010                                                            000041
2SR. CAIXA, APOS O VENCIMENTO COBRAR 2% DE MULTA                                 NAO RECEBER APOS 30 DIAS DO VENCIMENTO.                                                                                                                                                                                                         01122200000000000000112220000000000000       0090339900006270293390122217000042
100000000000000000000009033990000627000000000000000000000000010002020017357812221900000000002            2  01173578122211122200000002816640000000001N011222000000000000000000000000000000000000000000000000000000000000000100017357859894MARCIO GUIMARAES                        RUA GENERAL CAMARA - 188 SALA 11 - CENTR            11010120                                                            000044
2SR. CAIXA, APOS O VENCIMENTO COBRAR 2% DE MULTA                                 NAO RECEBER APOS 30 DIAS DO VENCIMENTO.                                                                                                                                                                                                         01122200000000000000112220000000000000       0090339900006270173578122219000045
100000000000000000000009033990000627000000000000000000000000010002020010563012221900000000002            2  01105630122211122200000002888640000000001N011222000000000000000000000000000000000000000000000000000000000000000100010563033878VERA LUCIA RIBEIRO LONGANEZI            RUA DOS CAMARES - 150 AP.24 BL.02 - CARA            02068030                                                            000047
2SR. CAIXA, APOS O VENCIMENTO COBRAR 2% DE MULTA                                 NAO RECEBER APOS 30 DIAS DO VENCIMENTO.                                                                                                                                                                                                         01122200000000000000112220000000000000       0090339900006270105630122219000048
100000000000000000000009033990000627000000000000000000000000010002020005529612221300000000002            2  01055296122211122200000002621330000000001N011222000000000000000000000000000000000000000000000000000000000000000100005529616801JOAQUIM JORGE DA COSTA                  RUA JOSE CALIXTO DO CARMO - 286 AP.106 -            11702690                                                            000050
2SR. CAIXA, APOS O VENCIMENTO COBRAR 2% DE MULTA                                 NAO RECEBER APOS 30 DIAS DO VENCIMENTO.                                                                                                                                                                                                         01122200000000000000112220000000000000       0090339900006270055296122213000051
100000000000000000000009033990000627000000000000000000000000010002020015550712221P00000000002            2  01155507122209122200000002478250000000001N011222000000000000000000000000000000000000000000000000000000000000000100015550706806MARY MIWA                               RUA CARLOS JOSE BORSTENS - 50 AP.105 - A            11702750                                                            000053
2SR. CAIXA, APOS O VENCIMENTO COBRAR 2% DE MULTA                                 NAO RECEBER APOS 30 DIAS DO VENCIMENTO.                                                                                                                                                                                                         01122200000000000000112220000000000000       009033990000627015550712221P000054
100000000000000000000009033990000627000000000000000000000000010002020015464612221P00000000002            2  01154646122211122200000002755650000000001N011222000000000000000000000000000000000000000000000000000000000000000100015464647864SONIA TERESA VOLPATO                    RUA JOSE CALIXTO DO CARMO - 286 AP.73 -             11702690                                                            000056
2SR. CAIXA, APOS O VENCIMENTO COBRAR 2% DE MULTA                                 NAO RECEBER APOS 30 DIAS DO VENCIMENTO.                                                                                                                                                                                                         01122200000000000000112220000000000000       009033990000627015464612221P000057
100000000000000000000009033990000627000000000000000000000000010002020008657812221900000000002            2  01086578122211122200000002727970000000001N011222000000000000000000000000000000000000000000000000000000000000000100008657886855ARLINDO DA CRUZ                         AVENIDA ARICANDUVA - 8.256 AP.54 BL.10 -            03951220                                                            000059
2SR. CAIXA, APOS O VENCIMENTO COBRAR 2% DE MULTA                                 NAO RECEBER APOS 30 DIAS DO VENCIMENTO.                                                                                                                                                                                                         01122200000000000000112220000000000000       0090339900006270086578122219000060
100000000000000000000009033990000627000000000000000000000000010002020059735112221700000000002            2  01597351122209122200000001542360000000001N011222000000000000000000000000000000000000000000000000000000000000000100059735180863HELIO JOSE MARQUES                      RUA MARTIM AFONSO DE SOUZA - 1007 AP.102            11702790                                                            000062
2SR. CAIXA, APOS O VENCIMENTO COBRAR 2% DE MULTA                                 NAO RECEBER APOS 30 DIAS DO VENCIMENTO.                                                                                                                                                                                                         01122200000000000000112220000000000000       0090339900006270597351122217000063
100000000000000000000009033990000627000000000000000000000000010002020026347812221000000000002            2  01263478122211122200000002916130000000001N011222000000000000000000000000000000000000000000000000000000000000000100026347872862VALDECI SILVA MEIRELES                  RUA JOSE BATISTA DA SILVA - 292 - JARDIM            06851470                                                            000065
2SR. CAIXA, APOS O VENCIMENTO COBRAR 2% DE MULTA                                 NAO RECEBER APOS 30 DIAS DO VENCIMENTO.                                                                                                                                                                                                         01122200000000000000112220000000000000       0090339900006270263478122210000066
100000000000000000000009033990000627000000000000000000000000010002020013135212221100000000002            2  01131352122211122200000002679180000000001N011222000000000000000000000000000000000000000000000000000000000000000100013135261859EDUARDO ZANOLA                          RUA ROLANDO PIETRO BONINI - 46 - JARDIM             09781040                                                            000068
2SR. CAIXA, APOS O VENCIMENTO COBRAR 2% DE MULTA                                 NAO RECEBER APOS 30 DIAS DO VENCIMENTO.                                                                                                                                                                                                         01122200000000000000112220000000000000       0090339900006270131352122211000069
100000000000000000000009033990000627000000000000000000000000010002020009797612221200000000002            2  01097976122211122200000002609230000000001N011222000000000000000000000000000000000000000000000000000000000000000100009797626857RICARDO SOBRAL DE OLIVEIRA              RUA 23 DE MAIO - 139 AP.32 - VILA MIRIM             11704690                                                            000071
2SR. CAIXA, APOS O VENCIMENTO COBRAR 2% DE MULTA                                 NAO RECEBER APOS 30 DIAS DO VENCIMENTO.                                                                                                                                                                                                         01122200000000000000112220000000000000       0090339900006270097976122212000072
100000000000000000000009033990000627000000000000000000000000010002020004767612221300000000002            2  01047676122209122200000004461430000000001N011222000000000000000000000000000000000000000000000000000000000000000100004767679893ORLANDO GRANDE FILHO                    RUA ORLANDO MIGLIARI - 101 - JARDIM OURO            19906140                                                            000074
2SR. CAIXA, APOS O VENCIMENTO COBRAR 2% DE MULTA                                 NAO RECEBER APOS 30 DIAS DO VENCIMENTO.                                                                                                                                                                                                         01122200000000000000112220000000000000       0090339900006270047676122213000075
100000000000000000000009033990000627000000000000000000000000010002020006512512221000000000002            2  01065125122211122200000002347130000000001N011222000000000000000000000000000000000000000000000000000000000000000100006512547870MARIA DO CARMO FAGUNDES DOS REIS        RUA CARLOS MALCHER - 98 - PARQUE EDU CHA            02232020                                                            000077
2SR. CAIXA, APOS O VENCIMENTO COBRAR 2% DE MULTA                                 NAO RECEBER APOS 30 DIAS DO VENCIMENTO.                                                                                                                                                                                                         01122200000000000000112220000000000000       0090339900006270065125122210000078
100000000000000000000009033990000627000000000000000000000000010002020022728412221300000000002            2  01227284122211122200000002823380000000001N011222000000000000000000000000000000000000000000000000000000000000000100022728497842WILLIAN DE SOUZA MELLO                  RUA JOSE CALIXTO DO CARMO - 286 AP.111 -            11702690                                                            000080
2SR. CAIXA, APOS O VENCIMENTO COBRAR 2% DE MULTA                                 NAO RECEBER APOS 30 DIAS DO VENCIMENTO.                                                                                                                                                                                                         01122200000000000000112220000000000000       0090339900006270227284122213000081
100000000000000000000009033990000627000000000000000000000000010002020016909712221800000000002            2  01169097122211122200000002494980000000001N011222000000000000000000000000000000000000000000000000000000000000000100016909746805EDIVALDO SANTANA DOS SANTOS             ESTRADA JOAO GASPAR DELGADO - 80 AP.213             08536100                                                            000083
2SR. CAIXA, APOS O VENCIMENTO COBRAR 2% DE MULTA                                 NAO RECEBER APOS 30 DIAS DO VENCIMENTO.                                                                                                                                                                                                         01122200000000000000112220000000000000       0090339900006270169097122218000084
100000000000000000000009033990000627000000000000000000000000010002020022036012221500000000002            2  01220360122209122200000003874160000000001N011222000000000000000000000000000000000000000000000000000000000000000100022036003818DERLIS TERAN QUIROGA ROGATO             RUA JOAO RIBEIRO - 320 AP.131SB - CAMPES            09070250                                                            000086
2SR. CAIXA, APOS O VENCIMENTO COBRAR 2% DE MULTA                                 NAO RECEBER APOS 30 DIAS DO VENCIMENTO.                                                                                                                                                                                                         01122200000000000000112220000000000000       0090339900006270220360122215000087
100000000000000000000009033990000627000000000000000000000000010002020017229712223P00000000002            2  01172297122209122200000003738900000000001N011222000000000000000000000000000000000000000000000000000000000000000100017229751802BERENICE VIEIRA KERSTING                RUA ATIBAIA - 17 AP.417 - BAIRRO IMPERAD            11707380                                                            000089
2SR. CAIXA, APOS O VENCIMENTO COBRAR 2% DE MULTA                                 NAO RECEBER APOS 30 DIAS DO VENCIMENTO.                                                                                                                                                                                                         01122200000000000000112220000000000000       009033990000627017229712223P000090
100000000000000000000009033990000627000000000000000000000000010002020012475612221900000000002            2  01124756122211122200000002704450000000001N011222000000000000000000000000000000000000000000000000000000000000000100012475663820CELIDALVA GOES DE CARVALHO              RUA JOSE CALIXTO DO CARMO - 286 AP.91 -             11702690                                                            000092
2SR. CAIXA, APOS O VENCIMENTO COBRAR 2% DE MULTA                                 NAO RECEBER APOS 30 DIAS DO VENCIMENTO.                                                                                                                                                                                                         01122200000000000000112220000000000000       0090339900006270124756122219000093
100000000000000000000009033990000627000000000000000000000000010002020033451612221600000000002            2  01334516122211122200000002258380000000001N011222000000000000000000000000000000000000000000000000000000000000000100033451620839ARAO ELISIARIO  NUNES                   RUA JOSE CALIXTO DO CARMO - 286 AP.64 -             11702690                                                            000095
2SR. CAIXA, APOS O VENCIMENTO COBRAR 2% DE MULTA                                 NAO RECEBER APOS 30 DIAS DO VENCIMENTO.                                                                                                                                                                                                         01122200000000000000112220000000000000       0090339900006270334516122216000096
100000000000000000000009033990000627000000000000000000000000010002020045839212221300000000002            2  01458392122211122200000001752900000000001N011222000000000000000000000000000000000000000000000000000000000000000100045839263834LEONARDO ANTONIO CONCELLIERI            RUA JOSE CALIXTO DO CARMO - 286 AP.51 -             11702690                                                            000098
2SR. CAIXA, APOS O VENCIMENTO COBRAR 2% DE MULTA                                 NAO RECEBER APOS 30 DIAS DO VENCIMENTO.                                                                                                                                                                                                         01122200000000000000112220000000000000       0090339900006270458392122213000099
100000000000000000000009033990000627000000000000000000000000010002020011369112221400000000002            2  01113691122211122200000002467010000000001N011222000000000000000000000000000000000000000000000000000000000000000100011369165803ELIANA CORREA DE OLIVEIRA               RUA MAESTRO ZEFERINO SANTANA - 65 - VILA            18040010                                                            000101
2SR. CAIXA, APOS O VENCIMENTO COBRAR 2% DE MULTA                                 NAO RECEBER APOS 30 DIAS DO VENCIMENTO.                                                                                                                                                                                                         01122200000000000000112220000000000000       0090339900006270113691122214000102
100000000000000000000009033990000627000000000000000000000000010002020002253812221800000000002            2  01022538122211122200000002192690000000001N011222000000000000000000000000000000000000000000000000000000000000000100002253816809EDMILSON ALVES DA SILVA                 RUA JOSE CALIXTO DO CARMO - 286 AP.93 -             11702690                                                            000104
2SR. CAIXA, APOS O VENCIMENTO COBRAR 2% DE MULTA                                 NAO RECEBER APOS 30 DIAS DO VENCIMENTO.                                                                                                                                                                                                         01122200000000000000112220000000000000       0090339900006270022538122218000105
100000000000000000000009033990000627000000000000000000000000010002020037947012221P00000000002            2  01379470122211122200000003894360000000001N011222000000000000000000000000000000000000000000000000000000000000000100037947070873BRUNO DE CAETANO MARRINHAS              AVENIDA GENERAL BARRETO DE MENEZES - 323            09791150                                                            000107
2SR. CAIXA, APOS O VENCIMENTO COBRAR 2% DE MULTA                                 NAO RECEBER APOS 30 DIAS DO VENCIMENTO.                                                                                                                                                                                                         01122200000000000000112220000000000000       009033990000627037947012221P000108
100000000000000000000009033990000627000000000000000000000000010002020037517712221800000000002            2  01375177122209122200000004109170000000001N011222000000000000000000000000000000000000000000000000000000000000000100037517785869RENATO JOSE DE LIMA MELO                RUA ARISTIDES LOBO - 148 AP.41 BLOCO 03             03041100                                                            000110
2SR. CAIXA, APOS O VENCIMENTO COBRAR 2% DE MULTA                                 NAO RECEBER APOS 30 DIAS DO VENCIMENTO.                                                                                                                                                                                                         01122200000000000000112220000000000000       0090339900006270375177122218000111
100000000000000000000009033990000627000000000000000000000000010002020070367912221900000000002            2  01703679122211122200000002059080000000001N011222000000000000000000000000000000000000000000000000000000000000000100070367949849TEODOMIRO ALVES DOS SANTOS              RUA ANDRE PAZ - 13 - JARDIM SANTO ANDRE             08390230                                                            000113
2SR. CAIXA, APOS O VENCIMENTO COBRAR 2% DE MULTA                                 NAO RECEBER APOS 30 DIAS DO VENCIMENTO.                                                                                                                                                                                                         01122200000000000000112220000000000000       0090339900006270703679122219000114
100000000000000000000009033990000627000000000000000000000000010002020004410812221800000000002            2  01044108122209122200000003053160000000001N011222000000000000000000000000000000000000000000000000000000000000000100004410802860LUIZ ALBERTO MARINHO                    RUA DA INDEPENDENCIA - 706 AP.41B - CAMB            01524000                                                            000116
2SR. CAIXA, APOS O VENCIMENTO COBRAR 2% DE MULTA                                 NAO RECEBER APOS 30 DIAS DO VENCIMENTO.                                                                                                                                                                                                         01122200000000000000112220000000000000       0090339900006270044108122218000117
100000000000000000000009033990000627000000000000000000000000010002020004767612222100000000002            2  01047676122209122200000004075870000000001N011222000000000000000000000000000000000000000000000000000000000000000100004767679893ORLANDO GRANDE FILHO                    RUA ORLANDO MIGLIARI - 101 - JARDIM OURO            19906140                                                            000119
2SR. CAIXA, APOS O VENCIMENTO COBRAR 2% DE MULTA                                 NAO RECEBER APOS 30 DIAS DO VENCIMENTO.                                                                                                                                                                                                         01122200000000000000112220000000000000       0090339900006270047676122221000120
100000000000000000000009033990000627000000000000000000000000010002020064677812221900000000002            2  01646778122209122200000003278730000000001N011222000000000000000000000000000000000000000000000000000000000000000100064677850887ANTONIO CARLOS DE OLIVEIRA              RUA DR.ANTONIO MAZILLI FILHO - 435 - PAR            02230070                                                            000122
2SR. CAIXA, APOS O VENCIMENTO COBRAR 2% DE MULTA                                 NAO RECEBER APOS 30 DIAS DO VENCIMENTO.                                                                                                                                                                                                         01122200000000000000112220000000000000       0090339900006270646778122219000123
100000000000000000000009033990000627000000000000000000000000010002020007328912221400000000002            2  01073289122209122200000004000250000000001N011222000000000000000000000000000000000000000000000000000000000000000100007328927836BENEDITO APARECIDO ROCHA                AVENIDA SENADOR JOSE ERMINIO DE MORAES -            02357002                                                            000125
2SR. CAIXA, APOS O VENCIMENTO COBRAR 2% DE MULTA                                 NAO RECEBER APOS 30 DIAS DO VENCIMENTO.                                                                                                                                                                                                         01122200000000000000112220000000000000       0090339900006270073289122214000126
100000000000000000000009033990000627000000000000000000000000010002020058488612221100000000002            2  01584886122209122200000002990450000000001N011222000000000000000000000000000000000000000000000000000000000000000100058488618972ADAILTON ZANUTTO MORESCHI               R:RAPHAEL UNGARO - COND.RESERVA SERRA Q.            13212138                                                            000128
2SR. CAIXA, APOS O VENCIMENTO COBRAR 2% DE MULTA                                 NAO RECEBER APOS 30 DIAS DO VENCIMENTO.                                                                                                                                                                                                         01122200000000000000112220000000000000       0090339900006270584886122211000129
100000000000000000000009033990000627000000000000000000000000010002020002196012221600000000002            2  01021960122211122200000002248730000000001N011222000000000000000000000000000000000000000000000000000000000000000100002196012831VILEFORT DIAS BORGES                    RUA PORTO XAVIER - 189 AP.64 - VILA CARM            08210170                                                            000131
2SR. CAIXA, APOS O VENCIMENTO COBRAR 2% DE MULTA                                 NAO RECEBER APOS 30 DIAS DO VENCIMENTO.                                                                                                                                                                                                         01122200000000000000112220000000000000       0090339900006270021960122216000132
100000000000000000000009033990000627000000000000000000000000010002020031861512221400000000002            2  01318615122211122200000002337290000000001N011222000000000000000000000000000000000000000000000000000000000000000100031861586809VANIA TOMAZ                              -  -  -  -                                         00000000                                                            000134
2SR. CAIXA, APOS O VENCIMENTO COBRAR 2% DE MULTA                                 NAO RECEBER APOS 30 DIAS DO VENCIMENTO.                                                                                                                                                                                                         01122200000000000000112220000000000000       0090339900006270318615122214000135
100000000000000000000009033990000627000000000000000000000000010002020003104512221800000000002            2  01031045122209122200000008705100000000001N011222000000000000000000000000000000000000000000000000000000000000000100003104580804NELSON RODRIGUES                        RUA CARLOS JOSE BORSTENS - 50 AP.81 - AV            11702750                                                            000137
2SR. CAIXA, APOS O VENCIMENTO COBRAR 2% DE MULTA                                 NAO RECEBER APOS 30 DIAS DO VENCIMENTO.                                                                                                                                                                                                         01122200000000000000112220000000000000       0090339900006270031045122218000138
100000000000000000000009033990000627000000000000000000000000010002020007715312221600000000002            2  01077153122209122200000003677900000000001N011222000000000000000000000000000000000000000000000000000000000000000100007715360627NILTON RENNAN OLIVEIRA GOMES FILHO      RUA CARLOS JOSE BORSTENS - 50 AP.21 - AV            11702750                                                            000140
2SR. CAIXA, APOS O VENCIMENTO COBRAR 2% DE MULTA                                 NAO RECEBER APOS 30 DIAS DO VENCIMENTO.                                                                                                                                                                                                         01122200000000000000112220000000000000       0090339900006270077153122216000141
100000000000000000000009033990000627000000000000000000000000010002020007194012221700000000002            2  01071940122211122200000002613660000000001N011222000000000000000000000000000000000000000000000000000000000000000100007194010895RAUL AMANTINO KIRK DE SANCTIS           AVENIDA SANTA CATARINA - 756 AP.01 - VIL            04378000                                                            000143
2SR. CAIXA, APOS O VENCIMENTO COBRAR 2% DE MULTA                                 NAO RECEBER APOS 30 DIAS DO VENCIMENTO.                                                                                                                                                                                                         01122200000000000000112220000000000000       0090339900006270071940122217000144
100000000000000000000009033990000627000000000000000000000000010002020025738612221400000000002            2  01257386122209122200000005282280000000001N011222000000000000000000000000000000000000000000000000000000000000000100025738614810VILMAR JOSE PEREIRA                     ALAMEDA TIETE - 646 - CERQUEIRA CESAR -             01417020                                                            000146
2SR. CAIXA, APOS O VENCIMENTO COBRAR 2% DE MULTA                                 NAO RECEBER APOS 30 DIAS DO VENCIMENTO.                                                                                                                                                                                                         01122200000000000000112220000000000000       0090339900006270257386122214000147
100000000000000000000009033990000627000000000000000000000000010002020025738612222200000000002            2  01257386122209122200000005282250000000001N011222000000000000000000000000000000000000000000000000000000000000000100025738614810VILMAR JOSE PEREIRA                     ALAMEDA TIETE - 646 - CERQUEIRA CESAR -             01417020                                                            000149
2SR. CAIXA, APOS O VENCIMENTO COBRAR 2% DE MULTA                                 NAO RECEBER APOS 30 DIAS DO VENCIMENTO.                                                                                                                                                                                                         01122200000000000000112220000000000000       0090339900006270257386122222000150
100000000000000000000009033990000627000000000000000000000000010002020025738612223000000000002            2  01257386122209122200000005282260000000001N011222000000000000000000000000000000000000000000000000000000000000000100025738614810VILMAR JOSE PEREIRA                     ALAMEDA TIETE - 646 - CERQUEIRA CESAR -             01417020                                                            000152
2SR. CAIXA, APOS O VENCIMENTO COBRAR 2% DE MULTA                                 NAO RECEBER APOS 30 DIAS DO VENCIMENTO.                                                                                                                                                                                                         01122200000000000000112220000000000000       0090339900006270257386122230000153
100000000000000000000009033990000627000000000000000000000000010002020025738612224900000000002            2  01257386122209122200000005282270000000001N011222000000000000000000000000000000000000000000000000000000000000000100025738614810VILMAR JOSE PEREIRA                     ALAMEDA TIETE - 646 - CERQUEIRA CESAR -             01417020                                                            000155
2SR. CAIXA, APOS O VENCIMENTO COBRAR 2% DE MULTA                                 NAO RECEBER APOS 30 DIAS DO VENCIMENTO.                                                                                                                                                                                                         01122200000000000000112220000000000000       0090339900006270257386122249000156
100000000000000000000009033990000627000000000000000000000000010002020011141512221600000000002            2  01111415122211122200000002746490000000001N011222000000000000000000000000000000000000000000000000000000000000000100011141508869PAULO ROBERTO TUNES SILVA               RUA PETROBRAS - 405 CASA 07 - VILA ANTON            03474060                                                            000158
2SR. CAIXA, APOS O VENCIMENTO COBRAR 2% DE MULTA                                 NAO RECEBER APOS 30 DIAS DO VENCIMENTO.                                                                                                                                                                                                         01122200000000000000112220000000000000       0090339900006270111415122216000159
100000000000000000000009033990000627000000000000000000000000010002020012449112221100000000002            2  01124491122211122200000002767450000000001N011222000000000000000000000000000000000000000000000000000000000000000100012449104810GILBERTO DOS SANTOS JUNIOR              RUA ALMIRANTE TAMANDARE - 89 AP.143 - BA            09310350                                                            000161
2SR. CAIXA, APOS O VENCIMENTO COBRAR 2% DE MULTA                                 NAO RECEBER APOS 30 DIAS DO VENCIMENTO.                                                                                                                                                                                                         01122200000000000000112220000000000000       0090339900006270124491122211000162
100000000000000000000009033990000627000000000000000000000000010002020011261312221P00000000002            2  01112613122209122200000003651590000000001N011222000000000000000000000000000000000000000000000000000000000000000100011261359844JOVANETE DOS SANTOS PASSOS              RUA FULVIO MORGANTI - 672 - JARDIM PARAI            02417170                                                            000164
2SR. CAIXA, APOS O VENCIMENTO COBRAR 2% DE MULTA                                 NAO RECEBER APOS 30 DIAS DO VENCIMENTO.                                                                                                                                                                                                         01122200000000000000112220000000000000       009033990000627011261312221P000165
100000000000000000000009033990000627000000000000000000000000010002020036279312221900000000002            2  01362793122209122200000003246020000000001N011222000000000000000000000000000000000000000000000000000000000000000100036279398838BRUNO DOCINI ORTEGA                     RUA GENERAL EUCLIDES FIGUEIREDO - 146 AP            11700780                                                            000167
2SR. CAIXA, APOS O VENCIMENTO COBRAR 2% DE MULTA                                 NAO RECEBER APOS 30 DIAS DO VENCIMENTO.                                                                                                                                                                                                         01122200000000000000112220000000000000       0090339900006270362793122219000168
9                                                                                                                                                                                                                                                                                                                                                                                                         000169