01REMESSA01COBRANCA       00000000000005331186HB SANTOS CONSTRUTORA E INCORP237BRADESCO       010723        MX0000075                                                                                                                                                                                                                                                                                     000001
100000000000000000000009033990000995400000000000000000000000010002020026858607231000000000002            2  01268586072308072300000003135680000000001N010723000000000000000000000000000000000000000000000000000000000000000100026858625879GLAUCE FERREIRA DE OLIVEIRA FALSI       RUA LOURENCO ANTONIO BRAGANCA - 116 - JA            04403160                                                            000002
2SR. CAIXA, APOS O VENCIMENTO COBRAR 2% DE MULTA                                 NAO RECEBER APOS 30 DIAS DO VENCIMENTO.                                                                                                                                                                                                         01072300000000000000107230000000000000       0090339900009954268586072310000003
100000000000000000000009033990000995400000000000000000000000010002020029425007231300000000002            2  01294250072308072300000002982020000000001N010723000000000000000000000000000000000000000000000000000000000000000100029425027897FABIA DOS SANTOS DE ANDRADE             AVENIDA ALCIDES CANDIDO DOS SANTOS - 248            11705480                                                            000005
2SR. CAIXA, APOS O VENCIMENTO COBRAR 2% DE MULTA                                 NAO RECEBER APOS 30 DIAS DO VENCIMENTO.                                                                                                                                                                                                         01072300000000000000107230000000000000       0090339900009954294250072313000006
100000000000000000000009033990000995400000000000000000000000010002020078382707231900000000002            2  01783827072308072300000003013490000000001N010723000000000000000000000000000000000000000000000000000000000000000100078382700497JARMELINA BARBOSA DA SILVA              RUA OSCAR CINTRA GORDINHO - 211 AP.51 -             01512010                                                            000008
2SR. CAIXA, APOS O VENCIMENTO COBRAR 2% DE MULTA                                 NAO RECEBER APOS 30 DIAS DO VENCIMENTO.                                                                                                                                                                                                         01072300000000000000107230000000000000       0090339900009954783827072319000009
100000000000000000000009033990000995400000000000000000000000010002020007535307231800000000002            2  01075353072308072300000002955100000000001N010723000000000000000000000000000000000000000000000000000000000000000100007535375839AINAILDE PEREIRA DE CASTRO OLIVETTO     TRAVESSA DORALINA ELIETE ADAO DA SILVA -            08021026                                                            000011
2SR. CAIXA, APOS O VENCIMENTO COBRAR 2% DE MULTA                                 NAO RECEBER APOS 30 DIAS DO VENCIMENTO.                                                                                                                                                                                                         01072300000000000000107230000000000000       0090339900009954075353072318000012
100000000000000000000009033990000995400000000000000000000000010002020017229707231300000000002            2  01172297072308072300000003130290000000001N010723000000000000000000000000000000000000000000000000000000000000000100017229751802BERENICE VIEIRA KERSTING                RUA ATIBAIA - 17 AP.417 - BAIRRO IMPERAD            11707380                                                            000014
2SR. CAIXA, APOS O VENCIMENTO COBRAR 2% DE MULTA                                 NAO RECEBER APOS 30 DIAS DO VENCIMENTO.                                                                                                                                                                                                         01072300000000000000107230000000000000       0090339900009954172297072313000015
100000000000000000000009033990000995400000000000000000000000010002020028974207231500000000002            2  01289742072308072300000002923610000000001N010723000000000000000000000000000000000000000000000000000000000000000100028974233827MARISTELA FAVANI DE OLIVEIRA            RUA GIUSEPPE CARNEVALLI - 96 - BAIRRO BO            09572100                                                            000017
2SR. CAIXA, APOS O VENCIMENTO COBRAR 2% DE MULTA                                 NAO RECEBER APOS 30 DIAS DO VENCIMENTO.                                                                                                                                                                                                         01072300000000000000107230000000000000       0090339900009954289742072315000018
100000000000000000000009033990000995400000000000000000000000010002020092184807231200000000002            2  01921848072308072300000002884700000000001N010723000000000000000000000000000000000000000000000000000000000000000100092184804800CARMEM DO SOCORRO GUILHERME             ESTRADA SAO FRANCISCO - 1.850 AP.182A -             06765000                                                            000020
2SR. CAIXA, APOS O VENCIMENTO COBRAR 2% DE MULTA                                 NAO RECEBER APOS 30 DIAS DO VENCIMENTO.                                                                                                                                                                                                         01072300000000000000107230000000000000       0090339900009954921848072312000021
100000000000000000000009033990000995400000000000000000000000010002020009169707231200000000002            2  01091697072308072300000002313560000000001N010723000000000000000000000000000000000000000000000000000000000000000100009169701830TADEU CONSTANTINO LOPES                 RUA JOSE ANTONIO COELHO - 349 CASA 01 -             04011061                                                            000023
2SR. CAIXA, APOS O VENCIMENTO COBRAR 2% DE MULTA                                 NAO RECEBER APOS 30 DIAS DO VENCIMENTO.                                                                                                                                                                                                         01072300000000000000107230000000000000       0090339900009954091697072312000024
100000000000000000000009033990000995400000000000000000000000010002020042480107231000000000002            2  01424801072308072300000002943070000000001N010723000000000000000000000000000000000000000000000000000000000000000100042480155870JAMITRE SOIOMARA ALVES DO NASCIMENTO DAVRUA URUGUAI - 89 AP.75 - JARDIM GUILHERM            11702300                                                            000026
2SR. CAIXA, APOS O VENCIMENTO COBRAR 2% DE MULTA                                 NAO RECEBER APOS 30 DIAS DO VENCIMENTO.                                                                                                                                                                                                         01072300000000000000107230000000000000       0090339900009954424801072310000027
100000000000000000000009033990000995400000000000000000000000010002020008966507231600000000002            2  01089665072308072300000002780720000000001N010723000000000000000000000000000000000000000000000000000000000000000100008966511856MONICA SILVA REIS                       RUA ORATORIO - 264 E FUNDOS - BANGU - SA            09280550                                                            000029
2SR. CAIXA, APOS O VENCIMENTO COBRAR 2% DE MULTA                                 NAO RECEBER APOS 30 DIAS DO VENCIMENTO.                                                                                                                                                                                                         01072300000000000000107230000000000000       0090339900009954089665072316000030
100000000000000000000009033990000995400000000000000000000000010002020001356907231700000000002            2  01013569072308072300000002986890000000001N010723000000000000000000000000000000000000000000000000000000000000000100001356993800DALVA MARIA DOS SANTOS                  RUA URUGUAI - 89 AP.74 - AVIACAO - PRAIA            11702300                                                            000032
2SR. CAIXA, APOS O VENCIMENTO COBRAR 2% DE MULTA                                 NAO RECEBER APOS 30 DIAS DO VENCIMENTO.                                                                                                                                                                                                         01072300000000000000107230000000000000       0090339900009954013569072317000033
100000000000000000000009033990000995400000000000000000000000010002020024615507231P00000000002            2  01246155072308072300000003406420000000001N010723000000000000000000000000000000000000000000000000000000000000000100024615557884GILBERTO JOSE GONSALES                  RUA URUGUAI - 89 AP.115 - JARDIM GUILHER            11702300                                                            000035
2SR. CAIXA, APOS O VENCIMENTO COBRAR 2% DE MULTA                                 NAO RECEBER APOS 30 DIAS DO VENCIMENTO.                                                                                                                                                                                                         01072300000000000000107230000000000000       009033990000995424615507231P000036
100000000000000000000009033990000995400000000000000000000000010002020036949507231900000000002            2  01369495072308072300000003187580000000001N010723000000000000000000000000000000000000000000000000000000000000000100036949505833FELIPE APARECIDO DOS SANTOS             RUA DAS MIMOSAS - 67 CASA 09 - VILA LUCI            03144010                                                            000038
2SR. CAIXA, APOS O VENCIMENTO COBRAR 2% DE MULTA                                 NAO RECEBER APOS 30 DIAS DO VENCIMENTO.                                                                                                                                                                                                         01072300000000000000107230000000000000       0090339900009954369495072319000039
100000000000000000000009033990000995400000000000000000000000010002020008539307231600000000002            2  01085393072308072300000003256780000000001N010723000000000000000000000000000000000000000000000000000000000000000100008539365871EDMILSON RAIMUNDO DOS SANTOS            RUA CALIDICE - 247 - PARQUE CRUZEIRO - S            08070010                                                            000041
2SR. CAIXA, APOS O VENCIMENTO COBRAR 2% DE MULTA                                 NAO RECEBER APOS 30 DIAS DO VENCIMENTO.                                                                                                                                                                                                         01072300000000000000107230000000000000       0090339900009954085393072316000042
100000000000000000000009033990000995400000000000000000000000010002020024558907231100000000002            2  01245589072308072300000005609390000000001N010723000000000000000000000000000000000000000000000000000000000000000100024558912838EDILENE GORGATTI                        RUA ITARARE - 76 AP.142 - JARDIM GUILHER            11701820                                                            000044
2SR. CAIXA, APOS O VENCIMENTO COBRAR 2% DE MULTA                                 NAO RECEBER APOS 30 DIAS DO VENCIMENTO.                                                                                                                                                                                                         01072300000000000000107230000000000000       0090339900009954245589072311000045
100000000000000000000009033990000995400000000000000000000000010002020004611207231700000000002            2  01046112072308072300000002065600000000001N010723000000000000000000000000000000000000000000000000000000000000000100004611218830TANIA MARIA DA SILVA NUNES PEREIRA LUIZ RUA URUGUAI - 89 AP.103 - JARDIM GUILHER            11702300                                                            000047
2SR. CAIXA, APOS O VENCIMENTO COBRAR 2% DE MULTA                                 NAO RECEBER APOS 30 DIAS DO VENCIMENTO.                                                                                                                                                                                                         01072300000000000000107230000000000000       0090339900009954046112072317000048
100000000000000000000009033990000995400000000000000000000000010002020010548807231400000000002            2  01105488072308072300000003670260000000001N010723000000000000000000000000000000000000000000000000000000000000000100010548844801RICARDO DE JESUS CALDAS                 RUA ANTONIO AMBUBA - 50 CASA 60 - BAIRRO            05782370                                                            000050
2SR. CAIXA, APOS O VENCIMENTO COBRAR 2% DE MULTA                                 NAO RECEBER APOS 30 DIAS DO VENCIMENTO.                                                                                                                                                                                                         01072300000000000000107230000000000000       0090339900009954105488072314000051
100000000000000000000009033990000995400000000000000000000000010002020039623807231300000000002            2  01396238072308072300000003225710000000001N010723000000000000000000000000000000000000000000000000000000000000000100039623826826LEONARDO GUEDES PINTO                   RUA URUGUAI - 89 AP.24 - AVIACAO - PRAIA            11702300                                                            000053
2SR. CAIXA, APOS O VENCIMENTO COBRAR 2% DE MULTA                                 NAO RECEBER APOS 30 DIAS DO VENCIMENTO.                                                                                                                                                                                                         01072300000000000000107230000000000000       0090339900009954396238072313000054
100000000000000000000009033990000995400000000000000000000000010002020039558607231200000000002            2  01395586072308072300000002961430000000001N010723000000000000000000000000000000000000000000000000000000000000000100039558638838TAMIRES ROCHA FRANCISCO                 RUA DUARTE DE CARVALHO - 185 AP.102 - BA            03084030                                                            000056
2SR. CAIXA, APOS O VENCIMENTO COBRAR 2% DE MULTA                                 NAO RECEBER APOS 30 DIAS DO VENCIMENTO.                                                                                                                                                                                                         01072300000000000000107230000000000000       0090339900009954395586072312000057
100000000000000000000009033990000995400000000000000000000000010002020032038707231100000000002            2  01320387072308072300000002409320000000001N010723000000000000000000000000000000000000000000000000000000000000000100032038775893GUSTAVO PEREIRA DA CRUZ                 RUA SAO FIDELIS - 203 - JARDIM BRASIL -             16074050                                                            000059
2SR. CAIXA, APOS O VENCIMENTO COBRAR 2% DE MULTA                                 NAO RECEBER APOS 30 DIAS DO VENCIMENTO.                                                                                                                                                                                                         01072300000000000000107230000000000000       0090339900009954320387072311000060
100000000000000000000009033990000995400000000000000000000000010002020008993107231900000000002            2  01089931072308072300000011370730000000001N010723000000000000000000000000000000000000000000000000000000000000000100008993178801PATRICIA BITTENCOURT FRACARO            RUA MARCIO MAZZEI - 337 - VILA NOVA MAZZ            02316050                                                            000062
2SR. CAIXA, APOS O VENCIMENTO COBRAR 2% DE MULTA                                 NAO RECEBER APOS 30 DIAS DO VENCIMENTO.                                                                                                                                                                                                         01072300000000000000107230000000000000       0090339900009954089931072319000063
100000000000000000000009033990000995400000000000000000000000010002020025914207231500000000002            2  01259142072308072300000003275980000000001N010723000000000000000000000000000000000000000000000000000000000000000100025914206880JONAS DOS REIS MACHADO                  RUA PROFESSORA MARGARIDA RUTH FERREIRA D            02378200                                                            000065
2SR. CAIXA, APOS O VENCIMENTO COBRAR 2% DE MULTA                                 NAO RECEBER APOS 30 DIAS DO VENCIMENTO.                                                                                                                                                                                                         01072300000000000000107230000000000000       0090339900009954259142072315000066
100000000000000000000009033990000995400000000000000000000000010002020032549507231100000000002            2  01325495072308072300000002994050000000001N010723000000000000000000000000000000000000000000000000000000000000000100032549502833PAMELA DECENCI                          RUA URUGUAI - 89 AP.61 - AVIACAO - PRAIA            11702300                                                            000068
2SR. CAIXA, APOS O VENCIMENTO COBRAR 2% DE MULTA                                 NAO RECEBER APOS 30 DIAS DO VENCIMENTO.                                                                                                                                                                                                         01072300000000000000107230000000000000       0090339900009954325495072311000069
100000000000000000000009033990000995400000000000000000000000010002020027969407231000000000002            2  01279694072308072300000002407820000000001N010723000000000000000000000000000000000000000000000000000000000000000100027969412807THIAGO BARRETO PEREZ                    RUA ARMINDO GUARANA - 170 - VILA REGENTE            03335070                                                            000071
2SR. CAIXA, APOS O VENCIMENTO COBRAR 2% DE MULTA                                 NAO RECEBER APOS 30 DIAS DO VENCIMENTO.                                                                                                                                                                                                         01072300000000000000107230000000000000       0090339900009954279694072310000072
9                                                                                                                                                                                                                                                                                                                                                                                                         000073