01REMESSA01COBRANCA       00000000000004991454AIRES CONSTRUTORA E INCORPORAD237BRADESCO       011218        MX0000086                                                                                                                                                                                                                                                                                     000001
100000000000000000000009077090001674800000000000000000000000010002100094852212181500000000002            2  01948522121810121800000009763010000000001N011218000000000000000000000000000000000000000000000000000000000000000100094852294887GISELDA MENON                           RUA OTAVIO BARRETO - 105 - VILA SANTISTA            02560080                                                            000002
2SR. CAIXA, APOS O VENCIMENTO COBRAR 10% DE MULTA                                NAO RECEBER APOS 30 DIAS DO VENCIMENTO.                                                                                                                                                                                                         01121800000000000000112180000000000000       0090770900016748948522121815000003
100000000000000000000009077090001674800000000000000000000000010002100094852212182300000000002            2  01948522121810121800000002269900000000001N011218000000000000000000000000000000000000000000000000000000000000000100094852294887GISELDA MENON                           RUA OTAVIO BARRETO - 105 - VILA SANTISTA            02560080                                                            000005
2SR. CAIXA, APOS O VENCIMENTO COBRAR 10% DE MULTA                                NAO RECEBER APOS 30 DIAS DO VENCIMENTO.                                                                                                                                                                                                         01121800000000000000112180000000000000       0090770900016748948522121823000006
100000000000000000000009077090001674800000000000000000000000010002100006485912181100000000002            2  01064859121810121800000003481290000000001N011218000000000000000000000000000000000000000000000000000000000000000100006485911820CELIO MANUEL  MELIM SANTO               RUA JUVENAL FERREIRA  - 85 AP.61 - VILA             03512040                                                            000008
2SR. CAIXA, APOS O VENCIMENTO COBRAR 10% DE MULTA                                NAO RECEBER APOS 30 DIAS DO VENCIMENTO.                                                                                                                                                                                                         01121800000000000000112180000000000000       0090770900016748064859121811000009
100000000000000000000009077090001674800000000000000000000000010002100004693812181000000000002            2  01046938121810121800000003034210000000001N011218000000000000000000000000000000000000000000000000000000000000000100004693857823NIVALDO BARTOLOMEU FERREIRA             MNS JOSE MARINONI  - 33 - SANTO AMARO -             04430350                                                            000011
2SR. CAIXA, APOS O VENCIMENTO COBRAR 10% DE MULTA                                NAO RECEBER APOS 30 DIAS DO VENCIMENTO.                                                                                                                                                                                                         01121800000000000000112180000000000000       0090770900016748046938121810000012
100000000000000000000009077090001674800000000000000000000000010002100027993112181P00000000002            2  01279931121810121800000002889230000000001N011218000000000000000000000000000000000000000000000000000000000000000100027993108853DALVA JESUS RODRIGUES CABRAL            RUA CRISTOVAO COLOMBO GONCALVES - 97 - C            04811050                                                            000014
2SR. CAIXA, APOS O VENCIMENTO COBRAR 10% DE MULTA                                NAO RECEBER APOS 30 DIAS DO VENCIMENTO.                                                                                                                                                                                                         01121800000000000000112180000000000000       009077090001674827993112181P000015
100000000000000000000009077090001674800000000000000000000000010002100000455412181900000000002            2  01004554121810121800000003001250000000001N011218000000000000000000000000000000000000000000000000000000000000000100000455495831PAULO HENRIQUE LOURENCO                 RUA FIGUEIRA  - 237 - CIDADE DAS FLORES             06184060                                                            000017
2SR. CAIXA, APOS O VENCIMENTO COBRAR 10% DE MULTA                                NAO RECEBER APOS 30 DIAS DO VENCIMENTO.                                                                                                                                                                                                         01121800000000000000112180000000000000       0090770900016748004554121819000018
100000000000000000000009077090001674800000000000000000000000010002100006140012181P00000000002            2  01061400121810121800000003721970000000001N011218000000000000000000000000000000000000000000000000000000000000000100006140049857MARIA ALBANI DA SILVA EUSEBIO           RUA ORLANDO SEGALA - 108 - JARDIM ADRIAN            07135190                                                            000020
2SR. CAIXA, APOS O VENCIMENTO COBRAR 10% DE MULTA                                NAO RECEBER APOS 30 DIAS DO VENCIMENTO.                                                                                                                                                                                                         01121800000000000000112180000000000000       009077090001674806140012181P000021
100000000000000000000009077090001674800000000000000000000000010002100007768712181900000000002            2  01077687121810121800000003780900000000001N011218000000000000000000000000000000000000000000000000000000000000000100007768713826FATIMA LUZIA BIANCHI                    DR. OLIDAIR AMBROSIO - 1487 AP.03 - CENT            14160170                                                            000023
2SR. CAIXA, APOS O VENCIMENTO COBRAR 10% DE MULTA                                NAO RECEBER APOS 30 DIAS DO VENCIMENTO.                                                                                                                                                                                                         01121800000000000000112180000000000000       0090770900016748077687121819000024
100000000000000000000009077090001674800000000000000000000000010002100021716812181600000000002            2  01217168121810121800000003724770000000001N011218000000000000000000000000000000000000000000000000000000000000000100021716847800DANIELLE FAGUNDES DE A.MATOS            CONDE MOREIRA LIMA - 644 - JARDIM JABAQU            04384032                                                            000026
2SR. CAIXA, APOS O VENCIMENTO COBRAR 10% DE MULTA                                NAO RECEBER APOS 30 DIAS DO VENCIMENTO.                                                                                                                                                                                                         01121800000000000000112180000000000000       0090770900016748217168121816000027
100000000000000000000009077090001674800000000000000000000000010002100085416912181P00000000002            2  01854169121810121800000003157530000000001N011218000000000000000000000000000000000000000000000000000000000000000100085416940891ANTONIO DE SOUSA MENDES                 RUA MONTE CASTELO - 296 AP.52 - AVIACAO             11702720                                                            000029
2SR. CAIXA, APOS O VENCIMENTO COBRAR 10% DE MULTA                                NAO RECEBER APOS 30 DIAS DO VENCIMENTO.                                                                                                                                                                                                         01121800000000000000112180000000000000       009077090001674885416912181P000030
100000000000000000000009077090001674800000000000000000000000010002100005678012181300000000002            2  01056780121810121800000003288530000000001N011218000000000000000000000000000000000000000000000000000000000000000100005678057863FABIO MOREIRA CAMPOS                    RUA FLORENCIO DA SILVA - 284 - VILA LIBA            03738070                                                            000032
2SR. CAIXA, APOS O VENCIMENTO COBRAR 10% DE MULTA                                NAO RECEBER APOS 30 DIAS DO VENCIMENTO.                                                                                                                                                                                                         01121800000000000000112180000000000000       0090770900016748056780121813000033
100000000000000000000009077090001674800000000000000000000000010002100007784412181P00000000002            2  01077844121810121800000003320640000000001N011218000000000000000000000000000000000000000000000000000000000000000100007784496885GUILHERME LEONARDO DO NASCIMENTO        COMENDADOR RUBENS RONCARE - 127 - PONTE             11530120                                                            000035
2SR. CAIXA, APOS O VENCIMENTO COBRAR 10% DE MULTA                                NAO RECEBER APOS 30 DIAS DO VENCIMENTO.                                                                                                                                                                                                         01121800000000000000112180000000000000       009077090001674807784412181P000036
100000000000000000000009077090001674800000000000000000000000010002100016348212181P00000000002            2  01163482121810121800000003208200000000001N011218000000000000000000000000000000000000000000000000000000000000000100016348237885AILTON LORENA                           AVENIDA BRASILIA - 194 - BELA VISTA - SA            09180260                                                            000038
2SR. CAIXA, APOS O VENCIMENTO COBRAR 10% DE MULTA                                NAO RECEBER APOS 30 DIAS DO VENCIMENTO.                                                                                                                                                                                                         01121800000000000000112180000000000000       009077090001674816348212181P000039
100000000000000000000009077090001674800000000000000000000000010002100081218412181300000000002            2  01812184121810121800000003096320000000001N011218000000000000000000000000000000000000000000000000000000000000000100081218486953OSMAR DA COSTA                          RUA MONTE CASTELO - 295 AP.33 - AVIACAO             11702720                                                            000041
2SR. CAIXA, APOS O VENCIMENTO COBRAR 10% DE MULTA                                NAO RECEBER APOS 30 DIAS DO VENCIMENTO.                                                                                                                                                                                                         01121800000000000000112180000000000000       0090770900016748812184121813000042
100000000000000000000009077090001674800000000000000000000000010002100004981812181600000000002            2  01049818121810121800000003516850000000001N011218000000000000000000000000000000000000000000000000000000000000000100004981884850SILVIO PAULINO GONCALVES                MARIA DE CASTRO MESQUITA - 84 AP.103 BLO            07110040                                                            000044
2SR. CAIXA, APOS O VENCIMENTO COBRAR 10% DE MULTA                                NAO RECEBER APOS 30 DIAS DO VENCIMENTO.                                                                                                                                                                                                         01121800000000000000112180000000000000       0090770900016748049818121816000045
100000000000000000000009077090001674800000000000000000000000010002100019282512181000000000002            2  01192825121810121800000002308460000000001N011218000000000000000000000000000000000000000000000000000000000000000100019282546837FABIO LEANDRO DE FREITAS ASSIS          RUA BASSIM NAGIB TRABULSI - 97 - PONTA D            11030540                                                            000047
2SR. CAIXA, APOS O VENCIMENTO COBRAR 10% DE MULTA                                NAO RECEBER APOS 30 DIAS DO VENCIMENTO.                                                                                                                                                                                                         01121800000000000000112180000000000000       0090770900016748192825121810000048
100000000000000000000009077090001674800000000000000000000000010002100008423412181400000000002            2  01084234121810121800000003208130000000001N011218000000000000000000000000000000000000000000000000000000000000000100008423485811EDSON LUIZ NUNES                        RUA NOEMIA PEDROSO BUENO - 41 - JARDIM G            09360440                                                            000050
2SR. CAIXA, APOS O VENCIMENTO COBRAR 10% DE MULTA                                NAO RECEBER APOS 30 DIAS DO VENCIMENTO.                                                                                                                                                                                                         01121800000000000000112180000000000000       0090770900016748084234121814000051
100000000000000000000009077090001674800000000000000000000000010002100003010512181300000000002            2  01030105121810121800000003712220000000001N011218000000000000000000000000000000000000000000000000000000000000000100003010502877GIZELA VIEIRA BARROS                    RUA GIACOMO DALCIN - 157 - MAUA - SAO CA            09580350                                                            000053
2SR. CAIXA, APOS O VENCIMENTO COBRAR 10% DE MULTA                                NAO RECEBER APOS 30 DIAS DO VENCIMENTO.                                                                                                                                                                                                         01121800000000000000112180000000000000       0090770900016748030105121813000054
100000000000000000000009077090001674800000000000000000000000010002100009777212181000000000002            2  01097772121810121800000002910530000000001N011218000000000000000000000000000000000000000000000000000000000000000100009777281889CARLITA DE FIGUEIREDO CARVALHO          AVENIDA ALBERTO DE ALMEIDA VINHAS - 4462            11701350                                                            000056
2SR. CAIXA, APOS O VENCIMENTO COBRAR 10% DE MULTA                                NAO RECEBER APOS 30 DIAS DO VENCIMENTO.                                                                                                                                                                                                         01121800000000000000112180000000000000       0090770900016748097772121810000057
100000000000000000000009077090001674800000000000000000000000010002100004213012181800000000002            2  01042130121810121800000003456500000000001N011218000000000000000000000000000000000000000000000000000000000000000100004213020894ELIETE DRUGOVICH DE LIMA                RUA OSVALDO CRUZ - 141 AP.144-B - SANTA             09541270                                                            000059
2SR. CAIXA, APOS O VENCIMENTO COBRAR 10% DE MULTA                                NAO RECEBER APOS 30 DIAS DO VENCIMENTO.                                                                                                                                                                                                         01121800000000000000112180000000000000       0090770900016748042130121818000060
100000000000000000000009077090001674800000000000000000000000010002100043122812181200000000002            2  01431228121810121800000002355930000000001N011218000000000000000000000000000000000000000000000000000000000000000100043122850800ANTONIO JOAQUIM GOES                    ANTONIO DOAS DA SILVA - 412 - VILA AMALI            02618110                                                            000062
2SR. CAIXA, APOS O VENCIMENTO COBRAR 10% DE MULTA                                NAO RECEBER APOS 30 DIAS DO VENCIMENTO.                                                                                                                                                                                                         01121800000000000000112180000000000000       0090770900016748431228121812000063
100000000000000000000009077090001674800000000000000000000000010002100003865712181900000000002            2  01038657121810121800000003093170000000001N011218000000000000000000000000000000000000000000000000000000000000000100003865776841FRANCISCO JOSE ROCCO                    RUA FABIO JOSE BEZERRA - 130 AP.86 - PAR            03805000                                                            000065
2SR. CAIXA, APOS O VENCIMENTO COBRAR 10% DE MULTA                                NAO RECEBER APOS 30 DIAS DO VENCIMENTO.                                                                                                                                                                                                         01121800000000000000112180000000000000       0090770900016748038657121819000066
100000000000000000000009077090001674800000000000000000000000010002100028309512181500000000002            2  01283095121810121800000002758410000000001N011218000000000000000000000000000000000000000000000000000000000000000100028309524803DEISE RIBEIRO BARBOSA                   RUA CANDIDO JOSE DE ANDRADE - 173 - ERME            03807030                                                            000068
2SR. CAIXA, APOS O VENCIMENTO COBRAR 10% DE MULTA                                NAO RECEBER APOS 30 DIAS DO VENCIMENTO.                                                                                                                                                                                                         01121800000000000000112180000000000000       0090770900016748283095121815000069
100000000000000000000009077090001674800000000000000000000000010002100011277912181500000000002            2  01112779121810121800000003273920000000001N011218000000000000000000000000000000000000000000000000000000000000000100011277908893JOSE AILTON LOPES DE AZEVEDO            RUA MAESTRO JOAO SEPE - 19 - JARDIM MARI            04181030                                                            000071
2SR. CAIXA, APOS O VENCIMENTO COBRAR 10% DE MULTA                                NAO RECEBER APOS 30 DIAS DO VENCIMENTO.                                                                                                                                                                                                         01121800000000000000112180000000000000       0090770900016748112779121815000072
100000000000000000000009077090001674800000000000000000000000010002100025215112181200000000002            2  01252151121810121800000002468940000000001N011218000000000000000000000000000000000000000000000000000000000000000100025215106886KLEBER LUIZ DOS SANTOS                  RUA MONTE CASTELO - 262 AP.15 - AVIACAO             11702720                                                            000074
2SR. CAIXA, APOS O VENCIMENTO COBRAR 10% DE MULTA                                NAO RECEBER APOS 30 DIAS DO VENCIMENTO.                                                                                                                                                                                                         01121800000000000000112180000000000000       0090770900016748252151121812000075
100000000000000000000009077090001674800000000000000000000000010002100090206712181P00000000002            2  01902067121810121800000002757700000000001N011218000000000000000000000000000000000000000000000000000000000000000100090206789815NEREIDE RODRIGUES FERREIRA              AVENIDA PADRE ESTANISLAU DE CAMPOS - 205            03590060                                                            000077
2SR. CAIXA, APOS O VENCIMENTO COBRAR 10% DE MULTA                                NAO RECEBER APOS 30 DIAS DO VENCIMENTO.                                                                                                                                                                                                         01121800000000000000112180000000000000       009077090001674890206712181P000078
100000000000000000000009077090001674800000000000000000000000010002100029150712181800000000002            2  01291507121810121800000003227950000000001N011218000000000000000000000000000000000000000000000000000000000000000100029150742833ANA DEISE SANTOS DE ALMEIDA             RUA MONTE CASTELO - 296 AP.121 - AVIACAO            11702720                                                            000080
2SR. CAIXA, APOS O VENCIMENTO COBRAR 10% DE MULTA                                NAO RECEBER APOS 30 DIAS DO VENCIMENTO.                                                                                                                                                                                                         01121800000000000000112180000000000000       0090770900016748291507121818000081
100000000000000000000009077090001674800000000000000000000000010002100000811712181300000000002            2  01008117121810121800000002658810000000001N011218000000000000000000000000000000000000000000000000000000000000000100000811752801SERGIO BUENO DA SILVA                   RUA MONTE CASTELO - 262 AP.75 - AVIACAO             11702720                                                            000083
2SR. CAIXA, APOS O VENCIMENTO COBRAR 10% DE MULTA                                NAO RECEBER APOS 30 DIAS DO VENCIMENTO.                                                                                                                                                                                                         01121800000000000000112180000000000000       0090770900016748008117121813000084
100000000000000000000009077090001674800000000000000000000000010002100018344812181P00000000002            2  01183448121810121800000003379910000000001N011218000000000000000000000000000000000000000000000000000000000000000100018344803888MARCELO BERNARDO                        RUA MONTE CASTELO - 262 AP.84 - AVIACAO             11702720                                                            000086
2SR. CAIXA, APOS O VENCIMENTO COBRAR 10% DE MULTA                                NAO RECEBER APOS 30 DIAS DO VENCIMENTO.                                                                                                                                                                                                         01121800000000000000112180000000000000       009077090001674818344812181P000087
100000000000000000000009077090001674800000000000000000000000010002100004004312181700000000002            2  01040043121810121800000004738540000000001N011218000000000000000000000000000000000000000000000000000000000000000100004004328896VANDERLEI  MARTINS DE ALMEIDA           RUA MONSENHOR TABOSA - 03 - PARQUE CISPE            03819300                                                            000089
2SR. CAIXA, APOS O VENCIMENTO COBRAR 10% DE MULTA                                NAO RECEBER APOS 30 DIAS DO VENCIMENTO.                                                                                                                                                                                                         01121800000000000000112180000000000000       0090770900016748040043121817000090
100000000000000000000009077090001674800000000000000000000000010002100005133012181100000000002            2  01051330121810121800000003236570000000001N011218000000000000000000000000000000000000000000000000000000000000000100005133053860VICENTE ARCIPRETE JUNIOR                RUA JOSE SIMOES FERREIRA FILHO - 80 - JA            06040090                                                            000092
2SR. CAIXA, APOS O VENCIMENTO COBRAR 10% DE MULTA                                NAO RECEBER APOS 30 DIAS DO VENCIMENTO.                                                                                                                                                                                                         01121800000000000000112180000000000000       0090770900016748051330121811000093
100000000000000000000009077090001674800000000000000000000000010002100056660212181600000000002            2  01566602121810121800000000787230000000001N011218000000000000000000000000000000000000000000000000000000000000000100056660235868JOSE DA SILVA                           RUA MONTE CASTELO - 296 AP.32 - AVIACAO             11702720                                                            000095
2SR. CAIXA, APOS O VENCIMENTO COBRAR 10% DE MULTA                                NAO RECEBER APOS 30 DIAS DO VENCIMENTO.                                                                                                                                                                                                         01121800000000000000112180000000000000       0090770900016748566602121816000096
100000000000000000000009077090001674800000000000000000000000010002100016339412181800000000002            2  01163394121810121800000002858920000000001N011218000000000000000000000000000000000000000000000000000000000000000100016339432832ALEX MONTEIRO DA SILVA                  RUA IVA MOURA LIMA - 04 - JARDIM MIRNA I            04855540                                                            000098
2SR. CAIXA, APOS O VENCIMENTO COBRAR 10% DE MULTA                                NAO RECEBER APOS 30 DIAS DO VENCIMENTO.                                                                                                                                                                                                         01121800000000000000112180000000000000       0090770900016748163394121818000099
100000000000000000000009077090001674800000000000000000000000010002100031803812181500000000002            2  01318038121810121800000002919540000000001N011218000000000000000000000000000000000000000000000000000000000000000100031803864877ELEILSON FELIPPE SANTOS                 RUA SANTA GREGORIA - 193 - CIDADE DUTRA             04806030                                                            000101
2SR. CAIXA, APOS O VENCIMENTO COBRAR 10% DE MULTA                                NAO RECEBER APOS 30 DIAS DO VENCIMENTO.                                                                                                                                                                                                         01121800000000000000112180000000000000       0090770900016748318038121815000102
100000000000000000000009077090001674800000000000000000000000010002100026032612181300000000002            2  01260326121810121800000002009110000000001N011218000000000000000000000000000000000000000000000000000000000000000100026032632857MARILA LOPES PEREIRA                    AVENIDA LUIZ GISHOKEM - 1761 AP.13 BL.05            05831315                                                            000104
2SR. CAIXA, APOS O VENCIMENTO COBRAR 10% DE MULTA                                NAO RECEBER APOS 30 DIAS DO VENCIMENTO.                                                                                                                                                                                                         01121800000000000000112180000000000000       0090770900016748260326121813000105
100000000000000000000009077090001674800000000000000000000000010002100063064512181P00000000002            2  01630645121810121800000003479160000000001N011218000000000000000000000000000000000000000000000000000000000000000100063064537849ANTONIO APARECIDO DA SILVA DESTEFANO    RUA PROFESSOR TEODORO BRAGA - 46 - VILA             02966020                                                            000107
2SR. CAIXA, APOS O VENCIMENTO COBRAR 10% DE MULTA                                NAO RECEBER APOS 30 DIAS DO VENCIMENTO.                                                                                                                                                                                                         01121800000000000000112180000000000000       009077090001674863064512181P000108
100000000000000000000009077090001674800000000000000000000000010002100010107712181500000000002            2  01101077121810121800000003334070000000001N011218000000000000000000000000000000000000000000000000000000000000000100010107711834VALDEMAR FECCHIO                        RUA DOUTOR MARTINS DE OLIVEIRA - 529 AP.            05638030                                                            000110
2SR. CAIXA, APOS O VENCIMENTO COBRAR 10% DE MULTA                                NAO RECEBER APOS 30 DIAS DO VENCIMENTO.                                                                                                                                                                                                         01121800000000000000112180000000000000       0090770900016748101077121815000111
100000000000000000000009077090001674800000000000000000000000010002100003330712181400000000002            2  01033307121810121800000004289090000000001N011218000000000000000000000000000000000000000000000000000000000000000100003330791837MARLI DA SILVA BARBOSA                  RUA GLICERIO CERQUEIRA LEITE - 151 - JAR            03675040                                                            000113
2SR. CAIXA, APOS O VENCIMENTO COBRAR 10% DE MULTA                                NAO RECEBER APOS 30 DIAS DO VENCIMENTO.                                                                                                                                                                                                         01121800000000000000112180000000000000       0090770900016748033307121814000114
100000000000000000000009077090001674800000000000000000000000010002100008931012181200000000002            2  01089310121810121800000001743460000000001N011218000000000000000000000000000000000000000000000000000000000000000100008931031874MARIA MARINHO DE OLIVEIRA               AVENIDA 9 DE JULHO - 1854 AP.81 - BELA V            01312001                                                            000116
2SR. CAIXA, APOS O VENCIMENTO COBRAR 10% DE MULTA                                NAO RECEBER APOS 30 DIAS DO VENCIMENTO.                                                                                                                                                                                                         01121800000000000000112180000000000000       0090770900016748089310121812000117
100000000000000000000009077090001674800000000000000000000000010002100005920512181900000000002            2  01059205121810121800000002025590000000001N011218000000000000000000000000000000000000000000000000000000000000000100005920579846SONIA MARIA VALDO POLLO                 RUA PALMIRA CERVI BARBARO - 797 - CIDADE            13214370                                                            000119
2SR. CAIXA, APOS O VENCIMENTO COBRAR 10% DE MULTA                                NAO RECEBER APOS 30 DIAS DO VENCIMENTO.                                                                                                                                                                                                         01121800000000000000112180000000000000       0090770900016748059205121819000120
100000000000000000000009077090001674800000000000000000000000010002100002494112181P00000000002            2  01024941121810121800000003045550000000001N011218000000000000000000000000000000000000000000000000000000000000000100002494107881CIRO FRANCISCO MARCHI DURIGON           RUA MONTE CASTELO - 262 AP.115 - AVIACAO            11702720                                                            000122
2SR. CAIXA, APOS O VENCIMENTO COBRAR 10% DE MULTA                                NAO RECEBER APOS 30 DIAS DO VENCIMENTO.                                                                                                                                                                                                         01121800000000000000112180000000000000       009077090001674802494112181P000123
100000000000000000000009077090001674800000000000000000000000010002100007002312181700000000002            2  01070023121810121800000002993940000000001N011218000000000000000000000000000000000000000000000000000000000000000100007002345869DOMINGOS DE BRITO GALVAO                RUA MONTE CASTELO - 262 AP.44 - AVIACAO             11702720                                                            000125
2SR. CAIXA, APOS O VENCIMENTO COBRAR 10% DE MULTA                                NAO RECEBER APOS 30 DIAS DO VENCIMENTO.                                                                                                                                                                                                         01121800000000000000112180000000000000       0090770900016748070023121817000126
100000000000000000000009077090001674800000000000000000000000010002100009346812181700000000002            2  01093468121810121800000001247120000000001N011218000000000000000000000000000000000000000000000000000000000000000100009346863862NELSON DE SOUZA SANTOS                  RUA PRIMEIRA CRUZ - 90 - PARQUE INDEPEND            03236060                                                            000128
2SR. CAIXA, APOS O VENCIMENTO COBRAR 10% DE MULTA                                NAO RECEBER APOS 30 DIAS DO VENCIMENTO.                                                                                                                                                                                                         01121800000000000000112180000000000000       0090770900016748093468121817000129
100000000000000000000009077090001674800000000000000000000000010002100016299012181000000000002            2  01162990121810121800000002886160000000001N011218000000000000000000000000000000000000000000000000000000000000000100016299008857FERNANDO CESAR CARVALHO                 AVENIDA MARCONDES DE BRITO - 1340 AP.74             03509000                                                            000131
2SR. CAIXA, APOS O VENCIMENTO COBRAR 10% DE MULTA                                NAO RECEBER APOS 30 DIAS DO VENCIMENTO.                                                                                                                                                                                                         01121800000000000000112180000000000000       0090770900016748162990121810000132
100000000000000000000009077090001674800000000000000000000000010002100031082812181400000000002            2  01310828121810121800000002900140000000001N011218000000000000000000000000000000000000000000000000000000000000000100031082898880VANESSA DOS SANTOS NEIVA                RUA MONTE CASTELO - 296 AP.33 - BAIRRO A            11702720                                                            000134
2SR. CAIXA, APOS O VENCIMENTO COBRAR 10% DE MULTA                                NAO RECEBER APOS 30 DIAS DO VENCIMENTO.                                                                                                                                                                                                         01121800000000000000112180000000000000       0090770900016748310828121814000135
100000000000000000000009077090001674800000000000000000000000010002100065895312181400000000002            2  01658953121810121800000001765770000000001N011218000000000000000000000000000000000000000000000000000000000000000100065895304834MARINHO BARBOSA CUNHA                   AVENIDA EDU CHAVES - 639 AP.43 - PARQUE             02229000                                                            000137
2SR. CAIXA, APOS O VENCIMENTO COBRAR 10% DE MULTA                                NAO RECEBER APOS 30 DIAS DO VENCIMENTO.                                                                                                                                                                                                         01121800000000000000112180000000000000       0090770900016748658953121814000138
9                                                                                                                                                                                                                                                                                                                                                                                                         000139