01REMESSA01COBRANCA       00000000000008017025HB SANTOS CONSTRUTORA E INCORP237BRADESCO       090823        MX0000184                                                                                                                                                                                                                                                                                     000001
100000000000000000000009033990000627000000000000000000000000010002020025035108231200000000002            2  01250351082324082300000003084500000000001N090823000000000000000000000000000000000000000000000000000000000000000100025035170802WANDERSON LUIS DE CARVALHO              RUA JOAQUIM GONCALVES ROCHA - 302 - JARD            02859030                                                            000002
2SR. CAIXA, APOS O VENCIMENTO COBRAR 2% DE MULTA                                 NAO RECEBER APOS 30 DIAS DO VENCIMENTO.                                                                                                                                                                                                         09082300000000000000908230000000000000       0090339900006270250351082312000003
100000000000000000000009033990000627000000000000000000000000010002020007294308231P00000000002            2  01072943082324082300000004148640000000001N090823000000000000000000000000000000000000000000000000000000000000000100007294351805CLAUDENIR APARECIDO VACARI              RUA CARLOS JOSE BORSTENS - 50 AP.93 - AV            11702750                                                            000005
2SR. CAIXA, APOS O VENCIMENTO COBRAR 2% DE MULTA                                 NAO RECEBER APOS 30 DIAS DO VENCIMENTO.                                                                                                                                                                                                         09082300000000000000908230000000000000       009033990000627007294308231P000006
100000000000000000000009033990000627000000000000000000000000010002020005071408231000000000002            2  01050714082324082300000004070570000000001N090823000000000000000000000000000000000000000000000000000000000000000100005071481855ERIBALDO SANTANA CARVALHO               RUA HONDURAS - 477 - PARQUE DAS AMERICAS            09351070                                                            000008
2SR. CAIXA, APOS O VENCIMENTO COBRAR 2% DE MULTA                                 NAO RECEBER APOS 30 DIAS DO VENCIMENTO.                                                                                                                                                                                                         09082300000000000000908230000000000000       0090339900006270050714082310000009
100000000000000000000009033990000627000000000000000000000000010002020002841708231400000000002            2  01028417082324082300000003808380000000001N090823000000000000000000000000000000000000000000000000000000000000000100002841756416LUCIANA PINHEIRO DE ASSIS NUNES         RUA RIO ACIMA - 81 - RIACHO GRANDE - SAO            09830100                                                            000011
2SR. CAIXA, APOS O VENCIMENTO COBRAR 2% DE MULTA                                 NAO RECEBER APOS 30 DIAS DO VENCIMENTO.                                                                                                                                                                                                         09082300000000000000908230000000000000       0090339900006270028417082314000012
100000000000000000000009033990000627000000000000000000000000010002020084302008231300000000002            2  01843020082324082300000003826660000000001N090823000000000000000000000000000000000000000000000000000000000000000100084302097868FAUSTO TADEU VILOR                      RUA ANTONIO TAVARES - 466 - BAIRRO CAMBU            01542010                                                            000014
2SR. CAIXA, APOS O VENCIMENTO COBRAR 2% DE MULTA                                 NAO RECEBER APOS 30 DIAS DO VENCIMENTO.                                                                                                                                                                                                         09082300000000000000908230000000000000       0090339900006270843020082313000015
100000000000000000000009033990000627000000000000000000000000010002020000991708231600000000002            2  01009917082324082300000003669650000000001N090823000000000000000000000000000000000000000000000000000000000000000100000991748808JAILSON BORGES DE ANDRADE               RUA IPIOBUNA - 45 - JARDIM CUMBICA - GUA            07240040                                                            000017
2SR. CAIXA, APOS O VENCIMENTO COBRAR 2% DE MULTA                                 NAO RECEBER APOS 30 DIAS DO VENCIMENTO.                                                                                                                                                                                                         09082300000000000000908230000000000000       0090339900006270009917082316000018
100000000000000000000009033990000627000000000000000000000000010002020022151608231200000000002            2  01221516082324082300000003648340000000001N090823000000000000000000000000000000000000000000000000000000000000000100022151666816SAMIR LIMA DE ARAUJO                    AVENIDA GUARAPIRANGA - 2616 AP.131 BL.14            04902005                                                            000020
2SR. CAIXA, APOS O VENCIMENTO COBRAR 2% DE MULTA                                 NAO RECEBER APOS 30 DIAS DO VENCIMENTO.                                                                                                                                                                                                         09082300000000000000908230000000000000       0090339900006270221516082312000021
100000000000000000000009033990000627000000000000000000000000010002020022313108231400000000002            2  01223131082326082300000002807710000000001N090823000000000000000000000000000000000000000000000000000000000000000100022313116824ROSA MARIA BRITO DA SILVA               RUA SERVIDAO DE SAO MARCOS - 128 CASA 1             04930300                                                            000023
2SR. CAIXA, APOS O VENCIMENTO COBRAR 2% DE MULTA                                 NAO RECEBER APOS 30 DIAS DO VENCIMENTO.                                                                                                                                                                                                         09082300000000000000908230000000000000       0090339900006270223131082314000024
100000000000000000000009033990000627000000000000000000000000010002020027538008231600000000002            2  01275380082326082300000002817480000000001N090823000000000000000000000000000000000000000000000000000000000000000100027538087249MARA LUCIA MENEZES DA COSTA             RUA LEILA  - 183 - ITAQUERA - SAO PAULO             08240020                                                            000026
2SR. CAIXA, APOS O VENCIMENTO COBRAR 2% DE MULTA                                 NAO RECEBER APOS 30 DIAS DO VENCIMENTO.                                                                                                                                                                                                         09082300000000000000908230000000000000       0090339900006270275380082316000027
100000000000000000000009033990000627000000000000000000000000010002020031278408231200000000002            2  01312784082324082300000003524400000000001N090823000000000000000000000000000000000000000000000000000000000000000100031278411836JEFFERSON DE PIERI PIRES ZAMUNER        RUA MANOEL ARCE - 277 - PARQUE BANCARIO             03922150                                                            000029
2SR. CAIXA, APOS O VENCIMENTO COBRAR 2% DE MULTA                                 NAO RECEBER APOS 30 DIAS DO VENCIMENTO.                                                                                                                                                                                                         09082300000000000000908230000000000000       0090339900006270312784082312000030
100000000000000000000009033990000627000000000000000000000000010002020019185708231400000000002            2  01191857082326082300000002564000000000001N090823000000000000000000000000000000000000000000000000000000000000000100019185769800AGUINALDO PESSOA DE LIMA                RUA JANUARIO ZINGARO - 252 AP.303 BL.04             05794300                                                            000032
2SR. CAIXA, APOS O VENCIMENTO COBRAR 2% DE MULTA                                 NAO RECEBER APOS 30 DIAS DO VENCIMENTO.                                                                                                                                                                                                         09082300000000000000908230000000000000       0090339900006270191857082314000033
100000000000000000000009033990000627000000000000000000000000010002020033303608231500000000002            2  01333036082326082300000002761620000000001N090823000000000000000000000000000000000000000000000000000000000000000100033303645809JESSICA DA SILVA FREITAS                RUA ARILDO VALADAO - 120 - JARDIM GUAEMB            04814600                                                            000035
2SR. CAIXA, APOS O VENCIMENTO COBRAR 2% DE MULTA                                 NAO RECEBER APOS 30 DIAS DO VENCIMENTO.                                                                                                                                                                                                         09082300000000000000908230000000000000       0090339900006270333036082315000036
100000000000000000000009033990000627000000000000000000000000010002020006422608231000000000002            2  01064226082324082300000003817020000000001N090823000000000000000000000000000000000000000000000000000000000000000100006422607881GERALDO ALVES DA SILVA                  RUA CARLOS JOSE BORSTENS - 50 AP.14 - AV            11702750                                                            000038
2SR. CAIXA, APOS O VENCIMENTO COBRAR 2% DE MULTA                                 NAO RECEBER APOS 30 DIAS DO VENCIMENTO.                                                                                                                                                                                                         09082300000000000000908230000000000000       0090339900006270064226082310000039
100000000000000000000009033990000627000000000000000000000000010002020033877108231200000000002            2  01338771082326082300000002589100000000001N090823000000000000000000000000000000000000000000000000000000000000000100033877129870HELDER FERREIRA VIANA                   RUA JOSE CALIXTO DO CARMO - 286 AP.35 -             11702690                                                            000041
2SR. CAIXA, APOS O VENCIMENTO COBRAR 2% DE MULTA                                 NAO RECEBER APOS 30 DIAS DO VENCIMENTO.                                                                                                                                                                                                         09082300000000000000908230000000000000       0090339900006270338771082312000042
100000000000000000000009033990000627000000000000000000000000010002020087573008231100000000002            2  01875730082326082300000002605710000000001N090823000000000000000000000000000000000000000000000000000000000000000100087573059604VANDERLEY DE ASSIS                      RUA ROMEU ALBANI - 268 - JARDIM PARQUE R            13803810                                                            000044
2SR. CAIXA, APOS O VENCIMENTO COBRAR 2% DE MULTA                                 NAO RECEBER APOS 30 DIAS DO VENCIMENTO.                                                                                                                                                                                                         09082300000000000000908230000000000000       0090339900006270875730082311000045
100000000000000000000009033990000627000000000000000000000000010002020010825508231900000000002            2  01108255082326082300000002719190000000001N090823000000000000000000000000000000000000000000000000000000000000000100010825513847JOSE APARECIDO PEREIRA                  RUA GENERAL OSORIO - 305 - JARDIM TRINTA            11515130                                                            000047
2SR. CAIXA, APOS O VENCIMENTO COBRAR 2% DE MULTA                                 NAO RECEBER APOS 30 DIAS DO VENCIMENTO.                                                                                                                                                                                                         09082300000000000000908230000000000000       0090339900006270108255082319000048
100000000000000000000009033990000627000000000000000000000000010002020039115108231000000000002            2  01391151082326082300000003351890000000001N090823000000000000000000000000000000000000000000000000000000000000000100039115139840LAIS CRISTINA RIBEIRO ANDO              RUA JOSE CALIXTO DO CARMO - 286 AP.65 -             11702690                                                            000050
2SR. CAIXA, APOS O VENCIMENTO COBRAR 2% DE MULTA                                 NAO RECEBER APOS 30 DIAS DO VENCIMENTO.                                                                                                                                                                                                         09082300000000000000908230000000000000       0090339900006270391151082310000051
100000000000000000000009033990000627000000000000000000000000010002020000593208231900000000002            2  01005932082324082300000004109010000000001N090823000000000000000000000000000000000000000000000000000000000000000100000593293860WALTER HELIO BARBOSA FILHO              AVENIDA ANTONIO FREDERICO OZANAN - 9500             13214206                                                            000053
2SR. CAIXA, APOS O VENCIMENTO COBRAR 2% DE MULTA                                 NAO RECEBER APOS 30 DIAS DO VENCIMENTO.                                                                                                                                                                                                         09082300000000000000908230000000000000       0090339900006270005932082319000054
100000000000000000000009033990000627000000000000000000000000010002020065584108231000000000002            2  01655841082324082300000002157010000000001N090823000000000000000000000000000000000000000000000000000000000000000100065584147834JOAQUIM DA COSTA MACHADO NETO           RUA CARLOS JOSE BORSTENS - 50 AP.42 - AV            11702750                                                            000056
2SR. CAIXA, APOS O VENCIMENTO COBRAR 2% DE MULTA                                 NAO RECEBER APOS 30 DIAS DO VENCIMENTO.                                                                                                                                                                                                         09082300000000000000908230000000000000       0090339900006270655841082310000057
100000000000000000000009033990000627000000000000000000000000010002020065584108232900000000002            2  01655841082324082300000002157000000000001N090823000000000000000000000000000000000000000000000000000000000000000100065584147834JOAQUIM DA COSTA MACHADO NETO           RUA CARLOS JOSE BORSTENS - 50 AP.42 - AV            11702750                                                            000059
2SR. CAIXA, APOS O VENCIMENTO COBRAR 2% DE MULTA                                 NAO RECEBER APOS 30 DIAS DO VENCIMENTO.                                                                                                                                                                                                         09082300000000000000908230000000000000       0090339900006270655841082329000060
100000000000000000000009033990000627000000000000000000000000010002020006684608231300000000002            2  01066846082326082300000002761320000000001N090823000000000000000000000000000000000000000000000000000000000000000100006684623884LAUDINOR VIEIRA GARCIA                  RUA CANDIDO SALES - 374 - JARDIM PRESIDE            07172000                                                            000062
2SR. CAIXA, APOS O VENCIMENTO COBRAR 2% DE MULTA                                 NAO RECEBER APOS 30 DIAS DO VENCIMENTO.                                                                                                                                                                                                         09082300000000000000908230000000000000       0090339900006270066846082313000063
100000000000000000000009033990000627000000000000000000000000010002020011663508231400000000002            2  01116635082326082300000002781170000000001N090823000000000000000000000000000000000000000000000000000000000000000100011663589844MARIA SAVIO QUARELLO                    AVENIDA MENDONCA DRUMOND - 321 - JARDIM             03524030                                                            000065
2SR. CAIXA, APOS O VENCIMENTO COBRAR 2% DE MULTA                                 NAO RECEBER APOS 30 DIAS DO VENCIMENTO.                                                                                                                                                                                                         09082300000000000000908230000000000000       0090339900006270116635082314000066
100000000000000000000009033990000627000000000000000000000000010002020010083808231600000000002            2  01100838082326082300000002687080000000001N090823000000000000000000000000000000000000000000000000000000000000000100010083824855IONE FERREIRA COUTO DA SILVA            RUA JOSE RAGEL DE MESQUITA - 60 CS.01 -             07799999                                                            000068
2SR. CAIXA, APOS O VENCIMENTO COBRAR 2% DE MULTA                                 NAO RECEBER APOS 30 DIAS DO VENCIMENTO.                                                                                                                                                                                                         09082300000000000000908230000000000000       0090339900006270100838082316000069
100000000000000000000009033990000627000000000000000000000000010002020031010708231100000000002            2  01310107082326082300000002636880000000001N090823000000000000000000000000000000000000000000000000000000000000000100031010705890ANDRE GONZALEZ RABELLO                  RUA PARAIBA - 106 AP.61 - POMPEIA - SANT            11065470                                                            000071
2SR. CAIXA, APOS O VENCIMENTO COBRAR 2% DE MULTA                                 NAO RECEBER APOS 30 DIAS DO VENCIMENTO.                                                                                                                                                                                                         09082300000000000000908230000000000000       0090339900006270310107082311000072
100000000000000000000009033990000627000000000000000000000000010002020005351008231000000000002            2  01053510082326082300000002472330000000001N090823000000000000000000000000000000000000000000000000000000000000000100005351015897VALERIA ALVES MARCOLINO HINNIGER        RUA JOSE CALIXTO DO CARMO - 286 AP.92 -             11702690                                                            000074
2SR. CAIXA, APOS O VENCIMENTO COBRAR 2% DE MULTA                                 NAO RECEBER APOS 30 DIAS DO VENCIMENTO.                                                                                                                                                                                                         09082300000000000000908230000000000000       0090339900006270053510082310000075
100000000000000000000009033990000627000000000000000000000000010002020031898708231600000000002            2  01318987082324082300000003931660000000001N090823000000000000000000000000000000000000000000000000000000000000000100031898775800ANITA MARTINS COLOMBO                   RUA CARLOS JOSE BORSTENS - 50 AP.115 - A            11702750                                                            000077
2SR. CAIXA, APOS O VENCIMENTO COBRAR 2% DE MULTA                                 NAO RECEBER APOS 30 DIAS DO VENCIMENTO.                                                                                                                                                                                                         09082300000000000000908230000000000000       0090339900006270318987082316000078
100000000000000000000009033990000627000000000000000000000000010002020037983408231600000000002            2  01379834082326082300000002904220000000001N090823000000000000000000000000000000000000000000000000000000000000000100037983484801JOSE ERIVALDO SOUZA DO NASCIMENTO RAMOS RUA LETICIA - 250 - JARDIM GUARUJA - SAO            05877260                                                            000080
2SR. CAIXA, APOS O VENCIMENTO COBRAR 2% DE MULTA                                 NAO RECEBER APOS 30 DIAS DO VENCIMENTO.                                                                                                                                                                                                         09082300000000000000908230000000000000       0090339900006270379834082316000081
100000000000000000000009033990000627000000000000000000000000010002020056289208231700000000002            2  01562892082326082300000002193960000000001N090823000000000000000000000000000000000000000000000000000000000000000100056289286900PEDRO RIBEIRO                           RUA CONEGO MANOEL VAZ - 48 - SANTANA - S            02019050                                                            000083
2SR. CAIXA, APOS O VENCIMENTO COBRAR 2% DE MULTA                                 NAO RECEBER APOS 30 DIAS DO VENCIMENTO.                                                                                                                                                                                                         09082300000000000000908230000000000000       0090339900006270562892082317000084
100000000000000000000009033990000627000000000000000000000000010002020034812208231700000000002            2  01348122082324082300000005203730000000001N090823000000000000000000000000000000000000000000000000000000000000000100034812226880THAIS TORQUATO MIMOSO DE JESUS          RUA ARNALDO CINTRA - 416 AP.104 TORRE 2             03088000                                                            000086
2SR. CAIXA, APOS O VENCIMENTO COBRAR 2% DE MULTA                                 NAO RECEBER APOS 30 DIAS DO VENCIMENTO.                                                                                                                                                                                                         09082300000000000000908230000000000000       0090339900006270348122082317000087
100000000000000000000009033990000627000000000000000000000000010002020012849408231300000000002            2  01128494082326082300000005187350000000001N090823000000000000000000000000000000000000000000000000000000000000000100012849428809MOISES CLAUDIO DO ROSARIO               AVENIDA DR. AUGUSTO DE TOLEDO - 510 AP.1            09541520                                                            000089
2SR. CAIXA, APOS O VENCIMENTO COBRAR 2% DE MULTA                                 NAO RECEBER APOS 30 DIAS DO VENCIMENTO.                                                                                                                                                                                                         09082300000000000000908230000000000000       0090339900006270128494082313000090
100000000000000000000009033990000627000000000000000000000000010002020014087408231600000000002            2  01140874082326082300000002863930000000001N090823000000000000000000000000000000000000000000000000000000000000000100014087484874SERGIO SANTOS DO NASCIMENTO             RUA JOSE CALIXTO DO CARMO - 286 AP.52 -             11702690                                                            000092
2SR. CAIXA, APOS O VENCIMENTO COBRAR 2% DE MULTA                                 NAO RECEBER APOS 30 DIAS DO VENCIMENTO.                                                                                                                                                                                                         09082300000000000000908230000000000000       0090339900006270140874082316000093
100000000000000000000009033990000627000000000000000000000000010002020026834508231500000000002            2  01268345082326082300000002638760000000001N090823000000000000000000000000000000000000000000000000000000000000000100026834550895RAQUEL CARDOSO JOAO                     RUA PEDROSO XAVIER - 277 AP.23 TORRE 01             02732020                                                            000095
2SR. CAIXA, APOS O VENCIMENTO COBRAR 2% DE MULTA                                 NAO RECEBER APOS 30 DIAS DO VENCIMENTO.                                                                                                                                                                                                         09082300000000000000908230000000000000       0090339900006270268345082315000096
100000000000000000000009033990000627000000000000000000000000010002020039540008231300000000002            2  01395400082326082300000002594280000000001N090823000000000000000000000000000000000000000000000000000000000000000100039540008816LUZINETE CLARINDO SILVA                 RUA DEINOS - 275 - BAIRRO CIDADE SATELIT            08340100                                                            000098
2SR. CAIXA, APOS O VENCIMENTO COBRAR 2% DE MULTA                                 NAO RECEBER APOS 30 DIAS DO VENCIMENTO.                                                                                                                                                                                                         09082300000000000000908230000000000000       0090339900006270395400082313000099
100000000000000000000009033990000627000000000000000000000000010002020003311008231000000000002            2  01033110082326082300000002701650000000001N090823000000000000000000000000000000000000000000000000000000000000000100003311030877SEBASTIAO SARUVA NETO                   RUA HAMILTON REGIS - 559 - BAIRRO DO LIM            08051440                                                            000101
2SR. CAIXA, APOS O VENCIMENTO COBRAR 2% DE MULTA                                 NAO RECEBER APOS 30 DIAS DO VENCIMENTO.                                                                                                                                                                                                         09082300000000000000908230000000000000       0090339900006270033110082310000102
100000000000000000000009033990000627000000000000000000000000010002020090091908231700000000002            2  01900919082326082300000002582360000000001N090823000000000000000000000000000000000000000000000000000000000000000100090091990882JUECIR CARVALHO DA LUZ                  RUA JOSE CALIXTO DO CARMO - 286 AP.114 -            11702690                                                            000104
2SR. CAIXA, APOS O VENCIMENTO COBRAR 2% DE MULTA                                 NAO RECEBER APOS 30 DIAS DO VENCIMENTO.                                                                                                                                                                                                         09082300000000000000908230000000000000       0090339900006270900919082317000105
100000000000000000000009033990000627000000000000000000000000010002020037325908231900000000002            2  01373259082326082300000002113290000000001N090823000000000000000000000000000000000000000000000000000000000000000100037325923830MARIA AUGUSTA OLIVEIRA DE ANDRADE       RUA JOSE CALIXTO DO CARMO - 286 AP.124 -            11702690                                                            000107
2SR. CAIXA, APOS O VENCIMENTO COBRAR 2% DE MULTA                                 NAO RECEBER APOS 30 DIAS DO VENCIMENTO.                                                                                                                                                                                                         09082300000000000000908230000000000000       0090339900006270373259082319000108
100000000000000000000009033990000627000000000000000000000000010002020012478808231600000000002            2  01124788082324082300000003845650000000001N090823000000000000000000000000000000000000000000000000000000000000000100012478899809VITORIA BATISTA QUEIROZ                 RUA CARVALHO DE FREITAS - 255 AP.71A - V            05728030                                                            000110
2SR. CAIXA, APOS O VENCIMENTO COBRAR 2% DE MULTA                                 NAO RECEBER APOS 30 DIAS DO VENCIMENTO.                                                                                                                                                                                                         09082300000000000000908230000000000000       0090339900006270124788082316000111
100000000000000000000009033990000627000000000000000000000000010002020013184808231700000000002            2  01131848082326082300000002553000000000001N090823000000000000000000000000000000000000000000000000000000000000000100013184856810SYDNEY HENRIQUE GAMARANO JUNIOR         RUA JOSE CALIXTO DO CARMO - 286 AP.125 -            11702690                                                            000113
2SR. CAIXA, APOS O VENCIMENTO COBRAR 2% DE MULTA                                 NAO RECEBER APOS 30 DIAS DO VENCIMENTO.                                                                                                                                                                                                         09082300000000000000908230000000000000       0090339900006270131848082317000114
100000000000000000000009033990000627000000000000000000000000010002020097989908231000000000002            2  01979899082326082300000001774170000000001N090823000000000000000000000000000000000000000000000000000000000000000100097989924820NELSON LUIS BERRIBILLE                  RUA SILVEIRA IGNACIO SOBRINHO - 965 - VI            13560294                                                            000116
2SR. CAIXA, APOS O VENCIMENTO COBRAR 2% DE MULTA                                 NAO RECEBER APOS 30 DIAS DO VENCIMENTO.                                                                                                                                                                                                         09082300000000000000908230000000000000       0090339900006270979899082310000117
100000000000000000000009033990000627000000000000000000000000010002020097989908232900000000002            2  01979899082326082300000001774160000000001N090823000000000000000000000000000000000000000000000000000000000000000100097989924820NELSON LUIS BERRIBILLE                  RUA SILVEIRA IGNACIO SOBRINHO - 965 - VI            13560294                                                            000119
2SR. CAIXA, APOS O VENCIMENTO COBRAR 2% DE MULTA                                 NAO RECEBER APOS 30 DIAS DO VENCIMENTO.                                                                                                                                                                                                         09082300000000000000908230000000000000       0090339900006270979899082329000120
100000000000000000000009033990000627000000000000000000000000010002020032341808231P00000000002            2  01323418082324082300000003994550000000001N090823000000000000000000000000000000000000000000000000000000000000000100032341847803PRISCILA ALVES DE FRANCA MIRANDA        RUA CARLOS JOSE BORSTENS - 50 AP.91 - AV            11702750                                                            000122
2SR. CAIXA, APOS O VENCIMENTO COBRAR 2% DE MULTA                                 NAO RECEBER APOS 30 DIAS DO VENCIMENTO.                                                                                                                                                                                                         09082300000000000000908230000000000000       009033990000627032341808231P000123
100000000000000000000009033990000627000000000000000000000000010002020016050608231500000000002            2  01160506082324082300000003707720000000001N090823000000000000000000000000000000000000000000000000000000000000000100016050684898ANDRE RODRIGUES DE OLIVEIRA             RUA CORACAO PAULISTA - 14 - FAZENDA ITAI            08132430                                                            000125
2SR. CAIXA, APOS O VENCIMENTO COBRAR 2% DE MULTA                                 NAO RECEBER APOS 30 DIAS DO VENCIMENTO.                                                                                                                                                                                                         09082300000000000000908230000000000000       0090339900006270160506082315000126
100000000000000000000009033990000627000000000000000000000000010002020021464908231900000000002            2  01214649082324082300000005843440000000001N090823000000000000000000000000000000000000000000000000000000000000000100021464965846ANDREA APARECIDA DE OLIVEIRA PECCI      RUA ANTONIO BOZ MARFIL - 103 - PARQUE DO            05396020                                                            000128
2SR. CAIXA, APOS O VENCIMENTO COBRAR 2% DE MULTA                                 NAO RECEBER APOS 30 DIAS DO VENCIMENTO.                                                                                                                                                                                                         09082300000000000000908230000000000000       0090339900006270214649082319000129
100000000000000000000009033990000627000000000000000000000000010002020030348108231000000000002            2  01303481082324082300000003540550000000001N090823000000000000000000000000000000000000000000000000000000000000000100030348198892KELLY CRISTINA CORDEIRO                 RUA CARLOS JOSE BORSTENS - 50 AP.25 - AV            11702750                                                            000131
2SR. CAIXA, APOS O VENCIMENTO COBRAR 2% DE MULTA                                 NAO RECEBER APOS 30 DIAS DO VENCIMENTO.                                                                                                                                                                                                         09082300000000000000908230000000000000       0090339900006270303481082310000132
100000000000000000000009033990000627000000000000000000000000010002020003597508231900000000002            2  01035975082326082300000002386230000000001N090823000000000000000000000000000000000000000000000000000000000000000100003597509827ANISIO FAUSTINO DE OLIVEIRA             RUA DOMINGOS DE MAMBRO - 5 CASA 20 - CIT            06040290                                                            000134
2SR. CAIXA, APOS O VENCIMENTO COBRAR 2% DE MULTA                                 NAO RECEBER APOS 30 DIAS DO VENCIMENTO.                                                                                                                                                                                                         09082300000000000000908230000000000000       0090339900006270035975082319000135
9                                                                                                                                                                                                                                                                                                                                                                                                         000136