01REMESSA01COBRANCA       00000000000005316116AIRES CONSTRUTORA E INCORPORAD237BRADESCO       110121        MX0000162                                                                                                                                                                                                                                                                                     000001
100000000000000000000009002800441612000000000000000000000000010002100029380701211800000000002            2  01293807012125012100000003546380000000001N110121000000000000000000000000000000000000000000000000000000000000000100029380708882EDUARDO MENDONCA DAMASCENO              RUA MONTE CASTELO - 296 AP.12 - AVIACAO             11702720                                                            000002
2SR. CAIXA, APOS O VENCIMENTO COBRAR 10% DE MULTA                                NAO RECEBER APOS 30 DIAS DO VENCIMENTO.                                                                                                                                                                                                         11012100000000000001101210000000000000       0090028004416120293807012118000003
100000000000000000000009002800441612000000000000000000000000010002100023988501211100000000002            2  01239885012125012100000003600940000000001N110121000000000000000000000000000000000000000000000000000000000000000100023988525634DALMY PIMENTA                           RUA JOAQUIM TELESFORO DE OLIVEIRA - 344             38061608                                                            000005
2SR. CAIXA, APOS O VENCIMENTO COBRAR 10% DE MULTA                                NAO RECEBER APOS 30 DIAS DO VENCIMENTO.                                                                                                                                                                                                         11012100000000000001101210000000000000       0090028004416120239885012111000006
100000000000000000000009002800441612000000000000000000000000010002100007975901211700000000002            2  01079759012125012100000003808270000000001N110121000000000000000000000000000000000000000000000000000000000000000100007975958808JOCY VIGNADO                            RUA PEDRO GONCALVES SOBRINHO - 568 - PAR            13098641                                                            000008
2SR. CAIXA, APOS O VENCIMENTO COBRAR 10% DE MULTA                                NAO RECEBER APOS 30 DIAS DO VENCIMENTO.                                                                                                                                                                                                         11012100000000000001101210000000000000       0090028004416120079759012117000009
100000000000000000000009002800441612000000000000000000000000010002100023132601211900000000002            2  01231326012125012100000002223460000000001N110121000000000000000000000000000000000000000000000000000000000000000100023132672882LEANDRO MORENO                          RUA MONTE CASTELO - 296 AP.64 - AVIACAO             11702720                                                            000011
2SR. CAIXA, APOS O VENCIMENTO COBRAR 10% DE MULTA                                NAO RECEBER APOS 30 DIAS DO VENCIMENTO.                                                                                                                                                                                                         11012100000000000001101210000000000000       0090028004416120231326012119000012
100000000000000000000009002800441612000000000000000000000000010002100099264601211800000000002            2  01992646012125012100000003791930000000001N110121000000000000000000000000000000000000000000000000000000000000000100099264692800LEONTINO PINHEIRO DA SILVA              AVENIDA JOAO BATISTA FITIPALDI - 469 - V            08685000                                                            000014
2SR. CAIXA, APOS O VENCIMENTO COBRAR 10% DE MULTA                                NAO RECEBER APOS 30 DIAS DO VENCIMENTO.                                                                                                                                                                                                         11012100000000000001101210000000000000       0090028004416120992646012118000015
100000000000000000000009002800441612000000000000000000000000010002100000666301211900000000002            2  01006663012125012100000003658150000000001N110121000000000000000000000000000000000000000000000000000000000000000100000666344825LUIZ HENRIQUE DE CAMPOS                 RUA JOAO CARLOS CAVALCANTI REIS - 21 - J            02281206                                                            000017
2SR. CAIXA, APOS O VENCIMENTO COBRAR 10% DE MULTA                                NAO RECEBER APOS 30 DIAS DO VENCIMENTO.                                                                                                                                                                                                         11012100000000000001101210000000000000       0090028004416120006663012119000018
100000000000000000000009002800441612000000000000000000000000010002100029155001211900000000002            2  01291550012125012100000003863140000000001N110121000000000000000000000000000000000000000000000000000000000000000100029155026842DANIELA YOSHIDA                         RUA MONTE CASTELO - 262 AP.34 - AVIACAO             11702720                                                            000020
2SR. CAIXA, APOS O VENCIMENTO COBRAR 10% DE MULTA                                NAO RECEBER APOS 30 DIAS DO VENCIMENTO.                                                                                                                                                                                                         11012100000000000001101210000000000000       0090028004416120291550012119000021
100000000000000000000009002800441612000000000000000000000000010002100001204401211200000000002            2  01012044012125012100000003145990000000001N110121000000000000000000000000000000000000000000000000000000000000000100001204431809CEZAR TALAVERA JUNIOR                   RUA MAESTRO ARTURO DE ANGELIS  - 190 AP.            05139010                                                            000023
2SR. CAIXA, APOS O VENCIMENTO COBRAR 10% DE MULTA                                NAO RECEBER APOS 30 DIAS DO VENCIMENTO.                                                                                                                                                                                                         11012100000000000001101210000000000000       0090028004416120012044012112000024
100000000000000000000009002800441612000000000000000000000000010002100004227501211100000000002            2  01042275012125012100000004078150000000001N110121000000000000000000000000000000000000000000000000000000000000000100004227553970ALESSANDRO ISRAEL GOULART               RUA PROFESSORA CARLINDA RIBEIRO - 21 - F            02866200                                                            000026
2SR. CAIXA, APOS O VENCIMENTO COBRAR 10% DE MULTA                                NAO RECEBER APOS 30 DIAS DO VENCIMENTO.                                                                                                                                                                                                         11012100000000000001101210000000000000       0090028004416120042275012111000027
100000000000000000000009002800441612000000000000000000000000010002100060811401211500000000002            2  01608114012125012100000003758480000000001N110121000000000000000000000000000000000000000000000000000000000000000100060811420868HELIO BASSI                             AV.PARIS,575 - PRACA ANTONIO FIGUEROA -             11700082                                                            000029
2SR. CAIXA, APOS O VENCIMENTO COBRAR 10% DE MULTA                                NAO RECEBER APOS 30 DIAS DO VENCIMENTO.                                                                                                                                                                                                         11012100000000000001101210000000000000       0090028004416120608114012115000030
100000000000000000000009002800441612000000000000000000000000010002100001024701211500000000002            2  01010247012125012100000003556520000000001N110121000000000000000000000000000000000000000000000000000000000000000100001024794881CLAUDIO RODRIGUES                       RUA ARACATUBA - 242 - LAPA - SAO PAULO -            05058010                                                            000032
2SR. CAIXA, APOS O VENCIMENTO COBRAR 10% DE MULTA                                NAO RECEBER APOS 30 DIAS DO VENCIMENTO.                                                                                                                                                                                                         11012100000000000001101210000000000000       0090028004416120010247012115000033
100000000000000000000009002800441612000000000000000000000000010002100002225001211600000000002            2  01022250012125012100000005452630000000001N110121000000000000000000000000000000000000000000000000000000000000000100002225072841PEDRO EDUARDO DE AZEVEDO                RUA NATH ZILMAN - 46 - JARDIM SAMAMBAIA             07623085                                                            000035
2SR. CAIXA, APOS O VENCIMENTO COBRAR 10% DE MULTA                                NAO RECEBER APOS 30 DIAS DO VENCIMENTO.                                                                                                                                                                                                         11012100000000000001101210000000000000       0090028004416120022250012116000036
100000000000000000000009002800441612000000000000000000000000010002100022037501211400000000002            2  01220375012125012100000003794420000000001N110121000000000000000000000000000000000000000000000000000000000000000100022037552882ANDREIA CRISTINA FERNANDES DANTAS       PCA CASTRO ALVES - 163 AP.33 - VILA SAO             13224299                                                            000038
2SR. CAIXA, APOS O VENCIMENTO COBRAR 10% DE MULTA                                NAO RECEBER APOS 30 DIAS DO VENCIMENTO.                                                                                                                                                                                                         11012100000000000001101210000000000000       0090028004416120220375012114000039
100000000000000000000009002800441612000000000000000000000000010002100027198401211600000000002            2  01271984012125012100000002616990000000001N110121000000000000000000000000000000000000000000000000000000000000000100027198452809CRISTIANE AURELIANO DA SILVA MAIA       RUA MONTE CASTELO - 262 AP.25 - AVIACAO             11702720                                                            000041
2SR. CAIXA, APOS O VENCIMENTO COBRAR 10% DE MULTA                                NAO RECEBER APOS 30 DIAS DO VENCIMENTO.                                                                                                                                                                                                         11012100000000000001101210000000000000       0090028004416120271984012116000042
100000000000000000000009002800441612000000000000000000000000010002100021246201211P00000000002            2  01212462012125012100000003193780000000001N110121000000000000000000000000000000000000000000000000000000000000000100021246231840ALEXANDRO DA CUNHA MIGUES               RUA DULCE - 71  - VILA CARRAO - SAO PAUL            03427040                                                            000044
2SR. CAIXA, APOS O VENCIMENTO COBRAR 10% DE MULTA                                NAO RECEBER APOS 30 DIAS DO VENCIMENTO.                                                                                                                                                                                                         11012100000000000001101210000000000000       009002800441612021246201211P000045
100000000000000000000009002800441612000000000000000000000000010002100018470501211P00000000002            2  01184705012125012100000004698510000000001N110121000000000000000000000000000000000000000000000000000000000000000100018470520881SILVANA ALVES DE OLIVEIRA               RUA MONTE CASTELO - 262 AP.91 - AVIACAO             11702720                                                            000047
2SR. CAIXA, APOS O VENCIMENTO COBRAR 10% DE MULTA                                NAO RECEBER APOS 30 DIAS DO VENCIMENTO.                                                                                                                                                                                                         11012100000000000001101210000000000000       009002800441612018470501211P000048
100000000000000000000009002800441612000000000000000000000000010002100009297501211P00000000002            2  01092975012125012100000003271040000000001N110121000000000000000000000000000000000000000000000000000000000000000100009297523846MARCOS ROBERTO DE CASTRO FERREIRA       RUA MONTE CASTELO - 262 AP.105 - AVIACAO            11702720                                                            000050
2SR. CAIXA, APOS O VENCIMENTO COBRAR 10% DE MULTA                                NAO RECEBER APOS 30 DIAS DO VENCIMENTO.                                                                                                                                                                                                         11012100000000000001101210000000000000       009002800441612009297501211P000051
100000000000000000000009002800441612000000000000000000000000010002100001164101211900000000002            2  01011641012125012100000004053590000000001N110121000000000000000000000000000000000000000000000000000000000000000100001164158864DAVID BLEY LACERDA                      RUA CONEGO ARAUJO MARCONDES - 188 - BAIR            02550080                                                            000053
2SR. CAIXA, APOS O VENCIMENTO COBRAR 10% DE MULTA                                NAO RECEBER APOS 30 DIAS DO VENCIMENTO.                                                                                                                                                                                                         11012100000000000001101210000000000000       0090028004416120011641012119000054
100000000000000000000009002800441612000000000000000000000000010002100031498001211200000000002            2  01314980012125012100000004926550000000001N110121000000000000000000000000000000000000000000000000000000000000000100031498008895POLIANE  SIBELE DA SILVA                PRACA GENERAL COSTA BARRETO - 56 AP.181             03325070                                                            000056
2SR. CAIXA, APOS O VENCIMENTO COBRAR 10% DE MULTA                                NAO RECEBER APOS 30 DIAS DO VENCIMENTO.                                                                                                                                                                                                         11012100000000000001101210000000000000       0090028004416120314980012112000057
100000000000000000000009002800441612000000000000000000000000010002100000588101211600000000002            2  01005881012125012100000002889500000000001N110121000000000000000000000000000000000000000000000000000000000000000100000588109860JOSE LIARTE GIANTE                      AVENIDA LUIZ GONZAGA DO AMARAL - 143 - J            09320630                                                            000059
2SR. CAIXA, APOS O VENCIMENTO COBRAR 10% DE MULTA                                NAO RECEBER APOS 30 DIAS DO VENCIMENTO.                                                                                                                                                                                                         11012100000000000001101210000000000000       0090028004416120005881012116000060
100000000000000000000009002800441612000000000000000000000000010002100014386801211900000000002            2  01143868012125012100000013924810000000001N110121000000000000000000000000000000000000000000000000000000000000000100014386860134SEVERINO CARLOS DE OLIVEIRA             RUA MONTE CASTELO - 262 AP.54 - AVIACAO             11702720                                                            000062
2SR. CAIXA, APOS O VENCIMENTO COBRAR 10% DE MULTA                                NAO RECEBER APOS 30 DIAS DO VENCIMENTO.                                                                                                                                                                                                         11012100000000000001101210000000000000       0090028004416120143868012119000063
100000000000000000000009002800441612000000000000000000000000010002100014386801212700000000002            2  01143868012125012100000002311490000000001N110121000000000000000000000000000000000000000000000000000000000000000100014386860134SEVERINO CARLOS DE OLIVEIRA             RUA MONTE CASTELO - 262 AP.54 - AVIACAO             11702720                                                            000065
2SR. CAIXA, APOS O VENCIMENTO COBRAR 10% DE MULTA                                NAO RECEBER APOS 30 DIAS DO VENCIMENTO.                                                                                                                                                                                                         11012100000000000001101210000000000000       0090028004416120143868012127000066
100000000000000000000009002800441612000000000000000000000000010002100039393701211400000000002            2  01393937012125012100000001593100000000001N110121000000000000000000000000000000000000000000000000000000000000000100039393790850NAIRON RICARDO DE ARAUJO SANTOS         RUA NITEROI - 267 CASA 04 - JARDIM INDEP            11380350                                                            000068
2SR. CAIXA, APOS O VENCIMENTO COBRAR 10% DE MULTA                                NAO RECEBER APOS 30 DIAS DO VENCIMENTO.                                                                                                                                                                                                         11012100000000000001101210000000000000       0090028004416120393937012114000069
100000000000000000000009002800441612000000000000000000000000010002100004735201211300000000002            2  01047352012125012100000001643300000000001N110121000000000000000000000000000000000000000000000000000000000000000100004735273832DARIO LUIZ GONCALVES                    RUA MONTE CASTELO - 295 AP.113 - AVIACAO            11702720                                                            000071
2SR. CAIXA, APOS O VENCIMENTO COBRAR 10% DE MULTA                                NAO RECEBER APOS 30 DIAS DO VENCIMENTO.                                                                                                                                                                                                         11012100000000000001101210000000000000       0090028004416120047352012113000072
9                                                                                                                                                                                                                                                                                                                                                                                                         000073