01REMESSA01COBRANCA       00000000000005316116AIRES CONSTRUTORA E INCORPORAD237BRADESCO       010722        MX0000197                                                                                                                                                                                                                                                                                     000001
100000000000000000000009002800441612000000000000000000000000010002100025215107221800000000002            2  01252151072210072200000003078650000000001N010722000000000000000000000000000000000000000000000000000000000000000100025215106886KLEBER LUIZ DOS SANTOS                  RUA MONTE CASTELO - 262 AP.15 - AVIACAO             11702720                                                            000002
2SR. CAIXA, APOS O VENCIMENTO COBRAR 10% DE MULTA                                NAO RECEBER APOS 30 DIAS DO VENCIMENTO.                                                                                                                                                                                                         01072200000000000000107220000000000000       0090028004416120252151072218000003
100000000000000000000009002800441612000000000000000000000000010002100029150707221300000000002            2  01291507072210072200000004025100000000001N010722000000000000000000000000000000000000000000000000000000000000000100029150742833ANA DEISE SANTOS DE ALMEIDA             RUA MONTE CASTELO - 296 AP.121 - AVIACAO            11702720                                                            000005
2SR. CAIXA, APOS O VENCIMENTO COBRAR 10% DE MULTA                                NAO RECEBER APOS 30 DIAS DO VENCIMENTO.                                                                                                                                                                                                         01072200000000000000107220000000000000       0090028004416120291507072213000006
100000000000000000000009002800441612000000000000000000000000010002100000811707221900000000002            2  01008117072210072200000003315420000000001N010722000000000000000000000000000000000000000000000000000000000000000100000811752801SERGIO BUENO DA SILVA                   RUA MONTE CASTELO - 262 AP.75 - AVIACAO             11702720                                                            000008
2SR. CAIXA, APOS O VENCIMENTO COBRAR 10% DE MULTA                                NAO RECEBER APOS 30 DIAS DO VENCIMENTO.                                                                                                                                                                                                         01072200000000000000107220000000000000       0090028004416120008117072219000009
100000000000000000000009002800441612000000000000000000000000010002100018344807221500000000002            2  01183448072210072200000004508140000000001N010722000000000000000000000000000000000000000000000000000000000000000100018344803888MARCELO BERNARDO                        RUA MONTE CASTELO - 262 AP.84 - AVIACAO             11702720                                                            000011
2SR. CAIXA, APOS O VENCIMENTO COBRAR 10% DE MULTA                                NAO RECEBER APOS 30 DIAS DO VENCIMENTO.                                                                                                                                                                                                         01072200000000000000107220000000000000       0090028004416120183448072215000012
100000000000000000000009002800441612000000000000000000000000010002100031803807221000000000002            2  01318038072210072200000003640550000000001N010722000000000000000000000000000000000000000000000000000000000000000100031803864877ELEILSON FELIPPE SANTOS                 RUA SANTA GREGORIA - 193 - CIDADE DUTRA             04806030                                                            000014
2SR. CAIXA, APOS O VENCIMENTO COBRAR 10% DE MULTA                                NAO RECEBER APOS 30 DIAS DO VENCIMENTO.                                                                                                                                                                                                         01072200000000000000107220000000000000       0090028004416120318038072210000015
100000000000000000000009002800441612000000000000000000000000010002100063064507221500000000002            2  01630645072210072200000004338360000000001N010722000000000000000000000000000000000000000000000000000000000000000100063064537849ANTONIO APARECIDO DA SILVA DESTEFANO    RUA PROFESSOR TEODORO BRAGA - 46 - VILA             02966020                                                            000017
2SR. CAIXA, APOS O VENCIMENTO COBRAR 10% DE MULTA                                NAO RECEBER APOS 30 DIAS DO VENCIMENTO.                                                                                                                                                                                                         01072200000000000000107220000000000000       0090028004416120630645072215000018
100000000000000000000009002800441612000000000000000000000000010002100005920507221400000000002            2  01059205072210072200000002525820000000001N010722000000000000000000000000000000000000000000000000000000000000000100005920579846SONIA MARIA VALDO POLLO                 RUA PALMIRA CERVI BARBARO - 797 - CIDADE            13214370                                                            000020
2SR. CAIXA, APOS O VENCIMENTO COBRAR 10% DE MULTA                                NAO RECEBER APOS 30 DIAS DO VENCIMENTO.                                                                                                                                                                                                         01072200000000000000107220000000000000       0090028004416120059205072214000021
100000000000000000000009002800441612000000000000000000000000010002100002494107221500000000002            2  01024941072210072200000003797680000000001N010722000000000000000000000000000000000000000000000000000000000000000100002494107881CIRO FRANCISCO MARCHI DURIGON           RUA MONTE CASTELO - 262 AP.115 - AVIACAO            11702720                                                            000023
2SR. CAIXA, APOS O VENCIMENTO COBRAR 10% DE MULTA                                NAO RECEBER APOS 30 DIAS DO VENCIMENTO.                                                                                                                                                                                                         01072200000000000000107220000000000000       0090028004416120024941072215000024
100000000000000000000009002800441612000000000000000000000000010002100016299007221600000000002            2  01162990072210072200000003598900000000001N010722000000000000000000000000000000000000000000000000000000000000000100016299008857FERNANDO CESAR CARVALHO                 AVENIDA MARCONDES DE BRITO - 1340 AP.74             03509000                                                            000026
2SR. CAIXA, APOS O VENCIMENTO COBRAR 10% DE MULTA                                NAO RECEBER APOS 30 DIAS DO VENCIMENTO.                                                                                                                                                                                                         01072200000000000000107220000000000000       0090028004416120162990072216000027
100000000000000000000009002800441612000000000000000000000000010002100055975307221700000000002            2  01559753072210072200000000821850000000001N010722000000000000000000000000000000000000000000000000000000000000000100055975372887BENEVENUTO THEODORO DA SILVA NETO       RUA MONTE CASTELO - 296 AP.63 - AVIACAO             11702720                                                            000029
2SR. CAIXA, APOS O VENCIMENTO COBRAR 10% DE MULTA                                NAO RECEBER APOS 30 DIAS DO VENCIMENTO.                                                                                                                                                                                                         01072200000000000000107220000000000000       0090028004416120559753072217000030
9                                                                                                                                                                                                                                                                                                                                                                                                         000031