01REMESSA01COBRANCA       00000000000005331186HB SANTOS CONSTRUTORA E INCORP237BRADESCO       010324        MX0000092                                                                                                                                                                                                                                                                                     000001
100000000000000000000009033990000995400000000000000000000000010002020026858603241600000000002            2  01268586032408032400000003356120000000001N010324000000000000000000000000000000000000000000000000000000000000000100026858625879GLAUCE FERREIRA DE OLIVEIRA FALSI       RUA LOURENCO ANTONIO BRAGANCA - 116 - JA            04403160                                                            000002
2SR. CAIXA, APOS O VENCIMENTO COBRAR 2% DE MULTA                                 NAO RECEBER APOS 30 DIAS DO VENCIMENTO.                                                                                                                                                                                                         01032400000000000000103240000000000000       0090339900009954268586032416000003
100000000000000000000009033990000995400000000000000000000000010002020029425003241900000000002            2  01294250032408032400000003191670000000001N010324000000000000000000000000000000000000000000000000000000000000000100029425027897FABIA DOS SANTOS DE ANDRADE             AVENIDA ALCIDES CANDIDO DOS SANTOS - 248            11705480                                                            000005
2SR. CAIXA, APOS O VENCIMENTO COBRAR 2% DE MULTA                                 NAO RECEBER APOS 30 DIAS DO VENCIMENTO.                                                                                                                                                                                                         01032400000000000000103240000000000000       0090339900009954294250032419000006
100000000000000000000009033990000995400000000000000000000000010002020078382703241400000000002            2  01783827032408032400000003225370000000001N010324000000000000000000000000000000000000000000000000000000000000000100078382700497JARMELINA BARBOSA DA SILVA              RUA OSCAR CINTRA GORDINHO - 211 AP.51 -             01512010                                                            000008
2SR. CAIXA, APOS O VENCIMENTO COBRAR 2% DE MULTA                                 NAO RECEBER APOS 30 DIAS DO VENCIMENTO.                                                                                                                                                                                                         01032400000000000000103240000000000000       0090339900009954783827032414000009
100000000000000000000009033990000995400000000000000000000000010002020007535303241300000000002            2  01075353032408032400000003162850000000001N010324000000000000000000000000000000000000000000000000000000000000000100007535375839AINAILDE PEREIRA DE CASTRO OLIVETTO     TRAVESSA DORALINA ELIETE ADAO DA SILVA -            08021026                                                            000011
2SR. CAIXA, APOS O VENCIMENTO COBRAR 2% DE MULTA                                 NAO RECEBER APOS 30 DIAS DO VENCIMENTO.                                                                                                                                                                                                         01032400000000000000103240000000000000       0090339900009954075353032413000012
100000000000000000000009033990000995400000000000000000000000010002020017229703241900000000002            2  01172297032408032400000003350370000000001N010324000000000000000000000000000000000000000000000000000000000000000100017229751802BERENICE VIEIRA KERSTING                RUA ATIBAIA - 17 AP.417 - BAIRRO IMPERAD            11707380                                                            000014
2SR. CAIXA, APOS O VENCIMENTO COBRAR 2% DE MULTA                                 NAO RECEBER APOS 30 DIAS DO VENCIMENTO.                                                                                                                                                                                                         01032400000000000000103240000000000000       0090339900009954172297032419000015
100000000000000000000009033990000995400000000000000000000000010002020028974203241000000000002            2  01289742032408032400000003129140000000001N010324000000000000000000000000000000000000000000000000000000000000000100028974233827MARISTELA FAVANI DE OLIVEIRA            RUA GIUSEPPE CARNEVALLI - 96 - BAIRRO BO            09572100                                                            000017
2SR. CAIXA, APOS O VENCIMENTO COBRAR 2% DE MULTA                                 NAO RECEBER APOS 30 DIAS DO VENCIMENTO.                                                                                                                                                                                                         01032400000000000000103240000000000000       0090339900009954289742032410000018
100000000000000000000009033990000995400000000000000000000000010002020092184803241800000000002            2  01921848032408032400000003087520000000001N010324000000000000000000000000000000000000000000000000000000000000000100092184804800CARMEM DO SOCORRO GUILHERME             ESTRADA SAO FRANCISCO - 1.850 AP.182A -             06765000                                                            000020
2SR. CAIXA, APOS O VENCIMENTO COBRAR 2% DE MULTA                                 NAO RECEBER APOS 30 DIAS DO VENCIMENTO.                                                                                                                                                                                                         01032400000000000000103240000000000000       0090339900009954921848032418000021
100000000000000000000009033990000995400000000000000000000000010002020009169703241800000000002            2  01091697032408032400000002476220000000001N010324000000000000000000000000000000000000000000000000000000000000000100009169701830TADEU CONSTANTINO LOPES                 RUA JOSE ANTONIO COELHO - 349 CASA 01 -             04011061                                                            000023
2SR. CAIXA, APOS O VENCIMENTO COBRAR 2% DE MULTA                                 NAO RECEBER APOS 30 DIAS DO VENCIMENTO.                                                                                                                                                                                                         01032400000000000000103240000000000000       0090339900009954091697032418000024
100000000000000000000009033990000995400000000000000000000000010002020042480103241600000000002            2  01424801032408032400000003149980000000001N010324000000000000000000000000000000000000000000000000000000000000000100042480155870JAMITRE SOIOMARA ALVES DO NASCIMENTO DAVRUA URUGUAI - 89 AP.75 - JARDIM GUILHERM            11702300                                                            000026
2SR. CAIXA, APOS O VENCIMENTO COBRAR 2% DE MULTA                                 NAO RECEBER APOS 30 DIAS DO VENCIMENTO.                                                                                                                                                                                                         01032400000000000000103240000000000000       0090339900009954424801032416000027
100000000000000000000009033990000995400000000000000000000000010002020001356903241200000000002            2  01013569032408032400000003196890000000001N010324000000000000000000000000000000000000000000000000000000000000000100001356993800DALVA MARIA DOS SANTOS                  RUA URUGUAI - 89 AP.74 - AVIACAO - PRAIA            11702300                                                            000029
2SR. CAIXA, APOS O VENCIMENTO COBRAR 2% DE MULTA                                 NAO RECEBER APOS 30 DIAS DO VENCIMENTO.                                                                                                                                                                                                         01032400000000000000103240000000000000       0090339900009954013569032412000030
100000000000000000000009033990000995400000000000000000000000010002020024615503241500000000002            2  01246155032408032400000003645910000000001N010324000000000000000000000000000000000000000000000000000000000000000100024615557884GILBERTO JOSE GONSALES                  RUA URUGUAI - 89 AP.115 - JARDIM GUILHER            11702300                                                            000032
2SR. CAIXA, APOS O VENCIMENTO COBRAR 2% DE MULTA                                 NAO RECEBER APOS 30 DIAS DO VENCIMENTO.                                                                                                                                                                                                         01032400000000000000103240000000000000       0090339900009954246155032415000033
100000000000000000000009033990000995400000000000000000000000010002020036949503241400000000002            2  01369495032408032400000003411680000000001N010324000000000000000000000000000000000000000000000000000000000000000100036949505833FELIPE APARECIDO DOS SANTOS             RUA DAS MIMOSAS - 67 CASA 09 - VILA LUCI            03144010                                                            000035
2SR. CAIXA, APOS O VENCIMENTO COBRAR 2% DE MULTA                                 NAO RECEBER APOS 30 DIAS DO VENCIMENTO.                                                                                                                                                                                                         01032400000000000000103240000000000000       0090339900009954369495032414000036
100000000000000000000009033990000995400000000000000000000000010002020008539303241100000000002            2  01085393032408032400000003485760000000001N010324000000000000000000000000000000000000000000000000000000000000000100008539365871EDMILSON RAIMUNDO DOS SANTOS            RUA CALIDICE - 247 - PARQUE CRUZEIRO - S            08070010                                                            000038
2SR. CAIXA, APOS O VENCIMENTO COBRAR 2% DE MULTA                                 NAO RECEBER APOS 30 DIAS DO VENCIMENTO.                                                                                                                                                                                                         01032400000000000000103240000000000000       0090339900009954085393032411000039
100000000000000000000009033990000995400000000000000000000000010002020004611203241200000000002            2  01046112032408032400000002210850000000001N010324000000000000000000000000000000000000000000000000000000000000000100004611218830TANIA MARIA DA SILVA NUNES PEREIRA LUIZ RUA URUGUAI - 89 AP.103 - JARDIM GUILHER            11702300                                                            000041
2SR. CAIXA, APOS O VENCIMENTO COBRAR 2% DE MULTA                                 NAO RECEBER APOS 30 DIAS DO VENCIMENTO.                                                                                                                                                                                                         01032400000000000000103240000000000000       0090339900009954046112032412000042
100000000000000000000009033990000995400000000000000000000000010002020010548803241P00000000002            2  01105488032408032400000003928310000000001N010324000000000000000000000000000000000000000000000000000000000000000100010548844801RICARDO DE JESUS CALDAS                 RUA ANTONIO AMBUBA - 50 CASA 60 - BAIRRO            05782370                                                            000044
2SR. CAIXA, APOS O VENCIMENTO COBRAR 2% DE MULTA                                 NAO RECEBER APOS 30 DIAS DO VENCIMENTO.                                                                                                                                                                                                         01032400000000000000103240000000000000       009033990000995410548803241P000045
100000000000000000000009033990000995400000000000000000000000010002020032038703241700000000002            2  01320387032408032400000002578720000000001N010324000000000000000000000000000000000000000000000000000000000000000100032038775893GUSTAVO PEREIRA DA CRUZ                 RUA SAO FIDELIS - 203 - JARDIM BRASIL -             16074050                                                            000047
2SR. CAIXA, APOS O VENCIMENTO COBRAR 2% DE MULTA                                 NAO RECEBER APOS 30 DIAS DO VENCIMENTO.                                                                                                                                                                                                         01032400000000000000103240000000000000       0090339900009954320387032417000048
100000000000000000000009033990000995400000000000000000000000010002020008993103241400000000002            2  01089931032408032400000012170160000000001N010324000000000000000000000000000000000000000000000000000000000000000100008993178801PATRICIA BITTENCOURT FRACARO            RUA MARCIO MAZZEI - 337 - VILA NOVA MAZZ            02316050                                                            000050
2SR. CAIXA, APOS O VENCIMENTO COBRAR 2% DE MULTA                                 NAO RECEBER APOS 30 DIAS DO VENCIMENTO.                                                                                                                                                                                                         01032400000000000000103240000000000000       0090339900009954089931032414000051
100000000000000000000009033990000995400000000000000000000000010002020025914203241000000000002            2  01259142032408032400000003506300000000001N010324000000000000000000000000000000000000000000000000000000000000000100025914206880JONAS DOS REIS MACHADO                  RUA PROFESSORA MARGARIDA RUTH FERREIRA D            02378200                                                            000053
2SR. CAIXA, APOS O VENCIMENTO COBRAR 2% DE MULTA                                 NAO RECEBER APOS 30 DIAS DO VENCIMENTO.                                                                                                                                                                                                         01032400000000000000103240000000000000       0090339900009954259142032410000054
100000000000000000000009033990000995400000000000000000000000010002020032549503241700000000002            2  01325495032408032400000003204540000000001N010324000000000000000000000000000000000000000000000000000000000000000100032549502833PAMELA DECENCI                          RUA URUGUAI - 89 AP.61 - AVIACAO - PRAIA            11702300                                                            000056
2SR. CAIXA, APOS O VENCIMENTO COBRAR 2% DE MULTA                                 NAO RECEBER APOS 30 DIAS DO VENCIMENTO.                                                                                                                                                                                                         01032400000000000000103240000000000000       0090339900009954325495032417000057
100000000000000000000009033990000995400000000000000000000000010002020027969403241600000000002            2  01279694032408032400000002577100000000001N010324000000000000000000000000000000000000000000000000000000000000000100027969412807THIAGO BARRETO PEREZ                    RUA ARMINDO GUARANA - 170 - VILA REGENTE            03335070                                                            000059
2SR. CAIXA, APOS O VENCIMENTO COBRAR 2% DE MULTA                                 NAO RECEBER APOS 30 DIAS DO VENCIMENTO.                                                                                                                                                                                                         01032400000000000000103240000000000000       0090339900009954279694032416000060
100000000000000000000009033990000995400000000000000000000000010002020013466503241700000000002            2  01134665032408032400000003452500000000001N010324000000000000000000000000000000000000000000000000000000000000000100013466586844MAURICIO DANTAS DA SILVA                RUA CASTOR - 57 - CIDADE SATELITE SANTA             08340120                                                            000062
2SR. CAIXA, APOS O VENCIMENTO COBRAR 2% DE MULTA                                 NAO RECEBER APOS 30 DIAS DO VENCIMENTO.                                                                                                                                                                                                         01032400000000000000103240000000000000       0090339900009954134665032417000063
9                                                                                                                                                                                                                                                                                                                                                                                                         000064