01REMESSA01COBRANCA       00000000000005316116AIRES CONSTRUTORA E INCORPORAD237BRADESCO       010322        MX0000189                                                                                                                                                                                                                                                                                     000001
100000000000000000000009002800441612000000000000000000000000010002100028309503221900000000002            2  01283095032210032200000003354740000000001N010322000000000000000000000000000000000000000000000000000000000000000100028309524803DEISE RIBEIRO BARBOSA                   RUA CANDIDO JOSE DE ANDRADE - 173 - ERME            03807030                                                            000002
2SR. CAIXA, APOS O VENCIMENTO COBRAR 10% DE MULTA                                NAO RECEBER APOS 30 DIAS DO VENCIMENTO.                                                                                                                                                                                                         01032200000000000000103220000000000000       0090028004416120283095032219000003
100000000000000000000009002800441612000000000000000000000000010002100011277903221900000000002            2  01112779032210032200000003981720000000001N010322000000000000000000000000000000000000000000000000000000000000000100011277908893JOSE AILTON LOPES DE AZEVEDO            RUA MAESTRO JOAO SEPE - 19 - JARDIM MARI            04181030                                                            000005
2SR. CAIXA, APOS O VENCIMENTO COBRAR 10% DE MULTA                                NAO RECEBER APOS 30 DIAS DO VENCIMENTO.                                                                                                                                                                                                         01032200000000000000103220000000000000       0090028004416120112779032219000006
100000000000000000000009002800441612000000000000000000000000010002100025215103221600000000002            2  01252151032210032200000003002690000000001N010322000000000000000000000000000000000000000000000000000000000000000100025215106886KLEBER LUIZ DOS SANTOS                  RUA MONTE CASTELO - 262 AP.15 - AVIACAO             11702720                                                            000008
2SR. CAIXA, APOS O VENCIMENTO COBRAR 10% DE MULTA                                NAO RECEBER APOS 30 DIAS DO VENCIMENTO.                                                                                                                                                                                                         01032200000000000000103220000000000000       0090028004416120252151032216000009
100000000000000000000009002800441612000000000000000000000000010002100090206703221300000000002            2  01902067032210032200000003353900000000001N010322000000000000000000000000000000000000000000000000000000000000000100090206789815NEREIDE RODRIGUES FERREIRA              AVENIDA PADRE ESTANISLAU DE CAMPOS - 205            03590060                                                            000011
2SR. CAIXA, APOS O VENCIMENTO COBRAR 10% DE MULTA                                NAO RECEBER APOS 30 DIAS DO VENCIMENTO.                                                                                                                                                                                                         01032200000000000000103220000000000000       0090028004416120902067032213000012
100000000000000000000009002800441612000000000000000000000000010002100029150703221100000000002            2  01291507032210032200000003925780000000001N010322000000000000000000000000000000000000000000000000000000000000000100029150742833ANA DEISE SANTOS DE ALMEIDA             RUA MONTE CASTELO - 296 AP.121 - AVIACAO            11702720                                                            000014
2SR. CAIXA, APOS O VENCIMENTO COBRAR 10% DE MULTA                                NAO RECEBER APOS 30 DIAS DO VENCIMENTO.                                                                                                                                                                                                         01032200000000000000103220000000000000       0090028004416120291507032211000015
100000000000000000000009002800441612000000000000000000000000010002100000811703221700000000002            2  01008117032210032200000003233600000000001N010322000000000000000000000000000000000000000000000000000000000000000100000811752801SERGIO BUENO DA SILVA                   RUA MONTE CASTELO - 262 AP.75 - AVIACAO             11702720                                                            000017
2SR. CAIXA, APOS O VENCIMENTO COBRAR 10% DE MULTA                                NAO RECEBER APOS 30 DIAS DO VENCIMENTO.                                                                                                                                                                                                         01032200000000000000103220000000000000       0090028004416120008117032217000018
100000000000000000000009002800441612000000000000000000000000010002100018344803221300000000002            2  01183448032210032200000004396900000000001N010322000000000000000000000000000000000000000000000000000000000000000100018344803888MARCELO BERNARDO                        RUA MONTE CASTELO - 262 AP.84 - AVIACAO             11702720                                                            000020
2SR. CAIXA, APOS O VENCIMENTO COBRAR 10% DE MULTA                                NAO RECEBER APOS 30 DIAS DO VENCIMENTO.                                                                                                                                                                                                         01032200000000000000103220000000000000       0090028004416120183448032213000021
100000000000000000000009002800441612000000000000000000000000010002100031803803221900000000002            2  01318038032210032200000003550720000000001N010322000000000000000000000000000000000000000000000000000000000000000100031803864877ELEILSON FELIPPE SANTOS                 RUA SANTA GREGORIA - 193 - CIDADE DUTRA             04806030                                                            000023
2SR. CAIXA, APOS O VENCIMENTO COBRAR 10% DE MULTA                                NAO RECEBER APOS 30 DIAS DO VENCIMENTO.                                                                                                                                                                                                         01032200000000000000103220000000000000       0090028004416120318038032219000024
100000000000000000000009002800441612000000000000000000000000010002100063064503221300000000002            2  01630645032210032200000004231310000000001N010322000000000000000000000000000000000000000000000000000000000000000100063064537849ANTONIO APARECIDO DA SILVA DESTEFANO    RUA PROFESSOR TEODORO BRAGA - 46 - VILA             02966020                                                            000026
2SR. CAIXA, APOS O VENCIMENTO COBRAR 10% DE MULTA                                NAO RECEBER APOS 30 DIAS DO VENCIMENTO.                                                                                                                                                                                                         01032200000000000000103220000000000000       0090028004416120630645032213000027
100000000000000000000009002800441612000000000000000000000000010002100005920503221200000000002            2  01059205032210032200000002463500000000001N010322000000000000000000000000000000000000000000000000000000000000000100005920579846SONIA MARIA VALDO POLLO                 RUA PALMIRA CERVI BARBARO - 797 - CIDADE            13214370                                                            000029
2SR. CAIXA, APOS O VENCIMENTO COBRAR 10% DE MULTA                                NAO RECEBER APOS 30 DIAS DO VENCIMENTO.                                                                                                                                                                                                         01032200000000000000103220000000000000       0090028004416120059205032212000030
100000000000000000000009002800441612000000000000000000000000010002100002494103221300000000002            2  01024941032210032200000003703970000000001N010322000000000000000000000000000000000000000000000000000000000000000100002494107881CIRO FRANCISCO MARCHI DURIGON           RUA MONTE CASTELO - 262 AP.115 - AVIACAO            11702720                                                            000032
2SR. CAIXA, APOS O VENCIMENTO COBRAR 10% DE MULTA                                NAO RECEBER APOS 30 DIAS DO VENCIMENTO.                                                                                                                                                                                                         01032200000000000000103220000000000000       0090028004416120024941032213000033
100000000000000000000009002800441612000000000000000000000000010002100016299003221400000000002            2  01162990032210032200000003510100000000001N010322000000000000000000000000000000000000000000000000000000000000000100016299008857FERNANDO CESAR CARVALHO                 AVENIDA MARCONDES DE BRITO - 1340 AP.74             03509000                                                            000035
2SR. CAIXA, APOS O VENCIMENTO COBRAR 10% DE MULTA                                NAO RECEBER APOS 30 DIAS DO VENCIMENTO.                                                                                                                                                                                                         01032200000000000000103220000000000000       0090028004416120162990032214000036
100000000000000000000009002800441612000000000000000000000000010002100065895303221800000000002            2  01658953032210032200000002147480000000001N010322000000000000000000000000000000000000000000000000000000000000000100065895304834MARINHO BARBOSA CUNHA                   AVENIDA EDU CHAVES - 639 AP.43 - PARQUE             02229000                                                            000038
2SR. CAIXA, APOS O VENCIMENTO COBRAR 10% DE MULTA                                NAO RECEBER APOS 30 DIAS DO VENCIMENTO.                                                                                                                                                                                                         01032200000000000000103220000000000000       0090028004416120658953032218000039
100000000000000000000009002800441612000000000000000000000000010002100055975303221500000000002            2  01559753032210032200000000801570000000001N010322000000000000000000000000000000000000000000000000000000000000000100055975372887BENEVENUTO THEODORO DA SILVA NETO       RUA MONTE CASTELO - 296 AP.63 - AVIACAO             11702720                                                            000041
2SR. CAIXA, APOS O VENCIMENTO COBRAR 10% DE MULTA                                NAO RECEBER APOS 30 DIAS DO VENCIMENTO.                                                                                                                                                                                                         01032200000000000000103220000000000000       0090028004416120559753032215000042
9                                                                                                                                                                                                                                                                                                                                                                                                         000043