01REMESSA01COBRANCA       00000000000005331186HB SANTOS CONSTRUTORA E INCORP237BRADESCO       080422        MX0000046                                                                                                                                                                                                                                                                                     000001
100000000000000000000009033990000995400000000000000000000000010002020005723204221900000000002            2  01057232042223042200000002688170000000001N080422000000000000000000000000000000000000000000000000000000000000000100005723255843FRANCISCO DE ASSIS DA SILVA             PRACA NICOLAU GERAIGIRE - 25 VISOR - JAR            11095110                                                            000002
2SR. CAIXA, APOS O VENCIMENTO COBRAR 2% DE MULTA                                 NAO RECEBER APOS 30 DIAS DO VENCIMENTO.                                                                                                                                                                                                         08042200000000000000804220000000000000       0090339900009954057232042219000003
100000000000000000000009033990000995400000000000000000000000010002020004928104221300000000002            2  01049281042223042200000002628820000000001N080422000000000000000000000000000000000000000000000000000000000000000100004928157800ADEMIR APARECIDO ANTUNES                RUA URUGUAI - 89 AP.105 - JARDIM GUILHER            11702300                                                            000005
2SR. CAIXA, APOS O VENCIMENTO COBRAR 2% DE MULTA                                 NAO RECEBER APOS 30 DIAS DO VENCIMENTO.                                                                                                                                                                                                         08042200000000000000804220000000000000       0090339900009954049281042213000006
100000000000000000000009033990000995400000000000000000000000010002020011238004221000000000002            2  01112380042223042200000002594730000000001N080422000000000000000000000000000000000000000000000000000000000000000100011238052886SOLANGE DIAS DE SOUZA ROMANO            AVENIDA DR. ALTINO ARANTES - 865 AP.132             04042034                                                            000008
2SR. CAIXA, APOS O VENCIMENTO COBRAR 2% DE MULTA                                 NAO RECEBER APOS 30 DIAS DO VENCIMENTO.                                                                                                                                                                                                         08042200000000000000804220000000000000       0090339900009954112380042210000009
100000000000000000000009033990000995400000000000000000000000010002020032589104221200000000002            2  01325891042223042200000002543580000000001N080422000000000000000000000000000000000000000000000000000000000000000100032589165862RENATA ISABEL MARTINS SILVA             RUA HERCULANO DE FREITAS - 257 - FUNDACA            09520280                                                            000011
2SR. CAIXA, APOS O VENCIMENTO COBRAR 2% DE MULTA                                 NAO RECEBER APOS 30 DIAS DO VENCIMENTO.                                                                                                                                                                                                         08042200000000000000804220000000000000       0090339900009954325891042212000012
100000000000000000000009033990000995400000000000000000000000010002020088339304221600000000002            2  01883393042223042200000002571140000000001N080422000000000000000000000000000000000000000000000000000000000000000100088339319868MARCIA SIQUEIRA MELLO                   RUA ADELINO ALVES - 81 - SANTO AMARO - S            04710120                                                            000014
2SR. CAIXA, APOS O VENCIMENTO COBRAR 2% DE MULTA                                 NAO RECEBER APOS 30 DIAS DO VENCIMENTO.                                                                                                                                                                                                         08042200000000000000804220000000000000       0090339900009954883393042216000015
100000000000000000000009033990000995400000000000000000000000010002020046391204221100000000002            2  01463912042223042200000002667200000000001N080422000000000000000000000000000000000000000000000000000000000000000100046391265810PAMELLA RODRIGUES DE OLIVEIRA           RUA AUGUSTA - 183 AP.301 BL.2A - VILA AU            07025130                                                            000017
2SR. CAIXA, APOS O VENCIMENTO COBRAR 2% DE MULTA                                 NAO RECEBER APOS 30 DIAS DO VENCIMENTO.                                                                                                                                                                                                         08042200000000000000804220000000000000       0090339900009954463912042211000018
100000000000000000000009033990000995400000000000000000000000010002020027964504221P00000000002            2  01279645042223042200000002650140000000001N080422000000000000000000000000000000000000000000000000000000000000000100027964512838FABIO TADEU DE CAMPOS RADZIAVICIUS      AV.PROF.LUIZ IGNACIO ANHAIA MELLO - 2.58            03154100                                                            000020
2SR. CAIXA, APOS O VENCIMENTO COBRAR 2% DE MULTA                                 NAO RECEBER APOS 30 DIAS DO VENCIMENTO.                                                                                                                                                                                                         08042200000000000000804220000000000000       009033990000995427964504221P000021
100000000000000000000009033990000995400000000000000000000000010002020011498304221800000000002            2  01114983042223042200000001985520000000001N080422000000000000000000000000000000000000000000000000000000000000000100011498329837GERSON GERALDO DAS NEVES                RUA DOMINGOS DELGADO - 144 - VILA SOUZA             02881070                                                            000023
2SR. CAIXA, APOS O VENCIMENTO COBRAR 2% DE MULTA                                 NAO RECEBER APOS 30 DIAS DO VENCIMENTO.                                                                                                                                                                                                         08042200000000000000804220000000000000       0090339900009954114983042218000024
100000000000000000000009033990000995400000000000000000000000010002020000884204221P00000000002            2  01008842042223042200000002418420000000001N080422000000000000000000000000000000000000000000000000000000000000000100000884239802ADEMIR MARTINS                          RUA CAIRO - 221 - VILA METALURGICA - SAN            09220170                                                            000026
2SR. CAIXA, APOS O VENCIMENTO COBRAR 2% DE MULTA                                 NAO RECEBER APOS 30 DIAS DO VENCIMENTO.                                                                                                                                                                                                         08042200000000000000804220000000000000       009033990000995400884204221P000027
100000000000000000000009033990000995400000000000000000000000010002020025214404221400000000002            2  01252144042223042200000002350230000000001N080422000000000000000000000000000000000000000000000000000000000000000100025214401833JOSE MAURICIO DOS SANTOS RODRIGUES      RUA JOAO DE MACEDO RIBEIRO - 49 - VILA N            08111101                                                            000029
2SR. CAIXA, APOS O VENCIMENTO COBRAR 2% DE MULTA                                 NAO RECEBER APOS 30 DIAS DO VENCIMENTO.                                                                                                                                                                                                         08042200000000000000804220000000000000       0090339900009954252144042214000030
100000000000000000000009033990000995400000000000000000000000010002020033119104221100000000002            2  01331191042223042200000002360190000000001N080422000000000000000000000000000000000000000000000000000000000000000100033119178802HUGO GOMES VENDRAME                     RUA SAO PAULO - 60 CASA 01 - VILA FREITA            06380110                                                            000032
2SR. CAIXA, APOS O VENCIMENTO COBRAR 2% DE MULTA                                 NAO RECEBER APOS 30 DIAS DO VENCIMENTO.                                                                                                                                                                                                         08042200000000000000804220000000000000       0090339900009954331191042211000033
100000000000000000000009033990000995400000000000000000000000010002020007313204221700000000002            2  01073132042223042200000002384320000000001N080422000000000000000000000000000000000000000000000000000000000000000100007313251840SALVADOR GESUALDO PULVIRENTI            AVENIDA MARARI - 641 - VILA MARARI - SAO            04402010                                                            000035
2SR. CAIXA, APOS O VENCIMENTO COBRAR 2% DE MULTA                                 NAO RECEBER APOS 30 DIAS DO VENCIMENTO.                                                                                                                                                                                                         08042200000000000000804220000000000000       0090339900009954073132042217000036
100000000000000000000009033990000995400000000000000000000000010002020010676704221900000000002            2  01106767042223042200000002488670000000001N080422000000000000000000000000000000000000000000000000000000000000000100010676723896MERCEDES CRISTINA ROCHA SANDOVAL        RUA URUGUAI - 89 AP.83 - JARDIM GUILHERM            11702300                                                            000038
2SR. CAIXA, APOS O VENCIMENTO COBRAR 2% DE MULTA                                 NAO RECEBER APOS 30 DIAS DO VENCIMENTO.                                                                                                                                                                                                         08042200000000000000804220000000000000       0090339900009954106767042219000039
100000000000000000000009033990000995400000000000000000000000010002020009502804221700000000002            2  01095028042223042200000002598990000000001N080422000000000000000000000000000000000000000000000000000000000000000100009502844831CLAUDIA ROCHA SANDOVAL                  RUA URUGUAI - 89 AP.64 - JARDIM GUILHERM            11702300                                                            000041
2SR. CAIXA, APOS O VENCIMENTO COBRAR 2% DE MULTA                                 NAO RECEBER APOS 30 DIAS DO VENCIMENTO.                                                                                                                                                                                                         08042200000000000000804220000000000000       0090339900009954095028042217000042
100000000000000000000009033990000995400000000000000000000000010002020007594204221600000000002            2  01075942042223042200000002333180000000001N080422000000000000000000000000000000000000000000000000000000000000000100007594247809JOSE LUIS DE OLIVEIRA                   DONA EGLANTINA PENTEADO DA SILVA PRADO -            13044162                                                            000044
2SR. CAIXA, APOS O VENCIMENTO COBRAR 2% DE MULTA                                 NAO RECEBER APOS 30 DIAS DO VENCIMENTO.                                                                                                                                                                                                         08042200000000000000804220000000000000       0090339900009954075942042216000045
100000000000000000000009033990000995400000000000000000000000010002020005288704221P00000000002            2  01052887042223042200000002403420000000001N080422000000000000000000000000000000000000000000000000000000000000000100005288796858MARCELO RODRIGUES FERREIRA              RUA MARCOS ANTONIO MARQUES - 302 - JARDI            06433020                                                            000047
2SR. CAIXA, APOS O VENCIMENTO COBRAR 2% DE MULTA                                 NAO RECEBER APOS 30 DIAS DO VENCIMENTO.                                                                                                                                                                                                         08042200000000000000804220000000000000       009033990000995405288704221P000048
100000000000000000000009033990000995400000000000000000000000010002020015835904221900000000002            2  01158359042223042200000002502820000000001N080422000000000000000000000000000000000000000000000000000000000000000100015835992823FLAVIO VERONEZ                          RUA ANDREA PAULINETTI - 127 AP.42 - BAIR            04707050                                                            000050
2SR. CAIXA, APOS O VENCIMENTO COBRAR 2% DE MULTA                                 NAO RECEBER APOS 30 DIAS DO VENCIMENTO.                                                                                                                                                                                                         08042200000000000000804220000000000000       0090339900009954158359042219000051
100000000000000000000009033990000995400000000000000000000000010002020000438104221700000000002            2  01004381042223042200000002825000000000001N080422000000000000000000000000000000000000000000000000000000000000000100000438161858WAGNECY VILLA NOVA LIEN                 MACHADO - 106 - VILA AUGUSTA - GUARULHOS            07025210                                                            000053
2SR. CAIXA, APOS O VENCIMENTO COBRAR 2% DE MULTA                                 NAO RECEBER APOS 30 DIAS DO VENCIMENTO.                                                                                                                                                                                                         08042200000000000000804220000000000000       0090339900009954004381042217000054
100000000000000000000009033990000995400000000000000000000000010002020026004504221300000000002            2  01260045042223042200000002502860000000001N080422000000000000000000000000000000000000000000000000000000000000000100026004595888EDIVALDO BEZERRA DA SILVA               AVENIDA GUATEMALA - 550 - JARDIM PINHEIR            09854750                                                            000056
2SR. CAIXA, APOS O VENCIMENTO COBRAR 2% DE MULTA                                 NAO RECEBER APOS 30 DIAS DO VENCIMENTO.                                                                                                                                                                                                         08042200000000000000804220000000000000       0090339900009954260045042213000057
100000000000000000000009033990000995400000000000000000000000010002020012470704221800000000002            2  01124707042223042200000002670360000000001N080422000000000000000000000000000000000000000000000000000000000000000100012470771870HILTON FERNANDES OLIVARES               RUA PATIO DA ESTACAO - 115 - BAIRRO CENT            09450000                                                            000059
2SR. CAIXA, APOS O VENCIMENTO COBRAR 2% DE MULTA                                 NAO RECEBER APOS 30 DIAS DO VENCIMENTO.                                                                                                                                                                                                         08042200000000000000804220000000000000       0090339900009954124707042218000060
100000000000000000000009033990000995400000000000000000000000010002020014025404221700000000002            2  01140254042223042200000002928000000000001N080422000000000000000000000000000000000000000000000000000000000000000100014025420899ANDREIA APARECIDA TAVARES BASTOS        RUA IBATIBA - 234 CASA 27 - RES.BOUGANVI            09220608                                                            000062
2SR. CAIXA, APOS O VENCIMENTO COBRAR 2% DE MULTA                                 NAO RECEBER APOS 30 DIAS DO VENCIMENTO.                                                                                                                                                                                                         08042200000000000000804220000000000000       0090339900009954140254042217000063
100000000000000000000009033990000995400000000000000000000000010002020018590004221600000000002            2  01185900042223042200000002651730000000001N080422000000000000000000000000000000000000000000000000000000000000000100018590038858JOSE SANDRO ROCHA SILVA                 RUA SANTO ANTONIO DO AVENTUREIRO - 216 A            07143040                                                            000065
2SR. CAIXA, APOS O VENCIMENTO COBRAR 2% DE MULTA                                 NAO RECEBER APOS 30 DIAS DO VENCIMENTO.                                                                                                                                                                                                         08042200000000000000804220000000000000       0090339900009954185900042216000066
100000000000000000000009033990000995400000000000000000000000010002020088578704221400000000002            2  01885787042223042200000002181980000000001N080422000000000000000000000000000000000000000000000000000000000000000100088578704800GILBERTO DO ESPIRITO SANTO SILVA        RUA GUARANY - 697 CASA 01 - PARQUE SAO V            11360000                                                            000068
2SR. CAIXA, APOS O VENCIMENTO COBRAR 2% DE MULTA                                 NAO RECEBER APOS 30 DIAS DO VENCIMENTO.                                                                                                                                                                                                         08042200000000000000804220000000000000       0090339900009954885787042214000069
100000000000000000000009033990000995400000000000000000000000010002020015378204221500000000002            2  01153782042223042200000003260520000000001N080422000000000000000000000000000000000000000000000000000000000000000100015378295807SERGIO FERNANDES                        RUA VALDEMAR MARTINS - 116 AP.115 - BAIR            02535000                                                            000071
2SR. CAIXA, APOS O VENCIMENTO COBRAR 2% DE MULTA                                 NAO RECEBER APOS 30 DIAS DO VENCIMENTO.                                                                                                                                                                                                         08042200000000000000804220000000000000       0090339900009954153782042215000072
100000000000000000000009033990000995400000000000000000000000010002020005105204221200000000002            2  01051052042223042200000002602280000000001N080422000000000000000000000000000000000000000000000000000000000000000100005105287835FABIO MOTTOLA DE OLIVEIRA               RUA RAUL MAZZONI - 133 - CHACARA AREAL -            13331022                                                            000074
2SR. CAIXA, APOS O VENCIMENTO COBRAR 2% DE MULTA                                 NAO RECEBER APOS 30 DIAS DO VENCIMENTO.                                                                                                                                                                                                         08042200000000000000804220000000000000       0090339900009954051052042212000075
100000000000000000000009033990000995400000000000000000000000010002020020792704221100000000002            2  01207927042223042200000002705420000000001N080422000000000000000000000000000000000000000000000000000000000000000120792791000147TROVAO COMERCIO DE ALIMENTOS LTDA-ME    RUA QUINTA DA MAGNOLIA - 67 - JARDIM IPA            03582100                                                            000077
2SR. CAIXA, APOS O VENCIMENTO COBRAR 2% DE MULTA                                 NAO RECEBER APOS 30 DIAS DO VENCIMENTO.                                                                                                                                                                                                         08042200000000000000804220000000000000       0090339900009954207927042211000078
100000000000000000000009033990000995400000000000000000000000010002020007648104221500000000002            2  01076481042223042200000002540430000000001N080422000000000000000000000000000000000000000000000000000000000000000100007648112825MARA REGINA CAPRIO                      RUA DA TRINDADE - 790 - VILA IDEAL - SAO            15060280                                                            000080
2SR. CAIXA, APOS O VENCIMENTO COBRAR 2% DE MULTA                                 NAO RECEBER APOS 30 DIAS DO VENCIMENTO.                                                                                                                                                                                                         08042200000000000000804220000000000000       0090339900009954076481042215000081
100000000000000000000009033990000995400000000000000000000000010002020031157404221400000000002            2  01311574042223042200000002727760000000001N080422000000000000000000000000000000000000000000000000000000000000000100031157420885TALITA ANICHIARICO COSSI                RUA CNEO POMPEO DE CAMARGO - 817 - JARDI            13060150                                                            000083
2SR. CAIXA, APOS O VENCIMENTO COBRAR 2% DE MULTA                                 NAO RECEBER APOS 30 DIAS DO VENCIMENTO.                                                                                                                                                                                                         08042200000000000000804220000000000000       0090339900009954311574042214000084
100000000000000000000009033990000995400000000000000000000000010002020035572504221900000000002            2  01355725042223042200000002900250000000001N080422000000000000000000000000000000000000000000000000000000000000000100035572536865MARIA SIMONE SANTOS                     RUA JOSE PEZZOLO - 68 - VILA ELDIZIA - S            09181660                                                            000086
2SR. CAIXA, APOS O VENCIMENTO COBRAR 2% DE MULTA                                 NAO RECEBER APOS 30 DIAS DO VENCIMENTO.                                                                                                                                                                                                         08042200000000000000804220000000000000       0090339900009954355725042219000087
100000000000000000000009033990000995400000000000000000000000010002020008800304221600000000002            2  01088003042223042200000002642510000000001N080422000000000000000000000000000000000000000000000000000000000000000100008800368425INGO DIMITRI PEREIRA DA NOBREGA         RUA PROFESSOR MENDES PIMENTEL - 362 - JA            03973010                                                            000089
2SR. CAIXA, APOS O VENCIMENTO COBRAR 2% DE MULTA                                 NAO RECEBER APOS 30 DIAS DO VENCIMENTO.                                                                                                                                                                                                         08042200000000000000804220000000000000       0090339900009954088003042216000090
100000000000000000000009033990000995400000000000000000000000010002020018312404221600000000002            2  01183124042223042200000009163550000000001N080422000000000000000000000000000000000000000000000000000000000000000100018312408827PAULO LUIZ FERREIRA                     AVENIDA MARCONDES SALGADO - 20 AP.26 B -            11702530                                                            000092
2SR. CAIXA, APOS O VENCIMENTO COBRAR 2% DE MULTA                                 NAO RECEBER APOS 30 DIAS DO VENCIMENTO.                                                                                                                                                                                                         08042200000000000000804220000000000000       0090339900009954183124042216000093
100000000000000000000009033990000995400000000000000000000000010002020005054104221000000000002            2  01050541042223042200000002557280000000001N080422000000000000000000000000000000000000000000000000000000000000000100005054169806PAULO ROBERTO DE MATTOS                 JARDIM BOTANICO - 849 - DISTRITO DE SOUS            13106258                                                            000095
2SR. CAIXA, APOS O VENCIMENTO COBRAR 2% DE MULTA                                 NAO RECEBER APOS 30 DIAS DO VENCIMENTO.                                                                                                                                                                                                         08042200000000000000804220000000000000       0090339900009954050541042210000096
100000000000000000000009033990000995400000000000000000000000010002020007552104221700000000002            2  01075521042223042200000002557280000000001N080422000000000000000000000000000000000000000000000000000000000000000100007552151846MAURO BORDONI                           AVENIDA DR. AUGUSTO DE TOLEDO - 769 AP.6            09540080                                                            000098
2SR. CAIXA, APOS O VENCIMENTO COBRAR 2% DE MULTA                                 NAO RECEBER APOS 30 DIAS DO VENCIMENTO.                                                                                                                                                                                                         08042200000000000000804220000000000000       0090339900009954075521042217000099
100000000000000000000009033990000995400000000000000000000000010002020012744204221P00000000002            2  01127442042223042200000002845360000000001N080422000000000000000000000000000000000000000000000000000000000000000100012744201804ADAIL JOSE DE SOUSA                     RUA ROSARIA - 303 - BAIRRO SACADURA CABR            09061080                                                            000101
2SR. CAIXA, APOS O VENCIMENTO COBRAR 2% DE MULTA                                 NAO RECEBER APOS 30 DIAS DO VENCIMENTO.                                                                                                                                                                                                         08042200000000000000804220000000000000       009033990000995412744204221P000102
100000000000000000000009033990000995400000000000000000000000010002020000884204222800000000002            2  01008842042223042200000002116880000000001N080422000000000000000000000000000000000000000000000000000000000000000100000884239802ADEMIR MARTINS                          RUA CAIRO - 221 - VILA METALURGICA - SAN            09220170                                                            000104
2SR. CAIXA, APOS O VENCIMENTO COBRAR 2% DE MULTA                                 NAO RECEBER APOS 30 DIAS DO VENCIMENTO.                                                                                                                                                                                                         08042200000000000000804220000000000000       0090339900009954008842042228000105
9                                                                                                                                                                                                                                                                                                                                                                                                         000106