01REMESSA01COBRANCA       00000000000008017025HB SANTOS CONSTRUTORA E INCORP237BRADESCO       110718        MX0000059                                                                                                                                                                                                                                                                                     000001
100000000000000000000009033990000627000000000000000000000000010002020025035107181700000000002            2  01250351071824071800000001897680000000001N110718000000000000000000000000000000000000000000000000000000000000000100025035170802WANDERSON LUIS DE CARVALHO              RUA JOAQUIM GONCALVES ROCHA - 302 - JARD            02859030                                                            000002
2SR. CAIXA, APOS O VENCIMENTO COBRAR 2% DE MULTA                                 NAO RECEBER APOS 30 DIAS DO VENCIMENTO.                                                                                                                                                                                                         11071800000000000001107180000000000000       0090339900006270250351071817000003
100000000000000000000009033990000627000000000000000000000000010002020007294307181400000000002            2  01072943071824071800000002552430000000001N110718000000000000000000000000000000000000000000000000000000000000000100007294351805CLAUDENIR APARECIDO VACARI              RUA CARLOS JOSE BORSTENS - 50 AP.93 - AV            11702750                                                            000005
2SR. CAIXA, APOS O VENCIMENTO COBRAR 2% DE MULTA                                 NAO RECEBER APOS 30 DIAS DO VENCIMENTO.                                                                                                                                                                                                         11071800000000000001107180000000000000       0090339900006270072943071814000006
100000000000000000000009033990000627000000000000000000000000010002020042976107181400000000002            2  01429761071824071800000002579210000000001N110718000000000000000000000000000000000000000000000000000000000000000100042976111634ACACIO TOSCANO BONDANCA                 RUA COMENDADOR JACOMO ANTONIO LA SELVA -            12946797                                                            000008
2SR. CAIXA, APOS O VENCIMENTO COBRAR 2% DE MULTA                                 NAO RECEBER APOS 30 DIAS DO VENCIMENTO.                                                                                                                                                                                                         11071800000000000001107180000000000000       0090339900006270429761071814000009
100000000000000000000009033990000627000000000000000000000000010002020035438007181800000000002            2  01354380071824071800000002178270000000001N110718000000000000000000000000000000000000000000000000000000000000000100035438022836ALESSANDRO FARACO DOS SANTOS            RUA PEDRO POMAR  - 145 - JARDIM ELISA MA            02875020                                                            000011
2SR. CAIXA, APOS O VENCIMENTO COBRAR 2% DE MULTA                                 NAO RECEBER APOS 30 DIAS DO VENCIMENTO.                                                                                                                                                                                                         11071800000000000001107180000000000000       0090339900006270354380071818000012
100000000000000000000009033990000627000000000000000000000000010002020007525007181P00000000002            2  01075250071824071800000002855000000000001N110718000000000000000000000000000000000000000000000000000000000000000100007525032866FERNANDO RIBEIRO                        RUA ALDO COLI - 539 - VILA MIRIM - PRAIA            11704760                                                            000014
2SR. CAIXA, APOS O VENCIMENTO COBRAR 2% DE MULTA                                 NAO RECEBER APOS 30 DIAS DO VENCIMENTO.                                                                                                                                                                                                         11071800000000000001107180000000000000       009033990000627007525007181P000015
100000000000000000000009033990000627000000000000000000000000010002020005071407181500000000002            2  01050714071824071800000002504370000000001N110718000000000000000000000000000000000000000000000000000000000000000100005071481855ERIBALDO SANTANA CARVALHO               RUA HONDURAS - 477 - PARQUE DAS AMERICAS            09351070                                                            000017
2SR. CAIXA, APOS O VENCIMENTO COBRAR 2% DE MULTA                                 NAO RECEBER APOS 30 DIAS DO VENCIMENTO.                                                                                                                                                                                                         11071800000000000001107180000000000000       0090339900006270050714071815000018
100000000000000000000009033990000627000000000000000000000000010002020002841707181900000000002            2  01028417071824071800000002343060000000001N110718000000000000000000000000000000000000000000000000000000000000000100002841756416LUCIANA PINHEIRO DE ASSIS NUNES         RUA RIO ACIMA - 81 - RIACHO GRANDE - SAO            09830100                                                            000020
2SR. CAIXA, APOS O VENCIMENTO COBRAR 2% DE MULTA                                 NAO RECEBER APOS 30 DIAS DO VENCIMENTO.                                                                                                                                                                                                         11071800000000000001107180000000000000       0090339900006270028417071819000021
100000000000000000000009033990000627000000000000000000000000010002020084302007181800000000002            2  01843020071824071800000002354300000000001N110718000000000000000000000000000000000000000000000000000000000000000100084302097868FAUSTO TADEU VILOR                      RUA ANTONIO TAVARES - 466 - BAIRRO CAMBU            01542010                                                            000023
2SR. CAIXA, APOS O VENCIMENTO COBRAR 2% DE MULTA                                 NAO RECEBER APOS 30 DIAS DO VENCIMENTO.                                                                                                                                                                                                         11071800000000000001107180000000000000       0090339900006270843020071818000024
100000000000000000000009033990000627000000000000000000000000010002020028804207181800000000002            2  01288042071824071800000002313120000000001N110718000000000000000000000000000000000000000000000000000000000000000100028804202882GILBERTO FABIANO CABRAL DE CAMARGO      RUA CARLOS JOSE BORSTENS - 50 AP.44 - AV            11702750                                                            000026
2SR. CAIXA, APOS O VENCIMENTO COBRAR 2% DE MULTA                                 NAO RECEBER APOS 30 DIAS DO VENCIMENTO.                                                                                                                                                                                                         11071800000000000001107180000000000000       0090339900006270288042071818000027
100000000000000000000009033990000627000000000000000000000000010002020000991707181000000000002            2  01009917071824071800000002257680000000001N110718000000000000000000000000000000000000000000000000000000000000000100000991748808JAILSON BORGES DE ANDRADE               RUA IPIOBUNA - 45 - JARDIM CUMBICA - GUA            07240040                                                            000029
2SR. CAIXA, APOS O VENCIMENTO COBRAR 2% DE MULTA                                 NAO RECEBER APOS 30 DIAS DO VENCIMENTO.                                                                                                                                                                                                         11071800000000000001107180000000000000       0090339900006270009917071810000030
100000000000000000000009033990000627000000000000000000000000010002020092180207181800000000002            2  01921802071824071800000003078090000000001N110718000000000000000000000000000000000000000000000000000000000000000100092180299834LUIS ROBERTO DE SA DUARTE               RUA TEBAS - 296 AP.84 BLOCO 2 CE - JARDI            04634031                                                            000032
2SR. CAIXA, APOS O VENCIMENTO COBRAR 2% DE MULTA                                 NAO RECEBER APOS 30 DIAS DO VENCIMENTO.                                                                                                                                                                                                         11071800000000000001107180000000000000       0090339900006270921802071818000033
100000000000000000000009033990000627000000000000000000000000010002020022151607181700000000002            2  01221516071824071800000002244590000000001N110718000000000000000000000000000000000000000000000000000000000000000100022151666816SAMIR LIMA DE ARAUJO                    AVENIDA GUARAPIRANGA - 2616 AP.42 BLOCO1            04902005                                                            000035
2SR. CAIXA, APOS O VENCIMENTO COBRAR 2% DE MULTA                                 NAO RECEBER APOS 30 DIAS DO VENCIMENTO.                                                                                                                                                                                                         11071800000000000001107180000000000000       0090339900006270221516071817000036
100000000000000000000009033990000627000000000000000000000000010002020022313107181900000000002            2  01223131071826071800000001765670000000001N110718000000000000000000000000000000000000000000000000000000000000000100022313116824ROSA MARIA BRITO DA SILVA               RUA SERVIDAO DE SAO MARCOS - 113 - JARDI            04930300                                                            000038
2SR. CAIXA, APOS O VENCIMENTO COBRAR 2% DE MULTA                                 NAO RECEBER APOS 30 DIAS DO VENCIMENTO.                                                                                                                                                                                                         11071800000000000001107180000000000000       0090339900006270223131071819000039
100000000000000000000009033990000627000000000000000000000000010002020027538007181000000000002            2  01275380071826071800000001771830000000001N110718000000000000000000000000000000000000000000000000000000000000000100027538087249MARA LUCIA MENEZES DA COSTA             RUA LEILA  - 183 - ITAQUERA - SAO PAULO             08240020                                                            000041
2SR. CAIXA, APOS O VENCIMENTO COBRAR 2% DE MULTA                                 NAO RECEBER APOS 30 DIAS DO VENCIMENTO.                                                                                                                                                                                                         11071800000000000001107180000000000000       0090339900006270275380071810000042
100000000000000000000009033990000627000000000000000000000000010002020020105507181900000000002            2  01201055071826071800000001875720000000001N110718000000000000000000000000000000000000000000000000000000000000000100020105503827VALTER DE SOUSA LIBARINO FILHO          RUA DAS PAINEIRAS - 140 - LARANJEIRAS -             07700000                                                            000044
2SR. CAIXA, APOS O VENCIMENTO COBRAR 2% DE MULTA                                 NAO RECEBER APOS 30 DIAS DO VENCIMENTO.                                                                                                                                                                                                         11071800000000000001107180000000000000       0090339900006270201055071819000045
100000000000000000000009033990000627000000000000000000000000010002020031278407181700000000002            2  01312784071824071800000002168340000000001N110718000000000000000000000000000000000000000000000000000000000000000100031278411836JEFFERSON DE PIERI PIRES ZAMUNER        RUA MANOEL ARCE - 277 - PARQUE BANCARIO             03922150                                                            000047
2SR. CAIXA, APOS O VENCIMENTO COBRAR 2% DE MULTA                                 NAO RECEBER APOS 30 DIAS DO VENCIMENTO.                                                                                                                                                                                                         11071800000000000001107180000000000000       0090339900006270312784071817000048
100000000000000000000009033990000627000000000000000000000000010002020019185707181900000000002            2  01191857071826071800000001612400000000001N110718000000000000000000000000000000000000000000000000000000000000000100019185769800AGUINALDO PESSOA DE LIMA                RUA JANUARIO ZINGARO - 252 AP.303 BL.04             05794300                                                            000050
2SR. CAIXA, APOS O VENCIMENTO COBRAR 2% DE MULTA                                 NAO RECEBER APOS 30 DIAS DO VENCIMENTO.                                                                                                                                                                                                         11071800000000000001107180000000000000       0090339900006270191857071819000051
100000000000000000000009033990000627000000000000000000000000010002020033303607181P00000000002            2  01333036071826071800000001736700000000001N110718000000000000000000000000000000000000000000000000000000000000000100033303645809JESSICA DA SILVA FREITAS                RUA ARILDO VALADAO - 120 - JARDIM GUAEMB            04814600                                                            000053
2SR. CAIXA, APOS O VENCIMENTO COBRAR 2% DE MULTA                                 NAO RECEBER APOS 30 DIAS DO VENCIMENTO.                                                                                                                                                                                                         11071800000000000001107180000000000000       009033990000627033303607181P000054
100000000000000000000009033990000627000000000000000000000000010002020004824407181900000000002            2  01048244071826071800000001750440000000001N110718000000000000000000000000000000000000000000000000000000000000000100004824443806ROSIMEIRE CLARA FERREIRA REZENDE        RUA JOAQUIM DE OLIVEIRA FREITAS - 912 AP            05133000                                                            000056
2SR. CAIXA, APOS O VENCIMENTO COBRAR 2% DE MULTA                                 NAO RECEBER APOS 30 DIAS DO VENCIMENTO.                                                                                                                                                                                                         11071800000000000001107180000000000000       0090339900006270048244071819000057
100000000000000000000009033990000627000000000000000000000000010002020006422607181500000000002            2  01064226071824071800000002348370000000001N110718000000000000000000000000000000000000000000000000000000000000000100006422607881GERALDO ALVES DA SILVA                  RUA ALFREDO JOREL - 195 AP.5 CONDOMINIO             04195020                                                            000059
2SR. CAIXA, APOS O VENCIMENTO COBRAR 2% DE MULTA                                 NAO RECEBER APOS 30 DIAS DO VENCIMENTO.                                                                                                                                                                                                         11071800000000000001107180000000000000       0090339900006270064226071815000060
100000000000000000000009033990000627000000000000000000000000010002020033877107181700000000002            2  01338771071826071800000001628210000000001N110718000000000000000000000000000000000000000000000000000000000000000100033877129870HELDER FERREIRA VIANA                   RUA LEOPOLDO MOTTA E SILVA - 93 AP.34 -             11320340                                                            000062
2SR. CAIXA, APOS O VENCIMENTO COBRAR 2% DE MULTA                                 NAO RECEBER APOS 30 DIAS DO VENCIMENTO.                                                                                                                                                                                                         11071800000000000001107180000000000000       0090339900006270338771071817000063
100000000000000000000009033990000627000000000000000000000000010002020028290707181000000000002            2  01282907071826071800000001500590000000001N110718000000000000000000000000000000000000000000000000000000000000000100028290719809VANESSA GIANGARRELLI PEREIRA            RUA BARINEL - 72 - JARDIM COTCHING - SAO            03462130                                                            000065
2SR. CAIXA, APOS O VENCIMENTO COBRAR 2% DE MULTA                                 NAO RECEBER APOS 30 DIAS DO VENCIMENTO.                                                                                                                                                                                                         11071800000000000001107180000000000000       0090339900006270282907071810000066
100000000000000000000009033990000627000000000000000000000000010002020087573007181600000000002            2  01875730071826071800000001638640000000001N110718000000000000000000000000000000000000000000000000000000000000000100087573059604VANDERLEY DE ASSIS                      RUA ROMEU ALBANI - 268 - JARDIM PARQUE R            13803810                                                            000068
2SR. CAIXA, APOS O VENCIMENTO COBRAR 2% DE MULTA                                 NAO RECEBER APOS 30 DIAS DO VENCIMENTO.                                                                                                                                                                                                         11071800000000000001107180000000000000       0090339900006270875730071816000069
100000000000000000000009033990000627000000000000000000000000010002020010825507181300000000002            2  01108255071826071800000001710020000000001N110718000000000000000000000000000000000000000000000000000000000000000100010825513847JOSE APARECIDO PEREIRA                  RUA GENERAL OSORIO - 305 - JARDIM TRINTA            11515130                                                            000071
2SR. CAIXA, APOS O VENCIMENTO COBRAR 2% DE MULTA                                 NAO RECEBER APOS 30 DIAS DO VENCIMENTO.                                                                                                                                                                                                         11071800000000000001107180000000000000       0090339900006270108255071813000072
100000000000000000000009033990000627000000000000000000000000010002020038818507181300000000002            2  01388185071826071800000002671920000000001N110718000000000000000000000000000000000000000000000000000000000000000100038818572814MAURICIUS ALEXANDRE ESTEVAM NABOR       RUA RAUL SERAPIAO BARROSO - 379 - ESPLAN            11340330                                                            000074
2SR. CAIXA, APOS O VENCIMENTO COBRAR 2% DE MULTA                                 NAO RECEBER APOS 30 DIAS DO VENCIMENTO.                                                                                                                                                                                                         11071800000000000001107180000000000000       0090339900006270388185071813000075
100000000000000000000009033990000627000000000000000000000000010002020039115107181500000000002            2  01391151071826071800000002107880000000001N110718000000000000000000000000000000000000000000000000000000000000000100039115139840LAIS CRISTINA RIBEIRO ANDO              RUA PERU - 769 AP.17 - VILA GUILHERMINA             11702250                                                            000077
2SR. CAIXA, APOS O VENCIMENTO COBRAR 2% DE MULTA                                 NAO RECEBER APOS 30 DIAS DO VENCIMENTO.                                                                                                                                                                                                         11071800000000000001107180000000000000       0090339900006270391151071815000078
100000000000000000000009033990000627000000000000000000000000010002020029617507181300000000002            2  01296175071824071800000002304990000000001N110718000000000000000000000000000000000000000000000000000000000000000100029617510553MARILENE SOUZA DE OLIVEIRA              AVENIDA BRASIL - 393 AP.09 - PARQUE DAS             09210280                                                            000080
2SR. CAIXA, APOS O VENCIMENTO COBRAR 2% DE MULTA                                 NAO RECEBER APOS 30 DIAS DO VENCIMENTO.                                                                                                                                                                                                         11071800000000000001107180000000000000       0090339900006270296175071813000081
100000000000000000000009033990000627000000000000000000000000010002020000593207181300000000002            2  01005932071824071800000002528010000000001N110718000000000000000000000000000000000000000000000000000000000000000100000593293860WALTER HELIO BARBOSA FILHO              AVENIDA ANTONIO FREDERICO OZANAN - 9500             13214206                                                            000083
2SR. CAIXA, APOS O VENCIMENTO COBRAR 2% DE MULTA                                 NAO RECEBER APOS 30 DIAS DO VENCIMENTO.                                                                                                                                                                                                         11071800000000000001107180000000000000       0090339900006270005932071813000084
100000000000000000000009033990000627000000000000000000000000010002020007730007181900000000002            2  01077300071824071800000003595090000000001N110718000000000000000000000000000000000000000000000000000000000000000100007730084899ARNALDO LUIZ VONO                       RUA CARLOS JOSE BORSTENS - 50 AP.122 - A            11702750                                                            000086
2SR. CAIXA, APOS O VENCIMENTO COBRAR 2% DE MULTA                                 NAO RECEBER APOS 30 DIAS DO VENCIMENTO.                                                                                                                                                                                                         11071800000000000001107180000000000000       0090339900006270077300071819000087
100000000000000000000009033990000627000000000000000000000000010002020065584107181500000000002            2  01655841071824071800000001327050000000001N110718000000000000000000000000000000000000000000000000000000000000000100065584147834JOAQUIM DA COSTA MACHADO NETO           RUA CARLOS JOSE BORSTENS - 50 AP.42 - AV            11702750                                                            000089
2SR. CAIXA, APOS O VENCIMENTO COBRAR 2% DE MULTA                                 NAO RECEBER APOS 30 DIAS DO VENCIMENTO.                                                                                                                                                                                                         11071800000000000001107180000000000000       0090339900006270655841071815000090
100000000000000000000009033990000627000000000000000000000000010002020001616907181700000000002            2  01016169071824071800000002333900000000001N110718000000000000000000000000000000000000000000000000000000000000000100001616913827CLAUDIO LUIZ PAULELLA                   PRACA NESTOR DOS SANTOS ARRUDA - 26 - VI            13920000                                                            000092
2SR. CAIXA, APOS O VENCIMENTO COBRAR 2% DE MULTA                                 NAO RECEBER APOS 30 DIAS DO VENCIMENTO.                                                                                                                                                                                                         11071800000000000001107180000000000000       0090339900006270016169071817000093
100000000000000000000009033990000627000000000000000000000000010002020006684607181800000000002            2  01066846071826071800000001736460000000001N110718000000000000000000000000000000000000000000000000000000000000000100006684623884LAUDINOR VIEIRA GARCIA                  RUA CANDIDO SALES - 374 - JARDIM PRESIDE            07172000                                                            000095
2SR. CAIXA, APOS O VENCIMENTO COBRAR 2% DE MULTA                                 NAO RECEBER APOS 30 DIAS DO VENCIMENTO.                                                                                                                                                                                                         11071800000000000001107180000000000000       0090339900006270066846071818000096
100000000000000000000009033990000627000000000000000000000000010002020011663507181900000000002            2  01116635071826071800000001748980000000001N110718000000000000000000000000000000000000000000000000000000000000000100011663589844MARIA SAVIO QUARELLO                    AVENIDA MENDONCA DRUMOND - 321 - JARDIM             03524030                                                            000098
2SR. CAIXA, APOS O VENCIMENTO COBRAR 2% DE MULTA                                 NAO RECEBER APOS 30 DIAS DO VENCIMENTO.                                                                                                                                                                                                         11071800000000000001107180000000000000       0090339900006270116635071819000099
100000000000000000000009033990000627000000000000000000000000010002020010083807181000000000002            2  01100838071826071800000001689790000000001N110718000000000000000000000000000000000000000000000000000000000000000100010083824855IONE FERREIRA COUTO DA SILVA            RUA JOSE RAGEL DE MESQUITA - 60 CS.01 -             07799999                                                            000101
2SR. CAIXA, APOS O VENCIMENTO COBRAR 2% DE MULTA                                 NAO RECEBER APOS 30 DIAS DO VENCIMENTO.                                                                                                                                                                                                         11071800000000000001107180000000000000       0090339900006270100838071810000102
100000000000000000000009033990000627000000000000000000000000010002020036881707181300000000002            2  01368817071826071800000001658250000000001N110718000000000000000000000000000000000000000000000000000000000000000100036881778864ANDRE GONZALEZ RABELLO                  RUA PARAIBA - 106 AP.61 - POMPEIA - SANT            11065470                                                            000104
2SR. CAIXA, APOS O VENCIMENTO COBRAR 2% DE MULTA                                 NAO RECEBER APOS 30 DIAS DO VENCIMENTO.                                                                                                                                                                                                         11071800000000000001107180000000000000       0090339900006270368817071813000105
100000000000000000000009033990000627000000000000000000000000010002020018207007181200000000002            2  01182070071824071800000002235220000000001N110718000000000000000000000000000000000000000000000000000000000000000100018207096802ROBERTO VALENTE TAVARES                 RUA SEBASTIAO GOMES - 218 - JARDIM SANTO            13835000                                                            000107
2SR. CAIXA, APOS O VENCIMENTO COBRAR 2% DE MULTA                                 NAO RECEBER APOS 30 DIAS DO VENCIMENTO.                                                                                                                                                                                                         11071800000000000001107180000000000000       0090339900006270182070071812000108
100000000000000000000009033990000627000000000000000000000000010002020005351007181500000000002            2  01053510071826071800000001554780000000001N110718000000000000000000000000000000000000000000000000000000000000000100005351015897VALERIA ALVES MARCOLINO HINNIGER        RUA MONGOLIA - 230 AP.71 BL.4 - PARQUE N            09280220                                                            000110
2SR. CAIXA, APOS O VENCIMENTO COBRAR 2% DE MULTA                                 NAO RECEBER APOS 30 DIAS DO VENCIMENTO.                                                                                                                                                                                                         11071800000000000001107180000000000000       0090339900006270053510071815000111
100000000000000000000009033990000627000000000000000000000000010002020031898707181000000000002            2  01318987071824071800000002418920000000001N110718000000000000000000000000000000000000000000000000000000000000000100031898775800ANITA MARTINS COLOMBO                   RUA CARLOS JOSE BORSTENS - 50 AP.115 - A            11702750                                                            000113
2SR. CAIXA, APOS O VENCIMENTO COBRAR 2% DE MULTA                                 NAO RECEBER APOS 30 DIAS DO VENCIMENTO.                                                                                                                                                                                                         11071800000000000001107180000000000000       0090339900006270318987071810000114
100000000000000000000009033990000627000000000000000000000000010002020037983407181000000000002            2  01379834071826071800000001826350000000001N110718000000000000000000000000000000000000000000000000000000000000000100037983484801JOSE ERIVALDO SOUZA DO NASCIMENTO RAMOS RUA LETICIA - 250 - JARDIM GUARUJA - SAO            05877260                                                            000116
2SR. CAIXA, APOS O VENCIMENTO COBRAR 2% DE MULTA                                 NAO RECEBER APOS 30 DIAS DO VENCIMENTO.                                                                                                                                                                                                         11071800000000000001107180000000000000       0090339900006270379834071810000117
100000000000000000000009033990000627000000000000000000000000010002020056289207181100000000002            2  01562892071826071800000001379720000000001N110718000000000000000000000000000000000000000000000000000000000000000100056289286900PEDRO RIBEIRO                           RUA CONEGO MANOEL VAZ - 48 - SANTANA - S            02019050                                                            000119
2SR. CAIXA, APOS O VENCIMENTO COBRAR 2% DE MULTA                                 NAO RECEBER APOS 30 DIAS DO VENCIMENTO.                                                                                                                                                                                                         11071800000000000001107180000000000000       0090339900006270562892071811000120
100000000000000000000009033990000627000000000000000000000000010002020028358307181900000000002            2  01283583071824071800000000988500000000001N110718000000000000000000000000000000000000000000000000000000000000000100028358348851MAGDA MASCARENHAS DE JESUS KOST         RUA CAMPOS MELLO - 311 - ENCRUZILHADA -             11015013                                                            000122
2SR. CAIXA, APOS O VENCIMENTO COBRAR 2% DE MULTA                                 NAO RECEBER APOS 30 DIAS DO VENCIMENTO.                                                                                                                                                                                                         11071800000000000001107180000000000000       0090339900006270283583071819000123
9                                                                                                                                                                                                                                                                                                                                                                                                         000124