01REMESSA01COBRANCA       00000000000005316116AIRES CONSTRUTORA E INCORPORAD237BRADESCO       010123        MX0000209                                                                                                                                                                                                                                                                                     000001
100000000000000000000009002800441612000000000000000000000000010002100025215101231200000000002            2  01252151012310012300000003206800000000001N010123000000000000000000000000000000000000000000000000000000000000000100025215106886KLEBER LUIZ DOS SANTOS                  RUA MONTE CASTELO - 262 AP.15 - AVIACAO             11702720                                                            000002
2SR. CAIXA, APOS O VENCIMENTO COBRAR 10% DE MULTA                                NAO RECEBER APOS 30 DIAS DO VENCIMENTO.                                                                                                                                                                                                         01012300000000000000101230000000000000       0090028004416120252151012312000003
100000000000000000000009002800441612000000000000000000000000010002100018344801231P00000000002            2  01183448012310012300000004695780000000001N010123000000000000000000000000000000000000000000000000000000000000000100018344803888MARCELO BERNARDO                        RUA MONTE CASTELO - 262 AP.84 - AVIACAO             11702720                                                            000005
2SR. CAIXA, APOS O VENCIMENTO COBRAR 10% DE MULTA                                NAO RECEBER APOS 30 DIAS DO VENCIMENTO.                                                                                                                                                                                                         01012300000000000000101230000000000000       009002800441612018344801231P000006
100000000000000000000009002800441612000000000000000000000000010002100031803801231500000000002            2  01318038012310012300000003792090000000001N010123000000000000000000000000000000000000000000000000000000000000000100031803864877ELEILSON FELIPPE SANTOS                 RUA SANTA GREGORIA - 193 - CIDADE DUTRA             04806030                                                            000008
2SR. CAIXA, APOS O VENCIMENTO COBRAR 10% DE MULTA                                NAO RECEBER APOS 30 DIAS DO VENCIMENTO.                                                                                                                                                                                                         01012300000000000000101230000000000000       0090028004416120318038012315000009
100000000000000000000009002800441612000000000000000000000000010002100063064501231P00000000002            2  01630645012310012300000004518940000000001N010123000000000000000000000000000000000000000000000000000000000000000100063064537849ANTONIO APARECIDO DA SILVA DESTEFANO    RUA PROFESSOR TEODORO BRAGA - 46 - VILA             02966020                                                            000011
2SR. CAIXA, APOS O VENCIMENTO COBRAR 10% DE MULTA                                NAO RECEBER APOS 30 DIAS DO VENCIMENTO.                                                                                                                                                                                                         01012300000000000000101230000000000000       009002800441612063064501231P000012
100000000000000000000009002800441612000000000000000000000000010002100005920501231900000000002            2  01059205012310012300000002630970000000001N010123000000000000000000000000000000000000000000000000000000000000000100005920579846SONIA MARIA VALDO POLLO                 RUA PALMIRA CERVI BARBARO - 797 - CIDADE            13214370                                                            000014
2SR. CAIXA, APOS O VENCIMENTO COBRAR 10% DE MULTA                                NAO RECEBER APOS 30 DIAS DO VENCIMENTO.                                                                                                                                                                                                         01012300000000000000101230000000000000       0090028004416120059205012319000015
100000000000000000000009002800441612000000000000000000000000010002100002494101231P00000000002            2  01024941012310012300000003955750000000001N010123000000000000000000000000000000000000000000000000000000000000000100002494107881CIRO FRANCISCO MARCHI DURIGON           RUA MONTE CASTELO - 262 AP.115 - AVIACAO            11702720                                                            000017
2SR. CAIXA, APOS O VENCIMENTO COBRAR 10% DE MULTA                                NAO RECEBER APOS 30 DIAS DO VENCIMENTO.                                                                                                                                                                                                         01012300000000000000101230000000000000       009002800441612002494101231P000018
100000000000000000000009002800441612000000000000000000000000010002100016299001231000000000002            2  01162990012310012300000003748690000000001N010123000000000000000000000000000000000000000000000000000000000000000100016299008857FERNANDO CESAR CARVALHO                 AVENIDA MARCONDES DE BRITO - 1340 AP.74             03509000                                                            000020
2SR. CAIXA, APOS O VENCIMENTO COBRAR 10% DE MULTA                                NAO RECEBER APOS 30 DIAS DO VENCIMENTO.                                                                                                                                                                                                         01012300000000000000101230000000000000       0090028004416120162990012310000021
100000000000000000000009002800441612000000000000000000000000010002100055975301231100000000002            2  01559753012310012300000000856070000000001N010123000000000000000000000000000000000000000000000000000000000000000100055975372887BENEVENUTO THEODORO DA SILVA NETO       RUA MONTE CASTELO - 296 AP.63 - AVIACAO             11702720                                                            000023
2SR. CAIXA, APOS O VENCIMENTO COBRAR 10% DE MULTA                                NAO RECEBER APOS 30 DIAS DO VENCIMENTO.                                                                                                                                                                                                         01012300000000000000101230000000000000       0090028004416120559753012311000024
9                                                                                                                                                                                                                                                                                                                                                                                                         000025