01REMESSA01COBRANCA       00000000000008017025HB SANTOS CONSTRUTORA E INCORP237BRADESCO       011120        MX0000115                                                                                                                                                                                                                                                                                     000001
100000000000000000000009033990000627000000000000000000000000010002020029671511201800000000002            2  01296715112009112000000002811290000000001N011120000000000000000000000000000000000000000000000000000000000000000100029671526845ROGERIO CONSENTINO                      RUA CARLOS MAZER  - 678 - VILA CARMOSINA            08290700                                                            000002
2SR. CAIXA, APOS O VENCIMENTO COBRAR 2% DE MULTA                                 NAO RECEBER APOS 30 DIAS DO VENCIMENTO.                                                                                                                                                                                                         01112000000000000000111200000000000000       0090339900006270296715112018000003
100000000000000000000009033990000627000000000000000000000000010002020003863011201P00000000002            2  01038630112009112000000002655490000000001N011120000000000000000000000000000000000000000000000000000000000000000100003863075803HERALDO MENQUINI                        RUA CARLOS JOSE BORSTENS - 50 AP.15 - AV            11702750                                                            000005
2SR. CAIXA, APOS O VENCIMENTO COBRAR 2% DE MULTA                                 NAO RECEBER APOS 30 DIAS DO VENCIMENTO.                                                                                                                                                                                                         01112000000000000000111200000000000000       009033990000627003863011201P000006
100000000000000000000009033990000627000000000000000000000000010002020029028411201700000000002            2  01290284112009112000000002720290000000001N011120000000000000000000000000000000000000000000000000000000000000000100029028478825LEONARDO LOUZADA                        RUA CARLOS JOSE BORSTENS - 50 AP.35 - AV            11702750                                                            000008
2SR. CAIXA, APOS O VENCIMENTO COBRAR 2% DE MULTA                                 NAO RECEBER APOS 30 DIAS DO VENCIMENTO.                                                                                                                                                                                                         01112000000000000000111200000000000000       0090339900006270290284112017000009
100000000000000000000009033990000627000000000000000000000000010002020032878511201400000000002            2  01328785112009112000000003931370000000001N011120000000000000000000000000000000000000000000000000000000000000000100032878512847LEONARDO MOURA MONIZ CALDEIRA           RUA BALSA - 682 AP.134 T.02 - VILA ARCAD            02910000                                                            000011
2SR. CAIXA, APOS O VENCIMENTO COBRAR 2% DE MULTA                                 NAO RECEBER APOS 30 DIAS DO VENCIMENTO.                                                                                                                                                                                                         01112000000000000000111200000000000000       0090339900006270328785112014000012
100000000000000000000009033990000627000000000000000000000000010002020016479011201100000000002            2  01164790112009112000000004182270000000001N011120000000000000000000000000000000000000000000000000000000000000000100016479002806LOURDES PEREIRA DE QUEIROZ SECANECHIA   RUA PAULINO CURSI - 437 - CIDADE SAO MAT            03960060                                                            000014
2SR. CAIXA, APOS O VENCIMENTO COBRAR 2% DE MULTA                                 NAO RECEBER APOS 30 DIAS DO VENCIMENTO.                                                                                                                                                                                                         01112000000000000000111200000000000000       0090339900006270164790112011000015
100000000000000000000009033990000627000000000000000000000000010002020019635011201900000000002            2  01196350112009112000000003085780000000001N011120000000000000000000000000000000000000000000000000000000000000000100019635091885IVAN VIEIRA SILVA                       ABRAO JORGE - 3001 - JARDIM INTEGRACAO -            14405397                                                            000017
2SR. CAIXA, APOS O VENCIMENTO COBRAR 2% DE MULTA                                 NAO RECEBER APOS 30 DIAS DO VENCIMENTO.                                                                                                                                                                                                         01112000000000000000111200000000000000       0090339900006270196350112019000018
100000000000000000000009033990000627000000000000000000000000010002020009361411201900000000002            2  01093614112009112000000003036330000000001N011120000000000000000000000000000000000000000000000000000000000000000100009361471805JOSE BARBOSA DA SILVA                   RUA ALFREDO INACIO TRINDADE  - 60 AP.44             02344100                                                            000020
2SR. CAIXA, APOS O VENCIMENTO COBRAR 2% DE MULTA                                 NAO RECEBER APOS 30 DIAS DO VENCIMENTO.                                                                                                                                                                                                         01112000000000000000111200000000000000       0090339900006270093614112019000021
100000000000000000000009033990000627000000000000000000000000010002020012756911201200000000002            2  01127569112009112000000002621040000000001N011120000000000000000000000000000000000000000000000000000000000000000100012756959812ITAMAR JUVENAL DIAS DA SILVA            RUA ELISEU REINALDO MORAES VIEIRA - 90 A            02858000                                                            000023
2SR. CAIXA, APOS O VENCIMENTO COBRAR 2% DE MULTA                                 NAO RECEBER APOS 30 DIAS DO VENCIMENTO.                                                                                                                                                                                                         01112000000000000000111200000000000000       0090339900006270127569112012000024
100000000000000000000009033990000627000000000000000000000000010002020002731011201P00000000002            2  01027310112009112000000003098780000000001N011120000000000000000000000000000000000000000000000000000000000000000100002731042842VALTER CERQUEIRA VILLA NOVA             RUA MACHADO - 106 - VILA AUGUSTA - GUARU            07025210                                                            000026
2SR. CAIXA, APOS O VENCIMENTO COBRAR 2% DE MULTA                                 NAO RECEBER APOS 30 DIAS DO VENCIMENTO.                                                                                                                                                                                                         01112000000000000000111200000000000000       009033990000627002731011201P000027
100000000000000000000009033990000627000000000000000000000000010002020002731011202800000000002            2  01027310112009112000000003098770000000001N011120000000000000000000000000000000000000000000000000000000000000000100002731042842VALTER CERQUEIRA VILLA NOVA             RUA MACHADO - 106 - VILA AUGUSTA - GUARU            07025210                                                            000029
2SR. CAIXA, APOS O VENCIMENTO COBRAR 2% DE MULTA                                 NAO RECEBER APOS 30 DIAS DO VENCIMENTO.                                                                                                                                                                                                         01112000000000000000111200000000000000       0090339900006270027310112028000030
100000000000000000000009033990000627000000000000000000000000010002020028802111201800000000002            2  01288021112009112000000002798110000000001N011120000000000000000000000000000000000000000000000000000000000000000100028802158894ELIEL HENRIQUE ZUZA                     RUA CARLOS JOSE BORSTENS - 50 AP.43 - BA            11702750                                                            000032
2SR. CAIXA, APOS O VENCIMENTO COBRAR 2% DE MULTA                                 NAO RECEBER APOS 30 DIAS DO VENCIMENTO.                                                                                                                                                                                                         01112000000000000000111200000000000000       0090339900006270288021112018000033
100000000000000000000009033990000627000000000000000000000000010002020005313711201800000000002            2  01053137112011112000000002261820000000001N011120000000000000000000000000000000000000000000000000000000000000000100005313717863EDIMICIO JOSE DE ARAUJO                 RUA JOSE CALIXTO DO CARMO - 286 AP.101 -            11702690                                                            000035
2SR. CAIXA, APOS O VENCIMENTO COBRAR 2% DE MULTA                                 NAO RECEBER APOS 30 DIAS DO VENCIMENTO.                                                                                                                                                                                                         01112000000000000000111200000000000000       0090339900006270053137112018000036
100000000000000000000009033990000627000000000000000000000000010002020029433611201600000000002            2  01294336112011112000000002172850000000001N011120000000000000000000000000000000000000000000000000000000000000000100029433631897MARIO MUNIZ                             RUA JOSE CALIXTO DO CARMO - 286 AP.53 -             11702690                                                            000038
2SR. CAIXA, APOS O VENCIMENTO COBRAR 2% DE MULTA                                 NAO RECEBER APOS 30 DIAS DO VENCIMENTO.                                                                                                                                                                                                         01112000000000000000111200000000000000       0090339900006270294336112016000039
100000000000000000000009033990000627000000000000000000000000010002020001847211201400000000002            2  01018472112011112000000002000350000000001N011120000000000000000000000000000000000000000000000000000000000000000100001847204864AMERICA CONCEICAO DA SILVA              RUA JOSE CALIXTO DO CARMO - 286 AP.44 -             11702690                                                            000041
2SR. CAIXA, APOS O VENCIMENTO COBRAR 2% DE MULTA                                 NAO RECEBER APOS 30 DIAS DO VENCIMENTO.                                                                                                                                                                                                         01112000000000000000111200000000000000       0090339900006270018472112014000042
100000000000000000000009033990000627000000000000000000000000010002020005029811201900000000002            2  01050298112009112000000002672290000000001N011120000000000000000000000000000000000000000000000000000000000000000100005029828885LAURINETE DA CONCEICAO DE NORONHA       RUA MARIA LUCIA DE TOLEDO LEITE MORAES -            04434040                                                            000044
2SR. CAIXA, APOS O VENCIMENTO COBRAR 2% DE MULTA                                 NAO RECEBER APOS 30 DIAS DO VENCIMENTO.                                                                                                                                                                                                         01112000000000000000111200000000000000       0090339900006270050298112019000045
100000000000000000000009033990000627000000000000000000000000010002020013388911201000000000002            2  01133889112011112000000002118170000000001N011120000000000000000000000000000000000000000000000000000000000000000100013388936889NEUTON DE SOUZA RAMOS                   RUA MARIA CRISTINA - 932 - JARDIM CASQUE            11533160                                                            000047
2SR. CAIXA, APOS O VENCIMENTO COBRAR 2% DE MULTA                                 NAO RECEBER APOS 30 DIAS DO VENCIMENTO.                                                                                                                                                                                                         01112000000000000000111200000000000000       0090339900006270133889112010000048
100000000000000000000009033990000627000000000000000000000000010002020012774911201000000000002            2  01127749112011112000000002157960000000001N011120000000000000000000000000000000000000000000000000000000000000000100012774906865JOSE MILTON SANTIAGO                    RUA BATATAIS - 47 - CIDADE ESTELA - POA             08563140                                                            000050
2SR. CAIXA, APOS O VENCIMENTO COBRAR 2% DE MULTA                                 NAO RECEBER APOS 30 DIAS DO VENCIMENTO.                                                                                                                                                                                                         01112000000000000000111200000000000000       0090339900006270127749112010000051
100000000000000000000009033990000627000000000000000000000000010002020016294111201600000000002            2  01162941112009112000000002653120000000001N011120000000000000000000000000000000000000000000000000000000000000000100016294119812JURACY FELIX DE ARRUDA                  RUA CARLOS JOSE BORSTENS - 50 AP.23 - AV            11702750                                                            000053
2SR. CAIXA, APOS O VENCIMENTO COBRAR 2% DE MULTA                                 NAO RECEBER APOS 30 DIAS DO VENCIMENTO.                                                                                                                                                                                                         01112000000000000000111200000000000000       0090339900006270162941112016000054
100000000000000000000009033990000627000000000000000000000000010002020005613811201000000000002            2  01056138112011112000000001984720000000001N011120000000000000000000000000000000000000000000000000000000000000000100005613843805NILZA MARIA DE OLIVEIRA                 RUA JOSE GONCALVES DE FREITAS - 66 C2 -             08210550                                                            000056
2SR. CAIXA, APOS O VENCIMENTO COBRAR 2% DE MULTA                                 NAO RECEBER APOS 30 DIAS DO VENCIMENTO.                                                                                                                                                                                                         01112000000000000000111200000000000000       0090339900006270056138112010000057
100000000000000000000009033990000627000000000000000000000000010002020007574911201000000000002            2  01075749112011112000000002037270000000001N011120000000000000000000000000000000000000000000000000000000000000000100007574936889JORGE LUCIANO PEREIRA BORRIELLO         RUA JOSE CALIXTO DO CARMO - 286 AP.54 -             11702690                                                            000059
2SR. CAIXA, APOS O VENCIMENTO COBRAR 2% DE MULTA                                 NAO RECEBER APOS 30 DIAS DO VENCIMENTO.                                                                                                                                                                                                         01112000000000000000111200000000000000       0090339900006270075749112010000060
100000000000000000000009033990000627000000000000000000000000010002020008214911201300000000002            2  01082149112011112000000002068180000000001N011120000000000000000000000000000000000000000000000000000000000000000100008214973830JAMIL CHALA                             RUA JOSE CALIXTO DO CARMO - 286 AP.22 -             11702690                                                            000062
2SR. CAIXA, APOS O VENCIMENTO COBRAR 2% DE MULTA                                 NAO RECEBER APOS 30 DIAS DO VENCIMENTO.                                                                                                                                                                                                         01112000000000000000111200000000000000       0090339900006270082149112013000063
100000000000000000000009033990000627000000000000000000000000010002020032495011201000000000002            2  01324950112011112000000002317660000000001N011120000000000000000000000000000000000000000000000000000000000000000100032495004881PAULO EDUARDO DOS SANTOS                RUA REPUBLICA DO IRAQUE - 1119 - CAMPO B            04611002                                                            000065
2SR. CAIXA, APOS O VENCIMENTO COBRAR 2% DE MULTA                                 NAO RECEBER APOS 30 DIAS DO VENCIMENTO.                                                                                                                                                                                                         01112000000000000000111200000000000000       0090339900006270324950112010000066
100000000000000000000009033990000627000000000000000000000000010002020016498011201800000000002            2  01164980112011112000000002032660000000001N011120000000000000000000000000000000000000000000000000000000000000000100016498053810GILMA CEZARIO GARCIA CORRITORI          RUA LAURENTINO XAVIER DOS SANTOS - 336 -            08240740                                                            000068
2SR. CAIXA, APOS O VENCIMENTO COBRAR 2% DE MULTA                                 NAO RECEBER APOS 30 DIAS DO VENCIMENTO.                                                                                                                                                                                                         01112000000000000000111200000000000000       0090339900006270164980112018000069
100000000000000000000009033990000627000000000000000000000000010002020029339011201700000000002            2  01293390112011112000000002173560000000001N011120000000000000000000000000000000000000000000000000000000000000000100029339051831RONALD DIDOFF                           RUA CORONEL FERREIRA BRAGA - 188 - VILA             03522010                                                            000071
2SR. CAIXA, APOS O VENCIMENTO COBRAR 2% DE MULTA                                 NAO RECEBER APOS 30 DIAS DO VENCIMENTO.                                                                                                                                                                                                         01112000000000000000111200000000000000       0090339900006270293390112017000072
100000000000000000000009033990000627000000000000000000000000010002020017357811201900000000002            2  01173578112011112000000002302000000000001N011120000000000000000000000000000000000000000000000000000000000000000100017357859894MARCIO GUIMARAES                        RUA GENERAL CAMARA - 188 SALA 11 - CENTR            11010120                                                            000074
2SR. CAIXA, APOS O VENCIMENTO COBRAR 2% DE MULTA                                 NAO RECEBER APOS 30 DIAS DO VENCIMENTO.                                                                                                                                                                                                         01112000000000000000111200000000000000       0090339900006270173578112019000075
100000000000000000000009033990000627000000000000000000000000010002020010563011201900000000002            2  01105630112011112000000002360820000000001N011120000000000000000000000000000000000000000000000000000000000000000100010563033878VERA LUCIA RIBEIRO LONGANEZI            RUA DOS CAMARES - 150 AP.24 BL.02 - CARA            02068030                                                            000077
2SR. CAIXA, APOS O VENCIMENTO COBRAR 2% DE MULTA                                 NAO RECEBER APOS 30 DIAS DO VENCIMENTO.                                                                                                                                                                                                         01112000000000000000111200000000000000       0090339900006270105630112019000078
100000000000000000000009033990000627000000000000000000000000010002020005529611201300000000002            2  01055296112011112000000002142370000000001N011120000000000000000000000000000000000000000000000000000000000000000100005529616801JOAQUIM JORGE DA COSTA                  RUA JOSE CALIXTO DO CARMO - 286 AP.106 -            11702690                                                            000080
2SR. CAIXA, APOS O VENCIMENTO COBRAR 2% DE MULTA                                 NAO RECEBER APOS 30 DIAS DO VENCIMENTO.                                                                                                                                                                                                         01112000000000000000111200000000000000       0090339900006270055296112013000081
100000000000000000000009033990000627000000000000000000000000010002020022014111201800000000002            2  01220141112011112000000002136130000000001N011120000000000000000000000000000000000000000000000000000000000000000100022014140847CAMILA SILVEIRA CANIZARES               AVENIDA PRESIDENTE CASTELO BRANCO - 5.74            11703650                                                            000083
2SR. CAIXA, APOS O VENCIMENTO COBRAR 2% DE MULTA                                 NAO RECEBER APOS 30 DIAS DO VENCIMENTO.                                                                                                                                                                                                         01112000000000000000111200000000000000       0090339900006270220141112018000084
100000000000000000000009033990000627000000000000000000000000010002020015550711201P00000000002            2  01155507112009112000000002025590000000001N011120000000000000000000000000000000000000000000000000000000000000000100015550706806MARY MIWA                               RUA CARLOS JOSE BORSTENS - 50 AP.105 - A            11702750                                                            000086
2SR. CAIXA, APOS O VENCIMENTO COBRAR 2% DE MULTA                                 NAO RECEBER APOS 30 DIAS DO VENCIMENTO.                                                                                                                                                                                                         01112000000000000000111200000000000000       009033990000627015550711201P000087
100000000000000000000009033990000627000000000000000000000000010002020015464611201P00000000002            2  01154646112011112000000002252150000000001N011120000000000000000000000000000000000000000000000000000000000000000100015464647864SONIA TERESA VOLPATO                    RUA JOSE CALIXTO DO CARMO - 286 AP.73 -             11702690                                                            000089
2SR. CAIXA, APOS O VENCIMENTO COBRAR 2% DE MULTA                                 NAO RECEBER APOS 30 DIAS DO VENCIMENTO.                                                                                                                                                                                                         01112000000000000000111200000000000000       009033990000627015464611201P000090
100000000000000000000009033990000627000000000000000000000000010002020008657811201900000000002            2  01086578112011112000000002229540000000001N011120000000000000000000000000000000000000000000000000000000000000000100008657886855ARLINDO DA CRUZ                         AVENIDA ARICANDUVA - 8.256 AP.54 BL.10 -            03951220                                                            000092
2SR. CAIXA, APOS O VENCIMENTO COBRAR 2% DE MULTA                                 NAO RECEBER APOS 30 DIAS DO VENCIMENTO.                                                                                                                                                                                                         01112000000000000000111200000000000000       0090339900006270086578112019000093
100000000000000000000009033990000627000000000000000000000000010002020004265711201900000000002            2  01042657112009112000000002984650000000001N011120000000000000000000000000000000000000000000000000000000000000000100004265781713ALEXANDRE CASADO COSTA                  RUA CARLOS JOSE BORSTENS - 50 AP.33 - AV            11702750                                                            000095
2SR. CAIXA, APOS O VENCIMENTO COBRAR 2% DE MULTA                                 NAO RECEBER APOS 30 DIAS DO VENCIMENTO.                                                                                                                                                                                                         01112000000000000000111200000000000000       0090339900006270042657112019000096
100000000000000000000009033990000627000000000000000000000000010002020059735111201700000000002            2  01597351112009112000000001260650000000001N011120000000000000000000000000000000000000000000000000000000000000000100059735180863HELIO JOSE MARQUES                      RUA MARTIM AFONSO DE SOUZA - 1007 AP.102            11702790                                                            000098
2SR. CAIXA, APOS O VENCIMENTO COBRAR 2% DE MULTA                                 NAO RECEBER APOS 30 DIAS DO VENCIMENTO.                                                                                                                                                                                                         01112000000000000000111200000000000000       0090339900006270597351112017000099
100000000000000000000009033990000627000000000000000000000000010002020026347811201000000000002            2  01263478112011112000000002383320000000001N011120000000000000000000000000000000000000000000000000000000000000000100026347872862VALDECI SILVA MEIRELES                  RUA JOSE BATISTA DA SILVA - 292 - JARDIM            06851470                                                            000101
2SR. CAIXA, APOS O VENCIMENTO COBRAR 2% DE MULTA                                 NAO RECEBER APOS 30 DIAS DO VENCIMENTO.                                                                                                                                                                                                         01112000000000000000111200000000000000       0090339900006270263478112010000102
100000000000000000000009033990000627000000000000000000000000010002020025443611201100000000002            2  01254436112009112000000004317470000000001N011120000000000000000000000000000000000000000000000000000000000000000100025443691830SILVANETE PEREIRA CARNELOS              RUA CARLOS JOSE BORSTENS - 50 AP.102 - A            11702750                                                            000104
2SR. CAIXA, APOS O VENCIMENTO COBRAR 2% DE MULTA                                 NAO RECEBER APOS 30 DIAS DO VENCIMENTO.                                                                                                                                                                                                         01112000000000000000111200000000000000       0090339900006270254436112011000105
100000000000000000000009033990000627000000000000000000000000010002020013135211201100000000002            2  01131352112011112000000002189680000000001N011120000000000000000000000000000000000000000000000000000000000000000100013135261859EDUARDO ZANOLA                          RUA ROLANDO PIETRO BONINI - 46 - JARDIM             09781040                                                            000107
2SR. CAIXA, APOS O VENCIMENTO COBRAR 2% DE MULTA                                 NAO RECEBER APOS 30 DIAS DO VENCIMENTO.                                                                                                                                                                                                         01112000000000000000111200000000000000       0090339900006270131352112011000108
100000000000000000000009033990000627000000000000000000000000010002020009797611201200000000002            2  01097976112011112000000002132520000000001N011120000000000000000000000000000000000000000000000000000000000000000100009797626857RICARDO SOBRAL DE OLIVEIRA              RUA 23 DE MAIO - 139 AP.32 - VILA MIRIM             11704690                                                            000110
2SR. CAIXA, APOS O VENCIMENTO COBRAR 2% DE MULTA                                 NAO RECEBER APOS 30 DIAS DO VENCIMENTO.                                                                                                                                                                                                         01112000000000000000111200000000000000       0090339900006270097976112012000111
100000000000000000000009033990000627000000000000000000000000010002020004767611201300000000002            2  01047676112009112000000003646560000000001N011120000000000000000000000000000000000000000000000000000000000000000100004767679893ORLANDO GRANDE FILHO                    RUA ORLANDO MIGLIARI - 101 - JARDIM OURO            19906140                                                            000113
2SR. CAIXA, APOS O VENCIMENTO COBRAR 2% DE MULTA                                 NAO RECEBER APOS 30 DIAS DO VENCIMENTO.                                                                                                                                                                                                         01112000000000000000111200000000000000       0090339900006270047676112013000114
100000000000000000000009033990000627000000000000000000000000010002020006512511201000000000002            2  01065125112011112000000001918290000000001N011120000000000000000000000000000000000000000000000000000000000000000100006512547870MARIA DO CARMO FAGUNDES DOS REIS        RUA CARLOS MALCHER - 98 - PARQUE EDU CHA            02232020                                                            000116
2SR. CAIXA, APOS O VENCIMENTO COBRAR 2% DE MULTA                                 NAO RECEBER APOS 30 DIAS DO VENCIMENTO.                                                                                                                                                                                                         01112000000000000000111200000000000000       0090339900006270065125112010000117
100000000000000000000009033990000627000000000000000000000000010002020022728411201300000000002            2  01227284112011112000000002307510000000001N011120000000000000000000000000000000000000000000000000000000000000000100022728497842WILLIAN DE SOUZA MELLO                  RUA JOSE CALIXTO DO CARMO - 286 AP.111 -            11702690                                                            000119
2SR. CAIXA, APOS O VENCIMENTO COBRAR 2% DE MULTA                                 NAO RECEBER APOS 30 DIAS DO VENCIMENTO.                                                                                                                                                                                                         01112000000000000000111200000000000000       0090339900006270227284112013000120
100000000000000000000009033990000627000000000000000000000000010002020016909711201800000000002            2  01169097112011112000000002039120000000001N011120000000000000000000000000000000000000000000000000000000000000000100016909746805EDIVALDO SANTANA DOS SANTOS             ESTRADA JOAO GASPAR DELGADO - 80 AP.213             08536100                                                            000122
2SR. CAIXA, APOS O VENCIMENTO COBRAR 2% DE MULTA                                 NAO RECEBER APOS 30 DIAS DO VENCIMENTO.                                                                                                                                                                                                         01112000000000000000111200000000000000       0090339900006270169097112018000123
100000000000000000000009033990000627000000000000000000000000010002020022036011201500000000002            2  01220360112009112000000003166540000000001N011120000000000000000000000000000000000000000000000000000000000000000100022036003818DERLIS TERAN QUIROGA ROGATO             RUA JOAO RIBEIRO - 709 AP.61 - CAMPESTRE            09070250                                                            000125
2SR. CAIXA, APOS O VENCIMENTO COBRAR 2% DE MULTA                                 NAO RECEBER APOS 30 DIAS DO VENCIMENTO.                                                                                                                                                                                                         01112000000000000000111200000000000000       0090339900006270220360112015000126
100000000000000000000009033990000627000000000000000000000000010002020017229711203P00000000002            2  01172297112009112000000003056000000000001N011120000000000000000000000000000000000000000000000000000000000000000100017229751802BERENICE VIEIRA KERSTING                RUA ATIBAIA - 17 AP.417 - BAIRRO IMPERAD            11707380                                                            000128
2SR. CAIXA, APOS O VENCIMENTO COBRAR 2% DE MULTA                                 NAO RECEBER APOS 30 DIAS DO VENCIMENTO.                                                                                                                                                                                                         01112000000000000000111200000000000000       009033990000627017229711203P000129
100000000000000000000009033990000627000000000000000000000000010002020012475611201900000000002            2  01124756112011112000000002210290000000001N011120000000000000000000000000000000000000000000000000000000000000000100012475663820CELIDALVA GOES DE CARVALHO              RUA JOSE CALIXTO DO CARMO - 286 AP.91 -             11702690                                                            000131
2SR. CAIXA, APOS O VENCIMENTO COBRAR 2% DE MULTA                                 NAO RECEBER APOS 30 DIAS DO VENCIMENTO.                                                                                                                                                                                                         01112000000000000000111200000000000000       0090339900006270124756112019000132
100000000000000000000009033990000627000000000000000000000000010002020033451611201600000000002            2  01334516112011112000000001845730000000001N011120000000000000000000000000000000000000000000000000000000000000000100033451620839ARAO ELISIARIO  NUNES                   RUA JOSE CALIXTO DO CARMO - 286 AP.64 -             11702690                                                            000134
2SR. CAIXA, APOS O VENCIMENTO COBRAR 2% DE MULTA                                 NAO RECEBER APOS 30 DIAS DO VENCIMENTO.                                                                                                                                                                                                         01112000000000000000111200000000000000       0090339900006270334516112016000135
100000000000000000000009033990000627000000000000000000000000010002020095758211201600000000002            2  01957582112011112000000002244660000000001N011120000000000000000000000000000000000000000000000000000000000000000100095758275891SHIRLEY TUNES ASTOLFI                   RUA GUAPERUVU - 656 AP.84 - VILA ARICAND            03504010                                                            000137
2SR. CAIXA, APOS O VENCIMENTO COBRAR 2% DE MULTA                                 NAO RECEBER APOS 30 DIAS DO VENCIMENTO.                                                                                                                                                                                                         01112000000000000000111200000000000000       0090339900006270957582112016000138
100000000000000000000009033990000627000000000000000000000000010002020045839211201300000000002            2  01458392112011112000000001432620000000001N011120000000000000000000000000000000000000000000000000000000000000000100045839263834LEONARDO ANTONIO CONCELLIERI            RUA JOSE CALIXTO DO CARMO - 286 AP.51 -             11702690                                                            000140
2SR. CAIXA, APOS O VENCIMENTO COBRAR 2% DE MULTA                                 NAO RECEBER APOS 30 DIAS DO VENCIMENTO.                                                                                                                                                                                                         01112000000000000000111200000000000000       0090339900006270458392112013000141
100000000000000000000009033990000627000000000000000000000000010002020011369111201400000000002            2  01113691112011112000000002016250000000001N011120000000000000000000000000000000000000000000000000000000000000000100011369165803ELIANA CORREA DE OLIVEIRA               AVENIDA ELIAS MALUF - 2695 CASA 419 - WA            18055215                                                            000143
2SR. CAIXA, APOS O VENCIMENTO COBRAR 2% DE MULTA                                 NAO RECEBER APOS 30 DIAS DO VENCIMENTO.                                                                                                                                                                                                         01112000000000000000111200000000000000       0090339900006270113691112014000144
100000000000000000000009033990000627000000000000000000000000010002020026858611201000000000002            2  01268586112008112000000002684840000000001N011120000000000000000000000000000000000000000000000000000000000000000100026858625879GLAUCE FERREIRA DE OLIVEIRA FALSI       RUA CATULO DA PAIXAO CEARENSE - 190 AP.1            04145010                                                            000146
2SR. CAIXA, APOS O VENCIMENTO COBRAR 2% DE MULTA                                 NAO RECEBER APOS 30 DIAS DO VENCIMENTO.                                                                                                                                                                                                         01112000000000000000111200000000000000       0090339900006270268586112010000147
100000000000000000000009033990000627000000000000000000000000010002020002253811201800000000002            2  01022538112011112000000001792050000000001N011120000000000000000000000000000000000000000000000000000000000000000100002253816809EDMILSON ALVES DA SILVA                 RUA JOSE CALIXTO DO CARMO - 286 AP.93 -             11702690                                                            000149
2SR. CAIXA, APOS O VENCIMENTO COBRAR 2% DE MULTA                                 NAO RECEBER APOS 30 DIAS DO VENCIMENTO.                                                                                                                                                                                                         01112000000000000000111200000000000000       0090339900006270022538112018000150
100000000000000000000009033990000627000000000000000000000000010002020037947011201P00000000002            2  01379470112011112000000003182800000000001N011120000000000000000000000000000000000000000000000000000000000000000100037947070873BRUNO DE CAETANO MARRINHAS              RUA JOAO PELLOZO - 186 - JARDIM MILENA -            09182200                                                            000152
2SR. CAIXA, APOS O VENCIMENTO COBRAR 2% DE MULTA                                 NAO RECEBER APOS 30 DIAS DO VENCIMENTO.                                                                                                                                                                                                         01112000000000000000111200000000000000       009033990000627037947011201P000153
100000000000000000000009033990000627000000000000000000000000010002020037517711201800000000002            2  01375177112009112000000003358620000000001N011120000000000000000000000000000000000000000000000000000000000000000100037517785869RENATO JOSE DE LIMA MELO                RUA ARISTIDES LOBO - 148 AP.41 BLOCO 03             03041100                                                            000155
2SR. CAIXA, APOS O VENCIMENTO COBRAR 2% DE MULTA                                 NAO RECEBER APOS 30 DIAS DO VENCIMENTO.                                                                                                                                                                                                         01112000000000000000111200000000000000       0090339900006270375177112018000156
100000000000000000000009033990000627000000000000000000000000010002020070367911201900000000002            2  01703679112011112000000001682840000000001N011120000000000000000000000000000000000000000000000000000000000000000100070367949849TEODOMIRO ALVES DOS SANTOS              RUA ANDRE PAZ - 13 - JARDIM SANTO ANDRE             08390230                                                            000158
2SR. CAIXA, APOS O VENCIMENTO COBRAR 2% DE MULTA                                 NAO RECEBER APOS 30 DIAS DO VENCIMENTO.                                                                                                                                                                                                         01112000000000000000111200000000000000       0090339900006270703679112019000159
100000000000000000000009033990000627000000000000000000000000010002020016960811201100000000002            2  01169608112008112000000002563570000000001N011120000000000000000000000000000000000000000000000000000000000000000100016960804876LUIZ ALVES DE SOUZA JUNIOR              RUA FRANCISCO ALVES - 394 CASA B - PAECA            11450320                                                            000161
2SR. CAIXA, APOS O VENCIMENTO COBRAR 2% DE MULTA                                 NAO RECEBER APOS 30 DIAS DO VENCIMENTO.                                                                                                                                                                                                         01112000000000000000111200000000000000       0090339900006270169608112011000162
100000000000000000000009033990000627000000000000000000000000010002020004410811201800000000002            2  01044108112009112000000002495470000000001N011120000000000000000000000000000000000000000000000000000000000000000100004410802860LUIZ ALBERTO MARINHO                    RUA DA INDEPENDENCIA - 706 AP.41B - CAMB            01524000                                                            000164
2SR. CAIXA, APOS O VENCIMENTO COBRAR 2% DE MULTA                                 NAO RECEBER APOS 30 DIAS DO VENCIMENTO.                                                                                                                                                                                                         01112000000000000000111200000000000000       0090339900006270044108112018000165
100000000000000000000009033990000627000000000000000000000000010002020008899311201900000000002            2  01088993112008112000000002546900000000001N011120000000000000000000000000000000000000000000000000000000000000000100008899362858ELAINE D ALMEIDA FERDINANDY             ALAMEDA SUBTENENTE AVIADOR FRANCISCO HIE            02187040                                                            000167
2SR. CAIXA, APOS O VENCIMENTO COBRAR 2% DE MULTA                                 NAO RECEBER APOS 30 DIAS DO VENCIMENTO.                                                                                                                                                                                                         01112000000000000000111200000000000000       0090339900006270088993112019000168
100000000000000000000009033990000627000000000000000000000000010002020029425011201300000000002            2  01294250112008112000000002553280000000001N011120000000000000000000000000000000000000000000000000000000000000000100029425027897FABIA DOS SANTOS DE ANDRADE             AVENIDA ALCIDES CANDIDO DOS SANTOS - 248            11705480                                                            000170
2SR. CAIXA, APOS O VENCIMENTO COBRAR 2% DE MULTA                                 NAO RECEBER APOS 30 DIAS DO VENCIMENTO.                                                                                                                                                                                                         01112000000000000000111200000000000000       0090339900006270294250112013000171
100000000000000000000009033990000627000000000000000000000000010002020018035011201500000000002            2  01180350112011112000000002252310000000001N011120000000000000000000000000000000000000000000000000000000000000000100018035075861ROSANGELA BISPO SANTOS                  RUA CASSIANO GABUS MENDES - 292 - JD. CA            09896160                                                            000173
2SR. CAIXA, APOS O VENCIMENTO COBRAR 2% DE MULTA                                 NAO RECEBER APOS 30 DIAS DO VENCIMENTO.                                                                                                                                                                                                         01112000000000000000111200000000000000       0090339900006270180350112015000174
100000000000000000000009033990000627000000000000000000000000010002020078382711201900000000002            2  01783827112008112000000002580230000000001N011120000000000000000000000000000000000000000000000000000000000000000100078382700497JARMELINA BARBOSA DA SILVA              RUA OSCAR CINTRA GORDINHO - 211 AP.51 -             01512010                                                            000176
2SR. CAIXA, APOS O VENCIMENTO COBRAR 2% DE MULTA                                 NAO RECEBER APOS 30 DIAS DO VENCIMENTO.                                                                                                                                                                                                         01112000000000000000111200000000000000       0090339900006270783827112019000177
100000000000000000000009033990000627000000000000000000000000010002020007535311201800000000002            2  01075353112008112000000002530230000000001N011120000000000000000000000000000000000000000000000000000000000000000100007535375839AINAILDE PEREIRA DE CASTRO OLIVETTO     TRAVESSA DORALINA ELIETE ADAO DA SILVA -            08021026                                                            000179
2SR. CAIXA, APOS O VENCIMENTO COBRAR 2% DE MULTA                                 NAO RECEBER APOS 30 DIAS DO VENCIMENTO.                                                                                                                                                                                                         01112000000000000000111200000000000000       0090339900006270075353112018000180
100000000000000000000009033990000627000000000000000000000000010002020028974211201500000000002            2  01289742112008112000000002503280000000001N011120000000000000000000000000000000000000000000000000000000000000000100028974233827MARISTELA FAVANI DE OLIVEIRA            RUA GIUSEPPE CARNEVALLI - 96 - BAIRRO BO            09572100                                                            000182
2SR. CAIXA, APOS O VENCIMENTO COBRAR 2% DE MULTA                                 NAO RECEBER APOS 30 DIAS DO VENCIMENTO.                                                                                                                                                                                                         01112000000000000000111200000000000000       0090339900006270289742112015000183
100000000000000000000009033990000627000000000000000000000000010002020004767611202100000000002            2  01047676112009112000000003331430000000001N011120000000000000000000000000000000000000000000000000000000000000000100004767679893ORLANDO GRANDE FILHO                    RUA ORLANDO MIGLIARI - 101 - JARDIM OURO            19906140                                                            000185
2SR. CAIXA, APOS O VENCIMENTO COBRAR 2% DE MULTA                                 NAO RECEBER APOS 30 DIAS DO VENCIMENTO.                                                                                                                                                                                                         01112000000000000000111200000000000000       0090339900006270047676112021000186
100000000000000000000009033990000627000000000000000000000000010002020092184811201200000000002            2  01921848112008112000000002469950000000001N011120000000000000000000000000000000000000000000000000000000000000000100092184804800CARMEM DO SOCORRO GUILHERME             ESTRADA SAO FRANCISCO - 1.850 AP.182A -             06765000                                                            000188
2SR. CAIXA, APOS O VENCIMENTO COBRAR 2% DE MULTA                                 NAO RECEBER APOS 30 DIAS DO VENCIMENTO.                                                                                                                                                                                                         01112000000000000000111200000000000000       0090339900006270921848112012000189
100000000000000000000009033990000627000000000000000000000000010002020009169711201200000000002            2  01091697112008112000000001980920000000001N011120000000000000000000000000000000000000000000000000000000000000000100009169701830TADEU CONSTANTINO LOPES                 RUA JOSE ANTONIO COELHO - 349 CASA 01 -             04011061                                                            000191
2SR. CAIXA, APOS O VENCIMENTO COBRAR 2% DE MULTA                                 NAO RECEBER APOS 30 DIAS DO VENCIMENTO.                                                                                                                                                                                                         01112000000000000000111200000000000000       0090339900006270091697112012000192
100000000000000000000009033990000627000000000000000000000000010002020064677811201900000000002            2  01646778112009112000000002679870000000001N011120000000000000000000000000000000000000000000000000000000000000000100064677850887ANTONIO CARLOS DE OLIVEIRA              RUA DR.ANTONIO MAZILLI FILHO - 435 - PAR            02230070                                                            000194
2SR. CAIXA, APOS O VENCIMENTO COBRAR 2% DE MULTA                                 NAO RECEBER APOS 30 DIAS DO VENCIMENTO.                                                                                                                                                                                                         01112000000000000000111200000000000000       0090339900006270646778112019000195
100000000000000000000009033990000627000000000000000000000000010002020042480111201000000000002            2  01424801112008112000000002519950000000001N011120000000000000000000000000000000000000000000000000000000000000000100042480155870JAMITRE SOIOMARA ALVES DO NASCIMENTO DAVAVENIDA PRESIDENTE CASTELO BRANCO - 1.80            11700015                                                            000197
2SR. CAIXA, APOS O VENCIMENTO COBRAR 2% DE MULTA                                 NAO RECEBER APOS 30 DIAS DO VENCIMENTO.                                                                                                                                                                                                         01112000000000000000111200000000000000       0090339900006270424801112010000198
100000000000000000000009033990000627000000000000000000000000010002020007328911201400000000002            2  01073289112009112000000003269580000000001N011120000000000000000000000000000000000000000000000000000000000000000100007328927836BENEDITO APARECIDO ROCHA                AVENIDA SENADOR JOSE ERMINIO DE MORAES -            02357002                                                            000200
2SR. CAIXA, APOS O VENCIMENTO COBRAR 2% DE MULTA                                 NAO RECEBER APOS 30 DIAS DO VENCIMENTO.                                                                                                                                                                                                         01112000000000000000111200000000000000       0090339900006270073289112014000201
100000000000000000000009033990000627000000000000000000000000010002020004611211201700000000002            2  01046112112008112000000002466260000000001N011120000000000000000000000000000000000000000000000000000000000000000100004611218830TANIA MARIA DA SILVA NUNES PEREIRA LUIZ RODOVIA RAPOSO TAVARES, 7389 KM 17,5 - A            05576200                                                            000203
2SR. CAIXA, APOS O VENCIMENTO COBRAR 2% DE MULTA                                 NAO RECEBER APOS 30 DIAS DO VENCIMENTO.                                                                                                                                                                                                         01112000000000000000111200000000000000       0090339900006270046112112017000204
100000000000000000000009033990000627000000000000000000000000010002020008966511201600000000002            2  01089665112008112000000002380920000000001N011120000000000000000000000000000000000000000000000000000000000000000100008966511856MONICA SILVA REIS                       RUA ORATORIO - 264 E FUNDOS - BANGU - SA            09280550                                                            000206
2SR. CAIXA, APOS O VENCIMENTO COBRAR 2% DE MULTA                                 NAO RECEBER APOS 30 DIAS DO VENCIMENTO.                                                                                                                                                                                                         01112000000000000000111200000000000000       0090339900006270089665112016000207
9                                                                                                                                                                                                                                                                                                                                                                                                         000208