01REMESSA01COBRANCA       00000000000008017025HB SANTOS CONSTRUTORA E INCORP237BRADESCO       090817        MX0000036                                                                                                                                                                                                                                                                                     000001
100000000000000000000009033990000627000000000000000000000000010002020019260152192900000000002            2  01192601521924081700000001778610000000001N090817000000000000000000000000000000000000000000000000000000000000000100025035170802WANDERSON LUIS DE CARVALHO              RUA JOAQUIM GONCALVES ROCHA - 302 - JARD            02859030                                                            000002
2SR. CAIXA, APOS O VENCIMENTO COBRAR 2% DE MULTA                                 NAO RECEBER APOS 30 DIAS DO VENCIMENTO.                                                                                                                                                                                                         09081700000000000000908170000000000000       0090339900006270192601521929000003
100000000000000000000009033990000627000000000000000000000000010002020019406153193000000000002            2  01194061531924081700000002392290000000001N090817000000000000000000000000000000000000000000000000000000000000000100007294351805CLAUDENIR APARECIDO VACARI              RUA OFELIA CHAVES DE MEIRELLES - 989 CAS            11360210                                                            000005
2SR. CAIXA, APOS O VENCIMENTO COBRAR 2% DE MULTA                                 NAO RECEBER APOS 30 DIAS DO VENCIMENTO.                                                                                                                                                                                                         09081700000000000000908170000000000000       0090339900006270194061531930000006
100000000000000000000009033990000627000000000000000000000000010002020019552154194400000000002            2  01195521541924081700000002417370000000001N090817000000000000000000000000000000000000000000000000000000000000000100042976111634ACACIO TOSCANO BONDANCA                 RUA COMENDADOR JACOMO ANTONIO LA SELVA -            12946797                                                            000008
2SR. CAIXA, APOS O VENCIMENTO COBRAR 2% DE MULTA                                 NAO RECEBER APOS 30 DIAS DO VENCIMENTO.                                                                                                                                                                                                         09081700000000000000908170000000000000       0090339900006270195521541944000009
100000000000000000000009033990000627000000000000000000000000010002020020297158200000000000002            2  01202971582024081700000002041590000000001N090817000000000000000000000000000000000000000000000000000000000000000100035438022836ALESSANDRO FARACO DOS SANTOS            RUA PEDRO POMAR  - 145 - JARDIM ELISA MA            02875020                                                            000011
2SR. CAIXA, APOS O VENCIMENTO COBRAR 2% DE MULTA                                 NAO RECEBER APOS 30 DIAS DO VENCIMENTO.                                                                                                                                                                                                         09081700000000000000908170000000000000       0090339900006270202971582000000012
100000000000000000000009033990000627000000000000000000000000010002020021639167212700000000002            2  01216391672124081700000002675860000000001N090817000000000000000000000000000000000000000000000000000000000000000100007525032866FERNANDO RIBEIRO                        RUA ALDO COLI - 539 - VILA MIRIM - PRAIA            11704760                                                            000014
2SR. CAIXA, APOS O VENCIMENTO COBRAR 2% DE MULTA                                 NAO RECEBER APOS 30 DIAS DO VENCIMENTO.                                                                                                                                                                                                         09081700000000000000908170000000000000       0090339900006270216391672127000015
100000000000000000000009033990000627000000000000000000000000010002020021784168213200000000002            2  01217841682124081700000003075490000000001N090817000000000000000000000000000000000000000000000000000000000000000100031898775800ANITA MARTINS COLOMBO                   RUA GUIAN - 334 AP.51 - VILA CAMPESTRE -            04330090                                                            000017
2SR. CAIXA, APOS O VENCIMENTO COBRAR 2% DE MULTA                                 NAO RECEBER APOS 30 DIAS DO VENCIMENTO.                                                                                                                                                                                                         09081700000000000000908170000000000000       0090339900006270217841682132000018
100000000000000000000009033990000627000000000000000000000000010002020021930169214P00000000002            2  01219301692124081700000002347250000000001N090817000000000000000000000000000000000000000000000000000000000000000100005520147884ERIBALDO SANTANA CARVALHO               RUA HONDURAS - 477 - PARQUE DAS AMERICAS            09351070                                                            000020
2SR. CAIXA, APOS O VENCIMENTO COBRAR 2% DE MULTA                                 NAO RECEBER APOS 30 DIAS DO VENCIMENTO.                                                                                                                                                                                                         09081700000000000000908170000000000000       009033990000627021930169214P000021
100000000000000000000009033990000627000000000000000000000000010002020022580173220200000000002            2  01225801732224081700000002196040000000001N090817000000000000000000000000000000000000000000000000000000000000000100002841756416LUCIANA PINHEIRO DE ASSIS NUNES         RUA RIO ACIMA - 81 - RIACHO GRANDE - SAO            09830100                                                            000023
2SR. CAIXA, APOS O VENCIMENTO COBRAR 2% DE MULTA                                 NAO RECEBER APOS 30 DIAS DO VENCIMENTO.                                                                                                                                                                                                         09081700000000000000908170000000000000       0090339900006270225801732202000024
100000000000000000000009033990000627000000000000000000000000010002020022728174221000000000002            2  01227281742224081700000002206560000000001N090817000000000000000000000000000000000000000000000000000000000000000100084302097868FAUSTO TADEU VILOR                      RUA ANTONIO TAVARES - 466 - BAIRRO CAMBU            01542010                                                            000026
2SR. CAIXA, APOS O VENCIMENTO COBRAR 2% DE MULTA                                 NAO RECEBER APOS 30 DIAS DO VENCIMENTO.                                                                                                                                                                                                         09081700000000000000908170000000000000       0090339900006270227281742210000027
100000000000000000000009033990000627000000000000000000000000010002020024628185234700000000002            2  01246281852324081700000002094970000000001N090817000000000000000000000000000000000000000000000000000000000000000100018207096802ROBERTO VALENTE TAVARES                 RUA SEBASTIAO GOMES - 218 - JARDIM SANTO            13835000                                                            000029
2SR. CAIXA, APOS O VENCIMENTO COBRAR 2% DE MULTA                                 NAO RECEBER APOS 30 DIAS DO VENCIMENTO.                                                                                                                                                                                                         09081700000000000000908170000000000000       0090339900006270246281852347000030
100000000000000000000009033990000627000000000000000000000000010002020024921176236600000000002            2  01249211762324081700000002167990000000001N090817000000000000000000000000000000000000000000000000000000000000000100028804202882GILBERTO FABIANO CABRAL DE CAMARGO      RUA JOAO AMADO COUTINHO - 444 AP.11 A -             02815000                                                            000032
2SR. CAIXA, APOS O VENCIMENTO COBRAR 2% DE MULTA                                 NAO RECEBER APOS 30 DIAS DO VENCIMENTO.                                                                                                                                                                                                         09081700000000000000908170000000000000       0090339900006270249211762366000033
100000000000000000000009033990000627000000000000000000000000010002020025362187239500000000002            2  01253621872324081700000002116020000000001N090817000000000000000000000000000000000000000000000000000000000000000100000991748808JAILSON BORGES DE ANDRADE               RUA SAO GABRIEL DA CACHOEIRA - 28 - JARD            07240080                                                            000035
2SR. CAIXA, APOS O VENCIMENTO COBRAR 2% DE MULTA                                 NAO RECEBER APOS 30 DIAS DO VENCIMENTO.                                                                                                                                                                                                         09081700000000000000908170000000000000       0090339900006270253621872395000036
100000000000000000000009033990000627000000000000000000000000010002020025508188240200000000002            2  01255081882424081700000002884960000000001N090817000000000000000000000000000000000000000000000000000000000000000100092180299834LUIS ROBERTO DE SA DUARTE               RUA TEBAS - 296 AP.84 BLOCO 2 CE - JARDI            04634031                                                            000038
2SR. CAIXA, APOS O VENCIMENTO COBRAR 2% DE MULTA                                 NAO RECEBER APOS 30 DIAS DO VENCIMENTO.                                                                                                                                                                                                         09081700000000000000908170000000000000       0090339900006270255081882402000039
100000000000000000000009033990000627000000000000000000000000010002020025946191243100000000002            2  01259461912424081700000002103760000000001N090817000000000000000000000000000000000000000000000000000000000000000100022151666816SAMIR LIMA DE ARAUJO                    AVENIDA GUARAPIRANGA - 2616 AP.42 BLOCO1            04902005                                                            000041
2SR. CAIXA, APOS O VENCIMENTO COBRAR 2% DE MULTA                                 NAO RECEBER APOS 30 DIAS DO VENCIMENTO.                                                                                                                                                                                                         09081700000000000000908170000000000000       0090339900006270259461912431000042
100000000000000000000009033990000627000000000000000000000000010002020026093186244200000000002            2  01260931862426081700000001671410000000001N090817000000000000000000000000000000000000000000000000000000000000000100022313116824ROSA MARIA BRITO DA SILVA               RUA SERVIDAO DE SAO MARCOS - 113 - JARDI            04930300                                                            000044
2SR. CAIXA, APOS O VENCIMENTO COBRAR 2% DE MULTA                                 NAO RECEBER APOS 30 DIAS DO VENCIMENTO.                                                                                                                                                                                                         09081700000000000000908170000000000000       0090339900006270260931862442000045
100000000000000000000009033990000627000000000000000000000000010002020026243184245600000000002            2  01262431842426081700000001677230000000001N090817000000000000000000000000000000000000000000000000000000000000000100027538087249MARA LUCIA MENEZES DA COSTA             RUA LEILA  - 183 - ITAQUERA - SAO PAULO             08240020                                                            000047
2SR. CAIXA, APOS O VENCIMENTO COBRAR 2% DE MULTA                                 NAO RECEBER APOS 30 DIAS DO VENCIMENTO.                                                                                                                                                                                                         09081700000000000000908170000000000000       0090339900006270262431842456000048
100000000000000000000009033990000627000000000000000000000000010002020026390179246500000000002            2  01263901792426081700000001775580000000001N090817000000000000000000000000000000000000000000000000000000000000000100020105503827VALTER DE SOUSA LIBARINO FILHO          RUA DAS PAINEIRAS - 140 - LARANJEIRAS -             07700000                                                            000050
2SR. CAIXA, APOS O VENCIMENTO COBRAR 2% DE MULTA                                 NAO RECEBER APOS 30 DIAS DO VENCIMENTO.                                                                                                                                                                                                         09081700000000000000908170000000000000       0090339900006270263901792465000051
100000000000000000000009033990000627000000000000000000000000010002020026533192247800000000002            2  01265331922424081700000002032300000000001N090817000000000000000000000000000000000000000000000000000000000000000100031278411836JEFFERSON DE PIERI PIRES ZAMUNER        RUA MANOEL ARCE - 277 - PARQUE BANCARIO             03922150                                                            000053
2SR. CAIXA, APOS O VENCIMENTO COBRAR 2% DE MULTA                                 NAO RECEBER APOS 30 DIAS DO VENCIMENTO.                                                                                                                                                                                                         09081700000000000000908170000000000000       0090339900006270265331922478000054
100000000000000000000009033990000627000000000000000000000000010002020026962194251600000000002            2  01269621942526081700000001526330000000001N090817000000000000000000000000000000000000000000000000000000000000000100019185769800AGUINALDO PESSOA DE LIMA                RUA JANUARIO ZINGARO - 252 AP.303 BL.04             05794300                                                            000056
2SR. CAIXA, APOS O VENCIMENTO COBRAR 2% DE MULTA                                 NAO RECEBER APOS 30 DIAS DO VENCIMENTO.                                                                                                                                                                                                         09081700000000000000908170000000000000       0090339900006270269621942516000057
100000000000000000000009033990000627000000000000000000000000010002020027258196253600000000002            2  01272581962526081700000001028480000000001N090817000000000000000000000000000000000000000000000000000000000000000100033303645809JESSICA DA SILVA FREITAS                RUA ARILDO VALADAO - 120 - JARDIM GUAEMB            04814600                                                            000059
2SR. CAIXA, APOS O VENCIMENTO COBRAR 2% DE MULTA                                 NAO RECEBER APOS 30 DIAS DO VENCIMENTO.                                                                                                                                                                                                         09081700000000000000908170000000000000       0090339900006270272581962536000060
100000000000000000000009033990000627000000000000000000000000010002020027404197254300000000002            2  01274041972526081700000001656990000000001N090817000000000000000000000000000000000000000000000000000000000000000100004824443806ROSIMEIRE CLARA FERREIRA REZENDE        RUA JOAQUIM DE OLIVEIRA FREITAS - 912 AP            05133000                                                            000062
2SR. CAIXA, APOS O VENCIMENTO COBRAR 2% DE MULTA                                 NAO RECEBER APOS 30 DIAS DO VENCIMENTO.                                                                                                                                                                                                         09081700000000000000908170000000000000       0090339900006270274041972543000063
100000000000000000000009033990000627000000000000000000000000010002020027550198255700000000002            2  01275501982524081700000002201020000000001N090817000000000000000000000000000000000000000000000000000000000000000100006422607881GERALDO ALVES DA SILVA                  RUA ALFREDO JOREL - 195 AP.5 CONDOMINIO             04195020                                                            000065
2SR. CAIXA, APOS O VENCIMENTO COBRAR 2% DE MULTA                                 NAO RECEBER APOS 30 DIAS DO VENCIMENTO.                                                                                                                                                                                                         09081700000000000000908170000000000000       0090339900006270275501982557000066
100000000000000000000009033990000627000000000000000000000000010002020027696199256500000000002            2  01276961992526081700000001541290000000001N090817000000000000000000000000000000000000000000000000000000000000000100033877129870HELDER FERREIRA VIANA                   RUA LEOPOLDO MOTTA E SILVA - 93 AP.34 -             11320340                                                            000068
2SR. CAIXA, APOS O VENCIMENTO COBRAR 2% DE MULTA                                 NAO RECEBER APOS 30 DIAS DO VENCIMENTO.                                                                                                                                                                                                         09081700000000000000908170000000000000       0090339900006270276961992565000069
100000000000000000000009033990000627000000000000000000000000010002020027988201258900000000002            2  01279882012526081700000001420480000000001N090817000000000000000000000000000000000000000000000000000000000000000100028290719809VANESSA GIANGARRELLI PEREIRA            RUA BARINEL - 72 - JARDIM COTCHING - SAO            03462130                                                            000071
2SR. CAIXA, APOS O VENCIMENTO COBRAR 2% DE MULTA                                 NAO RECEBER APOS 30 DIAS DO VENCIMENTO.                                                                                                                                                                                                         09081700000000000000908170000000000000       0090339900006270279882012589000072
100000000000000000000009033990000627000000000000000000000000010002020028576205262500000000002            2  01285762052626081700000001551180000000001N090817000000000000000000000000000000000000000000000000000000000000000100087573059604VANDERLEY DE ASSIS                      RUA ROMEU ALBANI - 268 - JARDIM PARQUE R            13803810                                                            000074
2SR. CAIXA, APOS O VENCIMENTO COBRAR 2% DE MULTA                                 NAO RECEBER APOS 30 DIAS DO VENCIMENTO.                                                                                                                                                                                                         09081700000000000000908170000000000000       0090339900006270285762052625000075
100000000000000000000009033990000627000000000000000000000000010002020028722206263200000000002            2  01287222062611081700000001643510000000001N010817000000000000000000000000000000000000000000000000000000000000000100040266261809EDUARDO CESAR PESTANA                   AVENIDA BRIGADEIRO TOBIAS - 200 AP.106 C            11700410                                                            000077
2SR. CAIXA, APOS O VENCIMENTO COBRAR 2% DE MULTA                                 NAO RECEBER APOS 30 DIAS DO VENCIMENTO.                                                                                                                                                                                                         09081700000000000000908170000000000000       0090339900006270287222062632000078
100000000000000000000009033990000627000000000000000000000000010002020028868207264000000000002            2  01288682072626081700000001618730000000001N090817000000000000000000000000000000000000000000000000000000000000000100010825513847JOSE APARECIDO PEREIRA                  RUA GENERAL OSORIO - 305 - JARDIM TRINTA            11515130                                                            000080
2SR. CAIXA, APOS O VENCIMENTO COBRAR 2% DE MULTA                                 NAO RECEBER APOS 30 DIAS DO VENCIMENTO.                                                                                                                                                                                                         09081700000000000000908170000000000000       0090339900006270288682072640000081
100000000000000000000009033990000627000000000000000000000000010002020029013208265100000000002            2  01290132082626081700000002529270000000001N090817000000000000000000000000000000000000000000000000000000000000000100038818572814MAURICIUS ALEXANDRE ESTEVAM NABOR       RUA RAUL SERAPIAO BARROSO - 379 - ESPLAN            11340330                                                            000083
2SR. CAIXA, APOS O VENCIMENTO COBRAR 2% DE MULTA                                 NAO RECEBER APOS 30 DIAS DO VENCIMENTO.                                                                                                                                                                                                         09081700000000000000908170000000000000       0090339900006270290132082651000084
9                                                                                                                                                                                                                                                                                                                                                                                                         000085