01REMESSA01COBRANCA       00000000000005623874H B SANTOS CONSTRUTORA E INCOR237BRADESCO       010624        MX0000016                                                                                                                                                                                                                                                                                     000001
100000000000000000000009033990001086300000000000000000000000010002020011947906241200000000002            2  01119479062413062400000052714390000000001N010624000000000000000000000000000000000000000000000000000000000000000100011947951882DECIO VITORINO DOS SANTOS               RUA GREGORIA DE FREGEL - 380 AP.21 BL24             09811430                                                            000002
2SR. CAIXA, APOS O VENCIMENTO COBRAR 2% DE MULTA                                 NAO RECEBER APOS 30 DIAS DO VENCIMENTO.                                                                                                                                                                                                         01062400000000000000106240000000000000       0090339900010863119479062412000003
100000000000000000000009033990001086300000000000000000000000010002020000181206241600000000002            2  01001812062413062400000015491280000000001N010624000000000000000000000000000000000000000000000000000000000000000100000181223023DARLIN SANTA CATARINA                   RUA S-13 QUADRA 60 LR 08 - 750 - SETOR S            77425090                                                            000005
2SR. CAIXA, APOS O VENCIMENTO COBRAR 2% DE MULTA                                 NAO RECEBER APOS 30 DIAS DO VENCIMENTO.                                                                                                                                                                                                         01062400000000000000106240000000000000       0090339900010863001812062416000006
100000000000000000000009033990001086300000000000000000000000010002020034311706241100000000002            2  01343117062413062400000093816050000000001N010624000000000000000000000000000000000000000000000000000000000000000100034311774842RAFAEL MARCOS SOUSA                     RUA AGUA BRANCA - 270 - JARDIM RUY BARBO            13219120                                                            000008
2SR. CAIXA, APOS O VENCIMENTO COBRAR 2% DE MULTA                                 NAO RECEBER APOS 30 DIAS DO VENCIMENTO.                                                                                                                                                                                                         01062400000000000000106240000000000000       0090339900010863343117062411000009
100000000000000000000009033990001086300000000000000000000000010002020035839606241500000000002            2  01358396062413062400000093377140000000001N010624000000000000000000000000000000000000000000000000000000000000000100035839657875JUNIOR SILVA TEODORO DOS SANTOS         RUA ARMANDO DE SALLES OLIVEIRA - 123 AP.            11510020                                                            000011
2SR. CAIXA, APOS O VENCIMENTO COBRAR 2% DE MULTA                                 NAO RECEBER APOS 30 DIAS DO VENCIMENTO.                                                                                                                                                                                                         01062400000000000000106240000000000000       0090339900010863358396062415000012
100000000000000000000009033990001086300000000000000000000000010002020012644906241400000000002            2  01126449062413062400000092895960000000001N010624000000000000000000000000000000000000000000000000000000000000000100012644907802SIMONE SERRANO SILVA PRADO              RUA TAIUVINHA - 597 - BAIRRO JARDIM JACU            08060040                                                            000014
2SR. CAIXA, APOS O VENCIMENTO COBRAR 2% DE MULTA                                 NAO RECEBER APOS 30 DIAS DO VENCIMENTO.                                                                                                                                                                                                         01062400000000000000106240000000000000       0090339900010863126449062414000015
100000000000000000000009033990001086300000000000000000000000010002020018433906241900000000002            2  01184339062413062400000090933420000000001N010624000000000000000000000000000000000000000000000000000000000000000100018433908847TELMA CRISTIANY DE CAMPOS               AVENIDA MARECHAL MAURICIO JOSE CARDOSO -            11700140                                                            000017
2SR. CAIXA, APOS O VENCIMENTO COBRAR 2% DE MULTA                                 NAO RECEBER APOS 30 DIAS DO VENCIMENTO.                                                                                                                                                                                                         01062400000000000000106240000000000000       0090339900010863184339062419000018
100000000000000000000009033990001086300000000000000000000000010002020033870206241500000000002            2  01338702062413062400000090476970000000001N010624000000000000000000000000000000000000000000000000000000000000000100033870205890NATHALIA GOMES PAZ                      ALAMEDA INHAMBU - 214 RESIDENCIAL 10 - B            06540100                                                            000020
2SR. CAIXA, APOS O VENCIMENTO COBRAR 2% DE MULTA                                 NAO RECEBER APOS 30 DIAS DO VENCIMENTO.                                                                                                                                                                                                         01062400000000000000106240000000000000       0090339900010863338702062415000021
100000000000000000000009033990001086300000000000000000000000010002020001803106241000000000002            2  01018031062413062400000082985910000000001N010624000000000000000000000000000000000000000000000000000000000000000100001803106824MAGNA FLORA CALIS                       RUA DOS EXPEDICIONARIOS - 59 AP.13 - CAN            11700750                                                            000023
2SR. CAIXA, APOS O VENCIMENTO COBRAR 2% DE MULTA                                 NAO RECEBER APOS 30 DIAS DO VENCIMENTO.                                                                                                                                                                                                         01062400000000000000106240000000000000       0090339900010863018031062410000024
100000000000000000000009033990001086300000000000000000000000010002020055874006241000000000002            2  01558740062413062400000090044590000000001N010624000000000000000000000000000000000000000000000000000000000000000100055874045104MANUEL MARTINS AFONSO JUNIOR            AVENIDA AFONSO PENA - 463 - BAIRRO ESTUA            11020003                                                            000026
2SR. CAIXA, APOS O VENCIMENTO COBRAR 2% DE MULTA                                 NAO RECEBER APOS 30 DIAS DO VENCIMENTO.                                                                                                                                                                                                         01062400000000000000106240000000000000       0090339900010863558740062410000027
100000000000000000000009033990001086300000000000000000000000010002020026327306241P00000000002            2  01263273062413062400000089121500000000001N010624000000000000000000000000000000000000000000000000000000000000000100026327304818GEANICE BARBOSA DA SILVA                RUA FLAMENGO - 77 - VILA GUILHERMINA - P            11701540                                                            000029
2SR. CAIXA, APOS O VENCIMENTO COBRAR 2% DE MULTA                                 NAO RECEBER APOS 30 DIAS DO VENCIMENTO.                                                                                                                                                                                                         01062400000000000000106240000000000000       009033990001086326327306241P000030
100000000000000000000009033990001086300000000000000000000000010002020008732206241P00000000002            2  01087322062413062400000080618700000000001N010624000000000000000000000000000000000000000000000000000000000000000100008732244851JOSENILTON SOUSA DE OLIVEIRA            RUA GENERAL ISIDORO DIAS LOPES - 456 - B            08561410                                                            000032
2SR. CAIXA, APOS O VENCIMENTO COBRAR 2% DE MULTA                                 NAO RECEBER APOS 30 DIAS DO VENCIMENTO.                                                                                                                                                                                                         01062400000000000000106240000000000000       009033990001086308732206241P000033
100000000000000000000009033990001086300000000000000000000000010002020029067906241800000000002            2  01290679062413062400000094973520000000001N010624000000000000000000000000000000000000000000000000000000000000000100029067948802SANTIAGO VALDOMIRO CORDEIRO             RUA MANOEL QUIRINODE MATTOS - 1.537 CS02            03969000                                                            000035
2SR. CAIXA, APOS O VENCIMENTO COBRAR 2% DE MULTA                                 NAO RECEBER APOS 30 DIAS DO VENCIMENTO.                                                                                                                                                                                                         01062400000000000000106240000000000000       0090339900010863290679062418000036
100000000000000000000009033990001086300000000000000000000000010002020041475706241200000000002            2  01414757062413062400000091315030000000001N010624000000000000000000000000000000000000000000000000000000000000000100041475767889GUSTAVO HENRIQUE SIMIONI FRANCO MENDONCARUA JACOB EMERICK - 42 AP.308 - BAIRRO G            11310070                                                            000038
2SR. CAIXA, APOS O VENCIMENTO COBRAR 2% DE MULTA                                 NAO RECEBER APOS 30 DIAS DO VENCIMENTO.                                                                                                                                                                                                         01062400000000000000106240000000000000       0090339900010863414757062412000039
100000000000000000000009033990001086300000000000000000000000010002020032353406241500000000002            2  01323534062413062400000102242980000000001N010624000000000000000000000000000000000000000000000000000000000000000100032353404839JULIANA BATISTA BENTO                   RUA MONTE PLANO - 387 CASA 5 - VILA MARG            11335020                                                            000041
2SR. CAIXA, APOS O VENCIMENTO COBRAR 2% DE MULTA                                 NAO RECEBER APOS 30 DIAS DO VENCIMENTO.                                                                                                                                                                                                         01062400000000000000106240000000000000       0090339900010863323534062415000042
100000000000000000000009033990001086300000000000000000000000010002020031015906241600000000002            2  01310159062413062400000091222730000000001N010624000000000000000000000000000000000000000000000000000000000000000100031015918808PATRICK COSTA FAGILDE                   AVENIDA PRESIDENTE CASTELO BRANCO - 4.52            11702705                                                            000044
2SR. CAIXA, APOS O VENCIMENTO COBRAR 2% DE MULTA                                 NAO RECEBER APOS 30 DIAS DO VENCIMENTO.                                                                                                                                                                                                         01062400000000000000106240000000000000       0090339900010863310159062416000045
100000000000000000000009033990001086300000000000000000000000010002020017372406241P00000000002            2  01173724062413062400000102287230000000001N010624000000000000000000000000000000000000000000000000000000000000000100017372408822EDUARDO PEREIRA DA SILVA                AVENIDA PARIS - 587 - BOQUEIRAO - PRAIA             11700080                                                            000047
2SR. CAIXA, APOS O VENCIMENTO COBRAR 2% DE MULTA                                 NAO RECEBER APOS 30 DIAS DO VENCIMENTO.                                                                                                                                                                                                         01062400000000000000106240000000000000       009033990001086317372406241P000048
100000000000000000000009033990001086300000000000000000000000010002020003979206241100000000002            2  01039792062413062400000088456500000000001N010624000000000000000000000000000000000000000000000000000000000000000100003979280845JORGE LUIZ PARRA MORENO                 AVENIDA ALZIRA DE JESUS DA SILVA - 230 -            15061719                                                            000050
2SR. CAIXA, APOS O VENCIMENTO COBRAR 2% DE MULTA                                 NAO RECEBER APOS 30 DIAS DO VENCIMENTO.                                                                                                                                                                                                         01062400000000000000106240000000000000       0090339900010863039792062411000051
100000000000000000000009033990001086300000000000000000000000010002020026980306241400000000002            2  01269803062413062400000101225760000000001N010624000000000000000000000000000000000000000000000000000000000000000100026980385860DENISE CAMPOS MORALES GABRIEL           RUA QUINCIO PEIRAO - 27 AP.13 - PONTA DA            11030040                                                            000053
2SR. CAIXA, APOS O VENCIMENTO COBRAR 2% DE MULTA                                 NAO RECEBER APOS 30 DIAS DO VENCIMENTO.                                                                                                                                                                                                         01062400000000000000106240000000000000       0090339900010863269803062414000054
100000000000000000000009033990001086300000000000000000000000010002020024614306241600000000002            2  01246143062413062400000098716690000000001N010624000000000000000000000000000000000000000000000000000000000000000100024614361854JOSE SANTANA JUNIOR                     RUA RUI BARBOSA - 358 AP.83 - CANTO DO F            11700170                                                            000056
2SR. CAIXA, APOS O VENCIMENTO COBRAR 2% DE MULTA                                 NAO RECEBER APOS 30 DIAS DO VENCIMENTO.                                                                                                                                                                                                         01062400000000000000106240000000000000       0090339900010863246143062416000057
100000000000000000000009033990001086300000000000000000000000010002020025388006241500000000002            2  01253880062413062400000092994910000000001N010624000000000000000000000000000000000000000000000000000000000000000100025388047873DANIEL DA SILVA FERNANDES               AVENIDA PRESIDENTE CASTELO BRANCO - 4772            11702705                                                            000059
2SR. CAIXA, APOS O VENCIMENTO COBRAR 2% DE MULTA                                 NAO RECEBER APOS 30 DIAS DO VENCIMENTO.                                                                                                                                                                                                         01062400000000000000106240000000000000       0090339900010863253880062415000060
100000000000000000000009033990001086300000000000000000000000010002020045564906241200000000002            2  01455649062413062400000092157840000000001N010624000000000000000000000000000000000000000000000000000000000000000100045564998871THOMAS NICOLAS PETRICELLI               RUA BRIGADEIRO FARIA LIMA - 173 AP.42 -             11700630                                                            000062
2SR. CAIXA, APOS O VENCIMENTO COBRAR 2% DE MULTA                                 NAO RECEBER APOS 30 DIAS DO VENCIMENTO.                                                                                                                                                                                                         01062400000000000000106240000000000000       0090339900010863455649062412000063
100000000000000000000009033990001086300000000000000000000000010002020038699006241000000000002            2  01386990062413062400000036210240000000001N010624000000000000000000000000000000000000000000000000000000000000000100038699045859ALAN DE LIMA                            ALAMEDA TTE JOSE BERNARDINO - 1335 - JAR            08671020                                                            000065
2SR. CAIXA, APOS O VENCIMENTO COBRAR 2% DE MULTA                                 NAO RECEBER APOS 30 DIAS DO VENCIMENTO.                                                                                                                                                                                                         01062400000000000000106240000000000000       0090339900010863386990062410000066
100000000000000000000009033990001086300000000000000000000000010002020015344906241100000000002            2  01153449062413062400000019000000000000001N010624000000000000000000000000000000000000000000000000000000000000000100015344993854MAURICIO MENDES RODRIGUES               RUA SAO PAULO - 2.297 AP.86 - BAIRRO SAN            09541100                                                            000068
2SR. CAIXA, APOS O VENCIMENTO COBRAR 2% DE MULTA                                 NAO RECEBER APOS 30 DIAS DO VENCIMENTO.                                                                                                                                                                                                         01062400000000000000106240000000000000       0090339900010863153449062411000069
100000000000000000000009033990001086300000000000000000000000010002020001365606241700000000002            2  01013656062413062400000020112480000000001N010624000000000000000000000000000000000000000000000000000000000000000100001365670880IVANILDO PROTAZIO DA SILVA              RUA SAO CELSO - 71 AP.44A - VILA DOMITIL            03626000                                                            000071
2SR. CAIXA, APOS O VENCIMENTO COBRAR 2% DE MULTA                                 NAO RECEBER APOS 30 DIAS DO VENCIMENTO.                                                                                                                                                                                                         01062400000000000000106240000000000000       0090339900010863013656062417000072
9                                                                                                                                                                                                                                                                                                                                                                                                         000073