01REMESSA01COBRANCA       00000000000005316116AIRES CONSTRUTORA E INCORPORAD237BRADESCO       050922        MX0000202                                                                                                                                                                                                                                                                                     000001
100000000000000000000009002800441612000000000000000000000000010002100001204409221300000000002            2  01012044092225092200000003515940000000001N020922000000000000000000000000000000000000000000000000000000000000000100001204431809CEZAR TALAVERA JUNIOR                   RUA MAESTRO ARTURO DE ANGELIS  - 190 AP.            05139010                                                            000002
2SR. CAIXA, APOS O VENCIMENTO COBRAR 10% DE MULTA                                NAO RECEBER APOS 30 DIAS DO VENCIMENTO.                                                                                                                                                                                                         05092200000000000000509220000000000000       0090028004416120012044092213000003
100000000000000000000009002800441612000000000000000000000000010002100001024709221600000000002            2  01010247092225092200000003974720000000001N020922000000000000000000000000000000000000000000000000000000000000000100001024794881CLAUDIO RODRIGUES                       RUA ARACATUBA - 242 - LAPA - SAO PAULO -            05058010                                                            000005
2SR. CAIXA, APOS O VENCIMENTO COBRAR 10% DE MULTA                                NAO RECEBER APOS 30 DIAS DO VENCIMENTO.                                                                                                                                                                                                         05092200000000000000509220000000000000       0090028004416120010247092216000006
100000000000000000000009002800441612000000000000000000000000010002100002225009221700000000002            2  01022250092225092200000006093770000000001N020922000000000000000000000000000000000000000000000000000000000000000100002225072841PEDRO EDUARDO DE AZEVEDO                RUA NATH ZILMAN - 46 - JARDIM SAMAMBAIA             07623085                                                            000008
2SR. CAIXA, APOS O VENCIMENTO COBRAR 10% DE MULTA                                NAO RECEBER APOS 30 DIAS DO VENCIMENTO.                                                                                                                                                                                                         05092200000000000000509220000000000000       0090028004416120022250092217000009
100000000000000000000009002800441612000000000000000000000000010002100027198409221700000000002            2  01271984092225092200000002924690000000001N020922000000000000000000000000000000000000000000000000000000000000000100027198452809CRISTIANE AURELIANO DA SILVA MAIA       RUA MONTE CASTELO - 262 AP.25 - AVIACAO             11702720                                                            000011
2SR. CAIXA, APOS O VENCIMENTO COBRAR 10% DE MULTA                                NAO RECEBER APOS 30 DIAS DO VENCIMENTO.                                                                                                                                                                                                         05092200000000000000509220000000000000       0090028004416120271984092217000012
100000000000000000000009002800441612000000000000000000000000010002100021246209221000000000002            2  01212462092225092200000003569340000000001N020922000000000000000000000000000000000000000000000000000000000000000100021246231840ALEXANDRO DA CUNHA MIGUES               RUA DULCE - 71  - VILA CARRAO - SAO PAUL            03427040                                                            000014
2SR. CAIXA, APOS O VENCIMENTO COBRAR 10% DE MULTA                                NAO RECEBER APOS 30 DIAS DO VENCIMENTO.                                                                                                                                                                                                         05092200000000000000509220000000000000       0090028004416120212462092210000015
100000000000000000000009002800441612000000000000000000000000010002100018470509221000000000002            2  01184705092225092200000005251010000000001N020922000000000000000000000000000000000000000000000000000000000000000100018470520881SILVANA ALVES DE OLIVEIRA               RUA MONTE CASTELO - 262 AP.91 - AVIACAO             11702720                                                            000017
2SR. CAIXA, APOS O VENCIMENTO COBRAR 10% DE MULTA                                NAO RECEBER APOS 30 DIAS DO VENCIMENTO.                                                                                                                                                                                                         05092200000000000000509220000000000000       0090028004416120184705092210000018
100000000000000000000009002800441612000000000000000000000000010002100009297509221000000000002            2  01092975092225092200000003655680000000001N020922000000000000000000000000000000000000000000000000000000000000000100009297523846MARCOS ROBERTO DE CASTRO FERREIRA       RUA MONTE CASTELO - 262 AP.105 - AVIACAO            11702720                                                            000020
2SR. CAIXA, APOS O VENCIMENTO COBRAR 10% DE MULTA                                NAO RECEBER APOS 30 DIAS DO VENCIMENTO.                                                                                                                                                                                                         05092200000000000000509220000000000000       0090028004416120092975092210000021
100000000000000000000009002800441612000000000000000000000000010002100001164109221P00000000002            2  01011641092225092200000004530230000000001N020922000000000000000000000000000000000000000000000000000000000000000100001164158864DAVID BLEY LACERDA                      RUA CONEGO ARAUJO MARCONDES - 188 - BAIR            02550080                                                            000023
2SR. CAIXA, APOS O VENCIMENTO COBRAR 10% DE MULTA                                NAO RECEBER APOS 30 DIAS DO VENCIMENTO.                                                                                                                                                                                                         05092200000000000000509220000000000000       009002800441612001164109221P000024
100000000000000000000009002800441612000000000000000000000000010002100031498009221300000000002            2  01314980092225092200000005505850000000001N020922000000000000000000000000000000000000000000000000000000000000000100031498008895POLIANE  SIBELE DA SILVA                PRACA GENERAL COSTA BARRETO - 56 AP.181             03325070                                                            000026
2SR. CAIXA, APOS O VENCIMENTO COBRAR 10% DE MULTA                                NAO RECEBER APOS 30 DIAS DO VENCIMENTO.                                                                                                                                                                                                         05092200000000000000509220000000000000       0090028004416120314980092213000027
100000000000000000000009002800441612000000000000000000000000010002100014386809221P00000000002            2  01143868092225092200000002583300000000001N020922000000000000000000000000000000000000000000000000000000000000000100014386860134SEVERINO CARLOS DE OLIVEIRA             RUA MONTE CASTELO - 262 AP.54 - AVIACAO             11702720                                                            000029
2SR. CAIXA, APOS O VENCIMENTO COBRAR 10% DE MULTA                                NAO RECEBER APOS 30 DIAS DO VENCIMENTO.                                                                                                                                                                                                         05092200000000000000509220000000000000       009002800441612014386809221P000030
100000000000000000000009002800441612000000000000000000000000010002100039393709221500000000002            2  01393937092225092200000001780470000000001N020922000000000000000000000000000000000000000000000000000000000000000100039393790850NAIRON RICARDO DE ARAUJO SANTOS         RUA NITEROI - 267 CASA 04 - JARDIM INDEP            11380350                                                            000032
2SR. CAIXA, APOS O VENCIMENTO COBRAR 10% DE MULTA                                NAO RECEBER APOS 30 DIAS DO VENCIMENTO.                                                                                                                                                                                                         05092200000000000000509220000000000000       0090028004416120393937092215000033
100000000000000000000009002800441612000000000000000000000000010002100019288709221300000000002            2  01192887092225092200000002397790000000001N020922000000000000000000000000000000000000000000000000000000000000000100019288787844EMERSON LUIZ MARTINEZ PEREIRA           RUA MONTE CASTELO - 296 AP.74 - AVIACAO             11702720                                                            000035
2SR. CAIXA, APOS O VENCIMENTO COBRAR 10% DE MULTA                                NAO RECEBER APOS 30 DIAS DO VENCIMENTO.                                                                                                                                                                                                         05092200000000000000509220000000000000       0090028004416120192887092213000036
9                                                                                                                                                                                                                                                                                                                                                                                                         000037