01REMESSA01COBRANCA       00000000000005623874H B SANTOS CONSTRUTORA E INCOR237BRADESCO       090124        MX0000007                                                                                                                                                                                                                                                                                     000001
100000000000000000000009033990001086300000000000000000000000010002100012644901241700000000002            2  01126449012425012400000003211420000000001N090124000000000000000000000000000000000000000000000000000000000000000100012644907802SIMONE SERRANO SILVA PRADO              RUA TAIUVINHA - 597 - BAIRRO JARDIM JACU            08060040                                                            000002
2SR. CAIXA, APOS O VENCIMENTO COBRAR 10% DE MULTA                                NAO RECEBER APOS 30 DIAS DO VENCIMENTO.                                                                                                                                                                                                         09012400000000000000901240000000000000       0090339900010863126449012417000003
100000000000000000000009033990001086300000000000000000000000010002100033870201241800000000002            2  01338702012425012400000003127820000000001N090124000000000000000000000000000000000000000000000000000000000000000100033870205890NATHALIA GOMES PAZ                      ALAMEDA INHAMBU - 214 RESIDENCIAL 10 - B            06540100                                                            000005
2SR. CAIXA, APOS O VENCIMENTO COBRAR 10% DE MULTA                                NAO RECEBER APOS 30 DIAS DO VENCIMENTO.                                                                                                                                                                                                         09012400000000000000901240000000000000       0090339900010863338702012418000006
100000000000000000000009033990001086300000000000000000000000010002100055874001241300000000002            2  01558740012425012400000003112830000000001N090124000000000000000000000000000000000000000000000000000000000000000100055874045104MANUEL MARTINS AFONSO JUNIOR            AVENIDA AFONSO PENA - 463 - BAIRRO ESTUA            11020003                                                            000008
2SR. CAIXA, APOS O VENCIMENTO COBRAR 10% DE MULTA                                NAO RECEBER APOS 30 DIAS DO VENCIMENTO.                                                                                                                                                                                                         09012400000000000000901240000000000000       0090339900010863558740012413000009
100000000000000000000009033990001086300000000000000000000000010002100029067901241000000000002            2  01290679012425012400000002775340000000001N090124000000000000000000000000000000000000000000000000000000000000000100029067948802SANTIAGO VALDOMIRO CORDEIRO             RUA MANOEL QUIRINODE MATTOS - 1.537 CS02            03969000                                                            000011
2SR. CAIXA, APOS O VENCIMENTO COBRAR 10% DE MULTA                                NAO RECEBER APOS 30 DIAS DO VENCIMENTO.                                                                                                                                                                                                         09012400000000000000901240000000000000       0090339900010863290679012410000012
100000000000000000000009033990001086300000000000000000000000010002100041475701241500000000002            2  01414757012425012400000002913740000000001N090124000000000000000000000000000000000000000000000000000000000000000100041475767889GUSTAVO HENRIQUE SIMIONI FRANCO MENDONCARUA JACOB EMERICK - 42 AP.308 - BAIRRO G            11310070                                                            000014
2SR. CAIXA, APOS O VENCIMENTO COBRAR 10% DE MULTA                                NAO RECEBER APOS 30 DIAS DO VENCIMENTO.                                                                                                                                                                                                         09012400000000000000901240000000000000       0090339900010863414757012415000015
9                                                                                                                                                                                                                                                                                                                                                                                                         000016