01REMESSA01COBRANCA       00000000000005316116AIRES CONSTRUTORA E INCORPORAD237BRADESCO       010521        MX0000169                                                                                                                                                                                                                                                                                     000001
100000000000000000000009002800441612000000000000000000000000010002100019282505211800000000002            2  01192825052110052100000002667700000000001N010521000000000000000000000000000000000000000000000000000000000000000100019282546837FABIO LEANDRO DE FREITAS ASSIS          RUA BASSIM NAGIB TRABULSI - 97 - PONTA D            11030540                                                            000002
2SR. CAIXA, APOS O VENCIMENTO COBRAR 10% DE MULTA                                NAO RECEBER APOS 30 DIAS DO VENCIMENTO.                                                                                                                                                                                                         01052100000000000000105210000000000000       0090028004416120192825052118000003
100000000000000000000009002800441612000000000000000000000000010002100003865705211600000000002            2  01038657052110052100000003574560000000001N010521000000000000000000000000000000000000000000000000000000000000000100003865776841FRANCISCO JOSE ROCCO                    AVENIDA PADRES OLIVETANOS - 215 AP.83 -             03648000                                                            000005
2SR. CAIXA, APOS O VENCIMENTO COBRAR 10% DE MULTA                                NAO RECEBER APOS 30 DIAS DO VENCIMENTO.                                                                                                                                                                                                         01052100000000000000105210000000000000       0090028004416120038657052116000006
100000000000000000000009002800441612000000000000000000000000010002100028309505211200000000002            2  01283095052110052100000003187670000000001N010521000000000000000000000000000000000000000000000000000000000000000100028309524803DEISE RIBEIRO BARBOSA                   RUA CANDIDO JOSE DE ANDRADE - 173 - ERME            03807030                                                            000008
2SR. CAIXA, APOS O VENCIMENTO COBRAR 10% DE MULTA                                NAO RECEBER APOS 30 DIAS DO VENCIMENTO.                                                                                                                                                                                                         01052100000000000000105210000000000000       0090028004416120283095052112000009
100000000000000000000009002800441612000000000000000000000000010002100011277905211200000000002            2  01112779052110052100000003783430000000001N010521000000000000000000000000000000000000000000000000000000000000000100011277908893JOSE AILTON LOPES DE AZEVEDO            RUA MAESTRO JOAO SEPE - 19 - JARDIM MARI            04181030                                                            000011
2SR. CAIXA, APOS O VENCIMENTO COBRAR 10% DE MULTA                                NAO RECEBER APOS 30 DIAS DO VENCIMENTO.                                                                                                                                                                                                         01052100000000000000105210000000000000       0090028004416120112779052112000012
100000000000000000000009002800441612000000000000000000000000010002100025215105211P00000000002            2  01252151052110052100000007143860000000001N010521000000000000000000000000000000000000000000000000000000000000000100025215106886KLEBER LUIZ DOS SANTOS                  RUA MONTE CASTELO - 262 AP.15 - AVIACAO             11702720                                                            000014
2SR. CAIXA, APOS O VENCIMENTO COBRAR 10% DE MULTA                                NAO RECEBER APOS 30 DIAS DO VENCIMENTO.                                                                                                                                                                                                         01052100000000000000105210000000000000       009002800441612025215105211P000015
100000000000000000000009002800441612000000000000000000000000010002100090206705211700000000002            2  01902067052110052100000003186880000000001N010521000000000000000000000000000000000000000000000000000000000000000100090206789815NEREIDE RODRIGUES FERREIRA              AVENIDA PADRE ESTANISLAU DE CAMPOS - 205            03590060                                                            000017
2SR. CAIXA, APOS O VENCIMENTO COBRAR 10% DE MULTA                                NAO RECEBER APOS 30 DIAS DO VENCIMENTO.                                                                                                                                                                                                         01052100000000000000105210000000000000       0090028004416120902067052117000018
100000000000000000000009002800441612000000000000000000000000010002100029150705211500000000002            2  01291507052110052100000003730280000000001N010521000000000000000000000000000000000000000000000000000000000000000100029150742833ANA DEISE SANTOS DE ALMEIDA             RUA MONTE CASTELO - 296 AP.121 - AVIACAO            11702720                                                            000020
2SR. CAIXA, APOS O VENCIMENTO COBRAR 10% DE MULTA                                NAO RECEBER APOS 30 DIAS DO VENCIMENTO.                                                                                                                                                                                                         01052100000000000000105210000000000000       0090028004416120291507052115000021
100000000000000000000009002800441612000000000000000000000000010002100000811705211000000000002            2  01008117052110052100000003072570000000001N010521000000000000000000000000000000000000000000000000000000000000000100000811752801SERGIO BUENO DA SILVA                   RUA MONTE CASTELO - 262 AP.75 - AVIACAO             11702720                                                            000023
2SR. CAIXA, APOS O VENCIMENTO COBRAR 10% DE MULTA                                NAO RECEBER APOS 30 DIAS DO VENCIMENTO.                                                                                                                                                                                                         01052100000000000000105210000000000000       0090028004416120008117052110000024
100000000000000000000009002800441612000000000000000000000000010002100018344805211700000000002            2  01183448052110052100000004177940000000001N010521000000000000000000000000000000000000000000000000000000000000000100018344803888MARCELO BERNARDO                        RUA MONTE CASTELO - 262 AP.84 - AVIACAO             11702720                                                            000026
2SR. CAIXA, APOS O VENCIMENTO COBRAR 10% DE MULTA                                NAO RECEBER APOS 30 DIAS DO VENCIMENTO.                                                                                                                                                                                                         01052100000000000000105210000000000000       0090028004416120183448052117000027
100000000000000000000009002800441612000000000000000000000000010002100004004305211400000000002            2  01040043052110052100000005475950000000001N010521000000000000000000000000000000000000000000000000000000000000000100004004328896VANDERLEI  MARTINS DE ALMEIDA           RUA MONSENHOR TABOSA - 03 - PARQUE CISPE            03819300                                                            000029
2SR. CAIXA, APOS O VENCIMENTO COBRAR 10% DE MULTA                                NAO RECEBER APOS 30 DIAS DO VENCIMENTO.                                                                                                                                                                                                         01052100000000000000105210000000000000       0090028004416120040043052114000030
100000000000000000000009002800441612000000000000000000000000010002100031803805211200000000002            2  01318038052110052100000003373890000000001N010521000000000000000000000000000000000000000000000000000000000000000100031803864877ELEILSON FELIPPE SANTOS                 RUA SANTA GREGORIA - 193 - CIDADE DUTRA             04806030                                                            000032
2SR. CAIXA, APOS O VENCIMENTO COBRAR 10% DE MULTA                                NAO RECEBER APOS 30 DIAS DO VENCIMENTO.                                                                                                                                                                                                         01052100000000000000105210000000000000       0090028004416120318038052112000033
100000000000000000000009002800441612000000000000000000000000010002100063064505211700000000002            2  01630645052110052100000004020590000000001N010521000000000000000000000000000000000000000000000000000000000000000100063064537849ANTONIO APARECIDO DA SILVA DESTEFANO    RUA PROFESSOR TEODORO BRAGA - 46 - VILA             02966020                                                            000035
2SR. CAIXA, APOS O VENCIMENTO COBRAR 10% DE MULTA                                NAO RECEBER APOS 30 DIAS DO VENCIMENTO.                                                                                                                                                                                                         01052100000000000000105210000000000000       0090028004416120630645052117000036
100000000000000000000009002800441612000000000000000000000000010002100010107705211200000000002            2  01101077052110052100000003852950000000001N010521000000000000000000000000000000000000000000000000000000000000000100010107711834VALDEMAR FECCHIO                        RUA DOUTOR MARTINS DE OLIVEIRA - 529 AP.            05638030                                                            000038
2SR. CAIXA, APOS O VENCIMENTO COBRAR 10% DE MULTA                                NAO RECEBER APOS 30 DIAS DO VENCIMENTO.                                                                                                                                                                                                         01052100000000000000105210000000000000       0090028004416120101077052112000039
100000000000000000000009002800441612000000000000000000000000010002100005920505211600000000002            2  01059205052110052100000002340820000000001N010521000000000000000000000000000000000000000000000000000000000000000100005920579846SONIA MARIA VALDO POLLO                 RUA PALMIRA CERVI BARBARO - 797 - CIDADE            13214370                                                            000041
2SR. CAIXA, APOS O VENCIMENTO COBRAR 10% DE MULTA                                NAO RECEBER APOS 30 DIAS DO VENCIMENTO.                                                                                                                                                                                                         01052100000000000000105210000000000000       0090028004416120059205052116000042
100000000000000000000009002800441612000000000000000000000000010002100002494105211700000000002            2  01024941052110052100000003519520000000001N010521000000000000000000000000000000000000000000000000000000000000000100002494107881CIRO FRANCISCO MARCHI DURIGON           RUA MONTE CASTELO - 262 AP.115 - AVIACAO            11702720                                                            000044
2SR. CAIXA, APOS O VENCIMENTO COBRAR 10% DE MULTA                                NAO RECEBER APOS 30 DIAS DO VENCIMENTO.                                                                                                                                                                                                         01052100000000000000105210000000000000       0090028004416120024941052117000045
100000000000000000000009002800441612000000000000000000000000010002100007002305211400000000002            2  01070023052110052100000003459850000000001N010521000000000000000000000000000000000000000000000000000000000000000100007002345869DOMINGOS DE BRITO GALVAO                RUA MONTE CASTELO - 262 AP.44 - AVIACAO             11702720                                                            000047
2SR. CAIXA, APOS O VENCIMENTO COBRAR 10% DE MULTA                                NAO RECEBER APOS 30 DIAS DO VENCIMENTO.                                                                                                                                                                                                         01052100000000000000105210000000000000       0090028004416120070023052114000048
100000000000000000000009002800441612000000000000000000000000010002100016299005211800000000002            2  01162990052110052100000003335300000000001N010521000000000000000000000000000000000000000000000000000000000000000100016299008857FERNANDO CESAR CARVALHO                 AVENIDA MARCONDES DE BRITO - 1340 AP.74             03509000                                                            000050
2SR. CAIXA, APOS O VENCIMENTO COBRAR 10% DE MULTA                                NAO RECEBER APOS 30 DIAS DO VENCIMENTO.                                                                                                                                                                                                         01052100000000000000105210000000000000       0090028004416120162990052118000051
100000000000000000000009002800441612000000000000000000000000010002100065895305211100000000002            2  01658953052110052100000002040540000000001N010521000000000000000000000000000000000000000000000000000000000000000100065895304834MARINHO BARBOSA CUNHA                   AVENIDA EDU CHAVES - 639 AP.43 - PARQUE             02229000                                                            000053
2SR. CAIXA, APOS O VENCIMENTO COBRAR 10% DE MULTA                                NAO RECEBER APOS 30 DIAS DO VENCIMENTO.                                                                                                                                                                                                         01052100000000000000105210000000000000       0090028004416120658953052111000054
100000000000000000000009002800441612000000000000000000000000010002100055975305211900000000002            2  01559753052110052100000000761640000000001N010521000000000000000000000000000000000000000000000000000000000000000100055975372887BENEVENUTO THEODORO DA SILVA NETO       RUA MONTE CASTELO - 296 AP.63 - AVIACAO             11702720                                                            000056
2SR. CAIXA, APOS O VENCIMENTO COBRAR 10% DE MULTA                                NAO RECEBER APOS 30 DIAS DO VENCIMENTO.                                                                                                                                                                                                         01052100000000000000105210000000000000       0090028004416120559753052119000057
9                                                                                                                                                                                                                                                                                                                                                                                                         000058