01REMESSA01COBRANCA       00000000000008017025HB SANTOS CONSTRUTORA E INCORP237BRADESCO       090323        MX0000173                                                                                                                                                                                                                                                                                     000001
100000000000000000000009033990000627000000000000000000000000010002020025035103231500000000002            2  01250351032324032300000002946550000000001N070323000000000000000000000000000000000000000000000000000000000000000100025035170802WANDERSON LUIS DE CARVALHO              RUA JOAQUIM GONCALVES ROCHA - 302 - JARD            02859030                                                            000002
2SR. CAIXA, APOS O VENCIMENTO COBRAR 2% DE MULTA                                 NAO RECEBER APOS 30 DIAS DO VENCIMENTO.                                                                                                                                                                                                         09032300000000000000903230000000000000       0090339900006270250351032315000003
100000000000000000000009033990000627000000000000000000000000010002020007294303231200000000002            2  01072943032324032300000003963100000000001N070323000000000000000000000000000000000000000000000000000000000000000100007294351805CLAUDENIR APARECIDO VACARI              RUA CARLOS JOSE BORSTENS - 50 AP.93 - AV            11702750                                                            000005
2SR. CAIXA, APOS O VENCIMENTO COBRAR 2% DE MULTA                                 NAO RECEBER APOS 30 DIAS DO VENCIMENTO.                                                                                                                                                                                                         09032300000000000000903230000000000000       0090339900006270072943032312000006
100000000000000000000009033990000627000000000000000000000000010002020005071403231300000000002            2  01050714032324032300000003888530000000001N070323000000000000000000000000000000000000000000000000000000000000000100005071481855ERIBALDO SANTANA CARVALHO               RUA HONDURAS - 477 - PARQUE DAS AMERICAS            09351070                                                            000008
2SR. CAIXA, APOS O VENCIMENTO COBRAR 2% DE MULTA                                 NAO RECEBER APOS 30 DIAS DO VENCIMENTO.                                                                                                                                                                                                         09032300000000000000903230000000000000       0090339900006270050714032313000009
100000000000000000000009033990000627000000000000000000000000010002020002841703231700000000002            2  01028417032324032300000003638060000000001N070323000000000000000000000000000000000000000000000000000000000000000100002841756416LUCIANA PINHEIRO DE ASSIS NUNES         RUA RIO ACIMA - 81 - RIACHO GRANDE - SAO            09830100                                                            000011
2SR. CAIXA, APOS O VENCIMENTO COBRAR 2% DE MULTA                                 NAO RECEBER APOS 30 DIAS DO VENCIMENTO.                                                                                                                                                                                                         09032300000000000000903230000000000000       0090339900006270028417032317000012
100000000000000000000009033990000627000000000000000000000000010002020084302003231600000000002            2  01843020032324032300000003655530000000001N070323000000000000000000000000000000000000000000000000000000000000000100084302097868FAUSTO TADEU VILOR                      RUA ANTONIO TAVARES - 466 - BAIRRO CAMBU            01542010                                                            000014
2SR. CAIXA, APOS O VENCIMENTO COBRAR 2% DE MULTA                                 NAO RECEBER APOS 30 DIAS DO VENCIMENTO.                                                                                                                                                                                                         09032300000000000000903230000000000000       0090339900006270843020032316000015
100000000000000000000009033990000627000000000000000000000000010002020028804203231600000000002            2  01288042032324032300000003591590000000001N070323000000000000000000000000000000000000000000000000000000000000000100028804202882GILBERTO FABIANO CABRAL DE CAMARGO      RUA CARLOS JOSE BORSTENS - 50 AP.44 - AV            11702750                                                            000017
2SR. CAIXA, APOS O VENCIMENTO COBRAR 2% DE MULTA                                 NAO RECEBER APOS 30 DIAS DO VENCIMENTO.                                                                                                                                                                                                         09032300000000000000903230000000000000       0090339900006270288042032316000018
100000000000000000000009033990000627000000000000000000000000010002020000991703231900000000002            2  01009917032324032300000003505540000000001N070323000000000000000000000000000000000000000000000000000000000000000100000991748808JAILSON BORGES DE ANDRADE               RUA IPIOBUNA - 45 - JARDIM CUMBICA - GUA            07240040                                                            000020
2SR. CAIXA, APOS O VENCIMENTO COBRAR 2% DE MULTA                                 NAO RECEBER APOS 30 DIAS DO VENCIMENTO.                                                                                                                                                                                                         09032300000000000000903230000000000000       0090339900006270009917032319000021
100000000000000000000009033990000627000000000000000000000000010002020022151603231500000000002            2  01221516032324032300000003485180000000001N070323000000000000000000000000000000000000000000000000000000000000000100022151666816SAMIR LIMA DE ARAUJO                    AVENIDA GUARAPIRANGA - 2616 AP.131 BL.14            04902005                                                            000023
2SR. CAIXA, APOS O VENCIMENTO COBRAR 2% DE MULTA                                 NAO RECEBER APOS 30 DIAS DO VENCIMENTO.                                                                                                                                                                                                         09032300000000000000903230000000000000       0090339900006270221516032315000024
100000000000000000000009033990000627000000000000000000000000010002020022313103231700000000002            2  01223131032326032300000002681100000000001N070323000000000000000000000000000000000000000000000000000000000000000100022313116824ROSA MARIA BRITO DA SILVA               RUA SERVIDAO DE SAO MARCOS - 128 CASA 1             04930300                                                            000026
2SR. CAIXA, APOS O VENCIMENTO COBRAR 2% DE MULTA                                 NAO RECEBER APOS 30 DIAS DO VENCIMENTO.                                                                                                                                                                                                         09032300000000000000903230000000000000       0090339900006270223131032317000027
100000000000000000000009033990000627000000000000000000000000010002020027538003231900000000002            2  01275380032326032300000002690440000000001N070323000000000000000000000000000000000000000000000000000000000000000100027538087249MARA LUCIA MENEZES DA COSTA             RUA LEILA  - 183 - ITAQUERA - SAO PAULO             08240020                                                            000029
2SR. CAIXA, APOS O VENCIMENTO COBRAR 2% DE MULTA                                 NAO RECEBER APOS 30 DIAS DO VENCIMENTO.                                                                                                                                                                                                         09032300000000000000903230000000000000       0090339900006270275380032319000030
100000000000000000000009033990000627000000000000000000000000010002020031278403231500000000002            2  01312784032324032300000003366780000000001N070323000000000000000000000000000000000000000000000000000000000000000100031278411836JEFFERSON DE PIERI PIRES ZAMUNER        RUA MANOEL ARCE - 277 - PARQUE BANCARIO             03922150                                                            000032
2SR. CAIXA, APOS O VENCIMENTO COBRAR 2% DE MULTA                                 NAO RECEBER APOS 30 DIAS DO VENCIMENTO.                                                                                                                                                                                                         09032300000000000000903230000000000000       0090339900006270312784032315000033
100000000000000000000009033990000627000000000000000000000000010002020019185703231700000000002            2  01191857032326032300000002448370000000001N070323000000000000000000000000000000000000000000000000000000000000000100019185769800AGUINALDO PESSOA DE LIMA                RUA JANUARIO ZINGARO - 252 AP.303 BL.04             05794300                                                            000035
2SR. CAIXA, APOS O VENCIMENTO COBRAR 2% DE MULTA                                 NAO RECEBER APOS 30 DIAS DO VENCIMENTO.                                                                                                                                                                                                         09032300000000000000903230000000000000       0090339900006270191857032317000036
100000000000000000000009033990000627000000000000000000000000010002020033303603231800000000002            2  01333036032326032300000002637100000000001N070323000000000000000000000000000000000000000000000000000000000000000100033303645809JESSICA DA SILVA FREITAS                RUA ARILDO VALADAO - 120 - JARDIM GUAEMB            04814600                                                            000038
2SR. CAIXA, APOS O VENCIMENTO COBRAR 2% DE MULTA                                 NAO RECEBER APOS 30 DIAS DO VENCIMENTO.                                                                                                                                                                                                         09032300000000000000903230000000000000       0090339900006270333036032318000039
100000000000000000000009033990000627000000000000000000000000010002020006422603231300000000002            2  01064226032324032300000003646320000000001N070323000000000000000000000000000000000000000000000000000000000000000100006422607881GERALDO ALVES DA SILVA                  RUA CARLOS JOSE BORSTENS - 50 AP.14 - AV            11702750                                                            000041
2SR. CAIXA, APOS O VENCIMENTO COBRAR 2% DE MULTA                                 NAO RECEBER APOS 30 DIAS DO VENCIMENTO.                                                                                                                                                                                                         09032300000000000000903230000000000000       0090339900006270064226032313000042
100000000000000000000009033990000627000000000000000000000000010002020033877103231500000000002            2  01338771032326032300000002472350000000001N070323000000000000000000000000000000000000000000000000000000000000000100033877129870HELDER FERREIRA VIANA                   RUA JOSE CALIXTO DO CARMO - 286 AP.35 -             11702690                                                            000044
2SR. CAIXA, APOS O VENCIMENTO COBRAR 2% DE MULTA                                 NAO RECEBER APOS 30 DIAS DO VENCIMENTO.                                                                                                                                                                                                         09032300000000000000903230000000000000       0090339900006270338771032315000045
100000000000000000000009033990000627000000000000000000000000010002020087573003231400000000002            2  01875730032326032300000002488210000000001N070323000000000000000000000000000000000000000000000000000000000000000100087573059604VANDERLEY DE ASSIS                      RUA ROMEU ALBANI - 268 - JARDIM PARQUE R            13803810                                                            000047
2SR. CAIXA, APOS O VENCIMENTO COBRAR 2% DE MULTA                                 NAO RECEBER APOS 30 DIAS DO VENCIMENTO.                                                                                                                                                                                                         09032300000000000000903230000000000000       0090339900006270875730032314000048
100000000000000000000009033990000627000000000000000000000000010002020010825503231100000000002            2  01108255032326032300000002596580000000001N070323000000000000000000000000000000000000000000000000000000000000000100010825513847JOSE APARECIDO PEREIRA                  RUA GENERAL OSORIO - 305 - JARDIM TRINTA            11515130                                                            000050
2SR. CAIXA, APOS O VENCIMENTO COBRAR 2% DE MULTA                                 NAO RECEBER APOS 30 DIAS DO VENCIMENTO.                                                                                                                                                                                                         09032300000000000000903230000000000000       0090339900006270108255032311000051
100000000000000000000009033990000627000000000000000000000000010002020039115103231300000000002            2  01391151032326032300000003200740000000001N070323000000000000000000000000000000000000000000000000000000000000000100039115139840LAIS CRISTINA RIBEIRO ANDO              RUA JOSE CALIXTO DO CARMO - 286 AP.65 -             11702690                                                            000053
2SR. CAIXA, APOS O VENCIMENTO COBRAR 2% DE MULTA                                 NAO RECEBER APOS 30 DIAS DO VENCIMENTO.                                                                                                                                                                                                         09032300000000000000903230000000000000       0090339900006270391151032313000054
100000000000000000000009033990000627000000000000000000000000010002020029617503231100000000002            2  01296175032324032300000003578950000000001N070323000000000000000000000000000000000000000000000000000000000000000100029617510553MARILENE SOUZA DE OLIVEIRA              RUA DAS MONCOES - 460 AP.95 - BAIRRO JAR            09090521                                                            000056
2SR. CAIXA, APOS O VENCIMENTO COBRAR 2% DE MULTA                                 NAO RECEBER APOS 30 DIAS DO VENCIMENTO.                                                                                                                                                                                                         09032300000000000000903230000000000000       0090339900006270296175032311000057
100000000000000000000009033990000627000000000000000000000000010002020000593203231100000000002            2  01005932032324032300000003925250000000001N070323000000000000000000000000000000000000000000000000000000000000000100000593293860WALTER HELIO BARBOSA FILHO              AVENIDA ANTONIO FREDERICO OZANAN - 9500             13214206                                                            000059
2SR. CAIXA, APOS O VENCIMENTO COBRAR 2% DE MULTA                                 NAO RECEBER APOS 30 DIAS DO VENCIMENTO.                                                                                                                                                                                                         09032300000000000000903230000000000000       0090339900006270005932032311000060
100000000000000000000009033990000627000000000000000000000000010002020065584103231300000000002            2  01655841032324032300000002060550000000001N070323000000000000000000000000000000000000000000000000000000000000000100065584147834JOAQUIM DA COSTA MACHADO NETO           RUA CARLOS JOSE BORSTENS - 50 AP.42 - AV            11702750                                                            000062
2SR. CAIXA, APOS O VENCIMENTO COBRAR 2% DE MULTA                                 NAO RECEBER APOS 30 DIAS DO VENCIMENTO.                                                                                                                                                                                                         09032300000000000000903230000000000000       0090339900006270655841032313000063
100000000000000000000009033990000627000000000000000000000000010002020006684603231600000000002            2  01066846032326032300000002636800000000001N070323000000000000000000000000000000000000000000000000000000000000000100006684623884LAUDINOR VIEIRA GARCIA                  RUA CANDIDO SALES - 374 - JARDIM PRESIDE            07172000                                                            000065
2SR. CAIXA, APOS O VENCIMENTO COBRAR 2% DE MULTA                                 NAO RECEBER APOS 30 DIAS DO VENCIMENTO.                                                                                                                                                                                                         09032300000000000000903230000000000000       0090339900006270066846032316000066
100000000000000000000009033990000627000000000000000000000000010002020011663503231700000000002            2  01116635032326032300000002655760000000001N070323000000000000000000000000000000000000000000000000000000000000000100011663589844MARIA SAVIO QUARELLO                    AVENIDA MENDONCA DRUMOND - 321 - JARDIM             03524030                                                            000068
2SR. CAIXA, APOS O VENCIMENTO COBRAR 2% DE MULTA                                 NAO RECEBER APOS 30 DIAS DO VENCIMENTO.                                                                                                                                                                                                         09032300000000000000903230000000000000       0090339900006270116635032317000069
100000000000000000000009033990000627000000000000000000000000010002020010083803231900000000002            2  01100838032326032300000002565900000000001N070323000000000000000000000000000000000000000000000000000000000000000100010083824855IONE FERREIRA COUTO DA SILVA            RUA JOSE RAGEL DE MESQUITA - 60 CS.01 -             07799999                                                            000071
2SR. CAIXA, APOS O VENCIMENTO COBRAR 2% DE MULTA                                 NAO RECEBER APOS 30 DIAS DO VENCIMENTO.                                                                                                                                                                                                         09032300000000000000903230000000000000       0090339900006270100838032319000072
100000000000000000000009033990000627000000000000000000000000010002020031010703231400000000002            2  01310107032326032300000002517970000000001N070323000000000000000000000000000000000000000000000000000000000000000100031010705890ANDRE GONZALEZ RABELLO                  RUA PARAIBA - 106 AP.61 - POMPEIA - SANT            11065470                                                            000074
2SR. CAIXA, APOS O VENCIMENTO COBRAR 2% DE MULTA                                 NAO RECEBER APOS 30 DIAS DO VENCIMENTO.                                                                                                                                                                                                         09032300000000000000903230000000000000       0090339900006270310107032314000075
100000000000000000000009033990000627000000000000000000000000010002020005351003231300000000002            2  01053510032326032300000002360850000000001N070323000000000000000000000000000000000000000000000000000000000000000100005351015897VALERIA ALVES MARCOLINO HINNIGER        RUA JOSE CALIXTO DO CARMO - 286 AP.92 -             11702690                                                            000077
2SR. CAIXA, APOS O VENCIMENTO COBRAR 2% DE MULTA                                 NAO RECEBER APOS 30 DIAS DO VENCIMENTO.                                                                                                                                                                                                         09032300000000000000903230000000000000       0090339900006270053510032313000078
100000000000000000000009033990000627000000000000000000000000010002020031898703231900000000002            2  01318987032324032300000003755830000000001N070323000000000000000000000000000000000000000000000000000000000000000100031898775800ANITA MARTINS COLOMBO                   RUA CARLOS JOSE BORSTENS - 50 AP.115 - A            11702750                                                            000080
2SR. CAIXA, APOS O VENCIMENTO COBRAR 2% DE MULTA                                 NAO RECEBER APOS 30 DIAS DO VENCIMENTO.                                                                                                                                                                                                         09032300000000000000903230000000000000       0090339900006270318987032319000081
100000000000000000000009033990000627000000000000000000000000010002020037983403231900000000002            2  01379834032326032300000002773270000000001N070323000000000000000000000000000000000000000000000000000000000000000100037983484801JOSE ERIVALDO SOUZA DO NASCIMENTO RAMOS RUA LETICIA - 250 - JARDIM GUARUJA - SAO            05877260                                                            000083
2SR. CAIXA, APOS O VENCIMENTO COBRAR 2% DE MULTA                                 NAO RECEBER APOS 30 DIAS DO VENCIMENTO.                                                                                                                                                                                                         09032300000000000000903230000000000000       0090339900006270379834032319000084
100000000000000000000009033990000627000000000000000000000000010002020056289203231P00000000002            2  01562892032326032300000002095040000000001N070323000000000000000000000000000000000000000000000000000000000000000100056289286900PEDRO RIBEIRO                           RUA CONEGO MANOEL VAZ - 48 - SANTANA - S            02019050                                                            000086
2SR. CAIXA, APOS O VENCIMENTO COBRAR 2% DE MULTA                                 NAO RECEBER APOS 30 DIAS DO VENCIMENTO.                                                                                                                                                                                                         09032300000000000000903230000000000000       009033990000627056289203231P000087
100000000000000000000009033990000627000000000000000000000000010002020034812203231P00000000002            2  01348122032324032300000004971020000000001N070323000000000000000000000000000000000000000000000000000000000000000100034812226880THAIS TORQUATO MIMOSO DE JESUS          RUA ARNALDO CINTRA - 416 AP.104 TORRE 2             03088000                                                            000089
2SR. CAIXA, APOS O VENCIMENTO COBRAR 2% DE MULTA                                 NAO RECEBER APOS 30 DIAS DO VENCIMENTO.                                                                                                                                                                                                         09032300000000000000903230000000000000       009033990000627034812203231P000090
100000000000000000000009033990000627000000000000000000000000010002020012849403231600000000002            2  01128494032326032300000004953430000000001N070323000000000000000000000000000000000000000000000000000000000000000100012849428809MOISES CLAUDIO DO ROSARIO               AVENIDA DR. AUGUSTO DE TOLEDO - 510 AP.1            09541520                                                            000092
2SR. CAIXA, APOS O VENCIMENTO COBRAR 2% DE MULTA                                 NAO RECEBER APOS 30 DIAS DO VENCIMENTO.                                                                                                                                                                                                         09032300000000000000903230000000000000       0090339900006270128494032316000093
100000000000000000000009033990000627000000000000000000000000010002020003658603231000000000002            2  01036586032326032300000002046360000000001N070323000000000000000000000000000000000000000000000000000000000000000100003658668814MARINEZ VALENTIN                        RUA JOSE CALIXTO DO CARMO - 286 AP.95 -             11702690                                                            000095
2SR. CAIXA, APOS O VENCIMENTO COBRAR 2% DE MULTA                                 NAO RECEBER APOS 30 DIAS DO VENCIMENTO.                                                                                                                                                                                                         09032300000000000000903230000000000000       0090339900006270036586032310000096
100000000000000000000009033990000627000000000000000000000000010002020003658603232900000000002            2  01036586032326032300000002046350000000001N070323000000000000000000000000000000000000000000000000000000000000000100003658668814MARINEZ VALENTIN                        RUA JOSE CALIXTO DO CARMO - 286 AP.95 -             11702690                                                            000098
2SR. CAIXA, APOS O VENCIMENTO COBRAR 2% DE MULTA                                 NAO RECEBER APOS 30 DIAS DO VENCIMENTO.                                                                                                                                                                                                         09032300000000000000903230000000000000       0090339900006270036586032329000099
100000000000000000000009033990000627000000000000000000000000010002020014087403231900000000002            2  01140874032326032300000002734790000000001N070323000000000000000000000000000000000000000000000000000000000000000100014087484874SERGIO SANTOS DO NASCIMENTO             RUA JOSE CALIXTO DO CARMO - 286 AP.52 -             11702690                                                            000101
2SR. CAIXA, APOS O VENCIMENTO COBRAR 2% DE MULTA                                 NAO RECEBER APOS 30 DIAS DO VENCIMENTO.                                                                                                                                                                                                         09032300000000000000903230000000000000       0090339900006270140874032319000102
100000000000000000000009033990000627000000000000000000000000010002020026834503231800000000002            2  01268345032326032300000002519790000000001N070323000000000000000000000000000000000000000000000000000000000000000100026834550895RAQUEL CARDOSO JOAO                     RUA PEDROSO XAVIER - 277 AP.23 TORRE 01             02732020                                                            000104
2SR. CAIXA, APOS O VENCIMENTO COBRAR 2% DE MULTA                                 NAO RECEBER APOS 30 DIAS DO VENCIMENTO.                                                                                                                                                                                                         09032300000000000000903230000000000000       0090339900006270268345032318000105
100000000000000000000009033990000627000000000000000000000000010002020039540003231600000000002            2  01395400032326032300000002477300000000001N070323000000000000000000000000000000000000000000000000000000000000000100039540008816LUZINETE CLARINDO SILVA                 RUA DEINOS - 275 - BAIRRO CIDADE SATELIT            08340100                                                            000107
2SR. CAIXA, APOS O VENCIMENTO COBRAR 2% DE MULTA                                 NAO RECEBER APOS 30 DIAS DO VENCIMENTO.                                                                                                                                                                                                         09032300000000000000903230000000000000       0090339900006270395400032316000108
100000000000000000000009033990000627000000000000000000000000010002020003311003231300000000002            2  01033110032326032300000002579810000000001N070323000000000000000000000000000000000000000000000000000000000000000100003311030877SEBASTIAO SARUVA NETO                   RUA HAMILTON REGIS - 559 - BAIRRO DO LIM            08051440                                                            000110
2SR. CAIXA, APOS O VENCIMENTO COBRAR 2% DE MULTA                                 NAO RECEBER APOS 30 DIAS DO VENCIMENTO.                                                                                                                                                                                                         09032300000000000000903230000000000000       0090339900006270033110032313000111
100000000000000000000009033990000627000000000000000000000000010002020090091903231P00000000002            2  01900919032326032300000002465920000000001N070323000000000000000000000000000000000000000000000000000000000000000100090091990882JUECIR CARVALHO DA LUZ                  RUA JOSE CALIXTO DO CARMO - 286 AP.114 -            11702690                                                            000113
2SR. CAIXA, APOS O VENCIMENTO COBRAR 2% DE MULTA                                 NAO RECEBER APOS 30 DIAS DO VENCIMENTO.                                                                                                                                                                                                         09032300000000000000903230000000000000       009033990000627090091903231P000114
100000000000000000000009033990000627000000000000000000000000010002020037325903231100000000002            2  01373259032326032300000002018000000000001N070323000000000000000000000000000000000000000000000000000000000000000100037325923830MARIA AUGUSTA OLIVEIRA DE ANDRADE       RUA JOSE CALIXTO DO CARMO - 286 AP.124 -            11702690                                                            000116
2SR. CAIXA, APOS O VENCIMENTO COBRAR 2% DE MULTA                                 NAO RECEBER APOS 30 DIAS DO VENCIMENTO.                                                                                                                                                                                                         09032300000000000000903230000000000000       0090339900006270373259032311000117
100000000000000000000009033990000627000000000000000000000000010002020012478803231900000000002            2  01124788032324032300000003673670000000001N070323000000000000000000000000000000000000000000000000000000000000000100012478899809VITORIA BATISTA QUEIROZ                 RUA CARVALHO DE FREITAS - 255 AP.71A - V            05728030                                                            000119
2SR. CAIXA, APOS O VENCIMENTO COBRAR 2% DE MULTA                                 NAO RECEBER APOS 30 DIAS DO VENCIMENTO.                                                                                                                                                                                                         09032300000000000000903230000000000000       0090339900006270124788032319000120
100000000000000000000009033990000627000000000000000000000000010002020013184803231P00000000002            2  01131848032326032300000002437880000000001N070323000000000000000000000000000000000000000000000000000000000000000100013184856810SYDNEY HENRIQUE GAMARANO JUNIOR         RUA JOSE CALIXTO DO CARMO - 286 AP.125 -            11702690                                                            000122
2SR. CAIXA, APOS O VENCIMENTO COBRAR 2% DE MULTA                                 NAO RECEBER APOS 30 DIAS DO VENCIMENTO.                                                                                                                                                                                                         09032300000000000000903230000000000000       009033990000627013184803231P000123
100000000000000000000009033990000627000000000000000000000000010002020097989903231300000000002            2  01979899032326032300000001694180000000001N070323000000000000000000000000000000000000000000000000000000000000000100097989924820NELSON LUIS BERRIBILLE                  RUA SILVEIRA IGNACIO SOBRINHO - 965 - VI            13560294                                                            000125
2SR. CAIXA, APOS O VENCIMENTO COBRAR 2% DE MULTA                                 NAO RECEBER APOS 30 DIAS DO VENCIMENTO.                                                                                                                                                                                                         09032300000000000000903230000000000000       0090339900006270979899032313000126
100000000000000000000009033990000627000000000000000000000000010002020097989903232100000000002            2  01979899032326032300000001694170000000001N070323000000000000000000000000000000000000000000000000000000000000000100097989924820NELSON LUIS BERRIBILLE                  RUA SILVEIRA IGNACIO SOBRINHO - 965 - VI            13560294                                                            000128
2SR. CAIXA, APOS O VENCIMENTO COBRAR 2% DE MULTA                                 NAO RECEBER APOS 30 DIAS DO VENCIMENTO.                                                                                                                                                                                                         09032300000000000000903230000000000000       0090339900006270979899032321000129
100000000000000000000009033990000627000000000000000000000000010002020032341803231200000000002            2  01323418032324032300000003815910000000001N070323000000000000000000000000000000000000000000000000000000000000000100032341847803PRISCILA ALVES DE FRANCA MIRANDA        RUA CARLOS JOSE BORSTENS - 50 AP.91 - AV            11702750                                                            000131
2SR. CAIXA, APOS O VENCIMENTO COBRAR 2% DE MULTA                                 NAO RECEBER APOS 30 DIAS DO VENCIMENTO.                                                                                                                                                                                                         09032300000000000000903230000000000000       0090339900006270323418032312000132
100000000000000000000009033990000627000000000000000000000000010002020016050603231800000000002            2  01160506032324032300000003541900000000001N070323000000000000000000000000000000000000000000000000000000000000000100016050684898ANDRE RODRIGUES DE OLIVEIRA             RUA CORACAO PAULISTA - 14 - FAZENDA ITAI            08132430                                                            000134
2SR. CAIXA, APOS O VENCIMENTO COBRAR 2% DE MULTA                                 NAO RECEBER APOS 30 DIAS DO VENCIMENTO.                                                                                                                                                                                                         09032300000000000000903230000000000000       0090339900006270160506032318000135
100000000000000000000009033990000627000000000000000000000000010002020021464903231100000000002            2  01214649032324032300000005582120000000001N070323000000000000000000000000000000000000000000000000000000000000000100021464965846ANDREA APARECIDA DE OLIVEIRA PECCI      RUA ANTONIO BOZ MARFIL - 103 - PARQUE DO            05396020                                                            000137
2SR. CAIXA, APOS O VENCIMENTO COBRAR 2% DE MULTA                                 NAO RECEBER APOS 30 DIAS DO VENCIMENTO.                                                                                                                                                                                                         09032300000000000000903230000000000000       0090339900006270214649032311000138
100000000000000000000009033990000627000000000000000000000000010002020030348103231300000000002            2  01303481032324032300000003382200000000001N070323000000000000000000000000000000000000000000000000000000000000000100030348198892KELLY CRISTINA CORDEIRO                 RUA CARLOS JOSE BORSTENS - 50 AP.25 - AV            11702750                                                            000140
2SR. CAIXA, APOS O VENCIMENTO COBRAR 2% DE MULTA                                 NAO RECEBER APOS 30 DIAS DO VENCIMENTO.                                                                                                                                                                                                         09032300000000000000903230000000000000       0090339900006270303481032313000141
100000000000000000000009033990000627000000000000000000000000010002020003597503231100000000002            2  01035975032326032300000002278620000000001N070323000000000000000000000000000000000000000000000000000000000000000100003597509827ANISIO FAUSTINO DE OLIVEIRA             RUA DOMINGOS DE MAMBRO - 5 CASA 20 - CIT            06040290                                                            000143
2SR. CAIXA, APOS O VENCIMENTO COBRAR 2% DE MULTA                                 NAO RECEBER APOS 30 DIAS DO VENCIMENTO.                                                                                                                                                                                                         09032300000000000000903230000000000000       0090339900006270035975032311000144
9                                                                                                                                                                                                                                                                                                                                                                                                         000145