01REMESSA01COBRANCA       00000000000008017025HB SANTOS CONSTRUTORA E INCORP237BRADESCO       110418        MX0000053                                                                                                                                                                                                                                                                                     000001
100000000000000000000009033990000627000000000000000000000000010002020025035104181000000000002            2  01250351041824041800000001855610000000001N110418000000000000000000000000000000000000000000000000000000000000000100025035170802WANDERSON LUIS DE CARVALHO              RUA JOAQUIM GONCALVES ROCHA - 302 - JARD            02859030                                                            000002
2SR. CAIXA, APOS O VENCIMENTO COBRAR 2% DE MULTA                                 NAO RECEBER APOS 30 DIAS DO VENCIMENTO.                                                                                                                                                                                                         11041800000000000001104180000000000000       0090339900006270250351041810000003
100000000000000000000009033990000627000000000000000000000000010002020007294304181800000000002            2  01072943041824041800000002495850000000001N110418000000000000000000000000000000000000000000000000000000000000000100007294351805CLAUDENIR APARECIDO VACARI              RUA OFELIA CHAVES DE MEIRELLES - 989 CAS            11360210                                                            000005
2SR. CAIXA, APOS O VENCIMENTO COBRAR 2% DE MULTA                                 NAO RECEBER APOS 30 DIAS DO VENCIMENTO.                                                                                                                                                                                                         11041800000000000001104180000000000000       0090339900006270072943041818000006
100000000000000000000009033990000627000000000000000000000000010002020042976104181800000000002            2  01429761041824041800000002522030000000001N110418000000000000000000000000000000000000000000000000000000000000000100042976111634ACACIO TOSCANO BONDANCA                 RUA COMENDADOR JACOMO ANTONIO LA SELVA -            12946797                                                            000008
2SR. CAIXA, APOS O VENCIMENTO COBRAR 2% DE MULTA                                 NAO RECEBER APOS 30 DIAS DO VENCIMENTO.                                                                                                                                                                                                         11041800000000000001104180000000000000       0090339900006270429761041818000009
100000000000000000000009033990000627000000000000000000000000010002020035438004181100000000002            2  01354380041824041800000002129990000000001N110418000000000000000000000000000000000000000000000000000000000000000100035438022836ALESSANDRO FARACO DOS SANTOS            RUA PEDRO POMAR  - 145 - JARDIM ELISA MA            02875020                                                            000011
2SR. CAIXA, APOS O VENCIMENTO COBRAR 2% DE MULTA                                 NAO RECEBER APOS 30 DIAS DO VENCIMENTO.                                                                                                                                                                                                         11041800000000000001104180000000000000       0090339900006270354380041811000012
100000000000000000000009033990000627000000000000000000000000010002020007525004181300000000002            2  01075250041824041800000002791720000000001N110418000000000000000000000000000000000000000000000000000000000000000100007525032866FERNANDO RIBEIRO                        RUA ALDO COLI - 539 - VILA MIRIM - PRAIA            11704760                                                            000014
2SR. CAIXA, APOS O VENCIMENTO COBRAR 2% DE MULTA                                 NAO RECEBER APOS 30 DIAS DO VENCIMENTO.                                                                                                                                                                                                         11041800000000000001104180000000000000       0090339900006270075250041813000015
100000000000000000000009033990000627000000000000000000000000010002020005071404181900000000002            2  01050714041824041800000002448860000000001N110418000000000000000000000000000000000000000000000000000000000000000100005071481855ERIBALDO SANTANA CARVALHO               RUA HONDURAS - 477 - PARQUE DAS AMERICAS            09351070                                                            000017
2SR. CAIXA, APOS O VENCIMENTO COBRAR 2% DE MULTA                                 NAO RECEBER APOS 30 DIAS DO VENCIMENTO.                                                                                                                                                                                                         11041800000000000001104180000000000000       0090339900006270050714041819000018
100000000000000000000009033990000627000000000000000000000000010002020002841704181200000000002            2  01028417041824041800000002291130000000001N110418000000000000000000000000000000000000000000000000000000000000000100002841756416LUCIANA PINHEIRO DE ASSIS NUNES         RUA RIO ACIMA - 81 - RIACHO GRANDE - SAO            09830100                                                            000020
2SR. CAIXA, APOS O VENCIMENTO COBRAR 2% DE MULTA                                 NAO RECEBER APOS 30 DIAS DO VENCIMENTO.                                                                                                                                                                                                         11041800000000000001104180000000000000       0090339900006270028417041812000021
100000000000000000000009033990000627000000000000000000000000010002020084302004181100000000002            2  01843020041824041800000002302100000000001N110418000000000000000000000000000000000000000000000000000000000000000100084302097868FAUSTO TADEU VILOR                      RUA ANTONIO TAVARES - 466 - BAIRRO CAMBU            01542010                                                            000023
2SR. CAIXA, APOS O VENCIMENTO COBRAR 2% DE MULTA                                 NAO RECEBER APOS 30 DIAS DO VENCIMENTO.                                                                                                                                                                                                         11041800000000000001104180000000000000       0090339900006270843020041811000024
100000000000000000000009033990000627000000000000000000000000010002020028804204181100000000002            2  01288042041824041800000002261850000000001N110418000000000000000000000000000000000000000000000000000000000000000100028804202882GILBERTO FABIANO CABRAL DE CAMARGO      RUA JOAO AMADO COUTINHO - 444 AP.11 A -             02815000                                                            000026
2SR. CAIXA, APOS O VENCIMENTO COBRAR 2% DE MULTA                                 NAO RECEBER APOS 30 DIAS DO VENCIMENTO.                                                                                                                                                                                                         11041800000000000001104180000000000000       0090339900006270288042041811000027
100000000000000000000009033990000627000000000000000000000000010002020000991704181400000000002            2  01009917041824041800000002207630000000001N110418000000000000000000000000000000000000000000000000000000000000000100000991748808JAILSON BORGES DE ANDRADE               RUA IPIOBUNA - 45 - JARDIM CUMBICA - GUA            07240040                                                            000029
2SR. CAIXA, APOS O VENCIMENTO COBRAR 2% DE MULTA                                 NAO RECEBER APOS 30 DIAS DO VENCIMENTO.                                                                                                                                                                                                         11041800000000000001104180000000000000       0090339900006270009917041814000030
100000000000000000000009033990000627000000000000000000000000010002020092180204181100000000002            2  01921802041824041800000003009870000000001N110418000000000000000000000000000000000000000000000000000000000000000100092180299834LUIS ROBERTO DE SA DUARTE               RUA TEBAS - 296 AP.84 BLOCO 2 CE - JARDI            04634031                                                            000032
2SR. CAIXA, APOS O VENCIMENTO COBRAR 2% DE MULTA                                 NAO RECEBER APOS 30 DIAS DO VENCIMENTO.                                                                                                                                                                                                         11041800000000000001104180000000000000       0090339900006270921802041811000033
100000000000000000000009033990000627000000000000000000000000010002020022151604181000000000002            2  01221516041824041800000002194840000000001N110418000000000000000000000000000000000000000000000000000000000000000100022151666816SAMIR LIMA DE ARAUJO                    AVENIDA GUARAPIRANGA - 2616 AP.42 BLOCO1            04902005                                                            000035
2SR. CAIXA, APOS O VENCIMENTO COBRAR 2% DE MULTA                                 NAO RECEBER APOS 30 DIAS DO VENCIMENTO.                                                                                                                                                                                                         11041800000000000001104180000000000000       0090339900006270221516041810000036
100000000000000000000009033990000627000000000000000000000000010002020022313104181200000000002            2  01223131041826041800000001739450000000001N110418000000000000000000000000000000000000000000000000000000000000000100022313116824ROSA MARIA BRITO DA SILVA               RUA SERVIDAO DE SAO MARCOS - 113 - JARDI            04930300                                                            000038
2SR. CAIXA, APOS O VENCIMENTO COBRAR 2% DE MULTA                                 NAO RECEBER APOS 30 DIAS DO VENCIMENTO.                                                                                                                                                                                                         11041800000000000001104180000000000000       0090339900006270223131041812000039
100000000000000000000009033990000627000000000000000000000000010002020027538004181400000000002            2  01275380041826041800000001745510000000001N110418000000000000000000000000000000000000000000000000000000000000000100027538087249MARA LUCIA MENEZES DA COSTA             RUA LEILA  - 183 - ITAQUERA - SAO PAULO             08240020                                                            000041
2SR. CAIXA, APOS O VENCIMENTO COBRAR 2% DE MULTA                                 NAO RECEBER APOS 30 DIAS DO VENCIMENTO.                                                                                                                                                                                                         11041800000000000001104180000000000000       0090339900006270275380041814000042
100000000000000000000009033990000627000000000000000000000000010002020020105504181200000000002            2  01201055041826041800000001847860000000001N110418000000000000000000000000000000000000000000000000000000000000000100020105503827VALTER DE SOUSA LIBARINO FILHO          RUA DAS PAINEIRAS - 140 - LARANJEIRAS -             07700000                                                            000044
2SR. CAIXA, APOS O VENCIMENTO COBRAR 2% DE MULTA                                 NAO RECEBER APOS 30 DIAS DO VENCIMENTO.                                                                                                                                                                                                         11041800000000000001104180000000000000       0090339900006270201055041812000045
100000000000000000000009033990000627000000000000000000000000010002020031278404181000000000002            2  01312784041824041800000002120280000000001N110418000000000000000000000000000000000000000000000000000000000000000100031278411836JEFFERSON DE PIERI PIRES ZAMUNER        RUA MANOEL ARCE - 277 - PARQUE BANCARIO             03922150                                                            000047
2SR. CAIXA, APOS O VENCIMENTO COBRAR 2% DE MULTA                                 NAO RECEBER APOS 30 DIAS DO VENCIMENTO.                                                                                                                                                                                                         11041800000000000001104180000000000000       0090339900006270312784041810000048
100000000000000000000009033990000627000000000000000000000000010002020019185704181200000000002            2  01191857041826041800000001588460000000001N110418000000000000000000000000000000000000000000000000000000000000000100019185769800AGUINALDO PESSOA DE LIMA                RUA JANUARIO ZINGARO - 252 AP.303 BL.04             05794300                                                            000050
2SR. CAIXA, APOS O VENCIMENTO COBRAR 2% DE MULTA                                 NAO RECEBER APOS 30 DIAS DO VENCIMENTO.                                                                                                                                                                                                         11041800000000000001104180000000000000       0090339900006270191857041812000051
100000000000000000000009033990000627000000000000000000000000010002020033303604181300000000002            2  01333036041826041800000001710910000000001N110418000000000000000000000000000000000000000000000000000000000000000100033303645809JESSICA DA SILVA FREITAS                RUA ARILDO VALADAO - 120 - JARDIM GUAEMB            04814600                                                            000053
2SR. CAIXA, APOS O VENCIMENTO COBRAR 2% DE MULTA                                 NAO RECEBER APOS 30 DIAS DO VENCIMENTO.                                                                                                                                                                                                         11041800000000000001104180000000000000       0090339900006270333036041813000054
100000000000000000000009033990000627000000000000000000000000010002020004824404181200000000002            2  01048244041826041800000001724440000000001N110418000000000000000000000000000000000000000000000000000000000000000100004824443806ROSIMEIRE CLARA FERREIRA REZENDE        RUA JOAQUIM DE OLIVEIRA FREITAS - 912 AP            05133000                                                            000056
2SR. CAIXA, APOS O VENCIMENTO COBRAR 2% DE MULTA                                 NAO RECEBER APOS 30 DIAS DO VENCIMENTO.                                                                                                                                                                                                         11041800000000000001104180000000000000       0090339900006270048244041812000057
100000000000000000000009033990000627000000000000000000000000010002020006422604181900000000002            2  01064226041824041800000002296320000000001N110418000000000000000000000000000000000000000000000000000000000000000100006422607881GERALDO ALVES DA SILVA                  RUA ALFREDO JOREL - 195 AP.5 CONDOMINIO             04195020                                                            000059
2SR. CAIXA, APOS O VENCIMENTO COBRAR 2% DE MULTA                                 NAO RECEBER APOS 30 DIAS DO VENCIMENTO.                                                                                                                                                                                                         11041800000000000001104180000000000000       0090339900006270064226041819000060
100000000000000000000009033990000627000000000000000000000000010002020033877104181000000000002            2  01338771041826041800000001604030000000001N110418000000000000000000000000000000000000000000000000000000000000000100033877129870HELDER FERREIRA VIANA                   RUA LEOPOLDO MOTTA E SILVA - 93 AP.34 -             11320340                                                            000062
2SR. CAIXA, APOS O VENCIMENTO COBRAR 2% DE MULTA                                 NAO RECEBER APOS 30 DIAS DO VENCIMENTO.                                                                                                                                                                                                         11041800000000000001104180000000000000       0090339900006270338771041810000063
100000000000000000000009033990000627000000000000000000000000010002020028290704181400000000002            2  01282907041826041800000001478300000000001N110418000000000000000000000000000000000000000000000000000000000000000100028290719809VANESSA GIANGARRELLI PEREIRA            RUA BARINEL - 72 - JARDIM COTCHING - SAO            03462130                                                            000065
2SR. CAIXA, APOS O VENCIMENTO COBRAR 2% DE MULTA                                 NAO RECEBER APOS 30 DIAS DO VENCIMENTO.                                                                                                                                                                                                         11041800000000000001104180000000000000       0090339900006270282907041814000066
100000000000000000000009033990000627000000000000000000000000010002020087573004181P00000000002            2  01875730041826041800000001614310000000001N110418000000000000000000000000000000000000000000000000000000000000000100087573059604VANDERLEY DE ASSIS                      RUA ROMEU ALBANI - 268 - JARDIM PARQUE R            13803810                                                            000068
2SR. CAIXA, APOS O VENCIMENTO COBRAR 2% DE MULTA                                 NAO RECEBER APOS 30 DIAS DO VENCIMENTO.                                                                                                                                                                                                         11041800000000000001104180000000000000       009033990000627087573004181P000069
100000000000000000000009033990000627000000000000000000000000010002020010825504181700000000002            2  01108255041826041800000001684620000000001N110418000000000000000000000000000000000000000000000000000000000000000100010825513847JOSE APARECIDO PEREIRA                  RUA GENERAL OSORIO - 305 - JARDIM TRINTA            11515130                                                            000071
2SR. CAIXA, APOS O VENCIMENTO COBRAR 2% DE MULTA                                 NAO RECEBER APOS 30 DIAS DO VENCIMENTO.                                                                                                                                                                                                         11041800000000000001104180000000000000       0090339900006270108255041817000072
100000000000000000000009033990000627000000000000000000000000010002020038818504181700000000002            2  01388185041826041800000002632240000000001N110418000000000000000000000000000000000000000000000000000000000000000100038818572814MAURICIUS ALEXANDRE ESTEVAM NABOR       RUA RAUL SERAPIAO BARROSO - 379 - ESPLAN            11340330                                                            000074
2SR. CAIXA, APOS O VENCIMENTO COBRAR 2% DE MULTA                                 NAO RECEBER APOS 30 DIAS DO VENCIMENTO.                                                                                                                                                                                                         11041800000000000001104180000000000000       0090339900006270388185041817000075
100000000000000000000009033990000627000000000000000000000000010002020039115104181900000000002            2  01391151041826041800000002076580000000001N110418000000000000000000000000000000000000000000000000000000000000000100039115139840LAIS CRISTINA RIBEIRO ANDO              RUA PERU - 769 AP.17 - VILA GUILHERMINA             11702250                                                            000077
2SR. CAIXA, APOS O VENCIMENTO COBRAR 2% DE MULTA                                 NAO RECEBER APOS 30 DIAS DO VENCIMENTO.                                                                                                                                                                                                         11041800000000000001104180000000000000       0090339900006270391151041819000078
100000000000000000000009033990000627000000000000000000000000010002020029617504181700000000002            2  01296175041824041800000002253900000000001N110418000000000000000000000000000000000000000000000000000000000000000100029617510553MARILENE SOUZA DE OLIVEIRA              AVENIDA BRASIL - 393 AP.09 - PARQUE DAS             09210280                                                            000080
2SR. CAIXA, APOS O VENCIMENTO COBRAR 2% DE MULTA                                 NAO RECEBER APOS 30 DIAS DO VENCIMENTO.                                                                                                                                                                                                         11041800000000000001104180000000000000       0090339900006270296175041817000081
100000000000000000000009033990000627000000000000000000000000010002020000593204181700000000002            2  01005932041824041800000002471970000000001N110418000000000000000000000000000000000000000000000000000000000000000100000593293860WALTER HELIO BARBOSA FILHO              AVENIDA ANTONIO FREDERICO OZANAN - 9500             13214206                                                            000083
2SR. CAIXA, APOS O VENCIMENTO COBRAR 2% DE MULTA                                 NAO RECEBER APOS 30 DIAS DO VENCIMENTO.                                                                                                                                                                                                         11041800000000000001104180000000000000       0090339900006270005932041817000084
100000000000000000000009033990000627000000000000000000000000010002020007730004181200000000002            2  01077300041824041800000003515400000000001N110418000000000000000000000000000000000000000000000000000000000000000100007730084899ARNALDO LUIZ VONO                       RUA CARLOS JOSE BORSTENS - 50 AP.122 - A            11702750                                                            000086
2SR. CAIXA, APOS O VENCIMENTO COBRAR 2% DE MULTA                                 NAO RECEBER APOS 30 DIAS DO VENCIMENTO.                                                                                                                                                                                                         11041800000000000001104180000000000000       0090339900006270077300041812000087
100000000000000000000009033990000627000000000000000000000000010002020065584104181900000000002            2  01655841041824041800000001297630000000001N110418000000000000000000000000000000000000000000000000000000000000000100065584147834JOAQUIM DA COSTA MACHADO NETO           RUA CARLOS JOSE BORSTENS - 50 AP.42 - AV            11702750                                                            000089
2SR. CAIXA, APOS O VENCIMENTO COBRAR 2% DE MULTA                                 NAO RECEBER APOS 30 DIAS DO VENCIMENTO.                                                                                                                                                                                                         11041800000000000001104180000000000000       0090339900006270655841041819000090
100000000000000000000009033990000627000000000000000000000000010002020001616904181000000000002            2  01016169041824041800000002282170000000001N110418000000000000000000000000000000000000000000000000000000000000000100001616913827CLAUDIO LUIZ PAULELLA                   PRACA NESTOR DOS SANTOS ARRUDA - 26 - VI            13920000                                                            000092
2SR. CAIXA, APOS O VENCIMENTO COBRAR 2% DE MULTA                                 NAO RECEBER APOS 30 DIAS DO VENCIMENTO.                                                                                                                                                                                                         11041800000000000001104180000000000000       0090339900006270016169041810000093
100000000000000000000009033990000627000000000000000000000000010002020006684604181100000000002            2  01066846041826041800000001710670000000001N110418000000000000000000000000000000000000000000000000000000000000000100006684623884LAUDINOR VIEIRA GARCIA                  RUA CANDIDO SALES - 374 - JARDIM PRESIDE            07172000                                                            000095
2SR. CAIXA, APOS O VENCIMENTO COBRAR 2% DE MULTA                                 NAO RECEBER APOS 30 DIAS DO VENCIMENTO.                                                                                                                                                                                                         11041800000000000001104180000000000000       0090339900006270066846041811000096
100000000000000000000009033990000627000000000000000000000000010002020011663504181200000000002            2  01116635041826041800000001723000000000001N110418000000000000000000000000000000000000000000000000000000000000000100011663589844MARIA SAVIO QUARELLO                    AVENIDA MENDONCA DRUMOND - 321 - JARDIM             03524030                                                            000098
2SR. CAIXA, APOS O VENCIMENTO COBRAR 2% DE MULTA                                 NAO RECEBER APOS 30 DIAS DO VENCIMENTO.                                                                                                                                                                                                         11041800000000000001104180000000000000       0090339900006270116635041812000099
100000000000000000000009033990000627000000000000000000000000010002020010083804181400000000002            2  01100838041826041800000001664690000000001N110418000000000000000000000000000000000000000000000000000000000000000100010083824855IONE FERREIRA COUTO DA SILVA            RUA JOSE RAGEL DE MESQUITA - 60 CS.01 -             07799999                                                            000101
2SR. CAIXA, APOS O VENCIMENTO COBRAR 2% DE MULTA                                 NAO RECEBER APOS 30 DIAS DO VENCIMENTO.                                                                                                                                                                                                         11041800000000000001104180000000000000       0090339900006270100838041814000102
100000000000000000000009033990000627000000000000000000000000010002020036881704181700000000002            2  01368817041826041800000001633620000000001N110418000000000000000000000000000000000000000000000000000000000000000100036881778864ANDRE GONZALEZ RABELLO                  RUA PARAIBA - 106 AP.61 - POMPEIA - SANT            11065470                                                            000104
2SR. CAIXA, APOS O VENCIMENTO COBRAR 2% DE MULTA                                 NAO RECEBER APOS 30 DIAS DO VENCIMENTO.                                                                                                                                                                                                         11041800000000000001104180000000000000       0090339900006270368817041817000105
100000000000000000000009033990000627000000000000000000000000010002020018207004181600000000002            2  01182070041824041800000002185670000000001N110418000000000000000000000000000000000000000000000000000000000000000100018207096802ROBERTO VALENTE TAVARES                 RUA SEBASTIAO GOMES - 218 - JARDIM SANTO            13835000                                                            000107
2SR. CAIXA, APOS O VENCIMENTO COBRAR 2% DE MULTA                                 NAO RECEBER APOS 30 DIAS DO VENCIMENTO.                                                                                                                                                                                                         11041800000000000001104180000000000000       0090339900006270182070041816000108
100000000000000000000009033990000627000000000000000000000000010002020005351004181900000000002            2  01053510041826041800000001531680000000001N110418000000000000000000000000000000000000000000000000000000000000000100005351015897VALERIA ALVES MARCOLINO HINNIGER        RUA MONGOLIA - 230 AP.71 BL.4 - PARQUE N            09280220                                                            000110
2SR. CAIXA, APOS O VENCIMENTO COBRAR 2% DE MULTA                                 NAO RECEBER APOS 30 DIAS DO VENCIMENTO.                                                                                                                                                                                                         11041800000000000001104180000000000000       0090339900006270053510041819000111
100000000000000000000009033990000627000000000000000000000000010002020031898704181400000000002            2  01318987041824041800000002365300000000001N110418000000000000000000000000000000000000000000000000000000000000000100031898775800ANITA MARTINS COLOMBO                   RUA CARLOS JOSE BORSTENS - 50 AP.115 - A            11702750                                                            000113
2SR. CAIXA, APOS O VENCIMENTO COBRAR 2% DE MULTA                                 NAO RECEBER APOS 30 DIAS DO VENCIMENTO.                                                                                                                                                                                                         11041800000000000001104180000000000000       0090339900006270318987041814000114
9                                                                                                                                                                                                                                                                                                                                                                                                         000115