01REMESSA01COBRANCA       00000000000005623874H B SANTOS CONSTRUTORA E INCOR237BRADESCO       011223        MX0000003                                                                                                                                                                                                                                                                                     000001
100000000000000000000009033990001086300000000000000000000000010002100002252112232P00000000002            2  01022521122310122300000000020010000000001N011223000000000000000000000000000000000000000000000000000000000000000100002252149892AIRES MOTA DOS SANTOS                   AVENIDA BRASIL - 600 - AVIACAO - PRAIA G            11701090                                                            000002
2SR. CAIXA, APOS O VENCIMENTO COBRAR 10% DE MULTA                                NAO RECEBER APOS 30 DIAS DO VENCIMENTO.                                                                                                                                                                                                         01122300000000000000112230000000000000       009033990001086302252112232P000003
9                                                                                                                                                                                                                                                                                                                                                                                                         000004