01REMESSA01COBRANCA       00000000000004991781AIRES CONSTRUTORA E INCORPORAD237BRADESCO       010419        MX0000117                                                                                                                                                                                                                                                                                     000001
100000000000000000000009077090006612500000000000000000000000010002100094852204191900000000002            2  01948522041910041900000002315640000000001N010419000000000000000000000000000000000000000000000000000000000000000100094852294887GISELDA MENON                           RUA OTAVIO BARRETO - 105 - VILA SANTISTA            02560080                                                            000002
2SR. CAIXA, APOS O VENCIMENTO COBRAR 10% DE MULTA                                NAO RECEBER APOS 30 DIAS DO VENCIMENTO.                                                                                                                                                                                                         01041900000000000000104190000000000000       0090770900066125948522041919000003
100000000000000000000009077090006612500000000000000000000000010002100006485904191500000000002            2  01064859041910041900000003551440000000001N010419000000000000000000000000000000000000000000000000000000000000000100006485911820CELIO MANUEL  MELIM SANTO               RUA JUVENAL FERREIRA  - 85 AP.61 - VILA             03512040                                                            000005
2SR. CAIXA, APOS O VENCIMENTO COBRAR 10% DE MULTA                                NAO RECEBER APOS 30 DIAS DO VENCIMENTO.                                                                                                                                                                                                         01041900000000000000104190000000000000       0090770900066125064859041915000006
100000000000000000000009077090006612500000000000000000000000010002100004693804191400000000002            2  01046938041910041900000003095350000000001N010419000000000000000000000000000000000000000000000000000000000000000100004693857823NIVALDO BARTOLOMEU FERREIRA             MNS JOSE MARINONI  - 33 - SANTO AMARO -             04430350                                                            000008
2SR. CAIXA, APOS O VENCIMENTO COBRAR 10% DE MULTA                                NAO RECEBER APOS 30 DIAS DO VENCIMENTO.                                                                                                                                                                                                         01041900000000000000104190000000000000       0090770900066125046938041914000009
100000000000000000000009077090006612500000000000000000000000010002100027993104191300000000002            2  01279931041910041900000002947450000000001N010419000000000000000000000000000000000000000000000000000000000000000100027993108853DALVA JESUS RODRIGUES CABRAL            RUA CRISTOVAO COLOMBO GONCALVES - 97 - C            04811050                                                            000011
2SR. CAIXA, APOS O VENCIMENTO COBRAR 10% DE MULTA                                NAO RECEBER APOS 30 DIAS DO VENCIMENTO.                                                                                                                                                                                                         01041900000000000000104190000000000000       0090770900066125279931041913000012
100000000000000000000009077090006612500000000000000000000000010002100000455404191200000000002            2  01004554041910041900000003061730000000001N010419000000000000000000000000000000000000000000000000000000000000000100000455495831PAULO HENRIQUE LOURENCO                 RUA FIGUEIRA  - 237 - CIDADE DAS FLORES             06184060                                                            000014
2SR. CAIXA, APOS O VENCIMENTO COBRAR 10% DE MULTA                                NAO RECEBER APOS 30 DIAS DO VENCIMENTO.                                                                                                                                                                                                         01041900000000000000104190000000000000       0090770900066125004554041912000015
100000000000000000000009077090006612500000000000000000000000010002100006140004191300000000002            2  01061400041910041900000003796970000000001N010419000000000000000000000000000000000000000000000000000000000000000100006140049857MARIA ALBANI DA SILVA EUSEBIO           RUA ORLANDO SEGALA - 108 - JARDIM ADRIAN            07135190                                                            000017
2SR. CAIXA, APOS O VENCIMENTO COBRAR 10% DE MULTA                                NAO RECEBER APOS 30 DIAS DO VENCIMENTO.                                                                                                                                                                                                         01041900000000000000104190000000000000       0090770900066125061400041913000018
100000000000000000000009077090006612500000000000000000000000010002100007768704191200000000002            2  01077687041910041900000003857080000000001N010419000000000000000000000000000000000000000000000000000000000000000100007768713826FATIMA LUZIA BIANCHI                    DR. OLIDAIR AMBROSIO - 1487 AP.03 - CENT            14160170                                                            000020
2SR. CAIXA, APOS O VENCIMENTO COBRAR 10% DE MULTA                                NAO RECEBER APOS 30 DIAS DO VENCIMENTO.                                                                                                                                                                                                         01041900000000000000104190000000000000       0090770900066125077687041912000021
100000000000000000000009077090006612500000000000000000000000010002100021716804191P00000000002            2  01217168041910041900000003799820000000001N010419000000000000000000000000000000000000000000000000000000000000000100021716847800DANIELLE FAGUNDES DE A.MATOS            CONDE MOREIRA LIMA - 644 - JARDIM JABAQU            04384032                                                            000023
2SR. CAIXA, APOS O VENCIMENTO COBRAR 10% DE MULTA                                NAO RECEBER APOS 30 DIAS DO VENCIMENTO.                                                                                                                                                                                                         01041900000000000000104190000000000000       009077090006612521716804191P000024
100000000000000000000009077090006612500000000000000000000000010002100085416904191300000000002            2  01854169041910041900000003221170000000001N010419000000000000000000000000000000000000000000000000000000000000000100085416940891ANTONIO DE SOUSA MENDES                 RUA MONTE CASTELO - 296 AP.52 - AVIACAO             11702720                                                            000026
2SR. CAIXA, APOS O VENCIMENTO COBRAR 10% DE MULTA                                NAO RECEBER APOS 30 DIAS DO VENCIMENTO.                                                                                                                                                                                                         01041900000000000000104190000000000000       0090770900066125854169041913000027
100000000000000000000009077090006612500000000000000000000000010002100005678004191700000000002            2  01056780041910041900000003354790000000001N010419000000000000000000000000000000000000000000000000000000000000000100005678057863FABIO MOREIRA CAMPOS                    RUA FLORENCIO DA SILVA - 284 - VILA LIBA            03738070                                                            000029
2SR. CAIXA, APOS O VENCIMENTO COBRAR 10% DE MULTA                                NAO RECEBER APOS 30 DIAS DO VENCIMENTO.                                                                                                                                                                                                         01041900000000000000104190000000000000       0090770900066125056780041917000030
100000000000000000000009077090006612500000000000000000000000010002100007784404191300000000002            2  01077844041910041900000003387550000000001N010419000000000000000000000000000000000000000000000000000000000000000100007784496885GUILHERME LEONARDO DO NASCIMENTO        COMENDADOR RUBENS RONCARE - 127 - PONTE             11530120                                                            000032
2SR. CAIXA, APOS O VENCIMENTO COBRAR 10% DE MULTA                                NAO RECEBER APOS 30 DIAS DO VENCIMENTO.                                                                                                                                                                                                         01041900000000000000104190000000000000       0090770900066125077844041913000033
100000000000000000000009077090006612500000000000000000000000010002100016348204191300000000002            2  01163482041910041900000003272840000000001N010419000000000000000000000000000000000000000000000000000000000000000100016348237885AILTON LORENA                           AVENIDA BRASILIA - 194 - BELA VISTA - SA            09180260                                                            000035
2SR. CAIXA, APOS O VENCIMENTO COBRAR 10% DE MULTA                                NAO RECEBER APOS 30 DIAS DO VENCIMENTO.                                                                                                                                                                                                         01041900000000000000104190000000000000       0090770900066125163482041913000036
100000000000000000000009077090006612500000000000000000000000010002100081218404191700000000002            2  01812184041910041900000003158720000000001N010419000000000000000000000000000000000000000000000000000000000000000100081218486953OSMAR DA COSTA                          RUA MONTE CASTELO - 295 AP.33 - AVIACAO             11702720                                                            000038
2SR. CAIXA, APOS O VENCIMENTO COBRAR 10% DE MULTA                                NAO RECEBER APOS 30 DIAS DO VENCIMENTO.                                                                                                                                                                                                         01041900000000000000104190000000000000       0090770900066125812184041917000039
100000000000000000000009077090006612500000000000000000000000010002100004981804191P00000000002            2  01049818041910041900000003587710000000001N010419000000000000000000000000000000000000000000000000000000000000000100004981884850SILVIO PAULINO GONCALVES                MARIA DE CASTRO MESQUITA - 84 AP.103 BLO            07110040                                                            000041
2SR. CAIXA, APOS O VENCIMENTO COBRAR 10% DE MULTA                                NAO RECEBER APOS 30 DIAS DO VENCIMENTO.                                                                                                                                                                                                         01041900000000000000104190000000000000       009077090006612504981804191P000042
100000000000000000000009077090006612500000000000000000000000010002100019282504191400000000002            2  01192825041910041900000002354980000000001N010419000000000000000000000000000000000000000000000000000000000000000100019282546837FABIO LEANDRO DE FREITAS ASSIS          RUA BASSIM NAGIB TRABULSI - 97 - PONTA D            11030540                                                            000044
2SR. CAIXA, APOS O VENCIMENTO COBRAR 10% DE MULTA                                NAO RECEBER APOS 30 DIAS DO VENCIMENTO.                                                                                                                                                                                                         01041900000000000000104190000000000000       0090770900066125192825041914000045
100000000000000000000009077090006612500000000000000000000000010002100008423404191800000000002            2  01084234041910041900000003272770000000001N010419000000000000000000000000000000000000000000000000000000000000000100008423485811EDSON LUIZ NUNES                        RUA NOEMIA PEDROSO BUENO - 41 - JARDIM G            09360440                                                            000047
2SR. CAIXA, APOS O VENCIMENTO COBRAR 10% DE MULTA                                NAO RECEBER APOS 30 DIAS DO VENCIMENTO.                                                                                                                                                                                                         01041900000000000000104190000000000000       0090770900066125084234041918000048
100000000000000000000009077090006612500000000000000000000000010002100003010504191700000000002            2  01030105041910041900000003787020000000001N010419000000000000000000000000000000000000000000000000000000000000000100003010502877GIZELA VIEIRA BARROS                    RUA GIACOMO DALCIN - 157 - MAUA - SAO CA            09580350                                                            000050
2SR. CAIXA, APOS O VENCIMENTO COBRAR 10% DE MULTA                                NAO RECEBER APOS 30 DIAS DO VENCIMENTO.                                                                                                                                                                                                         01041900000000000000104190000000000000       0090770900066125030105041917000051
100000000000000000000009077090006612500000000000000000000000010002100009777204191400000000002            2  01097772041910041900000002969180000000001N010419000000000000000000000000000000000000000000000000000000000000000100009777281889CARLITA DE FIGUEIREDO CARVALHO          AVENIDA ALBERTO DE ALMEIDA VINHAS - 4462            11701350                                                            000053
2SR. CAIXA, APOS O VENCIMENTO COBRAR 10% DE MULTA                                NAO RECEBER APOS 30 DIAS DO VENCIMENTO.                                                                                                                                                                                                         01041900000000000000104190000000000000       0090770900066125097772041914000054
100000000000000000000009077090006612500000000000000000000000010002100004213004191100000000002            2  01042130041910041900000003526150000000001N010419000000000000000000000000000000000000000000000000000000000000000100004213020894ELIETE DRUGOVICH DE LIMA                RUA OSVALDO CRUZ - 141 AP.144-B - SANTA             09541270                                                            000056
2SR. CAIXA, APOS O VENCIMENTO COBRAR 10% DE MULTA                                NAO RECEBER APOS 30 DIAS DO VENCIMENTO.                                                                                                                                                                                                         01041900000000000000104190000000000000       0090770900066125042130041911000057
100000000000000000000009077090006612500000000000000000000000010002100043122804191600000000002            2  01431228041910041900000002403410000000001N010419000000000000000000000000000000000000000000000000000000000000000100043122850800ANTONIO JOAQUIM GOES                    ANTONIO DOAS DA SILVA - 412 - VILA AMALI            02618110                                                            000059
2SR. CAIXA, APOS O VENCIMENTO COBRAR 10% DE MULTA                                NAO RECEBER APOS 30 DIAS DO VENCIMENTO.                                                                                                                                                                                                         01041900000000000000104190000000000000       0090770900066125431228041916000060
100000000000000000000009077090006612500000000000000000000000010002100003865704191200000000002            2  01038657041910041900000003155500000000001N010419000000000000000000000000000000000000000000000000000000000000000100003865776841FRANCISCO JOSE ROCCO                    RUA FABIO JOSE BEZERRA - 130 AP.86 - PAR            03805000                                                            000062
2SR. CAIXA, APOS O VENCIMENTO COBRAR 10% DE MULTA                                NAO RECEBER APOS 30 DIAS DO VENCIMENTO.                                                                                                                                                                                                         01041900000000000000104190000000000000       0090770900066125038657041912000063
100000000000000000000009077090006612500000000000000000000000010002100028309504191900000000002            2  01283095041910041900000002813990000000001N010419000000000000000000000000000000000000000000000000000000000000000100028309524803DEISE RIBEIRO BARBOSA                   RUA CANDIDO JOSE DE ANDRADE - 173 - ERME            03807030                                                            000065
2SR. CAIXA, APOS O VENCIMENTO COBRAR 10% DE MULTA                                NAO RECEBER APOS 30 DIAS DO VENCIMENTO.                                                                                                                                                                                                         01041900000000000000104190000000000000       0090770900066125283095041919000066
100000000000000000000009077090006612500000000000000000000000010002100011277904191900000000002            2  01112779041910041900000003339890000000001N010419000000000000000000000000000000000000000000000000000000000000000100011277908893JOSE AILTON LOPES DE AZEVEDO            RUA MAESTRO JOAO SEPE - 19 - JARDIM MARI            04181030                                                            000068
2SR. CAIXA, APOS O VENCIMENTO COBRAR 10% DE MULTA                                NAO RECEBER APOS 30 DIAS DO VENCIMENTO.                                                                                                                                                                                                         01041900000000000000104190000000000000       0090770900066125112779041919000069
100000000000000000000009077090006612500000000000000000000000010002100025215104191600000000002            2  01252151041910041900000002518690000000001N010419000000000000000000000000000000000000000000000000000000000000000100025215106886KLEBER LUIZ DOS SANTOS                  RUA MONTE CASTELO - 262 AP.15 - AVIACAO             11702720                                                            000071
2SR. CAIXA, APOS O VENCIMENTO COBRAR 10% DE MULTA                                NAO RECEBER APOS 30 DIAS DO VENCIMENTO.                                                                                                                                                                                                         01041900000000000000104190000000000000       0090770900066125252151041916000072
100000000000000000000009077090006612500000000000000000000000010002100090206704191300000000002            2  01902067041910041900000002813280000000001N010419000000000000000000000000000000000000000000000000000000000000000100090206789815NEREIDE RODRIGUES FERREIRA              AVENIDA PADRE ESTANISLAU DE CAMPOS - 205            03590060                                                            000074
2SR. CAIXA, APOS O VENCIMENTO COBRAR 10% DE MULTA                                NAO RECEBER APOS 30 DIAS DO VENCIMENTO.                                                                                                                                                                                                         01041900000000000000104190000000000000       0090770900066125902067041913000075
100000000000000000000009077090006612500000000000000000000000010002100029150704191100000000002            2  01291507041910041900000003292990000000001N010419000000000000000000000000000000000000000000000000000000000000000100029150742833ANA DEISE SANTOS DE ALMEIDA             RUA MONTE CASTELO - 296 AP.121 - AVIACAO            11702720                                                            000077
2SR. CAIXA, APOS O VENCIMENTO COBRAR 10% DE MULTA                                NAO RECEBER APOS 30 DIAS DO VENCIMENTO.                                                                                                                                                                                                         01041900000000000000104190000000000000       0090770900066125291507041911000078
100000000000000000000009077090006612500000000000000000000000010002100000811704191700000000002            2  01008117041910041900000002712380000000001N010419000000000000000000000000000000000000000000000000000000000000000100000811752801SERGIO BUENO DA SILVA                   RUA MONTE CASTELO - 262 AP.75 - AVIACAO             11702720                                                            000080
2SR. CAIXA, APOS O VENCIMENTO COBRAR 10% DE MULTA                                NAO RECEBER APOS 30 DIAS DO VENCIMENTO.                                                                                                                                                                                                         01041900000000000000104190000000000000       0090770900066125008117041917000081
100000000000000000000009077090006612500000000000000000000000010002100018344804191300000000002            2  01183448041910041900000003448010000000001N010419000000000000000000000000000000000000000000000000000000000000000100018344803888MARCELO BERNARDO                        RUA MONTE CASTELO - 262 AP.84 - AVIACAO             11702720                                                            000083
2SR. CAIXA, APOS O VENCIMENTO COBRAR 10% DE MULTA                                NAO RECEBER APOS 30 DIAS DO VENCIMENTO.                                                                                                                                                                                                         01041900000000000000104190000000000000       0090770900066125183448041913000084
100000000000000000000009077090006612500000000000000000000000010002100004004304191000000000002            2  01040043041910041900000004834020000000001N010419000000000000000000000000000000000000000000000000000000000000000100004004328896VANDERLEI  MARTINS DE ALMEIDA           RUA MONSENHOR TABOSA - 03 - PARQUE CISPE            03819300                                                            000086
2SR. CAIXA, APOS O VENCIMENTO COBRAR 10% DE MULTA                                NAO RECEBER APOS 30 DIAS DO VENCIMENTO.                                                                                                                                                                                                         01041900000000000000104190000000000000       0090770900066125040043041910000087
100000000000000000000009077090006612500000000000000000000000010002100005133004191500000000002            2  01051330041910041900000003301790000000001N010419000000000000000000000000000000000000000000000000000000000000000100005133053860VICENTE ARCIPRETE JUNIOR                RUA JOSE SIMOES FERREIRA FILHO - 80 - JA            06040090                                                            000089
2SR. CAIXA, APOS O VENCIMENTO COBRAR 10% DE MULTA                                NAO RECEBER APOS 30 DIAS DO VENCIMENTO.                                                                                                                                                                                                         01041900000000000000104190000000000000       0090770900066125051330041915000090
100000000000000000000009077090006612500000000000000000000000010002100056660204191P00000000002            2  01566602041910041900000000803110000000001N010419000000000000000000000000000000000000000000000000000000000000000100056660235868JOSE DA SILVA                           RUA MONTE CASTELO - 296 AP.32 - AVIACAO             11702720                                                            000092
2SR. CAIXA, APOS O VENCIMENTO COBRAR 10% DE MULTA                                NAO RECEBER APOS 30 DIAS DO VENCIMENTO.                                                                                                                                                                                                         01041900000000000000104190000000000000       009077090006612556660204191P000093
100000000000000000000009077090006612500000000000000000000000010002100016339404191100000000002            2  01163394041910041900000002916530000000001N010419000000000000000000000000000000000000000000000000000000000000000100016339432832ALEX MONTEIRO DA SILVA                  RUA IVA MOURA LIMA - 04 - JARDIM MIRNA I            04855540                                                            000095
2SR. CAIXA, APOS O VENCIMENTO COBRAR 10% DE MULTA                                NAO RECEBER APOS 30 DIAS DO VENCIMENTO.                                                                                                                                                                                                         01041900000000000000104190000000000000       0090770900066125163394041911000096
100000000000000000000009077090006612500000000000000000000000010002100031803804191900000000002            2  01318038041910041900000002978370000000001N010419000000000000000000000000000000000000000000000000000000000000000100031803864877ELEILSON FELIPPE SANTOS                 RUA SANTA GREGORIA - 193 - CIDADE DUTRA             04806030                                                            000098
2SR. CAIXA, APOS O VENCIMENTO COBRAR 10% DE MULTA                                NAO RECEBER APOS 30 DIAS DO VENCIMENTO.                                                                                                                                                                                                         01041900000000000000104190000000000000       0090770900066125318038041919000099
100000000000000000000009077090006612500000000000000000000000010002100026032604191700000000002            2  01260326041910041900000002049610000000001N010419000000000000000000000000000000000000000000000000000000000000000100026032632857MARILA LOPES PEREIRA                    AVENIDA LUIZ GISHOKEM - 1761 AP.13 BL.05            05831315                                                            000101
2SR. CAIXA, APOS O VENCIMENTO COBRAR 10% DE MULTA                                NAO RECEBER APOS 30 DIAS DO VENCIMENTO.                                                                                                                                                                                                         01041900000000000000104190000000000000       0090770900066125260326041917000102
100000000000000000000009077090006612500000000000000000000000010002100063064504191300000000002            2  01630645041910041900000003549270000000001N010419000000000000000000000000000000000000000000000000000000000000000100063064537849ANTONIO APARECIDO DA SILVA DESTEFANO    RUA PROFESSOR TEODORO BRAGA - 46 - VILA             02966020                                                            000104
2SR. CAIXA, APOS O VENCIMENTO COBRAR 10% DE MULTA                                NAO RECEBER APOS 30 DIAS DO VENCIMENTO.                                                                                                                                                                                                         01041900000000000000104190000000000000       0090770900066125630645041913000105
100000000000000000000009077090006612500000000000000000000000010002100010107704191900000000002            2  01101077041910041900000003401250000000001N010419000000000000000000000000000000000000000000000000000000000000000100010107711834VALDEMAR FECCHIO                        RUA DEPUTADO EMILIO CARLOS - 355 AP.21-B            06028010                                                            000107
2SR. CAIXA, APOS O VENCIMENTO COBRAR 10% DE MULTA                                NAO RECEBER APOS 30 DIAS DO VENCIMENTO.                                                                                                                                                                                                         01041900000000000000104190000000000000       0090770900066125101077041919000108
100000000000000000000009077090006612500000000000000000000000010002100003330704191800000000002            2  01033307041910041900000004375520000000001N010419000000000000000000000000000000000000000000000000000000000000000100003330791837MARLI DA SILVA BARBOSA                  RUA GLICERIO CERQUEIRA LEITE - 151 - JAR            03675040                                                            000110
2SR. CAIXA, APOS O VENCIMENTO COBRAR 10% DE MULTA                                NAO RECEBER APOS 30 DIAS DO VENCIMENTO.                                                                                                                                                                                                         01041900000000000000104190000000000000       0090770900066125033307041918000111
100000000000000000000009077090006612500000000000000000000000010002100008931004191600000000002            2  01089310041910041900000001778590000000001N010419000000000000000000000000000000000000000000000000000000000000000100008931031874BENEVENUTO THEODORO DA SILVA NETO       RUA MONTE CASTELO - 296 AP.63 - AVIACAO             11702720                                                            000113
2SR. CAIXA, APOS O VENCIMENTO COBRAR 10% DE MULTA                                NAO RECEBER APOS 30 DIAS DO VENCIMENTO.                                                                                                                                                                                                         01041900000000000000104190000000000000       0090770900066125089310041916000114
100000000000000000000009077090006612500000000000000000000000010002100005920504191200000000002            2  01059205041910041900000002066410000000001N010419000000000000000000000000000000000000000000000000000000000000000100005920579846SONIA MARIA VALDO POLLO                 RUA PALMIRA CERVI BARBARO - 797 - CIDADE            13214370                                                            000116
2SR. CAIXA, APOS O VENCIMENTO COBRAR 10% DE MULTA                                NAO RECEBER APOS 30 DIAS DO VENCIMENTO.                                                                                                                                                                                                         01041900000000000000104190000000000000       0090770900066125059205041912000117
100000000000000000000009077090006612500000000000000000000000010002100002494104191300000000002            2  01024941041910041900000003106920000000001N010419000000000000000000000000000000000000000000000000000000000000000100002494107881CIRO FRANCISCO MARCHI DURIGON           RUA MONTE CASTELO - 262 AP.115 - AVIACAO            11702720                                                            000119
2SR. CAIXA, APOS O VENCIMENTO COBRAR 10% DE MULTA                                NAO RECEBER APOS 30 DIAS DO VENCIMENTO.                                                                                                                                                                                                         01041900000000000000104190000000000000       0090770900066125024941041913000120
100000000000000000000009077090006612500000000000000000000000010002100007002304191000000000002            2  01070023041910041900000003054270000000001N010419000000000000000000000000000000000000000000000000000000000000000100007002345869DOMINGOS DE BRITO GALVAO                RUA MONTE CASTELO - 262 AP.44 - AVIACAO             11702720                                                            000122
2SR. CAIXA, APOS O VENCIMENTO COBRAR 10% DE MULTA                                NAO RECEBER APOS 30 DIAS DO VENCIMENTO.                                                                                                                                                                                                         01041900000000000000104190000000000000       0090770900066125070023041910000123
100000000000000000000009077090006612500000000000000000000000010002100009346804191000000000002            2  01093468041910041900000001272260000000001N010419000000000000000000000000000000000000000000000000000000000000000100009346863862NELSON DE SOUZA SANTOS                  RUA PRIMEIRA CRUZ - 90 - PARQUE INDEPEND            03236060                                                            000125
2SR. CAIXA, APOS O VENCIMENTO COBRAR 10% DE MULTA                                NAO RECEBER APOS 30 DIAS DO VENCIMENTO.                                                                                                                                                                                                         01041900000000000000104190000000000000       0090770900066125093468041910000126
100000000000000000000009077090006612500000000000000000000000010002100016299004191400000000002            2  01162990041910041900000002944320000000001N010419000000000000000000000000000000000000000000000000000000000000000100016299008857FERNANDO CESAR CARVALHO                 AVENIDA MARCONDES DE BRITO - 1340 AP.74             03509000                                                            000128
2SR. CAIXA, APOS O VENCIMENTO COBRAR 10% DE MULTA                                NAO RECEBER APOS 30 DIAS DO VENCIMENTO.                                                                                                                                                                                                         01041900000000000000104190000000000000       0090770900066125162990041914000129
100000000000000000000009077090006612500000000000000000000000010002100031082804191800000000002            2  01310828041910041900000002958580000000001N010419000000000000000000000000000000000000000000000000000000000000000100031082898880VANESSA DOS SANTOS NEIVA                RUA MONTE CASTELO - 296 AP.33 - BAIRRO A            11702720                                                            000131
2SR. CAIXA, APOS O VENCIMENTO COBRAR 10% DE MULTA                                NAO RECEBER APOS 30 DIAS DO VENCIMENTO.                                                                                                                                                                                                         01041900000000000000104190000000000000       0090770900066125310828041918000132
100000000000000000000009077090006612500000000000000000000000010002100065895304191800000000002            2  01658953041910041900000001801350000000001N010419000000000000000000000000000000000000000000000000000000000000000100065895304834MARINHO BARBOSA CUNHA                   AVENIDA EDU CHAVES - 639 AP.43 - PARQUE             02229000                                                            000134
2SR. CAIXA, APOS O VENCIMENTO COBRAR 10% DE MULTA                                NAO RECEBER APOS 30 DIAS DO VENCIMENTO.                                                                                                                                                                                                         01041900000000000000104190000000000000       0090770900066125658953041918000135
9                                                                                                                                                                                                                                                                                                                                                                                                         000136