01REMESSA01COBRANCA       00000000000005316116AIRES CONSTRUTORA E INCORPORAD237BRADESCO       010323        MX0000213                                                                                                                                                                                                                                                                                     000001
100000000000000000000009002800441612000000000000000000000000010002100025215103231300000000002            2  01252151032310032300000003249300000000001N010323000000000000000000000000000000000000000000000000000000000000000100025215106886KLEBER LUIZ DOS SANTOS                  RUA MONTE CASTELO - 262 AP.15 - AVIACAO             11702720                                                            000002
2SR. CAIXA, APOS O VENCIMENTO COBRAR 10% DE MULTA                                NAO RECEBER APOS 30 DIAS DO VENCIMENTO.                                                                                                                                                                                                         01032300000000000000103230000000000000       0090028004416120252151032313000003
100000000000000000000009002800441612000000000000000000000000010002100018344803231000000000002            2  01183448032310032300000004758010000000001N010323000000000000000000000000000000000000000000000000000000000000000100018344803888MARCELO BERNARDO                        RUA MONTE CASTELO - 262 AP.84 - AVIACAO             11702720                                                            000005
2SR. CAIXA, APOS O VENCIMENTO COBRAR 10% DE MULTA                                NAO RECEBER APOS 30 DIAS DO VENCIMENTO.                                                                                                                                                                                                         01032300000000000000103230000000000000       0090028004416120183448032310000006
100000000000000000000009002800441612000000000000000000000000010002100031803803231600000000002            2  01318038032310032300000003842350000000001N010323000000000000000000000000000000000000000000000000000000000000000100031803864877ELEILSON FELIPPE SANTOS                 RUA SANTA GREGORIA - 193 - CIDADE DUTRA             04806030                                                            000008
2SR. CAIXA, APOS O VENCIMENTO COBRAR 10% DE MULTA                                NAO RECEBER APOS 30 DIAS DO VENCIMENTO.                                                                                                                                                                                                         01032300000000000000103230000000000000       0090028004416120318038032316000009
100000000000000000000009002800441612000000000000000000000000010002100063064503231000000000002            2  01630645032310032300000004578840000000001N010323000000000000000000000000000000000000000000000000000000000000000100063064537849ANTONIO APARECIDO DA SILVA DESTEFANO    RUA PROFESSOR TEODORO BRAGA - 46 - VILA             02966020                                                            000011
2SR. CAIXA, APOS O VENCIMENTO COBRAR 10% DE MULTA                                NAO RECEBER APOS 30 DIAS DO VENCIMENTO.                                                                                                                                                                                                         01032300000000000000103230000000000000       0090028004416120630645032310000012
100000000000000000000009002800441612000000000000000000000000010002100005920503231P00000000002            2  01059205032310032300000002665840000000001N010323000000000000000000000000000000000000000000000000000000000000000100005920579846SONIA MARIA VALDO POLLO                 RUA PALMIRA CERVI BARBARO - 797 - CIDADE            13214370                                                            000014
2SR. CAIXA, APOS O VENCIMENTO COBRAR 10% DE MULTA                                NAO RECEBER APOS 30 DIAS DO VENCIMENTO.                                                                                                                                                                                                         01032300000000000000103230000000000000       009002800441612005920503231P000015
100000000000000000000009002800441612000000000000000000000000010002100002494103231000000000002            2  01024941032310032300000004008180000000001N010323000000000000000000000000000000000000000000000000000000000000000100002494107881CIRO FRANCISCO MARCHI DURIGON           RUA MONTE CASTELO - 262 AP.115 - AVIACAO            11702720                                                            000017
2SR. CAIXA, APOS O VENCIMENTO COBRAR 10% DE MULTA                                NAO RECEBER APOS 30 DIAS DO VENCIMENTO.                                                                                                                                                                                                         01032300000000000000103230000000000000       0090028004416120024941032310000018
100000000000000000000009002800441612000000000000000000000000010002100016299003231100000000002            2  01162990032310032300000003798370000000001N010323000000000000000000000000000000000000000000000000000000000000000100016299008857FERNANDO CESAR CARVALHO                 AVENIDA MARCONDES DE BRITO - 1340 AP.74             03509000                                                            000020
2SR. CAIXA, APOS O VENCIMENTO COBRAR 10% DE MULTA                                NAO RECEBER APOS 30 DIAS DO VENCIMENTO.                                                                                                                                                                                                         01032300000000000000103230000000000000       0090028004416120162990032311000021
100000000000000000000009002800441612000000000000000000000000010002100055975303231200000000002            2  01559753032310032300000000867420000000001N010323000000000000000000000000000000000000000000000000000000000000000100055975372887BENEVENUTO THEODORO DA SILVA NETO       RUA MONTE CASTELO - 296 AP.63 - AVIACAO             11702720                                                            000023
2SR. CAIXA, APOS O VENCIMENTO COBRAR 10% DE MULTA                                NAO RECEBER APOS 30 DIAS DO VENCIMENTO.                                                                                                                                                                                                         01032300000000000000103230000000000000       0090028004416120559753032312000024
9                                                                                                                                                                                                                                                                                                                                                                                                         000025