01REMESSA01COBRANCA       00000000000004991781AIRES CONSTRUTORA E INCORPORAD237BRADESCO       060219        MX0000114                                                                                                                                                                                                                                                                                     000001
100000000000000000000009077090006612500000000000000000000000010002100001224502191800000000002            2  01012245021925021900000003538670000000001N060219000000000000000000000000000000000000000000000000000000000000000100001224509579REINALDO JUNIOR MARTINS DE ABREU        AVENIDA INTERLAGOS - 7.224 - INTERLAGOS             04777000                                                            000002
2SR. CAIXA, APOS O VENCIMENTO COBRAR 10% DE MULTA                                NAO RECEBER APOS 30 DIAS DO VENCIMENTO.                                                                                                                                                                                                         06021900000000000000602190000000000000       0090770900066125012245021918000003
100000000000000000000009077090006612500000000000000000000000010002100003325102191900000000002            2  01033251021925021900000003441580000000001N060219000000000000000000000000000000000000000000000000000000000000000100003325102808MARCOS DE OLIVEIRA JUNIOR               RUA LUIS NOVELLETO - 91 - PARQUE CONTINE            05324080                                                            000005
2SR. CAIXA, APOS O VENCIMENTO COBRAR 10% DE MULTA                                NAO RECEBER APOS 30 DIAS DO VENCIMENTO.                                                                                                                                                                                                         06021900000000000000602190000000000000       0090770900066125033251021919000006
100000000000000000000009077090006612500000000000000000000000010002100016338902191000000000002            2  01163389021925021900000003491530000000001N060219000000000000000000000000000000000000000000000000000000000000000100016338929806EDVALDO DA SILVA ANDRADE                RUA ARIA - 434 - PARQUE ALVES DE LIMA -             04902170                                                            000008
2SR. CAIXA, APOS O VENCIMENTO COBRAR 10% DE MULTA                                NAO RECEBER APOS 30 DIAS DO VENCIMENTO.                                                                                                                                                                                                         06021900000000000000602190000000000000       0090770900066125163389021910000009
100000000000000000000009077090006612500000000000000000000000010002100026836902191000000000002            2  01268369021925021900000003161830000000001N060219000000000000000000000000000000000000000000000000000000000000000100026836908860VANDERLEI FIGUEIREDO DE CARVALHO        RUA TUPI - 840 - VILA TUPI - PRAIA GRAND            11703260                                                            000011
2SR. CAIXA, APOS O VENCIMENTO COBRAR 10% DE MULTA                                NAO RECEBER APOS 30 DIAS DO VENCIMENTO.                                                                                                                                                                                                         06021900000000000000602190000000000000       0090770900066125268369021910000012
100000000000000000000009077090006612500000000000000000000000010002100059861502191700000000002            2  01598615021925021900000003511920000000001N060219000000000000000000000000000000000000000000000000000000000000000100059861576800REINALDO LOPES DE OLIVEIRA              RUA DA SERVIDAO - 40 - VILA ROSCHEL - SA            04891045                                                            000014
2SR. CAIXA, APOS O VENCIMENTO COBRAR 10% DE MULTA                                NAO RECEBER APOS 30 DIAS DO VENCIMENTO.                                                                                                                                                                                                         06021900000000000000602190000000000000       0090770900066125598615021917000015
100000000000000000000009077090006612500000000000000000000000010002100016330902191500000000002            2  01163309021925021900000003490650000000001N060219000000000000000000000000000000000000000000000000000000000000000100016330938830KARINA CORDEIRO PIASSA                  CONDE MOREIRA LIMA - 644 - JARDIM JABAQU            04384032                                                            000017
2SR. CAIXA, APOS O VENCIMENTO COBRAR 10% DE MULTA                                NAO RECEBER APOS 30 DIAS DO VENCIMENTO.                                                                                                                                                                                                         06021900000000000000602190000000000000       0090770900066125163309021915000018
100000000000000000000009077090006612500000000000000000000000010002100077027602191800000000002            2  01770276021925021900000003392640000000001N060219000000000000000000000000000000000000000000000000000000000000000100077027604868CLINEU LISSONI                          AVENIDA VILA EMA - 1100 AP.41 - VILA PRU            03156000                                                            000020
2SR. CAIXA, APOS O VENCIMENTO COBRAR 10% DE MULTA                                NAO RECEBER APOS 30 DIAS DO VENCIMENTO.                                                                                                                                                                                                         06021900000000000000602190000000000000       0090770900066125770276021918000021
100000000000000000000009077090006612500000000000000000000000010002100029380702191500000000002            2  01293807021925021900000003162020000000001N060219000000000000000000000000000000000000000000000000000000000000000100029380708882EDUARDO MENDONCA DAMASCENO              RUA MONTE CASTELO - 296 AP.12 - AVIACAO             11702720                                                            000023
2SR. CAIXA, APOS O VENCIMENTO COBRAR 10% DE MULTA                                NAO RECEBER APOS 30 DIAS DO VENCIMENTO.                                                                                                                                                                                                         06021900000000000000602190000000000000       0090770900066125293807021915000024
100000000000000000000009077090006612500000000000000000000000010002100023988502191900000000002            2  01239885021925021900000003210680000000001N060219000000000000000000000000000000000000000000000000000000000000000100023988525634DALMY PIMENTA                           SAO CAETANO - 136 - VILA SAO VICENTE - U            38026220                                                            000026
2SR. CAIXA, APOS O VENCIMENTO COBRAR 10% DE MULTA                                NAO RECEBER APOS 30 DIAS DO VENCIMENTO.                                                                                                                                                                                                         06021900000000000000602190000000000000       0090770900066125239885021919000027
100000000000000000000009077090006612500000000000000000000000010002100004735202191000000000002            2  01047352021925021900000003490860000000001N060219000000000000000000000000000000000000000000000000000000000000000100004735273832DARIO LUIZ GONCALVES                    RUA MONTE CASTELO - 295 AP.113 - AVIACAO            11702720                                                            000029
2SR. CAIXA, APOS O VENCIMENTO COBRAR 10% DE MULTA                                NAO RECEBER APOS 30 DIAS DO VENCIMENTO.                                                                                                                                                                                                         06021900000000000000602190000000000000       0090770900066125047352021910000030
100000000000000000000009077090006612500000000000000000000000010002100007635202191000000000002            2  01076352021925021900000003121040000000001N060219000000000000000000000000000000000000000000000000000000000000000100007635293893SILVIO CARDOSO ZACARIAS                 RUA SOLIDONIO LEITE - 2718 AP.102 BLOCO             03275000                                                            000032
2SR. CAIXA, APOS O VENCIMENTO COBRAR 10% DE MULTA                                NAO RECEBER APOS 30 DIAS DO VENCIMENTO.                                                                                                                                                                                                         06021900000000000000602190000000000000       0090770900066125076352021910000033
100000000000000000000009077090006612500000000000000000000000010002100067192902191000000000002            2  01671929021925021900000003055410000000001N060219000000000000000000000000000000000000000000000000000000000000000100067192920800SONIA MARIA RIBEIRO SUDO                RUA INGAZEIRA - 133 - SAO MIGUEL - SAO P            08032080                                                            000035
2SR. CAIXA, APOS O VENCIMENTO COBRAR 10% DE MULTA                                NAO RECEBER APOS 30 DIAS DO VENCIMENTO.                                                                                                                                                                                                         06021900000000000000602190000000000000       0090770900066125671929021910000036
100000000000000000000009077090006612500000000000000000000000010002100007975902191400000000002            2  01079759021925021900000003395520000000001N060219000000000000000000000000000000000000000000000000000000000000000100007975958808JOCY VIGNADO                            RUA PEDRO GONCALVES SOBRINHO - 568 - PAR            13098641                                                            000038
2SR. CAIXA, APOS O VENCIMENTO COBRAR 10% DE MULTA                                NAO RECEBER APOS 30 DIAS DO VENCIMENTO.                                                                                                                                                                                                         06021900000000000000602190000000000000       0090770900066125079759021914000039
100000000000000000000009077090006612500000000000000000000000010002100036712502191700000000002            2  01367125021925021900000003174950000000001N060219000000000000000000000000000000000000000000000000000000000000000100036712580803WALTER BARRETO DE ALMEIDA               RUA MONTE CASTELO - 296 AP.44 - AVIACAO             11702720                                                            000041
2SR. CAIXA, APOS O VENCIMENTO COBRAR 10% DE MULTA                                NAO RECEBER APOS 30 DIAS DO VENCIMENTO.                                                                                                                                                                                                         06021900000000000000602190000000000000       0090770900066125367125021917000042
100000000000000000000009077090006612500000000000000000000000010002100036386802191600000000002            2  01363868021925021900000003586180000000001N060219000000000000000000000000000000000000000000000000000000000000000100036386861833ALINE LEE WEI DE SOUZA                  AV. PRES.CASTELO BRANCO - 9127 AP.251 BL            11704600                                                            000044
2SR. CAIXA, APOS O VENCIMENTO COBRAR 10% DE MULTA                                NAO RECEBER APOS 30 DIAS DO VENCIMENTO.                                                                                                                                                                                                         06021900000000000000602190000000000000       0090770900066125363868021916000045
100000000000000000000009077090006612500000000000000000000000010002100070465302191700000000002            2  01704653021925021900000003262090000000001N060219000000000000000000000000000000000000000000000000000000000000000100070465320953SIDNEY CARASKI                          RUA DR.CELSO PACHECO BENTIM - 502 - PARQ            03571020                                                            000047
2SR. CAIXA, APOS O VENCIMENTO COBRAR 10% DE MULTA                                NAO RECEBER APOS 30 DIAS DO VENCIMENTO.                                                                                                                                                                                                         06021900000000000000602190000000000000       0090770900066125704653021917000048
100000000000000000000009077090006612500000000000000000000000010002100075759402191200000000002            2  01757594021925021900000002554490000000001N060219000000000000000000000000000000000000000000000000000000000000000100075759446800VALTER MUTAFEI                          RUA MONTE CASTELO - 295 AP.54 - AVIACAO             11702720                                                            000050
2SR. CAIXA, APOS O VENCIMENTO COBRAR 10% DE MULTA                                NAO RECEBER APOS 30 DIAS DO VENCIMENTO.                                                                                                                                                                                                         06021900000000000000602190000000000000       0090770900066125757594021912000051
100000000000000000000009077090006612500000000000000000000000010002100070328702191000000000002            2  01703287021925021900000003649740000000001N060219000000000000000000000000000000000000000000000000000000000000000100070328706868VALTER LIMA FERNANDES                   RUA DOMINGOS JORGE VELHO - 52 - CENTRO -            06843550                                                            000053
2SR. CAIXA, APOS O VENCIMENTO COBRAR 10% DE MULTA                                NAO RECEBER APOS 30 DIAS DO VENCIMENTO.                                                                                                                                                                                                         06021900000000000000602190000000000000       0090770900066125703287021910000054
100000000000000000000009077090006612500000000000000000000000010002100023132602191600000000002            2  01231326021925021900000001982500000000001N060219000000000000000000000000000000000000000000000000000000000000000100023132672882LEANDRO MORENO                          RUA MONTE CASTELO - 296 AP.64 - AVIACAO             11702720                                                            000056
2SR. CAIXA, APOS O VENCIMENTO COBRAR 10% DE MULTA                                NAO RECEBER APOS 30 DIAS DO VENCIMENTO.                                                                                                                                                                                                         06021900000000000000602190000000000000       0090770900066125231326021916000057
100000000000000000000009077090006612500000000000000000000000010002100099264602191500000000002            2  01992646021925021900000003380950000000001N060219000000000000000000000000000000000000000000000000000000000000000100099264692800LEONTINO PINHEIRO DA SILVA              AVENIDA JOAO BATISTA FITIPALDI - 469 - V            08685000                                                            000059
2SR. CAIXA, APOS O VENCIMENTO COBRAR 10% DE MULTA                                NAO RECEBER APOS 30 DIAS DO VENCIMENTO.                                                                                                                                                                                                         06021900000000000000602190000000000000       0090770900066125992646021915000060
100000000000000000000009077090006612500000000000000000000000010002100000666302191600000000002            2  01006663021925021900000003261690000000001N060219000000000000000000000000000000000000000000000000000000000000000100000666344825LUIZ HENRIQUE DE CAMPOS                 RUA JOAO CARLOS CAVALCANTI REIS - 21 - J            02281206                                                            000062
2SR. CAIXA, APOS O VENCIMENTO COBRAR 10% DE MULTA                                NAO RECEBER APOS 30 DIAS DO VENCIMENTO.                                                                                                                                                                                                         06021900000000000000602190000000000000       0090770900066125006663021916000063
100000000000000000000009077090006612500000000000000000000000010002100001204402191P00000000002            2  01012044021925021900000002805020000000001N060219000000000000000000000000000000000000000000000000000000000000000100001204431809CEZAR TALAVERA JUNIOR                   RUA MAESTRO ARTURO DE ANGELIS  - 190 AP.            05139010                                                            000065
2SR. CAIXA, APOS O VENCIMENTO COBRAR 10% DE MULTA                                NAO RECEBER APOS 30 DIAS DO VENCIMENTO.                                                                                                                                                                                                         06021900000000000000602190000000000000       009077090006612501204402191P000066
100000000000000000000009077090006612500000000000000000000000010002100004227502191900000000002            2  01042275021925021900000003636160000000001N060219000000000000000000000000000000000000000000000000000000000000000100004227553970ALESSANDRO ISRAEL GOULART               RUA PROFESSORA CARLINDA RIBEIRO - 21 - F            02866200                                                            000068
2SR. CAIXA, APOS O VENCIMENTO COBRAR 10% DE MULTA                                NAO RECEBER APOS 30 DIAS DO VENCIMENTO.                                                                                                                                                                                                         06021900000000000000602190000000000000       0090770900066125042275021919000069
100000000000000000000009077090006612500000000000000000000000010002100060811402191200000000002            2  01608114021925021900000003351140000000001N060219000000000000000000000000000000000000000000000000000000000000000100060811420868HELIO BASSI                             AV.PARIS,575 - PRACA ANTONIO FIGUEROA -             11700082                                                            000071
2SR. CAIXA, APOS O VENCIMENTO COBRAR 10% DE MULTA                                NAO RECEBER APOS 30 DIAS DO VENCIMENTO.                                                                                                                                                                                                         06021900000000000000602190000000000000       0090770900066125608114021912000072
100000000000000000000009077090006612500000000000000000000000010002100001024702191200000000002            2  01010247021925021900000003171080000000001N060219000000000000000000000000000000000000000000000000000000000000000100001024794881CLAUDIO RODRIGUES                       RUA ARACATUBA - 242 - LAPA - SAO PAULO -            05058010                                                            000074
2SR. CAIXA, APOS O VENCIMENTO COBRAR 10% DE MULTA                                NAO RECEBER APOS 30 DIAS DO VENCIMENTO.                                                                                                                                                                                                         06021900000000000000602190000000000000       0090770900066125010247021912000075
100000000000000000000009077090006612500000000000000000000000010002100002225002191300000000002            2  01022250021925021900000004861680000000001N060219000000000000000000000000000000000000000000000000000000000000000100002225072841PEDRO EDUARDO DE AZEVEDO                RUA NATH ZILMAN - 46 - JARDIM SAMAMBAIA             07600000                                                            000077
2SR. CAIXA, APOS O VENCIMENTO COBRAR 10% DE MULTA                                NAO RECEBER APOS 30 DIAS DO VENCIMENTO.                                                                                                                                                                                                         06021900000000000000602190000000000000       0090770900066125022250021913000078
100000000000000000000009077090006612500000000000000000000000010002100022037502191100000000002            2  01220375021925021900000003383190000000001N060219000000000000000000000000000000000000000000000000000000000000000100022037552882ANDREIA CRISTINA FERNANDES DANTAS       PCA CASTRO ALVES - 163 AP.33 - VILA SAO             13224299                                                            000080
2SR. CAIXA, APOS O VENCIMENTO COBRAR 10% DE MULTA                                NAO RECEBER APOS 30 DIAS DO VENCIMENTO.                                                                                                                                                                                                         06021900000000000000602190000000000000       0090770900066125220375021911000081
100000000000000000000009077090006612500000000000000000000000010002100019288702191P00000000002            2  01192887021925021900000002754690000000001N060219000000000000000000000000000000000000000000000000000000000000000100019288787844EMERSON LUIZ MARTINEZ PEREIRA           RUA MONTE CASTELO - 296 AP.74 - AVIACAO             11702720                                                            000083
2SR. CAIXA, APOS O VENCIMENTO COBRAR 10% DE MULTA                                NAO RECEBER APOS 30 DIAS DO VENCIMENTO.                                                                                                                                                                                                         06021900000000000000602190000000000000       009077090006612519288702191P000084
100000000000000000000009077090006612500000000000000000000000010002100027198402191300000000002            2  01271984021925021900000002333370000000001N060219000000000000000000000000000000000000000000000000000000000000000100027198452809CRISTIANE AURELIANO DA SILVA MAIA       RUA MONTE CASTELO - 262 AP.25 - AVIACAO             11702720                                                            000086
2SR. CAIXA, APOS O VENCIMENTO COBRAR 10% DE MULTA                                NAO RECEBER APOS 30 DIAS DO VENCIMENTO.                                                                                                                                                                                                         06021900000000000000602190000000000000       0090770900066125271984021913000087
100000000000000000000009077090006612500000000000000000000000010002100021246202191700000000002            2  01212462021925021900000002847640000000001N060219000000000000000000000000000000000000000000000000000000000000000100021246231840ALEXANDRO DA CUNHA MIGUES               AVENIDA CONSELHEIRO CARRAO - 1861 CONJ.5            03403001                                                            000089
2SR. CAIXA, APOS O VENCIMENTO COBRAR 10% DE MULTA                                NAO RECEBER APOS 30 DIAS DO VENCIMENTO.                                                                                                                                                                                                         06021900000000000000602190000000000000       0090770900066125212462021917000090
100000000000000000000009077090006612500000000000000000000000010002100018834202191500000000002            2  01188342021925021900000003326340000000001N060219000000000000000000000000000000000000000000000000000000000000000100018834257863ILTON FERNANDO MUTCHNIK                 RUA ASSUNGUI - 700 AP.222 - VILA GUMERCI            04131001                                                            000092
2SR. CAIXA, APOS O VENCIMENTO COBRAR 10% DE MULTA                                NAO RECEBER APOS 30 DIAS DO VENCIMENTO.                                                                                                                                                                                                         06021900000000000000602190000000000000       0090770900066125188342021915000093
100000000000000000000009077090006612500000000000000000000000010002100018470502191700000000002            2  01184705021925021900000004189280000000001N060219000000000000000000000000000000000000000000000000000000000000000100018470520881SILVANA ALVES DE OLIVEIRA               RUA MONTE CASTELO - 262 AP.91 - AVIACAO             11702720                                                            000095
2SR. CAIXA, APOS O VENCIMENTO COBRAR 10% DE MULTA                                NAO RECEBER APOS 30 DIAS DO VENCIMENTO.                                                                                                                                                                                                         06021900000000000000602190000000000000       0090770900066125184705021917000096
100000000000000000000009077090006612500000000000000000000000010002100009297502191700000000002            2  01092975021925021900000002916530000000001N060219000000000000000000000000000000000000000000000000000000000000000100009297523846MARCOS ROBERTO DE CASTRO FERREIRA       RUA MONTE CASTELO - 262 AP.105 - AVIACAO            11702720                                                            000098
2SR. CAIXA, APOS O VENCIMENTO COBRAR 10% DE MULTA                                NAO RECEBER APOS 30 DIAS DO VENCIMENTO.                                                                                                                                                                                                         06021900000000000000602190000000000000       0090770900066125092975021917000099
100000000000000000000009077090006612500000000000000000000000010002100001164102191600000000002            2  01011641021925021900000003614250000000001N060219000000000000000000000000000000000000000000000000000000000000000100001164158864DAVID BLEY LACERDA                      RUA CONEGO ARAUJO MARCONDES - 188 - BAIR            02550080                                                            000101
2SR. CAIXA, APOS O VENCIMENTO COBRAR 10% DE MULTA                                NAO RECEBER APOS 30 DIAS DO VENCIMENTO.                                                                                                                                                                                                         06021900000000000000602190000000000000       0090770900066125011641021916000102
100000000000000000000009077090006612500000000000000000000000010002100031498002191P00000000002            2  01314980021925021900000004392610000000001N060219000000000000000000000000000000000000000000000000000000000000000100031498008895POLIANE  SIBELE DA SILVA                PRACA GENERAL COSTA BARRETO - 56 AP.181             03325070                                                            000104
2SR. CAIXA, APOS O VENCIMENTO COBRAR 10% DE MULTA                                NAO RECEBER APOS 30 DIAS DO VENCIMENTO.                                                                                                                                                                                                         06021900000000000000602190000000000000       009077090006612531498002191P000105
100000000000000000000009077090006612500000000000000000000000010002100000588102191300000000002            2  01005881021925021900000002576350000000001N060219000000000000000000000000000000000000000000000000000000000000000100000588109860JOSE LIARTE GIANTE                      AVENIDA LUIZ GONZAGA DO AMARAL - 143 - J            09320630                                                            000107
2SR. CAIXA, APOS O VENCIMENTO COBRAR 10% DE MULTA                                NAO RECEBER APOS 30 DIAS DO VENCIMENTO.                                                                                                                                                                                                         06021900000000000000602190000000000000       0090770900066125005881021913000108
100000000000000000000009077090006612500000000000000000000000010002100014386802191600000000002            2  01143868021925021900000002060960000000001N060219000000000000000000000000000000000000000000000000000000000000000100014386860134SEVERINO CARLOS DE OLIVEIRA             RUA MONTE CASTELO - 262 AP.54 - AVIACAO             11702720                                                            000110
2SR. CAIXA, APOS O VENCIMENTO COBRAR 10% DE MULTA                                NAO RECEBER APOS 30 DIAS DO VENCIMENTO.                                                                                                                                                                                                         06021900000000000000602190000000000000       0090770900066125143868021916000111
100000000000000000000009077090006612500000000000000000000000010002100029088202191300000000002            2  01290882021925021900000002291260000000001N060219000000000000000000000000000000000000000000000000000000000000000100029088221804FABIANO SPERANDEO                       RUA MONTE CASTELO - 296 AP.93 - AVIACAO             11702720                                                            000113
2SR. CAIXA, APOS O VENCIMENTO COBRAR 10% DE MULTA                                NAO RECEBER APOS 30 DIAS DO VENCIMENTO.                                                                                                                                                                                                         06021900000000000000602190000000000000       0090770900066125290882021913000114
100000000000000000000009077090006612500000000000000000000000010002100039393702191100000000002            2  01393937021925021900000001420430000000001N060219000000000000000000000000000000000000000000000000000000000000000100039393790850NAIRON RICARDO DE ARAUJO SANTOS         RUA MONTE CASTELO - 262 AP.23 - AVIACAO             11702720                                                            000116
2SR. CAIXA, APOS O VENCIMENTO COBRAR 10% DE MULTA                                NAO RECEBER APOS 30 DIAS DO VENCIMENTO.                                                                                                                                                                                                         06021900000000000000602190000000000000       0090770900066125393937021911000117
100000000000000000000009077090006612500000000000000000000000010002100041896802191200000000002            2  01418968021925021900000002068640000000001N060219000000000000000000000000000000000000000000000000000000000000000100041896807968SERGIO ROBERTO DA SILVA                 RUA DOS INGLESES - 542 AP.61 - MORRO DOS            01329000                                                            000119
2SR. CAIXA, APOS O VENCIMENTO COBRAR 10% DE MULTA                                NAO RECEBER APOS 30 DIAS DO VENCIMENTO.                                                                                                                                                                                                         06021900000000000000602190000000000000       0090770900066125418968021912000120
9                                                                                                                                                                                                                                                                                                                                                                                                         000121