01REMESSA01COBRANCA       00000000000005316116AIRES CONSTRUTORA E INCORPORAD237BRADESCO       011222        MX0000207                                                                                                                                                                                                                                                                                     000001
100000000000000000000009002800441612000000000000000000000000010002100025215112221500000000002            2  01252151122210122200000003185180000000001N011222000000000000000000000000000000000000000000000000000000000000000100025215106886KLEBER LUIZ DOS SANTOS                  RUA MONTE CASTELO - 262 AP.15 - AVIACAO             11702720                                                            000002
2SR. CAIXA, APOS O VENCIMENTO COBRAR 10% DE MULTA                                NAO RECEBER APOS 30 DIAS DO VENCIMENTO.                                                                                                                                                                                                         01122200000000000000112220000000000000       0090028004416120252151122215000003
100000000000000000000009002800441612000000000000000000000000010002100018344812221200000000002            2  01183448122210122200000004664120000000001N011222000000000000000000000000000000000000000000000000000000000000000100018344803888MARCELO BERNARDO                        RUA MONTE CASTELO - 262 AP.84 - AVIACAO             11702720                                                            000005
2SR. CAIXA, APOS O VENCIMENTO COBRAR 10% DE MULTA                                NAO RECEBER APOS 30 DIAS DO VENCIMENTO.                                                                                                                                                                                                         01122200000000000000112220000000000000       0090028004416120183448122212000006
100000000000000000000009002800441612000000000000000000000000010002100031803812221800000000002            2  01318038122210122200000003766520000000001N011222000000000000000000000000000000000000000000000000000000000000000100031803864877ELEILSON FELIPPE SANTOS                 RUA SANTA GREGORIA - 193 - CIDADE DUTRA             04806030                                                            000008
2SR. CAIXA, APOS O VENCIMENTO COBRAR 10% DE MULTA                                NAO RECEBER APOS 30 DIAS DO VENCIMENTO.                                                                                                                                                                                                         01122200000000000000112220000000000000       0090028004416120318038122218000009
100000000000000000000009002800441612000000000000000000000000010002100063064512221200000000002            2  01630645122210122200000004488470000000001N011222000000000000000000000000000000000000000000000000000000000000000100063064537849ANTONIO APARECIDO DA SILVA DESTEFANO    RUA PROFESSOR TEODORO BRAGA - 46 - VILA             02966020                                                            000011
2SR. CAIXA, APOS O VENCIMENTO COBRAR 10% DE MULTA                                NAO RECEBER APOS 30 DIAS DO VENCIMENTO.                                                                                                                                                                                                         01122200000000000000112220000000000000       0090028004416120630645122212000012
100000000000000000000009002800441612000000000000000000000000010002100005920512221100000000002            2  01059205122210122200000002613230000000001N011222000000000000000000000000000000000000000000000000000000000000000100005920579846SONIA MARIA VALDO POLLO                 RUA PALMIRA CERVI BARBARO - 797 - CIDADE            13214370                                                            000014
2SR. CAIXA, APOS O VENCIMENTO COBRAR 10% DE MULTA                                NAO RECEBER APOS 30 DIAS DO VENCIMENTO.                                                                                                                                                                                                         01122200000000000000112220000000000000       0090028004416120059205122211000015
100000000000000000000009002800441612000000000000000000000000010002100002494112221200000000002            2  01024941122210122200000003929080000000001N011222000000000000000000000000000000000000000000000000000000000000000100002494107881CIRO FRANCISCO MARCHI DURIGON           RUA MONTE CASTELO - 262 AP.115 - AVIACAO            11702720                                                            000017
2SR. CAIXA, APOS O VENCIMENTO COBRAR 10% DE MULTA                                NAO RECEBER APOS 30 DIAS DO VENCIMENTO.                                                                                                                                                                                                         01122200000000000000112220000000000000       0090028004416120024941122212000018
100000000000000000000009002800441612000000000000000000000000010002100016299012221300000000002            2  01162990122210122200000003723410000000001N011222000000000000000000000000000000000000000000000000000000000000000100016299008857FERNANDO CESAR CARVALHO                 AVENIDA MARCONDES DE BRITO - 1340 AP.74             03509000                                                            000020
2SR. CAIXA, APOS O VENCIMENTO COBRAR 10% DE MULTA                                NAO RECEBER APOS 30 DIAS DO VENCIMENTO.                                                                                                                                                                                                         01122200000000000000112220000000000000       0090028004416120162990122213000021
100000000000000000000009002800441612000000000000000000000000010002100055975312221400000000002            2  01559753122210122200000000850300000000001N011222000000000000000000000000000000000000000000000000000000000000000100055975372887BENEVENUTO THEODORO DA SILVA NETO       RUA MONTE CASTELO - 296 AP.63 - AVIACAO             11702720                                                            000023
2SR. CAIXA, APOS O VENCIMENTO COBRAR 10% DE MULTA                                NAO RECEBER APOS 30 DIAS DO VENCIMENTO.                                                                                                                                                                                                         01122200000000000000112220000000000000       0090028004416120559753122214000024
100000000000000000000009002800441612000000000000000000000000010002100087902712221800000000002            2  01879027122210122200000003120180000000001N011222000000000000000000000000000000000000000000000000000000000000000100087902737887WAGNER CERQUEIRA VILA NOVA              RUA JOAQUIM FERREIRA - 124 AP.211 T.01 -            05033080                                                            000026
2SR. CAIXA, APOS O VENCIMENTO COBRAR 10% DE MULTA                                NAO RECEBER APOS 30 DIAS DO VENCIMENTO.                                                                                                                                                                                                         01122200000000000000112220000000000000       0090028004416120879027122218000027
9                                                                                                                                                                                                                                                                                                                                                                                                         000028