01REMESSA01COBRANCA       00000000000005316116AIRES CONSTRUTORA E INCORPORAD237BRADESCO       010421        MX0000168                                                                                                                                                                                                                                                                                     000001
100000000000000000000009002800441612000000000000000000000000010002100029380704211400000000002            2  01293807042125042100000003599840000000001N010421000000000000000000000000000000000000000000000000000000000000000100029380708882EDUARDO MENDONCA DAMASCENO              RUA MONTE CASTELO - 296 AP.12 - AVIACAO             11702720                                                            000002
2SR. CAIXA, APOS O VENCIMENTO COBRAR 10% DE MULTA                                NAO RECEBER APOS 30 DIAS DO VENCIMENTO.                                                                                                                                                                                                         01042100000000000000104210000000000000       0090028004416120293807042114000003
100000000000000000000009002800441612000000000000000000000000010002100023988504211800000000002            2  01239885042125042100000003655220000000001N010421000000000000000000000000000000000000000000000000000000000000000100023988525634DALMY PIMENTA                           RUA JOAQUIM TELESFORO DE OLIVEIRA - 344             38061608                                                            000005
2SR. CAIXA, APOS O VENCIMENTO COBRAR 10% DE MULTA                                NAO RECEBER APOS 30 DIAS DO VENCIMENTO.                                                                                                                                                                                                         01042100000000000000104210000000000000       0090028004416120239885042118000006
100000000000000000000009002800441612000000000000000000000000010002100007975904211300000000002            2  01079759042125042100000003865680000000001N010421000000000000000000000000000000000000000000000000000000000000000100007975958808JOCY VIGNADO                            RUA PEDRO GONCALVES SOBRINHO - 568 - PAR            13098641                                                            000008
2SR. CAIXA, APOS O VENCIMENTO COBRAR 10% DE MULTA                                NAO RECEBER APOS 30 DIAS DO VENCIMENTO.                                                                                                                                                                                                         01042100000000000000104210000000000000       0090028004416120079759042113000009
100000000000000000000009002800441612000000000000000000000000010002100023132604211500000000002            2  01231326042125042100000002256980000000001N010421000000000000000000000000000000000000000000000000000000000000000100023132672882LEANDRO MORENO                          RUA MONTE CASTELO - 296 AP.64 - AVIACAO             11702720                                                            000011
2SR. CAIXA, APOS O VENCIMENTO COBRAR 10% DE MULTA                                NAO RECEBER APOS 30 DIAS DO VENCIMENTO.                                                                                                                                                                                                         01042100000000000000104210000000000000       0090028004416120231326042115000012
100000000000000000000009002800441612000000000000000000000000010002100099264604211400000000002            2  01992646042125042100000003849090000000001N010421000000000000000000000000000000000000000000000000000000000000000100099264692800LEONTINO PINHEIRO DA SILVA              AVENIDA JOAO BATISTA FITIPALDI - 469 - V            08685000                                                            000014
2SR. CAIXA, APOS O VENCIMENTO COBRAR 10% DE MULTA                                NAO RECEBER APOS 30 DIAS DO VENCIMENTO.                                                                                                                                                                                                         01042100000000000000104210000000000000       0090028004416120992646042114000015
100000000000000000000009002800441612000000000000000000000000010002100000666304211500000000002            2  01006663042125042100000003713290000000001N010421000000000000000000000000000000000000000000000000000000000000000100000666344825LUIZ HENRIQUE DE CAMPOS                 RUA JOAO CARLOS CAVALCANTI REIS - 21 - J            02281206                                                            000017
2SR. CAIXA, APOS O VENCIMENTO COBRAR 10% DE MULTA                                NAO RECEBER APOS 30 DIAS DO VENCIMENTO.                                                                                                                                                                                                         01042100000000000000104210000000000000       0090028004416120006663042115000018
100000000000000000000009002800441612000000000000000000000000010002100029155004211500000000002            2  01291550042125042100000003921380000000001N010421000000000000000000000000000000000000000000000000000000000000000100029155026842DANIELA YOSHIDA                         RUA MONTE CASTELO - 262 AP.34 - AVIACAO             11702720                                                            000020
2SR. CAIXA, APOS O VENCIMENTO COBRAR 10% DE MULTA                                NAO RECEBER APOS 30 DIAS DO VENCIMENTO.                                                                                                                                                                                                         01042100000000000000104210000000000000       0090028004416120291550042115000021
100000000000000000000009002800441612000000000000000000000000010002100001204404211900000000002            2  01012044042125042100000003193420000000001N010421000000000000000000000000000000000000000000000000000000000000000100001204431809CEZAR TALAVERA JUNIOR                   RUA MAESTRO ARTURO DE ANGELIS  - 190 AP.            05139010                                                            000023
2SR. CAIXA, APOS O VENCIMENTO COBRAR 10% DE MULTA                                NAO RECEBER APOS 30 DIAS DO VENCIMENTO.                                                                                                                                                                                                         01042100000000000000104210000000000000       0090028004416120012044042119000024
100000000000000000000009002800441612000000000000000000000000010002100004227504211800000000002            2  01042275042125042100000004139630000000001N010421000000000000000000000000000000000000000000000000000000000000000100004227553970ALESSANDRO ISRAEL GOULART               RUA PROFESSORA CARLINDA RIBEIRO - 21 - F            02866200                                                            000026
2SR. CAIXA, APOS O VENCIMENTO COBRAR 10% DE MULTA                                NAO RECEBER APOS 30 DIAS DO VENCIMENTO.                                                                                                                                                                                                         01042100000000000000104210000000000000       0090028004416120042275042118000027
100000000000000000000009002800441612000000000000000000000000010002100060811404211100000000002            2  01608114042125042100000003815140000000001N010421000000000000000000000000000000000000000000000000000000000000000100060811420868HELIO BASSI                             AV.PARIS,575 - PRACA ANTONIO FIGUEROA -             11700082                                                            000029
2SR. CAIXA, APOS O VENCIMENTO COBRAR 10% DE MULTA                                NAO RECEBER APOS 30 DIAS DO VENCIMENTO.                                                                                                                                                                                                         01042100000000000000104210000000000000       0090028004416120608114042111000030
100000000000000000000009002800441612000000000000000000000000010002100001024704211100000000002            2  01010247042125042100000003610130000000001N010421000000000000000000000000000000000000000000000000000000000000000100001024794881CLAUDIO RODRIGUES                       RUA ARACATUBA - 242 - LAPA - SAO PAULO -            05058010                                                            000032
2SR. CAIXA, APOS O VENCIMENTO COBRAR 10% DE MULTA                                NAO RECEBER APOS 30 DIAS DO VENCIMENTO.                                                                                                                                                                                                         01042100000000000000104210000000000000       0090028004416120010247042111000033
100000000000000000000009002800441612000000000000000000000000010002100002225004211200000000002            2  01022250042125042100000005534830000000001N010421000000000000000000000000000000000000000000000000000000000000000100002225072841PEDRO EDUARDO DE AZEVEDO                RUA NATH ZILMAN - 46 - JARDIM SAMAMBAIA             07623085                                                            000035
2SR. CAIXA, APOS O VENCIMENTO COBRAR 10% DE MULTA                                NAO RECEBER APOS 30 DIAS DO VENCIMENTO.                                                                                                                                                                                                         01042100000000000000104210000000000000       0090028004416120022250042112000036
100000000000000000000009002800441612000000000000000000000000010002100022037504211000000000002            2  01220375042125042100000003851620000000001N010421000000000000000000000000000000000000000000000000000000000000000100022037552882ANDREIA CRISTINA FERNANDES DANTAS       PCA CASTRO ALVES - 163 AP.33 - VILA SAO             13224299                                                            000038
2SR. CAIXA, APOS O VENCIMENTO COBRAR 10% DE MULTA                                NAO RECEBER APOS 30 DIAS DO VENCIMENTO.                                                                                                                                                                                                         01042100000000000000104210000000000000       0090028004416120220375042110000039
100000000000000000000009002800441612000000000000000000000000010002100027198404211200000000002            2  01271984042125042100000002656440000000001N010421000000000000000000000000000000000000000000000000000000000000000100027198452809CRISTIANE AURELIANO DA SILVA MAIA       RUA MONTE CASTELO - 262 AP.25 - AVIACAO             11702720                                                            000041
2SR. CAIXA, APOS O VENCIMENTO COBRAR 10% DE MULTA                                NAO RECEBER APOS 30 DIAS DO VENCIMENTO.                                                                                                                                                                                                         01042100000000000000104210000000000000       0090028004416120271984042112000042
100000000000000000000009002800441612000000000000000000000000010002100021246204211600000000002            2  01212462042125042100000003241930000000001N010421000000000000000000000000000000000000000000000000000000000000000100021246231840ALEXANDRO DA CUNHA MIGUES               RUA DULCE - 71  - VILA CARRAO - SAO PAUL            03427040                                                            000044
2SR. CAIXA, APOS O VENCIMENTO COBRAR 10% DE MULTA                                NAO RECEBER APOS 30 DIAS DO VENCIMENTO.                                                                                                                                                                                                         01042100000000000000104210000000000000       0090028004416120212462042116000045
100000000000000000000009002800441612000000000000000000000000010002100018470504211600000000002            2  01184705042125042100000004769340000000001N010421000000000000000000000000000000000000000000000000000000000000000100018470520881SILVANA ALVES DE OLIVEIRA               RUA MONTE CASTELO - 262 AP.91 - AVIACAO             11702720                                                            000047
2SR. CAIXA, APOS O VENCIMENTO COBRAR 10% DE MULTA                                NAO RECEBER APOS 30 DIAS DO VENCIMENTO.                                                                                                                                                                                                         01042100000000000000104210000000000000       0090028004416120184705042116000048
100000000000000000000009002800441612000000000000000000000000010002100009297504211600000000002            2  01092975042125042100000003320360000000001N010421000000000000000000000000000000000000000000000000000000000000000100009297523846MARCOS ROBERTO DE CASTRO FERREIRA       RUA MONTE CASTELO - 262 AP.105 - AVIACAO            11702720                                                            000050
2SR. CAIXA, APOS O VENCIMENTO COBRAR 10% DE MULTA                                NAO RECEBER APOS 30 DIAS DO VENCIMENTO.                                                                                                                                                                                                         01042100000000000000104210000000000000       0090028004416120092975042116000051
100000000000000000000009002800441612000000000000000000000000010002100001164104211500000000002            2  01011641042125042100000004114700000000001N010421000000000000000000000000000000000000000000000000000000000000000100001164158864DAVID BLEY LACERDA                      RUA CONEGO ARAUJO MARCONDES - 188 - BAIR            02550080                                                            000053
2SR. CAIXA, APOS O VENCIMENTO COBRAR 10% DE MULTA                                NAO RECEBER APOS 30 DIAS DO VENCIMENTO.                                                                                                                                                                                                         01042100000000000000104210000000000000       0090028004416120011641042115000054
100000000000000000000009002800441612000000000000000000000000010002100031498004211900000000002            2  01314980042125042100000005000820000000001N010421000000000000000000000000000000000000000000000000000000000000000100031498008895POLIANE  SIBELE DA SILVA                PRACA GENERAL COSTA BARRETO - 56 AP.181             03325070                                                            000056
2SR. CAIXA, APOS O VENCIMENTO COBRAR 10% DE MULTA                                NAO RECEBER APOS 30 DIAS DO VENCIMENTO.                                                                                                                                                                                                         01042100000000000000104210000000000000       0090028004416120314980042119000057
100000000000000000000009002800441612000000000000000000000000010002100000588104211200000000002            2  01005881042125042100000002933060000000001N010421000000000000000000000000000000000000000000000000000000000000000100000588109860JOSE LIARTE GIANTE                      AVENIDA LUIZ GONZAGA DO AMARAL - 143 - J            09320630                                                            000059
2SR. CAIXA, APOS O VENCIMENTO COBRAR 10% DE MULTA                                NAO RECEBER APOS 30 DIAS DO VENCIMENTO.                                                                                                                                                                                                         01042100000000000000104210000000000000       0090028004416120005881042112000060
100000000000000000000009002800441612000000000000000000000000010002100014386804211500000000002            2  01143868042125042100000002346340000000001N010421000000000000000000000000000000000000000000000000000000000000000100014386860134SEVERINO CARLOS DE OLIVEIRA             RUA MONTE CASTELO - 262 AP.54 - AVIACAO             11702720                                                            000062
2SR. CAIXA, APOS O VENCIMENTO COBRAR 10% DE MULTA                                NAO RECEBER APOS 30 DIAS DO VENCIMENTO.                                                                                                                                                                                                         01042100000000000000104210000000000000       0090028004416120143868042115000063
100000000000000000000009002800441612000000000000000000000000010002100039393704211000000000002            2  01393937042125042100000001617130000000001N010421000000000000000000000000000000000000000000000000000000000000000100039393790850NAIRON RICARDO DE ARAUJO SANTOS         RUA NITEROI - 267 CASA 04 - JARDIM INDEP            11380350                                                            000065
2SR. CAIXA, APOS O VENCIMENTO COBRAR 10% DE MULTA                                NAO RECEBER APOS 30 DIAS DO VENCIMENTO.                                                                                                                                                                                                         01042100000000000000104210000000000000       0090028004416120393937042110000066
100000000000000000000009002800441612000000000000000000000000010002100004735204211P00000000002            2  01047352042125042100000001668080000000001N010421000000000000000000000000000000000000000000000000000000000000000100004735273832DARIO LUIZ GONCALVES                    RUA MONTE CASTELO - 295 AP.113 - AVIACAO            11702720                                                            000068
2SR. CAIXA, APOS O VENCIMENTO COBRAR 10% DE MULTA                                NAO RECEBER APOS 30 DIAS DO VENCIMENTO.                                                                                                                                                                                                         01042100000000000000104210000000000000       009002800441612004735204211P000069
100000000000000000000009002800441612000000000000000000000000010002100019288704211900000000002            2  01192887042125042100000002177840000000001N010421000000000000000000000000000000000000000000000000000000000000000100019288787844EMERSON LUIZ MARTINEZ PEREIRA           RUA MONTE CASTELO - 296 AP.74 - AVIACAO             11702720                                                            000071
2SR. CAIXA, APOS O VENCIMENTO COBRAR 10% DE MULTA                                NAO RECEBER APOS 30 DIAS DO VENCIMENTO.                                                                                                                                                                                                         01042100000000000000104210000000000000       0090028004416120192887042119000072
9                                                                                                                                                                                                                                                                                                                                                                                                         000073