01REMESSA01COBRANCA       00000000000008017025HB SANTOS CONSTRUTORA E INCORP237BRADESCO       010224        MX0000195                                                                                                                                                                                                                                                                                     000001
100000000000000000000009033990000627000000000000000000000000010002020016479002241100000000002            2  01164790022409022400000005795300000000001N010224000000000000000000000000000000000000000000000000000000000000000100016479002806LOURDES PEREIRA DE QUEIROZ SECANECHIA   RUA PAULINO CURSI - 437 - CIDADE SAO MAT            03960060                                                            000002
2SR. CAIXA, APOS O VENCIMENTO COBRAR 2% DE MULTA                                 NAO RECEBER APOS 30 DIAS DO VENCIMENTO.                                                                                                                                                                                                         01022400000000000000102240000000000000       0090339900006270164790022411000003
100000000000000000000009033990000627000000000000000000000000010002020017229702242100000000002            2  01172297022409022400000004410180000000001N010224000000000000000000000000000000000000000000000000000000000000000100017229751802BERENICE VIEIRA KERSTING                RUA ATIBAIA - 17 AP.417 - BAIRRO IMPERAD            11707380                                                            000005
2SR. CAIXA, APOS O VENCIMENTO COBRAR 2% DE MULTA                                 NAO RECEBER APOS 30 DIAS DO VENCIMENTO.                                                                                                                                                                                                         01022400000000000000102240000000000000       0090339900006270172297022421000006
100000000000000000000009033990000627000000000000000000000000010002020009361402241900000000002            2  01093614022409022400000004207400000000001N010224000000000000000000000000000000000000000000000000000000000000000100009361471805JOSE BARBOSA DA SILVA                   RUA ALFREDO INACIO TRINDADE  - 60 AP.44             02344100                                                            000008
2SR. CAIXA, APOS O VENCIMENTO COBRAR 2% DE MULTA                                 NAO RECEBER APOS 30 DIAS DO VENCIMENTO.                                                                                                                                                                                                         01022400000000000000102240000000000000       0090339900006270093614022419000009
100000000000000000000009033990000627000000000000000000000000010002020012756902241200000000002            2  01127569022409022400000003631890000000001N010224000000000000000000000000000000000000000000000000000000000000000100012756959812ITAMAR JUVENAL DIAS DA SILVA            RUA ELISEU REINALDO MORAES VIEIRA - 90 A            02858000                                                            000011
2SR. CAIXA, APOS O VENCIMENTO COBRAR 2% DE MULTA                                 NAO RECEBER APOS 30 DIAS DO VENCIMENTO.                                                                                                                                                                                                         01022400000000000000102240000000000000       0090339900006270127569022412000012
100000000000000000000009033990000627000000000000000000000000010002020029433602241600000000002            2  01294336022411022400000003010910000000001N010224000000000000000000000000000000000000000000000000000000000000000100029433631897MARIO MUNIZ                             RUA JOSE CALIXTO DO CARMO - 286 AP.53 -             11702690                                                            000014
2SR. CAIXA, APOS O VENCIMENTO COBRAR 2% DE MULTA                                 NAO RECEBER APOS 30 DIAS DO VENCIMENTO.                                                                                                                                                                                                         01022400000000000000102240000000000000       0090339900006270294336022416000015
100000000000000000000009033990000627000000000000000000000000010002020005029802241900000000002            2  01050298022409022400000003702920000000001N010224000000000000000000000000000000000000000000000000000000000000000100005029828885LAURINETE DA CONCEICAO DE NORONHA       RUA MARIA LUCIA DE TOLEDO LEITE MORAES -            04434040                                                            000017
2SR. CAIXA, APOS O VENCIMENTO COBRAR 2% DE MULTA                                 NAO RECEBER APOS 30 DIAS DO VENCIMENTO.                                                                                                                                                                                                         01022400000000000000102240000000000000       0090339900006270050298022419000018
100000000000000000000009033990000627000000000000000000000000010002020013388902241000000000002            2  01133889022411022400000002935180000000001N010224000000000000000000000000000000000000000000000000000000000000000100013388936889NEUTON DE SOUZA RAMOS                   RUA JOSE CALIXTO DO CARMO - 286 AP.61 -             11702690                                                            000020
2SR. CAIXA, APOS O VENCIMENTO COBRAR 2% DE MULTA                                 NAO RECEBER APOS 30 DIAS DO VENCIMENTO.                                                                                                                                                                                                         01022400000000000000102240000000000000       0090339900006270133889022410000021
100000000000000000000009033990000627000000000000000000000000010002020012774902241000000000002            2  01127749022411022400000002990280000000001N010224000000000000000000000000000000000000000000000000000000000000000100012774906865JOSE MILTON SANTIAGO                    RUA BATATAIS - 47 - CIDADE ESTELA - POA             08563140                                                            000023
2SR. CAIXA, APOS O VENCIMENTO COBRAR 2% DE MULTA                                 NAO RECEBER APOS 30 DIAS DO VENCIMENTO.                                                                                                                                                                                                         01022400000000000000102240000000000000       0090339900006270127749022410000024
100000000000000000000009033990000627000000000000000000000000010002020007574902241000000000002            2  01075749022411022400000002823050000000001N010224000000000000000000000000000000000000000000000000000000000000000100007574936889JORGE LUCIANO PEREIRA BORRIELLO         RUA JOSE CALIXTO DO CARMO - 286 AP.54 -             11702690                                                            000026
2SR. CAIXA, APOS O VENCIMENTO COBRAR 2% DE MULTA                                 NAO RECEBER APOS 30 DIAS DO VENCIMENTO.                                                                                                                                                                                                         01022400000000000000102240000000000000       0090339900006270075749022410000027
100000000000000000000009033990000627000000000000000000000000010002020008214902241300000000002            2  01082149022411022400000002865880000000001N010224000000000000000000000000000000000000000000000000000000000000000100008214973830JAMIL CHALA                             RUA JOSE CALIXTO DO CARMO - 286 AP.22 -             11702690                                                            000029
2SR. CAIXA, APOS O VENCIMENTO COBRAR 2% DE MULTA                                 NAO RECEBER APOS 30 DIAS DO VENCIMENTO.                                                                                                                                                                                                         01022400000000000000102240000000000000       0090339900006270082149022413000030
100000000000000000000009033990000627000000000000000000000000010002020032495002241000000000002            2  01324950022411022400000003211590000000001N010224000000000000000000000000000000000000000000000000000000000000000100032495004881PAULO EDUARDO DOS SANTOS                RUA REPUBLICA DO IRAQUE - 1119 - CAMPO B            04611002                                                            000032
2SR. CAIXA, APOS O VENCIMENTO COBRAR 2% DE MULTA                                 NAO RECEBER APOS 30 DIAS DO VENCIMENTO.                                                                                                                                                                                                         01022400000000000000102240000000000000       0090339900006270324950022410000033
100000000000000000000009033990000627000000000000000000000000010002020016498002241800000000002            2  01164980022411022400000002816640000000001N010224000000000000000000000000000000000000000000000000000000000000000100016498053810GILMA CEZARIO GARCIA CORRITORI          RUA LAURENTINO XAVIER DOS SANTOS - 336 -            08240740                                                            000035
2SR. CAIXA, APOS O VENCIMENTO COBRAR 2% DE MULTA                                 NAO RECEBER APOS 30 DIAS DO VENCIMENTO.                                                                                                                                                                                                         01022400000000000000102240000000000000       0090339900006270164980022418000036
100000000000000000000009033990000627000000000000000000000000010002020029339002241700000000002            2  01293390022411022400000003011920000000001N010224000000000000000000000000000000000000000000000000000000000000000100029339051831RONALD DIDOFF                           RUA CORONEL FERREIRA BRAGA - 188 - VILA             03522010                                                            000038
2SR. CAIXA, APOS O VENCIMENTO COBRAR 2% DE MULTA                                 NAO RECEBER APOS 30 DIAS DO VENCIMENTO.                                                                                                                                                                                                         01022400000000000000102240000000000000       0090339900006270293390022417000039
100000000000000000000009033990000627000000000000000000000000010002020017357802241900000000002            2  01173578022411022400000003189900000000001N010224000000000000000000000000000000000000000000000000000000000000000100017357859894MARCIO GUIMARAES                        RUA GENERAL CAMARA - 188 SALA 11 - CENTR            11010120                                                            000041
2SR. CAIXA, APOS O VENCIMENTO COBRAR 2% DE MULTA                                 NAO RECEBER APOS 30 DIAS DO VENCIMENTO.                                                                                                                                                                                                         01022400000000000000102240000000000000       0090339900006270173578022419000042
100000000000000000000009033990000627000000000000000000000000010002020005529602241300000000002            2  01055296022411022400000002968700000000001N010224000000000000000000000000000000000000000000000000000000000000000100005529616801JOAQUIM JORGE DA COSTA                  RUA JOSE CALIXTO DO CARMO - 286 AP.106 -            11702690                                                            000044
2SR. CAIXA, APOS O VENCIMENTO COBRAR 2% DE MULTA                                 NAO RECEBER APOS 30 DIAS DO VENCIMENTO.                                                                                                                                                                                                         01022400000000000000102240000000000000       0090339900006270055296022413000045
100000000000000000000009033990000627000000000000000000000000010002020015550702241P00000000002            2  01155507022409022400000002806820000000001N010224000000000000000000000000000000000000000000000000000000000000000100015550706806MARY MIWA                               RUA CARLOS JOSE BORSTENS - 50 AP.105 - A            11702750                                                            000047
2SR. CAIXA, APOS O VENCIMENTO COBRAR 2% DE MULTA                                 NAO RECEBER APOS 30 DIAS DO VENCIMENTO.                                                                                                                                                                                                         01022400000000000000102240000000000000       009033990000627015550702241P000048
100000000000000000000009033990000627000000000000000000000000010002020015464602241P00000000002            2  01154646022411022400000003120820000000001N010224000000000000000000000000000000000000000000000000000000000000000100015464647864SONIA TERESA VOLPATO                    RUA JOSE CALIXTO DO CARMO - 286 AP.73 -             11702690                                                            000050
2SR. CAIXA, APOS O VENCIMENTO COBRAR 2% DE MULTA                                 NAO RECEBER APOS 30 DIAS DO VENCIMENTO.                                                                                                                                                                                                         01022400000000000000102240000000000000       009033990000627015464602241P000051
100000000000000000000009033990000627000000000000000000000000010002020008657802241900000000002            2  01086578022411022400000003089500000000001N010224000000000000000000000000000000000000000000000000000000000000000100008657886855ARLINDO DA CRUZ                         AVENIDA ARICANDUVA - 8.256 AP.54 BL.10 -            03951220                                                            000053
2SR. CAIXA, APOS O VENCIMENTO COBRAR 2% DE MULTA                                 NAO RECEBER APOS 30 DIAS DO VENCIMENTO.                                                                                                                                                                                                         01022400000000000000102240000000000000       0090339900006270086578022419000054
100000000000000000000009033990000627000000000000000000000000010002020059735102241700000000002            2  01597351022409022400000001746880000000001N010224000000000000000000000000000000000000000000000000000000000000000100059735180863HELIO JOSE MARQUES                      RUA MARTIM AFONSO DE SOUZA - 1007 AP.102            11702790                                                            000056
2SR. CAIXA, APOS O VENCIMENTO COBRAR 2% DE MULTA                                 NAO RECEBER APOS 30 DIAS DO VENCIMENTO.                                                                                                                                                                                                         01022400000000000000102240000000000000       0090339900006270597351022417000057
100000000000000000000009033990000627000000000000000000000000010002020026347802241000000000002            2  01263478022411022400000003302580000000001N010224000000000000000000000000000000000000000000000000000000000000000100026347872862VALDECI SILVA MEIRELES                  RUA JOSE BATISTA DA SILVA - 292 - JARDIM            06851470                                                            000059
2SR. CAIXA, APOS O VENCIMENTO COBRAR 2% DE MULTA                                 NAO RECEBER APOS 30 DIAS DO VENCIMENTO.                                                                                                                                                                                                         01022400000000000000102240000000000000       0090339900006270263478022410000060
100000000000000000000009033990000627000000000000000000000000010002020009797602241200000000002            2  01097976022411022400000002954980000000001N010224000000000000000000000000000000000000000000000000000000000000000100009797626857RICARDO SOBRAL DE OLIVEIRA              RUA 23 DE MAIO - 139 AP.32 - VILA MIRIM             11704690                                                            000062
2SR. CAIXA, APOS O VENCIMENTO COBRAR 2% DE MULTA                                 NAO RECEBER APOS 30 DIAS DO VENCIMENTO.                                                                                                                                                                                                         01022400000000000000102240000000000000       0090339900006270097976022412000063
100000000000000000000009033990000627000000000000000000000000010002020022728402241300000000002            2  01227284022411022400000003197530000000001N010224000000000000000000000000000000000000000000000000000000000000000100022728497842WILLIAN DE SOUZA MELLO                  RUA JOSE CALIXTO DO CARMO - 286 AP.111 -            11702690                                                            000065
2SR. CAIXA, APOS O VENCIMENTO COBRAR 2% DE MULTA                                 NAO RECEBER APOS 30 DIAS DO VENCIMENTO.                                                                                                                                                                                                         01022400000000000000102240000000000000       0090339900006270227284022413000066
100000000000000000000009033990000627000000000000000000000000010002020016909702241800000000002            2  01169097022411022400000002825610000000001N010224000000000000000000000000000000000000000000000000000000000000000100016909746805EDIVALDO SANTANA DOS SANTOS             ESTRADA JOAO GASPAR DELGADO - 80 AP.213             08536100                                                            000068
2SR. CAIXA, APOS O VENCIMENTO COBRAR 2% DE MULTA                                 NAO RECEBER APOS 30 DIAS DO VENCIMENTO.                                                                                                                                                                                                         01022400000000000000102240000000000000       0090339900006270169097022418000069
100000000000000000000009033990000627000000000000000000000000010002020022036002241500000000002            2  01220360022409022400000004387800000000001N010224000000000000000000000000000000000000000000000000000000000000000100022036003818DERLIS TERAN QUIROGA ROGATO             RUA JOAO RIBEIRO - 320 AP.131SB - CAMPES            09070250                                                            000071
2SR. CAIXA, APOS O VENCIMENTO COBRAR 2% DE MULTA                                 NAO RECEBER APOS 30 DIAS DO VENCIMENTO.                                                                                                                                                                                                         01022400000000000000102240000000000000       0090339900006270220360022415000072
100000000000000000000009033990000627000000000000000000000000010002020017229702243P00000000002            2  01172297022409022400000004234600000000001N010224000000000000000000000000000000000000000000000000000000000000000100017229751802BERENICE VIEIRA KERSTING                RUA ATIBAIA - 17 AP.417 - BAIRRO IMPERAD            11707380                                                            000074
2SR. CAIXA, APOS O VENCIMENTO COBRAR 2% DE MULTA                                 NAO RECEBER APOS 30 DIAS DO VENCIMENTO.                                                                                                                                                                                                         01022400000000000000102240000000000000       009033990000627017229702243P000075
100000000000000000000009033990000627000000000000000000000000010002020033451602241600000000002            2  01334516022411022400000002557670000000001N010224000000000000000000000000000000000000000000000000000000000000000100033451620839ARAO ELISIARIO  NUNES                   RUA JOSE CALIXTO DO CARMO - 286 AP.64 -             11702690                                                            000077
2SR. CAIXA, APOS O VENCIMENTO COBRAR 2% DE MULTA                                 NAO RECEBER APOS 30 DIAS DO VENCIMENTO.                                                                                                                                                                                                         01022400000000000000102240000000000000       0090339900006270334516022416000078
100000000000000000000009033990000627000000000000000000000000010002020011369102241400000000002            2  01113691022411022400000002793930000000001N010224000000000000000000000000000000000000000000000000000000000000000100011369165803ELIANA CORREA DE OLIVEIRA               RUA MAESTRO ZEFERINO SANTANA - 65 - VILA            18040010                                                            000080
2SR. CAIXA, APOS O VENCIMENTO COBRAR 2% DE MULTA                                 NAO RECEBER APOS 30 DIAS DO VENCIMENTO.                                                                                                                                                                                                         01022400000000000000102240000000000000       0090339900006270113691022414000081
100000000000000000000009033990000627000000000000000000000000010002020002253802241800000000002            2  01022538022411022400000002483250000000001N010224000000000000000000000000000000000000000000000000000000000000000100002253816809EDMILSON ALVES DA SILVA                 RUA JOSE CALIXTO DO CARMO - 286 AP.93 -             11702690                                                            000083
2SR. CAIXA, APOS O VENCIMENTO COBRAR 2% DE MULTA                                 NAO RECEBER APOS 30 DIAS DO VENCIMENTO.                                                                                                                                                                                                         01022400000000000000102240000000000000       0090339900006270022538022418000084
100000000000000000000009033990000627000000000000000000000000010002020037517702241800000000002            2  01375177022409022400000004653960000000001N010224000000000000000000000000000000000000000000000000000000000000000100037517785869RENATO JOSE DE LIMA MELO                RUA ARISTIDES LOBO - 148 AP.41 BLOCO 03             03041100                                                            000086
2SR. CAIXA, APOS O VENCIMENTO COBRAR 2% DE MULTA                                 NAO RECEBER APOS 30 DIAS DO VENCIMENTO.                                                                                                                                                                                                         01022400000000000000102240000000000000       0090339900006270375177022418000087
100000000000000000000009033990000627000000000000000000000000010002020070367902241900000000002            2  01703679022411022400000002331940000000001N010224000000000000000000000000000000000000000000000000000000000000000100070367949849TEODOMIRO ALVES DOS SANTOS              RUA ANDRE PAZ - 13 - JARDIM SANTO ANDRE             08390230                                                            000089
2SR. CAIXA, APOS O VENCIMENTO COBRAR 2% DE MULTA                                 NAO RECEBER APOS 30 DIAS DO VENCIMENTO.                                                                                                                                                                                                         01022400000000000000102240000000000000       0090339900006270703679022419000090
100000000000000000000009033990000627000000000000000000000000010002020004410802241800000000002            2  01044108022409022400000003457930000000001N010224000000000000000000000000000000000000000000000000000000000000000100004410802860LUIZ ALBERTO MARINHO                    AVENIDA BOSQUE DA SAUDE - 546 AP11 -  -             04142081                                                            000092
2SR. CAIXA, APOS O VENCIMENTO COBRAR 2% DE MULTA                                 NAO RECEBER APOS 30 DIAS DO VENCIMENTO.                                                                                                                                                                                                         01022400000000000000102240000000000000       0090339900006270044108022418000093
100000000000000000000009033990000627000000000000000000000000010002020004767602241300000000002            2  01047676022409022400000004616230000000001N010224000000000000000000000000000000000000000000000000000000000000000100004767679893ORLANDO GRANDE FILHO                    RUA ORLANDO MIGLIARI - 101 - JARDIM OURO            19906140                                                            000095
2SR. CAIXA, APOS O VENCIMENTO COBRAR 2% DE MULTA                                 NAO RECEBER APOS 30 DIAS DO VENCIMENTO.                                                                                                                                                                                                         01022400000000000000102240000000000000       0090339900006270047676022413000096
100000000000000000000009033990000627000000000000000000000000010002020064677802241900000000002            2  01646778022409022400000003713420000000001N010224000000000000000000000000000000000000000000000000000000000000000100064677850887ANTONIO CARLOS DE OLIVEIRA              RUA DR.ANTONIO MAZILLI FILHO - 435 - PAR            02230070                                                            000098
2SR. CAIXA, APOS O VENCIMENTO COBRAR 2% DE MULTA                                 NAO RECEBER APOS 30 DIAS DO VENCIMENTO.                                                                                                                                                                                                         01022400000000000000102240000000000000       0090339900006270646778022419000099
100000000000000000000009033990000627000000000000000000000000010002020058488602241100000000002            2  01584886022409022400000003386940000000001N010224000000000000000000000000000000000000000000000000000000000000000100058488618972ADAILTON ZANUTTO MORESCHI               R:RAPHAEL UNGARO - COND.RESERVA SERRA Q.            13212138                                                            000101
2SR. CAIXA, APOS O VENCIMENTO COBRAR 2% DE MULTA                                 NAO RECEBER APOS 30 DIAS DO VENCIMENTO.                                                                                                                                                                                                         01022400000000000000102240000000000000       0090339900006270584886022411000102
100000000000000000000009033990000627000000000000000000000000010002020002196002241600000000002            2  01021960022411022400000002546730000000001N010224000000000000000000000000000000000000000000000000000000000000000100002196012831VILEFORT DIAS BORGES                    RUA PORTO XAVIER - 189 AP.64 - VILA CARM            08210170                                                            000104
2SR. CAIXA, APOS O VENCIMENTO COBRAR 2% DE MULTA                                 NAO RECEBER APOS 30 DIAS DO VENCIMENTO.                                                                                                                                                                                                         01022400000000000000102240000000000000       0090339900006270021960022416000105
100000000000000000000009033990000627000000000000000000000000010002020031861502241400000000002            2  01318615022411022400000002647010000000001N010224000000000000000000000000000000000000000000000000000000000000000100031861586809VANIA TOMAZ                              -  -  -  -                                         00000000                                                            000107
2SR. CAIXA, APOS O VENCIMENTO COBRAR 2% DE MULTA                                 NAO RECEBER APOS 30 DIAS DO VENCIMENTO.                                                                                                                                                                                                         01022400000000000000102240000000000000       0090339900006270318615022414000108
100000000000000000000009033990000627000000000000000000000000010002020007715302241600000000002            2  01077153022409022400000004165540000000001N010224000000000000000000000000000000000000000000000000000000000000000100007715360627NILTON RENNAN OLIVEIRA GOMES FILHO      RUA CARLOS JOSE BORSTENS - 50 AP.21 - AV            11702750                                                            000110
2SR. CAIXA, APOS O VENCIMENTO COBRAR 2% DE MULTA                                 NAO RECEBER APOS 30 DIAS DO VENCIMENTO.                                                                                                                                                                                                         01022400000000000000102240000000000000       0090339900006270077153022416000111
100000000000000000000009033990000627000000000000000000000000010002020007194002241700000000002            2  01071940022411022400000002960020000000001N010224000000000000000000000000000000000000000000000000000000000000000100007194010895RAUL AMANTINO KIRK DE SANCTIS           AVENIDA SANTA CATARINA - 756 AP.01 - VIL            04378000                                                            000113
2SR. CAIXA, APOS O VENCIMENTO COBRAR 2% DE MULTA                                 NAO RECEBER APOS 30 DIAS DO VENCIMENTO.                                                                                                                                                                                                         01022400000000000000102240000000000000       0090339900006270071940022417000114
100000000000000000000009033990000627000000000000000000000000010002020011141502241600000000002            2  01111415022411022400000003110450000000001N010224000000000000000000000000000000000000000000000000000000000000000100011141508869PAULO ROBERTO TUNES SILVA               RUA PETROBRAS - 405 CASA 07 - VILA ANTON            03474060                                                            000116
2SR. CAIXA, APOS O VENCIMENTO COBRAR 2% DE MULTA                                 NAO RECEBER APOS 30 DIAS DO VENCIMENTO.                                                                                                                                                                                                         01022400000000000000102240000000000000       0090339900006270111415022416000117
100000000000000000000009033990000627000000000000000000000000010002020012449102241100000000002            2  01124491022411022400000003134180000000001N010224000000000000000000000000000000000000000000000000000000000000000100012449104810GILBERTO DOS SANTOS JUNIOR              RUA ALMIRANTE TAMANDARE - 89 AP.143 - BA            09310350                                                            000119
2SR. CAIXA, APOS O VENCIMENTO COBRAR 2% DE MULTA                                 NAO RECEBER APOS 30 DIAS DO VENCIMENTO.                                                                                                                                                                                                         01022400000000000000102240000000000000       0090339900006270124491022411000120
100000000000000000000009033990000627000000000000000000000000010002020011261302241P00000000002            2  01112613022409022400000004135710000000001N010224000000000000000000000000000000000000000000000000000000000000000100011261359844JOVANETE DOS SANTOS PASSOS              RUA FULVIO MORGANTI - 672 - JARDIM PARAI            02417170                                                            000122
2SR. CAIXA, APOS O VENCIMENTO COBRAR 2% DE MULTA                                 NAO RECEBER APOS 30 DIAS DO VENCIMENTO.                                                                                                                                                                                                         01022400000000000000102240000000000000       009033990000627011261302241P000123
100000000000000000000009033990000627000000000000000000000000010002020036279302241900000000002            2  01362793022409022400000003676380000000001N010224000000000000000000000000000000000000000000000000000000000000000100036279398838BRUNO DOCINI ORTEGA                     RUA GENERAL EUCLIDES FIGUEIREDO - 146 AP            11700780                                                            000125
2SR. CAIXA, APOS O VENCIMENTO COBRAR 2% DE MULTA                                 NAO RECEBER APOS 30 DIAS DO VENCIMENTO.                                                                                                                                                                                                         01022400000000000000102240000000000000       0090339900006270362793022419000126
100000000000000000000009033990000627000000000000000000000000010002020008475102241900000000002            2  01084751022409022400000004143390000000001N010224000000000000000000000000000000000000000000000000000000000000000100008475110819HELENA ROSA DOS SANTOS                  AVENIDA ZELIA - 278 CASA 02 - PARQUE DOS            06436000                                                            000128
2SR. CAIXA, APOS O VENCIMENTO COBRAR 2% DE MULTA                                 NAO RECEBER APOS 30 DIAS DO VENCIMENTO.                                                                                                                                                                                                         01022400000000000000102240000000000000       0090339900006270084751022419000129
100000000000000000000009033990000627000000000000000000000000010002020001098202241800000000002            2  01010982022409022400000004530610000000001N010224000000000000000000000000000000000000000000000000000000000000000100001098222857JANDIRA DOS SANTOS PASSOS               RUA FULVIO MORGANTI - 672 - JARDIM PARAI            02417170                                                            000131
2SR. CAIXA, APOS O VENCIMENTO COBRAR 2% DE MULTA                                 NAO RECEBER APOS 30 DIAS DO VENCIMENTO.                                                                                                                                                                                                         01022400000000000000102240000000000000       0090339900006270010982022418000132
9                                                                                                                                                                                                                                                                                                                                                                                                         000133