01REMESSA01COBRANCA       00000000000005316116AIRES CONSTRUTORA E INCORPORAD237BRADESCO       090823        MX0000224                                                                                                                                                                                                                                                                                     000001
100000000000000000000009002800441612000000000000000000000000010002100001204408231500000000002            2  01012044082325082300000003785340000000001N090823000000000000000000000000000000000000000000000000000000000000000100001204431809CEZAR TALAVERA JUNIOR                   RUA MAESTRO ARTURO DE ANGELIS  - 190 AP.            05139010                                                            000002
2SR. CAIXA, APOS O VENCIMENTO COBRAR 10% DE MULTA                                NAO RECEBER APOS 30 DIAS DO VENCIMENTO.                                                                                                                                                                                                         09082300000000000000908230000000000000       0090028004416120012044082315000003
100000000000000000000009002800441612000000000000000000000000010002100002225008231900000000002            2  01022250082325082300000006560700000000001N090823000000000000000000000000000000000000000000000000000000000000000100002225072841PEDRO EDUARDO DE AZEVEDO                RUA NATH ZILMAN - 46 - JARDIM SAMAMBAIA             07623085                                                            000005
2SR. CAIXA, APOS O VENCIMENTO COBRAR 10% DE MULTA                                NAO RECEBER APOS 30 DIAS DO VENCIMENTO.                                                                                                                                                                                                         09082300000000000000908230000000000000       0090028004416120022250082319000006
100000000000000000000009002800441612000000000000000000000000010002100031498008231500000000002            2  01314980082325082300000005927740000000001N090823000000000000000000000000000000000000000000000000000000000000000100031498008895POLIANE  SIBELE DA SILVA                PRACA GENERAL COSTA BARRETO - 56 AP.181             03325070                                                            000008
2SR. CAIXA, APOS O VENCIMENTO COBRAR 10% DE MULTA                                NAO RECEBER APOS 30 DIAS DO VENCIMENTO.                                                                                                                                                                                                         09082300000000000000908230000000000000       0090028004416120314980082315000009
100000000000000000000009002800441612000000000000000000000000010002100014386808231100000000002            2  01143868082325082300000002781250000000001N090823000000000000000000000000000000000000000000000000000000000000000100014386860134SEVERINO CARLOS DE OLIVEIRA             RUA MONTE CASTELO - 262 AP.54 - AVIACAO             11702720                                                            000011
2SR. CAIXA, APOS O VENCIMENTO COBRAR 10% DE MULTA                                NAO RECEBER APOS 30 DIAS DO VENCIMENTO.                                                                                                                                                                                                         09082300000000000000908230000000000000       0090028004416120143868082311000012
100000000000000000000009002800441612000000000000000000000000010002100039393708231700000000002            2  01393937082325082300000001916900000000001N090823000000000000000000000000000000000000000000000000000000000000000100039393790850NAIRON RICARDO DE ARAUJO SANTOS         RUA NITEROI - 267 CASA 04 - JARDIM INDEP            11380350                                                            000014
2SR. CAIXA, APOS O VENCIMENTO COBRAR 10% DE MULTA                                NAO RECEBER APOS 30 DIAS DO VENCIMENTO.                                                                                                                                                                                                         09082300000000000000908230000000000000       0090028004416120393937082317000015
100000000000000000000009002800441612000000000000000000000000010002100019288708231500000000002            2  01192887082325082300000002581520000000001N090823000000000000000000000000000000000000000000000000000000000000000100019288787844EMERSON LUIZ MARTINEZ PEREIRA           RUA MONTE CASTELO - 296 AP.74 - AVIACAO             11702720                                                            000017
2SR. CAIXA, APOS O VENCIMENTO COBRAR 10% DE MULTA                                NAO RECEBER APOS 30 DIAS DO VENCIMENTO.                                                                                                                                                                                                         09082300000000000000908230000000000000       0090028004416120192887082315000018
9                                                                                                                                                                                                                                                                                                                                                                                                         000019