01REMESSA01COBRANCA       00000000000005316116AIRES CONSTRUTORA E INCORPORAD237BRADESCO       070224        MX0000236                                                                                                                                                                                                                                                                                     000001
100000000000000000000009002800441612000000000000000000000000010002020001204402241P00000000002            2  01012044022425022400000003920440000000001N060224000000000000000000000000000000000000000000000000000000000000000100001204431809CEZAR TALAVERA JUNIOR                   RUA MAESTRO ARTURO DE ANGELIS  - 190 AP.            05139010                                                            000002
2SR. CAIXA, APOS O VENCIMENTO COBRAR 2% DE MULTA                                 NAO RECEBER APOS 30 DIAS DO VENCIMENTO.                                                                                                                                                                                                         07022400000000000000702240000000000000       009002800441612001204402241P000003
100000000000000000000009002800441612000000000000000000000000010002020014386802241600000000002            2  01143868022425022400000002880510000000001N060224000000000000000000000000000000000000000000000000000000000000000100014386860134SEVERINO CARLOS DE OLIVEIRA             RUA MONTE CASTELO - 262 AP.54 - AVIACAO             11702720                                                            000005
2SR. CAIXA, APOS O VENCIMENTO COBRAR 2% DE MULTA                                 NAO RECEBER APOS 30 DIAS DO VENCIMENTO.                                                                                                                                                                                                         07022400000000000000702240000000000000       0090028004416120143868022416000006
100000000000000000000009002800441612000000000000000000000000010002020039393702241100000000002            2  01393937022425022400000001985320000000001N060224000000000000000000000000000000000000000000000000000000000000000100039393790850NAIRON RICARDO DE ARAUJO SANTOS         RUA NITEROI - 267 CASA 04 - JARDIM INDEP            11380350                                                            000008
2SR. CAIXA, APOS O VENCIMENTO COBRAR 2% DE MULTA                                 NAO RECEBER APOS 30 DIAS DO VENCIMENTO.                                                                                                                                                                                                         07022400000000000000702240000000000000       0090028004416120393937022411000009
9                                                                                                                                                                                                                                                                                                                                                                                                         000010