01REMESSA01COBRANCA       00000000000008017025HB SANTOS CONSTRUTORA E INCORP237BRADESCO       091123        MX0000190                                                                                                                                                                                                                                                                                     000001
100000000000000000000009033990000627000000000000000000000000010002020025035111231900000000002            2  01250351112324112300000003164900000000001N071123000000000000000000000000000000000000000000000000000000000000000100025035170802WANDERSON LUIS DE CARVALHO              RUA JOAQUIM GONCALVES ROCHA - 302 - JARD            02859030                                                            000002
2SR. CAIXA, APOS O VENCIMENTO COBRAR 2% DE MULTA                                 NAO RECEBER APOS 30 DIAS DO VENCIMENTO.                                                                                                                                                                                                         09112300000000000000911230000000000000       0090339900006270250351112319000003
100000000000000000000009033990000627000000000000000000000000010002020007294311231600000000002            2  01072943112324112300000004256800000000001N071123000000000000000000000000000000000000000000000000000000000000000100007294351805CLAUDENIR APARECIDO VACARI              RUA CARLOS JOSE BORSTENS - 50 AP.93 - AV            11702750                                                            000005
2SR. CAIXA, APOS O VENCIMENTO COBRAR 2% DE MULTA                                 NAO RECEBER APOS 30 DIAS DO VENCIMENTO.                                                                                                                                                                                                         09112300000000000000911230000000000000       0090339900006270072943112316000006
100000000000000000000009033990000627000000000000000000000000010002020005071411231700000000002            2  01050714112324112300000004176690000000001N071123000000000000000000000000000000000000000000000000000000000000000100005071481855ERIBALDO SANTANA CARVALHO               RUA HONDURAS - 477 - PARQUE DAS AMERICAS            09351070                                                            000008
2SR. CAIXA, APOS O VENCIMENTO COBRAR 2% DE MULTA                                 NAO RECEBER APOS 30 DIAS DO VENCIMENTO.                                                                                                                                                                                                         09112300000000000000911230000000000000       0090339900006270050714112317000009
100000000000000000000009033990000627000000000000000000000000010002020002841711231000000000002            2  01028417112324112300000003907670000000001N071123000000000000000000000000000000000000000000000000000000000000000100002841756416LUCIANA PINHEIRO DE ASSIS NUNES         RUA RIO ACIMA - 81 - RIACHO GRANDE - SAO            09830100                                                            000011
2SR. CAIXA, APOS O VENCIMENTO COBRAR 2% DE MULTA                                 NAO RECEBER APOS 30 DIAS DO VENCIMENTO.                                                                                                                                                                                                         09112300000000000000911230000000000000       0090339900006270028417112310000012
100000000000000000000009033990000627000000000000000000000000010002020084302011231P00000000002            2  01843020112324112300000003926420000000001N071123000000000000000000000000000000000000000000000000000000000000000100084302097868FAUSTO TADEU VILOR                      RUA ANTONIO TAVARES - 466 - BAIRRO CAMBU            01542010                                                            000014
2SR. CAIXA, APOS O VENCIMENTO COBRAR 2% DE MULTA                                 NAO RECEBER APOS 30 DIAS DO VENCIMENTO.                                                                                                                                                                                                         09112300000000000000911230000000000000       009033990000627084302011231P000015
100000000000000000000009033990000627000000000000000000000000010002020000991711231200000000002            2  01009917112324112300000003765320000000001N071123000000000000000000000000000000000000000000000000000000000000000100000991748808JAILSON BORGES DE ANDRADE               RUA IPIOBUNA - 45 - JARDIM CUMBICA - GUA            07240040                                                            000017
2SR. CAIXA, APOS O VENCIMENTO COBRAR 2% DE MULTA                                 NAO RECEBER APOS 30 DIAS DO VENCIMENTO.                                                                                                                                                                                                         09112300000000000000911230000000000000       0090339900006270009917112312000018
100000000000000000000009033990000627000000000000000000000000010002020022151611231900000000002            2  01221516112324112300000003743460000000001N071123000000000000000000000000000000000000000000000000000000000000000100022151666816SAMIR LIMA DE ARAUJO                    AVENIDA GUARAPIRANGA - 2616 AP.131 BL.14            04902005                                                            000020
2SR. CAIXA, APOS O VENCIMENTO COBRAR 2% DE MULTA                                 NAO RECEBER APOS 30 DIAS DO VENCIMENTO.                                                                                                                                                                                                         09112300000000000000911230000000000000       0090339900006270221516112319000021
100000000000000000000009033990000627000000000000000000000000010002020022313111231000000000002            2  01223131112326112300000002880110000000001N071123000000000000000000000000000000000000000000000000000000000000000100022313116824ROSA MARIA BRITO DA SILVA               RUA SERVIDAO DE SAO MARCOS - 128 CASA 1             04930300                                                            000023
2SR. CAIXA, APOS O VENCIMENTO COBRAR 2% DE MULTA                                 NAO RECEBER APOS 30 DIAS DO VENCIMENTO.                                                                                                                                                                                                         09112300000000000000911230000000000000       0090339900006270223131112310000024
100000000000000000000009033990000627000000000000000000000000010002020027538011231200000000002            2  01275380112326112300000002890130000000001N071123000000000000000000000000000000000000000000000000000000000000000100027538087249MARA LUCIA MENEZES DA COSTA             RUA LEILA  - 183 - ITAQUERA - SAO PAULO             08240020                                                            000026
2SR. CAIXA, APOS O VENCIMENTO COBRAR 2% DE MULTA                                 NAO RECEBER APOS 30 DIAS DO VENCIMENTO.                                                                                                                                                                                                         09112300000000000000911230000000000000       0090339900006270275380112312000027
100000000000000000000009033990000627000000000000000000000000010002020031278411231900000000002            2  01312784112324112300000003616280000000001N071123000000000000000000000000000000000000000000000000000000000000000100031278411836JEFFERSON DE PIERI PIRES ZAMUNER        RUA MANOEL ARCE - 277 - PARQUE BANCARIO             03922150                                                            000029
2SR. CAIXA, APOS O VENCIMENTO COBRAR 2% DE MULTA                                 NAO RECEBER APOS 30 DIAS DO VENCIMENTO.                                                                                                                                                                                                         09112300000000000000911230000000000000       0090339900006270312784112319000030
100000000000000000000009033990000627000000000000000000000000010002020019185711231000000000002            2  01191857112326112300000002630120000000001N071123000000000000000000000000000000000000000000000000000000000000000100019185769800AGUINALDO PESSOA DE LIMA                RUA JANUARIO ZINGARO - 252 AP.303 BL.04             05794300                                                            000032
2SR. CAIXA, APOS O VENCIMENTO COBRAR 2% DE MULTA                                 NAO RECEBER APOS 30 DIAS DO VENCIMENTO.                                                                                                                                                                                                         09112300000000000000911230000000000000       0090339900006270191857112310000033
100000000000000000000009033990000627000000000000000000000000010002020033303611231100000000002            2  01333036112326112300000002832830000000001N071123000000000000000000000000000000000000000000000000000000000000000100033303645809JESSICA DA SILVA FREITAS                RUA ARILDO VALADAO - 120 - JARDIM GUAEMB            04814600                                                            000035
2SR. CAIXA, APOS O VENCIMENTO COBRAR 2% DE MULTA                                 NAO RECEBER APOS 30 DIAS DO VENCIMENTO.                                                                                                                                                                                                         09112300000000000000911230000000000000       0090339900006270333036112311000036
100000000000000000000009033990000627000000000000000000000000010002020006422611231700000000002            2  01064226112324112300000003916530000000001N071123000000000000000000000000000000000000000000000000000000000000000100006422607881GERALDO ALVES DA SILVA                  RUA CARLOS JOSE BORSTENS - 50 AP.14 - AV            11702750                                                            000038
2SR. CAIXA, APOS O VENCIMENTO COBRAR 2% DE MULTA                                 NAO RECEBER APOS 30 DIAS DO VENCIMENTO.                                                                                                                                                                                                         09112300000000000000911230000000000000       0090339900006270064226112317000039
100000000000000000000009033990000627000000000000000000000000010002020033877111231900000000002            2  01338771112326112300000002655860000000001N071123000000000000000000000000000000000000000000000000000000000000000100033877129870HELDER FERREIRA VIANA                   RUA JOSE CALIXTO DO CARMO - 286 AP.35 -             11702690                                                            000041
2SR. CAIXA, APOS O VENCIMENTO COBRAR 2% DE MULTA                                 NAO RECEBER APOS 30 DIAS DO VENCIMENTO.                                                                                                                                                                                                         09112300000000000000911230000000000000       0090339900006270338771112319000042
100000000000000000000009033990000627000000000000000000000000010002020087573011231800000000002            2  01875730112326112300000002672900000000001N071123000000000000000000000000000000000000000000000000000000000000000100087573059604VANDERLEY DE ASSIS                      RUA ROMEU ALBANI - 268 - JARDIM PARQUE R            13803810                                                            000044
2SR. CAIXA, APOS O VENCIMENTO COBRAR 2% DE MULTA                                 NAO RECEBER APOS 30 DIAS DO VENCIMENTO.                                                                                                                                                                                                         09112300000000000000911230000000000000       0090339900006270875730112318000045
100000000000000000000009033990000627000000000000000000000000010002020010825511231500000000002            2  01108255112326112300000002789300000000001N071123000000000000000000000000000000000000000000000000000000000000000100010825513847JOSE APARECIDO PEREIRA                  RUA GENERAL OSORIO - 305 - JARDIM TRINTA            11515130                                                            000047
2SR. CAIXA, APOS O VENCIMENTO COBRAR 2% DE MULTA                                 NAO RECEBER APOS 30 DIAS DO VENCIMENTO.                                                                                                                                                                                                         09112300000000000000911230000000000000       0090339900006270108255112315000048
100000000000000000000009033990000627000000000000000000000000010002020039115111231700000000002            2  01391151112326112300000003438320000000001N071123000000000000000000000000000000000000000000000000000000000000000100039115139840LAIS CRISTINA RIBEIRO ANDO              RUA JOSE CALIXTO DO CARMO - 286 AP.65 -             11702690                                                            000050
2SR. CAIXA, APOS O VENCIMENTO COBRAR 2% DE MULTA                                 NAO RECEBER APOS 30 DIAS DO VENCIMENTO.                                                                                                                                                                                                         09112300000000000000911230000000000000       0090339900006270391151112317000051
100000000000000000000009033990000627000000000000000000000000010002020000593211231500000000002            2  01005932112324112300000004216130000000001N071123000000000000000000000000000000000000000000000000000000000000000100000593293860WALTER HELIO BARBOSA FILHO              AVENIDA ANTONIO FREDERICO OZANAN - 9500             13214206                                                            000053
2SR. CAIXA, APOS O VENCIMENTO COBRAR 2% DE MULTA                                 NAO RECEBER APOS 30 DIAS DO VENCIMENTO.                                                                                                                                                                                                         09112300000000000000911230000000000000       0090339900006270005932112315000054
100000000000000000000009033990000627000000000000000000000000010002020006684611231P00000000002            2  01066846112326112300000002832530000000001N071123000000000000000000000000000000000000000000000000000000000000000100006684623884LAUDINOR VIEIRA GARCIA                  RUA CANDIDO SALES - 374 - JARDIM PRESIDE            07172000                                                            000056
2SR. CAIXA, APOS O VENCIMENTO COBRAR 2% DE MULTA                                 NAO RECEBER APOS 30 DIAS DO VENCIMENTO.                                                                                                                                                                                                         09112300000000000000911230000000000000       009033990000627006684611231P000057
100000000000000000000009033990000627000000000000000000000000010002020011663511231000000000002            2  01116635112326112300000002852880000000001N071123000000000000000000000000000000000000000000000000000000000000000100011663589844MARIA SAVIO QUARELLO                    AVENIDA MENDONCA DRUMOND - 321 - JARDIM             03524030                                                            000059
2SR. CAIXA, APOS O VENCIMENTO COBRAR 2% DE MULTA                                 NAO RECEBER APOS 30 DIAS DO VENCIMENTO.                                                                                                                                                                                                         09112300000000000000911230000000000000       0090339900006270116635112310000060
100000000000000000000009033990000627000000000000000000000000010002020010083811231200000000002            2  01100838112326112300000002756360000000001N071123000000000000000000000000000000000000000000000000000000000000000100010083824855IONE FERREIRA COUTO DA SILVA            RUA JOSE RAGEL DE MESQUITA - 60 CS.01 -             07799999                                                            000062
2SR. CAIXA, APOS O VENCIMENTO COBRAR 2% DE MULTA                                 NAO RECEBER APOS 30 DIAS DO VENCIMENTO.                                                                                                                                                                                                         09112300000000000000911230000000000000       0090339900006270100838112312000063
100000000000000000000009033990000627000000000000000000000000010002020031010711231800000000002            2  01310107112326112300000002704870000000001N071123000000000000000000000000000000000000000000000000000000000000000100031010705890ANDRE GONZALEZ RABELLO                  RUA PARAIBA - 106 AP.61 - POMPEIA - SANT            11065470                                                            000065
2SR. CAIXA, APOS O VENCIMENTO COBRAR 2% DE MULTA                                 NAO RECEBER APOS 30 DIAS DO VENCIMENTO.                                                                                                                                                                                                         09112300000000000000911230000000000000       0090339900006270310107112318000066
100000000000000000000009033990000627000000000000000000000000010002020005351011231700000000002            2  01053510112326112300000002536080000000001N071123000000000000000000000000000000000000000000000000000000000000000100005351015897VALERIA ALVES MARCOLINO HINNIGER        RUA JOSE CALIXTO DO CARMO - 286 AP.92 -             11702690                                                            000068
2SR. CAIXA, APOS O VENCIMENTO COBRAR 2% DE MULTA                                 NAO RECEBER APOS 30 DIAS DO VENCIMENTO.                                                                                                                                                                                                         09112300000000000000911230000000000000       0090339900006270053510112317000069
100000000000000000000009033990000627000000000000000000000000010002020031898711231200000000002            2  01318987112324112300000004034160000000001N071123000000000000000000000000000000000000000000000000000000000000000100031898775800ANITA MARTINS COLOMBO                   RUA CARLOS JOSE BORSTENS - 50 AP.115 - A            11702750                                                            000071
2SR. CAIXA, APOS O VENCIMENTO COBRAR 2% DE MULTA                                 NAO RECEBER APOS 30 DIAS DO VENCIMENTO.                                                                                                                                                                                                         09112300000000000000911230000000000000       0090339900006270318987112312000072
100000000000000000000009033990000627000000000000000000000000010002020037983411231200000000002            2  01379834112326112300000002979110000000001N071123000000000000000000000000000000000000000000000000000000000000000100037983484801JOSE ERIVALDO SOUZA DO NASCIMENTO RAMOS RUA LETICIA - 250 - JARDIM GUARUJA - SAO            05877260                                                            000074
2SR. CAIXA, APOS O VENCIMENTO COBRAR 2% DE MULTA                                 NAO RECEBER APOS 30 DIAS DO VENCIMENTO.                                                                                                                                                                                                         09112300000000000000911230000000000000       0090339900006270379834112312000075
100000000000000000000009033990000627000000000000000000000000010002020056289211231300000000002            2  01562892112326112300000002250540000000001N071123000000000000000000000000000000000000000000000000000000000000000100056289286900PEDRO RIBEIRO                           RUA CONEGO MANOEL VAZ - 48 - SANTANA - S            02019050                                                            000077
2SR. CAIXA, APOS O VENCIMENTO COBRAR 2% DE MULTA                                 NAO RECEBER APOS 30 DIAS DO VENCIMENTO.                                                                                                                                                                                                         09112300000000000000911230000000000000       0090339900006270562892112313000078
100000000000000000000009033990000627000000000000000000000000010002020034812211231300000000002            2  01348122112324112300000005339400000000001N071123000000000000000000000000000000000000000000000000000000000000000100034812226880THAIS TORQUATO MIMOSO DE JESUS          RUA ARNALDO CINTRA - 416 AP.104 TORRE 2             03088000                                                            000080
2SR. CAIXA, APOS O VENCIMENTO COBRAR 2% DE MULTA                                 NAO RECEBER APOS 30 DIAS DO VENCIMENTO.                                                                                                                                                                                                         09112300000000000000911230000000000000       0090339900006270348122112313000081
100000000000000000000009033990000627000000000000000000000000010002020012849411231P00000000002            2  01128494112326112300000005321110000000001N071123000000000000000000000000000000000000000000000000000000000000000100012849428809MOISES CLAUDIO DO ROSARIO               AVENIDA DR. AUGUSTO DE TOLEDO - 510 AP.1            09541520                                                            000083
2SR. CAIXA, APOS O VENCIMENTO COBRAR 2% DE MULTA                                 NAO RECEBER APOS 30 DIAS DO VENCIMENTO.                                                                                                                                                                                                         09112300000000000000911230000000000000       009033990000627012849411231P000084
100000000000000000000009033990000627000000000000000000000000010002020014087411231200000000002            2  01140874112326112300000002937770000000001N071123000000000000000000000000000000000000000000000000000000000000000100014087484874SERGIO SANTOS DO NASCIMENTO             RUA JOSE CALIXTO DO CARMO - 286 AP.52 -             11702690                                                            000086
2SR. CAIXA, APOS O VENCIMENTO COBRAR 2% DE MULTA                                 NAO RECEBER APOS 30 DIAS DO VENCIMENTO.                                                                                                                                                                                                         09112300000000000000911230000000000000       0090339900006270140874112312000087
100000000000000000000009033990000627000000000000000000000000010002020026834511231100000000002            2  01268345112326112300000002706810000000001N071123000000000000000000000000000000000000000000000000000000000000000100026834550895RAQUEL CARDOSO JOAO                     RUA PEDROSO XAVIER - 277 AP.23 TORRE 01             02732020                                                            000089
2SR. CAIXA, APOS O VENCIMENTO COBRAR 2% DE MULTA                                 NAO RECEBER APOS 30 DIAS DO VENCIMENTO.                                                                                                                                                                                                         09112300000000000000911230000000000000       0090339900006270268345112311000090
100000000000000000000009033990000627000000000000000000000000010002020039540011231P00000000002            2  01395400112326112300000002661170000000001N071123000000000000000000000000000000000000000000000000000000000000000100039540008816LUZINETE CLARINDO SILVA                 RUA DEINOS - 275 - BAIRRO CIDADE SATELIT            08340100                                                            000092
2SR. CAIXA, APOS O VENCIMENTO COBRAR 2% DE MULTA                                 NAO RECEBER APOS 30 DIAS DO VENCIMENTO.                                                                                                                                                                                                         09112300000000000000911230000000000000       009033990000627039540011231P000093
100000000000000000000009033990000627000000000000000000000000010002020003311011231700000000002            2  01033110112326112300000002771310000000001N071123000000000000000000000000000000000000000000000000000000000000000100003311030877SEBASTIAO SARUVA NETO                   RUA HAMILTON REGIS - 559 - BAIRRO DO LIM            08051440                                                            000095
2SR. CAIXA, APOS O VENCIMENTO COBRAR 2% DE MULTA                                 NAO RECEBER APOS 30 DIAS DO VENCIMENTO.                                                                                                                                                                                                         09112300000000000000911230000000000000       0090339900006270033110112317000096
100000000000000000000009033990000627000000000000000000000000010002020090091911231300000000002            2  01900919112326112300000002648950000000001N071123000000000000000000000000000000000000000000000000000000000000000100090091990882JUECIR CARVALHO DA LUZ                  RUA JOSE CALIXTO DO CARMO - 286 AP.114 -            11702690                                                            000098
2SR. CAIXA, APOS O VENCIMENTO COBRAR 2% DE MULTA                                 NAO RECEBER APOS 30 DIAS DO VENCIMENTO.                                                                                                                                                                                                         09112300000000000000911230000000000000       0090339900006270900919112313000099
100000000000000000000009033990000627000000000000000000000000010002020037325911231500000000002            2  01373259112326112300000002167790000000001N071123000000000000000000000000000000000000000000000000000000000000000100037325923830MARIA AUGUSTA OLIVEIRA DE ANDRADE       RUA JOSE CALIXTO DO CARMO - 286 AP.124 -            11702690                                                            000101
2SR. CAIXA, APOS O VENCIMENTO COBRAR 2% DE MULTA                                 NAO RECEBER APOS 30 DIAS DO VENCIMENTO.                                                                                                                                                                                                         09112300000000000000911230000000000000       0090339900006270373259112315000102
100000000000000000000009033990000627000000000000000000000000010002020012478811231200000000002            2  01124788112324112300000003945900000000001N071123000000000000000000000000000000000000000000000000000000000000000100012478899809VITORIA BATISTA QUEIROZ                 RUA CARVALHO DE FREITAS - 255 AP.71A - V            05728030                                                            000104
2SR. CAIXA, APOS O VENCIMENTO COBRAR 2% DE MULTA                                 NAO RECEBER APOS 30 DIAS DO VENCIMENTO.                                                                                                                                                                                                         09112300000000000000911230000000000000       0090339900006270124788112312000105
100000000000000000000009033990000627000000000000000000000000010002020013184811231300000000002            2  01131848112326112300000002618830000000001N071123000000000000000000000000000000000000000000000000000000000000000100013184856810SYDNEY HENRIQUE GAMARANO JUNIOR         RUA JOSE CALIXTO DO CARMO - 286 AP.125 -            11702690                                                            000107
2SR. CAIXA, APOS O VENCIMENTO COBRAR 2% DE MULTA                                 NAO RECEBER APOS 30 DIAS DO VENCIMENTO.                                                                                                                                                                                                         09112300000000000000911230000000000000       0090339900006270131848112313000108
100000000000000000000009033990000627000000000000000000000000010002020097989911231700000000002            2  01979899112326112300000001819910000000001N071123000000000000000000000000000000000000000000000000000000000000000100097989924820NELSON LUIS BERRIBILLE                  RUA SILVEIRA IGNACIO SOBRINHO - 965 - VI            13560294                                                            000110
2SR. CAIXA, APOS O VENCIMENTO COBRAR 2% DE MULTA                                 NAO RECEBER APOS 30 DIAS DO VENCIMENTO.                                                                                                                                                                                                         09112300000000000000911230000000000000       0090339900006270979899112317000111
100000000000000000000009033990000627000000000000000000000000010002020097989911232500000000002            2  01979899112326112300000001819900000000001N071123000000000000000000000000000000000000000000000000000000000000000100097989924820NELSON LUIS BERRIBILLE                  RUA SILVEIRA IGNACIO SOBRINHO - 965 - VI            13560294                                                            000113
2SR. CAIXA, APOS O VENCIMENTO COBRAR 2% DE MULTA                                 NAO RECEBER APOS 30 DIAS DO VENCIMENTO.                                                                                                                                                                                                         09112300000000000000911230000000000000       0090339900006270979899112325000114
100000000000000000000009033990000627000000000000000000000000010002020032341811231600000000002            2  01323418112324112300000004098700000000001N071123000000000000000000000000000000000000000000000000000000000000000100032341847803PRISCILA ALVES DE FRANCA MIRANDA        RUA CARLOS JOSE BORSTENS - 50 AP.91 - AV            11702750                                                            000116
2SR. CAIXA, APOS O VENCIMENTO COBRAR 2% DE MULTA                                 NAO RECEBER APOS 30 DIAS DO VENCIMENTO.                                                                                                                                                                                                         09112300000000000000911230000000000000       0090339900006270323418112316000117
100000000000000000000009033990000627000000000000000000000000010002020016050611231100000000002            2  01160506112324112300000003804380000000001N071123000000000000000000000000000000000000000000000000000000000000000100016050684898ANDRE RODRIGUES DE OLIVEIRA             RUA CORACAO PAULISTA - 14 - FAZENDA ITAI            08132430                                                            000119
2SR. CAIXA, APOS O VENCIMENTO COBRAR 2% DE MULTA                                 NAO RECEBER APOS 30 DIAS DO VENCIMENTO.                                                                                                                                                                                                         09112300000000000000911230000000000000       0090339900006270160506112311000120
100000000000000000000009033990000627000000000000000000000000010002020021464911231500000000002            2  01214649112324112300000005995780000000001N071123000000000000000000000000000000000000000000000000000000000000000100021464965846ANDREA APARECIDA DE OLIVEIRA PECCI      RUA ANTONIO BOZ MARFIL - 103 - PARQUE DO            05396020                                                            000122
2SR. CAIXA, APOS O VENCIMENTO COBRAR 2% DE MULTA                                 NAO RECEBER APOS 30 DIAS DO VENCIMENTO.                                                                                                                                                                                                         09112300000000000000911230000000000000       0090339900006270214649112315000123
100000000000000000000009033990000627000000000000000000000000010002020030348111231700000000002            2  01303481112324112300000003632850000000001N071123000000000000000000000000000000000000000000000000000000000000000100030348198892KELLY CRISTINA CORDEIRO                 RUA CARLOS JOSE BORSTENS - 50 AP.25 - AV            11702750                                                            000125
2SR. CAIXA, APOS O VENCIMENTO COBRAR 2% DE MULTA                                 NAO RECEBER APOS 30 DIAS DO VENCIMENTO.                                                                                                                                                                                                         09112300000000000000911230000000000000       0090339900006270303481112317000126
100000000000000000000009033990000627000000000000000000000000010002020003597511231500000000002            2  01035975112326112300000002447760000000001N071123000000000000000000000000000000000000000000000000000000000000000100003597509827ANISIO FAUSTINO DE OLIVEIRA             RUA DOMINGOS DE MAMBRO - 5 CASA 20 - CIT            06040290                                                            000128
2SR. CAIXA, APOS O VENCIMENTO COBRAR 2% DE MULTA                                 NAO RECEBER APOS 30 DIAS DO VENCIMENTO.                                                                                                                                                                                                         09112300000000000000911230000000000000       0090339900006270035975112315000129
9                                                                                                                                                                                                                                                                                                                                                                                                         000130