01REMESSA01COBRANCA       00000000000005331186HB SANTOS CONSTRUTORA E INCORP237BRADESCO       011223        MX0000086                                                                                                                                                                                                                                                                                     000001
100000000000000000000009033990000995400000000000000000000000010002020026858612231800000000002            2  01268586122308122300000003276410000000001N011223000000000000000000000000000000000000000000000000000000000000000100026858625879GLAUCE FERREIRA DE OLIVEIRA FALSI       RUA LOURENCO ANTONIO BRAGANCA - 116 - JA            04403160                                                            000002
2SR. CAIXA, APOS O VENCIMENTO COBRAR 2% DE MULTA                                 NAO RECEBER APOS 30 DIAS DO VENCIMENTO.                                                                                                                                                                                                         01122300000000000000112230000000000000       0090339900009954268586122318000003
100000000000000000000009033990000995400000000000000000000000010002020029425012231000000000002            2  01294250122308122300000003115860000000001N011223000000000000000000000000000000000000000000000000000000000000000100029425027897FABIA DOS SANTOS DE ANDRADE             AVENIDA ALCIDES CANDIDO DOS SANTOS - 248            11705480                                                            000005
2SR. CAIXA, APOS O VENCIMENTO COBRAR 2% DE MULTA                                 NAO RECEBER APOS 30 DIAS DO VENCIMENTO.                                                                                                                                                                                                         01122300000000000000112230000000000000       0090339900009954294250122310000006
100000000000000000000009033990000995400000000000000000000000010002020078382712231600000000002            2  01783827122308122300000003148760000000001N011223000000000000000000000000000000000000000000000000000000000000000100078382700497JARMELINA BARBOSA DA SILVA              RUA OSCAR CINTRA GORDINHO - 211 AP.51 -             01512010                                                            000008
2SR. CAIXA, APOS O VENCIMENTO COBRAR 2% DE MULTA                                 NAO RECEBER APOS 30 DIAS DO VENCIMENTO.                                                                                                                                                                                                         01122300000000000000112230000000000000       0090339900009954783827122316000009
100000000000000000000009033990000995400000000000000000000000010002020007535312231500000000002            2  01075353122308122300000003087730000000001N011223000000000000000000000000000000000000000000000000000000000000000100007535375839AINAILDE PEREIRA DE CASTRO OLIVETTO     TRAVESSA DORALINA ELIETE ADAO DA SILVA -            08021026                                                            000011
2SR. CAIXA, APOS O VENCIMENTO COBRAR 2% DE MULTA                                 NAO RECEBER APOS 30 DIAS DO VENCIMENTO.                                                                                                                                                                                                         01122300000000000000112230000000000000       0090339900009954075353122315000012
100000000000000000000009033990000995400000000000000000000000010002020017229712231000000000002            2  01172297122308122300000003270790000000001N011223000000000000000000000000000000000000000000000000000000000000000100017229751802BERENICE VIEIRA KERSTING                RUA ATIBAIA - 17 AP.417 - BAIRRO IMPERAD            11707380                                                            000014
2SR. CAIXA, APOS O VENCIMENTO COBRAR 2% DE MULTA                                 NAO RECEBER APOS 30 DIAS DO VENCIMENTO.                                                                                                                                                                                                         01122300000000000000112230000000000000       0090339900009954172297122310000015
100000000000000000000009033990000995400000000000000000000000010002020028974212231200000000002            2  01289742122308122300000003054820000000001N011223000000000000000000000000000000000000000000000000000000000000000100028974233827MARISTELA FAVANI DE OLIVEIRA            RUA GIUSEPPE CARNEVALLI - 96 - BAIRRO BO            09572100                                                            000017
2SR. CAIXA, APOS O VENCIMENTO COBRAR 2% DE MULTA                                 NAO RECEBER APOS 30 DIAS DO VENCIMENTO.                                                                                                                                                                                                         01122300000000000000112230000000000000       0090339900009954289742122312000018
100000000000000000000009033990000995400000000000000000000000010002020092184812231P00000000002            2  01921848122308122300000003014180000000001N011223000000000000000000000000000000000000000000000000000000000000000100092184804800CARMEM DO SOCORRO GUILHERME             ESTRADA SAO FRANCISCO - 1.850 AP.182A -             06765000                                                            000020
2SR. CAIXA, APOS O VENCIMENTO COBRAR 2% DE MULTA                                 NAO RECEBER APOS 30 DIAS DO VENCIMENTO.                                                                                                                                                                                                         01122300000000000000112230000000000000       009033990000995492184812231P000021
100000000000000000000009033990000995400000000000000000000000010002020009169712231P00000000002            2  01091697122308122300000002417410000000001N011223000000000000000000000000000000000000000000000000000000000000000100009169701830TADEU CONSTANTINO LOPES                 RUA JOSE ANTONIO COELHO - 349 CASA 01 -             04011061                                                            000023
2SR. CAIXA, APOS O VENCIMENTO COBRAR 2% DE MULTA                                 NAO RECEBER APOS 30 DIAS DO VENCIMENTO.                                                                                                                                                                                                         01122300000000000000112230000000000000       009033990000995409169712231P000024
100000000000000000000009033990000995400000000000000000000000010002020042480112231800000000002            2  01424801122308122300000003075170000000001N011223000000000000000000000000000000000000000000000000000000000000000100042480155870JAMITRE SOIOMARA ALVES DO NASCIMENTO DAVRUA URUGUAI - 89 AP.75 - JARDIM GUILHERM            11702300                                                            000026
2SR. CAIXA, APOS O VENCIMENTO COBRAR 2% DE MULTA                                 NAO RECEBER APOS 30 DIAS DO VENCIMENTO.                                                                                                                                                                                                         01122300000000000000112230000000000000       0090339900009954424801122318000027
100000000000000000000009033990000995400000000000000000000000010002020001356912231400000000002            2  01013569122308122300000003120950000000001N011223000000000000000000000000000000000000000000000000000000000000000100001356993800DALVA MARIA DOS SANTOS                  RUA URUGUAI - 89 AP.74 - AVIACAO - PRAIA            11702300                                                            000029
2SR. CAIXA, APOS O VENCIMENTO COBRAR 2% DE MULTA                                 NAO RECEBER APOS 30 DIAS DO VENCIMENTO.                                                                                                                                                                                                         01122300000000000000112230000000000000       0090339900009954013569122314000030
100000000000000000000009033990000995400000000000000000000000010002020024615512231700000000002            2  01246155122308122300000003559310000000001N011223000000000000000000000000000000000000000000000000000000000000000100024615557884GILBERTO JOSE GONSALES                  RUA URUGUAI - 89 AP.115 - JARDIM GUILHER            11702300                                                            000032
2SR. CAIXA, APOS O VENCIMENTO COBRAR 2% DE MULTA                                 NAO RECEBER APOS 30 DIAS DO VENCIMENTO.                                                                                                                                                                                                         01122300000000000000112230000000000000       0090339900009954246155122317000033
100000000000000000000009033990000995400000000000000000000000010002020036949512231600000000002            2  01369495122308122300000003330650000000001N011223000000000000000000000000000000000000000000000000000000000000000100036949505833FELIPE APARECIDO DOS SANTOS             RUA DAS MIMOSAS - 67 CASA 09 - VILA LUCI            03144010                                                            000035
2SR. CAIXA, APOS O VENCIMENTO COBRAR 2% DE MULTA                                 NAO RECEBER APOS 30 DIAS DO VENCIMENTO.                                                                                                                                                                                                         01122300000000000000112230000000000000       0090339900009954369495122316000036
100000000000000000000009033990000995400000000000000000000000010002020008539312231300000000002            2  01085393122308122300000003402960000000001N011223000000000000000000000000000000000000000000000000000000000000000100008539365871EDMILSON RAIMUNDO DOS SANTOS            RUA CALIDICE - 247 - PARQUE CRUZEIRO - S            08070010                                                            000038
2SR. CAIXA, APOS O VENCIMENTO COBRAR 2% DE MULTA                                 NAO RECEBER APOS 30 DIAS DO VENCIMENTO.                                                                                                                                                                                                         01122300000000000000112230000000000000       0090339900009954085393122313000039
100000000000000000000009033990000995400000000000000000000000010002020024558912231900000000002            2  01245589122308122300000005861160000000001N011223000000000000000000000000000000000000000000000000000000000000000100024558912838EDILENE GORGATTI                        RUA ITARARE - 76 AP.142 - JARDIM GUILHER            11701820                                                            000041
2SR. CAIXA, APOS O VENCIMENTO COBRAR 2% DE MULTA                                 NAO RECEBER APOS 30 DIAS DO VENCIMENTO.                                                                                                                                                                                                         01122300000000000000112230000000000000       0090339900009954245589122319000042
100000000000000000000009033990000995400000000000000000000000010002020004611212231400000000002            2  01046112122308122300000002158330000000001N011223000000000000000000000000000000000000000000000000000000000000000100004611218830TANIA MARIA DA SILVA NUNES PEREIRA LUIZ RUA URUGUAI - 89 AP.103 - JARDIM GUILHER            11702300                                                            000044
2SR. CAIXA, APOS O VENCIMENTO COBRAR 2% DE MULTA                                 NAO RECEBER APOS 30 DIAS DO VENCIMENTO.                                                                                                                                                                                                         01122300000000000000112230000000000000       0090339900009954046112122314000045
100000000000000000000009033990000995400000000000000000000000010002020010548812231100000000002            2  01105488122308122300000003835000000000001N011223000000000000000000000000000000000000000000000000000000000000000100010548844801RICARDO DE JESUS CALDAS                 RUA ANTONIO AMBUBA - 50 CASA 60 - BAIRRO            05782370                                                            000047
2SR. CAIXA, APOS O VENCIMENTO COBRAR 2% DE MULTA                                 NAO RECEBER APOS 30 DIAS DO VENCIMENTO.                                                                                                                                                                                                         01122300000000000000112230000000000000       0090339900009954105488122311000048
100000000000000000000009033990000995400000000000000000000000010002020032038712231900000000002            2  01320387122308122300000002517470000000001N011223000000000000000000000000000000000000000000000000000000000000000100032038775893GUSTAVO PEREIRA DA CRUZ                 RUA SAO FIDELIS - 203 - JARDIM BRASIL -             16074050                                                            000050
2SR. CAIXA, APOS O VENCIMENTO COBRAR 2% DE MULTA                                 NAO RECEBER APOS 30 DIAS DO VENCIMENTO.                                                                                                                                                                                                         01122300000000000000112230000000000000       0090339900009954320387122319000051
100000000000000000000009033990000995400000000000000000000000010002020008993112231600000000002            2  01089931122308122300000011881090000000001N011223000000000000000000000000000000000000000000000000000000000000000100008993178801PATRICIA BITTENCOURT FRACARO            RUA MARCIO MAZZEI - 337 - VILA NOVA MAZZ            02316050                                                            000053
2SR. CAIXA, APOS O VENCIMENTO COBRAR 2% DE MULTA                                 NAO RECEBER APOS 30 DIAS DO VENCIMENTO.                                                                                                                                                                                                         01122300000000000000112230000000000000       0090339900009954089931122316000054
100000000000000000000009033990000995400000000000000000000000010002020025914212231200000000002            2  01259142122308122300000003423020000000001N011223000000000000000000000000000000000000000000000000000000000000000100025914206880JONAS DOS REIS MACHADO                  RUA PROFESSORA MARGARIDA RUTH FERREIRA D            02378200                                                            000056
2SR. CAIXA, APOS O VENCIMENTO COBRAR 2% DE MULTA                                 NAO RECEBER APOS 30 DIAS DO VENCIMENTO.                                                                                                                                                                                                         01122300000000000000112230000000000000       0090339900009954259142122312000057
100000000000000000000009033990000995400000000000000000000000010002020032549512231900000000002            2  01325495122308122300000003128430000000001N011223000000000000000000000000000000000000000000000000000000000000000100032549502833PAMELA DECENCI                          RUA URUGUAI - 89 AP.61 - AVIACAO - PRAIA            11702300                                                            000059
2SR. CAIXA, APOS O VENCIMENTO COBRAR 2% DE MULTA                                 NAO RECEBER APOS 30 DIAS DO VENCIMENTO.                                                                                                                                                                                                         01122300000000000000112230000000000000       0090339900009954325495122319000060
100000000000000000000009033990000995400000000000000000000000010002020027969412231800000000002            2  01279694122308122300000002515890000000001N011223000000000000000000000000000000000000000000000000000000000000000100027969412807THIAGO BARRETO PEREZ                    RUA ARMINDO GUARANA - 170 - VILA REGENTE            03335070                                                            000062
2SR. CAIXA, APOS O VENCIMENTO COBRAR 2% DE MULTA                                 NAO RECEBER APOS 30 DIAS DO VENCIMENTO.                                                                                                                                                                                                         01122300000000000000112230000000000000       0090339900009954279694122318000063
100000000000000000000009033990000995400000000000000000000000010002020013466512231900000000002            2  01134665122308122300000003370500000000001N011223000000000000000000000000000000000000000000000000000000000000000100013466586844MAURICIO DANTAS DA SILVA                RUA CASTOR - 57 - CIDADE SATELITE SANTA             08340120                                                            000065
2SR. CAIXA, APOS O VENCIMENTO COBRAR 2% DE MULTA                                 NAO RECEBER APOS 30 DIAS DO VENCIMENTO.                                                                                                                                                                                                         01122300000000000000112230000000000000       0090339900009954134665122319000066
9                                                                                                                                                                                                                                                                                                                                                                                                         000067