01REMESSA01COBRANCA       00000000000004991781AIRES CONSTRUTORA E INCORPORAD237BRADESCO       100419        MX0000118                                                                                                                                                                                                                                                                                     000001
100000000000000000000009077090006612500000000000000000000000010002100001224504191900000000002            2  01012245041925041900000003574140000000001N100419000000000000000000000000000000000000000000000000000000000000000100001224509579REINALDO JUNIOR MARTINS DE ABREU        AVENIDA INTERLAGOS - 7.224 - INTERLAGOS             04777000                                                            000002
2SR. CAIXA, APOS O VENCIMENTO COBRAR 10% DE MULTA                                NAO RECEBER APOS 30 DIAS DO VENCIMENTO.                                                                                                                                                                                                         10041900000000000001004190000000000000       0090770900066125012245041919000003
100000000000000000000009077090006612500000000000000000000000010002100016338904191100000000002            2  01163389041925041900000003526530000000001N100419000000000000000000000000000000000000000000000000000000000000000100016338929806EDVALDO DA SILVA ANDRADE                RUA ARIA - 434 - PARQUE ALVES DE LIMA -             04902170                                                            000005
2SR. CAIXA, APOS O VENCIMENTO COBRAR 10% DE MULTA                                NAO RECEBER APOS 30 DIAS DO VENCIMENTO.                                                                                                                                                                                                         10041900000000000001004190000000000000       0090770900066125163389041911000006
100000000000000000000009077090006612500000000000000000000000010002100026836904191100000000002            2  01268369041925041900000003193530000000001N100419000000000000000000000000000000000000000000000000000000000000000100026836908860VANDERLEI FIGUEIREDO DE CARVALHO        RUA TUPI - 840 - VILA TUPI - PRAIA GRAND            11703260                                                            000008
2SR. CAIXA, APOS O VENCIMENTO COBRAR 10% DE MULTA                                NAO RECEBER APOS 30 DIAS DO VENCIMENTO.                                                                                                                                                                                                         10041900000000000001004190000000000000       0090770900066125268369041911000009
100000000000000000000009077090006612500000000000000000000000010002100059861504191800000000002            2  01598615041925041900000003547130000000001N100419000000000000000000000000000000000000000000000000000000000000000100059861576800REINALDO LOPES DE OLIVEIRA              RUA DA SERVIDAO - 40 - VILA ROSCHEL - SA            04891045                                                            000011
2SR. CAIXA, APOS O VENCIMENTO COBRAR 10% DE MULTA                                NAO RECEBER APOS 30 DIAS DO VENCIMENTO.                                                                                                                                                                                                         10041900000000000001004190000000000000       0090770900066125598615041918000012
100000000000000000000009077090006612500000000000000000000000010002100016330904191600000000002            2  01163309041925041900000003525640000000001N100419000000000000000000000000000000000000000000000000000000000000000100016330938830KARINA CORDEIRO PIASSA                  CONDE MOREIRA LIMA - 644 - JARDIM JABAQU            04384032                                                            000014
2SR. CAIXA, APOS O VENCIMENTO COBRAR 10% DE MULTA                                NAO RECEBER APOS 30 DIAS DO VENCIMENTO.                                                                                                                                                                                                         10041900000000000001004190000000000000       0090770900066125163309041916000015
100000000000000000000009077090006612500000000000000000000000010002100077027604191900000000002            2  01770276041925041900000003426650000000001N100419000000000000000000000000000000000000000000000000000000000000000100077027604868CLINEU LISSONI                          AVENIDA VILA EMA - 1100 AP.41 - VILA PRU            03156000                                                            000017
2SR. CAIXA, APOS O VENCIMENTO COBRAR 10% DE MULTA                                NAO RECEBER APOS 30 DIAS DO VENCIMENTO.                                                                                                                                                                                                         10041900000000000001004190000000000000       0090770900066125770276041919000018
100000000000000000000009077090006612500000000000000000000000010002100029380704191600000000002            2  01293807041925041900000003193720000000001N100419000000000000000000000000000000000000000000000000000000000000000100029380708882EDUARDO MENDONCA DAMASCENO              RUA MONTE CASTELO - 296 AP.12 - AVIACAO             11702720                                                            000020
2SR. CAIXA, APOS O VENCIMENTO COBRAR 10% DE MULTA                                NAO RECEBER APOS 30 DIAS DO VENCIMENTO.                                                                                                                                                                                                         10041900000000000001004190000000000000       0090770900066125293807041916000021
100000000000000000000009077090006612500000000000000000000000010002100023988504191P00000000002            2  01239885041925041900000003242860000000001N100419000000000000000000000000000000000000000000000000000000000000000100023988525634DALMY PIMENTA                           SAO CAETANO - 136 - VILA SAO VICENTE - U            38026220                                                            000023
2SR. CAIXA, APOS O VENCIMENTO COBRAR 10% DE MULTA                                NAO RECEBER APOS 30 DIAS DO VENCIMENTO.                                                                                                                                                                                                         10041900000000000001004190000000000000       009077090006612523988504191P000024
100000000000000000000009077090006612500000000000000000000000010002100004735204191100000000002            2  01047352041925041900000003525850000000001N100419000000000000000000000000000000000000000000000000000000000000000100004735273832DARIO LUIZ GONCALVES                    RUA MONTE CASTELO - 295 AP.113 - AVIACAO            11702720                                                            000026
2SR. CAIXA, APOS O VENCIMENTO COBRAR 10% DE MULTA                                NAO RECEBER APOS 30 DIAS DO VENCIMENTO.                                                                                                                                                                                                         10041900000000000001004190000000000000       0090770900066125047352041911000027
100000000000000000000009077090006612500000000000000000000000010002100007635204191100000000002            2  01076352041925041900000003152330000000001N100419000000000000000000000000000000000000000000000000000000000000000100007635293893SILVIO CARDOSO ZACARIAS                 RUA SOLIDONIO LEITE - 2718 AP.102 BLOCO             03275000                                                            000029
2SR. CAIXA, APOS O VENCIMENTO COBRAR 10% DE MULTA                                NAO RECEBER APOS 30 DIAS DO VENCIMENTO.                                                                                                                                                                                                         10041900000000000001004190000000000000       0090770900066125076352041911000030
100000000000000000000009077090006612500000000000000000000000010002100007975904191500000000002            2  01079759041925041900000003429560000000001N100419000000000000000000000000000000000000000000000000000000000000000100007975958808JOCY VIGNADO                            RUA PEDRO GONCALVES SOBRINHO - 568 - PAR            13098641                                                            000032
2SR. CAIXA, APOS O VENCIMENTO COBRAR 10% DE MULTA                                NAO RECEBER APOS 30 DIAS DO VENCIMENTO.                                                                                                                                                                                                         10041900000000000001004190000000000000       0090770900066125079759041915000033
100000000000000000000009077090006612500000000000000000000000010002100036712504191800000000002            2  01367125041925041900000003206770000000001N100419000000000000000000000000000000000000000000000000000000000000000100036712580803WALTER BARRETO DE ALMEIDA               RUA MONTE CASTELO - 296 AP.44 - AVIACAO             11702720                                                            000035
2SR. CAIXA, APOS O VENCIMENTO COBRAR 10% DE MULTA                                NAO RECEBER APOS 30 DIAS DO VENCIMENTO.                                                                                                                                                                                                         10041900000000000001004190000000000000       0090770900066125367125041918000036
100000000000000000000009077090006612500000000000000000000000010002100036386804191700000000002            2  01363868041925041900000003622130000000001N100419000000000000000000000000000000000000000000000000000000000000000100036386861833ALINE LEE WEI DE SOUZA                  AV. PRES.CASTELO BRANCO - 9127 AP.251 BL            11704600                                                            000038
2SR. CAIXA, APOS O VENCIMENTO COBRAR 10% DE MULTA                                NAO RECEBER APOS 30 DIAS DO VENCIMENTO.                                                                                                                                                                                                         10041900000000000001004190000000000000       0090770900066125363868041917000039
100000000000000000000009077090006612500000000000000000000000010002100070465304191800000000002            2  01704653041925041900000003294790000000001N100419000000000000000000000000000000000000000000000000000000000000000100070465320953SIDNEY CARASKI                          RUA DR.CELSO PACHECO BENTIM - 502 - PARQ            03571020                                                            000041
2SR. CAIXA, APOS O VENCIMENTO COBRAR 10% DE MULTA                                NAO RECEBER APOS 30 DIAS DO VENCIMENTO.                                                                                                                                                                                                         10041900000000000001004190000000000000       0090770900066125704653041918000042
100000000000000000000009077090006612500000000000000000000000010002100075759404191300000000002            2  01757594041925041900000002580100000000001N100419000000000000000000000000000000000000000000000000000000000000000100075759446800VALTER MUTAFEI                          RUA MONTE CASTELO - 295 AP.54 - AVIACAO             11702720                                                            000044
2SR. CAIXA, APOS O VENCIMENTO COBRAR 10% DE MULTA                                NAO RECEBER APOS 30 DIAS DO VENCIMENTO.                                                                                                                                                                                                         10041900000000000001004190000000000000       0090770900066125757594041913000045
100000000000000000000009077090006612500000000000000000000000010002100070328704191100000000002            2  01703287041925041900000003686330000000001N100419000000000000000000000000000000000000000000000000000000000000000100070328706868VALTER LIMA FERNANDES                   RUA DOMINGOS JORGE VELHO - 52 - CENTRO -            06843550                                                            000047
2SR. CAIXA, APOS O VENCIMENTO COBRAR 10% DE MULTA                                NAO RECEBER APOS 30 DIAS DO VENCIMENTO.                                                                                                                                                                                                         10041900000000000001004190000000000000       0090770900066125703287041911000048
100000000000000000000009077090006612500000000000000000000000010002100023132604191700000000002            2  01231326041925041900000002002370000000001N100419000000000000000000000000000000000000000000000000000000000000000100023132672882LEANDRO MORENO                          RUA MONTE CASTELO - 296 AP.64 - AVIACAO             11702720                                                            000050
2SR. CAIXA, APOS O VENCIMENTO COBRAR 10% DE MULTA                                NAO RECEBER APOS 30 DIAS DO VENCIMENTO.                                                                                                                                                                                                         10041900000000000001004190000000000000       0090770900066125231326041917000051
100000000000000000000009077090006612500000000000000000000000010002100099264604191600000000002            2  01992646041925041900000003414840000000001N100419000000000000000000000000000000000000000000000000000000000000000100099264692800LEONTINO PINHEIRO DA SILVA              AVENIDA JOAO BATISTA FITIPALDI - 469 - V            08685000                                                            000053
2SR. CAIXA, APOS O VENCIMENTO COBRAR 10% DE MULTA                                NAO RECEBER APOS 30 DIAS DO VENCIMENTO.                                                                                                                                                                                                         10041900000000000001004190000000000000       0090770900066125992646041916000054
100000000000000000000009077090006612500000000000000000000000010002100000666304191700000000002            2  01006663041925041900000003294390000000001N100419000000000000000000000000000000000000000000000000000000000000000100000666344825LUIZ HENRIQUE DE CAMPOS                 RUA JOAO CARLOS CAVALCANTI REIS - 21 - J            02281206                                                            000056
2SR. CAIXA, APOS O VENCIMENTO COBRAR 10% DE MULTA                                NAO RECEBER APOS 30 DIAS DO VENCIMENTO.                                                                                                                                                                                                         10041900000000000001004190000000000000       0090770900066125006663041917000057
100000000000000000000009077090006612500000000000000000000000010002100001204404191000000000002            2  01012044041925041900000002833150000000001N100419000000000000000000000000000000000000000000000000000000000000000100001204431809CEZAR TALAVERA JUNIOR                   RUA MAESTRO ARTURO DE ANGELIS  - 190 AP.            05139010                                                            000059
2SR. CAIXA, APOS O VENCIMENTO COBRAR 10% DE MULTA                                NAO RECEBER APOS 30 DIAS DO VENCIMENTO.                                                                                                                                                                                                         10041900000000000001004190000000000000       0090770900066125012044041910000060
100000000000000000000009077090006612500000000000000000000000010002100004227504191P00000000002            2  01042275041925041900000003672610000000001N100419000000000000000000000000000000000000000000000000000000000000000100004227553970ALESSANDRO ISRAEL GOULART               RUA PROFESSORA CARLINDA RIBEIRO - 21 - F            02866200                                                            000062
2SR. CAIXA, APOS O VENCIMENTO COBRAR 10% DE MULTA                                NAO RECEBER APOS 30 DIAS DO VENCIMENTO.                                                                                                                                                                                                         10041900000000000001004190000000000000       009077090006612504227504191P000063
100000000000000000000009077090006612500000000000000000000000010002100060811404191300000000002            2  01608114041925041900000003384740000000001N100419000000000000000000000000000000000000000000000000000000000000000100060811420868HELIO BASSI                             AV.PARIS,575 - PRACA ANTONIO FIGUEROA -             11700082                                                            000065
2SR. CAIXA, APOS O VENCIMENTO COBRAR 10% DE MULTA                                NAO RECEBER APOS 30 DIAS DO VENCIMENTO.                                                                                                                                                                                                         10041900000000000001004190000000000000       0090770900066125608114041913000066
100000000000000000000009077090006612500000000000000000000000010002100001024704191300000000002            2  01010247041925041900000003202870000000001N100419000000000000000000000000000000000000000000000000000000000000000100001024794881CLAUDIO RODRIGUES                       RUA ARACATUBA - 242 - LAPA - SAO PAULO -            05058010                                                            000068
2SR. CAIXA, APOS O VENCIMENTO COBRAR 10% DE MULTA                                NAO RECEBER APOS 30 DIAS DO VENCIMENTO.                                                                                                                                                                                                         10041900000000000001004190000000000000       0090770900066125010247041913000069
100000000000000000000009077090006612500000000000000000000000010002100002225004191400000000002            2  01022250041925041900000004910420000000001N100419000000000000000000000000000000000000000000000000000000000000000100002225072841PEDRO EDUARDO DE AZEVEDO                RUA NATH ZILMAN - 46 - JARDIM SAMAMBAIA             07600000                                                            000071
2SR. CAIXA, APOS O VENCIMENTO COBRAR 10% DE MULTA                                NAO RECEBER APOS 30 DIAS DO VENCIMENTO.                                                                                                                                                                                                         10041900000000000001004190000000000000       0090770900066125022250041914000072
100000000000000000000009077090006612500000000000000000000000010002100022037504191200000000002            2  01220375041925041900000003417110000000001N100419000000000000000000000000000000000000000000000000000000000000000100022037552882ANDREIA CRISTINA FERNANDES DANTAS       PCA CASTRO ALVES - 163 AP.33 - VILA SAO             13224299                                                            000074
2SR. CAIXA, APOS O VENCIMENTO COBRAR 10% DE MULTA                                NAO RECEBER APOS 30 DIAS DO VENCIMENTO.                                                                                                                                                                                                         10041900000000000001004190000000000000       0090770900066125220375041912000075
100000000000000000000009077090006612500000000000000000000000010002100019288704191000000000002            2  01192887041925041900000002782300000000001N100419000000000000000000000000000000000000000000000000000000000000000100019288787844EMERSON LUIZ MARTINEZ PEREIRA           RUA MONTE CASTELO - 296 AP.74 - AVIACAO             11702720                                                            000077
2SR. CAIXA, APOS O VENCIMENTO COBRAR 10% DE MULTA                                NAO RECEBER APOS 30 DIAS DO VENCIMENTO.                                                                                                                                                                                                         10041900000000000001004190000000000000       0090770900066125192887041910000078
100000000000000000000009077090006612500000000000000000000000010002100027198404191400000000002            2  01271984041925041900000002356770000000001N100419000000000000000000000000000000000000000000000000000000000000000100027198452809CRISTIANE AURELIANO DA SILVA MAIA       RUA MONTE CASTELO - 262 AP.25 - AVIACAO             11702720                                                            000080
2SR. CAIXA, APOS O VENCIMENTO COBRAR 10% DE MULTA                                NAO RECEBER APOS 30 DIAS DO VENCIMENTO.                                                                                                                                                                                                         10041900000000000001004190000000000000       0090770900066125271984041914000081
100000000000000000000009077090006612500000000000000000000000010002100021246204191800000000002            2  01212462041925041900000002876190000000001N100419000000000000000000000000000000000000000000000000000000000000000100021246231840ALEXANDRO DA CUNHA MIGUES               AVENIDA CONSELHEIRO CARRAO - 1861 CONJ.5            03403001                                                            000083
2SR. CAIXA, APOS O VENCIMENTO COBRAR 10% DE MULTA                                NAO RECEBER APOS 30 DIAS DO VENCIMENTO.                                                                                                                                                                                                         10041900000000000001004190000000000000       0090770900066125212462041918000084
100000000000000000000009077090006612500000000000000000000000010002100018834204191600000000002            2  01188342041925041900000003359680000000001N100419000000000000000000000000000000000000000000000000000000000000000100018834257863ILTON FERNANDO MUTCHNIK                 RUA ASSUNGUI - 700 AP.222 - VILA GUMERCI            04131001                                                            000086
2SR. CAIXA, APOS O VENCIMENTO COBRAR 10% DE MULTA                                NAO RECEBER APOS 30 DIAS DO VENCIMENTO.                                                                                                                                                                                                         10041900000000000001004190000000000000       0090770900066125188342041916000087
100000000000000000000009077090006612500000000000000000000000010002100018470504191800000000002            2  01184705041925041900000004231280000000001N100419000000000000000000000000000000000000000000000000000000000000000100018470520881SILVANA ALVES DE OLIVEIRA               RUA MONTE CASTELO - 262 AP.91 - AVIACAO             11702720                                                            000089
2SR. CAIXA, APOS O VENCIMENTO COBRAR 10% DE MULTA                                NAO RECEBER APOS 30 DIAS DO VENCIMENTO.                                                                                                                                                                                                         10041900000000000001004190000000000000       0090770900066125184705041918000090
100000000000000000000009077090006612500000000000000000000000010002100009297504191800000000002            2  01092975041925041900000002945770000000001N100419000000000000000000000000000000000000000000000000000000000000000100009297523846MARCOS ROBERTO DE CASTRO FERREIRA       RUA MONTE CASTELO - 262 AP.105 - AVIACAO            11702720                                                            000092
2SR. CAIXA, APOS O VENCIMENTO COBRAR 10% DE MULTA                                NAO RECEBER APOS 30 DIAS DO VENCIMENTO.                                                                                                                                                                                                         10041900000000000001004190000000000000       0090770900066125092975041918000093
100000000000000000000009077090006612500000000000000000000000010002100001164104191700000000002            2  01011641041925041900000003650480000000001N100419000000000000000000000000000000000000000000000000000000000000000100001164158864DAVID BLEY LACERDA                      RUA CONEGO ARAUJO MARCONDES - 188 - BAIR            02550080                                                            000095
2SR. CAIXA, APOS O VENCIMENTO COBRAR 10% DE MULTA                                NAO RECEBER APOS 30 DIAS DO VENCIMENTO.                                                                                                                                                                                                         10041900000000000001004190000000000000       0090770900066125011641041917000096
100000000000000000000009077090006612500000000000000000000000010002100031498004191000000000002            2  01314980041925041900000004436640000000001N100419000000000000000000000000000000000000000000000000000000000000000100031498008895POLIANE  SIBELE DA SILVA                PRACA GENERAL COSTA BARRETO - 56 AP.181             03325070                                                            000098
2SR. CAIXA, APOS O VENCIMENTO COBRAR 10% DE MULTA                                NAO RECEBER APOS 30 DIAS DO VENCIMENTO.                                                                                                                                                                                                         10041900000000000001004190000000000000       0090770900066125314980041910000099
100000000000000000000009077090006612500000000000000000000000010002100000588104191400000000002            2  01005881041925041900000002602180000000001N100419000000000000000000000000000000000000000000000000000000000000000100000588109860JOSE LIARTE GIANTE                      AVENIDA LUIZ GONZAGA DO AMARAL - 143 - J            09320630                                                            000101
2SR. CAIXA, APOS O VENCIMENTO COBRAR 10% DE MULTA                                NAO RECEBER APOS 30 DIAS DO VENCIMENTO.                                                                                                                                                                                                         10041900000000000001004190000000000000       0090770900066125005881041914000102
100000000000000000000009077090006612500000000000000000000000010002100014386804191700000000002            2  01143868041925041900000002081620000000001N100419000000000000000000000000000000000000000000000000000000000000000100014386860134SEVERINO CARLOS DE OLIVEIRA             RUA MONTE CASTELO - 262 AP.54 - AVIACAO             11702720                                                            000104
2SR. CAIXA, APOS O VENCIMENTO COBRAR 10% DE MULTA                                NAO RECEBER APOS 30 DIAS DO VENCIMENTO.                                                                                                                                                                                                         10041900000000000001004190000000000000       0090770900066125143868041917000105
100000000000000000000009077090006612500000000000000000000000010002100039393704191200000000002            2  01393937041925041900000001434670000000001N100419000000000000000000000000000000000000000000000000000000000000000100039393790850NAIRON RICARDO DE ARAUJO SANTOS         RUA MONTE CASTELO - 262 AP.23 - AVIACAO             11702720                                                            000107
2SR. CAIXA, APOS O VENCIMENTO COBRAR 10% DE MULTA                                NAO RECEBER APOS 30 DIAS DO VENCIMENTO.                                                                                                                                                                                                         10041900000000000001004190000000000000       0090770900066125393937041912000108
100000000000000000000009077090006612500000000000000000000000010002100041896804191300000000002            2  01418968041925041900000002089370000000001N100419000000000000000000000000000000000000000000000000000000000000000100041896807968SERGIO ROBERTO DA SILVA                 RUA DOS INGLESES - 542 AP.61 - MORRO DOS            01329000                                                            000110
2SR. CAIXA, APOS O VENCIMENTO COBRAR 10% DE MULTA                                NAO RECEBER APOS 30 DIAS DO VENCIMENTO.                                                                                                                                                                                                         10041900000000000001004190000000000000       0090770900066125418968041913000111
9                                                                                                                                                                                                                                                                                                                                                                                                         000112