01REMESSA01COBRANCA       00000000000005316116AIRES CONSTRUTORA E INCORPORAD237BRADESCO       071223        MX0000232                                                                                                                                                                                                                                                                                     000001
100000000000000000000009002800441612000000000000000000000000010002100001204412231700000000002            2  01012044122325122300000003877230000000001N061223000000000000000000000000000000000000000000000000000000000000000100001204431809CEZAR TALAVERA JUNIOR                   RUA MAESTRO ARTURO DE ANGELIS  - 190 AP.            05139010                                                            000002
2SR. CAIXA, APOS O VENCIMENTO COBRAR 10% DE MULTA                                NAO RECEBER APOS 30 DIAS DO VENCIMENTO.                                                                                                                                                                                                         07122300000000000000712230000000000000       0090028004416120012044122317000003
100000000000000000000009002800441612000000000000000000000000010002100002225012231000000000002            2  01022250122325122300000006719970000000001N061223000000000000000000000000000000000000000000000000000000000000000100002225072841PEDRO EDUARDO DE AZEVEDO                RUA NATH ZILMAN - 46 - JARDIM SAMAMBAIA             07623085                                                            000005
2SR. CAIXA, APOS O VENCIMENTO COBRAR 10% DE MULTA                                NAO RECEBER APOS 30 DIAS DO VENCIMENTO.                                                                                                                                                                                                         07122300000000000000712230000000000000       0090028004416120022250122310000006
100000000000000000000009002800441612000000000000000000000000010002100031498012231700000000002            2  01314980122325122300000006071640000000001N061223000000000000000000000000000000000000000000000000000000000000000100031498008895POLIANE  SIBELE DA SILVA                PRACA GENERAL COSTA BARRETO - 56 AP.181             03325070                                                            000008
2SR. CAIXA, APOS O VENCIMENTO COBRAR 10% DE MULTA                                NAO RECEBER APOS 30 DIAS DO VENCIMENTO.                                                                                                                                                                                                         07122300000000000000712230000000000000       0090028004416120314980122317000009
100000000000000000000009002800441612000000000000000000000000010002100014386812231300000000002            2  01143868122325122300000002848760000000001N061223000000000000000000000000000000000000000000000000000000000000000100014386860134SEVERINO CARLOS DE OLIVEIRA             RUA MONTE CASTELO - 262 AP.54 - AVIACAO             11702720                                                            000011
2SR. CAIXA, APOS O VENCIMENTO COBRAR 10% DE MULTA                                NAO RECEBER APOS 30 DIAS DO VENCIMENTO.                                                                                                                                                                                                         07122300000000000000712230000000000000       0090028004416120143868122313000012
100000000000000000000009002800441612000000000000000000000000010002100039393712231900000000002            2  01393937122325122300000001963440000000001N061223000000000000000000000000000000000000000000000000000000000000000100039393790850NAIRON RICARDO DE ARAUJO SANTOS         RUA NITEROI - 267 CASA 04 - JARDIM INDEP            11380350                                                            000014
2SR. CAIXA, APOS O VENCIMENTO COBRAR 10% DE MULTA                                NAO RECEBER APOS 30 DIAS DO VENCIMENTO.                                                                                                                                                                                                         07122300000000000000712230000000000000       0090028004416120393937122319000015
100000000000000000000009002800441612000000000000000000000000010002100019288712231700000000002            2  01192887122325122300000002644180000000001N061223000000000000000000000000000000000000000000000000000000000000000100019288787844EMERSON LUIZ MARTINEZ PEREIRA           RUA MONTE CASTELO - 296 AP.74 - AVIACAO             11702720                                                            000017
2SR. CAIXA, APOS O VENCIMENTO COBRAR 10% DE MULTA                                NAO RECEBER APOS 30 DIAS DO VENCIMENTO.                                                                                                                                                                                                         07122300000000000000712230000000000000       0090028004416120192887122317000018
9                                                                                                                                                                                                                                                                                                                                                                                                         000019