01REMESSA01COBRANCA       00000000000005316116AIRES CONSTRUTORA E INCORPORAD237BRADESCO       100723        MX0000222                                                                                                                                                                                                                                                                                     000001
100000000000000000000009002800441612000000000000000000000000010002100001204407231P00000000002            2  01012044072325072300000003758330000000001N100723000000000000000000000000000000000000000000000000000000000000000100001204431809CEZAR TALAVERA JUNIOR                   RUA MAESTRO ARTURO DE ANGELIS  - 190 AP.            05139010                                                            000002
2SR. CAIXA, APOS O VENCIMENTO COBRAR 10% DE MULTA                                NAO RECEBER APOS 30 DIAS DO VENCIMENTO.                                                                                                                                                                                                         10072300000000000001007230000000000000       009002800441612001204407231P000003
100000000000000000000009002800441612000000000000000000000000010002100001164107231600000000002            2  01011641072325072300000004842550000000001N100723000000000000000000000000000000000000000000000000000000000000000100001164158864DAVID BLEY LACERDA                      RUA CONEGO ARAUJO MARCONDES - 188 - BAIR            02550080                                                            000005
2SR. CAIXA, APOS O VENCIMENTO COBRAR 10% DE MULTA                                NAO RECEBER APOS 30 DIAS DO VENCIMENTO.                                                                                                                                                                                                         10072300000000000001007230000000000000       0090028004416120011641072316000006
100000000000000000000009002800441612000000000000000000000000010002100031498007231P00000000002            2  01314980072325072300000005885440000000001N100723000000000000000000000000000000000000000000000000000000000000000100031498008895POLIANE  SIBELE DA SILVA                PRACA GENERAL COSTA BARRETO - 56 AP.181             03325070                                                            000008
2SR. CAIXA, APOS O VENCIMENTO COBRAR 10% DE MULTA                                NAO RECEBER APOS 30 DIAS DO VENCIMENTO.                                                                                                                                                                                                         10072300000000000001007230000000000000       009002800441612031498007231P000009
100000000000000000000009002800441612000000000000000000000000010002100014386807231600000000002            2  01143868072325072300000002761400000000001N100723000000000000000000000000000000000000000000000000000000000000000100014386860134SEVERINO CARLOS DE OLIVEIRA             RUA MONTE CASTELO - 262 AP.54 - AVIACAO             11702720                                                            000011
2SR. CAIXA, APOS O VENCIMENTO COBRAR 10% DE MULTA                                NAO RECEBER APOS 30 DIAS DO VENCIMENTO.                                                                                                                                                                                                         10072300000000000001007230000000000000       0090028004416120143868072316000012
100000000000000000000009002800441612000000000000000000000000010002100039393707231100000000002            2  01393937072325072300000001903220000000001N100723000000000000000000000000000000000000000000000000000000000000000100039393790850NAIRON RICARDO DE ARAUJO SANTOS         RUA NITEROI - 267 CASA 04 - JARDIM INDEP            11380350                                                            000014
2SR. CAIXA, APOS O VENCIMENTO COBRAR 10% DE MULTA                                NAO RECEBER APOS 30 DIAS DO VENCIMENTO.                                                                                                                                                                                                         10072300000000000001007230000000000000       0090028004416120393937072311000015
100000000000000000000009002800441612000000000000000000000000010002100019288707231P00000000002            2  01192887072325072300000002563100000000001N100723000000000000000000000000000000000000000000000000000000000000000100019288787844EMERSON LUIZ MARTINEZ PEREIRA           RUA MONTE CASTELO - 296 AP.74 - AVIACAO             11702720                                                            000017
2SR. CAIXA, APOS O VENCIMENTO COBRAR 10% DE MULTA                                NAO RECEBER APOS 30 DIAS DO VENCIMENTO.                                                                                                                                                                                                         10072300000000000001007230000000000000       009002800441612019288707231P000018
9                                                                                                                                                                                                                                                                                                                                                                                                         000019