01REMESSA01COBRANCA       00000000000004991454AIRES CONSTRUTORA E INCORPORAD237BRADESCO       010317        MX0000068                                                                                                                                                                                                                                                                                     000001
100000000000000000000009077090001674800000000000000000000000010002100000000007511900000000002            2  01000000751110031700000002038650000000099N010317000000000000000000000000000000000000000000000000000000000000000100094852294887GISELDA MENON                           RUA OTAVIO BARRETO - 105 - VILA SANTISTA            02560080                                                            000002
2SR. CAIXA, APOS O VENCIMENTO COBRAR 10% DE MULTA                                NAO RECEBER APOS 30 DIAS DO VENCIMENTO.                                                                                                                                                                                                         01031700000000000000103170000000000000       0090770900016748000000075119000003
100000000000000000000009077090001674800000000000000000000000010002100000000027933400000000002            2  01000002793310031700000003126630000000099N010317000000000000000000000000000000000000000000000000000000000000000100006485911820CELIO MANUEL  MELIM SANTO               RUA JUVENAL FERREIRA  - 85 AP.61 - VILA             03512040                                                            000005
2SR. CAIXA, APOS O VENCIMENTO COBRAR 10% DE MULTA                                NAO RECEBER APOS 30 DIAS DO VENCIMENTO.                                                                                                                                                                                                         01031700000000000000103170000000000000       0090770900016748000000279334000006
100000000000000000000009077090001674800000000000000000000000010002100000000058966P00000000002            2  01000005896610031700000002725090000000099N010317000000000000000000000000000000000000000000000000000000000000000100004693857823NIVALDO BARTOLOMEU FERREIRA             MNS JOSE MARINONI  - 33 - SANTO AMARO -             04430350                                                            000008
2SR. CAIXA, APOS O VENCIMENTO COBRAR 10% DE MULTA                                NAO RECEBER APOS 30 DIAS DO VENCIMENTO.                                                                                                                                                                                                         01031700000000000000103170000000000000       009077090001674800000058966P000009
100000000000000000000009077090001674800000000000000000000000010002100000000079288000000000002            2  01000007928810031700000002594910000000099N010317000000000000000000000000000000000000000000000000000000000000000100027993108853DALVA JESUS RODRIGUES CABRAL            RUA CRISTOVAO COLOMBO GONCALVES - 97 - C            04811050                                                            000011
2SR. CAIXA, APOS O VENCIMENTO COBRAR 10% DE MULTA                                NAO RECEBER APOS 30 DIAS DO VENCIMENTO.                                                                                                                                                                                                         01031700000000000000103170000000000000       0090770900016748000000792880000012
100000000000000000000009077090001674800000000000000000000000010002100000009951010500000000002            2  01000995101010031700000002695510000000099N010317000000000000000000000000000000000000000000000000000000000000000100000455495831PAULO HENRIQUE LOURENCO                 RUA FIGUEIRA  - 237 - CIDADE DAS FLORES             06184060                                                            000014
2SR. CAIXA, APOS O VENCIMENTO COBRAR 10% DE MULTA                                NAO RECEBER APOS 30 DIAS DO VENCIMENTO.                                                                                                                                                                                                         01031700000000000000103170000000000000       0090770900016748000099510105000015
100000000000000000000009077090001674800000000000000000000000010002100000019011919200000000002            2  01001901191910031700000003342810000000099N010317000000000000000000000000000000000000000000000000000000000000000100006140049857MARIA ALBANI DA SILVA EUSEBIO           RUA ORLANDO SEGALA - 108 - JARDIM ADRIAN            07135190                                                            000017
2SR. CAIXA, APOS O VENCIMENTO COBRAR 10% DE MULTA                                NAO RECEBER APOS 30 DIAS DO VENCIMENTO.                                                                                                                                                                                                         01031700000000000000103170000000000000       0090770900016748000190119192000018
100000000000000000000009077090001674800000000000000000000000010002100000031122931400000000002            2  01003112293110031700000003277990000000099N010317000000000000000000000000000000000000000000000000000000000000000100002324785897IZILDA NAPOLI                           RUA MONTE CASTELO - 295 AP.71 - AVIACAO             11702720                                                            000020
2SR. CAIXA, APOS O VENCIMENTO COBRAR 10% DE MULTA                                NAO RECEBER APOS 30 DIAS DO VENCIMENTO.                                                                                                                                                                                                         01031700000000000000103170000000000000       0090770900016748000311229314000021
100000000000000000000009077090001674800000000000000000000000010002100000034953335100000000002            2  01003495333510031700000002515250000000099N010317000000000000000000000000000000000000000000000000000000000000000100007996062862HENRIQUE SALVADOR                       DARDANELOS - 689 - PARQUE NOVO ORATORIO             09260060                                                            000023
2SR. CAIXA, APOS O VENCIMENTO COBRAR 10% DE MULTA                                NAO RECEBER APOS 30 DIAS DO VENCIMENTO.                                                                                                                                                                                                         01031700000000000000103170000000000000       0090770900016748000349533351000024
100000000000000000000009077090001674800000000000000000000000010002100000036023136700000000002            2  01003602313610031700000003395720000000099N010317000000000000000000000000000000000000000000000000000000000000000100007768713826FATIMA LUZIA BIANCHI                    DR. OLIDAIR AMBROSIO - 1487 AP.03 - CENT            14160170                                                            000026
2SR. CAIXA, APOS O VENCIMENTO COBRAR 10% DE MULTA                                NAO RECEBER APOS 30 DIAS DO VENCIMENTO.                                                                                                                                                                                                         01031700000000000000103170000000000000       0090770900016748000360231367000027
100000000000000000000009077090001674800000000000000000000000010002100000038873639100000000002            2  01003887363910031700000003345300000000099N010317000000000000000000000000000000000000000000000000000000000000000100021716847800DANIELLE FAGUNDES DE A.MATOS            CONDE MOREIRA LIMA - 644 - JARDIM JABAQU            04384032                                                            000029
2SR. CAIXA, APOS O VENCIMENTO COBRAR 10% DE MULTA                                NAO RECEBER APOS 30 DIAS DO VENCIMENTO.                                                                                                                                                                                                         01031700000000000000103170000000000000       0090770900016748000388736391000030
100000000000000000000009077090001674800000000000000000000000010002100000041863842P00000000002            2  01004186384210031700000002794820000000099N010317000000000000000000000000000000000000000000000000000000000000000100028196184808VANESSA NOGUEIRA CAMBUI DA SILVA        CRISTOVAO COLOMBO - 217 - VILA AMERICA -            09110160                                                            000032
2SR. CAIXA, APOS O VENCIMENTO COBRAR 10% DE MULTA                                NAO RECEBER APOS 30 DIAS DO VENCIMENTO.                                                                                                                                                                                                         01031700000000000000103170000000000000       009077090001674800041863842P000033
100000000000000000000009077090001674800000000000000000000000010002100000045774246300000000002            2  01004577424610031700000002953520000000099N010317000000000000000000000000000000000000000000000000000000000000000100005678057863FABIO MOREIRA CAMPOS                    RUA FLORENCIO DA SILVA - 284 - VILA LIBA            03738070                                                            000035
2SR. CAIXA, APOS O VENCIMENTO COBRAR 10% DE MULTA                                NAO RECEBER APOS 30 DIAS DO VENCIMENTO.                                                                                                                                                                                                         01031700000000000000103170000000000000       0090770900016748000457742463000036
100000000000000000000009077090001674800000000000000000000000010002100000046734347800000000002            2  01004673434710031700000002982350000000099N010317000000000000000000000000000000000000000000000000000000000000000100007784496885GUILHERME LEONARDO DO NASCIMENTO        COMENDADOR RUBENS RONCARE - 127 - PONTE             11530120                                                            000038
2SR. CAIXA, APOS O VENCIMENTO COBRAR 10% DE MULTA                                NAO RECEBER APOS 30 DIAS DO VENCIMENTO.                                                                                                                                                                                                         01031700000000000000103170000000000000       0090770900016748000467343478000039
100000000000000000000009077090001674800000000000000000000000010002100000047684448P00000000002            2  01004768444810031700000002881390000000099N010317000000000000000000000000000000000000000000000000000000000000000100016348237885AILTON LORENA                           AVENIDA BRASILIA - 194 - BELA VISTA - SA            09180260                                                            000041
2SR. CAIXA, APOS O VENCIMENTO COBRAR 10% DE MULTA                                NAO RECEBER APOS 30 DIAS DO VENCIMENTO.                                                                                                                                                                                                         01031700000000000000103170000000000000       009077090001674800047684448P000042
100000000000000000000009077090001674800000000000000000000000010002100000051524852000000000002            2  01005152485210031700000002780880000000099N010317000000000000000000000000000000000000000000000000000000000000000100081218486953OSMAR DA COSTA                          RUA MONTE CASTELO - 295 AP.33 - AVIACAO             11702720                                                            000044
2SR. CAIXA, APOS O VENCIMENTO COBRAR 10% DE MULTA                                NAO RECEBER APOS 30 DIAS DO VENCIMENTO.                                                                                                                                                                                                         01031700000000000000103170000000000000       0090770900016748000515248520000045
100000000000000000000009077090001674800000000000000000000000010002100000054535155500000000002            2  01005453515510031700000003158560000000099N010317000000000000000000000000000000000000000000000000000000000000000100004981884850SILVIO PAULINO GONCALVES                MARIA DE CASTRO MESQUITA - 84 AP.103 BLO            07110040                                                            000047
2SR. CAIXA, APOS O VENCIMENTO COBRAR 10% DE MULTA                                NAO RECEBER APOS 30 DIAS DO VENCIMENTO.                                                                                                                                                                                                         01031700000000000000103170000000000000       0090770900016748000545351555000048
100000000000000000000009077090001674800000000000000000000000010002100000055005256600000000002            2  01005500525610031700000006714050000000099N010317000000000000000000000000000000000000000000000000000000000000000100019282546837FABIO LEANDRO DE FREITAS ASSIS          RUA BASSIM NAGIB TRABULSI - 97 - PONTA D            11030540                                                            000050
2SR. CAIXA, APOS O VENCIMENTO COBRAR 10% DE MULTA                                NAO RECEBER APOS 30 DIAS DO VENCIMENTO.                                                                                                                                                                                                         01031700000000000000103170000000000000       0090770900016748000550052566000051
100000000000000000000009077090001674800000000000000000000000010002100000055535256800000000002            2  01005553525610031700000002073290000000099N010317000000000000000000000000000000000000000000000000000000000000000100019282546837FABIO LEANDRO DE FREITAS ASSIS          RUA BASSIM NAGIB TRABULSI - 97 - PONTA D            11030540                                                            000053
2SR. CAIXA, APOS O VENCIMENTO COBRAR 10% DE MULTA                                NAO RECEBER APOS 30 DIAS DO VENCIMENTO.                                                                                                                                                                                                         01031700000000000000103170000000000000       0090770900016748000555352568000054
100000000000000000000009077090001674800000000000000000000000010002100000059375660500000000002            2  01005937566010031700000002881320000000099N010317000000000000000000000000000000000000000000000000000000000000000100008423485811EDSON LUIZ NUNES                        RUA NOEMIA PEDROSO BUENO - 41 - JARDIM G            09360440                                                            000056
2SR. CAIXA, APOS O VENCIMENTO COBRAR 10% DE MULTA                                NAO RECEBER APOS 30 DIAS DO VENCIMENTO.                                                                                                                                                                                                         01031700000000000000103170000000000000       0090770900016748000593756605000057
100000000000000000000009077090001674800000000000000000000000010002100000064106165700000000002            2  01006410616510031700000003334040000000099N010317000000000000000000000000000000000000000000000000000000000000000100003010502877GIZELA VIEIRA BARROS                    RUA GIACOMO DALCIN - 157 - MAUA - SAO CA            09580350                                                            000059
2SR. CAIXA, APOS O VENCIMENTO COBRAR 10% DE MULTA                                NAO RECEBER APOS 30 DIAS DO VENCIMENTO.                                                                                                                                                                                                         01031700000000000000103170000000000000       0090770900016748000641061657000060
100000000000000000000009077090001674800000000000000000000000010002100000069106670600000000002            2  01006910667010031700000002714820000000099N010317000000000000000000000000000000000000000000000000000000000000000100012111060801CLAUDIA CRISTINA CRELIS COSTA           RUA RUI BARBOSA - 1736 AP.1533 - VILA SA            19015001                                                            000062
2SR. CAIXA, APOS O VENCIMENTO COBRAR 10% DE MULTA                                NAO RECEBER APOS 30 DIAS DO VENCIMENTO.                                                                                                                                                                                                         01031700000000000000103170000000000000       0090770900016748000691066706000063
100000000000000000000009077090001674800000000000000000000000010002100000070026271800000000002            2  01007002627110031700000002614040000000099N010317000000000000000000000000000000000000000000000000000000000000000100009777281889CARLITA DE FIGUEIREDO CARVALHO          AVENIDA ALBERTO DE ALMEIDA VINHAS - 4462            11701350                                                            000065
2SR. CAIXA, APOS O VENCIMENTO COBRAR 10% DE MULTA                                NAO RECEBER APOS 30 DIAS DO VENCIMENTO.                                                                                                                                                                                                         01031700000000000000103170000000000000       0090770900016748000700262718000066
100000000000000000000009077090001674800000000000000000000000010002100000073046974000000000002            2  01007304697410031700000003104350000000099N010317000000000000000000000000000000000000000000000000000000000000000100004213020894ELIETE DRUGOVICH DE LIMA                RUA OSVALDO CRUZ - 141 AP.144-B - SANTA             09541270                                                            000068
2SR. CAIXA, APOS O VENCIMENTO COBRAR 10% DE MULTA                                NAO RECEBER APOS 30 DIAS DO VENCIMENTO.                                                                                                                                                                                                         01031700000000000000103170000000000000       0090770900016748000730469740000069
100000000000000000000009077090001674800000000000000000000000010002100000074957176700000000002            2  01007495717610031700000002369330000000099N010317000000000000000000000000000000000000000000000000000000000000000100085839817872MAURO CORREIA MARTINS                   RUA PROFESSOR JOSE AZEVEDO MINHOTO - 72             06114000                                                            000071
2SR. CAIXA, APOS O VENCIMENTO COBRAR 10% DE MULTA                                NAO RECEBER APOS 30 DIAS DO VENCIMENTO.                                                                                                                                                                                                         01031700000000000000103170000000000000       0090770900016748000749571767000072
100000000000000000000009077090001674800000000000000000000000010002100000078693480200000000002            2  01007869348010031700000002115910000000099N010317000000000000000000000000000000000000000000000000000000000000000100043122850800ANTONIO JOAQUIM GOES                    ANTONIO DOAS DA SILVA - 412 - VILA AMALI            02618110                                                            000074
2SR. CAIXA, APOS O VENCIMENTO COBRAR 10% DE MULTA                                NAO RECEBER APOS 30 DIAS DO VENCIMENTO.                                                                                                                                                                                                         01031700000000000000103170000000000000       0090770900016748000786934802000075
100000000000000000000009077090001674800000000000000000000000010002100000086398088P00000000002            2  01008639808810031700000002778060000000099N010317000000000000000000000000000000000000000000000000000000000000000100003865776841FRANCISCO JOSE ROCCO                    RUA FABIO JOSE BEZERRA - 130 AP.86 - PAR            03805000                                                            000077
2SR. CAIXA, APOS O VENCIMENTO COBRAR 10% DE MULTA                                NAO RECEBER APOS 30 DIAS DO VENCIMENTO.                                                                                                                                                                                                         01031700000000000000103170000000000000       009077090001674800086398088P000078
100000000000000000000009077090001674800000000000000000000000010002100000091448393200000000002            2  01009144839310031700000002477400000000099N010317000000000000000000000000000000000000000000000000000000000000000100028309524803DEISE RIBEIRO BARBOSA                   RUA CANDIDO JOSE DE ANDRADE - 173 - ERME            03807030                                                            000080
2SR. CAIXA, APOS O VENCIMENTO COBRAR 10% DE MULTA                                NAO RECEBER APOS 30 DIAS DO VENCIMENTO.                                                                                                                                                                                                         01031700000000000000103170000000000000       0090770900016748000914483932000081
100000000000000000000009077090001674800000000000000000000000010002100000093458695900000000002            2  01009345869510031700000002940380000000099N010317000000000000000000000000000000000000000000000000000000000000000100011277908893JOSE AILTON LOPES DE AZEVEDO            RUA MAESTRO JOAO SEPE - 19 - JARDIM MARI            04181030                                                            000083
2SR. CAIXA, APOS O VENCIMENTO COBRAR 10% DE MULTA                                NAO RECEBER APOS 30 DIAS DO VENCIMENTO.                                                                                                                                                                                                         01031700000000000000103170000000000000       0090770900016748000934586959000084
100000000000000000000009077090001674800000000000000000000000010002100000097748999P00000000002            2  01009774899910031700000002217440000000099N010317000000000000000000000000000000000000000000000000000000000000000100025215106886KLEBER LUIZ DOS SANTOS                  RUA CAPITAO JOSE MEIRELES - 47 - CAPITAO            11330180                                                            000086
2SR. CAIXA, APOS O VENCIMENTO COBRAR 10% DE MULTA                                NAO RECEBER APOS 30 DIAS DO VENCIMENTO.                                                                                                                                                                                                         01031700000000000000103170000000000000       009077090001674800097748999P000087
100000000000000000000009077090001674800000000000000000000000010002100001014393103800000000002            2  01101439310310031700000002476760000000099N010317000000000000000000000000000000000000000000000000000000000000000100090206789815NEREIDE RODRIGUES FERREIRA              AVENIDA PADRE ESTANISLAU DE CAMPOS - 205            03590060                                                            000089
2SR. CAIXA, APOS O VENCIMENTO COBRAR 10% DE MULTA                                NAO RECEBER APOS 30 DIAS DO VENCIMENTO.                                                                                                                                                                                                         01031700000000000000103170000000000000       0090770900016748010143931038000090
100000000000000000000009077090001674800000000000000000000000010002100001057097107500000000002            2  01105709710710031700000002735530000000099N010317000000000000000000000000000000000000000000000000000000000000000100023027012835RUBEN ALBERTO DIAZ                      RUA MONTE CASTELO - 296 AP.104 - AVIACAO            11702720                                                            000092
2SR. CAIXA, APOS O VENCIMENTO COBRAR 10% DE MULTA                                NAO RECEBER APOS 30 DIAS DO VENCIMENTO.                                                                                                                                                                                                         01031700000000000000103170000000000000       0090770900016748010570971075000093
100000000000000000000009077090001674800000000000000000000000010002100010869100110300000000002            2  01108691001110031700000002899120000000099N010317000000000000000000000000000000000000000000000000000000000000000100029150742833ANA DEISE SANTOS DE ALMEIDA             RUA MONTE CASTELO - 296 AP.121 - AVIACAO            11702720                                                            000095
2SR. CAIXA, APOS O VENCIMENTO COBRAR 10% DE MULTA                                NAO RECEBER APOS 30 DIAS DO VENCIMENTO.                                                                                                                                                                                                         01031700000000000000103170000000000000       0090770900016748108691001103000096
100000000000000000000009077090001674800000000000000000000000010002100010971101111500000000002            2  01109711011110031700000002387960000000099N010317000000000000000000000000000000000000000000000000000000000000000100000811752801SERGIO BUENO DA SILVA                   RUA MONTE CASTELO - 262 AP.75 - AVIACAO             11702720                                                            000098
2SR. CAIXA, APOS O VENCIMENTO COBRAR 10% DE MULTA                                NAO RECEBER APOS 30 DIAS DO VENCIMENTO.                                                                                                                                                                                                         01031700000000000000103170000000000000       0090770900016748109711011115000099
100000000000000000000009077090001674800000000000000000000000010002100011277104115400000000002            2  01112771041110031700000002281220000000099N010317000000000000000000000000000000000000000000000000000000000000000100027100951810MARCIA RAMALHO RODRIGUES                RUA MONTE CASTELO - 296 AP.82 - AVIACAO             11702720                                                            000101
2SR. CAIXA, APOS O VENCIMENTO COBRAR 10% DE MULTA                                NAO RECEBER APOS 30 DIAS DO VENCIMENTO.                                                                                                                                                                                                         01031700000000000000103170000000000000       0090770900016748112771041154000102
100000000000000000000009077090001674800000000000000000000000010002100011567107118700000000002            2  01115671071110031700000003035570000000099N010317000000000000000000000000000000000000000000000000000000000000000100018344803888MARCELO BERNARDO                        RUA ESTONIA - 06 - INTERLAGOS - SAO PAUL            04785140                                                            000104
2SR. CAIXA, APOS O VENCIMENTO COBRAR 10% DE MULTA                                NAO RECEBER APOS 30 DIAS DO VENCIMENTO.                                                                                                                                                                                                         01031700000000000000103170000000000000       0090770900016748115671071187000105
100000000000000000000009077090001674800000000000000000000000010002100012577115128000000000002            2  01125771151210031700000002263760000000099N010317000000000000000000000000000000000000000000000000000000000000000100030210501820ROGERIO MUNIZ DA CUNHA                  RUA MONTE CASTELO - 296 AP.34 - AVIACAO             11702720                                                            000107
2SR. CAIXA, APOS O VENCIMENTO COBRAR 10% DE MULTA                                NAO RECEBER APOS 30 DIAS DO VENCIMENTO.                                                                                                                                                                                                         01031700000000000000103170000000000000       0090770900016748125771151280000108
100000000000000000000009077090001674800000000000000000000000010002100012785117130700000000002            2  01127851171310031700000004255810000000099N010317000000000000000000000000000000000000000000000000000000000000000100004004328896VANDERLEI  MARTINS DE ALMEIDA           RUA MONSENHOR TABOSA - 03 - PARQUE CISPE            03819300                                                            000110
2SR. CAIXA, APOS O VENCIMENTO COBRAR 10% DE MULTA                                NAO RECEBER APOS 30 DIAS DO VENCIMENTO.                                                                                                                                                                                                         01031700000000000000103170000000000000       0090770900016748127851171307000111
100000000000000000000009077090001674800000000000000000000000010002100013220120135300000000002            2  01132201201310031700000002906850000000099N010317000000000000000000000000000000000000000000000000000000000000000100005133053860VICENTE ARCIPRETE JUNIOR                RUA JOSE SIMOES FERREIRA FILHO - 80 - JA            06040090                                                            000113
2SR. CAIXA, APOS O VENCIMENTO COBRAR 10% DE MULTA                                NAO RECEBER APOS 30 DIAS DO VENCIMENTO.                                                                                                                                                                                                         01031700000000000000103170000000000000       0090770900016748132201201353000114
100000000000000000000009077090001674800000000000000000000000010002100001381592141800000000002            2  01138159214110031700000000707020000000099N010317000000000000000000000000000000000000000000000000000000000000000100056660235868JOSE DA SILVA                           RUA MONTE CASTELO - 296 AP.32 - AVIACAO             11702720                                                            000116
2SR. CAIXA, APOS O VENCIMENTO COBRAR 10% DE MULTA                                NAO RECEBER APOS 30 DIAS DO VENCIMENTO.                                                                                                                                                                                                         01031700000000000000103170000000000000       0090770900016748013815921418000117
100000000000000000000009077090001674800000000000000000000000010002100013895124142800000000002            2  01138951241410031700000002567690000000099N010317000000000000000000000000000000000000000000000000000000000000000100016339432832ALEX MONTEIRO DA SILVA                  RUA IVA MOURA LIMA - 04 - JARDIM MIRNA I            04855540                                                            000119
2SR. CAIXA, APOS O VENCIMENTO COBRAR 10% DE MULTA                                NAO RECEBER APOS 30 DIAS DO VENCIMENTO.                                                                                                                                                                                                         01031700000000000000103170000000000000       0090770900016748138951241428000120
100000000000000000000009077090001674800000000000000000000000010002100013993125143100000000002            2  01139931251410031700000002622090000000099N010317000000000000000000000000000000000000000000000000000000000000000100031803864877ELEILSON FELIPPE SANTOS                 RUA SANTA GREGORIA - 193 - CIDADE DUTRA             04806030                                                            000122
2SR. CAIXA, APOS O VENCIMENTO COBRAR 10% DE MULTA                                NAO RECEBER APOS 30 DIAS DO VENCIMENTO.                                                                                                                                                                                                         01031700000000000000103170000000000000       0090770900016748139931251431000123
100000000000000000000009077090001674800000000000000000000000010002100014419127147P00000000002            2  01144191271410031700000001804420000000099N010317000000000000000000000000000000000000000000000000000000000000000100026032632857MARILA LOPES PEREIRA                    RUA ESTRADA DO M BOI MIRIM - 820 BL.05 A            04905000                                                            000125
2SR. CAIXA, APOS O VENCIMENTO COBRAR 10% DE MULTA                                NAO RECEBER APOS 30 DIAS DO VENCIMENTO.                                                                                                                                                                                                         01031700000000000000103170000000000000       009077090001674814419127147P000126
100000000000000000000009077090001674800000000000000000000000010002100014517128148300000000002            2  01145171281410031700000003124720000000099N010317000000000000000000000000000000000000000000000000000000000000000100063064537849ANTONIO APARECIDO DA SILVA DESTEFANO    RUA PROFESSOR TEODORO BRAGA - 46 - VILA             02966020                                                            000128
2SR. CAIXA, APOS O VENCIMENTO COBRAR 10% DE MULTA                                NAO RECEBER APOS 30 DIAS DO VENCIMENTO.                                                                                                                                                                                                         01031700000000000000103170000000000000       0090770900016748145171281483000129
100000000000000000000009077090001674800000000000000000000000010002100014851130152100000000002            2  01148511301510031700000002994420000000099N010317000000000000000000000000000000000000000000000000000000000000000100010107711834VALDEMAR FECCHIO                        RUA DOUTOR MARTINS DE OLIVEIRA - 529 AP.            05638030                                                            000131
2SR. CAIXA, APOS O VENCIMENTO COBRAR 10% DE MULTA                                NAO RECEBER APOS 30 DIAS DO VENCIMENTO.                                                                                                                                                                                                         01031700000000000000103170000000000000       0090770900016748148511301521000132
100000000000000000000009077090001674800000000000000000000000010002100015195131156200000000002            2  01151951311510031700000003852150000000099N010317000000000000000000000000000000000000000000000000000000000000000100003330791837MARLI DA SILVA BARBOSA                  RUA GLICERIO CERQUEIRA LEITE - 151 - JAR            03675040                                                            000134
2SR. CAIXA, APOS O VENCIMENTO COBRAR 10% DE MULTA                                NAO RECEBER APOS 30 DIAS DO VENCIMENTO.                                                                                                                                                                                                         01031700000000000000103170000000000000       0090770900016748151951311562000135
100000000000000000000009077090001674800000000000000000000000010002100015396132158500000000002            2  01153961321510031700000001565850000000099N010317000000000000000000000000000000000000000000000000000000000000000100008931031874MARIA MARINHO DE OLIVEIRA               AVENIDA 9 DE JULHO - 1854 AP.81 - BELA V            01312001                                                            000137
2SR. CAIXA, APOS O VENCIMENTO COBRAR 10% DE MULTA                                NAO RECEBER APOS 30 DIAS DO VENCIMENTO.                                                                                                                                                                                                         01031700000000000000103170000000000000       0090770900016748153961321585000138
100000000000000000000009077090001674800000000000000000000000010002100015601134160000000000002            2  01156011341610031700000001819230000000099N010317000000000000000000000000000000000000000000000000000000000000000100005920579846SONIA MARIA VALDO POLLO                 RUA PALMIRA CERVI BARBARO - 797 - CIDADE            13214370                                                            000140
2SR. CAIXA, APOS O VENCIMENTO COBRAR 10% DE MULTA                                NAO RECEBER APOS 30 DIAS DO VENCIMENTO.                                                                                                                                                                                                         01031700000000000000103170000000000000       0090770900016748156011341600000141
100000000000000000000009077090001674800000000000000000000000010002100017881137181100000000002            2  01178811371810031700000002735300000000099N010317000000000000000000000000000000000000000000000000000000000000000100002494107881CIRO FRANCISCO MARCHI DURIGON           RUA MONTE CASTELO - 262 AP.115 - AVIACAO            11702720                                                            000143
2SR. CAIXA, APOS O VENCIMENTO COBRAR 10% DE MULTA                                NAO RECEBER APOS 30 DIAS DO VENCIMENTO.                                                                                                                                                                                                         01031700000000000000103170000000000000       0090770900016748178811371811000144
100000000000000000000009077090001674800000000000000000000000010002100019038150190200000000002            2  01190381501910031700000002688940000000099N010317000000000000000000000000000000000000000000000000000000000000000100007002345869DOMINGOS DE BRITO GALVAO                RUA MONTE CASTELO - 262 AP.44 - AVIACAO             11702720                                                            000146
2SR. CAIXA, APOS O VENCIMENTO COBRAR 10% DE MULTA                                NAO RECEBER APOS 30 DIAS DO VENCIMENTO.                                                                                                                                                                                                         01031700000000000000103170000000000000       0090770900016748190381501902000147
100000000000000000000009077090001674800000000000000000000000010002100019691155195500000000002            2  01196911551910031700000001120090000000099N010317000000000000000000000000000000000000000000000000000000000000000100009346863862NELSON DE SOUZA SANTOS                  RUA PRIMEIRA CRUZ - 90 - PARQUE INDEPEND            03236060                                                            000149
2SR. CAIXA, APOS O VENCIMENTO COBRAR 10% DE MULTA                                NAO RECEBER APOS 30 DIAS DO VENCIMENTO.                                                                                                                                                                                                         01031700000000000000103170000000000000       0090770900016748196911551955000150
100000000000000000000009077090001674800000000000000000000000010002100020028157198400000000002            2  01200281571910031700000005447930000000099N010317000000000000000000000000000000000000000000000000000000000000000100016299008857FERNANDO CESAR CARVALHO                 AVENIDA MARCONDES DE BRITO - 1340 AP.74             03509000                                                            000152
2SR. CAIXA, APOS O VENCIMENTO COBRAR 10% DE MULTA                                NAO RECEBER APOS 30 DIAS DO VENCIMENTO.                                                                                                                                                                                                         01031700000000000000103170000000000000       0090770900016748200281571984000153
100000000000000000000009077090001674800000000000000000000000010002100020044157198600000000002            2  01200441571910031700000002592120000000099N010317000000000000000000000000000000000000000000000000000000000000000100016299008857FERNANDO CESAR CARVALHO                 AVENIDA MARCONDES DE BRITO - 1340 AP.74             03509000                                                            000155
2SR. CAIXA, APOS O VENCIMENTO COBRAR 10% DE MULTA                                NAO RECEBER APOS 30 DIAS DO VENCIMENTO.                                                                                                                                                                                                         01031700000000000000103170000000000000       0090770900016748200441571986000156
100000000000000000000009077090001674800000000000000000000000010002100002251375219500000000002            2  01225137521910031700000002604690000000099N010317000000000000000000000000000000000000000000000000000000000000000100031082898880VANESSA DOS SANTOS NEIVA                RUA MONTE CASTELO - 296 AP.33 - BAIRRO A            11702720                                                            000158
2SR. CAIXA, APOS O VENCIMENTO COBRAR 10% DE MULTA                                NAO RECEBER APOS 30 DIAS DO VENCIMENTO.                                                                                                                                                                                                         01031700000000000000103170000000000000       0090770900016748022513752195000159
100000000000000000000009077090001674800000000000000000000000010002100026869143250000000000002            2  01268691432510031700000001585890000000099N010317000000000000000000000000000000000000000000000000000000000000000100065895304834MARINHO BARBOSA CUNHA                   AVENIDA EDU CHAVES - 639 AP.43 - PARQUE             02229000                                                            000161
2SR. CAIXA, APOS O VENCIMENTO COBRAR 10% DE MULTA                                NAO RECEBER APOS 30 DIAS DO VENCIMENTO.                                                                                                                                                                                                         01031700000000000000103170000000000000       0090770900016748268691432500000162
9                                                                                                                                                                                                                                                                                                                                                                                                         000163