01REMESSA01COBRANCA       00000000000005316116AIRES CONSTRUTORA E INCORPORAD237BRADESCO       010923        MX0000225                                                                                                                                                                                                                                                                                     000001
100000000000000000000009002800441612000000000000000000000000010002100025215109231600000000002            2  01252151092310092300000003381940000000001N010923000000000000000000000000000000000000000000000000000000000000000100025215106886KLEBER LUIZ DOS SANTOS                  RUA MONTE CASTELO - 262 AP.15 - AVIACAO             11702720                                                            000002
2SR. CAIXA, APOS O VENCIMENTO COBRAR 10% DE MULTA                                NAO RECEBER APOS 30 DIAS DO VENCIMENTO.                                                                                                                                                                                                         01092300000000000000109230000000000000       0090028004416120252151092316000003
100000000000000000000009002800441612000000000000000000000000010002100031803809231900000000002            2  01318038092310092300000003999190000000001N010923000000000000000000000000000000000000000000000000000000000000000100031803864877ELEILSON FELIPPE SANTOS                 RUA SANTA GREGORIA - 193 - CIDADE DUTRA             04806030                                                            000005
2SR. CAIXA, APOS O VENCIMENTO COBRAR 10% DE MULTA                                NAO RECEBER APOS 30 DIAS DO VENCIMENTO.                                                                                                                                                                                                         01092300000000000000109230000000000000       0090028004416120318038092319000006
100000000000000000000009002800441612000000000000000000000000010002100063064509231300000000002            2  01630645092310092300000004765750000000001N010923000000000000000000000000000000000000000000000000000000000000000100063064537849ANTONIO APARECIDO DA SILVA DESTEFANO    RUA PROFESSOR TEODORO BRAGA - 46 - VILA             02966020                                                            000008
2SR. CAIXA, APOS O VENCIMENTO COBRAR 10% DE MULTA                                NAO RECEBER APOS 30 DIAS DO VENCIMENTO.                                                                                                                                                                                                         01092300000000000000109230000000000000       0090028004416120630645092313000009
100000000000000000000009002800441612000000000000000000000000010002100005920509231200000000002            2  01059205092310092300000002774670000000001N010923000000000000000000000000000000000000000000000000000000000000000100005920579846SONIA MARIA VALDO POLLO                 RUA PALMIRA CERVI BARBARO - 797 - CIDADE            13214370                                                            000011
2SR. CAIXA, APOS O VENCIMENTO COBRAR 10% DE MULTA                                NAO RECEBER APOS 30 DIAS DO VENCIMENTO.                                                                                                                                                                                                         01092300000000000000109230000000000000       0090028004416120059205092312000012
100000000000000000000009002800441612000000000000000000000000010002100002494109231300000000002            2  01024941092310092300000004171810000000001N010923000000000000000000000000000000000000000000000000000000000000000100002494107881CIRO FRANCISCO MARCHI DURIGON           RUA MONTE CASTELO - 262 AP.115 - AVIACAO            11702720                                                            000014
2SR. CAIXA, APOS O VENCIMENTO COBRAR 10% DE MULTA                                NAO RECEBER APOS 30 DIAS DO VENCIMENTO.                                                                                                                                                                                                         01092300000000000000109230000000000000       0090028004416120024941092313000015
100000000000000000000009002800441612000000000000000000000000010002100016299009231400000000002            2  01162990092310092300000003953430000000001N010923000000000000000000000000000000000000000000000000000000000000000100016299008857FERNANDO CESAR CARVALHO                 AVENIDA MARCONDES DE BRITO - 1340 AP.74             03509000                                                            000017
2SR. CAIXA, APOS O VENCIMENTO COBRAR 10% DE MULTA                                NAO RECEBER APOS 30 DIAS DO VENCIMENTO.                                                                                                                                                                                                         01092300000000000000109230000000000000       0090028004416120162990092314000018
9                                                                                                                                                                                                                                                                                                                                                                                                         000019