01REMESSA01COBRANCA       00000000000005623874H B SANTOS CONSTRUTORA E INCOR237BRADESCO       120624        MX0000018                                                                                                                                                                                                                                                                                     000001
100000000000000000000009033990001086300000000000000000000000010002020012644906242200000000002            2  01126449062425062400000003302000000000001N120624000000000000000000000000000000000000000000000000000000000000000100012644907802SIMONE SERRANO SILVA PRADO              RUA TAIUVINHA - 597 - BAIRRO JARDIM JACU            08060040                                                            000002
2SR. CAIXA, APOS O VENCIMENTO COBRAR 2% DE MULTA                                 NAO RECEBER APOS 30 DIAS DO VENCIMENTO.                                                                                                                                                                                                         12062400000000000001206240000000000000       0090339900010863126449062422000003
100000000000000000000009033990001086300000000000000000000000010002020033870206242300000000002            2  01338702062425062400000003216040000000001N120624000000000000000000000000000000000000000000000000000000000000000100033870205890NATHALIA GOMES PAZ                      ALAMEDA INHAMBU - 214 RESIDENCIAL 10 - B            06540100                                                            000005
2SR. CAIXA, APOS O VENCIMENTO COBRAR 2% DE MULTA                                 NAO RECEBER APOS 30 DIAS DO VENCIMENTO.                                                                                                                                                                                                         12062400000000000001206240000000000000       0090339900010863338702062423000006
100000000000000000000009033990001086300000000000000000000000010002020055874006242900000000002            2  01558740062425062400000003200630000000001N120624000000000000000000000000000000000000000000000000000000000000000100055874045104MANUEL MARTINS AFONSO JUNIOR            AVENIDA AFONSO PENA - 463 - BAIRRO ESTUA            11020003                                                            000008
2SR. CAIXA, APOS O VENCIMENTO COBRAR 2% DE MULTA                                 NAO RECEBER APOS 30 DIAS DO VENCIMENTO.                                                                                                                                                                                                         12062400000000000001206240000000000000       0090339900010863558740062429000009
100000000000000000000009033990001086300000000000000000000000010002020029067906242600000000002            2  01290679062425062400000002853630000000001N120624000000000000000000000000000000000000000000000000000000000000000100029067948802SANTIAGO VALDOMIRO CORDEIRO             RUA MANOEL QUIRINODE MATTOS - 1.537 CS02            03969000                                                            000011
2SR. CAIXA, APOS O VENCIMENTO COBRAR 2% DE MULTA                                 NAO RECEBER APOS 30 DIAS DO VENCIMENTO.                                                                                                                                                                                                         12062400000000000001206240000000000000       0090339900010863290679062426000012
100000000000000000000009033990001086300000000000000000000000010002020041475706242000000000002            2  01414757062425062400000002995920000000001N120624000000000000000000000000000000000000000000000000000000000000000100041475767889GUSTAVO HENRIQUE SIMIONI FRANCO MENDONCARUA JACOB EMERICK - 42 AP.308 - BAIRRO G            11310070                                                            000014
2SR. CAIXA, APOS O VENCIMENTO COBRAR 2% DE MULTA                                 NAO RECEBER APOS 30 DIAS DO VENCIMENTO.                                                                                                                                                                                                         12062400000000000001206240000000000000       0090339900010863414757062420000015
100000000000000000000009033990001086300000000000000000000000010002020032353406242300000000002            2  01323534062425062400000003426460000000001N120624000000000000000000000000000000000000000000000000000000000000000100032353404839JULIANA BATISTA BENTO                   RUA MONTE PLANO - 387 CASA 5 - VILA MARG            11335020                                                            000017
2SR. CAIXA, APOS O VENCIMENTO COBRAR 2% DE MULTA                                 NAO RECEBER APOS 30 DIAS DO VENCIMENTO.                                                                                                                                                                                                         12062400000000000001206240000000000000       0090339900010863323534062423000018
100000000000000000000009033990001086300000000000000000000000010002020031015906242400000000002            2  01310159062425062400000002995550000000001N120624000000000000000000000000000000000000000000000000000000000000000100031015918808PATRICK COSTA FAGILDE                   AVENIDA PRESIDENTE CASTELO BRANCO - 4.52            11702705                                                            000020
2SR. CAIXA, APOS O VENCIMENTO COBRAR 2% DE MULTA                                 NAO RECEBER APOS 30 DIAS DO VENCIMENTO.                                                                                                                                                                                                         12062400000000000001206240000000000000       0090339900010863310159062424000021
100000000000000000000009033990001086300000000000000000000000010002020024614306242400000000002            2  01246143062425062400000003291610000000001N120624000000000000000000000000000000000000000000000000000000000000000100024614361854JOSE SANTANA JUNIOR                     RUA RUI BARBOSA - 358 AP.83 - CANTO DO F            11700170                                                            000023
2SR. CAIXA, APOS O VENCIMENTO COBRAR 2% DE MULTA                                 NAO RECEBER APOS 30 DIAS DO VENCIMENTO.                                                                                                                                                                                                         12062400000000000001206240000000000000       0090339900010863246143062424000024
100000000000000000000009033990001086300000000000000000000000010002020045564906242000000000002            2  01455649062425062400000003038210000000001N120624000000000000000000000000000000000000000000000000000000000000000100045564998871THOMAS NICOLAS PETRICELLI               RUA BRIGADEIRO FARIA LIMA - 173 AP.42 -             11700630                                                            000026
2SR. CAIXA, APOS O VENCIMENTO COBRAR 2% DE MULTA                                 NAO RECEBER APOS 30 DIAS DO VENCIMENTO.                                                                                                                                                                                                         12062400000000000001206240000000000000       0090339900010863455649062420000027
100000000000000000000009033990001086300000000000000000000000010002020031413606241400000000002            2  01314136062425062400000002967400000000001N120624000000000000000000000000000000000000000000000000000000000000000100031413672809ALZENIR CORREIA FIGUEIRA                RUA LUZIA ENCARNACAO VIDAL - 675 AP.133             11702370                                                            000029
2SR. CAIXA, APOS O VENCIMENTO COBRAR 2% DE MULTA                                 NAO RECEBER APOS 30 DIAS DO VENCIMENTO.                                                                                                                                                                                                         12062400000000000001206240000000000000       0090339900010863314136062414000030
100000000000000000000009033990001086300000000000000000000000010002020001365606242500000000002            2  01013656062425062400000002863380000000001N120624000000000000000000000000000000000000000000000000000000000000000100001365670880IVANILDO PROTAZIO DA SILVA              RUA SAO CELSO - 71 AP.44A - VILA DOMITIL            03626000                                                            000032
2SR. CAIXA, APOS O VENCIMENTO COBRAR 2% DE MULTA                                 NAO RECEBER APOS 30 DIAS DO VENCIMENTO.                                                                                                                                                                                                         12062400000000000001206240000000000000       0090339900010863013656062425000033
100000000000000000000009033990001086300000000000000000000000010002020084404606241400000000002            2  01844046062425062400000003317800000000001N120624000000000000000000000000000000000000000000000000000000000000000100084404647891APOLINARIO PEREIRA DA SILVA             RUA LUIS DE ANDRADE - 206 - VILA PEREIRA            02920000                                                            000035
2SR. CAIXA, APOS O VENCIMENTO COBRAR 2% DE MULTA                                 NAO RECEBER APOS 30 DIAS DO VENCIMENTO.                                                                                                                                                                                                         12062400000000000001206240000000000000       0090339900010863844046062414000036
100000000000000000000009033990001086300000000000000000000000010002020044278806241400000000002            2  01442788062425062400000003267610000000001N120624000000000000000000000000000000000000000000000000000000000000000100044278869819MARIA JULIETE BARBOZA                   RUA PROFESSORA YOLANDA CONTE - 17 Q.C -             11335060                                                            000038
2SR. CAIXA, APOS O VENCIMENTO COBRAR 2% DE MULTA                                 NAO RECEBER APOS 30 DIAS DO VENCIMENTO.                                                                                                                                                                                                         12062400000000000001206240000000000000       0090339900010863442788062414000039
100000000000000000000009033990001086300000000000000000000000010002020033890006241200000000002            2  01338900062425062400000002986450000000001N120624000000000000000000000000000000000000000000000000000000000000000100033890036813RICARDO MACHADO DOS SANTOS              TRAVESSA DECIO ARAUJO - 03 - BAIRRO ESTA            02997002                                                            000041
2SR. CAIXA, APOS O VENCIMENTO COBRAR 2% DE MULTA                                 NAO RECEBER APOS 30 DIAS DO VENCIMENTO.                                                                                                                                                                                                         12062400000000000001206240000000000000       0090339900010863338900062412000042
100000000000000000000009033990001086300000000000000000000000010002020032060006241400000000002            2  01320600062425062400000002726000000000001N120624000000000000000000000000000000000000000000000000000000000000000100032060098807FERNANDA RUOZZI BUENO                   RUA JOSE DA SILVA MACHADO - 195 AP.55 -             11703100                                                            000044
2SR. CAIXA, APOS O VENCIMENTO COBRAR 2% DE MULTA                                 NAO RECEBER APOS 30 DIAS DO VENCIMENTO.                                                                                                                                                                                                         12062400000000000001206240000000000000       0090339900010863320600062414000045
100000000000000000000009033990001086300000000000000000000000010002020035078606241500000000002            2  01350786062425062400000002164950000000001N120624000000000000000000000000000000000000000000000000000000000000000100035078697802VICTOR DE CASTRO PEREIRA                RUA COPACABANA - 243 AP.114 - VILA GUILH            11701670                                                            000047
2SR. CAIXA, APOS O VENCIMENTO COBRAR 2% DE MULTA                                 NAO RECEBER APOS 30 DIAS DO VENCIMENTO.                                                                                                                                                                                                         12062400000000000001206240000000000000       0090339900010863350786062415000048
100000000000000000000009033990001086300000000000000000000000010002020006224906241100000000002            2  01062249062425062400000003269700000000001N120624000000000000000000000000000000000000000000000000000000000000000100006224952833EDSON DA SILVA MARTINS                  RUA PERU - 240 AP.104 - JARDIM GUILHERMI            11702250                                                            000050
2SR. CAIXA, APOS O VENCIMENTO COBRAR 2% DE MULTA                                 NAO RECEBER APOS 30 DIAS DO VENCIMENTO.                                                                                                                                                                                                         12062400000000000001206240000000000000       0090339900010863062249062411000051
100000000000000000000009033990001086300000000000000000000000010002020042179906241900000000002            2  01421799062425062400000003351390000000001N120624000000000000000000000000000000000000000000000000000000000000000100042179998449TELMA MARIA MARIZ DE LUCENA             RUA ROSA DOS VENTOS - 187 - VILA NOVA CA            02612000                                                            000053
2SR. CAIXA, APOS O VENCIMENTO COBRAR 2% DE MULTA                                 NAO RECEBER APOS 30 DIAS DO VENCIMENTO.                                                                                                                                                                                                         12062400000000000001206240000000000000       0090339900010863421799062419000054
100000000000000000000009033990001086300000000000000000000000010002020046415406242300000000002            2  01464154062425062400000003351390000000001N120624000000000000000000000000000000000000000000000000000000000000000100046415465848LUCAS MATHEUS CARRASCO MACHADO          RUA WALTER SOUZA MALHEIROS - 301 - RES.B            16402486                                                            000056
2SR. CAIXA, APOS O VENCIMENTO COBRAR 2% DE MULTA                                 NAO RECEBER APOS 30 DIAS DO VENCIMENTO.                                                                                                                                                                                                         12062400000000000001206240000000000000       0090339900010863464154062423000057
100000000000000000000009033990001086300000000000000000000000010002020032277106241500000000002            2  01322771062425062400000002894720000000001N120624000000000000000000000000000000000000000000000000000000000000000100032277122882DANIELE APARECIDA E SILVA MIRANDA       RUA ALEXANDRE LEVI - 85 AP.128 - BAIRRO             01520000                                                            000059
2SR. CAIXA, APOS O VENCIMENTO COBRAR 2% DE MULTA                                 NAO RECEBER APOS 30 DIAS DO VENCIMENTO.                                                                                                                                                                                                         12062400000000000001206240000000000000       0090339900010863322771062415000060
100000000000000000000009033990001086300000000000000000000000010002020011945006241300000000002            2  01119450062425062400000002614090000000001N120624000000000000000000000000000000000000000000000000000000000000000100011945024828CICERO PEREIRA DA SILVA                 RUA GIOVANNI BATTISTA PIRELLI - 1.463 AP            09111340                                                            000062
2SR. CAIXA, APOS O VENCIMENTO COBRAR 2% DE MULTA                                 NAO RECEBER APOS 30 DIAS DO VENCIMENTO.                                                                                                                                                                                                         12062400000000000001206240000000000000       0090339900010863119450062413000063
9                                                                                                                                                                                                                                                                                                                                                                                                         000064