01REMESSA01COBRANCA       00000000000005316116AIRES CONSTRUTORA E INCORPORAD237BRADESCO       010421        MX0000167                                                                                                                                                                                                                                                                                     000001
100000000000000000000009002800441612000000000000000000000000010002100085416904211100000000002            2  01854169042110042100000003630780000000001N010421000000000000000000000000000000000000000000000000000000000000000100085416940891ANTONIO DE SOUSA MENDES                 RUA MONTE CASTELO - 296 AP.52 - AVIACAO             11702720                                                            000002
2SR. CAIXA, APOS O VENCIMENTO COBRAR 10% DE MULTA                                NAO RECEBER APOS 30 DIAS DO VENCIMENTO.                                                                                                                                                                                                         01042100000000000000104210000000000000       0090028004416120854169042111000003
100000000000000000000009002800441612000000000000000000000000010002100019282504211200000000002            2  01192825042110042100000002654430000000001N010421000000000000000000000000000000000000000000000000000000000000000100019282546837FABIO LEANDRO DE FREITAS ASSIS          RUA BASSIM NAGIB TRABULSI - 97 - PONTA D            11030540                                                            000005
2SR. CAIXA, APOS O VENCIMENTO COBRAR 10% DE MULTA                                NAO RECEBER APOS 30 DIAS DO VENCIMENTO.                                                                                                                                                                                                         01042100000000000000104210000000000000       0090028004416120192825042112000006
100000000000000000000009002800441612000000000000000000000000010002100003865704211000000000002            2  01038657042110042100000003556780000000001N010421000000000000000000000000000000000000000000000000000000000000000100003865776841FRANCISCO JOSE ROCCO                    AVENIDA PADRES OLIVETANOS - 215 AP.83 -             03648000                                                            000008
2SR. CAIXA, APOS O VENCIMENTO COBRAR 10% DE MULTA                                NAO RECEBER APOS 30 DIAS DO VENCIMENTO.                                                                                                                                                                                                         01042100000000000000104210000000000000       0090028004416120038657042110000009
100000000000000000000009002800441612000000000000000000000000010002100028309504211700000000002            2  01283095042110042100000003171810000000001N010421000000000000000000000000000000000000000000000000000000000000000100028309524803DEISE RIBEIRO BARBOSA                   RUA CANDIDO JOSE DE ANDRADE - 173 - ERME            03807030                                                            000011
2SR. CAIXA, APOS O VENCIMENTO COBRAR 10% DE MULTA                                NAO RECEBER APOS 30 DIAS DO VENCIMENTO.                                                                                                                                                                                                         01042100000000000000104210000000000000       0090028004416120283095042117000012
100000000000000000000009002800441612000000000000000000000000010002100011277904211700000000002            2  01112779042110042100000003764610000000001N010421000000000000000000000000000000000000000000000000000000000000000100011277908893JOSE AILTON LOPES DE AZEVEDO            RUA MAESTRO JOAO SEPE - 19 - JARDIM MARI            04181030                                                            000014
2SR. CAIXA, APOS O VENCIMENTO COBRAR 10% DE MULTA                                NAO RECEBER APOS 30 DIAS DO VENCIMENTO.                                                                                                                                                                                                         01042100000000000000104210000000000000       0090028004416120112779042117000015
100000000000000000000009002800441612000000000000000000000000010002100025215104211400000000002            2  01252151042110042100000002838960000000001N010421000000000000000000000000000000000000000000000000000000000000000100025215106886KLEBER LUIZ DOS SANTOS                  RUA MONTE CASTELO - 262 AP.15 - AVIACAO             11702720                                                            000017
2SR. CAIXA, APOS O VENCIMENTO COBRAR 10% DE MULTA                                NAO RECEBER APOS 30 DIAS DO VENCIMENTO.                                                                                                                                                                                                         01042100000000000000104210000000000000       0090028004416120252151042114000018
100000000000000000000009002800441612000000000000000000000000010002100090206704211100000000002            2  01902067042110042100000003171020000000001N010421000000000000000000000000000000000000000000000000000000000000000100090206789815NEREIDE RODRIGUES FERREIRA              AVENIDA PADRE ESTANISLAU DE CAMPOS - 205            03590060                                                            000020
2SR. CAIXA, APOS O VENCIMENTO COBRAR 10% DE MULTA                                NAO RECEBER APOS 30 DIAS DO VENCIMENTO.                                                                                                                                                                                                         01042100000000000000104210000000000000       0090028004416120902067042111000021
100000000000000000000009002800441612000000000000000000000000010002100029150704211P00000000002            2  01291507042110042100000003711720000000001N010421000000000000000000000000000000000000000000000000000000000000000100029150742833ANA DEISE SANTOS DE ALMEIDA             RUA MONTE CASTELO - 296 AP.121 - AVIACAO            11702720                                                            000023
2SR. CAIXA, APOS O VENCIMENTO COBRAR 10% DE MULTA                                NAO RECEBER APOS 30 DIAS DO VENCIMENTO.                                                                                                                                                                                                         01042100000000000000104210000000000000       009002800441612029150704211P000024
100000000000000000000009002800441612000000000000000000000000010002100000811704211500000000002            2  01008117042110042100000003057280000000001N010421000000000000000000000000000000000000000000000000000000000000000100000811752801SERGIO BUENO DA SILVA                   RUA MONTE CASTELO - 262 AP.75 - AVIACAO             11702720                                                            000026
2SR. CAIXA, APOS O VENCIMENTO COBRAR 10% DE MULTA                                NAO RECEBER APOS 30 DIAS DO VENCIMENTO.                                                                                                                                                                                                         01042100000000000000104210000000000000       0090028004416120008117042115000027
100000000000000000000009002800441612000000000000000000000000010002100018344804211100000000002            2  01183448042110042100000004157150000000001N010421000000000000000000000000000000000000000000000000000000000000000100018344803888MARCELO BERNARDO                        RUA MONTE CASTELO - 262 AP.84 - AVIACAO             11702720                                                            000029
2SR. CAIXA, APOS O VENCIMENTO COBRAR 10% DE MULTA                                NAO RECEBER APOS 30 DIAS DO VENCIMENTO.                                                                                                                                                                                                         01042100000000000000104210000000000000       0090028004416120183448042111000030
100000000000000000000009002800441612000000000000000000000000010002100004004304211900000000002            2  01040043042110042100000005448710000000001N010421000000000000000000000000000000000000000000000000000000000000000100004004328896VANDERLEI  MARTINS DE ALMEIDA           RUA MONSENHOR TABOSA - 03 - PARQUE CISPE            03819300                                                            000032
2SR. CAIXA, APOS O VENCIMENTO COBRAR 10% DE MULTA                                NAO RECEBER APOS 30 DIAS DO VENCIMENTO.                                                                                                                                                                                                         01042100000000000000104210000000000000       0090028004416120040043042119000033
100000000000000000000009002800441612000000000000000000000000010002100031803804211700000000002            2  01318038042110042100000003357100000000001N010421000000000000000000000000000000000000000000000000000000000000000100031803864877ELEILSON FELIPPE SANTOS                 RUA SANTA GREGORIA - 193 - CIDADE DUTRA             04806030                                                            000035
2SR. CAIXA, APOS O VENCIMENTO COBRAR 10% DE MULTA                                NAO RECEBER APOS 30 DIAS DO VENCIMENTO.                                                                                                                                                                                                         01042100000000000000104210000000000000       0090028004416120318038042117000036
100000000000000000000009002800441612000000000000000000000000010002100063064504211100000000002            2  01630645042110042100000004000590000000001N010421000000000000000000000000000000000000000000000000000000000000000100063064537849ANTONIO APARECIDO DA SILVA DESTEFANO    RUA PROFESSOR TEODORO BRAGA - 46 - VILA             02966020                                                            000038
2SR. CAIXA, APOS O VENCIMENTO COBRAR 10% DE MULTA                                NAO RECEBER APOS 30 DIAS DO VENCIMENTO.                                                                                                                                                                                                         01042100000000000000104210000000000000       0090028004416120630645042111000039
100000000000000000000009002800441612000000000000000000000000010002100010107704211700000000002            2  01101077042110042100000003833780000000001N010421000000000000000000000000000000000000000000000000000000000000000100010107711834VALDEMAR FECCHIO                        RUA DOUTOR MARTINS DE OLIVEIRA - 529 AP.            05638030                                                            000041
2SR. CAIXA, APOS O VENCIMENTO COBRAR 10% DE MULTA                                NAO RECEBER APOS 30 DIAS DO VENCIMENTO.                                                                                                                                                                                                         01042100000000000000104210000000000000       0090028004416120101077042117000042
100000000000000000000009002800441612000000000000000000000000010002100005920504211000000000002            2  01059205042110042100000002329170000000001N010421000000000000000000000000000000000000000000000000000000000000000100005920579846SONIA MARIA VALDO POLLO                 RUA PALMIRA CERVI BARBARO - 797 - CIDADE            13214370                                                            000044
2SR. CAIXA, APOS O VENCIMENTO COBRAR 10% DE MULTA                                NAO RECEBER APOS 30 DIAS DO VENCIMENTO.                                                                                                                                                                                                         01042100000000000000104210000000000000       0090028004416120059205042110000045
100000000000000000000009002800441612000000000000000000000000010002100002494104211100000000002            2  01024941042110042100000003502010000000001N010421000000000000000000000000000000000000000000000000000000000000000100002494107881CIRO FRANCISCO MARCHI DURIGON           RUA MONTE CASTELO - 262 AP.115 - AVIACAO            11702720                                                            000047
2SR. CAIXA, APOS O VENCIMENTO COBRAR 10% DE MULTA                                NAO RECEBER APOS 30 DIAS DO VENCIMENTO.                                                                                                                                                                                                         01042100000000000000104210000000000000       0090028004416120024941042111000048
100000000000000000000009002800441612000000000000000000000000010002100007002304211900000000002            2  01070023042110042100000003442640000000001N010421000000000000000000000000000000000000000000000000000000000000000100007002345869DOMINGOS DE BRITO GALVAO                RUA MONTE CASTELO - 262 AP.44 - AVIACAO             11702720                                                            000050
2SR. CAIXA, APOS O VENCIMENTO COBRAR 10% DE MULTA                                NAO RECEBER APOS 30 DIAS DO VENCIMENTO.                                                                                                                                                                                                         01042100000000000000104210000000000000       0090028004416120070023042119000051
100000000000000000000009002800441612000000000000000000000000010002100016299004211200000000002            2  01162990042110042100000003318710000000001N010421000000000000000000000000000000000000000000000000000000000000000100016299008857FERNANDO CESAR CARVALHO                 AVENIDA MARCONDES DE BRITO - 1340 AP.74             03509000                                                            000053
2SR. CAIXA, APOS O VENCIMENTO COBRAR 10% DE MULTA                                NAO RECEBER APOS 30 DIAS DO VENCIMENTO.                                                                                                                                                                                                         01042100000000000000104210000000000000       0090028004416120162990042112000054
100000000000000000000009002800441612000000000000000000000000010002100065895304211600000000002            2  01658953042110042100000002030390000000001N010421000000000000000000000000000000000000000000000000000000000000000100065895304834MARINHO BARBOSA CUNHA                   AVENIDA EDU CHAVES - 639 AP.43 - PARQUE             02229000                                                            000056
2SR. CAIXA, APOS O VENCIMENTO COBRAR 10% DE MULTA                                NAO RECEBER APOS 30 DIAS DO VENCIMENTO.                                                                                                                                                                                                         01042100000000000000104210000000000000       0090028004416120658953042116000057
100000000000000000000009002800441612000000000000000000000000010002100055975304211300000000002            2  01559753042110042100000000757850000000001N010421000000000000000000000000000000000000000000000000000000000000000100055975372887BENEVENUTO THEODORO DA SILVA NETO       RUA MONTE CASTELO - 296 AP.63 - AVIACAO             11702720                                                            000059
2SR. CAIXA, APOS O VENCIMENTO COBRAR 10% DE MULTA                                NAO RECEBER APOS 30 DIAS DO VENCIMENTO.                                                                                                                                                                                                         01042100000000000000104210000000000000       0090028004416120559753042113000060
9                                                                                                                                                                                                                                                                                                                                                                                                         000061