01REMESSA01COBRANCA       00000000000005331186HB SANTOS CONSTRUTORA E INCORP237BRADESCO       050922        MX0000056                                                                                                                                                                                                                                                                                     000001
100000000000000000000009033990000995400000000000000000000000010002020005723209221600000000002            2  01057232092223092200000002813680000000001N020922000000000000000000000000000000000000000000000000000000000000000100005723255843FRANCISCO DE ASSIS DA SILVA             PRACA NICOLAU GERAIGIRE - 25 VISOR - JAR            11095110                                                            000002
2SR. CAIXA, APOS O VENCIMENTO COBRAR 2% DE MULTA                                 NAO RECEBER APOS 30 DIAS DO VENCIMENTO.                                                                                                                                                                                                         05092200000000000000509220000000000000       0090339900009954057232092216000003
100000000000000000000009033990000995400000000000000000000000010002020004928109221000000000002            2  01049281092223092200000002751560000000001N020922000000000000000000000000000000000000000000000000000000000000000100004928157800ADEMIR APARECIDO ANTUNES                RUA URUGUAI - 89 AP.105 - JARDIM GUILHER            11702300                                                            000005
2SR. CAIXA, APOS O VENCIMENTO COBRAR 2% DE MULTA                                 NAO RECEBER APOS 30 DIAS DO VENCIMENTO.                                                                                                                                                                                                         05092200000000000000509220000000000000       0090339900009954049281092210000006
100000000000000000000009033990000995400000000000000000000000010002020011238009221800000000002            2  01112380092223092200000002715880000000001N020922000000000000000000000000000000000000000000000000000000000000000100011238052886SOLANGE DIAS DE SOUZA ROMANO            AVENIDA DR. ALTINO ARANTES - 865 AP.132             04042034                                                            000008
2SR. CAIXA, APOS O VENCIMENTO COBRAR 2% DE MULTA                                 NAO RECEBER APOS 30 DIAS DO VENCIMENTO.                                                                                                                                                                                                         05092200000000000000509220000000000000       0090339900009954112380092218000009
100000000000000000000009033990000995400000000000000000000000010002020032589109221P00000000002            2  01325891092223092200000002662340000000001N020922000000000000000000000000000000000000000000000000000000000000000100032589165862RENATA ISABEL MARTINS SILVA             RUA HERCULANO DE FREITAS - 257 - FUNDACA            09520280                                                            000011
2SR. CAIXA, APOS O VENCIMENTO COBRAR 2% DE MULTA                                 NAO RECEBER APOS 30 DIAS DO VENCIMENTO.                                                                                                                                                                                                         05092200000000000000509220000000000000       009033990000995432589109221P000012
100000000000000000000009033990000995400000000000000000000000010002020088339309221300000000002            2  01883393092223092200000002691200000000001N020922000000000000000000000000000000000000000000000000000000000000000100088339319868MARCIA SIQUEIRA MELLO                   RUA ADELINO ALVES - 81 - SANTO AMARO - S            04710120                                                            000014
2SR. CAIXA, APOS O VENCIMENTO COBRAR 2% DE MULTA                                 NAO RECEBER APOS 30 DIAS DO VENCIMENTO.                                                                                                                                                                                                         05092200000000000000509220000000000000       0090339900009954883393092213000015
100000000000000000000009033990000995400000000000000000000000010002020046391209221900000000002            2  01463912092223092200000002791750000000001N020922000000000000000000000000000000000000000000000000000000000000000100046391265810PAMELLA RODRIGUES DE OLIVEIRA           RUA AUGUSTA - 183 AP.301 BL.2A - VILA AU            07025130                                                            000017
2SR. CAIXA, APOS O VENCIMENTO COBRAR 2% DE MULTA                                 NAO RECEBER APOS 30 DIAS DO VENCIMENTO.                                                                                                                                                                                                         05092200000000000000509220000000000000       0090339900009954463912092219000018
100000000000000000000009033990000995400000000000000000000000010002020027964509221700000000002            2  01279645092223092200000002773870000000001N020922000000000000000000000000000000000000000000000000000000000000000100027964512838FABIO TADEU DE CAMPOS RADZIAVICIUS      RUA URUGUAI - 89 AP.94 - JARDIM GUILHERM            11702300                                                            000020
2SR. CAIXA, APOS O VENCIMENTO COBRAR 2% DE MULTA                                 NAO RECEBER APOS 30 DIAS DO VENCIMENTO.                                                                                                                                                                                                         05092200000000000000509220000000000000       0090339900009954279645092217000021
100000000000000000000009033990000995400000000000000000000000010002020011498309221500000000002            2  01114983092223092200000002078220000000001N020922000000000000000000000000000000000000000000000000000000000000000100011498329837GERSON GERALDO DAS NEVES                RUA DOMINGOS DELGADO - 144 - VILA SOUZA             02881070                                                            000023
2SR. CAIXA, APOS O VENCIMENTO COBRAR 2% DE MULTA                                 NAO RECEBER APOS 30 DIAS DO VENCIMENTO.                                                                                                                                                                                                         05092200000000000000509220000000000000       0090339900009954114983092215000024
100000000000000000000009033990000995400000000000000000000000010002020025214409221100000000002            2  01252144092223092200000002459970000000001N020922000000000000000000000000000000000000000000000000000000000000000100025214401833JOSE MAURICIO DOS SANTOS RODRIGUES      RUA JOAO DE MACEDO RIBEIRO - 49 - VILA N            08111101                                                            000026
2SR. CAIXA, APOS O VENCIMENTO COBRAR 2% DE MULTA                                 NAO RECEBER APOS 30 DIAS DO VENCIMENTO.                                                                                                                                                                                                         05092200000000000000509220000000000000       0090339900009954252144092211000027
100000000000000000000009033990000995400000000000000000000000010002020033119109221900000000002            2  01331191092223092200000002470390000000001N020922000000000000000000000000000000000000000000000000000000000000000100033119178802HUGO GOMES VENDRAME                     RUA SAO PAULO - 60 CASA 01 - VILA FREITA            06380110                                                            000029
2SR. CAIXA, APOS O VENCIMENTO COBRAR 2% DE MULTA                                 NAO RECEBER APOS 30 DIAS DO VENCIMENTO.                                                                                                                                                                                                         05092200000000000000509220000000000000       0090339900009954331191092219000030
100000000000000000000009033990000995400000000000000000000000010002020016631509221100000000002            2  01166315092223092200000002513490000000001N020922000000000000000000000000000000000000000000000000000000000000000100016631587468GILBERTO BEZERRA DA SILVA               AVENIDA JAIME TORRES - 745 CASA 3 - JARD            03670000                                                            000032
2SR. CAIXA, APOS O VENCIMENTO COBRAR 2% DE MULTA                                 NAO RECEBER APOS 30 DIAS DO VENCIMENTO.                                                                                                                                                                                                         05092200000000000000509220000000000000       0090339900009954166315092211000033
100000000000000000000009033990000995400000000000000000000000010002020007313209221400000000002            2  01073132092223092200000002495650000000001N020922000000000000000000000000000000000000000000000000000000000000000100007313251840SALVADOR GESUALDO PULVIRENTI            AVENIDA MARARI - 641 - VILA MARARI - SAO            04402010                                                            000035
2SR. CAIXA, APOS O VENCIMENTO COBRAR 2% DE MULTA                                 NAO RECEBER APOS 30 DIAS DO VENCIMENTO.                                                                                                                                                                                                         05092200000000000000509220000000000000       0090339900009954073132092214000036
100000000000000000000009033990000995400000000000000000000000010002020010676709221600000000002            2  01106767092223092200000002604870000000001N020922000000000000000000000000000000000000000000000000000000000000000100010676723896MERCEDES CRISTINA ROCHA SANDOVAL        RUA URUGUAI - 89 AP.83 - JARDIM GUILHERM            11702300                                                            000038
2SR. CAIXA, APOS O VENCIMENTO COBRAR 2% DE MULTA                                 NAO RECEBER APOS 30 DIAS DO VENCIMENTO.                                                                                                                                                                                                         05092200000000000000509220000000000000       0090339900009954106767092216000039
100000000000000000000009033990000995400000000000000000000000010002020009502809221400000000002            2  01095028092223092200000002720350000000001N020922000000000000000000000000000000000000000000000000000000000000000100009502844831CLAUDIA ROCHA SANDOVAL                  RUA URUGUAI - 89 AP.64 - JARDIM GUILHERM            11702300                                                            000041
2SR. CAIXA, APOS O VENCIMENTO COBRAR 2% DE MULTA                                 NAO RECEBER APOS 30 DIAS DO VENCIMENTO.                                                                                                                                                                                                         05092200000000000000509220000000000000       0090339900009954095028092214000042
100000000000000000000009033990000995400000000000000000000000010002020007594209221300000000002            2  01075942092223092200000002442130000000001N020922000000000000000000000000000000000000000000000000000000000000000100007594247809JOSE LUIS DE OLIVEIRA                   DONA EGLANTINA PENTEADO DA SILVA PRADO -            13044162                                                            000044
2SR. CAIXA, APOS O VENCIMENTO COBRAR 2% DE MULTA                                 NAO RECEBER APOS 30 DIAS DO VENCIMENTO.                                                                                                                                                                                                         05092200000000000000509220000000000000       0090339900009954075942092213000045
100000000000000000000009033990000995400000000000000000000000010002020005288709221700000000002            2  01052887092223092200000002515640000000001N020922000000000000000000000000000000000000000000000000000000000000000100005288796858MARCELO RODRIGUES FERREIRA              RUA MARCOS ANTONIO MARQUES - 302 - JARDI            06433020                                                            000047
2SR. CAIXA, APOS O VENCIMENTO COBRAR 2% DE MULTA                                 NAO RECEBER APOS 30 DIAS DO VENCIMENTO.                                                                                                                                                                                                         05092200000000000000509220000000000000       0090339900009954052887092217000048
100000000000000000000009033990000995400000000000000000000000010002020015835909221600000000002            2  01158359092223092200000002619680000000001N020922000000000000000000000000000000000000000000000000000000000000000100015835992823FLAVIO VERONEZ                          RUA ANDREA PAULINETTI - 127 AP.42 - BAIR            04707050                                                            000050
2SR. CAIXA, APOS O VENCIMENTO COBRAR 2% DE MULTA                                 NAO RECEBER APOS 30 DIAS DO VENCIMENTO.                                                                                                                                                                                                         05092200000000000000509220000000000000       0090339900009954158359092216000051
100000000000000000000009033990000995400000000000000000000000010002020000438109221400000000002            2  01004381092223092200000002956900000000001N020922000000000000000000000000000000000000000000000000000000000000000100000438161858WAGNECY VILLA NOVA LIEN                 MACHADO - 106 - VILA AUGUSTA - GUARULHOS            07025210                                                            000053
2SR. CAIXA, APOS O VENCIMENTO COBRAR 2% DE MULTA                                 NAO RECEBER APOS 30 DIAS DO VENCIMENTO.                                                                                                                                                                                                         05092200000000000000509220000000000000       0090339900009954004381092214000054
100000000000000000000009033990000995400000000000000000000000010002020026004509221000000000002            2  01260045092223092200000002619720000000001N020922000000000000000000000000000000000000000000000000000000000000000100026004595888EDIVALDO BEZERRA DA SILVA               AVENIDA GUATEMALA - 550 - JARDIM PINHEIR            09854750                                                            000056
2SR. CAIXA, APOS O VENCIMENTO COBRAR 2% DE MULTA                                 NAO RECEBER APOS 30 DIAS DO VENCIMENTO.                                                                                                                                                                                                         05092200000000000000509220000000000000       0090339900009954260045092210000057
100000000000000000000009033990000995400000000000000000000000010002020012470709221500000000002            2  01124707092223092200000002795040000000001N020922000000000000000000000000000000000000000000000000000000000000000100012470771870HILTON FERNANDES OLIVARES               RUA PATIO DA ESTACAO - 115 - BAIRRO CENT            09450000                                                            000059
2SR. CAIXA, APOS O VENCIMENTO COBRAR 2% DE MULTA                                 NAO RECEBER APOS 30 DIAS DO VENCIMENTO.                                                                                                                                                                                                         05092200000000000000509220000000000000       0090339900009954124707092215000060
100000000000000000000009033990000995400000000000000000000000010002020014025409221400000000002            2  01140254092223092200000003064710000000001N020922000000000000000000000000000000000000000000000000000000000000000100014025420899ANDREIA APARECIDA TAVARES BASTOS        RUA IBATIBA - 234 CASA 27 - RES.BOUGANVI            09220608                                                            000062
2SR. CAIXA, APOS O VENCIMENTO COBRAR 2% DE MULTA                                 NAO RECEBER APOS 30 DIAS DO VENCIMENTO.                                                                                                                                                                                                         05092200000000000000509220000000000000       0090339900009954140254092214000063
100000000000000000000009033990000995400000000000000000000000010002020018590009221300000000002            2  01185900092223092200000002775540000000001N020922000000000000000000000000000000000000000000000000000000000000000100018590038858JOSE SANDRO ROCHA SILVA                 RUA SANTO ANTONIO DO AVENTUREIRO - 216 A            07143040                                                            000065
2SR. CAIXA, APOS O VENCIMENTO COBRAR 2% DE MULTA                                 NAO RECEBER APOS 30 DIAS DO VENCIMENTO.                                                                                                                                                                                                         05092200000000000000509220000000000000       0090339900009954185900092213000066
100000000000000000000009033990000995400000000000000000000000010002020088578709221100000000002            2  01885787092223092200000002283870000000001N020922000000000000000000000000000000000000000000000000000000000000000100088578704800GILBERTO DO ESPIRITO SANTO SILVA        RUA URUGUAI - 89 AP.23 - JARDIM GUILHERM            11702300                                                            000068
2SR. CAIXA, APOS O VENCIMENTO COBRAR 2% DE MULTA                                 NAO RECEBER APOS 30 DIAS DO VENCIMENTO.                                                                                                                                                                                                         05092200000000000000509220000000000000       0090339900009954885787092211000069
100000000000000000000009033990000995400000000000000000000000010002020015378209221200000000002            2  01153782092223092200000003412760000000001N020922000000000000000000000000000000000000000000000000000000000000000100015378295807SERGIO FERNANDES                        RUA VALDEMAR MARTINS - 116 AP.115 - BAIR            02535000                                                            000071
2SR. CAIXA, APOS O VENCIMENTO COBRAR 2% DE MULTA                                 NAO RECEBER APOS 30 DIAS DO VENCIMENTO.                                                                                                                                                                                                         05092200000000000000509220000000000000       0090339900009954153782092212000072
100000000000000000000009033990000995400000000000000000000000010002020005105209221P00000000002            2  01051052092223092200000002723790000000001N020922000000000000000000000000000000000000000000000000000000000000000100005105287835FABIO MOTTOLA DE OLIVEIRA               RUA RAUL MAZZONI - 133 - CHACARA AREAL -            13331022                                                            000074
2SR. CAIXA, APOS O VENCIMENTO COBRAR 2% DE MULTA                                 NAO RECEBER APOS 30 DIAS DO VENCIMENTO.                                                                                                                                                                                                         05092200000000000000509220000000000000       009033990000995405105209221P000075
100000000000000000000009033990000995400000000000000000000000010002020020792709221900000000002            2  01207927092223092200000002831740000000001N020922000000000000000000000000000000000000000000000000000000000000000120792791000147TROVAO COMERCIO DE ALIMENTOS LTDA-ME    RUA QUINTA DA MAGNOLIA - 67 - JARDIM IPA            03582100                                                            000077
2SR. CAIXA, APOS O VENCIMENTO COBRAR 2% DE MULTA                                 NAO RECEBER APOS 30 DIAS DO VENCIMENTO.                                                                                                                                                                                                         05092200000000000000509220000000000000       0090339900009954207927092219000078
100000000000000000000009033990000995400000000000000000000000010002020007648109221200000000002            2  01076481092223092200000002659030000000001N020922000000000000000000000000000000000000000000000000000000000000000100007648112825MARA REGINA CAPRIO                      RUA DA TRINDADE - 790 - VILA IDEAL - SAO            15060280                                                            000080
2SR. CAIXA, APOS O VENCIMENTO COBRAR 2% DE MULTA                                 NAO RECEBER APOS 30 DIAS DO VENCIMENTO.                                                                                                                                                                                                         05092200000000000000509220000000000000       0090339900009954076481092212000081
100000000000000000000009033990000995400000000000000000000000010002020031157409221100000000002            2  01311574092223092200000002855130000000001N020922000000000000000000000000000000000000000000000000000000000000000100031157420885TALITA ANICHIARICO COSSI                RUA CNEO POMPEO DE CAMARGO - 817 - JARDI            13060150                                                            000083
2SR. CAIXA, APOS O VENCIMENTO COBRAR 2% DE MULTA                                 NAO RECEBER APOS 30 DIAS DO VENCIMENTO.                                                                                                                                                                                                         05092200000000000000509220000000000000       0090339900009954311574092211000084
100000000000000000000009033990000995400000000000000000000000010002020035572509221600000000002            2  01355725092223092200000003035670000000001N020922000000000000000000000000000000000000000000000000000000000000000100035572536865MARIA SIMONE SANTOS                     RUA JOSE PEZZOLO - 68 - VILA ELDIZIA - S            09181660                                                            000086
2SR. CAIXA, APOS O VENCIMENTO COBRAR 2% DE MULTA                                 NAO RECEBER APOS 30 DIAS DO VENCIMENTO.                                                                                                                                                                                                         05092200000000000000509220000000000000       0090339900009954355725092216000087
100000000000000000000009033990000995400000000000000000000000010002020008800309221300000000002            2  01088003092223092200000002765900000000001N020922000000000000000000000000000000000000000000000000000000000000000100008800368425INGO DIMITRI PEREIRA DA NOBREGA         RUA PROFESSOR MENDES PIMENTEL - 362 - JA            03973010                                                            000089
2SR. CAIXA, APOS O VENCIMENTO COBRAR 2% DE MULTA                                 NAO RECEBER APOS 30 DIAS DO VENCIMENTO.                                                                                                                                                                                                         05092200000000000000509220000000000000       0090339900009954088003092213000090
100000000000000000000009033990000995400000000000000000000000010002020018312409221300000000002            2  01183124092223092200000009591420000000001N020922000000000000000000000000000000000000000000000000000000000000000100018312408827PAULO LUIZ FERREIRA                     AVENIDA MARCONDES SALGADO - 20 AP.26 B -            11702530                                                            000092
2SR. CAIXA, APOS O VENCIMENTO COBRAR 2% DE MULTA                                 NAO RECEBER APOS 30 DIAS DO VENCIMENTO.                                                                                                                                                                                                         05092200000000000000509220000000000000       0090339900009954183124092213000093
100000000000000000000009033990000995400000000000000000000000010002020005054109221800000000002            2  01050541092223092200000002676680000000001N020922000000000000000000000000000000000000000000000000000000000000000100005054169806PAULO ROBERTO DE MATTOS                 JARDIM BOTANICO - 849 - DISTRITO DE SOUS            13106258                                                            000095
2SR. CAIXA, APOS O VENCIMENTO COBRAR 2% DE MULTA                                 NAO RECEBER APOS 30 DIAS DO VENCIMENTO.                                                                                                                                                                                                         05092200000000000000509220000000000000       0090339900009954050541092218000096
100000000000000000000009033990000995400000000000000000000000010002020007552109221400000000002            2  01075521092223092200000002676680000000001N020922000000000000000000000000000000000000000000000000000000000000000100007552151846MAURO BORDONI                           AVENIDA DR. AUGUSTO DE TOLEDO - 769 AP.6            09540080                                                            000098
2SR. CAIXA, APOS O VENCIMENTO COBRAR 2% DE MULTA                                 NAO RECEBER APOS 30 DIAS DO VENCIMENTO.                                                                                                                                                                                                         05092200000000000000509220000000000000       0090339900009954075521092214000099
100000000000000000000009033990000995400000000000000000000000010002020012744209221700000000002            2  01127442092223092200000002978200000000001N020922000000000000000000000000000000000000000000000000000000000000000100012744201804ADAIL JOSE DE SOUSA                     RUA ROSARIA - 303 - BAIRRO SACADURA CABR            09061080                                                            000101
2SR. CAIXA, APOS O VENCIMENTO COBRAR 2% DE MULTA                                 NAO RECEBER APOS 30 DIAS DO VENCIMENTO.                                                                                                                                                                                                         05092200000000000000509220000000000000       0090339900009954127442092217000102
100000000000000000000009033990000995400000000000000000000000010002020000884209221700000000002            2  01008842092223092200000002215720000000001N020922000000000000000000000000000000000000000000000000000000000000000100000884239802ADEMIR MARTINS                          RUA CAIRO - 221 - VILA METALURGICA - SAN            09220170                                                            000104
2SR. CAIXA, APOS O VENCIMENTO COBRAR 2% DE MULTA                                 NAO RECEBER APOS 30 DIAS DO VENCIMENTO.                                                                                                                                                                                                         05092200000000000000509220000000000000       0090339900009954008842092217000105
100000000000000000000009033990000995400000000000000000000000010002020068320609221400000000002            2  01683206092223092200000010547260000000001N020922000000000000000000000000000000000000000000000000000000000000000100068320663849ANTONIO CAVALCANTE LIMA                 RUA AMAZONAS - 1188 - CENTRO - SAO CAETA            09540201                                                            000107
2SR. CAIXA, APOS O VENCIMENTO COBRAR 2% DE MULTA                                 NAO RECEBER APOS 30 DIAS DO VENCIMENTO.                                                                                                                                                                                                         05092200000000000000509220000000000000       0090339900009954683206092214000108
9                                                                                                                                                                                                                                                                                                                                                                                                         000109