01REMESSA01COBRANCA       00000000000005316116AIRES CONSTRUTORA E INCORPORAD237BRADESCO       031220        MX0000160                                                                                                                                                                                                                                                                                     000001
100000000000000000000009002800441612000000000000000000000000010002100029380712201000000000002            2  01293807122025122000000003528740000000001N031220000000000000000000000000000000000000000000000000000000000000000100029380708882EDUARDO MENDONCA DAMASCENO              RUA MONTE CASTELO - 296 AP.12 - AVIACAO             11702720                                                            000002
2SR. CAIXA, APOS O VENCIMENTO COBRAR 10% DE MULTA                                NAO RECEBER APOS 30 DIAS DO VENCIMENTO.                                                                                                                                                                                                         03122000000000000000312200000000000000       0090028004416120293807122010000003
100000000000000000000009002800441612000000000000000000000000010002100023988512201400000000002            2  01239885122025122000000003583020000000001N031220000000000000000000000000000000000000000000000000000000000000000100023988525634DALMY PIMENTA                           RUA JOAQUIM TELESFORO DE OLIVEIRA - 344             38061608                                                            000005
2SR. CAIXA, APOS O VENCIMENTO COBRAR 10% DE MULTA                                NAO RECEBER APOS 30 DIAS DO VENCIMENTO.                                                                                                                                                                                                         03122000000000000000312200000000000000       0090028004416120239885122014000006
100000000000000000000009002800441612000000000000000000000000010002100007975912201P00000000002            2  01079759122025122000000003789320000000001N031220000000000000000000000000000000000000000000000000000000000000000100007975958808JOCY VIGNADO                            RUA PEDRO GONCALVES SOBRINHO - 568 - PAR            13098641                                                            000008
2SR. CAIXA, APOS O VENCIMENTO COBRAR 10% DE MULTA                                NAO RECEBER APOS 30 DIAS DO VENCIMENTO.                                                                                                                                                                                                         03122000000000000000312200000000000000       009002800441612007975912201P000009
100000000000000000000009002800441612000000000000000000000000010002100023132612201100000000002            2  01231326122025122000000002212400000000001N031220000000000000000000000000000000000000000000000000000000000000000100023132672882LEANDRO MORENO                          RUA MONTE CASTELO - 296 AP.64 - AVIACAO             11702720                                                            000011
2SR. CAIXA, APOS O VENCIMENTO COBRAR 10% DE MULTA                                NAO RECEBER APOS 30 DIAS DO VENCIMENTO.                                                                                                                                                                                                         03122000000000000000312200000000000000       0090028004416120231326122011000012
100000000000000000000009002800441612000000000000000000000000010002100099264612201000000000002            2  01992646122025122000000003773060000000001N031220000000000000000000000000000000000000000000000000000000000000000100099264692800LEONTINO PINHEIRO DA SILVA              AVENIDA JOAO BATISTA FITIPALDI - 469 - V            08685000                                                            000014
2SR. CAIXA, APOS O VENCIMENTO COBRAR 10% DE MULTA                                NAO RECEBER APOS 30 DIAS DO VENCIMENTO.                                                                                                                                                                                                         03122000000000000000312200000000000000       0090028004416120992646122010000015
100000000000000000000009002800441612000000000000000000000000010002100000666312201100000000002            2  01006663122025122000000003639950000000001N031220000000000000000000000000000000000000000000000000000000000000000100000666344825LUIZ HENRIQUE DE CAMPOS                 RUA JOAO CARLOS CAVALCANTI REIS - 21 - J            02281206                                                            000017
2SR. CAIXA, APOS O VENCIMENTO COBRAR 10% DE MULTA                                NAO RECEBER APOS 30 DIAS DO VENCIMENTO.                                                                                                                                                                                                         03122000000000000000312200000000000000       0090028004416120006663122011000018
100000000000000000000009002800441612000000000000000000000000010002100029155012201100000000002            2  01291550122025122000000003843920000000001N031220000000000000000000000000000000000000000000000000000000000000000100029155026842DANIELA YOSHIDA                         RUA MONTE CASTELO - 262 AP.34 - AVIACAO             11702720                                                            000020
2SR. CAIXA, APOS O VENCIMENTO COBRAR 10% DE MULTA                                NAO RECEBER APOS 30 DIAS DO VENCIMENTO.                                                                                                                                                                                                         03122000000000000000312200000000000000       0090028004416120291550122011000021
100000000000000000000009002800441612000000000000000000000000010002100001204412201500000000002            2  01012044122025122000000003130340000000001N031220000000000000000000000000000000000000000000000000000000000000000100001204431809CEZAR TALAVERA JUNIOR                   RUA MAESTRO ARTURO DE ANGELIS  - 190 AP.            05139010                                                            000023
2SR. CAIXA, APOS O VENCIMENTO COBRAR 10% DE MULTA                                NAO RECEBER APOS 30 DIAS DO VENCIMENTO.                                                                                                                                                                                                         03122000000000000000312200000000000000       0090028004416120012044122015000024
100000000000000000000009002800441612000000000000000000000000010002100004227512201400000000002            2  01042275122025122000000004057860000000001N031220000000000000000000000000000000000000000000000000000000000000000100004227553970ALESSANDRO ISRAEL GOULART               RUA PROFESSORA CARLINDA RIBEIRO - 21 - F            02866200                                                            000026
2SR. CAIXA, APOS O VENCIMENTO COBRAR 10% DE MULTA                                NAO RECEBER APOS 30 DIAS DO VENCIMENTO.                                                                                                                                                                                                         03122000000000000000312200000000000000       0090028004416120042275122014000027
100000000000000000000009002800441612000000000000000000000000010002100060811412201800000000002            2  01608114122025122000000003739780000000001N031220000000000000000000000000000000000000000000000000000000000000000100060811420868HELIO BASSI                             AV.PARIS,575 - PRACA ANTONIO FIGUEROA -             11700082                                                            000029
2SR. CAIXA, APOS O VENCIMENTO COBRAR 10% DE MULTA                                NAO RECEBER APOS 30 DIAS DO VENCIMENTO.                                                                                                                                                                                                         03122000000000000000312200000000000000       0090028004416120608114122018000030
100000000000000000000009002800441612000000000000000000000000010002100001024712201800000000002            2  01010247122025122000000003538830000000001N031220000000000000000000000000000000000000000000000000000000000000000100001024794881CLAUDIO RODRIGUES                       RUA ARACATUBA - 242 - LAPA - SAO PAULO -            05058010                                                            000032
2SR. CAIXA, APOS O VENCIMENTO COBRAR 10% DE MULTA                                NAO RECEBER APOS 30 DIAS DO VENCIMENTO.                                                                                                                                                                                                         03122000000000000000312200000000000000       0090028004416120010247122018000033
100000000000000000000009002800441612000000000000000000000000010002100002225012201900000000002            2  01022250122025122000000005425500000000001N031220000000000000000000000000000000000000000000000000000000000000000100002225072841PEDRO EDUARDO DE AZEVEDO                RUA NATH ZILMAN - 46 - JARDIM SAMAMBAIA             07623085                                                            000035
2SR. CAIXA, APOS O VENCIMENTO COBRAR 10% DE MULTA                                NAO RECEBER APOS 30 DIAS DO VENCIMENTO.                                                                                                                                                                                                         03122000000000000000312200000000000000       0090028004416120022250122019000036
100000000000000000000009002800441612000000000000000000000000010002100022037512201700000000002            2  01220375122025122000000003775540000000001N031220000000000000000000000000000000000000000000000000000000000000000100022037552882ANDREIA CRISTINA FERNANDES DANTAS       PCA CASTRO ALVES - 163 AP.33 - VILA SAO             13224299                                                            000038
2SR. CAIXA, APOS O VENCIMENTO COBRAR 10% DE MULTA                                NAO RECEBER APOS 30 DIAS DO VENCIMENTO.                                                                                                                                                                                                         03122000000000000000312200000000000000       0090028004416120220375122017000039
100000000000000000000009002800441612000000000000000000000000010002100019288712201500000000002            2  01192887122025122000000003074140000000001N031220000000000000000000000000000000000000000000000000000000000000000100019288787844EMERSON LUIZ MARTINEZ PEREIRA           RUA MONTE CASTELO - 296 AP.74 - AVIACAO             11702720                                                            000041
2SR. CAIXA, APOS O VENCIMENTO COBRAR 10% DE MULTA                                NAO RECEBER APOS 30 DIAS DO VENCIMENTO.                                                                                                                                                                                                         03122000000000000000312200000000000000       0090028004416120192887122015000042
100000000000000000000009002800441612000000000000000000000000010002100027198412201900000000002            2  01271984122025122000000010475930000000001N031220000000000000000000000000000000000000000000000000000000000000000100027198452809CRISTIANE AURELIANO DA SILVA MAIA       RUA MONTE CASTELO - 262 AP.25 - AVIACAO             11702720                                                            000044
2SR. CAIXA, APOS O VENCIMENTO COBRAR 10% DE MULTA                                NAO RECEBER APOS 30 DIAS DO VENCIMENTO.                                                                                                                                                                                                         03122000000000000000312200000000000000       0090028004416120271984122019000045
100000000000000000000009002800441612000000000000000000000000010002100027198412202700000000002            2  01271984122025122000000002603970000000001N031220000000000000000000000000000000000000000000000000000000000000000100027198452809CRISTIANE AURELIANO DA SILVA MAIA       RUA MONTE CASTELO - 262 AP.25 - AVIACAO             11702720                                                            000047
2SR. CAIXA, APOS O VENCIMENTO COBRAR 10% DE MULTA                                NAO RECEBER APOS 30 DIAS DO VENCIMENTO.                                                                                                                                                                                                         03122000000000000000312200000000000000       0090028004416120271984122027000048
100000000000000000000009002800441612000000000000000000000000010002100021246212201200000000002            2  01212462122025122000000003177890000000001N031220000000000000000000000000000000000000000000000000000000000000000100021246231840ALEXANDRO DA CUNHA MIGUES               RUA DULCE - 71  - VILA CARRAO - SAO PAUL            03427040                                                            000050
2SR. CAIXA, APOS O VENCIMENTO COBRAR 10% DE MULTA                                NAO RECEBER APOS 30 DIAS DO VENCIMENTO.                                                                                                                                                                                                         03122000000000000000312200000000000000       0090028004416120212462122012000051
100000000000000000000009002800441612000000000000000000000000010002100018470512201200000000002            2  01184705122025122000000004675130000000001N031220000000000000000000000000000000000000000000000000000000000000000100018470520881SILVANA ALVES DE OLIVEIRA               RUA MONTE CASTELO - 262 AP.91 - AVIACAO             11702720                                                            000053
2SR. CAIXA, APOS O VENCIMENTO COBRAR 10% DE MULTA                                NAO RECEBER APOS 30 DIAS DO VENCIMENTO.                                                                                                                                                                                                         03122000000000000000312200000000000000       0090028004416120184705122012000054
100000000000000000000009002800441612000000000000000000000000010002100009297512201200000000002            2  01092975122025122000000003254770000000001N031220000000000000000000000000000000000000000000000000000000000000000100009297523846MARCOS ROBERTO DE CASTRO FERREIRA       RUA MONTE CASTELO - 262 AP.105 - AVIACAO            11702720                                                            000056
2SR. CAIXA, APOS O VENCIMENTO COBRAR 10% DE MULTA                                NAO RECEBER APOS 30 DIAS DO VENCIMENTO.                                                                                                                                                                                                         03122000000000000000312200000000000000       0090028004416120092975122012000057
100000000000000000000009002800441612000000000000000000000000010002100001164112201100000000002            2  01011641122025122000000004033420000000001N031220000000000000000000000000000000000000000000000000000000000000000100001164158864DAVID BLEY LACERDA                      RUA CONEGO ARAUJO MARCONDES - 188 - BAIR            02550080                                                            000059
2SR. CAIXA, APOS O VENCIMENTO COBRAR 10% DE MULTA                                NAO RECEBER APOS 30 DIAS DO VENCIMENTO.                                                                                                                                                                                                         03122000000000000000312200000000000000       0090028004416120011641122011000060
100000000000000000000009002800441612000000000000000000000000010002100031498012201500000000002            2  01314980122025122000000004902040000000001N031220000000000000000000000000000000000000000000000000000000000000000100031498008895POLIANE  SIBELE DA SILVA                PRACA GENERAL COSTA BARRETO - 56 AP.181             03325070                                                            000062
2SR. CAIXA, APOS O VENCIMENTO COBRAR 10% DE MULTA                                NAO RECEBER APOS 30 DIAS DO VENCIMENTO.                                                                                                                                                                                                         03122000000000000000312200000000000000       0090028004416120314980122015000063
100000000000000000000009002800441612000000000000000000000000010002100000588112201900000000002            2  01005881122025122000000002875120000000001N031220000000000000000000000000000000000000000000000000000000000000000100000588109860JOSE LIARTE GIANTE                      AVENIDA LUIZ GONZAGA DO AMARAL - 143 - J            09320630                                                            000065
2SR. CAIXA, APOS O VENCIMENTO COBRAR 10% DE MULTA                                NAO RECEBER APOS 30 DIAS DO VENCIMENTO.                                                                                                                                                                                                         03122000000000000000312200000000000000       0090028004416120005881122019000066
100000000000000000000009002800441612000000000000000000000000010002100014386812201100000000002            2  01143868122025122000000002299990000000001N031220000000000000000000000000000000000000000000000000000000000000000100014386860134SEVERINO CARLOS DE OLIVEIRA             RUA MONTE CASTELO - 262 AP.54 - AVIACAO             11702720                                                            000068
2SR. CAIXA, APOS O VENCIMENTO COBRAR 10% DE MULTA                                NAO RECEBER APOS 30 DIAS DO VENCIMENTO.                                                                                                                                                                                                         03122000000000000000312200000000000000       0090028004416120143868122011000069
100000000000000000000009002800441612000000000000000000000000010002100039393712201700000000002            2  01393937122025122000000001585170000000001N031220000000000000000000000000000000000000000000000000000000000000000100039393790850NAIRON RICARDO DE ARAUJO SANTOS         RUA NITEROI - 267 CASA 04 - JARDIM INDEP            11380350                                                            000071
2SR. CAIXA, APOS O VENCIMENTO COBRAR 10% DE MULTA                                NAO RECEBER APOS 30 DIAS DO VENCIMENTO.                                                                                                                                                                                                         03122000000000000000312200000000000000       0090028004416120393937122017000072
100000000000000000000009002800441612000000000000000000000000010002100004735212201600000000002            2  01047352122025122000000001635120000000001N031220000000000000000000000000000000000000000000000000000000000000000100004735273832DARIO LUIZ GONCALVES                    RUA MONTE CASTELO - 295 AP.113 - AVIACAO            11702720                                                            000074
2SR. CAIXA, APOS O VENCIMENTO COBRAR 10% DE MULTA                                NAO RECEBER APOS 30 DIAS DO VENCIMENTO.                                                                                                                                                                                                         03122000000000000000312200000000000000       0090028004416120047352122016000075
9                                                                                                                                                                                                                                                                                                                                                                                                         000076