01REMESSA01COBRANCA       00000000000008017025HB SANTOS CONSTRUTORA E INCORP237BRADESCO       061218        MX0000069                                                                                                                                                                                                                                                                                     000001
100000000000000000000009033990000627000000000000000000000000010002020025035112181400000000002            2  01250351121824121800000001969920000000001N061218000000000000000000000000000000000000000000000000000000000000000100025035170802WANDERSON LUIS DE CARVALHO              RUA JOAQUIM GONCALVES ROCHA - 302 - JARD            02859030                                                            000002
2SR. CAIXA, APOS O VENCIMENTO COBRAR 2% DE MULTA                                 NAO RECEBER APOS 30 DIAS DO VENCIMENTO.                                                                                                                                                                                                         06121800000000000000612180000000000000       0090339900006270250351121814000003
100000000000000000000009033990000627000000000000000000000000010002020007294312181100000000002            2  01072943121824121800000002649590000000001N061218000000000000000000000000000000000000000000000000000000000000000100007294351805CLAUDENIR APARECIDO VACARI              RUA CARLOS JOSE BORSTENS - 50 AP.93 - AV            11702750                                                            000005
2SR. CAIXA, APOS O VENCIMENTO COBRAR 2% DE MULTA                                 NAO RECEBER APOS 30 DIAS DO VENCIMENTO.                                                                                                                                                                                                         06121800000000000000612180000000000000       0090339900006270072943121811000006
100000000000000000000009033990000627000000000000000000000000010002020042976112181100000000002            2  01429761121824121800000002677390000000001N061218000000000000000000000000000000000000000000000000000000000000000100042976111634ACACIO TOSCANO BONDANCA                 RUA COMENDADOR JACOMO ANTONIO LA SELVA -            12946797                                                            000008
2SR. CAIXA, APOS O VENCIMENTO COBRAR 2% DE MULTA                                 NAO RECEBER APOS 30 DIAS DO VENCIMENTO.                                                                                                                                                                                                         06121800000000000000612180000000000000       0090339900006270429761121811000009
100000000000000000000009033990000627000000000000000000000000010002020035438012181500000000002            2  01354380121824121800000002261190000000001N061218000000000000000000000000000000000000000000000000000000000000000100035438022836ALESSANDRO FARACO DOS SANTOS            RUA PEDRO POMAR  - 145 - JARDIM ELISA MA            02875020                                                            000011
2SR. CAIXA, APOS O VENCIMENTO COBRAR 2% DE MULTA                                 NAO RECEBER APOS 30 DIAS DO VENCIMENTO.                                                                                                                                                                                                         06121800000000000000612180000000000000       0090339900006270354380121815000012
100000000000000000000009033990000627000000000000000000000000010002020007525012181700000000002            2  01075250121824121800000002963670000000001N061218000000000000000000000000000000000000000000000000000000000000000100007525032866FERNANDO RIBEIRO                        RUA ALDO COLI - 539 - VILA MIRIM - PRAIA            11704760                                                            000014
2SR. CAIXA, APOS O VENCIMENTO COBRAR 2% DE MULTA                                 NAO RECEBER APOS 30 DIAS DO VENCIMENTO.                                                                                                                                                                                                         06121800000000000000612180000000000000       0090339900006270075250121817000015
100000000000000000000009033990000627000000000000000000000000010002020005071412181200000000002            2  01050714121824121800000002599700000000001N061218000000000000000000000000000000000000000000000000000000000000000100005071481855ERIBALDO SANTANA CARVALHO               RUA HONDURAS - 477 - PARQUE DAS AMERICAS            09351070                                                            000017
2SR. CAIXA, APOS O VENCIMENTO COBRAR 2% DE MULTA                                 NAO RECEBER APOS 30 DIAS DO VENCIMENTO.                                                                                                                                                                                                         06121800000000000000612180000000000000       0090339900006270050714121812000018
100000000000000000000009033990000627000000000000000000000000010002020002841712181600000000002            2  01028417121824121800000002432250000000001N061218000000000000000000000000000000000000000000000000000000000000000100002841756416LUCIANA PINHEIRO DE ASSIS NUNES         RUA RIO ACIMA - 81 - RIACHO GRANDE - SAO            09830100                                                            000020
2SR. CAIXA, APOS O VENCIMENTO COBRAR 2% DE MULTA                                 NAO RECEBER APOS 30 DIAS DO VENCIMENTO.                                                                                                                                                                                                         06121800000000000000612180000000000000       0090339900006270028417121816000021
100000000000000000000009033990000627000000000000000000000000010002020084302012181500000000002            2  01843020121824121800000002443920000000001N061218000000000000000000000000000000000000000000000000000000000000000100084302097868FAUSTO TADEU VILOR                      RUA ANTONIO TAVARES - 466 - BAIRRO CAMBU            01542010                                                            000023
2SR. CAIXA, APOS O VENCIMENTO COBRAR 2% DE MULTA                                 NAO RECEBER APOS 30 DIAS DO VENCIMENTO.                                                                                                                                                                                                         06121800000000000000612180000000000000       0090339900006270843020121815000024
100000000000000000000009033990000627000000000000000000000000010002020028804212181500000000002            2  01288042121824121800000002401170000000001N061218000000000000000000000000000000000000000000000000000000000000000100028804202882GILBERTO FABIANO CABRAL DE CAMARGO      RUA CARLOS JOSE BORSTENS - 50 AP.44 - AV            11702750                                                            000026
2SR. CAIXA, APOS O VENCIMENTO COBRAR 2% DE MULTA                                 NAO RECEBER APOS 30 DIAS DO VENCIMENTO.                                                                                                                                                                                                         06121800000000000000612180000000000000       0090339900006270288042121815000027
100000000000000000000009033990000627000000000000000000000000010002020000991712181800000000002            2  01009917121824121800000002343630000000001N061218000000000000000000000000000000000000000000000000000000000000000100000991748808JAILSON BORGES DE ANDRADE               RUA IPIOBUNA - 45 - JARDIM CUMBICA - GUA            07240040                                                            000029
2SR. CAIXA, APOS O VENCIMENTO COBRAR 2% DE MULTA                                 NAO RECEBER APOS 30 DIAS DO VENCIMENTO.                                                                                                                                                                                                         06121800000000000000612180000000000000       0090339900006270009917121818000030
100000000000000000000009033990000627000000000000000000000000010002020092180212181500000000002            2  01921802121824121800000003195270000000001N061218000000000000000000000000000000000000000000000000000000000000000100092180299834LUIS ROBERTO DE SA DUARTE               RUA TEBAS - 296 AP.84 BLOCO 2 CE - JARDI            04634031                                                            000032
2SR. CAIXA, APOS O VENCIMENTO COBRAR 2% DE MULTA                                 NAO RECEBER APOS 30 DIAS DO VENCIMENTO.                                                                                                                                                                                                         06121800000000000000612180000000000000       0090339900006270921802121815000033
100000000000000000000009033990000627000000000000000000000000010002020022151612181400000000002            2  01221516121824121800000002330040000000001N061218000000000000000000000000000000000000000000000000000000000000000100022151666816SAMIR LIMA DE ARAUJO                    AVENIDA GUARAPIRANGA - 2616 AP.42 BLOCO1            04902005                                                            000035
2SR. CAIXA, APOS O VENCIMENTO COBRAR 2% DE MULTA                                 NAO RECEBER APOS 30 DIAS DO VENCIMENTO.                                                                                                                                                                                                         06121800000000000000612180000000000000       0090339900006270221516121814000036
100000000000000000000009033990000627000000000000000000000000010002020022313112181600000000002            2  01223131121826121800000001810260000000001N061218000000000000000000000000000000000000000000000000000000000000000100022313116824ROSA MARIA BRITO DA SILVA               RUA SERVIDAO DE SAO MARCOS - 113 - JARDI            04930300                                                            000038
2SR. CAIXA, APOS O VENCIMENTO COBRAR 2% DE MULTA                                 NAO RECEBER APOS 30 DIAS DO VENCIMENTO.                                                                                                                                                                                                         06121800000000000000612180000000000000       0090339900006270223131121816000039
100000000000000000000009033990000627000000000000000000000000010002020027538012181800000000002            2  01275380121826121800000009650420000000001N061218000000000000000000000000000000000000000000000000000000000000000100027538087249MARA LUCIA MENEZES DA COSTA             RUA LEILA  - 183 - ITAQUERA - SAO PAULO             08240020                                                            000041
2SR. CAIXA, APOS O VENCIMENTO COBRAR 2% DE MULTA                                 NAO RECEBER APOS 30 DIAS DO VENCIMENTO.                                                                                                                                                                                                         06121800000000000000612180000000000000       0090339900006270275380121818000042
100000000000000000000009033990000627000000000000000000000000010002020027538012182600000000002            2  01275380121826121800000001816570000000001N061218000000000000000000000000000000000000000000000000000000000000000100027538087249MARA LUCIA MENEZES DA COSTA             RUA LEILA  - 183 - ITAQUERA - SAO PAULO             08240020                                                            000044
2SR. CAIXA, APOS O VENCIMENTO COBRAR 2% DE MULTA                                 NAO RECEBER APOS 30 DIAS DO VENCIMENTO.                                                                                                                                                                                                         06121800000000000000612180000000000000       0090339900006270275380121826000045
100000000000000000000009033990000627000000000000000000000000010002020020105512181600000000002            2  01201055121826121800000001923090000000001N061218000000000000000000000000000000000000000000000000000000000000000100020105503827VALTER DE SOUSA LIBARINO FILHO          RUA DAS PAINEIRAS - 140 - LARANJEIRAS -             07700000                                                            000047
2SR. CAIXA, APOS O VENCIMENTO COBRAR 2% DE MULTA                                 NAO RECEBER APOS 30 DIAS DO VENCIMENTO.                                                                                                                                                                                                         06121800000000000000612180000000000000       0090339900006270201055121816000048
100000000000000000000009033990000627000000000000000000000000010002020031278412181400000000002            2  01312784121824121800000002250880000000001N061218000000000000000000000000000000000000000000000000000000000000000100031278411836JEFFERSON DE PIERI PIRES ZAMUNER        RUA MANOEL ARCE - 277 - PARQUE BANCARIO             03922150                                                            000050
2SR. CAIXA, APOS O VENCIMENTO COBRAR 2% DE MULTA                                 NAO RECEBER APOS 30 DIAS DO VENCIMENTO.                                                                                                                                                                                                         06121800000000000000612180000000000000       0090339900006270312784121814000051
100000000000000000000009033990000627000000000000000000000000010002020019185712181600000000002            2  01191857121826121800000001653100000000001N061218000000000000000000000000000000000000000000000000000000000000000100019185769800AGUINALDO PESSOA DE LIMA                RUA JANUARIO ZINGARO - 252 AP.303 BL.04             05794300                                                            000053
2SR. CAIXA, APOS O VENCIMENTO COBRAR 2% DE MULTA                                 NAO RECEBER APOS 30 DIAS DO VENCIMENTO.                                                                                                                                                                                                         06121800000000000000612180000000000000       0090339900006270191857121816000054
100000000000000000000009033990000627000000000000000000000000010002020033303612181700000000002            2  01333036121826121800000001780550000000001N061218000000000000000000000000000000000000000000000000000000000000000100033303645809JESSICA DA SILVA FREITAS                RUA ARILDO VALADAO - 120 - JARDIM GUAEMB            04814600                                                            000056
2SR. CAIXA, APOS O VENCIMENTO COBRAR 2% DE MULTA                                 NAO RECEBER APOS 30 DIAS DO VENCIMENTO.                                                                                                                                                                                                         06121800000000000000612180000000000000       0090339900006270333036121817000057
100000000000000000000009033990000627000000000000000000000000010002020004824412181600000000002            2  01048244121826121800000001794640000000001N061218000000000000000000000000000000000000000000000000000000000000000100004824443806ROSIMEIRE CLARA FERREIRA REZENDE        RUA JOAQUIM DE OLIVEIRA FREITAS - 912 AP            05133000                                                            000059
2SR. CAIXA, APOS O VENCIMENTO COBRAR 2% DE MULTA                                 NAO RECEBER APOS 30 DIAS DO VENCIMENTO.                                                                                                                                                                                                         06121800000000000000612180000000000000       0090339900006270048244121816000060
100000000000000000000009033990000627000000000000000000000000010002020006422612181200000000002            2  01064226121824121800000002437760000000001N061218000000000000000000000000000000000000000000000000000000000000000100006422607881GERALDO ALVES DA SILVA                  RUA ALFREDO JOREL - 195 AP.5 CONDOMINIO             04195020                                                            000062
2SR. CAIXA, APOS O VENCIMENTO COBRAR 2% DE MULTA                                 NAO RECEBER APOS 30 DIAS DO VENCIMENTO.                                                                                                                                                                                                         06121800000000000000612180000000000000       0090339900006270064226121812000063
100000000000000000000009033990000627000000000000000000000000010002020033877112181400000000002            2  01338771121826121800000001669320000000001N061218000000000000000000000000000000000000000000000000000000000000000100033877129870HELDER FERREIRA VIANA                   RUA TUPI - 254 - VILA TUPI - PRAIA GRAND            11703260                                                            000065
2SR. CAIXA, APOS O VENCIMENTO COBRAR 2% DE MULTA                                 NAO RECEBER APOS 30 DIAS DO VENCIMENTO.                                                                                                                                                                                                         06121800000000000000612180000000000000       0090339900006270338771121814000066
100000000000000000000009033990000627000000000000000000000000010002020028290712181800000000002            2  01282907121826121800000001538480000000001N061218000000000000000000000000000000000000000000000000000000000000000100028290719809VANESSA GIANGARRELLI PEREIRA            RUA BARINEL - 72 - JARDIM COTCHING - SAO            03462130                                                            000068
2SR. CAIXA, APOS O VENCIMENTO COBRAR 2% DE MULTA                                 NAO RECEBER APOS 30 DIAS DO VENCIMENTO.                                                                                                                                                                                                         06121800000000000000612180000000000000       0090339900006270282907121818000069
100000000000000000000009033990000627000000000000000000000000010002020087573012181300000000002            2  01875730121826121800000001680020000000001N061218000000000000000000000000000000000000000000000000000000000000000100087573059604VANDERLEY DE ASSIS                      RUA ROMEU ALBANI - 268 - JARDIM PARQUE R            13803810                                                            000071
2SR. CAIXA, APOS O VENCIMENTO COBRAR 2% DE MULTA                                 NAO RECEBER APOS 30 DIAS DO VENCIMENTO.                                                                                                                                                                                                         06121800000000000000612180000000000000       0090339900006270875730121813000072
100000000000000000000009033990000627000000000000000000000000010002020010825512181000000000002            2  01108255121826121800000001753200000000001N061218000000000000000000000000000000000000000000000000000000000000000100010825513847JOSE APARECIDO PEREIRA                  RUA GENERAL OSORIO - 305 - JARDIM TRINTA            11515130                                                            000074
2SR. CAIXA, APOS O VENCIMENTO COBRAR 2% DE MULTA                                 NAO RECEBER APOS 30 DIAS DO VENCIMENTO.                                                                                                                                                                                                         06121800000000000000612180000000000000       0090339900006270108255121810000075
100000000000000000000009033990000627000000000000000000000000010002020038818512181000000000002            2  01388185121826121800000002739390000000001N061218000000000000000000000000000000000000000000000000000000000000000100038818572814MAURICIUS ALEXANDRE ESTEVAM NABOR       RUA RAUL SERAPIAO BARROSO - 379 - ESPLAN            11340330                                                            000077
2SR. CAIXA, APOS O VENCIMENTO COBRAR 2% DE MULTA                                 NAO RECEBER APOS 30 DIAS DO VENCIMENTO.                                                                                                                                                                                                         06121800000000000000612180000000000000       0090339900006270388185121810000078
100000000000000000000009033990000627000000000000000000000000010002020039115112181200000000002            2  01391151121826121800000002161110000000001N061218000000000000000000000000000000000000000000000000000000000000000100039115139840LAIS CRISTINA RIBEIRO ANDO              RUA PERU - 769 AP.17 - VILA GUILHERMINA             11702250                                                            000080
2SR. CAIXA, APOS O VENCIMENTO COBRAR 2% DE MULTA                                 NAO RECEBER APOS 30 DIAS DO VENCIMENTO.                                                                                                                                                                                                         06121800000000000000612180000000000000       0090339900006270391151121812000081
100000000000000000000009033990000627000000000000000000000000010002020029617512181000000000002            2  01296175121824121800000002392740000000001N061218000000000000000000000000000000000000000000000000000000000000000100029617510553MARILENE SOUZA DE OLIVEIRA              AVENIDA BRASIL - 393 AP.09 - PARQUE DAS             09210280                                                            000083
2SR. CAIXA, APOS O VENCIMENTO COBRAR 2% DE MULTA                                 NAO RECEBER APOS 30 DIAS DO VENCIMENTO.                                                                                                                                                                                                         06121800000000000000612180000000000000       0090339900006270296175121810000084
100000000000000000000009033990000627000000000000000000000000010002020000593212181000000000002            2  01005932121824121800000002624250000000001N061218000000000000000000000000000000000000000000000000000000000000000100000593293860WALTER HELIO BARBOSA FILHO              AVENIDA ANTONIO FREDERICO OZANAN - 9500             13214206                                                            000086
2SR. CAIXA, APOS O VENCIMENTO COBRAR 2% DE MULTA                                 NAO RECEBER APOS 30 DIAS DO VENCIMENTO.                                                                                                                                                                                                         06121800000000000000612180000000000000       0090339900006270005932121810000087
100000000000000000000009033990000627000000000000000000000000010002020007730012181600000000002            2  01077300121824121800000003731940000000001N061218000000000000000000000000000000000000000000000000000000000000000100007730084899ARNALDO LUIZ VONO                       RUA CARLOS JOSE BORSTENS - 50 AP.122 - A            11702750                                                            000089
2SR. CAIXA, APOS O VENCIMENTO COBRAR 2% DE MULTA                                 NAO RECEBER APOS 30 DIAS DO VENCIMENTO.                                                                                                                                                                                                         06121800000000000000612180000000000000       0090339900006270077300121816000090
100000000000000000000009033990000627000000000000000000000000010002020065584112181200000000002            2  01655841121824121800000001377560000000001N061218000000000000000000000000000000000000000000000000000000000000000100065584147834JOAQUIM DA COSTA MACHADO NETO           RUA CARLOS JOSE BORSTENS - 50 AP.42 - AV            11702750                                                            000092
2SR. CAIXA, APOS O VENCIMENTO COBRAR 2% DE MULTA                                 NAO RECEBER APOS 30 DIAS DO VENCIMENTO.                                                                                                                                                                                                         06121800000000000000612180000000000000       0090339900006270655841121812000093
100000000000000000000009033990000627000000000000000000000000010002020065584112182000000000002            2  01655841121824121800000001377560000000001N061218000000000000000000000000000000000000000000000000000000000000000100065584147834JOAQUIM DA COSTA MACHADO NETO           RUA CARLOS JOSE BORSTENS - 50 AP.42 - AV            11702750                                                            000095
2SR. CAIXA, APOS O VENCIMENTO COBRAR 2% DE MULTA                                 NAO RECEBER APOS 30 DIAS DO VENCIMENTO.                                                                                                                                                                                                         06121800000000000000612180000000000000       0090339900006270655841121820000096
100000000000000000000009033990000627000000000000000000000000010002020001616912181400000000002            2  01016169121824121800000002422750000000001N061218000000000000000000000000000000000000000000000000000000000000000100001616913827CLAUDIO LUIZ PAULELLA                   PRACA NESTOR DOS SANTOS ARRUDA - 26 - VI            13920000                                                            000098
2SR. CAIXA, APOS O VENCIMENTO COBRAR 2% DE MULTA                                 NAO RECEBER APOS 30 DIAS DO VENCIMENTO.                                                                                                                                                                                                         06121800000000000000612180000000000000       0090339900006270016169121814000099
100000000000000000000009033990000627000000000000000000000000010002020006684612181500000000002            2  01066846121826121800000001780310000000001N061218000000000000000000000000000000000000000000000000000000000000000100006684623884LAUDINOR VIEIRA GARCIA                  RUA CANDIDO SALES - 374 - JARDIM PRESIDE            07172000                                                            000101
2SR. CAIXA, APOS O VENCIMENTO COBRAR 2% DE MULTA                                 NAO RECEBER APOS 30 DIAS DO VENCIMENTO.                                                                                                                                                                                                         06121800000000000000612180000000000000       0090339900006270066846121815000102
100000000000000000000009033990000627000000000000000000000000010002020006684612182300000000002            2  01066846121826121800000001780310000000001N061218000000000000000000000000000000000000000000000000000000000000000100006684623884LAUDINOR VIEIRA GARCIA                  RUA CANDIDO SALES - 374 - JARDIM PRESIDE            07172000                                                            000104
2SR. CAIXA, APOS O VENCIMENTO COBRAR 2% DE MULTA                                 NAO RECEBER APOS 30 DIAS DO VENCIMENTO.                                                                                                                                                                                                         06121800000000000000612180000000000000       0090339900006270066846121823000105
100000000000000000000009033990000627000000000000000000000000010002020011663512181600000000002            2  01116635121826121800000001793140000000001N061218000000000000000000000000000000000000000000000000000000000000000100011663589844MARIA SAVIO QUARELLO                    AVENIDA MENDONCA DRUMOND - 321 - JARDIM             03524030                                                            000107
2SR. CAIXA, APOS O VENCIMENTO COBRAR 2% DE MULTA                                 NAO RECEBER APOS 30 DIAS DO VENCIMENTO.                                                                                                                                                                                                         06121800000000000000612180000000000000       0090339900006270116635121816000108
100000000000000000000009033990000627000000000000000000000000010002020010083812181800000000002            2  01100838121826121800000001732460000000001N061218000000000000000000000000000000000000000000000000000000000000000100010083824855IONE FERREIRA COUTO DA SILVA            RUA JOSE RAGEL DE MESQUITA - 60 CS.01 -             07799999                                                            000110
2SR. CAIXA, APOS O VENCIMENTO COBRAR 2% DE MULTA                                 NAO RECEBER APOS 30 DIAS DO VENCIMENTO.                                                                                                                                                                                                         06121800000000000000612180000000000000       0090339900006270100838121818000111
100000000000000000000009033990000627000000000000000000000000010002020036881712181000000000002            2  01368817121826121800000001700120000000001N061218000000000000000000000000000000000000000000000000000000000000000100036881778864ANDRE GONZALEZ RABELLO                  RUA PARAIBA - 106 AP.61 - POMPEIA - SANT            11065470                                                            000113
2SR. CAIXA, APOS O VENCIMENTO COBRAR 2% DE MULTA                                 NAO RECEBER APOS 30 DIAS DO VENCIMENTO.                                                                                                                                                                                                         06121800000000000000612180000000000000       0090339900006270368817121810000114
100000000000000000000009033990000627000000000000000000000000010002020018207012181P00000000002            2  01182070121824121800000002320300000000001N061218000000000000000000000000000000000000000000000000000000000000000100018207096802ROBERTO VALENTE TAVARES                 RUA SEBASTIAO GOMES - 218 - JARDIM SANTO            13835000                                                            000116
2SR. CAIXA, APOS O VENCIMENTO COBRAR 2% DE MULTA                                 NAO RECEBER APOS 30 DIAS DO VENCIMENTO.                                                                                                                                                                                                         06121800000000000000612180000000000000       009033990000627018207012181P000117
100000000000000000000009033990000627000000000000000000000000010002020005351012181200000000002            2  01053510121826121800000001594030000000001N061218000000000000000000000000000000000000000000000000000000000000000100005351015897VALERIA ALVES MARCOLINO HINNIGER        RUA MONGOLIA - 230 AP.71 BL.4 - PARQUE N            09280220                                                            000119
2SR. CAIXA, APOS O VENCIMENTO COBRAR 2% DE MULTA                                 NAO RECEBER APOS 30 DIAS DO VENCIMENTO.                                                                                                                                                                                                         06121800000000000000612180000000000000       0090339900006270053510121812000120
100000000000000000000009033990000627000000000000000000000000010002020031898712181800000000002            2  01318987121824121800000002511000000000001N061218000000000000000000000000000000000000000000000000000000000000000100031898775800ANITA MARTINS COLOMBO                   RUA CARLOS JOSE BORSTENS - 50 AP.115 - A            11702750                                                            000122
2SR. CAIXA, APOS O VENCIMENTO COBRAR 2% DE MULTA                                 NAO RECEBER APOS 30 DIAS DO VENCIMENTO.                                                                                                                                                                                                         06121800000000000000612180000000000000       0090339900006270318987121818000123
100000000000000000000009033990000627000000000000000000000000010002020037983412181800000000002            2  01379834121826121800000001872470000000001N061218000000000000000000000000000000000000000000000000000000000000000100037983484801JOSE ERIVALDO SOUZA DO NASCIMENTO RAMOS RUA LETICIA - 250 - JARDIM GUARUJA - SAO            05877260                                                            000125
2SR. CAIXA, APOS O VENCIMENTO COBRAR 2% DE MULTA                                 NAO RECEBER APOS 30 DIAS DO VENCIMENTO.                                                                                                                                                                                                         06121800000000000000612180000000000000       0090339900006270379834121818000126
100000000000000000000009033990000627000000000000000000000000010002020056289212181900000000002            2  01562892121826121800000001414560000000001N061218000000000000000000000000000000000000000000000000000000000000000100056289286900PEDRO RIBEIRO                           RUA CONEGO MANOEL VAZ - 48 - SANTANA - S            02019050                                                            000128
2SR. CAIXA, APOS O VENCIMENTO COBRAR 2% DE MULTA                                 NAO RECEBER APOS 30 DIAS DO VENCIMENTO.                                                                                                                                                                                                         06121800000000000000612180000000000000       0090339900006270562892121819000129
100000000000000000000009033990000627000000000000000000000000010002020005025512181200000000002            2  01050255121826121800000002013050000000001N061218000000000000000000000000000000000000000000000000000000000000000100005025595860CONCEICAO APARECIDA DE MESQUITA PEREIRA RUA TRIUNFO - 835 AP.105 - JARDIM SAO LU            14020670                                                            000131
2SR. CAIXA, APOS O VENCIMENTO COBRAR 2% DE MULTA                                 NAO RECEBER APOS 30 DIAS DO VENCIMENTO.                                                                                                                                                                                                         06121800000000000000612180000000000000       0090339900006270050255121812000132
100000000000000000000009033990000627000000000000000000000000010002020034735312181500000000002            2  01347353121826121800000001941380000000001N061218000000000000000000000000000000000000000000000000000000000000000100034735328866DIEGO FELIPE MOLINA DA SILVA E SOUSA    RUA EMILIA PAULISTA - 135 - VILA TIRADEN            05364020                                                            000134
2SR. CAIXA, APOS O VENCIMENTO COBRAR 2% DE MULTA                                 NAO RECEBER APOS 30 DIAS DO VENCIMENTO.                                                                                                                                                                                                         06121800000000000000612180000000000000       0090339900006270347353121815000135
9                                                                                                                                                                                                                                                                                                                                                                                                         000136