01REMESSA01COBRANCA       00000000000008017025HB SANTOS CONSTRUTORA E INCORP237BRADESCO       010518        MX0000054                                                                                                                                                                                                                                                                                     000001
100000000000000000000009033990000627000000000000000000000000010002020029671505181700000000002            2  01296715051809051800000002246760000000001N010518000000000000000000000000000000000000000000000000000000000000000100029671526845ROGERIO CONSENTINO                      RUA CARLOS MAZER  - 678 - VILA CARMOSINA            08290700                                                            000002
2SR. CAIXA, APOS O VENCIMENTO COBRAR 2% DE MULTA                                 NAO RECEBER APOS 30 DIAS DO VENCIMENTO.                                                                                                                                                                                                         01051800000000000000105180000000000000       0090339900006270296715051817000003
100000000000000000000009033990000627000000000000000000000000010002020003863005181900000000002            2  01038630051809051800000002122240000000001N010518000000000000000000000000000000000000000000000000000000000000000100003863075803HERALDO MENQUINI                        RUA OCEANICA AMABILE - 346 AP.415 - CIDA            11704420                                                            000005
2SR. CAIXA, APOS O VENCIMENTO COBRAR 2% DE MULTA                                 NAO RECEBER APOS 30 DIAS DO VENCIMENTO.                                                                                                                                                                                                         01051800000000000000105180000000000000       0090339900006270038630051819000006
100000000000000000000009033990000627000000000000000000000000010002020013135205181000000000002            2  01131352051809051800000002595660000000001N010518000000000000000000000000000000000000000000000000000000000000000100013135261859EDUARDO ZANOLA                          RUA ROLANDO PIETRO BONINI - 46 - JARDIM             09781040                                                            000008
2SR. CAIXA, APOS O VENCIMENTO COBRAR 2% DE MULTA                                 NAO RECEBER APOS 30 DIAS DO VENCIMENTO.                                                                                                                                                                                                         01051800000000000000105180000000000000       0090339900006270131352051810000009
100000000000000000000009033990000627000000000000000000000000010002020029028405181600000000002            2  01290284051809051800000002174030000000001N010518000000000000000000000000000000000000000000000000000000000000000100029028478825LEONARDO LOUZADA                        RUA ILHEUS - QUADRA 31 - 244 - BAIRRO CE            19274000                                                            000011
2SR. CAIXA, APOS O VENCIMENTO COBRAR 2% DE MULTA                                 NAO RECEBER APOS 30 DIAS DO VENCIMENTO.                                                                                                                                                                                                         01051800000000000000105180000000000000       0090339900006270290284051816000012
100000000000000000000009033990000627000000000000000000000000010002020032878505181300000000002            2  01328785051809051800000003141910000000001N010518000000000000000000000000000000000000000000000000000000000000000100032878512847LEONARDO MOURA MONIZ CALDEIRA           RUA BALSA - 682 AP.134 T.02 - VILA ARCAD            02910000                                                            000014
2SR. CAIXA, APOS O VENCIMENTO COBRAR 2% DE MULTA                                 NAO RECEBER APOS 30 DIAS DO VENCIMENTO.                                                                                                                                                                                                         01051800000000000000105180000000000000       0090339900006270328785051813000015
100000000000000000000009033990000627000000000000000000000000010002020016479005181000000000002            2  01164790051809051800000003342410000000001N010518000000000000000000000000000000000000000000000000000000000000000100016479002806LOURDES PEREIRA DE QUEIROZ SECANECHIA   RUA PAULINO CURSI - 437 - CIDADE SAO MAT            03960060                                                            000017
2SR. CAIXA, APOS O VENCIMENTO COBRAR 2% DE MULTA                                 NAO RECEBER APOS 30 DIAS DO VENCIMENTO.                                                                                                                                                                                                         01051800000000000000105180000000000000       0090339900006270164790051810000018
100000000000000000000009033990000627000000000000000000000000010002020019635005181800000000002            2  01196350051809051800000002466120000000001N010518000000000000000000000000000000000000000000000000000000000000000100019635091885IVAN VIEIRA SILVA                       ABRAO JORGE - 3001 - JARDIM INTEGRACAO -            14405397                                                            000020
2SR. CAIXA, APOS O VENCIMENTO COBRAR 2% DE MULTA                                 NAO RECEBER APOS 30 DIAS DO VENCIMENTO.                                                                                                                                                                                                         01051800000000000000105180000000000000       0090339900006270196350051818000021
100000000000000000000009033990000627000000000000000000000000010002020009361405181800000000002            2  01093614051809051800000002426600000000001N010518000000000000000000000000000000000000000000000000000000000000000100009361471805JOSE BARBOSA DA SILVA                   RUA ALFREDO INACIO TRINDADE  - 60 AP.44             02344100                                                            000023
2SR. CAIXA, APOS O VENCIMENTO COBRAR 2% DE MULTA                                 NAO RECEBER APOS 30 DIAS DO VENCIMENTO.                                                                                                                                                                                                         01051800000000000000105180000000000000       0090339900006270093614051818000024
100000000000000000000009033990000627000000000000000000000000010002020012756905181100000000002            2  01127569051809051800000002094680000000001N010518000000000000000000000000000000000000000000000000000000000000000100012756959812ITAMAR JUVENAL DIAS DA SILVA            RUA ELISEU REINALDO MORAES VIEIRA - 90 A            02858000                                                            000026
2SR. CAIXA, APOS O VENCIMENTO COBRAR 2% DE MULTA                                 NAO RECEBER APOS 30 DIAS DO VENCIMENTO.                                                                                                                                                                                                         01051800000000000000105180000000000000       0090339900006270127569051811000027
100000000000000000000009033990000627000000000000000000000000010002020002731005181900000000002            2  01027310051809051800000002476490000000001N010518000000000000000000000000000000000000000000000000000000000000000100002731042842VALTER CERQUEIRA VILLA NOVA             RUA MACHADO - 106 - VILA AUGUSTA - GUARU            07025210                                                            000029
2SR. CAIXA, APOS O VENCIMENTO COBRAR 2% DE MULTA                                 NAO RECEBER APOS 30 DIAS DO VENCIMENTO.                                                                                                                                                                                                         01051800000000000000105180000000000000       0090339900006270027310051819000030
100000000000000000000009033990000627000000000000000000000000010002020002731005182700000000002            2  01027310051809051800000002476490000000001N010518000000000000000000000000000000000000000000000000000000000000000100002731042842VALTER CERQUEIRA VILLA NOVA             RUA MACHADO - 106 - VILA AUGUSTA - GUARU            07025210                                                            000032
2SR. CAIXA, APOS O VENCIMENTO COBRAR 2% DE MULTA                                 NAO RECEBER APOS 30 DIAS DO VENCIMENTO.                                                                                                                                                                                                         01051800000000000000105180000000000000       0090339900006270027310051827000033
100000000000000000000009033990000627000000000000000000000000010002020028802105181700000000002            2  01288021051809051800000002236230000000001N010518000000000000000000000000000000000000000000000000000000000000000100028802158894ELIEL HENRIQUE ZUZA                     RUA CARLOS JOSE BORSTENS - 50 AP.43 - BA            11702750                                                            000035
2SR. CAIXA, APOS O VENCIMENTO COBRAR 2% DE MULTA                                 NAO RECEBER APOS 30 DIAS DO VENCIMENTO.                                                                                                                                                                                                         01051800000000000000105180000000000000       0090339900006270288021051817000036
100000000000000000000009033990000627000000000000000000000000010002020008739105181000000000002            2  01087391051809051800000002091430000000001N010518000000000000000000000000000000000000000000000000000000000000000100008739150895VANGEVALDO BATISTA SANT ANNA            TRAVESSA TOMAZIN - 02 - ERMELINO MATARAZ            03811125                                                            000038
2SR. CAIXA, APOS O VENCIMENTO COBRAR 2% DE MULTA                                 NAO RECEBER APOS 30 DIAS DO VENCIMENTO.                                                                                                                                                                                                         01051800000000000000105180000000000000       0090339900006270087391051810000039
100000000000000000000009033990000627000000000000000000000000010002020005313705181700000000002            2  01053137051811051800000001857700000000001N010518000000000000000000000000000000000000000000000000000000000000000100005313717863EDIMICIO JOSE DE ARAUJO                 PRACA NICOLAU GERAIGIRE - 680 CA A - JAR            11095110                                                            000041
2SR. CAIXA, APOS O VENCIMENTO COBRAR 2% DE MULTA                                 NAO RECEBER APOS 30 DIAS DO VENCIMENTO.                                                                                                                                                                                                         01051800000000000000105180000000000000       0090339900006270053137051817000042
100000000000000000000009033990000627000000000000000000000000010002020029433605181500000000002            2  01294336051811051800000001784610000000001N010518000000000000000000000000000000000000000000000000000000000000000100029433631897MARIO MUNIZ                             RUA LIBERO BADARO - 1115 - BAIRRO CIDADE            11704070                                                            000044
2SR. CAIXA, APOS O VENCIMENTO COBRAR 2% DE MULTA                                 NAO RECEBER APOS 30 DIAS DO VENCIMENTO.                                                                                                                                                                                                         01051800000000000000105180000000000000       0090339900006270294336051815000045
100000000000000000000009033990000627000000000000000000000000010002020001847205181300000000002            2  01018472051811051800000001642970000000001N010518000000000000000000000000000000000000000000000000000000000000000100001847204864AMERICA CONCEICAO DA SILVA              RUA CAMINHO DO GUARAMAR - 199 AP.11 BLOC            11721050                                                            000047
2SR. CAIXA, APOS O VENCIMENTO COBRAR 2% DE MULTA                                 NAO RECEBER APOS 30 DIAS DO VENCIMENTO.                                                                                                                                                                                                         01051800000000000000105180000000000000       0090339900006270018472051813000048
100000000000000000000009033990000627000000000000000000000000010002020005029805181800000000002            2  01050298051809051800000002135670000000001N010518000000000000000000000000000000000000000000000000000000000000000100005029828885LAURINETE DA CONCEICAO DE NORONHA       RUA MARIA LUCIA DE TOLEDO LEITE MORAES -            04434040                                                            000050
2SR. CAIXA, APOS O VENCIMENTO COBRAR 2% DE MULTA                                 NAO RECEBER APOS 30 DIAS DO VENCIMENTO.                                                                                                                                                                                                         01051800000000000000105180000000000000       0090339900006270050298051818000051
100000000000000000000009033990000627000000000000000000000000010002020027682105181700000000002            2  01276821051811051800000001732050000000001N010518000000000000000000000000000000000000000000000000000000000000000100027682175818ALINE TEIXEIRA                          RUA CRUZEIRO DO SUL - 309 - JARDIM BOM P            06385060                                                            000053
2SR. CAIXA, APOS O VENCIMENTO COBRAR 2% DE MULTA                                 NAO RECEBER APOS 30 DIAS DO VENCIMENTO.                                                                                                                                                                                                         01051800000000000000105180000000000000       0090339900006270276821051817000054
100000000000000000000009033990000627000000000000000000000000010002020013388905181P00000000002            2  01133889051811051800000001739730000000001N010518000000000000000000000000000000000000000000000000000000000000000100013388936889NEUTON DE SOUZA RAMOS                   RUA MARIA CRISTINA - 932 - JARDIM CASQUE            11533160                                                            000056
2SR. CAIXA, APOS O VENCIMENTO COBRAR 2% DE MULTA                                 NAO RECEBER APOS 30 DIAS DO VENCIMENTO.                                                                                                                                                                                                         01051800000000000000105180000000000000       009033990000627013388905181P000057
100000000000000000000009033990000627000000000000000000000000010002020012774905181P00000000002            2  01127749051811051800000001772370000000001N010518000000000000000000000000000000000000000000000000000000000000000100012774906865JOSE MILTON SANTIAGO                    RUA BATATAIS - 47 - CIDADE ESTELA - POA             08563140                                                            000059
2SR. CAIXA, APOS O VENCIMENTO COBRAR 2% DE MULTA                                 NAO RECEBER APOS 30 DIAS DO VENCIMENTO.                                                                                                                                                                                                         01051800000000000000105180000000000000       009033990000627012774905181P000060
100000000000000000000009033990000627000000000000000000000000010002020004234905181500000000002            2  01042349051809051800000003112210000000001N010518000000000000000000000000000000000000000000000000000000000000000100004234989835LUIZ ISRAEL DA COSTA                    AVENIDA FERNANDO PACHECO JORDAO - 907 -             08121510                                                            000062
2SR. CAIXA, APOS O VENCIMENTO COBRAR 2% DE MULTA                                 NAO RECEBER APOS 30 DIAS DO VENCIMENTO.                                                                                                                                                                                                         01051800000000000000105180000000000000       0090339900006270042349051815000063
100000000000000000000009033990000627000000000000000000000000010002020016294105181500000000002            2  01162941051809051800000002120350000000001N010518000000000000000000000000000000000000000000000000000000000000000100016294119812JURACY FELIX DE ARRUDA                  RUA ERNA - 13 - ALTO DA MOOCA - SAO PAUL            03165050                                                            000065
2SR. CAIXA, APOS O VENCIMENTO COBRAR 2% DE MULTA                                 NAO RECEBER APOS 30 DIAS DO VENCIMENTO.                                                                                                                                                                                                         01051800000000000000105180000000000000       0090339900006270162941051815000066
100000000000000000000009033990000627000000000000000000000000010002020005613805181P00000000002            2  01056138051811051800000001630110000000001N010518000000000000000000000000000000000000000000000000000000000000000100005613843805NILZA MARIA DE OLIVEIRA                 RUA JOSE GONCALVES DE FREITAS - 66 C2 -             08210550                                                            000068
2SR. CAIXA, APOS O VENCIMENTO COBRAR 2% DE MULTA                                 NAO RECEBER APOS 30 DIAS DO VENCIMENTO.                                                                                                                                                                                                         01051800000000000000105180000000000000       009033990000627005613805181P000069
100000000000000000000009033990000627000000000000000000000000010002020007574905181P00000000002            2  01075749051811051800000001673260000000001N010518000000000000000000000000000000000000000000000000000000000000000100007574936889JORGE LUCIANO PEREIRA BORRIELLO         RUA FABIO DE ALMEIDA MAGALHAES - 179 - J            05135370                                                            000071
2SR. CAIXA, APOS O VENCIMENTO COBRAR 2% DE MULTA                                 NAO RECEBER APOS 30 DIAS DO VENCIMENTO.                                                                                                                                                                                                         01051800000000000000105180000000000000       009033990000627007574905181P000072
100000000000000000000009033990000627000000000000000000000000010002020032408105181200000000002            2  01324081051811051800000001577530000000001N010518000000000000000000000000000000000000000000000000000000000000000100032408151848DEILSON DO NASCIMENTO CANDIDO DA SILVA  RUA HEREMITA SANTA DO NASCIMENTO - 37 AP            11345340                                                            000074
2SR. CAIXA, APOS O VENCIMENTO COBRAR 2% DE MULTA                                 NAO RECEBER APOS 30 DIAS DO VENCIMENTO.                                                                                                                                                                                                         01051800000000000000105180000000000000       0090339900006270324081051812000075
100000000000000000000009033990000627000000000000000000000000010002020008214905181200000000002            2  01082149051811051800000001698660000000001N010518000000000000000000000000000000000000000000000000000000000000000100008214973830JAMIL CHALA                             AVENIDA COSTA MACHADO - 291 AP.133-A - C            11700650                                                            000077
2SR. CAIXA, APOS O VENCIMENTO COBRAR 2% DE MULTA                                 NAO RECEBER APOS 30 DIAS DO VENCIMENTO.                                                                                                                                                                                                         01051800000000000000105180000000000000       0090339900006270082149051812000078
100000000000000000000009033990000627000000000000000000000000010002020032495005181P00000000002            2  01324950051811051800000001903560000000001N010518000000000000000000000000000000000000000000000000000000000000000100032495004881PAULO EDUARDO DOS SANTOS                RUA REPUBLICA DO IRAQUE - 1119 - CAMPO B            04611002                                                            000080
2SR. CAIXA, APOS O VENCIMENTO COBRAR 2% DE MULTA                                 NAO RECEBER APOS 30 DIAS DO VENCIMENTO.                                                                                                                                                                                                         01051800000000000000105180000000000000       009033990000627032495005181P000081
100000000000000000000009033990000627000000000000000000000000010002020006471805181P00000000002            2  01064718051809051800000002087540000000001N010518000000000000000000000000000000000000000000000000000000000000000100006471825803JOSIVALDO BASTOS DE OLIVEIRA            RUA MARIA DIAS HOG - 263 - PARQUE CONTIN            07085035                                                            000083
2SR. CAIXA, APOS O VENCIMENTO COBRAR 2% DE MULTA                                 NAO RECEBER APOS 30 DIAS DO VENCIMENTO.                                                                                                                                                                                                         01051800000000000000105180000000000000       009033990000627006471805181P000084
100000000000000000000009033990000627000000000000000000000000010002020038856805181600000000002            2  01388568051811051800000001764650000000001N010518000000000000000000000000000000000000000000000000000000000000000100038856851830FELIPE BIANCHI DA COSTA FREITAS         AVENIDA ENGENHEIRO ARMANDO DE ARRUDA PER            04325001                                                            000086
2SR. CAIXA, APOS O VENCIMENTO COBRAR 2% DE MULTA                                 NAO RECEBER APOS 30 DIAS DO VENCIMENTO.                                                                                                                                                                                                         01051800000000000000105180000000000000       0090339900006270388568051816000087
100000000000000000000009033990000627000000000000000000000000010002020016498005181700000000002            2  01164980051811051800000001669460000000001N010518000000000000000000000000000000000000000000000000000000000000000100016498053810GILMA CEZARIO GARCIA CORRITORI          RUA LAURENTINO XAVIER DOS SANTOS - 336 -            08240740                                                            000089
2SR. CAIXA, APOS O VENCIMENTO COBRAR 2% DE MULTA                                 NAO RECEBER APOS 30 DIAS DO VENCIMENTO.                                                                                                                                                                                                         01051800000000000000105180000000000000       0090339900006270164980051817000090
100000000000000000000009033990000627000000000000000000000000010002020030098605181P00000000002            2  01300986051811051800000001792320000000001N010518000000000000000000000000000000000000000000000000000000000000000100030098603825DEUZIANA MOREIRA DE SA                  RUA JOAO AVELINO PINHO MELLAO - 114 - JA            05659010                                                            000092
2SR. CAIXA, APOS O VENCIMENTO COBRAR 2% DE MULTA                                 NAO RECEBER APOS 30 DIAS DO VENCIMENTO.                                                                                                                                                                                                         01051800000000000000105180000000000000       009033990000627030098605181P000093
100000000000000000000009033990000627000000000000000000000000010002020030098605182800000000002            2  01300986051811051800000001792320000000001N010518000000000000000000000000000000000000000000000000000000000000000100030098603825DEUZIANA MOREIRA DE SA                  RUA JOAO AVELINO PINHO MELLAO - 114 - JA            05659010                                                            000095
2SR. CAIXA, APOS O VENCIMENTO COBRAR 2% DE MULTA                                 NAO RECEBER APOS 30 DIAS DO VENCIMENTO.                                                                                                                                                                                                         01051800000000000000105180000000000000       0090339900006270300986051828000096
100000000000000000000009033990000627000000000000000000000000010002020029339005181600000000002            2  01293390051811051800000001785210000000001N010518000000000000000000000000000000000000000000000000000000000000000100029339051831RONALD DIDOFF                           RUA CORONEL FERREIRA BRAGA - 188 - VILA             03522010                                                            000098
2SR. CAIXA, APOS O VENCIMENTO COBRAR 2% DE MULTA                                 NAO RECEBER APOS 30 DIAS DO VENCIMENTO.                                                                                                                                                                                                         01051800000000000000105180000000000000       0090339900006270293390051816000099
100000000000000000000009033990000627000000000000000000000000010002020017357805181800000000002            2  01173578051811051800000001890700000000001N010518000000000000000000000000000000000000000000000000000000000000000100017357859894MARCIO GUIMARAES                        RUA GENERAL CAMARA - 188 SALA 11 - CENTR            11010120                                                            000101
2SR. CAIXA, APOS O VENCIMENTO COBRAR 2% DE MULTA                                 NAO RECEBER APOS 30 DIAS DO VENCIMENTO.                                                                                                                                                                                                         01051800000000000000105180000000000000       0090339900006270173578051818000102
100000000000000000000009033990000627000000000000000000000000010002020010563005181800000000002            2  01105630051811051800000001939030000000001N010518000000000000000000000000000000000000000000000000000000000000000100010563033878VERA LUCIA RIBEIRO LONGANEZI            RUA DOS CAMARES - 150 AP.24 BL.02 - CARA            02068030                                                            000104
2SR. CAIXA, APOS O VENCIMENTO COBRAR 2% DE MULTA                                 NAO RECEBER APOS 30 DIAS DO VENCIMENTO.                                                                                                                                                                                                         01051800000000000000105180000000000000       0090339900006270105630051818000105
100000000000000000000009033990000627000000000000000000000000010002020005529605181200000000002            2  01055296051811051800000001759580000000001N010518000000000000000000000000000000000000000000000000000000000000000100005529616801JOAQUIM JORGE DA COSTA                  RUA CONEGO XAVIER - 13 - SACOMA - SAO PA            04231030                                                            000107
2SR. CAIXA, APOS O VENCIMENTO COBRAR 2% DE MULTA                                 NAO RECEBER APOS 30 DIAS DO VENCIMENTO.                                                                                                                                                                                                         01051800000000000000105180000000000000       0090339900006270055296051812000108
100000000000000000000009033990000627000000000000000000000000010002020022014105181700000000002            2  01220141051811051800000001754470000000001N010518000000000000000000000000000000000000000000000000000000000000000100022014140847CAMILA SILVEIRA CANIZARES               AVENIDA PRESIDENTE CASTELO BRANCO - 5.74            11703650                                                            000110
2SR. CAIXA, APOS O VENCIMENTO COBRAR 2% DE MULTA                                 NAO RECEBER APOS 30 DIAS DO VENCIMENTO.                                                                                                                                                                                                         01051800000000000000105180000000000000       0090339900006270220141051817000111
100000000000000000000009033990000627000000000000000000000000010002020015550705181900000000002            2  01155507051809051800000001618830000000001N010518000000000000000000000000000000000000000000000000000000000000000100015550706806MARY MIWA                               AVENIDA AFONSO PENA - 283 AP.33 - MACUCO            11020001                                                            000113
2SR. CAIXA, APOS O VENCIMENTO COBRAR 2% DE MULTA                                 NAO RECEBER APOS 30 DIAS DO VENCIMENTO.                                                                                                                                                                                                         01051800000000000000105180000000000000       0090339900006270155507051819000114
100000000000000000000009033990000627000000000000000000000000010002020015464605181900000000002            2  01154646051811051800000001849740000000001N010518000000000000000000000000000000000000000000000000000000000000000100015464647864SONIA TERESA VOLPATO                    RUA PEDRO BADRA - 51 AP.73 - JABAQUARA -            04348090                                                            000116
2SR. CAIXA, APOS O VENCIMENTO COBRAR 2% DE MULTA                                 NAO RECEBER APOS 30 DIAS DO VENCIMENTO.                                                                                                                                                                                                         01051800000000000000105180000000000000       0090339900006270154646051819000117
100000000000000000000009033990000627000000000000000000000000010002020008657805181800000000002            2  01086578051811051800000001831180000000001N010518000000000000000000000000000000000000000000000000000000000000000100008657886855ARLINDO DA CRUZ                         AVENIDA ARICANDUVA - 8.256 AP.54 BL.10 -            03951220                                                            000119
2SR. CAIXA, APOS O VENCIMENTO COBRAR 2% DE MULTA                                 NAO RECEBER APOS 30 DIAS DO VENCIMENTO.                                                                                                                                                                                                         01051800000000000000105180000000000000       0090339900006270086578051818000120
100000000000000000000009033990000627000000000000000000000000010002020004265705181800000000002            2  01042657051809051800000002385310000000001N010518000000000000000000000000000000000000000000000000000000000000000100004265781713ALEXANDRE CASADO COSTA                  RUA CARLOS JOSE BORSTENS - 50 AP.33 - AV            11702750                                                            000122
2SR. CAIXA, APOS O VENCIMENTO COBRAR 2% DE MULTA                                 NAO RECEBER APOS 30 DIAS DO VENCIMENTO.                                                                                                                                                                                                         01051800000000000000105180000000000000       0090339900006270042657051818000123
100000000000000000000009033990000627000000000000000000000000010002020059735105181600000000002            2  01597351051809051800000001007500000000001N010518000000000000000000000000000000000000000000000000000000000000000100059735180863HELIO JOSE MARQUES                      RUA MARTIM AFONSO DE SOUZA - 1007 AP.102            11702790                                                            000125
2SR. CAIXA, APOS O VENCIMENTO COBRAR 2% DE MULTA                                 NAO RECEBER APOS 30 DIAS DO VENCIMENTO.                                                                                                                                                                                                         01051800000000000000105180000000000000       0090339900006270597351051816000126
100000000000000000000009033990000627000000000000000000000000010002020026347805181P00000000002            2  01263478051811051800000001957480000000001N010518000000000000000000000000000000000000000000000000000000000000000100026347872862VALDECI SILVA MEIRELES                  RUA JOSE BATISTA DA SILVA - 292 - JARDIM            06851470                                                            000128
2SR. CAIXA, APOS O VENCIMENTO COBRAR 2% DE MULTA                                 NAO RECEBER APOS 30 DIAS DO VENCIMENTO.                                                                                                                                                                                                         01051800000000000000105180000000000000       009033990000627026347805181P000129
9                                                                                                                                                                                                                                                                                                                                                                                                         000130