01REMESSA01COBRANCA       00000000000008017025HB SANTOS CONSTRUTORA E INCORP237BRADESCO       010819        MX0000084                                                                                                                                                                                                                                                                                     000001
100000000000000000000009033990000627000000000000000000000000010002020029671508191000000000002            2  01296715081909081900000002513220000000001N010819000000000000000000000000000000000000000000000000000000000000000100029671526845ROGERIO CONSENTINO                      RUA CARLOS MAZER  - 678 - VILA CARMOSINA            08290700                                                            000002
2SR. CAIXA, APOS O VENCIMENTO COBRAR 2% DE MULTA                                 NAO RECEBER APOS 30 DIAS DO VENCIMENTO.                                                                                                                                                                                                         01081900000000000000108190000000000000       0090339900006270296715081910000003
100000000000000000000009033990000627000000000000000000000000010002020003863008191200000000002            2  01038630081909081900000002373950000000001N010819000000000000000000000000000000000000000000000000000000000000000100003863075803HERALDO MENQUINI                        RUA CARLOS JOSE BORSTENS - 50 AP.15 - AV            11702750                                                            000005
2SR. CAIXA, APOS O VENCIMENTO COBRAR 2% DE MULTA                                 NAO RECEBER APOS 30 DIAS DO VENCIMENTO.                                                                                                                                                                                                         01081900000000000000108190000000000000       0090339900006270038630081912000006
100000000000000000000009033990000627000000000000000000000000010002020029028408191P00000000002            2  01290284081909081900000002431870000000001N010819000000000000000000000000000000000000000000000000000000000000000100029028478825LEONARDO LOUZADA                        RUA CARLOS JOSE BORSTENS - 50 AP.35 - AV            11702750                                                            000008
2SR. CAIXA, APOS O VENCIMENTO COBRAR 2% DE MULTA                                 NAO RECEBER APOS 30 DIAS DO VENCIMENTO.                                                                                                                                                                                                         01081900000000000000108190000000000000       009033990000627029028408191P000009
100000000000000000000009033990000627000000000000000000000000010002020032878508191700000000002            2  01328785081909081900000003514530000000001N010819000000000000000000000000000000000000000000000000000000000000000100032878512847LEONARDO MOURA MONIZ CALDEIRA           RUA BALSA - 682 AP.134 T.02 - VILA ARCAD            02910000                                                            000011
2SR. CAIXA, APOS O VENCIMENTO COBRAR 2% DE MULTA                                 NAO RECEBER APOS 30 DIAS DO VENCIMENTO.                                                                                                                                                                                                         01081900000000000000108190000000000000       0090339900006270328785081917000012
100000000000000000000009033990000627000000000000000000000000010002020016479008191400000000002            2  01164790081909081900000003738840000000001N010819000000000000000000000000000000000000000000000000000000000000000100016479002806LOURDES PEREIRA DE QUEIROZ SECANECHIA   RUA PAULINO CURSI - 437 - CIDADE SAO MAT            03960060                                                            000014
2SR. CAIXA, APOS O VENCIMENTO COBRAR 2% DE MULTA                                 NAO RECEBER APOS 30 DIAS DO VENCIMENTO.                                                                                                                                                                                                         01081900000000000000108190000000000000       0090339900006270164790081914000015
100000000000000000000009033990000627000000000000000000000000010002020019635008191100000000002            2  01196350081909081900000002758610000000001N010819000000000000000000000000000000000000000000000000000000000000000100019635091885IVAN VIEIRA SILVA                       ABRAO JORGE - 3001 - JARDIM INTEGRACAO -            14405397                                                            000017
2SR. CAIXA, APOS O VENCIMENTO COBRAR 2% DE MULTA                                 NAO RECEBER APOS 30 DIAS DO VENCIMENTO.                                                                                                                                                                                                         01081900000000000000108190000000000000       0090339900006270196350081911000018
100000000000000000000009033990000627000000000000000000000000010002020009361408191100000000002            2  01093614081909081900000002714410000000001N010819000000000000000000000000000000000000000000000000000000000000000100009361471805JOSE BARBOSA DA SILVA                   RUA ALFREDO INACIO TRINDADE  - 60 AP.44             02344100                                                            000020
2SR. CAIXA, APOS O VENCIMENTO COBRAR 2% DE MULTA                                 NAO RECEBER APOS 30 DIAS DO VENCIMENTO.                                                                                                                                                                                                         01081900000000000000108190000000000000       0090339900006270093614081911000021
100000000000000000000009033990000627000000000000000000000000010002020012756908191500000000002            2  01127569081909081900000002343120000000001N010819000000000000000000000000000000000000000000000000000000000000000100012756959812ITAMAR JUVENAL DIAS DA SILVA            RUA ELISEU REINALDO MORAES VIEIRA - 90 A            02858000                                                            000023
2SR. CAIXA, APOS O VENCIMENTO COBRAR 2% DE MULTA                                 NAO RECEBER APOS 30 DIAS DO VENCIMENTO.                                                                                                                                                                                                         01081900000000000000108190000000000000       0090339900006270127569081915000024
100000000000000000000009033990000627000000000000000000000000010002020002731008191200000000002            2  01027310081909081900000002770200000000001N010819000000000000000000000000000000000000000000000000000000000000000100002731042842VALTER CERQUEIRA VILLA NOVA             RUA MACHADO - 106 - VILA AUGUSTA - GUARU            07025210                                                            000026
2SR. CAIXA, APOS O VENCIMENTO COBRAR 2% DE MULTA                                 NAO RECEBER APOS 30 DIAS DO VENCIMENTO.                                                                                                                                                                                                         01081900000000000000108190000000000000       0090339900006270027310081912000027
100000000000000000000009033990000627000000000000000000000000010002020002731008192000000000002            2  01027310081909081900000002770070000000001N010819000000000000000000000000000000000000000000000000000000000000000100002731042842VALTER CERQUEIRA VILLA NOVA             RUA MACHADO - 106 - VILA AUGUSTA - GUARU            07025210                                                            000029
2SR. CAIXA, APOS O VENCIMENTO COBRAR 2% DE MULTA                                 NAO RECEBER APOS 30 DIAS DO VENCIMENTO.                                                                                                                                                                                                         01081900000000000000108190000000000000       0090339900006270027310081920000030
100000000000000000000009033990000627000000000000000000000000010002020028802108191000000000002            2  01288021081909081900000002501430000000001N010819000000000000000000000000000000000000000000000000000000000000000100028802158894ELIEL HENRIQUE ZUZA                     RUA CARLOS JOSE BORSTENS - 50 AP.43 - BA            11702750                                                            000032
2SR. CAIXA, APOS O VENCIMENTO COBRAR 2% DE MULTA                                 NAO RECEBER APOS 30 DIAS DO VENCIMENTO.                                                                                                                                                                                                         01081900000000000000108190000000000000       0090339900006270288021081910000033
100000000000000000000009033990000627000000000000000000000000010002020008739108191400000000002            2  01087391081909081900000002339480000000001N010819000000000000000000000000000000000000000000000000000000000000000100008739150895VANGEVALDO BATISTA SANT ANNA            TRAVESSA TOMAZIN - 02 - ERMELINO MATARAZ            03811125                                                            000035
2SR. CAIXA, APOS O VENCIMENTO COBRAR 2% DE MULTA                                 NAO RECEBER APOS 30 DIAS DO VENCIMENTO.                                                                                                                                                                                                         01081900000000000000108190000000000000       0090339900006270087391081914000036
100000000000000000000009033990000627000000000000000000000000010002020005313708191000000000002            2  01053137081911081900000002022000000000001N010819000000000000000000000000000000000000000000000000000000000000000100005313717863EDIMICIO JOSE DE ARAUJO                 PRACA NICOLAU GERAIGIRE - 680 CA A - JAR            11095110                                                            000038
2SR. CAIXA, APOS O VENCIMENTO COBRAR 2% DE MULTA                                 NAO RECEBER APOS 30 DIAS DO VENCIMENTO.                                                                                                                                                                                                         01081900000000000000108190000000000000       0090339900006270053137081910000039
100000000000000000000009033990000627000000000000000000000000010002020029433608191900000000002            2  01294336081911081900000001942450000000001N010819000000000000000000000000000000000000000000000000000000000000000100029433631897MARIO MUNIZ                             RUA JOSE CALIXTO DO CARMO - 286 AP.53 -             11702690                                                            000041
2SR. CAIXA, APOS O VENCIMENTO COBRAR 2% DE MULTA                                 NAO RECEBER APOS 30 DIAS DO VENCIMENTO.                                                                                                                                                                                                         01081900000000000000108190000000000000       0090339900006270294336081919000042
100000000000000000000009033990000627000000000000000000000000010002020001847208191700000000002            2  01018472081911081900000001788270000000001N010819000000000000000000000000000000000000000000000000000000000000000100001847204864AMERICA CONCEICAO DA SILVA              RUA CAMINHO DO GUARAMAR - 199 AP.11 BLOC            11721050                                                            000044
2SR. CAIXA, APOS O VENCIMENTO COBRAR 2% DE MULTA                                 NAO RECEBER APOS 30 DIAS DO VENCIMENTO.                                                                                                                                                                                                         01081900000000000000108190000000000000       0090339900006270018472081917000045
100000000000000000000009033990000627000000000000000000000000010002020005029808191100000000002            2  01050298081909081900000002388960000000001N010819000000000000000000000000000000000000000000000000000000000000000100005029828885LAURINETE DA CONCEICAO DE NORONHA       RUA MARIA LUCIA DE TOLEDO LEITE MORAES -            04434040                                                            000047
2SR. CAIXA, APOS O VENCIMENTO COBRAR 2% DE MULTA                                 NAO RECEBER APOS 30 DIAS DO VENCIMENTO.                                                                                                                                                                                                         01081900000000000000108190000000000000       0090339900006270050298081911000048
100000000000000000000009033990000627000000000000000000000000010002020027682108191000000000002            2  01276821081911081900000001885230000000001N010819000000000000000000000000000000000000000000000000000000000000000100027682175818ALINE TEIXEIRA                          RUA CRUZEIRO DO SUL - 309 - JARDIM BOM P            06385060                                                            000050
2SR. CAIXA, APOS O VENCIMENTO COBRAR 2% DE MULTA                                 NAO RECEBER APOS 30 DIAS DO VENCIMENTO.                                                                                                                                                                                                         01081900000000000000108190000000000000       0090339900006270276821081910000051
100000000000000000000009033990000627000000000000000000000000010002020013388908191300000000002            2  01133889081911081900000001893600000000001N010819000000000000000000000000000000000000000000000000000000000000000100013388936889NEUTON DE SOUZA RAMOS                   RUA MARIA CRISTINA - 932 - JARDIM CASQUE            11533160                                                            000053
2SR. CAIXA, APOS O VENCIMENTO COBRAR 2% DE MULTA                                 NAO RECEBER APOS 30 DIAS DO VENCIMENTO.                                                                                                                                                                                                         01081900000000000000108190000000000000       0090339900006270133889081913000054
100000000000000000000009033990000627000000000000000000000000010002020012774908191300000000002            2  01127749081911081900000001929140000000001N010819000000000000000000000000000000000000000000000000000000000000000100012774906865JOSE MILTON SANTIAGO                    RUA BATATAIS - 47 - CIDADE ESTELA - POA             08563140                                                            000056
2SR. CAIXA, APOS O VENCIMENTO COBRAR 2% DE MULTA                                 NAO RECEBER APOS 30 DIAS DO VENCIMENTO.                                                                                                                                                                                                         01081900000000000000108190000000000000       0090339900006270127749081913000057
100000000000000000000009033990000627000000000000000000000000010002020016294108191900000000002            2  01162941081909081900000002371820000000001N010819000000000000000000000000000000000000000000000000000000000000000100016294119812JURACY FELIX DE ARRUDA                  RUA CARLOS JOSE BORSTENS - 50 AP.23 - AV            11702750                                                            000059
2SR. CAIXA, APOS O VENCIMENTO COBRAR 2% DE MULTA                                 NAO RECEBER APOS 30 DIAS DO VENCIMENTO.                                                                                                                                                                                                         01081900000000000000108190000000000000       0090339900006270162941081919000060
100000000000000000000009033990000627000000000000000000000000010002020005613808191300000000002            2  01056138081911081900000001774280000000001N010819000000000000000000000000000000000000000000000000000000000000000100005613843805NILZA MARIA DE OLIVEIRA                 RUA JOSE GONCALVES DE FREITAS - 66 C2 -             08210550                                                            000062
2SR. CAIXA, APOS O VENCIMENTO COBRAR 2% DE MULTA                                 NAO RECEBER APOS 30 DIAS DO VENCIMENTO.                                                                                                                                                                                                         01081900000000000000108190000000000000       0090339900006270056138081913000063
100000000000000000000009033990000627000000000000000000000000010002020007574908191300000000002            2  01075749081911081900000001821260000000001N010819000000000000000000000000000000000000000000000000000000000000000100007574936889JORGE LUCIANO PEREIRA BORRIELLO         RUA FABIO DE ALMEIDA MAGALHAES - 179 - J            05135370                                                            000065
2SR. CAIXA, APOS O VENCIMENTO COBRAR 2% DE MULTA                                 NAO RECEBER APOS 30 DIAS DO VENCIMENTO.                                                                                                                                                                                                         01081900000000000000108190000000000000       0090339900006270075749081913000066
100000000000000000000009033990000627000000000000000000000000010002020032408108191600000000002            2  01324081081911081900000002095920000000001N010819000000000000000000000000000000000000000000000000000000000000000100032408151848DEILSON DO NASCIMENTO CANDIDO DA SILVA  RUA JOSE CALIXTO DO CARMO - 286 AP.62 -             11702690                                                            000068
2SR. CAIXA, APOS O VENCIMENTO COBRAR 2% DE MULTA                                 NAO RECEBER APOS 30 DIAS DO VENCIMENTO.                                                                                                                                                                                                         01081900000000000000108190000000000000       0090339900006270324081081916000069
100000000000000000000009033990000627000000000000000000000000010002020008214908191600000000002            2  01082149081911081900000001848900000000001N010819000000000000000000000000000000000000000000000000000000000000000100008214973830JAMIL CHALA                             RUA JOSE CALIXTO DO CARMO - 286 AP.22 -             11702690                                                            000071
2SR. CAIXA, APOS O VENCIMENTO COBRAR 2% DE MULTA                                 NAO RECEBER APOS 30 DIAS DO VENCIMENTO.                                                                                                                                                                                                         01081900000000000000108190000000000000       0090339900006270082149081916000072
100000000000000000000009033990000627000000000000000000000000010002020032495008191300000000002            2  01324950081911081900000002071930000000001N010819000000000000000000000000000000000000000000000000000000000000000100032495004881PAULO EDUARDO DOS SANTOS                RUA REPUBLICA DO IRAQUE - 1119 - CAMPO B            04611002                                                            000074
2SR. CAIXA, APOS O VENCIMENTO COBRAR 2% DE MULTA                                 NAO RECEBER APOS 30 DIAS DO VENCIMENTO.                                                                                                                                                                                                         01081900000000000000108190000000000000       0090339900006270324950081913000075
100000000000000000000009033990000627000000000000000000000000010002020006471808191300000000002            2  01064718081909081900000002335120000000001N010819000000000000000000000000000000000000000000000000000000000000000100006471825803JOSIVALDO BASTOS DE OLIVEIRA            RUA MARIA DIAS HOG - 263 - PARQUE CONTIN            07085035                                                            000077
2SR. CAIXA, APOS O VENCIMENTO COBRAR 2% DE MULTA                                 NAO RECEBER APOS 30 DIAS DO VENCIMENTO.                                                                                                                                                                                                         01081900000000000000108190000000000000       0090339900006270064718081913000078
100000000000000000000009033990000627000000000000000000000000010002020038856808191P00000000002            2  01388568081911081900000001920730000000001N010819000000000000000000000000000000000000000000000000000000000000000100038856851830FELIPE BIANCHI DA COSTA FREITAS         RUA JOSE CALIXTO DO CARMO - 286 AP.23 -             11702690                                                            000080
2SR. CAIXA, APOS O VENCIMENTO COBRAR 2% DE MULTA                                 NAO RECEBER APOS 30 DIAS DO VENCIMENTO.                                                                                                                                                                                                         01081900000000000000108190000000000000       009033990000627038856808191P000081
100000000000000000000009033990000627000000000000000000000000010002020016498008191000000000002            2  01164980081911081900000001817130000000001N010819000000000000000000000000000000000000000000000000000000000000000100016498053810GILMA CEZARIO GARCIA CORRITORI          RUA LAURENTINO XAVIER DOS SANTOS - 336 -            08240740                                                            000083
2SR. CAIXA, APOS O VENCIMENTO COBRAR 2% DE MULTA                                 NAO RECEBER APOS 30 DIAS DO VENCIMENTO.                                                                                                                                                                                                         01081900000000000000108190000000000000       0090339900006270164980081910000084
100000000000000000000009033990000627000000000000000000000000010002020029339008191P00000000002            2  01293390081911081900000001943110000000001N010819000000000000000000000000000000000000000000000000000000000000000100029339051831RONALD DIDOFF                           RUA CORONEL FERREIRA BRAGA - 188 - VILA             03522010                                                            000086
2SR. CAIXA, APOS O VENCIMENTO COBRAR 2% DE MULTA                                 NAO RECEBER APOS 30 DIAS DO VENCIMENTO.                                                                                                                                                                                                         01081900000000000000108190000000000000       009033990000627029339008191P000087
100000000000000000000009033990000627000000000000000000000000010002020017357808191100000000002            2  01173578081911081900000002057930000000001N010819000000000000000000000000000000000000000000000000000000000000000100017357859894MARCIO GUIMARAES                        RUA GENERAL CAMARA - 188 SALA 11 - CENTR            11010120                                                            000089
2SR. CAIXA, APOS O VENCIMENTO COBRAR 2% DE MULTA                                 NAO RECEBER APOS 30 DIAS DO VENCIMENTO.                                                                                                                                                                                                         01081900000000000000108190000000000000       0090339900006270173578081911000090
100000000000000000000009033990000627000000000000000000000000010002020010563008191100000000002            2  01105630081911081900000002110520000000001N010819000000000000000000000000000000000000000000000000000000000000000100010563033878VERA LUCIA RIBEIRO LONGANEZI            RUA DOS CAMARES - 150 AP.24 BL.02 - CARA            02068030                                                            000092
2SR. CAIXA, APOS O VENCIMENTO COBRAR 2% DE MULTA                                 NAO RECEBER APOS 30 DIAS DO VENCIMENTO.                                                                                                                                                                                                         01081900000000000000108190000000000000       0090339900006270105630081911000093
100000000000000000000009033990000627000000000000000000000000010002020005529608191600000000002            2  01055296081911081900000001915230000000001N010819000000000000000000000000000000000000000000000000000000000000000100005529616801JOAQUIM JORGE DA COSTA                  RUA JOSE CALIXTO DO CARMO - 286 AP.106 -            11702690                                                            000095
2SR. CAIXA, APOS O VENCIMENTO COBRAR 2% DE MULTA                                 NAO RECEBER APOS 30 DIAS DO VENCIMENTO.                                                                                                                                                                                                         01081900000000000000108190000000000000       0090339900006270055296081916000096
100000000000000000000009033990000627000000000000000000000000010002020022014108191000000000002            2  01220141081911081900000001909640000000001N010819000000000000000000000000000000000000000000000000000000000000000100022014140847CAMILA SILVEIRA CANIZARES               AVENIDA PRESIDENTE CASTELO BRANCO - 5.74            11703650                                                            000098
2SR. CAIXA, APOS O VENCIMENTO COBRAR 2% DE MULTA                                 NAO RECEBER APOS 30 DIAS DO VENCIMENTO.                                                                                                                                                                                                         01081900000000000000108190000000000000       0090339900006270220141081910000099
100000000000000000000009033990000627000000000000000000000000010002020015550708191200000000002            2  01155507081909081900000001810820000000001N010819000000000000000000000000000000000000000000000000000000000000000100015550706806MARY MIWA                               RUA CARLOS JOSE BORSTENS - 50 AP.105 - A            11702750                                                            000101
2SR. CAIXA, APOS O VENCIMENTO COBRAR 2% DE MULTA                                 NAO RECEBER APOS 30 DIAS DO VENCIMENTO.                                                                                                                                                                                                         01081900000000000000108190000000000000       0090339900006270155507081912000102
100000000000000000000009033990000627000000000000000000000000010002020015464608191200000000002            2  01154646081911081900000002013360000000001N010819000000000000000000000000000000000000000000000000000000000000000100015464647864SONIA TERESA VOLPATO                    RUA PEDRO BADRA - 51 AP.73 - JABAQUARA -            04348090                                                            000104
2SR. CAIXA, APOS O VENCIMENTO COBRAR 2% DE MULTA                                 NAO RECEBER APOS 30 DIAS DO VENCIMENTO.                                                                                                                                                                                                         01081900000000000000108190000000000000       0090339900006270154646081912000105
100000000000000000000009033990000627000000000000000000000000010002020008657808191100000000002            2  01086578081911081900000001993150000000001N010819000000000000000000000000000000000000000000000000000000000000000100008657886855ARLINDO DA CRUZ                         AVENIDA ARICANDUVA - 8.256 AP.54 BL.10 -            03951220                                                            000107
2SR. CAIXA, APOS O VENCIMENTO COBRAR 2% DE MULTA                                 NAO RECEBER APOS 30 DIAS DO VENCIMENTO.                                                                                                                                                                                                         01081900000000000000108190000000000000       0090339900006270086578081911000108
100000000000000000000009033990000627000000000000000000000000010002020004265708191100000000002            2  01042657081909081900000002668200000000001N010819000000000000000000000000000000000000000000000000000000000000000100004265781713ALEXANDRE CASADO COSTA                  RUA CARLOS JOSE BORSTENS - 50 AP.33 - AV            11702750                                                            000110
2SR. CAIXA, APOS O VENCIMENTO COBRAR 2% DE MULTA                                 NAO RECEBER APOS 30 DIAS DO VENCIMENTO.                                                                                                                                                                                                         01081900000000000000108190000000000000       0090339900006270042657081911000111
100000000000000000000009033990000627000000000000000000000000010002020059735108191P00000000002            2  01597351081909081900000001126990000000001N010819000000000000000000000000000000000000000000000000000000000000000100059735180863HELIO JOSE MARQUES                      RUA MARTIM AFONSO DE SOUZA - 1007 AP.102            11702790                                                            000113
2SR. CAIXA, APOS O VENCIMENTO COBRAR 2% DE MULTA                                 NAO RECEBER APOS 30 DIAS DO VENCIMENTO.                                                                                                                                                                                                         01081900000000000000108190000000000000       009033990000627059735108191P000114
100000000000000000000009033990000627000000000000000000000000010002020026347808191300000000002            2  01263478081911081900000002130630000000001N010819000000000000000000000000000000000000000000000000000000000000000100026347872862VALDECI SILVA MEIRELES                  RUA JOSE BATISTA DA SILVA - 292 - JARDIM            06851470                                                            000116
2SR. CAIXA, APOS O VENCIMENTO COBRAR 2% DE MULTA                                 NAO RECEBER APOS 30 DIAS DO VENCIMENTO.                                                                                                                                                                                                         01081900000000000000108190000000000000       0090339900006270263478081913000117
100000000000000000000009033990000627000000000000000000000000010002020025443608191400000000002            2  01254436081909081900000003859710000000001N010819000000000000000000000000000000000000000000000000000000000000000100025443691830SILVANETE PEREIRA CARNELOS              RUA CARLOS JOSE BORSTENS - 50 AP.102 - A            11702750                                                            000119
2SR. CAIXA, APOS O VENCIMENTO COBRAR 2% DE MULTA                                 NAO RECEBER APOS 30 DIAS DO VENCIMENTO.                                                                                                                                                                                                         01081900000000000000108190000000000000       0090339900006270254436081914000120
100000000000000000000009033990000627000000000000000000000000010002020013135208191400000000002            2  01131352081911081900000001957520000000001N010819000000000000000000000000000000000000000000000000000000000000000100013135261859EDUARDO ZANOLA                          RUA ROLANDO PIETRO BONINI - 46 - JARDIM             09781040                                                            000122
2SR. CAIXA, APOS O VENCIMENTO COBRAR 2% DE MULTA                                 NAO RECEBER APOS 30 DIAS DO VENCIMENTO.                                                                                                                                                                                                         01081900000000000000108190000000000000       0090339900006270131352081914000123
100000000000000000000009033990000627000000000000000000000000010002020009797608191500000000002            2  01097976081911081900000001906420000000001N010819000000000000000000000000000000000000000000000000000000000000000100009797626857RICARDO SOBRAL DE OLIVEIRA              RUA 23 DE MAIO - 139 AP.32 - VILA MIRIM             11704690                                                            000125
2SR. CAIXA, APOS O VENCIMENTO COBRAR 2% DE MULTA                                 NAO RECEBER APOS 30 DIAS DO VENCIMENTO.                                                                                                                                                                                                         01081900000000000000108190000000000000       0090339900006270097976081915000126
100000000000000000000009033990000627000000000000000000000000010002020004767608191600000000002            2  01047676081909081900000003259930000000001N010819000000000000000000000000000000000000000000000000000000000000000100004767679893ORLANDO GRANDE FILHO                    RUA ORLANDO MIGLIARI - 101 - JARDIM OURO            19906140                                                            000128
2SR. CAIXA, APOS O VENCIMENTO COBRAR 2% DE MULTA                                 NAO RECEBER APOS 30 DIAS DO VENCIMENTO.                                                                                                                                                                                                         01081900000000000000108190000000000000       0090339900006270047676081916000129
100000000000000000000009033990000627000000000000000000000000010002020006512508191300000000002            2  01065125081911081900000001714910000000001N010819000000000000000000000000000000000000000000000000000000000000000100006512547870MARIA DO CARMO FAGUNDES DOS REIS        RUA CARLOS MALCHER - 98 - PARQUE EDU CHA            02232020                                                            000131
2SR. CAIXA, APOS O VENCIMENTO COBRAR 2% DE MULTA                                 NAO RECEBER APOS 30 DIAS DO VENCIMENTO.                                                                                                                                                                                                         01081900000000000000108190000000000000       0090339900006270065125081913000132
100000000000000000000009033990000627000000000000000000000000010002020022728408191600000000002            2  01227284081911081900000002062860000000001N010819000000000000000000000000000000000000000000000000000000000000000100022728497842WILLIAN DE SOUZA MELLO                  RUA JOSE CALIXTO DO CARMO - 286 AP.111 -            11702690                                                            000134
2SR. CAIXA, APOS O VENCIMENTO COBRAR 2% DE MULTA                                 NAO RECEBER APOS 30 DIAS DO VENCIMENTO.                                                                                                                                                                                                         01081900000000000000108190000000000000       0090339900006270227284081916000135
100000000000000000000009033990000627000000000000000000000000010002020016909708191000000000002            2  01169097081911081900000001822930000000001N010819000000000000000000000000000000000000000000000000000000000000000100016909746805EDIVALDO SANTANA DOS SANTOS             ESTRADA JOAO GASPAR DELGADO - 80 AP.213             08536100                                                            000137
2SR. CAIXA, APOS O VENCIMENTO COBRAR 2% DE MULTA                                 NAO RECEBER APOS 30 DIAS DO VENCIMENTO.                                                                                                                                                                                                         01081900000000000000108190000000000000       0090339900006270169097081910000138
100000000000000000000009033990000627000000000000000000000000010002020022036008191800000000002            2  01220360081909081900000002830800000000001N010819000000000000000000000000000000000000000000000000000000000000000100022036003818DERLIS TERAN QUIROGA ROGATO             RUA JOAO RIBEIRO - 709 AP.61 - CAMPESTRE            09070250                                                            000140
2SR. CAIXA, APOS O VENCIMENTO COBRAR 2% DE MULTA                                 NAO RECEBER APOS 30 DIAS DO VENCIMENTO.                                                                                                                                                                                                         01081900000000000000108190000000000000       0090339900006270220360081918000141
100000000000000000000009033990000627000000000000000000000000010002020012475608191100000000002            2  01124756081911081900000001975940000000001N010819000000000000000000000000000000000000000000000000000000000000000100012475663820CELIDALVA GOES DE CARVALHO              RUA AURELIO BELOTTI JUNIOR - 28 - JARDIM            05759210                                                            000143
2SR. CAIXA, APOS O VENCIMENTO COBRAR 2% DE MULTA                                 NAO RECEBER APOS 30 DIAS DO VENCIMENTO.                                                                                                                                                                                                         01081900000000000000108190000000000000       0090339900006270124756081911000144
9                                                                                                                                                                                                                                                                                                                                                                                                         000145