01REMESSA01COBRANCA       00000000000004991781AIRES CONSTRUTORA E INCORPORAD237BRADESCO       110919        MX0000128                                                                                                                                                                                                                                                                                     000001
100000000000000000000009077090006612500000000000000000000000010002100001224509191600000000002            2  01012245091925091900000003664390000000001N090919000000000000000000000000000000000000000000000000000000000000000100001224509579REINALDO JUNIOR MARTINS DE ABREU        AVENIDA INTERLAGOS - 7.224 - INTERLAGOS             04777000                                                            000002
2SR. CAIXA, APOS O VENCIMENTO COBRAR 10% DE MULTA                                NAO RECEBER APOS 30 DIAS DO VENCIMENTO.                                                                                                                                                                                                         11091900000000000001109190000000000000       0090770900066125012245091916000003
100000000000000000000009077090006612500000000000000000000000010002100016338909191900000000002            2  01163389091925091900000003615580000000001N090919000000000000000000000000000000000000000000000000000000000000000100016338929806EDVALDO DA SILVA ANDRADE                RUA ARIA - 434 - PARQUE ALVES DE LIMA -             04902170                                                            000005
2SR. CAIXA, APOS O VENCIMENTO COBRAR 10% DE MULTA                                NAO RECEBER APOS 30 DIAS DO VENCIMENTO.                                                                                                                                                                                                         11091900000000000001109190000000000000       0090770900066125163389091919000006
100000000000000000000009077090006612500000000000000000000000010002100026836909191900000000002            2  01268369091925091900000003274180000000001N090919000000000000000000000000000000000000000000000000000000000000000100026836908860VANDERLEI FIGUEIREDO DE CARVALHO        RUA SANTO ANTONIO DE PADUA - 213 BLOCO 3            11717070                                                            000008
2SR. CAIXA, APOS O VENCIMENTO COBRAR 10% DE MULTA                                NAO RECEBER APOS 30 DIAS DO VENCIMENTO.                                                                                                                                                                                                         11091900000000000001109190000000000000       0090770900066125268369091919000009
100000000000000000000009077090006612500000000000000000000000010002100059861509191500000000002            2  01598615091925091900000003636690000000001N090919000000000000000000000000000000000000000000000000000000000000000100059861576800REINALDO LOPES DE OLIVEIRA              RUA DA SERVIDAO - 40 - VILA ROSCHEL - SA            04891045                                                            000011
2SR. CAIXA, APOS O VENCIMENTO COBRAR 10% DE MULTA                                NAO RECEBER APOS 30 DIAS DO VENCIMENTO.                                                                                                                                                                                                         11091900000000000001109190000000000000       0090770900066125598615091915000012
100000000000000000000009077090006612500000000000000000000000010002100016330909191300000000002            2  01163309091925091900000003614660000000001N090919000000000000000000000000000000000000000000000000000000000000000100016330938830KARINA CORDEIRO PIASSA                  CONDE MOREIRA LIMA - 644 - JARDIM JABAQU            04384032                                                            000014
2SR. CAIXA, APOS O VENCIMENTO COBRAR 10% DE MULTA                                NAO RECEBER APOS 30 DIAS DO VENCIMENTO.                                                                                                                                                                                                         11091900000000000001109190000000000000       0090770900066125163309091913000015
100000000000000000000009077090006612500000000000000000000000010002100029380709191300000000002            2  01293807091925091900000003274370000000001N090919000000000000000000000000000000000000000000000000000000000000000100029380708882EDUARDO MENDONCA DAMASCENO              RUA MONTE CASTELO - 296 AP.12 - AVIACAO             11702720                                                            000017
2SR. CAIXA, APOS O VENCIMENTO COBRAR 10% DE MULTA                                NAO RECEBER APOS 30 DIAS DO VENCIMENTO.                                                                                                                                                                                                         11091900000000000001109190000000000000       0090770900066125293807091913000018
100000000000000000000009077090006612500000000000000000000000010002100023988509191700000000002            2  01239885091925091900000003324750000000001N090919000000000000000000000000000000000000000000000000000000000000000100023988525634DALMY PIMENTA                           SAO CAETANO - 136 - VILA SAO VICENTE - U            38026220                                                            000020
2SR. CAIXA, APOS O VENCIMENTO COBRAR 10% DE MULTA                                NAO RECEBER APOS 30 DIAS DO VENCIMENTO.                                                                                                                                                                                                         11091900000000000001109190000000000000       0090770900066125239885091917000021
100000000000000000000009077090006612500000000000000000000000010002100004735209191900000000002            2  01047352091925091900000003614890000000001N090919000000000000000000000000000000000000000000000000000000000000000100004735273832DARIO LUIZ GONCALVES                    RUA MONTE CASTELO - 295 AP.113 - AVIACAO            11702720                                                            000023
2SR. CAIXA, APOS O VENCIMENTO COBRAR 10% DE MULTA                                NAO RECEBER APOS 30 DIAS DO VENCIMENTO.                                                                                                                                                                                                         11091900000000000001109190000000000000       0090770900066125047352091919000024
100000000000000000000009077090006612500000000000000000000000010002100007635209191900000000002            2  01076352091925091900000003231930000000001N090919000000000000000000000000000000000000000000000000000000000000000100007635293893SILVIO CARDOSO ZACARIAS                 RUA SOLIDONIO LEITE - 2718 AP.102 BLOCO             03275000                                                            000026
2SR. CAIXA, APOS O VENCIMENTO COBRAR 10% DE MULTA                                NAO RECEBER APOS 30 DIAS DO VENCIMENTO.                                                                                                                                                                                                         11091900000000000001109190000000000000       0090770900066125076352091919000027
100000000000000000000009077090006612500000000000000000000000010002100007975909191200000000002            2  01079759091925091900000003516160000000001N090919000000000000000000000000000000000000000000000000000000000000000100007975958808JOCY VIGNADO                            RUA PEDRO GONCALVES SOBRINHO - 568 - PAR            13098641                                                            000029
2SR. CAIXA, APOS O VENCIMENTO COBRAR 10% DE MULTA                                NAO RECEBER APOS 30 DIAS DO VENCIMENTO.                                                                                                                                                                                                         11091900000000000001109190000000000000       0090770900066125079759091912000030
100000000000000000000009077090006612500000000000000000000000010002100036386809191400000000002            2  01363868091925091900000003713590000000001N090919000000000000000000000000000000000000000000000000000000000000000100036386861833ALINE LEE WEI DE SOUZA                  AV. PRES.CASTELO BRANCO - 9127 AP.251 BL            11704600                                                            000032
2SR. CAIXA, APOS O VENCIMENTO COBRAR 10% DE MULTA                                NAO RECEBER APOS 30 DIAS DO VENCIMENTO.                                                                                                                                                                                                         11091900000000000001109190000000000000       0090770900066125363868091914000033
100000000000000000000009077090006612500000000000000000000000010002100070465309191500000000002            2  01704653091925091900000001012040000000001N090919000000000000000000000000000000000000000000000000000000000000000100070465320953SIDNEY CARASKI                          RUA DR.CELSO PACHECO BENTIM - 502 - PARQ            03571020                                                            000035
2SR. CAIXA, APOS O VENCIMENTO COBRAR 10% DE MULTA                                NAO RECEBER APOS 30 DIAS DO VENCIMENTO.                                                                                                                                                                                                         11091900000000000001109190000000000000       0090770900066125704653091915000036
100000000000000000000009077090006612500000000000000000000000010002100075759409191000000000002            2  01757594091925091900000002645260000000001N090919000000000000000000000000000000000000000000000000000000000000000100075759446800VALTER MUTAFEI                          RUA MONTE CASTELO - 295 AP.54 - AVIACAO             11702720                                                            000038
2SR. CAIXA, APOS O VENCIMENTO COBRAR 10% DE MULTA                                NAO RECEBER APOS 30 DIAS DO VENCIMENTO.                                                                                                                                                                                                         11091900000000000001109190000000000000       0090770900066125757594091910000039
100000000000000000000009077090006612500000000000000000000000010002100070328709191900000000002            2  01703287091925091900000003779410000000001N090919000000000000000000000000000000000000000000000000000000000000000100070328706868VALTER LIMA FERNANDES                   RUA DOMINGOS JORGE VELHO - 52 - CENTRO -            06843550                                                            000041
2SR. CAIXA, APOS O VENCIMENTO COBRAR 10% DE MULTA                                NAO RECEBER APOS 30 DIAS DO VENCIMENTO.                                                                                                                                                                                                         11091900000000000001109190000000000000       0090770900066125703287091919000042
100000000000000000000009077090006612500000000000000000000000010002100023132609191400000000002            2  01231326091925091900000002052920000000001N090919000000000000000000000000000000000000000000000000000000000000000100023132672882LEANDRO MORENO                          RUA MONTE CASTELO - 296 AP.64 - AVIACAO             11702720                                                            000044
2SR. CAIXA, APOS O VENCIMENTO COBRAR 10% DE MULTA                                NAO RECEBER APOS 30 DIAS DO VENCIMENTO.                                                                                                                                                                                                         11091900000000000001109190000000000000       0090770900066125231326091914000045
100000000000000000000009077090006612500000000000000000000000010002100099264609191300000000002            2  01992646091925091900000003501070000000001N090919000000000000000000000000000000000000000000000000000000000000000100099264692800LEONTINO PINHEIRO DA SILVA              AVENIDA JOAO BATISTA FITIPALDI - 469 - V            08685000                                                            000047
2SR. CAIXA, APOS O VENCIMENTO COBRAR 10% DE MULTA                                NAO RECEBER APOS 30 DIAS DO VENCIMENTO.                                                                                                                                                                                                         11091900000000000001109190000000000000       0090770900066125992646091913000048
100000000000000000000009077090006612500000000000000000000000010002100000666309191400000000002            2  01006663091925091900000003377570000000001N090919000000000000000000000000000000000000000000000000000000000000000100000666344825LUIZ HENRIQUE DE CAMPOS                 RUA JOAO CARLOS CAVALCANTI REIS - 21 - J            02281206                                                            000050
2SR. CAIXA, APOS O VENCIMENTO COBRAR 10% DE MULTA                                NAO RECEBER APOS 30 DIAS DO VENCIMENTO.                                                                                                                                                                                                         11091900000000000001109190000000000000       0090770900066125006663091914000051
100000000000000000000009077090006612500000000000000000000000010002100029155009191400000000002            2  01291550091925091900000003566860000000001N090919000000000000000000000000000000000000000000000000000000000000000100029155026842DANIELA YOSHIDA                         RUA MONTE CASTELO - 262 AP.34 - AVIACAO             11702720                                                            000053
2SR. CAIXA, APOS O VENCIMENTO COBRAR 10% DE MULTA                                NAO RECEBER APOS 30 DIAS DO VENCIMENTO.                                                                                                                                                                                                         11091900000000000001109190000000000000       0090770900066125291550091914000054
100000000000000000000009077090006612500000000000000000000000010002100001204409191800000000002            2  01012044091925091900000002904700000000001N090919000000000000000000000000000000000000000000000000000000000000000100001204431809CEZAR TALAVERA JUNIOR                   RUA MAESTRO ARTURO DE ANGELIS  - 190 AP.            05139010                                                            000056
2SR. CAIXA, APOS O VENCIMENTO COBRAR 10% DE MULTA                                NAO RECEBER APOS 30 DIAS DO VENCIMENTO.                                                                                                                                                                                                         11091900000000000001109190000000000000       0090770900066125012044091918000057
100000000000000000000009077090006612500000000000000000000000010002100004227509191700000000002            2  01042275091925091900000003765340000000001N090919000000000000000000000000000000000000000000000000000000000000000100004227553970ALESSANDRO ISRAEL GOULART               RUA PROFESSORA CARLINDA RIBEIRO - 21 - F            02866200                                                            000059
2SR. CAIXA, APOS O VENCIMENTO COBRAR 10% DE MULTA                                NAO RECEBER APOS 30 DIAS DO VENCIMENTO.                                                                                                                                                                                                         11091900000000000001109190000000000000       0090770900066125042275091917000060
100000000000000000000009077090006612500000000000000000000000010002100060811409191000000000002            2  01608114091925091900000003470200000000001N090919000000000000000000000000000000000000000000000000000000000000000100060811420868HELIO BASSI                             AV.PARIS,575 - PRACA ANTONIO FIGUEROA -             11700082                                                            000062
2SR. CAIXA, APOS O VENCIMENTO COBRAR 10% DE MULTA                                NAO RECEBER APOS 30 DIAS DO VENCIMENTO.                                                                                                                                                                                                         11091900000000000001109190000000000000       0090770900066125608114091910000063
100000000000000000000009077090006612500000000000000000000000010002100001024709191000000000002            2  01010247091925091900000003283740000000001N090919000000000000000000000000000000000000000000000000000000000000000100001024794881CLAUDIO RODRIGUES                       RUA ARACATUBA - 242 - LAPA - SAO PAULO -            05058010                                                            000065
2SR. CAIXA, APOS O VENCIMENTO COBRAR 10% DE MULTA                                NAO RECEBER APOS 30 DIAS DO VENCIMENTO.                                                                                                                                                                                                         11091900000000000001109190000000000000       0090770900066125010247091910000066
100000000000000000000009077090006612500000000000000000000000010002100002225009191100000000002            2  01022250091925091900000005034410000000001N090919000000000000000000000000000000000000000000000000000000000000000100002225072841PEDRO EDUARDO DE AZEVEDO                RUA NATH ZILMAN - 46 - JARDIM SAMAMBAIA             07623085                                                            000068
2SR. CAIXA, APOS O VENCIMENTO COBRAR 10% DE MULTA                                NAO RECEBER APOS 30 DIAS DO VENCIMENTO.                                                                                                                                                                                                         11091900000000000001109190000000000000       0090770900066125022250091911000069
100000000000000000000009077090006612500000000000000000000000010002100022037509191P00000000002            2  01220375091925091900000003503400000000001N090919000000000000000000000000000000000000000000000000000000000000000100022037552882ANDREIA CRISTINA FERNANDES DANTAS       PCA CASTRO ALVES - 163 AP.33 - VILA SAO             13224299                                                            000071
2SR. CAIXA, APOS O VENCIMENTO COBRAR 10% DE MULTA                                NAO RECEBER APOS 30 DIAS DO VENCIMENTO.                                                                                                                                                                                                         11091900000000000001109190000000000000       009077090006612522037509191P000072
100000000000000000000009077090006612500000000000000000000000010002100019288709191800000000002            2  01192887091925091900000002852550000000001N090919000000000000000000000000000000000000000000000000000000000000000100019288787844EMERSON LUIZ MARTINEZ PEREIRA           RUA MONTE CASTELO - 296 AP.74 - AVIACAO             11702720                                                            000074
2SR. CAIXA, APOS O VENCIMENTO COBRAR 10% DE MULTA                                NAO RECEBER APOS 30 DIAS DO VENCIMENTO.                                                                                                                                                                                                         11091900000000000001109190000000000000       0090770900066125192887091918000075
100000000000000000000009077090006612500000000000000000000000010002100027198409191100000000002            2  01271984091925091900000002416270000000001N090919000000000000000000000000000000000000000000000000000000000000000100027198452809CRISTIANE AURELIANO DA SILVA MAIA       RUA MONTE CASTELO - 262 AP.25 - AVIACAO             11702720                                                            000077
2SR. CAIXA, APOS O VENCIMENTO COBRAR 10% DE MULTA                                NAO RECEBER APOS 30 DIAS DO VENCIMENTO.                                                                                                                                                                                                         11091900000000000001109190000000000000       0090770900066125271984091911000078
100000000000000000000009077090006612500000000000000000000000010002100021246209191500000000002            2  01212462091925091900000002948820000000001N090919000000000000000000000000000000000000000000000000000000000000000100021246231840ALEXANDRO DA CUNHA MIGUES               RUA DULCE - 71  - VILA CARRAO - SAO PAUL            03427040                                                            000080
2SR. CAIXA, APOS O VENCIMENTO COBRAR 10% DE MULTA                                NAO RECEBER APOS 30 DIAS DO VENCIMENTO.                                                                                                                                                                                                         11091900000000000001109190000000000000       0090770900066125212462091915000081
100000000000000000000009077090006612500000000000000000000000010002100018834209191300000000002            2  01188342091925091900000003444520000000001N090919000000000000000000000000000000000000000000000000000000000000000100018834257863ILTON FERNANDO MUTCHNIK                 RUA ASSUNGUI - 700 AP.222 - VILA GUMERCI            04131001                                                            000083
2SR. CAIXA, APOS O VENCIMENTO COBRAR 10% DE MULTA                                NAO RECEBER APOS 30 DIAS DO VENCIMENTO.                                                                                                                                                                                                         11091900000000000001109190000000000000       0090770900066125188342091913000084
100000000000000000000009077090006612500000000000000000000000010002100018470509191500000000002            2  01184705091925091900000004338130000000001N090919000000000000000000000000000000000000000000000000000000000000000100018470520881SILVANA ALVES DE OLIVEIRA               RUA MONTE CASTELO - 262 AP.91 - AVIACAO             11702720                                                            000086
2SR. CAIXA, APOS O VENCIMENTO COBRAR 10% DE MULTA                                NAO RECEBER APOS 30 DIAS DO VENCIMENTO.                                                                                                                                                                                                         11091900000000000001109190000000000000       0090770900066125184705091915000087
100000000000000000000009077090006612500000000000000000000000010002100009297509191500000000002            2  01092975091925091900000003020160000000001N090919000000000000000000000000000000000000000000000000000000000000000100009297523846MARCOS ROBERTO DE CASTRO FERREIRA       RUA MONTE CASTELO - 262 AP.105 - AVIACAO            11702720                                                            000089
2SR. CAIXA, APOS O VENCIMENTO COBRAR 10% DE MULTA                                NAO RECEBER APOS 30 DIAS DO VENCIMENTO.                                                                                                                                                                                                         11091900000000000001109190000000000000       0090770900066125092975091915000090
100000000000000000000009077090006612500000000000000000000000010002100001164109191400000000002            2  01011641091925091900000003742660000000001N090919000000000000000000000000000000000000000000000000000000000000000100001164158864DAVID BLEY LACERDA                      RUA CONEGO ARAUJO MARCONDES - 188 - BAIR            02550080                                                            000092
2SR. CAIXA, APOS O VENCIMENTO COBRAR 10% DE MULTA                                NAO RECEBER APOS 30 DIAS DO VENCIMENTO.                                                                                                                                                                                                         11091900000000000001109190000000000000       0090770900066125011641091914000093
100000000000000000000009077090006612500000000000000000000000010002100031498009191800000000002            2  01314980091925091900000004548670000000001N090919000000000000000000000000000000000000000000000000000000000000000100031498008895POLIANE  SIBELE DA SILVA                PRACA GENERAL COSTA BARRETO - 56 AP.181             03325070                                                            000095
2SR. CAIXA, APOS O VENCIMENTO COBRAR 10% DE MULTA                                NAO RECEBER APOS 30 DIAS DO VENCIMENTO.                                                                                                                                                                                                         11091900000000000001109190000000000000       0090770900066125314980091918000096
100000000000000000000009077090006612500000000000000000000000010002100000588109191100000000002            2  01005881091925091900000002667890000000001N090919000000000000000000000000000000000000000000000000000000000000000100000588109860JOSE LIARTE GIANTE                      AVENIDA LUIZ GONZAGA DO AMARAL - 143 - J            09320630                                                            000098
2SR. CAIXA, APOS O VENCIMENTO COBRAR 10% DE MULTA                                NAO RECEBER APOS 30 DIAS DO VENCIMENTO.                                                                                                                                                                                                         11091900000000000001109190000000000000       0090770900066125005881091911000099
100000000000000000000009077090006612500000000000000000000000010002100014386809191400000000002            2  01143868091925091900000002134190000000001N090919000000000000000000000000000000000000000000000000000000000000000100014386860134SEVERINO CARLOS DE OLIVEIRA             RUA MONTE CASTELO - 262 AP.54 - AVIACAO             11702720                                                            000101
2SR. CAIXA, APOS O VENCIMENTO COBRAR 10% DE MULTA                                NAO RECEBER APOS 30 DIAS DO VENCIMENTO.                                                                                                                                                                                                         11091900000000000001109190000000000000       0090770900066125143868091914000102
100000000000000000000009077090006612500000000000000000000000010002100029088209191100000000002            2  01290882091925091900000002372670000000001N090919000000000000000000000000000000000000000000000000000000000000000100029088221804FABIANO SPERANDEO                       RUA MONTE CASTELO - 296 AP.93 - AVIACAO             11702720                                                            000104
2SR. CAIXA, APOS O VENCIMENTO COBRAR 10% DE MULTA                                NAO RECEBER APOS 30 DIAS DO VENCIMENTO.                                                                                                                                                                                                         11091900000000000001109190000000000000       0090770900066125290882091911000105
100000000000000000000009077090006612500000000000000000000000010002100039393709191P00000000002            2  01393937091925091900000001470900000000001N090919000000000000000000000000000000000000000000000000000000000000000100039393790850NAIRON RICARDO DE ARAUJO SANTOS         RUA MONTE CASTELO - 262 AP.23 - AVIACAO             11702720                                                            000107
2SR. CAIXA, APOS O VENCIMENTO COBRAR 10% DE MULTA                                NAO RECEBER APOS 30 DIAS DO VENCIMENTO.                                                                                                                                                                                                         11091900000000000001109190000000000000       009077090006612539393709191P000108
100000000000000000000009077090006612500000000000000000000000010002100041896809191000000000002            2  01418968091925091900000002142130000000001N090919000000000000000000000000000000000000000000000000000000000000000100041896807968SERGIO ROBERTO DA SILVA                 RUA DOS INGLESES - 542 AP.61 - MORRO DOS            01329000                                                            000110
2SR. CAIXA, APOS O VENCIMENTO COBRAR 10% DE MULTA                                NAO RECEBER APOS 30 DIAS DO VENCIMENTO.                                                                                                                                                                                                         11091900000000000001109190000000000000       0090770900066125418968091910000111
9                                                                                                                                                                                                                                                                                                                                                                                                         000112