01REMESSA01COBRANCA       00000000000008017025HB SANTOS CONSTRUTORA E INCORP237BRADESCO       130120        MX0000095                                                                                                                                                                                                                                                                                     000001
100000000000000000000009033990000627000000000000000000000000010002020025035101201200000000002            2  01250351012024012000000002170870000000001N130120000000000000000000000000000000000000000000000000000000000000000100025035170802WANDERSON LUIS DE CARVALHO              RUA JOAQUIM GONCALVES ROCHA - 302 - JARD            02859030                                                            000002
2SR. CAIXA, APOS O VENCIMENTO COBRAR 2% DE MULTA                                 NAO RECEBER APOS 30 DIAS DO VENCIMENTO.                                                                                                                                                                                                         13012000000000000001301200000000000000       0090339900006270250351012012000003
100000000000000000000009033990000627000000000000000000000000010002020007294301201P00000000002            2  01072943012024012000000002919860000000001N130120000000000000000000000000000000000000000000000000000000000000000100007294351805CLAUDENIR APARECIDO VACARI              RUA CARLOS JOSE BORSTENS - 50 AP.93 - AV            11702750                                                            000005
2SR. CAIXA, APOS O VENCIMENTO COBRAR 2% DE MULTA                                 NAO RECEBER APOS 30 DIAS DO VENCIMENTO.                                                                                                                                                                                                         13012000000000000001301200000000000000       009033990000627007294301201P000006
100000000000000000000009033990000627000000000000000000000000010002020042976101201P00000000002            2  01429761012024012000000002950510000000001N130120000000000000000000000000000000000000000000000000000000000000000100042976111634ACACIO TOSCANO BONDANCA                 RUA COMENDADOR JACOMO ANTONIO LA SELVA -            12946797                                                            000008
2SR. CAIXA, APOS O VENCIMENTO COBRAR 2% DE MULTA                                 NAO RECEBER APOS 30 DIAS DO VENCIMENTO.                                                                                                                                                                                                         13012000000000000001301200000000000000       009033990000627042976101201P000009
100000000000000000000009033990000627000000000000000000000000010002020035438001201300000000002            2  01354380012024012000000002491840000000001N130120000000000000000000000000000000000000000000000000000000000000000100035438022836ALESSANDRO FARACO DOS SANTOS            RUA PEDRO POMAR  - 145 - JARDIM ELISA MA            02875020                                                            000011
2SR. CAIXA, APOS O VENCIMENTO COBRAR 2% DE MULTA                                 NAO RECEBER APOS 30 DIAS DO VENCIMENTO.                                                                                                                                                                                                         13012000000000000001301200000000000000       0090339900006270354380012013000012
100000000000000000000009033990000627000000000000000000000000010002020007525001201500000000002            2  01075250012024012000000003265980000000001N130120000000000000000000000000000000000000000000000000000000000000000100007525032866FERNANDO RIBEIRO                        RUA CARLOS JOSE BORSTENS - 50 AP.32 - AV            11702750                                                            000014
2SR. CAIXA, APOS O VENCIMENTO COBRAR 2% DE MULTA                                 NAO RECEBER APOS 30 DIAS DO VENCIMENTO.                                                                                                                                                                                                         13012000000000000001301200000000000000       0090339900006270075250012015000015
100000000000000000000009033990000627000000000000000000000000010002020005071401201000000000002            2  01050714012024012000000002864890000000001N130120000000000000000000000000000000000000000000000000000000000000000100005071481855ERIBALDO SANTANA CARVALHO               RUA HONDURAS - 477 - PARQUE DAS AMERICAS            09351070                                                            000017
2SR. CAIXA, APOS O VENCIMENTO COBRAR 2% DE MULTA                                 NAO RECEBER APOS 30 DIAS DO VENCIMENTO.                                                                                                                                                                                                         13012000000000000001301200000000000000       0090339900006270050714012010000018
100000000000000000000009033990000627000000000000000000000000010002020002841701201400000000002            2  01028417012024012000000002680380000000001N130120000000000000000000000000000000000000000000000000000000000000000100002841756416LUCIANA PINHEIRO DE ASSIS NUNES         RUA RIO ACIMA - 81 - RIACHO GRANDE - SAO            09830100                                                            000020
2SR. CAIXA, APOS O VENCIMENTO COBRAR 2% DE MULTA                                 NAO RECEBER APOS 30 DIAS DO VENCIMENTO.                                                                                                                                                                                                         13012000000000000001301200000000000000       0090339900006270028417012014000021
100000000000000000000009033990000627000000000000000000000000010002020084302001201300000000002            2  01843020012024012000000002693230000000001N130120000000000000000000000000000000000000000000000000000000000000000100084302097868FAUSTO TADEU VILOR                      RUA ANTONIO TAVARES - 466 - BAIRRO CAMBU            01542010                                                            000023
2SR. CAIXA, APOS O VENCIMENTO COBRAR 2% DE MULTA                                 NAO RECEBER APOS 30 DIAS DO VENCIMENTO.                                                                                                                                                                                                         13012000000000000001301200000000000000       0090339900006270843020012013000024
100000000000000000000009033990000627000000000000000000000000010002020028804201201300000000002            2  01288042012024012000000002646120000000001N130120000000000000000000000000000000000000000000000000000000000000000100028804202882GILBERTO FABIANO CABRAL DE CAMARGO      RUA CARLOS JOSE BORSTENS - 50 AP.44 - AV            11702750                                                            000026
2SR. CAIXA, APOS O VENCIMENTO COBRAR 2% DE MULTA                                 NAO RECEBER APOS 30 DIAS DO VENCIMENTO.                                                                                                                                                                                                         13012000000000000001301200000000000000       0090339900006270288042012013000027
100000000000000000000009033990000627000000000000000000000000010002020000991701201600000000002            2  01009917012024012000000002582710000000001N130120000000000000000000000000000000000000000000000000000000000000000100000991748808JAILSON BORGES DE ANDRADE               RUA IPIOBUNA - 45 - JARDIM CUMBICA - GUA            07240040                                                            000029
2SR. CAIXA, APOS O VENCIMENTO COBRAR 2% DE MULTA                                 NAO RECEBER APOS 30 DIAS DO VENCIMENTO.                                                                                                                                                                                                         13012000000000000001301200000000000000       0090339900006270009917012016000030
100000000000000000000009033990000627000000000000000000000000010002020092180201201300000000002            2  01921802012024012000000003521210000000001N130120000000000000000000000000000000000000000000000000000000000000000100092180299834LUIS ROBERTO DE SA DUARTE               RUA TEBAS - 296 AP.84 BLOCO 2 CE - JARDI            04634031                                                            000032
2SR. CAIXA, APOS O VENCIMENTO COBRAR 2% DE MULTA                                 NAO RECEBER APOS 30 DIAS DO VENCIMENTO.                                                                                                                                                                                                         13012000000000000001301200000000000000       0090339900006270921802012013000033
100000000000000000000009033990000627000000000000000000000000010002020092180201202100000000002            2  01921802012024012000000003521180000000001N130120000000000000000000000000000000000000000000000000000000000000000100092180299834LUIS ROBERTO DE SA DUARTE               RUA TEBAS - 296 AP.84 BLOCO 2 CE - JARDI            04634031                                                            000035
2SR. CAIXA, APOS O VENCIMENTO COBRAR 2% DE MULTA                                 NAO RECEBER APOS 30 DIAS DO VENCIMENTO.                                                                                                                                                                                                         13012000000000000001301200000000000000       0090339900006270921802012021000036
100000000000000000000009033990000627000000000000000000000000010002020092180201203P00000000002            2  01921802012024012000000003521190000000001N130120000000000000000000000000000000000000000000000000000000000000000100092180299834LUIS ROBERTO DE SA DUARTE               RUA TEBAS - 296 AP.84 BLOCO 2 CE - JARDI            04634031                                                            000038
2SR. CAIXA, APOS O VENCIMENTO COBRAR 2% DE MULTA                                 NAO RECEBER APOS 30 DIAS DO VENCIMENTO.                                                                                                                                                                                                         13012000000000000001301200000000000000       009033990000627092180201203P000039
100000000000000000000009033990000627000000000000000000000000010002020092180201204800000000002            2  01921802012024012000000003521200000000001N130120000000000000000000000000000000000000000000000000000000000000000100092180299834LUIS ROBERTO DE SA DUARTE               RUA TEBAS - 296 AP.84 BLOCO 2 CE - JARDI            04634031                                                            000041
2SR. CAIXA, APOS O VENCIMENTO COBRAR 2% DE MULTA                                 NAO RECEBER APOS 30 DIAS DO VENCIMENTO.                                                                                                                                                                                                         13012000000000000001301200000000000000       0090339900006270921802012048000042
100000000000000000000009033990000627000000000000000000000000010002020022151601201200000000002            2  01221516012024012000000002567730000000001N130120000000000000000000000000000000000000000000000000000000000000000100022151666816SAMIR LIMA DE ARAUJO                    AVENIDA GUARAPIRANGA - 2616 AP.42 BLOCO1            04902005                                                            000044
2SR. CAIXA, APOS O VENCIMENTO COBRAR 2% DE MULTA                                 NAO RECEBER APOS 30 DIAS DO VENCIMENTO.                                                                                                                                                                                                         13012000000000000001301200000000000000       0090339900006270221516012012000045
100000000000000000000009033990000627000000000000000000000000010002020022313101201400000000002            2  01223131012026012000000007325140000000001N130120000000000000000000000000000000000000000000000000000000000000000100022313116824ROSA MARIA BRITO DA SILVA               RUA SERVIDAO DE SAO MARCOS - 113 - JARDI            04930300                                                            000047
2SR. CAIXA, APOS O VENCIMENTO COBRAR 2% DE MULTA                                 NAO RECEBER APOS 30 DIAS DO VENCIMENTO.                                                                                                                                                                                                         13012000000000000001301200000000000000       0090339900006270223131012014000048
100000000000000000000009033990000627000000000000000000000000010002020027538001201600000000002            2  01275380012026012000000001982080000000001N130120000000000000000000000000000000000000000000000000000000000000000100027538087249MARA LUCIA MENEZES DA COSTA             RUA LEILA  - 183 - ITAQUERA - SAO PAULO             08240020                                                            000050
2SR. CAIXA, APOS O VENCIMENTO COBRAR 2% DE MULTA                                 NAO RECEBER APOS 30 DIAS DO VENCIMENTO.                                                                                                                                                                                                         13012000000000000001301200000000000000       0090339900006270275380012016000051
100000000000000000000009033990000627000000000000000000000000010002020031278401201200000000002            2  01312784012024012000000002480500000000001N130120000000000000000000000000000000000000000000000000000000000000000100031278411836JEFFERSON DE PIERI PIRES ZAMUNER        RUA MANOEL ARCE - 277 - PARQUE BANCARIO             03922150                                                            000053
2SR. CAIXA, APOS O VENCIMENTO COBRAR 2% DE MULTA                                 NAO RECEBER APOS 30 DIAS DO VENCIMENTO.                                                                                                                                                                                                         13012000000000000001301200000000000000       0090339900006270312784012012000054
100000000000000000000009033990000627000000000000000000000000010002020019185701201400000000002            2  01191857012026012000000001803730000000001N130120000000000000000000000000000000000000000000000000000000000000000100019185769800AGUINALDO PESSOA DE LIMA                RUA JANUARIO ZINGARO - 252 AP.303 BL.04             05794300                                                            000056
2SR. CAIXA, APOS O VENCIMENTO COBRAR 2% DE MULTA                                 NAO RECEBER APOS 30 DIAS DO VENCIMENTO.                                                                                                                                                                                                         13012000000000000001301200000000000000       0090339900006270191857012014000057
100000000000000000000009033990000627000000000000000000000000010002020033303601201500000000002            2  01333036012026012000000001942780000000001N130120000000000000000000000000000000000000000000000000000000000000000100033303645809JESSICA DA SILVA FREITAS                RUA ARILDO VALADAO - 120 - JARDIM GUAEMB            04814600                                                            000059
2SR. CAIXA, APOS O VENCIMENTO COBRAR 2% DE MULTA                                 NAO RECEBER APOS 30 DIAS DO VENCIMENTO.                                                                                                                                                                                                         13012000000000000001301200000000000000       0090339900006270333036012015000060
100000000000000000000009033990000627000000000000000000000000010002020004824401201400000000002            2  01048244012026012000000001958150000000001N130120000000000000000000000000000000000000000000000000000000000000000100004824443806ROSIMEIRE CLARA FERREIRA REZENDE        RUA JOSE CALIXTO DO CARMO - 286 AP.43 -             11702690                                                            000062
2SR. CAIXA, APOS O VENCIMENTO COBRAR 2% DE MULTA                                 NAO RECEBER APOS 30 DIAS DO VENCIMENTO.                                                                                                                                                                                                         13012000000000000001301200000000000000       0090339900006270048244012014000063
100000000000000000000009033990000627000000000000000000000000010002020006422601201000000000002            2  01064226012024012000000002686430000000001N130120000000000000000000000000000000000000000000000000000000000000000100006422607881GERALDO ALVES DA SILVA                  RUA CARLOS JOSE BORSTENS - 50 AP.14 - AV            11702750                                                            000065
2SR. CAIXA, APOS O VENCIMENTO COBRAR 2% DE MULTA                                 NAO RECEBER APOS 30 DIAS DO VENCIMENTO.                                                                                                                                                                                                         13012000000000000001301200000000000000       0090339900006270064226012010000066
100000000000000000000009033990000627000000000000000000000000010002020033877101201200000000002            2  01338771012026012000000001821420000000001N130120000000000000000000000000000000000000000000000000000000000000000100033877129870HELDER FERREIRA VIANA                   RUA JOSE CALIXTO DO CARMO - 286 AP.35 -             11702690                                                            000068
2SR. CAIXA, APOS O VENCIMENTO COBRAR 2% DE MULTA                                 NAO RECEBER APOS 30 DIAS DO VENCIMENTO.                                                                                                                                                                                                         13012000000000000001301200000000000000       0090339900006270338771012012000069
100000000000000000000009033990000627000000000000000000000000010002020028290701201600000000002            2  01282907012026012000000001678660000000001N130120000000000000000000000000000000000000000000000000000000000000000100028290719809VANESSA GIANGARRELLI PEREIRA            RUA BARINEL - 72 - JARDIM COTCHING - SAO            03462130                                                            000071
2SR. CAIXA, APOS O VENCIMENTO COBRAR 2% DE MULTA                                 NAO RECEBER APOS 30 DIAS DO VENCIMENTO.                                                                                                                                                                                                         13012000000000000001301200000000000000       0090339900006270282907012016000072
100000000000000000000009033990000627000000000000000000000000010002020028290701202400000000002            2  01282907012026012000000001678630000000001N130120000000000000000000000000000000000000000000000000000000000000000100028290719809VANESSA GIANGARRELLI PEREIRA            RUA BARINEL - 72 - JARDIM COTCHING - SAO            03462130                                                            000074
2SR. CAIXA, APOS O VENCIMENTO COBRAR 2% DE MULTA                                 NAO RECEBER APOS 30 DIAS DO VENCIMENTO.                                                                                                                                                                                                         13012000000000000001301200000000000000       0090339900006270282907012024000075
100000000000000000000009033990000627000000000000000000000000010002020028290701203200000000002            2  01282907012026012000000001678640000000001N130120000000000000000000000000000000000000000000000000000000000000000100028290719809VANESSA GIANGARRELLI PEREIRA            RUA BARINEL - 72 - JARDIM COTCHING - SAO            03462130                                                            000077
2SR. CAIXA, APOS O VENCIMENTO COBRAR 2% DE MULTA                                 NAO RECEBER APOS 30 DIAS DO VENCIMENTO.                                                                                                                                                                                                         13012000000000000001301200000000000000       0090339900006270282907012032000078
100000000000000000000009033990000627000000000000000000000000010002020028290701204000000000002            2  01282907012026012000000001678650000000001N130120000000000000000000000000000000000000000000000000000000000000000100028290719809VANESSA GIANGARRELLI PEREIRA            RUA BARINEL - 72 - JARDIM COTCHING - SAO            03462130                                                            000080
2SR. CAIXA, APOS O VENCIMENTO COBRAR 2% DE MULTA                                 NAO RECEBER APOS 30 DIAS DO VENCIMENTO.                                                                                                                                                                                                         13012000000000000001301200000000000000       0090339900006270282907012040000081
100000000000000000000009033990000627000000000000000000000000010002020087573001201100000000002            2  01875730012026012000000001833080000000001N130120000000000000000000000000000000000000000000000000000000000000000100087573059604VANDERLEY DE ASSIS                      RUA ROMEU ALBANI - 268 - JARDIM PARQUE R            13803810                                                            000083
2SR. CAIXA, APOS O VENCIMENTO COBRAR 2% DE MULTA                                 NAO RECEBER APOS 30 DIAS DO VENCIMENTO.                                                                                                                                                                                                         13012000000000000001301200000000000000       0090339900006270875730012011000084
100000000000000000000009033990000627000000000000000000000000010002020010825501201900000000002            2  01108255012026012000000001912930000000001N130120000000000000000000000000000000000000000000000000000000000000000100010825513847JOSE APARECIDO PEREIRA                  RUA GENERAL OSORIO - 305 - JARDIM TRINTA            11515130                                                            000086
2SR. CAIXA, APOS O VENCIMENTO COBRAR 2% DE MULTA                                 NAO RECEBER APOS 30 DIAS DO VENCIMENTO.                                                                                                                                                                                                         13012000000000000001301200000000000000       0090339900006270108255012019000087
100000000000000000000009033990000627000000000000000000000000010002020038818501201900000000002            2  01388185012026012000000001945630000000001N130120000000000000000000000000000000000000000000000000000000000000000100038818572814MAURICIUS ALEXANDRE ESTEVAM NABOR       RUA JOSE CALIXTO DO CARMO - 286 AP.25 -             11702690                                                            000089
2SR. CAIXA, APOS O VENCIMENTO COBRAR 2% DE MULTA                                 NAO RECEBER APOS 30 DIAS DO VENCIMENTO.                                                                                                                                                                                                         13012000000000000001301200000000000000       0090339900006270388185012019000090
100000000000000000000009033990000627000000000000000000000000010002020039115101201000000000002            2  01391151012026012000000002358000000000001N130120000000000000000000000000000000000000000000000000000000000000000100039115139840LAIS CRISTINA RIBEIRO ANDO              RUA JOSE CALIXTO DO CARMO - 286 AP.65 -             11702690                                                            000092
2SR. CAIXA, APOS O VENCIMENTO COBRAR 2% DE MULTA                                 NAO RECEBER APOS 30 DIAS DO VENCIMENTO.                                                                                                                                                                                                         13012000000000000001301200000000000000       0090339900006270391151012010000093
100000000000000000000009033990000627000000000000000000000000010002020029617501201900000000002            2  01296175012024012000000002636830000000001N130120000000000000000000000000000000000000000000000000000000000000000100029617510553MARILENE SOUZA DE OLIVEIRA              AVENIDA BRASIL - 393 AP.09 - PARQUE DAS             09210280                                                            000095
2SR. CAIXA, APOS O VENCIMENTO COBRAR 2% DE MULTA                                 NAO RECEBER APOS 30 DIAS DO VENCIMENTO.                                                                                                                                                                                                         13012000000000000001301200000000000000       0090339900006270296175012019000096
100000000000000000000009033990000627000000000000000000000000010002020000593201201900000000002            2  01005932012024012000000002891950000000001N130120000000000000000000000000000000000000000000000000000000000000000100000593293860WALTER HELIO BARBOSA FILHO              AVENIDA ANTONIO FREDERICO OZANAN - 9500             13214206                                                            000098
2SR. CAIXA, APOS O VENCIMENTO COBRAR 2% DE MULTA                                 NAO RECEBER APOS 30 DIAS DO VENCIMENTO.                                                                                                                                                                                                         13012000000000000001301200000000000000       0090339900006270005932012019000099
100000000000000000000009033990000627000000000000000000000000010002020007730001201400000000002            2  01077300012024012000000004112640000000001N130120000000000000000000000000000000000000000000000000000000000000000100007730084899ARNALDO LUIZ VONO                       RUA CARLOS JOSE BORSTENS - 50 AP.122 - A            11702750                                                            000101
2SR. CAIXA, APOS O VENCIMENTO COBRAR 2% DE MULTA                                 NAO RECEBER APOS 30 DIAS DO VENCIMENTO.                                                                                                                                                                                                         13012000000000000001301200000000000000       0090339900006270077300012014000102
100000000000000000000009033990000627000000000000000000000000010002020065584101201000000000002            2  01655841012024012000000001518110000000001N130120000000000000000000000000000000000000000000000000000000000000000100065584147834JOAQUIM DA COSTA MACHADO NETO           RUA CARLOS JOSE BORSTENS - 50 AP.42 - AV            11702750                                                            000104
2SR. CAIXA, APOS O VENCIMENTO COBRAR 2% DE MULTA                                 NAO RECEBER APOS 30 DIAS DO VENCIMENTO.                                                                                                                                                                                                         13012000000000000001301200000000000000       0090339900006270655841012010000105
100000000000000000000009033990000627000000000000000000000000010002020001616901201200000000002            2  01016169012024012000000002669890000000001N130120000000000000000000000000000000000000000000000000000000000000000100001616913827CLAUDIO LUIZ PAULELLA                   PRACA NESTOR DOS SANTOS ARRUDA - 26 - VI            13920000                                                            000107
2SR. CAIXA, APOS O VENCIMENTO COBRAR 2% DE MULTA                                 NAO RECEBER APOS 30 DIAS DO VENCIMENTO.                                                                                                                                                                                                         13012000000000000001301200000000000000       0090339900006270016169012012000108
100000000000000000000009033990000627000000000000000000000000010002020006684601201300000000002            2  01066846012026012000000001942520000000001N130120000000000000000000000000000000000000000000000000000000000000000100006684623884LAUDINOR VIEIRA GARCIA                  RUA CANDIDO SALES - 374 - JARDIM PRESIDE            07172000                                                            000110
2SR. CAIXA, APOS O VENCIMENTO COBRAR 2% DE MULTA                                 NAO RECEBER APOS 30 DIAS DO VENCIMENTO.                                                                                                                                                                                                         13012000000000000001301200000000000000       0090339900006270066846012013000111
100000000000000000000009033990000627000000000000000000000000010002020011663501201400000000002            2  01116635012026012000000001956530000000001N130120000000000000000000000000000000000000000000000000000000000000000100011663589844MARIA SAVIO QUARELLO                    AVENIDA MENDONCA DRUMOND - 321 - JARDIM             03524030                                                            000113
2SR. CAIXA, APOS O VENCIMENTO COBRAR 2% DE MULTA                                 NAO RECEBER APOS 30 DIAS DO VENCIMENTO.                                                                                                                                                                                                         13012000000000000001301200000000000000       0090339900006270116635012014000114
100000000000000000000009033990000627000000000000000000000000010002020010083801201600000000002            2  01100838012026012000000001890310000000001N130120000000000000000000000000000000000000000000000000000000000000000100010083824855IONE FERREIRA COUTO DA SILVA            RUA JOSE RAGEL DE MESQUITA - 60 CS.01 -             07799999                                                            000116
2SR. CAIXA, APOS O VENCIMENTO COBRAR 2% DE MULTA                                 NAO RECEBER APOS 30 DIAS DO VENCIMENTO.                                                                                                                                                                                                         13012000000000000001301200000000000000       0090339900006270100838012016000117
100000000000000000000009033990000627000000000000000000000000010002020036881701201900000000002            2  01368817012026012000000001855020000000001N130120000000000000000000000000000000000000000000000000000000000000000100036881778864ANDRE GONZALEZ RABELLO                  RUA PARAIBA - 106 AP.61 - POMPEIA - SANT            11065470                                                            000119
2SR. CAIXA, APOS O VENCIMENTO COBRAR 2% DE MULTA                                 NAO RECEBER APOS 30 DIAS DO VENCIMENTO.                                                                                                                                                                                                         13012000000000000001301200000000000000       0090339900006270368817012019000120
100000000000000000000009033990000627000000000000000000000000010002020018207001201800000000002            2  01182070012024012000000002556970000000001N130120000000000000000000000000000000000000000000000000000000000000000100018207096802ROBERTO VALENTE TAVARES                 RUA SEBASTIAO GOMES - 218 - JARDIM SANTO            13835000                                                            000122
2SR. CAIXA, APOS O VENCIMENTO COBRAR 2% DE MULTA                                 NAO RECEBER APOS 30 DIAS DO VENCIMENTO.                                                                                                                                                                                                         13012000000000000001301200000000000000       0090339900006270182070012018000123
100000000000000000000009033990000627000000000000000000000000010002020005351001201000000000002            2  01053510012026012000000001739280000000001N130120000000000000000000000000000000000000000000000000000000000000000100005351015897VALERIA ALVES MARCOLINO HINNIGER        RUA MONGOLIA - 230 AP.71 BL.4 - PARQUE N            09280220                                                            000125
2SR. CAIXA, APOS O VENCIMENTO COBRAR 2% DE MULTA                                 NAO RECEBER APOS 30 DIAS DO VENCIMENTO.                                                                                                                                                                                                         13012000000000000001301200000000000000       0090339900006270053510012010000126
100000000000000000000009033990000627000000000000000000000000010002020031898701201600000000002            2  01318987012024012000000002767140000000001N130120000000000000000000000000000000000000000000000000000000000000000100031898775800ANITA MARTINS COLOMBO                   RUA CARLOS JOSE BORSTENS - 50 AP.115 - A            11702750                                                            000128
2SR. CAIXA, APOS O VENCIMENTO COBRAR 2% DE MULTA                                 NAO RECEBER APOS 30 DIAS DO VENCIMENTO.                                                                                                                                                                                                         13012000000000000001301200000000000000       0090339900006270318987012016000129
100000000000000000000009033990000627000000000000000000000000010002020037983401201600000000002            2  01379834012026012000000002043070000000001N130120000000000000000000000000000000000000000000000000000000000000000100037983484801JOSE ERIVALDO SOUZA DO NASCIMENTO RAMOS RUA LETICIA - 250 - JARDIM GUARUJA - SAO            05877260                                                            000131
2SR. CAIXA, APOS O VENCIMENTO COBRAR 2% DE MULTA                                 NAO RECEBER APOS 30 DIAS DO VENCIMENTO.                                                                                                                                                                                                         13012000000000000001301200000000000000       0090339900006270379834012016000132
100000000000000000000009033990000627000000000000000000000000010002020056289201201700000000002            2  01562892012026012000000001543430000000001N130120000000000000000000000000000000000000000000000000000000000000000100056289286900PEDRO RIBEIRO                           RUA CONEGO MANOEL VAZ - 48 - SANTANA - S            02019050                                                            000134
2SR. CAIXA, APOS O VENCIMENTO COBRAR 2% DE MULTA                                 NAO RECEBER APOS 30 DIAS DO VENCIMENTO.                                                                                                                                                                                                         13012000000000000001301200000000000000       0090339900006270562892012017000135
100000000000000000000009033990000627000000000000000000000000010002020005025501201000000000002            2  01050255012026012000000002196480000000001N130120000000000000000000000000000000000000000000000000000000000000000100005025595860CONCEICAO APARECIDA DE MESQUITA PEREIRA RUA TRIUNFO - 835 AP.105 - JARDIM SAO LU            14020670                                                            000137
2SR. CAIXA, APOS O VENCIMENTO COBRAR 2% DE MULTA                                 NAO RECEBER APOS 30 DIAS DO VENCIMENTO.                                                                                                                                                                                                         13012000000000000001301200000000000000       0090339900006270050255012010000138
100000000000000000000009033990000627000000000000000000000000010002020034735301201300000000002            2  01347353012026012000000002118260000000001N130120000000000000000000000000000000000000000000000000000000000000000100034735328866DIEGO FELIPE MOLINA DA SILVA E SOUSA    RUA EMILIA PAULISTA - 135 - VILA TIRADEN            05364020                                                            000140
2SR. CAIXA, APOS O VENCIMENTO COBRAR 2% DE MULTA                                 NAO RECEBER APOS 30 DIAS DO VENCIMENTO.                                                                                                                                                                                                         13012000000000000001301200000000000000       0090339900006270347353012013000141
100000000000000000000009033990000627000000000000000000000000010002020076175601201400000000002            2  01761756012024012000000003840180000000001N130120000000000000000000000000000000000000000000000000000000000000000100076175685687GILMAR DE OLIVEIRA BRAGA                RUA MARACAJU - 161 AP.202 - NOVA GRANADA            30431350                                                            000143
2SR. CAIXA, APOS O VENCIMENTO COBRAR 2% DE MULTA                                 NAO RECEBER APOS 30 DIAS DO VENCIMENTO.                                                                                                                                                                                                         13012000000000000001301200000000000000       0090339900006270761756012014000144
100000000000000000000009033990000627000000000000000000000000010002020034812201201700000000002            2  01348122012024012000000003662420000000001N130120000000000000000000000000000000000000000000000000000000000000000100034812226880THAIS TORQUATO MIMOSO DE JESUS          RUA ARNALDO CINTRA - 416 AP.104 TORRE 2             03088000                                                            000146
2SR. CAIXA, APOS O VENCIMENTO COBRAR 2% DE MULTA                                 NAO RECEBER APOS 30 DIAS DO VENCIMENTO.                                                                                                                                                                                                         13012000000000000001301200000000000000       0090339900006270348122012017000147
100000000000000000000009033990000627000000000000000000000000010002020012849401201300000000002            2  01128494012026012000000003649240000000001N130120000000000000000000000000000000000000000000000000000000000000000100012849428809MOISES CLAUDIO DO ROSARIO               AVENIDA DR. AUGUSTO DE TOLEDO - 510 AP.1            09541520                                                            000149
2SR. CAIXA, APOS O VENCIMENTO COBRAR 2% DE MULTA                                 NAO RECEBER APOS 30 DIAS DO VENCIMENTO.                                                                                                                                                                                                         13012000000000000001301200000000000000       0090339900006270128494012013000150
100000000000000000000009033990000627000000000000000000000000010002020015702301201300000000002            2  01157023012026012000000002024670000000001N130120000000000000000000000000000000000000000000000000000000000000000100015702353846MARIA DE LOURDES DE MACENO SOUZA        RUA JOSE CALIXTO DO CARMO - 286 AP.83 -             11702690                                                            000152
2SR. CAIXA, APOS O VENCIMENTO COBRAR 2% DE MULTA                                 NAO RECEBER APOS 30 DIAS DO VENCIMENTO.                                                                                                                                                                                                         13012000000000000001301200000000000000       0090339900006270157023012013000153
100000000000000000000009033990000627000000000000000000000000010002020006749701201500000000002            2  01067497012023012000000001970430000000001N130120000000000000000000000000000000000000000000000000000000000000000100006749731600MARCELA DA ROCHA REIS                   RUA COLOMBIA - 665 AP.1204 - JARDIM GUIL            11702020                                                            000155
2SR. CAIXA, APOS O VENCIMENTO COBRAR 2% DE MULTA                                 NAO RECEBER APOS 30 DIAS DO VENCIMENTO.                                                                                                                                                                                                         13012000000000000001301200000000000000       0090339900006270067497012015000156
100000000000000000000009033990000627000000000000000000000000010002020006749701202300000000002            2  01067497012023012000000001970420000000001N130120000000000000000000000000000000000000000000000000000000000000000100006749731600MARCELA DA ROCHA REIS                   RUA COLOMBIA - 665 AP.1204 - JARDIM GUIL            11702020                                                            000158
2SR. CAIXA, APOS O VENCIMENTO COBRAR 2% DE MULTA                                 NAO RECEBER APOS 30 DIAS DO VENCIMENTO.                                                                                                                                                                                                         13012000000000000001301200000000000000       0090339900006270067497012023000159
100000000000000000000009033990000627000000000000000000000000010002020003658601201800000000002            2  01036586012026012000000001507570000000001N130120000000000000000000000000000000000000000000000000000000000000000100003658668814MARINEZ VALENTIN                        RUA JOSE CALIXTO DO CARMO - 286 AP.95 -             11702690                                                            000161
2SR. CAIXA, APOS O VENCIMENTO COBRAR 2% DE MULTA                                 NAO RECEBER APOS 30 DIAS DO VENCIMENTO.                                                                                                                                                                                                         13012000000000000001301200000000000000       0090339900006270036586012018000162
100000000000000000000009033990000627000000000000000000000000010002020014087401201600000000002            2  01140874012026012000000002014740000000001N130120000000000000000000000000000000000000000000000000000000000000000100014087484874SERGIO SANTOS DO NASCIMENTO             RUA PANTALEAO BRAZ - 21 - JARDIM ESTER -            05372080                                                            000164
2SR. CAIXA, APOS O VENCIMENTO COBRAR 2% DE MULTA                                 NAO RECEBER APOS 30 DIAS DO VENCIMENTO.                                                                                                                                                                                                         13012000000000000001301200000000000000       0090339900006270140874012016000165
9                                                                                                                                                                                                                                                                                                                                                                                                         000166