01REMESSA01COBRANCA       00000000000004991781AIRES CONSTRUTORA E INCORPORAD237BRADESCO       010720        MX0000144                                                                                                                                                                                                                                                                                     000001
100000000000000000000009077090006612500000000000000000000000010002100006140007201000000000002            2  01061400072010072000000004091950000000001N010720000000000000000000000000000000000000000000000000000000000000000100006140049857MARIA ALBANI DA SILVA EUSEBIO           RUA ORLANDO SEGALA - 108 - JARDIM ADRIAN            07135190                                                            000002
2SR. CAIXA, APOS O VENCIMENTO COBRAR 10% DE MULTA                                NAO RECEBER APOS 30 DIAS DO VENCIMENTO.                                                                                                                                                                                                         01072000000000000000107200000000000000       0090770900066125061400072010000003
100000000000000000000009077090006612500000000000000000000000010002100085416907201000000000002            2  01854169072010072000000003471410000000001N010720000000000000000000000000000000000000000000000000000000000000000100085416940891ANTONIO DE SOUSA MENDES                 RUA MONTE CASTELO - 296 AP.52 - AVIACAO             11702720                                                            000005
2SR. CAIXA, APOS O VENCIMENTO COBRAR 10% DE MULTA                                NAO RECEBER APOS 30 DIAS DO VENCIMENTO.                                                                                                                                                                                                         01072000000000000000107200000000000000       0090770900066125854169072010000006
100000000000000000000009077090006612500000000000000000000000010002100005678007201400000000002            2  01056780072010072000000003615400000000001N010720000000000000000000000000000000000000000000000000000000000000000100005678057863FABIO MOREIRA CAMPOS                    RUA FLORENCIO DA SILVA - 284 - VILA LIBA            03738070                                                            000008
2SR. CAIXA, APOS O VENCIMENTO COBRAR 10% DE MULTA                                NAO RECEBER APOS 30 DIAS DO VENCIMENTO.                                                                                                                                                                                                         01072000000000000000107200000000000000       0090770900066125056780072014000009
100000000000000000000009077090006612500000000000000000000000010002100016348207201000000000002            2  01163482072010072000000003527090000000001N010720000000000000000000000000000000000000000000000000000000000000000100016348237885AILTON LORENA                           AVENIDA BRASILIA - 194 - BELA VISTA - SA            09180260                                                            000011
2SR. CAIXA, APOS O VENCIMENTO COBRAR 10% DE MULTA                                NAO RECEBER APOS 30 DIAS DO VENCIMENTO.                                                                                                                                                                                                         01072000000000000000107200000000000000       0090770900066125163482072010000012
100000000000000000000009077090006612500000000000000000000000010002100081218407201400000000002            2  01812184072010072000000003404080000000001N010720000000000000000000000000000000000000000000000000000000000000000100081218486953OSMAR DA COSTA - A/C RITA GONCALVES     AVENIDA ALMEIDA JUNIOR - 717 - SAMAMBAIA            11713050                                                            000014
2SR. CAIXA, APOS O VENCIMENTO COBRAR 10% DE MULTA                                NAO RECEBER APOS 30 DIAS DO VENCIMENTO.                                                                                                                                                                                                         01072000000000000000107200000000000000       0090770900066125812184072014000015
100000000000000000000009077090006612500000000000000000000000010002100004981807201700000000002            2  01049818072010072000000003866430000000001N010720000000000000000000000000000000000000000000000000000000000000000100004981884850SILVIO PAULINO GONCALVES                MARIA DE CASTRO MESQUITA - 84 AP.103 BLO            07110040                                                            000017
2SR. CAIXA, APOS O VENCIMENTO COBRAR 10% DE MULTA                                NAO RECEBER APOS 30 DIAS DO VENCIMENTO.                                                                                                                                                                                                         01072000000000000000107200000000000000       0090770900066125049818072017000018
100000000000000000000009077090006612500000000000000000000000010002100019282507201100000000002            2  01192825072010072000000002537900000000001N010720000000000000000000000000000000000000000000000000000000000000000100019282546837FABIO LEANDRO DE FREITAS ASSIS          RUA BASSIM NAGIB TRABULSI - 97 - PONTA D            11030540                                                            000020
2SR. CAIXA, APOS O VENCIMENTO COBRAR 10% DE MULTA                                NAO RECEBER APOS 30 DIAS DO VENCIMENTO.                                                                                                                                                                                                         01072000000000000000107200000000000000       0090770900066125192825072011000021
100000000000000000000009077090006612500000000000000000000000010002100008423407201500000000002            2  01084234072010072000000003527020000000001N010720000000000000000000000000000000000000000000000000000000000000000100008423485811EDSON LUIZ NUNES                        RUA NOEMIA PEDROSO BUENO - 41 - JARDIM G            09360440                                                            000023
2SR. CAIXA, APOS O VENCIMENTO COBRAR 10% DE MULTA                                NAO RECEBER APOS 30 DIAS DO VENCIMENTO.                                                                                                                                                                                                         01072000000000000000107200000000000000       0090770900066125084234072015000024
100000000000000000000009077090006612500000000000000000000000010002100003865707201P00000000002            2  01038657072010072000000003400650000000001N010720000000000000000000000000000000000000000000000000000000000000000100003865776841FRANCISCO JOSE ROCCO                    RUA FABIO JOSE BEZERRA - 130 AP.86 - PAR            03805000                                                            000026
2SR. CAIXA, APOS O VENCIMENTO COBRAR 10% DE MULTA                                NAO RECEBER APOS 30 DIAS DO VENCIMENTO.                                                                                                                                                                                                         01072000000000000000107200000000000000       009077090006612503865707201P000027
100000000000000000000009077090006612500000000000000000000000010002100028309507201600000000002            2  01283095072010072000000003032590000000001N010720000000000000000000000000000000000000000000000000000000000000000100028309524803DEISE RIBEIRO BARBOSA                   RUA CANDIDO JOSE DE ANDRADE - 173 - ERME            03807030                                                            000029
2SR. CAIXA, APOS O VENCIMENTO COBRAR 10% DE MULTA                                NAO RECEBER APOS 30 DIAS DO VENCIMENTO.                                                                                                                                                                                                         01072000000000000000107200000000000000       0090770900066125283095072016000030
100000000000000000000009077090006612500000000000000000000000010002100011277907201600000000002            2  01112779072010072000000003599350000000001N010720000000000000000000000000000000000000000000000000000000000000000100011277908893JOSE AILTON LOPES DE AZEVEDO            RUA MAESTRO JOAO SEPE - 19 - JARDIM MARI            04181030                                                            000032
2SR. CAIXA, APOS O VENCIMENTO COBRAR 10% DE MULTA                                NAO RECEBER APOS 30 DIAS DO VENCIMENTO.                                                                                                                                                                                                         01072000000000000000107200000000000000       0090770900066125112779072016000033
100000000000000000000009077090006612500000000000000000000000010002100025215107201300000000002            2  01252151072010072000000002714350000000001N010720000000000000000000000000000000000000000000000000000000000000000100025215106886KLEBER LUIZ DOS SANTOS                  RUA MONTE CASTELO - 262 AP.15 - AVIACAO             11702720                                                            000035
2SR. CAIXA, APOS O VENCIMENTO COBRAR 10% DE MULTA                                NAO RECEBER APOS 30 DIAS DO VENCIMENTO.                                                                                                                                                                                                         01072000000000000000107200000000000000       0090770900066125252151072013000036
100000000000000000000009077090006612500000000000000000000000010002100090206707201000000000002            2  01902067072010072000000003031830000000001N010720000000000000000000000000000000000000000000000000000000000000000100090206789815NEREIDE RODRIGUES FERREIRA              AVENIDA PADRE ESTANISLAU DE CAMPOS - 205            03590060                                                            000038
2SR. CAIXA, APOS O VENCIMENTO COBRAR 10% DE MULTA                                NAO RECEBER APOS 30 DIAS DO VENCIMENTO.                                                                                                                                                                                                         01072000000000000000107200000000000000       0090770900066125902067072010000039
100000000000000000000009077090006612500000000000000000000000010002100029150707201900000000002            2  01291507072010072000000003548810000000001N010720000000000000000000000000000000000000000000000000000000000000000100029150742833ANA DEISE SANTOS DE ALMEIDA             RUA MONTE CASTELO - 296 AP.121 - AVIACAO            11702720                                                            000041
2SR. CAIXA, APOS O VENCIMENTO COBRAR 10% DE MULTA                                NAO RECEBER APOS 30 DIAS DO VENCIMENTO.                                                                                                                                                                                                         01072000000000000000107200000000000000       0090770900066125291507072019000042
100000000000000000000009077090006612500000000000000000000000010002100000811707201400000000002            2  01008117072010072000000002923080000000001N010720000000000000000000000000000000000000000000000000000000000000000100000811752801SERGIO BUENO DA SILVA                   RUA MONTE CASTELO - 262 AP.75 - AVIACAO             11702720                                                            000044
2SR. CAIXA, APOS O VENCIMENTO COBRAR 10% DE MULTA                                NAO RECEBER APOS 30 DIAS DO VENCIMENTO.                                                                                                                                                                                                         01072000000000000000107200000000000000       0090770900066125008117072014000045
100000000000000000000009077090006612500000000000000000000000010002100018344807201000000000002            2  01183448072010072000000003974680000000001N010720000000000000000000000000000000000000000000000000000000000000000100018344803888MARCELO BERNARDO                        RUA MONTE CASTELO - 262 AP.84 - AVIACAO             11702720                                                            000047
2SR. CAIXA, APOS O VENCIMENTO COBRAR 10% DE MULTA                                NAO RECEBER APOS 30 DIAS DO VENCIMENTO.                                                                                                                                                                                                         01072000000000000000107200000000000000       0090770900066125183448072010000048
100000000000000000000009077090006612500000000000000000000000010002100004004307201800000000002            2  01040043072010072000000005209530000000001N010720000000000000000000000000000000000000000000000000000000000000000100004004328896VANDERLEI  MARTINS DE ALMEIDA           RUA MONSENHOR TABOSA - 03 - PARQUE CISPE            03819300                                                            000050
2SR. CAIXA, APOS O VENCIMENTO COBRAR 10% DE MULTA                                NAO RECEBER APOS 30 DIAS DO VENCIMENTO.                                                                                                                                                                                                         01072000000000000000107200000000000000       0090770900066125040043072018000051
100000000000000000000009077090006612500000000000000000000000010002100016339407201900000000002            2  01163394072010072000000003143110000000001N010720000000000000000000000000000000000000000000000000000000000000000100016339432832ALEX MONTEIRO DA SILVA                  RUA IVA MOURA LIMA - 04 - JARDIM MIRNA I            04855540                                                            000053
2SR. CAIXA, APOS O VENCIMENTO COBRAR 10% DE MULTA                                NAO RECEBER APOS 30 DIAS DO VENCIMENTO.                                                                                                                                                                                                         01072000000000000000107200000000000000       0090770900066125163394072019000054
100000000000000000000009077090006612500000000000000000000000010002100031803807201600000000002            2  01318038072010072000000003209740000000001N010720000000000000000000000000000000000000000000000000000000000000000100031803864877ELEILSON FELIPPE SANTOS                 RUA SANTA GREGORIA - 193 - CIDADE DUTRA             04806030                                                            000056
2SR. CAIXA, APOS O VENCIMENTO COBRAR 10% DE MULTA                                NAO RECEBER APOS 30 DIAS DO VENCIMENTO.                                                                                                                                                                                                         01072000000000000000107200000000000000       0090770900066125318038072016000057
100000000000000000000009077090006612500000000000000000000000010002100026032607201400000000002            2  01260326072010072000000002208830000000001N010720000000000000000000000000000000000000000000000000000000000000000100026032632857MARILA LOPES PEREIRA                    AVENIDA LUIZ GUSHIKEN - 1761 AP.13 BL.05            05831315                                                            000059
2SR. CAIXA, APOS O VENCIMENTO COBRAR 10% DE MULTA                                NAO RECEBER APOS 30 DIAS DO VENCIMENTO.                                                                                                                                                                                                         01072000000000000000107200000000000000       0090770900066125260326072014000060
100000000000000000000009077090006612500000000000000000000000010002100010107707201600000000002            2  01101077072010072000000003665500000000001N010720000000000000000000000000000000000000000000000000000000000000000100010107711834VALDEMAR FECCHIO                        RUA DOUTOR MARTINS DE OLIVEIRA - 529 AP.            05638030                                                            000062
2SR. CAIXA, APOS O VENCIMENTO COBRAR 10% DE MULTA                                NAO RECEBER APOS 30 DIAS DO VENCIMENTO.                                                                                                                                                                                                         01072000000000000000107200000000000000       0090770900066125101077072016000063
100000000000000000000009077090006612500000000000000000000000010002100003330707201500000000002            2  01033307072010072000000004715430000000001N010720000000000000000000000000000000000000000000000000000000000000000100003330791837MARLI DA SILVA BARBOSA                  RUA GLICERIO CERQUEIRA LEITE - 151 - JAR            03675040                                                            000065
2SR. CAIXA, APOS O VENCIMENTO COBRAR 10% DE MULTA                                NAO RECEBER APOS 30 DIAS DO VENCIMENTO.                                                                                                                                                                                                         01072000000000000000107200000000000000       0090770900066125033307072015000066
100000000000000000000009077090006612500000000000000000000000010002100005920507201P00000000002            2  01059205072010072000000002226930000000001N010720000000000000000000000000000000000000000000000000000000000000000100005920579846SONIA MARIA VALDO POLLO                 RUA PALMIRA CERVI BARBARO - 797 - CIDADE            13214370                                                            000068
2SR. CAIXA, APOS O VENCIMENTO COBRAR 10% DE MULTA                                NAO RECEBER APOS 30 DIAS DO VENCIMENTO.                                                                                                                                                                                                         01072000000000000000107200000000000000       009077090006612505920507201P000069
100000000000000000000009077090006612500000000000000000000000010002100002494107201000000000002            2  01024941072010072000000003348290000000001N010720000000000000000000000000000000000000000000000000000000000000000100002494107881CIRO FRANCISCO MARCHI DURIGON           RUA MONTE CASTELO - 262 AP.115 - AVIACAO            11702720                                                            000071
2SR. CAIXA, APOS O VENCIMENTO COBRAR 10% DE MULTA                                NAO RECEBER APOS 30 DIAS DO VENCIMENTO.                                                                                                                                                                                                         01072000000000000000107200000000000000       0090770900066125024941072010000072
100000000000000000000009077090006612500000000000000000000000010002100007002307201800000000002            2  01070023072010072000000003291520000000001N010720000000000000000000000000000000000000000000000000000000000000000100007002345869DOMINGOS DE BRITO GALVAO                RUA MONTE CASTELO - 262 AP.44 - AVIACAO             11702720                                                            000074
2SR. CAIXA, APOS O VENCIMENTO COBRAR 10% DE MULTA                                NAO RECEBER APOS 30 DIAS DO VENCIMENTO.                                                                                                                                                                                                         01072000000000000000107200000000000000       0090770900066125070023072018000075
100000000000000000000009077090006612500000000000000000000000010002100016299007201100000000002            2  01162990072010072000000003173040000000001N010720000000000000000000000000000000000000000000000000000000000000000100016299008857FERNANDO CESAR CARVALHO                 AVENIDA MARCONDES DE BRITO - 1340 AP.74             03509000                                                            000077
2SR. CAIXA, APOS O VENCIMENTO COBRAR 10% DE MULTA                                NAO RECEBER APOS 30 DIAS DO VENCIMENTO.                                                                                                                                                                                                         01072000000000000000107200000000000000       0090770900066125162990072011000078
100000000000000000000009077090006612500000000000000000000000010002100031082807201500000000002            2  01310828072010072000000003188420000000001N010720000000000000000000000000000000000000000000000000000000000000000100031082898880VANESSA DOS SANTOS NEIVA                RUA MONTE CASTELO - 296 AP.33 - BAIRRO A            11702720                                                            000080
2SR. CAIXA, APOS O VENCIMENTO COBRAR 10% DE MULTA                                NAO RECEBER APOS 30 DIAS DO VENCIMENTO.                                                                                                                                                                                                         01072000000000000000107200000000000000       0090770900066125310828072015000081
100000000000000000000009077090006612500000000000000000000000010002100065895307201500000000002            2  01658953072010072000000001941280000000001N010720000000000000000000000000000000000000000000000000000000000000000100065895304834MARINHO BARBOSA CUNHA                   AVENIDA EDU CHAVES - 639 AP.43 - PARQUE             02229000                                                            000083
2SR. CAIXA, APOS O VENCIMENTO COBRAR 10% DE MULTA                                NAO RECEBER APOS 30 DIAS DO VENCIMENTO.                                                                                                                                                                                                         01072000000000000000107200000000000000       0090770900066125658953072015000084
100000000000000000000009077090006612500000000000000000000000010002100055975307201200000000002            2  01559753072010072000000000724590000000001N010720000000000000000000000000000000000000000000000000000000000000000100055975372887BENEVENUTO THEODORO DA SILVA NETO       RUA MONTE CASTELO - 296 AP.63 - AVIACAO             11702720                                                            000086
2SR. CAIXA, APOS O VENCIMENTO COBRAR 10% DE MULTA                                NAO RECEBER APOS 30 DIAS DO VENCIMENTO.                                                                                                                                                                                                         01072000000000000000107200000000000000       0090770900066125559753072012000087
9                                                                                                                                                                                                                                                                                                                                                                                                         000088