01REMESSA01COBRANCA       00000000000008017025HB SANTOS CONSTRUTORA E INCORP237BRADESCO       101022        MX0000163                                                                                                                                                                                                                                                                                     000001
100000000000000000000009033990000627000000000000000000000000010002020025035110221600000000002            2  01250351102224102200000002813570000000001N071022000000000000000000000000000000000000000000000000000000000000000100025035170802WANDERSON LUIS DE CARVALHO              RUA JOAQUIM GONCALVES ROCHA - 302 - JARD            02859030                                                            000002
2SR. CAIXA, APOS O VENCIMENTO COBRAR 2% DE MULTA                                 NAO RECEBER APOS 30 DIAS DO VENCIMENTO.                                                                                                                                                                                                         10102200000000000001010220000000000000       0090339900006270250351102216000003
100000000000000000000009033990000627000000000000000000000000010002020007294310221300000000002            2  01072943102224102200000003784250000000001N071022000000000000000000000000000000000000000000000000000000000000000100007294351805CLAUDENIR APARECIDO VACARI              RUA CARLOS JOSE BORSTENS - 50 AP.93 - AV            11702750                                                            000005
2SR. CAIXA, APOS O VENCIMENTO COBRAR 2% DE MULTA                                 NAO RECEBER APOS 30 DIAS DO VENCIMENTO.                                                                                                                                                                                                         10102200000000000001010220000000000000       0090339900006270072943102213000006
100000000000000000000009033990000627000000000000000000000000010002020005071410221400000000002            2  01050714102224102200000003713050000000001N071022000000000000000000000000000000000000000000000000000000000000000100005071481855ERIBALDO SANTANA CARVALHO               RUA HONDURAS - 477 - PARQUE DAS AMERICAS            09351070                                                            000008
2SR. CAIXA, APOS O VENCIMENTO COBRAR 2% DE MULTA                                 NAO RECEBER APOS 30 DIAS DO VENCIMENTO.                                                                                                                                                                                                         10102200000000000001010220000000000000       0090339900006270050714102214000009
100000000000000000000009033990000627000000000000000000000000010002020002841710221800000000002            2  01028417102224102200000003473890000000001N071022000000000000000000000000000000000000000000000000000000000000000100002841756416LUCIANA PINHEIRO DE ASSIS NUNES         RUA RIO ACIMA - 81 - RIACHO GRANDE - SAO            09830100                                                            000011
2SR. CAIXA, APOS O VENCIMENTO COBRAR 2% DE MULTA                                 NAO RECEBER APOS 30 DIAS DO VENCIMENTO.                                                                                                                                                                                                         10102200000000000001010220000000000000       0090339900006270028417102218000012
100000000000000000000009033990000627000000000000000000000000010002020084302010221700000000002            2  01843020102224102200000003490570000000001N071022000000000000000000000000000000000000000000000000000000000000000100084302097868FAUSTO TADEU VILOR                      RUA ANTONIO TAVARES - 466 - BAIRRO CAMBU            01542010                                                            000014
2SR. CAIXA, APOS O VENCIMENTO COBRAR 2% DE MULTA                                 NAO RECEBER APOS 30 DIAS DO VENCIMENTO.                                                                                                                                                                                                         10102200000000000001010220000000000000       0090339900006270843020102217000015
100000000000000000000009033990000627000000000000000000000000010002020028804210221700000000002            2  01288042102224102200000003429500000000001N071022000000000000000000000000000000000000000000000000000000000000000100028804202882GILBERTO FABIANO CABRAL DE CAMARGO      RUA CARLOS JOSE BORSTENS - 50 AP.44 - AV            11702750                                                            000017
2SR. CAIXA, APOS O VENCIMENTO COBRAR 2% DE MULTA                                 NAO RECEBER APOS 30 DIAS DO VENCIMENTO.                                                                                                                                                                                                         10102200000000000001010220000000000000       0090339900006270288042102217000018
100000000000000000000009033990000627000000000000000000000000010002020000991710221P00000000002            2  01009917102224102200000003347340000000001N071022000000000000000000000000000000000000000000000000000000000000000100000991748808JAILSON BORGES DE ANDRADE               RUA IPIOBUNA - 45 - JARDIM CUMBICA - GUA            07240040                                                            000020
2SR. CAIXA, APOS O VENCIMENTO COBRAR 2% DE MULTA                                 NAO RECEBER APOS 30 DIAS DO VENCIMENTO.                                                                                                                                                                                                         10102200000000000001010220000000000000       009033990000627000991710221P000021
100000000000000000000009033990000627000000000000000000000000010002020022151610221600000000002            2  01221516102224102200000003327900000000001N071022000000000000000000000000000000000000000000000000000000000000000100022151666816SAMIR LIMA DE ARAUJO                    AVENIDA GUARAPIRANGA - 2616 AP.131 BL.14            04902005                                                            000023
2SR. CAIXA, APOS O VENCIMENTO COBRAR 2% DE MULTA                                 NAO RECEBER APOS 30 DIAS DO VENCIMENTO.                                                                                                                                                                                                         10102200000000000001010220000000000000       0090339900006270221516102216000024
100000000000000000000009033990000627000000000000000000000000010002020022313110221800000000002            2  01223131102226102200000002560950000000001N071022000000000000000000000000000000000000000000000000000000000000000100022313116824ROSA MARIA BRITO DA SILVA               RUA SERVIDAO DE SAO MARCOS - 128 CASA 1             04930300                                                            000026
2SR. CAIXA, APOS O VENCIMENTO COBRAR 2% DE MULTA                                 NAO RECEBER APOS 30 DIAS DO VENCIMENTO.                                                                                                                                                                                                         10102200000000000001010220000000000000       0090339900006270223131102218000027
100000000000000000000009033990000627000000000000000000000000010002020027538010221P00000000002            2  01275380102226102200000002569880000000001N071022000000000000000000000000000000000000000000000000000000000000000100027538087249MARA LUCIA MENEZES DA COSTA             RUA LEILA  - 183 - ITAQUERA - SAO PAULO             08240020                                                            000029
2SR. CAIXA, APOS O VENCIMENTO COBRAR 2% DE MULTA                                 NAO RECEBER APOS 30 DIAS DO VENCIMENTO.                                                                                                                                                                                                         10102200000000000001010220000000000000       009033990000627027538010221P000030
100000000000000000000009033990000627000000000000000000000000010002020031278410221600000000002            2  01312784102224102200000003214850000000001N071022000000000000000000000000000000000000000000000000000000000000000100031278411836JEFFERSON DE PIERI PIRES ZAMUNER        RUA MANOEL ARCE - 277 - PARQUE BANCARIO             03922150                                                            000032
2SR. CAIXA, APOS O VENCIMENTO COBRAR 2% DE MULTA                                 NAO RECEBER APOS 30 DIAS DO VENCIMENTO.                                                                                                                                                                                                         10102200000000000001010220000000000000       0090339900006270312784102216000033
100000000000000000000009033990000627000000000000000000000000010002020019185710221800000000002            2  01191857102226102200000002338650000000001N071022000000000000000000000000000000000000000000000000000000000000000100019185769800AGUINALDO PESSOA DE LIMA                RUA JANUARIO ZINGARO - 252 AP.303 BL.04             05794300                                                            000035
2SR. CAIXA, APOS O VENCIMENTO COBRAR 2% DE MULTA                                 NAO RECEBER APOS 30 DIAS DO VENCIMENTO.                                                                                                                                                                                                         10102200000000000001010220000000000000       0090339900006270191857102218000036
100000000000000000000009033990000627000000000000000000000000010002020033303610221900000000002            2  01333036102226102200000002518920000000001N071022000000000000000000000000000000000000000000000000000000000000000100033303645809JESSICA DA SILVA FREITAS                RUA ARILDO VALADAO - 120 - JARDIM GUAEMB            04814600                                                            000038
2SR. CAIXA, APOS O VENCIMENTO COBRAR 2% DE MULTA                                 NAO RECEBER APOS 30 DIAS DO VENCIMENTO.                                                                                                                                                                                                         10102200000000000001010220000000000000       0090339900006270333036102219000039
100000000000000000000009033990000627000000000000000000000000010002020006422610221400000000002            2  01064226102224102200000003481760000000001N071022000000000000000000000000000000000000000000000000000000000000000100006422607881GERALDO ALVES DA SILVA                  RUA CARLOS JOSE BORSTENS - 50 AP.14 - AV            11702750                                                            000041
2SR. CAIXA, APOS O VENCIMENTO COBRAR 2% DE MULTA                                 NAO RECEBER APOS 30 DIAS DO VENCIMENTO.                                                                                                                                                                                                         10102200000000000001010220000000000000       0090339900006270064226102214000042
100000000000000000000009033990000627000000000000000000000000010002020033877110221600000000002            2  01338771102226102200000002361560000000001N071022000000000000000000000000000000000000000000000000000000000000000100033877129870HELDER FERREIRA VIANA                   RUA JOSE CALIXTO DO CARMO - 286 AP.35 -             11702690                                                            000044
2SR. CAIXA, APOS O VENCIMENTO COBRAR 2% DE MULTA                                 NAO RECEBER APOS 30 DIAS DO VENCIMENTO.                                                                                                                                                                                                         10102200000000000001010220000000000000       0090339900006270338771102216000045
100000000000000000000009033990000627000000000000000000000000010002020028290710221P00000000002            2  01282907102226102200000002176510000000001N071022000000000000000000000000000000000000000000000000000000000000000100028290719809VANESSA GIANGARRELLI PEREIRA            RUA BARINEL - 72 - JARDIM COTCHING - SAO            03462130                                                            000047
2SR. CAIXA, APOS O VENCIMENTO COBRAR 2% DE MULTA                                 NAO RECEBER APOS 30 DIAS DO VENCIMENTO.                                                                                                                                                                                                         10102200000000000001010220000000000000       009033990000627028290710221P000048
100000000000000000000009033990000627000000000000000000000000010002020087573010221500000000002            2  01875730102226102200000002376710000000001N071022000000000000000000000000000000000000000000000000000000000000000100087573059604VANDERLEY DE ASSIS                      RUA ROMEU ALBANI - 268 - JARDIM PARQUE R            13803810                                                            000050
2SR. CAIXA, APOS O VENCIMENTO COBRAR 2% DE MULTA                                 NAO RECEBER APOS 30 DIAS DO VENCIMENTO.                                                                                                                                                                                                         10102200000000000001010220000000000000       0090339900006270875730102215000051
100000000000000000000009033990000627000000000000000000000000010002020010825510221200000000002            2  01108255102226102200000002480210000000001N071022000000000000000000000000000000000000000000000000000000000000000100010825513847JOSE APARECIDO PEREIRA                  RUA GENERAL OSORIO - 305 - JARDIM TRINTA            11515130                                                            000053
2SR. CAIXA, APOS O VENCIMENTO COBRAR 2% DE MULTA                                 NAO RECEBER APOS 30 DIAS DO VENCIMENTO.                                                                                                                                                                                                         10102200000000000001010220000000000000       0090339900006270108255102212000054
100000000000000000000009033990000627000000000000000000000000010002020039115110221400000000002            2  01391151102226102200000003057290000000001N071022000000000000000000000000000000000000000000000000000000000000000100039115139840LAIS CRISTINA RIBEIRO ANDO              RUA JOSE CALIXTO DO CARMO - 286 AP.65 -             11702690                                                            000056
2SR. CAIXA, APOS O VENCIMENTO COBRAR 2% DE MULTA                                 NAO RECEBER APOS 30 DIAS DO VENCIMENTO.                                                                                                                                                                                                         10102200000000000001010220000000000000       0090339900006270391151102214000057
100000000000000000000009033990000627000000000000000000000000010002020029617510221200000000002            2  01296175102224102200000003417450000000001N071022000000000000000000000000000000000000000000000000000000000000000100029617510553MARILENE SOUZA DE OLIVEIRA              RUA DAS MONCOES - 460 AP.95 - BAIRRO JAR            09090521                                                            000059
2SR. CAIXA, APOS O VENCIMENTO COBRAR 2% DE MULTA                                 NAO RECEBER APOS 30 DIAS DO VENCIMENTO.                                                                                                                                                                                                         10102200000000000001010220000000000000       0090339900006270296175102212000060
100000000000000000000009033990000627000000000000000000000000010002020000593210221200000000002            2  01005932102224102200000003748100000000001N071022000000000000000000000000000000000000000000000000000000000000000100000593293860WALTER HELIO BARBOSA FILHO              AVENIDA ANTONIO FREDERICO OZANAN - 9500             13214206                                                            000062
2SR. CAIXA, APOS O VENCIMENTO COBRAR 2% DE MULTA                                 NAO RECEBER APOS 30 DIAS DO VENCIMENTO.                                                                                                                                                                                                         10102200000000000001010220000000000000       0090339900006270005932102212000063
100000000000000000000009033990000627000000000000000000000000010002020065584110221400000000002            2  01655841102224102200000001967560000000001N071022000000000000000000000000000000000000000000000000000000000000000100065584147834JOAQUIM DA COSTA MACHADO NETO           RUA CARLOS JOSE BORSTENS - 50 AP.42 - AV            11702750                                                            000065
2SR. CAIXA, APOS O VENCIMENTO COBRAR 2% DE MULTA                                 NAO RECEBER APOS 30 DIAS DO VENCIMENTO.                                                                                                                                                                                                         10102200000000000001010220000000000000       0090339900006270655841102214000066
100000000000000000000009033990000627000000000000000000000000010002020065584110222200000000002            2  01655841102224102200000001967550000000001N071022000000000000000000000000000000000000000000000000000000000000000100065584147834JOAQUIM DA COSTA MACHADO NETO           RUA CARLOS JOSE BORSTENS - 50 AP.42 - AV            11702750                                                            000068
2SR. CAIXA, APOS O VENCIMENTO COBRAR 2% DE MULTA                                 NAO RECEBER APOS 30 DIAS DO VENCIMENTO.                                                                                                                                                                                                         10102200000000000001010220000000000000       0090339900006270655841102222000069
100000000000000000000009033990000627000000000000000000000000010002020006684610221700000000002            2  01066846102226102200000002518630000000001N071022000000000000000000000000000000000000000000000000000000000000000100006684623884LAUDINOR VIEIRA GARCIA                  RUA CANDIDO SALES - 374 - JARDIM PRESIDE            07172000                                                            000071
2SR. CAIXA, APOS O VENCIMENTO COBRAR 2% DE MULTA                                 NAO RECEBER APOS 30 DIAS DO VENCIMENTO.                                                                                                                                                                                                         10102200000000000001010220000000000000       0090339900006270066846102217000072
100000000000000000000009033990000627000000000000000000000000010002020011663510221800000000002            2  01116635102226102200000002536740000000001N071022000000000000000000000000000000000000000000000000000000000000000100011663589844MARIA SAVIO QUARELLO                    AVENIDA MENDONCA DRUMOND - 321 - JARDIM             03524030                                                            000074
2SR. CAIXA, APOS O VENCIMENTO COBRAR 2% DE MULTA                                 NAO RECEBER APOS 30 DIAS DO VENCIMENTO.                                                                                                                                                                                                         10102200000000000001010220000000000000       0090339900006270116635102218000075
100000000000000000000009033990000627000000000000000000000000010002020010083810221P00000000002            2  01100838102226102200000002450920000000001N071022000000000000000000000000000000000000000000000000000000000000000100010083824855IONE FERREIRA COUTO DA SILVA            RUA JOSE RAGEL DE MESQUITA - 60 CS.01 -             07799999                                                            000077
2SR. CAIXA, APOS O VENCIMENTO COBRAR 2% DE MULTA                                 NAO RECEBER APOS 30 DIAS DO VENCIMENTO.                                                                                                                                                                                                         10102200000000000001010220000000000000       009033990000627010083810221P000078
100000000000000000000009033990000627000000000000000000000000010002020031010710221500000000002            2  01310107102226102200000002405140000000001N071022000000000000000000000000000000000000000000000000000000000000000100031010705890ANDRE GONZALEZ RABELLO                  RUA PARAIBA - 106 AP.61 - POMPEIA - SANT            11065470                                                            000080
2SR. CAIXA, APOS O VENCIMENTO COBRAR 2% DE MULTA                                 NAO RECEBER APOS 30 DIAS DO VENCIMENTO.                                                                                                                                                                                                         10102200000000000001010220000000000000       0090339900006270310107102215000081
100000000000000000000009033990000627000000000000000000000000010002020005351010221400000000002            2  01053510102226102200000002255050000000001N071022000000000000000000000000000000000000000000000000000000000000000100005351015897VALERIA ALVES MARCOLINO HINNIGER        RUA JOSE CALIXTO DO CARMO - 286 AP.92 -             11702690                                                            000083
2SR. CAIXA, APOS O VENCIMENTO COBRAR 2% DE MULTA                                 NAO RECEBER APOS 30 DIAS DO VENCIMENTO.                                                                                                                                                                                                         10102200000000000001010220000000000000       0090339900006270053510102214000084
100000000000000000000009033990000627000000000000000000000000010002020031898710221P00000000002            2  01318987102224102200000003586340000000001N071022000000000000000000000000000000000000000000000000000000000000000100031898775800ANITA MARTINS COLOMBO                   RUA CARLOS JOSE BORSTENS - 50 AP.115 - A            11702750                                                            000086
2SR. CAIXA, APOS O VENCIMENTO COBRAR 2% DE MULTA                                 NAO RECEBER APOS 30 DIAS DO VENCIMENTO.                                                                                                                                                                                                         10102200000000000001010220000000000000       009033990000627031898710221P000087
100000000000000000000009033990000627000000000000000000000000010002020037983410221P00000000002            2  01379834102226102200000002648990000000001N071022000000000000000000000000000000000000000000000000000000000000000100037983484801JOSE ERIVALDO SOUZA DO NASCIMENTO RAMOS RUA LETICIA - 250 - JARDIM GUARUJA - SAO            05877260                                                            000089
2SR. CAIXA, APOS O VENCIMENTO COBRAR 2% DE MULTA                                 NAO RECEBER APOS 30 DIAS DO VENCIMENTO.                                                                                                                                                                                                         10102200000000000001010220000000000000       009033990000627037983410221P000090
100000000000000000000009033990000627000000000000000000000000010002020056289210221000000000002            2  01562892102226102200000002001150000000001N071022000000000000000000000000000000000000000000000000000000000000000100056289286900PEDRO RIBEIRO                           RUA CONEGO MANOEL VAZ - 48 - SANTANA - S            02019050                                                            000092
2SR. CAIXA, APOS O VENCIMENTO COBRAR 2% DE MULTA                                 NAO RECEBER APOS 30 DIAS DO VENCIMENTO.                                                                                                                                                                                                         10102200000000000001010220000000000000       0090339900006270562892102210000093
100000000000000000000009033990000627000000000000000000000000010002020034735310221700000000002            2  01347353102226102200000002746490000000001N071022000000000000000000000000000000000000000000000000000000000000000100034735328866DIEGO FELIPE MOLINA DA SILVA E SOUSA    RUA EMILIA PAULISTA - 135 - VILA TIRADEN            05364020                                                            000095
2SR. CAIXA, APOS O VENCIMENTO COBRAR 2% DE MULTA                                 NAO RECEBER APOS 30 DIAS DO VENCIMENTO.                                                                                                                                                                                                         10102200000000000001010220000000000000       0090339900006270347353102217000096
100000000000000000000009033990000627000000000000000000000000010002020034812210221000000000002            2  01348122102224102200000004746690000000001N071022000000000000000000000000000000000000000000000000000000000000000100034812226880THAIS TORQUATO MIMOSO DE JESUS          RUA ARNALDO CINTRA - 416 AP.104 TORRE 2             03088000                                                            000098
2SR. CAIXA, APOS O VENCIMENTO COBRAR 2% DE MULTA                                 NAO RECEBER APOS 30 DIAS DO VENCIMENTO.                                                                                                                                                                                                         10102200000000000001010220000000000000       0090339900006270348122102210000099
100000000000000000000009033990000627000000000000000000000000010002020012849410221700000000002            2  01128494102226102200000004731450000000001N071022000000000000000000000000000000000000000000000000000000000000000100012849428809MOISES CLAUDIO DO ROSARIO               AVENIDA DR. AUGUSTO DE TOLEDO - 510 AP.1            09541520                                                            000101
2SR. CAIXA, APOS O VENCIMENTO COBRAR 2% DE MULTA                                 NAO RECEBER APOS 30 DIAS DO VENCIMENTO.                                                                                                                                                                                                         10102200000000000001010220000000000000       0090339900006270128494102217000102
100000000000000000000009033990000627000000000000000000000000010002020003658610221100000000002            2  01036586102226102200000001954650000000001N071022000000000000000000000000000000000000000000000000000000000000000100003658668814MARINEZ VALENTIN                        RUA JOSE CALIXTO DO CARMO - 286 AP.95 -             11702690                                                            000104
2SR. CAIXA, APOS O VENCIMENTO COBRAR 2% DE MULTA                                 NAO RECEBER APOS 30 DIAS DO VENCIMENTO.                                                                                                                                                                                                         10102200000000000001010220000000000000       0090339900006270036586102211000105
100000000000000000000009033990000627000000000000000000000000010002020003658610222P00000000002            2  01036586102226102200000001954640000000001N071022000000000000000000000000000000000000000000000000000000000000000100003658668814MARINEZ VALENTIN                        RUA JOSE CALIXTO DO CARMO - 286 AP.95 -             11702690                                                            000107
2SR. CAIXA, APOS O VENCIMENTO COBRAR 2% DE MULTA                                 NAO RECEBER APOS 30 DIAS DO VENCIMENTO.                                                                                                                                                                                                         10102200000000000001010220000000000000       009033990000627003658610222P000108
100000000000000000000009033990000627000000000000000000000000010002020014087410221P00000000002            2  01140874102226102200000002612240000000001N071022000000000000000000000000000000000000000000000000000000000000000100014087484874SERGIO SANTOS DO NASCIMENTO             RUA JOSE CALIXTO DO CARMO - 286 AP.52 -             11702690                                                            000110
2SR. CAIXA, APOS O VENCIMENTO COBRAR 2% DE MULTA                                 NAO RECEBER APOS 30 DIAS DO VENCIMENTO.                                                                                                                                                                                                         10102200000000000001010220000000000000       009033990000627014087410221P000111
100000000000000000000009033990000627000000000000000000000000010002020026834510221900000000002            2  01268345102226102200000002406870000000001N071022000000000000000000000000000000000000000000000000000000000000000100026834550895RAQUEL CARDOSO JOAO                     RUA PEDROSO XAVIER - 277 AP.23 TORRE 01             02732020                                                            000113
2SR. CAIXA, APOS O VENCIMENTO COBRAR 2% DE MULTA                                 NAO RECEBER APOS 30 DIAS DO VENCIMENTO.                                                                                                                                                                                                         10102200000000000001010220000000000000       0090339900006270268345102219000114
100000000000000000000009033990000627000000000000000000000000010002020039540010221700000000002            2  01395400102226102200000002366280000000001N071022000000000000000000000000000000000000000000000000000000000000000100039540008816LUZINETE CLARINDO SILVA                 RUA DEINOS - 275 - BAIRRO CIDADE SATELIT            08340100                                                            000116
2SR. CAIXA, APOS O VENCIMENTO COBRAR 2% DE MULTA                                 NAO RECEBER APOS 30 DIAS DO VENCIMENTO.                                                                                                                                                                                                         10102200000000000001010220000000000000       0090339900006270395400102217000117
100000000000000000000009033990000627000000000000000000000000010002020003311010221400000000002            2  01033110102226102200000002464200000000001N071022000000000000000000000000000000000000000000000000000000000000000100003311030877SEBASTIAO SARUVA NETO                   RUA HAMILTON REGIS - 559 - BAIRRO DO LIM            08051440                                                            000119
2SR. CAIXA, APOS O VENCIMENTO COBRAR 2% DE MULTA                                 NAO RECEBER APOS 30 DIAS DO VENCIMENTO.                                                                                                                                                                                                         10102200000000000001010220000000000000       0090339900006270033110102214000120
100000000000000000000009033990000627000000000000000000000000010002020090091910221000000000002            2  01900919102226102200000002355410000000001N071022000000000000000000000000000000000000000000000000000000000000000100090091990882JUECIR CARVALHO DA LUZ                  RUA JOSE CALIXTO DO CARMO - 286 AP.114 -            11702690                                                            000122
2SR. CAIXA, APOS O VENCIMENTO COBRAR 2% DE MULTA                                 NAO RECEBER APOS 30 DIAS DO VENCIMENTO.                                                                                                                                                                                                         10102200000000000001010220000000000000       0090339900006270900919102210000123
100000000000000000000009033990000627000000000000000000000000010002020037325910221200000000002            2  01373259102226102200000001927570000000001N071022000000000000000000000000000000000000000000000000000000000000000100037325923830MARIA AUGUSTA OLIVEIRA DE ANDRADE       RUA JOSE CALIXTO DO CARMO - 286 AP.124 -            11702690                                                            000125
2SR. CAIXA, APOS O VENCIMENTO COBRAR 2% DE MULTA                                 NAO RECEBER APOS 30 DIAS DO VENCIMENTO.                                                                                                                                                                                                         10102200000000000001010220000000000000       0090339900006270373259102212000126
100000000000000000000009033990000627000000000000000000000000010002020012478810221P00000000002            2  01124788102224102200000003507880000000001N071022000000000000000000000000000000000000000000000000000000000000000100012478899809VITORIA BATISTA QUEIROZ                 RUA CARVALHO DE FREITAS - 255 AP.71A - V            05728030                                                            000128
2SR. CAIXA, APOS O VENCIMENTO COBRAR 2% DE MULTA                                 NAO RECEBER APOS 30 DIAS DO VENCIMENTO.                                                                                                                                                                                                         10102200000000000001010220000000000000       009033990000627012478810221P000129
100000000000000000000009033990000627000000000000000000000000010002020013184810221000000000002            2  01131848102226102200000002328630000000001N071022000000000000000000000000000000000000000000000000000000000000000100013184856810SYDNEY HENRIQUE GAMARANO JUNIOR         RUA JOSE CALIXTO DO CARMO - 286 AP.125 -            11702690                                                            000131
2SR. CAIXA, APOS O VENCIMENTO COBRAR 2% DE MULTA                                 NAO RECEBER APOS 30 DIAS DO VENCIMENTO.                                                                                                                                                                                                         10102200000000000001010220000000000000       0090339900006270131848102210000132
100000000000000000000009033990000627000000000000000000000000010002020097989910221400000000002            2  01979899102226102200000001618260000000001N071022000000000000000000000000000000000000000000000000000000000000000100097989924820NELSON LUIS BERRIBILLE                  RUA SILVEIRA IGNACIO SOBRINHO - 965 - VI            13560294                                                            000134
2SR. CAIXA, APOS O VENCIMENTO COBRAR 2% DE MULTA                                 NAO RECEBER APOS 30 DIAS DO VENCIMENTO.                                                                                                                                                                                                         10102200000000000001010220000000000000       0090339900006270979899102214000135
100000000000000000000009033990000627000000000000000000000000010002020097989910222200000000002            2  01979899102226102200000001618250000000001N071022000000000000000000000000000000000000000000000000000000000000000100097989924820NELSON LUIS BERRIBILLE                  RUA SILVEIRA IGNACIO SOBRINHO - 965 - VI            13560294                                                            000137
2SR. CAIXA, APOS O VENCIMENTO COBRAR 2% DE MULTA                                 NAO RECEBER APOS 30 DIAS DO VENCIMENTO.                                                                                                                                                                                                         10102200000000000001010220000000000000       0090339900006270979899102222000138
100000000000000000000009033990000627000000000000000000000000010002020032341810221300000000002            2  01323418102224102200000003643700000000001N071022000000000000000000000000000000000000000000000000000000000000000100032341847803PRISCILA ALVES DE FRANCA MIRANDA        RUA CARLOS JOSE BORSTENS - 50 AP.91 - AV            11702750                                                            000140
2SR. CAIXA, APOS O VENCIMENTO COBRAR 2% DE MULTA                                 NAO RECEBER APOS 30 DIAS DO VENCIMENTO.                                                                                                                                                                                                         10102200000000000001010220000000000000       0090339900006270323418102213000141
100000000000000000000009033990000627000000000000000000000000010002020016050610221900000000002            2  01160506102224102200000003382050000000001N071022000000000000000000000000000000000000000000000000000000000000000100016050684898ANDRE RODRIGUES DE OLIVEIRA             RUA CORACAO PAULISTA - 14 - FAZENDA ITAI            08132430                                                            000143
2SR. CAIXA, APOS O VENCIMENTO COBRAR 2% DE MULTA                                 NAO RECEBER APOS 30 DIAS DO VENCIMENTO.                                                                                                                                                                                                         10102200000000000001010220000000000000       0090339900006270160506102219000144
100000000000000000000009033990000627000000000000000000000000010002020021464910221200000000002            2  01214649102224102200000005330210000000001N071022000000000000000000000000000000000000000000000000000000000000000100021464965846ANDREA APARECIDA DE OLIVEIRA PECCI      RUA ANTONIO BOZ MARFIL - 103 - PARQUE DO            05396020                                                            000146
2SR. CAIXA, APOS O VENCIMENTO COBRAR 2% DE MULTA                                 NAO RECEBER APOS 30 DIAS DO VENCIMENTO.                                                                                                                                                                                                         10102200000000000001010220000000000000       0090339900006270214649102212000147
100000000000000000000009033990000627000000000000000000000000010002020030348110221400000000002            2  01303481102224102200000003229560000000001N071022000000000000000000000000000000000000000000000000000000000000000100030348198892KELLY CRISTINA CORDEIRO                 RUA CARLOS JOSE BORSTENS - 50 AP.25 - AV            11702750                                                            000149
2SR. CAIXA, APOS O VENCIMENTO COBRAR 2% DE MULTA                                 NAO RECEBER APOS 30 DIAS DO VENCIMENTO.                                                                                                                                                                                                         10102200000000000001010220000000000000       0090339900006270303481102214000150
9                                                                                                                                                                                                                                                                                                                                                                                                         000151