01REMESSA01COBRANCA       00000000000008017025HB SANTOS CONSTRUTORA E INCORP237BRADESCO       010218        MX0000048                                                                                                                                                                                                                                                                                     000001
100000000000000000000009033990000627000000000000000000000000010002020029671502181000000000002            2  01296715021809021800000013601490000000001N010218000000000000000000000000000000000000000000000000000000000000000100029671526845ROGERIO CONSENTINO                      RUA CARLOS MAZER  - 678 - VILA CARMOSINA            08290700                                                            000002
2SR. CAIXA, APOS O VENCIMENTO COBRAR 2% DE MULTA                                 NAO RECEBER APOS 30 DIAS DO VENCIMENTO.                                                                                                                                                                                                         01021800000000000000102180000000000000       0090339900006270296715021810000003
100000000000000000000009033990000627000000000000000000000000010002020029671502182900000000002            2  01296715021809021800000002202420000000001N010218000000000000000000000000000000000000000000000000000000000000000100029671526845ROGERIO CONSENTINO                      RUA CARLOS MAZER  - 678 - VILA CARMOSINA            08290700                                                            000005
2SR. CAIXA, APOS O VENCIMENTO COBRAR 2% DE MULTA                                 NAO RECEBER APOS 30 DIAS DO VENCIMENTO.                                                                                                                                                                                                         01021800000000000000102180000000000000       0090339900006270296715021829000006
100000000000000000000009033990000627000000000000000000000000010002020003863002181200000000002            2  01038630021809021800000037446380000000001N010218000000000000000000000000000000000000000000000000000000000000000100003863075803HERALDO MENQUINI                        RUA OCEANICA AMABILE - 346 AP.415 - CIDA            11704420                                                            000008
2SR. CAIXA, APOS O VENCIMENTO COBRAR 2% DE MULTA                                 NAO RECEBER APOS 30 DIAS DO VENCIMENTO.                                                                                                                                                                                                         01021800000000000000102180000000000000       0090339900006270038630021812000009
100000000000000000000009033990000627000000000000000000000000010002020003863002182000000000002            2  01038630021809021800000002080360000000001N010218000000000000000000000000000000000000000000000000000000000000000100003863075803HERALDO MENQUINI                        RUA OCEANICA AMABILE - 346 AP.415 - CIDA            11704420                                                            000011
2SR. CAIXA, APOS O VENCIMENTO COBRAR 2% DE MULTA                                 NAO RECEBER APOS 30 DIAS DO VENCIMENTO.                                                                                                                                                                                                         01021800000000000000102180000000000000       0090339900006270038630021820000012
100000000000000000000009033990000627000000000000000000000000010002020013135202181400000000002            2  01131352021809021800000045799990000000001N010218000000000000000000000000000000000000000000000000000000000000000100013135261859EDUARDO ZANOLA                          RUA ROLANDO PIETRO BONINI - 46 - JARDIM             09781040                                                            000014
2SR. CAIXA, APOS O VENCIMENTO COBRAR 2% DE MULTA                                 NAO RECEBER APOS 30 DIAS DO VENCIMENTO.                                                                                                                                                                                                         01021800000000000000102180000000000000       0090339900006270131352021814000015
100000000000000000000009033990000627000000000000000000000000010002020013135202182200000000002            2  01131352021809021800000002544440000000001N010218000000000000000000000000000000000000000000000000000000000000000100013135261859EDUARDO ZANOLA                          RUA ROLANDO PIETRO BONINI - 46 - JARDIM             09781040                                                            000017
2SR. CAIXA, APOS O VENCIMENTO COBRAR 2% DE MULTA                                 NAO RECEBER APOS 30 DIAS DO VENCIMENTO.                                                                                                                                                                                                         01021800000000000000102180000000000000       0090339900006270131352021822000018
100000000000000000000009033990000627000000000000000000000000010002020029028402181P00000000002            2  01290284021809021800000002131130000000001N010218000000000000000000000000000000000000000000000000000000000000000100029028478825LEONARDO LOUZADA                        RUA ILHEUS - QUADRA 31 - 244 - BAIRRO CE            19274000                                                            000020
2SR. CAIXA, APOS O VENCIMENTO COBRAR 2% DE MULTA                                 NAO RECEBER APOS 30 DIAS DO VENCIMENTO.                                                                                                                                                                                                         01021800000000000000102180000000000000       009033990000627029028402181P000021
100000000000000000000009033990000627000000000000000000000000010002020032878502181700000000002            2  01328785021809021800000055438460000000001N010218000000000000000000000000000000000000000000000000000000000000000100032878512847LEONARDO MOURA MONIZ CALDEIRA           RUA BALSA - 682 AP.134 T.02 - VILA ARCAD            02910000                                                            000023
2SR. CAIXA, APOS O VENCIMENTO COBRAR 2% DE MULTA                                 NAO RECEBER APOS 30 DIAS DO VENCIMENTO.                                                                                                                                                                                                         01021800000000000000102180000000000000       0090339900006270328785021817000024
100000000000000000000009033990000627000000000000000000000000010002020032878502182500000000002            2  01328785021809021800000003079910000000001N010218000000000000000000000000000000000000000000000000000000000000000100032878512847LEONARDO MOURA MONIZ CALDEIRA           RUA BALSA - 682 AP.134 T.02 - VILA ARCAD            02910000                                                            000026
2SR. CAIXA, APOS O VENCIMENTO COBRAR 2% DE MULTA                                 NAO RECEBER APOS 30 DIAS DO VENCIMENTO.                                                                                                                                                                                                         01021800000000000000102180000000000000       0090339900006270328785021825000027
100000000000000000000009033990000627000000000000000000000000010002020016479002181400000000002            2  01164790021809021800000003276450000000001N010218000000000000000000000000000000000000000000000000000000000000000100016479002806LOURDES PEREIRA DE QUEIROZ SECANECHIA   RUA PAULINO CURSI - 437 - CIDADE SAO MAT            03960060                                                            000029
2SR. CAIXA, APOS O VENCIMENTO COBRAR 2% DE MULTA                                 NAO RECEBER APOS 30 DIAS DO VENCIMENTO.                                                                                                                                                                                                         01021800000000000000102180000000000000       0090339900006270164790021814000030
100000000000000000000009033990000627000000000000000000000000010002020019635002181100000000002            2  01196350021809021800000043513900000000001N010218000000000000000000000000000000000000000000000000000000000000000100019635091885IVAN VIEIRA SILVA                       ABRAO JORGE - 3001 - JARDIM INTEGRACAO -            14405397                                                            000032
2SR. CAIXA, APOS O VENCIMENTO COBRAR 2% DE MULTA                                 NAO RECEBER APOS 30 DIAS DO VENCIMENTO.                                                                                                                                                                                                         01021800000000000000102180000000000000       0090339900006270196350021811000033
100000000000000000000009033990000627000000000000000000000000010002020019635002182P00000000002            2  01196350021809021800000002417450000000001N010218000000000000000000000000000000000000000000000000000000000000000100019635091885IVAN VIEIRA SILVA                       ABRAO JORGE - 3001 - JARDIM INTEGRACAO -            14405397                                                            000035
2SR. CAIXA, APOS O VENCIMENTO COBRAR 2% DE MULTA                                 NAO RECEBER APOS 30 DIAS DO VENCIMENTO.                                                                                                                                                                                                         01021800000000000000102180000000000000       009033990000627019635002182P000036
100000000000000000000009033990000627000000000000000000000000010002020009361402181100000000002            2  01093614021809021800000047753270000000001N010218000000000000000000000000000000000000000000000000000000000000000100009361471805JOSE BARBOSA DA SILVA                   RUA ALFREDO INACIO TRINDADE  - 60 AP.44             02344100                                                            000038
2SR. CAIXA, APOS O VENCIMENTO COBRAR 2% DE MULTA                                 NAO RECEBER APOS 30 DIAS DO VENCIMENTO.                                                                                                                                                                                                         01021800000000000000102180000000000000       0090339900006270093614021811000039
100000000000000000000009033990000627000000000000000000000000010002020009361402182P00000000002            2  01093614021809021800000002378720000000001N010218000000000000000000000000000000000000000000000000000000000000000100009361471805JOSE BARBOSA DA SILVA                   RUA ALFREDO INACIO TRINDADE  - 60 AP.44             02344100                                                            000041
2SR. CAIXA, APOS O VENCIMENTO COBRAR 2% DE MULTA                                 NAO RECEBER APOS 30 DIAS DO VENCIMENTO.                                                                                                                                                                                                         01021800000000000000102180000000000000       009033990000627009361402182P000042
100000000000000000000009033990000627000000000000000000000000010002020012756902181500000000002            2  01127569021809021800000002053340000000001N010218000000000000000000000000000000000000000000000000000000000000000100012756959812ITAMAR JUVENAL DIAS DA SILVA            RUA ELISEU REINALDO MORAES VIEIRA - 90 A            02858000                                                            000044
2SR. CAIXA, APOS O VENCIMENTO COBRAR 2% DE MULTA                                 NAO RECEBER APOS 30 DIAS DO VENCIMENTO.                                                                                                                                                                                                         01021800000000000000102180000000000000       0090339900006270127569021815000045
100000000000000000000009033990000627000000000000000000000000010002020002731002181200000000002            2  01027310021809021800000048751410000000001N010218000000000000000000000000000000000000000000000000000000000000000100002731042842VALTER CERQUEIRA VILLA NOVA             RUA MACHADO - 106 - VILA AUGUSTA - GUARU            07025210                                                            000047
2SR. CAIXA, APOS O VENCIMENTO COBRAR 2% DE MULTA                                 NAO RECEBER APOS 30 DIAS DO VENCIMENTO.                                                                                                                                                                                                         01021800000000000000102180000000000000       0090339900006270027310021812000048
100000000000000000000009033990000627000000000000000000000000010002020002731002182000000000002            2  01027310021809021800000002427610000000001N010218000000000000000000000000000000000000000000000000000000000000000100002731042842VALTER CERQUEIRA VILLA NOVA             RUA MACHADO - 106 - VILA AUGUSTA - GUARU            07025210                                                            000050
2SR. CAIXA, APOS O VENCIMENTO COBRAR 2% DE MULTA                                 NAO RECEBER APOS 30 DIAS DO VENCIMENTO.                                                                                                                                                                                                         01021800000000000000102180000000000000       0090339900006270027310021820000051
100000000000000000000009033990000627000000000000000000000000010002020028802102181000000000002            2  01288021021809021800000002192100000000001N010218000000000000000000000000000000000000000000000000000000000000000100028802158894ELIEL HENRIQUE ZUZA                     RUA MONTE CASTELO - 262 AP.14 - BAIRRO A            11702720                                                            000053
2SR. CAIXA, APOS O VENCIMENTO COBRAR 2% DE MULTA                                 NAO RECEBER APOS 30 DIAS DO VENCIMENTO.                                                                                                                                                                                                         01021800000000000000102180000000000000       0090339900006270288021021810000054
100000000000000000000009033990000627000000000000000000000000010002020008739102181400000000002            2  01087391021809021800000041903380000000001N010218000000000000000000000000000000000000000000000000000000000000000100008739150895VANGEVALDO BATISTA SANT ANNA            TRAVESSA TOMAZIN - 02 - ERMELINO MATARAZ            03811125                                                            000056
2SR. CAIXA, APOS O VENCIMENTO COBRAR 2% DE MULTA                                 NAO RECEBER APOS 30 DIAS DO VENCIMENTO.                                                                                                                                                                                                         01021800000000000000102180000000000000       0090339900006270087391021814000057
100000000000000000000009033990000627000000000000000000000000010002020008739102182200000000002            2  01087391021809021800000002050160000000001N010218000000000000000000000000000000000000000000000000000000000000000100008739150895VANGEVALDO BATISTA SANT ANNA            TRAVESSA TOMAZIN - 02 - ERMELINO MATARAZ            03811125                                                            000059
2SR. CAIXA, APOS O VENCIMENTO COBRAR 2% DE MULTA                                 NAO RECEBER APOS 30 DIAS DO VENCIMENTO.                                                                                                                                                                                                         01021800000000000000102180000000000000       0090339900006270087391021822000060
100000000000000000000009033990000627000000000000000000000000010002020005313702181000000000002            2  01053137021811021800000001830110000000001N010218000000000000000000000000000000000000000000000000000000000000000100005313717863EDIMICIO JOSE DE ARAUJO                 PRACA NICOLAU GERAIGIRE - 680 CA A - JAR            11095110                                                            000062
2SR. CAIXA, APOS O VENCIMENTO COBRAR 2% DE MULTA                                 NAO RECEBER APOS 30 DIAS DO VENCIMENTO.                                                                                                                                                                                                         01021800000000000000102180000000000000       0090339900006270053137021810000063
100000000000000000000009033990000627000000000000000000000000010002020029433602181900000000002            2  01294336021811021800000001758110000000001N010218000000000000000000000000000000000000000000000000000000000000000100029433631897MARIO MUNIZ                             RUA LIBERO BADARO - 1115 - BAIRRO CIDADE            11704070                                                            000065
2SR. CAIXA, APOS O VENCIMENTO COBRAR 2% DE MULTA                                 NAO RECEBER APOS 30 DIAS DO VENCIMENTO.                                                                                                                                                                                                         01021800000000000000102180000000000000       0090339900006270294336021819000066
100000000000000000000009033990000627000000000000000000000000010002020001847202181700000000002            2  01018472021811021800000001618580000000001N010218000000000000000000000000000000000000000000000000000000000000000100001847204864AMERICA CONCEICAO DA SILVA              RUA CAMINHO DO GUARAMAR - 199 AP.11 BLOC            11721050                                                            000068
2SR. CAIXA, APOS O VENCIMENTO COBRAR 2% DE MULTA                                 NAO RECEBER APOS 30 DIAS DO VENCIMENTO.                                                                                                                                                                                                         01021800000000000000102180000000000000       0090339900006270018472021817000069
100000000000000000000009033990000627000000000000000000000000010002020005029802181100000000002            2  01050298021809021800000041450480000000001N010218000000000000000000000000000000000000000000000000000000000000000100005029828885LAURINETE DA CONCEICAO DE NORONHA       RUA MARIA LUCIA DE TOLEDO LEITE MORAES -            04434040                                                            000071
2SR. CAIXA, APOS O VENCIMENTO COBRAR 2% DE MULTA                                 NAO RECEBER APOS 30 DIAS DO VENCIMENTO.                                                                                                                                                                                                         01021800000000000000102180000000000000       0090339900006270050298021811000072
100000000000000000000009033990000627000000000000000000000000010002020005029802182P00000000002            2  01050298021809021800000002093520000000001N010218000000000000000000000000000000000000000000000000000000000000000100005029828885LAURINETE DA CONCEICAO DE NORONHA       RUA MARIA LUCIA DE TOLEDO LEITE MORAES -            04434040                                                            000074
2SR. CAIXA, APOS O VENCIMENTO COBRAR 2% DE MULTA                                 NAO RECEBER APOS 30 DIAS DO VENCIMENTO.                                                                                                                                                                                                         01021800000000000000102180000000000000       009033990000627005029802182P000075
100000000000000000000009033990000627000000000000000000000000010002020027682102181000000000002            2  01276821021811021800000001706330000000001N010218000000000000000000000000000000000000000000000000000000000000000100027682175818ALINE TEIXEIRA                          RUA CRUZEIRO DO SUL - 309 - JARDIM BOM P            06385060                                                            000077
2SR. CAIXA, APOS O VENCIMENTO COBRAR 2% DE MULTA                                 NAO RECEBER APOS 30 DIAS DO VENCIMENTO.                                                                                                                                                                                                         01021800000000000000102180000000000000       0090339900006270276821021810000078
100000000000000000000009033990000627000000000000000000000000010002020013388902181300000000002            2  01133889021811021800000001713890000000001N010218000000000000000000000000000000000000000000000000000000000000000100013388936889NEUTON DE SOUZA RAMOS                   RUA MARIA CRISTINA - 932 - JARDIM CASQUE            11533160                                                            000080
2SR. CAIXA, APOS O VENCIMENTO COBRAR 2% DE MULTA                                 NAO RECEBER APOS 30 DIAS DO VENCIMENTO.                                                                                                                                                                                                         01021800000000000000102180000000000000       0090339900006270133889021813000081
100000000000000000000009033990000627000000000000000000000000010002020012774902181300000000002            2  01127749021811021800000001746050000000001N010218000000000000000000000000000000000000000000000000000000000000000100012774906865JOSE MILTON SANTIAGO                    RUA BATATAIS - 47 - CIDADE ESTELA - POA             08563140                                                            000083
2SR. CAIXA, APOS O VENCIMENTO COBRAR 2% DE MULTA                                 NAO RECEBER APOS 30 DIAS DO VENCIMENTO.                                                                                                                                                                                                         01021800000000000000102180000000000000       0090339900006270127749021813000084
100000000000000000000009033990000627000000000000000000000000010002020004234902181900000000002            2  01042349021809021800000067594890000000001N010218000000000000000000000000000000000000000000000000000000000000000100004234989835LUIZ ISRAEL DA COSTA                    AVENIDA FERNANDO PACHECO JORDAO - 907 -             08121510                                                            000086
2SR. CAIXA, APOS O VENCIMENTO COBRAR 2% DE MULTA                                 NAO RECEBER APOS 30 DIAS DO VENCIMENTO.                                                                                                                                                                                                         01021800000000000000102180000000000000       0090339900006270042349021819000087
100000000000000000000009033990000627000000000000000000000000010002020004234902182700000000002            2  01042349021809021800000003050790000000001N010218000000000000000000000000000000000000000000000000000000000000000100004234989835LUIZ ISRAEL DA COSTA                    AVENIDA FERNANDO PACHECO JORDAO - 907 -             08121510                                                            000089
2SR. CAIXA, APOS O VENCIMENTO COBRAR 2% DE MULTA                                 NAO RECEBER APOS 30 DIAS DO VENCIMENTO.                                                                                                                                                                                                         01021800000000000000102180000000000000       0090339900006270042349021827000090
100000000000000000000009033990000627000000000000000000000000010002020016294102181900000000002            2  01162941021809021800000002078510000000001N010218000000000000000000000000000000000000000000000000000000000000000100016294119812JURACY FELIX DE ARRUDA                  RUA ERNA - 13 - ALTO DA MOOCA - SAO PAUL            03165050                                                            000092
2SR. CAIXA, APOS O VENCIMENTO COBRAR 2% DE MULTA                                 NAO RECEBER APOS 30 DIAS DO VENCIMENTO.                                                                                                                                                                                                         01021800000000000000102180000000000000       0090339900006270162941021819000093
100000000000000000000009033990000627000000000000000000000000010002020005613802181300000000002            2  01056138021811021800000001605900000000001N010218000000000000000000000000000000000000000000000000000000000000000100005613843805NILZA MARIA DE OLIVEIRA                 RUA JOSE GONCALVES DE FREITAS - 66 C2 -             08210550                                                            000095
2SR. CAIXA, APOS O VENCIMENTO COBRAR 2% DE MULTA                                 NAO RECEBER APOS 30 DIAS DO VENCIMENTO.                                                                                                                                                                                                         01021800000000000000102180000000000000       0090339900006270056138021813000096
100000000000000000000009033990000627000000000000000000000000010002020007574902181300000000002            2  01075749021811021800000001648420000000001N010218000000000000000000000000000000000000000000000000000000000000000100007574936889JORGE LUCIANO PEREIRA BORRIELLO         RUA FABIO DE ALMEIDA MAGALHAES - 179 - J            05135370                                                            000098
2SR. CAIXA, APOS O VENCIMENTO COBRAR 2% DE MULTA                                 NAO RECEBER APOS 30 DIAS DO VENCIMENTO.                                                                                                                                                                                                         01021800000000000000102180000000000000       0090339900006270075749021813000099
100000000000000000000009033990000627000000000000000000000000010002020032408102181600000000002            2  01324081021811021800000001554100000000001N010218000000000000000000000000000000000000000000000000000000000000000100032408151848DEILSON DO NASCIMENTO CANDIDO DA SILVA  RUA HEREMITA SANTA DO NASCIMENTO - 37 AP            11345340                                                            000101
2SR. CAIXA, APOS O VENCIMENTO COBRAR 2% DE MULTA                                 NAO RECEBER APOS 30 DIAS DO VENCIMENTO.                                                                                                                                                                                                         01021800000000000000102180000000000000       0090339900006270324081021816000102
100000000000000000000009033990000627000000000000000000000000010002020008214902181600000000002            2  01082149021811021800000001673430000000001N010218000000000000000000000000000000000000000000000000000000000000000100008214973830JAMIL CHALA                             AVENIDA COSTA MACHADO - 291 AP.133-A - C            11700650                                                            000104
2SR. CAIXA, APOS O VENCIMENTO COBRAR 2% DE MULTA                                 NAO RECEBER APOS 30 DIAS DO VENCIMENTO.                                                                                                                                                                                                         01021800000000000000102180000000000000       0090339900006270082149021816000105
100000000000000000000009033990000627000000000000000000000000010002020032495002181300000000002            2  01324950021811021800000001875290000000001N010218000000000000000000000000000000000000000000000000000000000000000100032495004881PAULO EDUARDO DOS SANTOS                RUA REPUBLICA DO IRAQUE - 1119 - CAMPO B            04611002                                                            000107
2SR. CAIXA, APOS O VENCIMENTO COBRAR 2% DE MULTA                                 NAO RECEBER APOS 30 DIAS DO VENCIMENTO.                                                                                                                                                                                                         01021800000000000000102180000000000000       0090339900006270324950021813000108
100000000000000000000009033990000627000000000000000000000000010002020006471802181300000000002            2  01064718021809021800000002046350000000001N010218000000000000000000000000000000000000000000000000000000000000000100006471825803JOSIVALDO BASTOS DE OLIVEIRA            RUA MARIA DIAS HOG - 263 - PARQUE CONTIN            07085035                                                            000110
2SR. CAIXA, APOS O VENCIMENTO COBRAR 2% DE MULTA                                 NAO RECEBER APOS 30 DIAS DO VENCIMENTO.                                                                                                                                                                                                         01021800000000000000102180000000000000       0090339900006270064718021813000111
100000000000000000000009033990000627000000000000000000000000010002020038856802181P00000000002            2  01388568021811021800000001738440000000001N010218000000000000000000000000000000000000000000000000000000000000000100038856851830FELIPE BIANCHI DA COSTA FREITAS         AVENIDA ENGENHEIRO ARMANDO DE ARRUDA PER            04325001                                                            000113
2SR. CAIXA, APOS O VENCIMENTO COBRAR 2% DE MULTA                                 NAO RECEBER APOS 30 DIAS DO VENCIMENTO.                                                                                                                                                                                                         01021800000000000000102180000000000000       009033990000627038856802181P000114
100000000000000000000009033990000627000000000000000000000000010002020016498002181000000000002            2  01164980021811021800000001644670000000001N010218000000000000000000000000000000000000000000000000000000000000000100016498053810GILMA CEZARIO GARCIA CORRITORI          RUA LAURENTINO XAVIER DOS SANTOS - 336 -            08240740                                                            000116
2SR. CAIXA, APOS O VENCIMENTO COBRAR 2% DE MULTA                                 NAO RECEBER APOS 30 DIAS DO VENCIMENTO.                                                                                                                                                                                                         01021800000000000000102180000000000000       0090339900006270164980021810000117
100000000000000000000009033990000627000000000000000000000000010002020030098602181300000000002            2  01300986021811021800000001765700000000001N010218000000000000000000000000000000000000000000000000000000000000000100030098603825DEUZIANA MOREIRA DE SA                  RUA JOAO AVELINO PINHO MELLAO - 114 - JA            05659010                                                            000119
2SR. CAIXA, APOS O VENCIMENTO COBRAR 2% DE MULTA                                 NAO RECEBER APOS 30 DIAS DO VENCIMENTO.                                                                                                                                                                                                         01021800000000000000102180000000000000       0090339900006270300986021813000120
100000000000000000000009033990000627000000000000000000000000010002020030098602182100000000002            2  01300986021811021800000001765700000000001N010218000000000000000000000000000000000000000000000000000000000000000100030098603825DEUZIANA MOREIRA DE SA                  RUA JOAO AVELINO PINHO MELLAO - 114 - JA            05659010                                                            000122
2SR. CAIXA, APOS O VENCIMENTO COBRAR 2% DE MULTA                                 NAO RECEBER APOS 30 DIAS DO VENCIMENTO.                                                                                                                                                                                                         01021800000000000000102180000000000000       0090339900006270300986021821000123
100000000000000000000009033990000627000000000000000000000000010002020029339002181P00000000002            2  01293390021811021800000001758700000000001N010218000000000000000000000000000000000000000000000000000000000000000100029339051831RONALD DIDOFF                           RUA CORONEL FERREIRA BRAGA - 188 - VILA             03522010                                                            000125
2SR. CAIXA, APOS O VENCIMENTO COBRAR 2% DE MULTA                                 NAO RECEBER APOS 30 DIAS DO VENCIMENTO.                                                                                                                                                                                                         01021800000000000000102180000000000000       009033990000627029339002181P000126
100000000000000000000009033990000627000000000000000000000000010002020017357802181100000000002            2  01173578021811021800000001862620000000001N010218000000000000000000000000000000000000000000000000000000000000000100017357859894MARCIO GUIMARAES                        RUA GENERAL CAMARA - 188 SALA 11 - CENTR            11010120                                                            000128
2SR. CAIXA, APOS O VENCIMENTO COBRAR 2% DE MULTA                                 NAO RECEBER APOS 30 DIAS DO VENCIMENTO.                                                                                                                                                                                                         01021800000000000000102180000000000000       0090339900006270173578021811000129
100000000000000000000009033990000627000000000000000000000000010002020010563002181100000000002            2  01105630021811021800000001910230000000001N010218000000000000000000000000000000000000000000000000000000000000000100010563033878VERA LUCIA RIBEIRO LONGANEZI            RUA DOS CAMARES - 150 AP.24 BL.02 - CARA            02068030                                                            000131
2SR. CAIXA, APOS O VENCIMENTO COBRAR 2% DE MULTA                                 NAO RECEBER APOS 30 DIAS DO VENCIMENTO.                                                                                                                                                                                                         01021800000000000000102180000000000000       0090339900006270105630021811000132
100000000000000000000009033990000627000000000000000000000000010002020005529602181600000000002            2  01055296021811021800000001733450000000001N010218000000000000000000000000000000000000000000000000000000000000000100005529616801JOAQUIM JORGE DA COSTA                  RUA CONEGO XAVIER - 13 - SACOMA - SAO PA            04231030                                                            000134
2SR. CAIXA, APOS O VENCIMENTO COBRAR 2% DE MULTA                                 NAO RECEBER APOS 30 DIAS DO VENCIMENTO.                                                                                                                                                                                                         01021800000000000000102180000000000000       0090339900006270055296021816000135
100000000000000000000009033990000627000000000000000000000000010002020022014102181000000000002            2  01220141021811021800000001728410000000001N010218000000000000000000000000000000000000000000000000000000000000000100022014140847CAMILA SILVEIRA CANIZARES               AVENIDA PRESIDENTE CASTELO BRANCO - 5.74            11703650                                                            000137
2SR. CAIXA, APOS O VENCIMENTO COBRAR 2% DE MULTA                                 NAO RECEBER APOS 30 DIAS DO VENCIMENTO.                                                                                                                                                                                                         01021800000000000000102180000000000000       0090339900006270220141021810000138
9                                                                                                                                                                                                                                                                                                                                                                                                         000139