01REMESSA01COBRANCA       00000000000004991781AIRES CONSTRUTORA E INCORPORAD237BRADESCO       090817        MX0000088                                                                                                                                                                                                                                                                                     000001
100000000000000000000009077090006612500000000000000000000000010002100000012051212100000000002            2  01001205121225081700000003234820000000001N090817000000000000000000000000000000000000000000000000000000000000000100001224509579REINALDO JUNIOR MARTINS DE ABREU        RUA JUSTINO NIGRO - 449 - INTERLAGOS - S            04815030                                                            000002
2SR. CAIXA, APOS O VENCIMENTO COBRAR 10% DE MULTA                                NAO RECEBER APOS 30 DIAS DO VENCIMENTO.                                                                                                                                                                                                         09081700000000000000908170000000000000       0090770900066125000120512121000003
100000000000000000000009077090006612500000000000000000000000010002100000013061313900000000002            2  01001306131325081700000003146070000000001N090817000000000000000000000000000000000000000000000000000000000000000100003325102808MARCOS DE OLIVEIRA JUNIOR               RUA LUIS NOVELLETO - 91 - PARQUE CONTINE            05324080                                                            000005
2SR. CAIXA, APOS O VENCIMENTO COBRAR 10% DE MULTA                                NAO RECEBER APOS 30 DIAS DO VENCIMENTO.                                                                                                                                                                                                         09081700000000000000908170000000000000       0090770900066125000130613139000006
100000000000000000000009077090006612500000000000000000000000010002100000015101515000000000002            2  01001510151525081700000003191740000000001N090817000000000000000000000000000000000000000000000000000000000000000100016338929806EDVALDO DA SILVA ANDRADE                RUA ARIA - 434 - PARQUE ALVES DE LIMA -             04902170                                                            000008
2SR. CAIXA, APOS O VENCIMENTO COBRAR 10% DE MULTA                                NAO RECEBER APOS 30 DIAS DO VENCIMENTO.                                                                                                                                                                                                         09081700000000000000908170000000000000       0090770900066125000151015150000009
100000000000000000000009077090006612500000000000000000000000010002100000018051818800000000002            2  01001805181825081700000002890340000000001N090817000000000000000000000000000000000000000000000000000000000000000100026836908860VANDERLEI FIGUEIREDO DE CARVALHO        RUA TUPI - 840 - VILA TUPI - PRAIA GRAND            11703260                                                            000011
2SR. CAIXA, APOS O VENCIMENTO COBRAR 10% DE MULTA                                NAO RECEBER APOS 30 DIAS DO VENCIMENTO.                                                                                                                                                                                                         09081700000000000000908170000000000000       0090770900066125000180518188000012
100000000000000000000009077090006612500000000000000000000000010002100000020092020400000000002            2  01002009202025081700000003210370000000001N090817000000000000000000000000000000000000000000000000000000000000000100059861576800REINALDO LOPES DE OLIVEIRA              RUA DA SERVIDAO - 40 - VILA ROSCHEL - SA            04891045                                                            000014
2SR. CAIXA, APOS O VENCIMENTO COBRAR 10% DE MULTA                                NAO RECEBER APOS 30 DIAS DO VENCIMENTO.                                                                                                                                                                                                         09081700000000000000908170000000000000       0090770900066125000200920204000015
100000000000000000000009077090006612500000000000000000000000010002100000021142121800000000002            2  01002114212125081700000001832760000000001N090817000000000000000000000000000000000000000000000000000000000000000100008158846807JULIO CESAR KYOO WATANUKI               AVENIDA PRESIDENTE CASTELO BRANCO - 460             11700800                                                            000017
2SR. CAIXA, APOS O VENCIMENTO COBRAR 10% DE MULTA                                NAO RECEBER APOS 30 DIAS DO VENCIMENTO.                                                                                                                                                                                                         09081700000000000000908170000000000000       0090770900066125000211421218000018
100000000000000000000009077090006612500000000000000000000000010002100000030172830400000000002            2  01003017283025081700000002879360000000001N090817000000000000000000000000000000000000000000000000000000000000000100028379879805EDMILSON DANIEL GARCIA WATANUKI         RUA MONTE CASTELO - 295 AP.82 - AVIACAO             11702720                                                            000020
2SR. CAIXA, APOS O VENCIMENTO COBRAR 10% DE MULTA                                NAO RECEBER APOS 30 DIAS DO VENCIMENTO.                                                                                                                                                                                                         09081700000000000000908170000000000000       0090770900066125000301728304000021
100000000000000000000009077090006612500000000000000000000000010002100000037963538800000000002            2  01003796353825081700000003190940000000001N090817000000000000000000000000000000000000000000000000000000000000000100016330938830KARINA CORDEIRO PIASSA                  CONDE MOREIRA LIMA - 644 - JARDIM JABAQU            04384032                                                            000023
2SR. CAIXA, APOS O VENCIMENTO COBRAR 10% DE MULTA                                NAO RECEBER APOS 30 DIAS DO VENCIMENTO.                                                                                                                                                                                                         09081700000000000000908170000000000000       0090770900066125000379635388000024
100000000000000000000009077090006612500000000000000000000000010002100000043854044200000000002            2  01004385404425081700000003101330000000001N090817000000000000000000000000000000000000000000000000000000000000000100077027604868CLINEU LISSONI                          AVENIDA VILA EMA - 1100 AP.41 - VILA PRU            03156000                                                            000026
2SR. CAIXA, APOS O VENCIMENTO COBRAR 10% DE MULTA                                NAO RECEBER APOS 30 DIAS DO VENCIMENTO.                                                                                                                                                                                                         09081700000000000000908170000000000000       0090770900066125000438540442000027
100000000000000000000009077090006612500000000000000000000000010002100000050624751100000000002            2  01005062475125081700000002907640000000001N090817000000000000000000000000000000000000000000000000000000000000000100005627947861FERNANDO CESAR MARCELINO                RUA CASA FORTE - 46 AP.11 - AGUA FRIA -             02336040                                                            000029
2SR. CAIXA, APOS O VENCIMENTO COBRAR 10% DE MULTA                                NAO RECEBER APOS 30 DIAS DO VENCIMENTO.                                                                                                                                                                                                         09081700000000000000908170000000000000       0090770900066125000506247511000030
100000000000000000000009077090006612500000000000000000000000010002100000052544953200000000002            2  01005254495325081700000002890520000000001N090817000000000000000000000000000000000000000000000000000000000000000100029380708882EDUARDO MENDONCA DAMASCENO              RUA MONTE CASTELO - 296 AP.12 - AVIACAO             11702720                                                            000032
2SR. CAIXA, APOS O VENCIMENTO COBRAR 10% DE MULTA                                NAO RECEBER APOS 30 DIAS DO VENCIMENTO.                                                                                                                                                                                                         09081700000000000000908170000000000000       0090770900066125000525449532000033
100000000000000000000009077090006612500000000000000000000000010002100000056615357500000000002            2  01005661535725081700000002934990000000001N090817000000000000000000000000000000000000000000000000000000000000000100023988525634DALMY PIMENTA                           SAO CAETANO - 136 - VILA SAO VICENTE - U            38026220                                                            000035
2SR. CAIXA, APOS O VENCIMENTO COBRAR 10% DE MULTA                                NAO RECEBER APOS 30 DIAS DO VENCIMENTO.                                                                                                                                                                                                         09081700000000000000908170000000000000       0090770900066125000566153575000036
100000000000000000000009077090006612500000000000000000000000010002100000058515559700000000002            2  01005851555925081700000003191090000000001N090817000000000000000000000000000000000000000000000000000000000000000100004735273832DARIO LUIZ GONCALVES                    RUA MONTE CASTELO - 295 AP.113 - AVIACAO            11702720                                                            000038
2SR. CAIXA, APOS O VENCIMENTO COBRAR 10% DE MULTA                                NAO RECEBER APOS 30 DIAS DO VENCIMENTO.                                                                                                                                                                                                         09081700000000000000908170000000000000       0090770900066125000585155597000039
100000000000000000000009077090006612500000000000000000000000010002100000060395761200000000002            2  01006039576125081700000002853040000000001N090817000000000000000000000000000000000000000000000000000000000000000100007635293893SILVIO CARDOSO ZACARIAS                 RUA SOLIDONIO LEITE - 2718 AP.102 BLOCO             03275000                                                            000041
2SR. CAIXA, APOS O VENCIMENTO COBRAR 10% DE MULTA                                NAO RECEBER APOS 30 DIAS DO VENCIMENTO.                                                                                                                                                                                                         09081700000000000000908170000000000000       0090770900066125000603957612000042
100000000000000000000009077090006612500000000000000000000000010002100000062225963200000000002            2  01006222596325081700000002793030000000001N090817000000000000000000000000000000000000000000000000000000000000000100067192920800SONIA MARIA RIBEIRO SUDO                RUA INGAZEIRA - 133 - SAO MIGUEL - SAO P            08032080                                                            000044
2SR. CAIXA, APOS O VENCIMENTO COBRAR 10% DE MULTA                                NAO RECEBER APOS 30 DIAS DO VENCIMENTO.                                                                                                                                                                                                         09081700000000000000908170000000000000       0090770900066125000622259632000045
100000000000000000000009077090006612500000000000000000000000010002100000063136064800000000002            2  01006313606425081700000003103970000000001N090817000000000000000000000000000000000000000000000000000000000000000100007975958808JOCY VIGNADO                            RUA PEDRO GONCALVES SOBRINHO - 568 - PAR            13098641                                                            000047
2SR. CAIXA, APOS O VENCIMENTO COBRAR 10% DE MULTA                                NAO RECEBER APOS 30 DIAS DO VENCIMENTO.                                                                                                                                                                                                         09081700000000000000908170000000000000       0090770900066125000631360648000048
100000000000000000000009077090006612500000000000000000000000010002100000068136569100000000002            2  01006813656925081700000002902340000000001N090817000000000000000000000000000000000000000000000000000000000000000100036712580803WALTER BARRETO DE ALMEIDA               RUA MONTE CASTELO - 296 AP.44 - AVIACAO             11702720                                                            000050
2SR. CAIXA, APOS O VENCIMENTO COBRAR 10% DE MULTA                                NAO RECEBER APOS 30 DIAS DO VENCIMENTO.                                                                                                                                                                                                         09081700000000000000908170000000000000       0090770900066125000681365691000051
100000000000000000000009077090006612500000000000000000000000010002100000074017075100000000002            2  01007401707525081700000003083120000000001N090817000000000000000000000000000000000000000000000000000000000000000100004290973876VLADIMIR PAIOLA BORREGO                 RUA GOMES - 429 - VILA IVONE - SAO PAULO            03275010                                                            000053
2SR. CAIXA, APOS O VENCIMENTO COBRAR 10% DE MULTA                                NAO RECEBER APOS 30 DIAS DO VENCIMENTO.                                                                                                                                                                                                         09081700000000000000908170000000000000       0090770900066125000740170751000054
100000000000000000000009077090006612500000000000000000000000010002100000076017277700000000002            2  01007601727725081700000003278260000000001N090817000000000000000000000000000000000000000000000000000000000000000100036386861833ALINE LEE WEI DE SOUZA                  AV. PRES.CASTELO BRANCO - 9127 AP.251 BL            11704600                                                            000056
2SR. CAIXA, APOS O VENCIMENTO COBRAR 10% DE MULTA                                NAO RECEBER APOS 30 DIAS DO VENCIMENTO.                                                                                                                                                                                                         09081700000000000000908170000000000000       0090770900066125000760172777000057
100000000000000000000009077090006612500000000000000000000000010002100000076887378200000000002            2  01007688737825081700000003042120000000001N090817000000000000000000000000000000000000000000000000000000000000000100026187960807CARINA CANTACESSO DE SOUZA              RUA MONTE CASTELO - 296 AP.91 - AVIACAO             11702720                                                            000059
2SR. CAIXA, APOS O VENCIMENTO COBRAR 10% DE MULTA                                NAO RECEBER APOS 30 DIAS DO VENCIMENTO.                                                                                                                                                                                                         09081700000000000000908170000000000000       0090770900066125000768873782000060
100000000000000000000009077090006612500000000000000000000000010002100000082747784500000000002            2  01008274778425081700000002982000000000001N090817000000000000000000000000000000000000000000000000000000000000000100070465320953SIDNEY CARASKI                          RUA DR.CELSO PACHECO BENTIM - 502 - PARQ            03571020                                                            000062
2SR. CAIXA, APOS O VENCIMENTO COBRAR 10% DE MULTA                                NAO RECEBER APOS 30 DIAS DO VENCIMENTO.                                                                                                                                                                                                         09081700000000000000908170000000000000       0090770900066125000827477845000063
100000000000000000000009077090006612500000000000000000000000010002100000083553985P00000000002            2  01008355398525081700000002335160000000001N090817000000000000000000000000000000000000000000000000000000000000000100075759446800VALTER MUTAFEI                          RUA MONTE CASTELO - 295 AP.54 - AVIACAO             11702720                                                            000065
2SR. CAIXA, APOS O VENCIMENTO COBRAR 10% DE MULTA                                NAO RECEBER APOS 30 DIAS DO VENCIMENTO.                                                                                                                                                                                                         09081700000000000000908170000000000000       009077090006612500083553985P000066
100000000000000000000009077090006612500000000000000000000000010002100000087378189300000000002            2  01008737818925081700000003336360000000001N090817000000000000000000000000000000000000000000000000000000000000000100070328706868VALTER LIMA FERNANDES                   RUA DOMINGOS JORGE VELHO - 52 - CENTRO -            06843550                                                            000068
2SR. CAIXA, APOS O VENCIMENTO COBRAR 10% DE MULTA                                NAO RECEBER APOS 30 DIAS DO VENCIMENTO.                                                                                                                                                                                                         09081700000000000000908170000000000000       0090770900066125000873781893000069
100000000000000000000009077090006612500000000000000000000000010002100000088448290100000000002            2  01008844829025081700000001812280000000001N090817000000000000000000000000000000000000000000000000000000000000000100023132672882LEANDRO MORENO                          RUA MONTE CASTELO - 296 AP.64 - AVIACAO             11702720                                                            000071
2SR. CAIXA, APOS O VENCIMENTO COBRAR 10% DE MULTA                                NAO RECEBER APOS 30 DIAS DO VENCIMENTO.                                                                                                                                                                                                         09081700000000000000908170000000000000       0090770900066125000884482901000072
100000000000000000000009077090006612500000000000000000000000010002100000090478492600000000002            2  01009047849225081700000003090670000000001N090817000000000000000000000000000000000000000000000000000000000000000100099264692800LEONTINO PINHEIRO DA SILVA              AVENIDA JOAO BATISTA FITIPALDI - 469 - V            08685000                                                            000074
2SR. CAIXA, APOS O VENCIMENTO COBRAR 10% DE MULTA                                NAO RECEBER APOS 30 DIAS DO VENCIMENTO.                                                                                                                                                                                                         09081700000000000000908170000000000000       0090770900066125000904784926000075
100000000000000000000009077090006612500000000000000000000000010002100000092508594700000000002            2  01009250859425081700000002981620000000001N090817000000000000000000000000000000000000000000000000000000000000000100000666344825LUIZ HENRIQUE DE CAMPOS                 RUA JOAO CARLOS CAVALCANTI REIS - 21 - J            02281206                                                            000077
2SR. CAIXA, APOS O VENCIMENTO COBRAR 10% DE MULTA                                NAO RECEBER APOS 30 DIAS DO VENCIMENTO.                                                                                                                                                                                                         09081700000000000000908170000000000000       0090770900066125000925085947000078
100000000000000000000009077090006612500000000000000000000000010002100000096768898600000000002            2  01009676889825081700000003148730000000001N090817000000000000000000000000000000000000000000000000000000000000000100029155026842DANIELA YOSHIDA                         RUA MONTE CASTELO - 262 AP.34 - AVIACAO             11702720                                                            000080
2SR. CAIXA, APOS O VENCIMENTO COBRAR 10% DE MULTA                                NAO RECEBER APOS 30 DIAS DO VENCIMENTO.                                                                                                                                                                                                         09081700000000000000908170000000000000       0090770900066125000967688986000081
100000000000000000000009077090006612500000000000000000000000010002100001025094104600000000002            2  01102509410425081700000002710380000000001N090817000000000000000000000000000000000000000000000000000000000000000100034325567801LUIZ FERNANDO ALAMINO                   AVENIDA FLOR DE VILA FORMOSA - 337 - VIL            03366010                                                            000083
2SR. CAIXA, APOS O VENCIMENTO COBRAR 10% DE MULTA                                NAO RECEBER APOS 30 DIAS DO VENCIMENTO.                                                                                                                                                                                                         09081700000000000000908170000000000000       0090770900066125010250941046000084
100000000000000000000009077090006612500000000000000000000000010002100001045496106200000000002            2  01104549610625081700000002564170000000001N090817000000000000000000000000000000000000000000000000000000000000000100001204431809CEZAR TALAVERA JUNIOR                   RUA MAESTRO ARTURO DE ANGELIS  - 190 AP.            05139010                                                            000086
2SR. CAIXA, APOS O VENCIMENTO COBRAR 10% DE MULTA                                NAO RECEBER APOS 30 DIAS DO VENCIMENTO.                                                                                                                                                                                                         09081700000000000000908170000000000000       0090770900066125010454961062000087
100000000000000000000009077090006612500000000000000000000000010002100001067698108800000000002            2  01106769810825081700000003323960000000001N090817000000000000000000000000000000000000000000000000000000000000000100004227553970ALESSANDRO ISRAEL GOULART               RUA PROFESSORA CARLINDA RIBEIRO - 21 - F            02866200                                                            000089
2SR. CAIXA, APOS O VENCIMENTO COBRAR 10% DE MULTA                                NAO RECEBER APOS 30 DIAS DO VENCIMENTO.                                                                                                                                                                                                         09081700000000000000908170000000000000       0090770900066125010676981088000090
100000000000000000000009077090006612500000000000000000000000010002100001077799109200000000002            2  01107779910925081700000003063410000000001N090817000000000000000000000000000000000000000000000000000000000000000100060811420868HELIO BASSI                             AV.PARIS,575 - PRACA ANTONIO FIGUEROA -             11700082                                                            000092
2SR. CAIXA, APOS O VENCIMENTO COBRAR 10% DE MULTA                                NAO RECEBER APOS 30 DIAS DO VENCIMENTO.                                                                                                                                                                                                         09081700000000000000908170000000000000       0090770900066125010777991092000093
100000000000000000000009077090006612500000000000000000000000010002100011476106117600000000002            2  01114761061125081700000002729450000000001N090817000000000000000000000000000000000000000000000000000000000000000100027317668591ERONILTON SOUSA MOTA                    AVENIDA PRESIDENTE KENNEDY - 3203 - AVIA            11701330                                                            000095
2SR. CAIXA, APOS O VENCIMENTO COBRAR 10% DE MULTA                                NAO RECEBER APOS 30 DIAS DO VENCIMENTO.                                                                                                                                                                                                         09081700000000000000908170000000000000       0090770900066125114761061176000096
100000000000000000000009077090006612500000000000000000000000010002100011674108119P00000000002            2  01116741081125081700000002898800000000001N090817000000000000000000000000000000000000000000000000000000000000000100001024794881CLAUDIO RODRIGUES                       RUA ARACATUBA - 242 - LAPA - SAO PAULO -            05058010                                                            000098
2SR. CAIXA, APOS O VENCIMENTO COBRAR 10% DE MULTA                                NAO RECEBER APOS 30 DIAS DO VENCIMENTO.                                                                                                                                                                                                         09081700000000000000908170000000000000       009077090006612511674108119P000099
100000000000000000000009077090006612500000000000000000000000010002100011874109121P00000000002            2  01118741091225081700000004444230000000001N090817000000000000000000000000000000000000000000000000000000000000000100002225072841PEDRO EDUARDO DE AZEVEDO                RUA NATH ZILMAN - 46 - JARDIM SAMAMBAIA             07600000                                                            000101
2SR. CAIXA, APOS O VENCIMENTO COBRAR 10% DE MULTA                                NAO RECEBER APOS 30 DIAS DO VENCIMENTO.                                                                                                                                                                                                         09081700000000000000908170000000000000       009077090006612511874109121P000102
100000000000000000000009077090006612500000000000000000000000010002100011976110122600000000002            2  01119761101225081700000003092710000000001N090817000000000000000000000000000000000000000000000000000000000000000100015039262817MARCOS ROBERTO DANTAS                   RUA SAO JOSE - 163 AP.33 - BAIRRO SAO JO            13224300                                                            000104
2SR. CAIXA, APOS O VENCIMENTO COBRAR 10% DE MULTA                                NAO RECEBER APOS 30 DIAS DO VENCIMENTO.                                                                                                                                                                                                         09081700000000000000908170000000000000       0090770900066125119761101226000105
100000000000000000000009077090006612500000000000000000000000010002100012181112124400000000002            2  01121811121225081700000004365320000000001N090817000000000000000000000000000000000000000000000000000000000000000100037555503859RAPHAEL DE MELLO                        RUA MARECHAL HERMES - 126 AP.121 - CANTO            11700250                                                            000107
2SR. CAIXA, APOS O VENCIMENTO COBRAR 10% DE MULTA                                NAO RECEBER APOS 30 DIAS DO VENCIMENTO.                                                                                                                                                                                                         09081700000000000000908170000000000000       0090770900066125121811121244000108
100000000000000000000009077090006612500000000000000000000000010002100012485114127100000000002            2  01124851141225081700000002518180000000001N090817000000000000000000000000000000000000000000000000000000000000000100019288787844EMERSON LUIZ MARTINEZ PEREIRA           RUA MONTE CASTELO - 296 AP.74 - AVIACAO             11702720                                                            000110
2SR. CAIXA, APOS O VENCIMENTO COBRAR 10% DE MULTA                                NAO RECEBER APOS 30 DIAS DO VENCIMENTO.                                                                                                                                                                                                         09081700000000000000908170000000000000       0090770900066125124851141271000111
100000000000000000000009077090006612500000000000000000000000010002100012688116129600000000002            2  01126881161225081700000002133020000000001N090817000000000000000000000000000000000000000000000000000000000000000100027198452809CRISTIANE AURELIANO DA SILVA MAIA       RUA MONTE CASTELO - 262 AP.25 - AVIACAO             11702720                                                            000113
2SR. CAIXA, APOS O VENCIMENTO COBRAR 10% DE MULTA                                NAO RECEBER APOS 30 DIAS DO VENCIMENTO.                                                                                                                                                                                                         09081700000000000000908170000000000000       0090770900066125126881161296000114
100000000000000000000009077090006612500000000000000000000000010002100013032118133700000000002            2  01130321181325081700000002603110000000001N090817000000000000000000000000000000000000000000000000000000000000000100021246231840ALEXANDRO DA CUNHA MIGUES               AVENIDA CONSELHEIRO CARRAO - 1861 CONJ.5            03403001                                                            000116
2SR. CAIXA, APOS O VENCIMENTO COBRAR 10% DE MULTA                                NAO RECEBER APOS 30 DIAS DO VENCIMENTO.                                                                                                                                                                                                         09081700000000000000908170000000000000       0090770900066125130321181337000117
100000000000000000000009077090006612500000000000000000000000010002100013298121136300000000002            2  01132981211325081700000019637410000000001N090817000000000000000000000000000000000000000000000000000000000000000100004864924600RENATO SANTACHIARA SALVADORI            RUA PENSYLVANIA - 116 - PAYSAGE BRISE -             06730000                                                            000119
2SR. CAIXA, APOS O VENCIMENTO COBRAR 10% DE MULTA                                NAO RECEBER APOS 30 DIAS DO VENCIMENTO.                                                                                                                                                                                                         09081700000000000000908170000000000000       0090770900066125132981211363000120
100000000000000000000009077090006612500000000000000000000000010002100013335121136100000000002            2  01133351211325081700000001558610000000001N090817000000000000000000000000000000000000000000000000000000000000000100004864924600RENATO SANTACHIARA SALVADORI            RUA PENSYLVANIA - 116 - PAYSAGE BRISE -             06730000                                                            000122
2SR. CAIXA, APOS O VENCIMENTO COBRAR 10% DE MULTA                                NAO RECEBER APOS 30 DIAS DO VENCIMENTO.                                                                                                                                                                                                         09081700000000000000908170000000000000       0090770900066125133351211361000123
100000000000000000000009077090006612500000000000000000000000010002100013536122138400000000002            2  01135361221325081700000003829560000000001N090817000000000000000000000000000000000000000000000000000000000000000100018470520881SILVANA ALVES DE OLIVEIRA               RUA MONTE CASTELO - 262 AP.91 - AVIACAO             11702720                                                            000125
2SR. CAIXA, APOS O VENCIMENTO COBRAR 10% DE MULTA                                NAO RECEBER APOS 30 DIAS DO VENCIMENTO.                                                                                                                                                                                                         09081700000000000000908170000000000000       0090770900066125135361221384000126
100000000000000000000009077090006612500000000000000000000000010002100013638123139000000000002            2  01136381231325081700000002666120000000001N090817000000000000000000000000000000000000000000000000000000000000000100009297523846MARCOS ROBERTO DE CASTRO FERREIRA       RUA MONTE CASTELO - 262 AP.105 - AVIACAO            11702720                                                            000128
2SR. CAIXA, APOS O VENCIMENTO COBRAR 10% DE MULTA                                NAO RECEBER APOS 30 DIAS DO VENCIMENTO.                                                                                                                                                                                                         09081700000000000000908170000000000000       0090770900066125136381231390000129
100000000000000000000009077090006612500000000000000000000000010002100014107126144700000000002            2  01141071261425081700000003303920000000001N090817000000000000000000000000000000000000000000000000000000000000000100001164158864DAVID BLEY LACERDA                      RUA CONEGO ARAUJO MARCONDES - 188 - BAIR            02550080                                                            000131
2SR. CAIXA, APOS O VENCIMENTO COBRAR 10% DE MULTA                                NAO RECEBER APOS 30 DIAS DO VENCIMENTO.                                                                                                                                                                                                         09081700000000000000908170000000000000       0090770900066125141071261447000132
100000000000000000000009077090006612500000000000000000000000010002100015499133159P00000000002            2  01154991331525081700000004015440000000001N090817000000000000000000000000000000000000000000000000000000000000000100031498008895POLIANE  SIBELE DA SILVA                RUA FRANCISCO RODRIGUES SECKLER - 452 CA            08230020                                                            000134
2SR. CAIXA, APOS O VENCIMENTO COBRAR 10% DE MULTA                                NAO RECEBER APOS 30 DIAS DO VENCIMENTO.                                                                                                                                                                                                         09081700000000000000908170000000000000       009077090006612515499133159P000135
100000000000000000000009077090006612500000000000000000000000010002100016615140170600000000002            2  01166151401725081700000002355150000000001N090817000000000000000000000000000000000000000000000000000000000000000100000588109860JOSE LIARTE GIANTE                      AVENIDA LUIZ GONZAGA DO AMARAL - 143 - J            09320630                                                            000137
2SR. CAIXA, APOS O VENCIMENTO COBRAR 10% DE MULTA                                NAO RECEBER APOS 30 DIAS DO VENCIMENTO.                                                                                                                                                                                                         09081700000000000000908170000000000000       0090770900066125166151401706000138
100000000000000000000009077090006612500000000000000000000000010002100017577144178200000000002            2  01175771441725081700000002664960000000001N090817000000000000000000000000000000000000000000000000000000000000000100000764632817LUIZ CARLOS ANTUNES JUNIOR              RUA MONTE CASTELO - 262 AP.35 - AVIACAO             11702720                                                            000140
2SR. CAIXA, APOS O VENCIMENTO COBRAR 10% DE MULTA                                NAO RECEBER APOS 30 DIAS DO VENCIMENTO.                                                                                                                                                                                                         09081700000000000000908170000000000000       0090770900066125175771441782000141
100000000000000000000009077090006612500000000000000000000000010002100018246146184400000000002            2  01182461461825081700000001884020000000001N090817000000000000000000000000000000000000000000000000000000000000000100014386860134SEVERINO CARLOS DE OLIVEIRA             RUA MONTE CASTELO - 262 AP.54 - AVIACAO             11702720                                                            000143
2SR. CAIXA, APOS O VENCIMENTO COBRAR 10% DE MULTA                                NAO RECEBER APOS 30 DIAS DO VENCIMENTO.                                                                                                                                                                                                         09081700000000000000908170000000000000       0090770900066125182461461844000144
100000000000000000000009077090006612500000000000000000000000010002100018643147187500000000002            2  01186431471825081700000002094530000000001N090817000000000000000000000000000000000000000000000000000000000000000100029088221804FABIANO SPERANDEO                       RUA MONTE CASTELO - 296 AP.93 - AVIACAO             11702720                                                            000146
2SR. CAIXA, APOS O VENCIMENTO COBRAR 10% DE MULTA                                NAO RECEBER APOS 30 DIAS DO VENCIMENTO.                                                                                                                                                                                                         09081700000000000000908170000000000000       0090770900066125186431471875000147
100000000000000000000009077090006612500000000000000000000000010002100019146151191300000000002            2  01191461511925081700000001585150000000001N090817000000000000000000000000000000000000000000000000000000000000000100053018338715JAIME YOSHIO YONAMINE                   AVENIDA MARCONDES DE BRITO - 1.283 CASA             03509000                                                            000149
2SR. CAIXA, APOS O VENCIMENTO COBRAR 10% DE MULTA                                NAO RECEBER APOS 30 DIAS DO VENCIMENTO.                                                                                                                                                                                                         09081700000000000000908170000000000000       0090770900066125191461511913000150
100000000000000000000009077090006612500000000000000000000000010002100021262161208500000000002            2  01212621612025081700000001298470000000001N090817000000000000000000000000000000000000000000000000000000000000000100039393790850NAIRON RICARDO DE ARAUJO SANTOS         RUA MONTE CASTELO - 262 AP.23 - AVIACAO             11702720                                                            000152
2SR. CAIXA, APOS O VENCIMENTO COBRAR 10% DE MULTA                                NAO RECEBER APOS 30 DIAS DO VENCIMENTO.                                                                                                                                                                                                         09081700000000000000908170000000000000       0090770900066125212621612085000153
100000000000000000000009077090006612500000000000000000000000010002100021381165209800000000002            2  01213811652025081700000003339810000000001N090817000000000000000000000000000000000000000000000000000000000000000100066104106820ANADIR FERREIRA                         RUA MONTE CASTELO - 296 AP.61 - AVIACAO             11702720                                                            000155
2SR. CAIXA, APOS O VENCIMENTO COBRAR 10% DE MULTA                                NAO RECEBER APOS 30 DIAS DO VENCIMENTO.                                                                                                                                                                                                         09081700000000000000908170000000000000       0090770900066125213811652098000156
100000000000000000000009077090006612500000000000000000000000010002100021441166210400000000002            2  01214411662125081700000001891010000000001N090817000000000000000000000000000000000000000000000000000000000000000100041896807968SERGIO ROBERTO DA SILVA                 RUA DOS INGLESES - 542 AP.61 - MORRO DOS            01329000                                                            000158
2SR. CAIXA, APOS O VENCIMENTO COBRAR 10% DE MULTA                                NAO RECEBER APOS 30 DIAS DO VENCIMENTO.                                                                                                                                                                                                         09081700000000000000908170000000000000       0090770900066125214411662104000159
100000000000000000000009077090006612500000000000000000000000010002100022074129215P00000000002            2  01220741292125081700000001714700000000001N090817000000000000000000000000000000000000000000000000000000000000000100088137384804ANA LUCIA DA SILVA                      RUA DOUTOR EPAMINONDAS BARRA - 147 - VIL            04438100                                                            000161
2SR. CAIXA, APOS O VENCIMENTO COBRAR 10% DE MULTA                                NAO RECEBER APOS 30 DIAS DO VENCIMENTO.                                                                                                                                                                                                         09081700000000000000908170000000000000       009077090006612522074129215P000162
100000000000000000000009077090006612500000000000000000000000010002100029743212270600000000002            2  01297432122725081700000005298990000000001N090817000000000000000000000000000000000000000000000000000000000000000100039115139840LAIS CRISTINA RIBEIRO ANDO              RUA PERU - 769 AP.17 - VILA GUILHERMINA             11702250                                                            000164
2SR. CAIXA, APOS O VENCIMENTO COBRAR 10% DE MULTA                                NAO RECEBER APOS 30 DIAS DO VENCIMENTO.                                                                                                                                                                                                         09081700000000000000908170000000000000       0090770900066125297432122706000165
9                                                                                                                                                                                                                                                                                                                                                                                                         000166