01REMESSA01COBRANCA       00000000000008017025HB SANTOS CONSTRUTORA E INCORP237BRADESCO       010820        MX0000110                                                                                                                                                                                                                                                                                     000001
100000000000000000000009033990000627000000000000000000000000010002020025035108201000000000002            2  01250351082024082000000002287440000000001N010820000000000000000000000000000000000000000000000000000000000000000100025035170802WANDERSON LUIS DE CARVALHO              RUA JOAQUIM GONCALVES ROCHA - 302 - JARD            02859030                                                            000002
2SR. CAIXA, APOS O VENCIMENTO COBRAR 2% DE MULTA                                 NAO RECEBER APOS 30 DIAS DO VENCIMENTO.                                                                                                                                                                                                         01082000000000000000108200000000000000       0090339900006270250351082010000003
100000000000000000000009033990000627000000000000000000000000010002020007294308201800000000002            2  01072943082024082000000003076640000000001N010820000000000000000000000000000000000000000000000000000000000000000100007294351805CLAUDENIR APARECIDO VACARI              RUA CARLOS JOSE BORSTENS - 50 AP.93 - AV            11702750                                                            000005
2SR. CAIXA, APOS O VENCIMENTO COBRAR 2% DE MULTA                                 NAO RECEBER APOS 30 DIAS DO VENCIMENTO.                                                                                                                                                                                                         01082000000000000000108200000000000000       0090339900006270072943082018000006
100000000000000000000009033990000627000000000000000000000000010002020042976108201800000000002            2  01429761082024082000000003108930000000001N010820000000000000000000000000000000000000000000000000000000000000000100042976111634ACACIO TOSCANO BONDANCA                 RUA COMENDADOR JACOMO ANTONIO LA SELVA -            12946797                                                            000008
2SR. CAIXA, APOS O VENCIMENTO COBRAR 2% DE MULTA                                 NAO RECEBER APOS 30 DIAS DO VENCIMENTO.                                                                                                                                                                                                         01082000000000000000108200000000000000       0090339900006270429761082018000009
100000000000000000000009033990000627000000000000000000000000010002020035438008201100000000002            2  01354380082024082000000002625650000000001N010820000000000000000000000000000000000000000000000000000000000000000100035438022836ALESSANDRO FARACO DOS SANTOS            RUA PEDRO POMAR  - 145 - JARDIM ELISA MA            02875020                                                            000011
2SR. CAIXA, APOS O VENCIMENTO COBRAR 2% DE MULTA                                 NAO RECEBER APOS 30 DIAS DO VENCIMENTO.                                                                                                                                                                                                         01082000000000000000108200000000000000       0090339900006270354380082011000012
100000000000000000000009033990000627000000000000000000000000010002020007525008201300000000002            2  01075250082024082000000003441350000000001N010820000000000000000000000000000000000000000000000000000000000000000100007525032866FERNANDO RIBEIRO                        RUA CARLOS JOSE BORSTENS - 50 AP.32 - AV            11702750                                                            000014
2SR. CAIXA, APOS O VENCIMENTO COBRAR 2% DE MULTA                                 NAO RECEBER APOS 30 DIAS DO VENCIMENTO.                                                                                                                                                                                                         01082000000000000000108200000000000000       0090339900006270075250082013000015
100000000000000000000009033990000627000000000000000000000000010002020005071408201900000000002            2  01050714082024082000000003018720000000001N010820000000000000000000000000000000000000000000000000000000000000000100005071481855ERIBALDO SANTANA CARVALHO               RUA HONDURAS - 477 - PARQUE DAS AMERICAS            09351070                                                            000017
2SR. CAIXA, APOS O VENCIMENTO COBRAR 2% DE MULTA                                 NAO RECEBER APOS 30 DIAS DO VENCIMENTO.                                                                                                                                                                                                         01082000000000000000108200000000000000       0090339900006270050714082019000018
100000000000000000000009033990000627000000000000000000000000010002020002841708201200000000002            2  01028417082024082000000002824300000000001N010820000000000000000000000000000000000000000000000000000000000000000100002841756416LUCIANA PINHEIRO DE ASSIS NUNES         RUA RIO ACIMA - 81 - RIACHO GRANDE - SAO            09830100                                                            000020
2SR. CAIXA, APOS O VENCIMENTO COBRAR 2% DE MULTA                                 NAO RECEBER APOS 30 DIAS DO VENCIMENTO.                                                                                                                                                                                                         01082000000000000000108200000000000000       0090339900006270028417082012000021
100000000000000000000009033990000627000000000000000000000000010002020084302008201100000000002            2  01843020082024082000000002837850000000001N010820000000000000000000000000000000000000000000000000000000000000000100084302097868FAUSTO TADEU VILOR                      RUA ANTONIO TAVARES - 466 - BAIRRO CAMBU            01542010                                                            000023
2SR. CAIXA, APOS O VENCIMENTO COBRAR 2% DE MULTA                                 NAO RECEBER APOS 30 DIAS DO VENCIMENTO.                                                                                                                                                                                                         01082000000000000000108200000000000000       0090339900006270843020082011000024
100000000000000000000009033990000627000000000000000000000000010002020028804208201100000000002            2  01288042082024082000000002788210000000001N010820000000000000000000000000000000000000000000000000000000000000000100028804202882GILBERTO FABIANO CABRAL DE CAMARGO      RUA CARLOS JOSE BORSTENS - 50 AP.44 - AV            11702750                                                            000026
2SR. CAIXA, APOS O VENCIMENTO COBRAR 2% DE MULTA                                 NAO RECEBER APOS 30 DIAS DO VENCIMENTO.                                                                                                                                                                                                         01082000000000000000108200000000000000       0090339900006270288042082011000027
100000000000000000000009033990000627000000000000000000000000010002020000991708201400000000002            2  01009917082024082000000002721400000000001N010820000000000000000000000000000000000000000000000000000000000000000100000991748808JAILSON BORGES DE ANDRADE               RUA IPIOBUNA - 45 - JARDIM CUMBICA - GUA            07240040                                                            000029
2SR. CAIXA, APOS O VENCIMENTO COBRAR 2% DE MULTA                                 NAO RECEBER APOS 30 DIAS DO VENCIMENTO.                                                                                                                                                                                                         01082000000000000000108200000000000000       0090339900006270009917082014000030
100000000000000000000009033990000627000000000000000000000000010002020022151608201000000000002            2  01221516082024082000000002705600000000001N010820000000000000000000000000000000000000000000000000000000000000000100022151666816SAMIR LIMA DE ARAUJO                    AVENIDA GUARAPIRANGA - 2616 AP.131 BL.14            04902005                                                            000032
2SR. CAIXA, APOS O VENCIMENTO COBRAR 2% DE MULTA                                 NAO RECEBER APOS 30 DIAS DO VENCIMENTO.                                                                                                                                                                                                         01082000000000000000108200000000000000       0090339900006270221516082010000033
100000000000000000000009033990000627000000000000000000000000010002020022313108201200000000002            2  01223131082026082000000002081250000000001N010820000000000000000000000000000000000000000000000000000000000000000100022313116824ROSA MARIA BRITO DA SILVA               RUA SERVIDAO DE SAO MARCOS - 113 - JARDI            04930300                                                            000035
2SR. CAIXA, APOS O VENCIMENTO COBRAR 2% DE MULTA                                 NAO RECEBER APOS 30 DIAS DO VENCIMENTO.                                                                                                                                                                                                         01082000000000000000108200000000000000       0090339900006270223131082012000036
100000000000000000000009033990000627000000000000000000000000010002020027538008201400000000002            2  01275380082026082000000002088520000000001N010820000000000000000000000000000000000000000000000000000000000000000100027538087249MARA LUCIA MENEZES DA COSTA             RUA LEILA  - 183 - ITAQUERA - SAO PAULO             08240020                                                            000038
2SR. CAIXA, APOS O VENCIMENTO COBRAR 2% DE MULTA                                 NAO RECEBER APOS 30 DIAS DO VENCIMENTO.                                                                                                                                                                                                         01082000000000000000108200000000000000       0090339900006270275380082014000039
100000000000000000000009033990000627000000000000000000000000010002020031278408201000000000002            2  01312784082024082000000002613690000000001N010820000000000000000000000000000000000000000000000000000000000000000100031278411836JEFFERSON DE PIERI PIRES ZAMUNER        RUA MANOEL ARCE - 277 - PARQUE BANCARIO             03922150                                                            000041
2SR. CAIXA, APOS O VENCIMENTO COBRAR 2% DE MULTA                                 NAO RECEBER APOS 30 DIAS DO VENCIMENTO.                                                                                                                                                                                                         01082000000000000000108200000000000000       0090339900006270312784082010000042
100000000000000000000009033990000627000000000000000000000000010002020019185708201200000000002            2  01191857082026082000000001900580000000001N010820000000000000000000000000000000000000000000000000000000000000000100019185769800AGUINALDO PESSOA DE LIMA                RUA JANUARIO ZINGARO - 252 AP.303 BL.04             05794300                                                            000044
2SR. CAIXA, APOS O VENCIMENTO COBRAR 2% DE MULTA                                 NAO RECEBER APOS 30 DIAS DO VENCIMENTO.                                                                                                                                                                                                         01082000000000000000108200000000000000       0090339900006270191857082012000045
100000000000000000000009033990000627000000000000000000000000010002020033303608201300000000002            2  01333036082026082000000002047100000000001N010820000000000000000000000000000000000000000000000000000000000000000100033303645809JESSICA DA SILVA FREITAS                RUA ARILDO VALADAO - 120 - JARDIM GUAEMB            04814600                                                            000047
2SR. CAIXA, APOS O VENCIMENTO COBRAR 2% DE MULTA                                 NAO RECEBER APOS 30 DIAS DO VENCIMENTO.                                                                                                                                                                                                         01082000000000000000108200000000000000       0090339900006270333036082013000048
100000000000000000000009033990000627000000000000000000000000010002020004824408201200000000002            2  01048244082026082000000002063310000000001N010820000000000000000000000000000000000000000000000000000000000000000100004824443806ROSIMEIRE CLARA FERREIRA REZENDE        RUA JOSE CALIXTO DO CARMO - 286 AP.43 -             11702690                                                            000050
2SR. CAIXA, APOS O VENCIMENTO COBRAR 2% DE MULTA                                 NAO RECEBER APOS 30 DIAS DO VENCIMENTO.                                                                                                                                                                                                         01082000000000000000108200000000000000       0090339900006270048244082012000051
100000000000000000000009033990000627000000000000000000000000010002020006422608201900000000002            2  01064226082024082000000002830680000000001N010820000000000000000000000000000000000000000000000000000000000000000100006422607881GERALDO ALVES DA SILVA                  RUA CARLOS JOSE BORSTENS - 50 AP.14 - AV            11702750                                                            000053
2SR. CAIXA, APOS O VENCIMENTO COBRAR 2% DE MULTA                                 NAO RECEBER APOS 30 DIAS DO VENCIMENTO.                                                                                                                                                                                                         01082000000000000000108200000000000000       0090339900006270064226082019000054
100000000000000000000009033990000627000000000000000000000000010002020033877108201000000000002            2  01338771082026082000000001919230000000001N010820000000000000000000000000000000000000000000000000000000000000000100033877129870HELDER FERREIRA VIANA                   RUA JOSE CALIXTO DO CARMO - 286 AP.35 -             11702690                                                            000056
2SR. CAIXA, APOS O VENCIMENTO COBRAR 2% DE MULTA                                 NAO RECEBER APOS 30 DIAS DO VENCIMENTO.                                                                                                                                                                                                         01082000000000000000108200000000000000       0090339900006270338771082010000057
100000000000000000000009033990000627000000000000000000000000010002020028290708201400000000002            2  01282907082026082000000001768800000000001N010820000000000000000000000000000000000000000000000000000000000000000100028290719809VANESSA GIANGARRELLI PEREIRA            RUA BARINEL - 72 - JARDIM COTCHING - SAO            03462130                                                            000059
2SR. CAIXA, APOS O VENCIMENTO COBRAR 2% DE MULTA                                 NAO RECEBER APOS 30 DIAS DO VENCIMENTO.                                                                                                                                                                                                         01082000000000000000108200000000000000       0090339900006270282907082014000060
100000000000000000000009033990000627000000000000000000000000010002020087573008201P00000000002            2  01875730082026082000000001931520000000001N010820000000000000000000000000000000000000000000000000000000000000000100087573059604VANDERLEY DE ASSIS                      RUA ROMEU ALBANI - 268 - JARDIM PARQUE R            13803810                                                            000062
2SR. CAIXA, APOS O VENCIMENTO COBRAR 2% DE MULTA                                 NAO RECEBER APOS 30 DIAS DO VENCIMENTO.                                                                                                                                                                                                         01082000000000000000108200000000000000       009033990000627087573008201P000063
100000000000000000000009033990000627000000000000000000000000010002020010825508201700000000002            2  01108255082026082000000002015630000000001N010820000000000000000000000000000000000000000000000000000000000000000100010825513847JOSE APARECIDO PEREIRA                  RUA GENERAL OSORIO - 305 - JARDIM TRINTA            11515130                                                            000065
2SR. CAIXA, APOS O VENCIMENTO COBRAR 2% DE MULTA                                 NAO RECEBER APOS 30 DIAS DO VENCIMENTO.                                                                                                                                                                                                         01082000000000000000108200000000000000       0090339900006270108255082017000066
100000000000000000000009033990000627000000000000000000000000010002020038818508201700000000002            2  01388185082026082000000002050090000000001N010820000000000000000000000000000000000000000000000000000000000000000100038818572814MAURICIUS ALEXANDRE ESTEVAM NABOR       RUA JOSE CALIXTO DO CARMO - 286 AP.25 -             11702690                                                            000068
2SR. CAIXA, APOS O VENCIMENTO COBRAR 2% DE MULTA                                 NAO RECEBER APOS 30 DIAS DO VENCIMENTO.                                                                                                                                                                                                         01082000000000000000108200000000000000       0090339900006270388185082017000069
100000000000000000000009033990000627000000000000000000000000010002020039115108201900000000002            2  01391151082026082000000002484630000000001N010820000000000000000000000000000000000000000000000000000000000000000100039115139840LAIS CRISTINA RIBEIRO ANDO              RUA JOSE CALIXTO DO CARMO - 286 AP.65 -             11702690                                                            000071
2SR. CAIXA, APOS O VENCIMENTO COBRAR 2% DE MULTA                                 NAO RECEBER APOS 30 DIAS DO VENCIMENTO.                                                                                                                                                                                                         01082000000000000000108200000000000000       0090339900006270391151082019000072
100000000000000000000009033990000627000000000000000000000000010002020029617508201700000000002            2  01296175082024082000000002778410000000001N010820000000000000000000000000000000000000000000000000000000000000000100029617510553MARILENE SOUZA DE OLIVEIRA              AVENIDA BRASIL - 393 AP.09 - PARQUE DAS             09210280                                                            000074
2SR. CAIXA, APOS O VENCIMENTO COBRAR 2% DE MULTA                                 NAO RECEBER APOS 30 DIAS DO VENCIMENTO.                                                                                                                                                                                                         01082000000000000000108200000000000000       0090339900006270296175082017000075
100000000000000000000009033990000627000000000000000000000000010002020000593208201700000000002            2  01005932082024082000000003047240000000001N010820000000000000000000000000000000000000000000000000000000000000000100000593293860WALTER HELIO BARBOSA FILHO              AVENIDA ANTONIO FREDERICO OZANAN - 9500             13214206                                                            000077
2SR. CAIXA, APOS O VENCIMENTO COBRAR 2% DE MULTA                                 NAO RECEBER APOS 30 DIAS DO VENCIMENTO.                                                                                                                                                                                                         01082000000000000000108200000000000000       0090339900006270005932082017000078
100000000000000000000009033990000627000000000000000000000000010002020007730008201200000000002            2  01077300082024082000000004333470000000001N010820000000000000000000000000000000000000000000000000000000000000000100007730084899ARNALDO LUIZ VONO                       RUA CARLOS JOSE BORSTENS - 50 AP.122 - A            11702750                                                            000080
2SR. CAIXA, APOS O VENCIMENTO COBRAR 2% DE MULTA                                 NAO RECEBER APOS 30 DIAS DO VENCIMENTO.                                                                                                                                                                                                         01082000000000000000108200000000000000       0090339900006270077300082012000081
100000000000000000000009033990000627000000000000000000000000010002020065584108201900000000002            2  01655841082024082000000001599630000000001N010820000000000000000000000000000000000000000000000000000000000000000100065584147834JOAQUIM DA COSTA MACHADO NETO           RUA CARLOS JOSE BORSTENS - 50 AP.42 - AV            11702750                                                            000083
2SR. CAIXA, APOS O VENCIMENTO COBRAR 2% DE MULTA                                 NAO RECEBER APOS 30 DIAS DO VENCIMENTO.                                                                                                                                                                                                         01082000000000000000108200000000000000       0090339900006270655841082019000084
100000000000000000000009033990000627000000000000000000000000010002020001616908201000000000002            2  01016169082024082000000002813250000000001N010820000000000000000000000000000000000000000000000000000000000000000100001616913827CLAUDIO LUIZ PAULELLA                   PRACA NESTOR DOS SANTOS ARRUDA - 26 - VI            13920000                                                            000086
2SR. CAIXA, APOS O VENCIMENTO COBRAR 2% DE MULTA                                 NAO RECEBER APOS 30 DIAS DO VENCIMENTO.                                                                                                                                                                                                         01082000000000000000108200000000000000       0090339900006270016169082010000087
100000000000000000000009033990000627000000000000000000000000010002020006684608201100000000002            2  01066846082026082000000002046830000000001N010820000000000000000000000000000000000000000000000000000000000000000100006684623884LAUDINOR VIEIRA GARCIA                  RUA CANDIDO SALES - 374 - JARDIM PRESIDE            07172000                                                            000089
2SR. CAIXA, APOS O VENCIMENTO COBRAR 2% DE MULTA                                 NAO RECEBER APOS 30 DIAS DO VENCIMENTO.                                                                                                                                                                                                         01082000000000000000108200000000000000       0090339900006270066846082011000090
100000000000000000000009033990000627000000000000000000000000010002020011663508201200000000002            2  01116635082026082000000002061580000000001N010820000000000000000000000000000000000000000000000000000000000000000100011663589844MARIA SAVIO QUARELLO                    AVENIDA MENDONCA DRUMOND - 321 - JARDIM             03524030                                                            000092
2SR. CAIXA, APOS O VENCIMENTO COBRAR 2% DE MULTA                                 NAO RECEBER APOS 30 DIAS DO VENCIMENTO.                                                                                                                                                                                                         01082000000000000000108200000000000000       0090339900006270116635082012000093
100000000000000000000009033990000627000000000000000000000000010002020010083808201400000000002            2  01100838082026082000000001991820000000001N010820000000000000000000000000000000000000000000000000000000000000000100010083824855IONE FERREIRA COUTO DA SILVA            RUA JOSE RAGEL DE MESQUITA - 60 CS.01 -             07799999                                                            000095
2SR. CAIXA, APOS O VENCIMENTO COBRAR 2% DE MULTA                                 NAO RECEBER APOS 30 DIAS DO VENCIMENTO.                                                                                                                                                                                                         01082000000000000000108200000000000000       0090339900006270100838082014000096
100000000000000000000009033990000627000000000000000000000000010002020036881708201700000000002            2  01368817082026082000000001954620000000001N010820000000000000000000000000000000000000000000000000000000000000000100036881778864ANDRE GONZALEZ RABELLO                  RUA PARAIBA - 106 AP.61 - POMPEIA - SANT            11065470                                                            000098
2SR. CAIXA, APOS O VENCIMENTO COBRAR 2% DE MULTA                                 NAO RECEBER APOS 30 DIAS DO VENCIMENTO.                                                                                                                                                                                                         01082000000000000000108200000000000000       0090339900006270368817082017000099
100000000000000000000009033990000627000000000000000000000000010002020018207008201600000000002            2  01182070082024082000000002694280000000001N010820000000000000000000000000000000000000000000000000000000000000000100018207096802ROBERTO VALENTE TAVARES                 RUA SEBASTIAO GOMES - 218 - JARDIM SANTO            13835000                                                            000101
2SR. CAIXA, APOS O VENCIMENTO COBRAR 2% DE MULTA                                 NAO RECEBER APOS 30 DIAS DO VENCIMENTO.                                                                                                                                                                                                         01082000000000000000108200000000000000       0090339900006270182070082016000102
100000000000000000000009033990000627000000000000000000000000010002020005351008201900000000002            2  01053510082026082000000001832660000000001N010820000000000000000000000000000000000000000000000000000000000000000100005351015897VALERIA ALVES MARCOLINO HINNIGER        RUA JOSE CALIXTO DO CARMO - 286 AP.92 -             11702690                                                            000104
2SR. CAIXA, APOS O VENCIMENTO COBRAR 2% DE MULTA                                 NAO RECEBER APOS 30 DIAS DO VENCIMENTO.                                                                                                                                                                                                         01082000000000000000108200000000000000       0090339900006270053510082019000105
100000000000000000000009033990000627000000000000000000000000010002020031898708201400000000002            2  01318987082024082000000002915720000000001N010820000000000000000000000000000000000000000000000000000000000000000100031898775800ANITA MARTINS COLOMBO                   RUA CARLOS JOSE BORSTENS - 50 AP.115 - A            11702750                                                            000107
2SR. CAIXA, APOS O VENCIMENTO COBRAR 2% DE MULTA                                 NAO RECEBER APOS 30 DIAS DO VENCIMENTO.                                                                                                                                                                                                         01082000000000000000108200000000000000       0090339900006270318987082014000108
100000000000000000000009033990000627000000000000000000000000010002020037983408201400000000002            2  01379834082026082000000002152780000000001N010820000000000000000000000000000000000000000000000000000000000000000100037983484801JOSE ERIVALDO SOUZA DO NASCIMENTO RAMOS RUA LETICIA - 250 - JARDIM GUARUJA - SAO            05877260                                                            000110
2SR. CAIXA, APOS O VENCIMENTO COBRAR 2% DE MULTA                                 NAO RECEBER APOS 30 DIAS DO VENCIMENTO.                                                                                                                                                                                                         01082000000000000000108200000000000000       0090339900006270379834082014000111
100000000000000000000009033990000627000000000000000000000000010002020056289208201500000000002            2  01562892082026082000000001626320000000001N010820000000000000000000000000000000000000000000000000000000000000000100056289286900PEDRO RIBEIRO                           RUA CONEGO MANOEL VAZ - 48 - SANTANA - S            02019050                                                            000113
2SR. CAIXA, APOS O VENCIMENTO COBRAR 2% DE MULTA                                 NAO RECEBER APOS 30 DIAS DO VENCIMENTO.                                                                                                                                                                                                         01082000000000000000108200000000000000       0090339900006270562892082015000114
100000000000000000000009033990000627000000000000000000000000010002020005025508201900000000002            2  01050255082026082000000002314420000000001N010820000000000000000000000000000000000000000000000000000000000000000100005025595860CONCEICAO APARECIDA DE MESQUITA PEREIRA RUA TRIUNFO - 835 AP.105 - JARDIM SAO LU            14020670                                                            000116
2SR. CAIXA, APOS O VENCIMENTO COBRAR 2% DE MULTA                                 NAO RECEBER APOS 30 DIAS DO VENCIMENTO.                                                                                                                                                                                                         01082000000000000000108200000000000000       0090339900006270050255082019000117
100000000000000000000009033990000627000000000000000000000000010002020034735308201100000000002            2  01347353082026082000000002232020000000001N010820000000000000000000000000000000000000000000000000000000000000000100034735328866DIEGO FELIPE MOLINA DA SILVA E SOUSA    RUA EMILIA PAULISTA - 135 - VILA TIRADEN            05364020                                                            000119
2SR. CAIXA, APOS O VENCIMENTO COBRAR 2% DE MULTA                                 NAO RECEBER APOS 30 DIAS DO VENCIMENTO.                                                                                                                                                                                                         01082000000000000000108200000000000000       0090339900006270347353082011000120
100000000000000000000009033990000627000000000000000000000000010002020076175608201200000000002            2  01761756082024082000000004046390000000001N010820000000000000000000000000000000000000000000000000000000000000000100076175685687GILMAR DE OLIVEIRA BRAGA                RUA MARACAJU - 161 AP.202 - NOVA GRANADA            30431350                                                            000122
2SR. CAIXA, APOS O VENCIMENTO COBRAR 2% DE MULTA                                 NAO RECEBER APOS 30 DIAS DO VENCIMENTO.                                                                                                                                                                                                         01082000000000000000108200000000000000       0090339900006270761756082012000123
100000000000000000000009033990000627000000000000000000000000010002020034812208201500000000002            2  01348122082024082000000003859070000000001N010820000000000000000000000000000000000000000000000000000000000000000100034812226880THAIS TORQUATO MIMOSO DE JESUS          RUA ARNALDO CINTRA - 416 AP.104 TORRE 2             03088000                                                            000125
2SR. CAIXA, APOS O VENCIMENTO COBRAR 2% DE MULTA                                 NAO RECEBER APOS 30 DIAS DO VENCIMENTO.                                                                                                                                                                                                         01082000000000000000108200000000000000       0090339900006270348122082015000126
100000000000000000000009033990000627000000000000000000000000010002020012849408201100000000002            2  01128494082026082000000003845180000000001N010820000000000000000000000000000000000000000000000000000000000000000100012849428809MOISES CLAUDIO DO ROSARIO               AVENIDA DR. AUGUSTO DE TOLEDO - 510 AP.1            09541520                                                            000128
2SR. CAIXA, APOS O VENCIMENTO COBRAR 2% DE MULTA                                 NAO RECEBER APOS 30 DIAS DO VENCIMENTO.                                                                                                                                                                                                         01082000000000000000108200000000000000       0090339900006270128494082011000129
100000000000000000000009033990000627000000000000000000000000010002020015702308201100000000002            2  01157023082026082000000002133390000000001N010820000000000000000000000000000000000000000000000000000000000000000100015702353846MARIA DE LOURDES DE MACENO SOUZA        RUA JOSE CALIXTO DO CARMO - 286 AP.83 -             11702690                                                            000131
2SR. CAIXA, APOS O VENCIMENTO COBRAR 2% DE MULTA                                 NAO RECEBER APOS 30 DIAS DO VENCIMENTO.                                                                                                                                                                                                         01082000000000000000108200000000000000       0090339900006270157023082011000132
100000000000000000000009033990000627000000000000000000000000010002020006749708201300000000002            2  01067497082023082000000002010130000000001N010820000000000000000000000000000000000000000000000000000000000000000100006749731600MARCELA DA ROCHA REIS                   RUA COLOMBIA - 665 AP.1204 - JARDIM GUIL            11702020                                                            000134
2SR. CAIXA, APOS O VENCIMENTO COBRAR 2% DE MULTA                                 NAO RECEBER APOS 30 DIAS DO VENCIMENTO.                                                                                                                                                                                                         01082000000000000000108200000000000000       0090339900006270067497082013000135
100000000000000000000009033990000627000000000000000000000000010002020006749708202100000000002            2  01067497082023082000000002010120000000001N010820000000000000000000000000000000000000000000000000000000000000000100006749731600MARCELA DA ROCHA REIS                   RUA COLOMBIA - 665 AP.1204 - JARDIM GUIL            11702020                                                            000137
2SR. CAIXA, APOS O VENCIMENTO COBRAR 2% DE MULTA                                 NAO RECEBER APOS 30 DIAS DO VENCIMENTO.                                                                                                                                                                                                         01082000000000000000108200000000000000       0090339900006270067497082021000138
100000000000000000000009033990000627000000000000000000000000010002020003658608201600000000002            2  01036586082026082000000001588530000000001N010820000000000000000000000000000000000000000000000000000000000000000100003658668814MARINEZ VALENTIN                        RUA JOSE CALIXTO DO CARMO - 286 AP.95 -             11702690                                                            000140
2SR. CAIXA, APOS O VENCIMENTO COBRAR 2% DE MULTA                                 NAO RECEBER APOS 30 DIAS DO VENCIMENTO.                                                                                                                                                                                                         01082000000000000000108200000000000000       0090339900006270036586082016000141
100000000000000000000009033990000627000000000000000000000000010002020014087408201400000000002            2  01140874082026082000000002122920000000001N010820000000000000000000000000000000000000000000000000000000000000000100014087484874SERGIO SANTOS DO NASCIMENTO             RUA PANTALEAO BRAZ - 21 - JARDIM ESTER -            05372080                                                            000143
2SR. CAIXA, APOS O VENCIMENTO COBRAR 2% DE MULTA                                 NAO RECEBER APOS 30 DIAS DO VENCIMENTO.                                                                                                                                                                                                         01082000000000000000108200000000000000       0090339900006270140874082014000144
100000000000000000000009033990000627000000000000000000000000010002020026834508201300000000002            2  01268345082026082000000001956010000000001N010820000000000000000000000000000000000000000000000000000000000000000100026834550895RAQUEL CARDOSO JOAO                     RUA PEDROSO XAVIER - 277 AP.23 TORRE 01             02732020                                                            000146
2SR. CAIXA, APOS O VENCIMENTO COBRAR 2% DE MULTA                                 NAO RECEBER APOS 30 DIAS DO VENCIMENTO.                                                                                                                                                                                                         01082000000000000000108200000000000000       0090339900006270268345082013000147
100000000000000000000009033990000627000000000000000000000000010002020039540008201100000000002            2  01395400082026082000000001923040000000001N010820000000000000000000000000000000000000000000000000000000000000000100039540008816LUZINETE CLARINDO SILVA                 RUA DEINOS - 275 - BAIRRO CIDADE SATELIT            08340100                                                            000149
2SR. CAIXA, APOS O VENCIMENTO COBRAR 2% DE MULTA                                 NAO RECEBER APOS 30 DIAS DO VENCIMENTO.                                                                                                                                                                                                         01082000000000000000108200000000000000       0090339900006270395400082011000150
100000000000000000000009033990000627000000000000000000000000010002020005723208201600000000002            2  01057232082023082000000002627960000000001N010820000000000000000000000000000000000000000000000000000000000000000100005723255843FRANCISCO DE ASSIS DA SILVA             PRACA NICOLAU GERAIGIRE - 25 VISOR - JAR            11095110                                                            000152
2SR. CAIXA, APOS O VENCIMENTO COBRAR 2% DE MULTA                                 NAO RECEBER APOS 30 DIAS DO VENCIMENTO.                                                                                                                                                                                                         01082000000000000000108200000000000000       0090339900006270057232082016000153
100000000000000000000009033990000627000000000000000000000000010002020003311008201900000000002            2  01033110082026082000000002002600000000001N010820000000000000000000000000000000000000000000000000000000000000000100003311030877SEBASTIAO SARUVA NETO                   RUA HAMILTON REGIS - 559 - BAIRRO DO LIM            08051440                                                            000155
2SR. CAIXA, APOS O VENCIMENTO COBRAR 2% DE MULTA                                 NAO RECEBER APOS 30 DIAS DO VENCIMENTO.                                                                                                                                                                                                         01082000000000000000108200000000000000       0090339900006270033110082019000156
100000000000000000000009033990000627000000000000000000000000010002020004928108201000000000002            2  01049281082023082000000002569950000000001N010820000000000000000000000000000000000000000000000000000000000000000100004928157800ADEMIR APARECIDO ANTUNES                RUA JAIME TAVEIRA - 91 AP.056 B - CHACAR            03732060                                                            000158
2SR. CAIXA, APOS O VENCIMENTO COBRAR 2% DE MULTA                                 NAO RECEBER APOS 30 DIAS DO VENCIMENTO.                                                                                                                                                                                                         01082000000000000000108200000000000000       0090339900006270049281082010000159
100000000000000000000009033990000627000000000000000000000000010002020090091908201500000000002            2  01900919082026082000000001914220000000001N010820000000000000000000000000000000000000000000000000000000000000000100090091990882JUECIR CARVALHO DA LUZ                  RUA CARLOS MARTINIANO DE ANDRADE BITENCO            11702410                                                            000161
2SR. CAIXA, APOS O VENCIMENTO COBRAR 2% DE MULTA                                 NAO RECEBER APOS 30 DIAS DO VENCIMENTO.                                                                                                                                                                                                         01082000000000000000108200000000000000       0090339900006270900919082015000162
100000000000000000000009033990000627000000000000000000000000010002020011238008201800000000002            2  01112380082023082000000002536620000000001N010820000000000000000000000000000000000000000000000000000000000000000100011238052886SOLANGE DIAS DE SOUZA ROMANO            AVENIDA DR. ALTINO ARANTES - 865 AP.132             04042034                                                            000164
2SR. CAIXA, APOS O VENCIMENTO COBRAR 2% DE MULTA                                 NAO RECEBER APOS 30 DIAS DO VENCIMENTO.                                                                                                                                                                                                         01082000000000000000108200000000000000       0090339900006270112380082018000165
100000000000000000000009033990000627000000000000000000000000010002020037325908201700000000002            2  01373259082026082000000001566490000000001N010820000000000000000000000000000000000000000000000000000000000000000100037325923830MARIA AUGUSTA OLIVEIRA DE ANDRADE       RUA CAIAPOS - 842 AP.63 - VILA TUPI - PR            11703320                                                            000167
2SR. CAIXA, APOS O VENCIMENTO COBRAR 2% DE MULTA                                 NAO RECEBER APOS 30 DIAS DO VENCIMENTO.                                                                                                                                                                                                         01082000000000000000108200000000000000       0090339900006270373259082017000168
9                                                                                                                                                                                                                                                                                                                                                                                                         000169