01REMESSA01COBRANCA       00000000000005316116AIRES CONSTRUTORA E INCORPORAD237BRADESCO       010423        MX0000215                                                                                                                                                                                                                                                                                     000001
100000000000000000000009002800441612000000000000000000000000010002100025215104231900000000002            2  01252151042310042300000003270360000000001N010423000000000000000000000000000000000000000000000000000000000000000100025215106886KLEBER LUIZ DOS SANTOS                  RUA MONTE CASTELO - 262 AP.15 - AVIACAO             11702720                                                            000002
2SR. CAIXA, APOS O VENCIMENTO COBRAR 10% DE MULTA                                NAO RECEBER APOS 30 DIAS DO VENCIMENTO.                                                                                                                                                                                                         01042300000000000000104230000000000000       0090028004416120252151042319000003
100000000000000000000009002800441612000000000000000000000000010002100031803804231100000000002            2  01318038042310042300000003867250000000001N010423000000000000000000000000000000000000000000000000000000000000000100031803864877ELEILSON FELIPPE SANTOS                 RUA SANTA GREGORIA - 193 - CIDADE DUTRA             04806030                                                            000005
2SR. CAIXA, APOS O VENCIMENTO COBRAR 10% DE MULTA                                NAO RECEBER APOS 30 DIAS DO VENCIMENTO.                                                                                                                                                                                                         01042300000000000000104230000000000000       0090028004416120318038042311000006
100000000000000000000009002800441612000000000000000000000000010002100063064504231600000000002            2  01630645042310042300000004608520000000001N010423000000000000000000000000000000000000000000000000000000000000000100063064537849ANTONIO APARECIDO DA SILVA DESTEFANO    RUA PROFESSOR TEODORO BRAGA - 46 - VILA             02966020                                                            000008
2SR. CAIXA, APOS O VENCIMENTO COBRAR 10% DE MULTA                                NAO RECEBER APOS 30 DIAS DO VENCIMENTO.                                                                                                                                                                                                         01042300000000000000104230000000000000       0090028004416120630645042316000009
100000000000000000000009002800441612000000000000000000000000010002100005920504231500000000002            2  01059205042310042300000002683120000000001N010423000000000000000000000000000000000000000000000000000000000000000100005920579846SONIA MARIA VALDO POLLO                 RUA PALMIRA CERVI BARBARO - 797 - CIDADE            13214370                                                            000011
2SR. CAIXA, APOS O VENCIMENTO COBRAR 10% DE MULTA                                NAO RECEBER APOS 30 DIAS DO VENCIMENTO.                                                                                                                                                                                                         01042300000000000000104230000000000000       0090028004416120059205042315000012
100000000000000000000009002800441612000000000000000000000000010002100002494104231600000000002            2  01024941042310042300000004034160000000001N010423000000000000000000000000000000000000000000000000000000000000000100002494107881CIRO FRANCISCO MARCHI DURIGON           RUA MONTE CASTELO - 262 AP.115 - AVIACAO            11702720                                                            000014
2SR. CAIXA, APOS O VENCIMENTO COBRAR 10% DE MULTA                                NAO RECEBER APOS 30 DIAS DO VENCIMENTO.                                                                                                                                                                                                         01042300000000000000104230000000000000       0090028004416120024941042316000015
100000000000000000000009002800441612000000000000000000000000010002100016299004231700000000002            2  01162990042310042300000003822990000000001N010423000000000000000000000000000000000000000000000000000000000000000100016299008857FERNANDO CESAR CARVALHO                 AVENIDA MARCONDES DE BRITO - 1340 AP.74             03509000                                                            000017
2SR. CAIXA, APOS O VENCIMENTO COBRAR 10% DE MULTA                                NAO RECEBER APOS 30 DIAS DO VENCIMENTO.                                                                                                                                                                                                         01042300000000000000104230000000000000       0090028004416120162990042317000018
100000000000000000000009002800441612000000000000000000000000010002100055975304231800000000002            2  01559753042310042300000000873040000000001N010423000000000000000000000000000000000000000000000000000000000000000100055975372887BENEVENUTO THEODORO DA SILVA NETO       RUA MONTE CASTELO - 296 AP.63 - AVIACAO             11702720                                                            000020
2SR. CAIXA, APOS O VENCIMENTO COBRAR 10% DE MULTA                                NAO RECEBER APOS 30 DIAS DO VENCIMENTO.                                                                                                                                                                                                         01042300000000000000104230000000000000       0090028004416120559753042318000021
9                                                                                                                                                                                                                                                                                                                                                                                                         000022