01REMESSA01COBRANCA       00000000000005316116AIRES CONSTRUTORA E INCORPORAD237BRADESCO       031221        MX0000184                                                                                                                                                                                                                                                                                     000001
100000000000000000000009002800441612000000000000000000000000010002100023132612211900000000002            2  01231326122125122100000002348860000000001N031221000000000000000000000000000000000000000000000000000000000000000100023132672882LEANDRO MORENO                          RUA MONTE CASTELO - 296 AP.64 - AVIACAO             11702720                                                            000002
2SR. CAIXA, APOS O VENCIMENTO COBRAR 10% DE MULTA                                NAO RECEBER APOS 30 DIAS DO VENCIMENTO.                                                                                                                                                                                                         03122100000000000000312210000000000000       0090028004416120231326122119000003
100000000000000000000009002800441612000000000000000000000000010002100000666312211900000000002            2  01006663122125122100000003864460000000001N031221000000000000000000000000000000000000000000000000000000000000000100000666344825LUIZ HENRIQUE DE CAMPOS                 RUA JOAO CARLOS CAVALCANTI REIS - 21 - J            02281206                                                            000005
2SR. CAIXA, APOS O VENCIMENTO COBRAR 10% DE MULTA                                NAO RECEBER APOS 30 DIAS DO VENCIMENTO.                                                                                                                                                                                                         03122100000000000000312210000000000000       0090028004416120006663122119000006
100000000000000000000009002800441612000000000000000000000000010002100029155012211900000000002            2  01291550122125122100000004080990000000001N031221000000000000000000000000000000000000000000000000000000000000000100029155026842DANIELA YOSHIDA                         RUA MONTE CASTELO - 262 AP.34 - AVIACAO             11702720                                                            000008
2SR. CAIXA, APOS O VENCIMENTO COBRAR 10% DE MULTA                                NAO RECEBER APOS 30 DIAS DO VENCIMENTO.                                                                                                                                                                                                         03122100000000000000312210000000000000       0090028004416120291550122119000009
100000000000000000000009002800441612000000000000000000000000010002100001204412211200000000002            2  01012044122125122100000003323420000000001N031221000000000000000000000000000000000000000000000000000000000000000100001204431809CEZAR TALAVERA JUNIOR                   RUA MAESTRO ARTURO DE ANGELIS  - 190 AP.            05139010                                                            000011
2SR. CAIXA, APOS O VENCIMENTO COBRAR 10% DE MULTA                                NAO RECEBER APOS 30 DIAS DO VENCIMENTO.                                                                                                                                                                                                         03122100000000000000312210000000000000       0090028004416120012044122112000012
100000000000000000000009002800441612000000000000000000000000010002100004227512211100000000002            2  01042275122125122100000004308150000000001N031221000000000000000000000000000000000000000000000000000000000000000100004227553970ALESSANDRO ISRAEL GOULART               RUA PROFESSORA CARLINDA RIBEIRO - 21 - F            02866200                                                            000014
2SR. CAIXA, APOS O VENCIMENTO COBRAR 10% DE MULTA                                NAO RECEBER APOS 30 DIAS DO VENCIMENTO.                                                                                                                                                                                                         03122100000000000000312210000000000000       0090028004416120042275122111000015
100000000000000000000009002800441612000000000000000000000000010002100001024712211500000000002            2  01010247122125122100000003757080000000001N031221000000000000000000000000000000000000000000000000000000000000000100001024794881CLAUDIO RODRIGUES                       RUA ARACATUBA - 242 - LAPA - SAO PAULO -            05058010                                                            000017
2SR. CAIXA, APOS O VENCIMENTO COBRAR 10% DE MULTA                                NAO RECEBER APOS 30 DIAS DO VENCIMENTO.                                                                                                                                                                                                         03122100000000000000312210000000000000       0090028004416120010247122115000018
100000000000000000000009002800441612000000000000000000000000010002100002225012211600000000002            2  01022250122125122100000005760120000000001N031221000000000000000000000000000000000000000000000000000000000000000100002225072841PEDRO EDUARDO DE AZEVEDO                RUA NATH ZILMAN - 46 - JARDIM SAMAMBAIA             07623085                                                            000020
2SR. CAIXA, APOS O VENCIMENTO COBRAR 10% DE MULTA                                NAO RECEBER APOS 30 DIAS DO VENCIMENTO.                                                                                                                                                                                                         03122100000000000000312210000000000000       0090028004416120022250122116000021
100000000000000000000009002800441612000000000000000000000000010002100022037512211400000000002            2  01220375122125122100000004008400000000001N031221000000000000000000000000000000000000000000000000000000000000000100022037552882ANDREIA CRISTINA FERNANDES DANTAS       PCA CASTRO ALVES - 163 AP.33 - VILA SAO             13224299                                                            000023
2SR. CAIXA, APOS O VENCIMENTO COBRAR 10% DE MULTA                                NAO RECEBER APOS 30 DIAS DO VENCIMENTO.                                                                                                                                                                                                         03122100000000000000312210000000000000       0090028004416120220375122114000024
100000000000000000000009002800441612000000000000000000000000010002100027198412211600000000002            2  01271984122125122100000011122050000000001N031221000000000000000000000000000000000000000000000000000000000000000100027198452809CRISTIANE AURELIANO DA SILVA MAIA       RUA MONTE CASTELO - 262 AP.25 - AVIACAO             11702720                                                            000026
2SR. CAIXA, APOS O VENCIMENTO COBRAR 10% DE MULTA                                NAO RECEBER APOS 30 DIAS DO VENCIMENTO.                                                                                                                                                                                                         03122100000000000000312210000000000000       0090028004416120271984122116000027
100000000000000000000009002800441612000000000000000000000000010002100027198412212400000000002            2  01271984122125122100000002764580000000001N031221000000000000000000000000000000000000000000000000000000000000000100027198452809CRISTIANE AURELIANO DA SILVA MAIA       RUA MONTE CASTELO - 262 AP.25 - AVIACAO             11702720                                                            000029
2SR. CAIXA, APOS O VENCIMENTO COBRAR 10% DE MULTA                                NAO RECEBER APOS 30 DIAS DO VENCIMENTO.                                                                                                                                                                                                         03122100000000000000312210000000000000       0090028004416120271984122124000030
100000000000000000000009002800441612000000000000000000000000010002100021246212211P00000000002            2  01212462122125122100000003373900000000001N031221000000000000000000000000000000000000000000000000000000000000000100021246231840ALEXANDRO DA CUNHA MIGUES               RUA DULCE - 71  - VILA CARRAO - SAO PAUL            03427040                                                            000032
2SR. CAIXA, APOS O VENCIMENTO COBRAR 10% DE MULTA                                NAO RECEBER APOS 30 DIAS DO VENCIMENTO.                                                                                                                                                                                                         03122100000000000000312210000000000000       009002800441612021246212211P000033
100000000000000000000009002800441612000000000000000000000000010002100018470512211P00000000002            2  01184705122125122100000004963500000000001N031221000000000000000000000000000000000000000000000000000000000000000100018470520881SILVANA ALVES DE OLIVEIRA               RUA MONTE CASTELO - 262 AP.91 - AVIACAO             11702720                                                            000035
2SR. CAIXA, APOS O VENCIMENTO COBRAR 10% DE MULTA                                NAO RECEBER APOS 30 DIAS DO VENCIMENTO.                                                                                                                                                                                                         03122100000000000000312210000000000000       009002800441612018470512211P000036
100000000000000000000009002800441612000000000000000000000000010002100009297512211P00000000002            2  01092975122125122100000003455520000000001N031221000000000000000000000000000000000000000000000000000000000000000100009297523846MARCOS ROBERTO DE CASTRO FERREIRA       RUA MONTE CASTELO - 262 AP.105 - AVIACAO            11702720                                                            000038
2SR. CAIXA, APOS O VENCIMENTO COBRAR 10% DE MULTA                                NAO RECEBER APOS 30 DIAS DO VENCIMENTO.                                                                                                                                                                                                         03122100000000000000312210000000000000       009002800441612009297512211P000039
100000000000000000000009002800441612000000000000000000000000010002100001164112211900000000002            2  01011641122125122100000004282190000000001N031221000000000000000000000000000000000000000000000000000000000000000100001164158864DAVID BLEY LACERDA                      RUA CONEGO ARAUJO MARCONDES - 188 - BAIR            02550080                                                            000041
2SR. CAIXA, APOS O VENCIMENTO COBRAR 10% DE MULTA                                NAO RECEBER APOS 30 DIAS DO VENCIMENTO.                                                                                                                                                                                                         03122100000000000000312210000000000000       0090028004416120011641122119000042
100000000000000000000009002800441612000000000000000000000000010002100031498012211200000000002            2  01314980122125122100000005204380000000001N031221000000000000000000000000000000000000000000000000000000000000000100031498008895POLIANE  SIBELE DA SILVA                PRACA GENERAL COSTA BARRETO - 56 AP.181             03325070                                                            000044
2SR. CAIXA, APOS O VENCIMENTO COBRAR 10% DE MULTA                                NAO RECEBER APOS 30 DIAS DO VENCIMENTO.                                                                                                                                                                                                         03122100000000000000312210000000000000       0090028004416120314980122112000045
100000000000000000000009002800441612000000000000000000000000010002100000588112211600000000002            2  01005881122125122100000003052470000000001N031221000000000000000000000000000000000000000000000000000000000000000100000588109860JOSE LIARTE GIANTE                      AVENIDA LUIZ GONZAGA DO AMARAL - 143 - J            09320630                                                            000047
2SR. CAIXA, APOS O VENCIMENTO COBRAR 10% DE MULTA                                NAO RECEBER APOS 30 DIAS DO VENCIMENTO.                                                                                                                                                                                                         03122100000000000000312210000000000000       0090028004416120005881122116000048
100000000000000000000009002800441612000000000000000000000000010002100014386812211900000000002            2  01143868122125122100000002441860000000001N031221000000000000000000000000000000000000000000000000000000000000000100014386860134SEVERINO CARLOS DE OLIVEIRA             RUA MONTE CASTELO - 262 AP.54 - AVIACAO             11702720                                                            000050
2SR. CAIXA, APOS O VENCIMENTO COBRAR 10% DE MULTA                                NAO RECEBER APOS 30 DIAS DO VENCIMENTO.                                                                                                                                                                                                         03122100000000000000312210000000000000       0090028004416120143868122119000051
100000000000000000000009002800441612000000000000000000000000010002100039393712211400000000002            2  01393937122125122100000001682970000000001N031221000000000000000000000000000000000000000000000000000000000000000100039393790850NAIRON RICARDO DE ARAUJO SANTOS         RUA NITEROI - 267 CASA 04 - JARDIM INDEP            11380350                                                            000053
2SR. CAIXA, APOS O VENCIMENTO COBRAR 10% DE MULTA                                NAO RECEBER APOS 30 DIAS DO VENCIMENTO.                                                                                                                                                                                                         03122100000000000000312210000000000000       0090028004416120393937122114000054
100000000000000000000009002800441612000000000000000000000000010002100019288712211200000000002            2  01192887122125122100000002266490000000001N031221000000000000000000000000000000000000000000000000000000000000000100019288787844EMERSON LUIZ MARTINEZ PEREIRA           RUA MONTE CASTELO - 296 AP.74 - AVIACAO             11702720                                                            000056
2SR. CAIXA, APOS O VENCIMENTO COBRAR 10% DE MULTA                                NAO RECEBER APOS 30 DIAS DO VENCIMENTO.                                                                                                                                                                                                         03122100000000000000312210000000000000       0090028004416120192887122112000057
9                                                                                                                                                                                                                                                                                                                                                                                                         000058