01REMESSA01COBRANCA       00000000000005316116AIRES CONSTRUTORA E INCORPORAD237BRADESCO       010721        MX0000173                                                                                                                                                                                                                                                                                     000001
100000000000000000000009002800441612000000000000000000000000010002100003865707211700000000002            2  01038657072110072100000003610390000000001N010721000000000000000000000000000000000000000000000000000000000000000100003865776841FRANCISCO JOSE ROCCO                    AVENIDA PADRES OLIVETANOS - 215 AP.83 -             03648000                                                            000002
2SR. CAIXA, APOS O VENCIMENTO COBRAR 10% DE MULTA                                NAO RECEBER APOS 30 DIAS DO VENCIMENTO.                                                                                                                                                                                                         01072100000000000000107210000000000000       0090028004416120038657072117000003
100000000000000000000009002800441612000000000000000000000000010002100028309507211300000000002            2  01283095072110072100000003219630000000001N010721000000000000000000000000000000000000000000000000000000000000000100028309524803DEISE RIBEIRO BARBOSA                   RUA CANDIDO JOSE DE ANDRADE - 173 - ERME            03807030                                                            000005
2SR. CAIXA, APOS O VENCIMENTO COBRAR 10% DE MULTA                                NAO RECEBER APOS 30 DIAS DO VENCIMENTO.                                                                                                                                                                                                         01072100000000000000107210000000000000       0090028004416120283095072113000006
100000000000000000000009002800441612000000000000000000000000010002100011277907211300000000002            2  01112779072110072100000003821360000000001N010721000000000000000000000000000000000000000000000000000000000000000100011277908893JOSE AILTON LOPES DE AZEVEDO            RUA MAESTRO JOAO SEPE - 19 - JARDIM MARI            04181030                                                            000008
2SR. CAIXA, APOS O VENCIMENTO COBRAR 10% DE MULTA                                NAO RECEBER APOS 30 DIAS DO VENCIMENTO.                                                                                                                                                                                                         01072100000000000000107210000000000000       0090028004416120112779072113000009
100000000000000000000009002800441612000000000000000000000000010002100025215107211000000000002            2  01252151072110072100000002881760000000001N010721000000000000000000000000000000000000000000000000000000000000000100025215106886KLEBER LUIZ DOS SANTOS                  RUA MONTE CASTELO - 262 AP.15 - AVIACAO             11702720                                                            000011
2SR. CAIXA, APOS O VENCIMENTO COBRAR 10% DE MULTA                                NAO RECEBER APOS 30 DIAS DO VENCIMENTO.                                                                                                                                                                                                         01072100000000000000107210000000000000       0090028004416120252151072110000012
100000000000000000000009002800441612000000000000000000000000010002100090206707211800000000002            2  01902067072110072100000003218820000000001N010721000000000000000000000000000000000000000000000000000000000000000100090206789815NEREIDE RODRIGUES FERREIRA              AVENIDA PADRE ESTANISLAU DE CAMPOS - 205            03590060                                                            000014
2SR. CAIXA, APOS O VENCIMENTO COBRAR 10% DE MULTA                                NAO RECEBER APOS 30 DIAS DO VENCIMENTO.                                                                                                                                                                                                         01072100000000000000107210000000000000       0090028004416120902067072118000015
100000000000000000000009002800441612000000000000000000000000010002100029150707211600000000002            2  01291507072110072100000003767670000000001N010721000000000000000000000000000000000000000000000000000000000000000100029150742833ANA DEISE SANTOS DE ALMEIDA             RUA MONTE CASTELO - 296 AP.121 - AVIACAO            11702720                                                            000017
2SR. CAIXA, APOS O VENCIMENTO COBRAR 10% DE MULTA                                NAO RECEBER APOS 30 DIAS DO VENCIMENTO.                                                                                                                                                                                                         01072100000000000000107210000000000000       0090028004416120291507072116000018
100000000000000000000009002800441612000000000000000000000000010002100000811707211100000000002            2  01008117072110072100000003103370000000001N010721000000000000000000000000000000000000000000000000000000000000000100000811752801SERGIO BUENO DA SILVA                   RUA MONTE CASTELO - 262 AP.75 - AVIACAO             11702720                                                            000020
2SR. CAIXA, APOS O VENCIMENTO COBRAR 10% DE MULTA                                NAO RECEBER APOS 30 DIAS DO VENCIMENTO.                                                                                                                                                                                                         01072100000000000000107210000000000000       0090028004416120008117072111000021
100000000000000000000009002800441612000000000000000000000000010002100018344807211800000000002            2  01183448072110072100000004219820000000001N010721000000000000000000000000000000000000000000000000000000000000000100018344803888MARCELO BERNARDO                        RUA MONTE CASTELO - 262 AP.84 - AVIACAO             11702720                                                            000023
2SR. CAIXA, APOS O VENCIMENTO COBRAR 10% DE MULTA                                NAO RECEBER APOS 30 DIAS DO VENCIMENTO.                                                                                                                                                                                                         01072100000000000000107210000000000000       0090028004416120183448072118000024
100000000000000000000009002800441612000000000000000000000000010002100004004307211500000000002            2  01040043072110072100000005530850000000001N010721000000000000000000000000000000000000000000000000000000000000000100004004328896VANDERLEI  MARTINS DE ALMEIDA           RUA MONSENHOR TABOSA - 03 - PARQUE CISPE            03819300                                                            000026
2SR. CAIXA, APOS O VENCIMENTO COBRAR 10% DE MULTA                                NAO RECEBER APOS 30 DIAS DO VENCIMENTO.                                                                                                                                                                                                         01072100000000000000107210000000000000       0090028004416120040043072115000027
100000000000000000000009002800441612000000000000000000000000010002100031803807211300000000002            2  01318038072110072100000003407710000000001N010721000000000000000000000000000000000000000000000000000000000000000100031803864877ELEILSON FELIPPE SANTOS                 RUA SANTA GREGORIA - 193 - CIDADE DUTRA             04806030                                                            000029
2SR. CAIXA, APOS O VENCIMENTO COBRAR 10% DE MULTA                                NAO RECEBER APOS 30 DIAS DO VENCIMENTO.                                                                                                                                                                                                         01072100000000000000107210000000000000       0090028004416120318038072113000030
100000000000000000000009002800441612000000000000000000000000010002100063064507211800000000002            2  01630645072110072100000004060890000000001N010721000000000000000000000000000000000000000000000000000000000000000100063064537849ANTONIO APARECIDO DA SILVA DESTEFANO    RUA PROFESSOR TEODORO BRAGA - 46 - VILA             02966020                                                            000032
2SR. CAIXA, APOS O VENCIMENTO COBRAR 10% DE MULTA                                NAO RECEBER APOS 30 DIAS DO VENCIMENTO.                                                                                                                                                                                                         01072100000000000000107210000000000000       0090028004416120630645072118000033
100000000000000000000009002800441612000000000000000000000000010002100005920507211700000000002            2  01059205072110072100000002364280000000001N010721000000000000000000000000000000000000000000000000000000000000000100005920579846SONIA MARIA VALDO POLLO                 RUA PALMIRA CERVI BARBARO - 797 - CIDADE            13214370                                                            000035
2SR. CAIXA, APOS O VENCIMENTO COBRAR 10% DE MULTA                                NAO RECEBER APOS 30 DIAS DO VENCIMENTO.                                                                                                                                                                                                         01072100000000000000107210000000000000       0090028004416120059205072117000036
100000000000000000000009002800441612000000000000000000000000010002100002494107211800000000002            2  01024941072110072100000003554810000000001N010721000000000000000000000000000000000000000000000000000000000000000100002494107881CIRO FRANCISCO MARCHI DURIGON           RUA MONTE CASTELO - 262 AP.115 - AVIACAO            11702720                                                            000038
2SR. CAIXA, APOS O VENCIMENTO COBRAR 10% DE MULTA                                NAO RECEBER APOS 30 DIAS DO VENCIMENTO.                                                                                                                                                                                                         01072100000000000000107210000000000000       0090028004416120024941072118000039
100000000000000000000009002800441612000000000000000000000000010002100007002307211500000000002            2  01070023072110072100000003494540000000001N010721000000000000000000000000000000000000000000000000000000000000000100007002345869DOMINGOS DE BRITO GALVAO                RUA MONTE CASTELO - 262 AP.44 - AVIACAO             11702720                                                            000041
2SR. CAIXA, APOS O VENCIMENTO COBRAR 10% DE MULTA                                NAO RECEBER APOS 30 DIAS DO VENCIMENTO.                                                                                                                                                                                                         01072100000000000000107210000000000000       0090028004416120070023072115000042
100000000000000000000009002800441612000000000000000000000000010002100016299007211900000000002            2  01162990072110072100000003368740000000001N010721000000000000000000000000000000000000000000000000000000000000000100016299008857FERNANDO CESAR CARVALHO                 AVENIDA MARCONDES DE BRITO - 1340 AP.74             03509000                                                            000044
2SR. CAIXA, APOS O VENCIMENTO COBRAR 10% DE MULTA                                NAO RECEBER APOS 30 DIAS DO VENCIMENTO.                                                                                                                                                                                                         01072100000000000000107210000000000000       0090028004416120162990072119000045
100000000000000000000009002800441612000000000000000000000000010002100065895307211200000000002            2  01658953072110072100000002060990000000001N010721000000000000000000000000000000000000000000000000000000000000000100065895304834MARINHO BARBOSA CUNHA                   AVENIDA EDU CHAVES - 639 AP.43 - PARQUE             02229000                                                            000047
2SR. CAIXA, APOS O VENCIMENTO COBRAR 10% DE MULTA                                NAO RECEBER APOS 30 DIAS DO VENCIMENTO.                                                                                                                                                                                                         01072100000000000000107210000000000000       0090028004416120658953072112000048
100000000000000000000009002800441612000000000000000000000000010002100055975307211P00000000002            2  01559753072110072100000000769280000000001N010721000000000000000000000000000000000000000000000000000000000000000100055975372887BENEVENUTO THEODORO DA SILVA NETO       RUA MONTE CASTELO - 296 AP.63 - AVIACAO             11702720                                                            000050
2SR. CAIXA, APOS O VENCIMENTO COBRAR 10% DE MULTA                                NAO RECEBER APOS 30 DIAS DO VENCIMENTO.                                                                                                                                                                                                         01072100000000000000107210000000000000       009002800441612055975307211P000051
9                                                                                                                                                                                                                                                                                                                                                                                                         000052