01REMESSA01COBRANCA       00000000000005316116AIRES CONSTRUTORA E INCORPORAD237BRADESCO       011220        MX0000159                                                                                                                                                                                                                                                                                     000001
100000000000000000000009002800441612000000000000000000000000010002100085416912201800000000002            2  01854169122010122000000003559070000000001N011220000000000000000000000000000000000000000000000000000000000000000100085416940891ANTONIO DE SOUSA MENDES                 RUA MONTE CASTELO - 296 AP.52 - AVIACAO             11702720                                                            000002
2SR. CAIXA, APOS O VENCIMENTO COBRAR 10% DE MULTA                                NAO RECEBER APOS 30 DIAS DO VENCIMENTO.                                                                                                                                                                                                         01122000000000000000112200000000000000       0090028004416120854169122018000003
100000000000000000000009002800441612000000000000000000000000010002100081218412201100000000002            2  01812184122010122000000003490040000000001N011220000000000000000000000000000000000000000000000000000000000000000100081218486953OSMAR DA COSTA - A/C RITA GONCALVES     AVENIDA ALMEIDA JUNIOR - 717 - SAMAMBAIA            11713050                                                            000005
2SR. CAIXA, APOS O VENCIMENTO COBRAR 10% DE MULTA                                NAO RECEBER APOS 30 DIAS DO VENCIMENTO.                                                                                                                                                                                                         01122000000000000000112200000000000000       0090028004416120812184122011000006
100000000000000000000009002800441612000000000000000000000000010002100019282512201900000000002            2  01192825122010122000000002601990000000001N011220000000000000000000000000000000000000000000000000000000000000000100019282546837FABIO LEANDRO DE FREITAS ASSIS          RUA BASSIM NAGIB TRABULSI - 97 - PONTA D            11030540                                                            000008
2SR. CAIXA, APOS O VENCIMENTO COBRAR 10% DE MULTA                                NAO RECEBER APOS 30 DIAS DO VENCIMENTO.                                                                                                                                                                                                         01122000000000000000112200000000000000       0090028004416120192825122019000009
100000000000000000000009002800441612000000000000000000000000010002100003865712201700000000002            2  01038657122010122000000003486520000000001N011220000000000000000000000000000000000000000000000000000000000000000100003865776841FRANCISCO JOSE ROCCO                    RUA FABIO JOSE BEZERRA - 130 AP.86 - PAR            03805000                                                            000011
2SR. CAIXA, APOS O VENCIMENTO COBRAR 10% DE MULTA                                NAO RECEBER APOS 30 DIAS DO VENCIMENTO.                                                                                                                                                                                                         01122000000000000000112200000000000000       0090028004416120038657122017000012
100000000000000000000009002800441612000000000000000000000000010002100028309512201300000000002            2  01283095122010122000000003109160000000001N011220000000000000000000000000000000000000000000000000000000000000000100028309524803DEISE RIBEIRO BARBOSA                   RUA CANDIDO JOSE DE ANDRADE - 173 - ERME            03807030                                                            000014
2SR. CAIXA, APOS O VENCIMENTO COBRAR 10% DE MULTA                                NAO RECEBER APOS 30 DIAS DO VENCIMENTO.                                                                                                                                                                                                         01122000000000000000112200000000000000       0090028004416120283095122013000015
100000000000000000000009002800441612000000000000000000000000010002100011277912201300000000002            2  01112779122010122000000003690250000000001N011220000000000000000000000000000000000000000000000000000000000000000100011277908893JOSE AILTON LOPES DE AZEVEDO            RUA MAESTRO JOAO SEPE - 19 - JARDIM MARI            04181030                                                            000017
2SR. CAIXA, APOS O VENCIMENTO COBRAR 10% DE MULTA                                NAO RECEBER APOS 30 DIAS DO VENCIMENTO.                                                                                                                                                                                                         01122000000000000000112200000000000000       0090028004416120112779122013000018
100000000000000000000009002800441612000000000000000000000000010002100025215112201000000000002            2  01252151122010122000000002782900000000001N011220000000000000000000000000000000000000000000000000000000000000000100025215106886KLEBER LUIZ DOS SANTOS                  RUA MONTE CASTELO - 262 AP.15 - AVIACAO             11702720                                                            000020
2SR. CAIXA, APOS O VENCIMENTO COBRAR 10% DE MULTA                                NAO RECEBER APOS 30 DIAS DO VENCIMENTO.                                                                                                                                                                                                         01122000000000000000112200000000000000       0090028004416120252151122010000021
100000000000000000000009002800441612000000000000000000000000010002100090206712201800000000002            2  01902067122010122000000003108380000000001N011220000000000000000000000000000000000000000000000000000000000000000100090206789815NEREIDE RODRIGUES FERREIRA              AVENIDA PADRE ESTANISLAU DE CAMPOS - 205            03590060                                                            000023
2SR. CAIXA, APOS O VENCIMENTO COBRAR 10% DE MULTA                                NAO RECEBER APOS 30 DIAS DO VENCIMENTO.                                                                                                                                                                                                         01122000000000000000112200000000000000       0090028004416120902067122018000024
100000000000000000000009002800441612000000000000000000000000010002100029150712201600000000002            2  01291507122010122000000003638410000000001N011220000000000000000000000000000000000000000000000000000000000000000100029150742833ANA DEISE SANTOS DE ALMEIDA             RUA MONTE CASTELO - 296 AP.121 - AVIACAO            11702720                                                            000026
2SR. CAIXA, APOS O VENCIMENTO COBRAR 10% DE MULTA                                NAO RECEBER APOS 30 DIAS DO VENCIMENTO.                                                                                                                                                                                                         01122000000000000000112200000000000000       0090028004416120291507122016000027
100000000000000000000009002800441612000000000000000000000000010002100000811712201100000000002            2  01008117122010122000000002996900000000001N011220000000000000000000000000000000000000000000000000000000000000000100000811752801SERGIO BUENO DA SILVA                   RUA MONTE CASTELO - 262 AP.75 - AVIACAO             11702720                                                            000029
2SR. CAIXA, APOS O VENCIMENTO COBRAR 10% DE MULTA                                NAO RECEBER APOS 30 DIAS DO VENCIMENTO.                                                                                                                                                                                                         01122000000000000000112200000000000000       0090028004416120008117122011000030
100000000000000000000009002800441612000000000000000000000000010002100018344812201800000000002            2  01183448122010122000000004075030000000001N011220000000000000000000000000000000000000000000000000000000000000000100018344803888MARCELO BERNARDO                        RUA MONTE CASTELO - 262 AP.84 - AVIACAO             11702720                                                            000032
2SR. CAIXA, APOS O VENCIMENTO COBRAR 10% DE MULTA                                NAO RECEBER APOS 30 DIAS DO VENCIMENTO.                                                                                                                                                                                                         01122000000000000000112200000000000000       0090028004416120183448122018000033
100000000000000000000009002800441612000000000000000000000000010002100004004312201500000000002            2  01040043122010122000000005341080000000001N011220000000000000000000000000000000000000000000000000000000000000000100004004328896VANDERLEI  MARTINS DE ALMEIDA           RUA MONSENHOR TABOSA - 03 - PARQUE CISPE            03819300                                                            000035
2SR. CAIXA, APOS O VENCIMENTO COBRAR 10% DE MULTA                                NAO RECEBER APOS 30 DIAS DO VENCIMENTO.                                                                                                                                                                                                         01122000000000000000112200000000000000       0090028004416120040043122015000036
100000000000000000000009002800441612000000000000000000000000010002100016339412201600000000002            2  01163394122010122000000003222470000000001N011220000000000000000000000000000000000000000000000000000000000000000100016339432832ALEX MONTEIRO DA SILVA                  RUA IVA MOURA LIMA - 04 - JARDIM MIRNA I            04855540                                                            000038
2SR. CAIXA, APOS O VENCIMENTO COBRAR 10% DE MULTA                                NAO RECEBER APOS 30 DIAS DO VENCIMENTO.                                                                                                                                                                                                         01122000000000000000112200000000000000       0090028004416120163394122016000039
100000000000000000000009002800441612000000000000000000000000010002100031803812201300000000002            2  01318038122010122000000003290790000000001N011220000000000000000000000000000000000000000000000000000000000000000100031803864877ELEILSON FELIPPE SANTOS                 RUA SANTA GREGORIA - 193 - CIDADE DUTRA             04806030                                                            000041
2SR. CAIXA, APOS O VENCIMENTO COBRAR 10% DE MULTA                                NAO RECEBER APOS 30 DIAS DO VENCIMENTO.                                                                                                                                                                                                         01122000000000000000112200000000000000       0090028004416120318038122013000042
100000000000000000000009002800441612000000000000000000000000010002100026032612201100000000002            2  01260326122010122000000002264600000000001N011220000000000000000000000000000000000000000000000000000000000000000100026032632857MARILA LOPES PEREIRA                    AVENIDA LUIZ GUSHIKEN - 1761 AP.13 BL.05            05831315                                                            000044
2SR. CAIXA, APOS O VENCIMENTO COBRAR 10% DE MULTA                                NAO RECEBER APOS 30 DIAS DO VENCIMENTO.                                                                                                                                                                                                         01122000000000000000112200000000000000       0090028004416120260326122011000045
100000000000000000000009002800441612000000000000000000000000010002100063064512201800000000002            2  01630645122010122000000003921570000000001N011220000000000000000000000000000000000000000000000000000000000000000100063064537849ANTONIO APARECIDO DA SILVA DESTEFANO    RUA PROFESSOR TEODORO BRAGA - 46 - VILA             02966020                                                            000047
2SR. CAIXA, APOS O VENCIMENTO COBRAR 10% DE MULTA                                NAO RECEBER APOS 30 DIAS DO VENCIMENTO.                                                                                                                                                                                                         01122000000000000000112200000000000000       0090028004416120630645122018000048
100000000000000000000009002800441612000000000000000000000000010002100010107712201300000000002            2  01101077122010122000000003758060000000001N011220000000000000000000000000000000000000000000000000000000000000000100010107711834VALDEMAR FECCHIO                        RUA DOUTOR MARTINS DE OLIVEIRA - 529 AP.            05638030                                                            000050
2SR. CAIXA, APOS O VENCIMENTO COBRAR 10% DE MULTA                                NAO RECEBER APOS 30 DIAS DO VENCIMENTO.                                                                                                                                                                                                         01122000000000000000112200000000000000       0090028004416120101077122013000051
100000000000000000000009002800441612000000000000000000000000010002100003330712201200000000002            2  01033307122010122000000004834500000000001N011220000000000000000000000000000000000000000000000000000000000000000100003330791837MARLI DA SILVA BARBOSA                  RUA GLICERIO CERQUEIRA LEITE - 151 - JAR            03675040                                                            000053
2SR. CAIXA, APOS O VENCIMENTO COBRAR 10% DE MULTA                                NAO RECEBER APOS 30 DIAS DO VENCIMENTO.                                                                                                                                                                                                         01122000000000000000112200000000000000       0090028004416120033307122012000054
100000000000000000000009002800441612000000000000000000000000010002100005920512201700000000002            2  01059205122010122000000002283160000000001N011220000000000000000000000000000000000000000000000000000000000000000100005920579846SONIA MARIA VALDO POLLO                 RUA PALMIRA CERVI BARBARO - 797 - CIDADE            13214370                                                            000056
2SR. CAIXA, APOS O VENCIMENTO COBRAR 10% DE MULTA                                NAO RECEBER APOS 30 DIAS DO VENCIMENTO.                                                                                                                                                                                                         01122000000000000000112200000000000000       0090028004416120059205122017000057
100000000000000000000009002800441612000000000000000000000000010002100002494112201800000000002            2  01024941122010122000000003432840000000001N011220000000000000000000000000000000000000000000000000000000000000000100002494107881CIRO FRANCISCO MARCHI DURIGON           RUA MONTE CASTELO - 262 AP.115 - AVIACAO            11702720                                                            000059
2SR. CAIXA, APOS O VENCIMENTO COBRAR 10% DE MULTA                                NAO RECEBER APOS 30 DIAS DO VENCIMENTO.                                                                                                                                                                                                         01122000000000000000112200000000000000       0090028004416120024941122018000060
100000000000000000000009002800441612000000000000000000000000010002100007002312201500000000002            2  01070023122010122000000003374640000000001N011220000000000000000000000000000000000000000000000000000000000000000100007002345869DOMINGOS DE BRITO GALVAO                RUA MONTE CASTELO - 262 AP.44 - AVIACAO             11702720                                                            000062
2SR. CAIXA, APOS O VENCIMENTO COBRAR 10% DE MULTA                                NAO RECEBER APOS 30 DIAS DO VENCIMENTO.                                                                                                                                                                                                         01122000000000000000112200000000000000       0090028004416120070023122015000063
100000000000000000000009002800441612000000000000000000000000010002100016299012201900000000002            2  01162990122010122000000003253150000000001N011220000000000000000000000000000000000000000000000000000000000000000100016299008857FERNANDO CESAR CARVALHO                 AVENIDA MARCONDES DE BRITO - 1340 AP.74             03509000                                                            000065
2SR. CAIXA, APOS O VENCIMENTO COBRAR 10% DE MULTA                                NAO RECEBER APOS 30 DIAS DO VENCIMENTO.                                                                                                                                                                                                         01122000000000000000112200000000000000       0090028004416120162990122019000066
100000000000000000000009002800441612000000000000000000000000010002100031082812201200000000002            2  01310828122010122000000003268920000000001N011220000000000000000000000000000000000000000000000000000000000000000100031082898880VANESSA DOS SANTOS NEIVA                RUA MONTE CASTELO - 296 AP.33 - BAIRRO A            11702720                                                            000068
2SR. CAIXA, APOS O VENCIMENTO COBRAR 10% DE MULTA                                NAO RECEBER APOS 30 DIAS DO VENCIMENTO.                                                                                                                                                                                                         01122000000000000000112200000000000000       0090028004416120310828122012000069
100000000000000000000009002800441612000000000000000000000000010002100065895312201200000000002            2  01658953122010122000000001990290000000001N011220000000000000000000000000000000000000000000000000000000000000000100065895304834MARINHO BARBOSA CUNHA                   AVENIDA EDU CHAVES - 639 AP.43 - PARQUE             02229000                                                            000071
2SR. CAIXA, APOS O VENCIMENTO COBRAR 10% DE MULTA                                NAO RECEBER APOS 30 DIAS DO VENCIMENTO.                                                                                                                                                                                                         01122000000000000000112200000000000000       0090028004416120658953122012000072
100000000000000000000009002800441612000000000000000000000000010002100055975312201P00000000002            2  01559753122010122000000000742890000000001N011220000000000000000000000000000000000000000000000000000000000000000100055975372887BENEVENUTO THEODORO DA SILVA NETO       RUA MONTE CASTELO - 296 AP.63 - AVIACAO             11702720                                                            000074
2SR. CAIXA, APOS O VENCIMENTO COBRAR 10% DE MULTA                                NAO RECEBER APOS 30 DIAS DO VENCIMENTO.                                                                                                                                                                                                         01122000000000000000112200000000000000       009002800441612055975312201P000075
9                                                                                                                                                                                                                                                                                                                                                                                                         000076