01REMESSA01COBRANCA       00000000000005316116AIRES CONSTRUTORA E INCORPORAD237BRADESCO       010621        MX0000171                                                                                                                                                                                                                                                                                     000001
100000000000000000000009002800441612000000000000000000000000010002100019282506211300000000002            2  01192825062110062100000002681040000000001N010621000000000000000000000000000000000000000000000000000000000000000100019282546837FABIO LEANDRO DE FREITAS ASSIS          RUA BASSIM NAGIB TRABULSI - 97 - PONTA D            11030540                                                            000002
2SR. CAIXA, APOS O VENCIMENTO COBRAR 10% DE MULTA                                NAO RECEBER APOS 30 DIAS DO VENCIMENTO.                                                                                                                                                                                                         01062100000000000000106210000000000000       0090028004416120192825062113000003
100000000000000000000009002800441612000000000000000000000000010002100003865706211100000000002            2  01038657062110062100000003592430000000001N010621000000000000000000000000000000000000000000000000000000000000000100003865776841FRANCISCO JOSE ROCCO                    AVENIDA PADRES OLIVETANOS - 215 AP.83 -             03648000                                                            000005
2SR. CAIXA, APOS O VENCIMENTO COBRAR 10% DE MULTA                                NAO RECEBER APOS 30 DIAS DO VENCIMENTO.                                                                                                                                                                                                         01062100000000000000106210000000000000       0090028004416120038657062111000006
100000000000000000000009002800441612000000000000000000000000010002100028309506211800000000002            2  01283095062110062100000003203610000000001N010621000000000000000000000000000000000000000000000000000000000000000100028309524803DEISE RIBEIRO BARBOSA                   RUA CANDIDO JOSE DE ANDRADE - 173 - ERME            03807030                                                            000008
2SR. CAIXA, APOS O VENCIMENTO COBRAR 10% DE MULTA                                NAO RECEBER APOS 30 DIAS DO VENCIMENTO.                                                                                                                                                                                                         01062100000000000000106210000000000000       0090028004416120283095062118000009
100000000000000000000009002800441612000000000000000000000000010002100011277906211800000000002            2  01112779062110062100000003802350000000001N010621000000000000000000000000000000000000000000000000000000000000000100011277908893JOSE AILTON LOPES DE AZEVEDO            RUA MAESTRO JOAO SEPE - 19 - JARDIM MARI            04181030                                                            000011
2SR. CAIXA, APOS O VENCIMENTO COBRAR 10% DE MULTA                                NAO RECEBER APOS 30 DIAS DO VENCIMENTO.                                                                                                                                                                                                         01062100000000000000106210000000000000       0090028004416120112779062118000012
100000000000000000000009002800441612000000000000000000000000010002100025215106211500000000002            2  01252151062110062100000002867420000000001N010621000000000000000000000000000000000000000000000000000000000000000100025215106886KLEBER LUIZ DOS SANTOS                  RUA MONTE CASTELO - 262 AP.15 - AVIACAO             11702720                                                            000014
2SR. CAIXA, APOS O VENCIMENTO COBRAR 10% DE MULTA                                NAO RECEBER APOS 30 DIAS DO VENCIMENTO.                                                                                                                                                                                                         01062100000000000000106210000000000000       0090028004416120252151062115000015
100000000000000000000009002800441612000000000000000000000000010002100090206706211200000000002            2  01902067062110062100000003202810000000001N010621000000000000000000000000000000000000000000000000000000000000000100090206789815NEREIDE RODRIGUES FERREIRA              AVENIDA PADRE ESTANISLAU DE CAMPOS - 205            03590060                                                            000017
2SR. CAIXA, APOS O VENCIMENTO COBRAR 10% DE MULTA                                NAO RECEBER APOS 30 DIAS DO VENCIMENTO.                                                                                                                                                                                                         01062100000000000000106210000000000000       0090028004416120902067062112000018
100000000000000000000009002800441612000000000000000000000000010002100029150706211000000000002            2  01291507062110062100000003748930000000001N010621000000000000000000000000000000000000000000000000000000000000000100029150742833ANA DEISE SANTOS DE ALMEIDA             RUA MONTE CASTELO - 296 AP.121 - AVIACAO            11702720                                                            000020
2SR. CAIXA, APOS O VENCIMENTO COBRAR 10% DE MULTA                                NAO RECEBER APOS 30 DIAS DO VENCIMENTO.                                                                                                                                                                                                         01062100000000000000106210000000000000       0090028004416120291507062110000021
100000000000000000000009002800441612000000000000000000000000010002100000811706211600000000002            2  01008117062110062100000003087930000000001N010621000000000000000000000000000000000000000000000000000000000000000100000811752801SERGIO BUENO DA SILVA                   RUA MONTE CASTELO - 262 AP.75 - AVIACAO             11702720                                                            000023
2SR. CAIXA, APOS O VENCIMENTO COBRAR 10% DE MULTA                                NAO RECEBER APOS 30 DIAS DO VENCIMENTO.                                                                                                                                                                                                         01062100000000000000106210000000000000       0090028004416120008117062116000024
100000000000000000000009002800441612000000000000000000000000010002100018344806211200000000002            2  01183448062110062100000004198830000000001N010621000000000000000000000000000000000000000000000000000000000000000100018344803888MARCELO BERNARDO                        RUA MONTE CASTELO - 262 AP.84 - AVIACAO             11702720                                                            000026
2SR. CAIXA, APOS O VENCIMENTO COBRAR 10% DE MULTA                                NAO RECEBER APOS 30 DIAS DO VENCIMENTO.                                                                                                                                                                                                         01062100000000000000106210000000000000       0090028004416120183448062112000027
100000000000000000000009002800441612000000000000000000000000010002100004004306211P00000000002            2  01040043062110062100000005503330000000001N010621000000000000000000000000000000000000000000000000000000000000000100004004328896VANDERLEI  MARTINS DE ALMEIDA           RUA MONSENHOR TABOSA - 03 - PARQUE CISPE            03819300                                                            000029
2SR. CAIXA, APOS O VENCIMENTO COBRAR 10% DE MULTA                                NAO RECEBER APOS 30 DIAS DO VENCIMENTO.                                                                                                                                                                                                         01062100000000000000106210000000000000       009002800441612004004306211P000030
100000000000000000000009002800441612000000000000000000000000010002100031803806211800000000002            2  01318038062110062100000003390760000000001N010621000000000000000000000000000000000000000000000000000000000000000100031803864877ELEILSON FELIPPE SANTOS                 RUA SANTA GREGORIA - 193 - CIDADE DUTRA             04806030                                                            000032
2SR. CAIXA, APOS O VENCIMENTO COBRAR 10% DE MULTA                                NAO RECEBER APOS 30 DIAS DO VENCIMENTO.                                                                                                                                                                                                         01062100000000000000106210000000000000       0090028004416120318038062118000033
100000000000000000000009002800441612000000000000000000000000010002100063064506211200000000002            2  01630645062110062100000004040690000000001N010621000000000000000000000000000000000000000000000000000000000000000100063064537849ANTONIO APARECIDO DA SILVA DESTEFANO    RUA PROFESSOR TEODORO BRAGA - 46 - VILA             02966020                                                            000035
2SR. CAIXA, APOS O VENCIMENTO COBRAR 10% DE MULTA                                NAO RECEBER APOS 30 DIAS DO VENCIMENTO.                                                                                                                                                                                                         01062100000000000000106210000000000000       0090028004416120630645062112000036
100000000000000000000009002800441612000000000000000000000000010002100010107706211800000000002            2  01101077062110062100000003872210000000001N010621000000000000000000000000000000000000000000000000000000000000000100010107711834VALDEMAR FECCHIO                        RUA DOUTOR MARTINS DE OLIVEIRA - 529 AP.            05638030                                                            000038
2SR. CAIXA, APOS O VENCIMENTO COBRAR 10% DE MULTA                                NAO RECEBER APOS 30 DIAS DO VENCIMENTO.                                                                                                                                                                                                         01062100000000000000106210000000000000       0090028004416120101077062118000039
100000000000000000000009002800441612000000000000000000000000010002100005920506211100000000002            2  01059205062110062100000002352520000000001N010621000000000000000000000000000000000000000000000000000000000000000100005920579846SONIA MARIA VALDO POLLO                 RUA PALMIRA CERVI BARBARO - 797 - CIDADE            13214370                                                            000041
2SR. CAIXA, APOS O VENCIMENTO COBRAR 10% DE MULTA                                NAO RECEBER APOS 30 DIAS DO VENCIMENTO.                                                                                                                                                                                                         01062100000000000000106210000000000000       0090028004416120059205062111000042
100000000000000000000009002800441612000000000000000000000000010002100002494106211200000000002            2  01024941062110062100000003537120000000001N010621000000000000000000000000000000000000000000000000000000000000000100002494107881CIRO FRANCISCO MARCHI DURIGON           RUA MONTE CASTELO - 262 AP.115 - AVIACAO            11702720                                                            000044
2SR. CAIXA, APOS O VENCIMENTO COBRAR 10% DE MULTA                                NAO RECEBER APOS 30 DIAS DO VENCIMENTO.                                                                                                                                                                                                         01062100000000000000106210000000000000       0090028004416120024941062112000045
100000000000000000000009002800441612000000000000000000000000010002100007002306211P00000000002            2  01070023062110062100000003477150000000001N010621000000000000000000000000000000000000000000000000000000000000000100007002345869DOMINGOS DE BRITO GALVAO                RUA MONTE CASTELO - 262 AP.44 - AVIACAO             11702720                                                            000047
2SR. CAIXA, APOS O VENCIMENTO COBRAR 10% DE MULTA                                NAO RECEBER APOS 30 DIAS DO VENCIMENTO.                                                                                                                                                                                                         01062100000000000000106210000000000000       009002800441612007002306211P000048
100000000000000000000009002800441612000000000000000000000000010002100016299006211300000000002            2  01162990062110062100000003351980000000001N010621000000000000000000000000000000000000000000000000000000000000000100016299008857FERNANDO CESAR CARVALHO                 AVENIDA MARCONDES DE BRITO - 1340 AP.74             03509000                                                            000050
2SR. CAIXA, APOS O VENCIMENTO COBRAR 10% DE MULTA                                NAO RECEBER APOS 30 DIAS DO VENCIMENTO.                                                                                                                                                                                                         01062100000000000000106210000000000000       0090028004416120162990062113000051
100000000000000000000009002800441612000000000000000000000000010002100065895306211700000000002            2  01658953062110062100000002050740000000001N010621000000000000000000000000000000000000000000000000000000000000000100065895304834MARINHO BARBOSA CUNHA                   AVENIDA EDU CHAVES - 639 AP.43 - PARQUE             02229000                                                            000053
2SR. CAIXA, APOS O VENCIMENTO COBRAR 10% DE MULTA                                NAO RECEBER APOS 30 DIAS DO VENCIMENTO.                                                                                                                                                                                                         01062100000000000000106210000000000000       0090028004416120658953062117000054
100000000000000000000009002800441612000000000000000000000000010002100055975306211400000000002            2  01559753062110062100000000765450000000001N010621000000000000000000000000000000000000000000000000000000000000000100055975372887BENEVENUTO THEODORO DA SILVA NETO       RUA MONTE CASTELO - 296 AP.63 - AVIACAO             11702720                                                            000056
2SR. CAIXA, APOS O VENCIMENTO COBRAR 10% DE MULTA                                NAO RECEBER APOS 30 DIAS DO VENCIMENTO.                                                                                                                                                                                                         01062100000000000000106210000000000000       0090028004416120559753062114000057
9                                                                                                                                                                                                                                                                                                                                                                                                         000058