01REMESSA01COBRANCA       00000000000008017025HB SANTOS CONSTRUTORA E INCORP237BRADESCO       090622        MX0000155                                                                                                                                                                                                                                                                                     000001
100000000000000000000009033990000627000000000000000000000000010002020025035106221400000000002            2  01250351062224062200000002711900000000001N090622000000000000000000000000000000000000000000000000000000000000000100025035170802WANDERSON LUIS DE CARVALHO              RUA JOAQUIM GONCALVES ROCHA - 302 - JARD            02859030                                                            000002
2SR. CAIXA, APOS O VENCIMENTO COBRAR 2% DE MULTA                                 NAO RECEBER APOS 30 DIAS DO VENCIMENTO.                                                                                                                                                                                                         09062200000000000000906220000000000000       0090339900006270250351062214000003
100000000000000000000009033990000627000000000000000000000000010002020007294306221100000000002            2  01072943062224062200000003647500000000001N090622000000000000000000000000000000000000000000000000000000000000000100007294351805CLAUDENIR APARECIDO VACARI              RUA CARLOS JOSE BORSTENS - 50 AP.93 - AV            11702750                                                            000005
2SR. CAIXA, APOS O VENCIMENTO COBRAR 2% DE MULTA                                 NAO RECEBER APOS 30 DIAS DO VENCIMENTO.                                                                                                                                                                                                         09062200000000000000906220000000000000       0090339900006270072943062211000006
100000000000000000000009033990000627000000000000000000000000010002020007525006221700000000002            2  01075250062224062200000004079910000000001N090622000000000000000000000000000000000000000000000000000000000000000100007525032866FERNANDO RIBEIRO                        RUA CARLOS JOSE BORSTENS - 50 AP.32 - AV            11702750                                                            000008
2SR. CAIXA, APOS O VENCIMENTO COBRAR 2% DE MULTA                                 NAO RECEBER APOS 30 DIAS DO VENCIMENTO.                                                                                                                                                                                                         09062200000000000000906220000000000000       0090339900006270075250062217000009
100000000000000000000009033990000627000000000000000000000000010002020005071406221200000000002            2  01050714062224062200000003578880000000001N090622000000000000000000000000000000000000000000000000000000000000000100005071481855ERIBALDO SANTANA CARVALHO               RUA HONDURAS - 477 - PARQUE DAS AMERICAS            09351070                                                            000011
2SR. CAIXA, APOS O VENCIMENTO COBRAR 2% DE MULTA                                 NAO RECEBER APOS 30 DIAS DO VENCIMENTO.                                                                                                                                                                                                         09062200000000000000906220000000000000       0090339900006270050714062212000012
100000000000000000000009033990000627000000000000000000000000010002020002841706221600000000002            2  01028417062224062200000003348360000000001N090622000000000000000000000000000000000000000000000000000000000000000100002841756416LUCIANA PINHEIRO DE ASSIS NUNES         RUA RIO ACIMA - 81 - RIACHO GRANDE - SAO            09830100                                                            000014
2SR. CAIXA, APOS O VENCIMENTO COBRAR 2% DE MULTA                                 NAO RECEBER APOS 30 DIAS DO VENCIMENTO.                                                                                                                                                                                                         09062200000000000000906220000000000000       0090339900006270028417062216000015
100000000000000000000009033990000627000000000000000000000000010002020084302006221500000000002            2  01843020062224062200000003364420000000001N090622000000000000000000000000000000000000000000000000000000000000000100084302097868FAUSTO TADEU VILOR                      RUA ANTONIO TAVARES - 466 - BAIRRO CAMBU            01542010                                                            000017
2SR. CAIXA, APOS O VENCIMENTO COBRAR 2% DE MULTA                                 NAO RECEBER APOS 30 DIAS DO VENCIMENTO.                                                                                                                                                                                                         09062200000000000000906220000000000000       0090339900006270843020062215000018
100000000000000000000009033990000627000000000000000000000000010002020028804206221500000000002            2  01288042062224062200000003305570000000001N090622000000000000000000000000000000000000000000000000000000000000000100028804202882GILBERTO FABIANO CABRAL DE CAMARGO      RUA CARLOS JOSE BORSTENS - 50 AP.44 - AV            11702750                                                            000020
2SR. CAIXA, APOS O VENCIMENTO COBRAR 2% DE MULTA                                 NAO RECEBER APOS 30 DIAS DO VENCIMENTO.                                                                                                                                                                                                         09062200000000000000906220000000000000       0090339900006270288042062215000021
100000000000000000000009033990000627000000000000000000000000010002020000991706221800000000002            2  01009917062224062200000003226380000000001N090622000000000000000000000000000000000000000000000000000000000000000100000991748808JAILSON BORGES DE ANDRADE               RUA IPIOBUNA - 45 - JARDIM CUMBICA - GUA            07240040                                                            000023
2SR. CAIXA, APOS O VENCIMENTO COBRAR 2% DE MULTA                                 NAO RECEBER APOS 30 DIAS DO VENCIMENTO.                                                                                                                                                                                                         09062200000000000000906220000000000000       0090339900006270009917062218000024
100000000000000000000009033990000627000000000000000000000000010002020022151606221400000000002            2  01221516062224062200000003207640000000001N090622000000000000000000000000000000000000000000000000000000000000000100022151666816SAMIR LIMA DE ARAUJO                    AVENIDA GUARAPIRANGA - 2616 AP.131 BL.14            04902005                                                            000026
2SR. CAIXA, APOS O VENCIMENTO COBRAR 2% DE MULTA                                 NAO RECEBER APOS 30 DIAS DO VENCIMENTO.                                                                                                                                                                                                         09062200000000000000906220000000000000       0090339900006270221516062214000027
100000000000000000000009033990000627000000000000000000000000010002020022313106221600000000002            2  01223131062226062200000002467440000000001N090622000000000000000000000000000000000000000000000000000000000000000100022313116824ROSA MARIA BRITO DA SILVA               RUA SERVIDAO DE SAO MARCOS - 128 CASA 1             04930300                                                            000029
2SR. CAIXA, APOS O VENCIMENTO COBRAR 2% DE MULTA                                 NAO RECEBER APOS 30 DIAS DO VENCIMENTO.                                                                                                                                                                                                         09062200000000000000906220000000000000       0090339900006270223131062216000030
100000000000000000000009033990000627000000000000000000000000010002020027538006221800000000002            2  01275380062226062200000002476040000000001N090622000000000000000000000000000000000000000000000000000000000000000100027538087249MARA LUCIA MENEZES DA COSTA             RUA LEILA  - 183 - ITAQUERA - SAO PAULO             08240020                                                            000032
2SR. CAIXA, APOS O VENCIMENTO COBRAR 2% DE MULTA                                 NAO RECEBER APOS 30 DIAS DO VENCIMENTO.                                                                                                                                                                                                         09062200000000000000906220000000000000       0090339900006270275380062218000033
100000000000000000000009033990000627000000000000000000000000010002020031278406221400000000002            2  01312784062224062200000003098670000000001N090622000000000000000000000000000000000000000000000000000000000000000100031278411836JEFFERSON DE PIERI PIRES ZAMUNER        RUA MANOEL ARCE - 277 - PARQUE BANCARIO             03922150                                                            000035
2SR. CAIXA, APOS O VENCIMENTO COBRAR 2% DE MULTA                                 NAO RECEBER APOS 30 DIAS DO VENCIMENTO.                                                                                                                                                                                                         09062200000000000000906220000000000000       0090339900006270312784062214000036
100000000000000000000009033990000627000000000000000000000000010002020019185706221600000000002            2  01191857062226062200000002253260000000001N090622000000000000000000000000000000000000000000000000000000000000000100019185769800AGUINALDO PESSOA DE LIMA                RUA JANUARIO ZINGARO - 252 AP.303 BL.04             05794300                                                            000038
2SR. CAIXA, APOS O VENCIMENTO COBRAR 2% DE MULTA                                 NAO RECEBER APOS 30 DIAS DO VENCIMENTO.                                                                                                                                                                                                         09062200000000000000906220000000000000       0090339900006270191857062216000039
100000000000000000000009033990000627000000000000000000000000010002020033303606221700000000002            2  01333036062226062200000002426940000000001N090622000000000000000000000000000000000000000000000000000000000000000100033303645809JESSICA DA SILVA FREITAS                RUA ARILDO VALADAO - 120 - JARDIM GUAEMB            04814600                                                            000041
2SR. CAIXA, APOS O VENCIMENTO COBRAR 2% DE MULTA                                 NAO RECEBER APOS 30 DIAS DO VENCIMENTO.                                                                                                                                                                                                         09062200000000000000906220000000000000       0090339900006270333036062217000042
100000000000000000000009033990000627000000000000000000000000010002020006422606221200000000002            2  01064226062224062200000003355930000000001N090622000000000000000000000000000000000000000000000000000000000000000100006422607881GERALDO ALVES DA SILVA                  RUA CARLOS JOSE BORSTENS - 50 AP.14 - AV            11702750                                                            000044
2SR. CAIXA, APOS O VENCIMENTO COBRAR 2% DE MULTA                                 NAO RECEBER APOS 30 DIAS DO VENCIMENTO.                                                                                                                                                                                                         09062200000000000000906220000000000000       0090339900006270064226062212000045
100000000000000000000009033990000627000000000000000000000000010002020033877106221400000000002            2  01338771062226062200000002275330000000001N090622000000000000000000000000000000000000000000000000000000000000000100033877129870HELDER FERREIRA VIANA                   RUA JOSE CALIXTO DO CARMO - 286 AP.35 -             11702690                                                            000047
2SR. CAIXA, APOS O VENCIMENTO COBRAR 2% DE MULTA                                 NAO RECEBER APOS 30 DIAS DO VENCIMENTO.                                                                                                                                                                                                         09062200000000000000906220000000000000       0090339900006270338771062214000048
100000000000000000000009033990000627000000000000000000000000010002020028290706221800000000002            2  01282907062226062200000002097030000000001N090622000000000000000000000000000000000000000000000000000000000000000100028290719809VANESSA GIANGARRELLI PEREIRA            RUA BARINEL - 72 - JARDIM COTCHING - SAO            03462130                                                            000050
2SR. CAIXA, APOS O VENCIMENTO COBRAR 2% DE MULTA                                 NAO RECEBER APOS 30 DIAS DO VENCIMENTO.                                                                                                                                                                                                         09062200000000000000906220000000000000       0090339900006270282907062218000051
100000000000000000000009033990000627000000000000000000000000010002020087573006221300000000002            2  01875730062226062200000002289920000000001N090622000000000000000000000000000000000000000000000000000000000000000100087573059604VANDERLEY DE ASSIS                      RUA ROMEU ALBANI - 268 - JARDIM PARQUE R            13803810                                                            000053
2SR. CAIXA, APOS O VENCIMENTO COBRAR 2% DE MULTA                                 NAO RECEBER APOS 30 DIAS DO VENCIMENTO.                                                                                                                                                                                                         09062200000000000000906220000000000000       0090339900006270875730062213000054
100000000000000000000009033990000627000000000000000000000000010002020010825506221000000000002            2  01108255062226062200000002389640000000001N090622000000000000000000000000000000000000000000000000000000000000000100010825513847JOSE APARECIDO PEREIRA                  RUA GENERAL OSORIO - 305 - JARDIM TRINTA            11515130                                                            000056
2SR. CAIXA, APOS O VENCIMENTO COBRAR 2% DE MULTA                                 NAO RECEBER APOS 30 DIAS DO VENCIMENTO.                                                                                                                                                                                                         09062200000000000000906220000000000000       0090339900006270108255062210000057
100000000000000000000009033990000627000000000000000000000000010002020039115106221200000000002            2  01391151062226062200000002945650000000001N090622000000000000000000000000000000000000000000000000000000000000000100039115139840LAIS CRISTINA RIBEIRO ANDO              RUA JOSE CALIXTO DO CARMO - 286 AP.65 -             11702690                                                            000059
2SR. CAIXA, APOS O VENCIMENTO COBRAR 2% DE MULTA                                 NAO RECEBER APOS 30 DIAS DO VENCIMENTO.                                                                                                                                                                                                         09062200000000000000906220000000000000       0090339900006270391151062212000060
100000000000000000000009033990000627000000000000000000000000010002020029617506221000000000002            2  01296175062224062200000003293950000000001N090622000000000000000000000000000000000000000000000000000000000000000100029617510553MARILENE SOUZA DE OLIVEIRA              RUA DAS MONCOES - 460 AP.95 - BAIRRO JAR            09090521                                                            000062
2SR. CAIXA, APOS O VENCIMENTO COBRAR 2% DE MULTA                                 NAO RECEBER APOS 30 DIAS DO VENCIMENTO.                                                                                                                                                                                                         09062200000000000000906220000000000000       0090339900006270296175062210000063
100000000000000000000009033990000627000000000000000000000000010002020000593206221000000000002            2  01005932062224062200000003612660000000001N090622000000000000000000000000000000000000000000000000000000000000000100000593293860WALTER HELIO BARBOSA FILHO              AVENIDA ANTONIO FREDERICO OZANAN - 9500             13214206                                                            000065
2SR. CAIXA, APOS O VENCIMENTO COBRAR 2% DE MULTA                                 NAO RECEBER APOS 30 DIAS DO VENCIMENTO.                                                                                                                                                                                                         09062200000000000000906220000000000000       0090339900006270005932062210000066
100000000000000000000009033990000627000000000000000000000000010002020065584106221200000000002            2  01655841062224062200000001896460000000001N090622000000000000000000000000000000000000000000000000000000000000000100065584147834JOAQUIM DA COSTA MACHADO NETO           RUA CARLOS JOSE BORSTENS - 50 AP.42 - AV            11702750                                                            000068
2SR. CAIXA, APOS O VENCIMENTO COBRAR 2% DE MULTA                                 NAO RECEBER APOS 30 DIAS DO VENCIMENTO.                                                                                                                                                                                                         09062200000000000000906220000000000000       0090339900006270655841062212000069
100000000000000000000009033990000627000000000000000000000000010002020065584106222000000000002            2  01655841062224062200000001896450000000001N090622000000000000000000000000000000000000000000000000000000000000000100065584147834JOAQUIM DA COSTA MACHADO NETO           RUA CARLOS JOSE BORSTENS - 50 AP.42 - AV            11702750                                                            000071
2SR. CAIXA, APOS O VENCIMENTO COBRAR 2% DE MULTA                                 NAO RECEBER APOS 30 DIAS DO VENCIMENTO.                                                                                                                                                                                                         09062200000000000000906220000000000000       0090339900006270655841062220000072
100000000000000000000009033990000627000000000000000000000000010002020006684606221500000000002            2  01066846062226062200000002426650000000001N090622000000000000000000000000000000000000000000000000000000000000000100006684623884LAUDINOR VIEIRA GARCIA                  RUA CANDIDO SALES - 374 - JARDIM PRESIDE            07172000                                                            000074
2SR. CAIXA, APOS O VENCIMENTO COBRAR 2% DE MULTA                                 NAO RECEBER APOS 30 DIAS DO VENCIMENTO.                                                                                                                                                                                                         09062200000000000000906220000000000000       0090339900006270066846062215000075
100000000000000000000009033990000627000000000000000000000000010002020011663506221600000000002            2  01116635062226062200000002444110000000001N090622000000000000000000000000000000000000000000000000000000000000000100011663589844MARIA SAVIO QUARELLO                    AVENIDA MENDONCA DRUMOND - 321 - JARDIM             03524030                                                            000077
2SR. CAIXA, APOS O VENCIMENTO COBRAR 2% DE MULTA                                 NAO RECEBER APOS 30 DIAS DO VENCIMENTO.                                                                                                                                                                                                         09062200000000000000906220000000000000       0090339900006270116635062216000078
100000000000000000000009033990000627000000000000000000000000010002020010083806221800000000002            2  01100838062226062200000002361420000000001N090622000000000000000000000000000000000000000000000000000000000000000100010083824855IONE FERREIRA COUTO DA SILVA            RUA JOSE RAGEL DE MESQUITA - 60 CS.01 -             07799999                                                            000080
2SR. CAIXA, APOS O VENCIMENTO COBRAR 2% DE MULTA                                 NAO RECEBER APOS 30 DIAS DO VENCIMENTO.                                                                                                                                                                                                         09062200000000000000906220000000000000       0090339900006270100838062218000081
100000000000000000000009033990000627000000000000000000000000010002020031010706221300000000002            2  01310107062226062200000002317320000000001N090622000000000000000000000000000000000000000000000000000000000000000100031010705890ANDRE GONZALEZ RABELLO                  RUA PARAIBA - 106 AP.61 - POMPEIA - SANT            11065470                                                            000083
2SR. CAIXA, APOS O VENCIMENTO COBRAR 2% DE MULTA                                 NAO RECEBER APOS 30 DIAS DO VENCIMENTO.                                                                                                                                                                                                         09062200000000000000906220000000000000       0090339900006270310107062213000084
100000000000000000000009033990000627000000000000000000000000010002020005351006221200000000002            2  01053510062226062200000002172710000000001N090622000000000000000000000000000000000000000000000000000000000000000100005351015897VALERIA ALVES MARCOLINO HINNIGER        RUA JOSE CALIXTO DO CARMO - 286 AP.92 -             11702690                                                            000086
2SR. CAIXA, APOS O VENCIMENTO COBRAR 2% DE MULTA                                 NAO RECEBER APOS 30 DIAS DO VENCIMENTO.                                                                                                                                                                                                         09062200000000000000906220000000000000       0090339900006270053510062212000087
100000000000000000000009033990000627000000000000000000000000010002020031898706221800000000002            2  01318987062224062200000003456740000000001N090622000000000000000000000000000000000000000000000000000000000000000100031898775800ANITA MARTINS COLOMBO                   RUA CARLOS JOSE BORSTENS - 50 AP.115 - A            11702750                                                            000089
2SR. CAIXA, APOS O VENCIMENTO COBRAR 2% DE MULTA                                 NAO RECEBER APOS 30 DIAS DO VENCIMENTO.                                                                                                                                                                                                         09062200000000000000906220000000000000       0090339900006270318987062218000090
100000000000000000000009033990000627000000000000000000000000010002020037983406221800000000002            2  01379834062226062200000002552260000000001N090622000000000000000000000000000000000000000000000000000000000000000100037983484801JOSE ERIVALDO SOUZA DO NASCIMENTO RAMOS RUA LETICIA - 250 - JARDIM GUARUJA - SAO            05877260                                                            000092
2SR. CAIXA, APOS O VENCIMENTO COBRAR 2% DE MULTA                                 NAO RECEBER APOS 30 DIAS DO VENCIMENTO.                                                                                                                                                                                                         09062200000000000000906220000000000000       0090339900006270379834062218000093
100000000000000000000009033990000627000000000000000000000000010002020056289206221900000000002            2  01562892062226062200000001928080000000001N090622000000000000000000000000000000000000000000000000000000000000000100056289286900PEDRO RIBEIRO                           RUA CONEGO MANOEL VAZ - 48 - SANTANA - S            02019050                                                            000095
2SR. CAIXA, APOS O VENCIMENTO COBRAR 2% DE MULTA                                 NAO RECEBER APOS 30 DIAS DO VENCIMENTO.                                                                                                                                                                                                         09062200000000000000906220000000000000       0090339900006270562892062219000096
100000000000000000000009033990000627000000000000000000000000010002020034735306221500000000002            2  01347353062226062200000002646200000000001N090622000000000000000000000000000000000000000000000000000000000000000100034735328866DIEGO FELIPE MOLINA DA SILVA E SOUSA    RUA EMILIA PAULISTA - 135 - VILA TIRADEN            05364020                                                            000098
2SR. CAIXA, APOS O VENCIMENTO COBRAR 2% DE MULTA                                 NAO RECEBER APOS 30 DIAS DO VENCIMENTO.                                                                                                                                                                                                         09062200000000000000906220000000000000       0090339900006270347353062215000099
100000000000000000000009033990000627000000000000000000000000010002020076175606221600000000002            2  01761756062224062200000004797220000000001N090622000000000000000000000000000000000000000000000000000000000000000100076175685687GILMAR DE OLIVEIRA BRAGA                RUA MARACAJU - 161 AP.202 - NOVA GRANADA            30431350                                                            000101
2SR. CAIXA, APOS O VENCIMENTO COBRAR 2% DE MULTA                                 NAO RECEBER APOS 30 DIAS DO VENCIMENTO.                                                                                                                                                                                                         09062200000000000000906220000000000000       0090339900006270761756062216000102
100000000000000000000009033990000627000000000000000000000000010002020034812206221900000000002            2  01348122062224062200000004575160000000001N090622000000000000000000000000000000000000000000000000000000000000000100034812226880THAIS TORQUATO MIMOSO DE JESUS          RUA ARNALDO CINTRA - 416 AP.104 TORRE 2             03088000                                                            000104
2SR. CAIXA, APOS O VENCIMENTO COBRAR 2% DE MULTA                                 NAO RECEBER APOS 30 DIAS DO VENCIMENTO.                                                                                                                                                                                                         09062200000000000000906220000000000000       0090339900006270348122062219000105
100000000000000000000009033990000627000000000000000000000000010002020012849406221500000000002            2  01128494062226062200000004558680000000001N090622000000000000000000000000000000000000000000000000000000000000000100012849428809MOISES CLAUDIO DO ROSARIO               AVENIDA DR. AUGUSTO DE TOLEDO - 510 AP.1            09541520                                                            000107
2SR. CAIXA, APOS O VENCIMENTO COBRAR 2% DE MULTA                                 NAO RECEBER APOS 30 DIAS DO VENCIMENTO.                                                                                                                                                                                                         09062200000000000000906220000000000000       0090339900006270128494062215000108
100000000000000000000009033990000627000000000000000000000000010002020015702306221500000000002            2  01157023062226062200000002529240000000001N090622000000000000000000000000000000000000000000000000000000000000000100015702353846MARIA DE LOURDES DE MACENO SOUZA        RUA JOSE CALIXTO DO CARMO - 286 AP.83 -             11702690                                                            000110
2SR. CAIXA, APOS O VENCIMENTO COBRAR 2% DE MULTA                                 NAO RECEBER APOS 30 DIAS DO VENCIMENTO.                                                                                                                                                                                                         09062200000000000000906220000000000000       0090339900006270157023062215000111
100000000000000000000009033990000627000000000000000000000000010002020003658606221P00000000002            2  01036586062226062200000001883280000000001N090622000000000000000000000000000000000000000000000000000000000000000100003658668814MARINEZ VALENTIN                        RUA JOSE CALIXTO DO CARMO - 286 AP.95 -             11702690                                                            000113
2SR. CAIXA, APOS O VENCIMENTO COBRAR 2% DE MULTA                                 NAO RECEBER APOS 30 DIAS DO VENCIMENTO.                                                                                                                                                                                                         09062200000000000000906220000000000000       009033990000627003658606221P000114
100000000000000000000009033990000627000000000000000000000000010002020003658606222800000000002            2  01036586062226062200000001883270000000001N090622000000000000000000000000000000000000000000000000000000000000000100003658668814MARINEZ VALENTIN                        RUA JOSE CALIXTO DO CARMO - 286 AP.95 -             11702690                                                            000116
2SR. CAIXA, APOS O VENCIMENTO COBRAR 2% DE MULTA                                 NAO RECEBER APOS 30 DIAS DO VENCIMENTO.                                                                                                                                                                                                         09062200000000000000906220000000000000       0090339900006270036586062228000117
100000000000000000000009033990000627000000000000000000000000010002020014087406221800000000002            2  01140874062226062200000002516850000000001N090622000000000000000000000000000000000000000000000000000000000000000100014087484874SERGIO SANTOS DO NASCIMENTO             RUA JOSE CALIXTO DO CARMO - 286 AP.52 -             11702690                                                            000119
2SR. CAIXA, APOS O VENCIMENTO COBRAR 2% DE MULTA                                 NAO RECEBER APOS 30 DIAS DO VENCIMENTO.                                                                                                                                                                                                         09062200000000000000906220000000000000       0090339900006270140874062218000120
100000000000000000000009033990000627000000000000000000000000010002020026834506221700000000002            2  01268345062226062200000002318970000000001N090622000000000000000000000000000000000000000000000000000000000000000100026834550895RAQUEL CARDOSO JOAO                     RUA PEDROSO XAVIER - 277 AP.23 TORRE 01             02732020                                                            000122
2SR. CAIXA, APOS O VENCIMENTO COBRAR 2% DE MULTA                                 NAO RECEBER APOS 30 DIAS DO VENCIMENTO.                                                                                                                                                                                                         09062200000000000000906220000000000000       0090339900006270268345062217000123
100000000000000000000009033990000627000000000000000000000000010002020039540006221500000000002            2  01395400062226062200000002279860000000001N090622000000000000000000000000000000000000000000000000000000000000000100039540008816LUZINETE CLARINDO SILVA                 RUA DEINOS - 275 - BAIRRO CIDADE SATELIT            08340100                                                            000125
2SR. CAIXA, APOS O VENCIMENTO COBRAR 2% DE MULTA                                 NAO RECEBER APOS 30 DIAS DO VENCIMENTO.                                                                                                                                                                                                         09062200000000000000906220000000000000       0090339900006270395400062215000126
100000000000000000000009033990000627000000000000000000000000010002020003311006221200000000002            2  01033110062226062200000002374210000000001N090622000000000000000000000000000000000000000000000000000000000000000100003311030877SEBASTIAO SARUVA NETO                   RUA HAMILTON REGIS - 559 - BAIRRO DO LIM            08051440                                                            000128
2SR. CAIXA, APOS O VENCIMENTO COBRAR 2% DE MULTA                                 NAO RECEBER APOS 30 DIAS DO VENCIMENTO.                                                                                                                                                                                                         09062200000000000000906220000000000000       0090339900006270033110062212000129
100000000000000000000009033990000627000000000000000000000000010002020090091906221900000000002            2  01900919062226062200000002269400000000001N090622000000000000000000000000000000000000000000000000000000000000000100090091990882JUECIR CARVALHO DA LUZ                  RUA JOSE CALIXTO DO CARMO - 286 AP.114 -            11702690                                                            000131
2SR. CAIXA, APOS O VENCIMENTO COBRAR 2% DE MULTA                                 NAO RECEBER APOS 30 DIAS DO VENCIMENTO.                                                                                                                                                                                                         09062200000000000000906220000000000000       0090339900006270900919062219000132
100000000000000000000009033990000627000000000000000000000000010002020037325906221000000000002            2  01373259062226062200000001857190000000001N090622000000000000000000000000000000000000000000000000000000000000000100037325923830MARIA AUGUSTA OLIVEIRA DE ANDRADE       RUA JOSE CALIXTO DO CARMO - 286 AP.124 -            11702690                                                            000134
2SR. CAIXA, APOS O VENCIMENTO COBRAR 2% DE MULTA                                 NAO RECEBER APOS 30 DIAS DO VENCIMENTO.                                                                                                                                                                                                         09062200000000000000906220000000000000       0090339900006270373259062210000135
100000000000000000000009033990000627000000000000000000000000010002020012478806221800000000002            2  01124788062224062200000003381120000000001N090622000000000000000000000000000000000000000000000000000000000000000100012478899809VITORIA BATISTA QUEIROZ                 RUA CARVALHO DE FREITAS - 255 AP.71A - V            05728030                                                            000137
2SR. CAIXA, APOS O VENCIMENTO COBRAR 2% DE MULTA                                 NAO RECEBER APOS 30 DIAS DO VENCIMENTO.                                                                                                                                                                                                         09062200000000000000906220000000000000       0090339900006270124788062218000138
100000000000000000000009033990000627000000000000000000000000010002020013184806221900000000002            2  01131848062226062200000002243600000000001N090622000000000000000000000000000000000000000000000000000000000000000100013184856810SYDNEY HENRIQUE GAMARANO JUNIOR         RUA JOSE CALIXTO DO CARMO - 286 AP.125 -            11702690                                                            000140
2SR. CAIXA, APOS O VENCIMENTO COBRAR 2% DE MULTA                                 NAO RECEBER APOS 30 DIAS DO VENCIMENTO.                                                                                                                                                                                                         09062200000000000000906220000000000000       0090339900006270131848062219000141
100000000000000000000009033990000627000000000000000000000000010002020097989906221200000000002            2  01979899062226062200000001559170000000001N090622000000000000000000000000000000000000000000000000000000000000000100097989924820NELSON LUIS BERRIBILLE                  RUA SILVEIRA IGNACIO SOBRINHO - 965 - VI            13560294                                                            000143
2SR. CAIXA, APOS O VENCIMENTO COBRAR 2% DE MULTA                                 NAO RECEBER APOS 30 DIAS DO VENCIMENTO.                                                                                                                                                                                                         09062200000000000000906220000000000000       0090339900006270979899062212000144
100000000000000000000009033990000627000000000000000000000000010002020032341806221100000000002            2  01323418062224062200000003512020000000001N090622000000000000000000000000000000000000000000000000000000000000000100032341847803PRISCILA ALVES DE FRANCA MIRANDA        RUA CARLOS JOSE BORSTENS - 50 AP.91 - AV            11702750                                                            000146
2SR. CAIXA, APOS O VENCIMENTO COBRAR 2% DE MULTA                                 NAO RECEBER APOS 30 DIAS DO VENCIMENTO.                                                                                                                                                                                                         09062200000000000000906220000000000000       0090339900006270323418062211000147
100000000000000000000009033990000627000000000000000000000000010002020016050606221700000000002            2  01160506062224062200000003259830000000001N090622000000000000000000000000000000000000000000000000000000000000000100016050684898ANDRE RODRIGUES DE OLIVEIRA             RUA CORACAO PAULISTA - 14 - FAZENDA ITAI            08132430                                                            000149
2SR. CAIXA, APOS O VENCIMENTO COBRAR 2% DE MULTA                                 NAO RECEBER APOS 30 DIAS DO VENCIMENTO.                                                                                                                                                                                                         09062200000000000000906220000000000000       0090339900006270160506062217000150
100000000000000000000009033990000627000000000000000000000000010002020021464906221000000000002            2  01214649062224062200000005137590000000001N090622000000000000000000000000000000000000000000000000000000000000000100021464965846ANDREA APARECIDA DE OLIVEIRA PECCI      RUA ANTONIO BOZ MARFIL - 103 - PARQUE DO            05396020                                                            000152
2SR. CAIXA, APOS O VENCIMENTO COBRAR 2% DE MULTA                                 NAO RECEBER APOS 30 DIAS DO VENCIMENTO.                                                                                                                                                                                                         09062200000000000000906220000000000000       0090339900006270214649062210000153
100000000000000000000009033990000627000000000000000000000000010002020030348106221200000000002            2  01303481062224062200000003112860000000001N090622000000000000000000000000000000000000000000000000000000000000000100030348198892KELLY CRISTINA CORDEIRO                 RUA CARLOS JOSE BORSTENS - 50 AP.25 - AV            11702750                                                            000155
2SR. CAIXA, APOS O VENCIMENTO COBRAR 2% DE MULTA                                 NAO RECEBER APOS 30 DIAS DO VENCIMENTO.                                                                                                                                                                                                         09062200000000000000906220000000000000       0090339900006270303481062212000156
9                                                                                                                                                                                                                                                                                                                                                                                                         000157