01REMESSA01COBRANCA       00000000000005331186HB SANTOS CONSTRUTORA E INCORP237BRADESCO       010124        MX0000088                                                                                                                                                                                                                                                                                     000001
100000000000000000000009033990000995400000000000000000000000010002020026858601241500000000002            2  01268586012408012400000003301930000000001N010124000000000000000000000000000000000000000000000000000000000000000100026858625879GLAUCE FERREIRA DE OLIVEIRA FALSI       RUA LOURENCO ANTONIO BRAGANCA - 116 - JA            04403160                                                            000002
2SR. CAIXA, APOS O VENCIMENTO COBRAR 2% DE MULTA                                 NAO RECEBER APOS 30 DIAS DO VENCIMENTO.                                                                                                                                                                                                         01012400000000000000101240000000000000       0090339900009954268586012415000003
100000000000000000000009033990000995400000000000000000000000010002020029425001241800000000002            2  01294250012408012400000003140130000000001N010124000000000000000000000000000000000000000000000000000000000000000100029425027897FABIA DOS SANTOS DE ANDRADE             AVENIDA ALCIDES CANDIDO DOS SANTOS - 248            11705480                                                            000005
2SR. CAIXA, APOS O VENCIMENTO COBRAR 2% DE MULTA                                 NAO RECEBER APOS 30 DIAS DO VENCIMENTO.                                                                                                                                                                                                         01012400000000000000101240000000000000       0090339900009954294250012418000006
100000000000000000000009033990000995400000000000000000000000010002020078382701241300000000002            2  01783827012408012400000003173290000000001N010124000000000000000000000000000000000000000000000000000000000000000100078382700497JARMELINA BARBOSA DA SILVA              RUA OSCAR CINTRA GORDINHO - 211 AP.51 -             01512010                                                            000008
2SR. CAIXA, APOS O VENCIMENTO COBRAR 2% DE MULTA                                 NAO RECEBER APOS 30 DIAS DO VENCIMENTO.                                                                                                                                                                                                         01012400000000000000101240000000000000       0090339900009954783827012413000009
100000000000000000000009033990000995400000000000000000000000010002020007535301241200000000002            2  01075353012408012400000003111780000000001N010124000000000000000000000000000000000000000000000000000000000000000100007535375839AINAILDE PEREIRA DE CASTRO OLIVETTO     TRAVESSA DORALINA ELIETE ADAO DA SILVA -            08021026                                                            000011
2SR. CAIXA, APOS O VENCIMENTO COBRAR 2% DE MULTA                                 NAO RECEBER APOS 30 DIAS DO VENCIMENTO.                                                                                                                                                                                                         01012400000000000000101240000000000000       0090339900009954075353012412000012
100000000000000000000009033990000995400000000000000000000000010002020017229701241800000000002            2  01172297012408012400000003296270000000001N010124000000000000000000000000000000000000000000000000000000000000000100017229751802BERENICE VIEIRA KERSTING                RUA ATIBAIA - 17 AP.417 - BAIRRO IMPERAD            11707380                                                            000014
2SR. CAIXA, APOS O VENCIMENTO COBRAR 2% DE MULTA                                 NAO RECEBER APOS 30 DIAS DO VENCIMENTO.                                                                                                                                                                                                         01012400000000000000101240000000000000       0090339900009954172297012418000015
100000000000000000000009033990000995400000000000000000000000010002020028974201241P00000000002            2  01289742012408012400000003078610000000001N010124000000000000000000000000000000000000000000000000000000000000000100028974233827MARISTELA FAVANI DE OLIVEIRA            RUA GIUSEPPE CARNEVALLI - 96 - BAIRRO BO            09572100                                                            000017
2SR. CAIXA, APOS O VENCIMENTO COBRAR 2% DE MULTA                                 NAO RECEBER APOS 30 DIAS DO VENCIMENTO.                                                                                                                                                                                                         01012400000000000000101240000000000000       009033990000995428974201241P000018
100000000000000000000009033990000995400000000000000000000000010002020092184801241700000000002            2  01921848012408012400000003037660000000001N010124000000000000000000000000000000000000000000000000000000000000000100092184804800CARMEM DO SOCORRO GUILHERME             ESTRADA SAO FRANCISCO - 1.850 AP.182A -             06765000                                                            000020
2SR. CAIXA, APOS O VENCIMENTO COBRAR 2% DE MULTA                                 NAO RECEBER APOS 30 DIAS DO VENCIMENTO.                                                                                                                                                                                                         01012400000000000000101240000000000000       0090339900009954921848012417000021
100000000000000000000009033990000995400000000000000000000000010002020009169701241700000000002            2  01091697012408012400000002436240000000001N010124000000000000000000000000000000000000000000000000000000000000000100009169701830TADEU CONSTANTINO LOPES                 RUA JOSE ANTONIO COELHO - 349 CASA 01 -             04011061                                                            000023
2SR. CAIXA, APOS O VENCIMENTO COBRAR 2% DE MULTA                                 NAO RECEBER APOS 30 DIAS DO VENCIMENTO.                                                                                                                                                                                                         01012400000000000000101240000000000000       0090339900009954091697012417000024
100000000000000000000009033990000995400000000000000000000000010002020042480101241500000000002            2  01424801012408012400000003099120000000001N010124000000000000000000000000000000000000000000000000000000000000000100042480155870JAMITRE SOIOMARA ALVES DO NASCIMENTO DAVRUA URUGUAI - 89 AP.75 - JARDIM GUILHERM            11702300                                                            000026
2SR. CAIXA, APOS O VENCIMENTO COBRAR 2% DE MULTA                                 NAO RECEBER APOS 30 DIAS DO VENCIMENTO.                                                                                                                                                                                                         01012400000000000000101240000000000000       0090339900009954424801012415000027
100000000000000000000009033990000995400000000000000000000000010002020001356901241100000000002            2  01013569012408012400000003145260000000001N010124000000000000000000000000000000000000000000000000000000000000000100001356993800DALVA MARIA DOS SANTOS                  RUA URUGUAI - 89 AP.74 - AVIACAO - PRAIA            11702300                                                            000029
2SR. CAIXA, APOS O VENCIMENTO COBRAR 2% DE MULTA                                 NAO RECEBER APOS 30 DIAS DO VENCIMENTO.                                                                                                                                                                                                         01012400000000000000101240000000000000       0090339900009954013569012411000030
100000000000000000000009033990000995400000000000000000000000010002020024615501241400000000002            2  01246155012408012400000003587030000000001N010124000000000000000000000000000000000000000000000000000000000000000100024615557884GILBERTO JOSE GONSALES                  RUA URUGUAI - 89 AP.115 - JARDIM GUILHER            11702300                                                            000032
2SR. CAIXA, APOS O VENCIMENTO COBRAR 2% DE MULTA                                 NAO RECEBER APOS 30 DIAS DO VENCIMENTO.                                                                                                                                                                                                         01012400000000000000101240000000000000       0090339900009954246155012414000033
100000000000000000000009033990000995400000000000000000000000010002020036949501241300000000002            2  01369495012408012400000003356590000000001N010124000000000000000000000000000000000000000000000000000000000000000100036949505833FELIPE APARECIDO DOS SANTOS             RUA DAS MIMOSAS - 67 CASA 09 - VILA LUCI            03144010                                                            000035
2SR. CAIXA, APOS O VENCIMENTO COBRAR 2% DE MULTA                                 NAO RECEBER APOS 30 DIAS DO VENCIMENTO.                                                                                                                                                                                                         01012400000000000000101240000000000000       0090339900009954369495012413000036
100000000000000000000009033990000995400000000000000000000000010002020008539301241000000000002            2  01085393012408012400000003429470000000001N010124000000000000000000000000000000000000000000000000000000000000000100008539365871EDMILSON RAIMUNDO DOS SANTOS            RUA CALIDICE - 247 - PARQUE CRUZEIRO - S            08070010                                                            000038
2SR. CAIXA, APOS O VENCIMENTO COBRAR 2% DE MULTA                                 NAO RECEBER APOS 30 DIAS DO VENCIMENTO.                                                                                                                                                                                                         01012400000000000000101240000000000000       0090339900009954085393012410000039
100000000000000000000009033990000995400000000000000000000000010002020004611201241100000000002            2  01046112012408012400000002175140000000001N010124000000000000000000000000000000000000000000000000000000000000000100004611218830TANIA MARIA DA SILVA NUNES PEREIRA LUIZ RUA URUGUAI - 89 AP.103 - JARDIM GUILHER            11702300                                                            000041
2SR. CAIXA, APOS O VENCIMENTO COBRAR 2% DE MULTA                                 NAO RECEBER APOS 30 DIAS DO VENCIMENTO.                                                                                                                                                                                                         01012400000000000000101240000000000000       0090339900009954046112012411000042
100000000000000000000009033990000995400000000000000000000000010002020010548801241900000000002            2  01105488012408012400000003864870000000001N010124000000000000000000000000000000000000000000000000000000000000000100010548844801RICARDO DE JESUS CALDAS                 RUA ANTONIO AMBUBA - 50 CASA 60 - BAIRRO            05782370                                                            000044
2SR. CAIXA, APOS O VENCIMENTO COBRAR 2% DE MULTA                                 NAO RECEBER APOS 30 DIAS DO VENCIMENTO.                                                                                                                                                                                                         01012400000000000000101240000000000000       0090339900009954105488012419000045
100000000000000000000009033990000995400000000000000000000000010002020032038701241600000000002            2  01320387012408012400000002537080000000001N010124000000000000000000000000000000000000000000000000000000000000000100032038775893GUSTAVO PEREIRA DA CRUZ                 RUA SAO FIDELIS - 203 - JARDIM BRASIL -             16074050                                                            000047
2SR. CAIXA, APOS O VENCIMENTO COBRAR 2% DE MULTA                                 NAO RECEBER APOS 30 DIAS DO VENCIMENTO.                                                                                                                                                                                                         01012400000000000000101240000000000000       0090339900009954320387012416000048
100000000000000000000009033990000995400000000000000000000000010002020008993101241300000000002            2  01089931012408012400000011973630000000001N010124000000000000000000000000000000000000000000000000000000000000000100008993178801PATRICIA BITTENCOURT FRACARO            RUA MARCIO MAZZEI - 337 - VILA NOVA MAZZ            02316050                                                            000050
2SR. CAIXA, APOS O VENCIMENTO COBRAR 2% DE MULTA                                 NAO RECEBER APOS 30 DIAS DO VENCIMENTO.                                                                                                                                                                                                         01012400000000000000101240000000000000       0090339900009954089931012413000051
100000000000000000000009033990000995400000000000000000000000010002020025914201241P00000000002            2  01259142012408012400000003449680000000001N010124000000000000000000000000000000000000000000000000000000000000000100025914206880JONAS DOS REIS MACHADO                  RUA PROFESSORA MARGARIDA RUTH FERREIRA D            02378200                                                            000053
2SR. CAIXA, APOS O VENCIMENTO COBRAR 2% DE MULTA                                 NAO RECEBER APOS 30 DIAS DO VENCIMENTO.                                                                                                                                                                                                         01012400000000000000101240000000000000       009033990000995425914201241P000054
100000000000000000000009033990000995400000000000000000000000010002020032549501241600000000002            2  01325495012408012400000003152800000000001N010124000000000000000000000000000000000000000000000000000000000000000100032549502833PAMELA DECENCI                          RUA URUGUAI - 89 AP.61 - AVIACAO - PRAIA            11702300                                                            000056
2SR. CAIXA, APOS O VENCIMENTO COBRAR 2% DE MULTA                                 NAO RECEBER APOS 30 DIAS DO VENCIMENTO.                                                                                                                                                                                                         01012400000000000000101240000000000000       0090339900009954325495012416000057
100000000000000000000009033990000995400000000000000000000000010002020027969401241500000000002            2  01279694012408012400000002535490000000001N010124000000000000000000000000000000000000000000000000000000000000000100027969412807THIAGO BARRETO PEREZ                    RUA ARMINDO GUARANA - 170 - VILA REGENTE            03335070                                                            000059
2SR. CAIXA, APOS O VENCIMENTO COBRAR 2% DE MULTA                                 NAO RECEBER APOS 30 DIAS DO VENCIMENTO.                                                                                                                                                                                                         01012400000000000000101240000000000000       0090339900009954279694012415000060
100000000000000000000009033990000995400000000000000000000000010002020013466501241600000000002            2  01134665012408012400000003396750000000001N010124000000000000000000000000000000000000000000000000000000000000000100013466586844MAURICIO DANTAS DA SILVA                RUA CASTOR - 57 - CIDADE SATELITE SANTA             08340120                                                            000062
2SR. CAIXA, APOS O VENCIMENTO COBRAR 2% DE MULTA                                 NAO RECEBER APOS 30 DIAS DO VENCIMENTO.                                                                                                                                                                                                         01012400000000000000101240000000000000       0090339900009954134665012416000063
9                                                                                                                                                                                                                                                                                                                                                                                                         000064