01REMESSA01COBRANCA       00000000000004991781AIRES CONSTRUTORA E INCORPORAD237BRADESCO       090118        MX0000096                                                                                                                                                                                                                                                                                     000001
100000000000000000000009077090006612500000000000000000000000010002100001224501181500000000002            2  01012245011825011800000003316500000000001N090118000000000000000000000000000000000000000000000000000000000000000100001224509579REINALDO JUNIOR MARTINS DE ABREU        RUA JUSTINO NIGRO - 449 - INTERLAGOS - S            04815030                                                            000002
2SR. CAIXA, APOS O VENCIMENTO COBRAR 10% DE MULTA                                NAO RECEBER APOS 30 DIAS DO VENCIMENTO.                                                                                                                                                                                                         09011800000000000000901180000000000000       0090770900066125012245011815000003
100000000000000000000009077090006612500000000000000000000000010002100003325101181600000000002            2  01033251011825011800000003225520000000001N090118000000000000000000000000000000000000000000000000000000000000000100003325102808MARCOS DE OLIVEIRA JUNIOR               RUA LUIS NOVELLETO - 91 - PARQUE CONTINE            05324080                                                            000005
2SR. CAIXA, APOS O VENCIMENTO COBRAR 10% DE MULTA                                NAO RECEBER APOS 30 DIAS DO VENCIMENTO.                                                                                                                                                                                                         09011800000000000000901180000000000000       0090770900066125033251011816000006
100000000000000000000009077090006612500000000000000000000000010002100016338901181800000000002            2  01163389011825011800000003272340000000001N090118000000000000000000000000000000000000000000000000000000000000000100016338929806EDVALDO DA SILVA ANDRADE                RUA ARIA - 434 - PARQUE ALVES DE LIMA -             04902170                                                            000008
2SR. CAIXA, APOS O VENCIMENTO COBRAR 10% DE MULTA                                NAO RECEBER APOS 30 DIAS DO VENCIMENTO.                                                                                                                                                                                                         09011800000000000000901180000000000000       0090770900066125163389011818000009
100000000000000000000009077090006612500000000000000000000000010002100026836901181800000000002            2  01268369011825011800000002963320000000001N090118000000000000000000000000000000000000000000000000000000000000000100026836908860VANDERLEI FIGUEIREDO DE CARVALHO        RUA TUPI - 840 - VILA TUPI - PRAIA GRAND            11703260                                                            000011
2SR. CAIXA, APOS O VENCIMENTO COBRAR 10% DE MULTA                                NAO RECEBER APOS 30 DIAS DO VENCIMENTO.                                                                                                                                                                                                         09011800000000000000901180000000000000       0090770900066125268369011818000012
100000000000000000000009077090006612500000000000000000000000010002100059861501181400000000002            2  01598615011825011800000003291430000000001N090118000000000000000000000000000000000000000000000000000000000000000100059861576800REINALDO LOPES DE OLIVEIRA              RUA DA SERVIDAO - 40 - VILA ROSCHEL - SA            04891045                                                            000014
2SR. CAIXA, APOS O VENCIMENTO COBRAR 10% DE MULTA                                NAO RECEBER APOS 30 DIAS DO VENCIMENTO.                                                                                                                                                                                                         09011800000000000000901180000000000000       0090770900066125598615011814000015
100000000000000000000009077090006612500000000000000000000000010002100028379801181700000000002            2  01283798011825011800000002952070000000001N090118000000000000000000000000000000000000000000000000000000000000000100028379879805EDMILSON DANIEL GARCIA WATANUKI         RUA MONTE CASTELO - 295 AP.82 - AVIACAO             11702720                                                            000017
2SR. CAIXA, APOS O VENCIMENTO COBRAR 10% DE MULTA                                NAO RECEBER APOS 30 DIAS DO VENCIMENTO.                                                                                                                                                                                                         09011800000000000000901180000000000000       0090770900066125283798011817000018
100000000000000000000009077090006612500000000000000000000000010002100016330901181200000000002            2  01163309011825011800000003271510000000001N090118000000000000000000000000000000000000000000000000000000000000000100016330938830KARINA CORDEIRO PIASSA                  CONDE MOREIRA LIMA - 644 - JARDIM JABAQU            04384032                                                            000020
2SR. CAIXA, APOS O VENCIMENTO COBRAR 10% DE MULTA                                NAO RECEBER APOS 30 DIAS DO VENCIMENTO.                                                                                                                                                                                                         09011800000000000000901180000000000000       0090770900066125163309011812000021
100000000000000000000009077090006612500000000000000000000000010002100077027601181500000000002            2  01770276011825011800000003179640000000001N090118000000000000000000000000000000000000000000000000000000000000000100077027604868CLINEU LISSONI                          AVENIDA VILA EMA - 1100 AP.41 - VILA PRU            03156000                                                            000023
2SR. CAIXA, APOS O VENCIMENTO COBRAR 10% DE MULTA                                NAO RECEBER APOS 30 DIAS DO VENCIMENTO.                                                                                                                                                                                                         09011800000000000000901180000000000000       0090770900066125770276011815000024
100000000000000000000009077090006612500000000000000000000000010002100005627901181100000000002            2  01056279011825011800000002981060000000001N090118000000000000000000000000000000000000000000000000000000000000000100005627947861FERNANDO CESAR MARCELINO                RUA CASA FORTE - 46 AP.11 - AGUA FRIA -             02336040                                                            000026
2SR. CAIXA, APOS O VENCIMENTO COBRAR 10% DE MULTA                                NAO RECEBER APOS 30 DIAS DO VENCIMENTO.                                                                                                                                                                                                         09011800000000000000901180000000000000       0090770900066125056279011811000027
100000000000000000000009077090006612500000000000000000000000010002100029380701181200000000002            2  01293807011825011800000002963500000000001N090118000000000000000000000000000000000000000000000000000000000000000100029380708882EDUARDO MENDONCA DAMASCENO              RUA MONTE CASTELO - 296 AP.12 - AVIACAO             11702720                                                            000029
2SR. CAIXA, APOS O VENCIMENTO COBRAR 10% DE MULTA                                NAO RECEBER APOS 30 DIAS DO VENCIMENTO.                                                                                                                                                                                                         09011800000000000000901180000000000000       0090770900066125293807011812000030
100000000000000000000009077090006612500000000000000000000000010002100023988501181600000000002            2  01239885011825011800000003009100000000001N090118000000000000000000000000000000000000000000000000000000000000000100023988525634DALMY PIMENTA                           SAO CAETANO - 136 - VILA SAO VICENTE - U            38026220                                                            000032
2SR. CAIXA, APOS O VENCIMENTO COBRAR 10% DE MULTA                                NAO RECEBER APOS 30 DIAS DO VENCIMENTO.                                                                                                                                                                                                         09011800000000000000901180000000000000       0090770900066125239885011816000033
100000000000000000000009077090006612500000000000000000000000010002100004735201181800000000002            2  01047352011825011800000003271690000000001N090118000000000000000000000000000000000000000000000000000000000000000100004735273832DARIO LUIZ GONCALVES                    RUA MONTE CASTELO - 295 AP.113 - AVIACAO            11702720                                                            000035
2SR. CAIXA, APOS O VENCIMENTO COBRAR 10% DE MULTA                                NAO RECEBER APOS 30 DIAS DO VENCIMENTO.                                                                                                                                                                                                         09011800000000000000901180000000000000       0090770900066125047352011818000036
100000000000000000000009077090006612500000000000000000000000010002100007635201181800000000002            2  01076352011825011800000002925090000000001N090118000000000000000000000000000000000000000000000000000000000000000100007635293893SILVIO CARDOSO ZACARIAS                 RUA SOLIDONIO LEITE - 2718 AP.102 BLOCO             03275000                                                            000038
2SR. CAIXA, APOS O VENCIMENTO COBRAR 10% DE MULTA                                NAO RECEBER APOS 30 DIAS DO VENCIMENTO.                                                                                                                                                                                                         09011800000000000000901180000000000000       0090770900066125076352011818000039
100000000000000000000009077090006612500000000000000000000000010002100067192901181800000000002            2  01671929011825011800000002863580000000001N090118000000000000000000000000000000000000000000000000000000000000000100067192920800SONIA MARIA RIBEIRO SUDO                RUA INGAZEIRA - 133 - SAO MIGUEL - SAO P            08032080                                                            000041
2SR. CAIXA, APOS O VENCIMENTO COBRAR 10% DE MULTA                                NAO RECEBER APOS 30 DIAS DO VENCIMENTO.                                                                                                                                                                                                         09011800000000000000901180000000000000       0090770900066125671929011818000042
100000000000000000000009077090006612500000000000000000000000010002100007975901181100000000002            2  01079759011825011800000003182350000000001N090118000000000000000000000000000000000000000000000000000000000000000100007975958808JOCY VIGNADO                            RUA PEDRO GONCALVES SOBRINHO - 568 - PAR            13098641                                                            000044
2SR. CAIXA, APOS O VENCIMENTO COBRAR 10% DE MULTA                                NAO RECEBER APOS 30 DIAS DO VENCIMENTO.                                                                                                                                                                                                         09011800000000000000901180000000000000       0090770900066125079759011811000045
100000000000000000000009077090006612500000000000000000000000010002100036712501181400000000002            2  01367125011825011800000002975620000000001N090118000000000000000000000000000000000000000000000000000000000000000100036712580803WALTER BARRETO DE ALMEIDA               RUA MONTE CASTELO - 296 AP.44 - AVIACAO             11702720                                                            000047
2SR. CAIXA, APOS O VENCIMENTO COBRAR 10% DE MULTA                                NAO RECEBER APOS 30 DIAS DO VENCIMENTO.                                                                                                                                                                                                         09011800000000000000901180000000000000       0090770900066125367125011814000048
100000000000000000000009077090006612500000000000000000000000010002100004290901181400000000002            2  01042909011825011800000003160980000000001N090118000000000000000000000000000000000000000000000000000000000000000100004290973876VLADIMIR PAIOLA BORREGO                 RUA GOMES - 429 - VILA IVONE - SAO PAULO            03275010                                                            000050
2SR. CAIXA, APOS O VENCIMENTO COBRAR 10% DE MULTA                                NAO RECEBER APOS 30 DIAS DO VENCIMENTO.                                                                                                                                                                                                         09011800000000000000901180000000000000       0090770900066125042909011814000051
100000000000000000000009077090006612500000000000000000000000010002100036386801181300000000002            2  01363868011825011800000003361040000000001N090118000000000000000000000000000000000000000000000000000000000000000100036386861833ALINE LEE WEI DE SOUZA                  AV. PRES.CASTELO BRANCO - 9127 AP.251 BL            11704600                                                            000053
2SR. CAIXA, APOS O VENCIMENTO COBRAR 10% DE MULTA                                NAO RECEBER APOS 30 DIAS DO VENCIMENTO.                                                                                                                                                                                                         09011800000000000000901180000000000000       0090770900066125363868011813000054
100000000000000000000009077090006612500000000000000000000000010002100026187901181800000000002            2  01261879011825011800000003118940000000001N090118000000000000000000000000000000000000000000000000000000000000000100026187960807CARINA CANTACESSO DE SOUZA              RUA MONTE CASTELO - 296 AP.91 - AVIACAO             11702720                                                            000056
2SR. CAIXA, APOS O VENCIMENTO COBRAR 10% DE MULTA                                NAO RECEBER APOS 30 DIAS DO VENCIMENTO.                                                                                                                                                                                                         09011800000000000000901180000000000000       0090770900066125261879011818000057
100000000000000000000009077090006612500000000000000000000000010002100070465301181400000000002            2  01704653011825011800000003057290000000001N090118000000000000000000000000000000000000000000000000000000000000000100070465320953SIDNEY CARASKI                          RUA DR.CELSO PACHECO BENTIM - 502 - PARQ            03571020                                                            000059
2SR. CAIXA, APOS O VENCIMENTO COBRAR 10% DE MULTA                                NAO RECEBER APOS 30 DIAS DO VENCIMENTO.                                                                                                                                                                                                         09011800000000000000901180000000000000       0090770900066125704653011814000060
100000000000000000000009077090006612500000000000000000000000010002100075759401181P00000000002            2  01757594011825011800000002394120000000001N090118000000000000000000000000000000000000000000000000000000000000000100075759446800VALTER MUTAFEI                          RUA MONTE CASTELO - 295 AP.54 - AVIACAO             11702720                                                            000062
2SR. CAIXA, APOS O VENCIMENTO COBRAR 10% DE MULTA                                NAO RECEBER APOS 30 DIAS DO VENCIMENTO.                                                                                                                                                                                                         09011800000000000000901180000000000000       009077090006612575759401181P000063
100000000000000000000009077090006612500000000000000000000000010002100070328701181800000000002            2  01703287011825011800000003420610000000001N090118000000000000000000000000000000000000000000000000000000000000000100070328706868VALTER LIMA FERNANDES                   RUA DOMINGOS JORGE VELHO - 52 - CENTRO -            06843550                                                            000065
2SR. CAIXA, APOS O VENCIMENTO COBRAR 10% DE MULTA                                NAO RECEBER APOS 30 DIAS DO VENCIMENTO.                                                                                                                                                                                                         09011800000000000000901180000000000000       0090770900066125703287011818000066
100000000000000000000009077090006612500000000000000000000000010002100023132601181300000000002            2  01231326011825011800000001858040000000001N090118000000000000000000000000000000000000000000000000000000000000000100023132672882LEANDRO MORENO                          RUA MONTE CASTELO - 296 AP.64 - AVIACAO             11702720                                                            000068
2SR. CAIXA, APOS O VENCIMENTO COBRAR 10% DE MULTA                                NAO RECEBER APOS 30 DIAS DO VENCIMENTO.                                                                                                                                                                                                         09011800000000000000901180000000000000       0090770900066125231326011813000069
100000000000000000000009077090006612500000000000000000000000010002100099264601181200000000002            2  01992646011825011800000003168710000000001N090118000000000000000000000000000000000000000000000000000000000000000100099264692800LEONTINO PINHEIRO DA SILVA              AVENIDA JOAO BATISTA FITIPALDI - 469 - V            08685000                                                            000071
2SR. CAIXA, APOS O VENCIMENTO COBRAR 10% DE MULTA                                NAO RECEBER APOS 30 DIAS DO VENCIMENTO.                                                                                                                                                                                                         09011800000000000000901180000000000000       0090770900066125992646011812000072
100000000000000000000009077090006612500000000000000000000000010002100000666301181300000000002            2  01006663011825011800000003056910000000001N090118000000000000000000000000000000000000000000000000000000000000000100000666344825LUIZ HENRIQUE DE CAMPOS                 RUA JOAO CARLOS CAVALCANTI REIS - 21 - J            02281206                                                            000074
2SR. CAIXA, APOS O VENCIMENTO COBRAR 10% DE MULTA                                NAO RECEBER APOS 30 DIAS DO VENCIMENTO.                                                                                                                                                                                                         09011800000000000000901180000000000000       0090770900066125006663011813000075
100000000000000000000009077090006612500000000000000000000000010002100029155001181300000000002            2  01291550011825011800000003228230000000001N090118000000000000000000000000000000000000000000000000000000000000000100029155026842DANIELA YOSHIDA                         RUA MONTE CASTELO - 262 AP.34 - AVIACAO             11702720                                                            000077
2SR. CAIXA, APOS O VENCIMENTO COBRAR 10% DE MULTA                                NAO RECEBER APOS 30 DIAS DO VENCIMENTO.                                                                                                                                                                                                         09011800000000000000901180000000000000       0090770900066125291550011813000078
100000000000000000000009077090006612500000000000000000000000010002100034325501181P00000000002            2  01343255011825011800000002778830000000001N090118000000000000000000000000000000000000000000000000000000000000000100034325567801LUIZ FERNANDO ALAMINO                   AVENIDA FLOR DE VILA FORMOSA - 337 - VIL            03366010                                                            000080
2SR. CAIXA, APOS O VENCIMENTO COBRAR 10% DE MULTA                                NAO RECEBER APOS 30 DIAS DO VENCIMENTO.                                                                                                                                                                                                         09011800000000000000901180000000000000       009077090006612534325501181P000081
100000000000000000000009077090006612500000000000000000000000010002100001204401181700000000002            2  01012044011825011800000002628910000000001N090118000000000000000000000000000000000000000000000000000000000000000100001204431809CEZAR TALAVERA JUNIOR                   RUA MAESTRO ARTURO DE ANGELIS  - 190 AP.            05139010                                                            000083
2SR. CAIXA, APOS O VENCIMENTO COBRAR 10% DE MULTA                                NAO RECEBER APOS 30 DIAS DO VENCIMENTO.                                                                                                                                                                                                         09011800000000000000901180000000000000       0090770900066125012044011817000084
100000000000000000000009077090006612500000000000000000000000010002100004227501181600000000002            2  01042275011825011800000003407890000000001N090118000000000000000000000000000000000000000000000000000000000000000100004227553970ALESSANDRO ISRAEL GOULART               RUA PROFESSORA CARLINDA RIBEIRO - 21 - F            02866200                                                            000086
2SR. CAIXA, APOS O VENCIMENTO COBRAR 10% DE MULTA                                NAO RECEBER APOS 30 DIAS DO VENCIMENTO.                                                                                                                                                                                                         09011800000000000000901180000000000000       0090770900066125042275011816000087
100000000000000000000009077090006612500000000000000000000000010002100060811401181P00000000002            2  01608114011825011800000003140770000000001N090118000000000000000000000000000000000000000000000000000000000000000100060811420868HELIO BASSI                             AV.PARIS,575 - PRACA ANTONIO FIGUEROA -             11700082                                                            000089
2SR. CAIXA, APOS O VENCIMENTO COBRAR 10% DE MULTA                                NAO RECEBER APOS 30 DIAS DO VENCIMENTO.                                                                                                                                                                                                         09011800000000000000901180000000000000       009077090006612560811401181P000090
100000000000000000000009077090006612500000000000000000000000010002100001024701181P00000000002            2  01010247011825011800000002972000000000001N090118000000000000000000000000000000000000000000000000000000000000000100001024794881CLAUDIO RODRIGUES                       RUA ARACATUBA - 242 - LAPA - SAO PAULO -            05058010                                                            000092
2SR. CAIXA, APOS O VENCIMENTO COBRAR 10% DE MULTA                                NAO RECEBER APOS 30 DIAS DO VENCIMENTO.                                                                                                                                                                                                         09011800000000000000901180000000000000       009077090006612501024701181P000093
100000000000000000000009077090006612500000000000000000000000010002100002225001181000000000002            2  01022250011825011800000004556450000000001N090118000000000000000000000000000000000000000000000000000000000000000100002225072841PEDRO EDUARDO DE AZEVEDO                RUA NATH ZILMAN - 46 - JARDIM SAMAMBAIA             07600000                                                            000095
2SR. CAIXA, APOS O VENCIMENTO COBRAR 10% DE MULTA                                NAO RECEBER APOS 30 DIAS DO VENCIMENTO.                                                                                                                                                                                                         09011800000000000000901180000000000000       0090770900066125022250011810000096
100000000000000000000009077090006612500000000000000000000000010002100015039201181600000000002            2  01150392011825011800000003170810000000001N090118000000000000000000000000000000000000000000000000000000000000000100015039262817MARCOS ROBERTO DANTAS                   PCA CASTRO ALVES - 163 AP.33 - VILA SAO             13224299                                                            000098
2SR. CAIXA, APOS O VENCIMENTO COBRAR 10% DE MULTA                                NAO RECEBER APOS 30 DIAS DO VENCIMENTO.                                                                                                                                                                                                         09011800000000000000901180000000000000       0090770900066125150392011816000099
100000000000000000000009077090006612500000000000000000000000010002100019288701181700000000002            2  01192887011825011800000002581760000000001N090118000000000000000000000000000000000000000000000000000000000000000100019288787844EMERSON LUIZ MARTINEZ PEREIRA           RUA MONTE CASTELO - 296 AP.74 - AVIACAO             11702720                                                            000101
2SR. CAIXA, APOS O VENCIMENTO COBRAR 10% DE MULTA                                NAO RECEBER APOS 30 DIAS DO VENCIMENTO.                                                                                                                                                                                                         09011800000000000000901180000000000000       0090770900066125192887011817000102
100000000000000000000009077090006612500000000000000000000000010002100027198401181000000000002            2  01271984011825011800000002186890000000001N090118000000000000000000000000000000000000000000000000000000000000000100027198452809CRISTIANE AURELIANO DA SILVA MAIA       RUA MONTE CASTELO - 262 AP.25 - AVIACAO             11702720                                                            000104
2SR. CAIXA, APOS O VENCIMENTO COBRAR 10% DE MULTA                                NAO RECEBER APOS 30 DIAS DO VENCIMENTO.                                                                                                                                                                                                         09011800000000000000901180000000000000       0090770900066125271984011810000105
100000000000000000000009077090006612500000000000000000000000010002100021246201181400000000002            2  01212462011825011800000002668850000000001N090118000000000000000000000000000000000000000000000000000000000000000100021246231840ALEXANDRO DA CUNHA MIGUES               AVENIDA CONSELHEIRO CARRAO - 1861 CONJ.5            03403001                                                            000107
2SR. CAIXA, APOS O VENCIMENTO COBRAR 10% DE MULTA                                NAO RECEBER APOS 30 DIAS DO VENCIMENTO.                                                                                                                                                                                                         09011800000000000000901180000000000000       0090770900066125212462011814000108
100000000000000000000009077090006612500000000000000000000000010002100004864901181300000000002            2  01048649011825011800000001597960000000001N090118000000000000000000000000000000000000000000000000000000000000000100004864924600RENATO SANTACHIARA SALVADORI            RUA PENSYLVANIA - 116 - PAYSAGE BRISE -             06730000                                                            000110
2SR. CAIXA, APOS O VENCIMENTO COBRAR 10% DE MULTA                                NAO RECEBER APOS 30 DIAS DO VENCIMENTO.                                                                                                                                                                                                         09011800000000000000901180000000000000       0090770900066125048649011813000111
100000000000000000000009077090006612500000000000000000000000010002100018834201181200000000002            2  01188342011825011800000003117520000000001N090118000000000000000000000000000000000000000000000000000000000000000100018834257863ILTON FERNANDO MUTCHNIK                 RUA ASSUNGUI - 700 AP.222 - VILA GUMERCI            04131001                                                            000113
2SR. CAIXA, APOS O VENCIMENTO COBRAR 10% DE MULTA                                NAO RECEBER APOS 30 DIAS DO VENCIMENTO.                                                                                                                                                                                                         09011800000000000000901180000000000000       0090770900066125188342011812000114
100000000000000000000009077090006612500000000000000000000000010002100018470501181400000000002            2  01184705011825011800000003926260000000001N090118000000000000000000000000000000000000000000000000000000000000000100018470520881SILVANA ALVES DE OLIVEIRA               RUA MONTE CASTELO - 262 AP.91 - AVIACAO             11702720                                                            000116
2SR. CAIXA, APOS O VENCIMENTO COBRAR 10% DE MULTA                                NAO RECEBER APOS 30 DIAS DO VENCIMENTO.                                                                                                                                                                                                         09011800000000000000901180000000000000       0090770900066125184705011814000117
100000000000000000000009077090006612500000000000000000000000010002100009297501181400000000002            2  01092975011825011800000002733440000000001N090118000000000000000000000000000000000000000000000000000000000000000100009297523846MARCOS ROBERTO DE CASTRO FERREIRA       RUA MONTE CASTELO - 262 AP.105 - AVIACAO            11702720                                                            000119
2SR. CAIXA, APOS O VENCIMENTO COBRAR 10% DE MULTA                                NAO RECEBER APOS 30 DIAS DO VENCIMENTO.                                                                                                                                                                                                         09011800000000000000901180000000000000       0090770900066125092975011814000120
100000000000000000000009077090006612500000000000000000000000010002100001164101181300000000002            2  01011641011825011800000003387350000000001N090118000000000000000000000000000000000000000000000000000000000000000100001164158864DAVID BLEY LACERDA                      RUA CONEGO ARAUJO MARCONDES - 188 - BAIR            02550080                                                            000122
2SR. CAIXA, APOS O VENCIMENTO COBRAR 10% DE MULTA                                NAO RECEBER APOS 30 DIAS DO VENCIMENTO.                                                                                                                                                                                                         09011800000000000000901180000000000000       0090770900066125011641011813000123
100000000000000000000009077090006612500000000000000000000000010002100031498001181700000000002            2  01314980011825011800000004116840000000001N090118000000000000000000000000000000000000000000000000000000000000000100031498008895POLIANE  SIBELE DA SILVA                RUA FRANCISCO RODRIGUES SECKLER - 452 CA            08230020                                                            000125
2SR. CAIXA, APOS O VENCIMENTO COBRAR 10% DE MULTA                                NAO RECEBER APOS 30 DIAS DO VENCIMENTO.                                                                                                                                                                                                         09011800000000000000901180000000000000       0090770900066125314980011817000126
100000000000000000000009077090006612500000000000000000000000010002100000588101181000000000002            2  01005881011825011800000002414610000000001N090118000000000000000000000000000000000000000000000000000000000000000100000588109860JOSE LIARTE GIANTE                      AVENIDA LUIZ GONZAGA DO AMARAL - 143 - J            09320630                                                            000128
2SR. CAIXA, APOS O VENCIMENTO COBRAR 10% DE MULTA                                NAO RECEBER APOS 30 DIAS DO VENCIMENTO.                                                                                                                                                                                                         09011800000000000000901180000000000000       0090770900066125005881011810000129
100000000000000000000009077090006612500000000000000000000000010002100014386801181300000000002            2  01143868011825011800000011636190000000001N090118000000000000000000000000000000000000000000000000000000000000000100014386860134SEVERINO CARLOS DE OLIVEIRA             RUA MONTE CASTELO - 262 AP.54 - AVIACAO             11702720                                                            000131
2SR. CAIXA, APOS O VENCIMENTO COBRAR 10% DE MULTA                                NAO RECEBER APOS 30 DIAS DO VENCIMENTO.                                                                                                                                                                                                         09011800000000000000901180000000000000       0090770900066125143868011813000132
100000000000000000000009077090006612500000000000000000000000010002100014386801182100000000002            2  01143868011825011800000001931590000000001N090118000000000000000000000000000000000000000000000000000000000000000100014386860134SEVERINO CARLOS DE OLIVEIRA             RUA MONTE CASTELO - 262 AP.54 - AVIACAO             11702720                                                            000134
2SR. CAIXA, APOS O VENCIMENTO COBRAR 10% DE MULTA                                NAO RECEBER APOS 30 DIAS DO VENCIMENTO.                                                                                                                                                                                                         09011800000000000000901180000000000000       0090770900066125143868011821000135
100000000000000000000009077090006612500000000000000000000000010002100029088201181000000000002            2  01290882011825011800000002147420000000001N090118000000000000000000000000000000000000000000000000000000000000000100029088221804FABIANO SPERANDEO                       RUA MONTE CASTELO - 296 AP.93 - AVIACAO             11702720                                                            000137
2SR. CAIXA, APOS O VENCIMENTO COBRAR 10% DE MULTA                                NAO RECEBER APOS 30 DIAS DO VENCIMENTO.                                                                                                                                                                                                         09011800000000000000901180000000000000       0090770900066125290882011810000138
100000000000000000000009077090006612500000000000000000000000010002100039393701181900000000002            2  01393937011825011800000001331250000000001N090118000000000000000000000000000000000000000000000000000000000000000100039393790850NAIRON RICARDO DE ARAUJO SANTOS         RUA MONTE CASTELO - 262 AP.23 - AVIACAO             11702720                                                            000140
2SR. CAIXA, APOS O VENCIMENTO COBRAR 10% DE MULTA                                NAO RECEBER APOS 30 DIAS DO VENCIMENTO.                                                                                                                                                                                                         09011800000000000000901180000000000000       0090770900066125393937011819000141
100000000000000000000009077090006612500000000000000000000000010002100041896801181P00000000002            2  01418968011825011800000001938770000000001N090118000000000000000000000000000000000000000000000000000000000000000100041896807968SERGIO ROBERTO DA SILVA                 RUA DOS INGLESES - 542 AP.61 - MORRO DOS            01329000                                                            000143
2SR. CAIXA, APOS O VENCIMENTO COBRAR 10% DE MULTA                                NAO RECEBER APOS 30 DIAS DO VENCIMENTO.                                                                                                                                                                                                         09011800000000000000901180000000000000       009077090006612541896801181P000144
100000000000000000000009077090006612500000000000000000000000010002100088137301181800000000002            2  01881373011825011800000001758000000000001N090118000000000000000000000000000000000000000000000000000000000000000100088137384804ANA LUCIA DA SILVA                      RUA DOUTOR EPAMINONDAS BARRA - 147 - VIL            04438100                                                            000146
2SR. CAIXA, APOS O VENCIMENTO COBRAR 10% DE MULTA                                NAO RECEBER APOS 30 DIAS DO VENCIMENTO.                                                                                                                                                                                                         09011800000000000000901180000000000000       0090770900066125881373011818000147
9                                                                                                                                                                                                                                                                                                                                                                                                         000148