01REMESSA01COBRANCA       00000000000005331186HB SANTOS CONSTRUTORA E INCORP237BRADESCO       040621        MX0000026                                                                                                                                                                                                                                                                                     000001
100000000000000000000009033990000995400000000000000000000000010002020005723206211200000000002            2  01057232062123062100000002627960000000001N040621000000000000000000000000000000000000000000000000000000000000000100005723255843FRANCISCO DE ASSIS DA SILVA             PRACA NICOLAU GERAIGIRE - 25 VISOR - JAR            11095110                                                            000002
2SR. CAIXA, APOS O VENCIMENTO COBRAR 2% DE MULTA                                 NAO RECEBER APOS 30 DIAS DO VENCIMENTO.                                                                                                                                                                                                         04062100000000000000406210000000000000       0090339900009954057232062112000003
100000000000000000000009033990000995400000000000000000000000010002020004928106211700000000002            2  01049281062123062100000002569950000000001N040621000000000000000000000000000000000000000000000000000000000000000100004928157800ADEMIR APARECIDO ANTUNES                RUA JAIME TAVEIRA - 91 AP.056 B - CHACAR            03732060                                                            000005
2SR. CAIXA, APOS O VENCIMENTO COBRAR 2% DE MULTA                                 NAO RECEBER APOS 30 DIAS DO VENCIMENTO.                                                                                                                                                                                                         04062100000000000000406210000000000000       0090339900009954049281062117000006
100000000000000000000009033990000995400000000000000000000000010002020011238006211400000000002            2  01112380062123062100000002536620000000001N040621000000000000000000000000000000000000000000000000000000000000000100011238052886SOLANGE DIAS DE SOUZA ROMANO            AVENIDA DR. ALTINO ARANTES - 865 AP.132             04042034                                                            000008
2SR. CAIXA, APOS O VENCIMENTO COBRAR 2% DE MULTA                                 NAO RECEBER APOS 30 DIAS DO VENCIMENTO.                                                                                                                                                                                                         04062100000000000000406210000000000000       0090339900009954112380062114000009
100000000000000000000009033990000995400000000000000000000000010002020032589106211600000000002            2  01325891062123062100000002486620000000001N040621000000000000000000000000000000000000000000000000000000000000000100032589165862RENATA ISABEL MARTINS SILVA             RUA HERCULANO DE FREITAS - 257 - FUNDACA            09520280                                                            000011
2SR. CAIXA, APOS O VENCIMENTO COBRAR 2% DE MULTA                                 NAO RECEBER APOS 30 DIAS DO VENCIMENTO.                                                                                                                                                                                                         04062100000000000000406210000000000000       0090339900009954325891062116000012
100000000000000000000009033990000995400000000000000000000000010002020088339306211P00000000002            2  01883393062123062100000002513560000000001N040621000000000000000000000000000000000000000000000000000000000000000100088339319868MARCIA SIQUEIRA MELLO                   RUA ADELINO ALVES - 81 - SANTO AMARO - S            04710120                                                            000014
2SR. CAIXA, APOS O VENCIMENTO COBRAR 2% DE MULTA                                 NAO RECEBER APOS 30 DIAS DO VENCIMENTO.                                                                                                                                                                                                         04062100000000000000406210000000000000       009033990000995488339306211P000015
100000000000000000000009033990000995400000000000000000000000010002020088339306212800000000002            2  01883393062123062100000002513550000000001N040621000000000000000000000000000000000000000000000000000000000000000100088339319868MARCIA SIQUEIRA MELLO                   RUA ADELINO ALVES - 81 - SANTO AMARO - S            04710120                                                            000017
2SR. CAIXA, APOS O VENCIMENTO COBRAR 2% DE MULTA                                 NAO RECEBER APOS 30 DIAS DO VENCIMENTO.                                                                                                                                                                                                         04062100000000000000406210000000000000       0090339900009954883393062128000018
100000000000000000000009033990000995400000000000000000000000010002020046391206211500000000002            2  01463912062123062100000002607460000000001N040621000000000000000000000000000000000000000000000000000000000000000100046391265810PAMELLA RODRIGUES DE OLIVEIRA           RUA AUGUSTA - 183 AP.301 BL.2A - VILA AU            07025130                                                            000020
2SR. CAIXA, APOS O VENCIMENTO COBRAR 2% DE MULTA                                 NAO RECEBER APOS 30 DIAS DO VENCIMENTO.                                                                                                                                                                                                         04062100000000000000406210000000000000       0090339900009954463912062115000021
100000000000000000000009033990000995400000000000000000000000010002020027964506211300000000002            2  01279645062123062100000001590790000000001N040621000000000000000000000000000000000000000000000000000000000000000100027964512838FABIO TADEU DE CAMPOS RADZIAVICIUS      AV.PROF.LUIZ IGNACIO ANHAIA MELLO - 2.58            03154100                                                            000023
2SR. CAIXA, APOS O VENCIMENTO COBRAR 2% DE MULTA                                 NAO RECEBER APOS 30 DIAS DO VENCIMENTO.                                                                                                                                                                                                         04062100000000000000406210000000000000       0090339900009954279645062113000024
100000000000000000000009033990000995400000000000000000000000010002020011498306211100000000002            2  01114983062123062100000001941050000000001N040621000000000000000000000000000000000000000000000000000000000000000100011498329837GERSON GERALDO DAS NEVES                RUA DOMINGOS DELGADO - 144 - VILA SOUZA             02881070                                                            000026
2SR. CAIXA, APOS O VENCIMENTO COBRAR 2% DE MULTA                                 NAO RECEBER APOS 30 DIAS DO VENCIMENTO.                                                                                                                                                                                                         04062100000000000000406210000000000000       0090339900009954114983062111000027
100000000000000000000009033990000995400000000000000000000000010002020068875606211P00000000002            2  01688756062123062100000002574130000000001N040621000000000000000000000000000000000000000000000000000000000000000100068875673691ILDETE BATISTA NEIVA GOLFAR             RUA MARECHAL MAURICIO JOSE CARDOSO - 230            11700140                                                            000029
2SR. CAIXA, APOS O VENCIMENTO COBRAR 2% DE MULTA                                 NAO RECEBER APOS 30 DIAS DO VENCIMENTO.                                                                                                                                                                                                         04062100000000000000406210000000000000       009033990000995468875606211P000030
100000000000000000000009033990000995400000000000000000000000010002020000884206211300000000002            2  01008842062123062100000002364260000000001N040621000000000000000000000000000000000000000000000000000000000000000100000884239802ADEMIR MARTINS                          RUA CAIRO - 221 - VILA METALURGICA - SAN            09220170                                                            000032
2SR. CAIXA, APOS O VENCIMENTO COBRAR 2% DE MULTA                                 NAO RECEBER APOS 30 DIAS DO VENCIMENTO.                                                                                                                                                                                                         04062100000000000000406210000000000000       0090339900009954008842062113000033
100000000000000000000009033990000995400000000000000000000000010002020025214406211800000000002            2  01252144062123062100000002297600000000001N040621000000000000000000000000000000000000000000000000000000000000000100025214401833JOSE MAURICIO DOS SANTOS RODRIGUES      RUA JOAO DE MACEDO RIBEIRO - 49 - VILA N            08111101                                                            000035
2SR. CAIXA, APOS O VENCIMENTO COBRAR 2% DE MULTA                                 NAO RECEBER APOS 30 DIAS DO VENCIMENTO.                                                                                                                                                                                                         04062100000000000000406210000000000000       0090339900009954252144062118000036
100000000000000000000009033990000995400000000000000000000000010002020033119106211500000000002            2  01331191062123062100000002307330000000001N040621000000000000000000000000000000000000000000000000000000000000000100033119178802HUGO GOMES VENDRAME                     RUA SAO PAULO - 60 CASA 01 - VILA FREITA            06380110                                                            000038
2SR. CAIXA, APOS O VENCIMENTO COBRAR 2% DE MULTA                                 NAO RECEBER APOS 30 DIAS DO VENCIMENTO.                                                                                                                                                                                                         04062100000000000000406210000000000000       0090339900009954331191062115000039
100000000000000000000009033990000995400000000000000000000000010002020016631506211800000000002            2  01166315062123062100000002347590000000001N040621000000000000000000000000000000000000000000000000000000000000000100016631587468GILBERTO BEZERRA DA SILVA               AVENIDA JAIME TORRES - 745 CASA 3 - JARD            03670000                                                            000041
2SR. CAIXA, APOS O VENCIMENTO COBRAR 2% DE MULTA                                 NAO RECEBER APOS 30 DIAS DO VENCIMENTO.                                                                                                                                                                                                         04062100000000000000406210000000000000       0090339900009954166315062118000042
100000000000000000000009033990000995400000000000000000000000010002020007313206211000000000002            2  01073132062123062100000002330920000000001N040621000000000000000000000000000000000000000000000000000000000000000100007313251840SALVADOR GESUALDO PULVIRENTI            AVENIDA MARARI - 641 - VILA MARARI - SAO            04402010                                                            000044
2SR. CAIXA, APOS O VENCIMENTO COBRAR 2% DE MULTA                                 NAO RECEBER APOS 30 DIAS DO VENCIMENTO.                                                                                                                                                                                                         04062100000000000000406210000000000000       0090339900009954073132062110000045
100000000000000000000009033990000995400000000000000000000000010002020010676706211200000000002            2  01106767062123062100000002432930000000001N040621000000000000000000000000000000000000000000000000000000000000000100010676723896MERCEDES CRISTINA ROCHA SANDOVAL        RUA ITARARE - 446 AP.806 - JARDIM GUILHE            11701620                                                            000047
2SR. CAIXA, APOS O VENCIMENTO COBRAR 2% DE MULTA                                 NAO RECEBER APOS 30 DIAS DO VENCIMENTO.                                                                                                                                                                                                         04062100000000000000406210000000000000       0090339900009954106767062112000048
100000000000000000000009033990000995400000000000000000000000010002020009502806211000000000002            2  01095028062123062100000002540790000000001N040621000000000000000000000000000000000000000000000000000000000000000100009502844831CLAUDIA ROCHA SANDOVAL                  RUA ABAETE - 29.153 - VILA TUPI - PRAIA             11703490                                                            000050
2SR. CAIXA, APOS O VENCIMENTO COBRAR 2% DE MULTA                                 NAO RECEBER APOS 30 DIAS DO VENCIMENTO.                                                                                                                                                                                                         04062100000000000000406210000000000000       0090339900009954095028062110000051
100000000000000000000009033990000995400000000000000000000000010002020007594206211P00000000002            2  01075942062123062100000002280930000000001N040621000000000000000000000000000000000000000000000000000000000000000100007594247809JOSE LUIS DE OLIVEIRA                   DONA EGLANTINA PENTEADO DA SILVA PRADO -            13044162                                                            000053
2SR. CAIXA, APOS O VENCIMENTO COBRAR 2% DE MULTA                                 NAO RECEBER APOS 30 DIAS DO VENCIMENTO.                                                                                                                                                                                                         04062100000000000000406210000000000000       009033990000995407594206211P000054
100000000000000000000009033990000995400000000000000000000000010002020005288706211300000000002            2  01052887062123062100000002349600000000001N040621000000000000000000000000000000000000000000000000000000000000000100005288796858MARCELO RODRIGUES FERREIRA              RUA MARCOS ANTONIO MARQUES - 302 - JARDI            06433020                                                            000056
2SR. CAIXA, APOS O VENCIMENTO COBRAR 2% DE MULTA                                 NAO RECEBER APOS 30 DIAS DO VENCIMENTO.                                                                                                                                                                                                         04062100000000000000406210000000000000       0090339900009954052887062113000057
100000000000000000000009033990000995400000000000000000000000010002020015835906211200000000002            2  01158359062123062100000002446770000000001N040621000000000000000000000000000000000000000000000000000000000000000100015835992823FLAVIO VERONEZ                          RUA ANDREA PAULINETTI - 127 AP.42 - BAIR            04707050                                                            000059
2SR. CAIXA, APOS O VENCIMENTO COBRAR 2% DE MULTA                                 NAO RECEBER APOS 30 DIAS DO VENCIMENTO.                                                                                                                                                                                                         04062100000000000000406210000000000000       0090339900009954158359062112000060
100000000000000000000009033990000995400000000000000000000000010002020000438106211000000000002            2  01004381062123062100000002761740000000001N040621000000000000000000000000000000000000000000000000000000000000000100000438161858WAGNECY VILLA NOVA LIEN                 MACHADO - 106 - VILA AUGUSTA - GUARULHOS            07025210                                                            000062
2SR. CAIXA, APOS O VENCIMENTO COBRAR 2% DE MULTA                                 NAO RECEBER APOS 30 DIAS DO VENCIMENTO.                                                                                                                                                                                                         04062100000000000000406210000000000000       0090339900009954004381062110000063
100000000000000000000009033990000995400000000000000000000000010002020026004506211700000000002            2  01260045062123062100000002446810000000001N040621000000000000000000000000000000000000000000000000000000000000000100026004595888EDIVALDO BEZERRA DA SILVA               AVENIDA GUATEMALA - 550 - JARDIM PINHEIR            09854750                                                            000065
2SR. CAIXA, APOS O VENCIMENTO COBRAR 2% DE MULTA                                 NAO RECEBER APOS 30 DIAS DO VENCIMENTO.                                                                                                                                                                                                         04062100000000000000406210000000000000       0090339900009954260045062117000066
100000000000000000000009033990000995400000000000000000000000010002020012470706211100000000002            2  01124707062123062100000002610560000000001N040621000000000000000000000000000000000000000000000000000000000000000100012470771870HILTON FERNANDES OLIVARES               RUA PATIO DA ESTACAO - 115 - BAIRRO CENT            09450000                                                            000068
2SR. CAIXA, APOS O VENCIMENTO COBRAR 2% DE MULTA                                 NAO RECEBER APOS 30 DIAS DO VENCIMENTO.                                                                                                                                                                                                         04062100000000000000406210000000000000       0090339900009954124707062111000069
100000000000000000000009033990000995400000000000000000000000010002020014025406211000000000002            2  01140254062123062100000002862420000000001N040621000000000000000000000000000000000000000000000000000000000000000100014025420899ANDREIA APARECIDA TAVARES BASTOS        RUA IBATIBA - 234 CASA 27 - RES.BOUGANVI            09220608                                                            000071
2SR. CAIXA, APOS O VENCIMENTO COBRAR 2% DE MULTA                                 NAO RECEBER APOS 30 DIAS DO VENCIMENTO.                                                                                                                                                                                                         04062100000000000000406210000000000000       0090339900009954140254062110000072
9                                                                                                                                                                                                                                                                                                                                                                                                         000073