01REMESSA01COBRANCA       00000000000005331186HB SANTOS CONSTRUTORA E INCORP237BRADESCO       041122        MX0000060                                                                                                                                                                                                                                                                                     000001
100000000000000000000009033990000995400000000000000000000000010002020005723211221700000000002            2  01057232112223112200000002864610000000001N041122000000000000000000000000000000000000000000000000000000000000000100005723255843FRANCISCO DE ASSIS DA SILVA             PRACA NICOLAU GERAIGIRE - 25 VISOR - JAR            11095110                                                            000002
2SR. CAIXA, APOS O VENCIMENTO COBRAR 2% DE MULTA                                 NAO RECEBER APOS 30 DIAS DO VENCIMENTO.                                                                                                                                                                                                         04112200000000000000411220000000000000       0090339900009954057232112217000003
100000000000000000000009033990000995400000000000000000000000010002020004928111221100000000002            2  01049281112223112200000002801370000000001N041122000000000000000000000000000000000000000000000000000000000000000100004928157800ADEMIR APARECIDO ANTUNES                RUA URUGUAI - 89 AP.105 - JARDIM GUILHER            11702300                                                            000005
2SR. CAIXA, APOS O VENCIMENTO COBRAR 2% DE MULTA                                 NAO RECEBER APOS 30 DIAS DO VENCIMENTO.                                                                                                                                                                                                         04112200000000000000411220000000000000       0090339900009954049281112211000006
100000000000000000000009033990000995400000000000000000000000010002020011238011221900000000002            2  01112380112223112200000002765040000000001N041122000000000000000000000000000000000000000000000000000000000000000100011238052886SOLANGE DIAS DE SOUZA ROMANO            AVENIDA DR. ALTINO ARANTES - 865 AP.132             04042034                                                            000008
2SR. CAIXA, APOS O VENCIMENTO COBRAR 2% DE MULTA                                 NAO RECEBER APOS 30 DIAS DO VENCIMENTO.                                                                                                                                                                                                         04112200000000000000411220000000000000       0090339900009954112380112219000009
100000000000000000000009033990000995400000000000000000000000010002020032589111221000000000002            2  01325891112223112200000002710530000000001N041122000000000000000000000000000000000000000000000000000000000000000100032589165862RENATA ISABEL MARTINS SILVA             RUA HERCULANO DE FREITAS - 257 - FUNDACA            09520280                                                            000011
2SR. CAIXA, APOS O VENCIMENTO COBRAR 2% DE MULTA                                 NAO RECEBER APOS 30 DIAS DO VENCIMENTO.                                                                                                                                                                                                         04112200000000000000411220000000000000       0090339900009954325891112210000012
100000000000000000000009033990000995400000000000000000000000010002020088339311221400000000002            2  01883393112223112200000002739910000000001N041122000000000000000000000000000000000000000000000000000000000000000100088339319868MARCIA SIQUEIRA MELLO                   RUA ADELINO ALVES - 81 - SANTO AMARO - S            04710120                                                            000014
2SR. CAIXA, APOS O VENCIMENTO COBRAR 2% DE MULTA                                 NAO RECEBER APOS 30 DIAS DO VENCIMENTO.                                                                                                                                                                                                         04112200000000000000411220000000000000       0090339900009954883393112214000015
100000000000000000000009033990000995400000000000000000000000010002020046391211221P00000000002            2  01463912112223112200000002842290000000001N041122000000000000000000000000000000000000000000000000000000000000000100046391265810PAMELLA RODRIGUES DE OLIVEIRA           RUA AUGUSTA - 183 AP.301 BL.2A - VILA AU            07025130                                                            000017
2SR. CAIXA, APOS O VENCIMENTO COBRAR 2% DE MULTA                                 NAO RECEBER APOS 30 DIAS DO VENCIMENTO.                                                                                                                                                                                                         04112200000000000000411220000000000000       009033990000995446391211221P000018
100000000000000000000009033990000995400000000000000000000000010002020027964511221800000000002            2  01279645112223112200000002824080000000001N041122000000000000000000000000000000000000000000000000000000000000000100027964512838FABIO TADEU DE CAMPOS RADZIAVICIUS      RUA URUGUAI - 89 AP.94 - JARDIM GUILHERM            11702300                                                            000020
2SR. CAIXA, APOS O VENCIMENTO COBRAR 2% DE MULTA                                 NAO RECEBER APOS 30 DIAS DO VENCIMENTO.                                                                                                                                                                                                         04112200000000000000411220000000000000       0090339900009954279645112218000021
100000000000000000000009033990000995400000000000000000000000010002020011498311221600000000002            2  01114983112223112200000002115840000000001N041122000000000000000000000000000000000000000000000000000000000000000100011498329837GERSON GERALDO DAS NEVES                RUA DOMINGOS DELGADO - 144 - VILA SOUZA             02881070                                                            000023
2SR. CAIXA, APOS O VENCIMENTO COBRAR 2% DE MULTA                                 NAO RECEBER APOS 30 DIAS DO VENCIMENTO.                                                                                                                                                                                                         04112200000000000000411220000000000000       0090339900009954114983112216000024
100000000000000000000009033990000995400000000000000000000000010002020025214411221200000000002            2  01252144112223112200000002504500000000001N041122000000000000000000000000000000000000000000000000000000000000000100025214401833JOSE MAURICIO DOS SANTOS RODRIGUES      RUA JOAO DE MACEDO RIBEIRO - 49 - VILA N            08111101                                                            000026
2SR. CAIXA, APOS O VENCIMENTO COBRAR 2% DE MULTA                                 NAO RECEBER APOS 30 DIAS DO VENCIMENTO.                                                                                                                                                                                                         04112200000000000000411220000000000000       0090339900009954252144112212000027
100000000000000000000009033990000995400000000000000000000000010002020033119111221P00000000002            2  01331191112223112200000002515100000000001N041122000000000000000000000000000000000000000000000000000000000000000100033119178802HUGO GOMES VENDRAME                     RUA SAO PAULO - 60 CASA 01 - VILA FREITA            06380110                                                            000029
2SR. CAIXA, APOS O VENCIMENTO COBRAR 2% DE MULTA                                 NAO RECEBER APOS 30 DIAS DO VENCIMENTO.                                                                                                                                                                                                         04112200000000000000411220000000000000       009033990000995433119111221P000030
100000000000000000000009033990000995400000000000000000000000010002020016631511221200000000002            2  01166315112223112200000002558990000000001N041122000000000000000000000000000000000000000000000000000000000000000100016631587468GILBERTO BEZERRA DA SILVA               AVENIDA JAIME TORRES - 745 CASA 3 - JARD            03670000                                                            000032
2SR. CAIXA, APOS O VENCIMENTO COBRAR 2% DE MULTA                                 NAO RECEBER APOS 30 DIAS DO VENCIMENTO.                                                                                                                                                                                                         04112200000000000000411220000000000000       0090339900009954166315112212000033
100000000000000000000009033990000995400000000000000000000000010002020007313211221500000000002            2  01073132112223112200000002540820000000001N041122000000000000000000000000000000000000000000000000000000000000000100007313251840SALVADOR GESUALDO PULVIRENTI            AVENIDA MARARI - 641 - VILA MARARI - SAO            04402010                                                            000035
2SR. CAIXA, APOS O VENCIMENTO COBRAR 2% DE MULTA                                 NAO RECEBER APOS 30 DIAS DO VENCIMENTO.                                                                                                                                                                                                         04112200000000000000411220000000000000       0090339900009954073132112215000036
100000000000000000000009033990000995400000000000000000000000010002020010676711221700000000002            2  01106767112223112200000002652020000000001N041122000000000000000000000000000000000000000000000000000000000000000100010676723896MERCEDES CRISTINA ROCHA SANDOVAL        RUA URUGUAI - 89 AP.83 - JARDIM GUILHERM            11702300                                                            000038
2SR. CAIXA, APOS O VENCIMENTO COBRAR 2% DE MULTA                                 NAO RECEBER APOS 30 DIAS DO VENCIMENTO.                                                                                                                                                                                                         04112200000000000000411220000000000000       0090339900009954106767112217000039
100000000000000000000009033990000995400000000000000000000000010002020009502811221500000000002            2  01095028112223112200000002769590000000001N041122000000000000000000000000000000000000000000000000000000000000000100009502844831CLAUDIA ROCHA SANDOVAL                  RUA URUGUAI - 89 AP.64 - JARDIM GUILHERM            11702300                                                            000041
2SR. CAIXA, APOS O VENCIMENTO COBRAR 2% DE MULTA                                 NAO RECEBER APOS 30 DIAS DO VENCIMENTO.                                                                                                                                                                                                         04112200000000000000411220000000000000       0090339900009954095028112215000042
100000000000000000000009033990000995400000000000000000000000010002020007594211221400000000002            2  01075942112223112200000002486340000000001N041122000000000000000000000000000000000000000000000000000000000000000100007594247809JOSE LUIS DE OLIVEIRA                   DONA EGLANTINA PENTEADO DA SILVA PRADO -            13044162                                                            000044
2SR. CAIXA, APOS O VENCIMENTO COBRAR 2% DE MULTA                                 NAO RECEBER APOS 30 DIAS DO VENCIMENTO.                                                                                                                                                                                                         04112200000000000000411220000000000000       0090339900009954075942112214000045
100000000000000000000009033990000995400000000000000000000000010002020005288711221800000000002            2  01052887112223112200000002561180000000001N041122000000000000000000000000000000000000000000000000000000000000000100005288796858MARCELO RODRIGUES FERREIRA              RUA MARCOS ANTONIO MARQUES - 302 - JARDI            06433020                                                            000047
2SR. CAIXA, APOS O VENCIMENTO COBRAR 2% DE MULTA                                 NAO RECEBER APOS 30 DIAS DO VENCIMENTO.                                                                                                                                                                                                         04112200000000000000411220000000000000       0090339900009954052887112218000048
100000000000000000000009033990000995400000000000000000000000010002020015835911221700000000002            2  01158359112223112200000002667100000000001N041122000000000000000000000000000000000000000000000000000000000000000100015835992823FLAVIO VERONEZ                          RUA ANDREA PAULINETTI - 127 AP.42 - BAIR            04707050                                                            000050
2SR. CAIXA, APOS O VENCIMENTO COBRAR 2% DE MULTA                                 NAO RECEBER APOS 30 DIAS DO VENCIMENTO.                                                                                                                                                                                                         04112200000000000000411220000000000000       0090339900009954158359112217000051
100000000000000000000009033990000995400000000000000000000000010002020000438111221500000000002            2  01004381112223112200000003010420000000001N041122000000000000000000000000000000000000000000000000000000000000000100000438161858WAGNECY VILLA NOVA LIEN                 MACHADO - 106 - VILA AUGUSTA - GUARULHOS            07025210                                                            000053
2SR. CAIXA, APOS O VENCIMENTO COBRAR 2% DE MULTA                                 NAO RECEBER APOS 30 DIAS DO VENCIMENTO.                                                                                                                                                                                                         04112200000000000000411220000000000000       0090339900009954004381112215000054
100000000000000000000009033990000995400000000000000000000000010002020026004511221100000000002            2  01260045112223112200000002667140000000001N041122000000000000000000000000000000000000000000000000000000000000000100026004595888EDIVALDO BEZERRA DA SILVA               AVENIDA GUATEMALA - 550 - JARDIM PINHEIR            09854750                                                            000056
2SR. CAIXA, APOS O VENCIMENTO COBRAR 2% DE MULTA                                 NAO RECEBER APOS 30 DIAS DO VENCIMENTO.                                                                                                                                                                                                         04112200000000000000411220000000000000       0090339900009954260045112211000057
100000000000000000000009033990000995400000000000000000000000010002020012470711221600000000002            2  01124707112223112200000002845640000000001N041122000000000000000000000000000000000000000000000000000000000000000100012470771870HILTON FERNANDES OLIVARES               RUA PATIO DA ESTACAO - 115 - BAIRRO CENT            09450000                                                            000059
2SR. CAIXA, APOS O VENCIMENTO COBRAR 2% DE MULTA                                 NAO RECEBER APOS 30 DIAS DO VENCIMENTO.                                                                                                                                                                                                         04112200000000000000411220000000000000       0090339900009954124707112216000060
100000000000000000000009033990000995400000000000000000000000010002020014025411221500000000002            2  01140254112223112200000003120180000000001N041122000000000000000000000000000000000000000000000000000000000000000100014025420899ANDREIA APARECIDA TAVARES BASTOS        RUA IBATIBA - 234 CASA 27 - RES.BOUGANVI            09220608                                                            000062
2SR. CAIXA, APOS O VENCIMENTO COBRAR 2% DE MULTA                                 NAO RECEBER APOS 30 DIAS DO VENCIMENTO.                                                                                                                                                                                                         04112200000000000000411220000000000000       0090339900009954140254112215000063
100000000000000000000009033990000995400000000000000000000000010002020018590011221400000000002            2  01185900112223112200000002825780000000001N041122000000000000000000000000000000000000000000000000000000000000000100018590038858JOSE SANDRO ROCHA SILVA                 RUA SANTO ANTONIO DO AVENTUREIRO - 216 A            07143040                                                            000065
2SR. CAIXA, APOS O VENCIMENTO COBRAR 2% DE MULTA                                 NAO RECEBER APOS 30 DIAS DO VENCIMENTO.                                                                                                                                                                                                         04112200000000000000411220000000000000       0090339900009954185900112214000066
100000000000000000000009033990000995400000000000000000000000010002020088578711221200000000002            2  01885787112223112200000002325210000000001N041122000000000000000000000000000000000000000000000000000000000000000100088578704800GILBERTO DO ESPIRITO SANTO SILVA        RUA URUGUAI - 89 AP.23 - JARDIM GUILHERM            11702300                                                            000068
2SR. CAIXA, APOS O VENCIMENTO COBRAR 2% DE MULTA                                 NAO RECEBER APOS 30 DIAS DO VENCIMENTO.                                                                                                                                                                                                         04112200000000000000411220000000000000       0090339900009954885787112212000069
100000000000000000000009033990000995400000000000000000000000010002020015378211221300000000002            2  01153782112223112200000003474540000000001N041122000000000000000000000000000000000000000000000000000000000000000100015378295807SERGIO FERNANDES                        RUA VALDEMAR MARTINS - 116 AP.115 - BAIR            02535000                                                            000071
2SR. CAIXA, APOS O VENCIMENTO COBRAR 2% DE MULTA                                 NAO RECEBER APOS 30 DIAS DO VENCIMENTO.                                                                                                                                                                                                         04112200000000000000411220000000000000       0090339900009954153782112213000072
100000000000000000000009033990000995400000000000000000000000010002020005105211221000000000002            2  01051052112223112200000002773100000000001N041122000000000000000000000000000000000000000000000000000000000000000100005105287835FABIO MOTTOLA DE OLIVEIRA               RUA RAUL MAZZONI - 133 - CHACARA AREAL -            13331022                                                            000074
2SR. CAIXA, APOS O VENCIMENTO COBRAR 2% DE MULTA                                 NAO RECEBER APOS 30 DIAS DO VENCIMENTO.                                                                                                                                                                                                         04112200000000000000411220000000000000       0090339900009954051052112210000075
100000000000000000000009033990000995400000000000000000000000010002020020792711221P00000000002            2  01207927112223112200000002883000000000001N041122000000000000000000000000000000000000000000000000000000000000000120792791000147TROVAO COMERCIO DE ALIMENTOS LTDA-ME    RUA QUINTA DA MAGNOLIA - 67 - JARDIM IPA            03582100                                                            000077
2SR. CAIXA, APOS O VENCIMENTO COBRAR 2% DE MULTA                                 NAO RECEBER APOS 30 DIAS DO VENCIMENTO.                                                                                                                                                                                                         04112200000000000000411220000000000000       009033990000995420792711221P000078
100000000000000000000009033990000995400000000000000000000000010002020007648111221300000000002            2  01076481112223112200000002707160000000001N041122000000000000000000000000000000000000000000000000000000000000000100007648112825MARA REGINA CAPRIO                      RUA DA TRINDADE - 790 - VILA IDEAL - SAO            15060280                                                            000080
2SR. CAIXA, APOS O VENCIMENTO COBRAR 2% DE MULTA                                 NAO RECEBER APOS 30 DIAS DO VENCIMENTO.                                                                                                                                                                                                         04112200000000000000411220000000000000       0090339900009954076481112213000081
100000000000000000000009033990000995400000000000000000000000010002020031157411221200000000002            2  01311574112223112200000002906810000000001N041122000000000000000000000000000000000000000000000000000000000000000100031157420885TALITA ANICHIARICO COSSI                RUA CNEO POMPEO DE CAMARGO - 817 - JARDI            13060150                                                            000083
2SR. CAIXA, APOS O VENCIMENTO COBRAR 2% DE MULTA                                 NAO RECEBER APOS 30 DIAS DO VENCIMENTO.                                                                                                                                                                                                         04112200000000000000411220000000000000       0090339900009954311574112212000084
100000000000000000000009033990000995400000000000000000000000010002020035572511221700000000002            2  01355725112223112200000003090620000000001N041122000000000000000000000000000000000000000000000000000000000000000100035572536865MARIA SIMONE SANTOS                     RUA JOSE PEZZOLO - 68 - VILA ELDIZIA - S            09181660                                                            000086
2SR. CAIXA, APOS O VENCIMENTO COBRAR 2% DE MULTA                                 NAO RECEBER APOS 30 DIAS DO VENCIMENTO.                                                                                                                                                                                                         04112200000000000000411220000000000000       0090339900009954355725112217000087
100000000000000000000009033990000995400000000000000000000000010002020008800311221400000000002            2  01088003112223112200000002815960000000001N041122000000000000000000000000000000000000000000000000000000000000000100008800368425INGO DIMITRI PEREIRA DA NOBREGA         RUA PROFESSOR MENDES PIMENTEL - 362 - JA            03973010                                                            000089
2SR. CAIXA, APOS O VENCIMENTO COBRAR 2% DE MULTA                                 NAO RECEBER APOS 30 DIAS DO VENCIMENTO.                                                                                                                                                                                                         04112200000000000000411220000000000000       0090339900009954088003112214000090
100000000000000000000009033990000995400000000000000000000000010002020018312411221400000000002            2  01183124112223112200000009765030000000001N041122000000000000000000000000000000000000000000000000000000000000000100018312408827PAULO LUIZ FERREIRA                     AVENIDA MARCONDES SALGADO - 20 AP.26 B -            11702530                                                            000092
2SR. CAIXA, APOS O VENCIMENTO COBRAR 2% DE MULTA                                 NAO RECEBER APOS 30 DIAS DO VENCIMENTO.                                                                                                                                                                                                         04112200000000000000411220000000000000       0090339900009954183124112214000093
100000000000000000000009033990000995400000000000000000000000010002020005054111221900000000002            2  01050541112223112200000002725130000000001N041122000000000000000000000000000000000000000000000000000000000000000100005054169806PAULO ROBERTO DE MATTOS                 JARDIM BOTANICO - 849 - DISTRITO DE SOUS            13106258                                                            000095
2SR. CAIXA, APOS O VENCIMENTO COBRAR 2% DE MULTA                                 NAO RECEBER APOS 30 DIAS DO VENCIMENTO.                                                                                                                                                                                                         04112200000000000000411220000000000000       0090339900009954050541112219000096
100000000000000000000009033990000995400000000000000000000000010002020007552111221500000000002            2  01075521112223112200000002725130000000001N041122000000000000000000000000000000000000000000000000000000000000000100007552151846MAURO BORDONI                           AVENIDA DR. AUGUSTO DE TOLEDO - 769 AP.6            09540080                                                            000098
2SR. CAIXA, APOS O VENCIMENTO COBRAR 2% DE MULTA                                 NAO RECEBER APOS 30 DIAS DO VENCIMENTO.                                                                                                                                                                                                         04112200000000000000411220000000000000       0090339900009954075521112215000099
100000000000000000000009033990000995400000000000000000000000010002020012744211221800000000002            2  01127442112223112200000003032110000000001N041122000000000000000000000000000000000000000000000000000000000000000100012744201804ADAIL JOSE DE SOUSA                     RUA ROSARIA - 303 - BAIRRO SACADURA CABR            09061080                                                            000101
2SR. CAIXA, APOS O VENCIMENTO COBRAR 2% DE MULTA                                 NAO RECEBER APOS 30 DIAS DO VENCIMENTO.                                                                                                                                                                                                         04112200000000000000411220000000000000       0090339900009954127442112218000102
100000000000000000000009033990000995400000000000000000000000010002020000884211221800000000002            2  01008842112223112200000002255830000000001N041122000000000000000000000000000000000000000000000000000000000000000100000884239802ADEMIR MARTINS                          RUA CAIRO - 221 - VILA METALURGICA - SAN            09220170                                                            000104
2SR. CAIXA, APOS O VENCIMENTO COBRAR 2% DE MULTA                                 NAO RECEBER APOS 30 DIAS DO VENCIMENTO.                                                                                                                                                                                                         04112200000000000000411220000000000000       0090339900009954008842112218000105
100000000000000000000009033990000995400000000000000000000000010002020068320611221500000000002            2  01683206112223112200000010738180000000001N041122000000000000000000000000000000000000000000000000000000000000000100068320663849ANTONIO CAVALCANTE LIMA                 RUA AMAZONAS - 1188 - CENTRO - SAO CAETA            09540201                                                            000107
2SR. CAIXA, APOS O VENCIMENTO COBRAR 2% DE MULTA                                 NAO RECEBER APOS 30 DIAS DO VENCIMENTO.                                                                                                                                                                                                         04112200000000000000411220000000000000       0090339900009954683206112215000108
9                                                                                                                                                                                                                                                                                                                                                                                                         000109