01REMESSA01COBRANCA       00000000000008017025HB SANTOS CONSTRUTORA E INCORP237BRADESCO       020721        MX0000132                                                                                                                                                                                                                                                                                     000001
100000000000000000000009033990000627000000000000000000000000010002020025035107211200000000002            2  01250351072124072100000002483390000000001N020721000000000000000000000000000000000000000000000000000000000000000100025035170802WANDERSON LUIS DE CARVALHO              RUA JOAQUIM GONCALVES ROCHA - 302 - JARD            02859030                                                            000002
2SR. CAIXA, APOS O VENCIMENTO COBRAR 2% DE MULTA                                 NAO RECEBER APOS 30 DIAS DO VENCIMENTO.                                                                                                                                                                                                         02072100000000000000207210000000000000       0090339900006270250351072112000003
100000000000000000000009033990000627000000000000000000000000010002020007294307211P00000000002            2  01072943072124072100000003340180000000001N020721000000000000000000000000000000000000000000000000000000000000000100007294351805CLAUDENIR APARECIDO VACARI              RUA CARLOS JOSE BORSTENS - 50 AP.93 - AV            11702750                                                            000005
2SR. CAIXA, APOS O VENCIMENTO COBRAR 2% DE MULTA                                 NAO RECEBER APOS 30 DIAS DO VENCIMENTO.                                                                                                                                                                                                         02072100000000000000207210000000000000       009033990000627007294307211P000006
100000000000000000000009033990000627000000000000000000000000010002020007525007211500000000002            2  01075250072124072100000003736150000000001N020721000000000000000000000000000000000000000000000000000000000000000100007525032866FERNANDO RIBEIRO                        RUA CARLOS JOSE BORSTENS - 50 AP.32 - AV            11702750                                                            000008
2SR. CAIXA, APOS O VENCIMENTO COBRAR 2% DE MULTA                                 NAO RECEBER APOS 30 DIAS DO VENCIMENTO.                                                                                                                                                                                                         02072100000000000000207210000000000000       0090339900006270075250072115000009
100000000000000000000009033990000627000000000000000000000000010002020005071407211000000000002            2  01050714072124072100000003277330000000001N020721000000000000000000000000000000000000000000000000000000000000000100005071481855ERIBALDO SANTANA CARVALHO               RUA HONDURAS - 477 - PARQUE DAS AMERICAS            09351070                                                            000011
2SR. CAIXA, APOS O VENCIMENTO COBRAR 2% DE MULTA                                 NAO RECEBER APOS 30 DIAS DO VENCIMENTO.                                                                                                                                                                                                         02072100000000000000207210000000000000       0090339900006270050714072110000012
100000000000000000000009033990000627000000000000000000000000010002020002841707211400000000002            2  01028417072124072100000003066240000000001N020721000000000000000000000000000000000000000000000000000000000000000100002841756416LUCIANA PINHEIRO DE ASSIS NUNES         RUA RIO ACIMA - 81 - RIACHO GRANDE - SAO            09830100                                                            000014
2SR. CAIXA, APOS O VENCIMENTO COBRAR 2% DE MULTA                                 NAO RECEBER APOS 30 DIAS DO VENCIMENTO.                                                                                                                                                                                                         02072100000000000000207210000000000000       0090339900006270028417072114000015
100000000000000000000009033990000627000000000000000000000000010002020084302007211300000000002            2  01843020072124072100000003080940000000001N020721000000000000000000000000000000000000000000000000000000000000000100084302097868FAUSTO TADEU VILOR                      RUA ANTONIO TAVARES - 466 - BAIRRO CAMBU            01542010                                                            000017
2SR. CAIXA, APOS O VENCIMENTO COBRAR 2% DE MULTA                                 NAO RECEBER APOS 30 DIAS DO VENCIMENTO.                                                                                                                                                                                                         02072100000000000000207210000000000000       0090339900006270843020072113000018
100000000000000000000009033990000627000000000000000000000000010002020028804207211300000000002            2  01288042072124072100000003027070000000001N020721000000000000000000000000000000000000000000000000000000000000000100028804202882GILBERTO FABIANO CABRAL DE CAMARGO      RUA CARLOS JOSE BORSTENS - 50 AP.44 - AV            11702750                                                            000020
2SR. CAIXA, APOS O VENCIMENTO COBRAR 2% DE MULTA                                 NAO RECEBER APOS 30 DIAS DO VENCIMENTO.                                                                                                                                                                                                         02072100000000000000207210000000000000       0090339900006270288042072113000021
100000000000000000000009033990000627000000000000000000000000010002020000991707211600000000002            2  01009917072124072100000002954530000000001N020721000000000000000000000000000000000000000000000000000000000000000100000991748808JAILSON BORGES DE ANDRADE               RUA IPIOBUNA - 45 - JARDIM CUMBICA - GUA            07240040                                                            000023
2SR. CAIXA, APOS O VENCIMENTO COBRAR 2% DE MULTA                                 NAO RECEBER APOS 30 DIAS DO VENCIMENTO.                                                                                                                                                                                                         02072100000000000000207210000000000000       0090339900006270009917072116000024
100000000000000000000009033990000627000000000000000000000000010002020022151607211200000000002            2  01221516072124072100000002937360000000001N020721000000000000000000000000000000000000000000000000000000000000000100022151666816SAMIR LIMA DE ARAUJO                    AVENIDA GUARAPIRANGA - 2616 AP.131 BL.14            04902005                                                            000026
2SR. CAIXA, APOS O VENCIMENTO COBRAR 2% DE MULTA                                 NAO RECEBER APOS 30 DIAS DO VENCIMENTO.                                                                                                                                                                                                         02072100000000000000207210000000000000       0090339900006270221516072112000027
100000000000000000000009033990000627000000000000000000000000010002020022313107211400000000002            2  01223131072126072100000002259540000000001N020721000000000000000000000000000000000000000000000000000000000000000100022313116824ROSA MARIA BRITO DA SILVA               RUA SERVIDAO DE SAO MARCOS - 113 - JARDI            04930300                                                            000029
2SR. CAIXA, APOS O VENCIMENTO COBRAR 2% DE MULTA                                 NAO RECEBER APOS 30 DIAS DO VENCIMENTO.                                                                                                                                                                                                         02072100000000000000207210000000000000       0090339900006270223131072114000030
100000000000000000000009033990000627000000000000000000000000010002020027538007211600000000002            2  01275380072126072100000002267420000000001N020721000000000000000000000000000000000000000000000000000000000000000100027538087249MARA LUCIA MENEZES DA COSTA             RUA LEILA  - 183 - ITAQUERA - SAO PAULO             08240020                                                            000032
2SR. CAIXA, APOS O VENCIMENTO COBRAR 2% DE MULTA                                 NAO RECEBER APOS 30 DIAS DO VENCIMENTO.                                                                                                                                                                                                         02072100000000000000207210000000000000       0090339900006270275380072116000033
100000000000000000000009033990000627000000000000000000000000010002020031278407211200000000002            2  01312784072124072100000002837600000000001N020721000000000000000000000000000000000000000000000000000000000000000100031278411836JEFFERSON DE PIERI PIRES ZAMUNER        RUA MANOEL ARCE - 277 - PARQUE BANCARIO             03922150                                                            000035
2SR. CAIXA, APOS O VENCIMENTO COBRAR 2% DE MULTA                                 NAO RECEBER APOS 30 DIAS DO VENCIMENTO.                                                                                                                                                                                                         02072100000000000000207210000000000000       0090339900006270312784072112000036
100000000000000000000009033990000627000000000000000000000000010002020019185707211400000000002            2  01191857072126072100000002063400000000001N020721000000000000000000000000000000000000000000000000000000000000000100019185769800AGUINALDO PESSOA DE LIMA                RUA JANUARIO ZINGARO - 252 AP.303 BL.04             05794300                                                            000038
2SR. CAIXA, APOS O VENCIMENTO COBRAR 2% DE MULTA                                 NAO RECEBER APOS 30 DIAS DO VENCIMENTO.                                                                                                                                                                                                         02072100000000000000207210000000000000       0090339900006270191857072114000039
100000000000000000000009033990000627000000000000000000000000010002020033303607211500000000002            2  01333036072126072100000002222460000000001N020721000000000000000000000000000000000000000000000000000000000000000100033303645809JESSICA DA SILVA FREITAS                RUA ARILDO VALADAO - 120 - JARDIM GUAEMB            04814600                                                            000041
2SR. CAIXA, APOS O VENCIMENTO COBRAR 2% DE MULTA                                 NAO RECEBER APOS 30 DIAS DO VENCIMENTO.                                                                                                                                                                                                         02072100000000000000207210000000000000       0090339900006270333036072115000042
100000000000000000000009033990000627000000000000000000000000010002020006422607211000000000002            2  01064226072124072100000003073170000000001N020721000000000000000000000000000000000000000000000000000000000000000100006422607881GERALDO ALVES DA SILVA                  RUA CARLOS JOSE BORSTENS - 50 AP.14 - AV            11702750                                                            000044
2SR. CAIXA, APOS O VENCIMENTO COBRAR 2% DE MULTA                                 NAO RECEBER APOS 30 DIAS DO VENCIMENTO.                                                                                                                                                                                                         02072100000000000000207210000000000000       0090339900006270064226072110000045
100000000000000000000009033990000627000000000000000000000000010002020033877107211200000000002            2  01338771072126072100000002083630000000001N020721000000000000000000000000000000000000000000000000000000000000000100033877129870HELDER FERREIRA VIANA                   RUA JOSE CALIXTO DO CARMO - 286 AP.35 -             11702690                                                            000047
2SR. CAIXA, APOS O VENCIMENTO COBRAR 2% DE MULTA                                 NAO RECEBER APOS 30 DIAS DO VENCIMENTO.                                                                                                                                                                                                         02072100000000000000207210000000000000       0090339900006270338771072112000048
100000000000000000000009033990000627000000000000000000000000010002020028290707211600000000002            2  01282907072126072100000001920340000000001N020721000000000000000000000000000000000000000000000000000000000000000100028290719809VANESSA GIANGARRELLI PEREIRA            RUA BARINEL - 72 - JARDIM COTCHING - SAO            03462130                                                            000050
2SR. CAIXA, APOS O VENCIMENTO COBRAR 2% DE MULTA                                 NAO RECEBER APOS 30 DIAS DO VENCIMENTO.                                                                                                                                                                                                         02072100000000000000207210000000000000       0090339900006270282907072116000051
100000000000000000000009033990000627000000000000000000000000010002020087573007211100000000002            2  01875730072126072100000002096980000000001N020721000000000000000000000000000000000000000000000000000000000000000100087573059604VANDERLEY DE ASSIS                      RUA ROMEU ALBANI - 268 - JARDIM PARQUE R            13803810                                                            000053
2SR. CAIXA, APOS O VENCIMENTO COBRAR 2% DE MULTA                                 NAO RECEBER APOS 30 DIAS DO VENCIMENTO.                                                                                                                                                                                                         02072100000000000000207210000000000000       0090339900006270875730072111000054
100000000000000000000009033990000627000000000000000000000000010002020010825507211900000000002            2  01108255072126072100000002188300000000001N020721000000000000000000000000000000000000000000000000000000000000000100010825513847JOSE APARECIDO PEREIRA                  RUA GENERAL OSORIO - 305 - JARDIM TRINTA            11515130                                                            000056
2SR. CAIXA, APOS O VENCIMENTO COBRAR 2% DE MULTA                                 NAO RECEBER APOS 30 DIAS DO VENCIMENTO.                                                                                                                                                                                                         02072100000000000000207210000000000000       0090339900006270108255072119000057
100000000000000000000009033990000627000000000000000000000000010002020039115107211000000000002            2  01391151072126072100000002697470000000001N020721000000000000000000000000000000000000000000000000000000000000000100039115139840LAIS CRISTINA RIBEIRO ANDO              RUA JOSE CALIXTO DO CARMO - 286 AP.65 -             11702690                                                            000059
2SR. CAIXA, APOS O VENCIMENTO COBRAR 2% DE MULTA                                 NAO RECEBER APOS 30 DIAS DO VENCIMENTO.                                                                                                                                                                                                         02072100000000000000207210000000000000       0090339900006270391151072110000060
100000000000000000000009033990000627000000000000000000000000010002020029617507211900000000002            2  01296175072124072100000003016410000000001N020721000000000000000000000000000000000000000000000000000000000000000100029617510553MARILENE SOUZA DE OLIVEIRA              AVENIDA BRASIL - 393 AP.09 - PARQUE DAS             09210280                                                            000062
2SR. CAIXA, APOS O VENCIMENTO COBRAR 2% DE MULTA                                 NAO RECEBER APOS 30 DIAS DO VENCIMENTO.                                                                                                                                                                                                         02072100000000000000207210000000000000       0090339900006270296175072119000063
100000000000000000000009033990000627000000000000000000000000010002020000593207211900000000002            2  01005932072124072100000003308270000000001N020721000000000000000000000000000000000000000000000000000000000000000100000593293860WALTER HELIO BARBOSA FILHO              AVENIDA ANTONIO FREDERICO OZANAN - 9500             13214206                                                            000065
2SR. CAIXA, APOS O VENCIMENTO COBRAR 2% DE MULTA                                 NAO RECEBER APOS 30 DIAS DO VENCIMENTO.                                                                                                                                                                                                         02072100000000000000207210000000000000       0090339900006270005932072119000066
100000000000000000000009033990000627000000000000000000000000010002020065584107211000000000002            2  01655841072124072100000001736670000000001N020721000000000000000000000000000000000000000000000000000000000000000100065584147834JOAQUIM DA COSTA MACHADO NETO           RUA CARLOS JOSE BORSTENS - 50 AP.42 - AV            11702750                                                            000068
2SR. CAIXA, APOS O VENCIMENTO COBRAR 2% DE MULTA                                 NAO RECEBER APOS 30 DIAS DO VENCIMENTO.                                                                                                                                                                                                         02072100000000000000207210000000000000       0090339900006270655841072110000069
100000000000000000000009033990000627000000000000000000000000010002020065584107212900000000002            2  01655841072124072100000001736660000000001N020721000000000000000000000000000000000000000000000000000000000000000100065584147834JOAQUIM DA COSTA MACHADO NETO           RUA CARLOS JOSE BORSTENS - 50 AP.42 - AV            11702750                                                            000071
2SR. CAIXA, APOS O VENCIMENTO COBRAR 2% DE MULTA                                 NAO RECEBER APOS 30 DIAS DO VENCIMENTO.                                                                                                                                                                                                         02072100000000000000207210000000000000       0090339900006270655841072129000072
100000000000000000000009033990000627000000000000000000000000010002020006684607211300000000002            2  01066846072126072100000002222190000000001N020721000000000000000000000000000000000000000000000000000000000000000100006684623884LAUDINOR VIEIRA GARCIA                  RUA CANDIDO SALES - 374 - JARDIM PRESIDE            07172000                                                            000074
2SR. CAIXA, APOS O VENCIMENTO COBRAR 2% DE MULTA                                 NAO RECEBER APOS 30 DIAS DO VENCIMENTO.                                                                                                                                                                                                         02072100000000000000207210000000000000       0090339900006270066846072113000075
100000000000000000000009033990000627000000000000000000000000010002020011663507211400000000002            2  01116635072126072100000002238170000000001N020721000000000000000000000000000000000000000000000000000000000000000100011663589844MARIA SAVIO QUARELLO                    AVENIDA MENDONCA DRUMOND - 321 - JARDIM             03524030                                                            000077
2SR. CAIXA, APOS O VENCIMENTO COBRAR 2% DE MULTA                                 NAO RECEBER APOS 30 DIAS DO VENCIMENTO.                                                                                                                                                                                                         02072100000000000000207210000000000000       0090339900006270116635072114000078
100000000000000000000009033990000627000000000000000000000000010002020010083807211600000000002            2  01100838072126072100000002162450000000001N020721000000000000000000000000000000000000000000000000000000000000000100010083824855IONE FERREIRA COUTO DA SILVA            RUA JOSE RAGEL DE MESQUITA - 60 CS.01 -             07799999                                                            000080
2SR. CAIXA, APOS O VENCIMENTO COBRAR 2% DE MULTA                                 NAO RECEBER APOS 30 DIAS DO VENCIMENTO.                                                                                                                                                                                                         02072100000000000000207210000000000000       0090339900006270100838072116000081
100000000000000000000009033990000627000000000000000000000000010002020031010707211100000000002            2  01310107072126072100000002122060000000001N020721000000000000000000000000000000000000000000000000000000000000000100031010705890ANDRE GONZALEZ RABELLO                  RUA PARAIBA - 106 AP.61 - POMPEIA - SANT            11065470                                                            000083
2SR. CAIXA, APOS O VENCIMENTO COBRAR 2% DE MULTA                                 NAO RECEBER APOS 30 DIAS DO VENCIMENTO.                                                                                                                                                                                                         02072100000000000000207210000000000000       0090339900006270310107072111000084
100000000000000000000009033990000627000000000000000000000000010002020005351007211000000000002            2  01053510072126072100000001989650000000001N020721000000000000000000000000000000000000000000000000000000000000000100005351015897VALERIA ALVES MARCOLINO HINNIGER        RUA JOSE CALIXTO DO CARMO - 286 AP.92 -             11702690                                                            000086
2SR. CAIXA, APOS O VENCIMENTO COBRAR 2% DE MULTA                                 NAO RECEBER APOS 30 DIAS DO VENCIMENTO.                                                                                                                                                                                                         02072100000000000000207210000000000000       0090339900006270053510072110000087
100000000000000000000009033990000627000000000000000000000000010002020031898707211600000000002            2  01318987072124072100000003165480000000001N020721000000000000000000000000000000000000000000000000000000000000000100031898775800ANITA MARTINS COLOMBO                   RUA CARLOS JOSE BORSTENS - 50 AP.115 - A            11702750                                                            000089
2SR. CAIXA, APOS O VENCIMENTO COBRAR 2% DE MULTA                                 NAO RECEBER APOS 30 DIAS DO VENCIMENTO.                                                                                                                                                                                                         02072100000000000000207210000000000000       0090339900006270318987072116000090
100000000000000000000009033990000627000000000000000000000000010002020037983407211600000000002            2  01379834072126072100000002337210000000001N020721000000000000000000000000000000000000000000000000000000000000000100037983484801JOSE ERIVALDO SOUZA DO NASCIMENTO RAMOS RUA LETICIA - 250 - JARDIM GUARUJA - SAO            05877260                                                            000092
2SR. CAIXA, APOS O VENCIMENTO COBRAR 2% DE MULTA                                 NAO RECEBER APOS 30 DIAS DO VENCIMENTO.                                                                                                                                                                                                         02072100000000000000207210000000000000       0090339900006270379834072116000093
100000000000000000000009033990000627000000000000000000000000010002020056289207211700000000002            2  01562892072126072100000007716640000000001N020721000000000000000000000000000000000000000000000000000000000000000100056289286900PEDRO RIBEIRO                           RUA CONEGO MANOEL VAZ - 48 - SANTANA - S            02019050                                                            000095
2SR. CAIXA, APOS O VENCIMENTO COBRAR 2% DE MULTA                                 NAO RECEBER APOS 30 DIAS DO VENCIMENTO.                                                                                                                                                                                                         02072100000000000000207210000000000000       0090339900006270562892072117000096
100000000000000000000009033990000627000000000000000000000000010002020056289207212500000000002            2  01562892072126072100000001765640000000001N020721000000000000000000000000000000000000000000000000000000000000000100056289286900PEDRO RIBEIRO                           RUA CONEGO MANOEL VAZ - 48 - SANTANA - S            02019050                                                            000098
2SR. CAIXA, APOS O VENCIMENTO COBRAR 2% DE MULTA                                 NAO RECEBER APOS 30 DIAS DO VENCIMENTO.                                                                                                                                                                                                         02072100000000000000207210000000000000       0090339900006270562892072125000099
100000000000000000000009033990000627000000000000000000000000010002020034735307211300000000002            2  01347353072126072100000002423230000000001N020721000000000000000000000000000000000000000000000000000000000000000100034735328866DIEGO FELIPE MOLINA DA SILVA E SOUSA    RUA EMILIA PAULISTA - 135 - VILA TIRADEN            05364020                                                            000101
2SR. CAIXA, APOS O VENCIMENTO COBRAR 2% DE MULTA                                 NAO RECEBER APOS 30 DIAS DO VENCIMENTO.                                                                                                                                                                                                         02072100000000000000207210000000000000       0090339900006270347353072113000102
100000000000000000000009033990000627000000000000000000000000010002020076175607211400000000002            2  01761756072124072100000004393030000000001N020721000000000000000000000000000000000000000000000000000000000000000100076175685687GILMAR DE OLIVEIRA BRAGA                RUA MARACAJU - 161 AP.202 - NOVA GRANADA            30431350                                                            000104
2SR. CAIXA, APOS O VENCIMENTO COBRAR 2% DE MULTA                                 NAO RECEBER APOS 30 DIAS DO VENCIMENTO.                                                                                                                                                                                                         02072100000000000000207210000000000000       0090339900006270761756072114000105
100000000000000000000009033990000627000000000000000000000000010002020034812207211700000000002            2  01348122072124072100000004189660000000001N020721000000000000000000000000000000000000000000000000000000000000000100034812226880THAIS TORQUATO MIMOSO DE JESUS          RUA ARNALDO CINTRA - 416 AP.104 TORRE 2             03088000                                                            000107
2SR. CAIXA, APOS O VENCIMENTO COBRAR 2% DE MULTA                                 NAO RECEBER APOS 30 DIAS DO VENCIMENTO.                                                                                                                                                                                                         02072100000000000000207210000000000000       0090339900006270348122072117000108
100000000000000000000009033990000627000000000000000000000000010002020012849407211300000000002            2  01128494072126072100000004174580000000001N020721000000000000000000000000000000000000000000000000000000000000000100012849428809MOISES CLAUDIO DO ROSARIO               AVENIDA DR. AUGUSTO DE TOLEDO - 510 AP.1            09541520                                                            000110
2SR. CAIXA, APOS O VENCIMENTO COBRAR 2% DE MULTA                                 NAO RECEBER APOS 30 DIAS DO VENCIMENTO.                                                                                                                                                                                                         02072100000000000000207210000000000000       0090339900006270128494072113000111
100000000000000000000009033990000627000000000000000000000000010002020015702307211300000000002            2  01157023072126072100000002316140000000001N020721000000000000000000000000000000000000000000000000000000000000000100015702353846MARIA DE LOURDES DE MACENO SOUZA        RUA JOSE CALIXTO DO CARMO - 286 AP.83 -             11702690                                                            000113
2SR. CAIXA, APOS O VENCIMENTO COBRAR 2% DE MULTA                                 NAO RECEBER APOS 30 DIAS DO VENCIMENTO.                                                                                                                                                                                                         02072100000000000000207210000000000000       0090339900006270157023072113000114
100000000000000000000009033990000627000000000000000000000000010002020003658607211800000000002            2  01036586072126072100000001724600000000001N020721000000000000000000000000000000000000000000000000000000000000000100003658668814MARINEZ VALENTIN                        RUA JOSE CALIXTO DO CARMO - 286 AP.95 -             11702690                                                            000116
2SR. CAIXA, APOS O VENCIMENTO COBRAR 2% DE MULTA                                 NAO RECEBER APOS 30 DIAS DO VENCIMENTO.                                                                                                                                                                                                         02072100000000000000207210000000000000       0090339900006270036586072118000117
100000000000000000000009033990000627000000000000000000000000010002020003658607212600000000002            2  01036586072126072100000001724590000000001N020721000000000000000000000000000000000000000000000000000000000000000100003658668814MARINEZ VALENTIN                        RUA JOSE CALIXTO DO CARMO - 286 AP.95 -             11702690                                                            000119
2SR. CAIXA, APOS O VENCIMENTO COBRAR 2% DE MULTA                                 NAO RECEBER APOS 30 DIAS DO VENCIMENTO.                                                                                                                                                                                                         02072100000000000000207210000000000000       0090339900006270036586072126000120
100000000000000000000009033990000627000000000000000000000000010002020014087407211600000000002            2  01140874072126072100000002304770000000001N020721000000000000000000000000000000000000000000000000000000000000000100014087484874SERGIO SANTOS DO NASCIMENTO             RUA PANTALEAO BRAZ - 21 - JARDIM ESTER -            05372080                                                            000122
2SR. CAIXA, APOS O VENCIMENTO COBRAR 2% DE MULTA                                 NAO RECEBER APOS 30 DIAS DO VENCIMENTO.                                                                                                                                                                                                         02072100000000000000207210000000000000       0090339900006270140874072116000123
100000000000000000000009033990000627000000000000000000000000010002020026834507211500000000002            2  01268345072126072100000002123570000000001N020721000000000000000000000000000000000000000000000000000000000000000100026834550895RAQUEL CARDOSO JOAO                     RUA PEDROSO XAVIER - 277 AP.23 TORRE 01             02732020                                                            000125
2SR. CAIXA, APOS O VENCIMENTO COBRAR 2% DE MULTA                                 NAO RECEBER APOS 30 DIAS DO VENCIMENTO.                                                                                                                                                                                                         02072100000000000000207210000000000000       0090339900006270268345072115000126
100000000000000000000009033990000627000000000000000000000000010002020039540007211300000000002            2  01395400072126072100000002087770000000001N020721000000000000000000000000000000000000000000000000000000000000000100039540008816LUZINETE CLARINDO SILVA                 RUA DEINOS - 275 - BAIRRO CIDADE SATELIT            08340100                                                            000128
2SR. CAIXA, APOS O VENCIMENTO COBRAR 2% DE MULTA                                 NAO RECEBER APOS 30 DIAS DO VENCIMENTO.                                                                                                                                                                                                         02072100000000000000207210000000000000       0090339900006270395400072113000129
100000000000000000000009033990000627000000000000000000000000010002020003311007211000000000002            2  01033110072126072100000002174150000000001N020721000000000000000000000000000000000000000000000000000000000000000100003311030877SEBASTIAO SARUVA NETO                   RUA HAMILTON REGIS - 559 - BAIRRO DO LIM            08051440                                                            000131
2SR. CAIXA, APOS O VENCIMENTO COBRAR 2% DE MULTA                                 NAO RECEBER APOS 30 DIAS DO VENCIMENTO.                                                                                                                                                                                                         02072100000000000000207210000000000000       0090339900006270033110072110000132
100000000000000000000009033990000627000000000000000000000000010002020090091907211700000000002            2  01900919072126072100000002078190000000001N020721000000000000000000000000000000000000000000000000000000000000000100090091990882JUECIR CARVALHO DA LUZ                  RUA JOSE CALIXTO DO CARMO - 286 AP.114 -            11702690                                                            000134
2SR. CAIXA, APOS O VENCIMENTO COBRAR 2% DE MULTA                                 NAO RECEBER APOS 30 DIAS DO VENCIMENTO.                                                                                                                                                                                                         02072100000000000000207210000000000000       0090339900006270900919072117000135
100000000000000000000009033990000627000000000000000000000000010002020037325907211900000000002            2  01373259072126072100000005469030000000001N020721000000000000000000000000000000000000000000000000000000000000000100037325923830MARIA AUGUSTA OLIVEIRA DE ANDRADE       RUA CAIAPOS - 842 AP.63 - VILA TUPI - PR            11703320                                                            000137
2SR. CAIXA, APOS O VENCIMENTO COBRAR 2% DE MULTA                                 NAO RECEBER APOS 30 DIAS DO VENCIMENTO.                                                                                                                                                                                                         02072100000000000000207210000000000000       0090339900006270373259072119000138
100000000000000000000009033990000627000000000000000000000000010002020037325907212700000000002            2  01373259072126072100000001700710000000001N020721000000000000000000000000000000000000000000000000000000000000000100037325923830MARIA AUGUSTA OLIVEIRA DE ANDRADE       RUA CAIAPOS - 842 AP.63 - VILA TUPI - PR            11703320                                                            000140
2SR. CAIXA, APOS O VENCIMENTO COBRAR 2% DE MULTA                                 NAO RECEBER APOS 30 DIAS DO VENCIMENTO.                                                                                                                                                                                                         02072100000000000000207210000000000000       0090339900006270373259072127000141
100000000000000000000009033990000627000000000000000000000000010002020012478807211600000000002            2  01124788072124072100000003096230000000001N020721000000000000000000000000000000000000000000000000000000000000000100012478899809VITORIA BATISTA QUEIROZ                 RUA CARVALHO DE FREITAS - 255 AP.71A - V            05728030                                                            000143
2SR. CAIXA, APOS O VENCIMENTO COBRAR 2% DE MULTA                                 NAO RECEBER APOS 30 DIAS DO VENCIMENTO.                                                                                                                                                                                                         02072100000000000000207210000000000000       0090339900006270124788072116000144
100000000000000000000009033990000627000000000000000000000000010002020097989907211000000000002            2  01979899072126072100000001427800000000001N020721000000000000000000000000000000000000000000000000000000000000000100097989924820NELSON LUIS BERRIBILLE                  RUA SILVEIRA IGNACIO SOBRINHO - 965 - VI            13560294                                                            000146
2SR. CAIXA, APOS O VENCIMENTO COBRAR 2% DE MULTA                                 NAO RECEBER APOS 30 DIAS DO VENCIMENTO.                                                                                                                                                                                                         02072100000000000000207210000000000000       0090339900006270979899072110000147
100000000000000000000009033990000627000000000000000000000000010002020032341807211P00000000002            2  01323418072124072100000003216100000000001N020721000000000000000000000000000000000000000000000000000000000000000100032341847803PRISCILA ALVES DE FRANCA MIRANDA        RUA CARLOS JOSE BORSTENS - 50 AP.91 - AV            11702750                                                            000149
2SR. CAIXA, APOS O VENCIMENTO COBRAR 2% DE MULTA                                 NAO RECEBER APOS 30 DIAS DO VENCIMENTO.                                                                                                                                                                                                         02072100000000000000207210000000000000       009033990000627032341807211P000150
100000000000000000000009033990000627000000000000000000000000010002020016050607211500000000002            2  01160506072124072100000002985150000000001N020721000000000000000000000000000000000000000000000000000000000000000100016050684898ANDRE RODRIGUES DE OLIVEIRA             RUA CORACAO PAULISTA - 14 - FAZENDA ITAI            08132430                                                            000152
2SR. CAIXA, APOS O VENCIMENTO COBRAR 2% DE MULTA                                 NAO RECEBER APOS 30 DIAS DO VENCIMENTO.                                                                                                                                                                                                         02072100000000000000207210000000000000       0090339900006270160506072115000153
100000000000000000000009033990000627000000000000000000000000010002020021464907211900000000002            2  01214649072124072100000004704690000000001N020721000000000000000000000000000000000000000000000000000000000000000100021464965846ANDREA APARECIDA DE OLIVEIRA PECCI      RUA ANTONIO BOZ MARFIL - 103 - PARQUE DO            05396020                                                            000155
2SR. CAIXA, APOS O VENCIMENTO COBRAR 2% DE MULTA                                 NAO RECEBER APOS 30 DIAS DO VENCIMENTO.                                                                                                                                                                                                         02072100000000000000207210000000000000       0090339900006270214649072119000156
100000000000000000000009033990000627000000000000000000000000010002020030348107211000000000002            2  01303481072124072100000002850580000000001N020721000000000000000000000000000000000000000000000000000000000000000100030348198892KELLY CRISTINA CORDEIRO                 RUA CARLOS JOSE BORSTENS - 50 AP.25 - AV            11702750                                                            000158
2SR. CAIXA, APOS O VENCIMENTO COBRAR 2% DE MULTA                                 NAO RECEBER APOS 30 DIAS DO VENCIMENTO.                                                                                                                                                                                                         02072100000000000000207210000000000000       0090339900006270303481072110000159
9                                                                                                                                                                                                                                                                                                                                                                                                         000160