01REMESSA01COBRANCA       00000000000005331186HB SANTOS CONSTRUTORA E INCORP237BRADESCO       010822        MX0000053                                                                                                                                                                                                                                                                                     000001
100000000000000000000009033990000995400000000000000000000000010002020026858608221900000000002            2  01268586082208082200000002833610000000001N010822000000000000000000000000000000000000000000000000000000000000000100026858625879GLAUCE FERREIRA DE OLIVEIRA FALSI       RUA LOURENCO ANTONIO BRAGANCA - 116 - JA            04403160                                                            000002
2SR. CAIXA, APOS O VENCIMENTO COBRAR 2% DE MULTA                                 NAO RECEBER APOS 30 DIAS DO VENCIMENTO.                                                                                                                                                                                                         01082200000000000000108220000000000000       0090339900009954268586082219000003
100000000000000000000009033990000995400000000000000000000000010002020016960808221P00000000002            2  01169608082208082200000002705630000000001N010822000000000000000000000000000000000000000000000000000000000000000100016960804876LUIZ ALVES DE SOUZA JUNIOR              RUA URUGUAI - 89 AP.61 - JARDIM GUILHERM            11702300                                                            000005
2SR. CAIXA, APOS O VENCIMENTO COBRAR 2% DE MULTA                                 NAO RECEBER APOS 30 DIAS DO VENCIMENTO.                                                                                                                                                                                                         01082200000000000000108220000000000000       009033990000995416960808221P000006
100000000000000000000009033990000995400000000000000000000000010002020029425008221100000000002            2  01294250082208082200000002694760000000001N010822000000000000000000000000000000000000000000000000000000000000000100029425027897FABIA DOS SANTOS DE ANDRADE             AVENIDA ALCIDES CANDIDO DOS SANTOS - 248            11705480                                                            000008
2SR. CAIXA, APOS O VENCIMENTO COBRAR 2% DE MULTA                                 NAO RECEBER APOS 30 DIAS DO VENCIMENTO.                                                                                                                                                                                                         01082200000000000000108220000000000000       0090339900009954294250082211000009
100000000000000000000009033990000995400000000000000000000000010002020078382708221700000000002            2  01783827082208082200000002723190000000001N010822000000000000000000000000000000000000000000000000000000000000000100078382700497JARMELINA BARBOSA DA SILVA              RUA OSCAR CINTRA GORDINHO - 211 AP.51 -             01512010                                                            000011
2SR. CAIXA, APOS O VENCIMENTO COBRAR 2% DE MULTA                                 NAO RECEBER APOS 30 DIAS DO VENCIMENTO.                                                                                                                                                                                                         01082200000000000000108220000000000000       0090339900009954783827082217000012
100000000000000000000009033990000995400000000000000000000000010002020007535308221600000000002            2  01075353082208082200000002670430000000001N010822000000000000000000000000000000000000000000000000000000000000000100007535375839AINAILDE PEREIRA DE CASTRO OLIVETTO     TRAVESSA DORALINA ELIETE ADAO DA SILVA -            08021026                                                            000014
2SR. CAIXA, APOS O VENCIMENTO COBRAR 2% DE MULTA                                 NAO RECEBER APOS 30 DIAS DO VENCIMENTO.                                                                                                                                                                                                         01082200000000000000108220000000000000       0090339900009954075353082216000015
100000000000000000000009033990000995400000000000000000000000010002020017229708221100000000002            2  01172297082208082200000002828740000000001N010822000000000000000000000000000000000000000000000000000000000000000100017229751802BERENICE VIEIRA KERSTING                RUA ATIBAIA - 17 AP.417 - BAIRRO IMPERAD            11707380                                                            000017
2SR. CAIXA, APOS O VENCIMENTO COBRAR 2% DE MULTA                                 NAO RECEBER APOS 30 DIAS DO VENCIMENTO.                                                                                                                                                                                                         01082200000000000000108220000000000000       0090339900009954172297082211000018
100000000000000000000009033990000995400000000000000000000000010002020028974208221300000000002            2  01289742082208082200000002641990000000001N010822000000000000000000000000000000000000000000000000000000000000000100028974233827MARISTELA FAVANI DE OLIVEIRA            RUA GIUSEPPE CARNEVALLI - 96 - BAIRRO BO            09572100                                                            000020
2SR. CAIXA, APOS O VENCIMENTO COBRAR 2% DE MULTA                                 NAO RECEBER APOS 30 DIAS DO VENCIMENTO.                                                                                                                                                                                                         01082200000000000000108220000000000000       0090339900009954289742082213000021
100000000000000000000009033990000995400000000000000000000000010002020092184808221000000000002            2  01921848082208082200000002606820000000001N010822000000000000000000000000000000000000000000000000000000000000000100092184804800CARMEM DO SOCORRO GUILHERME             ESTRADA SAO FRANCISCO - 1.850 AP.182A -             06765000                                                            000023
2SR. CAIXA, APOS O VENCIMENTO COBRAR 2% DE MULTA                                 NAO RECEBER APOS 30 DIAS DO VENCIMENTO.                                                                                                                                                                                                         01082200000000000000108220000000000000       0090339900009954921848082210000024
100000000000000000000009033990000995400000000000000000000000010002020009169708221000000000002            2  01091697082208082200000002090680000000001N010822000000000000000000000000000000000000000000000000000000000000000100009169701830TADEU CONSTANTINO LOPES                 RUA JOSE ANTONIO COELHO - 349 CASA 01 -             04011061                                                            000026
2SR. CAIXA, APOS O VENCIMENTO COBRAR 2% DE MULTA                                 NAO RECEBER APOS 30 DIAS DO VENCIMENTO.                                                                                                                                                                                                         01082200000000000000108220000000000000       0090339900009954091697082210000027
100000000000000000000009033990000995400000000000000000000000010002020042480108221900000000002            2  01424801082208082200000002659570000000001N010822000000000000000000000000000000000000000000000000000000000000000100042480155870JAMITRE SOIOMARA ALVES DO NASCIMENTO DAVRUA URUGUAI - 89 AP.75 - JARDIM GUILHERM            11702300                                                            000029
2SR. CAIXA, APOS O VENCIMENTO COBRAR 2% DE MULTA                                 NAO RECEBER APOS 30 DIAS DO VENCIMENTO.                                                                                                                                                                                                         01082200000000000000108220000000000000       0090339900009954424801082219000030
100000000000000000000009033990000995400000000000000000000000010002020008966508221400000000002            2  01089665082208082200000002512850000000001N010822000000000000000000000000000000000000000000000000000000000000000100008966511856MONICA SILVA REIS                       RUA ORATORIO - 264 E FUNDOS - BANGU - SA            09280550                                                            000032
2SR. CAIXA, APOS O VENCIMENTO COBRAR 2% DE MULTA                                 NAO RECEBER APOS 30 DIAS DO VENCIMENTO.                                                                                                                                                                                                         01082200000000000000108220000000000000       0090339900009954089665082214000033
100000000000000000000009033990000995400000000000000000000000010002020001356908221500000000002            2  01013569082208082200000002699160000000001N010822000000000000000000000000000000000000000000000000000000000000000100001356993800DALVA MARIA DOS SANTOS                  RUA URUGUAI - 89 AP.74 - AVIACAO - PRAIA            11702300                                                            000035
2SR. CAIXA, APOS O VENCIMENTO COBRAR 2% DE MULTA                                 NAO RECEBER APOS 30 DIAS DO VENCIMENTO.                                                                                                                                                                                                         01082200000000000000108220000000000000       0090339900009954013569082215000036
100000000000000000000009033990000995400000000000000000000000010002020024615508221800000000002            2  01246155082208082200000003078280000000001N010822000000000000000000000000000000000000000000000000000000000000000100024615557884GILBERTO JOSE GONSALES                  RUA URUGUAI - 89 AP.115 - JARDIM GUILHER            11702300                                                            000038
2SR. CAIXA, APOS O VENCIMENTO COBRAR 2% DE MULTA                                 NAO RECEBER APOS 30 DIAS DO VENCIMENTO.                                                                                                                                                                                                         01082200000000000000108220000000000000       0090339900009954246155082218000039
100000000000000000000009033990000995400000000000000000000000010002020008878808221200000000002            2  01088788082208082200000002960410000000001N010822000000000000000000000000000000000000000000000000000000000000000100008878832812LUIZ ANTONIO DE OLIVEIRA                RUA TORRINHA - 220 AP.132 - BAIRRO TATUA            03332010                                                            000041
2SR. CAIXA, APOS O VENCIMENTO COBRAR 2% DE MULTA                                 NAO RECEBER APOS 30 DIAS DO VENCIMENTO.                                                                                                                                                                                                         01082200000000000000108220000000000000       0090339900009954088788082212000042
100000000000000000000009033990000995400000000000000000000000010002020031473708221800000000002            2  01314737082208082200000002175860000000001N010822000000000000000000000000000000000000000000000000000000000000000100031473799813MURIEL DA SILVA DE MOURA SOUZA          RUA CAPITAO PAULINO FREIRE - 300 AP.014             08717100                                                            000044
2SR. CAIXA, APOS O VENCIMENTO COBRAR 2% DE MULTA                                 NAO RECEBER APOS 30 DIAS DO VENCIMENTO.                                                                                                                                                                                                         01082200000000000000108220000000000000       0090339900009954314737082218000045
100000000000000000000009033990000995400000000000000000000000010002020036949508221700000000002            2  01369495082208082200000002880530000000001N010822000000000000000000000000000000000000000000000000000000000000000100036949505833FELIPE APARECIDO DOS SANTOS             RUA DAS MIMOSAS - 67 CASA 09 - VILA LUCI            03144010                                                            000047
2SR. CAIXA, APOS O VENCIMENTO COBRAR 2% DE MULTA                                 NAO RECEBER APOS 30 DIAS DO VENCIMENTO.                                                                                                                                                                                                         01082200000000000000108220000000000000       0090339900009954369495082217000048
100000000000000000000009033990000995400000000000000000000000010002020008539308221400000000002            2  01085393082208082200000002943050000000001N010822000000000000000000000000000000000000000000000000000000000000000100008539365871EDMILSON RAIMUNDO DOS SANTOS            RUA CALIDICE - 247 - PARQUE CRUZEIRO - S            08070010                                                            000050
2SR. CAIXA, APOS O VENCIMENTO COBRAR 2% DE MULTA                                 NAO RECEBER APOS 30 DIAS DO VENCIMENTO.                                                                                                                                                                                                         01082200000000000000108220000000000000       0090339900009954085393082214000051
100000000000000000000009033990000995400000000000000000000000010002020031040908221300000000002            2  01310409082208082200000003032100000000001N010822000000000000000000000000000000000000000000000000000000000000000100031040952801ANDRESSA REGINA FAVERANI LUPPI          RUA AMALIA BELLOTTI PASTORELLO - 169 - T            11724030                                                            000053
2SR. CAIXA, APOS O VENCIMENTO COBRAR 2% DE MULTA                                 NAO RECEBER APOS 30 DIAS DO VENCIMENTO.                                                                                                                                                                                                         01082200000000000000108220000000000000       0090339900009954310409082213000054
100000000000000000000009033990000995400000000000000000000000010002020024558908221P00000000002            2  01245589082208082200000005069030000000001N010822000000000000000000000000000000000000000000000000000000000000000100024558912838EDILENE GORGATTI                        RUA ITARARE - 76 AP.142 - JARDIM GUILHER            11701820                                                            000056
2SR. CAIXA, APOS O VENCIMENTO COBRAR 2% DE MULTA                                 NAO RECEBER APOS 30 DIAS DO VENCIMENTO.                                                                                                                                                                                                         01082200000000000000108220000000000000       009033990000995424558908221P000057
100000000000000000000009033990000995400000000000000000000000010002020004611208221500000000002            2  01046112082208082200000001866610000000001N010822000000000000000000000000000000000000000000000000000000000000000100004611218830TANIA MARIA DA SILVA NUNES PEREIRA LUIZ RODOVIA RAPOSO TAVARES, 7389 KM 17,5 - A            05576200                                                            000059
2SR. CAIXA, APOS O VENCIMENTO COBRAR 2% DE MULTA                                 NAO RECEBER APOS 30 DIAS DO VENCIMENTO.                                                                                                                                                                                                         01082200000000000000108220000000000000       0090339900009954046112082215000060
100000000000000000000009033990000995400000000000000000000000010002020010548808221200000000002            2  01105488082208082200000003316680000000001N010822000000000000000000000000000000000000000000000000000000000000000100010548844801RICARDO DE JESUS CALDAS                 RUA ANTONIO AMBUBA - 50 CASA 60 - BAIRRO            05782370                                                            000062
2SR. CAIXA, APOS O VENCIMENTO COBRAR 2% DE MULTA                                 NAO RECEBER APOS 30 DIAS DO VENCIMENTO.                                                                                                                                                                                                         01082200000000000000108220000000000000       0090339900009954105488082212000063
100000000000000000000009033990000995400000000000000000000000010002020039623808221100000000002            2  01396238082208082200000002914980000000001N010822000000000000000000000000000000000000000000000000000000000000000100039623826826LEONARDO GUEDES PINTO                   RUA URUGUAI - 89 AP.24 - AVIACAO - PRAIA            11702300                                                            000065
2SR. CAIXA, APOS O VENCIMENTO COBRAR 2% DE MULTA                                 NAO RECEBER APOS 30 DIAS DO VENCIMENTO.                                                                                                                                                                                                         01082200000000000000108220000000000000       0090339900009954396238082211000066
100000000000000000000009033990000995400000000000000000000000010002020039558608221000000000002            2  01395586082208082200000002676150000000001N010822000000000000000000000000000000000000000000000000000000000000000100039558638838TAMIRES ROCHA FRANCISCO                 RUA DUARTE DE CARVALHO - 185 AP.102 - BA            03084030                                                            000068
2SR. CAIXA, APOS O VENCIMENTO COBRAR 2% DE MULTA                                 NAO RECEBER APOS 30 DIAS DO VENCIMENTO.                                                                                                                                                                                                         01082200000000000000108220000000000000       0090339900009954395586082210000069
100000000000000000000009033990000995400000000000000000000000010002020032038708221P00000000002            2  01320387082208082200000002177240000000001N010822000000000000000000000000000000000000000000000000000000000000000100032038775893GUSTAVO PEREIRA DA CRUZ                 RUA SAO FIDELIS - 203 - JARDIM BRASIL -             16074050                                                            000071
2SR. CAIXA, APOS O VENCIMENTO COBRAR 2% DE MULTA                                 NAO RECEBER APOS 30 DIAS DO VENCIMENTO.                                                                                                                                                                                                         01082200000000000000108220000000000000       009033990000995432038708221P000072
100000000000000000000009033990000995400000000000000000000000010002020008993108221700000000002            2  01089931082208082200000010275360000000001N010822000000000000000000000000000000000000000000000000000000000000000100008993178801PATRICIA BITTENCOURT FRACARO            RUA MARCIO MAZZEI - 337 - VILA NOVA MAZZ            02316050                                                            000074
2SR. CAIXA, APOS O VENCIMENTO COBRAR 2% DE MULTA                                 NAO RECEBER APOS 30 DIAS DO VENCIMENTO.                                                                                                                                                                                                         01082200000000000000108220000000000000       0090339900009954089931082217000075
100000000000000000000009033990000995400000000000000000000000010002020012955208221P00000000002            2  01129552082208082200000005045670000000001N010822000000000000000000000000000000000000000000000000000000000000000100012955241806MAURO ALVES SILVA                       RUA TRAITUBA - 354 - BAIRRO SAUDE - SAO             04142050                                                            000077
2SR. CAIXA, APOS O VENCIMENTO COBRAR 2% DE MULTA                                 NAO RECEBER APOS 30 DIAS DO VENCIMENTO.                                                                                                                                                                                                         01082200000000000000108220000000000000       009033990000995412955208221P000078
9                                                                                                                                                                                                                                                                                                                                                                                                         000079