01REMESSA01COBRANCA       00000000000005331186H B SANTOS CONSTRUTORA E INCOR237BRADESCO       181120        MX0000010                                                                                                                                                                                                                                                                                     000001
100000000000000000000009033990000995400000000000000000000000010002100002252111201500000000002            2  01022521112019112000000000002000000000001N181120000000000000000000000000000000000000000000000000000000000000000100002252149892AIRES MOTA DOS SANTOS                   AVENIDA BRASIL - 600 - AVIACAO - PRAIA G            11701090                                                            000002
2SR. CAIXA, APOS O VENCIMENTO COBRAR 10% DE MULTA                                NAO RECEBER APOS 30 DIAS DO VENCIMENTO.                                                                                                                                                                                                         18112000000000000001811200000000000000       0090339900009954022521112015000003
9                                                                                                                                                                                                                                                                                                                                                                                                         000004