01REMESSA01COBRANCA       00000000000008017025HB SANTOS CONSTRUTORA E INCORP237BRADESCO       010318        MX0000050                                                                                                                                                                                                                                                                                     000001
100000000000000000000009033990000627000000000000000000000000010002020029671503181600000000002            2  01296715031809031800000002213430000000001N010318000000000000000000000000000000000000000000000000000000000000000100029671526845ROGERIO CONSENTINO                      RUA CARLOS MAZER  - 678 - VILA CARMOSINA            08290700                                                            000002
2SR. CAIXA, APOS O VENCIMENTO COBRAR 2% DE MULTA                                 NAO RECEBER APOS 30 DIAS DO VENCIMENTO.                                                                                                                                                                                                         01031800000000000000103180000000000000       0090339900006270296715031816000003
100000000000000000000009033990000627000000000000000000000000010002020003863003181800000000002            2  01038630031809031800000002090760000000001N010318000000000000000000000000000000000000000000000000000000000000000100003863075803HERALDO MENQUINI                        RUA OCEANICA AMABILE - 346 AP.415 - CIDA            11704420                                                            000005
2SR. CAIXA, APOS O VENCIMENTO COBRAR 2% DE MULTA                                 NAO RECEBER APOS 30 DIAS DO VENCIMENTO.                                                                                                                                                                                                         01031800000000000000103180000000000000       0090339900006270038630031818000006
100000000000000000000009033990000627000000000000000000000000010002020013135203181P00000000002            2  01131352031809031800000002557160000000001N010318000000000000000000000000000000000000000000000000000000000000000100013135261859EDUARDO ZANOLA                          RUA ROLANDO PIETRO BONINI - 46 - JARDIM             09781040                                                            000008
2SR. CAIXA, APOS O VENCIMENTO COBRAR 2% DE MULTA                                 NAO RECEBER APOS 30 DIAS DO VENCIMENTO.                                                                                                                                                                                                         01031800000000000000103180000000000000       009033990000627013135203181P000009
100000000000000000000009033990000627000000000000000000000000010002020029028403181500000000002            2  01290284031809031800000002141790000000001N010318000000000000000000000000000000000000000000000000000000000000000100029028478825LEONARDO LOUZADA                        RUA ILHEUS - QUADRA 31 - 244 - BAIRRO CE            19274000                                                            000011
2SR. CAIXA, APOS O VENCIMENTO COBRAR 2% DE MULTA                                 NAO RECEBER APOS 30 DIAS DO VENCIMENTO.                                                                                                                                                                                                         01031800000000000000103180000000000000       0090339900006270290284031815000012
100000000000000000000009033990000627000000000000000000000000010002020032878503181200000000002            2  01328785031809031800000003095310000000001N010318000000000000000000000000000000000000000000000000000000000000000100032878512847LEONARDO MOURA MONIZ CALDEIRA           RUA BALSA - 682 AP.134 T.02 - VILA ARCAD            02910000                                                            000014
2SR. CAIXA, APOS O VENCIMENTO COBRAR 2% DE MULTA                                 NAO RECEBER APOS 30 DIAS DO VENCIMENTO.                                                                                                                                                                                                         01031800000000000000103180000000000000       0090339900006270328785031812000015
100000000000000000000009033990000627000000000000000000000000010002020016479003181P00000000002            2  01164790031809031800000003292830000000001N010318000000000000000000000000000000000000000000000000000000000000000100016479002806LOURDES PEREIRA DE QUEIROZ SECANECHIA   RUA PAULINO CURSI - 437 - CIDADE SAO MAT            03960060                                                            000017
2SR. CAIXA, APOS O VENCIMENTO COBRAR 2% DE MULTA                                 NAO RECEBER APOS 30 DIAS DO VENCIMENTO.                                                                                                                                                                                                         01031800000000000000103180000000000000       009033990000627016479003181P000018
100000000000000000000009033990000627000000000000000000000000010002020019635003181700000000002            2  01196350031809031800000002429540000000001N010318000000000000000000000000000000000000000000000000000000000000000100019635091885IVAN VIEIRA SILVA                       ABRAO JORGE - 3001 - JARDIM INTEGRACAO -            14405397                                                            000020
2SR. CAIXA, APOS O VENCIMENTO COBRAR 2% DE MULTA                                 NAO RECEBER APOS 30 DIAS DO VENCIMENTO.                                                                                                                                                                                                         01031800000000000000103180000000000000       0090339900006270196350031817000021
100000000000000000000009033990000627000000000000000000000000010002020009361403181700000000002            2  01093614031809031800000002390610000000001N010318000000000000000000000000000000000000000000000000000000000000000100009361471805JOSE BARBOSA DA SILVA                   RUA ALFREDO INACIO TRINDADE  - 60 AP.44             02344100                                                            000023
2SR. CAIXA, APOS O VENCIMENTO COBRAR 2% DE MULTA                                 NAO RECEBER APOS 30 DIAS DO VENCIMENTO.                                                                                                                                                                                                         01031800000000000000103180000000000000       0090339900006270093614031817000024
100000000000000000000009033990000627000000000000000000000000010002020012756903181000000000002            2  01127569031809031800000002063610000000001N010318000000000000000000000000000000000000000000000000000000000000000100012756959812ITAMAR JUVENAL DIAS DA SILVA            RUA ELISEU REINALDO MORAES VIEIRA - 90 A            02858000                                                            000026
2SR. CAIXA, APOS O VENCIMENTO COBRAR 2% DE MULTA                                 NAO RECEBER APOS 30 DIAS DO VENCIMENTO.                                                                                                                                                                                                         01031800000000000000103180000000000000       0090339900006270127569031810000027
100000000000000000000009033990000627000000000000000000000000010002020002731003181800000000002            2  01027310031809031800000002439750000000001N010318000000000000000000000000000000000000000000000000000000000000000100002731042842VALTER CERQUEIRA VILLA NOVA             RUA MACHADO - 106 - VILA AUGUSTA - GUARU            07025210                                                            000029
2SR. CAIXA, APOS O VENCIMENTO COBRAR 2% DE MULTA                                 NAO RECEBER APOS 30 DIAS DO VENCIMENTO.                                                                                                                                                                                                         01031800000000000000103180000000000000       0090339900006270027310031818000030
100000000000000000000009033990000627000000000000000000000000010002020002731003182600000000002            2  01027310031809031800000002439750000000001N010318000000000000000000000000000000000000000000000000000000000000000100002731042842VALTER CERQUEIRA VILLA NOVA             RUA MACHADO - 106 - VILA AUGUSTA - GUARU            07025210                                                            000032
2SR. CAIXA, APOS O VENCIMENTO COBRAR 2% DE MULTA                                 NAO RECEBER APOS 30 DIAS DO VENCIMENTO.                                                                                                                                                                                                         01031800000000000000103180000000000000       0090339900006270027310031826000033
100000000000000000000009033990000627000000000000000000000000010002020028802103181600000000002            2  01288021031809031800000002203060000000001N010318000000000000000000000000000000000000000000000000000000000000000100028802158894ELIEL HENRIQUE ZUZA                     RUA MONTE CASTELO - 262 AP.14 - BAIRRO A            11702720                                                            000035
2SR. CAIXA, APOS O VENCIMENTO COBRAR 2% DE MULTA                                 NAO RECEBER APOS 30 DIAS DO VENCIMENTO.                                                                                                                                                                                                         01031800000000000000103180000000000000       0090339900006270288021031816000036
100000000000000000000009033990000627000000000000000000000000010002020008739103181P00000000002            2  01087391031809031800000002060410000000001N010318000000000000000000000000000000000000000000000000000000000000000100008739150895VANGEVALDO BATISTA SANT ANNA            TRAVESSA TOMAZIN - 02 - ERMELINO MATARAZ            03811125                                                            000038
2SR. CAIXA, APOS O VENCIMENTO COBRAR 2% DE MULTA                                 NAO RECEBER APOS 30 DIAS DO VENCIMENTO.                                                                                                                                                                                                         01031800000000000000103180000000000000       009033990000627008739103181P000039
100000000000000000000009033990000627000000000000000000000000010002020005313703181600000000002            2  01053137031811031800000001839260000000001N010318000000000000000000000000000000000000000000000000000000000000000100005313717863EDIMICIO JOSE DE ARAUJO                 PRACA NICOLAU GERAIGIRE - 680 CA A - JAR            11095110                                                            000041
2SR. CAIXA, APOS O VENCIMENTO COBRAR 2% DE MULTA                                 NAO RECEBER APOS 30 DIAS DO VENCIMENTO.                                                                                                                                                                                                         01031800000000000000103180000000000000       0090339900006270053137031816000042
100000000000000000000009033990000627000000000000000000000000010002020029433603181400000000002            2  01294336031811031800000001766900000000001N010318000000000000000000000000000000000000000000000000000000000000000100029433631897MARIO MUNIZ                             RUA LIBERO BADARO - 1115 - BAIRRO CIDADE            11704070                                                            000044
2SR. CAIXA, APOS O VENCIMENTO COBRAR 2% DE MULTA                                 NAO RECEBER APOS 30 DIAS DO VENCIMENTO.                                                                                                                                                                                                         01031800000000000000103180000000000000       0090339900006270294336031814000045
100000000000000000000009033990000627000000000000000000000000010002020001847203181200000000002            2  01018472031811031800000001626670000000001N010318000000000000000000000000000000000000000000000000000000000000000100001847204864AMERICA CONCEICAO DA SILVA              RUA CAMINHO DO GUARAMAR - 199 AP.11 BLOC            11721050                                                            000047
2SR. CAIXA, APOS O VENCIMENTO COBRAR 2% DE MULTA                                 NAO RECEBER APOS 30 DIAS DO VENCIMENTO.                                                                                                                                                                                                         01031800000000000000103180000000000000       0090339900006270018472031812000048
100000000000000000000009033990000627000000000000000000000000010002020005029803181700000000002            2  01050298031809031800000002103990000000001N010318000000000000000000000000000000000000000000000000000000000000000100005029828885LAURINETE DA CONCEICAO DE NORONHA       RUA MARIA LUCIA DE TOLEDO LEITE MORAES -            04434040                                                            000050
2SR. CAIXA, APOS O VENCIMENTO COBRAR 2% DE MULTA                                 NAO RECEBER APOS 30 DIAS DO VENCIMENTO.                                                                                                                                                                                                         01031800000000000000103180000000000000       0090339900006270050298031817000051
100000000000000000000009033990000627000000000000000000000000010002020027682103181600000000002            2  01276821031811031800000001714860000000001N010318000000000000000000000000000000000000000000000000000000000000000100027682175818ALINE TEIXEIRA                          RUA CRUZEIRO DO SUL - 309 - JARDIM BOM P            06385060                                                            000053
2SR. CAIXA, APOS O VENCIMENTO COBRAR 2% DE MULTA                                 NAO RECEBER APOS 30 DIAS DO VENCIMENTO.                                                                                                                                                                                                         01031800000000000000103180000000000000       0090339900006270276821031816000054
100000000000000000000009033990000627000000000000000000000000010002020013388903181900000000002            2  01133889031811031800000001722460000000001N010318000000000000000000000000000000000000000000000000000000000000000100013388936889NEUTON DE SOUZA RAMOS                   RUA MARIA CRISTINA - 932 - JARDIM CASQUE            11533160                                                            000056
2SR. CAIXA, APOS O VENCIMENTO COBRAR 2% DE MULTA                                 NAO RECEBER APOS 30 DIAS DO VENCIMENTO.                                                                                                                                                                                                         01031800000000000000103180000000000000       0090339900006270133889031819000057
100000000000000000000009033990000627000000000000000000000000010002020012774903181900000000002            2  01127749031811031800000001754780000000001N010318000000000000000000000000000000000000000000000000000000000000000100012774906865JOSE MILTON SANTIAGO                    RUA BATATAIS - 47 - CIDADE ESTELA - POA             08563140                                                            000059
2SR. CAIXA, APOS O VENCIMENTO COBRAR 2% DE MULTA                                 NAO RECEBER APOS 30 DIAS DO VENCIMENTO.                                                                                                                                                                                                         01031800000000000000103180000000000000       0090339900006270127749031819000060
100000000000000000000009033990000627000000000000000000000000010002020004234903181400000000002            2  01042349031809031800000003066040000000001N010318000000000000000000000000000000000000000000000000000000000000000100004234989835LUIZ ISRAEL DA COSTA                    AVENIDA FERNANDO PACHECO JORDAO - 907 -             08121510                                                            000062
2SR. CAIXA, APOS O VENCIMENTO COBRAR 2% DE MULTA                                 NAO RECEBER APOS 30 DIAS DO VENCIMENTO.                                                                                                                                                                                                         01031800000000000000103180000000000000       0090339900006270042349031814000063
100000000000000000000009033990000627000000000000000000000000010002020016294103181400000000002            2  01162941031809031800000002088900000000001N010318000000000000000000000000000000000000000000000000000000000000000100016294119812JURACY FELIX DE ARRUDA                  RUA ERNA - 13 - ALTO DA MOOCA - SAO PAUL            03165050                                                            000065
2SR. CAIXA, APOS O VENCIMENTO COBRAR 2% DE MULTA                                 NAO RECEBER APOS 30 DIAS DO VENCIMENTO.                                                                                                                                                                                                         01031800000000000000103180000000000000       0090339900006270162941031814000066
100000000000000000000009033990000627000000000000000000000000010002020005613803181900000000002            2  01056138031811031800000001613930000000001N010318000000000000000000000000000000000000000000000000000000000000000100005613843805NILZA MARIA DE OLIVEIRA                 RUA JOSE GONCALVES DE FREITAS - 66 C2 -             08210550                                                            000068
2SR. CAIXA, APOS O VENCIMENTO COBRAR 2% DE MULTA                                 NAO RECEBER APOS 30 DIAS DO VENCIMENTO.                                                                                                                                                                                                         01031800000000000000103180000000000000       0090339900006270056138031819000069
100000000000000000000009033990000627000000000000000000000000010002020007574903181900000000002            2  01075749031811031800000001656660000000001N010318000000000000000000000000000000000000000000000000000000000000000100007574936889JORGE LUCIANO PEREIRA BORRIELLO         RUA FABIO DE ALMEIDA MAGALHAES - 179 - J            05135370                                                            000071
2SR. CAIXA, APOS O VENCIMENTO COBRAR 2% DE MULTA                                 NAO RECEBER APOS 30 DIAS DO VENCIMENTO.                                                                                                                                                                                                         01031800000000000000103180000000000000       0090339900006270075749031819000072
100000000000000000000009033990000627000000000000000000000000010002020032408103181100000000002            2  01324081031811031800000001561870000000001N010318000000000000000000000000000000000000000000000000000000000000000100032408151848DEILSON DO NASCIMENTO CANDIDO DA SILVA  RUA HEREMITA SANTA DO NASCIMENTO - 37 AP            11345340                                                            000074
2SR. CAIXA, APOS O VENCIMENTO COBRAR 2% DE MULTA                                 NAO RECEBER APOS 30 DIAS DO VENCIMENTO.                                                                                                                                                                                                         01031800000000000000103180000000000000       0090339900006270324081031811000075
100000000000000000000009033990000627000000000000000000000000010002020008214903181100000000002            2  01082149031811031800000001681800000000001N010318000000000000000000000000000000000000000000000000000000000000000100008214973830JAMIL CHALA                             AVENIDA COSTA MACHADO - 291 AP.133-A - C            11700650                                                            000077
2SR. CAIXA, APOS O VENCIMENTO COBRAR 2% DE MULTA                                 NAO RECEBER APOS 30 DIAS DO VENCIMENTO.                                                                                                                                                                                                         01031800000000000000103180000000000000       0090339900006270082149031811000078
100000000000000000000009033990000627000000000000000000000000010002020032495003181900000000002            2  01324950031811031800000001884670000000001N010318000000000000000000000000000000000000000000000000000000000000000100032495004881PAULO EDUARDO DOS SANTOS                RUA REPUBLICA DO IRAQUE - 1119 - CAMPO B            04611002                                                            000080
2SR. CAIXA, APOS O VENCIMENTO COBRAR 2% DE MULTA                                 NAO RECEBER APOS 30 DIAS DO VENCIMENTO.                                                                                                                                                                                                         01031800000000000000103180000000000000       0090339900006270324950031819000081
100000000000000000000009033990000627000000000000000000000000010002020006471803181900000000002            2  01064718031809031800000002056580000000001N010318000000000000000000000000000000000000000000000000000000000000000100006471825803JOSIVALDO BASTOS DE OLIVEIRA            RUA MARIA DIAS HOG - 263 - PARQUE CONTIN            07085035                                                            000083
2SR. CAIXA, APOS O VENCIMENTO COBRAR 2% DE MULTA                                 NAO RECEBER APOS 30 DIAS DO VENCIMENTO.                                                                                                                                                                                                         01031800000000000000103180000000000000       0090339900006270064718031819000084
100000000000000000000009033990000627000000000000000000000000010002020038856803181500000000002            2  01388568031811031800000001747130000000001N010318000000000000000000000000000000000000000000000000000000000000000100038856851830FELIPE BIANCHI DA COSTA FREITAS         AVENIDA ENGENHEIRO ARMANDO DE ARRUDA PER            04325001                                                            000086
2SR. CAIXA, APOS O VENCIMENTO COBRAR 2% DE MULTA                                 NAO RECEBER APOS 30 DIAS DO VENCIMENTO.                                                                                                                                                                                                         01031800000000000000103180000000000000       0090339900006270388568031815000087
100000000000000000000009033990000627000000000000000000000000010002020016498003181600000000002            2  01164980031811031800000001652890000000001N010318000000000000000000000000000000000000000000000000000000000000000100016498053810GILMA CEZARIO GARCIA CORRITORI          RUA LAURENTINO XAVIER DOS SANTOS - 336 -            08240740                                                            000089
2SR. CAIXA, APOS O VENCIMENTO COBRAR 2% DE MULTA                                 NAO RECEBER APOS 30 DIAS DO VENCIMENTO.                                                                                                                                                                                                         01031800000000000000103180000000000000       0090339900006270164980031816000090
100000000000000000000009033990000627000000000000000000000000010002020030098603181900000000002            2  01300986031811031800000001774530000000001N010318000000000000000000000000000000000000000000000000000000000000000100030098603825DEUZIANA MOREIRA DE SA                  RUA JOAO AVELINO PINHO MELLAO - 114 - JA            05659010                                                            000092
2SR. CAIXA, APOS O VENCIMENTO COBRAR 2% DE MULTA                                 NAO RECEBER APOS 30 DIAS DO VENCIMENTO.                                                                                                                                                                                                         01031800000000000000103180000000000000       0090339900006270300986031819000093
100000000000000000000009033990000627000000000000000000000000010002020030098603182700000000002            2  01300986031811031800000001774530000000001N010318000000000000000000000000000000000000000000000000000000000000000100030098603825DEUZIANA MOREIRA DE SA                  RUA JOAO AVELINO PINHO MELLAO - 114 - JA            05659010                                                            000095
2SR. CAIXA, APOS O VENCIMENTO COBRAR 2% DE MULTA                                 NAO RECEBER APOS 30 DIAS DO VENCIMENTO.                                                                                                                                                                                                         01031800000000000000103180000000000000       0090339900006270300986031827000096
100000000000000000000009033990000627000000000000000000000000010002020029339003181500000000002            2  01293390031811031800000001767490000000001N010318000000000000000000000000000000000000000000000000000000000000000100029339051831RONALD DIDOFF                           RUA CORONEL FERREIRA BRAGA - 188 - VILA             03522010                                                            000098
2SR. CAIXA, APOS O VENCIMENTO COBRAR 2% DE MULTA                                 NAO RECEBER APOS 30 DIAS DO VENCIMENTO.                                                                                                                                                                                                         01031800000000000000103180000000000000       0090339900006270293390031815000099
100000000000000000000009033990000627000000000000000000000000010002020017357803181700000000002            2  01173578031811031800000001871930000000001N010318000000000000000000000000000000000000000000000000000000000000000100017357859894MARCIO GUIMARAES                        RUA GENERAL CAMARA - 188 SALA 11 - CENTR            11010120                                                            000101
2SR. CAIXA, APOS O VENCIMENTO COBRAR 2% DE MULTA                                 NAO RECEBER APOS 30 DIAS DO VENCIMENTO.                                                                                                                                                                                                         01031800000000000000103180000000000000       0090339900006270173578031817000102
100000000000000000000009033990000627000000000000000000000000010002020010563003181700000000002            2  01105630031811031800000001919780000000001N010318000000000000000000000000000000000000000000000000000000000000000100010563033878VERA LUCIA RIBEIRO LONGANEZI            RUA DOS CAMARES - 150 AP.24 BL.02 - CARA            02068030                                                            000104
2SR. CAIXA, APOS O VENCIMENTO COBRAR 2% DE MULTA                                 NAO RECEBER APOS 30 DIAS DO VENCIMENTO.                                                                                                                                                                                                         01031800000000000000103180000000000000       0090339900006270105630031817000105
100000000000000000000009033990000627000000000000000000000000010002020005529603181100000000002            2  01055296031811031800000001742120000000001N010318000000000000000000000000000000000000000000000000000000000000000100005529616801JOAQUIM JORGE DA COSTA                  RUA CONEGO XAVIER - 13 - SACOMA - SAO PA            04231030                                                            000107
2SR. CAIXA, APOS O VENCIMENTO COBRAR 2% DE MULTA                                 NAO RECEBER APOS 30 DIAS DO VENCIMENTO.                                                                                                                                                                                                         01031800000000000000103180000000000000       0090339900006270055296031811000108
100000000000000000000009033990000627000000000000000000000000010002020022014103181600000000002            2  01220141031811031800000001737050000000001N010318000000000000000000000000000000000000000000000000000000000000000100022014140847CAMILA SILVEIRA CANIZARES               AVENIDA PRESIDENTE CASTELO BRANCO - 5.74            11703650                                                            000110
2SR. CAIXA, APOS O VENCIMENTO COBRAR 2% DE MULTA                                 NAO RECEBER APOS 30 DIAS DO VENCIMENTO.                                                                                                                                                                                                         01031800000000000000103180000000000000       0090339900006270220141031816000111
100000000000000000000009033990000627000000000000000000000000010002020015550703181800000000002            2  01155507031809031800000001594820000000001N010318000000000000000000000000000000000000000000000000000000000000000100015550706806MARY MIWA                               AVENIDA AFONSO PENA - 283 AP.33 - MACUCO            11020001                                                            000113
2SR. CAIXA, APOS O VENCIMENTO COBRAR 2% DE MULTA                                 NAO RECEBER APOS 30 DIAS DO VENCIMENTO.                                                                                                                                                                                                         01031800000000000000103180000000000000       0090339900006270155507031818000114
9                                                                                                                                                                                                                                                                                                                                                                                                         000115