01REMESSA01COBRANCA       00000000000008017025HB SANTOS CONSTRUTORA E INCORP237BRADESCO       010421        MX0000125                                                                                                                                                                                                                                                                                     000001
100000000000000000000009033990000627000000000000000000000000010002020029028404211600000000002            2  01290284042109042100000002823840000000001N010421000000000000000000000000000000000000000000000000000000000000000100029028478825LEONARDO LOUZADA                        RUA CARLOS JOSE BORSTENS - 50 AP.35 - AV            11702750                                                            000002
2SR. CAIXA, APOS O VENCIMENTO COBRAR 2% DE MULTA                                 NAO RECEBER APOS 30 DIAS DO VENCIMENTO.                                                                                                                                                                                                         01042100000000000000104210000000000000       0090339900006270290284042116000003
100000000000000000000009033990000627000000000000000000000000010002020032878504211300000000002            2  01328785042109042100000004081030000000001N010421000000000000000000000000000000000000000000000000000000000000000100032878512847LEONARDO MOURA MONIZ CALDEIRA           RUA BALSA - 682 AP.134 T.02 - VILA ARCAD            02910000                                                            000005
2SR. CAIXA, APOS O VENCIMENTO COBRAR 2% DE MULTA                                 NAO RECEBER APOS 30 DIAS DO VENCIMENTO.                                                                                                                                                                                                         01042100000000000000104210000000000000       0090339900006270328785042113000006
100000000000000000000009033990000627000000000000000000000000010002020016479004211000000000002            2  01164790042109042100000004341480000000001N010421000000000000000000000000000000000000000000000000000000000000000100016479002806LOURDES PEREIRA DE QUEIROZ SECANECHIA   RUA PAULINO CURSI - 437 - CIDADE SAO MAT            03960060                                                            000008
2SR. CAIXA, APOS O VENCIMENTO COBRAR 2% DE MULTA                                 NAO RECEBER APOS 30 DIAS DO VENCIMENTO.                                                                                                                                                                                                         01042100000000000000104210000000000000       0090339900006270164790042110000009
100000000000000000000009033990000627000000000000000000000000010002020019635004211800000000002            2  01196350042109042100000003203250000000001N010421000000000000000000000000000000000000000000000000000000000000000100019635091885IVAN VIEIRA SILVA                       ABRAO JORGE - 3001 - JARDIM INTEGRACAO -            14405397                                                            000011
2SR. CAIXA, APOS O VENCIMENTO COBRAR 2% DE MULTA                                 NAO RECEBER APOS 30 DIAS DO VENCIMENTO.                                                                                                                                                                                                         01042100000000000000104210000000000000       0090339900006270196350042118000012
100000000000000000000009033990000627000000000000000000000000010002020009361404211800000000002            2  01093614042109042100000003151910000000001N010421000000000000000000000000000000000000000000000000000000000000000100009361471805JOSE BARBOSA DA SILVA                   RUA ALFREDO INACIO TRINDADE  - 60 AP.44             02344100                                                            000014
2SR. CAIXA, APOS O VENCIMENTO COBRAR 2% DE MULTA                                 NAO RECEBER APOS 30 DIAS DO VENCIMENTO.                                                                                                                                                                                                         01042100000000000000104210000000000000       0090339900006270093614042118000015
100000000000000000000009033990000627000000000000000000000000010002020012756904211100000000002            2  01127569042109042100000002720810000000001N010421000000000000000000000000000000000000000000000000000000000000000100012756959812ITAMAR JUVENAL DIAS DA SILVA            RUA ELISEU REINALDO MORAES VIEIRA - 90 A            02858000                                                            000017
2SR. CAIXA, APOS O VENCIMENTO COBRAR 2% DE MULTA                                 NAO RECEBER APOS 30 DIAS DO VENCIMENTO.                                                                                                                                                                                                         01042100000000000000104210000000000000       0090339900006270127569042111000018
100000000000000000000009033990000627000000000000000000000000010002020028802104211700000000002            2  01288021042109042100000002904620000000001N010421000000000000000000000000000000000000000000000000000000000000000100028802158894ELIEL HENRIQUE ZUZA                     RUA CARLOS JOSE BORSTENS - 50 AP.43 - BA            11702750                                                            000020
2SR. CAIXA, APOS O VENCIMENTO COBRAR 2% DE MULTA                                 NAO RECEBER APOS 30 DIAS DO VENCIMENTO.                                                                                                                                                                                                         01042100000000000000104210000000000000       0090339900006270288021042117000021
100000000000000000000009033990000627000000000000000000000000010002020005313704211700000000002            2  01053137042111042100000002347920000000001N010421000000000000000000000000000000000000000000000000000000000000000100005313717863EDIMICIO JOSE DE ARAUJO                 RUA JOSE CALIXTO DO CARMO - 286 AP.101 -            11702690                                                            000023
2SR. CAIXA, APOS O VENCIMENTO COBRAR 2% DE MULTA                                 NAO RECEBER APOS 30 DIAS DO VENCIMENTO.                                                                                                                                                                                                         01042100000000000000104210000000000000       0090339900006270053137042117000024
100000000000000000000009033990000627000000000000000000000000010002020029433604211500000000002            2  01294336042111042100000002255570000000001N010421000000000000000000000000000000000000000000000000000000000000000100029433631897MARIO MUNIZ                             RUA JOSE CALIXTO DO CARMO - 286 AP.53 -             11702690                                                            000026
2SR. CAIXA, APOS O VENCIMENTO COBRAR 2% DE MULTA                                 NAO RECEBER APOS 30 DIAS DO VENCIMENTO.                                                                                                                                                                                                         01042100000000000000104210000000000000       0090339900006270294336042115000027
100000000000000000000009033990000627000000000000000000000000010002020005029804211800000000002            2  01050298042109042100000002774010000000001N010421000000000000000000000000000000000000000000000000000000000000000100005029828885LAURINETE DA CONCEICAO DE NORONHA       RUA MARIA LUCIA DE TOLEDO LEITE MORAES -            04434040                                                            000029
2SR. CAIXA, APOS O VENCIMENTO COBRAR 2% DE MULTA                                 NAO RECEBER APOS 30 DIAS DO VENCIMENTO.                                                                                                                                                                                                         01042100000000000000104210000000000000       0090339900006270050298042118000030
100000000000000000000009033990000627000000000000000000000000010002020013388904211P00000000002            2  01133889042111042100000002198820000000001N010421000000000000000000000000000000000000000000000000000000000000000100013388936889NEUTON DE SOUZA RAMOS                   RUA MARIA CRISTINA - 932 - JARDIM CASQUE            11533160                                                            000032
2SR. CAIXA, APOS O VENCIMENTO COBRAR 2% DE MULTA                                 NAO RECEBER APOS 30 DIAS DO VENCIMENTO.                                                                                                                                                                                                         01042100000000000000104210000000000000       009033990000627013388904211P000033
100000000000000000000009033990000627000000000000000000000000010002020012774904211P00000000002            2  01127749042111042100000002240110000000001N010421000000000000000000000000000000000000000000000000000000000000000100012774906865JOSE MILTON SANTIAGO                    RUA BATATAIS - 47 - CIDADE ESTELA - POA             08563140                                                            000035
2SR. CAIXA, APOS O VENCIMENTO COBRAR 2% DE MULTA                                 NAO RECEBER APOS 30 DIAS DO VENCIMENTO.                                                                                                                                                                                                         01042100000000000000104210000000000000       009033990000627012774904211P000036
100000000000000000000009033990000627000000000000000000000000010002020016294104211500000000002            2  01162941042109042100000002754120000000001N010421000000000000000000000000000000000000000000000000000000000000000100016294119812JURACY FELIX DE ARRUDA                  RUA CARLOS JOSE BORSTENS - 50 AP.23 - AV            11702750                                                            000038
2SR. CAIXA, APOS O VENCIMENTO COBRAR 2% DE MULTA                                 NAO RECEBER APOS 30 DIAS DO VENCIMENTO.                                                                                                                                                                                                         01042100000000000000104210000000000000       0090339900006270162941042115000039
100000000000000000000009033990000627000000000000000000000000010002020005613804211P00000000002            2  01056138042111042100000002060280000000001N010421000000000000000000000000000000000000000000000000000000000000000100005613843805NILZA MARIA DE OLIVEIRA                 RUA JOSE GONCALVES DE FREITAS - 66 C2 -             08210550                                                            000041
2SR. CAIXA, APOS O VENCIMENTO COBRAR 2% DE MULTA                                 NAO RECEBER APOS 30 DIAS DO VENCIMENTO.                                                                                                                                                                                                         01042100000000000000104210000000000000       009033990000627005613804211P000042
100000000000000000000009033990000627000000000000000000000000010002020007574904211P00000000002            2  01075749042111042100000002114820000000001N010421000000000000000000000000000000000000000000000000000000000000000100007574936889JORGE LUCIANO PEREIRA BORRIELLO         RUA JOSE CALIXTO DO CARMO - 286 AP.54 -             11702690                                                            000044
2SR. CAIXA, APOS O VENCIMENTO COBRAR 2% DE MULTA                                 NAO RECEBER APOS 30 DIAS DO VENCIMENTO.                                                                                                                                                                                                         01042100000000000000104210000000000000       009033990000627007574904211P000045
100000000000000000000009033990000627000000000000000000000000010002020008214904211200000000002            2  01082149042111042100000002146900000000001N010421000000000000000000000000000000000000000000000000000000000000000100008214973830JAMIL CHALA                             RUA JOSE CALIXTO DO CARMO - 286 AP.22 -             11702690                                                            000047
2SR. CAIXA, APOS O VENCIMENTO COBRAR 2% DE MULTA                                 NAO RECEBER APOS 30 DIAS DO VENCIMENTO.                                                                                                                                                                                                         01042100000000000000104210000000000000       0090339900006270082149042112000048
100000000000000000000009033990000627000000000000000000000000010002020032495004211P00000000002            2  01324950042111042100000002405880000000001N010421000000000000000000000000000000000000000000000000000000000000000100032495004881PAULO EDUARDO DOS SANTOS                RUA REPUBLICA DO IRAQUE - 1119 - CAMPO B            04611002                                                            000050
2SR. CAIXA, APOS O VENCIMENTO COBRAR 2% DE MULTA                                 NAO RECEBER APOS 30 DIAS DO VENCIMENTO.                                                                                                                                                                                                         01042100000000000000104210000000000000       009033990000627032495004211P000051
100000000000000000000009033990000627000000000000000000000000010002020016498004211700000000002            2  01164980042111042100000002110030000000001N010421000000000000000000000000000000000000000000000000000000000000000100016498053810GILMA CEZARIO GARCIA CORRITORI          RUA LAURENTINO XAVIER DOS SANTOS - 336 -            08240740                                                            000053
2SR. CAIXA, APOS O VENCIMENTO COBRAR 2% DE MULTA                                 NAO RECEBER APOS 30 DIAS DO VENCIMENTO.                                                                                                                                                                                                         01042100000000000000104210000000000000       0090339900006270164980042117000054
100000000000000000000009033990000627000000000000000000000000010002020029339004211600000000002            2  01293390042111042100000002256300000000001N010421000000000000000000000000000000000000000000000000000000000000000100029339051831RONALD DIDOFF                           RUA CORONEL FERREIRA BRAGA - 188 - VILA             03522010                                                            000056
2SR. CAIXA, APOS O VENCIMENTO COBRAR 2% DE MULTA                                 NAO RECEBER APOS 30 DIAS DO VENCIMENTO.                                                                                                                                                                                                         01042100000000000000104210000000000000       0090339900006270293390042116000057
100000000000000000000009033990000627000000000000000000000000010002020017357804211800000000002            2  01173578042111042100000002389630000000001N010421000000000000000000000000000000000000000000000000000000000000000100017357859894MARCIO GUIMARAES                        RUA GENERAL CAMARA - 188 SALA 11 - CENTR            11010120                                                            000059
2SR. CAIXA, APOS O VENCIMENTO COBRAR 2% DE MULTA                                 NAO RECEBER APOS 30 DIAS DO VENCIMENTO.                                                                                                                                                                                                         01042100000000000000104210000000000000       0090339900006270173578042118000060
100000000000000000000009033990000627000000000000000000000000010002020010563004211800000000002            2  01105630042111042100000002450690000000001N010421000000000000000000000000000000000000000000000000000000000000000100010563033878VERA LUCIA RIBEIRO LONGANEZI            RUA DOS CAMARES - 150 AP.24 BL.02 - CARA            02068030                                                            000062
2SR. CAIXA, APOS O VENCIMENTO COBRAR 2% DE MULTA                                 NAO RECEBER APOS 30 DIAS DO VENCIMENTO.                                                                                                                                                                                                         01042100000000000000104210000000000000       0090339900006270105630042118000063
100000000000000000000009033990000627000000000000000000000000010002020005529604211200000000002            2  01055296042111042100000002223930000000001N010421000000000000000000000000000000000000000000000000000000000000000100005529616801JOAQUIM JORGE DA COSTA                  RUA JOSE CALIXTO DO CARMO - 286 AP.106 -            11702690                                                            000065
2SR. CAIXA, APOS O VENCIMENTO COBRAR 2% DE MULTA                                 NAO RECEBER APOS 30 DIAS DO VENCIMENTO.                                                                                                                                                                                                         01042100000000000000104210000000000000       0090339900006270055296042112000066
100000000000000000000009033990000627000000000000000000000000010002020022014104211700000000002            2  01220141042111042100000002217440000000001N010421000000000000000000000000000000000000000000000000000000000000000100022014140847CAMILA SILVEIRA CANIZARES               AVENIDA PRESIDENTE CASTELO BRANCO - 5.74            11703650                                                            000068
2SR. CAIXA, APOS O VENCIMENTO COBRAR 2% DE MULTA                                 NAO RECEBER APOS 30 DIAS DO VENCIMENTO.                                                                                                                                                                                                         01042100000000000000104210000000000000       0090339900006270220141042117000069
100000000000000000000009033990000627000000000000000000000000010002020015550704211900000000002            2  01155507042109042100000002102700000000001N010421000000000000000000000000000000000000000000000000000000000000000100015550706806MARY MIWA                               RUA CARLOS JOSE BORSTENS - 50 AP.105 - A            11702750                                                            000071
2SR. CAIXA, APOS O VENCIMENTO COBRAR 2% DE MULTA                                 NAO RECEBER APOS 30 DIAS DO VENCIMENTO.                                                                                                                                                                                                         01042100000000000000104210000000000000       0090339900006270155507042119000072
100000000000000000000009033990000627000000000000000000000000010002020015464604211900000000002            2  01154646042111042100000002337880000000001N010421000000000000000000000000000000000000000000000000000000000000000100015464647864SONIA TERESA VOLPATO                    RUA JOSE CALIXTO DO CARMO - 286 AP.73 -             11702690                                                            000074
2SR. CAIXA, APOS O VENCIMENTO COBRAR 2% DE MULTA                                 NAO RECEBER APOS 30 DIAS DO VENCIMENTO.                                                                                                                                                                                                         01042100000000000000104210000000000000       0090339900006270154646042119000075
100000000000000000000009033990000627000000000000000000000000010002020008657804211800000000002            2  01086578042111042100000002314410000000001N010421000000000000000000000000000000000000000000000000000000000000000100008657886855ARLINDO DA CRUZ                         AVENIDA ARICANDUVA - 8.256 AP.54 BL.10 -            03951220                                                            000077
2SR. CAIXA, APOS O VENCIMENTO COBRAR 2% DE MULTA                                 NAO RECEBER APOS 30 DIAS DO VENCIMENTO.                                                                                                                                                                                                         01042100000000000000104210000000000000       0090339900006270086578042118000078
100000000000000000000009033990000627000000000000000000000000010002020004265704211800000000002            2  01042657042109042100000003098250000000001N010421000000000000000000000000000000000000000000000000000000000000000100004265781713ALEXANDRE CASADO COSTA                  RUA CARLOS JOSE BORSTENS - 50 AP.33 - AV            11702750                                                            000080
2SR. CAIXA, APOS O VENCIMENTO COBRAR 2% DE MULTA                                 NAO RECEBER APOS 30 DIAS DO VENCIMENTO.                                                                                                                                                                                                         01042100000000000000104210000000000000       0090339900006270042657042118000081
100000000000000000000009033990000627000000000000000000000000010002020059735104211600000000002            2  01597351042109042100000001308640000000001N010421000000000000000000000000000000000000000000000000000000000000000100059735180863HELIO JOSE MARQUES                      RUA MARTIM AFONSO DE SOUZA - 1007 AP.102            11702790                                                            000083
2SR. CAIXA, APOS O VENCIMENTO COBRAR 2% DE MULTA                                 NAO RECEBER APOS 30 DIAS DO VENCIMENTO.                                                                                                                                                                                                         01042100000000000000104210000000000000       0090339900006270597351042116000084
100000000000000000000009033990000627000000000000000000000000010002020026347804211P00000000002            2  01263478042111042100000002474040000000001N010421000000000000000000000000000000000000000000000000000000000000000100026347872862VALDECI SILVA MEIRELES                  RUA JOSE BATISTA DA SILVA - 292 - JARDIM            06851470                                                            000086
2SR. CAIXA, APOS O VENCIMENTO COBRAR 2% DE MULTA                                 NAO RECEBER APOS 30 DIAS DO VENCIMENTO.                                                                                                                                                                                                         01042100000000000000104210000000000000       009033990000627026347804211P000087
100000000000000000000009033990000627000000000000000000000000010002020025443604211000000000002            2  01254436042109042100000004481820000000001N010421000000000000000000000000000000000000000000000000000000000000000100025443691830SILVANETE PEREIRA CARNELOS              RUA CARLOS JOSE BORSTENS - 50 AP.102 - A            11702750                                                            000089
2SR. CAIXA, APOS O VENCIMENTO COBRAR 2% DE MULTA                                 NAO RECEBER APOS 30 DIAS DO VENCIMENTO.                                                                                                                                                                                                         01042100000000000000104210000000000000       0090339900006270254436042110000090
100000000000000000000009033990000627000000000000000000000000010002020013135204211000000000002            2  01131352042111042100000002273030000000001N010421000000000000000000000000000000000000000000000000000000000000000100013135261859EDUARDO ZANOLA                          RUA ROLANDO PIETRO BONINI - 46 - JARDIM             09781040                                                            000092
2SR. CAIXA, APOS O VENCIMENTO COBRAR 2% DE MULTA                                 NAO RECEBER APOS 30 DIAS DO VENCIMENTO.                                                                                                                                                                                                         01042100000000000000104210000000000000       0090339900006270131352042110000093
100000000000000000000009033990000627000000000000000000000000010002020009797604211100000000002            2  01097976042111042100000002213690000000001N010421000000000000000000000000000000000000000000000000000000000000000100009797626857RICARDO SOBRAL DE OLIVEIRA              RUA 23 DE MAIO - 139 AP.32 - VILA MIRIM             11704690                                                            000095
2SR. CAIXA, APOS O VENCIMENTO COBRAR 2% DE MULTA                                 NAO RECEBER APOS 30 DIAS DO VENCIMENTO.                                                                                                                                                                                                         01042100000000000000104210000000000000       0090339900006270097976042111000096
100000000000000000000009033990000627000000000000000000000000010002020004767604211200000000002            2  01047676042109042100000003785370000000001N010421000000000000000000000000000000000000000000000000000000000000000100004767679893ORLANDO GRANDE FILHO                    RUA ORLANDO MIGLIARI - 101 - JARDIM OURO            19906140                                                            000098
2SR. CAIXA, APOS O VENCIMENTO COBRAR 2% DE MULTA                                 NAO RECEBER APOS 30 DIAS DO VENCIMENTO.                                                                                                                                                                                                         01042100000000000000104210000000000000       0090339900006270047676042112000099
100000000000000000000009033990000627000000000000000000000000010002020006512504211P00000000002            2  01065125042111042100000001991310000000001N010421000000000000000000000000000000000000000000000000000000000000000100006512547870MARIA DO CARMO FAGUNDES DOS REIS        RUA CARLOS MALCHER - 98 - PARQUE EDU CHA            02232020                                                            000101
2SR. CAIXA, APOS O VENCIMENTO COBRAR 2% DE MULTA                                 NAO RECEBER APOS 30 DIAS DO VENCIMENTO.                                                                                                                                                                                                         01042100000000000000104210000000000000       009033990000627006512504211P000102
100000000000000000000009033990000627000000000000000000000000010002020022728404211200000000002            2  01227284042111042100000002395360000000001N010421000000000000000000000000000000000000000000000000000000000000000100022728497842WILLIAN DE SOUZA MELLO                  RUA JOSE CALIXTO DO CARMO - 286 AP.111 -            11702690                                                            000104
2SR. CAIXA, APOS O VENCIMENTO COBRAR 2% DE MULTA                                 NAO RECEBER APOS 30 DIAS DO VENCIMENTO.                                                                                                                                                                                                         01042100000000000000104210000000000000       0090339900006270227284042112000105
100000000000000000000009033990000627000000000000000000000000010002020016909704211700000000002            2  01169097042111042100000002116740000000001N010421000000000000000000000000000000000000000000000000000000000000000100016909746805EDIVALDO SANTANA DOS SANTOS             ESTRADA JOAO GASPAR DELGADO - 80 AP.213             08536100                                                            000107
2SR. CAIXA, APOS O VENCIMENTO COBRAR 2% DE MULTA                                 NAO RECEBER APOS 30 DIAS DO VENCIMENTO.                                                                                                                                                                                                         01042100000000000000104210000000000000       0090339900006270169097042117000108
100000000000000000000009033990000627000000000000000000000000010002020022036004211400000000002            2  01220360042109042100000003287090000000001N010421000000000000000000000000000000000000000000000000000000000000000100022036003818DERLIS TERAN QUIROGA ROGATO             RUA JOAO RIBEIRO - 709 AP.61 - CAMPESTRE            09070250                                                            000110
2SR. CAIXA, APOS O VENCIMENTO COBRAR 2% DE MULTA                                 NAO RECEBER APOS 30 DIAS DO VENCIMENTO.                                                                                                                                                                                                         01042100000000000000104210000000000000       0090339900006270220360042114000111
100000000000000000000009033990000627000000000000000000000000010002020017229704213900000000002            2  01172297042109042100000003172340000000001N010421000000000000000000000000000000000000000000000000000000000000000100017229751802BERENICE VIEIRA KERSTING                RUA ATIBAIA - 17 AP.417 - BAIRRO IMPERAD            11707380                                                            000113
2SR. CAIXA, APOS O VENCIMENTO COBRAR 2% DE MULTA                                 NAO RECEBER APOS 30 DIAS DO VENCIMENTO.                                                                                                                                                                                                         01042100000000000000104210000000000000       0090339900006270172297042139000114
100000000000000000000009033990000627000000000000000000000000010002020012475604211800000000002            2  01124756042111042100000002294430000000001N010421000000000000000000000000000000000000000000000000000000000000000100012475663820CELIDALVA GOES DE CARVALHO              RUA JOSE CALIXTO DO CARMO - 286 AP.91 -             11702690                                                            000116
2SR. CAIXA, APOS O VENCIMENTO COBRAR 2% DE MULTA                                 NAO RECEBER APOS 30 DIAS DO VENCIMENTO.                                                                                                                                                                                                         01042100000000000000104210000000000000       0090339900006270124756042118000117
100000000000000000000009033990000627000000000000000000000000010002020033451604211500000000002            2  01334516042111042100000001915990000000001N010421000000000000000000000000000000000000000000000000000000000000000100033451620839ARAO ELISIARIO  NUNES                   RUA JOSE CALIXTO DO CARMO - 286 AP.64 -             11702690                                                            000119
2SR. CAIXA, APOS O VENCIMENTO COBRAR 2% DE MULTA                                 NAO RECEBER APOS 30 DIAS DO VENCIMENTO.                                                                                                                                                                                                         01042100000000000000104210000000000000       0090339900006270334516042115000120
100000000000000000000009033990000627000000000000000000000000010002020095758204211500000000002            2  01957582042111042100000002330110000000001N010421000000000000000000000000000000000000000000000000000000000000000100095758275891SHIRLEY TUNES ASTOLFI                   RUA GUAPERUVU - 656 AP.84 - VILA ARICAND            03504010                                                            000122
2SR. CAIXA, APOS O VENCIMENTO COBRAR 2% DE MULTA                                 NAO RECEBER APOS 30 DIAS DO VENCIMENTO.                                                                                                                                                                                                         01042100000000000000104210000000000000       0090339900006270957582042115000123
100000000000000000000009033990000627000000000000000000000000010002020045839204211200000000002            2  01458392042111042100000001487160000000001N010421000000000000000000000000000000000000000000000000000000000000000100045839263834LEONARDO ANTONIO CONCELLIERI            RUA JOSE CALIXTO DO CARMO - 286 AP.51 -             11702690                                                            000125
2SR. CAIXA, APOS O VENCIMENTO COBRAR 2% DE MULTA                                 NAO RECEBER APOS 30 DIAS DO VENCIMENTO.                                                                                                                                                                                                         01042100000000000000104210000000000000       0090339900006270458392042112000126
100000000000000000000009033990000627000000000000000000000000010002020011369104211300000000002            2  01113691042111042100000002093000000000001N010421000000000000000000000000000000000000000000000000000000000000000100011369165803ELIANA CORREA DE OLIVEIRA               RUA MAESTRO ZEFERINO SANTANA - 65 - VILA            18040010                                                            000128
2SR. CAIXA, APOS O VENCIMENTO COBRAR 2% DE MULTA                                 NAO RECEBER APOS 30 DIAS DO VENCIMENTO.                                                                                                                                                                                                         01042100000000000000104210000000000000       0090339900006270113691042113000129
100000000000000000000009033990000627000000000000000000000000010002020002253804211700000000002            2  01022538042111042100000001860270000000001N010421000000000000000000000000000000000000000000000000000000000000000100002253816809EDMILSON ALVES DA SILVA                 RUA JOSE CALIXTO DO CARMO - 286 AP.93 -             11702690                                                            000131
2SR. CAIXA, APOS O VENCIMENTO COBRAR 2% DE MULTA                                 NAO RECEBER APOS 30 DIAS DO VENCIMENTO.                                                                                                                                                                                                         01042100000000000000104210000000000000       0090339900006270022538042117000132
100000000000000000000009033990000627000000000000000000000000010002020037947004211900000000002            2  01379470042111042100000003303960000000001N010421000000000000000000000000000000000000000000000000000000000000000100037947070873BRUNO DE CAETANO MARRINHAS              RUA JOAO PELLOZO - 186 - JARDIM MILENA -            09182200                                                            000134
2SR. CAIXA, APOS O VENCIMENTO COBRAR 2% DE MULTA                                 NAO RECEBER APOS 30 DIAS DO VENCIMENTO.                                                                                                                                                                                                         01042100000000000000104210000000000000       0090339900006270379470042119000135
100000000000000000000009033990000627000000000000000000000000010002020037517704211700000000002            2  01375177042109042100000003486470000000001N010421000000000000000000000000000000000000000000000000000000000000000100037517785869RENATO JOSE DE LIMA MELO                RUA ARISTIDES LOBO - 148 AP.41 BLOCO 03             03041100                                                            000137
2SR. CAIXA, APOS O VENCIMENTO COBRAR 2% DE MULTA                                 NAO RECEBER APOS 30 DIAS DO VENCIMENTO.                                                                                                                                                                                                         01042100000000000000104210000000000000       0090339900006270375177042117000138
100000000000000000000009033990000627000000000000000000000000010002020070367904211800000000002            2  01703679042111042100000003281440000000001N010421000000000000000000000000000000000000000000000000000000000000000100070367949849TEODOMIRO ALVES DOS SANTOS              RUA ANDRE PAZ - 13 - JARDIM SANTO ANDRE             08390230                                                            000140
2SR. CAIXA, APOS O VENCIMENTO COBRAR 2% DE MULTA                                 NAO RECEBER APOS 30 DIAS DO VENCIMENTO.                                                                                                                                                                                                         01042100000000000000104210000000000000       0090339900006270703679042118000141
100000000000000000000009033990000627000000000000000000000000010002020070367904212600000000002            2  01703679042111042100000001746900000000001N010421000000000000000000000000000000000000000000000000000000000000000100070367949849TEODOMIRO ALVES DOS SANTOS              RUA ANDRE PAZ - 13 - JARDIM SANTO ANDRE             08390230                                                            000143
2SR. CAIXA, APOS O VENCIMENTO COBRAR 2% DE MULTA                                 NAO RECEBER APOS 30 DIAS DO VENCIMENTO.                                                                                                                                                                                                         01042100000000000000104210000000000000       0090339900006270703679042126000144
100000000000000000000009033990000627000000000000000000000000010002020004410804211700000000002            2  01044108042109042100000002590470000000001N010421000000000000000000000000000000000000000000000000000000000000000100004410802860LUIZ ALBERTO MARINHO                    RUA DA INDEPENDENCIA - 706 AP.41B - CAMB            01524000                                                            000146
2SR. CAIXA, APOS O VENCIMENTO COBRAR 2% DE MULTA                                 NAO RECEBER APOS 30 DIAS DO VENCIMENTO.                                                                                                                                                                                                         01042100000000000000104210000000000000       0090339900006270044108042117000147
100000000000000000000009033990000627000000000000000000000000010002020018035004211400000000002            2  01180350042111042100000002338050000000001N010421000000000000000000000000000000000000000000000000000000000000000100018035075861ROSANGELA BISPO SANTOS                  RUA CASSIANO GABUS MENDES - 292 - JD. CA            09896160                                                            000149
2SR. CAIXA, APOS O VENCIMENTO COBRAR 2% DE MULTA                                 NAO RECEBER APOS 30 DIAS DO VENCIMENTO.                                                                                                                                                                                                         01042100000000000000104210000000000000       0090339900006270180350042114000150
100000000000000000000009033990000627000000000000000000000000010002020004767604212000000000002            2  01047676042109042100000003458240000000001N010421000000000000000000000000000000000000000000000000000000000000000100004767679893ORLANDO GRANDE FILHO                    RUA ORLANDO MIGLIARI - 101 - JARDIM OURO            19906140                                                            000152
2SR. CAIXA, APOS O VENCIMENTO COBRAR 2% DE MULTA                                 NAO RECEBER APOS 30 DIAS DO VENCIMENTO.                                                                                                                                                                                                         01042100000000000000104210000000000000       0090339900006270047676042120000153
100000000000000000000009033990000627000000000000000000000000010002020064677804211800000000002            2  01646778042109042100000002781880000000001N010421000000000000000000000000000000000000000000000000000000000000000100064677850887ANTONIO CARLOS DE OLIVEIRA              RUA DR.ANTONIO MAZILLI FILHO - 435 - PAR            02230070                                                            000155
2SR. CAIXA, APOS O VENCIMENTO COBRAR 2% DE MULTA                                 NAO RECEBER APOS 30 DIAS DO VENCIMENTO.                                                                                                                                                                                                         01042100000000000000104210000000000000       0090339900006270646778042118000156
100000000000000000000009033990000627000000000000000000000000010002020007328904211300000000002            2  01073289042109042100000003394050000000001N010421000000000000000000000000000000000000000000000000000000000000000100007328927836BENEDITO APARECIDO ROCHA                AVENIDA SENADOR JOSE ERMINIO DE MORAES -            02357002                                                            000158
2SR. CAIXA, APOS O VENCIMENTO COBRAR 2% DE MULTA                                 NAO RECEBER APOS 30 DIAS DO VENCIMENTO.                                                                                                                                                                                                         01042100000000000000104210000000000000       0090339900006270073289042113000159
100000000000000000000009033990000627000000000000000000000000010002020028082604211200000000002            2  01280826042111042100000001939480000000001N010421000000000000000000000000000000000000000000000000000000000000000100028082615869PRISCILA PEREIRA                        ALAMEDA AFONSO BOCCHIGLIERI - 184 - INTE            04445130                                                            000161
2SR. CAIXA, APOS O VENCIMENTO COBRAR 2% DE MULTA                                 NAO RECEBER APOS 30 DIAS DO VENCIMENTO.                                                                                                                                                                                                         01042100000000000000104210000000000000       0090339900006270280826042112000162
100000000000000000000009033990000627000000000000000000000000010002020013184804211000000000002            2  01131848042111042100000002011250000000001N010421000000000000000000000000000000000000000000000000000000000000000100013184856810SYDNEY HENRIQUE GAMARANO JUNIOR         RUA JOSE CALIXTO DO CARMO - 286 AP.125 -            11702690                                                            000164
2SR. CAIXA, APOS O VENCIMENTO COBRAR 2% DE MULTA                                 NAO RECEBER APOS 30 DIAS DO VENCIMENTO.                                                                                                                                                                                                         01042100000000000000104210000000000000       0090339900006270131848042110000165
100000000000000000000009033990000627000000000000000000000000010002020058488604211000000000002            2  01584886042109042100000002537280000000001N010421000000000000000000000000000000000000000000000000000000000000000100058488618972ADAILTON ZANUTTO MORESCHI               R:RAPHAEL UNGARO - COND.RESERVA SERRA Q.            13212138                                                            000167
2SR. CAIXA, APOS O VENCIMENTO COBRAR 2% DE MULTA                                 NAO RECEBER APOS 30 DIAS DO VENCIMENTO.                                                                                                                                                                                                         01042100000000000000104210000000000000       0090339900006270584886042110000168
100000000000000000000009033990000627000000000000000000000000010002020040194804211500000000002            2  01401948042109042100000003369210000000001N010421000000000000000000000000000000000000000000000000000000000000000100040194815803JULIANA SANTOS PENSSE                   RUA SALVADOR SOARES - 85 - QUINHOES DA B            13190240                                                            000170
2SR. CAIXA, APOS O VENCIMENTO COBRAR 2% DE MULTA                                 NAO RECEBER APOS 30 DIAS DO VENCIMENTO.                                                                                                                                                                                                         01042100000000000000104210000000000000       0090339900006270401948042115000171
100000000000000000000009033990000627000000000000000000000000010002020011381904211100000000002            2  01113819042109042100000002688600000000001N010421000000000000000000000000000000000000000000000000000000000000000100011381987818MARIO DONIZETE MIGUEL DA SILVA          RUA JASPE - 215 - NOVA HIGIANOPOLIS - JA            06642270                                                            000173
2SR. CAIXA, APOS O VENCIMENTO COBRAR 2% DE MULTA                                 NAO RECEBER APOS 30 DIAS DO VENCIMENTO.                                                                                                                                                                                                         01042100000000000000104210000000000000       0090339900006270113819042111000174
100000000000000000000009033990000627000000000000000000000000010002020002196004211500000000002            2  01021960042111042100000001907820000000001N010421000000000000000000000000000000000000000000000000000000000000000100002196012831VILEFORT DIAS BORGES                    RUA PORTO XAVIER - 189 AP.64 - VILA CARM            08210170                                                            000176
2SR. CAIXA, APOS O VENCIMENTO COBRAR 2% DE MULTA                                 NAO RECEBER APOS 30 DIAS DO VENCIMENTO.                                                                                                                                                                                                         01042100000000000000104210000000000000       0090339900006270021960042115000177
100000000000000000000009033990000627000000000000000000000000010002020031861504211300000000002            2  01318615042111042100000001982960000000001N010421000000000000000000000000000000000000000000000000000000000000000100031861586809VANIA TOMAZ                             RUA MANOEL DOS REIS MACHADO - 557 - JARD            13221653                                                            000179
2SR. CAIXA, APOS O VENCIMENTO COBRAR 2% DE MULTA                                 NAO RECEBER APOS 30 DIAS DO VENCIMENTO.                                                                                                                                                                                                         01042100000000000000104210000000000000       0090339900006270318615042113000180
100000000000000000000009033990000627000000000000000000000000010002020003104504211700000000002            2  01031045042109042100000007385940000000001N010421000000000000000000000000000000000000000000000000000000000000000100003104580804NELSON RODRIGUES                        RUA AGUA SANTA - 114 - AGUA RASA - SAO P            03179110                                                            000182
2SR. CAIXA, APOS O VENCIMENTO COBRAR 2% DE MULTA                                 NAO RECEBER APOS 30 DIAS DO VENCIMENTO.                                                                                                                                                                                                         01042100000000000000104210000000000000       0090339900006270031045042117000183
100000000000000000000009033990000627000000000000000000000000010002020007715304211500000000002            2  01077153042109042100000003120560000000001N010421000000000000000000000000000000000000000000000000000000000000000100007715360627NILTON RENNAN OLIVEIRA GOMES FILHO      RUA DR. ANTONIO BENTO - 230 AP.53 - VILA            11075260                                                            000185
2SR. CAIXA, APOS O VENCIMENTO COBRAR 2% DE MULTA                                 NAO RECEBER APOS 30 DIAS DO VENCIMENTO.                                                                                                                                                                                                         01042100000000000000104210000000000000       0090339900006270077153042115000186
9                                                                                                                                                                                                                                                                                                                                                                                                         000187