01REMESSA01COBRANCA       00000000000008017025HB SANTOS CONSTRUTORA E INCORP237BRADESCO       010920        MX0000111                                                                                                                                                                                                                                                                                     000001
100000000000000000000009033990000627000000000000000000000000010002020029671509201700000000002            2  01296715092009092000000002769590000000001N010920000000000000000000000000000000000000000000000000000000000000000100029671526845ROGERIO CONSENTINO                      RUA CARLOS MAZER  - 678 - VILA CARMOSINA            08290700                                                            000002
2SR. CAIXA, APOS O VENCIMENTO COBRAR 2% DE MULTA                                 NAO RECEBER APOS 30 DIAS DO VENCIMENTO.                                                                                                                                                                                                         01092000000000000000109200000000000000       0090339900006270296715092017000003
100000000000000000000009033990000627000000000000000000000000010002020003863009201900000000002            2  01038630092009092000000002616100000000001N010920000000000000000000000000000000000000000000000000000000000000000100003863075803HERALDO MENQUINI                        RUA CARLOS JOSE BORSTENS - 50 AP.15 - AV            11702750                                                            000005
2SR. CAIXA, APOS O VENCIMENTO COBRAR 2% DE MULTA                                 NAO RECEBER APOS 30 DIAS DO VENCIMENTO.                                                                                                                                                                                                         01092000000000000000109200000000000000       0090339900006270038630092019000006
100000000000000000000009033990000627000000000000000000000000010002020029028409201600000000002            2  01290284092009092000000002679940000000001N010920000000000000000000000000000000000000000000000000000000000000000100029028478825LEONARDO LOUZADA                        RUA CARLOS JOSE BORSTENS - 50 AP.35 - AV            11702750                                                            000008
2SR. CAIXA, APOS O VENCIMENTO COBRAR 2% DE MULTA                                 NAO RECEBER APOS 30 DIAS DO VENCIMENTO.                                                                                                                                                                                                         01092000000000000000109200000000000000       0090339900006270290284092016000009
100000000000000000000009033990000627000000000000000000000000010002020032878509201300000000002            2  01328785092009092000000003873050000000001N010920000000000000000000000000000000000000000000000000000000000000000100032878512847LEONARDO MOURA MONIZ CALDEIRA           RUA BALSA - 682 AP.134 T.02 - VILA ARCAD            02910000                                                            000011
2SR. CAIXA, APOS O VENCIMENTO COBRAR 2% DE MULTA                                 NAO RECEBER APOS 30 DIAS DO VENCIMENTO.                                                                                                                                                                                                         01092000000000000000109200000000000000       0090339900006270328785092013000012
100000000000000000000009033990000627000000000000000000000000010002020016479009201000000000002            2  01164790092009092000000004120240000000001N010920000000000000000000000000000000000000000000000000000000000000000100016479002806LOURDES PEREIRA DE QUEIROZ SECANECHIA   RUA PAULINO CURSI - 437 - CIDADE SAO MAT            03960060                                                            000014
2SR. CAIXA, APOS O VENCIMENTO COBRAR 2% DE MULTA                                 NAO RECEBER APOS 30 DIAS DO VENCIMENTO.                                                                                                                                                                                                         01092000000000000000109200000000000000       0090339900006270164790092010000015
100000000000000000000009033990000627000000000000000000000000010002020019635009201800000000002            2  01196350092009092000000003040010000000001N010920000000000000000000000000000000000000000000000000000000000000000100019635091885IVAN VIEIRA SILVA                       ABRAO JORGE - 3001 - JARDIM INTEGRACAO -            14405397                                                            000017
2SR. CAIXA, APOS O VENCIMENTO COBRAR 2% DE MULTA                                 NAO RECEBER APOS 30 DIAS DO VENCIMENTO.                                                                                                                                                                                                         01092000000000000000109200000000000000       0090339900006270196350092018000018
100000000000000000000009033990000627000000000000000000000000010002020017229709202000000000002            2  01172297092009092000000003135470000000001N010920000000000000000000000000000000000000000000000000000000000000000100017229751802BERENICE VIEIRA KERSTING                RUA ATIBAIA - 17 AP.417 - BAIRRO IMPERAD            11707380                                                            000020
2SR. CAIXA, APOS O VENCIMENTO COBRAR 2% DE MULTA                                 NAO RECEBER APOS 30 DIAS DO VENCIMENTO.                                                                                                                                                                                                         01092000000000000000109200000000000000       0090339900006270172297092020000021
100000000000000000000009033990000627000000000000000000000000010002020009361409201800000000002            2  01093614092009092000000002991300000000001N010920000000000000000000000000000000000000000000000000000000000000000100009361471805JOSE BARBOSA DA SILVA                   RUA ALFREDO INACIO TRINDADE  - 60 AP.44             02344100                                                            000023
2SR. CAIXA, APOS O VENCIMENTO COBRAR 2% DE MULTA                                 NAO RECEBER APOS 30 DIAS DO VENCIMENTO.                                                                                                                                                                                                         01092000000000000000109200000000000000       0090339900006270093614092018000024
100000000000000000000009033990000627000000000000000000000000010002020012756909201100000000002            2  01127569092009092000000002582160000000001N010920000000000000000000000000000000000000000000000000000000000000000100012756959812ITAMAR JUVENAL DIAS DA SILVA            RUA ELISEU REINALDO MORAES VIEIRA - 90 A            02858000                                                            000026
2SR. CAIXA, APOS O VENCIMENTO COBRAR 2% DE MULTA                                 NAO RECEBER APOS 30 DIAS DO VENCIMENTO.                                                                                                                                                                                                         01092000000000000000109200000000000000       0090339900006270127569092011000027
100000000000000000000009033990000627000000000000000000000000010002020002731009201900000000002            2  01027310092009092000000003052810000000001N010920000000000000000000000000000000000000000000000000000000000000000100002731042842VALTER CERQUEIRA VILLA NOVA             RUA MACHADO - 106 - VILA AUGUSTA - GUARU            07025210                                                            000029
2SR. CAIXA, APOS O VENCIMENTO COBRAR 2% DE MULTA                                 NAO RECEBER APOS 30 DIAS DO VENCIMENTO.                                                                                                                                                                                                         01092000000000000000109200000000000000       0090339900006270027310092019000030
100000000000000000000009033990000627000000000000000000000000010002020002731009202700000000002            2  01027310092009092000000003052800000000001N010920000000000000000000000000000000000000000000000000000000000000000100002731042842VALTER CERQUEIRA VILLA NOVA             RUA MACHADO - 106 - VILA AUGUSTA - GUARU            07025210                                                            000032
2SR. CAIXA, APOS O VENCIMENTO COBRAR 2% DE MULTA                                 NAO RECEBER APOS 30 DIAS DO VENCIMENTO.                                                                                                                                                                                                         01092000000000000000109200000000000000       0090339900006270027310092027000033
100000000000000000000009033990000627000000000000000000000000010002020028802109201700000000002            2  01288021092009092000000002756610000000001N010920000000000000000000000000000000000000000000000000000000000000000100028802158894ELIEL HENRIQUE ZUZA                     RUA CARLOS JOSE BORSTENS - 50 AP.43 - BA            11702750                                                            000035
2SR. CAIXA, APOS O VENCIMENTO COBRAR 2% DE MULTA                                 NAO RECEBER APOS 30 DIAS DO VENCIMENTO.                                                                                                                                                                                                         01092000000000000000109200000000000000       0090339900006270288021092017000036
100000000000000000000009033990000627000000000000000000000000010002020005313709201700000000002            2  01053137092011092000000002228270000000001N010920000000000000000000000000000000000000000000000000000000000000000100005313717863EDIMICIO JOSE DE ARAUJO                 PRACA NICOLAU GERAIGIRE - 680 CA A - JAR            11095110                                                            000038
2SR. CAIXA, APOS O VENCIMENTO COBRAR 2% DE MULTA                                 NAO RECEBER APOS 30 DIAS DO VENCIMENTO.                                                                                                                                                                                                         01092000000000000000109200000000000000       0090339900006270053137092017000039
100000000000000000000009033990000627000000000000000000000000010002020029433609201500000000002            2  01294336092011092000000002140620000000001N010920000000000000000000000000000000000000000000000000000000000000000100029433631897MARIO MUNIZ                             RUA JOSE CALIXTO DO CARMO - 286 AP.53 -             11702690                                                            000041
2SR. CAIXA, APOS O VENCIMENTO COBRAR 2% DE MULTA                                 NAO RECEBER APOS 30 DIAS DO VENCIMENTO.                                                                                                                                                                                                         01092000000000000000109200000000000000       0090339900006270294336092015000042
100000000000000000000009033990000627000000000000000000000000010002020001847209201300000000002            2  01018472092011092000000001970680000000001N010920000000000000000000000000000000000000000000000000000000000000000100001847204864AMERICA CONCEICAO DA SILVA              RUA JOSE CALIXTO DO CARMO - 286 AP.44 -             11702690                                                            000044
2SR. CAIXA, APOS O VENCIMENTO COBRAR 2% DE MULTA                                 NAO RECEBER APOS 30 DIAS DO VENCIMENTO.                                                                                                                                                                                                         01092000000000000000109200000000000000       0090339900006270018472092013000045
100000000000000000000009033990000627000000000000000000000000010002020005029809201800000000002            2  01050298092009092000000002632660000000001N010920000000000000000000000000000000000000000000000000000000000000000100005029828885LAURINETE DA CONCEICAO DE NORONHA       RUA MARIA LUCIA DE TOLEDO LEITE MORAES -            04434040                                                            000047
2SR. CAIXA, APOS O VENCIMENTO COBRAR 2% DE MULTA                                 NAO RECEBER APOS 30 DIAS DO VENCIMENTO.                                                                                                                                                                                                         01092000000000000000109200000000000000       0090339900006270050298092018000048
100000000000000000000009033990000627000000000000000000000000010002020013388909201P00000000002            2  01133889092011092000000002086750000000001N010920000000000000000000000000000000000000000000000000000000000000000100013388936889NEUTON DE SOUZA RAMOS                   RUA MARIA CRISTINA - 932 - JARDIM CASQUE            11533160                                                            000050
2SR. CAIXA, APOS O VENCIMENTO COBRAR 2% DE MULTA                                 NAO RECEBER APOS 30 DIAS DO VENCIMENTO.                                                                                                                                                                                                         01092000000000000000109200000000000000       009033990000627013388909201P000051
100000000000000000000009033990000627000000000000000000000000010002020012774909201P00000000002            2  01127749092011092000000002125960000000001N010920000000000000000000000000000000000000000000000000000000000000000100012774906865JOSE MILTON SANTIAGO                    RUA BATATAIS - 47 - CIDADE ESTELA - POA             08563140                                                            000053
2SR. CAIXA, APOS O VENCIMENTO COBRAR 2% DE MULTA                                 NAO RECEBER APOS 30 DIAS DO VENCIMENTO.                                                                                                                                                                                                         01092000000000000000109200000000000000       009033990000627012774909201P000054
100000000000000000000009033990000627000000000000000000000000010002020016294109201500000000002            2  01162941092009092000000002613770000000001N010920000000000000000000000000000000000000000000000000000000000000000100016294119812JURACY FELIX DE ARRUDA                  RUA CARLOS JOSE BORSTENS - 50 AP.23 - AV            11702750                                                            000056
2SR. CAIXA, APOS O VENCIMENTO COBRAR 2% DE MULTA                                 NAO RECEBER APOS 30 DIAS DO VENCIMENTO.                                                                                                                                                                                                         01092000000000000000109200000000000000       0090339900006270162941092015000057
100000000000000000000009033990000627000000000000000000000000010002020005613809201P00000000002            2  01056138092011092000000001955290000000001N010920000000000000000000000000000000000000000000000000000000000000000100005613843805NILZA MARIA DE OLIVEIRA                 RUA JOSE GONCALVES DE FREITAS - 66 C2 -             08210550                                                            000059
2SR. CAIXA, APOS O VENCIMENTO COBRAR 2% DE MULTA                                 NAO RECEBER APOS 30 DIAS DO VENCIMENTO.                                                                                                                                                                                                         01092000000000000000109200000000000000       009033990000627005613809201P000060
100000000000000000000009033990000627000000000000000000000000010002020007574909201P00000000002            2  01075749092011092000000002007050000000001N010920000000000000000000000000000000000000000000000000000000000000000100007574936889JORGE LUCIANO PEREIRA BORRIELLO         RUA JOSE CALIXTO DO CARMO - 286 AP.54 -             11702690                                                            000062
2SR. CAIXA, APOS O VENCIMENTO COBRAR 2% DE MULTA                                 NAO RECEBER APOS 30 DIAS DO VENCIMENTO.                                                                                                                                                                                                         01092000000000000000109200000000000000       009033990000627007574909201P000063
100000000000000000000009033990000627000000000000000000000000010002020008214909201200000000002            2  01082149092011092000000002037500000000001N010920000000000000000000000000000000000000000000000000000000000000000100008214973830JAMIL CHALA                             RUA JOSE CALIXTO DO CARMO - 286 AP.22 -             11702690                                                            000065
2SR. CAIXA, APOS O VENCIMENTO COBRAR 2% DE MULTA                                 NAO RECEBER APOS 30 DIAS DO VENCIMENTO.                                                                                                                                                                                                         01092000000000000000109200000000000000       0090339900006270082149092012000066
100000000000000000000009033990000627000000000000000000000000010002020032495009201P00000000002            2  01324950092011092000000002283290000000001N010920000000000000000000000000000000000000000000000000000000000000000100032495004881PAULO EDUARDO DOS SANTOS                RUA REPUBLICA DO IRAQUE - 1119 - CAMPO B            04611002                                                            000068
2SR. CAIXA, APOS O VENCIMENTO COBRAR 2% DE MULTA                                 NAO RECEBER APOS 30 DIAS DO VENCIMENTO.                                                                                                                                                                                                         01092000000000000000109200000000000000       009033990000627032495009201P000069
100000000000000000000009033990000627000000000000000000000000010002020016498009201700000000002            2  01164980092011092000000002002510000000001N010920000000000000000000000000000000000000000000000000000000000000000100016498053810GILMA CEZARIO GARCIA CORRITORI          RUA LAURENTINO XAVIER DOS SANTOS - 336 -            08240740                                                            000071
2SR. CAIXA, APOS O VENCIMENTO COBRAR 2% DE MULTA                                 NAO RECEBER APOS 30 DIAS DO VENCIMENTO.                                                                                                                                                                                                         01092000000000000000109200000000000000       0090339900006270164980092017000072
100000000000000000000009033990000627000000000000000000000000010002020029339009201600000000002            2  01293390092011092000000002141320000000001N010920000000000000000000000000000000000000000000000000000000000000000100029339051831RONALD DIDOFF                           RUA CORONEL FERREIRA BRAGA - 188 - VILA             03522010                                                            000074
2SR. CAIXA, APOS O VENCIMENTO COBRAR 2% DE MULTA                                 NAO RECEBER APOS 30 DIAS DO VENCIMENTO.                                                                                                                                                                                                         01092000000000000000109200000000000000       0090339900006270293390092016000075
100000000000000000000009033990000627000000000000000000000000010002020017357809201800000000002            2  01173578092011092000000002267850000000001N010920000000000000000000000000000000000000000000000000000000000000000100017357859894MARCIO GUIMARAES                        RUA GENERAL CAMARA - 188 SALA 11 - CENTR            11010120                                                            000077
2SR. CAIXA, APOS O VENCIMENTO COBRAR 2% DE MULTA                                 NAO RECEBER APOS 30 DIAS DO VENCIMENTO.                                                                                                                                                                                                         01092000000000000000109200000000000000       0090339900006270173578092018000078
100000000000000000000009033990000627000000000000000000000000010002020010563009201800000000002            2  01105630092011092000000002325810000000001N010920000000000000000000000000000000000000000000000000000000000000000100010563033878VERA LUCIA RIBEIRO LONGANEZI            RUA DOS CAMARES - 150 AP.24 BL.02 - CARA            02068030                                                            000080
2SR. CAIXA, APOS O VENCIMENTO COBRAR 2% DE MULTA                                 NAO RECEBER APOS 30 DIAS DO VENCIMENTO.                                                                                                                                                                                                         01092000000000000000109200000000000000       0090339900006270105630092018000081
100000000000000000000009033990000627000000000000000000000000010002020005529609201200000000002            2  01055296092011092000000002110590000000001N010920000000000000000000000000000000000000000000000000000000000000000100005529616801JOAQUIM JORGE DA COSTA                  RUA JOSE CALIXTO DO CARMO - 286 AP.106 -            11702690                                                            000083
2SR. CAIXA, APOS O VENCIMENTO COBRAR 2% DE MULTA                                 NAO RECEBER APOS 30 DIAS DO VENCIMENTO.                                                                                                                                                                                                         01092000000000000000109200000000000000       0090339900006270055296092012000084
100000000000000000000009033990000627000000000000000000000000010002020022014109201700000000002            2  01220141092011092000000002104450000000001N010920000000000000000000000000000000000000000000000000000000000000000100022014140847CAMILA SILVEIRA CANIZARES               AVENIDA PRESIDENTE CASTELO BRANCO - 5.74            11703650                                                            000086
2SR. CAIXA, APOS O VENCIMENTO COBRAR 2% DE MULTA                                 NAO RECEBER APOS 30 DIAS DO VENCIMENTO.                                                                                                                                                                                                         01092000000000000000109200000000000000       0090339900006270220141092017000087
100000000000000000000009033990000627000000000000000000000000010002020015550709201900000000002            2  01155507092009092000000001995540000000001N010920000000000000000000000000000000000000000000000000000000000000000100015550706806MARY MIWA                               RUA CARLOS JOSE BORSTENS - 50 AP.105 - A            11702750                                                            000089
2SR. CAIXA, APOS O VENCIMENTO COBRAR 2% DE MULTA                                 NAO RECEBER APOS 30 DIAS DO VENCIMENTO.                                                                                                                                                                                                         01092000000000000000109200000000000000       0090339900006270155507092019000090
100000000000000000000009033990000627000000000000000000000000010002020015464609201900000000002            2  01154646092011092000000002218740000000001N010920000000000000000000000000000000000000000000000000000000000000000100015464647864SONIA TERESA VOLPATO                    RUA JOSE CALIXTO DO CARMO - 286 AP.73 -             11702690                                                            000092
2SR. CAIXA, APOS O VENCIMENTO COBRAR 2% DE MULTA                                 NAO RECEBER APOS 30 DIAS DO VENCIMENTO.                                                                                                                                                                                                         01092000000000000000109200000000000000       0090339900006270154646092019000093
100000000000000000000009033990000627000000000000000000000000010002020008657809201800000000002            2  01086578092011092000000002196470000000001N010920000000000000000000000000000000000000000000000000000000000000000100008657886855ARLINDO DA CRUZ                         AVENIDA ARICANDUVA - 8.256 AP.54 BL.10 -            03951220                                                            000095
2SR. CAIXA, APOS O VENCIMENTO COBRAR 2% DE MULTA                                 NAO RECEBER APOS 30 DIAS DO VENCIMENTO.                                                                                                                                                                                                         01092000000000000000109200000000000000       0090339900006270086578092018000096
100000000000000000000009033990000627000000000000000000000000010002020004265709201800000000002            2  01042657092009092000000002940380000000001N010920000000000000000000000000000000000000000000000000000000000000000100004265781713ALEXANDRE CASADO COSTA                  RUA CARLOS JOSE BORSTENS - 50 AP.33 - AV            11702750                                                            000098
2SR. CAIXA, APOS O VENCIMENTO COBRAR 2% DE MULTA                                 NAO RECEBER APOS 30 DIAS DO VENCIMENTO.                                                                                                                                                                                                         01092000000000000000109200000000000000       0090339900006270042657092018000099
100000000000000000000009033990000627000000000000000000000000010002020059735109201600000000002            2  01597351092009092000000001241960000000001N010920000000000000000000000000000000000000000000000000000000000000000100059735180863HELIO JOSE MARQUES                      RUA MARTIM AFONSO DE SOUZA - 1007 AP.102            11702790                                                            000101
2SR. CAIXA, APOS O VENCIMENTO COBRAR 2% DE MULTA                                 NAO RECEBER APOS 30 DIAS DO VENCIMENTO.                                                                                                                                                                                                         01092000000000000000109200000000000000       0090339900006270597351092016000102
100000000000000000000009033990000627000000000000000000000000010002020026347809201P00000000002            2  01263478092011092000000002347970000000001N010920000000000000000000000000000000000000000000000000000000000000000100026347872862VALDECI SILVA MEIRELES                  RUA JOSE BATISTA DA SILVA - 292 - JARDIM            06851470                                                            000104
2SR. CAIXA, APOS O VENCIMENTO COBRAR 2% DE MULTA                                 NAO RECEBER APOS 30 DIAS DO VENCIMENTO.                                                                                                                                                                                                         01092000000000000000109200000000000000       009033990000627026347809201P000105
100000000000000000000009033990000627000000000000000000000000010002020025443609201000000000002            2  01254436092009092000000004253430000000001N010920000000000000000000000000000000000000000000000000000000000000000100025443691830SILVANETE PEREIRA CARNELOS              RUA CARLOS JOSE BORSTENS - 50 AP.102 - A            11702750                                                            000107
2SR. CAIXA, APOS O VENCIMENTO COBRAR 2% DE MULTA                                 NAO RECEBER APOS 30 DIAS DO VENCIMENTO.                                                                                                                                                                                                         01092000000000000000109200000000000000       0090339900006270254436092010000108
100000000000000000000009033990000627000000000000000000000000010002020013135209201000000000002            2  01131352092011092000000002157200000000001N010920000000000000000000000000000000000000000000000000000000000000000100013135261859EDUARDO ZANOLA                          RUA ROLANDO PIETRO BONINI - 46 - JARDIM             09781040                                                            000110
2SR. CAIXA, APOS O VENCIMENTO COBRAR 2% DE MULTA                                 NAO RECEBER APOS 30 DIAS DO VENCIMENTO.                                                                                                                                                                                                         01092000000000000000109200000000000000       0090339900006270131352092010000111
100000000000000000000009033990000627000000000000000000000000010002020009797609201100000000002            2  01097976092011092000000002100890000000001N010920000000000000000000000000000000000000000000000000000000000000000100009797626857RICARDO SOBRAL DE OLIVEIRA              RUA 23 DE MAIO - 139 AP.32 - VILA MIRIM             11704690                                                            000113
2SR. CAIXA, APOS O VENCIMENTO COBRAR 2% DE MULTA                                 NAO RECEBER APOS 30 DIAS DO VENCIMENTO.                                                                                                                                                                                                         01092000000000000000109200000000000000       0090339900006270097976092011000114
100000000000000000000009033990000627000000000000000000000000010002020004767609201200000000002            2  01047676092009092000000003592470000000001N010920000000000000000000000000000000000000000000000000000000000000000100004767679893ORLANDO GRANDE FILHO                    RUA ORLANDO MIGLIARI - 101 - JARDIM OURO            19906140                                                            000116
2SR. CAIXA, APOS O VENCIMENTO COBRAR 2% DE MULTA                                 NAO RECEBER APOS 30 DIAS DO VENCIMENTO.                                                                                                                                                                                                         01092000000000000000109200000000000000       0090339900006270047676092012000117
100000000000000000000009033990000627000000000000000000000000010002020006512509201P00000000002            2  01065125092011092000000001889840000000001N010920000000000000000000000000000000000000000000000000000000000000000100006512547870MARIA DO CARMO FAGUNDES DOS REIS        RUA CARLOS MALCHER - 98 - PARQUE EDU CHA            02232020                                                            000119
2SR. CAIXA, APOS O VENCIMENTO COBRAR 2% DE MULTA                                 NAO RECEBER APOS 30 DIAS DO VENCIMENTO.                                                                                                                                                                                                         01092000000000000000109200000000000000       009033990000627006512509201P000120
100000000000000000000009033990000627000000000000000000000000010002020022728409201200000000002            2  01227284092011092000000002273280000000001N010920000000000000000000000000000000000000000000000000000000000000000100022728497842WILLIAN DE SOUZA MELLO                  RUA JOSE CALIXTO DO CARMO - 286 AP.111 -            11702690                                                            000122
2SR. CAIXA, APOS O VENCIMENTO COBRAR 2% DE MULTA                                 NAO RECEBER APOS 30 DIAS DO VENCIMENTO.                                                                                                                                                                                                         01092000000000000000109200000000000000       0090339900006270227284092012000123
100000000000000000000009033990000627000000000000000000000000010002020016909709201700000000002            2  01169097092011092000000002008870000000001N010920000000000000000000000000000000000000000000000000000000000000000100016909746805EDIVALDO SANTANA DOS SANTOS             ESTRADA JOAO GASPAR DELGADO - 80 AP.213             08536100                                                            000125
2SR. CAIXA, APOS O VENCIMENTO COBRAR 2% DE MULTA                                 NAO RECEBER APOS 30 DIAS DO VENCIMENTO.                                                                                                                                                                                                         01092000000000000000109200000000000000       0090339900006270169097092017000126
100000000000000000000009033990000627000000000000000000000000010002020022036009201400000000002            2  01220360092009092000000003119570000000001N010920000000000000000000000000000000000000000000000000000000000000000100022036003818DERLIS TERAN QUIROGA ROGATO             RUA JOAO RIBEIRO - 709 AP.61 - CAMPESTRE            09070250                                                            000128
2SR. CAIXA, APOS O VENCIMENTO COBRAR 2% DE MULTA                                 NAO RECEBER APOS 30 DIAS DO VENCIMENTO.                                                                                                                                                                                                         01092000000000000000109200000000000000       0090339900006270220360092014000129
100000000000000000000009033990000627000000000000000000000000010002020017229709203900000000002            2  01172297092009092000000003010670000000001N010920000000000000000000000000000000000000000000000000000000000000000100017229751802BERENICE VIEIRA KERSTING                RUA ATIBAIA - 17 AP.417 - BAIRRO IMPERAD            11707380                                                            000131
2SR. CAIXA, APOS O VENCIMENTO COBRAR 2% DE MULTA                                 NAO RECEBER APOS 30 DIAS DO VENCIMENTO.                                                                                                                                                                                                         01092000000000000000109200000000000000       0090339900006270172297092039000132
100000000000000000000009033990000627000000000000000000000000010002020012475609201800000000002            2  01124756092011092000000002177510000000001N010920000000000000000000000000000000000000000000000000000000000000000100012475663820CELIDALVA GOES DE CARVALHO              RUA JOSE CALIXTO DO CARMO - 286 AP.91 -             11702690                                                            000134
2SR. CAIXA, APOS O VENCIMENTO COBRAR 2% DE MULTA                                 NAO RECEBER APOS 30 DIAS DO VENCIMENTO.                                                                                                                                                                                                         01092000000000000000109200000000000000       0090339900006270124756092018000135
100000000000000000000009033990000627000000000000000000000000010002020033451609201500000000002            2  01334516092011092000000001818350000000001N010920000000000000000000000000000000000000000000000000000000000000000100033451620839ARAO ELISIARIO  NUNES                   RUA JOSE CALIXTO DO CARMO - 286 AP.64 -             11702690                                                            000137
2SR. CAIXA, APOS O VENCIMENTO COBRAR 2% DE MULTA                                 NAO RECEBER APOS 30 DIAS DO VENCIMENTO.                                                                                                                                                                                                         01092000000000000000109200000000000000       0090339900006270334516092015000138
100000000000000000000009033990000627000000000000000000000000010002020095758209201500000000002            2  01957582092011092000000002211360000000001N010920000000000000000000000000000000000000000000000000000000000000000100095758275891SHIRLEY TUNES ASTOLFI                   RUA GUAPERUVU - 656 AP.84 - VILA ARICAND            03504010                                                            000140
2SR. CAIXA, APOS O VENCIMENTO COBRAR 2% DE MULTA                                 NAO RECEBER APOS 30 DIAS DO VENCIMENTO.                                                                                                                                                                                                         01092000000000000000109200000000000000       0090339900006270957582092015000141
100000000000000000000009033990000627000000000000000000000000010002020045839209201200000000002            2  01458392092011092000000001411370000000001N010920000000000000000000000000000000000000000000000000000000000000000100045839263834LEONARDO ANTONIO CONCELLIERI            RUA JOSE CALIXTO DO CARMO - 286 AP.51 -             11702690                                                            000143
2SR. CAIXA, APOS O VENCIMENTO COBRAR 2% DE MULTA                                 NAO RECEBER APOS 30 DIAS DO VENCIMENTO.                                                                                                                                                                                                         01092000000000000000109200000000000000       0090339900006270458392092012000144
100000000000000000000009033990000627000000000000000000000000010002020011369109201300000000002            2  01113691092011092000000001986340000000001N010920000000000000000000000000000000000000000000000000000000000000000100011369165803ELIANA CORREA DE OLIVEIRA               AVENIDA ELIAS MALUF - 2695 CASA 419 - WA            18055215                                                            000146
2SR. CAIXA, APOS O VENCIMENTO COBRAR 2% DE MULTA                                 NAO RECEBER APOS 30 DIAS DO VENCIMENTO.                                                                                                                                                                                                         01092000000000000000109200000000000000       0090339900006270113691092013000147
100000000000000000000009033990000627000000000000000000000000010002020026858609201P00000000002            2  01268586092008092000000002684840000000001N010920000000000000000000000000000000000000000000000000000000000000000100026858625879GLAUCE FERREIRA DE OLIVEIRA FALSI       RUA CATULO DA PAIXAO CEARENSE - 190 AP.1            04145010                                                            000149
2SR. CAIXA, APOS O VENCIMENTO COBRAR 2% DE MULTA                                 NAO RECEBER APOS 30 DIAS DO VENCIMENTO.                                                                                                                                                                                                         01092000000000000000109200000000000000       009033990000627026858609201P000150
100000000000000000000009033990000627000000000000000000000000010002020002253809201700000000002            2  01022538092011092000000001765470000000001N010920000000000000000000000000000000000000000000000000000000000000000100002253816809EDMILSON ALVES DA SILVA                 RUA JOSE CALIXTO DO CARMO - 286 AP.93 -             11702690                                                            000152
2SR. CAIXA, APOS O VENCIMENTO COBRAR 2% DE MULTA                                 NAO RECEBER APOS 30 DIAS DO VENCIMENTO.                                                                                                                                                                                                         01092000000000000000109200000000000000       0090339900006270022538092017000153
100000000000000000000009033990000627000000000000000000000000010002020037947009201900000000002            2  01379470092011092000000003135590000000001N010920000000000000000000000000000000000000000000000000000000000000000100037947070873BRUNO DE CAETANO MARRINHAS              RUA ADRIATICO - 151 AP.82 BLOCO 18 - JAR            09172180                                                            000155
2SR. CAIXA, APOS O VENCIMENTO COBRAR 2% DE MULTA                                 NAO RECEBER APOS 30 DIAS DO VENCIMENTO.                                                                                                                                                                                                         01092000000000000000109200000000000000       0090339900006270379470092019000156
100000000000000000000009033990000627000000000000000000000000010002020037517709201700000000002            2  01375177092009092000000003308800000000001N010920000000000000000000000000000000000000000000000000000000000000000100037517785869RENATO JOSE DE LIMA MELO                RUA ARISTIDES LOBO - 148 AP.41 BLOCO 03             03041100                                                            000158
2SR. CAIXA, APOS O VENCIMENTO COBRAR 2% DE MULTA                                 NAO RECEBER APOS 30 DIAS DO VENCIMENTO.                                                                                                                                                                                                         01092000000000000000109200000000000000       0090339900006270375177092017000159
100000000000000000000009033990000627000000000000000000000000010002020070367909201800000000002            2  01703679092011092000000001657880000000001N010920000000000000000000000000000000000000000000000000000000000000000100070367949849TEODOMIRO ALVES DOS SANTOS              RUA ANDRE PAZ - 13 - JARDIM SANTO ANDRE             08390230                                                            000161
2SR. CAIXA, APOS O VENCIMENTO COBRAR 2% DE MULTA                                 NAO RECEBER APOS 30 DIAS DO VENCIMENTO.                                                                                                                                                                                                         01092000000000000000109200000000000000       0090339900006270703679092018000162
100000000000000000000009033990000627000000000000000000000000010002020016960809201000000000002            2  01169608092008092000000002563570000000001N010920000000000000000000000000000000000000000000000000000000000000000100016960804876LUIZ ALVES DE SOUZA JUNIOR              RUA FRANCISCO ALVES - 394 CASA B - PAECA            11450320                                                            000164
2SR. CAIXA, APOS O VENCIMENTO COBRAR 2% DE MULTA                                 NAO RECEBER APOS 30 DIAS DO VENCIMENTO.                                                                                                                                                                                                         01092000000000000000109200000000000000       0090339900006270169608092010000165
100000000000000000000009033990000627000000000000000000000000010002020004410809201700000000002            2  01044108092009092000000002458450000000001N010920000000000000000000000000000000000000000000000000000000000000000100004410802860LUIZ ALBERTO MARINHO                    RUA DA INDEPENDENCIA - 706 AP.41B - CAMB            01524000                                                            000167
2SR. CAIXA, APOS O VENCIMENTO COBRAR 2% DE MULTA                                 NAO RECEBER APOS 30 DIAS DO VENCIMENTO.                                                                                                                                                                                                         01092000000000000000109200000000000000       0090339900006270044108092017000168
100000000000000000000009033990000627000000000000000000000000010002020008899309201800000000002            2  01088993092008092000000002546900000000001N010920000000000000000000000000000000000000000000000000000000000000000100008899362858ELAINE D´ALMEIDA FERDINANDY             ALAMEDA SUBTENENTE AVIADOR FRANCISCO HIE            02187040                                                            000170
2SR. CAIXA, APOS O VENCIMENTO COBRAR 2% DE MULTA                                 NAO RECEBER APOS 30 DIAS DO VENCIMENTO.                                                                                                                                                                                                         01092000000000000000109200000000000000       0090339900006270088993092018000171
100000000000000000000009033990000627000000000000000000000000010002020029425009201200000000002            2  01294250092008092000000002553280000000001N010920000000000000000000000000000000000000000000000000000000000000000100029425027897FABIA DOS SANTOS DE ANDRADE             AVENIDA ALCIDES CANDIDO DOS SANTOS - 248            11705480                                                            000173
2SR. CAIXA, APOS O VENCIMENTO COBRAR 2% DE MULTA                                 NAO RECEBER APOS 30 DIAS DO VENCIMENTO.                                                                                                                                                                                                         01092000000000000000109200000000000000       0090339900006270294250092012000174
100000000000000000000009033990000627000000000000000000000000010002020018035009201400000000002            2  01180350092011092000000002218900000000001N010920000000000000000000000000000000000000000000000000000000000000000100018035075861ROSANGELA BISPO SANTOS                  RUA CASSIANO GABUS MENDES - 292 - JD. CA            09896160                                                            000176
2SR. CAIXA, APOS O VENCIMENTO COBRAR 2% DE MULTA                                 NAO RECEBER APOS 30 DIAS DO VENCIMENTO.                                                                                                                                                                                                         01092000000000000000109200000000000000       0090339900006270180350092014000177
100000000000000000000009033990000627000000000000000000000000010002020078382709201800000000002            2  01783827092008092000000002580230000000001N010920000000000000000000000000000000000000000000000000000000000000000100078382700497JARMELINA BARBOSA DA SILVA              RUA OSCAR CINTRA GORDINHO - 211 AP.51 -             01512010                                                            000179
2SR. CAIXA, APOS O VENCIMENTO COBRAR 2% DE MULTA                                 NAO RECEBER APOS 30 DIAS DO VENCIMENTO.                                                                                                                                                                                                         01092000000000000000109200000000000000       0090339900006270783827092018000180
100000000000000000000009033990000627000000000000000000000000010002020007535309201700000000002            2  01075353092008092000000002530230000000001N010920000000000000000000000000000000000000000000000000000000000000000100007535375839AINAILDE PEREIRA DE CASTRO OLIVETTO     TRAVESSA DORALINA ELIETE ADAO DA SILVA -            08021026                                                            000182
2SR. CAIXA, APOS O VENCIMENTO COBRAR 2% DE MULTA                                 NAO RECEBER APOS 30 DIAS DO VENCIMENTO.                                                                                                                                                                                                         01092000000000000000109200000000000000       0090339900006270075353092017000183
100000000000000000000009033990000627000000000000000000000000010002020017229709201200000000002            2  01172297092008092000000002680230000000001N010920000000000000000000000000000000000000000000000000000000000000000100017229751802BERENICE VIEIRA KERSTING                RUA ATIBAIA - 17 AP.417 - BAIRRO IMPERAD            11707380                                                            000185
2SR. CAIXA, APOS O VENCIMENTO COBRAR 2% DE MULTA                                 NAO RECEBER APOS 30 DIAS DO VENCIMENTO.                                                                                                                                                                                                         01092000000000000000109200000000000000       0090339900006270172297092012000186
100000000000000000000009033990000627000000000000000000000000010002020028974209201400000000002            2  01289742092008092000000002503280000000001N010920000000000000000000000000000000000000000000000000000000000000000100028974233827MARISTELA FAVANI DE OLIVEIRA            RUA GIUSEPPE CARNEVALLI - 96 - BAIRRO BO            09572100                                                            000188
2SR. CAIXA, APOS O VENCIMENTO COBRAR 2% DE MULTA                                 NAO RECEBER APOS 30 DIAS DO VENCIMENTO.                                                                                                                                                                                                         01092000000000000000109200000000000000       0090339900006270289742092014000189
100000000000000000000009033990000627000000000000000000000000010002020009169709201100000000002            2  01091697092008092000000001980920000000001N010920000000000000000000000000000000000000000000000000000000000000000100009169701830TADEU CONSTANTINO LOPES                 RUA JOSE ANTONIO COELHO - 349 CASA 01 -             04011061                                                            000191
2SR. CAIXA, APOS O VENCIMENTO COBRAR 2% DE MULTA                                 NAO RECEBER APOS 30 DIAS DO VENCIMENTO.                                                                                                                                                                                                         01092000000000000000109200000000000000       0090339900006270091697092011000192
100000000000000000000009033990000627000000000000000000000000010002020004767609202000000000002            2  01047676092009092000000003282010000000001N010920000000000000000000000000000000000000000000000000000000000000000100004767679893ORLANDO GRANDE FILHO                    RUA ORLANDO MIGLIARI - 101 - JARDIM OURO            19906140                                                            000194
2SR. CAIXA, APOS O VENCIMENTO COBRAR 2% DE MULTA                                 NAO RECEBER APOS 30 DIAS DO VENCIMENTO.                                                                                                                                                                                                         01092000000000000000109200000000000000       0090339900006270047676092020000195
9                                                                                                                                                                                                                                                                                                                                                                                                         000196