01REMESSA01COBRANCA       00000000000004991454AIRES CONSTRUTORA E INCORPORAD237BRADESCO       061218        MX0000087                                                                                                                                                                                                                                                                                     000001
100000000000000000000009077090001674800000000000000000000000010002100001224512181500000000002            2  01012245121825121800000003503540000000001N061218000000000000000000000000000000000000000000000000000000000000000100001224509579REINALDO JUNIOR MARTINS DE ABREU        AVENIDA INTERLAGOS - 7.224 - INTERLAGOS             04777000                                                            000002
2SR. CAIXA, APOS O VENCIMENTO COBRAR 10% DE MULTA                                NAO RECEBER APOS 30 DIAS DO VENCIMENTO.                                                                                                                                                                                                         06121800000000000000612180000000000000       0090770900016748012245121815000003
100000000000000000000009077090001674800000000000000000000000010002100003325112181600000000002            2  01033251121825121800000003407420000000001N061218000000000000000000000000000000000000000000000000000000000000000100003325102808MARCOS DE OLIVEIRA JUNIOR               RUA LUIS NOVELLETO - 91 - PARQUE CONTINE            05324080                                                            000005
2SR. CAIXA, APOS O VENCIMENTO COBRAR 10% DE MULTA                                NAO RECEBER APOS 30 DIAS DO VENCIMENTO.                                                                                                                                                                                                         06121800000000000000612180000000000000       0090770900016748033251121816000006
100000000000000000000009077090001674800000000000000000000000010002100016338912181800000000002            2  01163389121825121800000003456880000000001N061218000000000000000000000000000000000000000000000000000000000000000100016338929806EDVALDO DA SILVA ANDRADE                RUA ARIA - 434 - PARQUE ALVES DE LIMA -             04902170                                                            000008
2SR. CAIXA, APOS O VENCIMENTO COBRAR 10% DE MULTA                                NAO RECEBER APOS 30 DIAS DO VENCIMENTO.                                                                                                                                                                                                         06121800000000000000612180000000000000       0090770900016748163389121818000009
100000000000000000000009077090001674800000000000000000000000010002100026836912181800000000002            2  01268369121825121800000003130450000000001N061218000000000000000000000000000000000000000000000000000000000000000100026836908860VANDERLEI FIGUEIREDO DE CARVALHO        RUA TUPI - 840 - VILA TUPI - PRAIA GRAND            11703260                                                            000011
2SR. CAIXA, APOS O VENCIMENTO COBRAR 10% DE MULTA                                NAO RECEBER APOS 30 DIAS DO VENCIMENTO.                                                                                                                                                                                                         06121800000000000000612180000000000000       0090770900016748268369121818000012
100000000000000000000009077090001674800000000000000000000000010002100059861512181400000000002            2  01598615121825121800000003477060000000001N061218000000000000000000000000000000000000000000000000000000000000000100059861576800REINALDO LOPES DE OLIVEIRA              RUA DA SERVIDAO - 40 - VILA ROSCHEL - SA            04891045                                                            000014
2SR. CAIXA, APOS O VENCIMENTO COBRAR 10% DE MULTA                                NAO RECEBER APOS 30 DIAS DO VENCIMENTO.                                                                                                                                                                                                         06121800000000000000612180000000000000       0090770900016748598615121814000015
100000000000000000000009077090001674800000000000000000000000010002100016330912181200000000002            2  01163309121825121800000003456000000000001N061218000000000000000000000000000000000000000000000000000000000000000100016330938830KARINA CORDEIRO PIASSA                  CONDE MOREIRA LIMA - 644 - JARDIM JABAQU            04384032                                                            000017
2SR. CAIXA, APOS O VENCIMENTO COBRAR 10% DE MULTA                                NAO RECEBER APOS 30 DIAS DO VENCIMENTO.                                                                                                                                                                                                         06121800000000000000612180000000000000       0090770900016748163309121812000018
100000000000000000000009077090001674800000000000000000000000010002100077027612181500000000002            2  01770276121825121800000003358970000000001N061218000000000000000000000000000000000000000000000000000000000000000100077027604868CLINEU LISSONI                          AVENIDA VILA EMA - 1100 AP.41 - VILA PRU            03156000                                                            000020
2SR. CAIXA, APOS O VENCIMENTO COBRAR 10% DE MULTA                                NAO RECEBER APOS 30 DIAS DO VENCIMENTO.                                                                                                                                                                                                         06121800000000000000612180000000000000       0090770900016748770276121815000021
100000000000000000000009077090001674800000000000000000000000010002100029380712181200000000002            2  01293807121825121800000003130640000000001N061218000000000000000000000000000000000000000000000000000000000000000100029380708882EDUARDO MENDONCA DAMASCENO              RUA MONTE CASTELO - 296 AP.12 - AVIACAO             11702720                                                            000023
2SR. CAIXA, APOS O VENCIMENTO COBRAR 10% DE MULTA                                NAO RECEBER APOS 30 DIAS DO VENCIMENTO.                                                                                                                                                                                                         06121800000000000000612180000000000000       0090770900016748293807121812000024
100000000000000000000009077090001674800000000000000000000000010002100023988512181600000000002            2  01239885121825121800000003178820000000001N061218000000000000000000000000000000000000000000000000000000000000000100023988525634DALMY PIMENTA                           SAO CAETANO - 136 - VILA SAO VICENTE - U            38026220                                                            000026
2SR. CAIXA, APOS O VENCIMENTO COBRAR 10% DE MULTA                                NAO RECEBER APOS 30 DIAS DO VENCIMENTO.                                                                                                                                                                                                         06121800000000000000612180000000000000       0090770900016748239885121816000027
100000000000000000000009077090001674800000000000000000000000010002100004735212181800000000002            2  01047352121825121800000003456210000000001N061218000000000000000000000000000000000000000000000000000000000000000100004735273832DARIO LUIZ GONCALVES                    RUA MONTE CASTELO - 295 AP.113 - AVIACAO            11702720                                                            000029
2SR. CAIXA, APOS O VENCIMENTO COBRAR 10% DE MULTA                                NAO RECEBER APOS 30 DIAS DO VENCIMENTO.                                                                                                                                                                                                         06121800000000000000612180000000000000       0090770900016748047352121818000030
100000000000000000000009077090001674800000000000000000000000010002100007635212181800000000002            2  01076352121825121800000003090060000000001N061218000000000000000000000000000000000000000000000000000000000000000100007635293893SILVIO CARDOSO ZACARIAS                 RUA SOLIDONIO LEITE - 2718 AP.102 BLOCO             03275000                                                            000032
2SR. CAIXA, APOS O VENCIMENTO COBRAR 10% DE MULTA                                NAO RECEBER APOS 30 DIAS DO VENCIMENTO.                                                                                                                                                                                                         06121800000000000000612180000000000000       0090770900016748076352121818000033
100000000000000000000009077090001674800000000000000000000000010002100067192912181800000000002            2  01671929121825121800000003025080000000001N061218000000000000000000000000000000000000000000000000000000000000000100067192920800SONIA MARIA RIBEIRO SUDO                RUA INGAZEIRA - 133 - SAO MIGUEL - SAO P            08032080                                                            000035
2SR. CAIXA, APOS O VENCIMENTO COBRAR 10% DE MULTA                                NAO RECEBER APOS 30 DIAS DO VENCIMENTO.                                                                                                                                                                                                         06121800000000000000612180000000000000       0090770900016748671929121818000036
100000000000000000000009077090001674800000000000000000000000010002100007975912181100000000002            2  01079759121825121800000003361820000000001N061218000000000000000000000000000000000000000000000000000000000000000100007975958808JOCY VIGNADO                            RUA PEDRO GONCALVES SOBRINHO - 568 - PAR            13098641                                                            000038
2SR. CAIXA, APOS O VENCIMENTO COBRAR 10% DE MULTA                                NAO RECEBER APOS 30 DIAS DO VENCIMENTO.                                                                                                                                                                                                         06121800000000000000612180000000000000       0090770900016748079759121811000039
100000000000000000000009077090001674800000000000000000000000010002100036712512181400000000002            2  01367125121825121800000003143430000000001N061218000000000000000000000000000000000000000000000000000000000000000100036712580803WALTER BARRETO DE ALMEIDA               RUA MONTE CASTELO - 296 AP.44 - AVIACAO             11702720                                                            000041
2SR. CAIXA, APOS O VENCIMENTO COBRAR 10% DE MULTA                                NAO RECEBER APOS 30 DIAS DO VENCIMENTO.                                                                                                                                                                                                         06121800000000000000612180000000000000       0090770900016748367125121814000042
100000000000000000000009077090001674800000000000000000000000010002100036386812181300000000002            2  01363868121825121800000003550590000000001N061218000000000000000000000000000000000000000000000000000000000000000100036386861833ALINE LEE WEI DE SOUZA                  AV. PRES.CASTELO BRANCO - 9127 AP.251 BL            11704600                                                            000044
2SR. CAIXA, APOS O VENCIMENTO COBRAR 10% DE MULTA                                NAO RECEBER APOS 30 DIAS DO VENCIMENTO.                                                                                                                                                                                                         06121800000000000000612180000000000000       0090770900016748363868121813000045
100000000000000000000009077090001674800000000000000000000000010002100070465312181400000000002            2  01704653121825121800000003229710000000001N061218000000000000000000000000000000000000000000000000000000000000000100070465320953SIDNEY CARASKI                          RUA DR.CELSO PACHECO BENTIM - 502 - PARQ            03571020                                                            000047
2SR. CAIXA, APOS O VENCIMENTO COBRAR 10% DE MULTA                                NAO RECEBER APOS 30 DIAS DO VENCIMENTO.                                                                                                                                                                                                         06121800000000000000612180000000000000       0090770900016748704653121814000048
100000000000000000000009077090001674800000000000000000000000010002100075759412181P00000000002            2  01757594121825121800000002529130000000001N061218000000000000000000000000000000000000000000000000000000000000000100075759446800VALTER MUTAFEI                          RUA MONTE CASTELO - 295 AP.54 - AVIACAO             11702720                                                            000050
2SR. CAIXA, APOS O VENCIMENTO COBRAR 10% DE MULTA                                NAO RECEBER APOS 30 DIAS DO VENCIMENTO.                                                                                                                                                                                                         06121800000000000000612180000000000000       009077090001674875759412181P000051
100000000000000000000009077090001674800000000000000000000000010002100070328712181800000000002            2  01703287121825121800000003613510000000001N061218000000000000000000000000000000000000000000000000000000000000000100070328706868VALTER LIMA FERNANDES                   RUA DOMINGOS JORGE VELHO - 52 - CENTRO -            06843550                                                            000053
2SR. CAIXA, APOS O VENCIMENTO COBRAR 10% DE MULTA                                NAO RECEBER APOS 30 DIAS DO VENCIMENTO.                                                                                                                                                                                                         06121800000000000000612180000000000000       0090770900016748703287121818000054
100000000000000000000009077090001674800000000000000000000000010002100023132612181300000000002            2  01231326121825121800000001962830000000001N061218000000000000000000000000000000000000000000000000000000000000000100023132672882LEANDRO MORENO                          RUA MONTE CASTELO - 296 AP.64 - AVIACAO             11702720                                                            000056
2SR. CAIXA, APOS O VENCIMENTO COBRAR 10% DE MULTA                                NAO RECEBER APOS 30 DIAS DO VENCIMENTO.                                                                                                                                                                                                         06121800000000000000612180000000000000       0090770900016748231326121813000057
100000000000000000000009077090001674800000000000000000000000010002100099264612181200000000002            2  01992646121825121800000003347390000000001N061218000000000000000000000000000000000000000000000000000000000000000100099264692800LEONTINO PINHEIRO DA SILVA              AVENIDA JOAO BATISTA FITIPALDI - 469 - V            08685000                                                            000059
2SR. CAIXA, APOS O VENCIMENTO COBRAR 10% DE MULTA                                NAO RECEBER APOS 30 DIAS DO VENCIMENTO.                                                                                                                                                                                                         06121800000000000000612180000000000000       0090770900016748992646121812000060
100000000000000000000009077090001674800000000000000000000000010002100000666312181300000000002            2  01006663121825121800000003229310000000001N061218000000000000000000000000000000000000000000000000000000000000000100000666344825LUIZ HENRIQUE DE CAMPOS                 RUA JOAO CARLOS CAVALCANTI REIS - 21 - J            02281206                                                            000062
2SR. CAIXA, APOS O VENCIMENTO COBRAR 10% DE MULTA                                NAO RECEBER APOS 30 DIAS DO VENCIMENTO.                                                                                                                                                                                                         06121800000000000000612180000000000000       0090770900016748006663121813000063
100000000000000000000009077090001674800000000000000000000000010002100029155012181300000000002            2  01291550121825121800000003410280000000001N061218000000000000000000000000000000000000000000000000000000000000000100029155026842DANIELA YOSHIDA                         RUA MONTE CASTELO - 262 AP.34 - AVIACAO             11702720                                                            000065
2SR. CAIXA, APOS O VENCIMENTO COBRAR 10% DE MULTA                                NAO RECEBER APOS 30 DIAS DO VENCIMENTO.                                                                                                                                                                                                         06121800000000000000612180000000000000       0090770900016748291550121813000066
100000000000000000000009077090001674800000000000000000000000010002100001204412181700000000002            2  01012044121825121800000002777170000000001N061218000000000000000000000000000000000000000000000000000000000000000100001204431809CEZAR TALAVERA JUNIOR                   RUA MAESTRO ARTURO DE ANGELIS  - 190 AP.            05139010                                                            000068
2SR. CAIXA, APOS O VENCIMENTO COBRAR 10% DE MULTA                                NAO RECEBER APOS 30 DIAS DO VENCIMENTO.                                                                                                                                                                                                         06121800000000000000612180000000000000       0090770900016748012044121817000069
100000000000000000000009077090001674800000000000000000000000010002100004227512181600000000002            2  01042275121825121800000003600070000000001N061218000000000000000000000000000000000000000000000000000000000000000100004227553970ALESSANDRO ISRAEL GOULART               RUA PROFESSORA CARLINDA RIBEIRO - 21 - F            02866200                                                            000071
2SR. CAIXA, APOS O VENCIMENTO COBRAR 10% DE MULTA                                NAO RECEBER APOS 30 DIAS DO VENCIMENTO.                                                                                                                                                                                                         06121800000000000000612180000000000000       0090770900016748042275121816000072
100000000000000000000009077090001674800000000000000000000000010002100060811412181P00000000002            2  01608114121825121800000003317880000000001N061218000000000000000000000000000000000000000000000000000000000000000100060811420868HELIO BASSI                             AV.PARIS,575 - PRACA ANTONIO FIGUEROA -             11700082                                                            000074
2SR. CAIXA, APOS O VENCIMENTO COBRAR 10% DE MULTA                                NAO RECEBER APOS 30 DIAS DO VENCIMENTO.                                                                                                                                                                                                         06121800000000000000612180000000000000       009077090001674860811412181P000075
100000000000000000000009077090001674800000000000000000000000010002100001024712181P00000000002            2  01010247121825121800000003139600000000001N061218000000000000000000000000000000000000000000000000000000000000000100001024794881CLAUDIO RODRIGUES                       RUA ARACATUBA - 242 - LAPA - SAO PAULO -            05058010                                                            000077
2SR. CAIXA, APOS O VENCIMENTO COBRAR 10% DE MULTA                                NAO RECEBER APOS 30 DIAS DO VENCIMENTO.                                                                                                                                                                                                         06121800000000000000612180000000000000       009077090001674801024712181P000078
100000000000000000000009077090001674800000000000000000000000010002100002225012181000000000002            2  01022250121825121800000004813420000000001N061218000000000000000000000000000000000000000000000000000000000000000100002225072841PEDRO EDUARDO DE AZEVEDO                RUA NATH ZILMAN - 46 - JARDIM SAMAMBAIA             07600000                                                            000080
2SR. CAIXA, APOS O VENCIMENTO COBRAR 10% DE MULTA                                NAO RECEBER APOS 30 DIAS DO VENCIMENTO.                                                                                                                                                                                                         06121800000000000000612180000000000000       0090770900016748022250121810000081
100000000000000000000009077090001674800000000000000000000000010002100022037512181900000000002            2  01220375121825121800000003349610000000001N061218000000000000000000000000000000000000000000000000000000000000000100022037552882ANDREIA CRISTINA FERNANDES DANTAS       PCA CASTRO ALVES - 163 AP.33 - VILA SAO             13224299                                                            000083
2SR. CAIXA, APOS O VENCIMENTO COBRAR 10% DE MULTA                                NAO RECEBER APOS 30 DIAS DO VENCIMENTO.                                                                                                                                                                                                         06121800000000000000612180000000000000       0090770900016748220375121819000084
100000000000000000000009077090001674800000000000000000000000010002100019288712181700000000002            2  01192887121825121800000002727350000000001N061218000000000000000000000000000000000000000000000000000000000000000100019288787844EMERSON LUIZ MARTINEZ PEREIRA           RUA MONTE CASTELO - 296 AP.74 - AVIACAO             11702720                                                            000086
2SR. CAIXA, APOS O VENCIMENTO COBRAR 10% DE MULTA                                NAO RECEBER APOS 30 DIAS DO VENCIMENTO.                                                                                                                                                                                                         06121800000000000000612180000000000000       0090770900016748192887121817000087
100000000000000000000009077090001674800000000000000000000000010002100027198412181000000000002            2  01271984121825121800000009294100000000001N061218000000000000000000000000000000000000000000000000000000000000000100027198452809CRISTIANE AURELIANO DA SILVA MAIA       RUA MONTE CASTELO - 262 AP.25 - AVIACAO             11702720                                                            000089
2SR. CAIXA, APOS O VENCIMENTO COBRAR 10% DE MULTA                                NAO RECEBER APOS 30 DIAS DO VENCIMENTO.                                                                                                                                                                                                         06121800000000000000612180000000000000       0090770900016748271984121810000090
100000000000000000000009077090001674800000000000000000000000010002100027198412182900000000002            2  01271984121825121800000002310210000000001N061218000000000000000000000000000000000000000000000000000000000000000100027198452809CRISTIANE AURELIANO DA SILVA MAIA       RUA MONTE CASTELO - 262 AP.25 - AVIACAO             11702720                                                            000092
2SR. CAIXA, APOS O VENCIMENTO COBRAR 10% DE MULTA                                NAO RECEBER APOS 30 DIAS DO VENCIMENTO.                                                                                                                                                                                                         06121800000000000000612180000000000000       0090770900016748271984121829000093
100000000000000000000009077090001674800000000000000000000000010002100021246212181400000000002            2  01212462121825121800000002819370000000001N061218000000000000000000000000000000000000000000000000000000000000000100021246231840ALEXANDRO DA CUNHA MIGUES               AVENIDA CONSELHEIRO CARRAO - 1861 CONJ.5            03403001                                                            000095
2SR. CAIXA, APOS O VENCIMENTO COBRAR 10% DE MULTA                                NAO RECEBER APOS 30 DIAS DO VENCIMENTO.                                                                                                                                                                                                         06121800000000000000612180000000000000       0090770900016748212462121814000096
100000000000000000000009077090001674800000000000000000000000010002100018834212181200000000002            2  01188342121825121800000003293320000000001N061218000000000000000000000000000000000000000000000000000000000000000100018834257863ILTON FERNANDO MUTCHNIK                 RUA ASSUNGUI - 700 AP.222 - VILA GUMERCI            04131001                                                            000098
2SR. CAIXA, APOS O VENCIMENTO COBRAR 10% DE MULTA                                NAO RECEBER APOS 30 DIAS DO VENCIMENTO.                                                                                                                                                                                                         06121800000000000000612180000000000000       0090770900016748188342121812000099
100000000000000000000009077090001674800000000000000000000000010002100018470512181400000000002            2  01184705121825121800000004147700000000001N061218000000000000000000000000000000000000000000000000000000000000000100018470520881SILVANA ALVES DE OLIVEIRA               RUA MONTE CASTELO - 262 AP.91 - AVIACAO             11702720                                                            000101
2SR. CAIXA, APOS O VENCIMENTO COBRAR 10% DE MULTA                                NAO RECEBER APOS 30 DIAS DO VENCIMENTO.                                                                                                                                                                                                         06121800000000000000612180000000000000       0090770900016748184705121814000102
100000000000000000000009077090001674800000000000000000000000010002100009297512181400000000002            2  01092975121825121800000002887580000000001N061218000000000000000000000000000000000000000000000000000000000000000100009297523846MARCOS ROBERTO DE CASTRO FERREIRA       RUA MONTE CASTELO - 262 AP.105 - AVIACAO            11702720                                                            000104
2SR. CAIXA, APOS O VENCIMENTO COBRAR 10% DE MULTA                                NAO RECEBER APOS 30 DIAS DO VENCIMENTO.                                                                                                                                                                                                         06121800000000000000612180000000000000       0090770900016748092975121814000105
100000000000000000000009077090001674800000000000000000000000010002100001164112181300000000002            2  01011641121825121800000003578380000000001N061218000000000000000000000000000000000000000000000000000000000000000100001164158864DAVID BLEY LACERDA                      RUA CONEGO ARAUJO MARCONDES - 188 - BAIR            02550080                                                            000107
2SR. CAIXA, APOS O VENCIMENTO COBRAR 10% DE MULTA                                NAO RECEBER APOS 30 DIAS DO VENCIMENTO.                                                                                                                                                                                                         06121800000000000000612180000000000000       0090770900016748011641121813000108
100000000000000000000009077090001674800000000000000000000000010002100031498012181700000000002            2  01314980121825121800000004349010000000001N061218000000000000000000000000000000000000000000000000000000000000000100031498008895POLIANE  SIBELE DA SILVA                PRACA GENERAL COSTA BARRETO - 56 AP.181             03325070                                                            000110
2SR. CAIXA, APOS O VENCIMENTO COBRAR 10% DE MULTA                                NAO RECEBER APOS 30 DIAS DO VENCIMENTO.                                                                                                                                                                                                         06121800000000000000612180000000000000       0090770900016748314980121817000111
100000000000000000000009077090001674800000000000000000000000010002100000588112181000000000002            2  01005881121825121800000002550780000000001N061218000000000000000000000000000000000000000000000000000000000000000100000588109860JOSE LIARTE GIANTE                      AVENIDA LUIZ GONZAGA DO AMARAL - 143 - J            09320630                                                            000113
2SR. CAIXA, APOS O VENCIMENTO COBRAR 10% DE MULTA                                NAO RECEBER APOS 30 DIAS DO VENCIMENTO.                                                                                                                                                                                                         06121800000000000000612180000000000000       0090770900016748005881121810000114
100000000000000000000009077090001674800000000000000000000000010002100014386812181300000000002            2  01143868121825121800000002040510000000001N061218000000000000000000000000000000000000000000000000000000000000000100014386860134SEVERINO CARLOS DE OLIVEIRA             RUA MONTE CASTELO - 262 AP.54 - AVIACAO             11702720                                                            000116
2SR. CAIXA, APOS O VENCIMENTO COBRAR 10% DE MULTA                                NAO RECEBER APOS 30 DIAS DO VENCIMENTO.                                                                                                                                                                                                         06121800000000000000612180000000000000       0090770900016748143868121813000117
100000000000000000000009077090001674800000000000000000000000010002100029088212181000000000002            2  01290882121825121800000002268520000000001N061218000000000000000000000000000000000000000000000000000000000000000100029088221804FABIANO SPERANDEO                       RUA MONTE CASTELO - 296 AP.93 - AVIACAO             11702720                                                            000119
2SR. CAIXA, APOS O VENCIMENTO COBRAR 10% DE MULTA                                NAO RECEBER APOS 30 DIAS DO VENCIMENTO.                                                                                                                                                                                                         06121800000000000000612180000000000000       0090770900016748290882121810000120
100000000000000000000009077090001674800000000000000000000000010002100039393712181900000000002            2  01393937121825121800000001406330000000001N061218000000000000000000000000000000000000000000000000000000000000000100039393790850NAIRON RICARDO DE ARAUJO SANTOS         RUA MONTE CASTELO - 262 AP.23 - AVIACAO             11702720                                                            000122
2SR. CAIXA, APOS O VENCIMENTO COBRAR 10% DE MULTA                                NAO RECEBER APOS 30 DIAS DO VENCIMENTO.                                                                                                                                                                                                         06121800000000000000612180000000000000       0090770900016748393937121819000123
100000000000000000000009077090001674800000000000000000000000010002100041896812181P00000000002            2  01418968121825121800000002048110000000001N061218000000000000000000000000000000000000000000000000000000000000000100041896807968SERGIO ROBERTO DA SILVA                 RUA DOS INGLESES - 542 AP.61 - MORRO DOS            01329000                                                            000125
2SR. CAIXA, APOS O VENCIMENTO COBRAR 10% DE MULTA                                NAO RECEBER APOS 30 DIAS DO VENCIMENTO.                                                                                                                                                                                                         06121800000000000000612180000000000000       009077090001674841896812181P000126
9                                                                                                                                                                                                                                                                                                                                                                                                         000127