01REMESSA01COBRANCA       00000000000005331186HB SANTOS CONSTRUTORA E INCORP237BRADESCO       070324        MX0000093                                                                                                                                                                                                                                                                                     000001
100000000000000000000009033990000995400000000000000000000000010002020005723203241800000000002            2  01057232032423032400000003299510000000001N060324000000000000000000000000000000000000000000000000000000000000000100005723255843FRANCISCO DE ASSIS DA SILVA             PRACA NICOLAU GERAIGIRE - 25 VISOR - JAR            11095110                                                            000002
2SR. CAIXA, APOS O VENCIMENTO COBRAR 2% DE MULTA                                 NAO RECEBER APOS 30 DIAS DO VENCIMENTO.                                                                                                                                                                                                         07032400000000000000703240000000000000       0090339900009954057232032418000003
100000000000000000000009033990000995400000000000000000000000010002020032589103241100000000002            2  01325891032423032400000003122010000000001N060324000000000000000000000000000000000000000000000000000000000000000100032589165862RENATA ISABEL MARTINS SILVA             RUA HERCULANO DE FREITAS - 257 - FUNDACA            09520280                                                            000005
2SR. CAIXA, APOS O VENCIMENTO COBRAR 2% DE MULTA                                 NAO RECEBER APOS 30 DIAS DO VENCIMENTO.                                                                                                                                                                                                         07032400000000000000703240000000000000       0090339900009954325891032411000006
100000000000000000000009033990000995400000000000000000000000010002020046391203241000000000002            2  01463912032423032400000003273820000000001N060324000000000000000000000000000000000000000000000000000000000000000100046391265810PAMELLA RODRIGUES DE OLIVEIRA           RUA AUGUSTA - 183 AP.301 BL.2A - VILA AU            07025130                                                            000008
2SR. CAIXA, APOS O VENCIMENTO COBRAR 2% DE MULTA                                 NAO RECEBER APOS 30 DIAS DO VENCIMENTO.                                                                                                                                                                                                         07032400000000000000703240000000000000       0090339900009954463912032410000009
100000000000000000000009033990000995400000000000000000000000010002020027964503241900000000002            2  01279645032423032400000003252810000000001N060324000000000000000000000000000000000000000000000000000000000000000100027964512838FABIO TADEU DE CAMPOS RADZIAVICIUS      RUA URUGUAI - 89 AP.94 - JARDIM GUILHERM            11702300                                                            000011
2SR. CAIXA, APOS O VENCIMENTO COBRAR 2% DE MULTA                                 NAO RECEBER APOS 30 DIAS DO VENCIMENTO.                                                                                                                                                                                                         07032400000000000000703240000000000000       0090339900009954279645032419000012
100000000000000000000009033990000995400000000000000000000000010002020011498303241700000000002            2  01114983032423032400000002437080000000001N060324000000000000000000000000000000000000000000000000000000000000000100011498329837GERSON GERALDO DAS NEVES                RUA DOMINGOS DELGADO - 144 - VILA SOUZA             02881070                                                            000014
2SR. CAIXA, APOS O VENCIMENTO COBRAR 2% DE MULTA                                 NAO RECEBER APOS 30 DIAS DO VENCIMENTO.                                                                                                                                                                                                         07032400000000000000703240000000000000       0090339900009954114983032417000015
100000000000000000000009033990000995400000000000000000000000010002020025214403241300000000002            2  01252144032423032400000002884740000000001N060324000000000000000000000000000000000000000000000000000000000000000100025214401833JOSE MAURICIO DOS SANTOS RODRIGUES      RUA JOAO DE MACEDO RIBEIRO - 49 - VILA N            08111101                                                            000017
2SR. CAIXA, APOS O VENCIMENTO COBRAR 2% DE MULTA                                 NAO RECEBER APOS 30 DIAS DO VENCIMENTO.                                                                                                                                                                                                         07032400000000000000703240000000000000       0090339900009954252144032413000018
100000000000000000000009033990000995400000000000000000000000010002020033119103241000000000002            2  01331191032423032400000002896950000000001N060324000000000000000000000000000000000000000000000000000000000000000100033119178802HUGO GOMES VENDRAME                     RUA SAO PAULO - 60 CASA 01 - VILA FREITA            06380110                                                            000020
2SR. CAIXA, APOS O VENCIMENTO COBRAR 2% DE MULTA                                 NAO RECEBER APOS 30 DIAS DO VENCIMENTO.                                                                                                                                                                                                         07032400000000000000703240000000000000       0090339900009954331191032410000021
100000000000000000000009033990000995400000000000000000000000010002020016631503241300000000002            2  01166315032423032400000002947510000000001N060324000000000000000000000000000000000000000000000000000000000000000100016631587468GILBERTO BEZERRA DA SILVA               AVENIDA JAIME TORRES - 745 CASA 3 - JARD            03670000                                                            000023
2SR. CAIXA, APOS O VENCIMENTO COBRAR 2% DE MULTA                                 NAO RECEBER APOS 30 DIAS DO VENCIMENTO.                                                                                                                                                                                                         07032400000000000000703240000000000000       0090339900009954166315032413000024
100000000000000000000009033990000995400000000000000000000000010002020007313203241600000000002            2  01073132032423032400000002926590000000001N060324000000000000000000000000000000000000000000000000000000000000000100007313251840SALVADOR GESUALDO PULVIRENTI            AVENIDA MARARI - 641 - VILA MARARI - SAO            04402010                                                            000026
2SR. CAIXA, APOS O VENCIMENTO COBRAR 2% DE MULTA                                 NAO RECEBER APOS 30 DIAS DO VENCIMENTO.                                                                                                                                                                                                         07032400000000000000703240000000000000       0090339900009954073132032416000027
100000000000000000000009033990000995400000000000000000000000010002020010676703241800000000002            2  01106767032423032400000003054650000000001N060324000000000000000000000000000000000000000000000000000000000000000100010676723896MERCEDES CRISTINA ROCHA SANDOVAL        RUA URUGUAI - 89 AP.83 - JARDIM GUILHERM            11702300                                                            000029
2SR. CAIXA, APOS O VENCIMENTO COBRAR 2% DE MULTA                                 NAO RECEBER APOS 30 DIAS DO VENCIMENTO.                                                                                                                                                                                                         07032400000000000000703240000000000000       0090339900009954106767032418000030
100000000000000000000009033990000995400000000000000000000000010002020009502803241600000000002            2  01095028032423032400000003190070000000001N060324000000000000000000000000000000000000000000000000000000000000000100009502844831CLAUDIA ROCHA SANDOVAL                  RUA URUGUAI - 89 AP.64 - JARDIM GUILHERM            11702300                                                            000032
2SR. CAIXA, APOS O VENCIMENTO COBRAR 2% DE MULTA                                 NAO RECEBER APOS 30 DIAS DO VENCIMENTO.                                                                                                                                                                                                         07032400000000000000703240000000000000       0090339900009954095028032416000033
100000000000000000000009033990000995400000000000000000000000010002020007594203241500000000002            2  01075942032423032400000002863830000000001N060324000000000000000000000000000000000000000000000000000000000000000100007594247809JOSE LUIS DE OLIVEIRA                   DONA EGLANTINA PENTEADO DA SILVA PRADO -            13044162                                                            000035
2SR. CAIXA, APOS O VENCIMENTO COBRAR 2% DE MULTA                                 NAO RECEBER APOS 30 DIAS DO VENCIMENTO.                                                                                                                                                                                                         07032400000000000000703240000000000000       0090339900009954075942032415000036
100000000000000000000009033990000995400000000000000000000000010002020005288703241900000000002            2  01052887032423032400000002950030000000001N060324000000000000000000000000000000000000000000000000000000000000000100005288796858MARCELO RODRIGUES FERREIRA              RUA MARCOS ANTONIO MARQUES - 302 - JARDI            06433020                                                            000038
2SR. CAIXA, APOS O VENCIMENTO COBRAR 2% DE MULTA                                 NAO RECEBER APOS 30 DIAS DO VENCIMENTO.                                                                                                                                                                                                         07032400000000000000703240000000000000       0090339900009954052887032419000039
100000000000000000000009033990000995400000000000000000000000010002020015835903241800000000002            2  01158359032423032400000003072020000000001N060324000000000000000000000000000000000000000000000000000000000000000100015835992823FLAVIO VERONEZ                          RUA ANDREA PAULINETTI - 127 AP.42 - BAIR            04707050                                                            000041
2SR. CAIXA, APOS O VENCIMENTO COBRAR 2% DE MULTA                                 NAO RECEBER APOS 30 DIAS DO VENCIMENTO.                                                                                                                                                                                                         07032400000000000000703240000000000000       0090339900009954158359032418000042
100000000000000000000009033990000995400000000000000000000000010002020000438103241600000000002            2  01004381032423032400000003467470000000001N060324000000000000000000000000000000000000000000000000000000000000000100000438161858WAGNECY VILLA NOVA LIEN                 RUA PROFESSOR FERREIRA PAULINO - 233 AP.            07025020                                                            000044
2SR. CAIXA, APOS O VENCIMENTO COBRAR 2% DE MULTA                                 NAO RECEBER APOS 30 DIAS DO VENCIMENTO.                                                                                                                                                                                                         07032400000000000000703240000000000000       0090339900009954004381032416000045
100000000000000000000009033990000995400000000000000000000000010002020026004503241200000000002            2  01260045032423032400000003072060000000001N060324000000000000000000000000000000000000000000000000000000000000000100026004595888EDIVALDO BEZERRA DA SILVA               AVENIDA GUATEMALA - 550 - JARDIM PINHEIR            09854750                                                            000047
2SR. CAIXA, APOS O VENCIMENTO COBRAR 2% DE MULTA                                 NAO RECEBER APOS 30 DIAS DO VENCIMENTO.                                                                                                                                                                                                         07032400000000000000703240000000000000       0090339900009954260045032412000048
100000000000000000000009033990000995400000000000000000000000010002020012470703241700000000002            2  01124707032423032400000003277680000000001N060324000000000000000000000000000000000000000000000000000000000000000100012470771870HILTON FERNANDES OLIVARES               RUA PATIO DA ESTACAO - 115 - BAIRRO CENT            09450000                                                            000050
2SR. CAIXA, APOS O VENCIMENTO COBRAR 2% DE MULTA                                 NAO RECEBER APOS 30 DIAS DO VENCIMENTO.                                                                                                                                                                                                         07032400000000000000703240000000000000       0090339900009954124707032417000051
100000000000000000000009033990000995400000000000000000000000010002020014025403241600000000002            2  01140254032423032400000003593880000000001N060324000000000000000000000000000000000000000000000000000000000000000100014025420899ANDREIA APARECIDA TAVARES BASTOS        RUA IBATIBA - 234 CASA 27 - RES.BOUGANVI            09220608                                                            000053
2SR. CAIXA, APOS O VENCIMENTO COBRAR 2% DE MULTA                                 NAO RECEBER APOS 30 DIAS DO VENCIMENTO.                                                                                                                                                                                                         07032400000000000000703240000000000000       0090339900009954140254032416000054
100000000000000000000009033990000995400000000000000000000000010002020018590003241500000000002            2  01185900032423032400000003254790000000001N060324000000000000000000000000000000000000000000000000000000000000000100018590038858JOSE SANDRO ROCHA SILVA                 RUA SANTO ANTONIO DO AVENTUREIRO - 216 A            07143040                                                            000056
2SR. CAIXA, APOS O VENCIMENTO COBRAR 2% DE MULTA                                 NAO RECEBER APOS 30 DIAS DO VENCIMENTO.                                                                                                                                                                                                         07032400000000000000703240000000000000       0090339900009954185900032415000057
100000000000000000000009033990000995400000000000000000000000010002020088578703241300000000002            2  01885787032423032400000002678230000000001N060324000000000000000000000000000000000000000000000000000000000000000100088578704800GILBERTO DO ESPIRITO SANTO SILVA        RUA URUGUAI - 89 AP.23 - JARDIM GUILHERM            11702300                                                            000059
2SR. CAIXA, APOS O VENCIMENTO COBRAR 2% DE MULTA                                 NAO RECEBER APOS 30 DIAS DO VENCIMENTO.                                                                                                                                                                                                         07032400000000000000703240000000000000       0090339900009954885787032413000060
100000000000000000000009033990000995400000000000000000000000010002020020792703241000000000002            2  01207927032423032400000003320730000000001N060324000000000000000000000000000000000000000000000000000000000000000120792791000147TROVAO COMERCIO DE ALIMENTOS LTDA-ME    RUA QUINTA DA MAGNOLIA - 67 - JARDIM IPA            03582100                                                            000062
2SR. CAIXA, APOS O VENCIMENTO COBRAR 2% DE MULTA                                 NAO RECEBER APOS 30 DIAS DO VENCIMENTO.                                                                                                                                                                                                         07032400000000000000703240000000000000       0090339900009954207927032410000063
100000000000000000000009033990000995400000000000000000000000010002020007648103241400000000002            2  01076481032423032400000003118150000000001N060324000000000000000000000000000000000000000000000000000000000000000100007648112825MARA REGINA CAPRIO                      RUA DA TRINDADE - 790 - VILA IDEAL - SAO            15060280                                                            000065
2SR. CAIXA, APOS O VENCIMENTO COBRAR 2% DE MULTA                                 NAO RECEBER APOS 30 DIAS DO VENCIMENTO.                                                                                                                                                                                                         07032400000000000000703240000000000000       0090339900009954076481032414000066
100000000000000000000009033990000995400000000000000000000000010002020031157403241300000000002            2  01311574032423032400000003348150000000001N060324000000000000000000000000000000000000000000000000000000000000000100031157420885TALITA ANICHIARICO COSSI                RUA CNEO POMPEO DE CAMARGO - 817 - JARDI            13060150                                                            000068
2SR. CAIXA, APOS O VENCIMENTO COBRAR 2% DE MULTA                                 NAO RECEBER APOS 30 DIAS DO VENCIMENTO.                                                                                                                                                                                                         07032400000000000000703240000000000000       0090339900009954311574032413000069
100000000000000000000009033990000995400000000000000000000000010002020035572503241800000000002            2  01355725032423032400000003559830000000001N060324000000000000000000000000000000000000000000000000000000000000000100035572536865MARIA SIMONE SANTOS                     RUA JOSE PEZZOLO - 68 - VILA ELDIZIA - S            09181660                                                            000071
2SR. CAIXA, APOS O VENCIMENTO COBRAR 2% DE MULTA                                 NAO RECEBER APOS 30 DIAS DO VENCIMENTO.                                                                                                                                                                                                         07032400000000000000703240000000000000       0090339900009954355725032418000072
100000000000000000000009033990000995400000000000000000000000010002020008800303241500000000002            2  01088003032423032400000003243480000000001N060324000000000000000000000000000000000000000000000000000000000000000100008800368425INGO DIMITRI PEREIRA DA NOBREGA         RUA PROFESSOR MENDES PIMENTEL - 362 - JA            03973010                                                            000074
2SR. CAIXA, APOS O VENCIMENTO COBRAR 2% DE MULTA                                 NAO RECEBER APOS 30 DIAS DO VENCIMENTO.                                                                                                                                                                                                         07032400000000000000703240000000000000       0090339900009954088003032415000075
100000000000000000000009033990000995400000000000000000000000010002020005054103241P00000000002            2  01050541032423032400000003138860000000001N060324000000000000000000000000000000000000000000000000000000000000000100005054169806PAULO ROBERTO DE MATTOS                 JARDIM BOTANICO - 849 - DISTRITO DE SOUS            13106258                                                            000077
2SR. CAIXA, APOS O VENCIMENTO COBRAR 2% DE MULTA                                 NAO RECEBER APOS 30 DIAS DO VENCIMENTO.                                                                                                                                                                                                         07032400000000000000703240000000000000       009033990000995405054103241P000078
100000000000000000000009033990000995400000000000000000000000010002020007552103241600000000002            2  01075521032423032400000003138860000000001N060324000000000000000000000000000000000000000000000000000000000000000100007552151846MAURO BORDONI                           AVENIDA DR. AUGUSTO DE TOLEDO - 769 AP.6            09540080                                                            000080
2SR. CAIXA, APOS O VENCIMENTO COBRAR 2% DE MULTA                                 NAO RECEBER APOS 30 DIAS DO VENCIMENTO.                                                                                                                                                                                                         07032400000000000000703240000000000000       0090339900009954075521032416000081
100000000000000000000009033990000995400000000000000000000000010002020012744203241900000000002            2  01127442032423032400000003492450000000001N060324000000000000000000000000000000000000000000000000000000000000000100012744201804ADAIL JOSE DE SOUSA                     RUA ROSARIA - 303 - BAIRRO SACADURA CABR            09061080                                                            000083
2SR. CAIXA, APOS O VENCIMENTO COBRAR 2% DE MULTA                                 NAO RECEBER APOS 30 DIAS DO VENCIMENTO.                                                                                                                                                                                                         07032400000000000000703240000000000000       0090339900009954127442032419000084
100000000000000000000009033990000995400000000000000000000000010002020068320603241600000000002            2  01683206032423032400000012368440000000001N060324000000000000000000000000000000000000000000000000000000000000000100068320663849ANTONIO CAVALCANTE LIMA                 RUA AMAZONAS - 1188 - CENTRO - SAO CAETA            09540201                                                            000086
2SR. CAIXA, APOS O VENCIMENTO COBRAR 2% DE MULTA                                 NAO RECEBER APOS 30 DIAS DO VENCIMENTO.                                                                                                                                                                                                         07032400000000000000703240000000000000       0090339900009954683206032416000087
100000000000000000000009033990000995400000000000000000000000010002020088926203241800000000002            2  01889262032423032400000002598310000000001N060324000000000000000000000000000000000000000000000000000000000000000100088926230872VALDEMAR LATANCE FILHO                  RUA MELO PINTO DA SILVA - 111 CASA 103 -            18116265                                                            000089
2SR. CAIXA, APOS O VENCIMENTO COBRAR 2% DE MULTA                                 NAO RECEBER APOS 30 DIAS DO VENCIMENTO.                                                                                                                                                                                                         07032400000000000000703240000000000000       0090339900009954889262032418000090
100000000000000000000009033990000995400000000000000000000000010002020004195303241500000000002            2  01041953032423032400000003391210000000001N060324000000000000000000000000000000000000000000000000000000000000000100004195345804LUIZ CARLOS SILVESTRE                   RUA CONDE VICENTE AZEVEDO - 377 - BAIRRO            04264000                                                            000092
2SR. CAIXA, APOS O VENCIMENTO COBRAR 2% DE MULTA                                 NAO RECEBER APOS 30 DIAS DO VENCIMENTO.                                                                                                                                                                                                         07032400000000000000703240000000000000       0090339900009954041953032415000093
9                                                                                                                                                                                                                                                                                                                                                                                                         000094