01REMESSA01COBRANCA       00000000000008017025HB SANTOS CONSTRUTORA E INCORP237BRADESCO       011023        MX0000187                                                                                                                                                                                                                                                                                     000001
100000000000000000000009033990000627000000000000000000000000010002020016479010231800000000002            2  01164790102309102300000005604350000000001N011023000000000000000000000000000000000000000000000000000000000000000100016479002806LOURDES PEREIRA DE QUEIROZ SECANECHIA   RUA PAULINO CURSI - 437 - CIDADE SAO MAT            03960060                                                            000002
2SR. CAIXA, APOS O VENCIMENTO COBRAR 2% DE MULTA                                 NAO RECEBER APOS 30 DIAS DO VENCIMENTO.                                                                                                                                                                                                         01102300000000000000110230000000000000       0090339900006270164790102318000003
100000000000000000000009033990000627000000000000000000000000010002020017229710232800000000002            2  01172297102309102300000004264870000000001N011023000000000000000000000000000000000000000000000000000000000000000100017229751802BERENICE VIEIRA KERSTING                RUA ATIBAIA - 17 AP.417 - BAIRRO IMPERAD            11707380                                                            000005
2SR. CAIXA, APOS O VENCIMENTO COBRAR 2% DE MULTA                                 NAO RECEBER APOS 30 DIAS DO VENCIMENTO.                                                                                                                                                                                                         01102300000000000000110230000000000000       0090339900006270172297102328000006
100000000000000000000009033990000627000000000000000000000000010002020009361410231500000000002            2  01093614102309102300000004068760000000001N011023000000000000000000000000000000000000000000000000000000000000000100009361471805JOSE BARBOSA DA SILVA                   RUA ALFREDO INACIO TRINDADE  - 60 AP.44             02344100                                                            000008
2SR. CAIXA, APOS O VENCIMENTO COBRAR 2% DE MULTA                                 NAO RECEBER APOS 30 DIAS DO VENCIMENTO.                                                                                                                                                                                                         01102300000000000000110230000000000000       0090339900006270093614102315000009
100000000000000000000009033990000627000000000000000000000000010002020012756910231900000000002            2  01127569102309102300000003512220000000001N011023000000000000000000000000000000000000000000000000000000000000000100012756959812ITAMAR JUVENAL DIAS DA SILVA            RUA ELISEU REINALDO MORAES VIEIRA - 90 A            02858000                                                            000011
2SR. CAIXA, APOS O VENCIMENTO COBRAR 2% DE MULTA                                 NAO RECEBER APOS 30 DIAS DO VENCIMENTO.                                                                                                                                                                                                         01102300000000000000110230000000000000       0090339900006270127569102319000012
100000000000000000000009033990000627000000000000000000000000010002020029433610231200000000002            2  01294336102311102300000002912810000000001N011023000000000000000000000000000000000000000000000000000000000000000100029433631897MARIO MUNIZ                             RUA JOSE CALIXTO DO CARMO - 286 AP.53 -             11702690                                                            000014
2SR. CAIXA, APOS O VENCIMENTO COBRAR 2% DE MULTA                                 NAO RECEBER APOS 30 DIAS DO VENCIMENTO.                                                                                                                                                                                                         01102300000000000000110230000000000000       0090339900006270294336102312000015
100000000000000000000009033990000627000000000000000000000000010002020005029810231500000000002            2  01050298102309102300000003580920000000001N011023000000000000000000000000000000000000000000000000000000000000000100005029828885LAURINETE DA CONCEICAO DE NORONHA       RUA MARIA LUCIA DE TOLEDO LEITE MORAES -            04434040                                                            000017
2SR. CAIXA, APOS O VENCIMENTO COBRAR 2% DE MULTA                                 NAO RECEBER APOS 30 DIAS DO VENCIMENTO.                                                                                                                                                                                                         01102300000000000000110230000000000000       0090339900006270050298102315000018
100000000000000000000009033990000627000000000000000000000000010002020013388910231700000000002            2  01133889102311102300000002839530000000001N011023000000000000000000000000000000000000000000000000000000000000000100013388936889NEUTON DE SOUZA RAMOS                   RUA JOSE CALIXTO DO CARMO - 286 AP.61 -             11702690                                                            000020
2SR. CAIXA, APOS O VENCIMENTO COBRAR 2% DE MULTA                                 NAO RECEBER APOS 30 DIAS DO VENCIMENTO.                                                                                                                                                                                                         01102300000000000000110230000000000000       0090339900006270133889102317000021
100000000000000000000009033990000627000000000000000000000000010002020012774910231700000000002            2  01127749102311102300000002892850000000001N011023000000000000000000000000000000000000000000000000000000000000000100012774906865JOSE MILTON SANTIAGO                    RUA BATATAIS - 47 - CIDADE ESTELA - POA             08563140                                                            000023
2SR. CAIXA, APOS O VENCIMENTO COBRAR 2% DE MULTA                                 NAO RECEBER APOS 30 DIAS DO VENCIMENTO.                                                                                                                                                                                                         01102300000000000000110230000000000000       0090339900006270127749102317000024
100000000000000000000009033990000627000000000000000000000000010002020005613810231700000000002            2  01056138102311102300000002660610000000001N011023000000000000000000000000000000000000000000000000000000000000000100005613843805NILZA MARIA DE OLIVEIRA                 RUA JOSE GONCALVES DE FREITAS - 66 C2 -             08210550                                                            000026
2SR. CAIXA, APOS O VENCIMENTO COBRAR 2% DE MULTA                                 NAO RECEBER APOS 30 DIAS DO VENCIMENTO.                                                                                                                                                                                                         01102300000000000000110230000000000000       0090339900006270056138102317000027
100000000000000000000009033990000627000000000000000000000000010002020007574910231700000000002            2  01075749102311102300000002731060000000001N011023000000000000000000000000000000000000000000000000000000000000000100007574936889JORGE LUCIANO PEREIRA BORRIELLO         RUA JOSE CALIXTO DO CARMO - 286 AP.54 -             11702690                                                            000029
2SR. CAIXA, APOS O VENCIMENTO COBRAR 2% DE MULTA                                 NAO RECEBER APOS 30 DIAS DO VENCIMENTO.                                                                                                                                                                                                         01102300000000000000110230000000000000       0090339900006270075749102317000030
100000000000000000000009033990000627000000000000000000000000010002020008214910231P00000000002            2  01082149102311102300000002772500000000001N011023000000000000000000000000000000000000000000000000000000000000000100008214973830JAMIL CHALA                             RUA JOSE CALIXTO DO CARMO - 286 AP.22 -             11702690                                                            000032
2SR. CAIXA, APOS O VENCIMENTO COBRAR 2% DE MULTA                                 NAO RECEBER APOS 30 DIAS DO VENCIMENTO.                                                                                                                                                                                                         01102300000000000000110230000000000000       009033990000627008214910231P000033
100000000000000000000009033990000627000000000000000000000000010002020032495010231700000000002            2  01324950102311102300000003106950000000001N011023000000000000000000000000000000000000000000000000000000000000000100032495004881PAULO EDUARDO DOS SANTOS                RUA REPUBLICA DO IRAQUE - 1119 - CAMPO B            04611002                                                            000035
2SR. CAIXA, APOS O VENCIMENTO COBRAR 2% DE MULTA                                 NAO RECEBER APOS 30 DIAS DO VENCIMENTO.                                                                                                                                                                                                         01102300000000000000110230000000000000       0090339900006270324950102317000036
100000000000000000000009033990000627000000000000000000000000010002020016498010231400000000002            2  01164980102311102300000002724860000000001N011023000000000000000000000000000000000000000000000000000000000000000100016498053810GILMA CEZARIO GARCIA CORRITORI          RUA LAURENTINO XAVIER DOS SANTOS - 336 -            08240740                                                            000038
2SR. CAIXA, APOS O VENCIMENTO COBRAR 2% DE MULTA                                 NAO RECEBER APOS 30 DIAS DO VENCIMENTO.                                                                                                                                                                                                         01102300000000000000110230000000000000       0090339900006270164980102314000039
100000000000000000000009033990000627000000000000000000000000010002020029339010231300000000002            2  01293390102311102300000002913780000000001N011023000000000000000000000000000000000000000000000000000000000000000100029339051831RONALD DIDOFF                           RUA CORONEL FERREIRA BRAGA - 188 - VILA             03522010                                                            000041
2SR. CAIXA, APOS O VENCIMENTO COBRAR 2% DE MULTA                                 NAO RECEBER APOS 30 DIAS DO VENCIMENTO.                                                                                                                                                                                                         01102300000000000000110230000000000000       0090339900006270293390102313000042
100000000000000000000009033990000627000000000000000000000000010002020017357810231500000000002            2  01173578102311102300000003085950000000001N011023000000000000000000000000000000000000000000000000000000000000000100017357859894MARCIO GUIMARAES                        RUA GENERAL CAMARA - 188 SALA 11 - CENTR            11010120                                                            000044
2SR. CAIXA, APOS O VENCIMENTO COBRAR 2% DE MULTA                                 NAO RECEBER APOS 30 DIAS DO VENCIMENTO.                                                                                                                                                                                                         01102300000000000000110230000000000000       0090339900006270173578102315000045
100000000000000000000009033990000627000000000000000000000000010002020010563010231500000000002            2  01105630102311102300000003164830000000001N011023000000000000000000000000000000000000000000000000000000000000000100010563033878VERA LUCIA RIBEIRO LONGANEZI            RUA DOS CAMARES - 150 AP.24 BL.02 - CARA            02068030                                                            000047
2SR. CAIXA, APOS O VENCIMENTO COBRAR 2% DE MULTA                                 NAO RECEBER APOS 30 DIAS DO VENCIMENTO.                                                                                                                                                                                                         01102300000000000000110230000000000000       0090339900006270105630102315000048
100000000000000000000009033990000627000000000000000000000000010002020005529610231P00000000002            2  01055296102311102300000002871970000000001N011023000000000000000000000000000000000000000000000000000000000000000100005529616801JOAQUIM JORGE DA COSTA                  RUA JOSE CALIXTO DO CARMO - 286 AP.106 -            11702690                                                            000050
2SR. CAIXA, APOS O VENCIMENTO COBRAR 2% DE MULTA                                 NAO RECEBER APOS 30 DIAS DO VENCIMENTO.                                                                                                                                                                                                         01102300000000000000110230000000000000       009033990000627005529610231P000051
100000000000000000000009033990000627000000000000000000000000010002020015550710231600000000002            2  01155507102309102300000002714340000000001N011023000000000000000000000000000000000000000000000000000000000000000100015550706806MARY MIWA                               RUA CARLOS JOSE BORSTENS - 50 AP.105 - A            11702750                                                            000053
2SR. CAIXA, APOS O VENCIMENTO COBRAR 2% DE MULTA                                 NAO RECEBER APOS 30 DIAS DO VENCIMENTO.                                                                                                                                                                                                         01102300000000000000110230000000000000       0090339900006270155507102316000054
100000000000000000000009033990000627000000000000000000000000010002020015464610231600000000002            2  01154646102311102300000003019130000000001N011023000000000000000000000000000000000000000000000000000000000000000100015464647864SONIA TERESA VOLPATO                    RUA JOSE CALIXTO DO CARMO - 286 AP.73 -             11702690                                                            000056
2SR. CAIXA, APOS O VENCIMENTO COBRAR 2% DE MULTA                                 NAO RECEBER APOS 30 DIAS DO VENCIMENTO.                                                                                                                                                                                                         01102300000000000000110230000000000000       0090339900006270154646102316000057
100000000000000000000009033990000627000000000000000000000000010002020008657810231500000000002            2  01086578102311102300000002988830000000001N011023000000000000000000000000000000000000000000000000000000000000000100008657886855ARLINDO DA CRUZ                         AVENIDA ARICANDUVA - 8.256 AP.54 BL.10 -            03951220                                                            000059
2SR. CAIXA, APOS O VENCIMENTO COBRAR 2% DE MULTA                                 NAO RECEBER APOS 30 DIAS DO VENCIMENTO.                                                                                                                                                                                                         01102300000000000000110230000000000000       0090339900006270086578102315000060
100000000000000000000009033990000627000000000000000000000000010002020059735110231300000000002            2  01597351102309102300000001689310000000001N011023000000000000000000000000000000000000000000000000000000000000000100059735180863HELIO JOSE MARQUES                      RUA MARTIM AFONSO DE SOUZA - 1007 AP.102            11702790                                                            000062
2SR. CAIXA, APOS O VENCIMENTO COBRAR 2% DE MULTA                                 NAO RECEBER APOS 30 DIAS DO VENCIMENTO.                                                                                                                                                                                                         01102300000000000000110230000000000000       0090339900006270597351102313000063
100000000000000000000009033990000627000000000000000000000000010002020026347810231700000000002            2  01263478102311102300000003194960000000001N011023000000000000000000000000000000000000000000000000000000000000000100026347872862VALDECI SILVA MEIRELES                  RUA JOSE BATISTA DA SILVA - 292 - JARDIM            06851470                                                            000065
2SR. CAIXA, APOS O VENCIMENTO COBRAR 2% DE MULTA                                 NAO RECEBER APOS 30 DIAS DO VENCIMENTO.                                                                                                                                                                                                         01102300000000000000110230000000000000       0090339900006270263478102317000066
100000000000000000000009033990000627000000000000000000000000010002020013135210231800000000002            2  01131352102311102300000002935340000000001N011023000000000000000000000000000000000000000000000000000000000000000100013135261859EDUARDO ZANOLA                          RUA ROLANDO PIETRO BONINI - 46 - JARDIM             09781040                                                            000068
2SR. CAIXA, APOS O VENCIMENTO COBRAR 2% DE MULTA                                 NAO RECEBER APOS 30 DIAS DO VENCIMENTO.                                                                                                                                                                                                         01102300000000000000110230000000000000       0090339900006270131352102318000069
100000000000000000000009033990000627000000000000000000000000010002020009797610231900000000002            2  01097976102311102300000002858700000000001N011023000000000000000000000000000000000000000000000000000000000000000100009797626857RICARDO SOBRAL DE OLIVEIRA              RUA 23 DE MAIO - 139 AP.32 - VILA MIRIM             11704690                                                            000071
2SR. CAIXA, APOS O VENCIMENTO COBRAR 2% DE MULTA                                 NAO RECEBER APOS 30 DIAS DO VENCIMENTO.                                                                                                                                                                                                         01102300000000000000110230000000000000       0090339900006270097976102319000072
100000000000000000000009033990000627000000000000000000000000010002020022728410231P00000000002            2  01227284102311102300000003093340000000001N011023000000000000000000000000000000000000000000000000000000000000000100022728497842WILLIAN DE SOUZA MELLO                  RUA JOSE CALIXTO DO CARMO - 286 AP.111 -            11702690                                                            000074
2SR. CAIXA, APOS O VENCIMENTO COBRAR 2% DE MULTA                                 NAO RECEBER APOS 30 DIAS DO VENCIMENTO.                                                                                                                                                                                                         01102300000000000000110230000000000000       009033990000627022728410231P000075
100000000000000000000009033990000627000000000000000000000000010002020016909710231400000000002            2  01169097102311102300000002733540000000001N011023000000000000000000000000000000000000000000000000000000000000000100016909746805EDIVALDO SANTANA DOS SANTOS             ESTRADA JOAO GASPAR DELGADO - 80 AP.213             08536100                                                            000077
2SR. CAIXA, APOS O VENCIMENTO COBRAR 2% DE MULTA                                 NAO RECEBER APOS 30 DIAS DO VENCIMENTO.                                                                                                                                                                                                         01102300000000000000110230000000000000       0090339900006270169097102314000078
100000000000000000000009033990000627000000000000000000000000010002020022036010231100000000002            2  01220360102309102300000004243230000000001N011023000000000000000000000000000000000000000000000000000000000000000100022036003818DERLIS TERAN QUIROGA ROGATO             RUA JOAO RIBEIRO - 320 AP.131SB - CAMPES            09070250                                                            000080
2SR. CAIXA, APOS O VENCIMENTO COBRAR 2% DE MULTA                                 NAO RECEBER APOS 30 DIAS DO VENCIMENTO.                                                                                                                                                                                                         01102300000000000000110230000000000000       0090339900006270220360102311000081
100000000000000000000009033990000627000000000000000000000000010002020017229710233600000000002            2  01172297102309102300000004095090000000001N011023000000000000000000000000000000000000000000000000000000000000000100017229751802BERENICE VIEIRA KERSTING                RUA ATIBAIA - 17 AP.417 - BAIRRO IMPERAD            11707380                                                            000083
2SR. CAIXA, APOS O VENCIMENTO COBRAR 2% DE MULTA                                 NAO RECEBER APOS 30 DIAS DO VENCIMENTO.                                                                                                                                                                                                         01102300000000000000110230000000000000       0090339900006270172297102336000084
100000000000000000000009033990000627000000000000000000000000010002020033451610231200000000002            2  01334516102311102300000002474330000000001N011023000000000000000000000000000000000000000000000000000000000000000100033451620839ARAO ELISIARIO  NUNES                   RUA JOSE CALIXTO DO CARMO - 286 AP.64 -             11702690                                                            000086
2SR. CAIXA, APOS O VENCIMENTO COBRAR 2% DE MULTA                                 NAO RECEBER APOS 30 DIAS DO VENCIMENTO.                                                                                                                                                                                                         01102300000000000000110230000000000000       0090339900006270334516102312000087
100000000000000000000009033990000627000000000000000000000000010002020011369110231000000000002            2  01113691102311102300000002702890000000001N011023000000000000000000000000000000000000000000000000000000000000000100011369165803ELIANA CORREA DE OLIVEIRA               RUA MAESTRO ZEFERINO SANTANA - 65 - VILA            18040010                                                            000089
2SR. CAIXA, APOS O VENCIMENTO COBRAR 2% DE MULTA                                 NAO RECEBER APOS 30 DIAS DO VENCIMENTO.                                                                                                                                                                                                         01102300000000000000110230000000000000       0090339900006270113691102310000090
100000000000000000000009033990000627000000000000000000000000010002020002253810231400000000002            2  01022538102311102300000002402340000000001N011023000000000000000000000000000000000000000000000000000000000000000100002253816809EDMILSON ALVES DA SILVA                 RUA JOSE CALIXTO DO CARMO - 286 AP.93 -             11702690                                                            000092
2SR. CAIXA, APOS O VENCIMENTO COBRAR 2% DE MULTA                                 NAO RECEBER APOS 30 DIAS DO VENCIMENTO.                                                                                                                                                                                                         01102300000000000000110230000000000000       0090339900006270022538102314000093
100000000000000000000009033990000627000000000000000000000000010002020037947010231600000000002            2  01379470102311102300000004266720000000001N011023000000000000000000000000000000000000000000000000000000000000000100037947070873BRUNO DE CAETANO MARRINHAS              AVENIDA GENERAL BARRETO DE MENEZES - 323            09791150                                                            000095
2SR. CAIXA, APOS O VENCIMENTO COBRAR 2% DE MULTA                                 NAO RECEBER APOS 30 DIAS DO VENCIMENTO.                                                                                                                                                                                                         01102300000000000000110230000000000000       0090339900006270379470102316000096
100000000000000000000009033990000627000000000000000000000000010002020037517710231400000000002            2  01375177102309102300000004500620000000001N011023000000000000000000000000000000000000000000000000000000000000000100037517785869RENATO JOSE DE LIMA MELO                RUA ARISTIDES LOBO - 148 AP.41 BLOCO 03             03041100                                                            000098
2SR. CAIXA, APOS O VENCIMENTO COBRAR 2% DE MULTA                                 NAO RECEBER APOS 30 DIAS DO VENCIMENTO.                                                                                                                                                                                                         01102300000000000000110230000000000000       0090339900006270375177102314000099
100000000000000000000009033990000627000000000000000000000000010002020070367910231500000000002            2  01703679102311102300000002255950000000001N011023000000000000000000000000000000000000000000000000000000000000000100070367949849TEODOMIRO ALVES DOS SANTOS              RUA ANDRE PAZ - 13 - JARDIM SANTO ANDRE             08390230                                                            000101
2SR. CAIXA, APOS O VENCIMENTO COBRAR 2% DE MULTA                                 NAO RECEBER APOS 30 DIAS DO VENCIMENTO.                                                                                                                                                                                                         01102300000000000000110230000000000000       0090339900006270703679102315000102
100000000000000000000009033990000627000000000000000000000000010002020004410810231400000000002            2  01044108102309102300000003344000000000001N011023000000000000000000000000000000000000000000000000000000000000000100004410802860LUIZ ALBERTO MARINHO                    AVENIDA BOSQUE DA SAUDE - 546 AP11 -  -             04142081                                                            000104
2SR. CAIXA, APOS O VENCIMENTO COBRAR 2% DE MULTA                                 NAO RECEBER APOS 30 DIAS DO VENCIMENTO.                                                                                                                                                                                                         01102300000000000000110230000000000000       0090339900006270044108102314000105
100000000000000000000009033990000627000000000000000000000000010002020004767610231P00000000002            2  01047676102309102300000004464140000000001N011023000000000000000000000000000000000000000000000000000000000000000100004767679893ORLANDO GRANDE FILHO                    RUA ORLANDO MIGLIARI - 101 - JARDIM OURO            19906140                                                            000107
2SR. CAIXA, APOS O VENCIMENTO COBRAR 2% DE MULTA                                 NAO RECEBER APOS 30 DIAS DO VENCIMENTO.                                                                                                                                                                                                         01102300000000000000110230000000000000       009033990000627004767610231P000108
100000000000000000000009033990000627000000000000000000000000010002020064677810231500000000002            2  01646778102309102300000003591060000000001N011023000000000000000000000000000000000000000000000000000000000000000100064677850887ANTONIO CARLOS DE OLIVEIRA              RUA DR.ANTONIO MAZILLI FILHO - 435 - PAR            02230070                                                            000110
2SR. CAIXA, APOS O VENCIMENTO COBRAR 2% DE MULTA                                 NAO RECEBER APOS 30 DIAS DO VENCIMENTO.                                                                                                                                                                                                         01102300000000000000110230000000000000       0090339900006270646778102315000111
100000000000000000000009033990000627000000000000000000000000010002020028082610231P00000000002            2  01280826102311102300000002504640000000001N011023000000000000000000000000000000000000000000000000000000000000000100028082615869PRISCILA PEREIRA                        ALAMEDA AFONSO BOCCHIGLIERI - 184 - INTE            04445130                                                            000113
2SR. CAIXA, APOS O VENCIMENTO COBRAR 2% DE MULTA                                 NAO RECEBER APOS 30 DIAS DO VENCIMENTO.                                                                                                                                                                                                         01102300000000000000110230000000000000       009033990000627028082610231P000114
100000000000000000000009033990000627000000000000000000000000010002020058488610231800000000002            2  01584886102309102300000003275340000000001N011023000000000000000000000000000000000000000000000000000000000000000100058488618972ADAILTON ZANUTTO MORESCHI               R:RAPHAEL UNGARO - COND.RESERVA SERRA Q.            13212138                                                            000116
2SR. CAIXA, APOS O VENCIMENTO COBRAR 2% DE MULTA                                 NAO RECEBER APOS 30 DIAS DO VENCIMENTO.                                                                                                                                                                                                         01102300000000000000110230000000000000       0090339900006270584886102318000117
100000000000000000000009033990000627000000000000000000000000010002020002196010231200000000002            2  01021960102311102300000002463740000000001N011023000000000000000000000000000000000000000000000000000000000000000100002196012831VILEFORT DIAS BORGES                    RUA PORTO XAVIER - 189 AP.64 - VILA CARM            08210170                                                            000119
2SR. CAIXA, APOS O VENCIMENTO COBRAR 2% DE MULTA                                 NAO RECEBER APOS 30 DIAS DO VENCIMENTO.                                                                                                                                                                                                         01102300000000000000110230000000000000       0090339900006270021960102312000120
100000000000000000000009033990000627000000000000000000000000010002020031861510231000000000002            2  01318615102311102300000002560760000000001N011023000000000000000000000000000000000000000000000000000000000000000100031861586809VANIA TOMAZ                              -  -  -  -                                         00000000                                                            000122
2SR. CAIXA, APOS O VENCIMENTO COBRAR 2% DE MULTA                                 NAO RECEBER APOS 30 DIAS DO VENCIMENTO.                                                                                                                                                                                                         01102300000000000000110230000000000000       0090339900006270318615102310000123
100000000000000000000009033990000627000000000000000000000000010002020003104510231400000000002            2  01031045102309102300000009534390000000001N011023000000000000000000000000000000000000000000000000000000000000000100003104580804NELSON RODRIGUES                        RUA CARLOS JOSE BORSTENS - 50 AP.81 - AV            11702750                                                            000125
2SR. CAIXA, APOS O VENCIMENTO COBRAR 2% DE MULTA                                 NAO RECEBER APOS 30 DIAS DO VENCIMENTO.                                                                                                                                                                                                         01102300000000000000110230000000000000       0090339900006270031045102314000126
100000000000000000000009033990000627000000000000000000000000010002020007715310231200000000002            2  01077153102309102300000004028280000000001N011023000000000000000000000000000000000000000000000000000000000000000100007715360627NILTON RENNAN OLIVEIRA GOMES FILHO      RUA CARLOS JOSE BORSTENS - 50 AP.21 - AV            11702750                                                            000128
2SR. CAIXA, APOS O VENCIMENTO COBRAR 2% DE MULTA                                 NAO RECEBER APOS 30 DIAS DO VENCIMENTO.                                                                                                                                                                                                         01102300000000000000110230000000000000       0090339900006270077153102312000129
100000000000000000000009033990000627000000000000000000000000010002020007194010231300000000002            2  01071940102311102300000002863570000000001N011023000000000000000000000000000000000000000000000000000000000000000100007194010895RAUL AMANTINO KIRK DE SANCTIS           AVENIDA SANTA CATARINA - 756 AP.01 - VIL            04378000                                                            000131
2SR. CAIXA, APOS O VENCIMENTO COBRAR 2% DE MULTA                                 NAO RECEBER APOS 30 DIAS DO VENCIMENTO.                                                                                                                                                                                                         01102300000000000000110230000000000000       0090339900006270071940102313000132
100000000000000000000009033990000627000000000000000000000000010002020025738610231000000000002            2  01257386102309102300000005785470000000001N011023000000000000000000000000000000000000000000000000000000000000000100025738614810VILMAR JOSE PEREIRA                     ALAMEDA TIETE - 646 - CERQUEIRA CESAR -             01417020                                                            000134
2SR. CAIXA, APOS O VENCIMENTO COBRAR 2% DE MULTA                                 NAO RECEBER APOS 30 DIAS DO VENCIMENTO.                                                                                                                                                                                                         01102300000000000000110230000000000000       0090339900006270257386102310000135
100000000000000000000009033990000627000000000000000000000000010002020025738610232900000000002            2  01257386102309102300000005785440000000001N011023000000000000000000000000000000000000000000000000000000000000000100025738614810VILMAR JOSE PEREIRA                     ALAMEDA TIETE - 646 - CERQUEIRA CESAR -             01417020                                                            000137
2SR. CAIXA, APOS O VENCIMENTO COBRAR 2% DE MULTA                                 NAO RECEBER APOS 30 DIAS DO VENCIMENTO.                                                                                                                                                                                                         01102300000000000000110230000000000000       0090339900006270257386102329000138
100000000000000000000009033990000627000000000000000000000000010002020025738610233700000000002            2  01257386102309102300000005785450000000001N011023000000000000000000000000000000000000000000000000000000000000000100025738614810VILMAR JOSE PEREIRA                     ALAMEDA TIETE - 646 - CERQUEIRA CESAR -             01417020                                                            000140
2SR. CAIXA, APOS O VENCIMENTO COBRAR 2% DE MULTA                                 NAO RECEBER APOS 30 DIAS DO VENCIMENTO.                                                                                                                                                                                                         01102300000000000000110230000000000000       0090339900006270257386102337000141
100000000000000000000009033990000627000000000000000000000000010002020025738610234500000000002            2  01257386102309102300000005785460000000001N011023000000000000000000000000000000000000000000000000000000000000000100025738614810VILMAR JOSE PEREIRA                     ALAMEDA TIETE - 646 - CERQUEIRA CESAR -             01417020                                                            000143
2SR. CAIXA, APOS O VENCIMENTO COBRAR 2% DE MULTA                                 NAO RECEBER APOS 30 DIAS DO VENCIMENTO.                                                                                                                                                                                                         01102300000000000000110230000000000000       0090339900006270257386102345000144
100000000000000000000009033990000627000000000000000000000000010002020011141510231200000000002            2  01111415102311102300000003009100000000001N011023000000000000000000000000000000000000000000000000000000000000000100011141508869PAULO ROBERTO TUNES SILVA               RUA PETROBRAS - 405 CASA 07 - VILA ANTON            03474060                                                            000146
2SR. CAIXA, APOS O VENCIMENTO COBRAR 2% DE MULTA                                 NAO RECEBER APOS 30 DIAS DO VENCIMENTO.                                                                                                                                                                                                         01102300000000000000110230000000000000       0090339900006270111415102312000147
100000000000000000000009033990000627000000000000000000000000010002020012449110231800000000002            2  01124491102311102300000003032050000000001N011023000000000000000000000000000000000000000000000000000000000000000100012449104810GILBERTO DOS SANTOS JUNIOR              RUA ALMIRANTE TAMANDARE - 89 AP.143 - BA            09310350                                                            000149
2SR. CAIXA, APOS O VENCIMENTO COBRAR 2% DE MULTA                                 NAO RECEBER APOS 30 DIAS DO VENCIMENTO.                                                                                                                                                                                                         01102300000000000000110230000000000000       0090339900006270124491102318000150
100000000000000000000009033990000627000000000000000000000000010002020011261310231600000000002            2  01112613102309102300000003999440000000001N011023000000000000000000000000000000000000000000000000000000000000000100011261359844JOVANETE DOS SANTOS PASSOS              RUA FULVIO MORGANTI - 672 - JARDIM PARAI            02417170                                                            000152
2SR. CAIXA, APOS O VENCIMENTO COBRAR 2% DE MULTA                                 NAO RECEBER APOS 30 DIAS DO VENCIMENTO.                                                                                                                                                                                                         01102300000000000000110230000000000000       0090339900006270112613102316000153
100000000000000000000009033990000627000000000000000000000000010002020036279310231500000000002            2  01362793102309102300000003555250000000001N011023000000000000000000000000000000000000000000000000000000000000000100036279398838BRUNO DOCINI ORTEGA                     RUA GENERAL EUCLIDES FIGUEIREDO - 146 AP            11700780                                                            000155
2SR. CAIXA, APOS O VENCIMENTO COBRAR 2% DE MULTA                                 NAO RECEBER APOS 30 DIAS DO VENCIMENTO.                                                                                                                                                                                                         01102300000000000000110230000000000000       0090339900006270362793102315000156
100000000000000000000009033990000627000000000000000000000000010002020008475110231500000000002            2  01084751102309102300000004006870000000001N011023000000000000000000000000000000000000000000000000000000000000000100008475110819HELENA ROSA DOS SANTOS                  AVENIDA ZELIA - 278 CASA 02 - PARQUE DOS            06436000                                                            000158
2SR. CAIXA, APOS O VENCIMENTO COBRAR 2% DE MULTA                                 NAO RECEBER APOS 30 DIAS DO VENCIMENTO.                                                                                                                                                                                                         01102300000000000000110230000000000000       0090339900006270084751102315000159
100000000000000000000009033990000627000000000000000000000000010002020001098210231400000000002            2  01010982102309102300000004381330000000001N011023000000000000000000000000000000000000000000000000000000000000000100001098222857JANDIRA DOS SANTOS PASSOS               RUA FULVIO MORGANTI - 672 - JARDIM PARAI            02417170                                                            000161
2SR. CAIXA, APOS O VENCIMENTO COBRAR 2% DE MULTA                                 NAO RECEBER APOS 30 DIAS DO VENCIMENTO.                                                                                                                                                                                                         01102300000000000000110230000000000000       0090339900006270010982102314000162
9                                                                                                                                                                                                                                                                                                                                                                                                         000163