01REMESSA01COBRANCA       00000000000008017025HB SANTOS CONSTRUTORA E INCORP237BRADESCO       010317        MX0000025                                                                                                                                                                                                                                                                                     000001
100000000000000000000009033990000627000000000000000000000000010002020016721138171400000000002            2  01167211381709031700000002078570000000099N010317000000000000000000000000000000000000000000000000000000000000000100029671526845ROGERIO CONSENTINO                      RUA CARLOS MAZER  - 678 - VILA CARMOSINA            08290700                                                            000002
2SR. CAIXA, APOS O VENCIMENTO COBRAR 2% DE MULTA                                 NAO RECEBER APOS 30 DIAS DO VENCIMENTO.                                                                                                                                                                                                         01031700000000000000103170000000000000       0090339900006270167211381714000003
100000000000000000000009033990000627000000000000000000000000010002020017071141174200000000002            2  01170711411709031700000001963360000000099N010317000000000000000000000000000000000000000000000000000000000000000100003863075803HERALDO MENQUINI                        RUA OCEANICA AMABILE - 346 AP.415 - CIDA            11704420                                                            000005
2SR. CAIXA, APOS O VENCIMENTO COBRAR 2% DE MULTA                                 NAO RECEBER APOS 30 DIAS DO VENCIMENTO.                                                                                                                                                                                                         01031700000000000000103170000000000000       0090339900006270170711411742000006
100000000000000000000009033990000627000000000000000000000000010002020017218142175200000000002            2  01172181421709031700000002926640000000099N010317000000000000000000000000000000000000000000000000000000000000000100025047474895DEMETRIUS GOLDSTEIN GUEDES              PRACA PALMARES - 28 - MACUCO - SANTOS -             11015330                                                            000008
2SR. CAIXA, APOS O VENCIMENTO COBRAR 2% DE MULTA                                 NAO RECEBER APOS 30 DIAS DO VENCIMENTO.                                                                                                                                                                                                         01031700000000000000103170000000000000       0090339900006270172181421752000009
100000000000000000000009033990000627000000000000000000000000010002020018492145186100000000002            2  01184921451809031700000002319250000000099N010317000000000000000000000000000000000000000000000000000000000000000100067470041834PEDRO RAIMUNDO MAGALHAES                RUA TANCREDO DE ALMEIDA NEVES - 36 - JAR            06865010                                                            000011
2SR. CAIXA, APOS O VENCIMENTO COBRAR 2% DE MULTA                                 NAO RECEBER APOS 30 DIAS DO VENCIMENTO.                                                                                                                                                                                                         01031700000000000000103170000000000000       0090339900006270184921451861000012
100000000000000000000009033990000627000000000000000000000000010002020018749148188400000000002            2  01187491481809031700000002401350000000099N010317000000000000000000000000000000000000000000000000000000000000000100013135261859EDUARDO ZANOLA                          RUA ROLANDO PIETRO BONINI - 46 - JARDIM             09781040                                                            000014
2SR. CAIXA, APOS O VENCIMENTO COBRAR 2% DE MULTA                                 NAO RECEBER APOS 30 DIAS DO VENCIMENTO.                                                                                                                                                                                                         01031700000000000000103170000000000000       0090339900006270187491481884000015
100000000000000000000009033990000627000000000000000000000000010002020018894149189P00000000002            2  01188941491809031700000002011280000000099N010317000000000000000000000000000000000000000000000000000000000000000100029028478825LEONARDO LOUZADA                        RUA ILHEUS - QUADRA 31 - 244 - BAIRRO CE            19274000                                                            000017
2SR. CAIXA, APOS O VENCIMENTO COBRAR 2% DE MULTA                                 NAO RECEBER APOS 30 DIAS DO VENCIMENTO.                                                                                                                                                                                                         01031700000000000000103170000000000000       009033990000627018894149189P000018
100000000000000000000009033990000627000000000000000000000000010002020019895156197200000000002            2  01198951561909031700000002906710000000099N010317000000000000000000000000000000000000000000000000000000000000000100032878512847LEONARDO MOURA MONIZ CALDEIRA           RUA BALSA - 682 AP.134 T.02 - VILA ARCAD            02910000                                                            000020
2SR. CAIXA, APOS O VENCIMENTO COBRAR 2% DE MULTA                                 NAO RECEBER APOS 30 DIAS DO VENCIMENTO.                                                                                                                                                                                                         01031700000000000000103170000000000000       0090339900006270198951561972000021
100000000000000000000009033990000627000000000000000000000000010002020020439159201P00000000002            2  01204391592009031700000003092210000000099N010317000000000000000000000000000000000000000000000000000000000000000100016479002806LOURDES PEREIRA DE QUEIROZ SECANECHIA   RUA PAULINO CURSI - 437 - CIDADE SAO MAT            03960060                                                            000023
2SR. CAIXA, APOS O VENCIMENTO COBRAR 2% DE MULTA                                 NAO RECEBER APOS 30 DIAS DO VENCIMENTO.                                                                                                                                                                                                         01031700000000000000103170000000000000       009033990000627020439159201P000024
100000000000000000000009033990000627000000000000000000000000010002020020909162205900000000002            2  01209091622009031700000002281490000000099N010317000000000000000000000000000000000000000000000000000000000000000100019635091885IVAN VIEIRA SILVA                       ABRAO JORGE - 3001 - JARDIM INTEGRACAO -            14405397                                                            000026
2SR. CAIXA, APOS O VENCIMENTO COBRAR 2% DE MULTA                                 NAO RECEBER APOS 30 DIAS DO VENCIMENTO.                                                                                                                                                                                                         01031700000000000000103170000000000000       0090339900006270209091622059000027
100000000000000000000009033990000627000000000000000000000000010002020021055163206400000000002            2  01210551632009031700000002353160000000099N010317000000000000000000000000000000000000000000000000000000000000000100017229751802BERENICE VIEIRA KERSTING                RUA ATIBAIA - 17 AP.417 - BAIRRO IMPERAD            11707380                                                            000029
2SR. CAIXA, APOS O VENCIMENTO COBRAR 2% DE MULTA                                 NAO RECEBER APOS 30 DIAS DO VENCIMENTO.                                                                                                                                                                                                         01031700000000000000103170000000000000       0090339900006270210551632064000030
100000000000000000000009033990000627000000000000000000000000010002020022156170216P00000000002            2  01221561702109031700000002244940000000099N010317000000000000000000000000000000000000000000000000000000000000000100009361471805JOSE BARBOSA DA SILVA                   RUA ALFREDO INACIO TRINDADE  - 60 AP.44             02344100                                                            000032
2SR. CAIXA, APOS O VENCIMENTO COBRAR 2% DE MULTA                                 NAO RECEBER APOS 30 DIAS DO VENCIMENTO.                                                                                                                                                                                                         01031700000000000000103170000000000000       009033990000627022156170216P000033
100000000000000000000009033990000627000000000000000000000000010002020022303171217500000000002            2  01223031712109031700000001937880000000099N010317000000000000000000000000000000000000000000000000000000000000000100012756959812ITAMAR JUVENAL DIAS DA SILVA            RUA ELISEU REINALDO MORAES VIEIRA - 90 A            00000000                                                            000035
2SR. CAIXA, APOS O VENCIMENTO COBRAR 2% DE MULTA                                 NAO RECEBER APOS 30 DIAS DO VENCIMENTO.                                                                                                                                                                                                         01031700000000000000103170000000000000       0090339900006270223031712175000036
100000000000000000000009033990000627000000000000000000000000010002020022868175222P00000000002            2  01228681752209031700000002291090000000099N010317000000000000000000000000000000000000000000000000000000000000000100002731042842VALTER CERQUEIRA VILLA NOVA             RUA MACHADO - 106 - VILA AUGUSTA - GUARU            07025210                                                            000038
2SR. CAIXA, APOS O VENCIMENTO COBRAR 2% DE MULTA                                 NAO RECEBER APOS 30 DIAS DO VENCIMENTO.                                                                                                                                                                                                         01031700000000000000103170000000000000       009033990000627022868175222P000039
100000000000000000000009033990000627000000000000000000000000010002020023007175222200000000002            2  01230071752209031700000002291090000000099N010317000000000000000000000000000000000000000000000000000000000000000100002731042842VALTER CERQUEIRA VILLA NOVA             RUA MACHADO - 106 - VILA AUGUSTA - GUARU            07025210                                                            000041
2SR. CAIXA, APOS O VENCIMENTO COBRAR 2% DE MULTA                                 NAO RECEBER APOS 30 DIAS DO VENCIMENTO.                                                                                                                                                                                                         01031700000000000000103170000000000000       0090339900006270230071752222000042
100000000000000000000009033990000627000000000000000000000000010002020023305178225600000000002            2  01233051782209031700000001934880000000099N010317000000000000000000000000000000000000000000000000000000000000000100008739150895VANGEVALDO BATISTA SANT ANNA            TRAVESSA TOMAZIN - 02 - ERMELINO MATARAZ            03811125                                                            000044
2SR. CAIXA, APOS O VENCIMENTO COBRAR 2% DE MULTA                                 NAO RECEBER APOS 30 DIAS DO VENCIMENTO.                                                                                                                                                                                                         01031700000000000000103170000000000000       0090339900006270233051782256000045
100000000000000000000009033990000627000000000000000000000000010002020023743181228500000000002            2  01237431812211031700000001727970000000099N010317000000000000000000000000000000000000000000000000000000000000000100005313717863EDIMICIO JOSE DE ARAUJO                 PRACA NICOLAU GERAIGIRE - 680 CA A - JAR            11095110                                                            000047
2SR. CAIXA, APOS O VENCIMENTO COBRAR 2% DE MULTA                                 NAO RECEBER APOS 30 DIAS DO VENCIMENTO.                                                                                                                                                                                                         01031700000000000000103170000000000000       0090339900006270237431812285000048
100000000000000000000009033990000627000000000000000000000000010002020023889182229300000000002            2  01238891822211031700000001659990000000099N010317000000000000000000000000000000000000000000000000000000000000000100029433631897MARIO MUNIZ                             RUA LIBERO BADARO - 1115 - BAIRRO CIDADE            11704070                                                            000050
2SR. CAIXA, APOS O VENCIMENTO COBRAR 2% DE MULTA                                 NAO RECEBER APOS 30 DIAS DO VENCIMENTO.                                                                                                                                                                                                         01031700000000000000103170000000000000       0090339900006270238891822293000051
100000000000000000000009033990000627000000000000000000000000010002020024033183230100000000002            2  01240331832311031700000001488600000000099N010317000000000000000000000000000000000000000000000000000000000000000100038856851830FELIPE BIANCHI DA COSTA FREITAS         AVENIDA ENGENHEIRO ARMANDO DE ARRUDA PER            04325001                                                            000053
2SR. CAIXA, APOS O VENCIMENTO COBRAR 2% DE MULTA                                 NAO RECEBER APOS 30 DIAS DO VENCIMENTO.                                                                                                                                                                                                         01031700000000000000103170000000000000       0090339900006270240331832301000054
100000000000000000000009033990000627000000000000000000000000010002020024327180232600000000002            2  01243271802311031700000001528270000000099N010317000000000000000000000000000000000000000000000000000000000000000100001847204864AMERICA CONCEICAO DA SILVA              RUA CAMINHO DO GUARAMAR - 199 AP.11 BLOC            11721050                                                            000056
2SR. CAIXA, APOS O VENCIMENTO COBRAR 2% DE MULTA                                 NAO RECEBER APOS 30 DIAS DO VENCIMENTO.                                                                                                                                                                                                         01031700000000000000103170000000000000       0090339900006270243271802326000057
100000000000000000000009033990000627000000000000000000000000010002020025648189241100000000002            2  01256481892409031700000001975790000000099N010317000000000000000000000000000000000000000000000000000000000000000100005029828885LAURINETE DA CONCEICAO DE NORONHA       RUA MARIA LUCIA DE TOLEDO LEITE MORAES -            04434040                                                            000059
2SR. CAIXA, APOS O VENCIMENTO COBRAR 2% DE MULTA                                 NAO RECEBER APOS 30 DIAS DO VENCIMENTO.                                                                                                                                                                                                         01031700000000000000103170000000000000       0090339900006270256481892411000060
100000000000000000000009033990000627000000000000000000000000010002020025794190242500000000002            2  01257941902409031700000001994010000000099N010317000000000000000000000000000000000000000000000000000000000000000100015903638848MARCELO VINICIUS DE MORAES              RUA REP. DOS ESTADOS UNIDOS DA VENEZUELA            11030270                                                            000062
2SR. CAIXA, APOS O VENCIMENTO COBRAR 2% DE MULTA                                 NAO RECEBER APOS 30 DIAS DO VENCIMENTO.                                                                                                                                                                                                         01031700000000000000103170000000000000       0090339900006270257941902425000063
9                                                                                                                                                                                                                                                                                                                                                                                                         000064