01REMESSA01COBRANCA       00000000000005623874H B SANTOS CONSTRUTORA E INCOR237BRADESCO       080424        MX0000013                                                                                                                                                                                                                                                                                     000001
100000000000000000000009033990001086300000000000000000000000010002020012644904241300000000002            2  01126449042425042400000003265840000000001N080424000000000000000000000000000000000000000000000000000000000000000100012644907802SIMONE SERRANO SILVA PRADO              RUA TAIUVINHA - 597 - BAIRRO JARDIM JACU            08060040                                                            000002
2SR. CAIXA, APOS O VENCIMENTO COBRAR 2% DE MULTA                                 NAO RECEBER APOS 30 DIAS DO VENCIMENTO.                                                                                                                                                                                                         08042400000000000000804240000000000000       0090339900010863126449042413000003
100000000000000000000009033990001086300000000000000000000000010002020033870204241400000000002            2  01338702042425042400000003180820000000001N080424000000000000000000000000000000000000000000000000000000000000000100033870205890NATHALIA GOMES PAZ                      ALAMEDA INHAMBU - 214 RESIDENCIAL 10 - B            06540100                                                            000005
2SR. CAIXA, APOS O VENCIMENTO COBRAR 2% DE MULTA                                 NAO RECEBER APOS 30 DIAS DO VENCIMENTO.                                                                                                                                                                                                         08042400000000000000804240000000000000       0090339900010863338702042414000006
100000000000000000000009033990001086300000000000000000000000010002020055874004241P00000000002            2  01558740042425042400000003165580000000001N080424000000000000000000000000000000000000000000000000000000000000000100055874045104MANUEL MARTINS AFONSO JUNIOR            AVENIDA AFONSO PENA - 463 - BAIRRO ESTUA            11020003                                                            000008
2SR. CAIXA, APOS O VENCIMENTO COBRAR 2% DE MULTA                                 NAO RECEBER APOS 30 DIAS DO VENCIMENTO.                                                                                                                                                                                                         08042400000000000000804240000000000000       009033990001086355874004241P000009
100000000000000000000009033990001086300000000000000000000000010002020029067904241700000000002            2  01290679042425042400000002822380000000001N080424000000000000000000000000000000000000000000000000000000000000000100029067948802SANTIAGO VALDOMIRO CORDEIRO             RUA MANOEL QUIRINODE MATTOS - 1.537 CS02            03969000                                                            000011
2SR. CAIXA, APOS O VENCIMENTO COBRAR 2% DE MULTA                                 NAO RECEBER APOS 30 DIAS DO VENCIMENTO.                                                                                                                                                                                                         08042400000000000000804240000000000000       0090339900010863290679042417000012
100000000000000000000009033990001086300000000000000000000000010002020041475704241100000000002            2  01414757042425042400000002963120000000001N080424000000000000000000000000000000000000000000000000000000000000000100041475767889GUSTAVO HENRIQUE SIMIONI FRANCO MENDONCARUA JACOB EMERICK - 42 AP.308 - BAIRRO G            11310070                                                            000014
2SR. CAIXA, APOS O VENCIMENTO COBRAR 2% DE MULTA                                 NAO RECEBER APOS 30 DIAS DO VENCIMENTO.                                                                                                                                                                                                         08042400000000000000804240000000000000       0090339900010863414757042411000015
100000000000000000000009033990001086300000000000000000000000010002020032353404241400000000002            2  01323534042425042400000003388940000000001N080424000000000000000000000000000000000000000000000000000000000000000100032353404839JULIANA BATISTA BENTO                   RUA MONTE PLANO - 387 CASA 5 - VILA MARG            11335020                                                            000017
2SR. CAIXA, APOS O VENCIMENTO COBRAR 2% DE MULTA                                 NAO RECEBER APOS 30 DIAS DO VENCIMENTO.                                                                                                                                                                                                         08042400000000000000804240000000000000       0090339900010863323534042414000018
100000000000000000000009033990001086300000000000000000000000010002020031015904241500000000002            2  01310159042425042400000002962750000000001N080424000000000000000000000000000000000000000000000000000000000000000100031015918808PATRICK COSTA FAGILDE                   AVENIDA PRESIDENTE CASTELO BRANCO - 4.52            11702705                                                            000020
2SR. CAIXA, APOS O VENCIMENTO COBRAR 2% DE MULTA                                 NAO RECEBER APOS 30 DIAS DO VENCIMENTO.                                                                                                                                                                                                         08042400000000000000804240000000000000       0090339900010863310159042415000021
100000000000000000000009033990001086300000000000000000000000010002020024614304241500000000002            2  01246143042425042400000003255560000000001N080424000000000000000000000000000000000000000000000000000000000000000100024614361854JOSE SANTANA JUNIOR                     RUA RUI BARBOSA - 358 AP.83 - CANTO DO F            11700170                                                            000023
2SR. CAIXA, APOS O VENCIMENTO COBRAR 2% DE MULTA                                 NAO RECEBER APOS 30 DIAS DO VENCIMENTO.                                                                                                                                                                                                         08042400000000000000804240000000000000       0090339900010863246143042415000024
100000000000000000000009033990001086300000000000000000000000010002020045564904241100000000002            2  01455649042425042400000003004940000000001N080424000000000000000000000000000000000000000000000000000000000000000100045564998871THOMAS NICOLAS PETRICELLI               RUA BRIGADEIRO FARIA LIMA - 173 AP.42 -             11700630                                                            000026
2SR. CAIXA, APOS O VENCIMENTO COBRAR 2% DE MULTA                                 NAO RECEBER APOS 30 DIAS DO VENCIMENTO.                                                                                                                                                                                                         08042400000000000000804240000000000000       0090339900010863455649042411000027
9                                                                                                                                                                                                                                                                                                                                                                                                         000028