01REMESSA01COBRANCA       00000000000008017025HB SANTOS CONSTRUTORA E INCORP237BRADESCO       010624        MX0000203                                                                                                                                                                                                                                                                                     000001
100000000000000000000009033990000627000000000000000000000000010002020016479006241300000000002            2  01164790062409062400000005984780000000001N010624000000000000000000000000000000000000000000000000000000000000000100016479002806LOURDES PEREIRA DE QUEIROZ SECANECHIA   RUA PAULINO CURSI - 437 - CIDADE SAO MAT            03960060                                                            000002
2SR. CAIXA, APOS O VENCIMENTO COBRAR 2% DE MULTA                                 NAO RECEBER APOS 30 DIAS DO VENCIMENTO.                                                                                                                                                                                                         01062400000000000000106240000000000000       0090339900006270164790062413000003
100000000000000000000009033990000627000000000000000000000000010002020017229706242300000000002            2  01172297062409062400000004554370000000001N010624000000000000000000000000000000000000000000000000000000000000000100017229751802BERENICE VIEIRA KERSTING                RUA ATIBAIA - 17 AP.417 - BAIRRO IMPERAD            11707380                                                            000005
2SR. CAIXA, APOS O VENCIMENTO COBRAR 2% DE MULTA                                 NAO RECEBER APOS 30 DIAS DO VENCIMENTO.                                                                                                                                                                                                         01062400000000000000106240000000000000       0090339900006270172297062423000006
100000000000000000000009033990000627000000000000000000000000010002020009361406241000000000002            2  01093614062409062400000004344970000000001N010624000000000000000000000000000000000000000000000000000000000000000100009361471805JOSE BARBOSA DA SILVA                   RUA ALFREDO INACIO TRINDADE  - 60 AP.44             02344100                                                            000008
2SR. CAIXA, APOS O VENCIMENTO COBRAR 2% DE MULTA                                 NAO RECEBER APOS 30 DIAS DO VENCIMENTO.                                                                                                                                                                                                         01062400000000000000106240000000000000       0090339900006270093614062410000009
100000000000000000000009033990000627000000000000000000000000010002020012756906241400000000002            2  01127569062409062400000003750640000000001N010624000000000000000000000000000000000000000000000000000000000000000100012756959812ITAMAR JUVENAL DIAS DA SILVA            RUA ELISEU REINALDO MORAES VIEIRA - 90 A            02858000                                                            000011
2SR. CAIXA, APOS O VENCIMENTO COBRAR 2% DE MULTA                                 NAO RECEBER APOS 30 DIAS DO VENCIMENTO.                                                                                                                                                                                                         01062400000000000000106240000000000000       0090339900006270127569062414000012
100000000000000000000009033990000627000000000000000000000000010002020029433606241800000000002            2  01294336062411062400000003109080000000001N010624000000000000000000000000000000000000000000000000000000000000000100029433631897MARIO MUNIZ                             RUA JOSE CALIXTO DO CARMO - 286 AP.53 -             11702690                                                            000014
2SR. CAIXA, APOS O VENCIMENTO COBRAR 2% DE MULTA                                 NAO RECEBER APOS 30 DIAS DO VENCIMENTO.                                                                                                                                                                                                         01062400000000000000106240000000000000       0090339900006270294336062418000015
100000000000000000000009033990000627000000000000000000000000010002020005029806241000000000002            2  01050298062409062400000003823990000000001N010624000000000000000000000000000000000000000000000000000000000000000100005029828885LAURINETE DA CONCEICAO DE NORONHA       RUA MARIA LUCIA DE TOLEDO LEITE MORAES -            04434040                                                            000017
2SR. CAIXA, APOS O VENCIMENTO COBRAR 2% DE MULTA                                 NAO RECEBER APOS 30 DIAS DO VENCIMENTO.                                                                                                                                                                                                         01062400000000000000106240000000000000       0090339900006270050298062410000018
100000000000000000000009033990000627000000000000000000000000010002020013388906241200000000002            2  01133889062411062400000003030900000000001N010624000000000000000000000000000000000000000000000000000000000000000100013388936889NEUTON DE SOUZA RAMOS                   RUA JOSE CALIXTO DO CARMO - 286 AP.61 -             11702690                                                            000020
2SR. CAIXA, APOS O VENCIMENTO COBRAR 2% DE MULTA                                 NAO RECEBER APOS 30 DIAS DO VENCIMENTO.                                                                                                                                                                                                         01062400000000000000106240000000000000       0090339900006270133889062412000021
100000000000000000000009033990000627000000000000000000000000010002020012774906241200000000002            2  01127749062411062400000003087790000000001N010624000000000000000000000000000000000000000000000000000000000000000100012774906865JOSE MILTON SANTIAGO                    RUA BATATAIS - 47 - CIDADE ESTELA - POA             08563140                                                            000023
2SR. CAIXA, APOS O VENCIMENTO COBRAR 2% DE MULTA                                 NAO RECEBER APOS 30 DIAS DO VENCIMENTO.                                                                                                                                                                                                         01062400000000000000106240000000000000       0090339900006270127749062412000024
100000000000000000000009033990000627000000000000000000000000010002020007574906241200000000002            2  01075749062411062400000002915120000000001N010624000000000000000000000000000000000000000000000000000000000000000100007574936889JORGE LUCIANO PEREIRA BORRIELLO         RUA JOSE CALIXTO DO CARMO - 286 AP.54 -             11702690                                                            000026
2SR. CAIXA, APOS O VENCIMENTO COBRAR 2% DE MULTA                                 NAO RECEBER APOS 30 DIAS DO VENCIMENTO.                                                                                                                                                                                                         01062400000000000000106240000000000000       0090339900006270075749062412000027
100000000000000000000009033990000627000000000000000000000000010002020008214906241500000000002            2  01082149062411062400000002959330000000001N010624000000000000000000000000000000000000000000000000000000000000000100008214973830JAMIL CHALA                             RUA JOSE CALIXTO DO CARMO - 286 AP.22 -             11702690                                                            000029
2SR. CAIXA, APOS O VENCIMENTO COBRAR 2% DE MULTA                                 NAO RECEBER APOS 30 DIAS DO VENCIMENTO.                                                                                                                                                                                                         01062400000000000000106240000000000000       0090339900006270082149062415000030
100000000000000000000009033990000627000000000000000000000000010002020032495006241200000000002            2  01324950062411062400000003316330000000001N010624000000000000000000000000000000000000000000000000000000000000000100032495004881PAULO EDUARDO DOS SANTOS                RUA REPUBLICA DO IRAQUE - 1119 - CAMPO B            04611002                                                            000032
2SR. CAIXA, APOS O VENCIMENTO COBRAR 2% DE MULTA                                 NAO RECEBER APOS 30 DIAS DO VENCIMENTO.                                                                                                                                                                                                         01062400000000000000106240000000000000       0090339900006270324950062412000033
100000000000000000000009033990000627000000000000000000000000010002020029339006241900000000002            2  01293390062411062400000003110130000000001N010624000000000000000000000000000000000000000000000000000000000000000100029339051831RONALD DIDOFF                           RUA CORONEL FERREIRA BRAGA - 188 - VILA             03522010                                                            000035
2SR. CAIXA, APOS O VENCIMENTO COBRAR 2% DE MULTA                                 NAO RECEBER APOS 30 DIAS DO VENCIMENTO.                                                                                                                                                                                                         01062400000000000000106240000000000000       0090339900006270293390062419000036
100000000000000000000009033990000627000000000000000000000000010002020017357806241000000000002            2  01173578062411062400000003293910000000001N010624000000000000000000000000000000000000000000000000000000000000000100017357859894MARCIO GUIMARAES                        RUA GENERAL CAMARA - 188 SALA 11 - CENTR            11010120                                                            000038
2SR. CAIXA, APOS O VENCIMENTO COBRAR 2% DE MULTA                                 NAO RECEBER APOS 30 DIAS DO VENCIMENTO.                                                                                                                                                                                                         01062400000000000000106240000000000000       0090339900006270173578062410000039
100000000000000000000009033990000627000000000000000000000000010002020005529606241500000000002            2  01055296062411062400000003065500000000001N010624000000000000000000000000000000000000000000000000000000000000000100005529616801JOAQUIM JORGE DA COSTA                  RUA JOSE CALIXTO DO CARMO - 286 AP.106 -            11702690                                                            000041
2SR. CAIXA, APOS O VENCIMENTO COBRAR 2% DE MULTA                                 NAO RECEBER APOS 30 DIAS DO VENCIMENTO.                                                                                                                                                                                                         01062400000000000000106240000000000000       0090339900006270055296062415000042
100000000000000000000009033990000627000000000000000000000000010002020015550706241100000000002            2  01155507062409062400000002898590000000001N010624000000000000000000000000000000000000000000000000000000000000000100015550706806MARY MIWA                               RUA CARLOS JOSE BORSTENS - 50 AP.105 - A            11702750                                                            000044
2SR. CAIXA, APOS O VENCIMENTO COBRAR 2% DE MULTA                                 NAO RECEBER APOS 30 DIAS DO VENCIMENTO.                                                                                                                                                                                                         01062400000000000000106240000000000000       0090339900006270155507062411000045
100000000000000000000009033990000627000000000000000000000000010002020015464606241100000000002            2  01154646062411062400000003222580000000001N010624000000000000000000000000000000000000000000000000000000000000000100015464647864SONIA TERESA VOLPATO                    RUA JOSE CALIXTO DO CARMO - 286 AP.73 -             11702690                                                            000047
2SR. CAIXA, APOS O VENCIMENTO COBRAR 2% DE MULTA                                 NAO RECEBER APOS 30 DIAS DO VENCIMENTO.                                                                                                                                                                                                         01062400000000000000106240000000000000       0090339900006270154646062411000048
100000000000000000000009033990000627000000000000000000000000010002020008657806241000000000002            2  01086578062411062400000003190240000000001N010624000000000000000000000000000000000000000000000000000000000000000100008657886855ARLINDO DA CRUZ                         AVENIDA ARICANDUVA - 8.256 AP.54 BL.10 -            03951220                                                            000050
2SR. CAIXA, APOS O VENCIMENTO COBRAR 2% DE MULTA                                 NAO RECEBER APOS 30 DIAS DO VENCIMENTO.                                                                                                                                                                                                         01062400000000000000106240000000000000       0090339900006270086578062410000051
100000000000000000000009033990000627000000000000000000000000010002020059735106241900000000002            2  01597351062409062400000001804000000000001N010624000000000000000000000000000000000000000000000000000000000000000100059735180863HELIO JOSE MARQUES                      RUA MARTIM AFONSO DE SOUZA - 1007 AP.102            11702790                                                            000053
2SR. CAIXA, APOS O VENCIMENTO COBRAR 2% DE MULTA                                 NAO RECEBER APOS 30 DIAS DO VENCIMENTO.                                                                                                                                                                                                         01062400000000000000106240000000000000       0090339900006270597351062419000054
100000000000000000000009033990000627000000000000000000000000010002020026347806241200000000002            2  01263478062411062400000003410270000000001N010624000000000000000000000000000000000000000000000000000000000000000100026347872862VALDECI SILVA MEIRELES                  RUA JOSE BATISTA DA SILVA - 292 - JARDIM            06851470                                                            000056
2SR. CAIXA, APOS O VENCIMENTO COBRAR 2% DE MULTA                                 NAO RECEBER APOS 30 DIAS DO VENCIMENTO.                                                                                                                                                                                                         01062400000000000000106240000000000000       0090339900006270263478062412000057
100000000000000000000009033990000627000000000000000000000000010002020009797606241400000000002            2  01097976062411062400000003051340000000001N010624000000000000000000000000000000000000000000000000000000000000000100009797626857RICARDO SOBRAL DE OLIVEIRA              RUA 23 DE MAIO - 139 AP.32 - VILA MIRIM             11704690                                                            000059
2SR. CAIXA, APOS O VENCIMENTO COBRAR 2% DE MULTA                                 NAO RECEBER APOS 30 DIAS DO VENCIMENTO.                                                                                                                                                                                                         01062400000000000000106240000000000000       0090339900006270097976062414000060
100000000000000000000009033990000627000000000000000000000000010002020022728406241500000000002            2  01227284062411062400000003301790000000001N010624000000000000000000000000000000000000000000000000000000000000000100022728497842WILLIAN DE SOUZA MELLO                  RUA JOSE CALIXTO DO CARMO - 286 AP.111 -            11702690                                                            000062
2SR. CAIXA, APOS O VENCIMENTO COBRAR 2% DE MULTA                                 NAO RECEBER APOS 30 DIAS DO VENCIMENTO.                                                                                                                                                                                                         01062400000000000000106240000000000000       0090339900006270227284062415000063
100000000000000000000009033990000627000000000000000000000000010002020016909706241P00000000002            2  01169097062411062400000002917750000000001N010624000000000000000000000000000000000000000000000000000000000000000100016909746805EDIVALDO SANTANA DOS SANTOS             ESTRADA JOAO GASPAR DELGADO - 80 AP.213             08536100                                                            000065
2SR. CAIXA, APOS O VENCIMENTO COBRAR 2% DE MULTA                                 NAO RECEBER APOS 30 DIAS DO VENCIMENTO.                                                                                                                                                                                                         01062400000000000000106240000000000000       009033990000627016909706241P000066
100000000000000000000009033990000627000000000000000000000000010002020022036006241700000000002            2  01220360062409062400000004531270000000001N010624000000000000000000000000000000000000000000000000000000000000000100022036003818DERLIS TERAN QUIROGA ROGATO             RUA CARLOS JOSE BORSTENS - 50 AP.114 - A            11702750                                                            000068
2SR. CAIXA, APOS O VENCIMENTO COBRAR 2% DE MULTA                                 NAO RECEBER APOS 30 DIAS DO VENCIMENTO.                                                                                                                                                                                                         01062400000000000000106240000000000000       0090339900006270220360062417000069
100000000000000000000009033990000627000000000000000000000000010002020017229706243100000000002            2  01172297062409062400000004373050000000001N010624000000000000000000000000000000000000000000000000000000000000000100017229751802BERENICE VIEIRA KERSTING                RUA ATIBAIA - 17 AP.417 - BAIRRO IMPERAD            11707380                                                            000071
2SR. CAIXA, APOS O VENCIMENTO COBRAR 2% DE MULTA                                 NAO RECEBER APOS 30 DIAS DO VENCIMENTO.                                                                                                                                                                                                         01062400000000000000106240000000000000       0090339900006270172297062431000072
100000000000000000000009033990000627000000000000000000000000010002020033451606241800000000002            2  01334516062411062400000002641070000000001N010624000000000000000000000000000000000000000000000000000000000000000100033451620839ARAO ELISIARIO  NUNES                   RUA JOSE CALIXTO DO CARMO - 286 AP.64 -             11702690                                                            000074
2SR. CAIXA, APOS O VENCIMENTO COBRAR 2% DE MULTA                                 NAO RECEBER APOS 30 DIAS DO VENCIMENTO.                                                                                                                                                                                                         01062400000000000000106240000000000000       0090339900006270334516062418000075
100000000000000000000009033990000627000000000000000000000000010002020011369106241600000000002            2  01113691062411062400000002885030000000001N010624000000000000000000000000000000000000000000000000000000000000000100011369165803ELIANA CORREA DE OLIVEIRA               RUA MAESTRO ZEFERINO SANTANA - 65 - VILA            18040010                                                            000077
2SR. CAIXA, APOS O VENCIMENTO COBRAR 2% DE MULTA                                 NAO RECEBER APOS 30 DIAS DO VENCIMENTO.                                                                                                                                                                                                         01062400000000000000106240000000000000       0090339900006270113691062416000078
100000000000000000000009033990000627000000000000000000000000010002020002253806241P00000000002            2  01022538062411062400000002564230000000001N010624000000000000000000000000000000000000000000000000000000000000000100002253816809EDMILSON ALVES DA SILVA                 RUA JOSE CALIXTO DO CARMO - 286 AP.93 -             11702690                                                            000080
2SR. CAIXA, APOS O VENCIMENTO COBRAR 2% DE MULTA                                 NAO RECEBER APOS 30 DIAS DO VENCIMENTO.                                                                                                                                                                                                         01062400000000000000106240000000000000       009033990000627002253806241P000081
100000000000000000000009033990000627000000000000000000000000010002020037517706241P00000000002            2  01375177062409062400000004806130000000001N010624000000000000000000000000000000000000000000000000000000000000000100037517785869RENATO JOSE DE LIMA MELO                RUA ARISTIDES LOBO - 148 AP.41 BLOCO 03             03041100                                                            000083
2SR. CAIXA, APOS O VENCIMENTO COBRAR 2% DE MULTA                                 NAO RECEBER APOS 30 DIAS DO VENCIMENTO.                                                                                                                                                                                                         01062400000000000000106240000000000000       009033990000627037517706241P000084
100000000000000000000009033990000627000000000000000000000000010002020070367906241000000000002            2  01703679062411062400000002407990000000001N010624000000000000000000000000000000000000000000000000000000000000000100070367949849TEODOMIRO ALVES DOS SANTOS              RUA ANDRE PAZ - 13 - JARDIM SANTO ANDRE             08390230                                                            000086
2SR. CAIXA, APOS O VENCIMENTO COBRAR 2% DE MULTA                                 NAO RECEBER APOS 30 DIAS DO VENCIMENTO.                                                                                                                                                                                                         01062400000000000000106240000000000000       0090339900006270703679062410000087
100000000000000000000009033990000627000000000000000000000000010002020004410806241P00000000002            2  01044108062409062400000003571000000000001N010624000000000000000000000000000000000000000000000000000000000000000100004410802860LUIZ ALBERTO MARINHO                    AVENIDA BOSQUE DA SAUDE - 546 AP11 -  -             04142081                                                            000089
2SR. CAIXA, APOS O VENCIMENTO COBRAR 2% DE MULTA                                 NAO RECEBER APOS 30 DIAS DO VENCIMENTO.                                                                                                                                                                                                         01062400000000000000106240000000000000       009033990000627004410806241P000090
100000000000000000000009033990000627000000000000000000000000010002020004767606241500000000002            2  01047676062409062400000004767170000000001N010624000000000000000000000000000000000000000000000000000000000000000100004767679893ORLANDO GRANDE FILHO                    RUA ORLANDO MIGLIARI - 101 - JARDIM OURO            19906140                                                            000092
2SR. CAIXA, APOS O VENCIMENTO COBRAR 2% DE MULTA                                 NAO RECEBER APOS 30 DIAS DO VENCIMENTO.                                                                                                                                                                                                         01062400000000000000106240000000000000       0090339900006270047676062415000093
100000000000000000000009033990000627000000000000000000000000010002020064677806241000000000002            2  01646778062409062400000003834830000000001N010624000000000000000000000000000000000000000000000000000000000000000100064677850887ANTONIO CARLOS DE OLIVEIRA              RUA DR.ANTONIO MAZILLI FILHO - 435 - PAR            02230070                                                            000095
2SR. CAIXA, APOS O VENCIMENTO COBRAR 2% DE MULTA                                 NAO RECEBER APOS 30 DIAS DO VENCIMENTO.                                                                                                                                                                                                         01062400000000000000106240000000000000       0090339900006270646778062410000096
100000000000000000000009033990000627000000000000000000000000010002020058488606241300000000002            2  01584886062409062400000003497670000000001N010624000000000000000000000000000000000000000000000000000000000000000100058488618972ADAILTON ZANUTTO MORESCHI               R:RAPHAEL UNGARO - COND.RESERVA SERRA Q.            13212138                                                            000098
2SR. CAIXA, APOS O VENCIMENTO COBRAR 2% DE MULTA                                 NAO RECEBER APOS 30 DIAS DO VENCIMENTO.                                                                                                                                                                                                         01062400000000000000106240000000000000       0090339900006270584886062413000099
100000000000000000000009033990000627000000000000000000000000010002020031861506241600000000002            2  01318615062411062400000002733330000000001N010624000000000000000000000000000000000000000000000000000000000000000100031861586809VANIA TOMAZ                              -  -  -  -                                         00000000                                                            000101
2SR. CAIXA, APOS O VENCIMENTO COBRAR 2% DE MULTA                                 NAO RECEBER APOS 30 DIAS DO VENCIMENTO.                                                                                                                                                                                                         01062400000000000000106240000000000000       0090339900006270318615062416000102
100000000000000000000009033990000627000000000000000000000000010002020007715306241800000000002            2  01077153062409062400000004301740000000001N010624000000000000000000000000000000000000000000000000000000000000000100007715360627NILTON RENNAN OLIVEIRA GOMES FILHO      RUA CARLOS JOSE BORSTENS - 50 AP.21 - AV            11702750                                                            000104
2SR. CAIXA, APOS O VENCIMENTO COBRAR 2% DE MULTA                                 NAO RECEBER APOS 30 DIAS DO VENCIMENTO.                                                                                                                                                                                                         01062400000000000000106240000000000000       0090339900006270077153062418000105
100000000000000000000009033990000627000000000000000000000000010002020007194006241900000000002            2  01071940062411062400000003056540000000001N010624000000000000000000000000000000000000000000000000000000000000000100007194010895RAUL AMANTINO KIRK DE SANCTIS           AVENIDA SANTA CATARINA - 756 AP.01 - VIL            04378000                                                            000107
2SR. CAIXA, APOS O VENCIMENTO COBRAR 2% DE MULTA                                 NAO RECEBER APOS 30 DIAS DO VENCIMENTO.                                                                                                                                                                                                         01062400000000000000106240000000000000       0090339900006270071940062419000108
100000000000000000000009033990000627000000000000000000000000010002020011141506241800000000002            2  01111415062411062400000003211860000000001N010624000000000000000000000000000000000000000000000000000000000000000100011141508869PAULO ROBERTO TUNES SILVA               RUA PETROBRAS - 405 CASA 07 - VILA ANTON            03474060                                                            000110
2SR. CAIXA, APOS O VENCIMENTO COBRAR 2% DE MULTA                                 NAO RECEBER APOS 30 DIAS DO VENCIMENTO.                                                                                                                                                                                                         01062400000000000000106240000000000000       0090339900006270111415062418000111
100000000000000000000009033990000627000000000000000000000000010002020011261306241100000000002            2  01112613062409062400000004270930000000001N010624000000000000000000000000000000000000000000000000000000000000000100011261359844JOVANETE DOS SANTOS PASSOS              RUA FULVIO MORGANTI - 672 - JARDIM PARAI            02417170                                                            000113
2SR. CAIXA, APOS O VENCIMENTO COBRAR 2% DE MULTA                                 NAO RECEBER APOS 30 DIAS DO VENCIMENTO.                                                                                                                                                                                                         01062400000000000000106240000000000000       0090339900006270112613062411000114
100000000000000000000009033990000627000000000000000000000000010002020036279306241000000000002            2  01362793062409062400000003796580000000001N010624000000000000000000000000000000000000000000000000000000000000000100036279398838BRUNO DOCINI ORTEGA                     RUA GENERAL EUCLIDES FIGUEIREDO - 146 AP            11700780                                                            000116
2SR. CAIXA, APOS O VENCIMENTO COBRAR 2% DE MULTA                                 NAO RECEBER APOS 30 DIAS DO VENCIMENTO.                                                                                                                                                                                                         01062400000000000000106240000000000000       0090339900006270362793062410000117
100000000000000000000009033990000627000000000000000000000000010002020008475106241000000000002            2  01084751062409062400000004278860000000001N010624000000000000000000000000000000000000000000000000000000000000000100008475110819HELENA ROSA DOS SANTOS                  AVENIDA ZELIA - 278 CASA 02 - PARQUE DOS            06436000                                                            000119
2SR. CAIXA, APOS O VENCIMENTO COBRAR 2% DE MULTA                                 NAO RECEBER APOS 30 DIAS DO VENCIMENTO.                                                                                                                                                                                                         01062400000000000000106240000000000000       0090339900006270084751062410000120
100000000000000000000009033990000627000000000000000000000000010002020001098206241P00000000002            2  01010982062409062400000004678740000000001N010624000000000000000000000000000000000000000000000000000000000000000100001098222857JANDIRA DOS SANTOS PASSOS               RUA FULVIO MORGANTI - 672 - JARDIM PARAI            02417170                                                            000122
2SR. CAIXA, APOS O VENCIMENTO COBRAR 2% DE MULTA                                 NAO RECEBER APOS 30 DIAS DO VENCIMENTO.                                                                                                                                                                                                         01062400000000000000106240000000000000       009033990000627001098206241P000123
9                                                                                                                                                                                                                                                                                                                                                                                                         000124