01REMESSA01COBRANCA       00000000000005331186HB SANTOS CONSTRUTORA E INCORP237BRADESCO       011022        MX0000057                                                                                                                                                                                                                                                                                     000001
100000000000000000000009033990000995400000000000000000000000010002020026858610221P00000000002            2  01268586102208102200000002888180000000001N011022000000000000000000000000000000000000000000000000000000000000000100026858625879GLAUCE FERREIRA DE OLIVEIRA FALSI       RUA LOURENCO ANTONIO BRAGANCA - 116 - JA            04403160                                                            000002
2SR. CAIXA, APOS O VENCIMENTO COBRAR 2% DE MULTA                                 NAO RECEBER APOS 30 DIAS DO VENCIMENTO.                                                                                                                                                                                                         01102200000000000000110220000000000000       009033990000995426858610221P000003
100000000000000000000009033990000995400000000000000000000000010002020016960810221000000000002            2  01169608102208102200000002757730000000001N011022000000000000000000000000000000000000000000000000000000000000000100016960804876LUIZ ALVES DE SOUZA JUNIOR              RUA URUGUAI - 89 AP.61 - JARDIM GUILHERM            11702300                                                            000005
2SR. CAIXA, APOS O VENCIMENTO COBRAR 2% DE MULTA                                 NAO RECEBER APOS 30 DIAS DO VENCIMENTO.                                                                                                                                                                                                         01102200000000000000110220000000000000       0090339900009954169608102210000006
100000000000000000000009033990000995400000000000000000000000010002020029425010221200000000002            2  01294250102208102200000002746650000000001N011022000000000000000000000000000000000000000000000000000000000000000100029425027897FABIA DOS SANTOS DE ANDRADE             AVENIDA ALCIDES CANDIDO DOS SANTOS - 248            11705480                                                            000008
2SR. CAIXA, APOS O VENCIMENTO COBRAR 2% DE MULTA                                 NAO RECEBER APOS 30 DIAS DO VENCIMENTO.                                                                                                                                                                                                         01102200000000000000110220000000000000       0090339900009954294250102212000009
100000000000000000000009033990000995400000000000000000000000010002020078382710221800000000002            2  01783827102208102200000002775630000000001N011022000000000000000000000000000000000000000000000000000000000000000100078382700497JARMELINA BARBOSA DA SILVA              RUA OSCAR CINTRA GORDINHO - 211 AP.51 -             01512010                                                            000011
2SR. CAIXA, APOS O VENCIMENTO COBRAR 2% DE MULTA                                 NAO RECEBER APOS 30 DIAS DO VENCIMENTO.                                                                                                                                                                                                         01102200000000000000110220000000000000       0090339900009954783827102218000012
100000000000000000000009033990000995400000000000000000000000010002020007535310221700000000002            2  01075353102208102200000002721860000000001N011022000000000000000000000000000000000000000000000000000000000000000100007535375839AINAILDE PEREIRA DE CASTRO OLIVETTO     TRAVESSA DORALINA ELIETE ADAO DA SILVA -            08021026                                                            000014
2SR. CAIXA, APOS O VENCIMENTO COBRAR 2% DE MULTA                                 NAO RECEBER APOS 30 DIAS DO VENCIMENTO.                                                                                                                                                                                                         01102200000000000000110220000000000000       0090339900009954075353102217000015
100000000000000000000009033990000995400000000000000000000000010002020017229710221200000000002            2  01172297102208102200000002883210000000001N011022000000000000000000000000000000000000000000000000000000000000000100017229751802BERENICE VIEIRA KERSTING                RUA ATIBAIA - 17 AP.417 - BAIRRO IMPERAD            11707380                                                            000017
2SR. CAIXA, APOS O VENCIMENTO COBRAR 2% DE MULTA                                 NAO RECEBER APOS 30 DIAS DO VENCIMENTO.                                                                                                                                                                                                         01102200000000000000110220000000000000       0090339900009954172297102212000018
100000000000000000000009033990000995400000000000000000000000010002020028974210221400000000002            2  01289742102208102200000002692860000000001N011022000000000000000000000000000000000000000000000000000000000000000100028974233827MARISTELA FAVANI DE OLIVEIRA            RUA GIUSEPPE CARNEVALLI - 96 - BAIRRO BO            09572100                                                            000020
2SR. CAIXA, APOS O VENCIMENTO COBRAR 2% DE MULTA                                 NAO RECEBER APOS 30 DIAS DO VENCIMENTO.                                                                                                                                                                                                         01102200000000000000110220000000000000       0090339900009954289742102214000021
100000000000000000000009033990000995400000000000000000000000010002020092184810221100000000002            2  01921848102208102200000002657020000000001N011022000000000000000000000000000000000000000000000000000000000000000100092184804800CARMEM DO SOCORRO GUILHERME             ESTRADA SAO FRANCISCO - 1.850 AP.182A -             06765000                                                            000023
2SR. CAIXA, APOS O VENCIMENTO COBRAR 2% DE MULTA                                 NAO RECEBER APOS 30 DIAS DO VENCIMENTO.                                                                                                                                                                                                         01102200000000000000110220000000000000       0090339900009954921848102211000024
100000000000000000000009033990000995400000000000000000000000010002020009169710221100000000002            2  01091697102208102200000002130940000000001N011022000000000000000000000000000000000000000000000000000000000000000100009169701830TADEU CONSTANTINO LOPES                 RUA JOSE ANTONIO COELHO - 349 CASA 01 -             04011061                                                            000026
2SR. CAIXA, APOS O VENCIMENTO COBRAR 2% DE MULTA                                 NAO RECEBER APOS 30 DIAS DO VENCIMENTO.                                                                                                                                                                                                         01102200000000000000110220000000000000       0090339900009954091697102211000027
100000000000000000000009033990000995400000000000000000000000010002020042480110221P00000000002            2  01424801102208102200000002710780000000001N011022000000000000000000000000000000000000000000000000000000000000000100042480155870JAMITRE SOIOMARA ALVES DO NASCIMENTO DAVRUA URUGUAI - 89 AP.75 - JARDIM GUILHERM            11702300                                                            000029
2SR. CAIXA, APOS O VENCIMENTO COBRAR 2% DE MULTA                                 NAO RECEBER APOS 30 DIAS DO VENCIMENTO.                                                                                                                                                                                                         01102200000000000000110220000000000000       009033990000995442480110221P000030
100000000000000000000009033990000995400000000000000000000000010002020008966510221500000000002            2  01089665102208102200000002561240000000001N011022000000000000000000000000000000000000000000000000000000000000000100008966511856MONICA SILVA REIS                       RUA ORATORIO - 264 E FUNDOS - BANGU - SA            09280550                                                            000032
2SR. CAIXA, APOS O VENCIMENTO COBRAR 2% DE MULTA                                 NAO RECEBER APOS 30 DIAS DO VENCIMENTO.                                                                                                                                                                                                         01102200000000000000110220000000000000       0090339900009954089665102215000033
100000000000000000000009033990000995400000000000000000000000010002020001356910221600000000002            2  01013569102208102200000002751130000000001N011022000000000000000000000000000000000000000000000000000000000000000100001356993800DALVA MARIA DOS SANTOS                  RUA URUGUAI - 89 AP.74 - AVIACAO - PRAIA            11702300                                                            000035
2SR. CAIXA, APOS O VENCIMENTO COBRAR 2% DE MULTA                                 NAO RECEBER APOS 30 DIAS DO VENCIMENTO.                                                                                                                                                                                                         01102200000000000000110220000000000000       0090339900009954013569102216000036
100000000000000000000009033990000995400000000000000000000000010002020024615510221900000000002            2  01246155102208102200000003137550000000001N011022000000000000000000000000000000000000000000000000000000000000000100024615557884GILBERTO JOSE GONSALES                  RUA URUGUAI - 89 AP.115 - JARDIM GUILHER            11702300                                                            000038
2SR. CAIXA, APOS O VENCIMENTO COBRAR 2% DE MULTA                                 NAO RECEBER APOS 30 DIAS DO VENCIMENTO.                                                                                                                                                                                                         01102200000000000000110220000000000000       0090339900009954246155102219000039
100000000000000000000009033990000995400000000000000000000000010002020008878810221300000000002            2  01088788102208102200000003017410000000001N011022000000000000000000000000000000000000000000000000000000000000000100008878832812LUIZ ANTONIO DE OLIVEIRA                RUA TORRINHA - 220 AP.132 - BAIRRO TATUA            03332010                                                            000041
2SR. CAIXA, APOS O VENCIMENTO COBRAR 2% DE MULTA                                 NAO RECEBER APOS 30 DIAS DO VENCIMENTO.                                                                                                                                                                                                         01102200000000000000110220000000000000       0090339900009954088788102213000042
100000000000000000000009033990000995400000000000000000000000010002020031473710221900000000002            2  01314737102208102200000002217760000000001N011022000000000000000000000000000000000000000000000000000000000000000100031473799813MURIEL DA SILVA DE MOURA SOUZA          RUA CAPITAO PAULINO FREIRE - 300 AP.014             08717100                                                            000044
2SR. CAIXA, APOS O VENCIMENTO COBRAR 2% DE MULTA                                 NAO RECEBER APOS 30 DIAS DO VENCIMENTO.                                                                                                                                                                                                         01102200000000000000110220000000000000       0090339900009954314737102219000045
100000000000000000000009033990000995400000000000000000000000010002020036949510221800000000002            2  01369495102208102200000002936000000000001N011022000000000000000000000000000000000000000000000000000000000000000100036949505833FELIPE APARECIDO DOS SANTOS             RUA DAS MIMOSAS - 67 CASA 09 - VILA LUCI            03144010                                                            000047
2SR. CAIXA, APOS O VENCIMENTO COBRAR 2% DE MULTA                                 NAO RECEBER APOS 30 DIAS DO VENCIMENTO.                                                                                                                                                                                                         01102200000000000000110220000000000000       0090339900009954369495102218000048
100000000000000000000009033990000995400000000000000000000000010002020008539310221500000000002            2  01085393102208102200000002999730000000001N011022000000000000000000000000000000000000000000000000000000000000000100008539365871EDMILSON RAIMUNDO DOS SANTOS            RUA CALIDICE - 247 - PARQUE CRUZEIRO - S            08070010                                                            000050
2SR. CAIXA, APOS O VENCIMENTO COBRAR 2% DE MULTA                                 NAO RECEBER APOS 30 DIAS DO VENCIMENTO.                                                                                                                                                                                                         01102200000000000000110220000000000000       0090339900009954085393102215000051
100000000000000000000009033990000995400000000000000000000000010002020031040910221400000000002            2  01310409102208102200000003090490000000001N011022000000000000000000000000000000000000000000000000000000000000000100031040952801ANDRESSA REGINA FAVERANI LUPPI          RUA AMALIA BELLOTTI PASTORELLO - 169 - T            11724030                                                            000053
2SR. CAIXA, APOS O VENCIMENTO COBRAR 2% DE MULTA                                 NAO RECEBER APOS 30 DIAS DO VENCIMENTO.                                                                                                                                                                                                         01102200000000000000110220000000000000       0090339900009954310409102214000054
100000000000000000000009033990000995400000000000000000000000010002020024558910221000000000002            2  01245589102208102200000005166640000000001N011022000000000000000000000000000000000000000000000000000000000000000100024558912838EDILENE GORGATTI                        RUA ITARARE - 76 AP.142 - JARDIM GUILHER            11701820                                                            000056
2SR. CAIXA, APOS O VENCIMENTO COBRAR 2% DE MULTA                                 NAO RECEBER APOS 30 DIAS DO VENCIMENTO.                                                                                                                                                                                                         01102200000000000000110220000000000000       0090339900009954245589102210000057
100000000000000000000009033990000995400000000000000000000000010002020004611210221600000000002            2  01046112102208102200000001902560000000001N011022000000000000000000000000000000000000000000000000000000000000000100004611218830TANIA MARIA DA SILVA NUNES PEREIRA LUIZ RUA URUGUAI - 89 AP.103 - JARDIM GUILHER            11702300                                                            000059
2SR. CAIXA, APOS O VENCIMENTO COBRAR 2% DE MULTA                                 NAO RECEBER APOS 30 DIAS DO VENCIMENTO.                                                                                                                                                                                                         01102200000000000000110220000000000000       0090339900009954046112102216000060
100000000000000000000009033990000995400000000000000000000000010002020010548810221300000000002            2  01105488102208102200000003380550000000001N011022000000000000000000000000000000000000000000000000000000000000000100010548844801RICARDO DE JESUS CALDAS                 RUA ANTONIO AMBUBA - 50 CASA 60 - BAIRRO            05782370                                                            000062
2SR. CAIXA, APOS O VENCIMENTO COBRAR 2% DE MULTA                                 NAO RECEBER APOS 30 DIAS DO VENCIMENTO.                                                                                                                                                                                                         01102200000000000000110220000000000000       0090339900009954105488102213000063
100000000000000000000009033990000995400000000000000000000000010002020039623810221200000000002            2  01396238102208102200000002971110000000001N011022000000000000000000000000000000000000000000000000000000000000000100039623826826LEONARDO GUEDES PINTO                   RUA URUGUAI - 89 AP.24 - AVIACAO - PRAIA            11702300                                                            000065
2SR. CAIXA, APOS O VENCIMENTO COBRAR 2% DE MULTA                                 NAO RECEBER APOS 30 DIAS DO VENCIMENTO.                                                                                                                                                                                                         01102200000000000000110220000000000000       0090339900009954396238102212000066
100000000000000000000009033990000995400000000000000000000000010002020039558610221100000000002            2  01395586102208102200000002727680000000001N011022000000000000000000000000000000000000000000000000000000000000000100039558638838TAMIRES ROCHA FRANCISCO                 RUA DUARTE DE CARVALHO - 185 AP.102 - BA            03084030                                                            000068
2SR. CAIXA, APOS O VENCIMENTO COBRAR 2% DE MULTA                                 NAO RECEBER APOS 30 DIAS DO VENCIMENTO.                                                                                                                                                                                                         01102200000000000000110220000000000000       0090339900009954395586102211000069
100000000000000000000009033990000995400000000000000000000000010002020032038710221000000000002            2  01320387102208102200000002219160000000001N011022000000000000000000000000000000000000000000000000000000000000000100032038775893GUSTAVO PEREIRA DA CRUZ                 RUA SAO FIDELIS - 203 - JARDIM BRASIL -             16074050                                                            000071
2SR. CAIXA, APOS O VENCIMENTO COBRAR 2% DE MULTA                                 NAO RECEBER APOS 30 DIAS DO VENCIMENTO.                                                                                                                                                                                                         01102200000000000000110220000000000000       0090339900009954320387102210000072
100000000000000000000009033990000995400000000000000000000000010002020008993110221800000000002            2  01089931102208102200000010473230000000001N011022000000000000000000000000000000000000000000000000000000000000000100008993178801PATRICIA BITTENCOURT FRACARO            RUA MARCIO MAZZEI - 337 - VILA NOVA MAZZ            02316050                                                            000074
2SR. CAIXA, APOS O VENCIMENTO COBRAR 2% DE MULTA                                 NAO RECEBER APOS 30 DIAS DO VENCIMENTO.                                                                                                                                                                                                         01102200000000000000110220000000000000       0090339900009954089931102218000075
100000000000000000000009033990000995400000000000000000000000010002020012955210221000000000002            2  01129552102208102200000005142840000000001N011022000000000000000000000000000000000000000000000000000000000000000100012955241806MAURO ALVES SILVA                       RUA TRAITUBA - 354 - BAIRRO SAUDE - SAO             04142050                                                            000077
2SR. CAIXA, APOS O VENCIMENTO COBRAR 2% DE MULTA                                 NAO RECEBER APOS 30 DIAS DO VENCIMENTO.                                                                                                                                                                                                         01102200000000000000110220000000000000       0090339900009954129552102210000078
9                                                                                                                                                                                                                                                                                                                                                                                                         000079