01REMESSA01COBRANCA       00000000000005331186HB SANTOS CONSTRUTORA E INCORP237BRADESCO       090323        MX0000068                                                                                                                                                                                                                                                                                     000001
100000000000000000000009033990000995400000000000000000000000010002020005723203231000000000002            2  01057232032323032300000002972350000000001N070323000000000000000000000000000000000000000000000000000000000000000100005723255843FRANCISCO DE ASSIS DA SILVA             PRACA NICOLAU GERAIGIRE - 25 VISOR - JAR            11095110                                                            000002
2SR. CAIXA, APOS O VENCIMENTO COBRAR 2% DE MULTA                                 NAO RECEBER APOS 30 DIAS DO VENCIMENTO.                                                                                                                                                                                                         09032300000000000000903230000000000000       0090339900009954057232032310000003
100000000000000000000009033990000995400000000000000000000000010002020004928103231500000000002            2  01049281032323032300000002906720000000001N070323000000000000000000000000000000000000000000000000000000000000000100004928157800ADEMIR APARECIDO ANTUNES                RUA URUGUAI - 89 AP.105 - JARDIM GUILHER            11702300                                                            000005
2SR. CAIXA, APOS O VENCIMENTO COBRAR 2% DE MULTA                                 NAO RECEBER APOS 30 DIAS DO VENCIMENTO.                                                                                                                                                                                                         09032300000000000000903230000000000000       0090339900009954049281032315000006
100000000000000000000009033990000995400000000000000000000000010002020032589103231400000000002            2  01325891032323032300000002812460000000001N070323000000000000000000000000000000000000000000000000000000000000000100032589165862RENATA ISABEL MARTINS SILVA             RUA HERCULANO DE FREITAS - 257 - FUNDACA            09520280                                                            000008
2SR. CAIXA, APOS O VENCIMENTO COBRAR 2% DE MULTA                                 NAO RECEBER APOS 30 DIAS DO VENCIMENTO.                                                                                                                                                                                                         09032300000000000000903230000000000000       0090339900009954325891032314000009
100000000000000000000009033990000995400000000000000000000000010002020088339303231800000000002            2  01883393032323032300000002842960000000001N070323000000000000000000000000000000000000000000000000000000000000000100088339319868MARCIA SIQUEIRA MELLO                   RUA ADELINO ALVES - 81 - SANTO AMARO - S            04710120                                                            000011
2SR. CAIXA, APOS O VENCIMENTO COBRAR 2% DE MULTA                                 NAO RECEBER APOS 30 DIAS DO VENCIMENTO.                                                                                                                                                                                                         09032300000000000000903230000000000000       0090339900009954883393032318000012
100000000000000000000009033990000995400000000000000000000000010002020046391203231300000000002            2  01463912032323032300000002949190000000001N070323000000000000000000000000000000000000000000000000000000000000000100046391265810PAMELLA RODRIGUES DE OLIVEIRA           RUA AUGUSTA - 183 AP.301 BL.2A - VILA AU            07025130                                                            000014
2SR. CAIXA, APOS O VENCIMENTO COBRAR 2% DE MULTA                                 NAO RECEBER APOS 30 DIAS DO VENCIMENTO.                                                                                                                                                                                                         09032300000000000000903230000000000000       0090339900009954463912032313000015
100000000000000000000009033990000995400000000000000000000000010002020027964503231100000000002            2  01279645032323032300000002930280000000001N070323000000000000000000000000000000000000000000000000000000000000000100027964512838FABIO TADEU DE CAMPOS RADZIAVICIUS      RUA URUGUAI - 89 AP.94 - JARDIM GUILHERM            11702300                                                            000017
2SR. CAIXA, APOS O VENCIMENTO COBRAR 2% DE MULTA                                 NAO RECEBER APOS 30 DIAS DO VENCIMENTO.                                                                                                                                                                                                         09032300000000000000903230000000000000       0090339900009954279645032311000018
100000000000000000000009033990000995400000000000000000000000010002020027964503232P00000000002            2  01279645032323032300000002930270000000001N070323000000000000000000000000000000000000000000000000000000000000000100027964512838FABIO TADEU DE CAMPOS RADZIAVICIUS      RUA URUGUAI - 89 AP.94 - JARDIM GUILHERM            11702300                                                            000020
2SR. CAIXA, APOS O VENCIMENTO COBRAR 2% DE MULTA                                 NAO RECEBER APOS 30 DIAS DO VENCIMENTO.                                                                                                                                                                                                         09032300000000000000903230000000000000       009033990000995427964503232P000021
100000000000000000000009033990000995400000000000000000000000010002020011498303231P00000000002            2  01114983032323032300000002195420000000001N070323000000000000000000000000000000000000000000000000000000000000000100011498329837GERSON GERALDO DAS NEVES                RUA DOMINGOS DELGADO - 144 - VILA SOUZA             02881070                                                            000023
2SR. CAIXA, APOS O VENCIMENTO COBRAR 2% DE MULTA                                 NAO RECEBER APOS 30 DIAS DO VENCIMENTO.                                                                                                                                                                                                         09032300000000000000903230000000000000       009033990000995411498303231P000024
100000000000000000000009033990000995400000000000000000000000010002020025214403231600000000002            2  01252144032323032300000002598700000000001N070323000000000000000000000000000000000000000000000000000000000000000100025214401833JOSE MAURICIO DOS SANTOS RODRIGUES      RUA JOAO DE MACEDO RIBEIRO - 49 - VILA N            08111101                                                            000026
2SR. CAIXA, APOS O VENCIMENTO COBRAR 2% DE MULTA                                 NAO RECEBER APOS 30 DIAS DO VENCIMENTO.                                                                                                                                                                                                         09032300000000000000903230000000000000       0090339900009954252144032316000027
100000000000000000000009033990000995400000000000000000000000010002020033119103231300000000002            2  01331191032323032300000002609700000000001N070323000000000000000000000000000000000000000000000000000000000000000100033119178802HUGO GOMES VENDRAME                     RUA SAO PAULO - 60 CASA 01 - VILA FREITA            06380110                                                            000029
2SR. CAIXA, APOS O VENCIMENTO COBRAR 2% DE MULTA                                 NAO RECEBER APOS 30 DIAS DO VENCIMENTO.                                                                                                                                                                                                         09032300000000000000903230000000000000       0090339900009954331191032313000030
100000000000000000000009033990000995400000000000000000000000010002020016631503231600000000002            2  01166315032323032300000002655240000000001N070323000000000000000000000000000000000000000000000000000000000000000100016631587468GILBERTO BEZERRA DA SILVA               AVENIDA JAIME TORRES - 745 CASA 3 - JARD            03670000                                                            000032
2SR. CAIXA, APOS O VENCIMENTO COBRAR 2% DE MULTA                                 NAO RECEBER APOS 30 DIAS DO VENCIMENTO.                                                                                                                                                                                                         09032300000000000000903230000000000000       0090339900009954166315032316000033
100000000000000000000009033990000995400000000000000000000000010002020007313203231900000000002            2  01073132032323032300000002636380000000001N070323000000000000000000000000000000000000000000000000000000000000000100007313251840SALVADOR GESUALDO PULVIRENTI            AVENIDA MARARI - 641 - VILA MARARI - SAO            04402010                                                            000035
2SR. CAIXA, APOS O VENCIMENTO COBRAR 2% DE MULTA                                 NAO RECEBER APOS 30 DIAS DO VENCIMENTO.                                                                                                                                                                                                         09032300000000000000903230000000000000       0090339900009954073132032319000036
100000000000000000000009033990000995400000000000000000000000010002020010676703231000000000002            2  01106767032323032300000002751760000000001N070323000000000000000000000000000000000000000000000000000000000000000100010676723896MERCEDES CRISTINA ROCHA SANDOVAL        RUA URUGUAI - 89 AP.83 - JARDIM GUILHERM            11702300                                                            000038
2SR. CAIXA, APOS O VENCIMENTO COBRAR 2% DE MULTA                                 NAO RECEBER APOS 30 DIAS DO VENCIMENTO.                                                                                                                                                                                                         09032300000000000000903230000000000000       0090339900009954106767032310000039
100000000000000000000009033990000995400000000000000000000000010002020009502803231900000000002            2  01095028032323032300000002873760000000001N070323000000000000000000000000000000000000000000000000000000000000000100009502844831CLAUDIA ROCHA SANDOVAL                  RUA URUGUAI - 89 AP.64 - JARDIM GUILHERM            11702300                                                            000041
2SR. CAIXA, APOS O VENCIMENTO COBRAR 2% DE MULTA                                 NAO RECEBER APOS 30 DIAS DO VENCIMENTO.                                                                                                                                                                                                         09032300000000000000903230000000000000       0090339900009954095028032319000042
100000000000000000000009033990000995400000000000000000000000010002020007594203231800000000002            2  01075942032323032300000002579860000000001N070323000000000000000000000000000000000000000000000000000000000000000100007594247809JOSE LUIS DE OLIVEIRA                   DONA EGLANTINA PENTEADO DA SILVA PRADO -            13044162                                                            000044
2SR. CAIXA, APOS O VENCIMENTO COBRAR 2% DE MULTA                                 NAO RECEBER APOS 30 DIAS DO VENCIMENTO.                                                                                                                                                                                                         09032300000000000000903230000000000000       0090339900009954075942032318000045
100000000000000000000009033990000995400000000000000000000000010002020005288703231100000000002            2  01052887032323032300000002657510000000001N070323000000000000000000000000000000000000000000000000000000000000000100005288796858MARCELO RODRIGUES FERREIRA              RUA MARCOS ANTONIO MARQUES - 302 - JARDI            06433020                                                            000047
2SR. CAIXA, APOS O VENCIMENTO COBRAR 2% DE MULTA                                 NAO RECEBER APOS 30 DIAS DO VENCIMENTO.                                                                                                                                                                                                         09032300000000000000903230000000000000       0090339900009954052887032311000048
100000000000000000000009033990000995400000000000000000000000010002020015835903231000000000002            2  01158359032323032300000002767410000000001N070323000000000000000000000000000000000000000000000000000000000000000100015835992823FLAVIO VERONEZ                          RUA ANDREA PAULINETTI - 127 AP.42 - BAIR            04707050                                                            000050
2SR. CAIXA, APOS O VENCIMENTO COBRAR 2% DE MULTA                                 NAO RECEBER APOS 30 DIAS DO VENCIMENTO.                                                                                                                                                                                                         09032300000000000000903230000000000000       0090339900009954158359032310000051
100000000000000000000009033990000995400000000000000000000000010002020000438103231900000000002            2  01004381032323032300000003123640000000001N070323000000000000000000000000000000000000000000000000000000000000000100000438161858WAGNECY VILLA NOVA LIEN                 MACHADO - 106 - VILA AUGUSTA - GUARULHOS            07025210                                                            000053
2SR. CAIXA, APOS O VENCIMENTO COBRAR 2% DE MULTA                                 NAO RECEBER APOS 30 DIAS DO VENCIMENTO.                                                                                                                                                                                                         09032300000000000000903230000000000000       0090339900009954004381032319000054
100000000000000000000009033990000995400000000000000000000000010002020026004503231500000000002            2  01260045032323032300000002767450000000001N070323000000000000000000000000000000000000000000000000000000000000000100026004595888EDIVALDO BEZERRA DA SILVA               AVENIDA GUATEMALA - 550 - JARDIM PINHEIR            09854750                                                            000056
2SR. CAIXA, APOS O VENCIMENTO COBRAR 2% DE MULTA                                 NAO RECEBER APOS 30 DIAS DO VENCIMENTO.                                                                                                                                                                                                         09032300000000000000903230000000000000       0090339900009954260045032315000057
100000000000000000000009033990000995400000000000000000000000010002020012470703231P00000000002            2  01124707032323032300000002952670000000001N070323000000000000000000000000000000000000000000000000000000000000000100012470771870HILTON FERNANDES OLIVARES               RUA PATIO DA ESTACAO - 115 - BAIRRO CENT            09450000                                                            000059
2SR. CAIXA, APOS O VENCIMENTO COBRAR 2% DE MULTA                                 NAO RECEBER APOS 30 DIAS DO VENCIMENTO.                                                                                                                                                                                                         09032300000000000000903230000000000000       009033990000995412470703231P000060
100000000000000000000009033990000995400000000000000000000000010002020014025403231900000000002            2  01140254032323032300000003237530000000001N070323000000000000000000000000000000000000000000000000000000000000000100014025420899ANDREIA APARECIDA TAVARES BASTOS        RUA IBATIBA - 234 CASA 27 - RES.BOUGANVI            09220608                                                            000062
2SR. CAIXA, APOS O VENCIMENTO COBRAR 2% DE MULTA                                 NAO RECEBER APOS 30 DIAS DO VENCIMENTO.                                                                                                                                                                                                         09032300000000000000903230000000000000       0090339900009954140254032319000063
100000000000000000000009033990000995400000000000000000000000010002020018590003231800000000002            2  01185900032323032300000002932060000000001N070323000000000000000000000000000000000000000000000000000000000000000100018590038858JOSE SANDRO ROCHA SILVA                 RUA SANTO ANTONIO DO AVENTUREIRO - 216 A            07143040                                                            000065
2SR. CAIXA, APOS O VENCIMENTO COBRAR 2% DE MULTA                                 NAO RECEBER APOS 30 DIAS DO VENCIMENTO.                                                                                                                                                                                                         09032300000000000000903230000000000000       0090339900009954185900032318000066
100000000000000000000009033990000995400000000000000000000000010002020088578703231600000000002            2  01885787032323032300000002412670000000001N070323000000000000000000000000000000000000000000000000000000000000000100088578704800GILBERTO DO ESPIRITO SANTO SILVA        RUA URUGUAI - 89 AP.23 - JARDIM GUILHERM            11702300                                                            000068
2SR. CAIXA, APOS O VENCIMENTO COBRAR 2% DE MULTA                                 NAO RECEBER APOS 30 DIAS DO VENCIMENTO.                                                                                                                                                                                                         09032300000000000000903230000000000000       0090339900009954885787032316000069
100000000000000000000009033990000995400000000000000000000000010002020005105203231400000000002            2  01051052032323032300000002877390000000001N070323000000000000000000000000000000000000000000000000000000000000000100005105287835FABIO MOTTOLA DE OLIVEIRA               RUA RAUL MAZZONI - 133 - CHACARA AREAL -            13331022                                                            000071
2SR. CAIXA, APOS O VENCIMENTO COBRAR 2% DE MULTA                                 NAO RECEBER APOS 30 DIAS DO VENCIMENTO.                                                                                                                                                                                                         09032300000000000000903230000000000000       0090339900009954051052032314000072
100000000000000000000009033990000995400000000000000000000000010002020020792703231300000000002            2  01207927032323032300000002991440000000001N070323000000000000000000000000000000000000000000000000000000000000000120792791000147TROVAO COMERCIO DE ALIMENTOS LTDA-ME    RUA QUINTA DA MAGNOLIA - 67 - JARDIM IPA            03582100                                                            000074
2SR. CAIXA, APOS O VENCIMENTO COBRAR 2% DE MULTA                                 NAO RECEBER APOS 30 DIAS DO VENCIMENTO.                                                                                                                                                                                                         09032300000000000000903230000000000000       0090339900009954207927032313000075
100000000000000000000009033990000995400000000000000000000000010002020007648103231700000000002            2  01076481032323032300000002808970000000001N070323000000000000000000000000000000000000000000000000000000000000000100007648112825MARA REGINA CAPRIO                      RUA DA TRINDADE - 790 - VILA IDEAL - SAO            15060280                                                            000077
2SR. CAIXA, APOS O VENCIMENTO COBRAR 2% DE MULTA                                 NAO RECEBER APOS 30 DIAS DO VENCIMENTO.                                                                                                                                                                                                         09032300000000000000903230000000000000       0090339900009954076481032317000078
100000000000000000000009033990000995400000000000000000000000010002020031157403231600000000002            2  01311574032323032300000003016150000000001N070323000000000000000000000000000000000000000000000000000000000000000100031157420885TALITA ANICHIARICO COSSI                RUA CNEO POMPEO DE CAMARGO - 817 - JARDI            13060150                                                            000080
2SR. CAIXA, APOS O VENCIMENTO COBRAR 2% DE MULTA                                 NAO RECEBER APOS 30 DIAS DO VENCIMENTO.                                                                                                                                                                                                         09032300000000000000903230000000000000       0090339900009954311574032316000081
100000000000000000000009033990000995400000000000000000000000010002020035572503231000000000002            2  01355725032323032300000003206860000000001N070323000000000000000000000000000000000000000000000000000000000000000100035572536865MARIA SIMONE SANTOS                     RUA JOSE PEZZOLO - 68 - VILA ELDIZIA - S            09181660                                                            000083
2SR. CAIXA, APOS O VENCIMENTO COBRAR 2% DE MULTA                                 NAO RECEBER APOS 30 DIAS DO VENCIMENTO.                                                                                                                                                                                                         09032300000000000000903230000000000000       0090339900009954355725032310000084
100000000000000000000009033990000995400000000000000000000000010002020008800303231800000000002            2  01088003032323032300000002921870000000001N070323000000000000000000000000000000000000000000000000000000000000000100008800368425INGO DIMITRI PEREIRA DA NOBREGA         RUA PROFESSOR MENDES PIMENTEL - 362 - JA            03973010                                                            000086
2SR. CAIXA, APOS O VENCIMENTO COBRAR 2% DE MULTA                                 NAO RECEBER APOS 30 DIAS DO VENCIMENTO.                                                                                                                                                                                                         09032300000000000000903230000000000000       0090339900009954088003032318000087
100000000000000000000009033990000995400000000000000000000000010002020005054103231200000000002            2  01050541032323032300000002827620000000001N070323000000000000000000000000000000000000000000000000000000000000000100005054169806PAULO ROBERTO DE MATTOS                 JARDIM BOTANICO - 849 - DISTRITO DE SOUS            13106258                                                            000089
2SR. CAIXA, APOS O VENCIMENTO COBRAR 2% DE MULTA                                 NAO RECEBER APOS 30 DIAS DO VENCIMENTO.                                                                                                                                                                                                         09032300000000000000903230000000000000       0090339900009954050541032312000090
100000000000000000000009033990000995400000000000000000000000010002020007552103231900000000002            2  01075521032323032300000002827620000000001N070323000000000000000000000000000000000000000000000000000000000000000100007552151846MAURO BORDONI                           AVENIDA DR. AUGUSTO DE TOLEDO - 769 AP.6            09540080                                                            000092
2SR. CAIXA, APOS O VENCIMENTO COBRAR 2% DE MULTA                                 NAO RECEBER APOS 30 DIAS DO VENCIMENTO.                                                                                                                                                                                                         09032300000000000000903230000000000000       0090339900009954075521032319000093
100000000000000000000009033990000995400000000000000000000000010002020012744203231100000000002            2  01127442032323032300000003146150000000001N070323000000000000000000000000000000000000000000000000000000000000000100012744201804ADAIL JOSE DE SOUSA                     RUA ROSARIA - 303 - BAIRRO SACADURA CABR            09061080                                                            000095
2SR. CAIXA, APOS O VENCIMENTO COBRAR 2% DE MULTA                                 NAO RECEBER APOS 30 DIAS DO VENCIMENTO.                                                                                                                                                                                                         09032300000000000000903230000000000000       0090339900009954127442032311000096
100000000000000000000009033990000995400000000000000000000000010002020068320603231900000000002            2  01683206032323032300000011142040000000001N070323000000000000000000000000000000000000000000000000000000000000000100068320663849ANTONIO CAVALCANTE LIMA                 RUA AMAZONAS - 1188 - CENTRO - SAO CAETA            09540201                                                            000098
2SR. CAIXA, APOS O VENCIMENTO COBRAR 2% DE MULTA                                 NAO RECEBER APOS 30 DIAS DO VENCIMENTO.                                                                                                                                                                                                         09032300000000000000903230000000000000       0090339900009954683206032319000099
100000000000000000000009033990000995400000000000000000000000010002020088926203231000000000002            2  01889262032323032300000002340670000000001N070323000000000000000000000000000000000000000000000000000000000000000100088926230872VALDEMAR LATANCE FILHO                  RUA MELO PINTO DA SILVA - 111 CASA 103 -            18116265                                                            000101
2SR. CAIXA, APOS O VENCIMENTO COBRAR 2% DE MULTA                                 NAO RECEBER APOS 30 DIAS DO VENCIMENTO.                                                                                                                                                                                                         09032300000000000000903230000000000000       0090339900009954889262032310000102
100000000000000000000009033990000995400000000000000000000000010002020004195303231800000000002            2  01041953032323032300000003054960000000001N070323000000000000000000000000000000000000000000000000000000000000000100004195345804LUIZ CARLOS SILVESTRE                   RUA CONDE VICENTE AZEVEDO - 377 - BAIRRO            04264000                                                            000104
2SR. CAIXA, APOS O VENCIMENTO COBRAR 2% DE MULTA                                 NAO RECEBER APOS 30 DIAS DO VENCIMENTO.                                                                                                                                                                                                         09032300000000000000903230000000000000       0090339900009954041953032318000105
9                                                                                                                                                                                                                                                                                                                                                                                                         000106