01REMESSA01COBRANCA       00000000000005316116AIRES CONSTRUTORA E INCORPORAD237BRADESCO       010122        MX0000185                                                                                                                                                                                                                                                                                     000001
100000000000000000000009002800441612000000000000000000000000010002100003865701221100000000002            2  01038657012210012200000003720060000000001N010122000000000000000000000000000000000000000000000000000000000000000100003865776841FRANCISCO JOSE ROCCO                    AVENIDA PADRES OLIVETANOS - 215 AP.83 -             03648000                                                            000002
2SR. CAIXA, APOS O VENCIMENTO COBRAR 10% DE MULTA                                NAO RECEBER APOS 30 DIAS DO VENCIMENTO.                                                                                                                                                                                                         01012200000000000000101220000000000000       0090028004416120038657012211000003
100000000000000000000009002800441612000000000000000000000000010002100028309501221800000000002            2  01283095012210012200000003317430000000001N010122000000000000000000000000000000000000000000000000000000000000000100028309524803DEISE RIBEIRO BARBOSA                   RUA CANDIDO JOSE DE ANDRADE - 173 - ERME            03807030                                                            000005
2SR. CAIXA, APOS O VENCIMENTO COBRAR 10% DE MULTA                                NAO RECEBER APOS 30 DIAS DO VENCIMENTO.                                                                                                                                                                                                         01012200000000000000101220000000000000       0090028004416120283095012218000006
100000000000000000000009002800441612000000000000000000000000010002100011277901221800000000002            2  01112779012210012200000003937440000000001N010122000000000000000000000000000000000000000000000000000000000000000100011277908893JOSE AILTON LOPES DE AZEVEDO            RUA MAESTRO JOAO SEPE - 19 - JARDIM MARI            04181030                                                            000008
2SR. CAIXA, APOS O VENCIMENTO COBRAR 10% DE MULTA                                NAO RECEBER APOS 30 DIAS DO VENCIMENTO.                                                                                                                                                                                                         01012200000000000000101220000000000000       0090028004416120112779012218000009
100000000000000000000009002800441612000000000000000000000000010002100025215101221500000000002            2  01252151012210012200000002969300000000001N010122000000000000000000000000000000000000000000000000000000000000000100025215106886KLEBER LUIZ DOS SANTOS                  RUA MONTE CASTELO - 262 AP.15 - AVIACAO             11702720                                                            000011
2SR. CAIXA, APOS O VENCIMENTO COBRAR 10% DE MULTA                                NAO RECEBER APOS 30 DIAS DO VENCIMENTO.                                                                                                                                                                                                         01012200000000000000101220000000000000       0090028004416120252151012215000012
100000000000000000000009002800441612000000000000000000000000010002100090206701221200000000002            2  01902067012210012200000003316600000000001N010122000000000000000000000000000000000000000000000000000000000000000100090206789815NEREIDE RODRIGUES FERREIRA              AVENIDA PADRE ESTANISLAU DE CAMPOS - 205            03590060                                                            000014
2SR. CAIXA, APOS O VENCIMENTO COBRAR 10% DE MULTA                                NAO RECEBER APOS 30 DIAS DO VENCIMENTO.                                                                                                                                                                                                         01012200000000000000101220000000000000       0090028004416120902067012212000015
100000000000000000000009002800441612000000000000000000000000010002100029150701221000000000002            2  01291507012210012200000003882120000000001N010122000000000000000000000000000000000000000000000000000000000000000100029150742833ANA DEISE SANTOS DE ALMEIDA             RUA MONTE CASTELO - 296 AP.121 - AVIACAO            11702720                                                            000017
2SR. CAIXA, APOS O VENCIMENTO COBRAR 10% DE MULTA                                NAO RECEBER APOS 30 DIAS DO VENCIMENTO.                                                                                                                                                                                                         01012200000000000000101220000000000000       0090028004416120291507012210000018
100000000000000000000009002800441612000000000000000000000000010002100000811701221600000000002            2  01008117012210012200000003197640000000001N010122000000000000000000000000000000000000000000000000000000000000000100000811752801SERGIO BUENO DA SILVA                   RUA MONTE CASTELO - 262 AP.75 - AVIACAO             11702720                                                            000020
2SR. CAIXA, APOS O VENCIMENTO COBRAR 10% DE MULTA                                NAO RECEBER APOS 30 DIAS DO VENCIMENTO.                                                                                                                                                                                                         01012200000000000000101220000000000000       0090028004416120008117012216000021
100000000000000000000009002800441612000000000000000000000000010002100018344801221200000000002            2  01183448012210012200000004348000000000001N010122000000000000000000000000000000000000000000000000000000000000000100018344803888MARCELO BERNARDO                        RUA MONTE CASTELO - 262 AP.84 - AVIACAO             11702720                                                            000023
2SR. CAIXA, APOS O VENCIMENTO COBRAR 10% DE MULTA                                NAO RECEBER APOS 30 DIAS DO VENCIMENTO.                                                                                                                                                                                                         01012200000000000000101220000000000000       0090028004416120183448012212000024
100000000000000000000009002800441612000000000000000000000000010002100031803801221800000000002            2  01318038012210012200000003511230000000001N010122000000000000000000000000000000000000000000000000000000000000000100031803864877ELEILSON FELIPPE SANTOS                 RUA SANTA GREGORIA - 193 - CIDADE DUTRA             04806030                                                            000026
2SR. CAIXA, APOS O VENCIMENTO COBRAR 10% DE MULTA                                NAO RECEBER APOS 30 DIAS DO VENCIMENTO.                                                                                                                                                                                                         01012200000000000000101220000000000000       0090028004416120318038012218000027
100000000000000000000009002800441612000000000000000000000000010002100026032601221600000000002            2  01260326012210012200000002416290000000001N010122000000000000000000000000000000000000000000000000000000000000000100026032632857MARILA LOPES PEREIRA                    AVENIDA LUIZ GUSHIKEN - 1761 AP.13 BL.05            05831315                                                            000029
2SR. CAIXA, APOS O VENCIMENTO COBRAR 10% DE MULTA                                NAO RECEBER APOS 30 DIAS DO VENCIMENTO.                                                                                                                                                                                                         01012200000000000000101220000000000000       0090028004416120260326012216000030
100000000000000000000009002800441612000000000000000000000000010002100063064501221200000000002            2  01630645012210012200000004184250000000001N010122000000000000000000000000000000000000000000000000000000000000000100063064537849ANTONIO APARECIDO DA SILVA DESTEFANO    RUA PROFESSOR TEODORO BRAGA - 46 - VILA             02966020                                                            000032
2SR. CAIXA, APOS O VENCIMENTO COBRAR 10% DE MULTA                                NAO RECEBER APOS 30 DIAS DO VENCIMENTO.                                                                                                                                                                                                         01012200000000000000101220000000000000       0090028004416120630645012212000033
100000000000000000000009002800441612000000000000000000000000010002100005920501221100000000002            2  01059205012210012200000002436100000000001N010122000000000000000000000000000000000000000000000000000000000000000100005920579846SONIA MARIA VALDO POLLO                 RUA PALMIRA CERVI BARBARO - 797 - CIDADE            13214370                                                            000035
2SR. CAIXA, APOS O VENCIMENTO COBRAR 10% DE MULTA                                NAO RECEBER APOS 30 DIAS DO VENCIMENTO.                                                                                                                                                                                                         01012200000000000000101220000000000000       0090028004416120059205012211000036
100000000000000000000009002800441612000000000000000000000000010002100002494101221200000000002            2  01024941012210012200000003662780000000001N010122000000000000000000000000000000000000000000000000000000000000000100002494107881CIRO FRANCISCO MARCHI DURIGON           RUA MONTE CASTELO - 262 AP.115 - AVIACAO            11702720                                                            000038
2SR. CAIXA, APOS O VENCIMENTO COBRAR 10% DE MULTA                                NAO RECEBER APOS 30 DIAS DO VENCIMENTO.                                                                                                                                                                                                         01012200000000000000101220000000000000       0090028004416120024941012212000039
100000000000000000000009002800441612000000000000000000000000010002100007002301221P00000000002            2  01070023012210012200000003600690000000001N010122000000000000000000000000000000000000000000000000000000000000000100007002345869DOMINGOS DE BRITO GALVAO                RUA MONTE CASTELO - 262 AP.44 - AVIACAO             11702720                                                            000041
2SR. CAIXA, APOS O VENCIMENTO COBRAR 10% DE MULTA                                NAO RECEBER APOS 30 DIAS DO VENCIMENTO.                                                                                                                                                                                                         01012200000000000000101220000000000000       009002800441612007002301221P000042
100000000000000000000009002800441612000000000000000000000000010002100016299001221300000000002            2  01162990012210012200000003471070000000001N010122000000000000000000000000000000000000000000000000000000000000000100016299008857FERNANDO CESAR CARVALHO                 AVENIDA MARCONDES DE BRITO - 1340 AP.74             03509000                                                            000044
2SR. CAIXA, APOS O VENCIMENTO COBRAR 10% DE MULTA                                NAO RECEBER APOS 30 DIAS DO VENCIMENTO.                                                                                                                                                                                                         01012200000000000000101220000000000000       0090028004416120162990012213000045
100000000000000000000009002800441612000000000000000000000000010002100065895301221700000000002            2  01658953012210012200000002123600000000001N010122000000000000000000000000000000000000000000000000000000000000000100065895304834MARINHO BARBOSA CUNHA                   AVENIDA EDU CHAVES - 639 AP.43 - PARQUE             02229000                                                            000047
2SR. CAIXA, APOS O VENCIMENTO COBRAR 10% DE MULTA                                NAO RECEBER APOS 30 DIAS DO VENCIMENTO.                                                                                                                                                                                                         01012200000000000000101220000000000000       0090028004416120658953012217000048
100000000000000000000009002800441612000000000000000000000000010002100055975301221400000000002            2  01559753012210012200000000792650000000001N010122000000000000000000000000000000000000000000000000000000000000000100055975372887BENEVENUTO THEODORO DA SILVA NETO       RUA MONTE CASTELO - 296 AP.63 - AVIACAO             11702720                                                            000050
2SR. CAIXA, APOS O VENCIMENTO COBRAR 10% DE MULTA                                NAO RECEBER APOS 30 DIAS DO VENCIMENTO.                                                                                                                                                                                                         01012200000000000000101220000000000000       0090028004416120559753012214000051
9                                                                                                                                                                                                                                                                                                                                                                                                         000052