01REMESSA01COBRANCA       00000000000005331186HB SANTOS CONSTRUTORA E INCORP237BRADESCO       010424        MX0000094                                                                                                                                                                                                                                                                                     000001
100000000000000000000009033990000995400000000000000000000000010002020026858604241100000000002            2  01268586042408042400000003381950000000001N010424000000000000000000000000000000000000000000000000000000000000000100026858625879GLAUCE FERREIRA DE OLIVEIRA FALSI       RUA LOURENCO ANTONIO BRAGANCA - 116 - JA            04403160                                                            000002
2SR. CAIXA, APOS O VENCIMENTO COBRAR 2% DE MULTA                                 NAO RECEBER APOS 30 DIAS DO VENCIMENTO.                                                                                                                                                                                                         01042400000000000000104240000000000000       0090339900009954268586042411000003
100000000000000000000009033990000995400000000000000000000000010002020029425004241400000000002            2  01294250042408042400000003216230000000001N010424000000000000000000000000000000000000000000000000000000000000000100029425027897FABIA DOS SANTOS DE ANDRADE             AVENIDA ALCIDES CANDIDO DOS SANTOS - 248            11705480                                                            000005
2SR. CAIXA, APOS O VENCIMENTO COBRAR 2% DE MULTA                                 NAO RECEBER APOS 30 DIAS DO VENCIMENTO.                                                                                                                                                                                                         01042400000000000000104240000000000000       0090339900009954294250042414000006
100000000000000000000009033990000995400000000000000000000000010002020078382704241P00000000002            2  01783827042408042400000003250190000000001N010424000000000000000000000000000000000000000000000000000000000000000100078382700497JARMELINA BARBOSA DA SILVA              RUA OSCAR CINTRA GORDINHO - 211 AP.51 -             01512010                                                            000008
2SR. CAIXA, APOS O VENCIMENTO COBRAR 2% DE MULTA                                 NAO RECEBER APOS 30 DIAS DO VENCIMENTO.                                                                                                                                                                                                         01042400000000000000104240000000000000       009033990000995478382704241P000009
100000000000000000000009033990000995400000000000000000000000010002020007535304241900000000002            2  01075353042408042400000003187190000000001N010424000000000000000000000000000000000000000000000000000000000000000100007535375839AINAILDE PEREIRA DE CASTRO OLIVETTO     TRAVESSA DORALINA ELIETE ADAO DA SILVA -            08021026                                                            000011
2SR. CAIXA, APOS O VENCIMENTO COBRAR 2% DE MULTA                                 NAO RECEBER APOS 30 DIAS DO VENCIMENTO.                                                                                                                                                                                                         01042400000000000000104240000000000000       0090339900009954075353042419000012
100000000000000000000009033990000995400000000000000000000000010002020017229704241400000000002            2  01172297042408042400000003376150000000001N010424000000000000000000000000000000000000000000000000000000000000000100017229751802BERENICE VIEIRA KERSTING                RUA ATIBAIA - 17 AP.417 - BAIRRO IMPERAD            11707380                                                            000014
2SR. CAIXA, APOS O VENCIMENTO COBRAR 2% DE MULTA                                 NAO RECEBER APOS 30 DIAS DO VENCIMENTO.                                                                                                                                                                                                         01042400000000000000104240000000000000       0090339900009954172297042414000015
100000000000000000000009033990000995400000000000000000000000010002020028974204241600000000002            2  01289742042408042400000003153220000000001N010424000000000000000000000000000000000000000000000000000000000000000100028974233827MARISTELA FAVANI DE OLIVEIRA            RUA GIUSEPPE CARNEVALLI - 96 - BAIRRO BO            09572100                                                            000017
2SR. CAIXA, APOS O VENCIMENTO COBRAR 2% DE MULTA                                 NAO RECEBER APOS 30 DIAS DO VENCIMENTO.                                                                                                                                                                                                         01042400000000000000104240000000000000       0090339900009954289742042416000018
100000000000000000000009033990000995400000000000000000000000010002020092184804241300000000002            2  01921848042408042400000003111280000000001N010424000000000000000000000000000000000000000000000000000000000000000100092184804800CARMEM DO SOCORRO GUILHERME             ESTRADA SAO FRANCISCO - 1.850 AP.182A -             06765000                                                            000020
2SR. CAIXA, APOS O VENCIMENTO COBRAR 2% DE MULTA                                 NAO RECEBER APOS 30 DIAS DO VENCIMENTO.                                                                                                                                                                                                         01042400000000000000104240000000000000       0090339900009954921848042413000021
100000000000000000000009033990000995400000000000000000000000010002020009169704241300000000002            2  01091697042408042400000002495280000000001N010424000000000000000000000000000000000000000000000000000000000000000100009169701830TADEU CONSTANTINO LOPES                 RUA JOSE ANTONIO COELHO - 349 CASA 01 -             04011061                                                            000023
2SR. CAIXA, APOS O VENCIMENTO COBRAR 2% DE MULTA                                 NAO RECEBER APOS 30 DIAS DO VENCIMENTO.                                                                                                                                                                                                         01042400000000000000104240000000000000       0090339900009954091697042413000024
100000000000000000000009033990000995400000000000000000000000010002020042480104241100000000002            2  01424801042408042400000003174220000000001N010424000000000000000000000000000000000000000000000000000000000000000100042480155870JAMITRE SOIOMARA ALVES DO NASCIMENTO DAVRUA URUGUAI - 89 AP.75 - JARDIM GUILHERM            11702300                                                            000026
2SR. CAIXA, APOS O VENCIMENTO COBRAR 2% DE MULTA                                 NAO RECEBER APOS 30 DIAS DO VENCIMENTO.                                                                                                                                                                                                         01042400000000000000104240000000000000       0090339900009954424801042411000027
100000000000000000000009033990000995400000000000000000000000010002020001356904241800000000002            2  01013569042408042400000003221490000000001N010424000000000000000000000000000000000000000000000000000000000000000100001356993800DALVA MARIA DOS SANTOS                  RUA URUGUAI - 89 AP.74 - AVIACAO - PRAIA            11702300                                                            000029
2SR. CAIXA, APOS O VENCIMENTO COBRAR 2% DE MULTA                                 NAO RECEBER APOS 30 DIAS DO VENCIMENTO.                                                                                                                                                                                                         01042400000000000000104240000000000000       0090339900009954013569042418000030
100000000000000000000009033990000995400000000000000000000000010002020024615504241000000000002            2  01246155042408042400000003673970000000001N010424000000000000000000000000000000000000000000000000000000000000000100024615557884GILBERTO JOSE GONSALES                  RUA URUGUAI - 89 AP.115 - JARDIM GUILHER            11702300                                                            000032
2SR. CAIXA, APOS O VENCIMENTO COBRAR 2% DE MULTA                                 NAO RECEBER APOS 30 DIAS DO VENCIMENTO.                                                                                                                                                                                                         01042400000000000000104240000000000000       0090339900009954246155042410000033
100000000000000000000009033990000995400000000000000000000000010002020036949504241P00000000002            2  01369495042408042400000003437940000000001N010424000000000000000000000000000000000000000000000000000000000000000100036949505833FELIPE APARECIDO DOS SANTOS             RUA DAS MIMOSAS - 67 CASA 09 - VILA LUCI            03144010                                                            000035
2SR. CAIXA, APOS O VENCIMENTO COBRAR 2% DE MULTA                                 NAO RECEBER APOS 30 DIAS DO VENCIMENTO.                                                                                                                                                                                                         01042400000000000000104240000000000000       009033990000995436949504241P000036
100000000000000000000009033990000995400000000000000000000000010002020008539304241700000000002            2  01085393042408042400000003512590000000001N010424000000000000000000000000000000000000000000000000000000000000000100008539365871EDMILSON RAIMUNDO DOS SANTOS            RUA CALIDICE - 247 - PARQUE CRUZEIRO - S            08070010                                                            000038
2SR. CAIXA, APOS O VENCIMENTO COBRAR 2% DE MULTA                                 NAO RECEBER APOS 30 DIAS DO VENCIMENTO.                                                                                                                                                                                                         01042400000000000000104240000000000000       0090339900009954085393042417000039
100000000000000000000009033990000995400000000000000000000000010002020004611204241800000000002            2  01046112042408042400000002227860000000001N010424000000000000000000000000000000000000000000000000000000000000000100004611218830TANIA MARIA DA SILVA NUNES PEREIRA LUIZ RUA URUGUAI - 89 AP.103 - JARDIM GUILHER            11702300                                                            000041
2SR. CAIXA, APOS O VENCIMENTO COBRAR 2% DE MULTA                                 NAO RECEBER APOS 30 DIAS DO VENCIMENTO.                                                                                                                                                                                                         01042400000000000000104240000000000000       0090339900009954046112042418000042
100000000000000000000009033990000995400000000000000000000000010002020010548804241500000000002            2  01105488042408042400000003958540000000001N010424000000000000000000000000000000000000000000000000000000000000000100010548844801RICARDO DE JESUS CALDAS                 RUA ANTONIO AMBUBA - 50 CASA 60 - BAIRRO            05782370                                                            000044
2SR. CAIXA, APOS O VENCIMENTO COBRAR 2% DE MULTA                                 NAO RECEBER APOS 30 DIAS DO VENCIMENTO.                                                                                                                                                                                                         01042400000000000000104240000000000000       0090339900009954105488042415000045
100000000000000000000009033990000995400000000000000000000000010002020032038704241200000000002            2  01320387042408042400000002598570000000001N010424000000000000000000000000000000000000000000000000000000000000000100032038775893GUSTAVO PEREIRA DA CRUZ                 RUA SAO FIDELIS - 203 - JARDIM BRASIL -             16074050                                                            000047
2SR. CAIXA, APOS O VENCIMENTO COBRAR 2% DE MULTA                                 NAO RECEBER APOS 30 DIAS DO VENCIMENTO.                                                                                                                                                                                                         01042400000000000000104240000000000000       0090339900009954320387042412000048
100000000000000000000009033990000995400000000000000000000000010002020008993104241P00000000002            2  01089931042408042400000012263820000000001N010424000000000000000000000000000000000000000000000000000000000000000100008993178801PATRICIA BITTENCOURT FRACARO            RUA MARCIO MAZZEI - 337 - VILA NOVA MAZZ            02316050                                                            000050
2SR. CAIXA, APOS O VENCIMENTO COBRAR 2% DE MULTA                                 NAO RECEBER APOS 30 DIAS DO VENCIMENTO.                                                                                                                                                                                                         01042400000000000000104240000000000000       009033990000995408993104241P000051
100000000000000000000009033990000995400000000000000000000000010002020025914204241600000000002            2  01259142042408042400000003533280000000001N010424000000000000000000000000000000000000000000000000000000000000000100025914206880JONAS DOS REIS MACHADO                  RUA PROFESSORA MARGARIDA RUTH FERREIRA D            02378200                                                            000053
2SR. CAIXA, APOS O VENCIMENTO COBRAR 2% DE MULTA                                 NAO RECEBER APOS 30 DIAS DO VENCIMENTO.                                                                                                                                                                                                         01042400000000000000104240000000000000       0090339900009954259142042416000054
100000000000000000000009033990000995400000000000000000000000010002020032549504241200000000002            2  01325495042408042400000003229200000000001N010424000000000000000000000000000000000000000000000000000000000000000100032549502833PAMELA DECENCI                          RUA URUGUAI - 89 AP.61 - AVIACAO - PRAIA            11702300                                                            000056
2SR. CAIXA, APOS O VENCIMENTO COBRAR 2% DE MULTA                                 NAO RECEBER APOS 30 DIAS DO VENCIMENTO.                                                                                                                                                                                                         01042400000000000000104240000000000000       0090339900009954325495042412000057
100000000000000000000009033990000995400000000000000000000000010002020027969404241100000000002            2  01279694042408042400000002596930000000001N010424000000000000000000000000000000000000000000000000000000000000000100027969412807THIAGO BARRETO PEREZ                    RUA ARMINDO GUARANA - 170 - VILA REGENTE            03335070                                                            000059
2SR. CAIXA, APOS O VENCIMENTO COBRAR 2% DE MULTA                                 NAO RECEBER APOS 30 DIAS DO VENCIMENTO.                                                                                                                                                                                                         01042400000000000000104240000000000000       0090339900009954279694042411000060
100000000000000000000009033990000995400000000000000000000000010002020013466504241200000000002            2  01134665042408042400000003479070000000001N010424000000000000000000000000000000000000000000000000000000000000000100013466586844MAURICIO DANTAS DA SILVA                RUA CASTOR - 57 - CIDADE SATELITE SANTA             08340120                                                            000062
2SR. CAIXA, APOS O VENCIMENTO COBRAR 2% DE MULTA                                 NAO RECEBER APOS 30 DIAS DO VENCIMENTO.                                                                                                                                                                                                         01042400000000000000104240000000000000       0090339900009954134665042412000063
9                                                                                                                                                                                                                                                                                                                                                                                                         000064