01REMESSA01COBRANCA       00000000000008017025HB SANTOS CONSTRUTORA E INCORP237BRADESCO       011020        MX0000114                                                                                                                                                                                                                                                                                     000001
100000000000000000000009033990000627000000000000000000000000010002020025035110201100000000002            2  01250351102024102000000002321880000000001N011020000000000000000000000000000000000000000000000000000000000000000100025035170802WANDERSON LUIS DE CARVALHO              RUA JOAQUIM GONCALVES ROCHA - 302 - JARD            02859030                                                            000002
2SR. CAIXA, APOS O VENCIMENTO COBRAR 2% DE MULTA                                 NAO RECEBER APOS 30 DIAS DO VENCIMENTO.                                                                                                                                                                                                         01102000000000000000110200000000000000       0090339900006270250351102011000003
100000000000000000000009033990000627000000000000000000000000010002020007294310201900000000002            2  01072943102024102000000003122960000000001N011020000000000000000000000000000000000000000000000000000000000000000100007294351805CLAUDENIR APARECIDO VACARI              RUA CARLOS JOSE BORSTENS - 50 AP.93 - AV            11702750                                                            000005
2SR. CAIXA, APOS O VENCIMENTO COBRAR 2% DE MULTA                                 NAO RECEBER APOS 30 DIAS DO VENCIMENTO.                                                                                                                                                                                                         01102000000000000000110200000000000000       0090339900006270072943102019000006
100000000000000000000009033990000627000000000000000000000000010002020042976110201900000000002            2  01429761102024102000000003155740000000001N011020000000000000000000000000000000000000000000000000000000000000000100042976111634ACACIO TOSCANO BONDANCA                 RUA CARLOS JOSE BORSTENS - 50 AP.103 - A            11702750                                                            000008
2SR. CAIXA, APOS O VENCIMENTO COBRAR 2% DE MULTA                                 NAO RECEBER APOS 30 DIAS DO VENCIMENTO.                                                                                                                                                                                                         01102000000000000000110200000000000000       0090339900006270429761102019000009
100000000000000000000009033990000627000000000000000000000000010002020035438010201200000000002            2  01354380102024102000000002665180000000001N011020000000000000000000000000000000000000000000000000000000000000000100035438022836ALESSANDRO FARACO DOS SANTOS            RUA PEDRO POMAR  - 145 - JARDIM ELISA MA            02875020                                                            000011
2SR. CAIXA, APOS O VENCIMENTO COBRAR 2% DE MULTA                                 NAO RECEBER APOS 30 DIAS DO VENCIMENTO.                                                                                                                                                                                                         01102000000000000000110200000000000000       0090339900006270354380102012000012
100000000000000000000009033990000627000000000000000000000000010002020007525010201400000000002            2  01075250102024102000000003493160000000001N011020000000000000000000000000000000000000000000000000000000000000000100007525032866FERNANDO RIBEIRO                        RUA CARLOS JOSE BORSTENS - 50 AP.32 - AV            11702750                                                            000014
2SR. CAIXA, APOS O VENCIMENTO COBRAR 2% DE MULTA                                 NAO RECEBER APOS 30 DIAS DO VENCIMENTO.                                                                                                                                                                                                         01102000000000000000110200000000000000       0090339900006270075250102014000015
100000000000000000000009033990000627000000000000000000000000010002020005071410201P00000000002            2  01050714102024102000000003064170000000001N011020000000000000000000000000000000000000000000000000000000000000000100005071481855ERIBALDO SANTANA CARVALHO               RUA HONDURAS - 477 - PARQUE DAS AMERICAS            09351070                                                            000017
2SR. CAIXA, APOS O VENCIMENTO COBRAR 2% DE MULTA                                 NAO RECEBER APOS 30 DIAS DO VENCIMENTO.                                                                                                                                                                                                         01102000000000000000110200000000000000       009033990000627005071410201P000018
100000000000000000000009033990000627000000000000000000000000010002020002841710201300000000002            2  01028417102024102000000002866820000000001N011020000000000000000000000000000000000000000000000000000000000000000100002841756416LUCIANA PINHEIRO DE ASSIS NUNES         RUA RIO ACIMA - 81 - RIACHO GRANDE - SAO            09830100                                                            000020
2SR. CAIXA, APOS O VENCIMENTO COBRAR 2% DE MULTA                                 NAO RECEBER APOS 30 DIAS DO VENCIMENTO.                                                                                                                                                                                                         01102000000000000000110200000000000000       0090339900006270028417102013000021
100000000000000000000009033990000627000000000000000000000000010002020084302010201200000000002            2  01843020102024102000000002880570000000001N011020000000000000000000000000000000000000000000000000000000000000000100084302097868FAUSTO TADEU VILOR                      RUA ANTONIO TAVARES - 466 - BAIRRO CAMBU            01542010                                                            000023
2SR. CAIXA, APOS O VENCIMENTO COBRAR 2% DE MULTA                                 NAO RECEBER APOS 30 DIAS DO VENCIMENTO.                                                                                                                                                                                                         01102000000000000000110200000000000000       0090339900006270843020102012000024
100000000000000000000009033990000627000000000000000000000000010002020028804210201200000000002            2  01288042102024102000000002830190000000001N011020000000000000000000000000000000000000000000000000000000000000000100028804202882GILBERTO FABIANO CABRAL DE CAMARGO      RUA CARLOS JOSE BORSTENS - 50 AP.44 - AV            11702750                                                            000026
2SR. CAIXA, APOS O VENCIMENTO COBRAR 2% DE MULTA                                 NAO RECEBER APOS 30 DIAS DO VENCIMENTO.                                                                                                                                                                                                         01102000000000000000110200000000000000       0090339900006270288042102012000027
100000000000000000000009033990000627000000000000000000000000010002020000991710201500000000002            2  01009917102024102000000002762370000000001N011020000000000000000000000000000000000000000000000000000000000000000100000991748808JAILSON BORGES DE ANDRADE               RUA IPIOBUNA - 45 - JARDIM CUMBICA - GUA            07240040                                                            000029
2SR. CAIXA, APOS O VENCIMENTO COBRAR 2% DE MULTA                                 NAO RECEBER APOS 30 DIAS DO VENCIMENTO.                                                                                                                                                                                                         01102000000000000000110200000000000000       0090339900006270009917102015000030
100000000000000000000009033990000627000000000000000000000000010002020022151610201100000000002            2  01221516102024102000000002746330000000001N011020000000000000000000000000000000000000000000000000000000000000000100022151666816SAMIR LIMA DE ARAUJO                    AVENIDA GUARAPIRANGA - 2616 AP.131 BL.14            04902005                                                            000032
2SR. CAIXA, APOS O VENCIMENTO COBRAR 2% DE MULTA                                 NAO RECEBER APOS 30 DIAS DO VENCIMENTO.                                                                                                                                                                                                         01102000000000000000110200000000000000       0090339900006270221516102011000033
100000000000000000000009033990000627000000000000000000000000010002020022313110201300000000002            2  01223131102026102000000002112590000000001N011020000000000000000000000000000000000000000000000000000000000000000100022313116824ROSA MARIA BRITO DA SILVA               RUA SERVIDAO DE SAO MARCOS - 113 - JARDI            04930300                                                            000035
2SR. CAIXA, APOS O VENCIMENTO COBRAR 2% DE MULTA                                 NAO RECEBER APOS 30 DIAS DO VENCIMENTO.                                                                                                                                                                                                         01102000000000000000110200000000000000       0090339900006270223131102013000036
100000000000000000000009033990000627000000000000000000000000010002020027538010201500000000002            2  01275380102026102000000002119960000000001N011020000000000000000000000000000000000000000000000000000000000000000100027538087249MARA LUCIA MENEZES DA COSTA             RUA LEILA  - 183 - ITAQUERA - SAO PAULO             08240020                                                            000038
2SR. CAIXA, APOS O VENCIMENTO COBRAR 2% DE MULTA                                 NAO RECEBER APOS 30 DIAS DO VENCIMENTO.                                                                                                                                                                                                         01102000000000000000110200000000000000       0090339900006270275380102015000039
100000000000000000000009033990000627000000000000000000000000010002020031278410201100000000002            2  01312784102024102000000002653040000000001N011020000000000000000000000000000000000000000000000000000000000000000100031278411836JEFFERSON DE PIERI PIRES ZAMUNER        RUA MANOEL ARCE - 277 - PARQUE BANCARIO             03922150                                                            000041
2SR. CAIXA, APOS O VENCIMENTO COBRAR 2% DE MULTA                                 NAO RECEBER APOS 30 DIAS DO VENCIMENTO.                                                                                                                                                                                                         01102000000000000000110200000000000000       0090339900006270312784102011000042
100000000000000000000009033990000627000000000000000000000000010002020019185710201300000000002            2  01191857102026102000000001929190000000001N011020000000000000000000000000000000000000000000000000000000000000000100019185769800AGUINALDO PESSOA DE LIMA                RUA JANUARIO ZINGARO - 252 AP.303 BL.04             05794300                                                            000044
2SR. CAIXA, APOS O VENCIMENTO COBRAR 2% DE MULTA                                 NAO RECEBER APOS 30 DIAS DO VENCIMENTO.                                                                                                                                                                                                         01102000000000000000110200000000000000       0090339900006270191857102013000045
100000000000000000000009033990000627000000000000000000000000010002020033303610201400000000002            2  01333036102026102000000002077920000000001N011020000000000000000000000000000000000000000000000000000000000000000100033303645809JESSICA DA SILVA FREITAS                RUA ARILDO VALADAO - 120 - JARDIM GUAEMB            04814600                                                            000047
2SR. CAIXA, APOS O VENCIMENTO COBRAR 2% DE MULTA                                 NAO RECEBER APOS 30 DIAS DO VENCIMENTO.                                                                                                                                                                                                         01102000000000000000110200000000000000       0090339900006270333036102014000048
100000000000000000000009033990000627000000000000000000000000010002020004824410201300000000002            2  01048244102026102000000002094370000000001N011020000000000000000000000000000000000000000000000000000000000000000100004824443806ROSIMEIRE CLARA FERREIRA REZENDE        RUA JOSE CALIXTO DO CARMO - 286 AP.43 -             11702690                                                            000050
2SR. CAIXA, APOS O VENCIMENTO COBRAR 2% DE MULTA                                 NAO RECEBER APOS 30 DIAS DO VENCIMENTO.                                                                                                                                                                                                         01102000000000000000110200000000000000       0090339900006270048244102013000051
100000000000000000000009033990000627000000000000000000000000010002020006422610201P00000000002            2  01064226102024102000000002873300000000001N011020000000000000000000000000000000000000000000000000000000000000000100006422607881GERALDO ALVES DA SILVA                  RUA CARLOS JOSE BORSTENS - 50 AP.14 - AV            11702750                                                            000053
2SR. CAIXA, APOS O VENCIMENTO COBRAR 2% DE MULTA                                 NAO RECEBER APOS 30 DIAS DO VENCIMENTO.                                                                                                                                                                                                         01102000000000000000110200000000000000       009033990000627006422610201P000054
100000000000000000000009033990000627000000000000000000000000010002020033877110201100000000002            2  01338771102026102000000001948120000000001N011020000000000000000000000000000000000000000000000000000000000000000100033877129870HELDER FERREIRA VIANA                   RUA JOSE CALIXTO DO CARMO - 286 AP.35 -             11702690                                                            000056
2SR. CAIXA, APOS O VENCIMENTO COBRAR 2% DE MULTA                                 NAO RECEBER APOS 30 DIAS DO VENCIMENTO.                                                                                                                                                                                                         01102000000000000000110200000000000000       0090339900006270338771102011000057
100000000000000000000009033990000627000000000000000000000000010002020028290710201500000000002            2  01282907102026102000000001795440000000001N011020000000000000000000000000000000000000000000000000000000000000000100028290719809VANESSA GIANGARRELLI PEREIRA            RUA BARINEL - 72 - JARDIM COTCHING - SAO            03462130                                                            000059
2SR. CAIXA, APOS O VENCIMENTO COBRAR 2% DE MULTA                                 NAO RECEBER APOS 30 DIAS DO VENCIMENTO.                                                                                                                                                                                                         01102000000000000000110200000000000000       0090339900006270282907102015000060
100000000000000000000009033990000627000000000000000000000000010002020087573010201000000000002            2  01875730102026102000000001960610000000001N011020000000000000000000000000000000000000000000000000000000000000000100087573059604VANDERLEY DE ASSIS                      RUA ROMEU ALBANI - 268 - JARDIM PARQUE R            13803810                                                            000062
2SR. CAIXA, APOS O VENCIMENTO COBRAR 2% DE MULTA                                 NAO RECEBER APOS 30 DIAS DO VENCIMENTO.                                                                                                                                                                                                         01102000000000000000110200000000000000       0090339900006270875730102010000063
100000000000000000000009033990000627000000000000000000000000010002020010825510201800000000002            2  01108255102026102000000002045980000000001N011020000000000000000000000000000000000000000000000000000000000000000100010825513847JOSE APARECIDO PEREIRA                  RUA GENERAL OSORIO - 305 - JARDIM TRINTA            11515130                                                            000065
2SR. CAIXA, APOS O VENCIMENTO COBRAR 2% DE MULTA                                 NAO RECEBER APOS 30 DIAS DO VENCIMENTO.                                                                                                                                                                                                         01102000000000000000110200000000000000       0090339900006270108255102018000066
100000000000000000000009033990000627000000000000000000000000010002020039115110201P00000000002            2  01391151102026102000000002522030000000001N011020000000000000000000000000000000000000000000000000000000000000000100039115139840LAIS CRISTINA RIBEIRO ANDO              RUA JOSE CALIXTO DO CARMO - 286 AP.65 -             11702690                                                            000068
2SR. CAIXA, APOS O VENCIMENTO COBRAR 2% DE MULTA                                 NAO RECEBER APOS 30 DIAS DO VENCIMENTO.                                                                                                                                                                                                         01102000000000000000110200000000000000       009033990000627039115110201P000069
100000000000000000000009033990000627000000000000000000000000010002020029617510201800000000002            2  01296175102024102000000002820240000000001N011020000000000000000000000000000000000000000000000000000000000000000100029617510553MARILENE SOUZA DE OLIVEIRA              AVENIDA BRASIL - 393 AP.09 - PARQUE DAS             09210280                                                            000071
2SR. CAIXA, APOS O VENCIMENTO COBRAR 2% DE MULTA                                 NAO RECEBER APOS 30 DIAS DO VENCIMENTO.                                                                                                                                                                                                         01102000000000000000110200000000000000       0090339900006270296175102018000072
100000000000000000000009033990000627000000000000000000000000010002020000593210201800000000002            2  01005932102024102000000003093120000000001N011020000000000000000000000000000000000000000000000000000000000000000100000593293860WALTER HELIO BARBOSA FILHO              AVENIDA ANTONIO FREDERICO OZANAN - 9500             13214206                                                            000074
2SR. CAIXA, APOS O VENCIMENTO COBRAR 2% DE MULTA                                 NAO RECEBER APOS 30 DIAS DO VENCIMENTO.                                                                                                                                                                                                         01102000000000000000110200000000000000       0090339900006270005932102018000075
100000000000000000000009033990000627000000000000000000000000010002020007730010201300000000002            2  01077300102024102000000004398710000000001N011020000000000000000000000000000000000000000000000000000000000000000100007730084899ARNALDO LUIZ VONO                       RUA CARLOS JOSE BORSTENS - 50 AP.122 - A            11702750                                                            000077
2SR. CAIXA, APOS O VENCIMENTO COBRAR 2% DE MULTA                                 NAO RECEBER APOS 30 DIAS DO VENCIMENTO.                                                                                                                                                                                                         01102000000000000000110200000000000000       0090339900006270077300102013000078
100000000000000000000009033990000627000000000000000000000000010002020065584110201P00000000002            2  01655841102024102000000001623720000000001N011020000000000000000000000000000000000000000000000000000000000000000100065584147834JOAQUIM DA COSTA MACHADO NETO           RUA CARLOS JOSE BORSTENS - 50 AP.42 - AV            11702750                                                            000080
2SR. CAIXA, APOS O VENCIMENTO COBRAR 2% DE MULTA                                 NAO RECEBER APOS 30 DIAS DO VENCIMENTO.                                                                                                                                                                                                         01102000000000000000110200000000000000       009033990000627065584110201P000081
100000000000000000000009033990000627000000000000000000000000010002020001616910201100000000002            2  01016169102024102000000002855610000000001N011020000000000000000000000000000000000000000000000000000000000000000100001616913827CLAUDIO LUIZ PAULELLA                   PRACA NESTOR DOS SANTOS ARRUDA - 26 - VI            13920000                                                            000083
2SR. CAIXA, APOS O VENCIMENTO COBRAR 2% DE MULTA                                 NAO RECEBER APOS 30 DIAS DO VENCIMENTO.                                                                                                                                                                                                         01102000000000000000110200000000000000       0090339900006270016169102011000084
100000000000000000000009033990000627000000000000000000000000010002020006684610201200000000002            2  01066846102026102000000002077650000000001N011020000000000000000000000000000000000000000000000000000000000000000100006684623884LAUDINOR VIEIRA GARCIA                  RUA CANDIDO SALES - 374 - JARDIM PRESIDE            07172000                                                            000086
2SR. CAIXA, APOS O VENCIMENTO COBRAR 2% DE MULTA                                 NAO RECEBER APOS 30 DIAS DO VENCIMENTO.                                                                                                                                                                                                         01102000000000000000110200000000000000       0090339900006270066846102012000087
100000000000000000000009033990000627000000000000000000000000010002020011663510201300000000002            2  01116635102026102000000002092620000000001N011020000000000000000000000000000000000000000000000000000000000000000100011663589844MARIA SAVIO QUARELLO                    AVENIDA MENDONCA DRUMOND - 321 - JARDIM             03524030                                                            000089
2SR. CAIXA, APOS O VENCIMENTO COBRAR 2% DE MULTA                                 NAO RECEBER APOS 30 DIAS DO VENCIMENTO.                                                                                                                                                                                                         01102000000000000000110200000000000000       0090339900006270116635102013000090
100000000000000000000009033990000627000000000000000000000000010002020010083810201500000000002            2  01100838102026102000000002021810000000001N011020000000000000000000000000000000000000000000000000000000000000000100010083824855IONE FERREIRA COUTO DA SILVA            RUA JOSE RAGEL DE MESQUITA - 60 CS.01 -             07799999                                                            000092
2SR. CAIXA, APOS O VENCIMENTO COBRAR 2% DE MULTA                                 NAO RECEBER APOS 30 DIAS DO VENCIMENTO.                                                                                                                                                                                                         01102000000000000000110200000000000000       0090339900006270100838102015000093
100000000000000000000009033990000627000000000000000000000000010002020031010710201000000000002            2  01310107102026102000000001984050000000001N011020000000000000000000000000000000000000000000000000000000000000000100031010705890ANDRE GONZALEZ RABELLO                  RUA PARAIBA - 106 AP.61 - POMPEIA - SANT            11065470                                                            000095
2SR. CAIXA, APOS O VENCIMENTO COBRAR 2% DE MULTA                                 NAO RECEBER APOS 30 DIAS DO VENCIMENTO.                                                                                                                                                                                                         01102000000000000000110200000000000000       0090339900006270310107102010000096
100000000000000000000009033990000627000000000000000000000000010002020005351010201P00000000002            2  01053510102026102000000001860250000000001N011020000000000000000000000000000000000000000000000000000000000000000100005351015897VALERIA ALVES MARCOLINO HINNIGER        RUA JOSE CALIXTO DO CARMO - 286 AP.92 -             11702690                                                            000098
2SR. CAIXA, APOS O VENCIMENTO COBRAR 2% DE MULTA                                 NAO RECEBER APOS 30 DIAS DO VENCIMENTO.                                                                                                                                                                                                         01102000000000000000110200000000000000       009033990000627005351010201P000099
100000000000000000000009033990000627000000000000000000000000010002020031898710201500000000002            2  01318987102024102000000002959620000000001N011020000000000000000000000000000000000000000000000000000000000000000100031898775800ANITA MARTINS COLOMBO                   RUA CARLOS JOSE BORSTENS - 50 AP.115 - A            11702750                                                            000101
2SR. CAIXA, APOS O VENCIMENTO COBRAR 2% DE MULTA                                 NAO RECEBER APOS 30 DIAS DO VENCIMENTO.                                                                                                                                                                                                         01102000000000000000110200000000000000       0090339900006270318987102015000102
100000000000000000000009033990000627000000000000000000000000010002020037983410201500000000002            2  01379834102026102000000002185200000000001N011020000000000000000000000000000000000000000000000000000000000000000100037983484801JOSE ERIVALDO SOUZA DO NASCIMENTO RAMOS RUA LETICIA - 250 - JARDIM GUARUJA - SAO            05877260                                                            000104
2SR. CAIXA, APOS O VENCIMENTO COBRAR 2% DE MULTA                                 NAO RECEBER APOS 30 DIAS DO VENCIMENTO.                                                                                                                                                                                                         01102000000000000000110200000000000000       0090339900006270379834102015000105
100000000000000000000009033990000627000000000000000000000000010002020056289210201600000000002            2  01562892102026102000000001650810000000001N011020000000000000000000000000000000000000000000000000000000000000000100056289286900PEDRO RIBEIRO                           RUA CONEGO MANOEL VAZ - 48 - SANTANA - S            02019050                                                            000107
2SR. CAIXA, APOS O VENCIMENTO COBRAR 2% DE MULTA                                 NAO RECEBER APOS 30 DIAS DO VENCIMENTO.                                                                                                                                                                                                         01102000000000000000110200000000000000       0090339900006270562892102016000108
100000000000000000000009033990000627000000000000000000000000010002020005025510201P00000000002            2  01050255102026102000000002349270000000001N011020000000000000000000000000000000000000000000000000000000000000000100005025595860CONCEICAO APARECIDA DE MESQUITA PEREIRA RUA TRIUNFO - 835 AP.105 - JARDIM SAO LU            14020670                                                            000110
2SR. CAIXA, APOS O VENCIMENTO COBRAR 2% DE MULTA                                 NAO RECEBER APOS 30 DIAS DO VENCIMENTO.                                                                                                                                                                                                         01102000000000000000110200000000000000       009033990000627005025510201P000111
100000000000000000000009033990000627000000000000000000000000010002020034735310201200000000002            2  01347353102026102000000002265630000000001N011020000000000000000000000000000000000000000000000000000000000000000100034735328866DIEGO FELIPE MOLINA DA SILVA E SOUSA    RUA EMILIA PAULISTA - 135 - VILA TIRADEN            05364020                                                            000113
2SR. CAIXA, APOS O VENCIMENTO COBRAR 2% DE MULTA                                 NAO RECEBER APOS 30 DIAS DO VENCIMENTO.                                                                                                                                                                                                         01102000000000000000110200000000000000       0090339900006270347353102012000114
100000000000000000000009033990000627000000000000000000000000010002020076175610201300000000002            2  01761756102024102000000004107320000000001N011020000000000000000000000000000000000000000000000000000000000000000100076175685687GILMAR DE OLIVEIRA BRAGA                RUA MARACAJU - 161 AP.202 - NOVA GRANADA            30431350                                                            000116
2SR. CAIXA, APOS O VENCIMENTO COBRAR 2% DE MULTA                                 NAO RECEBER APOS 30 DIAS DO VENCIMENTO.                                                                                                                                                                                                         01102000000000000000110200000000000000       0090339900006270761756102013000117
100000000000000000000009033990000627000000000000000000000000010002020034812210201600000000002            2  01348122102024102000000003917170000000001N011020000000000000000000000000000000000000000000000000000000000000000100034812226880THAIS TORQUATO MIMOSO DE JESUS          RUA ARNALDO CINTRA - 416 AP.104 TORRE 2             03088000                                                            000119
2SR. CAIXA, APOS O VENCIMENTO COBRAR 2% DE MULTA                                 NAO RECEBER APOS 30 DIAS DO VENCIMENTO.                                                                                                                                                                                                         01102000000000000000110200000000000000       0090339900006270348122102016000120
100000000000000000000009033990000627000000000000000000000000010002020012849410201200000000002            2  01128494102026102000000003903080000000001N011020000000000000000000000000000000000000000000000000000000000000000100012849428809MOISES CLAUDIO DO ROSARIO               AVENIDA DR. AUGUSTO DE TOLEDO - 510 AP.1            09541520                                                            000122
2SR. CAIXA, APOS O VENCIMENTO COBRAR 2% DE MULTA                                 NAO RECEBER APOS 30 DIAS DO VENCIMENTO.                                                                                                                                                                                                         01102000000000000000110200000000000000       0090339900006270128494102012000123
100000000000000000000009033990000627000000000000000000000000010002020015702310201200000000002            2  01157023102026102000000002165510000000001N011020000000000000000000000000000000000000000000000000000000000000000100015702353846MARIA DE LOURDES DE MACENO SOUZA        RUA JOSE CALIXTO DO CARMO - 286 AP.83 -             11702690                                                            000125
2SR. CAIXA, APOS O VENCIMENTO COBRAR 2% DE MULTA                                 NAO RECEBER APOS 30 DIAS DO VENCIMENTO.                                                                                                                                                                                                         01102000000000000000110200000000000000       0090339900006270157023102012000126
100000000000000000000009033990000627000000000000000000000000010002020003658610201700000000002            2  01036586102026102000000001612440000000001N011020000000000000000000000000000000000000000000000000000000000000000100003658668814MARINEZ VALENTIN                        RUA JOSE CALIXTO DO CARMO - 286 AP.95 -             11702690                                                            000128
2SR. CAIXA, APOS O VENCIMENTO COBRAR 2% DE MULTA                                 NAO RECEBER APOS 30 DIAS DO VENCIMENTO.                                                                                                                                                                                                         01102000000000000000110200000000000000       0090339900006270036586102017000129
100000000000000000000009033990000627000000000000000000000000010002020014087410201500000000002            2  01140874102026102000000002154880000000001N011020000000000000000000000000000000000000000000000000000000000000000100014087484874SERGIO SANTOS DO NASCIMENTO             RUA PANTALEAO BRAZ - 21 - JARDIM ESTER -            05372080                                                            000131
2SR. CAIXA, APOS O VENCIMENTO COBRAR 2% DE MULTA                                 NAO RECEBER APOS 30 DIAS DO VENCIMENTO.                                                                                                                                                                                                         01102000000000000000110200000000000000       0090339900006270140874102015000132
100000000000000000000009033990000627000000000000000000000000010002020026834510201400000000002            2  01268345102026102000000001985460000000001N011020000000000000000000000000000000000000000000000000000000000000000100026834550895RAQUEL CARDOSO JOAO                     RUA PEDROSO XAVIER - 277 AP.23 TORRE 01             02732020                                                            000134
2SR. CAIXA, APOS O VENCIMENTO COBRAR 2% DE MULTA                                 NAO RECEBER APOS 30 DIAS DO VENCIMENTO.                                                                                                                                                                                                         01102000000000000000110200000000000000       0090339900006270268345102014000135
100000000000000000000009033990000627000000000000000000000000010002020039540010201200000000002            2  01395400102026102000000001951990000000001N011020000000000000000000000000000000000000000000000000000000000000000100039540008816LUZINETE CLARINDO SILVA                 RUA DEINOS - 275 - BAIRRO CIDADE SATELIT            08340100                                                            000137
2SR. CAIXA, APOS O VENCIMENTO COBRAR 2% DE MULTA                                 NAO RECEBER APOS 30 DIAS DO VENCIMENTO.                                                                                                                                                                                                         01102000000000000000110200000000000000       0090339900006270395400102012000138
100000000000000000000009033990000627000000000000000000000000010002020005723210201700000000002            2  01057232102023102000000002627960000000001N011020000000000000000000000000000000000000000000000000000000000000000100005723255843FRANCISCO DE ASSIS DA SILVA             PRACA NICOLAU GERAIGIRE - 25 VISOR - JAR            11095110                                                            000140
2SR. CAIXA, APOS O VENCIMENTO COBRAR 2% DE MULTA                                 NAO RECEBER APOS 30 DIAS DO VENCIMENTO.                                                                                                                                                                                                         01102000000000000000110200000000000000       0090339900006270057232102017000141
100000000000000000000009033990000627000000000000000000000000010002020003311010201P00000000002            2  01033110102026102000000002032750000000001N011020000000000000000000000000000000000000000000000000000000000000000100003311030877SEBASTIAO SARUVA NETO                   RUA HAMILTON REGIS - 559 - BAIRRO DO LIM            08051440                                                            000143
2SR. CAIXA, APOS O VENCIMENTO COBRAR 2% DE MULTA                                 NAO RECEBER APOS 30 DIAS DO VENCIMENTO.                                                                                                                                                                                                         01102000000000000000110200000000000000       009033990000627003311010201P000144
100000000000000000000009033990000627000000000000000000000000010002020004928110201100000000002            2  01049281102023102000000002569950000000001N011020000000000000000000000000000000000000000000000000000000000000000100004928157800ADEMIR APARECIDO ANTUNES                RUA JAIME TAVEIRA - 91 AP.056 B - CHACAR            03732060                                                            000146
2SR. CAIXA, APOS O VENCIMENTO COBRAR 2% DE MULTA                                 NAO RECEBER APOS 30 DIAS DO VENCIMENTO.                                                                                                                                                                                                         01102000000000000000110200000000000000       0090339900006270049281102011000147
100000000000000000000009033990000627000000000000000000000000010002020090091910201600000000002            2  01900919102026102000000001943040000000001N011020000000000000000000000000000000000000000000000000000000000000000100090091990882JUECIR CARVALHO DA LUZ                  RUA JOSE CALIXTO DO CARMO - 286 AP.114 -            11702690                                                            000149
2SR. CAIXA, APOS O VENCIMENTO COBRAR 2% DE MULTA                                 NAO RECEBER APOS 30 DIAS DO VENCIMENTO.                                                                                                                                                                                                         01102000000000000000110200000000000000       0090339900006270900919102016000150
100000000000000000000009033990000627000000000000000000000000010002020011238010201900000000002            2  01112380102023102000000002536620000000001N011020000000000000000000000000000000000000000000000000000000000000000100011238052886SOLANGE DIAS DE SOUZA ROMANO            AVENIDA DR. ALTINO ARANTES - 865 AP.132             04042034                                                            000152
2SR. CAIXA, APOS O VENCIMENTO COBRAR 2% DE MULTA                                 NAO RECEBER APOS 30 DIAS DO VENCIMENTO.                                                                                                                                                                                                         01102000000000000000110200000000000000       0090339900006270112380102019000153
100000000000000000000009033990000627000000000000000000000000010002020037325910201800000000002            2  01373259102026102000000001590080000000001N011020000000000000000000000000000000000000000000000000000000000000000100037325923830MARIA AUGUSTA OLIVEIRA DE ANDRADE       RUA CAIAPOS - 842 AP.63 - VILA TUPI - PR            11703320                                                            000155
2SR. CAIXA, APOS O VENCIMENTO COBRAR 2% DE MULTA                                 NAO RECEBER APOS 30 DIAS DO VENCIMENTO.                                                                                                                                                                                                         01102000000000000000110200000000000000       0090339900006270373259102018000156
100000000000000000000009033990000627000000000000000000000000010002020032589110201000000000002            2  01325891102023102000000002486620000000001N011020000000000000000000000000000000000000000000000000000000000000000100032589165862RENATA ISABEL MARTINS SILVA             RUA HERCULANO DE FREITAS - 257 - FUNDACA            09520280                                                            000158
2SR. CAIXA, APOS O VENCIMENTO COBRAR 2% DE MULTA                                 NAO RECEBER APOS 30 DIAS DO VENCIMENTO.                                                                                                                                                                                                         01102000000000000000110200000000000000       0090339900006270325891102010000159
100000000000000000000009033990000627000000000000000000000000010002020088339310201400000000002            2  01883393102023102000000002513560000000001N011020000000000000000000000000000000000000000000000000000000000000000100088339319868MARCIA SIQUEIRA MELLO                   RUA ADELINO ALVES - 81 - SANTO AMARO - S            04710120                                                            000161
2SR. CAIXA, APOS O VENCIMENTO COBRAR 2% DE MULTA                                 NAO RECEBER APOS 30 DIAS DO VENCIMENTO.                                                                                                                                                                                                         01102000000000000000110200000000000000       0090339900006270883393102014000162
100000000000000000000009033990000627000000000000000000000000010002020012478810201500000000002            2  01124788102024102000000002894860000000001N011020000000000000000000000000000000000000000000000000000000000000000100012478899809VITORIA BATISTA QUEIROZ                 RUA CARVALHO DE FREITAS - 255 AP.71A - V            05728030                                                            000164
2SR. CAIXA, APOS O VENCIMENTO COBRAR 2% DE MULTA                                 NAO RECEBER APOS 30 DIAS DO VENCIMENTO.                                                                                                                                                                                                         01102000000000000000110200000000000000       0090339900006270124788102015000165
100000000000000000000009033990000627000000000000000000000000010002020046391210201P00000000002            2  01463912102023102000000002607460000000001N011020000000000000000000000000000000000000000000000000000000000000000100046391265810PAMELLA RODRIGUES DE OLIVEIRA           RUA ANTONIO MARQUES LUIZ - 193 - JARDIM             07115090                                                            000167
2SR. CAIXA, APOS O VENCIMENTO COBRAR 2% DE MULTA                                 NAO RECEBER APOS 30 DIAS DO VENCIMENTO.                                                                                                                                                                                                         01102000000000000000110200000000000000       009033990000627046391210201P000168
100000000000000000000009033990000627000000000000000000000000010002020027964510201800000000002            2  01279645102023102000000001590790000000001N011020000000000000000000000000000000000000000000000000000000000000000100027964512838FABIO TADEU DE CAMPOS RADZIAVICIUS      AV.PROF.LUIZ IGNACIO ANHAIA MELLO - 2.58            03154100                                                            000170
2SR. CAIXA, APOS O VENCIMENTO COBRAR 2% DE MULTA                                 NAO RECEBER APOS 30 DIAS DO VENCIMENTO.                                                                                                                                                                                                         01102000000000000000110200000000000000       0090339900006270279645102018000171
9                                                                                                                                                                                                                                                                                                                                                                                                         000172