01REMESSA01COBRANCA       00000000000004991781AIRES CONSTRUTORA E INCORPORAD237BRADESCO       090317        MX0000002                                                                                                                                                                                                                                                                                     000001
100000000000000000000009077090006612500000000000000000000000010002100027103102112600000000002            2  01271031021114031700000000012140000000099N090317000000000000000000000000000000000000000000000000000000000000000100002252149892AIRES MOTA                              AV. BRASIL - 600 - BOQUEIRAO - PRAIA GRA            11701090                                                            000002
2SR. CAIXA, APOS O VENCIMENTO COBRAR 10% DE MULTA                                NAO RECEBER APOS 30 DIAS DO VENCIMENTO.                                                                                                                                                                                                         09031700000000000000903170000000000000       0090770900066125271031021126000003
9                                                                                                                                                                                                                                                                                                                                                                                                         000004