01REMESSA01COBRANCA       00000000000004991781AIRES CONSTRUTORA E INCORPORAD237BRADESCO       010519        MX0000119                                                                                                                                                                                                                                                                                     000001
100000000000000000000009077090006612500000000000000000000000010002100094852205191400000000002            2  01948522051910051900000002327220000000001N010519000000000000000000000000000000000000000000000000000000000000000100094852294887GISELDA MENON                           RUA OTAVIO BARRETO - 105 - VILA SANTISTA            02560080                                                            000002
2SR. CAIXA, APOS O VENCIMENTO COBRAR 10% DE MULTA                                NAO RECEBER APOS 30 DIAS DO VENCIMENTO.                                                                                                                                                                                                         01051900000000000000105190000000000000       0090770900066125948522051914000003
100000000000000000000009077090006612500000000000000000000000010002100006485905191000000000002            2  01064859051910051900000003569200000000001N010519000000000000000000000000000000000000000000000000000000000000000100006485911820CELIO MANUEL  MELIM SANTO               RUA JUVENAL FERREIRA  - 85 AP.61 - VILA             03512040                                                            000005
2SR. CAIXA, APOS O VENCIMENTO COBRAR 10% DE MULTA                                NAO RECEBER APOS 30 DIAS DO VENCIMENTO.                                                                                                                                                                                                         01051900000000000000105190000000000000       0090770900066125064859051910000006
100000000000000000000009077090006612500000000000000000000000010002100004693805191P00000000002            2  01046938051910051900000003110830000000001N010519000000000000000000000000000000000000000000000000000000000000000100004693857823NIVALDO BARTOLOMEU FERREIRA             MNS JOSE MARINONI  - 33 - SANTO AMARO -             04430350                                                            000008
2SR. CAIXA, APOS O VENCIMENTO COBRAR 10% DE MULTA                                NAO RECEBER APOS 30 DIAS DO VENCIMENTO.                                                                                                                                                                                                         01051900000000000000105190000000000000       009077090006612504693805191P000009
100000000000000000000009077090006612500000000000000000000000010002100027993105191900000000002            2  01279931051910051900000002962190000000001N010519000000000000000000000000000000000000000000000000000000000000000100027993108853DALVA JESUS RODRIGUES CABRAL            RUA CRISTOVAO COLOMBO GONCALVES - 97 - C            04811050                                                            000011
2SR. CAIXA, APOS O VENCIMENTO COBRAR 10% DE MULTA                                NAO RECEBER APOS 30 DIAS DO VENCIMENTO.                                                                                                                                                                                                         01051900000000000000105190000000000000       0090770900066125279931051919000012
100000000000000000000009077090006612500000000000000000000000010002100000455405191800000000002            2  01004554051910051900000003077040000000001N010519000000000000000000000000000000000000000000000000000000000000000100000455495831PAULO HENRIQUE LOURENCO                 RUA FIGUEIRA  - 237 - CIDADE DAS FLORES             06184060                                                            000014
2SR. CAIXA, APOS O VENCIMENTO COBRAR 10% DE MULTA                                NAO RECEBER APOS 30 DIAS DO VENCIMENTO.                                                                                                                                                                                                         01051900000000000000105190000000000000       0090770900066125004554051918000015
100000000000000000000009077090006612500000000000000000000000010002100006140005191900000000002            2  01061400051910051900000003815950000000001N010519000000000000000000000000000000000000000000000000000000000000000100006140049857MARIA ALBANI DA SILVA EUSEBIO           RUA ORLANDO SEGALA - 108 - JARDIM ADRIAN            07135190                                                            000017
2SR. CAIXA, APOS O VENCIMENTO COBRAR 10% DE MULTA                                NAO RECEBER APOS 30 DIAS DO VENCIMENTO.                                                                                                                                                                                                         01051900000000000000105190000000000000       0090770900066125061400051919000018
100000000000000000000009077090006612500000000000000000000000010002100007768705191800000000002            2  01077687051910051900000003876370000000001N010519000000000000000000000000000000000000000000000000000000000000000100007768713826FATIMA LUZIA BIANCHI                    DR. OLIDAIR AMBROSIO - 1487 AP.03 - CENT            14160170                                                            000020
2SR. CAIXA, APOS O VENCIMENTO COBRAR 10% DE MULTA                                NAO RECEBER APOS 30 DIAS DO VENCIMENTO.                                                                                                                                                                                                         01051900000000000000105190000000000000       0090770900066125077687051918000021
100000000000000000000009077090006612500000000000000000000000010002100021716805191500000000002            2  01217168051910051900000003818820000000001N010519000000000000000000000000000000000000000000000000000000000000000100021716847800DANIELLE FAGUNDES DE A.MATOS            CONDE MOREIRA LIMA - 644 - JARDIM JABAQU            04384032                                                            000023
2SR. CAIXA, APOS O VENCIMENTO COBRAR 10% DE MULTA                                NAO RECEBER APOS 30 DIAS DO VENCIMENTO.                                                                                                                                                                                                         01051900000000000000105190000000000000       0090770900066125217168051915000024
100000000000000000000009077090006612500000000000000000000000010002100085416905191900000000002            2  01854169051910051900000003237280000000001N010519000000000000000000000000000000000000000000000000000000000000000100085416940891ANTONIO DE SOUSA MENDES                 RUA MONTE CASTELO - 296 AP.52 - AVIACAO             11702720                                                            000026
2SR. CAIXA, APOS O VENCIMENTO COBRAR 10% DE MULTA                                NAO RECEBER APOS 30 DIAS DO VENCIMENTO.                                                                                                                                                                                                         01051900000000000000105190000000000000       0090770900066125854169051919000027
100000000000000000000009077090006612500000000000000000000000010002100005678005191200000000002            2  01056780051910051900000003371560000000001N010519000000000000000000000000000000000000000000000000000000000000000100005678057863FABIO MOREIRA CAMPOS                    RUA FLORENCIO DA SILVA - 284 - VILA LIBA            03738070                                                            000029
2SR. CAIXA, APOS O VENCIMENTO COBRAR 10% DE MULTA                                NAO RECEBER APOS 30 DIAS DO VENCIMENTO.                                                                                                                                                                                                         01051900000000000000105190000000000000       0090770900066125056780051912000030
100000000000000000000009077090006612500000000000000000000000010002100007784405191900000000002            2  01077844051910051900000003404490000000001N010519000000000000000000000000000000000000000000000000000000000000000100007784496885GUILHERME LEONARDO DO NASCIMENTO        COMENDADOR RUBENS RONCARE - 127 - PONTE             11530120                                                            000032
2SR. CAIXA, APOS O VENCIMENTO COBRAR 10% DE MULTA                                NAO RECEBER APOS 30 DIAS DO VENCIMENTO.                                                                                                                                                                                                         01051900000000000000105190000000000000       0090770900066125077844051919000033
100000000000000000000009077090006612500000000000000000000000010002100016348205191900000000002            2  01163482051910051900000003289200000000001N010519000000000000000000000000000000000000000000000000000000000000000100016348237885AILTON LORENA                           AVENIDA BRASILIA - 194 - BELA VISTA - SA            09180260                                                            000035
2SR. CAIXA, APOS O VENCIMENTO COBRAR 10% DE MULTA                                NAO RECEBER APOS 30 DIAS DO VENCIMENTO.                                                                                                                                                                                                         01051900000000000000105190000000000000       0090770900066125163482051919000036
100000000000000000000009077090006612500000000000000000000000010002100081218405191200000000002            2  01812184051910051900000003174510000000001N010519000000000000000000000000000000000000000000000000000000000000000100081218486953OSMAR DA COSTA                          RUA MONTE CASTELO - 295 AP.33 - AVIACAO             11702720                                                            000038
2SR. CAIXA, APOS O VENCIMENTO COBRAR 10% DE MULTA                                NAO RECEBER APOS 30 DIAS DO VENCIMENTO.                                                                                                                                                                                                         01051900000000000000105190000000000000       0090770900066125812184051912000039
100000000000000000000009077090006612500000000000000000000000010002100004981805191500000000002            2  01049818051910051900000003605650000000001N010519000000000000000000000000000000000000000000000000000000000000000100004981884850SILVIO PAULINO GONCALVES                MARIA DE CASTRO MESQUITA - 84 AP.103 BLO            07110040                                                            000041
2SR. CAIXA, APOS O VENCIMENTO COBRAR 10% DE MULTA                                NAO RECEBER APOS 30 DIAS DO VENCIMENTO.                                                                                                                                                                                                         01051900000000000000105190000000000000       0090770900066125049818051915000042
100000000000000000000009077090006612500000000000000000000000010002100019282505191P00000000002            2  01192825051910051900000002366750000000001N010519000000000000000000000000000000000000000000000000000000000000000100019282546837FABIO LEANDRO DE FREITAS ASSIS          RUA BASSIM NAGIB TRABULSI - 97 - PONTA D            11030540                                                            000044
2SR. CAIXA, APOS O VENCIMENTO COBRAR 10% DE MULTA                                NAO RECEBER APOS 30 DIAS DO VENCIMENTO.                                                                                                                                                                                                         01051900000000000000105190000000000000       009077090006612519282505191P000045
100000000000000000000009077090006612500000000000000000000000010002100008423405191300000000002            2  01084234051910051900000003289130000000001N010519000000000000000000000000000000000000000000000000000000000000000100008423485811EDSON LUIZ NUNES                        RUA NOEMIA PEDROSO BUENO - 41 - JARDIM G            09360440                                                            000047
2SR. CAIXA, APOS O VENCIMENTO COBRAR 10% DE MULTA                                NAO RECEBER APOS 30 DIAS DO VENCIMENTO.                                                                                                                                                                                                         01051900000000000000105190000000000000       0090770900066125084234051913000048
100000000000000000000009077090006612500000000000000000000000010002100009777205191P00000000002            2  01097772051910051900000002984030000000001N010519000000000000000000000000000000000000000000000000000000000000000100009777281889CARLITA DE FIGUEIREDO CARVALHO          AVENIDA ALBERTO DE ALMEIDA VINHAS - 4462            11701350                                                            000050
2SR. CAIXA, APOS O VENCIMENTO COBRAR 10% DE MULTA                                NAO RECEBER APOS 30 DIAS DO VENCIMENTO.                                                                                                                                                                                                         01051900000000000000105190000000000000       009077090006612509777205191P000051
100000000000000000000009077090006612500000000000000000000000010002100004213005191700000000002            2  01042130051910051900000003543780000000001N010519000000000000000000000000000000000000000000000000000000000000000100004213020894ELIETE DRUGOVICH DE LIMA                RUA OSVALDO CRUZ - 141 AP.144-B - SANTA             09541270                                                            000053
2SR. CAIXA, APOS O VENCIMENTO COBRAR 10% DE MULTA                                NAO RECEBER APOS 30 DIAS DO VENCIMENTO.                                                                                                                                                                                                         01051900000000000000105190000000000000       0090770900066125042130051917000054
100000000000000000000009077090006612500000000000000000000000010002100043122805191100000000002            2  01431228051910051900000002415430000000001N010519000000000000000000000000000000000000000000000000000000000000000100043122850800ANTONIO JOAQUIM GOES                    ANTONIO DOAS DA SILVA - 412 - VILA AMALI            02618110                                                            000056
2SR. CAIXA, APOS O VENCIMENTO COBRAR 10% DE MULTA                                NAO RECEBER APOS 30 DIAS DO VENCIMENTO.                                                                                                                                                                                                         01051900000000000000105190000000000000       0090770900066125431228051911000057
100000000000000000000009077090006612500000000000000000000000010002100003865705191800000000002            2  01038657051910051900000003171280000000001N010519000000000000000000000000000000000000000000000000000000000000000100003865776841FRANCISCO JOSE ROCCO                    RUA FABIO JOSE BEZERRA - 130 AP.86 - PAR            03805000                                                            000059
2SR. CAIXA, APOS O VENCIMENTO COBRAR 10% DE MULTA                                NAO RECEBER APOS 30 DIAS DO VENCIMENTO.                                                                                                                                                                                                         01051900000000000000105190000000000000       0090770900066125038657051918000060
100000000000000000000009077090006612500000000000000000000000010002100028309505191400000000002            2  01283095051910051900000002828060000000001N010519000000000000000000000000000000000000000000000000000000000000000100028309524803DEISE RIBEIRO BARBOSA                   RUA CANDIDO JOSE DE ANDRADE - 173 - ERME            03807030                                                            000062
2SR. CAIXA, APOS O VENCIMENTO COBRAR 10% DE MULTA                                NAO RECEBER APOS 30 DIAS DO VENCIMENTO.                                                                                                                                                                                                         01051900000000000000105190000000000000       0090770900066125283095051914000063
100000000000000000000009077090006612500000000000000000000000010002100011277905191400000000002            2  01112779051910051900000003356590000000001N010519000000000000000000000000000000000000000000000000000000000000000100011277908893JOSE AILTON LOPES DE AZEVEDO            RUA MAESTRO JOAO SEPE - 19 - JARDIM MARI            04181030                                                            000065
2SR. CAIXA, APOS O VENCIMENTO COBRAR 10% DE MULTA                                NAO RECEBER APOS 30 DIAS DO VENCIMENTO.                                                                                                                                                                                                         01051900000000000000105190000000000000       0090770900066125112779051914000066
100000000000000000000009077090006612500000000000000000000000010002100025215105191100000000002            2  01252151051910051900000002531280000000001N010519000000000000000000000000000000000000000000000000000000000000000100025215106886KLEBER LUIZ DOS SANTOS                  RUA MONTE CASTELO - 262 AP.15 - AVIACAO             11702720                                                            000068
2SR. CAIXA, APOS O VENCIMENTO COBRAR 10% DE MULTA                                NAO RECEBER APOS 30 DIAS DO VENCIMENTO.                                                                                                                                                                                                         01051900000000000000105190000000000000       0090770900066125252151051911000069
100000000000000000000009077090006612500000000000000000000000010002100090206705191900000000002            2  01902067051910051900000002827350000000001N010519000000000000000000000000000000000000000000000000000000000000000100090206789815NEREIDE RODRIGUES FERREIRA              AVENIDA PADRE ESTANISLAU DE CAMPOS - 205            03590060                                                            000071
2SR. CAIXA, APOS O VENCIMENTO COBRAR 10% DE MULTA                                NAO RECEBER APOS 30 DIAS DO VENCIMENTO.                                                                                                                                                                                                         01051900000000000000105190000000000000       0090770900066125902067051919000072
100000000000000000000009077090006612500000000000000000000000010002100029150705191700000000002            2  01291507051910051900000003309450000000001N010519000000000000000000000000000000000000000000000000000000000000000100029150742833ANA DEISE SANTOS DE ALMEIDA             RUA MONTE CASTELO - 296 AP.121 - AVIACAO            11702720                                                            000074
2SR. CAIXA, APOS O VENCIMENTO COBRAR 10% DE MULTA                                NAO RECEBER APOS 30 DIAS DO VENCIMENTO.                                                                                                                                                                                                         01051900000000000000105190000000000000       0090770900066125291507051917000075
100000000000000000000009077090006612500000000000000000000000010002100000811705191200000000002            2  01008117051910051900000002725940000000001N010519000000000000000000000000000000000000000000000000000000000000000100000811752801SERGIO BUENO DA SILVA                   RUA MONTE CASTELO - 262 AP.75 - AVIACAO             11702720                                                            000077
2SR. CAIXA, APOS O VENCIMENTO COBRAR 10% DE MULTA                                NAO RECEBER APOS 30 DIAS DO VENCIMENTO.                                                                                                                                                                                                         01051900000000000000105190000000000000       0090770900066125008117051912000078
100000000000000000000009077090006612500000000000000000000000010002100018344805191900000000002            2  01183448051910051900000003465250000000001N010519000000000000000000000000000000000000000000000000000000000000000100018344803888MARCELO BERNARDO                        RUA MONTE CASTELO - 262 AP.84 - AVIACAO             11702720                                                            000080
2SR. CAIXA, APOS O VENCIMENTO COBRAR 10% DE MULTA                                NAO RECEBER APOS 30 DIAS DO VENCIMENTO.                                                                                                                                                                                                         01051900000000000000105190000000000000       0090770900066125183448051919000081
100000000000000000000009077090006612500000000000000000000000010002100004004305191600000000002            2  01040043051910051900000004858190000000001N010519000000000000000000000000000000000000000000000000000000000000000100004004328896VANDERLEI  MARTINS DE ALMEIDA           RUA MONSENHOR TABOSA - 03 - PARQUE CISPE            03819300                                                            000083
2SR. CAIXA, APOS O VENCIMENTO COBRAR 10% DE MULTA                                NAO RECEBER APOS 30 DIAS DO VENCIMENTO.                                                                                                                                                                                                         01051900000000000000105190000000000000       0090770900066125040043051916000084
100000000000000000000009077090006612500000000000000000000000010002100005133005191000000000002            2  01051330051910051900000003318300000000001N010519000000000000000000000000000000000000000000000000000000000000000100005133053860VICENTE ARCIPRETE JUNIOR                RUA JOSE SIMOES FERREIRA FILHO - 80 - JA            06040090                                                            000086
2SR. CAIXA, APOS O VENCIMENTO COBRAR 10% DE MULTA                                NAO RECEBER APOS 30 DIAS DO VENCIMENTO.                                                                                                                                                                                                         01051900000000000000105190000000000000       0090770900066125051330051910000087
100000000000000000000009077090006612500000000000000000000000010002100056660205191500000000002            2  01566602051910051900000000807130000000001N010519000000000000000000000000000000000000000000000000000000000000000100056660235868JOSE DA SILVA                           RUA MONTE CASTELO - 296 AP.32 - AVIACAO             11702720                                                            000089
2SR. CAIXA, APOS O VENCIMENTO COBRAR 10% DE MULTA                                NAO RECEBER APOS 30 DIAS DO VENCIMENTO.                                                                                                                                                                                                         01051900000000000000105190000000000000       0090770900066125566602051915000090
100000000000000000000009077090006612500000000000000000000000010002100016339405191700000000002            2  01163394051910051900000002931110000000001N010519000000000000000000000000000000000000000000000000000000000000000100016339432832ALEX MONTEIRO DA SILVA                  RUA IVA MOURA LIMA - 04 - JARDIM MIRNA I            04855540                                                            000092
2SR. CAIXA, APOS O VENCIMENTO COBRAR 10% DE MULTA                                NAO RECEBER APOS 30 DIAS DO VENCIMENTO.                                                                                                                                                                                                         01051900000000000000105190000000000000       0090770900066125163394051917000093
100000000000000000000009077090006612500000000000000000000000010002100031803805191400000000002            2  01318038051910051900000002993260000000001N010519000000000000000000000000000000000000000000000000000000000000000100031803864877ELEILSON FELIPPE SANTOS                 RUA SANTA GREGORIA - 193 - CIDADE DUTRA             04806030                                                            000095
2SR. CAIXA, APOS O VENCIMENTO COBRAR 10% DE MULTA                                NAO RECEBER APOS 30 DIAS DO VENCIMENTO.                                                                                                                                                                                                         01051900000000000000105190000000000000       0090770900066125318038051914000096
100000000000000000000009077090006612500000000000000000000000010002100026032605191200000000002            2  01260326051910051900000008543570000000001N010519000000000000000000000000000000000000000000000000000000000000000100026032632857MARILA LOPES PEREIRA                    AVENIDA LUIZ GISHOKEM - 1761 AP.13 BL.05            05831315                                                            000098
2SR. CAIXA, APOS O VENCIMENTO COBRAR 10% DE MULTA                                NAO RECEBER APOS 30 DIAS DO VENCIMENTO.                                                                                                                                                                                                         01051900000000000000105190000000000000       0090770900066125260326051912000099
100000000000000000000009077090006612500000000000000000000000010002100026032605192000000000002            2  01260326051910051900000002059860000000001N010519000000000000000000000000000000000000000000000000000000000000000100026032632857MARILA LOPES PEREIRA                    AVENIDA LUIZ GISHOKEM - 1761 AP.13 BL.05            05831315                                                            000101
2SR. CAIXA, APOS O VENCIMENTO COBRAR 10% DE MULTA                                NAO RECEBER APOS 30 DIAS DO VENCIMENTO.                                                                                                                                                                                                         01051900000000000000105190000000000000       0090770900066125260326051920000102
100000000000000000000009077090006612500000000000000000000000010002100063064505191900000000002            2  01630645051910051900000003567020000000001N010519000000000000000000000000000000000000000000000000000000000000000100063064537849ANTONIO APARECIDO DA SILVA DESTEFANO    RUA PROFESSOR TEODORO BRAGA - 46 - VILA             02966020                                                            000104
2SR. CAIXA, APOS O VENCIMENTO COBRAR 10% DE MULTA                                NAO RECEBER APOS 30 DIAS DO VENCIMENTO.                                                                                                                                                                                                         01051900000000000000105190000000000000       0090770900066125630645051919000105
100000000000000000000009077090006612500000000000000000000000010002100010107705191400000000002            2  01101077051910051900000003418260000000001N010519000000000000000000000000000000000000000000000000000000000000000100010107711834VALDEMAR FECCHIO                        RUA DEPUTADO EMILIO CARLOS - 355 AP.21-B            06028010                                                            000107
2SR. CAIXA, APOS O VENCIMENTO COBRAR 10% DE MULTA                                NAO RECEBER APOS 30 DIAS DO VENCIMENTO.                                                                                                                                                                                                         01051900000000000000105190000000000000       0090770900066125101077051914000108
100000000000000000000009077090006612500000000000000000000000010002100003330705191300000000002            2  01033307051910051900000004397400000000001N010519000000000000000000000000000000000000000000000000000000000000000100003330791837MARLI DA SILVA BARBOSA                  RUA GLICERIO CERQUEIRA LEITE - 151 - JAR            03675040                                                            000110
2SR. CAIXA, APOS O VENCIMENTO COBRAR 10% DE MULTA                                NAO RECEBER APOS 30 DIAS DO VENCIMENTO.                                                                                                                                                                                                         01051900000000000000105190000000000000       0090770900066125033307051913000111
100000000000000000000009077090006612500000000000000000000000010002100008931005191100000000002            2  01089310051910051900000001787480000000001N010519000000000000000000000000000000000000000000000000000000000000000100008931031874BENEVENUTO THEODORO DA SILVA NETO       RUA MONTE CASTELO - 296 AP.63 - AVIACAO             11702720                                                            000113
2SR. CAIXA, APOS O VENCIMENTO COBRAR 10% DE MULTA                                NAO RECEBER APOS 30 DIAS DO VENCIMENTO.                                                                                                                                                                                                         01051900000000000000105190000000000000       0090770900066125089310051911000114
100000000000000000000009077090006612500000000000000000000000010002100005920505191800000000002            2  01059205051910051900000002076740000000001N010519000000000000000000000000000000000000000000000000000000000000000100005920579846SONIA MARIA VALDO POLLO                 RUA PALMIRA CERVI BARBARO - 797 - CIDADE            13214370                                                            000116
2SR. CAIXA, APOS O VENCIMENTO COBRAR 10% DE MULTA                                NAO RECEBER APOS 30 DIAS DO VENCIMENTO.                                                                                                                                                                                                         01051900000000000000105190000000000000       0090770900066125059205051918000117
100000000000000000000009077090006612500000000000000000000000010002100002494105191900000000002            2  01024941051910051900000003122450000000001N010519000000000000000000000000000000000000000000000000000000000000000100002494107881CIRO FRANCISCO MARCHI DURIGON           RUA MONTE CASTELO - 262 AP.115 - AVIACAO            11702720                                                            000119
2SR. CAIXA, APOS O VENCIMENTO COBRAR 10% DE MULTA                                NAO RECEBER APOS 30 DIAS DO VENCIMENTO.                                                                                                                                                                                                         01051900000000000000105190000000000000       0090770900066125024941051919000120
100000000000000000000009077090006612500000000000000000000000010002100007002305191600000000002            2  01070023051910051900000003069540000000001N010519000000000000000000000000000000000000000000000000000000000000000100007002345869DOMINGOS DE BRITO GALVAO                RUA MONTE CASTELO - 262 AP.44 - AVIACAO             11702720                                                            000122
2SR. CAIXA, APOS O VENCIMENTO COBRAR 10% DE MULTA                                NAO RECEBER APOS 30 DIAS DO VENCIMENTO.                                                                                                                                                                                                         01051900000000000000105190000000000000       0090770900066125070023051916000123
100000000000000000000009077090006612500000000000000000000000010002100009346805191600000000002            2  01093468051910051900000001278620000000001N010519000000000000000000000000000000000000000000000000000000000000000100009346863862NELSON DE SOUZA SANTOS                  RUA PRIMEIRA CRUZ - 90 - PARQUE INDEPEND            03236060                                                            000125
2SR. CAIXA, APOS O VENCIMENTO COBRAR 10% DE MULTA                                NAO RECEBER APOS 30 DIAS DO VENCIMENTO.                                                                                                                                                                                                         01051900000000000000105190000000000000       0090770900066125093468051916000126
100000000000000000000009077090006612500000000000000000000000010002100016299005191P00000000002            2  01162990051910051900000002959040000000001N010519000000000000000000000000000000000000000000000000000000000000000100016299008857FERNANDO CESAR CARVALHO                 AVENIDA MARCONDES DE BRITO - 1340 AP.74             03509000                                                            000128
2SR. CAIXA, APOS O VENCIMENTO COBRAR 10% DE MULTA                                NAO RECEBER APOS 30 DIAS DO VENCIMENTO.                                                                                                                                                                                                         01051900000000000000105190000000000000       009077090006612516299005191P000129
100000000000000000000009077090006612500000000000000000000000010002100031082805191300000000002            2  01310828051910051900000002973370000000001N010519000000000000000000000000000000000000000000000000000000000000000100031082898880VANESSA DOS SANTOS NEIVA                RUA MONTE CASTELO - 296 AP.33 - BAIRRO A            11702720                                                            000131
2SR. CAIXA, APOS O VENCIMENTO COBRAR 10% DE MULTA                                NAO RECEBER APOS 30 DIAS DO VENCIMENTO.                                                                                                                                                                                                         01051900000000000000105190000000000000       0090770900066125310828051913000132
100000000000000000000009077090006612500000000000000000000000010002100065895305191300000000002            2  01658953051910051900000001810360000000001N010519000000000000000000000000000000000000000000000000000000000000000100065895304834MARINHO BARBOSA CUNHA                   AVENIDA EDU CHAVES - 639 AP.43 - PARQUE             02229000                                                            000134
2SR. CAIXA, APOS O VENCIMENTO COBRAR 10% DE MULTA                                NAO RECEBER APOS 30 DIAS DO VENCIMENTO.                                                                                                                                                                                                         01051900000000000000105190000000000000       0090770900066125658953051913000135
9                                                                                                                                                                                                                                                                                                                                                                                                         000136