01REMESSA01COBRANCA       00000000000005331186HB SANTOS CONSTRUTORA E INCORP237BRADESCO       010522        MX0000047                                                                                                                                                                                                                                                                                     000001
100000000000000000000009033990000995400000000000000000000000010002020026858605221200000000002            2  01268586052208052200000002757670000000001N010522000000000000000000000000000000000000000000000000000000000000000100026858625879GLAUCE FERREIRA DE OLIVEIRA FALSI       RUA LOURENCO ANTONIO BRAGANCA - 116 - JA            04403160                                                            000002
2SR. CAIXA, APOS O VENCIMENTO COBRAR 2% DE MULTA                                 NAO RECEBER APOS 30 DIAS DO VENCIMENTO.                                                                                                                                                                                                         01052200000000000000105220000000000000       0090339900009954268586052212000003
100000000000000000000009033990000995400000000000000000000000010002020016960805221300000000002            2  01169608052208052200000002633120000000001N010522000000000000000000000000000000000000000000000000000000000000000100016960804876LUIZ ALVES DE SOUZA JUNIOR              RUA URUGUAI - 89 AP.61 - JARDIM GUILHERM            11702300                                                            000005
2SR. CAIXA, APOS O VENCIMENTO COBRAR 2% DE MULTA                                 NAO RECEBER APOS 30 DIAS DO VENCIMENTO.                                                                                                                                                                                                         01052200000000000000105220000000000000       0090339900009954169608052213000006
100000000000000000000009033990000995400000000000000000000000010002020029425005221500000000002            2  01294250052208052200000002622550000000001N010522000000000000000000000000000000000000000000000000000000000000000100029425027897FABIA DOS SANTOS DE ANDRADE             AVENIDA ALCIDES CANDIDO DOS SANTOS - 248            11705480                                                            000008
2SR. CAIXA, APOS O VENCIMENTO COBRAR 2% DE MULTA                                 NAO RECEBER APOS 30 DIAS DO VENCIMENTO.                                                                                                                                                                                                         01052200000000000000105220000000000000       0090339900009954294250052215000009
100000000000000000000009033990000995400000000000000000000000010002020078382705221000000000002            2  01783827052208052200000002650220000000001N010522000000000000000000000000000000000000000000000000000000000000000100078382700497JARMELINA BARBOSA DA SILVA              RUA OSCAR CINTRA GORDINHO - 211 AP.51 -             01512010                                                            000011
2SR. CAIXA, APOS O VENCIMENTO COBRAR 2% DE MULTA                                 NAO RECEBER APOS 30 DIAS DO VENCIMENTO.                                                                                                                                                                                                         01052200000000000000105220000000000000       0090339900009954783827052210000012
100000000000000000000009033990000995400000000000000000000000010002020007535305221P00000000002            2  01075353052208052200000002598870000000001N010522000000000000000000000000000000000000000000000000000000000000000100007535375839AINAILDE PEREIRA DE CASTRO OLIVETTO     TRAVESSA DORALINA ELIETE ADAO DA SILVA -            08021026                                                            000014
2SR. CAIXA, APOS O VENCIMENTO COBRAR 2% DE MULTA                                 NAO RECEBER APOS 30 DIAS DO VENCIMENTO.                                                                                                                                                                                                         01052200000000000000105220000000000000       009033990000995407535305221P000015
100000000000000000000009033990000995400000000000000000000000010002020017229705221500000000002            2  01172297052208052200000002752940000000001N010522000000000000000000000000000000000000000000000000000000000000000100017229751802BERENICE VIEIRA KERSTING                RUA ATIBAIA - 17 AP.417 - BAIRRO IMPERAD            11707380                                                            000017
2SR. CAIXA, APOS O VENCIMENTO COBRAR 2% DE MULTA                                 NAO RECEBER APOS 30 DIAS DO VENCIMENTO.                                                                                                                                                                                                         01052200000000000000105220000000000000       0090339900009954172297052215000018
100000000000000000000009033990000995400000000000000000000000010002020028974205221700000000002            2  01289742052208052200000002571190000000001N010522000000000000000000000000000000000000000000000000000000000000000100028974233827MARISTELA FAVANI DE OLIVEIRA            RUA GIUSEPPE CARNEVALLI - 96 - BAIRRO BO            09572100                                                            000020
2SR. CAIXA, APOS O VENCIMENTO COBRAR 2% DE MULTA                                 NAO RECEBER APOS 30 DIAS DO VENCIMENTO.                                                                                                                                                                                                         01052200000000000000105220000000000000       0090339900009954289742052217000021
100000000000000000000009033990000995400000000000000000000000010002020092184805221400000000002            2  01921848052208052200000002536960000000001N010522000000000000000000000000000000000000000000000000000000000000000100092184804800CARMEM DO SOCORRO GUILHERME             ESTRADA SAO FRANCISCO - 1.850 AP.182A -             06765000                                                            000023
2SR. CAIXA, APOS O VENCIMENTO COBRAR 2% DE MULTA                                 NAO RECEBER APOS 30 DIAS DO VENCIMENTO.                                                                                                                                                                                                         01052200000000000000105220000000000000       0090339900009954921848052214000024
100000000000000000000009033990000995400000000000000000000000010002020009169705221400000000002            2  01091697052208052200000002034660000000001N010522000000000000000000000000000000000000000000000000000000000000000100009169701830TADEU CONSTANTINO LOPES                 RUA JOSE ANTONIO COELHO - 349 CASA 01 -             04011061                                                            000026
2SR. CAIXA, APOS O VENCIMENTO COBRAR 2% DE MULTA                                 NAO RECEBER APOS 30 DIAS DO VENCIMENTO.                                                                                                                                                                                                         01052200000000000000105220000000000000       0090339900009954091697052214000027
100000000000000000000009033990000995400000000000000000000000010002020042480105221200000000002            2  01424801052208052200000002588300000000001N010522000000000000000000000000000000000000000000000000000000000000000100042480155870JAMITRE SOIOMARA ALVES DO NASCIMENTO DAVRUA URUGUAI - 89 AP.75 - JARDIM GUILHERM            11702300                                                            000029
2SR. CAIXA, APOS O VENCIMENTO COBRAR 2% DE MULTA                                 NAO RECEBER APOS 30 DIAS DO VENCIMENTO.                                                                                                                                                                                                         01052200000000000000105220000000000000       0090339900009954424801052212000030
100000000000000000000009033990000995400000000000000000000000010002020008966505221800000000002            2  01089665052208052200000002445520000000001N010522000000000000000000000000000000000000000000000000000000000000000100008966511856MONICA SILVA REIS                       RUA ORATORIO - 264 E FUNDOS - BANGU - SA            09280550                                                            000032
2SR. CAIXA, APOS O VENCIMENTO COBRAR 2% DE MULTA                                 NAO RECEBER APOS 30 DIAS DO VENCIMENTO.                                                                                                                                                                                                         01052200000000000000105220000000000000       0090339900009954089665052218000033
100000000000000000000009033990000995400000000000000000000000010002020001356905221900000000002            2  01013569052208052200000002626830000000001N010522000000000000000000000000000000000000000000000000000000000000000100001356993800DALVA MARIA DOS SANTOS                  RUA URUGUAI - 89 AP.74 - AVIACAO - PRAIA            11702300                                                            000035
2SR. CAIXA, APOS O VENCIMENTO COBRAR 2% DE MULTA                                 NAO RECEBER APOS 30 DIAS DO VENCIMENTO.                                                                                                                                                                                                         01052200000000000000105220000000000000       0090339900009954013569052219000036
100000000000000000000009033990000995400000000000000000000000010002020024615505221100000000002            2  01246155052208052200000002995790000000001N010522000000000000000000000000000000000000000000000000000000000000000100024615557884GILBERTO JOSE GONSALES                  RUA URUGUAI - 89 AP.115 - JARDIM GUILHER            11702300                                                            000038
2SR. CAIXA, APOS O VENCIMENTO COBRAR 2% DE MULTA                                 NAO RECEBER APOS 30 DIAS DO VENCIMENTO.                                                                                                                                                                                                         01052200000000000000105220000000000000       0090339900009954246155052211000039
100000000000000000000009033990000995400000000000000000000000010002020008878805221600000000002            2  01088788052208052200000002881070000000001N010522000000000000000000000000000000000000000000000000000000000000000100008878832812LUIZ ANTONIO DE OLIVEIRA                RUA TORRINHA - 220 AP.132 - BAIRRO TATUA            03332010                                                            000041
2SR. CAIXA, APOS O VENCIMENTO COBRAR 2% DE MULTA                                 NAO RECEBER APOS 30 DIAS DO VENCIMENTO.                                                                                                                                                                                                         01052200000000000000105220000000000000       0090339900009954088788052216000042
100000000000000000000009033990000995400000000000000000000000010002020031473705221100000000002            2  01314737052208052200000002117560000000001N010522000000000000000000000000000000000000000000000000000000000000000100031473799813MURIEL DA SILVA DE MOURA SOUZA          RUA CAPITAO PAULINO FREIRE - 300 AP.014             08717100                                                            000044
2SR. CAIXA, APOS O VENCIMENTO COBRAR 2% DE MULTA                                 NAO RECEBER APOS 30 DIAS DO VENCIMENTO.                                                                                                                                                                                                         01052200000000000000105220000000000000       0090339900009954314737052211000045
100000000000000000000009033990000995400000000000000000000000010002020036949505221000000000002            2  01369495052208052200000002803340000000001N010522000000000000000000000000000000000000000000000000000000000000000100036949505833FELIPE APARECIDO DOS SANTOS             RUA DAS MIMOSAS - 67 CASA 09 - VILA LUCI            03144010                                                            000047
2SR. CAIXA, APOS O VENCIMENTO COBRAR 2% DE MULTA                                 NAO RECEBER APOS 30 DIAS DO VENCIMENTO.                                                                                                                                                                                                         01052200000000000000105220000000000000       0090339900009954369495052210000048
100000000000000000000009033990000995400000000000000000000000010002020008539305221800000000002            2  01085393052208052200000002864180000000001N010522000000000000000000000000000000000000000000000000000000000000000100008539365871EDMILSON RAIMUNDO DOS SANTOS            RUA CALIDICE - 247 - PARQUE CRUZEIRO - S            08070010                                                            000050
2SR. CAIXA, APOS O VENCIMENTO COBRAR 2% DE MULTA                                 NAO RECEBER APOS 30 DIAS DO VENCIMENTO.                                                                                                                                                                                                         01052200000000000000105220000000000000       0090339900009954085393052218000051
100000000000000000000009033990000995400000000000000000000000010002020031040905221700000000002            2  01310409052208052200000002950850000000001N010522000000000000000000000000000000000000000000000000000000000000000100031040952801ANDRESSA REGINA FAVERANI LUPPI          RUA AMALIA BELLOTTI PASTORELLO - 169 - T            11724030                                                            000053
2SR. CAIXA, APOS O VENCIMENTO COBRAR 2% DE MULTA                                 NAO RECEBER APOS 30 DIAS DO VENCIMENTO.                                                                                                                                                                                                         01052200000000000000105220000000000000       0090339900009954310409052217000054
100000000000000000000009033990000995400000000000000000000000010002020024558905221300000000002            2  01245589052208052200000004933190000000001N010522000000000000000000000000000000000000000000000000000000000000000100024558912838EDILENE GORGATTI                        RUA ITARARE - 76 AP.142 - JARDIM GUILHER            11701820                                                            000056
2SR. CAIXA, APOS O VENCIMENTO COBRAR 2% DE MULTA                                 NAO RECEBER APOS 30 DIAS DO VENCIMENTO.                                                                                                                                                                                                         01052200000000000000105220000000000000       0090339900009954245589052213000057
100000000000000000000009033990000995400000000000000000000000010002020004611205221900000000002            2  01046112052208052200000001816580000000001N010522000000000000000000000000000000000000000000000000000000000000000100004611218830TANIA MARIA DA SILVA NUNES PEREIRA LUIZ RODOVIA RAPOSO TAVARES, 7389 KM 17,5 - A            05576200                                                            000059
2SR. CAIXA, APOS O VENCIMENTO COBRAR 2% DE MULTA                                 NAO RECEBER APOS 30 DIAS DO VENCIMENTO.                                                                                                                                                                                                         01052200000000000000105220000000000000       0090339900009954046112052219000060
100000000000000000000009033990000995400000000000000000000000010002020010548805221600000000002            2  01105488052208052200000003227800000000001N010522000000000000000000000000000000000000000000000000000000000000000100010548844801RICARDO DE JESUS CALDAS                 RUA ANTONIO AMBUBA - 50 CASA 60 - BAIRRO            05782370                                                            000062
2SR. CAIXA, APOS O VENCIMENTO COBRAR 2% DE MULTA                                 NAO RECEBER APOS 30 DIAS DO VENCIMENTO.                                                                                                                                                                                                         01052200000000000000105220000000000000       0090339900009954105488052216000063
100000000000000000000009033990000995400000000000000000000000010002020039623805221500000000002            2  01396238052208052200000002836870000000001N010522000000000000000000000000000000000000000000000000000000000000000100039623826826LEONARDO GUEDES PINTO                   RUA URUGUAI - 89 AP.24 - AVIACAO - PRAIA            11702300                                                            000065
2SR. CAIXA, APOS O VENCIMENTO COBRAR 2% DE MULTA                                 NAO RECEBER APOS 30 DIAS DO VENCIMENTO.                                                                                                                                                                                                         01052200000000000000105220000000000000       0090339900009954396238052215000066
100000000000000000000009033990000995400000000000000000000000010002020039558605221400000000002            2  01395586052208052200000002604430000000001N010522000000000000000000000000000000000000000000000000000000000000000100039558638838TAMIRES ROCHA FRANCISCO                 RUA DUARTE DE CARVALHO - 185 AP.102 - BA            03084030                                                            000068
2SR. CAIXA, APOS O VENCIMENTO COBRAR 2% DE MULTA                                 NAO RECEBER APOS 30 DIAS DO VENCIMENTO.                                                                                                                                                                                                         01052200000000000000105220000000000000       0090339900009954395586052214000069
100000000000000000000009033990000995400000000000000000000000010002020032038705221300000000002            2  01320387052208052200000002118890000000001N010522000000000000000000000000000000000000000000000000000000000000000100032038775893GUSTAVO PEREIRA DA CRUZ                 RUA SAO FIDELIS - 203 - JARDIM BRASIL -             16074050                                                            000071
2SR. CAIXA, APOS O VENCIMENTO COBRAR 2% DE MULTA                                 NAO RECEBER APOS 30 DIAS DO VENCIMENTO.                                                                                                                                                                                                         01052200000000000000105220000000000000       0090339900009954320387052213000072
9                                                                                                                                                                                                                                                                                                                                                                                                         000073