01REMESSA01COBRANCA       00000000000008017025HB SANTOS CONSTRUTORA E INCORP237BRADESCO       010420        MX0000100                                                                                                                                                                                                                                                                                     000001
100000000000000000000009033990000627000000000000000000000000010002020029671504201P00000000002            2  01296715042009042000000002668030000000001N010420000000000000000000000000000000000000000000000000000000000000000100029671526845ROGERIO CONSENTINO                      RUA CARLOS MAZER  - 678 - VILA CARMOSINA            08290700                                                            000002
2SR. CAIXA, APOS O VENCIMENTO COBRAR 2% DE MULTA                                 NAO RECEBER APOS 30 DIAS DO VENCIMENTO.                                                                                                                                                                                                         01042000000000000000104200000000000000       009033990000627029671504201P000003
100000000000000000000009033990000627000000000000000000000000010002020003863004201100000000002            2  01038630042009042000000002520170000000001N010420000000000000000000000000000000000000000000000000000000000000000100003863075803HERALDO MENQUINI                        RUA CARLOS JOSE BORSTENS - 50 AP.15 - AV            11702750                                                            000005
2SR. CAIXA, APOS O VENCIMENTO COBRAR 2% DE MULTA                                 NAO RECEBER APOS 30 DIAS DO VENCIMENTO.                                                                                                                                                                                                         01042000000000000000104200000000000000       0090339900006270038630042011000006
100000000000000000000009033990000627000000000000000000000000010002020029028404201900000000002            2  01290284042009042000000002581670000000001N010420000000000000000000000000000000000000000000000000000000000000000100029028478825LEONARDO LOUZADA                        RUA CARLOS JOSE BORSTENS - 50 AP.35 - AV            11702750                                                            000008
2SR. CAIXA, APOS O VENCIMENTO COBRAR 2% DE MULTA                                 NAO RECEBER APOS 30 DIAS DO VENCIMENTO.                                                                                                                                                                                                         01042000000000000000104200000000000000       0090339900006270290284042019000009
100000000000000000000009033990000627000000000000000000000000010002020032878504201600000000002            2  01328785042009042000000003731030000000001N010420000000000000000000000000000000000000000000000000000000000000000100032878512847LEONARDO MOURA MONIZ CALDEIRA           RUA BALSA - 682 AP.134 T.02 - VILA ARCAD            02910000                                                            000011
2SR. CAIXA, APOS O VENCIMENTO COBRAR 2% DE MULTA                                 NAO RECEBER APOS 30 DIAS DO VENCIMENTO.                                                                                                                                                                                                         01042000000000000000104200000000000000       0090339900006270328785042016000012
100000000000000000000009033990000627000000000000000000000000010002020016479004201300000000002            2  01164790042009042000000003969150000000001N010420000000000000000000000000000000000000000000000000000000000000000100016479002806LOURDES PEREIRA DE QUEIROZ SECANECHIA   RUA PAULINO CURSI - 437 - CIDADE SAO MAT            03960060                                                            000014
2SR. CAIXA, APOS O VENCIMENTO COBRAR 2% DE MULTA                                 NAO RECEBER APOS 30 DIAS DO VENCIMENTO.                                                                                                                                                                                                         01042000000000000000104200000000000000       0090339900006270164790042013000015
100000000000000000000009033990000627000000000000000000000000010002020019635004201000000000002            2  01196350042009042000000002928540000000001N010420000000000000000000000000000000000000000000000000000000000000000100019635091885IVAN VIEIRA SILVA                       ABRAO JORGE - 3001 - JARDIM INTEGRACAO -            14405397                                                            000017
2SR. CAIXA, APOS O VENCIMENTO COBRAR 2% DE MULTA                                 NAO RECEBER APOS 30 DIAS DO VENCIMENTO.                                                                                                                                                                                                         01042000000000000000104200000000000000       0090339900006270196350042010000018
100000000000000000000009033990000627000000000000000000000000010002020009361404201000000000002            2  01093614042009042000000002881610000000001N010420000000000000000000000000000000000000000000000000000000000000000100009361471805JOSE BARBOSA DA SILVA                   RUA ALFREDO INACIO TRINDADE  - 60 AP.44             02344100                                                            000020
2SR. CAIXA, APOS O VENCIMENTO COBRAR 2% DE MULTA                                 NAO RECEBER APOS 30 DIAS DO VENCIMENTO.                                                                                                                                                                                                         01042000000000000000104200000000000000       0090339900006270093614042010000021
100000000000000000000009033990000627000000000000000000000000010002020012756904201400000000002            2  01127569042009042000000002487460000000001N010420000000000000000000000000000000000000000000000000000000000000000100012756959812ITAMAR JUVENAL DIAS DA SILVA            RUA ELISEU REINALDO MORAES VIEIRA - 90 A            02858000                                                            000023
2SR. CAIXA, APOS O VENCIMENTO COBRAR 2% DE MULTA                                 NAO RECEBER APOS 30 DIAS DO VENCIMENTO.                                                                                                                                                                                                         01042000000000000000104200000000000000       0090339900006270127569042014000024
100000000000000000000009033990000627000000000000000000000000010002020002731004201100000000002            2  01027310042009042000000002940850000000001N010420000000000000000000000000000000000000000000000000000000000000000100002731042842VALTER CERQUEIRA VILLA NOVA             RUA MACHADO - 106 - VILA AUGUSTA - GUARU            07025210                                                            000026
2SR. CAIXA, APOS O VENCIMENTO COBRAR 2% DE MULTA                                 NAO RECEBER APOS 30 DIAS DO VENCIMENTO.                                                                                                                                                                                                         01042000000000000000104200000000000000       0090339900006270027310042011000027
100000000000000000000009033990000627000000000000000000000000010002020002731004202P00000000002            2  01027310042009042000000002940840000000001N010420000000000000000000000000000000000000000000000000000000000000000100002731042842VALTER CERQUEIRA VILLA NOVA             RUA MACHADO - 106 - VILA AUGUSTA - GUARU            07025210                                                            000029
2SR. CAIXA, APOS O VENCIMENTO COBRAR 2% DE MULTA                                 NAO RECEBER APOS 30 DIAS DO VENCIMENTO.                                                                                                                                                                                                         01042000000000000000104200000000000000       009033990000627002731004202P000030
100000000000000000000009033990000627000000000000000000000000010002020028802104201P00000000002            2  01288021042009042000000002655510000000001N010420000000000000000000000000000000000000000000000000000000000000000100028802158894ELIEL HENRIQUE ZUZA                     RUA CARLOS JOSE BORSTENS - 50 AP.43 - BA            11702750                                                            000032
2SR. CAIXA, APOS O VENCIMENTO COBRAR 2% DE MULTA                                 NAO RECEBER APOS 30 DIAS DO VENCIMENTO.                                                                                                                                                                                                         01042000000000000000104200000000000000       009033990000627028802104201P000033
100000000000000000000009033990000627000000000000000000000000010002020008739104201300000000002            2  01087391042009042000000002483590000000001N010420000000000000000000000000000000000000000000000000000000000000000100008739150895VANGEVALDO BATISTA SANT ANNA            TRAVESSA TOMAZIN - 02 - ERMELINO MATARAZ            03811125                                                            000035
2SR. CAIXA, APOS O VENCIMENTO COBRAR 2% DE MULTA                                 NAO RECEBER APOS 30 DIAS DO VENCIMENTO.                                                                                                                                                                                                         01042000000000000000104200000000000000       0090339900006270087391042013000036
100000000000000000000009033990000627000000000000000000000000010002020005313704201P00000000002            2  01053137042011042000000002146560000000001N010420000000000000000000000000000000000000000000000000000000000000000100005313717863EDIMICIO JOSE DE ARAUJO                 PRACA NICOLAU GERAIGIRE - 680 CA A - JAR            11095110                                                            000038
2SR. CAIXA, APOS O VENCIMENTO COBRAR 2% DE MULTA                                 NAO RECEBER APOS 30 DIAS DO VENCIMENTO.                                                                                                                                                                                                         01042000000000000000104200000000000000       009033990000627005313704201P000039
100000000000000000000009033990000627000000000000000000000000010002020029433604201800000000002            2  01294336042011042000000002062110000000001N010420000000000000000000000000000000000000000000000000000000000000000100029433631897MARIO MUNIZ                             RUA JOSE CALIXTO DO CARMO - 286 AP.53 -             11702690                                                            000041
2SR. CAIXA, APOS O VENCIMENTO COBRAR 2% DE MULTA                                 NAO RECEBER APOS 30 DIAS DO VENCIMENTO.                                                                                                                                                                                                         01042000000000000000104200000000000000       0090339900006270294336042018000042
100000000000000000000009033990000627000000000000000000000000010002020001847204201600000000002            2  01018472042011042000000001898420000000001N010420000000000000000000000000000000000000000000000000000000000000000100001847204864AMERICA CONCEICAO DA SILVA              RUA JOSE CALIXTO DO CARMO - 286 AP.44 -             11702690                                                            000044
2SR. CAIXA, APOS O VENCIMENTO COBRAR 2% DE MULTA                                 NAO RECEBER APOS 30 DIAS DO VENCIMENTO.                                                                                                                                                                                                         01042000000000000000104200000000000000       0090339900006270018472042016000045
100000000000000000000009033990000627000000000000000000000000010002020005029804201000000000002            2  01050298042009042000000002536120000000001N010420000000000000000000000000000000000000000000000000000000000000000100005029828885LAURINETE DA CONCEICAO DE NORONHA       RUA MARIA LUCIA DE TOLEDO LEITE MORAES -            04434040                                                            000047
2SR. CAIXA, APOS O VENCIMENTO COBRAR 2% DE MULTA                                 NAO RECEBER APOS 30 DIAS DO VENCIMENTO.                                                                                                                                                                                                         01042000000000000000104200000000000000       0090339900006270050298042010000048
100000000000000000000009033990000627000000000000000000000000010002020013388904201200000000002            2  01133889042011042000000002010230000000001N010420000000000000000000000000000000000000000000000000000000000000000100013388936889NEUTON DE SOUZA RAMOS                   RUA MARIA CRISTINA - 932 - JARDIM CASQUE            11533160                                                            000050
2SR. CAIXA, APOS O VENCIMENTO COBRAR 2% DE MULTA                                 NAO RECEBER APOS 30 DIAS DO VENCIMENTO.                                                                                                                                                                                                         01042000000000000000104200000000000000       0090339900006270133889042012000051
100000000000000000000009033990000627000000000000000000000000010002020012774904201200000000002            2  01127749042011042000000002047990000000001N010420000000000000000000000000000000000000000000000000000000000000000100012774906865JOSE MILTON SANTIAGO                    RUA BATATAIS - 47 - CIDADE ESTELA - POA             08563140                                                            000053
2SR. CAIXA, APOS O VENCIMENTO COBRAR 2% DE MULTA                                 NAO RECEBER APOS 30 DIAS DO VENCIMENTO.                                                                                                                                                                                                         01042000000000000000104200000000000000       0090339900006270127749042012000054
100000000000000000000009033990000627000000000000000000000000010002020016294104201800000000002            2  01162941042009042000000002517920000000001N010420000000000000000000000000000000000000000000000000000000000000000100016294119812JURACY FELIX DE ARRUDA                  RUA CARLOS JOSE BORSTENS - 50 AP.23 - AV            11702750                                                            000056
2SR. CAIXA, APOS O VENCIMENTO COBRAR 2% DE MULTA                                 NAO RECEBER APOS 30 DIAS DO VENCIMENTO.                                                                                                                                                                                                         01042000000000000000104200000000000000       0090339900006270162941042018000057
100000000000000000000009033990000627000000000000000000000000010002020005613804201200000000002            2  01056138042011042000000001883580000000001N010420000000000000000000000000000000000000000000000000000000000000000100005613843805NILZA MARIA DE OLIVEIRA                 RUA JOSE GONCALVES DE FREITAS - 66 C2 -             08210550                                                            000059
2SR. CAIXA, APOS O VENCIMENTO COBRAR 2% DE MULTA                                 NAO RECEBER APOS 30 DIAS DO VENCIMENTO.                                                                                                                                                                                                         01042000000000000000104200000000000000       0090339900006270056138042012000060
100000000000000000000009033990000627000000000000000000000000010002020007574904201200000000002            2  01075749042011042000000001933450000000001N010420000000000000000000000000000000000000000000000000000000000000000100007574936889JORGE LUCIANO PEREIRA BORRIELLO         RUA JOSE CALIXTO DO CARMO - 286 AP.54 -             11702690                                                            000062
2SR. CAIXA, APOS O VENCIMENTO COBRAR 2% DE MULTA                                 NAO RECEBER APOS 30 DIAS DO VENCIMENTO.                                                                                                                                                                                                         01042000000000000000104200000000000000       0090339900006270075749042012000063
100000000000000000000009033990000627000000000000000000000000010002020008214904201500000000002            2  01082149042011042000000001962790000000001N010420000000000000000000000000000000000000000000000000000000000000000100008214973830JAMIL CHALA                             RUA JOSE CALIXTO DO CARMO - 286 AP.22 -             11702690                                                            000065
2SR. CAIXA, APOS O VENCIMENTO COBRAR 2% DE MULTA                                 NAO RECEBER APOS 30 DIAS DO VENCIMENTO.                                                                                                                                                                                                         01042000000000000000104200000000000000       0090339900006270082149042015000066
100000000000000000000009033990000627000000000000000000000000010002020032495004201200000000002            2  01324950042011042000000002199550000000001N010420000000000000000000000000000000000000000000000000000000000000000100032495004881PAULO EDUARDO DOS SANTOS                RUA REPUBLICA DO IRAQUE - 1119 - CAMPO B            04611002                                                            000068
2SR. CAIXA, APOS O VENCIMENTO COBRAR 2% DE MULTA                                 NAO RECEBER APOS 30 DIAS DO VENCIMENTO.                                                                                                                                                                                                         01042000000000000000104200000000000000       0090339900006270324950042012000069
100000000000000000000009033990000627000000000000000000000000010002020006471804201200000000002            2  01064718042009042000000002478950000000001N010420000000000000000000000000000000000000000000000000000000000000000100006471825803JOSIVALDO BASTOS DE OLIVEIRA            RUA MARIA DIAS HOG - 263 - PARQUE CONTIN            07085035                                                            000071
2SR. CAIXA, APOS O VENCIMENTO COBRAR 2% DE MULTA                                 NAO RECEBER APOS 30 DIAS DO VENCIMENTO.                                                                                                                                                                                                         01042000000000000000104200000000000000       0090339900006270064718042012000072
100000000000000000000009033990000627000000000000000000000000010002020016498004201P00000000002            2  01164980042011042000000001929060000000001N010420000000000000000000000000000000000000000000000000000000000000000100016498053810GILMA CEZARIO GARCIA CORRITORI          RUA LAURENTINO XAVIER DOS SANTOS - 336 -            08240740                                                            000074
2SR. CAIXA, APOS O VENCIMENTO COBRAR 2% DE MULTA                                 NAO RECEBER APOS 30 DIAS DO VENCIMENTO.                                                                                                                                                                                                         01042000000000000000104200000000000000       009033990000627016498004201P000075
100000000000000000000009033990000627000000000000000000000000010002020029339004201900000000002            2  01293390042011042000000002062800000000001N010420000000000000000000000000000000000000000000000000000000000000000100029339051831RONALD DIDOFF                           RUA CORONEL FERREIRA BRAGA - 188 - VILA             03522010                                                            000077
2SR. CAIXA, APOS O VENCIMENTO COBRAR 2% DE MULTA                                 NAO RECEBER APOS 30 DIAS DO VENCIMENTO.                                                                                                                                                                                                         01042000000000000000104200000000000000       0090339900006270293390042019000078
100000000000000000000009033990000627000000000000000000000000010002020017357804201000000000002            2  01173578042011042000000002184680000000001N010420000000000000000000000000000000000000000000000000000000000000000100017357859894MARCIO GUIMARAES                        RUA GENERAL CAMARA - 188 SALA 11 - CENTR            11010120                                                            000080
2SR. CAIXA, APOS O VENCIMENTO COBRAR 2% DE MULTA                                 NAO RECEBER APOS 30 DIAS DO VENCIMENTO.                                                                                                                                                                                                         01042000000000000000104200000000000000       0090339900006270173578042010000081
100000000000000000000009033990000627000000000000000000000000010002020010563004201000000000002            2  01105630042011042000000002240530000000001N010420000000000000000000000000000000000000000000000000000000000000000100010563033878VERA LUCIA RIBEIRO LONGANEZI            RUA DOS CAMARES - 150 AP.24 BL.02 - CARA            02068030                                                            000083
2SR. CAIXA, APOS O VENCIMENTO COBRAR 2% DE MULTA                                 NAO RECEBER APOS 30 DIAS DO VENCIMENTO.                                                                                                                                                                                                         01042000000000000000104200000000000000       0090339900006270105630042010000084
100000000000000000000009033990000627000000000000000000000000010002020005529604201500000000002            2  01055296042011042000000002033200000000001N010420000000000000000000000000000000000000000000000000000000000000000100005529616801JOAQUIM JORGE DA COSTA                  RUA JOSE CALIXTO DO CARMO - 286 AP.106 -            11702690                                                            000086
2SR. CAIXA, APOS O VENCIMENTO COBRAR 2% DE MULTA                                 NAO RECEBER APOS 30 DIAS DO VENCIMENTO.                                                                                                                                                                                                         01042000000000000000104200000000000000       0090339900006270055296042015000087
100000000000000000000009033990000627000000000000000000000000010002020022014104201P00000000002            2  01220141042011042000000002027280000000001N010420000000000000000000000000000000000000000000000000000000000000000100022014140847CAMILA SILVEIRA CANIZARES               AVENIDA PRESIDENTE CASTELO BRANCO - 5.74            11703650                                                            000089
2SR. CAIXA, APOS O VENCIMENTO COBRAR 2% DE MULTA                                 NAO RECEBER APOS 30 DIAS DO VENCIMENTO.                                                                                                                                                                                                         01042000000000000000104200000000000000       009033990000627022014104201P000090
100000000000000000000009033990000627000000000000000000000000010002020015550704201100000000002            2  01155507042009042000000001922360000000001N010420000000000000000000000000000000000000000000000000000000000000000100015550706806MARY MIWA                               RUA CARLOS JOSE BORSTENS - 50 AP.105 - A            11702750                                                            000092
2SR. CAIXA, APOS O VENCIMENTO COBRAR 2% DE MULTA                                 NAO RECEBER APOS 30 DIAS DO VENCIMENTO.                                                                                                                                                                                                         01042000000000000000104200000000000000       0090339900006270155507042011000093
100000000000000000000009033990000627000000000000000000000000010002020015464604201100000000002            2  01154646042011042000000002137380000000001N010420000000000000000000000000000000000000000000000000000000000000000100015464647864SONIA TERESA VOLPATO                    RUA JOSE CALIXTO DO CARMO - 286 AP.73 -             11702690                                                            000095
2SR. CAIXA, APOS O VENCIMENTO COBRAR 2% DE MULTA                                 NAO RECEBER APOS 30 DIAS DO VENCIMENTO.                                                                                                                                                                                                         01042000000000000000104200000000000000       0090339900006270154646042011000096
100000000000000000000009033990000627000000000000000000000000010002020008657804201000000000002            2  01086578042011042000000002115920000000001N010420000000000000000000000000000000000000000000000000000000000000000100008657886855ARLINDO DA CRUZ                         AVENIDA ARICANDUVA - 8.256 AP.54 BL.10 -            03951220                                                            000098
2SR. CAIXA, APOS O VENCIMENTO COBRAR 2% DE MULTA                                 NAO RECEBER APOS 30 DIAS DO VENCIMENTO.                                                                                                                                                                                                         01042000000000000000104200000000000000       0090339900006270086578042010000099
100000000000000000000009033990000627000000000000000000000000010002020004265704201000000000002            2  01042657042009042000000002832560000000001N010420000000000000000000000000000000000000000000000000000000000000000100004265781713ALEXANDRE CASADO COSTA                  RUA CARLOS JOSE BORSTENS - 50 AP.33 - AV            11702750                                                            000101
2SR. CAIXA, APOS O VENCIMENTO COBRAR 2% DE MULTA                                 NAO RECEBER APOS 30 DIAS DO VENCIMENTO.                                                                                                                                                                                                         01042000000000000000104200000000000000       0090339900006270042657042010000102
100000000000000000000009033990000627000000000000000000000000010002020059735104201900000000002            2  01597351042009042000000001196410000000001N010420000000000000000000000000000000000000000000000000000000000000000100059735180863HELIO JOSE MARQUES                      RUA MARTIM AFONSO DE SOUZA - 1007 AP.102            11702790                                                            000104
2SR. CAIXA, APOS O VENCIMENTO COBRAR 2% DE MULTA                                 NAO RECEBER APOS 30 DIAS DO VENCIMENTO.                                                                                                                                                                                                         01042000000000000000104200000000000000       0090339900006270597351042019000105
100000000000000000000009033990000627000000000000000000000000010002020026347804201200000000002            2  01263478042011042000000002261870000000001N010420000000000000000000000000000000000000000000000000000000000000000100026347872862VALDECI SILVA MEIRELES                  RUA JOSE BATISTA DA SILVA - 292 - JARDIM            06851470                                                            000107
2SR. CAIXA, APOS O VENCIMENTO COBRAR 2% DE MULTA                                 NAO RECEBER APOS 30 DIAS DO VENCIMENTO.                                                                                                                                                                                                         01042000000000000000104200000000000000       0090339900006270263478042012000108
100000000000000000000009033990000627000000000000000000000000010002020025443604201300000000002            2  01254436042009042000000004097460000000001N010420000000000000000000000000000000000000000000000000000000000000000100025443691830SILVANETE PEREIRA CARNELOS              RUA CARLOS JOSE BORSTENS - 50 AP.102 - A            11702750                                                            000110
2SR. CAIXA, APOS O VENCIMENTO COBRAR 2% DE MULTA                                 NAO RECEBER APOS 30 DIAS DO VENCIMENTO.                                                                                                                                                                                                         01042000000000000000104200000000000000       0090339900006270254436042013000111
100000000000000000000009033990000627000000000000000000000000010002020013135204201300000000002            2  01131352042011042000000002078090000000001N010420000000000000000000000000000000000000000000000000000000000000000100013135261859EDUARDO ZANOLA                          RUA ROLANDO PIETRO BONINI - 46 - JARDIM             09781040                                                            000113
2SR. CAIXA, APOS O VENCIMENTO COBRAR 2% DE MULTA                                 NAO RECEBER APOS 30 DIAS DO VENCIMENTO.                                                                                                                                                                                                         01042000000000000000104200000000000000       0090339900006270131352042013000114
100000000000000000000009033990000627000000000000000000000000010002020009797604201400000000002            2  01097976042011042000000002023850000000001N010420000000000000000000000000000000000000000000000000000000000000000100009797626857RICARDO SOBRAL DE OLIVEIRA              RUA 23 DE MAIO - 139 AP.32 - VILA MIRIM             11704690                                                            000116
2SR. CAIXA, APOS O VENCIMENTO COBRAR 2% DE MULTA                                 NAO RECEBER APOS 30 DIAS DO VENCIMENTO.                                                                                                                                                                                                         01042000000000000000104200000000000000       0090339900006270097976042014000117
100000000000000000000009033990000627000000000000000000000000010002020004767604201500000000002            2  01047676042009042000000003460730000000001N010420000000000000000000000000000000000000000000000000000000000000000100004767679893ORLANDO GRANDE FILHO                    RUA ORLANDO MIGLIARI - 101 - JARDIM OURO            19906140                                                            000119
2SR. CAIXA, APOS O VENCIMENTO COBRAR 2% DE MULTA                                 NAO RECEBER APOS 30 DIAS DO VENCIMENTO.                                                                                                                                                                                                         01042000000000000000104200000000000000       0090339900006270047676042015000120
100000000000000000000009033990000627000000000000000000000000010002020006512504201200000000002            2  01065125042011042000000001820540000000001N010420000000000000000000000000000000000000000000000000000000000000000100006512547870MARIA DO CARMO FAGUNDES DOS REIS        RUA CARLOS MALCHER - 98 - PARQUE EDU CHA            02232020                                                            000122
2SR. CAIXA, APOS O VENCIMENTO COBRAR 2% DE MULTA                                 NAO RECEBER APOS 30 DIAS DO VENCIMENTO.                                                                                                                                                                                                         01042000000000000000104200000000000000       0090339900006270065125042012000123
100000000000000000000009033990000627000000000000000000000000010002020022728404201500000000002            2  01227284042011042000000002189920000000001N010420000000000000000000000000000000000000000000000000000000000000000100022728497842WILLIAN DE SOUZA MELLO                  RUA JOSE CALIXTO DO CARMO - 286 AP.111 -            11702690                                                            000125
2SR. CAIXA, APOS O VENCIMENTO COBRAR 2% DE MULTA                                 NAO RECEBER APOS 30 DIAS DO VENCIMENTO.                                                                                                                                                                                                         01042000000000000000104200000000000000       0090339900006270227284042015000126
100000000000000000000009033990000627000000000000000000000000010002020016909704201P00000000002            2  01169097042011042000000001935220000000001N010420000000000000000000000000000000000000000000000000000000000000000100016909746805EDIVALDO SANTANA DOS SANTOS             ESTRADA JOAO GASPAR DELGADO - 80 AP.213             08536100                                                            000128
2SR. CAIXA, APOS O VENCIMENTO COBRAR 2% DE MULTA                                 NAO RECEBER APOS 30 DIAS DO VENCIMENTO.                                                                                                                                                                                                         01042000000000000000104200000000000000       009033990000627016909704201P000129
100000000000000000000009033990000627000000000000000000000000010002020022036004201700000000002            2  01220360042009042000000003005170000000001N010420000000000000000000000000000000000000000000000000000000000000000100022036003818DERLIS TERAN QUIROGA ROGATO             RUA JOAO RIBEIRO - 709 AP.61 - CAMPESTRE            09070250                                                            000131
2SR. CAIXA, APOS O VENCIMENTO COBRAR 2% DE MULTA                                 NAO RECEBER APOS 30 DIAS DO VENCIMENTO.                                                                                                                                                                                                         01042000000000000000104200000000000000       0090339900006270220360042017000132
100000000000000000000009033990000627000000000000000000000000010002020017229704202300000000002            2  01172297042009042000000002900260000000001N010420000000000000000000000000000000000000000000000000000000000000000100017229751802BERENICE VIEIRA KERSTING                RUA ATIBAIA - 17 AP.417 - BAIRRO IMPERAD            11707380                                                            000134
2SR. CAIXA, APOS O VENCIMENTO COBRAR 2% DE MULTA                                 NAO RECEBER APOS 30 DIAS DO VENCIMENTO.                                                                                                                                                                                                         01042000000000000000104200000000000000       0090339900006270172297042023000135
100000000000000000000009033990000627000000000000000000000000010002020012475604201000000000002            2  01124756042011042000000002097660000000001N010420000000000000000000000000000000000000000000000000000000000000000100012475663820CELIDALVA GOES DE CARVALHO              RUA AURELIO BELOTTI JUNIOR - 28 - JARDIM            05759210                                                            000137
2SR. CAIXA, APOS O VENCIMENTO COBRAR 2% DE MULTA                                 NAO RECEBER APOS 30 DIAS DO VENCIMENTO.                                                                                                                                                                                                         01042000000000000000104200000000000000       0090339900006270124756042010000138
100000000000000000000009033990000627000000000000000000000000010002020033451604201800000000002            2  01334516042011042000000001751650000000001N010420000000000000000000000000000000000000000000000000000000000000000100033451620839ARAO ELISIARIO  NUNES                   RUA JOSE CALIXTO DO CARMO - 286 AP.64 -             11702690                                                            000140
2SR. CAIXA, APOS O VENCIMENTO COBRAR 2% DE MULTA                                 NAO RECEBER APOS 30 DIAS DO VENCIMENTO.                                                                                                                                                                                                         01042000000000000000104200000000000000       0090339900006270334516042018000141
100000000000000000000009033990000627000000000000000000000000010002020095758204201800000000002            2  01957582042011042000000002130260000000001N010420000000000000000000000000000000000000000000000000000000000000000100095758275891SHIRLEY TUNES ASTOLFI                   RUA GUAPERUVU - 656 AP.84 - VILA ARICAND            03504010                                                            000143
2SR. CAIXA, APOS O VENCIMENTO COBRAR 2% DE MULTA                                 NAO RECEBER APOS 30 DIAS DO VENCIMENTO.                                                                                                                                                                                                         01042000000000000000104200000000000000       0090339900006270957582042018000144
100000000000000000000009033990000627000000000000000000000000010002020045839204201500000000002            2  01458392042011042000000001359610000000001N010420000000000000000000000000000000000000000000000000000000000000000100045839263834LEONARDO ANTONIO CONCELLIERI            RUA JOSE CALIXTO DO CARMO - 286 AP.51 -             11702690                                                            000146
2SR. CAIXA, APOS O VENCIMENTO COBRAR 2% DE MULTA                                 NAO RECEBER APOS 30 DIAS DO VENCIMENTO.                                                                                                                                                                                                         01042000000000000000104200000000000000       0090339900006270458392042015000147
100000000000000000000009033990000627000000000000000000000000010002020011369104201600000000002            2  01113691042011042000000001913490000000001N010420000000000000000000000000000000000000000000000000000000000000000100011369165803ELIANA CORREA DE OLIVEIRA               AVENIDA ELIAS MALUF - 2695 CASA 419 - WA            18055215                                                            000149
2SR. CAIXA, APOS O VENCIMENTO COBRAR 2% DE MULTA                                 NAO RECEBER APOS 30 DIAS DO VENCIMENTO.                                                                                                                                                                                                         01042000000000000000104200000000000000       0090339900006270113691042016000150
100000000000000000000009033990000627000000000000000000000000010002020026858604201200000000002            2  01268586042008042000000002671480000000001N010420000000000000000000000000000000000000000000000000000000000000000100026858625879GLAUCE FERREIRA DE OLIVEIRA FALSI       RUA CATULO DA PAIXAO CEARENSE - 190 AP.1            04145010                                                            000152
2SR. CAIXA, APOS O VENCIMENTO COBRAR 2% DE MULTA                                 NAO RECEBER APOS 30 DIAS DO VENCIMENTO.                                                                                                                                                                                                         01042000000000000000104200000000000000       0090339900006270268586042012000153
100000000000000000000009033990000627000000000000000000000000010002020002253804201P00000000002            2  01022538042011042000000001700730000000001N010420000000000000000000000000000000000000000000000000000000000000000100002253816809EDMILSON ALVES DA SILVA                 ESTRADA SAO FRANCISCO - 2.008 AP.14 T.G             06764290                                                            000155
2SR. CAIXA, APOS O VENCIMENTO COBRAR 2% DE MULTA                                 NAO RECEBER APOS 30 DIAS DO VENCIMENTO.                                                                                                                                                                                                         01042000000000000000104200000000000000       009033990000627002253804201P000156
100000000000000000000009033990000627000000000000000000000000010002020037947004201100000000002            2  01379470042011042000000003020610000000001N010420000000000000000000000000000000000000000000000000000000000000000100037947070873BRUNO DE CAETANO MARRINHAS              RUA ADRIATICO - 151 AP.82 BLOCO 18 - JAR            09172180                                                            000158
2SR. CAIXA, APOS O VENCIMENTO COBRAR 2% DE MULTA                                 NAO RECEBER APOS 30 DIAS DO VENCIMENTO.                                                                                                                                                                                                         01042000000000000000104200000000000000       0090339900006270379470042011000159
100000000000000000000009033990000627000000000000000000000000010002020037517704201P00000000002            2  01375177042009042000000003187450000000001N010420000000000000000000000000000000000000000000000000000000000000000100037517785869RENATO JOSE DE LIMA MELO                RUA ARISTIDES LOBO - 148 AP.41 BLOCO 03             03041100                                                            000161
2SR. CAIXA, APOS O VENCIMENTO COBRAR 2% DE MULTA                                 NAO RECEBER APOS 30 DIAS DO VENCIMENTO.                                                                                                                                                                                                         01042000000000000000104200000000000000       009033990000627037517704201P000162
9                                                                                                                                                                                                                                                                                                                                                                                                         000163