01REMESSA01COBRANCA       00000000000008017025HB SANTOS CONSTRUTORA E INCORP237BRADESCO       010620        MX0000105                                                                                                                                                                                                                                                                                     000001
100000000000000000000009033990000627000000000000000000000000010002020029671506201000000000002            2  01296715062009062000000002708200000000001N010620000000000000000000000000000000000000000000000000000000000000000100029671526845ROGERIO CONSENTINO                      RUA CARLOS MAZER  - 678 - VILA CARMOSINA            08290700                                                            000002
2SR. CAIXA, APOS O VENCIMENTO COBRAR 2% DE MULTA                                 NAO RECEBER APOS 30 DIAS DO VENCIMENTO.                                                                                                                                                                                                         01062000000000000000106200000000000000       0090339900006270296715062010000003
100000000000000000000009033990000627000000000000000000000000010002020003863006201200000000002            2  01038630062009062000000002558110000000001N010620000000000000000000000000000000000000000000000000000000000000000100003863075803HERALDO MENQUINI                        RUA CARLOS JOSE BORSTENS - 50 AP.15 - AV            11702750                                                            000005
2SR. CAIXA, APOS O VENCIMENTO COBRAR 2% DE MULTA                                 NAO RECEBER APOS 30 DIAS DO VENCIMENTO.                                                                                                                                                                                                         01062000000000000000106200000000000000       0090339900006270038630062012000006
100000000000000000000009033990000627000000000000000000000000010002020029028406201P00000000002            2  01290284062009062000000002620540000000001N010620000000000000000000000000000000000000000000000000000000000000000100029028478825LEONARDO LOUZADA                        RUA CARLOS JOSE BORSTENS - 50 AP.35 - AV            11702750                                                            000008
2SR. CAIXA, APOS O VENCIMENTO COBRAR 2% DE MULTA                                 NAO RECEBER APOS 30 DIAS DO VENCIMENTO.                                                                                                                                                                                                         01062000000000000000106200000000000000       009033990000627029028406201P000009
100000000000000000000009033990000627000000000000000000000000010002020032878506201700000000002            2  01328785062009062000000003787200000000001N010620000000000000000000000000000000000000000000000000000000000000000100032878512847LEONARDO MOURA MONIZ CALDEIRA           RUA BALSA - 682 AP.134 T.02 - VILA ARCAD            02910000                                                            000011
2SR. CAIXA, APOS O VENCIMENTO COBRAR 2% DE MULTA                                 NAO RECEBER APOS 30 DIAS DO VENCIMENTO.                                                                                                                                                                                                         01062000000000000000106200000000000000       0090339900006270328785062017000012
100000000000000000000009033990000627000000000000000000000000010002020016479006201400000000002            2  01164790062009062000000004028910000000001N010620000000000000000000000000000000000000000000000000000000000000000100016479002806LOURDES PEREIRA DE QUEIROZ SECANECHIA   RUA PAULINO CURSI - 437 - CIDADE SAO MAT            03960060                                                            000014
2SR. CAIXA, APOS O VENCIMENTO COBRAR 2% DE MULTA                                 NAO RECEBER APOS 30 DIAS DO VENCIMENTO.                                                                                                                                                                                                         01062000000000000000106200000000000000       0090339900006270164790062014000015
100000000000000000000009033990000627000000000000000000000000010002020019635006201100000000002            2  01196350062009062000000002972630000000001N010620000000000000000000000000000000000000000000000000000000000000000100019635091885IVAN VIEIRA SILVA                       ABRAO JORGE - 3001 - JARDIM INTEGRACAO -            14405397                                                            000017
2SR. CAIXA, APOS O VENCIMENTO COBRAR 2% DE MULTA                                 NAO RECEBER APOS 30 DIAS DO VENCIMENTO.                                                                                                                                                                                                         01062000000000000000106200000000000000       0090339900006270196350062011000018
100000000000000000000009033990000627000000000000000000000000010002020009361406201100000000002            2  01093614062009062000000002924990000000001N010620000000000000000000000000000000000000000000000000000000000000000100009361471805JOSE BARBOSA DA SILVA                   RUA ALFREDO INACIO TRINDADE  - 60 AP.44             02344100                                                            000020
2SR. CAIXA, APOS O VENCIMENTO COBRAR 2% DE MULTA                                 NAO RECEBER APOS 30 DIAS DO VENCIMENTO.                                                                                                                                                                                                         01062000000000000000106200000000000000       0090339900006270093614062011000021
100000000000000000000009033990000627000000000000000000000000010002020012756906201500000000002            2  01127569062009062000000002524920000000001N010620000000000000000000000000000000000000000000000000000000000000000100012756959812ITAMAR JUVENAL DIAS DA SILVA            RUA ELISEU REINALDO MORAES VIEIRA - 90 A            02858000                                                            000023
2SR. CAIXA, APOS O VENCIMENTO COBRAR 2% DE MULTA                                 NAO RECEBER APOS 30 DIAS DO VENCIMENTO.                                                                                                                                                                                                         01062000000000000000106200000000000000       0090339900006270127569062015000024
100000000000000000000009033990000627000000000000000000000000010002020002731006201200000000002            2  01027310062009062000000002985130000000001N010620000000000000000000000000000000000000000000000000000000000000000100002731042842VALTER CERQUEIRA VILLA NOVA             RUA MACHADO - 106 - VILA AUGUSTA - GUARU            07025210                                                            000026
2SR. CAIXA, APOS O VENCIMENTO COBRAR 2% DE MULTA                                 NAO RECEBER APOS 30 DIAS DO VENCIMENTO.                                                                                                                                                                                                         01062000000000000000106200000000000000       0090339900006270027310062012000027
100000000000000000000009033990000627000000000000000000000000010002020002731006202000000000002            2  01027310062009062000000002985120000000001N010620000000000000000000000000000000000000000000000000000000000000000100002731042842VALTER CERQUEIRA VILLA NOVA             RUA MACHADO - 106 - VILA AUGUSTA - GUARU            07025210                                                            000029
2SR. CAIXA, APOS O VENCIMENTO COBRAR 2% DE MULTA                                 NAO RECEBER APOS 30 DIAS DO VENCIMENTO.                                                                                                                                                                                                         01062000000000000000106200000000000000       0090339900006270027310062020000030
100000000000000000000009033990000627000000000000000000000000010002020028802106201000000000002            2  01288021062009062000000002695500000000001N010620000000000000000000000000000000000000000000000000000000000000000100028802158894ELIEL HENRIQUE ZUZA                     RUA CARLOS JOSE BORSTENS - 50 AP.43 - BA            11702750                                                            000032
2SR. CAIXA, APOS O VENCIMENTO COBRAR 2% DE MULTA                                 NAO RECEBER APOS 30 DIAS DO VENCIMENTO.                                                                                                                                                                                                         01062000000000000000106200000000000000       0090339900006270288021062010000033
100000000000000000000009033990000627000000000000000000000000010002020008739106201400000000002            2  01087391062009062000000002520990000000001N010620000000000000000000000000000000000000000000000000000000000000000100008739150895VANGEVALDO BATISTA SANT ANNA            TRAVESSA TOMAZIN - 02 - ERMELINO MATARAZ            03811125                                                            000035
2SR. CAIXA, APOS O VENCIMENTO COBRAR 2% DE MULTA                                 NAO RECEBER APOS 30 DIAS DO VENCIMENTO.                                                                                                                                                                                                         01062000000000000000106200000000000000       0090339900006270087391062014000036
100000000000000000000009033990000627000000000000000000000000010002020005313706201000000000002            2  01053137062011062000000002178880000000001N010620000000000000000000000000000000000000000000000000000000000000000100005313717863EDIMICIO JOSE DE ARAUJO                 PRACA NICOLAU GERAIGIRE - 680 CA A - JAR            11095110                                                            000038
2SR. CAIXA, APOS O VENCIMENTO COBRAR 2% DE MULTA                                 NAO RECEBER APOS 30 DIAS DO VENCIMENTO.                                                                                                                                                                                                         01062000000000000000106200000000000000       0090339900006270053137062010000039
100000000000000000000009033990000627000000000000000000000000010002020029433606201900000000002            2  01294336062011062000000002093160000000001N010620000000000000000000000000000000000000000000000000000000000000000100029433631897MARIO MUNIZ                             RUA JOSE CALIXTO DO CARMO - 286 AP.53 -             11702690                                                            000041
2SR. CAIXA, APOS O VENCIMENTO COBRAR 2% DE MULTA                                 NAO RECEBER APOS 30 DIAS DO VENCIMENTO.                                                                                                                                                                                                         01062000000000000000106200000000000000       0090339900006270294336062019000042
100000000000000000000009033990000627000000000000000000000000010002020001847206201700000000002            2  01018472062011062000000001927000000000001N010620000000000000000000000000000000000000000000000000000000000000000100001847204864AMERICA CONCEICAO DA SILVA              RUA JOSE CALIXTO DO CARMO - 286 AP.44 -             11702690                                                            000044
2SR. CAIXA, APOS O VENCIMENTO COBRAR 2% DE MULTA                                 NAO RECEBER APOS 30 DIAS DO VENCIMENTO.                                                                                                                                                                                                         01062000000000000000106200000000000000       0090339900006270018472062017000045
100000000000000000000009033990000627000000000000000000000000010002020005029806201100000000002            2  01050298062009062000000002574300000000001N010620000000000000000000000000000000000000000000000000000000000000000100005029828885LAURINETE DA CONCEICAO DE NORONHA       RUA MARIA LUCIA DE TOLEDO LEITE MORAES -            04434040                                                            000047
2SR. CAIXA, APOS O VENCIMENTO COBRAR 2% DE MULTA                                 NAO RECEBER APOS 30 DIAS DO VENCIMENTO.                                                                                                                                                                                                         01062000000000000000106200000000000000       0090339900006270050298062011000048
100000000000000000000009033990000627000000000000000000000000010002020013388906201300000000002            2  01133889062011062000000002040500000000001N010620000000000000000000000000000000000000000000000000000000000000000100013388936889NEUTON DE SOUZA RAMOS                   RUA MARIA CRISTINA - 932 - JARDIM CASQUE            11533160                                                            000050
2SR. CAIXA, APOS O VENCIMENTO COBRAR 2% DE MULTA                                 NAO RECEBER APOS 30 DIAS DO VENCIMENTO.                                                                                                                                                                                                         01062000000000000000106200000000000000       0090339900006270133889062013000051
100000000000000000000009033990000627000000000000000000000000010002020012774906201300000000002            2  01127749062011062000000002078830000000001N010620000000000000000000000000000000000000000000000000000000000000000100012774906865JOSE MILTON SANTIAGO                    RUA BATATAIS - 47 - CIDADE ESTELA - POA             08563140                                                            000053
2SR. CAIXA, APOS O VENCIMENTO COBRAR 2% DE MULTA                                 NAO RECEBER APOS 30 DIAS DO VENCIMENTO.                                                                                                                                                                                                         01062000000000000000106200000000000000       0090339900006270127749062013000054
100000000000000000000009033990000627000000000000000000000000010002020016294106201900000000002            2  01162941062009062000000002555830000000001N010620000000000000000000000000000000000000000000000000000000000000000100016294119812JURACY FELIX DE ARRUDA                  RUA CARLOS JOSE BORSTENS - 50 AP.23 - AV            11702750                                                            000056
2SR. CAIXA, APOS O VENCIMENTO COBRAR 2% DE MULTA                                 NAO RECEBER APOS 30 DIAS DO VENCIMENTO.                                                                                                                                                                                                         01062000000000000000106200000000000000       0090339900006270162941062019000057
100000000000000000000009033990000627000000000000000000000000010002020005613806201300000000002            2  01056138062011062000000001911940000000001N010620000000000000000000000000000000000000000000000000000000000000000100005613843805NILZA MARIA DE OLIVEIRA                 RUA JOSE GONCALVES DE FREITAS - 66 C2 -             08210550                                                            000059
2SR. CAIXA, APOS O VENCIMENTO COBRAR 2% DE MULTA                                 NAO RECEBER APOS 30 DIAS DO VENCIMENTO.                                                                                                                                                                                                         01062000000000000000106200000000000000       0090339900006270056138062013000060
100000000000000000000009033990000627000000000000000000000000010002020007574906201300000000002            2  01075749062011062000000001962560000000001N010620000000000000000000000000000000000000000000000000000000000000000100007574936889JORGE LUCIANO PEREIRA BORRIELLO         RUA JOSE CALIXTO DO CARMO - 286 AP.54 -             11702690                                                            000062
2SR. CAIXA, APOS O VENCIMENTO COBRAR 2% DE MULTA                                 NAO RECEBER APOS 30 DIAS DO VENCIMENTO.                                                                                                                                                                                                         01062000000000000000106200000000000000       0090339900006270075749062013000063
100000000000000000000009033990000627000000000000000000000000010002020008214906201600000000002            2  01082149062011062000000001992340000000001N010620000000000000000000000000000000000000000000000000000000000000000100008214973830JAMIL CHALA                             RUA JOSE CALIXTO DO CARMO - 286 AP.22 -             11702690                                                            000065
2SR. CAIXA, APOS O VENCIMENTO COBRAR 2% DE MULTA                                 NAO RECEBER APOS 30 DIAS DO VENCIMENTO.                                                                                                                                                                                                         01062000000000000000106200000000000000       0090339900006270082149062016000066
100000000000000000000009033990000627000000000000000000000000010002020032495006201300000000002            2  01324950062011062000000002232670000000001N010620000000000000000000000000000000000000000000000000000000000000000100032495004881PAULO EDUARDO DOS SANTOS                RUA REPUBLICA DO IRAQUE - 1119 - CAMPO B            04611002                                                            000068
2SR. CAIXA, APOS O VENCIMENTO COBRAR 2% DE MULTA                                 NAO RECEBER APOS 30 DIAS DO VENCIMENTO.                                                                                                                                                                                                         01062000000000000000106200000000000000       0090339900006270324950062013000069
100000000000000000000009033990000627000000000000000000000000010002020006471806201300000000002            2  01064718062009062000000002516270000000001N010620000000000000000000000000000000000000000000000000000000000000000100006471825803JOSIVALDO BASTOS DE OLIVEIRA            RUA MARIA DIAS HOG - 263 - PARQUE CONTIN            07085035                                                            000071
2SR. CAIXA, APOS O VENCIMENTO COBRAR 2% DE MULTA                                 NAO RECEBER APOS 30 DIAS DO VENCIMENTO.                                                                                                                                                                                                         01062000000000000000106200000000000000       0090339900006270064718062013000072
100000000000000000000009033990000627000000000000000000000000010002020016498006201000000000002            2  01164980062011062000000001958110000000001N010620000000000000000000000000000000000000000000000000000000000000000100016498053810GILMA CEZARIO GARCIA CORRITORI          RUA LAURENTINO XAVIER DOS SANTOS - 336 -            08240740                                                            000074
2SR. CAIXA, APOS O VENCIMENTO COBRAR 2% DE MULTA                                 NAO RECEBER APOS 30 DIAS DO VENCIMENTO.                                                                                                                                                                                                         01062000000000000000106200000000000000       0090339900006270164980062010000075
100000000000000000000009033990000627000000000000000000000000010002020029339006201P00000000002            2  01293390062011062000000002093860000000001N010620000000000000000000000000000000000000000000000000000000000000000100029339051831RONALD DIDOFF                           RUA CORONEL FERREIRA BRAGA - 188 - VILA             03522010                                                            000077
2SR. CAIXA, APOS O VENCIMENTO COBRAR 2% DE MULTA                                 NAO RECEBER APOS 30 DIAS DO VENCIMENTO.                                                                                                                                                                                                         01062000000000000000106200000000000000       009033990000627029339006201P000078
100000000000000000000009033990000627000000000000000000000000010002020017357806201100000000002            2  01173578062011062000000002217580000000001N010620000000000000000000000000000000000000000000000000000000000000000100017357859894MARCIO GUIMARAES                        RUA GENERAL CAMARA - 188 SALA 11 - CENTR            11010120                                                            000080
2SR. CAIXA, APOS O VENCIMENTO COBRAR 2% DE MULTA                                 NAO RECEBER APOS 30 DIAS DO VENCIMENTO.                                                                                                                                                                                                         01062000000000000000106200000000000000       0090339900006270173578062011000081
100000000000000000000009033990000627000000000000000000000000010002020010563006201100000000002            2  01105630062011062000000002274260000000001N010620000000000000000000000000000000000000000000000000000000000000000100010563033878VERA LUCIA RIBEIRO LONGANEZI            RUA DOS CAMARES - 150 AP.24 BL.02 - CARA            02068030                                                            000083
2SR. CAIXA, APOS O VENCIMENTO COBRAR 2% DE MULTA                                 NAO RECEBER APOS 30 DIAS DO VENCIMENTO.                                                                                                                                                                                                         01062000000000000000106200000000000000       0090339900006270105630062011000084
100000000000000000000009033990000627000000000000000000000000010002020005529606201600000000002            2  01055296062011062000000002063810000000001N010620000000000000000000000000000000000000000000000000000000000000000100005529616801JOAQUIM JORGE DA COSTA                  RUA JOSE CALIXTO DO CARMO - 286 AP.106 -            11702690                                                            000086
2SR. CAIXA, APOS O VENCIMENTO COBRAR 2% DE MULTA                                 NAO RECEBER APOS 30 DIAS DO VENCIMENTO.                                                                                                                                                                                                         01062000000000000000106200000000000000       0090339900006270055296062016000087
100000000000000000000009033990000627000000000000000000000000010002020022014106201000000000002            2  01220141062011062000000002057800000000001N010620000000000000000000000000000000000000000000000000000000000000000100022014140847CAMILA SILVEIRA CANIZARES               AVENIDA PRESIDENTE CASTELO BRANCO - 5.74            11703650                                                            000089
2SR. CAIXA, APOS O VENCIMENTO COBRAR 2% DE MULTA                                 NAO RECEBER APOS 30 DIAS DO VENCIMENTO.                                                                                                                                                                                                         01062000000000000000106200000000000000       0090339900006270220141062010000090
100000000000000000000009033990000627000000000000000000000000010002020015550706201200000000002            2  01155507062009062000000001951310000000001N010620000000000000000000000000000000000000000000000000000000000000000100015550706806MARY MIWA                               RUA CARLOS JOSE BORSTENS - 50 AP.105 - A            11702750                                                            000092
2SR. CAIXA, APOS O VENCIMENTO COBRAR 2% DE MULTA                                 NAO RECEBER APOS 30 DIAS DO VENCIMENTO.                                                                                                                                                                                                         01062000000000000000106200000000000000       0090339900006270155507062012000093
100000000000000000000009033990000627000000000000000000000000010002020015464606201200000000002            2  01154646062011062000000002169560000000001N010620000000000000000000000000000000000000000000000000000000000000000100015464647864SONIA TERESA VOLPATO                    RUA JOSE CALIXTO DO CARMO - 286 AP.73 -             11702690                                                            000095
2SR. CAIXA, APOS O VENCIMENTO COBRAR 2% DE MULTA                                 NAO RECEBER APOS 30 DIAS DO VENCIMENTO.                                                                                                                                                                                                         01062000000000000000106200000000000000       0090339900006270154646062012000096
100000000000000000000009033990000627000000000000000000000000010002020008657806201100000000002            2  01086578062011062000000002147780000000001N010620000000000000000000000000000000000000000000000000000000000000000100008657886855ARLINDO DA CRUZ                         AVENIDA ARICANDUVA - 8.256 AP.54 BL.10 -            03951220                                                            000098
2SR. CAIXA, APOS O VENCIMENTO COBRAR 2% DE MULTA                                 NAO RECEBER APOS 30 DIAS DO VENCIMENTO.                                                                                                                                                                                                         01062000000000000000106200000000000000       0090339900006270086578062011000099
100000000000000000000009033990000627000000000000000000000000010002020004265706201100000000002            2  01042657062009062000000002875200000000001N010620000000000000000000000000000000000000000000000000000000000000000100004265781713ALEXANDRE CASADO COSTA                  RUA CARLOS JOSE BORSTENS - 50 AP.33 - AV            11702750                                                            000101
2SR. CAIXA, APOS O VENCIMENTO COBRAR 2% DE MULTA                                 NAO RECEBER APOS 30 DIAS DO VENCIMENTO.                                                                                                                                                                                                         01062000000000000000106200000000000000       0090339900006270042657062011000102
100000000000000000000009033990000627000000000000000000000000010002020059735106201P00000000002            2  01597351062009062000000001214420000000001N010620000000000000000000000000000000000000000000000000000000000000000100059735180863HELIO JOSE MARQUES                      RUA MARTIM AFONSO DE SOUZA - 1007 AP.102            11702790                                                            000104
2SR. CAIXA, APOS O VENCIMENTO COBRAR 2% DE MULTA                                 NAO RECEBER APOS 30 DIAS DO VENCIMENTO.                                                                                                                                                                                                         01062000000000000000106200000000000000       009033990000627059735106201P000105
100000000000000000000009033990000627000000000000000000000000010002020026347806201300000000002            2  01263478062011062000000002295920000000001N010620000000000000000000000000000000000000000000000000000000000000000100026347872862VALDECI SILVA MEIRELES                  RUA JOSE BATISTA DA SILVA - 292 - JARDIM            06851470                                                            000107
2SR. CAIXA, APOS O VENCIMENTO COBRAR 2% DE MULTA                                 NAO RECEBER APOS 30 DIAS DO VENCIMENTO.                                                                                                                                                                                                         01062000000000000000106200000000000000       0090339900006270263478062013000108
100000000000000000000009033990000627000000000000000000000000010002020025443606201400000000002            2  01254436062009062000000004159150000000001N010620000000000000000000000000000000000000000000000000000000000000000100025443691830SILVANETE PEREIRA CARNELOS              RUA CARLOS JOSE BORSTENS - 50 AP.102 - A            11702750                                                            000110
2SR. CAIXA, APOS O VENCIMENTO COBRAR 2% DE MULTA                                 NAO RECEBER APOS 30 DIAS DO VENCIMENTO.                                                                                                                                                                                                         01062000000000000000106200000000000000       0090339900006270254436062014000111
100000000000000000000009033990000627000000000000000000000000010002020013135206201400000000002            2  01131352062011062000000002109380000000001N010620000000000000000000000000000000000000000000000000000000000000000100013135261859EDUARDO ZANOLA                          RUA ROLANDO PIETRO BONINI - 46 - JARDIM             09781040                                                            000113
2SR. CAIXA, APOS O VENCIMENTO COBRAR 2% DE MULTA                                 NAO RECEBER APOS 30 DIAS DO VENCIMENTO.                                                                                                                                                                                                         01062000000000000000106200000000000000       0090339900006270131352062014000114
100000000000000000000009033990000627000000000000000000000000010002020009797606201500000000002            2  01097976062011062000000002054320000000001N010620000000000000000000000000000000000000000000000000000000000000000100009797626857RICARDO SOBRAL DE OLIVEIRA              RUA 23 DE MAIO - 139 AP.32 - VILA MIRIM             11704690                                                            000116
2SR. CAIXA, APOS O VENCIMENTO COBRAR 2% DE MULTA                                 NAO RECEBER APOS 30 DIAS DO VENCIMENTO.                                                                                                                                                                                                         01062000000000000000106200000000000000       0090339900006270097976062015000117
100000000000000000000009033990000627000000000000000000000000010002020004767606201600000000002            2  01047676062009062000000003512840000000001N010620000000000000000000000000000000000000000000000000000000000000000100004767679893ORLANDO GRANDE FILHO                    RUA ORLANDO MIGLIARI - 101 - JARDIM OURO            19906140                                                            000119
2SR. CAIXA, APOS O VENCIMENTO COBRAR 2% DE MULTA                                 NAO RECEBER APOS 30 DIAS DO VENCIMENTO.                                                                                                                                                                                                         01062000000000000000106200000000000000       0090339900006270047676062016000120
100000000000000000000009033990000627000000000000000000000000010002020006512506201300000000002            2  01065125062011062000000001847950000000001N010620000000000000000000000000000000000000000000000000000000000000000100006512547870MARIA DO CARMO FAGUNDES DOS REIS        RUA CARLOS MALCHER - 98 - PARQUE EDU CHA            02232020                                                            000122
2SR. CAIXA, APOS O VENCIMENTO COBRAR 2% DE MULTA                                 NAO RECEBER APOS 30 DIAS DO VENCIMENTO.                                                                                                                                                                                                         01062000000000000000106200000000000000       0090339900006270065125062013000123
100000000000000000000009033990000627000000000000000000000000010002020022728406201600000000002            2  01227284062011062000000002222890000000001N010620000000000000000000000000000000000000000000000000000000000000000100022728497842WILLIAN DE SOUZA MELLO                  RUA JOSE CALIXTO DO CARMO - 286 AP.111 -            11702690                                                            000125
2SR. CAIXA, APOS O VENCIMENTO COBRAR 2% DE MULTA                                 NAO RECEBER APOS 30 DIAS DO VENCIMENTO.                                                                                                                                                                                                         01062000000000000000106200000000000000       0090339900006270227284062016000126
100000000000000000000009033990000627000000000000000000000000010002020016909706201000000000002            2  01169097062011062000000001964350000000001N010620000000000000000000000000000000000000000000000000000000000000000100016909746805EDIVALDO SANTANA DOS SANTOS             ESTRADA JOAO GASPAR DELGADO - 80 AP.213             08536100                                                            000128
2SR. CAIXA, APOS O VENCIMENTO COBRAR 2% DE MULTA                                 NAO RECEBER APOS 30 DIAS DO VENCIMENTO.                                                                                                                                                                                                         01062000000000000000106200000000000000       0090339900006270169097062010000129
100000000000000000000009033990000627000000000000000000000000010002020022036006201800000000002            2  01220360062009062000000003050420000000001N010620000000000000000000000000000000000000000000000000000000000000000100022036003818DERLIS TERAN QUIROGA ROGATO             RUA JOAO RIBEIRO - 709 AP.61 - CAMPESTRE            09070250                                                            000131
2SR. CAIXA, APOS O VENCIMENTO COBRAR 2% DE MULTA                                 NAO RECEBER APOS 30 DIAS DO VENCIMENTO.                                                                                                                                                                                                         01062000000000000000106200000000000000       0090339900006270220360062018000132
100000000000000000000009033990000627000000000000000000000000010002020017229706202400000000002            2  01172297062009062000000002943930000000001N010620000000000000000000000000000000000000000000000000000000000000000100017229751802BERENICE VIEIRA KERSTING                RUA ATIBAIA - 17 AP.417 - BAIRRO IMPERAD            11707380                                                            000134
2SR. CAIXA, APOS O VENCIMENTO COBRAR 2% DE MULTA                                 NAO RECEBER APOS 30 DIAS DO VENCIMENTO.                                                                                                                                                                                                         01062000000000000000106200000000000000       0090339900006270172297062024000135
100000000000000000000009033990000627000000000000000000000000010002020012475606201100000000002            2  01124756062011062000000002129240000000001N010620000000000000000000000000000000000000000000000000000000000000000100012475663820CELIDALVA GOES DE CARVALHO              RUA AURELIO BELOTTI JUNIOR - 28 - JARDIM            05759210                                                            000137
2SR. CAIXA, APOS O VENCIMENTO COBRAR 2% DE MULTA                                 NAO RECEBER APOS 30 DIAS DO VENCIMENTO.                                                                                                                                                                                                         01062000000000000000106200000000000000       0090339900006270124756062011000138
100000000000000000000009033990000627000000000000000000000000010002020095758206201900000000002            2  01957582062011062000000002162340000000001N010620000000000000000000000000000000000000000000000000000000000000000100095758275891SHIRLEY TUNES ASTOLFI                   RUA GUAPERUVU - 656 AP.84 - VILA ARICAND            03504010                                                            000140
2SR. CAIXA, APOS O VENCIMENTO COBRAR 2% DE MULTA                                 NAO RECEBER APOS 30 DIAS DO VENCIMENTO.                                                                                                                                                                                                         01062000000000000000106200000000000000       0090339900006270957582062019000141
100000000000000000000009033990000627000000000000000000000000010002020045839206201600000000002            2  01458392062011062000000001380080000000001N010620000000000000000000000000000000000000000000000000000000000000000100045839263834LEONARDO ANTONIO CONCELLIERI            RUA JOSE CALIXTO DO CARMO - 286 AP.51 -             11702690                                                            000143
2SR. CAIXA, APOS O VENCIMENTO COBRAR 2% DE MULTA                                 NAO RECEBER APOS 30 DIAS DO VENCIMENTO.                                                                                                                                                                                                         01062000000000000000106200000000000000       0090339900006270458392062016000144
100000000000000000000009033990000627000000000000000000000000010002020011369106201700000000002            2  01113691062011062000000001942300000000001N010620000000000000000000000000000000000000000000000000000000000000000100011369165803ELIANA CORREA DE OLIVEIRA               AVENIDA ELIAS MALUF - 2695 CASA 419 - WA            18055215                                                            000146
2SR. CAIXA, APOS O VENCIMENTO COBRAR 2% DE MULTA                                 NAO RECEBER APOS 30 DIAS DO VENCIMENTO.                                                                                                                                                                                                         01062000000000000000106200000000000000       0090339900006270113691062017000147
100000000000000000000009033990000627000000000000000000000000010002020026858606201300000000002            2  01268586062008062000000002684840000000001N010620000000000000000000000000000000000000000000000000000000000000000100026858625879GLAUCE FERREIRA DE OLIVEIRA FALSI       RUA CATULO DA PAIXAO CEARENSE - 190 AP.1            04145010                                                            000149
2SR. CAIXA, APOS O VENCIMENTO COBRAR 2% DE MULTA                                 NAO RECEBER APOS 30 DIAS DO VENCIMENTO.                                                                                                                                                                                                         01062000000000000000106200000000000000       0090339900006270268586062013000150
100000000000000000000009033990000627000000000000000000000000010002020002253806201000000000002            2  01022538062011062000000001726340000000001N010620000000000000000000000000000000000000000000000000000000000000000100002253816809EDMILSON ALVES DA SILVA                 RUA JOSE CALIXTO DO CARMO - 286 AP.93 -             11702690                                                            000152
2SR. CAIXA, APOS O VENCIMENTO COBRAR 2% DE MULTA                                 NAO RECEBER APOS 30 DIAS DO VENCIMENTO.                                                                                                                                                                                                         01062000000000000000106200000000000000       0090339900006270022538062010000153
100000000000000000000009033990000627000000000000000000000000010002020037947006201200000000002            2  01379470062011062000000003066080000000001N010620000000000000000000000000000000000000000000000000000000000000000100037947070873BRUNO DE CAETANO MARRINHAS              RUA ADRIATICO - 151 AP.82 BLOCO 18 - JAR            09172180                                                            000155
2SR. CAIXA, APOS O VENCIMENTO COBRAR 2% DE MULTA                                 NAO RECEBER APOS 30 DIAS DO VENCIMENTO.                                                                                                                                                                                                         01062000000000000000106200000000000000       0090339900006270379470062012000156
100000000000000000000009033990000627000000000000000000000000010002020037517706201000000000002            2  01375177062009062000000003235450000000001N010620000000000000000000000000000000000000000000000000000000000000000100037517785869RENATO JOSE DE LIMA MELO                RUA ARISTIDES LOBO - 148 AP.41 BLOCO 03             03041100                                                            000158
2SR. CAIXA, APOS O VENCIMENTO COBRAR 2% DE MULTA                                 NAO RECEBER APOS 30 DIAS DO VENCIMENTO.                                                                                                                                                                                                         01062000000000000000106200000000000000       0090339900006270375177062010000159
100000000000000000000009033990000627000000000000000000000000010002020070367906201100000000002            2  01703679062011062000000001621130000000001N010620000000000000000000000000000000000000000000000000000000000000000100070367949849TEODOMIRO ALVES DOS SANTOS              RUA ANDRE PAZ - 13 - JARDIM SANTO ANDRE             08390230                                                            000161
2SR. CAIXA, APOS O VENCIMENTO COBRAR 2% DE MULTA                                 NAO RECEBER APOS 30 DIAS DO VENCIMENTO.                                                                                                                                                                                                         01062000000000000000106200000000000000       0090339900006270703679062011000162
9                                                                                                                                                                                                                                                                                                                                                                                                         000163