01REMESSA01COBRANCA       00000000000005331186HB SANTOS CONSTRUTORA E INCORP237BRADESCO       010621        MX0000025                                                                                                                                                                                                                                                                                     000001
100000000000000000000009033990000995400000000000000000000000010002020026858606211000000000002            2  01268586062108062100000002684840000000001N010621000000000000000000000000000000000000000000000000000000000000000100026858625879GLAUCE FERREIRA DE OLIVEIRA FALSI       RUA LOURENCO ANTONIO BRAGANCA - 116 - JA            04403160                                                            000002
2SR. CAIXA, APOS O VENCIMENTO COBRAR 2% DE MULTA                                 NAO RECEBER APOS 30 DIAS DO VENCIMENTO.                                                                                                                                                                                                         01062100000000000000106210000000000000       0090339900009954268586062110000003
100000000000000000000009033990000995400000000000000000000000010002020016960806211100000000002            2  01169608062108062100000002563570000000001N010621000000000000000000000000000000000000000000000000000000000000000100016960804876LUIZ ALVES DE SOUZA JUNIOR              RUA FRANCISCO ALVES - 394 CASA B - PAECA            11450320                                                            000005
2SR. CAIXA, APOS O VENCIMENTO COBRAR 2% DE MULTA                                 NAO RECEBER APOS 30 DIAS DO VENCIMENTO.                                                                                                                                                                                                         01062100000000000000106210000000000000       0090339900009954169608062111000006
100000000000000000000009033990000995400000000000000000000000010002020008899306211900000000002            2  01088993062108062100000002546900000000001N010621000000000000000000000000000000000000000000000000000000000000000100008899362858ELAINE D ALMEIDA FERDINANDY             ALAMEDA SUBTENENTE AVIADOR FRANCISCO HIE            02187040                                                            000008
2SR. CAIXA, APOS O VENCIMENTO COBRAR 2% DE MULTA                                 NAO RECEBER APOS 30 DIAS DO VENCIMENTO.                                                                                                                                                                                                         01062100000000000000106210000000000000       0090339900009954088993062119000009
100000000000000000000009033990000995400000000000000000000000010002020029425006211300000000002            2  01294250062108062100000002553280000000001N010621000000000000000000000000000000000000000000000000000000000000000100029425027897FABIA DOS SANTOS DE ANDRADE             AVENIDA ALCIDES CANDIDO DOS SANTOS - 248            11705480                                                            000011
2SR. CAIXA, APOS O VENCIMENTO COBRAR 2% DE MULTA                                 NAO RECEBER APOS 30 DIAS DO VENCIMENTO.                                                                                                                                                                                                         01062100000000000000106210000000000000       0090339900009954294250062113000012
100000000000000000000009033990000995400000000000000000000000010002020078382706211900000000002            2  01783827062108062100000002580230000000001N010621000000000000000000000000000000000000000000000000000000000000000100078382700497JARMELINA BARBOSA DA SILVA              RUA OSCAR CINTRA GORDINHO - 211 AP.51 -             01512010                                                            000014
2SR. CAIXA, APOS O VENCIMENTO COBRAR 2% DE MULTA                                 NAO RECEBER APOS 30 DIAS DO VENCIMENTO.                                                                                                                                                                                                         01062100000000000000106210000000000000       0090339900009954783827062119000015
100000000000000000000009033990000995400000000000000000000000010002020007535306211800000000002            2  01075353062108062100000002530230000000001N010621000000000000000000000000000000000000000000000000000000000000000100007535375839AINAILDE PEREIRA DE CASTRO OLIVETTO     TRAVESSA DORALINA ELIETE ADAO DA SILVA -            08021026                                                            000017
2SR. CAIXA, APOS O VENCIMENTO COBRAR 2% DE MULTA                                 NAO RECEBER APOS 30 DIAS DO VENCIMENTO.                                                                                                                                                                                                         01062100000000000000106210000000000000       0090339900009954075353062118000018
100000000000000000000009033990000995400000000000000000000000010002020017229706211300000000002            2  01172297062108062100000002680230000000001N010621000000000000000000000000000000000000000000000000000000000000000100017229751802BERENICE VIEIRA KERSTING                RUA ATIBAIA - 17 AP.417 - BAIRRO IMPERAD            11707380                                                            000020
2SR. CAIXA, APOS O VENCIMENTO COBRAR 2% DE MULTA                                 NAO RECEBER APOS 30 DIAS DO VENCIMENTO.                                                                                                                                                                                                         01062100000000000000106210000000000000       0090339900009954172297062113000021
100000000000000000000009033990000995400000000000000000000000010002020028974206211500000000002            2  01289742062108062100000002503280000000001N010621000000000000000000000000000000000000000000000000000000000000000100028974233827MARISTELA FAVANI DE OLIVEIRA            RUA GIUSEPPE CARNEVALLI - 96 - BAIRRO BO            09572100                                                            000023
2SR. CAIXA, APOS O VENCIMENTO COBRAR 2% DE MULTA                                 NAO RECEBER APOS 30 DIAS DO VENCIMENTO.                                                                                                                                                                                                         01062100000000000000106210000000000000       0090339900009954289742062115000024
100000000000000000000009033990000995400000000000000000000000010002020092184806211200000000002            2  01921848062108062100000002469950000000001N010621000000000000000000000000000000000000000000000000000000000000000100092184804800CARMEM DO SOCORRO GUILHERME             ESTRADA SAO FRANCISCO - 1.850 AP.182A -             06765000                                                            000026
2SR. CAIXA, APOS O VENCIMENTO COBRAR 2% DE MULTA                                 NAO RECEBER APOS 30 DIAS DO VENCIMENTO.                                                                                                                                                                                                         01062100000000000000106210000000000000       0090339900009954921848062112000027
100000000000000000000009033990000995400000000000000000000000010002020092184806212000000000002            2  01921848062108062100000002469940000000001N010621000000000000000000000000000000000000000000000000000000000000000100092184804800CARMEM DO SOCORRO GUILHERME             ESTRADA SAO FRANCISCO - 1.850 AP.182A -             06765000                                                            000029
2SR. CAIXA, APOS O VENCIMENTO COBRAR 2% DE MULTA                                 NAO RECEBER APOS 30 DIAS DO VENCIMENTO.                                                                                                                                                                                                         01062100000000000000106210000000000000       0090339900009954921848062120000030
100000000000000000000009033990000995400000000000000000000000010002020009169706211200000000002            2  01091697062108062100000001980920000000001N010621000000000000000000000000000000000000000000000000000000000000000100009169701830TADEU CONSTANTINO LOPES                 RUA JOSE ANTONIO COELHO - 349 CASA 01 -             04011061                                                            000032
2SR. CAIXA, APOS O VENCIMENTO COBRAR 2% DE MULTA                                 NAO RECEBER APOS 30 DIAS DO VENCIMENTO.                                                                                                                                                                                                         01062100000000000000106210000000000000       0090339900009954091697062112000033
100000000000000000000009033990000995400000000000000000000000010002020042480106211000000000002            2  01424801062108062100000002519950000000001N010621000000000000000000000000000000000000000000000000000000000000000100042480155870JAMITRE SOIOMARA ALVES DO NASCIMENTO DAVRUA SERTANISTA GILBERTO PINTO FRANCISCO             11703440                                                            000035
2SR. CAIXA, APOS O VENCIMENTO COBRAR 2% DE MULTA                                 NAO RECEBER APOS 30 DIAS DO VENCIMENTO.                                                                                                                                                                                                         01062100000000000000106210000000000000       0090339900009954424801062110000036
100000000000000000000009033990000995400000000000000000000000010002020004611206211700000000002            2  01046112062108062100000002466260000000001N010621000000000000000000000000000000000000000000000000000000000000000100004611218830TANIA MARIA DA SILVA NUNES PEREIRA LUIZ RODOVIA RAPOSO TAVARES, 7389 KM 17,5 - A            05576200                                                            000038
2SR. CAIXA, APOS O VENCIMENTO COBRAR 2% DE MULTA                                 NAO RECEBER APOS 30 DIAS DO VENCIMENTO.                                                                                                                                                                                                         01062100000000000000106210000000000000       0090339900009954046112062117000039
100000000000000000000009033990000995400000000000000000000000010002020008966506211600000000002            2  01089665062108062100000002380920000000001N010621000000000000000000000000000000000000000000000000000000000000000100008966511856MONICA SILVA REIS                       RUA ORATORIO - 264 E FUNDOS - BANGU - SA            09280550                                                            000041
2SR. CAIXA, APOS O VENCIMENTO COBRAR 2% DE MULTA                                 NAO RECEBER APOS 30 DIAS DO VENCIMENTO.                                                                                                                                                                                                         01062100000000000000106210000000000000       0090339900009954089665062116000042
100000000000000000000009033990000995400000000000000000000000010002020036898606211400000000002            2  01368986062108062100000002397590000000001N010621000000000000000000000000000000000000000000000000000000000000000100036898609890GABRIEL FRANCHESCHI PALVO               SGAN 911,MODULO F, BLOCO A, GREEN PARK -            70790110                                                            000044
2SR. CAIXA, APOS O VENCIMENTO COBRAR 2% DE MULTA                                 NAO RECEBER APOS 30 DIAS DO VENCIMENTO.                                                                                                                                                                                                         01062100000000000000106210000000000000       0090339900009954368986062114000045
100000000000000000000009033990000995400000000000000000000000010002020001356906211700000000002            2  01013569062108062100000002557450000000001N010621000000000000000000000000000000000000000000000000000000000000000100001356993800DALVA MARIA DOS SANTOS                  RUA SOLDADO CESARIO AGUIAR - 30 - VILA G            07070050                                                            000047
2SR. CAIXA, APOS O VENCIMENTO COBRAR 2% DE MULTA                                 NAO RECEBER APOS 30 DIAS DO VENCIMENTO.                                                                                                                                                                                                         01062100000000000000106210000000000000       0090339900009954013569062117000048
100000000000000000000009033990000995400000000000000000000000010002020024615506211P00000000002            2  01246155062108062100000002916670000000001N010621000000000000000000000000000000000000000000000000000000000000000100024615557884GILBERTO JOSE GONSALES                  RUA DOS GOYTACAZES - 447 AP.206 BL.2 - C            28013266                                                            000050
2SR. CAIXA, APOS O VENCIMENTO COBRAR 2% DE MULTA                                 NAO RECEBER APOS 30 DIAS DO VENCIMENTO.                                                                                                                                                                                                         01062100000000000000106210000000000000       009033990000995424615506211P000051
9                                                                                                                                                                                                                                                                                                                                                                                                         000052