01REMESSA01COBRANCA       00000000000004991781AIRES CONSTRUTORA E INCORPORAD237BRADESCO       121119        MX0000132                                                                                                                                                                                                                                                                                     000001
100000000000000000000009077090006612500000000000000000000000010002100001224511191700000000002            2  01012245111925111900000003701120000000001N111119000000000000000000000000000000000000000000000000000000000000000100001224509579REINALDO JUNIOR MARTINS DE ABREU        AVENIDA INTERLAGOS - 7.224 - INTERLAGOS             04777000                                                            000002
2SR. CAIXA, APOS O VENCIMENTO COBRAR 10% DE MULTA                                NAO RECEBER APOS 30 DIAS DO VENCIMENTO.                                                                                                                                                                                                         12111900000000000001211190000000000000       0090770900066125012245111917000003
100000000000000000000009077090006612500000000000000000000000010002100016338911191P00000000002            2  01163389111925111900000003651830000000001N111119000000000000000000000000000000000000000000000000000000000000000100016338929806EDVALDO DA SILVA ANDRADE                RUA ARIA - 434 - PARQUE ALVES DE LIMA -             04902170                                                            000005
2SR. CAIXA, APOS O VENCIMENTO COBRAR 10% DE MULTA                                NAO RECEBER APOS 30 DIAS DO VENCIMENTO.                                                                                                                                                                                                         12111900000000000001211190000000000000       009077090006612516338911191P000006
100000000000000000000009077090006612500000000000000000000000010002100026836911191P00000000002            2  01268369111925111900000003307000000000001N111119000000000000000000000000000000000000000000000000000000000000000100026836908860VANDERLEI FIGUEIREDO DE CARVALHO        RUA SANTO ANTONIO DE PADUA - 213 BLOCO 3            11717070                                                            000008
2SR. CAIXA, APOS O VENCIMENTO COBRAR 10% DE MULTA                                NAO RECEBER APOS 30 DIAS DO VENCIMENTO.                                                                                                                                                                                                         12111900000000000001211190000000000000       009077090006612526836911191P000009
100000000000000000000009077090006612500000000000000000000000010002100059861511191600000000002            2  01598615111925111900000003673140000000001N111119000000000000000000000000000000000000000000000000000000000000000100059861576800REINALDO LOPES DE OLIVEIRA              RUA DA SERVIDAO - 40 - VILA ROSCHEL - SA            04891045                                                            000011
2SR. CAIXA, APOS O VENCIMENTO COBRAR 10% DE MULTA                                NAO RECEBER APOS 30 DIAS DO VENCIMENTO.                                                                                                                                                                                                         12111900000000000001211190000000000000       0090770900066125598615111916000012
100000000000000000000009077090006612500000000000000000000000010002100016330911191400000000002            2  01163309111925111900000003650890000000001N111119000000000000000000000000000000000000000000000000000000000000000100016330938830KARINA CORDEIRO PIASSA                  AVENIDA ALDA - 1550 AP.103 BL.A - CENTRO            09910170                                                            000014
2SR. CAIXA, APOS O VENCIMENTO COBRAR 10% DE MULTA                                NAO RECEBER APOS 30 DIAS DO VENCIMENTO.                                                                                                                                                                                                         12111900000000000001211190000000000000       0090770900066125163309111914000015
100000000000000000000009077090006612500000000000000000000000010002100029380711191400000000002            2  01293807111925111900000003307190000000001N111119000000000000000000000000000000000000000000000000000000000000000100029380708882EDUARDO MENDONCA DAMASCENO              RUA MONTE CASTELO - 296 AP.12 - AVIACAO             11702720                                                            000017
2SR. CAIXA, APOS O VENCIMENTO COBRAR 10% DE MULTA                                NAO RECEBER APOS 30 DIAS DO VENCIMENTO.                                                                                                                                                                                                         12111900000000000001211190000000000000       0090770900066125293807111914000018
100000000000000000000009077090006612500000000000000000000000010002100023988511191800000000002            2  01239885111925111900000003358080000000001N111119000000000000000000000000000000000000000000000000000000000000000100023988525634DALMY PIMENTA                           SAO CAETANO - 136 - VILA SAO VICENTE - U            38026220                                                            000020
2SR. CAIXA, APOS O VENCIMENTO COBRAR 10% DE MULTA                                NAO RECEBER APOS 30 DIAS DO VENCIMENTO.                                                                                                                                                                                                         12111900000000000001211190000000000000       0090770900066125239885111918000021
100000000000000000000009077090006612500000000000000000000000010002100004735211191P00000000002            2  01047352111925111900000003651120000000001N111119000000000000000000000000000000000000000000000000000000000000000100004735273832DARIO LUIZ GONCALVES                    RUA MONTE CASTELO - 295 AP.113 - AVIACAO            11702720                                                            000023
2SR. CAIXA, APOS O VENCIMENTO COBRAR 10% DE MULTA                                NAO RECEBER APOS 30 DIAS DO VENCIMENTO.                                                                                                                                                                                                         12111900000000000001211190000000000000       009077090006612504735211191P000024
100000000000000000000009077090006612500000000000000000000000010002100007635211191P00000000002            2  01076352111925111900000003264330000000001N111119000000000000000000000000000000000000000000000000000000000000000100007635293893SILVIO CARDOSO ZACARIAS                 RUA SOLIDONIO LEITE - 2718 AP.102 BLOCO             03275000                                                            000026
2SR. CAIXA, APOS O VENCIMENTO COBRAR 10% DE MULTA                                NAO RECEBER APOS 30 DIAS DO VENCIMENTO.                                                                                                                                                                                                         12111900000000000001211190000000000000       009077090006612507635211191P000027
100000000000000000000009077090006612500000000000000000000000010002100007975911191300000000002            2  01079759111925111900000003551410000000001N111119000000000000000000000000000000000000000000000000000000000000000100007975958808JOCY VIGNADO                            RUA PEDRO GONCALVES SOBRINHO - 568 - PAR            13098641                                                            000029
2SR. CAIXA, APOS O VENCIMENTO COBRAR 10% DE MULTA                                NAO RECEBER APOS 30 DIAS DO VENCIMENTO.                                                                                                                                                                                                         12111900000000000001211190000000000000       0090770900066125079759111913000030
100000000000000000000009077090006612500000000000000000000000010002100036386811191500000000002            2  01363868111925111900000003750820000000001N111119000000000000000000000000000000000000000000000000000000000000000100036386861833ALINE LEE WEI DE SOUZA                  AV. PRES.CASTELO BRANCO - 9127 AP.251 BL            11704600                                                            000032
2SR. CAIXA, APOS O VENCIMENTO COBRAR 10% DE MULTA                                NAO RECEBER APOS 30 DIAS DO VENCIMENTO.                                                                                                                                                                                                         12111900000000000001211190000000000000       0090770900066125363868111915000033
100000000000000000000009077090006612500000000000000000000000010002100070465311191600000000002            2  01704653111925111900000001022190000000001N111119000000000000000000000000000000000000000000000000000000000000000100070465320953SIDNEY CARASKI                          RUA DR.CELSO PACHECO BENTIM - 502 - PARQ            03571020                                                            000035
2SR. CAIXA, APOS O VENCIMENTO COBRAR 10% DE MULTA                                NAO RECEBER APOS 30 DIAS DO VENCIMENTO.                                                                                                                                                                                                         12111900000000000001211190000000000000       0090770900066125704653111916000036
100000000000000000000009077090006612500000000000000000000000010002100075759411191100000000002            2  01757594111925111900000002671780000000001N111119000000000000000000000000000000000000000000000000000000000000000100075759446800VALTER MUTAFEI                          RUA MONTE CASTELO - 295 AP.54 - AVIACAO             11702720                                                            000038
2SR. CAIXA, APOS O VENCIMENTO COBRAR 10% DE MULTA                                NAO RECEBER APOS 30 DIAS DO VENCIMENTO.                                                                                                                                                                                                         12111900000000000001211190000000000000       0090770900066125757594111911000039
100000000000000000000009077090006612500000000000000000000000010002100070328711191P00000000002            2  01703287111925111900000003817300000000001N111119000000000000000000000000000000000000000000000000000000000000000100070328706868VALTER LIMA FERNANDES                   RUA DOMINGOS JORGE VELHO - 52 - CENTRO -            06843550                                                            000041
2SR. CAIXA, APOS O VENCIMENTO COBRAR 10% DE MULTA                                NAO RECEBER APOS 30 DIAS DO VENCIMENTO.                                                                                                                                                                                                         12111900000000000001211190000000000000       009077090006612570328711191P000042
100000000000000000000009077090006612500000000000000000000000010002100023132611191500000000002            2  01231326111925111900000002073500000000001N111119000000000000000000000000000000000000000000000000000000000000000100023132672882LEANDRO MORENO                          RUA MONTE CASTELO - 296 AP.64 - AVIACAO             11702720                                                            000044
2SR. CAIXA, APOS O VENCIMENTO COBRAR 10% DE MULTA                                NAO RECEBER APOS 30 DIAS DO VENCIMENTO.                                                                                                                                                                                                         12111900000000000001211190000000000000       0090770900066125231326111915000045
100000000000000000000009077090006612500000000000000000000000010002100099264611191400000000002            2  01992646111925111900000003536170000000001N111119000000000000000000000000000000000000000000000000000000000000000100099264692800LEONTINO PINHEIRO DA SILVA              AVENIDA JOAO BATISTA FITIPALDI - 469 - V            08685000                                                            000047
2SR. CAIXA, APOS O VENCIMENTO COBRAR 10% DE MULTA                                NAO RECEBER APOS 30 DIAS DO VENCIMENTO.                                                                                                                                                                                                         12111900000000000001211190000000000000       0090770900066125992646111914000048
100000000000000000000009077090006612500000000000000000000000010002100000666311191500000000002            2  01006663111925111900000003411430000000001N111119000000000000000000000000000000000000000000000000000000000000000100000666344825LUIZ HENRIQUE DE CAMPOS                 RUA JOAO CARLOS CAVALCANTI REIS - 21 - J            02281206                                                            000050
2SR. CAIXA, APOS O VENCIMENTO COBRAR 10% DE MULTA                                NAO RECEBER APOS 30 DIAS DO VENCIMENTO.                                                                                                                                                                                                         12111900000000000001211190000000000000       0090770900066125006663111915000051
100000000000000000000009077090006612500000000000000000000000010002100029155011191500000000002            2  01291550111925111900000003602610000000001N111119000000000000000000000000000000000000000000000000000000000000000100029155026842DANIELA YOSHIDA                         RUA MONTE CASTELO - 262 AP.34 - AVIACAO             11702720                                                            000053
2SR. CAIXA, APOS O VENCIMENTO COBRAR 10% DE MULTA                                NAO RECEBER APOS 30 DIAS DO VENCIMENTO.                                                                                                                                                                                                         12111900000000000001211190000000000000       0090770900066125291550111915000054
100000000000000000000009077090006612500000000000000000000000010002100001204411191900000000002            2  01012044111925111900000002933820000000001N111119000000000000000000000000000000000000000000000000000000000000000100001204431809CEZAR TALAVERA JUNIOR                   RUA MAESTRO ARTURO DE ANGELIS  - 190 AP.            05139010                                                            000056
2SR. CAIXA, APOS O VENCIMENTO COBRAR 10% DE MULTA                                NAO RECEBER APOS 30 DIAS DO VENCIMENTO.                                                                                                                                                                                                         12111900000000000001211190000000000000       0090770900066125012044111919000057
100000000000000000000009077090006612500000000000000000000000010002100004227511191800000000002            2  01042275111925111900000003803090000000001N111119000000000000000000000000000000000000000000000000000000000000000100004227553970ALESSANDRO ISRAEL GOULART               RUA PROFESSORA CARLINDA RIBEIRO - 21 - F            02866200                                                            000059
2SR. CAIXA, APOS O VENCIMENTO COBRAR 10% DE MULTA                                NAO RECEBER APOS 30 DIAS DO VENCIMENTO.                                                                                                                                                                                                         12111900000000000001211190000000000000       0090770900066125042275111918000060
100000000000000000000009077090006612500000000000000000000000010002100060811411191100000000002            2  01608114111925111900000003504990000000001N111119000000000000000000000000000000000000000000000000000000000000000100060811420868HELIO BASSI                             AV.PARIS,575 - PRACA ANTONIO FIGUEROA -             11700082                                                            000062
2SR. CAIXA, APOS O VENCIMENTO COBRAR 10% DE MULTA                                NAO RECEBER APOS 30 DIAS DO VENCIMENTO.                                                                                                                                                                                                         12111900000000000001211190000000000000       0090770900066125608114111911000063
100000000000000000000009077090006612500000000000000000000000010002100001024711191100000000002            2  01010247111925111900000003316660000000001N111119000000000000000000000000000000000000000000000000000000000000000100001024794881CLAUDIO RODRIGUES                       RUA ARACATUBA - 242 - LAPA - SAO PAULO -            05058010                                                            000065
2SR. CAIXA, APOS O VENCIMENTO COBRAR 10% DE MULTA                                NAO RECEBER APOS 30 DIAS DO VENCIMENTO.                                                                                                                                                                                                         12111900000000000001211190000000000000       0090770900066125010247111911000066
100000000000000000000009077090006612500000000000000000000000010002100002225011191200000000002            2  01022250111925111900000005084880000000001N111119000000000000000000000000000000000000000000000000000000000000000100002225072841PEDRO EDUARDO DE AZEVEDO                RUA NATH ZILMAN - 46 - JARDIM SAMAMBAIA             07623085                                                            000068
2SR. CAIXA, APOS O VENCIMENTO COBRAR 10% DE MULTA                                NAO RECEBER APOS 30 DIAS DO VENCIMENTO.                                                                                                                                                                                                         12111900000000000001211190000000000000       0090770900066125022250111912000069
100000000000000000000009077090006612500000000000000000000000010002100022037511191000000000002            2  01220375111925111900000003538520000000001N111119000000000000000000000000000000000000000000000000000000000000000100022037552882ANDREIA CRISTINA FERNANDES DANTAS       PCA CASTRO ALVES - 163 AP.33 - VILA SAO             13224299                                                            000071
2SR. CAIXA, APOS O VENCIMENTO COBRAR 10% DE MULTA                                NAO RECEBER APOS 30 DIAS DO VENCIMENTO.                                                                                                                                                                                                         12111900000000000001211190000000000000       0090770900066125220375111910000072
100000000000000000000009077090006612500000000000000000000000010002100019288711191900000000002            2  01192887111925111900000002881140000000001N111119000000000000000000000000000000000000000000000000000000000000000100019288787844EMERSON LUIZ MARTINEZ PEREIRA           RUA MONTE CASTELO - 296 AP.74 - AVIACAO             11702720                                                            000074
2SR. CAIXA, APOS O VENCIMENTO COBRAR 10% DE MULTA                                NAO RECEBER APOS 30 DIAS DO VENCIMENTO.                                                                                                                                                                                                         12111900000000000001211190000000000000       0090770900066125192887111919000075
100000000000000000000009077090006612500000000000000000000000010002100027198411191200000000002            2  01271984111925111900000002440490000000001N111119000000000000000000000000000000000000000000000000000000000000000100027198452809CRISTIANE AURELIANO DA SILVA MAIA       RUA MONTE CASTELO - 262 AP.25 - AVIACAO             11702720                                                            000077
2SR. CAIXA, APOS O VENCIMENTO COBRAR 10% DE MULTA                                NAO RECEBER APOS 30 DIAS DO VENCIMENTO.                                                                                                                                                                                                         12111900000000000001211190000000000000       0090770900066125271984111912000078
100000000000000000000009077090006612500000000000000000000000010002100021246211191600000000002            2  01212462111925111900000002978380000000001N111119000000000000000000000000000000000000000000000000000000000000000100021246231840ALEXANDRO DA CUNHA MIGUES               RUA DULCE - 71  - VILA CARRAO - SAO PAUL            03427040                                                            000080
2SR. CAIXA, APOS O VENCIMENTO COBRAR 10% DE MULTA                                NAO RECEBER APOS 30 DIAS DO VENCIMENTO.                                                                                                                                                                                                         12111900000000000001211190000000000000       0090770900066125212462111916000081
100000000000000000000009077090006612500000000000000000000000010002100018470511191600000000002            2  01184705111925111900000004381620000000001N111119000000000000000000000000000000000000000000000000000000000000000100018470520881SILVANA ALVES DE OLIVEIRA               RUA MONTE CASTELO - 262 AP.91 - AVIACAO             11702720                                                            000083
2SR. CAIXA, APOS O VENCIMENTO COBRAR 10% DE MULTA                                NAO RECEBER APOS 30 DIAS DO VENCIMENTO.                                                                                                                                                                                                         12111900000000000001211190000000000000       0090770900066125184705111916000084
100000000000000000000009077090006612500000000000000000000000010002100009297511191600000000002            2  01092975111925111900000003050440000000001N111119000000000000000000000000000000000000000000000000000000000000000100009297523846MARCOS ROBERTO DE CASTRO FERREIRA       RUA MONTE CASTELO - 262 AP.105 - AVIACAO            11702720                                                            000086
2SR. CAIXA, APOS O VENCIMENTO COBRAR 10% DE MULTA                                NAO RECEBER APOS 30 DIAS DO VENCIMENTO.                                                                                                                                                                                                         12111900000000000001211190000000000000       0090770900066125092975111916000087
100000000000000000000009077090006612500000000000000000000000010002100001164111191500000000002            2  01011641111925111900000003780180000000001N111119000000000000000000000000000000000000000000000000000000000000000100001164158864DAVID BLEY LACERDA                      RUA CONEGO ARAUJO MARCONDES - 188 - BAIR            02550080                                                            000089
2SR. CAIXA, APOS O VENCIMENTO COBRAR 10% DE MULTA                                NAO RECEBER APOS 30 DIAS DO VENCIMENTO.                                                                                                                                                                                                         12111900000000000001211190000000000000       0090770900066125011641111915000090
100000000000000000000009077090006612500000000000000000000000010002100031498011191900000000002            2  01314980111925111900000004594270000000001N111119000000000000000000000000000000000000000000000000000000000000000100031498008895POLIANE  SIBELE DA SILVA                PRACA GENERAL COSTA BARRETO - 56 AP.181             03325070                                                            000092
2SR. CAIXA, APOS O VENCIMENTO COBRAR 10% DE MULTA                                NAO RECEBER APOS 30 DIAS DO VENCIMENTO.                                                                                                                                                                                                         12111900000000000001211190000000000000       0090770900066125314980111919000093
100000000000000000000009077090006612500000000000000000000000010002100000588111191200000000002            2  01005881111925111900000002694640000000001N111119000000000000000000000000000000000000000000000000000000000000000100000588109860JOSE LIARTE GIANTE                      AVENIDA LUIZ GONZAGA DO AMARAL - 143 - J            09320630                                                            000095
2SR. CAIXA, APOS O VENCIMENTO COBRAR 10% DE MULTA                                NAO RECEBER APOS 30 DIAS DO VENCIMENTO.                                                                                                                                                                                                         12111900000000000001211190000000000000       0090770900066125005881111912000096
100000000000000000000009077090006612500000000000000000000000010002100014386811191500000000002            2  01143868111925111900000002155580000000001N111119000000000000000000000000000000000000000000000000000000000000000100014386860134SEVERINO CARLOS DE OLIVEIRA             RUA MONTE CASTELO - 262 AP.54 - AVIACAO             11702720                                                            000098
2SR. CAIXA, APOS O VENCIMENTO COBRAR 10% DE MULTA                                NAO RECEBER APOS 30 DIAS DO VENCIMENTO.                                                                                                                                                                                                         12111900000000000001211190000000000000       0090770900066125143868111915000099
100000000000000000000009077090006612500000000000000000000000010002100039393711191000000000002            2  01393937111925111900000001485640000000001N111119000000000000000000000000000000000000000000000000000000000000000100039393790850NAIRON RICARDO DE ARAUJO SANTOS         RUA MONTE CASTELO - 262 AP.23 - AVIACAO             11702720                                                            000101
2SR. CAIXA, APOS O VENCIMENTO COBRAR 10% DE MULTA                                NAO RECEBER APOS 30 DIAS DO VENCIMENTO.                                                                                                                                                                                                         12111900000000000001211190000000000000       0090770900066125393937111910000102
100000000000000000000009077090006612500000000000000000000000010002100041896811191100000000002            2  01418968111925111900000002163600000000001N111119000000000000000000000000000000000000000000000000000000000000000100041896807968SERGIO ROBERTO DA SILVA                 RUA DOS INGLESES - 542 AP.61 - MORRO DOS            01329000                                                            000104
2SR. CAIXA, APOS O VENCIMENTO COBRAR 10% DE MULTA                                NAO RECEBER APOS 30 DIAS DO VENCIMENTO.                                                                                                                                                                                                         12111900000000000001211190000000000000       0090770900066125418968111911000105
9                                                                                                                                                                                                                                                                                                                                                                                                         000106