01REMESSA01COBRANCA       00000000000005316116AIRES CONSTRUTORA E INCORPORAD237BRADESCO       080523        MX0000218                                                                                                                                                                                                                                                                                     000001
100000000000000000000009002800441612000000000000000000000000010002100001204405231900000000002            2  01012044052325052300000003708030000000001N080523000000000000000000000000000000000000000000000000000000000000000100001204431809CEZAR TALAVERA JUNIOR                   RUA MAESTRO ARTURO DE ANGELIS  - 190 AP.            05139010                                                            000002
2SR. CAIXA, APOS O VENCIMENTO COBRAR 10% DE MULTA                                NAO RECEBER APOS 30 DIAS DO VENCIMENTO.                                                                                                                                                                                                         08052300000000000000805230000000000000       0090028004416120012044052319000003
100000000000000000000009002800441612000000000000000000000000010002100018470505231600000000002            2  01184705052325052300000005537910000000001N080523000000000000000000000000000000000000000000000000000000000000000100018470520881SILVANA ALVES DE OLIVEIRA               RUA MONTE CASTELO - 262 AP.91 - AVIACAO             11702720                                                            000005
2SR. CAIXA, APOS O VENCIMENTO COBRAR 10% DE MULTA                                NAO RECEBER APOS 30 DIAS DO VENCIMENTO.                                                                                                                                                                                                         08052300000000000000805230000000000000       0090028004416120184705052316000006
100000000000000000000009002800441612000000000000000000000000010002100009297505231600000000002            2  01092975052325052300000003855410000000001N080523000000000000000000000000000000000000000000000000000000000000000100009297523846MARCOS ROBERTO DE CASTRO FERREIRA       RUA MONTE CASTELO - 262 AP.105 - AVIACAO            11702720                                                            000008
2SR. CAIXA, APOS O VENCIMENTO COBRAR 10% DE MULTA                                NAO RECEBER APOS 30 DIAS DO VENCIMENTO.                                                                                                                                                                                                         08052300000000000000805230000000000000       0090028004416120092975052316000009
100000000000000000000009002800441612000000000000000000000000010002100001164105231500000000002            2  01011641052325052300000004777740000000001N080523000000000000000000000000000000000000000000000000000000000000000100001164158864DAVID BLEY LACERDA                      RUA CONEGO ARAUJO MARCONDES - 188 - BAIR            02550080                                                            000011
2SR. CAIXA, APOS O VENCIMENTO COBRAR 10% DE MULTA                                NAO RECEBER APOS 30 DIAS DO VENCIMENTO.                                                                                                                                                                                                         08052300000000000000805230000000000000       0090028004416120011641052315000012
100000000000000000000009002800441612000000000000000000000000010002100031498005231900000000002            2  01314980052325052300000005806670000000001N080523000000000000000000000000000000000000000000000000000000000000000100031498008895POLIANE  SIBELE DA SILVA                PRACA GENERAL COSTA BARRETO - 56 AP.181             03325070                                                            000014
2SR. CAIXA, APOS O VENCIMENTO COBRAR 10% DE MULTA                                NAO RECEBER APOS 30 DIAS DO VENCIMENTO.                                                                                                                                                                                                         08052300000000000000805230000000000000       0090028004416120314980052319000015
100000000000000000000009002800441612000000000000000000000000010002100014386805231500000000002            2  01143868052325052300000002724440000000001N080523000000000000000000000000000000000000000000000000000000000000000100014386860134SEVERINO CARLOS DE OLIVEIRA             RUA MONTE CASTELO - 262 AP.54 - AVIACAO             11702720                                                            000017
2SR. CAIXA, APOS O VENCIMENTO COBRAR 10% DE MULTA                                NAO RECEBER APOS 30 DIAS DO VENCIMENTO.                                                                                                                                                                                                         08052300000000000000805230000000000000       0090028004416120143868052315000018
100000000000000000000009002800441612000000000000000000000000010002100039393705231000000000002            2  01393937052325052300000001877750000000001N080523000000000000000000000000000000000000000000000000000000000000000100039393790850NAIRON RICARDO DE ARAUJO SANTOS         RUA NITEROI - 267 CASA 04 - JARDIM INDEP            11380350                                                            000020
2SR. CAIXA, APOS O VENCIMENTO COBRAR 10% DE MULTA                                NAO RECEBER APOS 30 DIAS DO VENCIMENTO.                                                                                                                                                                                                         08052300000000000000805230000000000000       0090028004416120393937052310000021
100000000000000000000009002800441612000000000000000000000000010002100019288705231900000000002            2  01192887052325052300000002528800000000001N080523000000000000000000000000000000000000000000000000000000000000000100019288787844EMERSON LUIZ MARTINEZ PEREIRA           RUA MONTE CASTELO - 296 AP.74 - AVIACAO             11702720                                                            000023
2SR. CAIXA, APOS O VENCIMENTO COBRAR 10% DE MULTA                                NAO RECEBER APOS 30 DIAS DO VENCIMENTO.                                                                                                                                                                                                         08052300000000000000805230000000000000       0090028004416120192887052319000024
9                                                                                                                                                                                                                                                                                                                                                                                                         000025