01REMESSA01COBRANCA       00000000000008017025HB SANTOS CONSTRUTORA E INCORP237BRADESCO       010521        MX0000128                                                                                                                                                                                                                                                                                     000001
100000000000000000000009033990000627000000000000000000000000010002020025035105211100000000002            2  01250351052124052100000002446550000000001N010521000000000000000000000000000000000000000000000000000000000000000100025035170802WANDERSON LUIS DE CARVALHO              RUA JOAQUIM GONCALVES ROCHA - 302 - JARD            02859030                                                            000002
2SR. CAIXA, APOS O VENCIMENTO COBRAR 2% DE MULTA                                 NAO RECEBER APOS 30 DIAS DO VENCIMENTO.                                                                                                                                                                                                         01052100000000000000105210000000000000       0090339900006270250351052111000003
100000000000000000000009033990000627000000000000000000000000010002020007294305211900000000002            2  01072943052124052100000003290640000000001N010521000000000000000000000000000000000000000000000000000000000000000100007294351805CLAUDENIR APARECIDO VACARI              RUA CARLOS JOSE BORSTENS - 50 AP.93 - AV            11702750                                                            000005
2SR. CAIXA, APOS O VENCIMENTO COBRAR 2% DE MULTA                                 NAO RECEBER APOS 30 DIAS DO VENCIMENTO.                                                                                                                                                                                                         01052100000000000000105210000000000000       0090339900006270072943052119000006
100000000000000000000009033990000627000000000000000000000000010002020035438005211200000000002            2  01354380052124052100000002808300000000001N010521000000000000000000000000000000000000000000000000000000000000000100035438022836ALESSANDRO FARACO DOS SANTOS            RUA PEDRO POMAR  - 145 - JARDIM ELISA MA            02875020                                                            000008
2SR. CAIXA, APOS O VENCIMENTO COBRAR 2% DE MULTA                                 NAO RECEBER APOS 30 DIAS DO VENCIMENTO.                                                                                                                                                                                                         01052100000000000000105210000000000000       0090339900006270354380052112000009
100000000000000000000009033990000627000000000000000000000000010002020007525005211400000000002            2  01075250052124052100000003680730000000001N010521000000000000000000000000000000000000000000000000000000000000000100007525032866FERNANDO RIBEIRO                        RUA CARLOS JOSE BORSTENS - 50 AP.32 - AV            11702750                                                            000011
2SR. CAIXA, APOS O VENCIMENTO COBRAR 2% DE MULTA                                 NAO RECEBER APOS 30 DIAS DO VENCIMENTO.                                                                                                                                                                                                         01052100000000000000105210000000000000       0090339900006270075250052114000012
100000000000000000000009033990000627000000000000000000000000010002020005071405211P00000000002            2  01050714052124052100000003228710000000001N010521000000000000000000000000000000000000000000000000000000000000000100005071481855ERIBALDO SANTANA CARVALHO               RUA HONDURAS - 477 - PARQUE DAS AMERICAS            09351070                                                            000014
2SR. CAIXA, APOS O VENCIMENTO COBRAR 2% DE MULTA                                 NAO RECEBER APOS 30 DIAS DO VENCIMENTO.                                                                                                                                                                                                         01052100000000000000105210000000000000       009033990000627005071405211P000015
100000000000000000000009033990000627000000000000000000000000010002020002841705211300000000002            2  01028417052124052100000003020750000000001N010521000000000000000000000000000000000000000000000000000000000000000100002841756416LUCIANA PINHEIRO DE ASSIS NUNES         RUA RIO ACIMA - 81 - RIACHO GRANDE - SAO            09830100                                                            000017
2SR. CAIXA, APOS O VENCIMENTO COBRAR 2% DE MULTA                                 NAO RECEBER APOS 30 DIAS DO VENCIMENTO.                                                                                                                                                                                                         01052100000000000000105210000000000000       0090339900006270028417052113000018
100000000000000000000009033990000627000000000000000000000000010002020084302005211200000000002            2  01843020052124052100000003035240000000001N010521000000000000000000000000000000000000000000000000000000000000000100084302097868FAUSTO TADEU VILOR                      RUA ANTONIO TAVARES - 466 - BAIRRO CAMBU            01542010                                                            000020
2SR. CAIXA, APOS O VENCIMENTO COBRAR 2% DE MULTA                                 NAO RECEBER APOS 30 DIAS DO VENCIMENTO.                                                                                                                                                                                                         01052100000000000000105210000000000000       0090339900006270843020052112000021
100000000000000000000009033990000627000000000000000000000000010002020028804205211200000000002            2  01288042052124052100000002982170000000001N010521000000000000000000000000000000000000000000000000000000000000000100028804202882GILBERTO FABIANO CABRAL DE CAMARGO      RUA CARLOS JOSE BORSTENS - 50 AP.44 - AV            11702750                                                            000023
2SR. CAIXA, APOS O VENCIMENTO COBRAR 2% DE MULTA                                 NAO RECEBER APOS 30 DIAS DO VENCIMENTO.                                                                                                                                                                                                         01052100000000000000105210000000000000       0090339900006270288042052112000024
100000000000000000000009033990000627000000000000000000000000010002020000991705211500000000002            2  01009917052124052100000002910710000000001N010521000000000000000000000000000000000000000000000000000000000000000100000991748808JAILSON BORGES DE ANDRADE               RUA IPIOBUNA - 45 - JARDIM CUMBICA - GUA            07240040                                                            000026
2SR. CAIXA, APOS O VENCIMENTO COBRAR 2% DE MULTA                                 NAO RECEBER APOS 30 DIAS DO VENCIMENTO.                                                                                                                                                                                                         01052100000000000000105210000000000000       0090339900006270009917052115000027
100000000000000000000009033990000627000000000000000000000000010002020022151605211100000000002            2  01221516052124052100000002893790000000001N010521000000000000000000000000000000000000000000000000000000000000000100022151666816SAMIR LIMA DE ARAUJO                    AVENIDA GUARAPIRANGA - 2616 AP.131 BL.14            04902005                                                            000029
2SR. CAIXA, APOS O VENCIMENTO COBRAR 2% DE MULTA                                 NAO RECEBER APOS 30 DIAS DO VENCIMENTO.                                                                                                                                                                                                         01052100000000000000105210000000000000       0090339900006270221516052111000030
100000000000000000000009033990000627000000000000000000000000010002020022313105211300000000002            2  01223131052126052100000002226020000000001N010521000000000000000000000000000000000000000000000000000000000000000100022313116824ROSA MARIA BRITO DA SILVA               RUA SERVIDAO DE SAO MARCOS - 113 - JARDI            04930300                                                            000032
2SR. CAIXA, APOS O VENCIMENTO COBRAR 2% DE MULTA                                 NAO RECEBER APOS 30 DIAS DO VENCIMENTO.                                                                                                                                                                                                         01052100000000000000105210000000000000       0090339900006270223131052113000033
100000000000000000000009033990000627000000000000000000000000010002020027538005211500000000002            2  01275380052126052100000002233790000000001N010521000000000000000000000000000000000000000000000000000000000000000100027538087249MARA LUCIA MENEZES DA COSTA             RUA LEILA  - 183 - ITAQUERA - SAO PAULO             08240020                                                            000035
2SR. CAIXA, APOS O VENCIMENTO COBRAR 2% DE MULTA                                 NAO RECEBER APOS 30 DIAS DO VENCIMENTO.                                                                                                                                                                                                         01052100000000000000105210000000000000       0090339900006270275380052115000036
100000000000000000000009033990000627000000000000000000000000010002020031278405211100000000002            2  01312784052124052100000002795510000000001N010521000000000000000000000000000000000000000000000000000000000000000100031278411836JEFFERSON DE PIERI PIRES ZAMUNER        RUA MANOEL ARCE - 277 - PARQUE BANCARIO             03922150                                                            000038
2SR. CAIXA, APOS O VENCIMENTO COBRAR 2% DE MULTA                                 NAO RECEBER APOS 30 DIAS DO VENCIMENTO.                                                                                                                                                                                                         01052100000000000000105210000000000000       0090339900006270312784052111000039
100000000000000000000009033990000627000000000000000000000000010002020019185705211300000000002            2  01191857052126052100000002032790000000001N010521000000000000000000000000000000000000000000000000000000000000000100019185769800AGUINALDO PESSOA DE LIMA                RUA JANUARIO ZINGARO - 252 AP.303 BL.04             05794300                                                            000041
2SR. CAIXA, APOS O VENCIMENTO COBRAR 2% DE MULTA                                 NAO RECEBER APOS 30 DIAS DO VENCIMENTO.                                                                                                                                                                                                         01052100000000000000105210000000000000       0090339900006270191857052113000042
100000000000000000000009033990000627000000000000000000000000010002020033303605211400000000002            2  01333036052126052100000002189500000000001N010521000000000000000000000000000000000000000000000000000000000000000100033303645809JESSICA DA SILVA FREITAS                RUA ARILDO VALADAO - 120 - JARDIM GUAEMB            04814600                                                            000044
2SR. CAIXA, APOS O VENCIMENTO COBRAR 2% DE MULTA                                 NAO RECEBER APOS 30 DIAS DO VENCIMENTO.                                                                                                                                                                                                         01052100000000000000105210000000000000       0090339900006270333036052114000045
100000000000000000000009033990000627000000000000000000000000010002020006422605211P00000000002            2  01064226052124052100000003027580000000001N010521000000000000000000000000000000000000000000000000000000000000000100006422607881GERALDO ALVES DA SILVA                  RUA CARLOS JOSE BORSTENS - 50 AP.14 - AV            11702750                                                            000047
2SR. CAIXA, APOS O VENCIMENTO COBRAR 2% DE MULTA                                 NAO RECEBER APOS 30 DIAS DO VENCIMENTO.                                                                                                                                                                                                         01052100000000000000105210000000000000       009033990000627006422605211P000048
100000000000000000000009033990000627000000000000000000000000010002020033877105211100000000002            2  01338771052126052100000002052720000000001N010521000000000000000000000000000000000000000000000000000000000000000100033877129870HELDER FERREIRA VIANA                   RUA JOSE CALIXTO DO CARMO - 286 AP.35 -             11702690                                                            000050
2SR. CAIXA, APOS O VENCIMENTO COBRAR 2% DE MULTA                                 NAO RECEBER APOS 30 DIAS DO VENCIMENTO.                                                                                                                                                                                                         01052100000000000000105210000000000000       0090339900006270338771052111000051
100000000000000000000009033990000627000000000000000000000000010002020028290705211500000000002            2  01282907052126052100000001891850000000001N010521000000000000000000000000000000000000000000000000000000000000000100028290719809VANESSA GIANGARRELLI PEREIRA            RUA BARINEL - 72 - JARDIM COTCHING - SAO            03462130                                                            000053
2SR. CAIXA, APOS O VENCIMENTO COBRAR 2% DE MULTA                                 NAO RECEBER APOS 30 DIAS DO VENCIMENTO.                                                                                                                                                                                                         01052100000000000000105210000000000000       0090339900006270282907052115000054
100000000000000000000009033990000627000000000000000000000000010002020087573005211000000000002            2  01875730052126052100000002065880000000001N010521000000000000000000000000000000000000000000000000000000000000000100087573059604VANDERLEY DE ASSIS                      RUA ROMEU ALBANI - 268 - JARDIM PARQUE R            13803810                                                            000056
2SR. CAIXA, APOS O VENCIMENTO COBRAR 2% DE MULTA                                 NAO RECEBER APOS 30 DIAS DO VENCIMENTO.                                                                                                                                                                                                         01052100000000000000105210000000000000       0090339900006270875730052110000057
100000000000000000000009033990000627000000000000000000000000010002020010825505211800000000002            2  01108255052126052100000002155840000000001N010521000000000000000000000000000000000000000000000000000000000000000100010825513847JOSE APARECIDO PEREIRA                  RUA GENERAL OSORIO - 305 - JARDIM TRINTA            11515130                                                            000059
2SR. CAIXA, APOS O VENCIMENTO COBRAR 2% DE MULTA                                 NAO RECEBER APOS 30 DIAS DO VENCIMENTO.                                                                                                                                                                                                         01052100000000000000105210000000000000       0090339900006270108255052118000060
100000000000000000000009033990000627000000000000000000000000010002020039115105211P00000000002            2  01391151052126052100000002657460000000001N010521000000000000000000000000000000000000000000000000000000000000000100039115139840LAIS CRISTINA RIBEIRO ANDO              RUA JOSE CALIXTO DO CARMO - 286 AP.65 -             11702690                                                            000062
2SR. CAIXA, APOS O VENCIMENTO COBRAR 2% DE MULTA                                 NAO RECEBER APOS 30 DIAS DO VENCIMENTO.                                                                                                                                                                                                         01052100000000000000105210000000000000       009033990000627039115105211P000063
100000000000000000000009033990000627000000000000000000000000010002020029617505211800000000002            2  01296175052124052100000002971670000000001N010521000000000000000000000000000000000000000000000000000000000000000100029617510553MARILENE SOUZA DE OLIVEIRA              AVENIDA BRASIL - 393 AP.09 - PARQUE DAS             09210280                                                            000065
2SR. CAIXA, APOS O VENCIMENTO COBRAR 2% DE MULTA                                 NAO RECEBER APOS 30 DIAS DO VENCIMENTO.                                                                                                                                                                                                         01052100000000000000105210000000000000       0090339900006270296175052118000066
100000000000000000000009033990000627000000000000000000000000010002020000593205211800000000002            2  01005932052124052100000003259200000000001N010521000000000000000000000000000000000000000000000000000000000000000100000593293860WALTER HELIO BARBOSA FILHO              AVENIDA ANTONIO FREDERICO OZANAN - 9500             13214206                                                            000068
2SR. CAIXA, APOS O VENCIMENTO COBRAR 2% DE MULTA                                 NAO RECEBER APOS 30 DIAS DO VENCIMENTO.                                                                                                                                                                                                         01052100000000000000105210000000000000       0090339900006270005932052118000069
100000000000000000000009033990000627000000000000000000000000010002020007730005211300000000002            2  01077300052124052100000004634910000000001N010521000000000000000000000000000000000000000000000000000000000000000100007730084899ARNALDO LUIZ VONO                       RUA CARLOS JOSE BORSTENS - 50 AP.122 - A            11702750                                                            000071
2SR. CAIXA, APOS O VENCIMENTO COBRAR 2% DE MULTA                                 NAO RECEBER APOS 30 DIAS DO VENCIMENTO.                                                                                                                                                                                                         01052100000000000000105210000000000000       0090339900006270077300052113000072
100000000000000000000009033990000627000000000000000000000000010002020065584105211P00000000002            2  01655841052124052100000001710910000000001N010521000000000000000000000000000000000000000000000000000000000000000100065584147834JOAQUIM DA COSTA MACHADO NETO           RUA CARLOS JOSE BORSTENS - 50 AP.42 - AV            11702750                                                            000074
2SR. CAIXA, APOS O VENCIMENTO COBRAR 2% DE MULTA                                 NAO RECEBER APOS 30 DIAS DO VENCIMENTO.                                                                                                                                                                                                         01052100000000000000105210000000000000       009033990000627065584105211P000075
100000000000000000000009033990000627000000000000000000000000010002020065584105212800000000002            2  01655841052124052100000001710900000000001N010521000000000000000000000000000000000000000000000000000000000000000100065584147834JOAQUIM DA COSTA MACHADO NETO           RUA CARLOS JOSE BORSTENS - 50 AP.42 - AV            11702750                                                            000077
2SR. CAIXA, APOS O VENCIMENTO COBRAR 2% DE MULTA                                 NAO RECEBER APOS 30 DIAS DO VENCIMENTO.                                                                                                                                                                                                         01052100000000000000105210000000000000       0090339900006270655841052128000078
100000000000000000000009033990000627000000000000000000000000010002020006684605211200000000002            2  01066846052126052100000002189230000000001N010521000000000000000000000000000000000000000000000000000000000000000100006684623884LAUDINOR VIEIRA GARCIA                  RUA CANDIDO SALES - 374 - JARDIM PRESIDE            07172000                                                            000080
2SR. CAIXA, APOS O VENCIMENTO COBRAR 2% DE MULTA                                 NAO RECEBER APOS 30 DIAS DO VENCIMENTO.                                                                                                                                                                                                         01052100000000000000105210000000000000       0090339900006270066846052112000081
100000000000000000000009033990000627000000000000000000000000010002020011663505211300000000002            2  01116635052126052100000002204970000000001N010521000000000000000000000000000000000000000000000000000000000000000100011663589844MARIA SAVIO QUARELLO                    AVENIDA MENDONCA DRUMOND - 321 - JARDIM             03524030                                                            000083
2SR. CAIXA, APOS O VENCIMENTO COBRAR 2% DE MULTA                                 NAO RECEBER APOS 30 DIAS DO VENCIMENTO.                                                                                                                                                                                                         01052100000000000000105210000000000000       0090339900006270116635052113000084
100000000000000000000009033990000627000000000000000000000000010002020010083805211500000000002            2  01100838052126052100000002130370000000001N010521000000000000000000000000000000000000000000000000000000000000000100010083824855IONE FERREIRA COUTO DA SILVA            RUA JOSE RAGEL DE MESQUITA - 60 CS.01 -             07799999                                                            000086
2SR. CAIXA, APOS O VENCIMENTO COBRAR 2% DE MULTA                                 NAO RECEBER APOS 30 DIAS DO VENCIMENTO.                                                                                                                                                                                                         01052100000000000000105210000000000000       0090339900006270100838052115000087
100000000000000000000009033990000627000000000000000000000000010002020031010705211000000000002            2  01310107052126052100000002090580000000001N010521000000000000000000000000000000000000000000000000000000000000000100031010705890ANDRE GONZALEZ RABELLO                  RUA PARAIBA - 106 AP.61 - POMPEIA - SANT            11065470                                                            000089
2SR. CAIXA, APOS O VENCIMENTO COBRAR 2% DE MULTA                                 NAO RECEBER APOS 30 DIAS DO VENCIMENTO.                                                                                                                                                                                                         01052100000000000000105210000000000000       0090339900006270310107052110000090
100000000000000000000009033990000627000000000000000000000000010002020005351005211P00000000002            2  01053510052126052100000001960140000000001N010521000000000000000000000000000000000000000000000000000000000000000100005351015897VALERIA ALVES MARCOLINO HINNIGER        RUA JOSE CALIXTO DO CARMO - 286 AP.92 -             11702690                                                            000092
2SR. CAIXA, APOS O VENCIMENTO COBRAR 2% DE MULTA                                 NAO RECEBER APOS 30 DIAS DO VENCIMENTO.                                                                                                                                                                                                         01052100000000000000105210000000000000       009033990000627005351005211P000093
100000000000000000000009033990000627000000000000000000000000010002020031898705211500000000002            2  01318987052124052100000003118530000000001N010521000000000000000000000000000000000000000000000000000000000000000100031898775800ANITA MARTINS COLOMBO                   RUA CARLOS JOSE BORSTENS - 50 AP.115 - A            11702750                                                            000095
2SR. CAIXA, APOS O VENCIMENTO COBRAR 2% DE MULTA                                 NAO RECEBER APOS 30 DIAS DO VENCIMENTO.                                                                                                                                                                                                         01052100000000000000105210000000000000       0090339900006270318987052115000096
100000000000000000000009033990000627000000000000000000000000010002020037983405211500000000002            2  01379834052126052100000002302540000000001N010521000000000000000000000000000000000000000000000000000000000000000100037983484801JOSE ERIVALDO SOUZA DO NASCIMENTO RAMOS RUA LETICIA - 250 - JARDIM GUARUJA - SAO            05877260                                                            000098
2SR. CAIXA, APOS O VENCIMENTO COBRAR 2% DE MULTA                                 NAO RECEBER APOS 30 DIAS DO VENCIMENTO.                                                                                                                                                                                                         01052100000000000000105210000000000000       0090339900006270379834052115000099
100000000000000000000009033990000627000000000000000000000000010002020056289205211600000000002            2  01562892052126052100000001739450000000001N010521000000000000000000000000000000000000000000000000000000000000000100056289286900PEDRO RIBEIRO                           RUA CONEGO MANOEL VAZ - 48 - SANTANA - S            02019050                                                            000101
2SR. CAIXA, APOS O VENCIMENTO COBRAR 2% DE MULTA                                 NAO RECEBER APOS 30 DIAS DO VENCIMENTO.                                                                                                                                                                                                         01052100000000000000105210000000000000       0090339900006270562892052116000102
100000000000000000000009033990000627000000000000000000000000010002020034735305211200000000002            2  01347353052126052100000002387290000000001N010521000000000000000000000000000000000000000000000000000000000000000100034735328866DIEGO FELIPE MOLINA DA SILVA E SOUSA    RUA EMILIA PAULISTA - 135 - VILA TIRADEN            05364020                                                            000104
2SR. CAIXA, APOS O VENCIMENTO COBRAR 2% DE MULTA                                 NAO RECEBER APOS 30 DIAS DO VENCIMENTO.                                                                                                                                                                                                         01052100000000000000105210000000000000       0090339900006270347353052112000105
100000000000000000000009033990000627000000000000000000000000010002020076175605211300000000002            2  01761756052124052100000004327870000000001N010521000000000000000000000000000000000000000000000000000000000000000100076175685687GILMAR DE OLIVEIRA BRAGA                RUA MARACAJU - 161 AP.202 - NOVA GRANADA            30431350                                                            000107
2SR. CAIXA, APOS O VENCIMENTO COBRAR 2% DE MULTA                                 NAO RECEBER APOS 30 DIAS DO VENCIMENTO.                                                                                                                                                                                                         01052100000000000000105210000000000000       0090339900006270761756052113000108
100000000000000000000009033990000627000000000000000000000000010002020034812205211600000000002            2  01348122052124052100000004127510000000001N010521000000000000000000000000000000000000000000000000000000000000000100034812226880THAIS TORQUATO MIMOSO DE JESUS          RUA ARNALDO CINTRA - 416 AP.104 TORRE 2             03088000                                                            000110
2SR. CAIXA, APOS O VENCIMENTO COBRAR 2% DE MULTA                                 NAO RECEBER APOS 30 DIAS DO VENCIMENTO.                                                                                                                                                                                                         01052100000000000000105210000000000000       0090339900006270348122052116000111
100000000000000000000009033990000627000000000000000000000000010002020012849405211200000000002            2  01128494052126052100000004112660000000001N010521000000000000000000000000000000000000000000000000000000000000000100012849428809MOISES CLAUDIO DO ROSARIO               AVENIDA DR. AUGUSTO DE TOLEDO - 510 AP.1            09541520                                                            000113
2SR. CAIXA, APOS O VENCIMENTO COBRAR 2% DE MULTA                                 NAO RECEBER APOS 30 DIAS DO VENCIMENTO.                                                                                                                                                                                                         01052100000000000000105210000000000000       0090339900006270128494052112000114
100000000000000000000009033990000627000000000000000000000000010002020015702305211200000000002            2  01157023052126052100000002281790000000001N010521000000000000000000000000000000000000000000000000000000000000000100015702353846MARIA DE LOURDES DE MACENO SOUZA        RUA JOSE CALIXTO DO CARMO - 286 AP.83 -             11702690                                                            000116
2SR. CAIXA, APOS O VENCIMENTO COBRAR 2% DE MULTA                                 NAO RECEBER APOS 30 DIAS DO VENCIMENTO.                                                                                                                                                                                                         01052100000000000000105210000000000000       0090339900006270157023052112000117
100000000000000000000009033990000627000000000000000000000000010002020003658605211700000000002            2  01036586052126052100000001699020000000001N010521000000000000000000000000000000000000000000000000000000000000000100003658668814MARINEZ VALENTIN                        RUA JOSE CALIXTO DO CARMO - 286 AP.95 -             11702690                                                            000119
2SR. CAIXA, APOS O VENCIMENTO COBRAR 2% DE MULTA                                 NAO RECEBER APOS 30 DIAS DO VENCIMENTO.                                                                                                                                                                                                         01052100000000000000105210000000000000       0090339900006270036586052117000120
100000000000000000000009033990000627000000000000000000000000010002020003658605212500000000002            2  01036586052126052100000001699010000000001N010521000000000000000000000000000000000000000000000000000000000000000100003658668814MARINEZ VALENTIN                        RUA JOSE CALIXTO DO CARMO - 286 AP.95 -             11702690                                                            000122
2SR. CAIXA, APOS O VENCIMENTO COBRAR 2% DE MULTA                                 NAO RECEBER APOS 30 DIAS DO VENCIMENTO.                                                                                                                                                                                                         01052100000000000000105210000000000000       0090339900006270036586052125000123
100000000000000000000009033990000627000000000000000000000000010002020014087405211500000000002            2  01140874052126052100000002270580000000001N010521000000000000000000000000000000000000000000000000000000000000000100014087484874SERGIO SANTOS DO NASCIMENTO             RUA PANTALEAO BRAZ - 21 - JARDIM ESTER -            05372080                                                            000125
2SR. CAIXA, APOS O VENCIMENTO COBRAR 2% DE MULTA                                 NAO RECEBER APOS 30 DIAS DO VENCIMENTO.                                                                                                                                                                                                         01052100000000000000105210000000000000       0090339900006270140874052115000126
100000000000000000000009033990000627000000000000000000000000010002020026834505211400000000002            2  01268345052126052100000002092070000000001N010521000000000000000000000000000000000000000000000000000000000000000100026834550895RAQUEL CARDOSO JOAO                     RUA PEDROSO XAVIER - 277 AP.23 TORRE 01             02732020                                                            000128
2SR. CAIXA, APOS O VENCIMENTO COBRAR 2% DE MULTA                                 NAO RECEBER APOS 30 DIAS DO VENCIMENTO.                                                                                                                                                                                                         01052100000000000000105210000000000000       0090339900006270268345052114000129
100000000000000000000009033990000627000000000000000000000000010002020039540005211200000000002            2  01395400052126052100000002056800000000001N010521000000000000000000000000000000000000000000000000000000000000000100039540008816LUZINETE CLARINDO SILVA                 RUA DEINOS - 275 - BAIRRO CIDADE SATELIT            08340100                                                            000131
2SR. CAIXA, APOS O VENCIMENTO COBRAR 2% DE MULTA                                 NAO RECEBER APOS 30 DIAS DO VENCIMENTO.                                                                                                                                                                                                         01052100000000000000105210000000000000       0090339900006270395400052112000132
100000000000000000000009033990000627000000000000000000000000010002020003311005211P00000000002            2  01033110052126052100000002141910000000001N010521000000000000000000000000000000000000000000000000000000000000000100003311030877SEBASTIAO SARUVA NETO                   RUA HAMILTON REGIS - 559 - BAIRRO DO LIM            08051440                                                            000134
2SR. CAIXA, APOS O VENCIMENTO COBRAR 2% DE MULTA                                 NAO RECEBER APOS 30 DIAS DO VENCIMENTO.                                                                                                                                                                                                         01052100000000000000105210000000000000       009033990000627003311005211P000135
100000000000000000000009033990000627000000000000000000000000010002020090091905211600000000002            2  01900919052126052100000002047360000000001N010521000000000000000000000000000000000000000000000000000000000000000100090091990882JUECIR CARVALHO DA LUZ                  RUA JOSE CALIXTO DO CARMO - 286 AP.114 -            11702690                                                            000137
2SR. CAIXA, APOS O VENCIMENTO COBRAR 2% DE MULTA                                 NAO RECEBER APOS 30 DIAS DO VENCIMENTO.                                                                                                                                                                                                         01052100000000000000105210000000000000       0090339900006270900919052116000138
100000000000000000000009033990000627000000000000000000000000010002020037325905211800000000002            2  01373259052126052100000001675480000000001N010521000000000000000000000000000000000000000000000000000000000000000100037325923830MARIA AUGUSTA OLIVEIRA DE ANDRADE       RUA CAIAPOS - 842 AP.63 - VILA TUPI - PR            11703320                                                            000140
2SR. CAIXA, APOS O VENCIMENTO COBRAR 2% DE MULTA                                 NAO RECEBER APOS 30 DIAS DO VENCIMENTO.                                                                                                                                                                                                         01052100000000000000105210000000000000       0090339900006270373259052118000141
100000000000000000000009033990000627000000000000000000000000010002020012478805211500000000002            2  01124788052124052100000003050300000000001N010521000000000000000000000000000000000000000000000000000000000000000100012478899809VITORIA BATISTA QUEIROZ                 RUA CARVALHO DE FREITAS - 255 AP.71A - V            05728030                                                            000143
2SR. CAIXA, APOS O VENCIMENTO COBRAR 2% DE MULTA                                 NAO RECEBER APOS 30 DIAS DO VENCIMENTO.                                                                                                                                                                                                         01052100000000000000105210000000000000       0090339900006270124788052115000144
100000000000000000000009033990000627000000000000000000000000010002020097989905211P00000000002            2  01979899052126052100000001406620000000001N010521000000000000000000000000000000000000000000000000000000000000000100097989924820NELSON LUIS BERRIBILLE                  RUA SILVEIRA IGNACIO SOBRINHO - 965 - VI            13560294                                                            000146
2SR. CAIXA, APOS O VENCIMENTO COBRAR 2% DE MULTA                                 NAO RECEBER APOS 30 DIAS DO VENCIMENTO.                                                                                                                                                                                                         01052100000000000000105210000000000000       009033990000627097989905211P000147
100000000000000000000009033990000627000000000000000000000000010002020032341805211900000000002            2  01323418052124052100000003168400000000001N010521000000000000000000000000000000000000000000000000000000000000000100032341847803PRISCILA ALVES DE FRANCA MIRANDA        RUA CARLOS JOSE BORSTENS - 50 AP.91 - AV            11702750                                                            000149
2SR. CAIXA, APOS O VENCIMENTO COBRAR 2% DE MULTA                                 NAO RECEBER APOS 30 DIAS DO VENCIMENTO.                                                                                                                                                                                                         01052100000000000000105210000000000000       0090339900006270323418052119000150
100000000000000000000009033990000627000000000000000000000000010002020061915505211500000000002            2  01619155052126052100000001978690000000001N010521000000000000000000000000000000000000000000000000000000000000000100061915599849NOE ERMINIO CIOFFI                      RUA ASTURIA - 106 - IMIRIN - SAO PAULO -            02540000                                                            000152
2SR. CAIXA, APOS O VENCIMENTO COBRAR 2% DE MULTA                                 NAO RECEBER APOS 30 DIAS DO VENCIMENTO.                                                                                                                                                                                                         01052100000000000000105210000000000000       0090339900006270619155052115000153
100000000000000000000009033990000627000000000000000000000000010002020016050605211400000000002            2  01160506052124052100000002940870000000001N010521000000000000000000000000000000000000000000000000000000000000000100016050684898ANDRE RODRIGUES DE OLIVEIRA             RUA CORACAO PAULISTA - 14 - FAZENDA ITAI            08132430                                                            000155
2SR. CAIXA, APOS O VENCIMENTO COBRAR 2% DE MULTA                                 NAO RECEBER APOS 30 DIAS DO VENCIMENTO.                                                                                                                                                                                                         01052100000000000000105210000000000000       0090339900006270160506052114000156
9                                                                                                                                                                                                                                                                                                                                                                                                         000157