01REMESSA01COBRANCA       00000000000005331186HB SANTOS CONSTRUTORA E INCORP237BRADESCO       100123        MX0000064                                                                                                                                                                                                                                                                                     000001
100000000000000000000009033990000995400000000000000000000000010002020005723201231P00000000002            2  01057232012323012300000002918870000000001N090123000000000000000000000000000000000000000000000000000000000000000100005723255843FRANCISCO DE ASSIS DA SILVA             PRACA NICOLAU GERAIGIRE - 25 VISOR - JAR            11095110                                                            000002
2SR. CAIXA, APOS O VENCIMENTO COBRAR 2% DE MULTA                                 NAO RECEBER APOS 30 DIAS DO VENCIMENTO.                                                                                                                                                                                                         10012300000000000001001230000000000000       009033990000995405723201231P000003
100000000000000000000009033990000995400000000000000000000000010002020004928101231400000000002            2  01049281012323012300000002854430000000001N090123000000000000000000000000000000000000000000000000000000000000000100004928157800ADEMIR APARECIDO ANTUNES                RUA URUGUAI - 89 AP.105 - JARDIM GUILHER            11702300                                                            000005
2SR. CAIXA, APOS O VENCIMENTO COBRAR 2% DE MULTA                                 NAO RECEBER APOS 30 DIAS DO VENCIMENTO.                                                                                                                                                                                                         10012300000000000001001230000000000000       0090339900009954049281012314000006
100000000000000000000009033990000995400000000000000000000000010002020032589101231300000000002            2  01325891012323012300000002761870000000001N090123000000000000000000000000000000000000000000000000000000000000000100032589165862RENATA ISABEL MARTINS SILVA             RUA HERCULANO DE FREITAS - 257 - FUNDACA            09520280                                                            000008
2SR. CAIXA, APOS O VENCIMENTO COBRAR 2% DE MULTA                                 NAO RECEBER APOS 30 DIAS DO VENCIMENTO.                                                                                                                                                                                                         10012300000000000001001230000000000000       0090339900009954325891012313000009
100000000000000000000009033990000995400000000000000000000000010002020088339301231700000000002            2  01883393012323012300000002791810000000001N090123000000000000000000000000000000000000000000000000000000000000000100088339319868MARCIA SIQUEIRA MELLO                   RUA ADELINO ALVES - 81 - SANTO AMARO - S            04710120                                                            000011
2SR. CAIXA, APOS O VENCIMENTO COBRAR 2% DE MULTA                                 NAO RECEBER APOS 30 DIAS DO VENCIMENTO.                                                                                                                                                                                                         10012300000000000001001230000000000000       0090339900009954883393012317000012
100000000000000000000009033990000995400000000000000000000000010002020046391201231200000000002            2  01463912012323012300000002896130000000001N090123000000000000000000000000000000000000000000000000000000000000000100046391265810PAMELLA RODRIGUES DE OLIVEIRA           RUA AUGUSTA - 183 AP.301 BL.2A - VILA AU            07025130                                                            000014
2SR. CAIXA, APOS O VENCIMENTO COBRAR 2% DE MULTA                                 NAO RECEBER APOS 30 DIAS DO VENCIMENTO.                                                                                                                                                                                                         10012300000000000001001230000000000000       0090339900009954463912012312000015
100000000000000000000009033990000995400000000000000000000000010002020027964501231000000000002            2  01279645012323012300000002877570000000001N090123000000000000000000000000000000000000000000000000000000000000000100027964512838FABIO TADEU DE CAMPOS RADZIAVICIUS      RUA URUGUAI - 89 AP.94 - JARDIM GUILHERM            11702300                                                            000017
2SR. CAIXA, APOS O VENCIMENTO COBRAR 2% DE MULTA                                 NAO RECEBER APOS 30 DIAS DO VENCIMENTO.                                                                                                                                                                                                         10012300000000000001001230000000000000       0090339900009954279645012310000018
100000000000000000000009033990000995400000000000000000000000010002020011498301231900000000002            2  01114983012323012300000002155920000000001N090123000000000000000000000000000000000000000000000000000000000000000100011498329837GERSON GERALDO DAS NEVES                RUA DOMINGOS DELGADO - 144 - VILA SOUZA             02881070                                                            000020
2SR. CAIXA, APOS O VENCIMENTO COBRAR 2% DE MULTA                                 NAO RECEBER APOS 30 DIAS DO VENCIMENTO.                                                                                                                                                                                                         10012300000000000001001230000000000000       0090339900009954114983012319000021
100000000000000000000009033990000995400000000000000000000000010002020025214401231500000000002            2  01252144012323012300000002551950000000001N090123000000000000000000000000000000000000000000000000000000000000000100025214401833JOSE MAURICIO DOS SANTOS RODRIGUES      RUA JOAO DE MACEDO RIBEIRO - 49 - VILA N            08111101                                                            000023
2SR. CAIXA, APOS O VENCIMENTO COBRAR 2% DE MULTA                                 NAO RECEBER APOS 30 DIAS DO VENCIMENTO.                                                                                                                                                                                                         10012300000000000001001230000000000000       0090339900009954252144012315000024
100000000000000000000009033990000995400000000000000000000000010002020033119101231200000000002            2  01331191012323012300000002562750000000001N090123000000000000000000000000000000000000000000000000000000000000000100033119178802HUGO GOMES VENDRAME                     RUA SAO PAULO - 60 CASA 01 - VILA FREITA            06380110                                                            000026
2SR. CAIXA, APOS O VENCIMENTO COBRAR 2% DE MULTA                                 NAO RECEBER APOS 30 DIAS DO VENCIMENTO.                                                                                                                                                                                                         10012300000000000001001230000000000000       0090339900009954331191012312000027
100000000000000000000009033990000995400000000000000000000000010002020016631501231500000000002            2  01166315012323012300000002607470000000001N090123000000000000000000000000000000000000000000000000000000000000000100016631587468GILBERTO BEZERRA DA SILVA               AVENIDA JAIME TORRES - 745 CASA 3 - JARD            03670000                                                            000029
2SR. CAIXA, APOS O VENCIMENTO COBRAR 2% DE MULTA                                 NAO RECEBER APOS 30 DIAS DO VENCIMENTO.                                                                                                                                                                                                         10012300000000000001001230000000000000       0090339900009954166315012315000030
100000000000000000000009033990000995400000000000000000000000010002020007313201231800000000002            2  01073132012323012300000002588950000000001N090123000000000000000000000000000000000000000000000000000000000000000100007313251840SALVADOR GESUALDO PULVIRENTI            AVENIDA MARARI - 641 - VILA MARARI - SAO            04402010                                                            000032
2SR. CAIXA, APOS O VENCIMENTO COBRAR 2% DE MULTA                                 NAO RECEBER APOS 30 DIAS DO VENCIMENTO.                                                                                                                                                                                                         10012300000000000001001230000000000000       0090339900009954073132012318000033
100000000000000000000009033990000995400000000000000000000000010002020010676701231P00000000002            2  01106767012323012300000002702260000000001N090123000000000000000000000000000000000000000000000000000000000000000100010676723896MERCEDES CRISTINA ROCHA SANDOVAL        RUA URUGUAI - 89 AP.83 - JARDIM GUILHERM            11702300                                                            000035
2SR. CAIXA, APOS O VENCIMENTO COBRAR 2% DE MULTA                                 NAO RECEBER APOS 30 DIAS DO VENCIMENTO.                                                                                                                                                                                                         10012300000000000001001230000000000000       009033990000995410676701231P000036
100000000000000000000009033990000995400000000000000000000000010002020009502801231800000000002            2  01095028012323012300000002822060000000001N090123000000000000000000000000000000000000000000000000000000000000000100009502844831CLAUDIA ROCHA SANDOVAL                  RUA URUGUAI - 89 AP.64 - JARDIM GUILHERM            11702300                                                            000038
2SR. CAIXA, APOS O VENCIMENTO COBRAR 2% DE MULTA                                 NAO RECEBER APOS 30 DIAS DO VENCIMENTO.                                                                                                                                                                                                         10012300000000000001001230000000000000       0090339900009954095028012318000039
100000000000000000000009033990000995400000000000000000000000010002020007594201231700000000002            2  01075942012323012300000002533440000000001N090123000000000000000000000000000000000000000000000000000000000000000100007594247809JOSE LUIS DE OLIVEIRA                   DONA EGLANTINA PENTEADO DA SILVA PRADO -            13044162                                                            000041
2SR. CAIXA, APOS O VENCIMENTO COBRAR 2% DE MULTA                                 NAO RECEBER APOS 30 DIAS DO VENCIMENTO.                                                                                                                                                                                                         10012300000000000001001230000000000000       0090339900009954075942012317000042
100000000000000000000009033990000995400000000000000000000000010002020005288701231000000000002            2  01052887012323012300000002609700000000001N090123000000000000000000000000000000000000000000000000000000000000000100005288796858MARCELO RODRIGUES FERREIRA              RUA MARCOS ANTONIO MARQUES - 302 - JARDI            06433020                                                            000044
2SR. CAIXA, APOS O VENCIMENTO COBRAR 2% DE MULTA                                 NAO RECEBER APOS 30 DIAS DO VENCIMENTO.                                                                                                                                                                                                         10012300000000000001001230000000000000       0090339900009954052887012310000045
100000000000000000000009033990000995400000000000000000000000010002020015835901231P00000000002            2  01158359012323012300000002717630000000001N090123000000000000000000000000000000000000000000000000000000000000000100015835992823FLAVIO VERONEZ                          RUA ANDREA PAULINETTI - 127 AP.42 - BAIR            04707050                                                            000047
2SR. CAIXA, APOS O VENCIMENTO COBRAR 2% DE MULTA                                 NAO RECEBER APOS 30 DIAS DO VENCIMENTO.                                                                                                                                                                                                         10012300000000000001001230000000000000       009033990000995415835901231P000048
100000000000000000000009033990000995400000000000000000000000010002020000438101231800000000002            2  01004381012323012300000003067450000000001N090123000000000000000000000000000000000000000000000000000000000000000100000438161858WAGNECY VILLA NOVA LIEN                 MACHADO - 106 - VILA AUGUSTA - GUARULHOS            07025210                                                            000050
2SR. CAIXA, APOS O VENCIMENTO COBRAR 2% DE MULTA                                 NAO RECEBER APOS 30 DIAS DO VENCIMENTO.                                                                                                                                                                                                         10012300000000000001001230000000000000       0090339900009954004381012318000051
100000000000000000000009033990000995400000000000000000000000010002020026004501231400000000002            2  01260045012323012300000002717670000000001N090123000000000000000000000000000000000000000000000000000000000000000100026004595888EDIVALDO BEZERRA DA SILVA               AVENIDA GUATEMALA - 550 - JARDIM PINHEIR            09854750                                                            000053
2SR. CAIXA, APOS O VENCIMENTO COBRAR 2% DE MULTA                                 NAO RECEBER APOS 30 DIAS DO VENCIMENTO.                                                                                                                                                                                                         10012300000000000001001230000000000000       0090339900009954260045012314000054
100000000000000000000009033990000995400000000000000000000000010002020012470701231900000000002            2  01124707012323012300000002899550000000001N090123000000000000000000000000000000000000000000000000000000000000000100012470771870HILTON FERNANDES OLIVARES               RUA PATIO DA ESTACAO - 115 - BAIRRO CENT            09450000                                                            000056
2SR. CAIXA, APOS O VENCIMENTO COBRAR 2% DE MULTA                                 NAO RECEBER APOS 30 DIAS DO VENCIMENTO.                                                                                                                                                                                                         10012300000000000001001230000000000000       0090339900009954124707012319000057
100000000000000000000009033990000995400000000000000000000000010002020014025401231800000000002            2  01140254012323012300000003179280000000001N090123000000000000000000000000000000000000000000000000000000000000000100014025420899ANDREIA APARECIDA TAVARES BASTOS        RUA IBATIBA - 234 CASA 27 - RES.BOUGANVI            09220608                                                            000059
2SR. CAIXA, APOS O VENCIMENTO COBRAR 2% DE MULTA                                 NAO RECEBER APOS 30 DIAS DO VENCIMENTO.                                                                                                                                                                                                         10012300000000000001001230000000000000       0090339900009954140254012318000060
100000000000000000000009033990000995400000000000000000000000010002020018590001231700000000002            2  01185900012323012300000002879310000000001N090123000000000000000000000000000000000000000000000000000000000000000100018590038858JOSE SANDRO ROCHA SILVA                 RUA SANTO ANTONIO DO AVENTUREIRO - 216 A            07143040                                                            000062
2SR. CAIXA, APOS O VENCIMENTO COBRAR 2% DE MULTA                                 NAO RECEBER APOS 30 DIAS DO VENCIMENTO.                                                                                                                                                                                                         10012300000000000001001230000000000000       0090339900009954185900012317000063
100000000000000000000009033990000995400000000000000000000000010002020088578701231500000000002            2  01885787012323012300000002369260000000001N090123000000000000000000000000000000000000000000000000000000000000000100088578704800GILBERTO DO ESPIRITO SANTO SILVA        RUA URUGUAI - 89 AP.23 - JARDIM GUILHERM            11702300                                                            000065
2SR. CAIXA, APOS O VENCIMENTO COBRAR 2% DE MULTA                                 NAO RECEBER APOS 30 DIAS DO VENCIMENTO.                                                                                                                                                                                                         10012300000000000001001230000000000000       0090339900009954885787012315000066
100000000000000000000009033990000995400000000000000000000000010002020015378201231600000000002            2  01153782012323012300000003540360000000001N090123000000000000000000000000000000000000000000000000000000000000000100015378295807SERGIO FERNANDES                        RUA VALDEMAR MARTINS - 116 AP.115 - BAIR            02535000                                                            000068
2SR. CAIXA, APOS O VENCIMENTO COBRAR 2% DE MULTA                                 NAO RECEBER APOS 30 DIAS DO VENCIMENTO.                                                                                                                                                                                                         10012300000000000001001230000000000000       0090339900009954153782012316000069
100000000000000000000009033990000995400000000000000000000000010002020005105201231300000000002            2  01051052012323012300000002825630000000001N090123000000000000000000000000000000000000000000000000000000000000000100005105287835FABIO MOTTOLA DE OLIVEIRA               RUA RAUL MAZZONI - 133 - CHACARA AREAL -            13331022                                                            000071
2SR. CAIXA, APOS O VENCIMENTO COBRAR 2% DE MULTA                                 NAO RECEBER APOS 30 DIAS DO VENCIMENTO.                                                                                                                                                                                                         10012300000000000001001230000000000000       0090339900009954051052012313000072
100000000000000000000009033990000995400000000000000000000000010002020020792701231200000000002            2  01207927012323012300000002937620000000001N090123000000000000000000000000000000000000000000000000000000000000000120792791000147TROVAO COMERCIO DE ALIMENTOS LTDA-ME    RUA QUINTA DA MAGNOLIA - 67 - JARDIM IPA            03582100                                                            000074
2SR. CAIXA, APOS O VENCIMENTO COBRAR 2% DE MULTA                                 NAO RECEBER APOS 30 DIAS DO VENCIMENTO.                                                                                                                                                                                                         10012300000000000001001230000000000000       0090339900009954207927012312000075
100000000000000000000009033990000995400000000000000000000000010002020007648101231600000000002            2  01076481012323012300000002758440000000001N090123000000000000000000000000000000000000000000000000000000000000000100007648112825MARA REGINA CAPRIO                      RUA DA TRINDADE - 790 - VILA IDEAL - SAO            15060280                                                            000077
2SR. CAIXA, APOS O VENCIMENTO COBRAR 2% DE MULTA                                 NAO RECEBER APOS 30 DIAS DO VENCIMENTO.                                                                                                                                                                                                         10012300000000000001001230000000000000       0090339900009954076481012316000078
100000000000000000000009033990000995400000000000000000000000010002020031157401231500000000002            2  01311574012323012300000002961880000000001N090123000000000000000000000000000000000000000000000000000000000000000100031157420885TALITA ANICHIARICO COSSI                RUA CNEO POMPEO DE CAMARGO - 817 - JARDI            13060150                                                            000080
2SR. CAIXA, APOS O VENCIMENTO COBRAR 2% DE MULTA                                 NAO RECEBER APOS 30 DIAS DO VENCIMENTO.                                                                                                                                                                                                         10012300000000000001001230000000000000       0090339900009954311574012315000081
100000000000000000000009033990000995400000000000000000000000010002020035572501231P00000000002            2  01355725012323012300000003149170000000001N090123000000000000000000000000000000000000000000000000000000000000000100035572536865MARIA SIMONE SANTOS                     RUA JOSE PEZZOLO - 68 - VILA ELDIZIA - S            09181660                                                            000083
2SR. CAIXA, APOS O VENCIMENTO COBRAR 2% DE MULTA                                 NAO RECEBER APOS 30 DIAS DO VENCIMENTO.                                                                                                                                                                                                         10012300000000000001001230000000000000       009033990000995435572501231P000084
100000000000000000000009033990000995400000000000000000000000010002020008800301231700000000002            2  01088003012323012300000002869300000000001N090123000000000000000000000000000000000000000000000000000000000000000100008800368425INGO DIMITRI PEREIRA DA NOBREGA         RUA PROFESSOR MENDES PIMENTEL - 362 - JA            03973010                                                            000086
2SR. CAIXA, APOS O VENCIMENTO COBRAR 2% DE MULTA                                 NAO RECEBER APOS 30 DIAS DO VENCIMENTO.                                                                                                                                                                                                         10012300000000000001001230000000000000       0090339900009954088003012317000087
100000000000000000000009033990000995400000000000000000000000010002020005054101231100000000002            2  01050541012323012300000002776750000000001N090123000000000000000000000000000000000000000000000000000000000000000100005054169806PAULO ROBERTO DE MATTOS                 JARDIM BOTANICO - 849 - DISTRITO DE SOUS            13106258                                                            000089
2SR. CAIXA, APOS O VENCIMENTO COBRAR 2% DE MULTA                                 NAO RECEBER APOS 30 DIAS DO VENCIMENTO.                                                                                                                                                                                                         10012300000000000001001230000000000000       0090339900009954050541012311000090
100000000000000000000009033990000995400000000000000000000000010002020007552101231800000000002            2  01075521012323012300000002776750000000001N090123000000000000000000000000000000000000000000000000000000000000000100007552151846MAURO BORDONI                           AVENIDA DR. AUGUSTO DE TOLEDO - 769 AP.6            09540080                                                            000092
2SR. CAIXA, APOS O VENCIMENTO COBRAR 2% DE MULTA                                 NAO RECEBER APOS 30 DIAS DO VENCIMENTO.                                                                                                                                                                                                         10012300000000000001001230000000000000       0090339900009954075521012318000093
100000000000000000000009033990000995400000000000000000000000010002020012744201231000000000002            2  01127442012323012300000003089550000000001N090123000000000000000000000000000000000000000000000000000000000000000100012744201804ADAIL JOSE DE SOUSA                     RUA ROSARIA - 303 - BAIRRO SACADURA CABR            09061080                                                            000095
2SR. CAIXA, APOS O VENCIMENTO COBRAR 2% DE MULTA                                 NAO RECEBER APOS 30 DIAS DO VENCIMENTO.                                                                                                                                                                                                         10012300000000000001001230000000000000       0090339900009954127442012310000096
100000000000000000000009033990000995400000000000000000000000010002020068320601231800000000002            2  01683206012323012300000010941590000000001N090123000000000000000000000000000000000000000000000000000000000000000100068320663849ANTONIO CAVALCANTE LIMA                 RUA AMAZONAS - 1188 - CENTRO - SAO CAETA            09540201                                                            000098
2SR. CAIXA, APOS O VENCIMENTO COBRAR 2% DE MULTA                                 NAO RECEBER APOS 30 DIAS DO VENCIMENTO.                                                                                                                                                                                                         10012300000000000001001230000000000000       0090339900009954683206012318000099
100000000000000000000009033990000995400000000000000000000000010002020088926201231P00000000002            2  01889262012323012300000002298560000000001N090123000000000000000000000000000000000000000000000000000000000000000100088926230872VALDEMAR LATANCE FILHO                  RUA MELO PINTO DA SILVA - 111 CASA 103 -            18116265                                                            000101
2SR. CAIXA, APOS O VENCIMENTO COBRAR 2% DE MULTA                                 NAO RECEBER APOS 30 DIAS DO VENCIMENTO.                                                                                                                                                                                                         10012300000000000001001230000000000000       009033990000995488926201231P000102
9                                                                                                                                                                                                                                                                                                                                                                                                         000103