01REMESSA01COBRANCA       00000000000008017025HB SANTOS CONSTRUTORA E INCORP237BRADESCO       010424        MX0000199                                                                                                                                                                                                                                                                                     000001
100000000000000000000009033990000627000000000000000000000000010002020016479004241200000000002            2  01164790042409042400000005886210000000001N010424000000000000000000000000000000000000000000000000000000000000000100016479002806LOURDES PEREIRA DE QUEIROZ SECANECHIA   RUA PAULINO CURSI - 437 - CIDADE SAO MAT            03960060                                                            000002
2SR. CAIXA, APOS O VENCIMENTO COBRAR 2% DE MULTA                                 NAO RECEBER APOS 30 DIAS DO VENCIMENTO.                                                                                                                                                                                                         01042400000000000000104240000000000000       0090339900006270164790042412000003
100000000000000000000009033990000627000000000000000000000000010002020017229704242200000000002            2  01172297042409042400000004479360000000001N010424000000000000000000000000000000000000000000000000000000000000000100017229751802BERENICE VIEIRA KERSTING                RUA ATIBAIA - 17 AP.417 - BAIRRO IMPERAD            11707380                                                            000005
2SR. CAIXA, APOS O VENCIMENTO COBRAR 2% DE MULTA                                 NAO RECEBER APOS 30 DIAS DO VENCIMENTO.                                                                                                                                                                                                         01042400000000000000104240000000000000       0090339900006270172297042422000006
100000000000000000000009033990000627000000000000000000000000010002020009361404241P00000000002            2  01093614042409042400000004273410000000001N010424000000000000000000000000000000000000000000000000000000000000000100009361471805JOSE BARBOSA DA SILVA                   RUA ALFREDO INACIO TRINDADE  - 60 AP.44             02344100                                                            000008
2SR. CAIXA, APOS O VENCIMENTO COBRAR 2% DE MULTA                                 NAO RECEBER APOS 30 DIAS DO VENCIMENTO.                                                                                                                                                                                                         01042400000000000000104240000000000000       009033990000627009361404241P000009
100000000000000000000009033990000627000000000000000000000000010002020012756904241300000000002            2  01127569042409042400000003688870000000001N010424000000000000000000000000000000000000000000000000000000000000000100012756959812ITAMAR JUVENAL DIAS DA SILVA            RUA ELISEU REINALDO MORAES VIEIRA - 90 A            02858000                                                            000011
2SR. CAIXA, APOS O VENCIMENTO COBRAR 2% DE MULTA                                 NAO RECEBER APOS 30 DIAS DO VENCIMENTO.                                                                                                                                                                                                         01042400000000000000104240000000000000       0090339900006270127569042413000012
100000000000000000000009033990000627000000000000000000000000010002020029433604241700000000002            2  01294336042411042400000003051870000000001N010424000000000000000000000000000000000000000000000000000000000000000100029433631897MARIO MUNIZ                             RUA JOSE CALIXTO DO CARMO - 286 AP.53 -             11702690                                                            000014
2SR. CAIXA, APOS O VENCIMENTO COBRAR 2% DE MULTA                                 NAO RECEBER APOS 30 DIAS DO VENCIMENTO.                                                                                                                                                                                                         01042400000000000000104240000000000000       0090339900006270294336042417000015
100000000000000000000009033990000627000000000000000000000000010002020005029804241P00000000002            2  01050298042409042400000003761010000000001N010424000000000000000000000000000000000000000000000000000000000000000100005029828885LAURINETE DA CONCEICAO DE NORONHA       RUA MARIA LUCIA DE TOLEDO LEITE MORAES -            04434040                                                            000017
2SR. CAIXA, APOS O VENCIMENTO COBRAR 2% DE MULTA                                 NAO RECEBER APOS 30 DIAS DO VENCIMENTO.                                                                                                                                                                                                         01042400000000000000104240000000000000       009033990000627005029804241P000018
100000000000000000000009033990000627000000000000000000000000010002020013388904241100000000002            2  01133889042411042400000002975120000000001N010424000000000000000000000000000000000000000000000000000000000000000100013388936889NEUTON DE SOUZA RAMOS                   RUA JOSE CALIXTO DO CARMO - 286 AP.61 -             11702690                                                            000020
2SR. CAIXA, APOS O VENCIMENTO COBRAR 2% DE MULTA                                 NAO RECEBER APOS 30 DIAS DO VENCIMENTO.                                                                                                                                                                                                         01042400000000000000104240000000000000       0090339900006270133889042411000021
100000000000000000000009033990000627000000000000000000000000010002020012774904241100000000002            2  01127749042411042400000003030960000000001N010424000000000000000000000000000000000000000000000000000000000000000100012774906865JOSE MILTON SANTIAGO                    RUA BATATAIS - 47 - CIDADE ESTELA - POA             08563140                                                            000023
2SR. CAIXA, APOS O VENCIMENTO COBRAR 2% DE MULTA                                 NAO RECEBER APOS 30 DIAS DO VENCIMENTO.                                                                                                                                                                                                         01042400000000000000104240000000000000       0090339900006270127749042411000024
100000000000000000000009033990000627000000000000000000000000010002020007574904241100000000002            2  01075749042411042400000002861460000000001N010424000000000000000000000000000000000000000000000000000000000000000100007574936889JORGE LUCIANO PEREIRA BORRIELLO         RUA JOSE CALIXTO DO CARMO - 286 AP.54 -             11702690                                                            000026
2SR. CAIXA, APOS O VENCIMENTO COBRAR 2% DE MULTA                                 NAO RECEBER APOS 30 DIAS DO VENCIMENTO.                                                                                                                                                                                                         01042400000000000000104240000000000000       0090339900006270075749042411000027
100000000000000000000009033990000627000000000000000000000000010002020008214904241400000000002            2  01082149042411042400000002904870000000001N010424000000000000000000000000000000000000000000000000000000000000000100008214973830JAMIL CHALA                             RUA JOSE CALIXTO DO CARMO - 286 AP.22 -             11702690                                                            000029
2SR. CAIXA, APOS O VENCIMENTO COBRAR 2% DE MULTA                                 NAO RECEBER APOS 30 DIAS DO VENCIMENTO.                                                                                                                                                                                                         01042400000000000000104240000000000000       0090339900006270082149042414000030
100000000000000000000009033990000627000000000000000000000000010002020032495004241100000000002            2  01324950042411042400000003255290000000001N010424000000000000000000000000000000000000000000000000000000000000000100032495004881PAULO EDUARDO DOS SANTOS                RUA REPUBLICA DO IRAQUE - 1119 - CAMPO B            04611002                                                            000032
2SR. CAIXA, APOS O VENCIMENTO COBRAR 2% DE MULTA                                 NAO RECEBER APOS 30 DIAS DO VENCIMENTO.                                                                                                                                                                                                         01042400000000000000104240000000000000       0090339900006270324950042411000033
100000000000000000000009033990000627000000000000000000000000010002020016498004241900000000002            2  01164980042411042400000002854960000000001N010424000000000000000000000000000000000000000000000000000000000000000100016498053810GILMA CEZARIO GARCIA CORRITORI          RUA LAURENTINO XAVIER DOS SANTOS - 336 -            08240740                                                            000035
2SR. CAIXA, APOS O VENCIMENTO COBRAR 2% DE MULTA                                 NAO RECEBER APOS 30 DIAS DO VENCIMENTO.                                                                                                                                                                                                         01042400000000000000104240000000000000       0090339900006270164980042419000036
100000000000000000000009033990000627000000000000000000000000010002020029339004241800000000002            2  01293390042411042400000003052900000000001N010424000000000000000000000000000000000000000000000000000000000000000100029339051831RONALD DIDOFF                           RUA CORONEL FERREIRA BRAGA - 188 - VILA             03522010                                                            000038
2SR. CAIXA, APOS O VENCIMENTO COBRAR 2% DE MULTA                                 NAO RECEBER APOS 30 DIAS DO VENCIMENTO.                                                                                                                                                                                                         01042400000000000000104240000000000000       0090339900006270293390042418000039
100000000000000000000009033990000627000000000000000000000000010002020017357804241P00000000002            2  01173578042411042400000003233300000000001N010424000000000000000000000000000000000000000000000000000000000000000100017357859894MARCIO GUIMARAES                        RUA GENERAL CAMARA - 188 SALA 11 - CENTR            11010120                                                            000041
2SR. CAIXA, APOS O VENCIMENTO COBRAR 2% DE MULTA                                 NAO RECEBER APOS 30 DIAS DO VENCIMENTO.                                                                                                                                                                                                         01042400000000000000104240000000000000       009033990000627017357804241P000042
100000000000000000000009033990000627000000000000000000000000010002020005529604241400000000002            2  01055296042411042400000003009090000000001N010424000000000000000000000000000000000000000000000000000000000000000100005529616801JOAQUIM JORGE DA COSTA                  RUA JOSE CALIXTO DO CARMO - 286 AP.106 -            11702690                                                            000044
2SR. CAIXA, APOS O VENCIMENTO COBRAR 2% DE MULTA                                 NAO RECEBER APOS 30 DIAS DO VENCIMENTO.                                                                                                                                                                                                         01042400000000000000104240000000000000       0090339900006270055296042414000045
100000000000000000000009033990000627000000000000000000000000010002020015550704241000000000002            2  01155507042409042400000002850850000000001N010424000000000000000000000000000000000000000000000000000000000000000100015550706806MARY MIWA                               RUA CARLOS JOSE BORSTENS - 50 AP.105 - A            11702750                                                            000047
2SR. CAIXA, APOS O VENCIMENTO COBRAR 2% DE MULTA                                 NAO RECEBER APOS 30 DIAS DO VENCIMENTO.                                                                                                                                                                                                         01042400000000000000104240000000000000       0090339900006270155507042410000048
100000000000000000000009033990000627000000000000000000000000010002020015464604241000000000002            2  01154646042411042400000003163270000000001N010424000000000000000000000000000000000000000000000000000000000000000100015464647864SONIA TERESA VOLPATO                    RUA JOSE CALIXTO DO CARMO - 286 AP.73 -             11702690                                                            000050
2SR. CAIXA, APOS O VENCIMENTO COBRAR 2% DE MULTA                                 NAO RECEBER APOS 30 DIAS DO VENCIMENTO.                                                                                                                                                                                                         01042400000000000000104240000000000000       0090339900006270154646042410000051
100000000000000000000009033990000627000000000000000000000000010002020008657804241P00000000002            2  01086578042411042400000003131530000000001N010424000000000000000000000000000000000000000000000000000000000000000100008657886855ARLINDO DA CRUZ                         AVENIDA ARICANDUVA - 8.256 AP.54 BL.10 -            03951220                                                            000053
2SR. CAIXA, APOS O VENCIMENTO COBRAR 2% DE MULTA                                 NAO RECEBER APOS 30 DIAS DO VENCIMENTO.                                                                                                                                                                                                         01042400000000000000104240000000000000       009033990000627008657804241P000054
100000000000000000000009033990000627000000000000000000000000010002020059735104241800000000002            2  01597351042409042400000001774290000000001N010424000000000000000000000000000000000000000000000000000000000000000100059735180863HELIO JOSE MARQUES                      RUA MARTIM AFONSO DE SOUZA - 1007 AP.102            11702790                                                            000056
2SR. CAIXA, APOS O VENCIMENTO COBRAR 2% DE MULTA                                 NAO RECEBER APOS 30 DIAS DO VENCIMENTO.                                                                                                                                                                                                         01042400000000000000104240000000000000       0090339900006270597351042418000057
100000000000000000000009033990000627000000000000000000000000010002020026347804241100000000002            2  01263478042411042400000003347510000000001N010424000000000000000000000000000000000000000000000000000000000000000100026347872862VALDECI SILVA MEIRELES                  RUA JOSE BATISTA DA SILVA - 292 - JARDIM            06851470                                                            000059
2SR. CAIXA, APOS O VENCIMENTO COBRAR 2% DE MULTA                                 NAO RECEBER APOS 30 DIAS DO VENCIMENTO.                                                                                                                                                                                                         01042400000000000000104240000000000000       0090339900006270263478042411000060
100000000000000000000009033990000627000000000000000000000000010002020009797604241300000000002            2  01097976042411042400000002995180000000001N010424000000000000000000000000000000000000000000000000000000000000000100009797626857RICARDO SOBRAL DE OLIVEIRA              RUA 23 DE MAIO - 139 AP.32 - VILA MIRIM             11704690                                                            000062
2SR. CAIXA, APOS O VENCIMENTO COBRAR 2% DE MULTA                                 NAO RECEBER APOS 30 DIAS DO VENCIMENTO.                                                                                                                                                                                                         01042400000000000000104240000000000000       0090339900006270097976042413000063
100000000000000000000009033990000627000000000000000000000000010002020022728404241400000000002            2  01227284042411042400000003241030000000001N010424000000000000000000000000000000000000000000000000000000000000000100022728497842WILLIAN DE SOUZA MELLO                  RUA JOSE CALIXTO DO CARMO - 286 AP.111 -            11702690                                                            000065
2SR. CAIXA, APOS O VENCIMENTO COBRAR 2% DE MULTA                                 NAO RECEBER APOS 30 DIAS DO VENCIMENTO.                                                                                                                                                                                                         01042400000000000000104240000000000000       0090339900006270227284042414000066
100000000000000000000009033990000627000000000000000000000000010002020016909704241900000000002            2  01169097042411042400000002864050000000001N010424000000000000000000000000000000000000000000000000000000000000000100016909746805EDIVALDO SANTANA DOS SANTOS             ESTRADA JOAO GASPAR DELGADO - 80 AP.213             08536100                                                            000068
2SR. CAIXA, APOS O VENCIMENTO COBRAR 2% DE MULTA                                 NAO RECEBER APOS 30 DIAS DO VENCIMENTO.                                                                                                                                                                                                         01042400000000000000104240000000000000       0090339900006270169097042419000069
100000000000000000000009033990000627000000000000000000000000010002020022036004241600000000002            2  01220360042409042400000004456640000000001N010424000000000000000000000000000000000000000000000000000000000000000100022036003818DERLIS TERAN QUIROGA ROGATO             RUA JOAO RIBEIRO - 320 AP.131SB - CAMPES            09070250                                                            000071
2SR. CAIXA, APOS O VENCIMENTO COBRAR 2% DE MULTA                                 NAO RECEBER APOS 30 DIAS DO VENCIMENTO.                                                                                                                                                                                                         01042400000000000000104240000000000000       0090339900006270220360042416000072
100000000000000000000009033990000627000000000000000000000000010002020017229704243000000000002            2  01172297042409042400000004301030000000001N010424000000000000000000000000000000000000000000000000000000000000000100017229751802BERENICE VIEIRA KERSTING                RUA ATIBAIA - 17 AP.417 - BAIRRO IMPERAD            11707380                                                            000074
2SR. CAIXA, APOS O VENCIMENTO COBRAR 2% DE MULTA                                 NAO RECEBER APOS 30 DIAS DO VENCIMENTO.                                                                                                                                                                                                         01042400000000000000104240000000000000       0090339900006270172297042430000075
100000000000000000000009033990000627000000000000000000000000010002020033451604241700000000002            2  01334516042411042400000002592470000000001N010424000000000000000000000000000000000000000000000000000000000000000100033451620839ARAO ELISIARIO  NUNES                   RUA JOSE CALIXTO DO CARMO - 286 AP.64 -             11702690                                                            000077
2SR. CAIXA, APOS O VENCIMENTO COBRAR 2% DE MULTA                                 NAO RECEBER APOS 30 DIAS DO VENCIMENTO.                                                                                                                                                                                                         01042400000000000000104240000000000000       0090339900006270334516042417000078
100000000000000000000009033990000627000000000000000000000000010002020011369104241500000000002            2  01113691042411042400000002831940000000001N010424000000000000000000000000000000000000000000000000000000000000000100011369165803ELIANA CORREA DE OLIVEIRA               RUA MAESTRO ZEFERINO SANTANA - 65 - VILA            18040010                                                            000080
2SR. CAIXA, APOS O VENCIMENTO COBRAR 2% DE MULTA                                 NAO RECEBER APOS 30 DIAS DO VENCIMENTO.                                                                                                                                                                                                         01042400000000000000104240000000000000       0090339900006270113691042415000081
100000000000000000000009033990000627000000000000000000000000010002020002253804241900000000002            2  01022538042411042400000002517040000000001N010424000000000000000000000000000000000000000000000000000000000000000100002253816809EDMILSON ALVES DA SILVA                 RUA JOSE CALIXTO DO CARMO - 286 AP.93 -             11702690                                                            000083
2SR. CAIXA, APOS O VENCIMENTO COBRAR 2% DE MULTA                                 NAO RECEBER APOS 30 DIAS DO VENCIMENTO.                                                                                                                                                                                                         01042400000000000000104240000000000000       0090339900006270022538042419000084
100000000000000000000009033990000627000000000000000000000000010002020037517704241900000000002            2  01375177042409042400000004726970000000001N010424000000000000000000000000000000000000000000000000000000000000000100037517785869RENATO JOSE DE LIMA MELO                RUA ARISTIDES LOBO - 148 AP.41 BLOCO 03             03041100                                                            000086
2SR. CAIXA, APOS O VENCIMENTO COBRAR 2% DE MULTA                                 NAO RECEBER APOS 30 DIAS DO VENCIMENTO.                                                                                                                                                                                                         01042400000000000000104240000000000000       0090339900006270375177042419000087
100000000000000000000009033990000627000000000000000000000000010002020070367904241P00000000002            2  01703679042411042400000004439980000000001N010424000000000000000000000000000000000000000000000000000000000000000100070367949849TEODOMIRO ALVES DOS SANTOS              RUA ANDRE PAZ - 13 - JARDIM SANTO ANDRE             08390230                                                            000089
2SR. CAIXA, APOS O VENCIMENTO COBRAR 2% DE MULTA                                 NAO RECEBER APOS 30 DIAS DO VENCIMENTO.                                                                                                                                                                                                         01042400000000000000104240000000000000       009033990000627070367904241P000090
100000000000000000000009033990000627000000000000000000000000010002020070367904242800000000002            2  01703679042411042400000002363670000000001N010424000000000000000000000000000000000000000000000000000000000000000100070367949849TEODOMIRO ALVES DOS SANTOS              RUA ANDRE PAZ - 13 - JARDIM SANTO ANDRE             08390230                                                            000092
2SR. CAIXA, APOS O VENCIMENTO COBRAR 2% DE MULTA                                 NAO RECEBER APOS 30 DIAS DO VENCIMENTO.                                                                                                                                                                                                         01042400000000000000104240000000000000       0090339900006270703679042428000093
100000000000000000000009033990000627000000000000000000000000010002020004410804241900000000002            2  01044108042409042400000003512180000000001N010424000000000000000000000000000000000000000000000000000000000000000100004410802860LUIZ ALBERTO MARINHO                    AVENIDA BOSQUE DA SAUDE - 546 AP11 -  -             04142081                                                            000095
2SR. CAIXA, APOS O VENCIMENTO COBRAR 2% DE MULTA                                 NAO RECEBER APOS 30 DIAS DO VENCIMENTO.                                                                                                                                                                                                         01042400000000000000104240000000000000       0090339900006270044108042419000096
100000000000000000000009033990000627000000000000000000000000010002020004767604241400000000002            2  01047676042409042400000004688650000000001N010424000000000000000000000000000000000000000000000000000000000000000100004767679893ORLANDO GRANDE FILHO                    RUA ORLANDO MIGLIARI - 101 - JARDIM OURO            19906140                                                            000098
2SR. CAIXA, APOS O VENCIMENTO COBRAR 2% DE MULTA                                 NAO RECEBER APOS 30 DIAS DO VENCIMENTO.                                                                                                                                                                                                         01042400000000000000104240000000000000       0090339900006270047676042414000099
100000000000000000000009033990000627000000000000000000000000010002020064677804241P00000000002            2  01646778042409042400000003771670000000001N010424000000000000000000000000000000000000000000000000000000000000000100064677850887ANTONIO CARLOS DE OLIVEIRA              RUA DR.ANTONIO MAZILLI FILHO - 435 - PAR            02230070                                                            000101
2SR. CAIXA, APOS O VENCIMENTO COBRAR 2% DE MULTA                                 NAO RECEBER APOS 30 DIAS DO VENCIMENTO.                                                                                                                                                                                                         01042400000000000000104240000000000000       009033990000627064677804241P000102
100000000000000000000009033990000627000000000000000000000000010002020058488604241200000000002            2  01584886042409042400000003440070000000001N010424000000000000000000000000000000000000000000000000000000000000000100058488618972ADAILTON ZANUTTO MORESCHI               R:RAPHAEL UNGARO - COND.RESERVA SERRA Q.            13212138                                                            000104
2SR. CAIXA, APOS O VENCIMENTO COBRAR 2% DE MULTA                                 NAO RECEBER APOS 30 DIAS DO VENCIMENTO.                                                                                                                                                                                                         01042400000000000000104240000000000000       0090339900006270584886042412000105
100000000000000000000009033990000627000000000000000000000000010002020031861504241500000000002            2  01318615042411042400000002683030000000001N010424000000000000000000000000000000000000000000000000000000000000000100031861586809VANIA TOMAZ                              -  -  -  -                                         00000000                                                            000107
2SR. CAIXA, APOS O VENCIMENTO COBRAR 2% DE MULTA                                 NAO RECEBER APOS 30 DIAS DO VENCIMENTO.                                                                                                                                                                                                         01042400000000000000104240000000000000       0090339900006270318615042415000108
100000000000000000000009033990000627000000000000000000000000010002020007715304241700000000002            2  01077153042409042400000004230890000000001N010424000000000000000000000000000000000000000000000000000000000000000100007715360627NILTON RENNAN OLIVEIRA GOMES FILHO      RUA CARLOS JOSE BORSTENS - 50 AP.21 - AV            11702750                                                            000110
2SR. CAIXA, APOS O VENCIMENTO COBRAR 2% DE MULTA                                 NAO RECEBER APOS 30 DIAS DO VENCIMENTO.                                                                                                                                                                                                         01042400000000000000104240000000000000       0090339900006270077153042417000111
100000000000000000000009033990000627000000000000000000000000010002020007194004241800000000002            2  01071940042411042400000003000290000000001N010424000000000000000000000000000000000000000000000000000000000000000100007194010895RAUL AMANTINO KIRK DE SANCTIS           AVENIDA SANTA CATARINA - 756 AP.01 - VIL            04378000                                                            000113
2SR. CAIXA, APOS O VENCIMENTO COBRAR 2% DE MULTA                                 NAO RECEBER APOS 30 DIAS DO VENCIMENTO.                                                                                                                                                                                                         01042400000000000000104240000000000000       0090339900006270071940042418000114
100000000000000000000009033990000627000000000000000000000000010002020011141504241700000000002            2  01111415042411042400000003152760000000001N010424000000000000000000000000000000000000000000000000000000000000000100011141508869PAULO ROBERTO TUNES SILVA               RUA PETROBRAS - 405 CASA 07 - VILA ANTON            03474060                                                            000116
2SR. CAIXA, APOS O VENCIMENTO COBRAR 2% DE MULTA                                 NAO RECEBER APOS 30 DIAS DO VENCIMENTO.                                                                                                                                                                                                         01042400000000000000104240000000000000       0090339900006270111415042417000117
100000000000000000000009033990000627000000000000000000000000010002020011261304241000000000002            2  01112613042409042400000004200590000000001N010424000000000000000000000000000000000000000000000000000000000000000100011261359844JOVANETE DOS SANTOS PASSOS              RUA FULVIO MORGANTI - 672 - JARDIM PARAI            02417170                                                            000119
2SR. CAIXA, APOS O VENCIMENTO COBRAR 2% DE MULTA                                 NAO RECEBER APOS 30 DIAS DO VENCIMENTO.                                                                                                                                                                                                         01042400000000000000104240000000000000       0090339900006270112613042410000120
100000000000000000000009033990000627000000000000000000000000010002020036279304241P00000000002            2  01362793042409042400000003734050000000001N010424000000000000000000000000000000000000000000000000000000000000000100036279398838BRUNO DOCINI ORTEGA                     RUA GENERAL EUCLIDES FIGUEIREDO - 146 AP            11700780                                                            000122
2SR. CAIXA, APOS O VENCIMENTO COBRAR 2% DE MULTA                                 NAO RECEBER APOS 30 DIAS DO VENCIMENTO.                                                                                                                                                                                                         01042400000000000000104240000000000000       009033990000627036279304241P000123
100000000000000000000009033990000627000000000000000000000000010002020008475104241P00000000002            2  01084751042409042400000004208390000000001N010424000000000000000000000000000000000000000000000000000000000000000100008475110819HELENA ROSA DOS SANTOS                  AVENIDA ZELIA - 278 CASA 02 - PARQUE DOS            06436000                                                            000125
2SR. CAIXA, APOS O VENCIMENTO COBRAR 2% DE MULTA                                 NAO RECEBER APOS 30 DIAS DO VENCIMENTO.                                                                                                                                                                                                         01042400000000000000104240000000000000       009033990000627008475104241P000126
100000000000000000000009033990000627000000000000000000000000010002020001098204241900000000002            2  01010982042409042400000004601690000000001N010424000000000000000000000000000000000000000000000000000000000000000100001098222857JANDIRA DOS SANTOS PASSOS               RUA FULVIO MORGANTI - 672 - JARDIM PARAI            02417170                                                            000128
2SR. CAIXA, APOS O VENCIMENTO COBRAR 2% DE MULTA                                 NAO RECEBER APOS 30 DIAS DO VENCIMENTO.                                                                                                                                                                                                         01042400000000000000104240000000000000       0090339900006270010982042419000129
9                                                                                                                                                                                                                                                                                                                                                                                                         000130