01REMESSA01COBRANCA       00000000000005623874H B SANTOS CONSTRUTORA E INCOR237BRADESCO       010224        MX0000008                                                                                                                                                                                                                                                                                     000001
100000000000000000000009033990001086300000000000000000000000010002020087902702241800000000002            2  01879027022410022400000003413290000000001N010224000000000000000000000000000000000000000000000000000000000000000100087902737887WAGNER CERQUEIRA VILA NOVA              RUA JOAQUIM FERREIRA - 124 AP.211 T.01 -            05033080                                                            000002
2SR. CAIXA, APOS O VENCIMENTO COBRAR 2% DE MULTA                                 NAO RECEBER APOS 30 DIAS DO VENCIMENTO.                                                                                                                                                                                                         01022400000000000000102240000000000000       0090339900010863879027022418000003
100000000000000000000009033990001086300000000000000000000000010002020015095602241400000000002            2  01150956022410022400000003172100000000001N010224000000000000000000000000000000000000000000000000000000000000000100015095698803MARCOS CESAR SOUZA SENA                 RUA SALVADOR PELUSO BASILE - 381 - JARDI            06755010                                                            000005
2SR. CAIXA, APOS O VENCIMENTO COBRAR 2% DE MULTA                                 NAO RECEBER APOS 30 DIAS DO VENCIMENTO.                                                                                                                                                                                                         01022400000000000000102240000000000000       0090339900010863150956022414000006
100000000000000000000009033990001086300000000000000000000000010002020011947902241000000000002            2  01119479022410022400000003109380000000001N010224000000000000000000000000000000000000000000000000000000000000000100011947951882DECIO VITORINO DOS SANTOS               RUA GREGORIA DE FREGEL - 380 AP.21 BL24             09811430                                                            000008
2SR. CAIXA, APOS O VENCIMENTO COBRAR 2% DE MULTA                                 NAO RECEBER APOS 30 DIAS DO VENCIMENTO.                                                                                                                                                                                                         01022400000000000000102240000000000000       0090339900010863119479022410000009
100000000000000000000009033990001086300000000000000000000000010002020000181202241400000000002            2  01001812022410022400000002796050000000001N010224000000000000000000000000000000000000000000000000000000000000000100000181223023DARLIN SANTA CATARINA                   RUA S-13 QUADRA 60 LR 08 - 750 - SETOR S            77425090                                                            000011
2SR. CAIXA, APOS O VENCIMENTO COBRAR 2% DE MULTA                                 NAO RECEBER APOS 30 DIAS DO VENCIMENTO.                                                                                                                                                                                                         01022400000000000000102240000000000000       0090339900010863001812022414000012
100000000000000000000009033990001086300000000000000000000000010002020034311702241P00000000002            2  01343117022410022400000003262120000000001N010224000000000000000000000000000000000000000000000000000000000000000100034311774842RAFAEL MARCOS SOUSA                     RUA AGUA BRANCA - 270 - JARDIM RUY BARBO            13219120                                                            000014
2SR. CAIXA, APOS O VENCIMENTO COBRAR 2% DE MULTA                                 NAO RECEBER APOS 30 DIAS DO VENCIMENTO.                                                                                                                                                                                                         01022400000000000000102240000000000000       009033990001086334311702241P000015
100000000000000000000009033990001086300000000000000000000000010002020035839602241300000000002            2  01358396022410022400000003246880000000001N010224000000000000000000000000000000000000000000000000000000000000000100035839657875JUNIOR SILVA TEODORO DOS SANTOS         RUA ARMANDO DE SALLES OLIVEIRA - 123 AP.            11510020                                                            000017
2SR. CAIXA, APOS O VENCIMENTO COBRAR 2% DE MULTA                                 NAO RECEBER APOS 30 DIAS DO VENCIMENTO.                                                                                                                                                                                                         01022400000000000000102240000000000000       0090339900010863358396022413000018
100000000000000000000009033990001086300000000000000000000000010002020094315402241900000000002            2  01943154022410022400000003274660000000001N010224000000000000000000000000000000000000000000000000000000000000000100094315493872HUGO LUIS ALEJANDRO GUIMERANS           RUA GUARANIS - 448 AP87 - VILA TUPI - PR            11703080                                                            000020
2SR. CAIXA, APOS O VENCIMENTO COBRAR 2% DE MULTA                                 NAO RECEBER APOS 30 DIAS DO VENCIMENTO.                                                                                                                                                                                                         01022400000000000000102240000000000000       0090339900010863943154022419000021
100000000000000000000009033990001086300000000000000000000000010002020030898202241700000000002            2  01308982022410022400000002962410000000001N010224000000000000000000000000000000000000000000000000000000000000000100030898241839LUIZ DANIEL CANNITO                     RUA FOZ DO DOURO - 195 CASA 01 - JARDIM             03924080                                                            000023
2SR. CAIXA, APOS O VENCIMENTO COBRAR 2% DE MULTA                                 NAO RECEBER APOS 30 DIAS DO VENCIMENTO.                                                                                                                                                                                                         01022400000000000000102240000000000000       0090339900010863308982022417000024
100000000000000000000009033990001086300000000000000000000000010002020013387202241700000000002            2  01133872022410022400000003161890000000001N010224000000000000000000000000000000000000000000000000000000000000000100013387212836CARLOS MARTINS DOS SANTOS               RUA CASTRO ALVES - 17 AP.21 - BAIRRO EMB            11040191                                                            000026
2SR. CAIXA, APOS O VENCIMENTO COBRAR 2% DE MULTA                                 NAO RECEBER APOS 30 DIAS DO VENCIMENTO.                                                                                                                                                                                                         01022400000000000000102240000000000000       0090339900010863133872022417000027
100000000000000000000009033990001086300000000000000000000000010002020001803102241900000000002            2  01018031022410022400000002885580000000001N010224000000000000000000000000000000000000000000000000000000000000000100001803106824MAGNA FLORA CALIS                       RUA DOS EXPEDICIONARIOS - 59 AP.13 - CAN            11700750                                                            000029
2SR. CAIXA, APOS O VENCIMENTO COBRAR 2% DE MULTA                                 NAO RECEBER APOS 30 DIAS DO VENCIMENTO.                                                                                                                                                                                                         01022400000000000000102240000000000000       0090339900010863018031022419000030
100000000000000000000009033990001086300000000000000000000000010002020026327302241800000000002            2  01263273022410022400000003098910000000001N010224000000000000000000000000000000000000000000000000000000000000000100026327304818GEANICE BARBOSA DA SILVA                RUA FLAMENGO - 77 - VILA GUILHERMINA - P            11701540                                                            000032
2SR. CAIXA, APOS O VENCIMENTO COBRAR 2% DE MULTA                                 NAO RECEBER APOS 30 DIAS DO VENCIMENTO.                                                                                                                                                                                                         01022400000000000000102240000000000000       0090339900010863263273022418000033
100000000000000000000009033990001086300000000000000000000000010002020008732202241800000000002            2  01087322022410022400000002803230000000001N010224000000000000000000000000000000000000000000000000000000000000000100008732244851JOSENILTON SOUSA DE OLIVEIRA            RUA GENERAL ISIDORO DIAS LOPES - 456 - B            08561410                                                            000035
2SR. CAIXA, APOS O VENCIMENTO COBRAR 2% DE MULTA                                 NAO RECEBER APOS 30 DIAS DO VENCIMENTO.                                                                                                                                                                                                         01022400000000000000102240000000000000       0090339900010863087322022418000036
9                                                                                                                                                                                                                                                                                                                                                                                                         000037