01REMESSA01COBRANCA       00000000000008017025HB SANTOS CONSTRUTORA E INCORP237BRADESCO       011223        MX0000191                                                                                                                                                                                                                                                                                     000001
100000000000000000000009033990000627000000000000000000000000010002020016479012231900000000002            2  01164790122309122300000005700870000000001N011223000000000000000000000000000000000000000000000000000000000000000100016479002806LOURDES PEREIRA DE QUEIROZ SECANECHIA   RUA PAULINO CURSI - 437 - CIDADE SAO MAT            03960060                                                            000002
2SR. CAIXA, APOS O VENCIMENTO COBRAR 2% DE MULTA                                 NAO RECEBER APOS 30 DIAS DO VENCIMENTO.                                                                                                                                                                                                         01122300000000000000112230000000000000       0090339900006270164790122319000003
100000000000000000000009033990000627000000000000000000000000010002020017229712232900000000002            2  01172297122309122300000004338320000000001N011223000000000000000000000000000000000000000000000000000000000000000100017229751802BERENICE VIEIRA KERSTING                RUA ATIBAIA - 17 AP.417 - BAIRRO IMPERAD            11707380                                                            000005
2SR. CAIXA, APOS O VENCIMENTO COBRAR 2% DE MULTA                                 NAO RECEBER APOS 30 DIAS DO VENCIMENTO.                                                                                                                                                                                                         01122300000000000000112230000000000000       0090339900006270172297122329000006
100000000000000000000009033990000627000000000000000000000000010002020009361412231600000000002            2  01093614122309122300000004138840000000001N011223000000000000000000000000000000000000000000000000000000000000000100009361471805JOSE BARBOSA DA SILVA                   RUA ALFREDO INACIO TRINDADE  - 60 AP.44             02344100                                                            000008
2SR. CAIXA, APOS O VENCIMENTO COBRAR 2% DE MULTA                                 NAO RECEBER APOS 30 DIAS DO VENCIMENTO.                                                                                                                                                                                                         01122300000000000000112230000000000000       0090339900006270093614122316000009
100000000000000000000009033990000627000000000000000000000000010002020012756912231P00000000002            2  01127569122309122300000003572710000000001N011223000000000000000000000000000000000000000000000000000000000000000100012756959812ITAMAR JUVENAL DIAS DA SILVA            RUA ELISEU REINALDO MORAES VIEIRA - 90 A            02858000                                                            000011
2SR. CAIXA, APOS O VENCIMENTO COBRAR 2% DE MULTA                                 NAO RECEBER APOS 30 DIAS DO VENCIMENTO.                                                                                                                                                                                                         01122300000000000000112230000000000000       009033990000627012756912231P000012
100000000000000000000009033990000627000000000000000000000000010002020029433612231300000000002            2  01294336122311122300000002961070000000001N011223000000000000000000000000000000000000000000000000000000000000000100029433631897MARIO MUNIZ                             RUA JOSE CALIXTO DO CARMO - 286 AP.53 -             11702690                                                            000014
2SR. CAIXA, APOS O VENCIMENTO COBRAR 2% DE MULTA                                 NAO RECEBER APOS 30 DIAS DO VENCIMENTO.                                                                                                                                                                                                         01122300000000000000112230000000000000       0090339900006270294336122313000015
100000000000000000000009033990000627000000000000000000000000010002020005029812231600000000002            2  01050298122309122300000003642590000000001N011223000000000000000000000000000000000000000000000000000000000000000100005029828885LAURINETE DA CONCEICAO DE NORONHA       RUA MARIA LUCIA DE TOLEDO LEITE MORAES -            04434040                                                            000017
2SR. CAIXA, APOS O VENCIMENTO COBRAR 2% DE MULTA                                 NAO RECEBER APOS 30 DIAS DO VENCIMENTO.                                                                                                                                                                                                         01122300000000000000112230000000000000       0090339900006270050298122316000018
100000000000000000000009033990000627000000000000000000000000010002020013388912231800000000002            2  01133889122311122300000002886590000000001N011223000000000000000000000000000000000000000000000000000000000000000100013388936889NEUTON DE SOUZA RAMOS                   RUA JOSE CALIXTO DO CARMO - 286 AP.61 -             11702690                                                            000020
2SR. CAIXA, APOS O VENCIMENTO COBRAR 2% DE MULTA                                 NAO RECEBER APOS 30 DIAS DO VENCIMENTO.                                                                                                                                                                                                         01122300000000000000112230000000000000       0090339900006270133889122318000021
100000000000000000000009033990000627000000000000000000000000010002020012774912231800000000002            2  01127749122311122300000002940780000000001N011223000000000000000000000000000000000000000000000000000000000000000100012774906865JOSE MILTON SANTIAGO                    RUA BATATAIS - 47 - CIDADE ESTELA - POA             08563140                                                            000023
2SR. CAIXA, APOS O VENCIMENTO COBRAR 2% DE MULTA                                 NAO RECEBER APOS 30 DIAS DO VENCIMENTO.                                                                                                                                                                                                         01122300000000000000112230000000000000       0090339900006270127749122318000024
100000000000000000000009033990000627000000000000000000000000010002020005613812231800000000002            2  01056138122311122300000002704700000000001N011223000000000000000000000000000000000000000000000000000000000000000100005613843805NILZA MARIA DE OLIVEIRA                 RUA JOSE GONCALVES DE FREITAS - 66 C2 -             08210550                                                            000026
2SR. CAIXA, APOS O VENCIMENTO COBRAR 2% DE MULTA                                 NAO RECEBER APOS 30 DIAS DO VENCIMENTO.                                                                                                                                                                                                         01122300000000000000112230000000000000       0090339900006270056138122318000027
100000000000000000000009033990000627000000000000000000000000010002020007574912231800000000002            2  01075749122311122300000002776320000000001N011223000000000000000000000000000000000000000000000000000000000000000100007574936889JORGE LUCIANO PEREIRA BORRIELLO         RUA JOSE CALIXTO DO CARMO - 286 AP.54 -             11702690                                                            000029
2SR. CAIXA, APOS O VENCIMENTO COBRAR 2% DE MULTA                                 NAO RECEBER APOS 30 DIAS DO VENCIMENTO.                                                                                                                                                                                                         01122300000000000000112230000000000000       0090339900006270075749122318000030
100000000000000000000009033990000627000000000000000000000000010002020008214912231000000000002            2  01082149122311122300000002818440000000001N011223000000000000000000000000000000000000000000000000000000000000000100008214973830JAMIL CHALA                             RUA JOSE CALIXTO DO CARMO - 286 AP.22 -             11702690                                                            000032
2SR. CAIXA, APOS O VENCIMENTO COBRAR 2% DE MULTA                                 NAO RECEBER APOS 30 DIAS DO VENCIMENTO.                                                                                                                                                                                                         01122300000000000000112230000000000000       0090339900006270082149122310000033
100000000000000000000009033990000627000000000000000000000000010002020032495012231800000000002            2  01324950122311122300000003158430000000001N011223000000000000000000000000000000000000000000000000000000000000000100032495004881PAULO EDUARDO DOS SANTOS                RUA REPUBLICA DO IRAQUE - 1119 - CAMPO B            04611002                                                            000035
2SR. CAIXA, APOS O VENCIMENTO COBRAR 2% DE MULTA                                 NAO RECEBER APOS 30 DIAS DO VENCIMENTO.                                                                                                                                                                                                         01122300000000000000112230000000000000       0090339900006270324950122318000036
100000000000000000000009033990000627000000000000000000000000010002020016498012231500000000002            2  01164980122311122300000002770010000000001N011223000000000000000000000000000000000000000000000000000000000000000100016498053810GILMA CEZARIO GARCIA CORRITORI          RUA LAURENTINO XAVIER DOS SANTOS - 336 -            08240740                                                            000038
2SR. CAIXA, APOS O VENCIMENTO COBRAR 2% DE MULTA                                 NAO RECEBER APOS 30 DIAS DO VENCIMENTO.                                                                                                                                                                                                         01122300000000000000112230000000000000       0090339900006270164980122315000039
100000000000000000000009033990000627000000000000000000000000010002020029339012231400000000002            2  01293390122311122300000002962060000000001N011223000000000000000000000000000000000000000000000000000000000000000100029339051831RONALD DIDOFF                           RUA CORONEL FERREIRA BRAGA - 188 - VILA             03522010                                                            000041
2SR. CAIXA, APOS O VENCIMENTO COBRAR 2% DE MULTA                                 NAO RECEBER APOS 30 DIAS DO VENCIMENTO.                                                                                                                                                                                                         01122300000000000000112230000000000000       0090339900006270293390122314000042
100000000000000000000009033990000627000000000000000000000000010002020017357812231600000000002            2  01173578122311122300000003137090000000001N011223000000000000000000000000000000000000000000000000000000000000000100017357859894MARCIO GUIMARAES                        RUA GENERAL CAMARA - 188 SALA 11 - CENTR            11010120                                                            000044
2SR. CAIXA, APOS O VENCIMENTO COBRAR 2% DE MULTA                                 NAO RECEBER APOS 30 DIAS DO VENCIMENTO.                                                                                                                                                                                                         01122300000000000000112230000000000000       0090339900006270173578122316000045
100000000000000000000009033990000627000000000000000000000000010002020010563012231600000000002            2  01105630122311122300000003217280000000001N011223000000000000000000000000000000000000000000000000000000000000000100010563033878VERA LUCIA RIBEIRO LONGANEZI            RUA DOS CAMARES - 150 AP.24 BL.02 - CARA            02068030                                                            000047
2SR. CAIXA, APOS O VENCIMENTO COBRAR 2% DE MULTA                                 NAO RECEBER APOS 30 DIAS DO VENCIMENTO.                                                                                                                                                                                                         01122300000000000000112230000000000000       0090339900006270105630122316000048
100000000000000000000009033990000627000000000000000000000000010002020005529612231000000000002            2  01055296122311122300000002919560000000001N011223000000000000000000000000000000000000000000000000000000000000000100005529616801JOAQUIM JORGE DA COSTA                  RUA JOSE CALIXTO DO CARMO - 286 AP.106 -            11702690                                                            000050
2SR. CAIXA, APOS O VENCIMENTO COBRAR 2% DE MULTA                                 NAO RECEBER APOS 30 DIAS DO VENCIMENTO.                                                                                                                                                                                                         01122300000000000000112230000000000000       0090339900006270055296122310000051
100000000000000000000009033990000627000000000000000000000000010002020015550712231700000000002            2  01155507122309122300000002761080000000001N011223000000000000000000000000000000000000000000000000000000000000000100015550706806MARY MIWA                               RUA CARLOS JOSE BORSTENS - 50 AP.105 - A            11702750                                                            000053
2SR. CAIXA, APOS O VENCIMENTO COBRAR 2% DE MULTA                                 NAO RECEBER APOS 30 DIAS DO VENCIMENTO.                                                                                                                                                                                                         01122300000000000000112230000000000000       0090339900006270155507122317000054
100000000000000000000009033990000627000000000000000000000000010002020015464612231700000000002            2  01154646122311122300000003069160000000001N011223000000000000000000000000000000000000000000000000000000000000000100015464647864SONIA TERESA VOLPATO                    RUA JOSE CALIXTO DO CARMO - 286 AP.73 -             11702690                                                            000056
2SR. CAIXA, APOS O VENCIMENTO COBRAR 2% DE MULTA                                 NAO RECEBER APOS 30 DIAS DO VENCIMENTO.                                                                                                                                                                                                         01122300000000000000112230000000000000       0090339900006270154646122317000057
100000000000000000000009033990000627000000000000000000000000010002020008657812231600000000002            2  01086578122311122300000003038360000000001N011223000000000000000000000000000000000000000000000000000000000000000100008657886855ARLINDO DA CRUZ                         AVENIDA ARICANDUVA - 8.256 AP.54 BL.10 -            03951220                                                            000059
2SR. CAIXA, APOS O VENCIMENTO COBRAR 2% DE MULTA                                 NAO RECEBER APOS 30 DIAS DO VENCIMENTO.                                                                                                                                                                                                         01122300000000000000112230000000000000       0090339900006270086578122316000060
100000000000000000000009033990000627000000000000000000000000010002020059735112231400000000002            2  01597351122309122300000001718410000000001N011223000000000000000000000000000000000000000000000000000000000000000100059735180863HELIO JOSE MARQUES                      RUA MARTIM AFONSO DE SOUZA - 1007 AP.102            11702790                                                            000062
2SR. CAIXA, APOS O VENCIMENTO COBRAR 2% DE MULTA                                 NAO RECEBER APOS 30 DIAS DO VENCIMENTO.                                                                                                                                                                                                         01122300000000000000112230000000000000       0090339900006270597351122314000063
100000000000000000000009033990000627000000000000000000000000010002020026347812231800000000002            2  01263478122311122300000003247910000000001N011223000000000000000000000000000000000000000000000000000000000000000100026347872862VALDECI SILVA MEIRELES                  RUA JOSE BATISTA DA SILVA - 292 - JARDIM            06851470                                                            000065
2SR. CAIXA, APOS O VENCIMENTO COBRAR 2% DE MULTA                                 NAO RECEBER APOS 30 DIAS DO VENCIMENTO.                                                                                                                                                                                                         01122300000000000000112230000000000000       0090339900006270263478122318000066
100000000000000000000009033990000627000000000000000000000000010002020009797612231P00000000002            2  01097976122311122300000002906070000000001N011223000000000000000000000000000000000000000000000000000000000000000100009797626857RICARDO SOBRAL DE OLIVEIRA              RUA 23 DE MAIO - 139 AP.32 - VILA MIRIM             11704690                                                            000068
2SR. CAIXA, APOS O VENCIMENTO COBRAR 2% DE MULTA                                 NAO RECEBER APOS 30 DIAS DO VENCIMENTO.                                                                                                                                                                                                         01122300000000000000112230000000000000       009033990000627009797612231P000069
100000000000000000000009033990000627000000000000000000000000010002020022728412231000000000002            2  01227284122311122300000003144600000000001N011223000000000000000000000000000000000000000000000000000000000000000100022728497842WILLIAN DE SOUZA MELLO                  RUA JOSE CALIXTO DO CARMO - 286 AP.111 -            11702690                                                            000071
2SR. CAIXA, APOS O VENCIMENTO COBRAR 2% DE MULTA                                 NAO RECEBER APOS 30 DIAS DO VENCIMENTO.                                                                                                                                                                                                         01122300000000000000112230000000000000       0090339900006270227284122310000072
100000000000000000000009033990000627000000000000000000000000010002020016909712231500000000002            2  01169097122311122300000002778840000000001N011223000000000000000000000000000000000000000000000000000000000000000100016909746805EDIVALDO SANTANA DOS SANTOS             ESTRADA JOAO GASPAR DELGADO - 80 AP.213             08536100                                                            000074
2SR. CAIXA, APOS O VENCIMENTO COBRAR 2% DE MULTA                                 NAO RECEBER APOS 30 DIAS DO VENCIMENTO.                                                                                                                                                                                                         01122300000000000000112230000000000000       0090339900006270169097122315000075
100000000000000000000009033990000627000000000000000000000000010002020022036012231200000000002            2  01220360122309122300000004316310000000001N011223000000000000000000000000000000000000000000000000000000000000000100022036003818DERLIS TERAN QUIROGA ROGATO             RUA JOAO RIBEIRO - 320 AP.131SB - CAMPES            09070250                                                            000077
2SR. CAIXA, APOS O VENCIMENTO COBRAR 2% DE MULTA                                 NAO RECEBER APOS 30 DIAS DO VENCIMENTO.                                                                                                                                                                                                         01122300000000000000112230000000000000       0090339900006270220360122312000078
100000000000000000000009033990000627000000000000000000000000010002020017229712233700000000002            2  01172297122309122300000004165610000000001N011223000000000000000000000000000000000000000000000000000000000000000100017229751802BERENICE VIEIRA KERSTING                RUA ATIBAIA - 17 AP.417 - BAIRRO IMPERAD            11707380                                                            000080
2SR. CAIXA, APOS O VENCIMENTO COBRAR 2% DE MULTA                                 NAO RECEBER APOS 30 DIAS DO VENCIMENTO.                                                                                                                                                                                                         01122300000000000000112230000000000000       0090339900006270172297122337000081
100000000000000000000009033990000627000000000000000000000000010002020033451612231300000000002            2  01334516122311122300000002515330000000001N011223000000000000000000000000000000000000000000000000000000000000000100033451620839ARAO ELISIARIO  NUNES                   RUA JOSE CALIXTO DO CARMO - 286 AP.64 -             11702690                                                            000083
2SR. CAIXA, APOS O VENCIMENTO COBRAR 2% DE MULTA                                 NAO RECEBER APOS 30 DIAS DO VENCIMENTO.                                                                                                                                                                                                         01122300000000000000112230000000000000       0090339900006270334516122313000084
100000000000000000000009033990000627000000000000000000000000010002020011369112231100000000002            2  01113691122311122300000002747680000000001N011223000000000000000000000000000000000000000000000000000000000000000100011369165803ELIANA CORREA DE OLIVEIRA               RUA MAESTRO ZEFERINO SANTANA - 65 - VILA            18040010                                                            000086
2SR. CAIXA, APOS O VENCIMENTO COBRAR 2% DE MULTA                                 NAO RECEBER APOS 30 DIAS DO VENCIMENTO.                                                                                                                                                                                                         01122300000000000000112230000000000000       0090339900006270113691122311000087
100000000000000000000009033990000627000000000000000000000000010002020002253812231500000000002            2  01022538122311122300000002442140000000001N011223000000000000000000000000000000000000000000000000000000000000000100002253816809EDMILSON ALVES DA SILVA                 RUA JOSE CALIXTO DO CARMO - 286 AP.93 -             11702690                                                            000089
2SR. CAIXA, APOS O VENCIMENTO COBRAR 2% DE MULTA                                 NAO RECEBER APOS 30 DIAS DO VENCIMENTO.                                                                                                                                                                                                         01122300000000000000112230000000000000       0090339900006270022538122315000090
100000000000000000000009033990000627000000000000000000000000010002020037517712231500000000002            2  01375177122309122300000004578130000000001N011223000000000000000000000000000000000000000000000000000000000000000100037517785869RENATO JOSE DE LIMA MELO                RUA ARISTIDES LOBO - 148 AP.41 BLOCO 03             03041100                                                            000092
2SR. CAIXA, APOS O VENCIMENTO COBRAR 2% DE MULTA                                 NAO RECEBER APOS 30 DIAS DO VENCIMENTO.                                                                                                                                                                                                         01122300000000000000112230000000000000       0090339900006270375177122315000093
100000000000000000000009033990000627000000000000000000000000010002020070367912231600000000002            2  01703679122311122300000002293340000000001N011223000000000000000000000000000000000000000000000000000000000000000100070367949849TEODOMIRO ALVES DOS SANTOS              RUA ANDRE PAZ - 13 - JARDIM SANTO ANDRE             08390230                                                            000095
2SR. CAIXA, APOS O VENCIMENTO COBRAR 2% DE MULTA                                 NAO RECEBER APOS 30 DIAS DO VENCIMENTO.                                                                                                                                                                                                         01122300000000000000112230000000000000       0090339900006270703679122316000096
100000000000000000000009033990000627000000000000000000000000010002020004410812231500000000002            2  01044108122309122300000003401590000000001N011223000000000000000000000000000000000000000000000000000000000000000100004410802860LUIZ ALBERTO MARINHO                    AVENIDA BOSQUE DA SAUDE - 546 AP11 -  -             04142081                                                            000098
2SR. CAIXA, APOS O VENCIMENTO COBRAR 2% DE MULTA                                 NAO RECEBER APOS 30 DIAS DO VENCIMENTO.                                                                                                                                                                                                         01122300000000000000112230000000000000       0090339900006270044108122315000099
100000000000000000000009033990000627000000000000000000000000010002020004767612231000000000002            2  01047676122309122300000004541020000000001N011223000000000000000000000000000000000000000000000000000000000000000100004767679893ORLANDO GRANDE FILHO                    RUA ORLANDO MIGLIARI - 101 - JARDIM OURO            19906140                                                            000101
2SR. CAIXA, APOS O VENCIMENTO COBRAR 2% DE MULTA                                 NAO RECEBER APOS 30 DIAS DO VENCIMENTO.                                                                                                                                                                                                         01122300000000000000112230000000000000       0090339900006270047676122310000102
100000000000000000000009033990000627000000000000000000000000010002020064677812231600000000002            2  01646778122309122300000003652910000000001N011223000000000000000000000000000000000000000000000000000000000000000100064677850887ANTONIO CARLOS DE OLIVEIRA              RUA DR.ANTONIO MAZILLI FILHO - 435 - PAR            02230070                                                            000104
2SR. CAIXA, APOS O VENCIMENTO COBRAR 2% DE MULTA                                 NAO RECEBER APOS 30 DIAS DO VENCIMENTO.                                                                                                                                                                                                         01122300000000000000112230000000000000       0090339900006270646778122316000105
100000000000000000000009033990000627000000000000000000000000010002020028082612231000000000002            2  01280826122311122300000002546140000000001N011223000000000000000000000000000000000000000000000000000000000000000100028082615869PRISCILA PEREIRA                        ALAMEDA AFONSO BOCCHIGLIERI - 184 - INTE            04445130                                                            000107
2SR. CAIXA, APOS O VENCIMENTO COBRAR 2% DE MULTA                                 NAO RECEBER APOS 30 DIAS DO VENCIMENTO.                                                                                                                                                                                                         01122300000000000000112230000000000000       0090339900006270280826122310000108
100000000000000000000009033990000627000000000000000000000000010002020058488612231900000000002            2  01584886122309122300000003331750000000001N011223000000000000000000000000000000000000000000000000000000000000000100058488618972ADAILTON ZANUTTO MORESCHI               R:RAPHAEL UNGARO - COND.RESERVA SERRA Q.            13212138                                                            000110
2SR. CAIXA, APOS O VENCIMENTO COBRAR 2% DE MULTA                                 NAO RECEBER APOS 30 DIAS DO VENCIMENTO.                                                                                                                                                                                                         01122300000000000000112230000000000000       0090339900006270584886122319000111
100000000000000000000009033990000627000000000000000000000000010002020002196012231300000000002            2  01021960122311122300000002504570000000001N011223000000000000000000000000000000000000000000000000000000000000000100002196012831VILEFORT DIAS BORGES                    RUA PORTO XAVIER - 189 AP.64 - VILA CARM            08210170                                                            000113
2SR. CAIXA, APOS O VENCIMENTO COBRAR 2% DE MULTA                                 NAO RECEBER APOS 30 DIAS DO VENCIMENTO.                                                                                                                                                                                                         01122300000000000000112230000000000000       0090339900006270021960122313000114
100000000000000000000009033990000627000000000000000000000000010002020031861512231100000000002            2  01318615122311122300000002603190000000001N011223000000000000000000000000000000000000000000000000000000000000000100031861586809VANIA TOMAZ                              -  -  -  -                                         00000000                                                            000116
2SR. CAIXA, APOS O VENCIMENTO COBRAR 2% DE MULTA                                 NAO RECEBER APOS 30 DIAS DO VENCIMENTO.                                                                                                                                                                                                         01122300000000000000112230000000000000       0090339900006270318615122311000117
100000000000000000000009033990000627000000000000000000000000010002020003104512231500000000002            2  01031045122309122300000009698590000000001N011223000000000000000000000000000000000000000000000000000000000000000100003104580804NELSON RODRIGUES                        RUA CARLOS JOSE BORSTENS - 50 AP.81 - AV            11702750                                                            000119
2SR. CAIXA, APOS O VENCIMENTO COBRAR 2% DE MULTA                                 NAO RECEBER APOS 30 DIAS DO VENCIMENTO.                                                                                                                                                                                                         01122300000000000000112230000000000000       0090339900006270031045122315000120
100000000000000000000009033990000627000000000000000000000000010002020007715312231300000000002            2  01077153122309122300000004097660000000001N011223000000000000000000000000000000000000000000000000000000000000000100007715360627NILTON RENNAN OLIVEIRA GOMES FILHO      RUA CARLOS JOSE BORSTENS - 50 AP.21 - AV            11702750                                                            000122
2SR. CAIXA, APOS O VENCIMENTO COBRAR 2% DE MULTA                                 NAO RECEBER APOS 30 DIAS DO VENCIMENTO.                                                                                                                                                                                                         01122300000000000000112230000000000000       0090339900006270077153122313000123
100000000000000000000009033990000627000000000000000000000000010002020007194012231400000000002            2  01071940122311122300000002911020000000001N011223000000000000000000000000000000000000000000000000000000000000000100007194010895RAUL AMANTINO KIRK DE SANCTIS           AVENIDA SANTA CATARINA - 756 AP.01 - VIL            04378000                                                            000125
2SR. CAIXA, APOS O VENCIMENTO COBRAR 2% DE MULTA                                 NAO RECEBER APOS 30 DIAS DO VENCIMENTO.                                                                                                                                                                                                         01122300000000000000112230000000000000       0090339900006270071940122314000126
100000000000000000000009033990000627000000000000000000000000010002020011141512231300000000002            2  01111415122311122300000003058960000000001N011223000000000000000000000000000000000000000000000000000000000000000100011141508869PAULO ROBERTO TUNES SILVA               RUA PETROBRAS - 405 CASA 07 - VILA ANTON            03474060                                                            000128
2SR. CAIXA, APOS O VENCIMENTO COBRAR 2% DE MULTA                                 NAO RECEBER APOS 30 DIAS DO VENCIMENTO.                                                                                                                                                                                                         01122300000000000000112230000000000000       0090339900006270111415122313000129
100000000000000000000009033990000627000000000000000000000000010002020012449112231900000000002            2  01124491122311122300000003082300000000001N011223000000000000000000000000000000000000000000000000000000000000000100012449104810GILBERTO DOS SANTOS JUNIOR              RUA ALMIRANTE TAMANDARE - 89 AP.143 - BA            09310350                                                            000131
2SR. CAIXA, APOS O VENCIMENTO COBRAR 2% DE MULTA                                 NAO RECEBER APOS 30 DIAS DO VENCIMENTO.                                                                                                                                                                                                         01122300000000000000112230000000000000       0090339900006270124491122319000132
100000000000000000000009033990000627000000000000000000000000010002020011261312231700000000002            2  01112613122309122300000004068320000000001N011223000000000000000000000000000000000000000000000000000000000000000100011261359844JOVANETE DOS SANTOS PASSOS              RUA FULVIO MORGANTI - 672 - JARDIM PARAI            02417170                                                            000134
2SR. CAIXA, APOS O VENCIMENTO COBRAR 2% DE MULTA                                 NAO RECEBER APOS 30 DIAS DO VENCIMENTO.                                                                                                                                                                                                         01122300000000000000112230000000000000       0090339900006270112613122317000135
100000000000000000000009033990000627000000000000000000000000010002020036279312231600000000002            2  01362793122309122300000003616480000000001N011223000000000000000000000000000000000000000000000000000000000000000100036279398838BRUNO DOCINI ORTEGA                     RUA GENERAL EUCLIDES FIGUEIREDO - 146 AP            11700780                                                            000137
2SR. CAIXA, APOS O VENCIMENTO COBRAR 2% DE MULTA                                 NAO RECEBER APOS 30 DIAS DO VENCIMENTO.                                                                                                                                                                                                         01122300000000000000112230000000000000       0090339900006270362793122316000138
100000000000000000000009033990000627000000000000000000000000010002020008475112231600000000002            2  01084751122309122300000004075880000000001N011223000000000000000000000000000000000000000000000000000000000000000100008475110819HELENA ROSA DOS SANTOS                  AVENIDA ZELIA - 278 CASA 02 - PARQUE DOS            06436000                                                            000140
2SR. CAIXA, APOS O VENCIMENTO COBRAR 2% DE MULTA                                 NAO RECEBER APOS 30 DIAS DO VENCIMENTO.                                                                                                                                                                                                         01122300000000000000112230000000000000       0090339900006270084751122316000141
100000000000000000000009033990000627000000000000000000000000010002020001098212231500000000002            2  01010982122309122300000004456790000000001N011223000000000000000000000000000000000000000000000000000000000000000100001098222857JANDIRA DOS SANTOS PASSOS               RUA FULVIO MORGANTI - 672 - JARDIM PARAI            02417170                                                            000143
2SR. CAIXA, APOS O VENCIMENTO COBRAR 2% DE MULTA                                 NAO RECEBER APOS 30 DIAS DO VENCIMENTO.                                                                                                                                                                                                         01122300000000000000112230000000000000       0090339900006270010982122315000144
9                                                                                                                                                                                                                                                                                                                                                                                                         000145