01REMESSA01COBRANCA       00000000000005316116AIRES CONSTRUTORA E INCORPORAD237BRADESCO       011120        MX0000157                                                                                                                                                                                                                                                                                     000001
100000000000000000000009002800441612000000000000000000000000010002100085416911201200000000002            2  01854169112010112000000003541360000000001N011120000000000000000000000000000000000000000000000000000000000000000100085416940891ANTONIO DE SOUSA MENDES                 RUA MONTE CASTELO - 296 AP.52 - AVIACAO             11702720                                                            000002
2SR. CAIXA, APOS O VENCIMENTO COBRAR 10% DE MULTA                                NAO RECEBER APOS 30 DIAS DO VENCIMENTO.                                                                                                                                                                                                         01112000000000000000111200000000000000       0090028004416120854169112012000003
100000000000000000000009002800441612000000000000000000000000010002100016348211201200000000002            2  01163482112010112000000003598160000000001N011120000000000000000000000000000000000000000000000000000000000000000100016348237885AILTON LORENA                           AVENIDA BRASILIA - 194 - BELA VISTA - SA            09180260                                                            000005
2SR. CAIXA, APOS O VENCIMENTO COBRAR 10% DE MULTA                                NAO RECEBER APOS 30 DIAS DO VENCIMENTO.                                                                                                                                                                                                         01112000000000000000111200000000000000       0090028004416120163482112012000006
100000000000000000000009002800441612000000000000000000000000010002100081218411201600000000002            2  01812184112010112000000003472680000000001N011120000000000000000000000000000000000000000000000000000000000000000100081218486953OSMAR DA COSTA - A/C RITA GONCALVES     AVENIDA ALMEIDA JUNIOR - 717 - SAMAMBAIA            11713050                                                            000008
2SR. CAIXA, APOS O VENCIMENTO COBRAR 10% DE MULTA                                NAO RECEBER APOS 30 DIAS DO VENCIMENTO.                                                                                                                                                                                                         01112000000000000000111200000000000000       0090028004416120812184112016000009
100000000000000000000009002800441612000000000000000000000000010002100019282511201300000000002            2  01192825112010112000000002589040000000001N011120000000000000000000000000000000000000000000000000000000000000000100019282546837FABIO LEANDRO DE FREITAS ASSIS          RUA BASSIM NAGIB TRABULSI - 97 - PONTA D            11030540                                                            000011
2SR. CAIXA, APOS O VENCIMENTO COBRAR 10% DE MULTA                                NAO RECEBER APOS 30 DIAS DO VENCIMENTO.                                                                                                                                                                                                         01112000000000000000111200000000000000       0090028004416120192825112013000012
100000000000000000000009002800441612000000000000000000000000010002100003865711201100000000002            2  01038657112010112000000003469170000000001N011120000000000000000000000000000000000000000000000000000000000000000100003865776841FRANCISCO JOSE ROCCO                    RUA FABIO JOSE BEZERRA - 130 AP.86 - PAR            03805000                                                            000014
2SR. CAIXA, APOS O VENCIMENTO COBRAR 10% DE MULTA                                NAO RECEBER APOS 30 DIAS DO VENCIMENTO.                                                                                                                                                                                                         01112000000000000000111200000000000000       0090028004416120038657112011000015
100000000000000000000009002800441612000000000000000000000000010002100028309511201800000000002            2  01283095112010112000000003093690000000001N011120000000000000000000000000000000000000000000000000000000000000000100028309524803DEISE RIBEIRO BARBOSA                   RUA CANDIDO JOSE DE ANDRADE - 173 - ERME            03807030                                                            000017
2SR. CAIXA, APOS O VENCIMENTO COBRAR 10% DE MULTA                                NAO RECEBER APOS 30 DIAS DO VENCIMENTO.                                                                                                                                                                                                         01112000000000000000111200000000000000       0090028004416120283095112018000018
100000000000000000000009002800441612000000000000000000000000010002100011277911201800000000002            2  01112779112010112000000003671890000000001N011120000000000000000000000000000000000000000000000000000000000000000100011277908893JOSE AILTON LOPES DE AZEVEDO            RUA MAESTRO JOAO SEPE - 19 - JARDIM MARI            04181030                                                            000020
2SR. CAIXA, APOS O VENCIMENTO COBRAR 10% DE MULTA                                NAO RECEBER APOS 30 DIAS DO VENCIMENTO.                                                                                                                                                                                                         01112000000000000000111200000000000000       0090028004416120112779112018000021
100000000000000000000009002800441612000000000000000000000000010002100025215111201500000000002            2  01252151112010112000000006933250000000001N011120000000000000000000000000000000000000000000000000000000000000000100025215106886KLEBER LUIZ DOS SANTOS                  RUA MONTE CASTELO - 262 AP.15 - AVIACAO             11702720                                                            000023
2SR. CAIXA, APOS O VENCIMENTO COBRAR 10% DE MULTA                                NAO RECEBER APOS 30 DIAS DO VENCIMENTO.                                                                                                                                                                                                         01112000000000000000111200000000000000       0090028004416120252151112015000024
100000000000000000000009002800441612000000000000000000000000010002100090206711201200000000002            2  01902067112010112000000003092920000000001N011120000000000000000000000000000000000000000000000000000000000000000100090206789815NEREIDE RODRIGUES FERREIRA              AVENIDA PADRE ESTANISLAU DE CAMPOS - 205            03590060                                                            000026
2SR. CAIXA, APOS O VENCIMENTO COBRAR 10% DE MULTA                                NAO RECEBER APOS 30 DIAS DO VENCIMENTO.                                                                                                                                                                                                         01112000000000000000111200000000000000       0090028004416120902067112012000027
100000000000000000000009002800441612000000000000000000000000010002100029150711201000000000002            2  01291507112010112000000003620310000000001N011120000000000000000000000000000000000000000000000000000000000000000100029150742833ANA DEISE SANTOS DE ALMEIDA             RUA MONTE CASTELO - 296 AP.121 - AVIACAO            11702720                                                            000029
2SR. CAIXA, APOS O VENCIMENTO COBRAR 10% DE MULTA                                NAO RECEBER APOS 30 DIAS DO VENCIMENTO.                                                                                                                                                                                                         01112000000000000000111200000000000000       0090028004416120291507112010000030
100000000000000000000009002800441612000000000000000000000000010002100000811711201600000000002            2  01008117112010112000000002981990000000001N011120000000000000000000000000000000000000000000000000000000000000000100000811752801SERGIO BUENO DA SILVA                   RUA MONTE CASTELO - 262 AP.75 - AVIACAO             11702720                                                            000032
2SR. CAIXA, APOS O VENCIMENTO COBRAR 10% DE MULTA                                NAO RECEBER APOS 30 DIAS DO VENCIMENTO.                                                                                                                                                                                                         01112000000000000000111200000000000000       0090028004416120008117112016000033
100000000000000000000009002800441612000000000000000000000000010002100018344811201200000000002            2  01183448112010112000000004054760000000001N011120000000000000000000000000000000000000000000000000000000000000000100018344803888MARCELO BERNARDO                        RUA MONTE CASTELO - 262 AP.84 - AVIACAO             11702720                                                            000035
2SR. CAIXA, APOS O VENCIMENTO COBRAR 10% DE MULTA                                NAO RECEBER APOS 30 DIAS DO VENCIMENTO.                                                                                                                                                                                                         01112000000000000000111200000000000000       0090028004416120183448112012000036
100000000000000000000009002800441612000000000000000000000000010002100004004311201P00000000002            2  01040043112010112000000005314510000000001N011120000000000000000000000000000000000000000000000000000000000000000100004004328896VANDERLEI  MARTINS DE ALMEIDA           RUA MONSENHOR TABOSA - 03 - PARQUE CISPE            03819300                                                            000038
2SR. CAIXA, APOS O VENCIMENTO COBRAR 10% DE MULTA                                NAO RECEBER APOS 30 DIAS DO VENCIMENTO.                                                                                                                                                                                                         01112000000000000000111200000000000000       009002800441612004004311201P000039
100000000000000000000009002800441612000000000000000000000000010002100031803811201800000000002            2  01318038112010112000000003274420000000001N011120000000000000000000000000000000000000000000000000000000000000000100031803864877ELEILSON FELIPPE SANTOS                 RUA SANTA GREGORIA - 193 - CIDADE DUTRA             04806030                                                            000041
2SR. CAIXA, APOS O VENCIMENTO COBRAR 10% DE MULTA                                NAO RECEBER APOS 30 DIAS DO VENCIMENTO.                                                                                                                                                                                                         01112000000000000000111200000000000000       0090028004416120318038112018000042
100000000000000000000009002800441612000000000000000000000000010002100026032611201600000000002            2  01260326112010112000000002253330000000001N011120000000000000000000000000000000000000000000000000000000000000000100026032632857MARILA LOPES PEREIRA                    AVENIDA LUIZ GUSHIKEN - 1761 AP.13 BL.05            05831315                                                            000044
2SR. CAIXA, APOS O VENCIMENTO COBRAR 10% DE MULTA                                NAO RECEBER APOS 30 DIAS DO VENCIMENTO.                                                                                                                                                                                                         01112000000000000000111200000000000000       0090028004416120260326112016000045
100000000000000000000009002800441612000000000000000000000000010002100063064511201200000000002            2  01630645112010112000000003902060000000001N011120000000000000000000000000000000000000000000000000000000000000000100063064537849ANTONIO APARECIDO DA SILVA DESTEFANO    RUA PROFESSOR TEODORO BRAGA - 46 - VILA             02966020                                                            000047
2SR. CAIXA, APOS O VENCIMENTO COBRAR 10% DE MULTA                                NAO RECEBER APOS 30 DIAS DO VENCIMENTO.                                                                                                                                                                                                         01112000000000000000111200000000000000       0090028004416120630645112012000048
100000000000000000000009002800441612000000000000000000000000010002100010107711201800000000002            2  01101077112010112000000003739360000000001N011120000000000000000000000000000000000000000000000000000000000000000100010107711834VALDEMAR FECCHIO                        RUA DOUTOR MARTINS DE OLIVEIRA - 529 AP.            05638030                                                            000050
2SR. CAIXA, APOS O VENCIMENTO COBRAR 10% DE MULTA                                NAO RECEBER APOS 30 DIAS DO VENCIMENTO.                                                                                                                                                                                                         01112000000000000000111200000000000000       0090028004416120101077112018000051
100000000000000000000009002800441612000000000000000000000000010002100003330711201700000000002            2  01033307112010112000000004810450000000001N011120000000000000000000000000000000000000000000000000000000000000000100003330791837MARLI DA SILVA BARBOSA                  RUA GLICERIO CERQUEIRA LEITE - 151 - JAR            03675040                                                            000053
2SR. CAIXA, APOS O VENCIMENTO COBRAR 10% DE MULTA                                NAO RECEBER APOS 30 DIAS DO VENCIMENTO.                                                                                                                                                                                                         01112000000000000000111200000000000000       0090028004416120033307112017000054
100000000000000000000009002800441612000000000000000000000000010002100005920511201100000000002            2  01059205112010112000000002271800000000001N011120000000000000000000000000000000000000000000000000000000000000000100005920579846SONIA MARIA VALDO POLLO                 RUA PALMIRA CERVI BARBARO - 797 - CIDADE            13214370                                                            000056
2SR. CAIXA, APOS O VENCIMENTO COBRAR 10% DE MULTA                                NAO RECEBER APOS 30 DIAS DO VENCIMENTO.                                                                                                                                                                                                         01112000000000000000111200000000000000       0090028004416120059205112011000057
100000000000000000000009002800441612000000000000000000000000010002100002494111201200000000002            2  01024941112010112000000003415760000000001N011120000000000000000000000000000000000000000000000000000000000000000100002494107881CIRO FRANCISCO MARCHI DURIGON           RUA MONTE CASTELO - 262 AP.115 - AVIACAO            11702720                                                            000059
2SR. CAIXA, APOS O VENCIMENTO COBRAR 10% DE MULTA                                NAO RECEBER APOS 30 DIAS DO VENCIMENTO.                                                                                                                                                                                                         01112000000000000000111200000000000000       0090028004416120024941112012000060
100000000000000000000009002800441612000000000000000000000000010002100007002311201P00000000002            2  01070023112010112000000003357850000000001N011120000000000000000000000000000000000000000000000000000000000000000100007002345869DOMINGOS DE BRITO GALVAO                RUA MONTE CASTELO - 262 AP.44 - AVIACAO             11702720                                                            000062
2SR. CAIXA, APOS O VENCIMENTO COBRAR 10% DE MULTA                                NAO RECEBER APOS 30 DIAS DO VENCIMENTO.                                                                                                                                                                                                         01112000000000000000111200000000000000       009002800441612007002311201P000063
100000000000000000000009002800441612000000000000000000000000010002100016299011201300000000002            2  01162990112010112000000003236970000000001N011120000000000000000000000000000000000000000000000000000000000000000100016299008857FERNANDO CESAR CARVALHO                 AVENIDA MARCONDES DE BRITO - 1340 AP.74             03509000                                                            000065
2SR. CAIXA, APOS O VENCIMENTO COBRAR 10% DE MULTA                                NAO RECEBER APOS 30 DIAS DO VENCIMENTO.                                                                                                                                                                                                         01112000000000000000111200000000000000       0090028004416120162990112013000066
100000000000000000000009002800441612000000000000000000000000010002100031082811201700000000002            2  01310828112010112000000003252660000000001N011120000000000000000000000000000000000000000000000000000000000000000100031082898880VANESSA DOS SANTOS NEIVA                RUA MONTE CASTELO - 296 AP.33 - BAIRRO A            11702720                                                            000068
2SR. CAIXA, APOS O VENCIMENTO COBRAR 10% DE MULTA                                NAO RECEBER APOS 30 DIAS DO VENCIMENTO.                                                                                                                                                                                                         01112000000000000000111200000000000000       0090028004416120310828112017000069
100000000000000000000009002800441612000000000000000000000000010002100065895311201700000000002            2  01658953112010112000000001980390000000001N011120000000000000000000000000000000000000000000000000000000000000000100065895304834MARINHO BARBOSA CUNHA                   AVENIDA EDU CHAVES - 639 AP.43 - PARQUE             02229000                                                            000071
2SR. CAIXA, APOS O VENCIMENTO COBRAR 10% DE MULTA                                NAO RECEBER APOS 30 DIAS DO VENCIMENTO.                                                                                                                                                                                                         01112000000000000000111200000000000000       0090028004416120658953112017000072
100000000000000000000009002800441612000000000000000000000000010002100055975311201400000000002            2  01559753112010112000000000739190000000001N011120000000000000000000000000000000000000000000000000000000000000000100055975372887BENEVENUTO THEODORO DA SILVA NETO       RUA MONTE CASTELO - 296 AP.63 - AVIACAO             11702720                                                            000074
2SR. CAIXA, APOS O VENCIMENTO COBRAR 10% DE MULTA                                NAO RECEBER APOS 30 DIAS DO VENCIMENTO.                                                                                                                                                                                                         01112000000000000000111200000000000000       0090028004416120559753112014000075
9                                                                                                                                                                                                                                                                                                                                                                                                         000076