01REMESSA01COBRANCA       00000000000008017025HB SANTOS CONSTRUTORA E INCORP237BRADESCO       010921        MX0000135                                                                                                                                                                                                                                                                                     000001
100000000000000000000009033990000627000000000000000000000000010002020016479009211800000000002            2  01164790092109092100000004506750000000001N010921000000000000000000000000000000000000000000000000000000000000000100016479002806LOURDES PEREIRA DE QUEIROZ SECANECHIA   RUA PAULINO CURSI - 437 - CIDADE SAO MAT            03960060                                                            000002
2SR. CAIXA, APOS O VENCIMENTO COBRAR 2% DE MULTA                                 NAO RECEBER APOS 30 DIAS DO VENCIMENTO.                                                                                                                                                                                                         01092100000000000000109210000000000000       0090339900006270164790092118000003
100000000000000000000009033990000627000000000000000000000000010002020009361409211500000000002            2  01093614092109092100000003271910000000001N010921000000000000000000000000000000000000000000000000000000000000000100009361471805JOSE BARBOSA DA SILVA                   RUA ALFREDO INACIO TRINDADE  - 60 AP.44             02344100                                                            000005
2SR. CAIXA, APOS O VENCIMENTO COBRAR 2% DE MULTA                                 NAO RECEBER APOS 30 DIAS DO VENCIMENTO.                                                                                                                                                                                                         01092100000000000000109210000000000000       0090339900006270093614092115000006
100000000000000000000009033990000627000000000000000000000000010002020012756909211900000000002            2  01127569092109092100000002824390000000001N010921000000000000000000000000000000000000000000000000000000000000000100012756959812ITAMAR JUVENAL DIAS DA SILVA            RUA ELISEU REINALDO MORAES VIEIRA - 90 A            02858000                                                            000008
2SR. CAIXA, APOS O VENCIMENTO COBRAR 2% DE MULTA                                 NAO RECEBER APOS 30 DIAS DO VENCIMENTO.                                                                                                                                                                                                         01092100000000000000109210000000000000       0090339900006270127569092119000009
100000000000000000000009033990000627000000000000000000000000010002020028802109211400000000002            2  01288021092109092100000003015190000000001N010921000000000000000000000000000000000000000000000000000000000000000100028802158894ELIEL HENRIQUE ZUZA                     RUA CARLOS JOSE BORSTENS - 50 AP.43 - BA            11702750                                                            000011
2SR. CAIXA, APOS O VENCIMENTO COBRAR 2% DE MULTA                                 NAO RECEBER APOS 30 DIAS DO VENCIMENTO.                                                                                                                                                                                                         01092100000000000000109210000000000000       0090339900006270288021092114000012
100000000000000000000009033990000627000000000000000000000000010002020005313709211400000000002            2  01053137092111092100000002437290000000001N010921000000000000000000000000000000000000000000000000000000000000000100005313717863EDIMICIO JOSE DE ARAUJO                 RUA JOSE CALIXTO DO CARMO - 286 AP.101 -            11702690                                                            000014
2SR. CAIXA, APOS O VENCIMENTO COBRAR 2% DE MULTA                                 NAO RECEBER APOS 30 DIAS DO VENCIMENTO.                                                                                                                                                                                                         01092100000000000000109210000000000000       0090339900006270053137092114000015
100000000000000000000009033990000627000000000000000000000000010002020029433609211200000000002            2  01294336092111092100000002341430000000001N010921000000000000000000000000000000000000000000000000000000000000000100029433631897MARIO MUNIZ                             RUA JOSE CALIXTO DO CARMO - 286 AP.53 -             11702690                                                            000017
2SR. CAIXA, APOS O VENCIMENTO COBRAR 2% DE MULTA                                 NAO RECEBER APOS 30 DIAS DO VENCIMENTO.                                                                                                                                                                                                         01092100000000000000109210000000000000       0090339900006270294336092112000018
100000000000000000000009033990000627000000000000000000000000010002020005029809211500000000002            2  01050298092109092100000002879620000000001N010921000000000000000000000000000000000000000000000000000000000000000100005029828885LAURINETE DA CONCEICAO DE NORONHA       RUA MARIA LUCIA DE TOLEDO LEITE MORAES -            04434040                                                            000020
2SR. CAIXA, APOS O VENCIMENTO COBRAR 2% DE MULTA                                 NAO RECEBER APOS 30 DIAS DO VENCIMENTO.                                                                                                                                                                                                         01092100000000000000109210000000000000       0090339900006270050298092115000021
100000000000000000000009033990000627000000000000000000000000010002020013388909211700000000002            2  01133889092111092100000002282510000000001N010921000000000000000000000000000000000000000000000000000000000000000100013388936889NEUTON DE SOUZA RAMOS                   RUA MARIA CRISTINA - 932 - JARDIM CASQUE            11533160                                                            000023
2SR. CAIXA, APOS O VENCIMENTO COBRAR 2% DE MULTA                                 NAO RECEBER APOS 30 DIAS DO VENCIMENTO.                                                                                                                                                                                                         01092100000000000000109210000000000000       0090339900006270133889092117000024
100000000000000000000009033990000627000000000000000000000000010002020012774909211700000000002            2  01127749092111092100000002325380000000001N010921000000000000000000000000000000000000000000000000000000000000000100012774906865JOSE MILTON SANTIAGO                    RUA BATATAIS - 47 - CIDADE ESTELA - POA             08563140                                                            000026
2SR. CAIXA, APOS O VENCIMENTO COBRAR 2% DE MULTA                                 NAO RECEBER APOS 30 DIAS DO VENCIMENTO.                                                                                                                                                                                                         01092100000000000000109210000000000000       0090339900006270127749092117000027
100000000000000000000009033990000627000000000000000000000000010002020016294109211200000000002            2  01162941092109092100000002858960000000001N010921000000000000000000000000000000000000000000000000000000000000000100016294119812JURACY FELIX DE ARRUDA                  RUA CARLOS JOSE BORSTENS - 50 AP.23 - AV            11702750                                                            000029
2SR. CAIXA, APOS O VENCIMENTO COBRAR 2% DE MULTA                                 NAO RECEBER APOS 30 DIAS DO VENCIMENTO.                                                                                                                                                                                                         01092100000000000000109210000000000000       0090339900006270162941092112000030
100000000000000000000009033990000627000000000000000000000000010002020005613809211700000000002            2  01056138092111092100000002138700000000001N010921000000000000000000000000000000000000000000000000000000000000000100005613843805NILZA MARIA DE OLIVEIRA                 RUA JOSE GONCALVES DE FREITAS - 66 C2 -             08210550                                                            000032
2SR. CAIXA, APOS O VENCIMENTO COBRAR 2% DE MULTA                                 NAO RECEBER APOS 30 DIAS DO VENCIMENTO.                                                                                                                                                                                                         01092100000000000000109210000000000000       0090339900006270056138092117000033
100000000000000000000009033990000627000000000000000000000000010002020007574909211700000000002            2  01075749092111092100000002195320000000001N010921000000000000000000000000000000000000000000000000000000000000000100007574936889JORGE LUCIANO PEREIRA BORRIELLO         RUA JOSE CALIXTO DO CARMO - 286 AP.54 -             11702690                                                            000035
2SR. CAIXA, APOS O VENCIMENTO COBRAR 2% DE MULTA                                 NAO RECEBER APOS 30 DIAS DO VENCIMENTO.                                                                                                                                                                                                         01092100000000000000109210000000000000       0090339900006270075749092117000036
100000000000000000000009033990000627000000000000000000000000010002020008214909211P00000000002            2  01082149092111092100000002228620000000001N010921000000000000000000000000000000000000000000000000000000000000000100008214973830JAMIL CHALA                             RUA JOSE CALIXTO DO CARMO - 286 AP.22 -             11702690                                                            000038
2SR. CAIXA, APOS O VENCIMENTO COBRAR 2% DE MULTA                                 NAO RECEBER APOS 30 DIAS DO VENCIMENTO.                                                                                                                                                                                                         01092100000000000000109210000000000000       009033990000627008214909211P000039
100000000000000000000009033990000627000000000000000000000000010002020032495009211700000000002            2  01324950092111092100000002497460000000001N010921000000000000000000000000000000000000000000000000000000000000000100032495004881PAULO EDUARDO DOS SANTOS                RUA REPUBLICA DO IRAQUE - 1119 - CAMPO B            04611002                                                            000041
2SR. CAIXA, APOS O VENCIMENTO COBRAR 2% DE MULTA                                 NAO RECEBER APOS 30 DIAS DO VENCIMENTO.                                                                                                                                                                                                         01092100000000000000109210000000000000       0090339900006270324950092117000042
100000000000000000000009033990000627000000000000000000000000010002020016498009211400000000002            2  01164980092111092100000002190350000000001N010921000000000000000000000000000000000000000000000000000000000000000100016498053810GILMA CEZARIO GARCIA CORRITORI          RUA LAURENTINO XAVIER DOS SANTOS - 336 -            08240740                                                            000044
2SR. CAIXA, APOS O VENCIMENTO COBRAR 2% DE MULTA                                 NAO RECEBER APOS 30 DIAS DO VENCIMENTO.                                                                                                                                                                                                         01092100000000000000109210000000000000       0090339900006270164980092114000045
100000000000000000000009033990000627000000000000000000000000010002020029339009211300000000002            2  01293390092111092100000002342200000000001N010921000000000000000000000000000000000000000000000000000000000000000100029339051831RONALD DIDOFF                           RUA CORONEL FERREIRA BRAGA - 188 - VILA             03522010                                                            000047
2SR. CAIXA, APOS O VENCIMENTO COBRAR 2% DE MULTA                                 NAO RECEBER APOS 30 DIAS DO VENCIMENTO.                                                                                                                                                                                                         01092100000000000000109210000000000000       0090339900006270293390092113000048
100000000000000000000009033990000627000000000000000000000000010002020017357809211500000000002            2  01173578092111092100000002480600000000001N010921000000000000000000000000000000000000000000000000000000000000000100017357859894MARCIO GUIMARAES                        RUA GENERAL CAMARA - 188 SALA 11 - CENTR            11010120                                                            000050
2SR. CAIXA, APOS O VENCIMENTO COBRAR 2% DE MULTA                                 NAO RECEBER APOS 30 DIAS DO VENCIMENTO.                                                                                                                                                                                                         01092100000000000000109210000000000000       0090339900006270173578092115000051
100000000000000000000009033990000627000000000000000000000000010002020010563009211500000000002            2  01105630092111092100000002543990000000001N010921000000000000000000000000000000000000000000000000000000000000000100010563033878VERA LUCIA RIBEIRO LONGANEZI            RUA DOS CAMARES - 150 AP.24 BL.02 - CARA            02068030                                                            000053
2SR. CAIXA, APOS O VENCIMENTO COBRAR 2% DE MULTA                                 NAO RECEBER APOS 30 DIAS DO VENCIMENTO.                                                                                                                                                                                                         01092100000000000000109210000000000000       0090339900006270105630092115000054
100000000000000000000009033990000627000000000000000000000000010002020005529609211P00000000002            2  01055296092111092100000002308590000000001N010921000000000000000000000000000000000000000000000000000000000000000100005529616801JOAQUIM JORGE DA COSTA                  RUA JOSE CALIXTO DO CARMO - 286 AP.106 -            11702690                                                            000056
2SR. CAIXA, APOS O VENCIMENTO COBRAR 2% DE MULTA                                 NAO RECEBER APOS 30 DIAS DO VENCIMENTO.                                                                                                                                                                                                         01092100000000000000109210000000000000       009033990000627005529609211P000057
100000000000000000000009033990000627000000000000000000000000010002020015550709211600000000002            2  01155507092109092100000002182750000000001N010921000000000000000000000000000000000000000000000000000000000000000100015550706806MARY MIWA                               RUA CARLOS JOSE BORSTENS - 50 AP.105 - A            11702750                                                            000059
2SR. CAIXA, APOS O VENCIMENTO COBRAR 2% DE MULTA                                 NAO RECEBER APOS 30 DIAS DO VENCIMENTO.                                                                                                                                                                                                         01092100000000000000109210000000000000       0090339900006270155507092116000060
100000000000000000000009033990000627000000000000000000000000010002020015464609211600000000002            2  01154646092111092100000002426880000000001N010921000000000000000000000000000000000000000000000000000000000000000100015464647864SONIA TERESA VOLPATO                    RUA JOSE CALIXTO DO CARMO - 286 AP.73 -             11702690                                                            000062
2SR. CAIXA, APOS O VENCIMENTO COBRAR 2% DE MULTA                                 NAO RECEBER APOS 30 DIAS DO VENCIMENTO.                                                                                                                                                                                                         01092100000000000000109210000000000000       0090339900006270154646092116000063
100000000000000000000009033990000627000000000000000000000000010002020008657809211500000000002            2  01086578092111092100000002402510000000001N010921000000000000000000000000000000000000000000000000000000000000000100008657886855ARLINDO DA CRUZ                         AVENIDA ARICANDUVA - 8.256 AP.54 BL.10 -            03951220                                                            000065
2SR. CAIXA, APOS O VENCIMENTO COBRAR 2% DE MULTA                                 NAO RECEBER APOS 30 DIAS DO VENCIMENTO.                                                                                                                                                                                                         01092100000000000000109210000000000000       0090339900006270086578092115000066
100000000000000000000009033990000627000000000000000000000000010002020004265709211500000000002            2  01042657092109092100000003216190000000001N010921000000000000000000000000000000000000000000000000000000000000000100004265781713ALEXANDRE CASADO COSTA                  RUA CARLOS JOSE BORSTENS - 50 AP.33 - AV            11702750                                                            000068
2SR. CAIXA, APOS O VENCIMENTO COBRAR 2% DE MULTA                                 NAO RECEBER APOS 30 DIAS DO VENCIMENTO.                                                                                                                                                                                                         01092100000000000000109210000000000000       0090339900006270042657092115000069
100000000000000000000009033990000627000000000000000000000000010002020059735109211300000000002            2  01597351092109092100000001358450000000001N010921000000000000000000000000000000000000000000000000000000000000000100059735180863HELIO JOSE MARQUES                      RUA MARTIM AFONSO DE SOUZA - 1007 AP.102            11702790                                                            000071
2SR. CAIXA, APOS O VENCIMENTO COBRAR 2% DE MULTA                                 NAO RECEBER APOS 30 DIAS DO VENCIMENTO.                                                                                                                                                                                                         01092100000000000000109210000000000000       0090339900006270597351092113000072
100000000000000000000009033990000627000000000000000000000000010002020026347809211700000000002            2  01263478092111092100000002568220000000001N010921000000000000000000000000000000000000000000000000000000000000000100026347872862VALDECI SILVA MEIRELES                  RUA JOSE BATISTA DA SILVA - 292 - JARDIM            06851470                                                            000074
2SR. CAIXA, APOS O VENCIMENTO COBRAR 2% DE MULTA                                 NAO RECEBER APOS 30 DIAS DO VENCIMENTO.                                                                                                                                                                                                         01092100000000000000109210000000000000       0090339900006270263478092117000075
100000000000000000000009033990000627000000000000000000000000010002020013135209211800000000002            2  01131352092111092100000002359550000000001N010921000000000000000000000000000000000000000000000000000000000000000100013135261859EDUARDO ZANOLA                          RUA ROLANDO PIETRO BONINI - 46 - JARDIM             09781040                                                            000077
2SR. CAIXA, APOS O VENCIMENTO COBRAR 2% DE MULTA                                 NAO RECEBER APOS 30 DIAS DO VENCIMENTO.                                                                                                                                                                                                         01092100000000000000109210000000000000       0090339900006270131352092118000078
100000000000000000000009033990000627000000000000000000000000010002020009797609211900000000002            2  01097976092111092100000002297960000000001N010921000000000000000000000000000000000000000000000000000000000000000100009797626857RICARDO SOBRAL DE OLIVEIRA              RUA 23 DE MAIO - 139 AP.32 - VILA MIRIM             11704690                                                            000080
2SR. CAIXA, APOS O VENCIMENTO COBRAR 2% DE MULTA                                 NAO RECEBER APOS 30 DIAS DO VENCIMENTO.                                                                                                                                                                                                         01092100000000000000109210000000000000       0090339900006270097976092119000081
100000000000000000000009033990000627000000000000000000000000010002020004767609211P00000000002            2  01047676092109092100000003929460000000001N010921000000000000000000000000000000000000000000000000000000000000000100004767679893ORLANDO GRANDE FILHO                    RUA ORLANDO MIGLIARI - 101 - JARDIM OURO            19906140                                                            000083
2SR. CAIXA, APOS O VENCIMENTO COBRAR 2% DE MULTA                                 NAO RECEBER APOS 30 DIAS DO VENCIMENTO.                                                                                                                                                                                                         01092100000000000000109210000000000000       009033990000627004767609211P000084
100000000000000000000009033990000627000000000000000000000000010002020006512509211700000000002            2  01065125092111092100000002067110000000001N010921000000000000000000000000000000000000000000000000000000000000000100006512547870MARIA DO CARMO FAGUNDES DOS REIS        RUA CARLOS MALCHER - 98 - PARQUE EDU CHA            02232020                                                            000086
2SR. CAIXA, APOS O VENCIMENTO COBRAR 2% DE MULTA                                 NAO RECEBER APOS 30 DIAS DO VENCIMENTO.                                                                                                                                                                                                         01092100000000000000109210000000000000       0090339900006270065125092117000087
100000000000000000000009033990000627000000000000000000000000010002020022728409211P00000000002            2  01227284092111092100000002486550000000001N010921000000000000000000000000000000000000000000000000000000000000000100022728497842WILLIAN DE SOUZA MELLO                  RUA JOSE CALIXTO DO CARMO - 286 AP.111 -            11702690                                                            000089
2SR. CAIXA, APOS O VENCIMENTO COBRAR 2% DE MULTA                                 NAO RECEBER APOS 30 DIAS DO VENCIMENTO.                                                                                                                                                                                                         01092100000000000000109210000000000000       009033990000627022728409211P000090
100000000000000000000009033990000627000000000000000000000000010002020016909709211400000000002            2  01169097092111092100000002197320000000001N010921000000000000000000000000000000000000000000000000000000000000000100016909746805EDIVALDO SANTANA DOS SANTOS             ESTRADA JOAO GASPAR DELGADO - 80 AP.213             08536100                                                            000092
2SR. CAIXA, APOS O VENCIMENTO COBRAR 2% DE MULTA                                 NAO RECEBER APOS 30 DIAS DO VENCIMENTO.                                                                                                                                                                                                         01092100000000000000109210000000000000       0090339900006270169097092114000093
100000000000000000000009033990000627000000000000000000000000010002020022036009211100000000002            2  01220360092109092100000003412210000000001N010921000000000000000000000000000000000000000000000000000000000000000100022036003818DERLIS TERAN QUIROGA ROGATO             RUA JOAO RIBEIRO - 320 AP.131SB - CAMPES            09070250                                                            000095
2SR. CAIXA, APOS O VENCIMENTO COBRAR 2% DE MULTA                                 NAO RECEBER APOS 30 DIAS DO VENCIMENTO.                                                                                                                                                                                                         01092100000000000000109210000000000000       0090339900006270220360092111000096
100000000000000000000009033990000627000000000000000000000000010002020017229709213600000000002            2  01172297092109092100000003293090000000001N010921000000000000000000000000000000000000000000000000000000000000000100017229751802BERENICE VIEIRA KERSTING                RUA ATIBAIA - 17 AP.417 - BAIRRO IMPERAD            11707380                                                            000098
2SR. CAIXA, APOS O VENCIMENTO COBRAR 2% DE MULTA                                 NAO RECEBER APOS 30 DIAS DO VENCIMENTO.                                                                                                                                                                                                         01092100000000000000109210000000000000       0090339900006270172297092136000099
100000000000000000000009033990000627000000000000000000000000010002020012475609211500000000002            2  01124756092111092100000002381780000000001N010921000000000000000000000000000000000000000000000000000000000000000100012475663820CELIDALVA GOES DE CARVALHO              RUA JOSE CALIXTO DO CARMO - 286 AP.91 -             11702690                                                            000101
2SR. CAIXA, APOS O VENCIMENTO COBRAR 2% DE MULTA                                 NAO RECEBER APOS 30 DIAS DO VENCIMENTO.                                                                                                                                                                                                         01092100000000000000109210000000000000       0090339900006270124756092115000102
100000000000000000000009033990000627000000000000000000000000010002020033451609211200000000002            2  01334516092111092100000001988940000000001N010921000000000000000000000000000000000000000000000000000000000000000100033451620839ARAO ELISIARIO  NUNES                   RUA JOSE CALIXTO DO CARMO - 286 AP.64 -             11702690                                                            000104
2SR. CAIXA, APOS O VENCIMENTO COBRAR 2% DE MULTA                                 NAO RECEBER APOS 30 DIAS DO VENCIMENTO.                                                                                                                                                                                                         01092100000000000000109210000000000000       0090339900006270334516092112000105
100000000000000000000009033990000627000000000000000000000000010002020045839209211P00000000002            2  01458392092111092100000001543770000000001N010921000000000000000000000000000000000000000000000000000000000000000100045839263834LEONARDO ANTONIO CONCELLIERI            RUA JOSE CALIXTO DO CARMO - 286 AP.51 -             11702690                                                            000107
2SR. CAIXA, APOS O VENCIMENTO COBRAR 2% DE MULTA                                 NAO RECEBER APOS 30 DIAS DO VENCIMENTO.                                                                                                                                                                                                         01092100000000000000109210000000000000       009033990000627045839209211P000108
100000000000000000000009033990000627000000000000000000000000010002020011369109211000000000002            2  01113691092111092100000002172670000000001N010921000000000000000000000000000000000000000000000000000000000000000100011369165803ELIANA CORREA DE OLIVEIRA               RUA MAESTRO ZEFERINO SANTANA - 65 - VILA            18040010                                                            000110
2SR. CAIXA, APOS O VENCIMENTO COBRAR 2% DE MULTA                                 NAO RECEBER APOS 30 DIAS DO VENCIMENTO.                                                                                                                                                                                                         01092100000000000000109210000000000000       0090339900006270113691092110000111
100000000000000000000009033990000627000000000000000000000000010002020002253809211400000000002            2  01022538092111092100000001931090000000001N010921000000000000000000000000000000000000000000000000000000000000000100002253816809EDMILSON ALVES DA SILVA                 RUA JOSE CALIXTO DO CARMO - 286 AP.93 -             11702690                                                            000113
2SR. CAIXA, APOS O VENCIMENTO COBRAR 2% DE MULTA                                 NAO RECEBER APOS 30 DIAS DO VENCIMENTO.                                                                                                                                                                                                         01092100000000000000109210000000000000       0090339900006270022538092114000114
100000000000000000000009033990000627000000000000000000000000010002020037947009211600000000002            2  01379470092111092100000003429730000000001N010921000000000000000000000000000000000000000000000000000000000000000100037947070873BRUNO DE CAETANO MARRINHAS              AVENIDA GENERAL BARRETO DE MENEZES - 323            09791150                                                            000116
2SR. CAIXA, APOS O VENCIMENTO COBRAR 2% DE MULTA                                 NAO RECEBER APOS 30 DIAS DO VENCIMENTO.                                                                                                                                                                                                         01092100000000000000109210000000000000       0090339900006270379470092116000117
100000000000000000000009033990000627000000000000000000000000010002020037517709211400000000002            2  01375177092109092100000003619180000000001N010921000000000000000000000000000000000000000000000000000000000000000100037517785869RENATO JOSE DE LIMA MELO                RUA ARISTIDES LOBO - 148 AP.41 BLOCO 03             03041100                                                            000119
2SR. CAIXA, APOS O VENCIMENTO COBRAR 2% DE MULTA                                 NAO RECEBER APOS 30 DIAS DO VENCIMENTO.                                                                                                                                                                                                         01092100000000000000109210000000000000       0090339900006270375177092114000120
100000000000000000000009033990000627000000000000000000000000010002020070367909211500000000002            2  01703679092111092100000001813400000000001N010921000000000000000000000000000000000000000000000000000000000000000100070367949849TEODOMIRO ALVES DOS SANTOS              RUA ANDRE PAZ - 13 - JARDIM SANTO ANDRE             08390230                                                            000122
2SR. CAIXA, APOS O VENCIMENTO COBRAR 2% DE MULTA                                 NAO RECEBER APOS 30 DIAS DO VENCIMENTO.                                                                                                                                                                                                         01092100000000000000109210000000000000       0090339900006270703679092115000123
100000000000000000000009033990000627000000000000000000000000010002020004410809211400000000002            2  01044108092109092100000002689080000000001N010921000000000000000000000000000000000000000000000000000000000000000100004410802860LUIZ ALBERTO MARINHO                    RUA DA INDEPENDENCIA - 706 AP.41B - CAMB            01524000                                                            000125
2SR. CAIXA, APOS O VENCIMENTO COBRAR 2% DE MULTA                                 NAO RECEBER APOS 30 DIAS DO VENCIMENTO.                                                                                                                                                                                                         01092100000000000000109210000000000000       0090339900006270044108092114000126
100000000000000000000009033990000627000000000000000000000000010002020018035009211100000000002            2  01180350092111092100000002427060000000001N010921000000000000000000000000000000000000000000000000000000000000000100018035075861ROSANGELA BISPO SANTOS                  RUA CASSIANO GABUS MENDES - 292 - JD. CA            09896160                                                            000128
2SR. CAIXA, APOS O VENCIMENTO COBRAR 2% DE MULTA                                 NAO RECEBER APOS 30 DIAS DO VENCIMENTO.                                                                                                                                                                                                         01092100000000000000109210000000000000       0090339900006270180350092111000129
100000000000000000000009033990000627000000000000000000000000010002020004767609212800000000002            2  01047676092109092100000003589880000000001N010921000000000000000000000000000000000000000000000000000000000000000100004767679893ORLANDO GRANDE FILHO                    RUA ORLANDO MIGLIARI - 101 - JARDIM OURO            19906140                                                            000131
2SR. CAIXA, APOS O VENCIMENTO COBRAR 2% DE MULTA                                 NAO RECEBER APOS 30 DIAS DO VENCIMENTO.                                                                                                                                                                                                         01092100000000000000109210000000000000       0090339900006270047676092128000132
100000000000000000000009033990000627000000000000000000000000010002020064677809211500000000002            2  01646778092109092100000010938080000000001N010921000000000000000000000000000000000000000000000000000000000000000100064677850887ANTONIO CARLOS DE OLIVEIRA              RUA DR.ANTONIO MAZILLI FILHO - 435 - PAR            02230070                                                            000134
2SR. CAIXA, APOS O VENCIMENTO COBRAR 2% DE MULTA                                 NAO RECEBER APOS 30 DIAS DO VENCIMENTO.                                                                                                                                                                                                         01092100000000000000109210000000000000       0090339900006270646778092115000135
100000000000000000000009033990000627000000000000000000000000010002020064677809212300000000002            2  01646778092109092100000002887780000000001N010921000000000000000000000000000000000000000000000000000000000000000100064677850887ANTONIO CARLOS DE OLIVEIRA              RUA DR.ANTONIO MAZILLI FILHO - 435 - PAR            02230070                                                            000137
2SR. CAIXA, APOS O VENCIMENTO COBRAR 2% DE MULTA                                 NAO RECEBER APOS 30 DIAS DO VENCIMENTO.                                                                                                                                                                                                         01092100000000000000109210000000000000       0090339900006270646778092123000138
100000000000000000000009033990000627000000000000000000000000010002020007328909211000000000002            2  01073289092109092100000003523260000000001N010921000000000000000000000000000000000000000000000000000000000000000100007328927836BENEDITO APARECIDO ROCHA                AVENIDA SENADOR JOSE ERMINIO DE MORAES -            02357002                                                            000140
2SR. CAIXA, APOS O VENCIMENTO COBRAR 2% DE MULTA                                 NAO RECEBER APOS 30 DIAS DO VENCIMENTO.                                                                                                                                                                                                         01092100000000000000109210000000000000       0090339900006270073289092110000141
100000000000000000000009033990000627000000000000000000000000010002020028082609211P00000000002            2  01280826092111092100000002013330000000001N010921000000000000000000000000000000000000000000000000000000000000000100028082615869PRISCILA PEREIRA                        ALAMEDA AFONSO BOCCHIGLIERI - 184 - INTE            04445130                                                            000143
2SR. CAIXA, APOS O VENCIMENTO COBRAR 2% DE MULTA                                 NAO RECEBER APOS 30 DIAS DO VENCIMENTO.                                                                                                                                                                                                         01092100000000000000109210000000000000       009033990000627028082609211P000144
100000000000000000000009033990000627000000000000000000000000010002020013184809211800000000002            2  01131848092111092100000002087810000000001N010921000000000000000000000000000000000000000000000000000000000000000100013184856810SYDNEY HENRIQUE GAMARANO JUNIOR         RUA JOSE CALIXTO DO CARMO - 286 AP.125 -            11702690                                                            000146
2SR. CAIXA, APOS O VENCIMENTO COBRAR 2% DE MULTA                                 NAO RECEBER APOS 30 DIAS DO VENCIMENTO.                                                                                                                                                                                                         01092100000000000000109210000000000000       0090339900006270131848092118000147
100000000000000000000009033990000627000000000000000000000000010002020058488609211800000000002            2  01584886092109092100000002633870000000001N010921000000000000000000000000000000000000000000000000000000000000000100058488618972ADAILTON ZANUTTO MORESCHI               R:RAPHAEL UNGARO - COND.RESERVA SERRA Q.            13212138                                                            000149
2SR. CAIXA, APOS O VENCIMENTO COBRAR 2% DE MULTA                                 NAO RECEBER APOS 30 DIAS DO VENCIMENTO.                                                                                                                                                                                                         01092100000000000000109210000000000000       0090339900006270584886092118000150
100000000000000000000009033990000627000000000000000000000000010002020040194809211200000000002            2  01401948092109092100000003497470000000001N010921000000000000000000000000000000000000000000000000000000000000000100040194815803JULIANA SANTOS PENSSE                   RUA SALVADOR SOARES - 85 - QUINHOES DA B            13190240                                                            000152
2SR. CAIXA, APOS O VENCIMENTO COBRAR 2% DE MULTA                                 NAO RECEBER APOS 30 DIAS DO VENCIMENTO.                                                                                                                                                                                                         01092100000000000000109210000000000000       0090339900006270401948092112000153
100000000000000000000009033990000627000000000000000000000000010002020011381909211900000000002            2  01113819092109092100000002790950000000001N010921000000000000000000000000000000000000000000000000000000000000000100011381987818MARIO DONIZETE MIGUEL DA SILVA          RUA JASPE - 215 - NOVA HIGIANOPOLIS - JA            06642270                                                            000155
2SR. CAIXA, APOS O VENCIMENTO COBRAR 2% DE MULTA                                 NAO RECEBER APOS 30 DIAS DO VENCIMENTO.                                                                                                                                                                                                         01092100000000000000109210000000000000       0090339900006270113819092119000156
100000000000000000000009033990000627000000000000000000000000010002020002196009211200000000002            2  01021960092111092100000001980440000000001N010921000000000000000000000000000000000000000000000000000000000000000100002196012831VILEFORT DIAS BORGES                    RUA PORTO XAVIER - 189 AP.64 - VILA CARM            08210170                                                            000158
2SR. CAIXA, APOS O VENCIMENTO COBRAR 2% DE MULTA                                 NAO RECEBER APOS 30 DIAS DO VENCIMENTO.                                                                                                                                                                                                         01092100000000000000109210000000000000       0090339900006270021960092112000159
100000000000000000000009033990000627000000000000000000000000010002020031861509211000000000002            2  01318615092111092100000002058440000000001N010921000000000000000000000000000000000000000000000000000000000000000100031861586809VANIA TOMAZ                             RUA MANOEL DOS REIS MACHADO - 557 - JARD            13221653                                                            000161
2SR. CAIXA, APOS O VENCIMENTO COBRAR 2% DE MULTA                                 NAO RECEBER APOS 30 DIAS DO VENCIMENTO.                                                                                                                                                                                                         01092100000000000000109210000000000000       0090339900006270318615092110000162
100000000000000000000009033990000627000000000000000000000000010002020003104509211400000000002            2  01031045092109092100000007667100000000001N010921000000000000000000000000000000000000000000000000000000000000000100003104580804NELSON RODRIGUES                        RUA AGUA SANTA - 114 - AGUA RASA - SAO P            03179110                                                            000164
2SR. CAIXA, APOS O VENCIMENTO COBRAR 2% DE MULTA                                 NAO RECEBER APOS 30 DIAS DO VENCIMENTO.                                                                                                                                                                                                         01092100000000000000109210000000000000       0090339900006270031045092114000165
100000000000000000000009033990000627000000000000000000000000010002020007715309211200000000002            2  01077153092109092100000003239340000000001N010921000000000000000000000000000000000000000000000000000000000000000100007715360627NILTON RENNAN OLIVEIRA GOMES FILHO      RUA CARLOS JOSE BORSTENS - 50 AP.21 - AV            11702750                                                            000167
2SR. CAIXA, APOS O VENCIMENTO COBRAR 2% DE MULTA                                 NAO RECEBER APOS 30 DIAS DO VENCIMENTO.                                                                                                                                                                                                         01092100000000000000109210000000000000       0090339900006270077153092112000168
100000000000000000000009033990000627000000000000000000000000010002020029028409211300000000002            2  01290284092109092100000001342100000000001N010921000000000000000000000000000000000000000000000000000000000000000100029028478825LEONARDO LOUZADA                        RUA CARLOS JOSE BORSTENS - 50 AP.35 - AV            11702750                                                            000170
2SR. CAIXA, APOS O VENCIMENTO COBRAR 2% DE MULTA                                 NAO RECEBER APOS 30 DIAS DO VENCIMENTO.                                                                                                                                                                                                         01092100000000000000109210000000000000       0090339900006270290284092113000171
100000000000000000000009033990000627000000000000000000000000010002020007194009211300000000002            2  01071940092111092100000002301860000000001N010921000000000000000000000000000000000000000000000000000000000000000100007194010895RAUL AMANTINO KIRK DE SANCTIS           AVENIDA SANTA CATARINA - 756 AP.01 - VIL            04378000                                                            000173
2SR. CAIXA, APOS O VENCIMENTO COBRAR 2% DE MULTA                                 NAO RECEBER APOS 30 DIAS DO VENCIMENTO.                                                                                                                                                                                                         01092100000000000000109210000000000000       0090339900006270071940092113000174
100000000000000000000009033990000627000000000000000000000000010002020025738609211000000000002            2  01257386092109092100000004652430000000001N010921000000000000000000000000000000000000000000000000000000000000000100025738614810VILMAR JOSE PEREIRA                     ALAMEDA TIETE - 646 - CERQUEIRA CESAR -             01417020                                                            000176
2SR. CAIXA, APOS O VENCIMENTO COBRAR 2% DE MULTA                                 NAO RECEBER APOS 30 DIAS DO VENCIMENTO.                                                                                                                                                                                                         01092100000000000000109210000000000000       0090339900006270257386092110000177
100000000000000000000009033990000627000000000000000000000000010002020025738609212900000000002            2  01257386092109092100000004652420000000001N010921000000000000000000000000000000000000000000000000000000000000000100025738614810VILMAR JOSE PEREIRA                     ALAMEDA TIETE - 646 - CERQUEIRA CESAR -             01417020                                                            000179
2SR. CAIXA, APOS O VENCIMENTO COBRAR 2% DE MULTA                                 NAO RECEBER APOS 30 DIAS DO VENCIMENTO.                                                                                                                                                                                                         01092100000000000000109210000000000000       0090339900006270257386092129000180
100000000000000000000009033990000627000000000000000000000000010002020011141509211200000000002            2  01111415092111092100000002418820000000001N010921000000000000000000000000000000000000000000000000000000000000000100011141508869PAULO ROBERTO TUNES SILVA               RUA PETROBRAS - 405 CASA 07 - VILA ANTON            03474060                                                            000182
2SR. CAIXA, APOS O VENCIMENTO COBRAR 2% DE MULTA                                 NAO RECEBER APOS 30 DIAS DO VENCIMENTO.                                                                                                                                                                                                         01092100000000000000109210000000000000       0090339900006270111415092112000183
9                                                                                                                                                                                                                                                                                                                                                                                                         000184