01REMESSA01COBRANCA       00000000000005316116AIRES CONSTRUTORA E INCORPORAD237BRADESCO       090124        MX0000234                                                                                                                                                                                                                                                                                     000001
100000000000000000000009002800441612000000000000000000000000010002100001204401241400000000002            2  01012044012425012400000003899470000000001N090124000000000000000000000000000000000000000000000000000000000000000100001204431809CEZAR TALAVERA JUNIOR                   RUA MAESTRO ARTURO DE ANGELIS  - 190 AP.            05139010                                                            000002
2SR. CAIXA, APOS O VENCIMENTO COBRAR 10% DE MULTA                                NAO RECEBER APOS 30 DIAS DO VENCIMENTO.                                                                                                                                                                                                         09012400000000000000901240000000000000       0090028004416120012044012414000003
100000000000000000000009002800441612000000000000000000000000010002100014386801241000000000002            2  01143868012425012400000017259810000000001N090124000000000000000000000000000000000000000000000000000000000000000100014386860134SEVERINO CARLOS DE OLIVEIRA             RUA MONTE CASTELO - 262 AP.54 - AVIACAO             11702720                                                            000005
2SR. CAIXA, APOS O VENCIMENTO COBRAR 10% DE MULTA                                NAO RECEBER APOS 30 DIAS DO VENCIMENTO.                                                                                                                                                                                                         09012400000000000000901240000000000000       0090028004416120143868012410000006
100000000000000000000009002800441612000000000000000000000000010002100014386801242900000000002            2  01143868012425012400000002865100000000001N090124000000000000000000000000000000000000000000000000000000000000000100014386860134SEVERINO CARLOS DE OLIVEIRA             RUA MONTE CASTELO - 262 AP.54 - AVIACAO             11702720                                                            000008
2SR. CAIXA, APOS O VENCIMENTO COBRAR 10% DE MULTA                                NAO RECEBER APOS 30 DIAS DO VENCIMENTO.                                                                                                                                                                                                         09012400000000000000901240000000000000       0090028004416120143868012429000009
100000000000000000000009002800441612000000000000000000000000010002100039393701241600000000002            2  01393937012425012400000001974700000000001N090124000000000000000000000000000000000000000000000000000000000000000100039393790850NAIRON RICARDO DE ARAUJO SANTOS         RUA NITEROI - 267 CASA 04 - JARDIM INDEP            11380350                                                            000011
2SR. CAIXA, APOS O VENCIMENTO COBRAR 10% DE MULTA                                NAO RECEBER APOS 30 DIAS DO VENCIMENTO.                                                                                                                                                                                                         09012400000000000000901240000000000000       0090028004416120393937012416000012
9                                                                                                                                                                                                                                                                                                                                                                                                         000013