01REMESSA01COBRANCA       00000000000008017025HB SANTOS CONSTRUTORA E INCORP237BRADESCO       011122        MX0000164                                                                                                                                                                                                                                                                                     000001
100000000000000000000009033990000627000000000000000000000000010002020016479011221600000000002            2  01164790112209112200000005069790000000001N011122000000000000000000000000000000000000000000000000000000000000000100016479002806LOURDES PEREIRA DE QUEIROZ SECANECHIA   RUA PAULINO CURSI - 437 - CIDADE SAO MAT            03960060                                                            000002
2SR. CAIXA, APOS O VENCIMENTO COBRAR 2% DE MULTA                                 NAO RECEBER APOS 30 DIAS DO VENCIMENTO.                                                                                                                                                                                                         01112200000000000000111220000000000000       0090339900006270164790112216000003
100000000000000000000009033990000627000000000000000000000000010002020017229711222600000000002            2  01172297112209112200000003858060000000001N011122000000000000000000000000000000000000000000000000000000000000000100017229751802BERENICE VIEIRA KERSTING                RUA ATIBAIA - 17 AP.417 - BAIRRO IMPERAD            11707380                                                            000005
2SR. CAIXA, APOS O VENCIMENTO COBRAR 2% DE MULTA                                 NAO RECEBER APOS 30 DIAS DO VENCIMENTO.                                                                                                                                                                                                         01112200000000000000111220000000000000       0090339900006270172297112226000006
100000000000000000000009033990000627000000000000000000000000010002020009361411221300000000002            2  01093614112209112200000003680670000000001N011122000000000000000000000000000000000000000000000000000000000000000100009361471805JOSE BARBOSA DA SILVA                   RUA ALFREDO INACIO TRINDADE  - 60 AP.44             02344100                                                            000008
2SR. CAIXA, APOS O VENCIMENTO COBRAR 2% DE MULTA                                 NAO RECEBER APOS 30 DIAS DO VENCIMENTO.                                                                                                                                                                                                         01112200000000000000111220000000000000       0090339900006270093614112213000009
100000000000000000000009033990000627000000000000000000000000010002020012756911221700000000002            2  01127569112209112200000003177230000000001N011122000000000000000000000000000000000000000000000000000000000000000100012756959812ITAMAR JUVENAL DIAS DA SILVA            RUA ELISEU REINALDO MORAES VIEIRA - 90 A            02858000                                                            000011
2SR. CAIXA, APOS O VENCIMENTO COBRAR 2% DE MULTA                                 NAO RECEBER APOS 30 DIAS DO VENCIMENTO.                                                                                                                                                                                                         01112200000000000000111220000000000000       0090339900006270127569112217000012
100000000000000000000009033990000627000000000000000000000000010002020029433611221000000000002            2  01294336112211112200000002635060000000001N011122000000000000000000000000000000000000000000000000000000000000000100029433631897MARIO MUNIZ                             RUA JOSE CALIXTO DO CARMO - 286 AP.53 -             11702690                                                            000014
2SR. CAIXA, APOS O VENCIMENTO COBRAR 2% DE MULTA                                 NAO RECEBER APOS 30 DIAS DO VENCIMENTO.                                                                                                                                                                                                         01112200000000000000111220000000000000       0090339900006270294336112210000015
100000000000000000000009033990000627000000000000000000000000010002020005029811221300000000002            2  01050298112209112200000003239370000000001N011122000000000000000000000000000000000000000000000000000000000000000100005029828885LAURINETE DA CONCEICAO DE NORONHA       RUA MARIA LUCIA DE TOLEDO LEITE MORAES -            04434040                                                            000017
2SR. CAIXA, APOS O VENCIMENTO COBRAR 2% DE MULTA                                 NAO RECEBER APOS 30 DIAS DO VENCIMENTO.                                                                                                                                                                                                         01112200000000000000111220000000000000       0090339900006270050298112213000018
100000000000000000000009033990000627000000000000000000000000010002020013388911221500000000002            2  01133889112211112200000002568760000000001N011122000000000000000000000000000000000000000000000000000000000000000100013388936889NEUTON DE SOUZA RAMOS                   RUA JOSE CALIXTO DO CARMO - 286 AP.61 -             11702690                                                            000020
2SR. CAIXA, APOS O VENCIMENTO COBRAR 2% DE MULTA                                 NAO RECEBER APOS 30 DIAS DO VENCIMENTO.                                                                                                                                                                                                         01112200000000000000111220000000000000       0090339900006270133889112215000021
100000000000000000000009033990000627000000000000000000000000010002020012774911221500000000002            2  01127749112211112200000002617000000000001N011122000000000000000000000000000000000000000000000000000000000000000100012774906865JOSE MILTON SANTIAGO                    RUA BATATAIS - 47 - CIDADE ESTELA - POA             08563140                                                            000023
2SR. CAIXA, APOS O VENCIMENTO COBRAR 2% DE MULTA                                 NAO RECEBER APOS 30 DIAS DO VENCIMENTO.                                                                                                                                                                                                         01112200000000000000111220000000000000       0090339900006270127749112215000024
100000000000000000000009033990000627000000000000000000000000010002020005613811221500000000002            2  01056138112211112200000002406910000000001N011122000000000000000000000000000000000000000000000000000000000000000100005613843805NILZA MARIA DE OLIVEIRA                 RUA JOSE GONCALVES DE FREITAS - 66 C2 -             08210550                                                            000026
2SR. CAIXA, APOS O VENCIMENTO COBRAR 2% DE MULTA                                 NAO RECEBER APOS 30 DIAS DO VENCIMENTO.                                                                                                                                                                                                         01112200000000000000111220000000000000       0090339900006270056138112215000027
100000000000000000000009033990000627000000000000000000000000010002020007574911221500000000002            2  01075749112211112200000002470630000000001N011122000000000000000000000000000000000000000000000000000000000000000100007574936889JORGE LUCIANO PEREIRA BORRIELLO         RUA JOSE CALIXTO DO CARMO - 286 AP.54 -             11702690                                                            000029
2SR. CAIXA, APOS O VENCIMENTO COBRAR 2% DE MULTA                                 NAO RECEBER APOS 30 DIAS DO VENCIMENTO.                                                                                                                                                                                                         01112200000000000000111220000000000000       0090339900006270075749112215000030
100000000000000000000009033990000627000000000000000000000000010002020008214911221800000000002            2  01082149112211112200000002508110000000001N011122000000000000000000000000000000000000000000000000000000000000000100008214973830JAMIL CHALA                             RUA JOSE CALIXTO DO CARMO - 286 AP.22 -             11702690                                                            000032
2SR. CAIXA, APOS O VENCIMENTO COBRAR 2% DE MULTA                                 NAO RECEBER APOS 30 DIAS DO VENCIMENTO.                                                                                                                                                                                                         01112200000000000000111220000000000000       0090339900006270082149112218000033
100000000000000000000009033990000627000000000000000000000000010002020032495011221500000000002            2  01324950112211112200000002810660000000001N011122000000000000000000000000000000000000000000000000000000000000000100032495004881PAULO EDUARDO DOS SANTOS                RUA REPUBLICA DO IRAQUE - 1119 - CAMPO B            04611002                                                            000035
2SR. CAIXA, APOS O VENCIMENTO COBRAR 2% DE MULTA                                 NAO RECEBER APOS 30 DIAS DO VENCIMENTO.                                                                                                                                                                                                         01112200000000000000111220000000000000       0090339900006270324950112215000036
100000000000000000000009033990000627000000000000000000000000010002020016498011221200000000002            2  01164980112211112200000002465020000000001N011122000000000000000000000000000000000000000000000000000000000000000100016498053810GILMA CEZARIO GARCIA CORRITORI          RUA LAURENTINO XAVIER DOS SANTOS - 336 -            08240740                                                            000038
2SR. CAIXA, APOS O VENCIMENTO COBRAR 2% DE MULTA                                 NAO RECEBER APOS 30 DIAS DO VENCIMENTO.                                                                                                                                                                                                         01112200000000000000111220000000000000       0090339900006270164980112212000039
100000000000000000000009033990000627000000000000000000000000010002020029339011221100000000002            2  01293390112211112200000002635920000000001N011122000000000000000000000000000000000000000000000000000000000000000100029339051831RONALD DIDOFF                           RUA CORONEL FERREIRA BRAGA - 188 - VILA             03522010                                                            000041
2SR. CAIXA, APOS O VENCIMENTO COBRAR 2% DE MULTA                                 NAO RECEBER APOS 30 DIAS DO VENCIMENTO.                                                                                                                                                                                                         01112200000000000000111220000000000000       0090339900006270293390112211000042
100000000000000000000009033990000627000000000000000000000000010002020017357811221300000000002            2  01173578112211112200000002791680000000001N011122000000000000000000000000000000000000000000000000000000000000000100017357859894MARCIO GUIMARAES                        RUA GENERAL CAMARA - 188 SALA 11 - CENTR            11010120                                                            000044
2SR. CAIXA, APOS O VENCIMENTO COBRAR 2% DE MULTA                                 NAO RECEBER APOS 30 DIAS DO VENCIMENTO.                                                                                                                                                                                                         01112200000000000000111220000000000000       0090339900006270173578112213000045
100000000000000000000009033990000627000000000000000000000000010002020010563011221300000000002            2  01105630112211112200000002863040000000001N011122000000000000000000000000000000000000000000000000000000000000000100010563033878VERA LUCIA RIBEIRO LONGANEZI            RUA DOS CAMARES - 150 AP.24 BL.02 - CARA            02068030                                                            000047
2SR. CAIXA, APOS O VENCIMENTO COBRAR 2% DE MULTA                                 NAO RECEBER APOS 30 DIAS DO VENCIMENTO.                                                                                                                                                                                                         01112200000000000000111220000000000000       0090339900006270105630112213000048
100000000000000000000009033990000627000000000000000000000000010002020005529611221800000000002            2  01055296112211112200000002598100000000001N011122000000000000000000000000000000000000000000000000000000000000000100005529616801JOAQUIM JORGE DA COSTA                  RUA JOSE CALIXTO DO CARMO - 286 AP.106 -            11702690                                                            000050
2SR. CAIXA, APOS O VENCIMENTO COBRAR 2% DE MULTA                                 NAO RECEBER APOS 30 DIAS DO VENCIMENTO.                                                                                                                                                                                                         01112200000000000000111220000000000000       0090339900006270055296112218000051
100000000000000000000009033990000627000000000000000000000000010002020015550711221400000000002            2  01155507112209112200000002455430000000001N011122000000000000000000000000000000000000000000000000000000000000000100015550706806MARY MIWA                               RUA CARLOS JOSE BORSTENS - 50 AP.105 - A            11702750                                                            000053
2SR. CAIXA, APOS O VENCIMENTO COBRAR 2% DE MULTA                                 NAO RECEBER APOS 30 DIAS DO VENCIMENTO.                                                                                                                                                                                                         01112200000000000000111220000000000000       0090339900006270155507112214000054
100000000000000000000009033990000627000000000000000000000000010002020015464611221400000000002            2  01154646112211112200000002731230000000001N011122000000000000000000000000000000000000000000000000000000000000000100015464647864SONIA TERESA VOLPATO                    RUA JOSE CALIXTO DO CARMO - 286 AP.73 -             11702690                                                            000056
2SR. CAIXA, APOS O VENCIMENTO COBRAR 2% DE MULTA                                 NAO RECEBER APOS 30 DIAS DO VENCIMENTO.                                                                                                                                                                                                         01112200000000000000111220000000000000       0090339900006270154646112214000057
100000000000000000000009033990000627000000000000000000000000010002020008657811221300000000002            2  01086578112211112200000002703800000000001N011122000000000000000000000000000000000000000000000000000000000000000100008657886855ARLINDO DA CRUZ                         AVENIDA ARICANDUVA - 8.256 AP.54 BL.10 -            03951220                                                            000059
2SR. CAIXA, APOS O VENCIMENTO COBRAR 2% DE MULTA                                 NAO RECEBER APOS 30 DIAS DO VENCIMENTO.                                                                                                                                                                                                         01112200000000000000111220000000000000       0090339900006270086578112213000060
100000000000000000000009033990000627000000000000000000000000010002020059735111221100000000002            2  01597351112209112200000001528160000000001N011122000000000000000000000000000000000000000000000000000000000000000100059735180863HELIO JOSE MARQUES                      RUA MARTIM AFONSO DE SOUZA - 1007 AP.102            11702790                                                            000062
2SR. CAIXA, APOS O VENCIMENTO COBRAR 2% DE MULTA                                 NAO RECEBER APOS 30 DIAS DO VENCIMENTO.                                                                                                                                                                                                         01112200000000000000111220000000000000       0090339900006270597351112211000063
100000000000000000000009033990000627000000000000000000000000010002020026347811221500000000002            2  01263478112211112200000002890290000000001N011122000000000000000000000000000000000000000000000000000000000000000100026347872862VALDECI SILVA MEIRELES                  RUA JOSE BATISTA DA SILVA - 292 - JARDIM            06851470                                                            000065
2SR. CAIXA, APOS O VENCIMENTO COBRAR 2% DE MULTA                                 NAO RECEBER APOS 30 DIAS DO VENCIMENTO.                                                                                                                                                                                                         01112200000000000000111220000000000000       0090339900006270263478112215000066
100000000000000000000009033990000627000000000000000000000000010002020013135211221600000000002            2  01131352112211112200000002655440000000001N011122000000000000000000000000000000000000000000000000000000000000000100013135261859EDUARDO ZANOLA                          RUA ROLANDO PIETRO BONINI - 46 - JARDIM             09781040                                                            000068
2SR. CAIXA, APOS O VENCIMENTO COBRAR 2% DE MULTA                                 NAO RECEBER APOS 30 DIAS DO VENCIMENTO.                                                                                                                                                                                                         01112200000000000000111220000000000000       0090339900006270131352112216000069
100000000000000000000009033990000627000000000000000000000000010002020009797611221700000000002            2  01097976112211112200000002586110000000001N011122000000000000000000000000000000000000000000000000000000000000000100009797626857RICARDO SOBRAL DE OLIVEIRA              RUA 23 DE MAIO - 139 AP.32 - VILA MIRIM             11704690                                                            000071
2SR. CAIXA, APOS O VENCIMENTO COBRAR 2% DE MULTA                                 NAO RECEBER APOS 30 DIAS DO VENCIMENTO.                                                                                                                                                                                                         01112200000000000000111220000000000000       0090339900006270097976112217000072
100000000000000000000009033990000627000000000000000000000000010002020004767611221800000000002            2  01047676112209112200000004420360000000001N011122000000000000000000000000000000000000000000000000000000000000000100004767679893ORLANDO GRANDE FILHO                    RUA ORLANDO MIGLIARI - 101 - JARDIM OURO            19906140                                                            000074
2SR. CAIXA, APOS O VENCIMENTO COBRAR 2% DE MULTA                                 NAO RECEBER APOS 30 DIAS DO VENCIMENTO.                                                                                                                                                                                                         01112200000000000000111220000000000000       0090339900006270047676112218000075
100000000000000000000009033990000627000000000000000000000000010002020006512511221500000000002            2  01065125112211112200000002326330000000001N011122000000000000000000000000000000000000000000000000000000000000000100006512547870MARIA DO CARMO FAGUNDES DOS REIS        RUA CARLOS MALCHER - 98 - PARQUE EDU CHA            02232020                                                            000077
2SR. CAIXA, APOS O VENCIMENTO COBRAR 2% DE MULTA                                 NAO RECEBER APOS 30 DIAS DO VENCIMENTO.                                                                                                                                                                                                         01112200000000000000111220000000000000       0090339900006270065125112215000078
100000000000000000000009033990000627000000000000000000000000010002020022728411221800000000002            2  01227284112211112200000002798360000000001N011122000000000000000000000000000000000000000000000000000000000000000100022728497842WILLIAN DE SOUZA MELLO                  RUA JOSE CALIXTO DO CARMO - 286 AP.111 -            11702690                                                            000080
2SR. CAIXA, APOS O VENCIMENTO COBRAR 2% DE MULTA                                 NAO RECEBER APOS 30 DIAS DO VENCIMENTO.                                                                                                                                                                                                         01112200000000000000111220000000000000       0090339900006270227284112218000081
100000000000000000000009033990000627000000000000000000000000010002020016909711221200000000002            2  01169097112211112200000002472870000000001N011122000000000000000000000000000000000000000000000000000000000000000100016909746805EDIVALDO SANTANA DOS SANTOS             ESTRADA JOAO GASPAR DELGADO - 80 AP.213             08536100                                                            000083
2SR. CAIXA, APOS O VENCIMENTO COBRAR 2% DE MULTA                                 NAO RECEBER APOS 30 DIAS DO VENCIMENTO.                                                                                                                                                                                                         01112200000000000000111220000000000000       0090339900006270169097112212000084
100000000000000000000009033990000627000000000000000000000000010002020022036011221P00000000002            2  01220360112209112200000003838490000000001N011122000000000000000000000000000000000000000000000000000000000000000100022036003818DERLIS TERAN QUIROGA ROGATO             RUA JOAO RIBEIRO - 320 AP.131SB - CAMPES            09070250                                                            000086
2SR. CAIXA, APOS O VENCIMENTO COBRAR 2% DE MULTA                                 NAO RECEBER APOS 30 DIAS DO VENCIMENTO.                                                                                                                                                                                                         01112200000000000000111220000000000000       009033990000627022036011221P000087
100000000000000000000009033990000627000000000000000000000000010002020017229711223400000000002            2  01172297112209112200000003704480000000001N011122000000000000000000000000000000000000000000000000000000000000000100017229751802BERENICE VIEIRA KERSTING                RUA ATIBAIA - 17 AP.417 - BAIRRO IMPERAD            11707380                                                            000089
2SR. CAIXA, APOS O VENCIMENTO COBRAR 2% DE MULTA                                 NAO RECEBER APOS 30 DIAS DO VENCIMENTO.                                                                                                                                                                                                         01112200000000000000111220000000000000       0090339900006270172297112234000090
100000000000000000000009033990000627000000000000000000000000010002020012475611221300000000002            2  01124756112211112200000002680480000000001N011122000000000000000000000000000000000000000000000000000000000000000100012475663820CELIDALVA GOES DE CARVALHO              RUA JOSE CALIXTO DO CARMO - 286 AP.91 -             11702690                                                            000092
2SR. CAIXA, APOS O VENCIMENTO COBRAR 2% DE MULTA                                 NAO RECEBER APOS 30 DIAS DO VENCIMENTO.                                                                                                                                                                                                         01112200000000000000111220000000000000       0090339900006270124756112213000093
100000000000000000000009033990000627000000000000000000000000010002020033451611221000000000002            2  01334516112211112200000002238370000000001N011122000000000000000000000000000000000000000000000000000000000000000100033451620839ARAO ELISIARIO  NUNES                   RUA JOSE CALIXTO DO CARMO - 286 AP.64 -             11702690                                                            000095
2SR. CAIXA, APOS O VENCIMENTO COBRAR 2% DE MULTA                                 NAO RECEBER APOS 30 DIAS DO VENCIMENTO.                                                                                                                                                                                                         01112200000000000000111220000000000000       0090339900006270334516112210000096
100000000000000000000009033990000627000000000000000000000000010002020045839211221800000000002            2  01458392112211112200000001737370000000001N011122000000000000000000000000000000000000000000000000000000000000000100045839263834LEONARDO ANTONIO CONCELLIERI            RUA JOSE CALIXTO DO CARMO - 286 AP.51 -             11702690                                                            000098
2SR. CAIXA, APOS O VENCIMENTO COBRAR 2% DE MULTA                                 NAO RECEBER APOS 30 DIAS DO VENCIMENTO.                                                                                                                                                                                                         01112200000000000000111220000000000000       0090339900006270458392112218000099
100000000000000000000009033990000627000000000000000000000000010002020011369111221900000000002            2  01113691112211112200000002445150000000001N011122000000000000000000000000000000000000000000000000000000000000000100011369165803ELIANA CORREA DE OLIVEIRA               RUA MAESTRO ZEFERINO SANTANA - 65 - VILA            18040010                                                            000101
2SR. CAIXA, APOS O VENCIMENTO COBRAR 2% DE MULTA                                 NAO RECEBER APOS 30 DIAS DO VENCIMENTO.                                                                                                                                                                                                         01112200000000000000111220000000000000       0090339900006270113691112219000102
100000000000000000000009033990000627000000000000000000000000010002020002253811221200000000002            2  01022538112211112200000002173260000000001N011122000000000000000000000000000000000000000000000000000000000000000100002253816809EDMILSON ALVES DA SILVA                 RUA JOSE CALIXTO DO CARMO - 286 AP.93 -             11702690                                                            000104
2SR. CAIXA, APOS O VENCIMENTO COBRAR 2% DE MULTA                                 NAO RECEBER APOS 30 DIAS DO VENCIMENTO.                                                                                                                                                                                                         01112200000000000000111220000000000000       0090339900006270022538112212000105
100000000000000000000009033990000627000000000000000000000000010002020037947011221400000000002            2  01379470112211112200000003859850000000001N011122000000000000000000000000000000000000000000000000000000000000000100037947070873BRUNO DE CAETANO MARRINHAS              AVENIDA GENERAL BARRETO DE MENEZES - 323            09791150                                                            000107
2SR. CAIXA, APOS O VENCIMENTO COBRAR 2% DE MULTA                                 NAO RECEBER APOS 30 DIAS DO VENCIMENTO.                                                                                                                                                                                                         01112200000000000000111220000000000000       0090339900006270379470112214000108
100000000000000000000009033990000627000000000000000000000000010002020037517711221200000000002            2  01375177112209112200000004071340000000001N011122000000000000000000000000000000000000000000000000000000000000000100037517785869RENATO JOSE DE LIMA MELO                RUA ARISTIDES LOBO - 148 AP.41 BLOCO 03             03041100                                                            000110
2SR. CAIXA, APOS O VENCIMENTO COBRAR 2% DE MULTA                                 NAO RECEBER APOS 30 DIAS DO VENCIMENTO.                                                                                                                                                                                                         01112200000000000000111220000000000000       0090339900006270375177112212000111
100000000000000000000009033990000627000000000000000000000000010002020070367911221300000000002            2  01703679112211112200000002040830000000001N011122000000000000000000000000000000000000000000000000000000000000000100070367949849TEODOMIRO ALVES DOS SANTOS              RUA ANDRE PAZ - 13 - JARDIM SANTO ANDRE             08390230                                                            000113
2SR. CAIXA, APOS O VENCIMENTO COBRAR 2% DE MULTA                                 NAO RECEBER APOS 30 DIAS DO VENCIMENTO.                                                                                                                                                                                                         01112200000000000000111220000000000000       0090339900006270703679112213000114
100000000000000000000009033990000627000000000000000000000000010002020004410811221200000000002            2  01044108112209112200000003025050000000001N011122000000000000000000000000000000000000000000000000000000000000000100004410802860LUIZ ALBERTO MARINHO                    RUA DA INDEPENDENCIA - 706 AP.41B - CAMB            01524000                                                            000116
2SR. CAIXA, APOS O VENCIMENTO COBRAR 2% DE MULTA                                 NAO RECEBER APOS 30 DIAS DO VENCIMENTO.                                                                                                                                                                                                         01112200000000000000111220000000000000       0090339900006270044108112212000117
100000000000000000000009033990000627000000000000000000000000010002020004767611222600000000002            2  01047676112209112200000004038350000000001N011122000000000000000000000000000000000000000000000000000000000000000100004767679893ORLANDO GRANDE FILHO                    RUA ORLANDO MIGLIARI - 101 - JARDIM OURO            19906140                                                            000119
2SR. CAIXA, APOS O VENCIMENTO COBRAR 2% DE MULTA                                 NAO RECEBER APOS 30 DIAS DO VENCIMENTO.                                                                                                                                                                                                         01112200000000000000111220000000000000       0090339900006270047676112226000120
100000000000000000000009033990000627000000000000000000000000010002020064677811221300000000002            2  01646778112209112200000003248540000000001N011122000000000000000000000000000000000000000000000000000000000000000100064677850887ANTONIO CARLOS DE OLIVEIRA              RUA DR.ANTONIO MAZILLI FILHO - 435 - PAR            02230070                                                            000122
2SR. CAIXA, APOS O VENCIMENTO COBRAR 2% DE MULTA                                 NAO RECEBER APOS 30 DIAS DO VENCIMENTO.                                                                                                                                                                                                         01112200000000000000111220000000000000       0090339900006270646778112213000123
100000000000000000000009033990000627000000000000000000000000010002020007328911221900000000002            2  01073289112209112200000003963420000000001N011122000000000000000000000000000000000000000000000000000000000000000100007328927836BENEDITO APARECIDO ROCHA                AVENIDA SENADOR JOSE ERMINIO DE MORAES -            02357002                                                            000125
2SR. CAIXA, APOS O VENCIMENTO COBRAR 2% DE MULTA                                 NAO RECEBER APOS 30 DIAS DO VENCIMENTO.                                                                                                                                                                                                         01112200000000000000111220000000000000       0090339900006270073289112219000126
100000000000000000000009033990000627000000000000000000000000010002020058488611221600000000002            2  01584886112209112200000002962920000000001N011122000000000000000000000000000000000000000000000000000000000000000100058488618972ADAILTON ZANUTTO MORESCHI               R:RAPHAEL UNGARO - COND.RESERVA SERRA Q.            13212138                                                            000128
2SR. CAIXA, APOS O VENCIMENTO COBRAR 2% DE MULTA                                 NAO RECEBER APOS 30 DIAS DO VENCIMENTO.                                                                                                                                                                                                         01112200000000000000111220000000000000       0090339900006270584886112216000129
100000000000000000000009033990000627000000000000000000000000010002020002196011221000000000002            2  01021960112211112200000002228800000000001N011122000000000000000000000000000000000000000000000000000000000000000100002196012831VILEFORT DIAS BORGES                    RUA PORTO XAVIER - 189 AP.64 - VILA CARM            08210170                                                            000131
2SR. CAIXA, APOS O VENCIMENTO COBRAR 2% DE MULTA                                 NAO RECEBER APOS 30 DIAS DO VENCIMENTO.                                                                                                                                                                                                         01112200000000000000111220000000000000       0090339900006270021960112210000132
100000000000000000000009033990000627000000000000000000000000010002020031861511221900000000002            2  01318615112211112200000002316580000000001N011122000000000000000000000000000000000000000000000000000000000000000100031861586809VANIA TOMAZ                              -  -  -  -                                         00000000                                                            000134
2SR. CAIXA, APOS O VENCIMENTO COBRAR 2% DE MULTA                                 NAO RECEBER APOS 30 DIAS DO VENCIMENTO.                                                                                                                                                                                                         01112200000000000000111220000000000000       0090339900006270318615112219000135
100000000000000000000009033990000627000000000000000000000000010002020003104511221200000000002            2  01031045112209112200000008624960000000001N011122000000000000000000000000000000000000000000000000000000000000000100003104580804NELSON RODRIGUES                        RUA CARLOS JOSE BORSTENS - 50 AP.81 - AV            11702750                                                            000137
2SR. CAIXA, APOS O VENCIMENTO COBRAR 2% DE MULTA                                 NAO RECEBER APOS 30 DIAS DO VENCIMENTO.                                                                                                                                                                                                         01112200000000000000111220000000000000       0090339900006270031045112212000138
100000000000000000000009033990000627000000000000000000000000010002020007715311221000000000002            2  01077153112209112200000003644040000000001N011122000000000000000000000000000000000000000000000000000000000000000100007715360627NILTON RENNAN OLIVEIRA GOMES FILHO      RUA CARLOS JOSE BORSTENS - 50 AP.21 - AV            11702750                                                            000140
2SR. CAIXA, APOS O VENCIMENTO COBRAR 2% DE MULTA                                 NAO RECEBER APOS 30 DIAS DO VENCIMENTO.                                                                                                                                                                                                         01112200000000000000111220000000000000       0090339900006270077153112210000141
100000000000000000000009033990000627000000000000000000000000010002020007194011221100000000002            2  01071940112211112200000002590500000000001N011122000000000000000000000000000000000000000000000000000000000000000100007194010895RAUL AMANTINO KIRK DE SANCTIS           AVENIDA SANTA CATARINA - 756 AP.01 - VIL            04378000                                                            000143
2SR. CAIXA, APOS O VENCIMENTO COBRAR 2% DE MULTA                                 NAO RECEBER APOS 30 DIAS DO VENCIMENTO.                                                                                                                                                                                                         01112200000000000000111220000000000000       0090339900006270071940112211000144
100000000000000000000009033990000627000000000000000000000000010002020025738611221900000000002            2  01257386112209112200000005233650000000001N011122000000000000000000000000000000000000000000000000000000000000000100025738614810VILMAR JOSE PEREIRA                     ALAMEDA TIETE - 646 - CERQUEIRA CESAR -             01417020                                                            000146
2SR. CAIXA, APOS O VENCIMENTO COBRAR 2% DE MULTA                                 NAO RECEBER APOS 30 DIAS DO VENCIMENTO.                                                                                                                                                                                                         01112200000000000000111220000000000000       0090339900006270257386112219000147
100000000000000000000009033990000627000000000000000000000000010002020025738611222700000000002            2  01257386112209112200000005233620000000001N011122000000000000000000000000000000000000000000000000000000000000000100025738614810VILMAR JOSE PEREIRA                     ALAMEDA TIETE - 646 - CERQUEIRA CESAR -             01417020                                                            000149
2SR. CAIXA, APOS O VENCIMENTO COBRAR 2% DE MULTA                                 NAO RECEBER APOS 30 DIAS DO VENCIMENTO.                                                                                                                                                                                                         01112200000000000000111220000000000000       0090339900006270257386112227000150
100000000000000000000009033990000627000000000000000000000000010002020025738611223500000000002            2  01257386112209112200000005233630000000001N011122000000000000000000000000000000000000000000000000000000000000000100025738614810VILMAR JOSE PEREIRA                     ALAMEDA TIETE - 646 - CERQUEIRA CESAR -             01417020                                                            000152
2SR. CAIXA, APOS O VENCIMENTO COBRAR 2% DE MULTA                                 NAO RECEBER APOS 30 DIAS DO VENCIMENTO.                                                                                                                                                                                                         01112200000000000000111220000000000000       0090339900006270257386112235000153
100000000000000000000009033990000627000000000000000000000000010002020025738611224300000000002            2  01257386112209112200000005233640000000001N011122000000000000000000000000000000000000000000000000000000000000000100025738614810VILMAR JOSE PEREIRA                     ALAMEDA TIETE - 646 - CERQUEIRA CESAR -             01417020                                                            000155
2SR. CAIXA, APOS O VENCIMENTO COBRAR 2% DE MULTA                                 NAO RECEBER APOS 30 DIAS DO VENCIMENTO.                                                                                                                                                                                                         01112200000000000000111220000000000000       0090339900006270257386112243000156
100000000000000000000009033990000627000000000000000000000000010002020011141511221000000000002            2  01111415112211112200000002722150000000001N011122000000000000000000000000000000000000000000000000000000000000000100011141508869PAULO ROBERTO TUNES SILVA               RUA PETROBRAS - 405 CASA 07 - VILA ANTON            03474060                                                            000158
2SR. CAIXA, APOS O VENCIMENTO COBRAR 2% DE MULTA                                 NAO RECEBER APOS 30 DIAS DO VENCIMENTO.                                                                                                                                                                                                         01112200000000000000111220000000000000       0090339900006270111415112210000159
100000000000000000000009033990000627000000000000000000000000010002020012449111221600000000002            2  01124491112211112200000002742930000000001N011122000000000000000000000000000000000000000000000000000000000000000100012449104810GILBERTO DOS SANTOS JUNIOR              RUA ALMIRANTE TAMANDARE - 89 AP.143 - BA            09310350                                                            000161
2SR. CAIXA, APOS O VENCIMENTO COBRAR 2% DE MULTA                                 NAO RECEBER APOS 30 DIAS DO VENCIMENTO.                                                                                                                                                                                                         01112200000000000000111220000000000000       0090339900006270124491112216000162
100000000000000000000009033990000627000000000000000000000000010002020011261311221400000000002            2  01112613112209112200000003617970000000001N011122000000000000000000000000000000000000000000000000000000000000000100011261359844JOVANETE DOS SANTOS PASSOS              RUA FULVIO MORGANTI - 672 - JARDIM PARAI            02417170                                                            000164
2SR. CAIXA, APOS O VENCIMENTO COBRAR 2% DE MULTA                                 NAO RECEBER APOS 30 DIAS DO VENCIMENTO.                                                                                                                                                                                                         01112200000000000000111220000000000000       0090339900006270112613112214000165
100000000000000000000009033990000627000000000000000000000000010002020036279311221300000000002            2  01362793112209112200000003216140000000001N011122000000000000000000000000000000000000000000000000000000000000000100036279398838BRUNO DOCINI ORTEGA                     RUA GENERAL EUCLIDES FIGUEIREDO - 146 AP            11700780                                                            000167
2SR. CAIXA, APOS O VENCIMENTO COBRAR 2% DE MULTA                                 NAO RECEBER APOS 30 DIAS DO VENCIMENTO.                                                                                                                                                                                                         01112200000000000000111220000000000000       0090339900006270362793112213000168
9                                                                                                                                                                                                                                                                                                                                                                                                         000169