01REMESSA01COBRANCA       00000000000008017025HB SANTOS CONSTRUTORA E INCORP237BRADESCO       010418        MX0000052                                                                                                                                                                                                                                                                                     000001
100000000000000000000009033990000627000000000000000000000000010002020029671504181100000000002            2  01296715041809041800000002230030000000001N010418000000000000000000000000000000000000000000000000000000000000000100029671526845ROGERIO CONSENTINO                      RUA CARLOS MAZER  - 678 - VILA CARMOSINA            08290700                                                            000002
2SR. CAIXA, APOS O VENCIMENTO COBRAR 2% DE MULTA                                 NAO RECEBER APOS 30 DIAS DO VENCIMENTO.                                                                                                                                                                                                         01041800000000000000104180000000000000       0090339900006270296715041811000003
100000000000000000000009033990000627000000000000000000000000010002020003863004181300000000002            2  01038630041809041800000002106440000000001N010418000000000000000000000000000000000000000000000000000000000000000100003863075803HERALDO MENQUINI                        RUA OCEANICA AMABILE - 346 AP.415 - CIDA            11704420                                                            000005
2SR. CAIXA, APOS O VENCIMENTO COBRAR 2% DE MULTA                                 NAO RECEBER APOS 30 DIAS DO VENCIMENTO.                                                                                                                                                                                                         01041800000000000000104180000000000000       0090339900006270038630041813000006
100000000000000000000009033990000627000000000000000000000000010002020013135204181500000000002            2  01131352041809041800000002576340000000001N010418000000000000000000000000000000000000000000000000000000000000000100013135261859EDUARDO ZANOLA                          RUA ROLANDO PIETRO BONINI - 46 - JARDIM             09781040                                                            000008
2SR. CAIXA, APOS O VENCIMENTO COBRAR 2% DE MULTA                                 NAO RECEBER APOS 30 DIAS DO VENCIMENTO.                                                                                                                                                                                                         01041800000000000000104180000000000000       0090339900006270131352041815000009
100000000000000000000009033990000627000000000000000000000000010002020029028404181000000000002            2  01290284041809041800000002157850000000001N010418000000000000000000000000000000000000000000000000000000000000000100029028478825LEONARDO LOUZADA                        RUA ILHEUS - QUADRA 31 - 244 - BAIRRO CE            19274000                                                            000011
2SR. CAIXA, APOS O VENCIMENTO COBRAR 2% DE MULTA                                 NAO RECEBER APOS 30 DIAS DO VENCIMENTO.                                                                                                                                                                                                         01041800000000000000104180000000000000       0090339900006270290284041810000012
100000000000000000000009033990000627000000000000000000000000010002020032878504181800000000002            2  01328785041809041800000003118520000000001N010418000000000000000000000000000000000000000000000000000000000000000100032878512847LEONARDO MOURA MONIZ CALDEIRA           RUA BALSA - 682 AP.134 T.02 - VILA ARCAD            02910000                                                            000014
2SR. CAIXA, APOS O VENCIMENTO COBRAR 2% DE MULTA                                 NAO RECEBER APOS 30 DIAS DO VENCIMENTO.                                                                                                                                                                                                         01041800000000000000104180000000000000       0090339900006270328785041818000015
100000000000000000000009033990000627000000000000000000000000010002020016479004181500000000002            2  01164790041809041800000003317530000000001N010418000000000000000000000000000000000000000000000000000000000000000100016479002806LOURDES PEREIRA DE QUEIROZ SECANECHIA   RUA PAULINO CURSI - 437 - CIDADE SAO MAT            03960060                                                            000017
2SR. CAIXA, APOS O VENCIMENTO COBRAR 2% DE MULTA                                 NAO RECEBER APOS 30 DIAS DO VENCIMENTO.                                                                                                                                                                                                         01041800000000000000104180000000000000       0090339900006270164790041815000018
100000000000000000000009033990000627000000000000000000000000010002020019635004181200000000002            2  01196350041809041800000002447760000000001N010418000000000000000000000000000000000000000000000000000000000000000100019635091885IVAN VIEIRA SILVA                       ABRAO JORGE - 3001 - JARDIM INTEGRACAO -            14405397                                                            000020
2SR. CAIXA, APOS O VENCIMENTO COBRAR 2% DE MULTA                                 NAO RECEBER APOS 30 DIAS DO VENCIMENTO.                                                                                                                                                                                                         01041800000000000000104180000000000000       0090339900006270196350041812000021
100000000000000000000009033990000627000000000000000000000000010002020009361404181200000000002            2  01093614041809041800000002408540000000001N010418000000000000000000000000000000000000000000000000000000000000000100009361471805JOSE BARBOSA DA SILVA                   RUA ALFREDO INACIO TRINDADE  - 60 AP.44             02344100                                                            000023
2SR. CAIXA, APOS O VENCIMENTO COBRAR 2% DE MULTA                                 NAO RECEBER APOS 30 DIAS DO VENCIMENTO.                                                                                                                                                                                                         01041800000000000000104180000000000000       0090339900006270093614041812000024
100000000000000000000009033990000627000000000000000000000000010002020012756904181600000000002            2  01127569041809041800000002079090000000001N010418000000000000000000000000000000000000000000000000000000000000000100012756959812ITAMAR JUVENAL DIAS DA SILVA            RUA ELISEU REINALDO MORAES VIEIRA - 90 A            02858000                                                            000026
2SR. CAIXA, APOS O VENCIMENTO COBRAR 2% DE MULTA                                 NAO RECEBER APOS 30 DIAS DO VENCIMENTO.                                                                                                                                                                                                         01041800000000000000104180000000000000       0090339900006270127569041816000027
100000000000000000000009033990000627000000000000000000000000010002020002731004181300000000002            2  01027310041809041800000002458050000000001N010418000000000000000000000000000000000000000000000000000000000000000100002731042842VALTER CERQUEIRA VILLA NOVA             RUA MACHADO - 106 - VILA AUGUSTA - GUARU            07025210                                                            000029
2SR. CAIXA, APOS O VENCIMENTO COBRAR 2% DE MULTA                                 NAO RECEBER APOS 30 DIAS DO VENCIMENTO.                                                                                                                                                                                                         01041800000000000000104180000000000000       0090339900006270027310041813000030
100000000000000000000009033990000627000000000000000000000000010002020002731004182100000000002            2  01027310041809041800000002458050000000001N010418000000000000000000000000000000000000000000000000000000000000000100002731042842VALTER CERQUEIRA VILLA NOVA             RUA MACHADO - 106 - VILA AUGUSTA - GUARU            07025210                                                            000032
2SR. CAIXA, APOS O VENCIMENTO COBRAR 2% DE MULTA                                 NAO RECEBER APOS 30 DIAS DO VENCIMENTO.                                                                                                                                                                                                         01041800000000000000104180000000000000       0090339900006270027310041821000033
100000000000000000000009033990000627000000000000000000000000010002020028802104181100000000002            2  01288021041809041800000002219580000000001N010418000000000000000000000000000000000000000000000000000000000000000100028802158894ELIEL HENRIQUE ZUZA                     RUA CARLOS JOSE BORSTENS - 50 AP.43 - BA            11702750                                                            000035
2SR. CAIXA, APOS O VENCIMENTO COBRAR 2% DE MULTA                                 NAO RECEBER APOS 30 DIAS DO VENCIMENTO.                                                                                                                                                                                                         01041800000000000000104180000000000000       0090339900006270288021041811000036
100000000000000000000009033990000627000000000000000000000000010002020008739104181500000000002            2  01087391041809041800000002075860000000001N010418000000000000000000000000000000000000000000000000000000000000000100008739150895VANGEVALDO BATISTA SANT ANNA            TRAVESSA TOMAZIN - 02 - ERMELINO MATARAZ            03811125                                                            000038
2SR. CAIXA, APOS O VENCIMENTO COBRAR 2% DE MULTA                                 NAO RECEBER APOS 30 DIAS DO VENCIMENTO.                                                                                                                                                                                                         01041800000000000000104180000000000000       0090339900006270087391041815000039
100000000000000000000009033990000627000000000000000000000000010002020005313704181100000000002            2  01053137041811041800000001848460000000001N010418000000000000000000000000000000000000000000000000000000000000000100005313717863EDIMICIO JOSE DE ARAUJO                 PRACA NICOLAU GERAIGIRE - 680 CA A - JAR            11095110                                                            000041
2SR. CAIXA, APOS O VENCIMENTO COBRAR 2% DE MULTA                                 NAO RECEBER APOS 30 DIAS DO VENCIMENTO.                                                                                                                                                                                                         01041800000000000000104180000000000000       0090339900006270053137041811000042
100000000000000000000009033990000627000000000000000000000000010002020029433604181P00000000002            2  01294336041811041800000001775730000000001N010418000000000000000000000000000000000000000000000000000000000000000100029433631897MARIO MUNIZ                             RUA LIBERO BADARO - 1115 - BAIRRO CIDADE            11704070                                                            000044
2SR. CAIXA, APOS O VENCIMENTO COBRAR 2% DE MULTA                                 NAO RECEBER APOS 30 DIAS DO VENCIMENTO.                                                                                                                                                                                                         01041800000000000000104180000000000000       009033990000627029433604181P000045
100000000000000000000009033990000627000000000000000000000000010002020001847204181800000000002            2  01018472041811041800000001634800000000001N010418000000000000000000000000000000000000000000000000000000000000000100001847204864AMERICA CONCEICAO DA SILVA              RUA CAMINHO DO GUARAMAR - 199 AP.11 BLOC            11721050                                                            000047
2SR. CAIXA, APOS O VENCIMENTO COBRAR 2% DE MULTA                                 NAO RECEBER APOS 30 DIAS DO VENCIMENTO.                                                                                                                                                                                                         01041800000000000000104180000000000000       0090339900006270018472041818000048
100000000000000000000009033990000627000000000000000000000000010002020005029804181200000000002            2  01050298041809041800000002119770000000001N010418000000000000000000000000000000000000000000000000000000000000000100005029828885LAURINETE DA CONCEICAO DE NORONHA       RUA MARIA LUCIA DE TOLEDO LEITE MORAES -            04434040                                                            000050
2SR. CAIXA, APOS O VENCIMENTO COBRAR 2% DE MULTA                                 NAO RECEBER APOS 30 DIAS DO VENCIMENTO.                                                                                                                                                                                                         01041800000000000000104180000000000000       0090339900006270050298041812000051
100000000000000000000009033990000627000000000000000000000000010002020027682104181100000000002            2  01276821041811041800000001723430000000001N010418000000000000000000000000000000000000000000000000000000000000000100027682175818ALINE TEIXEIRA                          RUA CRUZEIRO DO SUL - 309 - JARDIM BOM P            06385060                                                            000053
2SR. CAIXA, APOS O VENCIMENTO COBRAR 2% DE MULTA                                 NAO RECEBER APOS 30 DIAS DO VENCIMENTO.                                                                                                                                                                                                         01041800000000000000104180000000000000       0090339900006270276821041811000054
100000000000000000000009033990000627000000000000000000000000010002020013388904181400000000002            2  01133889041811041800000001731070000000001N010418000000000000000000000000000000000000000000000000000000000000000100013388936889NEUTON DE SOUZA RAMOS                   RUA MARIA CRISTINA - 932 - JARDIM CASQUE            11533160                                                            000056
2SR. CAIXA, APOS O VENCIMENTO COBRAR 2% DE MULTA                                 NAO RECEBER APOS 30 DIAS DO VENCIMENTO.                                                                                                                                                                                                         01041800000000000000104180000000000000       0090339900006270133889041814000057
100000000000000000000009033990000627000000000000000000000000010002020012774904181400000000002            2  01127749041811041800000001763550000000001N010418000000000000000000000000000000000000000000000000000000000000000100012774906865JOSE MILTON SANTIAGO                    RUA BATATAIS - 47 - CIDADE ESTELA - POA             08563140                                                            000059
2SR. CAIXA, APOS O VENCIMENTO COBRAR 2% DE MULTA                                 NAO RECEBER APOS 30 DIAS DO VENCIMENTO.                                                                                                                                                                                                         01041800000000000000104180000000000000       0090339900006270127749041814000060
100000000000000000000009033990000627000000000000000000000000010002020004234904181P00000000002            2  01042349041809041800000003089040000000001N010418000000000000000000000000000000000000000000000000000000000000000100004234989835LUIZ ISRAEL DA COSTA                    AVENIDA FERNANDO PACHECO JORDAO - 907 -             08121510                                                            000062
2SR. CAIXA, APOS O VENCIMENTO COBRAR 2% DE MULTA                                 NAO RECEBER APOS 30 DIAS DO VENCIMENTO.                                                                                                                                                                                                         01041800000000000000104180000000000000       009033990000627004234904181P000063
100000000000000000000009033990000627000000000000000000000000010002020016294104181P00000000002            2  01162941041809041800000002104570000000001N010418000000000000000000000000000000000000000000000000000000000000000100016294119812JURACY FELIX DE ARRUDA                  RUA ERNA - 13 - ALTO DA MOOCA - SAO PAUL            03165050                                                            000065
2SR. CAIXA, APOS O VENCIMENTO COBRAR 2% DE MULTA                                 NAO RECEBER APOS 30 DIAS DO VENCIMENTO.                                                                                                                                                                                                         01041800000000000000104180000000000000       009033990000627016294104181P000066
100000000000000000000009033990000627000000000000000000000000010002020005613804181400000000002            2  01056138041811041800000001622000000000001N010418000000000000000000000000000000000000000000000000000000000000000100005613843805NILZA MARIA DE OLIVEIRA                 RUA JOSE GONCALVES DE FREITAS - 66 C2 -             08210550                                                            000068
2SR. CAIXA, APOS O VENCIMENTO COBRAR 2% DE MULTA                                 NAO RECEBER APOS 30 DIAS DO VENCIMENTO.                                                                                                                                                                                                         01041800000000000000104180000000000000       0090339900006270056138041814000069
100000000000000000000009033990000627000000000000000000000000010002020007574904181400000000002            2  01075749041811041800000001664940000000001N010418000000000000000000000000000000000000000000000000000000000000000100007574936889JORGE LUCIANO PEREIRA BORRIELLO         RUA FABIO DE ALMEIDA MAGALHAES - 179 - J            05135370                                                            000071
2SR. CAIXA, APOS O VENCIMENTO COBRAR 2% DE MULTA                                 NAO RECEBER APOS 30 DIAS DO VENCIMENTO.                                                                                                                                                                                                         01041800000000000000104180000000000000       0090339900006270075749041814000072
100000000000000000000009033990000627000000000000000000000000010002020032408104181700000000002            2  01324081041811041800000001569680000000001N010418000000000000000000000000000000000000000000000000000000000000000100032408151848DEILSON DO NASCIMENTO CANDIDO DA SILVA  RUA HEREMITA SANTA DO NASCIMENTO - 37 AP            11345340                                                            000074
2SR. CAIXA, APOS O VENCIMENTO COBRAR 2% DE MULTA                                 NAO RECEBER APOS 30 DIAS DO VENCIMENTO.                                                                                                                                                                                                         01041800000000000000104180000000000000       0090339900006270324081041817000075
100000000000000000000009033990000627000000000000000000000000010002020008214904181700000000002            2  01082149041811041800000001690210000000001N010418000000000000000000000000000000000000000000000000000000000000000100008214973830JAMIL CHALA                             AVENIDA COSTA MACHADO - 291 AP.133-A - C            11700650                                                            000077
2SR. CAIXA, APOS O VENCIMENTO COBRAR 2% DE MULTA                                 NAO RECEBER APOS 30 DIAS DO VENCIMENTO.                                                                                                                                                                                                         01041800000000000000104180000000000000       0090339900006270082149041817000078
100000000000000000000009033990000627000000000000000000000000010002020032495004181400000000002            2  01324950041811041800000001894090000000001N010418000000000000000000000000000000000000000000000000000000000000000100032495004881PAULO EDUARDO DOS SANTOS                RUA REPUBLICA DO IRAQUE - 1119 - CAMPO B            04611002                                                            000080
2SR. CAIXA, APOS O VENCIMENTO COBRAR 2% DE MULTA                                 NAO RECEBER APOS 30 DIAS DO VENCIMENTO.                                                                                                                                                                                                         01041800000000000000104180000000000000       0090339900006270324950041814000081
100000000000000000000009033990000627000000000000000000000000010002020006471804181400000000002            2  01064718041809041800000002072000000000001N010418000000000000000000000000000000000000000000000000000000000000000100006471825803JOSIVALDO BASTOS DE OLIVEIRA            RUA MARIA DIAS HOG - 263 - PARQUE CONTIN            07085035                                                            000083
2SR. CAIXA, APOS O VENCIMENTO COBRAR 2% DE MULTA                                 NAO RECEBER APOS 30 DIAS DO VENCIMENTO.                                                                                                                                                                                                         01041800000000000000104180000000000000       0090339900006270064718041814000084
100000000000000000000009033990000627000000000000000000000000010002020038856804181000000000002            2  01388568041811041800000001755870000000001N010418000000000000000000000000000000000000000000000000000000000000000100038856851830FELIPE BIANCHI DA COSTA FREITAS         AVENIDA ENGENHEIRO ARMANDO DE ARRUDA PER            04325001                                                            000086
2SR. CAIXA, APOS O VENCIMENTO COBRAR 2% DE MULTA                                 NAO RECEBER APOS 30 DIAS DO VENCIMENTO.                                                                                                                                                                                                         01041800000000000000104180000000000000       0090339900006270388568041810000087
100000000000000000000009033990000627000000000000000000000000010002020016498004181100000000002            2  01164980041811041800000001661150000000001N010418000000000000000000000000000000000000000000000000000000000000000100016498053810GILMA CEZARIO GARCIA CORRITORI          RUA LAURENTINO XAVIER DOS SANTOS - 336 -            08240740                                                            000089
2SR. CAIXA, APOS O VENCIMENTO COBRAR 2% DE MULTA                                 NAO RECEBER APOS 30 DIAS DO VENCIMENTO.                                                                                                                                                                                                         01041800000000000000104180000000000000       0090339900006270164980041811000090
100000000000000000000009033990000627000000000000000000000000010002020030098604181400000000002            2  01300986041811041800000001783400000000001N010418000000000000000000000000000000000000000000000000000000000000000100030098603825DEUZIANA MOREIRA DE SA                  RUA JOAO AVELINO PINHO MELLAO - 114 - JA            05659010                                                            000092
2SR. CAIXA, APOS O VENCIMENTO COBRAR 2% DE MULTA                                 NAO RECEBER APOS 30 DIAS DO VENCIMENTO.                                                                                                                                                                                                         01041800000000000000104180000000000000       0090339900006270300986041814000093
100000000000000000000009033990000627000000000000000000000000010002020030098604182200000000002            2  01300986041811041800000001783400000000001N010418000000000000000000000000000000000000000000000000000000000000000100030098603825DEUZIANA MOREIRA DE SA                  RUA JOAO AVELINO PINHO MELLAO - 114 - JA            05659010                                                            000095
2SR. CAIXA, APOS O VENCIMENTO COBRAR 2% DE MULTA                                 NAO RECEBER APOS 30 DIAS DO VENCIMENTO.                                                                                                                                                                                                         01041800000000000000104180000000000000       0090339900006270300986041822000096
100000000000000000000009033990000627000000000000000000000000010002020029339004181000000000002            2  01293390041811041800000001776330000000001N010418000000000000000000000000000000000000000000000000000000000000000100029339051831RONALD DIDOFF                           RUA CORONEL FERREIRA BRAGA - 188 - VILA             03522010                                                            000098
2SR. CAIXA, APOS O VENCIMENTO COBRAR 2% DE MULTA                                 NAO RECEBER APOS 30 DIAS DO VENCIMENTO.                                                                                                                                                                                                         01041800000000000000104180000000000000       0090339900006270293390041810000099
100000000000000000000009033990000627000000000000000000000000010002020017357804181200000000002            2  01173578041811041800000001881290000000001N010418000000000000000000000000000000000000000000000000000000000000000100017357859894MARCIO GUIMARAES                        RUA GENERAL CAMARA - 188 SALA 11 - CENTR            11010120                                                            000101
2SR. CAIXA, APOS O VENCIMENTO COBRAR 2% DE MULTA                                 NAO RECEBER APOS 30 DIAS DO VENCIMENTO.                                                                                                                                                                                                         01041800000000000000104180000000000000       0090339900006270173578041812000102
100000000000000000000009033990000627000000000000000000000000010002020010563004181200000000002            2  01105630041811041800000001929380000000001N010418000000000000000000000000000000000000000000000000000000000000000100010563033878VERA LUCIA RIBEIRO LONGANEZI            RUA DOS CAMARES - 150 AP.24 BL.02 - CARA            02068030                                                            000104
2SR. CAIXA, APOS O VENCIMENTO COBRAR 2% DE MULTA                                 NAO RECEBER APOS 30 DIAS DO VENCIMENTO.                                                                                                                                                                                                         01041800000000000000104180000000000000       0090339900006270105630041812000105
100000000000000000000009033990000627000000000000000000000000010002020005529604181700000000002            2  01055296041811041800000001750830000000001N010418000000000000000000000000000000000000000000000000000000000000000100005529616801JOAQUIM JORGE DA COSTA                  RUA CONEGO XAVIER - 13 - SACOMA - SAO PA            04231030                                                            000107
2SR. CAIXA, APOS O VENCIMENTO COBRAR 2% DE MULTA                                 NAO RECEBER APOS 30 DIAS DO VENCIMENTO.                                                                                                                                                                                                         01041800000000000000104180000000000000       0090339900006270055296041817000108
100000000000000000000009033990000627000000000000000000000000010002020022014104181100000000002            2  01220141041811041800000001745740000000001N010418000000000000000000000000000000000000000000000000000000000000000100022014140847CAMILA SILVEIRA CANIZARES               AVENIDA PRESIDENTE CASTELO BRANCO - 5.74            11703650                                                            000110
2SR. CAIXA, APOS O VENCIMENTO COBRAR 2% DE MULTA                                 NAO RECEBER APOS 30 DIAS DO VENCIMENTO.                                                                                                                                                                                                         01041800000000000000104180000000000000       0090339900006270220141041811000111
100000000000000000000009033990000627000000000000000000000000010002020015550704181300000000002            2  01155507041809041800000001606780000000001N010418000000000000000000000000000000000000000000000000000000000000000100015550706806MARY MIWA                               AVENIDA AFONSO PENA - 283 AP.33 - MACUCO            11020001                                                            000113
2SR. CAIXA, APOS O VENCIMENTO COBRAR 2% DE MULTA                                 NAO RECEBER APOS 30 DIAS DO VENCIMENTO.                                                                                                                                                                                                         01041800000000000000104180000000000000       0090339900006270155507041813000114
100000000000000000000009033990000627000000000000000000000000010002020015464604181300000000002            2  01154646041811041800000001840540000000001N010418000000000000000000000000000000000000000000000000000000000000000100015464647864SONIA TERESA VOLPATO                    RUA PEDRO BADRA - 51 AP.73 - JABAQUARA -            04348090                                                            000116
2SR. CAIXA, APOS O VENCIMENTO COBRAR 2% DE MULTA                                 NAO RECEBER APOS 30 DIAS DO VENCIMENTO.                                                                                                                                                                                                         01041800000000000000104180000000000000       0090339900006270154646041813000117
100000000000000000000009033990000627000000000000000000000000010002020008657804181200000000002            2  01086578041811041800000001822070000000001N010418000000000000000000000000000000000000000000000000000000000000000100008657886855ARLINDO DA CRUZ                         AVENIDA ARICANDUVA - 8.256 AP.54 BL.10 -            03951220                                                            000119
2SR. CAIXA, APOS O VENCIMENTO COBRAR 2% DE MULTA                                 NAO RECEBER APOS 30 DIAS DO VENCIMENTO.                                                                                                                                                                                                         01041800000000000000104180000000000000       0090339900006270086578041812000120
9                                                                                                                                                                                                                                                                                                                                                                                                         000121