01REMESSA01COBRANCA       00000000000008017025HB SANTOS CONSTRUTORA E INCORP237BRADESCO       090317        MX0000026                                                                                                                                                                                                                                                                                     000001
100000000000000000000009033990000627000000000000000000000000010002020019255152192200000000002            2  01192551521924031700000001730080000000099N090317000000000000000000000000000000000000000000000000000000000000000100025035170802WANDERSON LUIS DE CARVALHO              RUA JOAQUIM GONCALVES ROCHA - 302 - JARD            02859030                                                            000002
2SR. CAIXA, APOS O VENCIMENTO COBRAR 2% DE MULTA                                 NAO RECEBER APOS 30 DIAS DO VENCIMENTO.                                                                                                                                                                                                         09031700000000000000903170000000000000       0090339900006270192551521922000003
100000000000000000000009033990000627000000000000000000000000010002020019401153193P00000000002            2  01194011531924031700000002327030000000099N090317000000000000000000000000000000000000000000000000000000000000000100007294351805CLAUDENIR APARECIDO VACARI              RUA OFELIA CHAVES DE MEIRELLES - 989 CAS            11360210                                                            000005
2SR. CAIXA, APOS O VENCIMENTO COBRAR 2% DE MULTA                                 NAO RECEBER APOS 30 DIAS DO VENCIMENTO.                                                                                                                                                                                                         09031700000000000000903170000000000000       009033990000627019401153193P000006
100000000000000000000009033990000627000000000000000000000000010002020019547154194800000000002            2  01195471541924031700000002351420000000099N090317000000000000000000000000000000000000000000000000000000000000000100042976111634ACACIO TOSCANO BONDANCA                 RUA COMENDADOR JACOMO ANTONIO LA SELVA -            12946797                                                            000008
2SR. CAIXA, APOS O VENCIMENTO COBRAR 2% DE MULTA                                 NAO RECEBER APOS 30 DIAS DO VENCIMENTO.                                                                                                                                                                                                         09031700000000000000903170000000000000       0090339900006270195471541948000009
100000000000000000000009033990000627000000000000000000000000010002020020292158200P00000000002            2  01202921582024031700000001985900000000099N090317000000000000000000000000000000000000000000000000000000000000000100035438022836ALESSANDRO FARACO DOS SANTOS            RUA PEDRO POMAR  - 145 - JARDIM ELISA MA            02875020                                                            000011
2SR. CAIXA, APOS O VENCIMENTO COBRAR 2% DE MULTA                                 NAO RECEBER APOS 30 DIAS DO VENCIMENTO.                                                                                                                                                                                                         09031700000000000000903170000000000000       009033990000627020292158200P000012
100000000000000000000009033990000627000000000000000000000000010002020021634167212600000000002            2  01216341672124031700000001061100000000099N090317000000000000000000000000000000000000000000000000000000000000000100007525032866FERNANDO RIBEIRO                        RUA ALDO COLI - 539 - VILA MIRIM - PRAIA            11704760                                                            000014
2SR. CAIXA, APOS O VENCIMENTO COBRAR 2% DE MULTA                                 NAO RECEBER APOS 30 DIAS DO VENCIMENTO.                                                                                                                                                                                                         09031700000000000000903170000000000000       0090339900006270216341672126000015
100000000000000000000009033990000627000000000000000000000000010002020021779168213600000000002            2  01217791682124031700000002991590000000099N090317000000000000000000000000000000000000000000000000000000000000000100031898775800ANITA MARTINS COLOMBO                   RUA GUIAN - 334 AP.51 - VILA CAMPESTRE -            04330090                                                            000017
2SR. CAIXA, APOS O VENCIMENTO COBRAR 2% DE MULTA                                 NAO RECEBER APOS 30 DIAS DO VENCIMENTO.                                                                                                                                                                                                         09031700000000000000903170000000000000       0090339900006270217791682136000018
100000000000000000000009033990000627000000000000000000000000010002020021925169214300000000002            2  01219251692124031700000002283210000000099N090317000000000000000000000000000000000000000000000000000000000000000100005520147884ERIBALDO SANTANA CARVALHO               RUA HONDURAS - 477 - PARQUE DAS AMERICAS            09351070                                                            000020
2SR. CAIXA, APOS O VENCIMENTO COBRAR 2% DE MULTA                                 NAO RECEBER APOS 30 DIAS DO VENCIMENTO.                                                                                                                                                                                                         09031700000000000000903170000000000000       0090339900006270219251692143000021
100000000000000000000009033990000627000000000000000000000000010002020022575173220600000000002            2  01225751732224031700000002136120000000099N090317000000000000000000000000000000000000000000000000000000000000000100002841756416LUCIANA PINHEIRO DE ASSIS NUNES         RUA RIO ACIMA - 81 - RIACHO GRANDE - SAO            09830100                                                            000023
2SR. CAIXA, APOS O VENCIMENTO COBRAR 2% DE MULTA                                 NAO RECEBER APOS 30 DIAS DO VENCIMENTO.                                                                                                                                                                                                         09031700000000000000903170000000000000       0090339900006270225751732206000024
100000000000000000000009033990000627000000000000000000000000010002020022723174221P00000000002            2  01227231742224031700000002146360000000099N090317000000000000000000000000000000000000000000000000000000000000000100084302097868FAUSTO TADEU VILOR                      RUA ANTONIO TAVARES - 466 - BAIRRO CAMBU            01542010                                                            000026
2SR. CAIXA, APOS O VENCIMENTO COBRAR 2% DE MULTA                                 NAO RECEBER APOS 30 DIAS DO VENCIMENTO.                                                                                                                                                                                                         09031700000000000000903170000000000000       009033990000627022723174221P000027
100000000000000000000009033990000627000000000000000000000000010002020024623185234600000000002            2  01246231852324031700000002037820000000099N090317000000000000000000000000000000000000000000000000000000000000000100018207096802ROBERTO VALENTE TAVARES                 RUA SEBASTIAO GOMES - 218 - JARDIM SANTO            13835000                                                            000029
2SR. CAIXA, APOS O VENCIMENTO COBRAR 2% DE MULTA                                 NAO RECEBER APOS 30 DIAS DO VENCIMENTO.                                                                                                                                                                                                         09031700000000000000903170000000000000       0090339900006270246231852346000030
100000000000000000000009033990000627000000000000000000000000010002020024916176236P00000000002            2  01249161762324031700000002108840000000099N090317000000000000000000000000000000000000000000000000000000000000000100028804202882GILBERTO FABIANO CABRAL DE CAMARGO      RUA JOSE TIMOTEO DA SILVA - 120 AP.62 BL            06172220                                                            000032
2SR. CAIXA, APOS O VENCIMENTO COBRAR 2% DE MULTA                                 NAO RECEBER APOS 30 DIAS DO VENCIMENTO.                                                                                                                                                                                                         09031700000000000000903170000000000000       009033990000627024916176236P000033
100000000000000000000009033990000627000000000000000000000000010002020025357187239900000000002            2  01253571872324031700000002058290000000099N090317000000000000000000000000000000000000000000000000000000000000000100000991748808JAILSON BORGES DE ANDRADE               RUA SAO GABRIEL DA CACHOEIRA - 28 - JARD            07240080                                                            000035
2SR. CAIXA, APOS O VENCIMENTO COBRAR 2% DE MULTA                                 NAO RECEBER APOS 30 DIAS DO VENCIMENTO.                                                                                                                                                                                                         09031700000000000000903170000000000000       0090339900006270253571872399000036
100000000000000000000009033990000627000000000000000000000000010002020025503188240100000000002            2  01255031882424031700000002806250000000099N090317000000000000000000000000000000000000000000000000000000000000000100092180299834LUIS ROBERTO DE SA DUARTE               RUA TEBAS - 296 AP.84 BLOCO 2 CE - JARDI            04634031                                                            000038
2SR. CAIXA, APOS O VENCIMENTO COBRAR 2% DE MULTA                                 NAO RECEBER APOS 30 DIAS DO VENCIMENTO.                                                                                                                                                                                                         09031700000000000000903170000000000000       0090339900006270255031882401000039
100000000000000000000009033990000627000000000000000000000000010002020025941191243000000000002            2  01259411912424031700000002046350000000099N090317000000000000000000000000000000000000000000000000000000000000000100022151666816SAMIR LIMA DE ARAUJO                    AVENIDA GUARAPIRANGA - 2616 AP.42 BLOCO1            04902005                                                            000041
2SR. CAIXA, APOS O VENCIMENTO COBRAR 2% DE MULTA                                 NAO RECEBER APOS 30 DIAS DO VENCIMENTO.                                                                                                                                                                                                         09031700000000000000903170000000000000       0090339900006270259411912430000042
100000000000000000000009033990000627000000000000000000000000010002020026088186244600000000002            2  01260881862426031700000001625130000000099N090317000000000000000000000000000000000000000000000000000000000000000100022313116824ROSA MARIA BRITO DA SILVA               RUA SERVIDAO DE SAO MARCOS - 113 - JARDI            04930300                                                            000044
2SR. CAIXA, APOS O VENCIMENTO COBRAR 2% DE MULTA                                 NAO RECEBER APOS 30 DIAS DO VENCIMENTO.                                                                                                                                                                                                         09031700000000000000903170000000000000       0090339900006270260881862446000045
100000000000000000000009033990000627000000000000000000000000010002020026238184245P00000000002            2  01262381842426031700000001630790000000099N090317000000000000000000000000000000000000000000000000000000000000000100027538087249MARA LUCIA MENEZES DA COSTA             RUA LEILA  - 183 - ITAQUERA - SAO PAULO             08240020                                                            000047
2SR. CAIXA, APOS O VENCIMENTO COBRAR 2% DE MULTA                                 NAO RECEBER APOS 30 DIAS DO VENCIMENTO.                                                                                                                                                                                                         09031700000000000000903170000000000000       009033990000627026238184245P000048
100000000000000000000009033990000627000000000000000000000000010002020026385179246900000000002            2  01263851792426031700000001726440000000099N090317000000000000000000000000000000000000000000000000000000000000000100020105503827VALTER DE SOUSA LIBARINO FILHO          RUA DAS PAINEIRAS - 140 - LARANJEIRAS -             07700000                                                            000050
2SR. CAIXA, APOS O VENCIMENTO COBRAR 2% DE MULTA                                 NAO RECEBER APOS 30 DIAS DO VENCIMENTO.                                                                                                                                                                                                         09031700000000000000903170000000000000       0090339900006270263851792469000051
100000000000000000000009033990000627000000000000000000000000010002020026528192247100000000002            2  01265281922424031700000001976850000000099N090317000000000000000000000000000000000000000000000000000000000000000100031278411836JEFFERSON DE PIERI PIRES ZAMUNER        RUA MANOEL ARCE - 277 - PARQUE BANCARIO             03922150                                                            000053
2SR. CAIXA, APOS O VENCIMENTO COBRAR 2% DE MULTA                                 NAO RECEBER APOS 30 DIAS DO VENCIMENTO.                                                                                                                                                                                                         09031700000000000000903170000000000000       0090339900006270265281922471000054
100000000000000000000009033990000627000000000000000000000000010002020026957194251P00000000002            2  01269571942526031700000001484070000000099N090317000000000000000000000000000000000000000000000000000000000000000100019185769800AGUINALDO PESSOA DE LIMA                RUA JANUARIO ZINGARO - 252 AP.303 BL.04             05794300                                                            000056
2SR. CAIXA, APOS O VENCIMENTO COBRAR 2% DE MULTA                                 NAO RECEBER APOS 30 DIAS DO VENCIMENTO.                                                                                                                                                                                                         09031700000000000000903170000000000000       009033990000627026957194251P000057
9                                                                                                                                                                                                                                                                                                                                                                                                         000058