01REMESSA01COBRANCA       00000000000005331186HB SANTOS CONSTRUTORA E INCORP237BRADESCO       020721        MX0000028                                                                                                                                                                                                                                                                                     000001
100000000000000000000009033990000995400000000000000000000000010002020005723207211800000000002            2  01057232072123072100000002627960000000001N020721000000000000000000000000000000000000000000000000000000000000000100005723255843FRANCISCO DE ASSIS DA SILVA             PRACA NICOLAU GERAIGIRE - 25 VISOR - JAR            11095110                                                            000002
2SR. CAIXA, APOS O VENCIMENTO COBRAR 2% DE MULTA                                 NAO RECEBER APOS 30 DIAS DO VENCIMENTO.                                                                                                                                                                                                         02072100000000000000207210000000000000       0090339900009954057232072118000003
100000000000000000000009033990000995400000000000000000000000010002020004928107211200000000002            2  01049281072123072100000002569950000000001N020721000000000000000000000000000000000000000000000000000000000000000100004928157800ADEMIR APARECIDO ANTUNES                RUA JAIME TAVEIRA - 91 AP.056 B - CHACAR            03732060                                                            000005
2SR. CAIXA, APOS O VENCIMENTO COBRAR 2% DE MULTA                                 NAO RECEBER APOS 30 DIAS DO VENCIMENTO.                                                                                                                                                                                                         02072100000000000000207210000000000000       0090339900009954049281072112000006
100000000000000000000009033990000995400000000000000000000000010002020011238007211P00000000002            2  01112380072123072100000002536620000000001N020721000000000000000000000000000000000000000000000000000000000000000100011238052886SOLANGE DIAS DE SOUZA ROMANO            AVENIDA DR. ALTINO ARANTES - 865 AP.132             04042034                                                            000008
2SR. CAIXA, APOS O VENCIMENTO COBRAR 2% DE MULTA                                 NAO RECEBER APOS 30 DIAS DO VENCIMENTO.                                                                                                                                                                                                         02072100000000000000207210000000000000       009033990000995411238007211P000009
100000000000000000000009033990000995400000000000000000000000010002020032589107211100000000002            2  01325891072123072100000002486620000000001N020721000000000000000000000000000000000000000000000000000000000000000100032589165862RENATA ISABEL MARTINS SILVA             RUA HERCULANO DE FREITAS - 257 - FUNDACA            09520280                                                            000011
2SR. CAIXA, APOS O VENCIMENTO COBRAR 2% DE MULTA                                 NAO RECEBER APOS 30 DIAS DO VENCIMENTO.                                                                                                                                                                                                         02072100000000000000207210000000000000       0090339900009954325891072111000012
100000000000000000000009033990000995400000000000000000000000010002020088339307211500000000002            2  01883393072123072100000002513560000000001N020721000000000000000000000000000000000000000000000000000000000000000100088339319868MARCIA SIQUEIRA MELLO                   RUA ADELINO ALVES - 81 - SANTO AMARO - S            04710120                                                            000014
2SR. CAIXA, APOS O VENCIMENTO COBRAR 2% DE MULTA                                 NAO RECEBER APOS 30 DIAS DO VENCIMENTO.                                                                                                                                                                                                         02072100000000000000207210000000000000       0090339900009954883393072115000015
100000000000000000000009033990000995400000000000000000000000010002020088339307213100000000002            2  01883393072123072100000002513540000000001N020721000000000000000000000000000000000000000000000000000000000000000100088339319868MARCIA SIQUEIRA MELLO                   RUA ADELINO ALVES - 81 - SANTO AMARO - S            04710120                                                            000017
2SR. CAIXA, APOS O VENCIMENTO COBRAR 2% DE MULTA                                 NAO RECEBER APOS 30 DIAS DO VENCIMENTO.                                                                                                                                                                                                         02072100000000000000207210000000000000       0090339900009954883393072131000018
100000000000000000000009033990000995400000000000000000000000010002020088339307212300000000002            2  01883393072123072100000002513550000000001N020721000000000000000000000000000000000000000000000000000000000000000100088339319868MARCIA SIQUEIRA MELLO                   RUA ADELINO ALVES - 81 - SANTO AMARO - S            04710120                                                            000020
2SR. CAIXA, APOS O VENCIMENTO COBRAR 2% DE MULTA                                 NAO RECEBER APOS 30 DIAS DO VENCIMENTO.                                                                                                                                                                                                         02072100000000000000207210000000000000       0090339900009954883393072123000021
100000000000000000000009033990000995400000000000000000000000010002020046391207211000000000002            2  01463912072123072100000002607460000000001N020721000000000000000000000000000000000000000000000000000000000000000100046391265810PAMELLA RODRIGUES DE OLIVEIRA           RUA AUGUSTA - 183 AP.301 BL.2A - VILA AU            07025130                                                            000023
2SR. CAIXA, APOS O VENCIMENTO COBRAR 2% DE MULTA                                 NAO RECEBER APOS 30 DIAS DO VENCIMENTO.                                                                                                                                                                                                         02072100000000000000207210000000000000       0090339900009954463912072110000024
100000000000000000000009033990000995400000000000000000000000010002020027964507211900000000002            2  01279645072123072100000001590790000000001N020721000000000000000000000000000000000000000000000000000000000000000100027964512838FABIO TADEU DE CAMPOS RADZIAVICIUS      AV.PROF.LUIZ IGNACIO ANHAIA MELLO - 2.58            03154100                                                            000026
2SR. CAIXA, APOS O VENCIMENTO COBRAR 2% DE MULTA                                 NAO RECEBER APOS 30 DIAS DO VENCIMENTO.                                                                                                                                                                                                         02072100000000000000207210000000000000       0090339900009954279645072119000027
100000000000000000000009033990000995400000000000000000000000010002020011498307211700000000002            2  01114983072123072100000001941050000000001N020721000000000000000000000000000000000000000000000000000000000000000100011498329837GERSON GERALDO DAS NEVES                RUA DOMINGOS DELGADO - 144 - VILA SOUZA             02881070                                                            000029
2SR. CAIXA, APOS O VENCIMENTO COBRAR 2% DE MULTA                                 NAO RECEBER APOS 30 DIAS DO VENCIMENTO.                                                                                                                                                                                                         02072100000000000000207210000000000000       0090339900009954114983072117000030
100000000000000000000009033990000995400000000000000000000000010002020068875607211500000000002            2  01688756072123072100000002574130000000001N020721000000000000000000000000000000000000000000000000000000000000000100068875673691ILDETE BATISTA NEIVA GOLFAR             RUA MARECHAL MAURICIO JOSE CARDOSO - 230            11700140                                                            000032
2SR. CAIXA, APOS O VENCIMENTO COBRAR 2% DE MULTA                                 NAO RECEBER APOS 30 DIAS DO VENCIMENTO.                                                                                                                                                                                                         02072100000000000000207210000000000000       0090339900009954688756072115000033
100000000000000000000009033990000995400000000000000000000000010002020000884207211900000000002            2  01008842072123072100000002364260000000001N020721000000000000000000000000000000000000000000000000000000000000000100000884239802ADEMIR MARTINS                          RUA CAIRO - 221 - VILA METALURGICA - SAN            09220170                                                            000035
2SR. CAIXA, APOS O VENCIMENTO COBRAR 2% DE MULTA                                 NAO RECEBER APOS 30 DIAS DO VENCIMENTO.                                                                                                                                                                                                         02072100000000000000207210000000000000       0090339900009954008842072119000036
100000000000000000000009033990000995400000000000000000000000010002020025214407211300000000002            2  01252144072123072100000002297600000000001N020721000000000000000000000000000000000000000000000000000000000000000100025214401833JOSE MAURICIO DOS SANTOS RODRIGUES      RUA JOAO DE MACEDO RIBEIRO - 49 - VILA N            08111101                                                            000038
2SR. CAIXA, APOS O VENCIMENTO COBRAR 2% DE MULTA                                 NAO RECEBER APOS 30 DIAS DO VENCIMENTO.                                                                                                                                                                                                         02072100000000000000207210000000000000       0090339900009954252144072113000039
100000000000000000000009033990000995400000000000000000000000010002020033119107211000000000002            2  01331191072123072100000002307330000000001N020721000000000000000000000000000000000000000000000000000000000000000100033119178802HUGO GOMES VENDRAME                     RUA SAO PAULO - 60 CASA 01 - VILA FREITA            06380110                                                            000041
2SR. CAIXA, APOS O VENCIMENTO COBRAR 2% DE MULTA                                 NAO RECEBER APOS 30 DIAS DO VENCIMENTO.                                                                                                                                                                                                         02072100000000000000207210000000000000       0090339900009954331191072110000042
100000000000000000000009033990000995400000000000000000000000010002020016631507211300000000002            2  01166315072123072100000002347590000000001N020721000000000000000000000000000000000000000000000000000000000000000100016631587468GILBERTO BEZERRA DA SILVA               AVENIDA JAIME TORRES - 745 CASA 3 - JARD            03670000                                                            000044
2SR. CAIXA, APOS O VENCIMENTO COBRAR 2% DE MULTA                                 NAO RECEBER APOS 30 DIAS DO VENCIMENTO.                                                                                                                                                                                                         02072100000000000000207210000000000000       0090339900009954166315072113000045
100000000000000000000009033990000995400000000000000000000000010002020007313207211600000000002            2  01073132072123072100000002330920000000001N020721000000000000000000000000000000000000000000000000000000000000000100007313251840SALVADOR GESUALDO PULVIRENTI            AVENIDA MARARI - 641 - VILA MARARI - SAO            04402010                                                            000047
2SR. CAIXA, APOS O VENCIMENTO COBRAR 2% DE MULTA                                 NAO RECEBER APOS 30 DIAS DO VENCIMENTO.                                                                                                                                                                                                         02072100000000000000207210000000000000       0090339900009954073132072116000048
100000000000000000000009033990000995400000000000000000000000010002020010676707211800000000002            2  01106767072123072100000002432930000000001N020721000000000000000000000000000000000000000000000000000000000000000100010676723896MERCEDES CRISTINA ROCHA SANDOVAL        RUA ITARARE - 446 AP.806 - JARDIM GUILHE            11701620                                                            000050
2SR. CAIXA, APOS O VENCIMENTO COBRAR 2% DE MULTA                                 NAO RECEBER APOS 30 DIAS DO VENCIMENTO.                                                                                                                                                                                                         02072100000000000000207210000000000000       0090339900009954106767072118000051
100000000000000000000009033990000995400000000000000000000000010002020009502807211600000000002            2  01095028072123072100000002540790000000001N020721000000000000000000000000000000000000000000000000000000000000000100009502844831CLAUDIA ROCHA SANDOVAL                  RUA ABAETE - 29.153 - VILA TUPI - PRAIA             11703490                                                            000053
2SR. CAIXA, APOS O VENCIMENTO COBRAR 2% DE MULTA                                 NAO RECEBER APOS 30 DIAS DO VENCIMENTO.                                                                                                                                                                                                         02072100000000000000207210000000000000       0090339900009954095028072116000054
100000000000000000000009033990000995400000000000000000000000010002020007594207211500000000002            2  01075942072123072100000002280930000000001N020721000000000000000000000000000000000000000000000000000000000000000100007594247809JOSE LUIS DE OLIVEIRA                   DONA EGLANTINA PENTEADO DA SILVA PRADO -            13044162                                                            000056
2SR. CAIXA, APOS O VENCIMENTO COBRAR 2% DE MULTA                                 NAO RECEBER APOS 30 DIAS DO VENCIMENTO.                                                                                                                                                                                                         02072100000000000000207210000000000000       0090339900009954075942072115000057
100000000000000000000009033990000995400000000000000000000000010002020005288707211900000000002            2  01052887072123072100000002349600000000001N020721000000000000000000000000000000000000000000000000000000000000000100005288796858MARCELO RODRIGUES FERREIRA              RUA MARCOS ANTONIO MARQUES - 302 - JARDI            06433020                                                            000059
2SR. CAIXA, APOS O VENCIMENTO COBRAR 2% DE MULTA                                 NAO RECEBER APOS 30 DIAS DO VENCIMENTO.                                                                                                                                                                                                         02072100000000000000207210000000000000       0090339900009954052887072119000060
100000000000000000000009033990000995400000000000000000000000010002020015835907211800000000002            2  01158359072123072100000002446770000000001N020721000000000000000000000000000000000000000000000000000000000000000100015835992823FLAVIO VERONEZ                          RUA ANDREA PAULINETTI - 127 AP.42 - BAIR            04707050                                                            000062
2SR. CAIXA, APOS O VENCIMENTO COBRAR 2% DE MULTA                                 NAO RECEBER APOS 30 DIAS DO VENCIMENTO.                                                                                                                                                                                                         02072100000000000000207210000000000000       0090339900009954158359072118000063
100000000000000000000009033990000995400000000000000000000000010002020000438107211600000000002            2  01004381072123072100000002761740000000001N020721000000000000000000000000000000000000000000000000000000000000000100000438161858WAGNECY VILLA NOVA LIEN                 MACHADO - 106 - VILA AUGUSTA - GUARULHOS            07025210                                                            000065
2SR. CAIXA, APOS O VENCIMENTO COBRAR 2% DE MULTA                                 NAO RECEBER APOS 30 DIAS DO VENCIMENTO.                                                                                                                                                                                                         02072100000000000000207210000000000000       0090339900009954004381072116000066
100000000000000000000009033990000995400000000000000000000000010002020026004507211200000000002            2  01260045072123072100000002446810000000001N020721000000000000000000000000000000000000000000000000000000000000000100026004595888EDIVALDO BEZERRA DA SILVA               AVENIDA GUATEMALA - 550 - JARDIM PINHEIR            09854750                                                            000068
2SR. CAIXA, APOS O VENCIMENTO COBRAR 2% DE MULTA                                 NAO RECEBER APOS 30 DIAS DO VENCIMENTO.                                                                                                                                                                                                         02072100000000000000207210000000000000       0090339900009954260045072112000069
100000000000000000000009033990000995400000000000000000000000010002020012470707211700000000002            2  01124707072123072100000002610560000000001N020721000000000000000000000000000000000000000000000000000000000000000100012470771870HILTON FERNANDES OLIVARES               RUA PATIO DA ESTACAO - 115 - BAIRRO CENT            09450000                                                            000071
2SR. CAIXA, APOS O VENCIMENTO COBRAR 2% DE MULTA                                 NAO RECEBER APOS 30 DIAS DO VENCIMENTO.                                                                                                                                                                                                         02072100000000000000207210000000000000       0090339900009954124707072117000072
100000000000000000000009033990000995400000000000000000000000010002020014025407211600000000002            2  01140254072123072100000002862420000000001N020721000000000000000000000000000000000000000000000000000000000000000100014025420899ANDREIA APARECIDA TAVARES BASTOS        RUA IBATIBA - 234 CASA 27 - RES.BOUGANVI            09220608                                                            000074
2SR. CAIXA, APOS O VENCIMENTO COBRAR 2% DE MULTA                                 NAO RECEBER APOS 30 DIAS DO VENCIMENTO.                                                                                                                                                                                                         02072100000000000000207210000000000000       0090339900009954140254072116000075
100000000000000000000009033990000995400000000000000000000000010002020018590007211500000000002            2  01185900072123072100000012470000000000001N020721000000000000000000000000000000000000000000000000000000000000000100018590038858JOSE SANDRO ROCHA SILVA                 RUA SANTO ANTONIO DO AVENTUREIRO - 216 A            07143040                                                            000077
2SR. CAIXA, APOS O VENCIMENTO COBRAR 2% DE MULTA                                 NAO RECEBER APOS 30 DIAS DO VENCIMENTO.                                                                                                                                                                                                         02072100000000000000207210000000000000       0090339900009954185900072115000078
100000000000000000000009033990000995400000000000000000000000010002020018590007212300000000002            2  01185900072123072100000002592340000000001N020721000000000000000000000000000000000000000000000000000000000000000100018590038858JOSE SANDRO ROCHA SILVA                 RUA SANTO ANTONIO DO AVENTUREIRO - 216 A            07143040                                                            000080
2SR. CAIXA, APOS O VENCIMENTO COBRAR 2% DE MULTA                                 NAO RECEBER APOS 30 DIAS DO VENCIMENTO.                                                                                                                                                                                                         02072100000000000000207210000000000000       0090339900009954185900072123000081
9                                                                                                                                                                                                                                                                                                                                                                                                         000082