01REMESSA01COBRANCA       00000000000005316116AIRES CONSTRUTORA E INCORPORAD237BRADESCO       100123        MX0000210                                                                                                                                                                                                                                                                                     000001
100000000000000000000009002800441612000000000000000000000000010002100001204401231700000000002            2  01012044012325012300000003612870000000001N090123000000000000000000000000000000000000000000000000000000000000000100001204431809CEZAR TALAVERA JUNIOR                   RUA MAESTRO ARTURO DE ANGELIS  - 190 AP.            05139010                                                            000002
2SR. CAIXA, APOS O VENCIMENTO COBRAR 10% DE MULTA                                NAO RECEBER APOS 30 DIAS DO VENCIMENTO.                                                                                                                                                                                                         10012300000000000001001230000000000000       0090028004416120012044012317000003
100000000000000000000009002800441612000000000000000000000000010002100002225001231000000000002            2  01022250012325012300000006261780000000001N090123000000000000000000000000000000000000000000000000000000000000000100002225072841PEDRO EDUARDO DE AZEVEDO                RUA NATH ZILMAN - 46 - JARDIM SAMAMBAIA             07623085                                                            000005
2SR. CAIXA, APOS O VENCIMENTO COBRAR 10% DE MULTA                                NAO RECEBER APOS 30 DIAS DO VENCIMENTO.                                                                                                                                                                                                         10012300000000000001001230000000000000       0090028004416120022250012310000006
100000000000000000000009002800441612000000000000000000000000010002100027198401231000000000002            2  01271984012325012300000003005330000000001N090123000000000000000000000000000000000000000000000000000000000000000100027198452809CRISTIANE AURELIANO DA SILVA MAIA       RUA MONTE CASTELO - 262 AP.25 - AVIACAO             11702720                                                            000008
2SR. CAIXA, APOS O VENCIMENTO COBRAR 10% DE MULTA                                NAO RECEBER APOS 30 DIAS DO VENCIMENTO.                                                                                                                                                                                                         10012300000000000001001230000000000000       0090028004416120271984012310000009
100000000000000000000009002800441612000000000000000000000000010002100021246201231400000000002            2  01212462012325012300000003667750000000001N090123000000000000000000000000000000000000000000000000000000000000000100021246231840ALEXANDRO DA CUNHA MIGUES               RUA DULCE - 71  - VILA CARRAO - SAO PAUL            03427040                                                            000011
2SR. CAIXA, APOS O VENCIMENTO COBRAR 10% DE MULTA                                NAO RECEBER APOS 30 DIAS DO VENCIMENTO.                                                                                                                                                                                                         10012300000000000001001230000000000000       0090028004416120212462012314000012
100000000000000000000009002800441612000000000000000000000000010002100018470501231400000000002            2  01184705012325012300000005395800000000001N090123000000000000000000000000000000000000000000000000000000000000000100018470520881SILVANA ALVES DE OLIVEIRA               RUA MONTE CASTELO - 262 AP.91 - AVIACAO             11702720                                                            000014
2SR. CAIXA, APOS O VENCIMENTO COBRAR 10% DE MULTA                                NAO RECEBER APOS 30 DIAS DO VENCIMENTO.                                                                                                                                                                                                         10012300000000000001001230000000000000       0090028004416120184705012314000015
100000000000000000000009002800441612000000000000000000000000010002100009297501231400000000002            2  01092975012325012300000003756480000000001N090123000000000000000000000000000000000000000000000000000000000000000100009297523846MARCOS ROBERTO DE CASTRO FERREIRA       RUA MONTE CASTELO - 262 AP.105 - AVIACAO            11702720                                                            000017
2SR. CAIXA, APOS O VENCIMENTO COBRAR 10% DE MULTA                                NAO RECEBER APOS 30 DIAS DO VENCIMENTO.                                                                                                                                                                                                         10012300000000000001001230000000000000       0090028004416120092975012314000018
100000000000000000000009002800441612000000000000000000000000010002100001164101231300000000002            2  01011641012325012300000004655140000000001N090123000000000000000000000000000000000000000000000000000000000000000100001164158864DAVID BLEY LACERDA                      RUA CONEGO ARAUJO MARCONDES - 188 - BAIR            02550080                                                            000020
2SR. CAIXA, APOS O VENCIMENTO COBRAR 10% DE MULTA                                NAO RECEBER APOS 30 DIAS DO VENCIMENTO.                                                                                                                                                                                                         10012300000000000001001230000000000000       0090028004416120011641012313000021
100000000000000000000009002800441612000000000000000000000000010002100031498001231700000000002            2  01314980012325012300000005657660000000001N090123000000000000000000000000000000000000000000000000000000000000000100031498008895POLIANE  SIBELE DA SILVA                PRACA GENERAL COSTA BARRETO - 56 AP.181             03325070                                                            000023
2SR. CAIXA, APOS O VENCIMENTO COBRAR 10% DE MULTA                                NAO RECEBER APOS 30 DIAS DO VENCIMENTO.                                                                                                                                                                                                         10012300000000000001001230000000000000       0090028004416120314980012317000024
100000000000000000000009002800441612000000000000000000000000010002100014386801231300000000002            2  01143868012325012300000015991250000000001N090123000000000000000000000000000000000000000000000000000000000000000100014386860134SEVERINO CARLOS DE OLIVEIRA             RUA MONTE CASTELO - 262 AP.54 - AVIACAO             11702720                                                            000026
2SR. CAIXA, APOS O VENCIMENTO COBRAR 10% DE MULTA                                NAO RECEBER APOS 30 DIAS DO VENCIMENTO.                                                                                                                                                                                                         10012300000000000001001230000000000000       0090028004416120143868012313000027
100000000000000000000009002800441612000000000000000000000000010002100014386801232100000000002            2  01143868012325012300000002654530000000001N090123000000000000000000000000000000000000000000000000000000000000000100014386860134SEVERINO CARLOS DE OLIVEIRA             RUA MONTE CASTELO - 262 AP.54 - AVIACAO             11702720                                                            000029
2SR. CAIXA, APOS O VENCIMENTO COBRAR 10% DE MULTA                                NAO RECEBER APOS 30 DIAS DO VENCIMENTO.                                                                                                                                                                                                         10012300000000000001001230000000000000       0090028004416120143868012321000030
100000000000000000000009002800441612000000000000000000000000010002100039393701231900000000002            2  01393937012325012300000001829570000000001N090123000000000000000000000000000000000000000000000000000000000000000100039393790850NAIRON RICARDO DE ARAUJO SANTOS         RUA NITEROI - 267 CASA 04 - JARDIM INDEP            11380350                                                            000032
2SR. CAIXA, APOS O VENCIMENTO COBRAR 10% DE MULTA                                NAO RECEBER APOS 30 DIAS DO VENCIMENTO.                                                                                                                                                                                                         10012300000000000001001230000000000000       0090028004416120393937012319000033
100000000000000000000009002800441612000000000000000000000000010002100019288701231700000000002            2  01192887012325012300000002463900000000001N090123000000000000000000000000000000000000000000000000000000000000000100019288787844EMERSON LUIZ MARTINEZ PEREIRA           RUA MONTE CASTELO - 296 AP.74 - AVIACAO             11702720                                                            000035
2SR. CAIXA, APOS O VENCIMENTO COBRAR 10% DE MULTA                                NAO RECEBER APOS 30 DIAS DO VENCIMENTO.                                                                                                                                                                                                         10012300000000000001001230000000000000       0090028004416120192887012317000036
9                                                                                                                                                                                                                                                                                                                                                                                                         000037