01REMESSA01COBRANCA       00000000000004991781AIRES CONSTRUTORA E INCORPORAD237BRADESCO       010919        MX0000127                                                                                                                                                                                                                                                                                     000001
100000000000000000000009077090006612500000000000000000000000010002100094852209191600000000002            2  01948522091910091900000002374110000000001N010919000000000000000000000000000000000000000000000000000000000000000100094852294887GISELDA MENON                           RUA OTAVIO BARRETO - 105 - VILA SANTISTA            02560080                                                            000002
2SR. CAIXA, APOS O VENCIMENTO COBRAR 10% DE MULTA                                NAO RECEBER APOS 30 DIAS DO VENCIMENTO.                                                                                                                                                                                                         01091900000000000000109190000000000000       0090770900066125948522091916000003
100000000000000000000009077090006612500000000000000000000000010002100006485909191200000000002            2  01064859091910091900000003641130000000001N010919000000000000000000000000000000000000000000000000000000000000000100006485911820CELIO MANUEL  MELIM SANTO               RUA JUVENAL FERREIRA  - 85 AP.61 - VILA             03512040                                                            000005
2SR. CAIXA, APOS O VENCIMENTO COBRAR 10% DE MULTA                                NAO RECEBER APOS 30 DIAS DO VENCIMENTO.                                                                                                                                                                                                         01091900000000000000109190000000000000       0090770900066125064859091912000006
100000000000000000000009077090006612500000000000000000000000010002100004693809191100000000002            2  01046938091910091900000003173510000000001N010919000000000000000000000000000000000000000000000000000000000000000100004693857823NIVALDO BARTOLOMEU FERREIRA             MNS JOSE MARINONI  - 33 - SANTO AMARO -             04430350                                                            000008
2SR. CAIXA, APOS O VENCIMENTO COBRAR 10% DE MULTA                                NAO RECEBER APOS 30 DIAS DO VENCIMENTO.                                                                                                                                                                                                         01091900000000000000109190000000000000       0090770900066125046938091911000009
100000000000000000000009077090006612500000000000000000000000010002100027993109191000000000002            2  01279931091910091900000003021880000000001N010919000000000000000000000000000000000000000000000000000000000000000100027993108853DALVA JESUS RODRIGUES CABRAL            RUA CRISTOVAO COLOMBO GONCALVES - 97 - C            04811050                                                            000011
2SR. CAIXA, APOS O VENCIMENTO COBRAR 10% DE MULTA                                NAO RECEBER APOS 30 DIAS DO VENCIMENTO.                                                                                                                                                                                                         01091900000000000000109190000000000000       0090770900066125279931091910000012
100000000000000000000009077090006612500000000000000000000000010002100027993109192900000000002            2  01279931091910091900000003021750000000001N010919000000000000000000000000000000000000000000000000000000000000000100027993108853DALVA JESUS RODRIGUES CABRAL            RUA CRISTOVAO COLOMBO GONCALVES - 97 - C            04811050                                                            000014
2SR. CAIXA, APOS O VENCIMENTO COBRAR 10% DE MULTA                                NAO RECEBER APOS 30 DIAS DO VENCIMENTO.                                                                                                                                                                                                         01091900000000000000109190000000000000       0090770900066125279931091929000015
100000000000000000000009077090006612500000000000000000000000010002100000455409191P00000000002            2  01004554091910091900000003139050000000001N010919000000000000000000000000000000000000000000000000000000000000000100000455495831PAULO HENRIQUE LOURENCO                 RUA FIGUEIRA  - 237 - CIDADE DAS FLORES             06184060                                                            000017
2SR. CAIXA, APOS O VENCIMENTO COBRAR 10% DE MULTA                                NAO RECEBER APOS 30 DIAS DO VENCIMENTO.                                                                                                                                                                                                         01091900000000000000109190000000000000       009077090006612500455409191P000018
100000000000000000000009077090006612500000000000000000000000010002100006140009191000000000002            2  01061400091910091900000003892850000000001N010919000000000000000000000000000000000000000000000000000000000000000100006140049857MARIA ALBANI DA SILVA EUSEBIO           RUA ORLANDO SEGALA - 108 - JARDIM ADRIAN            07135190                                                            000020
2SR. CAIXA, APOS O VENCIMENTO COBRAR 10% DE MULTA                                NAO RECEBER APOS 30 DIAS DO VENCIMENTO.                                                                                                                                                                                                         01091900000000000000109190000000000000       0090770900066125061400091910000021
100000000000000000000009077090006612500000000000000000000000010002100007768709191P00000000002            2  01077687091910091900000003954480000000001N010919000000000000000000000000000000000000000000000000000000000000000100007768713826FATIMA LUZIA BIANCHI                    RUA MONTE CASTELO - 295 AP.121 - AVIACAO            11702720                                                            000023
2SR. CAIXA, APOS O VENCIMENTO COBRAR 10% DE MULTA                                NAO RECEBER APOS 30 DIAS DO VENCIMENTO.                                                                                                                                                                                                         01091900000000000000109190000000000000       009077090006612507768709191P000024
100000000000000000000009077090006612500000000000000000000000010002100021716809191700000000002            2  01217168091910091900000003895770000000001N010919000000000000000000000000000000000000000000000000000000000000000100021716847800ANDRE LUIZ FAGUNDES DE A.MATOS          CONDE MOREIRA LIMA - 644 - JARDIM JABAQU            04384032                                                            000026
2SR. CAIXA, APOS O VENCIMENTO COBRAR 10% DE MULTA                                NAO RECEBER APOS 30 DIAS DO VENCIMENTO.                                                                                                                                                                                                         01091900000000000000109190000000000000       0090770900066125217168091917000027
100000000000000000000009077090006612500000000000000000000000010002100085416909191000000000002            2  01854169091910091900000003302520000000001N010919000000000000000000000000000000000000000000000000000000000000000100085416940891ANTONIO DE SOUSA MENDES                 RUA MONTE CASTELO - 296 AP.52 - AVIACAO             11702720                                                            000029
2SR. CAIXA, APOS O VENCIMENTO COBRAR 10% DE MULTA                                NAO RECEBER APOS 30 DIAS DO VENCIMENTO.                                                                                                                                                                                                         01091900000000000000109190000000000000       0090770900066125854169091910000030
100000000000000000000009077090006612500000000000000000000000010002100005678009191400000000002            2  01056780091910091900000003439500000000001N010919000000000000000000000000000000000000000000000000000000000000000100005678057863FABIO MOREIRA CAMPOS                    RUA FLORENCIO DA SILVA - 284 - VILA LIBA            03738070                                                            000032
2SR. CAIXA, APOS O VENCIMENTO COBRAR 10% DE MULTA                                NAO RECEBER APOS 30 DIAS DO VENCIMENTO.                                                                                                                                                                                                         01091900000000000000109190000000000000       0090770900066125056780091914000033
100000000000000000000009077090006612500000000000000000000000010002100016348209191000000000002            2  01163482091910091900000003355480000000001N010919000000000000000000000000000000000000000000000000000000000000000100016348237885AILTON LORENA                           AVENIDA BRASILIA - 194 - BELA VISTA - SA            09180260                                                            000035
2SR. CAIXA, APOS O VENCIMENTO COBRAR 10% DE MULTA                                NAO RECEBER APOS 30 DIAS DO VENCIMENTO.                                                                                                                                                                                                         01091900000000000000109190000000000000       0090770900066125163482091910000036
100000000000000000000009077090006612500000000000000000000000010002100081218409191400000000002            2  01812184091910091900000003238470000000001N010919000000000000000000000000000000000000000000000000000000000000000100081218486953OSMAR DA COSTA                          RUA MONTE CASTELO - 295 AP.33 - AVIACAO             11702720                                                            000038
2SR. CAIXA, APOS O VENCIMENTO COBRAR 10% DE MULTA                                NAO RECEBER APOS 30 DIAS DO VENCIMENTO.                                                                                                                                                                                                         01091900000000000000109190000000000000       0090770900066125812184091914000039
100000000000000000000009077090006612500000000000000000000000010002100004981809191700000000002            2  01049818091910091900000003678310000000001N010919000000000000000000000000000000000000000000000000000000000000000100004981884850SILVIO PAULINO GONCALVES                MARIA DE CASTRO MESQUITA - 84 AP.103 BLO            07110040                                                            000041
2SR. CAIXA, APOS O VENCIMENTO COBRAR 10% DE MULTA                                NAO RECEBER APOS 30 DIAS DO VENCIMENTO.                                                                                                                                                                                                         01091900000000000000109190000000000000       0090770900066125049818091917000042
100000000000000000000009077090006612500000000000000000000000010002100019282509191100000000002            2  01192825091910091900000002414430000000001N010919000000000000000000000000000000000000000000000000000000000000000100019282546837FABIO LEANDRO DE FREITAS ASSIS          RUA BASSIM NAGIB TRABULSI - 97 - PONTA D            11030540                                                            000044
2SR. CAIXA, APOS O VENCIMENTO COBRAR 10% DE MULTA                                NAO RECEBER APOS 30 DIAS DO VENCIMENTO.                                                                                                                                                                                                         01091900000000000000109190000000000000       0090770900066125192825091911000045
100000000000000000000009077090006612500000000000000000000000010002100008423409191500000000002            2  01084234091910091900000003355410000000001N010919000000000000000000000000000000000000000000000000000000000000000100008423485811EDSON LUIZ NUNES                        RUA NOEMIA PEDROSO BUENO - 41 - JARDIM G            09360440                                                            000047
2SR. CAIXA, APOS O VENCIMENTO COBRAR 10% DE MULTA                                NAO RECEBER APOS 30 DIAS DO VENCIMENTO.                                                                                                                                                                                                         01091900000000000000109190000000000000       0090770900066125084234091915000048
100000000000000000000009077090006612500000000000000000000000010002100009777209191100000000002            2  01097772091910091900000003044160000000001N010919000000000000000000000000000000000000000000000000000000000000000100009777281889CARLITA DE FIGUEIREDO CARVALHO          AVENIDA ALBERTO DE ALMEIDA VINHAS - 4462            11701350                                                            000050
2SR. CAIXA, APOS O VENCIMENTO COBRAR 10% DE MULTA                                NAO RECEBER APOS 30 DIAS DO VENCIMENTO.                                                                                                                                                                                                         01091900000000000000109190000000000000       0090770900066125097772091911000051
100000000000000000000009077090006612500000000000000000000000010002100004213009191900000000002            2  01042130091910091900000003615200000000001N010919000000000000000000000000000000000000000000000000000000000000000100004213020894ELIETE DRUGOVICH DE LIMA                RUA OSVALDO CRUZ - 141 AP.144-B - SANTA             09541270                                                            000053
2SR. CAIXA, APOS O VENCIMENTO COBRAR 10% DE MULTA                                NAO RECEBER APOS 30 DIAS DO VENCIMENTO.                                                                                                                                                                                                         01091900000000000000109190000000000000       0090770900066125042130091919000054
100000000000000000000009077090006612500000000000000000000000010002100043122809191300000000002            2  01431228091910091900000002464110000000001N010919000000000000000000000000000000000000000000000000000000000000000100043122850800ANTONIO JOAQUIM GOES                    ANTONIO DOAS DA SILVA - 412 - VILA AMALI            02618110                                                            000056
2SR. CAIXA, APOS O VENCIMENTO COBRAR 10% DE MULTA                                NAO RECEBER APOS 30 DIAS DO VENCIMENTO.                                                                                                                                                                                                         01091900000000000000109190000000000000       0090770900066125431228091913000057
100000000000000000000009077090006612500000000000000000000000010002100003865709191P00000000002            2  01038657091910091900000003235200000000001N010919000000000000000000000000000000000000000000000000000000000000000100003865776841FRANCISCO JOSE ROCCO                    RUA FABIO JOSE BEZERRA - 130 AP.86 - PAR            03805000                                                            000059
2SR. CAIXA, APOS O VENCIMENTO COBRAR 10% DE MULTA                                NAO RECEBER APOS 30 DIAS DO VENCIMENTO.                                                                                                                                                                                                         01091900000000000000109190000000000000       009077090006612503865709191P000060
100000000000000000000009077090006612500000000000000000000000010002100028309509191600000000002            2  01283095091910091900000002885040000000001N010919000000000000000000000000000000000000000000000000000000000000000100028309524803DEISE RIBEIRO BARBOSA                   RUA CANDIDO JOSE DE ANDRADE - 173 - ERME            03807030                                                            000062
2SR. CAIXA, APOS O VENCIMENTO COBRAR 10% DE MULTA                                NAO RECEBER APOS 30 DIAS DO VENCIMENTO.                                                                                                                                                                                                         01091900000000000000109190000000000000       0090770900066125283095091916000063
100000000000000000000009077090006612500000000000000000000000010002100011277909191600000000002            2  01112779091910091900000003424230000000001N010919000000000000000000000000000000000000000000000000000000000000000100011277908893JOSE AILTON LOPES DE AZEVEDO            RUA MAESTRO JOAO SEPE - 19 - JARDIM MARI            04181030                                                            000065
2SR. CAIXA, APOS O VENCIMENTO COBRAR 10% DE MULTA                                NAO RECEBER APOS 30 DIAS DO VENCIMENTO.                                                                                                                                                                                                         01091900000000000000109190000000000000       0090770900066125112779091916000066
100000000000000000000009077090006612500000000000000000000000010002100025215109191300000000002            2  01252151091910091900000002582290000000001N010919000000000000000000000000000000000000000000000000000000000000000100025215106886KLEBER LUIZ DOS SANTOS                  RUA MONTE CASTELO - 262 AP.15 - AVIACAO             11702720                                                            000068
2SR. CAIXA, APOS O VENCIMENTO COBRAR 10% DE MULTA                                NAO RECEBER APOS 30 DIAS DO VENCIMENTO.                                                                                                                                                                                                         01091900000000000000109190000000000000       0090770900066125252151091913000069
100000000000000000000009077090006612500000000000000000000000010002100090206709191000000000002            2  01902067091910091900000002884330000000001N010919000000000000000000000000000000000000000000000000000000000000000100090206789815NEREIDE RODRIGUES FERREIRA              AVENIDA PADRE ESTANISLAU DE CAMPOS - 205            03590060                                                            000071
2SR. CAIXA, APOS O VENCIMENTO COBRAR 10% DE MULTA                                NAO RECEBER APOS 30 DIAS DO VENCIMENTO.                                                                                                                                                                                                         01091900000000000000109190000000000000       0090770900066125902067091910000072
100000000000000000000009077090006612500000000000000000000000010002100029150709191900000000002            2  01291507091910091900000003376140000000001N010919000000000000000000000000000000000000000000000000000000000000000100029150742833ANA DEISE SANTOS DE ALMEIDA             RUA MONTE CASTELO - 296 AP.121 - AVIACAO            11702720                                                            000074
2SR. CAIXA, APOS O VENCIMENTO COBRAR 10% DE MULTA                                NAO RECEBER APOS 30 DIAS DO VENCIMENTO.                                                                                                                                                                                                         01091900000000000000109190000000000000       0090770900066125291507091919000075
100000000000000000000009077090006612500000000000000000000000010002100000811709191400000000002            2  01008117091910091900000002780880000000001N010919000000000000000000000000000000000000000000000000000000000000000100000811752801SERGIO BUENO DA SILVA                   RUA MONTE CASTELO - 262 AP.75 - AVIACAO             11702720                                                            000077
2SR. CAIXA, APOS O VENCIMENTO COBRAR 10% DE MULTA                                NAO RECEBER APOS 30 DIAS DO VENCIMENTO.                                                                                                                                                                                                         01091900000000000000109190000000000000       0090770900066125008117091914000078
100000000000000000000009077090006612500000000000000000000000010002100018344809191000000000002            2  01183448091910091900000003535080000000001N010919000000000000000000000000000000000000000000000000000000000000000100018344803888MARCELO BERNARDO                        RUA MONTE CASTELO - 262 AP.84 - AVIACAO             11702720                                                            000080
2SR. CAIXA, APOS O VENCIMENTO COBRAR 10% DE MULTA                                NAO RECEBER APOS 30 DIAS DO VENCIMENTO.                                                                                                                                                                                                         01091900000000000000109190000000000000       0090770900066125183448091910000081
100000000000000000000009077090006612500000000000000000000000010002100004004309191800000000002            2  01040043091910091900000004956080000000001N010919000000000000000000000000000000000000000000000000000000000000000100004004328896VANDERLEI  MARTINS DE ALMEIDA           RUA MONSENHOR TABOSA - 03 - PARQUE CISPE            03819300                                                            000083
2SR. CAIXA, APOS O VENCIMENTO COBRAR 10% DE MULTA                                NAO RECEBER APOS 30 DIAS DO VENCIMENTO.                                                                                                                                                                                                         01091900000000000000109190000000000000       0090770900066125040043091918000084
100000000000000000000009077090006612500000000000000000000000010002100016339409191900000000002            2  01163394091910091900000002990180000000001N010919000000000000000000000000000000000000000000000000000000000000000100016339432832ALEX MONTEIRO DA SILVA                  RUA IVA MOURA LIMA - 04 - JARDIM MIRNA I            04855540                                                            000086
2SR. CAIXA, APOS O VENCIMENTO COBRAR 10% DE MULTA                                NAO RECEBER APOS 30 DIAS DO VENCIMENTO.                                                                                                                                                                                                         01091900000000000000109190000000000000       0090770900066125163394091919000087
100000000000000000000009077090006612500000000000000000000000010002100031803809191600000000002            2  01318038091910091900000003053580000000001N010919000000000000000000000000000000000000000000000000000000000000000100031803864877ELEILSON FELIPPE SANTOS                 RUA SANTA GREGORIA - 193 - CIDADE DUTRA             04806030                                                            000089
2SR. CAIXA, APOS O VENCIMENTO COBRAR 10% DE MULTA                                NAO RECEBER APOS 30 DIAS DO VENCIMENTO.                                                                                                                                                                                                         01091900000000000000109190000000000000       0090770900066125318038091916000090
100000000000000000000009077090006612500000000000000000000000010002100026032609191400000000002            2  01260326091910091900000002101360000000001N010919000000000000000000000000000000000000000000000000000000000000000100026032632857MARILA LOPES PEREIRA                    AVENIDA LUIZ GISHOKEM - 1761 AP.13 BL.05            05831315                                                            000092
2SR. CAIXA, APOS O VENCIMENTO COBRAR 10% DE MULTA                                NAO RECEBER APOS 30 DIAS DO VENCIMENTO.                                                                                                                                                                                                         01091900000000000000109190000000000000       0090770900066125260326091914000093
100000000000000000000009077090006612500000000000000000000000010002100063064509191000000000002            2  01630645091910091900000003638890000000001N010919000000000000000000000000000000000000000000000000000000000000000100063064537849ANTONIO APARECIDO DA SILVA DESTEFANO    RUA PROFESSOR TEODORO BRAGA - 46 - VILA             02966020                                                            000095
2SR. CAIXA, APOS O VENCIMENTO COBRAR 10% DE MULTA                                NAO RECEBER APOS 30 DIAS DO VENCIMENTO.                                                                                                                                                                                                         01091900000000000000109190000000000000       0090770900066125630645091910000096
100000000000000000000009077090006612500000000000000000000000010002100010107709191600000000002            2  01101077091910091900000003487140000000001N010919000000000000000000000000000000000000000000000000000000000000000100010107711834VALDEMAR FECCHIO                        RUA DEPUTADO EMILIO CARLOS - 355 AP.21-B            06028010                                                            000098
2SR. CAIXA, APOS O VENCIMENTO COBRAR 10% DE MULTA                                NAO RECEBER APOS 30 DIAS DO VENCIMENTO.                                                                                                                                                                                                         01091900000000000000109190000000000000       0090770900066125101077091916000099
100000000000000000000009077090006612500000000000000000000000010002100003330709191500000000002            2  01033307091910091900000004486020000000001N010919000000000000000000000000000000000000000000000000000000000000000100003330791837MARLI DA SILVA BARBOSA                  RUA GLICERIO CERQUEIRA LEITE - 151 - JAR            03675040                                                            000101
2SR. CAIXA, APOS O VENCIMENTO COBRAR 10% DE MULTA                                NAO RECEBER APOS 30 DIAS DO VENCIMENTO.                                                                                                                                                                                                         01091900000000000000109190000000000000       0090770900066125033307091915000102
100000000000000000000009077090006612500000000000000000000000010002100008931009191300000000002            2  01089310091910091900000001823500000000001N010919000000000000000000000000000000000000000000000000000000000000000100008931031874BENEVENUTO THEODORO DA SILVA NETO       RUA MONTE CASTELO - 296 AP.63 - AVIACAO             11702720                                                            000104
2SR. CAIXA, APOS O VENCIMENTO COBRAR 10% DE MULTA                                NAO RECEBER APOS 30 DIAS DO VENCIMENTO.                                                                                                                                                                                                         01091900000000000000109190000000000000       0090770900066125089310091913000105
100000000000000000000009077090006612500000000000000000000000010002100005920509191P00000000002            2  01059205091910091900000002118590000000001N010919000000000000000000000000000000000000000000000000000000000000000100005920579846SONIA MARIA VALDO POLLO                 RUA PALMIRA CERVI BARBARO - 797 - CIDADE            13214370                                                            000107
2SR. CAIXA, APOS O VENCIMENTO COBRAR 10% DE MULTA                                NAO RECEBER APOS 30 DIAS DO VENCIMENTO.                                                                                                                                                                                                         01091900000000000000109190000000000000       009077090006612505920509191P000108
100000000000000000000009077090006612500000000000000000000000010002100002494109191000000000002            2  01024941091910091900000003185370000000001N010919000000000000000000000000000000000000000000000000000000000000000100002494107881CIRO FRANCISCO MARCHI DURIGON           RUA MONTE CASTELO - 262 AP.115 - AVIACAO            11702720                                                            000110
2SR. CAIXA, APOS O VENCIMENTO COBRAR 10% DE MULTA                                NAO RECEBER APOS 30 DIAS DO VENCIMENTO.                                                                                                                                                                                                         01091900000000000000109190000000000000       0090770900066125024941091910000111
100000000000000000000009077090006612500000000000000000000000010002100007002309191800000000002            2  01070023091910091900000003131390000000001N010919000000000000000000000000000000000000000000000000000000000000000100007002345869DOMINGOS DE BRITO GALVAO                RUA MONTE CASTELO - 262 AP.44 - AVIACAO             11702720                                                            000113
2SR. CAIXA, APOS O VENCIMENTO COBRAR 10% DE MULTA                                NAO RECEBER APOS 30 DIAS DO VENCIMENTO.                                                                                                                                                                                                         01091900000000000000109190000000000000       0090770900066125070023091918000114
100000000000000000000009077090006612500000000000000000000000010002100009346809191800000000002            2  01093468091910091900000001304390000000001N010919000000000000000000000000000000000000000000000000000000000000000100009346863862NELSON DE SOUZA SANTOS                  RUA PRIMEIRA CRUZ - 90 - PARQUE INDEPEND            03236060                                                            000116
2SR. CAIXA, APOS O VENCIMENTO COBRAR 10% DE MULTA                                NAO RECEBER APOS 30 DIAS DO VENCIMENTO.                                                                                                                                                                                                         01091900000000000000109190000000000000       0090770900066125093468091918000117
100000000000000000000009077090006612500000000000000000000000010002100016299009191100000000002            2  01162990091910091900000003018670000000001N010919000000000000000000000000000000000000000000000000000000000000000100016299008857FERNANDO CESAR CARVALHO                 AVENIDA MARCONDES DE BRITO - 1340 AP.74             03509000                                                            000119
2SR. CAIXA, APOS O VENCIMENTO COBRAR 10% DE MULTA                                NAO RECEBER APOS 30 DIAS DO VENCIMENTO.                                                                                                                                                                                                         01091900000000000000109190000000000000       0090770900066125162990091911000120
100000000000000000000009077090006612500000000000000000000000010002100031082809191500000000002            2  01310828091910091900000003033290000000001N010919000000000000000000000000000000000000000000000000000000000000000100031082898880VANESSA DOS SANTOS NEIVA                RUA MONTE CASTELO - 296 AP.33 - BAIRRO A            11702720                                                            000122
2SR. CAIXA, APOS O VENCIMENTO COBRAR 10% DE MULTA                                NAO RECEBER APOS 30 DIAS DO VENCIMENTO.                                                                                                                                                                                                         01091900000000000000109190000000000000       0090770900066125310828091915000123
100000000000000000000009077090006612500000000000000000000000010002100065895309191500000000002            2  01658953091910091900000001846840000000001N010919000000000000000000000000000000000000000000000000000000000000000100065895304834MARINHO BARBOSA CUNHA                   AVENIDA EDU CHAVES - 639 AP.43 - PARQUE             02229000                                                            000125
2SR. CAIXA, APOS O VENCIMENTO COBRAR 10% DE MULTA                                NAO RECEBER APOS 30 DIAS DO VENCIMENTO.                                                                                                                                                                                                         01091900000000000000109190000000000000       0090770900066125658953091915000126
9                                                                                                                                                                                                                                                                                                                                                                                                         000127