01REMESSA01COBRANCA       00000000000005623874H B SANTOS CONSTRUTORA E INCOR237BRADESCO       010124        MX0000006                                                                                                                                                                                                                                                                                     000001
100000000000000000000009033990001086300000000000000000000000010002100087902701241200000000002            2  01879027012410012400000003392070000000001N010124000000000000000000000000000000000000000000000000000000000000000100087902737887WAGNER CERQUEIRA VILA NOVA              RUA JOAQUIM FERREIRA - 124 AP.211 T.01 -            05033080                                                            000002
2SR. CAIXA, APOS O VENCIMENTO COBRAR 10% DE MULTA                                NAO RECEBER APOS 30 DIAS DO VENCIMENTO.                                                                                                                                                                                                         01012400000000000000101240000000000000       0090339900010863879027012412000003
100000000000000000000009033990001086300000000000000000000000010002100015095601241900000000002            2  01150956012410012400000003152380000000001N010124000000000000000000000000000000000000000000000000000000000000000100015095698803MARCOS CESAR SOUZA SENA                 RUA SALVADOR PELUSO BASILE - 381 - JARDI            06755010                                                            000005
2SR. CAIXA, APOS O VENCIMENTO COBRAR 10% DE MULTA                                NAO RECEBER APOS 30 DIAS DO VENCIMENTO.                                                                                                                                                                                                         01012400000000000000101240000000000000       0090339900010863150956012419000006
100000000000000000000009033990001086300000000000000000000000010002100011947901241500000000002            2  01119479012410012400000051524090000000001N010124000000000000000000000000000000000000000000000000000000000000000100011947951882DECIO VITORINO DOS SANTOS               RUA GREGORIA DE FREGEL - 380 AP.21 BL24             09811430                                                            000008
2SR. CAIXA, APOS O VENCIMENTO COBRAR 10% DE MULTA                                NAO RECEBER APOS 30 DIAS DO VENCIMENTO.                                                                                                                                                                                                         01012400000000000000101240000000000000       0090339900010863119479012415000009
100000000000000000000009033990001086300000000000000000000000010002100011947901242300000000002            2  01119479012410012400000003090050000000001N010124000000000000000000000000000000000000000000000000000000000000000100011947951882DECIO VITORINO DOS SANTOS               RUA GREGORIA DE FREGEL - 380 AP.21 BL24             09811430                                                            000011
2SR. CAIXA, APOS O VENCIMENTO COBRAR 10% DE MULTA                                NAO RECEBER APOS 30 DIAS DO VENCIMENTO.                                                                                                                                                                                                         01012400000000000000101240000000000000       0090339900010863119479012423000012
100000000000000000000009033990001086300000000000000000000000010002100000181201241900000000002            2  01001812012410012400000002778670000000001N010124000000000000000000000000000000000000000000000000000000000000000100000181223023DARLIN SANTA CATARINA                   RUA S-13 QUADRA 60 LR 08 - 750 - SETOR S            77425090                                                            000014
2SR. CAIXA, APOS O VENCIMENTO COBRAR 10% DE MULTA                                NAO RECEBER APOS 30 DIAS DO VENCIMENTO.                                                                                                                                                                                                         01012400000000000000101240000000000000       0090339900010863001812012419000015
100000000000000000000009033990001086300000000000000000000000010002100034311701241400000000002            2  01343117012410012400000003241840000000001N010124000000000000000000000000000000000000000000000000000000000000000100034311774842RAFAEL MARCOS SOUSA                     RUA AGUA BRANCA - 270 - JARDIM RUY BARBO            13219120                                                            000017
2SR. CAIXA, APOS O VENCIMENTO COBRAR 10% DE MULTA                                NAO RECEBER APOS 30 DIAS DO VENCIMENTO.                                                                                                                                                                                                         01012400000000000000101240000000000000       0090339900010863343117012414000018
100000000000000000000009033990001086300000000000000000000000010002100035839601241800000000002            2  01358396012410012400000003226690000000001N010124000000000000000000000000000000000000000000000000000000000000000100035839657875JUNIOR SILVA TEODORO DOS SANTOS         RUA ARMANDO DE SALLES OLIVEIRA - 123 AP.            11510020                                                            000020
2SR. CAIXA, APOS O VENCIMENTO COBRAR 10% DE MULTA                                NAO RECEBER APOS 30 DIAS DO VENCIMENTO.                                                                                                                                                                                                         01012400000000000000101240000000000000       0090339900010863358396012418000021
100000000000000000000009033990001086300000000000000000000000010002100094315401241300000000002            2  01943154012410012400000003254300000000001N010124000000000000000000000000000000000000000000000000000000000000000100094315493872HUGO LUIS ALEJANDRO GUIMERANS           RUA GUARANIS - 448 AP87 - VILA TUPI - PR            11703080                                                            000023
2SR. CAIXA, APOS O VENCIMENTO COBRAR 10% DE MULTA                                NAO RECEBER APOS 30 DIAS DO VENCIMENTO.                                                                                                                                                                                                         01012400000000000000101240000000000000       0090339900010863943154012413000024
100000000000000000000009033990001086300000000000000000000000010002100030898201241100000000002            2  01308982012410012400000002943990000000001N010124000000000000000000000000000000000000000000000000000000000000000100030898241839LUIZ DANIEL CANNITO                     RUA FOZ DO DOURO - 195 CASA 01 - JARDIM             03924080                                                            000026
2SR. CAIXA, APOS O VENCIMENTO COBRAR 10% DE MULTA                                NAO RECEBER APOS 30 DIAS DO VENCIMENTO.                                                                                                                                                                                                         01012400000000000000101240000000000000       0090339900010863308982012411000027
100000000000000000000009033990001086300000000000000000000000010002100013387201241100000000002            2  01133872012410012400000003142230000000001N010124000000000000000000000000000000000000000000000000000000000000000100013387212836CARLOS MARTINS DOS SANTOS               RUA CASTRO ALVES - 17 AP.21 - BAIRRO EMB            11040191                                                            000029
2SR. CAIXA, APOS O VENCIMENTO COBRAR 10% DE MULTA                                NAO RECEBER APOS 30 DIAS DO VENCIMENTO.                                                                                                                                                                                                         01012400000000000000101240000000000000       0090339900010863133872012411000030
100000000000000000000009033990001086300000000000000000000000010002100001803101241300000000002            2  01018031012410012400000002867640000000001N010124000000000000000000000000000000000000000000000000000000000000000100001803106824MAGNA FLORA CALIS                       RUA DOS EXPEDICIONARIOS - 59 AP.13 - CAN            11700750                                                            000032
2SR. CAIXA, APOS O VENCIMENTO COBRAR 10% DE MULTA                                NAO RECEBER APOS 30 DIAS DO VENCIMENTO.                                                                                                                                                                                                         01012400000000000000101240000000000000       0090339900010863018031012413000033
100000000000000000000009033990001086300000000000000000000000010002100026327301241200000000002            2  01263273012410012400000003079640000000001N010124000000000000000000000000000000000000000000000000000000000000000100026327304818GEANICE BARBOSA DA SILVA                RUA FLAMENGO - 77 - VILA GUILHERMINA - P            11701540                                                            000035
2SR. CAIXA, APOS O VENCIMENTO COBRAR 10% DE MULTA                                NAO RECEBER APOS 30 DIAS DO VENCIMENTO.                                                                                                                                                                                                         01012400000000000000101240000000000000       0090339900010863263273012412000036
100000000000000000000009033990001086300000000000000000000000010002100008732201241200000000002            2  01087322012410012400000002785800000000001N010124000000000000000000000000000000000000000000000000000000000000000100008732244851JOSENILTON SOUSA DE OLIVEIRA            RUA GENERAL ISIDORO DIAS LOPES - 456 - B            08561410                                                            000038
2SR. CAIXA, APOS O VENCIMENTO COBRAR 10% DE MULTA                                NAO RECEBER APOS 30 DIAS DO VENCIMENTO.                                                                                                                                                                                                         01012400000000000000101240000000000000       0090339900010863087322012412000039
9                                                                                                                                                                                                                                                                                                                                                                                                         000040