01REMESSA01COBRANCA       00000000000004991781AIRES CONSTRUTORA E INCORPORAD237BRADESCO       010718        MX0000107                                                                                                                                                                                                                                                                                     000001
100000000000000000000009077090006612500000000000000000000000010002100094852207181800000000002            2  01948522071810071800000002213990000000001N010718000000000000000000000000000000000000000000000000000000000000000100094852294887GISELDA MENON                           RUA OTAVIO BARRETO - 105 - VILA SANTISTA            02560080                                                            000002
2SR. CAIXA, APOS O VENCIMENTO COBRAR 10% DE MULTA                                NAO RECEBER APOS 30 DIAS DO VENCIMENTO.                                                                                                                                                                                                         01071800000000000000107180000000000000       0090770900066125948522071818000003
100000000000000000000009077090006612500000000000000000000000010002100006485907181400000000002            2  01064859071810071800000003395550000000001N010718000000000000000000000000000000000000000000000000000000000000000100006485911820CELIO MANUEL  MELIM SANTO               RUA JUVENAL FERREIRA  - 85 AP.61 - VILA             03512040                                                            000005
2SR. CAIXA, APOS O VENCIMENTO COBRAR 10% DE MULTA                                NAO RECEBER APOS 30 DIAS DO VENCIMENTO.                                                                                                                                                                                                         01071800000000000000107180000000000000       0090770900066125064859071814000006
100000000000000000000009077090006612500000000000000000000000010002100004693807181300000000002            2  01046938071810071800000002959470000000001N010718000000000000000000000000000000000000000000000000000000000000000100004693857823NIVALDO BARTOLOMEU FERREIRA             MNS JOSE MARINONI  - 33 - SANTO AMARO -             04430350                                                            000008
2SR. CAIXA, APOS O VENCIMENTO COBRAR 10% DE MULTA                                NAO RECEBER APOS 30 DIAS DO VENCIMENTO.                                                                                                                                                                                                         01071800000000000000107180000000000000       0090770900066125046938071813000009
100000000000000000000009077090006612500000000000000000000000010002100027993107181200000000002            2  01279931071810071800000002818080000000001N010718000000000000000000000000000000000000000000000000000000000000000100027993108853DALVA JESUS RODRIGUES CABRAL            RUA CRISTOVAO COLOMBO GONCALVES - 97 - C            04811050                                                            000011
2SR. CAIXA, APOS O VENCIMENTO COBRAR 10% DE MULTA                                NAO RECEBER APOS 30 DIAS DO VENCIMENTO.                                                                                                                                                                                                         01071800000000000000107180000000000000       0090770900066125279931071812000012
100000000000000000000009077090006612500000000000000000000000010002100000455407181100000000002            2  01004554071810071800000002927330000000001N010718000000000000000000000000000000000000000000000000000000000000000100000455495831PAULO HENRIQUE LOURENCO                 RUA FIGUEIRA  - 237 - CIDADE DAS FLORES             06184060                                                            000014
2SR. CAIXA, APOS O VENCIMENTO COBRAR 10% DE MULTA                                NAO RECEBER APOS 30 DIAS DO VENCIMENTO.                                                                                                                                                                                                         01071800000000000000107180000000000000       0090770900066125004554071811000015
100000000000000000000009077090006612500000000000000000000000010002100006140007181200000000002            2  01061400071810071800000003630300000000001N010718000000000000000000000000000000000000000000000000000000000000000100006140049857MARIA ALBANI DA SILVA EUSEBIO           RUA ORLANDO SEGALA - 108 - JARDIM ADRIAN            07135190                                                            000017
2SR. CAIXA, APOS O VENCIMENTO COBRAR 10% DE MULTA                                NAO RECEBER APOS 30 DIAS DO VENCIMENTO.                                                                                                                                                                                                         01071800000000000000107180000000000000       0090770900066125061400071812000018
100000000000000000000009077090006612500000000000000000000000010002100002324707181700000000002            2  01023247071810071800000003559910000000001N010718000000000000000000000000000000000000000000000000000000000000000100002324785897IZILDA NAPOLI                           RUA MONTE CASTELO - 295 AP.71 - AVIACAO             11702720                                                            000020
2SR. CAIXA, APOS O VENCIMENTO COBRAR 10% DE MULTA                                NAO RECEBER APOS 30 DIAS DO VENCIMENTO.                                                                                                                                                                                                         01071800000000000000107180000000000000       0090770900066125023247071817000021
100000000000000000000009077090006612500000000000000000000000010002100007768707181100000000002            2  01077687071810071800000003687780000000001N010718000000000000000000000000000000000000000000000000000000000000000100007768713826FATIMA LUZIA BIANCHI                    DR. OLIDAIR AMBROSIO - 1487 AP.03 - CENT            14160170                                                            000023
2SR. CAIXA, APOS O VENCIMENTO COBRAR 10% DE MULTA                                NAO RECEBER APOS 30 DIAS DO VENCIMENTO.                                                                                                                                                                                                         01071800000000000000107180000000000000       0090770900066125077687071811000024
100000000000000000000009077090006612500000000000000000000000010002100021716807181900000000002            2  01217168071810071800000003633020000000001N010718000000000000000000000000000000000000000000000000000000000000000100021716847800DANIELLE FAGUNDES DE A.MATOS            CONDE MOREIRA LIMA - 644 - JARDIM JABAQU            04384032                                                            000026
2SR. CAIXA, APOS O VENCIMENTO COBRAR 10% DE MULTA                                NAO RECEBER APOS 30 DIAS DO VENCIMENTO.                                                                                                                                                                                                         01071800000000000000107180000000000000       0090770900066125217168071819000027
100000000000000000000009077090006612500000000000000000000000010002100085416907181200000000002            2  01854169071810071800000003079760000000001N010718000000000000000000000000000000000000000000000000000000000000000100085416940891ANTONIO DE SOUSA MENDES                 RUA MONTE CASTELO - 296 AP.52 - AVIACAO             11702720                                                            000029
2SR. CAIXA, APOS O VENCIMENTO COBRAR 10% DE MULTA                                NAO RECEBER APOS 30 DIAS DO VENCIMENTO.                                                                                                                                                                                                         01071800000000000000107180000000000000       0090770900066125854169071812000030
100000000000000000000009077090006612500000000000000000000000010002100005678007181600000000002            2  01056780071810071800000003207530000000001N010718000000000000000000000000000000000000000000000000000000000000000100005678057863FABIO MOREIRA CAMPOS                    RUA FLORENCIO DA SILVA - 284 - VILA LIBA            03738070                                                            000032
2SR. CAIXA, APOS O VENCIMENTO COBRAR 10% DE MULTA                                NAO RECEBER APOS 30 DIAS DO VENCIMENTO.                                                                                                                                                                                                         01071800000000000000107180000000000000       0090770900066125056780071816000033
100000000000000000000009077090006612500000000000000000000000010002100007784407181200000000002            2  01077844071810071800000003238850000000001N010718000000000000000000000000000000000000000000000000000000000000000100007784496885GUILHERME LEONARDO DO NASCIMENTO        COMENDADOR RUBENS RONCARE - 127 - PONTE             11530120                                                            000035
2SR. CAIXA, APOS O VENCIMENTO COBRAR 10% DE MULTA                                NAO RECEBER APOS 30 DIAS DO VENCIMENTO.                                                                                                                                                                                                         01071800000000000000107180000000000000       0090770900066125077844071812000036
100000000000000000000009077090006612500000000000000000000000010002100016348207181200000000002            2  01163482071810071800000003129190000000001N010718000000000000000000000000000000000000000000000000000000000000000100016348237885AILTON LORENA                           AVENIDA BRASILIA - 194 - BELA VISTA - SA            09180260                                                            000038
2SR. CAIXA, APOS O VENCIMENTO COBRAR 10% DE MULTA                                NAO RECEBER APOS 30 DIAS DO VENCIMENTO.                                                                                                                                                                                                         01071800000000000000107180000000000000       0090770900066125163482071812000039
100000000000000000000009077090006612500000000000000000000000010002100081218407181600000000002            2  01812184071810071800000003020060000000001N010718000000000000000000000000000000000000000000000000000000000000000100081218486953OSMAR DA COSTA                          RUA MONTE CASTELO - 295 AP.33 - AVIACAO             11702720                                                            000041
2SR. CAIXA, APOS O VENCIMENTO COBRAR 10% DE MULTA                                NAO RECEBER APOS 30 DIAS DO VENCIMENTO.                                                                                                                                                                                                         01071800000000000000107180000000000000       0090770900066125812184071816000042
100000000000000000000009077090006612500000000000000000000000010002100004981807181900000000002            2  01049818071810071800000003430230000000001N010718000000000000000000000000000000000000000000000000000000000000000100004981884850SILVIO PAULINO GONCALVES                MARIA DE CASTRO MESQUITA - 84 AP.103 BLO            07110040                                                            000044
2SR. CAIXA, APOS O VENCIMENTO COBRAR 10% DE MULTA                                NAO RECEBER APOS 30 DIAS DO VENCIMENTO.                                                                                                                                                                                                         01071800000000000000107180000000000000       0090770900066125049818071819000045
100000000000000000000009077090006612500000000000000000000000010002100019282507181300000000002            2  01192825071810071800000002251610000000001N010718000000000000000000000000000000000000000000000000000000000000000100019282546837FABIO LEANDRO DE FREITAS ASSIS          RUA BASSIM NAGIB TRABULSI - 97 - PONTA D            11030540                                                            000047
2SR. CAIXA, APOS O VENCIMENTO COBRAR 10% DE MULTA                                NAO RECEBER APOS 30 DIAS DO VENCIMENTO.                                                                                                                                                                                                         01071800000000000000107180000000000000       0090770900066125192825071813000048
100000000000000000000009077090006612500000000000000000000000010002100008423407181700000000002            2  01084234071810071800000003129120000000001N010718000000000000000000000000000000000000000000000000000000000000000100008423485811EDSON LUIZ NUNES                        RUA NOEMIA PEDROSO BUENO - 41 - JARDIM G            09360440                                                            000050
2SR. CAIXA, APOS O VENCIMENTO COBRAR 10% DE MULTA                                NAO RECEBER APOS 30 DIAS DO VENCIMENTO.                                                                                                                                                                                                         01071800000000000000107180000000000000       0090770900066125084234071817000051
100000000000000000000009077090006612500000000000000000000000010002100003010507181600000000002            2  01030105071810071800000003620790000000001N010718000000000000000000000000000000000000000000000000000000000000000100003010502877GIZELA VIEIRA BARROS                    RUA GIACOMO DALCIN - 157 - MAUA - SAO CA            09580350                                                            000053
2SR. CAIXA, APOS O VENCIMENTO COBRAR 10% DE MULTA                                NAO RECEBER APOS 30 DIAS DO VENCIMENTO.                                                                                                                                                                                                         01071800000000000000107180000000000000       0090770900066125030105071816000054
100000000000000000000009077090006612500000000000000000000000010002100012111007181100000000002            2  01121110071810071800000002948300000000001N010718000000000000000000000000000000000000000000000000000000000000000100012111060801CLAUDIA CRISTINA CRELIS COSTA           RUA RUI BARBOSA - 1736 AP.1533 - VILA SA            19015001                                                            000056
2SR. CAIXA, APOS O VENCIMENTO COBRAR 10% DE MULTA                                NAO RECEBER APOS 30 DIAS DO VENCIMENTO.                                                                                                                                                                                                         01071800000000000000107180000000000000       0090770900066125121110071811000057
100000000000000000000009077090006612500000000000000000000000010002100009777207181300000000002            2  01097772071810071800000002838840000000001N010718000000000000000000000000000000000000000000000000000000000000000100009777281889CARLITA DE FIGUEIREDO CARVALHO          AVENIDA ALBERTO DE ALMEIDA VINHAS - 4462            11701350                                                            000059
2SR. CAIXA, APOS O VENCIMENTO COBRAR 10% DE MULTA                                NAO RECEBER APOS 30 DIAS DO VENCIMENTO.                                                                                                                                                                                                         01071800000000000000107180000000000000       0090770900066125097772071813000060
100000000000000000000009077090006612500000000000000000000000010002100004213007181000000000002            2  01042130071810071800000003371360000000001N010718000000000000000000000000000000000000000000000000000000000000000100004213020894ELIETE DRUGOVICH DE LIMA                RUA OSVALDO CRUZ - 141 AP.144-B - SANTA             09541270                                                            000062
2SR. CAIXA, APOS O VENCIMENTO COBRAR 10% DE MULTA                                NAO RECEBER APOS 30 DIAS DO VENCIMENTO.                                                                                                                                                                                                         01071800000000000000107180000000000000       0090770900066125042130071810000063
100000000000000000000009077090006612500000000000000000000000010002100085839807181300000000002            2  01858398071810071800000002573110000000001N010718000000000000000000000000000000000000000000000000000000000000000100085839817872MAURO CORREIA MARTINS                   RUA PROFESSOR JOSE AZEVEDO MINHOTO - 72             06114000                                                            000065
2SR. CAIXA, APOS O VENCIMENTO COBRAR 10% DE MULTA                                NAO RECEBER APOS 30 DIAS DO VENCIMENTO.                                                                                                                                                                                                         01071800000000000000107180000000000000       0090770900066125858398071813000066
100000000000000000000009077090006612500000000000000000000000010002100043122807181500000000002            2  01431228071810071800000002297910000000001N010718000000000000000000000000000000000000000000000000000000000000000100043122850800ANTONIO JOAQUIM GOES                    ANTONIO DOAS DA SILVA - 412 - VILA AMALI            02618110                                                            000068
2SR. CAIXA, APOS O VENCIMENTO COBRAR 10% DE MULTA                                NAO RECEBER APOS 30 DIAS DO VENCIMENTO.                                                                                                                                                                                                         01071800000000000000107180000000000000       0090770900066125431228071815000069
100000000000000000000009077090006612500000000000000000000000010002100003865707181100000000002            2  01038657071810071800000003016990000000001N010718000000000000000000000000000000000000000000000000000000000000000100003865776841FRANCISCO JOSE ROCCO                    RUA FABIO JOSE BEZERRA - 130 AP.86 - PAR            03805000                                                            000071
2SR. CAIXA, APOS O VENCIMENTO COBRAR 10% DE MULTA                                NAO RECEBER APOS 30 DIAS DO VENCIMENTO.                                                                                                                                                                                                         01071800000000000000107180000000000000       0090770900066125038657071811000072
100000000000000000000009077090006612500000000000000000000000010002100028309507181800000000002            2  01283095071810071800000002690470000000001N010718000000000000000000000000000000000000000000000000000000000000000100028309524803DEISE RIBEIRO BARBOSA                   RUA CANDIDO JOSE DE ANDRADE - 173 - ERME            03807030                                                            000074
2SR. CAIXA, APOS O VENCIMENTO COBRAR 10% DE MULTA                                NAO RECEBER APOS 30 DIAS DO VENCIMENTO.                                                                                                                                                                                                         01071800000000000000107180000000000000       0090770900066125283095071818000075
100000000000000000000009077090006612500000000000000000000000010002100011277907181800000000002            2  01112779071810071800000003193270000000001N010718000000000000000000000000000000000000000000000000000000000000000100011277908893JOSE AILTON LOPES DE AZEVEDO            RUA MAESTRO JOAO SEPE - 19 - JARDIM MARI            04181030                                                            000077
2SR. CAIXA, APOS O VENCIMENTO COBRAR 10% DE MULTA                                NAO RECEBER APOS 30 DIAS DO VENCIMENTO.                                                                                                                                                                                                         01071800000000000000107180000000000000       0090770900066125112779071818000078
100000000000000000000009077090006612500000000000000000000000010002100025215107181500000000002            2  01252151071810071800000002408140000000001N010718000000000000000000000000000000000000000000000000000000000000000100025215106886KLEBER LUIZ DOS SANTOS                  RUA MONTE CASTELO - 262 AP.15 - AVIACAO             11702720                                                            000080
2SR. CAIXA, APOS O VENCIMENTO COBRAR 10% DE MULTA                                NAO RECEBER APOS 30 DIAS DO VENCIMENTO.                                                                                                                                                                                                         01071800000000000000107180000000000000       0090770900066125252151071815000081
100000000000000000000009077090006612500000000000000000000000010002100090206707181200000000002            2  01902067071810071800000002689780000000001N010718000000000000000000000000000000000000000000000000000000000000000100090206789815NEREIDE RODRIGUES FERREIRA              AVENIDA PADRE ESTANISLAU DE CAMPOS - 205            03590060                                                            000083
2SR. CAIXA, APOS O VENCIMENTO COBRAR 10% DE MULTA                                NAO RECEBER APOS 30 DIAS DO VENCIMENTO.                                                                                                                                                                                                         01071800000000000000107180000000000000       0090770900066125902067071812000084
100000000000000000000009077090006612500000000000000000000000010002100029150707181000000000002            2  01291507071810071800000003148450000000001N010718000000000000000000000000000000000000000000000000000000000000000100029150742833ANA DEISE SANTOS DE ALMEIDA             RUA MONTE CASTELO - 296 AP.121 - AVIACAO            11702720                                                            000086
2SR. CAIXA, APOS O VENCIMENTO COBRAR 10% DE MULTA                                NAO RECEBER APOS 30 DIAS DO VENCIMENTO.                                                                                                                                                                                                         01071800000000000000107180000000000000       0090770900066125291507071810000087
100000000000000000000009077090006612500000000000000000000000010002100000811707181600000000002            2  01008117071810071800000002593320000000001N010718000000000000000000000000000000000000000000000000000000000000000100000811752801SERGIO BUENO DA SILVA                   RUA MONTE CASTELO - 262 AP.75 - AVIACAO             11702720                                                            000089
2SR. CAIXA, APOS O VENCIMENTO COBRAR 10% DE MULTA                                NAO RECEBER APOS 30 DIAS DO VENCIMENTO.                                                                                                                                                                                                         01071800000000000000107180000000000000       0090770900066125008117071816000090
100000000000000000000009077090006612500000000000000000000000010002100018344807181200000000002            2  01183448071810071800000003296660000000001N010718000000000000000000000000000000000000000000000000000000000000000100018344803888MARCELO BERNARDO                        RUA ESTONIA - 06 - INTERLAGOS - SAO PAUL            04785140                                                            000092
2SR. CAIXA, APOS O VENCIMENTO COBRAR 10% DE MULTA                                NAO RECEBER APOS 30 DIAS DO VENCIMENTO.                                                                                                                                                                                                         01071800000000000000107180000000000000       0090770900066125183448071812000093
100000000000000000000009077090006612500000000000000000000000010002100004004307181P00000000002            2  01040043071810071800000004621840000000001N010718000000000000000000000000000000000000000000000000000000000000000100004004328896VANDERLEI  MARTINS DE ALMEIDA           RUA MONSENHOR TABOSA - 03 - PARQUE CISPE            03819300                                                            000095
2SR. CAIXA, APOS O VENCIMENTO COBRAR 10% DE MULTA                                NAO RECEBER APOS 30 DIAS DO VENCIMENTO.                                                                                                                                                                                                         01071800000000000000107180000000000000       009077090006612504004307181P000096
100000000000000000000009077090006612500000000000000000000000010002100005133007181400000000002            2  01051330071810071800000003156870000000001N010718000000000000000000000000000000000000000000000000000000000000000100005133053860VICENTE ARCIPRETE JUNIOR                RUA JOSE SIMOES FERREIRA FILHO - 80 - JA            06040090                                                            000098
2SR. CAIXA, APOS O VENCIMENTO COBRAR 10% DE MULTA                                NAO RECEBER APOS 30 DIAS DO VENCIMENTO.                                                                                                                                                                                                         01071800000000000000107180000000000000       0090770900066125051330071814000099
100000000000000000000009077090006612500000000000000000000000010002100056660207181900000000002            2  01566602071810071800000000767830000000001N010718000000000000000000000000000000000000000000000000000000000000000100056660235868JOSE DA SILVA                           RUA MONTE CASTELO - 296 AP.32 - AVIACAO             11702720                                                            000101
2SR. CAIXA, APOS O VENCIMENTO COBRAR 10% DE MULTA                                NAO RECEBER APOS 30 DIAS DO VENCIMENTO.                                                                                                                                                                                                         01071800000000000000107180000000000000       0090770900066125566602071819000102
100000000000000000000009077090006612500000000000000000000000010002100016339407181000000000002            2  01163394071810071800000002788520000000001N010718000000000000000000000000000000000000000000000000000000000000000100016339432832ALEX MONTEIRO DA SILVA                  RUA IVA MOURA LIMA - 04 - JARDIM MIRNA I            04855540                                                            000104
2SR. CAIXA, APOS O VENCIMENTO COBRAR 10% DE MULTA                                NAO RECEBER APOS 30 DIAS DO VENCIMENTO.                                                                                                                                                                                                         01071800000000000000107180000000000000       0090770900066125163394071810000105
100000000000000000000009077090006612500000000000000000000000010002100031803807181800000000002            2  01318038071810071800000002847630000000001N010718000000000000000000000000000000000000000000000000000000000000000100031803864877ELEILSON FELIPPE SANTOS                 RUA SANTA GREGORIA - 193 - CIDADE DUTRA             04806030                                                            000107
2SR. CAIXA, APOS O VENCIMENTO COBRAR 10% DE MULTA                                NAO RECEBER APOS 30 DIAS DO VENCIMENTO.                                                                                                                                                                                                         01071800000000000000107180000000000000       0090770900066125318038071818000108
100000000000000000000009077090006612500000000000000000000000010002100026032607181600000000002            2  01260326071810071800000001959610000000001N010718000000000000000000000000000000000000000000000000000000000000000100026032632857MARILA LOPES PEREIRA                    AVENIDA LUIZ GISHOKEM - 1761 AP.13 BL.05            05831315                                                            000110
2SR. CAIXA, APOS O VENCIMENTO COBRAR 10% DE MULTA                                NAO RECEBER APOS 30 DIAS DO VENCIMENTO.                                                                                                                                                                                                         01071800000000000000107180000000000000       0090770900066125260326071816000111
100000000000000000000009077090006612500000000000000000000000010002100063064507181200000000002            2  01630645071810071800000003393470000000001N010718000000000000000000000000000000000000000000000000000000000000000100063064537849ANTONIO APARECIDO DA SILVA DESTEFANO    RUA PROFESSOR TEODORO BRAGA - 46 - VILA             02966020                                                            000113
2SR. CAIXA, APOS O VENCIMENTO COBRAR 10% DE MULTA                                NAO RECEBER APOS 30 DIAS DO VENCIMENTO.                                                                                                                                                                                                         01071800000000000000107180000000000000       0090770900066125630645071812000114
100000000000000000000009077090006612500000000000000000000000010002100010107707181800000000002            2  01101077071810071800000003251960000000001N010718000000000000000000000000000000000000000000000000000000000000000100010107711834VALDEMAR FECCHIO                        RUA DOUTOR MARTINS DE OLIVEIRA - 529 AP.            05638030                                                            000116
2SR. CAIXA, APOS O VENCIMENTO COBRAR 10% DE MULTA                                NAO RECEBER APOS 30 DIAS DO VENCIMENTO.                                                                                                                                                                                                         01071800000000000000107180000000000000       0090770900066125101077071818000117
100000000000000000000009077090006612500000000000000000000000010002100003330707181700000000002            2  01033307071810071800000004183450000000001N010718000000000000000000000000000000000000000000000000000000000000000100003330791837MARLI DA SILVA BARBOSA                  RUA GLICERIO CERQUEIRA LEITE - 151 - JAR            03675040                                                            000119
2SR. CAIXA, APOS O VENCIMENTO COBRAR 10% DE MULTA                                NAO RECEBER APOS 30 DIAS DO VENCIMENTO.                                                                                                                                                                                                         01071800000000000000107180000000000000       0090770900066125033307071817000120
100000000000000000000009077090006612500000000000000000000000010002100008931007181500000000002            2  01089310071810071800000001700520000000001N010718000000000000000000000000000000000000000000000000000000000000000100008931031874MARIA MARINHO DE OLIVEIRA               AVENIDA 9 DE JULHO - 1854 AP.81 - BELA V            01312001                                                            000122
2SR. CAIXA, APOS O VENCIMENTO COBRAR 10% DE MULTA                                NAO RECEBER APOS 30 DIAS DO VENCIMENTO.                                                                                                                                                                                                         01071800000000000000107180000000000000       0090770900066125089310071815000123
100000000000000000000009077090006612500000000000000000000000010002100005920507181100000000002            2  01059205071810071800000001975690000000001N010718000000000000000000000000000000000000000000000000000000000000000100005920579846SONIA MARIA VALDO POLLO                 RUA PALMIRA CERVI BARBARO - 797 - CIDADE            13214370                                                            000125
2SR. CAIXA, APOS O VENCIMENTO COBRAR 10% DE MULTA                                NAO RECEBER APOS 30 DIAS DO VENCIMENTO.                                                                                                                                                                                                         01071800000000000000107180000000000000       0090770900066125059205071811000126
100000000000000000000009077090006612500000000000000000000000010002100002494107181200000000002            2  01024941071810071800000002970540000000001N010718000000000000000000000000000000000000000000000000000000000000000100002494107881CIRO FRANCISCO MARCHI DURIGON           RUA MONTE CASTELO - 262 AP.115 - AVIACAO            11702720                                                            000128
2SR. CAIXA, APOS O VENCIMENTO COBRAR 10% DE MULTA                                NAO RECEBER APOS 30 DIAS DO VENCIMENTO.                                                                                                                                                                                                         01071800000000000000107180000000000000       0090770900066125024941071812000129
100000000000000000000009077090006612500000000000000000000000010002100007002307181P00000000002            2  01070023071810071800000002920200000000001N010718000000000000000000000000000000000000000000000000000000000000000100007002345869DOMINGOS DE BRITO GALVAO                RUA MONTE CASTELO - 262 AP.44 - AVIACAO             11702720                                                            000131
2SR. CAIXA, APOS O VENCIMENTO COBRAR 10% DE MULTA                                NAO RECEBER APOS 30 DIAS DO VENCIMENTO.                                                                                                                                                                                                         01071800000000000000107180000000000000       009077090006612507002307181P000132
100000000000000000000009077090006612500000000000000000000000010002100009346807181P00000000002            2  01093468071810071800000001216420000000001N010718000000000000000000000000000000000000000000000000000000000000000100009346863862NELSON DE SOUZA SANTOS                  RUA PRIMEIRA CRUZ - 90 - PARQUE INDEPEND            03236060                                                            000134
2SR. CAIXA, APOS O VENCIMENTO COBRAR 10% DE MULTA                                NAO RECEBER APOS 30 DIAS DO VENCIMENTO.                                                                                                                                                                                                         01071800000000000000107180000000000000       009077090006612509346807181P000135
100000000000000000000009077090006612500000000000000000000000010002100016299007181300000000002            2  01162990071810071800000002815060000000001N010718000000000000000000000000000000000000000000000000000000000000000100016299008857FERNANDO CESAR CARVALHO                 AVENIDA MARCONDES DE BRITO - 1340 AP.74             03509000                                                            000137
2SR. CAIXA, APOS O VENCIMENTO COBRAR 10% DE MULTA                                NAO RECEBER APOS 30 DIAS DO VENCIMENTO.                                                                                                                                                                                                         01071800000000000000107180000000000000       0090770900066125162990071813000138
100000000000000000000009077090006612500000000000000000000000010002100031082807181700000000002            2  01310828071810071800000002828710000000001N010718000000000000000000000000000000000000000000000000000000000000000100031082898880VANESSA DOS SANTOS NEIVA                RUA MONTE CASTELO - 296 AP.33 - BAIRRO A            11702720                                                            000140
2SR. CAIXA, APOS O VENCIMENTO COBRAR 10% DE MULTA                                NAO RECEBER APOS 30 DIAS DO VENCIMENTO.                                                                                                                                                                                                         01071800000000000000107180000000000000       0090770900066125310828071817000141
100000000000000000000009077090006612500000000000000000000000010002100065895307181700000000002            2  01658953071810071800000001722290000000001N010718000000000000000000000000000000000000000000000000000000000000000100065895304834MARINHO BARBOSA CUNHA                   AVENIDA EDU CHAVES - 639 AP.43 - PARQUE             02229000                                                            000143
2SR. CAIXA, APOS O VENCIMENTO COBRAR 10% DE MULTA                                NAO RECEBER APOS 30 DIAS DO VENCIMENTO.                                                                                                                                                                                                         01071800000000000000107180000000000000       0090770900066125658953071817000144
9                                                                                                                                                                                                                                                                                                                                                                                                         000145