01REMESSA01COBRANCA       00000000000008017025HB SANTOS CONSTRUTORA E INCORP237BRADESCO       091117        MX0000043                                                                                                                                                                                                                                                                                     000001
100000000000000000000009033990000627000000000000000000000000010002020025035111171100000000002            2  01250351111724111700000001805420000000001N091117000000000000000000000000000000000000000000000000000000000000000100025035170802WANDERSON LUIS DE CARVALHO              RUA JOAQUIM GONCALVES ROCHA - 302 - JARD            02859030                                                            000002
2SR. CAIXA, APOS O VENCIMENTO COBRAR 2% DE MULTA                                 NAO RECEBER APOS 30 DIAS DO VENCIMENTO.                                                                                                                                                                                                         09111700000000000000911170000000000000       0090339900006270250351111711000003
100000000000000000000009033990000627000000000000000000000000010002020007294311171900000000002            2  01072943111724111700000002428350000000001N091117000000000000000000000000000000000000000000000000000000000000000100007294351805CLAUDENIR APARECIDO VACARI              RUA OFELIA CHAVES DE MEIRELLES - 989 CAS            11360210                                                            000005
2SR. CAIXA, APOS O VENCIMENTO COBRAR 2% DE MULTA                                 NAO RECEBER APOS 30 DIAS DO VENCIMENTO.                                                                                                                                                                                                         09111700000000000000911170000000000000       0090339900006270072943111719000006
100000000000000000000009033990000627000000000000000000000000010002020042976111171900000000002            2  01429761111724111700000002453820000000001N091117000000000000000000000000000000000000000000000000000000000000000100042976111634ACACIO TOSCANO BONDANCA                 RUA COMENDADOR JACOMO ANTONIO LA SELVA -            12946797                                                            000008
2SR. CAIXA, APOS O VENCIMENTO COBRAR 2% DE MULTA                                 NAO RECEBER APOS 30 DIAS DO VENCIMENTO.                                                                                                                                                                                                         09111700000000000000911170000000000000       0090339900006270429761111719000009
100000000000000000000009033990000627000000000000000000000000010002020035438011171200000000002            2  01354380111724111700000002072370000000001N091117000000000000000000000000000000000000000000000000000000000000000100035438022836ALESSANDRO FARACO DOS SANTOS            RUA PEDRO POMAR  - 145 - JARDIM ELISA MA            02875020                                                            000011
2SR. CAIXA, APOS O VENCIMENTO COBRAR 2% DE MULTA                                 NAO RECEBER APOS 30 DIAS DO VENCIMENTO.                                                                                                                                                                                                         09111700000000000000911170000000000000       0090339900006270354380111712000012
100000000000000000000009033990000627000000000000000000000000010002020007525011171400000000002            2  01075250111724111700000002716200000000001N091117000000000000000000000000000000000000000000000000000000000000000100007525032866FERNANDO RIBEIRO                        RUA ALDO COLI - 539 - VILA MIRIM - PRAIA            11704760                                                            000014
2SR. CAIXA, APOS O VENCIMENTO COBRAR 2% DE MULTA                                 NAO RECEBER APOS 30 DIAS DO VENCIMENTO.                                                                                                                                                                                                         09111700000000000000911170000000000000       0090339900006270075250111714000015
100000000000000000000009033990000627000000000000000000000000010002020031898711171500000000002            2  01318987111724111700000003121850000000001N091117000000000000000000000000000000000000000000000000000000000000000100031898775800ANITA MARTINS COLOMBO                   RUA OSVALDO CRUZ - 49 - BOQUEIRAO - PRAI            11701360                                                            000017
2SR. CAIXA, APOS O VENCIMENTO COBRAR 2% DE MULTA                                 NAO RECEBER APOS 30 DIAS DO VENCIMENTO.                                                                                                                                                                                                         09111700000000000000911170000000000000       0090339900006270318987111715000018
100000000000000000000009033990000627000000000000000000000000010002020005520111171600000000002            2  01055201111724111700000002382630000000001N091117000000000000000000000000000000000000000000000000000000000000000100005520147884ERIBALDO SANTANA CARVALHO               RUA HONDURAS - 477 - PARQUE DAS AMERICAS            09351070                                                            000020
2SR. CAIXA, APOS O VENCIMENTO COBRAR 2% DE MULTA                                 NAO RECEBER APOS 30 DIAS DO VENCIMENTO.                                                                                                                                                                                                         09111700000000000000911170000000000000       0090339900006270055201111716000021
100000000000000000000009033990000627000000000000000000000000010002020002841711171300000000002            2  01028417111724111700000002229150000000001N091117000000000000000000000000000000000000000000000000000000000000000100002841756416LUCIANA PINHEIRO DE ASSIS NUNES         RUA RIO ACIMA - 81 - RIACHO GRANDE - SAO            09830100                                                            000023
2SR. CAIXA, APOS O VENCIMENTO COBRAR 2% DE MULTA                                 NAO RECEBER APOS 30 DIAS DO VENCIMENTO.                                                                                                                                                                                                         09111700000000000000911170000000000000       0090339900006270028417111713000024
100000000000000000000009033990000627000000000000000000000000010002020084302011172000000000002            2  01843020111723111700000044728740000000001N091117000000000000000000000000000000000000000000000000000000000000000100084302097868FAUSTO TADEU VILOR                      RUA ANTONIO TAVARES - 466 - BAIRRO CAMBU            01542010                                                            000026
2SR. CAIXA, APOS O VENCIMENTO COBRAR 2% DE MULTA                                 NAO RECEBER APOS 30 DIAS DO VENCIMENTO.                                                                                                                                                                                                         09111700000000000000911170000000000000       0090339900006270843020111720000027
100000000000000000000009033990000627000000000000000000000000010002020084302011171200000000002            2  01843020111724111700000002239820000000001N091117000000000000000000000000000000000000000000000000000000000000000100084302097868FAUSTO TADEU VILOR                      RUA ANTONIO TAVARES - 466 - BAIRRO CAMBU            01542010                                                            000029
2SR. CAIXA, APOS O VENCIMENTO COBRAR 2% DE MULTA                                 NAO RECEBER APOS 30 DIAS DO VENCIMENTO.                                                                                                                                                                                                         09111700000000000000911170000000000000       0090339900006270843020111712000030
100000000000000000000009033990000627000000000000000000000000010002020018207011171700000000002            2  01182070111724111700000002126550000000001N091117000000000000000000000000000000000000000000000000000000000000000100018207096802ROBERTO VALENTE TAVARES                 RUA SEBASTIAO GOMES - 218 - JARDIM SANTO            13835000                                                            000032
2SR. CAIXA, APOS O VENCIMENTO COBRAR 2% DE MULTA                                 NAO RECEBER APOS 30 DIAS DO VENCIMENTO.                                                                                                                                                                                                         09111700000000000000911170000000000000       0090339900006270182070111717000033
100000000000000000000009033990000627000000000000000000000000010002020028804211171200000000002            2  01288042111724111700000002200670000000001N091117000000000000000000000000000000000000000000000000000000000000000100028804202882GILBERTO FABIANO CABRAL DE CAMARGO      RUA JOAO AMADO COUTINHO - 444 AP.11 A -             02815000                                                            000035
2SR. CAIXA, APOS O VENCIMENTO COBRAR 2% DE MULTA                                 NAO RECEBER APOS 30 DIAS DO VENCIMENTO.                                                                                                                                                                                                         09111700000000000000911170000000000000       0090339900006270288042111712000036
100000000000000000000009033990000627000000000000000000000000010002020000991711171500000000002            2  01009917111724111700000002147920000000001N091117000000000000000000000000000000000000000000000000000000000000000100000991748808JAILSON BORGES DE ANDRADE               RUA IPIOBUNA - 45 - JARDIM CUMBICA - GUA            07240040                                                            000038
2SR. CAIXA, APOS O VENCIMENTO COBRAR 2% DE MULTA                                 NAO RECEBER APOS 30 DIAS DO VENCIMENTO.                                                                                                                                                                                                         09111700000000000000911170000000000000       0090339900006270009917111715000039
100000000000000000000009033990000627000000000000000000000000010002020092180211171200000000002            2  01921802111724111700000002928450000000001N091117000000000000000000000000000000000000000000000000000000000000000100092180299834LUIS ROBERTO DE SA DUARTE               RUA TEBAS - 296 AP.84 BLOCO 2 CE - JARDI            04634031                                                            000041
2SR. CAIXA, APOS O VENCIMENTO COBRAR 2% DE MULTA                                 NAO RECEBER APOS 30 DIAS DO VENCIMENTO.                                                                                                                                                                                                         09111700000000000000911170000000000000       0090339900006270921802111712000042
100000000000000000000009033990000627000000000000000000000000010002020022151611171100000000002            2  01221516111724111700000002135470000000001N091117000000000000000000000000000000000000000000000000000000000000000100022151666816SAMIR LIMA DE ARAUJO                    AVENIDA GUARAPIRANGA - 2616 AP.42 BLOCO1            04902005                                                            000044
2SR. CAIXA, APOS O VENCIMENTO COBRAR 2% DE MULTA                                 NAO RECEBER APOS 30 DIAS DO VENCIMENTO.                                                                                                                                                                                                         09111700000000000000911170000000000000       0090339900006270221516111711000045
100000000000000000000009033990000627000000000000000000000000010002020022313111171300000000002            2  01223131111726111700000001696610000000001N091117000000000000000000000000000000000000000000000000000000000000000100022313116824ROSA MARIA BRITO DA SILVA               RUA SERVIDAO DE SAO MARCOS - 113 - JARDI            04930300                                                            000047
2SR. CAIXA, APOS O VENCIMENTO COBRAR 2% DE MULTA                                 NAO RECEBER APOS 30 DIAS DO VENCIMENTO.                                                                                                                                                                                                         09111700000000000000911170000000000000       0090339900006270223131111713000048
100000000000000000000009033990000627000000000000000000000000010002020027538011171500000000002            2  01275380111726111700000001702520000000001N091117000000000000000000000000000000000000000000000000000000000000000100027538087249MARA LUCIA MENEZES DA COSTA             RUA LEILA  - 183 - ITAQUERA - SAO PAULO             08240020                                                            000050
2SR. CAIXA, APOS O VENCIMENTO COBRAR 2% DE MULTA                                 NAO RECEBER APOS 30 DIAS DO VENCIMENTO.                                                                                                                                                                                                         09111700000000000000911170000000000000       0090339900006270275380111715000051
100000000000000000000009033990000627000000000000000000000000010002020020105511171300000000002            2  01201055111726111700000001802350000000001N091117000000000000000000000000000000000000000000000000000000000000000100020105503827VALTER DE SOUSA LIBARINO FILHO          RUA DAS PAINEIRAS - 140 - LARANJEIRAS -             07700000                                                            000053
2SR. CAIXA, APOS O VENCIMENTO COBRAR 2% DE MULTA                                 NAO RECEBER APOS 30 DIAS DO VENCIMENTO.                                                                                                                                                                                                         09111700000000000000911170000000000000       0090339900006270201055111713000054
100000000000000000000009033990000627000000000000000000000000010002020031278411171100000000002            2  01312784111724111700000002062930000000001N091117000000000000000000000000000000000000000000000000000000000000000100031278411836JEFFERSON DE PIERI PIRES ZAMUNER        RUA MANOEL ARCE - 277 - PARQUE BANCARIO             03922150                                                            000056
2SR. CAIXA, APOS O VENCIMENTO COBRAR 2% DE MULTA                                 NAO RECEBER APOS 30 DIAS DO VENCIMENTO.                                                                                                                                                                                                         09111700000000000000911170000000000000       0090339900006270312784111711000057
100000000000000000000009033990000627000000000000000000000000010002020019185711171300000000002            2  01191857111726111700000001549340000000001N091117000000000000000000000000000000000000000000000000000000000000000100019185769800AGUINALDO PESSOA DE LIMA                RUA JANUARIO ZINGARO - 252 AP.303 BL.04             05794300                                                            000059
2SR. CAIXA, APOS O VENCIMENTO COBRAR 2% DE MULTA                                 NAO RECEBER APOS 30 DIAS DO VENCIMENTO.                                                                                                                                                                                                         09111700000000000000911170000000000000       0090339900006270191857111713000060
100000000000000000000009033990000627000000000000000000000000010002020033303611171400000000002            2  01333036111726111700000001043980000000001N091117000000000000000000000000000000000000000000000000000000000000000100033303645809JESSICA DA SILVA FREITAS                RUA ARILDO VALADAO - 120 - JARDIM GUAEMB            04814600                                                            000062
2SR. CAIXA, APOS O VENCIMENTO COBRAR 2% DE MULTA                                 NAO RECEBER APOS 30 DIAS DO VENCIMENTO.                                                                                                                                                                                                         09111700000000000000911170000000000000       0090339900006270333036111714000063
100000000000000000000009033990000627000000000000000000000000010002020004824411171300000000002            2  01048244111726111700000001681970000000001N091117000000000000000000000000000000000000000000000000000000000000000100004824443806ROSIMEIRE CLARA FERREIRA REZENDE        RUA JOAQUIM DE OLIVEIRA FREITAS - 912 AP            05133000                                                            000065
2SR. CAIXA, APOS O VENCIMENTO COBRAR 2% DE MULTA                                 NAO RECEBER APOS 30 DIAS DO VENCIMENTO.                                                                                                                                                                                                         09111700000000000000911170000000000000       0090339900006270048244111713000066
100000000000000000000009033990000627000000000000000000000000010002020006422611171P00000000002            2  01064226111724111700000002234210000000001N091117000000000000000000000000000000000000000000000000000000000000000100006422607881GERALDO ALVES DA SILVA                  RUA ALFREDO JOREL - 195 AP.5 CONDOMINIO             04195020                                                            000068
2SR. CAIXA, APOS O VENCIMENTO COBRAR 2% DE MULTA                                 NAO RECEBER APOS 30 DIAS DO VENCIMENTO.                                                                                                                                                                                                         09111700000000000000911170000000000000       009033990000627006422611171P000069
100000000000000000000009033990000627000000000000000000000000010002020033877111171100000000002            2  01338771111726111700000001564530000000001N091117000000000000000000000000000000000000000000000000000000000000000100033877129870HELDER FERREIRA VIANA                   RUA LEOPOLDO MOTTA E SILVA - 93 AP.34 -             11320340                                                            000071
2SR. CAIXA, APOS O VENCIMENTO COBRAR 2% DE MULTA                                 NAO RECEBER APOS 30 DIAS DO VENCIMENTO.                                                                                                                                                                                                         09111700000000000000911170000000000000       0090339900006270338771111711000072
100000000000000000000009033990000627000000000000000000000000010002020028290711171500000000002            2  01282907111726111700000001441890000000001N091117000000000000000000000000000000000000000000000000000000000000000100028290719809VANESSA GIANGARRELLI PEREIRA            RUA BARINEL - 72 - JARDIM COTCHING - SAO            03462130                                                            000074
2SR. CAIXA, APOS O VENCIMENTO COBRAR 2% DE MULTA                                 NAO RECEBER APOS 30 DIAS DO VENCIMENTO.                                                                                                                                                                                                         09111700000000000000911170000000000000       0090339900006270282907111715000075
100000000000000000000009033990000627000000000000000000000000010002020087573011171000000000002            2  01875730111726111700000001574560000000001N091117000000000000000000000000000000000000000000000000000000000000000100087573059604VANDERLEY DE ASSIS                      RUA ROMEU ALBANI - 268 - JARDIM PARQUE R            13803810                                                            000077
2SR. CAIXA, APOS O VENCIMENTO COBRAR 2% DE MULTA                                 NAO RECEBER APOS 30 DIAS DO VENCIMENTO.                                                                                                                                                                                                         09111700000000000000911170000000000000       0090339900006270875730111710000078
100000000000000000000009033990000627000000000000000000000000010002020010825511171800000000002            2  01108255111726111700000001643120000000001N091117000000000000000000000000000000000000000000000000000000000000000100010825513847JOSE APARECIDO PEREIRA                  RUA GENERAL OSORIO - 305 - JARDIM TRINTA            11515130                                                            000080
2SR. CAIXA, APOS O VENCIMENTO COBRAR 2% DE MULTA                                 NAO RECEBER APOS 30 DIAS DO VENCIMENTO.                                                                                                                                                                                                         09111700000000000000911170000000000000       0090339900006270108255111718000081
100000000000000000000009033990000627000000000000000000000000010002020038818511171800000000002            2  01388185111726111700000002567400000000001N091117000000000000000000000000000000000000000000000000000000000000000100038818572814MAURICIUS ALEXANDRE ESTEVAM NABOR       RUA RAUL SERAPIAO BARROSO - 379 - ESPLAN            11340330                                                            000083
2SR. CAIXA, APOS O VENCIMENTO COBRAR 2% DE MULTA                                 NAO RECEBER APOS 30 DIAS DO VENCIMENTO.                                                                                                                                                                                                         09111700000000000000911170000000000000       0090339900006270388185111718000084
100000000000000000000009033990000627000000000000000000000000010002020039115111171P00000000002            2  01391151111726111700000002025430000000001N091117000000000000000000000000000000000000000000000000000000000000000100039115139840LAIS CRISTINA RIBEIRO ANDO              RUA PERU - 769 AP.17 - VILA GUILHERMINA             11702250                                                            000086
2SR. CAIXA, APOS O VENCIMENTO COBRAR 2% DE MULTA                                 NAO RECEBER APOS 30 DIAS DO VENCIMENTO.                                                                                                                                                                                                         09111700000000000000911170000000000000       009033990000627039115111171P000087
100000000000000000000009033990000627000000000000000000000000010002020029617511171800000000002            2  01296175111724111700000002192940000000001N091117000000000000000000000000000000000000000000000000000000000000000100029617510553MARILENE SOUZA DE OLIVEIRA              AVENIDA BRASIL - 393 AP.09 - PARQUE DAS             09210280                                                            000089
2SR. CAIXA, APOS O VENCIMENTO COBRAR 2% DE MULTA                                 NAO RECEBER APOS 30 DIAS DO VENCIMENTO.                                                                                                                                                                                                         09111700000000000000911170000000000000       0090339900006270296175111718000090
100000000000000000000009033990000627000000000000000000000000010002020007730011171300000000002            2  01077300111724111700000028280700000000001N091117000000000000000000000000000000000000000000000000000000000000000100007730084899ARNALDO LUIZ VONO                       RUA CRESPO DE CARVALHO - 36 - PARQUE SAO            02832210                                                            000092
2SR. CAIXA, APOS O VENCIMENTO COBRAR 2% DE MULTA                                 NAO RECEBER APOS 30 DIAS DO VENCIMENTO.                                                                                                                                                                                                         09111700000000000000911170000000000000       0090339900006270077300111713000093
100000000000000000000009033990000627000000000000000000000000010002020065584111171P00000000002            2  01655841111724111700000001262530000000001N091117000000000000000000000000000000000000000000000000000000000000000100065584147834JOAQUIM DA COSTA MACHADO NETO           RUA SERTANISTA FRANCISCO MEIRELIS - 439             11703460                                                            000095
2SR. CAIXA, APOS O VENCIMENTO COBRAR 2% DE MULTA                                 NAO RECEBER APOS 30 DIAS DO VENCIMENTO.                                                                                                                                                                                                         09111700000000000000911170000000000000       009033990000627065584111171P000096
100000000000000000000009033990000627000000000000000000000000010002020001616911171100000000002            2  01016169111724111700000002220440000000001N091117000000000000000000000000000000000000000000000000000000000000000100001616913827CLAUDIO LUIZ PAULELLA                   PRACA NESTOR DOS SANTOS ARRUDA - 26 - VI            13920000                                                            000098
2SR. CAIXA, APOS O VENCIMENTO COBRAR 2% DE MULTA                                 NAO RECEBER APOS 30 DIAS DO VENCIMENTO.                                                                                                                                                                                                         09111700000000000000911170000000000000       0090339900006270016169111711000099
9                                                                                                                                                                                                                                                                                                                                                                                                         000100