01REMESSA01COBRANCA       00000000000004991781AIRES CONSTRUTORA E INCORPORAD237BRADESCO       110718        MX0000108                                                                                                                                                                                                                                                                                     000001
100000000000000000000009077090006612500000000000000000000000010002100001224507181800000000002            2  01012245071825071800000003417250000000001N110718000000000000000000000000000000000000000000000000000000000000000100001224509579REINALDO JUNIOR MARTINS DE ABREU        AVENIDA INTERLAGOS - 7.224 - INTERLAGOS             04777000                                                            000002
2SR. CAIXA, APOS O VENCIMENTO COBRAR 10% DE MULTA                                NAO RECEBER APOS 30 DIAS DO VENCIMENTO.                                                                                                                                                                                                         11071800000000000001107180000000000000       0090770900066125012245071818000003
100000000000000000000009077090006612500000000000000000000000010002100003325107181900000000002            2  01033251071825071800000003323500000000001N110718000000000000000000000000000000000000000000000000000000000000000100003325102808MARCOS DE OLIVEIRA JUNIOR               RUA LUIS NOVELLETO - 91 - PARQUE CONTINE            05324080                                                            000005
2SR. CAIXA, APOS O VENCIMENTO COBRAR 10% DE MULTA                                NAO RECEBER APOS 30 DIAS DO VENCIMENTO.                                                                                                                                                                                                         11071800000000000001107180000000000000       0090770900066125033251071819000006
100000000000000000000009077090006612500000000000000000000000010002100016338907181000000000002            2  01163389071825071800000003371740000000001N110718000000000000000000000000000000000000000000000000000000000000000100016338929806EDVALDO DA SILVA ANDRADE                RUA ARIA - 434 - PARQUE ALVES DE LIMA -             04902170                                                            000008
2SR. CAIXA, APOS O VENCIMENTO COBRAR 10% DE MULTA                                NAO RECEBER APOS 30 DIAS DO VENCIMENTO.                                                                                                                                                                                                         11071800000000000001107180000000000000       0090770900066125163389071810000009
100000000000000000000009077090006612500000000000000000000000010002100026836907181000000000002            2  01268369071825071800000003053350000000001N110718000000000000000000000000000000000000000000000000000000000000000100026836908860VANDERLEI FIGUEIREDO DE CARVALHO        RUA TUPI - 840 - VILA TUPI - PRAIA GRAND            11703260                                                            000011
2SR. CAIXA, APOS O VENCIMENTO COBRAR 10% DE MULTA                                NAO RECEBER APOS 30 DIAS DO VENCIMENTO.                                                                                                                                                                                                         11071800000000000001107180000000000000       0090770900066125268369071810000012
100000000000000000000009077090006612500000000000000000000000010002100059861507181700000000002            2  01598615071825071800000003391420000000001N110718000000000000000000000000000000000000000000000000000000000000000100059861576800REINALDO LOPES DE OLIVEIRA              RUA DA SERVIDAO - 40 - VILA ROSCHEL - SA            04891045                                                            000014
2SR. CAIXA, APOS O VENCIMENTO COBRAR 10% DE MULTA                                NAO RECEBER APOS 30 DIAS DO VENCIMENTO.                                                                                                                                                                                                         11071800000000000001107180000000000000       0090770900066125598615071817000015
100000000000000000000009077090006612500000000000000000000000010002100016330907181500000000002            2  01163309071825071800000003370890000000001N110718000000000000000000000000000000000000000000000000000000000000000100016330938830KARINA CORDEIRO PIASSA                  CONDE MOREIRA LIMA - 644 - JARDIM JABAQU            04384032                                                            000017
2SR. CAIXA, APOS O VENCIMENTO COBRAR 10% DE MULTA                                NAO RECEBER APOS 30 DIAS DO VENCIMENTO.                                                                                                                                                                                                         11071800000000000001107180000000000000       0090770900066125163309071815000018
100000000000000000000009077090006612500000000000000000000000010002100077027607181800000000002            2  01770276071825071800000003276240000000001N110718000000000000000000000000000000000000000000000000000000000000000100077027604868CLINEU LISSONI                          AVENIDA VILA EMA - 1100 AP.41 - VILA PRU            03156000                                                            000020
2SR. CAIXA, APOS O VENCIMENTO COBRAR 10% DE MULTA                                NAO RECEBER APOS 30 DIAS DO VENCIMENTO.                                                                                                                                                                                                         11071800000000000001107180000000000000       0090770900066125770276071818000021
100000000000000000000009077090006612500000000000000000000000010002100005627907181400000000002            2  01056279071825071800000003071620000000001N110718000000000000000000000000000000000000000000000000000000000000000100005627947861FERNANDO CESAR MARCELINO                RUA CASA FORTE - 46 AP.11 - AGUA FRIA -             02336040                                                            000023
2SR. CAIXA, APOS O VENCIMENTO COBRAR 10% DE MULTA                                NAO RECEBER APOS 30 DIAS DO VENCIMENTO.                                                                                                                                                                                                         11071800000000000001107180000000000000       0090770900066125056279071814000024
100000000000000000000009077090006612500000000000000000000000010002100029380707181500000000002            2  01293807071825071800000003053530000000001N110718000000000000000000000000000000000000000000000000000000000000000100029380708882EDUARDO MENDONCA DAMASCENO              RUA MONTE CASTELO - 296 AP.12 - AVIACAO             11702720                                                            000026
2SR. CAIXA, APOS O VENCIMENTO COBRAR 10% DE MULTA                                NAO RECEBER APOS 30 DIAS DO VENCIMENTO.                                                                                                                                                                                                         11071800000000000001107180000000000000       0090770900066125293807071815000027
100000000000000000000009077090006612500000000000000000000000010002100023988507181900000000002            2  01239885071825071800000003100520000000001N110718000000000000000000000000000000000000000000000000000000000000000100023988525634DALMY PIMENTA                           SAO CAETANO - 136 - VILA SAO VICENTE - U            38026220                                                            000029
2SR. CAIXA, APOS O VENCIMENTO COBRAR 10% DE MULTA                                NAO RECEBER APOS 30 DIAS DO VENCIMENTO.                                                                                                                                                                                                         11071800000000000001107180000000000000       0090770900066125239885071819000030
100000000000000000000009077090006612500000000000000000000000010002100004735207181000000000002            2  01047352071825071800000003371080000000001N110718000000000000000000000000000000000000000000000000000000000000000100004735273832DARIO LUIZ GONCALVES                    RUA MONTE CASTELO - 295 AP.113 - AVIACAO            11702720                                                            000032
2SR. CAIXA, APOS O VENCIMENTO COBRAR 10% DE MULTA                                NAO RECEBER APOS 30 DIAS DO VENCIMENTO.                                                                                                                                                                                                         11071800000000000001107180000000000000       0090770900066125047352071810000033
100000000000000000000009077090006612500000000000000000000000010002100007635207181000000000002            2  01076352071825071800000003013950000000001N110718000000000000000000000000000000000000000000000000000000000000000100007635293893SILVIO CARDOSO ZACARIAS                 RUA SOLIDONIO LEITE - 2718 AP.102 BLOCO             03275000                                                            000035
2SR. CAIXA, APOS O VENCIMENTO COBRAR 10% DE MULTA                                NAO RECEBER APOS 30 DIAS DO VENCIMENTO.                                                                                                                                                                                                         11071800000000000001107180000000000000       0090770900066125076352071810000036
100000000000000000000009077090006612500000000000000000000000010002100067192907181000000000002            2  01671929071825071800000002950570000000001N110718000000000000000000000000000000000000000000000000000000000000000100067192920800SONIA MARIA RIBEIRO SUDO                RUA INGAZEIRA - 133 - SAO MIGUEL - SAO P            08032080                                                            000038
2SR. CAIXA, APOS O VENCIMENTO COBRAR 10% DE MULTA                                NAO RECEBER APOS 30 DIAS DO VENCIMENTO.                                                                                                                                                                                                         11071800000000000001107180000000000000       0090770900066125671929071810000039
100000000000000000000009077090006612500000000000000000000000010002100007975907181400000000002            2  01079759071825071800000003279010000000001N110718000000000000000000000000000000000000000000000000000000000000000100007975958808JOCY VIGNADO                            RUA PEDRO GONCALVES SOBRINHO - 568 - PAR            13098641                                                            000041
2SR. CAIXA, APOS O VENCIMENTO COBRAR 10% DE MULTA                                NAO RECEBER APOS 30 DIAS DO VENCIMENTO.                                                                                                                                                                                                         11071800000000000001107180000000000000       0090770900066125079759071814000042
100000000000000000000009077090006612500000000000000000000000010002100036712507181700000000002            2  01367125071825071800000003066010000000001N110718000000000000000000000000000000000000000000000000000000000000000100036712580803WALTER BARRETO DE ALMEIDA               RUA MONTE CASTELO - 296 AP.44 - AVIACAO             11702720                                                            000044
2SR. CAIXA, APOS O VENCIMENTO COBRAR 10% DE MULTA                                NAO RECEBER APOS 30 DIAS DO VENCIMENTO.                                                                                                                                                                                                         11071800000000000001107180000000000000       0090770900066125367125071817000045
100000000000000000000009077090006612500000000000000000000000010002100036386807181600000000002            2  01363868071825071800000003463140000000001N110718000000000000000000000000000000000000000000000000000000000000000100036386861833ALINE LEE WEI DE SOUZA                  AV. PRES.CASTELO BRANCO - 9127 AP.251 BL            11704600                                                            000047
2SR. CAIXA, APOS O VENCIMENTO COBRAR 10% DE MULTA                                NAO RECEBER APOS 30 DIAS DO VENCIMENTO.                                                                                                                                                                                                         11071800000000000001107180000000000000       0090770900066125363868071816000048
100000000000000000000009077090006612500000000000000000000000010002100026187907181000000000002            2  01261879071825071800000003213680000000001N110718000000000000000000000000000000000000000000000000000000000000000100026187960807CARINA CANTACESSO DE SOUZA              RUA MONTE CASTELO - 296 AP.91 - AVIACAO             11702720                                                            000050
2SR. CAIXA, APOS O VENCIMENTO COBRAR 10% DE MULTA                                NAO RECEBER APOS 30 DIAS DO VENCIMENTO.                                                                                                                                                                                                         11071800000000000001107180000000000000       0090770900066125261879071810000051
100000000000000000000009077090006612500000000000000000000000010002100070465307181700000000002            2  01704653071825071800000003150160000000001N110718000000000000000000000000000000000000000000000000000000000000000100070465320953SIDNEY CARASKI                          RUA DR.CELSO PACHECO BENTIM - 502 - PARQ            03571020                                                            000053
2SR. CAIXA, APOS O VENCIMENTO COBRAR 10% DE MULTA                                NAO RECEBER APOS 30 DIAS DO VENCIMENTO.                                                                                                                                                                                                         11071800000000000001107180000000000000       0090770900066125704653071817000054
100000000000000000000009077090006612500000000000000000000000010002100075759407181200000000002            2  01757594071825071800000002466840000000001N110718000000000000000000000000000000000000000000000000000000000000000100075759446800VALTER MUTAFEI                          RUA MONTE CASTELO - 295 AP.54 - AVIACAO             11702720                                                            000056
2SR. CAIXA, APOS O VENCIMENTO COBRAR 10% DE MULTA                                NAO RECEBER APOS 30 DIAS DO VENCIMENTO.                                                                                                                                                                                                         11071800000000000001107180000000000000       0090770900066125757594071812000057
100000000000000000000009077090006612500000000000000000000000010002100070328707181000000000002            2  01703287071825071800000003524510000000001N110718000000000000000000000000000000000000000000000000000000000000000100070328706868VALTER LIMA FERNANDES                   RUA DOMINGOS JORGE VELHO - 52 - CENTRO -            06843550                                                            000059
2SR. CAIXA, APOS O VENCIMENTO COBRAR 10% DE MULTA                                NAO RECEBER APOS 30 DIAS DO VENCIMENTO.                                                                                                                                                                                                         11071800000000000001107180000000000000       0090770900066125703287071810000060
100000000000000000000009077090006612500000000000000000000000010002100023132607181600000000002            2  01231326071825071800000001914480000000001N110718000000000000000000000000000000000000000000000000000000000000000100023132672882LEANDRO MORENO                          RUA MONTE CASTELO - 296 AP.64 - AVIACAO             11702720                                                            000062
2SR. CAIXA, APOS O VENCIMENTO COBRAR 10% DE MULTA                                NAO RECEBER APOS 30 DIAS DO VENCIMENTO.                                                                                                                                                                                                         11071800000000000001107180000000000000       0090770900066125231326071816000063
100000000000000000000009077090006612500000000000000000000000010002100099264607181500000000002            2  01992646071825071800000003264950000000001N110718000000000000000000000000000000000000000000000000000000000000000100099264692800LEONTINO PINHEIRO DA SILVA              AVENIDA JOAO BATISTA FITIPALDI - 469 - V            08685000                                                            000065
2SR. CAIXA, APOS O VENCIMENTO COBRAR 10% DE MULTA                                NAO RECEBER APOS 30 DIAS DO VENCIMENTO.                                                                                                                                                                                                         11071800000000000001107180000000000000       0090770900066125992646071815000066
100000000000000000000009077090006612500000000000000000000000010002100000666307181600000000002            2  01006663071825071800000003149760000000001N110718000000000000000000000000000000000000000000000000000000000000000100000666344825LUIZ HENRIQUE DE CAMPOS                 RUA JOAO CARLOS CAVALCANTI REIS - 21 - J            02281206                                                            000068
2SR. CAIXA, APOS O VENCIMENTO COBRAR 10% DE MULTA                                NAO RECEBER APOS 30 DIAS DO VENCIMENTO.                                                                                                                                                                                                         11071800000000000001107180000000000000       0090770900066125006663071816000069
100000000000000000000009077090006612500000000000000000000000010002100029155007181600000000002            2  01291550071825071800000003326290000000001N110718000000000000000000000000000000000000000000000000000000000000000100029155026842DANIELA YOSHIDA                         RUA MONTE CASTELO - 262 AP.34 - AVIACAO             11702720                                                            000071
2SR. CAIXA, APOS O VENCIMENTO COBRAR 10% DE MULTA                                NAO RECEBER APOS 30 DIAS DO VENCIMENTO.                                                                                                                                                                                                         11071800000000000001107180000000000000       0090770900066125291550071816000072
100000000000000000000009077090006612500000000000000000000000010002100001204407181P00000000002            2  01012044071825071800000002708770000000001N110718000000000000000000000000000000000000000000000000000000000000000100001204431809CEZAR TALAVERA JUNIOR                   RUA MAESTRO ARTURO DE ANGELIS  - 190 AP.            05139010                                                            000074
2SR. CAIXA, APOS O VENCIMENTO COBRAR 10% DE MULTA                                NAO RECEBER APOS 30 DIAS DO VENCIMENTO.                                                                                                                                                                                                         11071800000000000001107180000000000000       009077090006612501204407181P000075
100000000000000000000009077090006612500000000000000000000000010002100004227507181900000000002            2  01042275071825071800000003511410000000001N110718000000000000000000000000000000000000000000000000000000000000000100004227553970ALESSANDRO ISRAEL GOULART               RUA PROFESSORA CARLINDA RIBEIRO - 21 - F            02866200                                                            000077
2SR. CAIXA, APOS O VENCIMENTO COBRAR 10% DE MULTA                                NAO RECEBER APOS 30 DIAS DO VENCIMENTO.                                                                                                                                                                                                         11071800000000000001107180000000000000       0090770900066125042275071819000078
100000000000000000000009077090006612500000000000000000000000010002100060811407181200000000002            2  01608114071825071800000003236170000000001N110718000000000000000000000000000000000000000000000000000000000000000100060811420868HELIO BASSI                             AV.PARIS,575 - PRACA ANTONIO FIGUEROA -             11700082                                                            000080
2SR. CAIXA, APOS O VENCIMENTO COBRAR 10% DE MULTA                                NAO RECEBER APOS 30 DIAS DO VENCIMENTO.                                                                                                                                                                                                         11071800000000000001107180000000000000       0090770900066125608114071812000081
100000000000000000000009077090006612500000000000000000000000010002100001024707181200000000002            2  01010247071825071800000003062280000000001N110718000000000000000000000000000000000000000000000000000000000000000100001024794881CLAUDIO RODRIGUES                       RUA ARACATUBA - 242 - LAPA - SAO PAULO -            05058010                                                            000083
2SR. CAIXA, APOS O VENCIMENTO COBRAR 10% DE MULTA                                NAO RECEBER APOS 30 DIAS DO VENCIMENTO.                                                                                                                                                                                                         11071800000000000001107180000000000000       0090770900066125010247071812000084
100000000000000000000009077090006612500000000000000000000000010002100002225007181300000000002            2  01022250071825071800000004694870000000001N110718000000000000000000000000000000000000000000000000000000000000000100002225072841PEDRO EDUARDO DE AZEVEDO                RUA NATH ZILMAN - 46 - JARDIM SAMAMBAIA             07600000                                                            000086
2SR. CAIXA, APOS O VENCIMENTO COBRAR 10% DE MULTA                                NAO RECEBER APOS 30 DIAS DO VENCIMENTO.                                                                                                                                                                                                         11071800000000000001107180000000000000       0090770900066125022250071813000087
100000000000000000000009077090006612500000000000000000000000010002100022037507181100000000002            2  01220375071825071800000003267110000000001N110718000000000000000000000000000000000000000000000000000000000000000100022037552882ANDREIA CRISTINA FERNANDES DANTAS       PCA CASTRO ALVES - 163 AP.33 - VILA SAO             13224299                                                            000089
2SR. CAIXA, APOS O VENCIMENTO COBRAR 10% DE MULTA                                NAO RECEBER APOS 30 DIAS DO VENCIMENTO.                                                                                                                                                                                                         11071800000000000001107180000000000000       0090770900066125220375071811000090
100000000000000000000009077090006612500000000000000000000000010002100019288707181P00000000002            2  01192887071825071800000002660180000000001N110718000000000000000000000000000000000000000000000000000000000000000100019288787844EMERSON LUIZ MARTINEZ PEREIRA           RUA MONTE CASTELO - 296 AP.74 - AVIACAO             11702720                                                            000092
2SR. CAIXA, APOS O VENCIMENTO COBRAR 10% DE MULTA                                NAO RECEBER APOS 30 DIAS DO VENCIMENTO.                                                                                                                                                                                                         11071800000000000001107180000000000000       009077090006612519288707181P000093
100000000000000000000009077090006612500000000000000000000000010002100027198407181300000000002            2  01271984071825071800000002253310000000001N110718000000000000000000000000000000000000000000000000000000000000000100027198452809CRISTIANE AURELIANO DA SILVA MAIA       RUA MONTE CASTELO - 262 AP.25 - AVIACAO             11702720                                                            000095
2SR. CAIXA, APOS O VENCIMENTO COBRAR 10% DE MULTA                                NAO RECEBER APOS 30 DIAS DO VENCIMENTO.                                                                                                                                                                                                         11071800000000000001107180000000000000       0090770900066125271984071813000096
100000000000000000000009077090006612500000000000000000000000010002100021246207181700000000002            2  01212462071825071800000002749920000000001N110718000000000000000000000000000000000000000000000000000000000000000100021246231840ALEXANDRO DA CUNHA MIGUES               AVENIDA CONSELHEIRO CARRAO - 1861 CONJ.5            03403001                                                            000098
2SR. CAIXA, APOS O VENCIMENTO COBRAR 10% DE MULTA                                NAO RECEBER APOS 30 DIAS DO VENCIMENTO.                                                                                                                                                                                                         11071800000000000001107180000000000000       0090770900066125212462071817000099
100000000000000000000009077090006612500000000000000000000000010002100004864907181600000000002            2  01048649071825071800000001646500000000001N110718000000000000000000000000000000000000000000000000000000000000000100004864924600RENATO SANTACHIARA SALVADORI            RUA PENSYLVANIA - 116 - PAYSAGE BRISE -             06730000                                                            000101
2SR. CAIXA, APOS O VENCIMENTO COBRAR 10% DE MULTA                                NAO RECEBER APOS 30 DIAS DO VENCIMENTO.                                                                                                                                                                                                         11071800000000000001107180000000000000       0090770900066125048649071816000102
100000000000000000000009077090006612500000000000000000000000010002100018834207181500000000002            2  01188342071825071800000003212220000000001N110718000000000000000000000000000000000000000000000000000000000000000100018834257863ILTON FERNANDO MUTCHNIK                 RUA ASSUNGUI - 700 AP.222 - VILA GUMERCI            04131001                                                            000104
2SR. CAIXA, APOS O VENCIMENTO COBRAR 10% DE MULTA                                NAO RECEBER APOS 30 DIAS DO VENCIMENTO.                                                                                                                                                                                                         11071800000000000001107180000000000000       0090770900066125188342071815000105
100000000000000000000009077090006612500000000000000000000000010002100018470507181700000000002            2  01184705071825071800000004045540000000001N110718000000000000000000000000000000000000000000000000000000000000000100018470520881SILVANA ALVES DE OLIVEIRA               RUA MONTE CASTELO - 262 AP.91 - AVIACAO             11702720                                                            000107
2SR. CAIXA, APOS O VENCIMENTO COBRAR 10% DE MULTA                                NAO RECEBER APOS 30 DIAS DO VENCIMENTO.                                                                                                                                                                                                         11071800000000000001107180000000000000       0090770900066125184705071817000108
100000000000000000000009077090006612500000000000000000000000010002100009297507181700000000002            2  01092975071825071800000002816470000000001N110718000000000000000000000000000000000000000000000000000000000000000100009297523846MARCOS ROBERTO DE CASTRO FERREIRA       RUA MONTE CASTELO - 262 AP.105 - AVIACAO            11702720                                                            000110
2SR. CAIXA, APOS O VENCIMENTO COBRAR 10% DE MULTA                                NAO RECEBER APOS 30 DIAS DO VENCIMENTO.                                                                                                                                                                                                         11071800000000000001107180000000000000       0090770900066125092975071817000111
100000000000000000000009077090006612500000000000000000000000010002100001164107181600000000002            2  01011641071825071800000003490250000000001N110718000000000000000000000000000000000000000000000000000000000000000100001164158864DAVID BLEY LACERDA                      RUA CONEGO ARAUJO MARCONDES - 188 - BAIR            02550080                                                            000113
2SR. CAIXA, APOS O VENCIMENTO COBRAR 10% DE MULTA                                NAO RECEBER APOS 30 DIAS DO VENCIMENTO.                                                                                                                                                                                                         11071800000000000001107180000000000000       0090770900066125011641071816000114
100000000000000000000009077090006612500000000000000000000000010002100031498007181P00000000002            2  01314980071825071800000004241890000000001N110718000000000000000000000000000000000000000000000000000000000000000100031498008895POLIANE  SIBELE DA SILVA                PRACA GENERAL COSTA BARRETO - 56 AP.181             03325070                                                            000116
2SR. CAIXA, APOS O VENCIMENTO COBRAR 10% DE MULTA                                NAO RECEBER APOS 30 DIAS DO VENCIMENTO.                                                                                                                                                                                                         11071800000000000001107180000000000000       009077090006612531498007181P000117
100000000000000000000009077090006612500000000000000000000000010002100000588107181300000000002            2  01005881071825071800000002487960000000001N110718000000000000000000000000000000000000000000000000000000000000000100000588109860JOSE LIARTE GIANTE                      AVENIDA LUIZ GONZAGA DO AMARAL - 143 - J            09320630                                                            000119
2SR. CAIXA, APOS O VENCIMENTO COBRAR 10% DE MULTA                                NAO RECEBER APOS 30 DIAS DO VENCIMENTO.                                                                                                                                                                                                         11071800000000000001107180000000000000       0090770900066125005881071813000120
100000000000000000000009077090006612500000000000000000000000010002100014386807181600000000002            2  01143868071825071800000001990260000000001N110718000000000000000000000000000000000000000000000000000000000000000100014386860134SEVERINO CARLOS DE OLIVEIRA             RUA MONTE CASTELO - 262 AP.54 - AVIACAO             11702720                                                            000122
2SR. CAIXA, APOS O VENCIMENTO COBRAR 10% DE MULTA                                NAO RECEBER APOS 30 DIAS DO VENCIMENTO.                                                                                                                                                                                                         11071800000000000001107180000000000000       0090770900066125143868071816000123
100000000000000000000009077090006612500000000000000000000000010002100029088207181300000000002            2  01290882071825071800000002212650000000001N110718000000000000000000000000000000000000000000000000000000000000000100029088221804FABIANO SPERANDEO                       RUA MONTE CASTELO - 296 AP.93 - AVIACAO             11702720                                                            000125
2SR. CAIXA, APOS O VENCIMENTO COBRAR 10% DE MULTA                                NAO RECEBER APOS 30 DIAS DO VENCIMENTO.                                                                                                                                                                                                         11071800000000000001107180000000000000       0090770900066125290882071813000126
100000000000000000000009077090006612500000000000000000000000010002100039393707181100000000002            2  01393937071825071800000001371690000000001N110718000000000000000000000000000000000000000000000000000000000000000100039393790850NAIRON RICARDO DE ARAUJO SANTOS         RUA MONTE CASTELO - 262 AP.23 - AVIACAO             11702720                                                            000128
2SR. CAIXA, APOS O VENCIMENTO COBRAR 10% DE MULTA                                NAO RECEBER APOS 30 DIAS DO VENCIMENTO.                                                                                                                                                                                                         11071800000000000001107180000000000000       0090770900066125393937071811000129
100000000000000000000009077090006612500000000000000000000000010002100041896807181200000000002            2  01418968071825071800000001997660000000001N110718000000000000000000000000000000000000000000000000000000000000000100041896807968SERGIO ROBERTO DA SILVA                 RUA DOS INGLESES - 542 AP.61 - MORRO DOS            01329000                                                            000131
2SR. CAIXA, APOS O VENCIMENTO COBRAR 10% DE MULTA                                NAO RECEBER APOS 30 DIAS DO VENCIMENTO.                                                                                                                                                                                                         11071800000000000001107180000000000000       0090770900066125418968071812000132
100000000000000000000009077090006612500000000000000000000000010002100088137307181000000000002            2  01881373071825071800000001811400000000001N110718000000000000000000000000000000000000000000000000000000000000000100088137384804ANA LUCIA DA SILVA                      RUA DOUTOR EPAMINONDAS BARRA - 147 - VIL            04438100                                                            000134
2SR. CAIXA, APOS O VENCIMENTO COBRAR 10% DE MULTA                                NAO RECEBER APOS 30 DIAS DO VENCIMENTO.                                                                                                                                                                                                         11071800000000000001107180000000000000       0090770900066125881373071810000135
9                                                                                                                                                                                                                                                                                                                                                                                                         000136