01REMESSA01COBRANCA       00000000000005331186HB SANTOS CONSTRUTORA E INCORP237BRADESCO       010322        MX0000043                                                                                                                                                                                                                                                                                     000001
100000000000000000000009033990000995400000000000000000000000010002020026858603221100000000002            2  01268586032208032200000002711390000000001N010322000000000000000000000000000000000000000000000000000000000000000100026858625879GLAUCE FERREIRA DE OLIVEIRA FALSI       RUA LOURENCO ANTONIO BRAGANCA - 116 - JA            04403160                                                            000002
2SR. CAIXA, APOS O VENCIMENTO COBRAR 2% DE MULTA                                 NAO RECEBER APOS 30 DIAS DO VENCIMENTO.                                                                                                                                                                                                         01032200000000000000103220000000000000       0090339900009954268586032211000003
100000000000000000000009033990000995400000000000000000000000010002020016960803221200000000002            2  01169608032208032200000002588920000000001N010322000000000000000000000000000000000000000000000000000000000000000100016960804876LUIZ ALVES DE SOUZA JUNIOR              RUA FRANCISCO ALVES - 394 CASA B - PAECA            11450320                                                            000005
2SR. CAIXA, APOS O VENCIMENTO COBRAR 2% DE MULTA                                 NAO RECEBER APOS 30 DIAS DO VENCIMENTO.                                                                                                                                                                                                         01032200000000000000103220000000000000       0090339900009954169608032212000006
100000000000000000000009033990000995400000000000000000000000010002020008899303221P00000000002            2  01088993032208032200000002572090000000001N010322000000000000000000000000000000000000000000000000000000000000000100008899362858ELAINE D ALMEIDA FERDINANDY             ALAMEDA SUBTENENTE AVIADOR FRANCISCO HIE            02187040                                                            000008
2SR. CAIXA, APOS O VENCIMENTO COBRAR 2% DE MULTA                                 NAO RECEBER APOS 30 DIAS DO VENCIMENTO.                                                                                                                                                                                                         01032200000000000000103220000000000000       009033990000995408899303221P000009
100000000000000000000009033990000995400000000000000000000000010002020029425003221400000000002            2  01294250032208032200000002578540000000001N010322000000000000000000000000000000000000000000000000000000000000000100029425027897FABIA DOS SANTOS DE ANDRADE             AVENIDA ALCIDES CANDIDO DOS SANTOS - 248            11705480                                                            000011
2SR. CAIXA, APOS O VENCIMENTO COBRAR 2% DE MULTA                                 NAO RECEBER APOS 30 DIAS DO VENCIMENTO.                                                                                                                                                                                                         01032200000000000000103220000000000000       0090339900009954294250032214000012
100000000000000000000009033990000995400000000000000000000000010002020078382703221P00000000002            2  01783827032208032200000002605750000000001N010322000000000000000000000000000000000000000000000000000000000000000100078382700497JARMELINA BARBOSA DA SILVA              RUA OSCAR CINTRA GORDINHO - 211 AP.51 -             01512010                                                            000014
2SR. CAIXA, APOS O VENCIMENTO COBRAR 2% DE MULTA                                 NAO RECEBER APOS 30 DIAS DO VENCIMENTO.                                                                                                                                                                                                         01032200000000000000103220000000000000       009033990000995478382703221P000015
100000000000000000000009033990000995400000000000000000000000010002020007535303221900000000002            2  01075353032208032200000002555250000000001N010322000000000000000000000000000000000000000000000000000000000000000100007535375839AINAILDE PEREIRA DE CASTRO OLIVETTO     TRAVESSA DORALINA ELIETE ADAO DA SILVA -            08021026                                                            000017
2SR. CAIXA, APOS O VENCIMENTO COBRAR 2% DE MULTA                                 NAO RECEBER APOS 30 DIAS DO VENCIMENTO.                                                                                                                                                                                                         01032200000000000000103220000000000000       0090339900009954075353032219000018
100000000000000000000009033990000995400000000000000000000000010002020028974203221600000000002            2  01289742032208032200000002528040000000001N010322000000000000000000000000000000000000000000000000000000000000000100028974233827MARISTELA FAVANI DE OLIVEIRA            RUA GIUSEPPE CARNEVALLI - 96 - BAIRRO BO            09572100                                                            000020
2SR. CAIXA, APOS O VENCIMENTO COBRAR 2% DE MULTA                                 NAO RECEBER APOS 30 DIAS DO VENCIMENTO.                                                                                                                                                                                                         01032200000000000000103220000000000000       0090339900009954289742032216000021
100000000000000000000009033990000995400000000000000000000000010002020092184803221300000000002            2  01921848032208032200000002494380000000001N010322000000000000000000000000000000000000000000000000000000000000000100092184804800CARMEM DO SOCORRO GUILHERME             ESTRADA SAO FRANCISCO - 1.850 AP.182A -             06765000                                                            000023
2SR. CAIXA, APOS O VENCIMENTO COBRAR 2% DE MULTA                                 NAO RECEBER APOS 30 DIAS DO VENCIMENTO.                                                                                                                                                                                                         01032200000000000000103220000000000000       0090339900009954921848032213000024
100000000000000000000009033990000995400000000000000000000000010002020009169703221300000000002            2  01091697032208032200000002000510000000001N010322000000000000000000000000000000000000000000000000000000000000000100009169701830TADEU CONSTANTINO LOPES                 RUA JOSE ANTONIO COELHO - 349 CASA 01 -             04011061                                                            000026
2SR. CAIXA, APOS O VENCIMENTO COBRAR 2% DE MULTA                                 NAO RECEBER APOS 30 DIAS DO VENCIMENTO.                                                                                                                                                                                                         01032200000000000000103220000000000000       0090339900009954091697032213000027
100000000000000000000009033990000995400000000000000000000000010002020042480103221100000000002            2  01424801032208032200000002544870000000001N010322000000000000000000000000000000000000000000000000000000000000000100042480155870JAMITRE SOIOMARA ALVES DO NASCIMENTO DAVRUA SERTANISTA GILBERTO PINTO FRANCISCO             11703440                                                            000029
2SR. CAIXA, APOS O VENCIMENTO COBRAR 2% DE MULTA                                 NAO RECEBER APOS 30 DIAS DO VENCIMENTO.                                                                                                                                                                                                         01032200000000000000103220000000000000       0090339900009954424801032211000030
100000000000000000000009033990000995400000000000000000000000010002020008966503221700000000002            2  01089665032208032200000002404470000000001N010322000000000000000000000000000000000000000000000000000000000000000100008966511856MONICA SILVA REIS                       RUA ORATORIO - 264 E FUNDOS - BANGU - SA            09280550                                                            000032
2SR. CAIXA, APOS O VENCIMENTO COBRAR 2% DE MULTA                                 NAO RECEBER APOS 30 DIAS DO VENCIMENTO.                                                                                                                                                                                                         01032200000000000000103220000000000000       0090339900009954089665032217000033
100000000000000000000009033990000995400000000000000000000000010002020001356903221800000000002            2  01013569032208032200000002582750000000001N010322000000000000000000000000000000000000000000000000000000000000000100001356993800DALVA MARIA DOS SANTOS                  RUA URUGUAI - 89 AP.74 - AVIACAO - PRAIA            11702300                                                            000035
2SR. CAIXA, APOS O VENCIMENTO COBRAR 2% DE MULTA                                 NAO RECEBER APOS 30 DIAS DO VENCIMENTO.                                                                                                                                                                                                         01032200000000000000103220000000000000       0090339900009954013569032218000036
100000000000000000000009033990000995400000000000000000000000010002020024615503221000000000002            2  01246155032208032200000002945520000000001N010322000000000000000000000000000000000000000000000000000000000000000100024615557884GILBERTO JOSE GONSALES                  RUA DOS GOYTACAZES - 447 AP.206 BL.2 - C            28013266                                                            000038
2SR. CAIXA, APOS O VENCIMENTO COBRAR 2% DE MULTA                                 NAO RECEBER APOS 30 DIAS DO VENCIMENTO.                                                                                                                                                                                                         01032200000000000000103220000000000000       0090339900009954246155032210000039
100000000000000000000009033990000995400000000000000000000000010002020008878803221500000000002            2  01088788032208032200000002832720000000001N010322000000000000000000000000000000000000000000000000000000000000000100008878832812LUIZ ANTONIO DE OLIVEIRA                RUA TORRINHA - 220 AP.132 - BAIRRO TATUA            03332010                                                            000041
2SR. CAIXA, APOS O VENCIMENTO COBRAR 2% DE MULTA                                 NAO RECEBER APOS 30 DIAS DO VENCIMENTO.                                                                                                                                                                                                         01032200000000000000103220000000000000       0090339900009954088788032215000042
100000000000000000000009033990000995400000000000000000000000010002020031473703221000000000002            2  01314737032208032200000002082020000000001N010322000000000000000000000000000000000000000000000000000000000000000100031473799813MURIEL DA SILVA DE MOURA SOUZA          RUA CAPITAO PAULINO FREIRE - 300 AP.014             08717100                                                            000044
2SR. CAIXA, APOS O VENCIMENTO COBRAR 2% DE MULTA                                 NAO RECEBER APOS 30 DIAS DO VENCIMENTO.                                                                                                                                                                                                         01032200000000000000103220000000000000       0090339900009954314737032210000045
100000000000000000000009033990000995400000000000000000000000010002020036949503221P00000000002            2  01369495032208032200000002756300000000001N010322000000000000000000000000000000000000000000000000000000000000000100036949505833FELIPE APARECIDO DOS SANTOS             RUA DAS MIMOSAS - 67 CASA 09 - VILA LUCI            03144010                                                            000047
2SR. CAIXA, APOS O VENCIMENTO COBRAR 2% DE MULTA                                 NAO RECEBER APOS 30 DIAS DO VENCIMENTO.                                                                                                                                                                                                         01032200000000000000103220000000000000       009033990000995436949503221P000048
100000000000000000000009033990000995400000000000000000000000010002020008539303221700000000002            2  01085393032208032200000002816120000000001N010322000000000000000000000000000000000000000000000000000000000000000100008539365871EDMILSON RAIMUNDO DOS SANTOS            RUA CALIDICE - 247 - PARQUE CRUZEIRO - S            08070010                                                            000050
2SR. CAIXA, APOS O VENCIMENTO COBRAR 2% DE MULTA                                 NAO RECEBER APOS 30 DIAS DO VENCIMENTO.                                                                                                                                                                                                         01032200000000000000103220000000000000       0090339900009954085393032217000051
100000000000000000000009033990000995400000000000000000000000010002020031040903221600000000002            2  01310409032208032200000002901330000000001N010322000000000000000000000000000000000000000000000000000000000000000100031040952801ANDRESSA REGINA FAVERANI LUPPI          RUA AMALIA BELLOTTI PASTORELLO - 169 - T            11724030                                                            000053
2SR. CAIXA, APOS O VENCIMENTO COBRAR 2% DE MULTA                                 NAO RECEBER APOS 30 DIAS DO VENCIMENTO.                                                                                                                                                                                                         01032200000000000000103220000000000000       0090339900009954310409032216000054
100000000000000000000009033990000995400000000000000000000000010002020024558903221200000000002            2  01245589032208032200000004850400000000001N010322000000000000000000000000000000000000000000000000000000000000000100024558912838EDILENE GORGATTI                        RUA ITARARE - 76 AP.142 - JARDIM GUILHER            11701820                                                            000056
2SR. CAIXA, APOS O VENCIMENTO COBRAR 2% DE MULTA                                 NAO RECEBER APOS 30 DIAS DO VENCIMENTO.                                                                                                                                                                                                         01032200000000000000103220000000000000       0090339900009954245589032212000057
100000000000000000000009033990000995400000000000000000000000010002020004611203221800000000002            2  01046112032208032200000001786090000000001N010322000000000000000000000000000000000000000000000000000000000000000100004611218830TANIA MARIA DA SILVA NUNES PEREIRA LUIZ RODOVIA RAPOSO TAVARES, 7389 KM 17,5 - A            05576200                                                            000059
2SR. CAIXA, APOS O VENCIMENTO COBRAR 2% DE MULTA                                 NAO RECEBER APOS 30 DIAS DO VENCIMENTO.                                                                                                                                                                                                         01032200000000000000103220000000000000       0090339900009954046112032218000060
100000000000000000000009033990000995400000000000000000000000010002020010548803221500000000002            2  01105488032208032200000003173630000000001N010322000000000000000000000000000000000000000000000000000000000000000100010548844801RICARDO DE JESUS CALDAS                 RUA ANTONIO AMBUBA - 50 CASA 60 - BAIRRO            05782370                                                            000062
2SR. CAIXA, APOS O VENCIMENTO COBRAR 2% DE MULTA                                 NAO RECEBER APOS 30 DIAS DO VENCIMENTO.                                                                                                                                                                                                         01032200000000000000103220000000000000       0090339900009954105488032215000063
100000000000000000000009033990000995400000000000000000000000010002020039623803221400000000002            2  01396238032208032200000002789260000000001N010322000000000000000000000000000000000000000000000000000000000000000100039623826826LEONARDO GUEDES PINTO                   RUA URUGUAI - 89 AP.24 - AVIACAO - PRAIA            11702300                                                            000065
2SR. CAIXA, APOS O VENCIMENTO COBRAR 2% DE MULTA                                 NAO RECEBER APOS 30 DIAS DO VENCIMENTO.                                                                                                                                                                                                         01032200000000000000103220000000000000       0090339900009954396238032214000066
100000000000000000000009033990000995400000000000000000000000010002020039558603221300000000002            2  01395586032208032200000002560730000000001N010322000000000000000000000000000000000000000000000000000000000000000100039558638838TAMIRES ROCHA FRANCISCO                 RUA DUARTE DE CARVALHO - 185 AP.102 - BA            03084030                                                            000068
2SR. CAIXA, APOS O VENCIMENTO COBRAR 2% DE MULTA                                 NAO RECEBER APOS 30 DIAS DO VENCIMENTO.                                                                                                                                                                                                         01032200000000000000103220000000000000       0090339900009954395586032213000069
9                                                                                                                                                                                                                                                                                                                                                                                                         000070