01REMESSA01COBRANCA       00000000000008017025HB SANTOS CONSTRUTORA E INCORP237BRADESCO       090522        MX0000153                                                                                                                                                                                                                                                                                     000001
100000000000000000000009033990000627000000000000000000000000010002020025035105221900000000002            2  01250351052224052200000002687140000000001N090522000000000000000000000000000000000000000000000000000000000000000100025035170802WANDERSON LUIS DE CARVALHO              RUA JOAQUIM GONCALVES ROCHA - 302 - JARD            02859030                                                            000002
2SR. CAIXA, APOS O VENCIMENTO COBRAR 2% DE MULTA                                 NAO RECEBER APOS 30 DIAS DO VENCIMENTO.                                                                                                                                                                                                         09052200000000000000905220000000000000       0090339900006270250351052219000003
100000000000000000000009033990000627000000000000000000000000010002020007294305221600000000002            2  01072943052224052200000003614200000000001N090522000000000000000000000000000000000000000000000000000000000000000100007294351805CLAUDENIR APARECIDO VACARI              RUA CARLOS JOSE BORSTENS - 50 AP.93 - AV            11702750                                                            000005
2SR. CAIXA, APOS O VENCIMENTO COBRAR 2% DE MULTA                                 NAO RECEBER APOS 30 DIAS DO VENCIMENTO.                                                                                                                                                                                                         09052200000000000000905220000000000000       0090339900006270072943052216000006
100000000000000000000009033990000627000000000000000000000000010002020007525005221100000000002            2  01075250052224052200000004042660000000001N090522000000000000000000000000000000000000000000000000000000000000000100007525032866FERNANDO RIBEIRO                        RUA CARLOS JOSE BORSTENS - 50 AP.32 - AV            11702750                                                            000008
2SR. CAIXA, APOS O VENCIMENTO COBRAR 2% DE MULTA                                 NAO RECEBER APOS 30 DIAS DO VENCIMENTO.                                                                                                                                                                                                         09052200000000000000905220000000000000       0090339900006270075250052211000009
100000000000000000000009033990000627000000000000000000000000010002020005071405221700000000002            2  01050714052224052200000003546200000000001N090522000000000000000000000000000000000000000000000000000000000000000100005071481855ERIBALDO SANTANA CARVALHO               RUA HONDURAS - 477 - PARQUE DAS AMERICAS            09351070                                                            000011
2SR. CAIXA, APOS O VENCIMENTO COBRAR 2% DE MULTA                                 NAO RECEBER APOS 30 DIAS DO VENCIMENTO.                                                                                                                                                                                                         09052200000000000000905220000000000000       0090339900006270050714052217000012
100000000000000000000009033990000627000000000000000000000000010002020002841705221000000000002            2  01028417052224052200000003317790000000001N090522000000000000000000000000000000000000000000000000000000000000000100002841756416LUCIANA PINHEIRO DE ASSIS NUNES         RUA RIO ACIMA - 81 - RIACHO GRANDE - SAO            09830100                                                            000014
2SR. CAIXA, APOS O VENCIMENTO COBRAR 2% DE MULTA                                 NAO RECEBER APOS 30 DIAS DO VENCIMENTO.                                                                                                                                                                                                         09052200000000000000905220000000000000       0090339900006270028417052210000015
100000000000000000000009033990000627000000000000000000000000010002020084302005221P00000000002            2  01843020052224052200000003333700000000001N090522000000000000000000000000000000000000000000000000000000000000000100084302097868FAUSTO TADEU VILOR                      RUA ANTONIO TAVARES - 466 - BAIRRO CAMBU            01542010                                                            000017
2SR. CAIXA, APOS O VENCIMENTO COBRAR 2% DE MULTA                                 NAO RECEBER APOS 30 DIAS DO VENCIMENTO.                                                                                                                                                                                                         09052200000000000000905220000000000000       009033990000627084302005221P000018
100000000000000000000009033990000627000000000000000000000000010002020028804205221P00000000002            2  01288042052224052200000003275390000000001N090522000000000000000000000000000000000000000000000000000000000000000100028804202882GILBERTO FABIANO CABRAL DE CAMARGO      RUA CARLOS JOSE BORSTENS - 50 AP.44 - AV            11702750                                                            000020
2SR. CAIXA, APOS O VENCIMENTO COBRAR 2% DE MULTA                                 NAO RECEBER APOS 30 DIAS DO VENCIMENTO.                                                                                                                                                                                                         09052200000000000000905220000000000000       009033990000627028804205221P000021
100000000000000000000009033990000627000000000000000000000000010002020000991705221200000000002            2  01009917052224052200000003196920000000001N090522000000000000000000000000000000000000000000000000000000000000000100000991748808JAILSON BORGES DE ANDRADE               RUA IPIOBUNA - 45 - JARDIM CUMBICA - GUA            07240040                                                            000023
2SR. CAIXA, APOS O VENCIMENTO COBRAR 2% DE MULTA                                 NAO RECEBER APOS 30 DIAS DO VENCIMENTO.                                                                                                                                                                                                         09052200000000000000905220000000000000       0090339900006270009917052212000024
100000000000000000000009033990000627000000000000000000000000010002020022151605221900000000002            2  01221516052224052200000003178350000000001N090522000000000000000000000000000000000000000000000000000000000000000100022151666816SAMIR LIMA DE ARAUJO                    AVENIDA GUARAPIRANGA - 2616 AP.131 BL.14            04902005                                                            000026
2SR. CAIXA, APOS O VENCIMENTO COBRAR 2% DE MULTA                                 NAO RECEBER APOS 30 DIAS DO VENCIMENTO.                                                                                                                                                                                                         09052200000000000000905220000000000000       0090339900006270221516052219000027
100000000000000000000009033990000627000000000000000000000000010002020022313105221000000000002            2  01223131052226052200000002445540000000001N090522000000000000000000000000000000000000000000000000000000000000000100022313116824ROSA MARIA BRITO DA SILVA               RUA SERVIDAO DE SAO MARCOS - 128 CASA 1             04930300                                                            000029
2SR. CAIXA, APOS O VENCIMENTO COBRAR 2% DE MULTA                                 NAO RECEBER APOS 30 DIAS DO VENCIMENTO.                                                                                                                                                                                                         09052200000000000000905220000000000000       0090339900006270223131052210000030
100000000000000000000009033990000627000000000000000000000000010002020027538005221200000000002            2  01275380052226052200000002454060000000001N090522000000000000000000000000000000000000000000000000000000000000000100027538087249MARA LUCIA MENEZES DA COSTA             RUA LEILA  - 183 - ITAQUERA - SAO PAULO             08240020                                                            000032
2SR. CAIXA, APOS O VENCIMENTO COBRAR 2% DE MULTA                                 NAO RECEBER APOS 30 DIAS DO VENCIMENTO.                                                                                                                                                                                                         09052200000000000000905220000000000000       0090339900006270275380052212000033
100000000000000000000009033990000627000000000000000000000000010002020031278405221900000000002            2  01312784052224052200000003070380000000001N090522000000000000000000000000000000000000000000000000000000000000000100031278411836JEFFERSON DE PIERI PIRES ZAMUNER        RUA MANOEL ARCE - 277 - PARQUE BANCARIO             03922150                                                            000035
2SR. CAIXA, APOS O VENCIMENTO COBRAR 2% DE MULTA                                 NAO RECEBER APOS 30 DIAS DO VENCIMENTO.                                                                                                                                                                                                         09052200000000000000905220000000000000       0090339900006270312784052219000036
100000000000000000000009033990000627000000000000000000000000010002020019185705221000000000002            2  01191857052226052200000002233260000000001N090522000000000000000000000000000000000000000000000000000000000000000100019185769800AGUINALDO PESSOA DE LIMA                RUA JANUARIO ZINGARO - 252 AP.303 BL.04             05794300                                                            000038
2SR. CAIXA, APOS O VENCIMENTO COBRAR 2% DE MULTA                                 NAO RECEBER APOS 30 DIAS DO VENCIMENTO.                                                                                                                                                                                                         09052200000000000000905220000000000000       0090339900006270191857052210000039
100000000000000000000009033990000627000000000000000000000000010002020033303605221100000000002            2  01333036052226052200000002405400000000001N090522000000000000000000000000000000000000000000000000000000000000000100033303645809JESSICA DA SILVA FREITAS                RUA ARILDO VALADAO - 120 - JARDIM GUAEMB            04814600                                                            000041
2SR. CAIXA, APOS O VENCIMENTO COBRAR 2% DE MULTA                                 NAO RECEBER APOS 30 DIAS DO VENCIMENTO.                                                                                                                                                                                                         09052200000000000000905220000000000000       0090339900006270333036052211000042
100000000000000000000009033990000627000000000000000000000000010002020006422605221700000000002            2  01064226052224052200000003325290000000001N090522000000000000000000000000000000000000000000000000000000000000000100006422607881GERALDO ALVES DA SILVA                  RUA CARLOS JOSE BORSTENS - 50 AP.14 - AV            11702750                                                            000044
2SR. CAIXA, APOS O VENCIMENTO COBRAR 2% DE MULTA                                 NAO RECEBER APOS 30 DIAS DO VENCIMENTO.                                                                                                                                                                                                         09052200000000000000905220000000000000       0090339900006270064226052217000045
100000000000000000000009033990000627000000000000000000000000010002020033877105221900000000002            2  01338771052226052200000002255140000000001N090522000000000000000000000000000000000000000000000000000000000000000100033877129870HELDER FERREIRA VIANA                   RUA JOSE CALIXTO DO CARMO - 286 AP.35 -             11702690                                                            000047
2SR. CAIXA, APOS O VENCIMENTO COBRAR 2% DE MULTA                                 NAO RECEBER APOS 30 DIAS DO VENCIMENTO.                                                                                                                                                                                                         09052200000000000000905220000000000000       0090339900006270338771052219000048
100000000000000000000009033990000627000000000000000000000000010002020028290705221200000000002            2  01282907052226052200000002078420000000001N090522000000000000000000000000000000000000000000000000000000000000000100028290719809VANESSA GIANGARRELLI PEREIRA            RUA BARINEL - 72 - JARDIM COTCHING - SAO            03462130                                                            000050
2SR. CAIXA, APOS O VENCIMENTO COBRAR 2% DE MULTA                                 NAO RECEBER APOS 30 DIAS DO VENCIMENTO.                                                                                                                                                                                                         09052200000000000000905220000000000000       0090339900006270282907052212000051
100000000000000000000009033990000627000000000000000000000000010002020087573005221800000000002            2  01875730052226052200000002269600000000001N090522000000000000000000000000000000000000000000000000000000000000000100087573059604VANDERLEY DE ASSIS                      RUA ROMEU ALBANI - 268 - JARDIM PARQUE R            13803810                                                            000053
2SR. CAIXA, APOS O VENCIMENTO COBRAR 2% DE MULTA                                 NAO RECEBER APOS 30 DIAS DO VENCIMENTO.                                                                                                                                                                                                         09052200000000000000905220000000000000       0090339900006270875730052218000054
100000000000000000000009033990000627000000000000000000000000010002020010825505221500000000002            2  01108255052226052200000002368430000000001N090522000000000000000000000000000000000000000000000000000000000000000100010825513847JOSE APARECIDO PEREIRA                  RUA GENERAL OSORIO - 305 - JARDIM TRINTA            11515130                                                            000056
2SR. CAIXA, APOS O VENCIMENTO COBRAR 2% DE MULTA                                 NAO RECEBER APOS 30 DIAS DO VENCIMENTO.                                                                                                                                                                                                         09052200000000000000905220000000000000       0090339900006270108255052215000057
100000000000000000000009033990000627000000000000000000000000010002020039115105221700000000002            2  01391151052226052200000002919510000000001N090522000000000000000000000000000000000000000000000000000000000000000100039115139840LAIS CRISTINA RIBEIRO ANDO              RUA JOSE CALIXTO DO CARMO - 286 AP.65 -             11702690                                                            000059
2SR. CAIXA, APOS O VENCIMENTO COBRAR 2% DE MULTA                                 NAO RECEBER APOS 30 DIAS DO VENCIMENTO.                                                                                                                                                                                                         09052200000000000000905220000000000000       0090339900006270391151052217000060
100000000000000000000009033990000627000000000000000000000000010002020029617505221500000000002            2  01296175052224052200000003263870000000001N090522000000000000000000000000000000000000000000000000000000000000000100029617510553MARILENE SOUZA DE OLIVEIRA              RUA DAS MONCOES - 460 AP.95 - BAIRRO JAR            09090521                                                            000062
2SR. CAIXA, APOS O VENCIMENTO COBRAR 2% DE MULTA                                 NAO RECEBER APOS 30 DIAS DO VENCIMENTO.                                                                                                                                                                                                         09052200000000000000905220000000000000       0090339900006270296175052215000063
100000000000000000000009033990000627000000000000000000000000010002020000593205221500000000002            2  01005932052224052200000003579670000000001N090522000000000000000000000000000000000000000000000000000000000000000100000593293860WALTER HELIO BARBOSA FILHO              AVENIDA ANTONIO FREDERICO OZANAN - 9500             13214206                                                            000065
2SR. CAIXA, APOS O VENCIMENTO COBRAR 2% DE MULTA                                 NAO RECEBER APOS 30 DIAS DO VENCIMENTO.                                                                                                                                                                                                         09052200000000000000905220000000000000       0090339900006270005932052215000066
100000000000000000000009033990000627000000000000000000000000010002020065584105221700000000002            2  01655841052224052200000001879140000000001N090522000000000000000000000000000000000000000000000000000000000000000100065584147834JOAQUIM DA COSTA MACHADO NETO           RUA CARLOS JOSE BORSTENS - 50 AP.42 - AV            11702750                                                            000068
2SR. CAIXA, APOS O VENCIMENTO COBRAR 2% DE MULTA                                 NAO RECEBER APOS 30 DIAS DO VENCIMENTO.                                                                                                                                                                                                         09052200000000000000905220000000000000       0090339900006270655841052217000069
100000000000000000000009033990000627000000000000000000000000010002020006684605221P00000000002            2  01066846052226052200000002405110000000001N090522000000000000000000000000000000000000000000000000000000000000000100006684623884LAUDINOR VIEIRA GARCIA                  RUA CANDIDO SALES - 374 - JARDIM PRESIDE            07172000                                                            000071
2SR. CAIXA, APOS O VENCIMENTO COBRAR 2% DE MULTA                                 NAO RECEBER APOS 30 DIAS DO VENCIMENTO.                                                                                                                                                                                                         09052200000000000000905220000000000000       009033990000627006684605221P000072
100000000000000000000009033990000627000000000000000000000000010002020011663505221000000000002            2  01116635052226052200000002422420000000001N090522000000000000000000000000000000000000000000000000000000000000000100011663589844MARIA SAVIO QUARELLO                    AVENIDA MENDONCA DRUMOND - 321 - JARDIM             03524030                                                            000074
2SR. CAIXA, APOS O VENCIMENTO COBRAR 2% DE MULTA                                 NAO RECEBER APOS 30 DIAS DO VENCIMENTO.                                                                                                                                                                                                         09052200000000000000905220000000000000       0090339900006270116635052210000075
100000000000000000000009033990000627000000000000000000000000010002020010083805221200000000002            2  01100838052226052200000002340460000000001N090522000000000000000000000000000000000000000000000000000000000000000100010083824855IONE FERREIRA COUTO DA SILVA            RUA JOSE RAGEL DE MESQUITA - 60 CS.01 -             07799999                                                            000077
2SR. CAIXA, APOS O VENCIMENTO COBRAR 2% DE MULTA                                 NAO RECEBER APOS 30 DIAS DO VENCIMENTO.                                                                                                                                                                                                         09052200000000000000905220000000000000       0090339900006270100838052212000078
100000000000000000000009033990000627000000000000000000000000010002020031010705221800000000002            2  01310107052226052200000002296750000000001N090522000000000000000000000000000000000000000000000000000000000000000100031010705890ANDRE GONZALEZ RABELLO                  RUA PARAIBA - 106 AP.61 - POMPEIA - SANT            11065470                                                            000080
2SR. CAIXA, APOS O VENCIMENTO COBRAR 2% DE MULTA                                 NAO RECEBER APOS 30 DIAS DO VENCIMENTO.                                                                                                                                                                                                         09052200000000000000905220000000000000       0090339900006270310107052218000081
100000000000000000000009033990000627000000000000000000000000010002020005351005221700000000002            2  01053510052226052200000002153430000000001N090522000000000000000000000000000000000000000000000000000000000000000100005351015897VALERIA ALVES MARCOLINO HINNIGER        RUA JOSE CALIXTO DO CARMO - 286 AP.92 -             11702690                                                            000083
2SR. CAIXA, APOS O VENCIMENTO COBRAR 2% DE MULTA                                 NAO RECEBER APOS 30 DIAS DO VENCIMENTO.                                                                                                                                                                                                         09052200000000000000905220000000000000       0090339900006270053510052217000084
100000000000000000000009033990000627000000000000000000000000010002020031898705221200000000002            2  01318987052224052200000003425180000000001N090522000000000000000000000000000000000000000000000000000000000000000100031898775800ANITA MARTINS COLOMBO                   RUA CARLOS JOSE BORSTENS - 50 AP.115 - A            11702750                                                            000086
2SR. CAIXA, APOS O VENCIMENTO COBRAR 2% DE MULTA                                 NAO RECEBER APOS 30 DIAS DO VENCIMENTO.                                                                                                                                                                                                         09052200000000000000905220000000000000       0090339900006270318987052212000087
100000000000000000000009033990000627000000000000000000000000010002020037983405221200000000002            2  01379834052226052200000002529610000000001N090522000000000000000000000000000000000000000000000000000000000000000100037983484801JOSE ERIVALDO SOUZA DO NASCIMENTO RAMOS RUA LETICIA - 250 - JARDIM GUARUJA - SAO            05877260                                                            000089
2SR. CAIXA, APOS O VENCIMENTO COBRAR 2% DE MULTA                                 NAO RECEBER APOS 30 DIAS DO VENCIMENTO.                                                                                                                                                                                                         09052200000000000000905220000000000000       0090339900006270379834052212000090
100000000000000000000009033990000627000000000000000000000000010002020056289205221300000000002            2  01562892052226052200000001910970000000001N090522000000000000000000000000000000000000000000000000000000000000000100056289286900PEDRO RIBEIRO                           RUA CONEGO MANOEL VAZ - 48 - SANTANA - S            02019050                                                            000092
2SR. CAIXA, APOS O VENCIMENTO COBRAR 2% DE MULTA                                 NAO RECEBER APOS 30 DIAS DO VENCIMENTO.                                                                                                                                                                                                         09052200000000000000905220000000000000       0090339900006270562892052213000093
100000000000000000000009033990000627000000000000000000000000010002020034735305221P00000000002            2  01347353052226052200000002622710000000001N090522000000000000000000000000000000000000000000000000000000000000000100034735328866DIEGO FELIPE MOLINA DA SILVA E SOUSA    RUA EMILIA PAULISTA - 135 - VILA TIRADEN            05364020                                                            000095
2SR. CAIXA, APOS O VENCIMENTO COBRAR 2% DE MULTA                                 NAO RECEBER APOS 30 DIAS DO VENCIMENTO.                                                                                                                                                                                                         09052200000000000000905220000000000000       009033990000627034735305221P000096
100000000000000000000009033990000627000000000000000000000000010002020076175605221000000000002            2  01761756052224052200000004753420000000001N090522000000000000000000000000000000000000000000000000000000000000000100076175685687GILMAR DE OLIVEIRA BRAGA                RUA MARACAJU - 161 AP.202 - NOVA GRANADA            30431350                                                            000098
2SR. CAIXA, APOS O VENCIMENTO COBRAR 2% DE MULTA                                 NAO RECEBER APOS 30 DIAS DO VENCIMENTO.                                                                                                                                                                                                         09052200000000000000905220000000000000       0090339900006270761756052210000099
100000000000000000000009033990000627000000000000000000000000010002020034812205221300000000002            2  01348122052224052200000004533380000000001N090522000000000000000000000000000000000000000000000000000000000000000100034812226880THAIS TORQUATO MIMOSO DE JESUS          RUA ARNALDO CINTRA - 416 AP.104 TORRE 2             03088000                                                            000101
2SR. CAIXA, APOS O VENCIMENTO COBRAR 2% DE MULTA                                 NAO RECEBER APOS 30 DIAS DO VENCIMENTO.                                                                                                                                                                                                         09052200000000000000905220000000000000       0090339900006270348122052213000102
100000000000000000000009033990000627000000000000000000000000010002020012849405221P00000000002            2  01128494052226052200000004518220000000001N090522000000000000000000000000000000000000000000000000000000000000000100012849428809MOISES CLAUDIO DO ROSARIO               AVENIDA DR. AUGUSTO DE TOLEDO - 510 AP.1            09541520                                                            000104
2SR. CAIXA, APOS O VENCIMENTO COBRAR 2% DE MULTA                                 NAO RECEBER APOS 30 DIAS DO VENCIMENTO.                                                                                                                                                                                                         09052200000000000000905220000000000000       009033990000627012849405221P000105
100000000000000000000009033990000627000000000000000000000000010002020015702305221P00000000002            2  01157023052226052200000002506790000000001N090522000000000000000000000000000000000000000000000000000000000000000100015702353846MARIA DE LOURDES DE MACENO SOUZA        RUA JOSE CALIXTO DO CARMO - 286 AP.83 -             11702690                                                            000107
2SR. CAIXA, APOS O VENCIMENTO COBRAR 2% DE MULTA                                 NAO RECEBER APOS 30 DIAS DO VENCIMENTO.                                                                                                                                                                                                         09052200000000000000905220000000000000       009033990000627015702305221P000108
100000000000000000000009033990000627000000000000000000000000010002020003658605221400000000002            2  01036586052226052200000001866560000000001N090522000000000000000000000000000000000000000000000000000000000000000100003658668814MARINEZ VALENTIN                        RUA JOSE CALIXTO DO CARMO - 286 AP.95 -             11702690                                                            000110
2SR. CAIXA, APOS O VENCIMENTO COBRAR 2% DE MULTA                                 NAO RECEBER APOS 30 DIAS DO VENCIMENTO.                                                                                                                                                                                                         09052200000000000000905220000000000000       0090339900006270036586052214000111
100000000000000000000009033990000627000000000000000000000000010002020003658605222200000000002            2  01036586052226052200000001866550000000001N090522000000000000000000000000000000000000000000000000000000000000000100003658668814MARINEZ VALENTIN                        RUA JOSE CALIXTO DO CARMO - 286 AP.95 -             11702690                                                            000113
2SR. CAIXA, APOS O VENCIMENTO COBRAR 2% DE MULTA                                 NAO RECEBER APOS 30 DIAS DO VENCIMENTO.                                                                                                                                                                                                         09052200000000000000905220000000000000       0090339900006270036586052222000114
100000000000000000000009033990000627000000000000000000000000010002020014087405221200000000002            2  01140874052226052200000002494510000000001N090522000000000000000000000000000000000000000000000000000000000000000100014087484874SERGIO SANTOS DO NASCIMENTO             RUA JOSE CALIXTO DO CARMO - 286 AP.52 -             11702690                                                            000116
2SR. CAIXA, APOS O VENCIMENTO COBRAR 2% DE MULTA                                 NAO RECEBER APOS 30 DIAS DO VENCIMENTO.                                                                                                                                                                                                         09052200000000000000905220000000000000       0090339900006270140874052212000117
100000000000000000000009033990000627000000000000000000000000010002020014087405222000000000002            2  01140874052226052200000002494490000000001N090522000000000000000000000000000000000000000000000000000000000000000100014087484874SERGIO SANTOS DO NASCIMENTO             RUA JOSE CALIXTO DO CARMO - 286 AP.52 -             11702690                                                            000119
2SR. CAIXA, APOS O VENCIMENTO COBRAR 2% DE MULTA                                 NAO RECEBER APOS 30 DIAS DO VENCIMENTO.                                                                                                                                                                                                         09052200000000000000905220000000000000       0090339900006270140874052220000120
100000000000000000000009033990000627000000000000000000000000010002020014087405223900000000002            2  01140874052226052200000002494500000000001N090522000000000000000000000000000000000000000000000000000000000000000100014087484874SERGIO SANTOS DO NASCIMENTO             RUA JOSE CALIXTO DO CARMO - 286 AP.52 -             11702690                                                            000122
2SR. CAIXA, APOS O VENCIMENTO COBRAR 2% DE MULTA                                 NAO RECEBER APOS 30 DIAS DO VENCIMENTO.                                                                                                                                                                                                         09052200000000000000905220000000000000       0090339900006270140874052239000123
100000000000000000000009033990000627000000000000000000000000010002020026834505221100000000002            2  01268345052226052200000002298390000000001N090522000000000000000000000000000000000000000000000000000000000000000100026834550895RAQUEL CARDOSO JOAO                     RUA PEDROSO XAVIER - 277 AP.23 TORRE 01             02732020                                                            000125
2SR. CAIXA, APOS O VENCIMENTO COBRAR 2% DE MULTA                                 NAO RECEBER APOS 30 DIAS DO VENCIMENTO.                                                                                                                                                                                                         09052200000000000000905220000000000000       0090339900006270268345052211000126
100000000000000000000009033990000627000000000000000000000000010002020039540005221P00000000002            2  01395400052226052200000002259630000000001N090522000000000000000000000000000000000000000000000000000000000000000100039540008816LUZINETE CLARINDO SILVA                 RUA DEINOS - 275 - BAIRRO CIDADE SATELIT            08340100                                                            000128
2SR. CAIXA, APOS O VENCIMENTO COBRAR 2% DE MULTA                                 NAO RECEBER APOS 30 DIAS DO VENCIMENTO.                                                                                                                                                                                                         09052200000000000000905220000000000000       009033990000627039540005221P000129
100000000000000000000009033990000627000000000000000000000000010002020003311005221700000000002            2  01033110052226052200000002353140000000001N090522000000000000000000000000000000000000000000000000000000000000000100003311030877SEBASTIAO SARUVA NETO                   RUA HAMILTON REGIS - 559 - BAIRRO DO LIM            08051440                                                            000131
2SR. CAIXA, APOS O VENCIMENTO COBRAR 2% DE MULTA                                 NAO RECEBER APOS 30 DIAS DO VENCIMENTO.                                                                                                                                                                                                         09052200000000000000905220000000000000       0090339900006270033110052217000132
100000000000000000000009033990000627000000000000000000000000010002020090091905221300000000002            2  01900919052226052200000002249260000000001N090522000000000000000000000000000000000000000000000000000000000000000100090091990882JUECIR CARVALHO DA LUZ                  RUA JOSE CALIXTO DO CARMO - 286 AP.114 -            11702690                                                            000134
2SR. CAIXA, APOS O VENCIMENTO COBRAR 2% DE MULTA                                 NAO RECEBER APOS 30 DIAS DO VENCIMENTO.                                                                                                                                                                                                         09052200000000000000905220000000000000       0090339900006270900919052213000135
100000000000000000000009033990000627000000000000000000000000010002020037325905221500000000002            2  01373259052226052200000001840710000000001N090522000000000000000000000000000000000000000000000000000000000000000100037325923830MARIA AUGUSTA OLIVEIRA DE ANDRADE       RUA JOSE CALIXTO DO CARMO - 286 AP.124 -            11702690                                                            000137
2SR. CAIXA, APOS O VENCIMENTO COBRAR 2% DE MULTA                                 NAO RECEBER APOS 30 DIAS DO VENCIMENTO.                                                                                                                                                                                                         09052200000000000000905220000000000000       0090339900006270373259052215000138
100000000000000000000009033990000627000000000000000000000000010002020012478805221200000000002            2  01124788052224052200000003350250000000001N090522000000000000000000000000000000000000000000000000000000000000000100012478899809VITORIA BATISTA QUEIROZ                 RUA CARVALHO DE FREITAS - 255 AP.71A - V            05728030                                                            000140
2SR. CAIXA, APOS O VENCIMENTO COBRAR 2% DE MULTA                                 NAO RECEBER APOS 30 DIAS DO VENCIMENTO.                                                                                                                                                                                                         09052200000000000000905220000000000000       0090339900006270124788052212000141
100000000000000000000009033990000627000000000000000000000000010002020013184805221300000000002            2  01131848052226052200000002223690000000001N090522000000000000000000000000000000000000000000000000000000000000000100013184856810SYDNEY HENRIQUE GAMARANO JUNIOR         RUA JOSE CALIXTO DO CARMO - 286 AP.125 -            11702690                                                            000143
2SR. CAIXA, APOS O VENCIMENTO COBRAR 2% DE MULTA                                 NAO RECEBER APOS 30 DIAS DO VENCIMENTO.                                                                                                                                                                                                         09052200000000000000905220000000000000       0090339900006270131848052213000144
100000000000000000000009033990000627000000000000000000000000010002020097989905221700000000002            2  01979899052226052200000001545330000000001N090522000000000000000000000000000000000000000000000000000000000000000100097989924820NELSON LUIS BERRIBILLE                  RUA SILVEIRA IGNACIO SOBRINHO - 965 - VI            13560294                                                            000146
2SR. CAIXA, APOS O VENCIMENTO COBRAR 2% DE MULTA                                 NAO RECEBER APOS 30 DIAS DO VENCIMENTO.                                                                                                                                                                                                         09052200000000000000905220000000000000       0090339900006270979899052217000147
100000000000000000000009033990000627000000000000000000000000010002020032341805221600000000002            2  01323418052224052200000003479950000000001N090522000000000000000000000000000000000000000000000000000000000000000100032341847803PRISCILA ALVES DE FRANCA MIRANDA        RUA CARLOS JOSE BORSTENS - 50 AP.91 - AV            11702750                                                            000149
2SR. CAIXA, APOS O VENCIMENTO COBRAR 2% DE MULTA                                 NAO RECEBER APOS 30 DIAS DO VENCIMENTO.                                                                                                                                                                                                         09052200000000000000905220000000000000       0090339900006270323418052216000150
100000000000000000000009033990000627000000000000000000000000010002020016050605221100000000002            2  01160506052224052200000003230060000000001N090522000000000000000000000000000000000000000000000000000000000000000100016050684898ANDRE RODRIGUES DE OLIVEIRA             RUA CORACAO PAULISTA - 14 - FAZENDA ITAI            08132430                                                            000152
2SR. CAIXA, APOS O VENCIMENTO COBRAR 2% DE MULTA                                 NAO RECEBER APOS 30 DIAS DO VENCIMENTO.                                                                                                                                                                                                         09052200000000000000905220000000000000       0090339900006270160506052211000153
100000000000000000000009033990000627000000000000000000000000010002020021464905221500000000002            2  01214649052224052200000005090680000000001N090522000000000000000000000000000000000000000000000000000000000000000100021464965846ANDREA APARECIDA DE OLIVEIRA PECCI      RUA ANTONIO BOZ MARFIL - 103 - PARQUE DO            05396020                                                            000155
2SR. CAIXA, APOS O VENCIMENTO COBRAR 2% DE MULTA                                 NAO RECEBER APOS 30 DIAS DO VENCIMENTO.                                                                                                                                                                                                         09052200000000000000905220000000000000       0090339900006270214649052215000156
100000000000000000000009033990000627000000000000000000000000010002020030348105221700000000002            2  01303481052224052200000003084440000000001N090522000000000000000000000000000000000000000000000000000000000000000100030348198892KELLY CRISTINA CORDEIRO                 RUA CARLOS JOSE BORSTENS - 50 AP.25 - AV            11702750                                                            000158
2SR. CAIXA, APOS O VENCIMENTO COBRAR 2% DE MULTA                                 NAO RECEBER APOS 30 DIAS DO VENCIMENTO.                                                                                                                                                                                                         09052200000000000000905220000000000000       0090339900006270303481052217000159
9                                                                                                                                                                                                                                                                                                                                                                                                         000160