01REMESSA01COBRANCA       00000000000005316116AIRES CONSTRUTORA E INCORPORAD237BRADESCO       010223        MX0000211                                                                                                                                                                                                                                                                                     000001
100000000000000000000009002800441612000000000000000000000000010002100025215102231800000000002            2  01252151022310022300000003230470000000001N010223000000000000000000000000000000000000000000000000000000000000000100025215106886KLEBER LUIZ DOS SANTOS                  RUA MONTE CASTELO - 262 AP.15 - AVIACAO             11702720                                                            000002
2SR. CAIXA, APOS O VENCIMENTO COBRAR 10% DE MULTA                                NAO RECEBER APOS 30 DIAS DO VENCIMENTO.                                                                                                                                                                                                         01022300000000000000102230000000000000       0090028004416120252151022318000003
100000000000000000000009002800441612000000000000000000000000010002100018344802231500000000002            2  01183448022310022300000004730440000000001N010223000000000000000000000000000000000000000000000000000000000000000100018344803888MARCELO BERNARDO                        RUA MONTE CASTELO - 262 AP.84 - AVIACAO             11702720                                                            000005
2SR. CAIXA, APOS O VENCIMENTO COBRAR 10% DE MULTA                                NAO RECEBER APOS 30 DIAS DO VENCIMENTO.                                                                                                                                                                                                         01022300000000000000102230000000000000       0090028004416120183448022315000006
100000000000000000000009002800441612000000000000000000000000010002100031803802231000000000002            2  01318038022310022300000003820080000000001N010223000000000000000000000000000000000000000000000000000000000000000100031803864877ELEILSON FELIPPE SANTOS                 RUA SANTA GREGORIA - 193 - CIDADE DUTRA             04806030                                                            000008
2SR. CAIXA, APOS O VENCIMENTO COBRAR 10% DE MULTA                                NAO RECEBER APOS 30 DIAS DO VENCIMENTO.                                                                                                                                                                                                         01022300000000000000102230000000000000       0090028004416120318038022310000009
100000000000000000000009002800441612000000000000000000000000010002100063064502231500000000002            2  01630645022310022300000004552300000000001N010223000000000000000000000000000000000000000000000000000000000000000100063064537849ANTONIO APARECIDO DA SILVA DESTEFANO    RUA PROFESSOR TEODORO BRAGA - 46 - VILA             02966020                                                            000011
2SR. CAIXA, APOS O VENCIMENTO COBRAR 10% DE MULTA                                NAO RECEBER APOS 30 DIAS DO VENCIMENTO.                                                                                                                                                                                                         01022300000000000000102230000000000000       0090028004416120630645022315000012
100000000000000000000009002800441612000000000000000000000000010002100005920502231400000000002            2  01059205022310022300000002650390000000001N010223000000000000000000000000000000000000000000000000000000000000000100005920579846SONIA MARIA VALDO POLLO                 RUA PALMIRA CERVI BARBARO - 797 - CIDADE            13214370                                                            000014
2SR. CAIXA, APOS O VENCIMENTO COBRAR 10% DE MULTA                                NAO RECEBER APOS 30 DIAS DO VENCIMENTO.                                                                                                                                                                                                         01022300000000000000102230000000000000       0090028004416120059205022314000015
100000000000000000000009002800441612000000000000000000000000010002100002494102231500000000002            2  01024941022310022300000003984950000000001N010223000000000000000000000000000000000000000000000000000000000000000100002494107881CIRO FRANCISCO MARCHI DURIGON           RUA MONTE CASTELO - 262 AP.115 - AVIACAO            11702720                                                            000017
2SR. CAIXA, APOS O VENCIMENTO COBRAR 10% DE MULTA                                NAO RECEBER APOS 30 DIAS DO VENCIMENTO.                                                                                                                                                                                                         01022300000000000000102230000000000000       0090028004416120024941022315000018
100000000000000000000009002800441612000000000000000000000000010002100016299002231600000000002            2  01162990022310022300000003776360000000001N010223000000000000000000000000000000000000000000000000000000000000000100016299008857FERNANDO CESAR CARVALHO                 AVENIDA MARCONDES DE BRITO - 1340 AP.74             03509000                                                            000020
2SR. CAIXA, APOS O VENCIMENTO COBRAR 10% DE MULTA                                NAO RECEBER APOS 30 DIAS DO VENCIMENTO.                                                                                                                                                                                                         01022300000000000000102230000000000000       0090028004416120162990022316000021
100000000000000000000009002800441612000000000000000000000000010002100055975302231700000000002            2  01559753022310022300000000862390000000001N010223000000000000000000000000000000000000000000000000000000000000000100055975372887BENEVENUTO THEODORO DA SILVA NETO       RUA MONTE CASTELO - 296 AP.63 - AVIACAO             11702720                                                            000023
2SR. CAIXA, APOS O VENCIMENTO COBRAR 10% DE MULTA                                NAO RECEBER APOS 30 DIAS DO VENCIMENTO.                                                                                                                                                                                                         01022300000000000000102230000000000000       0090028004416120559753022317000024
9                                                                                                                                                                                                                                                                                                                                                                                                         000025