01REMESSA01COBRANCA       00000000000008017025HB SANTOS CONSTRUTORA E INCORP237BRADESCO       070324        MX0000198                                                                                                                                                                                                                                                                                     000001
100000000000000000000009033990000627000000000000000000000000010002020025035103241200000000002            2  01250351032424032400000003269020000000001N060324000000000000000000000000000000000000000000000000000000000000000100025035170802WANDERSON LUIS DE CARVALHO              RUA JOAQUIM GONCALVES ROCHA - 302 - JARD            02859030                                                            000002
2SR. CAIXA, APOS O VENCIMENTO COBRAR 2% DE MULTA                                 NAO RECEBER APOS 30 DIAS DO VENCIMENTO.                                                                                                                                                                                                         07032400000000000000703240000000000000       0090339900006270250351032412000003
100000000000000000000009033990000627000000000000000000000000010002020007294303241P00000000002            2  01072943032424032400000004396840000000001N060324000000000000000000000000000000000000000000000000000000000000000100007294351805CLAUDENIR APARECIDO VACARI              RUA CARLOS JOSE BORSTENS - 50 AP.93 - AV            11702750                                                            000005
2SR. CAIXA, APOS O VENCIMENTO COBRAR 2% DE MULTA                                 NAO RECEBER APOS 30 DIAS DO VENCIMENTO.                                                                                                                                                                                                         07032400000000000000703240000000000000       009033990000627007294303241P000006
100000000000000000000009033990000627000000000000000000000000010002020002841703241400000000002            2  01028417032424032400000004036240000000001N060324000000000000000000000000000000000000000000000000000000000000000100002841756416LUCIANA PINHEIRO DE ASSIS NUNES         RUA RIO ACIMA - 81 - RIACHO GRANDE - SAO            09830100                                                            000008
2SR. CAIXA, APOS O VENCIMENTO COBRAR 2% DE MULTA                                 NAO RECEBER APOS 30 DIAS DO VENCIMENTO.                                                                                                                                                                                                         07032400000000000000703240000000000000       0090339900006270028417032414000009
100000000000000000000009033990000627000000000000000000000000010002020084302003241300000000002            2  01843020032424032400000004055600000000001N060324000000000000000000000000000000000000000000000000000000000000000100084302097868FAUSTO TADEU VILOR                      RUA ANTONIO TAVARES - 466 - BAIRRO CAMBU            01542010                                                            000011
2SR. CAIXA, APOS O VENCIMENTO COBRAR 2% DE MULTA                                 NAO RECEBER APOS 30 DIAS DO VENCIMENTO.                                                                                                                                                                                                         07032400000000000000703240000000000000       0090339900006270843020032413000012
100000000000000000000009033990000627000000000000000000000000010002020000991703241600000000002            2  01009917032424032400000003889200000000001N060324000000000000000000000000000000000000000000000000000000000000000100000991748808JAILSON BORGES DE ANDRADE               RUA IPIOBUNA - 45 - JARDIM CUMBICA - GUA            07240040                                                            000014
2SR. CAIXA, APOS O VENCIMENTO COBRAR 2% DE MULTA                                 NAO RECEBER APOS 30 DIAS DO VENCIMENTO.                                                                                                                                                                                                         07032400000000000000703240000000000000       0090339900006270009917032416000015
100000000000000000000009033990000627000000000000000000000000010002020022151603241200000000002            2  01221516032424032400000003866610000000001N060324000000000000000000000000000000000000000000000000000000000000000100022151666816SAMIR LIMA DE ARAUJO                    AVENIDA GUARAPIRANGA - 2616 AP.131 BL.14            04902005                                                            000017
2SR. CAIXA, APOS O VENCIMENTO COBRAR 2% DE MULTA                                 NAO RECEBER APOS 30 DIAS DO VENCIMENTO.                                                                                                                                                                                                         07032400000000000000703240000000000000       0090339900006270221516032412000018
100000000000000000000009033990000627000000000000000000000000010002020022313103241400000000002            2  01223131032426032400000002974810000000001N060324000000000000000000000000000000000000000000000000000000000000000100022313116824ROSA MARIA BRITO DA SILVA               RUA JOSE CALIXTO DO CARMO - 286 AP.41 -             11702690                                                            000020
2SR. CAIXA, APOS O VENCIMENTO COBRAR 2% DE MULTA                                 NAO RECEBER APOS 30 DIAS DO VENCIMENTO.                                                                                                                                                                                                         07032400000000000000703240000000000000       0090339900006270223131032414000021
100000000000000000000009033990000627000000000000000000000000010002020027538003241600000000002            2  01275380032426032400000002985150000000001N060324000000000000000000000000000000000000000000000000000000000000000100027538087249MARA LUCIA MENEZES DA COSTA             RUA LEILA  - 183 - ITAQUERA - SAO PAULO             08240020                                                            000023
2SR. CAIXA, APOS O VENCIMENTO COBRAR 2% DE MULTA                                 NAO RECEBER APOS 30 DIAS DO VENCIMENTO.                                                                                                                                                                                                         07032400000000000000703240000000000000       0090339900006270275380032416000024
100000000000000000000009033990000627000000000000000000000000010002020031278403241200000000002            2  01312784032424032400000003735250000000001N060324000000000000000000000000000000000000000000000000000000000000000100031278411836JEFFERSON DE PIERI PIRES ZAMUNER        RUA MANOEL ARCE - 277 - PARQUE BANCARIO             03922150                                                            000026
2SR. CAIXA, APOS O VENCIMENTO COBRAR 2% DE MULTA                                 NAO RECEBER APOS 30 DIAS DO VENCIMENTO.                                                                                                                                                                                                         07032400000000000000703240000000000000       0090339900006270312784032412000027
100000000000000000000009033990000627000000000000000000000000010002020019185703241400000000002            2  01191857032426032400000002716610000000001N060324000000000000000000000000000000000000000000000000000000000000000100019185769800AGUINALDO PESSOA DE LIMA                RUA JANUARIO ZINGARO - 252 AP.303 BL.04             05794300                                                            000029
2SR. CAIXA, APOS O VENCIMENTO COBRAR 2% DE MULTA                                 NAO RECEBER APOS 30 DIAS DO VENCIMENTO.                                                                                                                                                                                                         07032400000000000000703240000000000000       0090339900006270191857032414000030
100000000000000000000009033990000627000000000000000000000000010002020006422603241000000000002            2  01064226032424032400000004045380000000001N060324000000000000000000000000000000000000000000000000000000000000000100006422607881GERALDO ALVES DA SILVA                  RUA CARLOS JOSE BORSTENS - 50 AP.14 - AV            11702750                                                            000032
2SR. CAIXA, APOS O VENCIMENTO COBRAR 2% DE MULTA                                 NAO RECEBER APOS 30 DIAS DO VENCIMENTO.                                                                                                                                                                                                         07032400000000000000703240000000000000       0090339900006270064226032410000033
100000000000000000000009033990000627000000000000000000000000010002020033877103241200000000002            2  01338771032426032400000002743190000000001N060324000000000000000000000000000000000000000000000000000000000000000100033877129870HELDER FERREIRA VIANA                   RUA JOSE CALIXTO DO CARMO - 286 AP.35 -             11702690                                                            000035
2SR. CAIXA, APOS O VENCIMENTO COBRAR 2% DE MULTA                                 NAO RECEBER APOS 30 DIAS DO VENCIMENTO.                                                                                                                                                                                                         07032400000000000000703240000000000000       0090339900006270338771032412000036
100000000000000000000009033990000627000000000000000000000000010002020087573003241100000000002            2  01875730032426032400000002760790000000001N060324000000000000000000000000000000000000000000000000000000000000000100087573059604VANDERLEY DE ASSIS                      RUA ROMEU ALBANI - 268 - JARDIM PARQUE R            13803810                                                            000038
2SR. CAIXA, APOS O VENCIMENTO COBRAR 2% DE MULTA                                 NAO RECEBER APOS 30 DIAS DO VENCIMENTO.                                                                                                                                                                                                         07032400000000000000703240000000000000       0090339900006270875730032411000039
100000000000000000000009033990000627000000000000000000000000010002020010825503241900000000002            2  01108255032426032400000002881020000000001N060324000000000000000000000000000000000000000000000000000000000000000100010825513847JOSE APARECIDO PEREIRA                  RUA UTUCURA - 120 - CIDADE IPAVA - SAO P            04950060                                                            000041
2SR. CAIXA, APOS O VENCIMENTO COBRAR 2% DE MULTA                                 NAO RECEBER APOS 30 DIAS DO VENCIMENTO.                                                                                                                                                                                                         07032400000000000000703240000000000000       0090339900006270108255032419000042
100000000000000000000009033990000627000000000000000000000000010002020039115103241000000000002            2  01391151032426032400000003551380000000001N060324000000000000000000000000000000000000000000000000000000000000000100039115139840LAIS CRISTINA RIBEIRO ANDO              RUA JOSE CALIXTO DO CARMO - 286 AP.65 -             11702690                                                            000044
2SR. CAIXA, APOS O VENCIMENTO COBRAR 2% DE MULTA                                 NAO RECEBER APOS 30 DIAS DO VENCIMENTO.                                                                                                                                                                                                         07032400000000000000703240000000000000       0090339900006270391151032410000045
100000000000000000000009033990000627000000000000000000000000010002020000593203241900000000002            2  01005932032424032400000004354850000000001N060324000000000000000000000000000000000000000000000000000000000000000100000593293860WALTER HELIO BARBOSA FILHO              AVENIDA ANTONIO FREDERICO OZANAN - 9500             13214206                                                            000047
2SR. CAIXA, APOS O VENCIMENTO COBRAR 2% DE MULTA                                 NAO RECEBER APOS 30 DIAS DO VENCIMENTO.                                                                                                                                                                                                         07032400000000000000703240000000000000       0090339900006270005932032419000048
100000000000000000000009033990000627000000000000000000000000010002020006684603241300000000002            2  01066846032426032400000002925680000000001N060324000000000000000000000000000000000000000000000000000000000000000100006684623884LAUDINOR VIEIRA GARCIA                  RUA CANDIDO SALES - 374 - JARDIM PRESIDE            07172000                                                            000050
2SR. CAIXA, APOS O VENCIMENTO COBRAR 2% DE MULTA                                 NAO RECEBER APOS 30 DIAS DO VENCIMENTO.                                                                                                                                                                                                         07032400000000000000703240000000000000       0090339900006270066846032413000051
100000000000000000000009033990000627000000000000000000000000010002020011663503241400000000002            2  01116635032426032400000002946690000000001N060324000000000000000000000000000000000000000000000000000000000000000100011663589844MARIA SAVIO QUARELLO                    AVENIDA MENDONCA DRUMOND - 321 - JARDIM             03524030                                                            000053
2SR. CAIXA, APOS O VENCIMENTO COBRAR 2% DE MULTA                                 NAO RECEBER APOS 30 DIAS DO VENCIMENTO.                                                                                                                                                                                                         07032400000000000000703240000000000000       0090339900006270116635032414000054
100000000000000000000009033990000627000000000000000000000000010002020010083803241600000000002            2  01100838032426032400000002846990000000001N060324000000000000000000000000000000000000000000000000000000000000000100010083824855IONE FERREIRA COUTO DA SILVA            RUA JOSE RAGEL DE MESQUITA - 60 CS.01 -             07799999                                                            000056
2SR. CAIXA, APOS O VENCIMENTO COBRAR 2% DE MULTA                                 NAO RECEBER APOS 30 DIAS DO VENCIMENTO.                                                                                                                                                                                                         07032400000000000000703240000000000000       0090339900006270100838032416000057
100000000000000000000009033990000627000000000000000000000000010002020031010703241100000000002            2  01310107032426032400000002793810000000001N060324000000000000000000000000000000000000000000000000000000000000000100031010705890ANDRE GONZALEZ RABELLO                  RUA PARAIBA - 106 AP.61 - POMPEIA - SANT            11065470                                                            000059
2SR. CAIXA, APOS O VENCIMENTO COBRAR 2% DE MULTA                                 NAO RECEBER APOS 30 DIAS DO VENCIMENTO.                                                                                                                                                                                                         07032400000000000000703240000000000000       0090339900006270310107032411000060
100000000000000000000009033990000627000000000000000000000000010002020005351003241000000000002            2  01053510032426032400000002619480000000001N060324000000000000000000000000000000000000000000000000000000000000000100005351015897VALERIA ALVES MARCOLINO HINNIGER        RUA JOSE CALIXTO DO CARMO - 286 AP.92 -             11702690                                                            000062
2SR. CAIXA, APOS O VENCIMENTO COBRAR 2% DE MULTA                                 NAO RECEBER APOS 30 DIAS DO VENCIMENTO.                                                                                                                                                                                                         07032400000000000000703240000000000000       0090339900006270053510032410000063
100000000000000000000009033990000627000000000000000000000000010002020031898703241600000000002            2  01318987032424032400000004166880000000001N060324000000000000000000000000000000000000000000000000000000000000000100031898775800ANITA MARTINS COLOMBO                   RUA CARLOS JOSE BORSTENS - 50 AP.115 - A            11702750                                                            000065
2SR. CAIXA, APOS O VENCIMENTO COBRAR 2% DE MULTA                                 NAO RECEBER APOS 30 DIAS DO VENCIMENTO.                                                                                                                                                                                                         07032400000000000000703240000000000000       0090339900006270318987032416000066
100000000000000000000009033990000627000000000000000000000000010002020037983403241600000000002            2  01379834032426032400000003077080000000001N060324000000000000000000000000000000000000000000000000000000000000000100037983484801JOSE ERIVALDO SOUZA DO NASCIMENTO RAMOS RUA LETICIA - 250 - JARDIM GUARUJA - SAO            05877260                                                            000068
2SR. CAIXA, APOS O VENCIMENTO COBRAR 2% DE MULTA                                 NAO RECEBER APOS 30 DIAS DO VENCIMENTO.                                                                                                                                                                                                         07032400000000000000703240000000000000       0090339900006270379834032416000069
100000000000000000000009033990000627000000000000000000000000010002020056289203241700000000002            2  01562892032426032400000002324540000000001N060324000000000000000000000000000000000000000000000000000000000000000100056289286900PEDRO RIBEIRO                           RUA CONEGO MANOEL VAZ - 48 - SANTANA - S            02019050                                                            000071
2SR. CAIXA, APOS O VENCIMENTO COBRAR 2% DE MULTA                                 NAO RECEBER APOS 30 DIAS DO VENCIMENTO.                                                                                                                                                                                                         07032400000000000000703240000000000000       0090339900006270562892032417000072
100000000000000000000009033990000627000000000000000000000000010002020034812203241700000000002            2  01348122032424032400000005515060000000001N060324000000000000000000000000000000000000000000000000000000000000000100034812226880THAIS TORQUATO MIMOSO DE JESUS          RUA ARNALDO CINTRA - 416 AP.104 TORRE 2             03088000                                                            000074
2SR. CAIXA, APOS O VENCIMENTO COBRAR 2% DE MULTA                                 NAO RECEBER APOS 30 DIAS DO VENCIMENTO.                                                                                                                                                                                                         07032400000000000000703240000000000000       0090339900006270348122032417000075
100000000000000000000009033990000627000000000000000000000000010002020012849403241300000000002            2  01128494032426032400000005496090000000001N060324000000000000000000000000000000000000000000000000000000000000000100012849428809MOISES CLAUDIO DO ROSARIO               AVENIDA AYRTON SENNA - 255 CASA 01 - SAN            06149201                                                            000077
2SR. CAIXA, APOS O VENCIMENTO COBRAR 2% DE MULTA                                 NAO RECEBER APOS 30 DIAS DO VENCIMENTO.                                                                                                                                                                                                         07032400000000000000703240000000000000       0090339900006270128494032413000078
100000000000000000000009033990000627000000000000000000000000010002020026834503241500000000002            2  01268345032426032400000002795830000000001N060324000000000000000000000000000000000000000000000000000000000000000100026834550895RAQUEL CARDOSO JOAO                     RUA PEDROSO XAVIER - 277 AP.23 TORRE 01             02732020                                                            000080
2SR. CAIXA, APOS O VENCIMENTO COBRAR 2% DE MULTA                                 NAO RECEBER APOS 30 DIAS DO VENCIMENTO.                                                                                                                                                                                                         07032400000000000000703240000000000000       0090339900006270268345032415000081
100000000000000000000009033990000627000000000000000000000000010002020039540003241300000000002            2  01395400032426032400000002748670000000001N060324000000000000000000000000000000000000000000000000000000000000000100039540008816LUZINETE CLARINDO SILVA                 RUA DEINOS - 275 - BAIRRO CIDADE SATELIT            08340100                                                            000083
2SR. CAIXA, APOS O VENCIMENTO COBRAR 2% DE MULTA                                 NAO RECEBER APOS 30 DIAS DO VENCIMENTO.                                                                                                                                                                                                         07032400000000000000703240000000000000       0090339900006270395400032413000084
100000000000000000000009033990000627000000000000000000000000010002020003311003241000000000002            2  01033110032426032400000002862450000000001N060324000000000000000000000000000000000000000000000000000000000000000100003311030877SEBASTIAO SARUVA NETO                   RUA HAMILTON REGIS - 559 - BAIRRO DO LIM            08051440                                                            000086
2SR. CAIXA, APOS O VENCIMENTO COBRAR 2% DE MULTA                                 NAO RECEBER APOS 30 DIAS DO VENCIMENTO.                                                                                                                                                                                                         07032400000000000000703240000000000000       0090339900006270033110032410000087
100000000000000000000009033990000627000000000000000000000000010002020012478803241600000000002            2  01124788032424032400000004075720000000001N060324000000000000000000000000000000000000000000000000000000000000000100012478899809VITORIA BATISTA QUEIROZ                 RUA CARVALHO DE FREITAS - 255 AP.71A - V            05728030                                                            000089
2SR. CAIXA, APOS O VENCIMENTO COBRAR 2% DE MULTA                                 NAO RECEBER APOS 30 DIAS DO VENCIMENTO.                                                                                                                                                                                                         07032400000000000000703240000000000000       0090339900006270124788032416000090
100000000000000000000009033990000627000000000000000000000000010002020013184803241700000000002            2  01131848032426032400000002704950000000001N060324000000000000000000000000000000000000000000000000000000000000000100013184856810SYDNEY HENRIQUE GAMARANO JUNIOR         RUA JOSE CALIXTO DO CARMO - 286 AP.125 -            11702690                                                            000092
2SR. CAIXA, APOS O VENCIMENTO COBRAR 2% DE MULTA                                 NAO RECEBER APOS 30 DIAS DO VENCIMENTO.                                                                                                                                                                                                         07032400000000000000703240000000000000       0090339900006270131848032417000093
100000000000000000000009033990000627000000000000000000000000010002020097989903241000000000002            2  01979899032426032400000001879750000000001N060324000000000000000000000000000000000000000000000000000000000000000100097989924820NELSON LUIS BERRIBILLE                  RUA SILVEIRA IGNACIO SOBRINHO - 965 - VI            13560294                                                            000095
2SR. CAIXA, APOS O VENCIMENTO COBRAR 2% DE MULTA                                 NAO RECEBER APOS 30 DIAS DO VENCIMENTO.                                                                                                                                                                                                         07032400000000000000703240000000000000       0090339900006270979899032410000096
100000000000000000000009033990000627000000000000000000000000010002020097989903242900000000002            2  01979899032426032400000001879740000000001N060324000000000000000000000000000000000000000000000000000000000000000100097989924820NELSON LUIS BERRIBILLE                  RUA SILVEIRA IGNACIO SOBRINHO - 965 - VI            13560294                                                            000098
2SR. CAIXA, APOS O VENCIMENTO COBRAR 2% DE MULTA                                 NAO RECEBER APOS 30 DIAS DO VENCIMENTO.                                                                                                                                                                                                         07032400000000000000703240000000000000       0090339900006270979899032429000099
100000000000000000000009033990000627000000000000000000000000010002020032341803241P00000000002            2  01323418032424032400000004233540000000001N060324000000000000000000000000000000000000000000000000000000000000000100032341847803PRISCILA ALVES DE FRANCA MIRANDA        RUA CARLOS JOSE BORSTENS - 50 AP.91 - AV            11702750                                                            000101
2SR. CAIXA, APOS O VENCIMENTO COBRAR 2% DE MULTA                                 NAO RECEBER APOS 30 DIAS DO VENCIMENTO.                                                                                                                                                                                                         07032400000000000000703240000000000000       009033990000627032341803241P000102
100000000000000000000009033990000627000000000000000000000000010002020016050603241500000000002            2  01160506032424032400000003929540000000001N060324000000000000000000000000000000000000000000000000000000000000000100016050684898ANDRE RODRIGUES DE OLIVEIRA             RUA CORACAO PAULISTA - 14 - FAZENDA ITAI            08132430                                                            000104
2SR. CAIXA, APOS O VENCIMENTO COBRAR 2% DE MULTA                                 NAO RECEBER APOS 30 DIAS DO VENCIMENTO.                                                                                                                                                                                                         07032400000000000000703240000000000000       0090339900006270160506032415000105
100000000000000000000009033990000627000000000000000000000000010002020021464903241900000000002            2  01214649032424032400000006193040000000001N060324000000000000000000000000000000000000000000000000000000000000000100021464965846ANDREA APARECIDA DE OLIVEIRA PECCI      RUA ANTONIO BOZ MARFIL - 103 - PARQUE DO            05396020                                                            000107
2SR. CAIXA, APOS O VENCIMENTO COBRAR 2% DE MULTA                                 NAO RECEBER APOS 30 DIAS DO VENCIMENTO.                                                                                                                                                                                                         07032400000000000000703240000000000000       0090339900006270214649032419000108
100000000000000000000009033990000627000000000000000000000000010002020003597503241900000000002            2  01035975032426032400000002528250000000001N060324000000000000000000000000000000000000000000000000000000000000000100003597509827ANISIO FAUSTINO DE OLIVEIRA             RUA DOMINGOS DE MAMBRO - 5 CASA 20 - CIT            06040290                                                            000110
2SR. CAIXA, APOS O VENCIMENTO COBRAR 2% DE MULTA                                 NAO RECEBER APOS 30 DIAS DO VENCIMENTO.                                                                                                                                                                                                         07032400000000000000703240000000000000       0090339900006270035975032419000111
100000000000000000000009033990000627000000000000000000000000010002020018531503241800000000002            2  01185315032426032400000002239070000000001N060324000000000000000000000000000000000000000000000000000000000000000100018531558883FABIO HENRIQUE HADDAD                   RUA REGO BARROS - 815 T.A AP.56 - JARDIM            03460000                                                            000113
2SR. CAIXA, APOS O VENCIMENTO COBRAR 2% DE MULTA                                 NAO RECEBER APOS 30 DIAS DO VENCIMENTO.                                                                                                                                                                                                         07032400000000000000703240000000000000       0090339900006270185315032418000114
9                                                                                                                                                                                                                                                                                                                                                                                                         000115