01REMESSA01COBRANCA       00000000000008017025HB SANTOS CONSTRUTORA E INCORP237BRADESCO       041122        MX0000165                                                                                                                                                                                                                                                                                     000001
100000000000000000000009033990000627000000000000000000000000010002020025035111221100000000002            2  01250351112224112200000002839710000000001N041122000000000000000000000000000000000000000000000000000000000000000100025035170802WANDERSON LUIS DE CARVALHO              RUA JOAQUIM GONCALVES ROCHA - 302 - JARD            02859030                                                            000002
2SR. CAIXA, APOS O VENCIMENTO COBRAR 2% DE MULTA                                 NAO RECEBER APOS 30 DIAS DO VENCIMENTO.                                                                                                                                                                                                         04112200000000000000411220000000000000       0090339900006270250351112211000003
100000000000000000000009033990000627000000000000000000000000010002020007294311221900000000002            2  01072943112224112200000003819410000000001N041122000000000000000000000000000000000000000000000000000000000000000100007294351805CLAUDENIR APARECIDO VACARI              RUA CARLOS JOSE BORSTENS - 50 AP.93 - AV            11702750                                                            000005
2SR. CAIXA, APOS O VENCIMENTO COBRAR 2% DE MULTA                                 NAO RECEBER APOS 30 DIAS DO VENCIMENTO.                                                                                                                                                                                                         04112200000000000000411220000000000000       0090339900006270072943112219000006
100000000000000000000009033990000627000000000000000000000000010002020005071411221P00000000002            2  01050714112224112200000003747550000000001N041122000000000000000000000000000000000000000000000000000000000000000100005071481855ERIBALDO SANTANA CARVALHO               RUA HONDURAS - 477 - PARQUE DAS AMERICAS            09351070                                                            000008
2SR. CAIXA, APOS O VENCIMENTO COBRAR 2% DE MULTA                                 NAO RECEBER APOS 30 DIAS DO VENCIMENTO.                                                                                                                                                                                                         04112200000000000000411220000000000000       009033990000627005071411221P000009
100000000000000000000009033990000627000000000000000000000000010002020002841711221300000000002            2  01028417112224112200000003506170000000001N041122000000000000000000000000000000000000000000000000000000000000000100002841756416LUCIANA PINHEIRO DE ASSIS NUNES         RUA RIO ACIMA - 81 - RIACHO GRANDE - SAO            09830100                                                            000011
2SR. CAIXA, APOS O VENCIMENTO COBRAR 2% DE MULTA                                 NAO RECEBER APOS 30 DIAS DO VENCIMENTO.                                                                                                                                                                                                         04112200000000000000411220000000000000       0090339900006270028417112213000012
100000000000000000000009033990000627000000000000000000000000010002020084302011221200000000002            2  01843020112224112200000003523000000000001N041122000000000000000000000000000000000000000000000000000000000000000100084302097868FAUSTO TADEU VILOR                      RUA ANTONIO TAVARES - 466 - BAIRRO CAMBU            01542010                                                            000014
2SR. CAIXA, APOS O VENCIMENTO COBRAR 2% DE MULTA                                 NAO RECEBER APOS 30 DIAS DO VENCIMENTO.                                                                                                                                                                                                         04112200000000000000411220000000000000       0090339900006270843020112212000015
100000000000000000000009033990000627000000000000000000000000010002020028804211221200000000002            2  01288042112224112200000003461370000000001N041122000000000000000000000000000000000000000000000000000000000000000100028804202882GILBERTO FABIANO CABRAL DE CAMARGO      RUA CARLOS JOSE BORSTENS - 50 AP.44 - AV            11702750                                                            000017
2SR. CAIXA, APOS O VENCIMENTO COBRAR 2% DE MULTA                                 NAO RECEBER APOS 30 DIAS DO VENCIMENTO.                                                                                                                                                                                                         04112200000000000000411220000000000000       0090339900006270288042112212000018
100000000000000000000009033990000627000000000000000000000000010002020000991711221500000000002            2  01009917112224112200000003378440000000001N041122000000000000000000000000000000000000000000000000000000000000000100000991748808JAILSON BORGES DE ANDRADE               RUA IPIOBUNA - 45 - JARDIM CUMBICA - GUA            07240040                                                            000020
2SR. CAIXA, APOS O VENCIMENTO COBRAR 2% DE MULTA                                 NAO RECEBER APOS 30 DIAS DO VENCIMENTO.                                                                                                                                                                                                         04112200000000000000411220000000000000       0090339900006270009917112215000021
100000000000000000000009033990000627000000000000000000000000010002020022151611221100000000002            2  01221516112224112200000003358820000000001N041122000000000000000000000000000000000000000000000000000000000000000100022151666816SAMIR LIMA DE ARAUJO                    AVENIDA GUARAPIRANGA - 2616 AP.131 BL.14            04902005                                                            000023
2SR. CAIXA, APOS O VENCIMENTO COBRAR 2% DE MULTA                                 NAO RECEBER APOS 30 DIAS DO VENCIMENTO.                                                                                                                                                                                                         04112200000000000000411220000000000000       0090339900006270221516112211000024
100000000000000000000009033990000627000000000000000000000000010002020022313111221300000000002            2  01223131112226112200000002584720000000001N041122000000000000000000000000000000000000000000000000000000000000000100022313116824ROSA MARIA BRITO DA SILVA               RUA SERVIDAO DE SAO MARCOS - 128 CASA 1             04930300                                                            000026
2SR. CAIXA, APOS O VENCIMENTO COBRAR 2% DE MULTA                                 NAO RECEBER APOS 30 DIAS DO VENCIMENTO.                                                                                                                                                                                                         04112200000000000000411220000000000000       0090339900006270223131112213000027
100000000000000000000009033990000627000000000000000000000000010002020027538011221500000000002            2  01275380112226112200000002593730000000001N041122000000000000000000000000000000000000000000000000000000000000000100027538087249MARA LUCIA MENEZES DA COSTA             RUA LEILA  - 183 - ITAQUERA - SAO PAULO             08240020                                                            000029
2SR. CAIXA, APOS O VENCIMENTO COBRAR 2% DE MULTA                                 NAO RECEBER APOS 30 DIAS DO VENCIMENTO.                                                                                                                                                                                                         04112200000000000000411220000000000000       0090339900006270275380112215000030
100000000000000000000009033990000627000000000000000000000000010002020031278411221100000000002            2  01312784112224112200000003244720000000001N041122000000000000000000000000000000000000000000000000000000000000000100031278411836JEFFERSON DE PIERI PIRES ZAMUNER        RUA MANOEL ARCE - 277 - PARQUE BANCARIO             03922150                                                            000032
2SR. CAIXA, APOS O VENCIMENTO COBRAR 2% DE MULTA                                 NAO RECEBER APOS 30 DIAS DO VENCIMENTO.                                                                                                                                                                                                         04112200000000000000411220000000000000       0090339900006270312784112211000033
100000000000000000000009033990000627000000000000000000000000010002020019185711221300000000002            2  01191857112226112200000002360360000000001N041122000000000000000000000000000000000000000000000000000000000000000100019185769800AGUINALDO PESSOA DE LIMA                RUA JANUARIO ZINGARO - 252 AP.303 BL.04             05794300                                                            000035
2SR. CAIXA, APOS O VENCIMENTO COBRAR 2% DE MULTA                                 NAO RECEBER APOS 30 DIAS DO VENCIMENTO.                                                                                                                                                                                                         04112200000000000000411220000000000000       0090339900006270191857112213000036
100000000000000000000009033990000627000000000000000000000000010002020033303611221400000000002            2  01333036112226112200000002542300000000001N041122000000000000000000000000000000000000000000000000000000000000000100033303645809JESSICA DA SILVA FREITAS                RUA ARILDO VALADAO - 120 - JARDIM GUAEMB            04814600                                                            000038
2SR. CAIXA, APOS O VENCIMENTO COBRAR 2% DE MULTA                                 NAO RECEBER APOS 30 DIAS DO VENCIMENTO.                                                                                                                                                                                                         04112200000000000000411220000000000000       0090339900006270333036112214000039
100000000000000000000009033990000627000000000000000000000000010002020006422611221P00000000002            2  01064226112224112200000003514110000000001N041122000000000000000000000000000000000000000000000000000000000000000100006422607881GERALDO ALVES DA SILVA                  RUA CARLOS JOSE BORSTENS - 50 AP.14 - AV            11702750                                                            000041
2SR. CAIXA, APOS O VENCIMENTO COBRAR 2% DE MULTA                                 NAO RECEBER APOS 30 DIAS DO VENCIMENTO.                                                                                                                                                                                                         04112200000000000000411220000000000000       009033990000627006422611221P000042
100000000000000000000009033990000627000000000000000000000000010002020033877111221100000000002            2  01338771112226112200000002383480000000001N041122000000000000000000000000000000000000000000000000000000000000000100033877129870HELDER FERREIRA VIANA                   RUA JOSE CALIXTO DO CARMO - 286 AP.35 -             11702690                                                            000044
2SR. CAIXA, APOS O VENCIMENTO COBRAR 2% DE MULTA                                 NAO RECEBER APOS 30 DIAS DO VENCIMENTO.                                                                                                                                                                                                         04112200000000000000411220000000000000       0090339900006270338771112211000045
100000000000000000000009033990000627000000000000000000000000010002020028290711221500000000002            2  01282907112226112200000002196710000000001N041122000000000000000000000000000000000000000000000000000000000000000100028290719809VANESSA GIANGARRELLI PEREIRA            RUA BARINEL - 72 - JARDIM COTCHING - SAO            03462130                                                            000047
2SR. CAIXA, APOS O VENCIMENTO COBRAR 2% DE MULTA                                 NAO RECEBER APOS 30 DIAS DO VENCIMENTO.                                                                                                                                                                                                         04112200000000000000411220000000000000       0090339900006270282907112215000048
100000000000000000000009033990000627000000000000000000000000010002020087573011221000000000002            2  01875730112226112200000002398770000000001N041122000000000000000000000000000000000000000000000000000000000000000100087573059604VANDERLEY DE ASSIS                      RUA ROMEU ALBANI - 268 - JARDIM PARQUE R            13803810                                                            000050
2SR. CAIXA, APOS O VENCIMENTO COBRAR 2% DE MULTA                                 NAO RECEBER APOS 30 DIAS DO VENCIMENTO.                                                                                                                                                                                                         04112200000000000000411220000000000000       0090339900006270875730112210000051
100000000000000000000009033990000627000000000000000000000000010002020010825511221800000000002            2  01108255112226112200000002503230000000001N041122000000000000000000000000000000000000000000000000000000000000000100010825513847JOSE APARECIDO PEREIRA                  RUA GENERAL OSORIO - 305 - JARDIM TRINTA            11515130                                                            000053
2SR. CAIXA, APOS O VENCIMENTO COBRAR 2% DE MULTA                                 NAO RECEBER APOS 30 DIAS DO VENCIMENTO.                                                                                                                                                                                                         04112200000000000000411220000000000000       0090339900006270108255112218000054
100000000000000000000009033990000627000000000000000000000000010002020039115111221P00000000002            2  01391151112226112200000003085670000000001N041122000000000000000000000000000000000000000000000000000000000000000100039115139840LAIS CRISTINA RIBEIRO ANDO              RUA JOSE CALIXTO DO CARMO - 286 AP.65 -             11702690                                                            000056
2SR. CAIXA, APOS O VENCIMENTO COBRAR 2% DE MULTA                                 NAO RECEBER APOS 30 DIAS DO VENCIMENTO.                                                                                                                                                                                                         04112200000000000000411220000000000000       009033990000627039115111221P000057
100000000000000000000009033990000627000000000000000000000000010002020029617511221800000000002            2  01296175112224112200000003449200000000001N041122000000000000000000000000000000000000000000000000000000000000000100029617510553MARILENE SOUZA DE OLIVEIRA              RUA DAS MONCOES - 460 AP.95 - BAIRRO JAR            09090521                                                            000059
2SR. CAIXA, APOS O VENCIMENTO COBRAR 2% DE MULTA                                 NAO RECEBER APOS 30 DIAS DO VENCIMENTO.                                                                                                                                                                                                         04112200000000000000411220000000000000       0090339900006270296175112218000060
100000000000000000000009033990000627000000000000000000000000010002020000593211221800000000002            2  01005932112224112200000003782930000000001N041122000000000000000000000000000000000000000000000000000000000000000100000593293860WALTER HELIO BARBOSA FILHO              AVENIDA ANTONIO FREDERICO OZANAN - 9500             13214206                                                            000062
2SR. CAIXA, APOS O VENCIMENTO COBRAR 2% DE MULTA                                 NAO RECEBER APOS 30 DIAS DO VENCIMENTO.                                                                                                                                                                                                         04112200000000000000411220000000000000       0090339900006270005932112218000063
100000000000000000000009033990000627000000000000000000000000010002020065584111221P00000000002            2  01655841112224112200000001985840000000001N041122000000000000000000000000000000000000000000000000000000000000000100065584147834JOAQUIM DA COSTA MACHADO NETO           RUA CARLOS JOSE BORSTENS - 50 AP.42 - AV            11702750                                                            000065
2SR. CAIXA, APOS O VENCIMENTO COBRAR 2% DE MULTA                                 NAO RECEBER APOS 30 DIAS DO VENCIMENTO.                                                                                                                                                                                                         04112200000000000000411220000000000000       009033990000627065584111221P000066
100000000000000000000009033990000627000000000000000000000000010002020065584111222800000000002            2  01655841112224112200000001985830000000001N041122000000000000000000000000000000000000000000000000000000000000000100065584147834JOAQUIM DA COSTA MACHADO NETO           RUA CARLOS JOSE BORSTENS - 50 AP.42 - AV            11702750                                                            000068
2SR. CAIXA, APOS O VENCIMENTO COBRAR 2% DE MULTA                                 NAO RECEBER APOS 30 DIAS DO VENCIMENTO.                                                                                                                                                                                                         04112200000000000000411220000000000000       0090339900006270655841112228000069
100000000000000000000009033990000627000000000000000000000000010002020006684611221200000000002            2  01066846112226112200000002542010000000001N041122000000000000000000000000000000000000000000000000000000000000000100006684623884LAUDINOR VIEIRA GARCIA                  RUA CANDIDO SALES - 374 - JARDIM PRESIDE            07172000                                                            000071
2SR. CAIXA, APOS O VENCIMENTO COBRAR 2% DE MULTA                                 NAO RECEBER APOS 30 DIAS DO VENCIMENTO.                                                                                                                                                                                                         04112200000000000000411220000000000000       0090339900006270066846112212000072
100000000000000000000009033990000627000000000000000000000000010002020011663511221300000000002            2  01116635112226112200000002560290000000001N041122000000000000000000000000000000000000000000000000000000000000000100011663589844MARIA SAVIO QUARELLO                    AVENIDA MENDONCA DRUMOND - 321 - JARDIM             03524030                                                            000074
2SR. CAIXA, APOS O VENCIMENTO COBRAR 2% DE MULTA                                 NAO RECEBER APOS 30 DIAS DO VENCIMENTO.                                                                                                                                                                                                         04112200000000000000411220000000000000       0090339900006270116635112213000075
100000000000000000000009033990000627000000000000000000000000010002020010083811221500000000002            2  01100838112226112200000002473670000000001N041122000000000000000000000000000000000000000000000000000000000000000100010083824855IONE FERREIRA COUTO DA SILVA            RUA JOSE RAGEL DE MESQUITA - 60 CS.01 -             07799999                                                            000077
2SR. CAIXA, APOS O VENCIMENTO COBRAR 2% DE MULTA                                 NAO RECEBER APOS 30 DIAS DO VENCIMENTO.                                                                                                                                                                                                         04112200000000000000411220000000000000       0090339900006270100838112215000078
100000000000000000000009033990000627000000000000000000000000010002020031010711221000000000002            2  01310107112226112200000002427460000000001N041122000000000000000000000000000000000000000000000000000000000000000100031010705890ANDRE GONZALEZ RABELLO                  RUA PARAIBA - 106 AP.61 - POMPEIA - SANT            11065470                                                            000080
2SR. CAIXA, APOS O VENCIMENTO COBRAR 2% DE MULTA                                 NAO RECEBER APOS 30 DIAS DO VENCIMENTO.                                                                                                                                                                                                         04112200000000000000411220000000000000       0090339900006270310107112210000081
100000000000000000000009033990000627000000000000000000000000010002020005351011221P00000000002            2  01053510112226112200000002275980000000001N041122000000000000000000000000000000000000000000000000000000000000000100005351015897VALERIA ALVES MARCOLINO HINNIGER        RUA JOSE CALIXTO DO CARMO - 286 AP.92 -             11702690                                                            000083
2SR. CAIXA, APOS O VENCIMENTO COBRAR 2% DE MULTA                                 NAO RECEBER APOS 30 DIAS DO VENCIMENTO.                                                                                                                                                                                                         04112200000000000000411220000000000000       009033990000627005351011221P000084
100000000000000000000009033990000627000000000000000000000000010002020031898711221500000000002            2  01318987112224112200000003619660000000001N041122000000000000000000000000000000000000000000000000000000000000000100031898775800ANITA MARTINS COLOMBO                   RUA CARLOS JOSE BORSTENS - 50 AP.115 - A            11702750                                                            000086
2SR. CAIXA, APOS O VENCIMENTO COBRAR 2% DE MULTA                                 NAO RECEBER APOS 30 DIAS DO VENCIMENTO.                                                                                                                                                                                                         04112200000000000000411220000000000000       0090339900006270318987112215000087
100000000000000000000009033990000627000000000000000000000000010002020037983411221500000000002            2  01379834112226112200000002673580000000001N041122000000000000000000000000000000000000000000000000000000000000000100037983484801JOSE ERIVALDO SOUZA DO NASCIMENTO RAMOS RUA LETICIA - 250 - JARDIM GUARUJA - SAO            05877260                                                            000089
2SR. CAIXA, APOS O VENCIMENTO COBRAR 2% DE MULTA                                 NAO RECEBER APOS 30 DIAS DO VENCIMENTO.                                                                                                                                                                                                         04112200000000000000411220000000000000       0090339900006270379834112215000090
100000000000000000000009033990000627000000000000000000000000010002020056289211221600000000002            2  01562892112226112200000002019720000000001N041122000000000000000000000000000000000000000000000000000000000000000100056289286900PEDRO RIBEIRO                           RUA CONEGO MANOEL VAZ - 48 - SANTANA - S            02019050                                                            000092
2SR. CAIXA, APOS O VENCIMENTO COBRAR 2% DE MULTA                                 NAO RECEBER APOS 30 DIAS DO VENCIMENTO.                                                                                                                                                                                                         04112200000000000000411220000000000000       0090339900006270562892112216000093
100000000000000000000009033990000627000000000000000000000000010002020034735311221200000000002            2  01347353112226112200000002771980000000001N041122000000000000000000000000000000000000000000000000000000000000000100034735328866DIEGO FELIPE MOLINA DA SILVA E SOUSA    RUA EMILIA PAULISTA - 135 - VILA TIRADEN            05364020                                                            000095
2SR. CAIXA, APOS O VENCIMENTO COBRAR 2% DE MULTA                                 NAO RECEBER APOS 30 DIAS DO VENCIMENTO.                                                                                                                                                                                                         04112200000000000000411220000000000000       0090339900006270347353112212000096
100000000000000000000009033990000627000000000000000000000000010002020034812211221600000000002            2  01348122112224112200000004790800000000001N041122000000000000000000000000000000000000000000000000000000000000000100034812226880THAIS TORQUATO MIMOSO DE JESUS          RUA ARNALDO CINTRA - 416 AP.104 TORRE 2             03088000                                                            000098
2SR. CAIXA, APOS O VENCIMENTO COBRAR 2% DE MULTA                                 NAO RECEBER APOS 30 DIAS DO VENCIMENTO.                                                                                                                                                                                                         04112200000000000000411220000000000000       0090339900006270348122112216000099
100000000000000000000009033990000627000000000000000000000000010002020012849411221200000000002            2  01128494112226112200000004775370000000001N041122000000000000000000000000000000000000000000000000000000000000000100012849428809MOISES CLAUDIO DO ROSARIO               AVENIDA DR. AUGUSTO DE TOLEDO - 510 AP.1            09541520                                                            000101
2SR. CAIXA, APOS O VENCIMENTO COBRAR 2% DE MULTA                                 NAO RECEBER APOS 30 DIAS DO VENCIMENTO.                                                                                                                                                                                                         04112200000000000000411220000000000000       0090339900006270128494112212000102
100000000000000000000009033990000627000000000000000000000000010002020003658611221700000000002            2  01036586112226112200000001972790000000001N041122000000000000000000000000000000000000000000000000000000000000000100003658668814MARINEZ VALENTIN                        RUA JOSE CALIXTO DO CARMO - 286 AP.95 -             11702690                                                            000104
2SR. CAIXA, APOS O VENCIMENTO COBRAR 2% DE MULTA                                 NAO RECEBER APOS 30 DIAS DO VENCIMENTO.                                                                                                                                                                                                         04112200000000000000411220000000000000       0090339900006270036586112217000105
100000000000000000000009033990000627000000000000000000000000010002020003658611222500000000002            2  01036586112226112200000001972780000000001N041122000000000000000000000000000000000000000000000000000000000000000100003658668814MARINEZ VALENTIN                        RUA JOSE CALIXTO DO CARMO - 286 AP.95 -             11702690                                                            000107
2SR. CAIXA, APOS O VENCIMENTO COBRAR 2% DE MULTA                                 NAO RECEBER APOS 30 DIAS DO VENCIMENTO.                                                                                                                                                                                                         04112200000000000000411220000000000000       0090339900006270036586112225000108
100000000000000000000009033990000627000000000000000000000000010002020014087411221500000000002            2  01140874112226112200000002636490000000001N041122000000000000000000000000000000000000000000000000000000000000000100014087484874SERGIO SANTOS DO NASCIMENTO             RUA JOSE CALIXTO DO CARMO - 286 AP.52 -             11702690                                                            000110
2SR. CAIXA, APOS O VENCIMENTO COBRAR 2% DE MULTA                                 NAO RECEBER APOS 30 DIAS DO VENCIMENTO.                                                                                                                                                                                                         04112200000000000000411220000000000000       0090339900006270140874112215000111
100000000000000000000009033990000627000000000000000000000000010002020026834511221400000000002            2  01268345112226112200000002429210000000001N041122000000000000000000000000000000000000000000000000000000000000000100026834550895RAQUEL CARDOSO JOAO                     RUA PEDROSO XAVIER - 277 AP.23 TORRE 01             02732020                                                            000113
2SR. CAIXA, APOS O VENCIMENTO COBRAR 2% DE MULTA                                 NAO RECEBER APOS 30 DIAS DO VENCIMENTO.                                                                                                                                                                                                         04112200000000000000411220000000000000       0090339900006270268345112214000114
100000000000000000000009033990000627000000000000000000000000010002020039540011221200000000002            2  01395400112226112200000002388240000000001N041122000000000000000000000000000000000000000000000000000000000000000100039540008816LUZINETE CLARINDO SILVA                 RUA DEINOS - 275 - BAIRRO CIDADE SATELIT            08340100                                                            000116
2SR. CAIXA, APOS O VENCIMENTO COBRAR 2% DE MULTA                                 NAO RECEBER APOS 30 DIAS DO VENCIMENTO.                                                                                                                                                                                                         04112200000000000000411220000000000000       0090339900006270395400112212000117
100000000000000000000009033990000627000000000000000000000000010002020003311011221P00000000002            2  01033110112226112200000002487070000000001N041122000000000000000000000000000000000000000000000000000000000000000100003311030877SEBASTIAO SARUVA NETO                   RUA HAMILTON REGIS - 559 - BAIRRO DO LIM            08051440                                                            000119
2SR. CAIXA, APOS O VENCIMENTO COBRAR 2% DE MULTA                                 NAO RECEBER APOS 30 DIAS DO VENCIMENTO.                                                                                                                                                                                                         04112200000000000000411220000000000000       009033990000627003311011221P000120
100000000000000000000009033990000627000000000000000000000000010002020090091911221600000000002            2  01900919112226112200000002377270000000001N041122000000000000000000000000000000000000000000000000000000000000000100090091990882JUECIR CARVALHO DA LUZ                  RUA JOSE CALIXTO DO CARMO - 286 AP.114 -            11702690                                                            000122
2SR. CAIXA, APOS O VENCIMENTO COBRAR 2% DE MULTA                                 NAO RECEBER APOS 30 DIAS DO VENCIMENTO.                                                                                                                                                                                                         04112200000000000000411220000000000000       0090339900006270900919112216000123
100000000000000000000009033990000627000000000000000000000000010002020037325911221800000000002            2  01373259112226112200000001945460000000001N041122000000000000000000000000000000000000000000000000000000000000000100037325923830MARIA AUGUSTA OLIVEIRA DE ANDRADE       RUA JOSE CALIXTO DO CARMO - 286 AP.124 -            11702690                                                            000125
2SR. CAIXA, APOS O VENCIMENTO COBRAR 2% DE MULTA                                 NAO RECEBER APOS 30 DIAS DO VENCIMENTO.                                                                                                                                                                                                         04112200000000000000411220000000000000       0090339900006270373259112218000126
100000000000000000000009033990000627000000000000000000000000010002020012478811221500000000002            2  01124788112224112200000012414350000000001N041122000000000000000000000000000000000000000000000000000000000000000100012478899809VITORIA BATISTA QUEIROZ                 RUA CARVALHO DE FREITAS - 255 AP.71A - V            05728030                                                            000128
2SR. CAIXA, APOS O VENCIMENTO COBRAR 2% DE MULTA                                 NAO RECEBER APOS 30 DIAS DO VENCIMENTO.                                                                                                                                                                                                         04112200000000000000411220000000000000       0090339900006270124788112215000129
100000000000000000000009033990000627000000000000000000000000010002020012478811222300000000002            2  01124788112224112200000003540480000000001N041122000000000000000000000000000000000000000000000000000000000000000100012478899809VITORIA BATISTA QUEIROZ                 RUA CARVALHO DE FREITAS - 255 AP.71A - V            05728030                                                            000131
2SR. CAIXA, APOS O VENCIMENTO COBRAR 2% DE MULTA                                 NAO RECEBER APOS 30 DIAS DO VENCIMENTO.                                                                                                                                                                                                         04112200000000000000411220000000000000       0090339900006270124788112223000132
100000000000000000000009033990000627000000000000000000000000010002020013184811221600000000002            2  01131848112226112200000002350240000000001N041122000000000000000000000000000000000000000000000000000000000000000100013184856810SYDNEY HENRIQUE GAMARANO JUNIOR         RUA JOSE CALIXTO DO CARMO - 286 AP.125 -            11702690                                                            000134
2SR. CAIXA, APOS O VENCIMENTO COBRAR 2% DE MULTA                                 NAO RECEBER APOS 30 DIAS DO VENCIMENTO.                                                                                                                                                                                                         04112200000000000000411220000000000000       0090339900006270131848112216000135
100000000000000000000009033990000627000000000000000000000000010002020097989911221P00000000002            2  01979899112226112200000001633280000000001N041122000000000000000000000000000000000000000000000000000000000000000100097989924820NELSON LUIS BERRIBILLE                  RUA SILVEIRA IGNACIO SOBRINHO - 965 - VI            13560294                                                            000137
2SR. CAIXA, APOS O VENCIMENTO COBRAR 2% DE MULTA                                 NAO RECEBER APOS 30 DIAS DO VENCIMENTO.                                                                                                                                                                                                         04112200000000000000411220000000000000       009033990000627097989911221P000138
100000000000000000000009033990000627000000000000000000000000010002020032341811221900000000002            2  01323418112224112200000003677560000000001N041122000000000000000000000000000000000000000000000000000000000000000100032341847803PRISCILA ALVES DE FRANCA MIRANDA        RUA CARLOS JOSE BORSTENS - 50 AP.91 - AV            11702750                                                            000140
2SR. CAIXA, APOS O VENCIMENTO COBRAR 2% DE MULTA                                 NAO RECEBER APOS 30 DIAS DO VENCIMENTO.                                                                                                                                                                                                         04112200000000000000411220000000000000       0090339900006270323418112219000141
100000000000000000000009033990000627000000000000000000000000010002020016050611221400000000002            2  01160506112224112200000003413480000000001N041122000000000000000000000000000000000000000000000000000000000000000100016050684898ANDRE RODRIGUES DE OLIVEIRA             RUA CORACAO PAULISTA - 14 - FAZENDA ITAI            08132430                                                            000143
2SR. CAIXA, APOS O VENCIMENTO COBRAR 2% DE MULTA                                 NAO RECEBER APOS 30 DIAS DO VENCIMENTO.                                                                                                                                                                                                         04112200000000000000411220000000000000       0090339900006270160506112214000144
100000000000000000000009033990000627000000000000000000000000010002020021464911221800000000002            2  01214649112224112200000005379740000000001N041122000000000000000000000000000000000000000000000000000000000000000100021464965846ANDREA APARECIDA DE OLIVEIRA PECCI      RUA ANTONIO BOZ MARFIL - 103 - PARQUE DO            05396020                                                            000146
2SR. CAIXA, APOS O VENCIMENTO COBRAR 2% DE MULTA                                 NAO RECEBER APOS 30 DIAS DO VENCIMENTO.                                                                                                                                                                                                         04112200000000000000411220000000000000       0090339900006270214649112218000147
100000000000000000000009033990000627000000000000000000000000010002020030348111221P00000000002            2  01303481112224112200000003259570000000001N041122000000000000000000000000000000000000000000000000000000000000000100030348198892KELLY CRISTINA CORDEIRO                 RUA CARLOS JOSE BORSTENS - 50 AP.25 - AV            11702750                                                            000149
2SR. CAIXA, APOS O VENCIMENTO COBRAR 2% DE MULTA                                 NAO RECEBER APOS 30 DIAS DO VENCIMENTO.                                                                                                                                                                                                         04112200000000000000411220000000000000       009033990000627030348111221P000150
9                                                                                                                                                                                                                                                                                                                                                                                                         000151