01REMESSA01COBRANCA       00000000000008017025HB SANTOS CONSTRUTORA E INCORP237BRADESCO       010220        MX0000096                                                                                                                                                                                                                                                                                     000001
100000000000000000000009033990000627000000000000000000000000010002020029671502201900000000002            2  01296715022009022000000002628460000000001N010220000000000000000000000000000000000000000000000000000000000000000100029671526845ROGERIO CONSENTINO                      RUA CARLOS MAZER  - 678 - VILA CARMOSINA            08290700                                                            000002
2SR. CAIXA, APOS O VENCIMENTO COBRAR 2% DE MULTA                                 NAO RECEBER APOS 30 DIAS DO VENCIMENTO.                                                                                                                                                                                                         01022000000000000000102200000000000000       0090339900006270296715022019000003
100000000000000000000009033990000627000000000000000000000000010002020003863002201000000000002            2  01038630022009022000000002482790000000001N010220000000000000000000000000000000000000000000000000000000000000000100003863075803HERALDO MENQUINI                        RUA CARLOS JOSE BORSTENS - 50 AP.15 - AV            11702750                                                            000005
2SR. CAIXA, APOS O VENCIMENTO COBRAR 2% DE MULTA                                 NAO RECEBER APOS 30 DIAS DO VENCIMENTO.                                                                                                                                                                                                         01022000000000000000102200000000000000       0090339900006270038630022010000006
100000000000000000000009033990000627000000000000000000000000010002020029028402201800000000002            2  01290284022009022000000002543370000000001N010220000000000000000000000000000000000000000000000000000000000000000100029028478825LEONARDO LOUZADA                        RUA CARLOS JOSE BORSTENS - 50 AP.35 - AV            11702750                                                            000008
2SR. CAIXA, APOS O VENCIMENTO COBRAR 2% DE MULTA                                 NAO RECEBER APOS 30 DIAS DO VENCIMENTO.                                                                                                                                                                                                         01022000000000000000102200000000000000       0090339900006270290284022018000009
100000000000000000000009033990000627000000000000000000000000010002020032878502201500000000002            2  01328785022009022000000003675690000000001N010220000000000000000000000000000000000000000000000000000000000000000100032878512847LEONARDO MOURA MONIZ CALDEIRA           RUA BALSA - 682 AP.134 T.02 - VILA ARCAD            02910000                                                            000011
2SR. CAIXA, APOS O VENCIMENTO COBRAR 2% DE MULTA                                 NAO RECEBER APOS 30 DIAS DO VENCIMENTO.                                                                                                                                                                                                         01022000000000000000102200000000000000       0090339900006270328785022015000012
100000000000000000000009033990000627000000000000000000000000010002020016479002201200000000002            2  01164790022009022000000003910270000000001N010220000000000000000000000000000000000000000000000000000000000000000100016479002806LOURDES PEREIRA DE QUEIROZ SECANECHIA   RUA PAULINO CURSI - 437 - CIDADE SAO MAT            03960060                                                            000014
2SR. CAIXA, APOS O VENCIMENTO COBRAR 2% DE MULTA                                 NAO RECEBER APOS 30 DIAS DO VENCIMENTO.                                                                                                                                                                                                         01022000000000000000102200000000000000       0090339900006270164790022012000015
100000000000000000000009033990000627000000000000000000000000010002020019635002201P00000000002            2  01196350022009022000000002885100000000001N010220000000000000000000000000000000000000000000000000000000000000000100019635091885IVAN VIEIRA SILVA                       ABRAO JORGE - 3001 - JARDIM INTEGRACAO -            14405397                                                            000017
2SR. CAIXA, APOS O VENCIMENTO COBRAR 2% DE MULTA                                 NAO RECEBER APOS 30 DIAS DO VENCIMENTO.                                                                                                                                                                                                         01022000000000000000102200000000000000       009033990000627019635002201P000018
100000000000000000000009033990000627000000000000000000000000010002020009361402201P00000000002            2  01093614022009022000000002838870000000001N010220000000000000000000000000000000000000000000000000000000000000000100009361471805JOSE BARBOSA DA SILVA                   RUA ALFREDO INACIO TRINDADE  - 60 AP.44             02344100                                                            000020
2SR. CAIXA, APOS O VENCIMENTO COBRAR 2% DE MULTA                                 NAO RECEBER APOS 30 DIAS DO VENCIMENTO.                                                                                                                                                                                                         01022000000000000000102200000000000000       009033990000627009361402201P000021
100000000000000000000009033990000627000000000000000000000000010002020012756902201300000000002            2  01127569022009022000000002450560000000001N010220000000000000000000000000000000000000000000000000000000000000000100012756959812ITAMAR JUVENAL DIAS DA SILVA            RUA ELISEU REINALDO MORAES VIEIRA - 90 A            02858000                                                            000023
2SR. CAIXA, APOS O VENCIMENTO COBRAR 2% DE MULTA                                 NAO RECEBER APOS 30 DIAS DO VENCIMENTO.                                                                                                                                                                                                         01022000000000000000102200000000000000       0090339900006270127569022013000024
100000000000000000000009033990000627000000000000000000000000010002020002731002201000000000002            2  01027310022009022000000002897230000000001N010220000000000000000000000000000000000000000000000000000000000000000100002731042842VALTER CERQUEIRA VILLA NOVA             RUA MACHADO - 106 - VILA AUGUSTA - GUARU            07025210                                                            000026
2SR. CAIXA, APOS O VENCIMENTO COBRAR 2% DE MULTA                                 NAO RECEBER APOS 30 DIAS DO VENCIMENTO.                                                                                                                                                                                                         01022000000000000000102200000000000000       0090339900006270027310022010000027
100000000000000000000009033990000627000000000000000000000000010002020002731002202900000000002            2  01027310022009022000000002897220000000001N010220000000000000000000000000000000000000000000000000000000000000000100002731042842VALTER CERQUEIRA VILLA NOVA             RUA MACHADO - 106 - VILA AUGUSTA - GUARU            07025210                                                            000029
2SR. CAIXA, APOS O VENCIMENTO COBRAR 2% DE MULTA                                 NAO RECEBER APOS 30 DIAS DO VENCIMENTO.                                                                                                                                                                                                         01022000000000000000102200000000000000       0090339900006270027310022029000030
100000000000000000000009033990000627000000000000000000000000010002020028802102201900000000002            2  01288021022009022000000002616120000000001N010220000000000000000000000000000000000000000000000000000000000000000100028802158894ELIEL HENRIQUE ZUZA                     RUA CARLOS JOSE BORSTENS - 50 AP.43 - BA            11702750                                                            000032
2SR. CAIXA, APOS O VENCIMENTO COBRAR 2% DE MULTA                                 NAO RECEBER APOS 30 DIAS DO VENCIMENTO.                                                                                                                                                                                                         01022000000000000000102200000000000000       0090339900006270288021022019000033
100000000000000000000009033990000627000000000000000000000000010002020008739102201200000000002            2  01087391022009022000000002446750000000001N010220000000000000000000000000000000000000000000000000000000000000000100008739150895VANGEVALDO BATISTA SANT ANNA            TRAVESSA TOMAZIN - 02 - ERMELINO MATARAZ            03811125                                                            000035
2SR. CAIXA, APOS O VENCIMENTO COBRAR 2% DE MULTA                                 NAO RECEBER APOS 30 DIAS DO VENCIMENTO.                                                                                                                                                                                                         01022000000000000000102200000000000000       0090339900006270087391022012000036
100000000000000000000009033990000627000000000000000000000000010002020005313702201900000000002            2  01053137022011022000000002114720000000001N010220000000000000000000000000000000000000000000000000000000000000000100005313717863EDIMICIO JOSE DE ARAUJO                 PRACA NICOLAU GERAIGIRE - 680 CA A - JAR            11095110                                                            000038
2SR. CAIXA, APOS O VENCIMENTO COBRAR 2% DE MULTA                                 NAO RECEBER APOS 30 DIAS DO VENCIMENTO.                                                                                                                                                                                                         01022000000000000000102200000000000000       0090339900006270053137022019000039
100000000000000000000009033990000627000000000000000000000000010002020029433602201700000000002            2  01294336022011022000000002031520000000001N010220000000000000000000000000000000000000000000000000000000000000000100029433631897MARIO MUNIZ                             RUA JOSE CALIXTO DO CARMO - 286 AP.53 -             11702690                                                            000041
2SR. CAIXA, APOS O VENCIMENTO COBRAR 2% DE MULTA                                 NAO RECEBER APOS 30 DIAS DO VENCIMENTO.                                                                                                                                                                                                         01022000000000000000102200000000000000       0090339900006270294336022017000042
100000000000000000000009033990000627000000000000000000000000010002020001847202201500000000002            2  01018472022011022000000001870260000000001N010220000000000000000000000000000000000000000000000000000000000000000100001847204864AMERICA CONCEICAO DA SILVA              RUA JOSE CALIXTO DO CARMO - 286 AP.44 -             11702690                                                            000044
2SR. CAIXA, APOS O VENCIMENTO COBRAR 2% DE MULTA                                 NAO RECEBER APOS 30 DIAS DO VENCIMENTO.                                                                                                                                                                                                         01022000000000000000102200000000000000       0090339900006270018472022015000045
100000000000000000000009033990000627000000000000000000000000010002020005029802201P00000000002            2  01050298022009022000000002498500000000001N010220000000000000000000000000000000000000000000000000000000000000000100005029828885LAURINETE DA CONCEICAO DE NORONHA       RUA MARIA LUCIA DE TOLEDO LEITE MORAES -            04434040                                                            000047
2SR. CAIXA, APOS O VENCIMENTO COBRAR 2% DE MULTA                                 NAO RECEBER APOS 30 DIAS DO VENCIMENTO.                                                                                                                                                                                                         01022000000000000000102200000000000000       009033990000627005029802201P000048
100000000000000000000009033990000627000000000000000000000000010002020013388902201100000000002            2  01133889022011022000000001980420000000001N010220000000000000000000000000000000000000000000000000000000000000000100013388936889NEUTON DE SOUZA RAMOS                   RUA MARIA CRISTINA - 932 - JARDIM CASQUE            11533160                                                            000050
2SR. CAIXA, APOS O VENCIMENTO COBRAR 2% DE MULTA                                 NAO RECEBER APOS 30 DIAS DO VENCIMENTO.                                                                                                                                                                                                         01022000000000000000102200000000000000       0090339900006270133889022011000051
100000000000000000000009033990000627000000000000000000000000010002020012774902201100000000002            2  01127749022011022000000002017610000000001N010220000000000000000000000000000000000000000000000000000000000000000100012774906865JOSE MILTON SANTIAGO                    RUA BATATAIS - 47 - CIDADE ESTELA - POA             08563140                                                            000053
2SR. CAIXA, APOS O VENCIMENTO COBRAR 2% DE MULTA                                 NAO RECEBER APOS 30 DIAS DO VENCIMENTO.                                                                                                                                                                                                         01022000000000000000102200000000000000       0090339900006270127749022011000054
100000000000000000000009033990000627000000000000000000000000010002020016294102201700000000002            2  01162941022009022000000002480580000000001N010220000000000000000000000000000000000000000000000000000000000000000100016294119812JURACY FELIX DE ARRUDA                  RUA CARLOS JOSE BORSTENS - 50 AP.23 - AV            11702750                                                            000056
2SR. CAIXA, APOS O VENCIMENTO COBRAR 2% DE MULTA                                 NAO RECEBER APOS 30 DIAS DO VENCIMENTO.                                                                                                                                                                                                         01022000000000000000102200000000000000       0090339900006270162941022017000057
100000000000000000000009033990000627000000000000000000000000010002020005613802201100000000002            2  01056138022011022000000001855640000000001N010220000000000000000000000000000000000000000000000000000000000000000100005613843805NILZA MARIA DE OLIVEIRA                 RUA JOSE GONCALVES DE FREITAS - 66 C2 -             08210550                                                            000059
2SR. CAIXA, APOS O VENCIMENTO COBRAR 2% DE MULTA                                 NAO RECEBER APOS 30 DIAS DO VENCIMENTO.                                                                                                                                                                                                         01022000000000000000102200000000000000       0090339900006270056138022011000060
100000000000000000000009033990000627000000000000000000000000010002020007574902201100000000002            2  01075749022011022000000001904770000000001N010220000000000000000000000000000000000000000000000000000000000000000100007574936889JORGE LUCIANO PEREIRA BORRIELLO         RUA JOSE CALIXTO DO CARMO - 286 AP.54 -             11702690                                                            000062
2SR. CAIXA, APOS O VENCIMENTO COBRAR 2% DE MULTA                                 NAO RECEBER APOS 30 DIAS DO VENCIMENTO.                                                                                                                                                                                                         01022000000000000000102200000000000000       0090339900006270075749022011000063
100000000000000000000009033990000627000000000000000000000000010002020008214902201400000000002            2  01082149022011022000000001933680000000001N010220000000000000000000000000000000000000000000000000000000000000000100008214973830JAMIL CHALA                             RUA JOSE CALIXTO DO CARMO - 286 AP.22 -             11702690                                                            000065
2SR. CAIXA, APOS O VENCIMENTO COBRAR 2% DE MULTA                                 NAO RECEBER APOS 30 DIAS DO VENCIMENTO.                                                                                                                                                                                                         01022000000000000000102200000000000000       0090339900006270082149022014000066
100000000000000000000009033990000627000000000000000000000000010002020032495002201100000000002            2  01324950022011022000000002166930000000001N010220000000000000000000000000000000000000000000000000000000000000000100032495004881PAULO EDUARDO DOS SANTOS                RUA REPUBLICA DO IRAQUE - 1119 - CAMPO B            04611002                                                            000068
2SR. CAIXA, APOS O VENCIMENTO COBRAR 2% DE MULTA                                 NAO RECEBER APOS 30 DIAS DO VENCIMENTO.                                                                                                                                                                                                         01022000000000000000102200000000000000       0090339900006270324950022011000069
100000000000000000000009033990000627000000000000000000000000010002020006471802201100000000002            2  01064718022009022000000002442180000000001N010220000000000000000000000000000000000000000000000000000000000000000100006471825803JOSIVALDO BASTOS DE OLIVEIRA            RUA MARIA DIAS HOG - 263 - PARQUE CONTIN            07085035                                                            000071
2SR. CAIXA, APOS O VENCIMENTO COBRAR 2% DE MULTA                                 NAO RECEBER APOS 30 DIAS DO VENCIMENTO.                                                                                                                                                                                                         01022000000000000000102200000000000000       0090339900006270064718022011000072
100000000000000000000009033990000627000000000000000000000000010002020038856802201800000000002            2  01388568022011022000000002008790000000001N010220000000000000000000000000000000000000000000000000000000000000000100038856851830FELIPE BIANCHI DA COSTA FREITAS         RUA JOSE CALIXTO DO CARMO - 286 AP.23 -             11702690                                                            000074
2SR. CAIXA, APOS O VENCIMENTO COBRAR 2% DE MULTA                                 NAO RECEBER APOS 30 DIAS DO VENCIMENTO.                                                                                                                                                                                                         01022000000000000000102200000000000000       0090339900006270388568022018000075
100000000000000000000009033990000627000000000000000000000000010002020016498002201900000000002            2  01164980022011022000000001900450000000001N010220000000000000000000000000000000000000000000000000000000000000000100016498053810GILMA CEZARIO GARCIA CORRITORI          RUA LAURENTINO XAVIER DOS SANTOS - 336 -            08240740                                                            000077
2SR. CAIXA, APOS O VENCIMENTO COBRAR 2% DE MULTA                                 NAO RECEBER APOS 30 DIAS DO VENCIMENTO.                                                                                                                                                                                                         01022000000000000000102200000000000000       0090339900006270164980022019000078
100000000000000000000009033990000627000000000000000000000000010002020029339002201800000000002            2  01293390022011022000000002032200000000001N010220000000000000000000000000000000000000000000000000000000000000000100029339051831RONALD DIDOFF                           RUA CORONEL FERREIRA BRAGA - 188 - VILA             03522010                                                            000080
2SR. CAIXA, APOS O VENCIMENTO COBRAR 2% DE MULTA                                 NAO RECEBER APOS 30 DIAS DO VENCIMENTO.                                                                                                                                                                                                         01022000000000000000102200000000000000       0090339900006270293390022018000081
100000000000000000000009033990000627000000000000000000000000010002020017357802201P00000000002            2  01173578022011022000000002152280000000001N010220000000000000000000000000000000000000000000000000000000000000000100017357859894MARCIO GUIMARAES                        RUA GENERAL CAMARA - 188 SALA 11 - CENTR            11010120                                                            000083
2SR. CAIXA, APOS O VENCIMENTO COBRAR 2% DE MULTA                                 NAO RECEBER APOS 30 DIAS DO VENCIMENTO.                                                                                                                                                                                                         01022000000000000000102200000000000000       009033990000627017357802201P000084
100000000000000000000009033990000627000000000000000000000000010002020010563002201P00000000002            2  01105630022011022000000002207300000000001N010220000000000000000000000000000000000000000000000000000000000000000100010563033878VERA LUCIA RIBEIRO LONGANEZI            RUA DOS CAMARES - 150 AP.24 BL.02 - CARA            02068030                                                            000086
2SR. CAIXA, APOS O VENCIMENTO COBRAR 2% DE MULTA                                 NAO RECEBER APOS 30 DIAS DO VENCIMENTO.                                                                                                                                                                                                         01022000000000000000102200000000000000       009033990000627010563002201P000087
100000000000000000000009033990000627000000000000000000000000010002020005529602201400000000002            2  01055296022011022000000002003040000000001N010220000000000000000000000000000000000000000000000000000000000000000100005529616801JOAQUIM JORGE DA COSTA                  RUA JOSE CALIXTO DO CARMO - 286 AP.106 -            11702690                                                            000089
2SR. CAIXA, APOS O VENCIMENTO COBRAR 2% DE MULTA                                 NAO RECEBER APOS 30 DIAS DO VENCIMENTO.                                                                                                                                                                                                         01022000000000000000102200000000000000       0090339900006270055296022014000090
100000000000000000000009033990000627000000000000000000000000010002020022014102201900000000002            2  01220141022011022000000001997210000000001N010220000000000000000000000000000000000000000000000000000000000000000100022014140847CAMILA SILVEIRA CANIZARES               AVENIDA PRESIDENTE CASTELO BRANCO - 5.74            11703650                                                            000092
2SR. CAIXA, APOS O VENCIMENTO COBRAR 2% DE MULTA                                 NAO RECEBER APOS 30 DIAS DO VENCIMENTO.                                                                                                                                                                                                         01022000000000000000102200000000000000       0090339900006270220141022019000093
100000000000000000000009033990000627000000000000000000000000010002020015550702201000000000002            2  01155507022009022000000001893850000000001N010220000000000000000000000000000000000000000000000000000000000000000100015550706806MARY MIWA                               RUA CARLOS JOSE BORSTENS - 50 AP.105 - A            11702750                                                            000095
2SR. CAIXA, APOS O VENCIMENTO COBRAR 2% DE MULTA                                 NAO RECEBER APOS 30 DIAS DO VENCIMENTO.                                                                                                                                                                                                         01022000000000000000102200000000000000       0090339900006270155507022010000096
100000000000000000000009033990000627000000000000000000000000010002020015464602201000000000002            2  01154646022011022000000002105680000000001N010220000000000000000000000000000000000000000000000000000000000000000100015464647864SONIA TERESA VOLPATO                    RUA JOSE CALIXTO DO CARMO - 286 AP.73 -             11702690                                                            000098
2SR. CAIXA, APOS O VENCIMENTO COBRAR 2% DE MULTA                                 NAO RECEBER APOS 30 DIAS DO VENCIMENTO.                                                                                                                                                                                                         01022000000000000000102200000000000000       0090339900006270154646022010000099
100000000000000000000009033990000627000000000000000000000000010002020008657802201P00000000002            2  01086578022011022000000002084540000000001N010220000000000000000000000000000000000000000000000000000000000000000100008657886855ARLINDO DA CRUZ                         AVENIDA ARICANDUVA - 8.256 AP.54 BL.10 -            03951220                                                            000101
2SR. CAIXA, APOS O VENCIMENTO COBRAR 2% DE MULTA                                 NAO RECEBER APOS 30 DIAS DO VENCIMENTO.                                                                                                                                                                                                         01022000000000000000102200000000000000       009033990000627008657802201P000102
100000000000000000000009033990000627000000000000000000000000010002020004265702201P00000000002            2  01042657022009022000000002790540000000001N010220000000000000000000000000000000000000000000000000000000000000000100004265781713ALEXANDRE CASADO COSTA                  RUA CARLOS JOSE BORSTENS - 50 AP.33 - AV            11702750                                                            000104
2SR. CAIXA, APOS O VENCIMENTO COBRAR 2% DE MULTA                                 NAO RECEBER APOS 30 DIAS DO VENCIMENTO.                                                                                                                                                                                                         01022000000000000000102200000000000000       009033990000627004265702201P000105
100000000000000000000009033990000627000000000000000000000000010002020059735102201800000000002            2  01597351022009022000000001178660000000001N010220000000000000000000000000000000000000000000000000000000000000000100059735180863HELIO JOSE MARQUES                      RUA MARTIM AFONSO DE SOUZA - 1007 AP.102            11702790                                                            000107
2SR. CAIXA, APOS O VENCIMENTO COBRAR 2% DE MULTA                                 NAO RECEBER APOS 30 DIAS DO VENCIMENTO.                                                                                                                                                                                                         01022000000000000000102200000000000000       0090339900006270597351022018000108
100000000000000000000009033990000627000000000000000000000000010002020026347802201100000000002            2  01263478022011022000000002228320000000001N010220000000000000000000000000000000000000000000000000000000000000000100026347872862VALDECI SILVA MEIRELES                  RUA JOSE BATISTA DA SILVA - 292 - JARDIM            06851470                                                            000110
2SR. CAIXA, APOS O VENCIMENTO COBRAR 2% DE MULTA                                 NAO RECEBER APOS 30 DIAS DO VENCIMENTO.                                                                                                                                                                                                         01022000000000000000102200000000000000       0090339900006270263478022011000111
100000000000000000000009033990000627000000000000000000000000010002020025443602201200000000002            2  01254436022009022000000004036680000000001N010220000000000000000000000000000000000000000000000000000000000000000100025443691830SILVANETE PEREIRA CARNELOS              RUA CARLOS JOSE BORSTENS - 50 AP.102 - A            11702750                                                            000113
2SR. CAIXA, APOS O VENCIMENTO COBRAR 2% DE MULTA                                 NAO RECEBER APOS 30 DIAS DO VENCIMENTO.                                                                                                                                                                                                         01022000000000000000102200000000000000       0090339900006270254436022012000114
100000000000000000000009033990000627000000000000000000000000010002020013135202201200000000002            2  01131352022011022000000002047270000000001N010220000000000000000000000000000000000000000000000000000000000000000100013135261859EDUARDO ZANOLA                          RUA ROLANDO PIETRO BONINI - 46 - JARDIM             09781040                                                            000116
2SR. CAIXA, APOS O VENCIMENTO COBRAR 2% DE MULTA                                 NAO RECEBER APOS 30 DIAS DO VENCIMENTO.                                                                                                                                                                                                         01022000000000000000102200000000000000       0090339900006270131352022012000117
100000000000000000000009033990000627000000000000000000000000010002020009797602201300000000002            2  01097976022011022000000001993830000000001N010220000000000000000000000000000000000000000000000000000000000000000100009797626857RICARDO SOBRAL DE OLIVEIRA              RUA 23 DE MAIO - 139 AP.32 - VILA MIRIM             11704690                                                            000119
2SR. CAIXA, APOS O VENCIMENTO COBRAR 2% DE MULTA                                 NAO RECEBER APOS 30 DIAS DO VENCIMENTO.                                                                                                                                                                                                         01022000000000000000102200000000000000       0090339900006270097976022013000120
100000000000000000000009033990000627000000000000000000000000010002020004767602201400000000002            2  01047676022009022000000003409400000000001N010220000000000000000000000000000000000000000000000000000000000000000100004767679893ORLANDO GRANDE FILHO                    RUA ORLANDO MIGLIARI - 101 - JARDIM OURO            19906140                                                            000122
2SR. CAIXA, APOS O VENCIMENTO COBRAR 2% DE MULTA                                 NAO RECEBER APOS 30 DIAS DO VENCIMENTO.                                                                                                                                                                                                         01022000000000000000102200000000000000       0090339900006270047676022014000123
100000000000000000000009033990000627000000000000000000000000010002020006512502201100000000002            2  01065125022011022000000001793540000000001N010220000000000000000000000000000000000000000000000000000000000000000100006512547870MARIA DO CARMO FAGUNDES DOS REIS        RUA CARLOS MALCHER - 98 - PARQUE EDU CHA            02232020                                                            000125
2SR. CAIXA, APOS O VENCIMENTO COBRAR 2% DE MULTA                                 NAO RECEBER APOS 30 DIAS DO VENCIMENTO.                                                                                                                                                                                                         01022000000000000000102200000000000000       0090339900006270065125022011000126
100000000000000000000009033990000627000000000000000000000000010002020022728402201400000000002            2  01227284022011022000000002157440000000001N010220000000000000000000000000000000000000000000000000000000000000000100022728497842WILLIAN DE SOUZA MELLO                  RUA JOSE CALIXTO DO CARMO - 286 AP.111 -            11702690                                                            000128
2SR. CAIXA, APOS O VENCIMENTO COBRAR 2% DE MULTA                                 NAO RECEBER APOS 30 DIAS DO VENCIMENTO.                                                                                                                                                                                                         01022000000000000000102200000000000000       0090339900006270227284022014000129
100000000000000000000009033990000627000000000000000000000000010002020016909702201900000000002            2  01169097022011022000000001906510000000001N010220000000000000000000000000000000000000000000000000000000000000000100016909746805EDIVALDO SANTANA DOS SANTOS             ESTRADA JOAO GASPAR DELGADO - 80 AP.213             08536100                                                            000131
2SR. CAIXA, APOS O VENCIMENTO COBRAR 2% DE MULTA                                 NAO RECEBER APOS 30 DIAS DO VENCIMENTO.                                                                                                                                                                                                         01022000000000000000102200000000000000       0090339900006270169097022019000132
100000000000000000000009033990000627000000000000000000000000010002020022036002201600000000002            2  01220360022009022000000002960600000000001N010220000000000000000000000000000000000000000000000000000000000000000100022036003818DERLIS TERAN QUIROGA ROGATO             RUA JOAO RIBEIRO - 709 AP.61 - CAMPESTRE            09070250                                                            000134
2SR. CAIXA, APOS O VENCIMENTO COBRAR 2% DE MULTA                                 NAO RECEBER APOS 30 DIAS DO VENCIMENTO.                                                                                                                                                                                                         01022000000000000000102200000000000000       0090339900006270220360022016000135
100000000000000000000009033990000627000000000000000000000000010002020017229702202200000000002            2  01172297022009022000000002857240000000001N010220000000000000000000000000000000000000000000000000000000000000000100017229751802BERENICE VIEIRA KERSTING                RUA ATIBAIA - 17 AP.417 - BAIRRO IMPERAD            11707380                                                            000137
2SR. CAIXA, APOS O VENCIMENTO COBRAR 2% DE MULTA                                 NAO RECEBER APOS 30 DIAS DO VENCIMENTO.                                                                                                                                                                                                         01022000000000000000102200000000000000       0090339900006270172297022022000138
100000000000000000000009033990000627000000000000000000000000010002020012475602201P00000000002            2  01124756022011022000000002066540000000001N010220000000000000000000000000000000000000000000000000000000000000000100012475663820CELIDALVA GOES DE CARVALHO              RUA AURELIO BELOTTI JUNIOR - 28 - JARDIM            05759210                                                            000140
2SR. CAIXA, APOS O VENCIMENTO COBRAR 2% DE MULTA                                 NAO RECEBER APOS 30 DIAS DO VENCIMENTO.                                                                                                                                                                                                         01022000000000000000102200000000000000       009033990000627012475602201P000141
100000000000000000000009033990000627000000000000000000000000010002020033451602201700000000002            2  01334516022011022000000001725670000000001N010220000000000000000000000000000000000000000000000000000000000000000100033451620839ARAO ELISIARIO  NUNES                   RUA JOSE CALIXTO DO CARMO - 286 AP.64 -             11702690                                                            000143
2SR. CAIXA, APOS O VENCIMENTO COBRAR 2% DE MULTA                                 NAO RECEBER APOS 30 DIAS DO VENCIMENTO.                                                                                                                                                                                                         01022000000000000000102200000000000000       0090339900006270334516022017000144
100000000000000000000009033990000627000000000000000000000000010002020095758202201700000000002            2  01957582022011022000000002098660000000001N010220000000000000000000000000000000000000000000000000000000000000000100095758275891SHIRLEY TUNES ASTOLFI                   RUA GUAPERUVU - 656 AP.84 - VILA ARICAND            03504010                                                            000146
2SR. CAIXA, APOS O VENCIMENTO COBRAR 2% DE MULTA                                 NAO RECEBER APOS 30 DIAS DO VENCIMENTO.                                                                                                                                                                                                         01022000000000000000102200000000000000       0090339900006270957582022017000147
100000000000000000000009033990000627000000000000000000000000010002020045839202201400000000002            2  01458392022011022000000001339440000000001N010220000000000000000000000000000000000000000000000000000000000000000100045839263834LEONARDO ANTONIO CONCELLIERI            RUA JOSE CALIXTO DO CARMO - 286 AP.51 -             11702690                                                            000149
2SR. CAIXA, APOS O VENCIMENTO COBRAR 2% DE MULTA                                 NAO RECEBER APOS 30 DIAS DO VENCIMENTO.                                                                                                                                                                                                         01022000000000000000102200000000000000       0090339900006270458392022014000150
100000000000000000000009033990000627000000000000000000000000010002020011369102201500000000002            2  01113691022011022000000001885110000000001N010220000000000000000000000000000000000000000000000000000000000000000100011369165803ELIANA CORREA DE OLIVEIRA               AVENIDA ELIAS MALUF - 2695 CASA 419 - WA            18055215                                                            000152
2SR. CAIXA, APOS O VENCIMENTO COBRAR 2% DE MULTA                                 NAO RECEBER APOS 30 DIAS DO VENCIMENTO.                                                                                                                                                                                                         01022000000000000000102200000000000000       0090339900006270113691022015000153
100000000000000000000009033990000627000000000000000000000000010002020026858602201100000000002            2  01268586022008022000000002644970000000001N010220000000000000000000000000000000000000000000000000000000000000000100026858625879GLAUCE FERREIRA DE OLIVEIRA FALSI       RUA CATULO DA PAIXAO CEARENSE - 190 AP.1            04145010                                                            000155
2SR. CAIXA, APOS O VENCIMENTO COBRAR 2% DE MULTA                                 NAO RECEBER APOS 30 DIAS DO VENCIMENTO.                                                                                                                                                                                                         01022000000000000000102200000000000000       0090339900006270268586022011000156
100000000000000000000009033990000627000000000000000000000000010002020002253802201900000000002            2  01022538022011022000000001675500000000001N010220000000000000000000000000000000000000000000000000000000000000000100002253816809EDMILSON ALVES DA SILVA                 ESTRADA SAO FRANCISCO - 2.008 AP.14 T.G             06764290                                                            000158
2SR. CAIXA, APOS O VENCIMENTO COBRAR 2% DE MULTA                                 NAO RECEBER APOS 30 DIAS DO VENCIMENTO.                                                                                                                                                                                                         01022000000000000000102200000000000000       0090339900006270022538022019000159
9                                                                                                                                                                                                                                                                                                                                                                                                         000160