01REMESSA01COBRANCA       00000000000004991781AIRES CONSTRUTORA E INCORPORAD237BRADESCO       050719        MX0000124                                                                                                                                                                                                                                                                                     000001
100000000000000000000009077090006612500000000000000000000000010002100001224507191500000000002            2  01012245071925071900000003628020000000001N040719000000000000000000000000000000000000000000000000000000000000000100001224509579REINALDO JUNIOR MARTINS DE ABREU        AVENIDA INTERLAGOS - 7.224 - INTERLAGOS             04777000                                                            000002
2SR. CAIXA, APOS O VENCIMENTO COBRAR 10% DE MULTA                                NAO RECEBER APOS 30 DIAS DO VENCIMENTO.                                                                                                                                                                                                         05071900000000000000507190000000000000       0090770900066125012245071915000003
100000000000000000000009077090006612500000000000000000000000010002100016338907191800000000002            2  01163389071925071900000003579690000000001N040719000000000000000000000000000000000000000000000000000000000000000100016338929806EDVALDO DA SILVA ANDRADE                RUA ARIA - 434 - PARQUE ALVES DE LIMA -             04902170                                                            000005
2SR. CAIXA, APOS O VENCIMENTO COBRAR 10% DE MULTA                                NAO RECEBER APOS 30 DIAS DO VENCIMENTO.                                                                                                                                                                                                         05071900000000000000507190000000000000       0090770900066125163389071918000006
100000000000000000000009077090006612500000000000000000000000010002100026836907191800000000002            2  01268369071925071900000003241680000000001N040719000000000000000000000000000000000000000000000000000000000000000100026836908860VANDERLEI FIGUEIREDO DE CARVALHO        RUA TUPI - 840 - VILA TUPI - PRAIA GRAND            11703260                                                            000008
2SR. CAIXA, APOS O VENCIMENTO COBRAR 10% DE MULTA                                NAO RECEBER APOS 30 DIAS DO VENCIMENTO.                                                                                                                                                                                                         05071900000000000000507190000000000000       0090770900066125268369071918000009
100000000000000000000009077090006612500000000000000000000000010002100059861507191400000000002            2  01598615071925071900000003600600000000001N040719000000000000000000000000000000000000000000000000000000000000000100059861576800REINALDO LOPES DE OLIVEIRA              RUA DA SERVIDAO - 40 - VILA ROSCHEL - SA            04891045                                                            000011
2SR. CAIXA, APOS O VENCIMENTO COBRAR 10% DE MULTA                                NAO RECEBER APOS 30 DIAS DO VENCIMENTO.                                                                                                                                                                                                         05071900000000000000507190000000000000       0090770900066125598615071914000012
100000000000000000000009077090006612500000000000000000000000010002100016330907191200000000002            2  01163309071925071900000003578790000000001N040719000000000000000000000000000000000000000000000000000000000000000100016330938830KARINA CORDEIRO PIASSA                  CONDE MOREIRA LIMA - 644 - JARDIM JABAQU            04384032                                                            000014
2SR. CAIXA, APOS O VENCIMENTO COBRAR 10% DE MULTA                                NAO RECEBER APOS 30 DIAS DO VENCIMENTO.                                                                                                                                                                                                         05071900000000000000507190000000000000       0090770900066125163309071912000015
100000000000000000000009077090006612500000000000000000000000010002100077027607191500000000002            2  01770276071925071900000003478310000000001N040719000000000000000000000000000000000000000000000000000000000000000100077027604868CLINEU LISSONI                          AVENIDA VILA EMA - 1100 AP.41 - VILA PRU            03156000                                                            000017
2SR. CAIXA, APOS O VENCIMENTO COBRAR 10% DE MULTA                                NAO RECEBER APOS 30 DIAS DO VENCIMENTO.                                                                                                                                                                                                         05071900000000000000507190000000000000       0090770900066125770276071915000018
100000000000000000000009077090006612500000000000000000000000010002100029380707191200000000002            2  01293807071925071900000003241870000000001N040719000000000000000000000000000000000000000000000000000000000000000100029380708882EDUARDO MENDONCA DAMASCENO              RUA MONTE CASTELO - 296 AP.12 - AVIACAO             11702720                                                            000020
2SR. CAIXA, APOS O VENCIMENTO COBRAR 10% DE MULTA                                NAO RECEBER APOS 30 DIAS DO VENCIMENTO.                                                                                                                                                                                                         05071900000000000000507190000000000000       0090770900066125293807071912000021
100000000000000000000009077090006612500000000000000000000000010002100023988507191600000000002            2  01239885071925071900000003291750000000001N040719000000000000000000000000000000000000000000000000000000000000000100023988525634DALMY PIMENTA                           SAO CAETANO - 136 - VILA SAO VICENTE - U            38026220                                                            000023
2SR. CAIXA, APOS O VENCIMENTO COBRAR 10% DE MULTA                                NAO RECEBER APOS 30 DIAS DO VENCIMENTO.                                                                                                                                                                                                         05071900000000000000507190000000000000       0090770900066125239885071916000024
100000000000000000000009077090006612500000000000000000000000010002100004735207191800000000002            2  01047352071925071900000003579010000000001N040719000000000000000000000000000000000000000000000000000000000000000100004735273832DARIO LUIZ GONCALVES                    RUA MONTE CASTELO - 295 AP.113 - AVIACAO            11702720                                                            000026
2SR. CAIXA, APOS O VENCIMENTO COBRAR 10% DE MULTA                                NAO RECEBER APOS 30 DIAS DO VENCIMENTO.                                                                                                                                                                                                         05071900000000000000507190000000000000       0090770900066125047352071918000027
100000000000000000000009077090006612500000000000000000000000010002100007635207191800000000002            2  01076352071925071900000003199850000000001N040719000000000000000000000000000000000000000000000000000000000000000100007635293893SILVIO CARDOSO ZACARIAS                 RUA SOLIDONIO LEITE - 2718 AP.102 BLOCO             03275000                                                            000029
2SR. CAIXA, APOS O VENCIMENTO COBRAR 10% DE MULTA                                NAO RECEBER APOS 30 DIAS DO VENCIMENTO.                                                                                                                                                                                                         05071900000000000000507190000000000000       0090770900066125076352071918000030
100000000000000000000009077090006612500000000000000000000000010002100007975907191100000000002            2  01079759071925071900000003481260000000001N040719000000000000000000000000000000000000000000000000000000000000000100007975958808JOCY VIGNADO                            RUA PEDRO GONCALVES SOBRINHO - 568 - PAR            13098641                                                            000032
2SR. CAIXA, APOS O VENCIMENTO COBRAR 10% DE MULTA                                NAO RECEBER APOS 30 DIAS DO VENCIMENTO.                                                                                                                                                                                                         05071900000000000000507190000000000000       0090770900066125079759071911000033
100000000000000000000009077090006612500000000000000000000000010002100036386807191300000000002            2  01363868071925071900000003676730000000001N040719000000000000000000000000000000000000000000000000000000000000000100036386861833ALINE LEE WEI DE SOUZA                  AV. PRES.CASTELO BRANCO - 9127 AP.251 BL            11704600                                                            000035
2SR. CAIXA, APOS O VENCIMENTO COBRAR 10% DE MULTA                                NAO RECEBER APOS 30 DIAS DO VENCIMENTO.                                                                                                                                                                                                         05071900000000000000507190000000000000       0090770900066125363868071913000036
100000000000000000000009077090006612500000000000000000000000010002100070465307191400000000002            2  01704653071925071900000001001990000000001N040719000000000000000000000000000000000000000000000000000000000000000100070465320953SIDNEY CARASKI                          RUA DR.CELSO PACHECO BENTIM - 502 - PARQ            03571020                                                            000038
2SR. CAIXA, APOS O VENCIMENTO COBRAR 10% DE MULTA                                NAO RECEBER APOS 30 DIAS DO VENCIMENTO.                                                                                                                                                                                                         05071900000000000000507190000000000000       0090770900066125704653071914000039
100000000000000000000009077090006612500000000000000000000000010002100075759407191P00000000002            2  01757594071925071900000002619000000000001N040719000000000000000000000000000000000000000000000000000000000000000100075759446800VALTER MUTAFEI                          RUA MONTE CASTELO - 295 AP.54 - AVIACAO             11702720                                                            000041
2SR. CAIXA, APOS O VENCIMENTO COBRAR 10% DE MULTA                                NAO RECEBER APOS 30 DIAS DO VENCIMENTO.                                                                                                                                                                                                         05071900000000000000507190000000000000       009077090006612575759407191P000042
100000000000000000000009077090006612500000000000000000000000010002100070328707191800000000002            2  01703287071925071900000003741900000000001N040719000000000000000000000000000000000000000000000000000000000000000100070328706868VALTER LIMA FERNANDES                   RUA DOMINGOS JORGE VELHO - 52 - CENTRO -            06843550                                                            000044
2SR. CAIXA, APOS O VENCIMENTO COBRAR 10% DE MULTA                                NAO RECEBER APOS 30 DIAS DO VENCIMENTO.                                                                                                                                                                                                         05071900000000000000507190000000000000       0090770900066125703287071918000045
100000000000000000000009077090006612500000000000000000000000010002100023132607191300000000002            2  01231326071925071900000002032550000000001N040719000000000000000000000000000000000000000000000000000000000000000100023132672882LEANDRO MORENO                          RUA MONTE CASTELO - 296 AP.64 - AVIACAO             11702720                                                            000047
2SR. CAIXA, APOS O VENCIMENTO COBRAR 10% DE MULTA                                NAO RECEBER APOS 30 DIAS DO VENCIMENTO.                                                                                                                                                                                                         05071900000000000000507190000000000000       0090770900066125231326071913000048
100000000000000000000009077090006612500000000000000000000000010002100099264607191200000000002            2  01992646071925071900000003466320000000001N040719000000000000000000000000000000000000000000000000000000000000000100099264692800LEONTINO PINHEIRO DA SILVA              AVENIDA JOAO BATISTA FITIPALDI - 469 - V            08685000                                                            000050
2SR. CAIXA, APOS O VENCIMENTO COBRAR 10% DE MULTA                                NAO RECEBER APOS 30 DIAS DO VENCIMENTO.                                                                                                                                                                                                         05071900000000000000507190000000000000       0090770900066125992646071912000051
100000000000000000000009077090006612500000000000000000000000010002100000666307191300000000002            2  01006663071925071900000003344050000000001N040719000000000000000000000000000000000000000000000000000000000000000100000666344825LUIZ HENRIQUE DE CAMPOS                 RUA JOAO CARLOS CAVALCANTI REIS - 21 - J            02281206                                                            000053
2SR. CAIXA, APOS O VENCIMENTO COBRAR 10% DE MULTA                                NAO RECEBER APOS 30 DIAS DO VENCIMENTO.                                                                                                                                                                                                         05071900000000000000507190000000000000       0090770900066125006663071913000054
100000000000000000000009077090006612500000000000000000000000010002100029155007191300000000002            2  01291550071925071900000003531450000000001N040719000000000000000000000000000000000000000000000000000000000000000100029155026842DANIELA YOSHIDA                         RUA MONTE CASTELO - 262 AP.34 - AVIACAO             11702720                                                            000056
2SR. CAIXA, APOS O VENCIMENTO COBRAR 10% DE MULTA                                NAO RECEBER APOS 30 DIAS DO VENCIMENTO.                                                                                                                                                                                                         05071900000000000000507190000000000000       0090770900066125291550071913000057
100000000000000000000009077090006612500000000000000000000000010002100001204407191700000000002            2  01012044071925071900000002875870000000001N040719000000000000000000000000000000000000000000000000000000000000000100001204431809CEZAR TALAVERA JUNIOR                   RUA MAESTRO ARTURO DE ANGELIS  - 190 AP.            05139010                                                            000059
2SR. CAIXA, APOS O VENCIMENTO COBRAR 10% DE MULTA                                NAO RECEBER APOS 30 DIAS DO VENCIMENTO.                                                                                                                                                                                                         05071900000000000000507190000000000000       0090770900066125012044071917000060
100000000000000000000009077090006612500000000000000000000000010002100004227507191600000000002            2  01042275071925071900000003727970000000001N040719000000000000000000000000000000000000000000000000000000000000000100004227553970ALESSANDRO ISRAEL GOULART               RUA PROFESSORA CARLINDA RIBEIRO - 21 - F            02866200                                                            000062
2SR. CAIXA, APOS O VENCIMENTO COBRAR 10% DE MULTA                                NAO RECEBER APOS 30 DIAS DO VENCIMENTO.                                                                                                                                                                                                         05071900000000000000507190000000000000       0090770900066125042275071916000063
100000000000000000000009077090006612500000000000000000000000010002100060811407191P00000000002            2  01608114071925071900000003435760000000001N040719000000000000000000000000000000000000000000000000000000000000000100060811420868HELIO BASSI                             AV.PARIS,575 - PRACA ANTONIO FIGUEROA -             11700082                                                            000065
2SR. CAIXA, APOS O VENCIMENTO COBRAR 10% DE MULTA                                NAO RECEBER APOS 30 DIAS DO VENCIMENTO.                                                                                                                                                                                                         05071900000000000000507190000000000000       009077090006612560811407191P000066
100000000000000000000009077090006612500000000000000000000000010002100001024707191P00000000002            2  01010247071925071900000003251140000000001N040719000000000000000000000000000000000000000000000000000000000000000100001024794881CLAUDIO RODRIGUES                       RUA ARACATUBA - 242 - LAPA - SAO PAULO -            05058010                                                            000068
2SR. CAIXA, APOS O VENCIMENTO COBRAR 10% DE MULTA                                NAO RECEBER APOS 30 DIAS DO VENCIMENTO.                                                                                                                                                                                                         05071900000000000000507190000000000000       009077090006612501024707191P000069
100000000000000000000009077090006612500000000000000000000000010002100002225007191000000000002            2  01022250071925071900000004984440000000001N040719000000000000000000000000000000000000000000000000000000000000000100002225072841PEDRO EDUARDO DE AZEVEDO                RUA NATH ZILMAN - 46 - JARDIM SAMAMBAIA             07600000                                                            000071
2SR. CAIXA, APOS O VENCIMENTO COBRAR 10% DE MULTA                                NAO RECEBER APOS 30 DIAS DO VENCIMENTO.                                                                                                                                                                                                         05071900000000000000507190000000000000       0090770900066125022250071910000072
100000000000000000000009077090006612500000000000000000000000010002100022037507191900000000002            2  01220375071925071900000003468630000000001N040719000000000000000000000000000000000000000000000000000000000000000100022037552882ANDREIA CRISTINA FERNANDES DANTAS       PCA CASTRO ALVES - 163 AP.33 - VILA SAO             13224299                                                            000074
2SR. CAIXA, APOS O VENCIMENTO COBRAR 10% DE MULTA                                NAO RECEBER APOS 30 DIAS DO VENCIMENTO.                                                                                                                                                                                                         05071900000000000000507190000000000000       0090770900066125220375071919000075
100000000000000000000009077090006612500000000000000000000000010002100019288707191700000000002            2  01192887071925071900000002824240000000001N040719000000000000000000000000000000000000000000000000000000000000000100019288787844EMERSON LUIZ MARTINEZ PEREIRA           RUA MONTE CASTELO - 296 AP.74 - AVIACAO             11702720                                                            000077
2SR. CAIXA, APOS O VENCIMENTO COBRAR 10% DE MULTA                                NAO RECEBER APOS 30 DIAS DO VENCIMENTO.                                                                                                                                                                                                         05071900000000000000507190000000000000       0090770900066125192887071917000078
100000000000000000000009077090006612500000000000000000000000010002100027198407191000000000002            2  01271984071925071900000002392290000000001N040719000000000000000000000000000000000000000000000000000000000000000100027198452809CRISTIANE AURELIANO DA SILVA MAIA       RUA MONTE CASTELO - 262 AP.25 - AVIACAO             11702720                                                            000080
2SR. CAIXA, APOS O VENCIMENTO COBRAR 10% DE MULTA                                NAO RECEBER APOS 30 DIAS DO VENCIMENTO.                                                                                                                                                                                                         05071900000000000000507190000000000000       0090770900066125271984071910000081
100000000000000000000009077090006612500000000000000000000000010002100021246207191400000000002            2  01212462071925071900000002919550000000001N040719000000000000000000000000000000000000000000000000000000000000000100021246231840ALEXANDRO DA CUNHA MIGUES               AVENIDA CONSELHEIRO CARRAO - 1861 CONJ.5            03403001                                                            000083
2SR. CAIXA, APOS O VENCIMENTO COBRAR 10% DE MULTA                                NAO RECEBER APOS 30 DIAS DO VENCIMENTO.                                                                                                                                                                                                         05071900000000000000507190000000000000       0090770900066125212462071914000084
100000000000000000000009077090006612500000000000000000000000010002100018834207191200000000002            2  01188342071925071900000003410330000000001N040719000000000000000000000000000000000000000000000000000000000000000100018834257863ILTON FERNANDO MUTCHNIK                 RUA ASSUNGUI - 700 AP.222 - VILA GUMERCI            04131001                                                            000086
2SR. CAIXA, APOS O VENCIMENTO COBRAR 10% DE MULTA                                NAO RECEBER APOS 30 DIAS DO VENCIMENTO.                                                                                                                                                                                                         05071900000000000000507190000000000000       0090770900066125188342071912000087
100000000000000000000009077090006612500000000000000000000000010002100018470507191400000000002            2  01184705071925071900000004295070000000001N040719000000000000000000000000000000000000000000000000000000000000000100018470520881SILVANA ALVES DE OLIVEIRA               RUA MONTE CASTELO - 262 AP.91 - AVIACAO             11702720                                                            000089
2SR. CAIXA, APOS O VENCIMENTO COBRAR 10% DE MULTA                                NAO RECEBER APOS 30 DIAS DO VENCIMENTO.                                                                                                                                                                                                         05071900000000000000507190000000000000       0090770900066125184705071914000090
100000000000000000000009077090006612500000000000000000000000010002100009297507191400000000002            2  01092975071925071900000002990180000000001N040719000000000000000000000000000000000000000000000000000000000000000100009297523846MARCOS ROBERTO DE CASTRO FERREIRA       RUA MONTE CASTELO - 262 AP.105 - AVIACAO            11702720                                                            000092
2SR. CAIXA, APOS O VENCIMENTO COBRAR 10% DE MULTA                                NAO RECEBER APOS 30 DIAS DO VENCIMENTO.                                                                                                                                                                                                         05071900000000000000507190000000000000       0090770900066125092975071914000093
100000000000000000000009077090006612500000000000000000000000010002100001164107191300000000002            2  01011641071925071900000003705510000000001N040719000000000000000000000000000000000000000000000000000000000000000100001164158864DAVID BLEY LACERDA                      RUA CONEGO ARAUJO MARCONDES - 188 - BAIR            02550080                                                            000095
2SR. CAIXA, APOS O VENCIMENTO COBRAR 10% DE MULTA                                NAO RECEBER APOS 30 DIAS DO VENCIMENTO.                                                                                                                                                                                                         05071900000000000000507190000000000000       0090770900066125011641071913000096
100000000000000000000009077090006612500000000000000000000000010002100031498007191700000000002            2  01314980071925071900000004503520000000001N040719000000000000000000000000000000000000000000000000000000000000000100031498008895POLIANE  SIBELE DA SILVA                PRACA GENERAL COSTA BARRETO - 56 AP.181             03325070                                                            000098
2SR. CAIXA, APOS O VENCIMENTO COBRAR 10% DE MULTA                                NAO RECEBER APOS 30 DIAS DO VENCIMENTO.                                                                                                                                                                                                         05071900000000000000507190000000000000       0090770900066125314980071917000099
100000000000000000000009077090006612500000000000000000000000010002100000588107191000000000002            2  01005881071925071900000002641410000000001N040719000000000000000000000000000000000000000000000000000000000000000100000588109860JOSE LIARTE GIANTE                      AVENIDA LUIZ GONZAGA DO AMARAL - 143 - J            09320630                                                            000101
2SR. CAIXA, APOS O VENCIMENTO COBRAR 10% DE MULTA                                NAO RECEBER APOS 30 DIAS DO VENCIMENTO.                                                                                                                                                                                                         05071900000000000000507190000000000000       0090770900066125005881071910000102
100000000000000000000009077090006612500000000000000000000000010002100014386807191300000000002            2  01143868071925071900000002113000000000001N040719000000000000000000000000000000000000000000000000000000000000000100014386860134SEVERINO CARLOS DE OLIVEIRA             RUA MONTE CASTELO - 262 AP.54 - AVIACAO             11702720                                                            000104
2SR. CAIXA, APOS O VENCIMENTO COBRAR 10% DE MULTA                                NAO RECEBER APOS 30 DIAS DO VENCIMENTO.                                                                                                                                                                                                         05071900000000000000507190000000000000       0090770900066125143868071913000105
100000000000000000000009077090006612500000000000000000000000010002100029088207191000000000002            2  01290882071925071900000002349120000000001N040719000000000000000000000000000000000000000000000000000000000000000100029088221804FABIANO SPERANDEO                       RUA MONTE CASTELO - 296 AP.93 - AVIACAO             11702720                                                            000107
2SR. CAIXA, APOS O VENCIMENTO COBRAR 10% DE MULTA                                NAO RECEBER APOS 30 DIAS DO VENCIMENTO.                                                                                                                                                                                                         05071900000000000000507190000000000000       0090770900066125290882071910000108
100000000000000000000009077090006612500000000000000000000000010002100039393707191900000000002            2  01393937071925071900000001456300000000001N040719000000000000000000000000000000000000000000000000000000000000000100039393790850NAIRON RICARDO DE ARAUJO SANTOS         RUA MONTE CASTELO - 262 AP.23 - AVIACAO             11702720                                                            000110
2SR. CAIXA, APOS O VENCIMENTO COBRAR 10% DE MULTA                                NAO RECEBER APOS 30 DIAS DO VENCIMENTO.                                                                                                                                                                                                         05071900000000000000507190000000000000       0090770900066125393937071919000111
100000000000000000000009077090006612500000000000000000000000010002100041896807191P00000000002            2  01418968071925071900000002120870000000001N040719000000000000000000000000000000000000000000000000000000000000000100041896807968SERGIO ROBERTO DA SILVA                 RUA DOS INGLESES - 542 AP.61 - MORRO DOS            01329000                                                            000113
2SR. CAIXA, APOS O VENCIMENTO COBRAR 10% DE MULTA                                NAO RECEBER APOS 30 DIAS DO VENCIMENTO.                                                                                                                                                                                                         05071900000000000000507190000000000000       009077090006612541896807191P000114
9                                                                                                                                                                                                                                                                                                                                                                                                         000115