01REMESSA01COBRANCA       00000000000008017025HB SANTOS CONSTRUTORA E INCORP237BRADESCO       010622        MX0000154                                                                                                                                                                                                                                                                                     000001
100000000000000000000009033990000627000000000000000000000000010002020016479006221900000000002            2  01164790062209062200000004842680000000001N010622000000000000000000000000000000000000000000000000000000000000000100016479002806LOURDES PEREIRA DE QUEIROZ SECANECHIA   RUA PAULINO CURSI - 437 - CIDADE SAO MAT            03960060                                                            000002
2SR. CAIXA, APOS O VENCIMENTO COBRAR 2% DE MULTA                                 NAO RECEBER APOS 30 DIAS DO VENCIMENTO.                                                                                                                                                                                                         01062200000000000000106220000000000000       0090339900006270164790062219000003
100000000000000000000009033990000627000000000000000000000000010002020017229706222900000000002            2  01172297062209062200000003685220000000001N010622000000000000000000000000000000000000000000000000000000000000000100017229751802BERENICE VIEIRA KERSTING                RUA ATIBAIA - 17 AP.417 - BAIRRO IMPERAD            11707380                                                            000005
2SR. CAIXA, APOS O VENCIMENTO COBRAR 2% DE MULTA                                 NAO RECEBER APOS 30 DIAS DO VENCIMENTO.                                                                                                                                                                                                         01062200000000000000106220000000000000       0090339900006270172297062229000006
100000000000000000000009033990000627000000000000000000000000010002020009361406221600000000002            2  01093614062209062200000003515800000000001N010622000000000000000000000000000000000000000000000000000000000000000100009361471805JOSE BARBOSA DA SILVA                   RUA ALFREDO INACIO TRINDADE  - 60 AP.44             02344100                                                            000008
2SR. CAIXA, APOS O VENCIMENTO COBRAR 2% DE MULTA                                 NAO RECEBER APOS 30 DIAS DO VENCIMENTO.                                                                                                                                                                                                         01062200000000000000106220000000000000       0090339900006270093614062216000009
100000000000000000000009033990000627000000000000000000000000010002020012756906221P00000000002            2  01127569062209062200000003034900000000001N010622000000000000000000000000000000000000000000000000000000000000000100012756959812ITAMAR JUVENAL DIAS DA SILVA            RUA ELISEU REINALDO MORAES VIEIRA - 90 A            02858000                                                            000011
2SR. CAIXA, APOS O VENCIMENTO COBRAR 2% DE MULTA                                 NAO RECEBER APOS 30 DIAS DO VENCIMENTO.                                                                                                                                                                                                         01062200000000000000106220000000000000       009033990000627012756906221P000012
100000000000000000000009033990000627000000000000000000000000010002020029433606221300000000002            2  01294336062211062200000002516780000000001N010622000000000000000000000000000000000000000000000000000000000000000100029433631897MARIO MUNIZ                             RUA JOSE CALIXTO DO CARMO - 286 AP.53 -             11702690                                                            000014
2SR. CAIXA, APOS O VENCIMENTO COBRAR 2% DE MULTA                                 NAO RECEBER APOS 30 DIAS DO VENCIMENTO.                                                                                                                                                                                                         01062200000000000000106220000000000000       0090339900006270294336062213000015
100000000000000000000009033990000627000000000000000000000000010002020005029806221600000000002            2  01050298062209062200000003094250000000001N010622000000000000000000000000000000000000000000000000000000000000000100005029828885LAURINETE DA CONCEICAO DE NORONHA       RUA MARIA LUCIA DE TOLEDO LEITE MORAES -            04434040                                                            000017
2SR. CAIXA, APOS O VENCIMENTO COBRAR 2% DE MULTA                                 NAO RECEBER APOS 30 DIAS DO VENCIMENTO.                                                                                                                                                                                                         01062200000000000000106220000000000000       0090339900006270050298062216000018
100000000000000000000009033990000627000000000000000000000000010002020013388906221800000000002            2  01133889062211062200000002453450000000001N010622000000000000000000000000000000000000000000000000000000000000000100013388936889NEUTON DE SOUZA RAMOS                   RUA MARIA CRISTINA - 932 - JARDIM CASQUE            11533160                                                            000020
2SR. CAIXA, APOS O VENCIMENTO COBRAR 2% DE MULTA                                 NAO RECEBER APOS 30 DIAS DO VENCIMENTO.                                                                                                                                                                                                         01062200000000000000106220000000000000       0090339900006270133889062218000021
100000000000000000000009033990000627000000000000000000000000010002020012774906221800000000002            2  01127749062211062200000002499530000000001N010622000000000000000000000000000000000000000000000000000000000000000100012774906865JOSE MILTON SANTIAGO                    RUA BATATAIS - 47 - CIDADE ESTELA - POA             08563140                                                            000023
2SR. CAIXA, APOS O VENCIMENTO COBRAR 2% DE MULTA                                 NAO RECEBER APOS 30 DIAS DO VENCIMENTO.                                                                                                                                                                                                         01062200000000000000106220000000000000       0090339900006270127749062218000024
100000000000000000000009033990000627000000000000000000000000010002020016294106221300000000002            2  01162941062209062200000003072050000000001N010622000000000000000000000000000000000000000000000000000000000000000100016294119812JURACY FELIX DE ARRUDA                  RUA CARLOS JOSE BORSTENS - 50 AP.23 - AV            11702750                                                            000026
2SR. CAIXA, APOS O VENCIMENTO COBRAR 2% DE MULTA                                 NAO RECEBER APOS 30 DIAS DO VENCIMENTO.                                                                                                                                                                                                         01062200000000000000106220000000000000       0090339900006270162941062213000027
100000000000000000000009033990000627000000000000000000000000010002020005613806221800000000002            2  01056138062211062200000002298870000000001N010622000000000000000000000000000000000000000000000000000000000000000100005613843805NILZA MARIA DE OLIVEIRA                 RUA JOSE GONCALVES DE FREITAS - 66 C2 -             08210550                                                            000029
2SR. CAIXA, APOS O VENCIMENTO COBRAR 2% DE MULTA                                 NAO RECEBER APOS 30 DIAS DO VENCIMENTO.                                                                                                                                                                                                         01062200000000000000106220000000000000       0090339900006270056138062218000030
100000000000000000000009033990000627000000000000000000000000010002020007574906221800000000002            2  01075749062211062200000002359730000000001N010622000000000000000000000000000000000000000000000000000000000000000100007574936889JORGE LUCIANO PEREIRA BORRIELLO         RUA JOSE CALIXTO DO CARMO - 286 AP.54 -             11702690                                                            000032
2SR. CAIXA, APOS O VENCIMENTO COBRAR 2% DE MULTA                                 NAO RECEBER APOS 30 DIAS DO VENCIMENTO.                                                                                                                                                                                                         01062200000000000000106220000000000000       0090339900006270075749062218000033
100000000000000000000009033990000627000000000000000000000000010002020008214906221000000000002            2  01082149062211062200000002395520000000001N010622000000000000000000000000000000000000000000000000000000000000000100008214973830JAMIL CHALA                             RUA JOSE CALIXTO DO CARMO - 286 AP.22 -             11702690                                                            000035
2SR. CAIXA, APOS O VENCIMENTO COBRAR 2% DE MULTA                                 NAO RECEBER APOS 30 DIAS DO VENCIMENTO.                                                                                                                                                                                                         01062200000000000000106220000000000000       0090339900006270082149062210000036
100000000000000000000009033990000627000000000000000000000000010002020032495006221800000000002            2  01324950062211062200000002684500000000001N010622000000000000000000000000000000000000000000000000000000000000000100032495004881PAULO EDUARDO DOS SANTOS                RUA REPUBLICA DO IRAQUE - 1119 - CAMPO B            04611002                                                            000038
2SR. CAIXA, APOS O VENCIMENTO COBRAR 2% DE MULTA                                 NAO RECEBER APOS 30 DIAS DO VENCIMENTO.                                                                                                                                                                                                         01062200000000000000106220000000000000       0090339900006270324950062218000039
100000000000000000000009033990000627000000000000000000000000010002020016498006221500000000002            2  01164980062211062200000002354370000000001N010622000000000000000000000000000000000000000000000000000000000000000100016498053810GILMA CEZARIO GARCIA CORRITORI          RUA LAURENTINO XAVIER DOS SANTOS - 336 -            08240740                                                            000041
2SR. CAIXA, APOS O VENCIMENTO COBRAR 2% DE MULTA                                 NAO RECEBER APOS 30 DIAS DO VENCIMENTO.                                                                                                                                                                                                         01062200000000000000106220000000000000       0090339900006270164980062215000042
100000000000000000000009033990000627000000000000000000000000010002020029339006221400000000002            2  01293390062211062200000002517610000000001N010622000000000000000000000000000000000000000000000000000000000000000100029339051831RONALD DIDOFF                           RUA CORONEL FERREIRA BRAGA - 188 - VILA             03522010                                                            000044
2SR. CAIXA, APOS O VENCIMENTO COBRAR 2% DE MULTA                                 NAO RECEBER APOS 30 DIAS DO VENCIMENTO.                                                                                                                                                                                                         01062200000000000000106220000000000000       0090339900006270293390062214000045
100000000000000000000009033990000627000000000000000000000000010002020017357806221600000000002            2  01173578062211062200000002666370000000001N010622000000000000000000000000000000000000000000000000000000000000000100017357859894MARCIO GUIMARAES                        RUA GENERAL CAMARA - 188 SALA 11 - CENTR            11010120                                                            000047
2SR. CAIXA, APOS O VENCIMENTO COBRAR 2% DE MULTA                                 NAO RECEBER APOS 30 DIAS DO VENCIMENTO.                                                                                                                                                                                                         01062200000000000000106220000000000000       0090339900006270173578062216000048
100000000000000000000009033990000627000000000000000000000000010002020010563006221600000000002            2  01105630062211062200000002734520000000001N010622000000000000000000000000000000000000000000000000000000000000000100010563033878VERA LUCIA RIBEIRO LONGANEZI            RUA DOS CAMARES - 150 AP.24 BL.02 - CARA            02068030                                                            000050
2SR. CAIXA, APOS O VENCIMENTO COBRAR 2% DE MULTA                                 NAO RECEBER APOS 30 DIAS DO VENCIMENTO.                                                                                                                                                                                                         01062200000000000000106220000000000000       0090339900006270105630062216000051
100000000000000000000009033990000627000000000000000000000000010002020005529606221000000000002            2  01055296062211062200000002481490000000001N010622000000000000000000000000000000000000000000000000000000000000000100005529616801JOAQUIM JORGE DA COSTA                  RUA JOSE CALIXTO DO CARMO - 286 AP.106 -            11702690                                                            000053
2SR. CAIXA, APOS O VENCIMENTO COBRAR 2% DE MULTA                                 NAO RECEBER APOS 30 DIAS DO VENCIMENTO.                                                                                                                                                                                                         01062200000000000000106220000000000000       0090339900006270055296062210000054
100000000000000000000009033990000627000000000000000000000000010002020015550706221700000000002            2  01155507062209062200000002345430000000001N010622000000000000000000000000000000000000000000000000000000000000000100015550706806MARY MIWA                               RUA CARLOS JOSE BORSTENS - 50 AP.105 - A            11702750                                                            000056
2SR. CAIXA, APOS O VENCIMENTO COBRAR 2% DE MULTA                                 NAO RECEBER APOS 30 DIAS DO VENCIMENTO.                                                                                                                                                                                                         01062200000000000000106220000000000000       0090339900006270155507062217000057
100000000000000000000009033990000627000000000000000000000000010002020015464606221700000000002            2  01154646062211062200000002608630000000001N010622000000000000000000000000000000000000000000000000000000000000000100015464647864SONIA TERESA VOLPATO                    RUA JOSE CALIXTO DO CARMO - 286 AP.73 -             11702690                                                            000059
2SR. CAIXA, APOS O VENCIMENTO COBRAR 2% DE MULTA                                 NAO RECEBER APOS 30 DIAS DO VENCIMENTO.                                                                                                                                                                                                         01062200000000000000106220000000000000       0090339900006270154646062217000060
100000000000000000000009033990000627000000000000000000000000010002020008657806221600000000002            2  01086578062211062200000002582430000000001N010622000000000000000000000000000000000000000000000000000000000000000100008657886855ARLINDO DA CRUZ                         AVENIDA ARICANDUVA - 8.256 AP.54 BL.10 -            03951220                                                            000062
2SR. CAIXA, APOS O VENCIMENTO COBRAR 2% DE MULTA                                 NAO RECEBER APOS 30 DIAS DO VENCIMENTO.                                                                                                                                                                                                         01062200000000000000106220000000000000       0090339900006270086578062216000063
100000000000000000000009033990000627000000000000000000000000010002020059735106221400000000002            2  01597351062209062200000001459700000000001N010622000000000000000000000000000000000000000000000000000000000000000100059735180863HELIO JOSE MARQUES                      RUA MARTIM AFONSO DE SOUZA - 1007 AP.102            11702790                                                            000065
2SR. CAIXA, APOS O VENCIMENTO COBRAR 2% DE MULTA                                 NAO RECEBER APOS 30 DIAS DO VENCIMENTO.                                                                                                                                                                                                         01062200000000000000106220000000000000       0090339900006270597351062214000066
100000000000000000000009033990000627000000000000000000000000010002020026347806221800000000002            2  01263478062211062200000002760560000000001N010622000000000000000000000000000000000000000000000000000000000000000100026347872862VALDECI SILVA MEIRELES                  RUA JOSE BATISTA DA SILVA - 292 - JARDIM            06851470                                                            000068
2SR. CAIXA, APOS O VENCIMENTO COBRAR 2% DE MULTA                                 NAO RECEBER APOS 30 DIAS DO VENCIMENTO.                                                                                                                                                                                                         01062200000000000000106220000000000000       0090339900006270263478062218000069
100000000000000000000009033990000627000000000000000000000000010002020013135206221900000000002            2  01131352062211062200000002536250000000001N010622000000000000000000000000000000000000000000000000000000000000000100013135261859EDUARDO ZANOLA                          RUA ROLANDO PIETRO BONINI - 46 - JARDIM             09781040                                                            000071
2SR. CAIXA, APOS O VENCIMENTO COBRAR 2% DE MULTA                                 NAO RECEBER APOS 30 DIAS DO VENCIMENTO.                                                                                                                                                                                                         01062200000000000000106220000000000000       0090339900006270131352062219000072
100000000000000000000009033990000627000000000000000000000000010002020009797606221P00000000002            2  01097976062211062200000002470040000000001N010622000000000000000000000000000000000000000000000000000000000000000100009797626857RICARDO SOBRAL DE OLIVEIRA              RUA 23 DE MAIO - 139 AP.32 - VILA MIRIM             11704690                                                            000074
2SR. CAIXA, APOS O VENCIMENTO COBRAR 2% DE MULTA                                 NAO RECEBER APOS 30 DIAS DO VENCIMENTO.                                                                                                                                                                                                         01062200000000000000106220000000000000       009033990000627009797606221P000075
100000000000000000000009033990000627000000000000000000000000010002020004767606221000000000002            2  01047676062209062200000004222340000000001N010622000000000000000000000000000000000000000000000000000000000000000100004767679893ORLANDO GRANDE FILHO                    RUA ORLANDO MIGLIARI - 101 - JARDIM OURO            19906140                                                            000077
2SR. CAIXA, APOS O VENCIMENTO COBRAR 2% DE MULTA                                 NAO RECEBER APOS 30 DIAS DO VENCIMENTO.                                                                                                                                                                                                         01062200000000000000106220000000000000       0090339900006270047676062210000078
100000000000000000000009033990000627000000000000000000000000010002020006512506221800000000002            2  01065125062211062200000002221910000000001N010622000000000000000000000000000000000000000000000000000000000000000100006512547870MARIA DO CARMO FAGUNDES DOS REIS        RUA CARLOS MALCHER - 98 - PARQUE EDU CHA            02232020                                                            000080
2SR. CAIXA, APOS O VENCIMENTO COBRAR 2% DE MULTA                                 NAO RECEBER APOS 30 DIAS DO VENCIMENTO.                                                                                                                                                                                                         01062200000000000000106220000000000000       0090339900006270065125062218000081
100000000000000000000009033990000627000000000000000000000000010002020022728406221000000000002            2  01227284062211062200000002672760000000001N010622000000000000000000000000000000000000000000000000000000000000000100022728497842WILLIAN DE SOUZA MELLO                  RUA JOSE CALIXTO DO CARMO - 286 AP.111 -            11702690                                                            000083
2SR. CAIXA, APOS O VENCIMENTO COBRAR 2% DE MULTA                                 NAO RECEBER APOS 30 DIAS DO VENCIMENTO.                                                                                                                                                                                                         01062200000000000000106220000000000000       0090339900006270227284062210000084
100000000000000000000009033990000627000000000000000000000000010002020016909706221500000000002            2  01169097062211062200000002361870000000001N010622000000000000000000000000000000000000000000000000000000000000000100016909746805EDIVALDO SANTANA DOS SANTOS             ESTRADA JOAO GASPAR DELGADO - 80 AP.213             08536100                                                            000086
2SR. CAIXA, APOS O VENCIMENTO COBRAR 2% DE MULTA                                 NAO RECEBER APOS 30 DIAS DO VENCIMENTO.                                                                                                                                                                                                         01062200000000000000106220000000000000       0090339900006270169097062215000087
100000000000000000000009033990000627000000000000000000000000010002020022036006221200000000002            2  01220360062209062200000003666540000000001N010622000000000000000000000000000000000000000000000000000000000000000100022036003818DERLIS TERAN QUIROGA ROGATO             RUA JOAO RIBEIRO - 320 AP.131SB - CAMPES            09070250                                                            000089
2SR. CAIXA, APOS O VENCIMENTO COBRAR 2% DE MULTA                                 NAO RECEBER APOS 30 DIAS DO VENCIMENTO.                                                                                                                                                                                                         01062200000000000000106220000000000000       0090339900006270220360062212000090
100000000000000000000009033990000627000000000000000000000000010002020017229706223700000000002            2  01172297062209062200000003538540000000001N010622000000000000000000000000000000000000000000000000000000000000000100017229751802BERENICE VIEIRA KERSTING                RUA ATIBAIA - 17 AP.417 - BAIRRO IMPERAD            11707380                                                            000092
2SR. CAIXA, APOS O VENCIMENTO COBRAR 2% DE MULTA                                 NAO RECEBER APOS 30 DIAS DO VENCIMENTO.                                                                                                                                                                                                         01062200000000000000106220000000000000       0090339900006270172297062237000093
100000000000000000000009033990000627000000000000000000000000010002020012475606221600000000002            2  01124756062211062200000002560160000000001N010622000000000000000000000000000000000000000000000000000000000000000100012475663820CELIDALVA GOES DE CARVALHO              RUA JOSE CALIXTO DO CARMO - 286 AP.91 -             11702690                                                            000095
2SR. CAIXA, APOS O VENCIMENTO COBRAR 2% DE MULTA                                 NAO RECEBER APOS 30 DIAS DO VENCIMENTO.                                                                                                                                                                                                         01062200000000000000106220000000000000       0090339900006270124756062216000096
100000000000000000000009033990000627000000000000000000000000010002020033451606221300000000002            2  01334516062211062200000002137900000000001N010622000000000000000000000000000000000000000000000000000000000000000100033451620839ARAO ELISIARIO  NUNES                   RUA JOSE CALIXTO DO CARMO - 286 AP.64 -             11702690                                                            000098
2SR. CAIXA, APOS O VENCIMENTO COBRAR 2% DE MULTA                                 NAO RECEBER APOS 30 DIAS DO VENCIMENTO.                                                                                                                                                                                                         01062200000000000000106220000000000000       0090339900006270334516062213000099
100000000000000000000009033990000627000000000000000000000000010002020045839206221000000000002            2  01458392062211062200000001659380000000001N010622000000000000000000000000000000000000000000000000000000000000000100045839263834LEONARDO ANTONIO CONCELLIERI            RUA JOSE CALIXTO DO CARMO - 286 AP.51 -             11702690                                                            000101
2SR. CAIXA, APOS O VENCIMENTO COBRAR 2% DE MULTA                                 NAO RECEBER APOS 30 DIAS DO VENCIMENTO.                                                                                                                                                                                                         01062200000000000000106220000000000000       0090339900006270458392062210000102
100000000000000000000009033990000627000000000000000000000000010002020011369106221100000000002            2  01113691062211062200000002335390000000001N010622000000000000000000000000000000000000000000000000000000000000000100011369165803ELIANA CORREA DE OLIVEIRA               RUA MAESTRO ZEFERINO SANTANA - 65 - VILA            18040010                                                            000104
2SR. CAIXA, APOS O VENCIMENTO COBRAR 2% DE MULTA                                 NAO RECEBER APOS 30 DIAS DO VENCIMENTO.                                                                                                                                                                                                         01062200000000000000106220000000000000       0090339900006270113691062211000105
100000000000000000000009033990000627000000000000000000000000010002020002253806221500000000002            2  01022538062211062200000002075710000000001N010622000000000000000000000000000000000000000000000000000000000000000100002253816809EDMILSON ALVES DA SILVA                 RUA JOSE CALIXTO DO CARMO - 286 AP.93 -             11702690                                                            000107
2SR. CAIXA, APOS O VENCIMENTO COBRAR 2% DE MULTA                                 NAO RECEBER APOS 30 DIAS DO VENCIMENTO.                                                                                                                                                                                                         01062200000000000000106220000000000000       0090339900006270022538062215000108
100000000000000000000009033990000627000000000000000000000000010002020037947006221700000000002            2  01379470062211062200000003686600000000001N010622000000000000000000000000000000000000000000000000000000000000000100037947070873BRUNO DE CAETANO MARRINHAS              AVENIDA GENERAL BARRETO DE MENEZES - 323            09791150                                                            000110
2SR. CAIXA, APOS O VENCIMENTO COBRAR 2% DE MULTA                                 NAO RECEBER APOS 30 DIAS DO VENCIMENTO.                                                                                                                                                                                                         01062200000000000000106220000000000000       0090339900006270379470062217000111
100000000000000000000009033990000627000000000000000000000000010002020037517706221500000000002            2  01375177062209062200000003888940000000001N010622000000000000000000000000000000000000000000000000000000000000000100037517785869RENATO JOSE DE LIMA MELO                RUA ARISTIDES LOBO - 148 AP.41 BLOCO 03             03041100                                                            000113
2SR. CAIXA, APOS O VENCIMENTO COBRAR 2% DE MULTA                                 NAO RECEBER APOS 30 DIAS DO VENCIMENTO.                                                                                                                                                                                                         01062200000000000000106220000000000000       0090339900006270375177062215000114
100000000000000000000009033990000627000000000000000000000000010002020070367906221600000000002            2  01703679062211062200000001949220000000001N010622000000000000000000000000000000000000000000000000000000000000000100070367949849TEODOMIRO ALVES DOS SANTOS              RUA ANDRE PAZ - 13 - JARDIM SANTO ANDRE             08390230                                                            000116
2SR. CAIXA, APOS O VENCIMENTO COBRAR 2% DE MULTA                                 NAO RECEBER APOS 30 DIAS DO VENCIMENTO.                                                                                                                                                                                                         01062200000000000000106220000000000000       0090339900006270703679062216000117
100000000000000000000009033990000627000000000000000000000000010002020004410806221500000000002            2  01044108062209062200000002889540000000001N010622000000000000000000000000000000000000000000000000000000000000000100004410802860LUIZ ALBERTO MARINHO                    RUA DA INDEPENDENCIA - 706 AP.41B - CAMB            01524000                                                            000119
2SR. CAIXA, APOS O VENCIMENTO COBRAR 2% DE MULTA                                 NAO RECEBER APOS 30 DIAS DO VENCIMENTO.                                                                                                                                                                                                         01062200000000000000106220000000000000       0090339900006270044108062215000120
100000000000000000000009033990000627000000000000000000000000010002020018035006221200000000002            2  01180350062211062200000002608820000000001N010622000000000000000000000000000000000000000000000000000000000000000100018035075861ROSANGELA BISPO SANTOS                  RUA CASSIANO GABUS MENDES - 292 - JD. CA            09896160                                                            000122
2SR. CAIXA, APOS O VENCIMENTO COBRAR 2% DE MULTA                                 NAO RECEBER APOS 30 DIAS DO VENCIMENTO.                                                                                                                                                                                                         01062200000000000000106220000000000000       0090339900006270180350062212000123
100000000000000000000009033990000627000000000000000000000000010002020004767606222900000000002            2  01047676062209062200000003857450000000001N010622000000000000000000000000000000000000000000000000000000000000000100004767679893ORLANDO GRANDE FILHO                    RUA ORLANDO MIGLIARI - 101 - JARDIM OURO            19906140                                                            000125
2SR. CAIXA, APOS O VENCIMENTO COBRAR 2% DE MULTA                                 NAO RECEBER APOS 30 DIAS DO VENCIMENTO.                                                                                                                                                                                                         01062200000000000000106220000000000000       0090339900006270047676062229000126
100000000000000000000009033990000627000000000000000000000000010002020064677806221600000000002            2  01646778062209062200000003103020000000001N010622000000000000000000000000000000000000000000000000000000000000000100064677850887ANTONIO CARLOS DE OLIVEIRA              RUA DR.ANTONIO MAZILLI FILHO - 435 - PAR            02230070                                                            000128
2SR. CAIXA, APOS O VENCIMENTO COBRAR 2% DE MULTA                                 NAO RECEBER APOS 30 DIAS DO VENCIMENTO.                                                                                                                                                                                                         01062200000000000000106220000000000000       0090339900006270646778062216000129
100000000000000000000009033990000627000000000000000000000000010002020007328906221100000000002            2  01073289062209062200000003785860000000001N010622000000000000000000000000000000000000000000000000000000000000000100007328927836BENEDITO APARECIDO ROCHA                AVENIDA SENADOR JOSE ERMINIO DE MORAES -            02357002                                                            000131
2SR. CAIXA, APOS O VENCIMENTO COBRAR 2% DE MULTA                                 NAO RECEBER APOS 30 DIAS DO VENCIMENTO.                                                                                                                                                                                                         01062200000000000000106220000000000000       0090339900006270073289062211000132
100000000000000000000009033990000627000000000000000000000000010002020058488606221900000000002            2  01584886062209062200000002830190000000001N010622000000000000000000000000000000000000000000000000000000000000000100058488618972ADAILTON ZANUTTO MORESCHI               R:RAPHAEL UNGARO - COND.RESERVA SERRA Q.            13212138                                                            000134
2SR. CAIXA, APOS O VENCIMENTO COBRAR 2% DE MULTA                                 NAO RECEBER APOS 30 DIAS DO VENCIMENTO.                                                                                                                                                                                                         01062200000000000000106220000000000000       0090339900006270584886062219000135
100000000000000000000009033990000627000000000000000000000000010002020002196006221300000000002            2  01021960062211062200000002128750000000001N010622000000000000000000000000000000000000000000000000000000000000000100002196012831VILEFORT DIAS BORGES                    RUA PORTO XAVIER - 189 AP.64 - VILA CARM            08210170                                                            000137
2SR. CAIXA, APOS O VENCIMENTO COBRAR 2% DE MULTA                                 NAO RECEBER APOS 30 DIAS DO VENCIMENTO.                                                                                                                                                                                                         01062200000000000000106220000000000000       0090339900006270021960062213000138
100000000000000000000009033990000627000000000000000000000000010002020031861506221100000000002            2  01318615062211062200000002212590000000001N010622000000000000000000000000000000000000000000000000000000000000000100031861586809VANIA TOMAZ                              -  -  -  -                                         00000000                                                            000140
2SR. CAIXA, APOS O VENCIMENTO COBRAR 2% DE MULTA                                 NAO RECEBER APOS 30 DIAS DO VENCIMENTO.                                                                                                                                                                                                         01062200000000000000106220000000000000       0090339900006270318615062211000141
100000000000000000000009033990000627000000000000000000000000010002020003104506221500000000002            2  01031045062209062200000008238580000000001N010622000000000000000000000000000000000000000000000000000000000000000100003104580804NELSON RODRIGUES                        RUA CARLOS JOSE BORSTENS - 50 AP.81 - AV            11702750                                                            000143
2SR. CAIXA, APOS O VENCIMENTO COBRAR 2% DE MULTA                                 NAO RECEBER APOS 30 DIAS DO VENCIMENTO.                                                                                                                                                                                                         01062200000000000000106220000000000000       0090339900006270031045062215000144
100000000000000000000009033990000627000000000000000000000000010002020007715306221300000000002            2  01077153062209062200000003480790000000001N010622000000000000000000000000000000000000000000000000000000000000000100007715360627NILTON RENNAN OLIVEIRA GOMES FILHO      RUA CARLOS JOSE BORSTENS - 50 AP.21 - AV            11702750                                                            000146
2SR. CAIXA, APOS O VENCIMENTO COBRAR 2% DE MULTA                                 NAO RECEBER APOS 30 DIAS DO VENCIMENTO.                                                                                                                                                                                                         01062200000000000000106220000000000000       0090339900006270077153062213000147
100000000000000000000009033990000627000000000000000000000000010002020007194006221400000000002            2  01071940062211062200000002474240000000001N010622000000000000000000000000000000000000000000000000000000000000000100007194010895RAUL AMANTINO KIRK DE SANCTIS           AVENIDA SANTA CATARINA - 756 AP.01 - VIL            04378000                                                            000149
2SR. CAIXA, APOS O VENCIMENTO COBRAR 2% DE MULTA                                 NAO RECEBER APOS 30 DIAS DO VENCIMENTO.                                                                                                                                                                                                         01062200000000000000106220000000000000       0090339900006270071940062214000150
100000000000000000000009033990000627000000000000000000000000010002020025738606221100000000002            2  01257386062209062200000004999200000000001N010622000000000000000000000000000000000000000000000000000000000000000100025738614810VILMAR JOSE PEREIRA                     ALAMEDA TIETE - 646 - CERQUEIRA CESAR -             01417020                                                            000152
2SR. CAIXA, APOS O VENCIMENTO COBRAR 2% DE MULTA                                 NAO RECEBER APOS 30 DIAS DO VENCIMENTO.                                                                                                                                                                                                         01062200000000000000106220000000000000       0090339900006270257386062211000153
100000000000000000000009033990000627000000000000000000000000010002020025738606222P00000000002            2  01257386062209062200000004999170000000001N010622000000000000000000000000000000000000000000000000000000000000000100025738614810VILMAR JOSE PEREIRA                     ALAMEDA TIETE - 646 - CERQUEIRA CESAR -             01417020                                                            000155
2SR. CAIXA, APOS O VENCIMENTO COBRAR 2% DE MULTA                                 NAO RECEBER APOS 30 DIAS DO VENCIMENTO.                                                                                                                                                                                                         01062200000000000000106220000000000000       009033990000627025738606222P000156
100000000000000000000009033990000627000000000000000000000000010002020025738606223800000000002            2  01257386062209062200000004999180000000001N010622000000000000000000000000000000000000000000000000000000000000000100025738614810VILMAR JOSE PEREIRA                     ALAMEDA TIETE - 646 - CERQUEIRA CESAR -             01417020                                                            000158
2SR. CAIXA, APOS O VENCIMENTO COBRAR 2% DE MULTA                                 NAO RECEBER APOS 30 DIAS DO VENCIMENTO.                                                                                                                                                                                                         01062200000000000000106220000000000000       0090339900006270257386062238000159
100000000000000000000009033990000627000000000000000000000000010002020025738606224600000000002            2  01257386062209062200000004999190000000001N010622000000000000000000000000000000000000000000000000000000000000000100025738614810VILMAR JOSE PEREIRA                     ALAMEDA TIETE - 646 - CERQUEIRA CESAR -             01417020                                                            000161
2SR. CAIXA, APOS O VENCIMENTO COBRAR 2% DE MULTA                                 NAO RECEBER APOS 30 DIAS DO VENCIMENTO.                                                                                                                                                                                                         01062200000000000000106220000000000000       0090339900006270257386062246000162
100000000000000000000009033990000627000000000000000000000000010002020011141506221300000000002            2  01111415062211062200000002599960000000001N010622000000000000000000000000000000000000000000000000000000000000000100011141508869PAULO ROBERTO TUNES SILVA               RUA PETROBRAS - 405 CASA 07 - VILA ANTON            03474060                                                            000164
2SR. CAIXA, APOS O VENCIMENTO COBRAR 2% DE MULTA                                 NAO RECEBER APOS 30 DIAS DO VENCIMENTO.                                                                                                                                                                                                         01062200000000000000106220000000000000       0090339900006270111415062213000165
100000000000000000000009033990000627000000000000000000000000010002020012449106221900000000002            2  01124491062211062200000002619810000000001N010622000000000000000000000000000000000000000000000000000000000000000100012449104810GILBERTO DOS SANTOS JUNIOR              RUA ALMIRANTE TAMANDARE - 89 AP.143 - BA            09310350                                                            000167
2SR. CAIXA, APOS O VENCIMENTO COBRAR 2% DE MULTA                                 NAO RECEBER APOS 30 DIAS DO VENCIMENTO.                                                                                                                                                                                                         01062200000000000000106220000000000000       0090339900006270124491062219000168
100000000000000000000009033990000627000000000000000000000000010002020011261306221700000000002            2  01112613062209062200000003455900000000001N010622000000000000000000000000000000000000000000000000000000000000000100011261359844JOVANETE DOS SANTOS PASSOS              RUA FULVIO MORGANTI - 672 - JARDIM PARAI            02417170                                                            000170
2SR. CAIXA, APOS O VENCIMENTO COBRAR 2% DE MULTA                                 NAO RECEBER APOS 30 DIAS DO VENCIMENTO.                                                                                                                                                                                                         01062200000000000000106220000000000000       0090339900006270112613062217000171
9                                                                                                                                                                                                                                                                                                                                                                                                         000172