01REMESSA01COBRANCA       00000000000008017025HB SANTOS CONSTRUTORA E INCORP237BRADESCO       090118        MX0000047                                                                                                                                                                                                                                                                                     000001
100000000000000000000009033990000627000000000000000000000000010002020025035101181400000000002            2  01250351011824011800000001823520000000001N090118000000000000000000000000000000000000000000000000000000000000000100025035170802WANDERSON LUIS DE CARVALHO              RUA JOAQUIM GONCALVES ROCHA - 302 - JARD            02859030                                                            000002
2SR. CAIXA, APOS O VENCIMENTO COBRAR 2% DE MULTA                                 NAO RECEBER APOS 30 DIAS DO VENCIMENTO.                                                                                                                                                                                                         09011800000000000000901180000000000000       0090339900006270250351011814000003
100000000000000000000009033990000627000000000000000000000000010002020007294301181100000000002            2  01072943011824011800000002452690000000001N090118000000000000000000000000000000000000000000000000000000000000000100007294351805CLAUDENIR APARECIDO VACARI              RUA OFELIA CHAVES DE MEIRELLES - 989 CAS            11360210                                                            000005
2SR. CAIXA, APOS O VENCIMENTO COBRAR 2% DE MULTA                                 NAO RECEBER APOS 30 DIAS DO VENCIMENTO.                                                                                                                                                                                                         09011800000000000000901180000000000000       0090339900006270072943011811000006
100000000000000000000009033990000627000000000000000000000000010002020042976101181100000000002            2  01429761011824011800000002478420000000001N090118000000000000000000000000000000000000000000000000000000000000000100042976111634ACACIO TOSCANO BONDANCA                 RUA COMENDADOR JACOMO ANTONIO LA SELVA -            12946797                                                            000008
2SR. CAIXA, APOS O VENCIMENTO COBRAR 2% DE MULTA                                 NAO RECEBER APOS 30 DIAS DO VENCIMENTO.                                                                                                                                                                                                         09011800000000000000901180000000000000       0090339900006270429761011811000009
100000000000000000000009033990000627000000000000000000000000010002020035438001181500000000002            2  01354380011824011800000002093140000000001N090118000000000000000000000000000000000000000000000000000000000000000100035438022836ALESSANDRO FARACO DOS SANTOS            RUA PEDRO POMAR  - 145 - JARDIM ELISA MA            02875020                                                            000011
2SR. CAIXA, APOS O VENCIMENTO COBRAR 2% DE MULTA                                 NAO RECEBER APOS 30 DIAS DO VENCIMENTO.                                                                                                                                                                                                         09011800000000000000901180000000000000       0090339900006270354380011815000012
100000000000000000000009033990000627000000000000000000000000010002020007525001181700000000002            2  01075250011824011800000002743430000000001N090118000000000000000000000000000000000000000000000000000000000000000100007525032866FERNANDO RIBEIRO                        RUA ALDO COLI - 539 - VILA MIRIM - PRAIA            11704760                                                            000014
2SR. CAIXA, APOS O VENCIMENTO COBRAR 2% DE MULTA                                 NAO RECEBER APOS 30 DIAS DO VENCIMENTO.                                                                                                                                                                                                         09011800000000000000901180000000000000       0090339900006270075250011817000015
100000000000000000000009033990000627000000000000000000000000010002020031898701181800000000002            2  01318987011824011800000003153150000000001N090118000000000000000000000000000000000000000000000000000000000000000100031898775800ANITA MARTINS COLOMBO                   RUA OSVALDO CRUZ - 49 - BOQUEIRAO - PRAI            11701360                                                            000017
2SR. CAIXA, APOS O VENCIMENTO COBRAR 2% DE MULTA                                 NAO RECEBER APOS 30 DIAS DO VENCIMENTO.                                                                                                                                                                                                         09011800000000000000901180000000000000       0090339900006270318987011818000018
100000000000000000000009033990000627000000000000000000000000010002020005520101181900000000002            2  01055201011824011800000002406510000000001N090118000000000000000000000000000000000000000000000000000000000000000100005520147884ERIBALDO SANTANA CARVALHO               RUA HONDURAS - 477 - PARQUE DAS AMERICAS            09351070                                                            000020
2SR. CAIXA, APOS O VENCIMENTO COBRAR 2% DE MULTA                                 NAO RECEBER APOS 30 DIAS DO VENCIMENTO.                                                                                                                                                                                                         09011800000000000000901180000000000000       0090339900006270055201011819000021
100000000000000000000009033990000627000000000000000000000000010002020002841701181600000000002            2  01028417011824011800000002251500000000001N090118000000000000000000000000000000000000000000000000000000000000000100002841756416LUCIANA PINHEIRO DE ASSIS NUNES         RUA RIO ACIMA - 81 - RIACHO GRANDE - SAO            09830100                                                            000023
2SR. CAIXA, APOS O VENCIMENTO COBRAR 2% DE MULTA                                 NAO RECEBER APOS 30 DIAS DO VENCIMENTO.                                                                                                                                                                                                         09011800000000000000901180000000000000       0090339900006270028417011816000024
100000000000000000000009033990000627000000000000000000000000010002020084302001181500000000002            2  01843020011824011800000002262280000000001N090118000000000000000000000000000000000000000000000000000000000000000100084302097868FAUSTO TADEU VILOR                      RUA ANTONIO TAVARES - 466 - BAIRRO CAMBU            01542010                                                            000026
2SR. CAIXA, APOS O VENCIMENTO COBRAR 2% DE MULTA                                 NAO RECEBER APOS 30 DIAS DO VENCIMENTO.                                                                                                                                                                                                         09011800000000000000901180000000000000       0090339900006270843020011815000027
100000000000000000000009033990000627000000000000000000000000010002020018207001181P00000000002            2  01182070011824011800000002147870000000001N090118000000000000000000000000000000000000000000000000000000000000000100018207096802ROBERTO VALENTE TAVARES                 RUA SEBASTIAO GOMES - 218 - JARDIM SANTO            13835000                                                            000029
2SR. CAIXA, APOS O VENCIMENTO COBRAR 2% DE MULTA                                 NAO RECEBER APOS 30 DIAS DO VENCIMENTO.                                                                                                                                                                                                         09011800000000000000901180000000000000       009033990000627018207001181P000030
100000000000000000000009033990000627000000000000000000000000010002020028804201181500000000002            2  01288042011824011800000002222730000000001N090118000000000000000000000000000000000000000000000000000000000000000100028804202882GILBERTO FABIANO CABRAL DE CAMARGO      RUA JOAO AMADO COUTINHO - 444 AP.11 A -             02815000                                                            000032
2SR. CAIXA, APOS O VENCIMENTO COBRAR 2% DE MULTA                                 NAO RECEBER APOS 30 DIAS DO VENCIMENTO.                                                                                                                                                                                                         09011800000000000000901180000000000000       0090339900006270288042011815000033
100000000000000000000009033990000627000000000000000000000000010002020000991701181800000000002            2  01009917011824011800000002169450000000001N090118000000000000000000000000000000000000000000000000000000000000000100000991748808JAILSON BORGES DE ANDRADE               RUA IPIOBUNA - 45 - JARDIM CUMBICA - GUA            07240040                                                            000035
2SR. CAIXA, APOS O VENCIMENTO COBRAR 2% DE MULTA                                 NAO RECEBER APOS 30 DIAS DO VENCIMENTO.                                                                                                                                                                                                         09011800000000000000901180000000000000       0090339900006270009917011818000036
100000000000000000000009033990000627000000000000000000000000010002020092180201181500000000002            2  01921802011824011800000002957810000000001N090118000000000000000000000000000000000000000000000000000000000000000100092180299834LUIS ROBERTO DE SA DUARTE               RUA TEBAS - 296 AP.84 BLOCO 2 CE - JARDI            04634031                                                            000038
2SR. CAIXA, APOS O VENCIMENTO COBRAR 2% DE MULTA                                 NAO RECEBER APOS 30 DIAS DO VENCIMENTO.                                                                                                                                                                                                         09011800000000000000901180000000000000       0090339900006270921802011815000039
100000000000000000000009033990000627000000000000000000000000010002020022151601181400000000002            2  01221516011824011800000002156880000000001N090118000000000000000000000000000000000000000000000000000000000000000100022151666816SAMIR LIMA DE ARAUJO                    AVENIDA GUARAPIRANGA - 2616 AP.42 BLOCO1            04902005                                                            000041
2SR. CAIXA, APOS O VENCIMENTO COBRAR 2% DE MULTA                                 NAO RECEBER APOS 30 DIAS DO VENCIMENTO.                                                                                                                                                                                                         09011800000000000000901180000000000000       0090339900006270221516011814000042
100000000000000000000009033990000627000000000000000000000000010002020022313101181600000000002            2  01223131011826011800000001713620000000001N090118000000000000000000000000000000000000000000000000000000000000000100022313116824ROSA MARIA BRITO DA SILVA               RUA SERVIDAO DE SAO MARCOS - 113 - JARDI            04930300                                                            000044
2SR. CAIXA, APOS O VENCIMENTO COBRAR 2% DE MULTA                                 NAO RECEBER APOS 30 DIAS DO VENCIMENTO.                                                                                                                                                                                                         09011800000000000000901180000000000000       0090339900006270223131011816000045
100000000000000000000009033990000627000000000000000000000000010002020027538001181800000000002            2  01275380011826011800000001719590000000001N090118000000000000000000000000000000000000000000000000000000000000000100027538087249MARA LUCIA MENEZES DA COSTA             RUA LEILA  - 183 - ITAQUERA - SAO PAULO             08240020                                                            000047
2SR. CAIXA, APOS O VENCIMENTO COBRAR 2% DE MULTA                                 NAO RECEBER APOS 30 DIAS DO VENCIMENTO.                                                                                                                                                                                                         09011800000000000000901180000000000000       0090339900006270275380011818000048
100000000000000000000009033990000627000000000000000000000000010002020020105501181600000000002            2  01201055011826011800000001820420000000001N090118000000000000000000000000000000000000000000000000000000000000000100020105503827VALTER DE SOUSA LIBARINO FILHO          RUA DAS PAINEIRAS - 140 - LARANJEIRAS -             07700000                                                            000050
2SR. CAIXA, APOS O VENCIMENTO COBRAR 2% DE MULTA                                 NAO RECEBER APOS 30 DIAS DO VENCIMENTO.                                                                                                                                                                                                         09011800000000000000901180000000000000       0090339900006270201055011816000051
100000000000000000000009033990000627000000000000000000000000010002020031278401181400000000002            2  01312784011824011800000002083610000000001N090118000000000000000000000000000000000000000000000000000000000000000100031278411836JEFFERSON DE PIERI PIRES ZAMUNER        RUA MANOEL ARCE - 277 - PARQUE BANCARIO             03922150                                                            000053
2SR. CAIXA, APOS O VENCIMENTO COBRAR 2% DE MULTA                                 NAO RECEBER APOS 30 DIAS DO VENCIMENTO.                                                                                                                                                                                                         09011800000000000000901180000000000000       0090339900006270312784011814000054
100000000000000000000009033990000627000000000000000000000000010002020019185701181600000000002            2  01191857011826011800000001564880000000001N090118000000000000000000000000000000000000000000000000000000000000000100019185769800AGUINALDO PESSOA DE LIMA                RUA JANUARIO ZINGARO - 252 AP.303 BL.04             05794300                                                            000056
2SR. CAIXA, APOS O VENCIMENTO COBRAR 2% DE MULTA                                 NAO RECEBER APOS 30 DIAS DO VENCIMENTO.                                                                                                                                                                                                         09011800000000000000901180000000000000       0090339900006270191857011816000057
100000000000000000000009033990000627000000000000000000000000010002020033303601181700000000002            2  01333036011826011800000001054450000000001N090118000000000000000000000000000000000000000000000000000000000000000100033303645809JESSICA DA SILVA FREITAS                RUA ARILDO VALADAO - 120 - JARDIM GUAEMB            04814600                                                            000059
2SR. CAIXA, APOS O VENCIMENTO COBRAR 2% DE MULTA                                 NAO RECEBER APOS 30 DIAS DO VENCIMENTO.                                                                                                                                                                                                         09011800000000000000901180000000000000       0090339900006270333036011817000060
100000000000000000000009033990000627000000000000000000000000010002020004824401181600000000002            2  01048244011826011800000001698830000000001N090118000000000000000000000000000000000000000000000000000000000000000100004824443806ROSIMEIRE CLARA FERREIRA REZENDE        RUA JOAQUIM DE OLIVEIRA FREITAS - 912 AP            05133000                                                            000062
2SR. CAIXA, APOS O VENCIMENTO COBRAR 2% DE MULTA                                 NAO RECEBER APOS 30 DIAS DO VENCIMENTO.                                                                                                                                                                                                         09011800000000000000901180000000000000       0090339900006270048244011816000063
100000000000000000000009033990000627000000000000000000000000010002020006422601181200000000002            2  01064226011824011800000002256610000000001N090118000000000000000000000000000000000000000000000000000000000000000100006422607881GERALDO ALVES DA SILVA                  RUA ALFREDO JOREL - 195 AP.5 CONDOMINIO             04195020                                                            000065
2SR. CAIXA, APOS O VENCIMENTO COBRAR 2% DE MULTA                                 NAO RECEBER APOS 30 DIAS DO VENCIMENTO.                                                                                                                                                                                                         09011800000000000000901180000000000000       0090339900006270064226011812000066
100000000000000000000009033990000627000000000000000000000000010002020033877101181400000000002            2  01338771011826011800000001580210000000001N090118000000000000000000000000000000000000000000000000000000000000000100033877129870HELDER FERREIRA VIANA                   RUA LEOPOLDO MOTTA E SILVA - 93 AP.34 -             11320340                                                            000068
2SR. CAIXA, APOS O VENCIMENTO COBRAR 2% DE MULTA                                 NAO RECEBER APOS 30 DIAS DO VENCIMENTO.                                                                                                                                                                                                         09011800000000000000901180000000000000       0090339900006270338771011814000069
100000000000000000000009033990000627000000000000000000000000010002020028290701181800000000002            2  01282907011826011800000001456350000000001N090118000000000000000000000000000000000000000000000000000000000000000100028290719809VANESSA GIANGARRELLI PEREIRA            RUA BARINEL - 72 - JARDIM COTCHING - SAO            03462130                                                            000071
2SR. CAIXA, APOS O VENCIMENTO COBRAR 2% DE MULTA                                 NAO RECEBER APOS 30 DIAS DO VENCIMENTO.                                                                                                                                                                                                         09011800000000000000901180000000000000       0090339900006270282907011818000072
100000000000000000000009033990000627000000000000000000000000010002020087573001181300000000002            2  01875730011826011800000001590340000000001N090118000000000000000000000000000000000000000000000000000000000000000100087573059604VANDERLEY DE ASSIS                      RUA ROMEU ALBANI - 268 - JARDIM PARQUE R            13803810                                                            000074
2SR. CAIXA, APOS O VENCIMENTO COBRAR 2% DE MULTA                                 NAO RECEBER APOS 30 DIAS DO VENCIMENTO.                                                                                                                                                                                                         09011800000000000000901180000000000000       0090339900006270875730011813000075
100000000000000000000009033990000627000000000000000000000000010002020010825501181000000000002            2  01108255011826011800000001659600000000001N090118000000000000000000000000000000000000000000000000000000000000000100010825513847JOSE APARECIDO PEREIRA                  RUA GENERAL OSORIO - 305 - JARDIM TRINTA            11515130                                                            000077
2SR. CAIXA, APOS O VENCIMENTO COBRAR 2% DE MULTA                                 NAO RECEBER APOS 30 DIAS DO VENCIMENTO.                                                                                                                                                                                                         09011800000000000000901180000000000000       0090339900006270108255011810000078
100000000000000000000009033990000627000000000000000000000000010002020038818501181000000000002            2  01388185011826011800000002593140000000001N090118000000000000000000000000000000000000000000000000000000000000000100038818572814MAURICIUS ALEXANDRE ESTEVAM NABOR       RUA RAUL SERAPIAO BARROSO - 379 - ESPLAN            11340330                                                            000080
2SR. CAIXA, APOS O VENCIMENTO COBRAR 2% DE MULTA                                 NAO RECEBER APOS 30 DIAS DO VENCIMENTO.                                                                                                                                                                                                         09011800000000000000901180000000000000       0090339900006270388185011810000081
100000000000000000000009033990000627000000000000000000000000010002020039115101181200000000002            2  01391151011826011800000002045740000000001N090118000000000000000000000000000000000000000000000000000000000000000100039115139840LAIS CRISTINA RIBEIRO ANDO              RUA PERU - 769 AP.17 - VILA GUILHERMINA             11702250                                                            000083
2SR. CAIXA, APOS O VENCIMENTO COBRAR 2% DE MULTA                                 NAO RECEBER APOS 30 DIAS DO VENCIMENTO.                                                                                                                                                                                                         09011800000000000000901180000000000000       0090339900006270391151011812000084
100000000000000000000009033990000627000000000000000000000000010002020029617501181000000000002            2  01296175011824011800000002214920000000001N090118000000000000000000000000000000000000000000000000000000000000000100029617510553MARILENE SOUZA DE OLIVEIRA              AVENIDA BRASIL - 393 AP.09 - PARQUE DAS             09210280                                                            000086
2SR. CAIXA, APOS O VENCIMENTO COBRAR 2% DE MULTA                                 NAO RECEBER APOS 30 DIAS DO VENCIMENTO.                                                                                                                                                                                                         09011800000000000000901180000000000000       0090339900006270296175011810000087
100000000000000000000009033990000627000000000000000000000000010002020065584101181200000000002            2  01655841011824011800000001275180000000001N090118000000000000000000000000000000000000000000000000000000000000000100065584147834JOAQUIM DA COSTA MACHADO NETO           RUA SERTANISTA FRANCISCO MEIRELIS - 439             11703460                                                            000089
2SR. CAIXA, APOS O VENCIMENTO COBRAR 2% DE MULTA                                 NAO RECEBER APOS 30 DIAS DO VENCIMENTO.                                                                                                                                                                                                         09011800000000000000901180000000000000       0090339900006270655841011812000090
100000000000000000000009033990000627000000000000000000000000010002020001616901181400000000002            2  01016169011824011800000002242700000000001N090118000000000000000000000000000000000000000000000000000000000000000100001616913827CLAUDIO LUIZ PAULELLA                   PRACA NESTOR DOS SANTOS ARRUDA - 26 - VI            13920000                                                            000092
2SR. CAIXA, APOS O VENCIMENTO COBRAR 2% DE MULTA                                 NAO RECEBER APOS 30 DIAS DO VENCIMENTO.                                                                                                                                                                                                         09011800000000000000901180000000000000       0090339900006270016169011814000093
100000000000000000000009033990000627000000000000000000000000010002020006684601181500000000002            2  01066846011826011800000001685260000000001N090118000000000000000000000000000000000000000000000000000000000000000100006684623884LAUDINOR VIEIRA GARCIA                  RUA CANDIDO SALES - 374 - JARDIM PRESIDE            07172000                                                            000095
2SR. CAIXA, APOS O VENCIMENTO COBRAR 2% DE MULTA                                 NAO RECEBER APOS 30 DIAS DO VENCIMENTO.                                                                                                                                                                                                         09011800000000000000901180000000000000       0090339900006270066846011815000096
100000000000000000000009033990000627000000000000000000000000010002020011663501181600000000002            2  01116635011826011800000001697410000000001N090118000000000000000000000000000000000000000000000000000000000000000100011663589844MARIA SAVIO QUARELLO                    AVENIDA MENDONCA DRUMOND - 321 - JARDIM             03524030                                                            000098
2SR. CAIXA, APOS O VENCIMENTO COBRAR 2% DE MULTA                                 NAO RECEBER APOS 30 DIAS DO VENCIMENTO.                                                                                                                                                                                                         09011800000000000000901180000000000000       0090339900006270116635011816000099
9                                                                                                                                                                                                                                                                                                                                                                                                         000100