01REMESSA01COBRANCA       00000000000005331186HB SANTOS CONSTRUTORA E INCORP237BRADESCO       031220        MX0000014                                                                                                                                                                                                                                                                                     000001
100000000000000000000009033990000995400000000000000000000000010002020005723212201800000000002            2  01057232122023122000000002627960000000001N031220000000000000000000000000000000000000000000000000000000000000000100005723255843FRANCISCO DE ASSIS DA SILVA             PRACA NICOLAU GERAIGIRE - 25 VISOR - JAR            11095110                                                            000002
2SR. CAIXA, APOS O VENCIMENTO COBRAR 2% DE MULTA                                 NAO RECEBER APOS 30 DIAS DO VENCIMENTO.                                                                                                                                                                                                         03122000000000000000312200000000000000       0090339900009954057232122018000003
100000000000000000000009033990000995400000000000000000000000010002020004928112201200000000002            2  01049281122023122000000002569950000000001N031220000000000000000000000000000000000000000000000000000000000000000100004928157800ADEMIR APARECIDO ANTUNES                RUA JAIME TAVEIRA - 91 AP.056 B - CHACAR            03732060                                                            000005
2SR. CAIXA, APOS O VENCIMENTO COBRAR 2% DE MULTA                                 NAO RECEBER APOS 30 DIAS DO VENCIMENTO.                                                                                                                                                                                                         03122000000000000000312200000000000000       0090339900009954049281122012000006
100000000000000000000009033990000995400000000000000000000000010002020011238012201P00000000002            2  01112380122023122000000002536620000000001N031220000000000000000000000000000000000000000000000000000000000000000100011238052886SOLANGE DIAS DE SOUZA ROMANO            AVENIDA DR. ALTINO ARANTES - 865 AP.132             04042034                                                            000008
2SR. CAIXA, APOS O VENCIMENTO COBRAR 2% DE MULTA                                 NAO RECEBER APOS 30 DIAS DO VENCIMENTO.                                                                                                                                                                                                         03122000000000000000312200000000000000       009033990000995411238012201P000009
100000000000000000000009033990000995400000000000000000000000010002020032589112201100000000002            2  01325891122023122000000002486620000000001N031220000000000000000000000000000000000000000000000000000000000000000100032589165862RENATA ISABEL MARTINS SILVA             RUA HERCULANO DE FREITAS - 257 - FUNDACA            09520280                                                            000011
2SR. CAIXA, APOS O VENCIMENTO COBRAR 2% DE MULTA                                 NAO RECEBER APOS 30 DIAS DO VENCIMENTO.                                                                                                                                                                                                         03122000000000000000312200000000000000       0090339900009954325891122011000012
100000000000000000000009033990000995400000000000000000000000010002020088339312201500000000002            2  01883393122023122000000002513560000000001N031220000000000000000000000000000000000000000000000000000000000000000100088339319868MARCIA SIQUEIRA MELLO                   RUA ADELINO ALVES - 81 - SANTO AMARO - S            04710120                                                            000014
2SR. CAIXA, APOS O VENCIMENTO COBRAR 2% DE MULTA                                 NAO RECEBER APOS 30 DIAS DO VENCIMENTO.                                                                                                                                                                                                         03122000000000000000312200000000000000       0090339900009954883393122015000015
100000000000000000000009033990000995400000000000000000000000010002020046391212201000000000002            2  01463912122023122000000002607460000000001N031220000000000000000000000000000000000000000000000000000000000000000100046391265810PAMELLA RODRIGUES DE OLIVEIRA           RUA ANTONIO MARQUES LUIZ - 193 - JARDIM             07115090                                                            000017
2SR. CAIXA, APOS O VENCIMENTO COBRAR 2% DE MULTA                                 NAO RECEBER APOS 30 DIAS DO VENCIMENTO.                                                                                                                                                                                                         03122000000000000000312200000000000000       0090339900009954463912122010000018
100000000000000000000009033990000995400000000000000000000000010002020027964512201900000000002            2  01279645122023122000000001590790000000001N031220000000000000000000000000000000000000000000000000000000000000000100027964512838FABIO TADEU DE CAMPOS RADZIAVICIUS      AV.PROF.LUIZ IGNACIO ANHAIA MELLO - 2.58            03154100                                                            000020
2SR. CAIXA, APOS O VENCIMENTO COBRAR 2% DE MULTA                                 NAO RECEBER APOS 30 DIAS DO VENCIMENTO.                                                                                                                                                                                                         03122000000000000000312200000000000000       0090339900009954279645122019000021
100000000000000000000009033990000995400000000000000000000000010002020011498312201700000000002            2  01114983122023122000000001941050000000001N031220000000000000000000000000000000000000000000000000000000000000000100011498329837GERSON GERALDO DAS NEVES                RUA DOMINGOS DELGADO - 144 - VILA SOUZA             02881070                                                            000023
2SR. CAIXA, APOS O VENCIMENTO COBRAR 2% DE MULTA                                 NAO RECEBER APOS 30 DIAS DO VENCIMENTO.                                                                                                                                                                                                         03122000000000000000312200000000000000       0090339900009954114983122017000024
100000000000000000000009033990000995400000000000000000000000010002020068875612201500000000002            2  01688756122023122000000002574130000000001N031220000000000000000000000000000000000000000000000000000000000000000100068875673691ILDETE BATISTA NEIVA GOLFAR             RUA FERNANDO FALCAO - 560 AP.21 - MOOCA             03180000                                                            000026
2SR. CAIXA, APOS O VENCIMENTO COBRAR 2% DE MULTA                                 NAO RECEBER APOS 30 DIAS DO VENCIMENTO.                                                                                                                                                                                                         03122000000000000000312200000000000000       0090339900009954688756122015000027
100000000000000000000009033990000995400000000000000000000000010002020000884212201900000000002            2  01008842122023122000000002364260000000001N031220000000000000000000000000000000000000000000000000000000000000000100000884239802ADEMIR MARTINS                          RUA CAIRO - 221 - VILA METALURGICA - SAN            09220170                                                            000029
2SR. CAIXA, APOS O VENCIMENTO COBRAR 2% DE MULTA                                 NAO RECEBER APOS 30 DIAS DO VENCIMENTO.                                                                                                                                                                                                         03122000000000000000312200000000000000       0090339900009954008842122019000030
9                                                                                                                                                                                                                                                                                                                                                                                                         000031