01REMESSA01COBRANCA       00000000000008017025HB SANTOS CONSTRUTORA E INCORP237BRADESCO       100818        MX0000061                                                                                                                                                                                                                                                                                     000001
100000000000000000000009033990000627000000000000000000000000010002020025035108181200000000002            2  01250351081824081800000001911910000000001N100818000000000000000000000000000000000000000000000000000000000000000100025035170802WANDERSON LUIS DE CARVALHO              RUA JOAQUIM GONCALVES ROCHA - 302 - JARD            02859030                                                            000002
2SR. CAIXA, APOS O VENCIMENTO COBRAR 2% DE MULTA                                 NAO RECEBER APOS 30 DIAS DO VENCIMENTO.                                                                                                                                                                                                         10081800000000000001008180000000000000       0090339900006270250351081812000003
100000000000000000000009033990000627000000000000000000000000010002020007294308181P00000000002            2  01072943081824081800000002571570000000001N100818000000000000000000000000000000000000000000000000000000000000000100007294351805CLAUDENIR APARECIDO VACARI              RUA CARLOS JOSE BORSTENS - 50 AP.93 - AV            11702750                                                            000005
2SR. CAIXA, APOS O VENCIMENTO COBRAR 2% DE MULTA                                 NAO RECEBER APOS 30 DIAS DO VENCIMENTO.                                                                                                                                                                                                         10081800000000000001008180000000000000       009033990000627007294308181P000006
100000000000000000000009033990000627000000000000000000000000010002020042976108181P00000000002            2  01429761081824081800000002598550000000001N100818000000000000000000000000000000000000000000000000000000000000000100042976111634ACACIO TOSCANO BONDANCA                 RUA COMENDADOR JACOMO ANTONIO LA SELVA -            12946797                                                            000008
2SR. CAIXA, APOS O VENCIMENTO COBRAR 2% DE MULTA                                 NAO RECEBER APOS 30 DIAS DO VENCIMENTO.                                                                                                                                                                                                         10081800000000000001008180000000000000       009033990000627042976108181P000009
100000000000000000000009033990000627000000000000000000000000010002020035438008181300000000002            2  01354380081824081800000002194610000000001N100818000000000000000000000000000000000000000000000000000000000000000100035438022836ALESSANDRO FARACO DOS SANTOS            RUA PEDRO POMAR  - 145 - JARDIM ELISA MA            02875020                                                            000011
2SR. CAIXA, APOS O VENCIMENTO COBRAR 2% DE MULTA                                 NAO RECEBER APOS 30 DIAS DO VENCIMENTO.                                                                                                                                                                                                         10081800000000000001008180000000000000       0090339900006270354380081813000012
100000000000000000000009033990000627000000000000000000000000010002020007525008181500000000002            2  01075250081824081800000002876410000000001N100818000000000000000000000000000000000000000000000000000000000000000100007525032866FERNANDO RIBEIRO                        RUA ALDO COLI - 539 - VILA MIRIM - PRAIA            11704760                                                            000014
2SR. CAIXA, APOS O VENCIMENTO COBRAR 2% DE MULTA                                 NAO RECEBER APOS 30 DIAS DO VENCIMENTO.                                                                                                                                                                                                         10081800000000000001008180000000000000       0090339900006270075250081815000015
100000000000000000000009033990000627000000000000000000000000010002020005071408181000000000002            2  01050714081824081800000002523150000000001N100818000000000000000000000000000000000000000000000000000000000000000100005071481855ERIBALDO SANTANA CARVALHO               RUA HONDURAS - 477 - PARQUE DAS AMERICAS            09351070                                                            000017
2SR. CAIXA, APOS O VENCIMENTO COBRAR 2% DE MULTA                                 NAO RECEBER APOS 30 DIAS DO VENCIMENTO.                                                                                                                                                                                                         10081800000000000001008180000000000000       0090339900006270050714081810000018
100000000000000000000009033990000627000000000000000000000000010002020002841708181400000000002            2  01028417081824081800000002360630000000001N100818000000000000000000000000000000000000000000000000000000000000000100002841756416LUCIANA PINHEIRO DE ASSIS NUNES         RUA RIO ACIMA - 81 - RIACHO GRANDE - SAO            09830100                                                            000020
2SR. CAIXA, APOS O VENCIMENTO COBRAR 2% DE MULTA                                 NAO RECEBER APOS 30 DIAS DO VENCIMENTO.                                                                                                                                                                                                         10081800000000000001008180000000000000       0090339900006270028417081814000021
100000000000000000000009033990000627000000000000000000000000010002020084302008181300000000002            2  01843020081824081800000002371960000000001N100818000000000000000000000000000000000000000000000000000000000000000100084302097868FAUSTO TADEU VILOR                      RUA ANTONIO TAVARES - 466 - BAIRRO CAMBU            01542010                                                            000023
2SR. CAIXA, APOS O VENCIMENTO COBRAR 2% DE MULTA                                 NAO RECEBER APOS 30 DIAS DO VENCIMENTO.                                                                                                                                                                                                         10081800000000000001008180000000000000       0090339900006270843020081813000024
100000000000000000000009033990000627000000000000000000000000010002020028804208181300000000002            2  01288042081824081800000002330470000000001N100818000000000000000000000000000000000000000000000000000000000000000100028804202882GILBERTO FABIANO CABRAL DE CAMARGO      RUA CARLOS JOSE BORSTENS - 50 AP.44 - AV            11702750                                                            000026
2SR. CAIXA, APOS O VENCIMENTO COBRAR 2% DE MULTA                                 NAO RECEBER APOS 30 DIAS DO VENCIMENTO.                                                                                                                                                                                                         10081800000000000001008180000000000000       0090339900006270288042081813000027
100000000000000000000009033990000627000000000000000000000000010002020000991708181600000000002            2  01009917081824081800000002274610000000001N100818000000000000000000000000000000000000000000000000000000000000000100000991748808JAILSON BORGES DE ANDRADE               RUA IPIOBUNA - 45 - JARDIM CUMBICA - GUA            07240040                                                            000029
2SR. CAIXA, APOS O VENCIMENTO COBRAR 2% DE MULTA                                 NAO RECEBER APOS 30 DIAS DO VENCIMENTO.                                                                                                                                                                                                         10081800000000000001008180000000000000       0090339900006270009917081816000030
100000000000000000000009033990000627000000000000000000000000010002020092180208181300000000002            2  01921802081824081800000003101180000000001N100818000000000000000000000000000000000000000000000000000000000000000100092180299834LUIS ROBERTO DE SA DUARTE               RUA TEBAS - 296 AP.84 BLOCO 2 CE - JARDI            04634031                                                            000032
2SR. CAIXA, APOS O VENCIMENTO COBRAR 2% DE MULTA                                 NAO RECEBER APOS 30 DIAS DO VENCIMENTO.                                                                                                                                                                                                         10081800000000000001008180000000000000       0090339900006270921802081813000033
100000000000000000000009033990000627000000000000000000000000010002020022151608181200000000002            2  01221516081824081800000002261420000000001N100818000000000000000000000000000000000000000000000000000000000000000100022151666816SAMIR LIMA DE ARAUJO                    AVENIDA GUARAPIRANGA - 2616 AP.42 BLOCO1            04902005                                                            000035
2SR. CAIXA, APOS O VENCIMENTO COBRAR 2% DE MULTA                                 NAO RECEBER APOS 30 DIAS DO VENCIMENTO.                                                                                                                                                                                                         10081800000000000001008180000000000000       0090339900006270221516081812000036
100000000000000000000009033990000627000000000000000000000000010002020022313108181400000000002            2  01223131081826081800000001774500000000001N100818000000000000000000000000000000000000000000000000000000000000000100022313116824ROSA MARIA BRITO DA SILVA               RUA SERVIDAO DE SAO MARCOS - 113 - JARDI            04930300                                                            000038
2SR. CAIXA, APOS O VENCIMENTO COBRAR 2% DE MULTA                                 NAO RECEBER APOS 30 DIAS DO VENCIMENTO.                                                                                                                                                                                                         10081800000000000001008180000000000000       0090339900006270223131081814000039
100000000000000000000009033990000627000000000000000000000000010002020027538008181600000000002            2  01275380081826081800000001780690000000001N100818000000000000000000000000000000000000000000000000000000000000000100027538087249MARA LUCIA MENEZES DA COSTA             RUA LEILA  - 183 - ITAQUERA - SAO PAULO             08240020                                                            000041
2SR. CAIXA, APOS O VENCIMENTO COBRAR 2% DE MULTA                                 NAO RECEBER APOS 30 DIAS DO VENCIMENTO.                                                                                                                                                                                                         10081800000000000001008180000000000000       0090339900006270275380081816000042
100000000000000000000009033990000627000000000000000000000000010002020020105508181400000000002            2  01201055081826081800000001885100000000001N100818000000000000000000000000000000000000000000000000000000000000000100020105503827VALTER DE SOUSA LIBARINO FILHO          RUA DAS PAINEIRAS - 140 - LARANJEIRAS -             07700000                                                            000044
2SR. CAIXA, APOS O VENCIMENTO COBRAR 2% DE MULTA                                 NAO RECEBER APOS 30 DIAS DO VENCIMENTO.                                                                                                                                                                                                         10081800000000000001008180000000000000       0090339900006270201055081814000045
100000000000000000000009033990000627000000000000000000000000010002020031278408181200000000002            2  01312784081824081800000002184600000000001N100818000000000000000000000000000000000000000000000000000000000000000100031278411836JEFFERSON DE PIERI PIRES ZAMUNER        RUA MANOEL ARCE - 277 - PARQUE BANCARIO             03922150                                                            000047
2SR. CAIXA, APOS O VENCIMENTO COBRAR 2% DE MULTA                                 NAO RECEBER APOS 30 DIAS DO VENCIMENTO.                                                                                                                                                                                                         10081800000000000001008180000000000000       0090339900006270312784081812000048
100000000000000000000009033990000627000000000000000000000000010002020019185708181400000000002            2  01191857081826081800000001620460000000001N100818000000000000000000000000000000000000000000000000000000000000000100019185769800AGUINALDO PESSOA DE LIMA                RUA JANUARIO ZINGARO - 252 AP.303 BL.04             05794300                                                            000050
2SR. CAIXA, APOS O VENCIMENTO COBRAR 2% DE MULTA                                 NAO RECEBER APOS 30 DIAS DO VENCIMENTO.                                                                                                                                                                                                         10081800000000000001008180000000000000       0090339900006270191857081814000051
100000000000000000000009033990000627000000000000000000000000010002020033303608181500000000002            2  01333036081826081800000001745380000000001N100818000000000000000000000000000000000000000000000000000000000000000100033303645809JESSICA DA SILVA FREITAS                RUA ARILDO VALADAO - 120 - JARDIM GUAEMB            04814600                                                            000053
2SR. CAIXA, APOS O VENCIMENTO COBRAR 2% DE MULTA                                 NAO RECEBER APOS 30 DIAS DO VENCIMENTO.                                                                                                                                                                                                         10081800000000000001008180000000000000       0090339900006270333036081815000054
100000000000000000000009033990000627000000000000000000000000010002020004824408181400000000002            2  01048244081826081800000001759190000000001N100818000000000000000000000000000000000000000000000000000000000000000100004824443806ROSIMEIRE CLARA FERREIRA REZENDE        RUA JOAQUIM DE OLIVEIRA FREITAS - 912 AP            05133000                                                            000056
2SR. CAIXA, APOS O VENCIMENTO COBRAR 2% DE MULTA                                 NAO RECEBER APOS 30 DIAS DO VENCIMENTO.                                                                                                                                                                                                         10081800000000000001008180000000000000       0090339900006270048244081814000057
100000000000000000000009033990000627000000000000000000000000010002020006422608181000000000002            2  01064226081824081800000002365980000000001N100818000000000000000000000000000000000000000000000000000000000000000100006422607881GERALDO ALVES DA SILVA                  RUA ALFREDO JOREL - 195 AP.5 CONDOMINIO             04195020                                                            000059
2SR. CAIXA, APOS O VENCIMENTO COBRAR 2% DE MULTA                                 NAO RECEBER APOS 30 DIAS DO VENCIMENTO.                                                                                                                                                                                                         10081800000000000001008180000000000000       0090339900006270064226081810000060
100000000000000000000009033990000627000000000000000000000000010002020033877108181200000000002            2  01338771081826081800000001636350000000001N100818000000000000000000000000000000000000000000000000000000000000000100033877129870HELDER FERREIRA VIANA                   RUA TUPI - 254 - VILA TUPI - PRAIA GRAND            11703260                                                            000062
2SR. CAIXA, APOS O VENCIMENTO COBRAR 2% DE MULTA                                 NAO RECEBER APOS 30 DIAS DO VENCIMENTO.                                                                                                                                                                                                         10081800000000000001008180000000000000       0090339900006270338771081812000063
100000000000000000000009033990000627000000000000000000000000010002020028290708181600000000002            2  01282907081826081800000001508090000000001N100818000000000000000000000000000000000000000000000000000000000000000100028290719809VANESSA GIANGARRELLI PEREIRA            RUA BARINEL - 72 - JARDIM COTCHING - SAO            03462130                                                            000065
2SR. CAIXA, APOS O VENCIMENTO COBRAR 2% DE MULTA                                 NAO RECEBER APOS 30 DIAS DO VENCIMENTO.                                                                                                                                                                                                         10081800000000000001008180000000000000       0090339900006270282907081816000066
100000000000000000000009033990000627000000000000000000000000010002020087573008181100000000002            2  01875730081826081800000001646830000000001N100818000000000000000000000000000000000000000000000000000000000000000100087573059604VANDERLEY DE ASSIS                      RUA ROMEU ALBANI - 268 - JARDIM PARQUE R            13803810                                                            000068
2SR. CAIXA, APOS O VENCIMENTO COBRAR 2% DE MULTA                                 NAO RECEBER APOS 30 DIAS DO VENCIMENTO.                                                                                                                                                                                                         10081800000000000001008180000000000000       0090339900006270875730081811000069
100000000000000000000009033990000627000000000000000000000000010002020010825508181900000000002            2  01108255081826081800000001718570000000001N100818000000000000000000000000000000000000000000000000000000000000000100010825513847JOSE APARECIDO PEREIRA                  RUA GENERAL OSORIO - 305 - JARDIM TRINTA            11515130                                                            000071
2SR. CAIXA, APOS O VENCIMENTO COBRAR 2% DE MULTA                                 NAO RECEBER APOS 30 DIAS DO VENCIMENTO.                                                                                                                                                                                                         10081800000000000001008180000000000000       0090339900006270108255081819000072
100000000000000000000009033990000627000000000000000000000000010002020038818508181900000000002            2  01388185081826081800000002685280000000001N100818000000000000000000000000000000000000000000000000000000000000000100038818572814MAURICIUS ALEXANDRE ESTEVAM NABOR       RUA RAUL SERAPIAO BARROSO - 379 - ESPLAN            11340330                                                            000074
2SR. CAIXA, APOS O VENCIMENTO COBRAR 2% DE MULTA                                 NAO RECEBER APOS 30 DIAS DO VENCIMENTO.                                                                                                                                                                                                         10081800000000000001008180000000000000       0090339900006270388185081819000075
100000000000000000000009033990000627000000000000000000000000010002020039115108181000000000002            2  01391151081826081800000002118420000000001N100818000000000000000000000000000000000000000000000000000000000000000100039115139840LAIS CRISTINA RIBEIRO ANDO              RUA PERU - 769 AP.17 - VILA GUILHERMINA             11702250                                                            000077
2SR. CAIXA, APOS O VENCIMENTO COBRAR 2% DE MULTA                                 NAO RECEBER APOS 30 DIAS DO VENCIMENTO.                                                                                                                                                                                                         10081800000000000001008180000000000000       0090339900006270391151081810000078
100000000000000000000009033990000627000000000000000000000000010002020029617508181900000000002            2  01296175081824081800000002322280000000001N100818000000000000000000000000000000000000000000000000000000000000000100029617510553MARILENE SOUZA DE OLIVEIRA              AVENIDA BRASIL - 393 AP.09 - PARQUE DAS             09210280                                                            000080
2SR. CAIXA, APOS O VENCIMENTO COBRAR 2% DE MULTA                                 NAO RECEBER APOS 30 DIAS DO VENCIMENTO.                                                                                                                                                                                                         10081800000000000001008180000000000000       0090339900006270296175081819000081
100000000000000000000009033990000627000000000000000000000000010002020000593208181900000000002            2  01005932081824081800000002546970000000001N100818000000000000000000000000000000000000000000000000000000000000000100000593293860WALTER HELIO BARBOSA FILHO              AVENIDA ANTONIO FREDERICO OZANAN - 9500             13214206                                                            000083
2SR. CAIXA, APOS O VENCIMENTO COBRAR 2% DE MULTA                                 NAO RECEBER APOS 30 DIAS DO VENCIMENTO.                                                                                                                                                                                                         10081800000000000001008180000000000000       0090339900006270005932081819000084
100000000000000000000009033990000627000000000000000000000000010002020007730008181400000000002            2  01077300081824081800000003622050000000001N100818000000000000000000000000000000000000000000000000000000000000000100007730084899ARNALDO LUIZ VONO                       RUA CARLOS JOSE BORSTENS - 50 AP.122 - A            11702750                                                            000086
2SR. CAIXA, APOS O VENCIMENTO COBRAR 2% DE MULTA                                 NAO RECEBER APOS 30 DIAS DO VENCIMENTO.                                                                                                                                                                                                         10081800000000000001008180000000000000       0090339900006270077300081814000087
100000000000000000000009033990000627000000000000000000000000010002020065584108181000000000002            2  01655841081824081800000001337000000000001N100818000000000000000000000000000000000000000000000000000000000000000100065584147834JOAQUIM DA COSTA MACHADO NETO           RUA CARLOS JOSE BORSTENS - 50 AP.42 - AV            11702750                                                            000089
2SR. CAIXA, APOS O VENCIMENTO COBRAR 2% DE MULTA                                 NAO RECEBER APOS 30 DIAS DO VENCIMENTO.                                                                                                                                                                                                         10081800000000000001008180000000000000       0090339900006270655841081810000090
100000000000000000000009033990000627000000000000000000000000010002020001616908181200000000002            2  01016169081824081800000002351400000000001N100818000000000000000000000000000000000000000000000000000000000000000100001616913827CLAUDIO LUIZ PAULELLA                   PRACA NESTOR DOS SANTOS ARRUDA - 26 - VI            13920000                                                            000092
2SR. CAIXA, APOS O VENCIMENTO COBRAR 2% DE MULTA                                 NAO RECEBER APOS 30 DIAS DO VENCIMENTO.                                                                                                                                                                                                         10081800000000000001008180000000000000       0090339900006270016169081812000093
100000000000000000000009033990000627000000000000000000000000010002020006684608181300000000002            2  01066846081826081800000001745140000000001N100818000000000000000000000000000000000000000000000000000000000000000100006684623884LAUDINOR VIEIRA GARCIA                  RUA CANDIDO SALES - 374 - JARDIM PRESIDE            07172000                                                            000095
2SR. CAIXA, APOS O VENCIMENTO COBRAR 2% DE MULTA                                 NAO RECEBER APOS 30 DIAS DO VENCIMENTO.                                                                                                                                                                                                         10081800000000000001008180000000000000       0090339900006270066846081813000096
100000000000000000000009033990000627000000000000000000000000010002020011663508181400000000002            2  01116635081826081800000001757720000000001N100818000000000000000000000000000000000000000000000000000000000000000100011663589844MARIA SAVIO QUARELLO                    AVENIDA MENDONCA DRUMOND - 321 - JARDIM             03524030                                                            000098
2SR. CAIXA, APOS O VENCIMENTO COBRAR 2% DE MULTA                                 NAO RECEBER APOS 30 DIAS DO VENCIMENTO.                                                                                                                                                                                                         10081800000000000001008180000000000000       0090339900006270116635081814000099
100000000000000000000009033990000627000000000000000000000000010002020010083808181600000000002            2  01100838081826081800000001698240000000001N100818000000000000000000000000000000000000000000000000000000000000000100010083824855IONE FERREIRA COUTO DA SILVA            RUA JOSE RAGEL DE MESQUITA - 60 CS.01 -             07799999                                                            000101
2SR. CAIXA, APOS O VENCIMENTO COBRAR 2% DE MULTA                                 NAO RECEBER APOS 30 DIAS DO VENCIMENTO.                                                                                                                                                                                                         10081800000000000001008180000000000000       0090339900006270100838081816000102
100000000000000000000009033990000627000000000000000000000000010002020036881708181900000000002            2  01368817081826081800000001666540000000001N100818000000000000000000000000000000000000000000000000000000000000000100036881778864ANDRE GONZALEZ RABELLO                  RUA PARAIBA - 106 AP.61 - POMPEIA - SANT            11065470                                                            000104
2SR. CAIXA, APOS O VENCIMENTO COBRAR 2% DE MULTA                                 NAO RECEBER APOS 30 DIAS DO VENCIMENTO.                                                                                                                                                                                                         10081800000000000001008180000000000000       0090339900006270368817081819000105
100000000000000000000009033990000627000000000000000000000000010002020018207008181800000000002            2  01182070081824081800000002251980000000001N100818000000000000000000000000000000000000000000000000000000000000000100018207096802ROBERTO VALENTE TAVARES                 RUA SEBASTIAO GOMES - 218 - JARDIM SANTO            13835000                                                            000107
2SR. CAIXA, APOS O VENCIMENTO COBRAR 2% DE MULTA                                 NAO RECEBER APOS 30 DIAS DO VENCIMENTO.                                                                                                                                                                                                         10081800000000000001008180000000000000       0090339900006270182070081818000108
100000000000000000000009033990000627000000000000000000000000010002020005351008181000000000002            2  01053510081826081800000001562550000000001N100818000000000000000000000000000000000000000000000000000000000000000100005351015897VALERIA ALVES MARCOLINO HINNIGER        RUA MONGOLIA - 230 AP.71 BL.4 - PARQUE N            09280220                                                            000110
2SR. CAIXA, APOS O VENCIMENTO COBRAR 2% DE MULTA                                 NAO RECEBER APOS 30 DIAS DO VENCIMENTO.                                                                                                                                                                                                         10081800000000000001008180000000000000       0090339900006270053510081810000111
100000000000000000000009033990000627000000000000000000000000010002020031898708181600000000002            2  01318987081824081800000002437060000000001N100818000000000000000000000000000000000000000000000000000000000000000100031898775800ANITA MARTINS COLOMBO                   RUA CARLOS JOSE BORSTENS - 50 AP.115 - A            11702750                                                            000113
2SR. CAIXA, APOS O VENCIMENTO COBRAR 2% DE MULTA                                 NAO RECEBER APOS 30 DIAS DO VENCIMENTO.                                                                                                                                                                                                         10081800000000000001008180000000000000       0090339900006270318987081816000114
100000000000000000000009033990000627000000000000000000000000010002020037983408181600000000002            2  01379834081826081800000001835480000000001N100818000000000000000000000000000000000000000000000000000000000000000100037983484801JOSE ERIVALDO SOUZA DO NASCIMENTO RAMOS RUA LETICIA - 250 - JARDIM GUARUJA - SAO            05877260                                                            000116
2SR. CAIXA, APOS O VENCIMENTO COBRAR 2% DE MULTA                                 NAO RECEBER APOS 30 DIAS DO VENCIMENTO.                                                                                                                                                                                                         10081800000000000001008180000000000000       0090339900006270379834081816000117
100000000000000000000009033990000627000000000000000000000000010002020056289208182500000000002            2  01562892081826081800000001386620000000001N100818000000000000000000000000000000000000000000000000000000000000000100056289286900PEDRO RIBEIRO                           RUA CONEGO MANOEL VAZ - 48 - SANTANA - S            02019050                                                            000119
2SR. CAIXA, APOS O VENCIMENTO COBRAR 2% DE MULTA                                 NAO RECEBER APOS 30 DIAS DO VENCIMENTO.                                                                                                                                                                                                         10081800000000000001008180000000000000       0090339900006270562892081825000120
100000000000000000000009033990000627000000000000000000000000010002020028358308181400000000002            2  01283583081824081800000001343330000000001N100818000000000000000000000000000000000000000000000000000000000000000100028358348851MAGDA MASCARENHAS DE JESUS KOST         RUA CAMPOS MELLO - 311 - ENCRUZILHADA -             11015013                                                            000122
2SR. CAIXA, APOS O VENCIMENTO COBRAR 2% DE MULTA                                 NAO RECEBER APOS 30 DIAS DO VENCIMENTO.                                                                                                                                                                                                         10081800000000000001008180000000000000       0090339900006270283583081814000123
9                                                                                                                                                                                                                                                                                                                                                                                                         000124