01REMESSA01COBRANCA       00000000000005331186HB SANTOS CONSTRUTORA E INCORP237BRADESCO       010722        MX0000051                                                                                                                                                                                                                                                                                     000001
100000000000000000000009033990000995400000000000000000000000010002020026858607221300000000002            2  01268586072208072200000002807960000000001N010722000000000000000000000000000000000000000000000000000000000000000100026858625879GLAUCE FERREIRA DE OLIVEIRA FALSI       RUA LOURENCO ANTONIO BRAGANCA - 116 - JA            04403160                                                            000002
2SR. CAIXA, APOS O VENCIMENTO COBRAR 2% DE MULTA                                 NAO RECEBER APOS 30 DIAS DO VENCIMENTO.                                                                                                                                                                                                         01072200000000000000107220000000000000       0090339900009954268586072213000003
100000000000000000000009033990000995400000000000000000000000010002020016960807221400000000002            2  01169608072208072200000002681140000000001N010722000000000000000000000000000000000000000000000000000000000000000100016960804876LUIZ ALVES DE SOUZA JUNIOR              RUA URUGUAI - 89 AP.61 - JARDIM GUILHERM            11702300                                                            000005
2SR. CAIXA, APOS O VENCIMENTO COBRAR 2% DE MULTA                                 NAO RECEBER APOS 30 DIAS DO VENCIMENTO.                                                                                                                                                                                                         01072200000000000000107220000000000000       0090339900009954169608072214000006
100000000000000000000009033990000995400000000000000000000000010002020029425007221600000000002            2  01294250072208072200000002670370000000001N010722000000000000000000000000000000000000000000000000000000000000000100029425027897FABIA DOS SANTOS DE ANDRADE             AVENIDA ALCIDES CANDIDO DOS SANTOS - 248            11705480                                                            000008
2SR. CAIXA, APOS O VENCIMENTO COBRAR 2% DE MULTA                                 NAO RECEBER APOS 30 DIAS DO VENCIMENTO.                                                                                                                                                                                                         01072200000000000000107220000000000000       0090339900009954294250072216000009
100000000000000000000009033990000995400000000000000000000000010002020078382707221100000000002            2  01783827072208072200000002698540000000001N010722000000000000000000000000000000000000000000000000000000000000000100078382700497JARMELINA BARBOSA DA SILVA              RUA OSCAR CINTRA GORDINHO - 211 AP.51 -             01512010                                                            000011
2SR. CAIXA, APOS O VENCIMENTO COBRAR 2% DE MULTA                                 NAO RECEBER APOS 30 DIAS DO VENCIMENTO.                                                                                                                                                                                                         01072200000000000000107220000000000000       0090339900009954783827072211000012
100000000000000000000009033990000995400000000000000000000000010002020007535307221000000000002            2  01075353072208072200000002646260000000001N010722000000000000000000000000000000000000000000000000000000000000000100007535375839AINAILDE PEREIRA DE CASTRO OLIVETTO     TRAVESSA DORALINA ELIETE ADAO DA SILVA -            08021026                                                            000014
2SR. CAIXA, APOS O VENCIMENTO COBRAR 2% DE MULTA                                 NAO RECEBER APOS 30 DIAS DO VENCIMENTO.                                                                                                                                                                                                         01072200000000000000107220000000000000       0090339900009954075353072210000015
100000000000000000000009033990000995400000000000000000000000010002020017229707221600000000002            2  01172297072208072200000002803140000000001N010722000000000000000000000000000000000000000000000000000000000000000100017229751802BERENICE VIEIRA KERSTING                RUA ATIBAIA - 17 AP.417 - BAIRRO IMPERAD            11707380                                                            000017
2SR. CAIXA, APOS O VENCIMENTO COBRAR 2% DE MULTA                                 NAO RECEBER APOS 30 DIAS DO VENCIMENTO.                                                                                                                                                                                                         01072200000000000000107220000000000000       0090339900009954172297072216000018
100000000000000000000009033990000995400000000000000000000000010002020028974207221800000000002            2  01289742072208072200000002618080000000001N010722000000000000000000000000000000000000000000000000000000000000000100028974233827MARISTELA FAVANI DE OLIVEIRA            RUA GIUSEPPE CARNEVALLI - 96 - BAIRRO BO            09572100                                                            000020
2SR. CAIXA, APOS O VENCIMENTO COBRAR 2% DE MULTA                                 NAO RECEBER APOS 30 DIAS DO VENCIMENTO.                                                                                                                                                                                                         01072200000000000000107220000000000000       0090339900009954289742072218000021
100000000000000000000009033990000995400000000000000000000000010002020092184807221500000000002            2  01921848072208072200000002583220000000001N010722000000000000000000000000000000000000000000000000000000000000000100092184804800CARMEM DO SOCORRO GUILHERME             ESTRADA SAO FRANCISCO - 1.850 AP.182A -             06765000                                                            000023
2SR. CAIXA, APOS O VENCIMENTO COBRAR 2% DE MULTA                                 NAO RECEBER APOS 30 DIAS DO VENCIMENTO.                                                                                                                                                                                                         01072200000000000000107220000000000000       0090339900009954921848072215000024
100000000000000000000009033990000995400000000000000000000000010002020009169707221500000000002            2  01091697072208072200000002071760000000001N010722000000000000000000000000000000000000000000000000000000000000000100009169701830TADEU CONSTANTINO LOPES                 RUA JOSE ANTONIO COELHO - 349 CASA 01 -             04011061                                                            000026
2SR. CAIXA, APOS O VENCIMENTO COBRAR 2% DE MULTA                                 NAO RECEBER APOS 30 DIAS DO VENCIMENTO.                                                                                                                                                                                                         01072200000000000000107220000000000000       0090339900009954091697072215000027
100000000000000000000009033990000995400000000000000000000000010002020042480107221300000000002            2  01424801072208072200000002635500000000001N010722000000000000000000000000000000000000000000000000000000000000000100042480155870JAMITRE SOIOMARA ALVES DO NASCIMENTO DAVRUA URUGUAI - 89 AP.75 - JARDIM GUILHERM            11702300                                                            000029
2SR. CAIXA, APOS O VENCIMENTO COBRAR 2% DE MULTA                                 NAO RECEBER APOS 30 DIAS DO VENCIMENTO.                                                                                                                                                                                                         01072200000000000000107220000000000000       0090339900009954424801072213000030
100000000000000000000009033990000995400000000000000000000000010002020008966507221900000000002            2  01089665072208072200000002490110000000001N010722000000000000000000000000000000000000000000000000000000000000000100008966511856MONICA SILVA REIS                       RUA ORATORIO - 264 E FUNDOS - BANGU - SA            09280550                                                            000032
2SR. CAIXA, APOS O VENCIMENTO COBRAR 2% DE MULTA                                 NAO RECEBER APOS 30 DIAS DO VENCIMENTO.                                                                                                                                                                                                         01072200000000000000107220000000000000       0090339900009954089665072219000033
100000000000000000000009033990000995400000000000000000000000010002020001356907221P00000000002            2  01013569072208072200000002674730000000001N010722000000000000000000000000000000000000000000000000000000000000000100001356993800DALVA MARIA DOS SANTOS                  RUA URUGUAI - 89 AP.74 - AVIACAO - PRAIA            11702300                                                            000035
2SR. CAIXA, APOS O VENCIMENTO COBRAR 2% DE MULTA                                 NAO RECEBER APOS 30 DIAS DO VENCIMENTO.                                                                                                                                                                                                         01072200000000000000107220000000000000       009033990000995401356907221P000036
100000000000000000000009033990000995400000000000000000000000010002020024615507221200000000002            2  01246155072208072200000003050420000000001N010722000000000000000000000000000000000000000000000000000000000000000100024615557884GILBERTO JOSE GONSALES                  RUA URUGUAI - 89 AP.115 - JARDIM GUILHER            11702300                                                            000038
2SR. CAIXA, APOS O VENCIMENTO COBRAR 2% DE MULTA                                 NAO RECEBER APOS 30 DIAS DO VENCIMENTO.                                                                                                                                                                                                         01072200000000000000107220000000000000       0090339900009954246155072212000039
100000000000000000000009033990000995400000000000000000000000010002020008878807221700000000002            2  01088788072208072200000002933610000000001N010722000000000000000000000000000000000000000000000000000000000000000100008878832812LUIZ ANTONIO DE OLIVEIRA                RUA TORRINHA - 220 AP.132 - BAIRRO TATUA            03332010                                                            000041
2SR. CAIXA, APOS O VENCIMENTO COBRAR 2% DE MULTA                                 NAO RECEBER APOS 30 DIAS DO VENCIMENTO.                                                                                                                                                                                                         01072200000000000000107220000000000000       0090339900009954088788072217000042
100000000000000000000009033990000995400000000000000000000000010002020031473707221200000000002            2  01314737072208072200000002156170000000001N010722000000000000000000000000000000000000000000000000000000000000000100031473799813MURIEL DA SILVA DE MOURA SOUZA          RUA CAPITAO PAULINO FREIRE - 300 AP.014             08717100                                                            000044
2SR. CAIXA, APOS O VENCIMENTO COBRAR 2% DE MULTA                                 NAO RECEBER APOS 30 DIAS DO VENCIMENTO.                                                                                                                                                                                                         01072200000000000000107220000000000000       0090339900009954314737072212000045
100000000000000000000009033990000995400000000000000000000000010002020036949507221100000000002            2  01369495072208072200000002854460000000001N010722000000000000000000000000000000000000000000000000000000000000000100036949505833FELIPE APARECIDO DOS SANTOS             RUA DAS MIMOSAS - 67 CASA 09 - VILA LUCI            03144010                                                            000047
2SR. CAIXA, APOS O VENCIMENTO COBRAR 2% DE MULTA                                 NAO RECEBER APOS 30 DIAS DO VENCIMENTO.                                                                                                                                                                                                         01072200000000000000107220000000000000       0090339900009954369495072211000048
100000000000000000000009033990000995400000000000000000000000010002020008539307221900000000002            2  01085393072208072200000002916410000000001N010722000000000000000000000000000000000000000000000000000000000000000100008539365871EDMILSON RAIMUNDO DOS SANTOS            RUA CALIDICE - 247 - PARQUE CRUZEIRO - S            08070010                                                            000050
2SR. CAIXA, APOS O VENCIMENTO COBRAR 2% DE MULTA                                 NAO RECEBER APOS 30 DIAS DO VENCIMENTO.                                                                                                                                                                                                         01072200000000000000107220000000000000       0090339900009954085393072219000051
100000000000000000000009033990000995400000000000000000000000010002020031040907221800000000002            2  01310409072208072200000003004660000000001N010722000000000000000000000000000000000000000000000000000000000000000100031040952801ANDRESSA REGINA FAVERANI LUPPI          RUA AMALIA BELLOTTI PASTORELLO - 169 - T            11724030                                                            000053
2SR. CAIXA, APOS O VENCIMENTO COBRAR 2% DE MULTA                                 NAO RECEBER APOS 30 DIAS DO VENCIMENTO.                                                                                                                                                                                                         01072200000000000000107220000000000000       0090339900009954310409072218000054
100000000000000000000009033990000995400000000000000000000000010002020024558907221400000000002            2  01245589072208072200000005023150000000001N010722000000000000000000000000000000000000000000000000000000000000000100024558912838EDILENE GORGATTI                        RUA ITARARE - 76 AP.142 - JARDIM GUILHER            11701820                                                            000056
2SR. CAIXA, APOS O VENCIMENTO COBRAR 2% DE MULTA                                 NAO RECEBER APOS 30 DIAS DO VENCIMENTO.                                                                                                                                                                                                         01072200000000000000107220000000000000       0090339900009954245589072214000057
100000000000000000000009033990000995400000000000000000000000010002020004611207221P00000000002            2  01046112072208072200000001849710000000001N010722000000000000000000000000000000000000000000000000000000000000000100004611218830TANIA MARIA DA SILVA NUNES PEREIRA LUIZ RODOVIA RAPOSO TAVARES, 7389 KM 17,5 - A            05576200                                                            000059
2SR. CAIXA, APOS O VENCIMENTO COBRAR 2% DE MULTA                                 NAO RECEBER APOS 30 DIAS DO VENCIMENTO.                                                                                                                                                                                                         01072200000000000000107220000000000000       009033990000995404611207221P000060
100000000000000000000009033990000995400000000000000000000000010002020010548807221700000000002            2  01105488072208072200000003286660000000001N010722000000000000000000000000000000000000000000000000000000000000000100010548844801RICARDO DE JESUS CALDAS                 RUA ANTONIO AMBUBA - 50 CASA 60 - BAIRRO            05782370                                                            000062
2SR. CAIXA, APOS O VENCIMENTO COBRAR 2% DE MULTA                                 NAO RECEBER APOS 30 DIAS DO VENCIMENTO.                                                                                                                                                                                                         01072200000000000000107220000000000000       0090339900009954105488072217000063
100000000000000000000009033990000995400000000000000000000000010002020039623807221600000000002            2  01396238072208072200000002888600000000001N010722000000000000000000000000000000000000000000000000000000000000000100039623826826LEONARDO GUEDES PINTO                   RUA URUGUAI - 89 AP.24 - AVIACAO - PRAIA            11702300                                                            000065
2SR. CAIXA, APOS O VENCIMENTO COBRAR 2% DE MULTA                                 NAO RECEBER APOS 30 DIAS DO VENCIMENTO.                                                                                                                                                                                                         01072200000000000000107220000000000000       0090339900009954396238072216000066
100000000000000000000009033990000995400000000000000000000000010002020039558607221500000000002            2  01395586072208072200000002651930000000001N010722000000000000000000000000000000000000000000000000000000000000000100039558638838TAMIRES ROCHA FRANCISCO                 RUA DUARTE DE CARVALHO - 185 AP.102 - BA            03084030                                                            000068
2SR. CAIXA, APOS O VENCIMENTO COBRAR 2% DE MULTA                                 NAO RECEBER APOS 30 DIAS DO VENCIMENTO.                                                                                                                                                                                                         01072200000000000000107220000000000000       0090339900009954395586072215000069
100000000000000000000009033990000995400000000000000000000000010002020032038707221400000000002            2  01320387072208072200000002157530000000001N010722000000000000000000000000000000000000000000000000000000000000000100032038775893GUSTAVO PEREIRA DA CRUZ                 RUA SAO FIDELIS - 203 - JARDIM BRASIL -             16074050                                                            000071
2SR. CAIXA, APOS O VENCIMENTO COBRAR 2% DE MULTA                                 NAO RECEBER APOS 30 DIAS DO VENCIMENTO.                                                                                                                                                                                                         01072200000000000000107220000000000000       0090339900009954320387072214000072
100000000000000000000009033990000995400000000000000000000000010002020008993107221100000000002            2  01089931072208072200000010182350000000001N010722000000000000000000000000000000000000000000000000000000000000000100008993178801PATRICIA BITTENCOURT FRACARO            RUA MARCIO MAZZEI - 337 - VILA NOVA MAZZ            02316050                                                            000074
2SR. CAIXA, APOS O VENCIMENTO COBRAR 2% DE MULTA                                 NAO RECEBER APOS 30 DIAS DO VENCIMENTO.                                                                                                                                                                                                         01072200000000000000107220000000000000       0090339900009954089931072211000075
9                                                                                                                                                                                                                                                                                                                                                                                                         000076