01REMESSA01COBRANCA       00000000000008017025HB SANTOS CONSTRUTORA E INCORP237BRADESCO       010822        MX0000158                                                                                                                                                                                                                                                                                     000001
100000000000000000000009033990000627000000000000000000000000010002020016479008221P00000000002            2  01164790082209082200000004931030000000001N010822000000000000000000000000000000000000000000000000000000000000000100016479002806LOURDES PEREIRA DE QUEIROZ SECANECHIA   RUA PAULINO CURSI - 437 - CIDADE SAO MAT            03960060                                                            000002
2SR. CAIXA, APOS O VENCIMENTO COBRAR 2% DE MULTA                                 NAO RECEBER APOS 30 DIAS DO VENCIMENTO.                                                                                                                                                                                                         01082200000000000000108220000000000000       009033990000627016479008221P000003
100000000000000000000009033990000627000000000000000000000000010002020017229708222P00000000002            2  01172297082209082200000003752460000000001N010822000000000000000000000000000000000000000000000000000000000000000100017229751802BERENICE VIEIRA KERSTING                RUA ATIBAIA - 17 AP.417 - BAIRRO IMPERAD            11707380                                                            000005
2SR. CAIXA, APOS O VENCIMENTO COBRAR 2% DE MULTA                                 NAO RECEBER APOS 30 DIAS DO VENCIMENTO.                                                                                                                                                                                                         01082200000000000000108220000000000000       009033990000627017229708222P000006
100000000000000000000009033990000627000000000000000000000000010002020009361408221700000000002            2  01093614082209082200000003579940000000001N010822000000000000000000000000000000000000000000000000000000000000000100009361471805JOSE BARBOSA DA SILVA                   RUA ALFREDO INACIO TRINDADE  - 60 AP.44             02344100                                                            000008
2SR. CAIXA, APOS O VENCIMENTO COBRAR 2% DE MULTA                                 NAO RECEBER APOS 30 DIAS DO VENCIMENTO.                                                                                                                                                                                                         01082200000000000000108220000000000000       0090339900006270093614082217000009
100000000000000000000009033990000627000000000000000000000000010002020012756908221000000000002            2  01127569082209082200000003090270000000001N010822000000000000000000000000000000000000000000000000000000000000000100012756959812ITAMAR JUVENAL DIAS DA SILVA            RUA ELISEU REINALDO MORAES VIEIRA - 90 A            02858000                                                            000011
2SR. CAIXA, APOS O VENCIMENTO COBRAR 2% DE MULTA                                 NAO RECEBER APOS 30 DIAS DO VENCIMENTO.                                                                                                                                                                                                         01082200000000000000108220000000000000       0090339900006270127569082210000012
100000000000000000000009033990000627000000000000000000000000010002020029433608221400000000002            2  01294336082211082200000002562880000000001N010822000000000000000000000000000000000000000000000000000000000000000100029433631897MARIO MUNIZ                             RUA JOSE CALIXTO DO CARMO - 286 AP.53 -             11702690                                                            000014
2SR. CAIXA, APOS O VENCIMENTO COBRAR 2% DE MULTA                                 NAO RECEBER APOS 30 DIAS DO VENCIMENTO.                                                                                                                                                                                                         01082200000000000000108220000000000000       0090339900006270294336082214000015
100000000000000000000009033990000627000000000000000000000000010002020005029808221700000000002            2  01050298082209082200000003150710000000001N010822000000000000000000000000000000000000000000000000000000000000000100005029828885LAURINETE DA CONCEICAO DE NORONHA       RUA MARIA LUCIA DE TOLEDO LEITE MORAES -            04434040                                                            000017
2SR. CAIXA, APOS O VENCIMENTO COBRAR 2% DE MULTA                                 NAO RECEBER APOS 30 DIAS DO VENCIMENTO.                                                                                                                                                                                                         01082200000000000000108220000000000000       0090339900006270050298082217000018
100000000000000000000009033990000627000000000000000000000000010002020013388908221900000000002            2  01133889082211082200000002498400000000001N010822000000000000000000000000000000000000000000000000000000000000000100013388936889NEUTON DE SOUZA RAMOS                   RUA JOSE CALIXTO DO CARMO - 286 AP.61 -             11702690                                                            000020
2SR. CAIXA, APOS O VENCIMENTO COBRAR 2% DE MULTA                                 NAO RECEBER APOS 30 DIAS DO VENCIMENTO.                                                                                                                                                                                                         01082200000000000000108220000000000000       0090339900006270133889082219000021
100000000000000000000009033990000627000000000000000000000000010002020012774908221900000000002            2  01127749082211082200000002545320000000001N010822000000000000000000000000000000000000000000000000000000000000000100012774906865JOSE MILTON SANTIAGO                    RUA BATATAIS - 47 - CIDADE ESTELA - POA             08563140                                                            000023
2SR. CAIXA, APOS O VENCIMENTO COBRAR 2% DE MULTA                                 NAO RECEBER APOS 30 DIAS DO VENCIMENTO.                                                                                                                                                                                                         01082200000000000000108220000000000000       0090339900006270127749082219000024
100000000000000000000009033990000627000000000000000000000000010002020005613808221900000000002            2  01056138082211082200000002340980000000001N010822000000000000000000000000000000000000000000000000000000000000000100005613843805NILZA MARIA DE OLIVEIRA                 RUA JOSE GONCALVES DE FREITAS - 66 C2 -             08210550                                                            000026
2SR. CAIXA, APOS O VENCIMENTO COBRAR 2% DE MULTA                                 NAO RECEBER APOS 30 DIAS DO VENCIMENTO.                                                                                                                                                                                                         01082200000000000000108220000000000000       0090339900006270056138082219000027
100000000000000000000009033990000627000000000000000000000000010002020007574908221900000000002            2  01075749082211082200000002402960000000001N010822000000000000000000000000000000000000000000000000000000000000000100007574936889JORGE LUCIANO PEREIRA BORRIELLO         RUA JOSE CALIXTO DO CARMO - 286 AP.54 -             11702690                                                            000029
2SR. CAIXA, APOS O VENCIMENTO COBRAR 2% DE MULTA                                 NAO RECEBER APOS 30 DIAS DO VENCIMENTO.                                                                                                                                                                                                         01082200000000000000108220000000000000       0090339900006270075749082219000030
100000000000000000000009033990000627000000000000000000000000010002020008214908221100000000002            2  01082149082211082200000002439410000000001N010822000000000000000000000000000000000000000000000000000000000000000100008214973830JAMIL CHALA                             RUA JOSE CALIXTO DO CARMO - 286 AP.22 -             11702690                                                            000032
2SR. CAIXA, APOS O VENCIMENTO COBRAR 2% DE MULTA                                 NAO RECEBER APOS 30 DIAS DO VENCIMENTO.                                                                                                                                                                                                         01082200000000000000108220000000000000       0090339900006270082149082211000033
100000000000000000000009033990000627000000000000000000000000010002020032495008221900000000002            2  01324950082211082200000002733680000000001N010822000000000000000000000000000000000000000000000000000000000000000100032495004881PAULO EDUARDO DOS SANTOS                RUA REPUBLICA DO IRAQUE - 1119 - CAMPO B            04611002                                                            000035
2SR. CAIXA, APOS O VENCIMENTO COBRAR 2% DE MULTA                                 NAO RECEBER APOS 30 DIAS DO VENCIMENTO.                                                                                                                                                                                                         01082200000000000000108220000000000000       0090339900006270324950082219000036
100000000000000000000009033990000627000000000000000000000000010002020016498008221600000000002            2  01164980082211082200000002397500000000001N010822000000000000000000000000000000000000000000000000000000000000000100016498053810GILMA CEZARIO GARCIA CORRITORI          RUA LAURENTINO XAVIER DOS SANTOS - 336 -            08240740                                                            000038
2SR. CAIXA, APOS O VENCIMENTO COBRAR 2% DE MULTA                                 NAO RECEBER APOS 30 DIAS DO VENCIMENTO.                                                                                                                                                                                                         01082200000000000000108220000000000000       0090339900006270164980082216000039
100000000000000000000009033990000627000000000000000000000000010002020029339008221500000000002            2  01293390082211082200000002563730000000001N010822000000000000000000000000000000000000000000000000000000000000000100029339051831RONALD DIDOFF                           RUA CORONEL FERREIRA BRAGA - 188 - VILA             03522010                                                            000041
2SR. CAIXA, APOS O VENCIMENTO COBRAR 2% DE MULTA                                 NAO RECEBER APOS 30 DIAS DO VENCIMENTO.                                                                                                                                                                                                         01082200000000000000108220000000000000       0090339900006270293390082215000042
100000000000000000000009033990000627000000000000000000000000010002020017357808221700000000002            2  01173578082211082200000002715220000000001N010822000000000000000000000000000000000000000000000000000000000000000100017357859894MARCIO GUIMARAES                        RUA GENERAL CAMARA - 188 SALA 11 - CENTR            11010120                                                            000044
2SR. CAIXA, APOS O VENCIMENTO COBRAR 2% DE MULTA                                 NAO RECEBER APOS 30 DIAS DO VENCIMENTO.                                                                                                                                                                                                         01082200000000000000108220000000000000       0090339900006270173578082217000045
100000000000000000000009033990000627000000000000000000000000010002020010563008221700000000002            2  01105630082211082200000002784610000000001N010822000000000000000000000000000000000000000000000000000000000000000100010563033878VERA LUCIA RIBEIRO LONGANEZI            RUA DOS CAMARES - 150 AP.24 BL.02 - CARA            02068030                                                            000047
2SR. CAIXA, APOS O VENCIMENTO COBRAR 2% DE MULTA                                 NAO RECEBER APOS 30 DIAS DO VENCIMENTO.                                                                                                                                                                                                         01082200000000000000108220000000000000       0090339900006270105630082217000048
100000000000000000000009033990000627000000000000000000000000010002020005529608221100000000002            2  01055296082211082200000002526950000000001N010822000000000000000000000000000000000000000000000000000000000000000100005529616801JOAQUIM JORGE DA COSTA                  RUA JOSE CALIXTO DO CARMO - 286 AP.106 -            11702690                                                            000050
2SR. CAIXA, APOS O VENCIMENTO COBRAR 2% DE MULTA                                 NAO RECEBER APOS 30 DIAS DO VENCIMENTO.                                                                                                                                                                                                         01082200000000000000108220000000000000       0090339900006270055296082211000051
100000000000000000000009033990000627000000000000000000000000010002020015550708221800000000002            2  01155507082209082200000002388230000000001N010822000000000000000000000000000000000000000000000000000000000000000100015550706806MARY MIWA                               RUA CARLOS JOSE BORSTENS - 50 AP.105 - A            11702750                                                            000053
2SR. CAIXA, APOS O VENCIMENTO COBRAR 2% DE MULTA                                 NAO RECEBER APOS 30 DIAS DO VENCIMENTO.                                                                                                                                                                                                         01082200000000000000108220000000000000       0090339900006270155507082218000054
100000000000000000000009033990000627000000000000000000000000010002020015464608221800000000002            2  01154646082211082200000002656420000000001N010822000000000000000000000000000000000000000000000000000000000000000100015464647864SONIA TERESA VOLPATO                    RUA JOSE CALIXTO DO CARMO - 286 AP.73 -             11702690                                                            000056
2SR. CAIXA, APOS O VENCIMENTO COBRAR 2% DE MULTA                                 NAO RECEBER APOS 30 DIAS DO VENCIMENTO.                                                                                                                                                                                                         01082200000000000000108220000000000000       0090339900006270154646082218000057
100000000000000000000009033990000627000000000000000000000000010002020008657808221700000000002            2  01086578082211082200000002629740000000001N010822000000000000000000000000000000000000000000000000000000000000000100008657886855ARLINDO DA CRUZ                         AVENIDA ARICANDUVA - 8.256 AP.54 BL.10 -            03951220                                                            000059
2SR. CAIXA, APOS O VENCIMENTO COBRAR 2% DE MULTA                                 NAO RECEBER APOS 30 DIAS DO VENCIMENTO.                                                                                                                                                                                                         01082200000000000000108220000000000000       0090339900006270086578082217000060
100000000000000000000009033990000627000000000000000000000000010002020059735108221500000000002            2  01597351082209082200000001486330000000001N010822000000000000000000000000000000000000000000000000000000000000000100059735180863HELIO JOSE MARQUES                      RUA MARTIM AFONSO DE SOUZA - 1007 AP.102            11702790                                                            000062
2SR. CAIXA, APOS O VENCIMENTO COBRAR 2% DE MULTA                                 NAO RECEBER APOS 30 DIAS DO VENCIMENTO.                                                                                                                                                                                                         01082200000000000000108220000000000000       0090339900006270597351082215000063
100000000000000000000009033990000627000000000000000000000000010002020026347808221900000000002            2  01263478082211082200000002811130000000001N010822000000000000000000000000000000000000000000000000000000000000000100026347872862VALDECI SILVA MEIRELES                  RUA JOSE BATISTA DA SILVA - 292 - JARDIM            06851470                                                            000065
2SR. CAIXA, APOS O VENCIMENTO COBRAR 2% DE MULTA                                 NAO RECEBER APOS 30 DIAS DO VENCIMENTO.                                                                                                                                                                                                         01082200000000000000108220000000000000       0090339900006270263478082219000066
100000000000000000000009033990000627000000000000000000000000010002020013135208221P00000000002            2  01131352082211082200000002582710000000001N010822000000000000000000000000000000000000000000000000000000000000000100013135261859EDUARDO ZANOLA                          RUA ROLANDO PIETRO BONINI - 46 - JARDIM             09781040                                                            000068
2SR. CAIXA, APOS O VENCIMENTO COBRAR 2% DE MULTA                                 NAO RECEBER APOS 30 DIAS DO VENCIMENTO.                                                                                                                                                                                                         01082200000000000000108220000000000000       009033990000627013135208221P000069
100000000000000000000009033990000627000000000000000000000000010002020009797608221000000000002            2  01097976082211082200000002515290000000001N010822000000000000000000000000000000000000000000000000000000000000000100009797626857RICARDO SOBRAL DE OLIVEIRA              RUA 23 DE MAIO - 139 AP.32 - VILA MIRIM             11704690                                                            000071
2SR. CAIXA, APOS O VENCIMENTO COBRAR 2% DE MULTA                                 NAO RECEBER APOS 30 DIAS DO VENCIMENTO.                                                                                                                                                                                                         01082200000000000000108220000000000000       0090339900006270097976082210000072
100000000000000000000009033990000627000000000000000000000000010002020004767608221100000000002            2  01047676082209082200000004299380000000001N010822000000000000000000000000000000000000000000000000000000000000000100004767679893ORLANDO GRANDE FILHO                    RUA ORLANDO MIGLIARI - 101 - JARDIM OURO            19906140                                                            000074
2SR. CAIXA, APOS O VENCIMENTO COBRAR 2% DE MULTA                                 NAO RECEBER APOS 30 DIAS DO VENCIMENTO.                                                                                                                                                                                                         01082200000000000000108220000000000000       0090339900006270047676082211000075
100000000000000000000009033990000627000000000000000000000000010002020006512508221900000000002            2  01065125082211082200000002262610000000001N010822000000000000000000000000000000000000000000000000000000000000000100006512547870MARIA DO CARMO FAGUNDES DOS REIS        RUA CARLOS MALCHER - 98 - PARQUE EDU CHA            02232020                                                            000077
2SR. CAIXA, APOS O VENCIMENTO COBRAR 2% DE MULTA                                 NAO RECEBER APOS 30 DIAS DO VENCIMENTO.                                                                                                                                                                                                         01082200000000000000108220000000000000       0090339900006270065125082219000078
100000000000000000000009033990000627000000000000000000000000010002020022728408221100000000002            2  01227284082211082200000002721720000000001N010822000000000000000000000000000000000000000000000000000000000000000100022728497842WILLIAN DE SOUZA MELLO                  RUA JOSE CALIXTO DO CARMO - 286 AP.111 -            11702690                                                            000080
2SR. CAIXA, APOS O VENCIMENTO COBRAR 2% DE MULTA                                 NAO RECEBER APOS 30 DIAS DO VENCIMENTO.                                                                                                                                                                                                         01082200000000000000108220000000000000       0090339900006270227284082211000081
100000000000000000000009033990000627000000000000000000000000010002020016909708221600000000002            2  01169097082211082200000002405140000000001N010822000000000000000000000000000000000000000000000000000000000000000100016909746805EDIVALDO SANTANA DOS SANTOS             ESTRADA JOAO GASPAR DELGADO - 80 AP.213             08536100                                                            000083
2SR. CAIXA, APOS O VENCIMENTO COBRAR 2% DE MULTA                                 NAO RECEBER APOS 30 DIAS DO VENCIMENTO.                                                                                                                                                                                                         01082200000000000000108220000000000000       0090339900006270169097082216000084
100000000000000000000009033990000627000000000000000000000000010002020022036008221300000000002            2  01220360082209082200000003733430000000001N010822000000000000000000000000000000000000000000000000000000000000000100022036003818DERLIS TERAN QUIROGA ROGATO             RUA JOAO RIBEIRO - 320 AP.131SB - CAMPES            09070250                                                            000086
2SR. CAIXA, APOS O VENCIMENTO COBRAR 2% DE MULTA                                 NAO RECEBER APOS 30 DIAS DO VENCIMENTO.                                                                                                                                                                                                         01082200000000000000108220000000000000       0090339900006270220360082213000087
100000000000000000000009033990000627000000000000000000000000010002020017229708223800000000002            2  01172297082209082200000003603100000000001N010822000000000000000000000000000000000000000000000000000000000000000100017229751802BERENICE VIEIRA KERSTING                RUA ATIBAIA - 17 AP.417 - BAIRRO IMPERAD            11707380                                                            000089
2SR. CAIXA, APOS O VENCIMENTO COBRAR 2% DE MULTA                                 NAO RECEBER APOS 30 DIAS DO VENCIMENTO.                                                                                                                                                                                                         01082200000000000000108220000000000000       0090339900006270172297082238000090
100000000000000000000009033990000627000000000000000000000000010002020012475608221700000000002            2  01124756082211082200000002607060000000001N010822000000000000000000000000000000000000000000000000000000000000000100012475663820CELIDALVA GOES DE CARVALHO              RUA JOSE CALIXTO DO CARMO - 286 AP.91 -             11702690                                                            000092
2SR. CAIXA, APOS O VENCIMENTO COBRAR 2% DE MULTA                                 NAO RECEBER APOS 30 DIAS DO VENCIMENTO.                                                                                                                                                                                                         01082200000000000000108220000000000000       0090339900006270124756082217000093
100000000000000000000009033990000627000000000000000000000000010002020033451608221400000000002            2  01334516082211082200000002177060000000001N010822000000000000000000000000000000000000000000000000000000000000000100033451620839ARAO ELISIARIO  NUNES                   RUA JOSE CALIXTO DO CARMO - 286 AP.64 -             11702690                                                            000095
2SR. CAIXA, APOS O VENCIMENTO COBRAR 2% DE MULTA                                 NAO RECEBER APOS 30 DIAS DO VENCIMENTO.                                                                                                                                                                                                         01082200000000000000108220000000000000       0090339900006270334516082214000096
100000000000000000000009033990000627000000000000000000000000010002020045839208221100000000002            2  01458392082211082200000001689780000000001N010822000000000000000000000000000000000000000000000000000000000000000100045839263834LEONARDO ANTONIO CONCELLIERI            RUA JOSE CALIXTO DO CARMO - 286 AP.51 -             11702690                                                            000098
2SR. CAIXA, APOS O VENCIMENTO COBRAR 2% DE MULTA                                 NAO RECEBER APOS 30 DIAS DO VENCIMENTO.                                                                                                                                                                                                         01082200000000000000108220000000000000       0090339900006270458392082211000099
100000000000000000000009033990000627000000000000000000000000010002020011369108221200000000002            2  01113691082211082200000002378170000000001N010822000000000000000000000000000000000000000000000000000000000000000100011369165803ELIANA CORREA DE OLIVEIRA               RUA MAESTRO ZEFERINO SANTANA - 65 - VILA            18040010                                                            000101
2SR. CAIXA, APOS O VENCIMENTO COBRAR 2% DE MULTA                                 NAO RECEBER APOS 30 DIAS DO VENCIMENTO.                                                                                                                                                                                                         01082200000000000000108220000000000000       0090339900006270113691082212000102
100000000000000000000009033990000627000000000000000000000000010002020002253808221600000000002            2  01022538082211082200000002113740000000001N010822000000000000000000000000000000000000000000000000000000000000000100002253816809EDMILSON ALVES DA SILVA                 RUA JOSE CALIXTO DO CARMO - 286 AP.93 -             11702690                                                            000104
2SR. CAIXA, APOS O VENCIMENTO COBRAR 2% DE MULTA                                 NAO RECEBER APOS 30 DIAS DO VENCIMENTO.                                                                                                                                                                                                         01082200000000000000108220000000000000       0090339900006270022538082216000105
100000000000000000000009033990000627000000000000000000000000010002020037947008221800000000002            2  01379470082211082200000003754130000000001N010822000000000000000000000000000000000000000000000000000000000000000100037947070873BRUNO DE CAETANO MARRINHAS              AVENIDA GENERAL BARRETO DE MENEZES - 323            09791150                                                            000107
2SR. CAIXA, APOS O VENCIMENTO COBRAR 2% DE MULTA                                 NAO RECEBER APOS 30 DIAS DO VENCIMENTO.                                                                                                                                                                                                         01082200000000000000108220000000000000       0090339900006270379470082218000108
100000000000000000000009033990000627000000000000000000000000010002020037517708221600000000002            2  01375177082209082200000003959900000000001N010822000000000000000000000000000000000000000000000000000000000000000100037517785869RENATO JOSE DE LIMA MELO                RUA ARISTIDES LOBO - 148 AP.41 BLOCO 03             03041100                                                            000110
2SR. CAIXA, APOS O VENCIMENTO COBRAR 2% DE MULTA                                 NAO RECEBER APOS 30 DIAS DO VENCIMENTO.                                                                                                                                                                                                         01082200000000000000108220000000000000       0090339900006270375177082216000111
100000000000000000000009033990000627000000000000000000000000010002020070367908221700000000002            2  01703679082211082200000001984930000000001N010822000000000000000000000000000000000000000000000000000000000000000100070367949849TEODOMIRO ALVES DOS SANTOS              RUA ANDRE PAZ - 13 - JARDIM SANTO ANDRE             08390230                                                            000113
2SR. CAIXA, APOS O VENCIMENTO COBRAR 2% DE MULTA                                 NAO RECEBER APOS 30 DIAS DO VENCIMENTO.                                                                                                                                                                                                         01082200000000000000108220000000000000       0090339900006270703679082217000114
100000000000000000000009033990000627000000000000000000000000010002020004410808221600000000002            2  01044108082209082200000002942260000000001N010822000000000000000000000000000000000000000000000000000000000000000100004410802860LUIZ ALBERTO MARINHO                    RUA DA INDEPENDENCIA - 706 AP.41B - CAMB            01524000                                                            000116
2SR. CAIXA, APOS O VENCIMENTO COBRAR 2% DE MULTA                                 NAO RECEBER APOS 30 DIAS DO VENCIMENTO.                                                                                                                                                                                                         01082200000000000000108220000000000000       0090339900006270044108082216000117
100000000000000000000009033990000627000000000000000000000000010002020018035008221300000000002            2  01180350082211082200000002656610000000001N010822000000000000000000000000000000000000000000000000000000000000000100018035075861ROSANGELA BISPO SANTOS                  RUA CASSIANO GABUS MENDES - 292 - JD. CA            09896160                                                            000119
2SR. CAIXA, APOS O VENCIMENTO COBRAR 2% DE MULTA                                 NAO RECEBER APOS 30 DIAS DO VENCIMENTO.                                                                                                                                                                                                         01082200000000000000108220000000000000       0090339900006270180350082213000120
100000000000000000000009033990000627000000000000000000000000010002020004767608222P00000000002            2  01047676082209082200000003927830000000001N010822000000000000000000000000000000000000000000000000000000000000000100004767679893ORLANDO GRANDE FILHO                    RUA ORLANDO MIGLIARI - 101 - JARDIM OURO            19906140                                                            000122
2SR. CAIXA, APOS O VENCIMENTO COBRAR 2% DE MULTA                                 NAO RECEBER APOS 30 DIAS DO VENCIMENTO.                                                                                                                                                                                                         01082200000000000000108220000000000000       009033990000627004767608222P000123
100000000000000000000009033990000627000000000000000000000000010002020064677808221700000000002            2  01646778082209082200000003159630000000001N010822000000000000000000000000000000000000000000000000000000000000000100064677850887ANTONIO CARLOS DE OLIVEIRA              RUA DR.ANTONIO MAZILLI FILHO - 435 - PAR            02230070                                                            000125
2SR. CAIXA, APOS O VENCIMENTO COBRAR 2% DE MULTA                                 NAO RECEBER APOS 30 DIAS DO VENCIMENTO.                                                                                                                                                                                                         01082200000000000000108220000000000000       0090339900006270646778082217000126
100000000000000000000009033990000627000000000000000000000000010002020007328908221200000000002            2  01073289082209082200000003854940000000001N010822000000000000000000000000000000000000000000000000000000000000000100007328927836BENEDITO APARECIDO ROCHA                AVENIDA SENADOR JOSE ERMINIO DE MORAES -            02357002                                                            000128
2SR. CAIXA, APOS O VENCIMENTO COBRAR 2% DE MULTA                                 NAO RECEBER APOS 30 DIAS DO VENCIMENTO.                                                                                                                                                                                                         01082200000000000000108220000000000000       0090339900006270073289082212000129
100000000000000000000009033990000627000000000000000000000000010002020058488608221P00000000002            2  01584886082209082200000002881830000000001N010822000000000000000000000000000000000000000000000000000000000000000100058488618972ADAILTON ZANUTTO MORESCHI               R:RAPHAEL UNGARO - COND.RESERVA SERRA Q.            13212138                                                            000131
2SR. CAIXA, APOS O VENCIMENTO COBRAR 2% DE MULTA                                 NAO RECEBER APOS 30 DIAS DO VENCIMENTO.                                                                                                                                                                                                         01082200000000000000108220000000000000       009033990000627058488608221P000132
100000000000000000000009033990000627000000000000000000000000010002020002196008221400000000002            2  01021960082211082200000002167750000000001N010822000000000000000000000000000000000000000000000000000000000000000100002196012831VILEFORT DIAS BORGES                    RUA PORTO XAVIER - 189 AP.64 - VILA CARM            08210170                                                            000134
2SR. CAIXA, APOS O VENCIMENTO COBRAR 2% DE MULTA                                 NAO RECEBER APOS 30 DIAS DO VENCIMENTO.                                                                                                                                                                                                         01082200000000000000108220000000000000       0090339900006270021960082214000135
100000000000000000000009033990000627000000000000000000000000010002020031861508221200000000002            2  01318615082211082200000002253130000000001N010822000000000000000000000000000000000000000000000000000000000000000100031861586809VANIA TOMAZ                              -  -  -  -                                         00000000                                                            000137
2SR. CAIXA, APOS O VENCIMENTO COBRAR 2% DE MULTA                                 NAO RECEBER APOS 30 DIAS DO VENCIMENTO.                                                                                                                                                                                                         01082200000000000000108220000000000000       0090339900006270318615082212000138
100000000000000000000009033990000627000000000000000000000000010002020003104508221600000000002            2  01031045082209082200000008388900000000001N010822000000000000000000000000000000000000000000000000000000000000000100003104580804NELSON RODRIGUES                        RUA CARLOS JOSE BORSTENS - 50 AP.81 - AV            11702750                                                            000140
2SR. CAIXA, APOS O VENCIMENTO COBRAR 2% DE MULTA                                 NAO RECEBER APOS 30 DIAS DO VENCIMENTO.                                                                                                                                                                                                         01082200000000000000108220000000000000       0090339900006270031045082216000141
100000000000000000000009033990000627000000000000000000000000010002020007715308221400000000002            2  01077153082209082200000003544300000000001N010822000000000000000000000000000000000000000000000000000000000000000100007715360627NILTON RENNAN OLIVEIRA GOMES FILHO      RUA CARLOS JOSE BORSTENS - 50 AP.21 - AV            11702750                                                            000143
2SR. CAIXA, APOS O VENCIMENTO COBRAR 2% DE MULTA                                 NAO RECEBER APOS 30 DIAS DO VENCIMENTO.                                                                                                                                                                                                         01082200000000000000108220000000000000       0090339900006270077153082214000144
100000000000000000000009033990000627000000000000000000000000010002020007194008221500000000002            2  01071940082211082200000002519560000000001N010822000000000000000000000000000000000000000000000000000000000000000100007194010895RAUL AMANTINO KIRK DE SANCTIS           AVENIDA SANTA CATARINA - 756 AP.01 - VIL            04378000                                                            000146
2SR. CAIXA, APOS O VENCIMENTO COBRAR 2% DE MULTA                                 NAO RECEBER APOS 30 DIAS DO VENCIMENTO.                                                                                                                                                                                                         01082200000000000000108220000000000000       0090339900006270071940082215000147
100000000000000000000009033990000627000000000000000000000000010002020025738608221200000000002            2  01257386082209082200000005090410000000001N010822000000000000000000000000000000000000000000000000000000000000000100025738614810VILMAR JOSE PEREIRA                     ALAMEDA TIETE - 646 - CERQUEIRA CESAR -             01417020                                                            000149
2SR. CAIXA, APOS O VENCIMENTO COBRAR 2% DE MULTA                                 NAO RECEBER APOS 30 DIAS DO VENCIMENTO.                                                                                                                                                                                                         01082200000000000000108220000000000000       0090339900006270257386082212000150
100000000000000000000009033990000627000000000000000000000000010002020025738608222000000000002            2  01257386082209082200000005090380000000001N010822000000000000000000000000000000000000000000000000000000000000000100025738614810VILMAR JOSE PEREIRA                     ALAMEDA TIETE - 646 - CERQUEIRA CESAR -             01417020                                                            000152
2SR. CAIXA, APOS O VENCIMENTO COBRAR 2% DE MULTA                                 NAO RECEBER APOS 30 DIAS DO VENCIMENTO.                                                                                                                                                                                                         01082200000000000000108220000000000000       0090339900006270257386082220000153
100000000000000000000009033990000627000000000000000000000000010002020025738608223900000000002            2  01257386082209082200000005090390000000001N010822000000000000000000000000000000000000000000000000000000000000000100025738614810VILMAR JOSE PEREIRA                     ALAMEDA TIETE - 646 - CERQUEIRA CESAR -             01417020                                                            000155
2SR. CAIXA, APOS O VENCIMENTO COBRAR 2% DE MULTA                                 NAO RECEBER APOS 30 DIAS DO VENCIMENTO.                                                                                                                                                                                                         01082200000000000000108220000000000000       0090339900006270257386082239000156
100000000000000000000009033990000627000000000000000000000000010002020025738608224700000000002            2  01257386082209082200000005090400000000001N010822000000000000000000000000000000000000000000000000000000000000000100025738614810VILMAR JOSE PEREIRA                     ALAMEDA TIETE - 646 - CERQUEIRA CESAR -             01417020                                                            000158
2SR. CAIXA, APOS O VENCIMENTO COBRAR 2% DE MULTA                                 NAO RECEBER APOS 30 DIAS DO VENCIMENTO.                                                                                                                                                                                                         01082200000000000000108220000000000000       0090339900006270257386082247000159
100000000000000000000009033990000627000000000000000000000000010002020011141508221400000000002            2  01111415082211082200000002647590000000001N010822000000000000000000000000000000000000000000000000000000000000000100011141508869PAULO ROBERTO TUNES SILVA               RUA PETROBRAS - 405 CASA 07 - VILA ANTON            03474060                                                            000161
2SR. CAIXA, APOS O VENCIMENTO COBRAR 2% DE MULTA                                 NAO RECEBER APOS 30 DIAS DO VENCIMENTO.                                                                                                                                                                                                         01082200000000000000108220000000000000       0090339900006270111415082214000162
100000000000000000000009033990000627000000000000000000000000010002020012449108221P00000000002            2  01124491082211082200000002667800000000001N010822000000000000000000000000000000000000000000000000000000000000000100012449104810GILBERTO DOS SANTOS JUNIOR              RUA ALMIRANTE TAMANDARE - 89 AP.143 - BA            09310350                                                            000164
2SR. CAIXA, APOS O VENCIMENTO COBRAR 2% DE MULTA                                 NAO RECEBER APOS 30 DIAS DO VENCIMENTO.                                                                                                                                                                                                         01082200000000000000108220000000000000       009033990000627012449108221P000165
100000000000000000000009033990000627000000000000000000000000010002020011261308221800000000002            2  01112613082209082200000003518950000000001N010822000000000000000000000000000000000000000000000000000000000000000100011261359844JOVANETE DOS SANTOS PASSOS              RUA FULVIO MORGANTI - 672 - JARDIM PARAI            02417170                                                            000167
2SR. CAIXA, APOS O VENCIMENTO COBRAR 2% DE MULTA                                 NAO RECEBER APOS 30 DIAS DO VENCIMENTO.                                                                                                                                                                                                         01082200000000000000108220000000000000       0090339900006270112613082218000168
100000000000000000000009033990000627000000000000000000000000010002020036279308221700000000002            2  01362793082209082200000003128110000000001N010822000000000000000000000000000000000000000000000000000000000000000100036279398838BRUNO DOCINI ORTEGA                     RUA GENERAL EUCLIDES FIGUEIREDO - 146 AP            11700780                                                            000170
2SR. CAIXA, APOS O VENCIMENTO COBRAR 2% DE MULTA                                 NAO RECEBER APOS 30 DIAS DO VENCIMENTO.                                                                                                                                                                                                         01082200000000000000108220000000000000       0090339900006270362793082217000171
9                                                                                                                                                                                                                                                                                                                                                                                                         000172