01REMESSA01COBRANCA       00000000000008017025HB SANTOS CONSTRUTORA E INCORP237BRADESCO       010823        MX0000183                                                                                                                                                                                                                                                                                     000001
100000000000000000000009033990000627000000000000000000000000010002020016479008231700000000002            2  01164790082309082300000005505550000000001N010823000000000000000000000000000000000000000000000000000000000000000100016479002806LOURDES PEREIRA DE QUEIROZ SECANECHIA   RUA PAULINO CURSI - 437 - CIDADE SAO MAT            03960060                                                            000002
2SR. CAIXA, APOS O VENCIMENTO COBRAR 2% DE MULTA                                 NAO RECEBER APOS 30 DIAS DO VENCIMENTO.                                                                                                                                                                                                         01082300000000000000108230000000000000       0090339900006270164790082317000003
100000000000000000000009033990000627000000000000000000000000010002020017229708232700000000002            2  01172297082309082300000004189680000000001N010823000000000000000000000000000000000000000000000000000000000000000100017229751802BERENICE VIEIRA KERSTING                RUA ATIBAIA - 17 AP.417 - BAIRRO IMPERAD            11707380                                                            000005
2SR. CAIXA, APOS O VENCIMENTO COBRAR 2% DE MULTA                                 NAO RECEBER APOS 30 DIAS DO VENCIMENTO.                                                                                                                                                                                                         01082300000000000000108230000000000000       0090339900006270172297082327000006
100000000000000000000009033990000627000000000000000000000000010002020009361408231400000000002            2  01093614082309082300000003997030000000001N010823000000000000000000000000000000000000000000000000000000000000000100009361471805JOSE BARBOSA DA SILVA                   RUA ALFREDO INACIO TRINDADE  - 60 AP.44             02344100                                                            000008
2SR. CAIXA, APOS O VENCIMENTO COBRAR 2% DE MULTA                                 NAO RECEBER APOS 30 DIAS DO VENCIMENTO.                                                                                                                                                                                                         01082300000000000000108230000000000000       0090339900006270093614082314000009
100000000000000000000009033990000627000000000000000000000000010002020012756908231800000000002            2  01127569082309082300000003450310000000001N010823000000000000000000000000000000000000000000000000000000000000000100012756959812ITAMAR JUVENAL DIAS DA SILVA            RUA ELISEU REINALDO MORAES VIEIRA - 90 A            02858000                                                            000011
2SR. CAIXA, APOS O VENCIMENTO COBRAR 2% DE MULTA                                 NAO RECEBER APOS 30 DIAS DO VENCIMENTO.                                                                                                                                                                                                         01082300000000000000108230000000000000       0090339900006270127569082318000012
100000000000000000000009033990000627000000000000000000000000010002020029433608231100000000002            2  01294336082311082300000002861640000000001N010823000000000000000000000000000000000000000000000000000000000000000100029433631897MARIO MUNIZ                             RUA JOSE CALIXTO DO CARMO - 286 AP.53 -             11702690                                                            000014
2SR. CAIXA, APOS O VENCIMENTO COBRAR 2% DE MULTA                                 NAO RECEBER APOS 30 DIAS DO VENCIMENTO.                                                                                                                                                                                                         01082300000000000000108230000000000000       0090339900006270294336082311000015
100000000000000000000009033990000627000000000000000000000000010002020005029808231400000000002            2  01050298082309082300000003517790000000001N010823000000000000000000000000000000000000000000000000000000000000000100005029828885LAURINETE DA CONCEICAO DE NORONHA       RUA MARIA LUCIA DE TOLEDO LEITE MORAES -            04434040                                                            000017
2SR. CAIXA, APOS O VENCIMENTO COBRAR 2% DE MULTA                                 NAO RECEBER APOS 30 DIAS DO VENCIMENTO.                                                                                                                                                                                                         01082300000000000000108230000000000000       0090339900006270050298082314000018
100000000000000000000009033990000627000000000000000000000000010002020013388908231600000000002            2  01133889082311082300000002789640000000001N010823000000000000000000000000000000000000000000000000000000000000000100013388936889NEUTON DE SOUZA RAMOS                   RUA JOSE CALIXTO DO CARMO - 286 AP.61 -             11702690                                                            000020
2SR. CAIXA, APOS O VENCIMENTO COBRAR 2% DE MULTA                                 NAO RECEBER APOS 30 DIAS DO VENCIMENTO.                                                                                                                                                                                                         01082300000000000000108230000000000000       0090339900006270133889082316000021
100000000000000000000009033990000627000000000000000000000000010002020012774908231600000000002            2  01127749082311082300000002842030000000001N010823000000000000000000000000000000000000000000000000000000000000000100012774906865JOSE MILTON SANTIAGO                    RUA BATATAIS - 47 - CIDADE ESTELA - POA             08563140                                                            000023
2SR. CAIXA, APOS O VENCIMENTO COBRAR 2% DE MULTA                                 NAO RECEBER APOS 30 DIAS DO VENCIMENTO.                                                                                                                                                                                                         01082300000000000000108230000000000000       0090339900006270127749082316000024
100000000000000000000009033990000627000000000000000000000000010002020005613808231600000000002            2  01056138082311082300000002613870000000001N010823000000000000000000000000000000000000000000000000000000000000000100005613843805NILZA MARIA DE OLIVEIRA                 RUA JOSE GONCALVES DE FREITAS - 66 C2 -             08210550                                                            000026
2SR. CAIXA, APOS O VENCIMENTO COBRAR 2% DE MULTA                                 NAO RECEBER APOS 30 DIAS DO VENCIMENTO.                                                                                                                                                                                                         01082300000000000000108230000000000000       0090339900006270056138082316000027
100000000000000000000009033990000627000000000000000000000000010002020007574908231600000000002            2  01075749082311082300000002683080000000001N010823000000000000000000000000000000000000000000000000000000000000000100007574936889JORGE LUCIANO PEREIRA BORRIELLO         RUA JOSE CALIXTO DO CARMO - 286 AP.54 -             11702690                                                            000029
2SR. CAIXA, APOS O VENCIMENTO COBRAR 2% DE MULTA                                 NAO RECEBER APOS 30 DIAS DO VENCIMENTO.                                                                                                                                                                                                         01082300000000000000108230000000000000       0090339900006270075749082316000030
100000000000000000000009033990000627000000000000000000000000010002020008214908231900000000002            2  01082149082311082300000002723790000000001N010823000000000000000000000000000000000000000000000000000000000000000100008214973830JAMIL CHALA                             RUA JOSE CALIXTO DO CARMO - 286 AP.22 -             11702690                                                            000032
2SR. CAIXA, APOS O VENCIMENTO COBRAR 2% DE MULTA                                 NAO RECEBER APOS 30 DIAS DO VENCIMENTO.                                                                                                                                                                                                         01082300000000000000108230000000000000       0090339900006270082149082319000033
100000000000000000000009033990000627000000000000000000000000010002020032495008231600000000002            2  01324950082311082300000003052360000000001N010823000000000000000000000000000000000000000000000000000000000000000100032495004881PAULO EDUARDO DOS SANTOS                RUA REPUBLICA DO IRAQUE - 1119 - CAMPO B            04611002                                                            000035
2SR. CAIXA, APOS O VENCIMENTO COBRAR 2% DE MULTA                                 NAO RECEBER APOS 30 DIAS DO VENCIMENTO.                                                                                                                                                                                                         01082300000000000000108230000000000000       0090339900006270324950082316000036
100000000000000000000009033990000627000000000000000000000000010002020016498008231300000000002            2  01164980082311082300000002676990000000001N010823000000000000000000000000000000000000000000000000000000000000000100016498053810GILMA CEZARIO GARCIA CORRITORI          RUA LAURENTINO XAVIER DOS SANTOS - 336 -            08240740                                                            000038
2SR. CAIXA, APOS O VENCIMENTO COBRAR 2% DE MULTA                                 NAO RECEBER APOS 30 DIAS DO VENCIMENTO.                                                                                                                                                                                                         01082300000000000000108230000000000000       0090339900006270164980082313000039
100000000000000000000009033990000627000000000000000000000000010002020029339008231200000000002            2  01293390082311082300000002862590000000001N010823000000000000000000000000000000000000000000000000000000000000000100029339051831RONALD DIDOFF                           RUA CORONEL FERREIRA BRAGA - 188 - VILA             03522010                                                            000041
2SR. CAIXA, APOS O VENCIMENTO COBRAR 2% DE MULTA                                 NAO RECEBER APOS 30 DIAS DO VENCIMENTO.                                                                                                                                                                                                         01082300000000000000108230000000000000       0090339900006270293390082312000042
100000000000000000000009033990000627000000000000000000000000010002020017357808231400000000002            2  01173578082311082300000003031730000000001N010823000000000000000000000000000000000000000000000000000000000000000100017357859894MARCIO GUIMARAES                        RUA GENERAL CAMARA - 188 SALA 11 - CENTR            11010120                                                            000044
2SR. CAIXA, APOS O VENCIMENTO COBRAR 2% DE MULTA                                 NAO RECEBER APOS 30 DIAS DO VENCIMENTO.                                                                                                                                                                                                         01082300000000000000108230000000000000       0090339900006270173578082314000045
100000000000000000000009033990000627000000000000000000000000010002020010563008231400000000002            2  01105630082311082300000003109230000000001N010823000000000000000000000000000000000000000000000000000000000000000100010563033878VERA LUCIA RIBEIRO LONGANEZI            RUA DOS CAMARES - 150 AP.24 BL.02 - CARA            02068030                                                            000047
2SR. CAIXA, APOS O VENCIMENTO COBRAR 2% DE MULTA                                 NAO RECEBER APOS 30 DIAS DO VENCIMENTO.                                                                                                                                                                                                         01082300000000000000108230000000000000       0090339900006270105630082314000048
100000000000000000000009033990000627000000000000000000000000010002020005529608231900000000002            2  01055296082311082300000002821510000000001N010823000000000000000000000000000000000000000000000000000000000000000100005529616801JOAQUIM JORGE DA COSTA                  RUA JOSE CALIXTO DO CARMO - 286 AP.106 -            11702690                                                            000050
2SR. CAIXA, APOS O VENCIMENTO COBRAR 2% DE MULTA                                 NAO RECEBER APOS 30 DIAS DO VENCIMENTO.                                                                                                                                                                                                         01082300000000000000108230000000000000       0090339900006270055296082319000051
100000000000000000000009033990000627000000000000000000000000010002020015550708231500000000002            2  01155507082309082300000002666490000000001N010823000000000000000000000000000000000000000000000000000000000000000100015550706806MARY MIWA                               RUA CARLOS JOSE BORSTENS - 50 AP.105 - A            11702750                                                            000053
2SR. CAIXA, APOS O VENCIMENTO COBRAR 2% DE MULTA                                 NAO RECEBER APOS 30 DIAS DO VENCIMENTO.                                                                                                                                                                                                         01082300000000000000108230000000000000       0090339900006270155507082315000054
100000000000000000000009033990000627000000000000000000000000010002020015464608231500000000002            2  01154646082311082300000002966090000000001N010823000000000000000000000000000000000000000000000000000000000000000100015464647864SONIA TERESA VOLPATO                    RUA JOSE CALIXTO DO CARMO - 286 AP.73 -             11702690                                                            000056
2SR. CAIXA, APOS O VENCIMENTO COBRAR 2% DE MULTA                                 NAO RECEBER APOS 30 DIAS DO VENCIMENTO.                                                                                                                                                                                                         01082300000000000000108230000000000000       0090339900006270154646082315000057
100000000000000000000009033990000627000000000000000000000000010002020008657808231400000000002            2  01086578082311082300000002936320000000001N010823000000000000000000000000000000000000000000000000000000000000000100008657886855ARLINDO DA CRUZ                         AVENIDA ARICANDUVA - 8.256 AP.54 BL.10 -            03951220                                                            000059
2SR. CAIXA, APOS O VENCIMENTO COBRAR 2% DE MULTA                                 NAO RECEBER APOS 30 DIAS DO VENCIMENTO.                                                                                                                                                                                                         01082300000000000000108230000000000000       0090339900006270086578082314000060
100000000000000000000009033990000627000000000000000000000000010002020059735108231200000000002            2  01597351082309082300000001659530000000001N010823000000000000000000000000000000000000000000000000000000000000000100059735180863HELIO JOSE MARQUES                      RUA MARTIM AFONSO DE SOUZA - 1007 AP.102            11702790                                                            000062
2SR. CAIXA, APOS O VENCIMENTO COBRAR 2% DE MULTA                                 NAO RECEBER APOS 30 DIAS DO VENCIMENTO.                                                                                                                                                                                                         01082300000000000000108230000000000000       0090339900006270597351082312000063
100000000000000000000009033990000627000000000000000000000000010002020026347808231600000000002            2  01263478082311082300000003138830000000001N010823000000000000000000000000000000000000000000000000000000000000000100026347872862VALDECI SILVA MEIRELES                  RUA JOSE BATISTA DA SILVA - 292 - JARDIM            06851470                                                            000065
2SR. CAIXA, APOS O VENCIMENTO COBRAR 2% DE MULTA                                 NAO RECEBER APOS 30 DIAS DO VENCIMENTO.                                                                                                                                                                                                         01082300000000000000108230000000000000       0090339900006270263478082316000066
100000000000000000000009033990000627000000000000000000000000010002020013135208231700000000002            2  01131352082311082300000002883770000000001N010823000000000000000000000000000000000000000000000000000000000000000100013135261859EDUARDO ZANOLA                          RUA ROLANDO PIETRO BONINI - 46 - JARDIM             09781040                                                            000068
2SR. CAIXA, APOS O VENCIMENTO COBRAR 2% DE MULTA                                 NAO RECEBER APOS 30 DIAS DO VENCIMENTO.                                                                                                                                                                                                         01082300000000000000108230000000000000       0090339900006270131352082317000069
100000000000000000000009033990000627000000000000000000000000010002020009797608231800000000002            2  01097976082311082300000002808480000000001N010823000000000000000000000000000000000000000000000000000000000000000100009797626857RICARDO SOBRAL DE OLIVEIRA              RUA 23 DE MAIO - 139 AP.32 - VILA MIRIM             11704690                                                            000071
2SR. CAIXA, APOS O VENCIMENTO COBRAR 2% DE MULTA                                 NAO RECEBER APOS 30 DIAS DO VENCIMENTO.                                                                                                                                                                                                         01082300000000000000108230000000000000       0090339900006270097976082318000072
100000000000000000000009033990000627000000000000000000000000010002020022728408231900000000002            2  01227284082311082300000003039000000000001N010823000000000000000000000000000000000000000000000000000000000000000100022728497842WILLIAN DE SOUZA MELLO                  RUA JOSE CALIXTO DO CARMO - 286 AP.111 -            11702690                                                            000074
2SR. CAIXA, APOS O VENCIMENTO COBRAR 2% DE MULTA                                 NAO RECEBER APOS 30 DIAS DO VENCIMENTO.                                                                                                                                                                                                         01082300000000000000108230000000000000       0090339900006270227284082319000075
100000000000000000000009033990000627000000000000000000000000010002020016909708231300000000002            2  01169097082311082300000002685510000000001N010823000000000000000000000000000000000000000000000000000000000000000100016909746805EDIVALDO SANTANA DOS SANTOS             ESTRADA JOAO GASPAR DELGADO - 80 AP.213             08536100                                                            000077
2SR. CAIXA, APOS O VENCIMENTO COBRAR 2% DE MULTA                                 NAO RECEBER APOS 30 DIAS DO VENCIMENTO.                                                                                                                                                                                                         01082300000000000000108230000000000000       0090339900006270169097082313000078
100000000000000000000009033990000627000000000000000000000000010002020022036008231000000000002            2  01220360082309082300000004168420000000001N010823000000000000000000000000000000000000000000000000000000000000000100022036003818DERLIS TERAN QUIROGA ROGATO             RUA JOAO RIBEIRO - 320 AP.131SB - CAMPES            09070250                                                            000080
2SR. CAIXA, APOS O VENCIMENTO COBRAR 2% DE MULTA                                 NAO RECEBER APOS 30 DIAS DO VENCIMENTO.                                                                                                                                                                                                         01082300000000000000108230000000000000       0090339900006270220360082310000081
100000000000000000000009033990000627000000000000000000000000010002020017229708233500000000002            2  01172297082309082300000004022890000000001N010823000000000000000000000000000000000000000000000000000000000000000100017229751802BERENICE VIEIRA KERSTING                RUA ATIBAIA - 17 AP.417 - BAIRRO IMPERAD            11707380                                                            000083
2SR. CAIXA, APOS O VENCIMENTO COBRAR 2% DE MULTA                                 NAO RECEBER APOS 30 DIAS DO VENCIMENTO.                                                                                                                                                                                                         01082300000000000000108230000000000000       0090339900006270172297082335000084
100000000000000000000009033990000627000000000000000000000000010002020033451608231100000000002            2  01334516082311082300000002430860000000001N010823000000000000000000000000000000000000000000000000000000000000000100033451620839ARAO ELISIARIO  NUNES                   RUA JOSE CALIXTO DO CARMO - 286 AP.64 -             11702690                                                            000086
2SR. CAIXA, APOS O VENCIMENTO COBRAR 2% DE MULTA                                 NAO RECEBER APOS 30 DIAS DO VENCIMENTO.                                                                                                                                                                                                         01082300000000000000108230000000000000       0090339900006270334516082311000087
100000000000000000000009033990000627000000000000000000000000010002020011369108231P00000000002            2  01113691082311082300000002655410000000001N010823000000000000000000000000000000000000000000000000000000000000000100011369165803ELIANA CORREA DE OLIVEIRA               RUA MAESTRO ZEFERINO SANTANA - 65 - VILA            18040010                                                            000089
2SR. CAIXA, APOS O VENCIMENTO COBRAR 2% DE MULTA                                 NAO RECEBER APOS 30 DIAS DO VENCIMENTO.                                                                                                                                                                                                         01082300000000000000108230000000000000       009033990000627011369108231P000090
100000000000000000000009033990000627000000000000000000000000010002020002253808231300000000002            2  01022538082311082300000002360130000000001N010823000000000000000000000000000000000000000000000000000000000000000100002253816809EDMILSON ALVES DA SILVA                 RUA JOSE CALIXTO DO CARMO - 286 AP.93 -             11702690                                                            000092
2SR. CAIXA, APOS O VENCIMENTO COBRAR 2% DE MULTA                                 NAO RECEBER APOS 30 DIAS DO VENCIMENTO.                                                                                                                                                                                                         01082300000000000000108230000000000000       0090339900006270022538082313000093
100000000000000000000009033990000627000000000000000000000000010002020037947008231500000000002            2  01379470082311082300000004191760000000001N010823000000000000000000000000000000000000000000000000000000000000000100037947070873BRUNO DE CAETANO MARRINHAS              AVENIDA GENERAL BARRETO DE MENEZES - 323            09791150                                                            000095
2SR. CAIXA, APOS O VENCIMENTO COBRAR 2% DE MULTA                                 NAO RECEBER APOS 30 DIAS DO VENCIMENTO.                                                                                                                                                                                                         01082300000000000000108230000000000000       0090339900006270379470082315000096
100000000000000000000009033990000627000000000000000000000000010002020037517708231300000000002            2  01375177082309082300000004421280000000001N010823000000000000000000000000000000000000000000000000000000000000000100037517785869RENATO JOSE DE LIMA MELO                RUA ARISTIDES LOBO - 148 AP.41 BLOCO 03             03041100                                                            000098
2SR. CAIXA, APOS O VENCIMENTO COBRAR 2% DE MULTA                                 NAO RECEBER APOS 30 DIAS DO VENCIMENTO.                                                                                                                                                                                                         01082300000000000000108230000000000000       0090339900006270375177082313000099
100000000000000000000009033990000627000000000000000000000000010002020070367908231400000000002            2  01703679082311082300000002216320000000001N010823000000000000000000000000000000000000000000000000000000000000000100070367949849TEODOMIRO ALVES DOS SANTOS              RUA ANDRE PAZ - 13 - JARDIM SANTO ANDRE             08390230                                                            000101
2SR. CAIXA, APOS O VENCIMENTO COBRAR 2% DE MULTA                                 NAO RECEBER APOS 30 DIAS DO VENCIMENTO.                                                                                                                                                                                                         01082300000000000000108230000000000000       0090339900006270703679082314000102
100000000000000000000009033990000627000000000000000000000000010002020004410808231300000000002            2  01044108082309082300000003285050000000001N010823000000000000000000000000000000000000000000000000000000000000000100004410802860LUIZ ALBERTO MARINHO                    AVENIDA BOSQUE DA SAUDE - 546 AP11 -  -             04142081                                                            000104
2SR. CAIXA, APOS O VENCIMENTO COBRAR 2% DE MULTA                                 NAO RECEBER APOS 30 DIAS DO VENCIMENTO.                                                                                                                                                                                                         01082300000000000000108230000000000000       0090339900006270044108082313000105
100000000000000000000009033990000627000000000000000000000000010002020004767608231900000000002            2  01047676082309082300000004385440000000001N010823000000000000000000000000000000000000000000000000000000000000000100004767679893ORLANDO GRANDE FILHO                    RUA ORLANDO MIGLIARI - 101 - JARDIM OURO            19906140                                                            000107
2SR. CAIXA, APOS O VENCIMENTO COBRAR 2% DE MULTA                                 NAO RECEBER APOS 30 DIAS DO VENCIMENTO.                                                                                                                                                                                                         01082300000000000000108230000000000000       0090339900006270047676082319000108
100000000000000000000009033990000627000000000000000000000000010002020064677808231400000000002            2  01646778082309082300000003527760000000001N010823000000000000000000000000000000000000000000000000000000000000000100064677850887ANTONIO CARLOS DE OLIVEIRA              RUA DR.ANTONIO MAZILLI FILHO - 435 - PAR            02230070                                                            000110
2SR. CAIXA, APOS O VENCIMENTO COBRAR 2% DE MULTA                                 NAO RECEBER APOS 30 DIAS DO VENCIMENTO.                                                                                                                                                                                                         01082300000000000000108230000000000000       0090339900006270646778082314000111
100000000000000000000009033990000627000000000000000000000000010002020028082608231900000000002            2  01280826082311082300000002460640000000001N010823000000000000000000000000000000000000000000000000000000000000000100028082615869PRISCILA PEREIRA                        ALAMEDA AFONSO BOCCHIGLIERI - 184 - INTE            04445130                                                            000113
2SR. CAIXA, APOS O VENCIMENTO COBRAR 2% DE MULTA                                 NAO RECEBER APOS 30 DIAS DO VENCIMENTO.                                                                                                                                                                                                         01082300000000000000108230000000000000       0090339900006270280826082319000114
100000000000000000000009033990000627000000000000000000000000010002020058488608231700000000002            2  01584886082309082300000003217600000000001N010823000000000000000000000000000000000000000000000000000000000000000100058488618972ADAILTON ZANUTTO MORESCHI               R:RAPHAEL UNGARO - COND.RESERVA SERRA Q.            13212138                                                            000116
2SR. CAIXA, APOS O VENCIMENTO COBRAR 2% DE MULTA                                 NAO RECEBER APOS 30 DIAS DO VENCIMENTO.                                                                                                                                                                                                         01082300000000000000108230000000000000       0090339900006270584886082317000117
100000000000000000000009033990000627000000000000000000000000010002020002196008231100000000002            2  01021960082311082300000002420460000000001N010823000000000000000000000000000000000000000000000000000000000000000100002196012831VILEFORT DIAS BORGES                    RUA PORTO XAVIER - 189 AP.64 - VILA CARM            08210170                                                            000119
2SR. CAIXA, APOS O VENCIMENTO COBRAR 2% DE MULTA                                 NAO RECEBER APOS 30 DIAS DO VENCIMENTO.                                                                                                                                                                                                         01082300000000000000108230000000000000       0090339900006270021960082311000120
100000000000000000000009033990000627000000000000000000000000010002020031861508231P00000000002            2  01318615082311082300000002515770000000001N010823000000000000000000000000000000000000000000000000000000000000000100031861586809VANIA TOMAZ                              -  -  -  -                                         00000000                                                            000122
2SR. CAIXA, APOS O VENCIMENTO COBRAR 2% DE MULTA                                 NAO RECEBER APOS 30 DIAS DO VENCIMENTO.                                                                                                                                                                                                         01082300000000000000108230000000000000       009033990000627031861508231P000123
100000000000000000000009033990000627000000000000000000000000010002020003104508231300000000002            2  01031045082309082300000009366300000000001N010823000000000000000000000000000000000000000000000000000000000000000100003104580804NELSON RODRIGUES                        RUA CARLOS JOSE BORSTENS - 50 AP.81 - AV            11702750                                                            000125
2SR. CAIXA, APOS O VENCIMENTO COBRAR 2% DE MULTA                                 NAO RECEBER APOS 30 DIAS DO VENCIMENTO.                                                                                                                                                                                                         01082300000000000000108230000000000000       0090339900006270031045082313000126
100000000000000000000009033990000627000000000000000000000000010002020007715308231100000000002            2  01077153082309082300000003957260000000001N010823000000000000000000000000000000000000000000000000000000000000000100007715360627NILTON RENNAN OLIVEIRA GOMES FILHO      RUA CARLOS JOSE BORSTENS - 50 AP.21 - AV            11702750                                                            000128
2SR. CAIXA, APOS O VENCIMENTO COBRAR 2% DE MULTA                                 NAO RECEBER APOS 30 DIAS DO VENCIMENTO.                                                                                                                                                                                                         01082300000000000000108230000000000000       0090339900006270077153082311000129
100000000000000000000009033990000627000000000000000000000000010002020007194008231200000000002            2  01071940082311082300000002813260000000001N010823000000000000000000000000000000000000000000000000000000000000000100007194010895RAUL AMANTINO KIRK DE SANCTIS           AVENIDA SANTA CATARINA - 756 AP.01 - VIL            04378000                                                            000131
2SR. CAIXA, APOS O VENCIMENTO COBRAR 2% DE MULTA                                 NAO RECEBER APOS 30 DIAS DO VENCIMENTO.                                                                                                                                                                                                         01082300000000000000108230000000000000       0090339900006270071940082312000132
100000000000000000000009033990000627000000000000000000000000010002020025738608231P00000000002            2  01257386082309082300000005683480000000001N010823000000000000000000000000000000000000000000000000000000000000000100025738614810VILMAR JOSE PEREIRA                     ALAMEDA TIETE - 646 - CERQUEIRA CESAR -             01417020                                                            000134
2SR. CAIXA, APOS O VENCIMENTO COBRAR 2% DE MULTA                                 NAO RECEBER APOS 30 DIAS DO VENCIMENTO.                                                                                                                                                                                                         01082300000000000000108230000000000000       009033990000627025738608231P000135
100000000000000000000009033990000627000000000000000000000000010002020025738608232800000000002            2  01257386082309082300000005683450000000001N010823000000000000000000000000000000000000000000000000000000000000000100025738614810VILMAR JOSE PEREIRA                     ALAMEDA TIETE - 646 - CERQUEIRA CESAR -             01417020                                                            000137
2SR. CAIXA, APOS O VENCIMENTO COBRAR 2% DE MULTA                                 NAO RECEBER APOS 30 DIAS DO VENCIMENTO.                                                                                                                                                                                                         01082300000000000000108230000000000000       0090339900006270257386082328000138
100000000000000000000009033990000627000000000000000000000000010002020025738608233600000000002            2  01257386082309082300000005683460000000001N010823000000000000000000000000000000000000000000000000000000000000000100025738614810VILMAR JOSE PEREIRA                     ALAMEDA TIETE - 646 - CERQUEIRA CESAR -             01417020                                                            000140
2SR. CAIXA, APOS O VENCIMENTO COBRAR 2% DE MULTA                                 NAO RECEBER APOS 30 DIAS DO VENCIMENTO.                                                                                                                                                                                                         01082300000000000000108230000000000000       0090339900006270257386082336000141
100000000000000000000009033990000627000000000000000000000000010002020025738608234400000000002            2  01257386082309082300000005683470000000001N010823000000000000000000000000000000000000000000000000000000000000000100025738614810VILMAR JOSE PEREIRA                     ALAMEDA TIETE - 646 - CERQUEIRA CESAR -             01417020                                                            000143
2SR. CAIXA, APOS O VENCIMENTO COBRAR 2% DE MULTA                                 NAO RECEBER APOS 30 DIAS DO VENCIMENTO.                                                                                                                                                                                                         01082300000000000000108230000000000000       0090339900006270257386082344000144
100000000000000000000009033990000627000000000000000000000000010002020011141508231100000000002            2  01111415082311082300000002956230000000001N010823000000000000000000000000000000000000000000000000000000000000000100011141508869PAULO ROBERTO TUNES SILVA               RUA PETROBRAS - 405 CASA 07 - VILA ANTON            03474060                                                            000146
2SR. CAIXA, APOS O VENCIMENTO COBRAR 2% DE MULTA                                 NAO RECEBER APOS 30 DIAS DO VENCIMENTO.                                                                                                                                                                                                         01082300000000000000108230000000000000       0090339900006270111415082311000147
100000000000000000000009033990000627000000000000000000000000010002020012449108231700000000002            2  01124491082311082300000002978780000000001N010823000000000000000000000000000000000000000000000000000000000000000100012449104810GILBERTO DOS SANTOS JUNIOR              RUA ALMIRANTE TAMANDARE - 89 AP.143 - BA            09310350                                                            000149
2SR. CAIXA, APOS O VENCIMENTO COBRAR 2% DE MULTA                                 NAO RECEBER APOS 30 DIAS DO VENCIMENTO.                                                                                                                                                                                                         01082300000000000000108230000000000000       0090339900006270124491082317000150
100000000000000000000009033990000627000000000000000000000000010002020011261308231500000000002            2  01112613082309082300000003928940000000001N010823000000000000000000000000000000000000000000000000000000000000000100011261359844JOVANETE DOS SANTOS PASSOS              RUA FULVIO MORGANTI - 672 - JARDIM PARAI            02417170                                                            000152
2SR. CAIXA, APOS O VENCIMENTO COBRAR 2% DE MULTA                                 NAO RECEBER APOS 30 DIAS DO VENCIMENTO.                                                                                                                                                                                                         01082300000000000000108230000000000000       0090339900006270112613082315000153
100000000000000000000009033990000627000000000000000000000000010002020036279308231400000000002            2  01362793082309082300000003492570000000001N010823000000000000000000000000000000000000000000000000000000000000000100036279398838BRUNO DOCINI ORTEGA                     RUA GENERAL EUCLIDES FIGUEIREDO - 146 AP            11700780                                                            000155
2SR. CAIXA, APOS O VENCIMENTO COBRAR 2% DE MULTA                                 NAO RECEBER APOS 30 DIAS DO VENCIMENTO.                                                                                                                                                                                                         01082300000000000000108230000000000000       0090339900006270362793082314000156
100000000000000000000009033990000627000000000000000000000000010002020008475108231400000000002            2  01084751082309082300000003936230000000001N010823000000000000000000000000000000000000000000000000000000000000000100008475110819HELENA ROSA DOS SANTOS                  AVENIDA ZELIA - 278 CASA 02 - PARQUE DOS            06436000                                                            000158
2SR. CAIXA, APOS O VENCIMENTO COBRAR 2% DE MULTA                                 NAO RECEBER APOS 30 DIAS DO VENCIMENTO.                                                                                                                                                                                                         01082300000000000000108230000000000000       0090339900006270084751082314000159
100000000000000000000009033990000627000000000000000000000000010002020001098208231300000000002            2  01010982082309082300000004304090000000001N010823000000000000000000000000000000000000000000000000000000000000000100001098222857JANDIRA DOS SANTOS PASSOS               RUA FULVIO MORGANTI - 672 - JARDIM PARAI            02417170                                                            000161
2SR. CAIXA, APOS O VENCIMENTO COBRAR 2% DE MULTA                                 NAO RECEBER APOS 30 DIAS DO VENCIMENTO.                                                                                                                                                                                                         01082300000000000000108230000000000000       0090339900006270010982082313000162
9                                                                                                                                                                                                                                                                                                                                                                                                         000163