01REMESSA01COBRANCA       00000000000005331186HB SANTOS CONSTRUTORA E INCORP237BRADESCO       120624        MX0000099                                                                                                                                                                                                                                                                                     000001
100000000000000000000009033990000995400000000000000000000000010002020005723206241400000000002            2  01057232062423062400000003380220000000001N120624000000000000000000000000000000000000000000000000000000000000000100005723255843FRANCISCO DE ASSIS DA SILVA             PRACA NICOLAU GERAIGIRE - 25 VISOR - JAR            11095110                                                            000002
2SR. CAIXA, APOS O VENCIMENTO COBRAR 2% DE MULTA                                 NAO RECEBER APOS 30 DIAS DO VENCIMENTO.                                                                                                                                                                                                         12062400000000000001206240000000000000       0090339900009954057232062414000003
100000000000000000000009033990000995400000000000000000000000010002020032589106241800000000002            2  01325891062423062400000003198370000000001N120624000000000000000000000000000000000000000000000000000000000000000100032589165862RENATA ISABEL MARTINS SILVA             RUA HERCULANO DE FREITAS - 257 - FUNDACA            09520280                                                            000005
2SR. CAIXA, APOS O VENCIMENTO COBRAR 2% DE MULTA                                 NAO RECEBER APOS 30 DIAS DO VENCIMENTO.                                                                                                                                                                                                         12062400000000000001206240000000000000       0090339900009954325891062418000006
100000000000000000000009033990000995400000000000000000000000010002020046391206241700000000002            2  01463912062423062400000003353890000000001N120624000000000000000000000000000000000000000000000000000000000000000100046391265810PAMELLA RODRIGUES DE OLIVEIRA           RUA AUGUSTA - 183 AP.301 BL.2A - VILA AU            07025130                                                            000008
2SR. CAIXA, APOS O VENCIMENTO COBRAR 2% DE MULTA                                 NAO RECEBER APOS 30 DIAS DO VENCIMENTO.                                                                                                                                                                                                         12062400000000000001206240000000000000       0090339900009954463912062417000009
100000000000000000000009033990000995400000000000000000000000010002020027964506241500000000002            2  01279645062423062400000003332370000000001N120624000000000000000000000000000000000000000000000000000000000000000100027964512838FABIO TADEU DE CAMPOS RADZIAVICIUS      RUA URUGUAI - 89 AP.94 - JARDIM GUILHERM            11702300                                                            000011
2SR. CAIXA, APOS O VENCIMENTO COBRAR 2% DE MULTA                                 NAO RECEBER APOS 30 DIAS DO VENCIMENTO.                                                                                                                                                                                                         12062400000000000001206240000000000000       0090339900009954279645062415000012
100000000000000000000009033990000995400000000000000000000000010002020011498306241300000000002            2  01114983062423062400000006431260000000001N120624000000000000000000000000000000000000000000000000000000000000000100011498329837GERSON GERALDO DAS NEVES                RUA DOMINGOS DELGADO - 144 - VILA SOUZA             02881070                                                            000014
2SR. CAIXA, APOS O VENCIMENTO COBRAR 2% DE MULTA                                 NAO RECEBER APOS 30 DIAS DO VENCIMENTO.                                                                                                                                                                                                         12062400000000000001206240000000000000       0090339900009954114983062413000015
100000000000000000000009033990000995400000000000000000000000010002020011498306242100000000002            2  01114983062423062400000002496680000000001N120624000000000000000000000000000000000000000000000000000000000000000100011498329837GERSON GERALDO DAS NEVES                RUA DOMINGOS DELGADO - 144 - VILA SOUZA             02881070                                                            000017
2SR. CAIXA, APOS O VENCIMENTO COBRAR 2% DE MULTA                                 NAO RECEBER APOS 30 DIAS DO VENCIMENTO.                                                                                                                                                                                                         12062400000000000001206240000000000000       0090339900009954114983062421000018
100000000000000000000009033990000995400000000000000000000000010002020025214406241P00000000002            2  01252144062423062400000002955290000000001N120624000000000000000000000000000000000000000000000000000000000000000100025214401833JOSE MAURICIO DOS SANTOS RODRIGUES      RUA JOAO DE MACEDO RIBEIRO - 49 - VILA N            08111101                                                            000020
2SR. CAIXA, APOS O VENCIMENTO COBRAR 2% DE MULTA                                 NAO RECEBER APOS 30 DIAS DO VENCIMENTO.                                                                                                                                                                                                         12062400000000000001206240000000000000       009033990000995425214406241P000021
100000000000000000000009033990000995400000000000000000000000010002020033119106241700000000002            2  01331191062423062400000002967810000000001N120624000000000000000000000000000000000000000000000000000000000000000100033119178802HUGO GOMES VENDRAME                     RUA URUGUAI - 89 AP.52 - JARDIM GUILHERM            11702300                                                            000023
2SR. CAIXA, APOS O VENCIMENTO COBRAR 2% DE MULTA                                 NAO RECEBER APOS 30 DIAS DO VENCIMENTO.                                                                                                                                                                                                         12062400000000000001206240000000000000       0090339900009954331191062417000024
100000000000000000000009033990000995400000000000000000000000010002020016631506241P00000000002            2  01166315062423062400000003019590000000001N120624000000000000000000000000000000000000000000000000000000000000000100016631587468GILBERTO BEZERRA DA SILVA               AVENIDA JAIME TORRES - 745 CASA 3 - JARD            03670000                                                            000026
2SR. CAIXA, APOS O VENCIMENTO COBRAR 2% DE MULTA                                 NAO RECEBER APOS 30 DIAS DO VENCIMENTO.                                                                                                                                                                                                         12062400000000000001206240000000000000       009033990000995416631506241P000027
100000000000000000000009033990000995400000000000000000000000010002020007313206241200000000002            2  01073132062423062400000002998170000000001N120624000000000000000000000000000000000000000000000000000000000000000100007313251840SALVADOR GESUALDO PULVIRENTI            AVENIDA MARARI - 641 - VILA MARARI - SAO            04402010                                                            000029
2SR. CAIXA, APOS O VENCIMENTO COBRAR 2% DE MULTA                                 NAO RECEBER APOS 30 DIAS DO VENCIMENTO.                                                                                                                                                                                                         12062400000000000001206240000000000000       0090339900009954073132062412000030
100000000000000000000009033990000995400000000000000000000000010002020010676706241400000000002            2  01106767062423062400000003129360000000001N120624000000000000000000000000000000000000000000000000000000000000000100010676723896MERCEDES CRISTINA ROCHA SANDOVAL        RUA URUGUAI - 89 AP.83 - JARDIM GUILHERM            11702300                                                            000032
2SR. CAIXA, APOS O VENCIMENTO COBRAR 2% DE MULTA                                 NAO RECEBER APOS 30 DIAS DO VENCIMENTO.                                                                                                                                                                                                         12062400000000000001206240000000000000       0090339900009954106767062414000033
100000000000000000000009033990000995400000000000000000000000010002020009502806241200000000002            2  01095028062423062400000003268100000000001N120624000000000000000000000000000000000000000000000000000000000000000100009502844831CLAUDIA ROCHA SANDOVAL                  RUA URUGUAI - 89 AP.64 - JARDIM GUILHERM            11702300                                                            000035
2SR. CAIXA, APOS O VENCIMENTO COBRAR 2% DE MULTA                                 NAO RECEBER APOS 30 DIAS DO VENCIMENTO.                                                                                                                                                                                                         12062400000000000001206240000000000000       0090339900009954095028062412000036
100000000000000000000009033990000995400000000000000000000000010002020007594206241100000000002            2  01075942062423062400000002933870000000001N120624000000000000000000000000000000000000000000000000000000000000000100007594247809JOSE LUIS DE OLIVEIRA                   DONA EGLANTINA PENTEADO DA SILVA PRADO -            13044162                                                            000038
2SR. CAIXA, APOS O VENCIMENTO COBRAR 2% DE MULTA                                 NAO RECEBER APOS 30 DIAS DO VENCIMENTO.                                                                                                                                                                                                         12062400000000000001206240000000000000       0090339900009954075942062411000039
100000000000000000000009033990000995400000000000000000000000010002020005288706241500000000002            2  01052887062423062400000003022170000000001N120624000000000000000000000000000000000000000000000000000000000000000100005288796858MARCELO RODRIGUES FERREIRA              RUA MARCOS ANTONIO MARQUES - 302 - JARDI            06433020                                                            000041
2SR. CAIXA, APOS O VENCIMENTO COBRAR 2% DE MULTA                                 NAO RECEBER APOS 30 DIAS DO VENCIMENTO.                                                                                                                                                                                                         12062400000000000001206240000000000000       0090339900009954052887062415000042
100000000000000000000009033990000995400000000000000000000000010002020015835906241400000000002            2  01158359062423062400000003147150000000001N120624000000000000000000000000000000000000000000000000000000000000000100015835992823FLAVIO VERONEZ                          RUA ANDREA PAULINETTI - 127 AP.42 - BAIR            04707050                                                            000044
2SR. CAIXA, APOS O VENCIMENTO COBRAR 2% DE MULTA                                 NAO RECEBER APOS 30 DIAS DO VENCIMENTO.                                                                                                                                                                                                         12062400000000000001206240000000000000       0090339900009954158359062414000045
100000000000000000000009033990000995400000000000000000000000010002020000438106241200000000002            2  01004381062423062400000003552280000000001N120624000000000000000000000000000000000000000000000000000000000000000100000438161858WAGNECY VILLA NOVA LIEN                 RUA PROFESSOR FERREIRA PAULINO - 233 AP.            07025020                                                            000047
2SR. CAIXA, APOS O VENCIMENTO COBRAR 2% DE MULTA                                 NAO RECEBER APOS 30 DIAS DO VENCIMENTO.                                                                                                                                                                                                         12062400000000000001206240000000000000       0090339900009954004381062412000048
100000000000000000000009033990000995400000000000000000000000010002020026004506241900000000002            2  01260045062423062400000003147190000000001N120624000000000000000000000000000000000000000000000000000000000000000100026004595888EDIVALDO BEZERRA DA SILVA               AVENIDA GUATEMALA - 550 - JARDIM PINHEIR            09854750                                                            000050
2SR. CAIXA, APOS O VENCIMENTO COBRAR 2% DE MULTA                                 NAO RECEBER APOS 30 DIAS DO VENCIMENTO.                                                                                                                                                                                                         12062400000000000001206240000000000000       0090339900009954260045062419000051
100000000000000000000009033990000995400000000000000000000000010002020012470706241300000000002            2  01124707062423062400000003357850000000001N120624000000000000000000000000000000000000000000000000000000000000000100012470771870HILTON FERNANDES OLIVARES               RUA PATIO DA ESTACAO - 115 - BAIRRO CENT            09450000                                                            000053
2SR. CAIXA, APOS O VENCIMENTO COBRAR 2% DE MULTA                                 NAO RECEBER APOS 30 DIAS DO VENCIMENTO.                                                                                                                                                                                                         12062400000000000001206240000000000000       0090339900009954124707062413000054
100000000000000000000009033990000995400000000000000000000000010002020014025406241200000000002            2  01140254062423062400000003681780000000001N120624000000000000000000000000000000000000000000000000000000000000000100014025420899ANDREIA APARECIDA TAVARES BASTOS        RUA IBATIBA - 234 CASA 27 - RES.BOUGANVI            09220608                                                            000056
2SR. CAIXA, APOS O VENCIMENTO COBRAR 2% DE MULTA                                 NAO RECEBER APOS 30 DIAS DO VENCIMENTO.                                                                                                                                                                                                         12062400000000000001206240000000000000       0090339900009954140254062412000057
100000000000000000000009033990000995400000000000000000000000010002020088578706241P00000000002            2  01885787062423062400000002743740000000001N120624000000000000000000000000000000000000000000000000000000000000000100088578704800GILBERTO DO ESPIRITO SANTO SILVA        RUA URUGUAI - 89 AP.23 - JARDIM GUILHERM            11702300                                                            000059
2SR. CAIXA, APOS O VENCIMENTO COBRAR 2% DE MULTA                                 NAO RECEBER APOS 30 DIAS DO VENCIMENTO.                                                                                                                                                                                                         12062400000000000001206240000000000000       009033990000995488578706241P000060
100000000000000000000009033990000995400000000000000000000000010002020005105206241800000000002            2  01051052062423062400000003272220000000001N120624000000000000000000000000000000000000000000000000000000000000000100005105287835FABIO MOTTOLA DE OLIVEIRA               RUA RAUL MAZZONI - 133 - CHACARA AREAL -            13331022                                                            000062
2SR. CAIXA, APOS O VENCIMENTO COBRAR 2% DE MULTA                                 NAO RECEBER APOS 30 DIAS DO VENCIMENTO.                                                                                                                                                                                                         12062400000000000001206240000000000000       0090339900009954051052062418000063
100000000000000000000009033990000995400000000000000000000000010002020020792706241700000000002            2  01207927062423062400000003401950000000001N120624000000000000000000000000000000000000000000000000000000000000000120792791000147TROVAO COMERCIO DE ALIMENTOS LTDA-ME    RUA QUINTA DA MAGNOLIA - 67 - JARDIM IPA            03582100                                                            000065
2SR. CAIXA, APOS O VENCIMENTO COBRAR 2% DE MULTA                                 NAO RECEBER APOS 30 DIAS DO VENCIMENTO.                                                                                                                                                                                                         12062400000000000001206240000000000000       0090339900009954207927062417000066
100000000000000000000009033990000995400000000000000000000000010002020007648106241000000000002            2  01076481062423062400000003194420000000001N120624000000000000000000000000000000000000000000000000000000000000000100007648112825MARA REGINA CAPRIO                      RUA DA TRINDADE - 790 - VILA IDEAL - SAO            15060280                                                            000068
2SR. CAIXA, APOS O VENCIMENTO COBRAR 2% DE MULTA                                 NAO RECEBER APOS 30 DIAS DO VENCIMENTO.                                                                                                                                                                                                         12062400000000000001206240000000000000       0090339900009954076481062410000069
100000000000000000000009033990000995400000000000000000000000010002020031157406241P00000000002            2  01311574062423062400000003430050000000001N120624000000000000000000000000000000000000000000000000000000000000000100031157420885TALITA ANICHIARICO COSSI                RUA CNEO POMPEO DE CAMARGO - 817 - JARDI            13060150                                                            000071
2SR. CAIXA, APOS O VENCIMENTO COBRAR 2% DE MULTA                                 NAO RECEBER APOS 30 DIAS DO VENCIMENTO.                                                                                                                                                                                                         12062400000000000001206240000000000000       009033990000995431157406241P000072
100000000000000000000009033990000995400000000000000000000000010002020035572506241400000000002            2  01355725062423062400000003646900000000001N120624000000000000000000000000000000000000000000000000000000000000000100035572536865MARIA SIMONE SANTOS                     RUA JOSE PEZZOLO - 68 - VILA ELDIZIA - S            09181660                                                            000074
2SR. CAIXA, APOS O VENCIMENTO COBRAR 2% DE MULTA                                 NAO RECEBER APOS 30 DIAS DO VENCIMENTO.                                                                                                                                                                                                         12062400000000000001206240000000000000       0090339900009954355725062414000075
100000000000000000000009033990000995400000000000000000000000010002020008800306241100000000002            2  01088003062423062400000003322810000000001N120624000000000000000000000000000000000000000000000000000000000000000100008800368425INGO DIMITRI PEREIRA DA NOBREGA         RUA PROFESSOR MENDES PIMENTEL - 362 - JA            03973010                                                            000077
2SR. CAIXA, APOS O VENCIMENTO COBRAR 2% DE MULTA                                 NAO RECEBER APOS 30 DIAS DO VENCIMENTO.                                                                                                                                                                                                         12062400000000000001206240000000000000       0090339900009954088003062411000078
100000000000000000000009033990000995400000000000000000000000010002020005054106241600000000002            2  01050541062423062400000003215640000000001N120624000000000000000000000000000000000000000000000000000000000000000100005054169806PAULO ROBERTO DE MATTOS                 JARDIM BOTANICO - 849 - DISTRITO DE SOUS            13106258                                                            000080
2SR. CAIXA, APOS O VENCIMENTO COBRAR 2% DE MULTA                                 NAO RECEBER APOS 30 DIAS DO VENCIMENTO.                                                                                                                                                                                                         12062400000000000001206240000000000000       0090339900009954050541062416000081
100000000000000000000009033990000995400000000000000000000000010002020007552106241200000000002            2  01075521062423062400000003215640000000001N120624000000000000000000000000000000000000000000000000000000000000000100007552151846MAURO BORDONI                           AVENIDA DR. AUGUSTO DE TOLEDO - 769 AP.6            09540080                                                            000083
2SR. CAIXA, APOS O VENCIMENTO COBRAR 2% DE MULTA                                 NAO RECEBER APOS 30 DIAS DO VENCIMENTO.                                                                                                                                                                                                         12062400000000000001206240000000000000       0090339900009954075521062412000084
100000000000000000000009033990000995400000000000000000000000010002020012744206241500000000002            2  01127442062423062400000003577870000000001N120624000000000000000000000000000000000000000000000000000000000000000100012744201804ADAIL JOSE DE SOUSA                     RUA ROSARIA - 303 - BAIRRO SACADURA CABR            09061080                                                            000086
2SR. CAIXA, APOS O VENCIMENTO COBRAR 2% DE MULTA                                 NAO RECEBER APOS 30 DIAS DO VENCIMENTO.                                                                                                                                                                                                         12062400000000000001206240000000000000       0090339900009954127442062415000087
100000000000000000000009033990000995400000000000000000000000010002020068320606241200000000002            2  01683206062423062400000012670950000000001N120624000000000000000000000000000000000000000000000000000000000000000100068320663849ANTONIO CAVALCANTE LIMA                 RUA AMAZONAS - 1188 - CENTRO - SAO CAETA            09540201                                                            000089
2SR. CAIXA, APOS O VENCIMENTO COBRAR 2% DE MULTA                                 NAO RECEBER APOS 30 DIAS DO VENCIMENTO.                                                                                                                                                                                                         12062400000000000001206240000000000000       0090339900009954683206062412000090
100000000000000000000009033990000995400000000000000000000000010002020088926206241400000000002            2  01889262062423062400000002661870000000001N120624000000000000000000000000000000000000000000000000000000000000000100088926230872VALDEMAR LATANCE FILHO                  RUA MELO PINTO DA SILVA - 111 CASA 103 -            18116265                                                            000092
2SR. CAIXA, APOS O VENCIMENTO COBRAR 2% DE MULTA                                 NAO RECEBER APOS 30 DIAS DO VENCIMENTO.                                                                                                                                                                                                         12062400000000000001206240000000000000       0090339900009954889262062414000093
9                                                                                                                                                                                                                                                                                                                                                                                                         000094