01REMESSA01COBRANCA       00000000000008017025HB SANTOS CONSTRUTORA E INCORP237BRADESCO       050423        MX0000175                                                                                                                                                                                                                                                                                     000001
100000000000000000000009033990000627000000000000000000000000010002020025035104231000000000002            2  01250351042324042300000002971820000000001N050423000000000000000000000000000000000000000000000000000000000000000100025035170802WANDERSON LUIS DE CARVALHO              RUA JOAQUIM GONCALVES ROCHA - 302 - JARD            02859030                                                            000002
2SR. CAIXA, APOS O VENCIMENTO COBRAR 2% DE MULTA                                 NAO RECEBER APOS 30 DIAS DO VENCIMENTO.                                                                                                                                                                                                         05042300000000000000504230000000000000       0090339900006270250351042310000003
100000000000000000000009033990000627000000000000000000000000010002020007294304231800000000002            2  01072943042324042300000003997090000000001N050423000000000000000000000000000000000000000000000000000000000000000100007294351805CLAUDENIR APARECIDO VACARI              RUA CARLOS JOSE BORSTENS - 50 AP.93 - AV            11702750                                                            000005
2SR. CAIXA, APOS O VENCIMENTO COBRAR 2% DE MULTA                                 NAO RECEBER APOS 30 DIAS DO VENCIMENTO.                                                                                                                                                                                                         05042300000000000000504230000000000000       0090339900006270072943042318000006
100000000000000000000009033990000627000000000000000000000000010002020005071404231900000000002            2  01050714042324042300000003921880000000001N050423000000000000000000000000000000000000000000000000000000000000000100005071481855ERIBALDO SANTANA CARVALHO               RUA HONDURAS - 477 - PARQUE DAS AMERICAS            09351070                                                            000008
2SR. CAIXA, APOS O VENCIMENTO COBRAR 2% DE MULTA                                 NAO RECEBER APOS 30 DIAS DO VENCIMENTO.                                                                                                                                                                                                         05042300000000000000504230000000000000       0090339900006270050714042319000009
100000000000000000000009033990000627000000000000000000000000010002020002841704231200000000002            2  01028417042324042300000003669260000000001N050423000000000000000000000000000000000000000000000000000000000000000100002841756416LUCIANA PINHEIRO DE ASSIS NUNES         RUA RIO ACIMA - 81 - RIACHO GRANDE - SAO            09830100                                                            000011
2SR. CAIXA, APOS O VENCIMENTO COBRAR 2% DE MULTA                                 NAO RECEBER APOS 30 DIAS DO VENCIMENTO.                                                                                                                                                                                                         05042300000000000000504230000000000000       0090339900006270028417042312000012
100000000000000000000009033990000627000000000000000000000000010002020084302004231100000000002            2  01843020042324042300000003686880000000001N050423000000000000000000000000000000000000000000000000000000000000000100084302097868FAUSTO TADEU VILOR                      RUA ANTONIO TAVARES - 466 - BAIRRO CAMBU            01542010                                                            000014
2SR. CAIXA, APOS O VENCIMENTO COBRAR 2% DE MULTA                                 NAO RECEBER APOS 30 DIAS DO VENCIMENTO.                                                                                                                                                                                                         05042300000000000000504230000000000000       0090339900006270843020042311000015
100000000000000000000009033990000627000000000000000000000000010002020028804204231100000000002            2  01288042042324042300000003622390000000001N050423000000000000000000000000000000000000000000000000000000000000000100028804202882GILBERTO FABIANO CABRAL DE CAMARGO      RUA CARLOS JOSE BORSTENS - 50 AP.44 - AV            11702750                                                            000017
2SR. CAIXA, APOS O VENCIMENTO COBRAR 2% DE MULTA                                 NAO RECEBER APOS 30 DIAS DO VENCIMENTO.                                                                                                                                                                                                         05042300000000000000504230000000000000       0090339900006270288042042311000018
100000000000000000000009033990000627000000000000000000000000010002020000991704231400000000002            2  01009917042324042300000003535600000000001N050423000000000000000000000000000000000000000000000000000000000000000100000991748808JAILSON BORGES DE ANDRADE               RUA IPIOBUNA - 45 - JARDIM CUMBICA - GUA            07240040                                                            000020
2SR. CAIXA, APOS O VENCIMENTO COBRAR 2% DE MULTA                                 NAO RECEBER APOS 30 DIAS DO VENCIMENTO.                                                                                                                                                                                                         05042300000000000000504230000000000000       0090339900006270009917042314000021
100000000000000000000009033990000627000000000000000000000000010002020022151604231000000000002            2  01221516042324042300000003515070000000001N050423000000000000000000000000000000000000000000000000000000000000000100022151666816SAMIR LIMA DE ARAUJO                    AVENIDA GUARAPIRANGA - 2616 AP.131 BL.14            04902005                                                            000023
2SR. CAIXA, APOS O VENCIMENTO COBRAR 2% DE MULTA                                 NAO RECEBER APOS 30 DIAS DO VENCIMENTO.                                                                                                                                                                                                         05042300000000000000504230000000000000       0090339900006270221516042310000024
100000000000000000000009033990000627000000000000000000000000010002020022313104231200000000002            2  01223131042326042300000002705100000000001N050423000000000000000000000000000000000000000000000000000000000000000100022313116824ROSA MARIA BRITO DA SILVA               RUA SERVIDAO DE SAO MARCOS - 128 CASA 1             04930300                                                            000026
2SR. CAIXA, APOS O VENCIMENTO COBRAR 2% DE MULTA                                 NAO RECEBER APOS 30 DIAS DO VENCIMENTO.                                                                                                                                                                                                         05042300000000000000504230000000000000       0090339900006270223131042312000027
100000000000000000000009033990000627000000000000000000000000010002020027538004231400000000002            2  01275380042326042300000002714520000000001N050423000000000000000000000000000000000000000000000000000000000000000100027538087249MARA LUCIA MENEZES DA COSTA             RUA LEILA  - 183 - ITAQUERA - SAO PAULO             08240020                                                            000029
2SR. CAIXA, APOS O VENCIMENTO COBRAR 2% DE MULTA                                 NAO RECEBER APOS 30 DIAS DO VENCIMENTO.                                                                                                                                                                                                         05042300000000000000504230000000000000       0090339900006270275380042314000030
100000000000000000000009033990000627000000000000000000000000010002020031278404231000000000002            2  01312784042324042300000003395650000000001N050423000000000000000000000000000000000000000000000000000000000000000100031278411836JEFFERSON DE PIERI PIRES ZAMUNER        RUA MANOEL ARCE - 277 - PARQUE BANCARIO             03922150                                                            000032
2SR. CAIXA, APOS O VENCIMENTO COBRAR 2% DE MULTA                                 NAO RECEBER APOS 30 DIAS DO VENCIMENTO.                                                                                                                                                                                                         05042300000000000000504230000000000000       0090339900006270312784042310000033
100000000000000000000009033990000627000000000000000000000000010002020019185704231200000000002            2  01191857042326042300000002470290000000001N050423000000000000000000000000000000000000000000000000000000000000000100019185769800AGUINALDO PESSOA DE LIMA                RUA JANUARIO ZINGARO - 252 AP.303 BL.04             05794300                                                            000035
2SR. CAIXA, APOS O VENCIMENTO COBRAR 2% DE MULTA                                 NAO RECEBER APOS 30 DIAS DO VENCIMENTO.                                                                                                                                                                                                         05042300000000000000504230000000000000       0090339900006270191857042312000036
100000000000000000000009033990000627000000000000000000000000010002020033303604231300000000002            2  01333036042326042300000002660700000000001N050423000000000000000000000000000000000000000000000000000000000000000100033303645809JESSICA DA SILVA FREITAS                RUA ARILDO VALADAO - 120 - JARDIM GUAEMB            04814600                                                            000038
2SR. CAIXA, APOS O VENCIMENTO COBRAR 2% DE MULTA                                 NAO RECEBER APOS 30 DIAS DO VENCIMENTO.                                                                                                                                                                                                         05042300000000000000504230000000000000       0090339900006270333036042313000039
100000000000000000000009033990000627000000000000000000000000010002020006422604231900000000002            2  01064226042324042300000003677590000000001N050423000000000000000000000000000000000000000000000000000000000000000100006422607881GERALDO ALVES DA SILVA                  RUA CARLOS JOSE BORSTENS - 50 AP.14 - AV            11702750                                                            000041
2SR. CAIXA, APOS O VENCIMENTO COBRAR 2% DE MULTA                                 NAO RECEBER APOS 30 DIAS DO VENCIMENTO.                                                                                                                                                                                                         05042300000000000000504230000000000000       0090339900006270064226042319000042
100000000000000000000009033990000627000000000000000000000000010002020033877104231000000000002            2  01338771042326042300000002494480000000001N050423000000000000000000000000000000000000000000000000000000000000000100033877129870HELDER FERREIRA VIANA                   RUA JOSE CALIXTO DO CARMO - 286 AP.35 -             11702690                                                            000044
2SR. CAIXA, APOS O VENCIMENTO COBRAR 2% DE MULTA                                 NAO RECEBER APOS 30 DIAS DO VENCIMENTO.                                                                                                                                                                                                         05042300000000000000504230000000000000       0090339900006270338771042310000045
100000000000000000000009033990000627000000000000000000000000010002020087573004231P00000000002            2  01875730042326042300000002510480000000001N050423000000000000000000000000000000000000000000000000000000000000000100087573059604VANDERLEY DE ASSIS                      RUA ROMEU ALBANI - 268 - JARDIM PARQUE R            13803810                                                            000047
2SR. CAIXA, APOS O VENCIMENTO COBRAR 2% DE MULTA                                 NAO RECEBER APOS 30 DIAS DO VENCIMENTO.                                                                                                                                                                                                         05042300000000000000504230000000000000       009033990000627087573004231P000048
100000000000000000000009033990000627000000000000000000000000010002020010825504231700000000002            2  01108255042326042300000002619820000000001N050423000000000000000000000000000000000000000000000000000000000000000100010825513847JOSE APARECIDO PEREIRA                  RUA GENERAL OSORIO - 305 - JARDIM TRINTA            11515130                                                            000050
2SR. CAIXA, APOS O VENCIMENTO COBRAR 2% DE MULTA                                 NAO RECEBER APOS 30 DIAS DO VENCIMENTO.                                                                                                                                                                                                         05042300000000000000504230000000000000       0090339900006270108255042317000051
100000000000000000000009033990000627000000000000000000000000010002020039115104231900000000002            2  01391151042326042300000003229390000000001N050423000000000000000000000000000000000000000000000000000000000000000100039115139840LAIS CRISTINA RIBEIRO ANDO              RUA JOSE CALIXTO DO CARMO - 286 AP.65 -             11702690                                                            000053
2SR. CAIXA, APOS O VENCIMENTO COBRAR 2% DE MULTA                                 NAO RECEBER APOS 30 DIAS DO VENCIMENTO.                                                                                                                                                                                                         05042300000000000000504230000000000000       0090339900006270391151042319000054
100000000000000000000009033990000627000000000000000000000000010002020029617504231700000000002            2  01296175042324042300000003609640000000001N050423000000000000000000000000000000000000000000000000000000000000000100029617510553MARILENE SOUZA DE OLIVEIRA              RUA DAS MONCOES - 460 AP.95 - BAIRRO JAR            09090521                                                            000056
2SR. CAIXA, APOS O VENCIMENTO COBRAR 2% DE MULTA                                 NAO RECEBER APOS 30 DIAS DO VENCIMENTO.                                                                                                                                                                                                         05042300000000000000504230000000000000       0090339900006270296175042317000057
100000000000000000000009033990000627000000000000000000000000010002020000593204231700000000002            2  01005932042324042300000003958910000000001N050423000000000000000000000000000000000000000000000000000000000000000100000593293860WALTER HELIO BARBOSA FILHO              AVENIDA ANTONIO FREDERICO OZANAN - 9500             13214206                                                            000059
2SR. CAIXA, APOS O VENCIMENTO COBRAR 2% DE MULTA                                 NAO RECEBER APOS 30 DIAS DO VENCIMENTO.                                                                                                                                                                                                         05042300000000000000504230000000000000       0090339900006270005932042317000060
100000000000000000000009033990000627000000000000000000000000010002020065584104231900000000002            2  01655841042324042300000002078220000000001N050423000000000000000000000000000000000000000000000000000000000000000100065584147834JOAQUIM DA COSTA MACHADO NETO           RUA CARLOS JOSE BORSTENS - 50 AP.42 - AV            11702750                                                            000062
2SR. CAIXA, APOS O VENCIMENTO COBRAR 2% DE MULTA                                 NAO RECEBER APOS 30 DIAS DO VENCIMENTO.                                                                                                                                                                                                         05042300000000000000504230000000000000       0090339900006270655841042319000063
100000000000000000000009033990000627000000000000000000000000010002020065584104232700000000002            2  01655841042324042300000002078210000000001N050423000000000000000000000000000000000000000000000000000000000000000100065584147834JOAQUIM DA COSTA MACHADO NETO           RUA CARLOS JOSE BORSTENS - 50 AP.42 - AV            11702750                                                            000065
2SR. CAIXA, APOS O VENCIMENTO COBRAR 2% DE MULTA                                 NAO RECEBER APOS 30 DIAS DO VENCIMENTO.                                                                                                                                                                                                         05042300000000000000504230000000000000       0090339900006270655841042327000066
100000000000000000000009033990000627000000000000000000000000010002020006684604231100000000002            2  01066846042326042300000002660400000000001N050423000000000000000000000000000000000000000000000000000000000000000100006684623884LAUDINOR VIEIRA GARCIA                  RUA CANDIDO SALES - 374 - JARDIM PRESIDE            07172000                                                            000068
2SR. CAIXA, APOS O VENCIMENTO COBRAR 2% DE MULTA                                 NAO RECEBER APOS 30 DIAS DO VENCIMENTO.                                                                                                                                                                                                         05042300000000000000504230000000000000       0090339900006270066846042311000069
100000000000000000000009033990000627000000000000000000000000010002020011663504231200000000002            2  01116635042326042300000002679530000000001N050423000000000000000000000000000000000000000000000000000000000000000100011663589844MARIA SAVIO QUARELLO                    AVENIDA MENDONCA DRUMOND - 321 - JARDIM             03524030                                                            000071
2SR. CAIXA, APOS O VENCIMENTO COBRAR 2% DE MULTA                                 NAO RECEBER APOS 30 DIAS DO VENCIMENTO.                                                                                                                                                                                                         05042300000000000000504230000000000000       0090339900006270116635042312000072
100000000000000000000009033990000627000000000000000000000000010002020010083804231400000000002            2  01100838042326042300000002588870000000001N050423000000000000000000000000000000000000000000000000000000000000000100010083824855IONE FERREIRA COUTO DA SILVA            RUA JOSE RAGEL DE MESQUITA - 60 CS.01 -             07799999                                                            000074
2SR. CAIXA, APOS O VENCIMENTO COBRAR 2% DE MULTA                                 NAO RECEBER APOS 30 DIAS DO VENCIMENTO.                                                                                                                                                                                                         05042300000000000000504230000000000000       0090339900006270100838042314000075
100000000000000000000009033990000627000000000000000000000000010002020031010704231P00000000002            2  01310107042326042300000002540510000000001N050423000000000000000000000000000000000000000000000000000000000000000100031010705890ANDRE GONZALEZ RABELLO                  RUA PARAIBA - 106 AP.61 - POMPEIA - SANT            11065470                                                            000077
2SR. CAIXA, APOS O VENCIMENTO COBRAR 2% DE MULTA                                 NAO RECEBER APOS 30 DIAS DO VENCIMENTO.                                                                                                                                                                                                         05042300000000000000504230000000000000       009033990000627031010704231P000078
100000000000000000000009033990000627000000000000000000000000010002020005351004231900000000002            2  01053510042326042300000002381980000000001N050423000000000000000000000000000000000000000000000000000000000000000100005351015897VALERIA ALVES MARCOLINO HINNIGER        RUA JOSE CALIXTO DO CARMO - 286 AP.92 -             11702690                                                            000080
2SR. CAIXA, APOS O VENCIMENTO COBRAR 2% DE MULTA                                 NAO RECEBER APOS 30 DIAS DO VENCIMENTO.                                                                                                                                                                                                         05042300000000000000504230000000000000       0090339900006270053510042319000081
100000000000000000000009033990000627000000000000000000000000010002020031898704231400000000002            2  01318987042324042300000003788040000000001N050423000000000000000000000000000000000000000000000000000000000000000100031898775800ANITA MARTINS COLOMBO                   RUA CARLOS JOSE BORSTENS - 50 AP.115 - A            11702750                                                            000083
2SR. CAIXA, APOS O VENCIMENTO COBRAR 2% DE MULTA                                 NAO RECEBER APOS 30 DIAS DO VENCIMENTO.                                                                                                                                                                                                         05042300000000000000504230000000000000       0090339900006270318987042314000084
100000000000000000000009033990000627000000000000000000000000010002020037983404231400000000002            2  01379834042326042300000002798090000000001N050423000000000000000000000000000000000000000000000000000000000000000100037983484801JOSE ERIVALDO SOUZA DO NASCIMENTO RAMOS RUA LETICIA - 250 - JARDIM GUARUJA - SAO            05877260                                                            000086
2SR. CAIXA, APOS O VENCIMENTO COBRAR 2% DE MULTA                                 NAO RECEBER APOS 30 DIAS DO VENCIMENTO.                                                                                                                                                                                                         05042300000000000000504230000000000000       0090339900006270379834042314000087
100000000000000000000009033990000627000000000000000000000000010002020056289204231500000000002            2  01562892042326042300000002113790000000001N050423000000000000000000000000000000000000000000000000000000000000000100056289286900PEDRO RIBEIRO                           RUA CONEGO MANOEL VAZ - 48 - SANTANA - S            02019050                                                            000089
2SR. CAIXA, APOS O VENCIMENTO COBRAR 2% DE MULTA                                 NAO RECEBER APOS 30 DIAS DO VENCIMENTO.                                                                                                                                                                                                         05042300000000000000504230000000000000       0090339900006270562892042315000090
100000000000000000000009033990000627000000000000000000000000010002020034812204231500000000002            2  01348122042324042300000005013650000000001N050423000000000000000000000000000000000000000000000000000000000000000100034812226880THAIS TORQUATO MIMOSO DE JESUS          RUA ARNALDO CINTRA - 416 AP.104 TORRE 2             03088000                                                            000092
2SR. CAIXA, APOS O VENCIMENTO COBRAR 2% DE MULTA                                 NAO RECEBER APOS 30 DIAS DO VENCIMENTO.                                                                                                                                                                                                         05042300000000000000504230000000000000       0090339900006270348122042315000093
100000000000000000000009033990000627000000000000000000000000010002020012849404231100000000002            2  01128494042326042300000004997770000000001N050423000000000000000000000000000000000000000000000000000000000000000100012849428809MOISES CLAUDIO DO ROSARIO               AVENIDA DR. AUGUSTO DE TOLEDO - 510 AP.1            09541520                                                            000095
2SR. CAIXA, APOS O VENCIMENTO COBRAR 2% DE MULTA                                 NAO RECEBER APOS 30 DIAS DO VENCIMENTO.                                                                                                                                                                                                         05042300000000000000504230000000000000       0090339900006270128494042311000096
100000000000000000000009033990000627000000000000000000000000010002020003658604231600000000002            2  01036586042326042300000002064680000000001N050423000000000000000000000000000000000000000000000000000000000000000100003658668814MARINEZ VALENTIN                        RUA JOSE CALIXTO DO CARMO - 286 AP.95 -             11702690                                                            000098
2SR. CAIXA, APOS O VENCIMENTO COBRAR 2% DE MULTA                                 NAO RECEBER APOS 30 DIAS DO VENCIMENTO.                                                                                                                                                                                                         05042300000000000000504230000000000000       0090339900006270036586042316000099
100000000000000000000009033990000627000000000000000000000000010002020003658604232400000000002            2  01036586042326042300000002064670000000001N050423000000000000000000000000000000000000000000000000000000000000000100003658668814MARINEZ VALENTIN                        RUA JOSE CALIXTO DO CARMO - 286 AP.95 -             11702690                                                            000101
2SR. CAIXA, APOS O VENCIMENTO COBRAR 2% DE MULTA                                 NAO RECEBER APOS 30 DIAS DO VENCIMENTO.                                                                                                                                                                                                         05042300000000000000504230000000000000       0090339900006270036586042324000102
100000000000000000000009033990000627000000000000000000000000010002020014087404231400000000002            2  01140874042326042300000002759270000000001N050423000000000000000000000000000000000000000000000000000000000000000100014087484874SERGIO SANTOS DO NASCIMENTO             RUA JOSE CALIXTO DO CARMO - 286 AP.52 -             11702690                                                            000104
2SR. CAIXA, APOS O VENCIMENTO COBRAR 2% DE MULTA                                 NAO RECEBER APOS 30 DIAS DO VENCIMENTO.                                                                                                                                                                                                         05042300000000000000504230000000000000       0090339900006270140874042314000105
100000000000000000000009033990000627000000000000000000000000010002020026834504231300000000002            2  01268345042326042300000002542340000000001N050423000000000000000000000000000000000000000000000000000000000000000100026834550895RAQUEL CARDOSO JOAO                     RUA PEDROSO XAVIER - 277 AP.23 TORRE 01             02732020                                                            000107
2SR. CAIXA, APOS O VENCIMENTO COBRAR 2% DE MULTA                                 NAO RECEBER APOS 30 DIAS DO VENCIMENTO.                                                                                                                                                                                                         05042300000000000000504230000000000000       0090339900006270268345042313000108
100000000000000000000009033990000627000000000000000000000000010002020039540004231100000000002            2  01395400042326042300000002499470000000001N050423000000000000000000000000000000000000000000000000000000000000000100039540008816LUZINETE CLARINDO SILVA                 RUA DEINOS - 275 - BAIRRO CIDADE SATELIT            08340100                                                            000110
2SR. CAIXA, APOS O VENCIMENTO COBRAR 2% DE MULTA                                 NAO RECEBER APOS 30 DIAS DO VENCIMENTO.                                                                                                                                                                                                         05042300000000000000504230000000000000       0090339900006270395400042311000111
100000000000000000000009033990000627000000000000000000000000010002020003311004231900000000002            2  01033110042326042300000002602900000000001N050423000000000000000000000000000000000000000000000000000000000000000100003311030877SEBASTIAO SARUVA NETO                   RUA HAMILTON REGIS - 559 - BAIRRO DO LIM            08051440                                                            000113
2SR. CAIXA, APOS O VENCIMENTO COBRAR 2% DE MULTA                                 NAO RECEBER APOS 30 DIAS DO VENCIMENTO.                                                                                                                                                                                                         05042300000000000000504230000000000000       0090339900006270033110042319000114
100000000000000000000009033990000627000000000000000000000000010002020090091904231500000000002            2  01900919042326042300000002487990000000001N050423000000000000000000000000000000000000000000000000000000000000000100090091990882JUECIR CARVALHO DA LUZ                  RUA JOSE CALIXTO DO CARMO - 286 AP.114 -            11702690                                                            000116
2SR. CAIXA, APOS O VENCIMENTO COBRAR 2% DE MULTA                                 NAO RECEBER APOS 30 DIAS DO VENCIMENTO.                                                                                                                                                                                                         05042300000000000000504230000000000000       0090339900006270900919042315000117
100000000000000000000009033990000627000000000000000000000000010002020037325904231700000000002            2  01373259042326042300000002036060000000001N050423000000000000000000000000000000000000000000000000000000000000000100037325923830MARIA AUGUSTA OLIVEIRA DE ANDRADE       RUA JOSE CALIXTO DO CARMO - 286 AP.124 -            11702690                                                            000119
2SR. CAIXA, APOS O VENCIMENTO COBRAR 2% DE MULTA                                 NAO RECEBER APOS 30 DIAS DO VENCIMENTO.                                                                                                                                                                                                         05042300000000000000504230000000000000       0090339900006270373259042317000120
100000000000000000000009033990000627000000000000000000000000010002020012478804231400000000002            2  01124788042324042300000003705180000000001N050423000000000000000000000000000000000000000000000000000000000000000100012478899809VITORIA BATISTA QUEIROZ                 RUA CARVALHO DE FREITAS - 255 AP.71A - V            05728030                                                            000122
2SR. CAIXA, APOS O VENCIMENTO COBRAR 2% DE MULTA                                 NAO RECEBER APOS 30 DIAS DO VENCIMENTO.                                                                                                                                                                                                         05042300000000000000504230000000000000       0090339900006270124788042314000123
100000000000000000000009033990000627000000000000000000000000010002020013184804231500000000002            2  01131848042326042300000002459700000000001N050423000000000000000000000000000000000000000000000000000000000000000100013184856810SYDNEY HENRIQUE GAMARANO JUNIOR         RUA JOSE CALIXTO DO CARMO - 286 AP.125 -            11702690                                                            000125
2SR. CAIXA, APOS O VENCIMENTO COBRAR 2% DE MULTA                                 NAO RECEBER APOS 30 DIAS DO VENCIMENTO.                                                                                                                                                                                                         05042300000000000000504230000000000000       0090339900006270131848042315000126
100000000000000000000009033990000627000000000000000000000000010002020097989904231900000000002            2  01979899042326042300000001709340000000001N050423000000000000000000000000000000000000000000000000000000000000000100097989924820NELSON LUIS BERRIBILLE                  RUA SILVEIRA IGNACIO SOBRINHO - 965 - VI            13560294                                                            000128
2SR. CAIXA, APOS O VENCIMENTO COBRAR 2% DE MULTA                                 NAO RECEBER APOS 30 DIAS DO VENCIMENTO.                                                                                                                                                                                                         05042300000000000000504230000000000000       0090339900006270979899042319000129
100000000000000000000009033990000627000000000000000000000000010002020097989904232700000000002            2  01979899042326042300000001709330000000001N050423000000000000000000000000000000000000000000000000000000000000000100097989924820NELSON LUIS BERRIBILLE                  RUA SILVEIRA IGNACIO SOBRINHO - 965 - VI            13560294                                                            000131
2SR. CAIXA, APOS O VENCIMENTO COBRAR 2% DE MULTA                                 NAO RECEBER APOS 30 DIAS DO VENCIMENTO.                                                                                                                                                                                                         05042300000000000000504230000000000000       0090339900006270979899042327000132
100000000000000000000009033990000627000000000000000000000000010002020032341804231800000000002            2  01323418042324042300000003848640000000001N050423000000000000000000000000000000000000000000000000000000000000000100032341847803PRISCILA ALVES DE FRANCA MIRANDA        RUA CARLOS JOSE BORSTENS - 50 AP.91 - AV            11702750                                                            000134
2SR. CAIXA, APOS O VENCIMENTO COBRAR 2% DE MULTA                                 NAO RECEBER APOS 30 DIAS DO VENCIMENTO.                                                                                                                                                                                                         05042300000000000000504230000000000000       0090339900006270323418042318000135
100000000000000000000009033990000627000000000000000000000000010002020016050604231300000000002            2  01160506042324042300000003572280000000001N050423000000000000000000000000000000000000000000000000000000000000000100016050684898ANDRE RODRIGUES DE OLIVEIRA             RUA CORACAO PAULISTA - 14 - FAZENDA ITAI            08132430                                                            000137
2SR. CAIXA, APOS O VENCIMENTO COBRAR 2% DE MULTA                                 NAO RECEBER APOS 30 DIAS DO VENCIMENTO.                                                                                                                                                                                                         05042300000000000000504230000000000000       0090339900006270160506042313000138
100000000000000000000009033990000627000000000000000000000000010002020021464904231700000000002            2  01214649042324042300000005629990000000001N050423000000000000000000000000000000000000000000000000000000000000000100021464965846ANDREA APARECIDA DE OLIVEIRA PECCI      RUA ANTONIO BOZ MARFIL - 103 - PARQUE DO            05396020                                                            000140
2SR. CAIXA, APOS O VENCIMENTO COBRAR 2% DE MULTA                                 NAO RECEBER APOS 30 DIAS DO VENCIMENTO.                                                                                                                                                                                                         05042300000000000000504230000000000000       0090339900006270214649042317000141
100000000000000000000009033990000627000000000000000000000000010002020030348104231900000000002            2  01303481042324042300000003411210000000001N050423000000000000000000000000000000000000000000000000000000000000000100030348198892KELLY CRISTINA CORDEIRO                 RUA CARLOS JOSE BORSTENS - 50 AP.25 - AV            11702750                                                            000143
2SR. CAIXA, APOS O VENCIMENTO COBRAR 2% DE MULTA                                 NAO RECEBER APOS 30 DIAS DO VENCIMENTO.                                                                                                                                                                                                         05042300000000000000504230000000000000       0090339900006270303481042319000144
100000000000000000000009033990000627000000000000000000000000010002020003597504231700000000002            2  01035975042326042300000002299020000000001N050423000000000000000000000000000000000000000000000000000000000000000100003597509827ANISIO FAUSTINO DE OLIVEIRA             RUA DOMINGOS DE MAMBRO - 5 CASA 20 - CIT            06040290                                                            000146
2SR. CAIXA, APOS O VENCIMENTO COBRAR 2% DE MULTA                                 NAO RECEBER APOS 30 DIAS DO VENCIMENTO.                                                                                                                                                                                                         05042300000000000000504230000000000000       0090339900006270035975042317000147
9                                                                                                                                                                                                                                                                                                                                                                                                         000148