01REMESSA01COBRANCA       00000000000008017025HB SANTOS CONSTRUTORA E INCORP237BRADESCO       050923        MX0000186                                                                                                                                                                                                                                                                                     000001
100000000000000000000009033990000627000000000000000000000000010002020025035109231800000000002            2  01250351092324092300000003112300000000001N050923000000000000000000000000000000000000000000000000000000000000000100025035170802WANDERSON LUIS DE CARVALHO              RUA JOAQUIM GONCALVES ROCHA - 302 - JARD            02859030                                                            000002
2SR. CAIXA, APOS O VENCIMENTO COBRAR 2% DE MULTA                                 NAO RECEBER APOS 30 DIAS DO VENCIMENTO.                                                                                                                                                                                                         05092300000000000000509230000000000000       0090339900006270250351092318000003
100000000000000000000009033990000627000000000000000000000000010002020007294309231500000000002            2  01072943092324092300000004186040000000001N050923000000000000000000000000000000000000000000000000000000000000000100007294351805CLAUDENIR APARECIDO VACARI              RUA CARLOS JOSE BORSTENS - 50 AP.93 - AV            11702750                                                            000005
2SR. CAIXA, APOS O VENCIMENTO COBRAR 2% DE MULTA                                 NAO RECEBER APOS 30 DIAS DO VENCIMENTO.                                                                                                                                                                                                         05092300000000000000509230000000000000       0090339900006270072943092315000006
100000000000000000000009033990000627000000000000000000000000010002020005071409231600000000002            2  01050714092324092300000004107260000000001N050923000000000000000000000000000000000000000000000000000000000000000100005071481855ERIBALDO SANTANA CARVALHO               RUA HONDURAS - 477 - PARQUE DAS AMERICAS            09351070                                                            000008
2SR. CAIXA, APOS O VENCIMENTO COBRAR 2% DE MULTA                                 NAO RECEBER APOS 30 DIAS DO VENCIMENTO.                                                                                                                                                                                                         05092300000000000000509230000000000000       0090339900006270050714092316000009
100000000000000000000009033990000627000000000000000000000000010002020005071409232400000000002            2  01050714092324092300000004107160000000001N050923000000000000000000000000000000000000000000000000000000000000000100005071481855ERIBALDO SANTANA CARVALHO               RUA HONDURAS - 477 - PARQUE DAS AMERICAS            09351070                                                            000011
2SR. CAIXA, APOS O VENCIMENTO COBRAR 2% DE MULTA                                 NAO RECEBER APOS 30 DIAS DO VENCIMENTO.                                                                                                                                                                                                         05092300000000000000509230000000000000       0090339900006270050714092324000012
100000000000000000000009033990000627000000000000000000000000010002020005071409233200000000002            2  01050714092324092300000004107170000000001N050923000000000000000000000000000000000000000000000000000000000000000100005071481855ERIBALDO SANTANA CARVALHO               RUA HONDURAS - 477 - PARQUE DAS AMERICAS            09351070                                                            000014
2SR. CAIXA, APOS O VENCIMENTO COBRAR 2% DE MULTA                                 NAO RECEBER APOS 30 DIAS DO VENCIMENTO.                                                                                                                                                                                                         05092300000000000000509230000000000000       0090339900006270050714092332000015
100000000000000000000009033990000627000000000000000000000000010002020005071409234000000000002            2  01050714092324092300000004107180000000001N050923000000000000000000000000000000000000000000000000000000000000000100005071481855ERIBALDO SANTANA CARVALHO               RUA HONDURAS - 477 - PARQUE DAS AMERICAS            09351070                                                            000017
2SR. CAIXA, APOS O VENCIMENTO COBRAR 2% DE MULTA                                 NAO RECEBER APOS 30 DIAS DO VENCIMENTO.                                                                                                                                                                                                         05092300000000000000509230000000000000       0090339900006270050714092340000018
100000000000000000000009033990000627000000000000000000000000010002020005071409235900000000002            2  01050714092324092300000004107190000000001N050923000000000000000000000000000000000000000000000000000000000000000100005071481855ERIBALDO SANTANA CARVALHO               RUA HONDURAS - 477 - PARQUE DAS AMERICAS            09351070                                                            000020
2SR. CAIXA, APOS O VENCIMENTO COBRAR 2% DE MULTA                                 NAO RECEBER APOS 30 DIAS DO VENCIMENTO.                                                                                                                                                                                                         05092300000000000000509230000000000000       0090339900006270050714092359000021
100000000000000000000009033990000627000000000000000000000000010002020005071409236700000000002            2  01050714092324092300000004107200000000001N050923000000000000000000000000000000000000000000000000000000000000000100005071481855ERIBALDO SANTANA CARVALHO               RUA HONDURAS - 477 - PARQUE DAS AMERICAS            09351070                                                            000023
2SR. CAIXA, APOS O VENCIMENTO COBRAR 2% DE MULTA                                 NAO RECEBER APOS 30 DIAS DO VENCIMENTO.                                                                                                                                                                                                         05092300000000000000509230000000000000       0090339900006270050714092367000024
100000000000000000000009033990000627000000000000000000000000010002020005071409237500000000002            2  01050714092324092300000004107210000000001N050923000000000000000000000000000000000000000000000000000000000000000100005071481855ERIBALDO SANTANA CARVALHO               RUA HONDURAS - 477 - PARQUE DAS AMERICAS            09351070                                                            000026
2SR. CAIXA, APOS O VENCIMENTO COBRAR 2% DE MULTA                                 NAO RECEBER APOS 30 DIAS DO VENCIMENTO.                                                                                                                                                                                                         05092300000000000000509230000000000000       0090339900006270050714092375000027
100000000000000000000009033990000627000000000000000000000000010002020005071409238300000000002            2  01050714092324092300000004107220000000001N050923000000000000000000000000000000000000000000000000000000000000000100005071481855ERIBALDO SANTANA CARVALHO               RUA HONDURAS - 477 - PARQUE DAS AMERICAS            09351070                                                            000029
2SR. CAIXA, APOS O VENCIMENTO COBRAR 2% DE MULTA                                 NAO RECEBER APOS 30 DIAS DO VENCIMENTO.                                                                                                                                                                                                         05092300000000000000509230000000000000       0090339900006270050714092383000030
100000000000000000000009033990000627000000000000000000000000010002020005071409239100000000002            2  01050714092324092300000004107230000000001N050923000000000000000000000000000000000000000000000000000000000000000100005071481855ERIBALDO SANTANA CARVALHO               RUA HONDURAS - 477 - PARQUE DAS AMERICAS            09351070                                                            000032
2SR. CAIXA, APOS O VENCIMENTO COBRAR 2% DE MULTA                                 NAO RECEBER APOS 30 DIAS DO VENCIMENTO.                                                                                                                                                                                                         05092300000000000000509230000000000000       0090339900006270050714092391000033
100000000000000000000009033990000627000000000000000000000000010002020005071409231P00000000002            2  01050714092324092300000004107240000000001N050923000000000000000000000000000000000000000000000000000000000000000100005071481855ERIBALDO SANTANA CARVALHO               RUA HONDURAS - 477 - PARQUE DAS AMERICAS            09351070                                                            000035
2SR. CAIXA, APOS O VENCIMENTO COBRAR 2% DE MULTA                                 NAO RECEBER APOS 30 DIAS DO VENCIMENTO.                                                                                                                                                                                                         05092300000000000000509230000000000000       009033990000627005071409231P000036
100000000000000000000009033990000627000000000000000000000000010002020005071409231P00000000002            2  01050714092324092300000004107250000000001N050923000000000000000000000000000000000000000000000000000000000000000100005071481855ERIBALDO SANTANA CARVALHO               RUA HONDURAS - 477 - PARQUE DAS AMERICAS            09351070                                                            000038
2SR. CAIXA, APOS O VENCIMENTO COBRAR 2% DE MULTA                                 NAO RECEBER APOS 30 DIAS DO VENCIMENTO.                                                                                                                                                                                                         05092300000000000000509230000000000000       009033990000627005071409231P000039
100000000000000000000009033990000627000000000000000000000000010002020002841709231P00000000002            2  01028417092324092300000003842710000000001N050923000000000000000000000000000000000000000000000000000000000000000100002841756416LUCIANA PINHEIRO DE ASSIS NUNES         RUA RIO ACIMA - 81 - RIACHO GRANDE - SAO            09830100                                                            000041
2SR. CAIXA, APOS O VENCIMENTO COBRAR 2% DE MULTA                                 NAO RECEBER APOS 30 DIAS DO VENCIMENTO.                                                                                                                                                                                                         05092300000000000000509230000000000000       009033990000627002841709231P000042
100000000000000000000009033990000627000000000000000000000000010002020084302009231900000000002            2  01843020092324092300000003861150000000001N050923000000000000000000000000000000000000000000000000000000000000000100084302097868FAUSTO TADEU VILOR                      RUA ANTONIO TAVARES - 466 - BAIRRO CAMBU            01542010                                                            000044
2SR. CAIXA, APOS O VENCIMENTO COBRAR 2% DE MULTA                                 NAO RECEBER APOS 30 DIAS DO VENCIMENTO.                                                                                                                                                                                                         05092300000000000000509230000000000000       0090339900006270843020092319000045
100000000000000000000009033990000627000000000000000000000000010002020000991709231100000000002            2  01009917092324092300000003702730000000001N050923000000000000000000000000000000000000000000000000000000000000000100000991748808JAILSON BORGES DE ANDRADE               RUA IPIOBUNA - 45 - JARDIM CUMBICA - GUA            07240040                                                            000047
2SR. CAIXA, APOS O VENCIMENTO COBRAR 2% DE MULTA                                 NAO RECEBER APOS 30 DIAS DO VENCIMENTO.                                                                                                                                                                                                         05092300000000000000509230000000000000       0090339900006270009917092311000048
100000000000000000000009033990000627000000000000000000000000010002020022151609231800000000002            2  01221516092324092300000003681230000000001N050923000000000000000000000000000000000000000000000000000000000000000100022151666816SAMIR LIMA DE ARAUJO                    AVENIDA GUARAPIRANGA - 2616 AP.131 BL.14            04902005                                                            000050
2SR. CAIXA, APOS O VENCIMENTO COBRAR 2% DE MULTA                                 NAO RECEBER APOS 30 DIAS DO VENCIMENTO.                                                                                                                                                                                                         05092300000000000000509230000000000000       0090339900006270221516092318000051
100000000000000000000009033990000627000000000000000000000000010002020022313109231P00000000002            2  01223131092326092300000002832010000000001N050923000000000000000000000000000000000000000000000000000000000000000100022313116824ROSA MARIA BRITO DA SILVA               RUA SERVIDAO DE SAO MARCOS - 128 CASA 1             04930300                                                            000053
2SR. CAIXA, APOS O VENCIMENTO COBRAR 2% DE MULTA                                 NAO RECEBER APOS 30 DIAS DO VENCIMENTO.                                                                                                                                                                                                         05092300000000000000509230000000000000       009033990000627022313109231P000054
100000000000000000000009033990000627000000000000000000000000010002020027538009231100000000002            2  01275380092326092300000002841860000000001N050923000000000000000000000000000000000000000000000000000000000000000100027538087249MARA LUCIA MENEZES DA COSTA             RUA LEILA  - 183 - ITAQUERA - SAO PAULO             08240020                                                            000056
2SR. CAIXA, APOS O VENCIMENTO COBRAR 2% DE MULTA                                 NAO RECEBER APOS 30 DIAS DO VENCIMENTO.                                                                                                                                                                                                         05092300000000000000509230000000000000       0090339900006270275380092311000057
100000000000000000000009033990000627000000000000000000000000010002020031278409231800000000002            2  01312784092324092300000003556170000000001N050923000000000000000000000000000000000000000000000000000000000000000100031278411836JEFFERSON DE PIERI PIRES ZAMUNER        RUA MANOEL ARCE - 277 - PARQUE BANCARIO             03922150                                                            000059
2SR. CAIXA, APOS O VENCIMENTO COBRAR 2% DE MULTA                                 NAO RECEBER APOS 30 DIAS DO VENCIMENTO.                                                                                                                                                                                                         05092300000000000000509230000000000000       0090339900006270312784092318000060
100000000000000000000009033990000627000000000000000000000000010002020019185709231P00000000002            2  01191857092326092300000002586190000000001N050923000000000000000000000000000000000000000000000000000000000000000100019185769800AGUINALDO PESSOA DE LIMA                RUA JANUARIO ZINGARO - 252 AP.303 BL.04             05794300                                                            000062
2SR. CAIXA, APOS O VENCIMENTO COBRAR 2% DE MULTA                                 NAO RECEBER APOS 30 DIAS DO VENCIMENTO.                                                                                                                                                                                                         05092300000000000000509230000000000000       009033990000627019185709231P000063
100000000000000000000009033990000627000000000000000000000000010002020033303609231000000000002            2  01333036092326092300000002785520000000001N050923000000000000000000000000000000000000000000000000000000000000000100033303645809JESSICA DA SILVA FREITAS                RUA ARILDO VALADAO - 120 - JARDIM GUAEMB            04814600                                                            000065
2SR. CAIXA, APOS O VENCIMENTO COBRAR 2% DE MULTA                                 NAO RECEBER APOS 30 DIAS DO VENCIMENTO.                                                                                                                                                                                                         05092300000000000000509230000000000000       0090339900006270333036092310000066
100000000000000000000009033990000627000000000000000000000000010002020006422609231600000000002            2  01064226092324092300000003851430000000001N050923000000000000000000000000000000000000000000000000000000000000000100006422607881GERALDO ALVES DA SILVA                  RUA CARLOS JOSE BORSTENS - 50 AP.14 - AV            11702750                                                            000068
2SR. CAIXA, APOS O VENCIMENTO COBRAR 2% DE MULTA                                 NAO RECEBER APOS 30 DIAS DO VENCIMENTO.                                                                                                                                                                                                         05092300000000000000509230000000000000       0090339900006270064226092316000069
100000000000000000000009033990000627000000000000000000000000010002020033877109231800000000002            2  01338771092326092300000002611510000000001N050923000000000000000000000000000000000000000000000000000000000000000100033877129870HELDER FERREIRA VIANA                   RUA JOSE CALIXTO DO CARMO - 286 AP.35 -             11702690                                                            000071
2SR. CAIXA, APOS O VENCIMENTO COBRAR 2% DE MULTA                                 NAO RECEBER APOS 30 DIAS DO VENCIMENTO.                                                                                                                                                                                                         05092300000000000000509230000000000000       0090339900006270338771092318000072
100000000000000000000009033990000627000000000000000000000000010002020087573009231700000000002            2  01875730092326092300000002628260000000001N050923000000000000000000000000000000000000000000000000000000000000000100087573059604VANDERLEY DE ASSIS                      RUA ROMEU ALBANI - 268 - JARDIM PARQUE R            13803810                                                            000074
2SR. CAIXA, APOS O VENCIMENTO COBRAR 2% DE MULTA                                 NAO RECEBER APOS 30 DIAS DO VENCIMENTO.                                                                                                                                                                                                         05092300000000000000509230000000000000       0090339900006270875730092317000075
100000000000000000000009033990000627000000000000000000000000010002020010825509231400000000002            2  01108255092326092300000002742720000000001N050923000000000000000000000000000000000000000000000000000000000000000100010825513847JOSE APARECIDO PEREIRA                  RUA GENERAL OSORIO - 305 - JARDIM TRINTA            11515130                                                            000077
2SR. CAIXA, APOS O VENCIMENTO COBRAR 2% DE MULTA                                 NAO RECEBER APOS 30 DIAS DO VENCIMENTO.                                                                                                                                                                                                         05092300000000000000509230000000000000       0090339900006270108255092314000078
100000000000000000000009033990000627000000000000000000000000010002020039115109231600000000002            2  01391151092326092300000003380900000000001N050923000000000000000000000000000000000000000000000000000000000000000100039115139840LAIS CRISTINA RIBEIRO ANDO              RUA JOSE CALIXTO DO CARMO - 286 AP.65 -             11702690                                                            000080
2SR. CAIXA, APOS O VENCIMENTO COBRAR 2% DE MULTA                                 NAO RECEBER APOS 30 DIAS DO VENCIMENTO.                                                                                                                                                                                                         05092300000000000000509230000000000000       0090339900006270391151092316000081
100000000000000000000009033990000627000000000000000000000000010002020000593209231400000000002            2  01005932092324092300000004146050000000001N050923000000000000000000000000000000000000000000000000000000000000000100000593293860WALTER HELIO BARBOSA FILHO              AVENIDA ANTONIO FREDERICO OZANAN - 9500             13214206                                                            000083
2SR. CAIXA, APOS O VENCIMENTO COBRAR 2% DE MULTA                                 NAO RECEBER APOS 30 DIAS DO VENCIMENTO.                                                                                                                                                                                                         05092300000000000000509230000000000000       0090339900006270005932092314000084
100000000000000000000009033990000627000000000000000000000000010002020065584109231600000000002            2  01655841092324092300000002176450000000001N050923000000000000000000000000000000000000000000000000000000000000000100065584147834JOAQUIM DA COSTA MACHADO NETO           RUA CARLOS JOSE BORSTENS - 50 AP.42 - AV            11702750                                                            000086
2SR. CAIXA, APOS O VENCIMENTO COBRAR 2% DE MULTA                                 NAO RECEBER APOS 30 DIAS DO VENCIMENTO.                                                                                                                                                                                                         05092300000000000000509230000000000000       0090339900006270655841092316000087
100000000000000000000009033990000627000000000000000000000000010002020065584109232400000000002            2  01655841092324092300000002176440000000001N050923000000000000000000000000000000000000000000000000000000000000000100065584147834JOAQUIM DA COSTA MACHADO NETO           RUA CARLOS JOSE BORSTENS - 50 AP.42 - AV            11702750                                                            000089
2SR. CAIXA, APOS O VENCIMENTO COBRAR 2% DE MULTA                                 NAO RECEBER APOS 30 DIAS DO VENCIMENTO.                                                                                                                                                                                                         05092300000000000000509230000000000000       0090339900006270655841092324000090
100000000000000000000009033990000627000000000000000000000000010002020006684609231900000000002            2  01066846092326092300000002785220000000001N050923000000000000000000000000000000000000000000000000000000000000000100006684623884LAUDINOR VIEIRA GARCIA                  RUA CANDIDO SALES - 374 - JARDIM PRESIDE            07172000                                                            000092
2SR. CAIXA, APOS O VENCIMENTO COBRAR 2% DE MULTA                                 NAO RECEBER APOS 30 DIAS DO VENCIMENTO.                                                                                                                                                                                                         05092300000000000000509230000000000000       0090339900006270066846092319000093
100000000000000000000009033990000627000000000000000000000000010002020011663509231P00000000002            2  01116635092326092300000002805240000000001N050923000000000000000000000000000000000000000000000000000000000000000100011663589844MARIA SAVIO QUARELLO                    AVENIDA MENDONCA DRUMOND - 321 - JARDIM             03524030                                                            000095
2SR. CAIXA, APOS O VENCIMENTO COBRAR 2% DE MULTA                                 NAO RECEBER APOS 30 DIAS DO VENCIMENTO.                                                                                                                                                                                                         05092300000000000000509230000000000000       009033990000627011663509231P000096
100000000000000000000009033990000627000000000000000000000000010002020010083809231100000000002            2  01100838092326092300000002710330000000001N050923000000000000000000000000000000000000000000000000000000000000000100010083824855IONE FERREIRA COUTO DA SILVA            RUA JOSE RAGEL DE MESQUITA - 60 CS.01 -             07799999                                                            000098
2SR. CAIXA, APOS O VENCIMENTO COBRAR 2% DE MULTA                                 NAO RECEBER APOS 30 DIAS DO VENCIMENTO.                                                                                                                                                                                                         05092300000000000000509230000000000000       0090339900006270100838092311000099
100000000000000000000009033990000627000000000000000000000000010002020031010709231700000000002            2  01310107092326092300000002659700000000001N050923000000000000000000000000000000000000000000000000000000000000000100031010705890ANDRE GONZALEZ RABELLO                  RUA PARAIBA - 106 AP.61 - POMPEIA - SANT            11065470                                                            000101
2SR. CAIXA, APOS O VENCIMENTO COBRAR 2% DE MULTA                                 NAO RECEBER APOS 30 DIAS DO VENCIMENTO.                                                                                                                                                                                                         05092300000000000000509230000000000000       0090339900006270310107092317000102
100000000000000000000009033990000627000000000000000000000000010002020005351009231600000000002            2  01053510092326092300000002493730000000001N050923000000000000000000000000000000000000000000000000000000000000000100005351015897VALERIA ALVES MARCOLINO HINNIGER        RUA JOSE CALIXTO DO CARMO - 286 AP.92 -             11702690                                                            000104
2SR. CAIXA, APOS O VENCIMENTO COBRAR 2% DE MULTA                                 NAO RECEBER APOS 30 DIAS DO VENCIMENTO.                                                                                                                                                                                                         05092300000000000000509230000000000000       0090339900006270053510092316000105
100000000000000000000009033990000627000000000000000000000000010002020031898709231100000000002            2  01318987092324092300000003967100000000001N050923000000000000000000000000000000000000000000000000000000000000000100031898775800ANITA MARTINS COLOMBO                   RUA CARLOS JOSE BORSTENS - 50 AP.115 - A            11702750                                                            000107
2SR. CAIXA, APOS O VENCIMENTO COBRAR 2% DE MULTA                                 NAO RECEBER APOS 30 DIAS DO VENCIMENTO.                                                                                                                                                                                                         05092300000000000000509230000000000000       0090339900006270318987092311000108
100000000000000000000009033990000627000000000000000000000000010002020037983409231100000000002            2  01379834092326092300000002929350000000001N050923000000000000000000000000000000000000000000000000000000000000000100037983484801JOSE ERIVALDO SOUZA DO NASCIMENTO RAMOS RUA LETICIA - 250 - JARDIM GUARUJA - SAO            05877260                                                            000110
2SR. CAIXA, APOS O VENCIMENTO COBRAR 2% DE MULTA                                 NAO RECEBER APOS 30 DIAS DO VENCIMENTO.                                                                                                                                                                                                         05092300000000000000509230000000000000       0090339900006270379834092311000111
100000000000000000000009033990000627000000000000000000000000010002020056289209231200000000002            2  01562892092326092300000002212950000000001N050923000000000000000000000000000000000000000000000000000000000000000100056289286900PEDRO RIBEIRO                           RUA CONEGO MANOEL VAZ - 48 - SANTANA - S            02019050                                                            000113
2SR. CAIXA, APOS O VENCIMENTO COBRAR 2% DE MULTA                                 NAO RECEBER APOS 30 DIAS DO VENCIMENTO.                                                                                                                                                                                                         05092300000000000000509230000000000000       0090339900006270562892092312000114
100000000000000000000009033990000627000000000000000000000000010002020034812209231200000000002            2  01348122092324092300000005250640000000001N050923000000000000000000000000000000000000000000000000000000000000000100034812226880THAIS TORQUATO MIMOSO DE JESUS          RUA ARNALDO CINTRA - 416 AP.104 TORRE 2             03088000                                                            000116
2SR. CAIXA, APOS O VENCIMENTO COBRAR 2% DE MULTA                                 NAO RECEBER APOS 30 DIAS DO VENCIMENTO.                                                                                                                                                                                                         05092300000000000000509230000000000000       0090339900006270348122092312000117
100000000000000000000009033990000627000000000000000000000000010002020012849409231900000000002            2  01128494092326092300000005232240000000001N050923000000000000000000000000000000000000000000000000000000000000000100012849428809MOISES CLAUDIO DO ROSARIO               AVENIDA DR. AUGUSTO DE TOLEDO - 510 AP.1            09541520                                                            000119
2SR. CAIXA, APOS O VENCIMENTO COBRAR 2% DE MULTA                                 NAO RECEBER APOS 30 DIAS DO VENCIMENTO.                                                                                                                                                                                                         05092300000000000000509230000000000000       0090339900006270128494092319000120
100000000000000000000009033990000627000000000000000000000000010002020014087409231100000000002            2  01140874092326092300000002888710000000001N050923000000000000000000000000000000000000000000000000000000000000000100014087484874SERGIO SANTOS DO NASCIMENTO             RUA JOSE CALIXTO DO CARMO - 286 AP.52 -             11702690                                                            000122
2SR. CAIXA, APOS O VENCIMENTO COBRAR 2% DE MULTA                                 NAO RECEBER APOS 30 DIAS DO VENCIMENTO.                                                                                                                                                                                                         05092300000000000000509230000000000000       0090339900006270140874092311000123
100000000000000000000009033990000627000000000000000000000000010002020026834509231000000000002            2  01268345092326092300000002661600000000001N050923000000000000000000000000000000000000000000000000000000000000000100026834550895RAQUEL CARDOSO JOAO                     RUA PEDROSO XAVIER - 277 AP.23 TORRE 01             02732020                                                            000125
2SR. CAIXA, APOS O VENCIMENTO COBRAR 2% DE MULTA                                 NAO RECEBER APOS 30 DIAS DO VENCIMENTO.                                                                                                                                                                                                         05092300000000000000509230000000000000       0090339900006270268345092310000126
100000000000000000000009033990000627000000000000000000000000010002020039540009231900000000002            2  01395400092326092300000002616730000000001N050923000000000000000000000000000000000000000000000000000000000000000100039540008816LUZINETE CLARINDO SILVA                 RUA DEINOS - 275 - BAIRRO CIDADE SATELIT            08340100                                                            000128
2SR. CAIXA, APOS O VENCIMENTO COBRAR 2% DE MULTA                                 NAO RECEBER APOS 30 DIAS DO VENCIMENTO.                                                                                                                                                                                                         05092300000000000000509230000000000000       0090339900006270395400092319000129
100000000000000000000009033990000627000000000000000000000000010002020003311009231600000000002            2  01033110092326092300000002725030000000001N050923000000000000000000000000000000000000000000000000000000000000000100003311030877SEBASTIAO SARUVA NETO                   RUA HAMILTON REGIS - 559 - BAIRRO DO LIM            08051440                                                            000131
2SR. CAIXA, APOS O VENCIMENTO COBRAR 2% DE MULTA                                 NAO RECEBER APOS 30 DIAS DO VENCIMENTO.                                                                                                                                                                                                         05092300000000000000509230000000000000       0090339900006270033110092316000132
100000000000000000000009033990000627000000000000000000000000010002020090091909231200000000002            2  01900919092326092300000002604710000000001N050923000000000000000000000000000000000000000000000000000000000000000100090091990882JUECIR CARVALHO DA LUZ                  RUA JOSE CALIXTO DO CARMO - 286 AP.114 -            11702690                                                            000134
2SR. CAIXA, APOS O VENCIMENTO COBRAR 2% DE MULTA                                 NAO RECEBER APOS 30 DIAS DO VENCIMENTO.                                                                                                                                                                                                         05092300000000000000509230000000000000       0090339900006270900919092312000135
100000000000000000000009033990000627000000000000000000000000010002020037325909231400000000002            2  01373259092326092300000002131580000000001N050923000000000000000000000000000000000000000000000000000000000000000100037325923830MARIA AUGUSTA OLIVEIRA DE ANDRADE       RUA JOSE CALIXTO DO CARMO - 286 AP.124 -            11702690                                                            000137
2SR. CAIXA, APOS O VENCIMENTO COBRAR 2% DE MULTA                                 NAO RECEBER APOS 30 DIAS DO VENCIMENTO.                                                                                                                                                                                                         05092300000000000000509230000000000000       0090339900006270373259092314000138
100000000000000000000009033990000627000000000000000000000000010002020012478809231100000000002            2  01124788092324092300000003880310000000001N050923000000000000000000000000000000000000000000000000000000000000000100012478899809VITORIA BATISTA QUEIROZ                 RUA CARVALHO DE FREITAS - 255 AP.71A - V            05728030                                                            000140
2SR. CAIXA, APOS O VENCIMENTO COBRAR 2% DE MULTA                                 NAO RECEBER APOS 30 DIAS DO VENCIMENTO.                                                                                                                                                                                                         05092300000000000000509230000000000000       0090339900006270124788092311000141
100000000000000000000009033990000627000000000000000000000000010002020013184809231200000000002            2  01131848092326092300000002575090000000001N050923000000000000000000000000000000000000000000000000000000000000000100013184856810SYDNEY HENRIQUE GAMARANO JUNIOR         RUA JOSE CALIXTO DO CARMO - 286 AP.125 -            11702690                                                            000143
2SR. CAIXA, APOS O VENCIMENTO COBRAR 2% DE MULTA                                 NAO RECEBER APOS 30 DIAS DO VENCIMENTO.                                                                                                                                                                                                         05092300000000000000509230000000000000       0090339900006270131848092312000144
100000000000000000000009033990000627000000000000000000000000010002020097989909231600000000002            2  01979899092326092300000001789520000000001N050923000000000000000000000000000000000000000000000000000000000000000100097989924820NELSON LUIS BERRIBILLE                  RUA SILVEIRA IGNACIO SOBRINHO - 965 - VI            13560294                                                            000146
2SR. CAIXA, APOS O VENCIMENTO COBRAR 2% DE MULTA                                 NAO RECEBER APOS 30 DIAS DO VENCIMENTO.                                                                                                                                                                                                         05092300000000000000509230000000000000       0090339900006270979899092316000147
100000000000000000000009033990000627000000000000000000000000010002020097989909232400000000002            2  01979899092326092300000001789510000000001N050923000000000000000000000000000000000000000000000000000000000000000100097989924820NELSON LUIS BERRIBILLE                  RUA SILVEIRA IGNACIO SOBRINHO - 965 - VI            13560294                                                            000149
2SR. CAIXA, APOS O VENCIMENTO COBRAR 2% DE MULTA                                 NAO RECEBER APOS 30 DIAS DO VENCIMENTO.                                                                                                                                                                                                         05092300000000000000509230000000000000       0090339900006270979899092324000150
100000000000000000000009033990000627000000000000000000000000010002020032341809231500000000002            2  01323418092324092300000004030560000000001N050923000000000000000000000000000000000000000000000000000000000000000100032341847803PRISCILA ALVES DE FRANCA MIRANDA        RUA CARLOS JOSE BORSTENS - 50 AP.91 - AV            11702750                                                            000152
2SR. CAIXA, APOS O VENCIMENTO COBRAR 2% DE MULTA                                 NAO RECEBER APOS 30 DIAS DO VENCIMENTO.                                                                                                                                                                                                         05092300000000000000509230000000000000       0090339900006270323418092315000153
100000000000000000000009033990000627000000000000000000000000010002020016050609231000000000002            2  01160506092324092300000003741140000000001N050923000000000000000000000000000000000000000000000000000000000000000100016050684898ANDRE RODRIGUES DE OLIVEIRA             RUA CORACAO PAULISTA - 14 - FAZENDA ITAI            08132430                                                            000155
2SR. CAIXA, APOS O VENCIMENTO COBRAR 2% DE MULTA                                 NAO RECEBER APOS 30 DIAS DO VENCIMENTO.                                                                                                                                                                                                         05092300000000000000509230000000000000       0090339900006270160506092310000156
100000000000000000000009033990000627000000000000000000000000010002020021464909231400000000002            2  01214649092324092300000005896110000000001N050923000000000000000000000000000000000000000000000000000000000000000100021464965846ANDREA APARECIDA DE OLIVEIRA PECCI      RUA ANTONIO BOZ MARFIL - 103 - PARQUE DO            05396020                                                            000158
2SR. CAIXA, APOS O VENCIMENTO COBRAR 2% DE MULTA                                 NAO RECEBER APOS 30 DIAS DO VENCIMENTO.                                                                                                                                                                                                         05092300000000000000509230000000000000       0090339900006270214649092314000159
100000000000000000000009033990000627000000000000000000000000010002020030348109231600000000002            2  01303481092324092300000003572460000000001N050923000000000000000000000000000000000000000000000000000000000000000100030348198892KELLY CRISTINA CORDEIRO                 RUA CARLOS JOSE BORSTENS - 50 AP.25 - AV            11702750                                                            000161
2SR. CAIXA, APOS O VENCIMENTO COBRAR 2% DE MULTA                                 NAO RECEBER APOS 30 DIAS DO VENCIMENTO.                                                                                                                                                                                                         05092300000000000000509230000000000000       0090339900006270303481092316000162
100000000000000000000009033990000627000000000000000000000000010002020003597509231400000000002            2  01035975092326092300000002406880000000001N050923000000000000000000000000000000000000000000000000000000000000000100003597509827ANISIO FAUSTINO DE OLIVEIRA             RUA DOMINGOS DE MAMBRO - 5 CASA 20 - CIT            06040290                                                            000164
2SR. CAIXA, APOS O VENCIMENTO COBRAR 2% DE MULTA                                 NAO RECEBER APOS 30 DIAS DO VENCIMENTO.                                                                                                                                                                                                         05092300000000000000509230000000000000       0090339900006270035975092314000165
9                                                                                                                                                                                                                                                                                                                                                                                                         000166