01REMESSA01COBRANCA       00000000000008017025HB SANTOS CONSTRUTORA E INCORP237BRADESCO       010421        MX0000126                                                                                                                                                                                                                                                                                     000001
100000000000000000000009033990000627000000000000000000000000010002020025035104211600000000002            2  01250351042124042100000002428340000000001N010421000000000000000000000000000000000000000000000000000000000000000100025035170802WANDERSON LUIS DE CARVALHO              RUA JOAQUIM GONCALVES ROCHA - 302 - JARD            02859030                                                            000002
2SR. CAIXA, APOS O VENCIMENTO COBRAR 2% DE MULTA                                 NAO RECEBER APOS 30 DIAS DO VENCIMENTO.                                                                                                                                                                                                         01042100000000000000104210000000000000       0090339900006270250351042116000003
100000000000000000000009033990000627000000000000000000000000010002020007294304211300000000002            2  01072943042124042100000003266140000000001N010421000000000000000000000000000000000000000000000000000000000000000100007294351805CLAUDENIR APARECIDO VACARI              RUA CARLOS JOSE BORSTENS - 50 AP.93 - AV            11702750                                                            000005
2SR. CAIXA, APOS O VENCIMENTO COBRAR 2% DE MULTA                                 NAO RECEBER APOS 30 DIAS DO VENCIMENTO.                                                                                                                                                                                                         01042100000000000000104210000000000000       0090339900006270072943042113000006
100000000000000000000009033990000627000000000000000000000000010002020035438004211700000000002            2  01354380042124042100000002787390000000001N010421000000000000000000000000000000000000000000000000000000000000000100035438022836ALESSANDRO FARACO DOS SANTOS            RUA PEDRO POMAR  - 145 - JARDIM ELISA MA            02875020                                                            000008
2SR. CAIXA, APOS O VENCIMENTO COBRAR 2% DE MULTA                                 NAO RECEBER APOS 30 DIAS DO VENCIMENTO.                                                                                                                                                                                                         01042100000000000000104210000000000000       0090339900006270354380042117000009
100000000000000000000009033990000627000000000000000000000000010002020007525004211900000000002            2  01075250042124042100000003653330000000001N010421000000000000000000000000000000000000000000000000000000000000000100007525032866FERNANDO RIBEIRO                        RUA CARLOS JOSE BORSTENS - 50 AP.32 - AV            11702750                                                            000011
2SR. CAIXA, APOS O VENCIMENTO COBRAR 2% DE MULTA                                 NAO RECEBER APOS 30 DIAS DO VENCIMENTO.                                                                                                                                                                                                         01042100000000000000104210000000000000       0090339900006270075250042119000012
100000000000000000000009033990000627000000000000000000000000010002020005071404211400000000002            2  01050714042124042100000003204670000000001N010421000000000000000000000000000000000000000000000000000000000000000100005071481855ERIBALDO SANTANA CARVALHO               RUA HONDURAS - 477 - PARQUE DAS AMERICAS            09351070                                                            000014
2SR. CAIXA, APOS O VENCIMENTO COBRAR 2% DE MULTA                                 NAO RECEBER APOS 30 DIAS DO VENCIMENTO.                                                                                                                                                                                                         01042100000000000000104210000000000000       0090339900006270050714042114000015
100000000000000000000009033990000627000000000000000000000000010002020002841704211800000000002            2  01028417042124042100000002998260000000001N010421000000000000000000000000000000000000000000000000000000000000000100002841756416LUCIANA PINHEIRO DE ASSIS NUNES         RUA RIO ACIMA - 81 - RIACHO GRANDE - SAO            09830100                                                            000017
2SR. CAIXA, APOS O VENCIMENTO COBRAR 2% DE MULTA                                 NAO RECEBER APOS 30 DIAS DO VENCIMENTO.                                                                                                                                                                                                         01042100000000000000104210000000000000       0090339900006270028417042118000018
100000000000000000000009033990000627000000000000000000000000010002020084302004211700000000002            2  01843020042124042100000003012650000000001N010421000000000000000000000000000000000000000000000000000000000000000100084302097868FAUSTO TADEU VILOR                      RUA ANTONIO TAVARES - 466 - BAIRRO CAMBU            01542010                                                            000020
2SR. CAIXA, APOS O VENCIMENTO COBRAR 2% DE MULTA                                 NAO RECEBER APOS 30 DIAS DO VENCIMENTO.                                                                                                                                                                                                         01042100000000000000104210000000000000       0090339900006270843020042117000021
100000000000000000000009033990000627000000000000000000000000010002020028804204211700000000002            2  01288042042124042100000002959970000000001N010421000000000000000000000000000000000000000000000000000000000000000100028804202882GILBERTO FABIANO CABRAL DE CAMARGO      RUA CARLOS JOSE BORSTENS - 50 AP.44 - AV            11702750                                                            000023
2SR. CAIXA, APOS O VENCIMENTO COBRAR 2% DE MULTA                                 NAO RECEBER APOS 30 DIAS DO VENCIMENTO.                                                                                                                                                                                                         01042100000000000000104210000000000000       0090339900006270288042042117000024
100000000000000000000009033990000627000000000000000000000000010002020000991704211P00000000002            2  01009917042124042100000002889040000000001N010421000000000000000000000000000000000000000000000000000000000000000100000991748808JAILSON BORGES DE ANDRADE               RUA IPIOBUNA - 45 - JARDIM CUMBICA - GUA            07240040                                                            000026
2SR. CAIXA, APOS O VENCIMENTO COBRAR 2% DE MULTA                                 NAO RECEBER APOS 30 DIAS DO VENCIMENTO.                                                                                                                                                                                                         01042100000000000000104210000000000000       009033990000627000991704211P000027
100000000000000000000009033990000627000000000000000000000000010002020022151604211600000000002            2  01221516042124042100000002872250000000001N010421000000000000000000000000000000000000000000000000000000000000000100022151666816SAMIR LIMA DE ARAUJO                    AVENIDA GUARAPIRANGA - 2616 AP.131 BL.14            04902005                                                            000029
2SR. CAIXA, APOS O VENCIMENTO COBRAR 2% DE MULTA                                 NAO RECEBER APOS 30 DIAS DO VENCIMENTO.                                                                                                                                                                                                         01042100000000000000104210000000000000       0090339900006270221516042116000030
100000000000000000000009033990000627000000000000000000000000010002020022313104211800000000002            2  01223131042126042100000002209450000000001N010421000000000000000000000000000000000000000000000000000000000000000100022313116824ROSA MARIA BRITO DA SILVA               RUA SERVIDAO DE SAO MARCOS - 113 - JARDI            04930300                                                            000032
2SR. CAIXA, APOS O VENCIMENTO COBRAR 2% DE MULTA                                 NAO RECEBER APOS 30 DIAS DO VENCIMENTO.                                                                                                                                                                                                         01042100000000000000104210000000000000       0090339900006270223131042118000033
100000000000000000000009033990000627000000000000000000000000010002020027538004211P00000000002            2  01275380042126042100000002217160000000001N010421000000000000000000000000000000000000000000000000000000000000000100027538087249MARA LUCIA MENEZES DA COSTA             RUA LEILA  - 183 - ITAQUERA - SAO PAULO             08240020                                                            000035
2SR. CAIXA, APOS O VENCIMENTO COBRAR 2% DE MULTA                                 NAO RECEBER APOS 30 DIAS DO VENCIMENTO.                                                                                                                                                                                                         01042100000000000000104210000000000000       009033990000627027538004211P000036
100000000000000000000009033990000627000000000000000000000000010002020031278404211600000000002            2  01312784042124042100000002774700000000001N010421000000000000000000000000000000000000000000000000000000000000000100031278411836JEFFERSON DE PIERI PIRES ZAMUNER        RUA MANOEL ARCE - 277 - PARQUE BANCARIO             03922150                                                            000038
2SR. CAIXA, APOS O VENCIMENTO COBRAR 2% DE MULTA                                 NAO RECEBER APOS 30 DIAS DO VENCIMENTO.                                                                                                                                                                                                         01042100000000000000104210000000000000       0090339900006270312784042116000039
100000000000000000000009033990000627000000000000000000000000010002020019185704211800000000002            2  01191857042126042100000002017660000000001N010421000000000000000000000000000000000000000000000000000000000000000100019185769800AGUINALDO PESSOA DE LIMA                RUA JANUARIO ZINGARO - 252 AP.303 BL.04             05794300                                                            000041
2SR. CAIXA, APOS O VENCIMENTO COBRAR 2% DE MULTA                                 NAO RECEBER APOS 30 DIAS DO VENCIMENTO.                                                                                                                                                                                                         01042100000000000000104210000000000000       0090339900006270191857042118000042
100000000000000000000009033990000627000000000000000000000000010002020033303604211900000000002            2  01333036042126042100000002173200000000001N010421000000000000000000000000000000000000000000000000000000000000000100033303645809JESSICA DA SILVA FREITAS                RUA ARILDO VALADAO - 120 - JARDIM GUAEMB            04814600                                                            000044
2SR. CAIXA, APOS O VENCIMENTO COBRAR 2% DE MULTA                                 NAO RECEBER APOS 30 DIAS DO VENCIMENTO.                                                                                                                                                                                                         01042100000000000000104210000000000000       0090339900006270333036042119000045
100000000000000000000009033990000627000000000000000000000000010002020006422604211400000000002            2  01064226042124042100000003005040000000001N010421000000000000000000000000000000000000000000000000000000000000000100006422607881GERALDO ALVES DA SILVA                  RUA CARLOS JOSE BORSTENS - 50 AP.14 - AV            11702750                                                            000047
2SR. CAIXA, APOS O VENCIMENTO COBRAR 2% DE MULTA                                 NAO RECEBER APOS 30 DIAS DO VENCIMENTO.                                                                                                                                                                                                         01042100000000000000104210000000000000       0090339900006270064226042114000048
100000000000000000000009033990000627000000000000000000000000010002020033877104211600000000002            2  01338771042126042100000002037440000000001N010421000000000000000000000000000000000000000000000000000000000000000100033877129870HELDER FERREIRA VIANA                   RUA JOSE CALIXTO DO CARMO - 286 AP.35 -             11702690                                                            000050
2SR. CAIXA, APOS O VENCIMENTO COBRAR 2% DE MULTA                                 NAO RECEBER APOS 30 DIAS DO VENCIMENTO.                                                                                                                                                                                                         01042100000000000000104210000000000000       0090339900006270338771042116000051
100000000000000000000009033990000627000000000000000000000000010002020028290704211P00000000002            2  01282907042126042100000001877770000000001N010421000000000000000000000000000000000000000000000000000000000000000100028290719809VANESSA GIANGARRELLI PEREIRA            RUA BARINEL - 72 - JARDIM COTCHING - SAO            03462130                                                            000053
2SR. CAIXA, APOS O VENCIMENTO COBRAR 2% DE MULTA                                 NAO RECEBER APOS 30 DIAS DO VENCIMENTO.                                                                                                                                                                                                         01042100000000000000104210000000000000       009033990000627028290704211P000054
100000000000000000000009033990000627000000000000000000000000010002020087573004211500000000002            2  01875730042126042100000002050500000000001N010421000000000000000000000000000000000000000000000000000000000000000100087573059604VANDERLEY DE ASSIS                      RUA ROMEU ALBANI - 268 - JARDIM PARQUE R            13803810                                                            000056
2SR. CAIXA, APOS O VENCIMENTO COBRAR 2% DE MULTA                                 NAO RECEBER APOS 30 DIAS DO VENCIMENTO.                                                                                                                                                                                                         01042100000000000000104210000000000000       0090339900006270875730042115000057
100000000000000000000009033990000627000000000000000000000000010002020010825504211200000000002            2  01108255042126042100000002139790000000001N010421000000000000000000000000000000000000000000000000000000000000000100010825513847JOSE APARECIDO PEREIRA                  RUA GENERAL OSORIO - 305 - JARDIM TRINTA            11515130                                                            000059
2SR. CAIXA, APOS O VENCIMENTO COBRAR 2% DE MULTA                                 NAO RECEBER APOS 30 DIAS DO VENCIMENTO.                                                                                                                                                                                                         01042100000000000000104210000000000000       0090339900006270108255042112000060
100000000000000000000009033990000627000000000000000000000000010002020039115104211400000000002            2  01391151042126042100000002637680000000001N010421000000000000000000000000000000000000000000000000000000000000000100039115139840LAIS CRISTINA RIBEIRO ANDO              RUA JOSE CALIXTO DO CARMO - 286 AP.65 -             11702690                                                            000062
2SR. CAIXA, APOS O VENCIMENTO COBRAR 2% DE MULTA                                 NAO RECEBER APOS 30 DIAS DO VENCIMENTO.                                                                                                                                                                                                         01042100000000000000104210000000000000       0090339900006270391151042114000063
100000000000000000000009033990000627000000000000000000000000010002020029617504211200000000002            2  01296175042124042100000002949550000000001N010421000000000000000000000000000000000000000000000000000000000000000100029617510553MARILENE SOUZA DE OLIVEIRA              AVENIDA BRASIL - 393 AP.09 - PARQUE DAS             09210280                                                            000065
2SR. CAIXA, APOS O VENCIMENTO COBRAR 2% DE MULTA                                 NAO RECEBER APOS 30 DIAS DO VENCIMENTO.                                                                                                                                                                                                         01042100000000000000104210000000000000       0090339900006270296175042112000066
100000000000000000000009033990000627000000000000000000000000010002020000593204211200000000002            2  01005932042124042100000003234940000000001N010421000000000000000000000000000000000000000000000000000000000000000100000593293860WALTER HELIO BARBOSA FILHO              AVENIDA ANTONIO FREDERICO OZANAN - 9500             13214206                                                            000068
2SR. CAIXA, APOS O VENCIMENTO COBRAR 2% DE MULTA                                 NAO RECEBER APOS 30 DIAS DO VENCIMENTO.                                                                                                                                                                                                         01042100000000000000104210000000000000       0090339900006270005932042112000069
100000000000000000000009033990000627000000000000000000000000010002020007730004211800000000002            2  01077300042124042100000004600410000000001N010421000000000000000000000000000000000000000000000000000000000000000100007730084899ARNALDO LUIZ VONO                       RUA CARLOS JOSE BORSTENS - 50 AP.122 - A            11702750                                                            000071
2SR. CAIXA, APOS O VENCIMENTO COBRAR 2% DE MULTA                                 NAO RECEBER APOS 30 DIAS DO VENCIMENTO.                                                                                                                                                                                                         01042100000000000000104210000000000000       0090339900006270077300042118000072
100000000000000000000009033990000627000000000000000000000000010002020065584104211400000000002            2  01655841042124042100000001698170000000001N010421000000000000000000000000000000000000000000000000000000000000000100065584147834JOAQUIM DA COSTA MACHADO NETO           RUA CARLOS JOSE BORSTENS - 50 AP.42 - AV            11702750                                                            000074
2SR. CAIXA, APOS O VENCIMENTO COBRAR 2% DE MULTA                                 NAO RECEBER APOS 30 DIAS DO VENCIMENTO.                                                                                                                                                                                                         01042100000000000000104210000000000000       0090339900006270655841042114000075
100000000000000000000009033990000627000000000000000000000000010002020065584104212200000000002            2  01655841042124042100000001698160000000001N010421000000000000000000000000000000000000000000000000000000000000000100065584147834JOAQUIM DA COSTA MACHADO NETO           RUA CARLOS JOSE BORSTENS - 50 AP.42 - AV            11702750                                                            000077
2SR. CAIXA, APOS O VENCIMENTO COBRAR 2% DE MULTA                                 NAO RECEBER APOS 30 DIAS DO VENCIMENTO.                                                                                                                                                                                                         01042100000000000000104210000000000000       0090339900006270655841042122000078
100000000000000000000009033990000627000000000000000000000000010002020006684604211700000000002            2  01066846042126042100000002172930000000001N010421000000000000000000000000000000000000000000000000000000000000000100006684623884LAUDINOR VIEIRA GARCIA                  RUA CANDIDO SALES - 374 - JARDIM PRESIDE            07172000                                                            000080
2SR. CAIXA, APOS O VENCIMENTO COBRAR 2% DE MULTA                                 NAO RECEBER APOS 30 DIAS DO VENCIMENTO.                                                                                                                                                                                                         01042100000000000000104210000000000000       0090339900006270066846042117000081
100000000000000000000009033990000627000000000000000000000000010002020011663504211800000000002            2  01116635042126042100000002188560000000001N010421000000000000000000000000000000000000000000000000000000000000000100011663589844MARIA SAVIO QUARELLO                    AVENIDA MENDONCA DRUMOND - 321 - JARDIM             03524030                                                            000083
2SR. CAIXA, APOS O VENCIMENTO COBRAR 2% DE MULTA                                 NAO RECEBER APOS 30 DIAS DO VENCIMENTO.                                                                                                                                                                                                         01042100000000000000104210000000000000       0090339900006270116635042118000084
100000000000000000000009033990000627000000000000000000000000010002020010083804211P00000000002            2  01100838042126042100000002114510000000001N010421000000000000000000000000000000000000000000000000000000000000000100010083824855IONE FERREIRA COUTO DA SILVA            RUA JOSE RAGEL DE MESQUITA - 60 CS.01 -             07799999                                                            000086
2SR. CAIXA, APOS O VENCIMENTO COBRAR 2% DE MULTA                                 NAO RECEBER APOS 30 DIAS DO VENCIMENTO.                                                                                                                                                                                                         01042100000000000000104210000000000000       009033990000627010083804211P000087
100000000000000000000009033990000627000000000000000000000000010002020031010704211500000000002            2  01310107042126042100000002075020000000001N010421000000000000000000000000000000000000000000000000000000000000000100031010705890ANDRE GONZALEZ RABELLO                  RUA PARAIBA - 106 AP.61 - POMPEIA - SANT            11065470                                                            000089
2SR. CAIXA, APOS O VENCIMENTO COBRAR 2% DE MULTA                                 NAO RECEBER APOS 30 DIAS DO VENCIMENTO.                                                                                                                                                                                                         01042100000000000000104210000000000000       0090339900006270310107042115000090
100000000000000000000009033990000627000000000000000000000000010002020005351004211400000000002            2  01053510042126042100000001945550000000001N010421000000000000000000000000000000000000000000000000000000000000000100005351015897VALERIA ALVES MARCOLINO HINNIGER        RUA JOSE CALIXTO DO CARMO - 286 AP.92 -             11702690                                                            000092
2SR. CAIXA, APOS O VENCIMENTO COBRAR 2% DE MULTA                                 NAO RECEBER APOS 30 DIAS DO VENCIMENTO.                                                                                                                                                                                                         01042100000000000000104210000000000000       0090339900006270053510042114000093
100000000000000000000009033990000627000000000000000000000000010002020031898704211P00000000002            2  01318987042124042100000003095320000000001N010421000000000000000000000000000000000000000000000000000000000000000100031898775800ANITA MARTINS COLOMBO                   RUA CARLOS JOSE BORSTENS - 50 AP.115 - A            11702750                                                            000095
2SR. CAIXA, APOS O VENCIMENTO COBRAR 2% DE MULTA                                 NAO RECEBER APOS 30 DIAS DO VENCIMENTO.                                                                                                                                                                                                         01042100000000000000104210000000000000       009033990000627031898704211P000096
100000000000000000000009033990000627000000000000000000000000010002020037983404211P00000000002            2  01379834042126042100000002285400000000001N010421000000000000000000000000000000000000000000000000000000000000000100037983484801JOSE ERIVALDO SOUZA DO NASCIMENTO RAMOS RUA LETICIA - 250 - JARDIM GUARUJA - SAO            05877260                                                            000098
2SR. CAIXA, APOS O VENCIMENTO COBRAR 2% DE MULTA                                 NAO RECEBER APOS 30 DIAS DO VENCIMENTO.                                                                                                                                                                                                         01042100000000000000104210000000000000       009033990000627037983404211P000099
100000000000000000000009033990000627000000000000000000000000010002020056289204211000000000002            2  01562892042126042100000001726500000000001N010421000000000000000000000000000000000000000000000000000000000000000100056289286900PEDRO RIBEIRO                           RUA CONEGO MANOEL VAZ - 48 - SANTANA - S            02019050                                                            000101
2SR. CAIXA, APOS O VENCIMENTO COBRAR 2% DE MULTA                                 NAO RECEBER APOS 30 DIAS DO VENCIMENTO.                                                                                                                                                                                                         01042100000000000000104210000000000000       0090339900006270562892042110000102
100000000000000000000009033990000627000000000000000000000000010002020034735304211700000000002            2  01347353042126042100000002369520000000001N010421000000000000000000000000000000000000000000000000000000000000000100034735328866DIEGO FELIPE MOLINA DA SILVA E SOUSA    RUA EMILIA PAULISTA - 135 - VILA TIRADEN            05364020                                                            000104
2SR. CAIXA, APOS O VENCIMENTO COBRAR 2% DE MULTA                                 NAO RECEBER APOS 30 DIAS DO VENCIMENTO.                                                                                                                                                                                                         01042100000000000000104210000000000000       0090339900006270347353042117000105
100000000000000000000009033990000627000000000000000000000000010002020076175604211800000000002            2  01761756042124042100000004295650000000001N010421000000000000000000000000000000000000000000000000000000000000000100076175685687GILMAR DE OLIVEIRA BRAGA                RUA MARACAJU - 161 AP.202 - NOVA GRANADA            30431350                                                            000107
2SR. CAIXA, APOS O VENCIMENTO COBRAR 2% DE MULTA                                 NAO RECEBER APOS 30 DIAS DO VENCIMENTO.                                                                                                                                                                                                         01042100000000000000104210000000000000       0090339900006270761756042118000108
100000000000000000000009033990000627000000000000000000000000010002020034812204211000000000002            2  01348122042124042100000004096780000000001N010421000000000000000000000000000000000000000000000000000000000000000100034812226880THAIS TORQUATO MIMOSO DE JESUS          RUA ARNALDO CINTRA - 416 AP.104 TORRE 2             03088000                                                            000110
2SR. CAIXA, APOS O VENCIMENTO COBRAR 2% DE MULTA                                 NAO RECEBER APOS 30 DIAS DO VENCIMENTO.                                                                                                                                                                                                         01042100000000000000104210000000000000       0090339900006270348122042110000111
100000000000000000000009033990000627000000000000000000000000010002020012849404211700000000002            2  01128494042126042100000004082040000000001N010421000000000000000000000000000000000000000000000000000000000000000100012849428809MOISES CLAUDIO DO ROSARIO               AVENIDA DR. AUGUSTO DE TOLEDO - 510 AP.1            09541520                                                            000113
2SR. CAIXA, APOS O VENCIMENTO COBRAR 2% DE MULTA                                 NAO RECEBER APOS 30 DIAS DO VENCIMENTO.                                                                                                                                                                                                         01042100000000000000104210000000000000       0090339900006270128494042117000114
100000000000000000000009033990000627000000000000000000000000010002020015702304211700000000002            2  01157023042126042100000002264800000000001N010421000000000000000000000000000000000000000000000000000000000000000100015702353846MARIA DE LOURDES DE MACENO SOUZA        RUA JOSE CALIXTO DO CARMO - 286 AP.83 -             11702690                                                            000116
2SR. CAIXA, APOS O VENCIMENTO COBRAR 2% DE MULTA                                 NAO RECEBER APOS 30 DIAS DO VENCIMENTO.                                                                                                                                                                                                         01042100000000000000104210000000000000       0090339900006270157023042117000117
100000000000000000000009033990000627000000000000000000000000010002020003658604211100000000002            2  01036586042126042100000001686370000000001N010421000000000000000000000000000000000000000000000000000000000000000100003658668814MARINEZ VALENTIN                        RUA JOSE CALIXTO DO CARMO - 286 AP.95 -             11702690                                                            000119
2SR. CAIXA, APOS O VENCIMENTO COBRAR 2% DE MULTA                                 NAO RECEBER APOS 30 DIAS DO VENCIMENTO.                                                                                                                                                                                                         01042100000000000000104210000000000000       0090339900006270036586042111000120
100000000000000000000009033990000627000000000000000000000000010002020003658604212P00000000002            2  01036586042126042100000001686360000000001N010421000000000000000000000000000000000000000000000000000000000000000100003658668814MARINEZ VALENTIN                        RUA JOSE CALIXTO DO CARMO - 286 AP.95 -             11702690                                                            000122
2SR. CAIXA, APOS O VENCIMENTO COBRAR 2% DE MULTA                                 NAO RECEBER APOS 30 DIAS DO VENCIMENTO.                                                                                                                                                                                                         01042100000000000000104210000000000000       009033990000627003658604212P000123
100000000000000000000009033990000627000000000000000000000000010002020014087404211P00000000002            2  01140874042126042100000002253680000000001N010421000000000000000000000000000000000000000000000000000000000000000100014087484874SERGIO SANTOS DO NASCIMENTO             RUA PANTALEAO BRAZ - 21 - JARDIM ESTER -            05372080                                                            000125
2SR. CAIXA, APOS O VENCIMENTO COBRAR 2% DE MULTA                                 NAO RECEBER APOS 30 DIAS DO VENCIMENTO.                                                                                                                                                                                                         01042100000000000000104210000000000000       009033990000627014087404211P000126
100000000000000000000009033990000627000000000000000000000000010002020026834504211900000000002            2  01268345042126042100000002076500000000001N010421000000000000000000000000000000000000000000000000000000000000000100026834550895RAQUEL CARDOSO JOAO                     RUA PEDROSO XAVIER - 277 AP.23 TORRE 01             02732020                                                            000128
2SR. CAIXA, APOS O VENCIMENTO COBRAR 2% DE MULTA                                 NAO RECEBER APOS 30 DIAS DO VENCIMENTO.                                                                                                                                                                                                         01042100000000000000104210000000000000       0090339900006270268345042119000129
100000000000000000000009033990000627000000000000000000000000010002020039540004211700000000002            2  01395400042126042100000002041490000000001N010421000000000000000000000000000000000000000000000000000000000000000100039540008816LUZINETE CLARINDO SILVA                 RUA DEINOS - 275 - BAIRRO CIDADE SATELIT            08340100                                                            000131
2SR. CAIXA, APOS O VENCIMENTO COBRAR 2% DE MULTA                                 NAO RECEBER APOS 30 DIAS DO VENCIMENTO.                                                                                                                                                                                                         01042100000000000000104210000000000000       0090339900006270395400042117000132
100000000000000000000009033990000627000000000000000000000000010002020003311004211400000000002            2  01033110042126042100000002125970000000001N010421000000000000000000000000000000000000000000000000000000000000000100003311030877SEBASTIAO SARUVA NETO                   RUA HAMILTON REGIS - 559 - BAIRRO DO LIM            08051440                                                            000134
2SR. CAIXA, APOS O VENCIMENTO COBRAR 2% DE MULTA                                 NAO RECEBER APOS 30 DIAS DO VENCIMENTO.                                                                                                                                                                                                         01042100000000000000104210000000000000       0090339900006270033110042114000135
100000000000000000000009033990000627000000000000000000000000010002020090091904211000000000002            2  01900919042126042100000002032120000000001N010421000000000000000000000000000000000000000000000000000000000000000100090091990882JUECIR CARVALHO DA LUZ                  RUA JOSE CALIXTO DO CARMO - 286 AP.114 -            11702690                                                            000137
2SR. CAIXA, APOS O VENCIMENTO COBRAR 2% DE MULTA                                 NAO RECEBER APOS 30 DIAS DO VENCIMENTO.                                                                                                                                                                                                         01042100000000000000104210000000000000       0090339900006270900919042110000138
100000000000000000000009033990000627000000000000000000000000010002020037325904211200000000002            2  01373259042126042100000001663010000000001N010421000000000000000000000000000000000000000000000000000000000000000100037325923830MARIA AUGUSTA OLIVEIRA DE ANDRADE       RUA CAIAPOS - 842 AP.63 - VILA TUPI - PR            11703320                                                            000140
2SR. CAIXA, APOS O VENCIMENTO COBRAR 2% DE MULTA                                 NAO RECEBER APOS 30 DIAS DO VENCIMENTO.                                                                                                                                                                                                         01042100000000000000104210000000000000       0090339900006270373259042112000141
100000000000000000000009033990000627000000000000000000000000010002020012478804211P00000000002            2  01124788042124042100000003027590000000001N010421000000000000000000000000000000000000000000000000000000000000000100012478899809VITORIA BATISTA QUEIROZ                 RUA CARVALHO DE FREITAS - 255 AP.71A - V            05728030                                                            000143
2SR. CAIXA, APOS O VENCIMENTO COBRAR 2% DE MULTA                                 NAO RECEBER APOS 30 DIAS DO VENCIMENTO.                                                                                                                                                                                                         01042100000000000000104210000000000000       009033990000627012478804211P000144
100000000000000000000009033990000627000000000000000000000000010002020097989904211400000000002            2  01979899042126042100000001396150000000001N010421000000000000000000000000000000000000000000000000000000000000000100097989924820NELSON LUIS BERRIBILLE                  RUA SILVEIRA IGNACIO SOBRINHO - 965 - VI            13560294                                                            000146
2SR. CAIXA, APOS O VENCIMENTO COBRAR 2% DE MULTA                                 NAO RECEBER APOS 30 DIAS DO VENCIMENTO.                                                                                                                                                                                                         01042100000000000000104210000000000000       0090339900006270979899042114000147
100000000000000000000009033990000627000000000000000000000000010002020032341804211300000000002            2  01323418042124042100000003144810000000001N010421000000000000000000000000000000000000000000000000000000000000000100032341847803PRISCILA ALVES DE FRANCA MIRANDA        RUA CARLOS JOSE BORSTENS - 50 AP.91 - AV            11702750                                                            000149
2SR. CAIXA, APOS O VENCIMENTO COBRAR 2% DE MULTA                                 NAO RECEBER APOS 30 DIAS DO VENCIMENTO.                                                                                                                                                                                                         01042100000000000000104210000000000000       0090339900006270323418042113000150
100000000000000000000009033990000627000000000000000000000000010002020061915504211P00000000002            2  01619155042126042100000001963960000000001N010421000000000000000000000000000000000000000000000000000000000000000100061915599849NOE ERMINIO CIOFFI                      RUA ASTURIA - 106 - IMIRIN - SAO PAULO -            02540000                                                            000152
2SR. CAIXA, APOS O VENCIMENTO COBRAR 2% DE MULTA                                 NAO RECEBER APOS 30 DIAS DO VENCIMENTO.                                                                                                                                                                                                         01042100000000000000104210000000000000       009033990000627061915504211P000153
100000000000000000000009033990000627000000000000000000000000010002020016050604211900000000002            2  01160506042124042100000002918980000000001N010421000000000000000000000000000000000000000000000000000000000000000100016050684898ANDRE RODRIGUES DE OLIVEIRA             RUA CORACAO PAULISTA - 14 - FAZENDA ITAI            08132430                                                            000155
2SR. CAIXA, APOS O VENCIMENTO COBRAR 2% DE MULTA                                 NAO RECEBER APOS 30 DIAS DO VENCIMENTO.                                                                                                                                                                                                         01042100000000000000104210000000000000       0090339900006270160506042119000156
9                                                                                                                                                                                                                                                                                                                                                                                                         000157