01REMESSA01COBRANCA       00000000000005331186HB SANTOS CONSTRUTORA E INCORP237BRADESCO       080322        MX0000044                                                                                                                                                                                                                                                                                     000001
100000000000000000000009033990000995400000000000000000000000010002020005723203221300000000002            2  01057232032223032200000002665400000000001N070322000000000000000000000000000000000000000000000000000000000000000100005723255843FRANCISCO DE ASSIS DA SILVA             PRACA NICOLAU GERAIGIRE - 25 VISOR - JAR            11095110                                                            000002
2SR. CAIXA, APOS O VENCIMENTO COBRAR 2% DE MULTA                                 NAO RECEBER APOS 30 DIAS DO VENCIMENTO.                                                                                                                                                                                                         08032200000000000000803220000000000000       0090339900009954057232032213000003
100000000000000000000009033990000995400000000000000000000000010002020004928103221800000000002            2  01049281032223032200000002606560000000001N070322000000000000000000000000000000000000000000000000000000000000000100004928157800ADEMIR APARECIDO ANTUNES                RUA URUGUAI - 89 AP.105 - JARDIM GUILHER            11702300                                                            000005
2SR. CAIXA, APOS O VENCIMENTO COBRAR 2% DE MULTA                                 NAO RECEBER APOS 30 DIAS DO VENCIMENTO.                                                                                                                                                                                                         08032200000000000000803220000000000000       0090339900009954049281032218000006
100000000000000000000009033990000995400000000000000000000000010002020011238003221500000000002            2  01112380032223032200000002572760000000001N070322000000000000000000000000000000000000000000000000000000000000000100011238052886SOLANGE DIAS DE SOUZA ROMANO            AVENIDA DR. ALTINO ARANTES - 865 AP.132             04042034                                                            000008
2SR. CAIXA, APOS O VENCIMENTO COBRAR 2% DE MULTA                                 NAO RECEBER APOS 30 DIAS DO VENCIMENTO.                                                                                                                                                                                                         08032200000000000000803220000000000000       0090339900009954112380032215000009
100000000000000000000009033990000995400000000000000000000000010002020032589103221700000000002            2  01325891032223032200000002522040000000001N070322000000000000000000000000000000000000000000000000000000000000000100032589165862RENATA ISABEL MARTINS SILVA             RUA HERCULANO DE FREITAS - 257 - FUNDACA            09520280                                                            000011
2SR. CAIXA, APOS O VENCIMENTO COBRAR 2% DE MULTA                                 NAO RECEBER APOS 30 DIAS DO VENCIMENTO.                                                                                                                                                                                                         08032200000000000000803220000000000000       0090339900009954325891032217000012
100000000000000000000009033990000995400000000000000000000000010002020088339303221000000000002            2  01883393032223032200000002549370000000001N070322000000000000000000000000000000000000000000000000000000000000000100088339319868MARCIA SIQUEIRA MELLO                   RUA ADELINO ALVES - 81 - SANTO AMARO - S            04710120                                                            000014
2SR. CAIXA, APOS O VENCIMENTO COBRAR 2% DE MULTA                                 NAO RECEBER APOS 30 DIAS DO VENCIMENTO.                                                                                                                                                                                                         08032200000000000000803220000000000000       0090339900009954883393032210000015
100000000000000000000009033990000995400000000000000000000000010002020046391203221600000000002            2  01463912032223032200000002644610000000001N070322000000000000000000000000000000000000000000000000000000000000000100046391265810PAMELLA RODRIGUES DE OLIVEIRA           RUA AUGUSTA - 183 AP.301 BL.2A - VILA AU            07025130                                                            000017
2SR. CAIXA, APOS O VENCIMENTO COBRAR 2% DE MULTA                                 NAO RECEBER APOS 30 DIAS DO VENCIMENTO.                                                                                                                                                                                                         08032200000000000000803220000000000000       0090339900009954463912032216000018
100000000000000000000009033990000995400000000000000000000000010002020027964503221400000000002            2  01279645032223032200000002627700000000001N070322000000000000000000000000000000000000000000000000000000000000000100027964512838FABIO TADEU DE CAMPOS RADZIAVICIUS      AV.PROF.LUIZ IGNACIO ANHAIA MELLO - 2.58            03154100                                                            000020
2SR. CAIXA, APOS O VENCIMENTO COBRAR 2% DE MULTA                                 NAO RECEBER APOS 30 DIAS DO VENCIMENTO.                                                                                                                                                                                                         08032200000000000000803220000000000000       0090339900009954279645032214000021
100000000000000000000009033990000995400000000000000000000000010002020011498303221200000000002            2  01114983032223032200000001968710000000001N070322000000000000000000000000000000000000000000000000000000000000000100011498329837GERSON GERALDO DAS NEVES                RUA DOMINGOS DELGADO - 144 - VILA SOUZA             02881070                                                            000023
2SR. CAIXA, APOS O VENCIMENTO COBRAR 2% DE MULTA                                 NAO RECEBER APOS 30 DIAS DO VENCIMENTO.                                                                                                                                                                                                         08032200000000000000803220000000000000       0090339900009954114983032212000024
100000000000000000000009033990000995400000000000000000000000010002020000884203221400000000002            2  01008842032223032200000002397940000000001N070322000000000000000000000000000000000000000000000000000000000000000100000884239802ADEMIR MARTINS                          RUA CAIRO - 221 - VILA METALURGICA - SAN            09220170                                                            000026
2SR. CAIXA, APOS O VENCIMENTO COBRAR 2% DE MULTA                                 NAO RECEBER APOS 30 DIAS DO VENCIMENTO.                                                                                                                                                                                                         08032200000000000000803220000000000000       0090339900009954008842032214000027
100000000000000000000009033990000995400000000000000000000000010002020025214403221900000000002            2  01252144032223032200000002330330000000001N070322000000000000000000000000000000000000000000000000000000000000000100025214401833JOSE MAURICIO DOS SANTOS RODRIGUES      RUA JOAO DE MACEDO RIBEIRO - 49 - VILA N            08111101                                                            000029
2SR. CAIXA, APOS O VENCIMENTO COBRAR 2% DE MULTA                                 NAO RECEBER APOS 30 DIAS DO VENCIMENTO.                                                                                                                                                                                                         08032200000000000000803220000000000000       0090339900009954252144032219000030
100000000000000000000009033990000995400000000000000000000000010002020033119103221600000000002            2  01331191032223032200000002340200000000001N070322000000000000000000000000000000000000000000000000000000000000000100033119178802HUGO GOMES VENDRAME                     RUA SAO PAULO - 60 CASA 01 - VILA FREITA            06380110                                                            000032
2SR. CAIXA, APOS O VENCIMENTO COBRAR 2% DE MULTA                                 NAO RECEBER APOS 30 DIAS DO VENCIMENTO.                                                                                                                                                                                                         08032200000000000000803220000000000000       0090339900009954331191032216000033
100000000000000000000009033990000995400000000000000000000000010002020016631503221900000000002            2  01166315032223032200000002381030000000001N070322000000000000000000000000000000000000000000000000000000000000000100016631587468GILBERTO BEZERRA DA SILVA               AVENIDA JAIME TORRES - 745 CASA 3 - JARD            03670000                                                            000035
2SR. CAIXA, APOS O VENCIMENTO COBRAR 2% DE MULTA                                 NAO RECEBER APOS 30 DIAS DO VENCIMENTO.                                                                                                                                                                                                         08032200000000000000803220000000000000       0090339900009954166315032219000036
100000000000000000000009033990000995400000000000000000000000010002020007313203221100000000002            2  01073132032223032200000002364130000000001N070322000000000000000000000000000000000000000000000000000000000000000100007313251840SALVADOR GESUALDO PULVIRENTI            AVENIDA MARARI - 641 - VILA MARARI - SAO            04402010                                                            000038
2SR. CAIXA, APOS O VENCIMENTO COBRAR 2% DE MULTA                                 NAO RECEBER APOS 30 DIAS DO VENCIMENTO.                                                                                                                                                                                                         08032200000000000000803220000000000000       0090339900009954073132032211000039
100000000000000000000009033990000995400000000000000000000000010002020010676703221300000000002            2  01106767032223032200000002467590000000001N070322000000000000000000000000000000000000000000000000000000000000000100010676723896MERCEDES CRISTINA ROCHA SANDOVAL        RUA ITARARE - 446 AP.806 - JARDIM GUILHE            11701620                                                            000041
2SR. CAIXA, APOS O VENCIMENTO COBRAR 2% DE MULTA                                 NAO RECEBER APOS 30 DIAS DO VENCIMENTO.                                                                                                                                                                                                         08032200000000000000803220000000000000       0090339900009954106767032213000042
100000000000000000000009033990000995400000000000000000000000010002020009502803221100000000002            2  01095028032223032200000002576980000000001N070322000000000000000000000000000000000000000000000000000000000000000100009502844831CLAUDIA ROCHA SANDOVAL                  RUA URUGUAI - 89 AP.64 - JARDIM GUILHERM            11702300                                                            000044
2SR. CAIXA, APOS O VENCIMENTO COBRAR 2% DE MULTA                                 NAO RECEBER APOS 30 DIAS DO VENCIMENTO.                                                                                                                                                                                                         08032200000000000000803220000000000000       0090339900009954095028032211000045
100000000000000000000009033990000995400000000000000000000000010002020007594203221000000000002            2  01075942032223032200000002313420000000001N070322000000000000000000000000000000000000000000000000000000000000000100007594247809JOSE LUIS DE OLIVEIRA                   DONA EGLANTINA PENTEADO DA SILVA PRADO -            13044162                                                            000047
2SR. CAIXA, APOS O VENCIMENTO COBRAR 2% DE MULTA                                 NAO RECEBER APOS 30 DIAS DO VENCIMENTO.                                                                                                                                                                                                         08032200000000000000803220000000000000       0090339900009954075942032210000048
100000000000000000000009033990000995400000000000000000000000010002020005288703221400000000002            2  01052887032223032200000002383070000000001N070322000000000000000000000000000000000000000000000000000000000000000100005288796858MARCELO RODRIGUES FERREIRA              RUA MARCOS ANTONIO MARQUES - 302 - JARDI            06433020                                                            000050
2SR. CAIXA, APOS O VENCIMENTO COBRAR 2% DE MULTA                                 NAO RECEBER APOS 30 DIAS DO VENCIMENTO.                                                                                                                                                                                                         08032200000000000000803220000000000000       0090339900009954052887032214000051
100000000000000000000009033990000995400000000000000000000000010002020015835903221300000000002            2  01158359032223032200000002481620000000001N070322000000000000000000000000000000000000000000000000000000000000000100015835992823FLAVIO VERONEZ                          RUA ANDREA PAULINETTI - 127 AP.42 - BAIR            04707050                                                            000053
2SR. CAIXA, APOS O VENCIMENTO COBRAR 2% DE MULTA                                 NAO RECEBER APOS 30 DIAS DO VENCIMENTO.                                                                                                                                                                                                         08032200000000000000803220000000000000       0090339900009954158359032213000054
100000000000000000000009033990000995400000000000000000000000010002020000438103221100000000002            2  01004381032223032200000002801080000000001N070322000000000000000000000000000000000000000000000000000000000000000100000438161858WAGNECY VILLA NOVA LIEN                 MACHADO - 106 - VILA AUGUSTA - GUARULHOS            07025210                                                            000056
2SR. CAIXA, APOS O VENCIMENTO COBRAR 2% DE MULTA                                 NAO RECEBER APOS 30 DIAS DO VENCIMENTO.                                                                                                                                                                                                         08032200000000000000803220000000000000       0090339900009954004381032211000057
100000000000000000000009033990000995400000000000000000000000010002020026004503221800000000002            2  01260045032223032200000002481660000000001N070322000000000000000000000000000000000000000000000000000000000000000100026004595888EDIVALDO BEZERRA DA SILVA               AVENIDA GUATEMALA - 550 - JARDIM PINHEIR            09854750                                                            000059
2SR. CAIXA, APOS O VENCIMENTO COBRAR 2% DE MULTA                                 NAO RECEBER APOS 30 DIAS DO VENCIMENTO.                                                                                                                                                                                                         08032200000000000000803220000000000000       0090339900009954260045032218000060
100000000000000000000009033990000995400000000000000000000000010002020012470703221200000000002            2  01124707032223032200000002647750000000001N070322000000000000000000000000000000000000000000000000000000000000000100012470771870HILTON FERNANDES OLIVARES               RUA PATIO DA ESTACAO - 115 - BAIRRO CENT            09450000                                                            000062
2SR. CAIXA, APOS O VENCIMENTO COBRAR 2% DE MULTA                                 NAO RECEBER APOS 30 DIAS DO VENCIMENTO.                                                                                                                                                                                                         08032200000000000000803220000000000000       0090339900009954124707032212000063
100000000000000000000009033990000995400000000000000000000000010002020014025403221100000000002            2  01140254032223032200000002903200000000001N070322000000000000000000000000000000000000000000000000000000000000000100014025420899ANDREIA APARECIDA TAVARES BASTOS        RUA IBATIBA - 234 CASA 27 - RES.BOUGANVI            09220608                                                            000065
2SR. CAIXA, APOS O VENCIMENTO COBRAR 2% DE MULTA                                 NAO RECEBER APOS 30 DIAS DO VENCIMENTO.                                                                                                                                                                                                         08032200000000000000803220000000000000       0090339900009954140254032211000066
100000000000000000000009033990000995400000000000000000000000010002020018590003221000000000002            2  01185900032223032200000002629270000000001N070322000000000000000000000000000000000000000000000000000000000000000100018590038858JOSE SANDRO ROCHA SILVA                 RUA SANTO ANTONIO DO AVENTUREIRO - 216 A            07143040                                                            000068
2SR. CAIXA, APOS O VENCIMENTO COBRAR 2% DE MULTA                                 NAO RECEBER APOS 30 DIAS DO VENCIMENTO.                                                                                                                                                                                                         08032200000000000000803220000000000000       0090339900009954185900032210000069
100000000000000000000009033990000995400000000000000000000000010002020088578703221900000000002            2  01885787032223032200000002163500000000001N070322000000000000000000000000000000000000000000000000000000000000000100088578704800GILBERTO DO ESPIRITO SANTO SILVA        RUA GUARANY - 697 CASA 01 - PARQUE SAO V            11360000                                                            000071
2SR. CAIXA, APOS O VENCIMENTO COBRAR 2% DE MULTA                                 NAO RECEBER APOS 30 DIAS DO VENCIMENTO.                                                                                                                                                                                                         08032200000000000000803220000000000000       0090339900009954885787032219000072
100000000000000000000009033990000995400000000000000000000000010002020015378203221P00000000002            2  01153782032223032200000003232910000000001N070322000000000000000000000000000000000000000000000000000000000000000100015378295807SERGIO FERNANDES                        RUA VALDEMAR MARTINS - 116 AP.115 - BAIR            02535000                                                            000074
2SR. CAIXA, APOS O VENCIMENTO COBRAR 2% DE MULTA                                 NAO RECEBER APOS 30 DIAS DO VENCIMENTO.                                                                                                                                                                                                         08032200000000000000803220000000000000       009033990000995415378203221P000075
100000000000000000000009033990000995400000000000000000000000010002020005105203221700000000002            2  01051052032223032200000002580240000000001N070322000000000000000000000000000000000000000000000000000000000000000100005105287835FABIO MOTTOLA DE OLIVEIRA               RUA RAUL MAZZONI - 133 - CHACARA AREAL -            13331022                                                            000077
2SR. CAIXA, APOS O VENCIMENTO COBRAR 2% DE MULTA                                 NAO RECEBER APOS 30 DIAS DO VENCIMENTO.                                                                                                                                                                                                         08032200000000000000803220000000000000       0090339900009954051052032217000078
100000000000000000000009033990000995400000000000000000000000010002020020792703221600000000002            2  01207927032223032200000002682510000000001N070322000000000000000000000000000000000000000000000000000000000000000120792791000147TROVAO COMERCIO DE ALIMENTOS LTDA-ME    RUA QUINTA DA MAGNOLIA - 67 - JARDIM IPA            03582100                                                            000080
2SR. CAIXA, APOS O VENCIMENTO COBRAR 2% DE MULTA                                 NAO RECEBER APOS 30 DIAS DO VENCIMENTO.                                                                                                                                                                                                         08032200000000000000803220000000000000       0090339900009954207927032216000081
100000000000000000000009033990000995400000000000000000000000010002020007648103221P00000000002            2  01076481032223032200000002518920000000001N070322000000000000000000000000000000000000000000000000000000000000000100007648112825MARA REGINA CAPRIO                      RUA DA TRINDADE - 790 - VILA IDEAL - SAO            15060280                                                            000083
2SR. CAIXA, APOS O VENCIMENTO COBRAR 2% DE MULTA                                 NAO RECEBER APOS 30 DIAS DO VENCIMENTO.                                                                                                                                                                                                         08032200000000000000803220000000000000       009033990000995407648103221P000084
100000000000000000000009033990000995400000000000000000000000010002020031157403221900000000002            2  01311574032223032200000002704660000000001N070322000000000000000000000000000000000000000000000000000000000000000100031157420885TALITA ANICHIARICO COSSI                RUA CNEO POMPEO DE CAMARGO - 817 - JARDI            13060150                                                            000086
2SR. CAIXA, APOS O VENCIMENTO COBRAR 2% DE MULTA                                 NAO RECEBER APOS 30 DIAS DO VENCIMENTO.                                                                                                                                                                                                         08032200000000000000803220000000000000       0090339900009954311574032219000087
100000000000000000000009033990000995400000000000000000000000010002020035572503221300000000002            2  01355725032223032200000002875690000000001N070322000000000000000000000000000000000000000000000000000000000000000100035572536865MARIA SIMONE SANTOS                     RUA JOSE PEZZOLO - 68 - VILA ELDIZIA - S            09181660                                                            000089
2SR. CAIXA, APOS O VENCIMENTO COBRAR 2% DE MULTA                                 NAO RECEBER APOS 30 DIAS DO VENCIMENTO.                                                                                                                                                                                                         08032200000000000000803220000000000000       0090339900009954355725032213000090
100000000000000000000009033990000995400000000000000000000000010002020008800303221000000000002            2  01088003032223032200000002620130000000001N070322000000000000000000000000000000000000000000000000000000000000000100008800368425INGO DIMITRI PEREIRA DA NOBREGA         RUA PROFESSOR MENDES PIMENTEL - 362 - JA            03973010                                                            000092
2SR. CAIXA, APOS O VENCIMENTO COBRAR 2% DE MULTA                                 NAO RECEBER APOS 30 DIAS DO VENCIMENTO.                                                                                                                                                                                                         08032200000000000000803220000000000000       0090339900009954088003032210000093
100000000000000000000009033990000995400000000000000000000000010002020018312403221000000000002            2  01183124032223032200000009085950000000001N070322000000000000000000000000000000000000000000000000000000000000000100018312408827PAULO LUIZ FERREIRA                     AVENIDA MARCONDES SALGADO - 20 AP.26 B -            11702530                                                            000095
2SR. CAIXA, APOS O VENCIMENTO COBRAR 2% DE MULTA                                 NAO RECEBER APOS 30 DIAS DO VENCIMENTO.                                                                                                                                                                                                         08032200000000000000803220000000000000       0090339900009954183124032210000096
100000000000000000000009033990000995400000000000000000000000010002020005054103221500000000002            2  01050541032223032200000002535620000000001N070322000000000000000000000000000000000000000000000000000000000000000100005054169806PAULO ROBERTO DE MATTOS                 JARDIM BOTANICO - 849 - DISTRITO DE SOUS            13106258                                                            000098
2SR. CAIXA, APOS O VENCIMENTO COBRAR 2% DE MULTA                                 NAO RECEBER APOS 30 DIAS DO VENCIMENTO.                                                                                                                                                                                                         08032200000000000000803220000000000000       0090339900009954050541032215000099
100000000000000000000009033990000995400000000000000000000000010002020007552103221100000000002            2  01075521032223032200000002535620000000001N070322000000000000000000000000000000000000000000000000000000000000000100007552151846MAURO BORDONI                           AVENIDA DR. AUGUSTO DE TOLEDO - 769 AP.6            09540080                                                            000101
2SR. CAIXA, APOS O VENCIMENTO COBRAR 2% DE MULTA                                 NAO RECEBER APOS 30 DIAS DO VENCIMENTO.                                                                                                                                                                                                         08032200000000000000803220000000000000       0090339900009954075521032211000102
100000000000000000000009033990000995400000000000000000000000010002020012744203221400000000002            2  01127442032223032200000002821260000000001N070322000000000000000000000000000000000000000000000000000000000000000100012744201804ADAIL JOSE DE SOUSA                     RUA ROSARIA - 303 - BAIRRO SACADURA CABR            09061080                                                            000104
2SR. CAIXA, APOS O VENCIMENTO COBRAR 2% DE MULTA                                 NAO RECEBER APOS 30 DIAS DO VENCIMENTO.                                                                                                                                                                                                         08032200000000000000803220000000000000       0090339900009954127442032214000105
100000000000000000000009033990000995400000000000000000000000010002020000884203222200000000002            2  01008842032223032200000002098950000000001N070322000000000000000000000000000000000000000000000000000000000000000100000884239802ADEMIR MARTINS                          RUA CAIRO - 221 - VILA METALURGICA - SAN            09220170                                                            000107
2SR. CAIXA, APOS O VENCIMENTO COBRAR 2% DE MULTA                                 NAO RECEBER APOS 30 DIAS DO VENCIMENTO.                                                                                                                                                                                                         08032200000000000000803220000000000000       0090339900009954008842032222000108
9                                                                                                                                                                                                                                                                                                                                                                                                         000109