01REMESSA01COBRANCA       00000000000008017025HB SANTOS CONSTRUTORA E INCORP237BRADESCO       010720        MX0000107                                                                                                                                                                                                                                                                                     000001
100000000000000000000009033990000627000000000000000000000000010002020029671507201600000000002            2  01296715072009072000000002728510000000001N010720000000000000000000000000000000000000000000000000000000000000000100029671526845ROGERIO CONSENTINO                      RUA CARLOS MAZER  - 678 - VILA CARMOSINA            08290700                                                            000002
2SR. CAIXA, APOS O VENCIMENTO COBRAR 2% DE MULTA                                 NAO RECEBER APOS 30 DIAS DO VENCIMENTO.                                                                                                                                                                                                         01072000000000000000107200000000000000       0090339900006270296715072016000003
100000000000000000000009033990000627000000000000000000000000010002020003863007201800000000002            2  01038630072009072000000002577300000000001N010720000000000000000000000000000000000000000000000000000000000000000100003863075803HERALDO MENQUINI                        RUA CARLOS JOSE BORSTENS - 50 AP.15 - AV            11702750                                                            000005
2SR. CAIXA, APOS O VENCIMENTO COBRAR 2% DE MULTA                                 NAO RECEBER APOS 30 DIAS DO VENCIMENTO.                                                                                                                                                                                                         01072000000000000000107200000000000000       0090339900006270038630072018000006
100000000000000000000009033990000627000000000000000000000000010002020029028407201500000000002            2  01290284072009072000000002640190000000001N010720000000000000000000000000000000000000000000000000000000000000000100029028478825LEONARDO LOUZADA                        RUA CARLOS JOSE BORSTENS - 50 AP.35 - AV            11702750                                                            000008
2SR. CAIXA, APOS O VENCIMENTO COBRAR 2% DE MULTA                                 NAO RECEBER APOS 30 DIAS DO VENCIMENTO.                                                                                                                                                                                                         01072000000000000000107200000000000000       0090339900006270290284072015000009
100000000000000000000009033990000627000000000000000000000000010002020032878507201200000000002            2  01328785072009072000000003815600000000001N010720000000000000000000000000000000000000000000000000000000000000000100032878512847LEONARDO MOURA MONIZ CALDEIRA           RUA BALSA - 682 AP.134 T.02 - VILA ARCAD            02910000                                                            000011
2SR. CAIXA, APOS O VENCIMENTO COBRAR 2% DE MULTA                                 NAO RECEBER APOS 30 DIAS DO VENCIMENTO.                                                                                                                                                                                                         01072000000000000000107200000000000000       0090339900006270328785072012000012
100000000000000000000009033990000627000000000000000000000000010002020016479007201P00000000002            2  01164790072009072000000004059130000000001N010720000000000000000000000000000000000000000000000000000000000000000100016479002806LOURDES PEREIRA DE QUEIROZ SECANECHIA   RUA PAULINO CURSI - 437 - CIDADE SAO MAT            03960060                                                            000014
2SR. CAIXA, APOS O VENCIMENTO COBRAR 2% DE MULTA                                 NAO RECEBER APOS 30 DIAS DO VENCIMENTO.                                                                                                                                                                                                         01072000000000000000107200000000000000       009033990000627016479007201P000015
100000000000000000000009033990000627000000000000000000000000010002020019635007201700000000002            2  01196350072009072000000002994920000000001N010720000000000000000000000000000000000000000000000000000000000000000100019635091885IVAN VIEIRA SILVA                       ABRAO JORGE - 3001 - JARDIM INTEGRACAO -            14405397                                                            000017
2SR. CAIXA, APOS O VENCIMENTO COBRAR 2% DE MULTA                                 NAO RECEBER APOS 30 DIAS DO VENCIMENTO.                                                                                                                                                                                                         01072000000000000000107200000000000000       0090339900006270196350072017000018
100000000000000000000009033990000627000000000000000000000000010002020009361407201700000000002            2  01093614072009072000000002946930000000001N010720000000000000000000000000000000000000000000000000000000000000000100009361471805JOSE BARBOSA DA SILVA                   RUA ALFREDO INACIO TRINDADE  - 60 AP.44             02344100                                                            000020
2SR. CAIXA, APOS O VENCIMENTO COBRAR 2% DE MULTA                                 NAO RECEBER APOS 30 DIAS DO VENCIMENTO.                                                                                                                                                                                                         01072000000000000000107200000000000000       0090339900006270093614072017000021
100000000000000000000009033990000627000000000000000000000000010002020012756907201000000000002            2  01127569072009072000000002543860000000001N010720000000000000000000000000000000000000000000000000000000000000000100012756959812ITAMAR JUVENAL DIAS DA SILVA            RUA ELISEU REINALDO MORAES VIEIRA - 90 A            02858000                                                            000023
2SR. CAIXA, APOS O VENCIMENTO COBRAR 2% DE MULTA                                 NAO RECEBER APOS 30 DIAS DO VENCIMENTO.                                                                                                                                                                                                         01072000000000000000107200000000000000       0090339900006270127569072010000024
100000000000000000000009033990000627000000000000000000000000010002020002731007201800000000002            2  01027310072009072000000003007520000000001N010720000000000000000000000000000000000000000000000000000000000000000100002731042842VALTER CERQUEIRA VILLA NOVA             RUA MACHADO - 106 - VILA AUGUSTA - GUARU            07025210                                                            000026
2SR. CAIXA, APOS O VENCIMENTO COBRAR 2% DE MULTA                                 NAO RECEBER APOS 30 DIAS DO VENCIMENTO.                                                                                                                                                                                                         01072000000000000000107200000000000000       0090339900006270027310072018000027
100000000000000000000009033990000627000000000000000000000000010002020002731007202600000000002            2  01027310072009072000000003007510000000001N010720000000000000000000000000000000000000000000000000000000000000000100002731042842VALTER CERQUEIRA VILLA NOVA             RUA MACHADO - 106 - VILA AUGUSTA - GUARU            07025210                                                            000029
2SR. CAIXA, APOS O VENCIMENTO COBRAR 2% DE MULTA                                 NAO RECEBER APOS 30 DIAS DO VENCIMENTO.                                                                                                                                                                                                         01072000000000000000107200000000000000       0090339900006270027310072026000030
100000000000000000000009033990000627000000000000000000000000010002020028802107201600000000002            2  01288021072009072000000002715720000000001N010720000000000000000000000000000000000000000000000000000000000000000100028802158894ELIEL HENRIQUE ZUZA                     RUA CARLOS JOSE BORSTENS - 50 AP.43 - BA            11702750                                                            000032
2SR. CAIXA, APOS O VENCIMENTO COBRAR 2% DE MULTA                                 NAO RECEBER APOS 30 DIAS DO VENCIMENTO.                                                                                                                                                                                                         01072000000000000000107200000000000000       0090339900006270288021072016000033
100000000000000000000009033990000627000000000000000000000000010002020005313707201600000000002            2  01053137072011072000000002195220000000001N010720000000000000000000000000000000000000000000000000000000000000000100005313717863EDIMICIO JOSE DE ARAUJO                 PRACA NICOLAU GERAIGIRE - 680 CA A - JAR            11095110                                                            000035
2SR. CAIXA, APOS O VENCIMENTO COBRAR 2% DE MULTA                                 NAO RECEBER APOS 30 DIAS DO VENCIMENTO.                                                                                                                                                                                                         01072000000000000000107200000000000000       0090339900006270053137072016000036
100000000000000000000009033990000627000000000000000000000000010002020029433607201400000000002            2  01294336072011072000000002108860000000001N010720000000000000000000000000000000000000000000000000000000000000000100029433631897MARIO MUNIZ                             RUA JOSE CALIXTO DO CARMO - 286 AP.53 -             11702690                                                            000038
2SR. CAIXA, APOS O VENCIMENTO COBRAR 2% DE MULTA                                 NAO RECEBER APOS 30 DIAS DO VENCIMENTO.                                                                                                                                                                                                         01072000000000000000107200000000000000       0090339900006270294336072014000039
100000000000000000000009033990000627000000000000000000000000010002020001847207201200000000002            2  01018472072011072000000001941450000000001N010720000000000000000000000000000000000000000000000000000000000000000100001847204864AMERICA CONCEICAO DA SILVA              RUA JOSE CALIXTO DO CARMO - 286 AP.44 -             11702690                                                            000041
2SR. CAIXA, APOS O VENCIMENTO COBRAR 2% DE MULTA                                 NAO RECEBER APOS 30 DIAS DO VENCIMENTO.                                                                                                                                                                                                         01072000000000000000107200000000000000       0090339900006270018472072012000042
100000000000000000000009033990000627000000000000000000000000010002020005029807201700000000002            2  01050298072009072000000002593610000000001N010720000000000000000000000000000000000000000000000000000000000000000100005029828885LAURINETE DA CONCEICAO DE NORONHA       RUA MARIA LUCIA DE TOLEDO LEITE MORAES -            04434040                                                            000044
2SR. CAIXA, APOS O VENCIMENTO COBRAR 2% DE MULTA                                 NAO RECEBER APOS 30 DIAS DO VENCIMENTO.                                                                                                                                                                                                         01072000000000000000107200000000000000       0090339900006270050298072017000045
100000000000000000000009033990000627000000000000000000000000010002020013388907201900000000002            2  01133889072011072000000002055800000000001N010720000000000000000000000000000000000000000000000000000000000000000100013388936889NEUTON DE SOUZA RAMOS                   RUA MARIA CRISTINA - 932 - JARDIM CASQUE            11533160                                                            000047
2SR. CAIXA, APOS O VENCIMENTO COBRAR 2% DE MULTA                                 NAO RECEBER APOS 30 DIAS DO VENCIMENTO.                                                                                                                                                                                                         01072000000000000000107200000000000000       0090339900006270133889072019000048
100000000000000000000009033990000627000000000000000000000000010002020012774907201900000000002            2  01127749072011072000000002094420000000001N010720000000000000000000000000000000000000000000000000000000000000000100012774906865JOSE MILTON SANTIAGO                    RUA BATATAIS - 47 - CIDADE ESTELA - POA             08563140                                                            000050
2SR. CAIXA, APOS O VENCIMENTO COBRAR 2% DE MULTA                                 NAO RECEBER APOS 30 DIAS DO VENCIMENTO.                                                                                                                                                                                                         01072000000000000000107200000000000000       0090339900006270127749072019000051
100000000000000000000009033990000627000000000000000000000000010002020016294107201400000000002            2  01162941072009072000000002575000000000001N010720000000000000000000000000000000000000000000000000000000000000000100016294119812JURACY FELIX DE ARRUDA                  RUA CARLOS JOSE BORSTENS - 50 AP.23 - AV            11702750                                                            000053
2SR. CAIXA, APOS O VENCIMENTO COBRAR 2% DE MULTA                                 NAO RECEBER APOS 30 DIAS DO VENCIMENTO.                                                                                                                                                                                                         01072000000000000000107200000000000000       0090339900006270162941072014000054
100000000000000000000009033990000627000000000000000000000000010002020005613807201900000000002            2  01056138072011072000000001926280000000001N010720000000000000000000000000000000000000000000000000000000000000000100005613843805NILZA MARIA DE OLIVEIRA                 RUA JOSE GONCALVES DE FREITAS - 66 C2 -             08210550                                                            000056
2SR. CAIXA, APOS O VENCIMENTO COBRAR 2% DE MULTA                                 NAO RECEBER APOS 30 DIAS DO VENCIMENTO.                                                                                                                                                                                                         01072000000000000000107200000000000000       0090339900006270056138072019000057
100000000000000000000009033990000627000000000000000000000000010002020007574907201900000000002            2  01075749072011072000000001977280000000001N010720000000000000000000000000000000000000000000000000000000000000000100007574936889JORGE LUCIANO PEREIRA BORRIELLO         RUA JOSE CALIXTO DO CARMO - 286 AP.54 -             11702690                                                            000059
2SR. CAIXA, APOS O VENCIMENTO COBRAR 2% DE MULTA                                 NAO RECEBER APOS 30 DIAS DO VENCIMENTO.                                                                                                                                                                                                         01072000000000000000107200000000000000       0090339900006270075749072019000060
100000000000000000000009033990000627000000000000000000000000010002020008214907201100000000002            2  01082149072011072000000002007280000000001N010720000000000000000000000000000000000000000000000000000000000000000100008214973830JAMIL CHALA                             RUA JOSE CALIXTO DO CARMO - 286 AP.22 -             11702690                                                            000062
2SR. CAIXA, APOS O VENCIMENTO COBRAR 2% DE MULTA                                 NAO RECEBER APOS 30 DIAS DO VENCIMENTO.                                                                                                                                                                                                         01072000000000000000107200000000000000       0090339900006270082149072011000063
100000000000000000000009033990000627000000000000000000000000010002020032495007201900000000002            2  01324950072011072000000002249420000000001N010720000000000000000000000000000000000000000000000000000000000000000100032495004881PAULO EDUARDO DOS SANTOS                RUA REPUBLICA DO IRAQUE - 1119 - CAMPO B            04611002                                                            000065
2SR. CAIXA, APOS O VENCIMENTO COBRAR 2% DE MULTA                                 NAO RECEBER APOS 30 DIAS DO VENCIMENTO.                                                                                                                                                                                                         01072000000000000000107200000000000000       0090339900006270324950072019000066
100000000000000000000009033990000627000000000000000000000000010002020016498007201600000000002            2  01164980072011072000000001972800000000001N010720000000000000000000000000000000000000000000000000000000000000000100016498053810GILMA CEZARIO GARCIA CORRITORI          RUA LAURENTINO XAVIER DOS SANTOS - 336 -            08240740                                                            000068
2SR. CAIXA, APOS O VENCIMENTO COBRAR 2% DE MULTA                                 NAO RECEBER APOS 30 DIAS DO VENCIMENTO.                                                                                                                                                                                                         01072000000000000000107200000000000000       0090339900006270164980072016000069
100000000000000000000009033990000627000000000000000000000000010002020029339007201500000000002            2  01293390072011072000000002109560000000001N010720000000000000000000000000000000000000000000000000000000000000000100029339051831RONALD DIDOFF                           RUA CORONEL FERREIRA BRAGA - 188 - VILA             03522010                                                            000071
2SR. CAIXA, APOS O VENCIMENTO COBRAR 2% DE MULTA                                 NAO RECEBER APOS 30 DIAS DO VENCIMENTO.                                                                                                                                                                                                         01072000000000000000107200000000000000       0090339900006270293390072015000072
100000000000000000000009033990000627000000000000000000000000010002020017357807201700000000002            2  01173578072011072000000002234210000000001N010720000000000000000000000000000000000000000000000000000000000000000100017357859894MARCIO GUIMARAES                        RUA GENERAL CAMARA - 188 SALA 11 - CENTR            11010120                                                            000074
2SR. CAIXA, APOS O VENCIMENTO COBRAR 2% DE MULTA                                 NAO RECEBER APOS 30 DIAS DO VENCIMENTO.                                                                                                                                                                                                         01072000000000000000107200000000000000       0090339900006270173578072017000075
100000000000000000000009033990000627000000000000000000000000010002020010563007201700000000002            2  01105630072011072000000002291320000000001N010720000000000000000000000000000000000000000000000000000000000000000100010563033878VERA LUCIA RIBEIRO LONGANEZI            RUA DOS CAMARES - 150 AP.24 BL.02 - CARA            02068030                                                            000077
2SR. CAIXA, APOS O VENCIMENTO COBRAR 2% DE MULTA                                 NAO RECEBER APOS 30 DIAS DO VENCIMENTO.                                                                                                                                                                                                         01072000000000000000107200000000000000       0090339900006270105630072017000078
100000000000000000000009033990000627000000000000000000000000010002020005529607201100000000002            2  01055296072011072000000002079290000000001N010720000000000000000000000000000000000000000000000000000000000000000100005529616801JOAQUIM JORGE DA COSTA                  RUA JOSE CALIXTO DO CARMO - 286 AP.106 -            11702690                                                            000080
2SR. CAIXA, APOS O VENCIMENTO COBRAR 2% DE MULTA                                 NAO RECEBER APOS 30 DIAS DO VENCIMENTO.                                                                                                                                                                                                         01072000000000000000107200000000000000       0090339900006270055296072011000081
100000000000000000000009033990000627000000000000000000000000010002020022014107201600000000002            2  01220141072011072000000002073230000000001N010720000000000000000000000000000000000000000000000000000000000000000100022014140847CAMILA SILVEIRA CANIZARES               AVENIDA PRESIDENTE CASTELO BRANCO - 5.74            11703650                                                            000083
2SR. CAIXA, APOS O VENCIMENTO COBRAR 2% DE MULTA                                 NAO RECEBER APOS 30 DIAS DO VENCIMENTO.                                                                                                                                                                                                         01072000000000000000107200000000000000       0090339900006270220141072016000084
100000000000000000000009033990000627000000000000000000000000010002020015550707201800000000002            2  01155507072009072000000001965940000000001N010720000000000000000000000000000000000000000000000000000000000000000100015550706806MARY MIWA                               RUA CARLOS JOSE BORSTENS - 50 AP.105 - A            11702750                                                            000086
2SR. CAIXA, APOS O VENCIMENTO COBRAR 2% DE MULTA                                 NAO RECEBER APOS 30 DIAS DO VENCIMENTO.                                                                                                                                                                                                         01072000000000000000107200000000000000       0090339900006270155507072018000087
100000000000000000000009033990000627000000000000000000000000010002020015464607201800000000002            2  01154646072011072000000002185830000000001N010720000000000000000000000000000000000000000000000000000000000000000100015464647864SONIA TERESA VOLPATO                    RUA JOSE CALIXTO DO CARMO - 286 AP.73 -             11702690                                                            000089
2SR. CAIXA, APOS O VENCIMENTO COBRAR 2% DE MULTA                                 NAO RECEBER APOS 30 DIAS DO VENCIMENTO.                                                                                                                                                                                                         01072000000000000000107200000000000000       0090339900006270154646072018000090
100000000000000000000009033990000627000000000000000000000000010002020008657807201700000000002            2  01086578072011072000000002163890000000001N010720000000000000000000000000000000000000000000000000000000000000000100008657886855ARLINDO DA CRUZ                         AVENIDA ARICANDUVA - 8.256 AP.54 BL.10 -            03951220                                                            000092
2SR. CAIXA, APOS O VENCIMENTO COBRAR 2% DE MULTA                                 NAO RECEBER APOS 30 DIAS DO VENCIMENTO.                                                                                                                                                                                                         01072000000000000000107200000000000000       0090339900006270086578072017000093
100000000000000000000009033990000627000000000000000000000000010002020004265707201700000000002            2  01042657072009072000000002896760000000001N010720000000000000000000000000000000000000000000000000000000000000000100004265781713ALEXANDRE CASADO COSTA                  RUA CARLOS JOSE BORSTENS - 50 AP.33 - AV            11702750                                                            000095
2SR. CAIXA, APOS O VENCIMENTO COBRAR 2% DE MULTA                                 NAO RECEBER APOS 30 DIAS DO VENCIMENTO.                                                                                                                                                                                                         01072000000000000000107200000000000000       0090339900006270042657072017000096
100000000000000000000009033990000627000000000000000000000000010002020059735107201500000000002            2  01597351072009072000000001223530000000001N010720000000000000000000000000000000000000000000000000000000000000000100059735180863HELIO JOSE MARQUES                      RUA MARTIM AFONSO DE SOUZA - 1007 AP.102            11702790                                                            000098
2SR. CAIXA, APOS O VENCIMENTO COBRAR 2% DE MULTA                                 NAO RECEBER APOS 30 DIAS DO VENCIMENTO.                                                                                                                                                                                                         01072000000000000000107200000000000000       0090339900006270597351072015000099
100000000000000000000009033990000627000000000000000000000000010002020026347807201900000000002            2  01263478072011072000000002313140000000001N010720000000000000000000000000000000000000000000000000000000000000000100026347872862VALDECI SILVA MEIRELES                  RUA JOSE BATISTA DA SILVA - 292 - JARDIM            06851470                                                            000101
2SR. CAIXA, APOS O VENCIMENTO COBRAR 2% DE MULTA                                 NAO RECEBER APOS 30 DIAS DO VENCIMENTO.                                                                                                                                                                                                         01072000000000000000107200000000000000       0090339900006270263478072019000102
100000000000000000000009033990000627000000000000000000000000010002020025443607201P00000000002            2  01254436072009072000000004190340000000001N010720000000000000000000000000000000000000000000000000000000000000000100025443691830SILVANETE PEREIRA CARNELOS              RUA CARLOS JOSE BORSTENS - 50 AP.102 - A            11702750                                                            000104
2SR. CAIXA, APOS O VENCIMENTO COBRAR 2% DE MULTA                                 NAO RECEBER APOS 30 DIAS DO VENCIMENTO.                                                                                                                                                                                                         01072000000000000000107200000000000000       009033990000627025443607201P000105
100000000000000000000009033990000627000000000000000000000000010002020013135207201P00000000002            2  01131352072011072000000002125200000000001N010720000000000000000000000000000000000000000000000000000000000000000100013135261859EDUARDO ZANOLA                          RUA ROLANDO PIETRO BONINI - 46 - JARDIM             09781040                                                            000107
2SR. CAIXA, APOS O VENCIMENTO COBRAR 2% DE MULTA                                 NAO RECEBER APOS 30 DIAS DO VENCIMENTO.                                                                                                                                                                                                         01072000000000000000107200000000000000       009033990000627013135207201P000108
100000000000000000000009033990000627000000000000000000000000010002020009797607201000000000002            2  01097976072011072000000002069730000000001N010720000000000000000000000000000000000000000000000000000000000000000100009797626857RICARDO SOBRAL DE OLIVEIRA              RUA 23 DE MAIO - 139 AP.32 - VILA MIRIM             11704690                                                            000110
2SR. CAIXA, APOS O VENCIMENTO COBRAR 2% DE MULTA                                 NAO RECEBER APOS 30 DIAS DO VENCIMENTO.                                                                                                                                                                                                         01072000000000000000107200000000000000       0090339900006270097976072010000111
100000000000000000000009033990000627000000000000000000000000010002020004767607201100000000002            2  01047676072009072000000003539190000000001N010720000000000000000000000000000000000000000000000000000000000000000100004767679893ORLANDO GRANDE FILHO                    RUA ORLANDO MIGLIARI - 101 - JARDIM OURO            19906140                                                            000113
2SR. CAIXA, APOS O VENCIMENTO COBRAR 2% DE MULTA                                 NAO RECEBER APOS 30 DIAS DO VENCIMENTO.                                                                                                                                                                                                         01072000000000000000107200000000000000       0090339900006270047676072011000114
100000000000000000000009033990000627000000000000000000000000010002020006512507201900000000002            2  01065125072011072000000001861810000000001N010720000000000000000000000000000000000000000000000000000000000000000100006512547870MARIA DO CARMO FAGUNDES DOS REIS        RUA CARLOS MALCHER - 98 - PARQUE EDU CHA            02232020                                                            000116
2SR. CAIXA, APOS O VENCIMENTO COBRAR 2% DE MULTA                                 NAO RECEBER APOS 30 DIAS DO VENCIMENTO.                                                                                                                                                                                                         01072000000000000000107200000000000000       0090339900006270065125072019000117
100000000000000000000009033990000627000000000000000000000000010002020022728407201100000000002            2  01227284072011072000000002239560000000001N010720000000000000000000000000000000000000000000000000000000000000000100022728497842WILLIAN DE SOUZA MELLO                  RUA JOSE CALIXTO DO CARMO - 286 AP.111 -            11702690                                                            000119
2SR. CAIXA, APOS O VENCIMENTO COBRAR 2% DE MULTA                                 NAO RECEBER APOS 30 DIAS DO VENCIMENTO.                                                                                                                                                                                                         01072000000000000000107200000000000000       0090339900006270227284072011000120
100000000000000000000009033990000627000000000000000000000000010002020016909707201600000000002            2  01169097072011072000000001979080000000001N010720000000000000000000000000000000000000000000000000000000000000000100016909746805EDIVALDO SANTANA DOS SANTOS             ESTRADA JOAO GASPAR DELGADO - 80 AP.213             08536100                                                            000122
2SR. CAIXA, APOS O VENCIMENTO COBRAR 2% DE MULTA                                 NAO RECEBER APOS 30 DIAS DO VENCIMENTO.                                                                                                                                                                                                         01072000000000000000107200000000000000       0090339900006270169097072016000123
100000000000000000000009033990000627000000000000000000000000010002020022036007201300000000002            2  01220360072009072000000003073300000000001N010720000000000000000000000000000000000000000000000000000000000000000100022036003818DERLIS TERAN QUIROGA ROGATO             RUA JOAO RIBEIRO - 709 AP.61 - CAMPESTRE            09070250                                                            000125
2SR. CAIXA, APOS O VENCIMENTO COBRAR 2% DE MULTA                                 NAO RECEBER APOS 30 DIAS DO VENCIMENTO.                                                                                                                                                                                                         01072000000000000000107200000000000000       0090339900006270220360072013000126
100000000000000000000009033990000627000000000000000000000000010002020017229707202P00000000002            2  01172297072009072000000002966010000000001N010720000000000000000000000000000000000000000000000000000000000000000100017229751802BERENICE VIEIRA KERSTING                RUA ATIBAIA - 17 AP.417 - BAIRRO IMPERAD            11707380                                                            000128
2SR. CAIXA, APOS O VENCIMENTO COBRAR 2% DE MULTA                                 NAO RECEBER APOS 30 DIAS DO VENCIMENTO.                                                                                                                                                                                                         01072000000000000000107200000000000000       009033990000627017229707202P000129
100000000000000000000009033990000627000000000000000000000000010002020012475607201700000000002            2  01124756072011072000000002145210000000001N010720000000000000000000000000000000000000000000000000000000000000000100012475663820CELIDALVA GOES DE CARVALHO              RUA AURELIO BELOTTI JUNIOR - 28 - JARDIM            05759210                                                            000131
2SR. CAIXA, APOS O VENCIMENTO COBRAR 2% DE MULTA                                 NAO RECEBER APOS 30 DIAS DO VENCIMENTO.                                                                                                                                                                                                         01072000000000000000107200000000000000       0090339900006270124756072017000132
100000000000000000000009033990000627000000000000000000000000010002020033451607201400000000002            2  01334516072011072000000001791370000000001N010720000000000000000000000000000000000000000000000000000000000000000100033451620839ARAO ELISIARIO  NUNES                   RUA JOSE CALIXTO DO CARMO - 286 AP.64 -             11702690                                                            000134
2SR. CAIXA, APOS O VENCIMENTO COBRAR 2% DE MULTA                                 NAO RECEBER APOS 30 DIAS DO VENCIMENTO.                                                                                                                                                                                                         01072000000000000000107200000000000000       0090339900006270334516072014000135
100000000000000000000009033990000627000000000000000000000000010002020095758207201400000000002            2  01957582072011072000000002178560000000001N010720000000000000000000000000000000000000000000000000000000000000000100095758275891SHIRLEY TUNES ASTOLFI                   RUA GUAPERUVU - 656 AP.84 - VILA ARICAND            03504010                                                            000137
2SR. CAIXA, APOS O VENCIMENTO COBRAR 2% DE MULTA                                 NAO RECEBER APOS 30 DIAS DO VENCIMENTO.                                                                                                                                                                                                         01072000000000000000107200000000000000       0090339900006270957582072014000138
100000000000000000000009033990000627000000000000000000000000010002020045839207201100000000002            2  01458392072011072000000001390430000000001N010720000000000000000000000000000000000000000000000000000000000000000100045839263834LEONARDO ANTONIO CONCELLIERI            RUA JOSE CALIXTO DO CARMO - 286 AP.51 -             11702690                                                            000140
2SR. CAIXA, APOS O VENCIMENTO COBRAR 2% DE MULTA                                 NAO RECEBER APOS 30 DIAS DO VENCIMENTO.                                                                                                                                                                                                         01072000000000000000107200000000000000       0090339900006270458392072011000141
100000000000000000000009033990000627000000000000000000000000010002020011369107201200000000002            2  01113691072011072000000001956870000000001N010720000000000000000000000000000000000000000000000000000000000000000100011369165803ELIANA CORREA DE OLIVEIRA               AVENIDA ELIAS MALUF - 2695 CASA 419 - WA            18055215                                                            000143
2SR. CAIXA, APOS O VENCIMENTO COBRAR 2% DE MULTA                                 NAO RECEBER APOS 30 DIAS DO VENCIMENTO.                                                                                                                                                                                                         01072000000000000000107200000000000000       0090339900006270113691072012000144
100000000000000000000009033990000627000000000000000000000000010002020026858607201900000000002            2  01268586072008072000000002684840000000001N010720000000000000000000000000000000000000000000000000000000000000000100026858625879GLAUCE FERREIRA DE OLIVEIRA FALSI       RUA CATULO DA PAIXAO CEARENSE - 190 AP.1            04145010                                                            000146
2SR. CAIXA, APOS O VENCIMENTO COBRAR 2% DE MULTA                                 NAO RECEBER APOS 30 DIAS DO VENCIMENTO.                                                                                                                                                                                                         01072000000000000000107200000000000000       0090339900006270268586072019000147
100000000000000000000009033990000627000000000000000000000000010002020002253807201600000000002            2  01022538072011072000000001739290000000001N010720000000000000000000000000000000000000000000000000000000000000000100002253816809EDMILSON ALVES DA SILVA                 RUA JOSE CALIXTO DO CARMO - 286 AP.93 -             11702690                                                            000149
2SR. CAIXA, APOS O VENCIMENTO COBRAR 2% DE MULTA                                 NAO RECEBER APOS 30 DIAS DO VENCIMENTO.                                                                                                                                                                                                         01072000000000000000107200000000000000       0090339900006270022538072016000150
100000000000000000000009033990000627000000000000000000000000010002020037947007201800000000002            2  01379470072011072000000003089080000000001N010720000000000000000000000000000000000000000000000000000000000000000100037947070873BRUNO DE CAETANO MARRINHAS              RUA ADRIATICO - 151 AP.82 BLOCO 18 - JAR            09172180                                                            000152
2SR. CAIXA, APOS O VENCIMENTO COBRAR 2% DE MULTA                                 NAO RECEBER APOS 30 DIAS DO VENCIMENTO.                                                                                                                                                                                                         01072000000000000000107200000000000000       0090339900006270379470072018000153
100000000000000000000009033990000627000000000000000000000000010002020037517707201600000000002            2  01375177072009072000000003259720000000001N010720000000000000000000000000000000000000000000000000000000000000000100037517785869RENATO JOSE DE LIMA MELO                RUA ARISTIDES LOBO - 148 AP.41 BLOCO 03             03041100                                                            000155
2SR. CAIXA, APOS O VENCIMENTO COBRAR 2% DE MULTA                                 NAO RECEBER APOS 30 DIAS DO VENCIMENTO.                                                                                                                                                                                                         01072000000000000000107200000000000000       0090339900006270375177072016000156
100000000000000000000009033990000627000000000000000000000000010002020070367907201700000000002            2  01703679072011072000000001633290000000001N010720000000000000000000000000000000000000000000000000000000000000000100070367949849TEODOMIRO ALVES DOS SANTOS              RUA ANDRE PAZ - 13 - JARDIM SANTO ANDRE             08390230                                                            000158
2SR. CAIXA, APOS O VENCIMENTO COBRAR 2% DE MULTA                                 NAO RECEBER APOS 30 DIAS DO VENCIMENTO.                                                                                                                                                                                                         01072000000000000000107200000000000000       0090339900006270703679072017000159
100000000000000000000009033990000627000000000000000000000000010002020016960807201P00000000002            2  01169608072008072000000002563570000000001N010720000000000000000000000000000000000000000000000000000000000000000100016960804876LUIZ ALVES DE SOUZA JUNIOR              RUA FRANCISCO ALVES - 394 CASA B - PAECA            11450320                                                            000161
2SR. CAIXA, APOS O VENCIMENTO COBRAR 2% DE MULTA                                 NAO RECEBER APOS 30 DIAS DO VENCIMENTO.                                                                                                                                                                                                         01072000000000000000107200000000000000       009033990000627016960807201P000162
9                                                                                                                                                                                                                                                                                                                                                                                                         000163