01REMESSA01COBRANCA       00000000000008017025HB SANTOS CONSTRUTORA E INCORP237BRADESCO       101219        MX0000093                                                                                                                                                                                                                                                                                     000001
100000000000000000000009033990000627000000000000000000000000010002020025035112191100000000002            2  01250351121924121900000002154710000000001N091219000000000000000000000000000000000000000000000000000000000000000100025035170802WANDERSON LUIS DE CARVALHO              RUA JOAQUIM GONCALVES ROCHA - 302 - JARD            02859030                                                            000002
2SR. CAIXA, APOS O VENCIMENTO COBRAR 2% DE MULTA                                 NAO RECEBER APOS 30 DIAS DO VENCIMENTO.                                                                                                                                                                                                         10121900000000000001012190000000000000       0090339900006270250351121911000003
100000000000000000000009033990000627000000000000000000000000010002020007294312191900000000002            2  01072943121924121900000002898120000000001N091219000000000000000000000000000000000000000000000000000000000000000100007294351805CLAUDENIR APARECIDO VACARI              RUA CARLOS JOSE BORSTENS - 50 AP.93 - AV            11702750                                                            000005
2SR. CAIXA, APOS O VENCIMENTO COBRAR 2% DE MULTA                                 NAO RECEBER APOS 30 DIAS DO VENCIMENTO.                                                                                                                                                                                                         10121900000000000001012190000000000000       0090339900006270072943121919000006
100000000000000000000009033990000627000000000000000000000000010002020042976112191900000000002            2  01429761121924121900000002928550000000001N091219000000000000000000000000000000000000000000000000000000000000000100042976111634ACACIO TOSCANO BONDANCA                 RUA COMENDADOR JACOMO ANTONIO LA SELVA -            12946797                                                            000008
2SR. CAIXA, APOS O VENCIMENTO COBRAR 2% DE MULTA                                 NAO RECEBER APOS 30 DIAS DO VENCIMENTO.                                                                                                                                                                                                         10121900000000000001012190000000000000       0090339900006270429761121919000009
100000000000000000000009033990000627000000000000000000000000010002020035438012191200000000002            2  01354380121924121900000002473290000000001N091219000000000000000000000000000000000000000000000000000000000000000100035438022836ALESSANDRO FARACO DOS SANTOS            RUA PEDRO POMAR  - 145 - JARDIM ELISA MA            02875020                                                            000011
2SR. CAIXA, APOS O VENCIMENTO COBRAR 2% DE MULTA                                 NAO RECEBER APOS 30 DIAS DO VENCIMENTO.                                                                                                                                                                                                         10121900000000000001012190000000000000       0090339900006270354380121912000012
100000000000000000000009033990000627000000000000000000000000010002020007525012191400000000002            2  01075250121924121900000003241670000000001N091219000000000000000000000000000000000000000000000000000000000000000100007525032866FERNANDO RIBEIRO                        RUA CARLOS JOSE BORSTENS - 50 AP.32 - AV            11702750                                                            000014
2SR. CAIXA, APOS O VENCIMENTO COBRAR 2% DE MULTA                                 NAO RECEBER APOS 30 DIAS DO VENCIMENTO.                                                                                                                                                                                                         10121900000000000001012190000000000000       0090339900006270075250121914000015
100000000000000000000009033990000627000000000000000000000000010002020005071412191P00000000002            2  01050714121924121900000002843560000000001N091219000000000000000000000000000000000000000000000000000000000000000100005071481855ERIBALDO SANTANA CARVALHO               RUA HONDURAS - 477 - PARQUE DAS AMERICAS            09351070                                                            000017
2SR. CAIXA, APOS O VENCIMENTO COBRAR 2% DE MULTA                                 NAO RECEBER APOS 30 DIAS DO VENCIMENTO.                                                                                                                                                                                                         10121900000000000001012190000000000000       009033990000627005071412191P000018
100000000000000000000009033990000627000000000000000000000000010002020002841712191300000000002            2  01028417121924121900000002660430000000001N091219000000000000000000000000000000000000000000000000000000000000000100002841756416LUCIANA PINHEIRO DE ASSIS NUNES         RUA RIO ACIMA - 81 - RIACHO GRANDE - SAO            09830100                                                            000020
2SR. CAIXA, APOS O VENCIMENTO COBRAR 2% DE MULTA                                 NAO RECEBER APOS 30 DIAS DO VENCIMENTO.                                                                                                                                                                                                         10121900000000000001012190000000000000       0090339900006270028417121913000021
100000000000000000000009033990000627000000000000000000000000010002020084302012191200000000002            2  01843020121924121900000002673180000000001N091219000000000000000000000000000000000000000000000000000000000000000100084302097868FAUSTO TADEU VILOR                      RUA ANTONIO TAVARES - 466 - BAIRRO CAMBU            01542010                                                            000023
2SR. CAIXA, APOS O VENCIMENTO COBRAR 2% DE MULTA                                 NAO RECEBER APOS 30 DIAS DO VENCIMENTO.                                                                                                                                                                                                         10121900000000000001012190000000000000       0090339900006270843020121912000024
100000000000000000000009033990000627000000000000000000000000010002020028804212191200000000002            2  01288042121924121900000002626420000000001N091219000000000000000000000000000000000000000000000000000000000000000100028804202882GILBERTO FABIANO CABRAL DE CAMARGO      RUA CARLOS JOSE BORSTENS - 50 AP.44 - AV            11702750                                                            000026
2SR. CAIXA, APOS O VENCIMENTO COBRAR 2% DE MULTA                                 NAO RECEBER APOS 30 DIAS DO VENCIMENTO.                                                                                                                                                                                                         10121900000000000001012190000000000000       0090339900006270288042121912000027
100000000000000000000009033990000627000000000000000000000000010002020000991712191500000000002            2  01009917121924121900000002563480000000001N091219000000000000000000000000000000000000000000000000000000000000000100000991748808JAILSON BORGES DE ANDRADE               RUA IPIOBUNA - 45 - JARDIM CUMBICA - GUA            07240040                                                            000029
2SR. CAIXA, APOS O VENCIMENTO COBRAR 2% DE MULTA                                 NAO RECEBER APOS 30 DIAS DO VENCIMENTO.                                                                                                                                                                                                         10121900000000000001012190000000000000       0090339900006270009917121915000030
100000000000000000000009033990000627000000000000000000000000010002020092180212191200000000002            2  01921802121924121900000003495000000000001N091219000000000000000000000000000000000000000000000000000000000000000100092180299834LUIS ROBERTO DE SA DUARTE               RUA TEBAS - 296 AP.84 BLOCO 2 CE - JARDI            04634031                                                            000032
2SR. CAIXA, APOS O VENCIMENTO COBRAR 2% DE MULTA                                 NAO RECEBER APOS 30 DIAS DO VENCIMENTO.                                                                                                                                                                                                         10121900000000000001012190000000000000       0090339900006270921802121912000033
100000000000000000000009033990000627000000000000000000000000010002020022151612191100000000002            2  01221516121924121900000002548620000000001N091219000000000000000000000000000000000000000000000000000000000000000100022151666816SAMIR LIMA DE ARAUJO                    AVENIDA GUARAPIRANGA - 2616 AP.42 BLOCO1            04902005                                                            000035
2SR. CAIXA, APOS O VENCIMENTO COBRAR 2% DE MULTA                                 NAO RECEBER APOS 30 DIAS DO VENCIMENTO.                                                                                                                                                                                                         10121900000000000001012190000000000000       0090339900006270221516121911000036
100000000000000000000009033990000627000000000000000000000000010002020022313112191300000000002            2  01223131121926121900000001960490000000001N091219000000000000000000000000000000000000000000000000000000000000000100022313116824ROSA MARIA BRITO DA SILVA               RUA SERVIDAO DE SAO MARCOS - 113 - JARDI            04930300                                                            000038
2SR. CAIXA, APOS O VENCIMENTO COBRAR 2% DE MULTA                                 NAO RECEBER APOS 30 DIAS DO VENCIMENTO.                                                                                                                                                                                                         10121900000000000001012190000000000000       0090339900006270223131121913000039
100000000000000000000009033990000627000000000000000000000000010002020027538012191500000000002            2  01275380121926121900000001967330000000001N091219000000000000000000000000000000000000000000000000000000000000000100027538087249MARA LUCIA MENEZES DA COSTA             RUA LEILA  - 183 - ITAQUERA - SAO PAULO             08240020                                                            000041
2SR. CAIXA, APOS O VENCIMENTO COBRAR 2% DE MULTA                                 NAO RECEBER APOS 30 DIAS DO VENCIMENTO.                                                                                                                                                                                                         10121900000000000001012190000000000000       0090339900006270275380121915000042
100000000000000000000009033990000627000000000000000000000000010002020031278412191100000000002            2  01312784121924121900000002462030000000001N091219000000000000000000000000000000000000000000000000000000000000000100031278411836JEFFERSON DE PIERI PIRES ZAMUNER        RUA MANOEL ARCE - 277 - PARQUE BANCARIO             03922150                                                            000044
2SR. CAIXA, APOS O VENCIMENTO COBRAR 2% DE MULTA                                 NAO RECEBER APOS 30 DIAS DO VENCIMENTO.                                                                                                                                                                                                         10121900000000000001012190000000000000       0090339900006270312784121911000045
100000000000000000000009033990000627000000000000000000000000010002020019185712191300000000002            2  01191857121926121900000001790300000000001N091219000000000000000000000000000000000000000000000000000000000000000100019185769800AGUINALDO PESSOA DE LIMA                RUA JANUARIO ZINGARO - 252 AP.303 BL.04             05794300                                                            000047
2SR. CAIXA, APOS O VENCIMENTO COBRAR 2% DE MULTA                                 NAO RECEBER APOS 30 DIAS DO VENCIMENTO.                                                                                                                                                                                                         10121900000000000001012190000000000000       0090339900006270191857121913000048
100000000000000000000009033990000627000000000000000000000000010002020033303612191400000000002            2  01333036121926121900000001928320000000001N091219000000000000000000000000000000000000000000000000000000000000000100033303645809JESSICA DA SILVA FREITAS                RUA ARILDO VALADAO - 120 - JARDIM GUAEMB            04814600                                                            000050
2SR. CAIXA, APOS O VENCIMENTO COBRAR 2% DE MULTA                                 NAO RECEBER APOS 30 DIAS DO VENCIMENTO.                                                                                                                                                                                                         10121900000000000001012190000000000000       0090339900006270333036121914000051
100000000000000000000009033990000627000000000000000000000000010002020004824412191300000000002            2  01048244121926121900000001943570000000001N091219000000000000000000000000000000000000000000000000000000000000000100004824443806ROSIMEIRE CLARA FERREIRA REZENDE        RUA JOSE CALIXTO DO CARMO - 286 AP.43 -             11702690                                                            000053
2SR. CAIXA, APOS O VENCIMENTO COBRAR 2% DE MULTA                                 NAO RECEBER APOS 30 DIAS DO VENCIMENTO.                                                                                                                                                                                                         10121900000000000001012190000000000000       0090339900006270048244121913000054
100000000000000000000009033990000627000000000000000000000000010002020006422612191P00000000002            2  01064226121924121900000002666430000000001N091219000000000000000000000000000000000000000000000000000000000000000100006422607881GERALDO ALVES DA SILVA                  RUA CARLOS JOSE BORSTENS - 50 AP.14 - AV            11702750                                                            000056
2SR. CAIXA, APOS O VENCIMENTO COBRAR 2% DE MULTA                                 NAO RECEBER APOS 30 DIAS DO VENCIMENTO.                                                                                                                                                                                                         10121900000000000001012190000000000000       009033990000627006422612191P000057
100000000000000000000009033990000627000000000000000000000000010002020033877112191100000000002            2  01338771121926121900000001807860000000001N091219000000000000000000000000000000000000000000000000000000000000000100033877129870HELDER FERREIRA VIANA                   RUA JOSE CALIXTO DO CARMO - 286 AP.35 -             11702690                                                            000059
2SR. CAIXA, APOS O VENCIMENTO COBRAR 2% DE MULTA                                 NAO RECEBER APOS 30 DIAS DO VENCIMENTO.                                                                                                                                                                                                         10121900000000000001012190000000000000       0090339900006270338771121911000060
100000000000000000000009033990000627000000000000000000000000010002020028290712191500000000002            2  01282907121926121900000001666160000000001N091219000000000000000000000000000000000000000000000000000000000000000100028290719809VANESSA GIANGARRELLI PEREIRA            RUA BARINEL - 72 - JARDIM COTCHING - SAO            03462130                                                            000062
2SR. CAIXA, APOS O VENCIMENTO COBRAR 2% DE MULTA                                 NAO RECEBER APOS 30 DIAS DO VENCIMENTO.                                                                                                                                                                                                         10121900000000000001012190000000000000       0090339900006270282907121915000063
100000000000000000000009033990000627000000000000000000000000010002020028290712192300000000002            2  01282907121926121900000001666150000000001N091219000000000000000000000000000000000000000000000000000000000000000100028290719809VANESSA GIANGARRELLI PEREIRA            RUA BARINEL - 72 - JARDIM COTCHING - SAO            03462130                                                            000065
2SR. CAIXA, APOS O VENCIMENTO COBRAR 2% DE MULTA                                 NAO RECEBER APOS 30 DIAS DO VENCIMENTO.                                                                                                                                                                                                         10121900000000000001012190000000000000       0090339900006270282907121923000066
100000000000000000000009033990000627000000000000000000000000010002020087573012191000000000002            2  01875730121926121900000001819430000000001N091219000000000000000000000000000000000000000000000000000000000000000100087573059604VANDERLEY DE ASSIS                      RUA ROMEU ALBANI - 268 - JARDIM PARQUE R            13803810                                                            000068
2SR. CAIXA, APOS O VENCIMENTO COBRAR 2% DE MULTA                                 NAO RECEBER APOS 30 DIAS DO VENCIMENTO.                                                                                                                                                                                                         10121900000000000001012190000000000000       0090339900006270875730121910000069
100000000000000000000009033990000627000000000000000000000000010002020010825512191800000000002            2  01108255121926121900000001898690000000001N091219000000000000000000000000000000000000000000000000000000000000000100010825513847JOSE APARECIDO PEREIRA                  RUA GENERAL OSORIO - 305 - JARDIM TRINTA            11515130                                                            000071
2SR. CAIXA, APOS O VENCIMENTO COBRAR 2% DE MULTA                                 NAO RECEBER APOS 30 DIAS DO VENCIMENTO.                                                                                                                                                                                                         10121900000000000001012190000000000000       0090339900006270108255121918000072
100000000000000000000009033990000627000000000000000000000000010002020038818512191800000000002            2  01388185121926121900000001931150000000001N091219000000000000000000000000000000000000000000000000000000000000000100038818572814MAURICIUS ALEXANDRE ESTEVAM NABOR       RUA JOSE CALIXTO DO CARMO - 286 AP.25 -             11702690                                                            000074
2SR. CAIXA, APOS O VENCIMENTO COBRAR 2% DE MULTA                                 NAO RECEBER APOS 30 DIAS DO VENCIMENTO.                                                                                                                                                                                                         10121900000000000001012190000000000000       0090339900006270388185121918000075
100000000000000000000009033990000627000000000000000000000000010002020039115112191P00000000002            2  01391151121926121900000002340450000000001N091219000000000000000000000000000000000000000000000000000000000000000100039115139840LAIS CRISTINA RIBEIRO ANDO              RUA PERU - 769 AP.17 - VILA GUILHERMINA             11702250                                                            000077
2SR. CAIXA, APOS O VENCIMENTO COBRAR 2% DE MULTA                                 NAO RECEBER APOS 30 DIAS DO VENCIMENTO.                                                                                                                                                                                                         10121900000000000001012190000000000000       009033990000627039115112191P000078
100000000000000000000009033990000627000000000000000000000000010002020029617512191800000000002            2  01296175121924121900000002617200000000001N091219000000000000000000000000000000000000000000000000000000000000000100029617510553MARILENE SOUZA DE OLIVEIRA              AVENIDA BRASIL - 393 AP.09 - PARQUE DAS             09210280                                                            000080
2SR. CAIXA, APOS O VENCIMENTO COBRAR 2% DE MULTA                                 NAO RECEBER APOS 30 DIAS DO VENCIMENTO.                                                                                                                                                                                                         10121900000000000001012190000000000000       0090339900006270296175121918000081
100000000000000000000009033990000627000000000000000000000000010002020000593212191800000000002            2  01005932121924121900000002870420000000001N091219000000000000000000000000000000000000000000000000000000000000000100000593293860WALTER HELIO BARBOSA FILHO              AVENIDA ANTONIO FREDERICO OZANAN - 9500             13214206                                                            000083
2SR. CAIXA, APOS O VENCIMENTO COBRAR 2% DE MULTA                                 NAO RECEBER APOS 30 DIAS DO VENCIMENTO.                                                                                                                                                                                                         10121900000000000001012190000000000000       0090339900006270005932121918000084
100000000000000000000009033990000627000000000000000000000000010002020007730012191300000000002            2  01077300121924121900000004082020000000001N091219000000000000000000000000000000000000000000000000000000000000000100007730084899ARNALDO LUIZ VONO                       RUA CARLOS JOSE BORSTENS - 50 AP.122 - A            11702750                                                            000086
2SR. CAIXA, APOS O VENCIMENTO COBRAR 2% DE MULTA                                 NAO RECEBER APOS 30 DIAS DO VENCIMENTO.                                                                                                                                                                                                         10121900000000000001012190000000000000       0090339900006270077300121913000087
100000000000000000000009033990000627000000000000000000000000010002020065584112191P00000000002            2  01655841121924121900000001506810000000001N091219000000000000000000000000000000000000000000000000000000000000000100065584147834JOAQUIM DA COSTA MACHADO NETO           RUA CARLOS JOSE BORSTENS - 50 AP.42 - AV            11702750                                                            000089
2SR. CAIXA, APOS O VENCIMENTO COBRAR 2% DE MULTA                                 NAO RECEBER APOS 30 DIAS DO VENCIMENTO.                                                                                                                                                                                                         10121900000000000001012190000000000000       009033990000627065584112191P000090
100000000000000000000009033990000627000000000000000000000000010002020065584112192800000000002            2  01655841121924121900000001506800000000001N091219000000000000000000000000000000000000000000000000000000000000000100065584147834JOAQUIM DA COSTA MACHADO NETO           RUA CARLOS JOSE BORSTENS - 50 AP.42 - AV            11702750                                                            000092
2SR. CAIXA, APOS O VENCIMENTO COBRAR 2% DE MULTA                                 NAO RECEBER APOS 30 DIAS DO VENCIMENTO.                                                                                                                                                                                                         10121900000000000001012190000000000000       0090339900006270655841121928000093
100000000000000000000009033990000627000000000000000000000000010002020001616912191100000000002            2  01016169121924121900000002650010000000001N091219000000000000000000000000000000000000000000000000000000000000000100001616913827CLAUDIO LUIZ PAULELLA                   PRACA NESTOR DOS SANTOS ARRUDA - 26 - VI            13920000                                                            000095
2SR. CAIXA, APOS O VENCIMENTO COBRAR 2% DE MULTA                                 NAO RECEBER APOS 30 DIAS DO VENCIMENTO.                                                                                                                                                                                                         10121900000000000001012190000000000000       0090339900006270016169121911000096
100000000000000000000009033990000627000000000000000000000000010002020006684612191200000000002            2  01066846121926121900000001928060000000001N091219000000000000000000000000000000000000000000000000000000000000000100006684623884LAUDINOR VIEIRA GARCIA                  RUA CANDIDO SALES - 374 - JARDIM PRESIDE            07172000                                                            000098
2SR. CAIXA, APOS O VENCIMENTO COBRAR 2% DE MULTA                                 NAO RECEBER APOS 30 DIAS DO VENCIMENTO.                                                                                                                                                                                                         10121900000000000001012190000000000000       0090339900006270066846121912000099
100000000000000000000009033990000627000000000000000000000000010002020011663512191300000000002            2  01116635121926121900000001941970000000001N091219000000000000000000000000000000000000000000000000000000000000000100011663589844MARIA SAVIO QUARELLO                    AVENIDA MENDONCA DRUMOND - 321 - JARDIM             03524030                                                            000101
2SR. CAIXA, APOS O VENCIMENTO COBRAR 2% DE MULTA                                 NAO RECEBER APOS 30 DIAS DO VENCIMENTO.                                                                                                                                                                                                         10121900000000000001012190000000000000       0090339900006270116635121913000102
100000000000000000000009033990000627000000000000000000000000010002020010083812191500000000002            2  01100838121926121900000001876240000000001N091219000000000000000000000000000000000000000000000000000000000000000100010083824855IONE FERREIRA COUTO DA SILVA            RUA JOSE RAGEL DE MESQUITA - 60 CS.01 -             07799999                                                            000104
2SR. CAIXA, APOS O VENCIMENTO COBRAR 2% DE MULTA                                 NAO RECEBER APOS 30 DIAS DO VENCIMENTO.                                                                                                                                                                                                         10121900000000000001012190000000000000       0090339900006270100838121915000105
100000000000000000000009033990000627000000000000000000000000010002020036881712191800000000002            2  01368817121926121900000001841210000000001N091219000000000000000000000000000000000000000000000000000000000000000100036881778864ANDRE GONZALEZ RABELLO                  RUA PARAIBA - 106 AP.61 - POMPEIA - SANT            11065470                                                            000107
2SR. CAIXA, APOS O VENCIMENTO COBRAR 2% DE MULTA                                 NAO RECEBER APOS 30 DIAS DO VENCIMENTO.                                                                                                                                                                                                         10121900000000000001012190000000000000       0090339900006270368817121918000108
100000000000000000000009033990000627000000000000000000000000010002020018207012191700000000002            2  01182070121924121900000002537940000000001N091219000000000000000000000000000000000000000000000000000000000000000100018207096802ROBERTO VALENTE TAVARES                 RUA SEBASTIAO GOMES - 218 - JARDIM SANTO            13835000                                                            000110
2SR. CAIXA, APOS O VENCIMENTO COBRAR 2% DE MULTA                                 NAO RECEBER APOS 30 DIAS DO VENCIMENTO.                                                                                                                                                                                                         10121900000000000001012190000000000000       0090339900006270182070121917000111
100000000000000000000009033990000627000000000000000000000000010002020005351012191P00000000002            2  01053510121926121900000001726330000000001N091219000000000000000000000000000000000000000000000000000000000000000100005351015897VALERIA ALVES MARCOLINO HINNIGER        RUA MONGOLIA - 230 AP.71 BL.4 - PARQUE N            09280220                                                            000113
2SR. CAIXA, APOS O VENCIMENTO COBRAR 2% DE MULTA                                 NAO RECEBER APOS 30 DIAS DO VENCIMENTO.                                                                                                                                                                                                         10121900000000000001012190000000000000       009033990000627005351012191P000114
100000000000000000000009033990000627000000000000000000000000010002020031898712191500000000002            2  01318987121924121900000002746540000000001N091219000000000000000000000000000000000000000000000000000000000000000100031898775800ANITA MARTINS COLOMBO                   RUA CARLOS JOSE BORSTENS - 50 AP.115 - A            11702750                                                            000116
2SR. CAIXA, APOS O VENCIMENTO COBRAR 2% DE MULTA                                 NAO RECEBER APOS 30 DIAS DO VENCIMENTO.                                                                                                                                                                                                         10121900000000000001012190000000000000       0090339900006270318987121915000117
100000000000000000000009033990000627000000000000000000000000010002020037983412191500000000002            2  01379834121926121900000002027860000000001N091219000000000000000000000000000000000000000000000000000000000000000100037983484801JOSE ERIVALDO SOUZA DO NASCIMENTO RAMOS RUA LETICIA - 250 - JARDIM GUARUJA - SAO            05877260                                                            000119
2SR. CAIXA, APOS O VENCIMENTO COBRAR 2% DE MULTA                                 NAO RECEBER APOS 30 DIAS DO VENCIMENTO.                                                                                                                                                                                                         10121900000000000001012190000000000000       0090339900006270379834121915000120
100000000000000000000009033990000627000000000000000000000000010002020056289212191600000000002            2  01562892121926121900000001531940000000001N091219000000000000000000000000000000000000000000000000000000000000000100056289286900PEDRO RIBEIRO                           RUA CONEGO MANOEL VAZ - 48 - SANTANA - S            02019050                                                            000122
2SR. CAIXA, APOS O VENCIMENTO COBRAR 2% DE MULTA                                 NAO RECEBER APOS 30 DIAS DO VENCIMENTO.                                                                                                                                                                                                         10121900000000000001012190000000000000       0090339900006270562892121916000123
100000000000000000000009033990000627000000000000000000000000010002020005025512191P00000000002            2  01050255121926121900000002180130000000001N091219000000000000000000000000000000000000000000000000000000000000000100005025595860CONCEICAO APARECIDA DE MESQUITA PEREIRA RUA TRIUNFO - 835 AP.105 - JARDIM SAO LU            14020670                                                            000125
2SR. CAIXA, APOS O VENCIMENTO COBRAR 2% DE MULTA                                 NAO RECEBER APOS 30 DIAS DO VENCIMENTO.                                                                                                                                                                                                         10121900000000000001012190000000000000       009033990000627005025512191P000126
100000000000000000000009033990000627000000000000000000000000010002020034735312191200000000002            2  01347353121926121900000002102490000000001N091219000000000000000000000000000000000000000000000000000000000000000100034735328866DIEGO FELIPE MOLINA DA SILVA E SOUSA    RUA EMILIA PAULISTA - 135 - VILA TIRADEN            05364020                                                            000128
2SR. CAIXA, APOS O VENCIMENTO COBRAR 2% DE MULTA                                 NAO RECEBER APOS 30 DIAS DO VENCIMENTO.                                                                                                                                                                                                         10121900000000000001012190000000000000       0090339900006270347353121912000129
100000000000000000000009033990000627000000000000000000000000010002020076175612191300000000002            2  01761756121924121900000003811590000000001N091219000000000000000000000000000000000000000000000000000000000000000100076175685687GILMAR DE OLIVEIRA BRAGA                RUA MARACAJU - 161 AP.202 - NOVA GRANADA            30431350                                                            000131
2SR. CAIXA, APOS O VENCIMENTO COBRAR 2% DE MULTA                                 NAO RECEBER APOS 30 DIAS DO VENCIMENTO.                                                                                                                                                                                                         10121900000000000001012190000000000000       0090339900006270761756121913000132
100000000000000000000009033990000627000000000000000000000000010002020034812212191600000000002            2  01348122121924121900000003635160000000001N091219000000000000000000000000000000000000000000000000000000000000000100034812226880THAIS TORQUATO MIMOSO DE JESUS          RUA ARNALDO CINTRA - 416 AP.104 TORRE 2             03088000                                                            000134
2SR. CAIXA, APOS O VENCIMENTO COBRAR 2% DE MULTA                                 NAO RECEBER APOS 30 DIAS DO VENCIMENTO.                                                                                                                                                                                                         10121900000000000001012190000000000000       0090339900006270348122121916000135
100000000000000000000009033990000627000000000000000000000000010002020012849412191200000000002            2  01128494121926121900000003622070000000001N091219000000000000000000000000000000000000000000000000000000000000000100012849428809MOISES CLAUDIO DO ROSARIO               AVENIDA DR. AUGUSTO DE TOLEDO - 510 AP.1            09541520                                                            000137
2SR. CAIXA, APOS O VENCIMENTO COBRAR 2% DE MULTA                                 NAO RECEBER APOS 30 DIAS DO VENCIMENTO.                                                                                                                                                                                                         10121900000000000001012190000000000000       0090339900006270128494121912000138
100000000000000000000009033990000627000000000000000000000000010002020015702312191200000000002            2  01157023121926121900000002009600000000001N091219000000000000000000000000000000000000000000000000000000000000000100015702353846MARIA DE LOURDES DE MACENO SOUZA        RUA JOSE CALIXTO DO CARMO - 286 AP.83 -             11702690                                                            000140
2SR. CAIXA, APOS O VENCIMENTO COBRAR 2% DE MULTA                                 NAO RECEBER APOS 30 DIAS DO VENCIMENTO.                                                                                                                                                                                                         10121900000000000001012190000000000000       0090339900006270157023121912000141
100000000000000000000009033990000627000000000000000000000000010002020006749712191400000000002            2  01067497121923121900000001960630000000001N091219000000000000000000000000000000000000000000000000000000000000000100006749731600MARCELA DA ROCHA REIS                   RUA COLOMBIA - 665 AP.1204 - JARDIM GUIL            11702020                                                            000143
2SR. CAIXA, APOS O VENCIMENTO COBRAR 2% DE MULTA                                 NAO RECEBER APOS 30 DIAS DO VENCIMENTO.                                                                                                                                                                                                         10121900000000000001012190000000000000       0090339900006270067497121914000144
100000000000000000000009033990000627000000000000000000000000010002020006749712192200000000002            2  01067497121923121900000001960630000000001N091219000000000000000000000000000000000000000000000000000000000000000100006749731600MARCELA DA ROCHA REIS                   RUA COLOMBIA - 665 AP.1204 - JARDIM GUIL            11702020                                                            000146
2SR. CAIXA, APOS O VENCIMENTO COBRAR 2% DE MULTA                                 NAO RECEBER APOS 30 DIAS DO VENCIMENTO.                                                                                                                                                                                                         10121900000000000001012190000000000000       0090339900006270067497121922000147
100000000000000000000009033990000627000000000000000000000000010002020003658612191700000000002            2  01036586121926121900000001496350000000001N091219000000000000000000000000000000000000000000000000000000000000000100003658668814MARINEZ VALENTIN                        RUA JOSE CALIXTO DO CARMO - 286 AP.95 -             11702690                                                            000149
2SR. CAIXA, APOS O VENCIMENTO COBRAR 2% DE MULTA                                 NAO RECEBER APOS 30 DIAS DO VENCIMENTO.                                                                                                                                                                                                         10121900000000000001012190000000000000       0090339900006270036586121917000150
100000000000000000000009033990000627000000000000000000000000010002020014087412191500000000002            2  01140874121926121900000001999740000000001N091219000000000000000000000000000000000000000000000000000000000000000100014087484874SERGIO SANTOS DO NASCIMENTO             RUA PANTALEAO BRAZ - 21 - JARDIM ESTER -            05372080                                                            000152
2SR. CAIXA, APOS O VENCIMENTO COBRAR 2% DE MULTA                                 NAO RECEBER APOS 30 DIAS DO VENCIMENTO.                                                                                                                                                                                                         10121900000000000001012190000000000000       0090339900006270140874121915000153
9                                                                                                                                                                                                                                                                                                                                                                                                         000154