01REMESSA01COBRANCA       00000000000008017025HB SANTOS CONSTRUTORA E INCORP237BRADESCO       010120        MX0000094                                                                                                                                                                                                                                                                                     000001
100000000000000000000009033990000627000000000000000000000000010002020029671501201300000000002            2  01296715012009012000000002608890000000001N010120000000000000000000000000000000000000000000000000000000000000000100029671526845ROGERIO CONSENTINO                      RUA CARLOS MAZER  - 678 - VILA CARMOSINA            08290700                                                            000002
2SR. CAIXA, APOS O VENCIMENTO COBRAR 2% DE MULTA                                 NAO RECEBER APOS 30 DIAS DO VENCIMENTO.                                                                                                                                                                                                         01012000000000000000101200000000000000       0090339900006270296715012013000003
100000000000000000000009033990000627000000000000000000000000010002020003863001201500000000002            2  01038630012009012000000002464310000000001N010120000000000000000000000000000000000000000000000000000000000000000100003863075803HERALDO MENQUINI                        RUA CARLOS JOSE BORSTENS - 50 AP.15 - AV            11702750                                                            000005
2SR. CAIXA, APOS O VENCIMENTO COBRAR 2% DE MULTA                                 NAO RECEBER APOS 30 DIAS DO VENCIMENTO.                                                                                                                                                                                                         01012000000000000000101200000000000000       0090339900006270038630012015000006
100000000000000000000009033990000627000000000000000000000000010002020029028401201200000000002            2  01290284012009012000000002524440000000001N010120000000000000000000000000000000000000000000000000000000000000000100029028478825LEONARDO LOUZADA                        RUA CARLOS JOSE BORSTENS - 50 AP.35 - AV            11702750                                                            000008
2SR. CAIXA, APOS O VENCIMENTO COBRAR 2% DE MULTA                                 NAO RECEBER APOS 30 DIAS DO VENCIMENTO.                                                                                                                                                                                                         01012000000000000000101200000000000000       0090339900006270290284012012000009
100000000000000000000009033990000627000000000000000000000000010002020032878501201P00000000002            2  01328785012009012000000003648330000000001N010120000000000000000000000000000000000000000000000000000000000000000100032878512847LEONARDO MOURA MONIZ CALDEIRA           RUA BALSA - 682 AP.134 T.02 - VILA ARCAD            02910000                                                            000011
2SR. CAIXA, APOS O VENCIMENTO COBRAR 2% DE MULTA                                 NAO RECEBER APOS 30 DIAS DO VENCIMENTO.                                                                                                                                                                                                         01012000000000000000101200000000000000       009033990000627032878501201P000012
100000000000000000000009033990000627000000000000000000000000010002020016479001201700000000002            2  01164790012009012000000003881160000000001N010120000000000000000000000000000000000000000000000000000000000000000100016479002806LOURDES PEREIRA DE QUEIROZ SECANECHIA   RUA PAULINO CURSI - 437 - CIDADE SAO MAT            03960060                                                            000014
2SR. CAIXA, APOS O VENCIMENTO COBRAR 2% DE MULTA                                 NAO RECEBER APOS 30 DIAS DO VENCIMENTO.                                                                                                                                                                                                         01012000000000000000101200000000000000       0090339900006270164790012017000015
100000000000000000000009033990000627000000000000000000000000010002020019635001201400000000002            2  01196350012009012000000002863620000000001N010120000000000000000000000000000000000000000000000000000000000000000100019635091885IVAN VIEIRA SILVA                       ABRAO JORGE - 3001 - JARDIM INTEGRACAO -            14405397                                                            000017
2SR. CAIXA, APOS O VENCIMENTO COBRAR 2% DE MULTA                                 NAO RECEBER APOS 30 DIAS DO VENCIMENTO.                                                                                                                                                                                                         01012000000000000000101200000000000000       0090339900006270196350012014000018
100000000000000000000009033990000627000000000000000000000000010002020009361401201400000000002            2  01093614012009012000000002817740000000001N010120000000000000000000000000000000000000000000000000000000000000000100009361471805JOSE BARBOSA DA SILVA                   RUA ALFREDO INACIO TRINDADE  - 60 AP.44             02344100                                                            000020
2SR. CAIXA, APOS O VENCIMENTO COBRAR 2% DE MULTA                                 NAO RECEBER APOS 30 DIAS DO VENCIMENTO.                                                                                                                                                                                                         01012000000000000000101200000000000000       0090339900006270093614012014000021
100000000000000000000009033990000627000000000000000000000000010002020012756901201800000000002            2  01127569012009012000000002432320000000001N010120000000000000000000000000000000000000000000000000000000000000000100012756959812ITAMAR JUVENAL DIAS DA SILVA            RUA ELISEU REINALDO MORAES VIEIRA - 90 A            02858000                                                            000023
2SR. CAIXA, APOS O VENCIMENTO COBRAR 2% DE MULTA                                 NAO RECEBER APOS 30 DIAS DO VENCIMENTO.                                                                                                                                                                                                         01012000000000000000101200000000000000       0090339900006270127569012018000024
100000000000000000000009033990000627000000000000000000000000010002020002731001201500000000002            2  01027310012009012000000002875660000000001N010120000000000000000000000000000000000000000000000000000000000000000100002731042842VALTER CERQUEIRA VILLA NOVA             RUA MACHADO - 106 - VILA AUGUSTA - GUARU            07025210                                                            000026
2SR. CAIXA, APOS O VENCIMENTO COBRAR 2% DE MULTA                                 NAO RECEBER APOS 30 DIAS DO VENCIMENTO.                                                                                                                                                                                                         01012000000000000000101200000000000000       0090339900006270027310012015000027
100000000000000000000009033990000627000000000000000000000000010002020002731001202300000000002            2  01027310012009012000000002875650000000001N010120000000000000000000000000000000000000000000000000000000000000000100002731042842VALTER CERQUEIRA VILLA NOVA             RUA MACHADO - 106 - VILA AUGUSTA - GUARU            07025210                                                            000029
2SR. CAIXA, APOS O VENCIMENTO COBRAR 2% DE MULTA                                 NAO RECEBER APOS 30 DIAS DO VENCIMENTO.                                                                                                                                                                                                         01012000000000000000101200000000000000       0090339900006270027310012023000030
100000000000000000000009033990000627000000000000000000000000010002020028802101201300000000002            2  01288021012009012000000002596650000000001N010120000000000000000000000000000000000000000000000000000000000000000100028802158894ELIEL HENRIQUE ZUZA                     RUA CARLOS JOSE BORSTENS - 50 AP.43 - BA            11702750                                                            000032
2SR. CAIXA, APOS O VENCIMENTO COBRAR 2% DE MULTA                                 NAO RECEBER APOS 30 DIAS DO VENCIMENTO.                                                                                                                                                                                                         01012000000000000000101200000000000000       0090339900006270288021012013000033
100000000000000000000009033990000627000000000000000000000000010002020008739101201700000000002            2  01087391012009012000000002428540000000001N010120000000000000000000000000000000000000000000000000000000000000000100008739150895VANGEVALDO BATISTA SANT ANNA            TRAVESSA TOMAZIN - 02 - ERMELINO MATARAZ            03811125                                                            000035
2SR. CAIXA, APOS O VENCIMENTO COBRAR 2% DE MULTA                                 NAO RECEBER APOS 30 DIAS DO VENCIMENTO.                                                                                                                                                                                                         01012000000000000000101200000000000000       0090339900006270087391012017000036
100000000000000000000009033990000627000000000000000000000000010002020005313701201300000000002            2  01053137012011012000000002098980000000001N010120000000000000000000000000000000000000000000000000000000000000000100005313717863EDIMICIO JOSE DE ARAUJO                 PRACA NICOLAU GERAIGIRE - 680 CA A - JAR            11095110                                                            000038
2SR. CAIXA, APOS O VENCIMENTO COBRAR 2% DE MULTA                                 NAO RECEBER APOS 30 DIAS DO VENCIMENTO.                                                                                                                                                                                                         01012000000000000000101200000000000000       0090339900006270053137012013000039
100000000000000000000009033990000627000000000000000000000000010002020029433601201100000000002            2  01294336012011012000000011112800000000001N010120000000000000000000000000000000000000000000000000000000000000000100029433631897MARIO MUNIZ                             RUA JOSE CALIXTO DO CARMO - 286 AP.53 -             11702690                                                            000041
2SR. CAIXA, APOS O VENCIMENTO COBRAR 2% DE MULTA                                 NAO RECEBER APOS 30 DIAS DO VENCIMENTO.                                                                                                                                                                                                         01012000000000000000101200000000000000       0090339900006270294336012011000042
100000000000000000000009033990000627000000000000000000000000010002020001847201201P00000000002            2  01018472012011012000000001856340000000001N010120000000000000000000000000000000000000000000000000000000000000000100001847204864AMERICA CONCEICAO DA SILVA              RUA JOSE CALIXTO DO CARMO - 286 AP.44 -             11702690                                                            000044
2SR. CAIXA, APOS O VENCIMENTO COBRAR 2% DE MULTA                                 NAO RECEBER APOS 30 DIAS DO VENCIMENTO.                                                                                                                                                                                                         01012000000000000000101200000000000000       009033990000627001847201201P000045
100000000000000000000009033990000627000000000000000000000000010002020005029801201400000000002            2  01050298012009012000000002479900000000001N010120000000000000000000000000000000000000000000000000000000000000000100005029828885LAURINETE DA CONCEICAO DE NORONHA       RUA MARIA LUCIA DE TOLEDO LEITE MORAES -            04434040                                                            000047
2SR. CAIXA, APOS O VENCIMENTO COBRAR 2% DE MULTA                                 NAO RECEBER APOS 30 DIAS DO VENCIMENTO.                                                                                                                                                                                                         01012000000000000000101200000000000000       0090339900006270050298012014000048
100000000000000000000009033990000627000000000000000000000000010002020013388901201600000000002            2  01133889012011012000000001965680000000001N010120000000000000000000000000000000000000000000000000000000000000000100013388936889NEUTON DE SOUZA RAMOS                   RUA MARIA CRISTINA - 932 - JARDIM CASQUE            11533160                                                            000050
2SR. CAIXA, APOS O VENCIMENTO COBRAR 2% DE MULTA                                 NAO RECEBER APOS 30 DIAS DO VENCIMENTO.                                                                                                                                                                                                         01012000000000000000101200000000000000       0090339900006270133889012016000051
100000000000000000000009033990000627000000000000000000000000010002020012774901201600000000002            2  01127749012011012000000002002590000000001N010120000000000000000000000000000000000000000000000000000000000000000100012774906865JOSE MILTON SANTIAGO                    RUA BATATAIS - 47 - CIDADE ESTELA - POA             08563140                                                            000053
2SR. CAIXA, APOS O VENCIMENTO COBRAR 2% DE MULTA                                 NAO RECEBER APOS 30 DIAS DO VENCIMENTO.                                                                                                                                                                                                         01012000000000000000101200000000000000       0090339900006270127749012016000054
100000000000000000000009033990000627000000000000000000000000010002020016294101201100000000002            2  01162941012009012000000002462110000000001N010120000000000000000000000000000000000000000000000000000000000000000100016294119812JURACY FELIX DE ARRUDA                  RUA CARLOS JOSE BORSTENS - 50 AP.23 - AV            11702750                                                            000056
2SR. CAIXA, APOS O VENCIMENTO COBRAR 2% DE MULTA                                 NAO RECEBER APOS 30 DIAS DO VENCIMENTO.                                                                                                                                                                                                         01012000000000000000101200000000000000       0090339900006270162941012011000057
100000000000000000000009033990000627000000000000000000000000010002020005613801201600000000002            2  01056138012011012000000001841830000000001N010120000000000000000000000000000000000000000000000000000000000000000100005613843805NILZA MARIA DE OLIVEIRA                 RUA JOSE GONCALVES DE FREITAS - 66 C2 -             08210550                                                            000059
2SR. CAIXA, APOS O VENCIMENTO COBRAR 2% DE MULTA                                 NAO RECEBER APOS 30 DIAS DO VENCIMENTO.                                                                                                                                                                                                         01012000000000000000101200000000000000       0090339900006270056138012016000060
100000000000000000000009033990000627000000000000000000000000010002020007574901201600000000002            2  01075749012011012000000001890590000000001N010120000000000000000000000000000000000000000000000000000000000000000100007574936889JORGE LUCIANO PEREIRA BORRIELLO         RUA JOSE CALIXTO DO CARMO - 286 AP.54 -             11702690                                                            000062
2SR. CAIXA, APOS O VENCIMENTO COBRAR 2% DE MULTA                                 NAO RECEBER APOS 30 DIAS DO VENCIMENTO.                                                                                                                                                                                                         01012000000000000000101200000000000000       0090339900006270075749012016000063
100000000000000000000009033990000627000000000000000000000000010002020032408101201900000000002            2  01324081012011012000000002175720000000001N010120000000000000000000000000000000000000000000000000000000000000000100032408151848DEILSON DO NASCIMENTO CANDIDO DA SILVA  RUA JOSE CALIXTO DO CARMO - 286 AP.62 -             11702690                                                            000065
2SR. CAIXA, APOS O VENCIMENTO COBRAR 2% DE MULTA                                 NAO RECEBER APOS 30 DIAS DO VENCIMENTO.                                                                                                                                                                                                         01012000000000000000101200000000000000       0090339900006270324081012019000066
100000000000000000000009033990000627000000000000000000000000010002020008214901201900000000002            2  01082149012011012000000001919290000000001N010120000000000000000000000000000000000000000000000000000000000000000100008214973830JAMIL CHALA                             RUA JOSE CALIXTO DO CARMO - 286 AP.22 -             11702690                                                            000068
2SR. CAIXA, APOS O VENCIMENTO COBRAR 2% DE MULTA                                 NAO RECEBER APOS 30 DIAS DO VENCIMENTO.                                                                                                                                                                                                         01012000000000000000101200000000000000       0090339900006270082149012019000069
100000000000000000000009033990000627000000000000000000000000010002020032495001201600000000002            2  01324950012011012000000002150800000000001N010120000000000000000000000000000000000000000000000000000000000000000100032495004881PAULO EDUARDO DOS SANTOS                RUA REPUBLICA DO IRAQUE - 1119 - CAMPO B            04611002                                                            000071
2SR. CAIXA, APOS O VENCIMENTO COBRAR 2% DE MULTA                                 NAO RECEBER APOS 30 DIAS DO VENCIMENTO.                                                                                                                                                                                                         01012000000000000000101200000000000000       0090339900006270324950012016000072
100000000000000000000009033990000627000000000000000000000000010002020006471801201600000000002            2  01064718012009012000000002424000000000001N010120000000000000000000000000000000000000000000000000000000000000000100006471825803JOSIVALDO BASTOS DE OLIVEIRA            RUA MARIA DIAS HOG - 263 - PARQUE CONTIN            07085035                                                            000074
2SR. CAIXA, APOS O VENCIMENTO COBRAR 2% DE MULTA                                 NAO RECEBER APOS 30 DIAS DO VENCIMENTO.                                                                                                                                                                                                         01012000000000000000101200000000000000       0090339900006270064718012016000075
100000000000000000000009033990000627000000000000000000000000010002020038856801201200000000002            2  01388568012011012000000001993840000000001N010120000000000000000000000000000000000000000000000000000000000000000100038856851830FELIPE BIANCHI DA COSTA FREITAS         RUA JOSE CALIXTO DO CARMO - 286 AP.23 -             11702690                                                            000077
2SR. CAIXA, APOS O VENCIMENTO COBRAR 2% DE MULTA                                 NAO RECEBER APOS 30 DIAS DO VENCIMENTO.                                                                                                                                                                                                         01012000000000000000101200000000000000       0090339900006270388568012012000078
100000000000000000000009033990000627000000000000000000000000010002020016498001201300000000002            2  01164980012011012000000001886300000000001N010120000000000000000000000000000000000000000000000000000000000000000100016498053810GILMA CEZARIO GARCIA CORRITORI          RUA LAURENTINO XAVIER DOS SANTOS - 336 -            08240740                                                            000080
2SR. CAIXA, APOS O VENCIMENTO COBRAR 2% DE MULTA                                 NAO RECEBER APOS 30 DIAS DO VENCIMENTO.                                                                                                                                                                                                         01012000000000000000101200000000000000       0090339900006270164980012013000081
100000000000000000000009033990000627000000000000000000000000010002020029339001201200000000002            2  01293390012011012000000002017070000000001N010120000000000000000000000000000000000000000000000000000000000000000100029339051831RONALD DIDOFF                           RUA CORONEL FERREIRA BRAGA - 188 - VILA             03522010                                                            000083
2SR. CAIXA, APOS O VENCIMENTO COBRAR 2% DE MULTA                                 NAO RECEBER APOS 30 DIAS DO VENCIMENTO.                                                                                                                                                                                                         01012000000000000000101200000000000000       0090339900006270293390012012000084
100000000000000000000009033990000627000000000000000000000000010002020017357801201400000000002            2  01173578012011012000000002136260000000001N010120000000000000000000000000000000000000000000000000000000000000000100017357859894MARCIO GUIMARAES                        RUA GENERAL CAMARA - 188 SALA 11 - CENTR            11010120                                                            000086
2SR. CAIXA, APOS O VENCIMENTO COBRAR 2% DE MULTA                                 NAO RECEBER APOS 30 DIAS DO VENCIMENTO.                                                                                                                                                                                                         01012000000000000000101200000000000000       0090339900006270173578012014000087
100000000000000000000009033990000627000000000000000000000000010002020010563001201400000000002            2  01105630012011012000000002190870000000001N010120000000000000000000000000000000000000000000000000000000000000000100010563033878VERA LUCIA RIBEIRO LONGANEZI            RUA DOS CAMARES - 150 AP.24 BL.02 - CARA            02068030                                                            000089
2SR. CAIXA, APOS O VENCIMENTO COBRAR 2% DE MULTA                                 NAO RECEBER APOS 30 DIAS DO VENCIMENTO.                                                                                                                                                                                                         01012000000000000000101200000000000000       0090339900006270105630012014000090
100000000000000000000009033990000627000000000000000000000000010002020005529601201900000000002            2  01055296012011012000000001988130000000001N010120000000000000000000000000000000000000000000000000000000000000000100005529616801JOAQUIM JORGE DA COSTA                  RUA JOSE CALIXTO DO CARMO - 286 AP.106 -            11702690                                                            000092
2SR. CAIXA, APOS O VENCIMENTO COBRAR 2% DE MULTA                                 NAO RECEBER APOS 30 DIAS DO VENCIMENTO.                                                                                                                                                                                                         01012000000000000000101200000000000000       0090339900006270055296012019000093
100000000000000000000009033990000627000000000000000000000000010002020022014101201300000000002            2  01220141012011012000000001982340000000001N010120000000000000000000000000000000000000000000000000000000000000000100022014140847CAMILA SILVEIRA CANIZARES               AVENIDA PRESIDENTE CASTELO BRANCO - 5.74            11703650                                                            000095
2SR. CAIXA, APOS O VENCIMENTO COBRAR 2% DE MULTA                                 NAO RECEBER APOS 30 DIAS DO VENCIMENTO.                                                                                                                                                                                                         01012000000000000000101200000000000000       0090339900006270220141012013000096
100000000000000000000009033990000627000000000000000000000000010002020015550701201500000000002            2  01155507012009012000000001879750000000001N010120000000000000000000000000000000000000000000000000000000000000000100015550706806MARY MIWA                               RUA CARLOS JOSE BORSTENS - 50 AP.105 - A            11702750                                                            000098
2SR. CAIXA, APOS O VENCIMENTO COBRAR 2% DE MULTA                                 NAO RECEBER APOS 30 DIAS DO VENCIMENTO.                                                                                                                                                                                                         01012000000000000000101200000000000000       0090339900006270155507012015000099
100000000000000000000009033990000627000000000000000000000000010002020015464601201500000000002            2  01154646012011012000000002090000000000001N010120000000000000000000000000000000000000000000000000000000000000000100015464647864SONIA TERESA VOLPATO                    RUA JOSE CALIXTO DO CARMO - 286 AP.73 -             11702690                                                            000101
2SR. CAIXA, APOS O VENCIMENTO COBRAR 2% DE MULTA                                 NAO RECEBER APOS 30 DIAS DO VENCIMENTO.                                                                                                                                                                                                         01012000000000000000101200000000000000       0090339900006270154646012015000102
100000000000000000000009033990000627000000000000000000000000010002020008657801201400000000002            2  01086578012011012000000002069020000000001N010120000000000000000000000000000000000000000000000000000000000000000100008657886855ARLINDO DA CRUZ                         AVENIDA ARICANDUVA - 8.256 AP.54 BL.10 -            03951220                                                            000104
2SR. CAIXA, APOS O VENCIMENTO COBRAR 2% DE MULTA                                 NAO RECEBER APOS 30 DIAS DO VENCIMENTO.                                                                                                                                                                                                         01012000000000000000101200000000000000       0090339900006270086578012014000105
100000000000000000000009033990000627000000000000000000000000010002020004265701201400000000002            2  01042657012009012000000002769770000000001N010120000000000000000000000000000000000000000000000000000000000000000100004265781713ALEXANDRE CASADO COSTA                  RUA CARLOS JOSE BORSTENS - 50 AP.33 - AV            11702750                                                            000107
2SR. CAIXA, APOS O VENCIMENTO COBRAR 2% DE MULTA                                 NAO RECEBER APOS 30 DIAS DO VENCIMENTO.                                                                                                                                                                                                         01012000000000000000101200000000000000       0090339900006270042657012014000108
100000000000000000000009033990000627000000000000000000000000010002020059735101201200000000002            2  01597351012009012000000001169890000000001N010120000000000000000000000000000000000000000000000000000000000000000100059735180863HELIO JOSE MARQUES                      RUA MARTIM AFONSO DE SOUZA - 1007 AP.102            11702790                                                            000110
2SR. CAIXA, APOS O VENCIMENTO COBRAR 2% DE MULTA                                 NAO RECEBER APOS 30 DIAS DO VENCIMENTO.                                                                                                                                                                                                         01012000000000000000101200000000000000       0090339900006270597351012012000111
100000000000000000000009033990000627000000000000000000000000010002020026347801201600000000002            2  01263478012011012000000009088980000000001N010120000000000000000000000000000000000000000000000000000000000000000100026347872862VALDECI SILVA MEIRELES                  RUA JOSE BATISTA DA SILVA - 292 - JARDIM            06851470                                                            000113
2SR. CAIXA, APOS O VENCIMENTO COBRAR 2% DE MULTA                                 NAO RECEBER APOS 30 DIAS DO VENCIMENTO.                                                                                                                                                                                                         01012000000000000000101200000000000000       0090339900006270263478012016000114
100000000000000000000009033990000627000000000000000000000000010002020025443601201700000000002            2  01254436012009012000000004006630000000001N010120000000000000000000000000000000000000000000000000000000000000000100025443691830SILVANETE PEREIRA CARNELOS              RUA CARLOS JOSE BORSTENS - 50 AP.102 - A            11702750                                                            000116
2SR. CAIXA, APOS O VENCIMENTO COBRAR 2% DE MULTA                                 NAO RECEBER APOS 30 DIAS DO VENCIMENTO.                                                                                                                                                                                                         01012000000000000000101200000000000000       0090339900006270254436012017000117
100000000000000000000009033990000627000000000000000000000000010002020013135201201700000000002            2  01131352012011012000000002032030000000001N010120000000000000000000000000000000000000000000000000000000000000000100013135261859EDUARDO ZANOLA                          RUA ROLANDO PIETRO BONINI - 46 - JARDIM             09781040                                                            000119
2SR. CAIXA, APOS O VENCIMENTO COBRAR 2% DE MULTA                                 NAO RECEBER APOS 30 DIAS DO VENCIMENTO.                                                                                                                                                                                                         01012000000000000000101200000000000000       0090339900006270131352012017000120
100000000000000000000009033990000627000000000000000000000000010002020009797601201800000000002            2  01097976012011012000000001978990000000001N010120000000000000000000000000000000000000000000000000000000000000000100009797626857RICARDO SOBRAL DE OLIVEIRA              RUA 23 DE MAIO - 139 AP.32 - VILA MIRIM             11704690                                                            000122
2SR. CAIXA, APOS O VENCIMENTO COBRAR 2% DE MULTA                                 NAO RECEBER APOS 30 DIAS DO VENCIMENTO.                                                                                                                                                                                                         01012000000000000000101200000000000000       0090339900006270097976012018000123
100000000000000000000009033990000627000000000000000000000000010002020004767601201900000000002            2  01047676012009012000000003384020000000001N010120000000000000000000000000000000000000000000000000000000000000000100004767679893ORLANDO GRANDE FILHO                    RUA ORLANDO MIGLIARI - 101 - JARDIM OURO            19906140                                                            000125
2SR. CAIXA, APOS O VENCIMENTO COBRAR 2% DE MULTA                                 NAO RECEBER APOS 30 DIAS DO VENCIMENTO.                                                                                                                                                                                                         01012000000000000000101200000000000000       0090339900006270047676012019000126
100000000000000000000009033990000627000000000000000000000000010002020006512501201600000000002            2  01065125012011012000000001780190000000001N010120000000000000000000000000000000000000000000000000000000000000000100006512547870MARIA DO CARMO FAGUNDES DOS REIS        RUA CARLOS MALCHER - 98 - PARQUE EDU CHA            02232020                                                            000128
2SR. CAIXA, APOS O VENCIMENTO COBRAR 2% DE MULTA                                 NAO RECEBER APOS 30 DIAS DO VENCIMENTO.                                                                                                                                                                                                         01012000000000000000101200000000000000       0090339900006270065125012016000129
100000000000000000000009033990000627000000000000000000000000010002020022728401201900000000002            2  01227284012011012000000002141380000000001N010120000000000000000000000000000000000000000000000000000000000000000100022728497842WILLIAN DE SOUZA MELLO                  RUA JOSE CALIXTO DO CARMO - 286 AP.111 -            11702690                                                            000131
2SR. CAIXA, APOS O VENCIMENTO COBRAR 2% DE MULTA                                 NAO RECEBER APOS 30 DIAS DO VENCIMENTO.                                                                                                                                                                                                         01012000000000000000101200000000000000       0090339900006270227284012019000132
100000000000000000000009033990000627000000000000000000000000010002020016909701201300000000002            2  01169097012011012000000001892320000000001N010120000000000000000000000000000000000000000000000000000000000000000100016909746805EDIVALDO SANTANA DOS SANTOS             ESTRADA JOAO GASPAR DELGADO - 80 AP.213             08536100                                                            000134
2SR. CAIXA, APOS O VENCIMENTO COBRAR 2% DE MULTA                                 NAO RECEBER APOS 30 DIAS DO VENCIMENTO.                                                                                                                                                                                                         01012000000000000000101200000000000000       0090339900006270169097012013000135
100000000000000000000009033990000627000000000000000000000000010002020022036001201000000000002            2  01220360012009012000000002938560000000001N010120000000000000000000000000000000000000000000000000000000000000000100022036003818DERLIS TERAN QUIROGA ROGATO             RUA JOAO RIBEIRO - 709 AP.61 - CAMPESTRE            09070250                                                            000137
2SR. CAIXA, APOS O VENCIMENTO COBRAR 2% DE MULTA                                 NAO RECEBER APOS 30 DIAS DO VENCIMENTO.                                                                                                                                                                                                         01012000000000000000101200000000000000       0090339900006270220360012010000138
100000000000000000000009033990000627000000000000000000000000010002020017229701201900000000002            2  01172297012009012000000002835970000000001N010120000000000000000000000000000000000000000000000000000000000000000100017229751802BERENICE VIEIRA KERSTING                RUA ATIBAIA - 17 AP.417 - BAIRRO IMPERAD            11707380                                                            000140
2SR. CAIXA, APOS O VENCIMENTO COBRAR 2% DE MULTA                                 NAO RECEBER APOS 30 DIAS DO VENCIMENTO.                                                                                                                                                                                                         01012000000000000000101200000000000000       0090339900006270172297012019000141
100000000000000000000009033990000627000000000000000000000000010002020012475601201400000000002            2  01124756012011012000000002051160000000001N010120000000000000000000000000000000000000000000000000000000000000000100012475663820CELIDALVA GOES DE CARVALHO              RUA AURELIO BELOTTI JUNIOR - 28 - JARDIM            05759210                                                            000143
2SR. CAIXA, APOS O VENCIMENTO COBRAR 2% DE MULTA                                 NAO RECEBER APOS 30 DIAS DO VENCIMENTO.                                                                                                                                                                                                         01012000000000000000101200000000000000       0090339900006270124756012014000144
100000000000000000000009033990000627000000000000000000000000010002020033451601201100000000002            2  01334516012011012000000001712820000000001N010120000000000000000000000000000000000000000000000000000000000000000100033451620839ARAO ELISIARIO  NUNES                   RUA JOSE CALIXTO DO CARMO - 286 AP.64 -             11702690                                                            000146
2SR. CAIXA, APOS O VENCIMENTO COBRAR 2% DE MULTA                                 NAO RECEBER APOS 30 DIAS DO VENCIMENTO.                                                                                                                                                                                                         01012000000000000000101200000000000000       0090339900006270334516012011000147
100000000000000000000009033990000627000000000000000000000000010002020095758201201100000000002            2  01957582012011012000000002083040000000001N010120000000000000000000000000000000000000000000000000000000000000000100095758275891SHIRLEY TUNES ASTOLFI                   RUA GUAPERUVU - 656 AP.84 - VILA ARICAND            03504010                                                            000149
2SR. CAIXA, APOS O VENCIMENTO COBRAR 2% DE MULTA                                 NAO RECEBER APOS 30 DIAS DO VENCIMENTO.                                                                                                                                                                                                         01012000000000000000101200000000000000       0090339900006270957582012011000150
100000000000000000000009033990000627000000000000000000000000010002020045839201201900000000002            2  01458392012011012000000001329470000000001N010120000000000000000000000000000000000000000000000000000000000000000100045839263834LEONARDO ANTONIO CONCELLIERI            RUA JOSE CALIXTO DO CARMO - 286 AP.51 -             11702690                                                            000152
2SR. CAIXA, APOS O VENCIMENTO COBRAR 2% DE MULTA                                 NAO RECEBER APOS 30 DIAS DO VENCIMENTO.                                                                                                                                                                                                         01012000000000000000101200000000000000       0090339900006270458392012019000153
100000000000000000000009033990000627000000000000000000000000010002020011369101201P00000000002            2  01113691012011012000000001871080000000001N010120000000000000000000000000000000000000000000000000000000000000000100011369165803ELIANA CORREA DE OLIVEIRA               AVENIDA ELIAS MALUF - 2695 CASA 419 - WA            18055215                                                            000155
2SR. CAIXA, APOS O VENCIMENTO COBRAR 2% DE MULTA                                 NAO RECEBER APOS 30 DIAS DO VENCIMENTO.                                                                                                                                                                                                         01012000000000000000101200000000000000       009033990000627011369101201P000156
100000000000000000000009033990000627000000000000000000000000010002020026858601201600000000002            2  01268586012008012000000002631810000000001N010120000000000000000000000000000000000000000000000000000000000000000100026858625879GLAUCE FERREIRA DE OLIVEIRA FALSI       RUA CATULO DA PAIXAO CEARENSE - 190 AP.1            04145010                                                            000158
2SR. CAIXA, APOS O VENCIMENTO COBRAR 2% DE MULTA                                 NAO RECEBER APOS 30 DIAS DO VENCIMENTO.                                                                                                                                                                                                         01012000000000000000101200000000000000       0090339900006270268586012016000159
100000000000000000000009033990000627000000000000000000000000010002020002253801201300000000002            2  01022538012011012000000001663030000000001N010120000000000000000000000000000000000000000000000000000000000000000100002253816809EDMILSON ALVES DA SILVA                 ESTRADA SAO FRANCISCO - 2.008 AP.14 T.G             06764290                                                            000161
2SR. CAIXA, APOS O VENCIMENTO COBRAR 2% DE MULTA                                 NAO RECEBER APOS 30 DIAS DO VENCIMENTO.                                                                                                                                                                                                         01012000000000000000101200000000000000       0090339900006270022538012013000162
9                                                                                                                                                                                                                                                                                                                                                                                                         000163