01REMESSA01COBRANCA       00000000000004991781AIRES CONSTRUTORA E INCORPORAD237BRADESCO       010418        MX0000101                                                                                                                                                                                                                                                                                     000001
100000000000000000000009077090006612500000000000000000000000010002100094852204181100000000002            2  01948522041810041800000002181110000000001N010418000000000000000000000000000000000000000000000000000000000000000100094852294887GISELDA MENON                           RUA OTAVIO BARRETO - 105 - VILA SANTISTA            02560080                                                            000002
2SR. CAIXA, APOS O VENCIMENTO COBRAR 10% DE MULTA                                NAO RECEBER APOS 30 DIAS DO VENCIMENTO.                                                                                                                                                                                                         01041800000000000000104180000000000000       0090770900066125948522041811000003
100000000000000000000009077090006612500000000000000000000000010002100006485904181800000000002            2  01064859041810041800000003345120000000001N010418000000000000000000000000000000000000000000000000000000000000000100006485911820CELIO MANUEL  MELIM SANTO               RUA JUVENAL FERREIRA  - 85 AP.61 - VILA             03512040                                                            000005
2SR. CAIXA, APOS O VENCIMENTO COBRAR 10% DE MULTA                                NAO RECEBER APOS 30 DIAS DO VENCIMENTO.                                                                                                                                                                                                         01041800000000000000104180000000000000       0090770900066125064859041818000006
100000000000000000000009077090006612500000000000000000000000010002100004693804181700000000002            2  01046938041810041800000002915520000000001N010418000000000000000000000000000000000000000000000000000000000000000100004693857823NIVALDO BARTOLOMEU FERREIRA             MNS JOSE MARINONI  - 33 - SANTO AMARO -             04430350                                                            000008
2SR. CAIXA, APOS O VENCIMENTO COBRAR 10% DE MULTA                                NAO RECEBER APOS 30 DIAS DO VENCIMENTO.                                                                                                                                                                                                         01041800000000000000104180000000000000       0090770900066125046938041817000009
100000000000000000000009077090006612500000000000000000000000010002100027993104181600000000002            2  01279931041810041800000002776230000000001N010418000000000000000000000000000000000000000000000000000000000000000100027993108853DALVA JESUS RODRIGUES CABRAL            RUA CRISTOVAO COLOMBO GONCALVES - 97 - C            04811050                                                            000011
2SR. CAIXA, APOS O VENCIMENTO COBRAR 10% DE MULTA                                NAO RECEBER APOS 30 DIAS DO VENCIMENTO.                                                                                                                                                                                                         01041800000000000000104180000000000000       0090770900066125279931041816000012
100000000000000000000009077090006612500000000000000000000000010002100000455404181500000000002            2  01004554041810041800000002883860000000001N010418000000000000000000000000000000000000000000000000000000000000000100000455495831PAULO HENRIQUE LOURENCO                 RUA FIGUEIRA  - 237 - CIDADE DAS FLORES             06184060                                                            000014
2SR. CAIXA, APOS O VENCIMENTO COBRAR 10% DE MULTA                                NAO RECEBER APOS 30 DIAS DO VENCIMENTO.                                                                                                                                                                                                         01041800000000000000104180000000000000       0090770900066125004554041815000015
100000000000000000000009077090006612500000000000000000000000010002100006140004181600000000002            2  01061400041810041800000003576390000000001N010418000000000000000000000000000000000000000000000000000000000000000100006140049857MARIA ALBANI DA SILVA EUSEBIO           RUA ORLANDO SEGALA - 108 - JARDIM ADRIAN            07135190                                                            000017
2SR. CAIXA, APOS O VENCIMENTO COBRAR 10% DE MULTA                                NAO RECEBER APOS 30 DIAS DO VENCIMENTO.                                                                                                                                                                                                         01041800000000000000104180000000000000       0090770900066125061400041816000018
100000000000000000000009077090006612500000000000000000000000010002100002324704181000000000002            2  01023247041810041800000003507040000000001N010418000000000000000000000000000000000000000000000000000000000000000100002324785897IZILDA NAPOLI                           RUA MONTE CASTELO - 295 AP.71 - AVIACAO             11702720                                                            000020
2SR. CAIXA, APOS O VENCIMENTO COBRAR 10% DE MULTA                                NAO RECEBER APOS 30 DIAS DO VENCIMENTO.                                                                                                                                                                                                         01041800000000000000104180000000000000       0090770900066125023247041810000021
100000000000000000000009077090006612500000000000000000000000010002100007768704181500000000002            2  01077687041810041800000003633000000000001N010418000000000000000000000000000000000000000000000000000000000000000100007768713826FATIMA LUZIA BIANCHI                    DR. OLIDAIR AMBROSIO - 1487 AP.03 - CENT            14160170                                                            000023
2SR. CAIXA, APOS O VENCIMENTO COBRAR 10% DE MULTA                                NAO RECEBER APOS 30 DIAS DO VENCIMENTO.                                                                                                                                                                                                         01041800000000000000104180000000000000       0090770900066125077687041815000024
100000000000000000000009077090006612500000000000000000000000010002100021716804181200000000002            2  01217168041810041800000003579070000000001N010418000000000000000000000000000000000000000000000000000000000000000100021716847800DANIELLE FAGUNDES DE A.MATOS            CONDE MOREIRA LIMA - 644 - JARDIM JABAQU            04384032                                                            000026
2SR. CAIXA, APOS O VENCIMENTO COBRAR 10% DE MULTA                                NAO RECEBER APOS 30 DIAS DO VENCIMENTO.                                                                                                                                                                                                         01041800000000000000104180000000000000       0090770900066125217168041812000027
100000000000000000000009077090006612500000000000000000000000010002100085416904181600000000002            2  01854169041810041800000003034020000000001N010418000000000000000000000000000000000000000000000000000000000000000100085416940891ANTONIO DE SOUSA MENDES                 RUA MONTE CASTELO - 296 AP.52 - AVIACAO             11702720                                                            000029
2SR. CAIXA, APOS O VENCIMENTO COBRAR 10% DE MULTA                                NAO RECEBER APOS 30 DIAS DO VENCIMENTO.                                                                                                                                                                                                         01041800000000000000104180000000000000       0090770900066125854169041816000030
100000000000000000000009077090006612500000000000000000000000010002100005678004181P00000000002            2  01056780041810041800000003159890000000001N010418000000000000000000000000000000000000000000000000000000000000000100005678057863FABIO MOREIRA CAMPOS                    RUA FLORENCIO DA SILVA - 284 - VILA LIBA            03738070                                                            000032
2SR. CAIXA, APOS O VENCIMENTO COBRAR 10% DE MULTA                                NAO RECEBER APOS 30 DIAS DO VENCIMENTO.                                                                                                                                                                                                         01041800000000000000104180000000000000       009077090006612505678004181P000033
100000000000000000000009077090006612500000000000000000000000010002100007784404181600000000002            2  01077844041810041800000003190760000000001N010418000000000000000000000000000000000000000000000000000000000000000100007784496885GUILHERME LEONARDO DO NASCIMENTO        COMENDADOR RUBENS RONCARE - 127 - PONTE             11530120                                                            000035
2SR. CAIXA, APOS O VENCIMENTO COBRAR 10% DE MULTA                                NAO RECEBER APOS 30 DIAS DO VENCIMENTO.                                                                                                                                                                                                         01041800000000000000104180000000000000       0090770900066125077844041816000036
100000000000000000000009077090006612500000000000000000000000010002100016348204181600000000002            2  01163482041810041800000003082720000000001N010418000000000000000000000000000000000000000000000000000000000000000100016348237885AILTON LORENA                           AVENIDA BRASILIA - 194 - BELA VISTA - SA            09180260                                                            000038
2SR. CAIXA, APOS O VENCIMENTO COBRAR 10% DE MULTA                                NAO RECEBER APOS 30 DIAS DO VENCIMENTO.                                                                                                                                                                                                         01041800000000000000104180000000000000       0090770900066125163482041816000039
100000000000000000000009077090006612500000000000000000000000010002100081218404181P00000000002            2  01812184041810041800000002975200000000001N010418000000000000000000000000000000000000000000000000000000000000000100081218486953OSMAR DA COSTA                          RUA MONTE CASTELO - 295 AP.33 - AVIACAO             11702720                                                            000041
2SR. CAIXA, APOS O VENCIMENTO COBRAR 10% DE MULTA                                NAO RECEBER APOS 30 DIAS DO VENCIMENTO.                                                                                                                                                                                                         01041800000000000000104180000000000000       009077090006612581218404181P000042
100000000000000000000009077090006612500000000000000000000000010002100004981804181200000000002            2  01049818041810041800000003379280000000001N010418000000000000000000000000000000000000000000000000000000000000000100004981884850SILVIO PAULINO GONCALVES                MARIA DE CASTRO MESQUITA - 84 AP.103 BLO            07110040                                                            000044
2SR. CAIXA, APOS O VENCIMENTO COBRAR 10% DE MULTA                                NAO RECEBER APOS 30 DIAS DO VENCIMENTO.                                                                                                                                                                                                         01041800000000000000104180000000000000       0090770900066125049818041812000045
100000000000000000000009077090006612500000000000000000000000010002100019282504181700000000002            2  01192825041810041800000002218170000000001N010418000000000000000000000000000000000000000000000000000000000000000100019282546837FABIO LEANDRO DE FREITAS ASSIS          RUA BASSIM NAGIB TRABULSI - 97 - PONTA D            11030540                                                            000047
2SR. CAIXA, APOS O VENCIMENTO COBRAR 10% DE MULTA                                NAO RECEBER APOS 30 DIAS DO VENCIMENTO.                                                                                                                                                                                                         01041800000000000000104180000000000000       0090770900066125192825041817000048
100000000000000000000009077090006612500000000000000000000000010002100008423404181000000000002            2  01084234041810041800000003082650000000001N010418000000000000000000000000000000000000000000000000000000000000000100008423485811EDSON LUIZ NUNES                        RUA NOEMIA PEDROSO BUENO - 41 - JARDIM G            09360440                                                            000050
2SR. CAIXA, APOS O VENCIMENTO COBRAR 10% DE MULTA                                NAO RECEBER APOS 30 DIAS DO VENCIMENTO.                                                                                                                                                                                                         01041800000000000000104180000000000000       0090770900066125084234041810000051
100000000000000000000009077090006612500000000000000000000000010002100003010504181P00000000002            2  01030105041810041800000003567020000000001N010418000000000000000000000000000000000000000000000000000000000000000100003010502877GIZELA VIEIRA BARROS                    RUA GIACOMO DALCIN - 157 - MAUA - SAO CA            09580350                                                            000053
2SR. CAIXA, APOS O VENCIMENTO COBRAR 10% DE MULTA                                NAO RECEBER APOS 30 DIAS DO VENCIMENTO.                                                                                                                                                                                                         01041800000000000000104180000000000000       009077090006612503010504181P000054
100000000000000000000009077090006612500000000000000000000000010002100012111004181500000000002            2  01121110041810041800000002904510000000001N010418000000000000000000000000000000000000000000000000000000000000000100012111060801CLAUDIA CRISTINA CRELIS COSTA           RUA RUI BARBOSA - 1736 AP.1533 - VILA SA            19015001                                                            000056
2SR. CAIXA, APOS O VENCIMENTO COBRAR 10% DE MULTA                                NAO RECEBER APOS 30 DIAS DO VENCIMENTO.                                                                                                                                                                                                         01041800000000000000104180000000000000       0090770900066125121110041815000057
100000000000000000000009077090006612500000000000000000000000010002100009777204181700000000002            2  01097772041810041800000002796690000000001N010418000000000000000000000000000000000000000000000000000000000000000100009777281889CARLITA DE FIGUEIREDO CARVALHO          AVENIDA ALBERTO DE ALMEIDA VINHAS - 4462            11701350                                                            000059
2SR. CAIXA, APOS O VENCIMENTO COBRAR 10% DE MULTA                                NAO RECEBER APOS 30 DIAS DO VENCIMENTO.                                                                                                                                                                                                         01041800000000000000104180000000000000       0090770900066125097772041817000060
100000000000000000000009077090006612500000000000000000000000010002100004213004181400000000002            2  01042130041810041800000003321290000000001N010418000000000000000000000000000000000000000000000000000000000000000100004213020894ELIETE DRUGOVICH DE LIMA                RUA OSVALDO CRUZ - 141 AP.144-B - SANTA             09541270                                                            000062
2SR. CAIXA, APOS O VENCIMENTO COBRAR 10% DE MULTA                                NAO RECEBER APOS 30 DIAS DO VENCIMENTO.                                                                                                                                                                                                         01041800000000000000104180000000000000       0090770900066125042130041814000063
100000000000000000000009077090006612500000000000000000000000010002100085839804181700000000002            2  01858398041810041800000002534900000000001N010418000000000000000000000000000000000000000000000000000000000000000100085839817872MAURO CORREIA MARTINS                   RUA PROFESSOR JOSE AZEVEDO MINHOTO - 72             06114000                                                            000065
2SR. CAIXA, APOS O VENCIMENTO COBRAR 10% DE MULTA                                NAO RECEBER APOS 30 DIAS DO VENCIMENTO.                                                                                                                                                                                                         01041800000000000000104180000000000000       0090770900066125858398041817000066
100000000000000000000009077090006612500000000000000000000000010002100043122804181900000000002            2  01431228041810041800000002263780000000001N010418000000000000000000000000000000000000000000000000000000000000000100043122850800ANTONIO JOAQUIM GOES                    ANTONIO DOAS DA SILVA - 412 - VILA AMALI            02618110                                                            000068
2SR. CAIXA, APOS O VENCIMENTO COBRAR 10% DE MULTA                                NAO RECEBER APOS 30 DIAS DO VENCIMENTO.                                                                                                                                                                                                         01041800000000000000104180000000000000       0090770900066125431228041819000069
100000000000000000000009077090006612500000000000000000000000010002100003865704181500000000002            2  01038657041810041800000002972180000000001N010418000000000000000000000000000000000000000000000000000000000000000100003865776841FRANCISCO JOSE ROCCO                    RUA FABIO JOSE BEZERRA - 130 AP.86 - PAR            03805000                                                            000071
2SR. CAIXA, APOS O VENCIMENTO COBRAR 10% DE MULTA                                NAO RECEBER APOS 30 DIAS DO VENCIMENTO.                                                                                                                                                                                                         01041800000000000000104180000000000000       0090770900066125038657041815000072
100000000000000000000009077090006612500000000000000000000000010002100028309504181100000000002            2  01283095041810041800000002650510000000001N010418000000000000000000000000000000000000000000000000000000000000000100028309524803DEISE RIBEIRO BARBOSA                   RUA CANDIDO JOSE DE ANDRADE - 173 - ERME            03807030                                                            000074
2SR. CAIXA, APOS O VENCIMENTO COBRAR 10% DE MULTA                                NAO RECEBER APOS 30 DIAS DO VENCIMENTO.                                                                                                                                                                                                         01041800000000000000104180000000000000       0090770900066125283095041811000075
100000000000000000000009077090006612500000000000000000000000010002100011277904181100000000002            2  01112779041810041800000003145840000000001N010418000000000000000000000000000000000000000000000000000000000000000100011277908893JOSE AILTON LOPES DE AZEVEDO            RUA MAESTRO JOAO SEPE - 19 - JARDIM MARI            04181030                                                            000077
2SR. CAIXA, APOS O VENCIMENTO COBRAR 10% DE MULTA                                NAO RECEBER APOS 30 DIAS DO VENCIMENTO.                                                                                                                                                                                                         01041800000000000000104180000000000000       0090770900066125112779041811000078
100000000000000000000009077090006612500000000000000000000000010002100025215104181900000000002            2  01252151041810041800000002372380000000001N010418000000000000000000000000000000000000000000000000000000000000000100025215106886KLEBER LUIZ DOS SANTOS                  RUA MONTE CASTELO - 262 AP.15 - AVIACAO             11702720                                                            000080
2SR. CAIXA, APOS O VENCIMENTO COBRAR 10% DE MULTA                                NAO RECEBER APOS 30 DIAS DO VENCIMENTO.                                                                                                                                                                                                         01041800000000000000104180000000000000       0090770900066125252151041819000081
100000000000000000000009077090006612500000000000000000000000010002100090206704181600000000002            2  01902067041810041800000002649830000000001N010418000000000000000000000000000000000000000000000000000000000000000100090206789815NEREIDE RODRIGUES FERREIRA              AVENIDA PADRE ESTANISLAU DE CAMPOS - 205            03590060                                                            000083
2SR. CAIXA, APOS O VENCIMENTO COBRAR 10% DE MULTA                                NAO RECEBER APOS 30 DIAS DO VENCIMENTO.                                                                                                                                                                                                         01041800000000000000104180000000000000       0090770900066125902067041816000084
100000000000000000000009077090006612500000000000000000000000010002100029150704181400000000002            2  01291507041810041800000003101690000000001N010418000000000000000000000000000000000000000000000000000000000000000100029150742833ANA DEISE SANTOS DE ALMEIDA             RUA MONTE CASTELO - 296 AP.121 - AVIACAO            11702720                                                            000086
2SR. CAIXA, APOS O VENCIMENTO COBRAR 10% DE MULTA                                NAO RECEBER APOS 30 DIAS DO VENCIMENTO.                                                                                                                                                                                                         01041800000000000000104180000000000000       0090770900066125291507041814000087
100000000000000000000009077090006612500000000000000000000000010002100000811704181P00000000002            2  01008117041810041800000002554810000000001N010418000000000000000000000000000000000000000000000000000000000000000100000811752801SERGIO BUENO DA SILVA                   RUA MONTE CASTELO - 262 AP.75 - AVIACAO             11702720                                                            000089
2SR. CAIXA, APOS O VENCIMENTO COBRAR 10% DE MULTA                                NAO RECEBER APOS 30 DIAS DO VENCIMENTO.                                                                                                                                                                                                         01041800000000000000104180000000000000       009077090006612500811704181P000090
100000000000000000000009077090006612500000000000000000000000010002100018344804181600000000002            2  01183448041810041800000003247700000000001N010418000000000000000000000000000000000000000000000000000000000000000100018344803888MARCELO BERNARDO                        RUA ESTONIA - 06 - INTERLAGOS - SAO PAUL            04785140                                                            000092
2SR. CAIXA, APOS O VENCIMENTO COBRAR 10% DE MULTA                                NAO RECEBER APOS 30 DIAS DO VENCIMENTO.                                                                                                                                                                                                         01041800000000000000104180000000000000       0090770900066125183448041816000093
100000000000000000000009077090006612500000000000000000000000010002100030210504181P00000000002            2  01302105041810041800000002421930000000001N010418000000000000000000000000000000000000000000000000000000000000000100030210501820ROGERIO MUNIZ DA CUNHA                  RUA MONTE CASTELO - 296 AP.34 - AVIACAO             11702720                                                            000095
2SR. CAIXA, APOS O VENCIMENTO COBRAR 10% DE MULTA                                NAO RECEBER APOS 30 DIAS DO VENCIMENTO.                                                                                                                                                                                                         01041800000000000000104180000000000000       009077090006612530210504181P000096
100000000000000000000009077090006612500000000000000000000000010002100004004304181300000000002            2  01040043041810041800000004553200000000001N010418000000000000000000000000000000000000000000000000000000000000000100004004328896VANDERLEI  MARTINS DE ALMEIDA           RUA MONSENHOR TABOSA - 03 - PARQUE CISPE            03819300                                                            000098
2SR. CAIXA, APOS O VENCIMENTO COBRAR 10% DE MULTA                                NAO RECEBER APOS 30 DIAS DO VENCIMENTO.                                                                                                                                                                                                         01041800000000000000104180000000000000       0090770900066125040043041813000099
100000000000000000000009077090006612500000000000000000000000010002100005133004181800000000002            2  01051330041810041800000003109980000000001N010418000000000000000000000000000000000000000000000000000000000000000100005133053860VICENTE ARCIPRETE JUNIOR                RUA JOSE SIMOES FERREIRA FILHO - 80 - JA            06040090                                                            000101
2SR. CAIXA, APOS O VENCIMENTO COBRAR 10% DE MULTA                                NAO RECEBER APOS 30 DIAS DO VENCIMENTO.                                                                                                                                                                                                         01041800000000000000104180000000000000       0090770900066125051330041818000102
100000000000000000000009077090006612500000000000000000000000010002100056660204181200000000002            2  01566602041810041800000000756430000000001N010418000000000000000000000000000000000000000000000000000000000000000100056660235868JOSE DA SILVA                           RUA MONTE CASTELO - 296 AP.32 - AVIACAO             11702720                                                            000104
2SR. CAIXA, APOS O VENCIMENTO COBRAR 10% DE MULTA                                NAO RECEBER APOS 30 DIAS DO VENCIMENTO.                                                                                                                                                                                                         01041800000000000000104180000000000000       0090770900066125566602041812000105
100000000000000000000009077090006612500000000000000000000000010002100016339404181400000000002            2  01163394041810041800000002747110000000001N010418000000000000000000000000000000000000000000000000000000000000000100016339432832ALEX MONTEIRO DA SILVA                  RUA IVA MOURA LIMA - 04 - JARDIM MIRNA I            04855540                                                            000107
2SR. CAIXA, APOS O VENCIMENTO COBRAR 10% DE MULTA                                NAO RECEBER APOS 30 DIAS DO VENCIMENTO.                                                                                                                                                                                                         01041800000000000000104180000000000000       0090770900066125163394041814000108
100000000000000000000009077090006612500000000000000000000000010002100031803804181100000000002            2  01318038041810041800000002805330000000001N010418000000000000000000000000000000000000000000000000000000000000000100031803864877ELEILSON FELIPPE SANTOS                 RUA SANTA GREGORIA - 193 - CIDADE DUTRA             04806030                                                            000110
2SR. CAIXA, APOS O VENCIMENTO COBRAR 10% DE MULTA                                NAO RECEBER APOS 30 DIAS DO VENCIMENTO.                                                                                                                                                                                                         01041800000000000000104180000000000000       0090770900066125318038041811000111
100000000000000000000009077090006612500000000000000000000000010002100026032604181P00000000002            2  01260326041810041800000001930510000000001N010418000000000000000000000000000000000000000000000000000000000000000100026032632857MARILA LOPES PEREIRA                    AVENIDA LUIZ GISHOKEM - 1761 AP.13 BL.05            05831315                                                            000113
2SR. CAIXA, APOS O VENCIMENTO COBRAR 10% DE MULTA                                NAO RECEBER APOS 30 DIAS DO VENCIMENTO.                                                                                                                                                                                                         01041800000000000000104180000000000000       009077090006612526032604181P000114
100000000000000000000009077090006612500000000000000000000000010002100063064504181600000000002            2  01630645041810041800000003343070000000001N010418000000000000000000000000000000000000000000000000000000000000000100063064537849ANTONIO APARECIDO DA SILVA DESTEFANO    RUA PROFESSOR TEODORO BRAGA - 46 - VILA             02966020                                                            000116
2SR. CAIXA, APOS O VENCIMENTO COBRAR 10% DE MULTA                                NAO RECEBER APOS 30 DIAS DO VENCIMENTO.                                                                                                                                                                                                         01041800000000000000104180000000000000       0090770900066125630645041816000117
100000000000000000000009077090006612500000000000000000000000010002100010107704181100000000002            2  01101077041810041800000003203660000000001N010418000000000000000000000000000000000000000000000000000000000000000100010107711834VALDEMAR FECCHIO                        RUA DOUTOR MARTINS DE OLIVEIRA - 529 AP.            05638030                                                            000119
2SR. CAIXA, APOS O VENCIMENTO COBRAR 10% DE MULTA                                NAO RECEBER APOS 30 DIAS DO VENCIMENTO.                                                                                                                                                                                                         01041800000000000000104180000000000000       0090770900066125101077041811000120
100000000000000000000009077090006612500000000000000000000000010002100003330704181000000000002            2  01033307041810041800000004121320000000001N010418000000000000000000000000000000000000000000000000000000000000000100003330791837MARLI DA SILVA BARBOSA                  RUA GLICERIO CERQUEIRA LEITE - 151 - JAR            03675040                                                            000122
2SR. CAIXA, APOS O VENCIMENTO COBRAR 10% DE MULTA                                NAO RECEBER APOS 30 DIAS DO VENCIMENTO.                                                                                                                                                                                                         01041800000000000000104180000000000000       0090770900066125033307041810000123
100000000000000000000009077090006612500000000000000000000000010002100008931004181900000000002            2  01089310041810041800000001675260000000001N010418000000000000000000000000000000000000000000000000000000000000000100008931031874MARIA MARINHO DE OLIVEIRA               AVENIDA 9 DE JULHO - 1854 AP.81 - BELA V            01312001                                                            000125
2SR. CAIXA, APOS O VENCIMENTO COBRAR 10% DE MULTA                                NAO RECEBER APOS 30 DIAS DO VENCIMENTO.                                                                                                                                                                                                         01041800000000000000104180000000000000       0090770900066125089310041819000126
100000000000000000000009077090006612500000000000000000000000010002100005920504181500000000002            2  01059205041810041800000001946350000000001N010418000000000000000000000000000000000000000000000000000000000000000100005920579846SONIA MARIA VALDO POLLO                 RUA PALMIRA CERVI BARBARO - 797 - CIDADE            13214370                                                            000128
2SR. CAIXA, APOS O VENCIMENTO COBRAR 10% DE MULTA                                NAO RECEBER APOS 30 DIAS DO VENCIMENTO.                                                                                                                                                                                                         01041800000000000000104180000000000000       0090770900066125059205041815000129
100000000000000000000009077090006612500000000000000000000000010002100002494104181600000000002            2  01024941041810041800000002926420000000001N010418000000000000000000000000000000000000000000000000000000000000000100002494107881CIRO FRANCISCO MARCHI DURIGON           RUA MONTE CASTELO - 262 AP.115 - AVIACAO            11702720                                                            000131
2SR. CAIXA, APOS O VENCIMENTO COBRAR 10% DE MULTA                                NAO RECEBER APOS 30 DIAS DO VENCIMENTO.                                                                                                                                                                                                         01041800000000000000104180000000000000       0090770900066125024941041816000132
100000000000000000000009077090006612500000000000000000000000010002100007002304181300000000002            2  01070023041810041800000002876830000000001N010418000000000000000000000000000000000000000000000000000000000000000100007002345869DOMINGOS DE BRITO GALVAO                RUA MONTE CASTELO - 262 AP.44 - AVIACAO             11702720                                                            000134
2SR. CAIXA, APOS O VENCIMENTO COBRAR 10% DE MULTA                                NAO RECEBER APOS 30 DIAS DO VENCIMENTO.                                                                                                                                                                                                         01041800000000000000104180000000000000       0090770900066125070023041813000135
100000000000000000000009077090006612500000000000000000000000010002100009346804181300000000002            2  01093468041810041800000001198360000000001N010418000000000000000000000000000000000000000000000000000000000000000100009346863862NELSON DE SOUZA SANTOS                  RUA PRIMEIRA CRUZ - 90 - PARQUE INDEPEND            03236060                                                            000137
2SR. CAIXA, APOS O VENCIMENTO COBRAR 10% DE MULTA                                NAO RECEBER APOS 30 DIAS DO VENCIMENTO.                                                                                                                                                                                                         01041800000000000000104180000000000000       0090770900066125093468041813000138
100000000000000000000009077090006612500000000000000000000000010002100016299004181700000000002            2  01162990041810041800000002773240000000001N010418000000000000000000000000000000000000000000000000000000000000000100016299008857FERNANDO CESAR CARVALHO                 AVENIDA MARCONDES DE BRITO - 1340 AP.74             03509000                                                            000140
2SR. CAIXA, APOS O VENCIMENTO COBRAR 10% DE MULTA                                NAO RECEBER APOS 30 DIAS DO VENCIMENTO.                                                                                                                                                                                                         01041800000000000000104180000000000000       0090770900066125162990041817000141
100000000000000000000009077090006612500000000000000000000000010002100031082804181000000000002            2  01310828041810041800000002786710000000001N010418000000000000000000000000000000000000000000000000000000000000000100031082898880VANESSA DOS SANTOS NEIVA                RUA MONTE CASTELO - 296 AP.33 - BAIRRO A            11702720                                                            000143
2SR. CAIXA, APOS O VENCIMENTO COBRAR 10% DE MULTA                                NAO RECEBER APOS 30 DIAS DO VENCIMENTO.                                                                                                                                                                                                         01041800000000000000104180000000000000       0090770900066125310828041810000144
100000000000000000000009077090006612500000000000000000000000010002100065895304181000000000002            2  01658953041810041800000001696710000000001N010418000000000000000000000000000000000000000000000000000000000000000100065895304834MARINHO BARBOSA CUNHA                   AVENIDA EDU CHAVES - 639 AP.43 - PARQUE             02229000                                                            000146
2SR. CAIXA, APOS O VENCIMENTO COBRAR 10% DE MULTA                                NAO RECEBER APOS 30 DIAS DO VENCIMENTO.                                                                                                                                                                                                         01041800000000000000104180000000000000       0090770900066125658953041810000147
9                                                                                                                                                                                                                                                                                                                                                                                                         000148