01REMESSA01COBRANCA       00000000000008017025HB SANTOS CONSTRUTORA E INCORP237BRADESCO       010917        MX0000038                                                                                                                                                                                                                                                                                     000001
100000000000000000000009033990000627000000000000000000000000010002020019261152192700000000002            2  01192611521924091700000001787500000000001N010917000000000000000000000000000000000000000000000000000000000000000100025035170802WANDERSON LUIS DE CARVALHO              RUA JOAQUIM GONCALVES ROCHA - 302 - JARD            02859030                                                            000002
2SR. CAIXA, APOS O VENCIMENTO COBRAR 2% DE MULTA                                 NAO RECEBER APOS 30 DIAS DO VENCIMENTO.                                                                                                                                                                                                         01091700000000000000109170000000000000       0090339900006270192611521927000003
100000000000000000000009033990000627000000000000000000000000010002020019407153193900000000002            2  01194071531924091700000002404250000000001N010917000000000000000000000000000000000000000000000000000000000000000100007294351805CLAUDENIR APARECIDO VACARI              RUA OFELIA CHAVES DE MEIRELLES - 989 CAS            11360210                                                            000005
2SR. CAIXA, APOS O VENCIMENTO COBRAR 2% DE MULTA                                 NAO RECEBER APOS 30 DIAS DO VENCIMENTO.                                                                                                                                                                                                         01091700000000000000109170000000000000       0090339900006270194071531939000006
100000000000000000000009033990000627000000000000000000000000010002020019553154194200000000002            2  01195531541924091700000002429460000000001N010917000000000000000000000000000000000000000000000000000000000000000100042976111634ACACIO TOSCANO BONDANCA                 RUA COMENDADOR JACOMO ANTONIO LA SELVA -            12946797                                                            000008
2SR. CAIXA, APOS O VENCIMENTO COBRAR 2% DE MULTA                                 NAO RECEBER APOS 30 DIAS DO VENCIMENTO.                                                                                                                                                                                                         01091700000000000000109170000000000000       0090339900006270195531541942000009
100000000000000000000009033990000627000000000000000000000000010002020020298158200900000000002            2  01202981582024091700000002051800000000001N010917000000000000000000000000000000000000000000000000000000000000000100035438022836ALESSANDRO FARACO DOS SANTOS            RUA PEDRO POMAR  - 145 - JARDIM ELISA MA            02875020                                                            000011
2SR. CAIXA, APOS O VENCIMENTO COBRAR 2% DE MULTA                                 NAO RECEBER APOS 30 DIAS DO VENCIMENTO.                                                                                                                                                                                                         01091700000000000000109170000000000000       0090339900006270202981582009000012
100000000000000000000009033990000627000000000000000000000000010002020021640167212000000000002            2  01216401672124091700000002689240000000001N010917000000000000000000000000000000000000000000000000000000000000000100007525032866FERNANDO RIBEIRO                        RUA ALDO COLI - 539 - VILA MIRIM - PRAIA            11704760                                                            000014
2SR. CAIXA, APOS O VENCIMENTO COBRAR 2% DE MULTA                                 NAO RECEBER APOS 30 DIAS DO VENCIMENTO.                                                                                                                                                                                                         01091700000000000000109170000000000000       0090339900006270216401672120000015
100000000000000000000009033990000627000000000000000000000000010002020021785168213000000000002            2  01217851682124091700000003090870000000001N010917000000000000000000000000000000000000000000000000000000000000000100031898775800ANITA MARTINS COLOMBO                   RUA OSVALDO CRUZ - 49 - BOQUEIRAO - PRAI            11701360                                                            000017
2SR. CAIXA, APOS O VENCIMENTO COBRAR 2% DE MULTA                                 NAO RECEBER APOS 30 DIAS DO VENCIMENTO.                                                                                                                                                                                                         01091700000000000000109170000000000000       0090339900006270217851682130000018
100000000000000000000009033990000627000000000000000000000000010002020021931169214800000000002            2  01219311692124091700000002358990000000001N010917000000000000000000000000000000000000000000000000000000000000000100005520147884ERIBALDO SANTANA CARVALHO               RUA HONDURAS - 477 - PARQUE DAS AMERICAS            09351070                                                            000020
2SR. CAIXA, APOS O VENCIMENTO COBRAR 2% DE MULTA                                 NAO RECEBER APOS 30 DIAS DO VENCIMENTO.                                                                                                                                                                                                         01091700000000000000109170000000000000       0090339900006270219311692148000021
100000000000000000000009033990000627000000000000000000000000010002020022581173220000000000002            2  01225811732224091700000002207020000000001N010917000000000000000000000000000000000000000000000000000000000000000100002841756416LUCIANA PINHEIRO DE ASSIS NUNES         RUA RIO ACIMA - 81 - RIACHO GRANDE - SAO            09830100                                                            000023
2SR. CAIXA, APOS O VENCIMENTO COBRAR 2% DE MULTA                                 NAO RECEBER APOS 30 DIAS DO VENCIMENTO.                                                                                                                                                                                                         01091700000000000000109170000000000000       0090339900006270225811732200000024
100000000000000000000009033990000627000000000000000000000000010002020022729174221900000000002            2  01227291742224091700000002217590000000001N010917000000000000000000000000000000000000000000000000000000000000000100084302097868FAUSTO TADEU VILOR                      RUA ANTONIO TAVARES - 466 - BAIRRO CAMBU            01542010                                                            000026
2SR. CAIXA, APOS O VENCIMENTO COBRAR 2% DE MULTA                                 NAO RECEBER APOS 30 DIAS DO VENCIMENTO.                                                                                                                                                                                                         01091700000000000000109170000000000000       0090339900006270227291742219000027
100000000000000000000009033990000627000000000000000000000000010002020024629185234500000000002            2  01246291852324091700000002105440000000001N010917000000000000000000000000000000000000000000000000000000000000000100018207096802ROBERTO VALENTE TAVARES                 RUA SEBASTIAO GOMES - 218 - JARDIM SANTO            13835000                                                            000029
2SR. CAIXA, APOS O VENCIMENTO COBRAR 2% DE MULTA                                 NAO RECEBER APOS 30 DIAS DO VENCIMENTO.                                                                                                                                                                                                         01091700000000000000109170000000000000       0090339900006270246291852345000030
100000000000000000000009033990000627000000000000000000000000010002020024922176236400000000002            2  01249221762324091700000002178830000000001N010917000000000000000000000000000000000000000000000000000000000000000100028804202882GILBERTO FABIANO CABRAL DE CAMARGO      RUA JOAO AMADO COUTINHO - 444 AP.11 A -             02815000                                                            000032
2SR. CAIXA, APOS O VENCIMENTO COBRAR 2% DE MULTA                                 NAO RECEBER APOS 30 DIAS DO VENCIMENTO.                                                                                                                                                                                                         01091700000000000000109170000000000000       0090339900006270249221762364000033
100000000000000000000009033990000627000000000000000000000000010002020025363187239300000000002            2  01253631872324091700000002126600000000001N010917000000000000000000000000000000000000000000000000000000000000000100000991748808JAILSON BORGES DE ANDRADE               RUA SAO GABRIEL DA CACHOEIRA - 28 - JARD            07240080                                                            000035
2SR. CAIXA, APOS O VENCIMENTO COBRAR 2% DE MULTA                                 NAO RECEBER APOS 30 DIAS DO VENCIMENTO.                                                                                                                                                                                                         01091700000000000000109170000000000000       0090339900006270253631872393000036
100000000000000000000009033990000627000000000000000000000000010002020025509188240000000000002            2  01255091882424091700000002899380000000001N010917000000000000000000000000000000000000000000000000000000000000000100092180299834LUIS ROBERTO DE SA DUARTE               RUA TEBAS - 296 AP.84 BLOCO 2 CE - JARDI            04634031                                                            000038
2SR. CAIXA, APOS O VENCIMENTO COBRAR 2% DE MULTA                                 NAO RECEBER APOS 30 DIAS DO VENCIMENTO.                                                                                                                                                                                                         01091700000000000000109170000000000000       0090339900006270255091882400000039
100000000000000000000009033990000627000000000000000000000000010002020025947191243P00000000002            2  01259471912424091700000002114280000000001N010917000000000000000000000000000000000000000000000000000000000000000100022151666816SAMIR LIMA DE ARAUJO                    AVENIDA GUARAPIRANGA - 2616 AP.42 BLOCO1            04902005                                                            000041
2SR. CAIXA, APOS O VENCIMENTO COBRAR 2% DE MULTA                                 NAO RECEBER APOS 30 DIAS DO VENCIMENTO.                                                                                                                                                                                                         01091700000000000000109170000000000000       009033990000627025947191243P000042
100000000000000000000009033990000627000000000000000000000000010002020026094186244000000000002            2  01260941862426091700000001679770000000001N010917000000000000000000000000000000000000000000000000000000000000000100022313116824ROSA MARIA BRITO DA SILVA               RUA SERVIDAO DE SAO MARCOS - 113 - JARDI            04930300                                                            000044
2SR. CAIXA, APOS O VENCIMENTO COBRAR 2% DE MULTA                                 NAO RECEBER APOS 30 DIAS DO VENCIMENTO.                                                                                                                                                                                                         01091700000000000000109170000000000000       0090339900006270260941862440000045
100000000000000000000009033990000627000000000000000000000000010002020026244184245400000000002            2  01262441842426091700000001685620000000001N010917000000000000000000000000000000000000000000000000000000000000000100027538087249MARA LUCIA MENEZES DA COSTA             RUA LEILA  - 183 - ITAQUERA - SAO PAULO             08240020                                                            000047
2SR. CAIXA, APOS O VENCIMENTO COBRAR 2% DE MULTA                                 NAO RECEBER APOS 30 DIAS DO VENCIMENTO.                                                                                                                                                                                                         01091700000000000000109170000000000000       0090339900006270262441842454000048
100000000000000000000009033990000627000000000000000000000000010002020026391179246300000000002            2  01263911792426091700000001784460000000001N010917000000000000000000000000000000000000000000000000000000000000000100020105503827VALTER DE SOUSA LIBARINO FILHO          RUA DAS PAINEIRAS - 140 - LARANJEIRAS -             07700000                                                            000050
2SR. CAIXA, APOS O VENCIMENTO COBRAR 2% DE MULTA                                 NAO RECEBER APOS 30 DIAS DO VENCIMENTO.                                                                                                                                                                                                         01091700000000000000109170000000000000       0090339900006270263911792463000051
100000000000000000000009033990000627000000000000000000000000010002020026534192247600000000002            2  01265341922424091700000002042460000000001N010917000000000000000000000000000000000000000000000000000000000000000100031278411836JEFFERSON DE PIERI PIRES ZAMUNER        RUA MANOEL ARCE - 277 - PARQUE BANCARIO             03922150                                                            000053
2SR. CAIXA, APOS O VENCIMENTO COBRAR 2% DE MULTA                                 NAO RECEBER APOS 30 DIAS DO VENCIMENTO.                                                                                                                                                                                                         01091700000000000000109170000000000000       0090339900006270265341922476000054
100000000000000000000009033990000627000000000000000000000000010002020026963194251400000000002            2  01269631942526091700000001533960000000001N010917000000000000000000000000000000000000000000000000000000000000000100019185769800AGUINALDO PESSOA DE LIMA                RUA JANUARIO ZINGARO - 252 AP.303 BL.04             05794300                                                            000056
2SR. CAIXA, APOS O VENCIMENTO COBRAR 2% DE MULTA                                 NAO RECEBER APOS 30 DIAS DO VENCIMENTO.                                                                                                                                                                                                         01091700000000000000109170000000000000       0090339900006270269631942514000057
100000000000000000000009033990000627000000000000000000000000010002020027259196253400000000002            2  01272591962526091700000001033620000000001N010917000000000000000000000000000000000000000000000000000000000000000100033303645809JESSICA DA SILVA FREITAS                RUA ARILDO VALADAO - 120 - JARDIM GUAEMB            04814600                                                            000059
2SR. CAIXA, APOS O VENCIMENTO COBRAR 2% DE MULTA                                 NAO RECEBER APOS 30 DIAS DO VENCIMENTO.                                                                                                                                                                                                         01091700000000000000109170000000000000       0090339900006270272591962534000060
100000000000000000000009033990000627000000000000000000000000010002020027405197254100000000002            2  01274051972526091700000001665270000000001N010917000000000000000000000000000000000000000000000000000000000000000100004824443806ROSIMEIRE CLARA FERREIRA REZENDE        RUA JOAQUIM DE OLIVEIRA FREITAS - 912 AP            05133000                                                            000062
2SR. CAIXA, APOS O VENCIMENTO COBRAR 2% DE MULTA                                 NAO RECEBER APOS 30 DIAS DO VENCIMENTO.                                                                                                                                                                                                         01091700000000000000109170000000000000       0090339900006270274051972541000063
100000000000000000000009033990000627000000000000000000000000010002020027551198255500000000002            2  01275511982524091700000002212030000000001N010917000000000000000000000000000000000000000000000000000000000000000100006422607881GERALDO ALVES DA SILVA                  RUA ALFREDO JOREL - 195 AP.5 CONDOMINIO             04195020                                                            000065
2SR. CAIXA, APOS O VENCIMENTO COBRAR 2% DE MULTA                                 NAO RECEBER APOS 30 DIAS DO VENCIMENTO.                                                                                                                                                                                                         01091700000000000000109170000000000000       0090339900006270275511982555000066
100000000000000000000009033990000627000000000000000000000000010002020027697199256300000000002            2  01276971992526091700000001549000000000001N010917000000000000000000000000000000000000000000000000000000000000000100033877129870HELDER FERREIRA VIANA                   RUA LEOPOLDO MOTTA E SILVA - 93 AP.34 -             11320340                                                            000068
2SR. CAIXA, APOS O VENCIMENTO COBRAR 2% DE MULTA                                 NAO RECEBER APOS 30 DIAS DO VENCIMENTO.                                                                                                                                                                                                         01091700000000000000109170000000000000       0090339900006270276971992563000069
100000000000000000000009033990000627000000000000000000000000010002020027989201258700000000002            2  01279892012526091700000001427580000000001N010917000000000000000000000000000000000000000000000000000000000000000100028290719809VANESSA GIANGARRELLI PEREIRA            RUA BARINEL - 72 - JARDIM COTCHING - SAO            03462130                                                            000071
2SR. CAIXA, APOS O VENCIMENTO COBRAR 2% DE MULTA                                 NAO RECEBER APOS 30 DIAS DO VENCIMENTO.                                                                                                                                                                                                         01091700000000000000109170000000000000       0090339900006270279892012587000072
100000000000000000000009033990000627000000000000000000000000010002020028577205262300000000002            2  01285772052626091700000001558940000000001N010917000000000000000000000000000000000000000000000000000000000000000100087573059604VANDERLEY DE ASSIS                      RUA ROMEU ALBANI - 268 - JARDIM PARQUE R            13803810                                                            000074
2SR. CAIXA, APOS O VENCIMENTO COBRAR 2% DE MULTA                                 NAO RECEBER APOS 30 DIAS DO VENCIMENTO.                                                                                                                                                                                                         01091700000000000000109170000000000000       0090339900006270285772052623000075
100000000000000000000009033990000627000000000000000000000000010002020028869207264900000000002            2  01288692072626091700000001626820000000001N010917000000000000000000000000000000000000000000000000000000000000000100010825513847JOSE APARECIDO PEREIRA                  RUA GENERAL OSORIO - 305 - JARDIM TRINTA            11515130                                                            000077
2SR. CAIXA, APOS O VENCIMENTO COBRAR 2% DE MULTA                                 NAO RECEBER APOS 30 DIAS DO VENCIMENTO.                                                                                                                                                                                                         01091700000000000000109170000000000000       0090339900006270288692072649000078
100000000000000000000009033990000627000000000000000000000000010002020029014208265P00000000002            2  01290142082626091700000002541920000000001N010917000000000000000000000000000000000000000000000000000000000000000100038818572814MAURICIUS ALEXANDRE ESTEVAM NABOR       RUA RAUL SERAPIAO BARROSO - 379 - ESPLAN            11340330                                                            000080
2SR. CAIXA, APOS O VENCIMENTO COBRAR 2% DE MULTA                                 NAO RECEBER APOS 30 DIAS DO VENCIMENTO.                                                                                                                                                                                                         01091700000000000000109170000000000000       009033990000627029014208265P000081
100000000000000000000009033990000627000000000000000000000000010002020029744212270400000000002            2  01297442122726091700000002005320000000001N010917000000000000000000000000000000000000000000000000000000000000000100039115139840LAIS CRISTINA RIBEIRO ANDO              RUA PERU - 769 AP.17 - VILA GUILHERMINA             11702250                                                            000083
2SR. CAIXA, APOS O VENCIMENTO COBRAR 2% DE MULTA                                 NAO RECEBER APOS 30 DIAS DO VENCIMENTO.                                                                                                                                                                                                         01091700000000000000109170000000000000       0090339900006270297442122704000084
100000000000000000000009033990000627000000000000000000000000010002020030162215273000000000002            2  01301622152724091700000002171170000000001N010917000000000000000000000000000000000000000000000000000000000000000100029617510553MARILENE SOUZA DE OLIVEIRA              AVENIDA BRASIL - 393 AP.09 - PARQUE DAS             09210280                                                            000086
2SR. CAIXA, APOS O VENCIMENTO COBRAR 2% DE MULTA                                 NAO RECEBER APOS 30 DIAS DO VENCIMENTO.                                                                                                                                                                                                         01091700000000000000109170000000000000       0090339900006270301622152730000087
9                                                                                                                                                                                                                                                                                                                                                                                                         000088