01REMESSA01COBRANCA       00000000000005331186HB SANTOS CONSTRUTORA E INCORP237BRADESCO       050923        MX0000081                                                                                                                                                                                                                                                                                     000001
100000000000000000000009033990000995400000000000000000000000010002020005723209231300000000002            2  01057232092323092300000003141020000000001N050923000000000000000000000000000000000000000000000000000000000000000100005723255843FRANCISCO DE ASSIS DA SILVA             PRACA NICOLAU GERAIGIRE - 25 VISOR - JAR            11095110                                                            000002
2SR. CAIXA, APOS O VENCIMENTO COBRAR 2% DE MULTA                                 NAO RECEBER APOS 30 DIAS DO VENCIMENTO.                                                                                                                                                                                                         05092300000000000000509230000000000000       0090339900009954057232092313000003
100000000000000000000009033990000995400000000000000000000000010002020032589109231700000000002            2  01325891092323092300000002972050000000001N050923000000000000000000000000000000000000000000000000000000000000000100032589165862RENATA ISABEL MARTINS SILVA             RUA HERCULANO DE FREITAS - 257 - FUNDACA            09520280                                                            000005
2SR. CAIXA, APOS O VENCIMENTO COBRAR 2% DE MULTA                                 NAO RECEBER APOS 30 DIAS DO VENCIMENTO.                                                                                                                                                                                                         05092300000000000000509230000000000000       0090339900009954325891092317000006
100000000000000000000009033990000995400000000000000000000000010002020046391209231600000000002            2  01463912092323092300000003116550000000001N050923000000000000000000000000000000000000000000000000000000000000000100046391265810PAMELLA RODRIGUES DE OLIVEIRA           RUA AUGUSTA - 183 AP.301 BL.2A - VILA AU            07025130                                                            000008
2SR. CAIXA, APOS O VENCIMENTO COBRAR 2% DE MULTA                                 NAO RECEBER APOS 30 DIAS DO VENCIMENTO.                                                                                                                                                                                                         05092300000000000000509230000000000000       0090339900009954463912092316000009
100000000000000000000009033990000995400000000000000000000000010002020027964509231400000000002            2  01279645092323092300000003096570000000001N050923000000000000000000000000000000000000000000000000000000000000000100027964512838FABIO TADEU DE CAMPOS RADZIAVICIUS      RUA URUGUAI - 89 AP.94 - JARDIM GUILHERM            11702300                                                            000011
2SR. CAIXA, APOS O VENCIMENTO COBRAR 2% DE MULTA                                 NAO RECEBER APOS 30 DIAS DO VENCIMENTO.                                                                                                                                                                                                         05092300000000000000509230000000000000       0090339900009954279645092314000012
100000000000000000000009033990000995400000000000000000000000010002020011498309231200000000002            2  01114983092323092300000002320010000000001N050923000000000000000000000000000000000000000000000000000000000000000100011498329837GERSON GERALDO DAS NEVES                RUA DOMINGOS DELGADO - 144 - VILA SOUZA             02881070                                                            000014
2SR. CAIXA, APOS O VENCIMENTO COBRAR 2% DE MULTA                                 NAO RECEBER APOS 30 DIAS DO VENCIMENTO.                                                                                                                                                                                                         05092300000000000000509230000000000000       0090339900009954114983092312000015
100000000000000000000009033990000995400000000000000000000000010002020025214409231900000000002            2  01252144092323092300000002746170000000001N050923000000000000000000000000000000000000000000000000000000000000000100025214401833JOSE MAURICIO DOS SANTOS RODRIGUES      RUA JOAO DE MACEDO RIBEIRO - 49 - VILA N            08111101                                                            000017
2SR. CAIXA, APOS O VENCIMENTO COBRAR 2% DE MULTA                                 NAO RECEBER APOS 30 DIAS DO VENCIMENTO.                                                                                                                                                                                                         05092300000000000000509230000000000000       0090339900009954252144092319000018
100000000000000000000009033990000995400000000000000000000000010002020033119109231600000000002            2  01331191092323092300000002757800000000001N050923000000000000000000000000000000000000000000000000000000000000000100033119178802HUGO GOMES VENDRAME                     RUA SAO PAULO - 60 CASA 01 - VILA FREITA            06380110                                                            000020
2SR. CAIXA, APOS O VENCIMENTO COBRAR 2% DE MULTA                                 NAO RECEBER APOS 30 DIAS DO VENCIMENTO.                                                                                                                                                                                                         05092300000000000000509230000000000000       0090339900009954331191092316000021
100000000000000000000009033990000995400000000000000000000000010002020016631509231900000000002            2  01166315092323092300000002805930000000001N050923000000000000000000000000000000000000000000000000000000000000000100016631587468GILBERTO BEZERRA DA SILVA               AVENIDA JAIME TORRES - 745 CASA 3 - JARD            03670000                                                            000023
2SR. CAIXA, APOS O VENCIMENTO COBRAR 2% DE MULTA                                 NAO RECEBER APOS 30 DIAS DO VENCIMENTO.                                                                                                                                                                                                         05092300000000000000509230000000000000       0090339900009954166315092319000024
100000000000000000000009033990000995400000000000000000000000010002020007313209231100000000002            2  01073132092323092300000002786000000000001N050923000000000000000000000000000000000000000000000000000000000000000100007313251840SALVADOR GESUALDO PULVIRENTI            AVENIDA MARARI - 641 - VILA MARARI - SAO            04402010                                                            000026
2SR. CAIXA, APOS O VENCIMENTO COBRAR 2% DE MULTA                                 NAO RECEBER APOS 30 DIAS DO VENCIMENTO.                                                                                                                                                                                                         05092300000000000000509230000000000000       0090339900009954073132092311000027
100000000000000000000009033990000995400000000000000000000000010002020010676709231300000000002            2  01106767092323092300000002907920000000001N050923000000000000000000000000000000000000000000000000000000000000000100010676723896MERCEDES CRISTINA ROCHA SANDOVAL        RUA URUGUAI - 89 AP.83 - JARDIM GUILHERM            11702300                                                            000029
2SR. CAIXA, APOS O VENCIMENTO COBRAR 2% DE MULTA                                 NAO RECEBER APOS 30 DIAS DO VENCIMENTO.                                                                                                                                                                                                         05092300000000000000509230000000000000       0090339900009954106767092313000030
100000000000000000000009033990000995400000000000000000000000010002020009502809231100000000002            2  01095028092323092300000003036840000000001N050923000000000000000000000000000000000000000000000000000000000000000100009502844831CLAUDIA ROCHA SANDOVAL                  RUA URUGUAI - 89 AP.64 - JARDIM GUILHERM            11702300                                                            000032
2SR. CAIXA, APOS O VENCIMENTO COBRAR 2% DE MULTA                                 NAO RECEBER APOS 30 DIAS DO VENCIMENTO.                                                                                                                                                                                                         05092300000000000000509230000000000000       0090339900009954095028092311000033
100000000000000000000009033990000995400000000000000000000000010002020007594209231000000000002            2  01075942092323092300000002726270000000001N050923000000000000000000000000000000000000000000000000000000000000000100007594247809JOSE LUIS DE OLIVEIRA                   DONA EGLANTINA PENTEADO DA SILVA PRADO -            13044162                                                            000035
2SR. CAIXA, APOS O VENCIMENTO COBRAR 2% DE MULTA                                 NAO RECEBER APOS 30 DIAS DO VENCIMENTO.                                                                                                                                                                                                         05092300000000000000509230000000000000       0090339900009954075942092310000036
100000000000000000000009033990000995400000000000000000000000010002020005288709231400000000002            2  01052887092323092300000002808330000000001N050923000000000000000000000000000000000000000000000000000000000000000100005288796858MARCELO RODRIGUES FERREIRA              RUA MARCOS ANTONIO MARQUES - 302 - JARDI            06433020                                                            000038
2SR. CAIXA, APOS O VENCIMENTO COBRAR 2% DE MULTA                                 NAO RECEBER APOS 30 DIAS DO VENCIMENTO.                                                                                                                                                                                                         05092300000000000000509230000000000000       0090339900009954052887092314000039
100000000000000000000009033990000995400000000000000000000000010002020015835909231300000000002            2  01158359092323092300000002924450000000001N050923000000000000000000000000000000000000000000000000000000000000000100015835992823FLAVIO VERONEZ                          RUA ANDREA PAULINETTI - 127 AP.42 - BAIR            04707050                                                            000041
2SR. CAIXA, APOS O VENCIMENTO COBRAR 2% DE MULTA                                 NAO RECEBER APOS 30 DIAS DO VENCIMENTO.                                                                                                                                                                                                         05092300000000000000509230000000000000       0090339900009954158359092313000042
100000000000000000000009033990000995400000000000000000000000010002020000438109231100000000002            2  01004381092323092300000003300910000000001N050923000000000000000000000000000000000000000000000000000000000000000100000438161858WAGNECY VILLA NOVA LIEN                 RUA PROFESSOR FERREIRA PAULINO - 233 AP.            07025020                                                            000044
2SR. CAIXA, APOS O VENCIMENTO COBRAR 2% DE MULTA                                 NAO RECEBER APOS 30 DIAS DO VENCIMENTO.                                                                                                                                                                                                         05092300000000000000509230000000000000       0090339900009954004381092311000045
100000000000000000000009033990000995400000000000000000000000010002020026004509231800000000002            2  01260045092323092300000002924490000000001N050923000000000000000000000000000000000000000000000000000000000000000100026004595888EDIVALDO BEZERRA DA SILVA               AVENIDA GUATEMALA - 550 - JARDIM PINHEIR            09854750                                                            000047
2SR. CAIXA, APOS O VENCIMENTO COBRAR 2% DE MULTA                                 NAO RECEBER APOS 30 DIAS DO VENCIMENTO.                                                                                                                                                                                                         05092300000000000000509230000000000000       0090339900009954260045092318000048
100000000000000000000009033990000995400000000000000000000000010002020012470709231200000000002            2  01124707092323092300000003120230000000001N050923000000000000000000000000000000000000000000000000000000000000000100012470771870HILTON FERNANDES OLIVARES               RUA PATIO DA ESTACAO - 115 - BAIRRO CENT            09450000                                                            000050
2SR. CAIXA, APOS O VENCIMENTO COBRAR 2% DE MULTA                                 NAO RECEBER APOS 30 DIAS DO VENCIMENTO.                                                                                                                                                                                                         05092300000000000000509230000000000000       0090339900009954124707092312000051
100000000000000000000009033990000995400000000000000000000000010002020014025409231100000000002            2  01140254092323092300000003421250000000001N050923000000000000000000000000000000000000000000000000000000000000000100014025420899ANDREIA APARECIDA TAVARES BASTOS        RUA IBATIBA - 234 CASA 27 - RES.BOUGANVI            09220608                                                            000053
2SR. CAIXA, APOS O VENCIMENTO COBRAR 2% DE MULTA                                 NAO RECEBER APOS 30 DIAS DO VENCIMENTO.                                                                                                                                                                                                         05092300000000000000509230000000000000       0090339900009954140254092311000054
100000000000000000000009033990000995400000000000000000000000010002020018590009231000000000002            2  01185900092323092300000003098450000000001N050923000000000000000000000000000000000000000000000000000000000000000100018590038858JOSE SANDRO ROCHA SILVA                 RUA SANTO ANTONIO DO AVENTUREIRO - 216 A            07143040                                                            000056
2SR. CAIXA, APOS O VENCIMENTO COBRAR 2% DE MULTA                                 NAO RECEBER APOS 30 DIAS DO VENCIMENTO.                                                                                                                                                                                                         05092300000000000000509230000000000000       0090339900009954185900092310000057
100000000000000000000009033990000995400000000000000000000000010002020088578709231900000000002            2  01885787092323092300000002549590000000001N050923000000000000000000000000000000000000000000000000000000000000000100088578704800GILBERTO DO ESPIRITO SANTO SILVA        RUA URUGUAI - 89 AP.23 - JARDIM GUILHERM            11702300                                                            000059
2SR. CAIXA, APOS O VENCIMENTO COBRAR 2% DE MULTA                                 NAO RECEBER APOS 30 DIAS DO VENCIMENTO.                                                                                                                                                                                                         05092300000000000000509230000000000000       0090339900009954885787092319000060
100000000000000000000009033990000995400000000000000000000000010002020005105209231700000000002            2  01051052092323092300000003040680000000001N050923000000000000000000000000000000000000000000000000000000000000000100005105287835FABIO MOTTOLA DE OLIVEIRA               RUA RAUL MAZZONI - 133 - CHACARA AREAL -            13331022                                                            000062
2SR. CAIXA, APOS O VENCIMENTO COBRAR 2% DE MULTA                                 NAO RECEBER APOS 30 DIAS DO VENCIMENTO.                                                                                                                                                                                                         05092300000000000000509230000000000000       0090339900009954051052092317000063
100000000000000000000009033990000995400000000000000000000000010002020007648109231P00000000002            2  01076481092323092300000002968370000000001N050923000000000000000000000000000000000000000000000000000000000000000100007648112825MARA REGINA CAPRIO                      RUA DA TRINDADE - 790 - VILA IDEAL - SAO            15060280                                                            000065
2SR. CAIXA, APOS O VENCIMENTO COBRAR 2% DE MULTA                                 NAO RECEBER APOS 30 DIAS DO VENCIMENTO.                                                                                                                                                                                                         05092300000000000000509230000000000000       009033990000995407648109231P000066
100000000000000000000009033990000995400000000000000000000000010002020031157409231900000000002            2  01311574092323092300000003187320000000001N050923000000000000000000000000000000000000000000000000000000000000000100031157420885TALITA ANICHIARICO COSSI                RUA CNEO POMPEO DE CAMARGO - 817 - JARDI            13060150                                                            000068
2SR. CAIXA, APOS O VENCIMENTO COBRAR 2% DE MULTA                                 NAO RECEBER APOS 30 DIAS DO VENCIMENTO.                                                                                                                                                                                                         05092300000000000000509230000000000000       0090339900009954311574092319000069
100000000000000000000009033990000995400000000000000000000000010002020035572509231300000000002            2  01355725092323092300000003388830000000001N050923000000000000000000000000000000000000000000000000000000000000000100035572536865MARIA SIMONE SANTOS                     RUA JOSE PEZZOLO - 68 - VILA ELDIZIA - S            09181660                                                            000071
2SR. CAIXA, APOS O VENCIMENTO COBRAR 2% DE MULTA                                 NAO RECEBER APOS 30 DIAS DO VENCIMENTO.                                                                                                                                                                                                         05092300000000000000509230000000000000       0090339900009954355725092313000072
100000000000000000000009033990000995400000000000000000000000010002020008800309231000000000002            2  01088003092323092300000003087670000000001N050923000000000000000000000000000000000000000000000000000000000000000100008800368425INGO DIMITRI PEREIRA DA NOBREGA         RUA PROFESSOR MENDES PIMENTEL - 362 - JA            03973010                                                            000074
2SR. CAIXA, APOS O VENCIMENTO COBRAR 2% DE MULTA                                 NAO RECEBER APOS 30 DIAS DO VENCIMENTO.                                                                                                                                                                                                         05092300000000000000509230000000000000       0090339900009954088003092310000075
100000000000000000000009033990000995400000000000000000000000010002020005054109231500000000002            2  01050541092323092300000002988080000000001N050923000000000000000000000000000000000000000000000000000000000000000100005054169806PAULO ROBERTO DE MATTOS                 JARDIM BOTANICO - 849 - DISTRITO DE SOUS            13106258                                                            000077
2SR. CAIXA, APOS O VENCIMENTO COBRAR 2% DE MULTA                                 NAO RECEBER APOS 30 DIAS DO VENCIMENTO.                                                                                                                                                                                                         05092300000000000000509230000000000000       0090339900009954050541092315000078
100000000000000000000009033990000995400000000000000000000000010002020007552109231100000000002            2  01075521092323092300000002988080000000001N050923000000000000000000000000000000000000000000000000000000000000000100007552151846MAURO BORDONI                           AVENIDA DR. AUGUSTO DE TOLEDO - 769 AP.6            09540080                                                            000080
2SR. CAIXA, APOS O VENCIMENTO COBRAR 2% DE MULTA                                 NAO RECEBER APOS 30 DIAS DO VENCIMENTO.                                                                                                                                                                                                         05092300000000000000509230000000000000       0090339900009954075521092311000081
100000000000000000000009033990000995400000000000000000000000010002020012744209231400000000002            2  01127442092323092300000003324690000000001N050923000000000000000000000000000000000000000000000000000000000000000100012744201804ADAIL JOSE DE SOUSA                     RUA ROSARIA - 303 - BAIRRO SACADURA CABR            09061080                                                            000083
2SR. CAIXA, APOS O VENCIMENTO COBRAR 2% DE MULTA                                 NAO RECEBER APOS 30 DIAS DO VENCIMENTO.                                                                                                                                                                                                         05092300000000000000509230000000000000       0090339900009954127442092314000084
100000000000000000000009033990000995400000000000000000000000010002020068320609231100000000002            2  01683206092323092300000011774330000000001N050923000000000000000000000000000000000000000000000000000000000000000100068320663849ANTONIO CAVALCANTE LIMA                 RUA AMAZONAS - 1188 - CENTRO - SAO CAETA            09540201                                                            000086
2SR. CAIXA, APOS O VENCIMENTO COBRAR 2% DE MULTA                                 NAO RECEBER APOS 30 DIAS DO VENCIMENTO.                                                                                                                                                                                                         05092300000000000000509230000000000000       0090339900009954683206092311000087
100000000000000000000009033990000995400000000000000000000000010002020088926209231300000000002            2  01889262092323092300000002473500000000001N050923000000000000000000000000000000000000000000000000000000000000000100088926230872VALDEMAR LATANCE FILHO                  RUA MELO PINTO DA SILVA - 111 CASA 103 -            18116265                                                            000089
2SR. CAIXA, APOS O VENCIMENTO COBRAR 2% DE MULTA                                 NAO RECEBER APOS 30 DIAS DO VENCIMENTO.                                                                                                                                                                                                         05092300000000000000509230000000000000       0090339900009954889262092313000090
100000000000000000000009033990000995400000000000000000000000010002020004195309231000000000002            2  01041953092323092300000003228320000000001N050923000000000000000000000000000000000000000000000000000000000000000100004195345804LUIZ CARLOS SILVESTRE                   RUA CONDE VICENTE AZEVEDO - 377 - BAIRRO            04264000                                                            000092
2SR. CAIXA, APOS O VENCIMENTO COBRAR 2% DE MULTA                                 NAO RECEBER APOS 30 DIAS DO VENCIMENTO.                                                                                                                                                                                                         05092300000000000000509230000000000000       0090339900009954041953092310000093
9                                                                                                                                                                                                                                                                                                                                                                                                         000094