01REMESSA01COBRANCA       00000000000008017025HB SANTOS CONSTRUTORA E INCORP237BRADESCO       090321        MX0000124                                                                                                                                                                                                                                                                                     000001
100000000000000000000009033990000627000000000000000000000000010002020025035103211000000000002            2  01250351032124032100000002410260000000001N090321000000000000000000000000000000000000000000000000000000000000000100025035170802WANDERSON LUIS DE CARVALHO              RUA JOAQUIM GONCALVES ROCHA - 302 - JARD            02859030                                                            000002
2SR. CAIXA, APOS O VENCIMENTO COBRAR 2% DE MULTA                                 NAO RECEBER APOS 30 DIAS DO VENCIMENTO.                                                                                                                                                                                                         09032100000000000000903210000000000000       0090339900006270250351032110000003
100000000000000000000009033990000627000000000000000000000000010002020007294303211800000000002            2  01072943032124032100000003241830000000001N090321000000000000000000000000000000000000000000000000000000000000000100007294351805CLAUDENIR APARECIDO VACARI              RUA CARLOS JOSE BORSTENS - 50 AP.93 - AV            11702750                                                            000005
2SR. CAIXA, APOS O VENCIMENTO COBRAR 2% DE MULTA                                 NAO RECEBER APOS 30 DIAS DO VENCIMENTO.                                                                                                                                                                                                         09032100000000000000903210000000000000       0090339900006270072943032118000006
100000000000000000000009033990000627000000000000000000000000010002020035438003211100000000002            2  01354380032124032100000002766640000000001N090321000000000000000000000000000000000000000000000000000000000000000100035438022836ALESSANDRO FARACO DOS SANTOS            RUA PEDRO POMAR  - 145 - JARDIM ELISA MA            02875020                                                            000008
2SR. CAIXA, APOS O VENCIMENTO COBRAR 2% DE MULTA                                 NAO RECEBER APOS 30 DIAS DO VENCIMENTO.                                                                                                                                                                                                         09032100000000000000903210000000000000       0090339900006270354380032111000009
100000000000000000000009033990000627000000000000000000000000010002020007525003211300000000002            2  01075250032124032100000003626130000000001N090321000000000000000000000000000000000000000000000000000000000000000100007525032866FERNANDO RIBEIRO                        RUA CARLOS JOSE BORSTENS - 50 AP.32 - AV            11702750                                                            000011
2SR. CAIXA, APOS O VENCIMENTO COBRAR 2% DE MULTA                                 NAO RECEBER APOS 30 DIAS DO VENCIMENTO.                                                                                                                                                                                                         09032100000000000000903210000000000000       0090339900006270075250032113000012
100000000000000000000009033990000627000000000000000000000000010002020005071403211900000000002            2  01050714032124032100000003180810000000001N090321000000000000000000000000000000000000000000000000000000000000000100005071481855ERIBALDO SANTANA CARVALHO               RUA HONDURAS - 477 - PARQUE DAS AMERICAS            09351070                                                            000014
2SR. CAIXA, APOS O VENCIMENTO COBRAR 2% DE MULTA                                 NAO RECEBER APOS 30 DIAS DO VENCIMENTO.                                                                                                                                                                                                         09032100000000000000903210000000000000       0090339900006270050714032119000015
100000000000000000000009033990000627000000000000000000000000010002020002841703211200000000002            2  01028417032124032100000002975940000000001N090321000000000000000000000000000000000000000000000000000000000000000100002841756416LUCIANA PINHEIRO DE ASSIS NUNES         RUA RIO ACIMA - 81 - RIACHO GRANDE - SAO            09830100                                                            000017
2SR. CAIXA, APOS O VENCIMENTO COBRAR 2% DE MULTA                                 NAO RECEBER APOS 30 DIAS DO VENCIMENTO.                                                                                                                                                                                                         09032100000000000000903210000000000000       0090339900006270028417032112000018
100000000000000000000009033990000627000000000000000000000000010002020084302003211100000000002            2  01843020032124032100000002990220000000001N090321000000000000000000000000000000000000000000000000000000000000000100084302097868FAUSTO TADEU VILOR                      RUA ANTONIO TAVARES - 466 - BAIRRO CAMBU            01542010                                                            000020
2SR. CAIXA, APOS O VENCIMENTO COBRAR 2% DE MULTA                                 NAO RECEBER APOS 30 DIAS DO VENCIMENTO.                                                                                                                                                                                                         09032100000000000000903210000000000000       0090339900006270843020032111000021
100000000000000000000009033990000627000000000000000000000000010002020028804203211100000000002            2  01288042032124032100000002937940000000001N090321000000000000000000000000000000000000000000000000000000000000000100028804202882GILBERTO FABIANO CABRAL DE CAMARGO      RUA CARLOS JOSE BORSTENS - 50 AP.44 - AV            11702750                                                            000023
2SR. CAIXA, APOS O VENCIMENTO COBRAR 2% DE MULTA                                 NAO RECEBER APOS 30 DIAS DO VENCIMENTO.                                                                                                                                                                                                         09032100000000000000903210000000000000       0090339900006270288042032111000024
100000000000000000000009033990000627000000000000000000000000010002020000991703211400000000002            2  01009917032124032100000002867530000000001N090321000000000000000000000000000000000000000000000000000000000000000100000991748808JAILSON BORGES DE ANDRADE               RUA IPIOBUNA - 45 - JARDIM CUMBICA - GUA            07240040                                                            000026
2SR. CAIXA, APOS O VENCIMENTO COBRAR 2% DE MULTA                                 NAO RECEBER APOS 30 DIAS DO VENCIMENTO.                                                                                                                                                                                                         09032100000000000000903210000000000000       0090339900006270009917032114000027
100000000000000000000009033990000627000000000000000000000000010002020022151603211000000000002            2  01221516032124032100000002850870000000001N090321000000000000000000000000000000000000000000000000000000000000000100022151666816SAMIR LIMA DE ARAUJO                    AVENIDA GUARAPIRANGA - 2616 AP.131 BL.14            04902005                                                            000029
2SR. CAIXA, APOS O VENCIMENTO COBRAR 2% DE MULTA                                 NAO RECEBER APOS 30 DIAS DO VENCIMENTO.                                                                                                                                                                                                         09032100000000000000903210000000000000       0090339900006270221516032110000030
100000000000000000000009033990000627000000000000000000000000010002020022313103211200000000002            2  01223131032126032100000002193000000000001N090321000000000000000000000000000000000000000000000000000000000000000100022313116824ROSA MARIA BRITO DA SILVA               RUA SERVIDAO DE SAO MARCOS - 113 - JARDI            04930300                                                            000032
2SR. CAIXA, APOS O VENCIMENTO COBRAR 2% DE MULTA                                 NAO RECEBER APOS 30 DIAS DO VENCIMENTO.                                                                                                                                                                                                         09032100000000000000903210000000000000       0090339900006270223131032112000033
100000000000000000000009033990000627000000000000000000000000010002020027538003211400000000002            2  01275380032126032100000002200660000000001N090321000000000000000000000000000000000000000000000000000000000000000100027538087249MARA LUCIA MENEZES DA COSTA             RUA LEILA  - 183 - ITAQUERA - SAO PAULO             08240020                                                            000035
2SR. CAIXA, APOS O VENCIMENTO COBRAR 2% DE MULTA                                 NAO RECEBER APOS 30 DIAS DO VENCIMENTO.                                                                                                                                                                                                         09032100000000000000903210000000000000       0090339900006270275380032114000036
100000000000000000000009033990000627000000000000000000000000010002020031278403211000000000002            2  01312784032124032100000002754040000000001N090321000000000000000000000000000000000000000000000000000000000000000100031278411836JEFFERSON DE PIERI PIRES ZAMUNER        RUA MANOEL ARCE - 277 - PARQUE BANCARIO             03922150                                                            000038
2SR. CAIXA, APOS O VENCIMENTO COBRAR 2% DE MULTA                                 NAO RECEBER APOS 30 DIAS DO VENCIMENTO.                                                                                                                                                                                                         09032100000000000000903210000000000000       0090339900006270312784032110000039
100000000000000000000009033990000627000000000000000000000000010002020019185703211200000000002            2  01191857032126032100000002002640000000001N090321000000000000000000000000000000000000000000000000000000000000000100019185769800AGUINALDO PESSOA DE LIMA                RUA JANUARIO ZINGARO - 252 AP.303 BL.04             05794300                                                            000041
2SR. CAIXA, APOS O VENCIMENTO COBRAR 2% DE MULTA                                 NAO RECEBER APOS 30 DIAS DO VENCIMENTO.                                                                                                                                                                                                         09032100000000000000903210000000000000       0090339900006270191857032112000042
100000000000000000000009033990000627000000000000000000000000010002020033303603211300000000002            2  01333036032126032100000002157020000000001N090321000000000000000000000000000000000000000000000000000000000000000100033303645809JESSICA DA SILVA FREITAS                RUA ARILDO VALADAO - 120 - JARDIM GUAEMB            04814600                                                            000044
2SR. CAIXA, APOS O VENCIMENTO COBRAR 2% DE MULTA                                 NAO RECEBER APOS 30 DIAS DO VENCIMENTO.                                                                                                                                                                                                         09032100000000000000903210000000000000       0090339900006270333036032113000045
100000000000000000000009033990000627000000000000000000000000010002020006422603211900000000002            2  01064226032124032100000002982670000000001N090321000000000000000000000000000000000000000000000000000000000000000100006422607881GERALDO ALVES DA SILVA                  RUA CARLOS JOSE BORSTENS - 50 AP.14 - AV            11702750                                                            000047
2SR. CAIXA, APOS O VENCIMENTO COBRAR 2% DE MULTA                                 NAO RECEBER APOS 30 DIAS DO VENCIMENTO.                                                                                                                                                                                                         09032100000000000000903210000000000000       0090339900006270064226032119000048
100000000000000000000009033990000627000000000000000000000000010002020033877103211000000000002            2  01338771032126032100000002022270000000001N090321000000000000000000000000000000000000000000000000000000000000000100033877129870HELDER FERREIRA VIANA                   RUA JOSE CALIXTO DO CARMO - 286 AP.35 -             11702690                                                            000050
2SR. CAIXA, APOS O VENCIMENTO COBRAR 2% DE MULTA                                 NAO RECEBER APOS 30 DIAS DO VENCIMENTO.                                                                                                                                                                                                         09032100000000000000903210000000000000       0090339900006270338771032110000051
100000000000000000000009033990000627000000000000000000000000010002020028290703211400000000002            2  01282907032126032100000001863790000000001N090321000000000000000000000000000000000000000000000000000000000000000100028290719809VANESSA GIANGARRELLI PEREIRA            RUA BARINEL - 72 - JARDIM COTCHING - SAO            03462130                                                            000053
2SR. CAIXA, APOS O VENCIMENTO COBRAR 2% DE MULTA                                 NAO RECEBER APOS 30 DIAS DO VENCIMENTO.                                                                                                                                                                                                         09032100000000000000903210000000000000       0090339900006270282907032114000054
100000000000000000000009033990000627000000000000000000000000010002020087573003211P00000000002            2  01875730032126032100000002035240000000001N090321000000000000000000000000000000000000000000000000000000000000000100087573059604VANDERLEY DE ASSIS                      RUA ROMEU ALBANI - 268 - JARDIM PARQUE R            13803810                                                            000056
2SR. CAIXA, APOS O VENCIMENTO COBRAR 2% DE MULTA                                 NAO RECEBER APOS 30 DIAS DO VENCIMENTO.                                                                                                                                                                                                         09032100000000000000903210000000000000       009033990000627087573003211P000057
100000000000000000000009033990000627000000000000000000000000010002020010825503211700000000002            2  01108255032126032100000002123860000000001N090321000000000000000000000000000000000000000000000000000000000000000100010825513847JOSE APARECIDO PEREIRA                  RUA GENERAL OSORIO - 305 - JARDIM TRINTA            11515130                                                            000059
2SR. CAIXA, APOS O VENCIMENTO COBRAR 2% DE MULTA                                 NAO RECEBER APOS 30 DIAS DO VENCIMENTO.                                                                                                                                                                                                         09032100000000000000903210000000000000       0090339900006270108255032117000060
100000000000000000000009033990000627000000000000000000000000010002020039115103211900000000002            2  01391151032126032100000002618040000000001N090321000000000000000000000000000000000000000000000000000000000000000100039115139840LAIS CRISTINA RIBEIRO ANDO              RUA JOSE CALIXTO DO CARMO - 286 AP.65 -             11702690                                                            000062
2SR. CAIXA, APOS O VENCIMENTO COBRAR 2% DE MULTA                                 NAO RECEBER APOS 30 DIAS DO VENCIMENTO.                                                                                                                                                                                                         09032100000000000000903210000000000000       0090339900006270391151032119000063
100000000000000000000009033990000627000000000000000000000000010002020029617503211700000000002            2  01296175032124032100000002927590000000001N090321000000000000000000000000000000000000000000000000000000000000000100029617510553MARILENE SOUZA DE OLIVEIRA              AVENIDA BRASIL - 393 AP.09 - PARQUE DAS             09210280                                                            000065
2SR. CAIXA, APOS O VENCIMENTO COBRAR 2% DE MULTA                                 NAO RECEBER APOS 30 DIAS DO VENCIMENTO.                                                                                                                                                                                                         09032100000000000000903210000000000000       0090339900006270296175032117000066
100000000000000000000009033990000627000000000000000000000000010002020000593203211700000000002            2  01005932032124032100000003210860000000001N090321000000000000000000000000000000000000000000000000000000000000000100000593293860WALTER HELIO BARBOSA FILHO              AVENIDA ANTONIO FREDERICO OZANAN - 9500             13214206                                                            000068
2SR. CAIXA, APOS O VENCIMENTO COBRAR 2% DE MULTA                                 NAO RECEBER APOS 30 DIAS DO VENCIMENTO.                                                                                                                                                                                                         09032100000000000000903210000000000000       0090339900006270005932032117000069
100000000000000000000009033990000627000000000000000000000000010002020007730003211200000000002            2  01077300032124032100000004566160000000001N090321000000000000000000000000000000000000000000000000000000000000000100007730084899ARNALDO LUIZ VONO                       RUA CARLOS JOSE BORSTENS - 50 AP.122 - A            11702750                                                            000071
2SR. CAIXA, APOS O VENCIMENTO COBRAR 2% DE MULTA                                 NAO RECEBER APOS 30 DIAS DO VENCIMENTO.                                                                                                                                                                                                         09032100000000000000903210000000000000       0090339900006270077300032112000072
100000000000000000000009033990000627000000000000000000000000010002020065584103211900000000002            2  01655841032124032100000001685530000000001N090321000000000000000000000000000000000000000000000000000000000000000100065584147834JOAQUIM DA COSTA MACHADO NETO           RUA CARLOS JOSE BORSTENS - 50 AP.42 - AV            11702750                                                            000074
2SR. CAIXA, APOS O VENCIMENTO COBRAR 2% DE MULTA                                 NAO RECEBER APOS 30 DIAS DO VENCIMENTO.                                                                                                                                                                                                         09032100000000000000903210000000000000       0090339900006270655841032119000075
100000000000000000000009033990000627000000000000000000000000010002020065584103212700000000002            2  01655841032124032100000001685520000000001N090321000000000000000000000000000000000000000000000000000000000000000100065584147834JOAQUIM DA COSTA MACHADO NETO           RUA CARLOS JOSE BORSTENS - 50 AP.42 - AV            11702750                                                            000077
2SR. CAIXA, APOS O VENCIMENTO COBRAR 2% DE MULTA                                 NAO RECEBER APOS 30 DIAS DO VENCIMENTO.                                                                                                                                                                                                         09032100000000000000903210000000000000       0090339900006270655841032127000078
100000000000000000000009033990000627000000000000000000000000010002020006684603211100000000002            2  01066846032126032100000002156750000000001N090321000000000000000000000000000000000000000000000000000000000000000100006684623884LAUDINOR VIEIRA GARCIA                  RUA CANDIDO SALES - 374 - JARDIM PRESIDE            07172000                                                            000080
2SR. CAIXA, APOS O VENCIMENTO COBRAR 2% DE MULTA                                 NAO RECEBER APOS 30 DIAS DO VENCIMENTO.                                                                                                                                                                                                         09032100000000000000903210000000000000       0090339900006270066846032111000081
100000000000000000000009033990000627000000000000000000000000010002020011663503211200000000002            2  01116635032126032100000002172270000000001N090321000000000000000000000000000000000000000000000000000000000000000100011663589844MARIA SAVIO QUARELLO                    AVENIDA MENDONCA DRUMOND - 321 - JARDIM             03524030                                                            000083
2SR. CAIXA, APOS O VENCIMENTO COBRAR 2% DE MULTA                                 NAO RECEBER APOS 30 DIAS DO VENCIMENTO.                                                                                                                                                                                                         09032100000000000000903210000000000000       0090339900006270116635032112000084
100000000000000000000009033990000627000000000000000000000000010002020010083803211400000000002            2  01100838032126032100000002098770000000001N090321000000000000000000000000000000000000000000000000000000000000000100010083824855IONE FERREIRA COUTO DA SILVA            RUA JOSE RAGEL DE MESQUITA - 60 CS.01 -             07799999                                                            000086
2SR. CAIXA, APOS O VENCIMENTO COBRAR 2% DE MULTA                                 NAO RECEBER APOS 30 DIAS DO VENCIMENTO.                                                                                                                                                                                                         09032100000000000000903210000000000000       0090339900006270100838032114000087
100000000000000000000009033990000627000000000000000000000000010002020031010703211P00000000002            2  01310107032126032100000002059570000000001N090321000000000000000000000000000000000000000000000000000000000000000100031010705890ANDRE GONZALEZ RABELLO                  RUA PARAIBA - 106 AP.61 - POMPEIA - SANT            11065470                                                            000089
2SR. CAIXA, APOS O VENCIMENTO COBRAR 2% DE MULTA                                 NAO RECEBER APOS 30 DIAS DO VENCIMENTO.                                                                                                                                                                                                         09032100000000000000903210000000000000       009033990000627031010703211P000090
100000000000000000000009033990000627000000000000000000000000010002020005351003211900000000002            2  01053510032126032100000001931070000000001N090321000000000000000000000000000000000000000000000000000000000000000100005351015897VALERIA ALVES MARCOLINO HINNIGER        RUA JOSE CALIXTO DO CARMO - 286 AP.92 -             11702690                                                            000092
2SR. CAIXA, APOS O VENCIMENTO COBRAR 2% DE MULTA                                 NAO RECEBER APOS 30 DIAS DO VENCIMENTO.                                                                                                                                                                                                         09032100000000000000903210000000000000       0090339900006270053510032119000093
100000000000000000000009033990000627000000000000000000000000010002020031898703211400000000002            2  01318987032124032100000003072280000000001N090321000000000000000000000000000000000000000000000000000000000000000100031898775800ANITA MARTINS COLOMBO                   RUA CARLOS JOSE BORSTENS - 50 AP.115 - A            11702750                                                            000095
2SR. CAIXA, APOS O VENCIMENTO COBRAR 2% DE MULTA                                 NAO RECEBER APOS 30 DIAS DO VENCIMENTO.                                                                                                                                                                                                         09032100000000000000903210000000000000       0090339900006270318987032114000096
100000000000000000000009033990000627000000000000000000000000010002020037983403211400000000002            2  01379834032126032100000002268390000000001N090321000000000000000000000000000000000000000000000000000000000000000100037983484801JOSE ERIVALDO SOUZA DO NASCIMENTO RAMOS RUA LETICIA - 250 - JARDIM GUARUJA - SAO            05877260                                                            000098
2SR. CAIXA, APOS O VENCIMENTO COBRAR 2% DE MULTA                                 NAO RECEBER APOS 30 DIAS DO VENCIMENTO.                                                                                                                                                                                                         09032100000000000000903210000000000000       0090339900006270379834032114000099
100000000000000000000009033990000627000000000000000000000000010002020056289203211500000000002            2  01562892032126032100000001713650000000001N090321000000000000000000000000000000000000000000000000000000000000000100056289286900PEDRO RIBEIRO                           RUA CONEGO MANOEL VAZ - 48 - SANTANA - S            02019050                                                            000101
2SR. CAIXA, APOS O VENCIMENTO COBRAR 2% DE MULTA                                 NAO RECEBER APOS 30 DIAS DO VENCIMENTO.                                                                                                                                                                                                         09032100000000000000903210000000000000       0090339900006270562892032115000102
100000000000000000000009033990000627000000000000000000000000010002020005025503211900000000002            2  01050255032126032100000002438690000000001N090321000000000000000000000000000000000000000000000000000000000000000100005025595860CONCEICAO APARECIDA DE MESQUITA PEREIRA RUA JOSE CALIXTO DO CARMO - 286 AP.121 -            11702690                                                            000104
2SR. CAIXA, APOS O VENCIMENTO COBRAR 2% DE MULTA                                 NAO RECEBER APOS 30 DIAS DO VENCIMENTO.                                                                                                                                                                                                         09032100000000000000903210000000000000       0090339900006270050255032119000105
100000000000000000000009033990000627000000000000000000000000010002020034735303211100000000002            2  01347353032126032100000002351880000000001N090321000000000000000000000000000000000000000000000000000000000000000100034735328866DIEGO FELIPE MOLINA DA SILVA E SOUSA    RUA EMILIA PAULISTA - 135 - VILA TIRADEN            05364020                                                            000107
2SR. CAIXA, APOS O VENCIMENTO COBRAR 2% DE MULTA                                 NAO RECEBER APOS 30 DIAS DO VENCIMENTO.                                                                                                                                                                                                         09032100000000000000903210000000000000       0090339900006270347353032111000108
100000000000000000000009033990000627000000000000000000000000010002020076175603211200000000002            2  01761756032124032100000004263670000000001N090321000000000000000000000000000000000000000000000000000000000000000100076175685687GILMAR DE OLIVEIRA BRAGA                RUA MARACAJU - 161 AP.202 - NOVA GRANADA            30431350                                                            000110
2SR. CAIXA, APOS O VENCIMENTO COBRAR 2% DE MULTA                                 NAO RECEBER APOS 30 DIAS DO VENCIMENTO.                                                                                                                                                                                                         09032100000000000000903210000000000000       0090339900006270761756032112000111
100000000000000000000009033990000627000000000000000000000000010002020034812203211500000000002            2  01348122032124032100000004066280000000001N090321000000000000000000000000000000000000000000000000000000000000000100034812226880THAIS TORQUATO MIMOSO DE JESUS          RUA ARNALDO CINTRA - 416 AP.104 TORRE 2             03088000                                                            000113
2SR. CAIXA, APOS O VENCIMENTO COBRAR 2% DE MULTA                                 NAO RECEBER APOS 30 DIAS DO VENCIMENTO.                                                                                                                                                                                                         09032100000000000000903210000000000000       0090339900006270348122032115000114
100000000000000000000009033990000627000000000000000000000000010002020012849403211100000000002            2  01128494032126032100000004051650000000001N090321000000000000000000000000000000000000000000000000000000000000000100012849428809MOISES CLAUDIO DO ROSARIO               AVENIDA DR. AUGUSTO DE TOLEDO - 510 AP.1            09541520                                                            000116
2SR. CAIXA, APOS O VENCIMENTO COBRAR 2% DE MULTA                                 NAO RECEBER APOS 30 DIAS DO VENCIMENTO.                                                                                                                                                                                                         09032100000000000000903210000000000000       0090339900006270128494032111000117
100000000000000000000009033990000627000000000000000000000000010002020015702303211100000000002            2  01157023032126032100000002247940000000001N090321000000000000000000000000000000000000000000000000000000000000000100015702353846MARIA DE LOURDES DE MACENO SOUZA        RUA JOSE CALIXTO DO CARMO - 286 AP.83 -             11702690                                                            000119
2SR. CAIXA, APOS O VENCIMENTO COBRAR 2% DE MULTA                                 NAO RECEBER APOS 30 DIAS DO VENCIMENTO.                                                                                                                                                                                                         09032100000000000000903210000000000000       0090339900006270157023032111000120
100000000000000000000009033990000627000000000000000000000000010002020003658603211600000000002            2  01036586032126032100000001673820000000001N090321000000000000000000000000000000000000000000000000000000000000000100003658668814MARINEZ VALENTIN                        RUA JOSE CALIXTO DO CARMO - 286 AP.95 -             11702690                                                            000122
2SR. CAIXA, APOS O VENCIMENTO COBRAR 2% DE MULTA                                 NAO RECEBER APOS 30 DIAS DO VENCIMENTO.                                                                                                                                                                                                         09032100000000000000903210000000000000       0090339900006270036586032116000123
100000000000000000000009033990000627000000000000000000000000010002020003658603212400000000002            2  01036586032126032100000001673810000000001N090321000000000000000000000000000000000000000000000000000000000000000100003658668814MARINEZ VALENTIN                        RUA JOSE CALIXTO DO CARMO - 286 AP.95 -             11702690                                                            000125
2SR. CAIXA, APOS O VENCIMENTO COBRAR 2% DE MULTA                                 NAO RECEBER APOS 30 DIAS DO VENCIMENTO.                                                                                                                                                                                                         09032100000000000000903210000000000000       0090339900006270036586032124000126
100000000000000000000009033990000627000000000000000000000000010002020014087403211400000000002            2  01140874032126032100000002236900000000001N090321000000000000000000000000000000000000000000000000000000000000000100014087484874SERGIO SANTOS DO NASCIMENTO             RUA PANTALEAO BRAZ - 21 - JARDIM ESTER -            05372080                                                            000128
2SR. CAIXA, APOS O VENCIMENTO COBRAR 2% DE MULTA                                 NAO RECEBER APOS 30 DIAS DO VENCIMENTO.                                                                                                                                                                                                         09032100000000000000903210000000000000       0090339900006270140874032114000129
100000000000000000000009033990000627000000000000000000000000010002020026834503211300000000002            2  01268345032126032100000002061040000000001N090321000000000000000000000000000000000000000000000000000000000000000100026834550895RAQUEL CARDOSO JOAO                     RUA PEDROSO XAVIER - 277 AP.23 TORRE 01             02732020                                                            000131
2SR. CAIXA, APOS O VENCIMENTO COBRAR 2% DE MULTA                                 NAO RECEBER APOS 30 DIAS DO VENCIMENTO.                                                                                                                                                                                                         09032100000000000000903210000000000000       0090339900006270268345032113000132
100000000000000000000009033990000627000000000000000000000000010002020039540003211100000000002            2  01395400032126032100000002026290000000001N090321000000000000000000000000000000000000000000000000000000000000000100039540008816LUZINETE CLARINDO SILVA                 RUA DEINOS - 275 - BAIRRO CIDADE SATELIT            08340100                                                            000134
2SR. CAIXA, APOS O VENCIMENTO COBRAR 2% DE MULTA                                 NAO RECEBER APOS 30 DIAS DO VENCIMENTO.                                                                                                                                                                                                         09032100000000000000903210000000000000       0090339900006270395400032111000135
100000000000000000000009033990000627000000000000000000000000010002020003311003211900000000002            2  01033110032126032100000002110140000000001N090321000000000000000000000000000000000000000000000000000000000000000100003311030877SEBASTIAO SARUVA NETO                   RUA HAMILTON REGIS - 559 - BAIRRO DO LIM            08051440                                                            000137
2SR. CAIXA, APOS O VENCIMENTO COBRAR 2% DE MULTA                                 NAO RECEBER APOS 30 DIAS DO VENCIMENTO.                                                                                                                                                                                                         09032100000000000000903210000000000000       0090339900006270033110032119000138
100000000000000000000009033990000627000000000000000000000000010002020090091903211500000000002            2  01900919032126032100000002016990000000001N090321000000000000000000000000000000000000000000000000000000000000000100090091990882JUECIR CARVALHO DA LUZ                  RUA JOSE CALIXTO DO CARMO - 286 AP.114 -            11702690                                                            000140
2SR. CAIXA, APOS O VENCIMENTO COBRAR 2% DE MULTA                                 NAO RECEBER APOS 30 DIAS DO VENCIMENTO.                                                                                                                                                                                                         09032100000000000000903210000000000000       0090339900006270900919032115000141
100000000000000000000009033990000627000000000000000000000000010002020037325903211700000000002            2  01373259032126032100000001650630000000001N090321000000000000000000000000000000000000000000000000000000000000000100037325923830MARIA AUGUSTA OLIVEIRA DE ANDRADE       RUA CAIAPOS - 842 AP.63 - VILA TUPI - PR            11703320                                                            000143
2SR. CAIXA, APOS O VENCIMENTO COBRAR 2% DE MULTA                                 NAO RECEBER APOS 30 DIAS DO VENCIMENTO.                                                                                                                                                                                                         09032100000000000000903210000000000000       0090339900006270373259032117000144
100000000000000000000009033990000627000000000000000000000000010002020012478803211400000000002            2  01124788032124032100000003005050000000001N090321000000000000000000000000000000000000000000000000000000000000000100012478899809VITORIA BATISTA QUEIROZ                 RUA CARVALHO DE FREITAS - 255 AP.71A - V            05728030                                                            000146
2SR. CAIXA, APOS O VENCIMENTO COBRAR 2% DE MULTA                                 NAO RECEBER APOS 30 DIAS DO VENCIMENTO.                                                                                                                                                                                                         09032100000000000000903210000000000000       0090339900006270124788032114000147
100000000000000000000009033990000627000000000000000000000000010002020097989903211900000000002            2  01979899032126032100000001385760000000001N090321000000000000000000000000000000000000000000000000000000000000000100097989924820NELSON LUIS BERRIBILLE                  RUA SILVEIRA IGNACIO SOBRINHO - 965 - VI            13560294                                                            000149
2SR. CAIXA, APOS O VENCIMENTO COBRAR 2% DE MULTA                                 NAO RECEBER APOS 30 DIAS DO VENCIMENTO.                                                                                                                                                                                                         09032100000000000000903210000000000000       0090339900006270979899032119000150
100000000000000000000009033990000627000000000000000000000000010002020032341803211800000000002            2  01323418032124032100000003121400000000001N090321000000000000000000000000000000000000000000000000000000000000000100032341847803PRISCILA ALVES DE FRANCA MIRANDA        RUA CARLOS JOSE BORSTENS - 50 AP.91 - AV            11702750                                                            000152
2SR. CAIXA, APOS O VENCIMENTO COBRAR 2% DE MULTA                                 NAO RECEBER APOS 30 DIAS DO VENCIMENTO.                                                                                                                                                                                                         09032100000000000000903210000000000000       0090339900006270323418032118000153
100000000000000000000009033990000627000000000000000000000000010002020061915503211400000000002            2  01619155032126032100000001949340000000001N090321000000000000000000000000000000000000000000000000000000000000000100061915599849NOE ERMINIO CIOFFI                      RUA ASTURIA - 106 - IMIRIN - SAO PAULO -            02540000                                                            000155
2SR. CAIXA, APOS O VENCIMENTO COBRAR 2% DE MULTA                                 NAO RECEBER APOS 30 DIAS DO VENCIMENTO.                                                                                                                                                                                                         09032100000000000000903210000000000000       0090339900006270619155032114000156
100000000000000000000009033990000627000000000000000000000000010002020016050603211300000000002            2  01160506032124032100000002897250000000001N090321000000000000000000000000000000000000000000000000000000000000000100016050684898ANDRE RODRIGUES DE OLIVEIRA             RUA CORACAO PAULISTA - 14 - FAZENDA ITAI            08132430                                                            000158
2SR. CAIXA, APOS O VENCIMENTO COBRAR 2% DE MULTA                                 NAO RECEBER APOS 30 DIAS DO VENCIMENTO.                                                                                                                                                                                                         09032100000000000000903210000000000000       0090339900006270160506032113000159
9                                                                                                                                                                                                                                                                                                                                                                                                         000160