01REMESSA01COBRANCA       00000000000008017025HB SANTOS CONSTRUTORA E INCORP237BRADESCO       130217        MX0000024                                                                                                                                                                                                                                                                                     000001
100000000000000000000009033990000627000000000000000000000000010002020026779102112900000000002            2  01267791021116021700000000020750000000099N130217000000000000000000000000000000000000000000000000000000000000000100002252149892AIRES MOTA                              AV. BRASIL - 600 - BOQUEIRAO - PRAIA GRA            11701090                                                            000002
2SR. CAIXA, APOS O VENCIMENTO COBRAR 2% DE MULTA                                 NAO RECEBER APOS 30 DIAS DO VENCIMENTO.                                                                                                                                                                                                         13021700000000000001302170000000000000       0090339900006270267791021129000003
9                                                                                                                                                                                                                                                                                                                                                                                                         000004