01REMESSA01COBRANCA       00000000000004991781AIRES CONSTRUTORA E INCORPORAD237BRADESCO       090517        MX0000082                                                                                                                                                                                                                                                                                     000001
100000000000000000000009077090006612500000000000000000000000010002100000012021212800000000002            2  01001202121225051700000003180190000000001N090517000000000000000000000000000000000000000000000000000000000000000100001224509579REINALDO JUNIOR MARTINS DE ABREU        RUA JUSTINO NIGRO - 449 - INTERLAGOS - S            04815030                                                            000002
2SR. CAIXA, APOS O VENCIMENTO COBRAR 10% DE MULTA                                NAO RECEBER APOS 30 DIAS DO VENCIMENTO.                                                                                                                                                                                                         09051700000000000000905170000000000000       0090770900066125000120212128000003
100000000000000000000009077090006612500000000000000000000000010002100000013031313500000000002            2  01001303131325051700000003092940000000001N090517000000000000000000000000000000000000000000000000000000000000000100003325102808MARCOS DE OLIVEIRA JUNIOR               RUA LUIS NOVELLETO - 91 - PARQUE CONTINE            05324080                                                            000005
2SR. CAIXA, APOS O VENCIMENTO COBRAR 10% DE MULTA                                NAO RECEBER APOS 30 DIAS DO VENCIMENTO.                                                                                                                                                                                                         09051700000000000000905170000000000000       0090770900066125000130313135000006
100000000000000000000009077090006612500000000000000000000000010002100000015071515900000000002            2  01001507151525051700000003137840000000001N090517000000000000000000000000000000000000000000000000000000000000000100016338929806EDVALDO DA SILVA ANDRADE                RUA ARIA - 434 - PARQUE ALVES DE LIMA -             04902170                                                            000008
2SR. CAIXA, APOS O VENCIMENTO COBRAR 10% DE MULTA                                NAO RECEBER APOS 30 DIAS DO VENCIMENTO.                                                                                                                                                                                                         09051700000000000000905170000000000000       0090770900066125000150715159000009
100000000000000000000009077090006612500000000000000000000000010002100000018021818400000000002            2  01001802181825051700000002841530000000001N090517000000000000000000000000000000000000000000000000000000000000000100026836908860VANDERLEI FIGUEIREDO DE CARVALHO        RUA TUPI - 840 - VILA TUPI - PRAIA GRAND            11703260                                                            000011
2SR. CAIXA, APOS O VENCIMENTO COBRAR 10% DE MULTA                                NAO RECEBER APOS 30 DIAS DO VENCIMENTO.                                                                                                                                                                                                         09051700000000000000905170000000000000       0090770900066125000180218184000012
100000000000000000000009077090006612500000000000000000000000010002100000020062020000000000002            2  01002006202025051700000003156160000000001N090517000000000000000000000000000000000000000000000000000000000000000100059861576800REINALDO LOPES DE OLIVEIRA              RUA DA SERVIDAO - 40 - VILA ROSCHEL - SA            04891045                                                            000014
2SR. CAIXA, APOS O VENCIMENTO COBRAR 10% DE MULTA                                NAO RECEBER APOS 30 DIAS DO VENCIMENTO.                                                                                                                                                                                                         09051700000000000000905170000000000000       0090770900066125000200620200000015
100000000000000000000009077090006612500000000000000000000000010002100000021112121400000000002            2  01002111212125051700000001801820000000001N090517000000000000000000000000000000000000000000000000000000000000000100008158846807JULIO CESAR KYOO WATANUKI               AVENIDA PRESIDENTE CASTELO BRANCO - 460             11700800                                                            000017
2SR. CAIXA, APOS O VENCIMENTO COBRAR 10% DE MULTA                                NAO RECEBER APOS 30 DIAS DO VENCIMENTO.                                                                                                                                                                                                         09051700000000000000905170000000000000       0090770900066125000211121214000018
100000000000000000000009077090006612500000000000000000000000010002100000028222628900000000002            2  01002822262825051700000003548980000000001N090517000000000000000000000000000000000000000000000000000000000000000100007733816866GILBERTO MINORU IRITSU                  ACACIA - 410 - JARDIM DAS FLORES - OSASC            06120120                                                            000020
2SR. CAIXA, APOS O VENCIMENTO COBRAR 10% DE MULTA                                NAO RECEBER APOS 30 DIAS DO VENCIMENTO.                                                                                                                                                                                                         09051700000000000000905170000000000000       0090770900066125000282226289000021
100000000000000000000009077090006612500000000000000000000000010002100000030142830000000000002            2  01003014283025051700000002830740000000001N090517000000000000000000000000000000000000000000000000000000000000000100028379879805EDMILSON DANIEL GARCIA WATANUKI         RUA MONTE CASTELO - 295 AP.82 - AVIACAO             11702720                                                            000023
2SR. CAIXA, APOS O VENCIMENTO COBRAR 10% DE MULTA                                NAO RECEBER APOS 30 DIAS DO VENCIMENTO.                                                                                                                                                                                                         09051700000000000000905170000000000000       0090770900066125000301428300000024
100000000000000000000009077090006612500000000000000000000000010002100000037933538400000000002            2  01003793353825051700000003137060000000001N090517000000000000000000000000000000000000000000000000000000000000000100016330938830KARINA CORDEIRO PIASSA                  CONDE MOREIRA LIMA - 644 - JARDIM JABAQU            04384032                                                            000026
2SR. CAIXA, APOS O VENCIMENTO COBRAR 10% DE MULTA                                NAO RECEBER APOS 30 DIAS DO VENCIMENTO.                                                                                                                                                                                                         09051700000000000000905170000000000000       0090770900066125000379335384000027
100000000000000000000009077090006612500000000000000000000000010002100000043824044900000000002            2  01004382404425051700000003048960000000001N090517000000000000000000000000000000000000000000000000000000000000000100077027604868CLINEU LISSONI                          AVENIDA VILA EMA - 1100 AP.41 - VILA PRU            03156000                                                            000029
2SR. CAIXA, APOS O VENCIMENTO COBRAR 10% DE MULTA                                NAO RECEBER APOS 30 DIAS DO VENCIMENTO.                                                                                                                                                                                                         09051700000000000000905170000000000000       0090770900066125000438240449000030
100000000000000000000009077090006612500000000000000000000000010002100000050594751P00000000002            2  01005059475125051700000002858540000000001N090517000000000000000000000000000000000000000000000000000000000000000100005627947861FERNANDO CESAR MARCELINO                RUA CASA FORTE - 46 AP.11 - AGUA FRIA -             02336040                                                            000032
2SR. CAIXA, APOS O VENCIMENTO COBRAR 10% DE MULTA                                NAO RECEBER APOS 30 DIAS DO VENCIMENTO.                                                                                                                                                                                                         09051700000000000000905170000000000000       009077090006612500050594751P000033
100000000000000000000009077090006612500000000000000000000000010002100000052514953900000000002            2  01005251495325051700000002841700000000001N090517000000000000000000000000000000000000000000000000000000000000000100029380708882EDUARDO MENDONCA DAMASCENO              RUA MONTE CASTELO - 296 AP.12 - AVIACAO             11702720                                                            000035
2SR. CAIXA, APOS O VENCIMENTO COBRAR 10% DE MULTA                                NAO RECEBER APOS 30 DIAS DO VENCIMENTO.                                                                                                                                                                                                         09051700000000000000905170000000000000       0090770900066125000525149539000036
100000000000000000000009077090006612500000000000000000000000010002100000056585357300000000002            2  01005658535725051700000002885430000000001N090517000000000000000000000000000000000000000000000000000000000000000100023988525634DALMY PIMENTA                           SAO CAETANO - 136 - VILA SAO VICENTE - U            38026220                                                            000038
2SR. CAIXA, APOS O VENCIMENTO COBRAR 10% DE MULTA                                NAO RECEBER APOS 30 DIAS DO VENCIMENTO.                                                                                                                                                                                                         09051700000000000000905170000000000000       0090770900066125000565853573000039
100000000000000000000009077090006612500000000000000000000000010002100000058485559500000000002            2  01005848555925051700000003137200000000001N090517000000000000000000000000000000000000000000000000000000000000000100004735273832DARIO LUIZ GONCALVES                    RUA MONTE CASTELO - 295 AP.113 - AVIACAO            11702720                                                            000041
2SR. CAIXA, APOS O VENCIMENTO COBRAR 10% DE MULTA                                NAO RECEBER APOS 30 DIAS DO VENCIMENTO.                                                                                                                                                                                                         09051700000000000000905170000000000000       0090770900066125000584855595000042
100000000000000000000009077090006612500000000000000000000000010002100000060365761900000000002            2  01006036576125051700000002804870000000001N090517000000000000000000000000000000000000000000000000000000000000000100007635293893SILVIO CARDOSO ZACARIAS                 RUA SOLIDONIO LEITE - 2718 AP.102 BLOCO             03275000                                                            000044
2SR. CAIXA, APOS O VENCIMENTO COBRAR 10% DE MULTA                                NAO RECEBER APOS 30 DIAS DO VENCIMENTO.                                                                                                                                                                                                         09051700000000000000905170000000000000       0090770900066125000603657619000045
100000000000000000000009077090006612500000000000000000000000010002100000062195963000000000002            2  01006219596325051700000002745860000000001N090517000000000000000000000000000000000000000000000000000000000000000100067192920800SONIA MARIA RIBEIRO SUDO                RUA INGAZEIRA - 133 - SAO MIGUEL - SAO P            08032080                                                            000047
2SR. CAIXA, APOS O VENCIMENTO COBRAR 10% DE MULTA                                NAO RECEBER APOS 30 DIAS DO VENCIMENTO.                                                                                                                                                                                                         09051700000000000000905170000000000000       0090770900066125000621959630000048
100000000000000000000009077090006612500000000000000000000000010002100000063106064400000000002            2  01006310606425051700000003051560000000001N090517000000000000000000000000000000000000000000000000000000000000000100007975958808JOCY VIGNADO                            RUA PEDRO GONCALVES SOBRINHO - 568 - PAR            13098641                                                            000050
2SR. CAIXA, APOS O VENCIMENTO COBRAR 10% DE MULTA                                NAO RECEBER APOS 30 DIAS DO VENCIMENTO.                                                                                                                                                                                                         09051700000000000000905170000000000000       0090770900066125000631060644000051
100000000000000000000009077090006612500000000000000000000000010002100000068106569800000000002            2  01006810656925051700000002853340000000001N090517000000000000000000000000000000000000000000000000000000000000000100036712580803WALTER BARRETO DE ALMEIDA               RUA MONTE CASTELO - 296 AP.44 - AVIACAO             11702720                                                            000053
2SR. CAIXA, APOS O VENCIMENTO COBRAR 10% DE MULTA                                NAO RECEBER APOS 30 DIAS DO VENCIMENTO.                                                                                                                                                                                                         09051700000000000000905170000000000000       0090770900066125000681065698000054
100000000000000000000009077090006612500000000000000000000000010002100000073987075800000000002            2  01007398707525051700000003031060000000001N090517000000000000000000000000000000000000000000000000000000000000000100004290973876VLADIMIR PAIOLA BORREGO                 RUA GOMES - 429 - VILA IVONE - SAO PAULO            03275010                                                            000056
2SR. CAIXA, APOS O VENCIMENTO COBRAR 10% DE MULTA                                NAO RECEBER APOS 30 DIAS DO VENCIMENTO.                                                                                                                                                                                                         09051700000000000000905170000000000000       0090770900066125000739870758000057
100000000000000000000009077090006612500000000000000000000000010002100000075987277300000000002            2  01007598727725051700000003222900000000001N090517000000000000000000000000000000000000000000000000000000000000000100036386861833ALINE LEE WEI DE SOUZA                  AV. PRES.CASTELO BRANCO - 9127 AP.251 BL            11704600                                                            000059
2SR. CAIXA, APOS O VENCIMENTO COBRAR 10% DE MULTA                                NAO RECEBER APOS 30 DIAS DO VENCIMENTO.                                                                                                                                                                                                         09051700000000000000905170000000000000       0090770900066125000759872773000060
100000000000000000000009077090006612500000000000000000000000010002100000076857378900000000002            2  01007685737825051700000002990740000000001N090517000000000000000000000000000000000000000000000000000000000000000100026187960807CARINA CANTACESSO DE SOUZA              RUA MONTE CASTELO - 296 AP.91 - AVIACAO             11702720                                                            000062
2SR. CAIXA, APOS O VENCIMENTO COBRAR 10% DE MULTA                                NAO RECEBER APOS 30 DIAS DO VENCIMENTO.                                                                                                                                                                                                         09051700000000000000905170000000000000       0090770900066125000768573789000063
100000000000000000000009077090006612500000000000000000000000010002100000082717784100000000002            2  01008271778425051700000002931650000000001N090517000000000000000000000000000000000000000000000000000000000000000100070465320953SIDNEY CARASKI                          RUA DR.CELSO PACHECO BENTIM - 502 - PARQ            03571020                                                            000065
2SR. CAIXA, APOS O VENCIMENTO COBRAR 10% DE MULTA                                NAO RECEBER APOS 30 DIAS DO VENCIMENTO.                                                                                                                                                                                                         09051700000000000000905170000000000000       0090770900066125000827177841000066
100000000000000000000009077090006612500000000000000000000000010002100000083523985600000000002            2  01008352398525051700000002295730000000001N090517000000000000000000000000000000000000000000000000000000000000000100075759446800VALTER MUTAFEI                          JOAQUIM ABREU LUZ - 361 - PARQUE SAO LUC            03263020                                                            000068
2SR. CAIXA, APOS O VENCIMENTO COBRAR 10% DE MULTA                                NAO RECEBER APOS 30 DIAS DO VENCIMENTO.                                                                                                                                                                                                         09051700000000000000905170000000000000       0090770900066125000835239856000069
100000000000000000000009077090006612500000000000000000000000010002100000087348189P00000000002            2  01008734818925051700000003280020000000001N090517000000000000000000000000000000000000000000000000000000000000000100070328706868VALTER LIMA FERNANDES                   RUA DOMINGOS JORGE VELHO - 52 - CENTRO -            06843550                                                            000071
2SR. CAIXA, APOS O VENCIMENTO COBRAR 10% DE MULTA                                NAO RECEBER APOS 30 DIAS DO VENCIMENTO.                                                                                                                                                                                                         09051700000000000000905170000000000000       009077090006612500087348189P000072
100000000000000000000009077090006612500000000000000000000000010002100000088418290800000000002            2  01008841829025051700000001781680000000001N090517000000000000000000000000000000000000000000000000000000000000000100023132672882LEANDRO MORENO                          RUA MONTE CASTELO - 296 AP.64 - AVIACAO             11702720                                                            000074
2SR. CAIXA, APOS O VENCIMENTO COBRAR 10% DE MULTA                                NAO RECEBER APOS 30 DIAS DO VENCIMENTO.                                                                                                                                                                                                         09051700000000000000905170000000000000       0090770900066125000884182908000075
100000000000000000000009077090006612500000000000000000000000010002100000090448492200000000002            2  01009044849225051700000003038480000000001N090517000000000000000000000000000000000000000000000000000000000000000100099264692800LEONTINO PINHEIRO DA SILVA              AVENIDA JOAO BATISTA FITIPALDI - 469 - V            08685000                                                            000077
2SR. CAIXA, APOS O VENCIMENTO COBRAR 10% DE MULTA                                NAO RECEBER APOS 30 DIAS DO VENCIMENTO.                                                                                                                                                                                                         09051700000000000000905170000000000000       0090770900066125000904484922000078
100000000000000000000009077090006612500000000000000000000000010002100000092478594500000000002            2  01009247859425051700000002931270000000001N090517000000000000000000000000000000000000000000000000000000000000000100000666344825LUIZ HENRIQUE DE CAMPOS                 RUA JOAO CARLOS CAVALCANTI REIS - 21 - J            02281206                                                            000080
2SR. CAIXA, APOS O VENCIMENTO COBRAR 10% DE MULTA                                NAO RECEBER APOS 30 DIAS DO VENCIMENTO.                                                                                                                                                                                                         09051700000000000000905170000000000000       0090770900066125000924785945000081
100000000000000000000009077090006612500000000000000000000000010002100000096738898200000000002            2  01009673889825051700000003095560000000001N090517000000000000000000000000000000000000000000000000000000000000000100029155026842DANIELA YOSHIDA                         RUA FREI JOAO DO ROSARIO - 639 - VILA MA            04401090                                                            000083
2SR. CAIXA, APOS O VENCIMENTO COBRAR 10% DE MULTA                                NAO RECEBER APOS 30 DIAS DO VENCIMENTO.                                                                                                                                                                                                         09051700000000000000905170000000000000       0090770900066125000967388982000084
100000000000000000000009077090006612500000000000000000000000010002100001024794104300000000002            2  01102479410425051700000002664620000000001N090517000000000000000000000000000000000000000000000000000000000000000100034325567801LUIZ FERNANDO ALAMINO                   AVENIDA FLOR DE VILA FORMOSA - 337 - VIL            03366010                                                            000086
2SR. CAIXA, APOS O VENCIMENTO COBRAR 10% DE MULTA                                NAO RECEBER APOS 30 DIAS DO VENCIMENTO.                                                                                                                                                                                                         09051700000000000000905170000000000000       0090770900066125010247941043000087
100000000000000000000009077090006612500000000000000000000000010002100001045196106100000000002            2  01104519610625051700000002520870000000001N090517000000000000000000000000000000000000000000000000000000000000000100001204431809CEZAR TALAVERA JUNIOR                   RUA MAESTRO ARTURO DE ANGELIS  - 190 AP.            05139010                                                            000089
2SR. CAIXA, APOS O VENCIMENTO COBRAR 10% DE MULTA                                NAO RECEBER APOS 30 DIAS DO VENCIMENTO.                                                                                                                                                                                                         09051700000000000000905170000000000000       0090770900066125010451961061000090
100000000000000000000009077090006612500000000000000000000000010002100001067398108700000000002            2  01106739810825051700000003267830000000001N090517000000000000000000000000000000000000000000000000000000000000000100004227553970ALESSANDRO ISRAEL GOULART               RUA PROFESSORA CARLINDA RIBEIRO - 21 - F            02866200                                                            000092
2SR. CAIXA, APOS O VENCIMENTO COBRAR 10% DE MULTA                                NAO RECEBER APOS 30 DIAS DO VENCIMENTO.                                                                                                                                                                                                         09051700000000000000905170000000000000       0090770900066125010673981087000093
100000000000000000000009077090006612500000000000000000000000010002100001077499109100000000002            2  01107749910925051700000003011680000000001N090517000000000000000000000000000000000000000000000000000000000000000100060811420868HELIO BASSI                             AV.PARIS,575 - PRACA ANTONIO FIGUEROA -             11700082                                                            000095
2SR. CAIXA, APOS O VENCIMENTO COBRAR 10% DE MULTA                                NAO RECEBER APOS 30 DIAS DO VENCIMENTO.                                                                                                                                                                                                         09051700000000000000905170000000000000       0090770900066125010774991091000096
100000000000000000000009077090006612500000000000000000000000010002100011473106117100000000002            2  01114731061125051700000002683360000000001N090517000000000000000000000000000000000000000000000000000000000000000100027317668591ERONILTON SOUSA MOTA                    AVENIDA PRESIDENTE KENNEDY - 3203 - AVIA            11701330                                                            000098
2SR. CAIXA, APOS O VENCIMENTO COBRAR 10% DE MULTA                                NAO RECEBER APOS 30 DIAS DO VENCIMENTO.                                                                                                                                                                                                         09051700000000000000905170000000000000       0090770900066125114731061171000099
100000000000000000000009077090006612500000000000000000000000010002100011671108119500000000002            2  01116711081125051700000002849860000000001N090517000000000000000000000000000000000000000000000000000000000000000100001024794881CLAUDIO RODRIGUES                       RUA ARACATUBA - 242 - LAPA - SAO PAULO -            05058010                                                            000101
2SR. CAIXA, APOS O VENCIMENTO COBRAR 10% DE MULTA                                NAO RECEBER APOS 30 DIAS DO VENCIMENTO.                                                                                                                                                                                                         09051700000000000000905170000000000000       0090770900066125116711081195000102
100000000000000000000009077090006612500000000000000000000000010002100011871109121500000000002            2  01118711091225051700000004369190000000001N090517000000000000000000000000000000000000000000000000000000000000000100002225072841PEDRO EDUARDO DE AZEVEDO                RUA NATH ZILMAN - 46 - JARDIM SAMAMBAIA             07600000                                                            000104
2SR. CAIXA, APOS O VENCIMENTO COBRAR 10% DE MULTA                                NAO RECEBER APOS 30 DIAS DO VENCIMENTO.                                                                                                                                                                                                         09051700000000000000905170000000000000       0090770900066125118711091215000105
100000000000000000000009077090006612500000000000000000000000010002100011973110122100000000002            2  01119731101225051700000003040490000000001N090517000000000000000000000000000000000000000000000000000000000000000100015039262817MARCOS ROBERTO DANTAS                   CARAJAS - 385 - VILA TUPI - VARZEA PAULI            13225030                                                            000107
2SR. CAIXA, APOS O VENCIMENTO COBRAR 10% DE MULTA                                NAO RECEBER APOS 30 DIAS DO VENCIMENTO.                                                                                                                                                                                                         09051700000000000000905170000000000000       0090770900066125119731101221000108
100000000000000000000009077090006612500000000000000000000000010002100012178112124400000000002            2  01121781121225051700000004291600000000001N090517000000000000000000000000000000000000000000000000000000000000000100037555503859RAPHAEL DE MELLO                        RUA MARECHAL HERMES - 126 AP.121 - CANTO            11700250                                                            000110
2SR. CAIXA, APOS O VENCIMENTO COBRAR 10% DE MULTA                                NAO RECEBER APOS 30 DIAS DO VENCIMENTO.                                                                                                                                                                                                         09051700000000000000905170000000000000       0090770900066125121781121244000111
100000000000000000000009077090006612500000000000000000000000010002100012482114127700000000002            2  01124821141225051700000002475650000000001N090517000000000000000000000000000000000000000000000000000000000000000100019288787844EMERSON LUIZ MARTINEZ PEREIRA           RUA MONTE CASTELO - 296 AP.74 - AVIACAO             11702720                                                            000113
2SR. CAIXA, APOS O VENCIMENTO COBRAR 10% DE MULTA                                NAO RECEBER APOS 30 DIAS DO VENCIMENTO.                                                                                                                                                                                                         09051700000000000000905170000000000000       0090770900066125124821141277000114
100000000000000000000009077090006612500000000000000000000000010002100012685116129100000000002            2  01126851161225051700000002097000000000001N090517000000000000000000000000000000000000000000000000000000000000000100027198452809CRISTIANE AURELIANO DA SILVA MAIA       RUA MONTE CASTELO - 262 AP.25 - AVIACAO             11702720                                                            000116
2SR. CAIXA, APOS O VENCIMENTO COBRAR 10% DE MULTA                                NAO RECEBER APOS 30 DIAS DO VENCIMENTO.                                                                                                                                                                                                         09051700000000000000905170000000000000       0090770900066125126851161291000117
100000000000000000000009077090006612500000000000000000000000010002100013029118133700000000002            2  01130291181325051700000002559160000000001N090517000000000000000000000000000000000000000000000000000000000000000100021246231840ALEXANDRO DA CUNHA MIGUES               AVENIDA CONSELHEIRO CARRAO - 1861 CONJ.5            03403001                                                            000119
2SR. CAIXA, APOS O VENCIMENTO COBRAR 10% DE MULTA                                NAO RECEBER APOS 30 DIAS DO VENCIMENTO.                                                                                                                                                                                                         09051700000000000000905170000000000000       0090770900066125130291181337000120
100000000000000000000009077090006612500000000000000000000000010002100013332121136700000000002            2  01133321211325051700000001532280000000001N090517000000000000000000000000000000000000000000000000000000000000000100004864924600RENATO SANTACHIARA SALVADORI            RUA PENSYLVANIA - 116 - PAYSAGE BRISE -             06730000                                                            000122
2SR. CAIXA, APOS O VENCIMENTO COBRAR 10% DE MULTA                                NAO RECEBER APOS 30 DIAS DO VENCIMENTO.                                                                                                                                                                                                         09051700000000000000905170000000000000       0090770900066125133321211367000123
100000000000000000000009077090006612500000000000000000000000010002100013533122138P00000000002            2  01135331221325051700000003764890000000001N090517000000000000000000000000000000000000000000000000000000000000000100018470520881SILVANA ALVES DE OLIVEIRA               RUA MONTE CASTELO - 262 AP.91 - AVIACAO             11702720                                                            000125
2SR. CAIXA, APOS O VENCIMENTO COBRAR 10% DE MULTA                                NAO RECEBER APOS 30 DIAS DO VENCIMENTO.                                                                                                                                                                                                         09051700000000000000905170000000000000       009077090006612513533122138P000126
100000000000000000000009077090006612500000000000000000000000010002100013635123139600000000002            2  01136351231325051700000002621100000000001N090517000000000000000000000000000000000000000000000000000000000000000100009297523846MARCOS ROBERTO DE CASTRO FERREIRA       RUA MONTE CASTELO - 262 AP.105 - AVIACAO            11702720                                                            000128
2SR. CAIXA, APOS O VENCIMENTO COBRAR 10% DE MULTA                                NAO RECEBER APOS 30 DIAS DO VENCIMENTO.                                                                                                                                                                                                         09051700000000000000905170000000000000       0090770900066125136351231396000129
100000000000000000000009077090006612500000000000000000000000010002100014104126144200000000002            2  01141041261425051700000003248140000000001N090517000000000000000000000000000000000000000000000000000000000000000100001164158864DAVID BLEY LACERDA                      RUA CONEGO ARAUJO MARCONDES - 188 - BAIR            02550080                                                            000131
2SR. CAIXA, APOS O VENCIMENTO COBRAR 10% DE MULTA                                NAO RECEBER APOS 30 DIAS DO VENCIMENTO.                                                                                                                                                                                                         09051700000000000000905170000000000000       0090770900066125141041261442000132
100000000000000000000009077090006612500000000000000000000000010002100015496133159500000000002            2  01154961331525051700000003947630000000001N090517000000000000000000000000000000000000000000000000000000000000000100031498008895POLIANE  SIBELE DA SILVA                RUA FRANCISCO RODRIGUES SECKLER - 452 CA            08230020                                                            000134
2SR. CAIXA, APOS O VENCIMENTO COBRAR 10% DE MULTA                                NAO RECEBER APOS 30 DIAS DO VENCIMENTO.                                                                                                                                                                                                         09051700000000000000905170000000000000       0090770900066125154961331595000135
100000000000000000000009077090006612500000000000000000000000010002100016612140170100000000002            2  01166121401725051700000002315370000000001N090517000000000000000000000000000000000000000000000000000000000000000100000588109860JOSE LIARTE GIANTE                      AVENIDA LUIZ GONZAGA DO AMARAL - 143 - J            09320630                                                            000137
2SR. CAIXA, APOS O VENCIMENTO COBRAR 10% DE MULTA                                NAO RECEBER APOS 30 DIAS DO VENCIMENTO.                                                                                                                                                                                                         09051700000000000000905170000000000000       0090770900066125166121401701000138
100000000000000000000009077090006612500000000000000000000000010002100017574144178800000000002            2  01175741441725051700000002619950000000001N090517000000000000000000000000000000000000000000000000000000000000000100000764632817LUIZ CARLOS ANTUNES JUNIOR              RUA MONTE CASTELO - 262 AP.35 - AVIACAO             11702720                                                            000140
2SR. CAIXA, APOS O VENCIMENTO COBRAR 10% DE MULTA                                NAO RECEBER APOS 30 DIAS DO VENCIMENTO.                                                                                                                                                                                                         09051700000000000000905170000000000000       0090770900066125175741441788000141
100000000000000000000009077090006612500000000000000000000000010002100018243146184P00000000002            2  01182431461825051700000001852210000000001N090517000000000000000000000000000000000000000000000000000000000000000100014386860134SEVERINO CARLOS DE OLIVEIRA             RUA MONTE CASTELO - 262 AP.54 - AVIACAO             11702720                                                            000143
2SR. CAIXA, APOS O VENCIMENTO COBRAR 10% DE MULTA                                NAO RECEBER APOS 30 DIAS DO VENCIMENTO.                                                                                                                                                                                                         09051700000000000000905170000000000000       009077090006612518243146184P000144
100000000000000000000009077090006612500000000000000000000000010002100018640147187000000000002            2  01186401471825051700000002059160000000001N090517000000000000000000000000000000000000000000000000000000000000000100029088221804FABIANO SPERANDEO                       RUA MONTE CASTELO - 296 AP.93 - AVIACAO             11702720                                                            000146
2SR. CAIXA, APOS O VENCIMENTO COBRAR 10% DE MULTA                                NAO RECEBER APOS 30 DIAS DO VENCIMENTO.                                                                                                                                                                                                         09051700000000000000905170000000000000       0090770900066125186401471870000147
100000000000000000000009077090006612500000000000000000000000010002100019143151191900000000002            2  01191431511925051700000001558380000000001N090517000000000000000000000000000000000000000000000000000000000000000100053018338715JAIME YOSHIO YONAMINE                   AVENIDA MARCONDES DE BRITO - 1.283 CASA             03509000                                                            000149
2SR. CAIXA, APOS O VENCIMENTO COBRAR 10% DE MULTA                                NAO RECEBER APOS 30 DIAS DO VENCIMENTO.                                                                                                                                                                                                         09051700000000000000905170000000000000       0090770900066125191431511919000150
100000000000000000000009077090006612500000000000000000000000010002100021259161208500000000002            2  01212591612025051700000001276540000000001N090517000000000000000000000000000000000000000000000000000000000000000100039393790850NAIRON RICARDO DE ARAUJO SANTOS         RUA MONTE CASTELO - 262 AP.23 - AVIACAO             11702720                                                            000152
2SR. CAIXA, APOS O VENCIMENTO COBRAR 10% DE MULTA                                NAO RECEBER APOS 30 DIAS DO VENCIMENTO.                                                                                                                                                                                                         09051700000000000000905170000000000000       0090770900066125212591612085000153
100000000000000000000009077090006612500000000000000000000000010002100021378165209800000000002            2  01213781652025051700000003283410000000001N090517000000000000000000000000000000000000000000000000000000000000000100066104106820ANADIR FERREIRA                         RUA MONTE CASTELO - 296 AP.61 - AVIACAO             11702720                                                            000155
2SR. CAIXA, APOS O VENCIMENTO COBRAR 10% DE MULTA                                NAO RECEBER APOS 30 DIAS DO VENCIMENTO.                                                                                                                                                                                                         09051700000000000000905170000000000000       0090770900066125213781652098000156
100000000000000000000009077090006612500000000000000000000000010002100021438166210400000000002            2  01214381662125051700000001859080000000001N090517000000000000000000000000000000000000000000000000000000000000000100041896807968SERGIO ROBERTO DA SILVA                 RUA DOS INGLESES - 542 AP.61 - MORRO DOS            01329000                                                            000158
2SR. CAIXA, APOS O VENCIMENTO COBRAR 10% DE MULTA                                NAO RECEBER APOS 30 DIAS DO VENCIMENTO.                                                                                                                                                                                                         09051700000000000000905170000000000000       0090770900066125214381662104000159
100000000000000000000009077090006612500000000000000000000000010002100022071129215500000000002            2  01220711292125051700000001685750000000001N090517000000000000000000000000000000000000000000000000000000000000000100088137384804ANA LUCIA DA SILVA                      RUA DOUTOR EPAMINONDAS BARRA - 147 - VIL            04438100                                                            000161
2SR. CAIXA, APOS O VENCIMENTO COBRAR 10% DE MULTA                                NAO RECEBER APOS 30 DIAS DO VENCIMENTO.                                                                                                                                                                                                         09051700000000000000905170000000000000       0090770900066125220711292155000162
9                                                                                                                                                                                                                                                                                                                                                                                                         000163