01REMESSA01COBRANCA       00000000000005316116AIRES CONSTRUTORA E INCORPORAD237BRADESCO       090522        MX0000194                                                                                                                                                                                                                                                                                     000001
100000000000000000000009002800441612000000000000000000000000010002100029155005221800000000002            2  01291550052225052200000004201730000000001N090522000000000000000000000000000000000000000000000000000000000000000100029155026842DANIELA YOSHIDA                         RUA MONTE CASTELO - 262 AP.34 - AVIACAO             11702720                                                            000002
2SR. CAIXA, APOS O VENCIMENTO COBRAR 10% DE MULTA                                NAO RECEBER APOS 30 DIAS DO VENCIMENTO.                                                                                                                                                                                                         09052200000000000000905220000000000000       0090028004416120291550052218000003
100000000000000000000009002800441612000000000000000000000000010002100001204405221100000000002            2  01012044052225052200000003421770000000001N090522000000000000000000000000000000000000000000000000000000000000000100001204431809CEZAR TALAVERA JUNIOR                   RUA MAESTRO ARTURO DE ANGELIS  - 190 AP.            05139010                                                            000005
2SR. CAIXA, APOS O VENCIMENTO COBRAR 10% DE MULTA                                NAO RECEBER APOS 30 DIAS DO VENCIMENTO.                                                                                                                                                                                                         09052200000000000000905220000000000000       0090028004416120012044052211000006
100000000000000000000009002800441612000000000000000000000000010002100004227505221000000000002            2  01042275052225052200000004435630000000001N090522000000000000000000000000000000000000000000000000000000000000000100004227553970ALESSANDRO ISRAEL GOULART               RUA PROFESSORA CARLINDA RIBEIRO - 21 - F            02866200                                                            000008
2SR. CAIXA, APOS O VENCIMENTO COBRAR 10% DE MULTA                                NAO RECEBER APOS 30 DIAS DO VENCIMENTO.                                                                                                                                                                                                         09052200000000000000905220000000000000       0090028004416120042275052210000009
100000000000000000000009002800441612000000000000000000000000010002100001024705221400000000002            2  01010247052225052200000003868260000000001N090522000000000000000000000000000000000000000000000000000000000000000100001024794881CLAUDIO RODRIGUES                       RUA ARACATUBA - 242 - LAPA - SAO PAULO -            05058010                                                            000011
2SR. CAIXA, APOS O VENCIMENTO COBRAR 10% DE MULTA                                NAO RECEBER APOS 30 DIAS DO VENCIMENTO.                                                                                                                                                                                                         09052200000000000000905220000000000000       0090028004416120010247052214000012
100000000000000000000009002800441612000000000000000000000000010002100002225005221500000000002            2  01022250052225052200000005930560000000001N090522000000000000000000000000000000000000000000000000000000000000000100002225072841PEDRO EDUARDO DE AZEVEDO                RUA NATH ZILMAN - 46 - JARDIM SAMAMBAIA             07623085                                                            000014
2SR. CAIXA, APOS O VENCIMENTO COBRAR 10% DE MULTA                                NAO RECEBER APOS 30 DIAS DO VENCIMENTO.                                                                                                                                                                                                         09052200000000000000905220000000000000       0090028004416120022250052215000015
100000000000000000000009002800441612000000000000000000000000010002100022037505221300000000002            2  01220375052225052200000004127010000000001N090522000000000000000000000000000000000000000000000000000000000000000100022037552882ANDREIA CRISTINA FERNANDES DANTAS       PCA CASTRO ALVES - 163 AP.33 - VILA SAO             13224299                                                            000017
2SR. CAIXA, APOS O VENCIMENTO COBRAR 10% DE MULTA                                NAO RECEBER APOS 30 DIAS DO VENCIMENTO.                                                                                                                                                                                                         09052200000000000000905220000000000000       0090028004416120220375052213000018
100000000000000000000009002800441612000000000000000000000000010002100027198405221500000000002            2  01271984052225052200000002846370000000001N090522000000000000000000000000000000000000000000000000000000000000000100027198452809CRISTIANE AURELIANO DA SILVA MAIA       RUA MONTE CASTELO - 262 AP.25 - AVIACAO             11702720                                                            000020
2SR. CAIXA, APOS O VENCIMENTO COBRAR 10% DE MULTA                                NAO RECEBER APOS 30 DIAS DO VENCIMENTO.                                                                                                                                                                                                         09052200000000000000905220000000000000       0090028004416120271984052215000021
100000000000000000000009002800441612000000000000000000000000010002100021246205221900000000002            2  01212462052225052200000003473740000000001N090522000000000000000000000000000000000000000000000000000000000000000100021246231840ALEXANDRO DA CUNHA MIGUES               RUA DULCE - 71  - VILA CARRAO - SAO PAUL            03427040                                                            000023
2SR. CAIXA, APOS O VENCIMENTO COBRAR 10% DE MULTA                                NAO RECEBER APOS 30 DIAS DO VENCIMENTO.                                                                                                                                                                                                         09052200000000000000905220000000000000       0090028004416120212462052219000024
100000000000000000000009002800441612000000000000000000000000010002100018470505221900000000002            2  01184705052225052200000005110370000000001N090522000000000000000000000000000000000000000000000000000000000000000100018470520881SILVANA ALVES DE OLIVEIRA               RUA MONTE CASTELO - 262 AP.91 - AVIACAO             11702720                                                            000026
2SR. CAIXA, APOS O VENCIMENTO COBRAR 10% DE MULTA                                NAO RECEBER APOS 30 DIAS DO VENCIMENTO.                                                                                                                                                                                                         09052200000000000000905220000000000000       0090028004416120184705052219000027
100000000000000000000009002800441612000000000000000000000000010002100009297505221900000000002            2  01092975052225052200000003557780000000001N090522000000000000000000000000000000000000000000000000000000000000000100009297523846MARCOS ROBERTO DE CASTRO FERREIRA       RUA MONTE CASTELO - 262 AP.105 - AVIACAO            11702720                                                            000029
2SR. CAIXA, APOS O VENCIMENTO COBRAR 10% DE MULTA                                NAO RECEBER APOS 30 DIAS DO VENCIMENTO.                                                                                                                                                                                                         09052200000000000000905220000000000000       0090028004416120092975052219000030
100000000000000000000009002800441612000000000000000000000000010002100001164105221800000000002            2  01011641052225052200000004408900000000001N090522000000000000000000000000000000000000000000000000000000000000000100001164158864DAVID BLEY LACERDA                      RUA CONEGO ARAUJO MARCONDES - 188 - BAIR            02550080                                                            000032
2SR. CAIXA, APOS O VENCIMENTO COBRAR 10% DE MULTA                                NAO RECEBER APOS 30 DIAS DO VENCIMENTO.                                                                                                                                                                                                         09052200000000000000905220000000000000       0090028004416120011641052218000033
100000000000000000000009002800441612000000000000000000000000010002100031498005221100000000002            2  01314980052225052200000005358380000000001N090522000000000000000000000000000000000000000000000000000000000000000100031498008895POLIANE  SIBELE DA SILVA                PRACA GENERAL COSTA BARRETO - 56 AP.181             03325070                                                            000035
2SR. CAIXA, APOS O VENCIMENTO COBRAR 10% DE MULTA                                NAO RECEBER APOS 30 DIAS DO VENCIMENTO.                                                                                                                                                                                                         09052200000000000000905220000000000000       0090028004416120314980052211000036
100000000000000000000009002800441612000000000000000000000000010002100000588105221500000000002            2  01005881052225052200000003142800000000001N090522000000000000000000000000000000000000000000000000000000000000000100000588109860JOSE LIARTE GIANTE                      AVENIDA LUIZ GONZAGA DO AMARAL - 143 - J            09320630                                                            000038
2SR. CAIXA, APOS O VENCIMENTO COBRAR 10% DE MULTA                                NAO RECEBER APOS 30 DIAS DO VENCIMENTO.                                                                                                                                                                                                         09052200000000000000905220000000000000       0090028004416120005881052215000039
100000000000000000000009002800441612000000000000000000000000010002100014386805221800000000002            2  01143868052225052200000002514110000000001N090522000000000000000000000000000000000000000000000000000000000000000100014386860134SEVERINO CARLOS DE OLIVEIRA             RUA MONTE CASTELO - 262 AP.54 - AVIACAO             11702720                                                            000041
2SR. CAIXA, APOS O VENCIMENTO COBRAR 10% DE MULTA                                NAO RECEBER APOS 30 DIAS DO VENCIMENTO.                                                                                                                                                                                                         09052200000000000000905220000000000000       0090028004416120143868052218000042
100000000000000000000009002800441612000000000000000000000000010002100039393705221300000000002            2  01393937052225052200000001732780000000001N090522000000000000000000000000000000000000000000000000000000000000000100039393790850NAIRON RICARDO DE ARAUJO SANTOS         RUA NITEROI - 267 CASA 04 - JARDIM INDEP            11380350                                                            000044
2SR. CAIXA, APOS O VENCIMENTO COBRAR 10% DE MULTA                                NAO RECEBER APOS 30 DIAS DO VENCIMENTO.                                                                                                                                                                                                         09052200000000000000905220000000000000       0090028004416120393937052213000045
100000000000000000000009002800441612000000000000000000000000010002100019288705221100000000002            2  01192887052225052200000002333560000000001N090522000000000000000000000000000000000000000000000000000000000000000100019288787844EMERSON LUIZ MARTINEZ PEREIRA           RUA MONTE CASTELO - 296 AP.74 - AVIACAO             11702720                                                            000047
2SR. CAIXA, APOS O VENCIMENTO COBRAR 10% DE MULTA                                NAO RECEBER APOS 30 DIAS DO VENCIMENTO.                                                                                                                                                                                                         09052200000000000000905220000000000000       0090028004416120192887052211000048
9                                                                                                                                                                                                                                                                                                                                                                                                         000049