01REMESSA01COBRANCA       00000000000005331186HB SANTOS CONSTRUTORA E INCORP237BRADESCO       010422        MX0000045                                                                                                                                                                                                                                                                                     000001
100000000000000000000009033990000995400000000000000000000000010002020026858604221700000000002            2  01268586042208042200000002735480000000001N010422000000000000000000000000000000000000000000000000000000000000000100026858625879GLAUCE FERREIRA DE OLIVEIRA FALSI       RUA LOURENCO ANTONIO BRAGANCA - 116 - JA            04403160                                                            000002
2SR. CAIXA, APOS O VENCIMENTO COBRAR 2% DE MULTA                                 NAO RECEBER APOS 30 DIAS DO VENCIMENTO.                                                                                                                                                                                                         01042200000000000000104220000000000000       0090339900009954268586042217000003
100000000000000000000009033990000995400000000000000000000000010002020016960804221800000000002            2  01169608042208042200000002611930000000001N010422000000000000000000000000000000000000000000000000000000000000000100016960804876LUIZ ALVES DE SOUZA JUNIOR              RUA URUGUAI - 89 AP.61 - JARDIM GUILHERM            11702300                                                            000005
2SR. CAIXA, APOS O VENCIMENTO COBRAR 2% DE MULTA                                 NAO RECEBER APOS 30 DIAS DO VENCIMENTO.                                                                                                                                                                                                         01042200000000000000104220000000000000       0090339900009954169608042218000006
100000000000000000000009033990000995400000000000000000000000010002020029425004221P00000000002            2  01294250042208042200000002601450000000001N010422000000000000000000000000000000000000000000000000000000000000000100029425027897FABIA DOS SANTOS DE ANDRADE             AVENIDA ALCIDES CANDIDO DOS SANTOS - 248            11705480                                                            000008
2SR. CAIXA, APOS O VENCIMENTO COBRAR 2% DE MULTA                                 NAO RECEBER APOS 30 DIAS DO VENCIMENTO.                                                                                                                                                                                                         01042200000000000000104220000000000000       009033990000995429425004221P000009
100000000000000000000009033990000995400000000000000000000000010002020078382704221500000000002            2  01783827042208042200000002628900000000001N010422000000000000000000000000000000000000000000000000000000000000000100078382700497JARMELINA BARBOSA DA SILVA              RUA OSCAR CINTRA GORDINHO - 211 AP.51 -             01512010                                                            000011
2SR. CAIXA, APOS O VENCIMENTO COBRAR 2% DE MULTA                                 NAO RECEBER APOS 30 DIAS DO VENCIMENTO.                                                                                                                                                                                                         01042200000000000000104220000000000000       0090339900009954783827042215000012
100000000000000000000009033990000995400000000000000000000000010002020007535304221400000000002            2  01075353042208042200000002577960000000001N010422000000000000000000000000000000000000000000000000000000000000000100007535375839AINAILDE PEREIRA DE CASTRO OLIVETTO     TRAVESSA DORALINA ELIETE ADAO DA SILVA -            08021026                                                            000014
2SR. CAIXA, APOS O VENCIMENTO COBRAR 2% DE MULTA                                 NAO RECEBER APOS 30 DIAS DO VENCIMENTO.                                                                                                                                                                                                         01042200000000000000104220000000000000       0090339900009954075353042214000015
100000000000000000000009033990000995400000000000000000000000010002020028974204221100000000002            2  01289742042208042200000002550500000000001N010422000000000000000000000000000000000000000000000000000000000000000100028974233827MARISTELA FAVANI DE OLIVEIRA            RUA GIUSEPPE CARNEVALLI - 96 - BAIRRO BO            09572100                                                            000017
2SR. CAIXA, APOS O VENCIMENTO COBRAR 2% DE MULTA                                 NAO RECEBER APOS 30 DIAS DO VENCIMENTO.                                                                                                                                                                                                         01042200000000000000104220000000000000       0090339900009954289742042211000018
100000000000000000000009033990000995400000000000000000000000010002020092184804221900000000002            2  01921848042208042200000002516550000000001N010422000000000000000000000000000000000000000000000000000000000000000100092184804800CARMEM DO SOCORRO GUILHERME             ESTRADA SAO FRANCISCO - 1.850 AP.182A -             06765000                                                            000020
2SR. CAIXA, APOS O VENCIMENTO COBRAR 2% DE MULTA                                 NAO RECEBER APOS 30 DIAS DO VENCIMENTO.                                                                                                                                                                                                         01042200000000000000104220000000000000       0090339900009954921848042219000021
100000000000000000000009033990000995400000000000000000000000010002020009169704221900000000002            2  01091697042208042200000002018290000000001N010422000000000000000000000000000000000000000000000000000000000000000100009169701830TADEU CONSTANTINO LOPES                 RUA JOSE ANTONIO COELHO - 349 CASA 01 -             04011061                                                            000023
2SR. CAIXA, APOS O VENCIMENTO COBRAR 2% DE MULTA                                 NAO RECEBER APOS 30 DIAS DO VENCIMENTO.                                                                                                                                                                                                         01042200000000000000104220000000000000       0090339900009954091697042219000024
100000000000000000000009033990000995400000000000000000000000010002020009169704222700000000002            2  01091697042208042200000002018250000000001N010422000000000000000000000000000000000000000000000000000000000000000100009169701830TADEU CONSTANTINO LOPES                 RUA JOSE ANTONIO COELHO - 349 CASA 01 -             04011061                                                            000026
2SR. CAIXA, APOS O VENCIMENTO COBRAR 2% DE MULTA                                 NAO RECEBER APOS 30 DIAS DO VENCIMENTO.                                                                                                                                                                                                         01042200000000000000104220000000000000       0090339900009954091697042227000027
100000000000000000000009033990000995400000000000000000000000010002020009169704223500000000002            2  01091697042208042200000002018260000000001N010422000000000000000000000000000000000000000000000000000000000000000100009169701830TADEU CONSTANTINO LOPES                 RUA JOSE ANTONIO COELHO - 349 CASA 01 -             04011061                                                            000029
2SR. CAIXA, APOS O VENCIMENTO COBRAR 2% DE MULTA                                 NAO RECEBER APOS 30 DIAS DO VENCIMENTO.                                                                                                                                                                                                         01042200000000000000104220000000000000       0090339900009954091697042235000030
100000000000000000000009033990000995400000000000000000000000010002020009169704224300000000002            2  01091697042208042200000002018270000000001N010422000000000000000000000000000000000000000000000000000000000000000100009169701830TADEU CONSTANTINO LOPES                 RUA JOSE ANTONIO COELHO - 349 CASA 01 -             04011061                                                            000032
2SR. CAIXA, APOS O VENCIMENTO COBRAR 2% DE MULTA                                 NAO RECEBER APOS 30 DIAS DO VENCIMENTO.                                                                                                                                                                                                         01042200000000000000104220000000000000       0090339900009954091697042243000033
100000000000000000000009033990000995400000000000000000000000010002020009169704225100000000002            2  01091697042208042200000002018280000000001N010422000000000000000000000000000000000000000000000000000000000000000100009169701830TADEU CONSTANTINO LOPES                 RUA JOSE ANTONIO COELHO - 349 CASA 01 -             04011061                                                            000035
2SR. CAIXA, APOS O VENCIMENTO COBRAR 2% DE MULTA                                 NAO RECEBER APOS 30 DIAS DO VENCIMENTO.                                                                                                                                                                                                         01042200000000000000104220000000000000       0090339900009954091697042251000036
100000000000000000000009033990000995400000000000000000000000010002020042480104221700000000002            2  01424801042208042200000002567480000000001N010422000000000000000000000000000000000000000000000000000000000000000100042480155870JAMITRE SOIOMARA ALVES DO NASCIMENTO DAVRUA URUGUAI - 89 AP.75 - JARDIM GUILHERM            11702300                                                            000038
2SR. CAIXA, APOS O VENCIMENTO COBRAR 2% DE MULTA                                 NAO RECEBER APOS 30 DIAS DO VENCIMENTO.                                                                                                                                                                                                         01042200000000000000104220000000000000       0090339900009954424801042217000039
100000000000000000000009033990000995400000000000000000000000010002020008966504221200000000002            2  01089665042208042200000002425840000000001N010422000000000000000000000000000000000000000000000000000000000000000100008966511856MONICA SILVA REIS                       RUA ORATORIO - 264 E FUNDOS - BANGU - SA            09280550                                                            000041
2SR. CAIXA, APOS O VENCIMENTO COBRAR 2% DE MULTA                                 NAO RECEBER APOS 30 DIAS DO VENCIMENTO.                                                                                                                                                                                                         01042200000000000000104220000000000000       0090339900009954089665042212000042
100000000000000000000009033990000995400000000000000000000000010002020001356904221300000000002            2  01013569042208042200000002605700000000001N010422000000000000000000000000000000000000000000000000000000000000000100001356993800DALVA MARIA DOS SANTOS                  RUA URUGUAI - 89 AP.74 - AVIACAO - PRAIA            11702300                                                            000044
2SR. CAIXA, APOS O VENCIMENTO COBRAR 2% DE MULTA                                 NAO RECEBER APOS 30 DIAS DO VENCIMENTO.                                                                                                                                                                                                         01042200000000000000104220000000000000       0090339900009954013569042213000045
100000000000000000000009033990000995400000000000000000000000010002020024615504221600000000002            2  01246155042208042200000002971690000000001N010422000000000000000000000000000000000000000000000000000000000000000100024615557884GILBERTO JOSE GONSALES                  RUA URUGUAI - 89 AP.115 - JARDIM GUILHER            11702300                                                            000047
2SR. CAIXA, APOS O VENCIMENTO COBRAR 2% DE MULTA                                 NAO RECEBER APOS 30 DIAS DO VENCIMENTO.                                                                                                                                                                                                         01042200000000000000104220000000000000       0090339900009954246155042216000048
100000000000000000000009033990000995400000000000000000000000010002020008878804221000000000002            2  01088788042208042200000002857890000000001N010422000000000000000000000000000000000000000000000000000000000000000100008878832812LUIZ ANTONIO DE OLIVEIRA                RUA TORRINHA - 220 AP.132 - BAIRRO TATUA            03332010                                                            000050
2SR. CAIXA, APOS O VENCIMENTO COBRAR 2% DE MULTA                                 NAO RECEBER APOS 30 DIAS DO VENCIMENTO.                                                                                                                                                                                                         01042200000000000000104220000000000000       0090339900009954088788042210000051
100000000000000000000009033990000995400000000000000000000000010002020031473704221600000000002            2  01314737042208042200000002100520000000001N010422000000000000000000000000000000000000000000000000000000000000000100031473799813MURIEL DA SILVA DE MOURA SOUZA          RUA CAPITAO PAULINO FREIRE - 300 AP.014             08717100                                                            000053
2SR. CAIXA, APOS O VENCIMENTO COBRAR 2% DE MULTA                                 NAO RECEBER APOS 30 DIAS DO VENCIMENTO.                                                                                                                                                                                                         01042200000000000000104220000000000000       0090339900009954314737042216000054
100000000000000000000009033990000995400000000000000000000000010002020036949504221500000000002            2  01369495042208042200000002780790000000001N010422000000000000000000000000000000000000000000000000000000000000000100036949505833FELIPE APARECIDO DOS SANTOS             RUA DAS MIMOSAS - 67 CASA 09 - VILA LUCI            03144010                                                            000056
2SR. CAIXA, APOS O VENCIMENTO COBRAR 2% DE MULTA                                 NAO RECEBER APOS 30 DIAS DO VENCIMENTO.                                                                                                                                                                                                         01042200000000000000104220000000000000       0090339900009954369495042215000057
100000000000000000000009033990000995400000000000000000000000010002020008539304221200000000002            2  01085393042208042200000002841140000000001N010422000000000000000000000000000000000000000000000000000000000000000100008539365871EDMILSON RAIMUNDO DOS SANTOS            RUA CALIDICE - 247 - PARQUE CRUZEIRO - S            08070010                                                            000059
2SR. CAIXA, APOS O VENCIMENTO COBRAR 2% DE MULTA                                 NAO RECEBER APOS 30 DIAS DO VENCIMENTO.                                                                                                                                                                                                         01042200000000000000104220000000000000       0090339900009954085393042212000060
100000000000000000000009033990000995400000000000000000000000010002020031040904221100000000002            2  01310409042208042200000002927110000000001N010422000000000000000000000000000000000000000000000000000000000000000100031040952801ANDRESSA REGINA FAVERANI LUPPI          RUA AMALIA BELLOTTI PASTORELLO - 169 - T            11724030                                                            000062
2SR. CAIXA, APOS O VENCIMENTO COBRAR 2% DE MULTA                                 NAO RECEBER APOS 30 DIAS DO VENCIMENTO.                                                                                                                                                                                                         01042200000000000000104220000000000000       0090339900009954310409042211000063
100000000000000000000009033990000995400000000000000000000000010002020024558904221800000000002            2  01245589042208042200000004893500000000001N010422000000000000000000000000000000000000000000000000000000000000000100024558912838EDILENE GORGATTI                        RUA ITARARE - 76 AP.142 - JARDIM GUILHER            11701820                                                            000065
2SR. CAIXA, APOS O VENCIMENTO COBRAR 2% DE MULTA                                 NAO RECEBER APOS 30 DIAS DO VENCIMENTO.                                                                                                                                                                                                         01042200000000000000104220000000000000       0090339900009954245589042218000066
100000000000000000000009033990000995400000000000000000000000010002020004611204221300000000002            2  01046112042208042200000001801960000000001N010422000000000000000000000000000000000000000000000000000000000000000100004611218830TANIA MARIA DA SILVA NUNES PEREIRA LUIZ RODOVIA RAPOSO TAVARES, 7389 KM 17,5 - A            05576200                                                            000068
2SR. CAIXA, APOS O VENCIMENTO COBRAR 2% DE MULTA                                 NAO RECEBER APOS 30 DIAS DO VENCIMENTO.                                                                                                                                                                                                         01042200000000000000104220000000000000       0090339900009954046112042213000069
100000000000000000000009033990000995400000000000000000000000010002020010548804221000000000002            2  01105488042208042200000003201830000000001N010422000000000000000000000000000000000000000000000000000000000000000100010548844801RICARDO DE JESUS CALDAS                 RUA ANTONIO AMBUBA - 50 CASA 60 - BAIRRO            05782370                                                            000071
2SR. CAIXA, APOS O VENCIMENTO COBRAR 2% DE MULTA                                 NAO RECEBER APOS 30 DIAS DO VENCIMENTO.                                                                                                                                                                                                         01042200000000000000104220000000000000       0090339900009954105488042210000072
100000000000000000000009033990000995400000000000000000000000010002020039623804221P00000000002            2  01396238042208042200000002814050000000001N010422000000000000000000000000000000000000000000000000000000000000000100039623826826LEONARDO GUEDES PINTO                   RUA URUGUAI - 89 AP.24 - AVIACAO - PRAIA            11702300                                                            000074
2SR. CAIXA, APOS O VENCIMENTO COBRAR 2% DE MULTA                                 NAO RECEBER APOS 30 DIAS DO VENCIMENTO.                                                                                                                                                                                                         01042200000000000000104220000000000000       009033990000995439623804221P000075
100000000000000000000009033990000995400000000000000000000000010002020039558604221900000000002            2  01395586042208042200000002583480000000001N010422000000000000000000000000000000000000000000000000000000000000000100039558638838TAMIRES ROCHA FRANCISCO                 RUA DUARTE DE CARVALHO - 185 AP.102 - BA            03084030                                                            000077
2SR. CAIXA, APOS O VENCIMENTO COBRAR 2% DE MULTA                                 NAO RECEBER APOS 30 DIAS DO VENCIMENTO.                                                                                                                                                                                                         01042200000000000000104220000000000000       0090339900009954395586042219000078
100000000000000000000009033990000995400000000000000000000000010002020032038704221800000000002            2  01320387042208042200000002101840000000001N010422000000000000000000000000000000000000000000000000000000000000000100032038775893GUSTAVO PEREIRA DA CRUZ                 RUA SAO FIDELIS - 203 - JARDIM BRASIL -             16074050                                                            000080
2SR. CAIXA, APOS O VENCIMENTO COBRAR 2% DE MULTA                                 NAO RECEBER APOS 30 DIAS DO VENCIMENTO.                                                                                                                                                                                                         01042200000000000000104220000000000000       0090339900009954320387042218000081
9                                                                                                                                                                                                                                                                                                                                                                                                         000082