01REMESSA01COBRANCA       00000000000005331186HB SANTOS CONSTRUTORA E INCORP237BRADESCO       090823        MX0000079                                                                                                                                                                                                                                                                                     000001
100000000000000000000009033990000995400000000000000000000000010002020005723208231800000000002            2  01057232082323082300000003112170000000001N090823000000000000000000000000000000000000000000000000000000000000000100005723255843FRANCISCO DE ASSIS DA SILVA             PRACA NICOLAU GERAIGIRE - 25 VISOR - JAR            11095110                                                            000002
2SR. CAIXA, APOS O VENCIMENTO COBRAR 2% DE MULTA                                 NAO RECEBER APOS 30 DIAS DO VENCIMENTO.                                                                                                                                                                                                         09082300000000000000908230000000000000       0090339900009954057232082318000003
100000000000000000000009033990000995400000000000000000000000010002020032589108231100000000002            2  01325891082323082300000002944760000000001N090823000000000000000000000000000000000000000000000000000000000000000100032589165862RENATA ISABEL MARTINS SILVA             RUA HERCULANO DE FREITAS - 257 - FUNDACA            09520280                                                            000005
2SR. CAIXA, APOS O VENCIMENTO COBRAR 2% DE MULTA                                 NAO RECEBER APOS 30 DIAS DO VENCIMENTO.                                                                                                                                                                                                         09082300000000000000908230000000000000       0090339900009954325891082311000006
100000000000000000000009033990000995400000000000000000000000010002020046391208231000000000002            2  01463912082323082300000003087930000000001N090823000000000000000000000000000000000000000000000000000000000000000100046391265810PAMELLA RODRIGUES DE OLIVEIRA           RUA AUGUSTA - 183 AP.301 BL.2A - VILA AU            07025130                                                            000008
2SR. CAIXA, APOS O VENCIMENTO COBRAR 2% DE MULTA                                 NAO RECEBER APOS 30 DIAS DO VENCIMENTO.                                                                                                                                                                                                         09082300000000000000908230000000000000       0090339900009954463912082310000009
100000000000000000000009033990000995400000000000000000000000010002020027964508231900000000002            2  01279645082323082300000003068130000000001N090823000000000000000000000000000000000000000000000000000000000000000100027964512838FABIO TADEU DE CAMPOS RADZIAVICIUS      RUA URUGUAI - 89 AP.94 - JARDIM GUILHERM            11702300                                                            000011
2SR. CAIXA, APOS O VENCIMENTO COBRAR 2% DE MULTA                                 NAO RECEBER APOS 30 DIAS DO VENCIMENTO.                                                                                                                                                                                                         09082300000000000000908230000000000000       0090339900009954279645082319000012
100000000000000000000009033990000995400000000000000000000000010002020011498308231700000000002            2  01114983082323082300000002298700000000001N090823000000000000000000000000000000000000000000000000000000000000000100011498329837GERSON GERALDO DAS NEVES                RUA DOMINGOS DELGADO - 144 - VILA SOUZA             02881070                                                            000014
2SR. CAIXA, APOS O VENCIMENTO COBRAR 2% DE MULTA                                 NAO RECEBER APOS 30 DIAS DO VENCIMENTO.                                                                                                                                                                                                         09082300000000000000908230000000000000       0090339900009954114983082317000015
100000000000000000000009033990000995400000000000000000000000010002020025214408231300000000002            2  01252144082323082300000002720950000000001N090823000000000000000000000000000000000000000000000000000000000000000100025214401833JOSE MAURICIO DOS SANTOS RODRIGUES      RUA JOAO DE MACEDO RIBEIRO - 49 - VILA N            08111101                                                            000017
2SR. CAIXA, APOS O VENCIMENTO COBRAR 2% DE MULTA                                 NAO RECEBER APOS 30 DIAS DO VENCIMENTO.                                                                                                                                                                                                         09082300000000000000908230000000000000       0090339900009954252144082313000018
100000000000000000000009033990000995400000000000000000000000010002020033119108231000000000002            2  01331191082323082300000002732470000000001N090823000000000000000000000000000000000000000000000000000000000000000100033119178802HUGO GOMES VENDRAME                     RUA SAO PAULO - 60 CASA 01 - VILA FREITA            06380110                                                            000020
2SR. CAIXA, APOS O VENCIMENTO COBRAR 2% DE MULTA                                 NAO RECEBER APOS 30 DIAS DO VENCIMENTO.                                                                                                                                                                                                         09082300000000000000908230000000000000       0090339900009954331191082310000021
100000000000000000000009033990000995400000000000000000000000010002020016631508231300000000002            2  01166315082323082300000002780160000000001N090823000000000000000000000000000000000000000000000000000000000000000100016631587468GILBERTO BEZERRA DA SILVA               AVENIDA JAIME TORRES - 745 CASA 3 - JARD            03670000                                                            000023
2SR. CAIXA, APOS O VENCIMENTO COBRAR 2% DE MULTA                                 NAO RECEBER APOS 30 DIAS DO VENCIMENTO.                                                                                                                                                                                                         09082300000000000000908230000000000000       0090339900009954166315082313000024
100000000000000000000009033990000995400000000000000000000000010002020007313208231600000000002            2  01073132082323082300000002760410000000001N090823000000000000000000000000000000000000000000000000000000000000000100007313251840SALVADOR GESUALDO PULVIRENTI            AVENIDA MARARI - 641 - VILA MARARI - SAO            04402010                                                            000026
2SR. CAIXA, APOS O VENCIMENTO COBRAR 2% DE MULTA                                 NAO RECEBER APOS 30 DIAS DO VENCIMENTO.                                                                                                                                                                                                         09082300000000000000908230000000000000       0090339900009954073132082316000027
100000000000000000000009033990000995400000000000000000000000010002020010676708231800000000002            2  01106767082323082300000002881210000000001N090823000000000000000000000000000000000000000000000000000000000000000100010676723896MERCEDES CRISTINA ROCHA SANDOVAL        RUA URUGUAI - 89 AP.83 - JARDIM GUILHERM            11702300                                                            000029
2SR. CAIXA, APOS O VENCIMENTO COBRAR 2% DE MULTA                                 NAO RECEBER APOS 30 DIAS DO VENCIMENTO.                                                                                                                                                                                                         09082300000000000000908230000000000000       0090339900009954106767082318000030
100000000000000000000009033990000995400000000000000000000000010002020009502808231600000000002            2  01095028082323082300000003008950000000001N090823000000000000000000000000000000000000000000000000000000000000000100009502844831CLAUDIA ROCHA SANDOVAL                  RUA URUGUAI - 89 AP.64 - JARDIM GUILHERM            11702300                                                            000032
2SR. CAIXA, APOS O VENCIMENTO COBRAR 2% DE MULTA                                 NAO RECEBER APOS 30 DIAS DO VENCIMENTO.                                                                                                                                                                                                         09082300000000000000908230000000000000       0090339900009954095028082316000033
100000000000000000000009033990000995400000000000000000000000010002020007594208231500000000002            2  01075942082323082300000002701230000000001N090823000000000000000000000000000000000000000000000000000000000000000100007594247809JOSE LUIS DE OLIVEIRA                   DONA EGLANTINA PENTEADO DA SILVA PRADO -            13044162                                                            000035
2SR. CAIXA, APOS O VENCIMENTO COBRAR 2% DE MULTA                                 NAO RECEBER APOS 30 DIAS DO VENCIMENTO.                                                                                                                                                                                                         09082300000000000000908230000000000000       0090339900009954075942082315000036
100000000000000000000009033990000995400000000000000000000000010002020005288708231900000000002            2  01052887082323082300000002782540000000001N090823000000000000000000000000000000000000000000000000000000000000000100005288796858MARCELO RODRIGUES FERREIRA              RUA MARCOS ANTONIO MARQUES - 302 - JARDI            06433020                                                            000038
2SR. CAIXA, APOS O VENCIMENTO COBRAR 2% DE MULTA                                 NAO RECEBER APOS 30 DIAS DO VENCIMENTO.                                                                                                                                                                                                         09082300000000000000908230000000000000       0090339900009954052887082319000039
100000000000000000000009033990000995400000000000000000000000010002020015835908231800000000002            2  01158359082323082300000002897590000000001N090823000000000000000000000000000000000000000000000000000000000000000100015835992823FLAVIO VERONEZ                          RUA ANDREA PAULINETTI - 127 AP.42 - BAIR            04707050                                                            000041
2SR. CAIXA, APOS O VENCIMENTO COBRAR 2% DE MULTA                                 NAO RECEBER APOS 30 DIAS DO VENCIMENTO.                                                                                                                                                                                                         09082300000000000000908230000000000000       0090339900009954158359082318000042
100000000000000000000009033990000995400000000000000000000000010002020000438108231600000000002            2  01004381082323082300000003270590000000001N090823000000000000000000000000000000000000000000000000000000000000000100000438161858WAGNECY VILLA NOVA LIEN                 RUA PROFESSOR FERREIRA PAULINO - 233 AP.            07025020                                                            000044
2SR. CAIXA, APOS O VENCIMENTO COBRAR 2% DE MULTA                                 NAO RECEBER APOS 30 DIAS DO VENCIMENTO.                                                                                                                                                                                                         09082300000000000000908230000000000000       0090339900009954004381082316000045
100000000000000000000009033990000995400000000000000000000000010002020026004508231200000000002            2  01260045082323082300000002897630000000001N090823000000000000000000000000000000000000000000000000000000000000000100026004595888EDIVALDO BEZERRA DA SILVA               AVENIDA GUATEMALA - 550 - JARDIM PINHEIR            09854750                                                            000047
2SR. CAIXA, APOS O VENCIMENTO COBRAR 2% DE MULTA                                 NAO RECEBER APOS 30 DIAS DO VENCIMENTO.                                                                                                                                                                                                         09082300000000000000908230000000000000       0090339900009954260045082312000048
100000000000000000000009033990000995400000000000000000000000010002020012470708231700000000002            2  01124707082323082300000003091570000000001N090823000000000000000000000000000000000000000000000000000000000000000100012470771870HILTON FERNANDES OLIVARES               RUA PATIO DA ESTACAO - 115 - BAIRRO CENT            09450000                                                            000050
2SR. CAIXA, APOS O VENCIMENTO COBRAR 2% DE MULTA                                 NAO RECEBER APOS 30 DIAS DO VENCIMENTO.                                                                                                                                                                                                         09082300000000000000908230000000000000       0090339900009954124707082317000051
100000000000000000000009033990000995400000000000000000000000010002020014025408231600000000002            2  01140254082323082300000003389830000000001N090823000000000000000000000000000000000000000000000000000000000000000100014025420899ANDREIA APARECIDA TAVARES BASTOS        RUA IBATIBA - 234 CASA 27 - RES.BOUGANVI            09220608                                                            000053
2SR. CAIXA, APOS O VENCIMENTO COBRAR 2% DE MULTA                                 NAO RECEBER APOS 30 DIAS DO VENCIMENTO.                                                                                                                                                                                                         09082300000000000000908230000000000000       0090339900009954140254082316000054
100000000000000000000009033990000995400000000000000000000000010002020018590008231500000000002            2  01185900082323082300000003069990000000001N090823000000000000000000000000000000000000000000000000000000000000000100018590038858JOSE SANDRO ROCHA SILVA                 RUA SANTO ANTONIO DO AVENTUREIRO - 216 A            07143040                                                            000056
2SR. CAIXA, APOS O VENCIMENTO COBRAR 2% DE MULTA                                 NAO RECEBER APOS 30 DIAS DO VENCIMENTO.                                                                                                                                                                                                         09082300000000000000908230000000000000       0090339900009954185900082315000057
100000000000000000000009033990000995400000000000000000000000010002020088578708231300000000002            2  01885787082323082300000002526170000000001N090823000000000000000000000000000000000000000000000000000000000000000100088578704800GILBERTO DO ESPIRITO SANTO SILVA        RUA URUGUAI - 89 AP.23 - JARDIM GUILHERM            11702300                                                            000059
2SR. CAIXA, APOS O VENCIMENTO COBRAR 2% DE MULTA                                 NAO RECEBER APOS 30 DIAS DO VENCIMENTO.                                                                                                                                                                                                         09082300000000000000908230000000000000       0090339900009954885787082313000060
100000000000000000000009033990000995400000000000000000000000010002020005105208231100000000002            2  01051052082323082300000003012750000000001N090823000000000000000000000000000000000000000000000000000000000000000100005105287835FABIO MOTTOLA DE OLIVEIRA               RUA RAUL MAZZONI - 133 - CHACARA AREAL -            13331022                                                            000062
2SR. CAIXA, APOS O VENCIMENTO COBRAR 2% DE MULTA                                 NAO RECEBER APOS 30 DIAS DO VENCIMENTO.                                                                                                                                                                                                         09082300000000000000908230000000000000       0090339900009954051052082311000063
100000000000000000000009033990000995400000000000000000000000010002020020792708231000000000002            2  01207927082323082300000003132180000000001N090823000000000000000000000000000000000000000000000000000000000000000120792791000147TROVAO COMERCIO DE ALIMENTOS LTDA-ME    RUA QUINTA DA MAGNOLIA - 67 - JARDIM IPA            03582100                                                            000065
2SR. CAIXA, APOS O VENCIMENTO COBRAR 2% DE MULTA                                 NAO RECEBER APOS 30 DIAS DO VENCIMENTO.                                                                                                                                                                                                         09082300000000000000908230000000000000       0090339900009954207927082310000066
100000000000000000000009033990000995400000000000000000000000010002020007648108231400000000002            2  01076481082323082300000002941110000000001N090823000000000000000000000000000000000000000000000000000000000000000100007648112825MARA REGINA CAPRIO                      RUA DA TRINDADE - 790 - VILA IDEAL - SAO            15060280                                                            000068
2SR. CAIXA, APOS O VENCIMENTO COBRAR 2% DE MULTA                                 NAO RECEBER APOS 30 DIAS DO VENCIMENTO.                                                                                                                                                                                                         09082300000000000000908230000000000000       0090339900009954076481082314000069
100000000000000000000009033990000995400000000000000000000000010002020031157408231300000000002            2  01311574082323082300000003158050000000001N090823000000000000000000000000000000000000000000000000000000000000000100031157420885TALITA ANICHIARICO COSSI                RUA CNEO POMPEO DE CAMARGO - 817 - JARDI            13060150                                                            000071
2SR. CAIXA, APOS O VENCIMENTO COBRAR 2% DE MULTA                                 NAO RECEBER APOS 30 DIAS DO VENCIMENTO.                                                                                                                                                                                                         09082300000000000000908230000000000000       0090339900009954311574082313000072
100000000000000000000009033990000995400000000000000000000000010002020035572508231800000000002            2  01355725082323082300000003357710000000001N090823000000000000000000000000000000000000000000000000000000000000000100035572536865MARIA SIMONE SANTOS                     RUA JOSE PEZZOLO - 68 - VILA ELDIZIA - S            09181660                                                            000074
2SR. CAIXA, APOS O VENCIMENTO COBRAR 2% DE MULTA                                 NAO RECEBER APOS 30 DIAS DO VENCIMENTO.                                                                                                                                                                                                         09082300000000000000908230000000000000       0090339900009954355725082318000075
100000000000000000000009033990000995400000000000000000000000010002020008800308231500000000002            2  01088003082323082300000003059310000000001N090823000000000000000000000000000000000000000000000000000000000000000100008800368425INGO DIMITRI PEREIRA DA NOBREGA         RUA PROFESSOR MENDES PIMENTEL - 362 - JA            03973010                                                            000077
2SR. CAIXA, APOS O VENCIMENTO COBRAR 2% DE MULTA                                 NAO RECEBER APOS 30 DIAS DO VENCIMENTO.                                                                                                                                                                                                         09082300000000000000908230000000000000       0090339900009954088003082315000078
100000000000000000000009033990000995400000000000000000000000010002020005054108231P00000000002            2  01050541082323082300000002960640000000001N090823000000000000000000000000000000000000000000000000000000000000000100005054169806PAULO ROBERTO DE MATTOS                 JARDIM BOTANICO - 849 - DISTRITO DE SOUS            13106258                                                            000080
2SR. CAIXA, APOS O VENCIMENTO COBRAR 2% DE MULTA                                 NAO RECEBER APOS 30 DIAS DO VENCIMENTO.                                                                                                                                                                                                         09082300000000000000908230000000000000       009033990000995405054108231P000081
100000000000000000000009033990000995400000000000000000000000010002020007552108231600000000002            2  01075521082323082300000002960640000000001N090823000000000000000000000000000000000000000000000000000000000000000100007552151846MAURO BORDONI                           AVENIDA DR. AUGUSTO DE TOLEDO - 769 AP.6            09540080                                                            000083
2SR. CAIXA, APOS O VENCIMENTO COBRAR 2% DE MULTA                                 NAO RECEBER APOS 30 DIAS DO VENCIMENTO.                                                                                                                                                                                                         09082300000000000000908230000000000000       0090339900009954075521082316000084
100000000000000000000009033990000995400000000000000000000000010002020012744208231900000000002            2  01127442082323082300000003294160000000001N090823000000000000000000000000000000000000000000000000000000000000000100012744201804ADAIL JOSE DE SOUSA                     RUA ROSARIA - 303 - BAIRRO SACADURA CABR            09061080                                                            000086
2SR. CAIXA, APOS O VENCIMENTO COBRAR 2% DE MULTA                                 NAO RECEBER APOS 30 DIAS DO VENCIMENTO.                                                                                                                                                                                                         09082300000000000000908230000000000000       0090339900009954127442082319000087
100000000000000000000009033990000995400000000000000000000000010002020068320608231600000000002            2  01683206082323082300000011666200000000001N090823000000000000000000000000000000000000000000000000000000000000000100068320663849ANTONIO CAVALCANTE LIMA                 RUA AMAZONAS - 1188 - CENTRO - SAO CAETA            09540201                                                            000089
2SR. CAIXA, APOS O VENCIMENTO COBRAR 2% DE MULTA                                 NAO RECEBER APOS 30 DIAS DO VENCIMENTO.                                                                                                                                                                                                         09082300000000000000908230000000000000       0090339900009954683206082316000090
100000000000000000000009033990000995400000000000000000000000010002020088926208231800000000002            2  01889262082323082300000002450780000000001N090823000000000000000000000000000000000000000000000000000000000000000100088926230872VALDEMAR LATANCE FILHO                  RUA MELO PINTO DA SILVA - 111 CASA 103 -            18116265                                                            000092
2SR. CAIXA, APOS O VENCIMENTO COBRAR 2% DE MULTA                                 NAO RECEBER APOS 30 DIAS DO VENCIMENTO.                                                                                                                                                                                                         09082300000000000000908230000000000000       0090339900009954889262082318000093
100000000000000000000009033990000995400000000000000000000000010002020004195308231500000000002            2  01041953082323082300000003198670000000001N090823000000000000000000000000000000000000000000000000000000000000000100004195345804LUIZ CARLOS SILVESTRE                   RUA CONDE VICENTE AZEVEDO - 377 - BAIRRO            04264000                                                            000095
2SR. CAIXA, APOS O VENCIMENTO COBRAR 2% DE MULTA                                 NAO RECEBER APOS 30 DIAS DO VENCIMENTO.                                                                                                                                                                                                         09082300000000000000908230000000000000       0090339900009954041953082315000096
9                                                                                                                                                                                                                                                                                                                                                                                                         000097