01REMESSA01COBRANCA       00000000000004991781AIRES CONSTRUTORA E INCORPORAD237BRADESCO       011219        MX0000133                                                                                                                                                                                                                                                                                     000001
100000000000000000000009077090006612500000000000000000000000010002100094852212191200000000002            2  01948522121910121900000010365180000000001N011219000000000000000000000000000000000000000000000000000000000000000100094852294887GISELDA MENON                           RUA OTAVIO BARRETO - 105 - VILA SANTISTA            02560080                                                            000002
2SR. CAIXA, APOS O VENCIMENTO COBRAR 10% DE MULTA                                NAO RECEBER APOS 30 DIAS DO VENCIMENTO.                                                                                                                                                                                                         01121900000000000000112190000000000000       0090770900066125948522121912000003
100000000000000000000009077090006612500000000000000000000000010002100094852212192000000000002            2  01948522121910121900000002409900000000001N011219000000000000000000000000000000000000000000000000000000000000000100094852294887GISELDA MENON                           RUA OTAVIO BARRETO - 105 - VILA SANTISTA            02560080                                                            000005
2SR. CAIXA, APOS O VENCIMENTO COBRAR 10% DE MULTA                                NAO RECEBER APOS 30 DIAS DO VENCIMENTO.                                                                                                                                                                                                         01121900000000000000112190000000000000       0090770900066125948522121920000006
100000000000000000000009077090006612500000000000000000000000010002100006485912191900000000002            2  01064859121910121900000003696030000000001N011219000000000000000000000000000000000000000000000000000000000000000100006485911820CELIO MANUEL  MELIM SANTO               RUA JUVENAL FERREIRA  - 85 AP.61 - VILA             03512040                                                            000008
2SR. CAIXA, APOS O VENCIMENTO COBRAR 10% DE MULTA                                NAO RECEBER APOS 30 DIAS DO VENCIMENTO.                                                                                                                                                                                                         01121900000000000000112190000000000000       0090770900066125064859121919000009
100000000000000000000009077090006612500000000000000000000000010002100004693812191800000000002            2  01046938121910121900000003221360000000001N011219000000000000000000000000000000000000000000000000000000000000000100004693857823NIVALDO BARTOLOMEU FERREIRA             MNS JOSE MARINONI  - 33 - SANTO AMARO -             04430350                                                            000011
2SR. CAIXA, APOS O VENCIMENTO COBRAR 10% DE MULTA                                NAO RECEBER APOS 30 DIAS DO VENCIMENTO.                                                                                                                                                                                                         01121900000000000000112190000000000000       0090770900066125046938121918000012
100000000000000000000009077090006612500000000000000000000000010002100027993112191700000000002            2  01279931121910121900000003067430000000001N011219000000000000000000000000000000000000000000000000000000000000000100027993108853DALVA JESUS RODRIGUES CABRAL            RUA CRISTOVAO COLOMBO GONCALVES - 97 - C            04811050                                                            000014
2SR. CAIXA, APOS O VENCIMENTO COBRAR 10% DE MULTA                                NAO RECEBER APOS 30 DIAS DO VENCIMENTO.                                                                                                                                                                                                         01121900000000000000112190000000000000       0090770900066125279931121917000015
100000000000000000000009077090006612500000000000000000000000010002100000455412191600000000002            2  01004554121910121900000003186370000000001N011219000000000000000000000000000000000000000000000000000000000000000100000455495831PAULO HENRIQUE LOURENCO                 RUA FIGUEIRA  - 237 - CIDADE DAS FLORES             06184060                                                            000017
2SR. CAIXA, APOS O VENCIMENTO COBRAR 10% DE MULTA                                NAO RECEBER APOS 30 DIAS DO VENCIMENTO.                                                                                                                                                                                                         01121900000000000000112190000000000000       0090770900066125004554121916000018
100000000000000000000009077090006612500000000000000000000000010002100006140012191700000000002            2  01061400121910121900000003951530000000001N011219000000000000000000000000000000000000000000000000000000000000000100006140049857MARIA ALBANI DA SILVA EUSEBIO           RUA ORLANDO SEGALA - 108 - JARDIM ADRIAN            07135190                                                            000020
2SR. CAIXA, APOS O VENCIMENTO COBRAR 10% DE MULTA                                NAO RECEBER APOS 30 DIAS DO VENCIMENTO.                                                                                                                                                                                                         01121900000000000000112190000000000000       0090770900066125061400121917000021
100000000000000000000009077090006612500000000000000000000000010002100007768712191600000000002            2  01077687121910121900000004014090000000001N011219000000000000000000000000000000000000000000000000000000000000000100007768713826FATIMA LUZIA BIANCHI                    RUA MONTE CASTELO - 295 AP.121 - AVIACAO            11702720                                                            000023
2SR. CAIXA, APOS O VENCIMENTO COBRAR 10% DE MULTA                                NAO RECEBER APOS 30 DIAS DO VENCIMENTO.                                                                                                                                                                                                         01121900000000000000112190000000000000       0090770900066125077687121916000024
100000000000000000000009077090006612500000000000000000000000010002100021716812191300000000002            2  01217168121910121900000003954500000000001N011219000000000000000000000000000000000000000000000000000000000000000100021716847800ANDRE LUIZ FAGUNDES DE A.MATOS          ABRAAO MIGUEL DO CARMO - 113 AP.64 - VIL            04306090                                                            000026
2SR. CAIXA, APOS O VENCIMENTO COBRAR 10% DE MULTA                                NAO RECEBER APOS 30 DIAS DO VENCIMENTO.                                                                                                                                                                                                         01121900000000000000112190000000000000       0090770900066125217168121913000027
100000000000000000000009077090006612500000000000000000000000010002100085416912191700000000002            2  01854169121910121900000003352310000000001N011219000000000000000000000000000000000000000000000000000000000000000100085416940891ANTONIO DE SOUSA MENDES                 RUA MONTE CASTELO - 296 AP.52 - AVIACAO             11702720                                                            000029
2SR. CAIXA, APOS O VENCIMENTO COBRAR 10% DE MULTA                                NAO RECEBER APOS 30 DIAS DO VENCIMENTO.                                                                                                                                                                                                         01121900000000000000112190000000000000       0090770900066125854169121917000030
100000000000000000000009077090006612500000000000000000000000010002100005678012191000000000002            2  01056780121910121900000003491350000000001N011219000000000000000000000000000000000000000000000000000000000000000100005678057863FABIO MOREIRA CAMPOS                    RUA FLORENCIO DA SILVA - 284 - VILA LIBA            03738070                                                            000032
2SR. CAIXA, APOS O VENCIMENTO COBRAR 10% DE MULTA                                NAO RECEBER APOS 30 DIAS DO VENCIMENTO.                                                                                                                                                                                                         01121900000000000000112190000000000000       0090770900066125056780121910000033
100000000000000000000009077090006612500000000000000000000000010002100016348212191700000000002            2  01163482121910121900000003406070000000001N011219000000000000000000000000000000000000000000000000000000000000000100016348237885AILTON LORENA                           AVENIDA BRASILIA - 194 - BELA VISTA - SA            09180260                                                            000035
2SR. CAIXA, APOS O VENCIMENTO COBRAR 10% DE MULTA                                NAO RECEBER APOS 30 DIAS DO VENCIMENTO.                                                                                                                                                                                                         01121900000000000000112190000000000000       0090770900066125163482121917000036
100000000000000000000009077090006612500000000000000000000000010002100081218412191000000000002            2  01812184121910121900000003287280000000001N011219000000000000000000000000000000000000000000000000000000000000000100081218486953OSMAR DA COSTA - A/C RITA GONCALVES     AVENIDA ALMEIDA JUNIOR - 717 - SAMAMBAIA            11713050                                                            000038
2SR. CAIXA, APOS O VENCIMENTO COBRAR 10% DE MULTA                                NAO RECEBER APOS 30 DIAS DO VENCIMENTO.                                                                                                                                                                                                         01121900000000000000112190000000000000       0090770900066125812184121910000039
100000000000000000000009077090006612500000000000000000000000010002100004981812191300000000002            2  01049818121910121900000003733760000000001N011219000000000000000000000000000000000000000000000000000000000000000100004981884850SILVIO PAULINO GONCALVES                MARIA DE CASTRO MESQUITA - 84 AP.103 BLO            07110040                                                            000041
2SR. CAIXA, APOS O VENCIMENTO COBRAR 10% DE MULTA                                NAO RECEBER APOS 30 DIAS DO VENCIMENTO.                                                                                                                                                                                                         01121900000000000000112190000000000000       0090770900066125049818121913000042
100000000000000000000009077090006612500000000000000000000000010002100019282512191800000000002            2  01192825121910121900000002450820000000001N011219000000000000000000000000000000000000000000000000000000000000000100019282546837FABIO LEANDRO DE FREITAS ASSIS          RUA BASSIM NAGIB TRABULSI - 97 - PONTA D            11030540                                                            000044
2SR. CAIXA, APOS O VENCIMENTO COBRAR 10% DE MULTA                                NAO RECEBER APOS 30 DIAS DO VENCIMENTO.                                                                                                                                                                                                         01121900000000000000112190000000000000       0090770900066125192825121918000045
100000000000000000000009077090006612500000000000000000000000010002100008423412191100000000002            2  01084234121910121900000003406000000000001N011219000000000000000000000000000000000000000000000000000000000000000100008423485811EDSON LUIZ NUNES                        RUA NOEMIA PEDROSO BUENO - 41 - JARDIM G            09360440                                                            000047
2SR. CAIXA, APOS O VENCIMENTO COBRAR 10% DE MULTA                                NAO RECEBER APOS 30 DIAS DO VENCIMENTO.                                                                                                                                                                                                         01121900000000000000112190000000000000       0090770900066125084234121911000048
100000000000000000000009077090006612500000000000000000000000010002100009777212191800000000002            2  01097772121910121900000003090050000000001N011219000000000000000000000000000000000000000000000000000000000000000100009777281889CARLITA DE FIGUEIREDO CARVALHO          AVENIDA ALBERTO DE ALMEIDA VINHAS - 4462            11701350                                                            000050
2SR. CAIXA, APOS O VENCIMENTO COBRAR 10% DE MULTA                                NAO RECEBER APOS 30 DIAS DO VENCIMENTO.                                                                                                                                                                                                         01121900000000000000112190000000000000       0090770900066125097772121918000051
100000000000000000000009077090006612500000000000000000000000010002100003865712191600000000002            2  01038657121910121900000003283980000000001N011219000000000000000000000000000000000000000000000000000000000000000100003865776841FRANCISCO JOSE ROCCO                    RUA FABIO JOSE BEZERRA - 130 AP.86 - PAR            03805000                                                            000053
2SR. CAIXA, APOS O VENCIMENTO COBRAR 10% DE MULTA                                NAO RECEBER APOS 30 DIAS DO VENCIMENTO.                                                                                                                                                                                                         01121900000000000000112190000000000000       0090770900066125038657121916000054
100000000000000000000009077090006612500000000000000000000000010002100028309512191200000000002            2  01283095121910121900000002928540000000001N011219000000000000000000000000000000000000000000000000000000000000000100028309524803DEISE RIBEIRO BARBOSA                   RUA CANDIDO JOSE DE ANDRADE - 173 - ERME            03807030                                                            000056
2SR. CAIXA, APOS O VENCIMENTO COBRAR 10% DE MULTA                                NAO RECEBER APOS 30 DIAS DO VENCIMENTO.                                                                                                                                                                                                         01121900000000000000112190000000000000       0090770900066125283095121912000057
100000000000000000000009077090006612500000000000000000000000010002100011277912191200000000002            2  01112779121910121900000003475850000000001N011219000000000000000000000000000000000000000000000000000000000000000100011277908893JOSE AILTON LOPES DE AZEVEDO            RUA MAESTRO JOAO SEPE - 19 - JARDIM MARI            04181030                                                            000059
2SR. CAIXA, APOS O VENCIMENTO COBRAR 10% DE MULTA                                NAO RECEBER APOS 30 DIAS DO VENCIMENTO.                                                                                                                                                                                                         01121900000000000000112190000000000000       0090770900066125112779121912000060
100000000000000000000009077090006612500000000000000000000000010002100025215112191P00000000002            2  01252151121910121900000002621220000000001N011219000000000000000000000000000000000000000000000000000000000000000100025215106886KLEBER LUIZ DOS SANTOS                  RUA MONTE CASTELO - 262 AP.15 - AVIACAO             11702720                                                            000062
2SR. CAIXA, APOS O VENCIMENTO COBRAR 10% DE MULTA                                NAO RECEBER APOS 30 DIAS DO VENCIMENTO.                                                                                                                                                                                                         01121900000000000000112190000000000000       009077090006612525215112191P000063
100000000000000000000009077090006612500000000000000000000000010002100090206712191700000000002            2  01902067121910121900000002927810000000001N011219000000000000000000000000000000000000000000000000000000000000000100090206789815NEREIDE RODRIGUES FERREIRA              AVENIDA PADRE ESTANISLAU DE CAMPOS - 205            03590060                                                            000065
2SR. CAIXA, APOS O VENCIMENTO COBRAR 10% DE MULTA                                NAO RECEBER APOS 30 DIAS DO VENCIMENTO.                                                                                                                                                                                                         01121900000000000000112190000000000000       0090770900066125902067121917000066
100000000000000000000009077090006612500000000000000000000000010002100029150712191500000000002            2  01291507121910121900000003427040000000001N011219000000000000000000000000000000000000000000000000000000000000000100029150742833ANA DEISE SANTOS DE ALMEIDA             RUA MONTE CASTELO - 296 AP.121 - AVIACAO            11702720                                                            000068
2SR. CAIXA, APOS O VENCIMENTO COBRAR 10% DE MULTA                                NAO RECEBER APOS 30 DIAS DO VENCIMENTO.                                                                                                                                                                                                         01121900000000000000112190000000000000       0090770900066125291507121915000069
100000000000000000000009077090006612500000000000000000000000010002100000811712191000000000002            2  01008117121910121900000002822790000000001N011219000000000000000000000000000000000000000000000000000000000000000100000811752801SERGIO BUENO DA SILVA                   RUA MONTE CASTELO - 262 AP.75 - AVIACAO             11702720                                                            000071
2SR. CAIXA, APOS O VENCIMENTO COBRAR 10% DE MULTA                                NAO RECEBER APOS 30 DIAS DO VENCIMENTO.                                                                                                                                                                                                         01121900000000000000112190000000000000       0090770900066125008117121910000072
100000000000000000000009077090006612500000000000000000000000010002100018344812191700000000002            2  01183448121910121900000003588370000000001N011219000000000000000000000000000000000000000000000000000000000000000100018344803888MARCELO BERNARDO                        RUA MONTE CASTELO - 262 AP.84 - AVIACAO             11702720                                                            000074
2SR. CAIXA, APOS O VENCIMENTO COBRAR 10% DE MULTA                                NAO RECEBER APOS 30 DIAS DO VENCIMENTO.                                                                                                                                                                                                         01121900000000000000112190000000000000       0090770900066125183448121917000075
100000000000000000000009077090006612500000000000000000000000010002100004004312191400000000002            2  01040043121910121900000005030790000000001N011219000000000000000000000000000000000000000000000000000000000000000100004004328896VANDERLEI  MARTINS DE ALMEIDA           RUA MONSENHOR TABOSA - 03 - PARQUE CISPE            03819300                                                            000077
2SR. CAIXA, APOS O VENCIMENTO COBRAR 10% DE MULTA                                NAO RECEBER APOS 30 DIAS DO VENCIMENTO.                                                                                                                                                                                                         01121900000000000000112190000000000000       0090770900066125040043121914000078
100000000000000000000009077090006612500000000000000000000000010002100016339412191500000000002            2  01163394121910121900000003035260000000001N011219000000000000000000000000000000000000000000000000000000000000000100016339432832ALEX MONTEIRO DA SILVA                  RUA IVA MOURA LIMA - 04 - JARDIM MIRNA I            04855540                                                            000080
2SR. CAIXA, APOS O VENCIMENTO COBRAR 10% DE MULTA                                NAO RECEBER APOS 30 DIAS DO VENCIMENTO.                                                                                                                                                                                                         01121900000000000000112190000000000000       0090770900066125163394121915000081
100000000000000000000009077090006612500000000000000000000000010002100031803812191200000000002            2  01318038121910121900000003099610000000001N011219000000000000000000000000000000000000000000000000000000000000000100031803864877ELEILSON FELIPPE SANTOS                 RUA SANTA GREGORIA - 193 - CIDADE DUTRA             04806030                                                            000083
2SR. CAIXA, APOS O VENCIMENTO COBRAR 10% DE MULTA                                NAO RECEBER APOS 30 DIAS DO VENCIMENTO.                                                                                                                                                                                                         01121900000000000000112190000000000000       0090770900066125318038121912000084
100000000000000000000009077090006612500000000000000000000000010002100026032612191000000000002            2  01260326121910121900000002133040000000001N011219000000000000000000000000000000000000000000000000000000000000000100026032632857MARILA LOPES PEREIRA                    AVENIDA LUIZ GISHOKEM - 1761 AP.13 BL.05            05831315                                                            000086
2SR. CAIXA, APOS O VENCIMENTO COBRAR 10% DE MULTA                                NAO RECEBER APOS 30 DIAS DO VENCIMENTO.                                                                                                                                                                                                         01121900000000000000112190000000000000       0090770900066125260326121910000087
100000000000000000000009077090006612500000000000000000000000010002100063064512191700000000002            2  01630645121910121900000003693750000000001N011219000000000000000000000000000000000000000000000000000000000000000100063064537849ANTONIO APARECIDO DA SILVA DESTEFANO    RUA PROFESSOR TEODORO BRAGA - 46 - VILA             02966020                                                            000089
2SR. CAIXA, APOS O VENCIMENTO COBRAR 10% DE MULTA                                NAO RECEBER APOS 30 DIAS DO VENCIMENTO.                                                                                                                                                                                                         01121900000000000000112190000000000000       0090770900066125630645121917000090
100000000000000000000009077090006612500000000000000000000000010002100010107712191200000000002            2  01101077121910121900000003539710000000001N011219000000000000000000000000000000000000000000000000000000000000000100010107711834VALDEMAR FECCHIO                        RUA DEPUTADO EMILIO CARLOS - 355 AP.21-B            06028010                                                            000092
2SR. CAIXA, APOS O VENCIMENTO COBRAR 10% DE MULTA                                NAO RECEBER APOS 30 DIAS DO VENCIMENTO.                                                                                                                                                                                                         01121900000000000000112190000000000000       0090770900066125101077121912000093
100000000000000000000009077090006612500000000000000000000000010002100003330712191100000000002            2  01033307121910121900000004553640000000001N011219000000000000000000000000000000000000000000000000000000000000000100003330791837MARLI DA SILVA BARBOSA                  RUA GLICERIO CERQUEIRA LEITE - 151 - JAR            03675040                                                            000095
2SR. CAIXA, APOS O VENCIMENTO COBRAR 10% DE MULTA                                NAO RECEBER APOS 30 DIAS DO VENCIMENTO.                                                                                                                                                                                                         01121900000000000000112190000000000000       0090770900066125033307121911000096
100000000000000000000009077090006612500000000000000000000000010002100008931012191P00000000002            2  01089310121910121900000001850990000000001N011219000000000000000000000000000000000000000000000000000000000000000100008931031874BENEVENUTO THEODORO DA SILVA NETO       RUA MONTE CASTELO - 296 AP.63 - AVIACAO             11702720                                                            000098
2SR. CAIXA, APOS O VENCIMENTO COBRAR 10% DE MULTA                                NAO RECEBER APOS 30 DIAS DO VENCIMENTO.                                                                                                                                                                                                         01121900000000000000112190000000000000       009077090006612508931012191P000099
100000000000000000000009077090006612500000000000000000000000010002100005920512191600000000002            2  01059205121910121900000002150530000000001N011219000000000000000000000000000000000000000000000000000000000000000100005920579846SONIA MARIA VALDO POLLO                 RUA PALMIRA CERVI BARBARO - 797 - CIDADE            13214370                                                            000101
2SR. CAIXA, APOS O VENCIMENTO COBRAR 10% DE MULTA                                NAO RECEBER APOS 30 DIAS DO VENCIMENTO.                                                                                                                                                                                                         01121900000000000000112190000000000000       0090770900066125059205121916000102
100000000000000000000009077090006612500000000000000000000000010002100002494112191700000000002            2  01024941121910121900000003233400000000001N011219000000000000000000000000000000000000000000000000000000000000000100002494107881CIRO FRANCISCO MARCHI DURIGON           RUA MONTE CASTELO - 262 AP.115 - AVIACAO            11702720                                                            000104
2SR. CAIXA, APOS O VENCIMENTO COBRAR 10% DE MULTA                                NAO RECEBER APOS 30 DIAS DO VENCIMENTO.                                                                                                                                                                                                         01121900000000000000112190000000000000       0090770900066125024941121917000105
100000000000000000000009077090006612500000000000000000000000010002100007002312191400000000002            2  01070023121910121900000003178600000000001N011219000000000000000000000000000000000000000000000000000000000000000100007002345869DOMINGOS DE BRITO GALVAO                RUA MONTE CASTELO - 262 AP.44 - AVIACAO             11702720                                                            000107
2SR. CAIXA, APOS O VENCIMENTO COBRAR 10% DE MULTA                                NAO RECEBER APOS 30 DIAS DO VENCIMENTO.                                                                                                                                                                                                         01121900000000000000112190000000000000       0090770900066125070023121914000108
100000000000000000000009077090006612500000000000000000000000010002100016299012191800000000002            2  01162990121910121900000003064170000000001N011219000000000000000000000000000000000000000000000000000000000000000100016299008857FERNANDO CESAR CARVALHO                 AVENIDA MARCONDES DE BRITO - 1340 AP.74             03509000                                                            000110
2SR. CAIXA, APOS O VENCIMENTO COBRAR 10% DE MULTA                                NAO RECEBER APOS 30 DIAS DO VENCIMENTO.                                                                                                                                                                                                         01121900000000000000112190000000000000       0090770900066125162990121918000111
100000000000000000000009077090006612500000000000000000000000010002100031082812191100000000002            2  01310828121910121900000003079020000000001N011219000000000000000000000000000000000000000000000000000000000000000100031082898880VANESSA DOS SANTOS NEIVA                RUA MONTE CASTELO - 296 AP.33 - BAIRRO A            11702720                                                            000113
2SR. CAIXA, APOS O VENCIMENTO COBRAR 10% DE MULTA                                NAO RECEBER APOS 30 DIAS DO VENCIMENTO.                                                                                                                                                                                                         01121900000000000000112190000000000000       0090770900066125310828121911000114
100000000000000000000009077090006612500000000000000000000000010002100065895312191100000000002            2  01658953121910121900000001874680000000001N011219000000000000000000000000000000000000000000000000000000000000000100065895304834MARINHO BARBOSA CUNHA                   AVENIDA EDU CHAVES - 639 AP.43 - PARQUE             02229000                                                            000116
2SR. CAIXA, APOS O VENCIMENTO COBRAR 10% DE MULTA                                NAO RECEBER APOS 30 DIAS DO VENCIMENTO.                                                                                                                                                                                                         01121900000000000000112190000000000000       0090770900066125658953121911000117
9                                                                                                                                                                                                                                                                                                                                                                                                         000118