01REMESSA01COBRANCA       00000000000004991781AIRES CONSTRUTORA E INCORPORAD237BRADESCO       010818        MX0000109                                                                                                                                                                                                                                                                                     000001
100000000000000000000009077090006612500000000000000000000000010002100094852208181300000000002            2  01948522081810081800000002225060000000001N010818000000000000000000000000000000000000000000000000000000000000000100094852294887GISELDA MENON                           RUA OTAVIO BARRETO - 105 - VILA SANTISTA            02560080                                                            000002
2SR. CAIXA, APOS O VENCIMENTO COBRAR 10% DE MULTA                                NAO RECEBER APOS 30 DIAS DO VENCIMENTO.                                                                                                                                                                                                         01081800000000000000108180000000000000       0090770900066125948522081813000003
100000000000000000000009077090006612500000000000000000000000010002100006485908181P00000000002            2  01064859081810081800000003412530000000001N010818000000000000000000000000000000000000000000000000000000000000000100006485911820CELIO MANUEL  MELIM SANTO               RUA JUVENAL FERREIRA  - 85 AP.61 - VILA             03512040                                                            000005
2SR. CAIXA, APOS O VENCIMENTO COBRAR 10% DE MULTA                                NAO RECEBER APOS 30 DIAS DO VENCIMENTO.                                                                                                                                                                                                         01081800000000000000108180000000000000       009077090006612506485908181P000006
100000000000000000000009077090006612500000000000000000000000010002100004693808181900000000002            2  01046938081810081800000002974270000000001N010818000000000000000000000000000000000000000000000000000000000000000100004693857823NIVALDO BARTOLOMEU FERREIRA             MNS JOSE MARINONI  - 33 - SANTO AMARO -             04430350                                                            000008
2SR. CAIXA, APOS O VENCIMENTO COBRAR 10% DE MULTA                                NAO RECEBER APOS 30 DIAS DO VENCIMENTO.                                                                                                                                                                                                         01081800000000000000108180000000000000       0090770900066125046938081819000009
100000000000000000000009077090006612500000000000000000000000010002100027993108181800000000002            2  01279931081810081800000002832170000000001N010818000000000000000000000000000000000000000000000000000000000000000100027993108853DALVA JESUS RODRIGUES CABRAL            RUA CRISTOVAO COLOMBO GONCALVES - 97 - C            04811050                                                            000011
2SR. CAIXA, APOS O VENCIMENTO COBRAR 10% DE MULTA                                NAO RECEBER APOS 30 DIAS DO VENCIMENTO.                                                                                                                                                                                                         01081800000000000000108180000000000000       0090770900066125279931081818000012
100000000000000000000009077090006612500000000000000000000000010002100000455408181700000000002            2  01004554081810081800000002941970000000001N010818000000000000000000000000000000000000000000000000000000000000000100000455495831PAULO HENRIQUE LOURENCO                 RUA FIGUEIRA  - 237 - CIDADE DAS FLORES             06184060                                                            000014
2SR. CAIXA, APOS O VENCIMENTO COBRAR 10% DE MULTA                                NAO RECEBER APOS 30 DIAS DO VENCIMENTO.                                                                                                                                                                                                         01081800000000000000108180000000000000       0090770900066125004554081817000015
100000000000000000000009077090006612500000000000000000000000010002100006140008181800000000002            2  01061400081810081800000003648450000000001N010818000000000000000000000000000000000000000000000000000000000000000100006140049857MARIA ALBANI DA SILVA EUSEBIO           RUA ORLANDO SEGALA - 108 - JARDIM ADRIAN            07135190                                                            000017
2SR. CAIXA, APOS O VENCIMENTO COBRAR 10% DE MULTA                                NAO RECEBER APOS 30 DIAS DO VENCIMENTO.                                                                                                                                                                                                         01081800000000000000108180000000000000       0090770900066125061400081818000018
100000000000000000000009077090006612500000000000000000000000010002100002324708181200000000002            2  01023247081810081800000003577710000000001N010818000000000000000000000000000000000000000000000000000000000000000100002324785897IZILDA NAPOLI                           RUA MONTE CASTELO - 295 AP.71 - AVIACAO             11702720                                                            000020
2SR. CAIXA, APOS O VENCIMENTO COBRAR 10% DE MULTA                                NAO RECEBER APOS 30 DIAS DO VENCIMENTO.                                                                                                                                                                                                         01081800000000000000108180000000000000       0090770900066125023247081812000021
100000000000000000000009077090006612500000000000000000000000010002100007768708181700000000002            2  01077687081810081800000003706220000000001N010818000000000000000000000000000000000000000000000000000000000000000100007768713826FATIMA LUZIA BIANCHI                    DR. OLIDAIR AMBROSIO - 1487 AP.03 - CENT            14160170                                                            000023
2SR. CAIXA, APOS O VENCIMENTO COBRAR 10% DE MULTA                                NAO RECEBER APOS 30 DIAS DO VENCIMENTO.                                                                                                                                                                                                         01081800000000000000108180000000000000       0090770900066125077687081817000024
100000000000000000000009077090006612500000000000000000000000010002100021716808181400000000002            2  01217168081810081800000003651190000000001N010818000000000000000000000000000000000000000000000000000000000000000100021716847800DANIELLE FAGUNDES DE A.MATOS            CONDE MOREIRA LIMA - 644 - JARDIM JABAQU            04384032                                                            000026
2SR. CAIXA, APOS O VENCIMENTO COBRAR 10% DE MULTA                                NAO RECEBER APOS 30 DIAS DO VENCIMENTO.                                                                                                                                                                                                         01081800000000000000108180000000000000       0090770900066125217168081814000027
100000000000000000000009077090006612500000000000000000000000010002100085416908181800000000002            2  01854169081810081800000003095160000000001N010818000000000000000000000000000000000000000000000000000000000000000100085416940891ANTONIO DE SOUSA MENDES                 RUA MONTE CASTELO - 296 AP.52 - AVIACAO             11702720                                                            000029
2SR. CAIXA, APOS O VENCIMENTO COBRAR 10% DE MULTA                                NAO RECEBER APOS 30 DIAS DO VENCIMENTO.                                                                                                                                                                                                         01081800000000000000108180000000000000       0090770900066125854169081818000030
100000000000000000000009077090006612500000000000000000000000010002100005678008181100000000002            2  01056780081810081800000003223570000000001N010818000000000000000000000000000000000000000000000000000000000000000100005678057863FABIO MOREIRA CAMPOS                    RUA FLORENCIO DA SILVA - 284 - VILA LIBA            03738070                                                            000032
2SR. CAIXA, APOS O VENCIMENTO COBRAR 10% DE MULTA                                NAO RECEBER APOS 30 DIAS DO VENCIMENTO.                                                                                                                                                                                                         01081800000000000000108180000000000000       0090770900066125056780081811000033
100000000000000000000009077090006612500000000000000000000000010002100007784408181800000000002            2  01077844081810081800000003255040000000001N010818000000000000000000000000000000000000000000000000000000000000000100007784496885GUILHERME LEONARDO DO NASCIMENTO        COMENDADOR RUBENS RONCARE - 127 - PONTE             11530120                                                            000035
2SR. CAIXA, APOS O VENCIMENTO COBRAR 10% DE MULTA                                NAO RECEBER APOS 30 DIAS DO VENCIMENTO.                                                                                                                                                                                                         01081800000000000000108180000000000000       0090770900066125077844081818000036
100000000000000000000009077090006612500000000000000000000000010002100016348208181800000000002            2  01163482081810081800000003144840000000001N010818000000000000000000000000000000000000000000000000000000000000000100016348237885AILTON LORENA                           AVENIDA BRASILIA - 194 - BELA VISTA - SA            09180260                                                            000038
2SR. CAIXA, APOS O VENCIMENTO COBRAR 10% DE MULTA                                NAO RECEBER APOS 30 DIAS DO VENCIMENTO.                                                                                                                                                                                                         01081800000000000000108180000000000000       0090770900066125163482081818000039
100000000000000000000009077090006612500000000000000000000000010002100081218408181100000000002            2  01812184081810081800000003035160000000001N010818000000000000000000000000000000000000000000000000000000000000000100081218486953OSMAR DA COSTA                          RUA MONTE CASTELO - 295 AP.33 - AVIACAO             11702720                                                            000041
2SR. CAIXA, APOS O VENCIMENTO COBRAR 10% DE MULTA                                NAO RECEBER APOS 30 DIAS DO VENCIMENTO.                                                                                                                                                                                                         01081800000000000000108180000000000000       0090770900066125812184081811000042
100000000000000000000009077090006612500000000000000000000000010002100004981808181400000000002            2  01049818081810081800000003447380000000001N010818000000000000000000000000000000000000000000000000000000000000000100004981884850SILVIO PAULINO GONCALVES                MARIA DE CASTRO MESQUITA - 84 AP.103 BLO            07110040                                                            000044
2SR. CAIXA, APOS O VENCIMENTO COBRAR 10% DE MULTA                                NAO RECEBER APOS 30 DIAS DO VENCIMENTO.                                                                                                                                                                                                         01081800000000000000108180000000000000       0090770900066125049818081814000045
100000000000000000000009077090006612500000000000000000000000010002100019282508181900000000002            2  01192825081810081800000002262870000000001N010818000000000000000000000000000000000000000000000000000000000000000100019282546837FABIO LEANDRO DE FREITAS ASSIS          RUA BASSIM NAGIB TRABULSI - 97 - PONTA D            11030540                                                            000047
2SR. CAIXA, APOS O VENCIMENTO COBRAR 10% DE MULTA                                NAO RECEBER APOS 30 DIAS DO VENCIMENTO.                                                                                                                                                                                                         01081800000000000000108180000000000000       0090770900066125192825081819000048
100000000000000000000009077090006612500000000000000000000000010002100008423408181200000000002            2  01084234081810081800000003144770000000001N010818000000000000000000000000000000000000000000000000000000000000000100008423485811EDSON LUIZ NUNES                        RUA NOEMIA PEDROSO BUENO - 41 - JARDIM G            09360440                                                            000050
2SR. CAIXA, APOS O VENCIMENTO COBRAR 10% DE MULTA                                NAO RECEBER APOS 30 DIAS DO VENCIMENTO.                                                                                                                                                                                                         01081800000000000000108180000000000000       0090770900066125084234081812000051
100000000000000000000009077090006612500000000000000000000000010002100003010508181100000000002            2  01030105081810081800000003638890000000001N010818000000000000000000000000000000000000000000000000000000000000000100003010502877GIZELA VIEIRA BARROS                    RUA GIACOMO DALCIN - 157 - MAUA - SAO CA            09580350                                                            000053
2SR. CAIXA, APOS O VENCIMENTO COBRAR 10% DE MULTA                                NAO RECEBER APOS 30 DIAS DO VENCIMENTO.                                                                                                                                                                                                         01081800000000000000108180000000000000       0090770900066125030105081811000054
100000000000000000000009077090006612500000000000000000000000010002100012111008181700000000002            2  01121110081810081800000002963040000000001N010818000000000000000000000000000000000000000000000000000000000000000100012111060801CLAUDIA CRISTINA CRELIS COSTA           RUA RUI BARBOSA - 1736 AP.1533 - VILA SA            19015001                                                            000056
2SR. CAIXA, APOS O VENCIMENTO COBRAR 10% DE MULTA                                NAO RECEBER APOS 30 DIAS DO VENCIMENTO.                                                                                                                                                                                                         01081800000000000000108180000000000000       0090770900066125121110081817000057
100000000000000000000009077090006612500000000000000000000000010002100009777208181900000000002            2  01097772081810081800000002853030000000001N010818000000000000000000000000000000000000000000000000000000000000000100009777281889CARLITA DE FIGUEIREDO CARVALHO          AVENIDA ALBERTO DE ALMEIDA VINHAS - 4462            11701350                                                            000059
2SR. CAIXA, APOS O VENCIMENTO COBRAR 10% DE MULTA                                NAO RECEBER APOS 30 DIAS DO VENCIMENTO.                                                                                                                                                                                                         01081800000000000000108180000000000000       0090770900066125097772081819000060
100000000000000000000009077090006612500000000000000000000000010002100004213008181600000000002            2  01042130081810081800000003388220000000001N010818000000000000000000000000000000000000000000000000000000000000000100004213020894ELIETE DRUGOVICH DE LIMA                RUA OSVALDO CRUZ - 141 AP.144-B - SANTA             09541270                                                            000062
2SR. CAIXA, APOS O VENCIMENTO COBRAR 10% DE MULTA                                NAO RECEBER APOS 30 DIAS DO VENCIMENTO.                                                                                                                                                                                                         01081800000000000000108180000000000000       0090770900066125042130081816000063
100000000000000000000009077090006612500000000000000000000000010002100085839808181900000000002            2  01858398081810081800000002585980000000001N010818000000000000000000000000000000000000000000000000000000000000000100085839817872MAURO CORREIA MARTINS                   RUA PROFESSOR JOSE AZEVEDO MINHOTO - 72             06114000                                                            000065
2SR. CAIXA, APOS O VENCIMENTO COBRAR 10% DE MULTA                                NAO RECEBER APOS 30 DIAS DO VENCIMENTO.                                                                                                                                                                                                         01081800000000000000108180000000000000       0090770900066125858398081819000066
100000000000000000000009077090006612500000000000000000000000010002100043122808181000000000002            2  01431228081810081800000002309400000000001N010818000000000000000000000000000000000000000000000000000000000000000100043122850800ANTONIO JOAQUIM GOES                    ANTONIO DOAS DA SILVA - 412 - VILA AMALI            02618110                                                            000068
2SR. CAIXA, APOS O VENCIMENTO COBRAR 10% DE MULTA                                NAO RECEBER APOS 30 DIAS DO VENCIMENTO.                                                                                                                                                                                                         01081800000000000000108180000000000000       0090770900066125431228081810000069
100000000000000000000009077090006612500000000000000000000000010002100003865708181700000000002            2  01038657081810081800000003032070000000001N010818000000000000000000000000000000000000000000000000000000000000000100003865776841FRANCISCO JOSE ROCCO                    RUA FABIO JOSE BEZERRA - 130 AP.86 - PAR            03805000                                                            000071
2SR. CAIXA, APOS O VENCIMENTO COBRAR 10% DE MULTA                                NAO RECEBER APOS 30 DIAS DO VENCIMENTO.                                                                                                                                                                                                         01081800000000000000108180000000000000       0090770900066125038657081817000072
100000000000000000000009077090006612500000000000000000000000010002100028309508181300000000002            2  01283095081810081800000002703920000000001N010818000000000000000000000000000000000000000000000000000000000000000100028309524803DEISE RIBEIRO BARBOSA                   RUA CANDIDO JOSE DE ANDRADE - 173 - ERME            03807030                                                            000074
2SR. CAIXA, APOS O VENCIMENTO COBRAR 10% DE MULTA                                NAO RECEBER APOS 30 DIAS DO VENCIMENTO.                                                                                                                                                                                                         01081800000000000000108180000000000000       0090770900066125283095081813000075
100000000000000000000009077090006612500000000000000000000000010002100011277908181300000000002            2  01112779081810081800000003209240000000001N010818000000000000000000000000000000000000000000000000000000000000000100011277908893JOSE AILTON LOPES DE AZEVEDO            RUA MAESTRO JOAO SEPE - 19 - JARDIM MARI            04181030                                                            000077
2SR. CAIXA, APOS O VENCIMENTO COBRAR 10% DE MULTA                                NAO RECEBER APOS 30 DIAS DO VENCIMENTO.                                                                                                                                                                                                         01081800000000000000108180000000000000       0090770900066125112779081813000078
100000000000000000000009077090006612500000000000000000000000010002100025215108181000000000002            2  01252151081810081800000002420180000000001N010818000000000000000000000000000000000000000000000000000000000000000100025215106886KLEBER LUIZ DOS SANTOS                  RUA MONTE CASTELO - 262 AP.15 - AVIACAO             11702720                                                            000080
2SR. CAIXA, APOS O VENCIMENTO COBRAR 10% DE MULTA                                NAO RECEBER APOS 30 DIAS DO VENCIMENTO.                                                                                                                                                                                                         01081800000000000000108180000000000000       0090770900066125252151081810000081
100000000000000000000009077090006612500000000000000000000000010002100090206708181800000000002            2  01902067081810081800000002703230000000001N010818000000000000000000000000000000000000000000000000000000000000000100090206789815NEREIDE RODRIGUES FERREIRA              AVENIDA PADRE ESTANISLAU DE CAMPOS - 205            03590060                                                            000083
2SR. CAIXA, APOS O VENCIMENTO COBRAR 10% DE MULTA                                NAO RECEBER APOS 30 DIAS DO VENCIMENTO.                                                                                                                                                                                                         01081800000000000000108180000000000000       0090770900066125902067081818000084
100000000000000000000009077090006612500000000000000000000000010002100029150708181600000000002            2  01291507081810081800000003164190000000001N010818000000000000000000000000000000000000000000000000000000000000000100029150742833ANA DEISE SANTOS DE ALMEIDA             RUA MONTE CASTELO - 296 AP.121 - AVIACAO            11702720                                                            000086
2SR. CAIXA, APOS O VENCIMENTO COBRAR 10% DE MULTA                                NAO RECEBER APOS 30 DIAS DO VENCIMENTO.                                                                                                                                                                                                         01081800000000000000108180000000000000       0090770900066125291507081816000087
100000000000000000000009077090006612500000000000000000000000010002100000811708181100000000002            2  01008117081810081800000002606290000000001N010818000000000000000000000000000000000000000000000000000000000000000100000811752801SERGIO BUENO DA SILVA                   RUA MONTE CASTELO - 262 AP.75 - AVIACAO             11702720                                                            000089
2SR. CAIXA, APOS O VENCIMENTO COBRAR 10% DE MULTA                                NAO RECEBER APOS 30 DIAS DO VENCIMENTO.                                                                                                                                                                                                         01081800000000000000108180000000000000       0090770900066125008117081811000090
100000000000000000000009077090006612500000000000000000000000010002100018344808181800000000002            2  01183448081810081800000003313140000000001N010818000000000000000000000000000000000000000000000000000000000000000100018344803888MARCELO BERNARDO                        RUA MONTE CASTELO - 262 AP.84 - AVIACAO             11702720                                                            000092
2SR. CAIXA, APOS O VENCIMENTO COBRAR 10% DE MULTA                                NAO RECEBER APOS 30 DIAS DO VENCIMENTO.                                                                                                                                                                                                         01081800000000000000108180000000000000       0090770900066125183448081818000093
100000000000000000000009077090006612500000000000000000000000010002100004004308181500000000002            2  01040043081810081800000004644950000000001N010818000000000000000000000000000000000000000000000000000000000000000100004004328896VANDERLEI  MARTINS DE ALMEIDA           RUA MONSENHOR TABOSA - 03 - PARQUE CISPE            03819300                                                            000095
2SR. CAIXA, APOS O VENCIMENTO COBRAR 10% DE MULTA                                NAO RECEBER APOS 30 DIAS DO VENCIMENTO.                                                                                                                                                                                                         01081800000000000000108180000000000000       0090770900066125040043081815000096
100000000000000000000009077090006612500000000000000000000000010002100005133008181P00000000002            2  01051330081810081800000003172650000000001N010818000000000000000000000000000000000000000000000000000000000000000100005133053860VICENTE ARCIPRETE JUNIOR                RUA JOSE SIMOES FERREIRA FILHO - 80 - JA            06040090                                                            000098
2SR. CAIXA, APOS O VENCIMENTO COBRAR 10% DE MULTA                                NAO RECEBER APOS 30 DIAS DO VENCIMENTO.                                                                                                                                                                                                         01081800000000000000108180000000000000       009077090006612505133008181P000099
100000000000000000000009077090006612500000000000000000000000010002100056660208181400000000002            2  01566602081810081800000000771670000000001N010818000000000000000000000000000000000000000000000000000000000000000100056660235868JOSE DA SILVA                           RUA MONTE CASTELO - 296 AP.32 - AVIACAO             11702720                                                            000101
2SR. CAIXA, APOS O VENCIMENTO COBRAR 10% DE MULTA                                NAO RECEBER APOS 30 DIAS DO VENCIMENTO.                                                                                                                                                                                                         01081800000000000000108180000000000000       0090770900066125566602081814000102
100000000000000000000009077090006612500000000000000000000000010002100016339408181600000000002            2  01163394081810081800000002802460000000001N010818000000000000000000000000000000000000000000000000000000000000000100016339432832ALEX MONTEIRO DA SILVA                  RUA IVA MOURA LIMA - 04 - JARDIM MIRNA I            04855540                                                            000104
2SR. CAIXA, APOS O VENCIMENTO COBRAR 10% DE MULTA                                NAO RECEBER APOS 30 DIAS DO VENCIMENTO.                                                                                                                                                                                                         01081800000000000000108180000000000000       0090770900066125163394081816000105
100000000000000000000009077090006612500000000000000000000000010002100031803808181300000000002            2  01318038081810081800000002861870000000001N010818000000000000000000000000000000000000000000000000000000000000000100031803864877ELEILSON FELIPPE SANTOS                 RUA SANTA GREGORIA - 193 - CIDADE DUTRA             04806030                                                            000107
2SR. CAIXA, APOS O VENCIMENTO COBRAR 10% DE MULTA                                NAO RECEBER APOS 30 DIAS DO VENCIMENTO.                                                                                                                                                                                                         01081800000000000000108180000000000000       0090770900066125318038081813000108
100000000000000000000009077090006612500000000000000000000000010002100026032608181100000000002            2  01260326081810081800000001969410000000001N010818000000000000000000000000000000000000000000000000000000000000000100026032632857MARILA LOPES PEREIRA                    AVENIDA LUIZ GISHOKEM - 1761 AP.13 BL.05            05831315                                                            000110
2SR. CAIXA, APOS O VENCIMENTO COBRAR 10% DE MULTA                                NAO RECEBER APOS 30 DIAS DO VENCIMENTO.                                                                                                                                                                                                         01081800000000000000108180000000000000       0090770900066125260326081811000111
100000000000000000000009077090006612500000000000000000000000010002100063064508181800000000002            2  01630645081810081800000003410440000000001N010818000000000000000000000000000000000000000000000000000000000000000100063064537849ANTONIO APARECIDO DA SILVA DESTEFANO    RUA PROFESSOR TEODORO BRAGA - 46 - VILA             02966020                                                            000113
2SR. CAIXA, APOS O VENCIMENTO COBRAR 10% DE MULTA                                NAO RECEBER APOS 30 DIAS DO VENCIMENTO.                                                                                                                                                                                                         01081800000000000000108180000000000000       0090770900066125630645081818000114
100000000000000000000009077090006612500000000000000000000000010002100010107708181300000000002            2  01101077081810081800000003268220000000001N010818000000000000000000000000000000000000000000000000000000000000000100010107711834VALDEMAR FECCHIO                        RUA DOUTOR MARTINS DE OLIVEIRA - 529 AP.            05638030                                                            000116
2SR. CAIXA, APOS O VENCIMENTO COBRAR 10% DE MULTA                                NAO RECEBER APOS 30 DIAS DO VENCIMENTO.                                                                                                                                                                                                         01081800000000000000108180000000000000       0090770900066125101077081813000117
100000000000000000000009077090006612500000000000000000000000010002100003330708181200000000002            2  01033307081810081800000004204370000000001N010818000000000000000000000000000000000000000000000000000000000000000100003330791837MARLI DA SILVA BARBOSA                  RUA GLICERIO CERQUEIRA LEITE - 151 - JAR            03675040                                                            000119
2SR. CAIXA, APOS O VENCIMENTO COBRAR 10% DE MULTA                                NAO RECEBER APOS 30 DIAS DO VENCIMENTO.                                                                                                                                                                                                         01081800000000000000108180000000000000       0090770900066125033307081812000120
100000000000000000000009077090006612500000000000000000000000010002100008931008181000000000002            2  01089310081810081800000001709020000000001N010818000000000000000000000000000000000000000000000000000000000000000100008931031874MARIA MARINHO DE OLIVEIRA               AVENIDA 9 DE JULHO - 1854 AP.81 - BELA V            01312001                                                            000122
2SR. CAIXA, APOS O VENCIMENTO COBRAR 10% DE MULTA                                NAO RECEBER APOS 30 DIAS DO VENCIMENTO.                                                                                                                                                                                                         01081800000000000000108180000000000000       0090770900066125089310081810000123
100000000000000000000009077090006612500000000000000000000000010002100005920508181700000000002            2  01059205081810081800000001985570000000001N010818000000000000000000000000000000000000000000000000000000000000000100005920579846SONIA MARIA VALDO POLLO                 RUA PALMIRA CERVI BARBARO - 797 - CIDADE            13214370                                                            000125
2SR. CAIXA, APOS O VENCIMENTO COBRAR 10% DE MULTA                                NAO RECEBER APOS 30 DIAS DO VENCIMENTO.                                                                                                                                                                                                         01081800000000000000108180000000000000       0090770900066125059205081817000126
100000000000000000000009077090006612500000000000000000000000010002100002494108181800000000002            2  01024941081810081800000002985390000000001N010818000000000000000000000000000000000000000000000000000000000000000100002494107881CIRO FRANCISCO MARCHI DURIGON           RUA MONTE CASTELO - 262 AP.115 - AVIACAO            11702720                                                            000128
2SR. CAIXA, APOS O VENCIMENTO COBRAR 10% DE MULTA                                NAO RECEBER APOS 30 DIAS DO VENCIMENTO.                                                                                                                                                                                                         01081800000000000000108180000000000000       0090770900066125024941081818000129
100000000000000000000009077090006612500000000000000000000000010002100007002308181500000000002            2  01070023081810081800000002934800000000001N010818000000000000000000000000000000000000000000000000000000000000000100007002345869DOMINGOS DE BRITO GALVAO                RUA MONTE CASTELO - 262 AP.44 - AVIACAO             11702720                                                            000131
2SR. CAIXA, APOS O VENCIMENTO COBRAR 10% DE MULTA                                NAO RECEBER APOS 30 DIAS DO VENCIMENTO.                                                                                                                                                                                                         01081800000000000000108180000000000000       0090770900066125070023081815000132
100000000000000000000009077090006612500000000000000000000000010002100009346808181500000000002            2  01093468081810081800000001222500000000001N010818000000000000000000000000000000000000000000000000000000000000000100009346863862NELSON DE SOUZA SANTOS                  RUA PRIMEIRA CRUZ - 90 - PARQUE INDEPEND            03236060                                                            000134
2SR. CAIXA, APOS O VENCIMENTO COBRAR 10% DE MULTA                                NAO RECEBER APOS 30 DIAS DO VENCIMENTO.                                                                                                                                                                                                         01081800000000000000108180000000000000       0090770900066125093468081815000135
100000000000000000000009077090006612500000000000000000000000010002100016299008181900000000002            2  01162990081810081800000002829140000000001N010818000000000000000000000000000000000000000000000000000000000000000100016299008857FERNANDO CESAR CARVALHO                 AVENIDA MARCONDES DE BRITO - 1340 AP.74             03509000                                                            000137
2SR. CAIXA, APOS O VENCIMENTO COBRAR 10% DE MULTA                                NAO RECEBER APOS 30 DIAS DO VENCIMENTO.                                                                                                                                                                                                         01081800000000000000108180000000000000       0090770900066125162990081819000138
100000000000000000000009077090006612500000000000000000000000010002100031082808181200000000002            2  01310828081810081800000002842850000000001N010818000000000000000000000000000000000000000000000000000000000000000100031082898880VANESSA DOS SANTOS NEIVA                RUA MONTE CASTELO - 296 AP.33 - BAIRRO A            11702720                                                            000140
2SR. CAIXA, APOS O VENCIMENTO COBRAR 10% DE MULTA                                NAO RECEBER APOS 30 DIAS DO VENCIMENTO.                                                                                                                                                                                                         01081800000000000000108180000000000000       0090770900066125310828081812000141
100000000000000000000009077090006612500000000000000000000000010002100065895308181200000000002            2  01658953081810081800000001730900000000001N010818000000000000000000000000000000000000000000000000000000000000000100065895304834MARINHO BARBOSA CUNHA                   AVENIDA EDU CHAVES - 639 AP.43 - PARQUE             02229000                                                            000143
2SR. CAIXA, APOS O VENCIMENTO COBRAR 10% DE MULTA                                NAO RECEBER APOS 30 DIAS DO VENCIMENTO.                                                                                                                                                                                                         01081800000000000000108180000000000000       0090770900066125658953081812000144
9                                                                                                                                                                                                                                                                                                                                                                                                         000145