01REMESSA01COBRANCA       00000000000005316116AIRES CONSTRUTORA E INCORPORAD237BRADESCO       010624        MX0000243                                                                                                                                                                                                                                                                                     000001
100000000000000000000009002800441612000000000000000000000000010002020016299006241500000000002            2  01162990062410062400000004164090000000001N010624000000000000000000000000000000000000000000000000000000000000000100016299008857FERNANDO CESAR CARVALHO                 AVENIDA MARCONDES DE BRITO - 1340 AP.74             03509000                                                            000002
2SR. CAIXA, APOS O VENCIMENTO COBRAR 2% DE MULTA                                 NAO RECEBER APOS 30 DIAS DO VENCIMENTO.                                                                                                                                                                                                         01062400000000000000106240000000000000       0090028004416120162990062415000003
9                                                                                                                                                                                                                                                                                                                                                                                                         000004