01REMESSA01COBRANCA       00000000000004991781AIRES CONSTRUTORA E INCORPORAD237BRADESCO       010719        MX0000123                                                                                                                                                                                                                                                                                     000001
100000000000000000000009077090006612500000000000000000000000010002100094852207191500000000002            2  01948522071910071900000002350550000000001N010719000000000000000000000000000000000000000000000000000000000000000100094852294887GISELDA MENON                           RUA OTAVIO BARRETO - 105 - VILA SANTISTA            02560080                                                            000002
2SR. CAIXA, APOS O VENCIMENTO COBRAR 10% DE MULTA                                NAO RECEBER APOS 30 DIAS DO VENCIMENTO.                                                                                                                                                                                                         01071900000000000000107190000000000000       0090770900066125948522071915000003
100000000000000000000009077090006612500000000000000000000000010002100006485907191100000000002            2  01064859071910071900000003604990000000001N010719000000000000000000000000000000000000000000000000000000000000000100006485911820CELIO MANUEL  MELIM SANTO               RUA JUVENAL FERREIRA  - 85 AP.61 - VILA             03512040                                                            000005
2SR. CAIXA, APOS O VENCIMENTO COBRAR 10% DE MULTA                                NAO RECEBER APOS 30 DIAS DO VENCIMENTO.                                                                                                                                                                                                         01071900000000000000107190000000000000       0090770900066125064859071911000006
100000000000000000000009077090006612500000000000000000000000010002100004693807191000000000002            2  01046938071910071900000003142010000000001N010719000000000000000000000000000000000000000000000000000000000000000100004693857823NIVALDO BARTOLOMEU FERREIRA             MNS JOSE MARINONI  - 33 - SANTO AMARO -             04430350                                                            000008
2SR. CAIXA, APOS O VENCIMENTO COBRAR 10% DE MULTA                                NAO RECEBER APOS 30 DIAS DO VENCIMENTO.                                                                                                                                                                                                         01071900000000000000107190000000000000       0090770900066125046938071910000009
100000000000000000000009077090006612500000000000000000000000010002100027993107191P00000000002            2  01279931071910071900000002991890000000001N010719000000000000000000000000000000000000000000000000000000000000000100027993108853DALVA JESUS RODRIGUES CABRAL            RUA CRISTOVAO COLOMBO GONCALVES - 97 - C            04811050                                                            000011
2SR. CAIXA, APOS O VENCIMENTO COBRAR 10% DE MULTA                                NAO RECEBER APOS 30 DIAS DO VENCIMENTO.                                                                                                                                                                                                         01071900000000000000107190000000000000       009077090006612527993107191P000012
100000000000000000000009077090006612500000000000000000000000010002100000455407191900000000002            2  01004554071910071900000003107890000000001N010719000000000000000000000000000000000000000000000000000000000000000100000455495831PAULO HENRIQUE LOURENCO                 RUA FIGUEIRA  - 237 - CIDADE DAS FLORES             06184060                                                            000014
2SR. CAIXA, APOS O VENCIMENTO COBRAR 10% DE MULTA                                NAO RECEBER APOS 30 DIAS DO VENCIMENTO.                                                                                                                                                                                                         01071900000000000000107190000000000000       0090770900066125004554071919000015
100000000000000000000009077090006612500000000000000000000000010002100006140007191P00000000002            2  01061400071910071900000003854210000000001N010719000000000000000000000000000000000000000000000000000000000000000100006140049857MARIA ALBANI DA SILVA EUSEBIO           RUA ORLANDO SEGALA - 108 - JARDIM ADRIAN            07135190                                                            000017
2SR. CAIXA, APOS O VENCIMENTO COBRAR 10% DE MULTA                                NAO RECEBER APOS 30 DIAS DO VENCIMENTO.                                                                                                                                                                                                         01071900000000000000107190000000000000       009077090006612506140007191P000018
100000000000000000000009077090006612500000000000000000000000010002100007768707191900000000002            2  01077687071910071900000003915230000000001N010719000000000000000000000000000000000000000000000000000000000000000100007768713826FATIMA LUZIA BIANCHI                    RUA MONTE CASTELO - 295 AP.121 - AVIACAO            11702720                                                            000020
2SR. CAIXA, APOS O VENCIMENTO COBRAR 10% DE MULTA                                NAO RECEBER APOS 30 DIAS DO VENCIMENTO.                                                                                                                                                                                                         01071900000000000000107190000000000000       0090770900066125077687071919000021
100000000000000000000009077090006612500000000000000000000000010002100021716807191600000000002            2  01217168071910071900000003857100000000001N010719000000000000000000000000000000000000000000000000000000000000000100021716847800DANIELLE FAGUNDES DE A.MATOS            CONDE MOREIRA LIMA - 644 - JARDIM JABAQU            04384032                                                            000023
2SR. CAIXA, APOS O VENCIMENTO COBRAR 10% DE MULTA                                NAO RECEBER APOS 30 DIAS DO VENCIMENTO.                                                                                                                                                                                                         01071900000000000000107190000000000000       0090770900066125217168071916000024
100000000000000000000009077090006612500000000000000000000000010002100085416907191P00000000002            2  01854169071910071900000003269740000000001N010719000000000000000000000000000000000000000000000000000000000000000100085416940891ANTONIO DE SOUSA MENDES                 RUA MONTE CASTELO - 296 AP.52 - AVIACAO             11702720                                                            000026
2SR. CAIXA, APOS O VENCIMENTO COBRAR 10% DE MULTA                                NAO RECEBER APOS 30 DIAS DO VENCIMENTO.                                                                                                                                                                                                         01071900000000000000107190000000000000       009077090006612585416907191P000027
100000000000000000000009077090006612500000000000000000000000010002100005678007191300000000002            2  01056780071910071900000003405360000000001N010719000000000000000000000000000000000000000000000000000000000000000100005678057863FABIO MOREIRA CAMPOS                    RUA FLORENCIO DA SILVA - 284 - VILA LIBA            03738070                                                            000029
2SR. CAIXA, APOS O VENCIMENTO COBRAR 10% DE MULTA                                NAO RECEBER APOS 30 DIAS DO VENCIMENTO.                                                                                                                                                                                                         01071900000000000000107190000000000000       0090770900066125056780071913000030
100000000000000000000009077090006612500000000000000000000000010002100016348207191P00000000002            2  01163482071910071900000003322180000000001N010719000000000000000000000000000000000000000000000000000000000000000100016348237885AILTON LORENA                           AVENIDA BRASILIA - 194 - BELA VISTA - SA            09180260                                                            000032
2SR. CAIXA, APOS O VENCIMENTO COBRAR 10% DE MULTA                                NAO RECEBER APOS 30 DIAS DO VENCIMENTO.                                                                                                                                                                                                         01071900000000000000107190000000000000       009077090006612516348207191P000033
100000000000000000000009077090006612500000000000000000000000010002100081218407191300000000002            2  01812184071910071900000003206330000000001N010719000000000000000000000000000000000000000000000000000000000000000100081218486953OSMAR DA COSTA                          RUA MONTE CASTELO - 295 AP.33 - AVIACAO             11702720                                                            000035
2SR. CAIXA, APOS O VENCIMENTO COBRAR 10% DE MULTA                                NAO RECEBER APOS 30 DIAS DO VENCIMENTO.                                                                                                                                                                                                         01071900000000000000107190000000000000       0090770900066125812184071913000036
100000000000000000000009077090006612500000000000000000000000010002100004981807191600000000002            2  01049818071910071900000003641800000000001N010719000000000000000000000000000000000000000000000000000000000000000100004981884850SILVIO PAULINO GONCALVES                MARIA DE CASTRO MESQUITA - 84 AP.103 BLO            07110040                                                            000038
2SR. CAIXA, APOS O VENCIMENTO COBRAR 10% DE MULTA                                NAO RECEBER APOS 30 DIAS DO VENCIMENTO.                                                                                                                                                                                                         01071900000000000000107190000000000000       0090770900066125049818071916000039
100000000000000000000009077090006612500000000000000000000000010002100019282507191000000000002            2  01192825071910071900000002390470000000001N010719000000000000000000000000000000000000000000000000000000000000000100019282546837FABIO LEANDRO DE FREITAS ASSIS          RUA BASSIM NAGIB TRABULSI - 97 - PONTA D            11030540                                                            000041
2SR. CAIXA, APOS O VENCIMENTO COBRAR 10% DE MULTA                                NAO RECEBER APOS 30 DIAS DO VENCIMENTO.                                                                                                                                                                                                         01071900000000000000107190000000000000       0090770900066125192825071910000042
100000000000000000000009077090006612500000000000000000000000010002100008423407191400000000002            2  01084234071910071900000003322110000000001N010719000000000000000000000000000000000000000000000000000000000000000100008423485811EDSON LUIZ NUNES                        RUA NOEMIA PEDROSO BUENO - 41 - JARDIM G            09360440                                                            000044
2SR. CAIXA, APOS O VENCIMENTO COBRAR 10% DE MULTA                                NAO RECEBER APOS 30 DIAS DO VENCIMENTO.                                                                                                                                                                                                         01071900000000000000107190000000000000       0090770900066125084234071914000045
100000000000000000000009077090006612500000000000000000000000010002100009777207191000000000002            2  01097772071910071900000003013940000000001N010719000000000000000000000000000000000000000000000000000000000000000100009777281889CARLITA DE FIGUEIREDO CARVALHO          AVENIDA ALBERTO DE ALMEIDA VINHAS - 4462            11701350                                                            000047
2SR. CAIXA, APOS O VENCIMENTO COBRAR 10% DE MULTA                                NAO RECEBER APOS 30 DIAS DO VENCIMENTO.                                                                                                                                                                                                         01071900000000000000107190000000000000       0090770900066125097772071910000048
100000000000000000000009077090006612500000000000000000000000010002100004213007191800000000002            2  01042130071910071900000003579310000000001N010719000000000000000000000000000000000000000000000000000000000000000100004213020894ELIETE DRUGOVICH DE LIMA                RUA OSVALDO CRUZ - 141 AP.144-B - SANTA             09541270                                                            000050
2SR. CAIXA, APOS O VENCIMENTO COBRAR 10% DE MULTA                                NAO RECEBER APOS 30 DIAS DO VENCIMENTO.                                                                                                                                                                                                         01071900000000000000107190000000000000       0090770900066125042130071918000051
100000000000000000000009077090006612500000000000000000000000010002100043122807191200000000002            2  01431228071910071900000002439650000000001N010719000000000000000000000000000000000000000000000000000000000000000100043122850800ANTONIO JOAQUIM GOES                    ANTONIO DOAS DA SILVA - 412 - VILA AMALI            02618110                                                            000053
2SR. CAIXA, APOS O VENCIMENTO COBRAR 10% DE MULTA                                NAO RECEBER APOS 30 DIAS DO VENCIMENTO.                                                                                                                                                                                                         01071900000000000000107190000000000000       0090770900066125431228071912000054
100000000000000000000009077090006612500000000000000000000000010002100003865707191900000000002            2  01038657071910071900000003203080000000001N010719000000000000000000000000000000000000000000000000000000000000000100003865776841FRANCISCO JOSE ROCCO                    RUA FABIO JOSE BEZERRA - 130 AP.86 - PAR            03805000                                                            000056
2SR. CAIXA, APOS O VENCIMENTO COBRAR 10% DE MULTA                                NAO RECEBER APOS 30 DIAS DO VENCIMENTO.                                                                                                                                                                                                         01071900000000000000107190000000000000       0090770900066125038657071919000057
100000000000000000000009077090006612500000000000000000000000010002100028309507191500000000002            2  01283095071910071900000002856410000000001N010719000000000000000000000000000000000000000000000000000000000000000100028309524803DEISE RIBEIRO BARBOSA                   RUA CANDIDO JOSE DE ANDRADE - 173 - ERME            03807030                                                            000059
2SR. CAIXA, APOS O VENCIMENTO COBRAR 10% DE MULTA                                NAO RECEBER APOS 30 DIAS DO VENCIMENTO.                                                                                                                                                                                                         01071900000000000000107190000000000000       0090770900066125283095071915000060
100000000000000000000009077090006612500000000000000000000000010002100011277907191500000000002            2  01112779071910071900000003390240000000001N010719000000000000000000000000000000000000000000000000000000000000000100011277908893JOSE AILTON LOPES DE AZEVEDO            RUA MAESTRO JOAO SEPE - 19 - JARDIM MARI            04181030                                                            000062
2SR. CAIXA, APOS O VENCIMENTO COBRAR 10% DE MULTA                                NAO RECEBER APOS 30 DIAS DO VENCIMENTO.                                                                                                                                                                                                         01071900000000000000107190000000000000       0090770900066125112779071915000063
100000000000000000000009077090006612500000000000000000000000010002100025215107191200000000002            2  01252151071910071900000002556660000000001N010719000000000000000000000000000000000000000000000000000000000000000100025215106886KLEBER LUIZ DOS SANTOS                  RUA MONTE CASTELO - 262 AP.15 - AVIACAO             11702720                                                            000065
2SR. CAIXA, APOS O VENCIMENTO COBRAR 10% DE MULTA                                NAO RECEBER APOS 30 DIAS DO VENCIMENTO.                                                                                                                                                                                                         01071900000000000000107190000000000000       0090770900066125252151071912000066
100000000000000000000009077090006612500000000000000000000000010002100090206707191P00000000002            2  01902067071910071900000002855700000000001N010719000000000000000000000000000000000000000000000000000000000000000100090206789815NEREIDE RODRIGUES FERREIRA              AVENIDA PADRE ESTANISLAU DE CAMPOS - 205            03590060                                                            000068
2SR. CAIXA, APOS O VENCIMENTO COBRAR 10% DE MULTA                                NAO RECEBER APOS 30 DIAS DO VENCIMENTO.                                                                                                                                                                                                         01071900000000000000107190000000000000       009077090006612590206707191P000069
100000000000000000000009077090006612500000000000000000000000010002100029150707191800000000002            2  01291507071910071900000003342630000000001N010719000000000000000000000000000000000000000000000000000000000000000100029150742833ANA DEISE SANTOS DE ALMEIDA             RUA MONTE CASTELO - 296 AP.121 - AVIACAO            11702720                                                            000071
2SR. CAIXA, APOS O VENCIMENTO COBRAR 10% DE MULTA                                NAO RECEBER APOS 30 DIAS DO VENCIMENTO.                                                                                                                                                                                                         01071900000000000000107190000000000000       0090770900066125291507071918000072
100000000000000000000009077090006612500000000000000000000000010002100000811707191300000000002            2  01008117071910071900000002753270000000001N010719000000000000000000000000000000000000000000000000000000000000000100000811752801SERGIO BUENO DA SILVA                   RUA MONTE CASTELO - 262 AP.75 - AVIACAO             11702720                                                            000074
2SR. CAIXA, APOS O VENCIMENTO COBRAR 10% DE MULTA                                NAO RECEBER APOS 30 DIAS DO VENCIMENTO.                                                                                                                                                                                                         01071900000000000000107190000000000000       0090770900066125008117071913000075
100000000000000000000009077090006612500000000000000000000000010002100018344807191P00000000002            2  01183448071910071900000003499990000000001N010719000000000000000000000000000000000000000000000000000000000000000100018344803888MARCELO BERNARDO                        RUA MONTE CASTELO - 262 AP.84 - AVIACAO             11702720                                                            000077
2SR. CAIXA, APOS O VENCIMENTO COBRAR 10% DE MULTA                                NAO RECEBER APOS 30 DIAS DO VENCIMENTO.                                                                                                                                                                                                         01071900000000000000107190000000000000       009077090006612518344807191P000078
100000000000000000000009077090006612500000000000000000000000010002100004004307191700000000002            2  01040043071910071900000004906890000000001N010719000000000000000000000000000000000000000000000000000000000000000100004004328896VANDERLEI  MARTINS DE ALMEIDA           RUA MONSENHOR TABOSA - 03 - PARQUE CISPE            03819300                                                            000080
2SR. CAIXA, APOS O VENCIMENTO COBRAR 10% DE MULTA                                NAO RECEBER APOS 30 DIAS DO VENCIMENTO.                                                                                                                                                                                                         01071900000000000000107190000000000000       0090770900066125040043071917000081
100000000000000000000009077090006612500000000000000000000000010002100005133007191100000000002            2  01051330071910071900000003351560000000001N010719000000000000000000000000000000000000000000000000000000000000000100005133053860VICENTE ARCIPRETE JUNIOR                RUA JOSE SIMOES FERREIRA FILHO - 80 - JA            06040090                                                            000083
2SR. CAIXA, APOS O VENCIMENTO COBRAR 10% DE MULTA                                NAO RECEBER APOS 30 DIAS DO VENCIMENTO.                                                                                                                                                                                                         01071900000000000000107190000000000000       0090770900066125051330071911000084
100000000000000000000009077090006612500000000000000000000000010002100056660207191600000000002            2  01566602071910071900000000815230000000001N010719000000000000000000000000000000000000000000000000000000000000000100056660235868JOSE DA SILVA                           RUA MONTE CASTELO - 296 AP.32 - AVIACAO             11702720                                                            000086
2SR. CAIXA, APOS O VENCIMENTO COBRAR 10% DE MULTA                                NAO RECEBER APOS 30 DIAS DO VENCIMENTO.                                                                                                                                                                                                         01071900000000000000107190000000000000       0090770900066125566602071916000087
100000000000000000000009077090006612500000000000000000000000010002100016339407191800000000002            2  01163394071910071900000002960500000000001N010719000000000000000000000000000000000000000000000000000000000000000100016339432832ALEX MONTEIRO DA SILVA                  RUA IVA MOURA LIMA - 04 - JARDIM MIRNA I            04855540                                                            000089
2SR. CAIXA, APOS O VENCIMENTO COBRAR 10% DE MULTA                                NAO RECEBER APOS 30 DIAS DO VENCIMENTO.                                                                                                                                                                                                         01071900000000000000107190000000000000       0090770900066125163394071918000090
100000000000000000000009077090006612500000000000000000000000010002100031803807191500000000002            2  01318038071910071900000003023270000000001N010719000000000000000000000000000000000000000000000000000000000000000100031803864877ELEILSON FELIPPE SANTOS                 RUA SANTA GREGORIA - 193 - CIDADE DUTRA             04806030                                                            000092
2SR. CAIXA, APOS O VENCIMENTO COBRAR 10% DE MULTA                                NAO RECEBER APOS 30 DIAS DO VENCIMENTO.                                                                                                                                                                                                         01071900000000000000107190000000000000       0090770900066125318038071915000093
100000000000000000000009077090006612500000000000000000000000010002100026032607191300000000002            2  01260326071910071900000002080510000000001N010719000000000000000000000000000000000000000000000000000000000000000100026032632857MARILA LOPES PEREIRA                    AVENIDA LUIZ GISHOKEM - 1761 AP.13 BL.05            05831315                                                            000095
2SR. CAIXA, APOS O VENCIMENTO COBRAR 10% DE MULTA                                NAO RECEBER APOS 30 DIAS DO VENCIMENTO.                                                                                                                                                                                                         01071900000000000000107190000000000000       0090770900066125260326071913000096
100000000000000000000009077090006612500000000000000000000000010002100063064507191P00000000002            2  01630645071910071900000003602780000000001N010719000000000000000000000000000000000000000000000000000000000000000100063064537849ANTONIO APARECIDO DA SILVA DESTEFANO    RUA PROFESSOR TEODORO BRAGA - 46 - VILA             02966020                                                            000098
2SR. CAIXA, APOS O VENCIMENTO COBRAR 10% DE MULTA                                NAO RECEBER APOS 30 DIAS DO VENCIMENTO.                                                                                                                                                                                                         01071900000000000000107190000000000000       009077090006612563064507191P000099
100000000000000000000009077090006612500000000000000000000000010002100010107707191500000000002            2  01101077071910071900000003452530000000001N010719000000000000000000000000000000000000000000000000000000000000000100010107711834VALDEMAR FECCHIO                        RUA DEPUTADO EMILIO CARLOS - 355 AP.21-B            06028010                                                            000101
2SR. CAIXA, APOS O VENCIMENTO COBRAR 10% DE MULTA                                NAO RECEBER APOS 30 DIAS DO VENCIMENTO.                                                                                                                                                                                                         01071900000000000000107190000000000000       0090770900066125101077071915000102
100000000000000000000009077090006612500000000000000000000000010002100003330707191400000000002            2  01033307071910071900000004441490000000001N010719000000000000000000000000000000000000000000000000000000000000000100003330791837MARLI DA SILVA BARBOSA                  RUA GLICERIO CERQUEIRA LEITE - 151 - JAR            03675040                                                            000104
2SR. CAIXA, APOS O VENCIMENTO COBRAR 10% DE MULTA                                NAO RECEBER APOS 30 DIAS DO VENCIMENTO.                                                                                                                                                                                                         01071900000000000000107190000000000000       0090770900066125033307071914000105
100000000000000000000009077090006612500000000000000000000000010002100008931007191200000000002            2  01089310071910071900000001805400000000001N010719000000000000000000000000000000000000000000000000000000000000000100008931031874BENEVENUTO THEODORO DA SILVA NETO       RUA MONTE CASTELO - 296 AP.63 - AVIACAO             11702720                                                            000107
2SR. CAIXA, APOS O VENCIMENTO COBRAR 10% DE MULTA                                NAO RECEBER APOS 30 DIAS DO VENCIMENTO.                                                                                                                                                                                                         01071900000000000000107190000000000000       0090770900066125089310071912000108
100000000000000000000009077090006612500000000000000000000000010002100005920507191900000000002            2  01059205071910071900000002097560000000001N010719000000000000000000000000000000000000000000000000000000000000000100005920579846SONIA MARIA VALDO POLLO                 RUA PALMIRA CERVI BARBARO - 797 - CIDADE            13214370                                                            000110
2SR. CAIXA, APOS O VENCIMENTO COBRAR 10% DE MULTA                                NAO RECEBER APOS 30 DIAS DO VENCIMENTO.                                                                                                                                                                                                         01071900000000000000107190000000000000       0090770900066125059205071919000111
100000000000000000000009077090006612500000000000000000000000010002100002494107191P00000000002            2  01024941071910071900000003153750000000001N010719000000000000000000000000000000000000000000000000000000000000000100002494107881CIRO FRANCISCO MARCHI DURIGON           RUA MONTE CASTELO - 262 AP.115 - AVIACAO            11702720                                                            000113
2SR. CAIXA, APOS O VENCIMENTO COBRAR 10% DE MULTA                                NAO RECEBER APOS 30 DIAS DO VENCIMENTO.                                                                                                                                                                                                         01071900000000000000107190000000000000       009077090006612502494107191P000114
100000000000000000000009077090006612500000000000000000000000010002100007002307191700000000002            2  01070023071910071900000003100310000000001N010719000000000000000000000000000000000000000000000000000000000000000100007002345869DOMINGOS DE BRITO GALVAO                RUA MONTE CASTELO - 262 AP.44 - AVIACAO             11702720                                                            000116
2SR. CAIXA, APOS O VENCIMENTO COBRAR 10% DE MULTA                                NAO RECEBER APOS 30 DIAS DO VENCIMENTO.                                                                                                                                                                                                         01071900000000000000107190000000000000       0090770900066125070023071917000117
100000000000000000000009077090006612500000000000000000000000010002100009346807191700000000002            2  01093468071910071900000001291440000000001N010719000000000000000000000000000000000000000000000000000000000000000100009346863862NELSON DE SOUZA SANTOS                  RUA PRIMEIRA CRUZ - 90 - PARQUE INDEPEND            03236060                                                            000119
2SR. CAIXA, APOS O VENCIMENTO COBRAR 10% DE MULTA                                NAO RECEBER APOS 30 DIAS DO VENCIMENTO.                                                                                                                                                                                                         01071900000000000000107190000000000000       0090770900066125093468071917000120
100000000000000000000009077090006612500000000000000000000000010002100016299007191000000000002            2  01162990071910071900000002988710000000001N010719000000000000000000000000000000000000000000000000000000000000000100016299008857FERNANDO CESAR CARVALHO                 AVENIDA MARCONDES DE BRITO - 1340 AP.74             03509000                                                            000122
2SR. CAIXA, APOS O VENCIMENTO COBRAR 10% DE MULTA                                NAO RECEBER APOS 30 DIAS DO VENCIMENTO.                                                                                                                                                                                                         01071900000000000000107190000000000000       0090770900066125162990071910000123
100000000000000000000009077090006612500000000000000000000000010002100031082807191400000000002            2  01310828071910071900000003003180000000001N010719000000000000000000000000000000000000000000000000000000000000000100031082898880VANESSA DOS SANTOS NEIVA                RUA MONTE CASTELO - 296 AP.33 - BAIRRO A            11702720                                                            000125
2SR. CAIXA, APOS O VENCIMENTO COBRAR 10% DE MULTA                                NAO RECEBER APOS 30 DIAS DO VENCIMENTO.                                                                                                                                                                                                         01071900000000000000107190000000000000       0090770900066125310828071914000126
100000000000000000000009077090006612500000000000000000000000010002100065895307191400000000002            2  01658953071910071900000001828510000000001N010719000000000000000000000000000000000000000000000000000000000000000100065895304834MARINHO BARBOSA CUNHA                   AVENIDA EDU CHAVES - 639 AP.43 - PARQUE             02229000                                                            000128
2SR. CAIXA, APOS O VENCIMENTO COBRAR 10% DE MULTA                                NAO RECEBER APOS 30 DIAS DO VENCIMENTO.                                                                                                                                                                                                         01071900000000000000107190000000000000       0090770900066125658953071914000129
9                                                                                                                                                                                                                                                                                                                                                                                                         000130