01REMESSA01COBRANCA       00000000000004991781AIRES CONSTRUTORA E INCORPORAD237BRADESCO       010617        MX0000083                                                                                                                                                                                                                                                                                     000001
100000000000000000000009077090006612500000000000000000000000010002100000000007811800000000002            2  01000000781110061700000002073580000000001N010617000000000000000000000000000000000000000000000000000000000000000100094852294887GISELDA MENON                           RUA OTAVIO BARRETO - 105 - VILA SANTISTA            02560080                                                            000002
2SR. CAIXA, APOS O VENCIMENTO COBRAR 10% DE MULTA                                NAO RECEBER APOS 30 DIAS DO VENCIMENTO.                                                                                                                                                                                                         01061700000000000000106170000000000000       0090770900066125000000078118000003
100000000000000000000009077090006612500000000000000000000000010002100000000028233500000000002            2  01000002823310061700000003180210000000001N010617000000000000000000000000000000000000000000000000000000000000000100006485911820CELIO MANUEL  MELIM SANTO               RUA JUVENAL FERREIRA  - 85 AP.61 - VILA             03512040                                                            000005
2SR. CAIXA, APOS O VENCIMENTO COBRAR 10% DE MULTA                                NAO RECEBER APOS 30 DIAS DO VENCIMENTO.                                                                                                                                                                                                         01061700000000000000106170000000000000       0090770900066125000000282335000006
100000000000000000000009077090006612500000000000000000000000010002100000000059266000000000002            2  01000005926610061700000002771780000000001N010617000000000000000000000000000000000000000000000000000000000000000100004693857823NIVALDO BARTOLOMEU FERREIRA             MNS JOSE MARINONI  - 33 - SANTO AMARO -             04430350                                                            000008
2SR. CAIXA, APOS O VENCIMENTO COBRAR 10% DE MULTA                                NAO RECEBER APOS 30 DIAS DO VENCIMENTO.                                                                                                                                                                                                         01061700000000000000106170000000000000       0090770900066125000000592660000009
100000000000000000000009077090006612500000000000000000000000010002100000000079588P00000000002            2  01000007958810061700000002639360000000001N010617000000000000000000000000000000000000000000000000000000000000000100027993108853DALVA JESUS RODRIGUES CABRAL            RUA CRISTOVAO COLOMBO GONCALVES - 97 - C            04811050                                                            000011
2SR. CAIXA, APOS O VENCIMENTO COBRAR 10% DE MULTA                                NAO RECEBER APOS 30 DIAS DO VENCIMENTO.                                                                                                                                                                                                         01061700000000000000106170000000000000       009077090006612500000079588P000012
100000000000000000000009077090006612500000000000000000000000010002100000009981010900000000002            2  01000998101010061700000002741690000000001N010617000000000000000000000000000000000000000000000000000000000000000100000455495831PAULO HENRIQUE LOURENCO                 RUA FIGUEIRA  - 237 - CIDADE DAS FLORES             06184060                                                            000014
2SR. CAIXA, APOS O VENCIMENTO COBRAR 10% DE MULTA                                NAO RECEBER APOS 30 DIAS DO VENCIMENTO.                                                                                                                                                                                                         01061700000000000000106170000000000000       0090770900066125000099810109000015
100000000000000000000009077090006612500000000000000000000000010002100000019041919600000000002            2  01001904191910061700000003400090000000001N010617000000000000000000000000000000000000000000000000000000000000000100006140049857MARIA ALBANI DA SILVA EUSEBIO           RUA ORLANDO SEGALA - 108 - JARDIM ADRIAN            07135190                                                            000017
2SR. CAIXA, APOS O VENCIMENTO COBRAR 10% DE MULTA                                NAO RECEBER APOS 30 DIAS DO VENCIMENTO.                                                                                                                                                                                                         01061700000000000000106170000000000000       0090770900066125000190419196000018
100000000000000000000009077090006612500000000000000000000000010002100000031152931800000000002            2  01003115293110061700000003334150000000001N010617000000000000000000000000000000000000000000000000000000000000000100002324785897IZILDA NAPOLI                           RUA MONTE CASTELO - 295 AP.71 - AVIACAO             11702720                                                            000020
2SR. CAIXA, APOS O VENCIMENTO COBRAR 10% DE MULTA                                NAO RECEBER APOS 30 DIAS DO VENCIMENTO.                                                                                                                                                                                                         01061700000000000000106170000000000000       0090770900066125000311529318000021
100000000000000000000009077090006612500000000000000000000000010002100000036053136000000000002            2  01003605313610061700000003453900000000001N010617000000000000000000000000000000000000000000000000000000000000000100007768713826FATIMA LUZIA BIANCHI                    DR. OLIDAIR AMBROSIO - 1487 AP.03 - CENT            14160170                                                            000023
2SR. CAIXA, APOS O VENCIMENTO COBRAR 10% DE MULTA                                NAO RECEBER APOS 30 DIAS DO VENCIMENTO.                                                                                                                                                                                                         01061700000000000000106170000000000000       0090770900066125000360531360000024
100000000000000000000009077090006612500000000000000000000000010002100000038903639300000000002            2  01003890363910061700000003402620000000001N010617000000000000000000000000000000000000000000000000000000000000000100021716847800DANIELLE FAGUNDES DE A.MATOS            CONDE MOREIRA LIMA - 644 - JARDIM JABAQU            04384032                                                            000026
2SR. CAIXA, APOS O VENCIMENTO COBRAR 10% DE MULTA                                NAO RECEBER APOS 30 DIAS DO VENCIMENTO.                                                                                                                                                                                                         01061700000000000000106170000000000000       0090770900066125000389036393000027
100000000000000000000009077090006612500000000000000000000000010002100000041893842300000000002            2  01004189384210061700000002842700000000001N010617000000000000000000000000000000000000000000000000000000000000000100028196184808VANESSA NOGUEIRA CAMBUI DA SILVA        CRISTOVAO COLOMBO - 217 - VILA AMERICA -            09110160                                                            000029
2SR. CAIXA, APOS O VENCIMENTO COBRAR 10% DE MULTA                                NAO RECEBER APOS 30 DIAS DO VENCIMENTO.                                                                                                                                                                                                         01061700000000000000106170000000000000       0090770900066125000418938423000030
100000000000000000000009077090006612500000000000000000000000010002100000045804246500000000002            2  01004580424610061700000003004120000000001N010617000000000000000000000000000000000000000000000000000000000000000100005678057863FABIO MOREIRA CAMPOS                    RUA FLORENCIO DA SILVA - 284 - VILA LIBA            03738070                                                            000032
2SR. CAIXA, APOS O VENCIMENTO COBRAR 10% DE MULTA                                NAO RECEBER APOS 30 DIAS DO VENCIMENTO.                                                                                                                                                                                                         01061700000000000000106170000000000000       0090770900066125000458042465000033
100000000000000000000009077090006612500000000000000000000000010002100000046764347100000000002            2  01004676434710061700000003033450000000001N010617000000000000000000000000000000000000000000000000000000000000000100007784496885GUILHERME LEONARDO DO NASCIMENTO        COMENDADOR RUBENS RONCARE - 127 - PONTE             11530120                                                            000035
2SR. CAIXA, APOS O VENCIMENTO COBRAR 10% DE MULTA                                NAO RECEBER APOS 30 DIAS DO VENCIMENTO.                                                                                                                                                                                                         01061700000000000000106170000000000000       0090770900066125000467643471000036
100000000000000000000009077090006612500000000000000000000000010002100000047714448100000000002            2  01004771444810061700000002930760000000001N010617000000000000000000000000000000000000000000000000000000000000000100016348237885AILTON LORENA                           AVENIDA BRASILIA - 194 - BELA VISTA - SA            09180260                                                            000038
2SR. CAIXA, APOS O VENCIMENTO COBRAR 10% DE MULTA                                NAO RECEBER APOS 30 DIAS DO VENCIMENTO.                                                                                                                                                                                                         01061700000000000000106170000000000000       0090770900066125000477144481000039
100000000000000000000009077090006612500000000000000000000000010002100000051554852400000000002            2  01005155485210061700000002828520000000001N010617000000000000000000000000000000000000000000000000000000000000000100081218486953OSMAR DA COSTA                          RUA MONTE CASTELO - 295 AP.33 - AVIACAO             11702720                                                            000041
2SR. CAIXA, APOS O VENCIMENTO COBRAR 10% DE MULTA                                NAO RECEBER APOS 30 DIAS DO VENCIMENTO.                                                                                                                                                                                                         01061700000000000000106170000000000000       0090770900066125000515548524000042
100000000000000000000009077090006612500000000000000000000000010002100000054565155900000000002            2  01005456515510061700000003212680000000001N010617000000000000000000000000000000000000000000000000000000000000000100004981884850SILVIO PAULINO GONCALVES                MARIA DE CASTRO MESQUITA - 84 AP.103 BLO            07110040                                                            000044
2SR. CAIXA, APOS O VENCIMENTO COBRAR 10% DE MULTA                                NAO RECEBER APOS 30 DIAS DO VENCIMENTO.                                                                                                                                                                                                         01061700000000000000106170000000000000       0090770900066125000545651559000045
100000000000000000000009077090006612500000000000000000000000010002100000055565256100000000002            2  01005556525610061700000002108810000000001N010617000000000000000000000000000000000000000000000000000000000000000100019282546837FABIO LEANDRO DE FREITAS ASSIS          RUA BASSIM NAGIB TRABULSI - 97 - PONTA D            11030540                                                            000047
2SR. CAIXA, APOS O VENCIMENTO COBRAR 10% DE MULTA                                NAO RECEBER APOS 30 DIAS DO VENCIMENTO.                                                                                                                                                                                                         01061700000000000000106170000000000000       0090770900066125000555652561000048
100000000000000000000009077090006612500000000000000000000000010002100000059405660700000000002            2  01005940566010061700000002930690000000001N010617000000000000000000000000000000000000000000000000000000000000000100008423485811EDSON LUIZ NUNES                        RUA NOEMIA PEDROSO BUENO - 41 - JARDIM G            09360440                                                            000050
2SR. CAIXA, APOS O VENCIMENTO COBRAR 10% DE MULTA                                NAO RECEBER APOS 30 DIAS DO VENCIMENTO.                                                                                                                                                                                                         01061700000000000000106170000000000000       0090770900066125000594056607000051
100000000000000000000009077090006612500000000000000000000000010002100000064136165000000000002            2  01006413616510061700000003391160000000001N010617000000000000000000000000000000000000000000000000000000000000000100003010502877GIZELA VIEIRA BARROS                    RUA GIACOMO DALCIN - 157 - MAUA - SAO CA            09580350                                                            000053
2SR. CAIXA, APOS O VENCIMENTO COBRAR 10% DE MULTA                                NAO RECEBER APOS 30 DIAS DO VENCIMENTO.                                                                                                                                                                                                         01061700000000000000106170000000000000       0090770900066125000641361650000054
100000000000000000000009077090006612500000000000000000000000010002100000069136670P00000000002            2  01006913667010061700000002761330000000001N010617000000000000000000000000000000000000000000000000000000000000000100012111060801CLAUDIA CRISTINA CRELIS COSTA           RUA RUI BARBOSA - 1736 AP.1533 - VILA SA            19015001                                                            000056
2SR. CAIXA, APOS O VENCIMENTO COBRAR 10% DE MULTA                                NAO RECEBER APOS 30 DIAS DO VENCIMENTO.                                                                                                                                                                                                         01061700000000000000106170000000000000       009077090006612500069136670P000057
100000000000000000000009077090006612500000000000000000000000010002100000070056271100000000002            2  01007005627110061700000002658820000000001N010617000000000000000000000000000000000000000000000000000000000000000100009777281889CARLITA DE FIGUEIREDO CARVALHO          AVENIDA ALBERTO DE ALMEIDA VINHAS - 4462            11701350                                                            000059
2SR. CAIXA, APOS O VENCIMENTO COBRAR 10% DE MULTA                                NAO RECEBER APOS 30 DIAS DO VENCIMENTO.                                                                                                                                                                                                         01061700000000000000106170000000000000       0090770900066125000700562711000060
100000000000000000000009077090006612500000000000000000000000010002100000073076974400000000002            2  01007307697410061700000003157540000000001N010617000000000000000000000000000000000000000000000000000000000000000100004213020894ELIETE DRUGOVICH DE LIMA                RUA OSVALDO CRUZ - 141 AP.144-B - SANTA             09541270                                                            000062
2SR. CAIXA, APOS O VENCIMENTO COBRAR 10% DE MULTA                                NAO RECEBER APOS 30 DIAS DO VENCIMENTO.                                                                                                                                                                                                         01061700000000000000106170000000000000       0090770900066125000730769744000063
100000000000000000000009077090006612500000000000000000000000010002100000074467176300000000002            2  01007446717610061700000004685980000000001N010617000000000000000000000000000000000000000000000000000000000000000100085839817872MAURO CORREIA MARTINS                   RUA PROFESSOR JOSE AZEVEDO MINHOTO - 72             06114000                                                            000065
2SR. CAIXA, APOS O VENCIMENTO COBRAR 10% DE MULTA                                NAO RECEBER APOS 30 DIAS DO VENCIMENTO.                                                                                                                                                                                                         01061700000000000000106170000000000000       0090770900066125000744671763000066
100000000000000000000009077090006612500000000000000000000000010002100000074987176000000000002            2  01007498717610061700000002409930000000001N010617000000000000000000000000000000000000000000000000000000000000000100085839817872MAURO CORREIA MARTINS                   RUA PROFESSOR JOSE AZEVEDO MINHOTO - 72             06114000                                                            000068
2SR. CAIXA, APOS O VENCIMENTO COBRAR 10% DE MULTA                                NAO RECEBER APOS 30 DIAS DO VENCIMENTO.                                                                                                                                                                                                         01061700000000000000106170000000000000       0090770900066125000749871760000069
100000000000000000000009077090006612500000000000000000000000010002100000078723480400000000002            2  01007872348010061700000002152170000000001N010617000000000000000000000000000000000000000000000000000000000000000100043122850800ANTONIO JOAQUIM GOES                    ANTONIO DOAS DA SILVA - 412 - VILA AMALI            02618110                                                            000071
2SR. CAIXA, APOS O VENCIMENTO COBRAR 10% DE MULTA                                NAO RECEBER APOS 30 DIAS DO VENCIMENTO.                                                                                                                                                                                                         01061700000000000000106170000000000000       0090770900066125000787234804000072
100000000000000000000009077090006612500000000000000000000000010002100000086428088100000000002            2  01008642808810061700000002825660000000001N010617000000000000000000000000000000000000000000000000000000000000000100003865776841FRANCISCO JOSE ROCCO                    RUA FABIO JOSE BEZERRA - 130 AP.86 - PAR            03805000                                                            000074
2SR. CAIXA, APOS O VENCIMENTO COBRAR 10% DE MULTA                                NAO RECEBER APOS 30 DIAS DO VENCIMENTO.                                                                                                                                                                                                         01061700000000000000106170000000000000       0090770900066125000864280881000075
100000000000000000000009077090006612500000000000000000000000010002100000091478393600000000002            2  01009147839310061700000002519840000000001N010617000000000000000000000000000000000000000000000000000000000000000100028309524803DEISE RIBEIRO BARBOSA                   RUA CANDIDO JOSE DE ANDRADE - 173 - ERME            03807030                                                            000077
2SR. CAIXA, APOS O VENCIMENTO COBRAR 10% DE MULTA                                NAO RECEBER APOS 30 DIAS DO VENCIMENTO.                                                                                                                                                                                                         01061700000000000000106170000000000000       0090770900066125000914783936000078
100000000000000000000009077090006612500000000000000000000000010002100000093488695200000000002            2  01009348869510061700000002990760000000001N010617000000000000000000000000000000000000000000000000000000000000000100011277908893JOSE AILTON LOPES DE AZEVEDO            RUA MAESTRO JOAO SEPE - 19 - JARDIM MARI            04181030                                                            000080
2SR. CAIXA, APOS O VENCIMENTO COBRAR 10% DE MULTA                                NAO RECEBER APOS 30 DIAS DO VENCIMENTO.                                                                                                                                                                                                         01061700000000000000106170000000000000       0090770900066125000934886952000081
100000000000000000000009077090006612500000000000000000000000010002100000097778999300000000002            2  01009777899910061700000002255430000000001N010617000000000000000000000000000000000000000000000000000000000000000100025215106886KLEBER LUIZ DOS SANTOS                  RUA CAPITAO JOSE MEIRELES - 47 - CAPITAO            11330180                                                            000083
2SR. CAIXA, APOS O VENCIMENTO COBRAR 10% DE MULTA                                NAO RECEBER APOS 30 DIAS DO VENCIMENTO.                                                                                                                                                                                                         01061700000000000000106170000000000000       0090770900066125000977789993000084
100000000000000000000009077090006612500000000000000000000000010002100001014693103900000000002            2  01101469310310061700000002519200000000001N010617000000000000000000000000000000000000000000000000000000000000000100090206789815NEREIDE RODRIGUES FERREIRA              AVENIDA PADRE ESTANISLAU DE CAMPOS - 205            03590060                                                            000086
2SR. CAIXA, APOS O VENCIMENTO COBRAR 10% DE MULTA                                NAO RECEBER APOS 30 DIAS DO VENCIMENTO.                                                                                                                                                                                                         01061700000000000000106170000000000000       0090770900066125010146931039000087
100000000000000000000009077090006612500000000000000000000000010002100001057397107600000000002            2  01105739710710061700000002782390000000001N010617000000000000000000000000000000000000000000000000000000000000000100023027012835RUBEN ALBERTO DIAZ                      RUA MONTE CASTELO - 296 AP.104 - AVIACAO            11702720                                                            000089
2SR. CAIXA, APOS O VENCIMENTO COBRAR 10% DE MULTA                                NAO RECEBER APOS 30 DIAS DO VENCIMENTO.                                                                                                                                                                                                         01061700000000000000106170000000000000       0090770900066125010573971076000090
100000000000000000000009077090006612500000000000000000000000010002100010872100110300000000002            2  01108721001110061700000002948790000000001N010617000000000000000000000000000000000000000000000000000000000000000100029150742833ANA DEISE SANTOS DE ALMEIDA             RUA MONTE CASTELO - 296 AP.121 - AVIACAO            11702720                                                            000092
2SR. CAIXA, APOS O VENCIMENTO COBRAR 10% DE MULTA                                NAO RECEBER APOS 30 DIAS DO VENCIMENTO.                                                                                                                                                                                                         01061700000000000000106170000000000000       0090770900066125108721001103000093
100000000000000000000009077090006612500000000000000000000000010002100010974101111P00000000002            2  01109741011110061700000002428870000000001N010617000000000000000000000000000000000000000000000000000000000000000100000811752801SERGIO BUENO DA SILVA                   RUA MONTE CASTELO - 262 AP.75 - AVIACAO             11702720                                                            000095
2SR. CAIXA, APOS O VENCIMENTO COBRAR 10% DE MULTA                                NAO RECEBER APOS 30 DIAS DO VENCIMENTO.                                                                                                                                                                                                         01061700000000000000106170000000000000       009077090006612510974101111P000096
100000000000000000000009077090006612500000000000000000000000010002100011280104115400000000002            2  01112801041110061700000002320300000000001N010617000000000000000000000000000000000000000000000000000000000000000100027100951810MARCIA RAMALHO RODRIGUES                RUA MONTE CASTELO - 296 AP.82 - AVIACAO             11702720                                                            000098
2SR. CAIXA, APOS O VENCIMENTO COBRAR 10% DE MULTA                                NAO RECEBER APOS 30 DIAS DO VENCIMENTO.                                                                                                                                                                                                         01061700000000000000106170000000000000       0090770900066125112801041154000099
100000000000000000000009077090006612500000000000000000000000010002100011570107118700000000002            2  01115701071110061700000003087580000000001N010617000000000000000000000000000000000000000000000000000000000000000100018344803888MARCELO BERNARDO                        RUA ESTONIA - 06 - INTERLAGOS - SAO PAUL            04785140                                                            000101
2SR. CAIXA, APOS O VENCIMENTO COBRAR 10% DE MULTA                                NAO RECEBER APOS 30 DIAS DO VENCIMENTO.                                                                                                                                                                                                         01061700000000000000106170000000000000       0090770900066125115701071187000102
100000000000000000000009077090006612500000000000000000000000010002100012580115128000000000002            2  01125801151210061700000002302540000000001N010617000000000000000000000000000000000000000000000000000000000000000100030210501820ROGERIO MUNIZ DA CUNHA                  RUA MONTE CASTELO - 296 AP.34 - AVIACAO             11702720                                                            000104
2SR. CAIXA, APOS O VENCIMENTO COBRAR 10% DE MULTA                                NAO RECEBER APOS 30 DIAS DO VENCIMENTO.                                                                                                                                                                                                         01061700000000000000106170000000000000       0090770900066125125801151280000105
100000000000000000000009077090006612500000000000000000000000010002100012788117130100000000002            2  01127881171310061700000004328730000000001N010617000000000000000000000000000000000000000000000000000000000000000100004004328896VANDERLEI  MARTINS DE ALMEIDA           RUA MONSENHOR TABOSA - 03 - PARQUE CISPE            03819300                                                            000107
2SR. CAIXA, APOS O VENCIMENTO COBRAR 10% DE MULTA                                NAO RECEBER APOS 30 DIAS DO VENCIMENTO.                                                                                                                                                                                                         01061700000000000000106170000000000000       0090770900066125127881171301000108
100000000000000000000009077090006612500000000000000000000000010002100013223120135800000000002            2  01132231201310061700000002956660000000001N010617000000000000000000000000000000000000000000000000000000000000000100005133053860VICENTE ARCIPRETE JUNIOR                RUA JOSE SIMOES FERREIRA FILHO - 80 - JA            06040090                                                            000110
2SR. CAIXA, APOS O VENCIMENTO COBRAR 10% DE MULTA                                NAO RECEBER APOS 30 DIAS DO VENCIMENTO.                                                                                                                                                                                                         01061700000000000000106170000000000000       0090770900066125132231201358000111
100000000000000000000009077090006612500000000000000000000000010002100001381892141900000000002            2  01138189214110061700000000719140000000001N010617000000000000000000000000000000000000000000000000000000000000000100056660235868JOSE DA SILVA                           RUA MONTE CASTELO - 296 AP.32 - AVIACAO             11702720                                                            000113
2SR. CAIXA, APOS O VENCIMENTO COBRAR 10% DE MULTA                                NAO RECEBER APOS 30 DIAS DO VENCIMENTO.                                                                                                                                                                                                         01061700000000000000106170000000000000       0090770900066125013818921419000114
100000000000000000000009077090006612500000000000000000000000010002100013898124142200000000002            2  01138981241410061700000002611680000000001N010617000000000000000000000000000000000000000000000000000000000000000100016339432832ALEX MONTEIRO DA SILVA                  RUA IVA MOURA LIMA - 04 - JARDIM MIRNA I            04855540                                                            000116
2SR. CAIXA, APOS O VENCIMENTO COBRAR 10% DE MULTA                                NAO RECEBER APOS 30 DIAS DO VENCIMENTO.                                                                                                                                                                                                         01061700000000000000106170000000000000       0090770900066125138981241422000117
100000000000000000000009077090006612500000000000000000000000010002100013996125143600000000002            2  01139961251410061700000002667010000000001N010617000000000000000000000000000000000000000000000000000000000000000100031803864877ELEILSON FELIPPE SANTOS                 RUA SANTA GREGORIA - 193 - CIDADE DUTRA             04806030                                                            000119
2SR. CAIXA, APOS O VENCIMENTO COBRAR 10% DE MULTA                                NAO RECEBER APOS 30 DIAS DO VENCIMENTO.                                                                                                                                                                                                         01061700000000000000106170000000000000       0090770900066125139961251436000120
100000000000000000000009077090006612500000000000000000000000010002100014422127147P00000000002            2  01144221271410061700000001835340000000001N010617000000000000000000000000000000000000000000000000000000000000000100026032632857MARILA LOPES PEREIRA                    RUA ESTRADA DO M BOI MIRIM - 820 BL.05 A            04905000                                                            000122
2SR. CAIXA, APOS O VENCIMENTO COBRAR 10% DE MULTA                                NAO RECEBER APOS 30 DIAS DO VENCIMENTO.                                                                                                                                                                                                         01061700000000000000106170000000000000       009077090006612514422127147P000123
100000000000000000000009077090006612500000000000000000000000010002100014520128148300000000002            2  01145201281410061700000003178260000000001N010617000000000000000000000000000000000000000000000000000000000000000100063064537849ANTONIO APARECIDO DA SILVA DESTEFANO    RUA PROFESSOR TEODORO BRAGA - 46 - VILA             02966020                                                            000125
2SR. CAIXA, APOS O VENCIMENTO COBRAR 10% DE MULTA                                NAO RECEBER APOS 30 DIAS DO VENCIMENTO.                                                                                                                                                                                                         01061700000000000000106170000000000000       0090770900066125145201281483000126
100000000000000000000009077090006612500000000000000000000000010002100014854130152600000000002            2  01148541301510061700000003045720000000001N010617000000000000000000000000000000000000000000000000000000000000000100010107711834VALDEMAR FECCHIO                        RUA DOUTOR MARTINS DE OLIVEIRA - 529 AP.            05638030                                                            000128
2SR. CAIXA, APOS O VENCIMENTO COBRAR 10% DE MULTA                                NAO RECEBER APOS 30 DIAS DO VENCIMENTO.                                                                                                                                                                                                         01061700000000000000106170000000000000       0090770900066125148541301526000129
100000000000000000000009077090006612500000000000000000000000010002100015198131156700000000002            2  01151981311510061700000003918150000000001N010617000000000000000000000000000000000000000000000000000000000000000100003330791837MARLI DA SILVA BARBOSA                  RUA GLICERIO CERQUEIRA LEITE - 151 - JAR            03675040                                                            000131
2SR. CAIXA, APOS O VENCIMENTO COBRAR 10% DE MULTA                                NAO RECEBER APOS 30 DIAS DO VENCIMENTO.                                                                                                                                                                                                         01061700000000000000106170000000000000       0090770900066125151981311567000132
100000000000000000000009077090006612500000000000000000000000010002100015399132158P00000000002            2  01153991321510061700000001592680000000001N010617000000000000000000000000000000000000000000000000000000000000000100008931031874MARIA MARINHO DE OLIVEIRA               AVENIDA 9 DE JULHO - 1854 AP.81 - BELA V            01312001                                                            000134
2SR. CAIXA, APOS O VENCIMENTO COBRAR 10% DE MULTA                                NAO RECEBER APOS 30 DIAS DO VENCIMENTO.                                                                                                                                                                                                         01061700000000000000106170000000000000       009077090006612515399132158P000135
100000000000000000000009077090006612500000000000000000000000010002100015604134160500000000002            2  01156041341610061700000001850400000000001N010617000000000000000000000000000000000000000000000000000000000000000100005920579846SONIA MARIA VALDO POLLO                 RUA PALMIRA CERVI BARBARO - 797 - CIDADE            13214370                                                            000137
2SR. CAIXA, APOS O VENCIMENTO COBRAR 10% DE MULTA                                NAO RECEBER APOS 30 DIAS DO VENCIMENTO.                                                                                                                                                                                                         01061700000000000000106170000000000000       0090770900066125156041341605000138
100000000000000000000009077090006612500000000000000000000000010002100017884137181600000000002            2  01178841371810061700000002782160000000001N010617000000000000000000000000000000000000000000000000000000000000000100002494107881CIRO FRANCISCO MARCHI DURIGON           RUA MONTE CASTELO - 262 AP.115 - AVIACAO            11702720                                                            000140
2SR. CAIXA, APOS O VENCIMENTO COBRAR 10% DE MULTA                                NAO RECEBER APOS 30 DIAS DO VENCIMENTO.                                                                                                                                                                                                         01061700000000000000106170000000000000       0090770900066125178841371816000141
100000000000000000000009077090006612500000000000000000000000010002100019041150190200000000002            2  01190411501910061700000002735010000000001N010617000000000000000000000000000000000000000000000000000000000000000100007002345869DOMINGOS DE BRITO GALVAO                RUA MONTE CASTELO - 262 AP.44 - AVIACAO             11702720                                                            000143
2SR. CAIXA, APOS O VENCIMENTO COBRAR 10% DE MULTA                                NAO RECEBER APOS 30 DIAS DO VENCIMENTO.                                                                                                                                                                                                         01061700000000000000106170000000000000       0090770900066125190411501902000144
100000000000000000000009077090006612500000000000000000000000010002100019694155195P00000000002            2  01196941551910061700000001139280000000001N010617000000000000000000000000000000000000000000000000000000000000000100009346863862NELSON DE SOUZA SANTOS                  RUA PRIMEIRA CRUZ - 90 - PARQUE INDEPEND            03236060                                                            000146
2SR. CAIXA, APOS O VENCIMENTO COBRAR 10% DE MULTA                                NAO RECEBER APOS 30 DIAS DO VENCIMENTO.                                                                                                                                                                                                         01061700000000000000106170000000000000       009077090006612519694155195P000147
100000000000000000000009077090006612500000000000000000000000010002100020047157198000000000002            2  01200471571910061700000002636530000000001N010617000000000000000000000000000000000000000000000000000000000000000100016299008857FERNANDO CESAR CARVALHO                 AVENIDA MARCONDES DE BRITO - 1340 AP.74             03509000                                                            000149
2SR. CAIXA, APOS O VENCIMENTO COBRAR 10% DE MULTA                                NAO RECEBER APOS 30 DIAS DO VENCIMENTO.                                                                                                                                                                                                         01061700000000000000106170000000000000       0090770900066125200471571980000150
100000000000000000000009077090006612500000000000000000000000010002100002251675219600000000002            2  01225167521910061700000002649320000000001N010617000000000000000000000000000000000000000000000000000000000000000100031082898880VANESSA DOS SANTOS NEIVA                RUA MONTE CASTELO - 296 AP.33 - BAIRRO A            11702720                                                            000152
2SR. CAIXA, APOS O VENCIMENTO COBRAR 10% DE MULTA                                NAO RECEBER APOS 30 DIAS DO VENCIMENTO.                                                                                                                                                                                                         01061700000000000000106170000000000000       0090770900066125022516752196000153
100000000000000000000009077090006612500000000000000000000000010002100026872143250000000000002            2  01268721432510061700000001613070000000001N010617000000000000000000000000000000000000000000000000000000000000000100065895304834MARINHO BARBOSA CUNHA                   AVENIDA EDU CHAVES - 639 AP.43 - PARQUE             02229000                                                            000155
2SR. CAIXA, APOS O VENCIMENTO COBRAR 10% DE MULTA                                NAO RECEBER APOS 30 DIAS DO VENCIMENTO.                                                                                                                                                                                                         01061700000000000000106170000000000000       0090770900066125268721432500000156
9                                                                                                                                                                                                                                                                                                                                                                                                         000157