01REMESSA01COBRANCA       00000000000008017025HB SANTOS CONSTRUTORA E INCORP237BRADESCO       120319        MX0000075                                                                                                                                                                                                                                                                                     000001
100000000000000000000009033990000627000000000000000000000000010002020025035103191200000000002            2  01250351031924031900000002014580000000001N110319000000000000000000000000000000000000000000000000000000000000000100025035170802WANDERSON LUIS DE CARVALHO              RUA JOAQUIM GONCALVES ROCHA - 302 - JARD            02859030                                                            000002
2SR. CAIXA, APOS O VENCIMENTO COBRAR 2% DE MULTA                                 NAO RECEBER APOS 30 DIAS DO VENCIMENTO.                                                                                                                                                                                                         12031900000000000001203190000000000000       0090339900006270250351031912000003
100000000000000000000009033990000627000000000000000000000000010002020007294303191P00000000002            2  01072943031924031900000002709650000000001N110319000000000000000000000000000000000000000000000000000000000000000100007294351805CLAUDENIR APARECIDO VACARI              RUA CARLOS JOSE BORSTENS - 50 AP.93 - AV            11702750                                                            000005
2SR. CAIXA, APOS O VENCIMENTO COBRAR 2% DE MULTA                                 NAO RECEBER APOS 30 DIAS DO VENCIMENTO.                                                                                                                                                                                                         12031900000000000001203190000000000000       009033990000627007294303191P000006
100000000000000000000009033990000627000000000000000000000000010002020042976103191P00000000002            2  01429761031924031900000002738080000000001N110319000000000000000000000000000000000000000000000000000000000000000100042976111634ACACIO TOSCANO BONDANCA                 RUA COMENDADOR JACOMO ANTONIO LA SELVA -            12946797                                                            000008
2SR. CAIXA, APOS O VENCIMENTO COBRAR 2% DE MULTA                                 NAO RECEBER APOS 30 DIAS DO VENCIMENTO.                                                                                                                                                                                                         12031900000000000001203190000000000000       009033990000627042976103191P000009
100000000000000000000009033990000627000000000000000000000000010002020035438003191300000000002            2  01354380031924031900000002312450000000001N110319000000000000000000000000000000000000000000000000000000000000000100035438022836ALESSANDRO FARACO DOS SANTOS            RUA PEDRO POMAR  - 145 - JARDIM ELISA MA            02875020                                                            000011
2SR. CAIXA, APOS O VENCIMENTO COBRAR 2% DE MULTA                                 NAO RECEBER APOS 30 DIAS DO VENCIMENTO.                                                                                                                                                                                                         12031900000000000001203190000000000000       0090339900006270354380031913000012
100000000000000000000009033990000627000000000000000000000000010002020007525003191500000000002            2  01075250031924031900000003030850000000001N110319000000000000000000000000000000000000000000000000000000000000000100007525032866FERNANDO RIBEIRO                        RUA ALDO COLI - 539 - VILA MIRIM - PRAIA            11704760                                                            000014
2SR. CAIXA, APOS O VENCIMENTO COBRAR 2% DE MULTA                                 NAO RECEBER APOS 30 DIAS DO VENCIMENTO.                                                                                                                                                                                                         12031900000000000001203190000000000000       0090339900006270075250031915000015
100000000000000000000009033990000627000000000000000000000000010002020005071403191000000000002            2  01050714031924031900000002658630000000001N110319000000000000000000000000000000000000000000000000000000000000000100005071481855ERIBALDO SANTANA CARVALHO               RUA HONDURAS - 477 - PARQUE DAS AMERICAS            09351070                                                            000017
2SR. CAIXA, APOS O VENCIMENTO COBRAR 2% DE MULTA                                 NAO RECEBER APOS 30 DIAS DO VENCIMENTO.                                                                                                                                                                                                         12031900000000000001203190000000000000       0090339900006270050714031910000018
100000000000000000000009033990000627000000000000000000000000010002020002841703191400000000002            2  01028417031924031900000002487390000000001N110319000000000000000000000000000000000000000000000000000000000000000100002841756416LUCIANA PINHEIRO DE ASSIS NUNES         RUA RIO ACIMA - 81 - RIACHO GRANDE - SAO            09830100                                                            000020
2SR. CAIXA, APOS O VENCIMENTO COBRAR 2% DE MULTA                                 NAO RECEBER APOS 30 DIAS DO VENCIMENTO.                                                                                                                                                                                                         12031900000000000001203190000000000000       0090339900006270028417031914000021
100000000000000000000009033990000627000000000000000000000000010002020084302003191300000000002            2  01843020031924031900000002499330000000001N110319000000000000000000000000000000000000000000000000000000000000000100084302097868FAUSTO TADEU VILOR                      RUA ANTONIO TAVARES - 466 - BAIRRO CAMBU            01542010                                                            000023
2SR. CAIXA, APOS O VENCIMENTO COBRAR 2% DE MULTA                                 NAO RECEBER APOS 30 DIAS DO VENCIMENTO.                                                                                                                                                                                                         12031900000000000001203190000000000000       0090339900006270843020031913000024
100000000000000000000009033990000627000000000000000000000000010002020028804203191300000000002            2  01288042031924031900000002455600000000001N110319000000000000000000000000000000000000000000000000000000000000000100028804202882GILBERTO FABIANO CABRAL DE CAMARGO      RUA CARLOS JOSE BORSTENS - 50 AP.44 - AV            11702750                                                            000026
2SR. CAIXA, APOS O VENCIMENTO COBRAR 2% DE MULTA                                 NAO RECEBER APOS 30 DIAS DO VENCIMENTO.                                                                                                                                                                                                         12031900000000000001203190000000000000       0090339900006270288042031913000027
100000000000000000000009033990000627000000000000000000000000010002020000991703191600000000002            2  01009917031924031900000002396760000000001N110319000000000000000000000000000000000000000000000000000000000000000100000991748808JAILSON BORGES DE ANDRADE               RUA IPIOBUNA - 45 - JARDIM CUMBICA - GUA            07240040                                                            000029
2SR. CAIXA, APOS O VENCIMENTO COBRAR 2% DE MULTA                                 NAO RECEBER APOS 30 DIAS DO VENCIMENTO.                                                                                                                                                                                                         12031900000000000001203190000000000000       0090339900006270009917031916000030
100000000000000000000009033990000627000000000000000000000000010002020092180203191300000000002            2  01921802031924031900000003267700000000001N110319000000000000000000000000000000000000000000000000000000000000000100092180299834LUIS ROBERTO DE SA DUARTE               RUA TEBAS - 296 AP.84 BLOCO 2 CE - JARDI            04634031                                                            000032
2SR. CAIXA, APOS O VENCIMENTO COBRAR 2% DE MULTA                                 NAO RECEBER APOS 30 DIAS DO VENCIMENTO.                                                                                                                                                                                                         12031900000000000001203190000000000000       0090339900006270921802031913000033
100000000000000000000009033990000627000000000000000000000000010002020022151603191200000000002            2  01221516031924031900000002382870000000001N110319000000000000000000000000000000000000000000000000000000000000000100022151666816SAMIR LIMA DE ARAUJO                    AVENIDA GUARAPIRANGA - 2616 AP.42 BLOCO1            04902005                                                            000035
2SR. CAIXA, APOS O VENCIMENTO COBRAR 2% DE MULTA                                 NAO RECEBER APOS 30 DIAS DO VENCIMENTO.                                                                                                                                                                                                         12031900000000000001203190000000000000       0090339900006270221516031912000036
100000000000000000000009033990000627000000000000000000000000010002020022313103192200000000002            2  01223131031926031900000001837550000000001N110319000000000000000000000000000000000000000000000000000000000000000100022313116824ROSA MARIA BRITO DA SILVA               RUA SERVIDAO DE SAO MARCOS - 113 - JARDI            04930300                                                            000038
2SR. CAIXA, APOS O VENCIMENTO COBRAR 2% DE MULTA                                 NAO RECEBER APOS 30 DIAS DO VENCIMENTO.                                                                                                                                                                                                         12031900000000000001203190000000000000       0090339900006270223131031922000039
100000000000000000000009033990000627000000000000000000000000010002020027538003191600000000002            2  01275380031926031900000001843950000000001N110319000000000000000000000000000000000000000000000000000000000000000100027538087249MARA LUCIA MENEZES DA COSTA             RUA LEILA  - 183 - ITAQUERA - SAO PAULO             08240020                                                            000041
2SR. CAIXA, APOS O VENCIMENTO COBRAR 2% DE MULTA                                 NAO RECEBER APOS 30 DIAS DO VENCIMENTO.                                                                                                                                                                                                         12031900000000000001203190000000000000       0090339900006270275380031916000042
100000000000000000000009033990000627000000000000000000000000010002020031278403191200000000002            2  01312784031924031900000002301910000000001N110319000000000000000000000000000000000000000000000000000000000000000100031278411836JEFFERSON DE PIERI PIRES ZAMUNER        RUA MANOEL ARCE - 277 - PARQUE BANCARIO             03922150                                                            000044
2SR. CAIXA, APOS O VENCIMENTO COBRAR 2% DE MULTA                                 NAO RECEBER APOS 30 DIAS DO VENCIMENTO.                                                                                                                                                                                                         12031900000000000001203190000000000000       0090339900006270312784031912000045
100000000000000000000009033990000627000000000000000000000000010002020019185703192200000000002            2  01191857031926031900000001678030000000001N110319000000000000000000000000000000000000000000000000000000000000000100019185769800AGUINALDO PESSOA DE LIMA                RUA JANUARIO ZINGARO - 252 AP.303 BL.04             05794300                                                            000047
2SR. CAIXA, APOS O VENCIMENTO COBRAR 2% DE MULTA                                 NAO RECEBER APOS 30 DIAS DO VENCIMENTO.                                                                                                                                                                                                         12031900000000000001203190000000000000       0090339900006270191857031922000048
100000000000000000000009033990000627000000000000000000000000010002020033303603192300000000002            2  01333036031926031900000001807390000000001N110319000000000000000000000000000000000000000000000000000000000000000100033303645809JESSICA DA SILVA FREITAS                RUA ARILDO VALADAO - 120 - JARDIM GUAEMB            04814600                                                            000050
2SR. CAIXA, APOS O VENCIMENTO COBRAR 2% DE MULTA                                 NAO RECEBER APOS 30 DIAS DO VENCIMENTO.                                                                                                                                                                                                         12031900000000000001203190000000000000       0090339900006270333036031923000051
100000000000000000000009033990000627000000000000000000000000010002020004824403192200000000002            2  01048244031926031900000001821690000000001N110319000000000000000000000000000000000000000000000000000000000000000100004824443806ROSIMEIRE CLARA FERREIRA REZENDE        RUA JOAQUIM DE OLIVEIRA FREITAS - 912 AP            05133000                                                            000053
2SR. CAIXA, APOS O VENCIMENTO COBRAR 2% DE MULTA                                 NAO RECEBER APOS 30 DIAS DO VENCIMENTO.                                                                                                                                                                                                         12031900000000000001203190000000000000       0090339900006270048244031922000054
100000000000000000000009033990000627000000000000000000000000010002020006422603191000000000002            2  01064226031924031900000002493020000000001N110319000000000000000000000000000000000000000000000000000000000000000100006422607881GERALDO ALVES DA SILVA                  RUA CARLOS JOSE BORSTENS - 50 AP.14 - AV            11702750                                                            000056
2SR. CAIXA, APOS O VENCIMENTO COBRAR 2% DE MULTA                                 NAO RECEBER APOS 30 DIAS DO VENCIMENTO.                                                                                                                                                                                                         12031900000000000001203190000000000000       0090339900006270064226031910000057
100000000000000000000009033990000627000000000000000000000000010002020033877103192000000000002            2  01338771031926031900000001694490000000001N110319000000000000000000000000000000000000000000000000000000000000000100033877129870HELDER FERREIRA VIANA                   RUA TUPI - 254 - VILA TUPI - PRAIA GRAND            11703260                                                            000059
2SR. CAIXA, APOS O VENCIMENTO COBRAR 2% DE MULTA                                 NAO RECEBER APOS 30 DIAS DO VENCIMENTO.                                                                                                                                                                                                         12031900000000000001203190000000000000       0090339900006270338771031920000060
100000000000000000000009033990000627000000000000000000000000010002020028290703191600000000002            2  01282907031926031900000001561670000000001N110319000000000000000000000000000000000000000000000000000000000000000100028290719809VANESSA GIANGARRELLI PEREIRA            RUA BARINEL - 72 - JARDIM COTCHING - SAO            03462130                                                            000062
2SR. CAIXA, APOS O VENCIMENTO COBRAR 2% DE MULTA                                 NAO RECEBER APOS 30 DIAS DO VENCIMENTO.                                                                                                                                                                                                         12031900000000000001203190000000000000       0090339900006270282907031916000063
100000000000000000000009033990000627000000000000000000000000010002020087573003192P00000000002            2  01875730031926031900000001705340000000001N110319000000000000000000000000000000000000000000000000000000000000000100087573059604VANDERLEY DE ASSIS                      RUA ROMEU ALBANI - 268 - JARDIM PARQUE R            13803810                                                            000065
2SR. CAIXA, APOS O VENCIMENTO COBRAR 2% DE MULTA                                 NAO RECEBER APOS 30 DIAS DO VENCIMENTO.                                                                                                                                                                                                         12031900000000000001203190000000000000       009033990000627087573003192P000066
100000000000000000000009033990000627000000000000000000000000010002020010825503191900000000002            2  01108255031926031900000001779630000000001N110319000000000000000000000000000000000000000000000000000000000000000100010825513847JOSE APARECIDO PEREIRA                  RUA GENERAL OSORIO - 305 - JARDIM TRINTA            11515130                                                            000068
2SR. CAIXA, APOS O VENCIMENTO COBRAR 2% DE MULTA                                 NAO RECEBER APOS 30 DIAS DO VENCIMENTO.                                                                                                                                                                                                         12031900000000000001203190000000000000       0090339900006270108255031919000069
100000000000000000000009033990000627000000000000000000000000010002020038818503191900000000002            2  01388185031926031900000001810040000000001N110319000000000000000000000000000000000000000000000000000000000000000100038818572814MAURICIUS ALEXANDRE ESTEVAM NABOR       RUA RAUL SERAPIAO BARROSO - 379 - ESPLAN            11340330                                                            000071
2SR. CAIXA, APOS O VENCIMENTO COBRAR 2% DE MULTA                                 NAO RECEBER APOS 30 DIAS DO VENCIMENTO.                                                                                                                                                                                                         12031900000000000001203190000000000000       0090339900006270388185031919000072
100000000000000000000009033990000627000000000000000000000000010002020039115103192900000000002            2  01391151031926031900000002193690000000001N110319000000000000000000000000000000000000000000000000000000000000000100039115139840LAIS CRISTINA RIBEIRO ANDO              RUA PERU - 769 AP.17 - VILA GUILHERMINA             11702250                                                            000074
2SR. CAIXA, APOS O VENCIMENTO COBRAR 2% DE MULTA                                 NAO RECEBER APOS 30 DIAS DO VENCIMENTO.                                                                                                                                                                                                         12031900000000000001203190000000000000       0090339900006270391151031929000075
100000000000000000000009033990000627000000000000000000000000010002020029617503191900000000002            2  01296175031924031900000002446990000000001N110319000000000000000000000000000000000000000000000000000000000000000100029617510553MARILENE SOUZA DE OLIVEIRA              AVENIDA BRASIL - 393 AP.09 - PARQUE DAS             09210280                                                            000077
2SR. CAIXA, APOS O VENCIMENTO COBRAR 2% DE MULTA                                 NAO RECEBER APOS 30 DIAS DO VENCIMENTO.                                                                                                                                                                                                         12031900000000000001203190000000000000       0090339900006270296175031919000078
100000000000000000000009033990000627000000000000000000000000010002020000593203191900000000002            2  01005932031924031900000002683740000000001N110319000000000000000000000000000000000000000000000000000000000000000100000593293860WALTER HELIO BARBOSA FILHO              AVENIDA ANTONIO FREDERICO OZANAN - 9500             13214206                                                            000080
2SR. CAIXA, APOS O VENCIMENTO COBRAR 2% DE MULTA                                 NAO RECEBER APOS 30 DIAS DO VENCIMENTO.                                                                                                                                                                                                         12031900000000000001203190000000000000       0090339900006270005932031919000081
100000000000000000000009033990000627000000000000000000000000010002020007730003191400000000002            2  01077300031924031900000003816540000000001N110319000000000000000000000000000000000000000000000000000000000000000100007730084899ARNALDO LUIZ VONO                       RUA CARLOS JOSE BORSTENS - 50 AP.122 - A            11702750                                                            000083
2SR. CAIXA, APOS O VENCIMENTO COBRAR 2% DE MULTA                                 NAO RECEBER APOS 30 DIAS DO VENCIMENTO.                                                                                                                                                                                                         12031900000000000001203190000000000000       0090339900006270077300031914000084
100000000000000000000009033990000627000000000000000000000000010002020065584103191000000000002            2  01655841031924031900000001408790000000001N110319000000000000000000000000000000000000000000000000000000000000000100065584147834JOAQUIM DA COSTA MACHADO NETO           RUA CARLOS JOSE BORSTENS - 50 AP.42 - AV            11702750                                                            000086
2SR. CAIXA, APOS O VENCIMENTO COBRAR 2% DE MULTA                                 NAO RECEBER APOS 30 DIAS DO VENCIMENTO.                                                                                                                                                                                                         12031900000000000001203190000000000000       0090339900006270655841031910000087
100000000000000000000009033990000627000000000000000000000000010002020001616903191200000000002            2  01016169031924031900000002477670000000001N110319000000000000000000000000000000000000000000000000000000000000000100001616913827CLAUDIO LUIZ PAULELLA                   PRACA NESTOR DOS SANTOS ARRUDA - 26 - VI            13920000                                                            000089
2SR. CAIXA, APOS O VENCIMENTO COBRAR 2% DE MULTA                                 NAO RECEBER APOS 30 DIAS DO VENCIMENTO.                                                                                                                                                                                                         12031900000000000001203190000000000000       0090339900006270016169031912000090
100000000000000000000009033990000627000000000000000000000000010002020006684603191300000000002            2  01066846031926031900000001807150000000001N110319000000000000000000000000000000000000000000000000000000000000000100006684623884LAUDINOR VIEIRA GARCIA                  RUA CANDIDO SALES - 374 - JARDIM PRESIDE            07172000                                                            000092
2SR. CAIXA, APOS O VENCIMENTO COBRAR 2% DE MULTA                                 NAO RECEBER APOS 30 DIAS DO VENCIMENTO.                                                                                                                                                                                                         12031900000000000001203190000000000000       0090339900006270066846031913000093
100000000000000000000009033990000627000000000000000000000000010002020011663503191400000000002            2  01116635031926031900000001820180000000001N110319000000000000000000000000000000000000000000000000000000000000000100011663589844MARIA SAVIO QUARELLO                    AVENIDA MENDONCA DRUMOND - 321 - JARDIM             03524030                                                            000095
2SR. CAIXA, APOS O VENCIMENTO COBRAR 2% DE MULTA                                 NAO RECEBER APOS 30 DIAS DO VENCIMENTO.                                                                                                                                                                                                         12031900000000000001203190000000000000       0090339900006270116635031914000096
100000000000000000000009033990000627000000000000000000000000010002020010083803191600000000002            2  01100838031926031900000001758580000000001N110319000000000000000000000000000000000000000000000000000000000000000100010083824855IONE FERREIRA COUTO DA SILVA            RUA JOSE RAGEL DE MESQUITA - 60 CS.01 -             07799999                                                            000098
2SR. CAIXA, APOS O VENCIMENTO COBRAR 2% DE MULTA                                 NAO RECEBER APOS 30 DIAS DO VENCIMENTO.                                                                                                                                                                                                         12031900000000000001203190000000000000       0090339900006270100838031916000099
100000000000000000000009033990000627000000000000000000000000010002020036881703192700000000002            2  01368817031926031900000001725750000000001N110319000000000000000000000000000000000000000000000000000000000000000100036881778864ANDRE GONZALEZ RABELLO                  RUA PARAIBA - 106 AP.61 - POMPEIA - SANT            11065470                                                            000101
2SR. CAIXA, APOS O VENCIMENTO COBRAR 2% DE MULTA                                 NAO RECEBER APOS 30 DIAS DO VENCIMENTO.                                                                                                                                                                                                         12031900000000000001203190000000000000       0090339900006270368817031927000102
100000000000000000000009033990000627000000000000000000000000010002020018207003191800000000002            2  01182070031924031900000002372890000000001N110319000000000000000000000000000000000000000000000000000000000000000100018207096802ROBERTO VALENTE TAVARES                 RUA SEBASTIAO GOMES - 218 - JARDIM SANTO            13835000                                                            000104
2SR. CAIXA, APOS O VENCIMENTO COBRAR 2% DE MULTA                                 NAO RECEBER APOS 30 DIAS DO VENCIMENTO.                                                                                                                                                                                                         12031900000000000001203190000000000000       0090339900006270182070031918000105
100000000000000000000009033990000627000000000000000000000000010002020005351003191000000000002            2  01053510031926031900000001618060000000001N110319000000000000000000000000000000000000000000000000000000000000000100005351015897VALERIA ALVES MARCOLINO HINNIGER        RUA MONGOLIA - 230 AP.71 BL.4 - PARQUE N            09280220                                                            000107
2SR. CAIXA, APOS O VENCIMENTO COBRAR 2% DE MULTA                                 NAO RECEBER APOS 30 DIAS DO VENCIMENTO.                                                                                                                                                                                                         12031900000000000001203190000000000000       0090339900006270053510031910000108
100000000000000000000009033990000627000000000000000000000000010002020031898703191600000000002            2  01318987031924031900000002567920000000001N110319000000000000000000000000000000000000000000000000000000000000000100031898775800ANITA MARTINS COLOMBO                   RUA CARLOS JOSE BORSTENS - 50 AP.115 - A            11702750                                                            000110
2SR. CAIXA, APOS O VENCIMENTO COBRAR 2% DE MULTA                                 NAO RECEBER APOS 30 DIAS DO VENCIMENTO.                                                                                                                                                                                                         12031900000000000001203190000000000000       0090339900006270318987031916000111
100000000000000000000009033990000627000000000000000000000000010002020037983403192400000000002            2  01379834031926031900000001900700000000001N110319000000000000000000000000000000000000000000000000000000000000000100037983484801JOSE ERIVALDO SOUZA DO NASCIMENTO RAMOS RUA LETICIA - 250 - JARDIM GUARUJA - SAO            05877260                                                            000113
2SR. CAIXA, APOS O VENCIMENTO COBRAR 2% DE MULTA                                 NAO RECEBER APOS 30 DIAS DO VENCIMENTO.                                                                                                                                                                                                         12031900000000000001203190000000000000       0090339900006270379834031924000114
100000000000000000000009033990000627000000000000000000000000010002020056289203192500000000002            2  01562892031926031900000001435880000000001N110319000000000000000000000000000000000000000000000000000000000000000100056289286900PEDRO RIBEIRO                           RUA CONEGO MANOEL VAZ - 48 - SANTANA - S            02019050                                                            000116
2SR. CAIXA, APOS O VENCIMENTO COBRAR 2% DE MULTA                                 NAO RECEBER APOS 30 DIAS DO VENCIMENTO.                                                                                                                                                                                                         12031900000000000001203190000000000000       0090339900006270562892031925000117
100000000000000000000009033990000627000000000000000000000000010002020005025503191000000000002            2  01050255031926031900000002043410000000001N110319000000000000000000000000000000000000000000000000000000000000000100005025595860CONCEICAO APARECIDA DE MESQUITA PEREIRA RUA TRIUNFO - 835 AP.105 - JARDIM SAO LU            14020670                                                            000119
2SR. CAIXA, APOS O VENCIMENTO COBRAR 2% DE MULTA                                 NAO RECEBER APOS 30 DIAS DO VENCIMENTO.                                                                                                                                                                                                         12031900000000000001203190000000000000       0090339900006270050255031910000120
100000000000000000000009033990000627000000000000000000000000010002020034735303192100000000002            2  01347353031926031900000001970650000000001N110319000000000000000000000000000000000000000000000000000000000000000100034735328866DIEGO FELIPE MOLINA DA SILVA E SOUSA    RUA EMILIA PAULISTA - 135 - VILA TIRADEN            05364020                                                            000122
2SR. CAIXA, APOS O VENCIMENTO COBRAR 2% DE MULTA                                 NAO RECEBER APOS 30 DIAS DO VENCIMENTO.                                                                                                                                                                                                         12031900000000000001203190000000000000       0090339900006270347353031921000123
100000000000000000000009033990000627000000000000000000000000010002020076175603191400000000002            2  01761756031924031900000003563700000000001N110319000000000000000000000000000000000000000000000000000000000000000100076175685687GILMAR DE OLIVEIRA BRAGA                RUA MARACAJU - 161 AP.202 - NOVA GRANADA            30431350                                                            000125
2SR. CAIXA, APOS O VENCIMENTO COBRAR 2% DE MULTA                                 NAO RECEBER APOS 30 DIAS DO VENCIMENTO.                                                                                                                                                                                                         12031900000000000001203190000000000000       0090339900006270761756031914000126
9                                                                                                                                                                                                                                                                                                                                                                                                         000127