01REMESSA01COBRANCA       00000000000008017025HB SANTOS CONSTRUTORA E INCORP237BRADESCO       110618        MX0000057                                                                                                                                                                                                                                                                                     000001
100000000000000000000009033990000627000000000000000000000000010002020025035106181100000000002            2  01250351061824061800000001883550000000001N110618000000000000000000000000000000000000000000000000000000000000000100025035170802WANDERSON LUIS DE CARVALHO              RUA JOAQUIM GONCALVES ROCHA - 302 - JARD            02859030                                                            000002
2SR. CAIXA, APOS O VENCIMENTO COBRAR 2% DE MULTA                                 NAO RECEBER APOS 30 DIAS DO VENCIMENTO.                                                                                                                                                                                                         11061800000000000001106180000000000000       0090339900006270250351061811000003
100000000000000000000009033990000627000000000000000000000000010002020007294306181900000000002            2  01072943061824061800000002533430000000001N110618000000000000000000000000000000000000000000000000000000000000000100007294351805CLAUDENIR APARECIDO VACARI              RUA CARLOS JOSE BORSTENS - 50 AP.93 - AV            11702750                                                            000005
2SR. CAIXA, APOS O VENCIMENTO COBRAR 2% DE MULTA                                 NAO RECEBER APOS 30 DIAS DO VENCIMENTO.                                                                                                                                                                                                         11061800000000000001106180000000000000       0090339900006270072943061819000006
100000000000000000000009033990000627000000000000000000000000010002020042976106181900000000002            2  01429761061824061800000002560010000000001N110618000000000000000000000000000000000000000000000000000000000000000100042976111634ACACIO TOSCANO BONDANCA                 RUA COMENDADOR JACOMO ANTONIO LA SELVA -            12946797                                                            000008
2SR. CAIXA, APOS O VENCIMENTO COBRAR 2% DE MULTA                                 NAO RECEBER APOS 30 DIAS DO VENCIMENTO.                                                                                                                                                                                                         11061800000000000001106180000000000000       0090339900006270429761061819000009
100000000000000000000009033990000627000000000000000000000000010002020035438006181200000000002            2  01354380061824061800000002162050000000001N110618000000000000000000000000000000000000000000000000000000000000000100035438022836ALESSANDRO FARACO DOS SANTOS            RUA PEDRO POMAR  - 145 - JARDIM ELISA MA            02875020                                                            000011
2SR. CAIXA, APOS O VENCIMENTO COBRAR 2% DE MULTA                                 NAO RECEBER APOS 30 DIAS DO VENCIMENTO.                                                                                                                                                                                                         11061800000000000001106180000000000000       0090339900006270354380061812000012
100000000000000000000009033990000627000000000000000000000000010002020007525006181400000000002            2  01075250061824061800000002833750000000001N110618000000000000000000000000000000000000000000000000000000000000000100007525032866FERNANDO RIBEIRO                        RUA ALDO COLI - 539 - VILA MIRIM - PRAIA            11704760                                                            000014
2SR. CAIXA, APOS O VENCIMENTO COBRAR 2% DE MULTA                                 NAO RECEBER APOS 30 DIAS DO VENCIMENTO.                                                                                                                                                                                                         11061800000000000001106180000000000000       0090339900006270075250061814000015
100000000000000000000009033990000627000000000000000000000000010002020005071406181P00000000002            2  01050714061824061800000002485730000000001N110618000000000000000000000000000000000000000000000000000000000000000100005071481855ERIBALDO SANTANA CARVALHO               RUA HONDURAS - 477 - PARQUE DAS AMERICAS            09351070                                                            000017
2SR. CAIXA, APOS O VENCIMENTO COBRAR 2% DE MULTA                                 NAO RECEBER APOS 30 DIAS DO VENCIMENTO.                                                                                                                                                                                                         11061800000000000001106180000000000000       009033990000627005071406181P000018
100000000000000000000009033990000627000000000000000000000000010002020002841706181300000000002            2  01028417061824061800000002325620000000001N110618000000000000000000000000000000000000000000000000000000000000000100002841756416LUCIANA PINHEIRO DE ASSIS NUNES         RUA RIO ACIMA - 81 - RIACHO GRANDE - SAO            09830100                                                            000020
2SR. CAIXA, APOS O VENCIMENTO COBRAR 2% DE MULTA                                 NAO RECEBER APOS 30 DIAS DO VENCIMENTO.                                                                                                                                                                                                         11061800000000000001106180000000000000       0090339900006270028417061813000021
100000000000000000000009033990000627000000000000000000000000010002020084302006181200000000002            2  01843020061824061800000002336770000000001N110618000000000000000000000000000000000000000000000000000000000000000100084302097868FAUSTO TADEU VILOR                      RUA ANTONIO TAVARES - 466 - BAIRRO CAMBU            01542010                                                            000023
2SR. CAIXA, APOS O VENCIMENTO COBRAR 2% DE MULTA                                 NAO RECEBER APOS 30 DIAS DO VENCIMENTO.                                                                                                                                                                                                         11061800000000000001106180000000000000       0090339900006270843020061812000024
100000000000000000000009033990000627000000000000000000000000010002020028804206181200000000002            2  01288042061824061800000002295900000000001N110618000000000000000000000000000000000000000000000000000000000000000100028804202882GILBERTO FABIANO CABRAL DE CAMARGO      RUA CARLOS JOSE BORSTENS - 50 AP.44 - AV            11702750                                                            000026
2SR. CAIXA, APOS O VENCIMENTO COBRAR 2% DE MULTA                                 NAO RECEBER APOS 30 DIAS DO VENCIMENTO.                                                                                                                                                                                                         11061800000000000001106180000000000000       0090339900006270288042061812000027
100000000000000000000009033990000627000000000000000000000000010002020000991706181500000000002            2  01009917061824061800000002240870000000001N110618000000000000000000000000000000000000000000000000000000000000000100000991748808JAILSON BORGES DE ANDRADE               RUA IPIOBUNA - 45 - JARDIM CUMBICA - GUA            07240040                                                            000029
2SR. CAIXA, APOS O VENCIMENTO COBRAR 2% DE MULTA                                 NAO RECEBER APOS 30 DIAS DO VENCIMENTO.                                                                                                                                                                                                         11061800000000000001106180000000000000       0090339900006270009917061815000030
100000000000000000000009033990000627000000000000000000000000010002020092180206181200000000002            2  01921802061824061800000003055180000000001N110618000000000000000000000000000000000000000000000000000000000000000100092180299834LUIS ROBERTO DE SA DUARTE               RUA TEBAS - 296 AP.84 BLOCO 2 CE - JARDI            04634031                                                            000032
2SR. CAIXA, APOS O VENCIMENTO COBRAR 2% DE MULTA                                 NAO RECEBER APOS 30 DIAS DO VENCIMENTO.                                                                                                                                                                                                         11061800000000000001106180000000000000       0090339900006270921802061812000033
100000000000000000000009033990000627000000000000000000000000010002020022151606181100000000002            2  01221516061824061800000002227880000000001N110618000000000000000000000000000000000000000000000000000000000000000100022151666816SAMIR LIMA DE ARAUJO                    AVENIDA GUARAPIRANGA - 2616 AP.42 BLOCO1            04902005                                                            000035
2SR. CAIXA, APOS O VENCIMENTO COBRAR 2% DE MULTA                                 NAO RECEBER APOS 30 DIAS DO VENCIMENTO.                                                                                                                                                                                                         11061800000000000001106180000000000000       0090339900006270221516061811000036
100000000000000000000009033990000627000000000000000000000000010002020022313106181300000000002            2  01223131061826061800000001756890000000001N110618000000000000000000000000000000000000000000000000000000000000000100022313116824ROSA MARIA BRITO DA SILVA               RUA SERVIDAO DE SAO MARCOS - 113 - JARDI            04930300                                                            000038
2SR. CAIXA, APOS O VENCIMENTO COBRAR 2% DE MULTA                                 NAO RECEBER APOS 30 DIAS DO VENCIMENTO.                                                                                                                                                                                                         11061800000000000001106180000000000000       0090339900006270223131061813000039
100000000000000000000009033990000627000000000000000000000000010002020027538006181500000000002            2  01275380061826061800000001763010000000001N110618000000000000000000000000000000000000000000000000000000000000000100027538087249MARA LUCIA MENEZES DA COSTA             RUA LEILA  - 183 - ITAQUERA - SAO PAULO             08240020                                                            000041
2SR. CAIXA, APOS O VENCIMENTO COBRAR 2% DE MULTA                                 NAO RECEBER APOS 30 DIAS DO VENCIMENTO.                                                                                                                                                                                                         11061800000000000001106180000000000000       0090339900006270275380061815000042
100000000000000000000009033990000627000000000000000000000000010002020020105506181300000000002            2  01201055061826061800000001866390000000001N110618000000000000000000000000000000000000000000000000000000000000000100020105503827VALTER DE SOUSA LIBARINO FILHO          RUA DAS PAINEIRAS - 140 - LARANJEIRAS -             07700000                                                            000044
2SR. CAIXA, APOS O VENCIMENTO COBRAR 2% DE MULTA                                 NAO RECEBER APOS 30 DIAS DO VENCIMENTO.                                                                                                                                                                                                         11061800000000000001106180000000000000       0090339900006270201055061813000045
100000000000000000000009033990000627000000000000000000000000010002020031278406181100000000002            2  01312784061824061800000002152200000000001N110618000000000000000000000000000000000000000000000000000000000000000100031278411836JEFFERSON DE PIERI PIRES ZAMUNER        RUA MANOEL ARCE - 277 - PARQUE BANCARIO             03922150                                                            000047
2SR. CAIXA, APOS O VENCIMENTO COBRAR 2% DE MULTA                                 NAO RECEBER APOS 30 DIAS DO VENCIMENTO.                                                                                                                                                                                                         11061800000000000001106180000000000000       0090339900006270312784061811000048
100000000000000000000009033990000627000000000000000000000000010002020019185706181300000000002            2  01191857061826061800000001604380000000001N110618000000000000000000000000000000000000000000000000000000000000000100019185769800AGUINALDO PESSOA DE LIMA                RUA JANUARIO ZINGARO - 252 AP.303 BL.04             05794300                                                            000050
2SR. CAIXA, APOS O VENCIMENTO COBRAR 2% DE MULTA                                 NAO RECEBER APOS 30 DIAS DO VENCIMENTO.                                                                                                                                                                                                         11061800000000000001106180000000000000       0090339900006270191857061813000051
100000000000000000000009033990000627000000000000000000000000010002020033303606181400000000002            2  01333036061826061800000001728060000000001N110618000000000000000000000000000000000000000000000000000000000000000100033303645809JESSICA DA SILVA FREITAS                RUA ARILDO VALADAO - 120 - JARDIM GUAEMB            04814600                                                            000053
2SR. CAIXA, APOS O VENCIMENTO COBRAR 2% DE MULTA                                 NAO RECEBER APOS 30 DIAS DO VENCIMENTO.                                                                                                                                                                                                         11061800000000000001106180000000000000       0090339900006270333036061814000054
100000000000000000000009033990000627000000000000000000000000010002020004824406181300000000002            2  01048244061826061800000001741730000000001N110618000000000000000000000000000000000000000000000000000000000000000100004824443806ROSIMEIRE CLARA FERREIRA REZENDE        RUA JOAQUIM DE OLIVEIRA FREITAS - 912 AP            05133000                                                            000056
2SR. CAIXA, APOS O VENCIMENTO COBRAR 2% DE MULTA                                 NAO RECEBER APOS 30 DIAS DO VENCIMENTO.                                                                                                                                                                                                         11061800000000000001106180000000000000       0090339900006270048244061813000057
100000000000000000000009033990000627000000000000000000000000010002020006422606181P00000000002            2  01064226061824061800000002330890000000001N110618000000000000000000000000000000000000000000000000000000000000000100006422607881GERALDO ALVES DA SILVA                  RUA ALFREDO JOREL - 195 AP.5 CONDOMINIO             04195020                                                            000059
2SR. CAIXA, APOS O VENCIMENTO COBRAR 2% DE MULTA                                 NAO RECEBER APOS 30 DIAS DO VENCIMENTO.                                                                                                                                                                                                         11061800000000000001106180000000000000       009033990000627006422606181P000060
100000000000000000000009033990000627000000000000000000000000010002020033877106181100000000002            2  01338771061826061800000001620110000000001N110618000000000000000000000000000000000000000000000000000000000000000100033877129870HELDER FERREIRA VIANA                   RUA LEOPOLDO MOTTA E SILVA - 93 AP.34 -             11320340                                                            000062
2SR. CAIXA, APOS O VENCIMENTO COBRAR 2% DE MULTA                                 NAO RECEBER APOS 30 DIAS DO VENCIMENTO.                                                                                                                                                                                                         11061800000000000001106180000000000000       0090339900006270338771061811000063
100000000000000000000009033990000627000000000000000000000000010002020028290706181500000000002            2  01282907061826061800000001493120000000001N110618000000000000000000000000000000000000000000000000000000000000000100028290719809VANESSA GIANGARRELLI PEREIRA            RUA BARINEL - 72 - JARDIM COTCHING - SAO            03462130                                                            000065
2SR. CAIXA, APOS O VENCIMENTO COBRAR 2% DE MULTA                                 NAO RECEBER APOS 30 DIAS DO VENCIMENTO.                                                                                                                                                                                                         11061800000000000001106180000000000000       0090339900006270282907061815000066
100000000000000000000009033990000627000000000000000000000000010002020087573006181000000000002            2  01875730061826061800000001630490000000001N110618000000000000000000000000000000000000000000000000000000000000000100087573059604VANDERLEY DE ASSIS                      RUA ROMEU ALBANI - 268 - JARDIM PARQUE R            13803810                                                            000068
2SR. CAIXA, APOS O VENCIMENTO COBRAR 2% DE MULTA                                 NAO RECEBER APOS 30 DIAS DO VENCIMENTO.                                                                                                                                                                                                         11061800000000000001106180000000000000       0090339900006270875730061810000069
100000000000000000000009033990000627000000000000000000000000010002020010825506181800000000002            2  01108255061826061800000001701510000000001N110618000000000000000000000000000000000000000000000000000000000000000100010825513847JOSE APARECIDO PEREIRA                  RUA GENERAL OSORIO - 305 - JARDIM TRINTA            11515130                                                            000071
2SR. CAIXA, APOS O VENCIMENTO COBRAR 2% DE MULTA                                 NAO RECEBER APOS 30 DIAS DO VENCIMENTO.                                                                                                                                                                                                         11061800000000000001106180000000000000       0090339900006270108255061818000072
100000000000000000000009033990000627000000000000000000000000010002020038818506181800000000002            2  01388185061826061800000002658630000000001N110618000000000000000000000000000000000000000000000000000000000000000100038818572814MAURICIUS ALEXANDRE ESTEVAM NABOR       RUA RAUL SERAPIAO BARROSO - 379 - ESPLAN            11340330                                                            000074
2SR. CAIXA, APOS O VENCIMENTO COBRAR 2% DE MULTA                                 NAO RECEBER APOS 30 DIAS DO VENCIMENTO.                                                                                                                                                                                                         11061800000000000001106180000000000000       0090339900006270388185061818000075
100000000000000000000009033990000627000000000000000000000000010002020039115106181P00000000002            2  01391151061826061800000002097390000000001N110618000000000000000000000000000000000000000000000000000000000000000100039115139840LAIS CRISTINA RIBEIRO ANDO              RUA PERU - 769 AP.17 - VILA GUILHERMINA             11702250                                                            000077
2SR. CAIXA, APOS O VENCIMENTO COBRAR 2% DE MULTA                                 NAO RECEBER APOS 30 DIAS DO VENCIMENTO.                                                                                                                                                                                                         11061800000000000001106180000000000000       009033990000627039115106181P000078
100000000000000000000009033990000627000000000000000000000000010002020029617506181800000000002            2  01296175061824061800000002287830000000001N110618000000000000000000000000000000000000000000000000000000000000000100029617510553MARILENE SOUZA DE OLIVEIRA              AVENIDA BRASIL - 393 AP.09 - PARQUE DAS             09210280                                                            000080
2SR. CAIXA, APOS O VENCIMENTO COBRAR 2% DE MULTA                                 NAO RECEBER APOS 30 DIAS DO VENCIMENTO.                                                                                                                                                                                                         11061800000000000001106180000000000000       0090339900006270296175061818000081
100000000000000000000009033990000627000000000000000000000000010002020000593206181800000000002            2  01005932061824061800000002509190000000001N110618000000000000000000000000000000000000000000000000000000000000000100000593293860WALTER HELIO BARBOSA FILHO              AVENIDA ANTONIO FREDERICO OZANAN - 9500             13214206                                                            000083
2SR. CAIXA, APOS O VENCIMENTO COBRAR 2% DE MULTA                                 NAO RECEBER APOS 30 DIAS DO VENCIMENTO.                                                                                                                                                                                                         11061800000000000001106180000000000000       0090339900006270005932061818000084
100000000000000000000009033990000627000000000000000000000000010002020007730006181300000000002            2  01077300061824061800000003568330000000001N110618000000000000000000000000000000000000000000000000000000000000000100007730084899ARNALDO LUIZ VONO                       RUA CARLOS JOSE BORSTENS - 50 AP.122 - A            11702750                                                            000086
2SR. CAIXA, APOS O VENCIMENTO COBRAR 2% DE MULTA                                 NAO RECEBER APOS 30 DIAS DO VENCIMENTO.                                                                                                                                                                                                         11061800000000000001106180000000000000       0090339900006270077300061813000087
100000000000000000000009033990000627000000000000000000000000010002020065584106181P00000000002            2  01655841061824061800000001317170000000001N110618000000000000000000000000000000000000000000000000000000000000000100065584147834JOAQUIM DA COSTA MACHADO NETO           RUA CARLOS JOSE BORSTENS - 50 AP.42 - AV            11702750                                                            000089
2SR. CAIXA, APOS O VENCIMENTO COBRAR 2% DE MULTA                                 NAO RECEBER APOS 30 DIAS DO VENCIMENTO.                                                                                                                                                                                                         11061800000000000001106180000000000000       009033990000627065584106181P000090
100000000000000000000009033990000627000000000000000000000000010002020001616906181100000000002            2  01016169061824061800000002316530000000001N110618000000000000000000000000000000000000000000000000000000000000000100001616913827CLAUDIO LUIZ PAULELLA                   PRACA NESTOR DOS SANTOS ARRUDA - 26 - VI            13920000                                                            000092
2SR. CAIXA, APOS O VENCIMENTO COBRAR 2% DE MULTA                                 NAO RECEBER APOS 30 DIAS DO VENCIMENTO.                                                                                                                                                                                                         11061800000000000001106180000000000000       0090339900006270016169061811000093
100000000000000000000009033990000627000000000000000000000000010002020006684606181200000000002            2  01066846061826061800000001727820000000001N110618000000000000000000000000000000000000000000000000000000000000000100006684623884LAUDINOR VIEIRA GARCIA                  RUA CANDIDO SALES - 374 - JARDIM PRESIDE            07172000                                                            000095
2SR. CAIXA, APOS O VENCIMENTO COBRAR 2% DE MULTA                                 NAO RECEBER APOS 30 DIAS DO VENCIMENTO.                                                                                                                                                                                                         11061800000000000001106180000000000000       0090339900006270066846061812000096
100000000000000000000009033990000627000000000000000000000000010002020011663506181300000000002            2  01116635061826061800000001740280000000001N110618000000000000000000000000000000000000000000000000000000000000000100011663589844MARIA SAVIO QUARELLO                    AVENIDA MENDONCA DRUMOND - 321 - JARDIM             03524030                                                            000098
2SR. CAIXA, APOS O VENCIMENTO COBRAR 2% DE MULTA                                 NAO RECEBER APOS 30 DIAS DO VENCIMENTO.                                                                                                                                                                                                         11061800000000000001106180000000000000       0090339900006270116635061813000099
100000000000000000000009033990000627000000000000000000000000010002020010083806181500000000002            2  01100838061826061800000001681380000000001N110618000000000000000000000000000000000000000000000000000000000000000100010083824855IONE FERREIRA COUTO DA SILVA            RUA JOSE RAGEL DE MESQUITA - 60 CS.01 -             07799999                                                            000101
2SR. CAIXA, APOS O VENCIMENTO COBRAR 2% DE MULTA                                 NAO RECEBER APOS 30 DIAS DO VENCIMENTO.                                                                                                                                                                                                         11061800000000000001106180000000000000       0090339900006270100838061815000102
100000000000000000000009033990000627000000000000000000000000010002020036881706181800000000002            2  01368817061826061800000001650000000000001N110618000000000000000000000000000000000000000000000000000000000000000100036881778864ANDRE GONZALEZ RABELLO                  RUA PARAIBA - 106 AP.61 - POMPEIA - SANT            11065470                                                            000104
2SR. CAIXA, APOS O VENCIMENTO COBRAR 2% DE MULTA                                 NAO RECEBER APOS 30 DIAS DO VENCIMENTO.                                                                                                                                                                                                         11061800000000000001106180000000000000       0090339900006270368817061818000105
100000000000000000000009033990000627000000000000000000000000010002020018207006181700000000002            2  01182070061824061800000002218580000000001N110618000000000000000000000000000000000000000000000000000000000000000100018207096802ROBERTO VALENTE TAVARES                 RUA SEBASTIAO GOMES - 218 - JARDIM SANTO            13835000                                                            000107
2SR. CAIXA, APOS O VENCIMENTO COBRAR 2% DE MULTA                                 NAO RECEBER APOS 30 DIAS DO VENCIMENTO.                                                                                                                                                                                                         11061800000000000001106180000000000000       0090339900006270182070061817000108
100000000000000000000009033990000627000000000000000000000000010002020005351006181P00000000002            2  01053510061826061800000001547040000000001N110618000000000000000000000000000000000000000000000000000000000000000100005351015897VALERIA ALVES MARCOLINO HINNIGER        RUA MONGOLIA - 230 AP.71 BL.4 - PARQUE N            09280220                                                            000110
2SR. CAIXA, APOS O VENCIMENTO COBRAR 2% DE MULTA                                 NAO RECEBER APOS 30 DIAS DO VENCIMENTO.                                                                                                                                                                                                         11061800000000000001106180000000000000       009033990000627005351006181P000111
100000000000000000000009033990000627000000000000000000000000010002020031898706181500000000002            2  01318987061824061800000002400910000000001N110618000000000000000000000000000000000000000000000000000000000000000100031898775800ANITA MARTINS COLOMBO                   RUA CARLOS JOSE BORSTENS - 50 AP.115 - A            11702750                                                            000113
2SR. CAIXA, APOS O VENCIMENTO COBRAR 2% DE MULTA                                 NAO RECEBER APOS 30 DIAS DO VENCIMENTO.                                                                                                                                                                                                         11061800000000000001106180000000000000       0090339900006270318987061815000114
100000000000000000000009033990000627000000000000000000000000010002020037983406181500000000002            2  01379834061826061800000001817260000000001N110618000000000000000000000000000000000000000000000000000000000000000100037983484801JOSE ERIVALDO SOUZA DO NASCIMENTO RAMOS RUA LETICIA - 250 - JARDIM GUARUJA - SAO            05877260                                                            000116
2SR. CAIXA, APOS O VENCIMENTO COBRAR 2% DE MULTA                                 NAO RECEBER APOS 30 DIAS DO VENCIMENTO.                                                                                                                                                                                                         11061800000000000001106180000000000000       0090339900006270379834061815000117
9                                                                                                                                                                                                                                                                                                                                                                                                         000118