01REMESSA01COBRANCA       00000000000008017025HB SANTOS CONSTRUTORA E INCORP237BRADESCO       010821        MX0000133                                                                                                                                                                                                                                                                                     000001
100000000000000000000009033990000627000000000000000000000000010002020016479008211200000000002            2  01164790082109082100000004473200000000001N010821000000000000000000000000000000000000000000000000000000000000000100016479002806LOURDES PEREIRA DE QUEIROZ SECANECHIA   RUA PAULINO CURSI - 437 - CIDADE SAO MAT            03960060                                                            000002
2SR. CAIXA, APOS O VENCIMENTO COBRAR 2% DE MULTA                                 NAO RECEBER APOS 30 DIAS DO VENCIMENTO.                                                                                                                                                                                                         01082100000000000000108210000000000000       0090339900006270164790082112000003
100000000000000000000009033990000627000000000000000000000000010002020009361408211P00000000002            2  01093614082109082100000003247550000000001N010821000000000000000000000000000000000000000000000000000000000000000100009361471805JOSE BARBOSA DA SILVA                   RUA ALFREDO INACIO TRINDADE  - 60 AP.44             02344100                                                            000005
2SR. CAIXA, APOS O VENCIMENTO COBRAR 2% DE MULTA                                 NAO RECEBER APOS 30 DIAS DO VENCIMENTO.                                                                                                                                                                                                         01082100000000000000108210000000000000       009033990000627009361408211P000006
100000000000000000000009033990000627000000000000000000000000010002020012756908211300000000002            2  01127569082109082100000002803360000000001N010821000000000000000000000000000000000000000000000000000000000000000100012756959812ITAMAR JUVENAL DIAS DA SILVA            RUA ELISEU REINALDO MORAES VIEIRA - 90 A            02858000                                                            000008
2SR. CAIXA, APOS O VENCIMENTO COBRAR 2% DE MULTA                                 NAO RECEBER APOS 30 DIAS DO VENCIMENTO.                                                                                                                                                                                                         01082100000000000000108210000000000000       0090339900006270127569082113000009
100000000000000000000009033990000627000000000000000000000000010002020028802108211900000000002            2  01288021082109082100000002992740000000001N010821000000000000000000000000000000000000000000000000000000000000000100028802158894ELIEL HENRIQUE ZUZA                     RUA CARLOS JOSE BORSTENS - 50 AP.43 - BA            11702750                                                            000011
2SR. CAIXA, APOS O VENCIMENTO COBRAR 2% DE MULTA                                 NAO RECEBER APOS 30 DIAS DO VENCIMENTO.                                                                                                                                                                                                         01082100000000000000108210000000000000       0090339900006270288021082119000012
100000000000000000000009033990000627000000000000000000000000010002020005313708211900000000002            2  01053137082111082100000002419150000000001N010821000000000000000000000000000000000000000000000000000000000000000100005313717863EDIMICIO JOSE DE ARAUJO                 RUA JOSE CALIXTO DO CARMO - 286 AP.101 -            11702690                                                            000014
2SR. CAIXA, APOS O VENCIMENTO COBRAR 2% DE MULTA                                 NAO RECEBER APOS 30 DIAS DO VENCIMENTO.                                                                                                                                                                                                         01082100000000000000108210000000000000       0090339900006270053137082119000015
100000000000000000000009033990000627000000000000000000000000010002020029433608211700000000002            2  01294336082111082100000002324000000000001N010821000000000000000000000000000000000000000000000000000000000000000100029433631897MARIO MUNIZ                             RUA JOSE CALIXTO DO CARMO - 286 AP.53 -             11702690                                                            000017
2SR. CAIXA, APOS O VENCIMENTO COBRAR 2% DE MULTA                                 NAO RECEBER APOS 30 DIAS DO VENCIMENTO.                                                                                                                                                                                                         01082100000000000000108210000000000000       0090339900006270294336082117000018
100000000000000000000009033990000627000000000000000000000000010002020005029808211P00000000002            2  01050298082109082100000002858180000000001N010821000000000000000000000000000000000000000000000000000000000000000100005029828885LAURINETE DA CONCEICAO DE NORONHA       RUA MARIA LUCIA DE TOLEDO LEITE MORAES -            04434040                                                            000020
2SR. CAIXA, APOS O VENCIMENTO COBRAR 2% DE MULTA                                 NAO RECEBER APOS 30 DIAS DO VENCIMENTO.                                                                                                                                                                                                         01082100000000000000108210000000000000       009033990000627005029808211P000021
100000000000000000000009033990000627000000000000000000000000010002020013388908211100000000002            2  01133889082111082100000002265520000000001N010821000000000000000000000000000000000000000000000000000000000000000100013388936889NEUTON DE SOUZA RAMOS                   RUA MARIA CRISTINA - 932 - JARDIM CASQUE            11533160                                                            000023
2SR. CAIXA, APOS O VENCIMENTO COBRAR 2% DE MULTA                                 NAO RECEBER APOS 30 DIAS DO VENCIMENTO.                                                                                                                                                                                                         01082100000000000000108210000000000000       0090339900006270133889082111000024
100000000000000000000009033990000627000000000000000000000000010002020012774908211100000000002            2  01127749082111082100000002308070000000001N010821000000000000000000000000000000000000000000000000000000000000000100012774906865JOSE MILTON SANTIAGO                    RUA BATATAIS - 47 - CIDADE ESTELA - POA             08563140                                                            000026
2SR. CAIXA, APOS O VENCIMENTO COBRAR 2% DE MULTA                                 NAO RECEBER APOS 30 DIAS DO VENCIMENTO.                                                                                                                                                                                                         01082100000000000000108210000000000000       0090339900006270127749082111000027
100000000000000000000009033990000627000000000000000000000000010002020016294108211700000000002            2  01162941082109082100000002837680000000001N010821000000000000000000000000000000000000000000000000000000000000000100016294119812JURACY FELIX DE ARRUDA                  RUA CARLOS JOSE BORSTENS - 50 AP.23 - AV            11702750                                                            000029
2SR. CAIXA, APOS O VENCIMENTO COBRAR 2% DE MULTA                                 NAO RECEBER APOS 30 DIAS DO VENCIMENTO.                                                                                                                                                                                                         01082100000000000000108210000000000000       0090339900006270162941082117000030
100000000000000000000009033990000627000000000000000000000000010002020005613808211100000000002            2  01056138082111082100000002122780000000001N010821000000000000000000000000000000000000000000000000000000000000000100005613843805NILZA MARIA DE OLIVEIRA                 RUA JOSE GONCALVES DE FREITAS - 66 C2 -             08210550                                                            000032
2SR. CAIXA, APOS O VENCIMENTO COBRAR 2% DE MULTA                                 NAO RECEBER APOS 30 DIAS DO VENCIMENTO.                                                                                                                                                                                                         01082100000000000000108210000000000000       0090339900006270056138082111000033
100000000000000000000009033990000627000000000000000000000000010002020007574908211100000000002            2  01075749082111082100000002178980000000001N010821000000000000000000000000000000000000000000000000000000000000000100007574936889JORGE LUCIANO PEREIRA BORRIELLO         RUA JOSE CALIXTO DO CARMO - 286 AP.54 -             11702690                                                            000035
2SR. CAIXA, APOS O VENCIMENTO COBRAR 2% DE MULTA                                 NAO RECEBER APOS 30 DIAS DO VENCIMENTO.                                                                                                                                                                                                         01082100000000000000108210000000000000       0090339900006270075749082111000036
100000000000000000000009033990000627000000000000000000000000010002020008214908211400000000002            2  01082149082111082100000002212030000000001N010821000000000000000000000000000000000000000000000000000000000000000100008214973830JAMIL CHALA                             RUA JOSE CALIXTO DO CARMO - 286 AP.22 -             11702690                                                            000038
2SR. CAIXA, APOS O VENCIMENTO COBRAR 2% DE MULTA                                 NAO RECEBER APOS 30 DIAS DO VENCIMENTO.                                                                                                                                                                                                         01082100000000000000108210000000000000       0090339900006270082149082114000039
100000000000000000000009033990000627000000000000000000000000010002020032495008211100000000002            2  01324950082111082100000002478870000000001N010821000000000000000000000000000000000000000000000000000000000000000100032495004881PAULO EDUARDO DOS SANTOS                RUA REPUBLICA DO IRAQUE - 1119 - CAMPO B            04611002                                                            000041
2SR. CAIXA, APOS O VENCIMENTO COBRAR 2% DE MULTA                                 NAO RECEBER APOS 30 DIAS DO VENCIMENTO.                                                                                                                                                                                                         01082100000000000000108210000000000000       0090339900006270324950082111000042
100000000000000000000009033990000627000000000000000000000000010002020016498008211900000000002            2  01164980082111082100000002174040000000001N010821000000000000000000000000000000000000000000000000000000000000000100016498053810GILMA CEZARIO GARCIA CORRITORI          RUA LAURENTINO XAVIER DOS SANTOS - 336 -            08240740                                                            000044
2SR. CAIXA, APOS O VENCIMENTO COBRAR 2% DE MULTA                                 NAO RECEBER APOS 30 DIAS DO VENCIMENTO.                                                                                                                                                                                                         01082100000000000000108210000000000000       0090339900006270164980082119000045
100000000000000000000009033990000627000000000000000000000000010002020029339008211800000000002            2  01293390082111082100000002324760000000001N010821000000000000000000000000000000000000000000000000000000000000000100029339051831RONALD DIDOFF                           RUA CORONEL FERREIRA BRAGA - 188 - VILA             03522010                                                            000047
2SR. CAIXA, APOS O VENCIMENTO COBRAR 2% DE MULTA                                 NAO RECEBER APOS 30 DIAS DO VENCIMENTO.                                                                                                                                                                                                         01082100000000000000108210000000000000       0090339900006270293390082118000048
100000000000000000000009033990000627000000000000000000000000010002020017357808211P00000000002            2  01173578082111082100000002462130000000001N010821000000000000000000000000000000000000000000000000000000000000000100017357859894MARCIO GUIMARAES                        RUA GENERAL CAMARA - 188 SALA 11 - CENTR            11010120                                                            000050
2SR. CAIXA, APOS O VENCIMENTO COBRAR 2% DE MULTA                                 NAO RECEBER APOS 30 DIAS DO VENCIMENTO.                                                                                                                                                                                                         01082100000000000000108210000000000000       009033990000627017357808211P000051
100000000000000000000009033990000627000000000000000000000000010002020010563008211P00000000002            2  01105630082111082100000002525050000000001N010821000000000000000000000000000000000000000000000000000000000000000100010563033878VERA LUCIA RIBEIRO LONGANEZI            RUA DOS CAMARES - 150 AP.24 BL.02 - CARA            02068030                                                            000053
2SR. CAIXA, APOS O VENCIMENTO COBRAR 2% DE MULTA                                 NAO RECEBER APOS 30 DIAS DO VENCIMENTO.                                                                                                                                                                                                         01082100000000000000108210000000000000       009033990000627010563008211P000054
100000000000000000000009033990000627000000000000000000000000010002020005529608211400000000002            2  01055296082111082100000002291400000000001N010821000000000000000000000000000000000000000000000000000000000000000100005529616801JOAQUIM JORGE DA COSTA                  RUA JOSE CALIXTO DO CARMO - 286 AP.106 -            11702690                                                            000056
2SR. CAIXA, APOS O VENCIMENTO COBRAR 2% DE MULTA                                 NAO RECEBER APOS 30 DIAS DO VENCIMENTO.                                                                                                                                                                                                         01082100000000000000108210000000000000       0090339900006270055296082114000057
100000000000000000000009033990000627000000000000000000000000010002020015550708211000000000002            2  01155507082109082100000002166500000000001N010821000000000000000000000000000000000000000000000000000000000000000100015550706806MARY MIWA                               RUA CARLOS JOSE BORSTENS - 50 AP.105 - A            11702750                                                            000059
2SR. CAIXA, APOS O VENCIMENTO COBRAR 2% DE MULTA                                 NAO RECEBER APOS 30 DIAS DO VENCIMENTO.                                                                                                                                                                                                         01082100000000000000108210000000000000       0090339900006270155507082110000060
100000000000000000000009033990000627000000000000000000000000010002020015464608211000000000002            2  01154646082111082100000002408810000000001N010821000000000000000000000000000000000000000000000000000000000000000100015464647864SONIA TERESA VOLPATO                    RUA JOSE CALIXTO DO CARMO - 286 AP.73 -             11702690                                                            000062
2SR. CAIXA, APOS O VENCIMENTO COBRAR 2% DE MULTA                                 NAO RECEBER APOS 30 DIAS DO VENCIMENTO.                                                                                                                                                                                                         01082100000000000000108210000000000000       0090339900006270154646082110000063
100000000000000000000009033990000627000000000000000000000000010002020008657808211P00000000002            2  01086578082111082100000002384630000000001N010821000000000000000000000000000000000000000000000000000000000000000100008657886855ARLINDO DA CRUZ                         AVENIDA ARICANDUVA - 8.256 AP.54 BL.10 -            03951220                                                            000065
2SR. CAIXA, APOS O VENCIMENTO COBRAR 2% DE MULTA                                 NAO RECEBER APOS 30 DIAS DO VENCIMENTO.                                                                                                                                                                                                         01082100000000000000108210000000000000       009033990000627008657808211P000066
100000000000000000000009033990000627000000000000000000000000010002020004265708211P00000000002            2  01042657082109082100000003192250000000001N010821000000000000000000000000000000000000000000000000000000000000000100004265781713ALEXANDRE CASADO COSTA                  RUA CARLOS JOSE BORSTENS - 50 AP.33 - AV            11702750                                                            000068
2SR. CAIXA, APOS O VENCIMENTO COBRAR 2% DE MULTA                                 NAO RECEBER APOS 30 DIAS DO VENCIMENTO.                                                                                                                                                                                                         01082100000000000000108210000000000000       009033990000627004265708211P000069
100000000000000000000009033990000627000000000000000000000000010002020059735108211800000000002            2  01597351082109082100000001348340000000001N010821000000000000000000000000000000000000000000000000000000000000000100059735180863HELIO JOSE MARQUES                      RUA MARTIM AFONSO DE SOUZA - 1007 AP.102            11702790                                                            000071
2SR. CAIXA, APOS O VENCIMENTO COBRAR 2% DE MULTA                                 NAO RECEBER APOS 30 DIAS DO VENCIMENTO.                                                                                                                                                                                                         01082100000000000000108210000000000000       0090339900006270597351082118000072
100000000000000000000009033990000627000000000000000000000000010002020026347808211100000000002            2  01263478082111082100000002549100000000001N010821000000000000000000000000000000000000000000000000000000000000000100026347872862VALDECI SILVA MEIRELES                  RUA JOSE BATISTA DA SILVA - 292 - JARDIM            06851470                                                            000074
2SR. CAIXA, APOS O VENCIMENTO COBRAR 2% DE MULTA                                 NAO RECEBER APOS 30 DIAS DO VENCIMENTO.                                                                                                                                                                                                         01082100000000000000108210000000000000       0090339900006270263478082111000075
100000000000000000000009033990000627000000000000000000000000010002020025443608211200000000002            2  01254436082109082100000004617800000000001N010821000000000000000000000000000000000000000000000000000000000000000100025443691830SILVANETE PEREIRA CARNELOS              RUA CARLOS JOSE BORSTENS - 50 AP.102 - A            11702750                                                            000077
2SR. CAIXA, APOS O VENCIMENTO COBRAR 2% DE MULTA                                 NAO RECEBER APOS 30 DIAS DO VENCIMENTO.                                                                                                                                                                                                         01082100000000000000108210000000000000       0090339900006270254436082112000078
100000000000000000000009033990000627000000000000000000000000010002020013135208211200000000002            2  01131352082111082100000002341990000000001N010821000000000000000000000000000000000000000000000000000000000000000100013135261859EDUARDO ZANOLA                          RUA ROLANDO PIETRO BONINI - 46 - JARDIM             09781040                                                            000080
2SR. CAIXA, APOS O VENCIMENTO COBRAR 2% DE MULTA                                 NAO RECEBER APOS 30 DIAS DO VENCIMENTO.                                                                                                                                                                                                         01082100000000000000108210000000000000       0090339900006270131352082112000081
100000000000000000000009033990000627000000000000000000000000010002020009797608211300000000002            2  01097976082111082100000002280850000000001N010821000000000000000000000000000000000000000000000000000000000000000100009797626857RICARDO SOBRAL DE OLIVEIRA              RUA 23 DE MAIO - 139 AP.32 - VILA MIRIM             11704690                                                            000083
2SR. CAIXA, APOS O VENCIMENTO COBRAR 2% DE MULTA                                 NAO RECEBER APOS 30 DIAS DO VENCIMENTO.                                                                                                                                                                                                         01082100000000000000108210000000000000       0090339900006270097976082113000084
100000000000000000000009033990000627000000000000000000000000010002020004767608211400000000002            2  01047676082109082100000003900210000000001N010821000000000000000000000000000000000000000000000000000000000000000100004767679893ORLANDO GRANDE FILHO                    RUA ORLANDO MIGLIARI - 101 - JARDIM OURO            19906140                                                            000086
2SR. CAIXA, APOS O VENCIMENTO COBRAR 2% DE MULTA                                 NAO RECEBER APOS 30 DIAS DO VENCIMENTO.                                                                                                                                                                                                         01082100000000000000108210000000000000       0090339900006270047676082114000087
100000000000000000000009033990000627000000000000000000000000010002020006512508211100000000002            2  01065125082111082100000002051720000000001N010821000000000000000000000000000000000000000000000000000000000000000100006512547870MARIA DO CARMO FAGUNDES DOS REIS        RUA CARLOS MALCHER - 98 - PARQUE EDU CHA            02232020                                                            000089
2SR. CAIXA, APOS O VENCIMENTO COBRAR 2% DE MULTA                                 NAO RECEBER APOS 30 DIAS DO VENCIMENTO.                                                                                                                                                                                                         01082100000000000000108210000000000000       0090339900006270065125082111000090
100000000000000000000009033990000627000000000000000000000000010002020022728408211400000000002            2  01227284082111082100000002468040000000001N010821000000000000000000000000000000000000000000000000000000000000000100022728497842WILLIAN DE SOUZA MELLO                  RUA JOSE CALIXTO DO CARMO - 286 AP.111 -            11702690                                                            000092
2SR. CAIXA, APOS O VENCIMENTO COBRAR 2% DE MULTA                                 NAO RECEBER APOS 30 DIAS DO VENCIMENTO.                                                                                                                                                                                                         01082100000000000000108210000000000000       0090339900006270227284082114000093
100000000000000000000009033990000627000000000000000000000000010002020016909708211900000000002            2  01169097082111082100000002180960000000001N010821000000000000000000000000000000000000000000000000000000000000000100016909746805EDIVALDO SANTANA DOS SANTOS             ESTRADA JOAO GASPAR DELGADO - 80 AP.213             08536100                                                            000095
2SR. CAIXA, APOS O VENCIMENTO COBRAR 2% DE MULTA                                 NAO RECEBER APOS 30 DIAS DO VENCIMENTO.                                                                                                                                                                                                         01082100000000000000108210000000000000       0090339900006270169097082119000096
100000000000000000000009033990000627000000000000000000000000010002020022036008211600000000002            2  01220360082109082100000003386810000000001N010821000000000000000000000000000000000000000000000000000000000000000100022036003818DERLIS TERAN QUIROGA ROGATO             RUA JOAO RIBEIRO - 320 AP.131SB - CAMPES            09070250                                                            000098
2SR. CAIXA, APOS O VENCIMENTO COBRAR 2% DE MULTA                                 NAO RECEBER APOS 30 DIAS DO VENCIMENTO.                                                                                                                                                                                                         01082100000000000000108210000000000000       0090339900006270220360082116000099
100000000000000000000009033990000627000000000000000000000000010002020017229708213000000000002            2  01172297082109082100000003268580000000001N010821000000000000000000000000000000000000000000000000000000000000000100017229751802BERENICE VIEIRA KERSTING                RUA ATIBAIA - 17 AP.417 - BAIRRO IMPERAD            11707380                                                            000101
2SR. CAIXA, APOS O VENCIMENTO COBRAR 2% DE MULTA                                 NAO RECEBER APOS 30 DIAS DO VENCIMENTO.                                                                                                                                                                                                         01082100000000000000108210000000000000       0090339900006270172297082130000102
100000000000000000000009033990000627000000000000000000000000010002020012475608211P00000000002            2  01124756082111082100000002364050000000001N010821000000000000000000000000000000000000000000000000000000000000000100012475663820CELIDALVA GOES DE CARVALHO              RUA JOSE CALIXTO DO CARMO - 286 AP.91 -             11702690                                                            000104
2SR. CAIXA, APOS O VENCIMENTO COBRAR 2% DE MULTA                                 NAO RECEBER APOS 30 DIAS DO VENCIMENTO.                                                                                                                                                                                                         01082100000000000000108210000000000000       009033990000627012475608211P000105
100000000000000000000009033990000627000000000000000000000000010002020033451608211700000000002            2  01334516082111082100000001974130000000001N010821000000000000000000000000000000000000000000000000000000000000000100033451620839ARAO ELISIARIO  NUNES                   RUA JOSE CALIXTO DO CARMO - 286 AP.64 -             11702690                                                            000107
2SR. CAIXA, APOS O VENCIMENTO COBRAR 2% DE MULTA                                 NAO RECEBER APOS 30 DIAS DO VENCIMENTO.                                                                                                                                                                                                         01082100000000000000108210000000000000       0090339900006270334516082117000108
100000000000000000000009033990000627000000000000000000000000010002020095758208211700000000002            2  01957582082111082100000002400810000000001N010821000000000000000000000000000000000000000000000000000000000000000100095758275891SHIRLEY TUNES ASTOLFI                   RUA GUAPERUVU - 656 AP.84 - VILA ARICAND            03504010                                                            000110
2SR. CAIXA, APOS O VENCIMENTO COBRAR 2% DE MULTA                                 NAO RECEBER APOS 30 DIAS DO VENCIMENTO.                                                                                                                                                                                                         01082100000000000000108210000000000000       0090339900006270957582082117000111
100000000000000000000009033990000627000000000000000000000000010002020045839208211400000000002            2  01458392082111082100000001532280000000001N010821000000000000000000000000000000000000000000000000000000000000000100045839263834LEONARDO ANTONIO CONCELLIERI            RUA JOSE CALIXTO DO CARMO - 286 AP.51 -             11702690                                                            000113
2SR. CAIXA, APOS O VENCIMENTO COBRAR 2% DE MULTA                                 NAO RECEBER APOS 30 DIAS DO VENCIMENTO.                                                                                                                                                                                                         01082100000000000000108210000000000000       0090339900006270458392082114000114
100000000000000000000009033990000627000000000000000000000000010002020011369108211500000000002            2  01113691082111082100000002156500000000001N010821000000000000000000000000000000000000000000000000000000000000000100011369165803ELIANA CORREA DE OLIVEIRA               RUA MAESTRO ZEFERINO SANTANA - 65 - VILA            18040010                                                            000116
2SR. CAIXA, APOS O VENCIMENTO COBRAR 2% DE MULTA                                 NAO RECEBER APOS 30 DIAS DO VENCIMENTO.                                                                                                                                                                                                         01082100000000000000108210000000000000       0090339900006270113691082115000117
100000000000000000000009033990000627000000000000000000000000010002020002253808211900000000002            2  01022538082111082100000001916710000000001N010821000000000000000000000000000000000000000000000000000000000000000100002253816809EDMILSON ALVES DA SILVA                 RUA JOSE CALIXTO DO CARMO - 286 AP.93 -             11702690                                                            000119
2SR. CAIXA, APOS O VENCIMENTO COBRAR 2% DE MULTA                                 NAO RECEBER APOS 30 DIAS DO VENCIMENTO.                                                                                                                                                                                                         01082100000000000000108210000000000000       0090339900006270022538082119000120
100000000000000000000009033990000627000000000000000000000000010002020037947008211000000000002            2  01379470082111082100000003404200000000001N010821000000000000000000000000000000000000000000000000000000000000000100037947070873BRUNO DE CAETANO MARRINHAS              AVENIDA GENERAL BARRETO DE MENEZES - 323            09791150                                                            000122
2SR. CAIXA, APOS O VENCIMENTO COBRAR 2% DE MULTA                                 NAO RECEBER APOS 30 DIAS DO VENCIMENTO.                                                                                                                                                                                                         01082100000000000000108210000000000000       0090339900006270379470082110000123
100000000000000000000009033990000627000000000000000000000000010002020037517708211900000000002            2  01375177082109082100000003592240000000001N010821000000000000000000000000000000000000000000000000000000000000000100037517785869RENATO JOSE DE LIMA MELO                RUA ARISTIDES LOBO - 148 AP.41 BLOCO 03             03041100                                                            000125
2SR. CAIXA, APOS O VENCIMENTO COBRAR 2% DE MULTA                                 NAO RECEBER APOS 30 DIAS DO VENCIMENTO.                                                                                                                                                                                                         01082100000000000000108210000000000000       0090339900006270375177082119000126
100000000000000000000009033990000627000000000000000000000000010002020070367908211P00000000002            2  01703679082111082100000001799900000000001N010821000000000000000000000000000000000000000000000000000000000000000100070367949849TEODOMIRO ALVES DOS SANTOS              RUA ANDRE PAZ - 13 - JARDIM SANTO ANDRE             08390230                                                            000128
2SR. CAIXA, APOS O VENCIMENTO COBRAR 2% DE MULTA                                 NAO RECEBER APOS 30 DIAS DO VENCIMENTO.                                                                                                                                                                                                         01082100000000000000108210000000000000       009033990000627070367908211P000129
100000000000000000000009033990000627000000000000000000000000010002020004410808211900000000002            2  01044108082109082100000002669060000000001N010821000000000000000000000000000000000000000000000000000000000000000100004410802860LUIZ ALBERTO MARINHO                    RUA DA INDEPENDENCIA - 706 AP.41B - CAMB            01524000                                                            000131
2SR. CAIXA, APOS O VENCIMENTO COBRAR 2% DE MULTA                                 NAO RECEBER APOS 30 DIAS DO VENCIMENTO.                                                                                                                                                                                                         01082100000000000000108210000000000000       0090339900006270044108082119000132
100000000000000000000009033990000627000000000000000000000000010002020018035008211600000000002            2  01180350082111082100000002408990000000001N010821000000000000000000000000000000000000000000000000000000000000000100018035075861ROSANGELA BISPO SANTOS                  RUA CASSIANO GABUS MENDES - 292 - JD. CA            09896160                                                            000134
2SR. CAIXA, APOS O VENCIMENTO COBRAR 2% DE MULTA                                 NAO RECEBER APOS 30 DIAS DO VENCIMENTO.                                                                                                                                                                                                         01082100000000000000108210000000000000       0090339900006270180350082116000135
100000000000000000000009033990000627000000000000000000000000010002020004767608212200000000002            2  01047676082109082100000003563160000000001N010821000000000000000000000000000000000000000000000000000000000000000100004767679893ORLANDO GRANDE FILHO                    RUA ORLANDO MIGLIARI - 101 - JARDIM OURO            19906140                                                            000137
2SR. CAIXA, APOS O VENCIMENTO COBRAR 2% DE MULTA                                 NAO RECEBER APOS 30 DIAS DO VENCIMENTO.                                                                                                                                                                                                         01082100000000000000108210000000000000       0090339900006270047676082122000138
100000000000000000000009033990000627000000000000000000000000010002020064677808211P00000000002            2  01646778082109082100000002866280000000001N010821000000000000000000000000000000000000000000000000000000000000000100064677850887ANTONIO CARLOS DE OLIVEIRA              RUA DR.ANTONIO MAZILLI FILHO - 435 - PAR            02230070                                                            000140
2SR. CAIXA, APOS O VENCIMENTO COBRAR 2% DE MULTA                                 NAO RECEBER APOS 30 DIAS DO VENCIMENTO.                                                                                                                                                                                                         01082100000000000000108210000000000000       009033990000627064677808211P000141
100000000000000000000009033990000627000000000000000000000000010002020007328908211500000000002            2  01073289082109082100000003497030000000001N010821000000000000000000000000000000000000000000000000000000000000000100007328927836BENEDITO APARECIDO ROCHA                AVENIDA SENADOR JOSE ERMINIO DE MORAES -            02357002                                                            000143
2SR. CAIXA, APOS O VENCIMENTO COBRAR 2% DE MULTA                                 NAO RECEBER APOS 30 DIAS DO VENCIMENTO.                                                                                                                                                                                                         01082100000000000000108210000000000000       0090339900006270073289082115000144
100000000000000000000009033990000627000000000000000000000000010002020028082608211400000000002            2  01280826082111082100000001998340000000001N010821000000000000000000000000000000000000000000000000000000000000000100028082615869PRISCILA PEREIRA                        ALAMEDA AFONSO BOCCHIGLIERI - 184 - INTE            04445130                                                            000146
2SR. CAIXA, APOS O VENCIMENTO COBRAR 2% DE MULTA                                 NAO RECEBER APOS 30 DIAS DO VENCIMENTO.                                                                                                                                                                                                         01082100000000000000108210000000000000       0090339900006270280826082114000147
100000000000000000000009033990000627000000000000000000000000010002020013184808211200000000002            2  01131848082111082100000002072270000000001N010821000000000000000000000000000000000000000000000000000000000000000100013184856810SYDNEY HENRIQUE GAMARANO JUNIOR         RUA JOSE CALIXTO DO CARMO - 286 AP.125 -            11702690                                                            000149
2SR. CAIXA, APOS O VENCIMENTO COBRAR 2% DE MULTA                                 NAO RECEBER APOS 30 DIAS DO VENCIMENTO.                                                                                                                                                                                                         01082100000000000000108210000000000000       0090339900006270131848082112000150
100000000000000000000009033990000627000000000000000000000000010002020058488608211200000000002            2  01584886082109082100000002614260000000001N010821000000000000000000000000000000000000000000000000000000000000000100058488618972ADAILTON ZANUTTO MORESCHI               R:RAPHAEL UNGARO - COND.RESERVA SERRA Q.            13212138                                                            000152
2SR. CAIXA, APOS O VENCIMENTO COBRAR 2% DE MULTA                                 NAO RECEBER APOS 30 DIAS DO VENCIMENTO.                                                                                                                                                                                                         01082100000000000000108210000000000000       0090339900006270584886082112000153
100000000000000000000009033990000627000000000000000000000000010002020040194808211700000000002            2  01401948082109082100000003471430000000001N010821000000000000000000000000000000000000000000000000000000000000000100040194815803JULIANA SANTOS PENSSE                   RUA SALVADOR SOARES - 85 - QUINHOES DA B            13190240                                                            000155
2SR. CAIXA, APOS O VENCIMENTO COBRAR 2% DE MULTA                                 NAO RECEBER APOS 30 DIAS DO VENCIMENTO.                                                                                                                                                                                                         01082100000000000000108210000000000000       0090339900006270401948082117000156
100000000000000000000009033990000627000000000000000000000000010002020011381908211300000000002            2  01113819082109082100000002770170000000001N010821000000000000000000000000000000000000000000000000000000000000000100011381987818MARIO DONIZETE MIGUEL DA SILVA          RUA JASPE - 215 - NOVA HIGIANOPOLIS - JA            06642270                                                            000158
2SR. CAIXA, APOS O VENCIMENTO COBRAR 2% DE MULTA                                 NAO RECEBER APOS 30 DIAS DO VENCIMENTO.                                                                                                                                                                                                         01082100000000000000108210000000000000       0090339900006270113819082113000159
100000000000000000000009033990000627000000000000000000000000010002020002196008211700000000002            2  01021960082111082100000001965700000000001N010821000000000000000000000000000000000000000000000000000000000000000100002196012831VILEFORT DIAS BORGES                    RUA PORTO XAVIER - 189 AP.64 - VILA CARM            08210170                                                            000161
2SR. CAIXA, APOS O VENCIMENTO COBRAR 2% DE MULTA                                 NAO RECEBER APOS 30 DIAS DO VENCIMENTO.                                                                                                                                                                                                         01082100000000000000108210000000000000       0090339900006270021960082117000162
100000000000000000000009033990000627000000000000000000000000010002020031861508211500000000002            2  01318615082111082100000002043120000000001N010821000000000000000000000000000000000000000000000000000000000000000100031861586809VANIA TOMAZ                             RUA MANOEL DOS REIS MACHADO - 557 - JARD            13221653                                                            000164
2SR. CAIXA, APOS O VENCIMENTO COBRAR 2% DE MULTA                                 NAO RECEBER APOS 30 DIAS DO VENCIMENTO.                                                                                                                                                                                                         01082100000000000000108210000000000000       0090339900006270318615082115000165
100000000000000000000009033990000627000000000000000000000000010002020003104508211900000000002            2  01031045082109082100000007610020000000001N010821000000000000000000000000000000000000000000000000000000000000000100003104580804NELSON RODRIGUES                        RUA AGUA SANTA - 114 - AGUA RASA - SAO P            03179110                                                            000167
2SR. CAIXA, APOS O VENCIMENTO COBRAR 2% DE MULTA                                 NAO RECEBER APOS 30 DIAS DO VENCIMENTO.                                                                                                                                                                                                         01082100000000000000108210000000000000       0090339900006270031045082119000168
100000000000000000000009033990000627000000000000000000000000010002020007715308211700000000002            2  01077153082109082100000003215230000000001N010821000000000000000000000000000000000000000000000000000000000000000100007715360627NILTON RENNAN OLIVEIRA GOMES FILHO      RUA CARLOS JOSE BORSTENS - 50 AP.21 - AV            11702750                                                            000170
2SR. CAIXA, APOS O VENCIMENTO COBRAR 2% DE MULTA                                 NAO RECEBER APOS 30 DIAS DO VENCIMENTO.                                                                                                                                                                                                         01082100000000000000108210000000000000       0090339900006270077153082117000171
100000000000000000000009033990000627000000000000000000000000010002020029028408211800000000002            2  01290284082109082100000001332110000000001N010821000000000000000000000000000000000000000000000000000000000000000100029028478825LEONARDO LOUZADA                        RUA CARLOS JOSE BORSTENS - 50 AP.35 - AV            11702750                                                            000173
2SR. CAIXA, APOS O VENCIMENTO COBRAR 2% DE MULTA                                 NAO RECEBER APOS 30 DIAS DO VENCIMENTO.                                                                                                                                                                                                         01082100000000000000108210000000000000       0090339900006270290284082118000174
100000000000000000000009033990000627000000000000000000000000010002020007194008211800000000002            2  01071940082111082100000002284720000000001N010821000000000000000000000000000000000000000000000000000000000000000100007194010895RAUL AMANTINO KIRK DE SANCTIS           AVENIDA SANTA CATARINA - 756 AP.01 - VIL            04378000                                                            000176
2SR. CAIXA, APOS O VENCIMENTO COBRAR 2% DE MULTA                                 NAO RECEBER APOS 30 DIAS DO VENCIMENTO.                                                                                                                                                                                                         01082100000000000000108210000000000000       0090339900006270071940082118000177
9                                                                                                                                                                                                                                                                                                                                                                                                         000178