01REMESSA01COBRANCA       00000000000005623874H B SANTOS CONSTRUTORA E INCOR237BRADESCO       071223        MX0000004                                                                                                                                                                                                                                                                                     000001
100000000000000000000009033990001086300000000000000000000000010002100087902712231500000000002            2  01879027122310122300000003373370000000001N011223000000000000000000000000000000000000000000000000000000000000000100087902737887WAGNER CERQUEIRA VILA NOVA              RUA JOAQUIM FERREIRA - 124 AP.211 T.01 -            05033080                                                            000002
2SR. CAIXA, APOS O VENCIMENTO COBRAR 10% DE MULTA                                NAO RECEBER APOS 30 DIAS DO VENCIMENTO.                                                                                                                                                                                                         07122300000000000000712230000000000000       0090339900010863879027122315000003
100000000000000000000009033990001086300000000000000000000000010002100015095612231100000000002            2  01150956122310122300000003135010000000001N011223000000000000000000000000000000000000000000000000000000000000000100015095698803MARCOS CESAR SOUZA SENA                 RUA SALVADOR PELUSO BASILE - 381 - JARDI            06755010                                                            000005
2SR. CAIXA, APOS O VENCIMENTO COBRAR 10% DE MULTA                                NAO RECEBER APOS 30 DIAS DO VENCIMENTO.                                                                                                                                                                                                         07122300000000000000712230000000000000       0090339900010863150956122311000006
100000000000000000000009033990001086300000000000000000000000010002100011947912231800000000002            2  01119479122310122300000003073020000000001N011223000000000000000000000000000000000000000000000000000000000000000100011947951882DECIO VITORINO DOS SANTOS               RUA GREGORIA DE FREGEL - 380 AP.21 BL24             09811430                                                            000008
2SR. CAIXA, APOS O VENCIMENTO COBRAR 10% DE MULTA                                NAO RECEBER APOS 30 DIAS DO VENCIMENTO.                                                                                                                                                                                                         07122300000000000000712230000000000000       0090339900010863119479122318000009
100000000000000000000009033990001086300000000000000000000000010002100000181212231100000000002            2  01001812122310122300000002763360000000001N011223000000000000000000000000000000000000000000000000000000000000000100000181223023DARLIN SANTA CATARINA                   RUA S-13 QUADRA 60 LR 08 - 750 - SETOR S            77425090                                                            000011
2SR. CAIXA, APOS O VENCIMENTO COBRAR 10% DE MULTA                                NAO RECEBER APOS 30 DIAS DO VENCIMENTO.                                                                                                                                                                                                         07122300000000000000712230000000000000       0090339900010863001812122311000012
100000000000000000000009033990001086300000000000000000000000010002100035839612231000000000002            2  01358396122310122300000003208910000000001N011223000000000000000000000000000000000000000000000000000000000000000100035839657875JUNIOR SILVA TEODORO DOS SANTOS         RUA ARMANDO DE SALLES OLIVEIRA - 123 AP.            11510020                                                            000014
2SR. CAIXA, APOS O VENCIMENTO COBRAR 10% DE MULTA                                NAO RECEBER APOS 30 DIAS DO VENCIMENTO.                                                                                                                                                                                                         07122300000000000000712230000000000000       0090339900010863358396122310000015
100000000000000000000009033990001086300000000000000000000000010002100094315412231600000000002            2  01943154122310122300000003236360000000001N011223000000000000000000000000000000000000000000000000000000000000000100094315493872HUGO LUIS ALEJANDRO GUIMERANS           RUA GUARANIS - 448 AP87 - VILA TUPI - PR            11703080                                                            000017
2SR. CAIXA, APOS O VENCIMENTO COBRAR 10% DE MULTA                                NAO RECEBER APOS 30 DIAS DO VENCIMENTO.                                                                                                                                                                                                         07122300000000000000712230000000000000       0090339900010863943154122316000018
100000000000000000000009033990001086300000000000000000000000010002100030898212231400000000002            2  01308982122310122300000002927760000000001N011223000000000000000000000000000000000000000000000000000000000000000100030898241839LUIZ DANIEL CANNITO                     RUA FOZ DO DOURO - 195 CASA 01 - JARDIM             03924080                                                            000020
2SR. CAIXA, APOS O VENCIMENTO COBRAR 10% DE MULTA                                NAO RECEBER APOS 30 DIAS DO VENCIMENTO.                                                                                                                                                                                                         07122300000000000000712230000000000000       0090339900010863308982122314000021
100000000000000000000009033990001086300000000000000000000000010002100029145912231900000000002            2  01291459122310122300000002816150000000001N011223000000000000000000000000000000000000000000000000000000000000000100029145931801REINALDO BISPO JUNIOR                   RUA HERMANN TELEZ RIBEIRO - 352 - VILA I            03348010                                                            000023
2SR. CAIXA, APOS O VENCIMENTO COBRAR 10% DE MULTA                                NAO RECEBER APOS 30 DIAS DO VENCIMENTO.                                                                                                                                                                                                         07122300000000000000712230000000000000       0090339900010863291459122319000024
100000000000000000000009033990001086300000000000000000000000010002100013387212231400000000002            2  01133872122310122300000003124910000000001N011223000000000000000000000000000000000000000000000000000000000000000100013387212836CARLOS MARTINS DOS SANTOS               RUA CASTRO ALVES - 17 AP.21 - BAIRRO EMB            11040191                                                            000026
2SR. CAIXA, APOS O VENCIMENTO COBRAR 10% DE MULTA                                NAO RECEBER APOS 30 DIAS DO VENCIMENTO.                                                                                                                                                                                                         07122300000000000000712230000000000000       0090339900010863133872122314000027
100000000000000000000009033990001086300000000000000000000000010002100002252112231100000000002            2  01022521122310122300000000020000000000001N011223000000000000000000000000000000000000000000000000000000000000000100002252149892AIRES MOTA DOS SANTOS                   AVENIDA BRASIL - 600 - AVIACAO - PRAIA G            11701090                                                            000029
2SR. CAIXA, APOS O VENCIMENTO COBRAR 10% DE MULTA                                NAO RECEBER APOS 30 DIAS DO VENCIMENTO.                                                                                                                                                                                                         07122300000000000000712230000000000000       0090339900010863022521122311000030
9                                                                                                                                                                                                                                                                                                                                                                                                         000031