01REMESSA01COBRANCA       00000000000004991781AIRES CONSTRUTORA E INCORPORAD237BRADESCO       100119        MX0000112                                                                                                                                                                                                                                                                                     000001
100000000000000000000009077090006612500000000000000000000000010002100001224501191200000000002            2  01012245011925011900000003521060000000001N100119000000000000000000000000000000000000000000000000000000000000000100001224509579REINALDO JUNIOR MARTINS DE ABREU        AVENIDA INTERLAGOS - 7.224 - INTERLAGOS             04777000                                                            000002
2SR. CAIXA, APOS O VENCIMENTO COBRAR 10% DE MULTA                                NAO RECEBER APOS 30 DIAS DO VENCIMENTO.                                                                                                                                                                                                         10011900000000000001001190000000000000       0090770900066125012245011912000003
100000000000000000000009077090006612500000000000000000000000010002100003325101191300000000002            2  01033251011925011900000003424460000000001N100119000000000000000000000000000000000000000000000000000000000000000100003325102808MARCOS DE OLIVEIRA JUNIOR               RUA LUIS NOVELLETO - 91 - PARQUE CONTINE            05324080                                                            000005
2SR. CAIXA, APOS O VENCIMENTO COBRAR 10% DE MULTA                                NAO RECEBER APOS 30 DIAS DO VENCIMENTO.                                                                                                                                                                                                         10011900000000000001001190000000000000       0090770900066125033251011913000006
100000000000000000000009077090006612500000000000000000000000010002100016338901191500000000002            2  01163389011925011900000003474160000000001N100119000000000000000000000000000000000000000000000000000000000000000100016338929806EDVALDO DA SILVA ANDRADE                RUA ARIA - 434 - PARQUE ALVES DE LIMA -             04902170                                                            000008
2SR. CAIXA, APOS O VENCIMENTO COBRAR 10% DE MULTA                                NAO RECEBER APOS 30 DIAS DO VENCIMENTO.                                                                                                                                                                                                         10011900000000000001001190000000000000       0090770900066125163389011915000009
100000000000000000000009077090006612500000000000000000000000010002100026836901191500000000002            2  01268369011925011900000003146100000000001N100119000000000000000000000000000000000000000000000000000000000000000100026836908860VANDERLEI FIGUEIREDO DE CARVALHO        RUA TUPI - 840 - VILA TUPI - PRAIA GRAND            11703260                                                            000011
2SR. CAIXA, APOS O VENCIMENTO COBRAR 10% DE MULTA                                NAO RECEBER APOS 30 DIAS DO VENCIMENTO.                                                                                                                                                                                                         10011900000000000001001190000000000000       0090770900066125268369011915000012
100000000000000000000009077090006612500000000000000000000000010002100059861501191100000000002            2  01598615011925011900000003494450000000001N100119000000000000000000000000000000000000000000000000000000000000000100059861576800REINALDO LOPES DE OLIVEIRA              RUA DA SERVIDAO - 40 - VILA ROSCHEL - SA            04891045                                                            000014
2SR. CAIXA, APOS O VENCIMENTO COBRAR 10% DE MULTA                                NAO RECEBER APOS 30 DIAS DO VENCIMENTO.                                                                                                                                                                                                         10011900000000000001001190000000000000       0090770900066125598615011911000015
100000000000000000000009077090006612500000000000000000000000010002100016330901191P00000000002            2  01163309011925011900000003473280000000001N100119000000000000000000000000000000000000000000000000000000000000000100016330938830KARINA CORDEIRO PIASSA                  CONDE MOREIRA LIMA - 644 - JARDIM JABAQU            04384032                                                            000017
2SR. CAIXA, APOS O VENCIMENTO COBRAR 10% DE MULTA                                NAO RECEBER APOS 30 DIAS DO VENCIMENTO.                                                                                                                                                                                                         10011900000000000001001190000000000000       009077090006612516330901191P000018
100000000000000000000009077090006612500000000000000000000000010002100077027601191200000000002            2  01770276011925011900000003375760000000001N100119000000000000000000000000000000000000000000000000000000000000000100077027604868CLINEU LISSONI                          AVENIDA VILA EMA - 1100 AP.41 - VILA PRU            03156000                                                            000020
2SR. CAIXA, APOS O VENCIMENTO COBRAR 10% DE MULTA                                NAO RECEBER APOS 30 DIAS DO VENCIMENTO.                                                                                                                                                                                                         10011900000000000001001190000000000000       0090770900066125770276011912000021
100000000000000000000009077090006612500000000000000000000000010002100029380701191P00000000002            2  01293807011925011900000003146290000000001N100119000000000000000000000000000000000000000000000000000000000000000100029380708882EDUARDO MENDONCA DAMASCENO              RUA MONTE CASTELO - 296 AP.12 - AVIACAO             11702720                                                            000023
2SR. CAIXA, APOS O VENCIMENTO COBRAR 10% DE MULTA                                NAO RECEBER APOS 30 DIAS DO VENCIMENTO.                                                                                                                                                                                                         10011900000000000001001190000000000000       009077090006612529380701191P000024
100000000000000000000009077090006612500000000000000000000000010002100023988501191300000000002            2  01239885011925011900000003194710000000001N100119000000000000000000000000000000000000000000000000000000000000000100023988525634DALMY PIMENTA                           SAO CAETANO - 136 - VILA SAO VICENTE - U            38026220                                                            000026
2SR. CAIXA, APOS O VENCIMENTO COBRAR 10% DE MULTA                                NAO RECEBER APOS 30 DIAS DO VENCIMENTO.                                                                                                                                                                                                         10011900000000000001001190000000000000       0090770900066125239885011913000027
100000000000000000000009077090006612500000000000000000000000010002100004735201191500000000002            2  01047352011925011900000003473490000000001N100119000000000000000000000000000000000000000000000000000000000000000100004735273832DARIO LUIZ GONCALVES                    RUA MONTE CASTELO - 295 AP.113 - AVIACAO            11702720                                                            000029
2SR. CAIXA, APOS O VENCIMENTO COBRAR 10% DE MULTA                                NAO RECEBER APOS 30 DIAS DO VENCIMENTO.                                                                                                                                                                                                         10011900000000000001001190000000000000       0090770900066125047352011915000030
100000000000000000000009077090006612500000000000000000000000010002100007635201191500000000002            2  01076352011925011900000003105510000000001N100119000000000000000000000000000000000000000000000000000000000000000100007635293893SILVIO CARDOSO ZACARIAS                 RUA SOLIDONIO LEITE - 2718 AP.102 BLOCO             03275000                                                            000032
2SR. CAIXA, APOS O VENCIMENTO COBRAR 10% DE MULTA                                NAO RECEBER APOS 30 DIAS DO VENCIMENTO.                                                                                                                                                                                                         10011900000000000001001190000000000000       0090770900066125076352011915000033
100000000000000000000009077090006612500000000000000000000000010002100067192901191500000000002            2  01671929011925011900000003040210000000001N100119000000000000000000000000000000000000000000000000000000000000000100067192920800SONIA MARIA RIBEIRO SUDO                RUA INGAZEIRA - 133 - SAO MIGUEL - SAO P            08032080                                                            000035
2SR. CAIXA, APOS O VENCIMENTO COBRAR 10% DE MULTA                                NAO RECEBER APOS 30 DIAS DO VENCIMENTO.                                                                                                                                                                                                         10011900000000000001001190000000000000       0090770900066125671929011915000036
100000000000000000000009077090006612500000000000000000000000010002100007975901191900000000002            2  01079759011925011900000003378630000000001N100119000000000000000000000000000000000000000000000000000000000000000100007975958808JOCY VIGNADO                            RUA PEDRO GONCALVES SOBRINHO - 568 - PAR            13098641                                                            000038
2SR. CAIXA, APOS O VENCIMENTO COBRAR 10% DE MULTA                                NAO RECEBER APOS 30 DIAS DO VENCIMENTO.                                                                                                                                                                                                         10011900000000000001001190000000000000       0090770900066125079759011919000039
100000000000000000000009077090006612500000000000000000000000010002100036712501191100000000002            2  01367125011925011900000003159150000000001N100119000000000000000000000000000000000000000000000000000000000000000100036712580803WALTER BARRETO DE ALMEIDA               RUA MONTE CASTELO - 296 AP.44 - AVIACAO             11702720                                                            000041
2SR. CAIXA, APOS O VENCIMENTO COBRAR 10% DE MULTA                                NAO RECEBER APOS 30 DIAS DO VENCIMENTO.                                                                                                                                                                                                         10011900000000000001001190000000000000       0090770900066125367125011911000042
100000000000000000000009077090006612500000000000000000000000010002100036386801191000000000002            2  01363868011925011900000003568340000000001N100119000000000000000000000000000000000000000000000000000000000000000100036386861833ALINE LEE WEI DE SOUZA                  AV. PRES.CASTELO BRANCO - 9127 AP.251 BL            11704600                                                            000044
2SR. CAIXA, APOS O VENCIMENTO COBRAR 10% DE MULTA                                NAO RECEBER APOS 30 DIAS DO VENCIMENTO.                                                                                                                                                                                                         10011900000000000001001190000000000000       0090770900066125363868011910000045
100000000000000000000009077090006612500000000000000000000000010002100070465301191100000000002            2  01704653011925011900000003245860000000001N100119000000000000000000000000000000000000000000000000000000000000000100070465320953SIDNEY CARASKI                          RUA DR.CELSO PACHECO BENTIM - 502 - PARQ            03571020                                                            000047
2SR. CAIXA, APOS O VENCIMENTO COBRAR 10% DE MULTA                                NAO RECEBER APOS 30 DIAS DO VENCIMENTO.                                                                                                                                                                                                         10011900000000000001001190000000000000       0090770900066125704653011911000048
100000000000000000000009077090006612500000000000000000000000010002100075759401191700000000002            2  01757594011925011900000002541780000000001N100119000000000000000000000000000000000000000000000000000000000000000100075759446800VALTER MUTAFEI                          RUA MONTE CASTELO - 295 AP.54 - AVIACAO             11702720                                                            000050
2SR. CAIXA, APOS O VENCIMENTO COBRAR 10% DE MULTA                                NAO RECEBER APOS 30 DIAS DO VENCIMENTO.                                                                                                                                                                                                         10011900000000000001001190000000000000       0090770900066125757594011917000051
100000000000000000000009077090006612500000000000000000000000010002100070328701191500000000002            2  01703287011925011900000003631580000000001N100119000000000000000000000000000000000000000000000000000000000000000100070328706868VALTER LIMA FERNANDES                   RUA DOMINGOS JORGE VELHO - 52 - CENTRO -            06843550                                                            000053
2SR. CAIXA, APOS O VENCIMENTO COBRAR 10% DE MULTA                                NAO RECEBER APOS 30 DIAS DO VENCIMENTO.                                                                                                                                                                                                         10011900000000000001001190000000000000       0090770900066125703287011915000054
100000000000000000000009077090006612500000000000000000000000010002100023132601191000000000002            2  01231326011925011900000001972640000000001N100119000000000000000000000000000000000000000000000000000000000000000100023132672882LEANDRO MORENO                          RUA MONTE CASTELO - 296 AP.64 - AVIACAO             11702720                                                            000056
2SR. CAIXA, APOS O VENCIMENTO COBRAR 10% DE MULTA                                NAO RECEBER APOS 30 DIAS DO VENCIMENTO.                                                                                                                                                                                                         10011900000000000001001190000000000000       0090770900066125231326011910000057
100000000000000000000009077090006612500000000000000000000000010002100099264601191P00000000002            2  01992646011925011900000003364130000000001N100119000000000000000000000000000000000000000000000000000000000000000100099264692800LEONTINO PINHEIRO DA SILVA              AVENIDA JOAO BATISTA FITIPALDI - 469 - V            08685000                                                            000059
2SR. CAIXA, APOS O VENCIMENTO COBRAR 10% DE MULTA                                NAO RECEBER APOS 30 DIAS DO VENCIMENTO.                                                                                                                                                                                                         10011900000000000001001190000000000000       009077090006612599264601191P000060
100000000000000000000009077090006612500000000000000000000000010002100000666301191000000000002            2  01006663011925011900000003245460000000001N100119000000000000000000000000000000000000000000000000000000000000000100000666344825LUIZ HENRIQUE DE CAMPOS                 RUA JOAO CARLOS CAVALCANTI REIS - 21 - J            02281206                                                            000062
2SR. CAIXA, APOS O VENCIMENTO COBRAR 10% DE MULTA                                NAO RECEBER APOS 30 DIAS DO VENCIMENTO.                                                                                                                                                                                                         10011900000000000001001190000000000000       0090770900066125006663011910000063
100000000000000000000009077090006612500000000000000000000000010002100029155001191000000000002            2  01291550011925011900000003427330000000001N100119000000000000000000000000000000000000000000000000000000000000000100029155026842DANIELA YOSHIDA                         RUA MONTE CASTELO - 262 AP.34 - AVIACAO             11702720                                                            000065
2SR. CAIXA, APOS O VENCIMENTO COBRAR 10% DE MULTA                                NAO RECEBER APOS 30 DIAS DO VENCIMENTO.                                                                                                                                                                                                         10011900000000000001001190000000000000       0090770900066125291550011910000066
100000000000000000000009077090006612500000000000000000000000010002100001204401191400000000002            2  01012044011925011900000002791060000000001N100119000000000000000000000000000000000000000000000000000000000000000100001204431809CEZAR TALAVERA JUNIOR                   RUA MAESTRO ARTURO DE ANGELIS  - 190 AP.            05139010                                                            000068
2SR. CAIXA, APOS O VENCIMENTO COBRAR 10% DE MULTA                                NAO RECEBER APOS 30 DIAS DO VENCIMENTO.                                                                                                                                                                                                         10011900000000000001001190000000000000       0090770900066125012044011914000069
100000000000000000000009077090006612500000000000000000000000010002100004227501191300000000002            2  01042275011925011900000003618070000000001N100119000000000000000000000000000000000000000000000000000000000000000100004227553970ALESSANDRO ISRAEL GOULART               RUA PROFESSORA CARLINDA RIBEIRO - 21 - F            02866200                                                            000071
2SR. CAIXA, APOS O VENCIMENTO COBRAR 10% DE MULTA                                NAO RECEBER APOS 30 DIAS DO VENCIMENTO.                                                                                                                                                                                                         10011900000000000001001190000000000000       0090770900066125042275011913000072
100000000000000000000009077090006612500000000000000000000000010002100060811401191700000000002            2  01608114011925011900000003334470000000001N100119000000000000000000000000000000000000000000000000000000000000000100060811420868HELIO BASSI                             AV.PARIS,575 - PRACA ANTONIO FIGUEROA -             11700082                                                            000074
2SR. CAIXA, APOS O VENCIMENTO COBRAR 10% DE MULTA                                NAO RECEBER APOS 30 DIAS DO VENCIMENTO.                                                                                                                                                                                                         10011900000000000001001190000000000000       0090770900066125608114011917000075
100000000000000000000009077090006612500000000000000000000000010002100001024701191700000000002            2  01010247011925011900000003155300000000001N100119000000000000000000000000000000000000000000000000000000000000000100001024794881CLAUDIO RODRIGUES                       RUA ARACATUBA - 242 - LAPA - SAO PAULO -            05058010                                                            000077
2SR. CAIXA, APOS O VENCIMENTO COBRAR 10% DE MULTA                                NAO RECEBER APOS 30 DIAS DO VENCIMENTO.                                                                                                                                                                                                         10011900000000000001001190000000000000       0090770900066125010247011917000078
100000000000000000000009077090006612500000000000000000000000010002100002225001191800000000002            2  01022250011925011900000004837490000000001N100119000000000000000000000000000000000000000000000000000000000000000100002225072841PEDRO EDUARDO DE AZEVEDO                RUA NATH ZILMAN - 46 - JARDIM SAMAMBAIA             07600000                                                            000080
2SR. CAIXA, APOS O VENCIMENTO COBRAR 10% DE MULTA                                NAO RECEBER APOS 30 DIAS DO VENCIMENTO.                                                                                                                                                                                                         10011900000000000001001190000000000000       0090770900066125022250011918000081
100000000000000000000009077090006612500000000000000000000000010002100022037501191600000000002            2  01220375011925011900000003366360000000001N100119000000000000000000000000000000000000000000000000000000000000000100022037552882ANDREIA CRISTINA FERNANDES DANTAS       PCA CASTRO ALVES - 163 AP.33 - VILA SAO             13224299                                                            000083
2SR. CAIXA, APOS O VENCIMENTO COBRAR 10% DE MULTA                                NAO RECEBER APOS 30 DIAS DO VENCIMENTO.                                                                                                                                                                                                         10011900000000000001001190000000000000       0090770900066125220375011916000084
100000000000000000000009077090006612500000000000000000000000010002100019288701191400000000002            2  01192887011925011900000002740990000000001N100119000000000000000000000000000000000000000000000000000000000000000100019288787844EMERSON LUIZ MARTINEZ PEREIRA           RUA MONTE CASTELO - 296 AP.74 - AVIACAO             11702720                                                            000086
2SR. CAIXA, APOS O VENCIMENTO COBRAR 10% DE MULTA                                NAO RECEBER APOS 30 DIAS DO VENCIMENTO.                                                                                                                                                                                                         10011900000000000001001190000000000000       0090770900066125192887011914000087
100000000000000000000009077090006612500000000000000000000000010002100027198401191800000000002            2  01271984011925011900000002321760000000001N100119000000000000000000000000000000000000000000000000000000000000000100027198452809CRISTIANE AURELIANO DA SILVA MAIA       RUA MONTE CASTELO - 262 AP.25 - AVIACAO             11702720                                                            000089
2SR. CAIXA, APOS O VENCIMENTO COBRAR 10% DE MULTA                                NAO RECEBER APOS 30 DIAS DO VENCIMENTO.                                                                                                                                                                                                         10011900000000000001001190000000000000       0090770900066125271984011918000090
100000000000000000000009077090006612500000000000000000000000010002100021246201191100000000002            2  01212462011925011900000002833470000000001N100119000000000000000000000000000000000000000000000000000000000000000100021246231840ALEXANDRO DA CUNHA MIGUES               AVENIDA CONSELHEIRO CARRAO - 1861 CONJ.5            03403001                                                            000092
2SR. CAIXA, APOS O VENCIMENTO COBRAR 10% DE MULTA                                NAO RECEBER APOS 30 DIAS DO VENCIMENTO.                                                                                                                                                                                                         10011900000000000001001190000000000000       0090770900066125212462011911000093
100000000000000000000009077090006612500000000000000000000000010002100018834201191P00000000002            2  01188342011925011900000003309790000000001N100119000000000000000000000000000000000000000000000000000000000000000100018834257863ILTON FERNANDO MUTCHNIK                 RUA ASSUNGUI - 700 AP.222 - VILA GUMERCI            04131001                                                            000095
2SR. CAIXA, APOS O VENCIMENTO COBRAR 10% DE MULTA                                NAO RECEBER APOS 30 DIAS DO VENCIMENTO.                                                                                                                                                                                                         10011900000000000001001190000000000000       009077090006612518834201191P000096
100000000000000000000009077090006612500000000000000000000000010002100018470501191100000000002            2  01184705011925011900000004168440000000001N100119000000000000000000000000000000000000000000000000000000000000000100018470520881SILVANA ALVES DE OLIVEIRA               RUA MONTE CASTELO - 262 AP.91 - AVIACAO             11702720                                                            000098
2SR. CAIXA, APOS O VENCIMENTO COBRAR 10% DE MULTA                                NAO RECEBER APOS 30 DIAS DO VENCIMENTO.                                                                                                                                                                                                         10011900000000000001001190000000000000       0090770900066125184705011911000099
100000000000000000000009077090006612500000000000000000000000010002100009297501191100000000002            2  01092975011925011900000002902020000000001N100119000000000000000000000000000000000000000000000000000000000000000100009297523846MARCOS ROBERTO DE CASTRO FERREIRA       RUA MONTE CASTELO - 262 AP.105 - AVIACAO            11702720                                                            000101
2SR. CAIXA, APOS O VENCIMENTO COBRAR 10% DE MULTA                                NAO RECEBER APOS 30 DIAS DO VENCIMENTO.                                                                                                                                                                                                         10011900000000000001001190000000000000       0090770900066125092975011911000102
100000000000000000000009077090006612500000000000000000000000010002100001164101191000000000002            2  01011641011925011900000003596270000000001N100119000000000000000000000000000000000000000000000000000000000000000100001164158864DAVID BLEY LACERDA                      RUA CONEGO ARAUJO MARCONDES - 188 - BAIR            02550080                                                            000104
2SR. CAIXA, APOS O VENCIMENTO COBRAR 10% DE MULTA                                NAO RECEBER APOS 30 DIAS DO VENCIMENTO.                                                                                                                                                                                                         10011900000000000001001190000000000000       0090770900066125011641011910000105
100000000000000000000009077090006612500000000000000000000000010002100031498001191400000000002            2  01314980011925011900000004370760000000001N100119000000000000000000000000000000000000000000000000000000000000000100031498008895POLIANE  SIBELE DA SILVA                PRACA GENERAL COSTA BARRETO - 56 AP.181             03325070                                                            000107
2SR. CAIXA, APOS O VENCIMENTO COBRAR 10% DE MULTA                                NAO RECEBER APOS 30 DIAS DO VENCIMENTO.                                                                                                                                                                                                         10011900000000000001001190000000000000       0090770900066125314980011914000108
100000000000000000000009077090006612500000000000000000000000010002100000588101191800000000002            2  01005881011925011900000002563530000000001N100119000000000000000000000000000000000000000000000000000000000000000100000588109860JOSE LIARTE GIANTE                      AVENIDA LUIZ GONZAGA DO AMARAL - 143 - J            09320630                                                            000110
2SR. CAIXA, APOS O VENCIMENTO COBRAR 10% DE MULTA                                NAO RECEBER APOS 30 DIAS DO VENCIMENTO.                                                                                                                                                                                                         10011900000000000001001190000000000000       0090770900066125005881011918000111
100000000000000000000009077090006612500000000000000000000000010002100014386801191000000000002            2  01143868011925011900000012353880000000001N100119000000000000000000000000000000000000000000000000000000000000000100014386860134SEVERINO CARLOS DE OLIVEIRA             RUA MONTE CASTELO - 262 AP.54 - AVIACAO             11702720                                                            000113
2SR. CAIXA, APOS O VENCIMENTO COBRAR 10% DE MULTA                                NAO RECEBER APOS 30 DIAS DO VENCIMENTO.                                                                                                                                                                                                         10011900000000000001001190000000000000       0090770900066125143868011910000114
100000000000000000000009077090006612500000000000000000000000010002100014386801192900000000002            2  01143868011925011900000002050710000000001N100119000000000000000000000000000000000000000000000000000000000000000100014386860134SEVERINO CARLOS DE OLIVEIRA             RUA MONTE CASTELO - 262 AP.54 - AVIACAO             11702720                                                            000116
2SR. CAIXA, APOS O VENCIMENTO COBRAR 10% DE MULTA                                NAO RECEBER APOS 30 DIAS DO VENCIMENTO.                                                                                                                                                                                                         10011900000000000001001190000000000000       0090770900066125143868011929000117
100000000000000000000009077090006612500000000000000000000000010002100029088201191800000000002            2  01290882011925011900000002279860000000001N100119000000000000000000000000000000000000000000000000000000000000000100029088221804FABIANO SPERANDEO                       RUA MONTE CASTELO - 296 AP.93 - AVIACAO             11702720                                                            000119
2SR. CAIXA, APOS O VENCIMENTO COBRAR 10% DE MULTA                                NAO RECEBER APOS 30 DIAS DO VENCIMENTO.                                                                                                                                                                                                         10011900000000000001001190000000000000       0090770900066125290882011918000120
100000000000000000000009077090006612500000000000000000000000010002100039393701191600000000002            2  01393937011925011900000001413360000000001N100119000000000000000000000000000000000000000000000000000000000000000100039393790850NAIRON RICARDO DE ARAUJO SANTOS         RUA MONTE CASTELO - 262 AP.23 - AVIACAO             11702720                                                            000122
2SR. CAIXA, APOS O VENCIMENTO COBRAR 10% DE MULTA                                NAO RECEBER APOS 30 DIAS DO VENCIMENTO.                                                                                                                                                                                                         10011900000000000001001190000000000000       0090770900066125393937011916000123
100000000000000000000009077090006612500000000000000000000000010002100041896801191700000000002            2  01418968011925011900000002058350000000001N100119000000000000000000000000000000000000000000000000000000000000000100041896807968SERGIO ROBERTO DA SILVA                 RUA DOS INGLESES - 542 AP.61 - MORRO DOS            01329000                                                            000125
2SR. CAIXA, APOS O VENCIMENTO COBRAR 10% DE MULTA                                NAO RECEBER APOS 30 DIAS DO VENCIMENTO.                                                                                                                                                                                                         10011900000000000001001190000000000000       0090770900066125418968011917000126
9                                                                                                                                                                                                                                                                                                                                                                                                         000127