01REMESSA01COBRANCA       00000000000004991781AIRES CONSTRUTORA E INCORPORAD237BRADESCO       010618        MX0000105                                                                                                                                                                                                                                                                                     000001
100000000000000000000009077090006612500000000000000000000000010002100094852206181200000000002            2  01948522061810061800000002202980000000001N010618000000000000000000000000000000000000000000000000000000000000000100094852294887GISELDA MENON                           RUA OTAVIO BARRETO - 105 - VILA SANTISTA            02560080                                                            000002
2SR. CAIXA, APOS O VENCIMENTO COBRAR 10% DE MULTA                                NAO RECEBER APOS 30 DIAS DO VENCIMENTO.                                                                                                                                                                                                         01061800000000000000106180000000000000       0090770900066125948522061812000003
100000000000000000000009077090006612500000000000000000000000010002100006485906181900000000002            2  01064859061810061800000003378660000000001N010618000000000000000000000000000000000000000000000000000000000000000100006485911820CELIO MANUEL  MELIM SANTO               RUA JUVENAL FERREIRA  - 85 AP.61 - VILA             03512040                                                            000005
2SR. CAIXA, APOS O VENCIMENTO COBRAR 10% DE MULTA                                NAO RECEBER APOS 30 DIAS DO VENCIMENTO.                                                                                                                                                                                                         01061800000000000000106180000000000000       0090770900066125064859061819000006
100000000000000000000009077090006612500000000000000000000000010002100004693806181800000000002            2  01046938061810061800000002944750000000001N010618000000000000000000000000000000000000000000000000000000000000000100004693857823NIVALDO BARTOLOMEU FERREIRA             MNS JOSE MARINONI  - 33 - SANTO AMARO -             04430350                                                            000008
2SR. CAIXA, APOS O VENCIMENTO COBRAR 10% DE MULTA                                NAO RECEBER APOS 30 DIAS DO VENCIMENTO.                                                                                                                                                                                                         01061800000000000000106180000000000000       0090770900066125046938061818000009
100000000000000000000009077090006612500000000000000000000000010002100027993106181700000000002            2  01279931061810061800000002804060000000001N010618000000000000000000000000000000000000000000000000000000000000000100027993108853DALVA JESUS RODRIGUES CABRAL            RUA CRISTOVAO COLOMBO GONCALVES - 97 - C            04811050                                                            000011
2SR. CAIXA, APOS O VENCIMENTO COBRAR 10% DE MULTA                                NAO RECEBER APOS 30 DIAS DO VENCIMENTO.                                                                                                                                                                                                         01061800000000000000106180000000000000       0090770900066125279931061817000012
100000000000000000000009077090006612500000000000000000000000010002100000455406181600000000002            2  01004554061810061800000002912770000000001N010618000000000000000000000000000000000000000000000000000000000000000100000455495831PAULO HENRIQUE LOURENCO                 RUA FIGUEIRA  - 237 - CIDADE DAS FLORES             06184060                                                            000014
2SR. CAIXA, APOS O VENCIMENTO COBRAR 10% DE MULTA                                NAO RECEBER APOS 30 DIAS DO VENCIMENTO.                                                                                                                                                                                                         01061800000000000000106180000000000000       0090770900066125004554061816000015
100000000000000000000009077090006612500000000000000000000000010002100006140006181700000000002            2  01061400061810061800000003612240000000001N010618000000000000000000000000000000000000000000000000000000000000000100006140049857MARIA ALBANI DA SILVA EUSEBIO           RUA ORLANDO SEGALA - 108 - JARDIM ADRIAN            07135190                                                            000017
2SR. CAIXA, APOS O VENCIMENTO COBRAR 10% DE MULTA                                NAO RECEBER APOS 30 DIAS DO VENCIMENTO.                                                                                                                                                                                                         01061800000000000000106180000000000000       0090770900066125061400061817000018
100000000000000000000009077090006612500000000000000000000000010002100002324706181100000000002            2  01023247061810061800000003542200000000001N010618000000000000000000000000000000000000000000000000000000000000000100002324785897IZILDA NAPOLI                           RUA MONTE CASTELO - 295 AP.71 - AVIACAO             11702720                                                            000020
2SR. CAIXA, APOS O VENCIMENTO COBRAR 10% DE MULTA                                NAO RECEBER APOS 30 DIAS DO VENCIMENTO.                                                                                                                                                                                                         01061800000000000000106180000000000000       0090770900066125023247061811000021
100000000000000000000009077090006612500000000000000000000000010002100007768706181600000000002            2  01077687061810061800000003669430000000001N010618000000000000000000000000000000000000000000000000000000000000000100007768713826FATIMA LUZIA BIANCHI                    DR. OLIDAIR AMBROSIO - 1487 AP.03 - CENT            14160170                                                            000023
2SR. CAIXA, APOS O VENCIMENTO COBRAR 10% DE MULTA                                NAO RECEBER APOS 30 DIAS DO VENCIMENTO.                                                                                                                                                                                                         01061800000000000000106180000000000000       0090770900066125077687061816000024
100000000000000000000009077090006612500000000000000000000000010002100021716806181300000000002            2  01217168061810061800000003614950000000001N010618000000000000000000000000000000000000000000000000000000000000000100021716847800DANIELLE FAGUNDES DE A.MATOS            CONDE MOREIRA LIMA - 644 - JARDIM JABAQU            04384032                                                            000026
2SR. CAIXA, APOS O VENCIMENTO COBRAR 10% DE MULTA                                NAO RECEBER APOS 30 DIAS DO VENCIMENTO.                                                                                                                                                                                                         01061800000000000000106180000000000000       0090770900066125217168061813000027
100000000000000000000009077090006612500000000000000000000000010002100085416906181700000000002            2  01854169061810061800000003064440000000001N010618000000000000000000000000000000000000000000000000000000000000000100085416940891ANTONIO DE SOUSA MENDES                 RUA MONTE CASTELO - 296 AP.52 - AVIACAO             11702720                                                            000029
2SR. CAIXA, APOS O VENCIMENTO COBRAR 10% DE MULTA                                NAO RECEBER APOS 30 DIAS DO VENCIMENTO.                                                                                                                                                                                                         01061800000000000000106180000000000000       0090770900066125854169061817000030
100000000000000000000009077090006612500000000000000000000000010002100005678006181000000000002            2  01056780061810061800000003191570000000001N010618000000000000000000000000000000000000000000000000000000000000000100005678057863FABIO MOREIRA CAMPOS                    RUA FLORENCIO DA SILVA - 284 - VILA LIBA            03738070                                                            000032
2SR. CAIXA, APOS O VENCIMENTO COBRAR 10% DE MULTA                                NAO RECEBER APOS 30 DIAS DO VENCIMENTO.                                                                                                                                                                                                         01061800000000000000106180000000000000       0090770900066125056780061810000033
100000000000000000000009077090006612500000000000000000000000010002100007784406181700000000002            2  01077844061810061800000003222740000000001N010618000000000000000000000000000000000000000000000000000000000000000100007784496885GUILHERME LEONARDO DO NASCIMENTO        COMENDADOR RUBENS RONCARE - 127 - PONTE             11530120                                                            000035
2SR. CAIXA, APOS O VENCIMENTO COBRAR 10% DE MULTA                                NAO RECEBER APOS 30 DIAS DO VENCIMENTO.                                                                                                                                                                                                         01061800000000000000106180000000000000       0090770900066125077844061817000036
100000000000000000000009077090006612500000000000000000000000010002100016348206181700000000002            2  01163482061810061800000003113620000000001N010618000000000000000000000000000000000000000000000000000000000000000100016348237885AILTON LORENA                           AVENIDA BRASILIA - 194 - BELA VISTA - SA            09180260                                                            000038
2SR. CAIXA, APOS O VENCIMENTO COBRAR 10% DE MULTA                                NAO RECEBER APOS 30 DIAS DO VENCIMENTO.                                                                                                                                                                                                         01061800000000000000106180000000000000       0090770900066125163482061817000039
100000000000000000000009077090006612500000000000000000000000010002100081218406181000000000002            2  01812184061810061800000003005030000000001N010618000000000000000000000000000000000000000000000000000000000000000100081218486953OSMAR DA COSTA                          RUA MONTE CASTELO - 295 AP.33 - AVIACAO             11702720                                                            000041
2SR. CAIXA, APOS O VENCIMENTO COBRAR 10% DE MULTA                                NAO RECEBER APOS 30 DIAS DO VENCIMENTO.                                                                                                                                                                                                         01061800000000000000106180000000000000       0090770900066125812184061810000042
100000000000000000000009077090006612500000000000000000000000010002100004981806181300000000002            2  01049818061810061800000003413160000000001N010618000000000000000000000000000000000000000000000000000000000000000100004981884850SILVIO PAULINO GONCALVES                MARIA DE CASTRO MESQUITA - 84 AP.103 BLO            07110040                                                            000044
2SR. CAIXA, APOS O VENCIMENTO COBRAR 10% DE MULTA                                NAO RECEBER APOS 30 DIAS DO VENCIMENTO.                                                                                                                                                                                                         01061800000000000000106180000000000000       0090770900066125049818061813000045
100000000000000000000009077090006612500000000000000000000000010002100019282506181800000000002            2  01192825061810061800000002240410000000001N010618000000000000000000000000000000000000000000000000000000000000000100019282546837FABIO LEANDRO DE FREITAS ASSIS          RUA BASSIM NAGIB TRABULSI - 97 - PONTA D            11030540                                                            000047
2SR. CAIXA, APOS O VENCIMENTO COBRAR 10% DE MULTA                                NAO RECEBER APOS 30 DIAS DO VENCIMENTO.                                                                                                                                                                                                         01061800000000000000106180000000000000       0090770900066125192825061818000048
100000000000000000000009077090006612500000000000000000000000010002100008423406181100000000002            2  01084234061810061800000003113550000000001N010618000000000000000000000000000000000000000000000000000000000000000100008423485811EDSON LUIZ NUNES                        RUA NOEMIA PEDROSO BUENO - 41 - JARDIM G            09360440                                                            000050
2SR. CAIXA, APOS O VENCIMENTO COBRAR 10% DE MULTA                                NAO RECEBER APOS 30 DIAS DO VENCIMENTO.                                                                                                                                                                                                         01061800000000000000106180000000000000       0090770900066125084234061811000051
100000000000000000000009077090006612500000000000000000000000010002100003010506181000000000002            2  01030105061810061800000003602780000000001N010618000000000000000000000000000000000000000000000000000000000000000100003010502877GIZELA VIEIRA BARROS                    RUA GIACOMO DALCIN - 157 - MAUA - SAO CA            09580350                                                            000053
2SR. CAIXA, APOS O VENCIMENTO COBRAR 10% DE MULTA                                NAO RECEBER APOS 30 DIAS DO VENCIMENTO.                                                                                                                                                                                                         01061800000000000000106180000000000000       0090770900066125030105061810000054
100000000000000000000009077090006612500000000000000000000000010002100012111006181600000000002            2  01121110061810061800000002933630000000001N010618000000000000000000000000000000000000000000000000000000000000000100012111060801CLAUDIA CRISTINA CRELIS COSTA           RUA RUI BARBOSA - 1736 AP.1533 - VILA SA            19015001                                                            000056
2SR. CAIXA, APOS O VENCIMENTO COBRAR 10% DE MULTA                                NAO RECEBER APOS 30 DIAS DO VENCIMENTO.                                                                                                                                                                                                         01061800000000000000106180000000000000       0090770900066125121110061816000057
100000000000000000000009077090006612500000000000000000000000010002100009777206181800000000002            2  01097772061810061800000002824720000000001N010618000000000000000000000000000000000000000000000000000000000000000100009777281889CARLITA DE FIGUEIREDO CARVALHO          AVENIDA ALBERTO DE ALMEIDA VINHAS - 4462            11701350                                                            000059
2SR. CAIXA, APOS O VENCIMENTO COBRAR 10% DE MULTA                                NAO RECEBER APOS 30 DIAS DO VENCIMENTO.                                                                                                                                                                                                         01061800000000000000106180000000000000       0090770900066125097772061818000060
100000000000000000000009077090006612500000000000000000000000010002100004213006181500000000002            2  01042130061810061800000003354590000000001N010618000000000000000000000000000000000000000000000000000000000000000100004213020894ELIETE DRUGOVICH DE LIMA                RUA OSVALDO CRUZ - 141 AP.144-B - SANTA             09541270                                                            000062
2SR. CAIXA, APOS O VENCIMENTO COBRAR 10% DE MULTA                                NAO RECEBER APOS 30 DIAS DO VENCIMENTO.                                                                                                                                                                                                         01061800000000000000106180000000000000       0090770900066125042130061815000063
100000000000000000000009077090006612500000000000000000000000010002100085839806181800000000002            2  01858398061810061800000004978390000000001N010618000000000000000000000000000000000000000000000000000000000000000100085839817872MAURO CORREIA MARTINS                   RUA PROFESSOR JOSE AZEVEDO MINHOTO - 72             06114000                                                            000065
2SR. CAIXA, APOS O VENCIMENTO COBRAR 10% DE MULTA                                NAO RECEBER APOS 30 DIAS DO VENCIMENTO.                                                                                                                                                                                                         01061800000000000000106180000000000000       0090770900066125858398061818000066
100000000000000000000009077090006612500000000000000000000000010002100085839806182600000000002            2  01858398061810061800000002560310000000001N010618000000000000000000000000000000000000000000000000000000000000000100085839817872MAURO CORREIA MARTINS                   RUA PROFESSOR JOSE AZEVEDO MINHOTO - 72             06114000                                                            000068
2SR. CAIXA, APOS O VENCIMENTO COBRAR 10% DE MULTA                                NAO RECEBER APOS 30 DIAS DO VENCIMENTO.                                                                                                                                                                                                         01061800000000000000106180000000000000       0090770900066125858398061826000069
100000000000000000000009077090006612500000000000000000000000010002100043122806181P00000000002            2  01431228061810061800000002286480000000001N010618000000000000000000000000000000000000000000000000000000000000000100043122850800ANTONIO JOAQUIM GOES                    ANTONIO DOAS DA SILVA - 412 - VILA AMALI            02618110                                                            000071
2SR. CAIXA, APOS O VENCIMENTO COBRAR 10% DE MULTA                                NAO RECEBER APOS 30 DIAS DO VENCIMENTO.                                                                                                                                                                                                         01061800000000000000106180000000000000       009077090006612543122806181P000072
100000000000000000000009077090006612500000000000000000000000010002100003865706181600000000002            2  01038657061810061800000003001980000000001N010618000000000000000000000000000000000000000000000000000000000000000100003865776841FRANCISCO JOSE ROCCO                    RUA FABIO JOSE BEZERRA - 130 AP.86 - PAR            03805000                                                            000074
2SR. CAIXA, APOS O VENCIMENTO COBRAR 10% DE MULTA                                NAO RECEBER APOS 30 DIAS DO VENCIMENTO.                                                                                                                                                                                                         01061800000000000000106180000000000000       0090770900066125038657061816000075
100000000000000000000009077090006612500000000000000000000000010002100028309506181200000000002            2  01283095061810061800000002677080000000001N010618000000000000000000000000000000000000000000000000000000000000000100028309524803DEISE RIBEIRO BARBOSA                   RUA CANDIDO JOSE DE ANDRADE - 173 - ERME            03807030                                                            000077
2SR. CAIXA, APOS O VENCIMENTO COBRAR 10% DE MULTA                                NAO RECEBER APOS 30 DIAS DO VENCIMENTO.                                                                                                                                                                                                         01061800000000000000106180000000000000       0090770900066125283095061812000078
100000000000000000000009077090006612500000000000000000000000010002100011277906181200000000002            2  01112779061810061800000003177380000000001N010618000000000000000000000000000000000000000000000000000000000000000100011277908893JOSE AILTON LOPES DE AZEVEDO            RUA MAESTRO JOAO SEPE - 19 - JARDIM MARI            04181030                                                            000080
2SR. CAIXA, APOS O VENCIMENTO COBRAR 10% DE MULTA                                NAO RECEBER APOS 30 DIAS DO VENCIMENTO.                                                                                                                                                                                                         01061800000000000000106180000000000000       0090770900066125112779061812000081
100000000000000000000009077090006612500000000000000000000000010002100025215106181P00000000002            2  01252151061810061800000002396160000000001N010618000000000000000000000000000000000000000000000000000000000000000100025215106886KLEBER LUIZ DOS SANTOS                  RUA MONTE CASTELO - 262 AP.15 - AVIACAO             11702720                                                            000083
2SR. CAIXA, APOS O VENCIMENTO COBRAR 10% DE MULTA                                NAO RECEBER APOS 30 DIAS DO VENCIMENTO.                                                                                                                                                                                                         01061800000000000000106180000000000000       009077090006612525215106181P000084
100000000000000000000009077090006612500000000000000000000000010002100090206706181700000000002            2  01902067061810061800000002676400000000001N010618000000000000000000000000000000000000000000000000000000000000000100090206789815NEREIDE RODRIGUES FERREIRA              AVENIDA PADRE ESTANISLAU DE CAMPOS - 205            03590060                                                            000086
2SR. CAIXA, APOS O VENCIMENTO COBRAR 10% DE MULTA                                NAO RECEBER APOS 30 DIAS DO VENCIMENTO.                                                                                                                                                                                                         01061800000000000000106180000000000000       0090770900066125902067061817000087
100000000000000000000009077090006612500000000000000000000000010002100029150706181500000000002            2  01291507061810061800000003132790000000001N010618000000000000000000000000000000000000000000000000000000000000000100029150742833ANA DEISE SANTOS DE ALMEIDA             RUA MONTE CASTELO - 296 AP.121 - AVIACAO            11702720                                                            000089
2SR. CAIXA, APOS O VENCIMENTO COBRAR 10% DE MULTA                                NAO RECEBER APOS 30 DIAS DO VENCIMENTO.                                                                                                                                                                                                         01061800000000000000106180000000000000       0090770900066125291507061815000090
100000000000000000000009077090006612500000000000000000000000010002100000811706181000000000002            2  01008117061810061800000002580420000000001N010618000000000000000000000000000000000000000000000000000000000000000100000811752801SERGIO BUENO DA SILVA                   RUA MONTE CASTELO - 262 AP.75 - AVIACAO             11702720                                                            000092
2SR. CAIXA, APOS O VENCIMENTO COBRAR 10% DE MULTA                                NAO RECEBER APOS 30 DIAS DO VENCIMENTO.                                                                                                                                                                                                         01061800000000000000106180000000000000       0090770900066125008117061810000093
100000000000000000000009077090006612500000000000000000000000010002100018344806181700000000002            2  01183448061810061800000003280260000000001N010618000000000000000000000000000000000000000000000000000000000000000100018344803888MARCELO BERNARDO                        RUA ESTONIA - 06 - INTERLAGOS - SAO PAUL            04785140                                                            000095
2SR. CAIXA, APOS O VENCIMENTO COBRAR 10% DE MULTA                                NAO RECEBER APOS 30 DIAS DO VENCIMENTO.                                                                                                                                                                                                         01061800000000000000106180000000000000       0090770900066125183448061817000096
100000000000000000000009077090006612500000000000000000000000010002100004004306181400000000002            2  01040043061810061800000004598850000000001N010618000000000000000000000000000000000000000000000000000000000000000100004004328896VANDERLEI  MARTINS DE ALMEIDA           RUA MONSENHOR TABOSA - 03 - PARQUE CISPE            03819300                                                            000098
2SR. CAIXA, APOS O VENCIMENTO COBRAR 10% DE MULTA                                NAO RECEBER APOS 30 DIAS DO VENCIMENTO.                                                                                                                                                                                                         01061800000000000000106180000000000000       0090770900066125040043061814000099
100000000000000000000009077090006612500000000000000000000000010002100005133006181900000000002            2  01051330061810061800000003141160000000001N010618000000000000000000000000000000000000000000000000000000000000000100005133053860VICENTE ARCIPRETE JUNIOR                RUA JOSE SIMOES FERREIRA FILHO - 80 - JA            06040090                                                            000101
2SR. CAIXA, APOS O VENCIMENTO COBRAR 10% DE MULTA                                NAO RECEBER APOS 30 DIAS DO VENCIMENTO.                                                                                                                                                                                                         01061800000000000000106180000000000000       0090770900066125051330061819000102
100000000000000000000009077090006612500000000000000000000000010002100056660206181300000000002            2  01566602061810061800000000764010000000001N010618000000000000000000000000000000000000000000000000000000000000000100056660235868JOSE DA SILVA                           RUA MONTE CASTELO - 296 AP.32 - AVIACAO             11702720                                                            000104
2SR. CAIXA, APOS O VENCIMENTO COBRAR 10% DE MULTA                                NAO RECEBER APOS 30 DIAS DO VENCIMENTO.                                                                                                                                                                                                         01061800000000000000106180000000000000       0090770900066125566602061813000105
100000000000000000000009077090006612500000000000000000000000010002100016339406181500000000002            2  01163394061810061800000002774650000000001N010618000000000000000000000000000000000000000000000000000000000000000100016339432832ALEX MONTEIRO DA SILVA                  RUA IVA MOURA LIMA - 04 - JARDIM MIRNA I            04855540                                                            000107
2SR. CAIXA, APOS O VENCIMENTO COBRAR 10% DE MULTA                                NAO RECEBER APOS 30 DIAS DO VENCIMENTO.                                                                                                                                                                                                         01061800000000000000106180000000000000       0090770900066125163394061815000108
100000000000000000000009077090006612500000000000000000000000010002100031803806181200000000002            2  01318038061810061800000002833460000000001N010618000000000000000000000000000000000000000000000000000000000000000100031803864877ELEILSON FELIPPE SANTOS                 RUA SANTA GREGORIA - 193 - CIDADE DUTRA             04806030                                                            000110
2SR. CAIXA, APOS O VENCIMENTO COBRAR 10% DE MULTA                                NAO RECEBER APOS 30 DIAS DO VENCIMENTO.                                                                                                                                                                                                         01061800000000000000106180000000000000       0090770900066125318038061812000111
100000000000000000000009077090006612500000000000000000000000010002100026032606181000000000002            2  01260326061810061800000001949860000000001N010618000000000000000000000000000000000000000000000000000000000000000100026032632857MARILA LOPES PEREIRA                    AVENIDA LUIZ GISHOKEM - 1761 AP.13 BL.05            05831315                                                            000113
2SR. CAIXA, APOS O VENCIMENTO COBRAR 10% DE MULTA                                NAO RECEBER APOS 30 DIAS DO VENCIMENTO.                                                                                                                                                                                                         01061800000000000000106180000000000000       0090770900066125260326061810000114
100000000000000000000009077090006612500000000000000000000000010002100063064506181700000000002            2  01630645061810061800000003376590000000001N010618000000000000000000000000000000000000000000000000000000000000000100063064537849ANTONIO APARECIDO DA SILVA DESTEFANO    RUA PROFESSOR TEODORO BRAGA - 46 - VILA             02966020                                                            000116
2SR. CAIXA, APOS O VENCIMENTO COBRAR 10% DE MULTA                                NAO RECEBER APOS 30 DIAS DO VENCIMENTO.                                                                                                                                                                                                         01061800000000000000106180000000000000       0090770900066125630645061817000117
100000000000000000000009077090006612500000000000000000000000010002100010107706181200000000002            2  01101077061810061800000003235780000000001N010618000000000000000000000000000000000000000000000000000000000000000100010107711834VALDEMAR FECCHIO                        RUA DOUTOR MARTINS DE OLIVEIRA - 529 AP.            05638030                                                            000119
2SR. CAIXA, APOS O VENCIMENTO COBRAR 10% DE MULTA                                NAO RECEBER APOS 30 DIAS DO VENCIMENTO.                                                                                                                                                                                                         01061800000000000000106180000000000000       0090770900066125101077061812000120
100000000000000000000009077090006612500000000000000000000000010002100003330706181100000000002            2  01033307061810061800000004162640000000001N010618000000000000000000000000000000000000000000000000000000000000000100003330791837MARLI DA SILVA BARBOSA                  RUA GLICERIO CERQUEIRA LEITE - 151 - JAR            03675040                                                            000122
2SR. CAIXA, APOS O VENCIMENTO COBRAR 10% DE MULTA                                NAO RECEBER APOS 30 DIAS DO VENCIMENTO.                                                                                                                                                                                                         01061800000000000000106180000000000000       0090770900066125033307061811000123
100000000000000000000009077090006612500000000000000000000000010002100008931006181P00000000002            2  01089310061810061800000001692060000000001N010618000000000000000000000000000000000000000000000000000000000000000100008931031874MARIA MARINHO DE OLIVEIRA               AVENIDA 9 DE JULHO - 1854 AP.81 - BELA V            01312001                                                            000125
2SR. CAIXA, APOS O VENCIMENTO COBRAR 10% DE MULTA                                NAO RECEBER APOS 30 DIAS DO VENCIMENTO.                                                                                                                                                                                                         01061800000000000000106180000000000000       009077090006612508931006181P000126
100000000000000000000009077090006612500000000000000000000000010002100005920506181600000000002            2  01059205061810061800000001965860000000001N010618000000000000000000000000000000000000000000000000000000000000000100005920579846SONIA MARIA VALDO POLLO                 RUA PALMIRA CERVI BARBARO - 797 - CIDADE            13214370                                                            000128
2SR. CAIXA, APOS O VENCIMENTO COBRAR 10% DE MULTA                                NAO RECEBER APOS 30 DIAS DO VENCIMENTO.                                                                                                                                                                                                         01061800000000000000106180000000000000       0090770900066125059205061816000129
100000000000000000000009077090006612500000000000000000000000010002100002494106181700000000002            2  01024941061810061800000002955760000000001N010618000000000000000000000000000000000000000000000000000000000000000100002494107881CIRO FRANCISCO MARCHI DURIGON           RUA MONTE CASTELO - 262 AP.115 - AVIACAO            11702720                                                            000131
2SR. CAIXA, APOS O VENCIMENTO COBRAR 10% DE MULTA                                NAO RECEBER APOS 30 DIAS DO VENCIMENTO.                                                                                                                                                                                                         01061800000000000000106180000000000000       0090770900066125024941061817000132
100000000000000000000009077090006612500000000000000000000000010002100007002306181400000000002            2  01070023061810061800000002905670000000001N010618000000000000000000000000000000000000000000000000000000000000000100007002345869DOMINGOS DE BRITO GALVAO                RUA MONTE CASTELO - 262 AP.44 - AVIACAO             11702720                                                            000134
2SR. CAIXA, APOS O VENCIMENTO COBRAR 10% DE MULTA                                NAO RECEBER APOS 30 DIAS DO VENCIMENTO.                                                                                                                                                                                                         01061800000000000000106180000000000000       0090770900066125070023061814000135
100000000000000000000009077090006612500000000000000000000000010002100009346806181400000000002            2  01093468061810061800000001210370000000001N010618000000000000000000000000000000000000000000000000000000000000000100009346863862NELSON DE SOUZA SANTOS                  RUA PRIMEIRA CRUZ - 90 - PARQUE INDEPEND            03236060                                                            000137
2SR. CAIXA, APOS O VENCIMENTO COBRAR 10% DE MULTA                                NAO RECEBER APOS 30 DIAS DO VENCIMENTO.                                                                                                                                                                                                         01061800000000000000106180000000000000       0090770900066125093468061814000138
100000000000000000000009077090006612500000000000000000000000010002100016299006181800000000002            2  01162990061810061800000002801050000000001N010618000000000000000000000000000000000000000000000000000000000000000100016299008857FERNANDO CESAR CARVALHO                 AVENIDA MARCONDES DE BRITO - 1340 AP.74             03509000                                                            000140
2SR. CAIXA, APOS O VENCIMENTO COBRAR 10% DE MULTA                                NAO RECEBER APOS 30 DIAS DO VENCIMENTO.                                                                                                                                                                                                         01061800000000000000106180000000000000       0090770900066125162990061818000141
100000000000000000000009077090006612500000000000000000000000010002100031082806181100000000002            2  01310828061810061800000002814640000000001N010618000000000000000000000000000000000000000000000000000000000000000100031082898880VANESSA DOS SANTOS NEIVA                RUA MONTE CASTELO - 296 AP.33 - BAIRRO A            11702720                                                            000143
2SR. CAIXA, APOS O VENCIMENTO COBRAR 10% DE MULTA                                NAO RECEBER APOS 30 DIAS DO VENCIMENTO.                                                                                                                                                                                                         01061800000000000000106180000000000000       0090770900066125310828061811000144
100000000000000000000009077090006612500000000000000000000000010002100065895306181100000000002            2  01658953061810061800000001713720000000001N010618000000000000000000000000000000000000000000000000000000000000000100065895304834MARINHO BARBOSA CUNHA                   AVENIDA EDU CHAVES - 639 AP.43 - PARQUE             02229000                                                            000146
2SR. CAIXA, APOS O VENCIMENTO COBRAR 10% DE MULTA                                NAO RECEBER APOS 30 DIAS DO VENCIMENTO.                                                                                                                                                                                                         01061800000000000000106180000000000000       0090770900066125658953061811000147
9                                                                                                                                                                                                                                                                                                                                                                                                         000148