01REMESSA01COBRANCA       00000000000008017025HB SANTOS CONSTRUTORA E INCORP237BRADESCO       060219        MX0000073                                                                                                                                                                                                                                                                                     000001
100000000000000000000009033990000627000000000000000000000000010002020025035102191700000000002            2  01250351021924021900000001999580000000001N060219000000000000000000000000000000000000000000000000000000000000000100025035170802WANDERSON LUIS DE CARVALHO              RUA JOAQUIM GONCALVES ROCHA - 302 - JARD            02859030                                                            000002
2SR. CAIXA, APOS O VENCIMENTO COBRAR 2% DE MULTA                                 NAO RECEBER APOS 30 DIAS DO VENCIMENTO.                                                                                                                                                                                                         06021900000000000000602190000000000000       0090339900006270250351021917000003
100000000000000000000009033990000627000000000000000000000000010002020007294302191400000000002            2  01072943021924021900000002689480000000001N060219000000000000000000000000000000000000000000000000000000000000000100007294351805CLAUDENIR APARECIDO VACARI              RUA CARLOS JOSE BORSTENS - 50 AP.93 - AV            11702750                                                            000005
2SR. CAIXA, APOS O VENCIMENTO COBRAR 2% DE MULTA                                 NAO RECEBER APOS 30 DIAS DO VENCIMENTO.                                                                                                                                                                                                         06021900000000000000602190000000000000       0090339900006270072943021914000006
100000000000000000000009033990000627000000000000000000000000010002020042976102191400000000002            2  01429761021924021900000002717700000000001N060219000000000000000000000000000000000000000000000000000000000000000100042976111634ACACIO TOSCANO BONDANCA                 RUA COMENDADOR JACOMO ANTONIO LA SELVA -            12946797                                                            000008
2SR. CAIXA, APOS O VENCIMENTO COBRAR 2% DE MULTA                                 NAO RECEBER APOS 30 DIAS DO VENCIMENTO.                                                                                                                                                                                                         06021900000000000000602190000000000000       0090339900006270429761021914000009
100000000000000000000009033990000627000000000000000000000000010002020035438002191800000000002            2  01354380021924021900000002295240000000001N060219000000000000000000000000000000000000000000000000000000000000000100035438022836ALESSANDRO FARACO DOS SANTOS            RUA PEDRO POMAR  - 145 - JARDIM ELISA MA            02875020                                                            000011
2SR. CAIXA, APOS O VENCIMENTO COBRAR 2% DE MULTA                                 NAO RECEBER APOS 30 DIAS DO VENCIMENTO.                                                                                                                                                                                                         06021900000000000000602190000000000000       0090339900006270354380021918000012
100000000000000000000009033990000627000000000000000000000000010002020007525002191P00000000002            2  01075250021924021900000003008290000000001N060219000000000000000000000000000000000000000000000000000000000000000100007525032866FERNANDO RIBEIRO                        RUA ALDO COLI - 539 - VILA MIRIM - PRAIA            11704760                                                            000014
2SR. CAIXA, APOS O VENCIMENTO COBRAR 2% DE MULTA                                 NAO RECEBER APOS 30 DIAS DO VENCIMENTO.                                                                                                                                                                                                         06021900000000000000602190000000000000       009033990000627007525002191P000015
100000000000000000000009033990000627000000000000000000000000010002020005071402191500000000002            2  01050714021924021900000002638840000000001N060219000000000000000000000000000000000000000000000000000000000000000100005071481855ERIBALDO SANTANA CARVALHO               RUA HONDURAS - 477 - PARQUE DAS AMERICAS            09351070                                                            000017
2SR. CAIXA, APOS O VENCIMENTO COBRAR 2% DE MULTA                                 NAO RECEBER APOS 30 DIAS DO VENCIMENTO.                                                                                                                                                                                                         06021900000000000000602190000000000000       0090339900006270050714021915000018
100000000000000000000009033990000627000000000000000000000000010002020002841702191900000000002            2  01028417021924021900000002468870000000001N060219000000000000000000000000000000000000000000000000000000000000000100002841756416LUCIANA PINHEIRO DE ASSIS NUNES         RUA RIO ACIMA - 81 - RIACHO GRANDE - SAO            09830100                                                            000020
2SR. CAIXA, APOS O VENCIMENTO COBRAR 2% DE MULTA                                 NAO RECEBER APOS 30 DIAS DO VENCIMENTO.                                                                                                                                                                                                         06021900000000000000602190000000000000       0090339900006270028417021919000021
100000000000000000000009033990000627000000000000000000000000010002020084302002191800000000002            2  01843020021924021900000002480720000000001N060219000000000000000000000000000000000000000000000000000000000000000100084302097868FAUSTO TADEU VILOR                      RUA ANTONIO TAVARES - 466 - BAIRRO CAMBU            01542010                                                            000023
2SR. CAIXA, APOS O VENCIMENTO COBRAR 2% DE MULTA                                 NAO RECEBER APOS 30 DIAS DO VENCIMENTO.                                                                                                                                                                                                         06021900000000000000602190000000000000       0090339900006270843020021918000024
100000000000000000000009033990000627000000000000000000000000010002020028804202191800000000002            2  01288042021924021900000002437320000000001N060219000000000000000000000000000000000000000000000000000000000000000100028804202882GILBERTO FABIANO CABRAL DE CAMARGO      RUA CARLOS JOSE BORSTENS - 50 AP.44 - AV            11702750                                                            000026
2SR. CAIXA, APOS O VENCIMENTO COBRAR 2% DE MULTA                                 NAO RECEBER APOS 30 DIAS DO VENCIMENTO.                                                                                                                                                                                                         06021900000000000000602190000000000000       0090339900006270288042021918000027
100000000000000000000009033990000627000000000000000000000000010002020000991702191000000000002            2  01009917021924021900000002378920000000001N060219000000000000000000000000000000000000000000000000000000000000000100000991748808JAILSON BORGES DE ANDRADE               RUA IPIOBUNA - 45 - JARDIM CUMBICA - GUA            07240040                                                            000029
2SR. CAIXA, APOS O VENCIMENTO COBRAR 2% DE MULTA                                 NAO RECEBER APOS 30 DIAS DO VENCIMENTO.                                                                                                                                                                                                         06021900000000000000602190000000000000       0090339900006270009917021910000030
100000000000000000000009033990000627000000000000000000000000010002020092180202191800000000002            2  01921802021924021900000003243370000000001N060219000000000000000000000000000000000000000000000000000000000000000100092180299834LUIS ROBERTO DE SA DUARTE               RUA TEBAS - 296 AP.84 BLOCO 2 CE - JARDI            04634031                                                            000032
2SR. CAIXA, APOS O VENCIMENTO COBRAR 2% DE MULTA                                 NAO RECEBER APOS 30 DIAS DO VENCIMENTO.                                                                                                                                                                                                         06021900000000000000602190000000000000       0090339900006270921802021918000033
100000000000000000000009033990000627000000000000000000000000010002020022151602191700000000002            2  01221516021924021900000002365130000000001N060219000000000000000000000000000000000000000000000000000000000000000100022151666816SAMIR LIMA DE ARAUJO                    AVENIDA GUARAPIRANGA - 2616 AP.42 BLOCO1            04902005                                                            000035
2SR. CAIXA, APOS O VENCIMENTO COBRAR 2% DE MULTA                                 NAO RECEBER APOS 30 DIAS DO VENCIMENTO.                                                                                                                                                                                                         06021900000000000000602190000000000000       0090339900006270221516021917000036
100000000000000000000009033990000627000000000000000000000000010002020022313102191900000000002            2  01223131021926021900000001828410000000001N060219000000000000000000000000000000000000000000000000000000000000000100022313116824ROSA MARIA BRITO DA SILVA               RUA SERVIDAO DE SAO MARCOS - 113 - JARDI            04930300                                                            000038
2SR. CAIXA, APOS O VENCIMENTO COBRAR 2% DE MULTA                                 NAO RECEBER APOS 30 DIAS DO VENCIMENTO.                                                                                                                                                                                                         06021900000000000000602190000000000000       0090339900006270223131021919000039
100000000000000000000009033990000627000000000000000000000000010002020027538002191000000000002            2  01275380021926021900000001834780000000001N060219000000000000000000000000000000000000000000000000000000000000000100027538087249MARA LUCIA MENEZES DA COSTA             RUA LEILA  - 183 - ITAQUERA - SAO PAULO             08240020                                                            000041
2SR. CAIXA, APOS O VENCIMENTO COBRAR 2% DE MULTA                                 NAO RECEBER APOS 30 DIAS DO VENCIMENTO.                                                                                                                                                                                                         06021900000000000000602190000000000000       0090339900006270275380021910000042
100000000000000000000009033990000627000000000000000000000000010002020020105502191900000000002            2  01201055021926021900000001942370000000001N060219000000000000000000000000000000000000000000000000000000000000000100020105503827VALTER DE SOUSA LIBARINO FILHO          RUA DAS PAINEIRAS - 140 - LARANJEIRAS -             07700000                                                            000044
2SR. CAIXA, APOS O VENCIMENTO COBRAR 2% DE MULTA                                 NAO RECEBER APOS 30 DIAS DO VENCIMENTO.                                                                                                                                                                                                         06021900000000000000602190000000000000       0090339900006270201055021919000045
100000000000000000000009033990000627000000000000000000000000010002020031278402191700000000002            2  01312784021924021900000002284770000000001N060219000000000000000000000000000000000000000000000000000000000000000100031278411836JEFFERSON DE PIERI PIRES ZAMUNER        RUA MANOEL ARCE - 277 - PARQUE BANCARIO             03922150                                                            000047
2SR. CAIXA, APOS O VENCIMENTO COBRAR 2% DE MULTA                                 NAO RECEBER APOS 30 DIAS DO VENCIMENTO.                                                                                                                                                                                                         06021900000000000000602190000000000000       0090339900006270312784021917000048
100000000000000000000009033990000627000000000000000000000000010002020019185702191900000000002            2  01191857021926021900000001669680000000001N060219000000000000000000000000000000000000000000000000000000000000000100019185769800AGUINALDO PESSOA DE LIMA                RUA JANUARIO ZINGARO - 252 AP.303 BL.04             05794300                                                            000050
2SR. CAIXA, APOS O VENCIMENTO COBRAR 2% DE MULTA                                 NAO RECEBER APOS 30 DIAS DO VENCIMENTO.                                                                                                                                                                                                         06021900000000000000602190000000000000       0090339900006270191857021919000051
100000000000000000000009033990000627000000000000000000000000010002020033303602191P00000000002            2  01333036021926021900000001798400000000001N060219000000000000000000000000000000000000000000000000000000000000000100033303645809JESSICA DA SILVA FREITAS                RUA ARILDO VALADAO - 120 - JARDIM GUAEMB            04814600                                                            000053
2SR. CAIXA, APOS O VENCIMENTO COBRAR 2% DE MULTA                                 NAO RECEBER APOS 30 DIAS DO VENCIMENTO.                                                                                                                                                                                                         06021900000000000000602190000000000000       009033990000627033303602191P000054
100000000000000000000009033990000627000000000000000000000000010002020004824402191900000000002            2  01048244021926021900000001812630000000001N060219000000000000000000000000000000000000000000000000000000000000000100004824443806ROSIMEIRE CLARA FERREIRA REZENDE        RUA JOAQUIM DE OLIVEIRA FREITAS - 912 AP            05133000                                                            000056
2SR. CAIXA, APOS O VENCIMENTO COBRAR 2% DE MULTA                                 NAO RECEBER APOS 30 DIAS DO VENCIMENTO.                                                                                                                                                                                                         06021900000000000000602190000000000000       0090339900006270048244021919000057
100000000000000000000009033990000627000000000000000000000000010002020006422602191500000000002            2  01064226021924021900000002474460000000001N060219000000000000000000000000000000000000000000000000000000000000000100006422607881GERALDO ALVES DA SILVA                  RUA ALFREDO JOREL - 195 AP.5 CONDOMINIO             04195020                                                            000059
2SR. CAIXA, APOS O VENCIMENTO COBRAR 2% DE MULTA                                 NAO RECEBER APOS 30 DIAS DO VENCIMENTO.                                                                                                                                                                                                         06021900000000000000602190000000000000       0090339900006270064226021915000060
100000000000000000000009033990000627000000000000000000000000010002020033877102191700000000002            2  01338771021926021900000001686060000000001N060219000000000000000000000000000000000000000000000000000000000000000100033877129870HELDER FERREIRA VIANA                   RUA TUPI - 254 - VILA TUPI - PRAIA GRAND            11703260                                                            000062
2SR. CAIXA, APOS O VENCIMENTO COBRAR 2% DE MULTA                                 NAO RECEBER APOS 30 DIAS DO VENCIMENTO.                                                                                                                                                                                                         06021900000000000000602190000000000000       0090339900006270338771021917000063
100000000000000000000009033990000627000000000000000000000000010002020028290702191000000000002            2  01282907021926021900000001553900000000001N060219000000000000000000000000000000000000000000000000000000000000000100028290719809VANESSA GIANGARRELLI PEREIRA            RUA BARINEL - 72 - JARDIM COTCHING - SAO            03462130                                                            000065
2SR. CAIXA, APOS O VENCIMENTO COBRAR 2% DE MULTA                                 NAO RECEBER APOS 30 DIAS DO VENCIMENTO.                                                                                                                                                                                                         06021900000000000000602190000000000000       0090339900006270282907021910000066
100000000000000000000009033990000627000000000000000000000000010002020087573002191600000000002            2  01875730021926021900000001696860000000001N060219000000000000000000000000000000000000000000000000000000000000000100087573059604VANDERLEY DE ASSIS                      RUA ROMEU ALBANI - 268 - JARDIM PARQUE R            13803810                                                            000068
2SR. CAIXA, APOS O VENCIMENTO COBRAR 2% DE MULTA                                 NAO RECEBER APOS 30 DIAS DO VENCIMENTO.                                                                                                                                                                                                         06021900000000000000602190000000000000       0090339900006270875730021916000069
100000000000000000000009033990000627000000000000000000000000010002020010825502191300000000002            2  01108255021926021900000001770780000000001N060219000000000000000000000000000000000000000000000000000000000000000100010825513847JOSE APARECIDO PEREIRA                  RUA GENERAL OSORIO - 305 - JARDIM TRINTA            11515130                                                            000071
2SR. CAIXA, APOS O VENCIMENTO COBRAR 2% DE MULTA                                 NAO RECEBER APOS 30 DIAS DO VENCIMENTO.                                                                                                                                                                                                         06021900000000000000602190000000000000       0090339900006270108255021913000072
100000000000000000000009033990000627000000000000000000000000010002020038818502191300000000002            2  01388185021926021900000002766860000000001N060219000000000000000000000000000000000000000000000000000000000000000100038818572814MAURICIUS ALEXANDRE ESTEVAM NABOR       RUA RAUL SERAPIAO BARROSO - 379 - ESPLAN            11340330                                                            000074
2SR. CAIXA, APOS O VENCIMENTO COBRAR 2% DE MULTA                                 NAO RECEBER APOS 30 DIAS DO VENCIMENTO.                                                                                                                                                                                                         06021900000000000000602190000000000000       0090339900006270388185021913000075
100000000000000000000009033990000627000000000000000000000000010002020039115102191500000000002            2  01391151021926021900000002182780000000001N060219000000000000000000000000000000000000000000000000000000000000000100039115139840LAIS CRISTINA RIBEIRO ANDO              RUA PERU - 769 AP.17 - VILA GUILHERMINA             11702250                                                            000077
2SR. CAIXA, APOS O VENCIMENTO COBRAR 2% DE MULTA                                 NAO RECEBER APOS 30 DIAS DO VENCIMENTO.                                                                                                                                                                                                         06021900000000000000602190000000000000       0090339900006270391151021915000078
100000000000000000000009033990000627000000000000000000000000010002020029617502191300000000002            2  01296175021924021900000002428770000000001N060219000000000000000000000000000000000000000000000000000000000000000100029617510553MARILENE SOUZA DE OLIVEIRA              AVENIDA BRASIL - 393 AP.09 - PARQUE DAS             09210280                                                            000080
2SR. CAIXA, APOS O VENCIMENTO COBRAR 2% DE MULTA                                 NAO RECEBER APOS 30 DIAS DO VENCIMENTO.                                                                                                                                                                                                         06021900000000000000602190000000000000       0090339900006270296175021913000081
100000000000000000000009033990000627000000000000000000000000010002020000593202191300000000002            2  01005932021924021900000002663760000000001N060219000000000000000000000000000000000000000000000000000000000000000100000593293860WALTER HELIO BARBOSA FILHO              AVENIDA ANTONIO FREDERICO OZANAN - 9500             13214206                                                            000083
2SR. CAIXA, APOS O VENCIMENTO COBRAR 2% DE MULTA                                 NAO RECEBER APOS 30 DIAS DO VENCIMENTO.                                                                                                                                                                                                         06021900000000000000602190000000000000       0090339900006270005932021913000084
100000000000000000000009033990000627000000000000000000000000010002020007730002191900000000002            2  01077300021924021900000003788130000000001N060219000000000000000000000000000000000000000000000000000000000000000100007730084899ARNALDO LUIZ VONO                       RUA CARLOS JOSE BORSTENS - 50 AP.122 - A            11702750                                                            000086
2SR. CAIXA, APOS O VENCIMENTO COBRAR 2% DE MULTA                                 NAO RECEBER APOS 30 DIAS DO VENCIMENTO.                                                                                                                                                                                                         06021900000000000000602190000000000000       0090339900006270077300021919000087
100000000000000000000009033990000627000000000000000000000000010002020065584102191500000000002            2  01655841021924021900000001398300000000001N060219000000000000000000000000000000000000000000000000000000000000000100065584147834JOAQUIM DA COSTA MACHADO NETO           RUA CARLOS JOSE BORSTENS - 50 AP.42 - AV            11702750                                                            000089
2SR. CAIXA, APOS O VENCIMENTO COBRAR 2% DE MULTA                                 NAO RECEBER APOS 30 DIAS DO VENCIMENTO.                                                                                                                                                                                                         06021900000000000000602190000000000000       0090339900006270655841021915000090
100000000000000000000009033990000627000000000000000000000000010002020065584102192300000000002            2  01655841021924021900000001398300000000001N060219000000000000000000000000000000000000000000000000000000000000000100065584147834JOAQUIM DA COSTA MACHADO NETO           RUA CARLOS JOSE BORSTENS - 50 AP.42 - AV            11702750                                                            000092
2SR. CAIXA, APOS O VENCIMENTO COBRAR 2% DE MULTA                                 NAO RECEBER APOS 30 DIAS DO VENCIMENTO.                                                                                                                                                                                                         06021900000000000000602190000000000000       0090339900006270655841021923000093
100000000000000000000009033990000627000000000000000000000000010002020001616902191700000000002            2  01016169021924021900000002459230000000001N060219000000000000000000000000000000000000000000000000000000000000000100001616913827CLAUDIO LUIZ PAULELLA                   PRACA NESTOR DOS SANTOS ARRUDA - 26 - VI            13920000                                                            000095
2SR. CAIXA, APOS O VENCIMENTO COBRAR 2% DE MULTA                                 NAO RECEBER APOS 30 DIAS DO VENCIMENTO.                                                                                                                                                                                                         06021900000000000000602190000000000000       0090339900006270016169021917000096
100000000000000000000009033990000627000000000000000000000000010002020006684602191800000000002            2  01066846021926021900000001798160000000001N060219000000000000000000000000000000000000000000000000000000000000000100006684623884LAUDINOR VIEIRA GARCIA                  RUA CANDIDO SALES - 374 - JARDIM PRESIDE            07172000                                                            000098
2SR. CAIXA, APOS O VENCIMENTO COBRAR 2% DE MULTA                                 NAO RECEBER APOS 30 DIAS DO VENCIMENTO.                                                                                                                                                                                                         06021900000000000000602190000000000000       0090339900006270066846021918000099
100000000000000000000009033990000627000000000000000000000000010002020011663502191900000000002            2  01116635021926021900000001811120000000001N060219000000000000000000000000000000000000000000000000000000000000000100011663589844MARIA SAVIO QUARELLO                    AVENIDA MENDONCA DRUMOND - 321 - JARDIM             03524030                                                            000101
2SR. CAIXA, APOS O VENCIMENTO COBRAR 2% DE MULTA                                 NAO RECEBER APOS 30 DIAS DO VENCIMENTO.                                                                                                                                                                                                         06021900000000000000602190000000000000       0090339900006270116635021919000102
100000000000000000000009033990000627000000000000000000000000010002020010083802192900000000002            2  01100838021926021900000001749830000000001N060219000000000000000000000000000000000000000000000000000000000000000100010083824855IONE FERREIRA COUTO DA SILVA            RUA JOSE RAGEL DE MESQUITA - 60 CS.01 -             07799999                                                            000104
2SR. CAIXA, APOS O VENCIMENTO COBRAR 2% DE MULTA                                 NAO RECEBER APOS 30 DIAS DO VENCIMENTO.                                                                                                                                                                                                         06021900000000000000602190000000000000       0090339900006270100838021929000105
100000000000000000000009033990000627000000000000000000000000010002020036881702191300000000002            2  01368817021926021900000001717160000000001N060219000000000000000000000000000000000000000000000000000000000000000100036881778864ANDRE GONZALEZ RABELLO                  RUA PARAIBA - 106 AP.61 - POMPEIA - SANT            11065470                                                            000107
2SR. CAIXA, APOS O VENCIMENTO COBRAR 2% DE MULTA                                 NAO RECEBER APOS 30 DIAS DO VENCIMENTO.                                                                                                                                                                                                         06021900000000000000602190000000000000       0090339900006270368817021913000108
100000000000000000000009033990000627000000000000000000000000010002020018207002191200000000002            2  01182070021924021900000002355230000000001N060219000000000000000000000000000000000000000000000000000000000000000100018207096802ROBERTO VALENTE TAVARES                 RUA SEBASTIAO GOMES - 218 - JARDIM SANTO            13835000                                                            000110
2SR. CAIXA, APOS O VENCIMENTO COBRAR 2% DE MULTA                                 NAO RECEBER APOS 30 DIAS DO VENCIMENTO.                                                                                                                                                                                                         06021900000000000000602190000000000000       0090339900006270182070021912000111
100000000000000000000009033990000627000000000000000000000000010002020005351002191500000000002            2  01053510021926021900000005819340000000001N060219000000000000000000000000000000000000000000000000000000000000000100005351015897VALERIA ALVES MARCOLINO HINNIGER        RUA MONGOLIA - 230 AP.71 BL.4 - PARQUE N            09280220                                                            000113
2SR. CAIXA, APOS O VENCIMENTO COBRAR 2% DE MULTA                                 NAO RECEBER APOS 30 DIAS DO VENCIMENTO.                                                                                                                                                                                                         06021900000000000000602190000000000000       0090339900006270053510021915000114
100000000000000000000009033990000627000000000000000000000000010002020005351002192300000000002            2  01053510021926021900000001610010000000001N060219000000000000000000000000000000000000000000000000000000000000000100005351015897VALERIA ALVES MARCOLINO HINNIGER        RUA MONGOLIA - 230 AP.71 BL.4 - PARQUE N            09280220                                                            000116
2SR. CAIXA, APOS O VENCIMENTO COBRAR 2% DE MULTA                                 NAO RECEBER APOS 30 DIAS DO VENCIMENTO.                                                                                                                                                                                                         06021900000000000000602190000000000000       0090339900006270053510021923000117
100000000000000000000009033990000627000000000000000000000000010002020031898702191000000000002            2  01318987021924021900000002548800000000001N060219000000000000000000000000000000000000000000000000000000000000000100031898775800ANITA MARTINS COLOMBO                   RUA CARLOS JOSE BORSTENS - 50 AP.115 - A            11702750                                                            000119
2SR. CAIXA, APOS O VENCIMENTO COBRAR 2% DE MULTA                                 NAO RECEBER APOS 30 DIAS DO VENCIMENTO.                                                                                                                                                                                                         06021900000000000000602190000000000000       0090339900006270318987021910000120
100000000000000000000009033990000627000000000000000000000000010002020037983402191000000000002            2  01379834021926021900000001891240000000001N060219000000000000000000000000000000000000000000000000000000000000000100037983484801JOSE ERIVALDO SOUZA DO NASCIMENTO RAMOS RUA LETICIA - 250 - JARDIM GUARUJA - SAO            05877260                                                            000122
2SR. CAIXA, APOS O VENCIMENTO COBRAR 2% DE MULTA                                 NAO RECEBER APOS 30 DIAS DO VENCIMENTO.                                                                                                                                                                                                         06021900000000000000602190000000000000       0090339900006270379834021910000123
100000000000000000000009033990000627000000000000000000000000010002020056289202191100000000002            2  01562892021926021900000001428740000000001N060219000000000000000000000000000000000000000000000000000000000000000100056289286900PEDRO RIBEIRO                           RUA CONEGO MANOEL VAZ - 48 - SANTANA - S            02019050                                                            000125
2SR. CAIXA, APOS O VENCIMENTO COBRAR 2% DE MULTA                                 NAO RECEBER APOS 30 DIAS DO VENCIMENTO.                                                                                                                                                                                                         06021900000000000000602190000000000000       0090339900006270562892021911000126
100000000000000000000009033990000627000000000000000000000000010002020005025502191500000000002            2  01050255021926021900000046136310000000001N060219000000000000000000000000000000000000000000000000000000000000000100005025595860CONCEICAO APARECIDA DE MESQUITA PEREIRA RUA TRIUNFO - 835 AP.105 - JARDIM SAO LU            14020670                                                            000128
2SR. CAIXA, APOS O VENCIMENTO COBRAR 2% DE MULTA                                 NAO RECEBER APOS 30 DIAS DO VENCIMENTO.                                                                                                                                                                                                         06021900000000000000602190000000000000       0090339900006270050255021915000129
100000000000000000000009033990000627000000000000000000000000010002020005025502192300000000002            2  01050255021926021900000002033240000000001N060219000000000000000000000000000000000000000000000000000000000000000100005025595860CONCEICAO APARECIDA DE MESQUITA PEREIRA RUA TRIUNFO - 835 AP.105 - JARDIM SAO LU            14020670                                                            000131
2SR. CAIXA, APOS O VENCIMENTO COBRAR 2% DE MULTA                                 NAO RECEBER APOS 30 DIAS DO VENCIMENTO.                                                                                                                                                                                                         06021900000000000000602190000000000000       0090339900006270050255021923000132
100000000000000000000009033990000627000000000000000000000000010002020034735302191800000000002            2  01347353021926021900000001960850000000001N060219000000000000000000000000000000000000000000000000000000000000000100034735328866DIEGO FELIPE MOLINA DA SILVA E SOUSA    RUA EMILIA PAULISTA - 135 - VILA TIRADEN            05364020                                                            000134
2SR. CAIXA, APOS O VENCIMENTO COBRAR 2% DE MULTA                                 NAO RECEBER APOS 30 DIAS DO VENCIMENTO.                                                                                                                                                                                                         06021900000000000000602190000000000000       0090339900006270347353021918000135
100000000000000000000009033990000627000000000000000000000000010002020076175602191900000000002            2  01761756021924021900000003537170000000001N060219000000000000000000000000000000000000000000000000000000000000000100076175685687GILMAR DE OLIVEIRA BRAGA                RUA MARACAJU - 161 AP.202 - NOVA GRANADA            30431350                                                            000137
2SR. CAIXA, APOS O VENCIMENTO COBRAR 2% DE MULTA                                 NAO RECEBER APOS 30 DIAS DO VENCIMENTO.                                                                                                                                                                                                         06021900000000000000602190000000000000       0090339900006270761756021919000138
9                                                                                                                                                                                                                                                                                                                                                                                                         000139