01REMESSA01COBRANCA       00000000000008017025HB SANTOS CONSTRUTORA E INCORP237BRADESCO       090223        MX0000171                                                                                                                                                                                                                                                                                     000001
100000000000000000000009033990000627000000000000000000000000010002020025035102231P00000000002            2  01250351022324022300000002920350000000001N090223000000000000000000000000000000000000000000000000000000000000000100025035170802WANDERSON LUIS DE CARVALHO              RUA JOAQUIM GONCALVES ROCHA - 302 - JARD            02859030                                                            000002
2SR. CAIXA, APOS O VENCIMENTO COBRAR 2% DE MULTA                                 NAO RECEBER APOS 30 DIAS DO VENCIMENTO.                                                                                                                                                                                                         09022300000000000000902230000000000000       009033990000627025035102231P000003
100000000000000000000009033990000627000000000000000000000000010002020007294302231700000000002            2  01072943022324022300000003927870000000001N090223000000000000000000000000000000000000000000000000000000000000000100007294351805CLAUDENIR APARECIDO VACARI              RUA CARLOS JOSE BORSTENS - 50 AP.93 - AV            11702750                                                            000005
2SR. CAIXA, APOS O VENCIMENTO COBRAR 2% DE MULTA                                 NAO RECEBER APOS 30 DIAS DO VENCIMENTO.                                                                                                                                                                                                         09022300000000000000902230000000000000       0090339900006270072943022317000006
100000000000000000000009033990000627000000000000000000000000010002020005071402231800000000002            2  01050714022324022300000003853960000000001N090223000000000000000000000000000000000000000000000000000000000000000100005071481855ERIBALDO SANTANA CARVALHO               RUA HONDURAS - 477 - PARQUE DAS AMERICAS            09351070                                                            000008
2SR. CAIXA, APOS O VENCIMENTO COBRAR 2% DE MULTA                                 NAO RECEBER APOS 30 DIAS DO VENCIMENTO.                                                                                                                                                                                                         09022300000000000000902230000000000000       0090339900006270050714022318000009
100000000000000000000009033990000627000000000000000000000000010002020002841702231100000000002            2  01028417022324022300000003605720000000001N090223000000000000000000000000000000000000000000000000000000000000000100002841756416LUCIANA PINHEIRO DE ASSIS NUNES         RUA RIO ACIMA - 81 - RIACHO GRANDE - SAO            09830100                                                            000011
2SR. CAIXA, APOS O VENCIMENTO COBRAR 2% DE MULTA                                 NAO RECEBER APOS 30 DIAS DO VENCIMENTO.                                                                                                                                                                                                         09022300000000000000902230000000000000       0090339900006270028417022311000012
100000000000000000000009033990000627000000000000000000000000010002020084302002231000000000002            2  01843020022324022300000003623030000000001N090223000000000000000000000000000000000000000000000000000000000000000100084302097868FAUSTO TADEU VILOR                      RUA ANTONIO TAVARES - 466 - BAIRRO CAMBU            01542010                                                            000014
2SR. CAIXA, APOS O VENCIMENTO COBRAR 2% DE MULTA                                 NAO RECEBER APOS 30 DIAS DO VENCIMENTO.                                                                                                                                                                                                         09022300000000000000902230000000000000       0090339900006270843020022310000015
100000000000000000000009033990000627000000000000000000000000010002020028804202231000000000002            2  01288042022324022300000003559660000000001N090223000000000000000000000000000000000000000000000000000000000000000100028804202882GILBERTO FABIANO CABRAL DE CAMARGO      RUA CARLOS JOSE BORSTENS - 50 AP.44 - AV            11702750                                                            000017
2SR. CAIXA, APOS O VENCIMENTO COBRAR 2% DE MULTA                                 NAO RECEBER APOS 30 DIAS DO VENCIMENTO.                                                                                                                                                                                                         09022300000000000000902230000000000000       0090339900006270288042022310000018
100000000000000000000009033990000627000000000000000000000000010002020000991702231300000000002            2  01009917022324022300000003474370000000001N090223000000000000000000000000000000000000000000000000000000000000000100000991748808JAILSON BORGES DE ANDRADE               RUA IPIOBUNA - 45 - JARDIM CUMBICA - GUA            07240040                                                            000020
2SR. CAIXA, APOS O VENCIMENTO COBRAR 2% DE MULTA                                 NAO RECEBER APOS 30 DIAS DO VENCIMENTO.                                                                                                                                                                                                         09022300000000000000902230000000000000       0090339900006270009917022313000021
100000000000000000000009033990000627000000000000000000000000010002020022151602231P00000000002            2  01221516022324022300000003454200000000001N090223000000000000000000000000000000000000000000000000000000000000000100022151666816SAMIR LIMA DE ARAUJO                    AVENIDA GUARAPIRANGA - 2616 AP.131 BL.14            04902005                                                            000023
2SR. CAIXA, APOS O VENCIMENTO COBRAR 2% DE MULTA                                 NAO RECEBER APOS 30 DIAS DO VENCIMENTO.                                                                                                                                                                                                         09022300000000000000902230000000000000       009033990000627022151602231P000024
100000000000000000000009033990000627000000000000000000000000010002020022313102231100000000002            2  01223131022326022300000002657270000000001N090223000000000000000000000000000000000000000000000000000000000000000100022313116824ROSA MARIA BRITO DA SILVA               RUA SERVIDAO DE SAO MARCOS - 128 CASA 1             04930300                                                            000026
2SR. CAIXA, APOS O VENCIMENTO COBRAR 2% DE MULTA                                 NAO RECEBER APOS 30 DIAS DO VENCIMENTO.                                                                                                                                                                                                         09022300000000000000902230000000000000       0090339900006270223131022311000027
100000000000000000000009033990000627000000000000000000000000010002020027538002231300000000002            2  01275380022326022300000002666530000000001N090223000000000000000000000000000000000000000000000000000000000000000100027538087249MARA LUCIA MENEZES DA COSTA             RUA LEILA  - 183 - ITAQUERA - SAO PAULO             08240020                                                            000029
2SR. CAIXA, APOS O VENCIMENTO COBRAR 2% DE MULTA                                 NAO RECEBER APOS 30 DIAS DO VENCIMENTO.                                                                                                                                                                                                         09022300000000000000902230000000000000       0090339900006270275380022313000030
100000000000000000000009033990000627000000000000000000000000010002020031278402231P00000000002            2  01312784022324022300000003336850000000001N090223000000000000000000000000000000000000000000000000000000000000000100031278411836JEFFERSON DE PIERI PIRES ZAMUNER        RUA MANOEL ARCE - 277 - PARQUE BANCARIO             03922150                                                            000032
2SR. CAIXA, APOS O VENCIMENTO COBRAR 2% DE MULTA                                 NAO RECEBER APOS 30 DIAS DO VENCIMENTO.                                                                                                                                                                                                         09022300000000000000902230000000000000       009033990000627031278402231P000033
100000000000000000000009033990000627000000000000000000000000010002020019185702231100000000002            2  01191857022326022300000002426610000000001N090223000000000000000000000000000000000000000000000000000000000000000100019185769800AGUINALDO PESSOA DE LIMA                RUA JANUARIO ZINGARO - 252 AP.303 BL.04             05794300                                                            000035
2SR. CAIXA, APOS O VENCIMENTO COBRAR 2% DE MULTA                                 NAO RECEBER APOS 30 DIAS DO VENCIMENTO.                                                                                                                                                                                                         09022300000000000000902230000000000000       0090339900006270191857022311000036
100000000000000000000009033990000627000000000000000000000000010002020033303602231200000000002            2  01333036022326022300000002613660000000001N090223000000000000000000000000000000000000000000000000000000000000000100033303645809JESSICA DA SILVA FREITAS                RUA ARILDO VALADAO - 120 - JARDIM GUAEMB            04814600                                                            000038
2SR. CAIXA, APOS O VENCIMENTO COBRAR 2% DE MULTA                                 NAO RECEBER APOS 30 DIAS DO VENCIMENTO.                                                                                                                                                                                                         09022300000000000000902230000000000000       0090339900006270333036022312000039
100000000000000000000009033990000627000000000000000000000000010002020006422602231800000000002            2  01064226022324022300000003613900000000001N090223000000000000000000000000000000000000000000000000000000000000000100006422607881GERALDO ALVES DA SILVA                  RUA CARLOS JOSE BORSTENS - 50 AP.14 - AV            11702750                                                            000041
2SR. CAIXA, APOS O VENCIMENTO COBRAR 2% DE MULTA                                 NAO RECEBER APOS 30 DIAS DO VENCIMENTO.                                                                                                                                                                                                         09022300000000000000902230000000000000       0090339900006270064226022318000042
100000000000000000000009033990000627000000000000000000000000010002020033877102231P00000000002            2  01338771022326022300000002450380000000001N090223000000000000000000000000000000000000000000000000000000000000000100033877129870HELDER FERREIRA VIANA                   RUA JOSE CALIXTO DO CARMO - 286 AP.35 -             11702690                                                            000044
2SR. CAIXA, APOS O VENCIMENTO COBRAR 2% DE MULTA                                 NAO RECEBER APOS 30 DIAS DO VENCIMENTO.                                                                                                                                                                                                         09022300000000000000902230000000000000       009033990000627033877102231P000045
100000000000000000000009033990000627000000000000000000000000010002020087573002231900000000002            2  01875730022326022300000002466100000000001N090223000000000000000000000000000000000000000000000000000000000000000100087573059604VANDERLEY DE ASSIS                      RUA ROMEU ALBANI - 268 - JARDIM PARQUE R            13803810                                                            000047
2SR. CAIXA, APOS O VENCIMENTO COBRAR 2% DE MULTA                                 NAO RECEBER APOS 30 DIAS DO VENCIMENTO.                                                                                                                                                                                                         09022300000000000000902230000000000000       0090339900006270875730022319000048
100000000000000000000009033990000627000000000000000000000000010002020010825502231600000000002            2  01108255022326022300000002573500000000001N090223000000000000000000000000000000000000000000000000000000000000000100010825513847JOSE APARECIDO PEREIRA                  RUA GENERAL OSORIO - 305 - JARDIM TRINTA            11515130                                                            000050
2SR. CAIXA, APOS O VENCIMENTO COBRAR 2% DE MULTA                                 NAO RECEBER APOS 30 DIAS DO VENCIMENTO.                                                                                                                                                                                                         09022300000000000000902230000000000000       0090339900006270108255022316000051
100000000000000000000009033990000627000000000000000000000000010002020039115102231800000000002            2  01391151022326022300000003172290000000001N090223000000000000000000000000000000000000000000000000000000000000000100039115139840LAIS CRISTINA RIBEIRO ANDO              RUA JOSE CALIXTO DO CARMO - 286 AP.65 -             11702690                                                            000053
2SR. CAIXA, APOS O VENCIMENTO COBRAR 2% DE MULTA                                 NAO RECEBER APOS 30 DIAS DO VENCIMENTO.                                                                                                                                                                                                         09022300000000000000902230000000000000       0090339900006270391151022318000054
100000000000000000000009033990000627000000000000000000000000010002020029617502231600000000002            2  01296175022324022300000003547130000000001N090223000000000000000000000000000000000000000000000000000000000000000100029617510553MARILENE SOUZA DE OLIVEIRA              RUA DAS MONCOES - 460 AP.95 - BAIRRO JAR            09090521                                                            000056
2SR. CAIXA, APOS O VENCIMENTO COBRAR 2% DE MULTA                                 NAO RECEBER APOS 30 DIAS DO VENCIMENTO.                                                                                                                                                                                                         09022300000000000000902230000000000000       0090339900006270296175022316000057
100000000000000000000009033990000627000000000000000000000000010002020000593202231600000000002            2  01005932022324022300000003890350000000001N090223000000000000000000000000000000000000000000000000000000000000000100000593293860WALTER HELIO BARBOSA FILHO              AVENIDA ANTONIO FREDERICO OZANAN - 9500             13214206                                                            000059
2SR. CAIXA, APOS O VENCIMENTO COBRAR 2% DE MULTA                                 NAO RECEBER APOS 30 DIAS DO VENCIMENTO.                                                                                                                                                                                                         09022300000000000000902230000000000000       0090339900006270005932022316000060
100000000000000000000009033990000627000000000000000000000000010002020065584102231800000000002            2  01655841022324022300000002042230000000001N090223000000000000000000000000000000000000000000000000000000000000000100065584147834JOAQUIM DA COSTA MACHADO NETO           RUA CARLOS JOSE BORSTENS - 50 AP.42 - AV            11702750                                                            000062
2SR. CAIXA, APOS O VENCIMENTO COBRAR 2% DE MULTA                                 NAO RECEBER APOS 30 DIAS DO VENCIMENTO.                                                                                                                                                                                                         09022300000000000000902230000000000000       0090339900006270655841022318000063
100000000000000000000009033990000627000000000000000000000000010002020006684602231000000000002            2  01066846022326022300000002613370000000001N090223000000000000000000000000000000000000000000000000000000000000000100006684623884LAUDINOR VIEIRA GARCIA                  RUA CANDIDO SALES - 374 - JARDIM PRESIDE            07172000                                                            000065
2SR. CAIXA, APOS O VENCIMENTO COBRAR 2% DE MULTA                                 NAO RECEBER APOS 30 DIAS DO VENCIMENTO.                                                                                                                                                                                                         09022300000000000000902230000000000000       0090339900006270066846022310000066
100000000000000000000009033990000627000000000000000000000000010002020011663502231100000000002            2  01116635022326022300000002632160000000001N090223000000000000000000000000000000000000000000000000000000000000000100011663589844MARIA SAVIO QUARELLO                    AVENIDA MENDONCA DRUMOND - 321 - JARDIM             03524030                                                            000068
2SR. CAIXA, APOS O VENCIMENTO COBRAR 2% DE MULTA                                 NAO RECEBER APOS 30 DIAS DO VENCIMENTO.                                                                                                                                                                                                         09022300000000000000902230000000000000       0090339900006270116635022311000069
100000000000000000000009033990000627000000000000000000000000010002020010083802231300000000002            2  01100838022326022300000002543100000000001N090223000000000000000000000000000000000000000000000000000000000000000100010083824855IONE FERREIRA COUTO DA SILVA            RUA JOSE RAGEL DE MESQUITA - 60 CS.01 -             07799999                                                            000071
2SR. CAIXA, APOS O VENCIMENTO COBRAR 2% DE MULTA                                 NAO RECEBER APOS 30 DIAS DO VENCIMENTO.                                                                                                                                                                                                         09022300000000000000902230000000000000       0090339900006270100838022313000072
100000000000000000000009033990000627000000000000000000000000010002020031010702231900000000002            2  01310107022326022300000002495590000000001N090223000000000000000000000000000000000000000000000000000000000000000100031010705890ANDRE GONZALEZ RABELLO                  RUA PARAIBA - 106 AP.61 - POMPEIA - SANT            11065470                                                            000074
2SR. CAIXA, APOS O VENCIMENTO COBRAR 2% DE MULTA                                 NAO RECEBER APOS 30 DIAS DO VENCIMENTO.                                                                                                                                                                                                         09022300000000000000902230000000000000       0090339900006270310107022319000075
100000000000000000000009033990000627000000000000000000000000010002020005351002231800000000002            2  01053510022326022300000002339870000000001N090223000000000000000000000000000000000000000000000000000000000000000100005351015897VALERIA ALVES MARCOLINO HINNIGER        RUA JOSE CALIXTO DO CARMO - 286 AP.92 -             11702690                                                            000077
2SR. CAIXA, APOS O VENCIMENTO COBRAR 2% DE MULTA                                 NAO RECEBER APOS 30 DIAS DO VENCIMENTO.                                                                                                                                                                                                         09022300000000000000902230000000000000       0090339900006270053510022318000078
100000000000000000000009033990000627000000000000000000000000010002020031898702231300000000002            2  01318987022324022300000003722440000000001N090223000000000000000000000000000000000000000000000000000000000000000100031898775800ANITA MARTINS COLOMBO                   RUA CARLOS JOSE BORSTENS - 50 AP.115 - A            11702750                                                            000080
2SR. CAIXA, APOS O VENCIMENTO COBRAR 2% DE MULTA                                 NAO RECEBER APOS 30 DIAS DO VENCIMENTO.                                                                                                                                                                                                         09022300000000000000902230000000000000       0090339900006270318987022313000081
100000000000000000000009033990000627000000000000000000000000010002020037983402231300000000002            2  01379834022326022300000002748620000000001N090223000000000000000000000000000000000000000000000000000000000000000100037983484801JOSE ERIVALDO SOUZA DO NASCIMENTO RAMOS RUA LETICIA - 250 - JARDIM GUARUJA - SAO            05877260                                                            000083
2SR. CAIXA, APOS O VENCIMENTO COBRAR 2% DE MULTA                                 NAO RECEBER APOS 30 DIAS DO VENCIMENTO.                                                                                                                                                                                                         09022300000000000000902230000000000000       0090339900006270379834022313000084
100000000000000000000009033990000627000000000000000000000000010002020056289202231400000000002            2  01562892022326022300000002076420000000001N090223000000000000000000000000000000000000000000000000000000000000000100056289286900PEDRO RIBEIRO                           RUA CONEGO MANOEL VAZ - 48 - SANTANA - S            02019050                                                            000086
2SR. CAIXA, APOS O VENCIMENTO COBRAR 2% DE MULTA                                 NAO RECEBER APOS 30 DIAS DO VENCIMENTO.                                                                                                                                                                                                         09022300000000000000902230000000000000       0090339900006270562892022314000087
100000000000000000000009033990000627000000000000000000000000010002020034735302231000000000002            2  01347353022326022300000002849790000000001N090223000000000000000000000000000000000000000000000000000000000000000100034735328866DIEGO FELIPE MOLINA DA SILVA E SOUSA    RUA EMILIA PAULISTA - 135 - VILA TIRADEN            05364020                                                            000089
2SR. CAIXA, APOS O VENCIMENTO COBRAR 2% DE MULTA                                 NAO RECEBER APOS 30 DIAS DO VENCIMENTO.                                                                                                                                                                                                         09022300000000000000902230000000000000       0090339900006270347353022310000090
100000000000000000000009033990000627000000000000000000000000010002020034812202231400000000002            2  01348122022324022300000004926830000000001N090223000000000000000000000000000000000000000000000000000000000000000100034812226880THAIS TORQUATO MIMOSO DE JESUS          RUA ARNALDO CINTRA - 416 AP.104 TORRE 2             03088000                                                            000092
2SR. CAIXA, APOS O VENCIMENTO COBRAR 2% DE MULTA                                 NAO RECEBER APOS 30 DIAS DO VENCIMENTO.                                                                                                                                                                                                         09022300000000000000902230000000000000       0090339900006270348122022314000093
100000000000000000000009033990000627000000000000000000000000010002020012849402231000000000002            2  01128494022326022300000004909410000000001N090223000000000000000000000000000000000000000000000000000000000000000100012849428809MOISES CLAUDIO DO ROSARIO               AVENIDA DR. AUGUSTO DE TOLEDO - 510 AP.1            09541520                                                            000095
2SR. CAIXA, APOS O VENCIMENTO COBRAR 2% DE MULTA                                 NAO RECEBER APOS 30 DIAS DO VENCIMENTO.                                                                                                                                                                                                         09022300000000000000902230000000000000       0090339900006270128494022310000096
100000000000000000000009033990000627000000000000000000000000010002020003658602231500000000002            2  01036586022326022300000002028170000000001N090223000000000000000000000000000000000000000000000000000000000000000100003658668814MARINEZ VALENTIN                        RUA JOSE CALIXTO DO CARMO - 286 AP.95 -             11702690                                                            000098
2SR. CAIXA, APOS O VENCIMENTO COBRAR 2% DE MULTA                                 NAO RECEBER APOS 30 DIAS DO VENCIMENTO.                                                                                                                                                                                                         09022300000000000000902230000000000000       0090339900006270036586022315000099
100000000000000000000009033990000627000000000000000000000000010002020003658602232300000000002            2  01036586022326022300000002028160000000001N090223000000000000000000000000000000000000000000000000000000000000000100003658668814MARINEZ VALENTIN                        RUA JOSE CALIXTO DO CARMO - 286 AP.95 -             11702690                                                            000101
2SR. CAIXA, APOS O VENCIMENTO COBRAR 2% DE MULTA                                 NAO RECEBER APOS 30 DIAS DO VENCIMENTO.                                                                                                                                                                                                         09022300000000000000902230000000000000       0090339900006270036586022323000102
100000000000000000000009033990000627000000000000000000000000010002020014087402231300000000002            2  01140874022326022300000002710490000000001N090223000000000000000000000000000000000000000000000000000000000000000100014087484874SERGIO SANTOS DO NASCIMENTO             RUA JOSE CALIXTO DO CARMO - 286 AP.52 -             11702690                                                            000104
2SR. CAIXA, APOS O VENCIMENTO COBRAR 2% DE MULTA                                 NAO RECEBER APOS 30 DIAS DO VENCIMENTO.                                                                                                                                                                                                         09022300000000000000902230000000000000       0090339900006270140874022313000105
100000000000000000000009033990000627000000000000000000000000010002020026834502231200000000002            2  01268345022326022300000002497400000000001N090223000000000000000000000000000000000000000000000000000000000000000100026834550895RAQUEL CARDOSO JOAO                     RUA PEDROSO XAVIER - 277 AP.23 TORRE 01             02732020                                                            000107
2SR. CAIXA, APOS O VENCIMENTO COBRAR 2% DE MULTA                                 NAO RECEBER APOS 30 DIAS DO VENCIMENTO.                                                                                                                                                                                                         09022300000000000000902230000000000000       0090339900006270268345022312000108
100000000000000000000009033990000627000000000000000000000000010002020039540002231000000000002            2  01395400022326022300000002455280000000001N090223000000000000000000000000000000000000000000000000000000000000000100039540008816LUZINETE CLARINDO SILVA                 RUA DEINOS - 275 - BAIRRO CIDADE SATELIT            08340100                                                            000110
2SR. CAIXA, APOS O VENCIMENTO COBRAR 2% DE MULTA                                 NAO RECEBER APOS 30 DIAS DO VENCIMENTO.                                                                                                                                                                                                         09022300000000000000902230000000000000       0090339900006270395400022310000111
100000000000000000000009033990000627000000000000000000000000010002020003311002231800000000002            2  01033110022326022300000002556880000000001N090223000000000000000000000000000000000000000000000000000000000000000100003311030877SEBASTIAO SARUVA NETO                   RUA HAMILTON REGIS - 559 - BAIRRO DO LIM            08051440                                                            000113
2SR. CAIXA, APOS O VENCIMENTO COBRAR 2% DE MULTA                                 NAO RECEBER APOS 30 DIAS DO VENCIMENTO.                                                                                                                                                                                                         09022300000000000000902230000000000000       0090339900006270033110022318000114
100000000000000000000009033990000627000000000000000000000000010002020090091902231400000000002            2  01900919022326022300000002444000000000001N090223000000000000000000000000000000000000000000000000000000000000000100090091990882JUECIR CARVALHO DA LUZ                  RUA JOSE CALIXTO DO CARMO - 286 AP.114 -            11702690                                                            000116
2SR. CAIXA, APOS O VENCIMENTO COBRAR 2% DE MULTA                                 NAO RECEBER APOS 30 DIAS DO VENCIMENTO.                                                                                                                                                                                                         09022300000000000000902230000000000000       0090339900006270900919022314000117
100000000000000000000009033990000627000000000000000000000000010002020037325902231600000000002            2  01373259022326022300000002000070000000001N090223000000000000000000000000000000000000000000000000000000000000000100037325923830MARIA AUGUSTA OLIVEIRA DE ANDRADE       RUA JOSE CALIXTO DO CARMO - 286 AP.124 -            11702690                                                            000119
2SR. CAIXA, APOS O VENCIMENTO COBRAR 2% DE MULTA                                 NAO RECEBER APOS 30 DIAS DO VENCIMENTO.                                                                                                                                                                                                         09022300000000000000902230000000000000       0090339900006270373259022316000120
100000000000000000000009033990000627000000000000000000000000010002020012478802231300000000002            2  01124788022324022300000003641010000000001N090223000000000000000000000000000000000000000000000000000000000000000100012478899809VITORIA BATISTA QUEIROZ                 RUA CARVALHO DE FREITAS - 255 AP.71A - V            05728030                                                            000122
2SR. CAIXA, APOS O VENCIMENTO COBRAR 2% DE MULTA                                 NAO RECEBER APOS 30 DIAS DO VENCIMENTO.                                                                                                                                                                                                         09022300000000000000902230000000000000       0090339900006270124788022313000123
100000000000000000000009033990000627000000000000000000000000010002020013184802231400000000002            2  01131848022326022300000002416210000000001N090223000000000000000000000000000000000000000000000000000000000000000100013184856810SYDNEY HENRIQUE GAMARANO JUNIOR         RUA JOSE CALIXTO DO CARMO - 286 AP.125 -            11702690                                                            000125
2SR. CAIXA, APOS O VENCIMENTO COBRAR 2% DE MULTA                                 NAO RECEBER APOS 30 DIAS DO VENCIMENTO.                                                                                                                                                                                                         09022300000000000000902230000000000000       0090339900006270131848022314000126
100000000000000000000009033990000627000000000000000000000000010002020097989902231800000000002            2  01979899022326022300000001679120000000001N090223000000000000000000000000000000000000000000000000000000000000000100097989924820NELSON LUIS BERRIBILLE                  RUA SILVEIRA IGNACIO SOBRINHO - 965 - VI            13560294                                                            000128
2SR. CAIXA, APOS O VENCIMENTO COBRAR 2% DE MULTA                                 NAO RECEBER APOS 30 DIAS DO VENCIMENTO.                                                                                                                                                                                                         09022300000000000000902230000000000000       0090339900006270979899022318000129
100000000000000000000009033990000627000000000000000000000000010002020097989902232600000000002            2  01979899022326022300000001679110000000001N090223000000000000000000000000000000000000000000000000000000000000000100097989924820NELSON LUIS BERRIBILLE                  RUA SILVEIRA IGNACIO SOBRINHO - 965 - VI            13560294                                                            000131
2SR. CAIXA, APOS O VENCIMENTO COBRAR 2% DE MULTA                                 NAO RECEBER APOS 30 DIAS DO VENCIMENTO.                                                                                                                                                                                                         09022300000000000000902230000000000000       0090339900006270979899022326000132
100000000000000000000009033990000627000000000000000000000000010002020032341802231700000000002            2  01323418022324022300000003781990000000001N090223000000000000000000000000000000000000000000000000000000000000000100032341847803PRISCILA ALVES DE FRANCA MIRANDA        RUA CARLOS JOSE BORSTENS - 50 AP.91 - AV            11702750                                                            000134
2SR. CAIXA, APOS O VENCIMENTO COBRAR 2% DE MULTA                                 NAO RECEBER APOS 30 DIAS DO VENCIMENTO.                                                                                                                                                                                                         09022300000000000000902230000000000000       0090339900006270323418022317000135
100000000000000000000009033990000627000000000000000000000000010002020016050602231200000000002            2  01160506022324022300000003510410000000001N090223000000000000000000000000000000000000000000000000000000000000000100016050684898ANDRE RODRIGUES DE OLIVEIRA             RUA CORACAO PAULISTA - 14 - FAZENDA ITAI            08132430                                                            000137
2SR. CAIXA, APOS O VENCIMENTO COBRAR 2% DE MULTA                                 NAO RECEBER APOS 30 DIAS DO VENCIMENTO.                                                                                                                                                                                                         09022300000000000000902230000000000000       0090339900006270160506022312000138
100000000000000000000009033990000627000000000000000000000000010002020021464902231600000000002            2  01214649022324022300000005532490000000001N090223000000000000000000000000000000000000000000000000000000000000000100021464965846ANDREA APARECIDA DE OLIVEIRA PECCI      RUA ANTONIO BOZ MARFIL - 103 - PARQUE DO            05396020                                                            000140
2SR. CAIXA, APOS O VENCIMENTO COBRAR 2% DE MULTA                                 NAO RECEBER APOS 30 DIAS DO VENCIMENTO.                                                                                                                                                                                                         09022300000000000000902230000000000000       0090339900006270214649022316000141
100000000000000000000009033990000627000000000000000000000000010002020030348102231800000000002            2  01303481022324022300000003352130000000001N090223000000000000000000000000000000000000000000000000000000000000000100030348198892KELLY CRISTINA CORDEIRO                 RUA CARLOS JOSE BORSTENS - 50 AP.25 - AV            11702750                                                            000143
2SR. CAIXA, APOS O VENCIMENTO COBRAR 2% DE MULTA                                 NAO RECEBER APOS 30 DIAS DO VENCIMENTO.                                                                                                                                                                                                         09022300000000000000902230000000000000       0090339900006270303481022318000144
100000000000000000000009033990000627000000000000000000000000010002020003597502231600000000002            2  01035975022326022300000002258370000000001N090223000000000000000000000000000000000000000000000000000000000000000100003597509827ANISIO FAUSTINO DE OLIVEIRA             RUA DOMINGOS DE MAMBRO - 5 CASA 20 - CIT            06040290                                                            000146
2SR. CAIXA, APOS O VENCIMENTO COBRAR 2% DE MULTA                                 NAO RECEBER APOS 30 DIAS DO VENCIMENTO.                                                                                                                                                                                                         09022300000000000000902230000000000000       0090339900006270035975022316000147
9                                                                                                                                                                                                                                                                                                                                                                                                         000148