01REMESSA01COBRANCA       00000000000005316116AIRES CONSTRUTORA E INCORPORAD237BRADESCO       010422        MX0000191                                                                                                                                                                                                                                                                                     000001
100000000000000000000009002800441612000000000000000000000000010002100011277904221400000000002            2  01112779042210042200000004006120000000001N010422000000000000000000000000000000000000000000000000000000000000000100011277908893JOSE AILTON LOPES DE AZEVEDO            RUA MAESTRO JOAO SEPE - 19 - JARDIM MARI            04181030                                                            000002
2SR. CAIXA, APOS O VENCIMENTO COBRAR 10% DE MULTA                                NAO RECEBER APOS 30 DIAS DO VENCIMENTO.                                                                                                                                                                                                         01042200000000000000104220000000000000       0090028004416120112779042214000003
100000000000000000000009002800441612000000000000000000000000010002100025215104221100000000002            2  01252151042210042200000003021090000000001N010422000000000000000000000000000000000000000000000000000000000000000100025215106886KLEBER LUIZ DOS SANTOS                  RUA MONTE CASTELO - 262 AP.15 - AVIACAO             11702720                                                            000005
2SR. CAIXA, APOS O VENCIMENTO COBRAR 10% DE MULTA                                NAO RECEBER APOS 30 DIAS DO VENCIMENTO.                                                                                                                                                                                                         01042200000000000000104220000000000000       0090028004416120252151042211000006
100000000000000000000009002800441612000000000000000000000000010002100090206704221900000000002            2  01902067042210042200000003374460000000001N010422000000000000000000000000000000000000000000000000000000000000000100090206789815NEREIDE RODRIGUES FERREIRA              AVENIDA PADRE ESTANISLAU DE CAMPOS - 205            03590060                                                            000008
2SR. CAIXA, APOS O VENCIMENTO COBRAR 10% DE MULTA                                NAO RECEBER APOS 30 DIAS DO VENCIMENTO.                                                                                                                                                                                                         01042200000000000000104220000000000000       0090028004416120902067042219000009
100000000000000000000009002800441612000000000000000000000000010002100029150704221700000000002            2  01291507042210042200000003949840000000001N010422000000000000000000000000000000000000000000000000000000000000000100029150742833ANA DEISE SANTOS DE ALMEIDA             RUA MONTE CASTELO - 296 AP.121 - AVIACAO            11702720                                                            000011
2SR. CAIXA, APOS O VENCIMENTO COBRAR 10% DE MULTA                                NAO RECEBER APOS 30 DIAS DO VENCIMENTO.                                                                                                                                                                                                         01042200000000000000104220000000000000       0090028004416120291507042217000012
100000000000000000000009002800441612000000000000000000000000010002100000811704221200000000002            2  01008117042210042200000003253420000000001N010422000000000000000000000000000000000000000000000000000000000000000100000811752801SERGIO BUENO DA SILVA                   RUA MONTE CASTELO - 262 AP.75 - AVIACAO             11702720                                                            000014
2SR. CAIXA, APOS O VENCIMENTO COBRAR 10% DE MULTA                                NAO RECEBER APOS 30 DIAS DO VENCIMENTO.                                                                                                                                                                                                         01042200000000000000104220000000000000       0090028004416120008117042212000015
100000000000000000000009002800441612000000000000000000000000010002100018344804221900000000002            2  01183448042210042200000004423850000000001N010422000000000000000000000000000000000000000000000000000000000000000100018344803888MARCELO BERNARDO                        RUA MONTE CASTELO - 262 AP.84 - AVIACAO             11702720                                                            000017
2SR. CAIXA, APOS O VENCIMENTO COBRAR 10% DE MULTA                                NAO RECEBER APOS 30 DIAS DO VENCIMENTO.                                                                                                                                                                                                         01042200000000000000104220000000000000       0090028004416120183448042219000018
100000000000000000000009002800441612000000000000000000000000010002100031803804221400000000002            2  01318038042210042200000003572480000000001N010422000000000000000000000000000000000000000000000000000000000000000100031803864877ELEILSON FELIPPE SANTOS                 RUA SANTA GREGORIA - 193 - CIDADE DUTRA             04806030                                                            000020
2SR. CAIXA, APOS O VENCIMENTO COBRAR 10% DE MULTA                                NAO RECEBER APOS 30 DIAS DO VENCIMENTO.                                                                                                                                                                                                         01042200000000000000104220000000000000       0090028004416120318038042214000021
100000000000000000000009002800441612000000000000000000000000010002100063064504221900000000002            2  01630645042210042200000004257240000000001N010422000000000000000000000000000000000000000000000000000000000000000100063064537849ANTONIO APARECIDO DA SILVA DESTEFANO    RUA PROFESSOR TEODORO BRAGA - 46 - VILA             02966020                                                            000023
2SR. CAIXA, APOS O VENCIMENTO COBRAR 10% DE MULTA                                NAO RECEBER APOS 30 DIAS DO VENCIMENTO.                                                                                                                                                                                                         01042200000000000000104220000000000000       0090028004416120630645042219000024
100000000000000000000009002800441612000000000000000000000000010002100005920504221800000000002            2  01059205042210042200000002478600000000001N010422000000000000000000000000000000000000000000000000000000000000000100005920579846SONIA MARIA VALDO POLLO                 RUA PALMIRA CERVI BARBARO - 797 - CIDADE            13214370                                                            000026
2SR. CAIXA, APOS O VENCIMENTO COBRAR 10% DE MULTA                                NAO RECEBER APOS 30 DIAS DO VENCIMENTO.                                                                                                                                                                                                         01042200000000000000104220000000000000       0090028004416120059205042218000027
100000000000000000000009002800441612000000000000000000000000010002100002494104221900000000002            2  01024941042210042200000003726670000000001N010422000000000000000000000000000000000000000000000000000000000000000100002494107881CIRO FRANCISCO MARCHI DURIGON           RUA MONTE CASTELO - 262 AP.115 - AVIACAO            11702720                                                            000029
2SR. CAIXA, APOS O VENCIMENTO COBRAR 10% DE MULTA                                NAO RECEBER APOS 30 DIAS DO VENCIMENTO.                                                                                                                                                                                                         01042200000000000000104220000000000000       0090028004416120024941042219000030
100000000000000000000009002800441612000000000000000000000000010002100016299004221P00000000002            2  01162990042210042200000003531610000000001N010422000000000000000000000000000000000000000000000000000000000000000100016299008857FERNANDO CESAR CARVALHO                 AVENIDA MARCONDES DE BRITO - 1340 AP.74             03509000                                                            000032
2SR. CAIXA, APOS O VENCIMENTO COBRAR 10% DE MULTA                                NAO RECEBER APOS 30 DIAS DO VENCIMENTO.                                                                                                                                                                                                         01042200000000000000104220000000000000       009002800441612016299004221P000033
100000000000000000000009002800441612000000000000000000000000010002100065895304221300000000002            2  01658953042210042200000002160640000000001N010422000000000000000000000000000000000000000000000000000000000000000100065895304834MARINHO BARBOSA CUNHA                   AVENIDA EDU CHAVES - 639 AP.43 - PARQUE             02229000                                                            000035
2SR. CAIXA, APOS O VENCIMENTO COBRAR 10% DE MULTA                                NAO RECEBER APOS 30 DIAS DO VENCIMENTO.                                                                                                                                                                                                         01042200000000000000104220000000000000       0090028004416120658953042213000036
100000000000000000000009002800441612000000000000000000000000010002100055975304221000000000002            2  01559753042210042200000000806480000000001N010422000000000000000000000000000000000000000000000000000000000000000100055975372887BENEVENUTO THEODORO DA SILVA NETO       RUA MONTE CASTELO - 296 AP.63 - AVIACAO             11702720                                                            000038
2SR. CAIXA, APOS O VENCIMENTO COBRAR 10% DE MULTA                                NAO RECEBER APOS 30 DIAS DO VENCIMENTO.                                                                                                                                                                                                         01042200000000000000104220000000000000       0090028004416120559753042210000039
9                                                                                                                                                                                                                                                                                                                                                                                                         000040