01REMESSA01COBRANCA       00000000000005331186H B SANTOS CONSTRUTORA E INCOR237BRADESCO       011220        MX0000011                                                                                                                                                                                                                                                                                     000001
100000000000000000000009033990000995400000000000000000000000010002100002252112201P00000000002            2  01022521122019122000000000001990000000001N011220000000000000000000000000000000000000000000000000000000000000000100002252149892AIRES MOTA DOS SANTOS                   AVENIDA BRASIL - 600 - AVIACAO - PRAIA G            11701090                                                            000002
2SR. CAIXA, APOS O VENCIMENTO COBRAR 10% DE MULTA                                NAO RECEBER APOS 30 DIAS DO VENCIMENTO.                                                                                                                                                                                                         01122000000000000000112200000000000000       009033990000995402252112201P000003
9                                                                                                                                                                                                                                                                                                                                                                                                         000004