01REMESSA01COBRANCA       00000000000004991454AIRES CONSTRUTORA E INCORPORAD237BRADESCO       060317        MX0000069                                                                                                                                                                                                                                                                                     000001
100000000000000000000009077090001674800000000000000000000000010002100014390127147800000000002            2  01143901271410031700000007484200000000099N060317000000000000000000000000000000000000000000000000000000000000000100026032632857MARILA LOPES PEREIRA                    RUA ESTRADA DO M BOI MIRIM - 820 BL.05 A            04905000                                                            000002
2SR. CAIXA, APOS O VENCIMENTO COBRAR 10% DE MULTA                                NAO RECEBER APOS 30 DIAS DO VENCIMENTO.                                                                                                                                                                                                         06031700000000000000603170000000000000       0090770900016748143901271478000003
9                                                                                                                                                                                                                                                                                                                                                                                                         000004