01REMESSA01COBRANCA       00000000000008017025HB SANTOS CONSTRUTORA E INCORP237BRADESCO       100518        MX0000055                                                                                                                                                                                                                                                                                     000001
100000000000000000000009033990000627000000000000000000000000010002020025035105181600000000002            2  01250351051824051800000001869530000000001N100518000000000000000000000000000000000000000000000000000000000000000100025035170802WANDERSON LUIS DE CARVALHO              RUA JOAQUIM GONCALVES ROCHA - 302 - JARD            02859030                                                            000002
2SR. CAIXA, APOS O VENCIMENTO COBRAR 2% DE MULTA                                 NAO RECEBER APOS 30 DIAS DO VENCIMENTO.                                                                                                                                                                                                         10051800000000000001005180000000000000       0090339900006270250351051816000003
100000000000000000000009033990000627000000000000000000000000010002020007294305181300000000002            2  01072943051824051800000002514570000000001N100518000000000000000000000000000000000000000000000000000000000000000100007294351805CLAUDENIR APARECIDO VACARI              RUA OFELIA CHAVES DE MEIRELLES - 989 CAS            11360210                                                            000005
2SR. CAIXA, APOS O VENCIMENTO COBRAR 2% DE MULTA                                 NAO RECEBER APOS 30 DIAS DO VENCIMENTO.                                                                                                                                                                                                         10051800000000000001005180000000000000       0090339900006270072943051813000006
100000000000000000000009033990000627000000000000000000000000010002020042976105181300000000002            2  01429761051824051800000002540950000000001N100518000000000000000000000000000000000000000000000000000000000000000100042976111634ACACIO TOSCANO BONDANCA                 RUA COMENDADOR JACOMO ANTONIO LA SELVA -            12946797                                                            000008
2SR. CAIXA, APOS O VENCIMENTO COBRAR 2% DE MULTA                                 NAO RECEBER APOS 30 DIAS DO VENCIMENTO.                                                                                                                                                                                                         10051800000000000001005180000000000000       0090339900006270429761051813000009
100000000000000000000009033990000627000000000000000000000000010002020035438005181700000000002            2  01354380051824051800000002145960000000001N100518000000000000000000000000000000000000000000000000000000000000000100035438022836ALESSANDRO FARACO DOS SANTOS            RUA PEDRO POMAR  - 145 - JARDIM ELISA MA            02875020                                                            000011
2SR. CAIXA, APOS O VENCIMENTO COBRAR 2% DE MULTA                                 NAO RECEBER APOS 30 DIAS DO VENCIMENTO.                                                                                                                                                                                                         10051800000000000001005180000000000000       0090339900006270354380051817000012
100000000000000000000009033990000627000000000000000000000000010002020007525005181900000000002            2  01075250051824051800000002812660000000001N100518000000000000000000000000000000000000000000000000000000000000000100007525032866FERNANDO RIBEIRO                        RUA ALDO COLI - 539 - VILA MIRIM - PRAIA            11704760                                                            000014
2SR. CAIXA, APOS O VENCIMENTO COBRAR 2% DE MULTA                                 NAO RECEBER APOS 30 DIAS DO VENCIMENTO.                                                                                                                                                                                                         10051800000000000001005180000000000000       0090339900006270075250051819000015
100000000000000000000009033990000627000000000000000000000000010002020005071405181400000000002            2  01050714051824051800000002467230000000001N100518000000000000000000000000000000000000000000000000000000000000000100005071481855ERIBALDO SANTANA CARVALHO               RUA HONDURAS - 477 - PARQUE DAS AMERICAS            09351070                                                            000017
2SR. CAIXA, APOS O VENCIMENTO COBRAR 2% DE MULTA                                 NAO RECEBER APOS 30 DIAS DO VENCIMENTO.                                                                                                                                                                                                         10051800000000000001005180000000000000       0090339900006270050714051814000018
100000000000000000000009033990000627000000000000000000000000010002020002841705181800000000002            2  01028417051824051800000002308310000000001N100518000000000000000000000000000000000000000000000000000000000000000100002841756416LUCIANA PINHEIRO DE ASSIS NUNES         RUA RIO ACIMA - 81 - RIACHO GRANDE - SAO            09830100                                                            000020
2SR. CAIXA, APOS O VENCIMENTO COBRAR 2% DE MULTA                                 NAO RECEBER APOS 30 DIAS DO VENCIMENTO.                                                                                                                                                                                                         10051800000000000001005180000000000000       0090339900006270028417051818000021
100000000000000000000009033990000627000000000000000000000000010002020084302005181700000000002            2  01843020051824051800000002319370000000001N100518000000000000000000000000000000000000000000000000000000000000000100084302097868FAUSTO TADEU VILOR                      RUA ANTONIO TAVARES - 466 - BAIRRO CAMBU            01542010                                                            000023
2SR. CAIXA, APOS O VENCIMENTO COBRAR 2% DE MULTA                                 NAO RECEBER APOS 30 DIAS DO VENCIMENTO.                                                                                                                                                                                                         10051800000000000001005180000000000000       0090339900006270843020051817000024
100000000000000000000009033990000627000000000000000000000000010002020028804205181700000000002            2  01288042051824051800000002278810000000001N100518000000000000000000000000000000000000000000000000000000000000000100028804202882GILBERTO FABIANO CABRAL DE CAMARGO      RUA CARLOS JOSE BORSTENS - 50 AP.44 - AV            11702750                                                            000026
2SR. CAIXA, APOS O VENCIMENTO COBRAR 2% DE MULTA                                 NAO RECEBER APOS 30 DIAS DO VENCIMENTO.                                                                                                                                                                                                         10051800000000000001005180000000000000       0090339900006270288042051817000027
100000000000000000000009033990000627000000000000000000000000010002020000991705181P00000000002            2  01009917051824051800000002224190000000001N100518000000000000000000000000000000000000000000000000000000000000000100000991748808JAILSON BORGES DE ANDRADE               RUA IPIOBUNA - 45 - JARDIM CUMBICA - GUA            07240040                                                            000029
2SR. CAIXA, APOS O VENCIMENTO COBRAR 2% DE MULTA                                 NAO RECEBER APOS 30 DIAS DO VENCIMENTO.                                                                                                                                                                                                         10051800000000000001005180000000000000       009033990000627000991705181P000030
100000000000000000000009033990000627000000000000000000000000010002020092180205181700000000002            2  01921802051824051800000003032440000000001N100518000000000000000000000000000000000000000000000000000000000000000100092180299834LUIS ROBERTO DE SA DUARTE               RUA TEBAS - 296 AP.84 BLOCO 2 CE - JARDI            04634031                                                            000032
2SR. CAIXA, APOS O VENCIMENTO COBRAR 2% DE MULTA                                 NAO RECEBER APOS 30 DIAS DO VENCIMENTO.                                                                                                                                                                                                         10051800000000000001005180000000000000       0090339900006270921802051817000033
100000000000000000000009033990000627000000000000000000000000010002020022151605181600000000002            2  01221516051824051800000002211300000000001N100518000000000000000000000000000000000000000000000000000000000000000100022151666816SAMIR LIMA DE ARAUJO                    AVENIDA GUARAPIRANGA - 2616 AP.42 BLOCO1            04902005                                                            000035
2SR. CAIXA, APOS O VENCIMENTO COBRAR 2% DE MULTA                                 NAO RECEBER APOS 30 DIAS DO VENCIMENTO.                                                                                                                                                                                                         10051800000000000001005180000000000000       0090339900006270221516051816000036
100000000000000000000009033990000627000000000000000000000000010002020022313105181800000000002            2  01223131051826051800000001748150000000001N100518000000000000000000000000000000000000000000000000000000000000000100022313116824ROSA MARIA BRITO DA SILVA               RUA SERVIDAO DE SAO MARCOS - 113 - JARDI            04930300                                                            000038
2SR. CAIXA, APOS O VENCIMENTO COBRAR 2% DE MULTA                                 NAO RECEBER APOS 30 DIAS DO VENCIMENTO.                                                                                                                                                                                                         10051800000000000001005180000000000000       0090339900006270223131051818000039
100000000000000000000009033990000627000000000000000000000000010002020027538005181P00000000002            2  01275380051826051800000001754240000000001N100518000000000000000000000000000000000000000000000000000000000000000100027538087249MARA LUCIA MENEZES DA COSTA             RUA LEILA  - 183 - ITAQUERA - SAO PAULO             08240020                                                            000041
2SR. CAIXA, APOS O VENCIMENTO COBRAR 2% DE MULTA                                 NAO RECEBER APOS 30 DIAS DO VENCIMENTO.                                                                                                                                                                                                         10051800000000000001005180000000000000       009033990000627027538005181P000042
100000000000000000000009033990000627000000000000000000000000010002020020105505181800000000002            2  01201055051826051800000001857100000000001N100518000000000000000000000000000000000000000000000000000000000000000100020105503827VALTER DE SOUSA LIBARINO FILHO          RUA DAS PAINEIRAS - 140 - LARANJEIRAS -             07700000                                                            000044
2SR. CAIXA, APOS O VENCIMENTO COBRAR 2% DE MULTA                                 NAO RECEBER APOS 30 DIAS DO VENCIMENTO.                                                                                                                                                                                                         10051800000000000001005180000000000000       0090339900006270201055051818000045
100000000000000000000009033990000627000000000000000000000000010002020031278405181600000000002            2  01312784051824051800000002136180000000001N100518000000000000000000000000000000000000000000000000000000000000000100031278411836JEFFERSON DE PIERI PIRES ZAMUNER        RUA MANOEL ARCE - 277 - PARQUE BANCARIO             03922150                                                            000047
2SR. CAIXA, APOS O VENCIMENTO COBRAR 2% DE MULTA                                 NAO RECEBER APOS 30 DIAS DO VENCIMENTO.                                                                                                                                                                                                         10051800000000000001005180000000000000       0090339900006270312784051816000048
100000000000000000000009033990000627000000000000000000000000010002020019185705181800000000002            2  01191857051826051800000001596400000000001N100518000000000000000000000000000000000000000000000000000000000000000100019185769800AGUINALDO PESSOA DE LIMA                RUA JANUARIO ZINGARO - 252 AP.303 BL.04             05794300                                                            000050
2SR. CAIXA, APOS O VENCIMENTO COBRAR 2% DE MULTA                                 NAO RECEBER APOS 30 DIAS DO VENCIMENTO.                                                                                                                                                                                                         10051800000000000001005180000000000000       0090339900006270191857051818000051
100000000000000000000009033990000627000000000000000000000000010002020033303605181900000000002            2  01333036051826051800000001719460000000001N100518000000000000000000000000000000000000000000000000000000000000000100033303645809JESSICA DA SILVA FREITAS                RUA ARILDO VALADAO - 120 - JARDIM GUAEMB            04814600                                                            000053
2SR. CAIXA, APOS O VENCIMENTO COBRAR 2% DE MULTA                                 NAO RECEBER APOS 30 DIAS DO VENCIMENTO.                                                                                                                                                                                                         10051800000000000001005180000000000000       0090339900006270333036051819000054
100000000000000000000009033990000627000000000000000000000000010002020004824405181800000000002            2  01048244051826051800000001733060000000001N100518000000000000000000000000000000000000000000000000000000000000000100004824443806ROSIMEIRE CLARA FERREIRA REZENDE        RUA JOAQUIM DE OLIVEIRA FREITAS - 912 AP            05133000                                                            000056
2SR. CAIXA, APOS O VENCIMENTO COBRAR 2% DE MULTA                                 NAO RECEBER APOS 30 DIAS DO VENCIMENTO.                                                                                                                                                                                                         10051800000000000001005180000000000000       0090339900006270048244051818000057
100000000000000000000009033990000627000000000000000000000000010002020006422605181400000000002            2  01064226051824051800000002313540000000001N100518000000000000000000000000000000000000000000000000000000000000000100006422607881GERALDO ALVES DA SILVA                  RUA ALFREDO JOREL - 195 AP.5 CONDOMINIO             04195020                                                            000059
2SR. CAIXA, APOS O VENCIMENTO COBRAR 2% DE MULTA                                 NAO RECEBER APOS 30 DIAS DO VENCIMENTO.                                                                                                                                                                                                         10051800000000000001005180000000000000       0090339900006270064226051814000060
100000000000000000000009033990000627000000000000000000000000010002020033877105181600000000002            2  01338771051826051800000001612050000000001N100518000000000000000000000000000000000000000000000000000000000000000100033877129870HELDER FERREIRA VIANA                   RUA LEOPOLDO MOTTA E SILVA - 93 AP.34 -             11320340                                                            000062
2SR. CAIXA, APOS O VENCIMENTO COBRAR 2% DE MULTA                                 NAO RECEBER APOS 30 DIAS DO VENCIMENTO.                                                                                                                                                                                                         10051800000000000001005180000000000000       0090339900006270338771051816000063
100000000000000000000009033990000627000000000000000000000000010002020028290705181P00000000002            2  01282907051826051800000001485690000000001N100518000000000000000000000000000000000000000000000000000000000000000100028290719809VANESSA GIANGARRELLI PEREIRA            RUA BARINEL - 72 - JARDIM COTCHING - SAO            03462130                                                            000065
2SR. CAIXA, APOS O VENCIMENTO COBRAR 2% DE MULTA                                 NAO RECEBER APOS 30 DIAS DO VENCIMENTO.                                                                                                                                                                                                         10051800000000000001005180000000000000       009033990000627028290705181P000066
100000000000000000000009033990000627000000000000000000000000010002020087573005181500000000002            2  01875730051826051800000001622380000000001N100518000000000000000000000000000000000000000000000000000000000000000100087573059604VANDERLEY DE ASSIS                      RUA ROMEU ALBANI - 268 - JARDIM PARQUE R            13803810                                                            000068
2SR. CAIXA, APOS O VENCIMENTO COBRAR 2% DE MULTA                                 NAO RECEBER APOS 30 DIAS DO VENCIMENTO.                                                                                                                                                                                                         10051800000000000001005180000000000000       0090339900006270875730051815000069
100000000000000000000009033990000627000000000000000000000000010002020010825505181200000000002            2  01108255051826051800000001693040000000001N100518000000000000000000000000000000000000000000000000000000000000000100010825513847JOSE APARECIDO PEREIRA                  RUA GENERAL OSORIO - 305 - JARDIM TRINTA            11515130                                                            000071
2SR. CAIXA, APOS O VENCIMENTO COBRAR 2% DE MULTA                                 NAO RECEBER APOS 30 DIAS DO VENCIMENTO.                                                                                                                                                                                                         10051800000000000001005180000000000000       0090339900006270108255051812000072
100000000000000000000009033990000627000000000000000000000000010002020038818505181200000000002            2  01388185051826051800000002645400000000001N100518000000000000000000000000000000000000000000000000000000000000000100038818572814MAURICIUS ALEXANDRE ESTEVAM NABOR       RUA RAUL SERAPIAO BARROSO - 379 - ESPLAN            11340330                                                            000074
2SR. CAIXA, APOS O VENCIMENTO COBRAR 2% DE MULTA                                 NAO RECEBER APOS 30 DIAS DO VENCIMENTO.                                                                                                                                                                                                         10051800000000000001005180000000000000       0090339900006270388185051812000075
100000000000000000000009033990000627000000000000000000000000010002020039115105181400000000002            2  01391151051826051800000002086960000000001N100518000000000000000000000000000000000000000000000000000000000000000100039115139840LAIS CRISTINA RIBEIRO ANDO              RUA PERU - 769 AP.17 - VILA GUILHERMINA             11702250                                                            000077
2SR. CAIXA, APOS O VENCIMENTO COBRAR 2% DE MULTA                                 NAO RECEBER APOS 30 DIAS DO VENCIMENTO.                                                                                                                                                                                                         10051800000000000001005180000000000000       0090339900006270391151051814000078
100000000000000000000009033990000627000000000000000000000000010002020029617505181200000000002            2  01296175051824051800000002270800000000001N100518000000000000000000000000000000000000000000000000000000000000000100029617510553MARILENE SOUZA DE OLIVEIRA              AVENIDA BRASIL - 393 AP.09 - PARQUE DAS             09210280                                                            000080
2SR. CAIXA, APOS O VENCIMENTO COBRAR 2% DE MULTA                                 NAO RECEBER APOS 30 DIAS DO VENCIMENTO.                                                                                                                                                                                                         10051800000000000001005180000000000000       0090339900006270296175051812000081
100000000000000000000009033990000627000000000000000000000000010002020029617505182000000000002            2  01296175051824051800000002270800000000001N100518000000000000000000000000000000000000000000000000000000000000000100029617510553MARILENE SOUZA DE OLIVEIRA              AVENIDA BRASIL - 393 AP.09 - PARQUE DAS             09210280                                                            000083
2SR. CAIXA, APOS O VENCIMENTO COBRAR 2% DE MULTA                                 NAO RECEBER APOS 30 DIAS DO VENCIMENTO.                                                                                                                                                                                                         10051800000000000001005180000000000000       0090339900006270296175051820000084
100000000000000000000009033990000627000000000000000000000000010002020029617505183900000000002            2  01296175051824051800000002270800000000001N100518000000000000000000000000000000000000000000000000000000000000000100029617510553MARILENE SOUZA DE OLIVEIRA              AVENIDA BRASIL - 393 AP.09 - PARQUE DAS             09210280                                                            000086
2SR. CAIXA, APOS O VENCIMENTO COBRAR 2% DE MULTA                                 NAO RECEBER APOS 30 DIAS DO VENCIMENTO.                                                                                                                                                                                                         10051800000000000001005180000000000000       0090339900006270296175051839000087
100000000000000000000009033990000627000000000000000000000000010002020029617505184700000000002            2  01296175051824051800000002270800000000001N100518000000000000000000000000000000000000000000000000000000000000000100029617510553MARILENE SOUZA DE OLIVEIRA              AVENIDA BRASIL - 393 AP.09 - PARQUE DAS             09210280                                                            000089
2SR. CAIXA, APOS O VENCIMENTO COBRAR 2% DE MULTA                                 NAO RECEBER APOS 30 DIAS DO VENCIMENTO.                                                                                                                                                                                                         10051800000000000001005180000000000000       0090339900006270296175051847000090
100000000000000000000009033990000627000000000000000000000000010002020000593205181200000000002            2  01005932051824051800000002490510000000001N100518000000000000000000000000000000000000000000000000000000000000000100000593293860WALTER HELIO BARBOSA FILHO              AVENIDA ANTONIO FREDERICO OZANAN - 9500             13214206                                                            000092
2SR. CAIXA, APOS O VENCIMENTO COBRAR 2% DE MULTA                                 NAO RECEBER APOS 30 DIAS DO VENCIMENTO.                                                                                                                                                                                                         10051800000000000001005180000000000000       0090339900006270005932051812000093
100000000000000000000009033990000627000000000000000000000000010002020007730005181800000000002            2  01077300051824051800000003541770000000001N100518000000000000000000000000000000000000000000000000000000000000000100007730084899ARNALDO LUIZ VONO                       RUA CARLOS JOSE BORSTENS - 50 AP.122 - A            11702750                                                            000095
2SR. CAIXA, APOS O VENCIMENTO COBRAR 2% DE MULTA                                 NAO RECEBER APOS 30 DIAS DO VENCIMENTO.                                                                                                                                                                                                         10051800000000000001005180000000000000       0090339900006270077300051818000096
100000000000000000000009033990000627000000000000000000000000010002020065584105181400000000002            2  01655841051824051800000001307360000000001N100518000000000000000000000000000000000000000000000000000000000000000100065584147834JOAQUIM DA COSTA MACHADO NETO           RUA CARLOS JOSE BORSTENS - 50 AP.42 - AV            11702750                                                            000098
2SR. CAIXA, APOS O VENCIMENTO COBRAR 2% DE MULTA                                 NAO RECEBER APOS 30 DIAS DO VENCIMENTO.                                                                                                                                                                                                         10051800000000000001005180000000000000       0090339900006270655841051814000099
100000000000000000000009033990000627000000000000000000000000010002020001616905181600000000002            2  01016169051824051800000002299290000000001N100518000000000000000000000000000000000000000000000000000000000000000100001616913827CLAUDIO LUIZ PAULELLA                   PRACA NESTOR DOS SANTOS ARRUDA - 26 - VI            13920000                                                            000101
2SR. CAIXA, APOS O VENCIMENTO COBRAR 2% DE MULTA                                 NAO RECEBER APOS 30 DIAS DO VENCIMENTO.                                                                                                                                                                                                         10051800000000000001005180000000000000       0090339900006270016169051816000102
100000000000000000000009033990000627000000000000000000000000010002020006684605181700000000002            2  01066846051826051800000001719220000000001N100518000000000000000000000000000000000000000000000000000000000000000100006684623884LAUDINOR VIEIRA GARCIA                  RUA CANDIDO SALES - 374 - JARDIM PRESIDE            07172000                                                            000104
2SR. CAIXA, APOS O VENCIMENTO COBRAR 2% DE MULTA                                 NAO RECEBER APOS 30 DIAS DO VENCIMENTO.                                                                                                                                                                                                         10051800000000000001005180000000000000       0090339900006270066846051817000105
100000000000000000000009033990000627000000000000000000000000010002020011663505181800000000002            2  01116635051826051800000001731620000000001N100518000000000000000000000000000000000000000000000000000000000000000100011663589844MARIA SAVIO QUARELLO                    AVENIDA MENDONCA DRUMOND - 321 - JARDIM             03524030                                                            000107
2SR. CAIXA, APOS O VENCIMENTO COBRAR 2% DE MULTA                                 NAO RECEBER APOS 30 DIAS DO VENCIMENTO.                                                                                                                                                                                                         10051800000000000001005180000000000000       0090339900006270116635051818000108
100000000000000000000009033990000627000000000000000000000000010002020010083805181P00000000002            2  01100838051826051800000001673010000000001N100518000000000000000000000000000000000000000000000000000000000000000100010083824855IONE FERREIRA COUTO DA SILVA            RUA JOSE RAGEL DE MESQUITA - 60 CS.01 -             07799999                                                            000110
2SR. CAIXA, APOS O VENCIMENTO COBRAR 2% DE MULTA                                 NAO RECEBER APOS 30 DIAS DO VENCIMENTO.                                                                                                                                                                                                         10051800000000000001005180000000000000       009033990000627010083805181P000111
100000000000000000000009033990000627000000000000000000000000010002020036881705181200000000002            2  01368817051826051800000001641790000000001N100518000000000000000000000000000000000000000000000000000000000000000100036881778864ANDRE GONZALEZ RABELLO                  RUA PARAIBA - 106 AP.61 - POMPEIA - SANT            11065470                                                            000113
2SR. CAIXA, APOS O VENCIMENTO COBRAR 2% DE MULTA                                 NAO RECEBER APOS 30 DIAS DO VENCIMENTO.                                                                                                                                                                                                         10051800000000000001005180000000000000       0090339900006270368817051812000114
100000000000000000000009033990000627000000000000000000000000010002020018207005181100000000002            2  01182070051824051800000002202060000000001N100518000000000000000000000000000000000000000000000000000000000000000100018207096802ROBERTO VALENTE TAVARES                 RUA SEBASTIAO GOMES - 218 - JARDIM SANTO            13835000                                                            000116
2SR. CAIXA, APOS O VENCIMENTO COBRAR 2% DE MULTA                                 NAO RECEBER APOS 30 DIAS DO VENCIMENTO.                                                                                                                                                                                                         10051800000000000001005180000000000000       0090339900006270182070051811000117
100000000000000000000009033990000627000000000000000000000000010002020005351005181400000000002            2  01053510051826051800000001539340000000001N100518000000000000000000000000000000000000000000000000000000000000000100005351015897VALERIA ALVES MARCOLINO HINNIGER        RUA MONGOLIA - 230 AP.71 BL.4 - PARQUE N            09280220                                                            000119
2SR. CAIXA, APOS O VENCIMENTO COBRAR 2% DE MULTA                                 NAO RECEBER APOS 30 DIAS DO VENCIMENTO.                                                                                                                                                                                                         10051800000000000001005180000000000000       0090339900006270053510051814000120
100000000000000000000009033990000627000000000000000000000000010002020031898705181P00000000002            2  01318987051824051800000002383040000000001N100518000000000000000000000000000000000000000000000000000000000000000100031898775800ANITA MARTINS COLOMBO                   RUA CARLOS JOSE BORSTENS - 50 AP.115 - A            11702750                                                            000122
2SR. CAIXA, APOS O VENCIMENTO COBRAR 2% DE MULTA                                 NAO RECEBER APOS 30 DIAS DO VENCIMENTO.                                                                                                                                                                                                         10051800000000000001005180000000000000       009033990000627031898705181P000123
100000000000000000000009033990000627000000000000000000000000010002020037983405181P00000000002            2  01379834051826051800000001808220000000001N100518000000000000000000000000000000000000000000000000000000000000000100037983484801JOSE ERIVALDO SOUZA DO NASCIMENTO RAMOS RUA LETICIA - 250 - JARDIM GUARUJA - SAO            05877260                                                            000125
2SR. CAIXA, APOS O VENCIMENTO COBRAR 2% DE MULTA                                 NAO RECEBER APOS 30 DIAS DO VENCIMENTO.                                                                                                                                                                                                         10051800000000000001005180000000000000       009033990000627037983405181P000126
9                                                                                                                                                                                                                                                                                                                                                                                                         000127