01REMESSA01COBRANCA       00000000000008017025HB SANTOS CONSTRUTORA E INCORP237BRADESCO       010920        MX0000112                                                                                                                                                                                                                                                                                     000001
100000000000000000000009033990000627000000000000000000000000010002020025035109201600000000002            2  01250351092024092000000002304600000000001N010920000000000000000000000000000000000000000000000000000000000000000100025035170802WANDERSON LUIS DE CARVALHO              RUA JOAQUIM GONCALVES ROCHA - 302 - JARD            02859030                                                            000002
2SR. CAIXA, APOS O VENCIMENTO COBRAR 2% DE MULTA                                 NAO RECEBER APOS 30 DIAS DO VENCIMENTO.                                                                                                                                                                                                         01092000000000000000109200000000000000       0090339900006270250351092016000003
100000000000000000000009033990000627000000000000000000000000010002020007294309201300000000002            2  01072943092024092000000003099710000000001N010920000000000000000000000000000000000000000000000000000000000000000100007294351805CLAUDENIR APARECIDO VACARI              RUA CARLOS JOSE BORSTENS - 50 AP.93 - AV            11702750                                                            000005
2SR. CAIXA, APOS O VENCIMENTO COBRAR 2% DE MULTA                                 NAO RECEBER APOS 30 DIAS DO VENCIMENTO.                                                                                                                                                                                                         01092000000000000000109200000000000000       0090339900006270072943092013000006
100000000000000000000009033990000627000000000000000000000000010002020042976109201300000000002            2  01429761092024092000000003132250000000001N010920000000000000000000000000000000000000000000000000000000000000000100042976111634ACACIO TOSCANO BONDANCA                 RUA CARLOS JOSE BORSTENS - 50 AP.103 - A            11702750                                                            000008
2SR. CAIXA, APOS O VENCIMENTO COBRAR 2% DE MULTA                                 NAO RECEBER APOS 30 DIAS DO VENCIMENTO.                                                                                                                                                                                                         01092000000000000000109200000000000000       0090339900006270429761092013000009
100000000000000000000009033990000627000000000000000000000000010002020035438009201700000000002            2  01354380092024092000000002645340000000001N010920000000000000000000000000000000000000000000000000000000000000000100035438022836ALESSANDRO FARACO DOS SANTOS            RUA PEDRO POMAR  - 145 - JARDIM ELISA MA            02875020                                                            000011
2SR. CAIXA, APOS O VENCIMENTO COBRAR 2% DE MULTA                                 NAO RECEBER APOS 30 DIAS DO VENCIMENTO.                                                                                                                                                                                                         01092000000000000000109200000000000000       0090339900006270354380092017000012
100000000000000000000009033990000627000000000000000000000000010002020007525009201900000000002            2  01075250092024092000000003467160000000001N010920000000000000000000000000000000000000000000000000000000000000000100007525032866FERNANDO RIBEIRO                        RUA CARLOS JOSE BORSTENS - 50 AP.32 - AV            11702750                                                            000014
2SR. CAIXA, APOS O VENCIMENTO COBRAR 2% DE MULTA                                 NAO RECEBER APOS 30 DIAS DO VENCIMENTO.                                                                                                                                                                                                         01092000000000000000109200000000000000       0090339900006270075250092019000015
100000000000000000000009033990000627000000000000000000000000010002020005071409201400000000002            2  01050714092024092000000003041360000000001N010920000000000000000000000000000000000000000000000000000000000000000100005071481855ERIBALDO SANTANA CARVALHO               RUA HONDURAS - 477 - PARQUE DAS AMERICAS            09351070                                                            000017
2SR. CAIXA, APOS O VENCIMENTO COBRAR 2% DE MULTA                                 NAO RECEBER APOS 30 DIAS DO VENCIMENTO.                                                                                                                                                                                                         01092000000000000000109200000000000000       0090339900006270050714092014000018
100000000000000000000009033990000627000000000000000000000000010002020002841709201800000000002            2  01028417092024092000000002845480000000001N010920000000000000000000000000000000000000000000000000000000000000000100002841756416LUCIANA PINHEIRO DE ASSIS NUNES         RUA RIO ACIMA - 81 - RIACHO GRANDE - SAO            09830100                                                            000020
2SR. CAIXA, APOS O VENCIMENTO COBRAR 2% DE MULTA                                 NAO RECEBER APOS 30 DIAS DO VENCIMENTO.                                                                                                                                                                                                         01092000000000000000109200000000000000       0090339900006270028417092018000021
100000000000000000000009033990000627000000000000000000000000010002020084302009201700000000002            2  01843020092024092000000002859130000000001N010920000000000000000000000000000000000000000000000000000000000000000100084302097868FAUSTO TADEU VILOR                      RUA ANTONIO TAVARES - 466 - BAIRRO CAMBU            01542010                                                            000023
2SR. CAIXA, APOS O VENCIMENTO COBRAR 2% DE MULTA                                 NAO RECEBER APOS 30 DIAS DO VENCIMENTO.                                                                                                                                                                                                         01092000000000000000109200000000000000       0090339900006270843020092017000024
100000000000000000000009033990000627000000000000000000000000010002020028804209201700000000002            2  01288042092024092000000002809120000000001N010920000000000000000000000000000000000000000000000000000000000000000100028804202882GILBERTO FABIANO CABRAL DE CAMARGO      RUA CARLOS JOSE BORSTENS - 50 AP.44 - AV            11702750                                                            000026
2SR. CAIXA, APOS O VENCIMENTO COBRAR 2% DE MULTA                                 NAO RECEBER APOS 30 DIAS DO VENCIMENTO.                                                                                                                                                                                                         01092000000000000000109200000000000000       0090339900006270288042092017000027
100000000000000000000009033990000627000000000000000000000000010002020000991709201P00000000002            2  01009917092024092000000002741810000000001N010920000000000000000000000000000000000000000000000000000000000000000100000991748808JAILSON BORGES DE ANDRADE               RUA IPIOBUNA - 45 - JARDIM CUMBICA - GUA            07240040                                                            000029
2SR. CAIXA, APOS O VENCIMENTO COBRAR 2% DE MULTA                                 NAO RECEBER APOS 30 DIAS DO VENCIMENTO.                                                                                                                                                                                                         01092000000000000000109200000000000000       009033990000627000991709201P000030
100000000000000000000009033990000627000000000000000000000000010002020022151609201600000000002            2  01221516092024092000000002725890000000001N010920000000000000000000000000000000000000000000000000000000000000000100022151666816SAMIR LIMA DE ARAUJO                    AVENIDA GUARAPIRANGA - 2616 AP.131 BL.14            04902005                                                            000032
2SR. CAIXA, APOS O VENCIMENTO COBRAR 2% DE MULTA                                 NAO RECEBER APOS 30 DIAS DO VENCIMENTO.                                                                                                                                                                                                         01092000000000000000109200000000000000       0090339900006270221516092016000033
100000000000000000000009033990000627000000000000000000000000010002020022313109201800000000002            2  01223131092026092000000002096860000000001N010920000000000000000000000000000000000000000000000000000000000000000100022313116824ROSA MARIA BRITO DA SILVA               RUA SERVIDAO DE SAO MARCOS - 113 - JARDI            04930300                                                            000035
2SR. CAIXA, APOS O VENCIMENTO COBRAR 2% DE MULTA                                 NAO RECEBER APOS 30 DIAS DO VENCIMENTO.                                                                                                                                                                                                         01092000000000000000109200000000000000       0090339900006270223131092018000036
100000000000000000000009033990000627000000000000000000000000010002020027538009201P00000000002            2  01275380092026092000000002104180000000001N010920000000000000000000000000000000000000000000000000000000000000000100027538087249MARA LUCIA MENEZES DA COSTA             RUA LEILA  - 183 - ITAQUERA - SAO PAULO             08240020                                                            000038
2SR. CAIXA, APOS O VENCIMENTO COBRAR 2% DE MULTA                                 NAO RECEBER APOS 30 DIAS DO VENCIMENTO.                                                                                                                                                                                                         01092000000000000000109200000000000000       009033990000627027538009201P000039
100000000000000000000009033990000627000000000000000000000000010002020031278409201600000000002            2  01312784092024092000000002633290000000001N010920000000000000000000000000000000000000000000000000000000000000000100031278411836JEFFERSON DE PIERI PIRES ZAMUNER        RUA MANOEL ARCE - 277 - PARQUE BANCARIO             03922150                                                            000041
2SR. CAIXA, APOS O VENCIMENTO COBRAR 2% DE MULTA                                 NAO RECEBER APOS 30 DIAS DO VENCIMENTO.                                                                                                                                                                                                         01092000000000000000109200000000000000       0090339900006270312784092016000042
100000000000000000000009033990000627000000000000000000000000010002020019185709201800000000002            2  01191857092026092000000001914830000000001N010920000000000000000000000000000000000000000000000000000000000000000100019185769800AGUINALDO PESSOA DE LIMA                RUA JANUARIO ZINGARO - 252 AP.303 BL.04             05794300                                                            000044
2SR. CAIXA, APOS O VENCIMENTO COBRAR 2% DE MULTA                                 NAO RECEBER APOS 30 DIAS DO VENCIMENTO.                                                                                                                                                                                                         01092000000000000000109200000000000000       0090339900006270191857092018000045
100000000000000000000009033990000627000000000000000000000000010002020033303609201900000000002            2  01333036092026092000000002062450000000001N010920000000000000000000000000000000000000000000000000000000000000000100033303645809JESSICA DA SILVA FREITAS                RUA ARILDO VALADAO - 120 - JARDIM GUAEMB            04814600                                                            000047
2SR. CAIXA, APOS O VENCIMENTO COBRAR 2% DE MULTA                                 NAO RECEBER APOS 30 DIAS DO VENCIMENTO.                                                                                                                                                                                                         01092000000000000000109200000000000000       0090339900006270333036092019000048
100000000000000000000009033990000627000000000000000000000000010002020004824409201800000000002            2  01048244092026092000000002078780000000001N010920000000000000000000000000000000000000000000000000000000000000000100004824443806ROSIMEIRE CLARA FERREIRA REZENDE        RUA JOSE CALIXTO DO CARMO - 286 AP.43 -             11702690                                                            000050
2SR. CAIXA, APOS O VENCIMENTO COBRAR 2% DE MULTA                                 NAO RECEBER APOS 30 DIAS DO VENCIMENTO.                                                                                                                                                                                                         01092000000000000000109200000000000000       0090339900006270048244092018000051
100000000000000000000009033990000627000000000000000000000000010002020006422609201400000000002            2  01064226092024092000000002851910000000001N010920000000000000000000000000000000000000000000000000000000000000000100006422607881GERALDO ALVES DA SILVA                  RUA CARLOS JOSE BORSTENS - 50 AP.14 - AV            11702750                                                            000053
2SR. CAIXA, APOS O VENCIMENTO COBRAR 2% DE MULTA                                 NAO RECEBER APOS 30 DIAS DO VENCIMENTO.                                                                                                                                                                                                         01092000000000000000109200000000000000       0090339900006270064226092014000054
100000000000000000000009033990000627000000000000000000000000010002020033877109201600000000002            2  01338771092026092000000001933620000000001N010920000000000000000000000000000000000000000000000000000000000000000100033877129870HELDER FERREIRA VIANA                   RUA JOSE CALIXTO DO CARMO - 286 AP.35 -             11702690                                                            000056
2SR. CAIXA, APOS O VENCIMENTO COBRAR 2% DE MULTA                                 NAO RECEBER APOS 30 DIAS DO VENCIMENTO.                                                                                                                                                                                                         01092000000000000000109200000000000000       0090339900006270338771092016000057
100000000000000000000009033990000627000000000000000000000000010002020028290709201P00000000002            2  01282907092026092000000001782070000000001N010920000000000000000000000000000000000000000000000000000000000000000100028290719809VANESSA GIANGARRELLI PEREIRA            RUA BARINEL - 72 - JARDIM COTCHING - SAO            03462130                                                            000059
2SR. CAIXA, APOS O VENCIMENTO COBRAR 2% DE MULTA                                 NAO RECEBER APOS 30 DIAS DO VENCIMENTO.                                                                                                                                                                                                         01092000000000000000109200000000000000       009033990000627028290709201P000060
100000000000000000000009033990000627000000000000000000000000010002020087573009201500000000002            2  01875730092026092000000001946010000000001N010920000000000000000000000000000000000000000000000000000000000000000100087573059604VANDERLEY DE ASSIS                      RUA ROMEU ALBANI - 268 - JARDIM PARQUE R            13803810                                                            000062
2SR. CAIXA, APOS O VENCIMENTO COBRAR 2% DE MULTA                                 NAO RECEBER APOS 30 DIAS DO VENCIMENTO.                                                                                                                                                                                                         01092000000000000000109200000000000000       0090339900006270875730092015000063
100000000000000000000009033990000627000000000000000000000000010002020010825509201200000000002            2  01108255092026092000000002030750000000001N010920000000000000000000000000000000000000000000000000000000000000000100010825513847JOSE APARECIDO PEREIRA                  RUA GENERAL OSORIO - 305 - JARDIM TRINTA            11515130                                                            000065
2SR. CAIXA, APOS O VENCIMENTO COBRAR 2% DE MULTA                                 NAO RECEBER APOS 30 DIAS DO VENCIMENTO.                                                                                                                                                                                                         01092000000000000000109200000000000000       0090339900006270108255092012000066
100000000000000000000009033990000627000000000000000000000000010002020039115109201400000000002            2  01391151092026092000000002503260000000001N010920000000000000000000000000000000000000000000000000000000000000000100039115139840LAIS CRISTINA RIBEIRO ANDO              RUA JOSE CALIXTO DO CARMO - 286 AP.65 -             11702690                                                            000068
2SR. CAIXA, APOS O VENCIMENTO COBRAR 2% DE MULTA                                 NAO RECEBER APOS 30 DIAS DO VENCIMENTO.                                                                                                                                                                                                         01092000000000000000109200000000000000       0090339900006270391151092014000069
100000000000000000000009033990000627000000000000000000000000010002020029617509201200000000002            2  01296175092024092000000002799250000000001N010920000000000000000000000000000000000000000000000000000000000000000100029617510553MARILENE SOUZA DE OLIVEIRA              AVENIDA BRASIL - 393 AP.09 - PARQUE DAS             09210280                                                            000071
2SR. CAIXA, APOS O VENCIMENTO COBRAR 2% DE MULTA                                 NAO RECEBER APOS 30 DIAS DO VENCIMENTO.                                                                                                                                                                                                         01092000000000000000109200000000000000       0090339900006270296175092012000072
100000000000000000000009033990000627000000000000000000000000010002020000593209201200000000002            2  01005932092024092000000003070090000000001N010920000000000000000000000000000000000000000000000000000000000000000100000593293860WALTER HELIO BARBOSA FILHO              AVENIDA ANTONIO FREDERICO OZANAN - 9500             13214206                                                            000074
2SR. CAIXA, APOS O VENCIMENTO COBRAR 2% DE MULTA                                 NAO RECEBER APOS 30 DIAS DO VENCIMENTO.                                                                                                                                                                                                         01092000000000000000109200000000000000       0090339900006270005932092012000075
100000000000000000000009033990000627000000000000000000000000010002020007730009201800000000002            2  01077300092024092000000004365970000000001N010920000000000000000000000000000000000000000000000000000000000000000100007730084899ARNALDO LUIZ VONO                       RUA CARLOS JOSE BORSTENS - 50 AP.122 - A            11702750                                                            000077
2SR. CAIXA, APOS O VENCIMENTO COBRAR 2% DE MULTA                                 NAO RECEBER APOS 30 DIAS DO VENCIMENTO.                                                                                                                                                                                                         01092000000000000000109200000000000000       0090339900006270077300092018000078
100000000000000000000009033990000627000000000000000000000000010002020065584109201400000000002            2  01655841092024092000000001611630000000001N010920000000000000000000000000000000000000000000000000000000000000000100065584147834JOAQUIM DA COSTA MACHADO NETO           RUA CARLOS JOSE BORSTENS - 50 AP.42 - AV            11702750                                                            000080
2SR. CAIXA, APOS O VENCIMENTO COBRAR 2% DE MULTA                                 NAO RECEBER APOS 30 DIAS DO VENCIMENTO.                                                                                                                                                                                                         01092000000000000000109200000000000000       0090339900006270655841092014000081
100000000000000000000009033990000627000000000000000000000000010002020001616909201600000000002            2  01016169092024092000000002834350000000001N010920000000000000000000000000000000000000000000000000000000000000000100001616913827CLAUDIO LUIZ PAULELLA                   PRACA NESTOR DOS SANTOS ARRUDA - 26 - VI            13920000                                                            000083
2SR. CAIXA, APOS O VENCIMENTO COBRAR 2% DE MULTA                                 NAO RECEBER APOS 30 DIAS DO VENCIMENTO.                                                                                                                                                                                                         01092000000000000000109200000000000000       0090339900006270016169092016000084
100000000000000000000009033990000627000000000000000000000000010002020006684609201700000000002            2  01066846092026092000000002062180000000001N010920000000000000000000000000000000000000000000000000000000000000000100006684623884LAUDINOR VIEIRA GARCIA                  RUA CANDIDO SALES - 374 - JARDIM PRESIDE            07172000                                                            000086
2SR. CAIXA, APOS O VENCIMENTO COBRAR 2% DE MULTA                                 NAO RECEBER APOS 30 DIAS DO VENCIMENTO.                                                                                                                                                                                                         01092000000000000000109200000000000000       0090339900006270066846092017000087
100000000000000000000009033990000627000000000000000000000000010002020011663509201800000000002            2  01116635092026092000000002077040000000001N010920000000000000000000000000000000000000000000000000000000000000000100011663589844MARIA SAVIO QUARELLO                    AVENIDA MENDONCA DRUMOND - 321 - JARDIM             03524030                                                            000089
2SR. CAIXA, APOS O VENCIMENTO COBRAR 2% DE MULTA                                 NAO RECEBER APOS 30 DIAS DO VENCIMENTO.                                                                                                                                                                                                         01092000000000000000109200000000000000       0090339900006270116635092018000090
100000000000000000000009033990000627000000000000000000000000010002020010083809201P00000000002            2  01100838092026092000000002006760000000001N010920000000000000000000000000000000000000000000000000000000000000000100010083824855IONE FERREIRA COUTO DA SILVA            RUA JOSE RAGEL DE MESQUITA - 60 CS.01 -             07799999                                                            000092
2SR. CAIXA, APOS O VENCIMENTO COBRAR 2% DE MULTA                                 NAO RECEBER APOS 30 DIAS DO VENCIMENTO.                                                                                                                                                                                                         01092000000000000000109200000000000000       009033990000627010083809201P000093
100000000000000000000009033990000627000000000000000000000000010002020036881709201200000000002            2  01368817092026092000000001969280000000001N010920000000000000000000000000000000000000000000000000000000000000000100036881778864ANDRE GONZALEZ RABELLO                  RUA PARAIBA - 106 AP.61 - POMPEIA - SANT            11065470                                                            000095
2SR. CAIXA, APOS O VENCIMENTO COBRAR 2% DE MULTA                                 NAO RECEBER APOS 30 DIAS DO VENCIMENTO.                                                                                                                                                                                                         01092000000000000000109200000000000000       0090339900006270368817092012000096
100000000000000000000009033990000627000000000000000000000000010002020018207009201100000000002            2  01182070092024092000000002714490000000001N010920000000000000000000000000000000000000000000000000000000000000000100018207096802ROBERTO VALENTE TAVARES                 RUA SEBASTIAO GOMES - 218 - JARDIM SANTO            13835000                                                            000098
2SR. CAIXA, APOS O VENCIMENTO COBRAR 2% DE MULTA                                 NAO RECEBER APOS 30 DIAS DO VENCIMENTO.                                                                                                                                                                                                         01092000000000000000109200000000000000       0090339900006270182070092011000099
100000000000000000000009033990000627000000000000000000000000010002020005351009201400000000002            2  01053510092026092000000001846400000000001N010920000000000000000000000000000000000000000000000000000000000000000100005351015897VALERIA ALVES MARCOLINO HINNIGER        RUA JOSE CALIXTO DO CARMO - 286 AP.92 -             11702690                                                            000101
2SR. CAIXA, APOS O VENCIMENTO COBRAR 2% DE MULTA                                 NAO RECEBER APOS 30 DIAS DO VENCIMENTO.                                                                                                                                                                                                         01092000000000000000109200000000000000       0090339900006270053510092014000102
100000000000000000000009033990000627000000000000000000000000010002020031898709201P00000000002            2  01318987092024092000000002937590000000001N010920000000000000000000000000000000000000000000000000000000000000000100031898775800ANITA MARTINS COLOMBO                   RUA CARLOS JOSE BORSTENS - 50 AP.115 - A            11702750                                                            000104
2SR. CAIXA, APOS O VENCIMENTO COBRAR 2% DE MULTA                                 NAO RECEBER APOS 30 DIAS DO VENCIMENTO.                                                                                                                                                                                                         01092000000000000000109200000000000000       009033990000627031898709201P000105
100000000000000000000009033990000627000000000000000000000000010002020037983409201P00000000002            2  01379834092026092000000002168930000000001N010920000000000000000000000000000000000000000000000000000000000000000100037983484801JOSE ERIVALDO SOUZA DO NASCIMENTO RAMOS RUA LETICIA - 250 - JARDIM GUARUJA - SAO            05877260                                                            000107
2SR. CAIXA, APOS O VENCIMENTO COBRAR 2% DE MULTA                                 NAO RECEBER APOS 30 DIAS DO VENCIMENTO.                                                                                                                                                                                                         01092000000000000000109200000000000000       009033990000627037983409201P000108
100000000000000000000009033990000627000000000000000000000000010002020056289209201000000000002            2  01562892092026092000000001638520000000001N010920000000000000000000000000000000000000000000000000000000000000000100056289286900PEDRO RIBEIRO                           RUA CONEGO MANOEL VAZ - 48 - SANTANA - S            02019050                                                            000110
2SR. CAIXA, APOS O VENCIMENTO COBRAR 2% DE MULTA                                 NAO RECEBER APOS 30 DIAS DO VENCIMENTO.                                                                                                                                                                                                         01092000000000000000109200000000000000       0090339900006270562892092010000111
100000000000000000000009033990000627000000000000000000000000010002020005025509201400000000002            2  01050255092026092000000002331780000000001N010920000000000000000000000000000000000000000000000000000000000000000100005025595860CONCEICAO APARECIDA DE MESQUITA PEREIRA RUA TRIUNFO - 835 AP.105 - JARDIM SAO LU            14020670                                                            000113
2SR. CAIXA, APOS O VENCIMENTO COBRAR 2% DE MULTA                                 NAO RECEBER APOS 30 DIAS DO VENCIMENTO.                                                                                                                                                                                                         01092000000000000000109200000000000000       0090339900006270050255092014000114
100000000000000000000009033990000627000000000000000000000000010002020034735309201700000000002            2  01347353092026092000000002248760000000001N010920000000000000000000000000000000000000000000000000000000000000000100034735328866DIEGO FELIPE MOLINA DA SILVA E SOUSA    RUA EMILIA PAULISTA - 135 - VILA TIRADEN            05364020                                                            000116
2SR. CAIXA, APOS O VENCIMENTO COBRAR 2% DE MULTA                                 NAO RECEBER APOS 30 DIAS DO VENCIMENTO.                                                                                                                                                                                                         01092000000000000000109200000000000000       0090339900006270347353092017000117
100000000000000000000009033990000627000000000000000000000000010002020076175609201800000000002            2  01761756092024092000000004076740000000001N010920000000000000000000000000000000000000000000000000000000000000000100076175685687GILMAR DE OLIVEIRA BRAGA                RUA MARACAJU - 161 AP.202 - NOVA GRANADA            30431350                                                            000119
2SR. CAIXA, APOS O VENCIMENTO COBRAR 2% DE MULTA                                 NAO RECEBER APOS 30 DIAS DO VENCIMENTO.                                                                                                                                                                                                         01092000000000000000109200000000000000       0090339900006270761756092018000120
100000000000000000000009033990000627000000000000000000000000010002020034812209201000000000002            2  01348122092024092000000003888010000000001N010920000000000000000000000000000000000000000000000000000000000000000100034812226880THAIS TORQUATO MIMOSO DE JESUS          RUA ARNALDO CINTRA - 416 AP.104 TORRE 2             03088000                                                            000122
2SR. CAIXA, APOS O VENCIMENTO COBRAR 2% DE MULTA                                 NAO RECEBER APOS 30 DIAS DO VENCIMENTO.                                                                                                                                                                                                         01092000000000000000109200000000000000       0090339900006270348122092010000123
100000000000000000000009033990000627000000000000000000000000010002020012849409201700000000002            2  01128494092026092000000003874020000000001N010920000000000000000000000000000000000000000000000000000000000000000100012849428809MOISES CLAUDIO DO ROSARIO               AVENIDA DR. AUGUSTO DE TOLEDO - 510 AP.1            09541520                                                            000125
2SR. CAIXA, APOS O VENCIMENTO COBRAR 2% DE MULTA                                 NAO RECEBER APOS 30 DIAS DO VENCIMENTO.                                                                                                                                                                                                         01092000000000000000109200000000000000       0090339900006270128494092017000126
100000000000000000000009033990000627000000000000000000000000010002020015702309201700000000002            2  01157023092026092000000002149390000000001N010920000000000000000000000000000000000000000000000000000000000000000100015702353846MARIA DE LOURDES DE MACENO SOUZA        RUA JOSE CALIXTO DO CARMO - 286 AP.83 -             11702690                                                            000128
2SR. CAIXA, APOS O VENCIMENTO COBRAR 2% DE MULTA                                 NAO RECEBER APOS 30 DIAS DO VENCIMENTO.                                                                                                                                                                                                         01092000000000000000109200000000000000       0090339900006270157023092017000129
100000000000000000000009033990000627000000000000000000000000010002020003658609201100000000002            2  01036586092026092000000001600440000000001N010920000000000000000000000000000000000000000000000000000000000000000100003658668814MARINEZ VALENTIN                        RUA JOSE CALIXTO DO CARMO - 286 AP.95 -             11702690                                                            000131
2SR. CAIXA, APOS O VENCIMENTO COBRAR 2% DE MULTA                                 NAO RECEBER APOS 30 DIAS DO VENCIMENTO.                                                                                                                                                                                                         01092000000000000000109200000000000000       0090339900006270036586092011000132
100000000000000000000009033990000627000000000000000000000000010002020014087409201P00000000002            2  01140874092026092000000002138840000000001N010920000000000000000000000000000000000000000000000000000000000000000100014087484874SERGIO SANTOS DO NASCIMENTO             RUA PANTALEAO BRAZ - 21 - JARDIM ESTER -            05372080                                                            000134
2SR. CAIXA, APOS O VENCIMENTO COBRAR 2% DE MULTA                                 NAO RECEBER APOS 30 DIAS DO VENCIMENTO.                                                                                                                                                                                                         01092000000000000000109200000000000000       009033990000627014087409201P000135
100000000000000000000009033990000627000000000000000000000000010002020026834509201900000000002            2  01268345092026092000000001970680000000001N010920000000000000000000000000000000000000000000000000000000000000000100026834550895RAQUEL CARDOSO JOAO                     RUA PEDROSO XAVIER - 277 AP.23 TORRE 01             02732020                                                            000137
2SR. CAIXA, APOS O VENCIMENTO COBRAR 2% DE MULTA                                 NAO RECEBER APOS 30 DIAS DO VENCIMENTO.                                                                                                                                                                                                         01092000000000000000109200000000000000       0090339900006270268345092019000138
100000000000000000000009033990000627000000000000000000000000010002020039540009201700000000002            2  01395400092026092000000001937460000000001N010920000000000000000000000000000000000000000000000000000000000000000100039540008816LUZINETE CLARINDO SILVA                 RUA DEINOS - 275 - BAIRRO CIDADE SATELIT            08340100                                                            000140
2SR. CAIXA, APOS O VENCIMENTO COBRAR 2% DE MULTA                                 NAO RECEBER APOS 30 DIAS DO VENCIMENTO.                                                                                                                                                                                                         01092000000000000000109200000000000000       0090339900006270395400092017000141
100000000000000000000009033990000627000000000000000000000000010002020005723209201100000000002            2  01057232092023092000000002627960000000001N010920000000000000000000000000000000000000000000000000000000000000000100005723255843FRANCISCO DE ASSIS DA SILVA             PRACA NICOLAU GERAIGIRE - 25 VISOR - JAR            11095110                                                            000143
2SR. CAIXA, APOS O VENCIMENTO COBRAR 2% DE MULTA                                 NAO RECEBER APOS 30 DIAS DO VENCIMENTO.                                                                                                                                                                                                         01092000000000000000109200000000000000       0090339900006270057232092011000144
100000000000000000000009033990000627000000000000000000000000010002020003311009201400000000002            2  01033110092026092000000002017620000000001N010920000000000000000000000000000000000000000000000000000000000000000100003311030877SEBASTIAO SARUVA NETO                   RUA HAMILTON REGIS - 559 - BAIRRO DO LIM            08051440                                                            000146
2SR. CAIXA, APOS O VENCIMENTO COBRAR 2% DE MULTA                                 NAO RECEBER APOS 30 DIAS DO VENCIMENTO.                                                                                                                                                                                                         01092000000000000000109200000000000000       0090339900006270033110092014000147
100000000000000000000009033990000627000000000000000000000000010002020004928109201600000000002            2  01049281092023092000000002569950000000001N010920000000000000000000000000000000000000000000000000000000000000000100004928157800ADEMIR APARECIDO ANTUNES                RUA JAIME TAVEIRA - 91 AP.056 B - CHACAR            03732060                                                            000149
2SR. CAIXA, APOS O VENCIMENTO COBRAR 2% DE MULTA                                 NAO RECEBER APOS 30 DIAS DO VENCIMENTO.                                                                                                                                                                                                         01092000000000000000109200000000000000       0090339900006270049281092016000150
100000000000000000000009033990000627000000000000000000000000010002020090091909201000000000002            2  01900919092026092000000001928580000000001N010920000000000000000000000000000000000000000000000000000000000000000100090091990882JUECIR CARVALHO DA LUZ                  RUA JOSE CALIXTO DO CARMO - 286 AP.114 -            11702690                                                            000152
2SR. CAIXA, APOS O VENCIMENTO COBRAR 2% DE MULTA                                 NAO RECEBER APOS 30 DIAS DO VENCIMENTO.                                                                                                                                                                                                         01092000000000000000109200000000000000       0090339900006270900919092010000153
100000000000000000000009033990000627000000000000000000000000010002020011238009201300000000002            2  01112380092023092000000002536620000000001N010920000000000000000000000000000000000000000000000000000000000000000100011238052886SOLANGE DIAS DE SOUZA ROMANO            AVENIDA DR. ALTINO ARANTES - 865 AP.132             04042034                                                            000155
2SR. CAIXA, APOS O VENCIMENTO COBRAR 2% DE MULTA                                 NAO RECEBER APOS 30 DIAS DO VENCIMENTO.                                                                                                                                                                                                         01092000000000000000109200000000000000       0090339900006270112380092013000156
100000000000000000000009033990000627000000000000000000000000010002020037325909201200000000002            2  01373259092026092000000001578240000000001N010920000000000000000000000000000000000000000000000000000000000000000100037325923830MARIA AUGUSTA OLIVEIRA DE ANDRADE       RUA CAIAPOS - 842 AP.63 - VILA TUPI - PR            11703320                                                            000158
2SR. CAIXA, APOS O VENCIMENTO COBRAR 2% DE MULTA                                 NAO RECEBER APOS 30 DIAS DO VENCIMENTO.                                                                                                                                                                                                         01092000000000000000109200000000000000       0090339900006270373259092012000159
100000000000000000000009033990000627000000000000000000000000010002020032589109201500000000002            2  01325891092023092000000002486620000000001N010920000000000000000000000000000000000000000000000000000000000000000100032589165862RENATA ISABEL MARTINS SILVA             RUA HERCULANO DE FREITAS - 257 - FUNDACA            09520280                                                            000161
2SR. CAIXA, APOS O VENCIMENTO COBRAR 2% DE MULTA                                 NAO RECEBER APOS 30 DIAS DO VENCIMENTO.                                                                                                                                                                                                         01092000000000000000109200000000000000       0090339900006270325891092015000162
100000000000000000000009033990000627000000000000000000000000010002020088339309201900000000002            2  01883393092023092000000002513560000000001N010920000000000000000000000000000000000000000000000000000000000000000100088339319868MARCIA SIQUEIRA MELLO                   RUA ADELINO ALVES - 81 - SANTO AMARO - S            04710120                                                            000164
2SR. CAIXA, APOS O VENCIMENTO COBRAR 2% DE MULTA                                 NAO RECEBER APOS 30 DIAS DO VENCIMENTO.                                                                                                                                                                                                         01092000000000000000109200000000000000       0090339900006270883393092019000165
9                                                                                                                                                                                                                                                                                                                                                                                                         000166