01REMESSA01COBRANCA       00000000000008017025HB SANTOS CONSTRUTORA E INCORP237BRADESCO       010921        MX0000136                                                                                                                                                                                                                                                                                     000001
100000000000000000000009033990000627000000000000000000000000010002020025035109211300000000002            2  01250351092124092100000002520790000000001N010921000000000000000000000000000000000000000000000000000000000000000100025035170802WANDERSON LUIS DE CARVALHO              RUA JOAQUIM GONCALVES ROCHA - 302 - JARD            02859030                                                            000002
2SR. CAIXA, APOS O VENCIMENTO COBRAR 2% DE MULTA                                 NAO RECEBER APOS 30 DIAS DO VENCIMENTO.                                                                                                                                                                                                         01092100000000000000109210000000000000       0090339900006270250351092113000003
100000000000000000000009033990000627000000000000000000000000010002020007294309211000000000002            2  01072943092124092100000003390470000000001N010921000000000000000000000000000000000000000000000000000000000000000100007294351805CLAUDENIR APARECIDO VACARI              RUA CARLOS JOSE BORSTENS - 50 AP.93 - AV            11702750                                                            000005
2SR. CAIXA, APOS O VENCIMENTO COBRAR 2% DE MULTA                                 NAO RECEBER APOS 30 DIAS DO VENCIMENTO.                                                                                                                                                                                                         01092100000000000000109210000000000000       0090339900006270072943092110000006
100000000000000000000009033990000627000000000000000000000000010002020007525009211600000000002            2  01075250092124092100000003792400000000001N010921000000000000000000000000000000000000000000000000000000000000000100007525032866FERNANDO RIBEIRO                        RUA CARLOS JOSE BORSTENS - 50 AP.32 - AV            11702750                                                            000008
2SR. CAIXA, APOS O VENCIMENTO COBRAR 2% DE MULTA                                 NAO RECEBER APOS 30 DIAS DO VENCIMENTO.                                                                                                                                                                                                         01092100000000000000109210000000000000       0090339900006270075250092116000009
100000000000000000000009033990000627000000000000000000000000010002020005071409211100000000002            2  01050714092124092100000003326670000000001N010921000000000000000000000000000000000000000000000000000000000000000100005071481855ERIBALDO SANTANA CARVALHO               RUA HONDURAS - 477 - PARQUE DAS AMERICAS            09351070                                                            000011
2SR. CAIXA, APOS O VENCIMENTO COBRAR 2% DE MULTA                                 NAO RECEBER APOS 30 DIAS DO VENCIMENTO.                                                                                                                                                                                                         01092100000000000000109210000000000000       0090339900006270050714092111000012
100000000000000000000009033990000627000000000000000000000000010002020002841709211500000000002            2  01028417092124092100000003112410000000001N010921000000000000000000000000000000000000000000000000000000000000000100002841756416LUCIANA PINHEIRO DE ASSIS NUNES         RUA RIO ACIMA - 81 - RIACHO GRANDE - SAO            09830100                                                            000014
2SR. CAIXA, APOS O VENCIMENTO COBRAR 2% DE MULTA                                 NAO RECEBER APOS 30 DIAS DO VENCIMENTO.                                                                                                                                                                                                         01092100000000000000109210000000000000       0090339900006270028417092115000015
100000000000000000000009033990000627000000000000000000000000010002020084302009211400000000002            2  01843020092124092100000003127330000000001N010921000000000000000000000000000000000000000000000000000000000000000100084302097868FAUSTO TADEU VILOR                      RUA ANTONIO TAVARES - 466 - BAIRRO CAMBU            01542010                                                            000017
2SR. CAIXA, APOS O VENCIMENTO COBRAR 2% DE MULTA                                 NAO RECEBER APOS 30 DIAS DO VENCIMENTO.                                                                                                                                                                                                         01092100000000000000109210000000000000       0090339900006270843020092114000018
100000000000000000000009033990000627000000000000000000000000010002020028804209211400000000002            2  01288042092124092100000003072640000000001N010921000000000000000000000000000000000000000000000000000000000000000100028804202882GILBERTO FABIANO CABRAL DE CAMARGO      RUA CARLOS JOSE BORSTENS - 50 AP.44 - AV            11702750                                                            000020
2SR. CAIXA, APOS O VENCIMENTO COBRAR 2% DE MULTA                                 NAO RECEBER APOS 30 DIAS DO VENCIMENTO.                                                                                                                                                                                                         01092100000000000000109210000000000000       0090339900006270288042092114000021
100000000000000000000009033990000627000000000000000000000000010002020000991709211700000000002            2  01009917092124092100000002999020000000001N010921000000000000000000000000000000000000000000000000000000000000000100000991748808JAILSON BORGES DE ANDRADE               RUA IPIOBUNA - 45 - JARDIM CUMBICA - GUA            07240040                                                            000023
2SR. CAIXA, APOS O VENCIMENTO COBRAR 2% DE MULTA                                 NAO RECEBER APOS 30 DIAS DO VENCIMENTO.                                                                                                                                                                                                         01092100000000000000109210000000000000       0090339900006270009917092117000024
100000000000000000000009033990000627000000000000000000000000010002020022151609211300000000002            2  01221516092124092100000002981590000000001N010921000000000000000000000000000000000000000000000000000000000000000100022151666816SAMIR LIMA DE ARAUJO                    AVENIDA GUARAPIRANGA - 2616 AP.131 BL.14            04902005                                                            000026
2SR. CAIXA, APOS O VENCIMENTO COBRAR 2% DE MULTA                                 NAO RECEBER APOS 30 DIAS DO VENCIMENTO.                                                                                                                                                                                                         01092100000000000000109210000000000000       0090339900006270221516092113000027
100000000000000000000009033990000627000000000000000000000000010002020022313109211500000000002            2  01223131092126092100000002293560000000001N010921000000000000000000000000000000000000000000000000000000000000000100022313116824ROSA MARIA BRITO DA SILVA               RUA SERVIDAO DE SAO MARCOS - 113 - JARDI            04930300                                                            000029
2SR. CAIXA, APOS O VENCIMENTO COBRAR 2% DE MULTA                                 NAO RECEBER APOS 30 DIAS DO VENCIMENTO.                                                                                                                                                                                                         01092100000000000000109210000000000000       0090339900006270223131092115000030
100000000000000000000009033990000627000000000000000000000000010002020027538009211700000000002            2  01275380092126092100000002301560000000001N010921000000000000000000000000000000000000000000000000000000000000000100027538087249MARA LUCIA MENEZES DA COSTA             RUA LEILA  - 183 - ITAQUERA - SAO PAULO             08240020                                                            000032
2SR. CAIXA, APOS O VENCIMENTO COBRAR 2% DE MULTA                                 NAO RECEBER APOS 30 DIAS DO VENCIMENTO.                                                                                                                                                                                                         01092100000000000000109210000000000000       0090339900006270275380092117000033
100000000000000000000009033990000627000000000000000000000000010002020031278409211300000000002            2  01312784092124092100000002880320000000001N010921000000000000000000000000000000000000000000000000000000000000000100031278411836JEFFERSON DE PIERI PIRES ZAMUNER        RUA MANOEL ARCE - 277 - PARQUE BANCARIO             03922150                                                            000035
2SR. CAIXA, APOS O VENCIMENTO COBRAR 2% DE MULTA                                 NAO RECEBER APOS 30 DIAS DO VENCIMENTO.                                                                                                                                                                                                         01092100000000000000109210000000000000       0090339900006270312784092113000036
100000000000000000000009033990000627000000000000000000000000010002020019185709211500000000002            2  01191857092126092100000002094470000000001N010921000000000000000000000000000000000000000000000000000000000000000100019185769800AGUINALDO PESSOA DE LIMA                RUA JANUARIO ZINGARO - 252 AP.303 BL.04             05794300                                                            000038
2SR. CAIXA, APOS O VENCIMENTO COBRAR 2% DE MULTA                                 NAO RECEBER APOS 30 DIAS DO VENCIMENTO.                                                                                                                                                                                                         01092100000000000000109210000000000000       0090339900006270191857092115000039
100000000000000000000009033990000627000000000000000000000000010002020033303609211600000000002            2  01333036092126092100000002255920000000001N010921000000000000000000000000000000000000000000000000000000000000000100033303645809JESSICA DA SILVA FREITAS                RUA ARILDO VALADAO - 120 - JARDIM GUAEMB            04814600                                                            000041
2SR. CAIXA, APOS O VENCIMENTO COBRAR 2% DE MULTA                                 NAO RECEBER APOS 30 DIAS DO VENCIMENTO.                                                                                                                                                                                                         01092100000000000000109210000000000000       0090339900006270333036092116000042
100000000000000000000009033990000627000000000000000000000000010002020006422609211100000000002            2  01064226092124092100000003119440000000001N010921000000000000000000000000000000000000000000000000000000000000000100006422607881GERALDO ALVES DA SILVA                  RUA CARLOS JOSE BORSTENS - 50 AP.14 - AV            11702750                                                            000044
2SR. CAIXA, APOS O VENCIMENTO COBRAR 2% DE MULTA                                 NAO RECEBER APOS 30 DIAS DO VENCIMENTO.                                                                                                                                                                                                         01092100000000000000109210000000000000       0090339900006270064226092111000045
100000000000000000000009033990000627000000000000000000000000010002020033877109211300000000002            2  01338771092126092100000002115000000000001N010921000000000000000000000000000000000000000000000000000000000000000100033877129870HELDER FERREIRA VIANA                   RUA JOSE CALIXTO DO CARMO - 286 AP.35 -             11702690                                                            000047
2SR. CAIXA, APOS O VENCIMENTO COBRAR 2% DE MULTA                                 NAO RECEBER APOS 30 DIAS DO VENCIMENTO.                                                                                                                                                                                                         01092100000000000000109210000000000000       0090339900006270338771092113000048
100000000000000000000009033990000627000000000000000000000000010002020028290709211700000000002            2  01282907092126092100000001949250000000001N010921000000000000000000000000000000000000000000000000000000000000000100028290719809VANESSA GIANGARRELLI PEREIRA            RUA BARINEL - 72 - JARDIM COTCHING - SAO            03462130                                                            000050
2SR. CAIXA, APOS O VENCIMENTO COBRAR 2% DE MULTA                                 NAO RECEBER APOS 30 DIAS DO VENCIMENTO.                                                                                                                                                                                                         01092100000000000000109210000000000000       0090339900006270282907092117000051
100000000000000000000009033990000627000000000000000000000000010002020087573009211200000000002            2  01875730092126092100000002128560000000001N010921000000000000000000000000000000000000000000000000000000000000000100087573059604VANDERLEY DE ASSIS                      RUA ROMEU ALBANI - 268 - JARDIM PARQUE R            13803810                                                            000053
2SR. CAIXA, APOS O VENCIMENTO COBRAR 2% DE MULTA                                 NAO RECEBER APOS 30 DIAS DO VENCIMENTO.                                                                                                                                                                                                         01092100000000000000109210000000000000       0090339900006270875730092112000054
100000000000000000000009033990000627000000000000000000000000010002020010825509211P00000000002            2  01108255092126092100000002221250000000001N010921000000000000000000000000000000000000000000000000000000000000000100010825513847JOSE APARECIDO PEREIRA                  RUA GENERAL OSORIO - 305 - JARDIM TRINTA            11515130                                                            000056
2SR. CAIXA, APOS O VENCIMENTO COBRAR 2% DE MULTA                                 NAO RECEBER APOS 30 DIAS DO VENCIMENTO.                                                                                                                                                                                                         01092100000000000000109210000000000000       009033990000627010825509211P000057
100000000000000000000009033990000627000000000000000000000000010002020039115109211100000000002            2  01391151092126092100000002738080000000001N010921000000000000000000000000000000000000000000000000000000000000000100039115139840LAIS CRISTINA RIBEIRO ANDO              RUA JOSE CALIXTO DO CARMO - 286 AP.65 -             11702690                                                            000059
2SR. CAIXA, APOS O VENCIMENTO COBRAR 2% DE MULTA                                 NAO RECEBER APOS 30 DIAS DO VENCIMENTO.                                                                                                                                                                                                         01092100000000000000109210000000000000       0090339900006270391151092111000060
100000000000000000000009033990000627000000000000000000000000010002020029617509211P00000000002            2  01296175092124092100000003061820000000001N010921000000000000000000000000000000000000000000000000000000000000000100029617510553MARILENE SOUZA DE OLIVEIRA              AVENIDA BRASIL - 393 AP.09 - PARQUE DAS             09210280                                                            000062
2SR. CAIXA, APOS O VENCIMENTO COBRAR 2% DE MULTA                                 NAO RECEBER APOS 30 DIAS DO VENCIMENTO.                                                                                                                                                                                                         01092100000000000000109210000000000000       009033990000627029617509211P000063
100000000000000000000009033990000627000000000000000000000000010002020000593209211P00000000002            2  01005932092124092100000003358080000000001N010921000000000000000000000000000000000000000000000000000000000000000100000593293860WALTER HELIO BARBOSA FILHO              AVENIDA ANTONIO FREDERICO OZANAN - 9500             13214206                                                            000065
2SR. CAIXA, APOS O VENCIMENTO COBRAR 2% DE MULTA                                 NAO RECEBER APOS 30 DIAS DO VENCIMENTO.                                                                                                                                                                                                         01092100000000000000109210000000000000       009033990000627000593209211P000066
100000000000000000000009033990000627000000000000000000000000010002020065584109211100000000002            2  01655841092124092100000001762820000000001N010921000000000000000000000000000000000000000000000000000000000000000100065584147834JOAQUIM DA COSTA MACHADO NETO           RUA CARLOS JOSE BORSTENS - 50 AP.42 - AV            11702750                                                            000068
2SR. CAIXA, APOS O VENCIMENTO COBRAR 2% DE MULTA                                 NAO RECEBER APOS 30 DIAS DO VENCIMENTO.                                                                                                                                                                                                         01092100000000000000109210000000000000       0090339900006270655841092111000069
100000000000000000000009033990000627000000000000000000000000010002020065584109212P00000000002            2  01655841092124092100000001762810000000001N010921000000000000000000000000000000000000000000000000000000000000000100065584147834JOAQUIM DA COSTA MACHADO NETO           RUA CARLOS JOSE BORSTENS - 50 AP.42 - AV            11702750                                                            000071
2SR. CAIXA, APOS O VENCIMENTO COBRAR 2% DE MULTA                                 NAO RECEBER APOS 30 DIAS DO VENCIMENTO.                                                                                                                                                                                                         01092100000000000000109210000000000000       009033990000627065584109212P000072
100000000000000000000009033990000627000000000000000000000000010002020006684609211400000000002            2  01066846092126092100000002255650000000001N010921000000000000000000000000000000000000000000000000000000000000000100006684623884LAUDINOR VIEIRA GARCIA                  RUA CANDIDO SALES - 374 - JARDIM PRESIDE            07172000                                                            000074
2SR. CAIXA, APOS O VENCIMENTO COBRAR 2% DE MULTA                                 NAO RECEBER APOS 30 DIAS DO VENCIMENTO.                                                                                                                                                                                                         01092100000000000000109210000000000000       0090339900006270066846092114000075
100000000000000000000009033990000627000000000000000000000000010002020011663509211500000000002            2  01116635092126092100000002271870000000001N010921000000000000000000000000000000000000000000000000000000000000000100011663589844MARIA SAVIO QUARELLO                    AVENIDA MENDONCA DRUMOND - 321 - JARDIM             03524030                                                            000077
2SR. CAIXA, APOS O VENCIMENTO COBRAR 2% DE MULTA                                 NAO RECEBER APOS 30 DIAS DO VENCIMENTO.                                                                                                                                                                                                         01092100000000000000109210000000000000       0090339900006270116635092115000078
100000000000000000000009033990000627000000000000000000000000010002020010083809211700000000002            2  01100838092126092100000002195010000000001N010921000000000000000000000000000000000000000000000000000000000000000100010083824855IONE FERREIRA COUTO DA SILVA            RUA JOSE RAGEL DE MESQUITA - 60 CS.01 -             07799999                                                            000080
2SR. CAIXA, APOS O VENCIMENTO COBRAR 2% DE MULTA                                 NAO RECEBER APOS 30 DIAS DO VENCIMENTO.                                                                                                                                                                                                         01092100000000000000109210000000000000       0090339900006270100838092117000081
100000000000000000000009033990000627000000000000000000000000010002020031010709211200000000002            2  01310107092126092100000002154010000000001N010921000000000000000000000000000000000000000000000000000000000000000100031010705890ANDRE GONZALEZ RABELLO                  RUA PARAIBA - 106 AP.61 - POMPEIA - SANT            11065470                                                            000083
2SR. CAIXA, APOS O VENCIMENTO COBRAR 2% DE MULTA                                 NAO RECEBER APOS 30 DIAS DO VENCIMENTO.                                                                                                                                                                                                         01092100000000000000109210000000000000       0090339900006270310107092112000084
100000000000000000000009033990000627000000000000000000000000010002020005351009211100000000002            2  01053510092126092100000002019600000000001N010921000000000000000000000000000000000000000000000000000000000000000100005351015897VALERIA ALVES MARCOLINO HINNIGER        RUA JOSE CALIXTO DO CARMO - 286 AP.92 -             11702690                                                            000086
2SR. CAIXA, APOS O VENCIMENTO COBRAR 2% DE MULTA                                 NAO RECEBER APOS 30 DIAS DO VENCIMENTO.                                                                                                                                                                                                         01092100000000000000109210000000000000       0090339900006270053510092111000087
100000000000000000000009033990000627000000000000000000000000010002020031898709211700000000002            2  01318987092124092100000003213140000000001N010921000000000000000000000000000000000000000000000000000000000000000100031898775800ANITA MARTINS COLOMBO                   RUA CARLOS JOSE BORSTENS - 50 AP.115 - A            11702750                                                            000089
2SR. CAIXA, APOS O VENCIMENTO COBRAR 2% DE MULTA                                 NAO RECEBER APOS 30 DIAS DO VENCIMENTO.                                                                                                                                                                                                         01092100000000000000109210000000000000       0090339900006270318987092117000090
100000000000000000000009033990000627000000000000000000000000010002020037983409211700000000002            2  01379834092126092100000002372400000000001N010921000000000000000000000000000000000000000000000000000000000000000100037983484801JOSE ERIVALDO SOUZA DO NASCIMENTO RAMOS RUA LETICIA - 250 - JARDIM GUARUJA - SAO            05877260                                                            000092
2SR. CAIXA, APOS O VENCIMENTO COBRAR 2% DE MULTA                                 NAO RECEBER APOS 30 DIAS DO VENCIMENTO.                                                                                                                                                                                                         01092100000000000000109210000000000000       0090339900006270379834092117000093
100000000000000000000009033990000627000000000000000000000000010002020056289209211800000000002            2  01562892092126092100000001792220000000001N010921000000000000000000000000000000000000000000000000000000000000000100056289286900PEDRO RIBEIRO                           RUA CONEGO MANOEL VAZ - 48 - SANTANA - S            02019050                                                            000095
2SR. CAIXA, APOS O VENCIMENTO COBRAR 2% DE MULTA                                 NAO RECEBER APOS 30 DIAS DO VENCIMENTO.                                                                                                                                                                                                         01092100000000000000109210000000000000       0090339900006270562892092118000096
100000000000000000000009033990000627000000000000000000000000010002020034735309211400000000002            2  01347353092126092100000002459710000000001N010921000000000000000000000000000000000000000000000000000000000000000100034735328866DIEGO FELIPE MOLINA DA SILVA E SOUSA    RUA EMILIA PAULISTA - 135 - VILA TIRADEN            05364020                                                            000098
2SR. CAIXA, APOS O VENCIMENTO COBRAR 2% DE MULTA                                 NAO RECEBER APOS 30 DIAS DO VENCIMENTO.                                                                                                                                                                                                         01092100000000000000109210000000000000       0090339900006270347353092114000099
100000000000000000000009033990000627000000000000000000000000010002020076175609211500000000002            2  01761756092124092100000004459170000000001N010921000000000000000000000000000000000000000000000000000000000000000100076175685687GILMAR DE OLIVEIRA BRAGA                RUA MARACAJU - 161 AP.202 - NOVA GRANADA            30431350                                                            000101
2SR. CAIXA, APOS O VENCIMENTO COBRAR 2% DE MULTA                                 NAO RECEBER APOS 30 DIAS DO VENCIMENTO.                                                                                                                                                                                                         01092100000000000000109210000000000000       0090339900006270761756092115000102
100000000000000000000009033990000627000000000000000000000000010002020034812209211800000000002            2  01348122092124092100000004252740000000001N010921000000000000000000000000000000000000000000000000000000000000000100034812226880THAIS TORQUATO MIMOSO DE JESUS          RUA ARNALDO CINTRA - 416 AP.104 TORRE 2             03088000                                                            000104
2SR. CAIXA, APOS O VENCIMENTO COBRAR 2% DE MULTA                                 NAO RECEBER APOS 30 DIAS DO VENCIMENTO.                                                                                                                                                                                                         01092100000000000000109210000000000000       0090339900006270348122092118000105
100000000000000000000009033990000627000000000000000000000000010002020012849409211400000000002            2  01128494092126092100000004237430000000001N010921000000000000000000000000000000000000000000000000000000000000000100012849428809MOISES CLAUDIO DO ROSARIO               AVENIDA DR. AUGUSTO DE TOLEDO - 510 AP.1            09541520                                                            000107
2SR. CAIXA, APOS O VENCIMENTO COBRAR 2% DE MULTA                                 NAO RECEBER APOS 30 DIAS DO VENCIMENTO.                                                                                                                                                                                                         01092100000000000000109210000000000000       0090339900006270128494092114000108
100000000000000000000009033990000627000000000000000000000000010002020015702309211400000000002            2  01157023092126092100000002351010000000001N010921000000000000000000000000000000000000000000000000000000000000000100015702353846MARIA DE LOURDES DE MACENO SOUZA        RUA JOSE CALIXTO DO CARMO - 286 AP.83 -             11702690                                                            000110
2SR. CAIXA, APOS O VENCIMENTO COBRAR 2% DE MULTA                                 NAO RECEBER APOS 30 DIAS DO VENCIMENTO.                                                                                                                                                                                                         01092100000000000000109210000000000000       0090339900006270157023092114000111
100000000000000000000009033990000627000000000000000000000000010002020003658609211900000000002            2  01036586092126092100000001750560000000001N010921000000000000000000000000000000000000000000000000000000000000000100003658668814MARINEZ VALENTIN                        RUA JOSE CALIXTO DO CARMO - 286 AP.95 -             11702690                                                            000113
2SR. CAIXA, APOS O VENCIMENTO COBRAR 2% DE MULTA                                 NAO RECEBER APOS 30 DIAS DO VENCIMENTO.                                                                                                                                                                                                         01092100000000000000109210000000000000       0090339900006270036586092119000114
100000000000000000000009033990000627000000000000000000000000010002020003658609212700000000002            2  01036586092126092100000001750550000000001N010921000000000000000000000000000000000000000000000000000000000000000100003658668814MARINEZ VALENTIN                        RUA JOSE CALIXTO DO CARMO - 286 AP.95 -             11702690                                                            000116
2SR. CAIXA, APOS O VENCIMENTO COBRAR 2% DE MULTA                                 NAO RECEBER APOS 30 DIAS DO VENCIMENTO.                                                                                                                                                                                                         01092100000000000000109210000000000000       0090339900006270036586092127000117
100000000000000000000009033990000627000000000000000000000000010002020014087409211700000000002            2  01140874092126092100000002339480000000001N010921000000000000000000000000000000000000000000000000000000000000000100014087484874SERGIO SANTOS DO NASCIMENTO             RUA PANTALEAO BRAZ - 21 - JARDIM ESTER -            05372080                                                            000119
2SR. CAIXA, APOS O VENCIMENTO COBRAR 2% DE MULTA                                 NAO RECEBER APOS 30 DIAS DO VENCIMENTO.                                                                                                                                                                                                         01092100000000000000109210000000000000       0090339900006270140874092117000120
100000000000000000000009033990000627000000000000000000000000010002020026834509211600000000002            2  01268345092126092100000002155550000000001N010921000000000000000000000000000000000000000000000000000000000000000100026834550895RAQUEL CARDOSO JOAO                     RUA PEDROSO XAVIER - 277 AP.23 TORRE 01             02732020                                                            000122
2SR. CAIXA, APOS O VENCIMENTO COBRAR 2% DE MULTA                                 NAO RECEBER APOS 30 DIAS DO VENCIMENTO.                                                                                                                                                                                                         01092100000000000000109210000000000000       0090339900006270268345092116000123
100000000000000000000009033990000627000000000000000000000000010002020039540009211400000000002            2  01395400092126092100000002119210000000001N010921000000000000000000000000000000000000000000000000000000000000000100039540008816LUZINETE CLARINDO SILVA                 RUA DEINOS - 275 - BAIRRO CIDADE SATELIT            08340100                                                            000125
2SR. CAIXA, APOS O VENCIMENTO COBRAR 2% DE MULTA                                 NAO RECEBER APOS 30 DIAS DO VENCIMENTO.                                                                                                                                                                                                         01092100000000000000109210000000000000       0090339900006270395400092114000126
100000000000000000000009033990000627000000000000000000000000010002020003311009211100000000002            2  01033110092126092100000002206890000000001N010921000000000000000000000000000000000000000000000000000000000000000100003311030877SEBASTIAO SARUVA NETO                   RUA HAMILTON REGIS - 559 - BAIRRO DO LIM            08051440                                                            000128
2SR. CAIXA, APOS O VENCIMENTO COBRAR 2% DE MULTA                                 NAO RECEBER APOS 30 DIAS DO VENCIMENTO.                                                                                                                                                                                                         01092100000000000000109210000000000000       0090339900006270033110092111000129
100000000000000000000009033990000627000000000000000000000000010002020090091909211800000000002            2  01900919092126092100000002109480000000001N010921000000000000000000000000000000000000000000000000000000000000000100090091990882JUECIR CARVALHO DA LUZ                  RUA JOSE CALIXTO DO CARMO - 286 AP.114 -            11702690                                                            000131
2SR. CAIXA, APOS O VENCIMENTO COBRAR 2% DE MULTA                                 NAO RECEBER APOS 30 DIAS DO VENCIMENTO.                                                                                                                                                                                                         01092100000000000000109210000000000000       0090339900006270900919092118000132
100000000000000000000009033990000627000000000000000000000000010002020037325909211P00000000002            2  01373259092126092100000001726320000000001N010921000000000000000000000000000000000000000000000000000000000000000100037325923830MARIA AUGUSTA OLIVEIRA DE ANDRADE       RUA CAIAPOS - 842 AP.63 - VILA TUPI - PR            11703320                                                            000134
2SR. CAIXA, APOS O VENCIMENTO COBRAR 2% DE MULTA                                 NAO RECEBER APOS 30 DIAS DO VENCIMENTO.                                                                                                                                                                                                         01092100000000000000109210000000000000       009033990000627037325909211P000135
100000000000000000000009033990000627000000000000000000000000010002020012478809211700000000002            2  01124788092124092100000003142850000000001N010921000000000000000000000000000000000000000000000000000000000000000100012478899809VITORIA BATISTA QUEIROZ                 RUA CARVALHO DE FREITAS - 255 AP.71A - V            05728030                                                            000137
2SR. CAIXA, APOS O VENCIMENTO COBRAR 2% DE MULTA                                 NAO RECEBER APOS 30 DIAS DO VENCIMENTO.                                                                                                                                                                                                         01092100000000000000109210000000000000       0090339900006270124788092117000138
100000000000000000000009033990000627000000000000000000000000010002020097989909211100000000002            2  01979899092126092100000001449300000000001N010921000000000000000000000000000000000000000000000000000000000000000100097989924820NELSON LUIS BERRIBILLE                  RUA SILVEIRA IGNACIO SOBRINHO - 965 - VI            13560294                                                            000140
2SR. CAIXA, APOS O VENCIMENTO COBRAR 2% DE MULTA                                 NAO RECEBER APOS 30 DIAS DO VENCIMENTO.                                                                                                                                                                                                         01092100000000000000109210000000000000       0090339900006270979899092111000141
100000000000000000000009033990000627000000000000000000000000010002020032341809211000000000002            2  01323418092124092100000003264520000000001N010921000000000000000000000000000000000000000000000000000000000000000100032341847803PRISCILA ALVES DE FRANCA MIRANDA        RUA CARLOS JOSE BORSTENS - 50 AP.91 - AV            11702750                                                            000143
2SR. CAIXA, APOS O VENCIMENTO COBRAR 2% DE MULTA                                 NAO RECEBER APOS 30 DIAS DO VENCIMENTO.                                                                                                                                                                                                         01092100000000000000109210000000000000       0090339900006270323418092110000144
100000000000000000000009033990000627000000000000000000000000010002020016050609211600000000002            2  01160506092124092100000003030100000000001N010921000000000000000000000000000000000000000000000000000000000000000100016050684898ANDRE RODRIGUES DE OLIVEIRA             RUA CORACAO PAULISTA - 14 - FAZENDA ITAI            08132430                                                            000146
2SR. CAIXA, APOS O VENCIMENTO COBRAR 2% DE MULTA                                 NAO RECEBER APOS 30 DIAS DO VENCIMENTO.                                                                                                                                                                                                         01092100000000000000109210000000000000       0090339900006270160506092116000147
100000000000000000000009033990000627000000000000000000000000010002020021464909211P00000000002            2  01214649092124092100000004775530000000001N010921000000000000000000000000000000000000000000000000000000000000000100021464965846ANDREA APARECIDA DE OLIVEIRA PECCI      RUA ANTONIO BOZ MARFIL - 103 - PARQUE DO            05396020                                                            000149
2SR. CAIXA, APOS O VENCIMENTO COBRAR 2% DE MULTA                                 NAO RECEBER APOS 30 DIAS DO VENCIMENTO.                                                                                                                                                                                                         01092100000000000000109210000000000000       009033990000627021464909211P000150
100000000000000000000009033990000627000000000000000000000000010002020030348109211100000000002            2  01303481092124092100000002893500000000001N010921000000000000000000000000000000000000000000000000000000000000000100030348198892KELLY CRISTINA CORDEIRO                 RUA CARLOS JOSE BORSTENS - 50 AP.25 - AV            11702750                                                            000152
2SR. CAIXA, APOS O VENCIMENTO COBRAR 2% DE MULTA                                 NAO RECEBER APOS 30 DIAS DO VENCIMENTO.                                                                                                                                                                                                         01092100000000000000109210000000000000       0090339900006270303481092111000153
9                                                                                                                                                                                                                                                                                                                                                                                                         000154