01REMESSA01COBRANCA       00000000000004991781AIRES CONSTRUTORA E INCORPORAD237BRADESCO       010417        MX0000078                                                                                                                                                                                                                                                                                     000001
100000000000000000000009077090006612500000000000000000000000010002100000000007611500000000002            2  01000000761110041700000002050590000000099N010417000000000000000000000000000000000000000000000000000000000000000100094852294887GISELDA MENON                           RUA OTAVIO BARRETO - 105 - VILA SANTISTA            02560080                                                            000002
2SR. CAIXA, APOS O VENCIMENTO COBRAR 10% DE MULTA                                NAO RECEBER APOS 30 DIAS DO VENCIMENTO.                                                                                                                                                                                                         01041700000000000000104170000000000000       0090770900066125000000076115000003
100000000000000000000009077090006612500000000000000000000000010002100000000028033200000000002            2  01000002803310041700000003144950000000099N010417000000000000000000000000000000000000000000000000000000000000000100006485911820CELIO MANUEL  MELIM SANTO               RUA JUVENAL FERREIRA  - 85 AP.61 - VILA             03512040                                                            000005
2SR. CAIXA, APOS O VENCIMENTO COBRAR 10% DE MULTA                                NAO RECEBER APOS 30 DIAS DO VENCIMENTO.                                                                                                                                                                                                         01041700000000000000104170000000000000       0090770900066125000000280332000006
100000000000000000000009077090006612500000000000000000000000010002100000000059066800000000002            2  01000005906610041700000002741050000000099N010417000000000000000000000000000000000000000000000000000000000000000100004693857823NIVALDO BARTOLOMEU FERREIRA             MNS JOSE MARINONI  - 33 - SANTO AMARO -             04430350                                                            000008
2SR. CAIXA, APOS O VENCIMENTO COBRAR 10% DE MULTA                                NAO RECEBER APOS 30 DIAS DO VENCIMENTO.                                                                                                                                                                                                         01041700000000000000104170000000000000       0090770900066125000000590668000009
100000000000000000000009077090006612500000000000000000000000010002100000000079388700000000002            2  01000007938810041700000002610110000000099N010417000000000000000000000000000000000000000000000000000000000000000100027993108853DALVA JESUS RODRIGUES CABRAL            RUA CRISTOVAO COLOMBO GONCALVES - 97 - C            04811050                                                            000011
2SR. CAIXA, APOS O VENCIMENTO COBRAR 10% DE MULTA                                NAO RECEBER APOS 30 DIAS DO VENCIMENTO.                                                                                                                                                                                                         01041700000000000000104170000000000000       0090770900066125000000793887000012
100000000000000000000009077090006612500000000000000000000000010002100000009961010P00000000002            2  01000996101010041700000002711300000000099N010417000000000000000000000000000000000000000000000000000000000000000100000455495831PAULO HENRIQUE LOURENCO                 RUA FIGUEIRA  - 237 - CIDADE DAS FLORES             06184060                                                            000014
2SR. CAIXA, APOS O VENCIMENTO COBRAR 10% DE MULTA                                NAO RECEBER APOS 30 DIAS DO VENCIMENTO.                                                                                                                                                                                                         01041700000000000000104170000000000000       009077090006612500009961010P000015
100000000000000000000009077090006612500000000000000000000000010002100000019021919700000000002            2  01001902191910041700000003362390000000099N010417000000000000000000000000000000000000000000000000000000000000000100006140049857MARIA ALBANI DA SILVA EUSEBIO           RUA ORLANDO SEGALA - 108 - JARDIM ADRIAN            07135190                                                            000017
2SR. CAIXA, APOS O VENCIMENTO COBRAR 10% DE MULTA                                NAO RECEBER APOS 30 DIAS DO VENCIMENTO.                                                                                                                                                                                                         01041700000000000000104170000000000000       0090770900066125000190219197000018
100000000000000000000009077090006612500000000000000000000000010002100000031132931900000000002            2  01003113293110041700000003297190000000099N010417000000000000000000000000000000000000000000000000000000000000000100002324785897IZILDA NAPOLI                           RUA MONTE CASTELO - 295 AP.71 - AVIACAO             11702720                                                            000020
2SR. CAIXA, APOS O VENCIMENTO COBRAR 10% DE MULTA                                NAO RECEBER APOS 30 DIAS DO VENCIMENTO.                                                                                                                                                                                                         01041700000000000000104170000000000000       0090770900066125000311329319000021
100000000000000000000009077090006612500000000000000000000000010002100000036033136100000000002            2  01003603313610041700000003415610000000099N010417000000000000000000000000000000000000000000000000000000000000000100007768713826FATIMA LUZIA BIANCHI                    DR. OLIDAIR AMBROSIO - 1487 AP.03 - CENT            14160170                                                            000023
2SR. CAIXA, APOS O VENCIMENTO COBRAR 10% DE MULTA                                NAO RECEBER APOS 30 DIAS DO VENCIMENTO.                                                                                                                                                                                                         01041700000000000000104170000000000000       0090770900066125000360331361000024
100000000000000000000009077090006612500000000000000000000000010002100000038883639600000000002            2  01003888363910041700000003364900000000099N010417000000000000000000000000000000000000000000000000000000000000000100021716847800DANIELLE FAGUNDES DE A.MATOS            CONDE MOREIRA LIMA - 644 - JARDIM JABAQU            04384032                                                            000026
2SR. CAIXA, APOS O VENCIMENTO COBRAR 10% DE MULTA                                NAO RECEBER APOS 30 DIAS DO VENCIMENTO.                                                                                                                                                                                                         01041700000000000000104170000000000000       0090770900066125000388836396000027
100000000000000000000009077090006612500000000000000000000000010002100000041873842400000000002            2  01004187384210041700000002811190000000099N010417000000000000000000000000000000000000000000000000000000000000000100028196184808VANESSA NOGUEIRA CAMBUI DA SILVA        CRISTOVAO COLOMBO - 217 - VILA AMERICA -            09110160                                                            000029
2SR. CAIXA, APOS O VENCIMENTO COBRAR 10% DE MULTA                                NAO RECEBER APOS 30 DIAS DO VENCIMENTO.                                                                                                                                                                                                         01041700000000000000104170000000000000       0090770900066125000418738424000030
100000000000000000000009077090006612500000000000000000000000010002100000045784246800000000002            2  01004578424610041700000002970820000000099N010417000000000000000000000000000000000000000000000000000000000000000100005678057863FABIO MOREIRA CAMPOS                    RUA FLORENCIO DA SILVA - 284 - VILA LIBA            03738070                                                            000032
2SR. CAIXA, APOS O VENCIMENTO COBRAR 10% DE MULTA                                NAO RECEBER APOS 30 DIAS DO VENCIMENTO.                                                                                                                                                                                                         01041700000000000000104170000000000000       0090770900066125000457842468000033
100000000000000000000009077090006612500000000000000000000000010002100000046744347200000000002            2  01004674434710041700000002999820000000099N010417000000000000000000000000000000000000000000000000000000000000000100007784496885GUILHERME LEONARDO DO NASCIMENTO        COMENDADOR RUBENS RONCARE - 127 - PONTE             11530120                                                            000035
2SR. CAIXA, APOS O VENCIMENTO COBRAR 10% DE MULTA                                NAO RECEBER APOS 30 DIAS DO VENCIMENTO.                                                                                                                                                                                                         01041700000000000000104170000000000000       0090770900066125000467443472000036
100000000000000000000009077090006612500000000000000000000000010002100000047694448400000000002            2  01004769444810041700000002898270000000099N010417000000000000000000000000000000000000000000000000000000000000000100016348237885AILTON LORENA                           AVENIDA BRASILIA - 194 - BELA VISTA - SA            09180260                                                            000038
2SR. CAIXA, APOS O VENCIMENTO COBRAR 10% DE MULTA                                NAO RECEBER APOS 30 DIAS DO VENCIMENTO.                                                                                                                                                                                                         01041700000000000000104170000000000000       0090770900066125000476944484000039
100000000000000000000009077090006612500000000000000000000000010002100000051534852500000000002            2  01005153485210041700000002797170000000099N010417000000000000000000000000000000000000000000000000000000000000000100081218486953OSMAR DA COSTA                          RUA MONTE CASTELO - 295 AP.33 - AVIACAO             11702720                                                            000041
2SR. CAIXA, APOS O VENCIMENTO COBRAR 10% DE MULTA                                NAO RECEBER APOS 30 DIAS DO VENCIMENTO.                                                                                                                                                                                                         01041700000000000000104170000000000000       0090770900066125000515348525000042
100000000000000000000009077090006612500000000000000000000000010002100000054545155P00000000002            2  01005454515510041700000003177060000000099N010417000000000000000000000000000000000000000000000000000000000000000100004981884850SILVIO PAULINO GONCALVES                MARIA DE CASTRO MESQUITA - 84 AP.103 BLO            07110040                                                            000044
2SR. CAIXA, APOS O VENCIMENTO COBRAR 10% DE MULTA                                NAO RECEBER APOS 30 DIAS DO VENCIMENTO.                                                                                                                                                                                                         01041700000000000000104170000000000000       009077090006612500054545155P000045
100000000000000000000009077090006612500000000000000000000000010002100000055545256200000000002            2  01005554525610041700000002085440000000099N010417000000000000000000000000000000000000000000000000000000000000000100019282546837FABIO LEANDRO DE FREITAS ASSIS          RUA BASSIM NAGIB TRABULSI - 97 - PONTA D            11030540                                                            000047
2SR. CAIXA, APOS O VENCIMENTO COBRAR 10% DE MULTA                                NAO RECEBER APOS 30 DIAS DO VENCIMENTO.                                                                                                                                                                                                         01041700000000000000104170000000000000       0090770900066125000555452562000048
100000000000000000000009077090006612500000000000000000000000010002100000059385660P00000000002            2  01005938566010041700000002898200000000099N010417000000000000000000000000000000000000000000000000000000000000000100008423485811EDSON LUIZ NUNES                        RUA NOEMIA PEDROSO BUENO - 41 - JARDIM G            09360440                                                            000050
2SR. CAIXA, APOS O VENCIMENTO COBRAR 10% DE MULTA                                NAO RECEBER APOS 30 DIAS DO VENCIMENTO.                                                                                                                                                                                                         01041700000000000000104170000000000000       009077090006612500059385660P000051
100000000000000000000009077090006612500000000000000000000000010002100000064116165100000000002            2  01006411616510041700000003353570000000099N010417000000000000000000000000000000000000000000000000000000000000000100003010502877GIZELA VIEIRA BARROS                    RUA GIACOMO DALCIN - 157 - MAUA - SAO CA            09580350                                                            000053
2SR. CAIXA, APOS O VENCIMENTO COBRAR 10% DE MULTA                                NAO RECEBER APOS 30 DIAS DO VENCIMENTO.                                                                                                                                                                                                         01041700000000000000104170000000000000       0090770900066125000641161651000054
100000000000000000000009077090006612500000000000000000000000010002100000069116670000000000002            2  01006911667010041700000002730720000000099N010417000000000000000000000000000000000000000000000000000000000000000100012111060801CLAUDIA CRISTINA CRELIS COSTA           RUA RUI BARBOSA - 1736 AP.1533 - VILA SA            19015001                                                            000056
2SR. CAIXA, APOS O VENCIMENTO COBRAR 10% DE MULTA                                NAO RECEBER APOS 30 DIAS DO VENCIMENTO.                                                                                                                                                                                                         01041700000000000000104170000000000000       0090770900066125000691166700000057
100000000000000000000009077090006612500000000000000000000000010002100000070036271200000000002            2  01007003627110041700000002629350000000099N010417000000000000000000000000000000000000000000000000000000000000000100009777281889CARLITA DE FIGUEIREDO CARVALHO          AVENIDA ALBERTO DE ALMEIDA VINHAS - 4462            11701350                                                            000059
2SR. CAIXA, APOS O VENCIMENTO COBRAR 10% DE MULTA                                NAO RECEBER APOS 30 DIAS DO VENCIMENTO.                                                                                                                                                                                                         01041700000000000000104170000000000000       0090770900066125000700362712000060
100000000000000000000009077090006612500000000000000000000000010002100000073056974500000000002            2  01007305697410041700000003122540000000099N010417000000000000000000000000000000000000000000000000000000000000000100004213020894ELIETE DRUGOVICH DE LIMA                RUA OSVALDO CRUZ - 141 AP.144-B - SANTA             09541270                                                            000062
2SR. CAIXA, APOS O VENCIMENTO COBRAR 10% DE MULTA                                NAO RECEBER APOS 30 DIAS DO VENCIMENTO.                                                                                                                                                                                                         01041700000000000000104170000000000000       0090770900066125000730569745000063
100000000000000000000009077090006612500000000000000000000000010002100000074967176100000000002            2  01007496717610041700000002383210000000099N010417000000000000000000000000000000000000000000000000000000000000000100085839817872MAURO CORREIA MARTINS                   RUA PROFESSOR JOSE AZEVEDO MINHOTO - 72             06114000                                                            000065
2SR. CAIXA, APOS O VENCIMENTO COBRAR 10% DE MULTA                                NAO RECEBER APOS 30 DIAS DO VENCIMENTO.                                                                                                                                                                                                         01041700000000000000104170000000000000       0090770900066125000749671761000066
100000000000000000000009077090006612500000000000000000000000010002100000078703480500000000002            2  01007870348010041700000002128310000000099N010417000000000000000000000000000000000000000000000000000000000000000100043122850800ANTONIO JOAQUIM GOES                    ANTONIO DOAS DA SILVA - 412 - VILA AMALI            02618110                                                            000068
2SR. CAIXA, APOS O VENCIMENTO COBRAR 10% DE MULTA                                NAO RECEBER APOS 30 DIAS DO VENCIMENTO.                                                                                                                                                                                                         01041700000000000000104170000000000000       0090770900066125000787034805000069
100000000000000000000009077090006612500000000000000000000000010002100000086408088200000000002            2  01008640808810041700000002794330000000099N010417000000000000000000000000000000000000000000000000000000000000000100003865776841FRANCISCO JOSE ROCCO                    RUA FABIO JOSE BEZERRA - 130 AP.86 - PAR            03805000                                                            000071
2SR. CAIXA, APOS O VENCIMENTO COBRAR 10% DE MULTA                                NAO RECEBER APOS 30 DIAS DO VENCIMENTO.                                                                                                                                                                                                         01041700000000000000104170000000000000       0090770900066125000864080882000072
100000000000000000000009077090006612500000000000000000000000010002100000091458393700000000002            2  01009145839310041700000002491910000000099N010417000000000000000000000000000000000000000000000000000000000000000100028309524803DEISE RIBEIRO BARBOSA                   RUA CANDIDO JOSE DE ANDRADE - 173 - ERME            03807030                                                            000074
2SR. CAIXA, APOS O VENCIMENTO COBRAR 10% DE MULTA                                NAO RECEBER APOS 30 DIAS DO VENCIMENTO.                                                                                                                                                                                                         01041700000000000000104170000000000000       0090770900066125000914583937000075
100000000000000000000009077090006612500000000000000000000000010002100000093468695300000000002            2  01009346869510041700000002957600000000099N010417000000000000000000000000000000000000000000000000000000000000000100011277908893JOSE AILTON LOPES DE AZEVEDO            RUA MAESTRO JOAO SEPE - 19 - JARDIM MARI            04181030                                                            000077
2SR. CAIXA, APOS O VENCIMENTO COBRAR 10% DE MULTA                                NAO RECEBER APOS 30 DIAS DO VENCIMENTO.                                                                                                                                                                                                         01041700000000000000104170000000000000       0090770900066125000934686953000078
100000000000000000000009077090006612500000000000000000000000010002100000097758999400000000002            2  01009775899910041700000002230430000000099N010417000000000000000000000000000000000000000000000000000000000000000100025215106886KLEBER LUIZ DOS SANTOS                  RUA CAPITAO JOSE MEIRELES - 47 - CAPITAO            11330180                                                            000080
2SR. CAIXA, APOS O VENCIMENTO COBRAR 10% DE MULTA                                NAO RECEBER APOS 30 DIAS DO VENCIMENTO.                                                                                                                                                                                                         01041700000000000000104170000000000000       0090770900066125000977589994000081
100000000000000000000009077090006612500000000000000000000000010002100001014493103100000000002            2  01101449310310041700000002491270000000099N010417000000000000000000000000000000000000000000000000000000000000000100090206789815NEREIDE RODRIGUES FERREIRA              AVENIDA PADRE ESTANISLAU DE CAMPOS - 205            03590060                                                            000083
2SR. CAIXA, APOS O VENCIMENTO COBRAR 10% DE MULTA                                NAO RECEBER APOS 30 DIAS DO VENCIMENTO.                                                                                                                                                                                                         01041700000000000000104170000000000000       0090770900066125010144931031000084
100000000000000000000009077090006612500000000000000000000000010002100001057197107900000000002            2  01105719710710041700000002751550000000099N010417000000000000000000000000000000000000000000000000000000000000000100023027012835RUBEN ALBERTO DIAZ                      RUA MONTE CASTELO - 296 AP.104 - AVIACAO            11702720                                                            000086
2SR. CAIXA, APOS O VENCIMENTO COBRAR 10% DE MULTA                                NAO RECEBER APOS 30 DIAS DO VENCIMENTO.                                                                                                                                                                                                         01041700000000000000104170000000000000       0090770900066125010571971079000087
100000000000000000000009077090006612500000000000000000000000010002100010870100110700000000002            2  01108701001110041700000002916100000000099N010417000000000000000000000000000000000000000000000000000000000000000100029150742833ANA DEISE SANTOS DE ALMEIDA             RUA MONTE CASTELO - 296 AP.121 - AVIACAO            11702720                                                            000089
2SR. CAIXA, APOS O VENCIMENTO COBRAR 10% DE MULTA                                NAO RECEBER APOS 30 DIAS DO VENCIMENTO.                                                                                                                                                                                                         01041700000000000000104170000000000000       0090770900066125108701001107000090
100000000000000000000009077090006612500000000000000000000000010002100010972101111300000000002            2  01109721011110041700000002401950000000099N010417000000000000000000000000000000000000000000000000000000000000000100000811752801SERGIO BUENO DA SILVA                   RUA MONTE CASTELO - 262 AP.75 - AVIACAO             11702720                                                            000092
2SR. CAIXA, APOS O VENCIMENTO COBRAR 10% DE MULTA                                NAO RECEBER APOS 30 DIAS DO VENCIMENTO.                                                                                                                                                                                                         01041700000000000000104170000000000000       0090770900066125109721011113000093
100000000000000000000009077090006612500000000000000000000000010002100011278104115200000000002            2  01112781041110041700000002294580000000099N010417000000000000000000000000000000000000000000000000000000000000000100027100951810MARCIA RAMALHO RODRIGUES                RUA MONTE CASTELO - 296 AP.82 - AVIACAO             11702720                                                            000095
2SR. CAIXA, APOS O VENCIMENTO COBRAR 10% DE MULTA                                NAO RECEBER APOS 30 DIAS DO VENCIMENTO.                                                                                                                                                                                                         01041700000000000000104170000000000000       0090770900066125112781041152000096
100000000000000000000009077090006612500000000000000000000000010002100011568107118500000000002            2  01115681071110041700000003053350000000099N010417000000000000000000000000000000000000000000000000000000000000000100018344803888MARCELO BERNARDO                        RUA ESTONIA - 06 - INTERLAGOS - SAO PAUL            04785140                                                            000098
2SR. CAIXA, APOS O VENCIMENTO COBRAR 10% DE MULTA                                NAO RECEBER APOS 30 DIAS DO VENCIMENTO.                                                                                                                                                                                                         01041700000000000000104170000000000000       0090770900066125115681071185000099
100000000000000000000009077090006612500000000000000000000000010002100012578115128900000000002            2  01125781151210041700000002277020000000099N010417000000000000000000000000000000000000000000000000000000000000000100030210501820ROGERIO MUNIZ DA CUNHA                  RUA MONTE CASTELO - 296 AP.34 - AVIACAO             11702720                                                            000101
2SR. CAIXA, APOS O VENCIMENTO COBRAR 10% DE MULTA                                NAO RECEBER APOS 30 DIAS DO VENCIMENTO.                                                                                                                                                                                                         01041700000000000000104170000000000000       0090770900066125125781151289000102
100000000000000000000009077090006612500000000000000000000000010002100012786117130500000000002            2  01127861171310041700000004280740000000099N010417000000000000000000000000000000000000000000000000000000000000000100004004328896VANDERLEI  MARTINS DE ALMEIDA           RUA MONSENHOR TABOSA - 03 - PARQUE CISPE            03819300                                                            000104
2SR. CAIXA, APOS O VENCIMENTO COBRAR 10% DE MULTA                                NAO RECEBER APOS 30 DIAS DO VENCIMENTO.                                                                                                                                                                                                         01041700000000000000104170000000000000       0090770900066125127861171305000105
100000000000000000000009077090006612500000000000000000000000010002100013221120135100000000002            2  01132211201310041700000002923880000000099N010417000000000000000000000000000000000000000000000000000000000000000100005133053860VICENTE ARCIPRETE JUNIOR                RUA JOSE SIMOES FERREIRA FILHO - 80 - JA            06040090                                                            000107
2SR. CAIXA, APOS O VENCIMENTO COBRAR 10% DE MULTA                                NAO RECEBER APOS 30 DIAS DO VENCIMENTO.                                                                                                                                                                                                         01041700000000000000104170000000000000       0090770900066125132211201351000108
100000000000000000000009077090006612500000000000000000000000010002100001381692141100000000002            2  01138169214110041700000000711160000000099N010417000000000000000000000000000000000000000000000000000000000000000100056660235868JOSE DA SILVA                           RUA MONTE CASTELO - 296 AP.32 - AVIACAO             11702720                                                            000110
2SR. CAIXA, APOS O VENCIMENTO COBRAR 10% DE MULTA                                NAO RECEBER APOS 30 DIAS DO VENCIMENTO.                                                                                                                                                                                                         01041700000000000000104170000000000000       0090770900066125013816921411000111
100000000000000000000009077090006612500000000000000000000000010002100013896124142600000000002            2  01138961241410041700000002582730000000099N010417000000000000000000000000000000000000000000000000000000000000000100016339432832ALEX MONTEIRO DA SILVA                  RUA IVA MOURA LIMA - 04 - JARDIM MIRNA I            04855540                                                            000113
2SR. CAIXA, APOS O VENCIMENTO COBRAR 10% DE MULTA                                NAO RECEBER APOS 30 DIAS DO VENCIMENTO.                                                                                                                                                                                                         01041700000000000000104170000000000000       0090770900066125138961241426000114
100000000000000000000009077090006612500000000000000000000000010002100013994125143P00000000002            2  01139941251410041700000002637450000000099N010417000000000000000000000000000000000000000000000000000000000000000100031803864877ELEILSON FELIPPE SANTOS                 RUA SANTA GREGORIA - 193 - CIDADE DUTRA             04806030                                                            000116
2SR. CAIXA, APOS O VENCIMENTO COBRAR 10% DE MULTA                                NAO RECEBER APOS 30 DIAS DO VENCIMENTO.                                                                                                                                                                                                         01041700000000000000104170000000000000       009077090006612513994125143P000117
100000000000000000000009077090006612500000000000000000000000010002100014420127147300000000002            2  01144201271410041700000001814990000000099N010417000000000000000000000000000000000000000000000000000000000000000100026032632857MARILA LOPES PEREIRA                    RUA ESTRADA DO M BOI MIRIM - 820 BL.05 A            04905000                                                            000119
2SR. CAIXA, APOS O VENCIMENTO COBRAR 10% DE MULTA                                NAO RECEBER APOS 30 DIAS DO VENCIMENTO.                                                                                                                                                                                                         01041700000000000000104170000000000000       0090770900066125144201271473000120
100000000000000000000009077090006612500000000000000000000000010002100014518128148100000000002            2  01145181281410041700000003143020000000099N010417000000000000000000000000000000000000000000000000000000000000000100063064537849ANTONIO APARECIDO DA SILVA DESTEFANO    RUA PROFESSOR TEODORO BRAGA - 46 - VILA             02966020                                                            000122
2SR. CAIXA, APOS O VENCIMENTO COBRAR 10% DE MULTA                                NAO RECEBER APOS 30 DIAS DO VENCIMENTO.                                                                                                                                                                                                         01041700000000000000104170000000000000       0090770900066125145181281481000123
100000000000000000000009077090006612500000000000000000000000010002100014852130152P00000000002            2  01148521301510041700000003011960000000099N010417000000000000000000000000000000000000000000000000000000000000000100010107711834VALDEMAR FECCHIO                        RUA DOUTOR MARTINS DE OLIVEIRA - 529 AP.            05638030                                                            000125
2SR. CAIXA, APOS O VENCIMENTO COBRAR 10% DE MULTA                                NAO RECEBER APOS 30 DIAS DO VENCIMENTO.                                                                                                                                                                                                         01041700000000000000104170000000000000       009077090006612514852130152P000126
100000000000000000000009077090006612500000000000000000000000010002100015196131156000000000002            2  01151961311510041700000003874720000000099N010417000000000000000000000000000000000000000000000000000000000000000100003330791837MARLI DA SILVA BARBOSA                  RUA GLICERIO CERQUEIRA LEITE - 151 - JAR            03675040                                                            000128
2SR. CAIXA, APOS O VENCIMENTO COBRAR 10% DE MULTA                                NAO RECEBER APOS 30 DIAS DO VENCIMENTO.                                                                                                                                                                                                         01041700000000000000104170000000000000       0090770900066125151961311560000129
100000000000000000000009077090006612500000000000000000000000010002100015397132158300000000002            2  01153971321510041700000001575020000000099N010417000000000000000000000000000000000000000000000000000000000000000100008931031874MARIA MARINHO DE OLIVEIRA               AVENIDA 9 DE JULHO - 1854 AP.81 - BELA V            01312001                                                            000131
2SR. CAIXA, APOS O VENCIMENTO COBRAR 10% DE MULTA                                NAO RECEBER APOS 30 DIAS DO VENCIMENTO.                                                                                                                                                                                                         01041700000000000000104170000000000000       0090770900066125153971321583000132
100000000000000000000009077090006612500000000000000000000000010002100015602134160900000000002            2  01156021341610041700000001829890000000099N010417000000000000000000000000000000000000000000000000000000000000000100005920579846SONIA MARIA VALDO POLLO                 RUA PALMIRA CERVI BARBARO - 797 - CIDADE            13214370                                                            000134
2SR. CAIXA, APOS O VENCIMENTO COBRAR 10% DE MULTA                                NAO RECEBER APOS 30 DIAS DO VENCIMENTO.                                                                                                                                                                                                         01041700000000000000104170000000000000       0090770900066125156021341609000135
100000000000000000000009077090006612500000000000000000000000010002100017882137181P00000000002            2  01178821371810041700000002751320000000099N010417000000000000000000000000000000000000000000000000000000000000000100002494107881CIRO FRANCISCO MARCHI DURIGON           RUA MONTE CASTELO - 262 AP.115 - AVIACAO            11702720                                                            000137
2SR. CAIXA, APOS O VENCIMENTO COBRAR 10% DE MULTA                                NAO RECEBER APOS 30 DIAS DO VENCIMENTO.                                                                                                                                                                                                         01041700000000000000104170000000000000       009077090006612517882137181P000138
100000000000000000000009077090006612500000000000000000000000010002100019039150190000000000002            2  01190391501910041700000002704690000000099N010417000000000000000000000000000000000000000000000000000000000000000100007002345869DOMINGOS DE BRITO GALVAO                RUA MONTE CASTELO - 262 AP.44 - AVIACAO             11702720                                                            000140
2SR. CAIXA, APOS O VENCIMENTO COBRAR 10% DE MULTA                                NAO RECEBER APOS 30 DIAS DO VENCIMENTO.                                                                                                                                                                                                         01041700000000000000104170000000000000       0090770900066125190391501900000141
100000000000000000000009077090006612500000000000000000000000010002100019692155195300000000002            2  01196921551910041700000001126650000000099N010417000000000000000000000000000000000000000000000000000000000000000100009346863862NELSON DE SOUZA SANTOS                  RUA PRIMEIRA CRUZ - 90 - PARQUE INDEPEND            03236060                                                            000143
2SR. CAIXA, APOS O VENCIMENTO COBRAR 10% DE MULTA                                NAO RECEBER APOS 30 DIAS DO VENCIMENTO.                                                                                                                                                                                                         01041700000000000000104170000000000000       0090770900066125196921551953000144
100000000000000000000009077090006612500000000000000000000000010002100020045157198400000000002            2  01200451571910041700000002607300000000099N010417000000000000000000000000000000000000000000000000000000000000000100016299008857FERNANDO CESAR CARVALHO                 AVENIDA MARCONDES DE BRITO - 1340 AP.74             03509000                                                            000146
2SR. CAIXA, APOS O VENCIMENTO COBRAR 10% DE MULTA                                NAO RECEBER APOS 30 DIAS DO VENCIMENTO.                                                                                                                                                                                                         01041700000000000000104170000000000000       0090770900066125200451571984000147
100000000000000000000009077090006612500000000000000000000000010002100002251475219900000000002            2  01225147521910041700000002619950000000099N010417000000000000000000000000000000000000000000000000000000000000000100031082898880VANESSA DOS SANTOS NEIVA                RUA MONTE CASTELO - 296 AP.33 - BAIRRO A            11702720                                                            000149
2SR. CAIXA, APOS O VENCIMENTO COBRAR 10% DE MULTA                                NAO RECEBER APOS 30 DIAS DO VENCIMENTO.                                                                                                                                                                                                         01041700000000000000104170000000000000       0090770900066125022514752199000150
100000000000000000000009077090006612500000000000000000000000010002100026870143250400000000002            2  01268701432510041700000001595180000000099N010417000000000000000000000000000000000000000000000000000000000000000100065895304834MARINHO BARBOSA CUNHA                   AVENIDA EDU CHAVES - 639 AP.43 - PARQUE             02229000                                                            000152
2SR. CAIXA, APOS O VENCIMENTO COBRAR 10% DE MULTA                                NAO RECEBER APOS 30 DIAS DO VENCIMENTO.                                                                                                                                                                                                         01041700000000000000104170000000000000       0090770900066125268701432504000153
9                                                                                                                                                                                                                                                                                                                                                                                                         000154