01REMESSA01COBRANCA       00000000000008017025HB SANTOS CONSTRUTORA E INCORP237BRADESCO       010323        MX0000172                                                                                                                                                                                                                                                                                     000001
100000000000000000000009033990000627000000000000000000000000010002020016479003231P00000000002            2  01164790032309032300000005258950000000001N010323000000000000000000000000000000000000000000000000000000000000000100016479002806LOURDES PEREIRA DE QUEIROZ SECANECHIA   RUA PAULINO CURSI - 437 - CIDADE SAO MAT            03960060                                                            000002
2SR. CAIXA, APOS O VENCIMENTO COBRAR 2% DE MULTA                                 NAO RECEBER APOS 30 DIAS DO VENCIMENTO.                                                                                                                                                                                                         01032300000000000000103230000000000000       009033990000627016479003231P000003
100000000000000000000009033990000627000000000000000000000000010002020017229703232P00000000002            2  01172297032309032300000004002010000000001N010323000000000000000000000000000000000000000000000000000000000000000100017229751802BERENICE VIEIRA KERSTING                RUA ATIBAIA - 17 AP.417 - BAIRRO IMPERAD            11707380                                                            000005
2SR. CAIXA, APOS O VENCIMENTO COBRAR 2% DE MULTA                                 NAO RECEBER APOS 30 DIAS DO VENCIMENTO.                                                                                                                                                                                                         01032300000000000000103230000000000000       009033990000627017229703232P000006
100000000000000000000009033990000627000000000000000000000000010002020009361403231700000000002            2  01093614032309032300000003818000000000001N010323000000000000000000000000000000000000000000000000000000000000000100009361471805JOSE BARBOSA DA SILVA                   RUA ALFREDO INACIO TRINDADE  - 60 AP.44             02344100                                                            000008
2SR. CAIXA, APOS O VENCIMENTO COBRAR 2% DE MULTA                                 NAO RECEBER APOS 30 DIAS DO VENCIMENTO.                                                                                                                                                                                                         01032300000000000000103230000000000000       0090339900006270093614032317000009
100000000000000000000009033990000627000000000000000000000000010002020012756903231000000000002            2  01127569032309032300000003295770000000001N010323000000000000000000000000000000000000000000000000000000000000000100012756959812ITAMAR JUVENAL DIAS DA SILVA            RUA ELISEU REINALDO MORAES VIEIRA - 90 A            02858000                                                            000011
2SR. CAIXA, APOS O VENCIMENTO COBRAR 2% DE MULTA                                 NAO RECEBER APOS 30 DIAS DO VENCIMENTO.                                                                                                                                                                                                         01032300000000000000103230000000000000       0090339900006270127569032310000012
100000000000000000000009033990000627000000000000000000000000010002020029433603231400000000002            2  01294336032311032300000002733210000000001N010323000000000000000000000000000000000000000000000000000000000000000100029433631897MARIO MUNIZ                             RUA JOSE CALIXTO DO CARMO - 286 AP.53 -             11702690                                                            000014
2SR. CAIXA, APOS O VENCIMENTO COBRAR 2% DE MULTA                                 NAO RECEBER APOS 30 DIAS DO VENCIMENTO.                                                                                                                                                                                                         01032300000000000000103230000000000000       0090339900006270294336032314000015
100000000000000000000009033990000627000000000000000000000000010002020005029803231700000000002            2  01050298032309032300000003360230000000001N010323000000000000000000000000000000000000000000000000000000000000000100005029828885LAURINETE DA CONCEICAO DE NORONHA       RUA MARIA LUCIA DE TOLEDO LEITE MORAES -            04434040                                                            000017
2SR. CAIXA, APOS O VENCIMENTO COBRAR 2% DE MULTA                                 NAO RECEBER APOS 30 DIAS DO VENCIMENTO.                                                                                                                                                                                                         01032300000000000000103230000000000000       0090339900006270050298032317000018
100000000000000000000009033990000627000000000000000000000000010002020013388903231900000000002            2  01133889032311032300000002664440000000001N010323000000000000000000000000000000000000000000000000000000000000000100013388936889NEUTON DE SOUZA RAMOS                   RUA JOSE CALIXTO DO CARMO - 286 AP.61 -             11702690                                                            000020
2SR. CAIXA, APOS O VENCIMENTO COBRAR 2% DE MULTA                                 NAO RECEBER APOS 30 DIAS DO VENCIMENTO.                                                                                                                                                                                                         01032300000000000000103230000000000000       0090339900006270133889032319000021
100000000000000000000009033990000627000000000000000000000000010002020012774903231900000000002            2  01127749032311032300000002714480000000001N010323000000000000000000000000000000000000000000000000000000000000000100012774906865JOSE MILTON SANTIAGO                    RUA BATATAIS - 47 - CIDADE ESTELA - POA             08563140                                                            000023
2SR. CAIXA, APOS O VENCIMENTO COBRAR 2% DE MULTA                                 NAO RECEBER APOS 30 DIAS DO VENCIMENTO.                                                                                                                                                                                                         01032300000000000000103230000000000000       0090339900006270127749032319000024
100000000000000000000009033990000627000000000000000000000000010002020005613803231900000000002            2  01056138032311032300000002496560000000001N010323000000000000000000000000000000000000000000000000000000000000000100005613843805NILZA MARIA DE OLIVEIRA                 RUA JOSE GONCALVES DE FREITAS - 66 C2 -             08210550                                                            000026
2SR. CAIXA, APOS O VENCIMENTO COBRAR 2% DE MULTA                                 NAO RECEBER APOS 30 DIAS DO VENCIMENTO.                                                                                                                                                                                                         01032300000000000000103230000000000000       0090339900006270056138032319000027
100000000000000000000009033990000627000000000000000000000000010002020007574903231900000000002            2  01075749032311032300000002562660000000001N010323000000000000000000000000000000000000000000000000000000000000000100007574936889JORGE LUCIANO PEREIRA BORRIELLO         RUA JOSE CALIXTO DO CARMO - 286 AP.54 -             11702690                                                            000029
2SR. CAIXA, APOS O VENCIMENTO COBRAR 2% DE MULTA                                 NAO RECEBER APOS 30 DIAS DO VENCIMENTO.                                                                                                                                                                                                         01032300000000000000103230000000000000       0090339900006270075749032319000030
100000000000000000000009033990000627000000000000000000000000010002020008214903231100000000002            2  01082149032311032300000002601540000000001N010323000000000000000000000000000000000000000000000000000000000000000100008214973830JAMIL CHALA                             RUA JOSE CALIXTO DO CARMO - 286 AP.22 -             11702690                                                            000032
2SR. CAIXA, APOS O VENCIMENTO COBRAR 2% DE MULTA                                 NAO RECEBER APOS 30 DIAS DO VENCIMENTO.                                                                                                                                                                                                         01032300000000000000103230000000000000       0090339900006270082149032311000033
100000000000000000000009033990000627000000000000000000000000010002020032495003231900000000002            2  01324950032311032300000002915360000000001N010323000000000000000000000000000000000000000000000000000000000000000100032495004881PAULO EDUARDO DOS SANTOS                RUA REPUBLICA DO IRAQUE - 1119 - CAMPO B            04611002                                                            000035
2SR. CAIXA, APOS O VENCIMENTO COBRAR 2% DE MULTA                                 NAO RECEBER APOS 30 DIAS DO VENCIMENTO.                                                                                                                                                                                                         01032300000000000000103230000000000000       0090339900006270324950032319000036
100000000000000000000009033990000627000000000000000000000000010002020016498003231600000000002            2  01164980032311032300000002556840000000001N010323000000000000000000000000000000000000000000000000000000000000000100016498053810GILMA CEZARIO GARCIA CORRITORI          RUA LAURENTINO XAVIER DOS SANTOS - 336 -            08240740                                                            000038
2SR. CAIXA, APOS O VENCIMENTO COBRAR 2% DE MULTA                                 NAO RECEBER APOS 30 DIAS DO VENCIMENTO.                                                                                                                                                                                                         01032300000000000000103230000000000000       0090339900006270164980032316000039
100000000000000000000009033990000627000000000000000000000000010002020029339003231500000000002            2  01293390032311032300000002734110000000001N010323000000000000000000000000000000000000000000000000000000000000000100029339051831RONALD DIDOFF                           RUA CORONEL FERREIRA BRAGA - 188 - VILA             03522010                                                            000041
2SR. CAIXA, APOS O VENCIMENTO COBRAR 2% DE MULTA                                 NAO RECEBER APOS 30 DIAS DO VENCIMENTO.                                                                                                                                                                                                         01032300000000000000103230000000000000       0090339900006270293390032315000042
100000000000000000000009033990000627000000000000000000000000010002020017357803231700000000002            2  01173578032311032300000002895670000000001N010323000000000000000000000000000000000000000000000000000000000000000100017357859894MARCIO GUIMARAES                        RUA GENERAL CAMARA - 188 SALA 11 - CENTR            11010120                                                            000044
2SR. CAIXA, APOS O VENCIMENTO COBRAR 2% DE MULTA                                 NAO RECEBER APOS 30 DIAS DO VENCIMENTO.                                                                                                                                                                                                         01032300000000000000103230000000000000       0090339900006270173578032317000045
100000000000000000000009033990000627000000000000000000000000010002020010563003231700000000002            2  01105630032311032300000002969690000000001N010323000000000000000000000000000000000000000000000000000000000000000100010563033878VERA LUCIA RIBEIRO LONGANEZI            RUA DOS CAMARES - 150 AP.24 BL.02 - CARA            02068030                                                            000047
2SR. CAIXA, APOS O VENCIMENTO COBRAR 2% DE MULTA                                 NAO RECEBER APOS 30 DIAS DO VENCIMENTO.                                                                                                                                                                                                         01032300000000000000103230000000000000       0090339900006270105630032317000048
100000000000000000000009033990000627000000000000000000000000010002020005529603231100000000002            2  01055296032311032300000002694880000000001N010323000000000000000000000000000000000000000000000000000000000000000100005529616801JOAQUIM JORGE DA COSTA                  RUA JOSE CALIXTO DO CARMO - 286 AP.106 -            11702690                                                            000050
2SR. CAIXA, APOS O VENCIMENTO COBRAR 2% DE MULTA                                 NAO RECEBER APOS 30 DIAS DO VENCIMENTO.                                                                                                                                                                                                         01032300000000000000103230000000000000       0090339900006270055296032311000051
100000000000000000000009033990000627000000000000000000000000010002020015550703231800000000002            2  01155507032309032300000002547050000000001N010323000000000000000000000000000000000000000000000000000000000000000100015550706806MARY MIWA                               RUA CARLOS JOSE BORSTENS - 50 AP.105 - A            11702750                                                            000053
2SR. CAIXA, APOS O VENCIMENTO COBRAR 2% DE MULTA                                 NAO RECEBER APOS 30 DIAS DO VENCIMENTO.                                                                                                                                                                                                         01032300000000000000103230000000000000       0090339900006270155507032318000054
100000000000000000000009033990000627000000000000000000000000010002020015464603231800000000002            2  01154646032311032300000002832960000000001N010323000000000000000000000000000000000000000000000000000000000000000100015464647864SONIA TERESA VOLPATO                    RUA JOSE CALIXTO DO CARMO - 286 AP.73 -             11702690                                                            000056
2SR. CAIXA, APOS O VENCIMENTO COBRAR 2% DE MULTA                                 NAO RECEBER APOS 30 DIAS DO VENCIMENTO.                                                                                                                                                                                                         01032300000000000000103230000000000000       0090339900006270154646032318000057
100000000000000000000009033990000627000000000000000000000000010002020008657803231700000000002            2  01086578032311032300000002804520000000001N010323000000000000000000000000000000000000000000000000000000000000000100008657886855ARLINDO DA CRUZ                         AVENIDA ARICANDUVA - 8.256 AP.54 BL.10 -            03951220                                                            000059
2SR. CAIXA, APOS O VENCIMENTO COBRAR 2% DE MULTA                                 NAO RECEBER APOS 30 DIAS DO VENCIMENTO.                                                                                                                                                                                                         01032300000000000000103230000000000000       0090339900006270086578032317000060
100000000000000000000009033990000627000000000000000000000000010002020059735103231500000000002            2  01597351032309032300000001585190000000001N010323000000000000000000000000000000000000000000000000000000000000000100059735180863HELIO JOSE MARQUES                      RUA MARTIM AFONSO DE SOUZA - 1007 AP.102            11702790                                                            000062
2SR. CAIXA, APOS O VENCIMENTO COBRAR 2% DE MULTA                                 NAO RECEBER APOS 30 DIAS DO VENCIMENTO.                                                                                                                                                                                                         01032300000000000000103230000000000000       0090339900006270597351032315000063
100000000000000000000009033990000627000000000000000000000000010002020026347803231900000000002            2  01263478032311032300000002997950000000001N010323000000000000000000000000000000000000000000000000000000000000000100026347872862VALDECI SILVA MEIRELES                  RUA JOSE BATISTA DA SILVA - 292 - JARDIM            06851470                                                            000065
2SR. CAIXA, APOS O VENCIMENTO COBRAR 2% DE MULTA                                 NAO RECEBER APOS 30 DIAS DO VENCIMENTO.                                                                                                                                                                                                         01032300000000000000103230000000000000       0090339900006270263478032319000066
100000000000000000000009033990000627000000000000000000000000010002020013135203231P00000000002            2  01131352032311032300000002754350000000001N010323000000000000000000000000000000000000000000000000000000000000000100013135261859EDUARDO ZANOLA                          RUA ROLANDO PIETRO BONINI - 46 - JARDIM             09781040                                                            000068
2SR. CAIXA, APOS O VENCIMENTO COBRAR 2% DE MULTA                                 NAO RECEBER APOS 30 DIAS DO VENCIMENTO.                                                                                                                                                                                                         01032300000000000000103230000000000000       009033990000627013135203231P000069
100000000000000000000009033990000627000000000000000000000000010002020013135203232800000000002            2  01131352032311032300000002754330000000001N010323000000000000000000000000000000000000000000000000000000000000000100013135261859EDUARDO ZANOLA                          RUA ROLANDO PIETRO BONINI - 46 - JARDIM             09781040                                                            000071
2SR. CAIXA, APOS O VENCIMENTO COBRAR 2% DE MULTA                                 NAO RECEBER APOS 30 DIAS DO VENCIMENTO.                                                                                                                                                                                                         01032300000000000000103230000000000000       0090339900006270131352032328000072
100000000000000000000009033990000627000000000000000000000000010002020013135203233600000000002            2  01131352032311032300000002754340000000001N010323000000000000000000000000000000000000000000000000000000000000000100013135261859EDUARDO ZANOLA                          RUA ROLANDO PIETRO BONINI - 46 - JARDIM             09781040                                                            000074
2SR. CAIXA, APOS O VENCIMENTO COBRAR 2% DE MULTA                                 NAO RECEBER APOS 30 DIAS DO VENCIMENTO.                                                                                                                                                                                                         01032300000000000000103230000000000000       0090339900006270131352032336000075
100000000000000000000009033990000627000000000000000000000000010002020009797603231000000000002            2  01097976032311032300000002682440000000001N010323000000000000000000000000000000000000000000000000000000000000000100009797626857RICARDO SOBRAL DE OLIVEIRA              RUA 23 DE MAIO - 139 AP.32 - VILA MIRIM             11704690                                                            000077
2SR. CAIXA, APOS O VENCIMENTO COBRAR 2% DE MULTA                                 NAO RECEBER APOS 30 DIAS DO VENCIMENTO.                                                                                                                                                                                                         01032300000000000000103230000000000000       0090339900006270097976032310000078
100000000000000000000009033990000627000000000000000000000000010002020022728403231100000000002            2  01227284032311032300000002902600000000001N010323000000000000000000000000000000000000000000000000000000000000000100022728497842WILLIAN DE SOUZA MELLO                  RUA JOSE CALIXTO DO CARMO - 286 AP.111 -            11702690                                                            000080
2SR. CAIXA, APOS O VENCIMENTO COBRAR 2% DE MULTA                                 NAO RECEBER APOS 30 DIAS DO VENCIMENTO.                                                                                                                                                                                                         01032300000000000000103230000000000000       0090339900006270227284032311000081
100000000000000000000009033990000627000000000000000000000000010002020016909703231600000000002            2  01169097032311032300000002564990000000001N010323000000000000000000000000000000000000000000000000000000000000000100016909746805EDIVALDO SANTANA DOS SANTOS             ESTRADA JOAO GASPAR DELGADO - 80 AP.213             08536100                                                            000083
2SR. CAIXA, APOS O VENCIMENTO COBRAR 2% DE MULTA                                 NAO RECEBER APOS 30 DIAS DO VENCIMENTO.                                                                                                                                                                                                         01032300000000000000103230000000000000       0090339900006270169097032316000084
100000000000000000000009033990000627000000000000000000000000010002020022036003231300000000002            2  01220360032309032300000003981710000000001N010323000000000000000000000000000000000000000000000000000000000000000100022036003818DERLIS TERAN QUIROGA ROGATO             RUA JOAO RIBEIRO - 320 AP.131SB - CAMPES            09070250                                                            000086
2SR. CAIXA, APOS O VENCIMENTO COBRAR 2% DE MULTA                                 NAO RECEBER APOS 30 DIAS DO VENCIMENTO.                                                                                                                                                                                                         01032300000000000000103230000000000000       0090339900006270220360032313000087
100000000000000000000009033990000627000000000000000000000000010002020017229703233800000000002            2  01172297032309032300000003842700000000001N010323000000000000000000000000000000000000000000000000000000000000000100017229751802BERENICE VIEIRA KERSTING                RUA ATIBAIA - 17 AP.417 - BAIRRO IMPERAD            11707380                                                            000089
2SR. CAIXA, APOS O VENCIMENTO COBRAR 2% DE MULTA                                 NAO RECEBER APOS 30 DIAS DO VENCIMENTO.                                                                                                                                                                                                         01032300000000000000103230000000000000       0090339900006270172297032338000090
100000000000000000000009033990000627000000000000000000000000010002020012475603231700000000002            2  01124756032311032300000002780330000000001N010323000000000000000000000000000000000000000000000000000000000000000100012475663820CELIDALVA GOES DE CARVALHO              RUA JOSE CALIXTO DO CARMO - 286 AP.91 -             11702690                                                            000092
2SR. CAIXA, APOS O VENCIMENTO COBRAR 2% DE MULTA                                 NAO RECEBER APOS 30 DIAS DO VENCIMENTO.                                                                                                                                                                                                         01032300000000000000103230000000000000       0090339900006270124756032317000093
100000000000000000000009033990000627000000000000000000000000010002020033451603231400000000002            2  01334516032311032300000002321750000000001N010323000000000000000000000000000000000000000000000000000000000000000100033451620839ARAO ELISIARIO  NUNES                   RUA JOSE CALIXTO DO CARMO - 286 AP.64 -             11702690                                                            000095
2SR. CAIXA, APOS O VENCIMENTO COBRAR 2% DE MULTA                                 NAO RECEBER APOS 30 DIAS DO VENCIMENTO.                                                                                                                                                                                                         01032300000000000000103230000000000000       0090339900006270334516032314000096
100000000000000000000009033990000627000000000000000000000000010002020011369103231200000000002            2  01113691032311032300000002536230000000001N010323000000000000000000000000000000000000000000000000000000000000000100011369165803ELIANA CORREA DE OLIVEIRA               RUA MAESTRO ZEFERINO SANTANA - 65 - VILA            18040010                                                            000098
2SR. CAIXA, APOS O VENCIMENTO COBRAR 2% DE MULTA                                 NAO RECEBER APOS 30 DIAS DO VENCIMENTO.                                                                                                                                                                                                         01032300000000000000103230000000000000       0090339900006270113691032312000099
100000000000000000000009033990000627000000000000000000000000010002020002253803231600000000002            2  01022538032311032300000002254210000000001N010323000000000000000000000000000000000000000000000000000000000000000100002253816809EDMILSON ALVES DA SILVA                 RUA JOSE CALIXTO DO CARMO - 286 AP.93 -             11702690                                                            000101
2SR. CAIXA, APOS O VENCIMENTO COBRAR 2% DE MULTA                                 NAO RECEBER APOS 30 DIAS DO VENCIMENTO.                                                                                                                                                                                                         01032300000000000000103230000000000000       0090339900006270022538032316000102
100000000000000000000009033990000627000000000000000000000000010002020037947003231800000000002            2  01379470032311032300000004003630000000001N010323000000000000000000000000000000000000000000000000000000000000000100037947070873BRUNO DE CAETANO MARRINHAS              AVENIDA GENERAL BARRETO DE MENEZES - 323            09791150                                                            000104
2SR. CAIXA, APOS O VENCIMENTO COBRAR 2% DE MULTA                                 NAO RECEBER APOS 30 DIAS DO VENCIMENTO.                                                                                                                                                                                                         01032300000000000000103230000000000000       0090339900006270379470032318000105
100000000000000000000009033990000627000000000000000000000000010002020037517703231600000000002            2  01375177032309032300000004223240000000001N010323000000000000000000000000000000000000000000000000000000000000000100037517785869RENATO JOSE DE LIMA MELO                RUA ARISTIDES LOBO - 148 AP.41 BLOCO 03             03041100                                                            000107
2SR. CAIXA, APOS O VENCIMENTO COBRAR 2% DE MULTA                                 NAO RECEBER APOS 30 DIAS DO VENCIMENTO.                                                                                                                                                                                                         01032300000000000000103230000000000000       0090339900006270375177032316000108
100000000000000000000009033990000627000000000000000000000000010002020070367903231700000000002            2  01703679032311032300000002116840000000001N010323000000000000000000000000000000000000000000000000000000000000000100070367949849TEODOMIRO ALVES DOS SANTOS              RUA ANDRE PAZ - 13 - JARDIM SANTO ANDRE             08390230                                                            000110
2SR. CAIXA, APOS O VENCIMENTO COBRAR 2% DE MULTA                                 NAO RECEBER APOS 30 DIAS DO VENCIMENTO.                                                                                                                                                                                                         01032300000000000000103230000000000000       0090339900006270703679032317000111
100000000000000000000009033990000627000000000000000000000000010002020004410803231600000000002            2  01044108032309032300000003137920000000001N010323000000000000000000000000000000000000000000000000000000000000000100004410802860LUIZ ALBERTO MARINHO                    RUA DA INDEPENDENCIA - 706 AP.41B - CAMB            01524000                                                            000113
2SR. CAIXA, APOS O VENCIMENTO COBRAR 2% DE MULTA                                 NAO RECEBER APOS 30 DIAS DO VENCIMENTO.                                                                                                                                                                                                         01032300000000000000103230000000000000       0090339900006270044108032316000114
100000000000000000000009033990000627000000000000000000000000010002020004767603231100000000002            2  01047676032309032300000004189020000000001N010323000000000000000000000000000000000000000000000000000000000000000100004767679893ORLANDO GRANDE FILHO                    RUA ORLANDO MIGLIARI - 101 - JARDIM OURO            19906140                                                            000116
2SR. CAIXA, APOS O VENCIMENTO COBRAR 2% DE MULTA                                 NAO RECEBER APOS 30 DIAS DO VENCIMENTO.                                                                                                                                                                                                         01032300000000000000103230000000000000       0090339900006270047676032311000117
100000000000000000000009033990000627000000000000000000000000010002020064677803231700000000002            2  01646778032309032300000003369750000000001N010323000000000000000000000000000000000000000000000000000000000000000100064677850887ANTONIO CARLOS DE OLIVEIRA              RUA DR.ANTONIO MAZILLI FILHO - 435 - PAR            02230070                                                            000119
2SR. CAIXA, APOS O VENCIMENTO COBRAR 2% DE MULTA                                 NAO RECEBER APOS 30 DIAS DO VENCIMENTO.                                                                                                                                                                                                         01032300000000000000103230000000000000       0090339900006270646778032317000120
100000000000000000000009033990000627000000000000000000000000010002020007328903231200000000002            2  01073289032309032300000004111300000000001N010323000000000000000000000000000000000000000000000000000000000000000100007328927836BENEDITO APARECIDO ROCHA                AVENIDA SENADOR JOSE ERMINIO DE MORAES -            02357002                                                            000122
2SR. CAIXA, APOS O VENCIMENTO COBRAR 2% DE MULTA                                 NAO RECEBER APOS 30 DIAS DO VENCIMENTO.                                                                                                                                                                                                         01032300000000000000103230000000000000       0090339900006270073289032312000123
100000000000000000000009033990000627000000000000000000000000010002020028082603231100000000002            2  01280826032311032300000002350210000000001N010323000000000000000000000000000000000000000000000000000000000000000100028082615869PRISCILA PEREIRA                        ALAMEDA AFONSO BOCCHIGLIERI - 184 - INTE            04445130                                                            000125
2SR. CAIXA, APOS O VENCIMENTO COBRAR 2% DE MULTA                                 NAO RECEBER APOS 30 DIAS DO VENCIMENTO.                                                                                                                                                                                                         01032300000000000000103230000000000000       0090339900006270280826032311000126
100000000000000000000009033990000627000000000000000000000000010002020058488603231P00000000002            2  01584886032309032300000003073470000000001N010323000000000000000000000000000000000000000000000000000000000000000100058488618972ADAILTON ZANUTTO MORESCHI               R:RAPHAEL UNGARO - COND.RESERVA SERRA Q.            13212138                                                            000128
2SR. CAIXA, APOS O VENCIMENTO COBRAR 2% DE MULTA                                 NAO RECEBER APOS 30 DIAS DO VENCIMENTO.                                                                                                                                                                                                         01032300000000000000103230000000000000       009033990000627058488603231P000129
100000000000000000000009033990000627000000000000000000000000010002020002196003231400000000002            2  01021960032311032300000002311830000000001N010323000000000000000000000000000000000000000000000000000000000000000100002196012831VILEFORT DIAS BORGES                    RUA PORTO XAVIER - 189 AP.64 - VILA CARM            08210170                                                            000131
2SR. CAIXA, APOS O VENCIMENTO COBRAR 2% DE MULTA                                 NAO RECEBER APOS 30 DIAS DO VENCIMENTO.                                                                                                                                                                                                         01032300000000000000103230000000000000       0090339900006270021960032314000132
100000000000000000000009033990000627000000000000000000000000010002020031861503231200000000002            2  01318615032311032300000002402870000000001N010323000000000000000000000000000000000000000000000000000000000000000100031861586809VANIA TOMAZ                              -  -  -  -                                         00000000                                                            000134
2SR. CAIXA, APOS O VENCIMENTO COBRAR 2% DE MULTA                                 NAO RECEBER APOS 30 DIAS DO VENCIMENTO.                                                                                                                                                                                                         01032300000000000000103230000000000000       0090339900006270318615032312000135
100000000000000000000009033990000627000000000000000000000000010002020003104503231600000000002            2  01031045032309032300000008946770000000001N010323000000000000000000000000000000000000000000000000000000000000000100003104580804NELSON RODRIGUES                        RUA CARLOS JOSE BORSTENS - 50 AP.81 - AV            11702750                                                            000137
2SR. CAIXA, APOS O VENCIMENTO COBRAR 2% DE MULTA                                 NAO RECEBER APOS 30 DIAS DO VENCIMENTO.                                                                                                                                                                                                         01032300000000000000103230000000000000       0090339900006270031045032316000138
100000000000000000000009033990000627000000000000000000000000010002020007715303231400000000002            2  01077153032309032300000003780010000000001N010323000000000000000000000000000000000000000000000000000000000000000100007715360627NILTON RENNAN OLIVEIRA GOMES FILHO      RUA CARLOS JOSE BORSTENS - 50 AP.21 - AV            11702750                                                            000140
2SR. CAIXA, APOS O VENCIMENTO COBRAR 2% DE MULTA                                 NAO RECEBER APOS 30 DIAS DO VENCIMENTO.                                                                                                                                                                                                         01032300000000000000103230000000000000       0090339900006270077153032314000141
100000000000000000000009033990000627000000000000000000000000010002020007194003231500000000002            2  01071940032311032300000002686990000000001N010323000000000000000000000000000000000000000000000000000000000000000100007194010895RAUL AMANTINO KIRK DE SANCTIS           AVENIDA SANTA CATARINA - 756 AP.01 - VIL            04378000                                                            000143
2SR. CAIXA, APOS O VENCIMENTO COBRAR 2% DE MULTA                                 NAO RECEBER APOS 30 DIAS DO VENCIMENTO.                                                                                                                                                                                                         01032300000000000000103230000000000000       0090339900006270071940032315000144
100000000000000000000009033990000627000000000000000000000000010002020025738603231200000000002            2  01257386032309032300000005428920000000001N010323000000000000000000000000000000000000000000000000000000000000000100025738614810VILMAR JOSE PEREIRA                     ALAMEDA TIETE - 646 - CERQUEIRA CESAR -             01417020                                                            000146
2SR. CAIXA, APOS O VENCIMENTO COBRAR 2% DE MULTA                                 NAO RECEBER APOS 30 DIAS DO VENCIMENTO.                                                                                                                                                                                                         01032300000000000000103230000000000000       0090339900006270257386032312000147
100000000000000000000009033990000627000000000000000000000000010002020025738603232000000000002            2  01257386032309032300000005428890000000001N010323000000000000000000000000000000000000000000000000000000000000000100025738614810VILMAR JOSE PEREIRA                     ALAMEDA TIETE - 646 - CERQUEIRA CESAR -             01417020                                                            000149
2SR. CAIXA, APOS O VENCIMENTO COBRAR 2% DE MULTA                                 NAO RECEBER APOS 30 DIAS DO VENCIMENTO.                                                                                                                                                                                                         01032300000000000000103230000000000000       0090339900006270257386032320000150
100000000000000000000009033990000627000000000000000000000000010002020025738603233900000000002            2  01257386032309032300000005428900000000001N010323000000000000000000000000000000000000000000000000000000000000000100025738614810VILMAR JOSE PEREIRA                     ALAMEDA TIETE - 646 - CERQUEIRA CESAR -             01417020                                                            000152
2SR. CAIXA, APOS O VENCIMENTO COBRAR 2% DE MULTA                                 NAO RECEBER APOS 30 DIAS DO VENCIMENTO.                                                                                                                                                                                                         01032300000000000000103230000000000000       0090339900006270257386032339000153
100000000000000000000009033990000627000000000000000000000000010002020011141503231400000000002            2  01111415032311032300000002823540000000001N010323000000000000000000000000000000000000000000000000000000000000000100011141508869PAULO ROBERTO TUNES SILVA               RUA PETROBRAS - 405 CASA 07 - VILA ANTON            03474060                                                            000155
2SR. CAIXA, APOS O VENCIMENTO COBRAR 2% DE MULTA                                 NAO RECEBER APOS 30 DIAS DO VENCIMENTO.                                                                                                                                                                                                         01032300000000000000103230000000000000       0090339900006270111415032314000156
100000000000000000000009033990000627000000000000000000000000010002020012449103231P00000000002            2  01124491032311032300000002845090000000001N010323000000000000000000000000000000000000000000000000000000000000000100012449104810GILBERTO DOS SANTOS JUNIOR              RUA ALMIRANTE TAMANDARE - 89 AP.143 - BA            09310350                                                            000158
2SR. CAIXA, APOS O VENCIMENTO COBRAR 2% DE MULTA                                 NAO RECEBER APOS 30 DIAS DO VENCIMENTO.                                                                                                                                                                                                         01032300000000000000103230000000000000       009033990000627012449103231P000159
100000000000000000000009033990000627000000000000000000000000010002020011261303231800000000002            2  01112613032309032300000003752960000000001N010323000000000000000000000000000000000000000000000000000000000000000100011261359844JOVANETE DOS SANTOS PASSOS              RUA FULVIO MORGANTI - 672 - JARDIM PARAI            02417170                                                            000161
2SR. CAIXA, APOS O VENCIMENTO COBRAR 2% DE MULTA                                 NAO RECEBER APOS 30 DIAS DO VENCIMENTO.                                                                                                                                                                                                         01032300000000000000103230000000000000       0090339900006270112613032318000162
100000000000000000000009033990000627000000000000000000000000010002020036279303231700000000002            2  01362793032309032300000003336140000000001N010323000000000000000000000000000000000000000000000000000000000000000100036279398838BRUNO DOCINI ORTEGA                     RUA GENERAL EUCLIDES FIGUEIREDO - 146 AP            11700780                                                            000164
2SR. CAIXA, APOS O VENCIMENTO COBRAR 2% DE MULTA                                 NAO RECEBER APOS 30 DIAS DO VENCIMENTO.                                                                                                                                                                                                         01032300000000000000103230000000000000       0090339900006270362793032317000165
9                                                                                                                                                                                                                                                                                                                                                                                                         000166