01REMESSA01COBRANCA       00000000000005331186HB SANTOS CONSTRUTORA E INCORP237BRADESCO       091121        MX0000036                                                                                                                                                                                                                                                                                     000001
100000000000000000000009033990000995400000000000000000000000010002020005723211211P00000000002            2  01057232112123112100000002627960000000001N081121000000000000000000000000000000000000000000000000000000000000000100005723255843FRANCISCO DE ASSIS DA SILVA             PRACA NICOLAU GERAIGIRE - 25 VISOR - JAR            11095110                                                            000002
2SR. CAIXA, APOS O VENCIMENTO COBRAR 2% DE MULTA                                 NAO RECEBER APOS 30 DIAS DO VENCIMENTO.                                                                                                                                                                                                         09112100000000000000911210000000000000       009033990000995405723211211P000003
100000000000000000000009033990000995400000000000000000000000010002020004928111211400000000002            2  01049281112123112100000002569950000000001N081121000000000000000000000000000000000000000000000000000000000000000100004928157800ADEMIR APARECIDO ANTUNES                RUA JAIME TAVEIRA - 91 AP.056 B - CHACAR            03732060                                                            000005
2SR. CAIXA, APOS O VENCIMENTO COBRAR 2% DE MULTA                                 NAO RECEBER APOS 30 DIAS DO VENCIMENTO.                                                                                                                                                                                                         09112100000000000000911210000000000000       0090339900009954049281112114000006
100000000000000000000009033990000995400000000000000000000000010002020011238011211100000000002            2  01112380112123112100000002536620000000001N081121000000000000000000000000000000000000000000000000000000000000000100011238052886SOLANGE DIAS DE SOUZA ROMANO            AVENIDA DR. ALTINO ARANTES - 865 AP.132             04042034                                                            000008
2SR. CAIXA, APOS O VENCIMENTO COBRAR 2% DE MULTA                                 NAO RECEBER APOS 30 DIAS DO VENCIMENTO.                                                                                                                                                                                                         09112100000000000000911210000000000000       0090339900009954112380112111000009
100000000000000000000009033990000995400000000000000000000000010002020032589111211300000000002            2  01325891112123112100000002486620000000001N081121000000000000000000000000000000000000000000000000000000000000000100032589165862RENATA ISABEL MARTINS SILVA             RUA HERCULANO DE FREITAS - 257 - FUNDACA            09520280                                                            000011
2SR. CAIXA, APOS O VENCIMENTO COBRAR 2% DE MULTA                                 NAO RECEBER APOS 30 DIAS DO VENCIMENTO.                                                                                                                                                                                                         09112100000000000000911210000000000000       0090339900009954325891112113000012
100000000000000000000009033990000995400000000000000000000000010002020088339311211700000000002            2  01883393112123112100000002513560000000001N081121000000000000000000000000000000000000000000000000000000000000000100088339319868MARCIA SIQUEIRA MELLO                   RUA ADELINO ALVES - 81 - SANTO AMARO - S            04710120                                                            000014
2SR. CAIXA, APOS O VENCIMENTO COBRAR 2% DE MULTA                                 NAO RECEBER APOS 30 DIAS DO VENCIMENTO.                                                                                                                                                                                                         09112100000000000000911210000000000000       0090339900009954883393112117000015
100000000000000000000009033990000995400000000000000000000000010002020088339311212500000000002            2  01883393112123112100000002513550000000001N081121000000000000000000000000000000000000000000000000000000000000000100088339319868MARCIA SIQUEIRA MELLO                   RUA ADELINO ALVES - 81 - SANTO AMARO - S            04710120                                                            000017
2SR. CAIXA, APOS O VENCIMENTO COBRAR 2% DE MULTA                                 NAO RECEBER APOS 30 DIAS DO VENCIMENTO.                                                                                                                                                                                                         09112100000000000000911210000000000000       0090339900009954883393112125000018
100000000000000000000009033990000995400000000000000000000000010002020046391211211200000000002            2  01463912112123112100000002607460000000001N081121000000000000000000000000000000000000000000000000000000000000000100046391265810PAMELLA RODRIGUES DE OLIVEIRA           RUA AUGUSTA - 183 AP.301 BL.2A - VILA AU            07025130                                                            000020
2SR. CAIXA, APOS O VENCIMENTO COBRAR 2% DE MULTA                                 NAO RECEBER APOS 30 DIAS DO VENCIMENTO.                                                                                                                                                                                                         09112100000000000000911210000000000000       0090339900009954463912112112000021
100000000000000000000009033990000995400000000000000000000000010002020011498311211900000000002            2  01114983112123112100000001941050000000001N081121000000000000000000000000000000000000000000000000000000000000000100011498329837GERSON GERALDO DAS NEVES                RUA DOMINGOS DELGADO - 144 - VILA SOUZA             02881070                                                            000023
2SR. CAIXA, APOS O VENCIMENTO COBRAR 2% DE MULTA                                 NAO RECEBER APOS 30 DIAS DO VENCIMENTO.                                                                                                                                                                                                         09112100000000000000911210000000000000       0090339900009954114983112119000024
100000000000000000000009033990000995400000000000000000000000010002020068875611211700000000002            2  01688756112123112100000002574130000000001N081121000000000000000000000000000000000000000000000000000000000000000100068875673691ILDETE BATISTA NEIVA GOLFAR             RUA MARECHAL MAURICIO JOSE CARDOSO - 230            11700140                                                            000026
2SR. CAIXA, APOS O VENCIMENTO COBRAR 2% DE MULTA                                 NAO RECEBER APOS 30 DIAS DO VENCIMENTO.                                                                                                                                                                                                         09112100000000000000911210000000000000       0090339900009954688756112117000027
100000000000000000000009033990000995400000000000000000000000010002020000884211211000000000002            2  01008842112123112100000002364260000000001N081121000000000000000000000000000000000000000000000000000000000000000100000884239802ADEMIR MARTINS                          RUA CAIRO - 221 - VILA METALURGICA - SAN            09220170                                                            000029
2SR. CAIXA, APOS O VENCIMENTO COBRAR 2% DE MULTA                                 NAO RECEBER APOS 30 DIAS DO VENCIMENTO.                                                                                                                                                                                                         09112100000000000000911210000000000000       0090339900009954008842112110000030
100000000000000000000009033990000995400000000000000000000000010002020025214411211500000000002            2  01252144112123112100000002297600000000001N081121000000000000000000000000000000000000000000000000000000000000000100025214401833JOSE MAURICIO DOS SANTOS RODRIGUES      RUA JOAO DE MACEDO RIBEIRO - 49 - VILA N            08111101                                                            000032
2SR. CAIXA, APOS O VENCIMENTO COBRAR 2% DE MULTA                                 NAO RECEBER APOS 30 DIAS DO VENCIMENTO.                                                                                                                                                                                                         09112100000000000000911210000000000000       0090339900009954252144112115000033
100000000000000000000009033990000995400000000000000000000000010002020033119111211200000000002            2  01331191112123112100000002307330000000001N081121000000000000000000000000000000000000000000000000000000000000000100033119178802HUGO GOMES VENDRAME                     RUA SAO PAULO - 60 CASA 01 - VILA FREITA            06380110                                                            000035
2SR. CAIXA, APOS O VENCIMENTO COBRAR 2% DE MULTA                                 NAO RECEBER APOS 30 DIAS DO VENCIMENTO.                                                                                                                                                                                                         09112100000000000000911210000000000000       0090339900009954331191112112000036
100000000000000000000009033990000995400000000000000000000000010002020016631511211500000000002            2  01166315112123112100000002347590000000001N081121000000000000000000000000000000000000000000000000000000000000000100016631587468GILBERTO BEZERRA DA SILVA               AVENIDA JAIME TORRES - 745 CASA 3 - JARD            03670000                                                            000038
2SR. CAIXA, APOS O VENCIMENTO COBRAR 2% DE MULTA                                 NAO RECEBER APOS 30 DIAS DO VENCIMENTO.                                                                                                                                                                                                         09112100000000000000911210000000000000       0090339900009954166315112115000039
100000000000000000000009033990000995400000000000000000000000010002020007313211211800000000002            2  01073132112123112100000002330920000000001N081121000000000000000000000000000000000000000000000000000000000000000100007313251840SALVADOR GESUALDO PULVIRENTI            AVENIDA MARARI - 641 - VILA MARARI - SAO            04402010                                                            000041
2SR. CAIXA, APOS O VENCIMENTO COBRAR 2% DE MULTA                                 NAO RECEBER APOS 30 DIAS DO VENCIMENTO.                                                                                                                                                                                                         09112100000000000000911210000000000000       0090339900009954073132112118000042
100000000000000000000009033990000995400000000000000000000000010002020010676711211P00000000002            2  01106767112123112100000002432930000000001N081121000000000000000000000000000000000000000000000000000000000000000100010676723896MERCEDES CRISTINA ROCHA SANDOVAL        RUA ITARARE - 446 AP.806 - JARDIM GUILHE            11701620                                                            000044
2SR. CAIXA, APOS O VENCIMENTO COBRAR 2% DE MULTA                                 NAO RECEBER APOS 30 DIAS DO VENCIMENTO.                                                                                                                                                                                                         09112100000000000000911210000000000000       009033990000995410676711211P000045
100000000000000000000009033990000995400000000000000000000000010002020009502811211800000000002            2  01095028112123112100000002540790000000001N081121000000000000000000000000000000000000000000000000000000000000000100009502844831CLAUDIA ROCHA SANDOVAL                  RUA ABAETE - 29.153 - VILA TUPI - PRAIA             11703490                                                            000047
2SR. CAIXA, APOS O VENCIMENTO COBRAR 2% DE MULTA                                 NAO RECEBER APOS 30 DIAS DO VENCIMENTO.                                                                                                                                                                                                         09112100000000000000911210000000000000       0090339900009954095028112118000048
100000000000000000000009033990000995400000000000000000000000010002020007594211211700000000002            2  01075942112123112100000002280930000000001N081121000000000000000000000000000000000000000000000000000000000000000100007594247809JOSE LUIS DE OLIVEIRA                   DONA EGLANTINA PENTEADO DA SILVA PRADO -            13044162                                                            000050
2SR. CAIXA, APOS O VENCIMENTO COBRAR 2% DE MULTA                                 NAO RECEBER APOS 30 DIAS DO VENCIMENTO.                                                                                                                                                                                                         09112100000000000000911210000000000000       0090339900009954075942112117000051
100000000000000000000009033990000995400000000000000000000000010002020005288711211000000000002            2  01052887112123112100000002349600000000001N081121000000000000000000000000000000000000000000000000000000000000000100005288796858MARCELO RODRIGUES FERREIRA              RUA MARCOS ANTONIO MARQUES - 302 - JARDI            06433020                                                            000053
2SR. CAIXA, APOS O VENCIMENTO COBRAR 2% DE MULTA                                 NAO RECEBER APOS 30 DIAS DO VENCIMENTO.                                                                                                                                                                                                         09112100000000000000911210000000000000       0090339900009954052887112110000054
100000000000000000000009033990000995400000000000000000000000010002020015835911211P00000000002            2  01158359112123112100000002446770000000001N081121000000000000000000000000000000000000000000000000000000000000000100015835992823FLAVIO VERONEZ                          RUA ANDREA PAULINETTI - 127 AP.42 - BAIR            04707050                                                            000056
2SR. CAIXA, APOS O VENCIMENTO COBRAR 2% DE MULTA                                 NAO RECEBER APOS 30 DIAS DO VENCIMENTO.                                                                                                                                                                                                         09112100000000000000911210000000000000       009033990000995415835911211P000057
100000000000000000000009033990000995400000000000000000000000010002020000438111211800000000002            2  01004381112123112100000002761740000000001N081121000000000000000000000000000000000000000000000000000000000000000100000438161858WAGNECY VILLA NOVA LIEN                 MACHADO - 106 - VILA AUGUSTA - GUARULHOS            07025210                                                            000059
2SR. CAIXA, APOS O VENCIMENTO COBRAR 2% DE MULTA                                 NAO RECEBER APOS 30 DIAS DO VENCIMENTO.                                                                                                                                                                                                         09112100000000000000911210000000000000       0090339900009954004381112118000060
100000000000000000000009033990000995400000000000000000000000010002020026004511211400000000002            2  01260045112123112100000002446810000000001N081121000000000000000000000000000000000000000000000000000000000000000100026004595888EDIVALDO BEZERRA DA SILVA               AVENIDA GUATEMALA - 550 - JARDIM PINHEIR            09854750                                                            000062
2SR. CAIXA, APOS O VENCIMENTO COBRAR 2% DE MULTA                                 NAO RECEBER APOS 30 DIAS DO VENCIMENTO.                                                                                                                                                                                                         09112100000000000000911210000000000000       0090339900009954260045112114000063
100000000000000000000009033990000995400000000000000000000000010002020012470711211900000000002            2  01124707112123112100000002610560000000001N081121000000000000000000000000000000000000000000000000000000000000000100012470771870HILTON FERNANDES OLIVARES               RUA PATIO DA ESTACAO - 115 - BAIRRO CENT            09450000                                                            000065
2SR. CAIXA, APOS O VENCIMENTO COBRAR 2% DE MULTA                                 NAO RECEBER APOS 30 DIAS DO VENCIMENTO.                                                                                                                                                                                                         09112100000000000000911210000000000000       0090339900009954124707112119000066
100000000000000000000009033990000995400000000000000000000000010002020014025411211800000000002            2  01140254112123112100000002862420000000001N081121000000000000000000000000000000000000000000000000000000000000000100014025420899ANDREIA APARECIDA TAVARES BASTOS        RUA IBATIBA - 234 CASA 27 - RES.BOUGANVI            09220608                                                            000068
2SR. CAIXA, APOS O VENCIMENTO COBRAR 2% DE MULTA                                 NAO RECEBER APOS 30 DIAS DO VENCIMENTO.                                                                                                                                                                                                         09112100000000000000911210000000000000       0090339900009954140254112118000069
100000000000000000000009033990000995400000000000000000000000010002020018590011211700000000002            2  01185900112123112100000010000000000000001N081121000000000000000000000000000000000000000000000000000000000000000100018590038858JOSE SANDRO ROCHA SILVA                 RUA SANTO ANTONIO DO AVENTUREIRO - 216 A            07143040                                                            000071
2SR. CAIXA, APOS O VENCIMENTO COBRAR 2% DE MULTA                                 NAO RECEBER APOS 30 DIAS DO VENCIMENTO.                                                                                                                                                                                                         09112100000000000000911210000000000000       0090339900009954185900112117000072
100000000000000000000009033990000995400000000000000000000000010002020018590011212500000000002            2  01185900112123112100000002592340000000001N081121000000000000000000000000000000000000000000000000000000000000000100018590038858JOSE SANDRO ROCHA SILVA                 RUA SANTO ANTONIO DO AVENTUREIRO - 216 A            07143040                                                            000074
2SR. CAIXA, APOS O VENCIMENTO COBRAR 2% DE MULTA                                 NAO RECEBER APOS 30 DIAS DO VENCIMENTO.                                                                                                                                                                                                         09112100000000000000911210000000000000       0090339900009954185900112125000075
100000000000000000000009033990000995400000000000000000000000010002020088578711211500000000002            2  01885787112123112100000002133110000000001N081121000000000000000000000000000000000000000000000000000000000000000100088578704800GILBERTO DO ESPIRITO SANTO SILVA        RUA GUARANY - 697 CASA 01 - PARQUE SAO V            11360000                                                            000077
2SR. CAIXA, APOS O VENCIMENTO COBRAR 2% DE MULTA                                 NAO RECEBER APOS 30 DIAS DO VENCIMENTO.                                                                                                                                                                                                         09112100000000000000911210000000000000       0090339900009954885787112115000078
100000000000000000000009033990000995400000000000000000000000010002020015378211211600000000002            2  01153782112123112100000003187500000000001N081121000000000000000000000000000000000000000000000000000000000000000100015378295807SERGIO FERNANDES                        RUA VALDEMAR MARTINS - 116 AP.115 - BAIR            02535000                                                            000080
2SR. CAIXA, APOS O VENCIMENTO COBRAR 2% DE MULTA                                 NAO RECEBER APOS 30 DIAS DO VENCIMENTO.                                                                                                                                                                                                         09112100000000000000911210000000000000       0090339900009954153782112116000081
100000000000000000000009033990000995400000000000000000000000010002020020792711211200000000002            2  01207927112123112100000002644830000000001N081121000000000000000000000000000000000000000000000000000000000000000120792791000147TROVAO COMERCIO DE ALIMENTOS LTDA-ME    RUA QUINTA DA MAGNOLIA - 67 - JARDIM IPA            03582100                                                            000083
2SR. CAIXA, APOS O VENCIMENTO COBRAR 2% DE MULTA                                 NAO RECEBER APOS 30 DIAS DO VENCIMENTO.                                                                                                                                                                                                         09112100000000000000911210000000000000       0090339900009954207927112112000084
100000000000000000000009033990000995400000000000000000000000010002020007648111211600000000002            2  01076481112123112100000002483540000000001N081121000000000000000000000000000000000000000000000000000000000000000100007648112825MARA REGINA CAPRIO                      RUA DA TRINDADE - 790 - VILA IDEAL - SAO            15060280                                                            000086
2SR. CAIXA, APOS O VENCIMENTO COBRAR 2% DE MULTA                                 NAO RECEBER APOS 30 DIAS DO VENCIMENTO.                                                                                                                                                                                                         09112100000000000000911210000000000000       0090339900009954076481112116000087
100000000000000000000009033990000995400000000000000000000000010002020031157411211500000000002            2  01311574112123112100000002666670000000001N081121000000000000000000000000000000000000000000000000000000000000000100031157420885TALITA ANICHIARICO COSSI                RUA CNEO POMPEO DE CAMARGO - 817 - JARDI            13060150                                                            000089
2SR. CAIXA, APOS O VENCIMENTO COBRAR 2% DE MULTA                                 NAO RECEBER APOS 30 DIAS DO VENCIMENTO.                                                                                                                                                                                                         09112100000000000000911210000000000000       0090339900009954311574112115000090
100000000000000000000009033990000995400000000000000000000000010002020035572511211P00000000002            2  01355725112123112100000002835290000000001N081121000000000000000000000000000000000000000000000000000000000000000100035572536865MARIA SIMONE SANTOS                     RUA JOSE PEZZOLO - 68 - VILA ELDIZIA - S            09181660                                                            000092
2SR. CAIXA, APOS O VENCIMENTO COBRAR 2% DE MULTA                                 NAO RECEBER APOS 30 DIAS DO VENCIMENTO.                                                                                                                                                                                                         09112100000000000000911210000000000000       009033990000995435572511211P000093
100000000000000000000009033990000995400000000000000000000000010002020008800311211700000000002            2  01088003112123112100000002583330000000001N081121000000000000000000000000000000000000000000000000000000000000000100008800368425INGO DIMITRI PEREIRA DA NOBREGA         RUA PROFESSOR MENDES PIMENTEL - 362 - JA            03973010                                                            000095
2SR. CAIXA, APOS O VENCIMENTO COBRAR 2% DE MULTA                                 NAO RECEBER APOS 30 DIAS DO VENCIMENTO.                                                                                                                                                                                                         09112100000000000000911210000000000000       0090339900009954088003112117000096
9                                                                                                                                                                                                                                                                                                                                                                                                         000097