01REMESSA01COBRANCA       00000000000008017025HB SANTOS CONSTRUTORA E INCORP237BRADESCO       010423        MX0000174                                                                                                                                                                                                                                                                                     000001
100000000000000000000009033990000627000000000000000000000000010002020016479004231500000000002            2  01164790042309042300000005307440000000001N010423000000000000000000000000000000000000000000000000000000000000000100016479002806LOURDES PEREIRA DE QUEIROZ SECANECHIA   RUA PAULINO CURSI - 437 - CIDADE SAO MAT            03960060                                                            000002
2SR. CAIXA, APOS O VENCIMENTO COBRAR 2% DE MULTA                                 NAO RECEBER APOS 30 DIAS DO VENCIMENTO.                                                                                                                                                                                                         01042300000000000000104230000000000000       0090339900006270164790042315000003
100000000000000000000009033990000627000000000000000000000000010002020017229704232500000000002            2  01172297042309042300000004038910000000001N010423000000000000000000000000000000000000000000000000000000000000000100017229751802BERENICE VIEIRA KERSTING                RUA ATIBAIA - 17 AP.417 - BAIRRO IMPERAD            11707380                                                            000005
2SR. CAIXA, APOS O VENCIMENTO COBRAR 2% DE MULTA                                 NAO RECEBER APOS 30 DIAS DO VENCIMENTO.                                                                                                                                                                                                         01042300000000000000104230000000000000       0090339900006270172297042325000006
100000000000000000000009033990000627000000000000000000000000010002020009361404231200000000002            2  01093614042309042300000003853200000000001N010423000000000000000000000000000000000000000000000000000000000000000100009361471805JOSE BARBOSA DA SILVA                   RUA ALFREDO INACIO TRINDADE  - 60 AP.44             02344100                                                            000008
2SR. CAIXA, APOS O VENCIMENTO COBRAR 2% DE MULTA                                 NAO RECEBER APOS 30 DIAS DO VENCIMENTO.                                                                                                                                                                                                         01042300000000000000104230000000000000       0090339900006270093614042312000009
100000000000000000000009033990000627000000000000000000000000010002020012756904231600000000002            2  01127569042309042300000003326160000000001N010423000000000000000000000000000000000000000000000000000000000000000100012756959812ITAMAR JUVENAL DIAS DA SILVA            RUA ELISEU REINALDO MORAES VIEIRA - 90 A            02858000                                                            000011
2SR. CAIXA, APOS O VENCIMENTO COBRAR 2% DE MULTA                                 NAO RECEBER APOS 30 DIAS DO VENCIMENTO.                                                                                                                                                                                                         01042300000000000000104230000000000000       0090339900006270127569042316000012
100000000000000000000009033990000627000000000000000000000000010002020029433604231P00000000002            2  01294336042311042300000002757660000000001N010423000000000000000000000000000000000000000000000000000000000000000100029433631897MARIO MUNIZ                             RUA JOSE CALIXTO DO CARMO - 286 AP.53 -             11702690                                                            000014
2SR. CAIXA, APOS O VENCIMENTO COBRAR 2% DE MULTA                                 NAO RECEBER APOS 30 DIAS DO VENCIMENTO.                                                                                                                                                                                                         01042300000000000000104230000000000000       009033990000627029433604231P000015
100000000000000000000009033990000627000000000000000000000000010002020005029804231200000000002            2  01050298042309042300000003391210000000001N010423000000000000000000000000000000000000000000000000000000000000000100005029828885LAURINETE DA CONCEICAO DE NORONHA       RUA MARIA LUCIA DE TOLEDO LEITE MORAES -            04434040                                                            000017
2SR. CAIXA, APOS O VENCIMENTO COBRAR 2% DE MULTA                                 NAO RECEBER APOS 30 DIAS DO VENCIMENTO.                                                                                                                                                                                                         01042300000000000000104230000000000000       0090339900006270050298042312000018
100000000000000000000009033990000627000000000000000000000000010002020013388904231400000000002            2  01133889042311042300000002688270000000001N010423000000000000000000000000000000000000000000000000000000000000000100013388936889NEUTON DE SOUZA RAMOS                   RUA JOSE CALIXTO DO CARMO - 286 AP.61 -             11702690                                                            000020
2SR. CAIXA, APOS O VENCIMENTO COBRAR 2% DE MULTA                                 NAO RECEBER APOS 30 DIAS DO VENCIMENTO.                                                                                                                                                                                                         01042300000000000000104230000000000000       0090339900006270133889042314000021
100000000000000000000009033990000627000000000000000000000000010002020012774904231400000000002            2  01127749042311042300000002738760000000001N010423000000000000000000000000000000000000000000000000000000000000000100012774906865JOSE MILTON SANTIAGO                    RUA BATATAIS - 47 - CIDADE ESTELA - POA             08563140                                                            000023
2SR. CAIXA, APOS O VENCIMENTO COBRAR 2% DE MULTA                                 NAO RECEBER APOS 30 DIAS DO VENCIMENTO.                                                                                                                                                                                                         01042300000000000000104230000000000000       0090339900006270127749042314000024
100000000000000000000009033990000627000000000000000000000000010002020005613804231400000000002            2  01056138042311042300000002518890000000001N010423000000000000000000000000000000000000000000000000000000000000000100005613843805NILZA MARIA DE OLIVEIRA                 RUA JOSE GONCALVES DE FREITAS - 66 C2 -             08210550                                                            000026
2SR. CAIXA, APOS O VENCIMENTO COBRAR 2% DE MULTA                                 NAO RECEBER APOS 30 DIAS DO VENCIMENTO.                                                                                                                                                                                                         01042300000000000000104230000000000000       0090339900006270056138042314000027
100000000000000000000009033990000627000000000000000000000000010002020007574904231400000000002            2  01075749042311042300000002585580000000001N010423000000000000000000000000000000000000000000000000000000000000000100007574936889JORGE LUCIANO PEREIRA BORRIELLO         RUA JOSE CALIXTO DO CARMO - 286 AP.54 -             11702690                                                            000029
2SR. CAIXA, APOS O VENCIMENTO COBRAR 2% DE MULTA                                 NAO RECEBER APOS 30 DIAS DO VENCIMENTO.                                                                                                                                                                                                         01042300000000000000104230000000000000       0090339900006270075749042314000030
100000000000000000000009033990000627000000000000000000000000010002020008214904231700000000002            2  01082149042311042300000002624810000000001N010423000000000000000000000000000000000000000000000000000000000000000100008214973830JAMIL CHALA                             RUA JOSE CALIXTO DO CARMO - 286 AP.22 -             11702690                                                            000032
2SR. CAIXA, APOS O VENCIMENTO COBRAR 2% DE MULTA                                 NAO RECEBER APOS 30 DIAS DO VENCIMENTO.                                                                                                                                                                                                         01042300000000000000104230000000000000       0090339900006270082149042317000033
100000000000000000000009033990000627000000000000000000000000010002020032495004231400000000002            2  01324950042311042300000002941440000000001N010423000000000000000000000000000000000000000000000000000000000000000100032495004881PAULO EDUARDO DOS SANTOS                RUA REPUBLICA DO IRAQUE - 1119 - CAMPO B            04611002                                                            000035
2SR. CAIXA, APOS O VENCIMENTO COBRAR 2% DE MULTA                                 NAO RECEBER APOS 30 DIAS DO VENCIMENTO.                                                                                                                                                                                                         01042300000000000000104230000000000000       0090339900006270324950042314000036
100000000000000000000009033990000627000000000000000000000000010002020016498004231100000000002            2  01164980042311042300000002579710000000001N010423000000000000000000000000000000000000000000000000000000000000000100016498053810GILMA CEZARIO GARCIA CORRITORI          RUA LAURENTINO XAVIER DOS SANTOS - 336 -            08240740                                                            000038
2SR. CAIXA, APOS O VENCIMENTO COBRAR 2% DE MULTA                                 NAO RECEBER APOS 30 DIAS DO VENCIMENTO.                                                                                                                                                                                                         01042300000000000000104230000000000000       0090339900006270164980042311000039
100000000000000000000009033990000627000000000000000000000000010002020029339004231000000000002            2  01293390042311042300000002758570000000001N010423000000000000000000000000000000000000000000000000000000000000000100029339051831RONALD DIDOFF                           RUA CORONEL FERREIRA BRAGA - 188 - VILA             03522010                                                            000041
2SR. CAIXA, APOS O VENCIMENTO COBRAR 2% DE MULTA                                 NAO RECEBER APOS 30 DIAS DO VENCIMENTO.                                                                                                                                                                                                         01042300000000000000104230000000000000       0090339900006270293390042310000042
100000000000000000000009033990000627000000000000000000000000010002020017357804231200000000002            2  01173578042311042300000002921570000000001N010423000000000000000000000000000000000000000000000000000000000000000100017357859894MARCIO GUIMARAES                        RUA GENERAL CAMARA - 188 SALA 11 - CENTR            11010120                                                            000044
2SR. CAIXA, APOS O VENCIMENTO COBRAR 2% DE MULTA                                 NAO RECEBER APOS 30 DIAS DO VENCIMENTO.                                                                                                                                                                                                         01042300000000000000104230000000000000       0090339900006270173578042312000045
100000000000000000000009033990000627000000000000000000000000010002020010563004231200000000002            2  01105630042311042300000002996250000000001N010423000000000000000000000000000000000000000000000000000000000000000100010563033878VERA LUCIA RIBEIRO LONGANEZI            RUA DOS CAMARES - 150 AP.24 BL.02 - CARA            02068030                                                            000047
2SR. CAIXA, APOS O VENCIMENTO COBRAR 2% DE MULTA                                 NAO RECEBER APOS 30 DIAS DO VENCIMENTO.                                                                                                                                                                                                         01042300000000000000104230000000000000       0090339900006270105630042312000048
100000000000000000000009033990000627000000000000000000000000010002020005529604231700000000002            2  01055296042311042300000002718990000000001N010423000000000000000000000000000000000000000000000000000000000000000100005529616801JOAQUIM JORGE DA COSTA                  RUA JOSE CALIXTO DO CARMO - 286 AP.106 -            11702690                                                            000050
2SR. CAIXA, APOS O VENCIMENTO COBRAR 2% DE MULTA                                 NAO RECEBER APOS 30 DIAS DO VENCIMENTO.                                                                                                                                                                                                         01042300000000000000104230000000000000       0090339900006270055296042317000051
100000000000000000000009033990000627000000000000000000000000010002020015550704231300000000002            2  01155507042309042300000002570530000000001N010423000000000000000000000000000000000000000000000000000000000000000100015550706806MARY MIWA                               RUA CARLOS JOSE BORSTENS - 50 AP.105 - A            11702750                                                            000053
2SR. CAIXA, APOS O VENCIMENTO COBRAR 2% DE MULTA                                 NAO RECEBER APOS 30 DIAS DO VENCIMENTO.                                                                                                                                                                                                         01042300000000000000104230000000000000       0090339900006270155507042313000054
100000000000000000000009033990000627000000000000000000000000010002020015464604231300000000002            2  01154646042311042300000002858300000000001N010423000000000000000000000000000000000000000000000000000000000000000100015464647864SONIA TERESA VOLPATO                    RUA JOSE CALIXTO DO CARMO - 286 AP.73 -             11702690                                                            000056
2SR. CAIXA, APOS O VENCIMENTO COBRAR 2% DE MULTA                                 NAO RECEBER APOS 30 DIAS DO VENCIMENTO.                                                                                                                                                                                                         01042300000000000000104230000000000000       0090339900006270154646042313000057
100000000000000000000009033990000627000000000000000000000000010002020008657804231200000000002            2  01086578042311042300000002829610000000001N010423000000000000000000000000000000000000000000000000000000000000000100008657886855ARLINDO DA CRUZ                         AVENIDA ARICANDUVA - 8.256 AP.54 BL.10 -            03951220                                                            000059
2SR. CAIXA, APOS O VENCIMENTO COBRAR 2% DE MULTA                                 NAO RECEBER APOS 30 DIAS DO VENCIMENTO.                                                                                                                                                                                                         01042300000000000000104230000000000000       0090339900006270086578042312000060
100000000000000000000009033990000627000000000000000000000000010002020059735104231000000000002            2  01597351042309042300000001599810000000001N010423000000000000000000000000000000000000000000000000000000000000000100059735180863HELIO JOSE MARQUES                      RUA MARTIM AFONSO DE SOUZA - 1007 AP.102            11702790                                                            000062
2SR. CAIXA, APOS O VENCIMENTO COBRAR 2% DE MULTA                                 NAO RECEBER APOS 30 DIAS DO VENCIMENTO.                                                                                                                                                                                                         01042300000000000000104230000000000000       0090339900006270597351042310000063
100000000000000000000009033990000627000000000000000000000000010002020026347804231400000000002            2  01263478042311042300000003024770000000001N010423000000000000000000000000000000000000000000000000000000000000000100026347872862VALDECI SILVA MEIRELES                  RUA JOSE BATISTA DA SILVA - 292 - JARDIM            06851470                                                            000065
2SR. CAIXA, APOS O VENCIMENTO COBRAR 2% DE MULTA                                 NAO RECEBER APOS 30 DIAS DO VENCIMENTO.                                                                                                                                                                                                         01042300000000000000104230000000000000       0090339900006270263478042314000066
100000000000000000000009033990000627000000000000000000000000010002020013135204231500000000002            2  01131352042311042300000002778990000000001N010423000000000000000000000000000000000000000000000000000000000000000100013135261859EDUARDO ZANOLA                          RUA ROLANDO PIETRO BONINI - 46 - JARDIM             09781040                                                            000068
2SR. CAIXA, APOS O VENCIMENTO COBRAR 2% DE MULTA                                 NAO RECEBER APOS 30 DIAS DO VENCIMENTO.                                                                                                                                                                                                         01042300000000000000104230000000000000       0090339900006270131352042315000069
100000000000000000000009033990000627000000000000000000000000010002020009797604231600000000002            2  01097976042311042300000002706430000000001N010423000000000000000000000000000000000000000000000000000000000000000100009797626857RICARDO SOBRAL DE OLIVEIRA              RUA 23 DE MAIO - 139 AP.32 - VILA MIRIM             11704690                                                            000071
2SR. CAIXA, APOS O VENCIMENTO COBRAR 2% DE MULTA                                 NAO RECEBER APOS 30 DIAS DO VENCIMENTO.                                                                                                                                                                                                         01042300000000000000104230000000000000       0090339900006270097976042316000072
100000000000000000000009033990000627000000000000000000000000010002020022728404231700000000002            2  01227284042311042300000002928560000000001N010423000000000000000000000000000000000000000000000000000000000000000100022728497842WILLIAN DE SOUZA MELLO                  RUA JOSE CALIXTO DO CARMO - 286 AP.111 -            11702690                                                            000074
2SR. CAIXA, APOS O VENCIMENTO COBRAR 2% DE MULTA                                 NAO RECEBER APOS 30 DIAS DO VENCIMENTO.                                                                                                                                                                                                         01042300000000000000104230000000000000       0090339900006270227284042317000075
100000000000000000000009033990000627000000000000000000000000010002020016909704231100000000002            2  01169097042311042300000002587930000000001N010423000000000000000000000000000000000000000000000000000000000000000100016909746805EDIVALDO SANTANA DOS SANTOS             ESTRADA JOAO GASPAR DELGADO - 80 AP.213             08536100                                                            000077
2SR. CAIXA, APOS O VENCIMENTO COBRAR 2% DE MULTA                                 NAO RECEBER APOS 30 DIAS DO VENCIMENTO.                                                                                                                                                                                                         01042300000000000000104230000000000000       0090339900006270169097042311000078
100000000000000000000009033990000627000000000000000000000000010002020022036004231900000000002            2  01220360042309042300000004018420000000001N010423000000000000000000000000000000000000000000000000000000000000000100022036003818DERLIS TERAN QUIROGA ROGATO             RUA JOAO RIBEIRO - 320 AP.131SB - CAMPES            09070250                                                            000080
2SR. CAIXA, APOS O VENCIMENTO COBRAR 2% DE MULTA                                 NAO RECEBER APOS 30 DIAS DO VENCIMENTO.                                                                                                                                                                                                         01042300000000000000104230000000000000       0090339900006270220360042319000081
100000000000000000000009033990000627000000000000000000000000010002020017229704233300000000002            2  01172297042309042300000003878130000000001N010423000000000000000000000000000000000000000000000000000000000000000100017229751802BERENICE VIEIRA KERSTING                RUA ATIBAIA - 17 AP.417 - BAIRRO IMPERAD            11707380                                                            000083
2SR. CAIXA, APOS O VENCIMENTO COBRAR 2% DE MULTA                                 NAO RECEBER APOS 30 DIAS DO VENCIMENTO.                                                                                                                                                                                                         01042300000000000000104230000000000000       0090339900006270172297042333000084
100000000000000000000009033990000627000000000000000000000000010002020012475604231200000000002            2  01124756042311042300000002805200000000001N010423000000000000000000000000000000000000000000000000000000000000000100012475663820CELIDALVA GOES DE CARVALHO              RUA JOSE CALIXTO DO CARMO - 286 AP.91 -             11702690                                                            000086
2SR. CAIXA, APOS O VENCIMENTO COBRAR 2% DE MULTA                                 NAO RECEBER APOS 30 DIAS DO VENCIMENTO.                                                                                                                                                                                                         01042300000000000000104230000000000000       0090339900006270124756042312000087
100000000000000000000009033990000627000000000000000000000000010002020033451604231P00000000002            2  01334516042311042300000002342520000000001N010423000000000000000000000000000000000000000000000000000000000000000100033451620839ARAO ELISIARIO  NUNES                   RUA JOSE CALIXTO DO CARMO - 286 AP.64 -             11702690                                                            000089
2SR. CAIXA, APOS O VENCIMENTO COBRAR 2% DE MULTA                                 NAO RECEBER APOS 30 DIAS DO VENCIMENTO.                                                                                                                                                                                                         01042300000000000000104230000000000000       009033990000627033451604231P000090
100000000000000000000009033990000627000000000000000000000000010002020011369104231800000000002            2  01113691042311042300000002558920000000001N010423000000000000000000000000000000000000000000000000000000000000000100011369165803ELIANA CORREA DE OLIVEIRA               RUA MAESTRO ZEFERINO SANTANA - 65 - VILA            18040010                                                            000092
2SR. CAIXA, APOS O VENCIMENTO COBRAR 2% DE MULTA                                 NAO RECEBER APOS 30 DIAS DO VENCIMENTO.                                                                                                                                                                                                         01042300000000000000104230000000000000       0090339900006270113691042318000093
100000000000000000000009033990000627000000000000000000000000010002020002253804231100000000002            2  01022538042311042300000002274370000000001N010423000000000000000000000000000000000000000000000000000000000000000100002253816809EDMILSON ALVES DA SILVA                 RUA JOSE CALIXTO DO CARMO - 286 AP.93 -             11702690                                                            000095
2SR. CAIXA, APOS O VENCIMENTO COBRAR 2% DE MULTA                                 NAO RECEBER APOS 30 DIAS DO VENCIMENTO.                                                                                                                                                                                                         01042300000000000000104230000000000000       0090339900006270022538042311000096
100000000000000000000009033990000627000000000000000000000000010002020037947004231300000000002            2  01379470042311042300000004039440000000001N010423000000000000000000000000000000000000000000000000000000000000000100037947070873BRUNO DE CAETANO MARRINHAS              AVENIDA GENERAL BARRETO DE MENEZES - 323            09791150                                                            000098
2SR. CAIXA, APOS O VENCIMENTO COBRAR 2% DE MULTA                                 NAO RECEBER APOS 30 DIAS DO VENCIMENTO.                                                                                                                                                                                                         01042300000000000000104230000000000000       0090339900006270379470042313000099
100000000000000000000009033990000627000000000000000000000000010002020037517704231100000000002            2  01375177042309042300000004262180000000001N010423000000000000000000000000000000000000000000000000000000000000000100037517785869RENATO JOSE DE LIMA MELO                RUA ARISTIDES LOBO - 148 AP.41 BLOCO 03             03041100                                                            000101
2SR. CAIXA, APOS O VENCIMENTO COBRAR 2% DE MULTA                                 NAO RECEBER APOS 30 DIAS DO VENCIMENTO.                                                                                                                                                                                                         01042300000000000000104230000000000000       0090339900006270375177042311000102
100000000000000000000009033990000627000000000000000000000000010002020070367904231200000000002            2  01703679042311042300000004011920000000001N010423000000000000000000000000000000000000000000000000000000000000000100070367949849TEODOMIRO ALVES DOS SANTOS              RUA ANDRE PAZ - 13 - JARDIM SANTO ANDRE             08390230                                                            000104
2SR. CAIXA, APOS O VENCIMENTO COBRAR 2% DE MULTA                                 NAO RECEBER APOS 30 DIAS DO VENCIMENTO.                                                                                                                                                                                                         01042300000000000000104230000000000000       0090339900006270703679042312000105
100000000000000000000009033990000627000000000000000000000000010002020070367904232000000000002            2  01703679042311042300000002135780000000001N010423000000000000000000000000000000000000000000000000000000000000000100070367949849TEODOMIRO ALVES DOS SANTOS              RUA ANDRE PAZ - 13 - JARDIM SANTO ANDRE             08390230                                                            000107
2SR. CAIXA, APOS O VENCIMENTO COBRAR 2% DE MULTA                                 NAO RECEBER APOS 30 DIAS DO VENCIMENTO.                                                                                                                                                                                                         01042300000000000000104230000000000000       0090339900006270703679042320000108
100000000000000000000009033990000627000000000000000000000000010002020004410804231100000000002            2  01044108042309042300000003166850000000001N010423000000000000000000000000000000000000000000000000000000000000000100004410802860LUIZ ALBERTO MARINHO                    RUA DA INDEPENDENCIA - 706 AP.41B - CAMB            01524000                                                            000110
2SR. CAIXA, APOS O VENCIMENTO COBRAR 2% DE MULTA                                 NAO RECEBER APOS 30 DIAS DO VENCIMENTO.                                                                                                                                                                                                         01042300000000000000104230000000000000       0090339900006270044108042311000111
100000000000000000000009033990000627000000000000000000000000010002020004767604231700000000002            2  01047676042309042300000004227640000000001N010423000000000000000000000000000000000000000000000000000000000000000100004767679893ORLANDO GRANDE FILHO                    RUA ORLANDO MIGLIARI - 101 - JARDIM OURO            19906140                                                            000113
2SR. CAIXA, APOS O VENCIMENTO COBRAR 2% DE MULTA                                 NAO RECEBER APOS 30 DIAS DO VENCIMENTO.                                                                                                                                                                                                         01042300000000000000104230000000000000       0090339900006270047676042317000114
100000000000000000000009033990000627000000000000000000000000010002020064677804231200000000002            2  01646778042309042300000003400820000000001N010423000000000000000000000000000000000000000000000000000000000000000100064677850887ANTONIO CARLOS DE OLIVEIRA              RUA DR.ANTONIO MAZILLI FILHO - 435 - PAR            02230070                                                            000116
2SR. CAIXA, APOS O VENCIMENTO COBRAR 2% DE MULTA                                 NAO RECEBER APOS 30 DIAS DO VENCIMENTO.                                                                                                                                                                                                         01042300000000000000104230000000000000       0090339900006270646778042312000117
100000000000000000000009033990000627000000000000000000000000010002020007328904231800000000002            2  01073289042309042300000004149210000000001N010423000000000000000000000000000000000000000000000000000000000000000100007328927836BENEDITO APARECIDO ROCHA                AVENIDA SENADOR JOSE ERMINIO DE MORAES -            02357002                                                            000119
2SR. CAIXA, APOS O VENCIMENTO COBRAR 2% DE MULTA                                 NAO RECEBER APOS 30 DIAS DO VENCIMENTO.                                                                                                                                                                                                         01042300000000000000104230000000000000       0090339900006270073289042318000120
100000000000000000000009033990000627000000000000000000000000010002020028082604231700000000002            2  01280826042311042300000002371230000000001N010423000000000000000000000000000000000000000000000000000000000000000100028082615869PRISCILA PEREIRA                        ALAMEDA AFONSO BOCCHIGLIERI - 184 - INTE            04445130                                                            000122
2SR. CAIXA, APOS O VENCIMENTO COBRAR 2% DE MULTA                                 NAO RECEBER APOS 30 DIAS DO VENCIMENTO.                                                                                                                                                                                                         01042300000000000000104230000000000000       0090339900006270280826042317000123
100000000000000000000009033990000627000000000000000000000000010002020058488604231500000000002            2  01584886042309042300000003101810000000001N010423000000000000000000000000000000000000000000000000000000000000000100058488618972ADAILTON ZANUTTO MORESCHI               R:RAPHAEL UNGARO - COND.RESERVA SERRA Q.            13212138                                                            000125
2SR. CAIXA, APOS O VENCIMENTO COBRAR 2% DE MULTA                                 NAO RECEBER APOS 30 DIAS DO VENCIMENTO.                                                                                                                                                                                                         01042300000000000000104230000000000000       0090339900006270584886042315000126
100000000000000000000009033990000627000000000000000000000000010002020002196004231P00000000002            2  01021960042311042300000002332510000000001N010423000000000000000000000000000000000000000000000000000000000000000100002196012831VILEFORT DIAS BORGES                    RUA PORTO XAVIER - 189 AP.64 - VILA CARM            08210170                                                            000128
2SR. CAIXA, APOS O VENCIMENTO COBRAR 2% DE MULTA                                 NAO RECEBER APOS 30 DIAS DO VENCIMENTO.                                                                                                                                                                                                         01042300000000000000104230000000000000       009033990000627002196004231P000129
100000000000000000000009033990000627000000000000000000000000010002020031861504231800000000002            2  01318615042311042300000002424360000000001N010423000000000000000000000000000000000000000000000000000000000000000100031861586809VANIA TOMAZ                              -  -  -  -                                         00000000                                                            000131
2SR. CAIXA, APOS O VENCIMENTO COBRAR 2% DE MULTA                                 NAO RECEBER APOS 30 DIAS DO VENCIMENTO.                                                                                                                                                                                                         01042300000000000000104230000000000000       0090339900006270318615042318000132
100000000000000000000009033990000627000000000000000000000000010002020003104504231100000000002            2  01031045042309042300000009029260000000001N010423000000000000000000000000000000000000000000000000000000000000000100003104580804NELSON RODRIGUES                        RUA CARLOS JOSE BORSTENS - 50 AP.81 - AV            11702750                                                            000134
2SR. CAIXA, APOS O VENCIMENTO COBRAR 2% DE MULTA                                 NAO RECEBER APOS 30 DIAS DO VENCIMENTO.                                                                                                                                                                                                         01042300000000000000104230000000000000       0090339900006270031045042311000135
100000000000000000000009033990000627000000000000000000000000010002020007715304231P00000000002            2  01077153042309042300000003814860000000001N010423000000000000000000000000000000000000000000000000000000000000000100007715360627NILTON RENNAN OLIVEIRA GOMES FILHO      RUA CARLOS JOSE BORSTENS - 50 AP.21 - AV            11702750                                                            000137
2SR. CAIXA, APOS O VENCIMENTO COBRAR 2% DE MULTA                                 NAO RECEBER APOS 30 DIAS DO VENCIMENTO.                                                                                                                                                                                                         01042300000000000000104230000000000000       009033990000627007715304231P000138
100000000000000000000009033990000627000000000000000000000000010002020007194004231000000000002            2  01071940042311042300000002711030000000001N010423000000000000000000000000000000000000000000000000000000000000000100007194010895RAUL AMANTINO KIRK DE SANCTIS           AVENIDA SANTA CATARINA - 756 AP.01 - VIL            04378000                                                            000140
2SR. CAIXA, APOS O VENCIMENTO COBRAR 2% DE MULTA                                 NAO RECEBER APOS 30 DIAS DO VENCIMENTO.                                                                                                                                                                                                         01042300000000000000104230000000000000       0090339900006270071940042310000141
100000000000000000000009033990000627000000000000000000000000010002020025738604231800000000002            2  01257386042309042300000005478970000000001N010423000000000000000000000000000000000000000000000000000000000000000100025738614810VILMAR JOSE PEREIRA                     ALAMEDA TIETE - 646 - CERQUEIRA CESAR -             01417020                                                            000143
2SR. CAIXA, APOS O VENCIMENTO COBRAR 2% DE MULTA                                 NAO RECEBER APOS 30 DIAS DO VENCIMENTO.                                                                                                                                                                                                         01042300000000000000104230000000000000       0090339900006270257386042318000144
100000000000000000000009033990000627000000000000000000000000010002020025738604232600000000002            2  01257386042309042300000005478940000000001N010423000000000000000000000000000000000000000000000000000000000000000100025738614810VILMAR JOSE PEREIRA                     ALAMEDA TIETE - 646 - CERQUEIRA CESAR -             01417020                                                            000146
2SR. CAIXA, APOS O VENCIMENTO COBRAR 2% DE MULTA                                 NAO RECEBER APOS 30 DIAS DO VENCIMENTO.                                                                                                                                                                                                         01042300000000000000104230000000000000       0090339900006270257386042326000147
100000000000000000000009033990000627000000000000000000000000010002020025738604233400000000002            2  01257386042309042300000005478950000000001N010423000000000000000000000000000000000000000000000000000000000000000100025738614810VILMAR JOSE PEREIRA                     ALAMEDA TIETE - 646 - CERQUEIRA CESAR -             01417020                                                            000149
2SR. CAIXA, APOS O VENCIMENTO COBRAR 2% DE MULTA                                 NAO RECEBER APOS 30 DIAS DO VENCIMENTO.                                                                                                                                                                                                         01042300000000000000104230000000000000       0090339900006270257386042334000150
100000000000000000000009033990000627000000000000000000000000010002020025738604234200000000002            2  01257386042309042300000005478960000000001N010423000000000000000000000000000000000000000000000000000000000000000100025738614810VILMAR JOSE PEREIRA                     ALAMEDA TIETE - 646 - CERQUEIRA CESAR -             01417020                                                            000152
2SR. CAIXA, APOS O VENCIMENTO COBRAR 2% DE MULTA                                 NAO RECEBER APOS 30 DIAS DO VENCIMENTO.                                                                                                                                                                                                         01042300000000000000104230000000000000       0090339900006270257386042342000153
100000000000000000000009033990000627000000000000000000000000010002020011141504231P00000000002            2  01111415042311042300000002848800000000001N010423000000000000000000000000000000000000000000000000000000000000000100011141508869PAULO ROBERTO TUNES SILVA               RUA PETROBRAS - 405 CASA 07 - VILA ANTON            03474060                                                            000155
2SR. CAIXA, APOS O VENCIMENTO COBRAR 2% DE MULTA                                 NAO RECEBER APOS 30 DIAS DO VENCIMENTO.                                                                                                                                                                                                         01042300000000000000104230000000000000       009033990000627011141504231P000156
100000000000000000000009033990000627000000000000000000000000010002020012449104231500000000002            2  01124491042311042300000002870540000000001N010423000000000000000000000000000000000000000000000000000000000000000100012449104810GILBERTO DOS SANTOS JUNIOR              RUA ALMIRANTE TAMANDARE - 89 AP.143 - BA            09310350                                                            000158
2SR. CAIXA, APOS O VENCIMENTO COBRAR 2% DE MULTA                                 NAO RECEBER APOS 30 DIAS DO VENCIMENTO.                                                                                                                                                                                                         01042300000000000000104230000000000000       0090339900006270124491042315000159
100000000000000000000009033990000627000000000000000000000000010002020011261304231300000000002            2  01112613042309042300000003787560000000001N010423000000000000000000000000000000000000000000000000000000000000000100011261359844JOVANETE DOS SANTOS PASSOS              RUA FULVIO MORGANTI - 672 - JARDIM PARAI            02417170                                                            000161
2SR. CAIXA, APOS O VENCIMENTO COBRAR 2% DE MULTA                                 NAO RECEBER APOS 30 DIAS DO VENCIMENTO.                                                                                                                                                                                                         01042300000000000000104230000000000000       0090339900006270112613042313000162
100000000000000000000009033990000627000000000000000000000000010002020036279304231200000000002            2  01362793042309042300000003366900000000001N010423000000000000000000000000000000000000000000000000000000000000000100036279398838BRUNO DOCINI ORTEGA                     RUA GENERAL EUCLIDES FIGUEIREDO - 146 AP            11700780                                                            000164
2SR. CAIXA, APOS O VENCIMENTO COBRAR 2% DE MULTA                                 NAO RECEBER APOS 30 DIAS DO VENCIMENTO.                                                                                                                                                                                                         01042300000000000000104230000000000000       0090339900006270362793042312000165
1000000000000000000000090339900006270000000000000000000000000100020200HELENA04231800000000002            2  01HELENA042309042300000003794600000000001N0104230000000000000000000000000000000000000000000000000000000000000001HELENAROSASANTHELENA ROSA DOS SANTOS                  AVENIDA ZELIA - 278 CASA 02 - PARQUE DOS            06436000                                                            000167
2SR. CAIXA, APOS O VENCIMENTO COBRAR 2% DE MULTA                                 NAO RECEBER APOS 30 DIAS DO VENCIMENTO.                                                                                                                                                                                                         01042300000000000000104230000000000000       0090339900006270HELENA042318000168
9                                                                                                                                                                                                                                                                                                                                                                                                         000169