01REMESSA01COBRANCA       00000000000008017025HB SANTOS CONSTRUTORA E INCORP237BRADESCO       010123        MX0000168                                                                                                                                                                                                                                                                                     000001
100000000000000000000009033990000627000000000000000000000000010002020016479001231900000000002            2  01164790012309012300000005164330000000001N010123000000000000000000000000000000000000000000000000000000000000000100016479002806LOURDES PEREIRA DE QUEIROZ SECANECHIA   RUA PAULINO CURSI - 437 - CIDADE SAO MAT            03960060                                                            000002
2SR. CAIXA, APOS O VENCIMENTO COBRAR 2% DE MULTA                                 NAO RECEBER APOS 30 DIAS DO VENCIMENTO.                                                                                                                                                                                                         01012300000000000000101230000000000000       0090339900006270164790012319000003
100000000000000000000009033990000627000000000000000000000000010002020017229701232900000000002            2  01172297012309012300000003930000000000001N010123000000000000000000000000000000000000000000000000000000000000000100017229751802BERENICE VIEIRA KERSTING                RUA ATIBAIA - 17 AP.417 - BAIRRO IMPERAD            11707380                                                            000005
2SR. CAIXA, APOS O VENCIMENTO COBRAR 2% DE MULTA                                 NAO RECEBER APOS 30 DIAS DO VENCIMENTO.                                                                                                                                                                                                         01012300000000000000101230000000000000       0090339900006270172297012329000006
100000000000000000000009033990000627000000000000000000000000010002020009361401231600000000002            2  01093614012309012300000003749300000000001N010123000000000000000000000000000000000000000000000000000000000000000100009361471805JOSE BARBOSA DA SILVA                   RUA ALFREDO INACIO TRINDADE  - 60 AP.44             02344100                                                            000008
2SR. CAIXA, APOS O VENCIMENTO COBRAR 2% DE MULTA                                 NAO RECEBER APOS 30 DIAS DO VENCIMENTO.                                                                                                                                                                                                         01012300000000000000101230000000000000       0090339900006270093614012316000009
100000000000000000000009033990000627000000000000000000000000010002020012756901231P00000000002            2  01127569012309012300000003236470000000001N010123000000000000000000000000000000000000000000000000000000000000000100012756959812ITAMAR JUVENAL DIAS DA SILVA            RUA ELISEU REINALDO MORAES VIEIRA - 90 A            02858000                                                            000011
2SR. CAIXA, APOS O VENCIMENTO COBRAR 2% DE MULTA                                 NAO RECEBER APOS 30 DIAS DO VENCIMENTO.                                                                                                                                                                                                         01012300000000000000101230000000000000       009033990000627012756901231P000012
100000000000000000000009033990000627000000000000000000000000010002020029433601231300000000002            2  01294336012311012300000002684020000000001N010123000000000000000000000000000000000000000000000000000000000000000100029433631897MARIO MUNIZ                             RUA JOSE CALIXTO DO CARMO - 286 AP.53 -             11702690                                                            000014
2SR. CAIXA, APOS O VENCIMENTO COBRAR 2% DE MULTA                                 NAO RECEBER APOS 30 DIAS DO VENCIMENTO.                                                                                                                                                                                                         01012300000000000000101230000000000000       0090339900006270294336012313000015
100000000000000000000009033990000627000000000000000000000000010002020005029801231600000000002            2  01050298012309012300000003299770000000001N010123000000000000000000000000000000000000000000000000000000000000000100005029828885LAURINETE DA CONCEICAO DE NORONHA       RUA MARIA LUCIA DE TOLEDO LEITE MORAES -            04434040                                                            000017
2SR. CAIXA, APOS O VENCIMENTO COBRAR 2% DE MULTA                                 NAO RECEBER APOS 30 DIAS DO VENCIMENTO.                                                                                                                                                                                                         01012300000000000000101230000000000000       0090339900006270050298012316000018
100000000000000000000009033990000627000000000000000000000000010002020013388901231800000000002            2  01133889012311012300000002616490000000001N010123000000000000000000000000000000000000000000000000000000000000000100013388936889NEUTON DE SOUZA RAMOS                   RUA JOSE CALIXTO DO CARMO - 286 AP.61 -             11702690                                                            000020
2SR. CAIXA, APOS O VENCIMENTO COBRAR 2% DE MULTA                                 NAO RECEBER APOS 30 DIAS DO VENCIMENTO.                                                                                                                                                                                                         01012300000000000000101230000000000000       0090339900006270133889012318000021
100000000000000000000009033990000627000000000000000000000000010002020012774901231800000000002            2  01127749012311012300000002665630000000001N010123000000000000000000000000000000000000000000000000000000000000000100012774906865JOSE MILTON SANTIAGO                    RUA BATATAIS - 47 - CIDADE ESTELA - POA             08563140                                                            000023
2SR. CAIXA, APOS O VENCIMENTO COBRAR 2% DE MULTA                                 NAO RECEBER APOS 30 DIAS DO VENCIMENTO.                                                                                                                                                                                                         01012300000000000000101230000000000000       0090339900006270127749012318000024
100000000000000000000009033990000627000000000000000000000000010002020005613801231800000000002            2  01056138012311012300000002451630000000001N010123000000000000000000000000000000000000000000000000000000000000000100005613843805NILZA MARIA DE OLIVEIRA                 RUA JOSE GONCALVES DE FREITAS - 66 C2 -             08210550                                                            000026
2SR. CAIXA, APOS O VENCIMENTO COBRAR 2% DE MULTA                                 NAO RECEBER APOS 30 DIAS DO VENCIMENTO.                                                                                                                                                                                                         01012300000000000000101230000000000000       0090339900006270056138012318000027
100000000000000000000009033990000627000000000000000000000000010002020007574901231800000000002            2  01075749012311012300000002516540000000001N010123000000000000000000000000000000000000000000000000000000000000000100007574936889JORGE LUCIANO PEREIRA BORRIELLO         RUA JOSE CALIXTO DO CARMO - 286 AP.54 -             11702690                                                            000029
2SR. CAIXA, APOS O VENCIMENTO COBRAR 2% DE MULTA                                 NAO RECEBER APOS 30 DIAS DO VENCIMENTO.                                                                                                                                                                                                         01012300000000000000101230000000000000       0090339900006270075749012318000030
100000000000000000000009033990000627000000000000000000000000010002020008214901231000000000002            2  01082149012311012300000002554720000000001N010123000000000000000000000000000000000000000000000000000000000000000100008214973830JAMIL CHALA                             RUA JOSE CALIXTO DO CARMO - 286 AP.22 -             11702690                                                            000032
2SR. CAIXA, APOS O VENCIMENTO COBRAR 2% DE MULTA                                 NAO RECEBER APOS 30 DIAS DO VENCIMENTO.                                                                                                                                                                                                         01012300000000000000101230000000000000       0090339900006270082149012310000033
100000000000000000000009033990000627000000000000000000000000010002020032495001231800000000002            2  01324950012311012300000002862890000000001N010123000000000000000000000000000000000000000000000000000000000000000100032495004881PAULO EDUARDO DOS SANTOS                RUA REPUBLICA DO IRAQUE - 1119 - CAMPO B            04611002                                                            000035
2SR. CAIXA, APOS O VENCIMENTO COBRAR 2% DE MULTA                                 NAO RECEBER APOS 30 DIAS DO VENCIMENTO.                                                                                                                                                                                                         01012300000000000000101230000000000000       0090339900006270324950012318000036
100000000000000000000009033990000627000000000000000000000000010002020016498001231500000000002            2  01164980012311012300000002510820000000001N010123000000000000000000000000000000000000000000000000000000000000000100016498053810GILMA CEZARIO GARCIA CORRITORI          RUA LAURENTINO XAVIER DOS SANTOS - 336 -            08240740                                                            000038
2SR. CAIXA, APOS O VENCIMENTO COBRAR 2% DE MULTA                                 NAO RECEBER APOS 30 DIAS DO VENCIMENTO.                                                                                                                                                                                                         01012300000000000000101230000000000000       0090339900006270164980012315000039
100000000000000000000009033990000627000000000000000000000000010002020029339001231400000000002            2  01293390012311012300000002684900000000001N010123000000000000000000000000000000000000000000000000000000000000000100029339051831RONALD DIDOFF                           RUA CORONEL FERREIRA BRAGA - 188 - VILA             03522010                                                            000041
2SR. CAIXA, APOS O VENCIMENTO COBRAR 2% DE MULTA                                 NAO RECEBER APOS 30 DIAS DO VENCIMENTO.                                                                                                                                                                                                         01012300000000000000101230000000000000       0090339900006270293390012314000042
100000000000000000000009033990000627000000000000000000000000010002020017357801231600000000002            2  01173578012311012300000002843550000000001N010123000000000000000000000000000000000000000000000000000000000000000100017357859894MARCIO GUIMARAES                        RUA GENERAL CAMARA - 188 SALA 11 - CENTR            11010120                                                            000044
2SR. CAIXA, APOS O VENCIMENTO COBRAR 2% DE MULTA                                 NAO RECEBER APOS 30 DIAS DO VENCIMENTO.                                                                                                                                                                                                         01012300000000000000101230000000000000       0090339900006270173578012316000045
100000000000000000000009033990000627000000000000000000000000010002020010563001231600000000002            2  01105630012311012300000002916240000000001N010123000000000000000000000000000000000000000000000000000000000000000100010563033878VERA LUCIA RIBEIRO LONGANEZI            RUA DOS CAMARES - 150 AP.24 BL.02 - CARA            02068030                                                            000047
2SR. CAIXA, APOS O VENCIMENTO COBRAR 2% DE MULTA                                 NAO RECEBER APOS 30 DIAS DO VENCIMENTO.                                                                                                                                                                                                         01012300000000000000101230000000000000       0090339900006270105630012316000048
100000000000000000000009033990000627000000000000000000000000010002020005529601231000000000002            2  01055296012311012300000002646380000000001N010123000000000000000000000000000000000000000000000000000000000000000100005529616801JOAQUIM JORGE DA COSTA                  RUA JOSE CALIXTO DO CARMO - 286 AP.106 -            11702690                                                            000050
2SR. CAIXA, APOS O VENCIMENTO COBRAR 2% DE MULTA                                 NAO RECEBER APOS 30 DIAS DO VENCIMENTO.                                                                                                                                                                                                         01012300000000000000101230000000000000       0090339900006270055296012310000051
100000000000000000000009033990000627000000000000000000000000010002020015550701231700000000002            2  01155507012309012300000002501220000000001N010123000000000000000000000000000000000000000000000000000000000000000100015550706806MARY MIWA                               RUA CARLOS JOSE BORSTENS - 50 AP.105 - A            11702750                                                            000053
2SR. CAIXA, APOS O VENCIMENTO COBRAR 2% DE MULTA                                 NAO RECEBER APOS 30 DIAS DO VENCIMENTO.                                                                                                                                                                                                         01012300000000000000101230000000000000       0090339900006270155507012317000054
100000000000000000000009033990000627000000000000000000000000010002020015464601231700000000002            2  01154646012311012300000002781980000000001N010123000000000000000000000000000000000000000000000000000000000000000100015464647864SONIA TERESA VOLPATO                    RUA JOSE CALIXTO DO CARMO - 286 AP.73 -             11702690                                                            000056
2SR. CAIXA, APOS O VENCIMENTO COBRAR 2% DE MULTA                                 NAO RECEBER APOS 30 DIAS DO VENCIMENTO.                                                                                                                                                                                                         01012300000000000000101230000000000000       0090339900006270154646012317000057
100000000000000000000009033990000627000000000000000000000000010002020008657801231600000000002            2  01086578012311012300000002754040000000001N010123000000000000000000000000000000000000000000000000000000000000000100008657886855ARLINDO DA CRUZ                         AVENIDA ARICANDUVA - 8.256 AP.54 BL.10 -            03951220                                                            000059
2SR. CAIXA, APOS O VENCIMENTO COBRAR 2% DE MULTA                                 NAO RECEBER APOS 30 DIAS DO VENCIMENTO.                                                                                                                                                                                                         01012300000000000000101230000000000000       0090339900006270086578012316000060
100000000000000000000009033990000627000000000000000000000000010002020059735101231400000000002            2  01597351012309012300000001556660000000001N010123000000000000000000000000000000000000000000000000000000000000000100059735180863HELIO JOSE MARQUES                      RUA MARTIM AFONSO DE SOUZA - 1007 AP.102            11702790                                                            000062
2SR. CAIXA, APOS O VENCIMENTO COBRAR 2% DE MULTA                                 NAO RECEBER APOS 30 DIAS DO VENCIMENTO.                                                                                                                                                                                                         01012300000000000000101230000000000000       0090339900006270597351012314000063
100000000000000000000009033990000627000000000000000000000000010002020026347801231800000000002            2  01263478012311012300000002943990000000001N010123000000000000000000000000000000000000000000000000000000000000000100026347872862VALDECI SILVA MEIRELES                  RUA JOSE BATISTA DA SILVA - 292 - JARDIM            06851470                                                            000065
2SR. CAIXA, APOS O VENCIMENTO COBRAR 2% DE MULTA                                 NAO RECEBER APOS 30 DIAS DO VENCIMENTO.                                                                                                                                                                                                         01012300000000000000101230000000000000       0090339900006270263478012318000066
100000000000000000000009033990000627000000000000000000000000010002020013135201231900000000002            2  01131352012311012300000002704780000000001N010123000000000000000000000000000000000000000000000000000000000000000100013135261859EDUARDO ZANOLA                          RUA ROLANDO PIETRO BONINI - 46 - JARDIM             09781040                                                            000068
2SR. CAIXA, APOS O VENCIMENTO COBRAR 2% DE MULTA                                 NAO RECEBER APOS 30 DIAS DO VENCIMENTO.                                                                                                                                                                                                         01012300000000000000101230000000000000       0090339900006270131352012319000069
100000000000000000000009033990000627000000000000000000000000010002020009797601231P00000000002            2  01097976012311012300000002634160000000001N010123000000000000000000000000000000000000000000000000000000000000000100009797626857RICARDO SOBRAL DE OLIVEIRA              RUA 23 DE MAIO - 139 AP.32 - VILA MIRIM             11704690                                                            000071
2SR. CAIXA, APOS O VENCIMENTO COBRAR 2% DE MULTA                                 NAO RECEBER APOS 30 DIAS DO VENCIMENTO.                                                                                                                                                                                                         01012300000000000000101230000000000000       009033990000627009797601231P000072
100000000000000000000009033990000627000000000000000000000000010002020004767601231000000000002            2  01047676012309012300000004502780000000001N010123000000000000000000000000000000000000000000000000000000000000000100004767679893ORLANDO GRANDE FILHO                    RUA ORLANDO MIGLIARI - 101 - JARDIM OURO            19906140                                                            000074
2SR. CAIXA, APOS O VENCIMENTO COBRAR 2% DE MULTA                                 NAO RECEBER APOS 30 DIAS DO VENCIMENTO.                                                                                                                                                                                                         01012300000000000000101230000000000000       0090339900006270047676012310000075
100000000000000000000009033990000627000000000000000000000000010002020006512501231800000000002            2  01065125012311012300000002369560000000001N010123000000000000000000000000000000000000000000000000000000000000000100006512547870MARIA DO CARMO FAGUNDES DOS REIS        RUA CARLOS MALCHER - 98 - PARQUE EDU CHA            02232020                                                            000077
2SR. CAIXA, APOS O VENCIMENTO COBRAR 2% DE MULTA                                 NAO RECEBER APOS 30 DIAS DO VENCIMENTO.                                                                                                                                                                                                         01012300000000000000101230000000000000       0090339900006270065125012318000078
100000000000000000000009033990000627000000000000000000000000010002020022728401231000000000002            2  01227284012311012300000002850360000000001N010123000000000000000000000000000000000000000000000000000000000000000100022728497842WILLIAN DE SOUZA MELLO                  RUA JOSE CALIXTO DO CARMO - 286 AP.111 -            11702690                                                            000080
2SR. CAIXA, APOS O VENCIMENTO COBRAR 2% DE MULTA                                 NAO RECEBER APOS 30 DIAS DO VENCIMENTO.                                                                                                                                                                                                         01012300000000000000101230000000000000       0090339900006270227284012310000081
100000000000000000000009033990000627000000000000000000000000010002020016909701231500000000002            2  01169097012311012300000002518820000000001N010123000000000000000000000000000000000000000000000000000000000000000100016909746805EDIVALDO SANTANA DOS SANTOS             ESTRADA JOAO GASPAR DELGADO - 80 AP.213             08536100                                                            000083
2SR. CAIXA, APOS O VENCIMENTO COBRAR 2% DE MULTA                                 NAO RECEBER APOS 30 DIAS DO VENCIMENTO.                                                                                                                                                                                                         01012300000000000000101230000000000000       0090339900006270169097012315000084
100000000000000000000009033990000627000000000000000000000000010002020022036001231200000000002            2  01220360012309012300000003910070000000001N010123000000000000000000000000000000000000000000000000000000000000000100022036003818DERLIS TERAN QUIROGA ROGATO             RUA JOAO RIBEIRO - 320 AP.131SB - CAMPES            09070250                                                            000086
2SR. CAIXA, APOS O VENCIMENTO COBRAR 2% DE MULTA                                 NAO RECEBER APOS 30 DIAS DO VENCIMENTO.                                                                                                                                                                                                         01012300000000000000101230000000000000       0090339900006270220360012312000087
100000000000000000000009033990000627000000000000000000000000010002020017229701233700000000002            2  01172297012309012300000003773560000000001N010123000000000000000000000000000000000000000000000000000000000000000100017229751802BERENICE VIEIRA KERSTING                RUA ATIBAIA - 17 AP.417 - BAIRRO IMPERAD            11707380                                                            000089
2SR. CAIXA, APOS O VENCIMENTO COBRAR 2% DE MULTA                                 NAO RECEBER APOS 30 DIAS DO VENCIMENTO.                                                                                                                                                                                                         01012300000000000000101230000000000000       0090339900006270172297012337000090
100000000000000000000009033990000627000000000000000000000000010002020012475601231600000000002            2  01124756012311012300000002730290000000001N010123000000000000000000000000000000000000000000000000000000000000000100012475663820CELIDALVA GOES DE CARVALHO              RUA JOSE CALIXTO DO CARMO - 286 AP.91 -             11702690                                                            000092
2SR. CAIXA, APOS O VENCIMENTO COBRAR 2% DE MULTA                                 NAO RECEBER APOS 30 DIAS DO VENCIMENTO.                                                                                                                                                                                                         01012300000000000000101230000000000000       0090339900006270124756012316000093
100000000000000000000009033990000627000000000000000000000000010002020033451601231300000000002            2  01334516012311012300000002279960000000001N010123000000000000000000000000000000000000000000000000000000000000000100033451620839ARAO ELISIARIO  NUNES                   RUA JOSE CALIXTO DO CARMO - 286 AP.64 -             11702690                                                            000095
2SR. CAIXA, APOS O VENCIMENTO COBRAR 2% DE MULTA                                 NAO RECEBER APOS 30 DIAS DO VENCIMENTO.                                                                                                                                                                                                         01012300000000000000101230000000000000       0090339900006270334516012313000096
100000000000000000000009033990000627000000000000000000000000010002020045839201231000000000002            2  01458392012311012300000001769650000000001N010123000000000000000000000000000000000000000000000000000000000000000100045839263834LEONARDO ANTONIO CONCELLIERI            RUA JOSE CALIXTO DO CARMO - 286 AP.51 -             11702690                                                            000098
2SR. CAIXA, APOS O VENCIMENTO COBRAR 2% DE MULTA                                 NAO RECEBER APOS 30 DIAS DO VENCIMENTO.                                                                                                                                                                                                         01012300000000000000101230000000000000       0090339900006270458392012310000099
100000000000000000000009033990000627000000000000000000000000010002020011369101231100000000002            2  01113691012311012300000002490580000000001N010123000000000000000000000000000000000000000000000000000000000000000100011369165803ELIANA CORREA DE OLIVEIRA               RUA MAESTRO ZEFERINO SANTANA - 65 - VILA            18040010                                                            000101
2SR. CAIXA, APOS O VENCIMENTO COBRAR 2% DE MULTA                                 NAO RECEBER APOS 30 DIAS DO VENCIMENTO.                                                                                                                                                                                                         01012300000000000000101230000000000000       0090339900006270113691012311000102
100000000000000000000009033990000627000000000000000000000000010002020002253801231500000000002            2  01022538012311012300000002213640000000001N010123000000000000000000000000000000000000000000000000000000000000000100002253816809EDMILSON ALVES DA SILVA                 RUA JOSE CALIXTO DO CARMO - 286 AP.93 -             11702690                                                            000104
2SR. CAIXA, APOS O VENCIMENTO COBRAR 2% DE MULTA                                 NAO RECEBER APOS 30 DIAS DO VENCIMENTO.                                                                                                                                                                                                         01012300000000000000101230000000000000       0090339900006270022538012315000105
100000000000000000000009033990000627000000000000000000000000010002020037947001231700000000002            2  01379470012311012300000003931570000000001N010123000000000000000000000000000000000000000000000000000000000000000100037947070873BRUNO DE CAETANO MARRINHAS              AVENIDA GENERAL BARRETO DE MENEZES - 323            09791150                                                            000107
2SR. CAIXA, APOS O VENCIMENTO COBRAR 2% DE MULTA                                 NAO RECEBER APOS 30 DIAS DO VENCIMENTO.                                                                                                                                                                                                         01012300000000000000101230000000000000       0090339900006270379470012317000108
100000000000000000000009033990000627000000000000000000000000010002020037517701231500000000002            2  01375177012309012300000004147260000000001N010123000000000000000000000000000000000000000000000000000000000000000100037517785869RENATO JOSE DE LIMA MELO                RUA ARISTIDES LOBO - 148 AP.41 BLOCO 03             03041100                                                            000110
2SR. CAIXA, APOS O VENCIMENTO COBRAR 2% DE MULTA                                 NAO RECEBER APOS 30 DIAS DO VENCIMENTO.                                                                                                                                                                                                         01012300000000000000101230000000000000       0090339900006270375177012315000111
100000000000000000000009033990000627000000000000000000000000010002020070367901231600000000002            2  01703679012311012300000002078750000000001N010123000000000000000000000000000000000000000000000000000000000000000100070367949849TEODOMIRO ALVES DOS SANTOS              RUA ANDRE PAZ - 13 - JARDIM SANTO ANDRE             08390230                                                            000113
2SR. CAIXA, APOS O VENCIMENTO COBRAR 2% DE MULTA                                 NAO RECEBER APOS 30 DIAS DO VENCIMENTO.                                                                                                                                                                                                         01012300000000000000101230000000000000       0090339900006270703679012316000114
100000000000000000000009033990000627000000000000000000000000010002020004410801231500000000002            2  01044108012309012300000003081460000000001N010123000000000000000000000000000000000000000000000000000000000000000100004410802860LUIZ ALBERTO MARINHO                    RUA DA INDEPENDENCIA - 706 AP.41B - CAMB            01524000                                                            000116
2SR. CAIXA, APOS O VENCIMENTO COBRAR 2% DE MULTA                                 NAO RECEBER APOS 30 DIAS DO VENCIMENTO.                                                                                                                                                                                                         01012300000000000000101230000000000000       0090339900006270044108012315000117
100000000000000000000009033990000627000000000000000000000000010002020004767601232900000000002            2  01047676012309012300000004113650000000001N010123000000000000000000000000000000000000000000000000000000000000000100004767679893ORLANDO GRANDE FILHO                    RUA ORLANDO MIGLIARI - 101 - JARDIM OURO            19906140                                                            000119
2SR. CAIXA, APOS O VENCIMENTO COBRAR 2% DE MULTA                                 NAO RECEBER APOS 30 DIAS DO VENCIMENTO.                                                                                                                                                                                                         01012300000000000000101230000000000000       0090339900006270047676012329000120
100000000000000000000009033990000627000000000000000000000000010002020064677801231600000000002            2  01646778012309012300000003309120000000001N010123000000000000000000000000000000000000000000000000000000000000000100064677850887ANTONIO CARLOS DE OLIVEIRA              RUA DR.ANTONIO MAZILLI FILHO - 435 - PAR            02230070                                                            000122
2SR. CAIXA, APOS O VENCIMENTO COBRAR 2% DE MULTA                                 NAO RECEBER APOS 30 DIAS DO VENCIMENTO.                                                                                                                                                                                                         01012300000000000000101230000000000000       0090339900006270646778012316000123
100000000000000000000009033990000627000000000000000000000000010002020007328901231100000000002            2  01073289012309012300000004037330000000001N010123000000000000000000000000000000000000000000000000000000000000000100007328927836BENEDITO APARECIDO ROCHA                AVENIDA SENADOR JOSE ERMINIO DE MORAES -            02357002                                                            000125
2SR. CAIXA, APOS O VENCIMENTO COBRAR 2% DE MULTA                                 NAO RECEBER APOS 30 DIAS DO VENCIMENTO.                                                                                                                                                                                                         01012300000000000000101230000000000000       0090339900006270073289012311000126
100000000000000000000009033990000627000000000000000000000000010002020028082601231000000000002            2  01280826012311012300000002307910000000001N010123000000000000000000000000000000000000000000000000000000000000000100028082615869PRISCILA PEREIRA                        ALAMEDA AFONSO BOCCHIGLIERI - 184 - INTE            04445130                                                            000128
2SR. CAIXA, APOS O VENCIMENTO COBRAR 2% DE MULTA                                 NAO RECEBER APOS 30 DIAS DO VENCIMENTO.                                                                                                                                                                                                         01012300000000000000101230000000000000       0090339900006270280826012310000129
100000000000000000000009033990000627000000000000000000000000010002020058488601231900000000002            2  01584886012309012300000003018170000000001N010123000000000000000000000000000000000000000000000000000000000000000100058488618972ADAILTON ZANUTTO MORESCHI               R:RAPHAEL UNGARO - COND.RESERVA SERRA Q.            13212138                                                            000131
2SR. CAIXA, APOS O VENCIMENTO COBRAR 2% DE MULTA                                 NAO RECEBER APOS 30 DIAS DO VENCIMENTO.                                                                                                                                                                                                         01012300000000000000101230000000000000       0090339900006270584886012319000132
100000000000000000000009033990000627000000000000000000000000010002020002196001231300000000002            2  01021960012311012300000002270220000000001N010123000000000000000000000000000000000000000000000000000000000000000100002196012831VILEFORT DIAS BORGES                    RUA PORTO XAVIER - 189 AP.64 - VILA CARM            08210170                                                            000134
2SR. CAIXA, APOS O VENCIMENTO COBRAR 2% DE MULTA                                 NAO RECEBER APOS 30 DIAS DO VENCIMENTO.                                                                                                                                                                                                         01012300000000000000101230000000000000       0090339900006270021960012313000135
100000000000000000000009033990000627000000000000000000000000010002020031861501231100000000002            2  01318615012311012300000002359620000000001N010123000000000000000000000000000000000000000000000000000000000000000100031861586809VANIA TOMAZ                              -  -  -  -                                         00000000                                                            000137
2SR. CAIXA, APOS O VENCIMENTO COBRAR 2% DE MULTA                                 NAO RECEBER APOS 30 DIAS DO VENCIMENTO.                                                                                                                                                                                                         01012300000000000000101230000000000000       0090339900006270318615012311000138
100000000000000000000009033990000627000000000000000000000000010002020003104501231500000000002            2  01031045012309012300000008785790000000001N010123000000000000000000000000000000000000000000000000000000000000000100003104580804NELSON RODRIGUES                        RUA CARLOS JOSE BORSTENS - 50 AP.81 - AV            11702750                                                            000140
2SR. CAIXA, APOS O VENCIMENTO COBRAR 2% DE MULTA                                 NAO RECEBER APOS 30 DIAS DO VENCIMENTO.                                                                                                                                                                                                         01012300000000000000101230000000000000       0090339900006270031045012315000141
100000000000000000000009033990000627000000000000000000000000010002020007715301231300000000002            2  01077153012309012300000003711990000000001N010123000000000000000000000000000000000000000000000000000000000000000100007715360627NILTON RENNAN OLIVEIRA GOMES FILHO      RUA CARLOS JOSE BORSTENS - 50 AP.21 - AV            11702750                                                            000143
2SR. CAIXA, APOS O VENCIMENTO COBRAR 2% DE MULTA                                 NAO RECEBER APOS 30 DIAS DO VENCIMENTO.                                                                                                                                                                                                         01012300000000000000101230000000000000       0090339900006270077153012313000144
100000000000000000000009033990000627000000000000000000000000010002020007194001231400000000002            2  01071940012311012300000002638630000000001N010123000000000000000000000000000000000000000000000000000000000000000100007194010895RAUL AMANTINO KIRK DE SANCTIS           AVENIDA SANTA CATARINA - 756 AP.01 - VIL            04378000                                                            000146
2SR. CAIXA, APOS O VENCIMENTO COBRAR 2% DE MULTA                                 NAO RECEBER APOS 30 DIAS DO VENCIMENTO.                                                                                                                                                                                                         01012300000000000000101230000000000000       0090339900006270071940012314000147
100000000000000000000009033990000627000000000000000000000000010002020025738601231100000000002            2  01257386012309012300000005331240000000001N010123000000000000000000000000000000000000000000000000000000000000000100025738614810VILMAR JOSE PEREIRA                     ALAMEDA TIETE - 646 - CERQUEIRA CESAR -             01417020                                                            000149
2SR. CAIXA, APOS O VENCIMENTO COBRAR 2% DE MULTA                                 NAO RECEBER APOS 30 DIAS DO VENCIMENTO.                                                                                                                                                                                                         01012300000000000000101230000000000000       0090339900006270257386012311000150
100000000000000000000009033990000627000000000000000000000000010002020025738601232P00000000002            2  01257386012309012300000005331210000000001N010123000000000000000000000000000000000000000000000000000000000000000100025738614810VILMAR JOSE PEREIRA                     ALAMEDA TIETE - 646 - CERQUEIRA CESAR -             01417020                                                            000152
2SR. CAIXA, APOS O VENCIMENTO COBRAR 2% DE MULTA                                 NAO RECEBER APOS 30 DIAS DO VENCIMENTO.                                                                                                                                                                                                         01012300000000000000101230000000000000       009033990000627025738601232P000153
100000000000000000000009033990000627000000000000000000000000010002020025738601233800000000002            2  01257386012309012300000005331220000000001N010123000000000000000000000000000000000000000000000000000000000000000100025738614810VILMAR JOSE PEREIRA                     ALAMEDA TIETE - 646 - CERQUEIRA CESAR -             01417020                                                            000155
2SR. CAIXA, APOS O VENCIMENTO COBRAR 2% DE MULTA                                 NAO RECEBER APOS 30 DIAS DO VENCIMENTO.                                                                                                                                                                                                         01012300000000000000101230000000000000       0090339900006270257386012338000156
100000000000000000000009033990000627000000000000000000000000010002020025738601234600000000002            2  01257386012309012300000005331230000000001N010123000000000000000000000000000000000000000000000000000000000000000100025738614810VILMAR JOSE PEREIRA                     ALAMEDA TIETE - 646 - CERQUEIRA CESAR -             01417020                                                            000158
2SR. CAIXA, APOS O VENCIMENTO COBRAR 2% DE MULTA                                 NAO RECEBER APOS 30 DIAS DO VENCIMENTO.                                                                                                                                                                                                         01012300000000000000101230000000000000       0090339900006270257386012346000159
100000000000000000000009033990000627000000000000000000000000010002020011141501231300000000002            2  01111415012311012300000002772730000000001N010123000000000000000000000000000000000000000000000000000000000000000100011141508869PAULO ROBERTO TUNES SILVA               RUA PETROBRAS - 405 CASA 07 - VILA ANTON            03474060                                                            000161
2SR. CAIXA, APOS O VENCIMENTO COBRAR 2% DE MULTA                                 NAO RECEBER APOS 30 DIAS DO VENCIMENTO.                                                                                                                                                                                                         01012300000000000000101230000000000000       0090339900006270111415012313000162
100000000000000000000009033990000627000000000000000000000000010002020012449101231900000000002            2  01124491012311012300000002793890000000001N010123000000000000000000000000000000000000000000000000000000000000000100012449104810GILBERTO DOS SANTOS JUNIOR              RUA ALMIRANTE TAMANDARE - 89 AP.143 - BA            09310350                                                            000164
2SR. CAIXA, APOS O VENCIMENTO COBRAR 2% DE MULTA                                 NAO RECEBER APOS 30 DIAS DO VENCIMENTO.                                                                                                                                                                                                         01012300000000000000101230000000000000       0090339900006270124491012319000165
100000000000000000000009033990000627000000000000000000000000010002020011261301231700000000002            2  01112613012309012300000003685440000000001N010123000000000000000000000000000000000000000000000000000000000000000100011261359844JOVANETE DOS SANTOS PASSOS              RUA FULVIO MORGANTI - 672 - JARDIM PARAI            02417170                                                            000167
2SR. CAIXA, APOS O VENCIMENTO COBRAR 2% DE MULTA                                 NAO RECEBER APOS 30 DIAS DO VENCIMENTO.                                                                                                                                                                                                         01012300000000000000101230000000000000       0090339900006270112613012317000168
100000000000000000000009033990000627000000000000000000000000010002020036279301231600000000002            2  01362793012309012300000003276110000000001N010123000000000000000000000000000000000000000000000000000000000000000100036279398838BRUNO DOCINI ORTEGA                     RUA GENERAL EUCLIDES FIGUEIREDO - 146 AP            11700780                                                            000170
2SR. CAIXA, APOS O VENCIMENTO COBRAR 2% DE MULTA                                 NAO RECEBER APOS 30 DIAS DO VENCIMENTO.                                                                                                                                                                                                         01012300000000000000101230000000000000       0090339900006270362793012316000171
9                                                                                                                                                                                                                                                                                                                                                                                                         000172