01REMESSA01COBRANCA       00000000000004991781AIRES CONSTRUTORA E INCORPORAD237BRADESCO       011119        MX0000131                                                                                                                                                                                                                                                                                     000001
100000000000000000000009077090006612500000000000000000000000010002100094852211191700000000002            2  01948522111910111900000002397910000000001N011119000000000000000000000000000000000000000000000000000000000000000100094852294887GISELDA MENON                           RUA OTAVIO BARRETO - 105 - VILA SANTISTA            02560080                                                            000002
2SR. CAIXA, APOS O VENCIMENTO COBRAR 10% DE MULTA                                NAO RECEBER APOS 30 DIAS DO VENCIMENTO.                                                                                                                                                                                                         01111900000000000000111190000000000000       0090770900066125948522111917000003
100000000000000000000009077090006612500000000000000000000000010002100006485911191300000000002            2  01064859111910111900000003677640000000001N011119000000000000000000000000000000000000000000000000000000000000000100006485911820CELIO MANUEL  MELIM SANTO               RUA JUVENAL FERREIRA  - 85 AP.61 - VILA             03512040                                                            000005
2SR. CAIXA, APOS O VENCIMENTO COBRAR 10% DE MULTA                                NAO RECEBER APOS 30 DIAS DO VENCIMENTO.                                                                                                                                                                                                         01111900000000000000111190000000000000       0090770900066125064859111913000006
100000000000000000000009077090006612500000000000000000000000010002100004693811191200000000002            2  01046938111910111900000003205330000000001N011119000000000000000000000000000000000000000000000000000000000000000100004693857823NIVALDO BARTOLOMEU FERREIRA             MNS JOSE MARINONI  - 33 - SANTO AMARO -             04430350                                                            000008
2SR. CAIXA, APOS O VENCIMENTO COBRAR 10% DE MULTA                                NAO RECEBER APOS 30 DIAS DO VENCIMENTO.                                                                                                                                                                                                         01111900000000000000111190000000000000       0090770900066125046938111912000009
100000000000000000000009077090006612500000000000000000000000010002100027993111191100000000002            2  01279931111910111900000003052170000000001N011119000000000000000000000000000000000000000000000000000000000000000100027993108853DALVA JESUS RODRIGUES CABRAL            RUA CRISTOVAO COLOMBO GONCALVES - 97 - C            04811050                                                            000011
2SR. CAIXA, APOS O VENCIMENTO COBRAR 10% DE MULTA                                NAO RECEBER APOS 30 DIAS DO VENCIMENTO.                                                                                                                                                                                                         01111900000000000000111190000000000000       0090770900066125279931111911000012
100000000000000000000009077090006612500000000000000000000000010002100000455411191000000000002            2  01004554111910111900000003170520000000001N011119000000000000000000000000000000000000000000000000000000000000000100000455495831PAULO HENRIQUE LOURENCO                 RUA FIGUEIRA  - 237 - CIDADE DAS FLORES             06184060                                                            000014
2SR. CAIXA, APOS O VENCIMENTO COBRAR 10% DE MULTA                                NAO RECEBER APOS 30 DIAS DO VENCIMENTO.                                                                                                                                                                                                         01111900000000000000111190000000000000       0090770900066125004554111910000015
100000000000000000000009077090006612500000000000000000000000010002100006140011191100000000002            2  01061400111910111900000003931870000000001N011119000000000000000000000000000000000000000000000000000000000000000100006140049857MARIA ALBANI DA SILVA EUSEBIO           RUA ORLANDO SEGALA - 108 - JARDIM ADRIAN            07135190                                                            000017
2SR. CAIXA, APOS O VENCIMENTO COBRAR 10% DE MULTA                                NAO RECEBER APOS 30 DIAS DO VENCIMENTO.                                                                                                                                                                                                         01111900000000000000111190000000000000       0090770900066125061400111911000018
100000000000000000000009077090006612500000000000000000000000010002100007768711191000000000002            2  01077687111910111900000003994120000000001N011119000000000000000000000000000000000000000000000000000000000000000100007768713826FATIMA LUZIA BIANCHI                    RUA MONTE CASTELO - 295 AP.121 - AVIACAO            11702720                                                            000020
2SR. CAIXA, APOS O VENCIMENTO COBRAR 10% DE MULTA                                NAO RECEBER APOS 30 DIAS DO VENCIMENTO.                                                                                                                                                                                                         01111900000000000000111190000000000000       0090770900066125077687111910000021
100000000000000000000009077090006612500000000000000000000000010002100021716811191800000000002            2  01217168111910111900000003934830000000001N011119000000000000000000000000000000000000000000000000000000000000000100021716847800ANDRE LUIZ FAGUNDES DE A.MATOS          ABRAAO MIGUEL DO CARMO - 113 AP.64 - VIL            04306090                                                            000023
2SR. CAIXA, APOS O VENCIMENTO COBRAR 10% DE MULTA                                NAO RECEBER APOS 30 DIAS DO VENCIMENTO.                                                                                                                                                                                                         01111900000000000000111190000000000000       0090770900066125217168111918000024
100000000000000000000009077090006612500000000000000000000000010002100085416911191100000000002            2  01854169111910111900000003335630000000001N011119000000000000000000000000000000000000000000000000000000000000000100085416940891ANTONIO DE SOUSA MENDES                 RUA MONTE CASTELO - 296 AP.52 - AVIACAO             11702720                                                            000026
2SR. CAIXA, APOS O VENCIMENTO COBRAR 10% DE MULTA                                NAO RECEBER APOS 30 DIAS DO VENCIMENTO.                                                                                                                                                                                                         01111900000000000000111190000000000000       0090770900066125854169111911000027
100000000000000000000009077090006612500000000000000000000000010002100005678011191500000000002            2  01056780111910111900000003473980000000001N011119000000000000000000000000000000000000000000000000000000000000000100005678057863FABIO MOREIRA CAMPOS                    RUA FLORENCIO DA SILVA - 284 - VILA LIBA            03738070                                                            000029
2SR. CAIXA, APOS O VENCIMENTO COBRAR 10% DE MULTA                                NAO RECEBER APOS 30 DIAS DO VENCIMENTO.                                                                                                                                                                                                         01111900000000000000111190000000000000       0090770900066125056780111915000030
100000000000000000000009077090006612500000000000000000000000010002100016348211191100000000002            2  01163482111910111900000003389120000000001N011119000000000000000000000000000000000000000000000000000000000000000100016348237885AILTON LORENA                           AVENIDA BRASILIA - 194 - BELA VISTA - SA            09180260                                                            000032
2SR. CAIXA, APOS O VENCIMENTO COBRAR 10% DE MULTA                                NAO RECEBER APOS 30 DIAS DO VENCIMENTO.                                                                                                                                                                                                         01111900000000000000111190000000000000       0090770900066125163482111911000033
100000000000000000000009077090006612500000000000000000000000010002100081218411191500000000002            2  01812184111910111900000003270930000000001N011119000000000000000000000000000000000000000000000000000000000000000100081218486953OSMAR DA COSTA - A/C RITA GONCALVES     AVENIDA ALMEIDA JUNIOR - 717 - SAMAMBAIA            11713050                                                            000035
2SR. CAIXA, APOS O VENCIMENTO COBRAR 10% DE MULTA                                NAO RECEBER APOS 30 DIAS DO VENCIMENTO.                                                                                                                                                                                                         01111900000000000000111190000000000000       0090770900066125812184111915000036
100000000000000000000009077090006612500000000000000000000000010002100004981811191800000000002            2  01049818111910111900000003715180000000001N011119000000000000000000000000000000000000000000000000000000000000000100004981884850SILVIO PAULINO GONCALVES                MARIA DE CASTRO MESQUITA - 84 AP.103 BLO            07110040                                                            000038
2SR. CAIXA, APOS O VENCIMENTO COBRAR 10% DE MULTA                                NAO RECEBER APOS 30 DIAS DO VENCIMENTO.                                                                                                                                                                                                         01111900000000000000111190000000000000       0090770900066125049818111918000039
100000000000000000000009077090006612500000000000000000000000010002100019282511191200000000002            2  01192825111910111900000002438630000000001N011119000000000000000000000000000000000000000000000000000000000000000100019282546837FABIO LEANDRO DE FREITAS ASSIS          RUA BASSIM NAGIB TRABULSI - 97 - PONTA D            11030540                                                            000041
2SR. CAIXA, APOS O VENCIMENTO COBRAR 10% DE MULTA                                NAO RECEBER APOS 30 DIAS DO VENCIMENTO.                                                                                                                                                                                                         01111900000000000000111190000000000000       0090770900066125192825111912000042
100000000000000000000009077090006612500000000000000000000000010002100008423411191600000000002            2  01084234111910111900000003389050000000001N011119000000000000000000000000000000000000000000000000000000000000000100008423485811EDSON LUIZ NUNES                        RUA NOEMIA PEDROSO BUENO - 41 - JARDIM G            09360440                                                            000044
2SR. CAIXA, APOS O VENCIMENTO COBRAR 10% DE MULTA                                NAO RECEBER APOS 30 DIAS DO VENCIMENTO.                                                                                                                                                                                                         01111900000000000000111190000000000000       0090770900066125084234111916000045
100000000000000000000009077090006612500000000000000000000000010002100009777211191200000000002            2  01097772111910111900000003074680000000001N011119000000000000000000000000000000000000000000000000000000000000000100009777281889CARLITA DE FIGUEIREDO CARVALHO          AVENIDA ALBERTO DE ALMEIDA VINHAS - 4462            11701350                                                            000047
2SR. CAIXA, APOS O VENCIMENTO COBRAR 10% DE MULTA                                NAO RECEBER APOS 30 DIAS DO VENCIMENTO.                                                                                                                                                                                                         01111900000000000000111190000000000000       0090770900066125097772111912000048
100000000000000000000009077090006612500000000000000000000000010002100043122811191400000000002            2  01431228111910111900000002488810000000001N011119000000000000000000000000000000000000000000000000000000000000000100043122850800ANTONIO JOAQUIM GOES                    ANTONIO DOAS DA SILVA - 412 - VILA AMALI            02618110                                                            000050
2SR. CAIXA, APOS O VENCIMENTO COBRAR 10% DE MULTA                                NAO RECEBER APOS 30 DIAS DO VENCIMENTO.                                                                                                                                                                                                         01111900000000000000111190000000000000       0090770900066125431228111914000051
100000000000000000000009077090006612500000000000000000000000010002100003865711191000000000002            2  01038657111910111900000003267640000000001N011119000000000000000000000000000000000000000000000000000000000000000100003865776841FRANCISCO JOSE ROCCO                    RUA FABIO JOSE BEZERRA - 130 AP.86 - PAR            03805000                                                            000053
2SR. CAIXA, APOS O VENCIMENTO COBRAR 10% DE MULTA                                NAO RECEBER APOS 30 DIAS DO VENCIMENTO.                                                                                                                                                                                                         01111900000000000000111190000000000000       0090770900066125038657111910000054
100000000000000000000009077090006612500000000000000000000000010002100028309511191700000000002            2  01283095111910111900000002913970000000001N011119000000000000000000000000000000000000000000000000000000000000000100028309524803DEISE RIBEIRO BARBOSA                   RUA CANDIDO JOSE DE ANDRADE - 173 - ERME            03807030                                                            000056
2SR. CAIXA, APOS O VENCIMENTO COBRAR 10% DE MULTA                                NAO RECEBER APOS 30 DIAS DO VENCIMENTO.                                                                                                                                                                                                         01111900000000000000111190000000000000       0090770900066125283095111917000057
100000000000000000000009077090006612500000000000000000000000010002100011277911191700000000002            2  01112779111910111900000003458560000000001N011119000000000000000000000000000000000000000000000000000000000000000100011277908893JOSE AILTON LOPES DE AZEVEDO            RUA MAESTRO JOAO SEPE - 19 - JARDIM MARI            04181030                                                            000059
2SR. CAIXA, APOS O VENCIMENTO COBRAR 10% DE MULTA                                NAO RECEBER APOS 30 DIAS DO VENCIMENTO.                                                                                                                                                                                                         01111900000000000000111190000000000000       0090770900066125112779111917000060
100000000000000000000009077090006612500000000000000000000000010002100025215111191400000000002            2  01252151111910111900000002608180000000001N011119000000000000000000000000000000000000000000000000000000000000000100025215106886KLEBER LUIZ DOS SANTOS                  RUA MONTE CASTELO - 262 AP.15 - AVIACAO             11702720                                                            000062
2SR. CAIXA, APOS O VENCIMENTO COBRAR 10% DE MULTA                                NAO RECEBER APOS 30 DIAS DO VENCIMENTO.                                                                                                                                                                                                         01111900000000000000111190000000000000       0090770900066125252151111914000063
100000000000000000000009077090006612500000000000000000000000010002100090206711191100000000002            2  01902067111910111900000002913240000000001N011119000000000000000000000000000000000000000000000000000000000000000100090206789815NEREIDE RODRIGUES FERREIRA              AVENIDA PADRE ESTANISLAU DE CAMPOS - 205            03590060                                                            000065
2SR. CAIXA, APOS O VENCIMENTO COBRAR 10% DE MULTA                                NAO RECEBER APOS 30 DIAS DO VENCIMENTO.                                                                                                                                                                                                         01111900000000000000111190000000000000       0090770900066125902067111911000066
100000000000000000000009077090006612500000000000000000000000010002100029150711191P00000000002            2  01291507111910111900000003409990000000001N011119000000000000000000000000000000000000000000000000000000000000000100029150742833ANA DEISE SANTOS DE ALMEIDA             RUA MONTE CASTELO - 296 AP.121 - AVIACAO            11702720                                                            000068
2SR. CAIXA, APOS O VENCIMENTO COBRAR 10% DE MULTA                                NAO RECEBER APOS 30 DIAS DO VENCIMENTO.                                                                                                                                                                                                         01111900000000000000111190000000000000       009077090006612529150711191P000069
100000000000000000000009077090006612500000000000000000000000010002100000811711191500000000002            2  01008117111910111900000002808750000000001N011119000000000000000000000000000000000000000000000000000000000000000100000811752801SERGIO BUENO DA SILVA                   RUA MONTE CASTELO - 262 AP.75 - AVIACAO             11702720                                                            000071
2SR. CAIXA, APOS O VENCIMENTO COBRAR 10% DE MULTA                                NAO RECEBER APOS 30 DIAS DO VENCIMENTO.                                                                                                                                                                                                         01111900000000000000111190000000000000       0090770900066125008117111915000072
100000000000000000000009077090006612500000000000000000000000010002100018344811191100000000002            2  01183448111910111900000003570520000000001N011119000000000000000000000000000000000000000000000000000000000000000100018344803888MARCELO BERNARDO                        RUA MONTE CASTELO - 262 AP.84 - AVIACAO             11702720                                                            000074
2SR. CAIXA, APOS O VENCIMENTO COBRAR 10% DE MULTA                                NAO RECEBER APOS 30 DIAS DO VENCIMENTO.                                                                                                                                                                                                         01111900000000000000111190000000000000       0090770900066125183448111911000075
100000000000000000000009077090006612500000000000000000000000010002100004004311191900000000002            2  01040043111910111900000005005760000000001N011119000000000000000000000000000000000000000000000000000000000000000100004004328896VANDERLEI  MARTINS DE ALMEIDA           RUA MONSENHOR TABOSA - 03 - PARQUE CISPE            03819300                                                            000077
2SR. CAIXA, APOS O VENCIMENTO COBRAR 10% DE MULTA                                NAO RECEBER APOS 30 DIAS DO VENCIMENTO.                                                                                                                                                                                                         01111900000000000000111190000000000000       0090770900066125040043111919000078
100000000000000000000009077090006612500000000000000000000000010002100016339411191P00000000002            2  01163394111910111900000003020160000000001N011119000000000000000000000000000000000000000000000000000000000000000100016339432832ALEX MONTEIRO DA SILVA                  RUA IVA MOURA LIMA - 04 - JARDIM MIRNA I            04855540                                                            000080
2SR. CAIXA, APOS O VENCIMENTO COBRAR 10% DE MULTA                                NAO RECEBER APOS 30 DIAS DO VENCIMENTO.                                                                                                                                                                                                         01111900000000000000111190000000000000       009077090006612516339411191P000081
100000000000000000000009077090006612500000000000000000000000010002100031803811191700000000002            2  01318038111910111900000003084190000000001N011119000000000000000000000000000000000000000000000000000000000000000100031803864877ELEILSON FELIPPE SANTOS                 RUA SANTA GREGORIA - 193 - CIDADE DUTRA             04806030                                                            000083
2SR. CAIXA, APOS O VENCIMENTO COBRAR 10% DE MULTA                                NAO RECEBER APOS 30 DIAS DO VENCIMENTO.                                                                                                                                                                                                         01111900000000000000111190000000000000       0090770900066125318038111917000084
100000000000000000000009077090006612500000000000000000000000010002100026032611191500000000002            2  01260326111910111900000002122430000000001N011119000000000000000000000000000000000000000000000000000000000000000100026032632857MARILA LOPES PEREIRA                    AVENIDA LUIZ GISHOKEM - 1761 AP.13 BL.05            05831315                                                            000086
2SR. CAIXA, APOS O VENCIMENTO COBRAR 10% DE MULTA                                NAO RECEBER APOS 30 DIAS DO VENCIMENTO.                                                                                                                                                                                                         01111900000000000000111190000000000000       0090770900066125260326111915000087
100000000000000000000009077090006612500000000000000000000000010002100063064511191100000000002            2  01630645111910111900000003675370000000001N011119000000000000000000000000000000000000000000000000000000000000000100063064537849ANTONIO APARECIDO DA SILVA DESTEFANO    RUA PROFESSOR TEODORO BRAGA - 46 - VILA             02966020                                                            000089
2SR. CAIXA, APOS O VENCIMENTO COBRAR 10% DE MULTA                                NAO RECEBER APOS 30 DIAS DO VENCIMENTO.                                                                                                                                                                                                         01111900000000000000111190000000000000       0090770900066125630645111911000090
100000000000000000000009077090006612500000000000000000000000010002100010107711191700000000002            2  01101077111910111900000003522100000000001N011119000000000000000000000000000000000000000000000000000000000000000100010107711834VALDEMAR FECCHIO                        RUA DEPUTADO EMILIO CARLOS - 355 AP.21-B            06028010                                                            000092
2SR. CAIXA, APOS O VENCIMENTO COBRAR 10% DE MULTA                                NAO RECEBER APOS 30 DIAS DO VENCIMENTO.                                                                                                                                                                                                         01111900000000000000111190000000000000       0090770900066125101077111917000093
100000000000000000000009077090006612500000000000000000000000010002100003330711191600000000002            2  01033307111910111900000004530990000000001N011119000000000000000000000000000000000000000000000000000000000000000100003330791837MARLI DA SILVA BARBOSA                  RUA GLICERIO CERQUEIRA LEITE - 151 - JAR            03675040                                                            000095
2SR. CAIXA, APOS O VENCIMENTO COBRAR 10% DE MULTA                                NAO RECEBER APOS 30 DIAS DO VENCIMENTO.                                                                                                                                                                                                         01111900000000000000111190000000000000       0090770900066125033307111916000096
100000000000000000000009077090006612500000000000000000000000010002100008931011191400000000002            2  01089310111910111900000001841780000000001N011119000000000000000000000000000000000000000000000000000000000000000100008931031874BENEVENUTO THEODORO DA SILVA NETO       RUA MONTE CASTELO - 296 AP.63 - AVIACAO             11702720                                                            000098
2SR. CAIXA, APOS O VENCIMENTO COBRAR 10% DE MULTA                                NAO RECEBER APOS 30 DIAS DO VENCIMENTO.                                                                                                                                                                                                         01111900000000000000111190000000000000       0090770900066125089310111914000099
100000000000000000000009077090006612500000000000000000000000010002100005920511191000000000002            2  01059205111910111900000002139830000000001N011119000000000000000000000000000000000000000000000000000000000000000100005920579846SONIA MARIA VALDO POLLO                 RUA PALMIRA CERVI BARBARO - 797 - CIDADE            13214370                                                            000101
2SR. CAIXA, APOS O VENCIMENTO COBRAR 10% DE MULTA                                NAO RECEBER APOS 30 DIAS DO VENCIMENTO.                                                                                                                                                                                                         01111900000000000000111190000000000000       0090770900066125059205111910000102
100000000000000000000009077090006612500000000000000000000000010002100002494111191100000000002            2  01024941111910111900000003217310000000001N011119000000000000000000000000000000000000000000000000000000000000000100002494107881CIRO FRANCISCO MARCHI DURIGON           RUA MONTE CASTELO - 262 AP.115 - AVIACAO            11702720                                                            000104
2SR. CAIXA, APOS O VENCIMENTO COBRAR 10% DE MULTA                                NAO RECEBER APOS 30 DIAS DO VENCIMENTO.                                                                                                                                                                                                         01111900000000000000111190000000000000       0090770900066125024941111911000105
100000000000000000000009077090006612500000000000000000000000010002100007002311191900000000002            2  01070023111910111900000003162790000000001N011119000000000000000000000000000000000000000000000000000000000000000100007002345869DOMINGOS DE BRITO GALVAO                RUA MONTE CASTELO - 262 AP.44 - AVIACAO             11702720                                                            000107
2SR. CAIXA, APOS O VENCIMENTO COBRAR 10% DE MULTA                                NAO RECEBER APOS 30 DIAS DO VENCIMENTO.                                                                                                                                                                                                         01111900000000000000111190000000000000       0090770900066125070023111919000108
100000000000000000000009077090006612500000000000000000000000010002100016299011191200000000002            2  01162990111910111900000003048930000000001N011119000000000000000000000000000000000000000000000000000000000000000100016299008857FERNANDO CESAR CARVALHO                 AVENIDA MARCONDES DE BRITO - 1340 AP.74             03509000                                                            000110
2SR. CAIXA, APOS O VENCIMENTO COBRAR 10% DE MULTA                                NAO RECEBER APOS 30 DIAS DO VENCIMENTO.                                                                                                                                                                                                         01111900000000000000111190000000000000       0090770900066125162990111912000111
100000000000000000000009077090006612500000000000000000000000010002100031082811191600000000002            2  01310828111910111900000003063700000000001N011119000000000000000000000000000000000000000000000000000000000000000100031082898880VANESSA DOS SANTOS NEIVA                RUA MONTE CASTELO - 296 AP.33 - BAIRRO A            11702720                                                            000113
2SR. CAIXA, APOS O VENCIMENTO COBRAR 10% DE MULTA                                NAO RECEBER APOS 30 DIAS DO VENCIMENTO.                                                                                                                                                                                                         01111900000000000000111190000000000000       0090770900066125310828111916000114
100000000000000000000009077090006612500000000000000000000000010002100065895311191600000000002            2  01658953111910111900000001865350000000001N011119000000000000000000000000000000000000000000000000000000000000000100065895304834MARINHO BARBOSA CUNHA                   AVENIDA EDU CHAVES - 639 AP.43 - PARQUE             02229000                                                            000116
2SR. CAIXA, APOS O VENCIMENTO COBRAR 10% DE MULTA                                NAO RECEBER APOS 30 DIAS DO VENCIMENTO.                                                                                                                                                                                                         01111900000000000000111190000000000000       0090770900066125658953111916000117
9                                                                                                                                                                                                                                                                                                                                                                                                         000118