01REMESSA01COBRANCA       00000000000005623874H B SANTOS CONSTRUTORA E INCOR237BRADESCO       010424        MX0000012                                                                                                                                                                                                                                                                                     000001
100000000000000000000009033990001086300000000000000000000000010002020087902704241900000000002            2  01879027042410042400000003450290000000001N010424000000000000000000000000000000000000000000000000000000000000000100087902737887WAGNER CERQUEIRA VILA NOVA              RUA JOAQUIM FERREIRA - 124 AP.211 T.01 -            05033080                                                            000002
2SR. CAIXA, APOS O VENCIMENTO COBRAR 2% DE MULTA                                 NAO RECEBER APOS 30 DIAS DO VENCIMENTO.                                                                                                                                                                                                         01042400000000000000104240000000000000       0090339900010863879027042419000003
100000000000000000000009033990001086300000000000000000000000010002020015095604241500000000002            2  01150956042410042400000003206480000000001N010424000000000000000000000000000000000000000000000000000000000000000100015095698803MARCOS CESAR SOUZA SENA                 RUA SALVADOR PELUSO BASILE - 381 - JARDI            06755010                                                            000005
2SR. CAIXA, APOS O VENCIMENTO COBRAR 2% DE MULTA                                 NAO RECEBER APOS 30 DIAS DO VENCIMENTO.                                                                                                                                                                                                         01042400000000000000104240000000000000       0090339900010863150956042415000006
100000000000000000000009033990001086300000000000000000000000010002020011947904241100000000002            2  01119479042410042400000003143080000000001N010424000000000000000000000000000000000000000000000000000000000000000100011947951882DECIO VITORINO DOS SANTOS               RUA GREGORIA DE FREGEL - 380 AP.21 BL24             09811430                                                            000008
2SR. CAIXA, APOS O VENCIMENTO COBRAR 2% DE MULTA                                 NAO RECEBER APOS 30 DIAS DO VENCIMENTO.                                                                                                                                                                                                         01042400000000000000104240000000000000       0090339900010863119479042411000009
100000000000000000000009033990001086300000000000000000000000010002020000181204241500000000002            2  01001812042410042400000002826350000000001N010424000000000000000000000000000000000000000000000000000000000000000100000181223023DARLIN SANTA CATARINA                   RUA S-13 QUADRA 60 LR 08 - 750 - SETOR S            77425090                                                            000011
2SR. CAIXA, APOS O VENCIMENTO COBRAR 2% DE MULTA                                 NAO RECEBER APOS 30 DIAS DO VENCIMENTO.                                                                                                                                                                                                         01042400000000000000104240000000000000       0090339900010863001812042415000012
100000000000000000000009033990001086300000000000000000000000010002020034311704241000000000002            2  01343117042410042400000003297470000000001N010424000000000000000000000000000000000000000000000000000000000000000100034311774842RAFAEL MARCOS SOUSA                     RUA AGUA BRANCA - 270 - JARDIM RUY BARBO            13219120                                                            000014
2SR. CAIXA, APOS O VENCIMENTO COBRAR 2% DE MULTA                                 NAO RECEBER APOS 30 DIAS DO VENCIMENTO.                                                                                                                                                                                                         01042400000000000000104240000000000000       0090339900010863343117042410000015
100000000000000000000009033990001086300000000000000000000000010002020035839604241400000000002            2  01358396042410042400000003282070000000001N010424000000000000000000000000000000000000000000000000000000000000000100035839657875JUNIOR SILVA TEODORO DOS SANTOS         RUA ARMANDO DE SALLES OLIVEIRA - 123 AP.            11510020                                                            000017
2SR. CAIXA, APOS O VENCIMENTO COBRAR 2% DE MULTA                                 NAO RECEBER APOS 30 DIAS DO VENCIMENTO.                                                                                                                                                                                                         01042400000000000000104240000000000000       0090339900010863358396042414000018
100000000000000000000009033990001086300000000000000000000000010002020030898204241800000000002            2  01308982042410042400000002994510000000001N010424000000000000000000000000000000000000000000000000000000000000000100030898241839LUIZ DANIEL CANNITO                     RUA FOZ DO DOURO - 195 CASA 01 - JARDIM             03924080                                                            000020
2SR. CAIXA, APOS O VENCIMENTO COBRAR 2% DE MULTA                                 NAO RECEBER APOS 30 DIAS DO VENCIMENTO.                                                                                                                                                                                                         01042400000000000000104240000000000000       0090339900010863308982042418000021
100000000000000000000009033990001086300000000000000000000000010002020018433904241800000000002            2  01184339042410042400000003196160000000001N010424000000000000000000000000000000000000000000000000000000000000000100018433908847TELMA CRISTIANY DE CAMPOS               AVENIDA MARECHAL MAURICIO JOSE CARDOSO -            11700140                                                            000023
2SR. CAIXA, APOS O VENCIMENTO COBRAR 2% DE MULTA                                 NAO RECEBER APOS 30 DIAS DO VENCIMENTO.                                                                                                                                                                                                         01042400000000000000104240000000000000       0090339900010863184339042418000024
100000000000000000000009033990001086300000000000000000000000010002020001803104241P00000000002            2  01018031042410042400000002916860000000001N010424000000000000000000000000000000000000000000000000000000000000000100001803106824MAGNA FLORA CALIS                       RUA DOS EXPEDICIONARIOS - 59 AP.13 - CAN            11700750                                                            000026
2SR. CAIXA, APOS O VENCIMENTO COBRAR 2% DE MULTA                                 NAO RECEBER APOS 30 DIAS DO VENCIMENTO.                                                                                                                                                                                                         01042400000000000000104240000000000000       009033990001086301803104241P000027
100000000000000000000009033990001086300000000000000000000000010002020026327304241900000000002            2  01263273042410042400000003132490000000001N010424000000000000000000000000000000000000000000000000000000000000000100026327304818GEANICE BARBOSA DA SILVA                RUA FLAMENGO - 77 - VILA GUILHERMINA - P            11701540                                                            000029
2SR. CAIXA, APOS O VENCIMENTO COBRAR 2% DE MULTA                                 NAO RECEBER APOS 30 DIAS DO VENCIMENTO.                                                                                                                                                                                                         01042400000000000000104240000000000000       0090339900010863263273042419000030
100000000000000000000009033990001086300000000000000000000000010002020008732204241900000000002            2  01087322042410042400000002833620000000001N010424000000000000000000000000000000000000000000000000000000000000000100008732244851JOSENILTON SOUSA DE OLIVEIRA            RUA GENERAL ISIDORO DIAS LOPES - 456 - B            08561410                                                            000032
2SR. CAIXA, APOS O VENCIMENTO COBRAR 2% DE MULTA                                 NAO RECEBER APOS 30 DIAS DO VENCIMENTO.                                                                                                                                                                                                         01042400000000000000104240000000000000       0090339900010863087322042419000033
100000000000000000000009033990001086300000000000000000000000010002020017372404241900000000002            2  01173724042410042400000003044850000000001N010424000000000000000000000000000000000000000000000000000000000000000100017372408822EDUARDO PEREIRA DA SILVA                AVENIDA PARIS - 587 - BOQUEIRAO - PRAIA             11700080                                                            000035
2SR. CAIXA, APOS O VENCIMENTO COBRAR 2% DE MULTA                                 NAO RECEBER APOS 30 DIAS DO VENCIMENTO.                                                                                                                                                                                                         01042400000000000000104240000000000000       0090339900010863173724042419000036
100000000000000000000009033990001086300000000000000000000000010002020003979204241000000000002            2  01039792042410042400000002830350000000001N010424000000000000000000000000000000000000000000000000000000000000000100003979280845JORGE LUIZ PARRA MORENO                 AVENIDA ALZIRA DE JESUS DA SILVA - 230 -            15061719                                                            000038
2SR. CAIXA, APOS O VENCIMENTO COBRAR 2% DE MULTA                                 NAO RECEBER APOS 30 DIAS DO VENCIMENTO.                                                                                                                                                                                                         01042400000000000000104240000000000000       0090339900010863039792042410000039
100000000000000000000009033990001086300000000000000000000000010002020026980304241300000000002            2  01269803042410042400000002590280000000001N010424000000000000000000000000000000000000000000000000000000000000000100026980385860DENISE CAMPOS MORALES GABRIEL           RUA QUINCIO PEIRAO - 27 AP.13 - PONTA DA            11030040                                                            000041
2SR. CAIXA, APOS O VENCIMENTO COBRAR 2% DE MULTA                                 NAO RECEBER APOS 30 DIAS DO VENCIMENTO.                                                                                                                                                                                                         01042400000000000000104240000000000000       0090339900010863269803042413000042
100000000000000000000009033990001086300000000000000000000000010002020034263804241000000000002            2  01342638042410042400000003281280000000001N010424000000000000000000000000000000000000000000000000000000000000000100034263879805LARISSA FERREIRA NONATO                 RUA HEIZO NAKANO - 65 CASA 71 - BAIRRO J            09811370                                                            000044
2SR. CAIXA, APOS O VENCIMENTO COBRAR 2% DE MULTA                                 NAO RECEBER APOS 30 DIAS DO VENCIMENTO.                                                                                                                                                                                                         01042400000000000000104240000000000000       0090339900010863342638042410000045
100000000000000000000009033990001086300000000000000000000000010002020025388004241400000000002            2  01253880042410042400000003036720000000001N010424000000000000000000000000000000000000000000000000000000000000000100025388047873DANIEL DA SILVA FERNANDES               AVENIDA PRESIDENTE CASTELO BRANCO - 4772            11702705                                                            000047
2SR. CAIXA, APOS O VENCIMENTO COBRAR 2% DE MULTA                                 NAO RECEBER APOS 30 DIAS DO VENCIMENTO.                                                                                                                                                                                                         01042400000000000000104240000000000000       0090339900010863253880042414000048
100000000000000000000009033990001086300000000000000000000000010002020035778004241700000000002            2  01357780042410042400000003020350000000001N010424000000000000000000000000000000000000000000000000000000000000000100035778038860BRUNA QUEIROZ MENDES                    RUA JOSE DA SILVA XAVIER - 91 - PARQUE S            11365260                                                            000050
2SR. CAIXA, APOS O VENCIMENTO COBRAR 2% DE MULTA                                 NAO RECEBER APOS 30 DIAS DO VENCIMENTO.                                                                                                                                                                                                         01042400000000000000104240000000000000       0090339900010863357780042417000051
9                                                                                                                                                                                                                                                                                                                                                                                                         000052