01REMESSA01COBRANCA       00000000000004991781AIRES CONSTRUTORA E INCORPORAD237BRADESCO       010420        MX0000139                                                                                                                                                                                                                                                                                     000001
100000000000000000000009077090006612500000000000000000000000010002100001224504201P00000000002            2  01012245042025042000000003794580000000001N010420000000000000000000000000000000000000000000000000000000000000000100001224509579REINALDO JUNIOR MARTINS DE ABREU        AVENIDA INTERLAGOS - 6485 SALA 6 - INTER            04777000                                                            000002
2SR. CAIXA, APOS O VENCIMENTO COBRAR 10% DE MULTA                                NAO RECEBER APOS 30 DIAS DO VENCIMENTO.                                                                                                                                                                                                         01042000000000000000104200000000000000       009077090006612501224504201P000003
100000000000000000000009077090006612500000000000000000000000010002100016338904201200000000002            2  01163389042025042000000003744040000000001N010420000000000000000000000000000000000000000000000000000000000000000100016338929806EDVALDO DA SILVA ANDRADE                RUA ARIA - 434 - PARQUE ALVES DE LIMA -             04902170                                                            000005
2SR. CAIXA, APOS O VENCIMENTO COBRAR 10% DE MULTA                                NAO RECEBER APOS 30 DIAS DO VENCIMENTO.                                                                                                                                                                                                         01042000000000000000104200000000000000       0090770900066125163389042012000006
100000000000000000000009077090006612500000000000000000000000010002100026836904201200000000002            2  01268369042025042000000003390510000000001N010420000000000000000000000000000000000000000000000000000000000000000100026836908860VANDERLEI FIGUEIREDO DE CARVALHO        RUA SANTO ANTONIO DE PADUA - 213 BLOCO 3            11717070                                                            000008
2SR. CAIXA, APOS O VENCIMENTO COBRAR 10% DE MULTA                                NAO RECEBER APOS 30 DIAS DO VENCIMENTO.                                                                                                                                                                                                         01042000000000000000104200000000000000       0090770900066125268369042012000009
100000000000000000000009077090006612500000000000000000000000010002100029380704201700000000002            2  01293807042025042000000003390710000000001N010420000000000000000000000000000000000000000000000000000000000000000100029380708882EDUARDO MENDONCA DAMASCENO              RUA MONTE CASTELO - 296 AP.12 - AVIACAO             11702720                                                            000011
2SR. CAIXA, APOS O VENCIMENTO COBRAR 10% DE MULTA                                NAO RECEBER APOS 30 DIAS DO VENCIMENTO.                                                                                                                                                                                                         01042000000000000000104200000000000000       0090770900066125293807042017000012
100000000000000000000009077090006612500000000000000000000000010002100023988504201000000000002            2  01239885042025042000000003442870000000001N010420000000000000000000000000000000000000000000000000000000000000000100023988525634DALMY PIMENTA                           SAO CAETANO - 136 - VILA SAO VICENTE - U            38026220                                                            000014
2SR. CAIXA, APOS O VENCIMENTO COBRAR 10% DE MULTA                                NAO RECEBER APOS 30 DIAS DO VENCIMENTO.                                                                                                                                                                                                         01042000000000000000104200000000000000       0090770900066125239885042010000015
100000000000000000000009077090006612500000000000000000000000010002100004735204201200000000002            2  01047352042025042000000003743320000000001N010420000000000000000000000000000000000000000000000000000000000000000100004735273832DARIO LUIZ GONCALVES                    RUA MONTE CASTELO - 295 AP.113 - AVIACAO            11702720                                                            000017
2SR. CAIXA, APOS O VENCIMENTO COBRAR 10% DE MULTA                                NAO RECEBER APOS 30 DIAS DO VENCIMENTO.                                                                                                                                                                                                         01042000000000000000104200000000000000       0090770900066125047352042012000018
100000000000000000000009077090006612500000000000000000000000010002100007635204201200000000002            2  01076352042025042000000003346760000000001N010420000000000000000000000000000000000000000000000000000000000000000100007635293893SILVIO CARDOSO ZACARIAS                 RUA SOLIDONIO LEITE - 2718 AP.102 BLOCO             03275000                                                            000020
2SR. CAIXA, APOS O VENCIMENTO COBRAR 10% DE MULTA                                NAO RECEBER APOS 30 DIAS DO VENCIMENTO.                                                                                                                                                                                                         01042000000000000000104200000000000000       0090770900066125076352042012000021
100000000000000000000009077090006612500000000000000000000000010002100007975904201600000000002            2  01079759042025042000000003641090000000001N010420000000000000000000000000000000000000000000000000000000000000000100007975958808JOCY VIGNADO                            RUA PEDRO GONCALVES SOBRINHO - 568 - PAR            13098641                                                            000023
2SR. CAIXA, APOS O VENCIMENTO COBRAR 10% DE MULTA                                NAO RECEBER APOS 30 DIAS DO VENCIMENTO.                                                                                                                                                                                                         01042000000000000000104200000000000000       0090770900066125079759042016000024
100000000000000000000009077090006612500000000000000000000000010002100036386804201800000000002            2  01363868042025042000000003845530000000001N010420000000000000000000000000000000000000000000000000000000000000000100036386861833ALINE LEE WEI DE SOUZA                  AV. PRES.CASTELO BRANCO - 9127 AP.251 BL            11704600                                                            000026
2SR. CAIXA, APOS O VENCIMENTO COBRAR 10% DE MULTA                                NAO RECEBER APOS 30 DIAS DO VENCIMENTO.                                                                                                                                                                                                         01042000000000000000104200000000000000       0090770900066125363868042018000027
100000000000000000000009077090006612500000000000000000000000010002100070465304201900000000002            2  01704653042025042000000001048000000000001N010420000000000000000000000000000000000000000000000000000000000000000100070465320953SIDNEY CARASKI                          RUA DR.CELSO PACHECO BENTIM - 502 - PARQ            03571020                                                            000029
2SR. CAIXA, APOS O VENCIMENTO COBRAR 10% DE MULTA                                NAO RECEBER APOS 30 DIAS DO VENCIMENTO.                                                                                                                                                                                                         01042000000000000000104200000000000000       0090770900066125704653042019000030
100000000000000000000009077090006612500000000000000000000000010002100075759404201400000000002            2  01757594042025042000000002739250000000001N010420000000000000000000000000000000000000000000000000000000000000000100075759446800VALTER MUTAFEI                          RUA MONTE CASTELO - 295 AP.54 - AVIACAO             11702720                                                            000032
2SR. CAIXA, APOS O VENCIMENTO COBRAR 10% DE MULTA                                NAO RECEBER APOS 30 DIAS DO VENCIMENTO.                                                                                                                                                                                                         01042000000000000000104200000000000000       0090770900066125757594042014000033
100000000000000000000009077090006612500000000000000000000000010002100023132604201800000000002            2  01231326042025042000000002125860000000001N010420000000000000000000000000000000000000000000000000000000000000000100023132672882LEANDRO MORENO                          RUA MONTE CASTELO - 296 AP.64 - AVIACAO             11702720                                                            000035
2SR. CAIXA, APOS O VENCIMENTO COBRAR 10% DE MULTA                                NAO RECEBER APOS 30 DIAS DO VENCIMENTO.                                                                                                                                                                                                         01042000000000000000104200000000000000       0090770900066125231326042018000036
100000000000000000000009077090006612500000000000000000000000010002100099264604201700000000002            2  01992646042025042000000003625470000000001N010420000000000000000000000000000000000000000000000000000000000000000100099264692800LEONTINO PINHEIRO DA SILVA              AVENIDA JOAO BATISTA FITIPALDI - 469 - V            08685000                                                            000038
2SR. CAIXA, APOS O VENCIMENTO COBRAR 10% DE MULTA                                NAO RECEBER APOS 30 DIAS DO VENCIMENTO.                                                                                                                                                                                                         01042000000000000000104200000000000000       0090770900066125992646042017000039
100000000000000000000009077090006612500000000000000000000000010002100000666304201800000000002            2  01006663042025042000000003497570000000001N010420000000000000000000000000000000000000000000000000000000000000000100000666344825LUIZ HENRIQUE DE CAMPOS                 RUA JOAO CARLOS CAVALCANTI REIS - 21 - J            02281206                                                            000041
2SR. CAIXA, APOS O VENCIMENTO COBRAR 10% DE MULTA                                NAO RECEBER APOS 30 DIAS DO VENCIMENTO.                                                                                                                                                                                                         01042000000000000000104200000000000000       0090770900066125006663042018000042
100000000000000000000009077090006612500000000000000000000000010002100029155004201800000000002            2  01291550042025042000000003693570000000001N010420000000000000000000000000000000000000000000000000000000000000000100029155026842DANIELA YOSHIDA                         RUA MONTE CASTELO - 262 AP.34 - AVIACAO             11702720                                                            000044
2SR. CAIXA, APOS O VENCIMENTO COBRAR 10% DE MULTA                                NAO RECEBER APOS 30 DIAS DO VENCIMENTO.                                                                                                                                                                                                         01042000000000000000104200000000000000       0090770900066125291550042018000045
100000000000000000000009077090006612500000000000000000000000010002100001204404201100000000002            2  01012044042025042000000003007900000000001N010420000000000000000000000000000000000000000000000000000000000000000100001204431809CEZAR TALAVERA JUNIOR                   RUA MAESTRO ARTURO DE ANGELIS  - 190 AP.            05139010                                                            000047
2SR. CAIXA, APOS O VENCIMENTO COBRAR 10% DE MULTA                                NAO RECEBER APOS 30 DIAS DO VENCIMENTO.                                                                                                                                                                                                         01042000000000000000104200000000000000       0090770900066125012044042011000048
100000000000000000000009077090006612500000000000000000000000010002100004227504201000000000002            2  01042275042025042000000003899130000000001N010420000000000000000000000000000000000000000000000000000000000000000100004227553970ALESSANDRO ISRAEL GOULART               RUA PROFESSORA CARLINDA RIBEIRO - 21 - F            02866200                                                            000050
2SR. CAIXA, APOS O VENCIMENTO COBRAR 10% DE MULTA                                NAO RECEBER APOS 30 DIAS DO VENCIMENTO.                                                                                                                                                                                                         01042000000000000000104200000000000000       0090770900066125042275042010000051
100000000000000000000009077090006612500000000000000000000000010002100060811404201400000000002            2  01608114042025042000000003593490000000001N010420000000000000000000000000000000000000000000000000000000000000000100060811420868HELIO BASSI                             AV.PARIS,575 - PRACA ANTONIO FIGUEROA -             11700082                                                            000053
2SR. CAIXA, APOS O VENCIMENTO COBRAR 10% DE MULTA                                NAO RECEBER APOS 30 DIAS DO VENCIMENTO.                                                                                                                                                                                                         01042000000000000000104200000000000000       0090770900066125608114042014000054
100000000000000000000009077090006612500000000000000000000000010002100001024704201400000000002            2  01010247042025042000000003400410000000001N010420000000000000000000000000000000000000000000000000000000000000000100001024794881CLAUDIO RODRIGUES                       RUA ARACATUBA - 242 - LAPA - SAO PAULO -            05058010                                                            000056
2SR. CAIXA, APOS O VENCIMENTO COBRAR 10% DE MULTA                                NAO RECEBER APOS 30 DIAS DO VENCIMENTO.                                                                                                                                                                                                         01042000000000000000104200000000000000       0090770900066125010247042014000057
100000000000000000000009077090006612500000000000000000000000010002100002225004201500000000002            2  01022250042025042000000005213280000000001N010420000000000000000000000000000000000000000000000000000000000000000100002225072841PEDRO EDUARDO DE AZEVEDO                RUA NATH ZILMAN - 46 - JARDIM SAMAMBAIA             07623085                                                            000059
2SR. CAIXA, APOS O VENCIMENTO COBRAR 10% DE MULTA                                NAO RECEBER APOS 30 DIAS DO VENCIMENTO.                                                                                                                                                                                                         01042000000000000000104200000000000000       0090770900066125022250042015000060
100000000000000000000009077090006612500000000000000000000000010002100022037504201300000000002            2  01220375042025042000000003627870000000001N010420000000000000000000000000000000000000000000000000000000000000000100022037552882ANDREIA CRISTINA FERNANDES DANTAS       PCA CASTRO ALVES - 163 AP.33 - VILA SAO             13224299                                                            000062
2SR. CAIXA, APOS O VENCIMENTO COBRAR 10% DE MULTA                                NAO RECEBER APOS 30 DIAS DO VENCIMENTO.                                                                                                                                                                                                         01042000000000000000104200000000000000       0090770900066125220375042013000063
100000000000000000000009077090006612500000000000000000000000010002100019288704201100000000002            2  01192887042025042000000002953900000000001N010420000000000000000000000000000000000000000000000000000000000000000100019288787844EMERSON LUIZ MARTINEZ PEREIRA           RUA MONTE CASTELO - 296 AP.74 - AVIACAO             11702720                                                            000065
2SR. CAIXA, APOS O VENCIMENTO COBRAR 10% DE MULTA                                NAO RECEBER APOS 30 DIAS DO VENCIMENTO.                                                                                                                                                                                                         01042000000000000000104200000000000000       0090770900066125192887042011000066
100000000000000000000009077090006612500000000000000000000000010002100027198404201500000000002            2  01271984042025042000000002502110000000001N010420000000000000000000000000000000000000000000000000000000000000000100027198452809CRISTIANE AURELIANO DA SILVA MAIA       RUA MONTE CASTELO - 262 AP.25 - AVIACAO             11702720                                                            000068
2SR. CAIXA, APOS O VENCIMENTO COBRAR 10% DE MULTA                                NAO RECEBER APOS 30 DIAS DO VENCIMENTO.                                                                                                                                                                                                         01042000000000000000104200000000000000       0090770900066125271984042015000069
100000000000000000000009077090006612500000000000000000000000010002100021246204201900000000002            2  01212462042025042000000003053590000000001N010420000000000000000000000000000000000000000000000000000000000000000100021246231840ALEXANDRO DA CUNHA MIGUES               RUA DULCE - 71  - VILA CARRAO - SAO PAUL            03427040                                                            000071
2SR. CAIXA, APOS O VENCIMENTO COBRAR 10% DE MULTA                                NAO RECEBER APOS 30 DIAS DO VENCIMENTO.                                                                                                                                                                                                         01042000000000000000104200000000000000       0090770900066125212462042019000072
100000000000000000000009077090006612500000000000000000000000010002100018470504201900000000002            2  01184705042025042000000004492270000000001N010420000000000000000000000000000000000000000000000000000000000000000100018470520881SILVANA ALVES DE OLIVEIRA               RUA MONTE CASTELO - 262 AP.91 - AVIACAO             11702720                                                            000074
2SR. CAIXA, APOS O VENCIMENTO COBRAR 10% DE MULTA                                NAO RECEBER APOS 30 DIAS DO VENCIMENTO.                                                                                                                                                                                                         01042000000000000000104200000000000000       0090770900066125184705042019000075
100000000000000000000009077090006612500000000000000000000000010002100009297504201900000000002            2  01092975042025042000000003127470000000001N010420000000000000000000000000000000000000000000000000000000000000000100009297523846MARCOS ROBERTO DE CASTRO FERREIRA       RUA MONTE CASTELO - 262 AP.105 - AVIACAO            11702720                                                            000077
2SR. CAIXA, APOS O VENCIMENTO COBRAR 10% DE MULTA                                NAO RECEBER APOS 30 DIAS DO VENCIMENTO.                                                                                                                                                                                                         01042000000000000000104200000000000000       0090770900066125092975042019000078
100000000000000000000009077090006612500000000000000000000000010002100001164104201800000000002            2  01011641042025042000000003875640000000001N010420000000000000000000000000000000000000000000000000000000000000000100001164158864DAVID BLEY LACERDA                      RUA CONEGO ARAUJO MARCONDES - 188 - BAIR            02550080                                                            000080
2SR. CAIXA, APOS O VENCIMENTO COBRAR 10% DE MULTA                                NAO RECEBER APOS 30 DIAS DO VENCIMENTO.                                                                                                                                                                                                         01042000000000000000104200000000000000       0090770900066125011641042018000081
100000000000000000000009077090006612500000000000000000000000010002100031498004201100000000002            2  01314980042025042000000004710280000000001N010420000000000000000000000000000000000000000000000000000000000000000100031498008895POLIANE  SIBELE DA SILVA                PRACA GENERAL COSTA BARRETO - 56 AP.181             03325070                                                            000083
2SR. CAIXA, APOS O VENCIMENTO COBRAR 10% DE MULTA                                NAO RECEBER APOS 30 DIAS DO VENCIMENTO.                                                                                                                                                                                                         01042000000000000000104200000000000000       0090770900066125314980042011000084
100000000000000000000009077090006612500000000000000000000000010002100000588104201500000000002            2  01005881042025042000000002762680000000001N010420000000000000000000000000000000000000000000000000000000000000000100000588109860JOSE LIARTE GIANTE                      AVENIDA LUIZ GONZAGA DO AMARAL - 143 - J            09320630                                                            000086
2SR. CAIXA, APOS O VENCIMENTO COBRAR 10% DE MULTA                                NAO RECEBER APOS 30 DIAS DO VENCIMENTO.                                                                                                                                                                                                         01042000000000000000104200000000000000       0090770900066125005881042015000087
100000000000000000000009077090006612500000000000000000000000010002100014386804201800000000002            2  01143868042025042000000002210020000000001N010420000000000000000000000000000000000000000000000000000000000000000100014386860134SEVERINO CARLOS DE OLIVEIRA             RUA MONTE CASTELO - 262 AP.54 - AVIACAO             11702720                                                            000089
2SR. CAIXA, APOS O VENCIMENTO COBRAR 10% DE MULTA                                NAO RECEBER APOS 30 DIAS DO VENCIMENTO.                                                                                                                                                                                                         01042000000000000000104200000000000000       0090770900066125143868042018000090
100000000000000000000009077090006612500000000000000000000000010002100039393704201300000000002            2  01393937042025042000000001523160000000001N010420000000000000000000000000000000000000000000000000000000000000000100039393790850NAIRON RICARDO DE ARAUJO SANTOS         RUA NITEROI - 267 CASA 04 - JARDIM INDEP            11380350                                                            000092
2SR. CAIXA, APOS O VENCIMENTO COBRAR 10% DE MULTA                                NAO RECEBER APOS 30 DIAS DO VENCIMENTO.                                                                                                                                                                                                         01042000000000000000104200000000000000       0090770900066125393937042013000093
100000000000000000000009077090006612500000000000000000000000010002100041896804201400000000002            2  01418968042025042000000002218240000000001N010420000000000000000000000000000000000000000000000000000000000000000100041896807968SERGIO ROBERTO DA SILVA                 RUA DOS INGLESES - 542 AP.61 - MORRO DOS            01329000                                                            000095
2SR. CAIXA, APOS O VENCIMENTO COBRAR 10% DE MULTA                                NAO RECEBER APOS 30 DIAS DO VENCIMENTO.                                                                                                                                                                                                         01042000000000000000104200000000000000       0090770900066125418968042014000096
9                                                                                                                                                                                                                                                                                                                                                                                                         000097