01REMESSA01COBRANCA       00000000000005316116AIRES CONSTRUTORA E INCORPORAD237BRADESCO       100822        MX0000200                                                                                                                                                                                                                                                                                     000001
100000000000000000000009002800441612000000000000000000000000010002100029155008221400000000002            2  01291550082225082200000004288160000000001N090822000000000000000000000000000000000000000000000000000000000000000100029155026842DANIELA YOSHIDA                         RUA MONTE CASTELO - 262 AP.34 - AVIACAO             11702720                                                            000002
2SR. CAIXA, APOS O VENCIMENTO COBRAR 10% DE MULTA                                NAO RECEBER APOS 30 DIAS DO VENCIMENTO.                                                                                                                                                                                                         10082200000000000001008220000000000000       0090028004416120291550082214000003
100000000000000000000009002800441612000000000000000000000000010002100001204408221800000000002            2  01012044082225082200000003492160000000001N090822000000000000000000000000000000000000000000000000000000000000000100001204431809CEZAR TALAVERA JUNIOR                   RUA MAESTRO ARTURO DE ANGELIS  - 190 AP.            05139010                                                            000005
2SR. CAIXA, APOS O VENCIMENTO COBRAR 10% DE MULTA                                NAO RECEBER APOS 30 DIAS DO VENCIMENTO.                                                                                                                                                                                                         10082200000000000001008220000000000000       0090028004416120012044082218000006
100000000000000000000009002800441612000000000000000000000000010002100004227508221700000000002            2  01042275082225082200000004526880000000001N090822000000000000000000000000000000000000000000000000000000000000000100004227553970ALESSANDRO ISRAEL GOULART               RUA PROFESSORA CARLINDA RIBEIRO - 21 - F            02866200                                                            000008
2SR. CAIXA, APOS O VENCIMENTO COBRAR 10% DE MULTA                                NAO RECEBER APOS 30 DIAS DO VENCIMENTO.                                                                                                                                                                                                         10082200000000000001008220000000000000       0090028004416120042275082217000009
100000000000000000000009002800441612000000000000000000000000010002100001024708221000000000002            2  01010247082225082200000003947840000000001N090822000000000000000000000000000000000000000000000000000000000000000100001024794881CLAUDIO RODRIGUES                       RUA ARACATUBA - 242 - LAPA - SAO PAULO -            05058010                                                            000011
2SR. CAIXA, APOS O VENCIMENTO COBRAR 10% DE MULTA                                NAO RECEBER APOS 30 DIAS DO VENCIMENTO.                                                                                                                                                                                                         10082200000000000001008220000000000000       0090028004416120010247082210000012
100000000000000000000009002800441612000000000000000000000000010002100002225008221100000000002            2  01022250082225082200000006052560000000001N090822000000000000000000000000000000000000000000000000000000000000000100002225072841PEDRO EDUARDO DE AZEVEDO                RUA NATH ZILMAN - 46 - JARDIM SAMAMBAIA             07623085                                                            000014
2SR. CAIXA, APOS O VENCIMENTO COBRAR 10% DE MULTA                                NAO RECEBER APOS 30 DIAS DO VENCIMENTO.                                                                                                                                                                                                         10082200000000000001008220000000000000       0090028004416120022250082211000015
100000000000000000000009002800441612000000000000000000000000010002100027198408221100000000002            2  01271984082225082200000002904910000000001N090822000000000000000000000000000000000000000000000000000000000000000100027198452809CRISTIANE AURELIANO DA SILVA MAIA       RUA MONTE CASTELO - 262 AP.25 - AVIACAO             11702720                                                            000017
2SR. CAIXA, APOS O VENCIMENTO COBRAR 10% DE MULTA                                NAO RECEBER APOS 30 DIAS DO VENCIMENTO.                                                                                                                                                                                                         10082200000000000001008220000000000000       0090028004416120271984082211000018
100000000000000000000009002800441612000000000000000000000000010002100021246208221500000000002            2  01212462082225082200000003545200000000001N090822000000000000000000000000000000000000000000000000000000000000000100021246231840ALEXANDRO DA CUNHA MIGUES               RUA DULCE - 71  - VILA CARRAO - SAO PAUL            03427040                                                            000020
2SR. CAIXA, APOS O VENCIMENTO COBRAR 10% DE MULTA                                NAO RECEBER APOS 30 DIAS DO VENCIMENTO.                                                                                                                                                                                                         10082200000000000001008220000000000000       0090028004416120212462082215000021
100000000000000000000009002800441612000000000000000000000000010002100018470508221500000000002            2  01184705082225082200000005215500000000001N090822000000000000000000000000000000000000000000000000000000000000000100018470520881SILVANA ALVES DE OLIVEIRA               RUA MONTE CASTELO - 262 AP.91 - AVIACAO             11702720                                                            000023
2SR. CAIXA, APOS O VENCIMENTO COBRAR 10% DE MULTA                                NAO RECEBER APOS 30 DIAS DO VENCIMENTO.                                                                                                                                                                                                         10082200000000000001008220000000000000       0090028004416120184705082215000024
100000000000000000000009002800441612000000000000000000000000010002100009297508221500000000002            2  01092975082225082200000003630960000000001N090822000000000000000000000000000000000000000000000000000000000000000100009297523846MARCOS ROBERTO DE CASTRO FERREIRA       RUA MONTE CASTELO - 262 AP.105 - AVIACAO            11702720                                                            000026
2SR. CAIXA, APOS O VENCIMENTO COBRAR 10% DE MULTA                                NAO RECEBER APOS 30 DIAS DO VENCIMENTO.                                                                                                                                                                                                         10082200000000000001008220000000000000       0090028004416120092975082215000027
100000000000000000000009002800441612000000000000000000000000010002100001164108221400000000002            2  01011641082225082200000004499590000000001N090822000000000000000000000000000000000000000000000000000000000000000100001164158864DAVID BLEY LACERDA                      RUA CONEGO ARAUJO MARCONDES - 188 - BAIR            02550080                                                            000029
2SR. CAIXA, APOS O VENCIMENTO COBRAR 10% DE MULTA                                NAO RECEBER APOS 30 DIAS DO VENCIMENTO.                                                                                                                                                                                                         10082200000000000001008220000000000000       0090028004416120011641082214000030
100000000000000000000009002800441612000000000000000000000000010002100031498008221800000000002            2  01314980082225082200000005468610000000001N090822000000000000000000000000000000000000000000000000000000000000000100031498008895POLIANE  SIBELE DA SILVA                PRACA GENERAL COSTA BARRETO - 56 AP.181             03325070                                                            000032
2SR. CAIXA, APOS O VENCIMENTO COBRAR 10% DE MULTA                                NAO RECEBER APOS 30 DIAS DO VENCIMENTO.                                                                                                                                                                                                         10082200000000000001008220000000000000       0090028004416120314980082218000033
100000000000000000000009002800441612000000000000000000000000010002100014386808221400000000002            2  01143868082225082200000002565830000000001N090822000000000000000000000000000000000000000000000000000000000000000100014386860134SEVERINO CARLOS DE OLIVEIRA             RUA MONTE CASTELO - 262 AP.54 - AVIACAO             11702720                                                            000035
2SR. CAIXA, APOS O VENCIMENTO COBRAR 10% DE MULTA                                NAO RECEBER APOS 30 DIAS DO VENCIMENTO.                                                                                                                                                                                                         10082200000000000001008220000000000000       0090028004416120143868082214000036
100000000000000000000009002800441612000000000000000000000000010002100039393708221P00000000002            2  01393937082225082200000001768430000000001N090822000000000000000000000000000000000000000000000000000000000000000100039393790850NAIRON RICARDO DE ARAUJO SANTOS         RUA NITEROI - 267 CASA 04 - JARDIM INDEP            11380350                                                            000038
2SR. CAIXA, APOS O VENCIMENTO COBRAR 10% DE MULTA                                NAO RECEBER APOS 30 DIAS DO VENCIMENTO.                                                                                                                                                                                                         10082200000000000001008220000000000000       009002800441612039393708221P000039
100000000000000000000009002800441612000000000000000000000000010002100019288708221800000000002            2  01192887082225082200000002381570000000001N090822000000000000000000000000000000000000000000000000000000000000000100019288787844EMERSON LUIZ MARTINEZ PEREIRA           RUA MONTE CASTELO - 296 AP.74 - AVIACAO             11702720                                                            000041
2SR. CAIXA, APOS O VENCIMENTO COBRAR 10% DE MULTA                                NAO RECEBER APOS 30 DIAS DO VENCIMENTO.                                                                                                                                                                                                         10082200000000000001008220000000000000       0090028004416120192887082218000042
9                                                                                                                                                                                                                                                                                                                                                                                                         000043