01REMESSA01COBRANCA       00000000000008017025HB SANTOS CONSTRUTORA E INCORP237BRADESCO       151018        MX0000065                                                                                                                                                                                                                                                                                     000001
100000000000000000000009033990000627000000000000000000000000010002020025035110181300000000002            2  01250351101824101800000001940700000000001N111018000000000000000000000000000000000000000000000000000000000000000100025035170802WANDERSON LUIS DE CARVALHO              RUA JOAQUIM GONCALVES ROCHA - 302 - JARD            02859030                                                            000002
2SR. CAIXA, APOS O VENCIMENTO COBRAR 2% DE MULTA                                 NAO RECEBER APOS 30 DIAS DO VENCIMENTO.                                                                                                                                                                                                         15101800000000000001510180000000000000       0090339900006270250351101813000003
100000000000000000000009033990000627000000000000000000000000010002020007294310181000000000002            2  01072943101824101800000002610290000000001N111018000000000000000000000000000000000000000000000000000000000000000100007294351805CLAUDENIR APARECIDO VACARI              RUA CARLOS JOSE BORSTENS - 50 AP.93 - AV            11702750                                                            000005
2SR. CAIXA, APOS O VENCIMENTO COBRAR 2% DE MULTA                                 NAO RECEBER APOS 30 DIAS DO VENCIMENTO.                                                                                                                                                                                                         15101800000000000001510180000000000000       0090339900006270072943101810000006
100000000000000000000009033990000627000000000000000000000000010002020042976110181000000000002            2  01429761101824101800000002637680000000001N111018000000000000000000000000000000000000000000000000000000000000000100042976111634ACACIO TOSCANO BONDANCA                 RUA COMENDADOR JACOMO ANTONIO LA SELVA -            12946797                                                            000008
2SR. CAIXA, APOS O VENCIMENTO COBRAR 2% DE MULTA                                 NAO RECEBER APOS 30 DIAS DO VENCIMENTO.                                                                                                                                                                                                         15101800000000000001510180000000000000       0090339900006270429761101810000009
100000000000000000000009033990000627000000000000000000000000010002020035438010181400000000002            2  01354380101824101800000002227650000000001N111018000000000000000000000000000000000000000000000000000000000000000100035438022836ALESSANDRO FARACO DOS SANTOS            RUA PEDRO POMAR  - 145 - JARDIM ELISA MA            02875020                                                            000011
2SR. CAIXA, APOS O VENCIMENTO COBRAR 2% DE MULTA                                 NAO RECEBER APOS 30 DIAS DO VENCIMENTO.                                                                                                                                                                                                         15101800000000000001510180000000000000       0090339900006270354380101814000012
100000000000000000000009033990000627000000000000000000000000010002020007525010181600000000002            2  01075250101824101800000002919710000000001N111018000000000000000000000000000000000000000000000000000000000000000100007525032866FERNANDO RIBEIRO                        RUA ALDO COLI - 539 - VILA MIRIM - PRAIA            11704760                                                            000014
2SR. CAIXA, APOS O VENCIMENTO COBRAR 2% DE MULTA                                 NAO RECEBER APOS 30 DIAS DO VENCIMENTO.                                                                                                                                                                                                         15101800000000000001510180000000000000       0090339900006270075250101816000015
100000000000000000000009033990000627000000000000000000000000010002020005071410181100000000002            2  01050714101824101800000002561140000000001N111018000000000000000000000000000000000000000000000000000000000000000100005071481855ERIBALDO SANTANA CARVALHO               RUA HONDURAS - 477 - PARQUE DAS AMERICAS            09351070                                                            000017
2SR. CAIXA, APOS O VENCIMENTO COBRAR 2% DE MULTA                                 NAO RECEBER APOS 30 DIAS DO VENCIMENTO.                                                                                                                                                                                                         15101800000000000001510180000000000000       0090339900006270050714101811000018
100000000000000000000009033990000627000000000000000000000000010002020002841710181500000000002            2  01028417101824101800000002396170000000001N111018000000000000000000000000000000000000000000000000000000000000000100002841756416LUCIANA PINHEIRO DE ASSIS NUNES         RUA RIO ACIMA - 81 - RIACHO GRANDE - SAO            09830100                                                            000020
2SR. CAIXA, APOS O VENCIMENTO COBRAR 2% DE MULTA                                 NAO RECEBER APOS 30 DIAS DO VENCIMENTO.                                                                                                                                                                                                         15101800000000000001510180000000000000       0090339900006270028417101815000021
100000000000000000000009033990000627000000000000000000000000010002020084302010181400000000002            2  01843020101824101800000002407670000000001N111018000000000000000000000000000000000000000000000000000000000000000100084302097868FAUSTO TADEU VILOR                      RUA ANTONIO TAVARES - 466 - BAIRRO CAMBU            01542010                                                            000023
2SR. CAIXA, APOS O VENCIMENTO COBRAR 2% DE MULTA                                 NAO RECEBER APOS 30 DIAS DO VENCIMENTO.                                                                                                                                                                                                         15101800000000000001510180000000000000       0090339900006270843020101814000024
100000000000000000000009033990000627000000000000000000000000010002020028804210181400000000002            2  01288042101824101800000002365560000000001N111018000000000000000000000000000000000000000000000000000000000000000100028804202882GILBERTO FABIANO CABRAL DE CAMARGO      RUA CARLOS JOSE BORSTENS - 50 AP.44 - AV            11702750                                                            000026
2SR. CAIXA, APOS O VENCIMENTO COBRAR 2% DE MULTA                                 NAO RECEBER APOS 30 DIAS DO VENCIMENTO.                                                                                                                                                                                                         15101800000000000001510180000000000000       0090339900006270288042101814000027
100000000000000000000009033990000627000000000000000000000000010002020000991710181700000000002            2  01009917101824101800000002308860000000001N111018000000000000000000000000000000000000000000000000000000000000000100000991748808JAILSON BORGES DE ANDRADE               RUA IPIOBUNA - 45 - JARDIM CUMBICA - GUA            07240040                                                            000029
2SR. CAIXA, APOS O VENCIMENTO COBRAR 2% DE MULTA                                 NAO RECEBER APOS 30 DIAS DO VENCIMENTO.                                                                                                                                                                                                         15101800000000000001510180000000000000       0090339900006270009917101817000030
100000000000000000000009033990000627000000000000000000000000010002020092180210181400000000002            2  01921802101824101800000003147870000000001N111018000000000000000000000000000000000000000000000000000000000000000100092180299834LUIS ROBERTO DE SA DUARTE               RUA TEBAS - 296 AP.84 BLOCO 2 CE - JARDI            04634031                                                            000032
2SR. CAIXA, APOS O VENCIMENTO COBRAR 2% DE MULTA                                 NAO RECEBER APOS 30 DIAS DO VENCIMENTO.                                                                                                                                                                                                         15101800000000000001510180000000000000       0090339900006270921802101814000033
100000000000000000000009033990000627000000000000000000000000010002020022151610181300000000002            2  01221516101824101800000002295470000000001N111018000000000000000000000000000000000000000000000000000000000000000100022151666816SAMIR LIMA DE ARAUJO                    AVENIDA GUARAPIRANGA - 2616 AP.42 BLOCO1            04902005                                                            000035
2SR. CAIXA, APOS O VENCIMENTO COBRAR 2% DE MULTA                                 NAO RECEBER APOS 30 DIAS DO VENCIMENTO.                                                                                                                                                                                                         15101800000000000001510180000000000000       0090339900006270221516101813000036
100000000000000000000009033990000627000000000000000000000000010002020022313110181500000000002            2  01223131101826101800000001792290000000001N111018000000000000000000000000000000000000000000000000000000000000000100022313116824ROSA MARIA BRITO DA SILVA               RUA SERVIDAO DE SAO MARCOS - 113 - JARDI            04930300                                                            000038
2SR. CAIXA, APOS O VENCIMENTO COBRAR 2% DE MULTA                                 NAO RECEBER APOS 30 DIAS DO VENCIMENTO.                                                                                                                                                                                                         15101800000000000001510180000000000000       0090339900006270223131101815000039
100000000000000000000009033990000627000000000000000000000000010002020027538010181700000000002            2  01275380101826101800000001798540000000001N111018000000000000000000000000000000000000000000000000000000000000000100027538087249MARA LUCIA MENEZES DA COSTA             RUA LEILA  - 183 - ITAQUERA - SAO PAULO             08240020                                                            000041
2SR. CAIXA, APOS O VENCIMENTO COBRAR 2% DE MULTA                                 NAO RECEBER APOS 30 DIAS DO VENCIMENTO.                                                                                                                                                                                                         15101800000000000001510180000000000000       0090339900006270275380101817000042
100000000000000000000009033990000627000000000000000000000000010002020020105510181500000000002            2  01201055101826101800000001904000000000001N111018000000000000000000000000000000000000000000000000000000000000000100020105503827VALTER DE SOUSA LIBARINO FILHO          RUA DAS PAINEIRAS - 140 - LARANJEIRAS -             07700000                                                            000044
2SR. CAIXA, APOS O VENCIMENTO COBRAR 2% DE MULTA                                 NAO RECEBER APOS 30 DIAS DO VENCIMENTO.                                                                                                                                                                                                         15101800000000000001510180000000000000       0090339900006270201055101815000045
100000000000000000000009033990000627000000000000000000000000010002020031278410181300000000002            2  01312784101824101800000002217490000000001N111018000000000000000000000000000000000000000000000000000000000000000100031278411836JEFFERSON DE PIERI PIRES ZAMUNER        RUA MANOEL ARCE - 277 - PARQUE BANCARIO             03922150                                                            000047
2SR. CAIXA, APOS O VENCIMENTO COBRAR 2% DE MULTA                                 NAO RECEBER APOS 30 DIAS DO VENCIMENTO.                                                                                                                                                                                                         15101800000000000001510180000000000000       0090339900006270312784101813000048
100000000000000000000009033990000627000000000000000000000000010002020019185710181500000000002            2  01191857101826101800000001636700000000001N111018000000000000000000000000000000000000000000000000000000000000000100019185769800AGUINALDO PESSOA DE LIMA                RUA JANUARIO ZINGARO - 252 AP.303 BL.04             05794300                                                            000050
2SR. CAIXA, APOS O VENCIMENTO COBRAR 2% DE MULTA                                 NAO RECEBER APOS 30 DIAS DO VENCIMENTO.                                                                                                                                                                                                         15101800000000000001510180000000000000       0090339900006270191857101815000051
100000000000000000000009033990000627000000000000000000000000010002020033303610181600000000002            2  01333036101826101800000001762880000000001N111018000000000000000000000000000000000000000000000000000000000000000100033303645809JESSICA DA SILVA FREITAS                RUA ARILDO VALADAO - 120 - JARDIM GUAEMB            04814600                                                            000053
2SR. CAIXA, APOS O VENCIMENTO COBRAR 2% DE MULTA                                 NAO RECEBER APOS 30 DIAS DO VENCIMENTO.                                                                                                                                                                                                         15101800000000000001510180000000000000       0090339900006270333036101816000054
100000000000000000000009033990000627000000000000000000000000010002020004824410181500000000002            2  01048244101826101800000001776830000000001N111018000000000000000000000000000000000000000000000000000000000000000100004824443806ROSIMEIRE CLARA FERREIRA REZENDE        RUA JOAQUIM DE OLIVEIRA FREITAS - 912 AP            05133000                                                            000056
2SR. CAIXA, APOS O VENCIMENTO COBRAR 2% DE MULTA                                 NAO RECEBER APOS 30 DIAS DO VENCIMENTO.                                                                                                                                                                                                         15101800000000000001510180000000000000       0090339900006270048244101815000057
100000000000000000000009033990000627000000000000000000000000010002020006422610181100000000002            2  01064226101824101800000002401600000000001N111018000000000000000000000000000000000000000000000000000000000000000100006422607881GERALDO ALVES DA SILVA                  RUA ALFREDO JOREL - 195 AP.5 CONDOMINIO             04195020                                                            000059
2SR. CAIXA, APOS O VENCIMENTO COBRAR 2% DE MULTA                                 NAO RECEBER APOS 30 DIAS DO VENCIMENTO.                                                                                                                                                                                                         15101800000000000001510180000000000000       0090339900006270064226101811000060
100000000000000000000009033990000627000000000000000000000000010002020033877110181300000000002            2  01338771101826101800000001652750000000001N111018000000000000000000000000000000000000000000000000000000000000000100033877129870HELDER FERREIRA VIANA                   RUA TUPI - 254 - VILA TUPI - PRAIA GRAND            11703260                                                            000062
2SR. CAIXA, APOS O VENCIMENTO COBRAR 2% DE MULTA                                 NAO RECEBER APOS 30 DIAS DO VENCIMENTO.                                                                                                                                                                                                         15101800000000000001510180000000000000       0090339900006270338771101813000063
100000000000000000000009033990000627000000000000000000000000010002020028290710181700000000002            2  01282907101826101800000001523210000000001N111018000000000000000000000000000000000000000000000000000000000000000100028290719809VANESSA GIANGARRELLI PEREIRA            RUA BARINEL - 72 - JARDIM COTCHING - SAO            03462130                                                            000065
2SR. CAIXA, APOS O VENCIMENTO COBRAR 2% DE MULTA                                 NAO RECEBER APOS 30 DIAS DO VENCIMENTO.                                                                                                                                                                                                         15101800000000000001510180000000000000       0090339900006270282907101817000066
100000000000000000000009033990000627000000000000000000000000010002020087573010181200000000002            2  01875730101826101800000001663340000000001N111018000000000000000000000000000000000000000000000000000000000000000100087573059604VANDERLEY DE ASSIS                      RUA ROMEU ALBANI - 268 - JARDIM PARQUE R            13803810                                                            000068
2SR. CAIXA, APOS O VENCIMENTO COBRAR 2% DE MULTA                                 NAO RECEBER APOS 30 DIAS DO VENCIMENTO.                                                                                                                                                                                                         15101800000000000001510180000000000000       0090339900006270875730101812000069
100000000000000000000009033990000627000000000000000000000000010002020010825510181P00000000002            2  01108255101826101800000001735800000000001N111018000000000000000000000000000000000000000000000000000000000000000100010825513847JOSE APARECIDO PEREIRA                  RUA GENERAL OSORIO - 305 - JARDIM TRINTA            11515130                                                            000071
2SR. CAIXA, APOS O VENCIMENTO COBRAR 2% DE MULTA                                 NAO RECEBER APOS 30 DIAS DO VENCIMENTO.                                                                                                                                                                                                         15101800000000000001510180000000000000       009033990000627010825510181P000072
100000000000000000000009033990000627000000000000000000000000010002020038818510181P00000000002            2  01388185101826101800000002712200000000001N111018000000000000000000000000000000000000000000000000000000000000000100038818572814MAURICIUS ALEXANDRE ESTEVAM NABOR       RUA RAUL SERAPIAO BARROSO - 379 - ESPLAN            11340330                                                            000074
2SR. CAIXA, APOS O VENCIMENTO COBRAR 2% DE MULTA                                 NAO RECEBER APOS 30 DIAS DO VENCIMENTO.                                                                                                                                                                                                         15101800000000000001510180000000000000       009033990000627038818510181P000075
100000000000000000000009033990000627000000000000000000000000010002020039115110181100000000002            2  01391151101826101800000002139660000000001N111018000000000000000000000000000000000000000000000000000000000000000100039115139840LAIS CRISTINA RIBEIRO ANDO              RUA PERU - 769 AP.17 - VILA GUILHERMINA             11702250                                                            000077
2SR. CAIXA, APOS O VENCIMENTO COBRAR 2% DE MULTA                                 NAO RECEBER APOS 30 DIAS DO VENCIMENTO.                                                                                                                                                                                                         15101800000000000001510180000000000000       0090339900006270391151101811000078
100000000000000000000009033990000627000000000000000000000000010002020029617510181P00000000002            2  01296175101824101800000002357250000000001N111018000000000000000000000000000000000000000000000000000000000000000100029617510553MARILENE SOUZA DE OLIVEIRA              AVENIDA BRASIL - 393 AP.09 - PARQUE DAS             09210280                                                            000080
2SR. CAIXA, APOS O VENCIMENTO COBRAR 2% DE MULTA                                 NAO RECEBER APOS 30 DIAS DO VENCIMENTO.                                                                                                                                                                                                         15101800000000000001510180000000000000       009033990000627029617510181P000081
100000000000000000000009033990000627000000000000000000000000010002020000593210181P00000000002            2  01005932101824101800000002585320000000001N111018000000000000000000000000000000000000000000000000000000000000000100000593293860WALTER HELIO BARBOSA FILHO              AVENIDA ANTONIO FREDERICO OZANAN - 9500             13214206                                                            000083
2SR. CAIXA, APOS O VENCIMENTO COBRAR 2% DE MULTA                                 NAO RECEBER APOS 30 DIAS DO VENCIMENTO.                                                                                                                                                                                                         15101800000000000001510180000000000000       009033990000627000593210181P000084
100000000000000000000009033990000627000000000000000000000000010002020007730010181500000000002            2  01077300101824101800000003676590000000001N111018000000000000000000000000000000000000000000000000000000000000000100007730084899ARNALDO LUIZ VONO                       RUA CARLOS JOSE BORSTENS - 50 AP.122 - A            11702750                                                            000086
2SR. CAIXA, APOS O VENCIMENTO COBRAR 2% DE MULTA                                 NAO RECEBER APOS 30 DIAS DO VENCIMENTO.                                                                                                                                                                                                         15101800000000000001510180000000000000       0090339900006270077300101815000087
100000000000000000000009033990000627000000000000000000000000010002020065584110181100000000002            2  01655841101824101800000001357130000000001N111018000000000000000000000000000000000000000000000000000000000000000100065584147834JOAQUIM DA COSTA MACHADO NETO           RUA CARLOS JOSE BORSTENS - 50 AP.42 - AV            11702750                                                            000089
2SR. CAIXA, APOS O VENCIMENTO COBRAR 2% DE MULTA                                 NAO RECEBER APOS 30 DIAS DO VENCIMENTO.                                                                                                                                                                                                         15101800000000000001510180000000000000       0090339900006270655841101811000090
100000000000000000000009033990000627000000000000000000000000010002020001616910181300000000002            2  01016169101824101800000002386810000000001N111018000000000000000000000000000000000000000000000000000000000000000100001616913827CLAUDIO LUIZ PAULELLA                   PRACA NESTOR DOS SANTOS ARRUDA - 26 - VI            13920000                                                            000092
2SR. CAIXA, APOS O VENCIMENTO COBRAR 2% DE MULTA                                 NAO RECEBER APOS 30 DIAS DO VENCIMENTO.                                                                                                                                                                                                         15101800000000000001510180000000000000       0090339900006270016169101813000093
100000000000000000000009033990000627000000000000000000000000010002020006684610181400000000002            2  01066846101826101800000001762640000000001N111018000000000000000000000000000000000000000000000000000000000000000100006684623884LAUDINOR VIEIRA GARCIA                  RUA CANDIDO SALES - 374 - JARDIM PRESIDE            07172000                                                            000095
2SR. CAIXA, APOS O VENCIMENTO COBRAR 2% DE MULTA                                 NAO RECEBER APOS 30 DIAS DO VENCIMENTO.                                                                                                                                                                                                         15101800000000000001510180000000000000       0090339900006270066846101814000096
100000000000000000000009033990000627000000000000000000000000010002020011663510181500000000002            2  01116635101826101800000001775340000000001N111018000000000000000000000000000000000000000000000000000000000000000100011663589844MARIA SAVIO QUARELLO                    AVENIDA MENDONCA DRUMOND - 321 - JARDIM             03524030                                                            000098
2SR. CAIXA, APOS O VENCIMENTO COBRAR 2% DE MULTA                                 NAO RECEBER APOS 30 DIAS DO VENCIMENTO.                                                                                                                                                                                                         15101800000000000001510180000000000000       0090339900006270116635101815000099
100000000000000000000009033990000627000000000000000000000000010002020010083810181700000000002            2  01100838101826101800000001715260000000001N111018000000000000000000000000000000000000000000000000000000000000000100010083824855IONE FERREIRA COUTO DA SILVA            RUA JOSE RAGEL DE MESQUITA - 60 CS.01 -             07799999                                                            000101
2SR. CAIXA, APOS O VENCIMENTO COBRAR 2% DE MULTA                                 NAO RECEBER APOS 30 DIAS DO VENCIMENTO.                                                                                                                                                                                                         15101800000000000001510180000000000000       0090339900006270100838101817000102
100000000000000000000009033990000627000000000000000000000000010002020036881710181P00000000002            2  01368817101826101800000001683240000000001N111018000000000000000000000000000000000000000000000000000000000000000100036881778864ANDRE GONZALEZ RABELLO                  RUA PARAIBA - 106 AP.61 - POMPEIA - SANT            11065470                                                            000104
2SR. CAIXA, APOS O VENCIMENTO COBRAR 2% DE MULTA                                 NAO RECEBER APOS 30 DIAS DO VENCIMENTO.                                                                                                                                                                                                         15101800000000000001510180000000000000       009033990000627036881710181P000105
100000000000000000000009033990000627000000000000000000000000010002020018207010181900000000002            2  01182070101824101800000002285890000000001N111018000000000000000000000000000000000000000000000000000000000000000100018207096802ROBERTO VALENTE TAVARES                 RUA SEBASTIAO GOMES - 218 - JARDIM SANTO            13835000                                                            000107
2SR. CAIXA, APOS O VENCIMENTO COBRAR 2% DE MULTA                                 NAO RECEBER APOS 30 DIAS DO VENCIMENTO.                                                                                                                                                                                                         15101800000000000001510180000000000000       0090339900006270182070101819000108
100000000000000000000009033990000627000000000000000000000000010002020005351010181100000000002            2  01053510101826101800000001578210000000001N111018000000000000000000000000000000000000000000000000000000000000000100005351015897VALERIA ALVES MARCOLINO HINNIGER        RUA MONGOLIA - 230 AP.71 BL.4 - PARQUE N            09280220                                                            000110
2SR. CAIXA, APOS O VENCIMENTO COBRAR 2% DE MULTA                                 NAO RECEBER APOS 30 DIAS DO VENCIMENTO.                                                                                                                                                                                                         15101800000000000001510180000000000000       0090339900006270053510101811000111
100000000000000000000009033990000627000000000000000000000000010002020031898710181700000000002            2  01318987101824101800000002473760000000001N111018000000000000000000000000000000000000000000000000000000000000000100031898775800ANITA MARTINS COLOMBO                   RUA CARLOS JOSE BORSTENS - 50 AP.115 - A            11702750                                                            000113
2SR. CAIXA, APOS O VENCIMENTO COBRAR 2% DE MULTA                                 NAO RECEBER APOS 30 DIAS DO VENCIMENTO.                                                                                                                                                                                                         15101800000000000001510180000000000000       0090339900006270318987101817000114
100000000000000000000009033990000627000000000000000000000000010002020037983410181700000000002            2  01379834101826101800000001853880000000001N111018000000000000000000000000000000000000000000000000000000000000000100037983484801JOSE ERIVALDO SOUZA DO NASCIMENTO RAMOS RUA LETICIA - 250 - JARDIM GUARUJA - SAO            05877260                                                            000116
2SR. CAIXA, APOS O VENCIMENTO COBRAR 2% DE MULTA                                 NAO RECEBER APOS 30 DIAS DO VENCIMENTO.                                                                                                                                                                                                         15101800000000000001510180000000000000       0090339900006270379834101817000117
100000000000000000000009033990000627000000000000000000000000010002020056289210181800000000002            2  01562892101826101800000001400520000000001N111018000000000000000000000000000000000000000000000000000000000000000100056289286900PEDRO RIBEIRO                           RUA CONEGO MANOEL VAZ - 48 - SANTANA - S            02019050                                                            000119
2SR. CAIXA, APOS O VENCIMENTO COBRAR 2% DE MULTA                                 NAO RECEBER APOS 30 DIAS DO VENCIMENTO.                                                                                                                                                                                                         15101800000000000001510180000000000000       0090339900006270562892101818000120
100000000000000000000009033990000627000000000000000000000000010002020005025510181100000000002            2  01050255101826101800000001993060000000001N111018000000000000000000000000000000000000000000000000000000000000000100005025595860CONCEICAO APARECIDA DE MESQUITA PEREIRA RUA TRIUNFO - 835 AP.105 - JARDIM SAO LU            14020670                                                            000122
2SR. CAIXA, APOS O VENCIMENTO COBRAR 2% DE MULTA                                 NAO RECEBER APOS 30 DIAS DO VENCIMENTO.                                                                                                                                                                                                         15101800000000000001510180000000000000       0090339900006270050255101811000123
9                                                                                                                                                                                                                                                                                                                                                                                                         000124