01REMESSA01COBRANCA       00000000000005331186HB SANTOS CONSTRUTORA E INCORP237BRADESCO       100822        MX0000054                                                                                                                                                                                                                                                                                     000001
100000000000000000000009033990000995400000000000000000000000010002020005723208221000000000002            2  01057232082223082200000002786990000000001N090822000000000000000000000000000000000000000000000000000000000000000100005723255843FRANCISCO DE ASSIS DA SILVA             PRACA NICOLAU GERAIGIRE - 25 VISOR - JAR            11095110                                                            000002
2SR. CAIXA, APOS O VENCIMENTO COBRAR 2% DE MULTA                                 NAO RECEBER APOS 30 DIAS DO VENCIMENTO.                                                                                                                                                                                                         10082200000000000001008220000000000000       0090339900009954057232082210000003
100000000000000000000009033990000995400000000000000000000000010002020004928108221500000000002            2  01049281082223082200000002725460000000001N090822000000000000000000000000000000000000000000000000000000000000000100004928157800ADEMIR APARECIDO ANTUNES                RUA URUGUAI - 89 AP.105 - JARDIM GUILHER            11702300                                                            000005
2SR. CAIXA, APOS O VENCIMENTO COBRAR 2% DE MULTA                                 NAO RECEBER APOS 30 DIAS DO VENCIMENTO.                                                                                                                                                                                                         10082200000000000001008220000000000000       0090339900009954049281082215000006
100000000000000000000009033990000995400000000000000000000000010002020011238008221200000000002            2  01112380082223082200000002690120000000001N090822000000000000000000000000000000000000000000000000000000000000000100011238052886SOLANGE DIAS DE SOUZA ROMANO            AVENIDA DR. ALTINO ARANTES - 865 AP.132             04042034                                                            000008
2SR. CAIXA, APOS O VENCIMENTO COBRAR 2% DE MULTA                                 NAO RECEBER APOS 30 DIAS DO VENCIMENTO.                                                                                                                                                                                                         10082200000000000001008220000000000000       0090339900009954112380082212000009
100000000000000000000009033990000995400000000000000000000000010002020032589108221400000000002            2  01325891082223082200000002637080000000001N090822000000000000000000000000000000000000000000000000000000000000000100032589165862RENATA ISABEL MARTINS SILVA             RUA HERCULANO DE FREITAS - 257 - FUNDACA            09520280                                                            000011
2SR. CAIXA, APOS O VENCIMENTO COBRAR 2% DE MULTA                                 NAO RECEBER APOS 30 DIAS DO VENCIMENTO.                                                                                                                                                                                                         10082200000000000001008220000000000000       0090339900009954325891082214000012
100000000000000000000009033990000995400000000000000000000000010002020088339308221800000000002            2  01883393082223082200000002665670000000001N090822000000000000000000000000000000000000000000000000000000000000000100088339319868MARCIA SIQUEIRA MELLO                   RUA ADELINO ALVES - 81 - SANTO AMARO - S            04710120                                                            000014
2SR. CAIXA, APOS O VENCIMENTO COBRAR 2% DE MULTA                                 NAO RECEBER APOS 30 DIAS DO VENCIMENTO.                                                                                                                                                                                                         10082200000000000001008220000000000000       0090339900009954883393082218000015
100000000000000000000009033990000995400000000000000000000000010002020046391208221300000000002            2  01463912082223082200000002765270000000001N090822000000000000000000000000000000000000000000000000000000000000000100046391265810PAMELLA RODRIGUES DE OLIVEIRA           RUA AUGUSTA - 183 AP.301 BL.2A - VILA AU            07025130                                                            000017
2SR. CAIXA, APOS O VENCIMENTO COBRAR 2% DE MULTA                                 NAO RECEBER APOS 30 DIAS DO VENCIMENTO.                                                                                                                                                                                                         10082200000000000001008220000000000000       0090339900009954463912082213000018
100000000000000000000009033990000995400000000000000000000000010002020027964508221100000000002            2  01279645082223082200000002747560000000001N090822000000000000000000000000000000000000000000000000000000000000000100027964512838FABIO TADEU DE CAMPOS RADZIAVICIUS      RUA URUGUAI - 89 AP.94 - JARDIM GUILHERM            11702300                                                            000020
2SR. CAIXA, APOS O VENCIMENTO COBRAR 2% DE MULTA                                 NAO RECEBER APOS 30 DIAS DO VENCIMENTO.                                                                                                                                                                                                         10082200000000000001008220000000000000       0090339900009954279645082211000021
100000000000000000000009033990000995400000000000000000000000010002020011498308221P00000000002            2  01114983082223082200000002058510000000001N090822000000000000000000000000000000000000000000000000000000000000000100011498329837GERSON GERALDO DAS NEVES                RUA DOMINGOS DELGADO - 144 - VILA SOUZA             02881070                                                            000023
2SR. CAIXA, APOS O VENCIMENTO COBRAR 2% DE MULTA                                 NAO RECEBER APOS 30 DIAS DO VENCIMENTO.                                                                                                                                                                                                         10082200000000000001008220000000000000       009033990000995411498308221P000024
100000000000000000000009033990000995400000000000000000000000010002020025214408221600000000002            2  01252144082223082200000002436630000000001N090822000000000000000000000000000000000000000000000000000000000000000100025214401833JOSE MAURICIO DOS SANTOS RODRIGUES      RUA JOAO DE MACEDO RIBEIRO - 49 - VILA N            08111101                                                            000026
2SR. CAIXA, APOS O VENCIMENTO COBRAR 2% DE MULTA                                 NAO RECEBER APOS 30 DIAS DO VENCIMENTO.                                                                                                                                                                                                         10082200000000000001008220000000000000       0090339900009954252144082216000027
100000000000000000000009033990000995400000000000000000000000010002020033119108221300000000002            2  01331191082223082200000002446960000000001N090822000000000000000000000000000000000000000000000000000000000000000100033119178802HUGO GOMES VENDRAME                     RUA SAO PAULO - 60 CASA 01 - VILA FREITA            06380110                                                            000029
2SR. CAIXA, APOS O VENCIMENTO COBRAR 2% DE MULTA                                 NAO RECEBER APOS 30 DIAS DO VENCIMENTO.                                                                                                                                                                                                         10082200000000000001008220000000000000       0090339900009954331191082213000030
100000000000000000000009033990000995400000000000000000000000010002020016631508221600000000002            2  01166315082223082200000002489650000000001N090822000000000000000000000000000000000000000000000000000000000000000100016631587468GILBERTO BEZERRA DA SILVA               AVENIDA JAIME TORRES - 745 CASA 3 - JARD            03670000                                                            000032
2SR. CAIXA, APOS O VENCIMENTO COBRAR 2% DE MULTA                                 NAO RECEBER APOS 30 DIAS DO VENCIMENTO.                                                                                                                                                                                                         10082200000000000001008220000000000000       0090339900009954166315082216000033
100000000000000000000009033990000995400000000000000000000000010002020007313208221900000000002            2  01073132082223082200000002471980000000001N090822000000000000000000000000000000000000000000000000000000000000000100007313251840SALVADOR GESUALDO PULVIRENTI            AVENIDA MARARI - 641 - VILA MARARI - SAO            04402010                                                            000035
2SR. CAIXA, APOS O VENCIMENTO COBRAR 2% DE MULTA                                 NAO RECEBER APOS 30 DIAS DO VENCIMENTO.                                                                                                                                                                                                         10082200000000000001008220000000000000       0090339900009954073132082219000036
100000000000000000000009033990000995400000000000000000000000010002020010676708221000000000002            2  01106767082223082200000002580160000000001N090822000000000000000000000000000000000000000000000000000000000000000100010676723896MERCEDES CRISTINA ROCHA SANDOVAL        RUA URUGUAI - 89 AP.83 - JARDIM GUILHERM            11702300                                                            000038
2SR. CAIXA, APOS O VENCIMENTO COBRAR 2% DE MULTA                                 NAO RECEBER APOS 30 DIAS DO VENCIMENTO.                                                                                                                                                                                                         10082200000000000001008220000000000000       0090339900009954106767082210000039
100000000000000000000009033990000995400000000000000000000000010002020009502808221900000000002            2  01095028082223082200000002694540000000001N090822000000000000000000000000000000000000000000000000000000000000000100009502844831CLAUDIA ROCHA SANDOVAL                  RUA URUGUAI - 89 AP.64 - JARDIM GUILHERM            11702300                                                            000041
2SR. CAIXA, APOS O VENCIMENTO COBRAR 2% DE MULTA                                 NAO RECEBER APOS 30 DIAS DO VENCIMENTO.                                                                                                                                                                                                         10082200000000000001008220000000000000       0090339900009954095028082219000042
100000000000000000000009033990000995400000000000000000000000010002020007594208221800000000002            2  01075942082223082200000002418960000000001N090822000000000000000000000000000000000000000000000000000000000000000100007594247809JOSE LUIS DE OLIVEIRA                   DONA EGLANTINA PENTEADO DA SILVA PRADO -            13044162                                                            000044
2SR. CAIXA, APOS O VENCIMENTO COBRAR 2% DE MULTA                                 NAO RECEBER APOS 30 DIAS DO VENCIMENTO.                                                                                                                                                                                                         10082200000000000001008220000000000000       0090339900009954075942082218000045
100000000000000000000009033990000995400000000000000000000000010002020005288708221100000000002            2  01052887082223082200000002491780000000001N090822000000000000000000000000000000000000000000000000000000000000000100005288796858MARCELO RODRIGUES FERREIRA              RUA MARCOS ANTONIO MARQUES - 302 - JARDI            06433020                                                            000047
2SR. CAIXA, APOS O VENCIMENTO COBRAR 2% DE MULTA                                 NAO RECEBER APOS 30 DIAS DO VENCIMENTO.                                                                                                                                                                                                         10082200000000000001008220000000000000       0090339900009954052887082211000048
100000000000000000000009033990000995400000000000000000000000010002020015835908221000000000002            2  01158359082223082200000002594830000000001N090822000000000000000000000000000000000000000000000000000000000000000100015835992823FLAVIO VERONEZ                          RUA ANDREA PAULINETTI - 127 AP.42 - BAIR            04707050                                                            000050
2SR. CAIXA, APOS O VENCIMENTO COBRAR 2% DE MULTA                                 NAO RECEBER APOS 30 DIAS DO VENCIMENTO.                                                                                                                                                                                                         10082200000000000001008220000000000000       0090339900009954158359082210000051
100000000000000000000009033990000995400000000000000000000000010002020000438108221900000000002            2  01004381082223082200000002928850000000001N090822000000000000000000000000000000000000000000000000000000000000000100000438161858WAGNECY VILLA NOVA LIEN                 MACHADO - 106 - VILA AUGUSTA - GUARULHOS            07025210                                                            000053
2SR. CAIXA, APOS O VENCIMENTO COBRAR 2% DE MULTA                                 NAO RECEBER APOS 30 DIAS DO VENCIMENTO.                                                                                                                                                                                                         10082200000000000001008220000000000000       0090339900009954004381082219000054
100000000000000000000009033990000995400000000000000000000000010002020026004508221500000000002            2  01260045082223082200000002594870000000001N090822000000000000000000000000000000000000000000000000000000000000000100026004595888EDIVALDO BEZERRA DA SILVA               AVENIDA GUATEMALA - 550 - JARDIM PINHEIR            09854750                                                            000056
2SR. CAIXA, APOS O VENCIMENTO COBRAR 2% DE MULTA                                 NAO RECEBER APOS 30 DIAS DO VENCIMENTO.                                                                                                                                                                                                         10082200000000000001008220000000000000       0090339900009954260045082215000057
100000000000000000000009033990000995400000000000000000000000010002020012470708221P00000000002            2  01124707082223082200000002768530000000001N090822000000000000000000000000000000000000000000000000000000000000000100012470771870HILTON FERNANDES OLIVARES               RUA PATIO DA ESTACAO - 115 - BAIRRO CENT            09450000                                                            000059
2SR. CAIXA, APOS O VENCIMENTO COBRAR 2% DE MULTA                                 NAO RECEBER APOS 30 DIAS DO VENCIMENTO.                                                                                                                                                                                                         10082200000000000001008220000000000000       009033990000995412470708221P000060
100000000000000000000009033990000995400000000000000000000000010002020014025408221900000000002            2  01140254082223082200000003035640000000001N090822000000000000000000000000000000000000000000000000000000000000000100014025420899ANDREIA APARECIDA TAVARES BASTOS        RUA IBATIBA - 234 CASA 27 - RES.BOUGANVI            09220608                                                            000062
2SR. CAIXA, APOS O VENCIMENTO COBRAR 2% DE MULTA                                 NAO RECEBER APOS 30 DIAS DO VENCIMENTO.                                                                                                                                                                                                         10082200000000000001008220000000000000       0090339900009954140254082219000063
100000000000000000000009033990000995400000000000000000000000010002020018590008221800000000002            2  01185900082223082200000002749210000000001N090822000000000000000000000000000000000000000000000000000000000000000100018590038858JOSE SANDRO ROCHA SILVA                 RUA SANTO ANTONIO DO AVENTUREIRO - 216 A            07143040                                                            000065
2SR. CAIXA, APOS O VENCIMENTO COBRAR 2% DE MULTA                                 NAO RECEBER APOS 30 DIAS DO VENCIMENTO.                                                                                                                                                                                                         10082200000000000001008220000000000000       0090339900009954185900082218000066
100000000000000000000009033990000995400000000000000000000000010002020088578708221600000000002            2  01885787082223082200000002262200000000001N090822000000000000000000000000000000000000000000000000000000000000000100088578704800GILBERTO DO ESPIRITO SANTO SILVA        RUA URUGUAI - 89 AP.23 - JARDIM GUILHERM            11702300                                                            000068
2SR. CAIXA, APOS O VENCIMENTO COBRAR 2% DE MULTA                                 NAO RECEBER APOS 30 DIAS DO VENCIMENTO.                                                                                                                                                                                                         10082200000000000001008220000000000000       0090339900009954885787082216000069
100000000000000000000009033990000995400000000000000000000000010002020015378208221700000000002            2  01153782082223082200000003380390000000001N090822000000000000000000000000000000000000000000000000000000000000000100015378295807SERGIO FERNANDES                        RUA VALDEMAR MARTINS - 116 AP.115 - BAIR            02535000                                                            000071
2SR. CAIXA, APOS O VENCIMENTO COBRAR 2% DE MULTA                                 NAO RECEBER APOS 30 DIAS DO VENCIMENTO.                                                                                                                                                                                                         10082200000000000001008220000000000000       0090339900009954153782082217000072
100000000000000000000009033990000995400000000000000000000000010002020005105208221400000000002            2  01051052082223082200000002697950000000001N090822000000000000000000000000000000000000000000000000000000000000000100005105287835FABIO MOTTOLA DE OLIVEIRA               RUA RAUL MAZZONI - 133 - CHACARA AREAL -            13331022                                                            000074
2SR. CAIXA, APOS O VENCIMENTO COBRAR 2% DE MULTA                                 NAO RECEBER APOS 30 DIAS DO VENCIMENTO.                                                                                                                                                                                                         10082200000000000001008220000000000000       0090339900009954051052082214000075
100000000000000000000009033990000995400000000000000000000000010002020020792708221300000000002            2  01207927082223082200000002804880000000001N090822000000000000000000000000000000000000000000000000000000000000000120792791000147TROVAO COMERCIO DE ALIMENTOS LTDA-ME    RUA QUINTA DA MAGNOLIA - 67 - JARDIM IPA            03582100                                                            000077
2SR. CAIXA, APOS O VENCIMENTO COBRAR 2% DE MULTA                                 NAO RECEBER APOS 30 DIAS DO VENCIMENTO.                                                                                                                                                                                                         10082200000000000001008220000000000000       0090339900009954207927082213000078
100000000000000000000009033990000995400000000000000000000000010002020007648108221700000000002            2  01076481082223082200000002633810000000001N090822000000000000000000000000000000000000000000000000000000000000000100007648112825MARA REGINA CAPRIO                      RUA DA TRINDADE - 790 - VILA IDEAL - SAO            15060280                                                            000080
2SR. CAIXA, APOS O VENCIMENTO COBRAR 2% DE MULTA                                 NAO RECEBER APOS 30 DIAS DO VENCIMENTO.                                                                                                                                                                                                         10082200000000000001008220000000000000       0090339900009954076481082217000081
100000000000000000000009033990000995400000000000000000000000010002020031157408221600000000002            2  01311574082223082200000002828050000000001N090822000000000000000000000000000000000000000000000000000000000000000100031157420885TALITA ANICHIARICO COSSI                RUA CNEO POMPEO DE CAMARGO - 817 - JARDI            13060150                                                            000083
2SR. CAIXA, APOS O VENCIMENTO COBRAR 2% DE MULTA                                 NAO RECEBER APOS 30 DIAS DO VENCIMENTO.                                                                                                                                                                                                         10082200000000000001008220000000000000       0090339900009954311574082216000084
100000000000000000000009033990000995400000000000000000000000010002020035572508221000000000002            2  01355725082223082200000003006870000000001N090822000000000000000000000000000000000000000000000000000000000000000100035572536865MARIA SIMONE SANTOS                     RUA JOSE PEZZOLO - 68 - VILA ELDIZIA - S            09181660                                                            000086
2SR. CAIXA, APOS O VENCIMENTO COBRAR 2% DE MULTA                                 NAO RECEBER APOS 30 DIAS DO VENCIMENTO.                                                                                                                                                                                                         10082200000000000001008220000000000000       0090339900009954355725082210000087
100000000000000000000009033990000995400000000000000000000000010002020008800308221800000000002            2  01088003082223082200000002739660000000001N090822000000000000000000000000000000000000000000000000000000000000000100008800368425INGO DIMITRI PEREIRA DA NOBREGA         RUA PROFESSOR MENDES PIMENTEL - 362 - JA            03973010                                                            000089
2SR. CAIXA, APOS O VENCIMENTO COBRAR 2% DE MULTA                                 NAO RECEBER APOS 30 DIAS DO VENCIMENTO.                                                                                                                                                                                                         10082200000000000001008220000000000000       0090339900009954088003082218000090
100000000000000000000009033990000995400000000000000000000000010002020018312408221800000000002            2  01183124082223082200000009500430000000001N090822000000000000000000000000000000000000000000000000000000000000000100018312408827PAULO LUIZ FERREIRA                     AVENIDA MARCONDES SALGADO - 20 AP.26 B -            11702530                                                            000092
2SR. CAIXA, APOS O VENCIMENTO COBRAR 2% DE MULTA                                 NAO RECEBER APOS 30 DIAS DO VENCIMENTO.                                                                                                                                                                                                         10082200000000000001008220000000000000       0090339900009954183124082218000093
100000000000000000000009033990000995400000000000000000000000010002020005054108221200000000002            2  01050541082223082200000002651290000000001N090822000000000000000000000000000000000000000000000000000000000000000100005054169806PAULO ROBERTO DE MATTOS                 JARDIM BOTANICO - 849 - DISTRITO DE SOUS            13106258                                                            000095
2SR. CAIXA, APOS O VENCIMENTO COBRAR 2% DE MULTA                                 NAO RECEBER APOS 30 DIAS DO VENCIMENTO.                                                                                                                                                                                                         10082200000000000001008220000000000000       0090339900009954050541082212000096
100000000000000000000009033990000995400000000000000000000000010002020007552108221900000000002            2  01075521082223082200000002651290000000001N090822000000000000000000000000000000000000000000000000000000000000000100007552151846MAURO BORDONI                           AVENIDA DR. AUGUSTO DE TOLEDO - 769 AP.6            09540080                                                            000098
2SR. CAIXA, APOS O VENCIMENTO COBRAR 2% DE MULTA                                 NAO RECEBER APOS 30 DIAS DO VENCIMENTO.                                                                                                                                                                                                         10082200000000000001008220000000000000       0090339900009954075521082219000099
100000000000000000000009033990000995400000000000000000000000010002020012744208221100000000002            2  01127442082223082200000002949950000000001N090822000000000000000000000000000000000000000000000000000000000000000100012744201804ADAIL JOSE DE SOUSA                     RUA ROSARIA - 303 - BAIRRO SACADURA CABR            09061080                                                            000101
2SR. CAIXA, APOS O VENCIMENTO COBRAR 2% DE MULTA                                 NAO RECEBER APOS 30 DIAS DO VENCIMENTO.                                                                                                                                                                                                         10082200000000000001008220000000000000       0090339900009954127442082211000102
100000000000000000000009033990000995400000000000000000000000010002020000884208221100000000002            2  01008842082223082200000002194700000000001N090822000000000000000000000000000000000000000000000000000000000000000100000884239802ADEMIR MARTINS                          RUA CAIRO - 221 - VILA METALURGICA - SAN            09220170                                                            000104
2SR. CAIXA, APOS O VENCIMENTO COBRAR 2% DE MULTA                                 NAO RECEBER APOS 30 DIAS DO VENCIMENTO.                                                                                                                                                                                                         10082200000000000001008220000000000000       0090339900009954008842082211000105
100000000000000000000009033990000995400000000000000000000000010002020068320608221900000000002            2  01683206082223082200000010447210000000001N090822000000000000000000000000000000000000000000000000000000000000000100068320663849ANTONIO CAVALCANTE LIMA                 RUA AMAZONAS - 1188 - CENTRO - SAO CAETA            09540201                                                            000107
2SR. CAIXA, APOS O VENCIMENTO COBRAR 2% DE MULTA                                 NAO RECEBER APOS 30 DIAS DO VENCIMENTO.                                                                                                                                                                                                         10082200000000000001008220000000000000       0090339900009954683206082219000108
9                                                                                                                                                                                                                                                                                                                                                                                                         000109