01REMESSA01COBRANCA       00000000000005331186HB SANTOS CONSTRUTORA E INCORP237BRADESCO       010724        MX0000100                                                                                                                                                                                                                                                                                     000001
100000000000000000000009033990000995400000000000000000000000010002020026858607241800000000002            2  01268586072408072400000003466500000000001N010724000000000000000000000000000000000000000000000000000000000000000100026858625879GLAUCE FERREIRA DE OLIVEIRA FALSI       RUA LOURENCO ANTONIO BRAGANCA - 116 - JA            04403160                                                            000002
2SR. CAIXA, APOS O VENCIMENTO COBRAR 2% DE MULTA                                 NAO RECEBER APOS 30 DIAS DO VENCIMENTO.                                                                                                                                                                                                         01072400000000000000107240000000000000       0090339900009954268586072418000003
100000000000000000000009033990000995400000000000000000000000010002020029425007241000000000002            2  01294250072408072400000003296640000000001N010724000000000000000000000000000000000000000000000000000000000000000100029425027897FABIA DOS SANTOS DE ANDRADE             AVENIDA ALCIDES CANDIDO DOS SANTOS - 248            11705480                                                            000005
2SR. CAIXA, APOS O VENCIMENTO COBRAR 2% DE MULTA                                 NAO RECEBER APOS 30 DIAS DO VENCIMENTO.                                                                                                                                                                                                         01072400000000000000107240000000000000       0090339900009954294250072410000006
100000000000000000000009033990000995400000000000000000000000010002020078382707241600000000002            2  01783827072408072400000003331460000000001N010724000000000000000000000000000000000000000000000000000000000000000100078382700497JARMELINA BARBOSA DA SILVA              RUA OSCAR CINTRA GORDINHO - 211 AP.51 -             01512010                                                            000008
2SR. CAIXA, APOS O VENCIMENTO COBRAR 2% DE MULTA                                 NAO RECEBER APOS 30 DIAS DO VENCIMENTO.                                                                                                                                                                                                         01072400000000000000107240000000000000       0090339900009954783827072416000009
100000000000000000000009033990000995400000000000000000000000010002020007535307241500000000002            2  01075353072408072400000003266870000000001N010724000000000000000000000000000000000000000000000000000000000000000100007535375839AINAILDE PEREIRA DE CASTRO OLIVETTO     TRAVESSA DORALINA ELIETE ADAO DA SILVA -            08021026                                                            000011
2SR. CAIXA, APOS O VENCIMENTO COBRAR 2% DE MULTA                                 NAO RECEBER APOS 30 DIAS DO VENCIMENTO.                                                                                                                                                                                                         01072400000000000000107240000000000000       0090339900009954075353072415000012
100000000000000000000009033990000995400000000000000000000000010002020017229707241000000000002            2  01172297072408072400000003460560000000001N010724000000000000000000000000000000000000000000000000000000000000000100017229751802BERENICE VIEIRA KERSTING                RUA ATIBAIA - 17 AP.417 - BAIRRO IMPERAD            11707380                                                            000014
2SR. CAIXA, APOS O VENCIMENTO COBRAR 2% DE MULTA                                 NAO RECEBER APOS 30 DIAS DO VENCIMENTO.                                                                                                                                                                                                         01072400000000000000107240000000000000       0090339900009954172297072410000015
100000000000000000000009033990000995400000000000000000000000010002020028974207241200000000002            2  01289742072408072400000003232060000000001N010724000000000000000000000000000000000000000000000000000000000000000100028974233827MARISTELA FAVANI DE OLIVEIRA            RUA GIUSEPPE CARNEVALLI - 96 - BAIRRO BO            09572100                                                            000017
2SR. CAIXA, APOS O VENCIMENTO COBRAR 2% DE MULTA                                 NAO RECEBER APOS 30 DIAS DO VENCIMENTO.                                                                                                                                                                                                         01072400000000000000107240000000000000       0090339900009954289742072412000018
100000000000000000000009033990000995400000000000000000000000010002020092184807241P00000000002            2  01921848072408072400000003189070000000001N010724000000000000000000000000000000000000000000000000000000000000000100092184804800CARMEM DO SOCORRO GUILHERME             ESTRADA SAO FRANCISCO - 1.850 AP.182A -             06765000                                                            000020
2SR. CAIXA, APOS O VENCIMENTO COBRAR 2% DE MULTA                                 NAO RECEBER APOS 30 DIAS DO VENCIMENTO.                                                                                                                                                                                                         01072400000000000000107240000000000000       009033990000995492184807241P000021
100000000000000000000009033990000995400000000000000000000000010002020009169707241P00000000002            2  01091697072408072400000002557670000000001N010724000000000000000000000000000000000000000000000000000000000000000100009169701830TADEU CONSTANTINO LOPES                 RUA JOSE ANTONIO COELHO - 349 CASA 01 -             04011061                                                            000023
2SR. CAIXA, APOS O VENCIMENTO COBRAR 2% DE MULTA                                 NAO RECEBER APOS 30 DIAS DO VENCIMENTO.                                                                                                                                                                                                         01072400000000000000107240000000000000       009033990000995409169707241P000024
100000000000000000000009033990000995400000000000000000000000010002020042480107241800000000002            2  01424801072408072400000003253590000000001N010724000000000000000000000000000000000000000000000000000000000000000100042480155870JAMITRE SOIOMARA ALVES DO NASCIMENTO DAVRUA URUGUAI - 89 AP.75 - JARDIM GUILHERM            11702300                                                            000026
2SR. CAIXA, APOS O VENCIMENTO COBRAR 2% DE MULTA                                 NAO RECEBER APOS 30 DIAS DO VENCIMENTO.                                                                                                                                                                                                         01072400000000000000107240000000000000       0090339900009954424801072418000027
100000000000000000000009033990000995400000000000000000000000010002020001356907241400000000002            2  01013569072408072400000003302040000000001N010724000000000000000000000000000000000000000000000000000000000000000100001356993800DALVA MARIA DOS SANTOS                  RUA URUGUAI - 89 AP.74 - AVIACAO - PRAIA            11702300                                                            000029
2SR. CAIXA, APOS O VENCIMENTO COBRAR 2% DE MULTA                                 NAO RECEBER APOS 30 DIAS DO VENCIMENTO.                                                                                                                                                                                                         01072400000000000000107240000000000000       0090339900009954013569072414000030
100000000000000000000009033990000995400000000000000000000000010002020024615507241700000000002            2  01246155072408072400000003765840000000001N010724000000000000000000000000000000000000000000000000000000000000000100024615557884GILBERTO JOSE GONSALES                  RUA URUGUAI - 89 AP.115 - JARDIM GUILHER            11702300                                                            000032
2SR. CAIXA, APOS O VENCIMENTO COBRAR 2% DE MULTA                                 NAO RECEBER APOS 30 DIAS DO VENCIMENTO.                                                                                                                                                                                                         01072400000000000000107240000000000000       0090339900009954246155072417000033
100000000000000000000009033990000995400000000000000000000000010002020008539307241300000000002            2  01085393072408072400000003600410000000001N010724000000000000000000000000000000000000000000000000000000000000000100008539365871EDMILSON RAIMUNDO DOS SANTOS            RUA CALIDICE - 247 - PARQUE CRUZEIRO - S            08070010                                                            000035
2SR. CAIXA, APOS O VENCIMENTO COBRAR 2% DE MULTA                                 NAO RECEBER APOS 30 DIAS DO VENCIMENTO.                                                                                                                                                                                                         01072400000000000000107240000000000000       0090339900009954085393072413000036
100000000000000000000009033990000995400000000000000000000000010002020004611207241400000000002            2  01046112072408072400000002283560000000001N010724000000000000000000000000000000000000000000000000000000000000000100004611218830TANIA MARIA DA SILVA NUNES PEREIRA LUIZ RUA URUGUAI - 89 AP.103 - JARDIM GUILHER            11702300                                                            000038
2SR. CAIXA, APOS O VENCIMENTO COBRAR 2% DE MULTA                                 NAO RECEBER APOS 30 DIAS DO VENCIMENTO.                                                                                                                                                                                                         01072400000000000000107240000000000000       0090339900009954046112072414000039
100000000000000000000009033990000995400000000000000000000000010002020010548807241100000000002            2  01105488072408072400000004057510000000001N010724000000000000000000000000000000000000000000000000000000000000000100010548844801RICARDO DE JESUS CALDAS                 RUA ANTONIO AMBUBA - 50 CASA 60 - BAIRRO            05782370                                                            000041
2SR. CAIXA, APOS O VENCIMENTO COBRAR 2% DE MULTA                                 NAO RECEBER APOS 30 DIAS DO VENCIMENTO.                                                                                                                                                                                                         01072400000000000000107240000000000000       0090339900009954105488072411000042
100000000000000000000009033990000995400000000000000000000000010002020032038707241900000000002            2  01320387072408072400000002663540000000001N010724000000000000000000000000000000000000000000000000000000000000000100032038775893GUSTAVO PEREIRA DA CRUZ                 RUA SAO FIDELIS - 203 - JARDIM BRASIL -             16074050                                                            000044
2SR. CAIXA, APOS O VENCIMENTO COBRAR 2% DE MULTA                                 NAO RECEBER APOS 30 DIAS DO VENCIMENTO.                                                                                                                                                                                                         01072400000000000000107240000000000000       0090339900009954320387072419000045
100000000000000000000009033990000995400000000000000000000000010002020025914207241200000000002            2  01259142072408072400000003621620000000001N010724000000000000000000000000000000000000000000000000000000000000000100025914206880JONAS DOS REIS MACHADO                  RUA PROFESSORA MARGARIDA RUTH FERREIRA D            02378200                                                            000047
2SR. CAIXA, APOS O VENCIMENTO COBRAR 2% DE MULTA                                 NAO RECEBER APOS 30 DIAS DO VENCIMENTO.                                                                                                                                                                                                         01072400000000000000107240000000000000       0090339900009954259142072412000048
100000000000000000000009033990000995400000000000000000000000010002020032549507241900000000002            2  01325495072408072400000003309940000000001N010724000000000000000000000000000000000000000000000000000000000000000100032549502833PAMELA DECENCI                          RUA URUGUAI - 89 AP.61 - AVIACAO - PRAIA            11702300                                                            000050
2SR. CAIXA, APOS O VENCIMENTO COBRAR 2% DE MULTA                                 NAO RECEBER APOS 30 DIAS DO VENCIMENTO.                                                                                                                                                                                                         01072400000000000000107240000000000000       0090339900009954325495072419000051
100000000000000000000009033990000995400000000000000000000000010002020027969407241800000000002            2  01279694072408072400000002661860000000001N010724000000000000000000000000000000000000000000000000000000000000000100027969412807THIAGO BARRETO PEREZ                    RUA ARMINDO GUARANA - 170 - VILA REGENTE            03335070                                                            000053
2SR. CAIXA, APOS O VENCIMENTO COBRAR 2% DE MULTA                                 NAO RECEBER APOS 30 DIAS DO VENCIMENTO.                                                                                                                                                                                                         01072400000000000000107240000000000000       0090339900009954279694072418000054
100000000000000000000009033990000995400000000000000000000000010002020013466507241900000000002            2  01134665072408072400000003566050000000001N010724000000000000000000000000000000000000000000000000000000000000000100013466586844MAURICIO DANTAS DA SILVA                RUA CASTOR - 57 - CIDADE SATELITE SANTA             08340120                                                            000056
2SR. CAIXA, APOS O VENCIMENTO COBRAR 2% DE MULTA                                 NAO RECEBER APOS 30 DIAS DO VENCIMENTO.                                                                                                                                                                                                         01072400000000000000107240000000000000       0090339900009954134665072419000057
100000000000000000000009033990000995400000000000000000000000010002020036263807241800000000002            2  01362638072408072400000003523900000000001N010724000000000000000000000000000000000000000000000000000000000000000100036263883871DIEGO ELIAS DA SILVA                    AVENIDA DEZENOVE DE JANEIRO - 160 - VILA            03449000                                                            000059
2SR. CAIXA, APOS O VENCIMENTO COBRAR 2% DE MULTA                                 NAO RECEBER APOS 30 DIAS DO VENCIMENTO.                                                                                                                                                                                                         01072400000000000000107240000000000000       0090339900009954362638072418000060
9                                                                                                                                                                                                                                                                                                                                                                                                         000061