01REMESSA01COBRANCA       00000000000005316116AIRES CONSTRUTORA E INCORPORAD237BRADESCO       010224        MX0000235                                                                                                                                                                                                                                                                                     000001
100000000000000000000009002800441612000000000000000000000000010002020025215102241500000000002            2  01252151022410022400000003484350000000001N010224000000000000000000000000000000000000000000000000000000000000000100025215106886KLEBER LUIZ DOS SANTOS                  RUA MONTE CASTELO - 262 AP.15 - AVIACAO             11702720                                                            000002
2SR. CAIXA, APOS O VENCIMENTO COBRAR 2% DE MULTA                                 NAO RECEBER APOS 30 DIAS DO VENCIMENTO.                                                                                                                                                                                                         01022400000000000000102240000000000000       0090028004416120252151022415000003
100000000000000000000009002800441612000000000000000000000000010002020031803802241800000000002            2  01318038022410022400000004120310000000001N010224000000000000000000000000000000000000000000000000000000000000000100031803864877ELEILSON FELIPPE SANTOS                 RUA SANTA GREGORIA - 193 - CIDADE DUTRA             04806030                                                            000005
2SR. CAIXA, APOS O VENCIMENTO COBRAR 2% DE MULTA                                 NAO RECEBER APOS 30 DIAS DO VENCIMENTO.                                                                                                                                                                                                         01022400000000000000102240000000000000       0090028004416120318038022418000006
100000000000000000000009002800441612000000000000000000000000010002020002494102241200000000002            2  01024941022410022400000004298150000000001N010224000000000000000000000000000000000000000000000000000000000000000100002494107881CIRO FRANCISCO MARCHI DURIGON           RUA MONTE CASTELO - 262 AP.115 - AVIACAO            11702720                                                            000008
2SR. CAIXA, APOS O VENCIMENTO COBRAR 2% DE MULTA                                 NAO RECEBER APOS 30 DIAS DO VENCIMENTO.                                                                                                                                                                                                         01022400000000000000102240000000000000       0090028004416120024941022412000009
100000000000000000000009002800441612000000000000000000000000010002020016299002241300000000002            2  01162990022410022400000004073150000000001N010224000000000000000000000000000000000000000000000000000000000000000100016299008857FERNANDO CESAR CARVALHO                 AVENIDA MARCONDES DE BRITO - 1340 AP.74             03509000                                                            000011
2SR. CAIXA, APOS O VENCIMENTO COBRAR 2% DE MULTA                                 NAO RECEBER APOS 30 DIAS DO VENCIMENTO.                                                                                                                                                                                                         01022400000000000000102240000000000000       0090028004416120162990022413000012
9                                                                                                                                                                                                                                                                                                                                                                                                         000013