01REMESSA01COBRANCA       00000000000005316116AIRES CONSTRUTORA E INCORPORAD237BRADESCO       011221        MX0000183                                                                                                                                                                                                                                                                                     000001
100000000000000000000009002800441612000000000000000000000000010002100003865712211400000000002            2  01038657122110122100000003701550000000001N011221000000000000000000000000000000000000000000000000000000000000000100003865776841FRANCISCO JOSE ROCCO                    AVENIDA PADRES OLIVETANOS - 215 AP.83 -             03648000                                                            000002
2SR. CAIXA, APOS O VENCIMENTO COBRAR 10% DE MULTA                                NAO RECEBER APOS 30 DIAS DO VENCIMENTO.                                                                                                                                                                                                         01122100000000000000112210000000000000       0090028004416120038657122114000003
100000000000000000000009002800441612000000000000000000000000010002100028309512211000000000002            2  01283095122110122100000003300930000000001N011221000000000000000000000000000000000000000000000000000000000000000100028309524803DEISE RIBEIRO BARBOSA                   RUA CANDIDO JOSE DE ANDRADE - 173 - ERME            03807030                                                            000005
2SR. CAIXA, APOS O VENCIMENTO COBRAR 10% DE MULTA                                NAO RECEBER APOS 30 DIAS DO VENCIMENTO.                                                                                                                                                                                                         01122100000000000000112210000000000000       0090028004416120283095122110000006
100000000000000000000009002800441612000000000000000000000000010002100011277912211000000000002            2  01112779122110122100000003917850000000001N011221000000000000000000000000000000000000000000000000000000000000000100011277908893JOSE AILTON LOPES DE AZEVEDO            RUA MAESTRO JOAO SEPE - 19 - JARDIM MARI            04181030                                                            000008
2SR. CAIXA, APOS O VENCIMENTO COBRAR 10% DE MULTA                                NAO RECEBER APOS 30 DIAS DO VENCIMENTO.                                                                                                                                                                                                         01122100000000000000112210000000000000       0090028004416120112779122110000009
100000000000000000000009002800441612000000000000000000000000010002100025215112211800000000002            2  01252151122110122100000002954530000000001N011221000000000000000000000000000000000000000000000000000000000000000100025215106886KLEBER LUIZ DOS SANTOS                  RUA MONTE CASTELO - 262 AP.15 - AVIACAO             11702720                                                            000011
2SR. CAIXA, APOS O VENCIMENTO COBRAR 10% DE MULTA                                NAO RECEBER APOS 30 DIAS DO VENCIMENTO.                                                                                                                                                                                                         01122100000000000000112210000000000000       0090028004416120252151122118000012
100000000000000000000009002800441612000000000000000000000000010002100090206712211500000000002            2  01902067122110122100000003300100000000001N011221000000000000000000000000000000000000000000000000000000000000000100090206789815NEREIDE RODRIGUES FERREIRA              AVENIDA PADRE ESTANISLAU DE CAMPOS - 205            03590060                                                            000014
2SR. CAIXA, APOS O VENCIMENTO COBRAR 10% DE MULTA                                NAO RECEBER APOS 30 DIAS DO VENCIMENTO.                                                                                                                                                                                                         01122100000000000000112210000000000000       0090028004416120902067122115000015
100000000000000000000009002800441612000000000000000000000000010002100029150712211300000000002            2  01291507122110122100000003862810000000001N011221000000000000000000000000000000000000000000000000000000000000000100029150742833ANA DEISE SANTOS DE ALMEIDA             RUA MONTE CASTELO - 296 AP.121 - AVIACAO            11702720                                                            000017
2SR. CAIXA, APOS O VENCIMENTO COBRAR 10% DE MULTA                                NAO RECEBER APOS 30 DIAS DO VENCIMENTO.                                                                                                                                                                                                         01122100000000000000112210000000000000       0090028004416120291507122113000018
100000000000000000000009002800441612000000000000000000000000010002100000811712211900000000002            2  01008117122110122100000003181730000000001N011221000000000000000000000000000000000000000000000000000000000000000100000811752801SERGIO BUENO DA SILVA                   RUA MONTE CASTELO - 262 AP.75 - AVIACAO             11702720                                                            000020
2SR. CAIXA, APOS O VENCIMENTO COBRAR 10% DE MULTA                                NAO RECEBER APOS 30 DIAS DO VENCIMENTO.                                                                                                                                                                                                         01122100000000000000112210000000000000       0090028004416120008117122119000021
100000000000000000000009002800441612000000000000000000000000010002100018344812211500000000002            2  01183448122110122100000004326370000000001N011221000000000000000000000000000000000000000000000000000000000000000100018344803888MARCELO BERNARDO                        RUA MONTE CASTELO - 262 AP.84 - AVIACAO             11702720                                                            000023
2SR. CAIXA, APOS O VENCIMENTO COBRAR 10% DE MULTA                                NAO RECEBER APOS 30 DIAS DO VENCIMENTO.                                                                                                                                                                                                         01122100000000000000112210000000000000       0090028004416120183448122115000024
100000000000000000000009002800441612000000000000000000000000010002100031803812211000000000002            2  01318038122110122100000003493760000000001N011221000000000000000000000000000000000000000000000000000000000000000100031803864877ELEILSON FELIPPE SANTOS                 RUA SANTA GREGORIA - 193 - CIDADE DUTRA             04806030                                                            000026
2SR. CAIXA, APOS O VENCIMENTO COBRAR 10% DE MULTA                                NAO RECEBER APOS 30 DIAS DO VENCIMENTO.                                                                                                                                                                                                         01122100000000000000112210000000000000       0090028004416120318038122110000027
100000000000000000000009002800441612000000000000000000000000010002100063064512211500000000002            2  01630645122110122100000004163430000000001N011221000000000000000000000000000000000000000000000000000000000000000100063064537849ANTONIO APARECIDO DA SILVA DESTEFANO    RUA PROFESSOR TEODORO BRAGA - 46 - VILA             02966020                                                            000029
2SR. CAIXA, APOS O VENCIMENTO COBRAR 10% DE MULTA                                NAO RECEBER APOS 30 DIAS DO VENCIMENTO.                                                                                                                                                                                                         01122100000000000000112210000000000000       0090028004416120630645122115000030
100000000000000000000009002800441612000000000000000000000000010002100005920512211400000000002            2  01059205122110122100000002423980000000001N011221000000000000000000000000000000000000000000000000000000000000000100005920579846SONIA MARIA VALDO POLLO                 RUA PALMIRA CERVI BARBARO - 797 - CIDADE            13214370                                                            000032
2SR. CAIXA, APOS O VENCIMENTO COBRAR 10% DE MULTA                                NAO RECEBER APOS 30 DIAS DO VENCIMENTO.                                                                                                                                                                                                         01122100000000000000112210000000000000       0090028004416120059205122114000033
100000000000000000000009002800441612000000000000000000000000010002100002494112211500000000002            2  01024941122110122100000003644560000000001N011221000000000000000000000000000000000000000000000000000000000000000100002494107881CIRO FRANCISCO MARCHI DURIGON           RUA MONTE CASTELO - 262 AP.115 - AVIACAO            11702720                                                            000035
2SR. CAIXA, APOS O VENCIMENTO COBRAR 10% DE MULTA                                NAO RECEBER APOS 30 DIAS DO VENCIMENTO.                                                                                                                                                                                                         01122100000000000000112210000000000000       0090028004416120024941122115000036
100000000000000000000009002800441612000000000000000000000000010002100007002312211200000000002            2  01070023122110122100000003582780000000001N011221000000000000000000000000000000000000000000000000000000000000000100007002345869DOMINGOS DE BRITO GALVAO                RUA MONTE CASTELO - 262 AP.44 - AVIACAO             11702720                                                            000038
2SR. CAIXA, APOS O VENCIMENTO COBRAR 10% DE MULTA                                NAO RECEBER APOS 30 DIAS DO VENCIMENTO.                                                                                                                                                                                                         01122100000000000000112210000000000000       0090028004416120070023122112000039
100000000000000000000009002800441612000000000000000000000000010002100016299012211600000000002            2  01162990122110122100000003453800000000001N011221000000000000000000000000000000000000000000000000000000000000000100016299008857FERNANDO CESAR CARVALHO                 AVENIDA MARCONDES DE BRITO - 1340 AP.74             03509000                                                            000041
2SR. CAIXA, APOS O VENCIMENTO COBRAR 10% DE MULTA                                NAO RECEBER APOS 30 DIAS DO VENCIMENTO.                                                                                                                                                                                                         01122100000000000000112210000000000000       0090028004416120162990122116000042
100000000000000000000009002800441612000000000000000000000000010002100031082812211P00000000002            2  01310828122110122100000003470550000000001N011221000000000000000000000000000000000000000000000000000000000000000100031082898880VANESSA DOS SANTOS NEIVA                RUA MONTE CASTELO - 296 AP.33 - BAIRRO A            11702720                                                            000044
2SR. CAIXA, APOS O VENCIMENTO COBRAR 10% DE MULTA                                NAO RECEBER APOS 30 DIAS DO VENCIMENTO.                                                                                                                                                                                                         01122100000000000000112210000000000000       009002800441612031082812211P000045
100000000000000000000009002800441612000000000000000000000000010002100065895312211P00000000002            2  01658953122110122100000002113030000000001N011221000000000000000000000000000000000000000000000000000000000000000100065895304834MARINHO BARBOSA CUNHA                   AVENIDA EDU CHAVES - 639 AP.43 - PARQUE             02229000                                                            000047
2SR. CAIXA, APOS O VENCIMENTO COBRAR 10% DE MULTA                                NAO RECEBER APOS 30 DIAS DO VENCIMENTO.                                                                                                                                                                                                         01122100000000000000112210000000000000       009002800441612065895312211P000048
100000000000000000000009002800441612000000000000000000000000010002100055975312211700000000002            2  01559753122110122100000000788710000000001N011221000000000000000000000000000000000000000000000000000000000000000100055975372887BENEVENUTO THEODORO DA SILVA NETO       RUA MONTE CASTELO - 296 AP.63 - AVIACAO             11702720                                                            000050
2SR. CAIXA, APOS O VENCIMENTO COBRAR 10% DE MULTA                                NAO RECEBER APOS 30 DIAS DO VENCIMENTO.                                                                                                                                                                                                         01122100000000000000112210000000000000       0090028004416120559753122117000051
9                                                                                                                                                                                                                                                                                                                                                                                                         000052