01REMESSA01COBRANCA       00000000000005316116AIRES CONSTRUTORA E INCORPORAD237BRADESCO       011122        MX0000205                                                                                                                                                                                                                                                                                     000001
100000000000000000000009002800441612000000000000000000000000010002100025215111221P00000000002            2  01252151112210112200000007921370000000001N011122000000000000000000000000000000000000000000000000000000000000000100025215106886KLEBER LUIZ DOS SANTOS                  RUA MONTE CASTELO - 262 AP.15 - AVIACAO             11702720                                                            000002
2SR. CAIXA, APOS O VENCIMENTO COBRAR 10% DE MULTA                                NAO RECEBER APOS 30 DIAS DO VENCIMENTO.                                                                                                                                                                                                         01112200000000000000111220000000000000       009002800441612025215111221P000003
100000000000000000000009002800441612000000000000000000000000010002100018344811221700000000002            2  01183448112210112200000004632640000000001N011122000000000000000000000000000000000000000000000000000000000000000100018344803888MARCELO BERNARDO                        RUA MONTE CASTELO - 262 AP.84 - AVIACAO             11702720                                                            000005
2SR. CAIXA, APOS O VENCIMENTO COBRAR 10% DE MULTA                                NAO RECEBER APOS 30 DIAS DO VENCIMENTO.                                                                                                                                                                                                         01112200000000000000111220000000000000       0090028004416120183448112217000006
100000000000000000000009002800441612000000000000000000000000010002100031803811221200000000002            2  01318038112210112200000003741100000000001N011122000000000000000000000000000000000000000000000000000000000000000100031803864877ELEILSON FELIPPE SANTOS                 RUA SANTA GREGORIA - 193 - CIDADE DUTRA             04806030                                                            000008
2SR. CAIXA, APOS O VENCIMENTO COBRAR 10% DE MULTA                                NAO RECEBER APOS 30 DIAS DO VENCIMENTO.                                                                                                                                                                                                         01112200000000000000111220000000000000       0090028004416120318038112212000009
100000000000000000000009002800441612000000000000000000000000010002100063064511221700000000002            2  01630645112210112200000004458170000000001N011122000000000000000000000000000000000000000000000000000000000000000100063064537849ANTONIO APARECIDO DA SILVA DESTEFANO    RUA PROFESSOR TEODORO BRAGA - 46 - VILA             02966020                                                            000011
2SR. CAIXA, APOS O VENCIMENTO COBRAR 10% DE MULTA                                NAO RECEBER APOS 30 DIAS DO VENCIMENTO.                                                                                                                                                                                                         01112200000000000000111220000000000000       0090028004416120630645112217000012
100000000000000000000009002800441612000000000000000000000000010002100005920511221600000000002            2  01059205112210112200000002595590000000001N011122000000000000000000000000000000000000000000000000000000000000000100005920579846SONIA MARIA VALDO POLLO                 RUA PALMIRA CERVI BARBARO - 797 - CIDADE            13214370                                                            000014
2SR. CAIXA, APOS O VENCIMENTO COBRAR 10% DE MULTA                                NAO RECEBER APOS 30 DIAS DO VENCIMENTO.                                                                                                                                                                                                         01112200000000000000111220000000000000       0090028004416120059205112216000015
100000000000000000000009002800441612000000000000000000000000010002100002494111221700000000002            2  01024941112210112200000003902560000000001N011122000000000000000000000000000000000000000000000000000000000000000100002494107881CIRO FRANCISCO MARCHI DURIGON           RUA MONTE CASTELO - 262 AP.115 - AVIACAO            11702720                                                            000017
2SR. CAIXA, APOS O VENCIMENTO COBRAR 10% DE MULTA                                NAO RECEBER APOS 30 DIAS DO VENCIMENTO.                                                                                                                                                                                                         01112200000000000000111220000000000000       0090028004416120024941112217000018
100000000000000000000009002800441612000000000000000000000000010002100016299011221800000000002            2  01162990112210112200000003698280000000001N011122000000000000000000000000000000000000000000000000000000000000000100016299008857FERNANDO CESAR CARVALHO                 AVENIDA MARCONDES DE BRITO - 1340 AP.74             03509000                                                            000020
2SR. CAIXA, APOS O VENCIMENTO COBRAR 10% DE MULTA                                NAO RECEBER APOS 30 DIAS DO VENCIMENTO.                                                                                                                                                                                                         01112200000000000000111220000000000000       0090028004416120162990112218000021
100000000000000000000009002800441612000000000000000000000000010002100055975311221900000000002            2  01559753112210112200000000844560000000001N011122000000000000000000000000000000000000000000000000000000000000000100055975372887BENEVENUTO THEODORO DA SILVA NETO       RUA MONTE CASTELO - 296 AP.63 - AVIACAO             11702720                                                            000023
2SR. CAIXA, APOS O VENCIMENTO COBRAR 10% DE MULTA                                NAO RECEBER APOS 30 DIAS DO VENCIMENTO.                                                                                                                                                                                                         01112200000000000000111220000000000000       0090028004416120559753112219000024
9                                                                                                                                                                                                                                                                                                                                                                                                         000025