01REMESSA01COBRANCA       00000000000008017025HB SANTOS CONSTRUTORA E INCORP237BRADESCO       010119        MX0000070                                                                                                                                                                                                                                                                                     000001
100000000000000000000009033990000627000000000000000000000000010002020029671501191200000000002            2  01296715011909011900000002385150000000001N010119000000000000000000000000000000000000000000000000000000000000000100029671526845ROGERIO CONSENTINO                      RUA CARLOS MAZER  - 678 - VILA CARMOSINA            08290700                                                            000002
2SR. CAIXA, APOS O VENCIMENTO COBRAR 2% DE MULTA                                 NAO RECEBER APOS 30 DIAS DO VENCIMENTO.                                                                                                                                                                                                         01011900000000000000101190000000000000       0090339900006270296715011912000003
100000000000000000000009033990000627000000000000000000000000010002020003863001191400000000002            2  01038630011909011900000002252980000000001N010119000000000000000000000000000000000000000000000000000000000000000100003863075803HERALDO MENQUINI                        RUA CARLOS JOSE BORSTENS - 50 AP.15 - AV            11702750                                                            000005
2SR. CAIXA, APOS O VENCIMENTO COBRAR 2% DE MULTA                                 NAO RECEBER APOS 30 DIAS DO VENCIMENTO.                                                                                                                                                                                                         01011900000000000000101190000000000000       0090339900006270038630011914000006
100000000000000000000009033990000627000000000000000000000000010002020029028401191100000000002            2  01290284011909011900000002307950000000001N010119000000000000000000000000000000000000000000000000000000000000000100029028478825LEONARDO LOUZADA                        RUA ILHEUS - QUADRA 31 - 244 - BAIRRO CE            19274000                                                            000008
2SR. CAIXA, APOS O VENCIMENTO COBRAR 2% DE MULTA                                 NAO RECEBER APOS 30 DIAS DO VENCIMENTO.                                                                                                                                                                                                         01011900000000000000101190000000000000       0090339900006270290284011911000009
100000000000000000000009033990000627000000000000000000000000010002020032878501191900000000002            2  01328785011909011900000003335440000000001N010119000000000000000000000000000000000000000000000000000000000000000100032878512847LEONARDO MOURA MONIZ CALDEIRA           RUA BALSA - 682 AP.134 T.02 - VILA ARCAD            02910000                                                            000011
2SR. CAIXA, APOS O VENCIMENTO COBRAR 2% DE MULTA                                 NAO RECEBER APOS 30 DIAS DO VENCIMENTO.                                                                                                                                                                                                         01011900000000000000101190000000000000       0090339900006270328785011919000012
100000000000000000000009033990000627000000000000000000000000010002020016479001191600000000002            2  01164790011909011900000003548310000000001N010119000000000000000000000000000000000000000000000000000000000000000100016479002806LOURDES PEREIRA DE QUEIROZ SECANECHIA   RUA PAULINO CURSI - 437 - CIDADE SAO MAT            03960060                                                            000014
2SR. CAIXA, APOS O VENCIMENTO COBRAR 2% DE MULTA                                 NAO RECEBER APOS 30 DIAS DO VENCIMENTO.                                                                                                                                                                                                         01011900000000000000101190000000000000       0090339900006270164790011916000015
100000000000000000000009033990000627000000000000000000000000010002020019635001191300000000002            2  01196350011909011900000002618030000000001N010119000000000000000000000000000000000000000000000000000000000000000100019635091885IVAN VIEIRA SILVA                       ABRAO JORGE - 3001 - JARDIM INTEGRACAO -            14405397                                                            000017
2SR. CAIXA, APOS O VENCIMENTO COBRAR 2% DE MULTA                                 NAO RECEBER APOS 30 DIAS DO VENCIMENTO.                                                                                                                                                                                                         01011900000000000000101190000000000000       0090339900006270196350011913000018
100000000000000000000009033990000627000000000000000000000000010002020009361401191300000000002            2  01093614011909011900000002576070000000001N010119000000000000000000000000000000000000000000000000000000000000000100009361471805JOSE BARBOSA DA SILVA                   RUA ALFREDO INACIO TRINDADE  - 60 AP.44             02344100                                                            000020
2SR. CAIXA, APOS O VENCIMENTO COBRAR 2% DE MULTA                                 NAO RECEBER APOS 30 DIAS DO VENCIMENTO.                                                                                                                                                                                                         01011900000000000000101190000000000000       0090339900006270093614011913000021
100000000000000000000009033990000627000000000000000000000000010002020012756901191700000000002            2  01127569011909011900000002223720000000001N010119000000000000000000000000000000000000000000000000000000000000000100012756959812ITAMAR JUVENAL DIAS DA SILVA            RUA ELISEU REINALDO MORAES VIEIRA - 90 A            02858000                                                            000023
2SR. CAIXA, APOS O VENCIMENTO COBRAR 2% DE MULTA                                 NAO RECEBER APOS 30 DIAS DO VENCIMENTO.                                                                                                                                                                                                         01011900000000000000101190000000000000       0090339900006270127569011917000024
100000000000000000000009033990000627000000000000000000000000010002020002731001191400000000002            2  01027310011909011900000002629030000000001N010119000000000000000000000000000000000000000000000000000000000000000100002731042842VALTER CERQUEIRA VILLA NOVA             RUA MACHADO - 106 - VILA AUGUSTA - GUARU            07025210                                                            000026
2SR. CAIXA, APOS O VENCIMENTO COBRAR 2% DE MULTA                                 NAO RECEBER APOS 30 DIAS DO VENCIMENTO.                                                                                                                                                                                                         01011900000000000000101190000000000000       0090339900006270027310011914000027
100000000000000000000009033990000627000000000000000000000000010002020002731001192200000000002            2  01027310011909011900000002629030000000001N010119000000000000000000000000000000000000000000000000000000000000000100002731042842VALTER CERQUEIRA VILLA NOVA             RUA MACHADO - 106 - VILA AUGUSTA - GUARU            07025210                                                            000029
2SR. CAIXA, APOS O VENCIMENTO COBRAR 2% DE MULTA                                 NAO RECEBER APOS 30 DIAS DO VENCIMENTO.                                                                                                                                                                                                         01011900000000000000101190000000000000       0090339900006270027310011922000030
100000000000000000000009033990000627000000000000000000000000010002020028802101191200000000002            2  01288021011909011900000002373970000000001N010119000000000000000000000000000000000000000000000000000000000000000100028802158894ELIEL HENRIQUE ZUZA                     RUA CARLOS JOSE BORSTENS - 50 AP.43 - BA            11702750                                                            000032
2SR. CAIXA, APOS O VENCIMENTO COBRAR 2% DE MULTA                                 NAO RECEBER APOS 30 DIAS DO VENCIMENTO.                                                                                                                                                                                                         01011900000000000000101190000000000000       0090339900006270288021011912000033
100000000000000000000009033990000627000000000000000000000000010002020008739101191600000000002            2  01087391011909011900000002220250000000001N010119000000000000000000000000000000000000000000000000000000000000000100008739150895VANGEVALDO BATISTA SANT ANNA            TRAVESSA TOMAZIN - 02 - ERMELINO MATARAZ            03811125                                                            000035
2SR. CAIXA, APOS O VENCIMENTO COBRAR 2% DE MULTA                                 NAO RECEBER APOS 30 DIAS DO VENCIMENTO.                                                                                                                                                                                                         01011900000000000000101190000000000000       0090339900006270087391011916000036
100000000000000000000009033990000627000000000000000000000000010002020005313701191200000000002            2  01053137011911011900000001933320000000001N010119000000000000000000000000000000000000000000000000000000000000000100005313717863EDIMICIO JOSE DE ARAUJO                 PRACA NICOLAU GERAIGIRE - 680 CA A - JAR            11095110                                                            000038
2SR. CAIXA, APOS O VENCIMENTO COBRAR 2% DE MULTA                                 NAO RECEBER APOS 30 DIAS DO VENCIMENTO.                                                                                                                                                                                                         01011900000000000000101190000000000000       0090339900006270053137011912000039
100000000000000000000009033990000627000000000000000000000000010002020029433601191000000000002            2  01294336011911011900000001857250000000001N010119000000000000000000000000000000000000000000000000000000000000000100029433631897MARIO MUNIZ                             RUA LIBERO BADARO - 1115 - BAIRRO CIDADE            11704070                                                            000041
2SR. CAIXA, APOS O VENCIMENTO COBRAR 2% DE MULTA                                 NAO RECEBER APOS 30 DIAS DO VENCIMENTO.                                                                                                                                                                                                         01011900000000000000101190000000000000       0090339900006270294336011910000042
100000000000000000000009033990000627000000000000000000000000010002020001847201191900000000002            2  01018472011911011900000001709850000000001N010119000000000000000000000000000000000000000000000000000000000000000100001847204864AMERICA CONCEICAO DA SILVA              RUA CAMINHO DO GUARAMAR - 199 AP.11 BLOC            11721050                                                            000044
2SR. CAIXA, APOS O VENCIMENTO COBRAR 2% DE MULTA                                 NAO RECEBER APOS 30 DIAS DO VENCIMENTO.                                                                                                                                                                                                         01011900000000000000101190000000000000       0090339900006270018472011919000045
100000000000000000000009033990000627000000000000000000000000010002020005029801191300000000002            2  01050298011909011900000002267230000000001N010119000000000000000000000000000000000000000000000000000000000000000100005029828885LAURINETE DA CONCEICAO DE NORONHA       RUA MARIA LUCIA DE TOLEDO LEITE MORAES -            04434040                                                            000047
2SR. CAIXA, APOS O VENCIMENTO COBRAR 2% DE MULTA                                 NAO RECEBER APOS 30 DIAS DO VENCIMENTO.                                                                                                                                                                                                         01011900000000000000101190000000000000       0090339900006270050298011913000048
100000000000000000000009033990000627000000000000000000000000010002020027682101191200000000002            2  01276821011911011900000001802550000000001N010119000000000000000000000000000000000000000000000000000000000000000100027682175818ALINE TEIXEIRA                          RUA CRUZEIRO DO SUL - 309 - JARDIM BOM P            06385060                                                            000050
2SR. CAIXA, APOS O VENCIMENTO COBRAR 2% DE MULTA                                 NAO RECEBER APOS 30 DIAS DO VENCIMENTO.                                                                                                                                                                                                         01011900000000000000101190000000000000       0090339900006270276821011912000051
100000000000000000000009033990000627000000000000000000000000010002020013388901191500000000002            2  01133889011911011900000001810550000000001N010119000000000000000000000000000000000000000000000000000000000000000100013388936889NEUTON DE SOUZA RAMOS                   RUA MARIA CRISTINA - 932 - JARDIM CASQUE            11533160                                                            000053
2SR. CAIXA, APOS O VENCIMENTO COBRAR 2% DE MULTA                                 NAO RECEBER APOS 30 DIAS DO VENCIMENTO.                                                                                                                                                                                                         01011900000000000000101190000000000000       0090339900006270133889011915000054
100000000000000000000009033990000627000000000000000000000000010002020012774901191500000000002            2  01127749011911011900000001844530000000001N010119000000000000000000000000000000000000000000000000000000000000000100012774906865JOSE MILTON SANTIAGO                    RUA BATATAIS - 47 - CIDADE ESTELA - POA             08563140                                                            000056
2SR. CAIXA, APOS O VENCIMENTO COBRAR 2% DE MULTA                                 NAO RECEBER APOS 30 DIAS DO VENCIMENTO.                                                                                                                                                                                                         01011900000000000000101190000000000000       0090339900006270127749011915000057
100000000000000000000009033990000627000000000000000000000000010002020016294101191000000000002            2  01162941011909011900000002250960000000001N010119000000000000000000000000000000000000000000000000000000000000000100016294119812JURACY FELIX DE ARRUDA                  RUA CARLOS JOSE BORSTENS - 50 AP.23 - AV            11702750                                                            000059
2SR. CAIXA, APOS O VENCIMENTO COBRAR 2% DE MULTA                                 NAO RECEBER APOS 30 DIAS DO VENCIMENTO.                                                                                                                                                                                                         01011900000000000000101190000000000000       0090339900006270162941011910000060
100000000000000000000009033990000627000000000000000000000000010002020005613801191500000000002            2  01056138011911011900000001696460000000001N010119000000000000000000000000000000000000000000000000000000000000000100005613843805NILZA MARIA DE OLIVEIRA                 RUA JOSE GONCALVES DE FREITAS - 66 C2 -             08210550                                                            000062
2SR. CAIXA, APOS O VENCIMENTO COBRAR 2% DE MULTA                                 NAO RECEBER APOS 30 DIAS DO VENCIMENTO.                                                                                                                                                                                                         01011900000000000000101190000000000000       0090339900006270056138011915000063
100000000000000000000009033990000627000000000000000000000000010002020007574901191500000000002            2  01075749011911011900000001741370000000001N010119000000000000000000000000000000000000000000000000000000000000000100007574936889JORGE LUCIANO PEREIRA BORRIELLO         RUA FABIO DE ALMEIDA MAGALHAES - 179 - J            05135370                                                            000065
2SR. CAIXA, APOS O VENCIMENTO COBRAR 2% DE MULTA                                 NAO RECEBER APOS 30 DIAS DO VENCIMENTO.                                                                                                                                                                                                         01011900000000000000101190000000000000       0090339900006270075749011915000066
100000000000000000000009033990000627000000000000000000000000010002020032408101191800000000002            2  01324081011911011900000001641770000000001N010119000000000000000000000000000000000000000000000000000000000000000100032408151848DEILSON DO NASCIMENTO CANDIDO DA SILVA  RUA HEREMITA SANTA DO NASCIMENTO - 37 AP            11345340                                                            000068
2SR. CAIXA, APOS O VENCIMENTO COBRAR 2% DE MULTA                                 NAO RECEBER APOS 30 DIAS DO VENCIMENTO.                                                                                                                                                                                                         01011900000000000000101190000000000000       0090339900006270324081011918000069
100000000000000000000009033990000627000000000000000000000000010002020008214901191800000000002            2  01082149011911011900000001767810000000001N010119000000000000000000000000000000000000000000000000000000000000000100008214973830JAMIL CHALA                             AVENIDA COSTA MACHADO - 291 AP.133-A - C            11700650                                                            000071
2SR. CAIXA, APOS O VENCIMENTO COBRAR 2% DE MULTA                                 NAO RECEBER APOS 30 DIAS DO VENCIMENTO.                                                                                                                                                                                                         01011900000000000000101190000000000000       0090339900006270082149011918000072
100000000000000000000009033990000627000000000000000000000000010002020032495001191500000000002            2  01324950011911011900000001981060000000001N010119000000000000000000000000000000000000000000000000000000000000000100032495004881PAULO EDUARDO DOS SANTOS                RUA REPUBLICA DO IRAQUE - 1119 - CAMPO B            04611002                                                            000074
2SR. CAIXA, APOS O VENCIMENTO COBRAR 2% DE MULTA                                 NAO RECEBER APOS 30 DIAS DO VENCIMENTO.                                                                                                                                                                                                         01011900000000000000101190000000000000       0090339900006270324950011915000075
100000000000000000000009033990000627000000000000000000000000010002020006471801191500000000002            2  01064718011909011900000002216120000000001N010119000000000000000000000000000000000000000000000000000000000000000100006471825803JOSIVALDO BASTOS DE OLIVEIRA            RUA MARIA DIAS HOG - 263 - PARQUE CONTIN            07085035                                                            000077
2SR. CAIXA, APOS O VENCIMENTO COBRAR 2% DE MULTA                                 NAO RECEBER APOS 30 DIAS DO VENCIMENTO.                                                                                                                                                                                                         01011900000000000000101190000000000000       0090339900006270064718011915000078
100000000000000000000009033990000627000000000000000000000000010002020038856801191100000000002            2  01388568011911011900000001836490000000001N010119000000000000000000000000000000000000000000000000000000000000000100038856851830FELIPE BIANCHI DA COSTA FREITAS         AVENIDA ENGENHEIRO ARMANDO DE ARRUDA PER            04325001                                                            000080
2SR. CAIXA, APOS O VENCIMENTO COBRAR 2% DE MULTA                                 NAO RECEBER APOS 30 DIAS DO VENCIMENTO.                                                                                                                                                                                                         01011900000000000000101190000000000000       0090339900006270388568011911000081
100000000000000000000009033990000627000000000000000000000000010002020016498001191200000000002            2  01164980011911011900000001737420000000001N010119000000000000000000000000000000000000000000000000000000000000000100016498053810GILMA CEZARIO GARCIA CORRITORI          RUA LAURENTINO XAVIER DOS SANTOS - 336 -            08240740                                                            000083
2SR. CAIXA, APOS O VENCIMENTO COBRAR 2% DE MULTA                                 NAO RECEBER APOS 30 DIAS DO VENCIMENTO.                                                                                                                                                                                                         01011900000000000000101190000000000000       0090339900006270164980011912000084
100000000000000000000009033990000627000000000000000000000000010002020030098601191500000000002            2  01300986011911011900000001865280000000001N010119000000000000000000000000000000000000000000000000000000000000000100030098603825DEUZIANA MOREIRA DE SA                  RUA JOAO AVELINO PINHO MELLAO - 114 - JA            05659010                                                            000086
2SR. CAIXA, APOS O VENCIMENTO COBRAR 2% DE MULTA                                 NAO RECEBER APOS 30 DIAS DO VENCIMENTO.                                                                                                                                                                                                         01011900000000000000101190000000000000       0090339900006270300986011915000087
100000000000000000000009033990000627000000000000000000000000010002020029339001191100000000002            2  01293390011911011900000001857890000000001N010119000000000000000000000000000000000000000000000000000000000000000100029339051831RONALD DIDOFF                           RUA CORONEL FERREIRA BRAGA - 188 - VILA             03522010                                                            000089
2SR. CAIXA, APOS O VENCIMENTO COBRAR 2% DE MULTA                                 NAO RECEBER APOS 30 DIAS DO VENCIMENTO.                                                                                                                                                                                                         01011900000000000000101190000000000000       0090339900006270293390011911000090
100000000000000000000009033990000627000000000000000000000000010002020017357801191300000000002            2  01173578011911011900000001967660000000001N010119000000000000000000000000000000000000000000000000000000000000000100017357859894MARCIO GUIMARAES                        RUA GENERAL CAMARA - 188 SALA 11 - CENTR            11010120                                                            000092
2SR. CAIXA, APOS O VENCIMENTO COBRAR 2% DE MULTA                                 NAO RECEBER APOS 30 DIAS DO VENCIMENTO.                                                                                                                                                                                                         01011900000000000000101190000000000000       0090339900006270173578011913000093
100000000000000000000009033990000627000000000000000000000000010002020010563001191300000000002            2  01105630011911011900000002017960000000001N010119000000000000000000000000000000000000000000000000000000000000000100010563033878VERA LUCIA RIBEIRO LONGANEZI            RUA DOS CAMARES - 150 AP.24 BL.02 - CARA            02068030                                                            000095
2SR. CAIXA, APOS O VENCIMENTO COBRAR 2% DE MULTA                                 NAO RECEBER APOS 30 DIAS DO VENCIMENTO.                                                                                                                                                                                                         01011900000000000000101190000000000000       0090339900006270105630011913000096
100000000000000000000009033990000627000000000000000000000000010002020005529601191800000000002            2  01055296011911011900000001831220000000001N010119000000000000000000000000000000000000000000000000000000000000000100005529616801JOAQUIM JORGE DA COSTA                  RUA CONEGO XAVIER - 13 - SACOMA - SAO PA            04231030                                                            000098
2SR. CAIXA, APOS O VENCIMENTO COBRAR 2% DE MULTA                                 NAO RECEBER APOS 30 DIAS DO VENCIMENTO.                                                                                                                                                                                                         01011900000000000000101190000000000000       0090339900006270055296011918000099
100000000000000000000009033990000627000000000000000000000000010002020022014101191200000000002            2  01220141011911011900000001825880000000001N010119000000000000000000000000000000000000000000000000000000000000000100022014140847CAMILA SILVEIRA CANIZARES               AVENIDA PRESIDENTE CASTELO BRANCO - 5.74            11703650                                                            000101
2SR. CAIXA, APOS O VENCIMENTO COBRAR 2% DE MULTA                                 NAO RECEBER APOS 30 DIAS DO VENCIMENTO.                                                                                                                                                                                                         01011900000000000000101190000000000000       0090339900006270220141011912000102
100000000000000000000009033990000627000000000000000000000000010002020015550701191400000000002            2  01155507011909011900000001718540000000001N010119000000000000000000000000000000000000000000000000000000000000000100015550706806MARY MIWA                               RUA CARLOS JOSE BORSTENS - 50 AP.105 - A            11702750                                                            000104
2SR. CAIXA, APOS O VENCIMENTO COBRAR 2% DE MULTA                                 NAO RECEBER APOS 30 DIAS DO VENCIMENTO.                                                                                                                                                                                                         01011900000000000000101190000000000000       0090339900006270155507011914000105
100000000000000000000009033990000627000000000000000000000000010002020015464601191400000000002            2  01154646011911011900000001925040000000001N010119000000000000000000000000000000000000000000000000000000000000000100015464647864SONIA TERESA VOLPATO                    RUA PEDRO BADRA - 51 AP.73 - JABAQUARA -            04348090                                                            000107
2SR. CAIXA, APOS O VENCIMENTO COBRAR 2% DE MULTA                                 NAO RECEBER APOS 30 DIAS DO VENCIMENTO.                                                                                                                                                                                                         01011900000000000000101190000000000000       0090339900006270154646011914000108
100000000000000000000009033990000627000000000000000000000000010002020008657801191300000000002            2  01086578011911011900000001905720000000001N010119000000000000000000000000000000000000000000000000000000000000000100008657886855ARLINDO DA CRUZ                         AVENIDA ARICANDUVA - 8.256 AP.54 BL.10 -            03951220                                                            000110
2SR. CAIXA, APOS O VENCIMENTO COBRAR 2% DE MULTA                                 NAO RECEBER APOS 30 DIAS DO VENCIMENTO.                                                                                                                                                                                                         01011900000000000000101190000000000000       0090339900006270086578011913000111
100000000000000000000009033990000627000000000000000000000000010002020004265701191300000000002            2  01042657011909011900000002532240000000001N010119000000000000000000000000000000000000000000000000000000000000000100004265781713ALEXANDRE CASADO COSTA                  RUA CARLOS JOSE BORSTENS - 50 AP.33 - AV            11702750                                                            000113
2SR. CAIXA, APOS O VENCIMENTO COBRAR 2% DE MULTA                                 NAO RECEBER APOS 30 DIAS DO VENCIMENTO.                                                                                                                                                                                                         01011900000000000000101190000000000000       0090339900006270042657011913000114
100000000000000000000009033990000627000000000000000000000000010002020059735101191100000000002            2  01597351011909011900000001069560000000001N010119000000000000000000000000000000000000000000000000000000000000000100059735180863HELIO JOSE MARQUES                      RUA MARTIM AFONSO DE SOUZA - 1007 AP.102            11702790                                                            000116
2SR. CAIXA, APOS O VENCIMENTO COBRAR 2% DE MULTA                                 NAO RECEBER APOS 30 DIAS DO VENCIMENTO.                                                                                                                                                                                                         01011900000000000000101190000000000000       0090339900006270597351011911000117
100000000000000000000009033990000627000000000000000000000000010002020026347801191500000000002            2  01263478011911011900000002037170000000001N010119000000000000000000000000000000000000000000000000000000000000000100026347872862VALDECI SILVA MEIRELES                  RUA JOSE BATISTA DA SILVA - 292 - JARDIM            06851470                                                            000119
2SR. CAIXA, APOS O VENCIMENTO COBRAR 2% DE MULTA                                 NAO RECEBER APOS 30 DIAS DO VENCIMENTO.                                                                                                                                                                                                         01011900000000000000101190000000000000       0090339900006270263478011915000120
100000000000000000000009033990000627000000000000000000000000010002020025443601191600000000002            2  01254436011909011900000003663010000000001N010119000000000000000000000000000000000000000000000000000000000000000100025443691830SILVANETE PEREIRA CARNELOS              RUA CARLOS JOSE BORSTENS - 50 AP.102 - A            11702750                                                            000122
2SR. CAIXA, APOS O VENCIMENTO COBRAR 2% DE MULTA                                 NAO RECEBER APOS 30 DIAS DO VENCIMENTO.                                                                                                                                                                                                         01011900000000000000101190000000000000       0090339900006270254436011916000123
100000000000000000000009033990000627000000000000000000000000010002020013135201191600000000002            2  01131352011911011900000001871660000000001N010119000000000000000000000000000000000000000000000000000000000000000100013135261859EDUARDO ZANOLA                          RUA ROLANDO PIETRO BONINI - 46 - JARDIM             09781040                                                            000125
2SR. CAIXA, APOS O VENCIMENTO COBRAR 2% DE MULTA                                 NAO RECEBER APOS 30 DIAS DO VENCIMENTO.                                                                                                                                                                                                         01011900000000000000101190000000000000       0090339900006270131352011916000126
100000000000000000000009033990000627000000000000000000000000010002020009797601191700000000002            2  01097976011911011900000001822800000000001N010119000000000000000000000000000000000000000000000000000000000000000100009797626857RICARDO SOBRAL DE OLIVEIRA              RUA 23 DE MAIO - 139 AP.32 - VILA MIRIM             11704690                                                            000128
2SR. CAIXA, APOS O VENCIMENTO COBRAR 2% DE MULTA                                 NAO RECEBER APOS 30 DIAS DO VENCIMENTO.                                                                                                                                                                                                         01011900000000000000101190000000000000       0090339900006270097976011917000129
100000000000000000000009033990000627000000000000000000000000010002020004767601191800000000002            2  01047676011909011900000003093800000000001N010119000000000000000000000000000000000000000000000000000000000000000100004767679893ORLANDO GRANDE FILHO                    RUA ORLANDO MIGLIARI - 101 - JARDIM OURO            19906140                                                            000131
2SR. CAIXA, APOS O VENCIMENTO COBRAR 2% DE MULTA                                 NAO RECEBER APOS 30 DIAS DO VENCIMENTO.                                                                                                                                                                                                         01011900000000000000101190000000000000       0090339900006270047676011918000132
100000000000000000000009033990000627000000000000000000000000010002020006512501191500000000002            2  01065125011911011900000001639690000000001N010119000000000000000000000000000000000000000000000000000000000000000100006512547870MARIA DO CARMO FAGUNDES DOS REIS        RUA CARLOS MALCHER - 98 - PARQUE EDU CHA            02232020                                                            000134
2SR. CAIXA, APOS O VENCIMENTO COBRAR 2% DE MULTA                                 NAO RECEBER APOS 30 DIAS DO VENCIMENTO.                                                                                                                                                                                                         01011900000000000000101190000000000000       0090339900006270065125011915000135
9                                                                                                                                                                                                                                                                                                                                                                                                         000136