01REMESSA01COBRANCA       00000000000008017025HB SANTOS CONSTRUTORA E INCORP237BRADESCO       010817        MX0000035                                                                                                                                                                                                                                                                                     000001
100000000000000000000009033990000627000000000000000000000000010002020016726138171500000000002            2  01167261381709081700000002137300000000001N010817000000000000000000000000000000000000000000000000000000000000000100029671526845ROGERIO CONSENTINO                      RUA CARLOS MAZER  - 678 - VILA CARMOSINA            08290700                                                            000002
2SR. CAIXA, APOS O VENCIMENTO COBRAR 2% DE MULTA                                 NAO RECEBER APOS 30 DIAS DO VENCIMENTO.                                                                                                                                                                                                         01081700000000000000108170000000000000       0090339900006270167261381715000003
100000000000000000000009033990000627000000000000000000000000010002020017076141174300000000002            2  01170761411709081700000002018840000000001N010817000000000000000000000000000000000000000000000000000000000000000100003863075803HERALDO MENQUINI                        RUA OCEANICA AMABILE - 346 AP.415 - CIDA            11704420                                                            000005
2SR. CAIXA, APOS O VENCIMENTO COBRAR 2% DE MULTA                                 NAO RECEBER APOS 30 DIAS DO VENCIMENTO.                                                                                                                                                                                                         01081700000000000000108170000000000000       0090339900006270170761411743000006
100000000000000000000009033990000627000000000000000000000000010002020017223142175900000000002            2  01172231421709081700000003009330000000001N010817000000000000000000000000000000000000000000000000000000000000000100025047474895DEMETRIUS GOLDSTEIN GUEDES              PRACA PALMARES - 28 - MACUCO - SANTOS -             11015330                                                            000008
2SR. CAIXA, APOS O VENCIMENTO COBRAR 2% DE MULTA                                 NAO RECEBER APOS 30 DIAS DO VENCIMENTO.                                                                                                                                                                                                         01081700000000000000108170000000000000       0090339900006270172231421759000009
100000000000000000000009033990000627000000000000000000000000010002020018497145186200000000002            2  01184971451809081700000002384790000000001N010817000000000000000000000000000000000000000000000000000000000000000100067470041834PEDRO RAIMUNDO MAGALHAES                RUA TANCREDO DE ALMEIDA NEVES - 36 - JAR            06865010                                                            000011
2SR. CAIXA, APOS O VENCIMENTO COBRAR 2% DE MULTA                                 NAO RECEBER APOS 30 DIAS DO VENCIMENTO.                                                                                                                                                                                                         01081700000000000000108170000000000000       0090339900006270184971451862000012
100000000000000000000009033990000627000000000000000000000000010002020018754148188000000000002            2  01187541481809081700000002469200000000001N010817000000000000000000000000000000000000000000000000000000000000000100013135261859EDUARDO ZANOLA                          RUA ROLANDO PIETRO BONINI - 46 - JARDIM             09781040                                                            000014
2SR. CAIXA, APOS O VENCIMENTO COBRAR 2% DE MULTA                                 NAO RECEBER APOS 30 DIAS DO VENCIMENTO.                                                                                                                                                                                                         01081700000000000000108170000000000000       0090339900006270187541481880000015
100000000000000000000009033990000627000000000000000000000000010002020018899149189000000000002            2  01188991491809081700000002068120000000001N010817000000000000000000000000000000000000000000000000000000000000000100029028478825LEONARDO LOUZADA                        RUA ILHEUS - QUADRA 31 - 244 - BAIRRO CE            19274000                                                            000017
2SR. CAIXA, APOS O VENCIMENTO COBRAR 2% DE MULTA                                 NAO RECEBER APOS 30 DIAS DO VENCIMENTO.                                                                                                                                                                                                         01081700000000000000108170000000000000       0090339900006270188991491890000018
100000000000000000000009033990000627000000000000000000000000010002020019900156197200000000002            2  01199001561909081700000002988840000000001N010817000000000000000000000000000000000000000000000000000000000000000100032878512847LEONARDO MOURA MONIZ CALDEIRA           RUA BALSA - 682 AP.134 T.02 - VILA ARCAD            02910000                                                            000020
2SR. CAIXA, APOS O VENCIMENTO COBRAR 2% DE MULTA                                 NAO RECEBER APOS 30 DIAS DO VENCIMENTO.                                                                                                                                                                                                         01081700000000000000108170000000000000       0090339900006270199001561972000021
100000000000000000000009033990000627000000000000000000000000010002020020444159201600000000002            2  01204441592009081700000003179570000000001N010817000000000000000000000000000000000000000000000000000000000000000100016479002806LOURDES PEREIRA DE QUEIROZ SECANECHIA   RUA PAULINO CURSI - 437 - CIDADE SAO MAT            03960060                                                            000023
2SR. CAIXA, APOS O VENCIMENTO COBRAR 2% DE MULTA                                 NAO RECEBER APOS 30 DIAS DO VENCIMENTO.                                                                                                                                                                                                         01081700000000000000108170000000000000       0090339900006270204441592016000024
100000000000000000000009033990000627000000000000000000000000010002020020914162205500000000002            2  01209141622009081700000002345960000000001N010817000000000000000000000000000000000000000000000000000000000000000100019635091885IVAN VIEIRA SILVA                       ABRAO JORGE - 3001 - JARDIM INTEGRACAO -            14405397                                                            000026
2SR. CAIXA, APOS O VENCIMENTO COBRAR 2% DE MULTA                                 NAO RECEBER APOS 30 DIAS DO VENCIMENTO.                                                                                                                                                                                                         01081700000000000000108170000000000000       0090339900006270209141622055000027
100000000000000000000009033990000627000000000000000000000000010002020022161170216600000000002            2  01221611702109081700000002308380000000001N010817000000000000000000000000000000000000000000000000000000000000000100009361471805JOSE BARBOSA DA SILVA                   RUA ALFREDO INACIO TRINDADE  - 60 AP.44             02344100                                                            000029
2SR. CAIXA, APOS O VENCIMENTO COBRAR 2% DE MULTA                                 NAO RECEBER APOS 30 DIAS DO VENCIMENTO.                                                                                                                                                                                                         01081700000000000000108170000000000000       0090339900006270221611702166000030
100000000000000000000009033990000627000000000000000000000000010002020022308171217600000000002            2  01223081712109081700000001992640000000001N010817000000000000000000000000000000000000000000000000000000000000000100012756959812ITAMAR JUVENAL DIAS DA SILVA            RUA ELISEU REINALDO MORAES VIEIRA - 90 A            02858000                                                            000032
2SR. CAIXA, APOS O VENCIMENTO COBRAR 2% DE MULTA                                 NAO RECEBER APOS 30 DIAS DO VENCIMENTO.                                                                                                                                                                                                         01081700000000000000108170000000000000       0090339900006270223081712176000033
100000000000000000000009033990000627000000000000000000000000010002020022873175222600000000002            2  01228731752209081700000002355820000000001N010817000000000000000000000000000000000000000000000000000000000000000100002731042842VALTER CERQUEIRA VILLA NOVA             RUA MACHADO - 106 - VILA AUGUSTA - GUARU            07025210                                                            000035
2SR. CAIXA, APOS O VENCIMENTO COBRAR 2% DE MULTA                                 NAO RECEBER APOS 30 DIAS DO VENCIMENTO.                                                                                                                                                                                                         01081700000000000000108170000000000000       0090339900006270228731752226000036
100000000000000000000009033990000627000000000000000000000000010002020023002175222100000000002            2  01230021752209081700000002355820000000001N010817000000000000000000000000000000000000000000000000000000000000000100002731042842VALTER CERQUEIRA VILLA NOVA             RUA MACHADO - 106 - VILA AUGUSTA - GUARU            07025210                                                            000038
2SR. CAIXA, APOS O VENCIMENTO COBRAR 2% DE MULTA                                 NAO RECEBER APOS 30 DIAS DO VENCIMENTO.                                                                                                                                                                                                         01081700000000000000108170000000000000       0090339900006270230021752221000039
100000000000000000000009033990000627000000000000000000000000010002020023161177224000000000002            2  01231611772209081700000002127280000000001N010817000000000000000000000000000000000000000000000000000000000000000100028802158894ELIEL HENRIQUE ZUZA                     RUA MONTE CASTELO - 262 AP.14 - BAIRRO A            11702720                                                            000041
2SR. CAIXA, APOS O VENCIMENTO COBRAR 2% DE MULTA                                 NAO RECEBER APOS 30 DIAS DO VENCIMENTO.                                                                                                                                                                                                         01081700000000000000108170000000000000       0090339900006270231611772240000042
100000000000000000000009033990000627000000000000000000000000010002020023310178225200000000002            2  01233101782209081700000001989540000000001N010817000000000000000000000000000000000000000000000000000000000000000100008739150895VANGEVALDO BATISTA SANT ANNA            TRAVESSA TOMAZIN - 02 - ERMELINO MATARAZ            03811125                                                            000044
2SR. CAIXA, APOS O VENCIMENTO COBRAR 2% DE MULTA                                 NAO RECEBER APOS 30 DIAS DO VENCIMENTO.                                                                                                                                                                                                         01081700000000000000108170000000000000       0090339900006270233101782252000045
100000000000000000000009033990000627000000000000000000000000010002020023748181228600000000002            2  01237481812211081700000001776150000000001N010817000000000000000000000000000000000000000000000000000000000000000100005313717863EDIMICIO JOSE DE ARAUJO                 PRACA NICOLAU GERAIGIRE - 680 CA A - JAR            11095110                                                            000047
2SR. CAIXA, APOS O VENCIMENTO COBRAR 2% DE MULTA                                 NAO RECEBER APOS 30 DIAS DO VENCIMENTO.                                                                                                                                                                                                         01081700000000000000108170000000000000       0090339900006270237481812286000048
100000000000000000000009033990000627000000000000000000000000010002020023894182229P00000000002            2  01238941822211081700000001706280000000001N010817000000000000000000000000000000000000000000000000000000000000000100029433631897MARIO MUNIZ                             RUA LIBERO BADARO - 1115 - BAIRRO CIDADE            11704070                                                            000050
2SR. CAIXA, APOS O VENCIMENTO COBRAR 2% DE MULTA                                 NAO RECEBER APOS 30 DIAS DO VENCIMENTO.                                                                                                                                                                                                         01081700000000000000108170000000000000       009033990000627023894182229P000051
100000000000000000000009033990000627000000000000000000000000010002020024038183230200000000002            2  01240381832311081700000001530110000000001N010817000000000000000000000000000000000000000000000000000000000000000100038856851830FELIPE BIANCHI DA COSTA FREITAS         AVENIDA ENGENHEIRO ARMANDO DE ARRUDA PER            04325001                                                            000053
2SR. CAIXA, APOS O VENCIMENTO COBRAR 2% DE MULTA                                 NAO RECEBER APOS 30 DIAS DO VENCIMENTO.                                                                                                                                                                                                         01081700000000000000108170000000000000       0090339900006270240381832302000054
100000000000000000000009033990000627000000000000000000000000010002020024332180232200000000002            2  01243321802311081700000001570880000000001N010817000000000000000000000000000000000000000000000000000000000000000100001847204864AMERICA CONCEICAO DA SILVA              RUA CAMINHO DO GUARAMAR - 199 AP.11 BLOC            11721050                                                            000056
2SR. CAIXA, APOS O VENCIMENTO COBRAR 2% DE MULTA                                 NAO RECEBER APOS 30 DIAS DO VENCIMENTO.                                                                                                                                                                                                         01081700000000000000108170000000000000       0090339900006270243321802322000057
100000000000000000000009033990000627000000000000000000000000010002020025653189241800000000002            2  01256531892409081700000002031620000000001N010817000000000000000000000000000000000000000000000000000000000000000100005029828885LAURINETE DA CONCEICAO DE NORONHA       RUA MARIA LUCIA DE TOLEDO LEITE MORAES -            04434040                                                            000059
2SR. CAIXA, APOS O VENCIMENTO COBRAR 2% DE MULTA                                 NAO RECEBER APOS 30 DIAS DO VENCIMENTO.                                                                                                                                                                                                         01081700000000000000108170000000000000       0090339900006270256531892418000060
100000000000000000000009033990000627000000000000000000000000010002020027111195252P00000000002            2  01271111952511081700000001656030000000001N010817000000000000000000000000000000000000000000000000000000000000000100027682175818ALINE TEIXEIRA                          RUA CRUZEIRO DO SUL - 309 - JARDIM BOM P            06385060                                                            000062
2SR. CAIXA, APOS O VENCIMENTO COBRAR 2% DE MULTA                                 NAO RECEBER APOS 30 DIAS DO VENCIMENTO.                                                                                                                                                                                                         01081700000000000000108170000000000000       009033990000627027111195252P000063
100000000000000000000009033990000627000000000000000000000000010002020027248195252500000000002            2  01272481952511081700000001656030000000001N010817000000000000000000000000000000000000000000000000000000000000000100027682175818ALINE TEIXEIRA                          RUA CRUZEIRO DO SUL - 309 - JARDIM BOM P            06385060                                                            000065
2SR. CAIXA, APOS O VENCIMENTO COBRAR 2% DE MULTA                                 NAO RECEBER APOS 30 DIAS DO VENCIMENTO.                                                                                                                                                                                                         01081700000000000000108170000000000000       0090339900006270272481952525000066
100000000000000000000009033990000627000000000000000000000000010002020027841200257200000000002            2  01278412002511081700000001663360000000001N010817000000000000000000000000000000000000000000000000000000000000000100013388936889NEUTON DE SOUZA RAMOS                   RUA MARIA CRISTINA - 932 - JARDIM CASQUE            11533160                                                            000068
2SR. CAIXA, APOS O VENCIMENTO COBRAR 2% DE MULTA                                 NAO RECEBER APOS 30 DIAS DO VENCIMENTO.                                                                                                                                                                                                         01081700000000000000108170000000000000       0090339900006270278412002572000069
100000000000000000000009033990000627000000000000000000000000010002020028133202259P00000000002            2  01281332022511081700000001694570000000001N010817000000000000000000000000000000000000000000000000000000000000000100012774906865JOSE MILTON SANTIAGO                    RUA BATATAIS - 47 - CIDADE ESTELA - POA             08563140                                                            000071
2SR. CAIXA, APOS O VENCIMENTO COBRAR 2% DE MULTA                                 NAO RECEBER APOS 30 DIAS DO VENCIMENTO.                                                                                                                                                                                                         01081700000000000000108170000000000000       009033990000627028133202259P000072
100000000000000000000009033990000627000000000000000000000000010002020028284203260P00000000002            2  01282842032609081700000002960580000000001N010817000000000000000000000000000000000000000000000000000000000000000100004234989835LUIZ ISRAEL DA COSTA                    AVENIDA FERNANDO PACHECO JORDAO - 907 -             08121510                                                            000074
2SR. CAIXA, APOS O VENCIMENTO COBRAR 2% DE MULTA                                 NAO RECEBER APOS 30 DIAS DO VENCIMENTO.                                                                                                                                                                                                         01081700000000000000108170000000000000       009033990000627028284203260P000075
100000000000000000000009033990000627000000000000000000000000010002020028429204261300000000002            2  01284292042609081700000002017050000000001N010817000000000000000000000000000000000000000000000000000000000000000100016294119812JURACY FELIX DE ARRUDA                  RUA ERNA - 13 - ALTO DA MOOCA - SAO PAUL            03165050                                                            000077
2SR. CAIXA, APOS O VENCIMENTO COBRAR 2% DE MULTA                                 NAO RECEBER APOS 30 DIAS DO VENCIMENTO.                                                                                                                                                                                                         01081700000000000000108170000000000000       0090339900006270284292042613000078
100000000000000000000009033990000627000000000000000000000000010002020029158209266100000000002            2  01291582092611081700000001558560000000001N010817000000000000000000000000000000000000000000000000000000000000000100005613843805NILZA MARIA DE OLIVEIRA                 RUA JOSE GONCALVES DE FREITAS - 66 C2 -             08210550                                                            000080
2SR. CAIXA, APOS O VENCIMENTO COBRAR 2% DE MULTA                                 NAO RECEBER APOS 30 DIAS DO VENCIMENTO.                                                                                                                                                                                                         01081700000000000000108170000000000000       0090339900006270291582092661000081
100000000000000000000009033990000627000000000000000000000000010002020029304210267900000000002            2  01293042102611081700000001599820000000001N010817000000000000000000000000000000000000000000000000000000000000000100007574936889JORGE LUCIANO PEREIRA BORRIELLO         RUA FABIO DE ALMEIDA MAGALHAES - 179 - J            05135370                                                            000083
2SR. CAIXA, APOS O VENCIMENTO COBRAR 2% DE MULTA                                 NAO RECEBER APOS 30 DIAS DO VENCIMENTO.                                                                                                                                                                                                         01081700000000000000108170000000000000       0090339900006270293042102679000084
100000000000000000000009033990000627000000000000000000000000010002020029596211269500000000002            2  01295962112611081700000001508280000000001N010817000000000000000000000000000000000000000000000000000000000000000100032408151848DEILSON DO NASCIMENTO CANDIDO DA SILVA  RUA HEREMITA SANTA DO NASCIMENTO - 37 AP            11345340                                                            000086
2SR. CAIXA, APOS O VENCIMENTO COBRAR 2% DE MULTA                                 NAO RECEBER APOS 30 DIAS DO VENCIMENTO.                                                                                                                                                                                                         01081700000000000000108170000000000000       0090339900006270295962112695000087
9                                                                                                                                                                                                                                                                                                                                                                                                         000088