01REMESSA01COBRANCA       00000000000004991781AIRES CONSTRUTORA E INCORPORAD237BRADESCO       090317        MX0000076                                                                                                                                                                                                                                                                                     000001
100000000000000000000009077090006612500000000000000000000000010002100000012001212900000000002            2  01001200121225031700000003145060000000099N090317000000000000000000000000000000000000000000000000000000000000000100001224509579REINALDO JUNIOR MARTINS DE ABREU        RUA JUSTINO NIGRO - 449 - INTERLAGOS - S            04815030                                                            000002
2SR. CAIXA, APOS O VENCIMENTO COBRAR 10% DE MULTA                                NAO RECEBER APOS 30 DIAS DO VENCIMENTO.                                                                                                                                                                                                         09031700000000000000903170000000000000       0090770900066125000120012129000003
100000000000000000000009077090006612500000000000000000000000010002100000013011313600000000002            2  01001301131325031700000003058780000000099N090317000000000000000000000000000000000000000000000000000000000000000100003325102808MARCOS DE OLIVEIRA JUNIOR               RUA LUIS NOVELLETO - 91 - PARQUE CONTINE            05324080                                                            000005
2SR. CAIXA, APOS O VENCIMENTO COBRAR 10% DE MULTA                                NAO RECEBER APOS 30 DIAS DO VENCIMENTO.                                                                                                                                                                                                         09031700000000000000903170000000000000       0090770900066125000130113136000006
100000000000000000000009077090006612500000000000000000000000010002100000015051515P00000000002            2  01001505151525031700000003103180000000099N090317000000000000000000000000000000000000000000000000000000000000000100016338929806EDVALDO DA SILVA ANDRADE                RUA ARIA - 434 - PARQUE ALVES DE LIMA -             04902170                                                            000008
2SR. CAIXA, APOS O VENCIMENTO COBRAR 10% DE MULTA                                NAO RECEBER APOS 30 DIAS DO VENCIMENTO.                                                                                                                                                                                                         09031700000000000000903170000000000000       009077090006612500015051515P000009
100000000000000000000009077090006612500000000000000000000000010002100000018001818500000000002            2  01001800181825031700000002810140000000099N090317000000000000000000000000000000000000000000000000000000000000000100026836908860VANDERLEI FIGUEIREDO DE CARVALHO        RUA TUPI - 840 - VILA TUPI - PRAIA GRAND            11703260                                                            000011
2SR. CAIXA, APOS O VENCIMENTO COBRAR 10% DE MULTA                                NAO RECEBER APOS 30 DIAS DO VENCIMENTO.                                                                                                                                                                                                         09031700000000000000903170000000000000       0090770900066125000180018185000012
100000000000000000000009077090006612500000000000000000000000010002100000020042020100000000002            2  01002004202025031700000003121300000000099N090317000000000000000000000000000000000000000000000000000000000000000100059861576800REINALDO LOPES DE OLIVEIRA              RUA DA SERVIDAO - 40 - VILA ROSCHEL - SA            04891045                                                            000014
2SR. CAIXA, APOS O VENCIMENTO COBRAR 10% DE MULTA                                NAO RECEBER APOS 30 DIAS DO VENCIMENTO.                                                                                                                                                                                                         09031700000000000000903170000000000000       0090770900066125000200420201000015
100000000000000000000009077090006612500000000000000000000000010002100000021092121700000000002            2  01002109212125031700000001781920000000099N090317000000000000000000000000000000000000000000000000000000000000000100008158846807JULIO CESAR KYOO WATANUKI               AVENIDA PRESIDENTE CASTELO BRANCO - 460             11700800                                                            000017
2SR. CAIXA, APOS O VENCIMENTO COBRAR 10% DE MULTA                                NAO RECEBER APOS 30 DIAS DO VENCIMENTO.                                                                                                                                                                                                         09031700000000000000903170000000000000       0090770900066125000210921217000018
100000000000000000000009077090006612500000000000000000000000010002100000028202628P00000000002            2  01002820262825031700000003509780000000099N090317000000000000000000000000000000000000000000000000000000000000000100007733816866GILBERTO MINORU IRITSU                  ACACIA - 410 - JARDIM DAS FLORES - OSASC            06120120                                                            000020
2SR. CAIXA, APOS O VENCIMENTO COBRAR 10% DE MULTA                                NAO RECEBER APOS 30 DIAS DO VENCIMENTO.                                                                                                                                                                                                         09031700000000000000903170000000000000       009077090006612500028202628P000021
100000000000000000000009077090006612500000000000000000000000010002100000030122830100000000002            2  01003012283025031700000002799470000000099N090317000000000000000000000000000000000000000000000000000000000000000100028379879805EDMILSON DANIEL GARCIA WATANUKI         RUA MONTE CASTELO - 295 AP.82 - AVIACAO             11702720                                                            000023
2SR. CAIXA, APOS O VENCIMENTO COBRAR 10% DE MULTA                                NAO RECEBER APOS 30 DIAS DO VENCIMENTO.                                                                                                                                                                                                         09031700000000000000903170000000000000       0090770900066125000301228301000024
100000000000000000000009077090006612500000000000000000000000010002100000037913538500000000002            2  01003791353825031700000003102410000000099N090317000000000000000000000000000000000000000000000000000000000000000100016330938830KARINA CORDEIRO PIASSA                  CONDE MOREIRA LIMA - 644 - JARDIM JABAQU            04384032                                                            000026
2SR. CAIXA, APOS O VENCIMENTO COBRAR 10% DE MULTA                                NAO RECEBER APOS 30 DIAS DO VENCIMENTO.                                                                                                                                                                                                         09031700000000000000903170000000000000       0090770900066125000379135385000027
100000000000000000000009077090006612500000000000000000000000010002100000043804044P00000000002            2  01004380404425031700000003015280000000099N090317000000000000000000000000000000000000000000000000000000000000000100077027604868CLINEU LISSONI                          AVENIDA VILA EMA - 1100 AP.41 - VILA PRU            03156000                                                            000029
2SR. CAIXA, APOS O VENCIMENTO COBRAR 10% DE MULTA                                NAO RECEBER APOS 30 DIAS DO VENCIMENTO.                                                                                                                                                                                                         09031700000000000000903170000000000000       009077090006612500043804044P000030
100000000000000000000009077090006612500000000000000000000000010002100000049614650900000000002            2  01004961465025031700000002985850000000099N090317000000000000000000000000000000000000000000000000000000000000000100027944402840MARILENE BOTTONI SIMOES DA SILVA        RUA AMAZONAS - 1205 AP.14 - OSVALDO CRUZ            09540201                                                            000032
2SR. CAIXA, APOS O VENCIMENTO COBRAR 10% DE MULTA                                NAO RECEBER APOS 30 DIAS DO VENCIMENTO.                                                                                                                                                                                                         09031700000000000000903170000000000000       0090770900066125000496146509000033
100000000000000000000009077090006612500000000000000000000000010002100000050574751000000000002            2  01005057475125031700000002826960000000099N090317000000000000000000000000000000000000000000000000000000000000000100005627947861FERNANDO CESAR MARCELINO                RUA CASA FORTE - 46 AP.11 - AGUA FRIA -             02336040                                                            000035
2SR. CAIXA, APOS O VENCIMENTO COBRAR 10% DE MULTA                                NAO RECEBER APOS 30 DIAS DO VENCIMENTO.                                                                                                                                                                                                         09031700000000000000903170000000000000       0090770900066125000505747510000036
100000000000000000000009077090006612500000000000000000000000010002100000052494953100000000002            2  01005249495325031700000002810310000000099N090317000000000000000000000000000000000000000000000000000000000000000100029380708882EDUARDO MENDONCA DAMASCENO              RUA MONTE CASTELO - 296 AP.12 - AVIACAO             11702720                                                            000038
2SR. CAIXA, APOS O VENCIMENTO COBRAR 10% DE MULTA                                NAO RECEBER APOS 30 DIAS DO VENCIMENTO.                                                                                                                                                                                                         09031700000000000000903170000000000000       0090770900066125000524949531000039
100000000000000000000009077090006612500000000000000000000000010002100000053515054300000000002            2  01005351505425031700000002961630000000099N090317000000000000000000000000000000000000000000000000000000000000000100014681490830HUMBERTO  MOZART CALIXTO                RUA MONTE CASTELO - 296 AP.41 - AVIACAO             11702720                                                            000041
2SR. CAIXA, APOS O VENCIMENTO COBRAR 10% DE MULTA                                NAO RECEBER APOS 30 DIAS DO VENCIMENTO.                                                                                                                                                                                                         09031700000000000000903170000000000000       0090770900066125000535150543000042
100000000000000000000009077090006612500000000000000000000000010002100000056565357400000000002            2  01005656535725031700000002853560000000099N090317000000000000000000000000000000000000000000000000000000000000000100023988525634DALMY PIMENTA                           SAO CAETANO - 136 - VILA SAO VICENTE - U            38026220                                                            000044
2SR. CAIXA, APOS O VENCIMENTO COBRAR 10% DE MULTA                                NAO RECEBER APOS 30 DIAS DO VENCIMENTO.                                                                                                                                                                                                         09031700000000000000903170000000000000       0090770900066125000565653574000045
100000000000000000000009077090006612500000000000000000000000010002100000058465559600000000002            2  01005846555925031700000003102550000000099N090317000000000000000000000000000000000000000000000000000000000000000100004735273832DARIO LUIZ GONCALVES                    RUA MONTE CASTELO - 295 AP.113 - AVIACAO            11702720                                                            000047
2SR. CAIXA, APOS O VENCIMENTO COBRAR 10% DE MULTA                                NAO RECEBER APOS 30 DIAS DO VENCIMENTO.                                                                                                                                                                                                         09031700000000000000903170000000000000       0090770900066125000584655596000048
100000000000000000000009077090006612500000000000000000000000010002100000060345761P00000000002            2  01006034576125031700000002773880000000099N090317000000000000000000000000000000000000000000000000000000000000000100007635293893SILVIO CARDOSO ZACARIAS                 RUA SOLIDONIO LEITE - 2718 AP.102 BLOCO             03275000                                                            000050
2SR. CAIXA, APOS O VENCIMENTO COBRAR 10% DE MULTA                                NAO RECEBER APOS 30 DIAS DO VENCIMENTO.                                                                                                                                                                                                         09031700000000000000903170000000000000       009077090006612500060345761P000051
100000000000000000000009077090006612500000000000000000000000010002100000062175963100000000002            2  01006217596325031700000002715530000000099N090317000000000000000000000000000000000000000000000000000000000000000100067192920800SONIA MARIA RIBEIRO SUDO                RUA INGAZEIRA - 133 - SAO MIGUEL - SAO P            08032080                                                            000053
2SR. CAIXA, APOS O VENCIMENTO COBRAR 10% DE MULTA                                NAO RECEBER APOS 30 DIAS DO VENCIMENTO.                                                                                                                                                                                                         09031700000000000000903170000000000000       0090770900066125000621759631000054
100000000000000000000009077090006612500000000000000000000000010002100000063086064700000000002            2  01006308606425031700000003017850000000099N090317000000000000000000000000000000000000000000000000000000000000000100007975958808JOCY VIGNADO                            RUA PEDRO GONCALVES SOBRINHO - 568 - PAR            13098641                                                            000056
2SR. CAIXA, APOS O VENCIMENTO COBRAR 10% DE MULTA                                NAO RECEBER APOS 30 DIAS DO VENCIMENTO.                                                                                                                                                                                                         09031700000000000000903170000000000000       0090770900066125000630860647000057
100000000000000000000009077090006612500000000000000000000000010002100000068086569000000000002            2  01006808656925031700000002821820000000099N090317000000000000000000000000000000000000000000000000000000000000000100036712580803WALTER BARRETO DE ALMEIDA               RUA MONTE CASTELO - 296 AP.44 - AVIACAO             11702720                                                            000059
2SR. CAIXA, APOS O VENCIMENTO COBRAR 10% DE MULTA                                NAO RECEBER APOS 30 DIAS DO VENCIMENTO.                                                                                                                                                                                                         09031700000000000000903170000000000000       0090770900066125000680865690000060
100000000000000000000009077090006612500000000000000000000000010002100000073967075900000000002            2  01007396707525031700000002997580000000099N090317000000000000000000000000000000000000000000000000000000000000000100004290973876VLADIMIR PAIOLA BORREGO                 RUA GOMES - 429 - VILA IVONE - SAO PAULO            03275010                                                            000062
2SR. CAIXA, APOS O VENCIMENTO COBRAR 10% DE MULTA                                NAO RECEBER APOS 30 DIAS DO VENCIMENTO.                                                                                                                                                                                                         09031700000000000000903170000000000000       0090770900066125000739670759000063
100000000000000000000009077090006612500000000000000000000000010002100000075967277400000000002            2  01007596727725031700000003187300000000099N090317000000000000000000000000000000000000000000000000000000000000000100036386861833ALINE LEE WEI DE SOUZA                  AV. PRES.CASTELO BRANCO - 9127 AP.251 BL            11704600                                                            000065
2SR. CAIXA, APOS O VENCIMENTO COBRAR 10% DE MULTA                                NAO RECEBER APOS 30 DIAS DO VENCIMENTO.                                                                                                                                                                                                         09031700000000000000903170000000000000       0090770900066125000759672774000066
100000000000000000000009077090006612500000000000000000000000010002100000076837378P00000000002            2  01007683737825031700000002957700000000099N090317000000000000000000000000000000000000000000000000000000000000000100026187960807CARINA CANTACESSO DE SOUZA              AVENIDA PRESIDENTE CASTELO BRANCO - 8086            11704600                                                            000068
2SR. CAIXA, APOS O VENCIMENTO COBRAR 10% DE MULTA                                NAO RECEBER APOS 30 DIAS DO VENCIMENTO.                                                                                                                                                                                                         09031700000000000000903170000000000000       009077090006612500076837378P000069
100000000000000000000009077090006612500000000000000000000000010002100000081677683200000000002            2  01008167768325031700000002820280000000099N090317000000000000000000000000000000000000000000000000000000000000000100023007705800BRUNA ANTUN AZEVEDO                     RUA MONTE CASTELO - 296 AP.62 - AVIACAO             11702720                                                            000071
2SR. CAIXA, APOS O VENCIMENTO COBRAR 10% DE MULTA                                NAO RECEBER APOS 30 DIAS DO VENCIMENTO.                                                                                                                                                                                                         09031700000000000000903170000000000000       0090770900066125000816776832000072
100000000000000000000009077090006612500000000000000000000000010002100000082697784400000000002            2  01008269778425031700000002899270000000099N090317000000000000000000000000000000000000000000000000000000000000000100070465320953SIDNEY CARASKI                          RUA DR.CELSO PACHECO BENTIM - 502 - PARQ            03571020                                                            000074
2SR. CAIXA, APOS O VENCIMENTO COBRAR 10% DE MULTA                                NAO RECEBER APOS 30 DIAS DO VENCIMENTO.                                                                                                                                                                                                         09031700000000000000903170000000000000       0090770900066125000826977844000075
100000000000000000000009077090006612500000000000000000000000010002100000083503985700000000002            2  01008350398525031700000002270380000000099N090317000000000000000000000000000000000000000000000000000000000000000100075759446800VALTER MUTAFEI                          JOAQUIM ABREU LUZ - 361 - PARQUE SAO LUC            03263020                                                            000077
2SR. CAIXA, APOS O VENCIMENTO COBRAR 10% DE MULTA                                NAO RECEBER APOS 30 DIAS DO VENCIMENTO.                                                                                                                                                                                                         09031700000000000000903170000000000000       0090770900066125000835039857000078
100000000000000000000009077090006612500000000000000000000000010002100000084367886900000000002            2  01008436788625031700000002507680000000099N090317000000000000000000000000000000000000000000000000000000000000000100014320599802MAURO DO CARMO CIMENO                   RUA GANGES - 481 - VILA CARRAO - SAO PAU            03445030                                                            000080
2SR. CAIXA, APOS O VENCIMENTO COBRAR 10% DE MULTA                                NAO RECEBER APOS 30 DIAS DO VENCIMENTO.                                                                                                                                                                                                         09031700000000000000903170000000000000       0090770900066125000843678869000081
100000000000000000000009077090006612500000000000000000000000010002100000087328189000000000002            2  01008732818925031700000003243790000000099N090317000000000000000000000000000000000000000000000000000000000000000100070328706868VALTER LIMA FERNANDES                   RUA DOMINGOS JORGE VELHO - 52 - CENTRO -            06843550                                                            000083
2SR. CAIXA, APOS O VENCIMENTO COBRAR 10% DE MULTA                                NAO RECEBER APOS 30 DIAS DO VENCIMENTO.                                                                                                                                                                                                         09031700000000000000903170000000000000       0090770900066125000873281890000084
100000000000000000000009077090006612500000000000000000000000010002100000088398290000000000002            2  01008839829025031700000001762000000000099N090317000000000000000000000000000000000000000000000000000000000000000100023132672882LEANDRO MORENO                          RUA MONTE CASTELO - 296 AP.64 - AVIACAO             11702720                                                            000086
2SR. CAIXA, APOS O VENCIMENTO COBRAR 10% DE MULTA                                NAO RECEBER APOS 30 DIAS DO VENCIMENTO.                                                                                                                                                                                                         09031700000000000000903170000000000000       0090770900066125000883982900000087
100000000000000000000009077090006612500000000000000000000000010002100000090428492300000000002            2  01009042849225031700000003004920000000099N090317000000000000000000000000000000000000000000000000000000000000000100099264692800LEONTINO PINHEIRO DA SILVA              AVENIDA JOAO BATISTA FITIPALDI - 469 - V            08685000                                                            000089
2SR. CAIXA, APOS O VENCIMENTO COBRAR 10% DE MULTA                                NAO RECEBER APOS 30 DIAS DO VENCIMENTO.                                                                                                                                                                                                         09031700000000000000903170000000000000       0090770900066125000904284923000090
100000000000000000000009077090006612500000000000000000000000010002100000092458594600000000002            2  01009245859425031700000002898890000000099N090317000000000000000000000000000000000000000000000000000000000000000100000666344825LUIZ HENRIQUE DE CAMPOS                 RUA JOAO CARLOS CAVALCANTI REIS - 21 - J            02281206                                                            000092
2SR. CAIXA, APOS O VENCIMENTO COBRAR 10% DE MULTA                                NAO RECEBER APOS 30 DIAS DO VENCIMENTO.                                                                                                                                                                                                         09031700000000000000903170000000000000       0090770900066125000924585946000093
100000000000000000000009077090006612500000000000000000000000010002100000096718898300000000002            2  01009671889825031700000003061360000000099N090317000000000000000000000000000000000000000000000000000000000000000100029155026842DANIELA YOSHIDA                         RUA FREI JOAO DO ROSARIO - 639 - VILA MA            04401090                                                            000095
2SR. CAIXA, APOS O VENCIMENTO COBRAR 10% DE MULTA                                NAO RECEBER APOS 30 DIAS DO VENCIMENTO.                                                                                                                                                                                                         09031700000000000000903170000000000000       0090770900066125000967188983000096
100000000000000000000009077090006612500000000000000000000000010002100001024594104600000000002            2  01102459410425031700000002635190000000099N090317000000000000000000000000000000000000000000000000000000000000000100034325567801LUIZ FERNANDO ALAMINO                   AVENIDA FLOR DE VILA FORMOSA - 337 - VIL            03366010                                                            000098
2SR. CAIXA, APOS O VENCIMENTO COBRAR 10% DE MULTA                                NAO RECEBER APOS 30 DIAS DO VENCIMENTO.                                                                                                                                                                                                         09031700000000000000903170000000000000       0090770900066125010245941046000099
100000000000000000000009077090006612500000000000000000000000010002100001044996106200000000002            2  01104499610625031700000002493030000000099N090317000000000000000000000000000000000000000000000000000000000000000100001204431809CEZAR TALAVERA JUNIOR                   RUA MAESTRO ARTURO DE ANGELIS  - 190 AP.            05139010                                                            000101
2SR. CAIXA, APOS O VENCIMENTO COBRAR 10% DE MULTA                                NAO RECEBER APOS 30 DIAS DO VENCIMENTO.                                                                                                                                                                                                         09031700000000000000903170000000000000       0090770900066125010449961062000102
100000000000000000000009077090006612500000000000000000000000010002100001067198108P00000000002            2  01106719810825031700000003231730000000099N090317000000000000000000000000000000000000000000000000000000000000000100004227553970ALESSANDRO ISRAEL GOULART               RUA PROFESSORA CARLINDA RIBEIRO - 21 - F            02866200                                                            000104
2SR. CAIXA, APOS O VENCIMENTO COBRAR 10% DE MULTA                                NAO RECEBER APOS 30 DIAS DO VENCIMENTO.                                                                                                                                                                                                         09031700000000000000903170000000000000       009077090006612501067198108P000105
100000000000000000000009077090006612500000000000000000000000010002100001077299109400000000002            2  01107729910925031700000002978410000000099N090317000000000000000000000000000000000000000000000000000000000000000100060811420868HELIO BASSI                             AV.PARIS,575 - PRACA ANTONIO FIGUEROA -             11700082                                                            000107
2SR. CAIXA, APOS O VENCIMENTO COBRAR 10% DE MULTA                                NAO RECEBER APOS 30 DIAS DO VENCIMENTO.                                                                                                                                                                                                         09031700000000000000903170000000000000       0090770900066125010772991094000108
100000000000000000000009077090006612500000000000000000000000010002100011471106117500000000002            2  01114711061125031700000002653720000000099N090317000000000000000000000000000000000000000000000000000000000000000100027317668591ERONILTON SOUSA MOTA                    AVENIDA PRESIDENTE KENNEDY - 3203 - AVIA            11701330                                                            000110
2SR. CAIXA, APOS O VENCIMENTO COBRAR 10% DE MULTA                                NAO RECEBER APOS 30 DIAS DO VENCIMENTO.                                                                                                                                                                                                         09031700000000000000903170000000000000       0090770900066125114711061175000111
100000000000000000000009077090006612500000000000000000000000010002100011669108119300000000002            2  01116691081125031700000002818380000000099N090317000000000000000000000000000000000000000000000000000000000000000100001024794881CLAUDIO RODRIGUES                       RUA ARACATUBA - 242 - LAPA - SAO PAULO -            05058010                                                            000113
2SR. CAIXA, APOS O VENCIMENTO COBRAR 10% DE MULTA                                NAO RECEBER APOS 30 DIAS DO VENCIMENTO.                                                                                                                                                                                                         09031700000000000000903170000000000000       0090770900066125116691081193000114
100000000000000000000009077090006612500000000000000000000000010002100011869109121300000000002            2  01118691091225031700000004320930000000099N090317000000000000000000000000000000000000000000000000000000000000000100002225072841PEDRO EDUARDO DE AZEVEDO                RUA NATH ZILMAN - 46 - JARDIM SAMAMBAIA             07600000                                                            000116
2SR. CAIXA, APOS O VENCIMENTO COBRAR 10% DE MULTA                                NAO RECEBER APOS 30 DIAS DO VENCIMENTO.                                                                                                                                                                                                         09031700000000000000903170000000000000       0090770900066125118691091213000117
100000000000000000000009077090006612500000000000000000000000010002100011971110122500000000002            2  01119711101225031700000003006900000000099N090317000000000000000000000000000000000000000000000000000000000000000100015039262817MARCOS ROBERTO DANTAS                   CARAJAS - 385 - VILA TUPI - VARZEA PAULI            13225030                                                            000119
2SR. CAIXA, APOS O VENCIMENTO COBRAR 10% DE MULTA                                NAO RECEBER APOS 30 DIAS DO VENCIMENTO.                                                                                                                                                                                                         09031700000000000000903170000000000000       0090770900066125119711101225000120
100000000000000000000009077090006612500000000000000000000000010002100012176112124800000000002            2  01121761121225031700000004244200000000099N090317000000000000000000000000000000000000000000000000000000000000000100037555503859RAPHAEL DE MELLO                        RUA MARECHAL HERMES - 126 AP.121 - CANTO            11700250                                                            000122
2SR. CAIXA, APOS O VENCIMENTO COBRAR 10% DE MULTA                                NAO RECEBER APOS 30 DIAS DO VENCIMENTO.                                                                                                                                                                                                         09031700000000000000903170000000000000       0090770900066125121761121248000123
100000000000000000000009077090006612500000000000000000000000010002100012480114127000000000002            2  01124801141225031700000002448310000000099N090317000000000000000000000000000000000000000000000000000000000000000100019288787844EMERSON LUIZ MARTINEZ PEREIRA           RUA MONTE CASTELO - 296 AP.74 - AVIACAO             11702720                                                            000125
2SR. CAIXA, APOS O VENCIMENTO COBRAR 10% DE MULTA                                NAO RECEBER APOS 30 DIAS DO VENCIMENTO.                                                                                                                                                                                                         09031700000000000000903170000000000000       0090770900066125124801141270000126
100000000000000000000009077090006612500000000000000000000000010002100012683116129500000000002            2  01126831161225031700000002073840000000099N090317000000000000000000000000000000000000000000000000000000000000000100027198452809CRISTIANE AURELIANO DA SILVA MAIA       RUA OSWALDO MARTINS DE OLIVEIRA - 123 CA            11500000                                                            000128
2SR. CAIXA, APOS O VENCIMENTO COBRAR 10% DE MULTA                                NAO RECEBER APOS 30 DIAS DO VENCIMENTO.                                                                                                                                                                                                         09031700000000000000903170000000000000       0090770900066125126831161295000129
100000000000000000000009077090006612500000000000000000000000010002100013027118133000000000002            2  01130271181325031700000002530890000000099N090317000000000000000000000000000000000000000000000000000000000000000100021246231840ALEXANDRO DA CUNHA MIGUES               AVENIDA CONSELHEIRO CARRAO - 1861 CONJ.5            03403001                                                            000131
2SR. CAIXA, APOS O VENCIMENTO COBRAR 10% DE MULTA                                NAO RECEBER APOS 30 DIAS DO VENCIMENTO.                                                                                                                                                                                                         09031700000000000000903170000000000000       0090770900066125130271181330000132
100000000000000000000009077090006612500000000000000000000000010002100013330121136000000000002            2  01133301211325031700000001515360000000099N090317000000000000000000000000000000000000000000000000000000000000000100004864924600RENATO SANTACHIARA SALVADORI            RUA PENSYLVANIA - 116 - PAYSAGE BRISE -             06730000                                                            000134
2SR. CAIXA, APOS O VENCIMENTO COBRAR 10% DE MULTA                                NAO RECEBER APOS 30 DIAS DO VENCIMENTO.                                                                                                                                                                                                         09031700000000000000903170000000000000       0090770900066125133301211360000135
100000000000000000000009077090006612500000000000000000000000010002100013531122138300000000002            2  01135311221325031700000003723300000000099N090317000000000000000000000000000000000000000000000000000000000000000100018470520881SILVANA ALVES DE OLIVEIRA               RUA MONTE CASTELO - 262 AP.91 - AVIACAO             11702720                                                            000137
2SR. CAIXA, APOS O VENCIMENTO COBRAR 10% DE MULTA                                NAO RECEBER APOS 30 DIAS DO VENCIMENTO.                                                                                                                                                                                                         09031700000000000000903170000000000000       0090770900066125135311221383000138
100000000000000000000009077090006612500000000000000000000000010002100013633123139P00000000002            2  01136331231325031700000002592150000000099N090317000000000000000000000000000000000000000000000000000000000000000100009297523846MARCOS ROBERTO DE CASTRO FERREIRA       RUA MONTE CASTELO - 262 AP.105 - AVIACAO            11702720                                                            000140
2SR. CAIXA, APOS O VENCIMENTO COBRAR 10% DE MULTA                                NAO RECEBER APOS 30 DIAS DO VENCIMENTO.                                                                                                                                                                                                         09031700000000000000903170000000000000       009077090006612513633123139P000141
100000000000000000000009077090006612500000000000000000000000010002100014102126144600000000002            2  01141021261425031700000003212270000000099N090317000000000000000000000000000000000000000000000000000000000000000100001164158864DAVID BLEY LACERDA                      RUA CONEGO ARAUJO MARCONDES - 188 - BAIR            02550080                                                            000143
2SR. CAIXA, APOS O VENCIMENTO COBRAR 10% DE MULTA                                NAO RECEBER APOS 30 DIAS DO VENCIMENTO.                                                                                                                                                                                                         09031700000000000000903170000000000000       0090770900066125141021261446000144
100000000000000000000009077090006612500000000000000000000000010002100015114119155200000000002            2  01151141191525031700000000866340000000099N090317000000000000000000000000000000000000000000000000000000000000000100017020195865ARAQUICY ROLEMBERG CANTUARIO            RUA MONTE CASTELO - 296 AP.114 - AVIACAO            11702720                                                            000146
2SR. CAIXA, APOS O VENCIMENTO COBRAR 10% DE MULTA                                NAO RECEBER APOS 30 DIAS DO VENCIMENTO.                                                                                                                                                                                                         09031700000000000000903170000000000000       0090770900066125151141191552000147
100000000000000000000009077090006612500000000000000000000000010002100015494133159900000000002            2  01154941331525031700000003904030000000099N090317000000000000000000000000000000000000000000000000000000000000000100031498008895POLIANE  SIBELE DA SILVA                RUA FRANCISCO RODRIGUES SECKLER - 452 CA            08230020                                                            000149
2SR. CAIXA, APOS O VENCIMENTO COBRAR 10% DE MULTA                                NAO RECEBER APOS 30 DIAS DO VENCIMENTO.                                                                                                                                                                                                         09031700000000000000903170000000000000       0090770900066125154941331599000150
100000000000000000000009077090006612500000000000000000000000010002100016610140170500000000002            2  01166101401725031700000002289790000000099N090317000000000000000000000000000000000000000000000000000000000000000100000588109860JOSE LIARTE GIANTE                      AVENIDA LUIZ GONZAGA DO AMARAL - 143 - J            09320630                                                            000152
2SR. CAIXA, APOS O VENCIMENTO COBRAR 10% DE MULTA                                NAO RECEBER APOS 30 DIAS DO VENCIMENTO.                                                                                                                                                                                                         09031700000000000000903170000000000000       0090770900066125166101401705000153
100000000000000000000009077090006612500000000000000000000000010002100017572144178100000000002            2  01175721441725031700000002591010000000099N090317000000000000000000000000000000000000000000000000000000000000000100000764632817LUIZ CARLOS ANTUNES JUNIOR              RUA MONTE CASTELO - 262 AP.35 - AVIACAO             11702720                                                            000155
2SR. CAIXA, APOS O VENCIMENTO COBRAR 10% DE MULTA                                NAO RECEBER APOS 30 DIAS DO VENCIMENTO.                                                                                                                                                                                                         09031700000000000000903170000000000000       0090770900066125175721441781000156
100000000000000000000009077090006612500000000000000000000000010002100018241146184300000000002            2  01182411461825031700000001831760000000099N090317000000000000000000000000000000000000000000000000000000000000000100014386860134SEVERINO CARLOS DE OLIVEIRA             RUA MONTE CASTELO - 262 AP.54 - AVIACAO             11702720                                                            000158
2SR. CAIXA, APOS O VENCIMENTO COBRAR 10% DE MULTA                                NAO RECEBER APOS 30 DIAS DO VENCIMENTO.                                                                                                                                                                                                         09031700000000000000903170000000000000       0090770900066125182411461843000159
100000000000000000000009077090006612500000000000000000000000010002100018638147187900000000002            2  01186381471825031700000002036410000000099N090317000000000000000000000000000000000000000000000000000000000000000100029088221804FABIANO SPERANDEO                       RUA MONTE CASTELO - 296 AP.93 - AVIACAO             11702720                                                            000161
2SR. CAIXA, APOS O VENCIMENTO COBRAR 10% DE MULTA                                NAO RECEBER APOS 30 DIAS DO VENCIMENTO.                                                                                                                                                                                                         09031700000000000000903170000000000000       0090770900066125186381471879000162
100000000000000000000009077090006612500000000000000000000000010002100019141151191200000000002            2  01191411511925031700000001541160000000099N090317000000000000000000000000000000000000000000000000000000000000000100053018338715JAIME YOSHIO YONAMINE                   AVENIDA MARCONDES DE BRITO - 1.283 CASA             03509000                                                            000164
2SR. CAIXA, APOS O VENCIMENTO COBRAR 10% DE MULTA                                NAO RECEBER APOS 30 DIAS DO VENCIMENTO.                                                                                                                                                                                                         09031700000000000000903170000000000000       0090770900066125191411511912000165
100000000000000000000009077090006612500000000000000000000000010002100021257161208900000000002            2  01212571612025031700000001262440000000099N090317000000000000000000000000000000000000000000000000000000000000000100039393790850NAIRON RICARDO DE ARAUJO SANTOS         RUA MONTE CASTELO - 262 AP.23 - AVIACAO             11702720                                                            000167
2SR. CAIXA, APOS O VENCIMENTO COBRAR 10% DE MULTA                                NAO RECEBER APOS 30 DIAS DO VENCIMENTO.                                                                                                                                                                                                         09031700000000000000903170000000000000       0090770900066125212571612089000168
100000000000000000000009077090006612500000000000000000000000010002100021376165209100000000002            2  01213761652025031700000003247140000000099N090317000000000000000000000000000000000000000000000000000000000000000100066104106820ANADIR FERREIRA                         RUA MONTE CASTELO - 296 AP.61 - AVIACAO             11702720                                                            000170
2SR. CAIXA, APOS O VENCIMENTO COBRAR 10% DE MULTA                                NAO RECEBER APOS 30 DIAS DO VENCIMENTO.                                                                                                                                                                                                         09031700000000000000903170000000000000       0090770900066125213761652091000171
100000000000000000000009077090006612500000000000000000000000010002100021436166210800000000002            2  01214361662125031700000001838550000000099N090317000000000000000000000000000000000000000000000000000000000000000100041896807968SERGIO ROBERTO DA SILVA                 RUA DOS INGLESES - 542 AP.61 - MORRO DOS            01329000                                                            000173
2SR. CAIXA, APOS O VENCIMENTO COBRAR 10% DE MULTA                                NAO RECEBER APOS 30 DIAS DO VENCIMENTO.                                                                                                                                                                                                         09031700000000000000903170000000000000       0090770900066125214361662108000174
100000000000000000000009077090006612500000000000000000000000010002100022069129215300000000002            2  01220691292125031700000001667130000000099N090317000000000000000000000000000000000000000000000000000000000000000100088137384804ANA LUCIA DA SILVA                      RUA DOUTOR EPAMINONDAS BARRA - 147 - VIL            04438100                                                            000176
2SR. CAIXA, APOS O VENCIMENTO COBRAR 10% DE MULTA                                NAO RECEBER APOS 30 DIAS DO VENCIMENTO.                                                                                                                                                                                                         09031700000000000000903170000000000000       0090770900066125220691292153000177
9                                                                                                                                                                                                                                                                                                                                                                                                         000178