01REMESSA01COBRANCA       00000000000008017025HB SANTOS CONSTRUTORA E INCORP237BRADESCO       010417        MX0000027                                                                                                                                                                                                                                                                                     000001
100000000000000000000009033990000627000000000000000000000000010002020016722138171200000000002            2  01167221381709041700000002091130000000099N010417000000000000000000000000000000000000000000000000000000000000000100029671526845ROGERIO CONSENTINO                      RUA CARLOS MAZER  - 678 - VILA CARMOSINA            08290700                                                            000002
2SR. CAIXA, APOS O VENCIMENTO COBRAR 2% DE MULTA                                 NAO RECEBER APOS 30 DIAS DO VENCIMENTO.                                                                                                                                                                                                         01041700000000000000104170000000000000       0090339900006270167221381712000003
100000000000000000000009033990000627000000000000000000000000010002020017072141174000000000002            2  01170721411709041700000001975220000000099N010417000000000000000000000000000000000000000000000000000000000000000100003863075803HERALDO MENQUINI                        RUA OCEANICA AMABILE - 346 AP.415 - CIDA            11704420                                                            000005
2SR. CAIXA, APOS O VENCIMENTO COBRAR 2% DE MULTA                                 NAO RECEBER APOS 30 DIAS DO VENCIMENTO.                                                                                                                                                                                                         01041700000000000000104170000000000000       0090339900006270170721411740000006
100000000000000000000009033990000627000000000000000000000000010002020017219142175000000000002            2  01172191421709041700000002944320000000099N010417000000000000000000000000000000000000000000000000000000000000000100025047474895DEMETRIUS GOLDSTEIN GUEDES              PRACA PALMARES - 28 - MACUCO - SANTOS -             11015330                                                            000008
2SR. CAIXA, APOS O VENCIMENTO COBRAR 2% DE MULTA                                 NAO RECEBER APOS 30 DIAS DO VENCIMENTO.                                                                                                                                                                                                         01041700000000000000104170000000000000       0090339900006270172191421750000009
100000000000000000000009033990000627000000000000000000000000010002020018493145186P00000000002            2  01184931451809041700000002333260000000099N010417000000000000000000000000000000000000000000000000000000000000000100067470041834PEDRO RAIMUNDO MAGALHAES                RUA TANCREDO DE ALMEIDA NEVES - 36 - JAR            06865010                                                            000011
2SR. CAIXA, APOS O VENCIMENTO COBRAR 2% DE MULTA                                 NAO RECEBER APOS 30 DIAS DO VENCIMENTO.                                                                                                                                                                                                         01041700000000000000104170000000000000       009033990000627018493145186P000012
100000000000000000000009033990000627000000000000000000000000010002020018750148188800000000002            2  01187501481809041700000002415860000000099N010417000000000000000000000000000000000000000000000000000000000000000100013135261859EDUARDO ZANOLA                          RUA ROLANDO PIETRO BONINI - 46 - JARDIM             09781040                                                            000014
2SR. CAIXA, APOS O VENCIMENTO COBRAR 2% DE MULTA                                 NAO RECEBER APOS 30 DIAS DO VENCIMENTO.                                                                                                                                                                                                         01041700000000000000104170000000000000       0090339900006270187501481888000015
100000000000000000000009033990000627000000000000000000000000010002020018895149189800000000002            2  01188951491809041700000002023430000000099N010417000000000000000000000000000000000000000000000000000000000000000100029028478825LEONARDO LOUZADA                        RUA ILHEUS - QUADRA 31 - 244 - BAIRRO CE            19274000                                                            000017
2SR. CAIXA, APOS O VENCIMENTO COBRAR 2% DE MULTA                                 NAO RECEBER APOS 30 DIAS DO VENCIMENTO.                                                                                                                                                                                                         01041700000000000000104170000000000000       0090339900006270188951491898000018
100000000000000000000009033990000627000000000000000000000000010002020019896156197000000000002            2  01198961561909041700000002924270000000099N010417000000000000000000000000000000000000000000000000000000000000000100032878512847LEONARDO MOURA MONIZ CALDEIRA           RUA BALSA - 682 AP.134 T.02 - VILA ARCAD            02910000                                                            000020
2SR. CAIXA, APOS O VENCIMENTO COBRAR 2% DE MULTA                                 NAO RECEBER APOS 30 DIAS DO VENCIMENTO.                                                                                                                                                                                                         01041700000000000000104170000000000000       0090339900006270198961561970000021
100000000000000000000009033990000627000000000000000000000000010002020020440159201300000000002            2  01204401592009041700000003110890000000099N010417000000000000000000000000000000000000000000000000000000000000000100016479002806LOURDES PEREIRA DE QUEIROZ SECANECHIA   RUA PAULINO CURSI - 437 - CIDADE SAO MAT            03960060                                                            000023
2SR. CAIXA, APOS O VENCIMENTO COBRAR 2% DE MULTA                                 NAO RECEBER APOS 30 DIAS DO VENCIMENTO.                                                                                                                                                                                                         01041700000000000000104170000000000000       0090339900006270204401592013000024
100000000000000000000009033990000627000000000000000000000000010002020020910162205200000000002            2  01209101622009041700000002295270000000099N010417000000000000000000000000000000000000000000000000000000000000000100019635091885IVAN VIEIRA SILVA                       ABRAO JORGE - 3001 - JARDIM INTEGRACAO -            14405397                                                            000026
2SR. CAIXA, APOS O VENCIMENTO COBRAR 2% DE MULTA                                 NAO RECEBER APOS 30 DIAS DO VENCIMENTO.                                                                                                                                                                                                         01041700000000000000104170000000000000       0090339900006270209101622052000027
100000000000000000000009033990000627000000000000000000000000010002020022157170216800000000002            2  01221571702109041700000002258500000000099N010417000000000000000000000000000000000000000000000000000000000000000100009361471805JOSE BARBOSA DA SILVA                   RUA ALFREDO INACIO TRINDADE  - 60 AP.44             02344100                                                            000029
2SR. CAIXA, APOS O VENCIMENTO COBRAR 2% DE MULTA                                 NAO RECEBER APOS 30 DIAS DO VENCIMENTO.                                                                                                                                                                                                         01041700000000000000104170000000000000       0090339900006270221571702168000030
100000000000000000000009033990000627000000000000000000000000010002020022304171217300000000002            2  01223041712109041700000001949590000000099N010417000000000000000000000000000000000000000000000000000000000000000100012756959812ITAMAR JUVENAL DIAS DA SILVA            RUA ELISEU REINALDO MORAES VIEIRA - 90 A            00000000                                                            000032
2SR. CAIXA, APOS O VENCIMENTO COBRAR 2% DE MULTA                                 NAO RECEBER APOS 30 DIAS DO VENCIMENTO.                                                                                                                                                                                                         01041700000000000000104170000000000000       0090339900006270223041712173000033
100000000000000000000009033990000627000000000000000000000000010002020022869175222800000000002            2  01228691752209041700000002304930000000099N010417000000000000000000000000000000000000000000000000000000000000000100002731042842VALTER CERQUEIRA VILLA NOVA             RUA MACHADO - 106 - VILA AUGUSTA - GUARU            07025210                                                            000035
2SR. CAIXA, APOS O VENCIMENTO COBRAR 2% DE MULTA                                 NAO RECEBER APOS 30 DIAS DO VENCIMENTO.                                                                                                                                                                                                         01041700000000000000104170000000000000       0090339900006270228691752228000036
100000000000000000000009033990000627000000000000000000000000010002020023006175222400000000002            2  01230061752209041700000002304930000000099N010417000000000000000000000000000000000000000000000000000000000000000100002731042842VALTER CERQUEIRA VILLA NOVA             RUA MACHADO - 106 - VILA AUGUSTA - GUARU            07025210                                                            000038
2SR. CAIXA, APOS O VENCIMENTO COBRAR 2% DE MULTA                                 NAO RECEBER APOS 30 DIAS DO VENCIMENTO.                                                                                                                                                                                                         01041700000000000000104170000000000000       0090339900006270230061752224000039
100000000000000000000009033990000627000000000000000000000000010002020023157177224200000000002            2  01231571772209041700000002081320000000099N010417000000000000000000000000000000000000000000000000000000000000000100028802158894ELIEL HENRIQUE ZUZA                     RUA MONTE CASTELO - 262 AP.14 - BAIRRO A            11702720                                                            000041
2SR. CAIXA, APOS O VENCIMENTO COBRAR 2% DE MULTA                                 NAO RECEBER APOS 30 DIAS DO VENCIMENTO.                                                                                                                                                                                                         01041700000000000000104170000000000000       0090339900006270231571772242000042
100000000000000000000009033990000627000000000000000000000000010002020023306178225400000000002            2  01233061782209041700000001946570000000099N010417000000000000000000000000000000000000000000000000000000000000000100008739150895VANGEVALDO BATISTA SANT ANNA            TRAVESSA TOMAZIN - 02 - ERMELINO MATARAZ            03811125                                                            000044
2SR. CAIXA, APOS O VENCIMENTO COBRAR 2% DE MULTA                                 NAO RECEBER APOS 30 DIAS DO VENCIMENTO.                                                                                                                                                                                                         01041700000000000000104170000000000000       0090339900006270233061782254000045
100000000000000000000009033990000627000000000000000000000000010002020023744181228300000000002            2  01237441812211041700000001738160000000099N010417000000000000000000000000000000000000000000000000000000000000000100005313717863EDIMICIO JOSE DE ARAUJO                 PRACA NICOLAU GERAIGIRE - 680 CA A - JAR            11095110                                                            000047
2SR. CAIXA, APOS O VENCIMENTO COBRAR 2% DE MULTA                                 NAO RECEBER APOS 30 DIAS DO VENCIMENTO.                                                                                                                                                                                                         01041700000000000000104170000000000000       0090339900006270237441812283000048
100000000000000000000009033990000627000000000000000000000000010002020023890182229700000000002            2  01238901822211041700000001669780000000099N010417000000000000000000000000000000000000000000000000000000000000000100029433631897MARIO MUNIZ                             RUA LIBERO BADARO - 1115 - BAIRRO CIDADE            11704070                                                            000050
2SR. CAIXA, APOS O VENCIMENTO COBRAR 2% DE MULTA                                 NAO RECEBER APOS 30 DIAS DO VENCIMENTO.                                                                                                                                                                                                         01041700000000000000104170000000000000       0090339900006270238901822297000051
100000000000000000000009033990000627000000000000000000000000010002020024034183230P00000000002            2  01240341832311041700000001497380000000099N010417000000000000000000000000000000000000000000000000000000000000000100038856851830FELIPE BIANCHI DA COSTA FREITAS         AVENIDA ENGENHEIRO ARMANDO DE ARRUDA PER            04325001                                                            000053
2SR. CAIXA, APOS O VENCIMENTO COBRAR 2% DE MULTA                                 NAO RECEBER APOS 30 DIAS DO VENCIMENTO.                                                                                                                                                                                                         01041700000000000000104170000000000000       009033990000627024034183230P000054
100000000000000000000009033990000627000000000000000000000000010002020024328180232400000000002            2  01243281802311041700000001537280000000099N010417000000000000000000000000000000000000000000000000000000000000000100001847204864AMERICA CONCEICAO DA SILVA              RUA CAMINHO DO GUARAMAR - 199 AP.11 BLOC            11721050                                                            000056
2SR. CAIXA, APOS O VENCIMENTO COBRAR 2% DE MULTA                                 NAO RECEBER APOS 30 DIAS DO VENCIMENTO.                                                                                                                                                                                                         01041700000000000000104170000000000000       0090339900006270243281802324000057
100000000000000000000009033990000627000000000000000000000000010002020025649189241P00000000002            2  01256491892409041700000001987730000000099N010417000000000000000000000000000000000000000000000000000000000000000100005029828885LAURINETE DA CONCEICAO DE NORONHA       RUA MARIA LUCIA DE TOLEDO LEITE MORAES -            04434040                                                            000059
2SR. CAIXA, APOS O VENCIMENTO COBRAR 2% DE MULTA                                 NAO RECEBER APOS 30 DIAS DO VENCIMENTO.                                                                                                                                                                                                         01041700000000000000104170000000000000       009033990000627025649189241P000060
100000000000000000000009033990000627000000000000000000000000010002020025795190242300000000002            2  01257951902409041700000002006060000000099N010417000000000000000000000000000000000000000000000000000000000000000100015903638848MARCELO VINICIUS DE MORAES              RUA REP. DOS ESTADOS UNIDOS DA VENEZUELA            11030270                                                            000062
2SR. CAIXA, APOS O VENCIMENTO COBRAR 2% DE MULTA                                 NAO RECEBER APOS 30 DIAS DO VENCIMENTO.                                                                                                                                                                                                         01041700000000000000104170000000000000       0090339900006270257951902423000063
9                                                                                                                                                                                                                                                                                                                                                                                                         000064