01REMESSA01COBRANCA       00000000000004991781AIRES CONSTRUTORA E INCORPORAD237BRADESCO       010517        MX0000081                                                                                                                                                                                                                                                                                     000001
100000000000000000000009077090006612500000000000000000000000010002100000000007711100000000002            2  01000000771110051700000002060870000000001N010517000000000000000000000000000000000000000000000000000000000000000100094852294887GISELDA MENON                           RUA OTAVIO BARRETO - 105 - VILA SANTISTA            02560080                                                            000002
2SR. CAIXA, APOS O VENCIMENTO COBRAR 10% DE MULTA                                NAO RECEBER APOS 30 DIAS DO VENCIMENTO.                                                                                                                                                                                                         01051700000000000000105170000000000000       0090770900066125000000077111000003
100000000000000000000009077090006612500000000000000000000000010002100000000028133900000000002            2  01000002813310051700000003160720000000001N010517000000000000000000000000000000000000000000000000000000000000000100006485911820CELIO MANUEL  MELIM SANTO               RUA JUVENAL FERREIRA  - 85 AP.61 - VILA             03512040                                                            000005
2SR. CAIXA, APOS O VENCIMENTO COBRAR 10% DE MULTA                                NAO RECEBER APOS 30 DIAS DO VENCIMENTO.                                                                                                                                                                                                         01051700000000000000105170000000000000       0090770900066125000000281339000006
100000000000000000000009077090006612500000000000000000000000010002100000000059166400000000002            2  01000005916610051700000002754790000000001N010517000000000000000000000000000000000000000000000000000000000000000100004693857823NIVALDO BARTOLOMEU FERREIRA             MNS JOSE MARINONI  - 33 - SANTO AMARO -             04430350                                                            000008
2SR. CAIXA, APOS O VENCIMENTO COBRAR 10% DE MULTA                                NAO RECEBER APOS 30 DIAS DO VENCIMENTO.                                                                                                                                                                                                         01051700000000000000105170000000000000       0090770900066125000000591664000009
100000000000000000000009077090006612500000000000000000000000010002100000000079488300000000002            2  01000007948810051700000002623190000000001N010517000000000000000000000000000000000000000000000000000000000000000100027993108853DALVA JESUS RODRIGUES CABRAL            RUA CRISTOVAO COLOMBO GONCALVES - 97 - C            04811050                                                            000011
2SR. CAIXA, APOS O VENCIMENTO COBRAR 10% DE MULTA                                NAO RECEBER APOS 30 DIAS DO VENCIMENTO.                                                                                                                                                                                                         01051700000000000000105170000000000000       0090770900066125000000794883000012
100000000000000000000009077090006612500000000000000000000000010002100000009971010400000000002            2  01000997101010051700000002724890000000001N010517000000000000000000000000000000000000000000000000000000000000000100000455495831PAULO HENRIQUE LOURENCO                 RUA FIGUEIRA  - 237 - CIDADE DAS FLORES             06184060                                                            000014
2SR. CAIXA, APOS O VENCIMENTO COBRAR 10% DE MULTA                                NAO RECEBER APOS 30 DIAS DO VENCIMENTO.                                                                                                                                                                                                         01051700000000000000105170000000000000       0090770900066125000099710104000015
100000000000000000000009077090006612500000000000000000000000010002100000019031919100000000002            2  01001903191910051700000003379250000000001N010517000000000000000000000000000000000000000000000000000000000000000100006140049857MARIA ALBANI DA SILVA EUSEBIO           RUA ORLANDO SEGALA - 108 - JARDIM ADRIAN            07135190                                                            000017
2SR. CAIXA, APOS O VENCIMENTO COBRAR 10% DE MULTA                                NAO RECEBER APOS 30 DIAS DO VENCIMENTO.                                                                                                                                                                                                         01051700000000000000105170000000000000       0090770900066125000190319191000018
100000000000000000000009077090006612500000000000000000000000010002100000031142931300000000002            2  01003114293110051700000003313720000000001N010517000000000000000000000000000000000000000000000000000000000000000100002324785897IZILDA NAPOLI                           RUA MONTE CASTELO - 295 AP.71 - AVIACAO             11702720                                                            000020
2SR. CAIXA, APOS O VENCIMENTO COBRAR 10% DE MULTA                                NAO RECEBER APOS 30 DIAS DO VENCIMENTO.                                                                                                                                                                                                         01051700000000000000105170000000000000       0090770900066125000311429313000021
100000000000000000000009077090006612500000000000000000000000010002100000036043136600000000002            2  01003604313610051700000003432730000000001N010517000000000000000000000000000000000000000000000000000000000000000100007768713826FATIMA LUZIA BIANCHI                    DR. OLIDAIR AMBROSIO - 1487 AP.03 - CENT            14160170                                                            000023
2SR. CAIXA, APOS O VENCIMENTO COBRAR 10% DE MULTA                                NAO RECEBER APOS 30 DIAS DO VENCIMENTO.                                                                                                                                                                                                         01051700000000000000105170000000000000       0090770900066125000360431366000024
100000000000000000000009077090006612500000000000000000000000010002100000038893639000000000002            2  01003889363910051700000003381770000000001N010517000000000000000000000000000000000000000000000000000000000000000100021716847800DANIELLE FAGUNDES DE A.MATOS            CONDE MOREIRA LIMA - 644 - JARDIM JABAQU            04384032                                                            000026
2SR. CAIXA, APOS O VENCIMENTO COBRAR 10% DE MULTA                                NAO RECEBER APOS 30 DIAS DO VENCIMENTO.                                                                                                                                                                                                         01051700000000000000105170000000000000       0090770900066125000388936390000027
100000000000000000000009077090006612500000000000000000000000010002100000041883842900000000002            2  01004188384210051700000002825280000000001N010517000000000000000000000000000000000000000000000000000000000000000100028196184808VANESSA NOGUEIRA CAMBUI DA SILVA        CRISTOVAO COLOMBO - 217 - VILA AMERICA -            09110160                                                            000029
2SR. CAIXA, APOS O VENCIMENTO COBRAR 10% DE MULTA                                NAO RECEBER APOS 30 DIAS DO VENCIMENTO.                                                                                                                                                                                                         01051700000000000000105170000000000000       0090770900066125000418838429000030
100000000000000000000009077090006612500000000000000000000000010002100000045794246200000000002            2  01004579424610051700000002985710000000001N010517000000000000000000000000000000000000000000000000000000000000000100005678057863FABIO MOREIRA CAMPOS                    RUA FLORENCIO DA SILVA - 284 - VILA LIBA            03738070                                                            000032
2SR. CAIXA, APOS O VENCIMENTO COBRAR 10% DE MULTA                                NAO RECEBER APOS 30 DIAS DO VENCIMENTO.                                                                                                                                                                                                         01051700000000000000105170000000000000       0090770900066125000457942462000033
100000000000000000000009077090006612500000000000000000000000010002100000046754347700000000002            2  01004675434710051700000003014860000000001N010517000000000000000000000000000000000000000000000000000000000000000100007784496885GUILHERME LEONARDO DO NASCIMENTO        COMENDADOR RUBENS RONCARE - 127 - PONTE             11530120                                                            000035
2SR. CAIXA, APOS O VENCIMENTO COBRAR 10% DE MULTA                                NAO RECEBER APOS 30 DIAS DO VENCIMENTO.                                                                                                                                                                                                         01051700000000000000105170000000000000       0090770900066125000467543477000036
100000000000000000000009077090006612500000000000000000000000010002100000047704448700000000002            2  01004770444810051700000002912800000000001N010517000000000000000000000000000000000000000000000000000000000000000100016348237885AILTON LORENA                           AVENIDA BRASILIA - 194 - BELA VISTA - SA            09180260                                                            000038
2SR. CAIXA, APOS O VENCIMENTO COBRAR 10% DE MULTA                                NAO RECEBER APOS 30 DIAS DO VENCIMENTO.                                                                                                                                                                                                         01051700000000000000105170000000000000       0090770900066125000477044487000039
100000000000000000000009077090006612500000000000000000000000010002100000051544852P00000000002            2  01005154485210051700000002811190000000001N010517000000000000000000000000000000000000000000000000000000000000000100081218486953OSMAR DA COSTA                          RUA MONTE CASTELO - 295 AP.33 - AVIACAO             11702720                                                            000041
2SR. CAIXA, APOS O VENCIMENTO COBRAR 10% DE MULTA                                NAO RECEBER APOS 30 DIAS DO VENCIMENTO.                                                                                                                                                                                                         01051700000000000000105170000000000000       009077090006612500051544852P000042
100000000000000000000009077090006612500000000000000000000000010002100000054555155400000000002            2  01005455515510051700000003192990000000001N010517000000000000000000000000000000000000000000000000000000000000000100004981884850SILVIO PAULINO GONCALVES                MARIA DE CASTRO MESQUITA - 84 AP.103 BLO            07110040                                                            000044
2SR. CAIXA, APOS O VENCIMENTO COBRAR 10% DE MULTA                                NAO RECEBER APOS 30 DIAS DO VENCIMENTO.                                                                                                                                                                                                         01051700000000000000105170000000000000       0090770900066125000545551554000045
100000000000000000000009077090006612500000000000000000000000010002100000055555256700000000002            2  01005555525610051700000002095890000000001N010517000000000000000000000000000000000000000000000000000000000000000100019282546837FABIO LEANDRO DE FREITAS ASSIS          RUA BASSIM NAGIB TRABULSI - 97 - PONTA D            11030540                                                            000047
2SR. CAIXA, APOS O VENCIMENTO COBRAR 10% DE MULTA                                NAO RECEBER APOS 30 DIAS DO VENCIMENTO.                                                                                                                                                                                                         01051700000000000000105170000000000000       0090770900066125000555552567000048
100000000000000000000009077090006612500000000000000000000000010002100000059395660400000000002            2  01005939566010051700000002912730000000001N010517000000000000000000000000000000000000000000000000000000000000000100008423485811EDSON LUIZ NUNES                        RUA NOEMIA PEDROSO BUENO - 41 - JARDIM G            09360440                                                            000050
2SR. CAIXA, APOS O VENCIMENTO COBRAR 10% DE MULTA                                NAO RECEBER APOS 30 DIAS DO VENCIMENTO.                                                                                                                                                                                                         01051700000000000000105170000000000000       0090770900066125000593956604000051
100000000000000000000009077090006612500000000000000000000000010002100000064126165600000000002            2  01006412616510051700000003370380000000001N010517000000000000000000000000000000000000000000000000000000000000000100003010502877GIZELA VIEIRA BARROS                    RUA GIACOMO DALCIN - 157 - MAUA - SAO CA            09580350                                                            000053
2SR. CAIXA, APOS O VENCIMENTO COBRAR 10% DE MULTA                                NAO RECEBER APOS 30 DIAS DO VENCIMENTO.                                                                                                                                                                                                         01051700000000000000105170000000000000       0090770900066125000641261656000054
100000000000000000000009077090006612500000000000000000000000010002100000069126670500000000002            2  01006912667010051700000002744410000000001N010517000000000000000000000000000000000000000000000000000000000000000100012111060801CLAUDIA CRISTINA CRELIS COSTA           RUA RUI BARBOSA - 1736 AP.1533 - VILA SA            19015001                                                            000056
2SR. CAIXA, APOS O VENCIMENTO COBRAR 10% DE MULTA                                NAO RECEBER APOS 30 DIAS DO VENCIMENTO.                                                                                                                                                                                                         01051700000000000000105170000000000000       0090770900066125000691266705000057
100000000000000000000009077090006612500000000000000000000000010002100000070046271700000000002            2  01007004627110051700000002642530000000001N010517000000000000000000000000000000000000000000000000000000000000000100009777281889CARLITA DE FIGUEIREDO CARVALHO          AVENIDA ALBERTO DE ALMEIDA VINHAS - 4462            11701350                                                            000059
2SR. CAIXA, APOS O VENCIMENTO COBRAR 10% DE MULTA                                NAO RECEBER APOS 30 DIAS DO VENCIMENTO.                                                                                                                                                                                                         01051700000000000000105170000000000000       0090770900066125000700462717000060
100000000000000000000009077090006612500000000000000000000000010002100000073066974P00000000002            2  01007306697410051700000003138190000000001N010517000000000000000000000000000000000000000000000000000000000000000100004213020894ELIETE DRUGOVICH DE LIMA                RUA OSVALDO CRUZ - 141 AP.144-B - SANTA             09541270                                                            000062
2SR. CAIXA, APOS O VENCIMENTO COBRAR 10% DE MULTA                                NAO RECEBER APOS 30 DIAS DO VENCIMENTO.                                                                                                                                                                                                         01051700000000000000105170000000000000       009077090006612500073066974P000063
100000000000000000000009077090006612500000000000000000000000010002100000074977176600000000002            2  01007497717610051700000002395160000000001N010517000000000000000000000000000000000000000000000000000000000000000100085839817872MAURO CORREIA MARTINS                   RUA PROFESSOR JOSE AZEVEDO MINHOTO - 72             06114000                                                            000065
2SR. CAIXA, APOS O VENCIMENTO COBRAR 10% DE MULTA                                NAO RECEBER APOS 30 DIAS DO VENCIMENTO.                                                                                                                                                                                                         01051700000000000000105170000000000000       0090770900066125000749771766000066
100000000000000000000009077090006612500000000000000000000000010002100000078713480P00000000002            2  01007871348010051700000002138980000000001N010517000000000000000000000000000000000000000000000000000000000000000100043122850800ANTONIO JOAQUIM GOES                    ANTONIO DOAS DA SILVA - 412 - VILA AMALI            02618110                                                            000068
2SR. CAIXA, APOS O VENCIMENTO COBRAR 10% DE MULTA                                NAO RECEBER APOS 30 DIAS DO VENCIMENTO.                                                                                                                                                                                                         01051700000000000000105170000000000000       009077090006612500078713480P000069
100000000000000000000009077090006612500000000000000000000000010002100000086418088700000000002            2  01008641808810051700000002808340000000001N010517000000000000000000000000000000000000000000000000000000000000000100003865776841FRANCISCO JOSE ROCCO                    RUA FABIO JOSE BEZERRA - 130 AP.86 - PAR            03805000                                                            000071
2SR. CAIXA, APOS O VENCIMENTO COBRAR 10% DE MULTA                                NAO RECEBER APOS 30 DIAS DO VENCIMENTO.                                                                                                                                                                                                         01051700000000000000105170000000000000       0090770900066125000864180887000072
100000000000000000000009077090006612500000000000000000000000010002100000091468393100000000002            2  01009146839310051700000002504400000000001N010517000000000000000000000000000000000000000000000000000000000000000100028309524803DEISE RIBEIRO BARBOSA                   RUA CANDIDO JOSE DE ANDRADE - 173 - ERME            03807030                                                            000074
2SR. CAIXA, APOS O VENCIMENTO COBRAR 10% DE MULTA                                NAO RECEBER APOS 30 DIAS DO VENCIMENTO.                                                                                                                                                                                                         01051700000000000000105170000000000000       0090770900066125000914683931000075
100000000000000000000009077090006612500000000000000000000000010002100000093478695800000000002            2  01009347869510051700000002972430000000001N010517000000000000000000000000000000000000000000000000000000000000000100011277908893JOSE AILTON LOPES DE AZEVEDO            RUA MAESTRO JOAO SEPE - 19 - JARDIM MARI            04181030                                                            000077
2SR. CAIXA, APOS O VENCIMENTO COBRAR 10% DE MULTA                                NAO RECEBER APOS 30 DIAS DO VENCIMENTO.                                                                                                                                                                                                         01051700000000000000105170000000000000       0090770900066125000934786958000078
100000000000000000000009077090006612500000000000000000000000010002100000097768999900000000002            2  01009776899910051700000002241610000000001N010517000000000000000000000000000000000000000000000000000000000000000100025215106886KLEBER LUIZ DOS SANTOS                  RUA CAPITAO JOSE MEIRELES - 47 - CAPITAO            11330180                                                            000080
2SR. CAIXA, APOS O VENCIMENTO COBRAR 10% DE MULTA                                NAO RECEBER APOS 30 DIAS DO VENCIMENTO.                                                                                                                                                                                                         01051700000000000000105170000000000000       0090770900066125000977689999000081
100000000000000000000009077090006612500000000000000000000000010002100001014593103500000000002            2  01101459310310051700000002503760000000001N010517000000000000000000000000000000000000000000000000000000000000000100090206789815NEREIDE RODRIGUES FERREIRA              AVENIDA PADRE ESTANISLAU DE CAMPOS - 205            03590060                                                            000083
2SR. CAIXA, APOS O VENCIMENTO COBRAR 10% DE MULTA                                NAO RECEBER APOS 30 DIAS DO VENCIMENTO.                                                                                                                                                                                                         01051700000000000000105170000000000000       0090770900066125010145931035000084
100000000000000000000009077090006612500000000000000000000000010002100001057297107200000000002            2  01105729710710051700000002765340000000001N010517000000000000000000000000000000000000000000000000000000000000000100023027012835RUBEN ALBERTO DIAZ                      RUA MONTE CASTELO - 296 AP.104 - AVIACAO            11702720                                                            000086
2SR. CAIXA, APOS O VENCIMENTO COBRAR 10% DE MULTA                                NAO RECEBER APOS 30 DIAS DO VENCIMENTO.                                                                                                                                                                                                         01051700000000000000105170000000000000       0090770900066125010572971072000087
100000000000000000000009077090006612500000000000000000000000010002100010871100110500000000002            2  01108711001110051700000002930720000000001N010517000000000000000000000000000000000000000000000000000000000000000100029150742833ANA DEISE SANTOS DE ALMEIDA             RUA MONTE CASTELO - 296 AP.121 - AVIACAO            11702720                                                            000089
2SR. CAIXA, APOS O VENCIMENTO COBRAR 10% DE MULTA                                NAO RECEBER APOS 30 DIAS DO VENCIMENTO.                                                                                                                                                                                                         01051700000000000000105170000000000000       0090770900066125108711001105000090
100000000000000000000009077090006612500000000000000000000000010002100010973101111100000000002            2  01109731011110051700000002413990000000001N010517000000000000000000000000000000000000000000000000000000000000000100000811752801SERGIO BUENO DA SILVA                   RUA MONTE CASTELO - 262 AP.75 - AVIACAO             11702720                                                            000092
2SR. CAIXA, APOS O VENCIMENTO COBRAR 10% DE MULTA                                NAO RECEBER APOS 30 DIAS DO VENCIMENTO.                                                                                                                                                                                                         01051700000000000000105170000000000000       0090770900066125109731011111000093
100000000000000000000009077090006612500000000000000000000000010002100011279104115000000000002            2  01112791041110051700000002306080000000001N010517000000000000000000000000000000000000000000000000000000000000000100027100951810MARCIA RAMALHO RODRIGUES                RUA MONTE CASTELO - 296 AP.82 - AVIACAO             11702720                                                            000095
2SR. CAIXA, APOS O VENCIMENTO COBRAR 10% DE MULTA                                NAO RECEBER APOS 30 DIAS DO VENCIMENTO.                                                                                                                                                                                                         01051700000000000000105170000000000000       0090770900066125112791041150000096
100000000000000000000009077090006612500000000000000000000000010002100011569107118300000000002            2  01115691071110051700000003068660000000001N010517000000000000000000000000000000000000000000000000000000000000000100018344803888MARCELO BERNARDO                        RUA ESTONIA - 06 - INTERLAGOS - SAO PAUL            04785140                                                            000098
2SR. CAIXA, APOS O VENCIMENTO COBRAR 10% DE MULTA                                NAO RECEBER APOS 30 DIAS DO VENCIMENTO.                                                                                                                                                                                                         01051700000000000000105170000000000000       0090770900066125115691071183000099
100000000000000000000009077090006612500000000000000000000000010002100012579115128700000000002            2  01125791151210051700000002288430000000001N010517000000000000000000000000000000000000000000000000000000000000000100030210501820ROGERIO MUNIZ DA CUNHA                  RUA MONTE CASTELO - 296 AP.34 - AVIACAO             11702720                                                            000101
2SR. CAIXA, APOS O VENCIMENTO COBRAR 10% DE MULTA                                NAO RECEBER APOS 30 DIAS DO VENCIMENTO.                                                                                                                                                                                                         01051700000000000000105170000000000000       0090770900066125125791151287000102
100000000000000000000009077090006612500000000000000000000000010002100012787117130300000000002            2  01127871171310051700000004302200000000001N010517000000000000000000000000000000000000000000000000000000000000000100004004328896VANDERLEI  MARTINS DE ALMEIDA           RUA MONSENHOR TABOSA - 03 - PARQUE CISPE            03819300                                                            000104
2SR. CAIXA, APOS O VENCIMENTO COBRAR 10% DE MULTA                                NAO RECEBER APOS 30 DIAS DO VENCIMENTO.                                                                                                                                                                                                         01051700000000000000105170000000000000       0090770900066125127871171303000105
100000000000000000000009077090006612500000000000000000000000010002100013222120135P00000000002            2  01132221201310051700000002938540000000001N010517000000000000000000000000000000000000000000000000000000000000000100005133053860VICENTE ARCIPRETE JUNIOR                RUA JOSE SIMOES FERREIRA FILHO - 80 - JA            06040090                                                            000107
2SR. CAIXA, APOS O VENCIMENTO COBRAR 10% DE MULTA                                NAO RECEBER APOS 30 DIAS DO VENCIMENTO.                                                                                                                                                                                                         01051700000000000000105170000000000000       009077090006612513222120135P000108
100000000000000000000009077090006612500000000000000000000000010002100001381792141500000000002            2  01138179214110051700000000714730000000001N010517000000000000000000000000000000000000000000000000000000000000000100056660235868JOSE DA SILVA                           RUA MONTE CASTELO - 296 AP.32 - AVIACAO             11702720                                                            000110
2SR. CAIXA, APOS O VENCIMENTO COBRAR 10% DE MULTA                                NAO RECEBER APOS 30 DIAS DO VENCIMENTO.                                                                                                                                                                                                         01051700000000000000105170000000000000       0090770900066125013817921415000111
100000000000000000000009077090006612500000000000000000000000010002100013897124142400000000002            2  01138971241410051700000002595680000000001N010517000000000000000000000000000000000000000000000000000000000000000100016339432832ALEX MONTEIRO DA SILVA                  RUA IVA MOURA LIMA - 04 - JARDIM MIRNA I            04855540                                                            000113
2SR. CAIXA, APOS O VENCIMENTO COBRAR 10% DE MULTA                                NAO RECEBER APOS 30 DIAS DO VENCIMENTO.                                                                                                                                                                                                         01051700000000000000105170000000000000       0090770900066125138971241424000114
100000000000000000000009077090006612500000000000000000000000010002100013995125143800000000002            2  01139951251410051700000002650670000000001N010517000000000000000000000000000000000000000000000000000000000000000100031803864877ELEILSON FELIPPE SANTOS                 RUA SANTA GREGORIA - 193 - CIDADE DUTRA             04806030                                                            000116
2SR. CAIXA, APOS O VENCIMENTO COBRAR 10% DE MULTA                                NAO RECEBER APOS 30 DIAS DO VENCIMENTO.                                                                                                                                                                                                         01051700000000000000105170000000000000       0090770900066125139951251438000117
100000000000000000000009077090006612500000000000000000000000010002100014421127147100000000002            2  01144211271410051700000001824090000000001N010517000000000000000000000000000000000000000000000000000000000000000100026032632857MARILA LOPES PEREIRA                    RUA ESTRADA DO M BOI MIRIM - 820 BL.05 A            04905000                                                            000119
2SR. CAIXA, APOS O VENCIMENTO COBRAR 10% DE MULTA                                NAO RECEBER APOS 30 DIAS DO VENCIMENTO.                                                                                                                                                                                                         01051700000000000000105170000000000000       0090770900066125144211271471000120
100000000000000000000009077090006612500000000000000000000000010002100014519128148P00000000002            2  01145191281410051700000003158780000000001N010517000000000000000000000000000000000000000000000000000000000000000100063064537849ANTONIO APARECIDO DA SILVA DESTEFANO    RUA PROFESSOR TEODORO BRAGA - 46 - VILA             02966020                                                            000122
2SR. CAIXA, APOS O VENCIMENTO COBRAR 10% DE MULTA                                NAO RECEBER APOS 30 DIAS DO VENCIMENTO.                                                                                                                                                                                                         01051700000000000000105170000000000000       009077090006612514519128148P000123
100000000000000000000009077090006612500000000000000000000000010002100014853130152800000000002            2  01148531301510051700000003027060000000001N010517000000000000000000000000000000000000000000000000000000000000000100010107711834VALDEMAR FECCHIO                        RUA DOUTOR MARTINS DE OLIVEIRA - 529 AP.            05638030                                                            000125
2SR. CAIXA, APOS O VENCIMENTO COBRAR 10% DE MULTA                                NAO RECEBER APOS 30 DIAS DO VENCIMENTO.                                                                                                                                                                                                         01051700000000000000105170000000000000       0090770900066125148531301528000126
100000000000000000000009077090006612500000000000000000000000010002100015197131156900000000002            2  01151971311510051700000003894140000000001N010517000000000000000000000000000000000000000000000000000000000000000100003330791837MARLI DA SILVA BARBOSA                  RUA GLICERIO CERQUEIRA LEITE - 151 - JAR            03675040                                                            000128
2SR. CAIXA, APOS O VENCIMENTO COBRAR 10% DE MULTA                                NAO RECEBER APOS 30 DIAS DO VENCIMENTO.                                                                                                                                                                                                         01051700000000000000105170000000000000       0090770900066125151971311569000129
100000000000000000000009077090006612500000000000000000000000010002100015398132158100000000002            2  01153981321510051700000001582920000000001N010517000000000000000000000000000000000000000000000000000000000000000100008931031874MARIA MARINHO DE OLIVEIRA               AVENIDA 9 DE JULHO - 1854 AP.81 - BELA V            01312001                                                            000131
2SR. CAIXA, APOS O VENCIMENTO COBRAR 10% DE MULTA                                NAO RECEBER APOS 30 DIAS DO VENCIMENTO.                                                                                                                                                                                                         01051700000000000000105170000000000000       0090770900066125153981321581000132
100000000000000000000009077090006612500000000000000000000000010002100015603134160700000000002            2  01156031341610051700000001839060000000001N010517000000000000000000000000000000000000000000000000000000000000000100005920579846SONIA MARIA VALDO POLLO                 RUA PALMIRA CERVI BARBARO - 797 - CIDADE            13214370                                                            000134
2SR. CAIXA, APOS O VENCIMENTO COBRAR 10% DE MULTA                                NAO RECEBER APOS 30 DIAS DO VENCIMENTO.                                                                                                                                                                                                         01051700000000000000105170000000000000       0090770900066125156031341607000135
100000000000000000000009077090006612500000000000000000000000010002100017883137181800000000002            2  01178831371810051700000002765110000000001N010517000000000000000000000000000000000000000000000000000000000000000100002494107881CIRO FRANCISCO MARCHI DURIGON           RUA MONTE CASTELO - 262 AP.115 - AVIACAO            11702720                                                            000137
2SR. CAIXA, APOS O VENCIMENTO COBRAR 10% DE MULTA                                NAO RECEBER APOS 30 DIAS DO VENCIMENTO.                                                                                                                                                                                                         01051700000000000000105170000000000000       0090770900066125178831371818000138
100000000000000000000009077090006612500000000000000000000000010002100019040150190400000000002            2  01190401501910051700000002718250000000001N010517000000000000000000000000000000000000000000000000000000000000000100007002345869DOMINGOS DE BRITO GALVAO                RUA MONTE CASTELO - 262 AP.44 - AVIACAO             11702720                                                            000140
2SR. CAIXA, APOS O VENCIMENTO COBRAR 10% DE MULTA                                NAO RECEBER APOS 30 DIAS DO VENCIMENTO.                                                                                                                                                                                                         01051700000000000000105170000000000000       0090770900066125190401501904000141
100000000000000000000009077090006612500000000000000000000000010002100019693155195100000000002            2  01196931551910051700000001132300000000001N010517000000000000000000000000000000000000000000000000000000000000000100009346863862NELSON DE SOUZA SANTOS                  RUA PRIMEIRA CRUZ - 90 - PARQUE INDEPEND            03236060                                                            000143
2SR. CAIXA, APOS O VENCIMENTO COBRAR 10% DE MULTA                                NAO RECEBER APOS 30 DIAS DO VENCIMENTO.                                                                                                                                                                                                         01051700000000000000105170000000000000       0090770900066125196931551951000144
100000000000000000000009077090006612500000000000000000000000010002100020046157198200000000002            2  01200461571910051700000002620370000000001N010517000000000000000000000000000000000000000000000000000000000000000100016299008857FERNANDO CESAR CARVALHO                 AVENIDA MARCONDES DE BRITO - 1340 AP.74             03509000                                                            000146
2SR. CAIXA, APOS O VENCIMENTO COBRAR 10% DE MULTA                                NAO RECEBER APOS 30 DIAS DO VENCIMENTO.                                                                                                                                                                                                         01051700000000000000105170000000000000       0090770900066125200461571982000147
100000000000000000000009077090006612500000000000000000000000010002100002251575219200000000002            2  01225157521910051700000002633080000000001N010517000000000000000000000000000000000000000000000000000000000000000100031082898880VANESSA DOS SANTOS NEIVA                RUA MONTE CASTELO - 296 AP.33 - BAIRRO A            11702720                                                            000149
2SR. CAIXA, APOS O VENCIMENTO COBRAR 10% DE MULTA                                NAO RECEBER APOS 30 DIAS DO VENCIMENTO.                                                                                                                                                                                                         01051700000000000000105170000000000000       0090770900066125022515752192000150
100000000000000000000009077090006612500000000000000000000000010002100026871143250200000000002            2  01268711432510051700000001603180000000001N010517000000000000000000000000000000000000000000000000000000000000000100065895304834MARINHO BARBOSA CUNHA                   AVENIDA EDU CHAVES - 639 AP.43 - PARQUE             02229000                                                            000152
2SR. CAIXA, APOS O VENCIMENTO COBRAR 10% DE MULTA                                NAO RECEBER APOS 30 DIAS DO VENCIMENTO.                                                                                                                                                                                                         01051700000000000000105170000000000000       0090770900066125268711432502000153
9                                                                                                                                                                                                                                                                                                                                                                                                         000154