01REMESSA01COBRANCA       00000000000008017025HB SANTOS CONSTRUTORA E INCORP237BRADESCO       010918        MX0000062                                                                                                                                                                                                                                                                                     000001
100000000000000000000009033990000627000000000000000000000000010002020029671509181900000000002            2  01296715091809091800000002314920000000001N010918000000000000000000000000000000000000000000000000000000000000000100029671526845ROGERIO CONSENTINO                      RUA CARLOS MAZER  - 678 - VILA CARMOSINA            08290700                                                            000002
2SR. CAIXA, APOS O VENCIMENTO COBRAR 2% DE MULTA                                 NAO RECEBER APOS 30 DIAS DO VENCIMENTO.                                                                                                                                                                                                         01091800000000000000109180000000000000       0090339900006270296715091819000003
100000000000000000000009033990000627000000000000000000000000010002020003863009181000000000002            2  01038630091809091800000002186640000000001N010918000000000000000000000000000000000000000000000000000000000000000100003863075803HERALDO MENQUINI                        RUA OCEANICA AMABILE - 346 AP.415 - CIDA            11704420                                                            000005
2SR. CAIXA, APOS O VENCIMENTO COBRAR 2% DE MULTA                                 NAO RECEBER APOS 30 DIAS DO VENCIMENTO.                                                                                                                                                                                                         01091800000000000000109180000000000000       0090339900006270038630091810000006
100000000000000000000009033990000627000000000000000000000000010002020029028409181800000000002            2  01290284091809091800000002239990000000001N010918000000000000000000000000000000000000000000000000000000000000000100029028478825LEONARDO LOUZADA                        RUA ILHEUS - QUADRA 31 - 244 - BAIRRO CE            19274000                                                            000008
2SR. CAIXA, APOS O VENCIMENTO COBRAR 2% DE MULTA                                 NAO RECEBER APOS 30 DIAS DO VENCIMENTO.                                                                                                                                                                                                         01091800000000000000109180000000000000       0090339900006270290284091818000009
100000000000000000000009033990000627000000000000000000000000010002020032878509181500000000002            2  01328785091809091800000003237230000000001N010918000000000000000000000000000000000000000000000000000000000000000100032878512847LEONARDO MOURA MONIZ CALDEIRA           RUA BALSA - 682 AP.134 T.02 - VILA ARCAD            02910000                                                            000011
2SR. CAIXA, APOS O VENCIMENTO COBRAR 2% DE MULTA                                 NAO RECEBER APOS 30 DIAS DO VENCIMENTO.                                                                                                                                                                                                         01091800000000000000109180000000000000       0090339900006270328785091815000012
100000000000000000000009033990000627000000000000000000000000010002020016479009181200000000002            2  01164790091809091800000003443830000000001N010918000000000000000000000000000000000000000000000000000000000000000100016479002806LOURDES PEREIRA DE QUEIROZ SECANECHIA   RUA PAULINO CURSI - 437 - CIDADE SAO MAT            03960060                                                            000014
2SR. CAIXA, APOS O VENCIMENTO COBRAR 2% DE MULTA                                 NAO RECEBER APOS 30 DIAS DO VENCIMENTO.                                                                                                                                                                                                         01091800000000000000109180000000000000       0090339900006270164790091812000015
100000000000000000000009033990000627000000000000000000000000010002020019635009181P00000000002            2  01196350091809091800000002540940000000001N010918000000000000000000000000000000000000000000000000000000000000000100019635091885IVAN VIEIRA SILVA                       ABRAO JORGE - 3001 - JARDIM INTEGRACAO -            14405397                                                            000017
2SR. CAIXA, APOS O VENCIMENTO COBRAR 2% DE MULTA                                 NAO RECEBER APOS 30 DIAS DO VENCIMENTO.                                                                                                                                                                                                         01091800000000000000109180000000000000       009033990000627019635009181P000018
100000000000000000000009033990000627000000000000000000000000010002020009361409181P00000000002            2  01093614091809091800000002500220000000001N010918000000000000000000000000000000000000000000000000000000000000000100009361471805JOSE BARBOSA DA SILVA                   RUA ALFREDO INACIO TRINDADE  - 60 AP.44             02344100                                                            000020
2SR. CAIXA, APOS O VENCIMENTO COBRAR 2% DE MULTA                                 NAO RECEBER APOS 30 DIAS DO VENCIMENTO.                                                                                                                                                                                                         01091800000000000000109180000000000000       009033990000627009361409181P000021
100000000000000000000009033990000627000000000000000000000000010002020012756909181300000000002            2  01127569091809091800000002158240000000001N010918000000000000000000000000000000000000000000000000000000000000000100012756959812ITAMAR JUVENAL DIAS DA SILVA            RUA ELISEU REINALDO MORAES VIEIRA - 90 A            02858000                                                            000023
2SR. CAIXA, APOS O VENCIMENTO COBRAR 2% DE MULTA                                 NAO RECEBER APOS 30 DIAS DO VENCIMENTO.                                                                                                                                                                                                         01091800000000000000109180000000000000       0090339900006270127569091813000024
100000000000000000000009033990000627000000000000000000000000010002020002731009181000000000002            2  01027310091809091800000002551610000000001N010918000000000000000000000000000000000000000000000000000000000000000100002731042842VALTER CERQUEIRA VILLA NOVA             RUA MACHADO - 106 - VILA AUGUSTA - GUARU            07025210                                                            000026
2SR. CAIXA, APOS O VENCIMENTO COBRAR 2% DE MULTA                                 NAO RECEBER APOS 30 DIAS DO VENCIMENTO.                                                                                                                                                                                                         01091800000000000000109180000000000000       0090339900006270027310091810000027
100000000000000000000009033990000627000000000000000000000000010002020002731009182900000000002            2  01027310091809091800000002551610000000001N010918000000000000000000000000000000000000000000000000000000000000000100002731042842VALTER CERQUEIRA VILLA NOVA             RUA MACHADO - 106 - VILA AUGUSTA - GUARU            07025210                                                            000029
2SR. CAIXA, APOS O VENCIMENTO COBRAR 2% DE MULTA                                 NAO RECEBER APOS 30 DIAS DO VENCIMENTO.                                                                                                                                                                                                         01091800000000000000109180000000000000       0090339900006270027310091829000030
100000000000000000000009033990000627000000000000000000000000010002020028802109181900000000002            2  01288021091809091800000002304070000000001N010918000000000000000000000000000000000000000000000000000000000000000100028802158894ELIEL HENRIQUE ZUZA                     RUA CARLOS JOSE BORSTENS - 50 AP.43 - BA            11702750                                                            000032
2SR. CAIXA, APOS O VENCIMENTO COBRAR 2% DE MULTA                                 NAO RECEBER APOS 30 DIAS DO VENCIMENTO.                                                                                                                                                                                                         01091800000000000000109180000000000000       0090339900006270288021091819000033
100000000000000000000009033990000627000000000000000000000000010002020008739109181200000000002            2  01087391091809091800000002154880000000001N010918000000000000000000000000000000000000000000000000000000000000000100008739150895VANGEVALDO BATISTA SANT ANNA            TRAVESSA TOMAZIN - 02 - ERMELINO MATARAZ            03811125                                                            000035
2SR. CAIXA, APOS O VENCIMENTO COBRAR 2% DE MULTA                                 NAO RECEBER APOS 30 DIAS DO VENCIMENTO.                                                                                                                                                                                                         01091800000000000000109180000000000000       0090339900006270087391091812000036
100000000000000000000009033990000627000000000000000000000000010002020005313709181900000000002            2  01053137091811091800000001895130000000001N010918000000000000000000000000000000000000000000000000000000000000000100005313717863EDIMICIO JOSE DE ARAUJO                 PRACA NICOLAU GERAIGIRE - 680 CA A - JAR            11095110                                                            000038
2SR. CAIXA, APOS O VENCIMENTO COBRAR 2% DE MULTA                                 NAO RECEBER APOS 30 DIAS DO VENCIMENTO.                                                                                                                                                                                                         01091800000000000000109180000000000000       0090339900006270053137091819000039
100000000000000000000009033990000627000000000000000000000000010002020029433609181700000000002            2  01294336091811091800000001820570000000001N010918000000000000000000000000000000000000000000000000000000000000000100029433631897MARIO MUNIZ                             RUA LIBERO BADARO - 1115 - BAIRRO CIDADE            11704070                                                            000041
2SR. CAIXA, APOS O VENCIMENTO COBRAR 2% DE MULTA                                 NAO RECEBER APOS 30 DIAS DO VENCIMENTO.                                                                                                                                                                                                         01091800000000000000109180000000000000       0090339900006270294336091817000042
100000000000000000000009033990000627000000000000000000000000010002020001847209181500000000002            2  01018472091811091800000001676080000000001N010918000000000000000000000000000000000000000000000000000000000000000100001847204864AMERICA CONCEICAO DA SILVA              RUA CAMINHO DO GUARAMAR - 199 AP.11 BLOC            11721050                                                            000044
2SR. CAIXA, APOS O VENCIMENTO COBRAR 2% DE MULTA                                 NAO RECEBER APOS 30 DIAS DO VENCIMENTO.                                                                                                                                                                                                         01091800000000000000109180000000000000       0090339900006270018472091815000045
100000000000000000000009033990000627000000000000000000000000010002020005029809181P00000000002            2  01050298091809091800000002200470000000001N010918000000000000000000000000000000000000000000000000000000000000000100005029828885LAURINETE DA CONCEICAO DE NORONHA       RUA MARIA LUCIA DE TOLEDO LEITE MORAES -            04434040                                                            000047
2SR. CAIXA, APOS O VENCIMENTO COBRAR 2% DE MULTA                                 NAO RECEBER APOS 30 DIAS DO VENCIMENTO.                                                                                                                                                                                                         01091800000000000000109180000000000000       009033990000627005029809181P000048
100000000000000000000009033990000627000000000000000000000000010002020027682109181900000000002            2  01276821091811091800000001766950000000001N010918000000000000000000000000000000000000000000000000000000000000000100027682175818ALINE TEIXEIRA                          RUA CRUZEIRO DO SUL - 309 - JARDIM BOM P            06385060                                                            000050
2SR. CAIXA, APOS O VENCIMENTO COBRAR 2% DE MULTA                                 NAO RECEBER APOS 30 DIAS DO VENCIMENTO.                                                                                                                                                                                                         01091800000000000000109180000000000000       0090339900006270276821091819000051
100000000000000000000009033990000627000000000000000000000000010002020013388909181100000000002            2  01133889091811091800000001774790000000001N010918000000000000000000000000000000000000000000000000000000000000000100013388936889NEUTON DE SOUZA RAMOS                   RUA MARIA CRISTINA - 932 - JARDIM CASQUE            11533160                                                            000053
2SR. CAIXA, APOS O VENCIMENTO COBRAR 2% DE MULTA                                 NAO RECEBER APOS 30 DIAS DO VENCIMENTO.                                                                                                                                                                                                         01091800000000000000109180000000000000       0090339900006270133889091811000054
100000000000000000000009033990000627000000000000000000000000010002020012774909181100000000002            2  01127749091811091800000001808090000000001N010918000000000000000000000000000000000000000000000000000000000000000100012774906865JOSE MILTON SANTIAGO                    RUA BATATAIS - 47 - CIDADE ESTELA - POA             08563140                                                            000056
2SR. CAIXA, APOS O VENCIMENTO COBRAR 2% DE MULTA                                 NAO RECEBER APOS 30 DIAS DO VENCIMENTO.                                                                                                                                                                                                         01091800000000000000109180000000000000       0090339900006270127749091811000057
100000000000000000000009033990000627000000000000000000000000010002020004234909181700000000002            2  01042349091809091800000003206630000000001N010918000000000000000000000000000000000000000000000000000000000000000100004234989835LUIZ ISRAEL DA COSTA                    AVENIDA FERNANDO PACHECO JORDAO - 907 -             08121510                                                            000059
2SR. CAIXA, APOS O VENCIMENTO COBRAR 2% DE MULTA                                 NAO RECEBER APOS 30 DIAS DO VENCIMENTO.                                                                                                                                                                                                         01091800000000000000109180000000000000       0090339900006270042349091817000060
100000000000000000000009033990000627000000000000000000000000010002020016294109181700000000002            2  01162941091809091800000002184670000000001N010918000000000000000000000000000000000000000000000000000000000000000100016294119812JURACY FELIX DE ARRUDA                  RUA CARLOS JOSE BORSTENS - 50 AP.23 - AV            11702750                                                            000062
2SR. CAIXA, APOS O VENCIMENTO COBRAR 2% DE MULTA                                 NAO RECEBER APOS 30 DIAS DO VENCIMENTO.                                                                                                                                                                                                         01091800000000000000109180000000000000       0090339900006270162941091817000063
100000000000000000000009033990000627000000000000000000000000010002020005613809181100000000002            2  01056138091811091800000001662950000000001N010918000000000000000000000000000000000000000000000000000000000000000100005613843805NILZA MARIA DE OLIVEIRA                 RUA JOSE GONCALVES DE FREITAS - 66 C2 -             08210550                                                            000065
2SR. CAIXA, APOS O VENCIMENTO COBRAR 2% DE MULTA                                 NAO RECEBER APOS 30 DIAS DO VENCIMENTO.                                                                                                                                                                                                         01091800000000000000109180000000000000       0090339900006270056138091811000066
100000000000000000000009033990000627000000000000000000000000010002020007574909181100000000002            2  01075749091811091800000001706980000000001N010918000000000000000000000000000000000000000000000000000000000000000100007574936889JORGE LUCIANO PEREIRA BORRIELLO         RUA FABIO DE ALMEIDA MAGALHAES - 179 - J            05135370                                                            000068
2SR. CAIXA, APOS O VENCIMENTO COBRAR 2% DE MULTA                                 NAO RECEBER APOS 30 DIAS DO VENCIMENTO.                                                                                                                                                                                                         01091800000000000000109180000000000000       0090339900006270075749091811000069
100000000000000000000009033990000627000000000000000000000000010002020032408109181400000000002            2  01324081091811091800000001609330000000001N010918000000000000000000000000000000000000000000000000000000000000000100032408151848DEILSON DO NASCIMENTO CANDIDO DA SILVA  RUA HEREMITA SANTA DO NASCIMENTO - 37 AP            11345340                                                            000071
2SR. CAIXA, APOS O VENCIMENTO COBRAR 2% DE MULTA                                 NAO RECEBER APOS 30 DIAS DO VENCIMENTO.                                                                                                                                                                                                         01091800000000000000109180000000000000       0090339900006270324081091814000072
100000000000000000000009033990000627000000000000000000000000010002020008214909181400000000002            2  01082149091811091800000001732890000000001N010918000000000000000000000000000000000000000000000000000000000000000100008214973830JAMIL CHALA                             AVENIDA COSTA MACHADO - 291 AP.133-A - C            11700650                                                            000074
2SR. CAIXA, APOS O VENCIMENTO COBRAR 2% DE MULTA                                 NAO RECEBER APOS 30 DIAS DO VENCIMENTO.                                                                                                                                                                                                         01091800000000000000109180000000000000       0090339900006270082149091814000075
100000000000000000000009033990000627000000000000000000000000010002020032495009181100000000002            2  01324950091811091800000001941920000000001N010918000000000000000000000000000000000000000000000000000000000000000100032495004881PAULO EDUARDO DOS SANTOS                RUA REPUBLICA DO IRAQUE - 1119 - CAMPO B            04611002                                                            000077
2SR. CAIXA, APOS O VENCIMENTO COBRAR 2% DE MULTA                                 NAO RECEBER APOS 30 DIAS DO VENCIMENTO.                                                                                                                                                                                                         01091800000000000000109180000000000000       0090339900006270324950091811000078
100000000000000000000009033990000627000000000000000000000000010002020006471809181100000000002            2  01064718091809091800000002150870000000001N010918000000000000000000000000000000000000000000000000000000000000000100006471825803JOSIVALDO BASTOS DE OLIVEIRA            RUA MARIA DIAS HOG - 263 - PARQUE CONTIN            07085035                                                            000080
2SR. CAIXA, APOS O VENCIMENTO COBRAR 2% DE MULTA                                 NAO RECEBER APOS 30 DIAS DO VENCIMENTO.                                                                                                                                                                                                         01091800000000000000109180000000000000       0090339900006270064718091811000081
100000000000000000000009033990000627000000000000000000000000010002020038856809181800000000002            2  01388568091811091800000001800210000000001N010918000000000000000000000000000000000000000000000000000000000000000100038856851830FELIPE BIANCHI DA COSTA FREITAS         AVENIDA ENGENHEIRO ARMANDO DE ARRUDA PER            04325001                                                            000083
2SR. CAIXA, APOS O VENCIMENTO COBRAR 2% DE MULTA                                 NAO RECEBER APOS 30 DIAS DO VENCIMENTO.                                                                                                                                                                                                         01091800000000000000109180000000000000       0090339900006270388568091818000084
100000000000000000000009033990000627000000000000000000000000010002020016498009181900000000002            2  01164980091811091800000001703100000000001N010918000000000000000000000000000000000000000000000000000000000000000100016498053810GILMA CEZARIO GARCIA CORRITORI          RUA LAURENTINO XAVIER DOS SANTOS - 336 -            08240740                                                            000086
2SR. CAIXA, APOS O VENCIMENTO COBRAR 2% DE MULTA                                 NAO RECEBER APOS 30 DIAS DO VENCIMENTO.                                                                                                                                                                                                         01091800000000000000109180000000000000       0090339900006270164980091819000087
100000000000000000000009033990000627000000000000000000000000010002020030098609181100000000002            2  01300986091811091800000001828440000000001N010918000000000000000000000000000000000000000000000000000000000000000100030098603825DEUZIANA MOREIRA DE SA                  RUA JOAO AVELINO PINHO MELLAO - 114 - JA            05659010                                                            000089
2SR. CAIXA, APOS O VENCIMENTO COBRAR 2% DE MULTA                                 NAO RECEBER APOS 30 DIAS DO VENCIMENTO.                                                                                                                                                                                                         01091800000000000000109180000000000000       0090339900006270300986091811000090
100000000000000000000009033990000627000000000000000000000000010002020029339009181800000000002            2  01293390091811091800000001821190000000001N010918000000000000000000000000000000000000000000000000000000000000000100029339051831RONALD DIDOFF                           RUA CORONEL FERREIRA BRAGA - 188 - VILA             03522010                                                            000092
2SR. CAIXA, APOS O VENCIMENTO COBRAR 2% DE MULTA                                 NAO RECEBER APOS 30 DIAS DO VENCIMENTO.                                                                                                                                                                                                         01091800000000000000109180000000000000       0090339900006270293390091818000093
100000000000000000000009033990000627000000000000000000000000010002020017357809181P00000000002            2  01173578091811091800000001928800000000001N010918000000000000000000000000000000000000000000000000000000000000000100017357859894MARCIO GUIMARAES                        RUA GENERAL CAMARA - 188 SALA 11 - CENTR            11010120                                                            000095
2SR. CAIXA, APOS O VENCIMENTO COBRAR 2% DE MULTA                                 NAO RECEBER APOS 30 DIAS DO VENCIMENTO.                                                                                                                                                                                                         01091800000000000000109180000000000000       009033990000627017357809181P000096
100000000000000000000009033990000627000000000000000000000000010002020010563009181P00000000002            2  01105630091811091800000001978100000000001N010918000000000000000000000000000000000000000000000000000000000000000100010563033878VERA LUCIA RIBEIRO LONGANEZI            RUA DOS CAMARES - 150 AP.24 BL.02 - CARA            02068030                                                            000098
2SR. CAIXA, APOS O VENCIMENTO COBRAR 2% DE MULTA                                 NAO RECEBER APOS 30 DIAS DO VENCIMENTO.                                                                                                                                                                                                         01091800000000000000109180000000000000       009033990000627010563009181P000099
100000000000000000000009033990000627000000000000000000000000010002020005529609181400000000002            2  01055296091811091800000001795040000000001N010918000000000000000000000000000000000000000000000000000000000000000100005529616801JOAQUIM JORGE DA COSTA                  RUA CONEGO XAVIER - 13 - SACOMA - SAO PA            04231030                                                            000101
2SR. CAIXA, APOS O VENCIMENTO COBRAR 2% DE MULTA                                 NAO RECEBER APOS 30 DIAS DO VENCIMENTO.                                                                                                                                                                                                         01091800000000000000109180000000000000       0090339900006270055296091814000102
100000000000000000000009033990000627000000000000000000000000010002020022014109181900000000002            2  01220141091811091800000001789820000000001N010918000000000000000000000000000000000000000000000000000000000000000100022014140847CAMILA SILVEIRA CANIZARES               AVENIDA PRESIDENTE CASTELO BRANCO - 5.74            11703650                                                            000104
2SR. CAIXA, APOS O VENCIMENTO COBRAR 2% DE MULTA                                 NAO RECEBER APOS 30 DIAS DO VENCIMENTO.                                                                                                                                                                                                         01091800000000000000109180000000000000       0090339900006270220141091819000105
100000000000000000000009033990000627000000000000000000000000010002020015550709181000000000002            2  01155507091809091800000001667940000000001N010918000000000000000000000000000000000000000000000000000000000000000100015550706806MARY MIWA                               RUA CARLOS JOSE BORSTENS - 50 AP.105 - A            11702750                                                            000107
2SR. CAIXA, APOS O VENCIMENTO COBRAR 2% DE MULTA                                 NAO RECEBER APOS 30 DIAS DO VENCIMENTO.                                                                                                                                                                                                         01091800000000000000109180000000000000       0090339900006270155507091810000108
100000000000000000000009033990000627000000000000000000000000010002020015464609181000000000002            2  01154646091811091800000001887010000000001N010918000000000000000000000000000000000000000000000000000000000000000100015464647864SONIA TERESA VOLPATO                    RUA PEDRO BADRA - 51 AP.73 - JABAQUARA -            04348090                                                            000110
2SR. CAIXA, APOS O VENCIMENTO COBRAR 2% DE MULTA                                 NAO RECEBER APOS 30 DIAS DO VENCIMENTO.                                                                                                                                                                                                         01091800000000000000109180000000000000       0090339900006270154646091810000111
100000000000000000000009033990000627000000000000000000000000010002020008657809181P00000000002            2  01086578091811091800000001868080000000001N010918000000000000000000000000000000000000000000000000000000000000000100008657886855ARLINDO DA CRUZ                         AVENIDA ARICANDUVA - 8.256 AP.54 BL.10 -            03951220                                                            000113
2SR. CAIXA, APOS O VENCIMENTO COBRAR 2% DE MULTA                                 NAO RECEBER APOS 30 DIAS DO VENCIMENTO.                                                                                                                                                                                                         01091800000000000000109180000000000000       009033990000627008657809181P000114
100000000000000000000009033990000627000000000000000000000000010002020004265709181P00000000002            2  01042657091809091800000002457680000000001N010918000000000000000000000000000000000000000000000000000000000000000100004265781713ALEXANDRE CASADO COSTA                  RUA CARLOS JOSE BORSTENS - 50 AP.33 - AV            11702750                                                            000116
2SR. CAIXA, APOS O VENCIMENTO COBRAR 2% DE MULTA                                 NAO RECEBER APOS 30 DIAS DO VENCIMENTO.                                                                                                                                                                                                         01091800000000000000109180000000000000       009033990000627004265709181P000117
100000000000000000000009033990000627000000000000000000000000010002020059735109181800000000002            2  01597351091809091800000001038070000000001N010918000000000000000000000000000000000000000000000000000000000000000100059735180863HELIO JOSE MARQUES                      RUA MARTIM AFONSO DE SOUZA - 1007 AP.102            11702790                                                            000119
2SR. CAIXA, APOS O VENCIMENTO COBRAR 2% DE MULTA                                 NAO RECEBER APOS 30 DIAS DO VENCIMENTO.                                                                                                                                                                                                         01091800000000000000109180000000000000       0090339900006270597351091818000120
100000000000000000000009033990000627000000000000000000000000010002020026347809181100000000002            2  01263478091811091800000001996940000000001N010918000000000000000000000000000000000000000000000000000000000000000100026347872862VALDECI SILVA MEIRELES                  RUA JOSE BATISTA DA SILVA - 292 - JARDIM            06851470                                                            000122
2SR. CAIXA, APOS O VENCIMENTO COBRAR 2% DE MULTA                                 NAO RECEBER APOS 30 DIAS DO VENCIMENTO.                                                                                                                                                                                                         01091800000000000000109180000000000000       0090339900006270263478091811000123
100000000000000000000009033990000627000000000000000000000000010002020025443609181200000000002            2  01254436091809091800000003555150000000001N010918000000000000000000000000000000000000000000000000000000000000000100025443691830SILVANETE PEREIRA CARNELOS              RUA CARLOS JOSE BORSTENS - 50 AP.102 - A            11702750                                                            000125
2SR. CAIXA, APOS O VENCIMENTO COBRAR 2% DE MULTA                                 NAO RECEBER APOS 30 DIAS DO VENCIMENTO.                                                                                                                                                                                                         01091800000000000000109180000000000000       0090339900006270254436091812000126
100000000000000000000009033990000627000000000000000000000000010002020013135209181200000000002            2  01131352091811091800000001834690000000001N010918000000000000000000000000000000000000000000000000000000000000000100013135261859EDUARDO ZANOLA                          RUA ROLANDO PIETRO BONINI - 46 - JARDIM             09781040                                                            000128
2SR. CAIXA, APOS O VENCIMENTO COBRAR 2% DE MULTA                                 NAO RECEBER APOS 30 DIAS DO VENCIMENTO.                                                                                                                                                                                                         01091800000000000000109180000000000000       0090339900006270131352091812000129
9                                                                                                                                                                                                                                                                                                                                                                                                         000130