01REMESSA01COBRANCA       00000000000008017025HB SANTOS CONSTRUTORA E INCORP237BRADESCO       010523        MX0000176                                                                                                                                                                                                                                                                                     000001
100000000000000000000009033990000627000000000000000000000000010002020016479005231000000000002            2  01164790052309052300000005353130000000001N010523000000000000000000000000000000000000000000000000000000000000000100016479002806LOURDES PEREIRA DE QUEIROZ SECANECHIA   RUA PAULINO CURSI - 437 - CIDADE SAO MAT            03960060                                                            000002
2SR. CAIXA, APOS O VENCIMENTO COBRAR 2% DE MULTA                                 NAO RECEBER APOS 30 DIAS DO VENCIMENTO.                                                                                                                                                                                                         01052300000000000000105230000000000000       0090339900006270164790052310000003
100000000000000000000009033990000627000000000000000000000000010002020017229705232000000000002            2  01172297052309052300000004073680000000001N010523000000000000000000000000000000000000000000000000000000000000000100017229751802BERENICE VIEIRA KERSTING                RUA ATIBAIA - 17 AP.417 - BAIRRO IMPERAD            11707380                                                            000005
2SR. CAIXA, APOS O VENCIMENTO COBRAR 2% DE MULTA                                 NAO RECEBER APOS 30 DIAS DO VENCIMENTO.                                                                                                                                                                                                         01052300000000000000105230000000000000       0090339900006270172297052320000006
100000000000000000000009033990000627000000000000000000000000010002020009361405231800000000002            2  01093614052309052300000003886370000000001N010523000000000000000000000000000000000000000000000000000000000000000100009361471805JOSE BARBOSA DA SILVA                   RUA ALFREDO INACIO TRINDADE  - 60 AP.44             02344100                                                            000008
2SR. CAIXA, APOS O VENCIMENTO COBRAR 2% DE MULTA                                 NAO RECEBER APOS 30 DIAS DO VENCIMENTO.                                                                                                                                                                                                         01052300000000000000105230000000000000       0090339900006270093614052318000009
100000000000000000000009033990000627000000000000000000000000010002020012756905231100000000002            2  01127569052309052300000003354790000000001N010523000000000000000000000000000000000000000000000000000000000000000100012756959812ITAMAR JUVENAL DIAS DA SILVA            RUA ELISEU REINALDO MORAES VIEIRA - 90 A            02858000                                                            000011
2SR. CAIXA, APOS O VENCIMENTO COBRAR 2% DE MULTA                                 NAO RECEBER APOS 30 DIAS DO VENCIMENTO.                                                                                                                                                                                                         01052300000000000000105230000000000000       0090339900006270127569052311000012
100000000000000000000009033990000627000000000000000000000000010002020029433605231500000000002            2  01294336052311052300000002782430000000001N010523000000000000000000000000000000000000000000000000000000000000000100029433631897MARIO MUNIZ                             RUA JOSE CALIXTO DO CARMO - 286 AP.53 -             11702690                                                            000014
2SR. CAIXA, APOS O VENCIMENTO COBRAR 2% DE MULTA                                 NAO RECEBER APOS 30 DIAS DO VENCIMENTO.                                                                                                                                                                                                         01052300000000000000105230000000000000       0090339900006270294336052315000015
100000000000000000000009033990000627000000000000000000000000010002020005029805231800000000002            2  01050298052309052300000003420400000000001N010523000000000000000000000000000000000000000000000000000000000000000100005029828885LAURINETE DA CONCEICAO DE NORONHA       RUA MARIA LUCIA DE TOLEDO LEITE MORAES -            04434040                                                            000017
2SR. CAIXA, APOS O VENCIMENTO COBRAR 2% DE MULTA                                 NAO RECEBER APOS 30 DIAS DO VENCIMENTO.                                                                                                                                                                                                         01052300000000000000105230000000000000       0090339900006270050298052318000018
100000000000000000000009033990000627000000000000000000000000010002020013388905231P00000000002            2  01133889052311052300000002712420000000001N010523000000000000000000000000000000000000000000000000000000000000000100013388936889NEUTON DE SOUZA RAMOS                   RUA JOSE CALIXTO DO CARMO - 286 AP.61 -             11702690                                                            000020
2SR. CAIXA, APOS O VENCIMENTO COBRAR 2% DE MULTA                                 NAO RECEBER APOS 30 DIAS DO VENCIMENTO.                                                                                                                                                                                                         01052300000000000000105230000000000000       009033990000627013388905231P000021
100000000000000000000009033990000627000000000000000000000000010002020012774905231P00000000002            2  01127749052311052300000002763360000000001N010523000000000000000000000000000000000000000000000000000000000000000100012774906865JOSE MILTON SANTIAGO                    RUA BATATAIS - 47 - CIDADE ESTELA - POA             08563140                                                            000023
2SR. CAIXA, APOS O VENCIMENTO COBRAR 2% DE MULTA                                 NAO RECEBER APOS 30 DIAS DO VENCIMENTO.                                                                                                                                                                                                         01052300000000000000105230000000000000       009033990000627012774905231P000024
100000000000000000000009033990000627000000000000000000000000010002020005613805231P00000000002            2  01056138052311052300000002541520000000001N010523000000000000000000000000000000000000000000000000000000000000000100005613843805NILZA MARIA DE OLIVEIRA                 RUA JOSE GONCALVES DE FREITAS - 66 C2 -             08210550                                                            000026
2SR. CAIXA, APOS O VENCIMENTO COBRAR 2% DE MULTA                                 NAO RECEBER APOS 30 DIAS DO VENCIMENTO.                                                                                                                                                                                                         01052300000000000000105230000000000000       009033990000627005613805231P000027
100000000000000000000009033990000627000000000000000000000000010002020007574905231P00000000002            2  01075749052311052300000002608810000000001N010523000000000000000000000000000000000000000000000000000000000000000100007574936889JORGE LUCIANO PEREIRA BORRIELLO         RUA JOSE CALIXTO DO CARMO - 286 AP.54 -             11702690                                                            000029
2SR. CAIXA, APOS O VENCIMENTO COBRAR 2% DE MULTA                                 NAO RECEBER APOS 30 DIAS DO VENCIMENTO.                                                                                                                                                                                                         01052300000000000000105230000000000000       009033990000627007574905231P000030
100000000000000000000009033990000627000000000000000000000000010002020008214905231200000000002            2  01082149052311052300000002648390000000001N010523000000000000000000000000000000000000000000000000000000000000000100008214973830JAMIL CHALA                             RUA JOSE CALIXTO DO CARMO - 286 AP.22 -             11702690                                                            000032
2SR. CAIXA, APOS O VENCIMENTO COBRAR 2% DE MULTA                                 NAO RECEBER APOS 30 DIAS DO VENCIMENTO.                                                                                                                                                                                                         01052300000000000000105230000000000000       0090339900006270082149052312000033
100000000000000000000009033990000627000000000000000000000000010002020032495005231P00000000002            2  01324950052311052300000002967860000000001N010523000000000000000000000000000000000000000000000000000000000000000100032495004881PAULO EDUARDO DOS SANTOS                RUA REPUBLICA DO IRAQUE - 1119 - CAMPO B            04611002                                                            000035
2SR. CAIXA, APOS O VENCIMENTO COBRAR 2% DE MULTA                                 NAO RECEBER APOS 30 DIAS DO VENCIMENTO.                                                                                                                                                                                                         01052300000000000000105230000000000000       009033990000627032495005231P000036
100000000000000000000009033990000627000000000000000000000000010002020016498005231700000000002            2  01164980052311052300000002602880000000001N010523000000000000000000000000000000000000000000000000000000000000000100016498053810GILMA CEZARIO GARCIA CORRITORI          RUA LAURENTINO XAVIER DOS SANTOS - 336 -            08240740                                                            000038
2SR. CAIXA, APOS O VENCIMENTO COBRAR 2% DE MULTA                                 NAO RECEBER APOS 30 DIAS DO VENCIMENTO.                                                                                                                                                                                                         01052300000000000000105230000000000000       0090339900006270164980052317000039
100000000000000000000009033990000627000000000000000000000000010002020029339005231600000000002            2  01293390052311052300000002783350000000001N010523000000000000000000000000000000000000000000000000000000000000000100029339051831RONALD DIDOFF                           RUA CORONEL FERREIRA BRAGA - 188 - VILA             03522010                                                            000041
2SR. CAIXA, APOS O VENCIMENTO COBRAR 2% DE MULTA                                 NAO RECEBER APOS 30 DIAS DO VENCIMENTO.                                                                                                                                                                                                         01052300000000000000105230000000000000       0090339900006270293390052316000042
100000000000000000000009033990000627000000000000000000000000010002020017357805231800000000002            2  01173578052311052300000002947810000000001N010523000000000000000000000000000000000000000000000000000000000000000100017357859894MARCIO GUIMARAES                        RUA GENERAL CAMARA - 188 SALA 11 - CENTR            11010120                                                            000044
2SR. CAIXA, APOS O VENCIMENTO COBRAR 2% DE MULTA                                 NAO RECEBER APOS 30 DIAS DO VENCIMENTO.                                                                                                                                                                                                         01052300000000000000105230000000000000       0090339900006270173578052318000045
100000000000000000000009033990000627000000000000000000000000010002020010563005231800000000002            2  01105630052311052300000003023170000000001N010523000000000000000000000000000000000000000000000000000000000000000100010563033878VERA LUCIA RIBEIRO LONGANEZI            RUA DOS CAMARES - 150 AP.24 BL.02 - CARA            02068030                                                            000047
2SR. CAIXA, APOS O VENCIMENTO COBRAR 2% DE MULTA                                 NAO RECEBER APOS 30 DIAS DO VENCIMENTO.                                                                                                                                                                                                         01052300000000000000105230000000000000       0090339900006270105630052318000048
100000000000000000000009033990000627000000000000000000000000010002020005529605231200000000002            2  01055296052311052300000002743410000000001N010523000000000000000000000000000000000000000000000000000000000000000100005529616801JOAQUIM JORGE DA COSTA                  RUA JOSE CALIXTO DO CARMO - 286 AP.106 -            11702690                                                            000050
2SR. CAIXA, APOS O VENCIMENTO COBRAR 2% DE MULTA                                 NAO RECEBER APOS 30 DIAS DO VENCIMENTO.                                                                                                                                                                                                         01052300000000000000105230000000000000       0090339900006270055296052312000051
100000000000000000000009033990000627000000000000000000000000010002020015550705231900000000002            2  01155507052309052300000002592660000000001N010523000000000000000000000000000000000000000000000000000000000000000100015550706806MARY MIWA                               RUA CARLOS JOSE BORSTENS - 50 AP.105 - A            11702750                                                            000053
2SR. CAIXA, APOS O VENCIMENTO COBRAR 2% DE MULTA                                 NAO RECEBER APOS 30 DIAS DO VENCIMENTO.                                                                                                                                                                                                         01052300000000000000105230000000000000       0090339900006270155507052319000054
100000000000000000000009033990000627000000000000000000000000010002020015464605231900000000002            2  01154646052311052300000002883980000000001N010523000000000000000000000000000000000000000000000000000000000000000100015464647864SONIA TERESA VOLPATO                    RUA JOSE CALIXTO DO CARMO - 286 AP.73 -             11702690                                                            000056
2SR. CAIXA, APOS O VENCIMENTO COBRAR 2% DE MULTA                                 NAO RECEBER APOS 30 DIAS DO VENCIMENTO.                                                                                                                                                                                                         01052300000000000000105230000000000000       0090339900006270154646052319000057
100000000000000000000009033990000627000000000000000000000000010002020008657805231800000000002            2  01086578052311052300000002855030000000001N010523000000000000000000000000000000000000000000000000000000000000000100008657886855ARLINDO DA CRUZ                         AVENIDA ARICANDUVA - 8.256 AP.54 BL.10 -            03951220                                                            000059
2SR. CAIXA, APOS O VENCIMENTO COBRAR 2% DE MULTA                                 NAO RECEBER APOS 30 DIAS DO VENCIMENTO.                                                                                                                                                                                                         01052300000000000000105230000000000000       0090339900006270086578052318000060
100000000000000000000009033990000627000000000000000000000000010002020059735105231600000000002            2  01597351052309052300000001613580000000001N010523000000000000000000000000000000000000000000000000000000000000000100059735180863HELIO JOSE MARQUES                      RUA MARTIM AFONSO DE SOUZA - 1007 AP.102            11702790                                                            000062
2SR. CAIXA, APOS O VENCIMENTO COBRAR 2% DE MULTA                                 NAO RECEBER APOS 30 DIAS DO VENCIMENTO.                                                                                                                                                                                                         01052300000000000000105230000000000000       0090339900006270597351052316000063
100000000000000000000009033990000627000000000000000000000000010002020026347805231P00000000002            2  01263478052311052300000003051940000000001N010523000000000000000000000000000000000000000000000000000000000000000100026347872862VALDECI SILVA MEIRELES                  RUA JOSE BATISTA DA SILVA - 292 - JARDIM            06851470                                                            000065
2SR. CAIXA, APOS O VENCIMENTO COBRAR 2% DE MULTA                                 NAO RECEBER APOS 30 DIAS DO VENCIMENTO.                                                                                                                                                                                                         01052300000000000000105230000000000000       009033990000627026347805231P000066
100000000000000000000009033990000627000000000000000000000000010002020013135205231000000000002            2  01131352052311052300000002803950000000001N010523000000000000000000000000000000000000000000000000000000000000000100013135261859EDUARDO ZANOLA                          RUA ROLANDO PIETRO BONINI - 46 - JARDIM             09781040                                                            000068
2SR. CAIXA, APOS O VENCIMENTO COBRAR 2% DE MULTA                                 NAO RECEBER APOS 30 DIAS DO VENCIMENTO.                                                                                                                                                                                                         01052300000000000000105230000000000000       0090339900006270131352052310000069
100000000000000000000009033990000627000000000000000000000000010002020009797605231100000000002            2  01097976052311052300000002730740000000001N010523000000000000000000000000000000000000000000000000000000000000000100009797626857RICARDO SOBRAL DE OLIVEIRA              RUA 23 DE MAIO - 139 AP.32 - VILA MIRIM             11704690                                                            000071
2SR. CAIXA, APOS O VENCIMENTO COBRAR 2% DE MULTA                                 NAO RECEBER APOS 30 DIAS DO VENCIMENTO.                                                                                                                                                                                                         01052300000000000000105230000000000000       0090339900006270097976052311000072
100000000000000000000009033990000627000000000000000000000000010002020022728405231200000000002            2  01227284052311052300000002954870000000001N010523000000000000000000000000000000000000000000000000000000000000000100022728497842WILLIAN DE SOUZA MELLO                  RUA JOSE CALIXTO DO CARMO - 286 AP.111 -            11702690                                                            000074
2SR. CAIXA, APOS O VENCIMENTO COBRAR 2% DE MULTA                                 NAO RECEBER APOS 30 DIAS DO VENCIMENTO.                                                                                                                                                                                                         01052300000000000000105230000000000000       0090339900006270227284052312000075
100000000000000000000009033990000627000000000000000000000000010002020016909705231700000000002            2  01169097052311052300000002611180000000001N010523000000000000000000000000000000000000000000000000000000000000000100016909746805EDIVALDO SANTANA DOS SANTOS             ESTRADA JOAO GASPAR DELGADO - 80 AP.213             08536100                                                            000077
2SR. CAIXA, APOS O VENCIMENTO COBRAR 2% DE MULTA                                 NAO RECEBER APOS 30 DIAS DO VENCIMENTO.                                                                                                                                                                                                         01052300000000000000105230000000000000       0090339900006270169097052317000078
100000000000000000000009033990000627000000000000000000000000010002020022036005231400000000002            2  01220360052309052300000004053010000000001N010523000000000000000000000000000000000000000000000000000000000000000100022036003818DERLIS TERAN QUIROGA ROGATO             RUA JOAO RIBEIRO - 320 AP.131SB - CAMPES            09070250                                                            000080
2SR. CAIXA, APOS O VENCIMENTO COBRAR 2% DE MULTA                                 NAO RECEBER APOS 30 DIAS DO VENCIMENTO.                                                                                                                                                                                                         01052300000000000000105230000000000000       0090339900006270220360052314000081
100000000000000000000009033990000627000000000000000000000000010002020017229705233900000000002            2  01172297052309052300000003911510000000001N010523000000000000000000000000000000000000000000000000000000000000000100017229751802BERENICE VIEIRA KERSTING                RUA ATIBAIA - 17 AP.417 - BAIRRO IMPERAD            11707380                                                            000083
2SR. CAIXA, APOS O VENCIMENTO COBRAR 2% DE MULTA                                 NAO RECEBER APOS 30 DIAS DO VENCIMENTO.                                                                                                                                                                                                         01052300000000000000105230000000000000       0090339900006270172297052339000084
100000000000000000000009033990000627000000000000000000000000010002020012475605231800000000002            2  01124756052311052300000002830400000000001N010523000000000000000000000000000000000000000000000000000000000000000100012475663820CELIDALVA GOES DE CARVALHO              RUA JOSE CALIXTO DO CARMO - 286 AP.91 -             11702690                                                            000086
2SR. CAIXA, APOS O VENCIMENTO COBRAR 2% DE MULTA                                 NAO RECEBER APOS 30 DIAS DO VENCIMENTO.                                                                                                                                                                                                         01052300000000000000105230000000000000       0090339900006270124756052318000087
100000000000000000000009033990000627000000000000000000000000010002020033451605231500000000002            2  01334516052311052300000002363560000000001N010523000000000000000000000000000000000000000000000000000000000000000100033451620839ARAO ELISIARIO  NUNES                   RUA JOSE CALIXTO DO CARMO - 286 AP.64 -             11702690                                                            000089
2SR. CAIXA, APOS O VENCIMENTO COBRAR 2% DE MULTA                                 NAO RECEBER APOS 30 DIAS DO VENCIMENTO.                                                                                                                                                                                                         01052300000000000000105230000000000000       0090339900006270334516052315000090
100000000000000000000009033990000627000000000000000000000000010002020011369105231300000000002            2  01113691052311052300000002581910000000001N010523000000000000000000000000000000000000000000000000000000000000000100011369165803ELIANA CORREA DE OLIVEIRA               RUA MAESTRO ZEFERINO SANTANA - 65 - VILA            18040010                                                            000092
2SR. CAIXA, APOS O VENCIMENTO COBRAR 2% DE MULTA                                 NAO RECEBER APOS 30 DIAS DO VENCIMENTO.                                                                                                                                                                                                         01052300000000000000105230000000000000       0090339900006270113691052313000093
100000000000000000000009033990000627000000000000000000000000010002020002253805231700000000002            2  01022538052311052300000002294800000000001N010523000000000000000000000000000000000000000000000000000000000000000100002253816809EDMILSON ALVES DA SILVA                 RUA JOSE CALIXTO DO CARMO - 286 AP.93 -             11702690                                                            000095
2SR. CAIXA, APOS O VENCIMENTO COBRAR 2% DE MULTA                                 NAO RECEBER APOS 30 DIAS DO VENCIMENTO.                                                                                                                                                                                                         01052300000000000000105230000000000000       0090339900006270022538052317000096
100000000000000000000009033990000627000000000000000000000000010002020037947005231900000000002            2  01379470052311052300000004075730000000001N010523000000000000000000000000000000000000000000000000000000000000000100037947070873BRUNO DE CAETANO MARRINHAS              AVENIDA GENERAL BARRETO DE MENEZES - 323            09791150                                                            000098
2SR. CAIXA, APOS O VENCIMENTO COBRAR 2% DE MULTA                                 NAO RECEBER APOS 30 DIAS DO VENCIMENTO.                                                                                                                                                                                                         01052300000000000000105230000000000000       0090339900006270379470052319000099
100000000000000000000009033990000627000000000000000000000000010002020037517705231700000000002            2  01375177052309052300000004298870000000001N010523000000000000000000000000000000000000000000000000000000000000000100037517785869RENATO JOSE DE LIMA MELO                RUA ARISTIDES LOBO - 148 AP.41 BLOCO 03             03041100                                                            000101
2SR. CAIXA, APOS O VENCIMENTO COBRAR 2% DE MULTA                                 NAO RECEBER APOS 30 DIAS DO VENCIMENTO.                                                                                                                                                                                                         01052300000000000000105230000000000000       0090339900006270375177052317000102
100000000000000000000009033990000627000000000000000000000000010002020070367905231800000000002            2  01703679052311052300000002154970000000001N010523000000000000000000000000000000000000000000000000000000000000000100070367949849TEODOMIRO ALVES DOS SANTOS              RUA ANDRE PAZ - 13 - JARDIM SANTO ANDRE             08390230                                                            000104
2SR. CAIXA, APOS O VENCIMENTO COBRAR 2% DE MULTA                                 NAO RECEBER APOS 30 DIAS DO VENCIMENTO.                                                                                                                                                                                                         01052300000000000000105230000000000000       0090339900006270703679052318000105
100000000000000000000009033990000627000000000000000000000000010002020004410805231700000000002            2  01044108052309052300000003194110000000001N010523000000000000000000000000000000000000000000000000000000000000000100004410802860LUIZ ALBERTO MARINHO                    RUA DA INDEPENDENCIA - 706 AP.41B - CAMB            01524000                                                            000107
2SR. CAIXA, APOS O VENCIMENTO COBRAR 2% DE MULTA                                 NAO RECEBER APOS 30 DIAS DO VENCIMENTO.                                                                                                                                                                                                         01052300000000000000105230000000000000       0090339900006270044108052317000108
100000000000000000000009033990000627000000000000000000000000010002020004767605231200000000002            2  01047676052309052300000004264030000000001N010523000000000000000000000000000000000000000000000000000000000000000100004767679893ORLANDO GRANDE FILHO                    RUA ORLANDO MIGLIARI - 101 - JARDIM OURO            19906140                                                            000110
2SR. CAIXA, APOS O VENCIMENTO COBRAR 2% DE MULTA                                 NAO RECEBER APOS 30 DIAS DO VENCIMENTO.                                                                                                                                                                                                         01052300000000000000105230000000000000       0090339900006270047676052312000111
100000000000000000000009033990000627000000000000000000000000010002020064677805231800000000002            2  01646778052309052300000003430090000000001N010523000000000000000000000000000000000000000000000000000000000000000100064677850887ANTONIO CARLOS DE OLIVEIRA              RUA DR.ANTONIO MAZILLI FILHO - 435 - PAR            02230070                                                            000113
2SR. CAIXA, APOS O VENCIMENTO COBRAR 2% DE MULTA                                 NAO RECEBER APOS 30 DIAS DO VENCIMENTO.                                                                                                                                                                                                         01052300000000000000105230000000000000       0090339900006270646778052318000114
100000000000000000000009033990000627000000000000000000000000010002020007328905231300000000002            2  01073289052309052300000004184930000000001N010523000000000000000000000000000000000000000000000000000000000000000100007328927836BENEDITO APARECIDO ROCHA                AVENIDA SENADOR JOSE ERMINIO DE MORAES -            02357002                                                            000116
2SR. CAIXA, APOS O VENCIMENTO COBRAR 2% DE MULTA                                 NAO RECEBER APOS 30 DIAS DO VENCIMENTO.                                                                                                                                                                                                         01052300000000000000105230000000000000       0090339900006270073289052313000117
100000000000000000000009033990000627000000000000000000000000010002020028082605231200000000002            2  01280826052311052300000002392530000000001N010523000000000000000000000000000000000000000000000000000000000000000100028082615869PRISCILA PEREIRA                        ALAMEDA AFONSO BOCCHIGLIERI - 184 - INTE            04445130                                                            000119
2SR. CAIXA, APOS O VENCIMENTO COBRAR 2% DE MULTA                                 NAO RECEBER APOS 30 DIAS DO VENCIMENTO.                                                                                                                                                                                                         01052300000000000000105230000000000000       0090339900006270280826052312000120
100000000000000000000009033990000627000000000000000000000000010002020058488605231000000000002            2  01584886052309052300000003128510000000001N010523000000000000000000000000000000000000000000000000000000000000000100058488618972ADAILTON ZANUTTO MORESCHI               R:RAPHAEL UNGARO - COND.RESERVA SERRA Q.            13212138                                                            000122
2SR. CAIXA, APOS O VENCIMENTO COBRAR 2% DE MULTA                                 NAO RECEBER APOS 30 DIAS DO VENCIMENTO.                                                                                                                                                                                                         01052300000000000000105230000000000000       0090339900006270584886052310000123
100000000000000000000009033990000627000000000000000000000000010002020002196005231500000000002            2  01021960052311052300000002353460000000001N010523000000000000000000000000000000000000000000000000000000000000000100002196012831VILEFORT DIAS BORGES                    RUA PORTO XAVIER - 189 AP.64 - VILA CARM            08210170                                                            000125
2SR. CAIXA, APOS O VENCIMENTO COBRAR 2% DE MULTA                                 NAO RECEBER APOS 30 DIAS DO VENCIMENTO.                                                                                                                                                                                                         01052300000000000000105230000000000000       0090339900006270021960052315000126
100000000000000000000009033990000627000000000000000000000000010002020031861505231300000000002            2  01318615052311052300000002446140000000001N010523000000000000000000000000000000000000000000000000000000000000000100031861586809VANIA TOMAZ                              -  -  -  -                                         00000000                                                            000128
2SR. CAIXA, APOS O VENCIMENTO COBRAR 2% DE MULTA                                 NAO RECEBER APOS 30 DIAS DO VENCIMENTO.                                                                                                                                                                                                         01052300000000000000105230000000000000       0090339900006270318615052313000129
100000000000000000000009033990000627000000000000000000000000010002020003104505231700000000002            2  01031045052309052300000009106980000000001N010523000000000000000000000000000000000000000000000000000000000000000100003104580804NELSON RODRIGUES                        RUA CARLOS JOSE BORSTENS - 50 AP.81 - AV            11702750                                                            000131
2SR. CAIXA, APOS O VENCIMENTO COBRAR 2% DE MULTA                                 NAO RECEBER APOS 30 DIAS DO VENCIMENTO.                                                                                                                                                                                                         01052300000000000000105230000000000000       0090339900006270031045052317000132
100000000000000000000009033990000627000000000000000000000000010002020007715305231500000000002            2  01077153052309052300000003847700000000001N010523000000000000000000000000000000000000000000000000000000000000000100007715360627NILTON RENNAN OLIVEIRA GOMES FILHO      RUA CARLOS JOSE BORSTENS - 50 AP.21 - AV            11702750                                                            000134
2SR. CAIXA, APOS O VENCIMENTO COBRAR 2% DE MULTA                                 NAO RECEBER APOS 30 DIAS DO VENCIMENTO.                                                                                                                                                                                                         01052300000000000000105230000000000000       0090339900006270077153052315000135
100000000000000000000009033990000627000000000000000000000000010002020007194005231600000000002            2  01071940052311052300000002735380000000001N010523000000000000000000000000000000000000000000000000000000000000000100007194010895RAUL AMANTINO KIRK DE SANCTIS           AVENIDA SANTA CATARINA - 756 AP.01 - VIL            04378000                                                            000137
2SR. CAIXA, APOS O VENCIMENTO COBRAR 2% DE MULTA                                 NAO RECEBER APOS 30 DIAS DO VENCIMENTO.                                                                                                                                                                                                         01052300000000000000105230000000000000       0090339900006270071940052316000138
100000000000000000000009033990000627000000000000000000000000010002020025738605231300000000002            2  01257386052309052300000005526130000000001N010523000000000000000000000000000000000000000000000000000000000000000100025738614810VILMAR JOSE PEREIRA                     ALAMEDA TIETE - 646 - CERQUEIRA CESAR -             01417020                                                            000140
2SR. CAIXA, APOS O VENCIMENTO COBRAR 2% DE MULTA                                 NAO RECEBER APOS 30 DIAS DO VENCIMENTO.                                                                                                                                                                                                         01052300000000000000105230000000000000       0090339900006270257386052313000141
100000000000000000000009033990000627000000000000000000000000010002020025738605232100000000002            2  01257386052309052300000005526100000000001N010523000000000000000000000000000000000000000000000000000000000000000100025738614810VILMAR JOSE PEREIRA                     ALAMEDA TIETE - 646 - CERQUEIRA CESAR -             01417020                                                            000143
2SR. CAIXA, APOS O VENCIMENTO COBRAR 2% DE MULTA                                 NAO RECEBER APOS 30 DIAS DO VENCIMENTO.                                                                                                                                                                                                         01052300000000000000105230000000000000       0090339900006270257386052321000144
100000000000000000000009033990000627000000000000000000000000010002020025738605233P00000000002            2  01257386052309052300000005526110000000001N010523000000000000000000000000000000000000000000000000000000000000000100025738614810VILMAR JOSE PEREIRA                     ALAMEDA TIETE - 646 - CERQUEIRA CESAR -             01417020                                                            000146
2SR. CAIXA, APOS O VENCIMENTO COBRAR 2% DE MULTA                                 NAO RECEBER APOS 30 DIAS DO VENCIMENTO.                                                                                                                                                                                                         01052300000000000000105230000000000000       009033990000627025738605233P000147
100000000000000000000009033990000627000000000000000000000000010002020025738605234800000000002            2  01257386052309052300000005526120000000001N010523000000000000000000000000000000000000000000000000000000000000000100025738614810VILMAR JOSE PEREIRA                     ALAMEDA TIETE - 646 - CERQUEIRA CESAR -             01417020                                                            000149
2SR. CAIXA, APOS O VENCIMENTO COBRAR 2% DE MULTA                                 NAO RECEBER APOS 30 DIAS DO VENCIMENTO.                                                                                                                                                                                                         01052300000000000000105230000000000000       0090339900006270257386052348000150
100000000000000000000009033990000627000000000000000000000000010002020011141505231500000000002            2  01111415052311052300000002874390000000001N010523000000000000000000000000000000000000000000000000000000000000000100011141508869PAULO ROBERTO TUNES SILVA               RUA PETROBRAS - 405 CASA 07 - VILA ANTON            03474060                                                            000152
2SR. CAIXA, APOS O VENCIMENTO COBRAR 2% DE MULTA                                 NAO RECEBER APOS 30 DIAS DO VENCIMENTO.                                                                                                                                                                                                         01052300000000000000105230000000000000       0090339900006270111415052315000153
100000000000000000000009033990000627000000000000000000000000010002020012449105231000000000002            2  01124491052311052300000002896330000000001N010523000000000000000000000000000000000000000000000000000000000000000100012449104810GILBERTO DOS SANTOS JUNIOR              RUA ALMIRANTE TAMANDARE - 89 AP.143 - BA            09310350                                                            000155
2SR. CAIXA, APOS O VENCIMENTO COBRAR 2% DE MULTA                                 NAO RECEBER APOS 30 DIAS DO VENCIMENTO.                                                                                                                                                                                                         01052300000000000000105230000000000000       0090339900006270124491052310000156
100000000000000000000009033990000627000000000000000000000000010002020011261305231900000000002            2  01112613052309052300000003820160000000001N010523000000000000000000000000000000000000000000000000000000000000000100011261359844JOVANETE DOS SANTOS PASSOS              RUA FULVIO MORGANTI - 672 - JARDIM PARAI            02417170                                                            000158
2SR. CAIXA, APOS O VENCIMENTO COBRAR 2% DE MULTA                                 NAO RECEBER APOS 30 DIAS DO VENCIMENTO.                                                                                                                                                                                                         01052300000000000000105230000000000000       0090339900006270112613052319000159
100000000000000000000009033990000627000000000000000000000000010002020036279305231800000000002            2  01362793052309052300000003395880000000001N010523000000000000000000000000000000000000000000000000000000000000000100036279398838BRUNO DOCINI ORTEGA                     RUA GENERAL EUCLIDES FIGUEIREDO - 146 AP            11700780                                                            000161
2SR. CAIXA, APOS O VENCIMENTO COBRAR 2% DE MULTA                                 NAO RECEBER APOS 30 DIAS DO VENCIMENTO.                                                                                                                                                                                                         01052300000000000000105230000000000000       0090339900006270362793052318000162
100000000000000000000009033990000627000000000000000000000000010002020008475105231800000000002            2  01084751052309052300000003827260000000001N010523000000000000000000000000000000000000000000000000000000000000000100008475110819HELENA ROSA DOS SANTOS                  AVENIDA ZELIA - 278 CASA 02 - PARQUE DOS            06436000                                                            000164
2SR. CAIXA, APOS O VENCIMENTO COBRAR 2% DE MULTA                                 NAO RECEBER APOS 30 DIAS DO VENCIMENTO.                                                                                                                                                                                                         01052300000000000000105230000000000000       0090339900006270084751052318000165
9                                                                                                                                                                                                                                                                                                                                                                                                         000166