01REMESSA01COBRANCA       00000000000008017025HB SANTOS CONSTRUTORA E INCORP237BRADESCO       130519        MX0000079                                                                                                                                                                                                                                                                                     000001
100000000000000000000009033990000627000000000000000000000000010002020025035105191300000000002            2  01250351051924051900000002044910000000001N100519000000000000000000000000000000000000000000000000000000000000000100025035170802WANDERSON LUIS DE CARVALHO              RUA JOAQUIM GONCALVES ROCHA - 302 - JARD            02859030                                                            000002
2SR. CAIXA, APOS O VENCIMENTO COBRAR 2% DE MULTA                                 NAO RECEBER APOS 30 DIAS DO VENCIMENTO.                                                                                                                                                                                                         13051900000000000001305190000000000000       0090339900006270250351051913000003
100000000000000000000009033990000627000000000000000000000000010002020007294305191000000000002            2  01072943051924051900000002750440000000001N100519000000000000000000000000000000000000000000000000000000000000000100007294351805CLAUDENIR APARECIDO VACARI              RUA CARLOS JOSE BORSTENS - 50 AP.93 - AV            11702750                                                            000005
2SR. CAIXA, APOS O VENCIMENTO COBRAR 2% DE MULTA                                 NAO RECEBER APOS 30 DIAS DO VENCIMENTO.                                                                                                                                                                                                         13051900000000000001305190000000000000       0090339900006270072943051910000006
100000000000000000000009033990000627000000000000000000000000010002020042976105191000000000002            2  01429761051924051900000002779310000000001N100519000000000000000000000000000000000000000000000000000000000000000100042976111634ACACIO TOSCANO BONDANCA                 RUA COMENDADOR JACOMO ANTONIO LA SELVA -            12946797                                                            000008
2SR. CAIXA, APOS O VENCIMENTO COBRAR 2% DE MULTA                                 NAO RECEBER APOS 30 DIAS DO VENCIMENTO.                                                                                                                                                                                                         13051900000000000001305190000000000000       0090339900006270429761051910000009
100000000000000000000009033990000627000000000000000000000000010002020035438005191400000000002            2  01354380051924051900000002347260000000001N100519000000000000000000000000000000000000000000000000000000000000000100035438022836ALESSANDRO FARACO DOS SANTOS            RUA PEDRO POMAR  - 145 - JARDIM ELISA MA            02875020                                                            000011
2SR. CAIXA, APOS O VENCIMENTO COBRAR 2% DE MULTA                                 NAO RECEBER APOS 30 DIAS DO VENCIMENTO.                                                                                                                                                                                                         13051900000000000001305190000000000000       0090339900006270354380051914000012
100000000000000000000009033990000627000000000000000000000000010002020007525005191600000000002            2  01075250051924051900000003076480000000001N100519000000000000000000000000000000000000000000000000000000000000000100007525032866FERNANDO RIBEIRO                        RUA ALDO COLI - 539 - VILA MIRIM - PRAIA            11704760                                                            000014
2SR. CAIXA, APOS O VENCIMENTO COBRAR 2% DE MULTA                                 NAO RECEBER APOS 30 DIAS DO VENCIMENTO.                                                                                                                                                                                                         13051900000000000001305190000000000000       0090339900006270075250051916000015
100000000000000000000009033990000627000000000000000000000000010002020005071405191100000000002            2  01050714051924051900000002698660000000001N100519000000000000000000000000000000000000000000000000000000000000000100005071481855ERIBALDO SANTANA CARVALHO               RUA HONDURAS - 477 - PARQUE DAS AMERICAS            09351070                                                            000017
2SR. CAIXA, APOS O VENCIMENTO COBRAR 2% DE MULTA                                 NAO RECEBER APOS 30 DIAS DO VENCIMENTO.                                                                                                                                                                                                         13051900000000000001305190000000000000       0090339900006270050714051911000018
100000000000000000000009033990000627000000000000000000000000010002020002841705191500000000002            2  01028417051924051900000002524850000000001N100519000000000000000000000000000000000000000000000000000000000000000100002841756416LUCIANA PINHEIRO DE ASSIS NUNES         RUA RIO ACIMA - 81 - RIACHO GRANDE - SAO            09830100                                                            000020
2SR. CAIXA, APOS O VENCIMENTO COBRAR 2% DE MULTA                                 NAO RECEBER APOS 30 DIAS DO VENCIMENTO.                                                                                                                                                                                                         13051900000000000001305190000000000000       0090339900006270028417051915000021
100000000000000000000009033990000627000000000000000000000000010002020084302005191400000000002            2  01843020051924051900000002536960000000001N100519000000000000000000000000000000000000000000000000000000000000000100084302097868FAUSTO TADEU VILOR                      RUA ANTONIO TAVARES - 466 - BAIRRO CAMBU            01542010                                                            000023
2SR. CAIXA, APOS O VENCIMENTO COBRAR 2% DE MULTA                                 NAO RECEBER APOS 30 DIAS DO VENCIMENTO.                                                                                                                                                                                                         13051900000000000001305190000000000000       0090339900006270843020051914000024
100000000000000000000009033990000627000000000000000000000000010002020028804205191400000000002            2  01288042051924051900000002492580000000001N100519000000000000000000000000000000000000000000000000000000000000000100028804202882GILBERTO FABIANO CABRAL DE CAMARGO      RUA CARLOS JOSE BORSTENS - 50 AP.44 - AV            11702750                                                            000026
2SR. CAIXA, APOS O VENCIMENTO COBRAR 2% DE MULTA                                 NAO RECEBER APOS 30 DIAS DO VENCIMENTO.                                                                                                                                                                                                         13051900000000000001305190000000000000       0090339900006270288042051914000027
100000000000000000000009033990000627000000000000000000000000010002020000991705191700000000002            2  01009917051924051900000002432850000000001N100519000000000000000000000000000000000000000000000000000000000000000100000991748808JAILSON BORGES DE ANDRADE               RUA IPIOBUNA - 45 - JARDIM CUMBICA - GUA            07240040                                                            000029
2SR. CAIXA, APOS O VENCIMENTO COBRAR 2% DE MULTA                                 NAO RECEBER APOS 30 DIAS DO VENCIMENTO.                                                                                                                                                                                                         13051900000000000001305190000000000000       0090339900006270009917051917000030
100000000000000000000009033990000627000000000000000000000000010002020092180205191400000000002            2  01921802051924051900000003316900000000001N100519000000000000000000000000000000000000000000000000000000000000000100092180299834LUIS ROBERTO DE SA DUARTE               RUA TEBAS - 296 AP.84 BLOCO 2 CE - JARDI            04634031                                                            000032
2SR. CAIXA, APOS O VENCIMENTO COBRAR 2% DE MULTA                                 NAO RECEBER APOS 30 DIAS DO VENCIMENTO.                                                                                                                                                                                                         13051900000000000001305190000000000000       0090339900006270921802051914000033
100000000000000000000009033990000627000000000000000000000000010002020092180205192200000000002            2  01921802051931051900000003316880000000001N100519000000000000000000000000000000000000000000000000000000000000000100092180299834LUIS ROBERTO DE SA DUARTE               RUA TEBAS - 296 AP.84 BLOCO 2 CE - JARDI            04634031                                                            000035
2SR. CAIXA, APOS O VENCIMENTO COBRAR 2% DE MULTA                                 NAO RECEBER APOS 30 DIAS DO VENCIMENTO.                                                                                                                                                                                                         13051900000000000001305190000000000000       0090339900006270921802051922000036
100000000000000000000009033990000627000000000000000000000000010002020092180205193000000000002            2  01921802051931051900000003316860000000001N100519000000000000000000000000000000000000000000000000000000000000000100092180299834LUIS ROBERTO DE SA DUARTE               RUA TEBAS - 296 AP.84 BLOCO 2 CE - JARDI            04634031                                                            000038
2SR. CAIXA, APOS O VENCIMENTO COBRAR 2% DE MULTA                                 NAO RECEBER APOS 30 DIAS DO VENCIMENTO.                                                                                                                                                                                                         13051900000000000001305190000000000000       0090339900006270921802051930000039
100000000000000000000009033990000627000000000000000000000000010002020092180205194900000000002            2  01921802051931051900000003316840000000001N100519000000000000000000000000000000000000000000000000000000000000000100092180299834LUIS ROBERTO DE SA DUARTE               RUA TEBAS - 296 AP.84 BLOCO 2 CE - JARDI            04634031                                                            000041
2SR. CAIXA, APOS O VENCIMENTO COBRAR 2% DE MULTA                                 NAO RECEBER APOS 30 DIAS DO VENCIMENTO.                                                                                                                                                                                                         13051900000000000001305190000000000000       0090339900006270921802051949000042
100000000000000000000009033990000627000000000000000000000000010002020092180205195700000000002            2  01921802051931051900000003316820000000001N100519000000000000000000000000000000000000000000000000000000000000000100092180299834LUIS ROBERTO DE SA DUARTE               RUA TEBAS - 296 AP.84 BLOCO 2 CE - JARDI            04634031                                                            000044
2SR. CAIXA, APOS O VENCIMENTO COBRAR 2% DE MULTA                                 NAO RECEBER APOS 30 DIAS DO VENCIMENTO.                                                                                                                                                                                                         13051900000000000001305190000000000000       0090339900006270921802051957000045
100000000000000000000009033990000627000000000000000000000000010002020092180205196500000000002            2  01921802051931051900000003316800000000001N100519000000000000000000000000000000000000000000000000000000000000000100092180299834LUIS ROBERTO DE SA DUARTE               RUA TEBAS - 296 AP.84 BLOCO 2 CE - JARDI            04634031                                                            000047
2SR. CAIXA, APOS O VENCIMENTO COBRAR 2% DE MULTA                                 NAO RECEBER APOS 30 DIAS DO VENCIMENTO.                                                                                                                                                                                                         13051900000000000001305190000000000000       0090339900006270921802051965000048
100000000000000000000009033990000627000000000000000000000000010002020022151605191300000000002            2  01221516051924051900000002418750000000001N100519000000000000000000000000000000000000000000000000000000000000000100022151666816SAMIR LIMA DE ARAUJO                    AVENIDA GUARAPIRANGA - 2616 AP.42 BLOCO1            04902005                                                            000050
2SR. CAIXA, APOS O VENCIMENTO COBRAR 2% DE MULTA                                 NAO RECEBER APOS 30 DIAS DO VENCIMENTO.                                                                                                                                                                                                         13051900000000000001305190000000000000       0090339900006270221516051913000051
100000000000000000000009033990000627000000000000000000000000010002020022313105191500000000002            2  01223131051926051900000001860590000000001N100519000000000000000000000000000000000000000000000000000000000000000100022313116824ROSA MARIA BRITO DA SILVA               RUA SERVIDAO DE SAO MARCOS - 113 - JARDI            04930300                                                            000053
2SR. CAIXA, APOS O VENCIMENTO COBRAR 2% DE MULTA                                 NAO RECEBER APOS 30 DIAS DO VENCIMENTO.                                                                                                                                                                                                         13051900000000000001305190000000000000       0090339900006270223131051915000054
100000000000000000000009033990000627000000000000000000000000010002020027538005191700000000002            2  01275380051926051900000001867070000000001N100519000000000000000000000000000000000000000000000000000000000000000100027538087249MARA LUCIA MENEZES DA COSTA             RUA LEILA  - 183 - ITAQUERA - SAO PAULO             08240020                                                            000056
2SR. CAIXA, APOS O VENCIMENTO COBRAR 2% DE MULTA                                 NAO RECEBER APOS 30 DIAS DO VENCIMENTO.                                                                                                                                                                                                         13051900000000000001305190000000000000       0090339900006270275380051917000057
100000000000000000000009033990000627000000000000000000000000010002020031278405191300000000002            2  01312784051924051900000002336560000000001N100519000000000000000000000000000000000000000000000000000000000000000100031278411836JEFFERSON DE PIERI PIRES ZAMUNER        RUA MANOEL ARCE - 277 - PARQUE BANCARIO             03922150                                                            000059
2SR. CAIXA, APOS O VENCIMENTO COBRAR 2% DE MULTA                                 NAO RECEBER APOS 30 DIAS DO VENCIMENTO.                                                                                                                                                                                                         13051900000000000001305190000000000000       0090339900006270312784051913000060
100000000000000000000009033990000627000000000000000000000000010002020019185705191500000000002            2  01191857051926051900000001699070000000001N100519000000000000000000000000000000000000000000000000000000000000000100019185769800AGUINALDO PESSOA DE LIMA                RUA JANUARIO ZINGARO - 252 AP.303 BL.04             05794300                                                            000062
2SR. CAIXA, APOS O VENCIMENTO COBRAR 2% DE MULTA                                 NAO RECEBER APOS 30 DIAS DO VENCIMENTO.                                                                                                                                                                                                         13051900000000000001305190000000000000       0090339900006270191857051915000063
100000000000000000000009033990000627000000000000000000000000010002020033303605191600000000002            2  01333036051926051900000001830050000000001N100519000000000000000000000000000000000000000000000000000000000000000100033303645809JESSICA DA SILVA FREITAS                RUA ARILDO VALADAO - 120 - JARDIM GUAEMB            04814600                                                            000065
2SR. CAIXA, APOS O VENCIMENTO COBRAR 2% DE MULTA                                 NAO RECEBER APOS 30 DIAS DO VENCIMENTO.                                                                                                                                                                                                         13051900000000000001305190000000000000       0090339900006270333036051916000066
100000000000000000000009033990000627000000000000000000000000010002020004824405191500000000002            2  01048244051926051900000001844530000000001N100519000000000000000000000000000000000000000000000000000000000000000100004824443806ROSIMEIRE CLARA FERREIRA REZENDE        RUA JOAQUIM DE OLIVEIRA FREITAS - 912 AP            05133000                                                            000068
2SR. CAIXA, APOS O VENCIMENTO COBRAR 2% DE MULTA                                 NAO RECEBER APOS 30 DIAS DO VENCIMENTO.                                                                                                                                                                                                         13051900000000000001305190000000000000       0090339900006270048244051915000069
100000000000000000000009033990000627000000000000000000000000010002020006422605191100000000002            2  01064226051924051900000002530560000000001N100519000000000000000000000000000000000000000000000000000000000000000100006422607881GERALDO ALVES DA SILVA                  RUA CARLOS JOSE BORSTENS - 50 AP.14 - AV            11702750                                                            000071
2SR. CAIXA, APOS O VENCIMENTO COBRAR 2% DE MULTA                                 NAO RECEBER APOS 30 DIAS DO VENCIMENTO.                                                                                                                                                                                                         13051900000000000001305190000000000000       0090339900006270064226051911000072
100000000000000000000009033990000627000000000000000000000000010002020033877105191300000000002            2  01338771051926051900000001715730000000001N100519000000000000000000000000000000000000000000000000000000000000000100033877129870HELDER FERREIRA VIANA                   RUA TUPI - 254 - VILA TUPI - PRAIA GRAND            11703260                                                            000074
2SR. CAIXA, APOS O VENCIMENTO COBRAR 2% DE MULTA                                 NAO RECEBER APOS 30 DIAS DO VENCIMENTO.                                                                                                                                                                                                         13051900000000000001305190000000000000       0090339900006270338771051913000075
100000000000000000000009033990000627000000000000000000000000010002020028290705191700000000002            2  01282907051926051900000001581250000000001N100519000000000000000000000000000000000000000000000000000000000000000100028290719809VANESSA GIANGARRELLI PEREIRA            RUA BARINEL - 72 - JARDIM COTCHING - SAO            03462130                                                            000077
2SR. CAIXA, APOS O VENCIMENTO COBRAR 2% DE MULTA                                 NAO RECEBER APOS 30 DIAS DO VENCIMENTO.                                                                                                                                                                                                         13051900000000000001305190000000000000       0090339900006270282907051917000078
100000000000000000000009033990000627000000000000000000000000010002020087573005191200000000002            2  01875730051926051900000001726720000000001N100519000000000000000000000000000000000000000000000000000000000000000100087573059604VANDERLEY DE ASSIS                      RUA ROMEU ALBANI - 268 - JARDIM PARQUE R            13803810                                                            000080
2SR. CAIXA, APOS O VENCIMENTO COBRAR 2% DE MULTA                                 NAO RECEBER APOS 30 DIAS DO VENCIMENTO.                                                                                                                                                                                                         13051900000000000001305190000000000000       0090339900006270875730051912000081
100000000000000000000009033990000627000000000000000000000000010002020010825505191P00000000002            2  01108255051926051900000001801940000000001N100519000000000000000000000000000000000000000000000000000000000000000100010825513847JOSE APARECIDO PEREIRA                  RUA GENERAL OSORIO - 305 - JARDIM TRINTA            11515130                                                            000083
2SR. CAIXA, APOS O VENCIMENTO COBRAR 2% DE MULTA                                 NAO RECEBER APOS 30 DIAS DO VENCIMENTO.                                                                                                                                                                                                         13051900000000000001305190000000000000       009033990000627010825505191P000084
100000000000000000000009033990000627000000000000000000000000010002020038818505191P00000000002            2  01388185051926051900000001832730000000001N100519000000000000000000000000000000000000000000000000000000000000000100038818572814MAURICIUS ALEXANDRE ESTEVAM NABOR       RUA RAUL SERAPIAO BARROSO - 379 - ESPLAN            11340330                                                            000086
2SR. CAIXA, APOS O VENCIMENTO COBRAR 2% DE MULTA                                 NAO RECEBER APOS 30 DIAS DO VENCIMENTO.                                                                                                                                                                                                         13051900000000000001305190000000000000       009033990000627038818505191P000087
100000000000000000000009033990000627000000000000000000000000010002020039115105191100000000002            2  01391151051926051900000002221190000000001N100519000000000000000000000000000000000000000000000000000000000000000100039115139840LAIS CRISTINA RIBEIRO ANDO              RUA PERU - 769 AP.17 - VILA GUILHERMINA             11702250                                                            000089
2SR. CAIXA, APOS O VENCIMENTO COBRAR 2% DE MULTA                                 NAO RECEBER APOS 30 DIAS DO VENCIMENTO.                                                                                                                                                                                                         13051900000000000001305190000000000000       0090339900006270391151051911000090
100000000000000000000009033990000627000000000000000000000000010002020029617505191P00000000002            2  01296175051924051900000002483830000000001N100519000000000000000000000000000000000000000000000000000000000000000100029617510553MARILENE SOUZA DE OLIVEIRA              AVENIDA BRASIL - 393 AP.09 - PARQUE DAS             09210280                                                            000092
2SR. CAIXA, APOS O VENCIMENTO COBRAR 2% DE MULTA                                 NAO RECEBER APOS 30 DIAS DO VENCIMENTO.                                                                                                                                                                                                         13051900000000000001305190000000000000       009033990000627029617505191P000093
100000000000000000000009033990000627000000000000000000000000010002020000593205191P00000000002            2  01005932051924051900000002724150000000001N100519000000000000000000000000000000000000000000000000000000000000000100000593293860WALTER HELIO BARBOSA FILHO              AVENIDA ANTONIO FREDERICO OZANAN - 9500             13214206                                                            000095
2SR. CAIXA, APOS O VENCIMENTO COBRAR 2% DE MULTA                                 NAO RECEBER APOS 30 DIAS DO VENCIMENTO.                                                                                                                                                                                                         13051900000000000001305190000000000000       009033990000627000593205191P000096
100000000000000000000009033990000627000000000000000000000000010002020007730005191500000000002            2  01077300051924051900000003874000000000001N100519000000000000000000000000000000000000000000000000000000000000000100007730084899ARNALDO LUIZ VONO                       RUA CARLOS JOSE BORSTENS - 50 AP.122 - A            11702750                                                            000098
2SR. CAIXA, APOS O VENCIMENTO COBRAR 2% DE MULTA                                 NAO RECEBER APOS 30 DIAS DO VENCIMENTO.                                                                                                                                                                                                         13051900000000000001305190000000000000       0090339900006270077300051915000099
100000000000000000000009033990000627000000000000000000000000010002020065584105191100000000002            2  01655841051924051900000001430010000000001N100519000000000000000000000000000000000000000000000000000000000000000100065584147834JOAQUIM DA COSTA MACHADO NETO           RUA CARLOS JOSE BORSTENS - 50 AP.42 - AV            11702750                                                            000101
2SR. CAIXA, APOS O VENCIMENTO COBRAR 2% DE MULTA                                 NAO RECEBER APOS 30 DIAS DO VENCIMENTO.                                                                                                                                                                                                         13051900000000000001305190000000000000       0090339900006270655841051911000102
100000000000000000000009033990000627000000000000000000000000010002020001616905191300000000002            2  01016169051924051900000002514970000000001N100519000000000000000000000000000000000000000000000000000000000000000100001616913827CLAUDIO LUIZ PAULELLA                   PRACA NESTOR DOS SANTOS ARRUDA - 26 - VI            13920000                                                            000104
2SR. CAIXA, APOS O VENCIMENTO COBRAR 2% DE MULTA                                 NAO RECEBER APOS 30 DIAS DO VENCIMENTO.                                                                                                                                                                                                         13051900000000000001305190000000000000       0090339900006270016169051913000105
100000000000000000000009033990000627000000000000000000000000010002020006684605191400000000002            2  01066846051926051900000001829810000000001N100519000000000000000000000000000000000000000000000000000000000000000100006684623884LAUDINOR VIEIRA GARCIA                  RUA CANDIDO SALES - 374 - JARDIM PRESIDE            07172000                                                            000107
2SR. CAIXA, APOS O VENCIMENTO COBRAR 2% DE MULTA                                 NAO RECEBER APOS 30 DIAS DO VENCIMENTO.                                                                                                                                                                                                         13051900000000000001305190000000000000       0090339900006270066846051914000108
100000000000000000000009033990000627000000000000000000000000010002020011663505191500000000002            2  01116635051926051900000001843000000000001N100519000000000000000000000000000000000000000000000000000000000000000100011663589844MARIA SAVIO QUARELLO                    AVENIDA MENDONCA DRUMOND - 321 - JARDIM             03524030                                                            000110
2SR. CAIXA, APOS O VENCIMENTO COBRAR 2% DE MULTA                                 NAO RECEBER APOS 30 DIAS DO VENCIMENTO.                                                                                                                                                                                                         13051900000000000001305190000000000000       0090339900006270116635051915000111
100000000000000000000009033990000627000000000000000000000000010002020010083805191700000000002            2  01100838051926051900000001780630000000001N100519000000000000000000000000000000000000000000000000000000000000000100010083824855IONE FERREIRA COUTO DA SILVA            RUA JOSE RAGEL DE MESQUITA - 60 CS.01 -             07799999                                                            000113
2SR. CAIXA, APOS O VENCIMENTO COBRAR 2% DE MULTA                                 NAO RECEBER APOS 30 DIAS DO VENCIMENTO.                                                                                                                                                                                                         13051900000000000001305190000000000000       0090339900006270100838051917000114
100000000000000000000009033990000627000000000000000000000000010002020036881705191P00000000002            2  01368817051926051900000001747390000000001N100519000000000000000000000000000000000000000000000000000000000000000100036881778864ANDRE GONZALEZ RABELLO                  RUA PARAIBA - 106 AP.61 - POMPEIA - SANT            11065470                                                            000116
2SR. CAIXA, APOS O VENCIMENTO COBRAR 2% DE MULTA                                 NAO RECEBER APOS 30 DIAS DO VENCIMENTO.                                                                                                                                                                                                         13051900000000000001305190000000000000       009033990000627036881705191P000117
100000000000000000000009033990000627000000000000000000000000010002020018207005191900000000002            2  01182070051924051900000002408620000000001N100519000000000000000000000000000000000000000000000000000000000000000100018207096802ROBERTO VALENTE TAVARES                 RUA SEBASTIAO GOMES - 218 - JARDIM SANTO            13835000                                                            000119
2SR. CAIXA, APOS O VENCIMENTO COBRAR 2% DE MULTA                                 NAO RECEBER APOS 30 DIAS DO VENCIMENTO.                                                                                                                                                                                                         13051900000000000001305190000000000000       0090339900006270182070051919000120
100000000000000000000009033990000627000000000000000000000000010002020005351005191100000000002            2  01053510051926051900000001638350000000001N100519000000000000000000000000000000000000000000000000000000000000000100005351015897VALERIA ALVES MARCOLINO HINNIGER        RUA MONGOLIA - 230 AP.71 BL.4 - PARQUE N            09280220                                                            000122
2SR. CAIXA, APOS O VENCIMENTO COBRAR 2% DE MULTA                                 NAO RECEBER APOS 30 DIAS DO VENCIMENTO.                                                                                                                                                                                                         13051900000000000001305190000000000000       0090339900006270053510051911000123
100000000000000000000009033990000627000000000000000000000000010002020031898705191700000000002            2  01318987051924051900000002606580000000001N100519000000000000000000000000000000000000000000000000000000000000000100031898775800ANITA MARTINS COLOMBO                   RUA CARLOS JOSE BORSTENS - 50 AP.115 - A            11702750                                                            000125
2SR. CAIXA, APOS O VENCIMENTO COBRAR 2% DE MULTA                                 NAO RECEBER APOS 30 DIAS DO VENCIMENTO.                                                                                                                                                                                                         13051900000000000001305190000000000000       0090339900006270318987051917000126
100000000000000000000009033990000627000000000000000000000000010002020037983405191700000000002            2  01379834051926051900000001924530000000001N100519000000000000000000000000000000000000000000000000000000000000000100037983484801JOSE ERIVALDO SOUZA DO NASCIMENTO RAMOS RUA LETICIA - 250 - JARDIM GUARUJA - SAO            05877260                                                            000128
2SR. CAIXA, APOS O VENCIMENTO COBRAR 2% DE MULTA                                 NAO RECEBER APOS 30 DIAS DO VENCIMENTO.                                                                                                                                                                                                         13051900000000000001305190000000000000       0090339900006270379834051917000129
100000000000000000000009033990000627000000000000000000000000010002020056289205191800000000002            2  01562892051926051900000001453880000000001N100519000000000000000000000000000000000000000000000000000000000000000100056289286900PEDRO RIBEIRO                           RUA CONEGO MANOEL VAZ - 48 - SANTANA - S            02019050                                                            000131
2SR. CAIXA, APOS O VENCIMENTO COBRAR 2% DE MULTA                                 NAO RECEBER APOS 30 DIAS DO VENCIMENTO.                                                                                                                                                                                                         13051900000000000001305190000000000000       0090339900006270562892051918000132
100000000000000000000009033990000627000000000000000000000000010002020005025505191100000000002            2  01050255051926051900000002069030000000001N100519000000000000000000000000000000000000000000000000000000000000000100005025595860CONCEICAO APARECIDA DE MESQUITA PEREIRA RUA TRIUNFO - 835 AP.105 - JARDIM SAO LU            14020670                                                            000134
2SR. CAIXA, APOS O VENCIMENTO COBRAR 2% DE MULTA                                 NAO RECEBER APOS 30 DIAS DO VENCIMENTO.                                                                                                                                                                                                         13051900000000000001305190000000000000       0090339900006270050255051911000135
100000000000000000000009033990000627000000000000000000000000010002020034735305191400000000002            2  01347353051926051900000001995350000000001N100519000000000000000000000000000000000000000000000000000000000000000100034735328866DIEGO FELIPE MOLINA DA SILVA E SOUSA    RUA EMILIA PAULISTA - 135 - VILA TIRADEN            05364020                                                            000137
2SR. CAIXA, APOS O VENCIMENTO COBRAR 2% DE MULTA                                 NAO RECEBER APOS 30 DIAS DO VENCIMENTO.                                                                                                                                                                                                         13051900000000000001305190000000000000       0090339900006270347353051914000138
100000000000000000000009033990000627000000000000000000000000010002020076175605191500000000002            2  01761756051924051900000003617360000000001N100519000000000000000000000000000000000000000000000000000000000000000100076175685687GILMAR DE OLIVEIRA BRAGA                RUA MARACAJU - 161 AP.202 - NOVA GRANADA            30431350                                                            000140
2SR. CAIXA, APOS O VENCIMENTO COBRAR 2% DE MULTA                                 NAO RECEBER APOS 30 DIAS DO VENCIMENTO.                                                                                                                                                                                                         13051900000000000001305190000000000000       0090339900006270761756051915000141
100000000000000000000009033990000627000000000000000000000000010002020034812205191800000000002            2  01348122051924051900000049703330000000001N100519000000000000000000000000000000000000000000000000000000000000000100034812226880THAIS TORQUATO MIMOSO DE JESUS          RUA ARNALDO CINTRA - 416 AP.104 TORRE 2             03088000                                                            000143
2SR. CAIXA, APOS O VENCIMENTO COBRAR 2% DE MULTA                                 NAO RECEBER APOS 30 DIAS DO VENCIMENTO.                                                                                                                                                                                                         13051900000000000001305190000000000000       0090339900006270348122051918000144
9                                                                                                                                                                                                                                                                                                                                                                                                         000145