01REMESSA01COBRANCA       00000000000004991786AIRES DESENVOLVIMENTO IMOBILIA237BRADESCO       100217        MX0000001                                                                                                                                                                                                                                                                                     000001
100000000000000000000009077090011102300000000000000000000000010002100026774102112800000000002            2  01267741021114021700000000013340000000099N100217000000000000000000000000000000000000000000000000000000000000000100002252149892AIRES MOTA                              AV. BRASIL - 600 - BOQUEIRAO - PRAIA GRA            11701090                                                            000002
2SR. CAIXA, APOS O VENCIMENTO COBRAR 10% DE MULTA                                NAO RECEBER APOS 30 DIAS DO VENCIMENTO.                                                                                                                                                                                                         10021700000000000001002170000000000000       0090770900111023267741021128000003
9                                                                                                                                                                                                                                                                                                                                                                                                         000004