01REMESSA01COBRANCA       00000000000005316116AIRES CONSTRUTORA E INCORPORAD237BRADESCO       040621        MX0000172                                                                                                                                                                                                                                                                                     000001
100000000000000000000009002800441612000000000000000000000000010002100007975906211400000000002            2  01079759062125062100000003904440000000001N040621000000000000000000000000000000000000000000000000000000000000000100007975958808JOCY VIGNADO                            RUA PEDRO GONCALVES SOBRINHO - 568 - PAR            13098641                                                            000002
2SR. CAIXA, APOS O VENCIMENTO COBRAR 10% DE MULTA                                NAO RECEBER APOS 30 DIAS DO VENCIMENTO.                                                                                                                                                                                                         04062100000000000000406210000000000000       0090028004416120079759062114000003
100000000000000000000009002800441612000000000000000000000000010002100023132606211600000000002            2  01231326062125062100000002279600000000001N040621000000000000000000000000000000000000000000000000000000000000000100023132672882LEANDRO MORENO                          RUA MONTE CASTELO - 296 AP.64 - AVIACAO             11702720                                                            000005
2SR. CAIXA, APOS O VENCIMENTO COBRAR 10% DE MULTA                                NAO RECEBER APOS 30 DIAS DO VENCIMENTO.                                                                                                                                                                                                         04062100000000000000406210000000000000       0090028004416120231326062116000006
100000000000000000000009002800441612000000000000000000000000010002100099264606211500000000002            2  01992646062125062100000003887680000000001N040621000000000000000000000000000000000000000000000000000000000000000100099264692800LEONTINO PINHEIRO DA SILVA              AVENIDA JOAO BATISTA FITIPALDI - 469 - V            08685000                                                            000008
2SR. CAIXA, APOS O VENCIMENTO COBRAR 10% DE MULTA                                NAO RECEBER APOS 30 DIAS DO VENCIMENTO.                                                                                                                                                                                                         04062100000000000000406210000000000000       0090028004416120992646062115000009
100000000000000000000009002800441612000000000000000000000000010002100000666306211600000000002            2  01006663062125062100000003750520000000001N040621000000000000000000000000000000000000000000000000000000000000000100000666344825LUIZ HENRIQUE DE CAMPOS                 RUA JOAO CARLOS CAVALCANTI REIS - 21 - J            02281206                                                            000011
2SR. CAIXA, APOS O VENCIMENTO COBRAR 10% DE MULTA                                NAO RECEBER APOS 30 DIAS DO VENCIMENTO.                                                                                                                                                                                                         04062100000000000000406210000000000000       0090028004416120006663062116000012
100000000000000000000009002800441612000000000000000000000000010002100029155006211600000000002            2  01291550062125062100000003960690000000001N040621000000000000000000000000000000000000000000000000000000000000000100029155026842DANIELA YOSHIDA                         RUA MONTE CASTELO - 262 AP.34 - AVIACAO             11702720                                                            000014
2SR. CAIXA, APOS O VENCIMENTO COBRAR 10% DE MULTA                                NAO RECEBER APOS 30 DIAS DO VENCIMENTO.                                                                                                                                                                                                         04062100000000000000406210000000000000       0090028004416120291550062116000015
100000000000000000000009002800441612000000000000000000000000010002100001204406211P00000000002            2  01012044062125062100000003225440000000001N040621000000000000000000000000000000000000000000000000000000000000000100001204431809CEZAR TALAVERA JUNIOR                   RUA MAESTRO ARTURO DE ANGELIS  - 190 AP.            05139010                                                            000017
2SR. CAIXA, APOS O VENCIMENTO COBRAR 10% DE MULTA                                NAO RECEBER APOS 30 DIAS DO VENCIMENTO.                                                                                                                                                                                                         04062100000000000000406210000000000000       009002800441612001204406211P000018
100000000000000000000009002800441612000000000000000000000000010002100004227506211900000000002            2  01042275062125062100000004181130000000001N040621000000000000000000000000000000000000000000000000000000000000000100004227553970ALESSANDRO ISRAEL GOULART               RUA PROFESSORA CARLINDA RIBEIRO - 21 - F            02866200                                                            000020
2SR. CAIXA, APOS O VENCIMENTO COBRAR 10% DE MULTA                                NAO RECEBER APOS 30 DIAS DO VENCIMENTO.                                                                                                                                                                                                         04062100000000000000406210000000000000       0090028004416120042275062119000021
100000000000000000000009002800441612000000000000000000000000010002100060811406211200000000002            2  01608114062125062100000003853390000000001N040621000000000000000000000000000000000000000000000000000000000000000100060811420868HELIO BASSI                             AV.PARIS,575 - PRACA ANTONIO FIGUEROA -             11700082                                                            000023
2SR. CAIXA, APOS O VENCIMENTO COBRAR 10% DE MULTA                                NAO RECEBER APOS 30 DIAS DO VENCIMENTO.                                                                                                                                                                                                         04062100000000000000406210000000000000       0090028004416120608114062112000024
100000000000000000000009002800441612000000000000000000000000010002100001024706211200000000002            2  01010247062125062100000003646320000000001N040621000000000000000000000000000000000000000000000000000000000000000100001024794881CLAUDIO RODRIGUES                       RUA ARACATUBA - 242 - LAPA - SAO PAULO -            05058010                                                            000026
2SR. CAIXA, APOS O VENCIMENTO COBRAR 10% DE MULTA                                NAO RECEBER APOS 30 DIAS DO VENCIMENTO.                                                                                                                                                                                                         04062100000000000000406210000000000000       0090028004416120010247062112000027
100000000000000000000009002800441612000000000000000000000000010002100002225006211300000000002            2  01022250062125062100000005590310000000001N040621000000000000000000000000000000000000000000000000000000000000000100002225072841PEDRO EDUARDO DE AZEVEDO                RUA NATH ZILMAN - 46 - JARDIM SAMAMBAIA             07623085                                                            000029
2SR. CAIXA, APOS O VENCIMENTO COBRAR 10% DE MULTA                                NAO RECEBER APOS 30 DIAS DO VENCIMENTO.                                                                                                                                                                                                         04062100000000000000406210000000000000       0090028004416120022250062113000030
100000000000000000000009002800441612000000000000000000000000010002100022037506211100000000002            2  01220375062125062100000003890230000000001N040621000000000000000000000000000000000000000000000000000000000000000100022037552882ANDREIA CRISTINA FERNANDES DANTAS       PCA CASTRO ALVES - 163 AP.33 - VILA SAO             13224299                                                            000032
2SR. CAIXA, APOS O VENCIMENTO COBRAR 10% DE MULTA                                NAO RECEBER APOS 30 DIAS DO VENCIMENTO.                                                                                                                                                                                                         04062100000000000000406210000000000000       0090028004416120220375062111000033
100000000000000000000009002800441612000000000000000000000000010002100027198406211300000000002            2  01271984062125062100000002683070000000001N040621000000000000000000000000000000000000000000000000000000000000000100027198452809CRISTIANE AURELIANO DA SILVA MAIA       RUA MONTE CASTELO - 262 AP.25 - AVIACAO             11702720                                                            000035
2SR. CAIXA, APOS O VENCIMENTO COBRAR 10% DE MULTA                                NAO RECEBER APOS 30 DIAS DO VENCIMENTO.                                                                                                                                                                                                         04062100000000000000406210000000000000       0090028004416120271984062113000036
100000000000000000000009002800441612000000000000000000000000010002100021246206211700000000002            2  01212462062125062100000003274430000000001N040621000000000000000000000000000000000000000000000000000000000000000100021246231840ALEXANDRO DA CUNHA MIGUES               RUA DULCE - 71  - VILA CARRAO - SAO PAUL            03427040                                                            000038
2SR. CAIXA, APOS O VENCIMENTO COBRAR 10% DE MULTA                                NAO RECEBER APOS 30 DIAS DO VENCIMENTO.                                                                                                                                                                                                         04062100000000000000406210000000000000       0090028004416120212462062117000039
100000000000000000000009002800441612000000000000000000000000010002100018470506211700000000002            2  01184705062125062100000004817160000000001N040621000000000000000000000000000000000000000000000000000000000000000100018470520881SILVANA ALVES DE OLIVEIRA               RUA MONTE CASTELO - 262 AP.91 - AVIACAO             11702720                                                            000041
2SR. CAIXA, APOS O VENCIMENTO COBRAR 10% DE MULTA                                NAO RECEBER APOS 30 DIAS DO VENCIMENTO.                                                                                                                                                                                                         04062100000000000000406210000000000000       0090028004416120184705062117000042
100000000000000000000009002800441612000000000000000000000000010002100009297506211700000000002            2  01092975062125062100000003353640000000001N040621000000000000000000000000000000000000000000000000000000000000000100009297523846MARCOS ROBERTO DE CASTRO FERREIRA       RUA MONTE CASTELO - 262 AP.105 - AVIACAO            11702720                                                            000044
2SR. CAIXA, APOS O VENCIMENTO COBRAR 10% DE MULTA                                NAO RECEBER APOS 30 DIAS DO VENCIMENTO.                                                                                                                                                                                                         04062100000000000000406210000000000000       0090028004416120092975062117000045
100000000000000000000009002800441612000000000000000000000000010002100001164106211600000000002            2  01011641062125062100000004155950000000001N040621000000000000000000000000000000000000000000000000000000000000000100001164158864DAVID BLEY LACERDA                      RUA CONEGO ARAUJO MARCONDES - 188 - BAIR            02550080                                                            000047
2SR. CAIXA, APOS O VENCIMENTO COBRAR 10% DE MULTA                                NAO RECEBER APOS 30 DIAS DO VENCIMENTO.                                                                                                                                                                                                         04062100000000000000406210000000000000       0090028004416120011641062116000048
100000000000000000000009002800441612000000000000000000000000010002100031498006211P00000000002            2  01314980062125062100000005050950000000001N040621000000000000000000000000000000000000000000000000000000000000000100031498008895POLIANE  SIBELE DA SILVA                PRACA GENERAL COSTA BARRETO - 56 AP.181             03325070                                                            000050
2SR. CAIXA, APOS O VENCIMENTO COBRAR 10% DE MULTA                                NAO RECEBER APOS 30 DIAS DO VENCIMENTO.                                                                                                                                                                                                         04062100000000000000406210000000000000       009002800441612031498006211P000051
100000000000000000000009002800441612000000000000000000000000010002100000588106211300000000002            2  01005881062125062100000002962470000000001N040621000000000000000000000000000000000000000000000000000000000000000100000588109860JOSE LIARTE GIANTE                      AVENIDA LUIZ GONZAGA DO AMARAL - 143 - J            09320630                                                            000053
2SR. CAIXA, APOS O VENCIMENTO COBRAR 10% DE MULTA                                NAO RECEBER APOS 30 DIAS DO VENCIMENTO.                                                                                                                                                                                                         04062100000000000000406210000000000000       0090028004416120005881062113000054
100000000000000000000009002800441612000000000000000000000000010002100014386806211600000000002            2  01143868062125062100000002369860000000001N040621000000000000000000000000000000000000000000000000000000000000000100014386860134SEVERINO CARLOS DE OLIVEIRA             RUA MONTE CASTELO - 262 AP.54 - AVIACAO             11702720                                                            000056
2SR. CAIXA, APOS O VENCIMENTO COBRAR 10% DE MULTA                                NAO RECEBER APOS 30 DIAS DO VENCIMENTO.                                                                                                                                                                                                         04062100000000000000406210000000000000       0090028004416120143868062116000057
100000000000000000000009002800441612000000000000000000000000010002100039393706211100000000002            2  01393937062125062100000001633350000000001N040621000000000000000000000000000000000000000000000000000000000000000100039393790850NAIRON RICARDO DE ARAUJO SANTOS         RUA NITEROI - 267 CASA 04 - JARDIM INDEP            11380350                                                            000059
2SR. CAIXA, APOS O VENCIMENTO COBRAR 10% DE MULTA                                NAO RECEBER APOS 30 DIAS DO VENCIMENTO.                                                                                                                                                                                                         04062100000000000000406210000000000000       0090028004416120393937062111000060
100000000000000000000009002800441612000000000000000000000000010002100004735206211000000000002            2  01047352062125062100000001684800000000001N040621000000000000000000000000000000000000000000000000000000000000000100004735273832DARIO LUIZ GONCALVES                    RUA MONTE CASTELO - 295 AP.113 - AVIACAO            11702720                                                            000062
2SR. CAIXA, APOS O VENCIMENTO COBRAR 10% DE MULTA                                NAO RECEBER APOS 30 DIAS DO VENCIMENTO.                                                                                                                                                                                                         04062100000000000000406210000000000000       0090028004416120047352062110000063
100000000000000000000009002800441612000000000000000000000000010002100019288706211P00000000002            2  01192887062125062100000002199670000000001N040621000000000000000000000000000000000000000000000000000000000000000100019288787844EMERSON LUIZ MARTINEZ PEREIRA           RUA MONTE CASTELO - 296 AP.74 - AVIACAO             11702720                                                            000065
2SR. CAIXA, APOS O VENCIMENTO COBRAR 10% DE MULTA                                NAO RECEBER APOS 30 DIAS DO VENCIMENTO.                                                                                                                                                                                                         04062100000000000000406210000000000000       009002800441612019288706211P000066
9                                                                                                                                                                                                                                                                                                                                                                                                         000067