01REMESSA01COBRANCA       00000000000008017025HB SANTOS CONSTRUTORA E INCORP237BRADESCO       100217        MX0000023                                                                                                                                                                                                                                                                                     000001
100000000000000000000009033990000627000000000000000000000000010002020026676193248100000000002            2  01266761932418021700000000008880000000099N100217000000000000000000000000000000000000000000000000000000000000000100002252149892AIRES MOTA DOS SANTOS                   AVENIDA BRASIL - 600 - AVIACAO - PRAIA G            11701090                                                            000002
2SR. CAIXA, APOS O VENCIMENTO COBRAR 2% DE MULTA                                 NAO RECEBER APOS 30 DIAS DO VENCIMENTO.                                                                                                                                                                                                         10021700000000000001002170000000000000       0090339900006270266761932481000003
9                                                                                                                                                                                                                                                                                                                                                                                                         000004