01REMESSA01COBRANCA       00000000000005316116AIRES CONSTRUTORA E INCORPORAD237BRADESCO       010522        MX0000193                                                                                                                                                                                                                                                                                     000001
100000000000000000000009002800441612000000000000000000000000010002100011277905221P00000000002            2  01112779052210052200000004028800000000001N010522000000000000000000000000000000000000000000000000000000000000000100011277908893JOSE AILTON LOPES DE AZEVEDO            RUA MAESTRO JOAO SEPE - 19 - JARDIM MARI            04181030                                                            000002
2SR. CAIXA, APOS O VENCIMENTO COBRAR 10% DE MULTA                                NAO RECEBER APOS 30 DIAS DO VENCIMENTO.                                                                                                                                                                                                         01052200000000000000105220000000000000       009002800441612011277905221P000003
100000000000000000000009002800441612000000000000000000000000010002100025215105221700000000002            2  01252151052210052200000007607180000000001N010522000000000000000000000000000000000000000000000000000000000000000100025215106886KLEBER LUIZ DOS SANTOS                  RUA MONTE CASTELO - 262 AP.15 - AVIACAO             11702720                                                            000005
2SR. CAIXA, APOS O VENCIMENTO COBRAR 10% DE MULTA                                NAO RECEBER APOS 30 DIAS DO VENCIMENTO.                                                                                                                                                                                                         01052200000000000000105220000000000000       0090028004416120252151052217000006
100000000000000000000009002800441612000000000000000000000000010002100090206705221400000000002            2  01902067052210052200000003393560000000001N010522000000000000000000000000000000000000000000000000000000000000000100090206789815NEREIDE RODRIGUES FERREIRA              AVENIDA PADRE ESTANISLAU DE CAMPOS - 205            03590060                                                            000008
2SR. CAIXA, APOS O VENCIMENTO COBRAR 10% DE MULTA                                NAO RECEBER APOS 30 DIAS DO VENCIMENTO.                                                                                                                                                                                                         01052200000000000000105220000000000000       0090028004416120902067052214000009
100000000000000000000009002800441612000000000000000000000000010002100029150705221200000000002            2  01291507052210052200000003972200000000001N010522000000000000000000000000000000000000000000000000000000000000000100029150742833ANA DEISE SANTOS DE ALMEIDA             RUA MONTE CASTELO - 296 AP.121 - AVIACAO            11702720                                                            000011
2SR. CAIXA, APOS O VENCIMENTO COBRAR 10% DE MULTA                                NAO RECEBER APOS 30 DIAS DO VENCIMENTO.                                                                                                                                                                                                         01052200000000000000105220000000000000       0090028004416120291507052212000012
100000000000000000000009002800441612000000000000000000000000010002100000811705221800000000002            2  01008117052210052200000003271840000000001N010522000000000000000000000000000000000000000000000000000000000000000100000811752801SERGIO BUENO DA SILVA                   RUA MONTE CASTELO - 262 AP.75 - AVIACAO             11702720                                                            000014
2SR. CAIXA, APOS O VENCIMENTO COBRAR 10% DE MULTA                                NAO RECEBER APOS 30 DIAS DO VENCIMENTO.                                                                                                                                                                                                         01052200000000000000105220000000000000       0090028004416120008117052218000015
100000000000000000000009002800441612000000000000000000000000010002100018344805221400000000002            2  01183448052210052200000004448890000000001N010522000000000000000000000000000000000000000000000000000000000000000100018344803888MARCELO BERNARDO                        RUA MONTE CASTELO - 262 AP.84 - AVIACAO             11702720                                                            000017
2SR. CAIXA, APOS O VENCIMENTO COBRAR 10% DE MULTA                                NAO RECEBER APOS 30 DIAS DO VENCIMENTO.                                                                                                                                                                                                         01052200000000000000105220000000000000       0090028004416120183448052214000018
100000000000000000000009002800441612000000000000000000000000010002100031803805221P00000000002            2  01318038052210052200000003592700000000001N010522000000000000000000000000000000000000000000000000000000000000000100031803864877ELEILSON FELIPPE SANTOS                 RUA SANTA GREGORIA - 193 - CIDADE DUTRA             04806030                                                            000020
2SR. CAIXA, APOS O VENCIMENTO COBRAR 10% DE MULTA                                NAO RECEBER APOS 30 DIAS DO VENCIMENTO.                                                                                                                                                                                                         01052200000000000000105220000000000000       009002800441612031803805221P000021
100000000000000000000009002800441612000000000000000000000000010002100063064505221400000000002            2  01630645052210052200000004281340000000001N010522000000000000000000000000000000000000000000000000000000000000000100063064537849ANTONIO APARECIDO DA SILVA DESTEFANO    RUA PROFESSOR TEODORO BRAGA - 46 - VILA             02966020                                                            000023
2SR. CAIXA, APOS O VENCIMENTO COBRAR 10% DE MULTA                                NAO RECEBER APOS 30 DIAS DO VENCIMENTO.                                                                                                                                                                                                         01052200000000000000105220000000000000       0090028004416120630645052214000024
100000000000000000000009002800441612000000000000000000000000010002100005920505221300000000002            2  01059205052210052200000002492630000000001N010522000000000000000000000000000000000000000000000000000000000000000100005920579846SONIA MARIA VALDO POLLO                 RUA PALMIRA CERVI BARBARO - 797 - CIDADE            13214370                                                            000026
2SR. CAIXA, APOS O VENCIMENTO COBRAR 10% DE MULTA                                NAO RECEBER APOS 30 DIAS DO VENCIMENTO.                                                                                                                                                                                                         01052200000000000000105220000000000000       0090028004416120059205052213000027
100000000000000000000009002800441612000000000000000000000000010002100002494105221400000000002            2  01024941052210052200000003747770000000001N010522000000000000000000000000000000000000000000000000000000000000000100002494107881CIRO FRANCISCO MARCHI DURIGON           RUA MONTE CASTELO - 262 AP.115 - AVIACAO            11702720                                                            000029
2SR. CAIXA, APOS O VENCIMENTO COBRAR 10% DE MULTA                                NAO RECEBER APOS 30 DIAS DO VENCIMENTO.                                                                                                                                                                                                         01052200000000000000105220000000000000       0090028004416120024941052214000030
100000000000000000000009002800441612000000000000000000000000010002100016299005221500000000002            2  01162990052210052200000003551600000000001N010522000000000000000000000000000000000000000000000000000000000000000100016299008857FERNANDO CESAR CARVALHO                 AVENIDA MARCONDES DE BRITO - 1340 AP.74             03509000                                                            000032
2SR. CAIXA, APOS O VENCIMENTO COBRAR 10% DE MULTA                                NAO RECEBER APOS 30 DIAS DO VENCIMENTO.                                                                                                                                                                                                         01052200000000000000105220000000000000       0090028004416120162990052215000033
100000000000000000000009002800441612000000000000000000000000010002100065895305221900000000002            2  01658953052210052200000002172870000000001N010522000000000000000000000000000000000000000000000000000000000000000100065895304834MARINHO BARBOSA CUNHA                   AVENIDA EDU CHAVES - 639 AP.43 - PARQUE             02229000                                                            000035
2SR. CAIXA, APOS O VENCIMENTO COBRAR 10% DE MULTA                                NAO RECEBER APOS 30 DIAS DO VENCIMENTO.                                                                                                                                                                                                         01052200000000000000105220000000000000       0090028004416120658953052219000036
100000000000000000000009002800441612000000000000000000000000010002100055975305221600000000002            2  01559753052210052200000000811050000000001N010522000000000000000000000000000000000000000000000000000000000000000100055975372887BENEVENUTO THEODORO DA SILVA NETO       RUA MONTE CASTELO - 296 AP.63 - AVIACAO             11702720                                                            000038
2SR. CAIXA, APOS O VENCIMENTO COBRAR 10% DE MULTA                                NAO RECEBER APOS 30 DIAS DO VENCIMENTO.                                                                                                                                                                                                         01052200000000000000105220000000000000       0090028004416120559753052216000039
9                                                                                                                                                                                                                                                                                                                                                                                                         000040