01REMESSA01COBRANCA       00000000000005331186HB SANTOS CONSTRUTORA E INCORP237BRADESCO       050423        MX0000070                                                                                                                                                                                                                                                                                     000001
100000000000000000000009033990000995400000000000000000000000010002020005723204231600000000002            2  01057232042323042300000002998960000000001N050423000000000000000000000000000000000000000000000000000000000000000100005723255843FRANCISCO DE ASSIS DA SILVA             PRACA NICOLAU GERAIGIRE - 25 VISOR - JAR            11095110                                                            000002
2SR. CAIXA, APOS O VENCIMENTO COBRAR 2% DE MULTA                                 NAO RECEBER APOS 30 DIAS DO VENCIMENTO.                                                                                                                                                                                                         05042300000000000000504230000000000000       0090339900009954057232042316000003
100000000000000000000009033990000995400000000000000000000000010002020004928104231000000000002            2  01049281042323042300000002932750000000001N050423000000000000000000000000000000000000000000000000000000000000000100004928157800ADEMIR APARECIDO ANTUNES                RUA URUGUAI - 89 AP.105 - JARDIM GUILHER            11702300                                                            000005
2SR. CAIXA, APOS O VENCIMENTO COBRAR 2% DE MULTA                                 NAO RECEBER APOS 30 DIAS DO VENCIMENTO.                                                                                                                                                                                                         05042300000000000000504230000000000000       0090339900009954049281042310000006
100000000000000000000009033990000995400000000000000000000000010002020032589104231P00000000002            2  01325891042323042300000002837640000000001N050423000000000000000000000000000000000000000000000000000000000000000100032589165862RENATA ISABEL MARTINS SILVA             RUA HERCULANO DE FREITAS - 257 - FUNDACA            09520280                                                            000008
2SR. CAIXA, APOS O VENCIMENTO COBRAR 2% DE MULTA                                 NAO RECEBER APOS 30 DIAS DO VENCIMENTO.                                                                                                                                                                                                         05042300000000000000504230000000000000       009033990000995432589104231P000009
100000000000000000000009033990000995400000000000000000000000010002020088339304231300000000002            2  01883393042323042300000002868420000000001N050423000000000000000000000000000000000000000000000000000000000000000100088339319868MARCIA SIQUEIRA MELLO                   RUA ADELINO ALVES - 81 - SANTO AMARO - S            04710120                                                            000011
2SR. CAIXA, APOS O VENCIMENTO COBRAR 2% DE MULTA                                 NAO RECEBER APOS 30 DIAS DO VENCIMENTO.                                                                                                                                                                                                         05042300000000000000504230000000000000       0090339900009954883393042313000012
100000000000000000000009033990000995400000000000000000000000010002020046391204231900000000002            2  01463912042323042300000002975600000000001N050423000000000000000000000000000000000000000000000000000000000000000100046391265810PAMELLA RODRIGUES DE OLIVEIRA           RUA AUGUSTA - 183 AP.301 BL.2A - VILA AU            07025130                                                            000014
2SR. CAIXA, APOS O VENCIMENTO COBRAR 2% DE MULTA                                 NAO RECEBER APOS 30 DIAS DO VENCIMENTO.                                                                                                                                                                                                         05042300000000000000504230000000000000       0090339900009954463912042319000015
100000000000000000000009033990000995400000000000000000000000010002020027964504231700000000002            2  01279645042323042300000002956520000000001N050423000000000000000000000000000000000000000000000000000000000000000100027964512838FABIO TADEU DE CAMPOS RADZIAVICIUS      RUA URUGUAI - 89 AP.94 - JARDIM GUILHERM            11702300                                                            000017
2SR. CAIXA, APOS O VENCIMENTO COBRAR 2% DE MULTA                                 NAO RECEBER APOS 30 DIAS DO VENCIMENTO.                                                                                                                                                                                                         05042300000000000000504230000000000000       0090339900009954279645042317000018
100000000000000000000009033990000995400000000000000000000000010002020027964504232500000000002            2  01279645042323042300000002956510000000001N050423000000000000000000000000000000000000000000000000000000000000000100027964512838FABIO TADEU DE CAMPOS RADZIAVICIUS      RUA URUGUAI - 89 AP.94 - JARDIM GUILHERM            11702300                                                            000020
2SR. CAIXA, APOS O VENCIMENTO COBRAR 2% DE MULTA                                 NAO RECEBER APOS 30 DIAS DO VENCIMENTO.                                                                                                                                                                                                         05042300000000000000504230000000000000       0090339900009954279645042325000021
100000000000000000000009033990000995400000000000000000000000010002020011498304231500000000002            2  01114983042323042300000002215080000000001N050423000000000000000000000000000000000000000000000000000000000000000100011498329837GERSON GERALDO DAS NEVES                RUA DOMINGOS DELGADO - 144 - VILA SOUZA             02881070                                                            000023
2SR. CAIXA, APOS O VENCIMENTO COBRAR 2% DE MULTA                                 NAO RECEBER APOS 30 DIAS DO VENCIMENTO.                                                                                                                                                                                                         05042300000000000000504230000000000000       0090339900009954114983042315000024
100000000000000000000009033990000995400000000000000000000000010002020025214404231100000000002            2  01252144042323042300000002621970000000001N050423000000000000000000000000000000000000000000000000000000000000000100025214401833JOSE MAURICIO DOS SANTOS RODRIGUES      RUA JOAO DE MACEDO RIBEIRO - 49 - VILA N            08111101                                                            000026
2SR. CAIXA, APOS O VENCIMENTO COBRAR 2% DE MULTA                                 NAO RECEBER APOS 30 DIAS DO VENCIMENTO.                                                                                                                                                                                                         05042300000000000000504230000000000000       0090339900009954252144042311000027
100000000000000000000009033990000995400000000000000000000000010002020033119104231900000000002            2  01331191042323042300000002633070000000001N050423000000000000000000000000000000000000000000000000000000000000000100033119178802HUGO GOMES VENDRAME                     RUA SAO PAULO - 60 CASA 01 - VILA FREITA            06380110                                                            000029
2SR. CAIXA, APOS O VENCIMENTO COBRAR 2% DE MULTA                                 NAO RECEBER APOS 30 DIAS DO VENCIMENTO.                                                                                                                                                                                                         05042300000000000000504230000000000000       0090339900009954331191042319000030
100000000000000000000009033990000995400000000000000000000000010002020016631504231100000000002            2  01166315042323042300000002679020000000001N050423000000000000000000000000000000000000000000000000000000000000000100016631587468GILBERTO BEZERRA DA SILVA               AVENIDA JAIME TORRES - 745 CASA 3 - JARD            03670000                                                            000032
2SR. CAIXA, APOS O VENCIMENTO COBRAR 2% DE MULTA                                 NAO RECEBER APOS 30 DIAS DO VENCIMENTO.                                                                                                                                                                                                         05042300000000000000504230000000000000       0090339900009954166315042311000033
100000000000000000000009033990000995400000000000000000000000010002020007313204231400000000002            2  01073132042323042300000002659990000000001N050423000000000000000000000000000000000000000000000000000000000000000100007313251840SALVADOR GESUALDO PULVIRENTI            AVENIDA MARARI - 641 - VILA MARARI - SAO            04402010                                                            000035
2SR. CAIXA, APOS O VENCIMENTO COBRAR 2% DE MULTA                                 NAO RECEBER APOS 30 DIAS DO VENCIMENTO.                                                                                                                                                                                                         05042300000000000000504230000000000000       0090339900009954073132042314000036
100000000000000000000009033990000995400000000000000000000000010002020010676704231600000000002            2  01106767042323042300000002776400000000001N050423000000000000000000000000000000000000000000000000000000000000000100010676723896MERCEDES CRISTINA ROCHA SANDOVAL        RUA URUGUAI - 89 AP.83 - JARDIM GUILHERM            11702300                                                            000038
2SR. CAIXA, APOS O VENCIMENTO COBRAR 2% DE MULTA                                 NAO RECEBER APOS 30 DIAS DO VENCIMENTO.                                                                                                                                                                                                         05042300000000000000504230000000000000       0090339900009954106767042316000039
100000000000000000000009033990000995400000000000000000000000010002020009502804231400000000002            2  01095028042323042300000002899490000000001N050423000000000000000000000000000000000000000000000000000000000000000100009502844831CLAUDIA ROCHA SANDOVAL                  RUA URUGUAI - 89 AP.64 - JARDIM GUILHERM            11702300                                                            000041
2SR. CAIXA, APOS O VENCIMENTO COBRAR 2% DE MULTA                                 NAO RECEBER APOS 30 DIAS DO VENCIMENTO.                                                                                                                                                                                                         05042300000000000000504230000000000000       0090339900009954095028042314000042
100000000000000000000009033990000995400000000000000000000000010002020007594204231300000000002            2  01075942042323042300000002602960000000001N050423000000000000000000000000000000000000000000000000000000000000000100007594247809JOSE LUIS DE OLIVEIRA                   DONA EGLANTINA PENTEADO DA SILVA PRADO -            13044162                                                            000044
2SR. CAIXA, APOS O VENCIMENTO COBRAR 2% DE MULTA                                 NAO RECEBER APOS 30 DIAS DO VENCIMENTO.                                                                                                                                                                                                         05042300000000000000504230000000000000       0090339900009954075942042313000045
100000000000000000000009033990000995400000000000000000000000010002020005288704231700000000002            2  01052887042323042300000002681310000000001N050423000000000000000000000000000000000000000000000000000000000000000100005288796858MARCELO RODRIGUES FERREIRA              RUA MARCOS ANTONIO MARQUES - 302 - JARDI            06433020                                                            000047
2SR. CAIXA, APOS O VENCIMENTO COBRAR 2% DE MULTA                                 NAO RECEBER APOS 30 DIAS DO VENCIMENTO.                                                                                                                                                                                                         05042300000000000000504230000000000000       0090339900009954052887042317000048
100000000000000000000009033990000995400000000000000000000000010002020015835904231600000000002            2  01158359042323042300000002792190000000001N050423000000000000000000000000000000000000000000000000000000000000000100015835992823FLAVIO VERONEZ                          RUA ANDREA PAULINETTI - 127 AP.42 - BAIR            04707050                                                            000050
2SR. CAIXA, APOS O VENCIMENTO COBRAR 2% DE MULTA                                 NAO RECEBER APOS 30 DIAS DO VENCIMENTO.                                                                                                                                                                                                         05042300000000000000504230000000000000       0090339900009954158359042316000051
100000000000000000000009033990000995400000000000000000000000010002020000438104231400000000002            2  01004381042323042300000003151610000000001N050423000000000000000000000000000000000000000000000000000000000000000100000438161858WAGNECY VILLA NOVA LIEN                 MACHADO - 106 - VILA AUGUSTA - GUARULHOS            07025210                                                            000053
2SR. CAIXA, APOS O VENCIMENTO COBRAR 2% DE MULTA                                 NAO RECEBER APOS 30 DIAS DO VENCIMENTO.                                                                                                                                                                                                         05042300000000000000504230000000000000       0090339900009954004381042314000054
100000000000000000000009033990000995400000000000000000000000010002020026004504231000000000002            2  01260045042323042300000002792230000000001N050423000000000000000000000000000000000000000000000000000000000000000100026004595888EDIVALDO BEZERRA DA SILVA               AVENIDA GUATEMALA - 550 - JARDIM PINHEIR            09854750                                                            000056
2SR. CAIXA, APOS O VENCIMENTO COBRAR 2% DE MULTA                                 NAO RECEBER APOS 30 DIAS DO VENCIMENTO.                                                                                                                                                                                                         05042300000000000000504230000000000000       0090339900009954260045042310000057
100000000000000000000009033990000995400000000000000000000000010002020012470704231500000000002            2  01124707042323042300000002979110000000001N050423000000000000000000000000000000000000000000000000000000000000000100012470771870HILTON FERNANDES OLIVARES               RUA PATIO DA ESTACAO - 115 - BAIRRO CENT            09450000                                                            000059
2SR. CAIXA, APOS O VENCIMENTO COBRAR 2% DE MULTA                                 NAO RECEBER APOS 30 DIAS DO VENCIMENTO.                                                                                                                                                                                                         05042300000000000000504230000000000000       0090339900009954124707042315000060
100000000000000000000009033990000995400000000000000000000000010002020014025404231400000000002            2  01140254042323042300000003266520000000001N050423000000000000000000000000000000000000000000000000000000000000000100014025420899ANDREIA APARECIDA TAVARES BASTOS        RUA IBATIBA - 234 CASA 27 - RES.BOUGANVI            09220608                                                            000062
2SR. CAIXA, APOS O VENCIMENTO COBRAR 2% DE MULTA                                 NAO RECEBER APOS 30 DIAS DO VENCIMENTO.                                                                                                                                                                                                         05042300000000000000504230000000000000       0090339900009954140254042314000063
100000000000000000000009033990000995400000000000000000000000010002020018590004231300000000002            2  01185900042323042300000002958310000000001N050423000000000000000000000000000000000000000000000000000000000000000100018590038858JOSE SANDRO ROCHA SILVA                 RUA SANTO ANTONIO DO AVENTUREIRO - 216 A            07143040                                                            000065
2SR. CAIXA, APOS O VENCIMENTO COBRAR 2% DE MULTA                                 NAO RECEBER APOS 30 DIAS DO VENCIMENTO.                                                                                                                                                                                                         05042300000000000000504230000000000000       0090339900009954185900042313000066
100000000000000000000009033990000995400000000000000000000000010002020088578704231100000000002            2  01885787042323042300000002434270000000001N050423000000000000000000000000000000000000000000000000000000000000000100088578704800GILBERTO DO ESPIRITO SANTO SILVA        RUA URUGUAI - 89 AP.23 - JARDIM GUILHERM            11702300                                                            000068
2SR. CAIXA, APOS O VENCIMENTO COBRAR 2% DE MULTA                                 NAO RECEBER APOS 30 DIAS DO VENCIMENTO.                                                                                                                                                                                                         05042300000000000000504230000000000000       0090339900009954885787042311000069
100000000000000000000009033990000995400000000000000000000000010002020005105204231P00000000002            2  01051052042323042300000002903150000000001N050423000000000000000000000000000000000000000000000000000000000000000100005105287835FABIO MOTTOLA DE OLIVEIRA               RUA RAUL MAZZONI - 133 - CHACARA AREAL -            13331022                                                            000071
2SR. CAIXA, APOS O VENCIMENTO COBRAR 2% DE MULTA                                 NAO RECEBER APOS 30 DIAS DO VENCIMENTO.                                                                                                                                                                                                         05042300000000000000504230000000000000       009033990000995405105204231P000072
100000000000000000000009033990000995400000000000000000000000010002020020792704231900000000002            2  01207927042323042300000003018230000000001N050423000000000000000000000000000000000000000000000000000000000000000120792791000147TROVAO COMERCIO DE ALIMENTOS LTDA-ME    RUA QUINTA DA MAGNOLIA - 67 - JARDIM IPA            03582100                                                            000074
2SR. CAIXA, APOS O VENCIMENTO COBRAR 2% DE MULTA                                 NAO RECEBER APOS 30 DIAS DO VENCIMENTO.                                                                                                                                                                                                         05042300000000000000504230000000000000       0090339900009954207927042319000075
100000000000000000000009033990000995400000000000000000000000010002020007648104231200000000002            2  01076481042323042300000002834120000000001N050423000000000000000000000000000000000000000000000000000000000000000100007648112825MARA REGINA CAPRIO                      RUA DA TRINDADE - 790 - VILA IDEAL - SAO            15060280                                                            000077
2SR. CAIXA, APOS O VENCIMENTO COBRAR 2% DE MULTA                                 NAO RECEBER APOS 30 DIAS DO VENCIMENTO.                                                                                                                                                                                                         05042300000000000000504230000000000000       0090339900009954076481042312000078
100000000000000000000009033990000995400000000000000000000000010002020031157404231100000000002            2  01311574042323042300000003043160000000001N050423000000000000000000000000000000000000000000000000000000000000000100031157420885TALITA ANICHIARICO COSSI                RUA CNEO POMPEO DE CAMARGO - 817 - JARDI            13060150                                                            000080
2SR. CAIXA, APOS O VENCIMENTO COBRAR 2% DE MULTA                                 NAO RECEBER APOS 30 DIAS DO VENCIMENTO.                                                                                                                                                                                                         05042300000000000000504230000000000000       0090339900009954311574042311000081
100000000000000000000009033990000995400000000000000000000000010002020035572504231600000000002            2  01355725042323042300000003235570000000001N050423000000000000000000000000000000000000000000000000000000000000000100035572536865MARIA SIMONE SANTOS                     RUA JOSE PEZZOLO - 68 - VILA ELDIZIA - S            09181660                                                            000083
2SR. CAIXA, APOS O VENCIMENTO COBRAR 2% DE MULTA                                 NAO RECEBER APOS 30 DIAS DO VENCIMENTO.                                                                                                                                                                                                         05042300000000000000504230000000000000       0090339900009954355725042316000084
100000000000000000000009033990000995400000000000000000000000010002020008800304231300000000002            2  01088003042323042300000002948030000000001N050423000000000000000000000000000000000000000000000000000000000000000100008800368425INGO DIMITRI PEREIRA DA NOBREGA         RUA PROFESSOR MENDES PIMENTEL - 362 - JA            03973010                                                            000086
2SR. CAIXA, APOS O VENCIMENTO COBRAR 2% DE MULTA                                 NAO RECEBER APOS 30 DIAS DO VENCIMENTO.                                                                                                                                                                                                         05042300000000000000504230000000000000       0090339900009954088003042313000087
100000000000000000000009033990000995400000000000000000000000010002020005054104231800000000002            2  01050541042323042300000002852940000000001N050423000000000000000000000000000000000000000000000000000000000000000100005054169806PAULO ROBERTO DE MATTOS                 JARDIM BOTANICO - 849 - DISTRITO DE SOUS            13106258                                                            000089
2SR. CAIXA, APOS O VENCIMENTO COBRAR 2% DE MULTA                                 NAO RECEBER APOS 30 DIAS DO VENCIMENTO.                                                                                                                                                                                                         05042300000000000000504230000000000000       0090339900009954050541042318000090
100000000000000000000009033990000995400000000000000000000000010002020007552104231400000000002            2  01075521042323042300000002852940000000001N050423000000000000000000000000000000000000000000000000000000000000000100007552151846MAURO BORDONI                           AVENIDA DR. AUGUSTO DE TOLEDO - 769 AP.6            09540080                                                            000092
2SR. CAIXA, APOS O VENCIMENTO COBRAR 2% DE MULTA                                 NAO RECEBER APOS 30 DIAS DO VENCIMENTO.                                                                                                                                                                                                         05042300000000000000504230000000000000       0090339900009954075521042314000093
100000000000000000000009033990000995400000000000000000000000010002020012744204231700000000002            2  01127442042323042300000003174320000000001N050423000000000000000000000000000000000000000000000000000000000000000100012744201804ADAIL JOSE DE SOUSA                     RUA ROSARIA - 303 - BAIRRO SACADURA CABR            09061080                                                            000095
2SR. CAIXA, APOS O VENCIMENTO COBRAR 2% DE MULTA                                 NAO RECEBER APOS 30 DIAS DO VENCIMENTO.                                                                                                                                                                                                         05042300000000000000504230000000000000       0090339900009954127442042317000096
100000000000000000000009033990000995400000000000000000000000010002020068320604231400000000002            2  01683206042323042300000011241810000000001N050423000000000000000000000000000000000000000000000000000000000000000100068320663849ANTONIO CAVALCANTE LIMA                 RUA AMAZONAS - 1188 - CENTRO - SAO CAETA            09540201                                                            000098
2SR. CAIXA, APOS O VENCIMENTO COBRAR 2% DE MULTA                                 NAO RECEBER APOS 30 DIAS DO VENCIMENTO.                                                                                                                                                                                                         05042300000000000000504230000000000000       0090339900009954683206042314000099
100000000000000000000009033990000995400000000000000000000000010002020088926204231600000000002            2  01889262042323042300000002361630000000001N050423000000000000000000000000000000000000000000000000000000000000000100088926230872VALDEMAR LATANCE FILHO                  RUA MELO PINTO DA SILVA - 111 CASA 103 -            18116265                                                            000101
2SR. CAIXA, APOS O VENCIMENTO COBRAR 2% DE MULTA                                 NAO RECEBER APOS 30 DIAS DO VENCIMENTO.                                                                                                                                                                                                         05042300000000000000504230000000000000       0090339900009954889262042316000102
100000000000000000000009033990000995400000000000000000000000010002020004195304231300000000002            2  01041953042323042300000003082310000000001N050423000000000000000000000000000000000000000000000000000000000000000100004195345804LUIZ CARLOS SILVESTRE                   RUA CONDE VICENTE AZEVEDO - 377 - BAIRRO            04264000                                                            000104
2SR. CAIXA, APOS O VENCIMENTO COBRAR 2% DE MULTA                                 NAO RECEBER APOS 30 DIAS DO VENCIMENTO.                                                                                                                                                                                                         05042300000000000000504230000000000000       0090339900009954041953042313000105
9                                                                                                                                                                                                                                                                                                                                                                                                         000106