01REMESSA01COBRANCA       00000000000008017025HB SANTOS CONSTRUTORA E INCORP237BRADESCO       010717        MX0000033                                                                                                                                                                                                                                                                                     000001
100000000000000000000009033990000627000000000000000000000000010002020016725138171700000000002            2  01167251381709071700000002125290000000001N010717000000000000000000000000000000000000000000000000000000000000000100029671526845ROGERIO CONSENTINO                      RUA CARLOS MAZER  - 678 - VILA CARMOSINA            08290700                                                            000002
2SR. CAIXA, APOS O VENCIMENTO COBRAR 2% DE MULTA                                 NAO RECEBER APOS 30 DIAS DO VENCIMENTO.                                                                                                                                                                                                         01071700000000000000107170000000000000       0090339900006270167251381717000003
100000000000000000000009033990000627000000000000000000000000010002020017075141174500000000002            2  01170751411709071700000002007490000000001N010717000000000000000000000000000000000000000000000000000000000000000100003863075803HERALDO MENQUINI                        RUA OCEANICA AMABILE - 346 AP.415 - CIDA            11704420                                                            000005
2SR. CAIXA, APOS O VENCIMENTO COBRAR 2% DE MULTA                                 NAO RECEBER APOS 30 DIAS DO VENCIMENTO.                                                                                                                                                                                                         01071700000000000000107170000000000000       0090339900006270170751411745000006
100000000000000000000009033990000627000000000000000000000000010002020017222142175000000000002            2  01172221421709071700000002992410000000001N010717000000000000000000000000000000000000000000000000000000000000000100025047474895DEMETRIUS GOLDSTEIN GUEDES              PRACA PALMARES - 28 - MACUCO - SANTOS -             11015330                                                            000008
2SR. CAIXA, APOS O VENCIMENTO COBRAR 2% DE MULTA                                 NAO RECEBER APOS 30 DIAS DO VENCIMENTO.                                                                                                                                                                                                         01071700000000000000107170000000000000       0090339900006270172221421750000009
100000000000000000000009033990000627000000000000000000000000010002020018496145186400000000002            2  01184961451809071700000002371380000000001N010717000000000000000000000000000000000000000000000000000000000000000100067470041834PEDRO RAIMUNDO MAGALHAES                RUA TANCREDO DE ALMEIDA NEVES - 36 - JAR            06865010                                                            000011
2SR. CAIXA, APOS O VENCIMENTO COBRAR 2% DE MULTA                                 NAO RECEBER APOS 30 DIAS DO VENCIMENTO.                                                                                                                                                                                                         01071700000000000000107170000000000000       0090339900006270184961451864000012
100000000000000000000009033990000627000000000000000000000000010002020018753148188200000000002            2  01187531481809071700000002455320000000001N010717000000000000000000000000000000000000000000000000000000000000000100013135261859EDUARDO ZANOLA                          RUA ROLANDO PIETRO BONINI - 46 - JARDIM             09781040                                                            000014
2SR. CAIXA, APOS O VENCIMENTO COBRAR 2% DE MULTA                                 NAO RECEBER APOS 30 DIAS DO VENCIMENTO.                                                                                                                                                                                                         01071700000000000000107170000000000000       0090339900006270187531481882000015
100000000000000000000009033990000627000000000000000000000000010002020018898149189200000000002            2  01188981491809071700000002056490000000001N010717000000000000000000000000000000000000000000000000000000000000000100029028478825LEONARDO LOUZADA                        RUA ILHEUS - QUADRA 31 - 244 - BAIRRO CE            19274000                                                            000017
2SR. CAIXA, APOS O VENCIMENTO COBRAR 2% DE MULTA                                 NAO RECEBER APOS 30 DIAS DO VENCIMENTO.                                                                                                                                                                                                         01071700000000000000107170000000000000       0090339900006270188981491892000018
100000000000000000000009033990000627000000000000000000000000010002020019899156197500000000002            2  01198991561909071700000002972040000000001N010717000000000000000000000000000000000000000000000000000000000000000100032878512847LEONARDO MOURA MONIZ CALDEIRA           RUA BALSA - 682 AP.134 T.02 - VILA ARCAD            02910000                                                            000020
2SR. CAIXA, APOS O VENCIMENTO COBRAR 2% DE MULTA                                 NAO RECEBER APOS 30 DIAS DO VENCIMENTO.                                                                                                                                                                                                         01071700000000000000107170000000000000       0090339900006270198991561975000021
100000000000000000000009033990000627000000000000000000000000010002020020443159201800000000002            2  01204431592009071700000003161700000000001N010717000000000000000000000000000000000000000000000000000000000000000100016479002806LOURDES PEREIRA DE QUEIROZ SECANECHIA   RUA PAULINO CURSI - 437 - CIDADE SAO MAT            03960060                                                            000023
2SR. CAIXA, APOS O VENCIMENTO COBRAR 2% DE MULTA                                 NAO RECEBER APOS 30 DIAS DO VENCIMENTO.                                                                                                                                                                                                         01071700000000000000107170000000000000       0090339900006270204431592018000024
100000000000000000000009033990000627000000000000000000000000010002020020913162205700000000002            2  01209131622009071700000002332770000000001N010717000000000000000000000000000000000000000000000000000000000000000100019635091885IVAN VIEIRA SILVA                       ABRAO JORGE - 3001 - JARDIM INTEGRACAO -            14405397                                                            000026
2SR. CAIXA, APOS O VENCIMENTO COBRAR 2% DE MULTA                                 NAO RECEBER APOS 30 DIAS DO VENCIMENTO.                                                                                                                                                                                                         01071700000000000000107170000000000000       0090339900006270209131622057000027
100000000000000000000009033990000627000000000000000000000000010002020022160170216800000000002            2  01221601702109071700000002295400000000001N010717000000000000000000000000000000000000000000000000000000000000000100009361471805JOSE BARBOSA DA SILVA                   RUA ALFREDO INACIO TRINDADE  - 60 AP.44             02344100                                                            000029
2SR. CAIXA, APOS O VENCIMENTO COBRAR 2% DE MULTA                                 NAO RECEBER APOS 30 DIAS DO VENCIMENTO.                                                                                                                                                                                                         01071700000000000000107170000000000000       0090339900006270221601702168000030
100000000000000000000009033990000627000000000000000000000000010002020022307171217800000000002            2  01223071712109071700000001981440000000001N010717000000000000000000000000000000000000000000000000000000000000000100012756959812ITAMAR JUVENAL DIAS DA SILVA            RUA ELISEU REINALDO MORAES VIEIRA - 90 A            02858000                                                            000032
2SR. CAIXA, APOS O VENCIMENTO COBRAR 2% DE MULTA                                 NAO RECEBER APOS 30 DIAS DO VENCIMENTO.                                                                                                                                                                                                         01071700000000000000107170000000000000       0090339900006270223071712178000033
100000000000000000000009033990000627000000000000000000000000010002020022872175222800000000002            2  01228721752209071700000002342580000000001N010717000000000000000000000000000000000000000000000000000000000000000100002731042842VALTER CERQUEIRA VILLA NOVA             RUA MACHADO - 106 - VILA AUGUSTA - GUARU            07025210                                                            000035
2SR. CAIXA, APOS O VENCIMENTO COBRAR 2% DE MULTA                                 NAO RECEBER APOS 30 DIAS DO VENCIMENTO.                                                                                                                                                                                                         01071700000000000000107170000000000000       0090339900006270228721752228000036
100000000000000000000009033990000627000000000000000000000000010002020023003175222P00000000002            2  01230031752209071700000002342580000000001N010717000000000000000000000000000000000000000000000000000000000000000100002731042842VALTER CERQUEIRA VILLA NOVA             RUA MACHADO - 106 - VILA AUGUSTA - GUARU            07025210                                                            000038
2SR. CAIXA, APOS O VENCIMENTO COBRAR 2% DE MULTA                                 NAO RECEBER APOS 30 DIAS DO VENCIMENTO.                                                                                                                                                                                                         01071700000000000000107170000000000000       009033990000627023003175222P000039
100000000000000000000009033990000627000000000000000000000000010002020023160177224200000000002            2  01231601772209071700000002115320000000001N010717000000000000000000000000000000000000000000000000000000000000000100028802158894ELIEL HENRIQUE ZUZA                     RUA MONTE CASTELO - 262 AP.14 - BAIRRO A            11702720                                                            000041
2SR. CAIXA, APOS O VENCIMENTO COBRAR 2% DE MULTA                                 NAO RECEBER APOS 30 DIAS DO VENCIMENTO.                                                                                                                                                                                                         01071700000000000000107170000000000000       0090339900006270231601772242000042
100000000000000000000009033990000627000000000000000000000000010002020023309178225900000000002            2  01233091782209071700000001978360000000001N010717000000000000000000000000000000000000000000000000000000000000000100008739150895VANGEVALDO BATISTA SANT ANNA            TRAVESSA TOMAZIN - 02 - ERMELINO MATARAZ            03811125                                                            000044
2SR. CAIXA, APOS O VENCIMENTO COBRAR 2% DE MULTA                                 NAO RECEBER APOS 30 DIAS DO VENCIMENTO.                                                                                                                                                                                                         01071700000000000000107170000000000000       0090339900006270233091782259000045
100000000000000000000009033990000627000000000000000000000000010002020023747181228800000000002            2  01237471812211071700000001766400000000001N010717000000000000000000000000000000000000000000000000000000000000000100005313717863EDIMICIO JOSE DE ARAUJO                 PRACA NICOLAU GERAIGIRE - 680 CA A - JAR            11095110                                                            000047
2SR. CAIXA, APOS O VENCIMENTO COBRAR 2% DE MULTA                                 NAO RECEBER APOS 30 DIAS DO VENCIMENTO.                                                                                                                                                                                                         01071700000000000000107170000000000000       0090339900006270237471812288000048
100000000000000000000009033990000627000000000000000000000000010002020023893182229100000000002            2  01238931822211071700000001696910000000001N010717000000000000000000000000000000000000000000000000000000000000000100029433631897MARIO MUNIZ                             RUA LIBERO BADARO - 1115 - BAIRRO CIDADE            11704070                                                            000050
2SR. CAIXA, APOS O VENCIMENTO COBRAR 2% DE MULTA                                 NAO RECEBER APOS 30 DIAS DO VENCIMENTO.                                                                                                                                                                                                         01071700000000000000107170000000000000       0090339900006270238931822291000051
100000000000000000000009033990000627000000000000000000000000010002020024037183230400000000002            2  01240371832311071700000001521710000000001N010717000000000000000000000000000000000000000000000000000000000000000100038856851830FELIPE BIANCHI DA COSTA FREITAS         AVENIDA ENGENHEIRO ARMANDO DE ARRUDA PER            04325001                                                            000053
2SR. CAIXA, APOS O VENCIMENTO COBRAR 2% DE MULTA                                 NAO RECEBER APOS 30 DIAS DO VENCIMENTO.                                                                                                                                                                                                         01071700000000000000107170000000000000       0090339900006270240371832304000054
100000000000000000000009033990000627000000000000000000000000010002020024331180232400000000002            2  01243311802311071700000001562260000000001N010717000000000000000000000000000000000000000000000000000000000000000100001847204864AMERICA CONCEICAO DA SILVA              RUA CAMINHO DO GUARAMAR - 199 AP.11 BLOC            11721050                                                            000056
2SR. CAIXA, APOS O VENCIMENTO COBRAR 2% DE MULTA                                 NAO RECEBER APOS 30 DIAS DO VENCIMENTO.                                                                                                                                                                                                         01071700000000000000107170000000000000       0090339900006270243311802324000057
100000000000000000000009033990000627000000000000000000000000010002020025652189241P00000000002            2  01256521892409071700000002020200000000001N010717000000000000000000000000000000000000000000000000000000000000000100005029828885LAURINETE DA CONCEICAO DE NORONHA       RUA MARIA LUCIA DE TOLEDO LEITE MORAES -            04434040                                                            000059
2SR. CAIXA, APOS O VENCIMENTO COBRAR 2% DE MULTA                                 NAO RECEBER APOS 30 DIAS DO VENCIMENTO.                                                                                                                                                                                                         01071700000000000000107170000000000000       009033990000627025652189241P000060
100000000000000000000009033990000627000000000000000000000000010002020027110195252100000000002            2  01271101952511071700000001646940000000001N010717000000000000000000000000000000000000000000000000000000000000000100027682175818ALINE TEIXEIRA                          RUA CRUZEIRO DO SUL - 309 - JARDIM BOM P            06385060                                                            000062
2SR. CAIXA, APOS O VENCIMENTO COBRAR 2% DE MULTA                                 NAO RECEBER APOS 30 DIAS DO VENCIMENTO.                                                                                                                                                                                                         01071700000000000000107170000000000000       0090339900006270271101952521000063
100000000000000000000009033990000627000000000000000000000000010002020027249195252300000000002            2  01272491952511071700000001646940000000001N010717000000000000000000000000000000000000000000000000000000000000000100027682175818ALINE TEIXEIRA                          RUA CRUZEIRO DO SUL - 309 - JARDIM BOM P            06385060                                                            000065
2SR. CAIXA, APOS O VENCIMENTO COBRAR 2% DE MULTA                                 NAO RECEBER APOS 30 DIAS DO VENCIMENTO.                                                                                                                                                                                                         01071700000000000000107170000000000000       0090339900006270272491952523000066
100000000000000000000009033990000627000000000000000000000000010002020027840200257400000000002            2  01278402002511071700000001654230000000001N010717000000000000000000000000000000000000000000000000000000000000000100013388936889NEUTON DE SOUZA RAMOS                   RUA MARIA CRISTINA - 932 - JARDIM CASQUE            11533160                                                            000068
2SR. CAIXA, APOS O VENCIMENTO COBRAR 2% DE MULTA                                 NAO RECEBER APOS 30 DIAS DO VENCIMENTO.                                                                                                                                                                                                         01071700000000000000107170000000000000       0090339900006270278402002574000069
100000000000000000000009033990000627000000000000000000000000010002020028132202259100000000002            2  01281322022511071700000001685270000000001N010717000000000000000000000000000000000000000000000000000000000000000100012774906865JOSE MILTON SANTIAGO                    RUA BATATAIS - 47 - CIDADE ESTELA - POA             08563140                                                            000071
2SR. CAIXA, APOS O VENCIMENTO COBRAR 2% DE MULTA                                 NAO RECEBER APOS 30 DIAS DO VENCIMENTO.                                                                                                                                                                                                         01071700000000000000107170000000000000       0090339900006270281322022591000072
100000000000000000000009033990000627000000000000000000000000010002020028283203260100000000002            2  01282832032609071700000002943940000000001N010717000000000000000000000000000000000000000000000000000000000000000100004234989835LUIZ ISRAEL DA COSTA                    AVENIDA FERNANDO PACHECO JORDAO - 907 -             08121510                                                            000074
2SR. CAIXA, APOS O VENCIMENTO COBRAR 2% DE MULTA                                 NAO RECEBER APOS 30 DIAS DO VENCIMENTO.                                                                                                                                                                                                         01071700000000000000107170000000000000       0090339900006270282832032601000075
100000000000000000000009033990000627000000000000000000000000010002020028428204261500000000002            2  01284282042609071700000002005710000000001N010717000000000000000000000000000000000000000000000000000000000000000100016294119812JURACY FELIX DE ARRUDA                  RUA ERNA - 13 - ALTO DA MOOCA - SAO PAUL            03165050                                                            000077
2SR. CAIXA, APOS O VENCIMENTO COBRAR 2% DE MULTA                                 NAO RECEBER APOS 30 DIAS DO VENCIMENTO.                                                                                                                                                                                                         01071700000000000000107170000000000000       0090339900006270284282042615000078
100000000000000000000009033990000627000000000000000000000000010002020028721206263400000000002            2  01287212062611071700000001634490000000001N010717000000000000000000000000000000000000000000000000000000000000000100040266261809EDUARDO CESAR PESTANA                   AVENIDA BRIGADEIRO TOBIAS - 200 AP.106 C            11700410                                                            000080
2SR. CAIXA, APOS O VENCIMENTO COBRAR 2% DE MULTA                                 NAO RECEBER APOS 30 DIAS DO VENCIMENTO.                                                                                                                                                                                                         01071700000000000000107170000000000000       0090339900006270287212062634000081
9                                                                                                                                                                                                                                                                                                                                                                                                         000082