01REMESSA01COBRANCA       00000000000008017025HB SANTOS CONSTRUTORA E INCORP237BRADESCO       071223        MX0000192                                                                                                                                                                                                                                                                                     000001
100000000000000000000009033990000627000000000000000000000000010002020025035112231400000000002            2  01250351122324122300000003191980000000001N061223000000000000000000000000000000000000000000000000000000000000000100025035170802WANDERSON LUIS DE CARVALHO              RUA JOAQUIM GONCALVES ROCHA - 302 - JARD            02859030                                                            000002
2SR. CAIXA, APOS O VENCIMENTO COBRAR 2% DE MULTA                                 NAO RECEBER APOS 30 DIAS DO VENCIMENTO.                                                                                                                                                                                                         07122300000000000000712230000000000000       0090339900006270250351122314000003
100000000000000000000009033990000627000000000000000000000000010002020007294312231100000000002            2  01072943122324122300000004293230000000001N061223000000000000000000000000000000000000000000000000000000000000000100007294351805CLAUDENIR APARECIDO VACARI              RUA CARLOS JOSE BORSTENS - 50 AP.93 - AV            11702750                                                            000005
2SR. CAIXA, APOS O VENCIMENTO COBRAR 2% DE MULTA                                 NAO RECEBER APOS 30 DIAS DO VENCIMENTO.                                                                                                                                                                                                         07122300000000000000712230000000000000       0090339900006270072943122311000006
100000000000000000000009033990000627000000000000000000000000010002020002841712231600000000002            2  01028417122324122300000003941110000000001N061223000000000000000000000000000000000000000000000000000000000000000100002841756416LUCIANA PINHEIRO DE ASSIS NUNES         RUA RIO ACIMA - 81 - RIACHO GRANDE - SAO            09830100                                                            000008
2SR. CAIXA, APOS O VENCIMENTO COBRAR 2% DE MULTA                                 NAO RECEBER APOS 30 DIAS DO VENCIMENTO.                                                                                                                                                                                                         07122300000000000000712230000000000000       0090339900006270028417122316000009
100000000000000000000009033990000627000000000000000000000000010002020084302012231500000000002            2  01843020122324122300000003960020000000001N061223000000000000000000000000000000000000000000000000000000000000000100084302097868FAUSTO TADEU VILOR                      RUA ANTONIO TAVARES - 466 - BAIRRO CAMBU            01542010                                                            000011
2SR. CAIXA, APOS O VENCIMENTO COBRAR 2% DE MULTA                                 NAO RECEBER APOS 30 DIAS DO VENCIMENTO.                                                                                                                                                                                                         07122300000000000000712230000000000000       0090339900006270843020122315000012
100000000000000000000009033990000627000000000000000000000000010002020000991712231800000000002            2  01009917122324122300000003797540000000001N061223000000000000000000000000000000000000000000000000000000000000000100000991748808JAILSON BORGES DE ANDRADE               RUA IPIOBUNA - 45 - JARDIM CUMBICA - GUA            07240040                                                            000014
2SR. CAIXA, APOS O VENCIMENTO COBRAR 2% DE MULTA                                 NAO RECEBER APOS 30 DIAS DO VENCIMENTO.                                                                                                                                                                                                         07122300000000000000712230000000000000       0090339900006270009917122318000015
100000000000000000000009033990000627000000000000000000000000010002020022151612231400000000002            2  01221516122324122300000003775490000000001N061223000000000000000000000000000000000000000000000000000000000000000100022151666816SAMIR LIMA DE ARAUJO                    AVENIDA GUARAPIRANGA - 2616 AP.131 BL.14            04902005                                                            000017
2SR. CAIXA, APOS O VENCIMENTO COBRAR 2% DE MULTA                                 NAO RECEBER APOS 30 DIAS DO VENCIMENTO.                                                                                                                                                                                                         07122300000000000000712230000000000000       0090339900006270221516122314000018
100000000000000000000009033990000627000000000000000000000000010002020022313112231600000000002            2  01223131122326122300000002903800000000001N061223000000000000000000000000000000000000000000000000000000000000000100022313116824ROSA MARIA BRITO DA SILVA               RUA SERVIDAO DE SAO MARCOS - 128 CASA 1             04930300                                                            000020
2SR. CAIXA, APOS O VENCIMENTO COBRAR 2% DE MULTA                                 NAO RECEBER APOS 30 DIAS DO VENCIMENTO.                                                                                                                                                                                                         07122300000000000000712230000000000000       0090339900006270223131122316000021
100000000000000000000009033990000627000000000000000000000000010002020027538012231800000000002            2  01275380122326122300000002913900000000001N061223000000000000000000000000000000000000000000000000000000000000000100027538087249MARA LUCIA MENEZES DA COSTA             RUA LEILA  - 183 - ITAQUERA - SAO PAULO             08240020                                                            000023
2SR. CAIXA, APOS O VENCIMENTO COBRAR 2% DE MULTA                                 NAO RECEBER APOS 30 DIAS DO VENCIMENTO.                                                                                                                                                                                                         07122300000000000000712230000000000000       0090339900006270275380122318000024
100000000000000000000009033990000627000000000000000000000000010002020031278412231400000000002            2  01312784122324122300000003647220000000001N061223000000000000000000000000000000000000000000000000000000000000000100031278411836JEFFERSON DE PIERI PIRES ZAMUNER        RUA MANOEL ARCE - 277 - PARQUE BANCARIO             03922150                                                            000026
2SR. CAIXA, APOS O VENCIMENTO COBRAR 2% DE MULTA                                 NAO RECEBER APOS 30 DIAS DO VENCIMENTO.                                                                                                                                                                                                         07122300000000000000712230000000000000       0090339900006270312784122314000027
100000000000000000000009033990000627000000000000000000000000010002020019185712231600000000002            2  01191857122326122300000002651760000000001N061223000000000000000000000000000000000000000000000000000000000000000100019185769800AGUINALDO PESSOA DE LIMA                RUA JANUARIO ZINGARO - 252 AP.303 BL.04             05794300                                                            000029
2SR. CAIXA, APOS O VENCIMENTO COBRAR 2% DE MULTA                                 NAO RECEBER APOS 30 DIAS DO VENCIMENTO.                                                                                                                                                                                                         07122300000000000000712230000000000000       0090339900006270191857122316000030
100000000000000000000009033990000627000000000000000000000000010002020033303612231700000000002            2  01333036122326122300000002856130000000001N061223000000000000000000000000000000000000000000000000000000000000000100033303645809JESSICA DA SILVA FREITAS                RUA ARILDO VALADAO - 120 - JARDIM GUAEMB            04814600                                                            000032
2SR. CAIXA, APOS O VENCIMENTO COBRAR 2% DE MULTA                                 NAO RECEBER APOS 30 DIAS DO VENCIMENTO.                                                                                                                                                                                                         07122300000000000000712230000000000000       0090339900006270333036122317000033
100000000000000000000009033990000627000000000000000000000000010002020006422612231200000000002            2  01064226122324122300000003950040000000001N061223000000000000000000000000000000000000000000000000000000000000000100006422607881GERALDO ALVES DA SILVA                  RUA CARLOS JOSE BORSTENS - 50 AP.14 - AV            11702750                                                            000035
2SR. CAIXA, APOS O VENCIMENTO COBRAR 2% DE MULTA                                 NAO RECEBER APOS 30 DIAS DO VENCIMENTO.                                                                                                                                                                                                         07122300000000000000712230000000000000       0090339900006270064226122312000036
100000000000000000000009033990000627000000000000000000000000010002020033877112231400000000002            2  01338771122326122300000002677710000000001N061223000000000000000000000000000000000000000000000000000000000000000100033877129870HELDER FERREIRA VIANA                   RUA JOSE CALIXTO DO CARMO - 286 AP.35 -             11702690                                                            000038
2SR. CAIXA, APOS O VENCIMENTO COBRAR 2% DE MULTA                                 NAO RECEBER APOS 30 DIAS DO VENCIMENTO.                                                                                                                                                                                                         07122300000000000000712230000000000000       0090339900006270338771122314000039
100000000000000000000009033990000627000000000000000000000000010002020087573012231300000000002            2  01875730122326122300000002694890000000001N061223000000000000000000000000000000000000000000000000000000000000000100087573059604VANDERLEY DE ASSIS                      RUA ROMEU ALBANI - 268 - JARDIM PARQUE R            13803810                                                            000041
2SR. CAIXA, APOS O VENCIMENTO COBRAR 2% DE MULTA                                 NAO RECEBER APOS 30 DIAS DO VENCIMENTO.                                                                                                                                                                                                         07122300000000000000712230000000000000       0090339900006270875730122313000042
100000000000000000000009033990000627000000000000000000000000010002020010825512231000000000002            2  01108255122326122300000002812240000000001N061223000000000000000000000000000000000000000000000000000000000000000100010825513847JOSE APARECIDO PEREIRA                  RUA GENERAL OSORIO - 305 - JARDIM TRINTA            11515130                                                            000044
2SR. CAIXA, APOS O VENCIMENTO COBRAR 2% DE MULTA                                 NAO RECEBER APOS 30 DIAS DO VENCIMENTO.                                                                                                                                                                                                         07122300000000000000712230000000000000       0090339900006270108255122310000045
100000000000000000000009033990000627000000000000000000000000010002020039115112231200000000002            2  01391151122326122300000003466600000000001N061223000000000000000000000000000000000000000000000000000000000000000100039115139840LAIS CRISTINA RIBEIRO ANDO              RUA JOSE CALIXTO DO CARMO - 286 AP.65 -             11702690                                                            000047
2SR. CAIXA, APOS O VENCIMENTO COBRAR 2% DE MULTA                                 NAO RECEBER APOS 30 DIAS DO VENCIMENTO.                                                                                                                                                                                                         07122300000000000000712230000000000000       0090339900006270391151122312000048
100000000000000000000009033990000627000000000000000000000000010002020000593212231000000000002            2  01005932122324122300000004252210000000001N061223000000000000000000000000000000000000000000000000000000000000000100000593293860WALTER HELIO BARBOSA FILHO              AVENIDA ANTONIO FREDERICO OZANAN - 9500             13214206                                                            000050
2SR. CAIXA, APOS O VENCIMENTO COBRAR 2% DE MULTA                                 NAO RECEBER APOS 30 DIAS DO VENCIMENTO.                                                                                                                                                                                                         07122300000000000000712230000000000000       0090339900006270005932122310000051
100000000000000000000009033990000627000000000000000000000000010002020006684612231500000000002            2  01066846122326122300000002855830000000001N061223000000000000000000000000000000000000000000000000000000000000000100006684623884LAUDINOR VIEIRA GARCIA                  RUA CANDIDO SALES - 374 - JARDIM PRESIDE            07172000                                                            000053
2SR. CAIXA, APOS O VENCIMENTO COBRAR 2% DE MULTA                                 NAO RECEBER APOS 30 DIAS DO VENCIMENTO.                                                                                                                                                                                                         07122300000000000000712230000000000000       0090339900006270066846122315000054
100000000000000000000009033990000627000000000000000000000000010002020011663512231600000000002            2  01116635122326122300000002876350000000001N061223000000000000000000000000000000000000000000000000000000000000000100011663589844MARIA SAVIO QUARELLO                    AVENIDA MENDONCA DRUMOND - 321 - JARDIM             03524030                                                            000056
2SR. CAIXA, APOS O VENCIMENTO COBRAR 2% DE MULTA                                 NAO RECEBER APOS 30 DIAS DO VENCIMENTO.                                                                                                                                                                                                         07122300000000000000712230000000000000       0090339900006270116635122316000057
100000000000000000000009033990000627000000000000000000000000010002020010083812231800000000002            2  01100838122326122300000002779030000000001N061223000000000000000000000000000000000000000000000000000000000000000100010083824855IONE FERREIRA COUTO DA SILVA            RUA JOSE RAGEL DE MESQUITA - 60 CS.01 -             07799999                                                            000059
2SR. CAIXA, APOS O VENCIMENTO COBRAR 2% DE MULTA                                 NAO RECEBER APOS 30 DIAS DO VENCIMENTO.                                                                                                                                                                                                         07122300000000000000712230000000000000       0090339900006270100838122318000060
100000000000000000000009033990000627000000000000000000000000010002020031010712231300000000002            2  01310107122326122300000002727120000000001N061223000000000000000000000000000000000000000000000000000000000000000100031010705890ANDRE GONZALEZ RABELLO                  RUA PARAIBA - 106 AP.61 - POMPEIA - SANT            11065470                                                            000062
2SR. CAIXA, APOS O VENCIMENTO COBRAR 2% DE MULTA                                 NAO RECEBER APOS 30 DIAS DO VENCIMENTO.                                                                                                                                                                                                         07122300000000000000712230000000000000       0090339900006270310107122313000063
100000000000000000000009033990000627000000000000000000000000010002020005351012231200000000002            2  01053510122326122300000002556940000000001N061223000000000000000000000000000000000000000000000000000000000000000100005351015897VALERIA ALVES MARCOLINO HINNIGER        RUA JOSE CALIXTO DO CARMO - 286 AP.92 -             11702690                                                            000065
2SR. CAIXA, APOS O VENCIMENTO COBRAR 2% DE MULTA                                 NAO RECEBER APOS 30 DIAS DO VENCIMENTO.                                                                                                                                                                                                         07122300000000000000712230000000000000       0090339900006270053510122312000066
100000000000000000000009033990000627000000000000000000000000010002020031898712231800000000002            2  01318987122324122300000004068680000000001N061223000000000000000000000000000000000000000000000000000000000000000100031898775800ANITA MARTINS COLOMBO                   RUA CARLOS JOSE BORSTENS - 50 AP.115 - A            11702750                                                            000068
2SR. CAIXA, APOS O VENCIMENTO COBRAR 2% DE MULTA                                 NAO RECEBER APOS 30 DIAS DO VENCIMENTO.                                                                                                                                                                                                         07122300000000000000712230000000000000       0090339900006270318987122318000069
100000000000000000000009033990000627000000000000000000000000010002020037983412231800000000002            2  01379834122326122300000003003620000000001N061223000000000000000000000000000000000000000000000000000000000000000100037983484801JOSE ERIVALDO SOUZA DO NASCIMENTO RAMOS RUA LETICIA - 250 - JARDIM GUARUJA - SAO            05877260                                                            000071
2SR. CAIXA, APOS O VENCIMENTO COBRAR 2% DE MULTA                                 NAO RECEBER APOS 30 DIAS DO VENCIMENTO.                                                                                                                                                                                                         07122300000000000000712230000000000000       0090339900006270379834122318000072
100000000000000000000009033990000627000000000000000000000000010002020056289212231900000000002            2  01562892122326122300000002269050000000001N061223000000000000000000000000000000000000000000000000000000000000000100056289286900PEDRO RIBEIRO                           RUA CONEGO MANOEL VAZ - 48 - SANTANA - S            02019050                                                            000074
2SR. CAIXA, APOS O VENCIMENTO COBRAR 2% DE MULTA                                 NAO RECEBER APOS 30 DIAS DO VENCIMENTO.                                                                                                                                                                                                         07122300000000000000712230000000000000       0090339900006270562892122319000075
100000000000000000000009033990000627000000000000000000000000010002020034812212231900000000002            2  01348122122324122300000005385090000000001N061223000000000000000000000000000000000000000000000000000000000000000100034812226880THAIS TORQUATO MIMOSO DE JESUS          RUA ARNALDO CINTRA - 416 AP.104 TORRE 2             03088000                                                            000077
2SR. CAIXA, APOS O VENCIMENTO COBRAR 2% DE MULTA                                 NAO RECEBER APOS 30 DIAS DO VENCIMENTO.                                                                                                                                                                                                         07122300000000000000712230000000000000       0090339900006270348122122319000078
100000000000000000000009033990000627000000000000000000000000010002020012849412231500000000002            2  01128494122326122300000005364880000000001N061223000000000000000000000000000000000000000000000000000000000000000100012849428809MOISES CLAUDIO DO ROSARIO               AVENIDA DR. AUGUSTO DE TOLEDO - 510 AP.1            09541520                                                            000080
2SR. CAIXA, APOS O VENCIMENTO COBRAR 2% DE MULTA                                 NAO RECEBER APOS 30 DIAS DO VENCIMENTO.                                                                                                                                                                                                         07122300000000000000712230000000000000       0090339900006270128494122315000081
100000000000000000000009033990000627000000000000000000000000010002020014087412231800000000002            2  01140874122326122300000002961940000000001N061223000000000000000000000000000000000000000000000000000000000000000100014087484874SERGIO SANTOS DO NASCIMENTO             RUA JOSE CALIXTO DO CARMO - 286 AP.52 -             11702690                                                            000083
2SR. CAIXA, APOS O VENCIMENTO COBRAR 2% DE MULTA                                 NAO RECEBER APOS 30 DIAS DO VENCIMENTO.                                                                                                                                                                                                         07122300000000000000712230000000000000       0090339900006270140874122318000084
100000000000000000000009033990000627000000000000000000000000010002020026834512231700000000002            2  01268345122326122300000002729080000000001N061223000000000000000000000000000000000000000000000000000000000000000100026834550895RAQUEL CARDOSO JOAO                     RUA PEDROSO XAVIER - 277 AP.23 TORRE 01             02732020                                                            000086
2SR. CAIXA, APOS O VENCIMENTO COBRAR 2% DE MULTA                                 NAO RECEBER APOS 30 DIAS DO VENCIMENTO.                                                                                                                                                                                                         07122300000000000000712230000000000000       0090339900006270268345122317000087
100000000000000000000009033990000627000000000000000000000000010002020039540012231500000000002            2  01395400122326122300000002683060000000001N061223000000000000000000000000000000000000000000000000000000000000000100039540008816LUZINETE CLARINDO SILVA                 RUA DEINOS - 275 - BAIRRO CIDADE SATELIT            08340100                                                            000089
2SR. CAIXA, APOS O VENCIMENTO COBRAR 2% DE MULTA                                 NAO RECEBER APOS 30 DIAS DO VENCIMENTO.                                                                                                                                                                                                         07122300000000000000712230000000000000       0090339900006270395400122315000090
100000000000000000000009033990000627000000000000000000000000010002020003311012231200000000002            2  01033110122326122300000002794110000000001N061223000000000000000000000000000000000000000000000000000000000000000100003311030877SEBASTIAO SARUVA NETO                   RUA HAMILTON REGIS - 559 - BAIRRO DO LIM            08051440                                                            000092
2SR. CAIXA, APOS O VENCIMENTO COBRAR 2% DE MULTA                                 NAO RECEBER APOS 30 DIAS DO VENCIMENTO.                                                                                                                                                                                                         07122300000000000000712230000000000000       0090339900006270033110122312000093
100000000000000000000009033990000627000000000000000000000000010002020090091912231900000000002            2  01900919122326122300000002670740000000001N061223000000000000000000000000000000000000000000000000000000000000000100090091990882JUECIR CARVALHO DA LUZ                  RUA JOSE CALIXTO DO CARMO - 286 AP.114 -            11702690                                                            000095
2SR. CAIXA, APOS O VENCIMENTO COBRAR 2% DE MULTA                                 NAO RECEBER APOS 30 DIAS DO VENCIMENTO.                                                                                                                                                                                                         07122300000000000000712230000000000000       0090339900006270900919122319000096
100000000000000000000009033990000627000000000000000000000000010002020037325912231000000000002            2  01373259122326122300000002185620000000001N061223000000000000000000000000000000000000000000000000000000000000000100037325923830MARIA AUGUSTA OLIVEIRA DE ANDRADE       RUA JOSE CALIXTO DO CARMO - 286 AP.124 -            11702690                                                            000098
2SR. CAIXA, APOS O VENCIMENTO COBRAR 2% DE MULTA                                 NAO RECEBER APOS 30 DIAS DO VENCIMENTO.                                                                                                                                                                                                         07122300000000000000712230000000000000       0090339900006270373259122310000099
100000000000000000000009033990000627000000000000000000000000010002020012478812231800000000002            2  01124788122324122300000003979670000000001N061223000000000000000000000000000000000000000000000000000000000000000100012478899809VITORIA BATISTA QUEIROZ                 RUA CARVALHO DE FREITAS - 255 AP.71A - V            05728030                                                            000101
2SR. CAIXA, APOS O VENCIMENTO COBRAR 2% DE MULTA                                 NAO RECEBER APOS 30 DIAS DO VENCIMENTO.                                                                                                                                                                                                         07122300000000000000712230000000000000       0090339900006270124788122318000102
100000000000000000000009033990000627000000000000000000000000010002020013184812231900000000002            2  01131848122326122300000002640370000000001N061223000000000000000000000000000000000000000000000000000000000000000100013184856810SYDNEY HENRIQUE GAMARANO JUNIOR         RUA JOSE CALIXTO DO CARMO - 286 AP.125 -            11702690                                                            000104
2SR. CAIXA, APOS O VENCIMENTO COBRAR 2% DE MULTA                                 NAO RECEBER APOS 30 DIAS DO VENCIMENTO.                                                                                                                                                                                                         07122300000000000000712230000000000000       0090339900006270131848122319000105
100000000000000000000009033990000627000000000000000000000000010002020097989912231200000000002            2  01979899122326122300000001834880000000001N061223000000000000000000000000000000000000000000000000000000000000000100097989924820NELSON LUIS BERRIBILLE                  RUA SILVEIRA IGNACIO SOBRINHO - 965 - VI            13560294                                                            000107
2SR. CAIXA, APOS O VENCIMENTO COBRAR 2% DE MULTA                                 NAO RECEBER APOS 30 DIAS DO VENCIMENTO.                                                                                                                                                                                                         07122300000000000000712230000000000000       0090339900006270979899122312000108
100000000000000000000009033990000627000000000000000000000000010002020097989912232000000000002            2  01979899122326122300000001834870000000001N061223000000000000000000000000000000000000000000000000000000000000000100097989924820NELSON LUIS BERRIBILLE                  RUA SILVEIRA IGNACIO SOBRINHO - 965 - VI            13560294                                                            000110
2SR. CAIXA, APOS O VENCIMENTO COBRAR 2% DE MULTA                                 NAO RECEBER APOS 30 DIAS DO VENCIMENTO.                                                                                                                                                                                                         07122300000000000000712230000000000000       0090339900006270979899122320000111
100000000000000000000009033990000627000000000000000000000000010002020032341812231100000000002            2  01323418122324122300000004133770000000001N061223000000000000000000000000000000000000000000000000000000000000000100032341847803PRISCILA ALVES DE FRANCA MIRANDA        RUA CARLOS JOSE BORSTENS - 50 AP.91 - AV            11702750                                                            000113
2SR. CAIXA, APOS O VENCIMENTO COBRAR 2% DE MULTA                                 NAO RECEBER APOS 30 DIAS DO VENCIMENTO.                                                                                                                                                                                                         07122300000000000000712230000000000000       0090339900006270323418122311000114
100000000000000000000009033990000627000000000000000000000000010002020016050612231700000000002            2  01160506122324122300000003836930000000001N061223000000000000000000000000000000000000000000000000000000000000000100016050684898ANDRE RODRIGUES DE OLIVEIRA             RUA CORACAO PAULISTA - 14 - FAZENDA ITAI            08132430                                                            000116
2SR. CAIXA, APOS O VENCIMENTO COBRAR 2% DE MULTA                                 NAO RECEBER APOS 30 DIAS DO VENCIMENTO.                                                                                                                                                                                                         07122300000000000000712230000000000000       0090339900006270160506122317000117
100000000000000000000009033990000627000000000000000000000000010002020021464912231000000000002            2  01214649122324122300000006047090000000001N061223000000000000000000000000000000000000000000000000000000000000000100021464965846ANDREA APARECIDA DE OLIVEIRA PECCI      RUA ANTONIO BOZ MARFIL - 103 - PARQUE DO            05396020                                                            000119
2SR. CAIXA, APOS O VENCIMENTO COBRAR 2% DE MULTA                                 NAO RECEBER APOS 30 DIAS DO VENCIMENTO.                                                                                                                                                                                                         07122300000000000000712230000000000000       0090339900006270214649122310000120
100000000000000000000009033990000627000000000000000000000000010002020030348112231200000000002            2  01303481122324122300000003663940000000001N061223000000000000000000000000000000000000000000000000000000000000000100030348198892KELLY CRISTINA CORDEIRO                 RUA CARLOS JOSE BORSTENS - 50 AP.25 - AV            11702750                                                            000122
2SR. CAIXA, APOS O VENCIMENTO COBRAR 2% DE MULTA                                 NAO RECEBER APOS 30 DIAS DO VENCIMENTO.                                                                                                                                                                                                         07122300000000000000712230000000000000       0090339900006270303481122312000123
100000000000000000000009033990000627000000000000000000000000010002020003597512231000000000002            2  01035975122326122300000002467900000000001N061223000000000000000000000000000000000000000000000000000000000000000100003597509827ANISIO FAUSTINO DE OLIVEIRA             RUA DOMINGOS DE MAMBRO - 5 CASA 20 - CIT            06040290                                                            000125
2SR. CAIXA, APOS O VENCIMENTO COBRAR 2% DE MULTA                                 NAO RECEBER APOS 30 DIAS DO VENCIMENTO.                                                                                                                                                                                                         07122300000000000000712230000000000000       0090339900006270035975122310000126
9                                                                                                                                                                                                                                                                                                                                                                                                         000127