01REMESSA01COBRANCA       00000000000004991781AIRES CONSTRUTORA E INCORPORAD237BRADESCO       011017        MX0000091                                                                                                                                                                                                                                                                                     000001
100000000000000000000009077090006612500000000000000000000000010002100000000008211500000000002            2  01000000821110101700000002116810000000001N011017000000000000000000000000000000000000000000000000000000000000000100094852294887GISELDA MENON                           RUA OTAVIO BARRETO - 105 - VILA SANTISTA            02560080                                                            000002
2SR. CAIXA, APOS O VENCIMENTO COBRAR 10% DE MULTA                                NAO RECEBER APOS 30 DIAS DO VENCIMENTO.                                                                                                                                                                                                         01101700000000000000110170000000000000       0090770900066125000000082115000003
100000000000000000000009077090006612500000000000000000000000010002100000000028633000000000002            2  01000002863310101700000003246500000000001N011017000000000000000000000000000000000000000000000000000000000000000100006485911820CELIO MANUEL  MELIM SANTO               RUA JUVENAL FERREIRA  - 85 AP.61 - VILA             03512040                                                            000005
2SR. CAIXA, APOS O VENCIMENTO COBRAR 10% DE MULTA                                NAO RECEBER APOS 30 DIAS DO VENCIMENTO.                                                                                                                                                                                                         01101700000000000000110170000000000000       0090770900066125000000286330000006
100000000000000000000009077090006612500000000000000000000000010002100000000059666600000000002            2  01000005966610101700000002829560000000001N011017000000000000000000000000000000000000000000000000000000000000000100004693857823NIVALDO BARTOLOMEU FERREIRA             MNS JOSE MARINONI  - 33 - SANTO AMARO -             04430350                                                            000008
2SR. CAIXA, APOS O VENCIMENTO COBRAR 10% DE MULTA                                NAO RECEBER APOS 30 DIAS DO VENCIMENTO.                                                                                                                                                                                                         01101700000000000000110170000000000000       0090770900066125000000596666000009
100000000000000000000009077090006612500000000000000000000000010002100000000079988500000000002            2  01000007998810101700000002694380000000001N011017000000000000000000000000000000000000000000000000000000000000000100027993108853DALVA JESUS RODRIGUES CABRAL            RUA CRISTOVAO COLOMBO GONCALVES - 97 - C            04811050                                                            000011
2SR. CAIXA, APOS O VENCIMENTO COBRAR 10% DE MULTA                                NAO RECEBER APOS 30 DIAS DO VENCIMENTO.                                                                                                                                                                                                         01101700000000000000110170000000000000       0090770900066125000000799885000012
100000000000000000000009077090006612500000000000000000000000010002100000010021010200000000002            2  01001002101010101700000002798840000000001N011017000000000000000000000000000000000000000000000000000000000000000100000455495831PAULO HENRIQUE LOURENCO                 RUA FIGUEIRA  - 237 - CIDADE DAS FLORES             06184060                                                            000014
2SR. CAIXA, APOS O VENCIMENTO COBRAR 10% DE MULTA                                NAO RECEBER APOS 30 DIAS DO VENCIMENTO.                                                                                                                                                                                                         01101700000000000000110170000000000000       0090770900066125000100210102000015
100000000000000000000009077090006612500000000000000000000000010002100000019081919400000000002            2  01001908191910101700000003470960000000001N011017000000000000000000000000000000000000000000000000000000000000000100006140049857MARIA ALBANI DA SILVA EUSEBIO           RUA ORLANDO SEGALA - 108 - JARDIM ADRIAN            07135190                                                            000017
2SR. CAIXA, APOS O VENCIMENTO COBRAR 10% DE MULTA                                NAO RECEBER APOS 30 DIAS DO VENCIMENTO.                                                                                                                                                                                                         01101700000000000000110170000000000000       0090770900066125000190819194000018
100000000000000000000009077090006612500000000000000000000000010002100000031192931600000000002            2  01003119293110101700000003403650000000001N011017000000000000000000000000000000000000000000000000000000000000000100002324785897IZILDA NAPOLI                           RUA MONTE CASTELO - 295 AP.71 - AVIACAO             11702720                                                            000020
2SR. CAIXA, APOS O VENCIMENTO COBRAR 10% DE MULTA                                NAO RECEBER APOS 30 DIAS DO VENCIMENTO.                                                                                                                                                                                                         01101700000000000000110170000000000000       0090770900066125000311929316000021
100000000000000000000009077090006612500000000000000000000000010002100000036093136900000000002            2  01003609313610101700000003525890000000001N011017000000000000000000000000000000000000000000000000000000000000000100007768713826FATIMA LUZIA BIANCHI                    DR. OLIDAIR AMBROSIO - 1487 AP.03 - CENT            14160170                                                            000023
2SR. CAIXA, APOS O VENCIMENTO COBRAR 10% DE MULTA                                NAO RECEBER APOS 30 DIAS DO VENCIMENTO.                                                                                                                                                                                                         01101700000000000000110170000000000000       0090770900066125000360931369000024
100000000000000000000009077090006612500000000000000000000000010002100000038943639100000000002            2  01003894363910101700000003473550000000001N011017000000000000000000000000000000000000000000000000000000000000000100021716847800DANIELLE FAGUNDES DE A.MATOS            CONDE MOREIRA LIMA - 644 - JARDIM JABAQU            04384032                                                            000026
2SR. CAIXA, APOS O VENCIMENTO COBRAR 10% DE MULTA                                NAO RECEBER APOS 30 DIAS DO VENCIMENTO.                                                                                                                                                                                                         01101700000000000000110170000000000000       0090770900066125000389436391000027
100000000000000000000009077090006612500000000000000000000000010002100000041933842P00000000002            2  01004193384210101700000002901960000000001N011017000000000000000000000000000000000000000000000000000000000000000100028196184808VANESSA NOGUEIRA CAMBUI DA SILVA        CRISTOVAO COLOMBO - 217 - VILA AMERICA -            09110160                                                            000029
2SR. CAIXA, APOS O VENCIMENTO COBRAR 10% DE MULTA                                NAO RECEBER APOS 30 DIAS DO VENCIMENTO.                                                                                                                                                                                                         01101700000000000000110170000000000000       009077090006612500041933842P000030
100000000000000000000009077090006612500000000000000000000000010002100000044824145100000000002            2  01004482414510101700000002944580000000001N011017000000000000000000000000000000000000000000000000000000000000000100085416940891ANTONIO DE SOUSA MENDES                 RUA MONTE CASTELO - 296 AP.52 - AVIACAO             11702720                                                            000032
2SR. CAIXA, APOS O VENCIMENTO COBRAR 10% DE MULTA                                NAO RECEBER APOS 30 DIAS DO VENCIMENTO.                                                                                                                                                                                                         01101700000000000000110170000000000000       0090770900066125000448241451000033
100000000000000000000009077090006612500000000000000000000000010002100000045844246300000000002            2  01004584424610101700000003066740000000001N011017000000000000000000000000000000000000000000000000000000000000000100005678057863FABIO MOREIRA CAMPOS                    RUA FLORENCIO DA SILVA - 284 - VILA LIBA            03738070                                                            000035
2SR. CAIXA, APOS O VENCIMENTO COBRAR 10% DE MULTA                                NAO RECEBER APOS 30 DIAS DO VENCIMENTO.                                                                                                                                                                                                         01101700000000000000110170000000000000       0090770900066125000458442463000036
100000000000000000000009077090006612500000000000000000000000010002100000046804347800000000002            2  01004680434710101700000003096690000000001N011017000000000000000000000000000000000000000000000000000000000000000100007784496885GUILHERME LEONARDO DO NASCIMENTO        COMENDADOR RUBENS RONCARE - 127 - PONTE             11530120                                                            000038
2SR. CAIXA, APOS O VENCIMENTO COBRAR 10% DE MULTA                                NAO RECEBER APOS 30 DIAS DO VENCIMENTO.                                                                                                                                                                                                         01101700000000000000110170000000000000       0090770900066125000468043478000039
100000000000000000000009077090006612500000000000000000000000010002100000047754448P00000000002            2  01004775444810101700000002991840000000001N011017000000000000000000000000000000000000000000000000000000000000000100016348237885AILTON LORENA                           AVENIDA BRASILIA - 194 - BELA VISTA - SA            09180260                                                            000041
2SR. CAIXA, APOS O VENCIMENTO COBRAR 10% DE MULTA                                NAO RECEBER APOS 30 DIAS DO VENCIMENTO.                                                                                                                                                                                                         01101700000000000000110170000000000000       009077090006612500047754448P000042
100000000000000000000009077090006612500000000000000000000000010002100000051594852200000000002            2  01005159485210101700000002887480000000001N011017000000000000000000000000000000000000000000000000000000000000000100081218486953OSMAR DA COSTA                          RUA MONTE CASTELO - 295 AP.33 - AVIACAO             11702720                                                            000044
2SR. CAIXA, APOS O VENCIMENTO COBRAR 10% DE MULTA                                NAO RECEBER APOS 30 DIAS DO VENCIMENTO.                                                                                                                                                                                                         01101700000000000000110170000000000000       0090770900066125000515948522000045
100000000000000000000009077090006612500000000000000000000000010002100000054605155500000000002            2  01005460515510101700000003279650000000001N011017000000000000000000000000000000000000000000000000000000000000000100004981884850SILVIO PAULINO GONCALVES                MARIA DE CASTRO MESQUITA - 84 AP.103 BLO            07110040                                                            000047
2SR. CAIXA, APOS O VENCIMENTO COBRAR 10% DE MULTA                                NAO RECEBER APOS 30 DIAS DO VENCIMENTO.                                                                                                                                                                                                         01101700000000000000110170000000000000       0090770900066125000546051555000048
100000000000000000000009077090006612500000000000000000000000010002100000055605256800000000002            2  01005560525610101700000002152770000000001N011017000000000000000000000000000000000000000000000000000000000000000100019282546837FABIO LEANDRO DE FREITAS ASSIS          RUA BASSIM NAGIB TRABULSI - 97 - PONTA D            11030540                                                            000050
2SR. CAIXA, APOS O VENCIMENTO COBRAR 10% DE MULTA                                NAO RECEBER APOS 30 DIAS DO VENCIMENTO.                                                                                                                                                                                                         01101700000000000000110170000000000000       0090770900066125000556052568000051
100000000000000000000009077090006612500000000000000000000000010002100000059445660500000000002            2  01005944566010101700000002991770000000001N011017000000000000000000000000000000000000000000000000000000000000000100008423485811EDSON LUIZ NUNES                        RUA NOEMIA PEDROSO BUENO - 41 - JARDIM G            09360440                                                            000053
2SR. CAIXA, APOS O VENCIMENTO COBRAR 10% DE MULTA                                NAO RECEBER APOS 30 DIAS DO VENCIMENTO.                                                                                                                                                                                                         01101700000000000000110170000000000000       0090770900066125000594456605000054
100000000000000000000009077090006612500000000000000000000000010002100000064176165900000000002            2  01006417616510101700000003461850000000001N011017000000000000000000000000000000000000000000000000000000000000000100003010502877GIZELA VIEIRA BARROS                    RUA GIACOMO DALCIN - 157 - MAUA - SAO CA            09580350                                                            000056
2SR. CAIXA, APOS O VENCIMENTO COBRAR 10% DE MULTA                                NAO RECEBER APOS 30 DIAS DO VENCIMENTO.                                                                                                                                                                                                         01101700000000000000110170000000000000       0090770900066125000641761659000057
100000000000000000000009077090006612500000000000000000000000010002100000069176670800000000002            2  01006917667010101700000002818880000000001N011017000000000000000000000000000000000000000000000000000000000000000100012111060801CLAUDIA CRISTINA CRELIS COSTA           RUA RUI BARBOSA - 1736 AP.1533 - VILA SA            19015001                                                            000059
2SR. CAIXA, APOS O VENCIMENTO COBRAR 10% DE MULTA                                NAO RECEBER APOS 30 DIAS DO VENCIMENTO.                                                                                                                                                                                                         01101700000000000000110170000000000000       0090770900066125000691766708000060
100000000000000000000009077090006612500000000000000000000000010002100000070096271P00000000002            2  01007009627110101700000002714240000000001N011017000000000000000000000000000000000000000000000000000000000000000100009777281889CARLITA DE FIGUEIREDO CARVALHO          AVENIDA ALBERTO DE ALMEIDA VINHAS - 4462            11701350                                                            000062
2SR. CAIXA, APOS O VENCIMENTO COBRAR 10% DE MULTA                                NAO RECEBER APOS 30 DIAS DO VENCIMENTO.                                                                                                                                                                                                         01101700000000000000110170000000000000       009077090006612500070096271P000063
100000000000000000000009077090006612500000000000000000000000010002100000073116974000000000002            2  01007311697410101700000003223370000000001N011017000000000000000000000000000000000000000000000000000000000000000100004213020894ELIETE DRUGOVICH DE LIMA                RUA OSVALDO CRUZ - 141 AP.144-B - SANTA             09541270                                                            000065
2SR. CAIXA, APOS O VENCIMENTO COBRAR 10% DE MULTA                                NAO RECEBER APOS 30 DIAS DO VENCIMENTO.                                                                                                                                                                                                         01101700000000000000110170000000000000       0090770900066125000731169740000066
100000000000000000000009077090006612500000000000000000000000010002100000075027176900000000002            2  01007502717610101700000002460170000000001N011017000000000000000000000000000000000000000000000000000000000000000100085839817872MAURO CORREIA MARTINS                   RUA PROFESSOR JOSE AZEVEDO MINHOTO - 72             06114000                                                            000068
2SR. CAIXA, APOS O VENCIMENTO COBRAR 10% DE MULTA                                NAO RECEBER APOS 30 DIAS DO VENCIMENTO.                                                                                                                                                                                                         01101700000000000000110170000000000000       0090770900066125000750271769000069
100000000000000000000009077090006612500000000000000000000000010002100000078763480200000000002            2  01007876348010101700000002197030000000001N011017000000000000000000000000000000000000000000000000000000000000000100043122850800ANTONIO JOAQUIM GOES                    ANTONIO DOAS DA SILVA - 412 - VILA AMALI            02618110                                                            000071
2SR. CAIXA, APOS O VENCIMENTO COBRAR 10% DE MULTA                                NAO RECEBER APOS 30 DIAS DO VENCIMENTO.                                                                                                                                                                                                         01101700000000000000110170000000000000       0090770900066125000787634802000072
100000000000000000000009077090006612500000000000000000000000010002100000086468088P00000000002            2  01008646808810101700000002884560000000001N011017000000000000000000000000000000000000000000000000000000000000000100003865776841FRANCISCO JOSE ROCCO                    RUA FABIO JOSE BEZERRA - 130 AP.86 - PAR            03805000                                                            000074
2SR. CAIXA, APOS O VENCIMENTO COBRAR 10% DE MULTA                                NAO RECEBER APOS 30 DIAS DO VENCIMENTO.                                                                                                                                                                                                         01101700000000000000110170000000000000       009077090006612500086468088P000075
100000000000000000000009077090006612500000000000000000000000010002100000091518393200000000002            2  01009151839310101700000002572360000000001N011017000000000000000000000000000000000000000000000000000000000000000100028309524803DEISE RIBEIRO BARBOSA                   RUA CANDIDO JOSE DE ANDRADE - 173 - ERME            03807030                                                            000077
2SR. CAIXA, APOS O VENCIMENTO COBRAR 10% DE MULTA                                NAO RECEBER APOS 30 DIAS DO VENCIMENTO.                                                                                                                                                                                                         01101700000000000000110170000000000000       0090770900066125000915183932000078
100000000000000000000009077090006612500000000000000000000000010002100000093528695900000000002            2  01009352869510101700000003053090000000001N011017000000000000000000000000000000000000000000000000000000000000000100011277908893JOSE AILTON LOPES DE AZEVEDO            RUA MAESTRO JOAO SEPE - 19 - JARDIM MARI            04181030                                                            000080
2SR. CAIXA, APOS O VENCIMENTO COBRAR 10% DE MULTA                                NAO RECEBER APOS 30 DIAS DO VENCIMENTO.                                                                                                                                                                                                         01101700000000000000110170000000000000       0090770900066125000935286959000081
100000000000000000000009077090006612500000000000000000000000010002100000097818999P00000000002            2  01009781899910101700000002302440000000001N011017000000000000000000000000000000000000000000000000000000000000000100025215106886KLEBER LUIZ DOS SANTOS                  RUA CAPITAO JOSE MEIRELES - 47 - CAPITAO            11330180                                                            000083
2SR. CAIXA, APOS O VENCIMENTO COBRAR 10% DE MULTA                                NAO RECEBER APOS 30 DIAS DO VENCIMENTO.                                                                                                                                                                                                         01101700000000000000110170000000000000       009077090006612500097818999P000084
100000000000000000000009077090006612500000000000000000000000010002100001015093103500000000002            2  01101509310310101700000002571710000000001N011017000000000000000000000000000000000000000000000000000000000000000100090206789815NEREIDE RODRIGUES FERREIRA              AVENIDA PADRE ESTANISLAU DE CAMPOS - 205            03590060                                                            000086
2SR. CAIXA, APOS O VENCIMENTO COBRAR 10% DE MULTA                                NAO RECEBER APOS 30 DIAS DO VENCIMENTO.                                                                                                                                                                                                         01101700000000000000110170000000000000       0090770900066125010150931035000087
100000000000000000000009077090006612500000000000000000000000010002100010876100110600000000002            2  01108761001110101700000003010250000000001N011017000000000000000000000000000000000000000000000000000000000000000100029150742833ANA DEISE SANTOS DE ALMEIDA             RUA MONTE CASTELO - 296 AP.121 - AVIACAO            11702720                                                            000089
2SR. CAIXA, APOS O VENCIMENTO COBRAR 10% DE MULTA                                NAO RECEBER APOS 30 DIAS DO VENCIMENTO.                                                                                                                                                                                                         01101700000000000000110170000000000000       0090770900066125108761001106000090
100000000000000000000009077090006612500000000000000000000000010002100010978101111200000000002            2  01109781011110101700000002479490000000001N011017000000000000000000000000000000000000000000000000000000000000000100000811752801SERGIO BUENO DA SILVA                   RUA MONTE CASTELO - 262 AP.75 - AVIACAO             11702720                                                            000092
2SR. CAIXA, APOS O VENCIMENTO COBRAR 10% DE MULTA                                NAO RECEBER APOS 30 DIAS DO VENCIMENTO.                                                                                                                                                                                                         01101700000000000000110170000000000000       0090770900066125109781011112000093
100000000000000000000009077090006612500000000000000000000000010002100011284104115700000000002            2  01112841041110101700000002368660000000001N011017000000000000000000000000000000000000000000000000000000000000000100027100951810MARCIA RAMALHO RODRIGUES                RUA MONTE CASTELO - 296 AP.82 - AVIACAO             11702720                                                            000095
2SR. CAIXA, APOS O VENCIMENTO COBRAR 10% DE MULTA                                NAO RECEBER APOS 30 DIAS DO VENCIMENTO.                                                                                                                                                                                                         01101700000000000000110170000000000000       0090770900066125112841041157000096
100000000000000000000009077090006612500000000000000000000000010002100011574107118P00000000002            2  01115741071110101700000003151940000000001N011017000000000000000000000000000000000000000000000000000000000000000100018344803888MARCELO BERNARDO                        RUA ESTONIA - 06 - INTERLAGOS - SAO PAUL            04785140                                                            000098
2SR. CAIXA, APOS O VENCIMENTO COBRAR 10% DE MULTA                                NAO RECEBER APOS 30 DIAS DO VENCIMENTO.                                                                                                                                                                                                         01101700000000000000110170000000000000       009077090006612511574107118P000099
100000000000000000000009077090006612500000000000000000000000010002100012584115128300000000002            2  01125841151210101700000002350530000000001N011017000000000000000000000000000000000000000000000000000000000000000100030210501820ROGERIO MUNIZ DA CUNHA                  RUA MONTE CASTELO - 296 AP.34 - AVIACAO             11702720                                                            000101
2SR. CAIXA, APOS O VENCIMENTO COBRAR 10% DE MULTA                                NAO RECEBER APOS 30 DIAS DO VENCIMENTO.                                                                                                                                                                                                         01101700000000000000110170000000000000       0090770900066125125841151283000102
100000000000000000000009077090006612500000000000000000000000010002100012792117130P00000000002            2  01127921171310101700000004418960000000001N011017000000000000000000000000000000000000000000000000000000000000000100004004328896VANDERLEI  MARTINS DE ALMEIDA           RUA MONSENHOR TABOSA - 03 - PARQUE CISPE            03819300                                                            000104
2SR. CAIXA, APOS O VENCIMENTO COBRAR 10% DE MULTA                                NAO RECEBER APOS 30 DIAS DO VENCIMENTO.                                                                                                                                                                                                         01101700000000000000110170000000000000       009077090006612512792117130P000105
100000000000000000000009077090006612500000000000000000000000010002100013227120135000000000002            2  01132271201310101700000003018290000000001N011017000000000000000000000000000000000000000000000000000000000000000100005133053860VICENTE ARCIPRETE JUNIOR                RUA JOSE SIMOES FERREIRA FILHO - 80 - JA            06040090                                                            000107
2SR. CAIXA, APOS O VENCIMENTO COBRAR 10% DE MULTA                                NAO RECEBER APOS 30 DIAS DO VENCIMENTO.                                                                                                                                                                                                         01101700000000000000110170000000000000       0090770900066125132271201350000108
100000000000000000000009077090006612500000000000000000000000010002100001382292141500000000002            2  01138229214110101700000000734130000000001N011017000000000000000000000000000000000000000000000000000000000000000100056660235868JOSE DA SILVA                           RUA MONTE CASTELO - 296 AP.32 - AVIACAO             11702720                                                            000110
2SR. CAIXA, APOS O VENCIMENTO COBRAR 10% DE MULTA                                NAO RECEBER APOS 30 DIAS DO VENCIMENTO.                                                                                                                                                                                                         01101700000000000000110170000000000000       0090770900066125013822921415000111
100000000000000000000009077090006612500000000000000000000000010002100013902124142400000000002            2  01139021241410101700000002666120000000001N011017000000000000000000000000000000000000000000000000000000000000000100016339432832ALEX MONTEIRO DA SILVA                  RUA IVA MOURA LIMA - 04 - JARDIM MIRNA I            04855540                                                            000113
2SR. CAIXA, APOS O VENCIMENTO COBRAR 10% DE MULTA                                NAO RECEBER APOS 30 DIAS DO VENCIMENTO.                                                                                                                                                                                                         01101700000000000000110170000000000000       0090770900066125139021241424000114
100000000000000000000009077090006612500000000000000000000000010002100014000125143P00000000002            2  01140001251410101700000002722620000000001N011017000000000000000000000000000000000000000000000000000000000000000100031803864877ELEILSON FELIPPE SANTOS                 RUA SANTA GREGORIA - 193 - CIDADE DUTRA             04806030                                                            000116
2SR. CAIXA, APOS O VENCIMENTO COBRAR 10% DE MULTA                                NAO RECEBER APOS 30 DIAS DO VENCIMENTO.                                                                                                                                                                                                         01101700000000000000110170000000000000       009077090006612514000125143P000117
100000000000000000000009077090006612500000000000000000000000010002100014426127147200000000002            2  01144261271410101700000001873600000000001N011017000000000000000000000000000000000000000000000000000000000000000100026032632857MARILA LOPES PEREIRA                    RUA ESTRADA DO M BOI MIRIM - 820 BL.05 A            04905000                                                            000119
2SR. CAIXA, APOS O VENCIMENTO COBRAR 10% DE MULTA                                NAO RECEBER APOS 30 DIAS DO VENCIMENTO.                                                                                                                                                                                                         01101700000000000000110170000000000000       0090770900066125144261271472000120
100000000000000000000009077090006612500000000000000000000000010002100014524128148600000000002            2  01145241281410101700000003244510000000001N011017000000000000000000000000000000000000000000000000000000000000000100063064537849ANTONIO APARECIDO DA SILVA DESTEFANO    RUA PROFESSOR TEODORO BRAGA - 46 - VILA             02966020                                                            000122
2SR. CAIXA, APOS O VENCIMENTO COBRAR 10% DE MULTA                                NAO RECEBER APOS 30 DIAS DO VENCIMENTO.                                                                                                                                                                                                         01101700000000000000110170000000000000       0090770900066125145241281486000123
100000000000000000000009077090006612500000000000000000000000010002100014858130152900000000002            2  01148581301510101700000003109210000000001N011017000000000000000000000000000000000000000000000000000000000000000100010107711834VALDEMAR FECCHIO                        RUA DOUTOR MARTINS DE OLIVEIRA - 529 AP.            05638030                                                            000125
2SR. CAIXA, APOS O VENCIMENTO COBRAR 10% DE MULTA                                NAO RECEBER APOS 30 DIAS DO VENCIMENTO.                                                                                                                                                                                                         01101700000000000000110170000000000000       0090770900066125148581301529000126
100000000000000000000009077090006612500000000000000000000000010002100015202131156900000000002            2  01152021311510101700000003999820000000001N011017000000000000000000000000000000000000000000000000000000000000000100003330791837MARLI DA SILVA BARBOSA                  RUA GLICERIO CERQUEIRA LEITE - 151 - JAR            03675040                                                            000128
2SR. CAIXA, APOS O VENCIMENTO COBRAR 10% DE MULTA                                NAO RECEBER APOS 30 DIAS DO VENCIMENTO.                                                                                                                                                                                                         01101700000000000000110170000000000000       0090770900066125152021311569000129
100000000000000000000009077090006612500000000000000000000000010002100015403132158100000000002            2  01154031321510101700000001625880000000001N011017000000000000000000000000000000000000000000000000000000000000000100008931031874MARIA MARINHO DE OLIVEIRA               AVENIDA 9 DE JULHO - 1854 AP.81 - BELA V            01312001                                                            000131
2SR. CAIXA, APOS O VENCIMENTO COBRAR 10% DE MULTA                                NAO RECEBER APOS 30 DIAS DO VENCIMENTO.                                                                                                                                                                                                         01101700000000000000110170000000000000       0090770900066125154031321581000132
100000000000000000000009077090006612500000000000000000000000010002100015608134160800000000002            2  01156081341610101700000001888970000000001N011017000000000000000000000000000000000000000000000000000000000000000100005920579846SONIA MARIA VALDO POLLO                 RUA PALMIRA CERVI BARBARO - 797 - CIDADE            13214370                                                            000134
2SR. CAIXA, APOS O VENCIMENTO COBRAR 10% DE MULTA                                NAO RECEBER APOS 30 DIAS DO VENCIMENTO.                                                                                                                                                                                                         01101700000000000000110170000000000000       0090770900066125156081341608000135
100000000000000000000009077090006612500000000000000000000000010002100017888137181900000000002            2  01178881371810101700000002840150000000001N011017000000000000000000000000000000000000000000000000000000000000000100002494107881CIRO FRANCISCO MARCHI DURIGON           RUA MONTE CASTELO - 262 AP.115 - AVIACAO            11702720                                                            000137
2SR. CAIXA, APOS O VENCIMENTO COBRAR 10% DE MULTA                                NAO RECEBER APOS 30 DIAS DO VENCIMENTO.                                                                                                                                                                                                         01101700000000000000110170000000000000       0090770900066125178881371819000138
100000000000000000000009077090006612500000000000000000000000010002100019045150190500000000002            2  01190451501910101700000002792020000000001N011017000000000000000000000000000000000000000000000000000000000000000100007002345869DOMINGOS DE BRITO GALVAO                RUA MONTE CASTELO - 262 AP.44 - AVIACAO             11702720                                                            000140
2SR. CAIXA, APOS O VENCIMENTO COBRAR 10% DE MULTA                                NAO RECEBER APOS 30 DIAS DO VENCIMENTO.                                                                                                                                                                                                         01101700000000000000110170000000000000       0090770900066125190451501905000141
100000000000000000000009077090006612500000000000000000000000010002100019698155195200000000002            2  01196981551910101700000001163040000000001N011017000000000000000000000000000000000000000000000000000000000000000100009346863862NELSON DE SOUZA SANTOS                  RUA PRIMEIRA CRUZ - 90 - PARQUE INDEPEND            03236060                                                            000143
2SR. CAIXA, APOS O VENCIMENTO COBRAR 10% DE MULTA                                NAO RECEBER APOS 30 DIAS DO VENCIMENTO.                                                                                                                                                                                                         01101700000000000000110170000000000000       0090770900066125196981551952000144
100000000000000000000009077090006612500000000000000000000000010002100020051157198900000000002            2  01200511571910101700000002691480000000001N011017000000000000000000000000000000000000000000000000000000000000000100016299008857FERNANDO CESAR CARVALHO                 AVENIDA MARCONDES DE BRITO - 1340 AP.74             03509000                                                            000146
2SR. CAIXA, APOS O VENCIMENTO COBRAR 10% DE MULTA                                NAO RECEBER APOS 30 DIAS DO VENCIMENTO.                                                                                                                                                                                                         01101700000000000000110170000000000000       0090770900066125200511571989000147
100000000000000000000009077090006612500000000000000000000000010002100002252075219200000000002            2  01225207521910101700000002704550000000001N011017000000000000000000000000000000000000000000000000000000000000000100031082898880VANESSA DOS SANTOS NEIVA                RUA MONTE CASTELO - 296 AP.33 - BAIRRO A            11702720                                                            000149
2SR. CAIXA, APOS O VENCIMENTO COBRAR 10% DE MULTA                                NAO RECEBER APOS 30 DIAS DO VENCIMENTO.                                                                                                                                                                                                         01101700000000000000110170000000000000       0090770900066125022520752192000150
100000000000000000000009077090006612500000000000000000000000010002100026876143250300000000002            2  01268761432510101700000001646690000000001N011017000000000000000000000000000000000000000000000000000000000000000100065895304834MARINHO BARBOSA CUNHA                   AVENIDA EDU CHAVES - 639 AP.43 - PARQUE             02229000                                                            000152
2SR. CAIXA, APOS O VENCIMENTO COBRAR 10% DE MULTA                                NAO RECEBER APOS 30 DIAS DO VENCIMENTO.                                                                                                                                                                                                         01101700000000000000110170000000000000       0090770900066125268761432503000153
9                                                                                                                                                                                                                                                                                                                                                                                                         000154