01REMESSA01COBRANCA       00000000000004991781AIRES CONSTRUTORA E INCORPORAD237BRADESCO       011017        MX0000094                                                                                                                                                                                                                                                                                     000001
100000000000000000000009077090006612500000000000000000000000010002100001224510171700000000002            2  01012245101725101700000003267240000000001N011017000000000000000000000000000000000000000000000000000000000000000100001224509579REINALDO JUNIOR MARTINS DE ABREU        RUA JUSTINO NIGRO - 449 - INTERLAGOS - S            04815030                                                            000002
2SR. CAIXA, APOS O VENCIMENTO COBRAR 10% DE MULTA                                NAO RECEBER APOS 30 DIAS DO VENCIMENTO.                                                                                                                                                                                                         01101700000000000000110170000000000000       0090770900066125012245101717000003
100000000000000000000009077090006612500000000000000000000000010002100003325110171800000000002            2  01033251101725101700000003177610000000001N011017000000000000000000000000000000000000000000000000000000000000000100003325102808MARCOS DE OLIVEIRA JUNIOR               RUA LUIS NOVELLETO - 91 - PARQUE CONTINE            05324080                                                            000005
2SR. CAIXA, APOS O VENCIMENTO COBRAR 10% DE MULTA                                NAO RECEBER APOS 30 DIAS DO VENCIMENTO.                                                                                                                                                                                                         01101700000000000000110170000000000000       0090770900066125033251101718000006
100000000000000000000009077090006612500000000000000000000000010002100016338910171P00000000002            2  01163389101725101700000003223740000000001N011017000000000000000000000000000000000000000000000000000000000000000100016338929806EDVALDO DA SILVA ANDRADE                RUA ARIA - 434 - PARQUE ALVES DE LIMA -             04902170                                                            000008
2SR. CAIXA, APOS O VENCIMENTO COBRAR 10% DE MULTA                                NAO RECEBER APOS 30 DIAS DO VENCIMENTO.                                                                                                                                                                                                         01101700000000000000110170000000000000       009077090006612516338910171P000009
100000000000000000000009077090006612500000000000000000000000010002100026836910171P00000000002            2  01268369101725101700000002919310000000001N011017000000000000000000000000000000000000000000000000000000000000000100026836908860VANDERLEI FIGUEIREDO DE CARVALHO        RUA TUPI - 840 - VILA TUPI - PRAIA GRAND            11703260                                                            000011
2SR. CAIXA, APOS O VENCIMENTO COBRAR 10% DE MULTA                                NAO RECEBER APOS 30 DIAS DO VENCIMENTO.                                                                                                                                                                                                         01101700000000000000110170000000000000       009077090006612526836910171P000012
100000000000000000000009077090006612500000000000000000000000010002100059861510171600000000002            2  01598615101725101700000003242550000000001N011017000000000000000000000000000000000000000000000000000000000000000100059861576800REINALDO LOPES DE OLIVEIRA              RUA DA SERVIDAO - 40 - VILA ROSCHEL - SA            04891045                                                            000014
2SR. CAIXA, APOS O VENCIMENTO COBRAR 10% DE MULTA                                NAO RECEBER APOS 30 DIAS DO VENCIMENTO.                                                                                                                                                                                                         01101700000000000000110170000000000000       0090770900066125598615101716000015
100000000000000000000009077090006612500000000000000000000000010002100008158810171400000000002            2  01081588101725101700000001851130000000001N011017000000000000000000000000000000000000000000000000000000000000000100008158846807JULIO CESAR KYOO WATANUKI               AVENIDA PRESIDENTE CASTELO BRANCO - 460             11700800                                                            000017
2SR. CAIXA, APOS O VENCIMENTO COBRAR 10% DE MULTA                                NAO RECEBER APOS 30 DIAS DO VENCIMENTO.                                                                                                                                                                                                         01101700000000000000110170000000000000       0090770900066125081588101714000018
100000000000000000000009077090006612500000000000000000000000010002100028379810171900000000002            2  01283798101725101700000002908230000000001N011017000000000000000000000000000000000000000000000000000000000000000100028379879805EDMILSON DANIEL GARCIA WATANUKI         RUA MONTE CASTELO - 295 AP.82 - AVIACAO             11702720                                                            000020
2SR. CAIXA, APOS O VENCIMENTO COBRAR 10% DE MULTA                                NAO RECEBER APOS 30 DIAS DO VENCIMENTO.                                                                                                                                                                                                         01101700000000000000110170000000000000       0090770900066125283798101719000021
100000000000000000000009077090006612500000000000000000000000010002100016330910171400000000002            2  01163309101725101700000003222920000000001N011017000000000000000000000000000000000000000000000000000000000000000100016330938830KARINA CORDEIRO PIASSA                  CONDE MOREIRA LIMA - 644 - JARDIM JABAQU            04384032                                                            000023
2SR. CAIXA, APOS O VENCIMENTO COBRAR 10% DE MULTA                                NAO RECEBER APOS 30 DIAS DO VENCIMENTO.                                                                                                                                                                                                         01101700000000000000110170000000000000       0090770900066125163309101714000024
100000000000000000000009077090006612500000000000000000000000010002100077027610171700000000002            2  01770276101725101700000003132420000000001N011017000000000000000000000000000000000000000000000000000000000000000100077027604868CLINEU LISSONI                          AVENIDA VILA EMA - 1100 AP.41 - VILA PRU            03156000                                                            000026
2SR. CAIXA, APOS O VENCIMENTO COBRAR 10% DE MULTA                                NAO RECEBER APOS 30 DIAS DO VENCIMENTO.                                                                                                                                                                                                         01101700000000000000110170000000000000       0090770900066125770276101717000027
100000000000000000000009077090006612500000000000000000000000010002100005627910171300000000002            2  01056279101725101700000002936790000000001N011017000000000000000000000000000000000000000000000000000000000000000100005627947861FERNANDO CESAR MARCELINO                RUA CASA FORTE - 46 AP.11 - AGUA FRIA -             02336040                                                            000029
2SR. CAIXA, APOS O VENCIMENTO COBRAR 10% DE MULTA                                NAO RECEBER APOS 30 DIAS DO VENCIMENTO.                                                                                                                                                                                                         01101700000000000000110170000000000000       0090770900066125056279101713000030
100000000000000000000009077090006612500000000000000000000000010002100029380710171400000000002            2  01293807101725101700000002919490000000001N011017000000000000000000000000000000000000000000000000000000000000000100029380708882EDUARDO MENDONCA DAMASCENO              RUA MONTE CASTELO - 296 AP.12 - AVIACAO             11702720                                                            000032
2SR. CAIXA, APOS O VENCIMENTO COBRAR 10% DE MULTA                                NAO RECEBER APOS 30 DIAS DO VENCIMENTO.                                                                                                                                                                                                         01101700000000000000110170000000000000       0090770900066125293807101714000033
100000000000000000000009077090006612500000000000000000000000010002100023988510171800000000002            2  01239885101725101700000002964410000000001N011017000000000000000000000000000000000000000000000000000000000000000100023988525634DALMY PIMENTA                           SAO CAETANO - 136 - VILA SAO VICENTE - U            38026220                                                            000035
2SR. CAIXA, APOS O VENCIMENTO COBRAR 10% DE MULTA                                NAO RECEBER APOS 30 DIAS DO VENCIMENTO.                                                                                                                                                                                                         01101700000000000000110170000000000000       0090770900066125239885101718000036
100000000000000000000009077090006612500000000000000000000000010002100004735210171P00000000002            2  01047352101725101700000003223090000000001N011017000000000000000000000000000000000000000000000000000000000000000100004735273832DARIO LUIZ GONCALVES                    RUA MONTE CASTELO - 295 AP.113 - AVIACAO            11702720                                                            000038
2SR. CAIXA, APOS O VENCIMENTO COBRAR 10% DE MULTA                                NAO RECEBER APOS 30 DIAS DO VENCIMENTO.                                                                                                                                                                                                         01101700000000000000110170000000000000       009077090006612504735210171P000039
100000000000000000000009077090006612500000000000000000000000010002100007635210171P00000000002            2  01076352101725101700000002881650000000001N011017000000000000000000000000000000000000000000000000000000000000000100007635293893SILVIO CARDOSO ZACARIAS                 RUA SOLIDONIO LEITE - 2718 AP.102 BLOCO             03275000                                                            000041
2SR. CAIXA, APOS O VENCIMENTO COBRAR 10% DE MULTA                                NAO RECEBER APOS 30 DIAS DO VENCIMENTO.                                                                                                                                                                                                         01101700000000000000110170000000000000       009077090006612507635210171P000042
100000000000000000000009077090006612500000000000000000000000010002100067192910171P00000000002            2  01671929101725101700000002821040000000001N011017000000000000000000000000000000000000000000000000000000000000000100067192920800SONIA MARIA RIBEIRO SUDO                RUA INGAZEIRA - 133 - SAO MIGUEL - SAO P            08032080                                                            000044
2SR. CAIXA, APOS O VENCIMENTO COBRAR 10% DE MULTA                                NAO RECEBER APOS 30 DIAS DO VENCIMENTO.                                                                                                                                                                                                         01101700000000000000110170000000000000       009077090006612567192910171P000045
100000000000000000000009077090006612500000000000000000000000010002100007975910171300000000002            2  01079759101725101700000003135090000000001N011017000000000000000000000000000000000000000000000000000000000000000100007975958808JOCY VIGNADO                            RUA PEDRO GONCALVES SOBRINHO - 568 - PAR            13098641                                                            000047
2SR. CAIXA, APOS O VENCIMENTO COBRAR 10% DE MULTA                                NAO RECEBER APOS 30 DIAS DO VENCIMENTO.                                                                                                                                                                                                         01101700000000000000110170000000000000       0090770900066125079759101713000048
100000000000000000000009077090006612500000000000000000000000010002100036712510171600000000002            2  01367125101725101700000002931430000000001N011017000000000000000000000000000000000000000000000000000000000000000100036712580803WALTER BARRETO DE ALMEIDA               RUA MONTE CASTELO - 296 AP.44 - AVIACAO             11702720                                                            000050
2SR. CAIXA, APOS O VENCIMENTO COBRAR 10% DE MULTA                                NAO RECEBER APOS 30 DIAS DO VENCIMENTO.                                                                                                                                                                                                         01101700000000000000110170000000000000       0090770900066125367125101716000051
100000000000000000000009077090006612500000000000000000000000010002100004290910171600000000002            2  01042909101725101700000003114030000000001N011017000000000000000000000000000000000000000000000000000000000000000100004290973876VLADIMIR PAIOLA BORREGO                 RUA GOMES - 429 - VILA IVONE - SAO PAULO            03275010                                                            000053
2SR. CAIXA, APOS O VENCIMENTO COBRAR 10% DE MULTA                                NAO RECEBER APOS 30 DIAS DO VENCIMENTO.                                                                                                                                                                                                         01101700000000000000110170000000000000       0090770900066125042909101716000054
100000000000000000000009077090006612500000000000000000000000010002100036386810171500000000002            2  01363868101725101700000003311120000000001N011017000000000000000000000000000000000000000000000000000000000000000100036386861833ALINE LEE WEI DE SOUZA                  AV. PRES.CASTELO BRANCO - 9127 AP.251 BL            11704600                                                            000056
2SR. CAIXA, APOS O VENCIMENTO COBRAR 10% DE MULTA                                NAO RECEBER APOS 30 DIAS DO VENCIMENTO.                                                                                                                                                                                                         01101700000000000000110170000000000000       0090770900066125363868101715000057
100000000000000000000009077090006612500000000000000000000000010002100026187910171P00000000002            2  01261879101725101700000003072620000000001N011017000000000000000000000000000000000000000000000000000000000000000100026187960807CARINA CANTACESSO DE SOUZA              RUA MONTE CASTELO - 296 AP.91 - AVIACAO             11702720                                                            000059
2SR. CAIXA, APOS O VENCIMENTO COBRAR 10% DE MULTA                                NAO RECEBER APOS 30 DIAS DO VENCIMENTO.                                                                                                                                                                                                         01101700000000000000110170000000000000       009077090006612526187910171P000060
100000000000000000000009077090006612500000000000000000000000010002100070465310171600000000002            2  01704653101725101700000003011890000000001N011017000000000000000000000000000000000000000000000000000000000000000100070465320953SIDNEY CARASKI                          RUA DR.CELSO PACHECO BENTIM - 502 - PARQ            03571020                                                            000062
2SR. CAIXA, APOS O VENCIMENTO COBRAR 10% DE MULTA                                NAO RECEBER APOS 30 DIAS DO VENCIMENTO.                                                                                                                                                                                                         01101700000000000000110170000000000000       0090770900066125704653101716000063
100000000000000000000009077090006612500000000000000000000000010002100075759410171100000000002            2  01757594101725101700000002358570000000001N011017000000000000000000000000000000000000000000000000000000000000000100075759446800VALTER MUTAFEI                          RUA MONTE CASTELO - 295 AP.54 - AVIACAO             11702720                                                            000065
2SR. CAIXA, APOS O VENCIMENTO COBRAR 10% DE MULTA                                NAO RECEBER APOS 30 DIAS DO VENCIMENTO.                                                                                                                                                                                                         01101700000000000000110170000000000000       0090770900066125757594101711000066
100000000000000000000009077090006612500000000000000000000000010002100070328710171P00000000002            2  01703287101725101700000003369810000000001N011017000000000000000000000000000000000000000000000000000000000000000100070328706868VALTER LIMA FERNANDES                   RUA DOMINGOS JORGE VELHO - 52 - CENTRO -            06843550                                                            000068
2SR. CAIXA, APOS O VENCIMENTO COBRAR 10% DE MULTA                                NAO RECEBER APOS 30 DIAS DO VENCIMENTO.                                                                                                                                                                                                         01101700000000000000110170000000000000       009077090006612570328710171P000069
100000000000000000000009077090006612500000000000000000000000010002100023132610171500000000002            2  01231326101725101700000001830450000000001N011017000000000000000000000000000000000000000000000000000000000000000100023132672882LEANDRO MORENO                          RUA MONTE CASTELO - 296 AP.64 - AVIACAO             11702720                                                            000071
2SR. CAIXA, APOS O VENCIMENTO COBRAR 10% DE MULTA                                NAO RECEBER APOS 30 DIAS DO VENCIMENTO.                                                                                                                                                                                                         01101700000000000000110170000000000000       0090770900066125231326101715000072
100000000000000000000009077090006612500000000000000000000000010002100099264610171400000000002            2  01992646101725101700000003121650000000001N011017000000000000000000000000000000000000000000000000000000000000000100099264692800LEONTINO PINHEIRO DA SILVA              AVENIDA JOAO BATISTA FITIPALDI - 469 - V            08685000                                                            000074
2SR. CAIXA, APOS O VENCIMENTO COBRAR 10% DE MULTA                                NAO RECEBER APOS 30 DIAS DO VENCIMENTO.                                                                                                                                                                                                         01101700000000000000110170000000000000       0090770900066125992646101714000075
100000000000000000000009077090006612500000000000000000000000010002100000666310171500000000002            2  01006663101725101700000003011510000000001N011017000000000000000000000000000000000000000000000000000000000000000100000666344825LUIZ HENRIQUE DE CAMPOS                 RUA JOAO CARLOS CAVALCANTI REIS - 21 - J            02281206                                                            000077
2SR. CAIXA, APOS O VENCIMENTO COBRAR 10% DE MULTA                                NAO RECEBER APOS 30 DIAS DO VENCIMENTO.                                                                                                                                                                                                         01101700000000000000110170000000000000       0090770900066125006663101715000078
100000000000000000000009077090006612500000000000000000000000010002100029155010171500000000002            2  01291550101725101700000003180290000000001N011017000000000000000000000000000000000000000000000000000000000000000100029155026842DANIELA YOSHIDA                         RUA MONTE CASTELO - 262 AP.34 - AVIACAO             11702720                                                            000080
2SR. CAIXA, APOS O VENCIMENTO COBRAR 10% DE MULTA                                NAO RECEBER APOS 30 DIAS DO VENCIMENTO.                                                                                                                                                                                                         01101700000000000000110170000000000000       0090770900066125291550101715000081
100000000000000000000009077090006612500000000000000000000000010002100034325510171100000000002            2  01343255101725101700000002737550000000001N011017000000000000000000000000000000000000000000000000000000000000000100034325567801LUIZ FERNANDO ALAMINO                   AVENIDA FLOR DE VILA FORMOSA - 337 - VIL            03366010                                                            000083
2SR. CAIXA, APOS O VENCIMENTO COBRAR 10% DE MULTA                                NAO RECEBER APOS 30 DIAS DO VENCIMENTO.                                                                                                                                                                                                         01101700000000000000110170000000000000       0090770900066125343255101711000084
100000000000000000000009077090006612500000000000000000000000010002100001204410171900000000002            2  01012044101725101700000002589870000000001N011017000000000000000000000000000000000000000000000000000000000000000100001204431809CEZAR TALAVERA JUNIOR                   RUA MAESTRO ARTURO DE ANGELIS  - 190 AP.            05139010                                                            000086
2SR. CAIXA, APOS O VENCIMENTO COBRAR 10% DE MULTA                                NAO RECEBER APOS 30 DIAS DO VENCIMENTO.                                                                                                                                                                                                         01101700000000000000110170000000000000       0090770900066125012044101719000087
100000000000000000000009077090006612500000000000000000000000010002100004227510171800000000002            2  01042275101725101700000003357280000000001N011017000000000000000000000000000000000000000000000000000000000000000100004227553970ALESSANDRO ISRAEL GOULART               RUA PROFESSORA CARLINDA RIBEIRO - 21 - F            02866200                                                            000089
2SR. CAIXA, APOS O VENCIMENTO COBRAR 10% DE MULTA                                NAO RECEBER APOS 30 DIAS DO VENCIMENTO.                                                                                                                                                                                                         01101700000000000000110170000000000000       0090770900066125042275101718000090
100000000000000000000009077090006612500000000000000000000000010002100060811410171100000000002            2  01608114101725101700000003094120000000001N011017000000000000000000000000000000000000000000000000000000000000000100060811420868HELIO BASSI                             AV.PARIS,575 - PRACA ANTONIO FIGUEROA -             11700082                                                            000092
2SR. CAIXA, APOS O VENCIMENTO COBRAR 10% DE MULTA                                NAO RECEBER APOS 30 DIAS DO VENCIMENTO.                                                                                                                                                                                                         01101700000000000000110170000000000000       0090770900066125608114101711000093
100000000000000000000009077090006612500000000000000000000000010002100001024710171100000000002            2  01010247101725101700000002927860000000001N011017000000000000000000000000000000000000000000000000000000000000000100001024794881CLAUDIO RODRIGUES                       RUA ARACATUBA - 242 - LAPA - SAO PAULO -            05058010                                                            000095
2SR. CAIXA, APOS O VENCIMENTO COBRAR 10% DE MULTA                                NAO RECEBER APOS 30 DIAS DO VENCIMENTO.                                                                                                                                                                                                         01101700000000000000110170000000000000       0090770900066125010247101711000096
100000000000000000000009077090006612500000000000000000000000010002100002225010171200000000002            2  01022250101725101700000004488780000000001N011017000000000000000000000000000000000000000000000000000000000000000100002225072841PEDRO EDUARDO DE AZEVEDO                RUA NATH ZILMAN - 46 - JARDIM SAMAMBAIA             07600000                                                            000098
2SR. CAIXA, APOS O VENCIMENTO COBRAR 10% DE MULTA                                NAO RECEBER APOS 30 DIAS DO VENCIMENTO.                                                                                                                                                                                                         01101700000000000000110170000000000000       0090770900066125022250101712000099
100000000000000000000009077090006612500000000000000000000000010002100015039210171800000000002            2  01150392101725101700000003123710000000001N011017000000000000000000000000000000000000000000000000000000000000000100015039262817MARCOS ROBERTO DANTAS                   PCA CASTRO ALVES - 163 AP.33 - VILA SAO             13224299                                                            000101
2SR. CAIXA, APOS O VENCIMENTO COBRAR 10% DE MULTA                                NAO RECEBER APOS 30 DIAS DO VENCIMENTO.                                                                                                                                                                                                         01101700000000000000110170000000000000       0090770900066125150392101718000102
100000000000000000000009077090006612500000000000000000000000010002100037555510171200000000002            2  01375555101725101700000004409090000000001N011017000000000000000000000000000000000000000000000000000000000000000100037555503859RAPHAEL DE MELLO                        RUA MARECHAL HERMES - 126 AP.121 - CANTO            11700250                                                            000104
2SR. CAIXA, APOS O VENCIMENTO COBRAR 10% DE MULTA                                NAO RECEBER APOS 30 DIAS DO VENCIMENTO.                                                                                                                                                                                                         01101700000000000000110170000000000000       0090770900066125375555101712000105
100000000000000000000009077090006612500000000000000000000000010002100019288710171900000000002            2  01192887101725101700000002543420000000001N011017000000000000000000000000000000000000000000000000000000000000000100019288787844EMERSON LUIZ MARTINEZ PEREIRA           RUA MONTE CASTELO - 296 AP.74 - AVIACAO             11702720                                                            000107
2SR. CAIXA, APOS O VENCIMENTO COBRAR 10% DE MULTA                                NAO RECEBER APOS 30 DIAS DO VENCIMENTO.                                                                                                                                                                                                         01101700000000000000110170000000000000       0090770900066125192887101719000108
100000000000000000000009077090006612500000000000000000000000010002100027198410171200000000002            2  01271984101725101700000002154410000000001N011017000000000000000000000000000000000000000000000000000000000000000100027198452809CRISTIANE AURELIANO DA SILVA MAIA       RUA MONTE CASTELO - 262 AP.25 - AVIACAO             11702720                                                            000110
2SR. CAIXA, APOS O VENCIMENTO COBRAR 10% DE MULTA                                NAO RECEBER APOS 30 DIAS DO VENCIMENTO.                                                                                                                                                                                                         01101700000000000000110170000000000000       0090770900066125271984101712000111
100000000000000000000009077090006612500000000000000000000000010002100021246210171600000000002            2  01212462101725101700000002629210000000001N011017000000000000000000000000000000000000000000000000000000000000000100021246231840ALEXANDRO DA CUNHA MIGUES               AVENIDA CONSELHEIRO CARRAO - 1861 CONJ.5            03403001                                                            000113
2SR. CAIXA, APOS O VENCIMENTO COBRAR 10% DE MULTA                                NAO RECEBER APOS 30 DIAS DO VENCIMENTO.                                                                                                                                                                                                         01101700000000000000110170000000000000       0090770900066125212462101716000114
100000000000000000000009077090006612500000000000000000000000010002100004864910171500000000002            2  01048649101725101700000001574230000000001N011017000000000000000000000000000000000000000000000000000000000000000100004864924600RENATO SANTACHIARA SALVADORI            RUA PENSYLVANIA - 116 - PAYSAGE BRISE -             06730000                                                            000116
2SR. CAIXA, APOS O VENCIMENTO COBRAR 10% DE MULTA                                NAO RECEBER APOS 30 DIAS DO VENCIMENTO.                                                                                                                                                                                                         01101700000000000000110170000000000000       0090770900066125048649101715000117
100000000000000000000009077090006612500000000000000000000000010002100018470510171600000000002            2  01184705101725101700000003867950000000001N011017000000000000000000000000000000000000000000000000000000000000000100018470520881SILVANA ALVES DE OLIVEIRA               RUA MONTE CASTELO - 262 AP.91 - AVIACAO             11702720                                                            000119
2SR. CAIXA, APOS O VENCIMENTO COBRAR 10% DE MULTA                                NAO RECEBER APOS 30 DIAS DO VENCIMENTO.                                                                                                                                                                                                         01101700000000000000110170000000000000       0090770900066125184705101716000120
100000000000000000000009077090006612500000000000000000000000010002100009297510171600000000002            2  01092975101725101700000002692850000000001N011017000000000000000000000000000000000000000000000000000000000000000100009297523846MARCOS ROBERTO DE CASTRO FERREIRA       RUA MONTE CASTELO - 262 AP.105 - AVIACAO            11702720                                                            000122
2SR. CAIXA, APOS O VENCIMENTO COBRAR 10% DE MULTA                                NAO RECEBER APOS 30 DIAS DO VENCIMENTO.                                                                                                                                                                                                         01101700000000000000110170000000000000       0090770900066125092975101716000123
100000000000000000000009077090006612500000000000000000000000010002100001164110171500000000002            2  01011641101725101700000003337040000000001N011017000000000000000000000000000000000000000000000000000000000000000100001164158864DAVID BLEY LACERDA                      RUA CONEGO ARAUJO MARCONDES - 188 - BAIR            02550080                                                            000125
2SR. CAIXA, APOS O VENCIMENTO COBRAR 10% DE MULTA                                NAO RECEBER APOS 30 DIAS DO VENCIMENTO.                                                                                                                                                                                                         01101700000000000000110170000000000000       0090770900066125011641101715000126
100000000000000000000009077090006612500000000000000000000000010002100031498010171900000000002            2  01314980101725101700000004055700000000001N011017000000000000000000000000000000000000000000000000000000000000000100031498008895POLIANE  SIBELE DA SILVA                RUA FRANCISCO RODRIGUES SECKLER - 452 CA            08230020                                                            000128
2SR. CAIXA, APOS O VENCIMENTO COBRAR 10% DE MULTA                                NAO RECEBER APOS 30 DIAS DO VENCIMENTO.                                                                                                                                                                                                         01101700000000000000110170000000000000       0090770900066125314980101719000129
100000000000000000000009077090006612500000000000000000000000010002100000588110171200000000002            2  01005881101725101700000002378760000000001N011017000000000000000000000000000000000000000000000000000000000000000100000588109860JOSE LIARTE GIANTE                      AVENIDA LUIZ GONZAGA DO AMARAL - 143 - J            09320630                                                            000131
2SR. CAIXA, APOS O VENCIMENTO COBRAR 10% DE MULTA                                NAO RECEBER APOS 30 DIAS DO VENCIMENTO.                                                                                                                                                                                                         01101700000000000000110170000000000000       0090770900066125005881101712000132
100000000000000000000009077090006612500000000000000000000000010002100014386810171500000000002            2  01143868101725101700000001902910000000001N011017000000000000000000000000000000000000000000000000000000000000000100014386860134SEVERINO CARLOS DE OLIVEIRA             RUA MONTE CASTELO - 262 AP.54 - AVIACAO             11702720                                                            000134
2SR. CAIXA, APOS O VENCIMENTO COBRAR 10% DE MULTA                                NAO RECEBER APOS 30 DIAS DO VENCIMENTO.                                                                                                                                                                                                         01101700000000000000110170000000000000       0090770900066125143868101715000135
100000000000000000000009077090006612500000000000000000000000010002100029088210171200000000002            2  01290882101725101700000002115530000000001N011017000000000000000000000000000000000000000000000000000000000000000100029088221804FABIANO SPERANDEO                       RUA MONTE CASTELO - 296 AP.93 - AVIACAO             11702720                                                            000137
2SR. CAIXA, APOS O VENCIMENTO COBRAR 10% DE MULTA                                NAO RECEBER APOS 30 DIAS DO VENCIMENTO.                                                                                                                                                                                                         01101700000000000000110170000000000000       0090770900066125290882101712000138
100000000000000000000009077090006612500000000000000000000000010002100053018310171600000000002            2  01530183101725101700000001601050000000001N011017000000000000000000000000000000000000000000000000000000000000000100053018338715JAIME YOSHIO YONAMINE                   AVENIDA MARCONDES DE BRITO - 1.283 CASA             03509000                                                            000140
2SR. CAIXA, APOS O VENCIMENTO COBRAR 10% DE MULTA                                NAO RECEBER APOS 30 DIAS DO VENCIMENTO.                                                                                                                                                                                                         01101700000000000000110170000000000000       0090770900066125530183101716000141
100000000000000000000009077090006612500000000000000000000000010002100039393710171000000000002            2  01393937101725101700000001311480000000001N011017000000000000000000000000000000000000000000000000000000000000000100039393790850NAIRON RICARDO DE ARAUJO SANTOS         RUA MONTE CASTELO - 262 AP.23 - AVIACAO             11702720                                                            000143
2SR. CAIXA, APOS O VENCIMENTO COBRAR 10% DE MULTA                                NAO RECEBER APOS 30 DIAS DO VENCIMENTO.                                                                                                                                                                                                         01101700000000000000110170000000000000       0090770900066125393937101710000144
100000000000000000000009077090006612500000000000000000000000010002100041896810171100000000002            2  01418968101725101700000001909970000000001N011017000000000000000000000000000000000000000000000000000000000000000100041896807968SERGIO ROBERTO DA SILVA                 RUA DOS INGLESES - 542 AP.61 - MORRO DOS            01329000                                                            000146
2SR. CAIXA, APOS O VENCIMENTO COBRAR 10% DE MULTA                                NAO RECEBER APOS 30 DIAS DO VENCIMENTO.                                                                                                                                                                                                         01101700000000000000110170000000000000       0090770900066125418968101711000147
100000000000000000000009077090006612500000000000000000000000010002100088137310171P00000000002            2  01881373101725101700000001731890000000001N011017000000000000000000000000000000000000000000000000000000000000000100088137384804ANA LUCIA DA SILVA                      RUA DOUTOR EPAMINONDAS BARRA - 147 - VIL            04438100                                                            000149
2SR. CAIXA, APOS O VENCIMENTO COBRAR 10% DE MULTA                                NAO RECEBER APOS 30 DIAS DO VENCIMENTO.                                                                                                                                                                                                         01101700000000000000110170000000000000       009077090006612588137310171P000150
9                                                                                                                                                                                                                                                                                                                                                                                                         000151