01REMESSA01COBRANCA       00000000000004991781AIRES CONSTRUTORA E INCORPORAD237BRADESCO       010920        MX0000149                                                                                                                                                                                                                                                                                     000001
100000000000000000000009077090006612500000000000000000000000010002100029380709201400000000002            2  01293807092025092000000003476330000000001N010920000000000000000000000000000000000000000000000000000000000000000100029380708882EDUARDO MENDONCA DAMASCENO              RUA MONTE CASTELO - 296 AP.12 - AVIACAO             11702720                                                            000002
2SR. CAIXA, APOS O VENCIMENTO COBRAR 10% DE MULTA                                NAO RECEBER APOS 30 DIAS DO VENCIMENTO.                                                                                                                                                                                                         01092000000000000000109200000000000000       0090770900066125293807092014000003
100000000000000000000009077090006612500000000000000000000000010002100023988509201800000000002            2  01239885092025092000000003529800000000001N010920000000000000000000000000000000000000000000000000000000000000000100023988525634DALMY PIMENTA                           SAO CAETANO - 136 - VILA SAO VICENTE - U            38026220                                                            000005
2SR. CAIXA, APOS O VENCIMENTO COBRAR 10% DE MULTA                                NAO RECEBER APOS 30 DIAS DO VENCIMENTO.                                                                                                                                                                                                         01092000000000000000109200000000000000       0090770900066125239885092018000006
100000000000000000000009077090006612500000000000000000000000010002100007975909201300000000002            2  01079759092025092000000003733040000000001N010920000000000000000000000000000000000000000000000000000000000000000100007975958808JOCY VIGNADO                            RUA PEDRO GONCALVES SOBRINHO - 568 - PAR            13098641                                                            000008
2SR. CAIXA, APOS O VENCIMENTO COBRAR 10% DE MULTA                                NAO RECEBER APOS 30 DIAS DO VENCIMENTO.                                                                                                                                                                                                         01092000000000000000109200000000000000       0090770900066125079759092013000009
100000000000000000000009077090006612500000000000000000000000010002100075759409201100000000002            2  01757594092025092000000002808410000000001N010920000000000000000000000000000000000000000000000000000000000000000100075759446800VALTER MUTAFEI                          RUA MONTE CASTELO - 295 AP.54 - AVIACAO             11702720                                                            000011
2SR. CAIXA, APOS O VENCIMENTO COBRAR 10% DE MULTA                                NAO RECEBER APOS 30 DIAS DO VENCIMENTO.                                                                                                                                                                                                         01092000000000000000109200000000000000       0090770900066125757594092011000012
100000000000000000000009077090006612500000000000000000000000010002100023132609201500000000002            2  01231326092025092000000002179540000000001N010920000000000000000000000000000000000000000000000000000000000000000100023132672882LEANDRO MORENO                          RUA MONTE CASTELO - 296 AP.64 - AVIACAO             11702720                                                            000014
2SR. CAIXA, APOS O VENCIMENTO COBRAR 10% DE MULTA                                NAO RECEBER APOS 30 DIAS DO VENCIMENTO.                                                                                                                                                                                                         01092000000000000000109200000000000000       0090770900066125231326092015000015
100000000000000000000009077090006612500000000000000000000000010002100099264609201400000000002            2  01992646092025092000000003717020000000001N010920000000000000000000000000000000000000000000000000000000000000000100099264692800LEONTINO PINHEIRO DA SILVA              AVENIDA JOAO BATISTA FITIPALDI - 469 - V            08685000                                                            000017
2SR. CAIXA, APOS O VENCIMENTO COBRAR 10% DE MULTA                                NAO RECEBER APOS 30 DIAS DO VENCIMENTO.                                                                                                                                                                                                         01092000000000000000109200000000000000       0090770900066125992646092014000018
100000000000000000000009077090006612500000000000000000000000010002100000666309201500000000002            2  01006663092025092000000003585890000000001N010920000000000000000000000000000000000000000000000000000000000000000100000666344825LUIZ HENRIQUE DE CAMPOS                 RUA JOAO CARLOS CAVALCANTI REIS - 21 - J            02281206                                                            000020
2SR. CAIXA, APOS O VENCIMENTO COBRAR 10% DE MULTA                                NAO RECEBER APOS 30 DIAS DO VENCIMENTO.                                                                                                                                                                                                         01092000000000000000109200000000000000       0090770900066125006663092015000021
100000000000000000000009077090006612500000000000000000000000010002100029155009201500000000002            2  01291550092025092000000003786840000000001N010920000000000000000000000000000000000000000000000000000000000000000100029155026842DANIELA YOSHIDA                         RUA MONTE CASTELO - 262 AP.34 - AVIACAO             11702720                                                            000023
2SR. CAIXA, APOS O VENCIMENTO COBRAR 10% DE MULTA                                NAO RECEBER APOS 30 DIAS DO VENCIMENTO.                                                                                                                                                                                                         01092000000000000000109200000000000000       0090770900066125291550092015000024
100000000000000000000009077090006612500000000000000000000000010002100001204409201900000000002            2  01012044092025092000000003083850000000001N010920000000000000000000000000000000000000000000000000000000000000000100001204431809CEZAR TALAVERA JUNIOR                   RUA MAESTRO ARTURO DE ANGELIS  - 190 AP.            05139010                                                            000026
2SR. CAIXA, APOS O VENCIMENTO COBRAR 10% DE MULTA                                NAO RECEBER APOS 30 DIAS DO VENCIMENTO.                                                                                                                                                                                                         01092000000000000000109200000000000000       0090770900066125012044092019000027
100000000000000000000009077090006612500000000000000000000000010002100004227509201800000000002            2  01042275092025092000000003997590000000001N010920000000000000000000000000000000000000000000000000000000000000000100004227553970ALESSANDRO ISRAEL GOULART               RUA PROFESSORA CARLINDA RIBEIRO - 21 - F            02866200                                                            000029
2SR. CAIXA, APOS O VENCIMENTO COBRAR 10% DE MULTA                                NAO RECEBER APOS 30 DIAS DO VENCIMENTO.                                                                                                                                                                                                         01092000000000000000109200000000000000       0090770900066125042275092018000030
100000000000000000000009077090006612500000000000000000000000010002100060811409201100000000002            2  01608114092025092000000003684240000000001N010920000000000000000000000000000000000000000000000000000000000000000100060811420868HELIO BASSI                             AV.PARIS,575 - PRACA ANTONIO FIGUEROA -             11700082                                                            000032
2SR. CAIXA, APOS O VENCIMENTO COBRAR 10% DE MULTA                                NAO RECEBER APOS 30 DIAS DO VENCIMENTO.                                                                                                                                                                                                         01092000000000000000109200000000000000       0090770900066125608114092011000033
100000000000000000000009077090006612500000000000000000000000010002100001024709201100000000002            2  01010247092025092000000003486270000000001N010920000000000000000000000000000000000000000000000000000000000000000100001024794881CLAUDIO RODRIGUES                       RUA ARACATUBA - 242 - LAPA - SAO PAULO -            05058010                                                            000035
2SR. CAIXA, APOS O VENCIMENTO COBRAR 10% DE MULTA                                NAO RECEBER APOS 30 DIAS DO VENCIMENTO.                                                                                                                                                                                                         01092000000000000000109200000000000000       0090770900066125010247092011000036
100000000000000000000009077090006612500000000000000000000000010002100002225009201200000000002            2  01022250092025092000000005344930000000001N010920000000000000000000000000000000000000000000000000000000000000000100002225072841PEDRO EDUARDO DE AZEVEDO                RUA NATH ZILMAN - 46 - JARDIM SAMAMBAIA             07623085                                                            000038
2SR. CAIXA, APOS O VENCIMENTO COBRAR 10% DE MULTA                                NAO RECEBER APOS 30 DIAS DO VENCIMENTO.                                                                                                                                                                                                         01092000000000000000109200000000000000       0090770900066125022250092012000039
100000000000000000000009077090006612500000000000000000000000010002100022037509201000000000002            2  01220375092025092000000003719470000000001N010920000000000000000000000000000000000000000000000000000000000000000100022037552882ANDREIA CRISTINA FERNANDES DANTAS       PCA CASTRO ALVES - 163 AP.33 - VILA SAO             13224299                                                            000041
2SR. CAIXA, APOS O VENCIMENTO COBRAR 10% DE MULTA                                NAO RECEBER APOS 30 DIAS DO VENCIMENTO.                                                                                                                                                                                                         01092000000000000000109200000000000000       0090770900066125220375092010000042
100000000000000000000009077090006612500000000000000000000000010002100019288709201900000000002            2  01192887092025092000000003028490000000001N010920000000000000000000000000000000000000000000000000000000000000000100019288787844EMERSON LUIZ MARTINEZ PEREIRA           RUA MONTE CASTELO - 296 AP.74 - AVIACAO             11702720                                                            000044
2SR. CAIXA, APOS O VENCIMENTO COBRAR 10% DE MULTA                                NAO RECEBER APOS 30 DIAS DO VENCIMENTO.                                                                                                                                                                                                         01092000000000000000109200000000000000       0090770900066125192887092019000045
100000000000000000000009077090006612500000000000000000000000010002100027198409201200000000002            2  01271984092025092000000002565290000000001N010920000000000000000000000000000000000000000000000000000000000000000100027198452809CRISTIANE AURELIANO DA SILVA MAIA       RUA MONTE CASTELO - 262 AP.25 - AVIACAO             11702720                                                            000047
2SR. CAIXA, APOS O VENCIMENTO COBRAR 10% DE MULTA                                NAO RECEBER APOS 30 DIAS DO VENCIMENTO.                                                                                                                                                                                                         01092000000000000000109200000000000000       0090770900066125271984092012000048
100000000000000000000009077090006612500000000000000000000000010002100021246209201600000000002            2  01212462092025092000000003130700000000001N010920000000000000000000000000000000000000000000000000000000000000000100021246231840ALEXANDRO DA CUNHA MIGUES               RUA DULCE - 71  - VILA CARRAO - SAO PAUL            03427040                                                            000050
2SR. CAIXA, APOS O VENCIMENTO COBRAR 10% DE MULTA                                NAO RECEBER APOS 30 DIAS DO VENCIMENTO.                                                                                                                                                                                                         01092000000000000000109200000000000000       0090770900066125212462092016000051
100000000000000000000009077090006612500000000000000000000000010002100018470509201600000000002            2  01184705092025092000000004605700000000001N010920000000000000000000000000000000000000000000000000000000000000000100018470520881SILVANA ALVES DE OLIVEIRA               RUA MONTE CASTELO - 262 AP.91 - AVIACAO             11702720                                                            000053
2SR. CAIXA, APOS O VENCIMENTO COBRAR 10% DE MULTA                                NAO RECEBER APOS 30 DIAS DO VENCIMENTO.                                                                                                                                                                                                         01092000000000000000109200000000000000       0090770900066125184705092016000054
100000000000000000000009077090006612500000000000000000000000010002100009297509201600000000002            2  01092975092025092000000003206440000000001N010920000000000000000000000000000000000000000000000000000000000000000100009297523846MARCOS ROBERTO DE CASTRO FERREIRA       RUA MONTE CASTELO - 262 AP.105 - AVIACAO            11702720                                                            000056
2SR. CAIXA, APOS O VENCIMENTO COBRAR 10% DE MULTA                                NAO RECEBER APOS 30 DIAS DO VENCIMENTO.                                                                                                                                                                                                         01092000000000000000109200000000000000       0090770900066125092975092016000057
100000000000000000000009077090006612500000000000000000000000010002100001164109201500000000002            2  01011641092025092000000003973510000000001N010920000000000000000000000000000000000000000000000000000000000000000100001164158864DAVID BLEY LACERDA                      RUA CONEGO ARAUJO MARCONDES - 188 - BAIR            02550080                                                            000059
2SR. CAIXA, APOS O VENCIMENTO COBRAR 10% DE MULTA                                NAO RECEBER APOS 30 DIAS DO VENCIMENTO.                                                                                                                                                                                                         01092000000000000000109200000000000000       0090770900066125011641092015000060
100000000000000000000009077090006612500000000000000000000000010002100031498009201900000000002            2  01314980092025092000000004829230000000001N010920000000000000000000000000000000000000000000000000000000000000000100031498008895POLIANE  SIBELE DA SILVA                PRACA GENERAL COSTA BARRETO - 56 AP.181             03325070                                                            000062
2SR. CAIXA, APOS O VENCIMENTO COBRAR 10% DE MULTA                                NAO RECEBER APOS 30 DIAS DO VENCIMENTO.                                                                                                                                                                                                         01092000000000000000109200000000000000       0090770900066125314980092019000063
100000000000000000000009077090006612500000000000000000000000010002100000588109201200000000002            2  01005881092025092000000002832430000000001N010920000000000000000000000000000000000000000000000000000000000000000100000588109860JOSE LIARTE GIANTE                      AVENIDA LUIZ GONZAGA DO AMARAL - 143 - J            09320630                                                            000065
2SR. CAIXA, APOS O VENCIMENTO COBRAR 10% DE MULTA                                NAO RECEBER APOS 30 DIAS DO VENCIMENTO.                                                                                                                                                                                                         01092000000000000000109200000000000000       0090770900066125005881092012000066
100000000000000000000009077090006612500000000000000000000000010002100014386809201500000000002            2  01143868092025092000000002265830000000001N010920000000000000000000000000000000000000000000000000000000000000000100014386860134SEVERINO CARLOS DE OLIVEIRA             RUA MONTE CASTELO - 262 AP.54 - AVIACAO             11702720                                                            000068
2SR. CAIXA, APOS O VENCIMENTO COBRAR 10% DE MULTA                                NAO RECEBER APOS 30 DIAS DO VENCIMENTO.                                                                                                                                                                                                         01092000000000000000109200000000000000       0090770900066125143868092015000069
100000000000000000000009077090006612500000000000000000000000010002100039393709201000000000002            2  01393937092025092000000001561620000000001N010920000000000000000000000000000000000000000000000000000000000000000100039393790850NAIRON RICARDO DE ARAUJO SANTOS         RUA NITEROI - 267 CASA 04 - JARDIM INDEP            11380350                                                            000071
2SR. CAIXA, APOS O VENCIMENTO COBRAR 10% DE MULTA                                NAO RECEBER APOS 30 DIAS DO VENCIMENTO.                                                                                                                                                                                                         01092000000000000000109200000000000000       0090770900066125393937092010000072
100000000000000000000009077090006612500000000000000000000000010002100004735209201P00000000002            2  01047352092025092000000001610850000000001N010920000000000000000000000000000000000000000000000000000000000000000100004735273832DARIO LUIZ GONCALVES                    RUA MONTE CASTELO - 295 AP.113 - AVIACAO            11702720                                                            000074
2SR. CAIXA, APOS O VENCIMENTO COBRAR 10% DE MULTA                                NAO RECEBER APOS 30 DIAS DO VENCIMENTO.                                                                                                                                                                                                         01092000000000000000109200000000000000       009077090006612504735209201P000075
9                                                                                                                                                                                                                                                                                                                                                                                                         000076