01REMESSA01COBRANCA       00000000000008017025HB SANTOS CONSTRUTORA E INCORP237BRADESCO       050520        MX0000103                                                                                                                                                                                                                                                                                     000001
100000000000000000000009033990000627000000000000000000000000010002020025035105201400000000002            2  01250351052024052000000002236730000000001N050520000000000000000000000000000000000000000000000000000000000000000100025035170802WANDERSON LUIS DE CARVALHO              RUA JOAQUIM GONCALVES ROCHA - 302 - JARD            02859030                                                            000002
2SR. CAIXA, APOS O VENCIMENTO COBRAR 2% DE MULTA                                 NAO RECEBER APOS 30 DIAS DO VENCIMENTO.                                                                                                                                                                                                         05052000000000000000505200000000000000       0090339900006270250351052014000003
100000000000000000000009033990000627000000000000000000000000010002020007294305201100000000002            2  01072943052024052000000003008450000000001N050520000000000000000000000000000000000000000000000000000000000000000100007294351805CLAUDENIR APARECIDO VACARI              RUA CARLOS JOSE BORSTENS - 50 AP.93 - AV            11702750                                                            000005
2SR. CAIXA, APOS O VENCIMENTO COBRAR 2% DE MULTA                                 NAO RECEBER APOS 30 DIAS DO VENCIMENTO.                                                                                                                                                                                                         05052000000000000000505200000000000000       0090339900006270072943052011000006
100000000000000000000009033990000627000000000000000000000000010002020042976105201100000000002            2  01429761052024052000000003040020000000001N050520000000000000000000000000000000000000000000000000000000000000000100042976111634ACACIO TOSCANO BONDANCA                 RUA COMENDADOR JACOMO ANTONIO LA SELVA -            12946797                                                            000008
2SR. CAIXA, APOS O VENCIMENTO COBRAR 2% DE MULTA                                 NAO RECEBER APOS 30 DIAS DO VENCIMENTO.                                                                                                                                                                                                         05052000000000000000505200000000000000       0090339900006270429761052011000009
100000000000000000000009033990000627000000000000000000000000010002020035438005201500000000002            2  01354380052024052000000002567440000000001N050520000000000000000000000000000000000000000000000000000000000000000100035438022836ALESSANDRO FARACO DOS SANTOS            RUA PEDRO POMAR  - 145 - JARDIM ELISA MA            02875020                                                            000011
2SR. CAIXA, APOS O VENCIMENTO COBRAR 2% DE MULTA                                 NAO RECEBER APOS 30 DIAS DO VENCIMENTO.                                                                                                                                                                                                         05052000000000000000505200000000000000       0090339900006270354380052015000012
100000000000000000000009033990000627000000000000000000000000010002020007525005201700000000002            2  01075250052024052000000003365060000000001N050520000000000000000000000000000000000000000000000000000000000000000100007525032866FERNANDO RIBEIRO                        RUA CARLOS JOSE BORSTENS - 50 AP.32 - AV            11702750                                                            000014
2SR. CAIXA, APOS O VENCIMENTO COBRAR 2% DE MULTA                                 NAO RECEBER APOS 30 DIAS DO VENCIMENTO.                                                                                                                                                                                                         05052000000000000000505200000000000000       0090339900006270075250052017000015
100000000000000000000009033990000627000000000000000000000000010002020005071405201200000000002            2  01050714052024052000000002951810000000001N050520000000000000000000000000000000000000000000000000000000000000000100005071481855ERIBALDO SANTANA CARVALHO               RUA HONDURAS - 477 - PARQUE DAS AMERICAS            09351070                                                            000017
2SR. CAIXA, APOS O VENCIMENTO COBRAR 2% DE MULTA                                 NAO RECEBER APOS 30 DIAS DO VENCIMENTO.                                                                                                                                                                                                         05052000000000000000505200000000000000       0090339900006270050714052012000018
100000000000000000000009033990000627000000000000000000000000010002020002841705201600000000002            2  01028417052024052000000002761700000000001N050520000000000000000000000000000000000000000000000000000000000000000100002841756416LUCIANA PINHEIRO DE ASSIS NUNES         RUA RIO ACIMA - 81 - RIACHO GRANDE - SAO            09830100                                                            000020
2SR. CAIXA, APOS O VENCIMENTO COBRAR 2% DE MULTA                                 NAO RECEBER APOS 30 DIAS DO VENCIMENTO.                                                                                                                                                                                                         05052000000000000000505200000000000000       0090339900006270028417052016000021
100000000000000000000009033990000627000000000000000000000000010002020084302005201500000000002            2  01843020052024052000000002774940000000001N050520000000000000000000000000000000000000000000000000000000000000000100084302097868FAUSTO TADEU VILOR                      RUA ANTONIO TAVARES - 466 - BAIRRO CAMBU            01542010                                                            000023
2SR. CAIXA, APOS O VENCIMENTO COBRAR 2% DE MULTA                                 NAO RECEBER APOS 30 DIAS DO VENCIMENTO.                                                                                                                                                                                                         05052000000000000000505200000000000000       0090339900006270843020052015000024
100000000000000000000009033990000627000000000000000000000000010002020028804205201500000000002            2  01288042052024052000000002726400000000001N050520000000000000000000000000000000000000000000000000000000000000000100028804202882GILBERTO FABIANO CABRAL DE CAMARGO      RUA CARLOS JOSE BORSTENS - 50 AP.44 - AV            11702750                                                            000026
2SR. CAIXA, APOS O VENCIMENTO COBRAR 2% DE MULTA                                 NAO RECEBER APOS 30 DIAS DO VENCIMENTO.                                                                                                                                                                                                         05052000000000000000505200000000000000       0090339900006270288042052015000027
100000000000000000000009033990000627000000000000000000000000010002020000991705201800000000002            2  01009917052024052000000002661070000000001N050520000000000000000000000000000000000000000000000000000000000000000100000991748808JAILSON BORGES DE ANDRADE               RUA IPIOBUNA - 45 - JARDIM CUMBICA - GUA            07240040                                                            000029
2SR. CAIXA, APOS O VENCIMENTO COBRAR 2% DE MULTA                                 NAO RECEBER APOS 30 DIAS DO VENCIMENTO.                                                                                                                                                                                                         05052000000000000000505200000000000000       0090339900006270009917052018000030
100000000000000000000009033990000627000000000000000000000000010002020092180205201500000000002            2  01921802052024052000000003628050000000001N050520000000000000000000000000000000000000000000000000000000000000000100092180299834LUIS ROBERTO DE SA DUARTE               RUA TEBAS - 296 AP.84 BLOCO 2 CE - JARDI            04634031                                                            000032
2SR. CAIXA, APOS O VENCIMENTO COBRAR 2% DE MULTA                                 NAO RECEBER APOS 30 DIAS DO VENCIMENTO.                                                                                                                                                                                                         05052000000000000000505200000000000000       0090339900006270921802052015000033
100000000000000000000009033990000627000000000000000000000000010002020022151605201400000000002            2  01221516052024052000000002645630000000001N050520000000000000000000000000000000000000000000000000000000000000000100022151666816SAMIR LIMA DE ARAUJO                    AVENIDA GUARAPIRANGA - 2616 AP.42 BLOCO1            04902005                                                            000035
2SR. CAIXA, APOS O VENCIMENTO COBRAR 2% DE MULTA                                 NAO RECEBER APOS 30 DIAS DO VENCIMENTO.                                                                                                                                                                                                         05052000000000000000505200000000000000       0090339900006270221516052014000036
100000000000000000000009033990000627000000000000000000000000010002020022313105201600000000002            2  01223131052026052000000002035120000000001N050520000000000000000000000000000000000000000000000000000000000000000100022313116824ROSA MARIA BRITO DA SILVA               RUA SERVIDAO DE SAO MARCOS - 113 - JARDI            04930300                                                            000038
2SR. CAIXA, APOS O VENCIMENTO COBRAR 2% DE MULTA                                 NAO RECEBER APOS 30 DIAS DO VENCIMENTO.                                                                                                                                                                                                         05052000000000000000505200000000000000       0090339900006270223131052016000039
100000000000000000000009033990000627000000000000000000000000010002020027538005201800000000002            2  01275380052026052000000002042220000000001N050520000000000000000000000000000000000000000000000000000000000000000100027538087249MARA LUCIA MENEZES DA COSTA             RUA LEILA  - 183 - ITAQUERA - SAO PAULO             08240020                                                            000041
2SR. CAIXA, APOS O VENCIMENTO COBRAR 2% DE MULTA                                 NAO RECEBER APOS 30 DIAS DO VENCIMENTO.                                                                                                                                                                                                         05052000000000000000505200000000000000       0090339900006270275380052018000042
100000000000000000000009033990000627000000000000000000000000010002020031278405201400000000002            2  01312784052024052000000002555750000000001N050520000000000000000000000000000000000000000000000000000000000000000100031278411836JEFFERSON DE PIERI PIRES ZAMUNER        RUA MANOEL ARCE - 277 - PARQUE BANCARIO             03922150                                                            000044
2SR. CAIXA, APOS O VENCIMENTO COBRAR 2% DE MULTA                                 NAO RECEBER APOS 30 DIAS DO VENCIMENTO.                                                                                                                                                                                                         05052000000000000000505200000000000000       0090339900006270312784052014000045
100000000000000000000009033990000627000000000000000000000000010002020019185705201600000000002            2  01191857052026052000000001858450000000001N050520000000000000000000000000000000000000000000000000000000000000000100019185769800AGUINALDO PESSOA DE LIMA                RUA JANUARIO ZINGARO - 252 AP.303 BL.04             05794300                                                            000047
2SR. CAIXA, APOS O VENCIMENTO COBRAR 2% DE MULTA                                 NAO RECEBER APOS 30 DIAS DO VENCIMENTO.                                                                                                                                                                                                         05052000000000000000505200000000000000       0090339900006270191857052016000048
100000000000000000000009033990000627000000000000000000000000010002020033303605201700000000002            2  01333036052026052000000002001720000000001N050520000000000000000000000000000000000000000000000000000000000000000100033303645809JESSICA DA SILVA FREITAS                RUA ARILDO VALADAO - 120 - JARDIM GUAEMB            04814600                                                            000050
2SR. CAIXA, APOS O VENCIMENTO COBRAR 2% DE MULTA                                 NAO RECEBER APOS 30 DIAS DO VENCIMENTO.                                                                                                                                                                                                         05052000000000000000505200000000000000       0090339900006270333036052017000051
100000000000000000000009033990000627000000000000000000000000010002020004824405201600000000002            2  01048244052026052000000002017570000000001N050520000000000000000000000000000000000000000000000000000000000000000100004824443806ROSIMEIRE CLARA FERREIRA REZENDE        RUA JOSE CALIXTO DO CARMO - 286 AP.43 -             11702690                                                            000053
2SR. CAIXA, APOS O VENCIMENTO COBRAR 2% DE MULTA                                 NAO RECEBER APOS 30 DIAS DO VENCIMENTO.                                                                                                                                                                                                         05052000000000000000505200000000000000       0090339900006270048244052016000054
100000000000000000000009033990000627000000000000000000000000010002020006422605201200000000002            2  01064226052024052000000002767930000000001N050520000000000000000000000000000000000000000000000000000000000000000100006422607881GERALDO ALVES DA SILVA                  RUA CARLOS JOSE BORSTENS - 50 AP.14 - AV            11702750                                                            000056
2SR. CAIXA, APOS O VENCIMENTO COBRAR 2% DE MULTA                                 NAO RECEBER APOS 30 DIAS DO VENCIMENTO.                                                                                                                                                                                                         05052000000000000000505200000000000000       0090339900006270064226052012000057
100000000000000000000009033990000627000000000000000000000000010002020033877105201400000000002            2  01338771052026052000000001876680000000001N050520000000000000000000000000000000000000000000000000000000000000000100033877129870HELDER FERREIRA VIANA                   RUA JOSE CALIXTO DO CARMO - 286 AP.35 -             11702690                                                            000059
2SR. CAIXA, APOS O VENCIMENTO COBRAR 2% DE MULTA                                 NAO RECEBER APOS 30 DIAS DO VENCIMENTO.                                                                                                                                                                                                         05052000000000000000505200000000000000       0090339900006270338771052014000060
100000000000000000000009033990000627000000000000000000000000010002020028290705201800000000002            2  01282907052026052000000001729590000000001N050520000000000000000000000000000000000000000000000000000000000000000100028290719809VANESSA GIANGARRELLI PEREIRA            RUA BARINEL - 72 - JARDIM COTCHING - SAO            03462130                                                            000062
2SR. CAIXA, APOS O VENCIMENTO COBRAR 2% DE MULTA                                 NAO RECEBER APOS 30 DIAS DO VENCIMENTO.                                                                                                                                                                                                         05052000000000000000505200000000000000       0090339900006270282907052018000063
100000000000000000000009033990000627000000000000000000000000010002020028290705202600000000002            2  01282907052026052000000001729580000000001N050520000000000000000000000000000000000000000000000000000000000000000100028290719809VANESSA GIANGARRELLI PEREIRA            RUA BARINEL - 72 - JARDIM COTCHING - SAO            03462130                                                            000065
2SR. CAIXA, APOS O VENCIMENTO COBRAR 2% DE MULTA                                 NAO RECEBER APOS 30 DIAS DO VENCIMENTO.                                                                                                                                                                                                         05052000000000000000505200000000000000       0090339900006270282907052026000066
100000000000000000000009033990000627000000000000000000000000010002020087573005201300000000002            2  01875730052026052000000001888700000000001N050520000000000000000000000000000000000000000000000000000000000000000100087573059604VANDERLEY DE ASSIS                      RUA ROMEU ALBANI - 268 - JARDIM PARQUE R            13803810                                                            000068
2SR. CAIXA, APOS O VENCIMENTO COBRAR 2% DE MULTA                                 NAO RECEBER APOS 30 DIAS DO VENCIMENTO.                                                                                                                                                                                                         05052000000000000000505200000000000000       0090339900006270875730052013000069
100000000000000000000009033990000627000000000000000000000000010002020010825505201000000000002            2  01108255052026052000000001970960000000001N050520000000000000000000000000000000000000000000000000000000000000000100010825513847JOSE APARECIDO PEREIRA                  RUA GENERAL OSORIO - 305 - JARDIM TRINTA            11515130                                                            000071
2SR. CAIXA, APOS O VENCIMENTO COBRAR 2% DE MULTA                                 NAO RECEBER APOS 30 DIAS DO VENCIMENTO.                                                                                                                                                                                                         05052000000000000000505200000000000000       0090339900006270108255052010000072
100000000000000000000009033990000627000000000000000000000000010002020038818505201000000000002            2  01388185052026052000000002004650000000001N050520000000000000000000000000000000000000000000000000000000000000000100038818572814MAURICIUS ALEXANDRE ESTEVAM NABOR       RUA JOSE CALIXTO DO CARMO - 286 AP.25 -             11702690                                                            000074
2SR. CAIXA, APOS O VENCIMENTO COBRAR 2% DE MULTA                                 NAO RECEBER APOS 30 DIAS DO VENCIMENTO.                                                                                                                                                                                                         05052000000000000000505200000000000000       0090339900006270388185052010000075
100000000000000000000009033990000627000000000000000000000000010002020039115105201200000000002            2  01391151052026052000000002429550000000001N050520000000000000000000000000000000000000000000000000000000000000000100039115139840LAIS CRISTINA RIBEIRO ANDO              RUA JOSE CALIXTO DO CARMO - 286 AP.65 -             11702690                                                            000077
2SR. CAIXA, APOS O VENCIMENTO COBRAR 2% DE MULTA                                 NAO RECEBER APOS 30 DIAS DO VENCIMENTO.                                                                                                                                                                                                         05052000000000000000505200000000000000       0090339900006270391151052012000078
100000000000000000000009033990000627000000000000000000000000010002020029617505201000000000002            2  01296175052024052000000002716820000000001N050520000000000000000000000000000000000000000000000000000000000000000100029617510553MARILENE SOUZA DE OLIVEIRA              AVENIDA BRASIL - 393 AP.09 - PARQUE DAS             09210280                                                            000080
2SR. CAIXA, APOS O VENCIMENTO COBRAR 2% DE MULTA                                 NAO RECEBER APOS 30 DIAS DO VENCIMENTO.                                                                                                                                                                                                         05052000000000000000505200000000000000       0090339900006270296175052010000081
100000000000000000000009033990000627000000000000000000000000010002020000593205201000000000002            2  01005932052024052000000002979690000000001N050520000000000000000000000000000000000000000000000000000000000000000100000593293860WALTER HELIO BARBOSA FILHO              AVENIDA ANTONIO FREDERICO OZANAN - 9500             13214206                                                            000083
2SR. CAIXA, APOS O VENCIMENTO COBRAR 2% DE MULTA                                 NAO RECEBER APOS 30 DIAS DO VENCIMENTO.                                                                                                                                                                                                         05052000000000000000505200000000000000       0090339900006270005932052010000084
100000000000000000000009033990000627000000000000000000000000010002020007730005201600000000002            2  01077300052024052000000004237410000000001N050520000000000000000000000000000000000000000000000000000000000000000100007730084899ARNALDO LUIZ VONO                       RUA CARLOS JOSE BORSTENS - 50 AP.122 - A            11702750                                                            000086
2SR. CAIXA, APOS O VENCIMENTO COBRAR 2% DE MULTA                                 NAO RECEBER APOS 30 DIAS DO VENCIMENTO.                                                                                                                                                                                                         05052000000000000000505200000000000000       0090339900006270077300052016000087
100000000000000000000009033990000627000000000000000000000000010002020065584105201200000000002            2  01655841052024052000000001564170000000001N050520000000000000000000000000000000000000000000000000000000000000000100065584147834JOAQUIM DA COSTA MACHADO NETO           RUA CARLOS JOSE BORSTENS - 50 AP.42 - AV            11702750                                                            000089
2SR. CAIXA, APOS O VENCIMENTO COBRAR 2% DE MULTA                                 NAO RECEBER APOS 30 DIAS DO VENCIMENTO.                                                                                                                                                                                                         05052000000000000000505200000000000000       0090339900006270655841052012000090
100000000000000000000009033990000627000000000000000000000000010002020001616905201400000000002            2  01016169052024052000000002750890000000001N050520000000000000000000000000000000000000000000000000000000000000000100001616913827CLAUDIO LUIZ PAULELLA                   PRACA NESTOR DOS SANTOS ARRUDA - 26 - VI            13920000                                                            000092
2SR. CAIXA, APOS O VENCIMENTO COBRAR 2% DE MULTA                                 NAO RECEBER APOS 30 DIAS DO VENCIMENTO.                                                                                                                                                                                                         05052000000000000000505200000000000000       0090339900006270016169052014000093
100000000000000000000009033990000627000000000000000000000000010002020006684605201500000000002            2  01066846052026052000000002001460000000001N050520000000000000000000000000000000000000000000000000000000000000000100006684623884LAUDINOR VIEIRA GARCIA                  RUA CANDIDO SALES - 374 - JARDIM PRESIDE            07172000                                                            000095
2SR. CAIXA, APOS O VENCIMENTO COBRAR 2% DE MULTA                                 NAO RECEBER APOS 30 DIAS DO VENCIMENTO.                                                                                                                                                                                                         05052000000000000000505200000000000000       0090339900006270066846052015000096
100000000000000000000009033990000627000000000000000000000000010002020011663505201600000000002            2  01116635052026052000000002015880000000001N050520000000000000000000000000000000000000000000000000000000000000000100011663589844MARIA SAVIO QUARELLO                    AVENIDA MENDONCA DRUMOND - 321 - JARDIM             03524030                                                            000098
2SR. CAIXA, APOS O VENCIMENTO COBRAR 2% DE MULTA                                 NAO RECEBER APOS 30 DIAS DO VENCIMENTO.                                                                                                                                                                                                         05052000000000000000505200000000000000       0090339900006270116635052016000099
100000000000000000000009033990000627000000000000000000000000010002020010083805201800000000002            2  01100838052026052000000001947660000000001N050520000000000000000000000000000000000000000000000000000000000000000100010083824855IONE FERREIRA COUTO DA SILVA            RUA JOSE RAGEL DE MESQUITA - 60 CS.01 -             07799999                                                            000101
2SR. CAIXA, APOS O VENCIMENTO COBRAR 2% DE MULTA                                 NAO RECEBER APOS 30 DIAS DO VENCIMENTO.                                                                                                                                                                                                         05052000000000000000505200000000000000       0090339900006270100838052018000102
100000000000000000000009033990000627000000000000000000000000010002020036881705201000000000002            2  01368817052026052000000001911300000000001N050520000000000000000000000000000000000000000000000000000000000000000100036881778864ANDRE GONZALEZ RABELLO                  RUA PARAIBA - 106 AP.61 - POMPEIA - SANT            11065470                                                            000104
2SR. CAIXA, APOS O VENCIMENTO COBRAR 2% DE MULTA                                 NAO RECEBER APOS 30 DIAS DO VENCIMENTO.                                                                                                                                                                                                         05052000000000000000505200000000000000       0090339900006270368817052010000105
100000000000000000000009033990000627000000000000000000000000010002020018207005201P00000000002            2  01182070052024052000000002634550000000001N050520000000000000000000000000000000000000000000000000000000000000000100018207096802ROBERTO VALENTE TAVARES                 RUA SEBASTIAO GOMES - 218 - JARDIM SANTO            13835000                                                            000107
2SR. CAIXA, APOS O VENCIMENTO COBRAR 2% DE MULTA                                 NAO RECEBER APOS 30 DIAS DO VENCIMENTO.                                                                                                                                                                                                         05052000000000000000505200000000000000       009033990000627018207005201P000108
100000000000000000000009033990000627000000000000000000000000010002020005351005201200000000002            2  01053510052026052000000001792040000000001N050520000000000000000000000000000000000000000000000000000000000000000100005351015897VALERIA ALVES MARCOLINO HINNIGER        RUA JOSE CALIXTO DO CARMO - 286 AP.92 -             11702690                                                            000110
2SR. CAIXA, APOS O VENCIMENTO COBRAR 2% DE MULTA                                 NAO RECEBER APOS 30 DIAS DO VENCIMENTO.                                                                                                                                                                                                         05052000000000000000505200000000000000       0090339900006270053510052012000111
100000000000000000000009033990000627000000000000000000000000010002020031898705201800000000002            2  01318987052024052000000002851090000000001N050520000000000000000000000000000000000000000000000000000000000000000100031898775800ANITA MARTINS COLOMBO                   RUA CARLOS JOSE BORSTENS - 50 AP.115 - A            11702750                                                            000113
2SR. CAIXA, APOS O VENCIMENTO COBRAR 2% DE MULTA                                 NAO RECEBER APOS 30 DIAS DO VENCIMENTO.                                                                                                                                                                                                         05052000000000000000505200000000000000       0090339900006270318987052018000114
100000000000000000000009033990000627000000000000000000000000010002020037983405201800000000002            2  01379834052026052000000002105050000000001N050520000000000000000000000000000000000000000000000000000000000000000100037983484801JOSE ERIVALDO SOUZA DO NASCIMENTO RAMOS RUA LETICIA - 250 - JARDIM GUARUJA - SAO            05877260                                                            000116
2SR. CAIXA, APOS O VENCIMENTO COBRAR 2% DE MULTA                                 NAO RECEBER APOS 30 DIAS DO VENCIMENTO.                                                                                                                                                                                                         05052000000000000000505200000000000000       0090339900006270379834052018000117
100000000000000000000009033990000627000000000000000000000000010002020056289205201900000000002            2  01562892052026052000000001590260000000001N050520000000000000000000000000000000000000000000000000000000000000000100056289286900PEDRO RIBEIRO                           RUA CONEGO MANOEL VAZ - 48 - SANTANA - S            02019050                                                            000119
2SR. CAIXA, APOS O VENCIMENTO COBRAR 2% DE MULTA                                 NAO RECEBER APOS 30 DIAS DO VENCIMENTO.                                                                                                                                                                                                         05052000000000000000505200000000000000       0090339900006270562892052019000120
100000000000000000000009033990000627000000000000000000000000010002020005025505201200000000002            2  01050255052026052000000002263120000000001N050520000000000000000000000000000000000000000000000000000000000000000100005025595860CONCEICAO APARECIDA DE MESQUITA PEREIRA RUA TRIUNFO - 835 AP.105 - JARDIM SAO LU            14020670                                                            000122
2SR. CAIXA, APOS O VENCIMENTO COBRAR 2% DE MULTA                                 NAO RECEBER APOS 30 DIAS DO VENCIMENTO.                                                                                                                                                                                                         05052000000000000000505200000000000000       0090339900006270050255052012000123
100000000000000000000009033990000627000000000000000000000000010002020034735305201500000000002            2  01347353052026052000000002182540000000001N050520000000000000000000000000000000000000000000000000000000000000000100034735328866DIEGO FELIPE MOLINA DA SILVA E SOUSA    RUA EMILIA PAULISTA - 135 - VILA TIRADEN            05364020                                                            000125
2SR. CAIXA, APOS O VENCIMENTO COBRAR 2% DE MULTA                                 NAO RECEBER APOS 30 DIAS DO VENCIMENTO.                                                                                                                                                                                                         05052000000000000000505200000000000000       0090339900006270347353052015000126
100000000000000000000009033990000627000000000000000000000000010002020076175605201600000000002            2  01761756052024052000000003956690000000001N050520000000000000000000000000000000000000000000000000000000000000000100076175685687GILMAR DE OLIVEIRA BRAGA                RUA MARACAJU - 161 AP.202 - NOVA GRANADA            30431350                                                            000128
2SR. CAIXA, APOS O VENCIMENTO COBRAR 2% DE MULTA                                 NAO RECEBER APOS 30 DIAS DO VENCIMENTO.                                                                                                                                                                                                         05052000000000000000505200000000000000       0090339900006270761756052016000129
100000000000000000000009033990000627000000000000000000000000010002020034812205201900000000002            2  01348122052024052000000003773530000000001N050520000000000000000000000000000000000000000000000000000000000000000100034812226880THAIS TORQUATO MIMOSO DE JESUS          RUA ARNALDO CINTRA - 416 AP.104 TORRE 2             03088000                                                            000131
2SR. CAIXA, APOS O VENCIMENTO COBRAR 2% DE MULTA                                 NAO RECEBER APOS 30 DIAS DO VENCIMENTO.                                                                                                                                                                                                         05052000000000000000505200000000000000       0090339900006270348122052019000132
100000000000000000000009033990000627000000000000000000000000010002020012849405201500000000002            2  01128494052026052000000003759950000000001N050520000000000000000000000000000000000000000000000000000000000000000100012849428809MOISES CLAUDIO DO ROSARIO               AVENIDA DR. AUGUSTO DE TOLEDO - 510 AP.1            09541520                                                            000134
2SR. CAIXA, APOS O VENCIMENTO COBRAR 2% DE MULTA                                 NAO RECEBER APOS 30 DIAS DO VENCIMENTO.                                                                                                                                                                                                         05052000000000000000505200000000000000       0090339900006270128494052015000135
100000000000000000000009033990000627000000000000000000000000010002020015702305201500000000002            2  01157023052026052000000002086100000000001N050520000000000000000000000000000000000000000000000000000000000000000100015702353846MARIA DE LOURDES DE MACENO SOUZA        RUA JOSE CALIXTO DO CARMO - 286 AP.83 -             11702690                                                            000137
2SR. CAIXA, APOS O VENCIMENTO COBRAR 2% DE MULTA                                 NAO RECEBER APOS 30 DIAS DO VENCIMENTO.                                                                                                                                                                                                         05052000000000000000505200000000000000       0090339900006270157023052015000138
100000000000000000000009033990000627000000000000000000000000010002020006749705201700000000002            2  01067497052023052000000002010130000000001N050520000000000000000000000000000000000000000000000000000000000000000100006749731600MARCELA DA ROCHA REIS                   RUA COLOMBIA - 665 AP.1204 - JARDIM GUIL            11702020                                                            000140
2SR. CAIXA, APOS O VENCIMENTO COBRAR 2% DE MULTA                                 NAO RECEBER APOS 30 DIAS DO VENCIMENTO.                                                                                                                                                                                                         05052000000000000000505200000000000000       0090339900006270067497052017000141
100000000000000000000009033990000627000000000000000000000000010002020006749705202500000000002            2  01067497052023052000000002010120000000001N050520000000000000000000000000000000000000000000000000000000000000000100006749731600MARCELA DA ROCHA REIS                   RUA COLOMBIA - 665 AP.1204 - JARDIM GUIL            11702020                                                            000143
2SR. CAIXA, APOS O VENCIMENTO COBRAR 2% DE MULTA                                 NAO RECEBER APOS 30 DIAS DO VENCIMENTO.                                                                                                                                                                                                         05052000000000000000505200000000000000       0090339900006270067497052025000144
100000000000000000000009033990000627000000000000000000000000010002020003658605201P00000000002            2  01036586052026052000000001553310000000001N050520000000000000000000000000000000000000000000000000000000000000000100003658668814MARINEZ VALENTIN                        RUA JOSE CALIXTO DO CARMO - 286 AP.95 -             11702690                                                            000146
2SR. CAIXA, APOS O VENCIMENTO COBRAR 2% DE MULTA                                 NAO RECEBER APOS 30 DIAS DO VENCIMENTO.                                                                                                                                                                                                         05052000000000000000505200000000000000       009033990000627003658605201P000147
100000000000000000000009033990000627000000000000000000000000010002020014087405201800000000002            2  01140874052026052000000002075860000000001N050520000000000000000000000000000000000000000000000000000000000000000100014087484874SERGIO SANTOS DO NASCIMENTO             RUA PANTALEAO BRAZ - 21 - JARDIM ESTER -            05372080                                                            000149
2SR. CAIXA, APOS O VENCIMENTO COBRAR 2% DE MULTA                                 NAO RECEBER APOS 30 DIAS DO VENCIMENTO.                                                                                                                                                                                                         05052000000000000000505200000000000000       0090339900006270140874052018000150
100000000000000000000009033990000627000000000000000000000000010002020039540005201500000000002            2  01395400052026052000000001880410000000001N050520000000000000000000000000000000000000000000000000000000000000000100039540008816LUZINETE CLARINDO SILVA                 RUA DEINOS - 275 - BAIRRO CIDADE SATELIT            08340100                                                            000152
2SR. CAIXA, APOS O VENCIMENTO COBRAR 2% DE MULTA                                 NAO RECEBER APOS 30 DIAS DO VENCIMENTO.                                                                                                                                                                                                         05052000000000000000505200000000000000       0090339900006270395400052015000153
100000000000000000000009033990000627000000000000000000000000010002020005723205201P00000000002            2  01057232052023052000000002627960000000001N050520000000000000000000000000000000000000000000000000000000000000000100005723255843FRANCISCO DE ASSIS DA SILVA             PRACA NICOLAU GERAIGIRE - 25 VISOR - JAR            11095110                                                            000155
2SR. CAIXA, APOS O VENCIMENTO COBRAR 2% DE MULTA                                 NAO RECEBER APOS 30 DIAS DO VENCIMENTO.                                                                                                                                                                                                         05052000000000000000505200000000000000       009033990000627005723205201P000156
100000000000000000000009033990000627000000000000000000000000010002020003311005201200000000002            2  01033110052026052000000001958200000000001N050520000000000000000000000000000000000000000000000000000000000000000100003311030877SEBASTIAO SARUVA NETO                   RUA HAMILTON REGIS - 559 - BAIRRO DO LIM            08051440                                                            000158
2SR. CAIXA, APOS O VENCIMENTO COBRAR 2% DE MULTA                                 NAO RECEBER APOS 30 DIAS DO VENCIMENTO.                                                                                                                                                                                                         05052000000000000000505200000000000000       0090339900006270033110052012000159
9                                                                                                                                                                                                                                                                                                                                                                                                         000160