01REMESSA01COBRANCA       00000000000008017025HB SANTOS CONSTRUTORA E INCORP237BRADESCO       100918        MX0000063                                                                                                                                                                                                                                                                                     000001
100000000000000000000009033990000627000000000000000000000000010002020025035109181800000000002            2  01250351091824091800000001926250000000001N060918000000000000000000000000000000000000000000000000000000000000000100025035170802WANDERSON LUIS DE CARVALHO              RUA JOAQUIM GONCALVES ROCHA - 302 - JARD            02859030                                                            000002
2SR. CAIXA, APOS O VENCIMENTO COBRAR 2% DE MULTA                                 NAO RECEBER APOS 30 DIAS DO VENCIMENTO.                                                                                                                                                                                                         10091800000000000001009180000000000000       0090339900006270250351091818000003
100000000000000000000009033990000627000000000000000000000000010002020007294309181500000000002            2  01072943091824091800000002590860000000001N060918000000000000000000000000000000000000000000000000000000000000000100007294351805CLAUDENIR APARECIDO VACARI              RUA CARLOS JOSE BORSTENS - 50 AP.93 - AV            11702750                                                            000005
2SR. CAIXA, APOS O VENCIMENTO COBRAR 2% DE MULTA                                 NAO RECEBER APOS 30 DIAS DO VENCIMENTO.                                                                                                                                                                                                         10091800000000000001009180000000000000       0090339900006270072943091815000006
100000000000000000000009033990000627000000000000000000000000010002020042976109181500000000002            2  01429761091824091800000002618040000000001N060918000000000000000000000000000000000000000000000000000000000000000100042976111634ACACIO TOSCANO BONDANCA                 RUA COMENDADOR JACOMO ANTONIO LA SELVA -            12946797                                                            000008
2SR. CAIXA, APOS O VENCIMENTO COBRAR 2% DE MULTA                                 NAO RECEBER APOS 30 DIAS DO VENCIMENTO.                                                                                                                                                                                                         10091800000000000001009180000000000000       0090339900006270429761091815000009
100000000000000000000009033990000627000000000000000000000000010002020035438009181900000000002            2  01354380091824091800000002211070000000001N060918000000000000000000000000000000000000000000000000000000000000000100035438022836ALESSANDRO FARACO DOS SANTOS            RUA PEDRO POMAR  - 145 - JARDIM ELISA MA            02875020                                                            000011
2SR. CAIXA, APOS O VENCIMENTO COBRAR 2% DE MULTA                                 NAO RECEBER APOS 30 DIAS DO VENCIMENTO.                                                                                                                                                                                                         10091800000000000001009180000000000000       0090339900006270354380091819000012
100000000000000000000009033990000627000000000000000000000000010002020007525009181000000000002            2  01075250091824091800000002897980000000001N060918000000000000000000000000000000000000000000000000000000000000000100007525032866FERNANDO RIBEIRO                        RUA ALDO COLI - 539 - VILA MIRIM - PRAIA            11704760                                                            000014
2SR. CAIXA, APOS O VENCIMENTO COBRAR 2% DE MULTA                                 NAO RECEBER APOS 30 DIAS DO VENCIMENTO.                                                                                                                                                                                                         10091800000000000001009180000000000000       0090339900006270075250091810000015
100000000000000000000009033990000627000000000000000000000000010002020005071409181600000000002            2  01050714091824091800000002542070000000001N060918000000000000000000000000000000000000000000000000000000000000000100005071481855ERIBALDO SANTANA CARVALHO               RUA HONDURAS - 477 - PARQUE DAS AMERICAS            09351070                                                            000017
2SR. CAIXA, APOS O VENCIMENTO COBRAR 2% DE MULTA                                 NAO RECEBER APOS 30 DIAS DO VENCIMENTO.                                                                                                                                                                                                         10091800000000000001009180000000000000       0090339900006270050714091816000018
100000000000000000000009033990000627000000000000000000000000010002020002841709181P00000000002            2  01028417091824091800000002378330000000001N060918000000000000000000000000000000000000000000000000000000000000000100002841756416LUCIANA PINHEIRO DE ASSIS NUNES         RUA RIO ACIMA - 81 - RIACHO GRANDE - SAO            09830100                                                            000020
2SR. CAIXA, APOS O VENCIMENTO COBRAR 2% DE MULTA                                 NAO RECEBER APOS 30 DIAS DO VENCIMENTO.                                                                                                                                                                                                         10091800000000000001009180000000000000       009033990000627002841709181P000021
100000000000000000000009033990000627000000000000000000000000010002020084302009181900000000002            2  01843020091824091800000002389750000000001N060918000000000000000000000000000000000000000000000000000000000000000100084302097868FAUSTO TADEU VILOR                      RUA ANTONIO TAVARES - 466 - BAIRRO CAMBU            01542010                                                            000023
2SR. CAIXA, APOS O VENCIMENTO COBRAR 2% DE MULTA                                 NAO RECEBER APOS 30 DIAS DO VENCIMENTO.                                                                                                                                                                                                         10091800000000000001009180000000000000       0090339900006270843020091819000024
100000000000000000000009033990000627000000000000000000000000010002020028804209181900000000002            2  01288042091824091800000002347950000000001N060918000000000000000000000000000000000000000000000000000000000000000100028804202882GILBERTO FABIANO CABRAL DE CAMARGO      RUA CARLOS JOSE BORSTENS - 50 AP.44 - AV            11702750                                                            000026
2SR. CAIXA, APOS O VENCIMENTO COBRAR 2% DE MULTA                                 NAO RECEBER APOS 30 DIAS DO VENCIMENTO.                                                                                                                                                                                                         10091800000000000001009180000000000000       0090339900006270288042091819000027
100000000000000000000009033990000627000000000000000000000000010002020000991709181100000000002            2  01009917091824091800000002291670000000001N060918000000000000000000000000000000000000000000000000000000000000000100000991748808JAILSON BORGES DE ANDRADE               RUA IPIOBUNA - 45 - JARDIM CUMBICA - GUA            07240040                                                            000029
2SR. CAIXA, APOS O VENCIMENTO COBRAR 2% DE MULTA                                 NAO RECEBER APOS 30 DIAS DO VENCIMENTO.                                                                                                                                                                                                         10091800000000000001009180000000000000       0090339900006270009917091811000030
100000000000000000000009033990000627000000000000000000000000010002020092180209181900000000002            2  01921802091824091800000003124440000000001N060918000000000000000000000000000000000000000000000000000000000000000100092180299834LUIS ROBERTO DE SA DUARTE               RUA TEBAS - 296 AP.84 BLOCO 2 CE - JARDI            04634031                                                            000032
2SR. CAIXA, APOS O VENCIMENTO COBRAR 2% DE MULTA                                 NAO RECEBER APOS 30 DIAS DO VENCIMENTO.                                                                                                                                                                                                         10091800000000000001009180000000000000       0090339900006270921802091819000033
100000000000000000000009033990000627000000000000000000000000010002020022151609181800000000002            2  01221516091824091800000002278380000000001N060918000000000000000000000000000000000000000000000000000000000000000100022151666816SAMIR LIMA DE ARAUJO                    AVENIDA GUARAPIRANGA - 2616 AP.42 BLOCO1            04902005                                                            000035
2SR. CAIXA, APOS O VENCIMENTO COBRAR 2% DE MULTA                                 NAO RECEBER APOS 30 DIAS DO VENCIMENTO.                                                                                                                                                                                                         10091800000000000001009180000000000000       0090339900006270221516091818000036
100000000000000000000009033990000627000000000000000000000000010002020022313109181P00000000002            2  01223131091826091800000001783370000000001N060918000000000000000000000000000000000000000000000000000000000000000100022313116824ROSA MARIA BRITO DA SILVA               RUA SERVIDAO DE SAO MARCOS - 113 - JARDI            04930300                                                            000038
2SR. CAIXA, APOS O VENCIMENTO COBRAR 2% DE MULTA                                 NAO RECEBER APOS 30 DIAS DO VENCIMENTO.                                                                                                                                                                                                         10091800000000000001009180000000000000       009033990000627022313109181P000039
100000000000000000000009033990000627000000000000000000000000010002020027538009181100000000002            2  01275380091826091800000001789590000000001N060918000000000000000000000000000000000000000000000000000000000000000100027538087249MARA LUCIA MENEZES DA COSTA             RUA LEILA  - 183 - ITAQUERA - SAO PAULO             08240020                                                            000041
2SR. CAIXA, APOS O VENCIMENTO COBRAR 2% DE MULTA                                 NAO RECEBER APOS 30 DIAS DO VENCIMENTO.                                                                                                                                                                                                         10091800000000000001009180000000000000       0090339900006270275380091811000042
100000000000000000000009033990000627000000000000000000000000010002020020105509181P00000000002            2  01201055091826091800000001894530000000001N060918000000000000000000000000000000000000000000000000000000000000000100020105503827VALTER DE SOUSA LIBARINO FILHO          RUA DAS PAINEIRAS - 140 - LARANJEIRAS -             07700000                                                            000044
2SR. CAIXA, APOS O VENCIMENTO COBRAR 2% DE MULTA                                 NAO RECEBER APOS 30 DIAS DO VENCIMENTO.                                                                                                                                                                                                         10091800000000000001009180000000000000       009033990000627020105509181P000045
100000000000000000000009033990000627000000000000000000000000010002020031278409181800000000002            2  01312784091824091800000002200980000000001N060918000000000000000000000000000000000000000000000000000000000000000100031278411836JEFFERSON DE PIERI PIRES ZAMUNER        RUA MANOEL ARCE - 277 - PARQUE BANCARIO             03922150                                                            000047
2SR. CAIXA, APOS O VENCIMENTO COBRAR 2% DE MULTA                                 NAO RECEBER APOS 30 DIAS DO VENCIMENTO.                                                                                                                                                                                                         10091800000000000001009180000000000000       0090339900006270312784091818000048
100000000000000000000009033990000627000000000000000000000000010002020019185709181P00000000002            2  01191857091826091800000001628560000000001N060918000000000000000000000000000000000000000000000000000000000000000100019185769800AGUINALDO PESSOA DE LIMA                RUA JANUARIO ZINGARO - 252 AP.303 BL.04             05794300                                                            000050
2SR. CAIXA, APOS O VENCIMENTO COBRAR 2% DE MULTA                                 NAO RECEBER APOS 30 DIAS DO VENCIMENTO.                                                                                                                                                                                                         10091800000000000001009180000000000000       009033990000627019185709181P000051
100000000000000000000009033990000627000000000000000000000000010002020033303609181000000000002            2  01333036091826091800000001754110000000001N060918000000000000000000000000000000000000000000000000000000000000000100033303645809JESSICA DA SILVA FREITAS                RUA ARILDO VALADAO - 120 - JARDIM GUAEMB            04814600                                                            000053
2SR. CAIXA, APOS O VENCIMENTO COBRAR 2% DE MULTA                                 NAO RECEBER APOS 30 DIAS DO VENCIMENTO.                                                                                                                                                                                                         10091800000000000001009180000000000000       0090339900006270333036091810000054
100000000000000000000009033990000627000000000000000000000000010002020004824409181P00000000002            2  01048244091826091800000001767990000000001N060918000000000000000000000000000000000000000000000000000000000000000100004824443806ROSIMEIRE CLARA FERREIRA REZENDE        RUA JOAQUIM DE OLIVEIRA FREITAS - 912 AP            05133000                                                            000056
2SR. CAIXA, APOS O VENCIMENTO COBRAR 2% DE MULTA                                 NAO RECEBER APOS 30 DIAS DO VENCIMENTO.                                                                                                                                                                                                         10091800000000000001009180000000000000       009033990000627004824409181P000057
100000000000000000000009033990000627000000000000000000000000010002020006422609181600000000002            2  01064226091824091800000002383720000000001N060918000000000000000000000000000000000000000000000000000000000000000100006422607881GERALDO ALVES DA SILVA                  RUA ALFREDO JOREL - 195 AP.5 CONDOMINIO             04195020                                                            000059
2SR. CAIXA, APOS O VENCIMENTO COBRAR 2% DE MULTA                                 NAO RECEBER APOS 30 DIAS DO VENCIMENTO.                                                                                                                                                                                                         10091800000000000001009180000000000000       0090339900006270064226091816000060
100000000000000000000009033990000627000000000000000000000000010002020033877109181800000000002            2  01338771091826091800000001644530000000001N060918000000000000000000000000000000000000000000000000000000000000000100033877129870HELDER FERREIRA VIANA                   RUA TUPI - 254 - VILA TUPI - PRAIA GRAND            11703260                                                            000062
2SR. CAIXA, APOS O VENCIMENTO COBRAR 2% DE MULTA                                 NAO RECEBER APOS 30 DIAS DO VENCIMENTO.                                                                                                                                                                                                         10091800000000000001009180000000000000       0090339900006270338771091818000063
100000000000000000000009033990000627000000000000000000000000010002020028290709181100000000002            2  01282907091826091800000001515630000000001N060918000000000000000000000000000000000000000000000000000000000000000100028290719809VANESSA GIANGARRELLI PEREIRA            RUA BARINEL - 72 - JARDIM COTCHING - SAO            03462130                                                            000065
2SR. CAIXA, APOS O VENCIMENTO COBRAR 2% DE MULTA                                 NAO RECEBER APOS 30 DIAS DO VENCIMENTO.                                                                                                                                                                                                         10091800000000000001009180000000000000       0090339900006270282907091811000066
100000000000000000000009033990000627000000000000000000000000010002020087573009181700000000002            2  01875730091826091800000001655060000000001N060918000000000000000000000000000000000000000000000000000000000000000100087573059604VANDERLEY DE ASSIS                      RUA ROMEU ALBANI - 268 - JARDIM PARQUE R            13803810                                                            000068
2SR. CAIXA, APOS O VENCIMENTO COBRAR 2% DE MULTA                                 NAO RECEBER APOS 30 DIAS DO VENCIMENTO.                                                                                                                                                                                                         10091800000000000001009180000000000000       0090339900006270875730091817000069
100000000000000000000009033990000627000000000000000000000000010002020010825509181400000000002            2  01108255091826091800000001727160000000001N060918000000000000000000000000000000000000000000000000000000000000000100010825513847JOSE APARECIDO PEREIRA                  RUA GENERAL OSORIO - 305 - JARDIM TRINTA            11515130                                                            000071
2SR. CAIXA, APOS O VENCIMENTO COBRAR 2% DE MULTA                                 NAO RECEBER APOS 30 DIAS DO VENCIMENTO.                                                                                                                                                                                                         10091800000000000001009180000000000000       0090339900006270108255091814000072
100000000000000000000009033990000627000000000000000000000000010002020038818509181400000000002            2  01388185091826091800000002698710000000001N060918000000000000000000000000000000000000000000000000000000000000000100038818572814MAURICIUS ALEXANDRE ESTEVAM NABOR       RUA RAUL SERAPIAO BARROSO - 379 - ESPLAN            11340330                                                            000074
2SR. CAIXA, APOS O VENCIMENTO COBRAR 2% DE MULTA                                 NAO RECEBER APOS 30 DIAS DO VENCIMENTO.                                                                                                                                                                                                         10091800000000000001009180000000000000       0090339900006270388185091814000075
100000000000000000000009033990000627000000000000000000000000010002020039115109181600000000002            2  01391151091826091800000002129010000000001N060918000000000000000000000000000000000000000000000000000000000000000100039115139840LAIS CRISTINA RIBEIRO ANDO              RUA PERU - 769 AP.17 - VILA GUILHERMINA             11702250                                                            000077
2SR. CAIXA, APOS O VENCIMENTO COBRAR 2% DE MULTA                                 NAO RECEBER APOS 30 DIAS DO VENCIMENTO.                                                                                                                                                                                                         10091800000000000001009180000000000000       0090339900006270391151091816000078
100000000000000000000009033990000627000000000000000000000000010002020029617509181400000000002            2  01296175091824091800000002339700000000001N060918000000000000000000000000000000000000000000000000000000000000000100029617510553MARILENE SOUZA DE OLIVEIRA              AVENIDA BRASIL - 393 AP.09 - PARQUE DAS             09210280                                                            000080
2SR. CAIXA, APOS O VENCIMENTO COBRAR 2% DE MULTA                                 NAO RECEBER APOS 30 DIAS DO VENCIMENTO.                                                                                                                                                                                                         10091800000000000001009180000000000000       0090339900006270296175091814000081
100000000000000000000009033990000627000000000000000000000000010002020000593209181400000000002            2  01005932091824091800000002566070000000001N060918000000000000000000000000000000000000000000000000000000000000000100000593293860WALTER HELIO BARBOSA FILHO              AVENIDA ANTONIO FREDERICO OZANAN - 9500             13214206                                                            000083
2SR. CAIXA, APOS O VENCIMENTO COBRAR 2% DE MULTA                                 NAO RECEBER APOS 30 DIAS DO VENCIMENTO.                                                                                                                                                                                                         10091800000000000001009180000000000000       0090339900006270005932091814000084
100000000000000000000009033990000627000000000000000000000000010002020007730009181P00000000002            2  01077300091824091800000003649220000000001N060918000000000000000000000000000000000000000000000000000000000000000100007730084899ARNALDO LUIZ VONO                       RUA CARLOS JOSE BORSTENS - 50 AP.122 - A            11702750                                                            000086
2SR. CAIXA, APOS O VENCIMENTO COBRAR 2% DE MULTA                                 NAO RECEBER APOS 30 DIAS DO VENCIMENTO.                                                                                                                                                                                                         10091800000000000001009180000000000000       009033990000627007730009181P000087
100000000000000000000009033990000627000000000000000000000000010002020065584109181600000000002            2  01655841091824091800000001347030000000001N060918000000000000000000000000000000000000000000000000000000000000000100065584147834JOAQUIM DA COSTA MACHADO NETO           RUA CARLOS JOSE BORSTENS - 50 AP.42 - AV            11702750                                                            000089
2SR. CAIXA, APOS O VENCIMENTO COBRAR 2% DE MULTA                                 NAO RECEBER APOS 30 DIAS DO VENCIMENTO.                                                                                                                                                                                                         10091800000000000001009180000000000000       0090339900006270655841091816000090
100000000000000000000009033990000627000000000000000000000000010002020065584109182400000000002            2  01655841091824091800000001347030000000001N060918000000000000000000000000000000000000000000000000000000000000000100065584147834JOAQUIM DA COSTA MACHADO NETO           RUA CARLOS JOSE BORSTENS - 50 AP.42 - AV            11702750                                                            000092
2SR. CAIXA, APOS O VENCIMENTO COBRAR 2% DE MULTA                                 NAO RECEBER APOS 30 DIAS DO VENCIMENTO.                                                                                                                                                                                                         10091800000000000001009180000000000000       0090339900006270655841091824000093
100000000000000000000009033990000627000000000000000000000000010002020001616909181800000000002            2  01016169091824091800000002369040000000001N060918000000000000000000000000000000000000000000000000000000000000000100001616913827CLAUDIO LUIZ PAULELLA                   PRACA NESTOR DOS SANTOS ARRUDA - 26 - VI            13920000                                                            000095
2SR. CAIXA, APOS O VENCIMENTO COBRAR 2% DE MULTA                                 NAO RECEBER APOS 30 DIAS DO VENCIMENTO.                                                                                                                                                                                                         10091800000000000001009180000000000000       0090339900006270016169091818000096
100000000000000000000009033990000627000000000000000000000000010002020006684609181900000000002            2  01066846091826091800000006235770000000001N060918000000000000000000000000000000000000000000000000000000000000000100006684623884LAUDINOR VIEIRA GARCIA                  RUA CANDIDO SALES - 374 - JARDIM PRESIDE            07172000                                                            000098
2SR. CAIXA, APOS O VENCIMENTO COBRAR 2% DE MULTA                                 NAO RECEBER APOS 30 DIAS DO VENCIMENTO.                                                                                                                                                                                                         10091800000000000001009180000000000000       0090339900006270066846091819000099
100000000000000000000009033990000627000000000000000000000000010002020006684609182700000000002            2  01066846091826091800000001753870000000001N060918000000000000000000000000000000000000000000000000000000000000000100006684623884LAUDINOR VIEIRA GARCIA                  RUA CANDIDO SALES - 374 - JARDIM PRESIDE            07172000                                                            000101
2SR. CAIXA, APOS O VENCIMENTO COBRAR 2% DE MULTA                                 NAO RECEBER APOS 30 DIAS DO VENCIMENTO.                                                                                                                                                                                                         10091800000000000001009180000000000000       0090339900006270066846091827000102
100000000000000000000009033990000627000000000000000000000000010002020011663509181P00000000002            2  01116635091826091800000001766510000000001N060918000000000000000000000000000000000000000000000000000000000000000100011663589844MARIA SAVIO QUARELLO                    AVENIDA MENDONCA DRUMOND - 321 - JARDIM             03524030                                                            000104
2SR. CAIXA, APOS O VENCIMENTO COBRAR 2% DE MULTA                                 NAO RECEBER APOS 30 DIAS DO VENCIMENTO.                                                                                                                                                                                                         10091800000000000001009180000000000000       009033990000627011663509181P000105
100000000000000000000009033990000627000000000000000000000000010002020010083809181100000000002            2  01100838091826091800000001706730000000001N060918000000000000000000000000000000000000000000000000000000000000000100010083824855IONE FERREIRA COUTO DA SILVA            RUA JOSE RAGEL DE MESQUITA - 60 CS.01 -             07799999                                                            000107
2SR. CAIXA, APOS O VENCIMENTO COBRAR 2% DE MULTA                                 NAO RECEBER APOS 30 DIAS DO VENCIMENTO.                                                                                                                                                                                                         10091800000000000001009180000000000000       0090339900006270100838091811000108
100000000000000000000009033990000627000000000000000000000000010002020036881709181400000000002            2  01368817091826091800000001674870000000001N060918000000000000000000000000000000000000000000000000000000000000000100036881778864ANDRE GONZALEZ RABELLO                  RUA PARAIBA - 106 AP.61 - POMPEIA - SANT            11065470                                                            000110
2SR. CAIXA, APOS O VENCIMENTO COBRAR 2% DE MULTA                                 NAO RECEBER APOS 30 DIAS DO VENCIMENTO.                                                                                                                                                                                                         10091800000000000001009180000000000000       0090339900006270368817091814000111
100000000000000000000009033990000627000000000000000000000000010002020018207009181300000000002            2  01182070091824091800000002268870000000001N060918000000000000000000000000000000000000000000000000000000000000000100018207096802ROBERTO VALENTE TAVARES                 RUA SEBASTIAO GOMES - 218 - JARDIM SANTO            13835000                                                            000113
2SR. CAIXA, APOS O VENCIMENTO COBRAR 2% DE MULTA                                 NAO RECEBER APOS 30 DIAS DO VENCIMENTO.                                                                                                                                                                                                         10091800000000000001009180000000000000       0090339900006270182070091813000114
100000000000000000000009033990000627000000000000000000000000010002020005351009181600000000002            2  01053510091826091800000001570360000000001N060918000000000000000000000000000000000000000000000000000000000000000100005351015897VALERIA ALVES MARCOLINO HINNIGER        RUA MONGOLIA - 230 AP.71 BL.4 - PARQUE N            09280220                                                            000116
2SR. CAIXA, APOS O VENCIMENTO COBRAR 2% DE MULTA                                 NAO RECEBER APOS 30 DIAS DO VENCIMENTO.                                                                                                                                                                                                         10091800000000000001009180000000000000       0090339900006270053510091816000117
100000000000000000000009033990000627000000000000000000000000010002020031898709181100000000002            2  01318987091824091800000002455340000000001N060918000000000000000000000000000000000000000000000000000000000000000100031898775800ANITA MARTINS COLOMBO                   RUA CARLOS JOSE BORSTENS - 50 AP.115 - A            11702750                                                            000119
2SR. CAIXA, APOS O VENCIMENTO COBRAR 2% DE MULTA                                 NAO RECEBER APOS 30 DIAS DO VENCIMENTO.                                                                                                                                                                                                         10091800000000000001009180000000000000       0090339900006270318987091811000120
100000000000000000000009033990000627000000000000000000000000010002020037983409181100000000002            2  01379834091826091800000001844660000000001N060918000000000000000000000000000000000000000000000000000000000000000100037983484801JOSE ERIVALDO SOUZA DO NASCIMENTO RAMOS RUA LETICIA - 250 - JARDIM GUARUJA - SAO            05877260                                                            000122
2SR. CAIXA, APOS O VENCIMENTO COBRAR 2% DE MULTA                                 NAO RECEBER APOS 30 DIAS DO VENCIMENTO.                                                                                                                                                                                                         10091800000000000001009180000000000000       0090339900006270379834091811000123
100000000000000000000009033990000627000000000000000000000000010002020056289209181200000000002            2  01562892091826091800000001393550000000001N060918000000000000000000000000000000000000000000000000000000000000000100056289286900PEDRO RIBEIRO                           RUA CONEGO MANOEL VAZ - 48 - SANTANA - S            02019050                                                            000125
2SR. CAIXA, APOS O VENCIMENTO COBRAR 2% DE MULTA                                 NAO RECEBER APOS 30 DIAS DO VENCIMENTO.                                                                                                                                                                                                         10091800000000000001009180000000000000       0090339900006270562892091812000126
9                                                                                                                                                                                                                                                                                                                                                                                                         000127