01REMESSA01COBRANCA       00000000000008017025HB SANTOS CONSTRUTORA E INCORP237BRADESCO       010320        MX0000098                                                                                                                                                                                                                                                                                     000001
100000000000000000000009033990000627000000000000000000000000010002020029671503201400000000002            2  01296715032009032000000002648170000000001N010320000000000000000000000000000000000000000000000000000000000000000100029671526845ROGERIO CONSENTINO                      RUA CARLOS MAZER  - 678 - VILA CARMOSINA            08290700                                                            000002
2SR. CAIXA, APOS O VENCIMENTO COBRAR 2% DE MULTA                                 NAO RECEBER APOS 30 DIAS DO VENCIMENTO.                                                                                                                                                                                                         01032000000000000000103200000000000000       0090339900006270296715032014000003
100000000000000000000009033990000627000000000000000000000000010002020003863003201600000000002            2  01038630032009032000000002501410000000001N010320000000000000000000000000000000000000000000000000000000000000000100003863075803HERALDO MENQUINI                        RUA CARLOS JOSE BORSTENS - 50 AP.15 - AV            11702750                                                            000005
2SR. CAIXA, APOS O VENCIMENTO COBRAR 2% DE MULTA                                 NAO RECEBER APOS 30 DIAS DO VENCIMENTO.                                                                                                                                                                                                         01032000000000000000103200000000000000       0090339900006270038630032016000006
100000000000000000000009033990000627000000000000000000000000010002020029028403201300000000002            2  01290284032009032000000002562450000000001N010320000000000000000000000000000000000000000000000000000000000000000100029028478825LEONARDO LOUZADA                        RUA CARLOS JOSE BORSTENS - 50 AP.35 - AV            11702750                                                            000008
2SR. CAIXA, APOS O VENCIMENTO COBRAR 2% DE MULTA                                 NAO RECEBER APOS 30 DIAS DO VENCIMENTO.                                                                                                                                                                                                         01032000000000000000103200000000000000       0090339900006270290284032013000009
100000000000000000000009033990000627000000000000000000000000010002020032878503201000000000002            2  01328785032009032000000003703260000000001N010320000000000000000000000000000000000000000000000000000000000000000100032878512847LEONARDO MOURA MONIZ CALDEIRA           RUA BALSA - 682 AP.134 T.02 - VILA ARCAD            02910000                                                            000011
2SR. CAIXA, APOS O VENCIMENTO COBRAR 2% DE MULTA                                 NAO RECEBER APOS 30 DIAS DO VENCIMENTO.                                                                                                                                                                                                         01032000000000000000103200000000000000       0090339900006270328785032010000012
100000000000000000000009033990000627000000000000000000000000010002020016479003201800000000002            2  01164790032009032000000003939600000000001N010320000000000000000000000000000000000000000000000000000000000000000100016479002806LOURDES PEREIRA DE QUEIROZ SECANECHIA   RUA PAULINO CURSI - 437 - CIDADE SAO MAT            03960060                                                            000014
2SR. CAIXA, APOS O VENCIMENTO COBRAR 2% DE MULTA                                 NAO RECEBER APOS 30 DIAS DO VENCIMENTO.                                                                                                                                                                                                         01032000000000000000103200000000000000       0090339900006270164790032018000015
100000000000000000000009033990000627000000000000000000000000010002020019635003201500000000002            2  01196350032009032000000002906740000000001N010320000000000000000000000000000000000000000000000000000000000000000100019635091885IVAN VIEIRA SILVA                       ABRAO JORGE - 3001 - JARDIM INTEGRACAO -            14405397                                                            000017
2SR. CAIXA, APOS O VENCIMENTO COBRAR 2% DE MULTA                                 NAO RECEBER APOS 30 DIAS DO VENCIMENTO.                                                                                                                                                                                                         01032000000000000000103200000000000000       0090339900006270196350032015000018
100000000000000000000009033990000627000000000000000000000000010002020009361403201500000000002            2  01093614032009032000000002860160000000001N010320000000000000000000000000000000000000000000000000000000000000000100009361471805JOSE BARBOSA DA SILVA                   RUA ALFREDO INACIO TRINDADE  - 60 AP.44             02344100                                                            000020
2SR. CAIXA, APOS O VENCIMENTO COBRAR 2% DE MULTA                                 NAO RECEBER APOS 30 DIAS DO VENCIMENTO.                                                                                                                                                                                                         01032000000000000000103200000000000000       0090339900006270093614032015000021
100000000000000000000009033990000627000000000000000000000000010002020012756903201900000000002            2  01127569032009032000000002468940000000001N010320000000000000000000000000000000000000000000000000000000000000000100012756959812ITAMAR JUVENAL DIAS DA SILVA            RUA ELISEU REINALDO MORAES VIEIRA - 90 A            02858000                                                            000023
2SR. CAIXA, APOS O VENCIMENTO COBRAR 2% DE MULTA                                 NAO RECEBER APOS 30 DIAS DO VENCIMENTO.                                                                                                                                                                                                         01032000000000000000103200000000000000       0090339900006270127569032019000024
100000000000000000000009033990000627000000000000000000000000010002020002731003201600000000002            2  01027310032009032000000002918960000000001N010320000000000000000000000000000000000000000000000000000000000000000100002731042842VALTER CERQUEIRA VILLA NOVA             RUA MACHADO - 106 - VILA AUGUSTA - GUARU            07025210                                                            000026
2SR. CAIXA, APOS O VENCIMENTO COBRAR 2% DE MULTA                                 NAO RECEBER APOS 30 DIAS DO VENCIMENTO.                                                                                                                                                                                                         01032000000000000000103200000000000000       0090339900006270027310032016000027
100000000000000000000009033990000627000000000000000000000000010002020002731003202400000000002            2  01027310032009032000000002918950000000001N010320000000000000000000000000000000000000000000000000000000000000000100002731042842VALTER CERQUEIRA VILLA NOVA             RUA MACHADO - 106 - VILA AUGUSTA - GUARU            07025210                                                            000029
2SR. CAIXA, APOS O VENCIMENTO COBRAR 2% DE MULTA                                 NAO RECEBER APOS 30 DIAS DO VENCIMENTO.                                                                                                                                                                                                         01032000000000000000103200000000000000       0090339900006270027310032024000030
100000000000000000000009033990000627000000000000000000000000010002020028802103201400000000002            2  01288021032009032000000002635740000000001N010320000000000000000000000000000000000000000000000000000000000000000100028802158894ELIEL HENRIQUE ZUZA                     RUA CARLOS JOSE BORSTENS - 50 AP.43 - BA            11702750                                                            000032
2SR. CAIXA, APOS O VENCIMENTO COBRAR 2% DE MULTA                                 NAO RECEBER APOS 30 DIAS DO VENCIMENTO.                                                                                                                                                                                                         01032000000000000000103200000000000000       0090339900006270288021032014000033
100000000000000000000009033990000627000000000000000000000000010002020008739103201800000000002            2  01087391032009032000000002465100000000001N010320000000000000000000000000000000000000000000000000000000000000000100008739150895VANGEVALDO BATISTA SANT ANNA            TRAVESSA TOMAZIN - 02 - ERMELINO MATARAZ            03811125                                                            000035
2SR. CAIXA, APOS O VENCIMENTO COBRAR 2% DE MULTA                                 NAO RECEBER APOS 30 DIAS DO VENCIMENTO.                                                                                                                                                                                                         01032000000000000000103200000000000000       0090339900006270087391032018000036
100000000000000000000009033990000627000000000000000000000000010002020005313703201400000000002            2  01053137032011032000000002130580000000001N010320000000000000000000000000000000000000000000000000000000000000000100005313717863EDIMICIO JOSE DE ARAUJO                 PRACA NICOLAU GERAIGIRE - 680 CA A - JAR            11095110                                                            000038
2SR. CAIXA, APOS O VENCIMENTO COBRAR 2% DE MULTA                                 NAO RECEBER APOS 30 DIAS DO VENCIMENTO.                                                                                                                                                                                                         01032000000000000000103200000000000000       0090339900006270053137032014000039
100000000000000000000009033990000627000000000000000000000000010002020029433603201200000000002            2  01294336032011032000000002046760000000001N010320000000000000000000000000000000000000000000000000000000000000000100029433631897MARIO MUNIZ                             RUA JOSE CALIXTO DO CARMO - 286 AP.53 -             11702690                                                            000041
2SR. CAIXA, APOS O VENCIMENTO COBRAR 2% DE MULTA                                 NAO RECEBER APOS 30 DIAS DO VENCIMENTO.                                                                                                                                                                                                         01032000000000000000103200000000000000       0090339900006270294336032012000042
100000000000000000000009033990000627000000000000000000000000010002020001847203201000000000002            2  01018472032011032000000001884290000000001N010320000000000000000000000000000000000000000000000000000000000000000100001847204864AMERICA CONCEICAO DA SILVA              RUA JOSE CALIXTO DO CARMO - 286 AP.44 -             11702690                                                            000044
2SR. CAIXA, APOS O VENCIMENTO COBRAR 2% DE MULTA                                 NAO RECEBER APOS 30 DIAS DO VENCIMENTO.                                                                                                                                                                                                         01032000000000000000103200000000000000       0090339900006270018472032010000045
100000000000000000000009033990000627000000000000000000000000010002020005029803201500000000002            2  01050298032009032000000002517240000000001N010320000000000000000000000000000000000000000000000000000000000000000100005029828885LAURINETE DA CONCEICAO DE NORONHA       RUA MARIA LUCIA DE TOLEDO LEITE MORAES -            04434040                                                            000047
2SR. CAIXA, APOS O VENCIMENTO COBRAR 2% DE MULTA                                 NAO RECEBER APOS 30 DIAS DO VENCIMENTO.                                                                                                                                                                                                         01032000000000000000103200000000000000       0090339900006270050298032015000048
100000000000000000000009033990000627000000000000000000000000010002020013388903201700000000002            2  01133889032011032000000001995270000000001N010320000000000000000000000000000000000000000000000000000000000000000100013388936889NEUTON DE SOUZA RAMOS                   RUA MARIA CRISTINA - 932 - JARDIM CASQUE            11533160                                                            000050
2SR. CAIXA, APOS O VENCIMENTO COBRAR 2% DE MULTA                                 NAO RECEBER APOS 30 DIAS DO VENCIMENTO.                                                                                                                                                                                                         01032000000000000000103200000000000000       0090339900006270133889032017000051
100000000000000000000009033990000627000000000000000000000000010002020012774903201700000000002            2  01127749032011032000000002032740000000001N010320000000000000000000000000000000000000000000000000000000000000000100012774906865JOSE MILTON SANTIAGO                    RUA BATATAIS - 47 - CIDADE ESTELA - POA             08563140                                                            000053
2SR. CAIXA, APOS O VENCIMENTO COBRAR 2% DE MULTA                                 NAO RECEBER APOS 30 DIAS DO VENCIMENTO.                                                                                                                                                                                                         01032000000000000000103200000000000000       0090339900006270127749032017000054
100000000000000000000009033990000627000000000000000000000000010002020016294103201200000000002            2  01162941032009032000000002499180000000001N010320000000000000000000000000000000000000000000000000000000000000000100016294119812JURACY FELIX DE ARRUDA                  RUA CARLOS JOSE BORSTENS - 50 AP.23 - AV            11702750                                                            000056
2SR. CAIXA, APOS O VENCIMENTO COBRAR 2% DE MULTA                                 NAO RECEBER APOS 30 DIAS DO VENCIMENTO.                                                                                                                                                                                                         01032000000000000000103200000000000000       0090339900006270162941032012000057
100000000000000000000009033990000627000000000000000000000000010002020005613803201700000000002            2  01056138032011032000000001869560000000001N010320000000000000000000000000000000000000000000000000000000000000000100005613843805NILZA MARIA DE OLIVEIRA                 RUA JOSE GONCALVES DE FREITAS - 66 C2 -             08210550                                                            000059
2SR. CAIXA, APOS O VENCIMENTO COBRAR 2% DE MULTA                                 NAO RECEBER APOS 30 DIAS DO VENCIMENTO.                                                                                                                                                                                                         01032000000000000000103200000000000000       0090339900006270056138032017000060
100000000000000000000009033990000627000000000000000000000000010002020007574903201700000000002            2  01075749032011032000000001919060000000001N010320000000000000000000000000000000000000000000000000000000000000000100007574936889JORGE LUCIANO PEREIRA BORRIELLO         RUA JOSE CALIXTO DO CARMO - 286 AP.54 -             11702690                                                            000062
2SR. CAIXA, APOS O VENCIMENTO COBRAR 2% DE MULTA                                 NAO RECEBER APOS 30 DIAS DO VENCIMENTO.                                                                                                                                                                                                         01032000000000000000103200000000000000       0090339900006270075749032017000063
100000000000000000000009033990000627000000000000000000000000010002020008214903201P00000000002            2  01082149032011032000000001948180000000001N010320000000000000000000000000000000000000000000000000000000000000000100008214973830JAMIL CHALA                             RUA JOSE CALIXTO DO CARMO - 286 AP.22 -             11702690                                                            000065
2SR. CAIXA, APOS O VENCIMENTO COBRAR 2% DE MULTA                                 NAO RECEBER APOS 30 DIAS DO VENCIMENTO.                                                                                                                                                                                                         01032000000000000000103200000000000000       009033990000627008214903201P000066
100000000000000000000009033990000627000000000000000000000000010002020032495003201700000000002            2  01324950032011032000000002183180000000001N010320000000000000000000000000000000000000000000000000000000000000000100032495004881PAULO EDUARDO DOS SANTOS                RUA REPUBLICA DO IRAQUE - 1119 - CAMPO B            04611002                                                            000068
2SR. CAIXA, APOS O VENCIMENTO COBRAR 2% DE MULTA                                 NAO RECEBER APOS 30 DIAS DO VENCIMENTO.                                                                                                                                                                                                         01032000000000000000103200000000000000       0090339900006270324950032017000069
100000000000000000000009033990000627000000000000000000000000010002020006471803201700000000002            2  01064718032009032000000002460500000000001N010320000000000000000000000000000000000000000000000000000000000000000100006471825803JOSIVALDO BASTOS DE OLIVEIRA            RUA MARIA DIAS HOG - 263 - PARQUE CONTIN            07085035                                                            000071
2SR. CAIXA, APOS O VENCIMENTO COBRAR 2% DE MULTA                                 NAO RECEBER APOS 30 DIAS DO VENCIMENTO.                                                                                                                                                                                                         01032000000000000000103200000000000000       0090339900006270064718032017000072
100000000000000000000009033990000627000000000000000000000000010002020016498003201400000000002            2  01164980032011032000000001914700000000001N010320000000000000000000000000000000000000000000000000000000000000000100016498053810GILMA CEZARIO GARCIA CORRITORI          RUA LAURENTINO XAVIER DOS SANTOS - 336 -            08240740                                                            000074
2SR. CAIXA, APOS O VENCIMENTO COBRAR 2% DE MULTA                                 NAO RECEBER APOS 30 DIAS DO VENCIMENTO.                                                                                                                                                                                                         01032000000000000000103200000000000000       0090339900006270164980032014000075
100000000000000000000009033990000627000000000000000000000000010002020029339003201300000000002            2  01293390032011032000000002047440000000001N010320000000000000000000000000000000000000000000000000000000000000000100029339051831RONALD DIDOFF                           RUA CORONEL FERREIRA BRAGA - 188 - VILA             03522010                                                            000077
2SR. CAIXA, APOS O VENCIMENTO COBRAR 2% DE MULTA                                 NAO RECEBER APOS 30 DIAS DO VENCIMENTO.                                                                                                                                                                                                         01032000000000000000103200000000000000       0090339900006270293390032013000078
100000000000000000000009033990000627000000000000000000000000010002020017357803201500000000002            2  01173578032011032000000002168420000000001N010320000000000000000000000000000000000000000000000000000000000000000100017357859894MARCIO GUIMARAES                        RUA GENERAL CAMARA - 188 SALA 11 - CENTR            11010120                                                            000080
2SR. CAIXA, APOS O VENCIMENTO COBRAR 2% DE MULTA                                 NAO RECEBER APOS 30 DIAS DO VENCIMENTO.                                                                                                                                                                                                         01032000000000000000103200000000000000       0090339900006270173578032015000081
100000000000000000000009033990000627000000000000000000000000010002020010563003201500000000002            2  01105630032011032000000002223850000000001N010320000000000000000000000000000000000000000000000000000000000000000100010563033878VERA LUCIA RIBEIRO LONGANEZI            RUA DOS CAMARES - 150 AP.24 BL.02 - CARA            02068030                                                            000083
2SR. CAIXA, APOS O VENCIMENTO COBRAR 2% DE MULTA                                 NAO RECEBER APOS 30 DIAS DO VENCIMENTO.                                                                                                                                                                                                         01032000000000000000103200000000000000       0090339900006270105630032015000084
100000000000000000000009033990000627000000000000000000000000010002020005529603201P00000000002            2  01055296032011032000000002018060000000001N010320000000000000000000000000000000000000000000000000000000000000000100005529616801JOAQUIM JORGE DA COSTA                  RUA JOSE CALIXTO DO CARMO - 286 AP.106 -            11702690                                                            000086
2SR. CAIXA, APOS O VENCIMENTO COBRAR 2% DE MULTA                                 NAO RECEBER APOS 30 DIAS DO VENCIMENTO.                                                                                                                                                                                                         01032000000000000000103200000000000000       009033990000627005529603201P000087
100000000000000000000009033990000627000000000000000000000000010002020022014103201400000000002            2  01220141032011032000000002012190000000001N010320000000000000000000000000000000000000000000000000000000000000000100022014140847CAMILA SILVEIRA CANIZARES               AVENIDA PRESIDENTE CASTELO BRANCO - 5.74            11703650                                                            000089
2SR. CAIXA, APOS O VENCIMENTO COBRAR 2% DE MULTA                                 NAO RECEBER APOS 30 DIAS DO VENCIMENTO.                                                                                                                                                                                                         01032000000000000000103200000000000000       0090339900006270220141032014000090
100000000000000000000009033990000627000000000000000000000000010002020015550703201600000000002            2  01155507032009032000000001908050000000001N010320000000000000000000000000000000000000000000000000000000000000000100015550706806MARY MIWA                               RUA CARLOS JOSE BORSTENS - 50 AP.105 - A            11702750                                                            000092
2SR. CAIXA, APOS O VENCIMENTO COBRAR 2% DE MULTA                                 NAO RECEBER APOS 30 DIAS DO VENCIMENTO.                                                                                                                                                                                                         01032000000000000000103200000000000000       0090339900006270155507032016000093
100000000000000000000009033990000627000000000000000000000000010002020015464603201600000000002            2  01154646032011032000000002121470000000001N010320000000000000000000000000000000000000000000000000000000000000000100015464647864SONIA TERESA VOLPATO                    RUA JOSE CALIXTO DO CARMO - 286 AP.73 -             11702690                                                            000095
2SR. CAIXA, APOS O VENCIMENTO COBRAR 2% DE MULTA                                 NAO RECEBER APOS 30 DIAS DO VENCIMENTO.                                                                                                                                                                                                         01032000000000000000103200000000000000       0090339900006270154646032016000096
100000000000000000000009033990000627000000000000000000000000010002020008657803201500000000002            2  01086578032011032000000002100170000000001N010320000000000000000000000000000000000000000000000000000000000000000100008657886855ARLINDO DA CRUZ                         AVENIDA ARICANDUVA - 8.256 AP.54 BL.10 -            03951220                                                            000098
2SR. CAIXA, APOS O VENCIMENTO COBRAR 2% DE MULTA                                 NAO RECEBER APOS 30 DIAS DO VENCIMENTO.                                                                                                                                                                                                         01032000000000000000103200000000000000       0090339900006270086578032015000099
100000000000000000000009033990000627000000000000000000000000010002020004265703201500000000002            2  01042657032009032000000002811470000000001N010320000000000000000000000000000000000000000000000000000000000000000100004265781713ALEXANDRE CASADO COSTA                  RUA CARLOS JOSE BORSTENS - 50 AP.33 - AV            11702750                                                            000101
2SR. CAIXA, APOS O VENCIMENTO COBRAR 2% DE MULTA                                 NAO RECEBER APOS 30 DIAS DO VENCIMENTO.                                                                                                                                                                                                         01032000000000000000103200000000000000       0090339900006270042657032015000102
100000000000000000000009033990000627000000000000000000000000010002020059735103201300000000002            2  01597351032009032000000001187500000000001N010320000000000000000000000000000000000000000000000000000000000000000100059735180863HELIO JOSE MARQUES                      RUA MARTIM AFONSO DE SOUZA - 1007 AP.102            11702790                                                            000104
2SR. CAIXA, APOS O VENCIMENTO COBRAR 2% DE MULTA                                 NAO RECEBER APOS 30 DIAS DO VENCIMENTO.                                                                                                                                                                                                         01032000000000000000103200000000000000       0090339900006270597351032013000105
100000000000000000000009033990000627000000000000000000000000010002020026347803201700000000002            2  01263478032011032000000002245030000000001N010320000000000000000000000000000000000000000000000000000000000000000100026347872862VALDECI SILVA MEIRELES                  RUA JOSE BATISTA DA SILVA - 292 - JARDIM            06851470                                                            000107
2SR. CAIXA, APOS O VENCIMENTO COBRAR 2% DE MULTA                                 NAO RECEBER APOS 30 DIAS DO VENCIMENTO.                                                                                                                                                                                                         01032000000000000000103200000000000000       0090339900006270263478032017000108
100000000000000000000009033990000627000000000000000000000000010002020025443603201800000000002            2  01254436032009032000000004066960000000001N010320000000000000000000000000000000000000000000000000000000000000000100025443691830SILVANETE PEREIRA CARNELOS              RUA CARLOS JOSE BORSTENS - 50 AP.102 - A            11702750                                                            000110
2SR. CAIXA, APOS O VENCIMENTO COBRAR 2% DE MULTA                                 NAO RECEBER APOS 30 DIAS DO VENCIMENTO.                                                                                                                                                                                                         01032000000000000000103200000000000000       0090339900006270254436032018000111
100000000000000000000009033990000627000000000000000000000000010002020013135203201800000000002            2  01131352032011032000000002062620000000001N010320000000000000000000000000000000000000000000000000000000000000000100013135261859EDUARDO ZANOLA                          RUA ROLANDO PIETRO BONINI - 46 - JARDIM             09781040                                                            000113
2SR. CAIXA, APOS O VENCIMENTO COBRAR 2% DE MULTA                                 NAO RECEBER APOS 30 DIAS DO VENCIMENTO.                                                                                                                                                                                                         01032000000000000000103200000000000000       0090339900006270131352032018000114
100000000000000000000009033990000627000000000000000000000000010002020009797603201900000000002            2  01097976032011032000000002008780000000001N010320000000000000000000000000000000000000000000000000000000000000000100009797626857RICARDO SOBRAL DE OLIVEIRA              RUA 23 DE MAIO - 139 AP.32 - VILA MIRIM             11704690                                                            000116
2SR. CAIXA, APOS O VENCIMENTO COBRAR 2% DE MULTA                                 NAO RECEBER APOS 30 DIAS DO VENCIMENTO.                                                                                                                                                                                                         01032000000000000000103200000000000000       0090339900006270097976032019000117
100000000000000000000009033990000627000000000000000000000000010002020004767603201P00000000002            2  01047676032009032000000003434970000000001N010320000000000000000000000000000000000000000000000000000000000000000100004767679893ORLANDO GRANDE FILHO                    RUA ORLANDO MIGLIARI - 101 - JARDIM OURO            19906140                                                            000119
2SR. CAIXA, APOS O VENCIMENTO COBRAR 2% DE MULTA                                 NAO RECEBER APOS 30 DIAS DO VENCIMENTO.                                                                                                                                                                                                         01032000000000000000103200000000000000       009033990000627004767603201P000120
100000000000000000000009033990000627000000000000000000000000010002020006512503201700000000002            2  01065125032011032000000001806990000000001N010320000000000000000000000000000000000000000000000000000000000000000100006512547870MARIA DO CARMO FAGUNDES DOS REIS        RUA CARLOS MALCHER - 98 - PARQUE EDU CHA            02232020                                                            000122
2SR. CAIXA, APOS O VENCIMENTO COBRAR 2% DE MULTA                                 NAO RECEBER APOS 30 DIAS DO VENCIMENTO.                                                                                                                                                                                                         01032000000000000000103200000000000000       0090339900006270065125032017000123
100000000000000000000009033990000627000000000000000000000000010002020022728403201P00000000002            2  01227284032011032000000002173620000000001N010320000000000000000000000000000000000000000000000000000000000000000100022728497842WILLIAN DE SOUZA MELLO                  RUA JOSE CALIXTO DO CARMO - 286 AP.111 -            11702690                                                            000125
2SR. CAIXA, APOS O VENCIMENTO COBRAR 2% DE MULTA                                 NAO RECEBER APOS 30 DIAS DO VENCIMENTO.                                                                                                                                                                                                         01032000000000000000103200000000000000       009033990000627022728403201P000126
100000000000000000000009033990000627000000000000000000000000010002020016909703201400000000002            2  01169097032011032000000001920810000000001N010320000000000000000000000000000000000000000000000000000000000000000100016909746805EDIVALDO SANTANA DOS SANTOS             ESTRADA JOAO GASPAR DELGADO - 80 AP.213             08536100                                                            000128
2SR. CAIXA, APOS O VENCIMENTO COBRAR 2% DE MULTA                                 NAO RECEBER APOS 30 DIAS DO VENCIMENTO.                                                                                                                                                                                                         01032000000000000000103200000000000000       0090339900006270169097032014000129
100000000000000000000009033990000627000000000000000000000000010002020022036003201100000000002            2  01220360032009032000000002982800000000001N010320000000000000000000000000000000000000000000000000000000000000000100022036003818DERLIS TERAN QUIROGA ROGATO             RUA JOAO RIBEIRO - 709 AP.61 - CAMPESTRE            09070250                                                            000131
2SR. CAIXA, APOS O VENCIMENTO COBRAR 2% DE MULTA                                 NAO RECEBER APOS 30 DIAS DO VENCIMENTO.                                                                                                                                                                                                         01032000000000000000103200000000000000       0090339900006270220360032011000132
100000000000000000000009033990000627000000000000000000000000010002020017229703202800000000002            2  01172297032009032000000002878670000000001N010320000000000000000000000000000000000000000000000000000000000000000100017229751802BERENICE VIEIRA KERSTING                RUA ATIBAIA - 17 AP.417 - BAIRRO IMPERAD            11707380                                                            000134
2SR. CAIXA, APOS O VENCIMENTO COBRAR 2% DE MULTA                                 NAO RECEBER APOS 30 DIAS DO VENCIMENTO.                                                                                                                                                                                                         01032000000000000000103200000000000000       0090339900006270172297032028000135
100000000000000000000009033990000627000000000000000000000000010002020012475603201500000000002            2  01124756032011032000000002082040000000001N010320000000000000000000000000000000000000000000000000000000000000000100012475663820CELIDALVA GOES DE CARVALHO              RUA AURELIO BELOTTI JUNIOR - 28 - JARDIM            05759210                                                            000137
2SR. CAIXA, APOS O VENCIMENTO COBRAR 2% DE MULTA                                 NAO RECEBER APOS 30 DIAS DO VENCIMENTO.                                                                                                                                                                                                         01032000000000000000103200000000000000       0090339900006270124756032015000138
100000000000000000000009033990000627000000000000000000000000010002020033451603201200000000002            2  01334516032011032000000001738610000000001N010320000000000000000000000000000000000000000000000000000000000000000100033451620839ARAO ELISIARIO  NUNES                   RUA JOSE CALIXTO DO CARMO - 286 AP.64 -             11702690                                                            000140
2SR. CAIXA, APOS O VENCIMENTO COBRAR 2% DE MULTA                                 NAO RECEBER APOS 30 DIAS DO VENCIMENTO.                                                                                                                                                                                                         01032000000000000000103200000000000000       0090339900006270334516032012000141
100000000000000000000009033990000627000000000000000000000000010002020095758203201200000000002            2  01957582032011032000000002114400000000001N010320000000000000000000000000000000000000000000000000000000000000000100095758275891SHIRLEY TUNES ASTOLFI                   RUA GUAPERUVU - 656 AP.84 - VILA ARICAND            03504010                                                            000143
2SR. CAIXA, APOS O VENCIMENTO COBRAR 2% DE MULTA                                 NAO RECEBER APOS 30 DIAS DO VENCIMENTO.                                                                                                                                                                                                         01032000000000000000103200000000000000       0090339900006270957582032012000144
100000000000000000000009033990000627000000000000000000000000010002020045839203201P00000000002            2  01458392032011032000000001349490000000001N010320000000000000000000000000000000000000000000000000000000000000000100045839263834LEONARDO ANTONIO CONCELLIERI            RUA JOSE CALIXTO DO CARMO - 286 AP.51 -             11702690                                                            000146
2SR. CAIXA, APOS O VENCIMENTO COBRAR 2% DE MULTA                                 NAO RECEBER APOS 30 DIAS DO VENCIMENTO.                                                                                                                                                                                                         01032000000000000000103200000000000000       009033990000627045839203201P000147
100000000000000000000009033990000627000000000000000000000000010002020011369103201000000000002            2  01113691032011032000000001899250000000001N010320000000000000000000000000000000000000000000000000000000000000000100011369165803ELIANA CORREA DE OLIVEIRA               AVENIDA ELIAS MALUF - 2695 CASA 419 - WA            18055215                                                            000149
2SR. CAIXA, APOS O VENCIMENTO COBRAR 2% DE MULTA                                 NAO RECEBER APOS 30 DIAS DO VENCIMENTO.                                                                                                                                                                                                         01032000000000000000103200000000000000       0090339900006270113691032010000150
100000000000000000000009033990000627000000000000000000000000010002020026858603201700000000002            2  01268586032008032000000002658190000000001N010320000000000000000000000000000000000000000000000000000000000000000100026858625879GLAUCE FERREIRA DE OLIVEIRA FALSI       RUA CATULO DA PAIXAO CEARENSE - 190 AP.1            04145010                                                            000152
2SR. CAIXA, APOS O VENCIMENTO COBRAR 2% DE MULTA                                 NAO RECEBER APOS 30 DIAS DO VENCIMENTO.                                                                                                                                                                                                         01032000000000000000103200000000000000       0090339900006270268586032017000153
100000000000000000000009033990000627000000000000000000000000010002020002253803201400000000002            2  01022538032011032000000001688070000000001N010320000000000000000000000000000000000000000000000000000000000000000100002253816809EDMILSON ALVES DA SILVA                 ESTRADA SAO FRANCISCO - 2.008 AP.14 T.G             06764290                                                            000155
2SR. CAIXA, APOS O VENCIMENTO COBRAR 2% DE MULTA                                 NAO RECEBER APOS 30 DIAS DO VENCIMENTO.                                                                                                                                                                                                         01032000000000000000103200000000000000       0090339900006270022538032014000156
100000000000000000000009033990000627000000000000000000000000010002020037947003201600000000002            2  01379470032011032000000002998120000000001N010320000000000000000000000000000000000000000000000000000000000000000100037947070873BRUNO DE CAETANO MARRINHAS              RUA ADRIATICO - 151 AP.82 BLOCO 18 - JAR            09172180                                                            000158
2SR. CAIXA, APOS O VENCIMENTO COBRAR 2% DE MULTA                                 NAO RECEBER APOS 30 DIAS DO VENCIMENTO.                                                                                                                                                                                                         01032000000000000000103200000000000000       0090339900006270379470032016000159
100000000000000000000009033990000627000000000000000000000000010002020037517703201400000000002            2  01375177032009032000000003163720000000001N010320000000000000000000000000000000000000000000000000000000000000000100037517785869RENATO JOSE DE LIMA MELO                RUA ARISTIDES LOBO - 148 AP.41 BLOCO 03             03041100                                                            000161
2SR. CAIXA, APOS O VENCIMENTO COBRAR 2% DE MULTA                                 NAO RECEBER APOS 30 DIAS DO VENCIMENTO.                                                                                                                                                                                                         01032000000000000000103200000000000000       0090339900006270375177032014000162
9                                                                                                                                                                                                                                                                                                                                                                                                         000163