01REMESSA01COBRANCA       00000000000005623874H B SANTOS CONSTRUTORA E INCOR237BRADESCO       090524        MX0000015                                                                                                                                                                                                                                                                                     000001
100000000000000000000009033990001086300000000000000000000000010002020012644905241900000000002            2  01126449052425052400000003284210000000001N080524000000000000000000000000000000000000000000000000000000000000000100012644907802SIMONE SERRANO SILVA PRADO              RUA TAIUVINHA - 597 - BAIRRO JARDIM JACU            08060040                                                            000002
2SR. CAIXA, APOS O VENCIMENTO COBRAR 2% DE MULTA                                 NAO RECEBER APOS 30 DIAS DO VENCIMENTO.                                                                                                                                                                                                         09052400000000000000905240000000000000       0090339900010863126449052419000003
100000000000000000000009033990001086300000000000000000000000010002020033870205241P00000000002            2  01338702052425052400000003198710000000001N080524000000000000000000000000000000000000000000000000000000000000000100033870205890NATHALIA GOMES PAZ                      ALAMEDA INHAMBU - 214 RESIDENCIAL 10 - B            06540100                                                            000005
2SR. CAIXA, APOS O VENCIMENTO COBRAR 2% DE MULTA                                 NAO RECEBER APOS 30 DIAS DO VENCIMENTO.                                                                                                                                                                                                         09052400000000000000905240000000000000       009033990001086333870205241P000006
100000000000000000000009033990001086300000000000000000000000010002020055874005241500000000002            2  01558740052425052400000003183380000000001N080524000000000000000000000000000000000000000000000000000000000000000100055874045104MANUEL MARTINS AFONSO JUNIOR            AVENIDA AFONSO PENA - 463 - BAIRRO ESTUA            11020003                                                            000008
2SR. CAIXA, APOS O VENCIMENTO COBRAR 2% DE MULTA                                 NAO RECEBER APOS 30 DIAS DO VENCIMENTO.                                                                                                                                                                                                         09052400000000000000905240000000000000       0090339900010863558740052415000009
100000000000000000000009033990001086300000000000000000000000010002020029067905241200000000002            2  01290679052425052400000002838250000000001N080524000000000000000000000000000000000000000000000000000000000000000100029067948802SANTIAGO VALDOMIRO CORDEIRO             RUA MANOEL QUIRINODE MATTOS - 1.537 CS02            03969000                                                            000011
2SR. CAIXA, APOS O VENCIMENTO COBRAR 2% DE MULTA                                 NAO RECEBER APOS 30 DIAS DO VENCIMENTO.                                                                                                                                                                                                         09052400000000000000905240000000000000       0090339900010863290679052412000012
100000000000000000000009033990001086300000000000000000000000010002020041475705241700000000002            2  01414757052425052400000002979780000000001N080524000000000000000000000000000000000000000000000000000000000000000100041475767889GUSTAVO HENRIQUE SIMIONI FRANCO MENDONCARUA JACOB EMERICK - 42 AP.308 - BAIRRO G            11310070                                                            000014
2SR. CAIXA, APOS O VENCIMENTO COBRAR 2% DE MULTA                                 NAO RECEBER APOS 30 DIAS DO VENCIMENTO.                                                                                                                                                                                                         09052400000000000000905240000000000000       0090339900010863414757052417000015
100000000000000000000009033990001086300000000000000000000000010002020032353405241P00000000002            2  01323534052425052400000003408000000000001N080524000000000000000000000000000000000000000000000000000000000000000100032353404839JULIANA BATISTA BENTO                   RUA MONTE PLANO - 387 CASA 5 - VILA MARG            11335020                                                            000017
2SR. CAIXA, APOS O VENCIMENTO COBRAR 2% DE MULTA                                 NAO RECEBER APOS 30 DIAS DO VENCIMENTO.                                                                                                                                                                                                         09052400000000000000905240000000000000       009033990001086332353405241P000018
100000000000000000000009033990001086300000000000000000000000010002020031015905241000000000002            2  01310159052425052400000002979410000000001N080524000000000000000000000000000000000000000000000000000000000000000100031015918808PATRICK COSTA FAGILDE                   AVENIDA PRESIDENTE CASTELO BRANCO - 4.52            11702705                                                            000020
2SR. CAIXA, APOS O VENCIMENTO COBRAR 2% DE MULTA                                 NAO RECEBER APOS 30 DIAS DO VENCIMENTO.                                                                                                                                                                                                         09052400000000000000905240000000000000       0090339900010863310159052410000021
100000000000000000000009033990001086300000000000000000000000010002020024614305241000000000002            2  01246143052425052400000003273870000000001N080524000000000000000000000000000000000000000000000000000000000000000100024614361854JOSE SANTANA JUNIOR                     RUA RUI BARBOSA - 358 AP.83 - CANTO DO F            11700170                                                            000023
2SR. CAIXA, APOS O VENCIMENTO COBRAR 2% DE MULTA                                 NAO RECEBER APOS 30 DIAS DO VENCIMENTO.                                                                                                                                                                                                         09052400000000000000905240000000000000       0090339900010863246143052410000024
100000000000000000000009033990001086300000000000000000000000010002020045564905241700000000002            2  01455649052425052400000003021840000000001N080524000000000000000000000000000000000000000000000000000000000000000100045564998871THOMAS NICOLAS PETRICELLI               RUA BRIGADEIRO FARIA LIMA - 173 AP.42 -             11700630                                                            000026
2SR. CAIXA, APOS O VENCIMENTO COBRAR 2% DE MULTA                                 NAO RECEBER APOS 30 DIAS DO VENCIMENTO.                                                                                                                                                                                                         09052400000000000000905240000000000000       0090339900010863455649052417000027
100000000000000000000009033990001086300000000000000000000000010002020031413605241900000000002            2  01314136052425052400000002951410000000001N080524000000000000000000000000000000000000000000000000000000000000000100031413672809ALZENIR CORREIA FIGUEIRA                RUA LUZIA ENCARNACAO VIDAL - 675 AP.133             11702370                                                            000029
2SR. CAIXA, APOS O VENCIMENTO COBRAR 2% DE MULTA                                 NAO RECEBER APOS 30 DIAS DO VENCIMENTO.                                                                                                                                                                                                         09052400000000000000905240000000000000       0090339900010863314136052419000030
100000000000000000000009033990001086300000000000000000000000010002020001365605241100000000002            2  01013656052425052400000002847950000000001N080524000000000000000000000000000000000000000000000000000000000000000100001365670880IVANILDO PROTAZIO DA SILVA              RUA SAO CELSO - 71 AP.44A - VILA DOMITIL            03626000                                                            000032
2SR. CAIXA, APOS O VENCIMENTO COBRAR 2% DE MULTA                                 NAO RECEBER APOS 30 DIAS DO VENCIMENTO.                                                                                                                                                                                                         09052400000000000000905240000000000000       0090339900010863013656052411000033
9                                                                                                                                                                                                                                                                                                                                                                                                         000034