01REMESSA01COBRANCA       00000000000005316116AIRES CONSTRUTORA E INCORPORAD237BRADESCO       030222        MX0000188                                                                                                                                                                                                                                                                                     000001
100000000000000000000009002800441612000000000000000000000000010002100023132602221100000000002            2  01231326022225022200000002377550000000001N020222000000000000000000000000000000000000000000000000000000000000000100023132672882LEANDRO MORENO                          RUA MONTE CASTELO - 296 AP.64 - AVIACAO             11702720                                                            000002
2SR. CAIXA, APOS O VENCIMENTO COBRAR 10% DE MULTA                                NAO RECEBER APOS 30 DIAS DO VENCIMENTO.                                                                                                                                                                                                         03022200000000000000302220000000000000       0090028004416120231326022211000003
100000000000000000000009002800441612000000000000000000000000010002100000666302221100000000002            2  01006663022225022200000003911660000000001N020222000000000000000000000000000000000000000000000000000000000000000100000666344825LUIZ HENRIQUE DE CAMPOS                 RUA JOAO CARLOS CAVALCANTI REIS - 21 - J            02281206                                                            000005
2SR. CAIXA, APOS O VENCIMENTO COBRAR 10% DE MULTA                                NAO RECEBER APOS 30 DIAS DO VENCIMENTO.                                                                                                                                                                                                         03022200000000000000302220000000000000       0090028004416120006663022211000006
100000000000000000000009002800441612000000000000000000000000010002100029155002221100000000002            2  01291550022225022200000004130830000000001N020222000000000000000000000000000000000000000000000000000000000000000100029155026842DANIELA YOSHIDA                         RUA MONTE CASTELO - 262 AP.34 - AVIACAO             11702720                                                            000008
2SR. CAIXA, APOS O VENCIMENTO COBRAR 10% DE MULTA                                NAO RECEBER APOS 30 DIAS DO VENCIMENTO.                                                                                                                                                                                                         03022200000000000000302220000000000000       0090028004416120291550022211000009
100000000000000000000009002800441612000000000000000000000000010002100001204402221500000000002            2  01012044022225022200000003364020000000001N020222000000000000000000000000000000000000000000000000000000000000000100001204431809CEZAR TALAVERA JUNIOR                   RUA MAESTRO ARTURO DE ANGELIS  - 190 AP.            05139010                                                            000011
2SR. CAIXA, APOS O VENCIMENTO COBRAR 10% DE MULTA                                NAO RECEBER APOS 30 DIAS DO VENCIMENTO.                                                                                                                                                                                                         03022200000000000000302220000000000000       0090028004416120012044022215000012
100000000000000000000009002800441612000000000000000000000000010002100004227502221400000000002            2  01042275022225022200000004360780000000001N020222000000000000000000000000000000000000000000000000000000000000000100004227553970ALESSANDRO ISRAEL GOULART               RUA PROFESSORA CARLINDA RIBEIRO - 21 - F            02866200                                                            000014
2SR. CAIXA, APOS O VENCIMENTO COBRAR 10% DE MULTA                                NAO RECEBER APOS 30 DIAS DO VENCIMENTO.                                                                                                                                                                                                         03022200000000000000302220000000000000       0090028004416120042275022214000015
100000000000000000000009002800441612000000000000000000000000010002100001024702221800000000002            2  01010247022225022200000003802980000000001N020222000000000000000000000000000000000000000000000000000000000000000100001024794881CLAUDIO RODRIGUES                       RUA ARACATUBA - 242 - LAPA - SAO PAULO -            05058010                                                            000017
2SR. CAIXA, APOS O VENCIMENTO COBRAR 10% DE MULTA                                NAO RECEBER APOS 30 DIAS DO VENCIMENTO.                                                                                                                                                                                                         03022200000000000000302220000000000000       0090028004416120010247022218000018
100000000000000000000009002800441612000000000000000000000000010002100002225002221900000000002            2  01022250022225022200000005830480000000001N020222000000000000000000000000000000000000000000000000000000000000000100002225072841PEDRO EDUARDO DE AZEVEDO                RUA NATH ZILMAN - 46 - JARDIM SAMAMBAIA             07623085                                                            000020
2SR. CAIXA, APOS O VENCIMENTO COBRAR 10% DE MULTA                                NAO RECEBER APOS 30 DIAS DO VENCIMENTO.                                                                                                                                                                                                         03022200000000000000302220000000000000       0090028004416120022250022219000021
100000000000000000000009002800441612000000000000000000000000010002100022037502221700000000002            2  01220375022225022200000004057360000000001N020222000000000000000000000000000000000000000000000000000000000000000100022037552882ANDREIA CRISTINA FERNANDES DANTAS       PCA CASTRO ALVES - 163 AP.33 - VILA SAO             13224299                                                            000023
2SR. CAIXA, APOS O VENCIMENTO COBRAR 10% DE MULTA                                NAO RECEBER APOS 30 DIAS DO VENCIMENTO.                                                                                                                                                                                                         03022200000000000000302220000000000000       0090028004416120220375022217000024
100000000000000000000009002800441612000000000000000000000000010002100027198402221900000000002            2  01271984022225022200000002798340000000001N020222000000000000000000000000000000000000000000000000000000000000000100027198452809CRISTIANE AURELIANO DA SILVA MAIA       RUA MONTE CASTELO - 262 AP.25 - AVIACAO             11702720                                                            000026
2SR. CAIXA, APOS O VENCIMENTO COBRAR 10% DE MULTA                                NAO RECEBER APOS 30 DIAS DO VENCIMENTO.                                                                                                                                                                                                         03022200000000000000302220000000000000       0090028004416120271984022219000027
100000000000000000000009002800441612000000000000000000000000010002100021246202221200000000002            2  01212462022225022200000003415110000000001N020222000000000000000000000000000000000000000000000000000000000000000100021246231840ALEXANDRO DA CUNHA MIGUES               RUA DULCE - 71  - VILA CARRAO - SAO PAUL            03427040                                                            000029
2SR. CAIXA, APOS O VENCIMENTO COBRAR 10% DE MULTA                                NAO RECEBER APOS 30 DIAS DO VENCIMENTO.                                                                                                                                                                                                         03022200000000000000302220000000000000       0090028004416120212462022212000030
100000000000000000000009002800441612000000000000000000000000010002100018470502221200000000002            2  01184705022225022200000005024130000000001N020222000000000000000000000000000000000000000000000000000000000000000100018470520881SILVANA ALVES DE OLIVEIRA               RUA MONTE CASTELO - 262 AP.91 - AVIACAO             11702720                                                            000032
2SR. CAIXA, APOS O VENCIMENTO COBRAR 10% DE MULTA                                NAO RECEBER APOS 30 DIAS DO VENCIMENTO.                                                                                                                                                                                                         03022200000000000000302220000000000000       0090028004416120184705022212000033
100000000000000000000009002800441612000000000000000000000000010002100009297502221200000000002            2  01092975022225022200000003497730000000001N020222000000000000000000000000000000000000000000000000000000000000000100009297523846MARCOS ROBERTO DE CASTRO FERREIRA       RUA MONTE CASTELO - 262 AP.105 - AVIACAO            11702720                                                            000035
2SR. CAIXA, APOS O VENCIMENTO COBRAR 10% DE MULTA                                NAO RECEBER APOS 30 DIAS DO VENCIMENTO.                                                                                                                                                                                                         03022200000000000000302220000000000000       0090028004416120092975022212000036
100000000000000000000009002800441612000000000000000000000000010002100001164102221100000000002            2  01011641022225022200000004334500000000001N020222000000000000000000000000000000000000000000000000000000000000000100001164158864DAVID BLEY LACERDA                      RUA CONEGO ARAUJO MARCONDES - 188 - BAIR            02550080                                                            000038
2SR. CAIXA, APOS O VENCIMENTO COBRAR 10% DE MULTA                                NAO RECEBER APOS 30 DIAS DO VENCIMENTO.                                                                                                                                                                                                         03022200000000000000302220000000000000       0090028004416120011641022211000039
100000000000000000000009002800441612000000000000000000000000010002100031498002221500000000002            2  01314980022225022200000005267950000000001N020222000000000000000000000000000000000000000000000000000000000000000100031498008895POLIANE  SIBELE DA SILVA                PRACA GENERAL COSTA BARRETO - 56 AP.181             03325070                                                            000041
2SR. CAIXA, APOS O VENCIMENTO COBRAR 10% DE MULTA                                NAO RECEBER APOS 30 DIAS DO VENCIMENTO.                                                                                                                                                                                                         03022200000000000000302220000000000000       0090028004416120314980022215000042
100000000000000000000009002800441612000000000000000000000000010002100000588102221900000000002            2  01005881022225022200000003089760000000001N020222000000000000000000000000000000000000000000000000000000000000000100000588109860JOSE LIARTE GIANTE                      AVENIDA LUIZ GONZAGA DO AMARAL - 143 - J            09320630                                                            000044
2SR. CAIXA, APOS O VENCIMENTO COBRAR 10% DE MULTA                                NAO RECEBER APOS 30 DIAS DO VENCIMENTO.                                                                                                                                                                                                         03022200000000000000302220000000000000       0090028004416120005881022219000045
100000000000000000000009002800441612000000000000000000000000010002100014386802221100000000002            2  01143868022225022200000002471680000000001N020222000000000000000000000000000000000000000000000000000000000000000100014386860134SEVERINO CARLOS DE OLIVEIRA             RUA MONTE CASTELO - 262 AP.54 - AVIACAO             11702720                                                            000047
2SR. CAIXA, APOS O VENCIMENTO COBRAR 10% DE MULTA                                NAO RECEBER APOS 30 DIAS DO VENCIMENTO.                                                                                                                                                                                                         03022200000000000000302220000000000000       0090028004416120143868022211000048
100000000000000000000009002800441612000000000000000000000000010002100039393702221700000000002            2  01393937022225022200000001703530000000001N020222000000000000000000000000000000000000000000000000000000000000000100039393790850NAIRON RICARDO DE ARAUJO SANTOS         RUA NITEROI - 267 CASA 04 - JARDIM INDEP            11380350                                                            000050
2SR. CAIXA, APOS O VENCIMENTO COBRAR 10% DE MULTA                                NAO RECEBER APOS 30 DIAS DO VENCIMENTO.                                                                                                                                                                                                         03022200000000000000302220000000000000       0090028004416120393937022217000051
100000000000000000000009002800441612000000000000000000000000010002100019288702221500000000002            2  01192887022225022200000002294180000000001N020222000000000000000000000000000000000000000000000000000000000000000100019288787844EMERSON LUIZ MARTINEZ PEREIRA           RUA MONTE CASTELO - 296 AP.74 - AVIACAO             11702720                                                            000053
2SR. CAIXA, APOS O VENCIMENTO COBRAR 10% DE MULTA                                NAO RECEBER APOS 30 DIAS DO VENCIMENTO.                                                                                                                                                                                                         03022200000000000000302220000000000000       0090028004416120192887022215000054
9                                                                                                                                                                                                                                                                                                                                                                                                         000055