01REMESSA01COBRANCA       00000000000005331186HB SANTOS CONSTRUTORA E INCORP237BRADESCO       011123        MX0000084                                                                                                                                                                                                                                                                                     000001
100000000000000000000009033990000995400000000000000000000000010002020026858611231200000000002            2  01268586112308112300000003248580000000001N011123000000000000000000000000000000000000000000000000000000000000000100026858625879GLAUCE FERREIRA DE OLIVEIRA FALSI       RUA LOURENCO ANTONIO BRAGANCA - 116 - JA            04403160                                                            000002
2SR. CAIXA, APOS O VENCIMENTO COBRAR 2% DE MULTA                                 NAO RECEBER APOS 30 DIAS DO VENCIMENTO.                                                                                                                                                                                                         01112300000000000000111230000000000000       0090339900009954268586112312000003
100000000000000000000009033990000995400000000000000000000000010002020029425011231500000000002            2  01294250112308112300000003089390000000001N011123000000000000000000000000000000000000000000000000000000000000000100029425027897FABIA DOS SANTOS DE ANDRADE             AVENIDA ALCIDES CANDIDO DOS SANTOS - 248            11705480                                                            000005
2SR. CAIXA, APOS O VENCIMENTO COBRAR 2% DE MULTA                                 NAO RECEBER APOS 30 DIAS DO VENCIMENTO.                                                                                                                                                                                                         01112300000000000000111230000000000000       0090339900009954294250112315000006
100000000000000000000009033990000995400000000000000000000000010002020078382711231000000000002            2  01783827112308112300000003122010000000001N011123000000000000000000000000000000000000000000000000000000000000000100078382700497JARMELINA BARBOSA DA SILVA              RUA OSCAR CINTRA GORDINHO - 211 AP.51 -             01512010                                                            000008
2SR. CAIXA, APOS O VENCIMENTO COBRAR 2% DE MULTA                                 NAO RECEBER APOS 30 DIAS DO VENCIMENTO.                                                                                                                                                                                                         01112300000000000000111230000000000000       0090339900009954783827112310000009
100000000000000000000009033990000995400000000000000000000000010002020007535311231P00000000002            2  01075353112308112300000003061500000000001N011123000000000000000000000000000000000000000000000000000000000000000100007535375839AINAILDE PEREIRA DE CASTRO OLIVETTO     TRAVESSA DORALINA ELIETE ADAO DA SILVA -            08021026                                                            000011
2SR. CAIXA, APOS O VENCIMENTO COBRAR 2% DE MULTA                                 NAO RECEBER APOS 30 DIAS DO VENCIMENTO.                                                                                                                                                                                                         01112300000000000000111230000000000000       009033990000995407535311231P000012
100000000000000000000009033990000995400000000000000000000000010002020017229711231500000000002            2  01172297112308112300000003243000000000001N011123000000000000000000000000000000000000000000000000000000000000000100017229751802BERENICE VIEIRA KERSTING                RUA ATIBAIA - 17 AP.417 - BAIRRO IMPERAD            11707380                                                            000014
2SR. CAIXA, APOS O VENCIMENTO COBRAR 2% DE MULTA                                 NAO RECEBER APOS 30 DIAS DO VENCIMENTO.                                                                                                                                                                                                         01112300000000000000111230000000000000       0090339900009954172297112315000015
100000000000000000000009033990000995400000000000000000000000010002020028974211231700000000002            2  01289742112308112300000003028870000000001N011123000000000000000000000000000000000000000000000000000000000000000100028974233827MARISTELA FAVANI DE OLIVEIRA            RUA GIUSEPPE CARNEVALLI - 96 - BAIRRO BO            09572100                                                            000017
2SR. CAIXA, APOS O VENCIMENTO COBRAR 2% DE MULTA                                 NAO RECEBER APOS 30 DIAS DO VENCIMENTO.                                                                                                                                                                                                         01112300000000000000111230000000000000       0090339900009954289742112317000018
100000000000000000000009033990000995400000000000000000000000010002020092184811231400000000002            2  01921848112308112300000002988570000000001N011123000000000000000000000000000000000000000000000000000000000000000100092184804800CARMEM DO SOCORRO GUILHERME             ESTRADA SAO FRANCISCO - 1.850 AP.182A -             06765000                                                            000020
2SR. CAIXA, APOS O VENCIMENTO COBRAR 2% DE MULTA                                 NAO RECEBER APOS 30 DIAS DO VENCIMENTO.                                                                                                                                                                                                         01112300000000000000111230000000000000       0090339900009954921848112314000021
100000000000000000000009033990000995400000000000000000000000010002020009169711231400000000002            2  01091697112308112300000002396870000000001N011123000000000000000000000000000000000000000000000000000000000000000100009169701830TADEU CONSTANTINO LOPES                 RUA JOSE ANTONIO COELHO - 349 CASA 01 -             04011061                                                            000023
2SR. CAIXA, APOS O VENCIMENTO COBRAR 2% DE MULTA                                 NAO RECEBER APOS 30 DIAS DO VENCIMENTO.                                                                                                                                                                                                         01112300000000000000111230000000000000       0090339900009954091697112314000024
100000000000000000000009033990000995400000000000000000000000010002020042480111231200000000002            2  01424801112308112300000003049050000000001N011123000000000000000000000000000000000000000000000000000000000000000100042480155870JAMITRE SOIOMARA ALVES DO NASCIMENTO DAVRUA URUGUAI - 89 AP.75 - JARDIM GUILHERM            11702300                                                            000026
2SR. CAIXA, APOS O VENCIMENTO COBRAR 2% DE MULTA                                 NAO RECEBER APOS 30 DIAS DO VENCIMENTO.                                                                                                                                                                                                         01112300000000000000111230000000000000       0090339900009954424801112312000027
100000000000000000000009033990000995400000000000000000000000010002020001356911231900000000002            2  01013569112308112300000003094440000000001N011123000000000000000000000000000000000000000000000000000000000000000100001356993800DALVA MARIA DOS SANTOS                  RUA URUGUAI - 89 AP.74 - AVIACAO - PRAIA            11702300                                                            000029
2SR. CAIXA, APOS O VENCIMENTO COBRAR 2% DE MULTA                                 NAO RECEBER APOS 30 DIAS DO VENCIMENTO.                                                                                                                                                                                                         01112300000000000000111230000000000000       0090339900009954013569112319000030
100000000000000000000009033990000995400000000000000000000000010002020024615511231100000000002            2  01246155112308112300000003529070000000001N011123000000000000000000000000000000000000000000000000000000000000000100024615557884GILBERTO JOSE GONSALES                  RUA URUGUAI - 89 AP.115 - JARDIM GUILHER            11702300                                                            000032
2SR. CAIXA, APOS O VENCIMENTO COBRAR 2% DE MULTA                                 NAO RECEBER APOS 30 DIAS DO VENCIMENTO.                                                                                                                                                                                                         01112300000000000000111230000000000000       0090339900009954246155112311000033
100000000000000000000009033990000995400000000000000000000000010002020036949511231000000000002            2  01369495112308112300000003302360000000001N011123000000000000000000000000000000000000000000000000000000000000000100036949505833FELIPE APARECIDO DOS SANTOS             RUA DAS MIMOSAS - 67 CASA 09 - VILA LUCI            03144010                                                            000035
2SR. CAIXA, APOS O VENCIMENTO COBRAR 2% DE MULTA                                 NAO RECEBER APOS 30 DIAS DO VENCIMENTO.                                                                                                                                                                                                         01112300000000000000111230000000000000       0090339900009954369495112310000036
100000000000000000000009033990000995400000000000000000000000010002020008539311231800000000002            2  01085393112308112300000003374050000000001N011123000000000000000000000000000000000000000000000000000000000000000100008539365871EDMILSON RAIMUNDO DOS SANTOS            RUA CALIDICE - 247 - PARQUE CRUZEIRO - S            08070010                                                            000038
2SR. CAIXA, APOS O VENCIMENTO COBRAR 2% DE MULTA                                 NAO RECEBER APOS 30 DIAS DO VENCIMENTO.                                                                                                                                                                                                         01112300000000000000111230000000000000       0090339900009954085393112318000039
100000000000000000000009033990000995400000000000000000000000010002020024558911231300000000002            2  01245589112308112300000005811370000000001N011123000000000000000000000000000000000000000000000000000000000000000100024558912838EDILENE GORGATTI                        RUA ITARARE - 76 AP.142 - JARDIM GUILHER            11701820                                                            000041
2SR. CAIXA, APOS O VENCIMENTO COBRAR 2% DE MULTA                                 NAO RECEBER APOS 30 DIAS DO VENCIMENTO.                                                                                                                                                                                                         01112300000000000000111230000000000000       0090339900009954245589112313000042
100000000000000000000009033990000995400000000000000000000000010002020004611211231900000000002            2  01046112112308112300000002139990000000001N011123000000000000000000000000000000000000000000000000000000000000000100004611218830TANIA MARIA DA SILVA NUNES PEREIRA LUIZ RUA URUGUAI - 89 AP.103 - JARDIM GUILHER            11702300                                                            000044
2SR. CAIXA, APOS O VENCIMENTO COBRAR 2% DE MULTA                                 NAO RECEBER APOS 30 DIAS DO VENCIMENTO.                                                                                                                                                                                                         01112300000000000000111230000000000000       0090339900009954046112112319000045
100000000000000000000009033990000995400000000000000000000000010002020010548811231600000000002            2  01105488112308112300000003802420000000001N011123000000000000000000000000000000000000000000000000000000000000000100010548844801RICARDO DE JESUS CALDAS                 RUA ANTONIO AMBUBA - 50 CASA 60 - BAIRRO            05782370                                                            000047
2SR. CAIXA, APOS O VENCIMENTO COBRAR 2% DE MULTA                                 NAO RECEBER APOS 30 DIAS DO VENCIMENTO.                                                                                                                                                                                                         01112300000000000000111230000000000000       0090339900009954105488112316000048
100000000000000000000009033990000995400000000000000000000000010002020032038711231300000000002            2  01320387112308112300000002496080000000001N011123000000000000000000000000000000000000000000000000000000000000000100032038775893GUSTAVO PEREIRA DA CRUZ                 RUA SAO FIDELIS - 203 - JARDIM BRASIL -             16074050                                                            000050
2SR. CAIXA, APOS O VENCIMENTO COBRAR 2% DE MULTA                                 NAO RECEBER APOS 30 DIAS DO VENCIMENTO.                                                                                                                                                                                                         01112300000000000000111230000000000000       0090339900009954320387112313000051
100000000000000000000009033990000995400000000000000000000000010002020008993111231000000000002            2  01089931112308112300000011780160000000001N011123000000000000000000000000000000000000000000000000000000000000000100008993178801PATRICIA BITTENCOURT FRACARO            RUA MARCIO MAZZEI - 337 - VILA NOVA MAZZ            02316050                                                            000053
2SR. CAIXA, APOS O VENCIMENTO COBRAR 2% DE MULTA                                 NAO RECEBER APOS 30 DIAS DO VENCIMENTO.                                                                                                                                                                                                         01112300000000000000111230000000000000       0090339900009954089931112310000054
100000000000000000000009033990000995400000000000000000000000010002020025914211231700000000002            2  01259142112308112300000003393940000000001N011123000000000000000000000000000000000000000000000000000000000000000100025914206880JONAS DOS REIS MACHADO                  RUA PROFESSORA MARGARIDA RUTH FERREIRA D            02378200                                                            000056
2SR. CAIXA, APOS O VENCIMENTO COBRAR 2% DE MULTA                                 NAO RECEBER APOS 30 DIAS DO VENCIMENTO.                                                                                                                                                                                                         01112300000000000000111230000000000000       0090339900009954259142112317000057
100000000000000000000009033990000995400000000000000000000000010002020032549511231300000000002            2  01325495112308112300000003101850000000001N011123000000000000000000000000000000000000000000000000000000000000000100032549502833PAMELA DECENCI                          RUA URUGUAI - 89 AP.61 - AVIACAO - PRAIA            11702300                                                            000059
2SR. CAIXA, APOS O VENCIMENTO COBRAR 2% DE MULTA                                 NAO RECEBER APOS 30 DIAS DO VENCIMENTO.                                                                                                                                                                                                         01112300000000000000111230000000000000       0090339900009954325495112313000060
100000000000000000000009033990000995400000000000000000000000010002020027969411231200000000002            2  01279694112308112300000002494520000000001N011123000000000000000000000000000000000000000000000000000000000000000100027969412807THIAGO BARRETO PEREZ                    RUA ARMINDO GUARANA - 170 - VILA REGENTE            03335070                                                            000062
2SR. CAIXA, APOS O VENCIMENTO COBRAR 2% DE MULTA                                 NAO RECEBER APOS 30 DIAS DO VENCIMENTO.                                                                                                                                                                                                         01112300000000000000111230000000000000       0090339900009954279694112312000063
100000000000000000000009033990000995400000000000000000000000010002020013466511231300000000002            2  01134665112308112300000003341870000000001N011123000000000000000000000000000000000000000000000000000000000000000100013466586844MAURICIO DANTAS DA SILVA                RUA CASTOR - 57 - CIDADE SATELITE SANTA             08340120                                                            000065
2SR. CAIXA, APOS O VENCIMENTO COBRAR 2% DE MULTA                                 NAO RECEBER APOS 30 DIAS DO VENCIMENTO.                                                                                                                                                                                                         01112300000000000000111230000000000000       0090339900009954134665112313000066
9                                                                                                                                                                                                                                                                                                                                                                                                         000067