01REMESSA01COBRANCA       00000000000008017025HB SANTOS CONSTRUTORA E INCORP237BRADESCO       071222        MX0000167                                                                                                                                                                                                                                                                                     000001
100000000000000000000009033990000627000000000000000000000000010002020025035112221700000000002            2  01250351122224122200000002866950000000001N061222000000000000000000000000000000000000000000000000000000000000000100025035170802WANDERSON LUIS DE CARVALHO              RUA JOAQUIM GONCALVES ROCHA - 302 - JARD            02859030                                                            000002
2SR. CAIXA, APOS O VENCIMENTO COBRAR 2% DE MULTA                                 NAO RECEBER APOS 30 DIAS DO VENCIMENTO.                                                                                                                                                                                                         07122200000000000000712220000000000000       0090339900006270250351122217000003
100000000000000000000009033990000627000000000000000000000000010002020007294312221400000000002            2  01072943122224122200000003856050000000001N061222000000000000000000000000000000000000000000000000000000000000000100007294351805CLAUDENIR APARECIDO VACARI              RUA CARLOS JOSE BORSTENS - 50 AP.93 - AV            11702750                                                            000005
2SR. CAIXA, APOS O VENCIMENTO COBRAR 2% DE MULTA                                 NAO RECEBER APOS 30 DIAS DO VENCIMENTO.                                                                                                                                                                                                         07122200000000000000712220000000000000       0090339900006270072943122214000006
100000000000000000000009033990000627000000000000000000000000010002020005071412221500000000002            2  01050714122224122200000003783500000000001N061222000000000000000000000000000000000000000000000000000000000000000100005071481855ERIBALDO SANTANA CARVALHO               RUA HONDURAS - 477 - PARQUE DAS AMERICAS            09351070                                                            000008
2SR. CAIXA, APOS O VENCIMENTO COBRAR 2% DE MULTA                                 NAO RECEBER APOS 30 DIAS DO VENCIMENTO.                                                                                                                                                                                                         07122200000000000000712220000000000000       0090339900006270050714122215000009
100000000000000000000009033990000627000000000000000000000000010002020002841712221900000000002            2  01028417122224122200000003539800000000001N061222000000000000000000000000000000000000000000000000000000000000000100002841756416LUCIANA PINHEIRO DE ASSIS NUNES         RUA RIO ACIMA - 81 - RIACHO GRANDE - SAO            09830100                                                            000011
2SR. CAIXA, APOS O VENCIMENTO COBRAR 2% DE MULTA                                 NAO RECEBER APOS 30 DIAS DO VENCIMENTO.                                                                                                                                                                                                         07122200000000000000712220000000000000       0090339900006270028417122219000012
100000000000000000000009033990000627000000000000000000000000010002020084302012221800000000002            2  01843020122224122200000003556790000000001N061222000000000000000000000000000000000000000000000000000000000000000100084302097868FAUSTO TADEU VILOR                      RUA ANTONIO TAVARES - 466 - BAIRRO CAMBU            01542010                                                            000014
2SR. CAIXA, APOS O VENCIMENTO COBRAR 2% DE MULTA                                 NAO RECEBER APOS 30 DIAS DO VENCIMENTO.                                                                                                                                                                                                         07122200000000000000712220000000000000       0090339900006270843020122218000015
100000000000000000000009033990000627000000000000000000000000010002020028804212221800000000002            2  01288042122224122200000003494570000000001N061222000000000000000000000000000000000000000000000000000000000000000100028804202882GILBERTO FABIANO CABRAL DE CAMARGO      RUA CARLOS JOSE BORSTENS - 50 AP.44 - AV            11702750                                                            000017
2SR. CAIXA, APOS O VENCIMENTO COBRAR 2% DE MULTA                                 NAO RECEBER APOS 30 DIAS DO VENCIMENTO.                                                                                                                                                                                                         07122200000000000000712220000000000000       0090339900006270288042122218000018
100000000000000000000009033990000627000000000000000000000000010002020000991712221000000000002            2  01009917122224122200000003410850000000001N061222000000000000000000000000000000000000000000000000000000000000000100000991748808JAILSON BORGES DE ANDRADE               RUA IPIOBUNA - 45 - JARDIM CUMBICA - GUA            07240040                                                            000020
2SR. CAIXA, APOS O VENCIMENTO COBRAR 2% DE MULTA                                 NAO RECEBER APOS 30 DIAS DO VENCIMENTO.                                                                                                                                                                                                         07122200000000000000712220000000000000       0090339900006270009917122210000021
100000000000000000000009033990000627000000000000000000000000010002020022151612221700000000002            2  01221516122224122200000003391040000000001N061222000000000000000000000000000000000000000000000000000000000000000100022151666816SAMIR LIMA DE ARAUJO                    AVENIDA GUARAPIRANGA - 2616 AP.131 BL.14            04902005                                                            000023
2SR. CAIXA, APOS O VENCIMENTO COBRAR 2% DE MULTA                                 NAO RECEBER APOS 30 DIAS DO VENCIMENTO.                                                                                                                                                                                                         07122200000000000000712220000000000000       0090339900006270221516122217000024
100000000000000000000009033990000627000000000000000000000000010002020022313112221900000000002            2  01223131122226122200000002607830000000001N061222000000000000000000000000000000000000000000000000000000000000000100022313116824ROSA MARIA BRITO DA SILVA               RUA SERVIDAO DE SAO MARCOS - 128 CASA 1             04930300                                                            000026
2SR. CAIXA, APOS O VENCIMENTO COBRAR 2% DE MULTA                                 NAO RECEBER APOS 30 DIAS DO VENCIMENTO.                                                                                                                                                                                                         07122200000000000000712220000000000000       0090339900006270223131122219000027
100000000000000000000009033990000627000000000000000000000000010002020027538012221000000000002            2  01275380122226122200000002616920000000001N061222000000000000000000000000000000000000000000000000000000000000000100027538087249MARA LUCIA MENEZES DA COSTA             RUA LEILA  - 183 - ITAQUERA - SAO PAULO             08240020                                                            000029
2SR. CAIXA, APOS O VENCIMENTO COBRAR 2% DE MULTA                                 NAO RECEBER APOS 30 DIAS DO VENCIMENTO.                                                                                                                                                                                                         07122200000000000000712220000000000000       0090339900006270275380122210000030
100000000000000000000009033990000627000000000000000000000000010002020031278412221700000000002            2  01312784122224122200000003275840000000001N061222000000000000000000000000000000000000000000000000000000000000000100031278411836JEFFERSON DE PIERI PIRES ZAMUNER        RUA MANOEL ARCE - 277 - PARQUE BANCARIO             03922150                                                            000032
2SR. CAIXA, APOS O VENCIMENTO COBRAR 2% DE MULTA                                 NAO RECEBER APOS 30 DIAS DO VENCIMENTO.                                                                                                                                                                                                         07122200000000000000712220000000000000       0090339900006270312784122217000033
100000000000000000000009033990000627000000000000000000000000010002020019185712221900000000002            2  01191857122226122200000002381460000000001N061222000000000000000000000000000000000000000000000000000000000000000100019185769800AGUINALDO PESSOA DE LIMA                RUA JANUARIO ZINGARO - 252 AP.303 BL.04             05794300                                                            000035
2SR. CAIXA, APOS O VENCIMENTO COBRAR 2% DE MULTA                                 NAO RECEBER APOS 30 DIAS DO VENCIMENTO.                                                                                                                                                                                                         07122200000000000000712220000000000000       0090339900006270191857122219000036
100000000000000000000009033990000627000000000000000000000000010002020033303612221P00000000002            2  01333036122226122200000002565030000000001N061222000000000000000000000000000000000000000000000000000000000000000100033303645809JESSICA DA SILVA FREITAS                RUA ARILDO VALADAO - 120 - JARDIM GUAEMB            04814600                                                            000038
2SR. CAIXA, APOS O VENCIMENTO COBRAR 2% DE MULTA                                 NAO RECEBER APOS 30 DIAS DO VENCIMENTO.                                                                                                                                                                                                         07122200000000000000712220000000000000       009033990000627033303612221P000039
100000000000000000000009033990000627000000000000000000000000010002020006422612221500000000002            2  01064226122224122200000003547820000000001N061222000000000000000000000000000000000000000000000000000000000000000100006422607881GERALDO ALVES DA SILVA                  RUA CARLOS JOSE BORSTENS - 50 AP.14 - AV            11702750                                                            000041
2SR. CAIXA, APOS O VENCIMENTO COBRAR 2% DE MULTA                                 NAO RECEBER APOS 30 DIAS DO VENCIMENTO.                                                                                                                                                                                                         07122200000000000000712220000000000000       0090339900006270064226122215000042
100000000000000000000009033990000627000000000000000000000000010002020033877112221700000000002            2  01338771122226122200000002404790000000001N061222000000000000000000000000000000000000000000000000000000000000000100033877129870HELDER FERREIRA VIANA                   RUA JOSE CALIXTO DO CARMO - 286 AP.35 -             11702690                                                            000044
2SR. CAIXA, APOS O VENCIMENTO COBRAR 2% DE MULTA                                 NAO RECEBER APOS 30 DIAS DO VENCIMENTO.                                                                                                                                                                                                         07122200000000000000712220000000000000       0090339900006270338771122217000045
100000000000000000000009033990000627000000000000000000000000010002020087573012221600000000002            2  01875730122226122200000002420220000000001N061222000000000000000000000000000000000000000000000000000000000000000100087573059604VANDERLEY DE ASSIS                      RUA ROMEU ALBANI - 268 - JARDIM PARQUE R            13803810                                                            000047
2SR. CAIXA, APOS O VENCIMENTO COBRAR 2% DE MULTA                                 NAO RECEBER APOS 30 DIAS DO VENCIMENTO.                                                                                                                                                                                                         07122200000000000000712220000000000000       0090339900006270875730122216000048
100000000000000000000009033990000627000000000000000000000000010002020010825512221300000000002            2  01108255122226122200000002525610000000001N061222000000000000000000000000000000000000000000000000000000000000000100010825513847JOSE APARECIDO PEREIRA                  RUA GENERAL OSORIO - 305 - JARDIM TRINTA            11515130                                                            000050
2SR. CAIXA, APOS O VENCIMENTO COBRAR 2% DE MULTA                                 NAO RECEBER APOS 30 DIAS DO VENCIMENTO.                                                                                                                                                                                                         07122200000000000000712220000000000000       0090339900006270108255122213000051
100000000000000000000009033990000627000000000000000000000000010002020039115112221500000000002            2  01391151122226122200000003113260000000001N061222000000000000000000000000000000000000000000000000000000000000000100039115139840LAIS CRISTINA RIBEIRO ANDO              RUA JOSE CALIXTO DO CARMO - 286 AP.65 -             11702690                                                            000053
2SR. CAIXA, APOS O VENCIMENTO COBRAR 2% DE MULTA                                 NAO RECEBER APOS 30 DIAS DO VENCIMENTO.                                                                                                                                                                                                         07122200000000000000712220000000000000       0090339900006270391151122215000054
100000000000000000000009033990000627000000000000000000000000010002020029617512221300000000002            2  01296175122224122200000003482280000000001N061222000000000000000000000000000000000000000000000000000000000000000100029617510553MARILENE SOUZA DE OLIVEIRA              RUA DAS MONCOES - 460 AP.95 - BAIRRO JAR            09090521                                                            000056
2SR. CAIXA, APOS O VENCIMENTO COBRAR 2% DE MULTA                                 NAO RECEBER APOS 30 DIAS DO VENCIMENTO.                                                                                                                                                                                                         07122200000000000000712220000000000000       0090339900006270296175122213000057
100000000000000000000009033990000627000000000000000000000000010002020000593212221300000000002            2  01005932122224122200000003819220000000001N061222000000000000000000000000000000000000000000000000000000000000000100000593293860WALTER HELIO BARBOSA FILHO              AVENIDA ANTONIO FREDERICO OZANAN - 9500             13214206                                                            000059
2SR. CAIXA, APOS O VENCIMENTO COBRAR 2% DE MULTA                                 NAO RECEBER APOS 30 DIAS DO VENCIMENTO.                                                                                                                                                                                                         07122200000000000000712220000000000000       0090339900006270005932122213000060
100000000000000000000009033990000627000000000000000000000000010002020065584112221500000000002            2  01655841122224122200000002004890000000001N061222000000000000000000000000000000000000000000000000000000000000000100065584147834JOAQUIM DA COSTA MACHADO NETO           RUA CARLOS JOSE BORSTENS - 50 AP.42 - AV            11702750                                                            000062
2SR. CAIXA, APOS O VENCIMENTO COBRAR 2% DE MULTA                                 NAO RECEBER APOS 30 DIAS DO VENCIMENTO.                                                                                                                                                                                                         07122200000000000000712220000000000000       0090339900006270655841122215000063
100000000000000000000009033990000627000000000000000000000000010002020065584112222300000000002            2  01655841122224122200000002004880000000001N061222000000000000000000000000000000000000000000000000000000000000000100065584147834JOAQUIM DA COSTA MACHADO NETO           RUA CARLOS JOSE BORSTENS - 50 AP.42 - AV            11702750                                                            000065
2SR. CAIXA, APOS O VENCIMENTO COBRAR 2% DE MULTA                                 NAO RECEBER APOS 30 DIAS DO VENCIMENTO.                                                                                                                                                                                                         07122200000000000000712220000000000000       0090339900006270655841122223000066
100000000000000000000009033990000627000000000000000000000000010002020006684612221800000000002            2  01066846122226122200000002564740000000001N061222000000000000000000000000000000000000000000000000000000000000000100006684623884LAUDINOR VIEIRA GARCIA                  RUA CANDIDO SALES - 374 - JARDIM PRESIDE            07172000                                                            000068
2SR. CAIXA, APOS O VENCIMENTO COBRAR 2% DE MULTA                                 NAO RECEBER APOS 30 DIAS DO VENCIMENTO.                                                                                                                                                                                                         07122200000000000000712220000000000000       0090339900006270066846122218000069
100000000000000000000009033990000627000000000000000000000000010002020011663512221900000000002            2  01116635122226122200000002583180000000001N061222000000000000000000000000000000000000000000000000000000000000000100011663589844MARIA SAVIO QUARELLO                    AVENIDA MENDONCA DRUMOND - 321 - JARDIM             03524030                                                            000071
2SR. CAIXA, APOS O VENCIMENTO COBRAR 2% DE MULTA                                 NAO RECEBER APOS 30 DIAS DO VENCIMENTO.                                                                                                                                                                                                         07122200000000000000712220000000000000       0090339900006270116635122219000072
100000000000000000000009033990000627000000000000000000000000010002020010083812221000000000002            2  01100838122226122200000002495780000000001N061222000000000000000000000000000000000000000000000000000000000000000100010083824855IONE FERREIRA COUTO DA SILVA            RUA JOSE RAGEL DE MESQUITA - 60 CS.01 -             07799999                                                            000074
2SR. CAIXA, APOS O VENCIMENTO COBRAR 2% DE MULTA                                 NAO RECEBER APOS 30 DIAS DO VENCIMENTO.                                                                                                                                                                                                         07122200000000000000712220000000000000       0090339900006270100838122210000075
100000000000000000000009033990000627000000000000000000000000010002020031010712221600000000002            2  01310107122226122200000002449160000000001N061222000000000000000000000000000000000000000000000000000000000000000100031010705890ANDRE GONZALEZ RABELLO                  RUA PARAIBA - 106 AP.61 - POMPEIA - SANT            11065470                                                            000077
2SR. CAIXA, APOS O VENCIMENTO COBRAR 2% DE MULTA                                 NAO RECEBER APOS 30 DIAS DO VENCIMENTO.                                                                                                                                                                                                         07122200000000000000712220000000000000       0090339900006270310107122216000078
100000000000000000000009033990000627000000000000000000000000010002020005351012221500000000002            2  01053510122226122200000002296330000000001N061222000000000000000000000000000000000000000000000000000000000000000100005351015897VALERIA ALVES MARCOLINO HINNIGER        RUA JOSE CALIXTO DO CARMO - 286 AP.92 -             11702690                                                            000080
2SR. CAIXA, APOS O VENCIMENTO COBRAR 2% DE MULTA                                 NAO RECEBER APOS 30 DIAS DO VENCIMENTO.                                                                                                                                                                                                         07122200000000000000712220000000000000       0090339900006270053510122215000081
100000000000000000000009033990000627000000000000000000000000010002020031898712221000000000002            2  01318987122224122200000003654380000000001N061222000000000000000000000000000000000000000000000000000000000000000100031898775800ANITA MARTINS COLOMBO                   RUA CARLOS JOSE BORSTENS - 50 AP.115 - A            11702750                                                            000083
2SR. CAIXA, APOS O VENCIMENTO COBRAR 2% DE MULTA                                 NAO RECEBER APOS 30 DIAS DO VENCIMENTO.                                                                                                                                                                                                         07122200000000000000712220000000000000       0090339900006270318987122210000084
100000000000000000000009033990000627000000000000000000000000010002020037983412221000000000002            2  01379834122226122200000002697480000000001N061222000000000000000000000000000000000000000000000000000000000000000100037983484801JOSE ERIVALDO SOUZA DO NASCIMENTO RAMOS RUA LETICIA - 250 - JARDIM GUARUJA - SAO            05877260                                                            000086
2SR. CAIXA, APOS O VENCIMENTO COBRAR 2% DE MULTA                                 NAO RECEBER APOS 30 DIAS DO VENCIMENTO.                                                                                                                                                                                                         07122200000000000000712220000000000000       0090339900006270379834122210000087
100000000000000000000009033990000627000000000000000000000000010002020056289212221100000000002            2  01562892122226122200000002037780000000001N061222000000000000000000000000000000000000000000000000000000000000000100056289286900PEDRO RIBEIRO                           RUA CONEGO MANOEL VAZ - 48 - SANTANA - S            02019050                                                            000089
2SR. CAIXA, APOS O VENCIMENTO COBRAR 2% DE MULTA                                 NAO RECEBER APOS 30 DIAS DO VENCIMENTO.                                                                                                                                                                                                         07122200000000000000712220000000000000       0090339900006270562892122211000090
100000000000000000000009033990000627000000000000000000000000010002020034735312221800000000002            2  01347353122226122200000002796760000000001N061222000000000000000000000000000000000000000000000000000000000000000100034735328866DIEGO FELIPE MOLINA DA SILVA E SOUSA    RUA EMILIA PAULISTA - 135 - VILA TIRADEN            05364020                                                            000092
2SR. CAIXA, APOS O VENCIMENTO COBRAR 2% DE MULTA                                 NAO RECEBER APOS 30 DIAS DO VENCIMENTO.                                                                                                                                                                                                         07122200000000000000712220000000000000       0090339900006270347353122218000093
100000000000000000000009033990000627000000000000000000000000010002020034812212221100000000002            2  01348122122224122200000004836750000000001N061222000000000000000000000000000000000000000000000000000000000000000100034812226880THAIS TORQUATO MIMOSO DE JESUS          RUA ARNALDO CINTRA - 416 AP.104 TORRE 2             03088000                                                            000095
2SR. CAIXA, APOS O VENCIMENTO COBRAR 2% DE MULTA                                 NAO RECEBER APOS 30 DIAS DO VENCIMENTO.                                                                                                                                                                                                         07122200000000000000712220000000000000       0090339900006270348122122211000096
100000000000000000000009033990000627000000000000000000000000010002020012849412221800000000002            2  01128494122226122200000004818060000000001N061222000000000000000000000000000000000000000000000000000000000000000100012849428809MOISES CLAUDIO DO ROSARIO               AVENIDA DR. AUGUSTO DE TOLEDO - 510 AP.1            09541520                                                            000098
2SR. CAIXA, APOS O VENCIMENTO COBRAR 2% DE MULTA                                 NAO RECEBER APOS 30 DIAS DO VENCIMENTO.                                                                                                                                                                                                         07122200000000000000712220000000000000       0090339900006270128494122218000099
100000000000000000000009033990000627000000000000000000000000010002020003658612221200000000002            2  01036586122226122200000001990430000000001N061222000000000000000000000000000000000000000000000000000000000000000100003658668814MARINEZ VALENTIN                        RUA JOSE CALIXTO DO CARMO - 286 AP.95 -             11702690                                                            000101
2SR. CAIXA, APOS O VENCIMENTO COBRAR 2% DE MULTA                                 NAO RECEBER APOS 30 DIAS DO VENCIMENTO.                                                                                                                                                                                                         07122200000000000000712220000000000000       0090339900006270036586122212000102
100000000000000000000009033990000627000000000000000000000000010002020003658612222000000000002            2  01036586122226122200000001990420000000001N061222000000000000000000000000000000000000000000000000000000000000000100003658668814MARINEZ VALENTIN                        RUA JOSE CALIXTO DO CARMO - 286 AP.95 -             11702690                                                            000104
2SR. CAIXA, APOS O VENCIMENTO COBRAR 2% DE MULTA                                 NAO RECEBER APOS 30 DIAS DO VENCIMENTO.                                                                                                                                                                                                         07122200000000000000712220000000000000       0090339900006270036586122220000105
100000000000000000000009033990000627000000000000000000000000010002020014087412221000000000002            2  01140874122226122200000002660060000000001N061222000000000000000000000000000000000000000000000000000000000000000100014087484874SERGIO SANTOS DO NASCIMENTO             RUA JOSE CALIXTO DO CARMO - 286 AP.52 -             11702690                                                            000107
2SR. CAIXA, APOS O VENCIMENTO COBRAR 2% DE MULTA                                 NAO RECEBER APOS 30 DIAS DO VENCIMENTO.                                                                                                                                                                                                         07122200000000000000712220000000000000       0090339900006270140874122210000108
100000000000000000000009033990000627000000000000000000000000010002020026834512221P00000000002            2  01268345122226122200000002450930000000001N061222000000000000000000000000000000000000000000000000000000000000000100026834550895RAQUEL CARDOSO JOAO                     RUA PEDROSO XAVIER - 277 AP.23 TORRE 01             02732020                                                            000110
2SR. CAIXA, APOS O VENCIMENTO COBRAR 2% DE MULTA                                 NAO RECEBER APOS 30 DIAS DO VENCIMENTO.                                                                                                                                                                                                         07122200000000000000712220000000000000       009033990000627026834512221P000111
100000000000000000000009033990000627000000000000000000000000010002020039540012221800000000002            2  01395400122226122200000002409590000000001N061222000000000000000000000000000000000000000000000000000000000000000100039540008816LUZINETE CLARINDO SILVA                 RUA DEINOS - 275 - BAIRRO CIDADE SATELIT            08340100                                                            000113
2SR. CAIXA, APOS O VENCIMENTO COBRAR 2% DE MULTA                                 NAO RECEBER APOS 30 DIAS DO VENCIMENTO.                                                                                                                                                                                                         07122200000000000000712220000000000000       0090339900006270395400122218000114
100000000000000000000009033990000627000000000000000000000000010002020003311012221500000000002            2  01033110122226122200000002509300000000001N061222000000000000000000000000000000000000000000000000000000000000000100003311030877SEBASTIAO SARUVA NETO                   RUA HAMILTON REGIS - 559 - BAIRRO DO LIM            08051440                                                            000116
2SR. CAIXA, APOS O VENCIMENTO COBRAR 2% DE MULTA                                 NAO RECEBER APOS 30 DIAS DO VENCIMENTO.                                                                                                                                                                                                         07122200000000000000712220000000000000       0090339900006270033110122215000117
100000000000000000000009033990000627000000000000000000000000010002020090091912221100000000002            2  01900919122226122200000002398520000000001N061222000000000000000000000000000000000000000000000000000000000000000100090091990882JUECIR CARVALHO DA LUZ                  RUA JOSE CALIXTO DO CARMO - 286 AP.114 -            11702690                                                            000119
2SR. CAIXA, APOS O VENCIMENTO COBRAR 2% DE MULTA                                 NAO RECEBER APOS 30 DIAS DO VENCIMENTO.                                                                                                                                                                                                         07122200000000000000712220000000000000       0090339900006270900919122211000120
100000000000000000000009033990000627000000000000000000000000010002020037325912221300000000002            2  01373259122226122200000001962850000000001N061222000000000000000000000000000000000000000000000000000000000000000100037325923830MARIA AUGUSTA OLIVEIRA DE ANDRADE       RUA JOSE CALIXTO DO CARMO - 286 AP.124 -            11702690                                                            000122
2SR. CAIXA, APOS O VENCIMENTO COBRAR 2% DE MULTA                                 NAO RECEBER APOS 30 DIAS DO VENCIMENTO.                                                                                                                                                                                                         07122200000000000000712220000000000000       0090339900006270373259122213000123
100000000000000000000009033990000627000000000000000000000000010002020012478812221000000000002            2  01124788122224122200000003574440000000001N061222000000000000000000000000000000000000000000000000000000000000000100012478899809VITORIA BATISTA QUEIROZ                 RUA CARVALHO DE FREITAS - 255 AP.71A - V            05728030                                                            000125
2SR. CAIXA, APOS O VENCIMENTO COBRAR 2% DE MULTA                                 NAO RECEBER APOS 30 DIAS DO VENCIMENTO.                                                                                                                                                                                                         07122200000000000000712220000000000000       0090339900006270124788122210000126
100000000000000000000009033990000627000000000000000000000000010002020013184812221100000000002            2  01131848122226122200000002371250000000001N061222000000000000000000000000000000000000000000000000000000000000000100013184856810SYDNEY HENRIQUE GAMARANO JUNIOR         RUA JOSE CALIXTO DO CARMO - 286 AP.125 -            11702690                                                            000128
2SR. CAIXA, APOS O VENCIMENTO COBRAR 2% DE MULTA                                 NAO RECEBER APOS 30 DIAS DO VENCIMENTO.                                                                                                                                                                                                         07122200000000000000712220000000000000       0090339900006270131848122211000129
100000000000000000000009033990000627000000000000000000000000010002020097989912221500000000002            2  01979899122226122200000004864480000000001N061222000000000000000000000000000000000000000000000000000000000000000100097989924820NELSON LUIS BERRIBILLE                  RUA SILVEIRA IGNACIO SOBRINHO - 965 - VI            13560294                                                            000131
2SR. CAIXA, APOS O VENCIMENTO COBRAR 2% DE MULTA                                 NAO RECEBER APOS 30 DIAS DO VENCIMENTO.                                                                                                                                                                                                         07122200000000000000712220000000000000       0090339900006270979899122215000132
100000000000000000000009033990000627000000000000000000000000010002020097989912222300000000002            2  01979899122226122200000001647880000000001N061222000000000000000000000000000000000000000000000000000000000000000100097989924820NELSON LUIS BERRIBILLE                  RUA SILVEIRA IGNACIO SOBRINHO - 965 - VI            13560294                                                            000134
2SR. CAIXA, APOS O VENCIMENTO COBRAR 2% DE MULTA                                 NAO RECEBER APOS 30 DIAS DO VENCIMENTO.                                                                                                                                                                                                         07122200000000000000712220000000000000       0090339900006270979899122223000135
100000000000000000000009033990000627000000000000000000000000010002020097989912223100000000002            2  01979899122226122200000001647870000000001N061222000000000000000000000000000000000000000000000000000000000000000100097989924820NELSON LUIS BERRIBILLE                  RUA SILVEIRA IGNACIO SOBRINHO - 965 - VI            13560294                                                            000137
2SR. CAIXA, APOS O VENCIMENTO COBRAR 2% DE MULTA                                 NAO RECEBER APOS 30 DIAS DO VENCIMENTO.                                                                                                                                                                                                         07122200000000000000712220000000000000       0090339900006270979899122231000138
100000000000000000000009033990000627000000000000000000000000010002020032341812221400000000002            2  01323418122224122200000003712840000000001N061222000000000000000000000000000000000000000000000000000000000000000100032341847803PRISCILA ALVES DE FRANCA MIRANDA        RUA CARLOS JOSE BORSTENS - 50 AP.91 - AV            11702750                                                            000140
2SR. CAIXA, APOS O VENCIMENTO COBRAR 2% DE MULTA                                 NAO RECEBER APOS 30 DIAS DO VENCIMENTO.                                                                                                                                                                                                         07122200000000000000712220000000000000       0090339900006270323418122214000141
100000000000000000000009033990000627000000000000000000000000010002020016050612221P00000000002            2  01160506122224122200000003446220000000001N061222000000000000000000000000000000000000000000000000000000000000000100016050684898ANDRE RODRIGUES DE OLIVEIRA             RUA CORACAO PAULISTA - 14 - FAZENDA ITAI            08132430                                                            000143
2SR. CAIXA, APOS O VENCIMENTO COBRAR 2% DE MULTA                                 NAO RECEBER APOS 30 DIAS DO VENCIMENTO.                                                                                                                                                                                                         07122200000000000000712220000000000000       009033990000627016050612221P000144
100000000000000000000009033990000627000000000000000000000000010002020021464912221300000000002            2  01214649122224122200000005431340000000001N061222000000000000000000000000000000000000000000000000000000000000000100021464965846ANDREA APARECIDA DE OLIVEIRA PECCI      RUA ANTONIO BOZ MARFIL - 103 - PARQUE DO            05396020                                                            000146
2SR. CAIXA, APOS O VENCIMENTO COBRAR 2% DE MULTA                                 NAO RECEBER APOS 30 DIAS DO VENCIMENTO.                                                                                                                                                                                                         07122200000000000000712220000000000000       0090339900006270214649122213000147
100000000000000000000009033990000627000000000000000000000000010002020030348112221500000000002            2  01303481122224122200000003290840000000001N061222000000000000000000000000000000000000000000000000000000000000000100030348198892KELLY CRISTINA CORDEIRO                 RUA CARLOS JOSE BORSTENS - 50 AP.25 - AV            11702750                                                            000149
2SR. CAIXA, APOS O VENCIMENTO COBRAR 2% DE MULTA                                 NAO RECEBER APOS 30 DIAS DO VENCIMENTO.                                                                                                                                                                                                         07122200000000000000712220000000000000       0090339900006270303481122215000150
100000000000000000000009033990000627000000000000000000000000010002020003597512221300000000002            2  01035975122226122200000002216350000000001N061222000000000000000000000000000000000000000000000000000000000000000100003597509827ANISIO FAUSTINO DE OLIVEIRA             RUA DOMINGOS DE MAMBRO - 5 CASA 20 - CIT            06040290                                                            000152
2SR. CAIXA, APOS O VENCIMENTO COBRAR 2% DE MULTA                                 NAO RECEBER APOS 30 DIAS DO VENCIMENTO.                                                                                                                                                                                                         07122200000000000000712220000000000000       0090339900006270035975122213000153
9                                                                                                                                                                                                                                                                                                                                                                                                         000154