01REMESSA01COBRANCA       00000000000005316116AIRES CONSTRUTORA E INCORPORAD237BRADESCO       010124        MX0000233                                                                                                                                                                                                                                                                                     000001
100000000000000000000009002800441612000000000000000000000000010002100025215101241P00000000002            2  01252151012410012400000003462690000000001N010124000000000000000000000000000000000000000000000000000000000000000100025215106886KLEBER LUIZ DOS SANTOS                  RUA MONTE CASTELO - 262 AP.15 - AVIACAO             11702720                                                            000002
2SR. CAIXA, APOS O VENCIMENTO COBRAR 10% DE MULTA                                NAO RECEBER APOS 30 DIAS DO VENCIMENTO.                                                                                                                                                                                                         01012400000000000000101240000000000000       009002800441612025215101241P000003
100000000000000000000009002800441612000000000000000000000000010002100031803801241200000000002            2  01318038012410012400000004094690000000001N010124000000000000000000000000000000000000000000000000000000000000000100031803864877ELEILSON FELIPPE SANTOS                 RUA SANTA GREGORIA - 193 - CIDADE DUTRA             04806030                                                            000005
2SR. CAIXA, APOS O VENCIMENTO COBRAR 10% DE MULTA                                NAO RECEBER APOS 30 DIAS DO VENCIMENTO.                                                                                                                                                                                                         01012400000000000000101240000000000000       0090028004416120318038012412000006
100000000000000000000009002800441612000000000000000000000000010002100002494101241700000000002            2  01024941012410012400000004271430000000001N010124000000000000000000000000000000000000000000000000000000000000000100002494107881CIRO FRANCISCO MARCHI DURIGON           RUA MONTE CASTELO - 262 AP.115 - AVIACAO            11702720                                                            000008
2SR. CAIXA, APOS O VENCIMENTO COBRAR 10% DE MULTA                                NAO RECEBER APOS 30 DIAS DO VENCIMENTO.                                                                                                                                                                                                         01012400000000000000101240000000000000       0090028004416120024941012417000009
100000000000000000000009002800441612000000000000000000000000010002100016299001241800000000002            2  01162990012410012400000004047830000000001N010124000000000000000000000000000000000000000000000000000000000000000100016299008857FERNANDO CESAR CARVALHO                 AVENIDA MARCONDES DE BRITO - 1340 AP.74             03509000                                                            000011
2SR. CAIXA, APOS O VENCIMENTO COBRAR 10% DE MULTA                                NAO RECEBER APOS 30 DIAS DO VENCIMENTO.                                                                                                                                                                                                         01012400000000000000101240000000000000       0090028004416120162990012418000012
9                                                                                                                                                                                                                                                                                                                                                                                                         000013