01REMESSA01COBRANCA       00000000000008017025HB SANTOS CONSTRUTORA E INCORP237BRADESCO       010619        MX0000080                                                                                                                                                                                                                                                                                     000001
100000000000000000000009033990000627000000000000000000000000010002020029671506191P00000000002            2  01296715061909061900000002475940000000001N010619000000000000000000000000000000000000000000000000000000000000000100029671526845ROGERIO CONSENTINO                      RUA CARLOS MAZER  - 678 - VILA CARMOSINA            08290700                                                            000002
2SR. CAIXA, APOS O VENCIMENTO COBRAR 2% DE MULTA                                 NAO RECEBER APOS 30 DIAS DO VENCIMENTO.                                                                                                                                                                                                         01061900000000000000106190000000000000       009033990000627029671506191P000003
100000000000000000000009033990000627000000000000000000000000010002020003863006191100000000002            2  01038630061909061900000002338740000000001N010619000000000000000000000000000000000000000000000000000000000000000100003863075803HERALDO MENQUINI                        RUA CARLOS JOSE BORSTENS - 50 AP.15 - AV            11702750                                                            000005
2SR. CAIXA, APOS O VENCIMENTO COBRAR 2% DE MULTA                                 NAO RECEBER APOS 30 DIAS DO VENCIMENTO.                                                                                                                                                                                                         01061900000000000000106190000000000000       0090339900006270038630061911000006
100000000000000000000009033990000627000000000000000000000000010002020029028406191900000000002            2  01290284061909061900000002395800000000001N010619000000000000000000000000000000000000000000000000000000000000000100029028478825LEONARDO LOUZADA                        RUA CARLOS JOSE BORSTENS - 50 AP.35 - AV            11702750                                                            000008
2SR. CAIXA, APOS O VENCIMENTO COBRAR 2% DE MULTA                                 NAO RECEBER APOS 30 DIAS DO VENCIMENTO.                                                                                                                                                                                                         01061900000000000000106190000000000000       0090339900006270290284061919000009
100000000000000000000009033990000627000000000000000000000000010002020032878506191600000000002            2  01328785061909061900000003462400000000001N010619000000000000000000000000000000000000000000000000000000000000000100032878512847LEONARDO MOURA MONIZ CALDEIRA           RUA BALSA - 682 AP.134 T.02 - VILA ARCAD            02910000                                                            000011
2SR. CAIXA, APOS O VENCIMENTO COBRAR 2% DE MULTA                                 NAO RECEBER APOS 30 DIAS DO VENCIMENTO.                                                                                                                                                                                                         01061900000000000000106190000000000000       0090339900006270328785061916000012
100000000000000000000009033990000627000000000000000000000000010002020016479006191300000000002            2  01164790061909061900000003683380000000001N010619000000000000000000000000000000000000000000000000000000000000000100016479002806LOURDES PEREIRA DE QUEIROZ SECANECHIA   RUA PAULINO CURSI - 437 - CIDADE SAO MAT            03960060                                                            000014
2SR. CAIXA, APOS O VENCIMENTO COBRAR 2% DE MULTA                                 NAO RECEBER APOS 30 DIAS DO VENCIMENTO.                                                                                                                                                                                                         01061900000000000000106190000000000000       0090339900006270164790061913000015
100000000000000000000009033990000627000000000000000000000000010002020019635006191000000000002            2  01196350061909061900000002717690000000001N010619000000000000000000000000000000000000000000000000000000000000000100019635091885IVAN VIEIRA SILVA                       ABRAO JORGE - 3001 - JARDIM INTEGRACAO -            14405397                                                            000017
2SR. CAIXA, APOS O VENCIMENTO COBRAR 2% DE MULTA                                 NAO RECEBER APOS 30 DIAS DO VENCIMENTO.                                                                                                                                                                                                         01061900000000000000106190000000000000       0090339900006270196350061910000018
100000000000000000000009033990000627000000000000000000000000010002020009361406191000000000002            2  01093614061909061900000002674140000000001N010619000000000000000000000000000000000000000000000000000000000000000100009361471805JOSE BARBOSA DA SILVA                   RUA ALFREDO INACIO TRINDADE  - 60 AP.44             02344100                                                            000020
2SR. CAIXA, APOS O VENCIMENTO COBRAR 2% DE MULTA                                 NAO RECEBER APOS 30 DIAS DO VENCIMENTO.                                                                                                                                                                                                         01061900000000000000106190000000000000       0090339900006270093614061910000021
100000000000000000000009033990000627000000000000000000000000010002020012756906191400000000002            2  01127569061909061900000002308370000000001N010619000000000000000000000000000000000000000000000000000000000000000100012756959812ITAMAR JUVENAL DIAS DA SILVA            RUA ELISEU REINALDO MORAES VIEIRA - 90 A            02858000                                                            000023
2SR. CAIXA, APOS O VENCIMENTO COBRAR 2% DE MULTA                                 NAO RECEBER APOS 30 DIAS DO VENCIMENTO.                                                                                                                                                                                                         01061900000000000000106190000000000000       0090339900006270127569061914000024
100000000000000000000009033990000627000000000000000000000000010002020002731006191100000000002            2  01027310061909061900000002729110000000001N010619000000000000000000000000000000000000000000000000000000000000000100002731042842VALTER CERQUEIRA VILLA NOVA             RUA MACHADO - 106 - VILA AUGUSTA - GUARU            07025210                                                            000026
2SR. CAIXA, APOS O VENCIMENTO COBRAR 2% DE MULTA                                 NAO RECEBER APOS 30 DIAS DO VENCIMENTO.                                                                                                                                                                                                         01061900000000000000106190000000000000       0090339900006270027310061911000027
100000000000000000000009033990000627000000000000000000000000010002020002731006192P00000000002            2  01027310061909061900000002728980000000001N010619000000000000000000000000000000000000000000000000000000000000000100002731042842VALTER CERQUEIRA VILLA NOVA             RUA MACHADO - 106 - VILA AUGUSTA - GUARU            07025210                                                            000029
2SR. CAIXA, APOS O VENCIMENTO COBRAR 2% DE MULTA                                 NAO RECEBER APOS 30 DIAS DO VENCIMENTO.                                                                                                                                                                                                         01061900000000000000106190000000000000       009033990000627002731006192P000030
100000000000000000000009033990000627000000000000000000000000010002020028802106191P00000000002            2  01288021061909061900000002464330000000001N010619000000000000000000000000000000000000000000000000000000000000000100028802158894ELIEL HENRIQUE ZUZA                     RUA CARLOS JOSE BORSTENS - 50 AP.43 - BA            11702750                                                            000032
2SR. CAIXA, APOS O VENCIMENTO COBRAR 2% DE MULTA                                 NAO RECEBER APOS 30 DIAS DO VENCIMENTO.                                                                                                                                                                                                         01061900000000000000106190000000000000       009033990000627028802106191P000033
100000000000000000000009033990000627000000000000000000000000010002020008739106191300000000002            2  01087391061909061900000002304770000000001N010619000000000000000000000000000000000000000000000000000000000000000100008739150895VANGEVALDO BATISTA SANT ANNA            TRAVESSA TOMAZIN - 02 - ERMELINO MATARAZ            03811125                                                            000035
2SR. CAIXA, APOS O VENCIMENTO COBRAR 2% DE MULTA                                 NAO RECEBER APOS 30 DIAS DO VENCIMENTO.                                                                                                                                                                                                         01061900000000000000106190000000000000       0090339900006270087391061913000036
100000000000000000000009033990000627000000000000000000000000010002020005313706191P00000000002            2  01053137061911061900000001992010000000001N010619000000000000000000000000000000000000000000000000000000000000000100005313717863EDIMICIO JOSE DE ARAUJO                 PRACA NICOLAU GERAIGIRE - 680 CA A - JAR            11095110                                                            000038
2SR. CAIXA, APOS O VENCIMENTO COBRAR 2% DE MULTA                                 NAO RECEBER APOS 30 DIAS DO VENCIMENTO.                                                                                                                                                                                                         01061900000000000000106190000000000000       009033990000627005313706191P000039
100000000000000000000009033990000627000000000000000000000000010002020029433606191800000000002            2  01294336061911061900000001913640000000001N010619000000000000000000000000000000000000000000000000000000000000000100029433631897MARIO MUNIZ                             AVENIDA PRESIDENTE CASTELO BRANCO - 7328            11704305                                                            000041
2SR. CAIXA, APOS O VENCIMENTO COBRAR 2% DE MULTA                                 NAO RECEBER APOS 30 DIAS DO VENCIMENTO.                                                                                                                                                                                                         01061900000000000000106190000000000000       0090339900006270294336061918000042
100000000000000000000009033990000627000000000000000000000000010002020001847206191600000000002            2  01018472061911061900000001761750000000001N010619000000000000000000000000000000000000000000000000000000000000000100001847204864AMERICA CONCEICAO DA SILVA              RUA CAMINHO DO GUARAMAR - 199 AP.11 BLOC            11721050                                                            000044
2SR. CAIXA, APOS O VENCIMENTO COBRAR 2% DE MULTA                                 NAO RECEBER APOS 30 DIAS DO VENCIMENTO.                                                                                                                                                                                                         01061900000000000000106190000000000000       0090339900006270018472061916000045
100000000000000000000009033990000627000000000000000000000000010002020005029806191000000000002            2  01050298061909061900000002353530000000001N010619000000000000000000000000000000000000000000000000000000000000000100005029828885LAURINETE DA CONCEICAO DE NORONHA       RUA MARIA LUCIA DE TOLEDO LEITE MORAES -            04434040                                                            000047
2SR. CAIXA, APOS O VENCIMENTO COBRAR 2% DE MULTA                                 NAO RECEBER APOS 30 DIAS DO VENCIMENTO.                                                                                                                                                                                                         01061900000000000000106190000000000000       0090339900006270050298061910000048
100000000000000000000009033990000627000000000000000000000000010002020027682106191P00000000002            2  01276821061911061900000001857270000000001N010619000000000000000000000000000000000000000000000000000000000000000100027682175818ALINE TEIXEIRA                          RUA CRUZEIRO DO SUL - 309 - JARDIM BOM P            06385060                                                            000050
2SR. CAIXA, APOS O VENCIMENTO COBRAR 2% DE MULTA                                 NAO RECEBER APOS 30 DIAS DO VENCIMENTO.                                                                                                                                                                                                         01061900000000000000106190000000000000       009033990000627027682106191P000051
100000000000000000000009033990000627000000000000000000000000010002020013388906191200000000002            2  01133889061911061900000001865510000000001N010619000000000000000000000000000000000000000000000000000000000000000100013388936889NEUTON DE SOUZA RAMOS                   RUA MARIA CRISTINA - 932 - JARDIM CASQUE            11533160                                                            000053
2SR. CAIXA, APOS O VENCIMENTO COBRAR 2% DE MULTA                                 NAO RECEBER APOS 30 DIAS DO VENCIMENTO.                                                                                                                                                                                                         01061900000000000000106190000000000000       0090339900006270133889061912000054
100000000000000000000009033990000627000000000000000000000000010002020012774906191200000000002            2  01127749061911061900000001900530000000001N010619000000000000000000000000000000000000000000000000000000000000000100012774906865JOSE MILTON SANTIAGO                    RUA BATATAIS - 47 - CIDADE ESTELA - POA             08563140                                                            000056
2SR. CAIXA, APOS O VENCIMENTO COBRAR 2% DE MULTA                                 NAO RECEBER APOS 30 DIAS DO VENCIMENTO.                                                                                                                                                                                                         01061900000000000000106190000000000000       0090339900006270127749061912000057
100000000000000000000009033990000627000000000000000000000000010002020016294106191800000000002            2  01162941061909061900000002336640000000001N010619000000000000000000000000000000000000000000000000000000000000000100016294119812JURACY FELIX DE ARRUDA                  RUA CARLOS JOSE BORSTENS - 50 AP.23 - AV            11702750                                                            000059
2SR. CAIXA, APOS O VENCIMENTO COBRAR 2% DE MULTA                                 NAO RECEBER APOS 30 DIAS DO VENCIMENTO.                                                                                                                                                                                                         01061900000000000000106190000000000000       0090339900006270162941061918000060
100000000000000000000009033990000627000000000000000000000000010002020005613806191200000000002            2  01056138061911061900000001747960000000001N010619000000000000000000000000000000000000000000000000000000000000000100005613843805NILZA MARIA DE OLIVEIRA                 RUA JOSE GONCALVES DE FREITAS - 66 C2 -             08210550                                                            000062
2SR. CAIXA, APOS O VENCIMENTO COBRAR 2% DE MULTA                                 NAO RECEBER APOS 30 DIAS DO VENCIMENTO.                                                                                                                                                                                                         01061900000000000000106190000000000000       0090339900006270056138061912000063
100000000000000000000009033990000627000000000000000000000000010002020007574906191200000000002            2  01075749061911061900000001794240000000001N010619000000000000000000000000000000000000000000000000000000000000000100007574936889JORGE LUCIANO PEREIRA BORRIELLO         RUA FABIO DE ALMEIDA MAGALHAES - 179 - J            05135370                                                            000065
2SR. CAIXA, APOS O VENCIMENTO COBRAR 2% DE MULTA                                 NAO RECEBER APOS 30 DIAS DO VENCIMENTO.                                                                                                                                                                                                         01061900000000000000106190000000000000       0090339900006270075749061912000066
100000000000000000000009033990000627000000000000000000000000010002020032408106191500000000002            2  01324081061911061900000002064830000000001N010619000000000000000000000000000000000000000000000000000000000000000100032408151848DEILSON DO NASCIMENTO CANDIDO DA SILVA  RUA HEREMITA SANTA DO NASCIMENTO - 37 AP            11345340                                                            000068
2SR. CAIXA, APOS O VENCIMENTO COBRAR 2% DE MULTA                                 NAO RECEBER APOS 30 DIAS DO VENCIMENTO.                                                                                                                                                                                                         01061900000000000000106190000000000000       0090339900006270324081061915000069
100000000000000000000009033990000627000000000000000000000000010002020008214906191500000000002            2  01082149061911061900000001821480000000001N010619000000000000000000000000000000000000000000000000000000000000000100008214973830JAMIL CHALA                             RUA JOSE CALIXTO DO CARMO - 286 AP.22 -             11702690                                                            000071
2SR. CAIXA, APOS O VENCIMENTO COBRAR 2% DE MULTA                                 NAO RECEBER APOS 30 DIAS DO VENCIMENTO.                                                                                                                                                                                                         01061900000000000000106190000000000000       0090339900006270082149061915000072
100000000000000000000009033990000627000000000000000000000000010002020032495006191200000000002            2  01324950061911061900000002041200000000001N010619000000000000000000000000000000000000000000000000000000000000000100032495004881PAULO EDUARDO DOS SANTOS                RUA REPUBLICA DO IRAQUE - 1119 - CAMPO B            04611002                                                            000074
2SR. CAIXA, APOS O VENCIMENTO COBRAR 2% DE MULTA                                 NAO RECEBER APOS 30 DIAS DO VENCIMENTO.                                                                                                                                                                                                         01061900000000000000106190000000000000       0090339900006270324950061912000075
100000000000000000000009033990000627000000000000000000000000010002020006471806191200000000002            2  01064718061909061900000002300490000000001N010619000000000000000000000000000000000000000000000000000000000000000100006471825803JOSIVALDO BASTOS DE OLIVEIRA            RUA MARIA DIAS HOG - 263 - PARQUE CONTIN            07085035                                                            000077
2SR. CAIXA, APOS O VENCIMENTO COBRAR 2% DE MULTA                                 NAO RECEBER APOS 30 DIAS DO VENCIMENTO.                                                                                                                                                                                                         01061900000000000000106190000000000000       0090339900006270064718061912000078
100000000000000000000009033990000627000000000000000000000000010002020038856806191900000000002            2  01388568061911061900000001892240000000001N010619000000000000000000000000000000000000000000000000000000000000000100038856851830FELIPE BIANCHI DA COSTA FREITAS         RUA JOSE CALIXTO DO CARMO - 286 AP.23 -             11702690                                                            000080
2SR. CAIXA, APOS O VENCIMENTO COBRAR 2% DE MULTA                                 NAO RECEBER APOS 30 DIAS DO VENCIMENTO.                                                                                                                                                                                                         01061900000000000000106190000000000000       0090339900006270388568061919000081
100000000000000000000009033990000627000000000000000000000000010002020016498006191P00000000002            2  01164980061911061900000001790170000000001N010619000000000000000000000000000000000000000000000000000000000000000100016498053810GILMA CEZARIO GARCIA CORRITORI          RUA LAURENTINO XAVIER DOS SANTOS - 336 -            08240740                                                            000083
2SR. CAIXA, APOS O VENCIMENTO COBRAR 2% DE MULTA                                 NAO RECEBER APOS 30 DIAS DO VENCIMENTO.                                                                                                                                                                                                         01061900000000000000106190000000000000       009033990000627016498006191P000084
100000000000000000000009033990000627000000000000000000000000010002020029339006191900000000002            2  01293390061911061900000001914290000000001N010619000000000000000000000000000000000000000000000000000000000000000100029339051831RONALD DIDOFF                           RUA CORONEL FERREIRA BRAGA - 188 - VILA             03522010                                                            000086
2SR. CAIXA, APOS O VENCIMENTO COBRAR 2% DE MULTA                                 NAO RECEBER APOS 30 DIAS DO VENCIMENTO.                                                                                                                                                                                                         01061900000000000000106190000000000000       0090339900006270293390061919000087
100000000000000000000009033990000627000000000000000000000000010002020017357806191000000000002            2  01173578061911061900000002027400000000001N010619000000000000000000000000000000000000000000000000000000000000000100017357859894MARCIO GUIMARAES                        RUA GENERAL CAMARA - 188 SALA 11 - CENTR            11010120                                                            000089
2SR. CAIXA, APOS O VENCIMENTO COBRAR 2% DE MULTA                                 NAO RECEBER APOS 30 DIAS DO VENCIMENTO.                                                                                                                                                                                                         01061900000000000000106190000000000000       0090339900006270173578061910000090
100000000000000000000009033990000627000000000000000000000000010002020010563006191000000000002            2  01105630061911061900000002079220000000001N010619000000000000000000000000000000000000000000000000000000000000000100010563033878VERA LUCIA RIBEIRO LONGANEZI            RUA DOS CAMARES - 150 AP.24 BL.02 - CARA            02068030                                                            000092
2SR. CAIXA, APOS O VENCIMENTO COBRAR 2% DE MULTA                                 NAO RECEBER APOS 30 DIAS DO VENCIMENTO.                                                                                                                                                                                                         01061900000000000000106190000000000000       0090339900006270105630061910000093
100000000000000000000009033990000627000000000000000000000000010002020005529606191500000000002            2  01055296061911061900000001886820000000001N010619000000000000000000000000000000000000000000000000000000000000000100005529616801JOAQUIM JORGE DA COSTA                  RUA JOSE CALIXTO DO CARMO - 286 AP.106 -            11702690                                                            000095
2SR. CAIXA, APOS O VENCIMENTO COBRAR 2% DE MULTA                                 NAO RECEBER APOS 30 DIAS DO VENCIMENTO.                                                                                                                                                                                                         01061900000000000000106190000000000000       0090339900006270055296061915000096
100000000000000000000009033990000627000000000000000000000000010002020022014106191P00000000002            2  01220141061911061900000001881310000000001N010619000000000000000000000000000000000000000000000000000000000000000100022014140847CAMILA SILVEIRA CANIZARES               AVENIDA PRESIDENTE CASTELO BRANCO - 5.74            11703650                                                            000098
2SR. CAIXA, APOS O VENCIMENTO COBRAR 2% DE MULTA                                 NAO RECEBER APOS 30 DIAS DO VENCIMENTO.                                                                                                                                                                                                         01061900000000000000106190000000000000       009033990000627022014106191P000099
100000000000000000000009033990000627000000000000000000000000010002020022014106192800000000002            2  01220141061911061900000001881180000000001N010619000000000000000000000000000000000000000000000000000000000000000100022014140847CAMILA SILVEIRA CANIZARES               AVENIDA PRESIDENTE CASTELO BRANCO - 5.74            11703650                                                            000101
2SR. CAIXA, APOS O VENCIMENTO COBRAR 2% DE MULTA                                 NAO RECEBER APOS 30 DIAS DO VENCIMENTO.                                                                                                                                                                                                         01061900000000000000106190000000000000       0090339900006270220141061928000102
100000000000000000000009033990000627000000000000000000000000010002020015550706191100000000002            2  01155507061909061900000001783960000000001N010619000000000000000000000000000000000000000000000000000000000000000100015550706806MARY MIWA                               RUA CARLOS JOSE BORSTENS - 50 AP.105 - A            11702750                                                            000104
2SR. CAIXA, APOS O VENCIMENTO COBRAR 2% DE MULTA                                 NAO RECEBER APOS 30 DIAS DO VENCIMENTO.                                                                                                                                                                                                         01061900000000000000106190000000000000       0090339900006270155507061911000105
100000000000000000000009033990000627000000000000000000000000010002020015464606191100000000002            2  01154646061911061900000001983490000000001N010619000000000000000000000000000000000000000000000000000000000000000100015464647864SONIA TERESA VOLPATO                    RUA PEDRO BADRA - 51 AP.73 - JABAQUARA -            04348090                                                            000107
2SR. CAIXA, APOS O VENCIMENTO COBRAR 2% DE MULTA                                 NAO RECEBER APOS 30 DIAS DO VENCIMENTO.                                                                                                                                                                                                         01061900000000000000106190000000000000       0090339900006270154646061911000108
100000000000000000000009033990000627000000000000000000000000010002020008657806191000000000002            2  01086578061911061900000001963580000000001N010619000000000000000000000000000000000000000000000000000000000000000100008657886855ARLINDO DA CRUZ                         AVENIDA ARICANDUVA - 8.256 AP.54 BL.10 -            03951220                                                            000110
2SR. CAIXA, APOS O VENCIMENTO COBRAR 2% DE MULTA                                 NAO RECEBER APOS 30 DIAS DO VENCIMENTO.                                                                                                                                                                                                         01061900000000000000106190000000000000       0090339900006270086578061910000111
100000000000000000000009033990000627000000000000000000000000010002020004265706191000000000002            2  01042657061909061900000002628630000000001N010619000000000000000000000000000000000000000000000000000000000000000100004265781713ALEXANDRE CASADO COSTA                  RUA CARLOS JOSE BORSTENS - 50 AP.33 - AV            11702750                                                            000113
2SR. CAIXA, APOS O VENCIMENTO COBRAR 2% DE MULTA                                 NAO RECEBER APOS 30 DIAS DO VENCIMENTO.                                                                                                                                                                                                         01061900000000000000106190000000000000       0090339900006270042657061910000114
100000000000000000000009033990000627000000000000000000000000010002020059735106191900000000002            2  01597351061909061900000001110270000000001N010619000000000000000000000000000000000000000000000000000000000000000100059735180863HELIO JOSE MARQUES                      RUA MARTIM AFONSO DE SOUZA - 1007 AP.102            11702790                                                            000116
2SR. CAIXA, APOS O VENCIMENTO COBRAR 2% DE MULTA                                 NAO RECEBER APOS 30 DIAS DO VENCIMENTO.                                                                                                                                                                                                         01061900000000000000106190000000000000       0090339900006270597351061919000117
100000000000000000000009033990000627000000000000000000000000010002020026347806191200000000002            2  01263478061911061900000002099030000000001N010619000000000000000000000000000000000000000000000000000000000000000100026347872862VALDECI SILVA MEIRELES                  RUA JOSE BATISTA DA SILVA - 292 - JARDIM            06851470                                                            000119
2SR. CAIXA, APOS O VENCIMENTO COBRAR 2% DE MULTA                                 NAO RECEBER APOS 30 DIAS DO VENCIMENTO.                                                                                                                                                                                                         01061900000000000000106190000000000000       0090339900006270263478061912000120
100000000000000000000009033990000627000000000000000000000000010002020025443606191300000000002            2  01254436061909061900000003802460000000001N010619000000000000000000000000000000000000000000000000000000000000000100025443691830SILVANETE PEREIRA CARNELOS              RUA CARLOS JOSE BORSTENS - 50 AP.102 - A            11702750                                                            000122
2SR. CAIXA, APOS O VENCIMENTO COBRAR 2% DE MULTA                                 NAO RECEBER APOS 30 DIAS DO VENCIMENTO.                                                                                                                                                                                                         01061900000000000000106190000000000000       0090339900006270254436061913000123
100000000000000000000009033990000627000000000000000000000000010002020013135206191300000000002            2  01131352061911061900000001928490000000001N010619000000000000000000000000000000000000000000000000000000000000000100013135261859EDUARDO ZANOLA                          RUA ROLANDO PIETRO BONINI - 46 - JARDIM             09781040                                                            000125
2SR. CAIXA, APOS O VENCIMENTO COBRAR 2% DE MULTA                                 NAO RECEBER APOS 30 DIAS DO VENCIMENTO.                                                                                                                                                                                                         01061900000000000000106190000000000000       0090339900006270131352061913000126
100000000000000000000009033990000627000000000000000000000000010002020009797606191400000000002            2  01097976061911061900000001878140000000001N010619000000000000000000000000000000000000000000000000000000000000000100009797626857RICARDO SOBRAL DE OLIVEIRA              RUA 23 DE MAIO - 139 AP.32 - VILA MIRIM             11704690                                                            000128
2SR. CAIXA, APOS O VENCIMENTO COBRAR 2% DE MULTA                                 NAO RECEBER APOS 30 DIAS DO VENCIMENTO.                                                                                                                                                                                                         01061900000000000000106190000000000000       0090339900006270097976061914000129
100000000000000000000009033990000627000000000000000000000000010002020004767606191500000000002            2  01047676061909061900000003211570000000001N010619000000000000000000000000000000000000000000000000000000000000000100004767679893ORLANDO GRANDE FILHO                    RUA ORLANDO MIGLIARI - 101 - JARDIM OURO            19906140                                                            000131
2SR. CAIXA, APOS O VENCIMENTO COBRAR 2% DE MULTA                                 NAO RECEBER APOS 30 DIAS DO VENCIMENTO.                                                                                                                                                                                                         01061900000000000000106190000000000000       0090339900006270047676061915000132
100000000000000000000009033990000627000000000000000000000000010002020006512506191200000000002            2  01065125061911061900000001689470000000001N010619000000000000000000000000000000000000000000000000000000000000000100006512547870MARIA DO CARMO FAGUNDES DOS REIS        RUA CARLOS MALCHER - 98 - PARQUE EDU CHA            02232020                                                            000134
2SR. CAIXA, APOS O VENCIMENTO COBRAR 2% DE MULTA                                 NAO RECEBER APOS 30 DIAS DO VENCIMENTO.                                                                                                                                                                                                         01061900000000000000106190000000000000       0090339900006270065125061912000135
100000000000000000000009033990000627000000000000000000000000010002020022728406191500000000002            2  01227284061911061900000002032260000000001N010619000000000000000000000000000000000000000000000000000000000000000100022728497842WILLIAN DE SOUZA MELLO                  RUA JOSE CALIXTO DO CARMO - 286 AP.111 -            11702690                                                            000137
2SR. CAIXA, APOS O VENCIMENTO COBRAR 2% DE MULTA                                 NAO RECEBER APOS 30 DIAS DO VENCIMENTO.                                                                                                                                                                                                         01061900000000000000106190000000000000       0090339900006270227284061915000138
100000000000000000000009033990000627000000000000000000000000010002020016909706191P00000000002            2  01169097061911061900000001795890000000001N010619000000000000000000000000000000000000000000000000000000000000000100016909746805EDIVALDO SANTANA DOS SANTOS             ESTRADA JOAO GASPAR DELGADO - 80 AP.213             08536100                                                            000140
2SR. CAIXA, APOS O VENCIMENTO COBRAR 2% DE MULTA                                 NAO RECEBER APOS 30 DIAS DO VENCIMENTO.                                                                                                                                                                                                         01061900000000000000106190000000000000       009033990000627016909706191P000141
100000000000000000000009033990000627000000000000000000000000010002020022036006191700000000002            2  01220360061909061900000002788810000000001N010619000000000000000000000000000000000000000000000000000000000000000100022036003818DERLIS TERAN QUIROGA ROGATO             RUA JOAO RIBEIRO - 709 AP.61 - CAMPESTRE            09070250                                                            000143
2SR. CAIXA, APOS O VENCIMENTO COBRAR 2% DE MULTA                                 NAO RECEBER APOS 30 DIAS DO VENCIMENTO.                                                                                                                                                                                                         01061900000000000000106190000000000000       0090339900006270220360061917000144
9                                                                                                                                                                                                                                                                                                                                                                                                         000145