01REMESSA01COBRANCA       00000000000004991781AIRES CONSTRUTORA E INCORPORAD237BRADESCO       130519        MX0000120                                                                                                                                                                                                                                                                                     000001
100000000000000000000009077090006612500000000000000000000000010002100001224505191400000000002            2  01012245051925051900000003592010000000001N100519000000000000000000000000000000000000000000000000000000000000000100001224509579REINALDO JUNIOR MARTINS DE ABREU        AVENIDA INTERLAGOS - 7.224 - INTERLAGOS             04777000                                                            000002
2SR. CAIXA, APOS O VENCIMENTO COBRAR 10% DE MULTA                                NAO RECEBER APOS 30 DIAS DO VENCIMENTO.                                                                                                                                                                                                         13051900000000000001305190000000000000       0090770900066125012245051914000003
100000000000000000000009077090006612500000000000000000000000010002100016338905191700000000002            2  01163389051925051900000003544160000000001N100519000000000000000000000000000000000000000000000000000000000000000100016338929806EDVALDO DA SILVA ANDRADE                RUA ARIA - 434 - PARQUE ALVES DE LIMA -             04902170                                                            000005
2SR. CAIXA, APOS O VENCIMENTO COBRAR 10% DE MULTA                                NAO RECEBER APOS 30 DIAS DO VENCIMENTO.                                                                                                                                                                                                         13051900000000000001305190000000000000       0090770900066125163389051917000006
100000000000000000000009077090006612500000000000000000000000010002100026836905191700000000002            2  01268369051925051900000003209500000000001N100519000000000000000000000000000000000000000000000000000000000000000100026836908860VANDERLEI FIGUEIREDO DE CARVALHO        RUA TUPI - 840 - VILA TUPI - PRAIA GRAND            11703260                                                            000008
2SR. CAIXA, APOS O VENCIMENTO COBRAR 10% DE MULTA                                NAO RECEBER APOS 30 DIAS DO VENCIMENTO.                                                                                                                                                                                                         13051900000000000001305190000000000000       0090770900066125268369051917000009
100000000000000000000009077090006612500000000000000000000000010002100059861505191300000000002            2  01598615051925051900000003564870000000001N100519000000000000000000000000000000000000000000000000000000000000000100059861576800REINALDO LOPES DE OLIVEIRA              RUA DA SERVIDAO - 40 - VILA ROSCHEL - SA            04891045                                                            000011
2SR. CAIXA, APOS O VENCIMENTO COBRAR 10% DE MULTA                                NAO RECEBER APOS 30 DIAS DO VENCIMENTO.                                                                                                                                                                                                         13051900000000000001305190000000000000       0090770900066125598615051913000012
100000000000000000000009077090006612500000000000000000000000010002100016330905191100000000002            2  01163309051925051900000003543270000000001N100519000000000000000000000000000000000000000000000000000000000000000100016330938830KARINA CORDEIRO PIASSA                  CONDE MOREIRA LIMA - 644 - JARDIM JABAQU            04384032                                                            000014
2SR. CAIXA, APOS O VENCIMENTO COBRAR 10% DE MULTA                                NAO RECEBER APOS 30 DIAS DO VENCIMENTO.                                                                                                                                                                                                         13051900000000000001305190000000000000       0090770900066125163309051911000015
100000000000000000000009077090006612500000000000000000000000010002100077027605191400000000002            2  01770276051925051900000003443780000000001N100519000000000000000000000000000000000000000000000000000000000000000100077027604868CLINEU LISSONI                          AVENIDA VILA EMA - 1100 AP.41 - VILA PRU            03156000                                                            000017
2SR. CAIXA, APOS O VENCIMENTO COBRAR 10% DE MULTA                                NAO RECEBER APOS 30 DIAS DO VENCIMENTO.                                                                                                                                                                                                         13051900000000000001305190000000000000       0090770900066125770276051914000018
100000000000000000000009077090006612500000000000000000000000010002100029380705191100000000002            2  01293807051925051900000003209690000000001N100519000000000000000000000000000000000000000000000000000000000000000100029380708882EDUARDO MENDONCA DAMASCENO              RUA MONTE CASTELO - 296 AP.12 - AVIACAO             11702720                                                            000020
2SR. CAIXA, APOS O VENCIMENTO COBRAR 10% DE MULTA                                NAO RECEBER APOS 30 DIAS DO VENCIMENTO.                                                                                                                                                                                                         13051900000000000001305190000000000000       0090770900066125293807051911000021
100000000000000000000009077090006612500000000000000000000000010002100023988505191500000000002            2  01239885051925051900000003259070000000001N100519000000000000000000000000000000000000000000000000000000000000000100023988525634DALMY PIMENTA                           SAO CAETANO - 136 - VILA SAO VICENTE - U            38026220                                                            000023
2SR. CAIXA, APOS O VENCIMENTO COBRAR 10% DE MULTA                                NAO RECEBER APOS 30 DIAS DO VENCIMENTO.                                                                                                                                                                                                         13051900000000000001305190000000000000       0090770900066125239885051915000024
100000000000000000000009077090006612500000000000000000000000010002100004735205191700000000002            2  01047352051925051900000003543480000000001N100519000000000000000000000000000000000000000000000000000000000000000100004735273832DARIO LUIZ GONCALVES                    RUA MONTE CASTELO - 295 AP.113 - AVIACAO            11702720                                                            000026
2SR. CAIXA, APOS O VENCIMENTO COBRAR 10% DE MULTA                                NAO RECEBER APOS 30 DIAS DO VENCIMENTO.                                                                                                                                                                                                         13051900000000000001305190000000000000       0090770900066125047352051917000027
100000000000000000000009077090006612500000000000000000000000010002100007635205191700000000002            2  01076352051925051900000003168090000000001N100519000000000000000000000000000000000000000000000000000000000000000100007635293893SILVIO CARDOSO ZACARIAS                 RUA SOLIDONIO LEITE - 2718 AP.102 BLOCO             03275000                                                            000029
2SR. CAIXA, APOS O VENCIMENTO COBRAR 10% DE MULTA                                NAO RECEBER APOS 30 DIAS DO VENCIMENTO.                                                                                                                                                                                                         13051900000000000001305190000000000000       0090770900066125076352051917000030
100000000000000000000009077090006612500000000000000000000000010002100007975905191000000000002            2  01079759051925051900000003446710000000001N100519000000000000000000000000000000000000000000000000000000000000000100007975958808JOCY VIGNADO                            RUA PEDRO GONCALVES SOBRINHO - 568 - PAR            13098641                                                            000032
2SR. CAIXA, APOS O VENCIMENTO COBRAR 10% DE MULTA                                NAO RECEBER APOS 30 DIAS DO VENCIMENTO.                                                                                                                                                                                                         13051900000000000001305190000000000000       0090770900066125079759051910000033
100000000000000000000009077090006612500000000000000000000000010002100036386805191200000000002            2  01363868051925051900000003640240000000001N100519000000000000000000000000000000000000000000000000000000000000000100036386861833ALINE LEE WEI DE SOUZA                  AV. PRES.CASTELO BRANCO - 9127 AP.251 BL            11704600                                                            000035
2SR. CAIXA, APOS O VENCIMENTO COBRAR 10% DE MULTA                                NAO RECEBER APOS 30 DIAS DO VENCIMENTO.                                                                                                                                                                                                         13051900000000000001305190000000000000       0090770900066125363868051912000036
100000000000000000000009077090006612500000000000000000000000010002100070465305191300000000002            2  01704653051925051900000000992040000000001N100519000000000000000000000000000000000000000000000000000000000000000100070465320953SIDNEY CARASKI                          RUA DR.CELSO PACHECO BENTIM - 502 - PARQ            03571020                                                            000038
2SR. CAIXA, APOS O VENCIMENTO COBRAR 10% DE MULTA                                NAO RECEBER APOS 30 DIAS DO VENCIMENTO.                                                                                                                                                                                                         13051900000000000001305190000000000000       0090770900066125704653051913000039
100000000000000000000009077090006612500000000000000000000000010002100075759405191900000000002            2  01757594051925051900000002593000000000001N100519000000000000000000000000000000000000000000000000000000000000000100075759446800VALTER MUTAFEI                          RUA MONTE CASTELO - 295 AP.54 - AVIACAO             11702720                                                            000041
2SR. CAIXA, APOS O VENCIMENTO COBRAR 10% DE MULTA                                NAO RECEBER APOS 30 DIAS DO VENCIMENTO.                                                                                                                                                                                                         13051900000000000001305190000000000000       0090770900066125757594051919000042
100000000000000000000009077090006612500000000000000000000000010002100070328705191700000000002            2  01703287051925051900000003704760000000001N100519000000000000000000000000000000000000000000000000000000000000000100070328706868VALTER LIMA FERNANDES                   RUA DOMINGOS JORGE VELHO - 52 - CENTRO -            06843550                                                            000044
2SR. CAIXA, APOS O VENCIMENTO COBRAR 10% DE MULTA                                NAO RECEBER APOS 30 DIAS DO VENCIMENTO.                                                                                                                                                                                                         13051900000000000001305190000000000000       0090770900066125703287051917000045
100000000000000000000009077090006612500000000000000000000000010002100023132605191200000000002            2  01231326051925051900000002012380000000001N100519000000000000000000000000000000000000000000000000000000000000000100023132672882LEANDRO MORENO                          RUA MONTE CASTELO - 296 AP.64 - AVIACAO             11702720                                                            000047
2SR. CAIXA, APOS O VENCIMENTO COBRAR 10% DE MULTA                                NAO RECEBER APOS 30 DIAS DO VENCIMENTO.                                                                                                                                                                                                         13051900000000000001305190000000000000       0090770900066125231326051912000048
100000000000000000000009077090006612500000000000000000000000010002100099264605191100000000002            2  01992646051925051900000003431910000000001N100519000000000000000000000000000000000000000000000000000000000000000100099264692800LEONTINO PINHEIRO DA SILVA              AVENIDA JOAO BATISTA FITIPALDI - 469 - V            08685000                                                            000050
2SR. CAIXA, APOS O VENCIMENTO COBRAR 10% DE MULTA                                NAO RECEBER APOS 30 DIAS DO VENCIMENTO.                                                                                                                                                                                                         13051900000000000001305190000000000000       0090770900066125992646051911000051
100000000000000000000009077090006612500000000000000000000000010002100000666305191200000000002            2  01006663051925051900000003310860000000001N100519000000000000000000000000000000000000000000000000000000000000000100000666344825LUIZ HENRIQUE DE CAMPOS                 RUA JOAO CARLOS CAVALCANTI REIS - 21 - J            02281206                                                            000053
2SR. CAIXA, APOS O VENCIMENTO COBRAR 10% DE MULTA                                NAO RECEBER APOS 30 DIAS DO VENCIMENTO.                                                                                                                                                                                                         13051900000000000001305190000000000000       0090770900066125006663051912000054
100000000000000000000009077090006612500000000000000000000000010002100029155005191200000000002            2  01291550051925051900000003496400000000001N100519000000000000000000000000000000000000000000000000000000000000000100029155026842DANIELA YOSHIDA                         RUA MONTE CASTELO - 262 AP.34 - AVIACAO             11702720                                                            000056
2SR. CAIXA, APOS O VENCIMENTO COBRAR 10% DE MULTA                                NAO RECEBER APOS 30 DIAS DO VENCIMENTO.                                                                                                                                                                                                         13051900000000000001305190000000000000       0090770900066125291550051912000057
100000000000000000000009077090006612500000000000000000000000010002100001204405191600000000002            2  01012044051925051900000002847320000000001N100519000000000000000000000000000000000000000000000000000000000000000100001204431809CEZAR TALAVERA JUNIOR                   RUA MAESTRO ARTURO DE ANGELIS  - 190 AP.            05139010                                                            000059
2SR. CAIXA, APOS O VENCIMENTO COBRAR 10% DE MULTA                                NAO RECEBER APOS 30 DIAS DO VENCIMENTO.                                                                                                                                                                                                         13051900000000000001305190000000000000       0090770900066125012044051916000060
100000000000000000000009077090006612500000000000000000000000010002100004227505191500000000002            2  01042275051925051900000003690970000000001N100519000000000000000000000000000000000000000000000000000000000000000100004227553970ALESSANDRO ISRAEL GOULART               RUA PROFESSORA CARLINDA RIBEIRO - 21 - F            02866200                                                            000062
2SR. CAIXA, APOS O VENCIMENTO COBRAR 10% DE MULTA                                NAO RECEBER APOS 30 DIAS DO VENCIMENTO.                                                                                                                                                                                                         13051900000000000001305190000000000000       0090770900066125042275051915000063
100000000000000000000009077090006612500000000000000000000000010002100060811405191900000000002            2  01608114051925051900000003401660000000001N100519000000000000000000000000000000000000000000000000000000000000000100060811420868HELIO BASSI                             AV.PARIS,575 - PRACA ANTONIO FIGUEROA -             11700082                                                            000065
2SR. CAIXA, APOS O VENCIMENTO COBRAR 10% DE MULTA                                NAO RECEBER APOS 30 DIAS DO VENCIMENTO.                                                                                                                                                                                                         13051900000000000001305190000000000000       0090770900066125608114051919000066
100000000000000000000009077090006612500000000000000000000000010002100001024705191900000000002            2  01010247051925051900000003218880000000001N100519000000000000000000000000000000000000000000000000000000000000000100001024794881CLAUDIO RODRIGUES                       RUA ARACATUBA - 242 - LAPA - SAO PAULO -            05058010                                                            000068
2SR. CAIXA, APOS O VENCIMENTO COBRAR 10% DE MULTA                                NAO RECEBER APOS 30 DIAS DO VENCIMENTO.                                                                                                                                                                                                         13051900000000000001305190000000000000       0090770900066125010247051919000069
100000000000000000000009077090006612500000000000000000000000010002100002225005191P00000000002            2  01022250051925051900000004934970000000001N100519000000000000000000000000000000000000000000000000000000000000000100002225072841PEDRO EDUARDO DE AZEVEDO                RUA NATH ZILMAN - 46 - JARDIM SAMAMBAIA             07600000                                                            000071
2SR. CAIXA, APOS O VENCIMENTO COBRAR 10% DE MULTA                                NAO RECEBER APOS 30 DIAS DO VENCIMENTO.                                                                                                                                                                                                         13051900000000000001305190000000000000       009077090006612502225005191P000072
100000000000000000000009077090006612500000000000000000000000010002100022037505191800000000002            2  01220375051925051900000003434200000000001N100519000000000000000000000000000000000000000000000000000000000000000100022037552882ANDREIA CRISTINA FERNANDES DANTAS       PCA CASTRO ALVES - 163 AP.33 - VILA SAO             13224299                                                            000074
2SR. CAIXA, APOS O VENCIMENTO COBRAR 10% DE MULTA                                NAO RECEBER APOS 30 DIAS DO VENCIMENTO.                                                                                                                                                                                                         13051900000000000001305190000000000000       0090770900066125220375051918000075
100000000000000000000009077090006612500000000000000000000000010002100019288705191600000000002            2  01192887051925051900000002796210000000001N100519000000000000000000000000000000000000000000000000000000000000000100019288787844EMERSON LUIZ MARTINEZ PEREIRA           RUA MONTE CASTELO - 296 AP.74 - AVIACAO             11702720                                                            000077
2SR. CAIXA, APOS O VENCIMENTO COBRAR 10% DE MULTA                                NAO RECEBER APOS 30 DIAS DO VENCIMENTO.                                                                                                                                                                                                         13051900000000000001305190000000000000       0090770900066125192887051916000078
100000000000000000000009077090006612500000000000000000000000010002100027198405191P00000000002            2  01271984051925051900000002368550000000001N100519000000000000000000000000000000000000000000000000000000000000000100027198452809CRISTIANE AURELIANO DA SILVA MAIA       RUA MONTE CASTELO - 262 AP.25 - AVIACAO             11702720                                                            000080
2SR. CAIXA, APOS O VENCIMENTO COBRAR 10% DE MULTA                                NAO RECEBER APOS 30 DIAS DO VENCIMENTO.                                                                                                                                                                                                         13051900000000000001305190000000000000       009077090006612527198405191P000081
100000000000000000000009077090006612500000000000000000000000010002100021246205191300000000002            2  01212462051925051900000002890570000000001N100519000000000000000000000000000000000000000000000000000000000000000100021246231840ALEXANDRO DA CUNHA MIGUES               AVENIDA CONSELHEIRO CARRAO - 1861 CONJ.5            03403001                                                            000083
2SR. CAIXA, APOS O VENCIMENTO COBRAR 10% DE MULTA                                NAO RECEBER APOS 30 DIAS DO VENCIMENTO.                                                                                                                                                                                                         13051900000000000001305190000000000000       0090770900066125212462051913000084
100000000000000000000009077090006612500000000000000000000000010002100018834205191100000000002            2  01188342051925051900000003376480000000001N100519000000000000000000000000000000000000000000000000000000000000000100018834257863ILTON FERNANDO MUTCHNIK                 RUA ASSUNGUI - 700 AP.222 - VILA GUMERCI            04131001                                                            000086
2SR. CAIXA, APOS O VENCIMENTO COBRAR 10% DE MULTA                                NAO RECEBER APOS 30 DIAS DO VENCIMENTO.                                                                                                                                                                                                         13051900000000000001305190000000000000       0090770900066125188342051911000087
100000000000000000000009077090006612500000000000000000000000010002100018470505191300000000002            2  01184705051925051900000004252440000000001N100519000000000000000000000000000000000000000000000000000000000000000100018470520881SILVANA ALVES DE OLIVEIRA               RUA MONTE CASTELO - 262 AP.91 - AVIACAO             11702720                                                            000089
2SR. CAIXA, APOS O VENCIMENTO COBRAR 10% DE MULTA                                NAO RECEBER APOS 30 DIAS DO VENCIMENTO.                                                                                                                                                                                                         13051900000000000001305190000000000000       0090770900066125184705051913000090
100000000000000000000009077090006612500000000000000000000000010002100009297505191300000000002            2  01092975051925051900000002960500000000001N100519000000000000000000000000000000000000000000000000000000000000000100009297523846MARCOS ROBERTO DE CASTRO FERREIRA       RUA MONTE CASTELO - 262 AP.105 - AVIACAO            11702720                                                            000092
2SR. CAIXA, APOS O VENCIMENTO COBRAR 10% DE MULTA                                NAO RECEBER APOS 30 DIAS DO VENCIMENTO.                                                                                                                                                                                                         13051900000000000001305190000000000000       0090770900066125092975051913000093
100000000000000000000009077090006612500000000000000000000000010002100001164105191200000000002            2  01011641051925051900000003668730000000001N100519000000000000000000000000000000000000000000000000000000000000000100001164158864DAVID BLEY LACERDA                      RUA CONEGO ARAUJO MARCONDES - 188 - BAIR            02550080                                                            000095
2SR. CAIXA, APOS O VENCIMENTO COBRAR 10% DE MULTA                                NAO RECEBER APOS 30 DIAS DO VENCIMENTO.                                                                                                                                                                                                         13051900000000000001305190000000000000       0090770900066125011641051912000096
100000000000000000000009077090006612500000000000000000000000010002100031498005191600000000002            2  01314980051925051900000004458820000000001N100519000000000000000000000000000000000000000000000000000000000000000100031498008895POLIANE  SIBELE DA SILVA                PRACA GENERAL COSTA BARRETO - 56 AP.181             03325070                                                            000098
2SR. CAIXA, APOS O VENCIMENTO COBRAR 10% DE MULTA                                NAO RECEBER APOS 30 DIAS DO VENCIMENTO.                                                                                                                                                                                                         13051900000000000001305190000000000000       0090770900066125314980051916000099
100000000000000000000009077090006612500000000000000000000000010002100000588105191P00000000002            2  01005881051925051900000002615190000000001N100519000000000000000000000000000000000000000000000000000000000000000100000588109860JOSE LIARTE GIANTE                      AVENIDA LUIZ GONZAGA DO AMARAL - 143 - J            09320630                                                            000101
2SR. CAIXA, APOS O VENCIMENTO COBRAR 10% DE MULTA                                NAO RECEBER APOS 30 DIAS DO VENCIMENTO.                                                                                                                                                                                                         13051900000000000001305190000000000000       009077090006612500588105191P000102
100000000000000000000009077090006612500000000000000000000000010002100014386805191200000000002            2  01143868051925051900000002092030000000001N100519000000000000000000000000000000000000000000000000000000000000000100014386860134SEVERINO CARLOS DE OLIVEIRA             RUA MONTE CASTELO - 262 AP.54 - AVIACAO             11702720                                                            000104
2SR. CAIXA, APOS O VENCIMENTO COBRAR 10% DE MULTA                                NAO RECEBER APOS 30 DIAS DO VENCIMENTO.                                                                                                                                                                                                         13051900000000000001305190000000000000       0090770900066125143868051912000105
100000000000000000000009077090006612500000000000000000000000010002100029088205191P00000000002            2  01290882051925051900000002325800000000001N100519000000000000000000000000000000000000000000000000000000000000000100029088221804FABIANO SPERANDEO                       RUA MONTE CASTELO - 296 AP.93 - AVIACAO             11702720                                                            000107
2SR. CAIXA, APOS O VENCIMENTO COBRAR 10% DE MULTA                                NAO RECEBER APOS 30 DIAS DO VENCIMENTO.                                                                                                                                                                                                         13051900000000000001305190000000000000       009077090006612529088205191P000108
100000000000000000000009077090006612500000000000000000000000010002100039393705191800000000002            2  01393937051925051900000001441840000000001N100519000000000000000000000000000000000000000000000000000000000000000100039393790850NAIRON RICARDO DE ARAUJO SANTOS         RUA MONTE CASTELO - 262 AP.23 - AVIACAO             11702720                                                            000110
2SR. CAIXA, APOS O VENCIMENTO COBRAR 10% DE MULTA                                NAO RECEBER APOS 30 DIAS DO VENCIMENTO.                                                                                                                                                                                                         13051900000000000001305190000000000000       0090770900066125393937051918000111
100000000000000000000009077090006612500000000000000000000000010002100041896805191900000000002            2  01418968051925051900000002099820000000001N100519000000000000000000000000000000000000000000000000000000000000000100041896807968SERGIO ROBERTO DA SILVA                 RUA DOS INGLESES - 542 AP.61 - MORRO DOS            01329000                                                            000113
2SR. CAIXA, APOS O VENCIMENTO COBRAR 10% DE MULTA                                NAO RECEBER APOS 30 DIAS DO VENCIMENTO.                                                                                                                                                                                                         13051900000000000001305190000000000000       0090770900066125418968051919000114
9                                                                                                                                                                                                                                                                                                                                                                                                         000115