01REMESSA01COBRANCA       00000000000005316116AIRES CONSTRUTORA E INCORPORAD237BRADESCO       010523        MX0000217                                                                                                                                                                                                                                                                                     000001
100000000000000000000009002800441612000000000000000000000000010002100025215105231400000000002            2  01252151052310052300000008241630000000001N010523000000000000000000000000000000000000000000000000000000000000000100025215106886KLEBER LUIZ DOS SANTOS                  RUA MONTE CASTELO - 262 AP.15 - AVIACAO             11702720                                                            000002
2SR. CAIXA, APOS O VENCIMENTO COBRAR 10% DE MULTA                                NAO RECEBER APOS 30 DIAS DO VENCIMENTO.                                                                                                                                                                                                         01052300000000000000105230000000000000       0090028004416120252151052314000003
100000000000000000000009002800441612000000000000000000000000010002100031803805231700000000002            2  01318038052310052300000003892340000000001N010523000000000000000000000000000000000000000000000000000000000000000100031803864877ELEILSON FELIPPE SANTOS                 RUA SANTA GREGORIA - 193 - CIDADE DUTRA             04806030                                                            000005
2SR. CAIXA, APOS O VENCIMENTO COBRAR 10% DE MULTA                                NAO RECEBER APOS 30 DIAS DO VENCIMENTO.                                                                                                                                                                                                         01052300000000000000105230000000000000       0090028004416120318038052317000006
100000000000000000000009002800441612000000000000000000000000010002100063064505231100000000002            2  01630645052310052300000004638420000000001N010523000000000000000000000000000000000000000000000000000000000000000100063064537849ANTONIO APARECIDO DA SILVA DESTEFANO    RUA PROFESSOR TEODORO BRAGA - 46 - VILA             02966020                                                            000008
2SR. CAIXA, APOS O VENCIMENTO COBRAR 10% DE MULTA                                NAO RECEBER APOS 30 DIAS DO VENCIMENTO.                                                                                                                                                                                                         01052300000000000000105230000000000000       0090028004416120630645052311000009
100000000000000000000009002800441612000000000000000000000000010002100005920505231000000000002            2  01059205052310052300000002700530000000001N010523000000000000000000000000000000000000000000000000000000000000000100005920579846SONIA MARIA VALDO POLLO                 RUA PALMIRA CERVI BARBARO - 797 - CIDADE            13214370                                                            000011
2SR. CAIXA, APOS O VENCIMENTO COBRAR 10% DE MULTA                                NAO RECEBER APOS 30 DIAS DO VENCIMENTO.                                                                                                                                                                                                         01052300000000000000105230000000000000       0090028004416120059205052310000012
100000000000000000000009002800441612000000000000000000000000010002100002494105231100000000002            2  01024941052310052300000004060340000000001N010523000000000000000000000000000000000000000000000000000000000000000100002494107881CIRO FRANCISCO MARCHI DURIGON           RUA MONTE CASTELO - 262 AP.115 - AVIACAO            11702720                                                            000014
2SR. CAIXA, APOS O VENCIMENTO COBRAR 10% DE MULTA                                NAO RECEBER APOS 30 DIAS DO VENCIMENTO.                                                                                                                                                                                                         01052300000000000000105230000000000000       0090028004416120024941052311000015
100000000000000000000009002800441612000000000000000000000000010002100016299005231200000000002            2  01162990052310052300000003847800000000001N010523000000000000000000000000000000000000000000000000000000000000000100016299008857FERNANDO CESAR CARVALHO                 AVENIDA MARCONDES DE BRITO - 1340 AP.74             03509000                                                            000017
2SR. CAIXA, APOS O VENCIMENTO COBRAR 10% DE MULTA                                NAO RECEBER APOS 30 DIAS DO VENCIMENTO.                                                                                                                                                                                                         01052300000000000000105230000000000000       0090028004416120162990052312000018
9                                                                                                                                                                                                                                                                                                                                                                                                         000019