01REMESSA01COBRANCA       00000000000008017025HB SANTOS CONSTRUTORA E INCORP237BRADESCO       010722        MX0000156                                                                                                                                                                                                                                                                                     000001
100000000000000000000009033990000627000000000000000000000000010002020016479007221400000000002            2  01164790072209072200000004886320000000001N010722000000000000000000000000000000000000000000000000000000000000000100016479002806LOURDES PEREIRA DE QUEIROZ SECANECHIA   RUA PAULINO CURSI - 437 - CIDADE SAO MAT            03960060                                                            000002
2SR. CAIXA, APOS O VENCIMENTO COBRAR 2% DE MULTA                                 NAO RECEBER APOS 30 DIAS DO VENCIMENTO.                                                                                                                                                                                                         01072200000000000000107220000000000000       0090339900006270164790072214000003
100000000000000000000009033990000627000000000000000000000000010002020017229707222400000000002            2  01172297072209072200000003718430000000001N010722000000000000000000000000000000000000000000000000000000000000000100017229751802BERENICE VIEIRA KERSTING                RUA ATIBAIA - 17 AP.417 - BAIRRO IMPERAD            11707380                                                            000005
2SR. CAIXA, APOS O VENCIMENTO COBRAR 2% DE MULTA                                 NAO RECEBER APOS 30 DIAS DO VENCIMENTO.                                                                                                                                                                                                         01072200000000000000107220000000000000       0090339900006270172297072224000006
100000000000000000000009033990000627000000000000000000000000010002020009361407221100000000002            2  01093614072209072200000003547480000000001N010722000000000000000000000000000000000000000000000000000000000000000100009361471805JOSE BARBOSA DA SILVA                   RUA ALFREDO INACIO TRINDADE  - 60 AP.44             02344100                                                            000008
2SR. CAIXA, APOS O VENCIMENTO COBRAR 2% DE MULTA                                 NAO RECEBER APOS 30 DIAS DO VENCIMENTO.                                                                                                                                                                                                         01072200000000000000107220000000000000       0090339900006270093614072211000009
100000000000000000000009033990000627000000000000000000000000010002020012756907221500000000002            2  01127569072209072200000003062250000000001N010722000000000000000000000000000000000000000000000000000000000000000100012756959812ITAMAR JUVENAL DIAS DA SILVA            RUA ELISEU REINALDO MORAES VIEIRA - 90 A            02858000                                                            000011
2SR. CAIXA, APOS O VENCIMENTO COBRAR 2% DE MULTA                                 NAO RECEBER APOS 30 DIAS DO VENCIMENTO.                                                                                                                                                                                                         01072200000000000000107220000000000000       0090339900006270127569072215000012
100000000000000000000009033990000627000000000000000000000000010002020029433607221900000000002            2  01294336072211072200000002538030000000001N010722000000000000000000000000000000000000000000000000000000000000000100029433631897MARIO MUNIZ                             RUA JOSE CALIXTO DO CARMO - 286 AP.53 -             11702690                                                            000014
2SR. CAIXA, APOS O VENCIMENTO COBRAR 2% DE MULTA                                 NAO RECEBER APOS 30 DIAS DO VENCIMENTO.                                                                                                                                                                                                         01072200000000000000107220000000000000       0090339900006270294336072219000015
100000000000000000000009033990000627000000000000000000000000010002020005029807221100000000002            2  01050298072209072200000003122140000000001N010722000000000000000000000000000000000000000000000000000000000000000100005029828885LAURINETE DA CONCEICAO DE NORONHA       RUA MARIA LUCIA DE TOLEDO LEITE MORAES -            04434040                                                            000017
2SR. CAIXA, APOS O VENCIMENTO COBRAR 2% DE MULTA                                 NAO RECEBER APOS 30 DIAS DO VENCIMENTO.                                                                                                                                                                                                         01072200000000000000107220000000000000       0090339900006270050298072211000018
100000000000000000000009033990000627000000000000000000000000010002020013388907221300000000002            2  01133889072211072200000002474170000000001N010722000000000000000000000000000000000000000000000000000000000000000100013388936889NEUTON DE SOUZA RAMOS                   RUA JOSE CALIXTO DO CARMO - 286 AP.61 -             11702690                                                            000020
2SR. CAIXA, APOS O VENCIMENTO COBRAR 2% DE MULTA                                 NAO RECEBER APOS 30 DIAS DO VENCIMENTO.                                                                                                                                                                                                         01072200000000000000107220000000000000       0090339900006270133889072213000021
100000000000000000000009033990000627000000000000000000000000010002020012774907221300000000002            2  01127749072211072200000002520640000000001N010722000000000000000000000000000000000000000000000000000000000000000100012774906865JOSE MILTON SANTIAGO                    RUA BATATAIS - 47 - CIDADE ESTELA - POA             08563140                                                            000023
2SR. CAIXA, APOS O VENCIMENTO COBRAR 2% DE MULTA                                 NAO RECEBER APOS 30 DIAS DO VENCIMENTO.                                                                                                                                                                                                         01072200000000000000107220000000000000       0090339900006270127749072213000024
100000000000000000000009033990000627000000000000000000000000010002020016294107221900000000002            2  01162941072209072200000003099740000000001N010722000000000000000000000000000000000000000000000000000000000000000100016294119812JURACY FELIX DE ARRUDA                  RUA CARLOS JOSE BORSTENS - 50 AP.23 - AV            11702750                                                            000026
2SR. CAIXA, APOS O VENCIMENTO COBRAR 2% DE MULTA                                 NAO RECEBER APOS 30 DIAS DO VENCIMENTO.                                                                                                                                                                                                         01072200000000000000107220000000000000       0090339900006270162941072219000027
100000000000000000000009033990000627000000000000000000000000010002020005613807221300000000002            2  01056138072211072200000002318280000000001N010722000000000000000000000000000000000000000000000000000000000000000100005613843805NILZA MARIA DE OLIVEIRA                 RUA JOSE GONCALVES DE FREITAS - 66 C2 -             08210550                                                            000029
2SR. CAIXA, APOS O VENCIMENTO COBRAR 2% DE MULTA                                 NAO RECEBER APOS 30 DIAS DO VENCIMENTO.                                                                                                                                                                                                         01072200000000000000107220000000000000       0090339900006270056138072213000030
100000000000000000000009033990000627000000000000000000000000010002020007574907221300000000002            2  01075749072211072200000002379660000000001N010722000000000000000000000000000000000000000000000000000000000000000100007574936889JORGE LUCIANO PEREIRA BORRIELLO         RUA JOSE CALIXTO DO CARMO - 286 AP.54 -             11702690                                                            000032
2SR. CAIXA, APOS O VENCIMENTO COBRAR 2% DE MULTA                                 NAO RECEBER APOS 30 DIAS DO VENCIMENTO.                                                                                                                                                                                                         01072200000000000000107220000000000000       0090339900006270075749072213000033
100000000000000000000009033990000627000000000000000000000000010002020008214907221600000000002            2  01082149072211072200000002415750000000001N010722000000000000000000000000000000000000000000000000000000000000000100008214973830JAMIL CHALA                             RUA JOSE CALIXTO DO CARMO - 286 AP.22 -             11702690                                                            000035
2SR. CAIXA, APOS O VENCIMENTO COBRAR 2% DE MULTA                                 NAO RECEBER APOS 30 DIAS DO VENCIMENTO.                                                                                                                                                                                                         01072200000000000000107220000000000000       0090339900006270082149072216000036
100000000000000000000009033990000627000000000000000000000000010002020032495007221300000000002            2  01324950072211072200000002707170000000001N010722000000000000000000000000000000000000000000000000000000000000000100032495004881PAULO EDUARDO DOS SANTOS                RUA REPUBLICA DO IRAQUE - 1119 - CAMPO B            04611002                                                            000038
2SR. CAIXA, APOS O VENCIMENTO COBRAR 2% DE MULTA                                 NAO RECEBER APOS 30 DIAS DO VENCIMENTO.                                                                                                                                                                                                         01072200000000000000107220000000000000       0090339900006270324950072213000039
100000000000000000000009033990000627000000000000000000000000010002020016498007221000000000002            2  01164980072211072200000002374250000000001N010722000000000000000000000000000000000000000000000000000000000000000100016498053810GILMA CEZARIO GARCIA CORRITORI          RUA LAURENTINO XAVIER DOS SANTOS - 336 -            08240740                                                            000041
2SR. CAIXA, APOS O VENCIMENTO COBRAR 2% DE MULTA                                 NAO RECEBER APOS 30 DIAS DO VENCIMENTO.                                                                                                                                                                                                         01072200000000000000107220000000000000       0090339900006270164980072210000042
100000000000000000000009033990000627000000000000000000000000010002020029339007221P00000000002            2  01293390072211072200000002538870000000001N010722000000000000000000000000000000000000000000000000000000000000000100029339051831RONALD DIDOFF                           RUA CORONEL FERREIRA BRAGA - 188 - VILA             03522010                                                            000044
2SR. CAIXA, APOS O VENCIMENTO COBRAR 2% DE MULTA                                 NAO RECEBER APOS 30 DIAS DO VENCIMENTO.                                                                                                                                                                                                         01072200000000000000107220000000000000       009033990000627029339007221P000045
100000000000000000000009033990000627000000000000000000000000010002020017357807221100000000002            2  01173578072211072200000002688890000000001N010722000000000000000000000000000000000000000000000000000000000000000100017357859894MARCIO GUIMARAES                        RUA GENERAL CAMARA - 188 SALA 11 - CENTR            11010120                                                            000047
2SR. CAIXA, APOS O VENCIMENTO COBRAR 2% DE MULTA                                 NAO RECEBER APOS 30 DIAS DO VENCIMENTO.                                                                                                                                                                                                         01072200000000000000107220000000000000       0090339900006270173578072211000048
100000000000000000000009033990000627000000000000000000000000010002020010563007221100000000002            2  01105630072211072200000002757610000000001N010722000000000000000000000000000000000000000000000000000000000000000100010563033878VERA LUCIA RIBEIRO LONGANEZI            RUA DOS CAMARES - 150 AP.24 BL.02 - CARA            02068030                                                            000050
2SR. CAIXA, APOS O VENCIMENTO COBRAR 2% DE MULTA                                 NAO RECEBER APOS 30 DIAS DO VENCIMENTO.                                                                                                                                                                                                         01072200000000000000107220000000000000       0090339900006270105630072211000051
100000000000000000000009033990000627000000000000000000000000010002020005529607221600000000002            2  01055296072211072200000002502450000000001N010722000000000000000000000000000000000000000000000000000000000000000100005529616801JOAQUIM JORGE DA COSTA                  RUA JOSE CALIXTO DO CARMO - 286 AP.106 -            11702690                                                            000053
2SR. CAIXA, APOS O VENCIMENTO COBRAR 2% DE MULTA                                 NAO RECEBER APOS 30 DIAS DO VENCIMENTO.                                                                                                                                                                                                         01072200000000000000107220000000000000       0090339900006270055296072216000054
100000000000000000000009033990000627000000000000000000000000010002020015550707221200000000002            2  01155507072209072200000002366570000000001N010722000000000000000000000000000000000000000000000000000000000000000100015550706806MARY MIWA                               RUA CARLOS JOSE BORSTENS - 50 AP.105 - A            11702750                                                            000056
2SR. CAIXA, APOS O VENCIMENTO COBRAR 2% DE MULTA                                 NAO RECEBER APOS 30 DIAS DO VENCIMENTO.                                                                                                                                                                                                         01072200000000000000107220000000000000       0090339900006270155507072212000057
100000000000000000000009033990000627000000000000000000000000010002020015464607221200000000002            2  01154646072211072200000002630660000000001N010722000000000000000000000000000000000000000000000000000000000000000100015464647864SONIA TERESA VOLPATO                    RUA JOSE CALIXTO DO CARMO - 286 AP.73 -             11702690                                                            000059
2SR. CAIXA, APOS O VENCIMENTO COBRAR 2% DE MULTA                                 NAO RECEBER APOS 30 DIAS DO VENCIMENTO.                                                                                                                                                                                                         01072200000000000000107220000000000000       0090339900006270154646072212000060
100000000000000000000009033990000627000000000000000000000000010002020008657807221100000000002            2  01086578072211072200000002604240000000001N010722000000000000000000000000000000000000000000000000000000000000000100008657886855ARLINDO DA CRUZ                         AVENIDA ARICANDUVA - 8.256 AP.54 BL.10 -            03951220                                                            000062
2SR. CAIXA, APOS O VENCIMENTO COBRAR 2% DE MULTA                                 NAO RECEBER APOS 30 DIAS DO VENCIMENTO.                                                                                                                                                                                                         01072200000000000000107220000000000000       0090339900006270086578072211000063
100000000000000000000009033990000627000000000000000000000000010002020059735107221P00000000002            2  01597351072209072200000001472850000000001N010722000000000000000000000000000000000000000000000000000000000000000100059735180863HELIO JOSE MARQUES                      RUA MARTIM AFONSO DE SOUZA - 1007 AP.102            11702790                                                            000065
2SR. CAIXA, APOS O VENCIMENTO COBRAR 2% DE MULTA                                 NAO RECEBER APOS 30 DIAS DO VENCIMENTO.                                                                                                                                                                                                         01072200000000000000107220000000000000       009033990000627059735107221P000066
100000000000000000000009033990000627000000000000000000000000010002020026347807221300000000002            2  01263478072211072200000002783870000000001N010722000000000000000000000000000000000000000000000000000000000000000100026347872862VALDECI SILVA MEIRELES                  RUA JOSE BATISTA DA SILVA - 292 - JARDIM            06851470                                                            000068
2SR. CAIXA, APOS O VENCIMENTO COBRAR 2% DE MULTA                                 NAO RECEBER APOS 30 DIAS DO VENCIMENTO.                                                                                                                                                                                                         01072200000000000000107220000000000000       0090339900006270263478072213000069
100000000000000000000009033990000627000000000000000000000000010002020013135207221400000000002            2  01131352072211072200000002557670000000001N010722000000000000000000000000000000000000000000000000000000000000000100013135261859EDUARDO ZANOLA                          RUA ROLANDO PIETRO BONINI - 46 - JARDIM             09781040                                                            000071
2SR. CAIXA, APOS O VENCIMENTO COBRAR 2% DE MULTA                                 NAO RECEBER APOS 30 DIAS DO VENCIMENTO.                                                                                                                                                                                                         01072200000000000000107220000000000000       0090339900006270131352072214000072
100000000000000000000009033990000627000000000000000000000000010002020009797607221500000000002            2  01097976072211072200000002490900000000001N010722000000000000000000000000000000000000000000000000000000000000000100009797626857RICARDO SOBRAL DE OLIVEIRA              RUA 23 DE MAIO - 139 AP.32 - VILA MIRIM             11704690                                                            000074
2SR. CAIXA, APOS O VENCIMENTO COBRAR 2% DE MULTA                                 NAO RECEBER APOS 30 DIAS DO VENCIMENTO.                                                                                                                                                                                                         01072200000000000000107220000000000000       0090339900006270097976072215000075
100000000000000000000009033990000627000000000000000000000000010002020004767607221600000000002            2  01047676072209072200000004260390000000001N010722000000000000000000000000000000000000000000000000000000000000000100004767679893ORLANDO GRANDE FILHO                    RUA ORLANDO MIGLIARI - 101 - JARDIM OURO            19906140                                                            000077
2SR. CAIXA, APOS O VENCIMENTO COBRAR 2% DE MULTA                                 NAO RECEBER APOS 30 DIAS DO VENCIMENTO.                                                                                                                                                                                                         01072200000000000000107220000000000000       0090339900006270047676072216000078
100000000000000000000009033990000627000000000000000000000000010002020006512507221300000000002            2  01065125072211072200000002240670000000001N010722000000000000000000000000000000000000000000000000000000000000000100006512547870MARIA DO CARMO FAGUNDES DOS REIS        RUA CARLOS MALCHER - 98 - PARQUE EDU CHA            02232020                                                            000080
2SR. CAIXA, APOS O VENCIMENTO COBRAR 2% DE MULTA                                 NAO RECEBER APOS 30 DIAS DO VENCIMENTO.                                                                                                                                                                                                         01072200000000000000107220000000000000       0090339900006270065125072213000081
100000000000000000000009033990000627000000000000000000000000010002020022728407221600000000002            2  01227284072211072200000002695330000000001N010722000000000000000000000000000000000000000000000000000000000000000100022728497842WILLIAN DE SOUZA MELLO                  RUA JOSE CALIXTO DO CARMO - 286 AP.111 -            11702690                                                            000083
2SR. CAIXA, APOS O VENCIMENTO COBRAR 2% DE MULTA                                 NAO RECEBER APOS 30 DIAS DO VENCIMENTO.                                                                                                                                                                                                         01072200000000000000107220000000000000       0090339900006270227284072216000084
100000000000000000000009033990000627000000000000000000000000010002020016909707221000000000002            2  01169097072211072200000002381820000000001N010722000000000000000000000000000000000000000000000000000000000000000100016909746805EDIVALDO SANTANA DOS SANTOS             ESTRADA JOAO GASPAR DELGADO - 80 AP.213             08536100                                                            000086
2SR. CAIXA, APOS O VENCIMENTO COBRAR 2% DE MULTA                                 NAO RECEBER APOS 30 DIAS DO VENCIMENTO.                                                                                                                                                                                                         01072200000000000000107220000000000000       0090339900006270169097072210000087
100000000000000000000009033990000627000000000000000000000000010002020022036007221800000000002            2  01220360072209072200000003699580000000001N010722000000000000000000000000000000000000000000000000000000000000000100022036003818DERLIS TERAN QUIROGA ROGATO             RUA JOAO RIBEIRO - 320 AP.131SB - CAMPES            09070250                                                            000089
2SR. CAIXA, APOS O VENCIMENTO COBRAR 2% DE MULTA                                 NAO RECEBER APOS 30 DIAS DO VENCIMENTO.                                                                                                                                                                                                         01072200000000000000107220000000000000       0090339900006270220360072218000090
100000000000000000000009033990000627000000000000000000000000010002020017229707223200000000002            2  01172297072209072200000003570430000000001N010722000000000000000000000000000000000000000000000000000000000000000100017229751802BERENICE VIEIRA KERSTING                RUA ATIBAIA - 17 AP.417 - BAIRRO IMPERAD            11707380                                                            000092
2SR. CAIXA, APOS O VENCIMENTO COBRAR 2% DE MULTA                                 NAO RECEBER APOS 30 DIAS DO VENCIMENTO.                                                                                                                                                                                                         01072200000000000000107220000000000000       0090339900006270172297072232000093
100000000000000000000009033990000627000000000000000000000000010002020012475607221100000000002            2  01124756072211072200000002581780000000001N010722000000000000000000000000000000000000000000000000000000000000000100012475663820CELIDALVA GOES DE CARVALHO              RUA JOSE CALIXTO DO CARMO - 286 AP.91 -             11702690                                                            000095
2SR. CAIXA, APOS O VENCIMENTO COBRAR 2% DE MULTA                                 NAO RECEBER APOS 30 DIAS DO VENCIMENTO.                                                                                                                                                                                                         01072200000000000000107220000000000000       0090339900006270124756072211000096
100000000000000000000009033990000627000000000000000000000000010002020033451607221900000000002            2  01334516072211072200000002155950000000001N010722000000000000000000000000000000000000000000000000000000000000000100033451620839ARAO ELISIARIO  NUNES                   RUA JOSE CALIXTO DO CARMO - 286 AP.64 -             11702690                                                            000098
2SR. CAIXA, APOS O VENCIMENTO COBRAR 2% DE MULTA                                 NAO RECEBER APOS 30 DIAS DO VENCIMENTO.                                                                                                                                                                                                         01072200000000000000107220000000000000       0090339900006270334516072219000099
100000000000000000000009033990000627000000000000000000000000010002020045839207221600000000002            2  01458392072211072200000001673390000000001N010722000000000000000000000000000000000000000000000000000000000000000100045839263834LEONARDO ANTONIO CONCELLIERI            RUA JOSE CALIXTO DO CARMO - 286 AP.51 -             11702690                                                            000101
2SR. CAIXA, APOS O VENCIMENTO COBRAR 2% DE MULTA                                 NAO RECEBER APOS 30 DIAS DO VENCIMENTO.                                                                                                                                                                                                         01072200000000000000107220000000000000       0090339900006270458392072216000102
100000000000000000000009033990000627000000000000000000000000010002020011369107221700000000002            2  01113691072211072200000002355110000000001N010722000000000000000000000000000000000000000000000000000000000000000100011369165803ELIANA CORREA DE OLIVEIRA               RUA MAESTRO ZEFERINO SANTANA - 65 - VILA            18040010                                                            000104
2SR. CAIXA, APOS O VENCIMENTO COBRAR 2% DE MULTA                                 NAO RECEBER APOS 30 DIAS DO VENCIMENTO.                                                                                                                                                                                                         01072200000000000000107220000000000000       0090339900006270113691072217000105
100000000000000000000009033990000627000000000000000000000000010002020002253807221000000000002            2  01022538072211072200000002093240000000001N010722000000000000000000000000000000000000000000000000000000000000000100002253816809EDMILSON ALVES DA SILVA                 RUA JOSE CALIXTO DO CARMO - 286 AP.93 -             11702690                                                            000107
2SR. CAIXA, APOS O VENCIMENTO COBRAR 2% DE MULTA                                 NAO RECEBER APOS 30 DIAS DO VENCIMENTO.                                                                                                                                                                                                         01072200000000000000107220000000000000       0090339900006270022538072210000108
100000000000000000000009033990000627000000000000000000000000010002020037947007221200000000002            2  01379470072211072200000003717730000000001N010722000000000000000000000000000000000000000000000000000000000000000100037947070873BRUNO DE CAETANO MARRINHAS              AVENIDA GENERAL BARRETO DE MENEZES - 323            09791150                                                            000110
2SR. CAIXA, APOS O VENCIMENTO COBRAR 2% DE MULTA                                 NAO RECEBER APOS 30 DIAS DO VENCIMENTO.                                                                                                                                                                                                         01072200000000000000107220000000000000       0090339900006270379470072212000111
100000000000000000000009033990000627000000000000000000000000010002020037517707221000000000002            2  01375177072209072200000003923990000000001N010722000000000000000000000000000000000000000000000000000000000000000100037517785869RENATO JOSE DE LIMA MELO                RUA ARISTIDES LOBO - 148 AP.41 BLOCO 03             03041100                                                            000113
2SR. CAIXA, APOS O VENCIMENTO COBRAR 2% DE MULTA                                 NAO RECEBER APOS 30 DIAS DO VENCIMENTO.                                                                                                                                                                                                         01072200000000000000107220000000000000       0090339900006270375177072210000114
100000000000000000000009033990000627000000000000000000000000010002020070367907221100000000002            2  01703679072211072200000001965680000000001N010722000000000000000000000000000000000000000000000000000000000000000100070367949849TEODOMIRO ALVES DOS SANTOS              RUA ANDRE PAZ - 13 - JARDIM SANTO ANDRE             08390230                                                            000116
2SR. CAIXA, APOS O VENCIMENTO COBRAR 2% DE MULTA                                 NAO RECEBER APOS 30 DIAS DO VENCIMENTO.                                                                                                                                                                                                         01072200000000000000107220000000000000       0090339900006270703679072211000117
100000000000000000000009033990000627000000000000000000000000010002020004410807221000000000002            2  01044108072209072200000002915580000000001N010722000000000000000000000000000000000000000000000000000000000000000100004410802860LUIZ ALBERTO MARINHO                    RUA DA INDEPENDENCIA - 706 AP.41B - CAMB            01524000                                                            000119
2SR. CAIXA, APOS O VENCIMENTO COBRAR 2% DE MULTA                                 NAO RECEBER APOS 30 DIAS DO VENCIMENTO.                                                                                                                                                                                                         01072200000000000000107220000000000000       0090339900006270044108072210000120
100000000000000000000009033990000627000000000000000000000000010002020018035007221800000000002            2  01180350072211072200000002630850000000001N010722000000000000000000000000000000000000000000000000000000000000000100018035075861ROSANGELA BISPO SANTOS                  RUA CASSIANO GABUS MENDES - 292 - JD. CA            09896160                                                            000122
2SR. CAIXA, APOS O VENCIMENTO COBRAR 2% DE MULTA                                 NAO RECEBER APOS 30 DIAS DO VENCIMENTO.                                                                                                                                                                                                         01072200000000000000107220000000000000       0090339900006270180350072218000123
100000000000000000000009033990000627000000000000000000000000010002020004767607222400000000002            2  01047676072209072200000003892210000000001N010722000000000000000000000000000000000000000000000000000000000000000100004767679893ORLANDO GRANDE FILHO                    RUA ORLANDO MIGLIARI - 101 - JARDIM OURO            19906140                                                            000125
2SR. CAIXA, APOS O VENCIMENTO COBRAR 2% DE MULTA                                 NAO RECEBER APOS 30 DIAS DO VENCIMENTO.                                                                                                                                                                                                         01072200000000000000107220000000000000       0090339900006270047676072224000126
100000000000000000000009033990000627000000000000000000000000010002020064677807221100000000002            2  01646778072209072200000003130980000000001N010722000000000000000000000000000000000000000000000000000000000000000100064677850887ANTONIO CARLOS DE OLIVEIRA              RUA DR.ANTONIO MAZILLI FILHO - 435 - PAR            02230070                                                            000128
2SR. CAIXA, APOS O VENCIMENTO COBRAR 2% DE MULTA                                 NAO RECEBER APOS 30 DIAS DO VENCIMENTO.                                                                                                                                                                                                         01072200000000000000107220000000000000       0090339900006270646778072211000129
100000000000000000000009033990000627000000000000000000000000010002020007328907221700000000002            2  01073289072209072200000003819980000000001N010722000000000000000000000000000000000000000000000000000000000000000100007328927836BENEDITO APARECIDO ROCHA                AVENIDA SENADOR JOSE ERMINIO DE MORAES -            02357002                                                            000131
2SR. CAIXA, APOS O VENCIMENTO COBRAR 2% DE MULTA                                 NAO RECEBER APOS 30 DIAS DO VENCIMENTO.                                                                                                                                                                                                         01072200000000000000107220000000000000       0090339900006270073289072217000132
100000000000000000000009033990000627000000000000000000000000010002020058488607221400000000002            2  01584886072209072200000002855700000000001N010722000000000000000000000000000000000000000000000000000000000000000100058488618972ADAILTON ZANUTTO MORESCHI               R:RAPHAEL UNGARO - COND.RESERVA SERRA Q.            13212138                                                            000134
2SR. CAIXA, APOS O VENCIMENTO COBRAR 2% DE MULTA                                 NAO RECEBER APOS 30 DIAS DO VENCIMENTO.                                                                                                                                                                                                         01072200000000000000107220000000000000       0090339900006270584886072214000135
100000000000000000000009033990000627000000000000000000000000010002020002196007221900000000002            2  01021960072211072200000002146730000000001N010722000000000000000000000000000000000000000000000000000000000000000100002196012831VILEFORT DIAS BORGES                    RUA PORTO XAVIER - 189 AP.64 - VILA CARM            08210170                                                            000137
2SR. CAIXA, APOS O VENCIMENTO COBRAR 2% DE MULTA                                 NAO RECEBER APOS 30 DIAS DO VENCIMENTO.                                                                                                                                                                                                         01072200000000000000107220000000000000       0090339900006270021960072219000138
100000000000000000000009033990000627000000000000000000000000010002020031861507221700000000002            2  01318615072211072200000002231280000000001N010722000000000000000000000000000000000000000000000000000000000000000100031861586809VANIA TOMAZ                              -  -  -  -                                         00000000                                                            000140
2SR. CAIXA, APOS O VENCIMENTO COBRAR 2% DE MULTA                                 NAO RECEBER APOS 30 DIAS DO VENCIMENTO.                                                                                                                                                                                                         01072200000000000000107220000000000000       0090339900006270318615072217000141
100000000000000000000009033990000627000000000000000000000000010002020003104507221000000000002            2  01031045072209072200000008312830000000001N010722000000000000000000000000000000000000000000000000000000000000000100003104580804NELSON RODRIGUES                        RUA CARLOS JOSE BORSTENS - 50 AP.81 - AV            11702750                                                            000143
2SR. CAIXA, APOS O VENCIMENTO COBRAR 2% DE MULTA                                 NAO RECEBER APOS 30 DIAS DO VENCIMENTO.                                                                                                                                                                                                         01072200000000000000107220000000000000       0090339900006270031045072210000144
100000000000000000000009033990000627000000000000000000000000010002020007715307221900000000002            2  01077153072209072200000003512160000000001N010722000000000000000000000000000000000000000000000000000000000000000100007715360627NILTON RENNAN OLIVEIRA GOMES FILHO      RUA CARLOS JOSE BORSTENS - 50 AP.21 - AV            11702750                                                            000146
2SR. CAIXA, APOS O VENCIMENTO COBRAR 2% DE MULTA                                 NAO RECEBER APOS 30 DIAS DO VENCIMENTO.                                                                                                                                                                                                         01072200000000000000107220000000000000       0090339900006270077153072219000147
100000000000000000000009033990000627000000000000000000000000010002020007194007221P00000000002            2  01071940072211072200000002495130000000001N010722000000000000000000000000000000000000000000000000000000000000000100007194010895RAUL AMANTINO KIRK DE SANCTIS           AVENIDA SANTA CATARINA - 756 AP.01 - VIL            04378000                                                            000149
2SR. CAIXA, APOS O VENCIMENTO COBRAR 2% DE MULTA                                 NAO RECEBER APOS 30 DIAS DO VENCIMENTO.                                                                                                                                                                                                         01072200000000000000107220000000000000       009033990000627007194007221P000150
100000000000000000000009033990000627000000000000000000000000010002020025738607221700000000002            2  01257386072209072200000005044250000000001N010722000000000000000000000000000000000000000000000000000000000000000100025738614810VILMAR JOSE PEREIRA                     ALAMEDA TIETE - 646 - CERQUEIRA CESAR -             01417020                                                            000152
2SR. CAIXA, APOS O VENCIMENTO COBRAR 2% DE MULTA                                 NAO RECEBER APOS 30 DIAS DO VENCIMENTO.                                                                                                                                                                                                         01072200000000000000107220000000000000       0090339900006270257386072217000153
100000000000000000000009033990000627000000000000000000000000010002020025738607222500000000002            2  01257386072209072200000005044220000000001N010722000000000000000000000000000000000000000000000000000000000000000100025738614810VILMAR JOSE PEREIRA                     ALAMEDA TIETE - 646 - CERQUEIRA CESAR -             01417020                                                            000155
2SR. CAIXA, APOS O VENCIMENTO COBRAR 2% DE MULTA                                 NAO RECEBER APOS 30 DIAS DO VENCIMENTO.                                                                                                                                                                                                         01072200000000000000107220000000000000       0090339900006270257386072225000156
100000000000000000000009033990000627000000000000000000000000010002020025738607223300000000002            2  01257386072209072200000005044230000000001N010722000000000000000000000000000000000000000000000000000000000000000100025738614810VILMAR JOSE PEREIRA                     ALAMEDA TIETE - 646 - CERQUEIRA CESAR -             01417020                                                            000158
2SR. CAIXA, APOS O VENCIMENTO COBRAR 2% DE MULTA                                 NAO RECEBER APOS 30 DIAS DO VENCIMENTO.                                                                                                                                                                                                         01072200000000000000107220000000000000       0090339900006270257386072233000159
100000000000000000000009033990000627000000000000000000000000010002020025738607224100000000002            2  01257386072209072200000005044240000000001N010722000000000000000000000000000000000000000000000000000000000000000100025738614810VILMAR JOSE PEREIRA                     ALAMEDA TIETE - 646 - CERQUEIRA CESAR -             01417020                                                            000161
2SR. CAIXA, APOS O VENCIMENTO COBRAR 2% DE MULTA                                 NAO RECEBER APOS 30 DIAS DO VENCIMENTO.                                                                                                                                                                                                         01072200000000000000107220000000000000       0090339900006270257386072241000162
100000000000000000000009033990000627000000000000000000000000010002020011141507221900000000002            2  01111415072211072200000002621920000000001N010722000000000000000000000000000000000000000000000000000000000000000100011141508869PAULO ROBERTO TUNES SILVA               RUA PETROBRAS - 405 CASA 07 - VILA ANTON            03474060                                                            000164
2SR. CAIXA, APOS O VENCIMENTO COBRAR 2% DE MULTA                                 NAO RECEBER APOS 30 DIAS DO VENCIMENTO.                                                                                                                                                                                                         01072200000000000000107220000000000000       0090339900006270111415072219000165
100000000000000000000009033990000627000000000000000000000000010002020012449107221400000000002            2  01124491072211072200000002641930000000001N010722000000000000000000000000000000000000000000000000000000000000000100012449104810GILBERTO DOS SANTOS JUNIOR              RUA ALMIRANTE TAMANDARE - 89 AP.143 - BA            09310350                                                            000167
2SR. CAIXA, APOS O VENCIMENTO COBRAR 2% DE MULTA                                 NAO RECEBER APOS 30 DIAS DO VENCIMENTO.                                                                                                                                                                                                         01072200000000000000107220000000000000       0090339900006270124491072214000168
100000000000000000000009033990000627000000000000000000000000010002020011261307221200000000002            2  01112613072209072200000003487040000000001N010722000000000000000000000000000000000000000000000000000000000000000100011261359844JOVANETE DOS SANTOS PASSOS              RUA FULVIO MORGANTI - 672 - JARDIM PARAI            02417170                                                            000170
2SR. CAIXA, APOS O VENCIMENTO COBRAR 2% DE MULTA                                 NAO RECEBER APOS 30 DIAS DO VENCIMENTO.                                                                                                                                                                                                         01072200000000000000107220000000000000       0090339900006270112613072212000171
9                                                                                                                                                                                                                                                                                                                                                                                                         000172