01REMESSA01COBRANCA       00000000000008017025HB SANTOS CONSTRUTORA E INCORP237BRADESCO       011117        MX0000042                                                                                                                                                                                                                                                                                     000001
100000000000000000000009033990000627000000000000000000000000010002020029671511171200000000002            2  01296715111709111700000002169710000000001N011117000000000000000000000000000000000000000000000000000000000000000100029671526845ROGERIO CONSENTINO                      RUA CARLOS MAZER  - 678 - VILA CARMOSINA            08290700                                                            000002
2SR. CAIXA, APOS O VENCIMENTO COBRAR 2% DE MULTA                                 NAO RECEBER APOS 30 DIAS DO VENCIMENTO.                                                                                                                                                                                                         01111700000000000000111170000000000000       0090339900006270296715111712000003
100000000000000000000009033990000627000000000000000000000000010002020003863011171400000000002            2  01038630111709111700000002049460000000001N011117000000000000000000000000000000000000000000000000000000000000000100003863075803HERALDO MENQUINI                        RUA OCEANICA AMABILE - 346 AP.415 - CIDA            11704420                                                            000005
2SR. CAIXA, APOS O VENCIMENTO COBRAR 2% DE MULTA                                 NAO RECEBER APOS 30 DIAS DO VENCIMENTO.                                                                                                                                                                                                         01111700000000000000111170000000000000       0090339900006270038630111714000006
100000000000000000000009033990000627000000000000000000000000010002020013135211171600000000002            2  01131352111709111700000002506650000000001N011117000000000000000000000000000000000000000000000000000000000000000100013135261859EDUARDO ZANOLA                          RUA ROLANDO PIETRO BONINI - 46 - JARDIM             09781040                                                            000008
2SR. CAIXA, APOS O VENCIMENTO COBRAR 2% DE MULTA                                 NAO RECEBER APOS 30 DIAS DO VENCIMENTO.                                                                                                                                                                                                         01111700000000000000111170000000000000       0090339900006270131352111716000009
100000000000000000000009033990000627000000000000000000000000010002020029028411171100000000002            2  01290284111709111700000002099480000000001N011117000000000000000000000000000000000000000000000000000000000000000100029028478825LEONARDO LOUZADA                        RUA ILHEUS - QUADRA 31 - 244 - BAIRRO CE            19274000                                                            000011
2SR. CAIXA, APOS O VENCIMENTO COBRAR 2% DE MULTA                                 NAO RECEBER APOS 30 DIAS DO VENCIMENTO.                                                                                                                                                                                                         01111700000000000000111170000000000000       0090339900006270290284111711000012
100000000000000000000009033990000627000000000000000000000000010002020032878511171900000000002            2  01328785111709111700000003034170000000001N011117000000000000000000000000000000000000000000000000000000000000000100032878512847LEONARDO MOURA MONIZ CALDEIRA           RUA BALSA - 682 AP.134 T.02 - VILA ARCAD            02910000                                                            000014
2SR. CAIXA, APOS O VENCIMENTO COBRAR 2% DE MULTA                                 NAO RECEBER APOS 30 DIAS DO VENCIMENTO.                                                                                                                                                                                                         01111700000000000000111170000000000000       0090339900006270328785111719000015
100000000000000000000009033990000627000000000000000000000000010002020016479011171600000000002            2  01164790111709111700000003227790000000001N011117000000000000000000000000000000000000000000000000000000000000000100016479002806LOURDES PEREIRA DE QUEIROZ SECANECHIA   RUA PAULINO CURSI - 437 - CIDADE SAO MAT            03960060                                                            000017
2SR. CAIXA, APOS O VENCIMENTO COBRAR 2% DE MULTA                                 NAO RECEBER APOS 30 DIAS DO VENCIMENTO.                                                                                                                                                                                                         01111700000000000000111170000000000000       0090339900006270164790111716000018
100000000000000000000009033990000627000000000000000000000000010002020019635011171300000000002            2  01196350111709111700000002381540000000001N011117000000000000000000000000000000000000000000000000000000000000000100019635091885IVAN VIEIRA SILVA                       ABRAO JORGE - 3001 - JARDIM INTEGRACAO -            14405397                                                            000020
2SR. CAIXA, APOS O VENCIMENTO COBRAR 2% DE MULTA                                 NAO RECEBER APOS 30 DIAS DO VENCIMENTO.                                                                                                                                                                                                         01111700000000000000111170000000000000       0090339900006270196350111713000021
100000000000000000000009033990000627000000000000000000000000010002020009361411171300000000002            2  01093614111709111700000002343390000000001N011117000000000000000000000000000000000000000000000000000000000000000100009361471805JOSE BARBOSA DA SILVA                   RUA ALFREDO INACIO TRINDADE  - 60 AP.44             02344100                                                            000023
2SR. CAIXA, APOS O VENCIMENTO COBRAR 2% DE MULTA                                 NAO RECEBER APOS 30 DIAS DO VENCIMENTO.                                                                                                                                                                                                         01111700000000000000111170000000000000       0090339900006270093614111713000024
100000000000000000000009033990000627000000000000000000000000010002020012756911171700000000002            2  01127569111709111700000002022850000000001N011117000000000000000000000000000000000000000000000000000000000000000100012756959812ITAMAR JUVENAL DIAS DA SILVA            RUA ELISEU REINALDO MORAES VIEIRA - 90 A            02858000                                                            000026
2SR. CAIXA, APOS O VENCIMENTO COBRAR 2% DE MULTA                                 NAO RECEBER APOS 30 DIAS DO VENCIMENTO.                                                                                                                                                                                                         01111700000000000000111170000000000000       0090339900006270127569111717000027
100000000000000000000009033990000627000000000000000000000000010002020002731011171400000000002            2  01027310111709111700000002391550000000001N011117000000000000000000000000000000000000000000000000000000000000000100002731042842VALTER CERQUEIRA VILLA NOVA             RUA MACHADO - 106 - VILA AUGUSTA - GUARU            07025210                                                            000029
2SR. CAIXA, APOS O VENCIMENTO COBRAR 2% DE MULTA                                 NAO RECEBER APOS 30 DIAS DO VENCIMENTO.                                                                                                                                                                                                         01111700000000000000111170000000000000       0090339900006270027310111714000030
100000000000000000000009033990000627000000000000000000000000010002020002731011172200000000002            2  01027310111709111700000002391550000000001N011117000000000000000000000000000000000000000000000000000000000000000100002731042842VALTER CERQUEIRA VILLA NOVA             RUA MACHADO - 106 - VILA AUGUSTA - GUARU            07025210                                                            000032
2SR. CAIXA, APOS O VENCIMENTO COBRAR 2% DE MULTA                                 NAO RECEBER APOS 30 DIAS DO VENCIMENTO.                                                                                                                                                                                                         01111700000000000000111170000000000000       0090339900006270027310111722000033
100000000000000000000009033990000627000000000000000000000000010002020028802111171200000000002            2  01288021111709111700000002159540000000001N011117000000000000000000000000000000000000000000000000000000000000000100028802158894ELIEL HENRIQUE ZUZA                     RUA MONTE CASTELO - 262 AP.14 - BAIRRO A            11702720                                                            000035
2SR. CAIXA, APOS O VENCIMENTO COBRAR 2% DE MULTA                                 NAO RECEBER APOS 30 DIAS DO VENCIMENTO.                                                                                                                                                                                                         01111700000000000000111170000000000000       0090339900006270288021111712000036
100000000000000000000009033990000627000000000000000000000000010002020008739111171600000000002            2  01087391111709111700000002019710000000001N011117000000000000000000000000000000000000000000000000000000000000000100008739150895VANGEVALDO BATISTA SANT ANNA            TRAVESSA TOMAZIN - 02 - ERMELINO MATARAZ            03811125                                                            000038
2SR. CAIXA, APOS O VENCIMENTO COBRAR 2% DE MULTA                                 NAO RECEBER APOS 30 DIAS DO VENCIMENTO.                                                                                                                                                                                                         01111700000000000000111170000000000000       0090339900006270087391111716000039
100000000000000000000009033990000627000000000000000000000000010002020005313711171200000000002            2  01053137111711111700000001802930000000001N011117000000000000000000000000000000000000000000000000000000000000000100005313717863EDIMICIO JOSE DE ARAUJO                 PRACA NICOLAU GERAIGIRE - 680 CA A - JAR            11095110                                                            000041
2SR. CAIXA, APOS O VENCIMENTO COBRAR 2% DE MULTA                                 NAO RECEBER APOS 30 DIAS DO VENCIMENTO.                                                                                                                                                                                                         01111700000000000000111170000000000000       0090339900006270053137111712000042
100000000000000000000009033990000627000000000000000000000000010002020029433611171000000000002            2  01294336111711111700000001732000000000001N011117000000000000000000000000000000000000000000000000000000000000000100029433631897MARIO MUNIZ                             RUA LIBERO BADARO - 1115 - BAIRRO CIDADE            11704070                                                            000044
2SR. CAIXA, APOS O VENCIMENTO COBRAR 2% DE MULTA                                 NAO RECEBER APOS 30 DIAS DO VENCIMENTO.                                                                                                                                                                                                         01111700000000000000111170000000000000       0090339900006270294336111710000045
100000000000000000000009033990000627000000000000000000000000010002020001847211171900000000002            2  01018472111711111700000001594550000000001N011117000000000000000000000000000000000000000000000000000000000000000100001847204864AMERICA CONCEICAO DA SILVA              RUA CAMINHO DO GUARAMAR - 199 AP.11 BLOC            11721050                                                            000047
2SR. CAIXA, APOS O VENCIMENTO COBRAR 2% DE MULTA                                 NAO RECEBER APOS 30 DIAS DO VENCIMENTO.                                                                                                                                                                                                         01111700000000000000111170000000000000       0090339900006270018472111719000048
100000000000000000000009033990000627000000000000000000000000010002020005029811171300000000002            2  01050298111709111700000002062430000000001N011117000000000000000000000000000000000000000000000000000000000000000100005029828885LAURINETE DA CONCEICAO DE NORONHA       RUA MARIA LUCIA DE TOLEDO LEITE MORAES -            04434040                                                            000050
2SR. CAIXA, APOS O VENCIMENTO COBRAR 2% DE MULTA                                 NAO RECEBER APOS 30 DIAS DO VENCIMENTO.                                                                                                                                                                                                         01111700000000000000111170000000000000       0090339900006270050298111713000051
100000000000000000000009033990000627000000000000000000000000010002020027682111171200000000002            2  01276821111711111700000001680990000000001N011117000000000000000000000000000000000000000000000000000000000000000100027682175818ALINE TEIXEIRA                          RUA CRUZEIRO DO SUL - 309 - JARDIM BOM P            06385060                                                            000053
2SR. CAIXA, APOS O VENCIMENTO COBRAR 2% DE MULTA                                 NAO RECEBER APOS 30 DIAS DO VENCIMENTO.                                                                                                                                                                                                         01111700000000000000111170000000000000       0090339900006270276821111712000054
100000000000000000000009033990000627000000000000000000000000010002020013388911171500000000002            2  01133889111711111700000001688440000000001N011117000000000000000000000000000000000000000000000000000000000000000100013388936889NEUTON DE SOUZA RAMOS                   RUA MARIA CRISTINA - 932 - JARDIM CASQUE            11533160                                                            000056
2SR. CAIXA, APOS O VENCIMENTO COBRAR 2% DE MULTA                                 NAO RECEBER APOS 30 DIAS DO VENCIMENTO.                                                                                                                                                                                                         01111700000000000000111170000000000000       0090339900006270133889111715000057
100000000000000000000009033990000627000000000000000000000000010002020012774911171500000000002            2  01127749111711111700000001720120000000001N011117000000000000000000000000000000000000000000000000000000000000000100012774906865JOSE MILTON SANTIAGO                    RUA BATATAIS - 47 - CIDADE ESTELA - POA             08563140                                                            000059
2SR. CAIXA, APOS O VENCIMENTO COBRAR 2% DE MULTA                                 NAO RECEBER APOS 30 DIAS DO VENCIMENTO.                                                                                                                                                                                                         01111700000000000000111170000000000000       0090339900006270127749111715000060
100000000000000000000009033990000627000000000000000000000000010002020004234911171000000000002            2  01042349111709111700000003005480000000001N011117000000000000000000000000000000000000000000000000000000000000000100004234989835LUIZ ISRAEL DA COSTA                    AVENIDA FERNANDO PACHECO JORDAO - 907 -             08121510                                                            000062
2SR. CAIXA, APOS O VENCIMENTO COBRAR 2% DE MULTA                                 NAO RECEBER APOS 30 DIAS DO VENCIMENTO.                                                                                                                                                                                                         01111700000000000000111170000000000000       0090339900006270042349111710000063
100000000000000000000009033990000627000000000000000000000000010002020016294111171000000000002            2  01162941111709111700000002047640000000001N011117000000000000000000000000000000000000000000000000000000000000000100016294119812JURACY FELIX DE ARRUDA                  RUA ERNA - 13 - ALTO DA MOOCA - SAO PAUL            03165050                                                            000065
2SR. CAIXA, APOS O VENCIMENTO COBRAR 2% DE MULTA                                 NAO RECEBER APOS 30 DIAS DO VENCIMENTO.                                                                                                                                                                                                         01111700000000000000111170000000000000       0090339900006270162941111710000066
100000000000000000000009033990000627000000000000000000000000010002020005613811171500000000002            2  01056138111711111700000001582050000000001N011117000000000000000000000000000000000000000000000000000000000000000100005613843805NILZA MARIA DE OLIVEIRA                 RUA JOSE GONCALVES DE FREITAS - 66 C2 -             08210550                                                            000068
2SR. CAIXA, APOS O VENCIMENTO COBRAR 2% DE MULTA                                 NAO RECEBER APOS 30 DIAS DO VENCIMENTO.                                                                                                                                                                                                         01111700000000000000111170000000000000       0090339900006270056138111715000069
100000000000000000000009033990000627000000000000000000000000010002020007574911171500000000002            2  01075749111711111700000001623940000000001N011117000000000000000000000000000000000000000000000000000000000000000100007574936889JORGE LUCIANO PEREIRA BORRIELLO         RUA FABIO DE ALMEIDA MAGALHAES - 179 - J            05135370                                                            000071
2SR. CAIXA, APOS O VENCIMENTO COBRAR 2% DE MULTA                                 NAO RECEBER APOS 30 DIAS DO VENCIMENTO.                                                                                                                                                                                                         01111700000000000000111170000000000000       0090339900006270075749111715000072
100000000000000000000009033990000627000000000000000000000000010002020032408111171800000000002            2  01324081111711111700000001531020000000001N011117000000000000000000000000000000000000000000000000000000000000000100032408151848DEILSON DO NASCIMENTO CANDIDO DA SILVA  RUA HEREMITA SANTA DO NASCIMENTO - 37 AP            11345340                                                            000074
2SR. CAIXA, APOS O VENCIMENTO COBRAR 2% DE MULTA                                 NAO RECEBER APOS 30 DIAS DO VENCIMENTO.                                                                                                                                                                                                         01111700000000000000111170000000000000       0090339900006270324081111718000075
100000000000000000000009033990000627000000000000000000000000010002020008214911171800000000002            2  01082149111711111700000001648580000000001N011117000000000000000000000000000000000000000000000000000000000000000100008214973830JAMIL CHALA                             AVENIDA COSTA MACHADO - 291 AP.133-A - C            11700650                                                            000077
2SR. CAIXA, APOS O VENCIMENTO COBRAR 2% DE MULTA                                 NAO RECEBER APOS 30 DIAS DO VENCIMENTO.                                                                                                                                                                                                         01111700000000000000111170000000000000       0090339900006270082149111718000078
100000000000000000000009033990000627000000000000000000000000010002020032495011171500000000002            2  01324950111711111700000001847440000000001N011117000000000000000000000000000000000000000000000000000000000000000100032495004881PAULO EDUARDO DOS SANTOS                RUA MARECHAL JUAREZ TAVORA - 33 CASA 01             09913210                                                            000080
2SR. CAIXA, APOS O VENCIMENTO COBRAR 2% DE MULTA                                 NAO RECEBER APOS 30 DIAS DO VENCIMENTO.                                                                                                                                                                                                         01111700000000000000111170000000000000       0090339900006270324950111715000081
100000000000000000000009033990000627000000000000000000000000010002020006471811171500000000002            2  01064718111709111700000002015960000000001N011117000000000000000000000000000000000000000000000000000000000000000100006471825803JOSIVALDO BASTOS DE OLIVEIRA            RUA MARIA DIAS HOG - 263 - PARQUE CONTIN            07085035                                                            000083
2SR. CAIXA, APOS O VENCIMENTO COBRAR 2% DE MULTA                                 NAO RECEBER APOS 30 DIAS DO VENCIMENTO.                                                                                                                                                                                                         01111700000000000000111170000000000000       0090339900006270064718111715000084
100000000000000000000009033990000627000000000000000000000000010002020038856811171100000000002            2  01388568111711111700000001712620000000001N011117000000000000000000000000000000000000000000000000000000000000000100038856851830FELIPE BIANCHI DA COSTA FREITAS         AVENIDA ENGENHEIRO ARMANDO DE ARRUDA PER            04325001                                                            000086
2SR. CAIXA, APOS O VENCIMENTO COBRAR 2% DE MULTA                                 NAO RECEBER APOS 30 DIAS DO VENCIMENTO.                                                                                                                                                                                                         01111700000000000000111170000000000000       0090339900006270388568111711000087
100000000000000000000009033990000627000000000000000000000000010002020030098611171500000000002            2  01300986111711111700000001739480000000001N011117000000000000000000000000000000000000000000000000000000000000000100030098603825DEUZIANA MOREIRA DE SA                  RUA JOAO AVELINO PINHO MELLAO - 114 - JA            05659010                                                            000089
2SR. CAIXA, APOS O VENCIMENTO COBRAR 2% DE MULTA                                 NAO RECEBER APOS 30 DIAS DO VENCIMENTO.                                                                                                                                                                                                         01111700000000000000111170000000000000       0090339900006270300986111715000090
100000000000000000000009033990000627000000000000000000000000010002020030098611172300000000002            2  01300986111711111700000001739480000000001N011117000000000000000000000000000000000000000000000000000000000000000100030098603825DEUZIANA MOREIRA DE SA                  RUA JOAO AVELINO PINHO MELLAO - 114 - JA            05659010                                                            000092
2SR. CAIXA, APOS O VENCIMENTO COBRAR 2% DE MULTA                                 NAO RECEBER APOS 30 DIAS DO VENCIMENTO.                                                                                                                                                                                                         01111700000000000000111170000000000000       0090339900006270300986111723000093
100000000000000000000009033990000627000000000000000000000000010002020029339011171100000000002            2  01293390111711111700000001732580000000001N011117000000000000000000000000000000000000000000000000000000000000000100029339051831RONALD DIDOFF                           RUA CORONEL FERREIRA BRAGA - 188 - VILA             03522010                                                            000095
2SR. CAIXA, APOS O VENCIMENTO COBRAR 2% DE MULTA                                 NAO RECEBER APOS 30 DIAS DO VENCIMENTO.                                                                                                                                                                                                         01111700000000000000111170000000000000       0090339900006270293390111711000096
100000000000000000000009033990000627000000000000000000000000010002020017357811171300000000002            2  01173578111711111700000001834960000000001N011117000000000000000000000000000000000000000000000000000000000000000100017357859894MARCIO GUIMARAES                        RUA GENERAL CAMARA - 188 SALA 11 - CENTR            11010120                                                            000098
2SR. CAIXA, APOS O VENCIMENTO COBRAR 2% DE MULTA                                 NAO RECEBER APOS 30 DIAS DO VENCIMENTO.                                                                                                                                                                                                         01111700000000000000111170000000000000       0090339900006270173578111713000099
100000000000000000000009033990000627000000000000000000000000010002020010563011171300000000002            2  01105630111711111700000001881860000000001N011117000000000000000000000000000000000000000000000000000000000000000100010563033878VERA LUCIA RIBEIRO LONGANEZI            RUA DOS CAMARES - 150 AP.24 BL.02 - CARA            02068030                                                            000101
2SR. CAIXA, APOS O VENCIMENTO COBRAR 2% DE MULTA                                 NAO RECEBER APOS 30 DIAS DO VENCIMENTO.                                                                                                                                                                                                         01111700000000000000111170000000000000       0090339900006270105630111713000102
9                                                                                                                                                                                                                                                                                                                                                                                                         000103