01REMESSA01COBRANCA       00000000000008017025HB SANTOS CONSTRUTORA E INCORP237BRADESCO       011019        MX0000088                                                                                                                                                                                                                                                                                     000001
100000000000000000000009033990000627000000000000000000000000010002020029671510191100000000002            2  01296715101909101900000002551060000000001N011019000000000000000000000000000000000000000000000000000000000000000100029671526845ROGERIO CONSENTINO                      RUA CARLOS MAZER  - 678 - VILA CARMOSINA            08290700                                                            000002
2SR. CAIXA, APOS O VENCIMENTO COBRAR 2% DE MULTA                                 NAO RECEBER APOS 30 DIAS DO VENCIMENTO.                                                                                                                                                                                                         01101900000000000000110190000000000000       0090339900006270296715101911000003
100000000000000000000009033990000627000000000000000000000000010002020003863010191300000000002            2  01038630101909101900000002409690000000001N011019000000000000000000000000000000000000000000000000000000000000000100003863075803HERALDO MENQUINI                        RUA CARLOS JOSE BORSTENS - 50 AP.15 - AV            11702750                                                            000005
2SR. CAIXA, APOS O VENCIMENTO COBRAR 2% DE MULTA                                 NAO RECEBER APOS 30 DIAS DO VENCIMENTO.                                                                                                                                                                                                         01101900000000000000110190000000000000       0090339900006270038630101913000006
100000000000000000000009033990000627000000000000000000000000010002020029028410191000000000002            2  01290284101909101900000002468490000000001N011019000000000000000000000000000000000000000000000000000000000000000100029028478825LEONARDO LOUZADA                        RUA CARLOS JOSE BORSTENS - 50 AP.35 - AV            11702750                                                            000008
2SR. CAIXA, APOS O VENCIMENTO COBRAR 2% DE MULTA                                 NAO RECEBER APOS 30 DIAS DO VENCIMENTO.                                                                                                                                                                                                         01101900000000000000110190000000000000       0090339900006270290284101910000009
100000000000000000000009033990000627000000000000000000000000010002020032878510191800000000002            2  01328785101909101900000003567450000000001N011019000000000000000000000000000000000000000000000000000000000000000100032878512847LEONARDO MOURA MONIZ CALDEIRA           RUA BALSA - 682 AP.134 T.02 - VILA ARCAD            02910000                                                            000011
2SR. CAIXA, APOS O VENCIMENTO COBRAR 2% DE MULTA                                 NAO RECEBER APOS 30 DIAS DO VENCIMENTO.                                                                                                                                                                                                         01101900000000000000110190000000000000       0090339900006270328785101918000012
100000000000000000000009033990000627000000000000000000000000010002020016479010191500000000002            2  01164790101909101900000003795130000000001N011019000000000000000000000000000000000000000000000000000000000000000100016479002806LOURDES PEREIRA DE QUEIROZ SECANECHIA   RUA PAULINO CURSI - 437 - CIDADE SAO MAT            03960060                                                            000014
2SR. CAIXA, APOS O VENCIMENTO COBRAR 2% DE MULTA                                 NAO RECEBER APOS 30 DIAS DO VENCIMENTO.                                                                                                                                                                                                         01101900000000000000110190000000000000       0090339900006270164790101915000015
100000000000000000000009033990000627000000000000000000000000010002020019635010191200000000002            2  01196350101909101900000002800140000000001N011019000000000000000000000000000000000000000000000000000000000000000100019635091885IVAN VIEIRA SILVA                       ABRAO JORGE - 3001 - JARDIM INTEGRACAO -            14405397                                                            000017
2SR. CAIXA, APOS O VENCIMENTO COBRAR 2% DE MULTA                                 NAO RECEBER APOS 30 DIAS DO VENCIMENTO.                                                                                                                                                                                                         01101900000000000000110190000000000000       0090339900006270196350101912000018
100000000000000000000009033990000627000000000000000000000000010002020009361410191200000000002            2  01093614101909101900000002755280000000001N011019000000000000000000000000000000000000000000000000000000000000000100009361471805JOSE BARBOSA DA SILVA                   RUA ALFREDO INACIO TRINDADE  - 60 AP.44             02344100                                                            000020
2SR. CAIXA, APOS O VENCIMENTO COBRAR 2% DE MULTA                                 NAO RECEBER APOS 30 DIAS DO VENCIMENTO.                                                                                                                                                                                                         01101900000000000000110190000000000000       0090339900006270093614101912000021
100000000000000000000009033990000627000000000000000000000000010002020012756910191600000000002            2  01127569101909101900000002378400000000001N011019000000000000000000000000000000000000000000000000000000000000000100012756959812ITAMAR JUVENAL DIAS DA SILVA            RUA ELISEU REINALDO MORAES VIEIRA - 90 A            02858000                                                            000023
2SR. CAIXA, APOS O VENCIMENTO COBRAR 2% DE MULTA                                 NAO RECEBER APOS 30 DIAS DO VENCIMENTO.                                                                                                                                                                                                         01101900000000000000110190000000000000       0090339900006270127569101916000024
100000000000000000000009033990000627000000000000000000000000010002020002731010191300000000002            2  01027310101909101900000002811910000000001N011019000000000000000000000000000000000000000000000000000000000000000100002731042842VALTER CERQUEIRA VILLA NOVA             RUA MACHADO - 106 - VILA AUGUSTA - GUARU            07025210                                                            000026
2SR. CAIXA, APOS O VENCIMENTO COBRAR 2% DE MULTA                                 NAO RECEBER APOS 30 DIAS DO VENCIMENTO.                                                                                                                                                                                                         01101900000000000000110190000000000000       0090339900006270027310101913000027
100000000000000000000009033990000627000000000000000000000000010002020002731010192100000000002            2  01027310101909101900000002811900000000001N011019000000000000000000000000000000000000000000000000000000000000000100002731042842VALTER CERQUEIRA VILLA NOVA             RUA MACHADO - 106 - VILA AUGUSTA - GUARU            07025210                                                            000029
2SR. CAIXA, APOS O VENCIMENTO COBRAR 2% DE MULTA                                 NAO RECEBER APOS 30 DIAS DO VENCIMENTO.                                                                                                                                                                                                         01101900000000000000110190000000000000       0090339900006270027310101921000030
100000000000000000000009033990000627000000000000000000000000010002020028802110191100000000002            2  01288021101909101900000002539090000000001N011019000000000000000000000000000000000000000000000000000000000000000100028802158894ELIEL HENRIQUE ZUZA                     RUA CARLOS JOSE BORSTENS - 50 AP.43 - BA            11702750                                                            000032
2SR. CAIXA, APOS O VENCIMENTO COBRAR 2% DE MULTA                                 NAO RECEBER APOS 30 DIAS DO VENCIMENTO.                                                                                                                                                                                                         01101900000000000000110190000000000000       0090339900006270288021101911000033
100000000000000000000009033990000627000000000000000000000000010002020008739110191500000000002            2  01087391101909101900000002374710000000001N011019000000000000000000000000000000000000000000000000000000000000000100008739150895VANGEVALDO BATISTA SANT ANNA            TRAVESSA TOMAZIN - 02 - ERMELINO MATARAZ            03811125                                                            000035
2SR. CAIXA, APOS O VENCIMENTO COBRAR 2% DE MULTA                                 NAO RECEBER APOS 30 DIAS DO VENCIMENTO.                                                                                                                                                                                                         01101900000000000000110190000000000000       0090339900006270087391101915000036
100000000000000000000009033990000627000000000000000000000000010002020005313710191100000000002            2  01053137101911101900000002052450000000001N011019000000000000000000000000000000000000000000000000000000000000000100005313717863EDIMICIO JOSE DE ARAUJO                 PRACA NICOLAU GERAIGIRE - 680 CA A - JAR            11095110                                                            000038
2SR. CAIXA, APOS O VENCIMENTO COBRAR 2% DE MULTA                                 NAO RECEBER APOS 30 DIAS DO VENCIMENTO.                                                                                                                                                                                                         01101900000000000000110190000000000000       0090339900006270053137101911000039
100000000000000000000009033990000627000000000000000000000000010002020029433610191P00000000002            2  01294336101911101900000001971700000000001N011019000000000000000000000000000000000000000000000000000000000000000100029433631897MARIO MUNIZ                             RUA JOSE CALIXTO DO CARMO - 286 AP.53 -             11702690                                                            000041
2SR. CAIXA, APOS O VENCIMENTO COBRAR 2% DE MULTA                                 NAO RECEBER APOS 30 DIAS DO VENCIMENTO.                                                                                                                                                                                                         01101900000000000000110190000000000000       009033990000627029433610191P000042
100000000000000000000009033990000627000000000000000000000000010002020001847210191800000000002            2  01018472101911101900000001815190000000001N011019000000000000000000000000000000000000000000000000000000000000000100001847204864AMERICA CONCEICAO DA SILVA              RUA JOSE CALIXTO DO CARMO - 286 AP.44 -             11702690                                                            000044
2SR. CAIXA, APOS O VENCIMENTO COBRAR 2% DE MULTA                                 NAO RECEBER APOS 30 DIAS DO VENCIMENTO.                                                                                                                                                                                                         01101900000000000000110190000000000000       0090339900006270018472101918000045
100000000000000000000009033990000627000000000000000000000000010002020005029810191200000000002            2  01050298101909101900000002424930000000001N011019000000000000000000000000000000000000000000000000000000000000000100005029828885LAURINETE DA CONCEICAO DE NORONHA       RUA MARIA LUCIA DE TOLEDO LEITE MORAES -            04434040                                                            000047
2SR. CAIXA, APOS O VENCIMENTO COBRAR 2% DE MULTA                                 NAO RECEBER APOS 30 DIAS DO VENCIMENTO.                                                                                                                                                                                                         01101900000000000000110190000000000000       0090339900006270050298101912000048
100000000000000000000009033990000627000000000000000000000000010002020013388910191400000000002            2  01133889101911101900000001922110000000001N011019000000000000000000000000000000000000000000000000000000000000000100013388936889NEUTON DE SOUZA RAMOS                   RUA MARIA CRISTINA - 932 - JARDIM CASQUE            11533160                                                            000050
2SR. CAIXA, APOS O VENCIMENTO COBRAR 2% DE MULTA                                 NAO RECEBER APOS 30 DIAS DO VENCIMENTO.                                                                                                                                                                                                         01101900000000000000110190000000000000       0090339900006270133889101914000051
100000000000000000000009033990000627000000000000000000000000010002020012774910191400000000002            2  01127749101911101900000001958190000000001N011019000000000000000000000000000000000000000000000000000000000000000100012774906865JOSE MILTON SANTIAGO                    RUA BATATAIS - 47 - CIDADE ESTELA - POA             08563140                                                            000053
2SR. CAIXA, APOS O VENCIMENTO COBRAR 2% DE MULTA                                 NAO RECEBER APOS 30 DIAS DO VENCIMENTO.                                                                                                                                                                                                         01101900000000000000110190000000000000       0090339900006270127749101914000054
100000000000000000000009033990000627000000000000000000000000010002020016294110191P00000000002            2  01162941101909101900000002407530000000001N011019000000000000000000000000000000000000000000000000000000000000000100016294119812JURACY FELIX DE ARRUDA                  RUA CARLOS JOSE BORSTENS - 50 AP.23 - AV            11702750                                                            000056
2SR. CAIXA, APOS O VENCIMENTO COBRAR 2% DE MULTA                                 NAO RECEBER APOS 30 DIAS DO VENCIMENTO.                                                                                                                                                                                                         01101900000000000000110190000000000000       009033990000627016294110191P000057
100000000000000000000009033990000627000000000000000000000000010002020005613810191400000000002            2  01056138101911101900000001801000000000001N011019000000000000000000000000000000000000000000000000000000000000000100005613843805NILZA MARIA DE OLIVEIRA                 RUA JOSE GONCALVES DE FREITAS - 66 C2 -             08210550                                                            000059
2SR. CAIXA, APOS O VENCIMENTO COBRAR 2% DE MULTA                                 NAO RECEBER APOS 30 DIAS DO VENCIMENTO.                                                                                                                                                                                                         01101900000000000000110190000000000000       0090339900006270056138101914000060
100000000000000000000009033990000627000000000000000000000000010002020007574910191400000000002            2  01075749101911101900000001848680000000001N011019000000000000000000000000000000000000000000000000000000000000000100007574936889JORGE LUCIANO PEREIRA BORRIELLO         RUA FABIO DE ALMEIDA MAGALHAES - 179 - J            05135370                                                            000062
2SR. CAIXA, APOS O VENCIMENTO COBRAR 2% DE MULTA                                 NAO RECEBER APOS 30 DIAS DO VENCIMENTO.                                                                                                                                                                                                         01101900000000000000110190000000000000       0090339900006270075749101914000063
100000000000000000000009033990000627000000000000000000000000010002020032408110191700000000002            2  01324081101911101900000002127480000000001N011019000000000000000000000000000000000000000000000000000000000000000100032408151848DEILSON DO NASCIMENTO CANDIDO DA SILVA  RUA JOSE CALIXTO DO CARMO - 286 AP.62 -             11702690                                                            000065
2SR. CAIXA, APOS O VENCIMENTO COBRAR 2% DE MULTA                                 NAO RECEBER APOS 30 DIAS DO VENCIMENTO.                                                                                                                                                                                                         01101900000000000000110190000000000000       0090339900006270324081101917000066
100000000000000000000009033990000627000000000000000000000000010002020008214910191700000000002            2  01082149101911101900000001876740000000001N011019000000000000000000000000000000000000000000000000000000000000000100008214973830JAMIL CHALA                             RUA JOSE CALIXTO DO CARMO - 286 AP.22 -             11702690                                                            000068
2SR. CAIXA, APOS O VENCIMENTO COBRAR 2% DE MULTA                                 NAO RECEBER APOS 30 DIAS DO VENCIMENTO.                                                                                                                                                                                                         01101900000000000000110190000000000000       0090339900006270082149101917000069
100000000000000000000009033990000627000000000000000000000000010002020032495010191400000000002            2  01324950101911101900000002103130000000001N011019000000000000000000000000000000000000000000000000000000000000000100032495004881PAULO EDUARDO DOS SANTOS                RUA REPUBLICA DO IRAQUE - 1119 - CAMPO B            04611002                                                            000071
2SR. CAIXA, APOS O VENCIMENTO COBRAR 2% DE MULTA                                 NAO RECEBER APOS 30 DIAS DO VENCIMENTO.                                                                                                                                                                                                         01101900000000000000110190000000000000       0090339900006270324950101914000072
100000000000000000000009033990000627000000000000000000000000010002020006471810191400000000002            2  01064718101909101900000002370270000000001N011019000000000000000000000000000000000000000000000000000000000000000100006471825803JOSIVALDO BASTOS DE OLIVEIRA            RUA MARIA DIAS HOG - 263 - PARQUE CONTIN            07085035                                                            000074
2SR. CAIXA, APOS O VENCIMENTO COBRAR 2% DE MULTA                                 NAO RECEBER APOS 30 DIAS DO VENCIMENTO.                                                                                                                                                                                                         01101900000000000000110190000000000000       0090339900006270064718101914000075
100000000000000000000009033990000627000000000000000000000000010002020038856810191000000000002            2  01388568101911101900000001949650000000001N011019000000000000000000000000000000000000000000000000000000000000000100038856851830FELIPE BIANCHI DA COSTA FREITAS         RUA JOSE CALIXTO DO CARMO - 286 AP.23 -             11702690                                                            000077
2SR. CAIXA, APOS O VENCIMENTO COBRAR 2% DE MULTA                                 NAO RECEBER APOS 30 DIAS DO VENCIMENTO.                                                                                                                                                                                                         01101900000000000000110190000000000000       0090339900006270388568101910000078
100000000000000000000009033990000627000000000000000000000000010002020016498010191100000000002            2  01164980101911101900000001844490000000001N011019000000000000000000000000000000000000000000000000000000000000000100016498053810GILMA CEZARIO GARCIA CORRITORI          RUA LAURENTINO XAVIER DOS SANTOS - 336 -            08240740                                                            000080
2SR. CAIXA, APOS O VENCIMENTO COBRAR 2% DE MULTA                                 NAO RECEBER APOS 30 DIAS DO VENCIMENTO.                                                                                                                                                                                                         01101900000000000000110190000000000000       0090339900006270164980101911000081
100000000000000000000009033990000627000000000000000000000000010002020029339010191000000000002            2  01293390101911101900000001972360000000001N011019000000000000000000000000000000000000000000000000000000000000000100029339051831RONALD DIDOFF                           RUA CORONEL FERREIRA BRAGA - 188 - VILA             03522010                                                            000083
2SR. CAIXA, APOS O VENCIMENTO COBRAR 2% DE MULTA                                 NAO RECEBER APOS 30 DIAS DO VENCIMENTO.                                                                                                                                                                                                         01101900000000000000110190000000000000       0090339900006270293390101910000084
100000000000000000000009033990000627000000000000000000000000010002020017357810191200000000002            2  01173578101911101900000002088910000000001N011019000000000000000000000000000000000000000000000000000000000000000100017357859894MARCIO GUIMARAES                        RUA GENERAL CAMARA - 188 SALA 11 - CENTR            11010120                                                            000086
2SR. CAIXA, APOS O VENCIMENTO COBRAR 2% DE MULTA                                 NAO RECEBER APOS 30 DIAS DO VENCIMENTO.                                                                                                                                                                                                         01101900000000000000110190000000000000       0090339900006270173578101912000087
100000000000000000000009033990000627000000000000000000000000010002020010563010191200000000002            2  01105630101911101900000002142300000000001N011019000000000000000000000000000000000000000000000000000000000000000100010563033878VERA LUCIA RIBEIRO LONGANEZI            RUA DOS CAMARES - 150 AP.24 BL.02 - CARA            02068030                                                            000089
2SR. CAIXA, APOS O VENCIMENTO COBRAR 2% DE MULTA                                 NAO RECEBER APOS 30 DIAS DO VENCIMENTO.                                                                                                                                                                                                         01101900000000000000110190000000000000       0090339900006270105630101912000090
100000000000000000000009033990000627000000000000000000000000010002020005529610191700000000002            2  01055296101911101900000001944060000000001N011019000000000000000000000000000000000000000000000000000000000000000100005529616801JOAQUIM JORGE DA COSTA                  RUA JOSE CALIXTO DO CARMO - 286 AP.106 -            11702690                                                            000092
2SR. CAIXA, APOS O VENCIMENTO COBRAR 2% DE MULTA                                 NAO RECEBER APOS 30 DIAS DO VENCIMENTO.                                                                                                                                                                                                         01101900000000000000110190000000000000       0090339900006270055296101917000093
100000000000000000000009033990000627000000000000000000000000010002020022014110191100000000002            2  01220141101911101900000001938390000000001N011019000000000000000000000000000000000000000000000000000000000000000100022014140847CAMILA SILVEIRA CANIZARES               AVENIDA PRESIDENTE CASTELO BRANCO - 5.74            11703650                                                            000095
2SR. CAIXA, APOS O VENCIMENTO COBRAR 2% DE MULTA                                 NAO RECEBER APOS 30 DIAS DO VENCIMENTO.                                                                                                                                                                                                         01101900000000000000110190000000000000       0090339900006270220141101911000096
100000000000000000000009033990000627000000000000000000000000010002020015550710191300000000002            2  01155507101909101900000001838080000000001N011019000000000000000000000000000000000000000000000000000000000000000100015550706806MARY MIWA                               RUA CARLOS JOSE BORSTENS - 50 AP.105 - A            11702750                                                            000098
2SR. CAIXA, APOS O VENCIMENTO COBRAR 2% DE MULTA                                 NAO RECEBER APOS 30 DIAS DO VENCIMENTO.                                                                                                                                                                                                         01101900000000000000110190000000000000       0090339900006270155507101913000099
100000000000000000000009033990000627000000000000000000000000010002020015464610191300000000002            2  01154646101911101900000002043670000000001N011019000000000000000000000000000000000000000000000000000000000000000100015464647864SONIA TERESA VOLPATO                    RUA JOSE CALIXTO DO CARMO - 286 AP.73 -             11702690                                                            000101
2SR. CAIXA, APOS O VENCIMENTO COBRAR 2% DE MULTA                                 NAO RECEBER APOS 30 DIAS DO VENCIMENTO.                                                                                                                                                                                                         01101900000000000000110190000000000000       0090339900006270154646101913000102
100000000000000000000009033990000627000000000000000000000000010002020008657810191200000000002            2  01086578101911101900000002023160000000001N011019000000000000000000000000000000000000000000000000000000000000000100008657886855ARLINDO DA CRUZ                         AVENIDA ARICANDUVA - 8.256 AP.54 BL.10 -            03951220                                                            000104
2SR. CAIXA, APOS O VENCIMENTO COBRAR 2% DE MULTA                                 NAO RECEBER APOS 30 DIAS DO VENCIMENTO.                                                                                                                                                                                                         01101900000000000000110190000000000000       0090339900006270086578101912000105
100000000000000000000009033990000627000000000000000000000000010002020004265710191200000000002            2  01042657101909101900000002708370000000001N011019000000000000000000000000000000000000000000000000000000000000000100004265781713ALEXANDRE CASADO COSTA                  RUA CARLOS JOSE BORSTENS - 50 AP.33 - AV            11702750                                                            000107
2SR. CAIXA, APOS O VENCIMENTO COBRAR 2% DE MULTA                                 NAO RECEBER APOS 30 DIAS DO VENCIMENTO.                                                                                                                                                                                                         01101900000000000000110190000000000000       0090339900006270042657101912000108
100000000000000000000009033990000627000000000000000000000000010002020059735110191000000000002            2  01597351101909101900000001143960000000001N011019000000000000000000000000000000000000000000000000000000000000000100059735180863HELIO JOSE MARQUES                      RUA MARTIM AFONSO DE SOUZA - 1007 AP.102            11702790                                                            000110
2SR. CAIXA, APOS O VENCIMENTO COBRAR 2% DE MULTA                                 NAO RECEBER APOS 30 DIAS DO VENCIMENTO.                                                                                                                                                                                                         01101900000000000000110190000000000000       0090339900006270597351101910000111
100000000000000000000009033990000627000000000000000000000000010002020026347810191400000000002            2  01263478101911101900000002162710000000001N011019000000000000000000000000000000000000000000000000000000000000000100026347872862VALDECI SILVA MEIRELES                  RUA JOSE BATISTA DA SILVA - 292 - JARDIM            06851470                                                            000113
2SR. CAIXA, APOS O VENCIMENTO COBRAR 2% DE MULTA                                 NAO RECEBER APOS 30 DIAS DO VENCIMENTO.                                                                                                                                                                                                         01101900000000000000110190000000000000       0090339900006270263478101914000114
100000000000000000000009033990000627000000000000000000000000010002020025443610191500000000002            2  01254436101909101900000003917820000000001N011019000000000000000000000000000000000000000000000000000000000000000100025443691830SILVANETE PEREIRA CARNELOS              RUA CARLOS JOSE BORSTENS - 50 AP.102 - A            11702750                                                            000116
2SR. CAIXA, APOS O VENCIMENTO COBRAR 2% DE MULTA                                 NAO RECEBER APOS 30 DIAS DO VENCIMENTO.                                                                                                                                                                                                         01101900000000000000110190000000000000       0090339900006270254436101915000117
100000000000000000000009033990000627000000000000000000000000010002020013135210191500000000002            2  01131352101911101900000001986990000000001N011019000000000000000000000000000000000000000000000000000000000000000100013135261859EDUARDO ZANOLA                          RUA ROLANDO PIETRO BONINI - 46 - JARDIM             09781040                                                            000119
2SR. CAIXA, APOS O VENCIMENTO COBRAR 2% DE MULTA                                 NAO RECEBER APOS 30 DIAS DO VENCIMENTO.                                                                                                                                                                                                         01101900000000000000110190000000000000       0090339900006270131352101915000120
100000000000000000000009033990000627000000000000000000000000010002020009797610191600000000002            2  01097976101911101900000001935130000000001N011019000000000000000000000000000000000000000000000000000000000000000100009797626857RICARDO SOBRAL DE OLIVEIRA              RUA 23 DE MAIO - 139 AP.32 - VILA MIRIM             11704690                                                            000122
2SR. CAIXA, APOS O VENCIMENTO COBRAR 2% DE MULTA                                 NAO RECEBER APOS 30 DIAS DO VENCIMENTO.                                                                                                                                                                                                         01101900000000000000110190000000000000       0090339900006270097976101916000123
100000000000000000000009033990000627000000000000000000000000010002020004767610191700000000002            2  01047676101909101900000003309010000000001N011019000000000000000000000000000000000000000000000000000000000000000100004767679893ORLANDO GRANDE FILHO                    RUA ORLANDO MIGLIARI - 101 - JARDIM OURO            19906140                                                            000125
2SR. CAIXA, APOS O VENCIMENTO COBRAR 2% DE MULTA                                 NAO RECEBER APOS 30 DIAS DO VENCIMENTO.                                                                                                                                                                                                         01101900000000000000110190000000000000       0090339900006270047676101917000126
100000000000000000000009033990000627000000000000000000000000010002020006512510191400000000002            2  01065125101911101900000001740730000000001N011019000000000000000000000000000000000000000000000000000000000000000100006512547870MARIA DO CARMO FAGUNDES DOS REIS        RUA CARLOS MALCHER - 98 - PARQUE EDU CHA            02232020                                                            000128
2SR. CAIXA, APOS O VENCIMENTO COBRAR 2% DE MULTA                                 NAO RECEBER APOS 30 DIAS DO VENCIMENTO.                                                                                                                                                                                                         01101900000000000000110190000000000000       0090339900006270065125101914000129
100000000000000000000009033990000627000000000000000000000000010002020022728410191700000000002            2  01227284101911101900000002093920000000001N011019000000000000000000000000000000000000000000000000000000000000000100022728497842WILLIAN DE SOUZA MELLO                  RUA JOSE CALIXTO DO CARMO - 286 AP.111 -            11702690                                                            000131
2SR. CAIXA, APOS O VENCIMENTO COBRAR 2% DE MULTA                                 NAO RECEBER APOS 30 DIAS DO VENCIMENTO.                                                                                                                                                                                                         01101900000000000000110190000000000000       0090339900006270227284101917000132
100000000000000000000009033990000627000000000000000000000000010002020016909710191100000000002            2  01169097101911101900000001850370000000001N011019000000000000000000000000000000000000000000000000000000000000000100016909746805EDIVALDO SANTANA DOS SANTOS             ESTRADA JOAO GASPAR DELGADO - 80 AP.213             08536100                                                            000134
2SR. CAIXA, APOS O VENCIMENTO COBRAR 2% DE MULTA                                 NAO RECEBER APOS 30 DIAS DO VENCIMENTO.                                                                                                                                                                                                         01101900000000000000110190000000000000       0090339900006270169097101911000135
100000000000000000000009033990000627000000000000000000000000010002020022036010191900000000002            2  01220360101909101900000002873420000000001N011019000000000000000000000000000000000000000000000000000000000000000100022036003818DERLIS TERAN QUIROGA ROGATO             RUA JOAO RIBEIRO - 709 AP.61 - CAMPESTRE            09070250                                                            000137
2SR. CAIXA, APOS O VENCIMENTO COBRAR 2% DE MULTA                                 NAO RECEBER APOS 30 DIAS DO VENCIMENTO.                                                                                                                                                                                                         01101900000000000000110190000000000000       0090339900006270220360101919000138
100000000000000000000009033990000627000000000000000000000000010002020012475610191200000000002            2  01124756101911101900000002005690000000001N011019000000000000000000000000000000000000000000000000000000000000000100012475663820CELIDALVA GOES DE CARVALHO              RUA AURELIO BELOTTI JUNIOR - 28 - JARDIM            05759210                                                            000140
2SR. CAIXA, APOS O VENCIMENTO COBRAR 2% DE MULTA                                 NAO RECEBER APOS 30 DIAS DO VENCIMENTO.                                                                                                                                                                                                         01101900000000000000110190000000000000       0090339900006270124756101912000141
100000000000000000000009033990000627000000000000000000000000010002020033451610191P00000000002            2  01334516101911101900000001674850000000001N011019000000000000000000000000000000000000000000000000000000000000000100033451620839ARAO ELISIARIO  NUNES                   RUA JOSE CALIXTO DO CARMO - 286 AP.64 -             11702690                                                            000143
2SR. CAIXA, APOS O VENCIMENTO COBRAR 2% DE MULTA                                 NAO RECEBER APOS 30 DIAS DO VENCIMENTO.                                                                                                                                                                                                         01101900000000000000110190000000000000       009033990000627033451610191P000144
100000000000000000000009033990000627000000000000000000000000010002020033451610192800000000002            2  01334516101911101900000001674840000000001N011019000000000000000000000000000000000000000000000000000000000000000100033451620839ARAO ELISIARIO  NUNES                   RUA JOSE CALIXTO DO CARMO - 286 AP.64 -             11702690                                                            000146
2SR. CAIXA, APOS O VENCIMENTO COBRAR 2% DE MULTA                                 NAO RECEBER APOS 30 DIAS DO VENCIMENTO.                                                                                                                                                                                                         01101900000000000000110190000000000000       0090339900006270334516101928000147
100000000000000000000009033990000627000000000000000000000000010002020095758210191P00000000002            2  01957582101911101900000002036860000000001N011019000000000000000000000000000000000000000000000000000000000000000100095758275891SHIRLEY TUNES ASTOLFI                   RUA GUAPERUVU - 656 AP.84 - VILA ARICAND            03504010                                                            000149
2SR. CAIXA, APOS O VENCIMENTO COBRAR 2% DE MULTA                                 NAO RECEBER APOS 30 DIAS DO VENCIMENTO.                                                                                                                                                                                                         01101900000000000000110190000000000000       009033990000627095758210191P000150
9                                                                                                                                                                                                                                                                                                                                                                                                         000151