01REMESSA01COBRANCA       00000000000004991781AIRES CONSTRUTORA E INCORPORAD237BRADESCO       081019        MX0000130                                                                                                                                                                                                                                                                                     000001
100000000000000000000009077090006612500000000000000000000000010002100001224510191100000000002            2  01012245101925101900000003682710000000001N071019000000000000000000000000000000000000000000000000000000000000000100001224509579REINALDO JUNIOR MARTINS DE ABREU        AVENIDA INTERLAGOS - 7.224 - INTERLAGOS             04777000                                                            000002
2SR. CAIXA, APOS O VENCIMENTO COBRAR 10% DE MULTA                                NAO RECEBER APOS 30 DIAS DO VENCIMENTO.                                                                                                                                                                                                         08101900000000000000810190000000000000       0090770900066125012245101911000003
100000000000000000000009077090006612500000000000000000000000010002100016338910191400000000002            2  01163389101925101900000003633660000000001N071019000000000000000000000000000000000000000000000000000000000000000100016338929806EDVALDO DA SILVA ANDRADE                RUA ARIA - 434 - PARQUE ALVES DE LIMA -             04902170                                                            000005
2SR. CAIXA, APOS O VENCIMENTO COBRAR 10% DE MULTA                                NAO RECEBER APOS 30 DIAS DO VENCIMENTO.                                                                                                                                                                                                         08101900000000000000810190000000000000       0090770900066125163389101914000006
100000000000000000000009077090006612500000000000000000000000010002100026836910191400000000002            2  01268369101925101900000003290550000000001N071019000000000000000000000000000000000000000000000000000000000000000100026836908860VANDERLEI FIGUEIREDO DE CARVALHO        RUA SANTO ANTONIO DE PADUA - 213 BLOCO 3            11717070                                                            000008
2SR. CAIXA, APOS O VENCIMENTO COBRAR 10% DE MULTA                                NAO RECEBER APOS 30 DIAS DO VENCIMENTO.                                                                                                                                                                                                         08101900000000000000810190000000000000       0090770900066125268369101914000009
100000000000000000000009077090006612500000000000000000000000010002100059861510191000000000002            2  01598615101925101900000003654870000000001N071019000000000000000000000000000000000000000000000000000000000000000100059861576800REINALDO LOPES DE OLIVEIRA              RUA DA SERVIDAO - 40 - VILA ROSCHEL - SA            04891045                                                            000011
2SR. CAIXA, APOS O VENCIMENTO COBRAR 10% DE MULTA                                NAO RECEBER APOS 30 DIAS DO VENCIMENTO.                                                                                                                                                                                                         08101900000000000000810190000000000000       0090770900066125598615101910000012
100000000000000000000009077090006612500000000000000000000000010002100016330910191900000000002            2  01163309101925101900000003632730000000001N071019000000000000000000000000000000000000000000000000000000000000000100016330938830KARINA CORDEIRO PIASSA                  AVENIDA ALDA - 1550 AP.103 BL.A - CENTRO            09910170                                                            000014
2SR. CAIXA, APOS O VENCIMENTO COBRAR 10% DE MULTA                                NAO RECEBER APOS 30 DIAS DO VENCIMENTO.                                                                                                                                                                                                         08101900000000000000810190000000000000       0090770900066125163309101919000015
100000000000000000000009077090006612500000000000000000000000010002100029380710191900000000002            2  01293807101925101900000003290740000000001N071019000000000000000000000000000000000000000000000000000000000000000100029380708882EDUARDO MENDONCA DAMASCENO              RUA MONTE CASTELO - 296 AP.12 - AVIACAO             11702720                                                            000017
2SR. CAIXA, APOS O VENCIMENTO COBRAR 10% DE MULTA                                NAO RECEBER APOS 30 DIAS DO VENCIMENTO.                                                                                                                                                                                                         08101900000000000000810190000000000000       0090770900066125293807101919000018
100000000000000000000009077090006612500000000000000000000000010002100023988510191200000000002            2  01239885101925101900000003341370000000001N071019000000000000000000000000000000000000000000000000000000000000000100023988525634DALMY PIMENTA                           SAO CAETANO - 136 - VILA SAO VICENTE - U            38026220                                                            000020
2SR. CAIXA, APOS O VENCIMENTO COBRAR 10% DE MULTA                                NAO RECEBER APOS 30 DIAS DO VENCIMENTO.                                                                                                                                                                                                         08101900000000000000810190000000000000       0090770900066125239885101912000021
100000000000000000000009077090006612500000000000000000000000010002100004735210191400000000002            2  01047352101925101900000003632960000000001N071019000000000000000000000000000000000000000000000000000000000000000100004735273832DARIO LUIZ GONCALVES                    RUA MONTE CASTELO - 295 AP.113 - AVIACAO            11702720                                                            000023
2SR. CAIXA, APOS O VENCIMENTO COBRAR 10% DE MULTA                                NAO RECEBER APOS 30 DIAS DO VENCIMENTO.                                                                                                                                                                                                         08101900000000000000810190000000000000       0090770900066125047352101914000024
100000000000000000000009077090006612500000000000000000000000010002100007635210191400000000002            2  01076352101925101900000003248090000000001N071019000000000000000000000000000000000000000000000000000000000000000100007635293893SILVIO CARDOSO ZACARIAS                 RUA SOLIDONIO LEITE - 2718 AP.102 BLOCO             03275000                                                            000026
2SR. CAIXA, APOS O VENCIMENTO COBRAR 10% DE MULTA                                NAO RECEBER APOS 30 DIAS DO VENCIMENTO.                                                                                                                                                                                                         08101900000000000000810190000000000000       0090770900066125076352101914000027
100000000000000000000009077090006612500000000000000000000000010002100007975910191800000000002            2  01079759101925101900000003533740000000001N071019000000000000000000000000000000000000000000000000000000000000000100007975958808JOCY VIGNADO                            RUA PEDRO GONCALVES SOBRINHO - 568 - PAR            13098641                                                            000029
2SR. CAIXA, APOS O VENCIMENTO COBRAR 10% DE MULTA                                NAO RECEBER APOS 30 DIAS DO VENCIMENTO.                                                                                                                                                                                                         08101900000000000000810190000000000000       0090770900066125079759101918000030
100000000000000000000009077090006612500000000000000000000000010002100036386810191P00000000002            2  01363868101925101900000003732160000000001N071019000000000000000000000000000000000000000000000000000000000000000100036386861833ALINE LEE WEI DE SOUZA                  AV. PRES.CASTELO BRANCO - 9127 AP.251 BL            11704600                                                            000032
2SR. CAIXA, APOS O VENCIMENTO COBRAR 10% DE MULTA                                NAO RECEBER APOS 30 DIAS DO VENCIMENTO.                                                                                                                                                                                                         08101900000000000000810190000000000000       009077090006612536386810191P000033
100000000000000000000009077090006612500000000000000000000000010002100070465310191000000000002            2  01704653101925101900000001017100000000001N071019000000000000000000000000000000000000000000000000000000000000000100070465320953SIDNEY CARASKI                          RUA DR.CELSO PACHECO BENTIM - 502 - PARQ            03571020                                                            000035
2SR. CAIXA, APOS O VENCIMENTO COBRAR 10% DE MULTA                                NAO RECEBER APOS 30 DIAS DO VENCIMENTO.                                                                                                                                                                                                         08101900000000000000810190000000000000       0090770900066125704653101910000036
100000000000000000000009077090006612500000000000000000000000010002100075759410191600000000002            2  01757594101925101900000002658490000000001N071019000000000000000000000000000000000000000000000000000000000000000100075759446800VALTER MUTAFEI                          RUA MONTE CASTELO - 295 AP.54 - AVIACAO             11702720                                                            000038
2SR. CAIXA, APOS O VENCIMENTO COBRAR 10% DE MULTA                                NAO RECEBER APOS 30 DIAS DO VENCIMENTO.                                                                                                                                                                                                         08101900000000000000810190000000000000       0090770900066125757594101916000039
100000000000000000000009077090006612500000000000000000000000010002100070328710191400000000002            2  01703287101925101900000003798310000000001N071019000000000000000000000000000000000000000000000000000000000000000100070328706868VALTER LIMA FERNANDES                   RUA DOMINGOS JORGE VELHO - 52 - CENTRO -            06843550                                                            000041
2SR. CAIXA, APOS O VENCIMENTO COBRAR 10% DE MULTA                                NAO RECEBER APOS 30 DIAS DO VENCIMENTO.                                                                                                                                                                                                         08101900000000000000810190000000000000       0090770900066125703287101914000042
100000000000000000000009077090006612500000000000000000000000010002100023132610191P00000000002            2  01231326101925101900000002063180000000001N071019000000000000000000000000000000000000000000000000000000000000000100023132672882LEANDRO MORENO                          RUA MONTE CASTELO - 296 AP.64 - AVIACAO             11702720                                                            000044
2SR. CAIXA, APOS O VENCIMENTO COBRAR 10% DE MULTA                                NAO RECEBER APOS 30 DIAS DO VENCIMENTO.                                                                                                                                                                                                         08101900000000000000810190000000000000       009077090006612523132610191P000045
100000000000000000000009077090006612500000000000000000000000010002100099264610191900000000002            2  01992646101925101900000003518580000000001N071019000000000000000000000000000000000000000000000000000000000000000100099264692800LEONTINO PINHEIRO DA SILVA              AVENIDA JOAO BATISTA FITIPALDI - 469 - V            08685000                                                            000047
2SR. CAIXA, APOS O VENCIMENTO COBRAR 10% DE MULTA                                NAO RECEBER APOS 30 DIAS DO VENCIMENTO.                                                                                                                                                                                                         08101900000000000000810190000000000000       0090770900066125992646101919000048
100000000000000000000009077090006612500000000000000000000000010002100000666310191P00000000002            2  01006663101925101900000003394460000000001N071019000000000000000000000000000000000000000000000000000000000000000100000666344825LUIZ HENRIQUE DE CAMPOS                 RUA JOAO CARLOS CAVALCANTI REIS - 21 - J            02281206                                                            000050
2SR. CAIXA, APOS O VENCIMENTO COBRAR 10% DE MULTA                                NAO RECEBER APOS 30 DIAS DO VENCIMENTO.                                                                                                                                                                                                         08101900000000000000810190000000000000       009077090006612500666310191P000051
100000000000000000000009077090006612500000000000000000000000010002100029155010191P00000000002            2  01291550101925101900000003584690000000001N071019000000000000000000000000000000000000000000000000000000000000000100029155026842DANIELA YOSHIDA                         RUA MONTE CASTELO - 262 AP.34 - AVIACAO             11702720                                                            000053
2SR. CAIXA, APOS O VENCIMENTO COBRAR 10% DE MULTA                                NAO RECEBER APOS 30 DIAS DO VENCIMENTO.                                                                                                                                                                                                         08101900000000000000810190000000000000       009077090006612529155010191P000054
100000000000000000000009077090006612500000000000000000000000010002100001204410191300000000002            2  01012044101925101900000002919220000000001N071019000000000000000000000000000000000000000000000000000000000000000100001204431809CEZAR TALAVERA JUNIOR                   RUA MAESTRO ARTURO DE ANGELIS  - 190 AP.            05139010                                                            000056
2SR. CAIXA, APOS O VENCIMENTO COBRAR 10% DE MULTA                                NAO RECEBER APOS 30 DIAS DO VENCIMENTO.                                                                                                                                                                                                         08101900000000000000810190000000000000       0090770900066125012044101913000057
100000000000000000000009077090006612500000000000000000000000010002100004227510191200000000002            2  01042275101925101900000003784170000000001N071019000000000000000000000000000000000000000000000000000000000000000100004227553970ALESSANDRO ISRAEL GOULART               RUA PROFESSORA CARLINDA RIBEIRO - 21 - F            02866200                                                            000059
2SR. CAIXA, APOS O VENCIMENTO COBRAR 10% DE MULTA                                NAO RECEBER APOS 30 DIAS DO VENCIMENTO.                                                                                                                                                                                                         08101900000000000000810190000000000000       0090770900066125042275101912000060
100000000000000000000009077090006612500000000000000000000000010002100060811410191600000000002            2  01608114101925101900000003487550000000001N071019000000000000000000000000000000000000000000000000000000000000000100060811420868HELIO BASSI                             AV.PARIS,575 - PRACA ANTONIO FIGUEROA -             11700082                                                            000062
2SR. CAIXA, APOS O VENCIMENTO COBRAR 10% DE MULTA                                NAO RECEBER APOS 30 DIAS DO VENCIMENTO.                                                                                                                                                                                                         08101900000000000000810190000000000000       0090770900066125608114101916000063
100000000000000000000009077090006612500000000000000000000000010002100001024710191600000000002            2  01010247101925101900000003300160000000001N071019000000000000000000000000000000000000000000000000000000000000000100001024794881CLAUDIO RODRIGUES                       RUA ARACATUBA - 242 - LAPA - SAO PAULO -            05058010                                                            000065
2SR. CAIXA, APOS O VENCIMENTO COBRAR 10% DE MULTA                                NAO RECEBER APOS 30 DIAS DO VENCIMENTO.                                                                                                                                                                                                         08101900000000000000810190000000000000       0090770900066125010247101916000066
100000000000000000000009077090006612500000000000000000000000010002100002225010191700000000002            2  01022250101925101900000005059580000000001N071019000000000000000000000000000000000000000000000000000000000000000100002225072841PEDRO EDUARDO DE AZEVEDO                RUA NATH ZILMAN - 46 - JARDIM SAMAMBAIA             07623085                                                            000068
2SR. CAIXA, APOS O VENCIMENTO COBRAR 10% DE MULTA                                NAO RECEBER APOS 30 DIAS DO VENCIMENTO.                                                                                                                                                                                                         08101900000000000000810190000000000000       0090770900066125022250101917000069
100000000000000000000009077090006612500000000000000000000000010002100022037510191500000000002            2  01220375101925101900000003520920000000001N071019000000000000000000000000000000000000000000000000000000000000000100022037552882ANDREIA CRISTINA FERNANDES DANTAS       PCA CASTRO ALVES - 163 AP.33 - VILA SAO             13224299                                                            000071
2SR. CAIXA, APOS O VENCIMENTO COBRAR 10% DE MULTA                                NAO RECEBER APOS 30 DIAS DO VENCIMENTO.                                                                                                                                                                                                         08101900000000000000810190000000000000       0090770900066125220375101915000072
100000000000000000000009077090006612500000000000000000000000010002100019288710191300000000002            2  01192887101925101900000002866810000000001N071019000000000000000000000000000000000000000000000000000000000000000100019288787844EMERSON LUIZ MARTINEZ PEREIRA           RUA MONTE CASTELO - 296 AP.74 - AVIACAO             11702720                                                            000074
2SR. CAIXA, APOS O VENCIMENTO COBRAR 10% DE MULTA                                NAO RECEBER APOS 30 DIAS DO VENCIMENTO.                                                                                                                                                                                                         08101900000000000000810190000000000000       0090770900066125192887101913000075
100000000000000000000009077090006612500000000000000000000000010002100027198410191700000000002            2  01271984101925101900000002428350000000001N071019000000000000000000000000000000000000000000000000000000000000000100027198452809CRISTIANE AURELIANO DA SILVA MAIA       RUA MONTE CASTELO - 262 AP.25 - AVIACAO             11702720                                                            000077
2SR. CAIXA, APOS O VENCIMENTO COBRAR 10% DE MULTA                                NAO RECEBER APOS 30 DIAS DO VENCIMENTO.                                                                                                                                                                                                         08101900000000000000810190000000000000       0090770900066125271984101917000078
100000000000000000000009077090006612500000000000000000000000010002100021246210191000000000002            2  01212462101925101900000002963560000000001N071019000000000000000000000000000000000000000000000000000000000000000100021246231840ALEXANDRO DA CUNHA MIGUES               RUA DULCE - 71  - VILA CARRAO - SAO PAUL            03427040                                                            000080
2SR. CAIXA, APOS O VENCIMENTO COBRAR 10% DE MULTA                                NAO RECEBER APOS 30 DIAS DO VENCIMENTO.                                                                                                                                                                                                         08101900000000000000810190000000000000       0090770900066125212462101910000081
100000000000000000000009077090006612500000000000000000000000010002100018834210191900000000002            2  01188342101925101900000003461740000000001N071019000000000000000000000000000000000000000000000000000000000000000100018834257863ILTON FERNANDO MUTCHNIK                 RUA ASSUNGUI - 700 AP.222 - VILA GUMERCI            04131001                                                            000083
2SR. CAIXA, APOS O VENCIMENTO COBRAR 10% DE MULTA                                NAO RECEBER APOS 30 DIAS DO VENCIMENTO.                                                                                                                                                                                                         08101900000000000000810190000000000000       0090770900066125188342101919000084
100000000000000000000009077090006612500000000000000000000000010002100018470510191000000000002            2  01184705101925101900000004359820000000001N071019000000000000000000000000000000000000000000000000000000000000000100018470520881SILVANA ALVES DE OLIVEIRA               RUA MONTE CASTELO - 262 AP.91 - AVIACAO             11702720                                                            000086
2SR. CAIXA, APOS O VENCIMENTO COBRAR 10% DE MULTA                                NAO RECEBER APOS 30 DIAS DO VENCIMENTO.                                                                                                                                                                                                         08101900000000000000810190000000000000       0090770900066125184705101910000087
100000000000000000000009077090006612500000000000000000000000010002100009297510191000000000002            2  01092975101925101900000003035260000000001N071019000000000000000000000000000000000000000000000000000000000000000100009297523846MARCOS ROBERTO DE CASTRO FERREIRA       RUA MONTE CASTELO - 262 AP.105 - AVIACAO            11702720                                                            000089
2SR. CAIXA, APOS O VENCIMENTO COBRAR 10% DE MULTA                                NAO RECEBER APOS 30 DIAS DO VENCIMENTO.                                                                                                                                                                                                         08101900000000000000810190000000000000       0090770900066125092975101910000090
100000000000000000000009077090006612500000000000000000000000010002100001164110191P00000000002            2  01011641101925101900000003761370000000001N071019000000000000000000000000000000000000000000000000000000000000000100001164158864DAVID BLEY LACERDA                      RUA CONEGO ARAUJO MARCONDES - 188 - BAIR            02550080                                                            000092
2SR. CAIXA, APOS O VENCIMENTO COBRAR 10% DE MULTA                                NAO RECEBER APOS 30 DIAS DO VENCIMENTO.                                                                                                                                                                                                         08101900000000000000810190000000000000       009077090006612501164110191P000093
100000000000000000000009077090006612500000000000000000000000010002100031498010191300000000002            2  01314980101925101900000004571410000000001N071019000000000000000000000000000000000000000000000000000000000000000100031498008895POLIANE  SIBELE DA SILVA                PRACA GENERAL COSTA BARRETO - 56 AP.181             03325070                                                            000095
2SR. CAIXA, APOS O VENCIMENTO COBRAR 10% DE MULTA                                NAO RECEBER APOS 30 DIAS DO VENCIMENTO.                                                                                                                                                                                                         08101900000000000000810190000000000000       0090770900066125314980101913000096
100000000000000000000009077090006612500000000000000000000000010002100000588110191700000000002            2  01005881101925101900000002681230000000001N071019000000000000000000000000000000000000000000000000000000000000000100000588109860JOSE LIARTE GIANTE                      AVENIDA LUIZ GONZAGA DO AMARAL - 143 - J            09320630                                                            000098
2SR. CAIXA, APOS O VENCIMENTO COBRAR 10% DE MULTA                                NAO RECEBER APOS 30 DIAS DO VENCIMENTO.                                                                                                                                                                                                         08101900000000000000810190000000000000       0090770900066125005881101917000099
100000000000000000000009077090006612500000000000000000000000010002100014386810191P00000000002            2  01143868101925101900000002144860000000001N071019000000000000000000000000000000000000000000000000000000000000000100014386860134SEVERINO CARLOS DE OLIVEIRA             RUA MONTE CASTELO - 262 AP.54 - AVIACAO             11702720                                                            000101
2SR. CAIXA, APOS O VENCIMENTO COBRAR 10% DE MULTA                                NAO RECEBER APOS 30 DIAS DO VENCIMENTO.                                                                                                                                                                                                         08101900000000000000810190000000000000       009077090006612514386810191P000102
100000000000000000000009077090006612500000000000000000000000010002100029088210191700000000002            2  01290882101925101900000002384530000000001N071019000000000000000000000000000000000000000000000000000000000000000100029088221804FABIANO SPERANDEO                       RUA MONTE CASTELO - 296 AP.93 - AVIACAO             11702720                                                            000104
2SR. CAIXA, APOS O VENCIMENTO COBRAR 10% DE MULTA                                NAO RECEBER APOS 30 DIAS DO VENCIMENTO.                                                                                                                                                                                                         08101900000000000000810190000000000000       0090770900066125290882101917000105
100000000000000000000009077090006612500000000000000000000000010002100039393710191500000000002            2  01393937101925101900000001478250000000001N071019000000000000000000000000000000000000000000000000000000000000000100039393790850NAIRON RICARDO DE ARAUJO SANTOS         RUA MONTE CASTELO - 262 AP.23 - AVIACAO             11702720                                                            000107
2SR. CAIXA, APOS O VENCIMENTO COBRAR 10% DE MULTA                                NAO RECEBER APOS 30 DIAS DO VENCIMENTO.                                                                                                                                                                                                         08101900000000000000810190000000000000       0090770900066125393937101915000108
100000000000000000000009077090006612500000000000000000000000010002100041896810191600000000002            2  01418968101925101900000002152840000000001N071019000000000000000000000000000000000000000000000000000000000000000100041896807968SERGIO ROBERTO DA SILVA                 RUA DOS INGLESES - 542 AP.61 - MORRO DOS            01329000                                                            000110
2SR. CAIXA, APOS O VENCIMENTO COBRAR 10% DE MULTA                                NAO RECEBER APOS 30 DIAS DO VENCIMENTO.                                                                                                                                                                                                         08101900000000000000810190000000000000       0090770900066125418968101916000111
9                                                                                                                                                                                                                                                                                                                                                                                                         000112