01REMESSA01COBRANCA       00000000000008017025HB SANTOS CONSTRUTORA E INCORP237BRADESCO       010818        MX0000060                                                                                                                                                                                                                                                                                     000001
100000000000000000000009033990000627000000000000000000000000010002020029671508181300000000002            2  01296715081809081800000002297690000000001N010818000000000000000000000000000000000000000000000000000000000000000100029671526845ROGERIO CONSENTINO                      RUA CARLOS MAZER  - 678 - VILA CARMOSINA            08290700                                                            000002
2SR. CAIXA, APOS O VENCIMENTO COBRAR 2% DE MULTA                                 NAO RECEBER APOS 30 DIAS DO VENCIMENTO.                                                                                                                                                                                                         01081800000000000000108180000000000000       0090339900006270296715081813000003
100000000000000000000009033990000627000000000000000000000000010002020003863008181500000000002            2  01038630081809081800000002170360000000001N010818000000000000000000000000000000000000000000000000000000000000000100003863075803HERALDO MENQUINI                        RUA OCEANICA AMABILE - 346 AP.415 - CIDA            11704420                                                            000005
2SR. CAIXA, APOS O VENCIMENTO COBRAR 2% DE MULTA                                 NAO RECEBER APOS 30 DIAS DO VENCIMENTO.                                                                                                                                                                                                         01081800000000000000108180000000000000       0090339900006270038630081815000006
100000000000000000000009033990000627000000000000000000000000010002020013135208181700000000002            2  01131352081809081800000002654500000000001N010818000000000000000000000000000000000000000000000000000000000000000100013135261859EDUARDO ZANOLA                          RUA ROLANDO PIETRO BONINI - 46 - JARDIM             09781040                                                            000008
2SR. CAIXA, APOS O VENCIMENTO COBRAR 2% DE MULTA                                 NAO RECEBER APOS 30 DIAS DO VENCIMENTO.                                                                                                                                                                                                         01081800000000000000108180000000000000       0090339900006270131352081817000009
100000000000000000000009033990000627000000000000000000000000010002020029028408181200000000002            2  01290284081809081800000002223320000000001N010818000000000000000000000000000000000000000000000000000000000000000100029028478825LEONARDO LOUZADA                        RUA ILHEUS - QUADRA 31 - 244 - BAIRRO CE            19274000                                                            000011
2SR. CAIXA, APOS O VENCIMENTO COBRAR 2% DE MULTA                                 NAO RECEBER APOS 30 DIAS DO VENCIMENTO.                                                                                                                                                                                                         01081800000000000000108180000000000000       0090339900006270290284081812000012
100000000000000000000009033990000627000000000000000000000000010002020032878508181P00000000002            2  01328785081809081800000003213130000000001N010818000000000000000000000000000000000000000000000000000000000000000100032878512847LEONARDO MOURA MONIZ CALDEIRA           RUA BALSA - 682 AP.134 T.02 - VILA ARCAD            02910000                                                            000014
2SR. CAIXA, APOS O VENCIMENTO COBRAR 2% DE MULTA                                 NAO RECEBER APOS 30 DIAS DO VENCIMENTO.                                                                                                                                                                                                         01081800000000000000108180000000000000       009033990000627032878508181P000015
100000000000000000000009033990000627000000000000000000000000010002020016479008181700000000002            2  01164790081809081800000003418190000000001N010818000000000000000000000000000000000000000000000000000000000000000100016479002806LOURDES PEREIRA DE QUEIROZ SECANECHIA   RUA PAULINO CURSI - 437 - CIDADE SAO MAT            03960060                                                            000017
2SR. CAIXA, APOS O VENCIMENTO COBRAR 2% DE MULTA                                 NAO RECEBER APOS 30 DIAS DO VENCIMENTO.                                                                                                                                                                                                         01081800000000000000108180000000000000       0090339900006270164790081817000018
100000000000000000000009033990000627000000000000000000000000010002020019635008181400000000002            2  01196350081809081800000002522020000000001N010818000000000000000000000000000000000000000000000000000000000000000100019635091885IVAN VIEIRA SILVA                       ABRAO JORGE - 3001 - JARDIM INTEGRACAO -            14405397                                                            000020
2SR. CAIXA, APOS O VENCIMENTO COBRAR 2% DE MULTA                                 NAO RECEBER APOS 30 DIAS DO VENCIMENTO.                                                                                                                                                                                                         01081800000000000000108180000000000000       0090339900006270196350081814000021
100000000000000000000009033990000627000000000000000000000000010002020009361408181400000000002            2  01093614081809081800000002481610000000001N010818000000000000000000000000000000000000000000000000000000000000000100009361471805JOSE BARBOSA DA SILVA                   RUA ALFREDO INACIO TRINDADE  - 60 AP.44             02344100                                                            000023
2SR. CAIXA, APOS O VENCIMENTO COBRAR 2% DE MULTA                                 NAO RECEBER APOS 30 DIAS DO VENCIMENTO.                                                                                                                                                                                                         01081800000000000000108180000000000000       0090339900006270093614081814000024
100000000000000000000009033990000627000000000000000000000000010002020012756908181800000000002            2  01127569081809081800000002142170000000001N010818000000000000000000000000000000000000000000000000000000000000000100012756959812ITAMAR JUVENAL DIAS DA SILVA            RUA ELISEU REINALDO MORAES VIEIRA - 90 A            02858000                                                            000026
2SR. CAIXA, APOS O VENCIMENTO COBRAR 2% DE MULTA                                 NAO RECEBER APOS 30 DIAS DO VENCIMENTO.                                                                                                                                                                                                         01081800000000000000108180000000000000       0090339900006270127569081818000027
100000000000000000000009033990000627000000000000000000000000010002020002731008181500000000002            2  01027310081809081800000002532620000000001N010818000000000000000000000000000000000000000000000000000000000000000100002731042842VALTER CERQUEIRA VILLA NOVA             RUA MACHADO - 106 - VILA AUGUSTA - GUARU            07025210                                                            000029
2SR. CAIXA, APOS O VENCIMENTO COBRAR 2% DE MULTA                                 NAO RECEBER APOS 30 DIAS DO VENCIMENTO.                                                                                                                                                                                                         01081800000000000000108180000000000000       0090339900006270027310081815000030
100000000000000000000009033990000627000000000000000000000000010002020002731008182300000000002            2  01027310081809081800000002532620000000001N010818000000000000000000000000000000000000000000000000000000000000000100002731042842VALTER CERQUEIRA VILLA NOVA             RUA MACHADO - 106 - VILA AUGUSTA - GUARU            07025210                                                            000032
2SR. CAIXA, APOS O VENCIMENTO COBRAR 2% DE MULTA                                 NAO RECEBER APOS 30 DIAS DO VENCIMENTO.                                                                                                                                                                                                         01081800000000000000108180000000000000       0090339900006270027310081823000033
100000000000000000000009033990000627000000000000000000000000010002020028802108181300000000002            2  01288021081809081800000002286920000000001N010818000000000000000000000000000000000000000000000000000000000000000100028802158894ELIEL HENRIQUE ZUZA                     RUA CARLOS JOSE BORSTENS - 50 AP.43 - BA            11702750                                                            000035
2SR. CAIXA, APOS O VENCIMENTO COBRAR 2% DE MULTA                                 NAO RECEBER APOS 30 DIAS DO VENCIMENTO.                                                                                                                                                                                                         01081800000000000000108180000000000000       0090339900006270288021081813000036
100000000000000000000009033990000627000000000000000000000000010002020008739108181700000000002            2  01087391081809081800000002138840000000001N010818000000000000000000000000000000000000000000000000000000000000000100008739150895VANGEVALDO BATISTA SANT ANNA            TRAVESSA TOMAZIN - 02 - ERMELINO MATARAZ            03811125                                                            000038
2SR. CAIXA, APOS O VENCIMENTO COBRAR 2% DE MULTA                                 NAO RECEBER APOS 30 DIAS DO VENCIMENTO.                                                                                                                                                                                                         01081800000000000000108180000000000000       0090339900006270087391081817000039
100000000000000000000009033990000627000000000000000000000000010002020005313708181300000000002            2  01053137081811081800000001885700000000001N010818000000000000000000000000000000000000000000000000000000000000000100005313717863EDIMICIO JOSE DE ARAUJO                 PRACA NICOLAU GERAIGIRE - 680 CA A - JAR            11095110                                                            000041
2SR. CAIXA, APOS O VENCIMENTO COBRAR 2% DE MULTA                                 NAO RECEBER APOS 30 DIAS DO VENCIMENTO.                                                                                                                                                                                                         01081800000000000000108180000000000000       0090339900006270053137081813000042
100000000000000000000009033990000627000000000000000000000000010002020029433608181100000000002            2  01294336081811081800000001811510000000001N010818000000000000000000000000000000000000000000000000000000000000000100029433631897MARIO MUNIZ                             RUA LIBERO BADARO - 1115 - BAIRRO CIDADE            11704070                                                            000044
2SR. CAIXA, APOS O VENCIMENTO COBRAR 2% DE MULTA                                 NAO RECEBER APOS 30 DIAS DO VENCIMENTO.                                                                                                                                                                                                         01081800000000000000108180000000000000       0090339900006270294336081811000045
100000000000000000000009033990000627000000000000000000000000010002020001847208181P00000000002            2  01018472081811081800000001667740000000001N010818000000000000000000000000000000000000000000000000000000000000000100001847204864AMERICA CONCEICAO DA SILVA              RUA CAMINHO DO GUARAMAR - 199 AP.11 BLOC            11721050                                                            000047
2SR. CAIXA, APOS O VENCIMENTO COBRAR 2% DE MULTA                                 NAO RECEBER APOS 30 DIAS DO VENCIMENTO.                                                                                                                                                                                                         01081800000000000000108180000000000000       009033990000627001847208181P000048
100000000000000000000009033990000627000000000000000000000000010002020005029808181400000000002            2  01050298081809081800000002184090000000001N010818000000000000000000000000000000000000000000000000000000000000000100005029828885LAURINETE DA CONCEICAO DE NORONHA       RUA MARIA LUCIA DE TOLEDO LEITE MORAES -            04434040                                                            000050
2SR. CAIXA, APOS O VENCIMENTO COBRAR 2% DE MULTA                                 NAO RECEBER APOS 30 DIAS DO VENCIMENTO.                                                                                                                                                                                                         01081800000000000000108180000000000000       0090339900006270050298081814000051
100000000000000000000009033990000627000000000000000000000000010002020027682108181300000000002            2  01276821081811081800000001758160000000001N010818000000000000000000000000000000000000000000000000000000000000000100027682175818ALINE TEIXEIRA                          RUA CRUZEIRO DO SUL - 309 - JARDIM BOM P            06385060                                                            000053
2SR. CAIXA, APOS O VENCIMENTO COBRAR 2% DE MULTA                                 NAO RECEBER APOS 30 DIAS DO VENCIMENTO.                                                                                                                                                                                                         01081800000000000000108180000000000000       0090339900006270276821081813000054
100000000000000000000009033990000627000000000000000000000000010002020013388908181600000000002            2  01133889081811081800000001765960000000001N010818000000000000000000000000000000000000000000000000000000000000000100013388936889NEUTON DE SOUZA RAMOS                   RUA MARIA CRISTINA - 932 - JARDIM CASQUE            11533160                                                            000056
2SR. CAIXA, APOS O VENCIMENTO COBRAR 2% DE MULTA                                 NAO RECEBER APOS 30 DIAS DO VENCIMENTO.                                                                                                                                                                                                         01081800000000000000108180000000000000       0090339900006270133889081816000057
100000000000000000000009033990000627000000000000000000000000010002020012774908181600000000002            2  01127749081811081800000001799090000000001N010818000000000000000000000000000000000000000000000000000000000000000100012774906865JOSE MILTON SANTIAGO                    RUA BATATAIS - 47 - CIDADE ESTELA - POA             08563140                                                            000059
2SR. CAIXA, APOS O VENCIMENTO COBRAR 2% DE MULTA                                 NAO RECEBER APOS 30 DIAS DO VENCIMENTO.                                                                                                                                                                                                         01081800000000000000108180000000000000       0090339900006270127749081816000060
100000000000000000000009033990000627000000000000000000000000010002020004234908181100000000002            2  01042349081809081800000003182760000000001N010818000000000000000000000000000000000000000000000000000000000000000100004234989835LUIZ ISRAEL DA COSTA                    AVENIDA FERNANDO PACHECO JORDAO - 907 -             08121510                                                            000062
2SR. CAIXA, APOS O VENCIMENTO COBRAR 2% DE MULTA                                 NAO RECEBER APOS 30 DIAS DO VENCIMENTO.                                                                                                                                                                                                         01081800000000000000108180000000000000       0090339900006270042349081811000063
100000000000000000000009033990000627000000000000000000000000010002020016294108181100000000002            2  01162941081809081800000002168410000000001N010818000000000000000000000000000000000000000000000000000000000000000100016294119812JURACY FELIX DE ARRUDA                  RUA ERNA - 13 - ALTO DA MOOCA - SAO PAUL            03165050                                                            000065
2SR. CAIXA, APOS O VENCIMENTO COBRAR 2% DE MULTA                                 NAO RECEBER APOS 30 DIAS DO VENCIMENTO.                                                                                                                                                                                                         01081800000000000000108180000000000000       0090339900006270162941081811000066
100000000000000000000009033990000627000000000000000000000000010002020005613808181600000000002            2  01056138081811081800000001654680000000001N010818000000000000000000000000000000000000000000000000000000000000000100005613843805NILZA MARIA DE OLIVEIRA                 RUA JOSE GONCALVES DE FREITAS - 66 C2 -             08210550                                                            000068
2SR. CAIXA, APOS O VENCIMENTO COBRAR 2% DE MULTA                                 NAO RECEBER APOS 30 DIAS DO VENCIMENTO.                                                                                                                                                                                                         01081800000000000000108180000000000000       0090339900006270056138081816000069
100000000000000000000009033990000627000000000000000000000000010002020007574908181600000000002            2  01075749081811081800000001698490000000001N010818000000000000000000000000000000000000000000000000000000000000000100007574936889JORGE LUCIANO PEREIRA BORRIELLO         RUA FABIO DE ALMEIDA MAGALHAES - 179 - J            05135370                                                            000071
2SR. CAIXA, APOS O VENCIMENTO COBRAR 2% DE MULTA                                 NAO RECEBER APOS 30 DIAS DO VENCIMENTO.                                                                                                                                                                                                         01081800000000000000108180000000000000       0090339900006270075749081816000072
100000000000000000000009033990000627000000000000000000000000010002020032408108181900000000002            2  01324081081811081800000001601320000000001N010818000000000000000000000000000000000000000000000000000000000000000100032408151848DEILSON DO NASCIMENTO CANDIDO DA SILVA  RUA HEREMITA SANTA DO NASCIMENTO - 37 AP            11345340                                                            000074
2SR. CAIXA, APOS O VENCIMENTO COBRAR 2% DE MULTA                                 NAO RECEBER APOS 30 DIAS DO VENCIMENTO.                                                                                                                                                                                                         01081800000000000000108180000000000000       0090339900006270324081081819000075
100000000000000000000009033990000627000000000000000000000000010002020008214908181900000000002            2  01082149081811081800000001724270000000001N010818000000000000000000000000000000000000000000000000000000000000000100008214973830JAMIL CHALA                             AVENIDA COSTA MACHADO - 291 AP.133-A - C            11700650                                                            000077
2SR. CAIXA, APOS O VENCIMENTO COBRAR 2% DE MULTA                                 NAO RECEBER APOS 30 DIAS DO VENCIMENTO.                                                                                                                                                                                                         01081800000000000000108180000000000000       0090339900006270082149081819000078
100000000000000000000009033990000627000000000000000000000000010002020032495008181600000000002            2  01324950081811081800000001932260000000001N010818000000000000000000000000000000000000000000000000000000000000000100032495004881PAULO EDUARDO DOS SANTOS                RUA REPUBLICA DO IRAQUE - 1119 - CAMPO B            04611002                                                            000080
2SR. CAIXA, APOS O VENCIMENTO COBRAR 2% DE MULTA                                 NAO RECEBER APOS 30 DIAS DO VENCIMENTO.                                                                                                                                                                                                         01081800000000000000108180000000000000       0090339900006270324950081816000081
100000000000000000000009033990000627000000000000000000000000010002020006471808181600000000002            2  01064718081809081800000002134860000000001N010818000000000000000000000000000000000000000000000000000000000000000100006471825803JOSIVALDO BASTOS DE OLIVEIRA            RUA MARIA DIAS HOG - 263 - PARQUE CONTIN            07085035                                                            000083
2SR. CAIXA, APOS O VENCIMENTO COBRAR 2% DE MULTA                                 NAO RECEBER APOS 30 DIAS DO VENCIMENTO.                                                                                                                                                                                                         01081800000000000000108180000000000000       0090339900006270064718081816000084
100000000000000000000009033990000627000000000000000000000000010002020038856808181200000000002            2  01388568081811081800000001791250000000001N010818000000000000000000000000000000000000000000000000000000000000000100038856851830FELIPE BIANCHI DA COSTA FREITAS         AVENIDA ENGENHEIRO ARMANDO DE ARRUDA PER            04325001                                                            000086
2SR. CAIXA, APOS O VENCIMENTO COBRAR 2% DE MULTA                                 NAO RECEBER APOS 30 DIAS DO VENCIMENTO.                                                                                                                                                                                                         01081800000000000000108180000000000000       0090339900006270388568081812000087
100000000000000000000009033990000627000000000000000000000000010002020016498008181300000000002            2  01164980081811081800000001694630000000001N010818000000000000000000000000000000000000000000000000000000000000000100016498053810GILMA CEZARIO GARCIA CORRITORI          RUA LAURENTINO XAVIER DOS SANTOS - 336 -            08240740                                                            000089
2SR. CAIXA, APOS O VENCIMENTO COBRAR 2% DE MULTA                                 NAO RECEBER APOS 30 DIAS DO VENCIMENTO.                                                                                                                                                                                                         01081800000000000000108180000000000000       0090339900006270164980081813000090
100000000000000000000009033990000627000000000000000000000000010002020030098608181600000000002            2  01300986081811081800000001819340000000001N010818000000000000000000000000000000000000000000000000000000000000000100030098603825DEUZIANA MOREIRA DE SA                  RUA JOAO AVELINO PINHO MELLAO - 114 - JA            05659010                                                            000092
2SR. CAIXA, APOS O VENCIMENTO COBRAR 2% DE MULTA                                 NAO RECEBER APOS 30 DIAS DO VENCIMENTO.                                                                                                                                                                                                         01081800000000000000108180000000000000       0090339900006270300986081816000093
100000000000000000000009033990000627000000000000000000000000010002020029339008181200000000002            2  01293390081811081800000001812130000000001N010818000000000000000000000000000000000000000000000000000000000000000100029339051831RONALD DIDOFF                           RUA CORONEL FERREIRA BRAGA - 188 - VILA             03522010                                                            000095
2SR. CAIXA, APOS O VENCIMENTO COBRAR 2% DE MULTA                                 NAO RECEBER APOS 30 DIAS DO VENCIMENTO.                                                                                                                                                                                                         01081800000000000000108180000000000000       0090339900006270293390081812000096
100000000000000000000009033990000627000000000000000000000000010002020017357808181400000000002            2  01173578081811081800000001919200000000001N010818000000000000000000000000000000000000000000000000000000000000000100017357859894MARCIO GUIMARAES                        RUA GENERAL CAMARA - 188 SALA 11 - CENTR            11010120                                                            000098
2SR. CAIXA, APOS O VENCIMENTO COBRAR 2% DE MULTA                                 NAO RECEBER APOS 30 DIAS DO VENCIMENTO.                                                                                                                                                                                                         01081800000000000000108180000000000000       0090339900006270173578081814000099
100000000000000000000009033990000627000000000000000000000000010002020010563008181400000000002            2  01105630081811081800000001968260000000001N010818000000000000000000000000000000000000000000000000000000000000000100010563033878VERA LUCIA RIBEIRO LONGANEZI            RUA DOS CAMARES - 150 AP.24 BL.02 - CARA            02068030                                                            000101
2SR. CAIXA, APOS O VENCIMENTO COBRAR 2% DE MULTA                                 NAO RECEBER APOS 30 DIAS DO VENCIMENTO.                                                                                                                                                                                                         01081800000000000000108180000000000000       0090339900006270105630081814000102
100000000000000000000009033990000627000000000000000000000000010002020005529608181900000000002            2  01055296081811081800000001786110000000001N010818000000000000000000000000000000000000000000000000000000000000000100005529616801JOAQUIM JORGE DA COSTA                  RUA CONEGO XAVIER - 13 - SACOMA - SAO PA            04231030                                                            000104
2SR. CAIXA, APOS O VENCIMENTO COBRAR 2% DE MULTA                                 NAO RECEBER APOS 30 DIAS DO VENCIMENTO.                                                                                                                                                                                                         01081800000000000000108180000000000000       0090339900006270055296081819000105
100000000000000000000009033990000627000000000000000000000000010002020022014108181300000000002            2  01220141081811081800000001780920000000001N010818000000000000000000000000000000000000000000000000000000000000000100022014140847CAMILA SILVEIRA CANIZARES               AVENIDA PRESIDENTE CASTELO BRANCO - 5.74            11703650                                                            000107
2SR. CAIXA, APOS O VENCIMENTO COBRAR 2% DE MULTA                                 NAO RECEBER APOS 30 DIAS DO VENCIMENTO.                                                                                                                                                                                                         01081800000000000000108180000000000000       0090339900006270220141081813000108
100000000000000000000009033990000627000000000000000000000000010002020015550708181500000000002            2  01155507081809081800000001655520000000001N010818000000000000000000000000000000000000000000000000000000000000000100015550706806MARY MIWA                               RUA CARLOS JOSE BORSTENS - 50 AP.105 - A            11702750                                                            000110
2SR. CAIXA, APOS O VENCIMENTO COBRAR 2% DE MULTA                                 NAO RECEBER APOS 30 DIAS DO VENCIMENTO.                                                                                                                                                                                                         01081800000000000000108180000000000000       0090339900006270155507081815000111
100000000000000000000009033990000627000000000000000000000000010002020015464608181500000000002            2  01154646081811081800000001877620000000001N010818000000000000000000000000000000000000000000000000000000000000000100015464647864SONIA TERESA VOLPATO                    RUA PEDRO BADRA - 51 AP.73 - JABAQUARA -            04348090                                                            000113
2SR. CAIXA, APOS O VENCIMENTO COBRAR 2% DE MULTA                                 NAO RECEBER APOS 30 DIAS DO VENCIMENTO.                                                                                                                                                                                                         01081800000000000000108180000000000000       0090339900006270154646081815000114
100000000000000000000009033990000627000000000000000000000000010002020008657808181400000000002            2  01086578081811081800000001858790000000001N010818000000000000000000000000000000000000000000000000000000000000000100008657886855ARLINDO DA CRUZ                         AVENIDA ARICANDUVA - 8.256 AP.54 BL.10 -            03951220                                                            000116
2SR. CAIXA, APOS O VENCIMENTO COBRAR 2% DE MULTA                                 NAO RECEBER APOS 30 DIAS DO VENCIMENTO.                                                                                                                                                                                                         01081800000000000000108180000000000000       0090339900006270086578081814000117
100000000000000000000009033990000627000000000000000000000000010002020004265708181400000000002            2  01042657081809081800000002439380000000001N010818000000000000000000000000000000000000000000000000000000000000000100004265781713ALEXANDRE CASADO COSTA                  RUA CARLOS JOSE BORSTENS - 50 AP.33 - AV            11702750                                                            000119
2SR. CAIXA, APOS O VENCIMENTO COBRAR 2% DE MULTA                                 NAO RECEBER APOS 30 DIAS DO VENCIMENTO.                                                                                                                                                                                                         01081800000000000000108180000000000000       0090339900006270042657081814000120
100000000000000000000009033990000627000000000000000000000000010002020059735108181200000000002            2  01597351081809081800000001030340000000001N010818000000000000000000000000000000000000000000000000000000000000000100059735180863HELIO JOSE MARQUES                      RUA MARTIM AFONSO DE SOUZA - 1007 AP.102            11702790                                                            000122
2SR. CAIXA, APOS O VENCIMENTO COBRAR 2% DE MULTA                                 NAO RECEBER APOS 30 DIAS DO VENCIMENTO.                                                                                                                                                                                                         01081800000000000000108180000000000000       0090339900006270597351081812000123
100000000000000000000009033990000627000000000000000000000000010002020026347808181600000000002            2  01263478081811081800000001987000000000001N010818000000000000000000000000000000000000000000000000000000000000000100026347872862VALDECI SILVA MEIRELES                  RUA JOSE BATISTA DA SILVA - 292 - JARDIM            06851470                                                            000125
2SR. CAIXA, APOS O VENCIMENTO COBRAR 2% DE MULTA                                 NAO RECEBER APOS 30 DIAS DO VENCIMENTO.                                                                                                                                                                                                         01081800000000000000108180000000000000       0090339900006270263478081816000126
100000000000000000000009033990000627000000000000000000000000010002020025443608181700000000002            2  01254436081809081800000003528680000000001N010818000000000000000000000000000000000000000000000000000000000000000100025443691830SILVANETE PEREIRA CARNELOS              RUA CARLOS JOSE BORSTENS - 50 AP.102 - A            11702750                                                            000128
2SR. CAIXA, APOS O VENCIMENTO COBRAR 2% DE MULTA                                 NAO RECEBER APOS 30 DIAS DO VENCIMENTO.                                                                                                                                                                                                         01081800000000000000108180000000000000       0090339900006270254436081817000129
9                                                                                                                                                                                                                                                                                                                                                                                                         000130