01REMESSA01COBRANCA       00000000000005331186HB SANTOS CONSTRUTORA E INCORP237BRADESCO       090321        MX0000020                                                                                                                                                                                                                                                                                     000001
100000000000000000000009033990000995400000000000000000000000010002020005723203211600000000002            2  01057232032123032100000002627960000000001N090321000000000000000000000000000000000000000000000000000000000000000100005723255843FRANCISCO DE ASSIS DA SILVA             PRACA NICOLAU GERAIGIRE - 25 VISOR - JAR            11095110                                                            000002
2SR. CAIXA, APOS O VENCIMENTO COBRAR 2% DE MULTA                                 NAO RECEBER APOS 30 DIAS DO VENCIMENTO.                                                                                                                                                                                                         09032100000000000000903210000000000000       0090339900009954057232032116000003
100000000000000000000009033990000995400000000000000000000000010002020004928103211000000000002            2  01049281032123032100000002569950000000001N090321000000000000000000000000000000000000000000000000000000000000000100004928157800ADEMIR APARECIDO ANTUNES                RUA JAIME TAVEIRA - 91 AP.056 B - CHACAR            03732060                                                            000005
2SR. CAIXA, APOS O VENCIMENTO COBRAR 2% DE MULTA                                 NAO RECEBER APOS 30 DIAS DO VENCIMENTO.                                                                                                                                                                                                         09032100000000000000903210000000000000       0090339900009954049281032110000006
100000000000000000000009033990000995400000000000000000000000010002020011238003211800000000002            2  01112380032123032100000002536620000000001N090321000000000000000000000000000000000000000000000000000000000000000100011238052886SOLANGE DIAS DE SOUZA ROMANO            AVENIDA DR. ALTINO ARANTES - 865 AP.132             04042034                                                            000008
2SR. CAIXA, APOS O VENCIMENTO COBRAR 2% DE MULTA                                 NAO RECEBER APOS 30 DIAS DO VENCIMENTO.                                                                                                                                                                                                         09032100000000000000903210000000000000       0090339900009954112380032118000009
100000000000000000000009033990000995400000000000000000000000010002020032589103211P00000000002            2  01325891032123032100000002486620000000001N090321000000000000000000000000000000000000000000000000000000000000000100032589165862RENATA ISABEL MARTINS SILVA             RUA HERCULANO DE FREITAS - 257 - FUNDACA            09520280                                                            000011
2SR. CAIXA, APOS O VENCIMENTO COBRAR 2% DE MULTA                                 NAO RECEBER APOS 30 DIAS DO VENCIMENTO.                                                                                                                                                                                                         09032100000000000000903210000000000000       009033990000995432589103211P000012
100000000000000000000009033990000995400000000000000000000000010002020088339303211300000000002            2  01883393032123032100000002513560000000001N090321000000000000000000000000000000000000000000000000000000000000000100088339319868MARCIA SIQUEIRA MELLO                   RUA ADELINO ALVES - 81 - SANTO AMARO - S            04710120                                                            000014
2SR. CAIXA, APOS O VENCIMENTO COBRAR 2% DE MULTA                                 NAO RECEBER APOS 30 DIAS DO VENCIMENTO.                                                                                                                                                                                                         09032100000000000000903210000000000000       0090339900009954883393032113000015
100000000000000000000009033990000995400000000000000000000000010002020088339303212100000000002            2  01883393032123032100000002513550000000001N090321000000000000000000000000000000000000000000000000000000000000000100088339319868MARCIA SIQUEIRA MELLO                   RUA ADELINO ALVES - 81 - SANTO AMARO - S            04710120                                                            000017
2SR. CAIXA, APOS O VENCIMENTO COBRAR 2% DE MULTA                                 NAO RECEBER APOS 30 DIAS DO VENCIMENTO.                                                                                                                                                                                                         09032100000000000000903210000000000000       0090339900009954883393032121000018
100000000000000000000009033990000995400000000000000000000000010002020046391203211900000000002            2  01463912032123032100000002607460000000001N090321000000000000000000000000000000000000000000000000000000000000000100046391265810PAMELLA RODRIGUES DE OLIVEIRA           RUA ANTONIO MARQUES LUIZ - 193 - JARDIM             07115090                                                            000020
2SR. CAIXA, APOS O VENCIMENTO COBRAR 2% DE MULTA                                 NAO RECEBER APOS 30 DIAS DO VENCIMENTO.                                                                                                                                                                                                         09032100000000000000903210000000000000       0090339900009954463912032119000021
100000000000000000000009033990000995400000000000000000000000010002020027964503211700000000002            2  01279645032123032100000001590790000000001N090321000000000000000000000000000000000000000000000000000000000000000100027964512838FABIO TADEU DE CAMPOS RADZIAVICIUS      AV.PROF.LUIZ IGNACIO ANHAIA MELLO - 2.58            03154100                                                            000023
2SR. CAIXA, APOS O VENCIMENTO COBRAR 2% DE MULTA                                 NAO RECEBER APOS 30 DIAS DO VENCIMENTO.                                                                                                                                                                                                         09032100000000000000903210000000000000       0090339900009954279645032117000024
100000000000000000000009033990000995400000000000000000000000010002020011498303211500000000002            2  01114983032123032100000001941050000000001N090321000000000000000000000000000000000000000000000000000000000000000100011498329837GERSON GERALDO DAS NEVES                RUA DOMINGOS DELGADO - 144 - VILA SOUZA             02881070                                                            000026
2SR. CAIXA, APOS O VENCIMENTO COBRAR 2% DE MULTA                                 NAO RECEBER APOS 30 DIAS DO VENCIMENTO.                                                                                                                                                                                                         09032100000000000000903210000000000000       0090339900009954114983032115000027
100000000000000000000009033990000995400000000000000000000000010002020068875603211300000000002            2  01688756032123032100000002574130000000001N090321000000000000000000000000000000000000000000000000000000000000000100068875673691ILDETE BATISTA NEIVA GOLFAR             RUA FERNANDO FALCAO - 560 AP.21 - MOOCA             03180000                                                            000029
2SR. CAIXA, APOS O VENCIMENTO COBRAR 2% DE MULTA                                 NAO RECEBER APOS 30 DIAS DO VENCIMENTO.                                                                                                                                                                                                         09032100000000000000903210000000000000       0090339900009954688756032113000030
100000000000000000000009033990000995400000000000000000000000010002020000884203211700000000002            2  01008842032123032100000002364260000000001N090321000000000000000000000000000000000000000000000000000000000000000100000884239802ADEMIR MARTINS                          RUA MARECHAL HERMES - 417 AP.52 - BAIRRO            09090230                                                            000032
2SR. CAIXA, APOS O VENCIMENTO COBRAR 2% DE MULTA                                 NAO RECEBER APOS 30 DIAS DO VENCIMENTO.                                                                                                                                                                                                         09032100000000000000903210000000000000       0090339900009954008842032117000033
100000000000000000000009033990000995400000000000000000000000010002020025214403211100000000002            2  01252144032123032100000002297600000000001N090321000000000000000000000000000000000000000000000000000000000000000100025214401833JOSE MAURICIO DOS SANTOS RODRIGUES      RUA JOAO DE MACEDO RIBEIRO - 49 - VILA N            08111101                                                            000035
2SR. CAIXA, APOS O VENCIMENTO COBRAR 2% DE MULTA                                 NAO RECEBER APOS 30 DIAS DO VENCIMENTO.                                                                                                                                                                                                         09032100000000000000903210000000000000       0090339900009954252144032111000036
100000000000000000000009033990000995400000000000000000000000010002020033119103211900000000002            2  01331191032123032100000002307330000000001N090321000000000000000000000000000000000000000000000000000000000000000100033119178802HUGO GOMES VENDRAME                     RUA SAO PAULO - 60 CASA 01 - VILA FREITA            06380110                                                            000038
2SR. CAIXA, APOS O VENCIMENTO COBRAR 2% DE MULTA                                 NAO RECEBER APOS 30 DIAS DO VENCIMENTO.                                                                                                                                                                                                         09032100000000000000903210000000000000       0090339900009954331191032119000039
100000000000000000000009033990000995400000000000000000000000010002020016631503211100000000002            2  01166315032123032100000002347590000000001N090321000000000000000000000000000000000000000000000000000000000000000100016631587468GILBERTO BEZERRA DA SILVA               AVENIDA JAIME TORRES - 745 CASA 3 - JARD            03670000                                                            000041
2SR. CAIXA, APOS O VENCIMENTO COBRAR 2% DE MULTA                                 NAO RECEBER APOS 30 DIAS DO VENCIMENTO.                                                                                                                                                                                                         09032100000000000000903210000000000000       0090339900009954166315032111000042
100000000000000000000009033990000995400000000000000000000000010002020007313203211400000000002            2  01073132032123032100000002330920000000001N090321000000000000000000000000000000000000000000000000000000000000000100007313251840SALVADOR GESUALDO PULVIRENTI            AVENIDA MARARI - 641 - VILA MARARI - SAO            04402010                                                            000044
2SR. CAIXA, APOS O VENCIMENTO COBRAR 2% DE MULTA                                 NAO RECEBER APOS 30 DIAS DO VENCIMENTO.                                                                                                                                                                                                         09032100000000000000903210000000000000       0090339900009954073132032114000045
100000000000000000000009033990000995400000000000000000000000010002020010676703211600000000002            2  01106767032123032100000002432930000000001N090321000000000000000000000000000000000000000000000000000000000000000100010676723896MERCEDES CRISTINA ROCHA SANDOVAL        RUA ITARARE - 446 AP.806 - JARDIM GUILHE            11701620                                                            000047
2SR. CAIXA, APOS O VENCIMENTO COBRAR 2% DE MULTA                                 NAO RECEBER APOS 30 DIAS DO VENCIMENTO.                                                                                                                                                                                                         09032100000000000000903210000000000000       0090339900009954106767032116000048
100000000000000000000009033990000995400000000000000000000000010002020009502803211400000000002            2  01095028032123032100000002540790000000001N090321000000000000000000000000000000000000000000000000000000000000000100009502844831CLAUDIA ROCHA SANDOVAL                  RUA ABAETE - 29.153 - VILA TUPI - PRAIA             11703490                                                            000050
2SR. CAIXA, APOS O VENCIMENTO COBRAR 2% DE MULTA                                 NAO RECEBER APOS 30 DIAS DO VENCIMENTO.                                                                                                                                                                                                         09032100000000000000903210000000000000       0090339900009954095028032114000051
100000000000000000000009033990000995400000000000000000000000010002020007594203211300000000002            2  01075942032123032100000002280930000000001N090321000000000000000000000000000000000000000000000000000000000000000100007594247809JOSE LUIS DE OLIVEIRA                   DONA EGLANTINA PENTEADO DA SILVA PRADO -            13044162                                                            000053
2SR. CAIXA, APOS O VENCIMENTO COBRAR 2% DE MULTA                                 NAO RECEBER APOS 30 DIAS DO VENCIMENTO.                                                                                                                                                                                                         09032100000000000000903210000000000000       0090339900009954075942032113000054
100000000000000000000009033990000995400000000000000000000000010002020005288703211700000000002            2  01052887032123032100000002349600000000001N090321000000000000000000000000000000000000000000000000000000000000000100005288796858MARCELO RODRIGUES FERREIRA              RUA MARCOS ANTONIO MARQUES - 302 - JARDI            06433020                                                            000056
2SR. CAIXA, APOS O VENCIMENTO COBRAR 2% DE MULTA                                 NAO RECEBER APOS 30 DIAS DO VENCIMENTO.                                                                                                                                                                                                         09032100000000000000903210000000000000       0090339900009954052887032117000057
100000000000000000000009033990000995400000000000000000000000010002020015835903211600000000002            2  01158359032123032100000002446770000000001N090321000000000000000000000000000000000000000000000000000000000000000100015835992823FLAVIO VERONEZ                          RUA ANDREA PAULINETTI - 127 AP.42 - BAIR            04707050                                                            000059
2SR. CAIXA, APOS O VENCIMENTO COBRAR 2% DE MULTA                                 NAO RECEBER APOS 30 DIAS DO VENCIMENTO.                                                                                                                                                                                                         09032100000000000000903210000000000000       0090339900009954158359032116000060
9                                                                                                                                                                                                                                                                                                                                                                                                         000061