01REMESSA01COBRANCA       00000000000008017025HB SANTOS CONSTRUTORA E INCORP237BRADESCO       010118        MX0000046                                                                                                                                                                                                                                                                                     000001
100000000000000000000009033990000627000000000000000000000000010002020029671501181500000000002            2  01296715011809011800000002191460000000001N010118000000000000000000000000000000000000000000000000000000000000000100029671526845ROGERIO CONSENTINO                      RUA CARLOS MAZER  - 678 - VILA CARMOSINA            08290700                                                            000002
2SR. CAIXA, APOS O VENCIMENTO COBRAR 2% DE MULTA                                 NAO RECEBER APOS 30 DIAS DO VENCIMENTO.                                                                                                                                                                                                         01011800000000000000101180000000000000       0090339900006270296715011815000003
100000000000000000000009033990000627000000000000000000000000010002020003863001181700000000002            2  01038630011809011800000002070010000000001N010118000000000000000000000000000000000000000000000000000000000000000100003863075803HERALDO MENQUINI                        RUA OCEANICA AMABILE - 346 AP.415 - CIDA            11704420                                                            000005
2SR. CAIXA, APOS O VENCIMENTO COBRAR 2% DE MULTA                                 NAO RECEBER APOS 30 DIAS DO VENCIMENTO.                                                                                                                                                                                                         01011800000000000000101180000000000000       0090339900006270038630011817000006
100000000000000000000009033990000627000000000000000000000000010002020013135201181900000000002            2  01131352011809011800000002531780000000001N010118000000000000000000000000000000000000000000000000000000000000000100013135261859EDUARDO ZANOLA                          RUA ROLANDO PIETRO BONINI - 46 - JARDIM             09781040                                                            000008
2SR. CAIXA, APOS O VENCIMENTO COBRAR 2% DE MULTA                                 NAO RECEBER APOS 30 DIAS DO VENCIMENTO.                                                                                                                                                                                                         01011800000000000000101180000000000000       0090339900006270131352011819000009
100000000000000000000009033990000627000000000000000000000000010002020029028401181400000000002            2  01290284011809011800000002120530000000001N010118000000000000000000000000000000000000000000000000000000000000000100029028478825LEONARDO LOUZADA                        RUA ILHEUS - QUADRA 31 - 244 - BAIRRO CE            19274000                                                            000011
2SR. CAIXA, APOS O VENCIMENTO COBRAR 2% DE MULTA                                 NAO RECEBER APOS 30 DIAS DO VENCIMENTO.                                                                                                                                                                                                         01011800000000000000101180000000000000       0090339900006270290284011814000012
100000000000000000000009033990000627000000000000000000000000010002020032878501181100000000002            2  01328785011809011800000003064590000000001N010118000000000000000000000000000000000000000000000000000000000000000100032878512847LEONARDO MOURA MONIZ CALDEIRA           RUA BALSA - 682 AP.134 T.02 - VILA ARCAD            02910000                                                            000014
2SR. CAIXA, APOS O VENCIMENTO COBRAR 2% DE MULTA                                 NAO RECEBER APOS 30 DIAS DO VENCIMENTO.                                                                                                                                                                                                         01011800000000000000101180000000000000       0090339900006270328785011811000015
100000000000000000000009033990000627000000000000000000000000010002020016479001181900000000002            2  01164790011809011800000003260150000000001N010118000000000000000000000000000000000000000000000000000000000000000100016479002806LOURDES PEREIRA DE QUEIROZ SECANECHIA   RUA PAULINO CURSI - 437 - CIDADE SAO MAT            03960060                                                            000017
2SR. CAIXA, APOS O VENCIMENTO COBRAR 2% DE MULTA                                 NAO RECEBER APOS 30 DIAS DO VENCIMENTO.                                                                                                                                                                                                         01011800000000000000101180000000000000       0090339900006270164790011819000018
100000000000000000000009033990000627000000000000000000000000010002020019635001181600000000002            2  01196350011809011800000002405420000000001N010118000000000000000000000000000000000000000000000000000000000000000100019635091885IVAN VIEIRA SILVA                       ABRAO JORGE - 3001 - JARDIM INTEGRACAO -            14405397                                                            000020
2SR. CAIXA, APOS O VENCIMENTO COBRAR 2% DE MULTA                                 NAO RECEBER APOS 30 DIAS DO VENCIMENTO.                                                                                                                                                                                                         01011800000000000000101180000000000000       0090339900006270196350011816000021
100000000000000000000009033990000627000000000000000000000000010002020009361401181600000000002            2  01093614011809011800000002366890000000001N010118000000000000000000000000000000000000000000000000000000000000000100009361471805JOSE BARBOSA DA SILVA                   RUA ALFREDO INACIO TRINDADE  - 60 AP.44             02344100                                                            000023
2SR. CAIXA, APOS O VENCIMENTO COBRAR 2% DE MULTA                                 NAO RECEBER APOS 30 DIAS DO VENCIMENTO.                                                                                                                                                                                                         01011800000000000000101180000000000000       0090339900006270093614011816000024
100000000000000000000009033990000627000000000000000000000000010002020012756901181P00000000002            2  01127569011809011800000002043120000000001N010118000000000000000000000000000000000000000000000000000000000000000100012756959812ITAMAR JUVENAL DIAS DA SILVA            RUA ELISEU REINALDO MORAES VIEIRA - 90 A            02858000                                                            000026
2SR. CAIXA, APOS O VENCIMENTO COBRAR 2% DE MULTA                                 NAO RECEBER APOS 30 DIAS DO VENCIMENTO.                                                                                                                                                                                                         01011800000000000000101180000000000000       009033990000627012756901181P000027
100000000000000000000009033990000627000000000000000000000000010002020002731001181700000000002            2  01027310011809011800000002415530000000001N010118000000000000000000000000000000000000000000000000000000000000000100002731042842VALTER CERQUEIRA VILLA NOVA             RUA MACHADO - 106 - VILA AUGUSTA - GUARU            07025210                                                            000029
2SR. CAIXA, APOS O VENCIMENTO COBRAR 2% DE MULTA                                 NAO RECEBER APOS 30 DIAS DO VENCIMENTO.                                                                                                                                                                                                         01011800000000000000101180000000000000       0090339900006270027310011817000030
100000000000000000000009033990000627000000000000000000000000010002020002731001182500000000002            2  01027310011809011800000002415530000000001N010118000000000000000000000000000000000000000000000000000000000000000100002731042842VALTER CERQUEIRA VILLA NOVA             RUA MACHADO - 106 - VILA AUGUSTA - GUARU            07025210                                                            000032
2SR. CAIXA, APOS O VENCIMENTO COBRAR 2% DE MULTA                                 NAO RECEBER APOS 30 DIAS DO VENCIMENTO.                                                                                                                                                                                                         01011800000000000000101180000000000000       0090339900006270027310011825000033
100000000000000000000009033990000627000000000000000000000000010002020028802101181500000000002            2  01288021011809011800000002181190000000001N010118000000000000000000000000000000000000000000000000000000000000000100028802158894ELIEL HENRIQUE ZUZA                     RUA MONTE CASTELO - 262 AP.14 - BAIRRO A            11702720                                                            000035
2SR. CAIXA, APOS O VENCIMENTO COBRAR 2% DE MULTA                                 NAO RECEBER APOS 30 DIAS DO VENCIMENTO.                                                                                                                                                                                                         01011800000000000000101180000000000000       0090339900006270288021011815000036
100000000000000000000009033990000627000000000000000000000000010002020008739101181900000000002            2  01087391011809011800000002039960000000001N010118000000000000000000000000000000000000000000000000000000000000000100008739150895VANGEVALDO BATISTA SANT ANNA            TRAVESSA TOMAZIN - 02 - ERMELINO MATARAZ            03811125                                                            000038
2SR. CAIXA, APOS O VENCIMENTO COBRAR 2% DE MULTA                                 NAO RECEBER APOS 30 DIAS DO VENCIMENTO.                                                                                                                                                                                                         01011800000000000000101180000000000000       0090339900006270087391011819000039
100000000000000000000009033990000627000000000000000000000000010002020005313701181500000000002            2  01053137011811011800000001821000000000001N010118000000000000000000000000000000000000000000000000000000000000000100005313717863EDIMICIO JOSE DE ARAUJO                 PRACA NICOLAU GERAIGIRE - 680 CA A - JAR            11095110                                                            000041
2SR. CAIXA, APOS O VENCIMENTO COBRAR 2% DE MULTA                                 NAO RECEBER APOS 30 DIAS DO VENCIMENTO.                                                                                                                                                                                                         01011800000000000000101180000000000000       0090339900006270053137011815000042
100000000000000000000009033990000627000000000000000000000000010002020029433601181300000000002            2  01294336011811011800000001749360000000001N010118000000000000000000000000000000000000000000000000000000000000000100029433631897MARIO MUNIZ                             RUA LIBERO BADARO - 1115 - BAIRRO CIDADE            11704070                                                            000044
2SR. CAIXA, APOS O VENCIMENTO COBRAR 2% DE MULTA                                 NAO RECEBER APOS 30 DIAS DO VENCIMENTO.                                                                                                                                                                                                         01011800000000000000101180000000000000       0090339900006270294336011813000045
100000000000000000000009033990000627000000000000000000000000010002020001847201181100000000002            2  01018472011811011800000001610530000000001N010118000000000000000000000000000000000000000000000000000000000000000100001847204864AMERICA CONCEICAO DA SILVA              RUA CAMINHO DO GUARAMAR - 199 AP.11 BLOC            11721050                                                            000047
2SR. CAIXA, APOS O VENCIMENTO COBRAR 2% DE MULTA                                 NAO RECEBER APOS 30 DIAS DO VENCIMENTO.                                                                                                                                                                                                         01011800000000000000101180000000000000       0090339900006270018472011811000048
100000000000000000000009033990000627000000000000000000000000010002020005029801181600000000002            2  01050298011809011800000002083100000000001N010118000000000000000000000000000000000000000000000000000000000000000100005029828885LAURINETE DA CONCEICAO DE NORONHA       RUA MARIA LUCIA DE TOLEDO LEITE MORAES -            04434040                                                            000050
2SR. CAIXA, APOS O VENCIMENTO COBRAR 2% DE MULTA                                 NAO RECEBER APOS 30 DIAS DO VENCIMENTO.                                                                                                                                                                                                         01011800000000000000101180000000000000       0090339900006270050298011816000051
100000000000000000000009033990000627000000000000000000000000010002020027682101181500000000002            2  01276821011811011800000001697840000000001N010118000000000000000000000000000000000000000000000000000000000000000100027682175818ALINE TEIXEIRA                          RUA CRUZEIRO DO SUL - 309 - JARDIM BOM P            06385060                                                            000053
2SR. CAIXA, APOS O VENCIMENTO COBRAR 2% DE MULTA                                 NAO RECEBER APOS 30 DIAS DO VENCIMENTO.                                                                                                                                                                                                         01011800000000000000101180000000000000       0090339900006270276821011815000054
100000000000000000000009033990000627000000000000000000000000010002020013388901181800000000002            2  01133889011811011800000001705360000000001N010118000000000000000000000000000000000000000000000000000000000000000100013388936889NEUTON DE SOUZA RAMOS                   RUA MARIA CRISTINA - 932 - JARDIM CASQUE            11533160                                                            000056
2SR. CAIXA, APOS O VENCIMENTO COBRAR 2% DE MULTA                                 NAO RECEBER APOS 30 DIAS DO VENCIMENTO.                                                                                                                                                                                                         01011800000000000000101180000000000000       0090339900006270133889011818000057
100000000000000000000009033990000627000000000000000000000000010002020012774901181800000000002            2  01127749011811011800000001737360000000001N010118000000000000000000000000000000000000000000000000000000000000000100012774906865JOSE MILTON SANTIAGO                    RUA BATATAIS - 47 - CIDADE ESTELA - POA             08563140                                                            000059
2SR. CAIXA, APOS O VENCIMENTO COBRAR 2% DE MULTA                                 NAO RECEBER APOS 30 DIAS DO VENCIMENTO.                                                                                                                                                                                                         01011800000000000000101180000000000000       0090339900006270127749011818000060
100000000000000000000009033990000627000000000000000000000000010002020004234901181300000000002            2  01042349011809011800000003035610000000001N010118000000000000000000000000000000000000000000000000000000000000000100004234989835LUIZ ISRAEL DA COSTA                    AVENIDA FERNANDO PACHECO JORDAO - 907 -             08121510                                                            000062
2SR. CAIXA, APOS O VENCIMENTO COBRAR 2% DE MULTA                                 NAO RECEBER APOS 30 DIAS DO VENCIMENTO.                                                                                                                                                                                                         01011800000000000000101180000000000000       0090339900006270042349011813000063
100000000000000000000009033990000627000000000000000000000000010002020016294101181300000000002            2  01162941011809011800000002068170000000001N010118000000000000000000000000000000000000000000000000000000000000000100016294119812JURACY FELIX DE ARRUDA                  RUA ERNA - 13 - ALTO DA MOOCA - SAO PAUL            03165050                                                            000065
2SR. CAIXA, APOS O VENCIMENTO COBRAR 2% DE MULTA                                 NAO RECEBER APOS 30 DIAS DO VENCIMENTO.                                                                                                                                                                                                         01011800000000000000101180000000000000       0090339900006270162941011813000066
100000000000000000000009033990000627000000000000000000000000010002020005613801181800000000002            2  01056138011811011800000001597910000000001N010118000000000000000000000000000000000000000000000000000000000000000100005613843805NILZA MARIA DE OLIVEIRA                 RUA JOSE GONCALVES DE FREITAS - 66 C2 -             08210550                                                            000068
2SR. CAIXA, APOS O VENCIMENTO COBRAR 2% DE MULTA                                 NAO RECEBER APOS 30 DIAS DO VENCIMENTO.                                                                                                                                                                                                         01011800000000000000101180000000000000       0090339900006270056138011818000069
100000000000000000000009033990000627000000000000000000000000010002020007574901181800000000002            2  01075749011811011800000001640220000000001N010118000000000000000000000000000000000000000000000000000000000000000100007574936889JORGE LUCIANO PEREIRA BORRIELLO         RUA FABIO DE ALMEIDA MAGALHAES - 179 - J            05135370                                                            000071
2SR. CAIXA, APOS O VENCIMENTO COBRAR 2% DE MULTA                                 NAO RECEBER APOS 30 DIAS DO VENCIMENTO.                                                                                                                                                                                                         01011800000000000000101180000000000000       0090339900006270075749011818000072
100000000000000000000009033990000627000000000000000000000000010002020032408101181000000000002            2  01324081011811011800000001546370000000001N010118000000000000000000000000000000000000000000000000000000000000000100032408151848DEILSON DO NASCIMENTO CANDIDO DA SILVA  RUA HEREMITA SANTA DO NASCIMENTO - 37 AP            11345340                                                            000074
2SR. CAIXA, APOS O VENCIMENTO COBRAR 2% DE MULTA                                 NAO RECEBER APOS 30 DIAS DO VENCIMENTO.                                                                                                                                                                                                         01011800000000000000101180000000000000       0090339900006270324081011810000075
100000000000000000000009033990000627000000000000000000000000010002020008214901181000000000002            2  01082149011811011800000001665100000000001N010118000000000000000000000000000000000000000000000000000000000000000100008214973830JAMIL CHALA                             AVENIDA COSTA MACHADO - 291 AP.133-A - C            11700650                                                            000077
2SR. CAIXA, APOS O VENCIMENTO COBRAR 2% DE MULTA                                 NAO RECEBER APOS 30 DIAS DO VENCIMENTO.                                                                                                                                                                                                         01011800000000000000101180000000000000       0090339900006270082149011810000078
100000000000000000000009033990000627000000000000000000000000010002020032495001181800000000002            2  01324950011811011800000001865960000000001N010118000000000000000000000000000000000000000000000000000000000000000100032495004881PAULO EDUARDO DOS SANTOS                RUA REPUBLICA DO IRAQUE - 1119 - CAMPO B            04611002                                                            000080
2SR. CAIXA, APOS O VENCIMENTO COBRAR 2% DE MULTA                                 NAO RECEBER APOS 30 DIAS DO VENCIMENTO.                                                                                                                                                                                                         01011800000000000000101180000000000000       0090339900006270324950011818000081
100000000000000000000009033990000627000000000000000000000000010002020006471801181800000000002            2  01064718011809011800000002036170000000001N010118000000000000000000000000000000000000000000000000000000000000000100006471825803JOSIVALDO BASTOS DE OLIVEIRA            RUA MARIA DIAS HOG - 263 - PARQUE CONTIN            07085035                                                            000083
2SR. CAIXA, APOS O VENCIMENTO COBRAR 2% DE MULTA                                 NAO RECEBER APOS 30 DIAS DO VENCIMENTO.                                                                                                                                                                                                         01011800000000000000101180000000000000       0090339900006270064718011818000084
100000000000000000000009033990000627000000000000000000000000010002020038856801181400000000002            2  01388568011811011800000001729790000000001N010118000000000000000000000000000000000000000000000000000000000000000100038856851830FELIPE BIANCHI DA COSTA FREITAS         AVENIDA ENGENHEIRO ARMANDO DE ARRUDA PER            04325001                                                            000086
2SR. CAIXA, APOS O VENCIMENTO COBRAR 2% DE MULTA                                 NAO RECEBER APOS 30 DIAS DO VENCIMENTO.                                                                                                                                                                                                         01011800000000000000101180000000000000       0090339900006270388568011814000087
100000000000000000000009033990000627000000000000000000000000010002020030098601181800000000002            2  01300986011811011800000001756920000000001N010118000000000000000000000000000000000000000000000000000000000000000100030098603825DEUZIANA MOREIRA DE SA                  RUA JOAO AVELINO PINHO MELLAO - 114 - JA            05659010                                                            000089
2SR. CAIXA, APOS O VENCIMENTO COBRAR 2% DE MULTA                                 NAO RECEBER APOS 30 DIAS DO VENCIMENTO.                                                                                                                                                                                                         01011800000000000000101180000000000000       0090339900006270300986011818000090
100000000000000000000009033990000627000000000000000000000000010002020030098601182600000000002            2  01300986011811011800000001756920000000001N010118000000000000000000000000000000000000000000000000000000000000000100030098603825DEUZIANA MOREIRA DE SA                  RUA JOAO AVELINO PINHO MELLAO - 114 - JA            05659010                                                            000092
2SR. CAIXA, APOS O VENCIMENTO COBRAR 2% DE MULTA                                 NAO RECEBER APOS 30 DIAS DO VENCIMENTO.                                                                                                                                                                                                         01011800000000000000101180000000000000       0090339900006270300986011826000093
100000000000000000000009033990000627000000000000000000000000010002020029339001181400000000002            2  01293390011811011800000001749950000000001N010118000000000000000000000000000000000000000000000000000000000000000100029339051831RONALD DIDOFF                           RUA CORONEL FERREIRA BRAGA - 188 - VILA             03522010                                                            000095
2SR. CAIXA, APOS O VENCIMENTO COBRAR 2% DE MULTA                                 NAO RECEBER APOS 30 DIAS DO VENCIMENTO.                                                                                                                                                                                                         01011800000000000000101180000000000000       0090339900006270293390011814000096
100000000000000000000009033990000627000000000000000000000000010002020017357801181600000000002            2  01173578011811011800000001853350000000001N010118000000000000000000000000000000000000000000000000000000000000000100017357859894MARCIO GUIMARAES                        RUA GENERAL CAMARA - 188 SALA 11 - CENTR            11010120                                                            000098
2SR. CAIXA, APOS O VENCIMENTO COBRAR 2% DE MULTA                                 NAO RECEBER APOS 30 DIAS DO VENCIMENTO.                                                                                                                                                                                                         01011800000000000000101180000000000000       0090339900006270173578011816000099
100000000000000000000009033990000627000000000000000000000000010002020010563001181600000000002            2  01105630011811011800000001900730000000001N010118000000000000000000000000000000000000000000000000000000000000000100010563033878VERA LUCIA RIBEIRO LONGANEZI            RUA DOS CAMARES - 150 AP.24 BL.02 - CARA            02068030                                                            000101
2SR. CAIXA, APOS O VENCIMENTO COBRAR 2% DE MULTA                                 NAO RECEBER APOS 30 DIAS DO VENCIMENTO.                                                                                                                                                                                                         01011800000000000000101180000000000000       0090339900006270105630011816000102
100000000000000000000009033990000627000000000000000000000000010002020005529601181000000000002            2  01055296011811011800000001724830000000001N010118000000000000000000000000000000000000000000000000000000000000000100005529616801JOAQUIM JORGE DA COSTA                  RUA CONEGO XAVIER - 13 - SACOMA - SAO PA            04231030                                                            000104
2SR. CAIXA, APOS O VENCIMENTO COBRAR 2% DE MULTA                                 NAO RECEBER APOS 30 DIAS DO VENCIMENTO.                                                                                                                                                                                                         01011800000000000000101180000000000000       0090339900006270055296011810000105
100000000000000000000009033990000627000000000000000000000000010002020022014101181500000000002            2  01220141011811011800000001719810000000001N010118000000000000000000000000000000000000000000000000000000000000000100022014140847CAMILA SILVEIRA CANIZARES               AVENIDA PRESIDENTE CASTELO BRANCO - 5.74            11703650                                                            000107
2SR. CAIXA, APOS O VENCIMENTO COBRAR 2% DE MULTA                                 NAO RECEBER APOS 30 DIAS DO VENCIMENTO.                                                                                                                                                                                                         01011800000000000000101180000000000000       0090339900006270220141011815000108
9                                                                                                                                                                                                                                                                                                                                                                                                         000109