01REMESSA01COBRANCA       00000000000008017025HB SANTOS CONSTRUTORA E INCORP237BRADESCO       011021        MX0000139                                                                                                                                                                                                                                                                                     000001
100000000000000000000009033990000627000000000000000000000000010002020025035110211900000000002            2  01250351102124102100000002539700000000001N011021000000000000000000000000000000000000000000000000000000000000000100025035170802WANDERSON LUIS DE CARVALHO              RUA JOAQUIM GONCALVES ROCHA - 302 - JARD            02859030                                                            000002
2SR. CAIXA, APOS O VENCIMENTO COBRAR 2% DE MULTA                                 NAO RECEBER APOS 30 DIAS DO VENCIMENTO.                                                                                                                                                                                                         01102100000000000000110210000000000000       0090339900006270250351102119000003
100000000000000000000009033990000627000000000000000000000000010002020007294310211600000000002            2  01072943102124102100000003415900000000001N011021000000000000000000000000000000000000000000000000000000000000000100007294351805CLAUDENIR APARECIDO VACARI              RUA CARLOS JOSE BORSTENS - 50 AP.93 - AV            11702750                                                            000005
2SR. CAIXA, APOS O VENCIMENTO COBRAR 2% DE MULTA                                 NAO RECEBER APOS 30 DIAS DO VENCIMENTO.                                                                                                                                                                                                         01102100000000000000110210000000000000       0090339900006270072943102116000006
100000000000000000000009033990000627000000000000000000000000010002020007525010211100000000002            2  01075250102124102100000003820840000000001N011021000000000000000000000000000000000000000000000000000000000000000100007525032866FERNANDO RIBEIRO                        RUA CARLOS JOSE BORSTENS - 50 AP.32 - AV            11702750                                                            000008
2SR. CAIXA, APOS O VENCIMENTO COBRAR 2% DE MULTA                                 NAO RECEBER APOS 30 DIAS DO VENCIMENTO.                                                                                                                                                                                                         01102100000000000000110210000000000000       0090339900006270075250102111000009
100000000000000000000009033990000627000000000000000000000000010002020005071410211700000000002            2  01050714102124102100000003351620000000001N011021000000000000000000000000000000000000000000000000000000000000000100005071481855ERIBALDO SANTANA CARVALHO               RUA HONDURAS - 477 - PARQUE DAS AMERICAS            09351070                                                            000011
2SR. CAIXA, APOS O VENCIMENTO COBRAR 2% DE MULTA                                 NAO RECEBER APOS 30 DIAS DO VENCIMENTO.                                                                                                                                                                                                         01102100000000000000110210000000000000       0090339900006270050714102117000012
100000000000000000000009033990000627000000000000000000000000010002020002841710211000000000002            2  01028417102124102100000003135750000000001N011021000000000000000000000000000000000000000000000000000000000000000100002841756416LUCIANA PINHEIRO DE ASSIS NUNES         RUA RIO ACIMA - 81 - RIACHO GRANDE - SAO            09830100                                                            000014
2SR. CAIXA, APOS O VENCIMENTO COBRAR 2% DE MULTA                                 NAO RECEBER APOS 30 DIAS DO VENCIMENTO.                                                                                                                                                                                                         01102100000000000000110210000000000000       0090339900006270028417102110000015
100000000000000000000009033990000627000000000000000000000000010002020084302010211P00000000002            2  01843020102124102100000003150780000000001N011021000000000000000000000000000000000000000000000000000000000000000100084302097868FAUSTO TADEU VILOR                      RUA ANTONIO TAVARES - 466 - BAIRRO CAMBU            01542010                                                            000017
2SR. CAIXA, APOS O VENCIMENTO COBRAR 2% DE MULTA                                 NAO RECEBER APOS 30 DIAS DO VENCIMENTO.                                                                                                                                                                                                         01102100000000000000110210000000000000       009033990000627084302010211P000018
100000000000000000000009033990000627000000000000000000000000010002020028804210211P00000000002            2  01288042102124102100000003095680000000001N011021000000000000000000000000000000000000000000000000000000000000000100028804202882GILBERTO FABIANO CABRAL DE CAMARGO      RUA CARLOS JOSE BORSTENS - 50 AP.44 - AV            11702750                                                            000020
2SR. CAIXA, APOS O VENCIMENTO COBRAR 2% DE MULTA                                 NAO RECEBER APOS 30 DIAS DO VENCIMENTO.                                                                                                                                                                                                         01102100000000000000110210000000000000       009033990000627028804210211P000021
100000000000000000000009033990000627000000000000000000000000010002020000991710211200000000002            2  01009917102124102100000003021510000000001N011021000000000000000000000000000000000000000000000000000000000000000100000991748808JAILSON BORGES DE ANDRADE               RUA IPIOBUNA - 45 - JARDIM CUMBICA - GUA            07240040                                                            000023
2SR. CAIXA, APOS O VENCIMENTO COBRAR 2% DE MULTA                                 NAO RECEBER APOS 30 DIAS DO VENCIMENTO.                                                                                                                                                                                                         01102100000000000000110210000000000000       0090339900006270009917102112000024
100000000000000000000009033990000627000000000000000000000000010002020022151610211900000000002            2  01221516102124102100000003003950000000001N011021000000000000000000000000000000000000000000000000000000000000000100022151666816SAMIR LIMA DE ARAUJO                    AVENIDA GUARAPIRANGA - 2616 AP.131 BL.14            04902005                                                            000026
2SR. CAIXA, APOS O VENCIMENTO COBRAR 2% DE MULTA                                 NAO RECEBER APOS 30 DIAS DO VENCIMENTO.                                                                                                                                                                                                         01102100000000000000110210000000000000       0090339900006270221516102119000027
100000000000000000000009033990000627000000000000000000000000010002020022313110211000000000002            2  01223131102126102100000002310760000000001N011021000000000000000000000000000000000000000000000000000000000000000100022313116824ROSA MARIA BRITO DA SILVA               RUA SERVIDAO DE SAO MARCOS - 113 - JARDI            04930300                                                            000029
2SR. CAIXA, APOS O VENCIMENTO COBRAR 2% DE MULTA                                 NAO RECEBER APOS 30 DIAS DO VENCIMENTO.                                                                                                                                                                                                         01102100000000000000110210000000000000       0090339900006270223131102110000030
100000000000000000000009033990000627000000000000000000000000010002020027538010211200000000002            2  01275380102126102100000002318820000000001N011021000000000000000000000000000000000000000000000000000000000000000100027538087249MARA LUCIA MENEZES DA COSTA             RUA LEILA  - 183 - ITAQUERA - SAO PAULO             08240020                                                            000032
2SR. CAIXA, APOS O VENCIMENTO COBRAR 2% DE MULTA                                 NAO RECEBER APOS 30 DIAS DO VENCIMENTO.                                                                                                                                                                                                         01102100000000000000110210000000000000       0090339900006270275380102112000033
100000000000000000000009033990000627000000000000000000000000010002020031278410211900000000002            2  01312784102124102100000002901920000000001N011021000000000000000000000000000000000000000000000000000000000000000100031278411836JEFFERSON DE PIERI PIRES ZAMUNER        RUA MANOEL ARCE - 277 - PARQUE BANCARIO             03922150                                                            000035
2SR. CAIXA, APOS O VENCIMENTO COBRAR 2% DE MULTA                                 NAO RECEBER APOS 30 DIAS DO VENCIMENTO.                                                                                                                                                                                                         01102100000000000000110210000000000000       0090339900006270312784102119000036
100000000000000000000009033990000627000000000000000000000000010002020019185710211000000000002            2  01191857102126102100000002110180000000001N011021000000000000000000000000000000000000000000000000000000000000000100019185769800AGUINALDO PESSOA DE LIMA                RUA JANUARIO ZINGARO - 252 AP.303 BL.04             05794300                                                            000038
2SR. CAIXA, APOS O VENCIMENTO COBRAR 2% DE MULTA                                 NAO RECEBER APOS 30 DIAS DO VENCIMENTO.                                                                                                                                                                                                         01102100000000000000110210000000000000       0090339900006270191857102110000039
100000000000000000000009033990000627000000000000000000000000010002020033303610211100000000002            2  01333036102126102100000002272840000000001N011021000000000000000000000000000000000000000000000000000000000000000100033303645809JESSICA DA SILVA FREITAS                RUA ARILDO VALADAO - 120 - JARDIM GUAEMB            04814600                                                            000041
2SR. CAIXA, APOS O VENCIMENTO COBRAR 2% DE MULTA                                 NAO RECEBER APOS 30 DIAS DO VENCIMENTO.                                                                                                                                                                                                         01102100000000000000110210000000000000       0090339900006270333036102111000042
100000000000000000000009033990000627000000000000000000000000010002020006422610211700000000002            2  01064226102124102100000003142840000000001N011021000000000000000000000000000000000000000000000000000000000000000100006422607881GERALDO ALVES DA SILVA                  RUA CARLOS JOSE BORSTENS - 50 AP.14 - AV            11702750                                                            000044
2SR. CAIXA, APOS O VENCIMENTO COBRAR 2% DE MULTA                                 NAO RECEBER APOS 30 DIAS DO VENCIMENTO.                                                                                                                                                                                                         01102100000000000000110210000000000000       0090339900006270064226102117000045
100000000000000000000009033990000627000000000000000000000000010002020033877110211900000000002            2  01338771102126102100000002130860000000001N011021000000000000000000000000000000000000000000000000000000000000000100033877129870HELDER FERREIRA VIANA                   RUA JOSE CALIXTO DO CARMO - 286 AP.35 -             11702690                                                            000047
2SR. CAIXA, APOS O VENCIMENTO COBRAR 2% DE MULTA                                 NAO RECEBER APOS 30 DIAS DO VENCIMENTO.                                                                                                                                                                                                         01102100000000000000110210000000000000       0090339900006270338771102119000048
100000000000000000000009033990000627000000000000000000000000010002020028290710211200000000002            2  01282907102126102100000001963870000000001N011021000000000000000000000000000000000000000000000000000000000000000100028290719809VANESSA GIANGARRELLI PEREIRA            RUA BARINEL - 72 - JARDIM COTCHING - SAO            03462130                                                            000050
2SR. CAIXA, APOS O VENCIMENTO COBRAR 2% DE MULTA                                 NAO RECEBER APOS 30 DIAS DO VENCIMENTO.                                                                                                                                                                                                         01102100000000000000110210000000000000       0090339900006270282907102112000051
100000000000000000000009033990000627000000000000000000000000010002020087573010211800000000002            2  01875730102126102100000002144520000000001N011021000000000000000000000000000000000000000000000000000000000000000100087573059604VANDERLEY DE ASSIS                      RUA ROMEU ALBANI - 268 - JARDIM PARQUE R            13803810                                                            000053
2SR. CAIXA, APOS O VENCIMENTO COBRAR 2% DE MULTA                                 NAO RECEBER APOS 30 DIAS DO VENCIMENTO.                                                                                                                                                                                                         01102100000000000000110210000000000000       0090339900006270875730102118000054
100000000000000000000009033990000627000000000000000000000000010002020010825510211500000000002            2  01108255102126102100000002237910000000001N011021000000000000000000000000000000000000000000000000000000000000000100010825513847JOSE APARECIDO PEREIRA                  RUA GENERAL OSORIO - 305 - JARDIM TRINTA            11515130                                                            000056
2SR. CAIXA, APOS O VENCIMENTO COBRAR 2% DE MULTA                                 NAO RECEBER APOS 30 DIAS DO VENCIMENTO.                                                                                                                                                                                                         01102100000000000000110210000000000000       0090339900006270108255102115000057
100000000000000000000009033990000627000000000000000000000000010002020039115110211700000000002            2  01391151102126102100000002758620000000001N011021000000000000000000000000000000000000000000000000000000000000000100039115139840LAIS CRISTINA RIBEIRO ANDO              RUA JOSE CALIXTO DO CARMO - 286 AP.65 -             11702690                                                            000059
2SR. CAIXA, APOS O VENCIMENTO COBRAR 2% DE MULTA                                 NAO RECEBER APOS 30 DIAS DO VENCIMENTO.                                                                                                                                                                                                         01102100000000000000110210000000000000       0090339900006270391151102117000060
100000000000000000000009033990000627000000000000000000000000010002020029617510211500000000002            2  01296175102124102100000003084780000000001N011021000000000000000000000000000000000000000000000000000000000000000100029617510553MARILENE SOUZA DE OLIVEIRA              AVENIDA BRASIL - 393 AP.09 - PARQUE DAS             09210280                                                            000062
2SR. CAIXA, APOS O VENCIMENTO COBRAR 2% DE MULTA                                 NAO RECEBER APOS 30 DIAS DO VENCIMENTO.                                                                                                                                                                                                         01102100000000000000110210000000000000       0090339900006270296175102115000063
100000000000000000000009033990000627000000000000000000000000010002020000593210211500000000002            2  01005932102124102100000003383270000000001N011021000000000000000000000000000000000000000000000000000000000000000100000593293860WALTER HELIO BARBOSA FILHO              AVENIDA ANTONIO FREDERICO OZANAN - 9500             13214206                                                            000065
2SR. CAIXA, APOS O VENCIMENTO COBRAR 2% DE MULTA                                 NAO RECEBER APOS 30 DIAS DO VENCIMENTO.                                                                                                                                                                                                         01102100000000000000110210000000000000       0090339900006270005932102115000066
100000000000000000000009033990000627000000000000000000000000010002020065584110211700000000002            2  01655841102124102100000001776040000000001N011021000000000000000000000000000000000000000000000000000000000000000100065584147834JOAQUIM DA COSTA MACHADO NETO           RUA CARLOS JOSE BORSTENS - 50 AP.42 - AV            11702750                                                            000068
2SR. CAIXA, APOS O VENCIMENTO COBRAR 2% DE MULTA                                 NAO RECEBER APOS 30 DIAS DO VENCIMENTO.                                                                                                                                                                                                         01102100000000000000110210000000000000       0090339900006270655841102117000069
100000000000000000000009033990000627000000000000000000000000010002020065584110212500000000002            2  01655841102124102100000001776030000000001N011021000000000000000000000000000000000000000000000000000000000000000100065584147834JOAQUIM DA COSTA MACHADO NETO           RUA CARLOS JOSE BORSTENS - 50 AP.42 - AV            11702750                                                            000071
2SR. CAIXA, APOS O VENCIMENTO COBRAR 2% DE MULTA                                 NAO RECEBER APOS 30 DIAS DO VENCIMENTO.                                                                                                                                                                                                         01102100000000000000110210000000000000       0090339900006270655841102125000072
100000000000000000000009033990000627000000000000000000000000010002020006684610211P00000000002            2  01066846102126102100000002272570000000001N011021000000000000000000000000000000000000000000000000000000000000000100006684623884LAUDINOR VIEIRA GARCIA                  RUA CANDIDO SALES - 374 - JARDIM PRESIDE            07172000                                                            000074
2SR. CAIXA, APOS O VENCIMENTO COBRAR 2% DE MULTA                                 NAO RECEBER APOS 30 DIAS DO VENCIMENTO.                                                                                                                                                                                                         01102100000000000000110210000000000000       009033990000627006684610211P000075
100000000000000000000009033990000627000000000000000000000000010002020011663510211000000000002            2  01116635102126102100000002288910000000001N011021000000000000000000000000000000000000000000000000000000000000000100011663589844MARIA SAVIO QUARELLO                    AVENIDA MENDONCA DRUMOND - 321 - JARDIM             03524030                                                            000077
2SR. CAIXA, APOS O VENCIMENTO COBRAR 2% DE MULTA                                 NAO RECEBER APOS 30 DIAS DO VENCIMENTO.                                                                                                                                                                                                         01102100000000000000110210000000000000       0090339900006270116635102110000078
100000000000000000000009033990000627000000000000000000000000010002020010083810211200000000002            2  01100838102126102100000002211470000000001N011021000000000000000000000000000000000000000000000000000000000000000100010083824855IONE FERREIRA COUTO DA SILVA            RUA JOSE RAGEL DE MESQUITA - 60 CS.01 -             07799999                                                            000080
2SR. CAIXA, APOS O VENCIMENTO COBRAR 2% DE MULTA                                 NAO RECEBER APOS 30 DIAS DO VENCIMENTO.                                                                                                                                                                                                         01102100000000000000110210000000000000       0090339900006270100838102112000081
100000000000000000000009033990000627000000000000000000000000010002020031010710211800000000002            2  01310107102126102100000002170170000000001N011021000000000000000000000000000000000000000000000000000000000000000100031010705890ANDRE GONZALEZ RABELLO                  RUA PARAIBA - 106 AP.61 - POMPEIA - SANT            11065470                                                            000083
2SR. CAIXA, APOS O VENCIMENTO COBRAR 2% DE MULTA                                 NAO RECEBER APOS 30 DIAS DO VENCIMENTO.                                                                                                                                                                                                         01102100000000000000110210000000000000       0090339900006270310107102118000084
100000000000000000000009033990000627000000000000000000000000010002020005351010211700000000002            2  01053510102126102100000002034750000000001N011021000000000000000000000000000000000000000000000000000000000000000100005351015897VALERIA ALVES MARCOLINO HINNIGER        RUA JOSE CALIXTO DO CARMO - 286 AP.92 -             11702690                                                            000086
2SR. CAIXA, APOS O VENCIMENTO COBRAR 2% DE MULTA                                 NAO RECEBER APOS 30 DIAS DO VENCIMENTO.                                                                                                                                                                                                         01102100000000000000110210000000000000       0090339900006270053510102117000087
100000000000000000000009033990000627000000000000000000000000010002020031898710211200000000002            2  01318987102124102100000003237240000000001N011021000000000000000000000000000000000000000000000000000000000000000100031898775800ANITA MARTINS COLOMBO                   RUA CARLOS JOSE BORSTENS - 50 AP.115 - A            11702750                                                            000089
2SR. CAIXA, APOS O VENCIMENTO COBRAR 2% DE MULTA                                 NAO RECEBER APOS 30 DIAS DO VENCIMENTO.                                                                                                                                                                                                         01102100000000000000110210000000000000       0090339900006270318987102112000090
100000000000000000000009033990000627000000000000000000000000010002020037983410211200000000002            2  01379834102126102100000002390190000000001N011021000000000000000000000000000000000000000000000000000000000000000100037983484801JOSE ERIVALDO SOUZA DO NASCIMENTO RAMOS RUA LETICIA - 250 - JARDIM GUARUJA - SAO            05877260                                                            000092
2SR. CAIXA, APOS O VENCIMENTO COBRAR 2% DE MULTA                                 NAO RECEBER APOS 30 DIAS DO VENCIMENTO.                                                                                                                                                                                                         01102100000000000000110210000000000000       0090339900006270379834102112000093
100000000000000000000009033990000627000000000000000000000000010002020056289210211300000000002            2  01562892102126102100000001805660000000001N011021000000000000000000000000000000000000000000000000000000000000000100056289286900PEDRO RIBEIRO                           RUA CONEGO MANOEL VAZ - 48 - SANTANA - S            02019050                                                            000095
2SR. CAIXA, APOS O VENCIMENTO COBRAR 2% DE MULTA                                 NAO RECEBER APOS 30 DIAS DO VENCIMENTO.                                                                                                                                                                                                         01102100000000000000110210000000000000       0090339900006270562892102113000096
100000000000000000000009033990000627000000000000000000000000010002020034735310211P00000000002            2  01347353102126102100000002478160000000001N011021000000000000000000000000000000000000000000000000000000000000000100034735328866DIEGO FELIPE MOLINA DA SILVA E SOUSA    RUA EMILIA PAULISTA - 135 - VILA TIRADEN            05364020                                                            000098
2SR. CAIXA, APOS O VENCIMENTO COBRAR 2% DE MULTA                                 NAO RECEBER APOS 30 DIAS DO VENCIMENTO.                                                                                                                                                                                                         01102100000000000000110210000000000000       009033990000627034735310211P000099
100000000000000000000009033990000627000000000000000000000000010002020076175610211000000000002            2  01761756102124102100000004492610000000001N011021000000000000000000000000000000000000000000000000000000000000000100076175685687GILMAR DE OLIVEIRA BRAGA                RUA MARACAJU - 161 AP.202 - NOVA GRANADA            30431350                                                            000101
2SR. CAIXA, APOS O VENCIMENTO COBRAR 2% DE MULTA                                 NAO RECEBER APOS 30 DIAS DO VENCIMENTO.                                                                                                                                                                                                         01102100000000000000110210000000000000       0090339900006270761756102110000102
100000000000000000000009033990000627000000000000000000000000010002020034812210211300000000002            2  01348122102124102100000004284640000000001N011021000000000000000000000000000000000000000000000000000000000000000100034812226880THAIS TORQUATO MIMOSO DE JESUS          RUA ARNALDO CINTRA - 416 AP.104 TORRE 2             03088000                                                            000104
2SR. CAIXA, APOS O VENCIMENTO COBRAR 2% DE MULTA                                 NAO RECEBER APOS 30 DIAS DO VENCIMENTO.                                                                                                                                                                                                         01102100000000000000110210000000000000       0090339900006270348122102113000105
100000000000000000000009033990000627000000000000000000000000010002020012849410211P00000000002            2  01128494102126102100000004269210000000001N011021000000000000000000000000000000000000000000000000000000000000000100012849428809MOISES CLAUDIO DO ROSARIO               AVENIDA DR. AUGUSTO DE TOLEDO - 510 AP.1            09541520                                                            000107
2SR. CAIXA, APOS O VENCIMENTO COBRAR 2% DE MULTA                                 NAO RECEBER APOS 30 DIAS DO VENCIMENTO.                                                                                                                                                                                                         01102100000000000000110210000000000000       009033990000627012849410211P000108
100000000000000000000009033990000627000000000000000000000000010002020015702310211P00000000002            2  01157023102126102100000002368640000000001N011021000000000000000000000000000000000000000000000000000000000000000100015702353846MARIA DE LOURDES DE MACENO SOUZA        RUA JOSE CALIXTO DO CARMO - 286 AP.83 -             11702690                                                            000110
2SR. CAIXA, APOS O VENCIMENTO COBRAR 2% DE MULTA                                 NAO RECEBER APOS 30 DIAS DO VENCIMENTO.                                                                                                                                                                                                         01102100000000000000110210000000000000       009033990000627015702310211P000111
100000000000000000000009033990000627000000000000000000000000010002020003658610211400000000002            2  01036586102126102100000001763690000000001N011021000000000000000000000000000000000000000000000000000000000000000100003658668814MARINEZ VALENTIN                        RUA JOSE CALIXTO DO CARMO - 286 AP.95 -             11702690                                                            000113
2SR. CAIXA, APOS O VENCIMENTO COBRAR 2% DE MULTA                                 NAO RECEBER APOS 30 DIAS DO VENCIMENTO.                                                                                                                                                                                                         01102100000000000000110210000000000000       0090339900006270036586102114000114
100000000000000000000009033990000627000000000000000000000000010002020003658610212200000000002            2  01036586102126102100000001763680000000001N011021000000000000000000000000000000000000000000000000000000000000000100003658668814MARINEZ VALENTIN                        RUA JOSE CALIXTO DO CARMO - 286 AP.95 -             11702690                                                            000116
2SR. CAIXA, APOS O VENCIMENTO COBRAR 2% DE MULTA                                 NAO RECEBER APOS 30 DIAS DO VENCIMENTO.                                                                                                                                                                                                         01102100000000000000110210000000000000       0090339900006270036586102122000117
100000000000000000000009033990000627000000000000000000000000010002020014087410211200000000002            2  01140874102126102100000002357030000000001N011021000000000000000000000000000000000000000000000000000000000000000100014087484874SERGIO SANTOS DO NASCIMENTO             RUA JOSE CALIXTO DO CARMO - 286 AP.52 -             11702690                                                            000119
2SR. CAIXA, APOS O VENCIMENTO COBRAR 2% DE MULTA                                 NAO RECEBER APOS 30 DIAS DO VENCIMENTO.                                                                                                                                                                                                         01102100000000000000110210000000000000       0090339900006270140874102112000120
100000000000000000000009033990000627000000000000000000000000010002020026834510211100000000002            2  01268345102126102100000002171720000000001N011021000000000000000000000000000000000000000000000000000000000000000100026834550895RAQUEL CARDOSO JOAO                     RUA PEDROSO XAVIER - 277 AP.23 TORRE 01             02732020                                                            000122
2SR. CAIXA, APOS O VENCIMENTO COBRAR 2% DE MULTA                                 NAO RECEBER APOS 30 DIAS DO VENCIMENTO.                                                                                                                                                                                                         01102100000000000000110210000000000000       0090339900006270268345102111000123
100000000000000000000009033990000627000000000000000000000000010002020039540010211P00000000002            2  01395400102126102100000002135100000000001N011021000000000000000000000000000000000000000000000000000000000000000100039540008816LUZINETE CLARINDO SILVA                 RUA DEINOS - 275 - BAIRRO CIDADE SATELIT            08340100                                                            000125
2SR. CAIXA, APOS O VENCIMENTO COBRAR 2% DE MULTA                                 NAO RECEBER APOS 30 DIAS DO VENCIMENTO.                                                                                                                                                                                                         01102100000000000000110210000000000000       009033990000627039540010211P000126
100000000000000000000009033990000627000000000000000000000000010002020039540010212800000000002            2  01395400102126102100000002135080000000001N011021000000000000000000000000000000000000000000000000000000000000000100039540008816LUZINETE CLARINDO SILVA                 RUA DEINOS - 275 - BAIRRO CIDADE SATELIT            08340100                                                            000128
2SR. CAIXA, APOS O VENCIMENTO COBRAR 2% DE MULTA                                 NAO RECEBER APOS 30 DIAS DO VENCIMENTO.                                                                                                                                                                                                         01102100000000000000110210000000000000       0090339900006270395400102128000129
100000000000000000000009033990000627000000000000000000000000010002020039540010213600000000002            2  01395400102126102100000002135090000000001N011021000000000000000000000000000000000000000000000000000000000000000100039540008816LUZINETE CLARINDO SILVA                 RUA DEINOS - 275 - BAIRRO CIDADE SATELIT            08340100                                                            000131
2SR. CAIXA, APOS O VENCIMENTO COBRAR 2% DE MULTA                                 NAO RECEBER APOS 30 DIAS DO VENCIMENTO.                                                                                                                                                                                                         01102100000000000000110210000000000000       0090339900006270395400102136000132
100000000000000000000009033990000627000000000000000000000000010002020003311010211700000000002            2  01033110102126102100000002223440000000001N011021000000000000000000000000000000000000000000000000000000000000000100003311030877SEBASTIAO SARUVA NETO                   RUA HAMILTON REGIS - 559 - BAIRRO DO LIM            08051440                                                            000134
2SR. CAIXA, APOS O VENCIMENTO COBRAR 2% DE MULTA                                 NAO RECEBER APOS 30 DIAS DO VENCIMENTO.                                                                                                                                                                                                         01102100000000000000110210000000000000       0090339900006270033110102117000135
100000000000000000000009033990000627000000000000000000000000010002020090091910211300000000002            2  01900919102126102100000002125300000000001N011021000000000000000000000000000000000000000000000000000000000000000100090091990882JUECIR CARVALHO DA LUZ                  RUA JOSE CALIXTO DO CARMO - 286 AP.114 -            11702690                                                            000137
2SR. CAIXA, APOS O VENCIMENTO COBRAR 2% DE MULTA                                 NAO RECEBER APOS 30 DIAS DO VENCIMENTO.                                                                                                                                                                                                         01102100000000000000110210000000000000       0090339900006270900919102113000138
100000000000000000000009033990000627000000000000000000000000010002020037325910211500000000002            2  01373259102126102100000001739270000000001N011021000000000000000000000000000000000000000000000000000000000000000100037325923830MARIA AUGUSTA OLIVEIRA DE ANDRADE       RUA CAIAPOS - 842 AP.63 - VILA TUPI - PR            11703320                                                            000140
2SR. CAIXA, APOS O VENCIMENTO COBRAR 2% DE MULTA                                 NAO RECEBER APOS 30 DIAS DO VENCIMENTO.                                                                                                                                                                                                         01102100000000000000110210000000000000       0090339900006270373259102115000141
100000000000000000000009033990000627000000000000000000000000010002020012478810211200000000002            2  01124788102124102100000003166420000000001N011021000000000000000000000000000000000000000000000000000000000000000100012478899809VITORIA BATISTA QUEIROZ                 RUA CARVALHO DE FREITAS - 255 AP.71A - V            05728030                                                            000143
2SR. CAIXA, APOS O VENCIMENTO COBRAR 2% DE MULTA                                 NAO RECEBER APOS 30 DIAS DO VENCIMENTO.                                                                                                                                                                                                         01102100000000000000110210000000000000       0090339900006270124788102112000144
100000000000000000000009033990000627000000000000000000000000010002020097989910211700000000002            2  01979899102126102100000001460170000000001N011021000000000000000000000000000000000000000000000000000000000000000100097989924820NELSON LUIS BERRIBILLE                  RUA SILVEIRA IGNACIO SOBRINHO - 965 - VI            13560294                                                            000146
2SR. CAIXA, APOS O VENCIMENTO COBRAR 2% DE MULTA                                 NAO RECEBER APOS 30 DIAS DO VENCIMENTO.                                                                                                                                                                                                         01102100000000000000110210000000000000       0090339900006270979899102117000147
100000000000000000000009033990000627000000000000000000000000010002020032341810211600000000002            2  01323418102124102100000003289000000000001N011021000000000000000000000000000000000000000000000000000000000000000100032341847803PRISCILA ALVES DE FRANCA MIRANDA        RUA CARLOS JOSE BORSTENS - 50 AP.91 - AV            11702750                                                            000149
2SR. CAIXA, APOS O VENCIMENTO COBRAR 2% DE MULTA                                 NAO RECEBER APOS 30 DIAS DO VENCIMENTO.                                                                                                                                                                                                         01102100000000000000110210000000000000       0090339900006270323418102116000150
100000000000000000000009033990000627000000000000000000000000010002020016050610211100000000002            2  01160506102124102100000003052830000000001N011021000000000000000000000000000000000000000000000000000000000000000100016050684898ANDRE RODRIGUES DE OLIVEIRA             RUA CORACAO PAULISTA - 14 - FAZENDA ITAI            08132430                                                            000152
2SR. CAIXA, APOS O VENCIMENTO COBRAR 2% DE MULTA                                 NAO RECEBER APOS 30 DIAS DO VENCIMENTO.                                                                                                                                                                                                         01102100000000000000110210000000000000       0090339900006270160506102111000153
100000000000000000000009033990000627000000000000000000000000010002020021464910211500000000002            2  01214649102124102100000004811350000000001N011021000000000000000000000000000000000000000000000000000000000000000100021464965846ANDREA APARECIDA DE OLIVEIRA PECCI      RUA ANTONIO BOZ MARFIL - 103 - PARQUE DO            05396020                                                            000155
2SR. CAIXA, APOS O VENCIMENTO COBRAR 2% DE MULTA                                 NAO RECEBER APOS 30 DIAS DO VENCIMENTO.                                                                                                                                                                                                         01102100000000000000110210000000000000       0090339900006270214649102115000156
100000000000000000000009033990000627000000000000000000000000010002020030348110211700000000002            2  01303481102124102100000002915200000000001N011021000000000000000000000000000000000000000000000000000000000000000100030348198892KELLY CRISTINA CORDEIRO                 RUA CARLOS JOSE BORSTENS - 50 AP.25 - AV            11702750                                                            000158
2SR. CAIXA, APOS O VENCIMENTO COBRAR 2% DE MULTA                                 NAO RECEBER APOS 30 DIAS DO VENCIMENTO.                                                                                                                                                                                                         01102100000000000000110210000000000000       0090339900006270303481102117000159
9                                                                                                                                                                                                                                                                                                                                                                                                         000160