01REMESSA01COBRANCA       00000000000008017025HB SANTOS CONSTRUTORA E INCORP237BRADESCO       051120        MX0000116                                                                                                                                                                                                                                                                                     000001
100000000000000000000009033990000627000000000000000000000000010002020025035111201700000000002            2  01250351112024112000000002339290000000001N051120000000000000000000000000000000000000000000000000000000000000000100025035170802WANDERSON LUIS DE CARVALHO              RUA JOAQUIM GONCALVES ROCHA - 302 - JARD            02859030                                                            000002
2SR. CAIXA, APOS O VENCIMENTO COBRAR 2% DE MULTA                                 NAO RECEBER APOS 30 DIAS DO VENCIMENTO.                                                                                                                                                                                                         05112000000000000000511200000000000000       0090339900006270250351112017000003
100000000000000000000009033990000627000000000000000000000000010002020007294311201400000000002            2  01072943112024112000000003146380000000001N051120000000000000000000000000000000000000000000000000000000000000000100007294351805CLAUDENIR APARECIDO VACARI              RUA CARLOS JOSE BORSTENS - 50 AP.93 - AV            11702750                                                            000005
2SR. CAIXA, APOS O VENCIMENTO COBRAR 2% DE MULTA                                 NAO RECEBER APOS 30 DIAS DO VENCIMENTO.                                                                                                                                                                                                         05112000000000000000511200000000000000       0090339900006270072943112014000006
100000000000000000000009033990000627000000000000000000000000010002020042976111201400000000002            2  01429761112024112000000003179410000000001N051120000000000000000000000000000000000000000000000000000000000000000100042976111634ACACIO TOSCANO BONDANCA                 RUA CARLOS JOSE BORSTENS - 50 AP.103 - A            11702750                                                            000008
2SR. CAIXA, APOS O VENCIMENTO COBRAR 2% DE MULTA                                 NAO RECEBER APOS 30 DIAS DO VENCIMENTO.                                                                                                                                                                                                         05112000000000000000511200000000000000       0090339900006270429761112014000009
100000000000000000000009033990000627000000000000000000000000010002020035438011201800000000002            2  01354380112024112000000002685170000000001N051120000000000000000000000000000000000000000000000000000000000000000100035438022836ALESSANDRO FARACO DOS SANTOS            RUA PEDRO POMAR  - 145 - JARDIM ELISA MA            02875020                                                            000011
2SR. CAIXA, APOS O VENCIMENTO COBRAR 2% DE MULTA                                 NAO RECEBER APOS 30 DIAS DO VENCIMENTO.                                                                                                                                                                                                         05112000000000000000511200000000000000       0090339900006270354380112018000012
100000000000000000000009033990000627000000000000000000000000010002020007525011201P00000000002            2  01075250112024112000000003519360000000001N051120000000000000000000000000000000000000000000000000000000000000000100007525032866FERNANDO RIBEIRO                        RUA CARLOS JOSE BORSTENS - 50 AP.32 - AV            11702750                                                            000014
2SR. CAIXA, APOS O VENCIMENTO COBRAR 2% DE MULTA                                 NAO RECEBER APOS 30 DIAS DO VENCIMENTO.                                                                                                                                                                                                         05112000000000000000511200000000000000       009033990000627007525011201P000015
100000000000000000000009033990000627000000000000000000000000010002020005071411201500000000002            2  01050714112024112000000003087150000000001N051120000000000000000000000000000000000000000000000000000000000000000100005071481855ERIBALDO SANTANA CARVALHO               RUA HONDURAS - 477 - PARQUE DAS AMERICAS            09351070                                                            000017
2SR. CAIXA, APOS O VENCIMENTO COBRAR 2% DE MULTA                                 NAO RECEBER APOS 30 DIAS DO VENCIMENTO.                                                                                                                                                                                                         05112000000000000000511200000000000000       0090339900006270050714112015000018
100000000000000000000009033990000627000000000000000000000000010002020002841711201900000000002            2  01028417112024112000000002888320000000001N051120000000000000000000000000000000000000000000000000000000000000000100002841756416LUCIANA PINHEIRO DE ASSIS NUNES         RUA RIO ACIMA - 81 - RIACHO GRANDE - SAO            09830100                                                            000020
2SR. CAIXA, APOS O VENCIMENTO COBRAR 2% DE MULTA                                 NAO RECEBER APOS 30 DIAS DO VENCIMENTO.                                                                                                                                                                                                         05112000000000000000511200000000000000       0090339900006270028417112019000021
100000000000000000000009033990000627000000000000000000000000010002020084302011201800000000002            2  01843020112024112000000002902170000000001N051120000000000000000000000000000000000000000000000000000000000000000100084302097868FAUSTO TADEU VILOR                      RUA ANTONIO TAVARES - 466 - BAIRRO CAMBU            01542010                                                            000023
2SR. CAIXA, APOS O VENCIMENTO COBRAR 2% DE MULTA                                 NAO RECEBER APOS 30 DIAS DO VENCIMENTO.                                                                                                                                                                                                         05112000000000000000511200000000000000       0090339900006270843020112018000024
100000000000000000000009033990000627000000000000000000000000010002020028804211201800000000002            2  01288042112024112000000002851420000000001N051120000000000000000000000000000000000000000000000000000000000000000100028804202882GILBERTO FABIANO CABRAL DE CAMARGO      RUA CARLOS JOSE BORSTENS - 50 AP.44 - AV            11702750                                                            000026
2SR. CAIXA, APOS O VENCIMENTO COBRAR 2% DE MULTA                                 NAO RECEBER APOS 30 DIAS DO VENCIMENTO.                                                                                                                                                                                                         05112000000000000000511200000000000000       0090339900006270288042112018000027
100000000000000000000009033990000627000000000000000000000000010002020000991711201000000000002            2  01009917112024112000000002783090000000001N051120000000000000000000000000000000000000000000000000000000000000000100000991748808JAILSON BORGES DE ANDRADE               RUA IPIOBUNA - 45 - JARDIM CUMBICA - GUA            07240040                                                            000029
2SR. CAIXA, APOS O VENCIMENTO COBRAR 2% DE MULTA                                 NAO RECEBER APOS 30 DIAS DO VENCIMENTO.                                                                                                                                                                                                         05112000000000000000511200000000000000       0090339900006270009917112010000030
100000000000000000000009033990000627000000000000000000000000010002020022151611201700000000002            2  01221516112024112000000002766930000000001N051120000000000000000000000000000000000000000000000000000000000000000100022151666816SAMIR LIMA DE ARAUJO                    AVENIDA GUARAPIRANGA - 2616 AP.131 BL.14            04902005                                                            000032
2SR. CAIXA, APOS O VENCIMENTO COBRAR 2% DE MULTA                                 NAO RECEBER APOS 30 DIAS DO VENCIMENTO.                                                                                                                                                                                                         05112000000000000000511200000000000000       0090339900006270221516112017000033
100000000000000000000009033990000627000000000000000000000000010002020022313111201900000000002            2  01223131112026112000000002128430000000001N051120000000000000000000000000000000000000000000000000000000000000000100022313116824ROSA MARIA BRITO DA SILVA               RUA SERVIDAO DE SAO MARCOS - 113 - JARDI            04930300                                                            000035
2SR. CAIXA, APOS O VENCIMENTO COBRAR 2% DE MULTA                                 NAO RECEBER APOS 30 DIAS DO VENCIMENTO.                                                                                                                                                                                                         05112000000000000000511200000000000000       0090339900006270223131112019000036
100000000000000000000009033990000627000000000000000000000000010002020027538011201000000000002            2  01275380112026112000000002135860000000001N051120000000000000000000000000000000000000000000000000000000000000000100027538087249MARA LUCIA MENEZES DA COSTA             RUA LEILA  - 183 - ITAQUERA - SAO PAULO             08240020                                                            000038
2SR. CAIXA, APOS O VENCIMENTO COBRAR 2% DE MULTA                                 NAO RECEBER APOS 30 DIAS DO VENCIMENTO.                                                                                                                                                                                                         05112000000000000000511200000000000000       0090339900006270275380112010000039
100000000000000000000009033990000627000000000000000000000000010002020031278411201700000000002            2  01312784112024112000000002672940000000001N051120000000000000000000000000000000000000000000000000000000000000000100031278411836JEFFERSON DE PIERI PIRES ZAMUNER        RUA MANOEL ARCE - 277 - PARQUE BANCARIO             03922150                                                            000041
2SR. CAIXA, APOS O VENCIMENTO COBRAR 2% DE MULTA                                 NAO RECEBER APOS 30 DIAS DO VENCIMENTO.                                                                                                                                                                                                         05112000000000000000511200000000000000       0090339900006270312784112017000042
100000000000000000000009033990000627000000000000000000000000010002020019185711201900000000002            2  01191857112026112000000001943660000000001N051120000000000000000000000000000000000000000000000000000000000000000100019185769800AGUINALDO PESSOA DE LIMA                RUA JANUARIO ZINGARO - 252 AP.303 BL.04             05794300                                                            000044
2SR. CAIXA, APOS O VENCIMENTO COBRAR 2% DE MULTA                                 NAO RECEBER APOS 30 DIAS DO VENCIMENTO.                                                                                                                                                                                                         05112000000000000000511200000000000000       0090339900006270191857112019000045
100000000000000000000009033990000627000000000000000000000000010002020033303611201P00000000002            2  01333036112026112000000002093500000000001N051120000000000000000000000000000000000000000000000000000000000000000100033303645809JESSICA DA SILVA FREITAS                RUA ARILDO VALADAO - 120 - JARDIM GUAEMB            04814600                                                            000047
2SR. CAIXA, APOS O VENCIMENTO COBRAR 2% DE MULTA                                 NAO RECEBER APOS 30 DIAS DO VENCIMENTO.                                                                                                                                                                                                         05112000000000000000511200000000000000       009033990000627033303611201P000048
100000000000000000000009033990000627000000000000000000000000010002020004824411201900000000002            2  01048244112026112000000002110080000000001N051120000000000000000000000000000000000000000000000000000000000000000100004824443806ROSIMEIRE CLARA FERREIRA REZENDE        RUA JOSE CALIXTO DO CARMO - 286 AP.43 -             11702690                                                            000050
2SR. CAIXA, APOS O VENCIMENTO COBRAR 2% DE MULTA                                 NAO RECEBER APOS 30 DIAS DO VENCIMENTO.                                                                                                                                                                                                         05112000000000000000511200000000000000       0090339900006270048244112019000051
100000000000000000000009033990000627000000000000000000000000010002020006422611201500000000002            2  01064226112024112000000002894850000000001N051120000000000000000000000000000000000000000000000000000000000000000100006422607881GERALDO ALVES DA SILVA                  RUA CARLOS JOSE BORSTENS - 50 AP.14 - AV            11702750                                                            000053
2SR. CAIXA, APOS O VENCIMENTO COBRAR 2% DE MULTA                                 NAO RECEBER APOS 30 DIAS DO VENCIMENTO.                                                                                                                                                                                                         05112000000000000000511200000000000000       0090339900006270064226112015000054
100000000000000000000009033990000627000000000000000000000000010002020033877111201700000000002            2  01338771112026112000000001962730000000001N051120000000000000000000000000000000000000000000000000000000000000000100033877129870HELDER FERREIRA VIANA                   RUA JOSE CALIXTO DO CARMO - 286 AP.35 -             11702690                                                            000056
2SR. CAIXA, APOS O VENCIMENTO COBRAR 2% DE MULTA                                 NAO RECEBER APOS 30 DIAS DO VENCIMENTO.                                                                                                                                                                                                         05112000000000000000511200000000000000       0090339900006270338771112017000057
100000000000000000000009033990000627000000000000000000000000010002020028290711201000000000002            2  01282907112026112000000001808910000000001N051120000000000000000000000000000000000000000000000000000000000000000100028290719809VANESSA GIANGARRELLI PEREIRA            RUA BARINEL - 72 - JARDIM COTCHING - SAO            03462130                                                            000059
2SR. CAIXA, APOS O VENCIMENTO COBRAR 2% DE MULTA                                 NAO RECEBER APOS 30 DIAS DO VENCIMENTO.                                                                                                                                                                                                         05112000000000000000511200000000000000       0090339900006270282907112010000060
100000000000000000000009033990000627000000000000000000000000010002020087573011201600000000002            2  01875730112026112000000001975310000000001N051120000000000000000000000000000000000000000000000000000000000000000100087573059604VANDERLEY DE ASSIS                      RUA ROMEU ALBANI - 268 - JARDIM PARQUE R            13803810                                                            000062
2SR. CAIXA, APOS O VENCIMENTO COBRAR 2% DE MULTA                                 NAO RECEBER APOS 30 DIAS DO VENCIMENTO.                                                                                                                                                                                                         05112000000000000000511200000000000000       0090339900006270875730112016000063
100000000000000000000009033990000627000000000000000000000000010002020010825511201300000000002            2  01108255112026112000000002061320000000001N051120000000000000000000000000000000000000000000000000000000000000000100010825513847JOSE APARECIDO PEREIRA                  RUA GENERAL OSORIO - 305 - JARDIM TRINTA            11515130                                                            000065
2SR. CAIXA, APOS O VENCIMENTO COBRAR 2% DE MULTA                                 NAO RECEBER APOS 30 DIAS DO VENCIMENTO.                                                                                                                                                                                                         05112000000000000000511200000000000000       0090339900006270108255112013000066
100000000000000000000009033990000627000000000000000000000000010002020039115111201500000000002            2  01391151112026112000000002540950000000001N051120000000000000000000000000000000000000000000000000000000000000000100039115139840LAIS CRISTINA RIBEIRO ANDO              RUA JOSE CALIXTO DO CARMO - 286 AP.65 -             11702690                                                            000068
2SR. CAIXA, APOS O VENCIMENTO COBRAR 2% DE MULTA                                 NAO RECEBER APOS 30 DIAS DO VENCIMENTO.                                                                                                                                                                                                         05112000000000000000511200000000000000       0090339900006270391151112015000069
100000000000000000000009033990000627000000000000000000000000010002020029617511201300000000002            2  01296175112024112000000002841390000000001N051120000000000000000000000000000000000000000000000000000000000000000100029617510553MARILENE SOUZA DE OLIVEIRA              AVENIDA BRASIL - 393 AP.09 - PARQUE DAS             09210280                                                            000071
2SR. CAIXA, APOS O VENCIMENTO COBRAR 2% DE MULTA                                 NAO RECEBER APOS 30 DIAS DO VENCIMENTO.                                                                                                                                                                                                         05112000000000000000511200000000000000       0090339900006270296175112013000072
100000000000000000000009033990000627000000000000000000000000010002020000593211201300000000002            2  01005932112024112000000003116320000000001N051120000000000000000000000000000000000000000000000000000000000000000100000593293860WALTER HELIO BARBOSA FILHO              AVENIDA ANTONIO FREDERICO OZANAN - 9500             13214206                                                            000074
2SR. CAIXA, APOS O VENCIMENTO COBRAR 2% DE MULTA                                 NAO RECEBER APOS 30 DIAS DO VENCIMENTO.                                                                                                                                                                                                         05112000000000000000511200000000000000       0090339900006270005932112013000075
100000000000000000000009033990000627000000000000000000000000010002020007730011201900000000002            2  01077300112024112000000004431700000000001N051120000000000000000000000000000000000000000000000000000000000000000100007730084899ARNALDO LUIZ VONO                       RUA CARLOS JOSE BORSTENS - 50 AP.122 - A            11702750                                                            000077
2SR. CAIXA, APOS O VENCIMENTO COBRAR 2% DE MULTA                                 NAO RECEBER APOS 30 DIAS DO VENCIMENTO.                                                                                                                                                                                                         05112000000000000000511200000000000000       0090339900006270077300112019000078
100000000000000000000009033990000627000000000000000000000000010002020065584111201500000000002            2  01655841112024112000000001635900000000001N051120000000000000000000000000000000000000000000000000000000000000000100065584147834JOAQUIM DA COSTA MACHADO NETO           RUA CARLOS JOSE BORSTENS - 50 AP.42 - AV            11702750                                                            000080
2SR. CAIXA, APOS O VENCIMENTO COBRAR 2% DE MULTA                                 NAO RECEBER APOS 30 DIAS DO VENCIMENTO.                                                                                                                                                                                                         05112000000000000000511200000000000000       0090339900006270655841112015000081
100000000000000000000009033990000627000000000000000000000000010002020065584111202300000000002            2  01655841112024112000000001635890000000001N051120000000000000000000000000000000000000000000000000000000000000000100065584147834JOAQUIM DA COSTA MACHADO NETO           RUA CARLOS JOSE BORSTENS - 50 AP.42 - AV            11702750                                                            000083
2SR. CAIXA, APOS O VENCIMENTO COBRAR 2% DE MULTA                                 NAO RECEBER APOS 30 DIAS DO VENCIMENTO.                                                                                                                                                                                                         05112000000000000000511200000000000000       0090339900006270655841112023000084
100000000000000000000009033990000627000000000000000000000000010002020001616911201700000000002            2  01016169112024112000000002877030000000001N051120000000000000000000000000000000000000000000000000000000000000000100001616913827CLAUDIO LUIZ PAULELLA                   PRACA NESTOR DOS SANTOS ARRUDA - 26 - VI            13920000                                                            000086
2SR. CAIXA, APOS O VENCIMENTO COBRAR 2% DE MULTA                                 NAO RECEBER APOS 30 DIAS DO VENCIMENTO.                                                                                                                                                                                                         05112000000000000000511200000000000000       0090339900006270016169112017000087
100000000000000000000009033990000627000000000000000000000000010002020006684611201800000000002            2  01066846112026112000000002093230000000001N051120000000000000000000000000000000000000000000000000000000000000000100006684623884LAUDINOR VIEIRA GARCIA                  RUA CANDIDO SALES - 374 - JARDIM PRESIDE            07172000                                                            000089
2SR. CAIXA, APOS O VENCIMENTO COBRAR 2% DE MULTA                                 NAO RECEBER APOS 30 DIAS DO VENCIMENTO.                                                                                                                                                                                                         05112000000000000000511200000000000000       0090339900006270066846112018000090
100000000000000000000009033990000627000000000000000000000000010002020011663511201900000000002            2  01116635112026112000000002108310000000001N051120000000000000000000000000000000000000000000000000000000000000000100011663589844MARIA SAVIO QUARELLO                    AVENIDA MENDONCA DRUMOND - 321 - JARDIM             03524030                                                            000092
2SR. CAIXA, APOS O VENCIMENTO COBRAR 2% DE MULTA                                 NAO RECEBER APOS 30 DIAS DO VENCIMENTO.                                                                                                                                                                                                         05112000000000000000511200000000000000       0090339900006270116635112019000093
100000000000000000000009033990000627000000000000000000000000010002020010083811201000000000002            2  01100838112026112000000002036970000000001N051120000000000000000000000000000000000000000000000000000000000000000100010083824855IONE FERREIRA COUTO DA SILVA            RUA JOSE RAGEL DE MESQUITA - 60 CS.01 -             07799999                                                            000095
2SR. CAIXA, APOS O VENCIMENTO COBRAR 2% DE MULTA                                 NAO RECEBER APOS 30 DIAS DO VENCIMENTO.                                                                                                                                                                                                         05112000000000000000511200000000000000       0090339900006270100838112010000096
100000000000000000000009033990000627000000000000000000000000010002020031010711201600000000002            2  01310107112026112000000001998930000000001N051120000000000000000000000000000000000000000000000000000000000000000100031010705890ANDRE GONZALEZ RABELLO                  RUA PARAIBA - 106 AP.61 - POMPEIA - SANT            11065470                                                            000098
2SR. CAIXA, APOS O VENCIMENTO COBRAR 2% DE MULTA                                 NAO RECEBER APOS 30 DIAS DO VENCIMENTO.                                                                                                                                                                                                         05112000000000000000511200000000000000       0090339900006270310107112016000099
100000000000000000000009033990000627000000000000000000000000010002020005351011201500000000002            2  01053510112026112000000001874200000000001N051120000000000000000000000000000000000000000000000000000000000000000100005351015897VALERIA ALVES MARCOLINO HINNIGER        RUA JOSE CALIXTO DO CARMO - 286 AP.92 -             11702690                                                            000101
2SR. CAIXA, APOS O VENCIMENTO COBRAR 2% DE MULTA                                 NAO RECEBER APOS 30 DIAS DO VENCIMENTO.                                                                                                                                                                                                         05112000000000000000511200000000000000       0090339900006270053510112015000102
100000000000000000000009033990000627000000000000000000000000010002020031898711201000000000002            2  01318987112024112000000002981820000000001N051120000000000000000000000000000000000000000000000000000000000000000100031898775800ANITA MARTINS COLOMBO                   RUA CARLOS JOSE BORSTENS - 50 AP.115 - A            11702750                                                            000104
2SR. CAIXA, APOS O VENCIMENTO COBRAR 2% DE MULTA                                 NAO RECEBER APOS 30 DIAS DO VENCIMENTO.                                                                                                                                                                                                         05112000000000000000511200000000000000       0090339900006270318987112010000105
100000000000000000000009033990000627000000000000000000000000010002020037983411201000000000002            2  01379834112026112000000002201590000000001N051120000000000000000000000000000000000000000000000000000000000000000100037983484801JOSE ERIVALDO SOUZA DO NASCIMENTO RAMOS RUA LETICIA - 250 - JARDIM GUARUJA - SAO            05877260                                                            000107
2SR. CAIXA, APOS O VENCIMENTO COBRAR 2% DE MULTA                                 NAO RECEBER APOS 30 DIAS DO VENCIMENTO.                                                                                                                                                                                                         05112000000000000000511200000000000000       0090339900006270379834112010000108
100000000000000000000009033990000627000000000000000000000000010002020056289211201100000000002            2  01562892112026112000000001663190000000001N051120000000000000000000000000000000000000000000000000000000000000000100056289286900PEDRO RIBEIRO                           RUA CONEGO MANOEL VAZ - 48 - SANTANA - S            02019050                                                            000110
2SR. CAIXA, APOS O VENCIMENTO COBRAR 2% DE MULTA                                 NAO RECEBER APOS 30 DIAS DO VENCIMENTO.                                                                                                                                                                                                         05112000000000000000511200000000000000       0090339900006270562892112011000111
100000000000000000000009033990000627000000000000000000000000010002020005025511201500000000002            2  01050255112026112000000002366890000000001N051120000000000000000000000000000000000000000000000000000000000000000100005025595860CONCEICAO APARECIDA DE MESQUITA PEREIRA RUA JOSE CALIXTO DO CARMO - 286 AP.121 -            11702690                                                            000113
2SR. CAIXA, APOS O VENCIMENTO COBRAR 2% DE MULTA                                 NAO RECEBER APOS 30 DIAS DO VENCIMENTO.                                                                                                                                                                                                         05112000000000000000511200000000000000       0090339900006270050255112015000114
100000000000000000000009033990000627000000000000000000000000010002020034735311201800000000002            2  01347353112026112000000002282620000000001N051120000000000000000000000000000000000000000000000000000000000000000100034735328866DIEGO FELIPE MOLINA DA SILVA E SOUSA    RUA EMILIA PAULISTA - 135 - VILA TIRADEN            05364020                                                            000116
2SR. CAIXA, APOS O VENCIMENTO COBRAR 2% DE MULTA                                 NAO RECEBER APOS 30 DIAS DO VENCIMENTO.                                                                                                                                                                                                         05112000000000000000511200000000000000       0090339900006270347353112018000117
100000000000000000000009033990000627000000000000000000000000010002020076175611201900000000002            2  01761756112024112000000004138120000000001N051120000000000000000000000000000000000000000000000000000000000000000100076175685687GILMAR DE OLIVEIRA BRAGA                RUA MARACAJU - 161 AP.202 - NOVA GRANADA            30431350                                                            000119
2SR. CAIXA, APOS O VENCIMENTO COBRAR 2% DE MULTA                                 NAO RECEBER APOS 30 DIAS DO VENCIMENTO.                                                                                                                                                                                                         05112000000000000000511200000000000000       0090339900006270761756112019000120
100000000000000000000009033990000627000000000000000000000000010002020034812211201100000000002            2  01348122112024112000000003946550000000001N051120000000000000000000000000000000000000000000000000000000000000000100034812226880THAIS TORQUATO MIMOSO DE JESUS          RUA ARNALDO CINTRA - 416 AP.104 TORRE 2             03088000                                                            000122
2SR. CAIXA, APOS O VENCIMENTO COBRAR 2% DE MULTA                                 NAO RECEBER APOS 30 DIAS DO VENCIMENTO.                                                                                                                                                                                                         05112000000000000000511200000000000000       0090339900006270348122112011000123
100000000000000000000009033990000627000000000000000000000000010002020012849411201800000000002            2  01128494112026112000000003932350000000001N051120000000000000000000000000000000000000000000000000000000000000000100012849428809MOISES CLAUDIO DO ROSARIO               AVENIDA DR. AUGUSTO DE TOLEDO - 510 AP.1            09541520                                                            000125
2SR. CAIXA, APOS O VENCIMENTO COBRAR 2% DE MULTA                                 NAO RECEBER APOS 30 DIAS DO VENCIMENTO.                                                                                                                                                                                                         05112000000000000000511200000000000000       0090339900006270128494112018000126
100000000000000000000009033990000627000000000000000000000000010002020015702311201800000000002            2  01157023112026112000000002181750000000001N051120000000000000000000000000000000000000000000000000000000000000000100015702353846MARIA DE LOURDES DE MACENO SOUZA        RUA JOSE CALIXTO DO CARMO - 286 AP.83 -             11702690                                                            000128
2SR. CAIXA, APOS O VENCIMENTO COBRAR 2% DE MULTA                                 NAO RECEBER APOS 30 DIAS DO VENCIMENTO.                                                                                                                                                                                                         05112000000000000000511200000000000000       0090339900006270157023112018000129
100000000000000000000009033990000627000000000000000000000000010002020003658611201200000000002            2  01036586112026112000000001624530000000001N051120000000000000000000000000000000000000000000000000000000000000000100003658668814MARINEZ VALENTIN                        RUA JOSE CALIXTO DO CARMO - 286 AP.95 -             11702690                                                            000131
2SR. CAIXA, APOS O VENCIMENTO COBRAR 2% DE MULTA                                 NAO RECEBER APOS 30 DIAS DO VENCIMENTO.                                                                                                                                                                                                         05112000000000000000511200000000000000       0090339900006270036586112012000132
100000000000000000000009033990000627000000000000000000000000010002020014087411201000000000002            2  01140874112026112000000002171040000000001N051120000000000000000000000000000000000000000000000000000000000000000100014087484874SERGIO SANTOS DO NASCIMENTO             RUA PANTALEAO BRAZ - 21 - JARDIM ESTER -            05372080                                                            000134
2SR. CAIXA, APOS O VENCIMENTO COBRAR 2% DE MULTA                                 NAO RECEBER APOS 30 DIAS DO VENCIMENTO.                                                                                                                                                                                                         05112000000000000000511200000000000000       0090339900006270140874112010000135
100000000000000000000009033990000627000000000000000000000000010002020026834511201P00000000002            2  01268345112026112000000002000350000000001N051120000000000000000000000000000000000000000000000000000000000000000100026834550895RAQUEL CARDOSO JOAO                     RUA PEDROSO XAVIER - 277 AP.23 TORRE 01             02732020                                                            000137
2SR. CAIXA, APOS O VENCIMENTO COBRAR 2% DE MULTA                                 NAO RECEBER APOS 30 DIAS DO VENCIMENTO.                                                                                                                                                                                                         05112000000000000000511200000000000000       009033990000627026834511201P000138
100000000000000000000009033990000627000000000000000000000000010002020039540011201800000000002            2  01395400112026112000000001966630000000001N051120000000000000000000000000000000000000000000000000000000000000000100039540008816LUZINETE CLARINDO SILVA                 RUA DEINOS - 275 - BAIRRO CIDADE SATELIT            08340100                                                            000140
2SR. CAIXA, APOS O VENCIMENTO COBRAR 2% DE MULTA                                 NAO RECEBER APOS 30 DIAS DO VENCIMENTO.                                                                                                                                                                                                         05112000000000000000511200000000000000       0090339900006270395400112018000141
100000000000000000000009033990000627000000000000000000000000010002020005723211201200000000002            2  01057232112023112000000002627960000000001N051120000000000000000000000000000000000000000000000000000000000000000100005723255843FRANCISCO DE ASSIS DA SILVA             PRACA NICOLAU GERAIGIRE - 25 VISOR - JAR            11095110                                                            000143
2SR. CAIXA, APOS O VENCIMENTO COBRAR 2% DE MULTA                                 NAO RECEBER APOS 30 DIAS DO VENCIMENTO.                                                                                                                                                                                                         05112000000000000000511200000000000000       0090339900006270057232112012000144
100000000000000000000009033990000627000000000000000000000000010002020003311011201500000000002            2  01033110112026112000000002048000000000001N051120000000000000000000000000000000000000000000000000000000000000000100003311030877SEBASTIAO SARUVA NETO                   RUA HAMILTON REGIS - 559 - BAIRRO DO LIM            08051440                                                            000146
2SR. CAIXA, APOS O VENCIMENTO COBRAR 2% DE MULTA                                 NAO RECEBER APOS 30 DIAS DO VENCIMENTO.                                                                                                                                                                                                         05112000000000000000511200000000000000       0090339900006270033110112015000147
100000000000000000000009033990000627000000000000000000000000010002020004928111201700000000002            2  01049281112023112000000002569950000000001N051120000000000000000000000000000000000000000000000000000000000000000100004928157800ADEMIR APARECIDO ANTUNES                RUA JAIME TAVEIRA - 91 AP.056 B - CHACAR            03732060                                                            000149
2SR. CAIXA, APOS O VENCIMENTO COBRAR 2% DE MULTA                                 NAO RECEBER APOS 30 DIAS DO VENCIMENTO.                                                                                                                                                                                                         05112000000000000000511200000000000000       0090339900006270049281112017000150
100000000000000000000009033990000627000000000000000000000000010002020090091911201100000000002            2  01900919112026112000000001957610000000001N051120000000000000000000000000000000000000000000000000000000000000000100090091990882JUECIR CARVALHO DA LUZ                  RUA JOSE CALIXTO DO CARMO - 286 AP.114 -            11702690                                                            000152
2SR. CAIXA, APOS O VENCIMENTO COBRAR 2% DE MULTA                                 NAO RECEBER APOS 30 DIAS DO VENCIMENTO.                                                                                                                                                                                                         05112000000000000000511200000000000000       0090339900006270900919112011000153
100000000000000000000009033990000627000000000000000000000000010002020011238011201400000000002            2  01112380112023112000000002536620000000001N051120000000000000000000000000000000000000000000000000000000000000000100011238052886SOLANGE DIAS DE SOUZA ROMANO            AVENIDA DR. ALTINO ARANTES - 865 AP.132             04042034                                                            000155
2SR. CAIXA, APOS O VENCIMENTO COBRAR 2% DE MULTA                                 NAO RECEBER APOS 30 DIAS DO VENCIMENTO.                                                                                                                                                                                                         05112000000000000000511200000000000000       0090339900006270112380112014000156
100000000000000000000009033990000627000000000000000000000000010002020037325911201300000000002            2  01373259112026112000000001602010000000001N051120000000000000000000000000000000000000000000000000000000000000000100037325923830MARIA AUGUSTA OLIVEIRA DE ANDRADE       RUA CAIAPOS - 842 AP.63 - VILA TUPI - PR            11703320                                                            000158
2SR. CAIXA, APOS O VENCIMENTO COBRAR 2% DE MULTA                                 NAO RECEBER APOS 30 DIAS DO VENCIMENTO.                                                                                                                                                                                                         05112000000000000000511200000000000000       0090339900006270373259112013000159
100000000000000000000009033990000627000000000000000000000000010002020032589111201600000000002            2  01325891112023112000000002486620000000001N051120000000000000000000000000000000000000000000000000000000000000000100032589165862RENATA ISABEL MARTINS SILVA             RUA HERCULANO DE FREITAS - 257 - FUNDACA            09520280                                                            000161
2SR. CAIXA, APOS O VENCIMENTO COBRAR 2% DE MULTA                                 NAO RECEBER APOS 30 DIAS DO VENCIMENTO.                                                                                                                                                                                                         05112000000000000000511200000000000000       0090339900006270325891112016000162
100000000000000000000009033990000627000000000000000000000000010002020088339311201P00000000002            2  01883393112023112000000002513560000000001N051120000000000000000000000000000000000000000000000000000000000000000100088339319868MARCIA SIQUEIRA MELLO                   RUA ADELINO ALVES - 81 - SANTO AMARO - S            04710120                                                            000164
2SR. CAIXA, APOS O VENCIMENTO COBRAR 2% DE MULTA                                 NAO RECEBER APOS 30 DIAS DO VENCIMENTO.                                                                                                                                                                                                         05112000000000000000511200000000000000       009033990000627088339311201P000165
100000000000000000000009033990000627000000000000000000000000010002020012478811201000000000002            2  01124788112024112000000002916570000000001N051120000000000000000000000000000000000000000000000000000000000000000100012478899809VITORIA BATISTA QUEIROZ                 RUA CARVALHO DE FREITAS - 255 AP.71A - V            05728030                                                            000167
2SR. CAIXA, APOS O VENCIMENTO COBRAR 2% DE MULTA                                 NAO RECEBER APOS 30 DIAS DO VENCIMENTO.                                                                                                                                                                                                         05112000000000000000511200000000000000       0090339900006270124788112010000168
100000000000000000000009033990000627000000000000000000000000010002020046391211201500000000002            2  01463912112023112000000002607460000000001N051120000000000000000000000000000000000000000000000000000000000000000100046391265810PAMELLA RODRIGUES DE OLIVEIRA           RUA ANTONIO MARQUES LUIZ - 193 - JARDIM             07115090                                                            000170
2SR. CAIXA, APOS O VENCIMENTO COBRAR 2% DE MULTA                                 NAO RECEBER APOS 30 DIAS DO VENCIMENTO.                                                                                                                                                                                                         05112000000000000000511200000000000000       0090339900006270463912112015000171
100000000000000000000009033990000627000000000000000000000000010002020027964511201300000000002            2  01279645112023112000000001590790000000001N051120000000000000000000000000000000000000000000000000000000000000000100027964512838FABIO TADEU DE CAMPOS RADZIAVICIUS      AV.PROF.LUIZ IGNACIO ANHAIA MELLO - 2.58            03154100                                                            000173
2SR. CAIXA, APOS O VENCIMENTO COBRAR 2% DE MULTA                                 NAO RECEBER APOS 30 DIAS DO VENCIMENTO.                                                                                                                                                                                                         05112000000000000000511200000000000000       0090339900006270279645112013000174
100000000000000000000009033990000627000000000000000000000000010002020011498311201100000000002            2  01114983112023112000000001941050000000001N051120000000000000000000000000000000000000000000000000000000000000000100011498329837GERSON GERALDO DAS NEVES                RUA DOMINGOS DELGADO - 144 - VILA SOUZA             02881070                                                            000176
2SR. CAIXA, APOS O VENCIMENTO COBRAR 2% DE MULTA                                 NAO RECEBER APOS 30 DIAS DO VENCIMENTO.                                                                                                                                                                                                         05112000000000000000511200000000000000       0090339900006270114983112011000177
100000000000000000000009033990000627000000000000000000000000010002020068875611201P00000000002            2  01688756112023112000000002574130000000001N051120000000000000000000000000000000000000000000000000000000000000000100068875673691ILDETE BATISTA NEIVA GOLFAR             RUA FERNANDO FALCAO - 560 AP.21 - MOOCA             03180000                                                            000179
2SR. CAIXA, APOS O VENCIMENTO COBRAR 2% DE MULTA                                 NAO RECEBER APOS 30 DIAS DO VENCIMENTO.                                                                                                                                                                                                         05112000000000000000511200000000000000       009033990000627068875611201P000180
9                                                                                                                                                                                                                                                                                                                                                                                                         000181