01REMESSA01COBRANCA       00000000000005331186HB SANTOS CONSTRUTORA E INCORP237BRADESCO       071223        MX0000087                                                                                                                                                                                                                                                                                     000001
100000000000000000000009033990000995400000000000000000000000010002020005723212231P00000000002            2  01057232122323122300000003221450000000001N061223000000000000000000000000000000000000000000000000000000000000000100005723255843FRANCISCO DE ASSIS DA SILVA             PRACA NICOLAU GERAIGIRE - 25 VISOR - JAR            11095110                                                            000002
2SR. CAIXA, APOS O VENCIMENTO COBRAR 2% DE MULTA                                 NAO RECEBER APOS 30 DIAS DO VENCIMENTO.                                                                                                                                                                                                         07122300000000000000712230000000000000       009033990000995405723212231P000003
100000000000000000000009033990000995400000000000000000000000010002020032589112231300000000002            2  01325891122323122300000003048150000000001N061223000000000000000000000000000000000000000000000000000000000000000100032589165862RENATA ISABEL MARTINS SILVA             RUA HERCULANO DE FREITAS - 257 - FUNDACA            09520280                                                            000005
2SR. CAIXA, APOS O VENCIMENTO COBRAR 2% DE MULTA                                 NAO RECEBER APOS 30 DIAS DO VENCIMENTO.                                                                                                                                                                                                         07122300000000000000712230000000000000       0090339900009954325891122313000006
100000000000000000000009033990000995400000000000000000000000010002020046391212231200000000002            2  01463912122323122300000003196360000000001N061223000000000000000000000000000000000000000000000000000000000000000100046391265810PAMELLA RODRIGUES DE OLIVEIRA           RUA AUGUSTA - 183 AP.301 BL.2A - VILA AU            07025130                                                            000008
2SR. CAIXA, APOS O VENCIMENTO COBRAR 2% DE MULTA                                 NAO RECEBER APOS 30 DIAS DO VENCIMENTO.                                                                                                                                                                                                         07122300000000000000712230000000000000       0090339900009954463912122312000009
100000000000000000000009033990000995400000000000000000000000010002020027964512231000000000002            2  01279645122323122300000003175850000000001N061223000000000000000000000000000000000000000000000000000000000000000100027964512838FABIO TADEU DE CAMPOS RADZIAVICIUS      RUA URUGUAI - 89 AP.94 - JARDIM GUILHERM            11702300                                                            000011
2SR. CAIXA, APOS O VENCIMENTO COBRAR 2% DE MULTA                                 NAO RECEBER APOS 30 DIAS DO VENCIMENTO.                                                                                                                                                                                                         07122300000000000000712230000000000000       0090339900009954279645122310000012
100000000000000000000009033990000995400000000000000000000000010002020011498312231900000000002            2  01114983122323122300000006129180000000001N061223000000000000000000000000000000000000000000000000000000000000000100011498329837GERSON GERALDO DAS NEVES                RUA DOMINGOS DELGADO - 144 - VILA SOUZA             02881070                                                            000014
2SR. CAIXA, APOS O VENCIMENTO COBRAR 2% DE MULTA                                 NAO RECEBER APOS 30 DIAS DO VENCIMENTO.                                                                                                                                                                                                         07122300000000000000712230000000000000       0090339900009954114983122319000015
100000000000000000000009033990000995400000000000000000000000010002020011498312232700000000002            2  01114983122323122300000002379410000000001N061223000000000000000000000000000000000000000000000000000000000000000100011498329837GERSON GERALDO DAS NEVES                RUA DOMINGOS DELGADO - 144 - VILA SOUZA             02881070                                                            000017
2SR. CAIXA, APOS O VENCIMENTO COBRAR 2% DE MULTA                                 NAO RECEBER APOS 30 DIAS DO VENCIMENTO.                                                                                                                                                                                                         07122300000000000000712230000000000000       0090339900009954114983122327000018
100000000000000000000009033990000995400000000000000000000000010002020025214412231500000000002            2  01252144122323122300000002816490000000001N061223000000000000000000000000000000000000000000000000000000000000000100025214401833JOSE MAURICIO DOS SANTOS RODRIGUES      RUA JOAO DE MACEDO RIBEIRO - 49 - VILA N            08111101                                                            000020
2SR. CAIXA, APOS O VENCIMENTO COBRAR 2% DE MULTA                                 NAO RECEBER APOS 30 DIAS DO VENCIMENTO.                                                                                                                                                                                                         07122300000000000000712230000000000000       0090339900009954252144122315000021
100000000000000000000009033990000995400000000000000000000000010002020033119112231200000000002            2  01331191122323122300000002828410000000001N061223000000000000000000000000000000000000000000000000000000000000000100033119178802HUGO GOMES VENDRAME                     RUA SAO PAULO - 60 CASA 01 - VILA FREITA            06380110                                                            000023
2SR. CAIXA, APOS O VENCIMENTO COBRAR 2% DE MULTA                                 NAO RECEBER APOS 30 DIAS DO VENCIMENTO.                                                                                                                                                                                                         07122300000000000000712230000000000000       0090339900009954331191122312000024
100000000000000000000009033990000995400000000000000000000000010002020016631512231500000000002            2  01166315122323122300000002877780000000001N061223000000000000000000000000000000000000000000000000000000000000000100016631587468GILBERTO BEZERRA DA SILVA               AVENIDA JAIME TORRES - 745 CASA 3 - JARD            03670000                                                            000026
2SR. CAIXA, APOS O VENCIMENTO COBRAR 2% DE MULTA                                 NAO RECEBER APOS 30 DIAS DO VENCIMENTO.                                                                                                                                                                                                         07122300000000000000712230000000000000       0090339900009954166315122315000027
100000000000000000000009033990000995400000000000000000000000010002020007313212231800000000002            2  01073132122323122300000002857340000000001N061223000000000000000000000000000000000000000000000000000000000000000100007313251840SALVADOR GESUALDO PULVIRENTI            AVENIDA MARARI - 641 - VILA MARARI - SAO            04402010                                                            000029
2SR. CAIXA, APOS O VENCIMENTO COBRAR 2% DE MULTA                                 NAO RECEBER APOS 30 DIAS DO VENCIMENTO.                                                                                                                                                                                                         07122300000000000000712230000000000000       0090339900009954073132122318000030
100000000000000000000009033990000995400000000000000000000000010002020010676712231P00000000002            2  01106767122323122300000002982380000000001N061223000000000000000000000000000000000000000000000000000000000000000100010676723896MERCEDES CRISTINA ROCHA SANDOVAL        RUA URUGUAI - 89 AP.83 - JARDIM GUILHERM            11702300                                                            000032
2SR. CAIXA, APOS O VENCIMENTO COBRAR 2% DE MULTA                                 NAO RECEBER APOS 30 DIAS DO VENCIMENTO.                                                                                                                                                                                                         07122300000000000000712230000000000000       009033990000995410676712231P000033
100000000000000000000009033990000995400000000000000000000000010002020009502812231800000000002            2  01095028122323122300000003114600000000001N061223000000000000000000000000000000000000000000000000000000000000000100009502844831CLAUDIA ROCHA SANDOVAL                  RUA URUGUAI - 89 AP.64 - JARDIM GUILHERM            11702300                                                            000035
2SR. CAIXA, APOS O VENCIMENTO COBRAR 2% DE MULTA                                 NAO RECEBER APOS 30 DIAS DO VENCIMENTO.                                                                                                                                                                                                         07122300000000000000712230000000000000       0090339900009954095028122318000036
100000000000000000000009033990000995400000000000000000000000010002020007594212231700000000002            2  01075942122323122300000002796080000000001N061223000000000000000000000000000000000000000000000000000000000000000100007594247809JOSE LUIS DE OLIVEIRA                   DONA EGLANTINA PENTEADO DA SILVA PRADO -            13044162                                                            000038
2SR. CAIXA, APOS O VENCIMENTO COBRAR 2% DE MULTA                                 NAO RECEBER APOS 30 DIAS DO VENCIMENTO.                                                                                                                                                                                                         07122300000000000000712230000000000000       0090339900009954075942122317000039
100000000000000000000009033990000995400000000000000000000000010002020005288712231000000000002            2  01052887122323122300000002880240000000001N061223000000000000000000000000000000000000000000000000000000000000000100005288796858MARCELO RODRIGUES FERREIRA              RUA MARCOS ANTONIO MARQUES - 302 - JARDI            06433020                                                            000041
2SR. CAIXA, APOS O VENCIMENTO COBRAR 2% DE MULTA                                 NAO RECEBER APOS 30 DIAS DO VENCIMENTO.                                                                                                                                                                                                         07122300000000000000712230000000000000       0090339900009954052887122310000042
100000000000000000000009033990000995400000000000000000000000010002020015835912231P00000000002            2  01158359122323122300000002999340000000001N061223000000000000000000000000000000000000000000000000000000000000000100015835992823FLAVIO VERONEZ                          RUA ANDREA PAULINETTI - 127 AP.42 - BAIR            04707050                                                            000044
2SR. CAIXA, APOS O VENCIMENTO COBRAR 2% DE MULTA                                 NAO RECEBER APOS 30 DIAS DO VENCIMENTO.                                                                                                                                                                                                         07122300000000000000712230000000000000       009033990000995415835912231P000045
100000000000000000000009033990000995400000000000000000000000010002020000438112231800000000002            2  01004381122323122300000003385430000000001N061223000000000000000000000000000000000000000000000000000000000000000100000438161858WAGNECY VILLA NOVA LIEN                 RUA PROFESSOR FERREIRA PAULINO - 233 AP.            07025020                                                            000047
2SR. CAIXA, APOS O VENCIMENTO COBRAR 2% DE MULTA                                 NAO RECEBER APOS 30 DIAS DO VENCIMENTO.                                                                                                                                                                                                         07122300000000000000712230000000000000       0090339900009954004381122318000048
100000000000000000000009033990000995400000000000000000000000010002020026004512231400000000002            2  01260045122323122300000002999380000000001N061223000000000000000000000000000000000000000000000000000000000000000100026004595888EDIVALDO BEZERRA DA SILVA               AVENIDA GUATEMALA - 550 - JARDIM PINHEIR            09854750                                                            000050
2SR. CAIXA, APOS O VENCIMENTO COBRAR 2% DE MULTA                                 NAO RECEBER APOS 30 DIAS DO VENCIMENTO.                                                                                                                                                                                                         07122300000000000000712230000000000000       0090339900009954260045122314000051
100000000000000000000009033990000995400000000000000000000000010002020012470712231900000000002            2  01124707122323122300000003200140000000001N061223000000000000000000000000000000000000000000000000000000000000000100012470771870HILTON FERNANDES OLIVARES               RUA PATIO DA ESTACAO - 115 - BAIRRO CENT            09450000                                                            000053
2SR. CAIXA, APOS O VENCIMENTO COBRAR 2% DE MULTA                                 NAO RECEBER APOS 30 DIAS DO VENCIMENTO.                                                                                                                                                                                                         07122300000000000000712230000000000000       0090339900009954124707122319000054
100000000000000000000009033990000995400000000000000000000000010002020014025412231800000000002            2  01140254122323122300000003508850000000001N061223000000000000000000000000000000000000000000000000000000000000000100014025420899ANDREIA APARECIDA TAVARES BASTOS        RUA IBATIBA - 234 CASA 27 - RES.BOUGANVI            09220608                                                            000056
2SR. CAIXA, APOS O VENCIMENTO COBRAR 2% DE MULTA                                 NAO RECEBER APOS 30 DIAS DO VENCIMENTO.                                                                                                                                                                                                         07122300000000000000712230000000000000       0090339900009954140254122318000057
100000000000000000000009033990000995400000000000000000000000010002020018590012231700000000002            2  01185900122323122300000003177790000000001N061223000000000000000000000000000000000000000000000000000000000000000100018590038858JOSE SANDRO ROCHA SILVA                 RUA SANTO ANTONIO DO AVENTUREIRO - 216 A            07143040                                                            000059
2SR. CAIXA, APOS O VENCIMENTO COBRAR 2% DE MULTA                                 NAO RECEBER APOS 30 DIAS DO VENCIMENTO.                                                                                                                                                                                                         07122300000000000000712230000000000000       0090339900009954185900122317000060
100000000000000000000009033990000995400000000000000000000000010002020088578712231500000000002            2  01885787122323122300000002614870000000001N061223000000000000000000000000000000000000000000000000000000000000000100088578704800GILBERTO DO ESPIRITO SANTO SILVA        RUA URUGUAI - 89 AP.23 - JARDIM GUILHERM            11702300                                                            000062
2SR. CAIXA, APOS O VENCIMENTO COBRAR 2% DE MULTA                                 NAO RECEBER APOS 30 DIAS DO VENCIMENTO.                                                                                                                                                                                                         07122300000000000000712230000000000000       0090339900009954885787122315000063
100000000000000000000009033990000995400000000000000000000000010002020005105212231300000000002            2  01051052122323122300000003118540000000001N061223000000000000000000000000000000000000000000000000000000000000000100005105287835FABIO MOTTOLA DE OLIVEIRA               RUA RAUL MAZZONI - 133 - CHACARA AREAL -            13331022                                                            000065
2SR. CAIXA, APOS O VENCIMENTO COBRAR 2% DE MULTA                                 NAO RECEBER APOS 30 DIAS DO VENCIMENTO.                                                                                                                                                                                                         07122300000000000000712230000000000000       0090339900009954051052122313000066
100000000000000000000009033990000995400000000000000000000000010002020020792712231200000000002            2  01207927122323122300000003242160000000001N061223000000000000000000000000000000000000000000000000000000000000000120792791000147TROVAO COMERCIO DE ALIMENTOS LTDA-ME    RUA QUINTA DA MAGNOLIA - 67 - JARDIM IPA            03582100                                                            000068
2SR. CAIXA, APOS O VENCIMENTO COBRAR 2% DE MULTA                                 NAO RECEBER APOS 30 DIAS DO VENCIMENTO.                                                                                                                                                                                                         07122300000000000000712230000000000000       0090339900009954207927122312000069
100000000000000000000009033990000995400000000000000000000000010002020007648112231600000000002            2  01076481122323122300000003044380000000001N061223000000000000000000000000000000000000000000000000000000000000000100007648112825MARA REGINA CAPRIO                      RUA DA TRINDADE - 790 - VILA IDEAL - SAO            15060280                                                            000071
2SR. CAIXA, APOS O VENCIMENTO COBRAR 2% DE MULTA                                 NAO RECEBER APOS 30 DIAS DO VENCIMENTO.                                                                                                                                                                                                         07122300000000000000712230000000000000       0090339900009954076481122316000072
100000000000000000000009033990000995400000000000000000000000010002020031157412231500000000002            2  01311574122323122300000003268930000000001N061223000000000000000000000000000000000000000000000000000000000000000100031157420885TALITA ANICHIARICO COSSI                RUA CNEO POMPEO DE CAMARGO - 817 - JARDI            13060150                                                            000074
2SR. CAIXA, APOS O VENCIMENTO COBRAR 2% DE MULTA                                 NAO RECEBER APOS 30 DIAS DO VENCIMENTO.                                                                                                                                                                                                         07122300000000000000712230000000000000       0090339900009954311574122315000075
100000000000000000000009033990000995400000000000000000000000010002020035572512231P00000000002            2  01355725122323122300000003475600000000001N061223000000000000000000000000000000000000000000000000000000000000000100035572536865MARIA SIMONE SANTOS                     RUA JOSE PEZZOLO - 68 - VILA ELDIZIA - S            09181660                                                            000077
2SR. CAIXA, APOS O VENCIMENTO COBRAR 2% DE MULTA                                 NAO RECEBER APOS 30 DIAS DO VENCIMENTO.                                                                                                                                                                                                         07122300000000000000712230000000000000       009033990000995435572512231P000078
100000000000000000000009033990000995400000000000000000000000010002020008800312231700000000002            2  01088003122323122300000003166740000000001N061223000000000000000000000000000000000000000000000000000000000000000100008800368425INGO DIMITRI PEREIRA DA NOBREGA         RUA PROFESSOR MENDES PIMENTEL - 362 - JA            03973010                                                            000080
2SR. CAIXA, APOS O VENCIMENTO COBRAR 2% DE MULTA                                 NAO RECEBER APOS 30 DIAS DO VENCIMENTO.                                                                                                                                                                                                         07122300000000000000712230000000000000       0090339900009954088003122317000081
100000000000000000000009033990000995400000000000000000000000010002020005054112231100000000002            2  01050541122323122300000003064600000000001N061223000000000000000000000000000000000000000000000000000000000000000100005054169806PAULO ROBERTO DE MATTOS                 JARDIM BOTANICO - 849 - DISTRITO DE SOUS            13106258                                                            000083
2SR. CAIXA, APOS O VENCIMENTO COBRAR 2% DE MULTA                                 NAO RECEBER APOS 30 DIAS DO VENCIMENTO.                                                                                                                                                                                                         07122300000000000000712230000000000000       0090339900009954050541122311000084
100000000000000000000009033990000995400000000000000000000000010002020007552112231800000000002            2  01075521122323122300000003064600000000001N061223000000000000000000000000000000000000000000000000000000000000000100007552151846MAURO BORDONI                           AVENIDA DR. AUGUSTO DE TOLEDO - 769 AP.6            09540080                                                            000086
2SR. CAIXA, APOS O VENCIMENTO COBRAR 2% DE MULTA                                 NAO RECEBER APOS 30 DIAS DO VENCIMENTO.                                                                                                                                                                                                         07122300000000000000712230000000000000       0090339900009954075521122318000087
100000000000000000000009033990000995400000000000000000000000010002020012744212231000000000002            2  01127442122323122300000003409820000000001N061223000000000000000000000000000000000000000000000000000000000000000100012744201804ADAIL JOSE DE SOUSA                     RUA ROSARIA - 303 - BAIRRO SACADURA CABR            09061080                                                            000089
2SR. CAIXA, APOS O VENCIMENTO COBRAR 2% DE MULTA                                 NAO RECEBER APOS 30 DIAS DO VENCIMENTO.                                                                                                                                                                                                         07122300000000000000712230000000000000       0090339900009954127442122310000090
100000000000000000000009033990000995400000000000000000000000010002020068320612231800000000002            2  01683206122323122300000012075820000000001N061223000000000000000000000000000000000000000000000000000000000000000100068320663849ANTONIO CAVALCANTE LIMA                 RUA AMAZONAS - 1188 - CENTRO - SAO CAETA            09540201                                                            000092
2SR. CAIXA, APOS O VENCIMENTO COBRAR 2% DE MULTA                                 NAO RECEBER APOS 30 DIAS DO VENCIMENTO.                                                                                                                                                                                                         07122300000000000000712230000000000000       0090339900009954683206122318000093
100000000000000000000009033990000995400000000000000000000000010002020088926212231P00000000002            2  01889262122323122300000002536830000000001N061223000000000000000000000000000000000000000000000000000000000000000100088926230872VALDEMAR LATANCE FILHO                  RUA MELO PINTO DA SILVA - 111 CASA 103 -            18116265                                                            000095
2SR. CAIXA, APOS O VENCIMENTO COBRAR 2% DE MULTA                                 NAO RECEBER APOS 30 DIAS DO VENCIMENTO.                                                                                                                                                                                                         07122300000000000000712230000000000000       009033990000995488926212231P000096
100000000000000000000009033990000995400000000000000000000000010002020004195312231700000000002            2  01041953122323122300000003310990000000001N061223000000000000000000000000000000000000000000000000000000000000000100004195345804LUIZ CARLOS SILVESTRE                   RUA CONDE VICENTE AZEVEDO - 377 - BAIRRO            04264000                                                            000098
2SR. CAIXA, APOS O VENCIMENTO COBRAR 2% DE MULTA                                 NAO RECEBER APOS 30 DIAS DO VENCIMENTO.                                                                                                                                                                                                         07122300000000000000712230000000000000       0090339900009954041953122317000099
9                                                                                                                                                                                                                                                                                                                                                                                                         000100