01REMESSA01COBRANCA       00000000000005316116AIRES CONSTRUTORA E INCORPORAD237BRADESCO       051120        MX0000158                                                                                                                                                                                                                                                                                     000001
100000000000000000000009002800441612000000000000000000000000010002100029380711201500000000002            2  01293807112025112000000003511180000000001N051120000000000000000000000000000000000000000000000000000000000000000100029380708882EDUARDO MENDONCA DAMASCENO              RUA MONTE CASTELO - 296 AP.12 - AVIACAO             11702720                                                            000002
2SR. CAIXA, APOS O VENCIMENTO COBRAR 10% DE MULTA                                NAO RECEBER APOS 30 DIAS DO VENCIMENTO.                                                                                                                                                                                                         05112000000000000000511200000000000000       0090028004416120293807112015000003
100000000000000000000009002800441612000000000000000000000000010002100023988511201900000000002            2  01239885112025112000000003565190000000001N051120000000000000000000000000000000000000000000000000000000000000000100023988525634DALMY PIMENTA                           SAO CAETANO - 136 - VILA SAO VICENTE - U            38026220                                                            000005
2SR. CAIXA, APOS O VENCIMENTO COBRAR 10% DE MULTA                                NAO RECEBER APOS 30 DIAS DO VENCIMENTO.                                                                                                                                                                                                         05112000000000000000511200000000000000       0090028004416120239885112019000006
100000000000000000000009002800441612000000000000000000000000010002100007975911201400000000002            2  01079759112025112000000003770470000000001N051120000000000000000000000000000000000000000000000000000000000000000100007975958808JOCY VIGNADO                            RUA PEDRO GONCALVES SOBRINHO - 568 - PAR            13098641                                                            000008
2SR. CAIXA, APOS O VENCIMENTO COBRAR 10% DE MULTA                                NAO RECEBER APOS 30 DIAS DO VENCIMENTO.                                                                                                                                                                                                         05112000000000000000511200000000000000       0090028004416120079759112014000009
100000000000000000000009002800441612000000000000000000000000010002100023132611201600000000002            2  01231326112025112000000002201390000000001N051120000000000000000000000000000000000000000000000000000000000000000100023132672882LEANDRO MORENO                          RUA MONTE CASTELO - 296 AP.64 - AVIACAO             11702720                                                            000011
2SR. CAIXA, APOS O VENCIMENTO COBRAR 10% DE MULTA                                NAO RECEBER APOS 30 DIAS DO VENCIMENTO.                                                                                                                                                                                                         05112000000000000000511200000000000000       0090028004416120231326112016000012
100000000000000000000009002800441612000000000000000000000000010002100099264611201500000000002            2  01992646112025112000000003754290000000001N051120000000000000000000000000000000000000000000000000000000000000000100099264692800LEONTINO PINHEIRO DA SILVA              AVENIDA JOAO BATISTA FITIPALDI - 469 - V            08685000                                                            000014
2SR. CAIXA, APOS O VENCIMENTO COBRAR 10% DE MULTA                                NAO RECEBER APOS 30 DIAS DO VENCIMENTO.                                                                                                                                                                                                         05112000000000000000511200000000000000       0090028004416120992646112015000015
100000000000000000000009002800441612000000000000000000000000010002100000666311201600000000002            2  01006663112025112000000003621840000000001N051120000000000000000000000000000000000000000000000000000000000000000100000666344825LUIZ HENRIQUE DE CAMPOS                 RUA JOAO CARLOS CAVALCANTI REIS - 21 - J            02281206                                                            000017
2SR. CAIXA, APOS O VENCIMENTO COBRAR 10% DE MULTA                                NAO RECEBER APOS 30 DIAS DO VENCIMENTO.                                                                                                                                                                                                         05112000000000000000511200000000000000       0090028004416120006663112016000018
100000000000000000000009002800441612000000000000000000000000010002100029155011201600000000002            2  01291550112025112000000003824800000000001N051120000000000000000000000000000000000000000000000000000000000000000100029155026842DANIELA YOSHIDA                         RUA MONTE CASTELO - 262 AP.34 - AVIACAO             11702720                                                            000020
2SR. CAIXA, APOS O VENCIMENTO COBRAR 10% DE MULTA                                NAO RECEBER APOS 30 DIAS DO VENCIMENTO.                                                                                                                                                                                                         05112000000000000000511200000000000000       0090028004416120291550112016000021
100000000000000000000009002800441612000000000000000000000000010002100001204411201P00000000002            2  01012044112025112000000003114770000000001N051120000000000000000000000000000000000000000000000000000000000000000100001204431809CEZAR TALAVERA JUNIOR                   RUA MAESTRO ARTURO DE ANGELIS  - 190 AP.            05139010                                                            000023
2SR. CAIXA, APOS O VENCIMENTO COBRAR 10% DE MULTA                                NAO RECEBER APOS 30 DIAS DO VENCIMENTO.                                                                                                                                                                                                         05112000000000000000511200000000000000       009002800441612001204411201P000024
100000000000000000000009002800441612000000000000000000000000010002100004227511201900000000002            2  01042275112025112000000004037670000000001N051120000000000000000000000000000000000000000000000000000000000000000100004227553970ALESSANDRO ISRAEL GOULART               RUA PROFESSORA CARLINDA RIBEIRO - 21 - F            02866200                                                            000026
2SR. CAIXA, APOS O VENCIMENTO COBRAR 10% DE MULTA                                NAO RECEBER APOS 30 DIAS DO VENCIMENTO.                                                                                                                                                                                                         05112000000000000000511200000000000000       0090028004416120042275112019000027
100000000000000000000009002800441612000000000000000000000000010002100060811411201200000000002            2  01608114112025112000000003721170000000001N051120000000000000000000000000000000000000000000000000000000000000000100060811420868HELIO BASSI                             AV.PARIS,575 - PRACA ANTONIO FIGUEROA -             11700082                                                            000029
2SR. CAIXA, APOS O VENCIMENTO COBRAR 10% DE MULTA                                NAO RECEBER APOS 30 DIAS DO VENCIMENTO.                                                                                                                                                                                                         05112000000000000000511200000000000000       0090028004416120608114112012000030
100000000000000000000009002800441612000000000000000000000000010002100001024711201200000000002            2  01010247112025112000000003521220000000001N051120000000000000000000000000000000000000000000000000000000000000000100001024794881CLAUDIO RODRIGUES                       RUA ARACATUBA - 242 - LAPA - SAO PAULO -            05058010                                                            000032
2SR. CAIXA, APOS O VENCIMENTO COBRAR 10% DE MULTA                                NAO RECEBER APOS 30 DIAS DO VENCIMENTO.                                                                                                                                                                                                         05112000000000000000511200000000000000       0090028004416120010247112012000033
100000000000000000000009002800441612000000000000000000000000010002100002225011201300000000002            2  01022250112025112000000005398510000000001N051120000000000000000000000000000000000000000000000000000000000000000100002225072841PEDRO EDUARDO DE AZEVEDO                RUA NATH ZILMAN - 46 - JARDIM SAMAMBAIA             07623085                                                            000035
2SR. CAIXA, APOS O VENCIMENTO COBRAR 10% DE MULTA                                NAO RECEBER APOS 30 DIAS DO VENCIMENTO.                                                                                                                                                                                                         05112000000000000000511200000000000000       0090028004416120022250112013000036
100000000000000000000009002800441612000000000000000000000000010002100022037511201100000000002            2  01220375112025112000000003756760000000001N051120000000000000000000000000000000000000000000000000000000000000000100022037552882ANDREIA CRISTINA FERNANDES DANTAS       PCA CASTRO ALVES - 163 AP.33 - VILA SAO             13224299                                                            000038
2SR. CAIXA, APOS O VENCIMENTO COBRAR 10% DE MULTA                                NAO RECEBER APOS 30 DIAS DO VENCIMENTO.                                                                                                                                                                                                         05112000000000000000511200000000000000       0090028004416120220375112011000039
100000000000000000000009002800441612000000000000000000000000010002100019288711201P00000000002            2  01192887112025112000000003058850000000001N051120000000000000000000000000000000000000000000000000000000000000000100019288787844EMERSON LUIZ MARTINEZ PEREIRA           RUA MONTE CASTELO - 296 AP.74 - AVIACAO             11702720                                                            000041
2SR. CAIXA, APOS O VENCIMENTO COBRAR 10% DE MULTA                                NAO RECEBER APOS 30 DIAS DO VENCIMENTO.                                                                                                                                                                                                         05112000000000000000511200000000000000       009002800441612019288711201P000042
100000000000000000000009002800441612000000000000000000000000010002100027198411201300000000002            2  01271984112025112000000002591010000000001N051120000000000000000000000000000000000000000000000000000000000000000100027198452809CRISTIANE AURELIANO DA SILVA MAIA       RUA MONTE CASTELO - 262 AP.25 - AVIACAO             11702720                                                            000044
2SR. CAIXA, APOS O VENCIMENTO COBRAR 10% DE MULTA                                NAO RECEBER APOS 30 DIAS DO VENCIMENTO.                                                                                                                                                                                                         05112000000000000000511200000000000000       0090028004416120271984112013000045
100000000000000000000009002800441612000000000000000000000000010002100021246211201700000000002            2  01212462112025112000000003162080000000001N051120000000000000000000000000000000000000000000000000000000000000000100021246231840ALEXANDRO DA CUNHA MIGUES               RUA DULCE - 71  - VILA CARRAO - SAO PAUL            03427040                                                            000047
2SR. CAIXA, APOS O VENCIMENTO COBRAR 10% DE MULTA                                NAO RECEBER APOS 30 DIAS DO VENCIMENTO.                                                                                                                                                                                                         05112000000000000000511200000000000000       0090028004416120212462112017000048
100000000000000000000009002800441612000000000000000000000000010002100018470511201700000000002            2  01184705112025112000000004651870000000001N051120000000000000000000000000000000000000000000000000000000000000000100018470520881SILVANA ALVES DE OLIVEIRA               RUA MONTE CASTELO - 262 AP.91 - AVIACAO             11702720                                                            000050
2SR. CAIXA, APOS O VENCIMENTO COBRAR 10% DE MULTA                                NAO RECEBER APOS 30 DIAS DO VENCIMENTO.                                                                                                                                                                                                         05112000000000000000511200000000000000       0090028004416120184705112017000051
100000000000000000000009002800441612000000000000000000000000010002100009297511201700000000002            2  01092975112025112000000003238580000000001N051120000000000000000000000000000000000000000000000000000000000000000100009297523846MARCOS ROBERTO DE CASTRO FERREIRA       RUA MONTE CASTELO - 262 AP.105 - AVIACAO            11702720                                                            000053
2SR. CAIXA, APOS O VENCIMENTO COBRAR 10% DE MULTA                                NAO RECEBER APOS 30 DIAS DO VENCIMENTO.                                                                                                                                                                                                         05112000000000000000511200000000000000       0090028004416120092975112017000054
100000000000000000000009002800441612000000000000000000000000010002100001164111201600000000002            2  01011641112025112000000004013350000000001N051120000000000000000000000000000000000000000000000000000000000000000100001164158864DAVID BLEY LACERDA                      RUA CONEGO ARAUJO MARCONDES - 188 - BAIR            02550080                                                            000056
2SR. CAIXA, APOS O VENCIMENTO COBRAR 10% DE MULTA                                NAO RECEBER APOS 30 DIAS DO VENCIMENTO.                                                                                                                                                                                                         05112000000000000000511200000000000000       0090028004416120011641112016000057
100000000000000000000009002800441612000000000000000000000000010002100031498011201P00000000002            2  01314980112025112000000004877650000000001N051120000000000000000000000000000000000000000000000000000000000000000100031498008895POLIANE  SIBELE DA SILVA                PRACA GENERAL COSTA BARRETO - 56 AP.181             03325070                                                            000059
2SR. CAIXA, APOS O VENCIMENTO COBRAR 10% DE MULTA                                NAO RECEBER APOS 30 DIAS DO VENCIMENTO.                                                                                                                                                                                                         05112000000000000000511200000000000000       009002800441612031498011201P000060
100000000000000000000009002800441612000000000000000000000000010002100000588111201300000000002            2  01005881112025112000000002860820000000001N051120000000000000000000000000000000000000000000000000000000000000000100000588109860JOSE LIARTE GIANTE                      AVENIDA LUIZ GONZAGA DO AMARAL - 143 - J            09320630                                                            000062
2SR. CAIXA, APOS O VENCIMENTO COBRAR 10% DE MULTA                                NAO RECEBER APOS 30 DIAS DO VENCIMENTO.                                                                                                                                                                                                         05112000000000000000511200000000000000       0090028004416120005881112013000063
100000000000000000000009002800441612000000000000000000000000010002100014386811201600000000002            2  01143868112025112000000002288550000000001N051120000000000000000000000000000000000000000000000000000000000000000100014386860134SEVERINO CARLOS DE OLIVEIRA             RUA MONTE CASTELO - 262 AP.54 - AVIACAO             11702720                                                            000065
2SR. CAIXA, APOS O VENCIMENTO COBRAR 10% DE MULTA                                NAO RECEBER APOS 30 DIAS DO VENCIMENTO.                                                                                                                                                                                                         05112000000000000000511200000000000000       0090028004416120143868112016000066
100000000000000000000009002800441612000000000000000000000000010002100039393711201100000000002            2  01393937112025112000000001577280000000001N051120000000000000000000000000000000000000000000000000000000000000000100039393790850NAIRON RICARDO DE ARAUJO SANTOS         RUA NITEROI - 267 CASA 04 - JARDIM INDEP            11380350                                                            000068
2SR. CAIXA, APOS O VENCIMENTO COBRAR 10% DE MULTA                                NAO RECEBER APOS 30 DIAS DO VENCIMENTO.                                                                                                                                                                                                         05112000000000000000511200000000000000       0090028004416120393937112011000069
100000000000000000000009002800441612000000000000000000000000010002100004735211201000000000002            2  01047352112025112000000001626990000000001N051120000000000000000000000000000000000000000000000000000000000000000100004735273832DARIO LUIZ GONCALVES                    RUA MONTE CASTELO - 295 AP.113 - AVIACAO            11702720                                                            000071
2SR. CAIXA, APOS O VENCIMENTO COBRAR 10% DE MULTA                                NAO RECEBER APOS 30 DIAS DO VENCIMENTO.                                                                                                                                                                                                         05112000000000000000511200000000000000       0090028004416120047352112010000072
9                                                                                                                                                                                                                                                                                                                                                                                                         000073