01REMESSA01COBRANCA       00000000000005316116AIRES CONSTRUTORA E INCORPORAD237BRADESCO       010321        MX0000165                                                                                                                                                                                                                                                                                     000001
100000000000000000000009002800441612000000000000000000000000010002100085416903211600000000002            2  01854169032110032100000003612720000000001N010321000000000000000000000000000000000000000000000000000000000000000100085416940891ANTONIO DE SOUSA MENDES                 RUA MONTE CASTELO - 296 AP.52 - AVIACAO             11702720                                                            000002
2SR. CAIXA, APOS O VENCIMENTO COBRAR 10% DE MULTA                                NAO RECEBER APOS 30 DIAS DO VENCIMENTO.                                                                                                                                                                                                         01032100000000000000103210000000000000       0090028004416120854169032116000003
100000000000000000000009002800441612000000000000000000000000010002100019282503211700000000002            2  01192825032110032100000008553240000000001N010321000000000000000000000000000000000000000000000000000000000000000100019282546837FABIO LEANDRO DE FREITAS ASSIS          RUA BASSIM NAGIB TRABULSI - 97 - PONTA D            11030540                                                            000005
2SR. CAIXA, APOS O VENCIMENTO COBRAR 10% DE MULTA                                NAO RECEBER APOS 30 DIAS DO VENCIMENTO.                                                                                                                                                                                                         01032100000000000000103210000000000000       0090028004416120192825032117000006
100000000000000000000009002800441612000000000000000000000000010002100019282503212500000000002            2  01192825032110032100000002641220000000001N010321000000000000000000000000000000000000000000000000000000000000000100019282546837FABIO LEANDRO DE FREITAS ASSIS          RUA BASSIM NAGIB TRABULSI - 97 - PONTA D            11030540                                                            000008
2SR. CAIXA, APOS O VENCIMENTO COBRAR 10% DE MULTA                                NAO RECEBER APOS 30 DIAS DO VENCIMENTO.                                                                                                                                                                                                         01032100000000000000103210000000000000       0090028004416120192825032125000009
100000000000000000000009002800441612000000000000000000000000010002100003865703211500000000002            2  01038657032110032100000003539080000000001N010321000000000000000000000000000000000000000000000000000000000000000100003865776841FRANCISCO JOSE ROCCO                    AVENIDA PADRES OLIVETANOS - 215 AP.83 -             03648000                                                            000011
2SR. CAIXA, APOS O VENCIMENTO COBRAR 10% DE MULTA                                NAO RECEBER APOS 30 DIAS DO VENCIMENTO.                                                                                                                                                                                                         01032100000000000000103210000000000000       0090028004416120038657032115000012
100000000000000000000009002800441612000000000000000000000000010002100028309503211100000000002            2  01283095032110032100000003156030000000001N010321000000000000000000000000000000000000000000000000000000000000000100028309524803DEISE RIBEIRO BARBOSA                   RUA CANDIDO JOSE DE ANDRADE - 173 - ERME            03807030                                                            000014
2SR. CAIXA, APOS O VENCIMENTO COBRAR 10% DE MULTA                                NAO RECEBER APOS 30 DIAS DO VENCIMENTO.                                                                                                                                                                                                         01032100000000000000103210000000000000       0090028004416120283095032111000015
100000000000000000000009002800441612000000000000000000000000010002100011277903211100000000002            2  01112779032110032100000003745880000000001N010321000000000000000000000000000000000000000000000000000000000000000100011277908893JOSE AILTON LOPES DE AZEVEDO            RUA MAESTRO JOAO SEPE - 19 - JARDIM MARI            04181030                                                            000017
2SR. CAIXA, APOS O VENCIMENTO COBRAR 10% DE MULTA                                NAO RECEBER APOS 30 DIAS DO VENCIMENTO.                                                                                                                                                                                                         01032100000000000000103210000000000000       0090028004416120112779032111000018
100000000000000000000009002800441612000000000000000000000000010002100025215103211900000000002            2  01252151032110032100000002824840000000001N010321000000000000000000000000000000000000000000000000000000000000000100025215106886KLEBER LUIZ DOS SANTOS                  RUA MONTE CASTELO - 262 AP.15 - AVIACAO             11702720                                                            000020
2SR. CAIXA, APOS O VENCIMENTO COBRAR 10% DE MULTA                                NAO RECEBER APOS 30 DIAS DO VENCIMENTO.                                                                                                                                                                                                         01032100000000000000103210000000000000       0090028004416120252151032119000021
100000000000000000000009002800441612000000000000000000000000010002100090206703211600000000002            2  01902067032110032100000003155240000000001N010321000000000000000000000000000000000000000000000000000000000000000100090206789815NEREIDE RODRIGUES FERREIRA              AVENIDA PADRE ESTANISLAU DE CAMPOS - 205            03590060                                                            000023
2SR. CAIXA, APOS O VENCIMENTO COBRAR 10% DE MULTA                                NAO RECEBER APOS 30 DIAS DO VENCIMENTO.                                                                                                                                                                                                         01032100000000000000103210000000000000       0090028004416120902067032116000024
100000000000000000000009002800441612000000000000000000000000010002100029150703211400000000002            2  01291507032110032100000003693250000000001N010321000000000000000000000000000000000000000000000000000000000000000100029150742833ANA DEISE SANTOS DE ALMEIDA             RUA MONTE CASTELO - 296 AP.121 - AVIACAO            11702720                                                            000026
2SR. CAIXA, APOS O VENCIMENTO COBRAR 10% DE MULTA                                NAO RECEBER APOS 30 DIAS DO VENCIMENTO.                                                                                                                                                                                                         01032100000000000000103210000000000000       0090028004416120291507032114000027
100000000000000000000009002800441612000000000000000000000000010002100000811703211P00000000002            2  01008117032110032100000003042070000000001N010321000000000000000000000000000000000000000000000000000000000000000100000811752801SERGIO BUENO DA SILVA                   RUA MONTE CASTELO - 262 AP.75 - AVIACAO             11702720                                                            000029
2SR. CAIXA, APOS O VENCIMENTO COBRAR 10% DE MULTA                                NAO RECEBER APOS 30 DIAS DO VENCIMENTO.                                                                                                                                                                                                         01032100000000000000103210000000000000       009002800441612000811703211P000030
100000000000000000000009002800441612000000000000000000000000010002100018344803211600000000002            2  01183448032110032100000004136470000000001N010321000000000000000000000000000000000000000000000000000000000000000100018344803888MARCELO BERNARDO                        RUA MONTE CASTELO - 262 AP.84 - AVIACAO             11702720                                                            000032
2SR. CAIXA, APOS O VENCIMENTO COBRAR 10% DE MULTA                                NAO RECEBER APOS 30 DIAS DO VENCIMENTO.                                                                                                                                                                                                         01032100000000000000103210000000000000       0090028004416120183448032116000033
100000000000000000000009002800441612000000000000000000000000010002100004004303211300000000002            2  01040043032110032100000005421600000000001N010321000000000000000000000000000000000000000000000000000000000000000100004004328896VANDERLEI  MARTINS DE ALMEIDA           RUA MONSENHOR TABOSA - 03 - PARQUE CISPE            03819300                                                            000035
2SR. CAIXA, APOS O VENCIMENTO COBRAR 10% DE MULTA                                NAO RECEBER APOS 30 DIAS DO VENCIMENTO.                                                                                                                                                                                                         01032100000000000000103210000000000000       0090028004416120040043032113000036
100000000000000000000009002800441612000000000000000000000000010002100031803803211100000000002            2  01318038032110032100000003340400000000001N010321000000000000000000000000000000000000000000000000000000000000000100031803864877ELEILSON FELIPPE SANTOS                 RUA SANTA GREGORIA - 193 - CIDADE DUTRA             04806030                                                            000038
2SR. CAIXA, APOS O VENCIMENTO COBRAR 10% DE MULTA                                NAO RECEBER APOS 30 DIAS DO VENCIMENTO.                                                                                                                                                                                                         01032100000000000000103210000000000000       0090028004416120318038032111000039
100000000000000000000009002800441612000000000000000000000000010002100063064503211600000000002            2  01630645032110032100000003980690000000001N010321000000000000000000000000000000000000000000000000000000000000000100063064537849ANTONIO APARECIDO DA SILVA DESTEFANO    RUA PROFESSOR TEODORO BRAGA - 46 - VILA             02966020                                                            000041
2SR. CAIXA, APOS O VENCIMENTO COBRAR 10% DE MULTA                                NAO RECEBER APOS 30 DIAS DO VENCIMENTO.                                                                                                                                                                                                         01032100000000000000103210000000000000       0090028004416120630645032116000042
100000000000000000000009002800441612000000000000000000000000010002100010107703211100000000002            2  01101077032110032100000003814710000000001N010321000000000000000000000000000000000000000000000000000000000000000100010107711834VALDEMAR FECCHIO                        RUA DOUTOR MARTINS DE OLIVEIRA - 529 AP.            05638030                                                            000044
2SR. CAIXA, APOS O VENCIMENTO COBRAR 10% DE MULTA                                NAO RECEBER APOS 30 DIAS DO VENCIMENTO.                                                                                                                                                                                                         01032100000000000000103210000000000000       0090028004416120101077032111000045
100000000000000000000009002800441612000000000000000000000000010002100005920503211500000000002            2  01059205032110032100000002317580000000001N010321000000000000000000000000000000000000000000000000000000000000000100005920579846SONIA MARIA VALDO POLLO                 RUA PALMIRA CERVI BARBARO - 797 - CIDADE            13214370                                                            000047
2SR. CAIXA, APOS O VENCIMENTO COBRAR 10% DE MULTA                                NAO RECEBER APOS 30 DIAS DO VENCIMENTO.                                                                                                                                                                                                         01032100000000000000103210000000000000       0090028004416120059205032115000048
100000000000000000000009002800441612000000000000000000000000010002100002494103211600000000002            2  01024941032110032100000003484590000000001N010321000000000000000000000000000000000000000000000000000000000000000100002494107881CIRO FRANCISCO MARCHI DURIGON           RUA MONTE CASTELO - 262 AP.115 - AVIACAO            11702720                                                            000050
2SR. CAIXA, APOS O VENCIMENTO COBRAR 10% DE MULTA                                NAO RECEBER APOS 30 DIAS DO VENCIMENTO.                                                                                                                                                                                                         01032100000000000000103210000000000000       0090028004416120024941032116000051
100000000000000000000009002800441612000000000000000000000000010002100007002303211300000000002            2  01070023032110032100000003425510000000001N010321000000000000000000000000000000000000000000000000000000000000000100007002345869DOMINGOS DE BRITO GALVAO                RUA MONTE CASTELO - 262 AP.44 - AVIACAO             11702720                                                            000053
2SR. CAIXA, APOS O VENCIMENTO COBRAR 10% DE MULTA                                NAO RECEBER APOS 30 DIAS DO VENCIMENTO.                                                                                                                                                                                                         01032100000000000000103210000000000000       0090028004416120070023032113000054
100000000000000000000009002800441612000000000000000000000000010002100016299003211700000000002            2  01162990032110032100000003302200000000001N010321000000000000000000000000000000000000000000000000000000000000000100016299008857FERNANDO CESAR CARVALHO                 AVENIDA MARCONDES DE BRITO - 1340 AP.74             03509000                                                            000056
2SR. CAIXA, APOS O VENCIMENTO COBRAR 10% DE MULTA                                NAO RECEBER APOS 30 DIAS DO VENCIMENTO.                                                                                                                                                                                                         01032100000000000000103210000000000000       0090028004416120162990032117000057
100000000000000000000009002800441612000000000000000000000000010002100065895303211000000000002            2  01658953032110032100000002020290000000001N010321000000000000000000000000000000000000000000000000000000000000000100065895304834MARINHO BARBOSA CUNHA                   AVENIDA EDU CHAVES - 639 AP.43 - PARQUE             02229000                                                            000059
2SR. CAIXA, APOS O VENCIMENTO COBRAR 10% DE MULTA                                NAO RECEBER APOS 30 DIAS DO VENCIMENTO.                                                                                                                                                                                                         01032100000000000000103210000000000000       0090028004416120658953032110000060
100000000000000000000009002800441612000000000000000000000000010002100055975303211800000000002            2  01559753032110032100000000754080000000001N010321000000000000000000000000000000000000000000000000000000000000000100055975372887BENEVENUTO THEODORO DA SILVA NETO       RUA MONTE CASTELO - 296 AP.63 - AVIACAO             11702720                                                            000062
2SR. CAIXA, APOS O VENCIMENTO COBRAR 10% DE MULTA                                NAO RECEBER APOS 30 DIAS DO VENCIMENTO.                                                                                                                                                                                                         01032100000000000000103210000000000000       0090028004416120559753032118000063
9                                                                                                                                                                                                                                                                                                                                                                                                         000064