10400000         2219876470001290000000000000000000003856372936100000000HB SANTOS CONSTRUTORA E INCORPCAIXA ECONOMICA FEDERAL                 10101202217552200006105000000                    REMESSA-PRODUCAO                                 
10400011R0100030 20219876470001297293610000000000000003856372936100000000HB SANTOS CONSTRUTORA E INCORPAPOS VENCIMENTO, COBRAR MULTA DE 2%                                             000000610101202200000000                                 
1040000300002P 0103856372936100000000000140000314737012211122031473701221    2901202200000001000000000000002A0101202223001202200000000000010000000000000000000000000000000000000000000000000000000000000000000000314737012213051030090000000000 
1040000300002Q 011000031473799813MURIEL DA SILVA DE MOURA SOUZA          RUA CAPITAO PAULINO FREIRE - 300 AP.014                08717100MOGI DAS CRUZESSP0000000000000000                                        000                            
1040000300002R 01000000000               000000000               229012022000000000000200                                                                                                                                                       
10400005         000005000000000000000000000000000000000000000000000000000000000000000000000                                                                                                                                                    
10499999         000001000007                                                                                                                                                                                                                   