10400000         2219876470001290000000000000000000003856372936100000000HB SANTOS CONSTRUTORA E INCORPCAIXA ECONOMICA FEDERAL                 11711201714393000005205000000                    REMESSA-PRODUCAO                                 
10400011R0100030 20219876470001297293610000000000000003856372936100000000HB SANTOS CONSTRUTORA E INCORPAPOS VENCIMENTO, COBRAR MULTA DE 2%                                             000000521711201700000000                                 
1040000300002P 0103856372936100000000000140000022521111721122002252111172    2111201700000000000150000000002A1711201722211201700000000000010000000000000000000000000000000000000000000000000000000000000000000000022521111723051030090000000000 
1040000300002Q 011000002252149892AIRES MOTA DOS SANTOS                   AVENIDA BRASIL - 600                                   11701090PRAIA GRANDE   SP0000000000000000                                        000                            
1040000300002R 01000000000               000000000               221112017000000000000200                                                                                                                                                       
1040000300002P 0103856372936100000000000140000022521111731122002252111173    2111201700000000000210000000002A1711201722211201700000000000010000000000000000000000000000000000000000000000000000000000000000000000022521111733051030090000000000 
1040000300002Q 011000002252149892AIRES MOTA DOS SANTOS                   AVENIDA BRASIL - 600                                   11701090PRAIA GRANDE   SP0000000000000000                                        000                            
1040000300002R 01000000000               000000000               221112017000000000000200                                                                                                                                                       
10400005         000008000000000000000000000000000000000000000000000000000000000000000000000                                                                                                                                                    
10499999         000001000010                                                                                                                                                                                                                   