10400000         2219876470001290000000000000000000003856372936100000000HB SANTOS CONSTRUTORA E INCORPCAIXA ECONOMICA FEDERAL                 10803201914161400005305000000                    REMESSA-PRODUCAO                                 
10400011R0100030 20219876470001297293610000000000000003856372936100000000HB SANTOS CONSTRUTORA E INCORPAPOS VENCIMENTO, COBRAR MULTA DE 2%                                             000000530803201900000000                                 
1040000300002P 0103856372936100000000000140000064718031921122006471803192    1803201900000000800000000000002A0803201921903201900000000000010000000000000000000000000000000000000000000000000000000000000000000000064718031923051030090000000000 
1040000300002Q 011000006471825803JOSIVALDO BASTOS DE OLIVEIRA            RUA MARIA DIAS HOG - 263                               07085035GUARULHOS      SP0000000000000000                                        000                            
1040000300002R 01000000000               000000000               218032019000000000000200                                                                                                                                                       
10400005         000005000000000000000000000000000000000000000000000000000000000000000000000                                                                                                                                                    
10499999         000001000007                                                                                                                                                                                                                   