10400000         221987647/000120000000000000000000003856372936100000000HB SANTOS CONSTRUTORA E INCORPCAIXA ECONOMICA FEDERAL                 11008201714115500003405000000                    REMESSA-PRODUCAO                                 
10400011R0100030 2021987647/000127293610000000000000003856372936100000000HB SANTOS CONSTRUTORA E INCORPAPOS VENCIMENTO, COBRAR MULTA DE 2%                                             000000341008201700000000                                 
1040000300002P 0103856372936100000000000140000301571021121122030157102112    1008201700000000000013400000002A1008201721108201700000000000010000000000000000000000000000000000000000000000000000000000000000000000301571021123051030090000000000 
1040000300002Q 011000002252149892AIRES MOTA                              AV. BRASIL - 600 - BOQUEIRAO - PRAIA GRA               11701090                 0000000000000000                                        000                            
1040000300002R 01000000000               000000000               210082017000000000000200                                                                                                                                                       
10400005         000005000000000000000000000000000000000000000000000000000000000000000000000                                                                                                                                                    
10499999         000001000007                                                                                                                                                                                                                   