10400000         2219876470001290000000000000000000003856372936100000000HB SANTOS CONSTRUTORA E INCORPCAIXA ECONOMICA FEDERAL                 10101202217263200006005000000                    REMESSA-PRODUCAO                                 
10400011R0100030 20219876470001297293610000000000000003856372936100000000HB SANTOS CONSTRUTORA E INCORPAPOS VENCIMENTO, COBRAR MULTA DE 2%                                             000000600101202200000000                                 
1040000300002P 0103856372936100000000000140000268586012211122026858601221    2901202200000000483271200000002A0101202223001202200000000000010000000000000000000000000000000000000000000000000000000000000000000000268586012213051030090000000000 
1040000300002Q 011000026858625879GLAUCE FERREIRA DE OLIVEIRA FALSI       RUA LOURENCO ANTONIO BRAGANCA - 116                    04403160SAO PAULO      SP0000000000000000                                        000                            
1040000300002R 01000000000               000000000               229012022000000000000200                                                                                                                                                       
1040000300002P 0103856372936100000000000140000049281012211122004928101221    2901202200000000462590000000002A0101202223001202200000000000010000000000000000000000000000000000000000000000000000000000000000000000049281012213051030090000000000 
1040000300002Q 011000004928157800ADEMIR APARECIDO ANTUNES                RUA JAIME TAVEIRA - 91 AP.056 B                        03732060SAO PAULO      SP0000000000000000                                        000                            
1040000300002R 01000000000               000000000               229012022000000000000200                                                                                                                                                       
1040000300002P 0103856372936100000000000140000088993012211122008899301221    2901202200000000454690000000002A0101202223001202200000000000010000000000000000000000000000000000000000000000000000000000000000000000088993012213051030090000000000 
1040000300002Q 011000008899362858ELAINE D ALMEIDA FERDINANDY             ALAMEDA SUBTENENTE AVIADOR FRANCISCO HIE               02187040SAO PAULO      SP0000000000000000                                        000                            
1040000300002R 01000000000               000000000               229012022000000000000200                                                                                                                                                       
1040000300002P 0103856372936100000000000140000294250012211122029425001221    2901202200000000459590000000002A0101202223001202200000000000010000000000000000000000000000000000000000000000000000000000000000000000294250012213051030090000000000 
1040000300002Q 011000029425027897FABIA DOS SANTOS DE ANDRADE             AVENIDA ALCIDES CANDIDO DOS SANTOS - 248               11705480PRAIA GRANDE   SP0000000000000000                                        000                            
1040000300002R 01000000000               000000000               229012022000000000000200                                                                                                                                                       
1040000300002P 0103856372936100000000000140000112380012211122011238001221    2901202200000000456590000000002A0101202223001202200000000000010000000000000000000000000000000000000000000000000000000000000000000000112380012213051030090000000000 
1040000300002Q 011000011238052886SOLANGE DIAS DE SOUZA ROMANO            AVENIDA DR. ALTINO ARANTES - 865 AP.132                04042034SAO PAULO      SP0000000000000000                                        000                            
1040000300002R 01000000000               000000000               229012022000000000000200                                                                                                                                                       
1040000300002P 0103856372936100000000000140000289742012211122028974201221    2901202200000000450590000000002A0101202223001202200000000000010000000000000000000000000000000000000000000000000000000000000000000000289742012213051030090000000000 
1040000300002Q 011000028974233827MARISTELA FAVANI DE OLIVEIRA            RUA GIUSEPPE CARNEVALLI - 96                           09572100SAO CAETANO DO SP0000000000000000                                        000                            
1040000300002R 01000000000               000000000               229012022000000000000200                                                                                                                                                       
1040000300002P 0103856372936100000000000140000921848012211122092184801221    2901202200000000444590000000002A0101202223001202200000000000010000000000000000000000000000000000000000000000000000000000000000000000921848012213051030090000000000 
1040000300002Q 011000092184804800CARMEM DO SOCORRO GUILHERME             ESTRADA SAO FRANCISCO - 1.850 AP.182A                  06765000TABOAO DA SERRASP0000000000000000                                        000                            
1040000300002R 01000000000               000000000               229012022000000000000200                                                                                                                                                       
1040000300002P 0103856372936100000000000140000091697012211122009169701221    2901202200000000481570000000002A0101202223001202200000000000010000000000000000000000000000000000000000000000000000000000000000000000091697012213051030090000000000 
1040000300002Q 011000009169701830TADEU CONSTANTINO LOPES                 RUA JOSE ANTONIO COELHO - 349 CASA 01                  04011061SAO PAULO      SP0000000000000000                                        000                            
1040000300002R 01000000000               000000000               229012022000000000000200                                                                                                                                                       
1040000300002P 0103856372936100000000000140000424801012211122042480101221    2901202200000000226794500000002A0101202223001202200000000000010000000000000000000000000000000000000000000000000000000000000000000000424801012213051030090000000000 
1040000300002Q 011000042480155870JAMITRE SOIOMARA ALVES DO NASCIMENTO DAVRUA SERTANISTA GILBERTO PINTO FRANCISCO                11703440PRAIA GRANDE   SP0000000000000000                                        000                            
1040000300002R 01000000000               000000000               229012022000000000000200                                                                                                                                                       
1040000300002P 0103856372936100000000000140000463912012211122046391201221    2901202200000000481840000000002A0101202223001202200000000000010000000000000000000000000000000000000000000000000000000000000000000000463912012213051030090000000000 
1040000300002Q 011000046391265810PAMELLA RODRIGUES DE OLIVEIRA           RUA AUGUSTA - 183 AP.301 BL.2A                         07025130GUARULHOS      SP0000000000000000                                        000                            
1040000300002R 01000000000               000000000               229012022000000000000200                                                                                                                                                       
1040000300002P 0103856372936100000000000140000279645012211122027964501221    2901202200000000628840000000002A0101202223001202200000000000010000000000000000000000000000000000000000000000000000000000000000000000279645012213051030090000000000 
1040000300002Q 011000027964512838FABIO TADEU DE CAMPOS RADZIAVICIUS      AV.PROF.LUIZ IGNACIO ANHAIA MELLO - 2.58               03154100SAO PAULO      SP0000000000000000                                        000                            
1040000300002R 01000000000               000000000               229012022000000000000200                                                                                                                                                       
1040000300002P 0103856372936100000000000140000046112012211122004611201221    2901202200000000443930000000002A0101202223001202200000000000010000000000000000000000000000000000000000000000000000000000000000000000046112012213051030090000000000 
1040000300002Q 011000004611218830TANIA MARIA DA SILVA NUNES PEREIRA LUIZ RODOVIA RAPOSO TAVARES, 7389 KM 17,5 - A               05576200SAO PAULO      SP0000000000000000                                        000                            
1040000300002R 01000000000               000000000               229012022000000000000200                                                                                                                                                       
1040000300002P 0103856372936100000000000140000688756012211122068875601221    2901202200000000475840000000002A0101202223001202200000000000010000000000000000000000000000000000000000000000000000000000000000000000688756012213051030090000000000 
1040000300002Q 011000068875673691ILDETE BATISTA NEIVA GOLFAR             RUA MARECHAL MAURICIO JOSE CARDOSO - 230               11700140PRAIA GRANDE   SP0000000000000000                                        000                            
1040000300002R 01000000000               000000000               229012022000000000000200                                                                                                                                                       
1040000300002P 0103856372936100000000000140000008842012211122000884201221    2901202200000000475570000000002A0101202223001202200000000000010000000000000000000000000000000000000000000000000000000000000000000000008842012213051030090000000000 
1040000300002Q 011000000884239802ADEMIR MARTINS                          RUA CAIRO - 221                                        09220170SANTO ANDRE    SP0000000000000000                                        000                            
1040000300002R 01000000000               000000000               229012022000000000000200                                                                                                                                                       
1040000300002P 0103856372936100000000000140000252144012211122025214401221    2901202200000000601420000000002A0101202223001202200000000000010000000000000000000000000000000000000000000000000000000000000000000000252144012213051030090000000000 
1040000300002Q 011000025214401833JOSE MAURICIO DOS SANTOS RODRIGUES      RUA JOAO DE MACEDO RIBEIRO - 49                        08111101SAO PAULO      SP0000000000000000                                        000                            
1040000300002R 01000000000               000000000               229012022000000000000200                                                                                                                                                       
1040000300002P 0103856372936100000000000140000013569012211122001356901221    2901202200000000626290000000002A0101202223001202200000000000010000000000000000000000000000000000000000000000000000000000000000000000013569012213051030090000000000 
1040000300002Q 011000001356993800DALVA MARIA DOS SANTOS                  RUA SOLDADO CESARIO AGUIAR - 30                        07070050GUARULHOS      SP0000000000000000                                        000                            
1040000300002R 01000000000               000000000               229012022000000000000200                                                                                                                                                       
1040000300002P 0103856372936100000000000140000331191012211122033119101221    2901202200000000500000000000002A0101202223001202200000000000010000000000000000000000000000000000000000000000000000000000000000000000331191012213051030090000000000 
1040000300002Q 011000033119178802HUGO GOMES VENDRAME                     RUA SAO PAULO - 60 CASA 01                             06380110CARAPICUIBA    SP0000000000000000                                        000                            
1040000300002R 01000000000               000000000               229012022000000000000200                                                                                                                                                       
1040000300002P 0103856372936100000000000140000166315012211122016631501221    2901202200000000472570000000002A0101202223001202200000000000010000000000000000000000000000000000000000000000000000000000000000000000166315012213051030090000000000 
1040000300002Q 011000016631587468GILBERTO BEZERRA DA SILVA               AVENIDA JAIME TORRES - 745 CASA 3                      03670000SAO PAULO      SP0000000000000000                                        000                            
1040000300002R 01000000000               000000000               229012022000000000000200                                                                                                                                                       
1040000300002P 0103856372936100000000000140000073132012211122007313201221    2901202200000000469570000000002A0101202223001202200000000000010000000000000000000000000000000000000000000000000000000000000000000000073132012213051030090000000000 
1040000300002Q 011000007313251840SALVADOR GESUALDO PULVIRENTI            AVENIDA MARARI - 641                                   04402010SAO PAULO      SP0000000000000000                                        000                            
1040000300002R 01000000000               000000000               229012022000000000000200                                                                                                                                                       
1040000300002P 0103856372936100000000000140000106767012211122010676701221    2901202200000000583900000000002A0101202223001202200000000000010000000000000000000000000000000000000000000000000000000000000000000000106767012213051030090000000000 
1040000300002Q 011000010676723896MERCEDES CRISTINA ROCHA SANDOVAL        RUA ITARARE - 446 AP.806                               11701620PRAIA GRANDE   SP0000000000000000                                        000                            
1040000300002R 01000000000               000000000               229012022000000000000200                                                                                                                                                       
1040000300002P 0103856372936100000000000140000095028012211122009502801221    2901202200000000622290000000002A0101202223001202200000000000010000000000000000000000000000000000000000000000000000000000000000000000095028012213051030090000000000 
1040000300002Q 011000009502844831CLAUDIA ROCHA SANDOVAL                  RUA ABAETE - 29.153                                    11703490PRAIA GRANDE   SP0000000000000000                                        000                            
1040000300002R 01000000000               000000000               229012022000000000000200                                                                                                                                                       
1040000300002P 0103856372936100000000000140000075942012211122007594201221    2901202200000000597420000000002A0101202223001202200000000000010000000000000000000000000000000000000000000000000000000000000000000000075942012213051030090000000000 
1040000300002Q 011000007594247809JOSE LUIS DE OLIVEIRA                   DONA EGLANTINA PENTEADO DA SILVA PRADO -               13044162CAMPINAS       SP0000000000000000                                        000                            
1040000300002R 01000000000               000000000               229012022000000000000200                                                                                                                                                       
1040000300002P 0103856372936100000000000140000052887012211122005288701221    2901202200000000427800000000002A0101202223001202200000000000010000000000000000000000000000000000000000000000000000000000000000000000052887012213051030090000000000 
1040000300002Q 011000005288796858MARCELO RODRIGUES FERREIRA              RUA MARCOS ANTONIO MARQUES - 302                       06433020BARUERI        SP0000000000000000                                        000                            
1040000300002R 01000000000               000000000               229012022000000000000200                                                                                                                                                       
1040000300002P 0103856372936100000000000140000158359012211122015835901221    2901202200000000600000000000002A0101202223001202200000000000010000000000000000000000000000000000000000000000000000000000000000000000158359012213051030090000000000 
1040000300002Q 011000015835992823FLAVIO VERONEZ                          RUA ANDREA PAULINETTI - 127 AP.42                      04707050SAO PAULO      SP0000000000000000                                        000                            
1040000300002R 01000000000               000000000               229012022000000000000200                                                                                                                                                       
1040000300002P 0103856372936100000000000140000246155012211122024615501221    2901202200000000600000000000002A0101202223001202200000000000010000000000000000000000000000000000000000000000000000000000000000000000246155012213051030090000000000 
1040000300002Q 011000024615557884GILBERTO JOSE GONSALES                  RUA DOS GOYTACAZES - 447 AP.206 BL.2                   28013266CAMPOS DOS GOYTRJ0000000000000000                                        000                            
1040000300002R 01000000000               000000000               229012022000000000000200                                                                                                                                                       
1040000300002P 0103856372936100000000000140000004381012211122000438101221    2901202200000000658880000000002A0101202223001202200000000000010000000000000000000000000000000000000000000000000000000000000000000000004381012213051030090000000000 
1040000300002Q 011000000438161858WAGNECY VILLA NOVA LIEN                 MACHADO - 106                                          07025210GUARULHOS      SP0000000000000000                                        000                            
1040000300002R 01000000000               000000000               229012022000000000000200                                                                                                                                                       
1040000300002P 0103856372936100000000000140000260045012211122026004501221    2901202200000000643100000000002A0101202223001202200000000000010000000000000000000000000000000000000000000000000000000000000000000000260045012213051030090000000000 
1040000300002Q 011000026004595888EDIVALDO BEZERRA DA SILVA               AVENIDA GUATEMALA - 550                                09854750SAO BERNARDO DOSP0000000000000000                                        000                            
1040000300002R 01000000000               000000000               229012022000000000000200                                                                                                                                                       
1040000300002P 0103856372936100000000000140000124707012211122012470701221    2901202200000000628900000000002A0101202223001202200000000000010000000000000000000000000000000000000000000000000000000000000000000000124707012213051030090000000000 
1040000300002Q 011000012470771870HILTON FERNANDES OLIVARES               RUA PATIO DA ESTACAO - 115                             09450000RIO GRANDE DA SSP0000000000000000                                        000                            
1040000300002R 01000000000               000000000               229012022000000000000200                                                                                                                                                       
1040000300002P 0103856372936100000000000140000140254012211122014025401221    2901202200000000683100000000002A0101202223001202200000000000010000000000000000000000000000000000000000000000000000000000000000000000140254012213051030090000000000 
1040000300002Q 011000014025420899ANDREIA APARECIDA TAVARES BASTOS        RUA IBATIBA - 234 CASA 27                              09220608SANTO ANDRE    SP0000000000000000                                        000                            
1040000300002R 01000000000               000000000               229012022000000000000200                                                                                                                                                       
1040000300002P 0103856372936100000000000140000885787012211122088578701221    2901202200000000607900000000002A0101202223001202200000000000010000000000000000000000000000000000000000000000000000000000000000000000885787012213051030090000000000 
1040000300002Q 011000088578704800GILBERTO DO ESPIRITO SANTO SILVA        RUA GUARANY - 697 CASA 01                              11360000SAO VICENTE    SP0000000000000000                                        000                            
1040000300002R 01000000000               000000000               229012022000000000000200                                                                                                                                                       
1040000300002P 0103856372936100000000000140000088788012211122008878801221    2901202200000000500000000000002A0101202223001202200000000000010000000000000000000000000000000000000000000000000000000000000000000000088788012213051030090000000000 
1040000300002Q 011000008878832812LUIZ ANTONIO DE OLIVEIRA                RUA TORRINHA - 220 AP.132                              03332010SAO PAULO      SP0000000000000000                                        000                            
1040000300002R 01000000000               000000000               229012022000000000000200                                                                                                                                                       
1040000300002P 0103856372936100000000000140000153782012211122015378201221    2901202200000001000000000000002A0101202223001202200000000000010000000000000000000000000000000000000000000000000000000000000000000000153782012213051030090000000000 
1040000300002Q 011000015378295807SERGIO FERNANDES                        RUA VALDEMAR MARTINS - 116 AP.115                      02535000SAO PAULO      SP0000000000000000                                        000                            
1040000300002R 01000000000               000000000               229012022000000000000200                                                                                                                                                       
1040000300002P 0103856372936100000000000140000051052012211122005105201221    2901202200000000860000000000002A0101202223001202200000000000010000000000000000000000000000000000000000000000000000000000000000000000051052012213051030090000000000 
1040000300002Q 011000005105287835FABIO MOTTOLA DE OLIVEIRA               RUA RAUL MAZZONI - 133                                 13331022INDAIATUBA     SP0000000000000000                                        000                            
1040000300002R 01000000000               000000000               229012022000000000000200                                                                                                                                                       
1040000300002P 0103856372936100000000000140000207927012211122020792701221    2901202200000000716300000000002A0101202223001202200000000000010000000000000000000000000000000000000000000000000000000000000000000000207927012213051030090000000000 
1040000300002Q 011020792791000147TROVAO COMERCIO DE ALIMENTOS LTDA-ME    RUA QUINTA DA MAGNOLIA - 67                            03582100SAO PAULO      SP0000000000000000                                        000                            
1040000300002R 01000000000               000000000               229012022000000000000200                                                                                                                                                       
1040000300002P 0103856372936100000000000140000076481012211122007648101221    2901202200000001000000000000002A0101202223001202200000000000010000000000000000000000000000000000000000000000000000000000000000000000076481012213051030090000000000 
1040000300002Q 011000007648112825MARA REGINA CAPRIO                      RUA DA TRINDADE - 790                                  15060280SAO JOSE DO RIOSP0000000000000000                                        000                            
1040000300002R 01000000000               000000000               229012022000000000000200                                                                                                                                                       
1040000300002P 0103856372936100000000000140000369495012211122036949501221    2901202200000000734100000000002A0101202223001202200000000000010000000000000000000000000000000000000000000000000000000000000000000000369495012213051030090000000000 
1040000300002Q 011000036949505833FELIPE APARECIDO DOS SANTOS             RUA DAS MIMOSAS - 67 CASA 09                           03144010SAO PAULO      SP0000000000000000                                        000                            
1040000300002R 01000000000               000000000               229012022000000000000200                                                                                                                                                       
1040000300002P 0103856372936100000000000140000355725012211122035572501221    2901202200000000538400000000002A0101202223001202200000000000010000000000000000000000000000000000000000000000000000000000000000000000355725012213051030090000000000 
1040000300002Q 011000035572536865MARIA SIMONE SANTOS                     RUA JOSE PEZZOLO - 68                                  09181660SANTO ANDRE    SP0000000000000000                                        000                            
1040000300002R 01000000000               000000000               229012022000000000000200                                                                                                                                                       
10400005         000113000000000000000000000000000000000000000000000000000000000000000000000                                                                                                                                                    
10499999         000001000115                                                                                                                                                                                                                   