10400000         2219876470001290000000000000000000003856372936100000000HB SANTOS CONSTRUTORA E INCORPCAIXA ECONOMICA FEDERAL                 10101202218232000006205000000                    REMESSA-PRODUCAO                                 
10400011R0100030 20219876470001297293610000000000000003856372936100000000HB SANTOS CONSTRUTORA E INCORPAPOS VENCIMENTO, COBRAR MULTA DE 2%                                             000000620101202200000000                                 
1040000300002P 0103856372936100000000000140000883393012211122088339301221    2901202200000000448690000000002A0101202223001202200000000000010000000000000000000000000000000000000000000000000000000000000000000000883393012213051030090000000000 
1040000300002Q 011000088339319868MARCIA SIQUEIRA MELLO                   RUA ADELINO ALVES - 81                                 04710120SAO PAULO      SP0000000000000000                                        000                            
1040000300002R 01000000000               000000000               229012022000000000000200                                                                                                                                                       
10400005         000005000000000000000000000000000000000000000000000000000000000000000000000                                                                                                                                                    
10499999         000001000007                                                                                                                                                                                                                   