10400000         2219876470001290000000000000000000003856372936100000000HB SANTOS CONSTRUTORA E INCORPCAIXA ECONOMICA FEDERAL                 12211202112524400005905000000                    REMESSA-PRODUCAO                                 
10400011R0100030 20219876470001297293610000000000000003856372936100000000HB SANTOS CONSTRUTORA E INCORPAPOS VENCIMENTO, COBRAR MULTA DE 2%                                             000000592211202100000000                                 
1040000300002P 0103856372936100000000000140000022521112141122002252111214    2811202100000000000102800000002A2211202122911202100000000000010000000000000000000000000000000000000000000000000000000000000000000000022521112143051030090000000000 
1040000300002Q 011000002252149892AIRES MOTA DOS SANTOS                   AVENIDA BRASIL - 600                                   11701090PRAIA GRANDE   SP0000000000000000                                        000                            
1040000300002R 01000000000               000000000               228112021000000000000200                                                                                                                                                       
10400005         000005000000000000000000000000000000000000000000000000000000000000000000000                                                                                                                                                    
10499999         000001000007                                                                                                                                                                                                                   