01REMESSA01COBRANCA       00000000000004991788AIRES DESENVOLVIMENTO IMOBILIA237BRADESCO       100518        MX0000129                                                                                                                                                                                                                                                                                     000001
100000000000000000000009077090011897400000000000000000000000010002100011088005181700000000002            2  01110880051825051800000001886720000000001N100518000000000000000000000000000000000000000000000000000000000000000100011088018890LUIZ CARLOS VITORINO MADEIRA            RUA JOSE CALIXTO DO CARMO - 265 AP. 32 -            11702690                                                            000002
2SR. CAIXA, APOS O VENCIMENTO COBRAR 10% DE MULTA                                NAO RECEBER APOS 30 DIAS DO VENCIMENTO.                                                                                                                                                                                                         10051800000000000001005180000000000000       0090770900118974110880051817000003
100000000000000000000009077090011897400000000000000000000000010002100022090405181300000000002            2  01220904051825051800000002282590000000001N100518000000000000000000000000000000000000000000000000000000000000000100022090439807FELIPE LUCIO LOPES                      RUA JOSE CALIXTO DO CARMO - 265 AP.103 -            11702690                                                            000005
2SR. CAIXA, APOS O VENCIMENTO COBRAR 10% DE MULTA                                NAO RECEBER APOS 30 DIAS DO VENCIMENTO.                                                                                                                                                                                                         10051800000000000001005180000000000000       0090770900118974220904051813000006
100000000000000000000009077090011897400000000000000000000000010002100005677405181100000000002            2  01056774051825051800000002998400000000001N100518000000000000000000000000000000000000000000000000000000000000000100005677409863ROSA MARIA OLIVIERI MEMOLI              CONSELHEIRO NEBIAS - 1409 - CAMPOS ELISE            01203002                                                            000008
2SR. CAIXA, APOS O VENCIMENTO COBRAR 10% DE MULTA                                NAO RECEBER APOS 30 DIAS DO VENCIMENTO.                                                                                                                                                                                                         10051800000000000001005180000000000000       0090770900118974056774051811000009
100000000000000000000009077090011897400000000000000000000000010002100014497905181000000000002            2  01144979051824051800000001932980000000001N100518000000000000000000000000000000000000000000000000000000000000000100014497915816FERNANDO JOSE ARRUDA                    RUA JOSE CALIXTO DO CARMO - 265 AP.113 -            11702690                                                            000011
2SR. CAIXA, APOS O VENCIMENTO COBRAR 10% DE MULTA                                NAO RECEBER APOS 30 DIAS DO VENCIMENTO.                                                                                                                                                                                                         10051800000000000001005180000000000000       0090770900118974144979051810000012
100000000000000000000009077090011897400000000000000000000000010002100027324005181700000000002            2  01273240051824051800000001457810000000001N100518000000000000000000000000000000000000000000000000000000000000000100027324099874LEONARDO BORGES DUARTE SILVA            RUA JOSE CALIXTO DO CARMO - 265 AP.94 -             11702690                                                            000014
2SR. CAIXA, APOS O VENCIMENTO COBRAR 10% DE MULTA                                NAO RECEBER APOS 30 DIAS DO VENCIMENTO.                                                                                                                                                                                                         10051800000000000001005180000000000000       0090770900118974273240051817000015
100000000000000000000009077090011897400000000000000000000000010002100036782005181900000000002            2  01367820051824051800000001403380000000001N100518000000000000000000000000000000000000000000000000000000000000000100036782058871ANA PAULA BUENO DA COSTA                RUA MARIQUITA ARTACHO - 218 CASA 3 - JAR            03716000                                                            000017
2SR. CAIXA, APOS O VENCIMENTO COBRAR 10% DE MULTA                                NAO RECEBER APOS 30 DIAS DO VENCIMENTO.                                                                                                                                                                                                         10051800000000000001005180000000000000       0090770900118974367820051819000018
9                                                                                                                                                                                                                                                                                                                                                                                                         000019