01REMESSA01COBRANCA       00000000000004991454AIRES CONSTRUTORA E INCORPORAD237BRADESCO       120419        MX0000130                                                                                                                                                                                                                                                                                     000001
100000000000000000000009077090001674800000000000000000000000010002100049736704192100000000002            2  01497367041924041900000001464340000000001N100419000000000000000000000000000000000000000000000000000000000000000100049736787320RAIMUNDO VIEIRA DA SILVA                RUA BOLIVIA - 81 AP.ZELADORIA - JARDIM G            11701850                                                            000002
2SR. CAIXA, APOS O VENCIMENTO COBRAR 10% DE MULTA                                NAO RECEBER APOS 30 DIAS DO VENCIMENTO.                                                                                                                                                                                                         12041900000000000001204190000000000000       0090770900016748497367041921000003
100000000000000000000009077090001674800000000000000000000000010002100068806204191300000000002            2  01688062041924041900000001299590000000001N100419000000000000000000000000000000000000000000000000000000000000000100068806272853FATIMA MOREIRA SALOMAO                  RUA TORQUATO DE CAMILLO - 84 - CARANDA B            79032031                                                            000005
2SR. CAIXA, APOS O VENCIMENTO COBRAR 10% DE MULTA                                NAO RECEBER APOS 30 DIAS DO VENCIMENTO.                                                                                                                                                                                                         12041900000000000001204190000000000000       0090770900016748688062041913000006
100000000000000000000009077090001674800000000000000000000000010002100004201604191P00000000002            2  01042016041924041900000001887500000000001N100419000000000000000000000000000000000000000000000000000000000000000100004201640817SANDRA APARECIDA TOJAL                  AVENIDA MASCOTE - 81 AP.132 BL.A - VILA             04363000                                                            000008
2SR. CAIXA, APOS O VENCIMENTO COBRAR 10% DE MULTA                                NAO RECEBER APOS 30 DIAS DO VENCIMENTO.                                                                                                                                                                                                         12041900000000000001204190000000000000       009077090001674804201604191P000009
100000000000000000000009077090001674800000000000000000000000010002100025278904191300000000002            2  01252789041924041900000002021260000000001N100419000000000000000000000000000000000000000000000000000000000000000100025278913819FERNANDO LOPES DA SILVA                 RUA RUBEN DE SOUZA - 387 AP.24A - VILA I            04653170                                                            000011
2SR. CAIXA, APOS O VENCIMENTO COBRAR 10% DE MULTA                                NAO RECEBER APOS 30 DIAS DO VENCIMENTO.                                                                                                                                                                                                         12041900000000000001204190000000000000       0090770900016748252789041913000012
100000000000000000000009077090001674800000000000000000000000010002100000024604191400000000002            2  01000246041924041900000002247030000000001N100419000000000000000000000000000000000000000000000000000000000000000100000024633852JAYME MASRI                             RUA MONTE CASTELO - 296 AP.24 - BAIRRO A            11702720                                                            000014
2SR. CAIXA, APOS O VENCIMENTO COBRAR 10% DE MULTA                                NAO RECEBER APOS 30 DIAS DO VENCIMENTO.                                                                                                                                                                                                         12041900000000000001204190000000000000       0090770900016748000246041914000015
100000000000000000000009077090001674800000000000000000000000010002100013184404191800000000002            2  01131844041924041900000002333220000000001N100419000000000000000000000000000000000000000000000000000000000000000100013184404838CLAUDIO GOMES BAHIA                     RUA MARIA CONCEICAO - 89 - VILA SAO PEDR            07032070                                                            000017
2SR. CAIXA, APOS O VENCIMENTO COBRAR 10% DE MULTA                                NAO RECEBER APOS 30 DIAS DO VENCIMENTO.                                                                                                                                                                                                         12041900000000000001204190000000000000       0090770900016748131844041918000018
100000000000000000000009077090001674800000000000000000000000010002100006055504191300000000002            2  01060555041924041900000003533300000000001N100419000000000000000000000000000000000000000000000000000000000000000100006055565803EDSON ALVES                             RUA EDGAR CODAZZI - 49 CASA 02 - CIDADE             08225280                                                            000020
2SR. CAIXA, APOS O VENCIMENTO COBRAR 10% DE MULTA                                NAO RECEBER APOS 30 DIAS DO VENCIMENTO.                                                                                                                                                                                                         12041900000000000001204190000000000000       0090770900016748060555041913000021
100000000000000000000009077090001674800000000000000000000000010002100021899204191700000000002            2  01218992041924041900000002574360000000001N100419000000000000000000000000000000000000000000000000000000000000000100021899277811ALESSANDRE ALVES ANDRADE                RUA MONTE CASTELO - 262 AP.132 - AVIACAO            11702720                                                            000023
2SR. CAIXA, APOS O VENCIMENTO COBRAR 10% DE MULTA                                NAO RECEBER APOS 30 DIAS DO VENCIMENTO.                                                                                                                                                                                                         12041900000000000001204190000000000000       0090770900016748218992041917000024
100000000000000000000009077090001674800000000000000000000000010002100003441204191100000000002            2  01034412041924041900000002244710000000001N100419000000000000000000000000000000000000000000000000000000000000000100003441232860LUIZ CARLOS CAMARGO BIANCHI             RUA GENERAL LEITE DE CASTRO - 200 - JARD            04182020                                                            000026
2SR. CAIXA, APOS O VENCIMENTO COBRAR 10% DE MULTA                                NAO RECEBER APOS 30 DIAS DO VENCIMENTO.                                                                                                                                                                                                         12041900000000000001204190000000000000       0090770900016748034412041911000027
100000000000000000000009077090001674800000000000000000000000010002100014681404191000000000002            2  01146814041924041900000002328700000000001N100419000000000000000000000000000000000000000000000000000000000000000100014681490830HUMBERTO MOZART CALIXTO                 RUA MONTE CASTELO - 296 AP.41 - AVIACAO             11702720                                                            000029
2SR. CAIXA, APOS O VENCIMENTO COBRAR 10% DE MULTA                                NAO RECEBER APOS 30 DIAS DO VENCIMENTO.                                                                                                                                                                                                         12041900000000000001204190000000000000       0090770900016748146814041910000030
100000000000000000000009077090001674800000000000000000000000010002100023007704191300000000002            2  01230077041924041900000001904080000000001N100419000000000000000000000000000000000000000000000000000000000000000100023007705800BRUNA ANTUN AZEVEDO                     RUA MONTE CASTELO - 296 AP.62 - AVIACAO             11702720                                                            000032
2SR. CAIXA, APOS O VENCIMENTO COBRAR 10% DE MULTA                                NAO RECEBER APOS 30 DIAS DO VENCIMENTO.                                                                                                                                                                                                         12041900000000000001204190000000000000       0090770900016748230077041913000033
100000000000000000000009077090001674800000000000000000000000010002100006550704191100000000002            2  01065507041924041900000001965930000000001N100419000000000000000000000000000000000000000000000000000000000000000100006550730864IVONE APARECIDA VIEIRA GADI TEIXEIRA    RUA SAO FLORENCIO  - 1500 AP.44 BLOCO 01            03733020                                                            000035
2SR. CAIXA, APOS O VENCIMENTO COBRAR 10% DE MULTA                                NAO RECEBER APOS 30 DIAS DO VENCIMENTO.                                                                                                                                                                                                         12041900000000000001204190000000000000       0090770900016748065507041911000036
100000000000000000000009077090001674800000000000000000000000010002100006550704192P00000000002            2  01065507041924041900000001965930000000001N100419000000000000000000000000000000000000000000000000000000000000000100006550730864IVONE APARECIDA VIEIRA GADI TEIXEIRA    RUA SAO FLORENCIO  - 1500 AP.44 BLOCO 01            03733020                                                            000038
2SR. CAIXA, APOS O VENCIMENTO COBRAR 10% DE MULTA                                NAO RECEBER APOS 30 DIAS DO VENCIMENTO.                                                                                                                                                                                                         12041900000000000001204190000000000000       009077090001674806550704192P000039
100000000000000000000009077090001674800000000000000000000000010002100000930604191600000000002            2  01009306041924041900000003522270000000001N100419000000000000000000000000000000000000000000000000000000000000000100000930668642VALERIA RODRIGUES DANTAS                RUA MONTE CASTELO - 262 AP.21 - AVIACAO             11702720                                                            000041
2SR. CAIXA, APOS O VENCIMENTO COBRAR 10% DE MULTA                                NAO RECEBER APOS 30 DIAS DO VENCIMENTO.                                                                                                                                                                                                         12041900000000000001204190000000000000       0090770900016748009306041916000042
100000000000000000000009077090001674800000000000000000000000010002100075574004191P00000000002            2  01755740041924041900000003043160000000001N100419000000000000000000000000000000000000000000000000000000000000000100075574063891CASSIO TADEU DA SILVEIRA                RUA CONSELHEIRO MOREIRA DE BARROS - 1.55            02430000                                                            000044
2SR. CAIXA, APOS O VENCIMENTO COBRAR 10% DE MULTA                                NAO RECEBER APOS 30 DIAS DO VENCIMENTO.                                                                                                                                                                                                         12041900000000000001204190000000000000       009077090001674875574004191P000045
100000000000000000000009077090001674800000000000000000000000010002100000764604191800000000002            2  01007646041924041900000002250570000000001N100419000000000000000000000000000000000000000000000000000000000000000100000764632817LUIZ CARLOS ANTUNES JUNIOR              RUA MONTE CASTELO - 262 AP.35 - AVIACAO             11702720                                                            000047
2SR. CAIXA, APOS O VENCIMENTO COBRAR 10% DE MULTA                                NAO RECEBER APOS 30 DIAS DO VENCIMENTO.                                                                                                                                                                                                         12041900000000000001204190000000000000       0090770900016748007646041918000048
100000000000000000000009077090001674800000000000000000000000010002100027317604191800000000002            2  01273176041924041900000002205980000000001N100419000000000000000000000000000000000000000000000000000000000000000100027317668591ERONILTON SOUSA MOTA                    AVENIDA PRESIDENTE KENNEDY - 3203 - AVIA            11701330                                                            000050
2SR. CAIXA, APOS O VENCIMENTO COBRAR 10% DE MULTA                                NAO RECEBER APOS 30 DIAS DO VENCIMENTO.                                                                                                                                                                                                         12041900000000000001204190000000000000       0090770900016748273176041918000051
100000000000000000000009077090001674800000000000000000000000010002100066104104191800000000002            2  01661041041924041900000002275180000000001N100419000000000000000000000000000000000000000000000000000000000000000100066104106820ANADIR FERREIRA                         RUA MONTE CASTELO - 296 AP.61 - AVIACAO             11702720                                                            000053
2SR. CAIXA, APOS O VENCIMENTO COBRAR 10% DE MULTA                                NAO RECEBER APOS 30 DIAS DO VENCIMENTO.                                                                                                                                                                                                         12041900000000000001204190000000000000       0090770900016748661041041918000054
100000000000000000000009077090001674800000000000000000000000010002100057014504191400000000002            2  01570145041924041900000002554480000000001N100419000000000000000000000000000000000000000000000000000000000000000100057014582887SONIA MARIA DA SILVA PEGORARO           RUA FRANCO PAULISTA  - 80 - AGUA FRIA -             02332030                                                            000056
2SR. CAIXA, APOS O VENCIMENTO COBRAR 10% DE MULTA                                NAO RECEBER APOS 30 DIAS DO VENCIMENTO.                                                                                                                                                                                                         12041900000000000001204190000000000000       0090770900016748570145041914000057
100000000000000000000009077090001674800000000000000000000000010002100006505304191100000000002            2  01065053041924041900000002776460000000001N100419000000000000000000000000000000000000000000000000000000000000000100006505382852LUIS ANTONIO DINIS HENRIQUES            RUA ESTEVAO  BAIAO - 520 AP.93A - CAMPO             04624002                                                            000059
2SR. CAIXA, APOS O VENCIMENTO COBRAR 10% DE MULTA                                NAO RECEBER APOS 30 DIAS DO VENCIMENTO.                                                                                                                                                                                                         12041900000000000001204190000000000000       0090770900016748065053041911000060
100000000000000000000009077090001674800000000000000000000000010002100011544704191400000000002            2  01115447041924041900000005043820000000001N100419000000000000000000000000000000000000000000000000000000000000000100011544777620GRACIELY RODRIGUES FERNANDES            RUA MONTE CASTELO - 262 AP.111 - AVIACAO            11702720                                                            000062
2SR. CAIXA, APOS O VENCIMENTO COBRAR 10% DE MULTA                                NAO RECEBER APOS 30 DIAS DO VENCIMENTO.                                                                                                                                                                                                         12041900000000000001204190000000000000       0090770900016748115447041914000063
100000000000000000000009077090001674800000000000000000000000010002100005629004191900000000002            2  01056290041924041900000003668350000000001N100419000000000000000000000000000000000000000000000000000000000000000100005629087819ROMILDO MARTINS PIZA                    RUA MAESTRO ARTURO DE ANGELIS - 190 AP.3            05139010                                                            000065
2SR. CAIXA, APOS O VENCIMENTO COBRAR 10% DE MULTA                                NAO RECEBER APOS 30 DIAS DO VENCIMENTO.                                                                                                                                                                                                         12041900000000000001204190000000000000       0090770900016748056290041919000066
100000000000000000000009077090001674800000000000000000000000010002100004290904191800000000002            2  01042909041924041900000001955360000000001N100419000000000000000000000000000000000000000000000000000000000000000100004290973876WLADIMIR PAIOLA BORREGO                 RUA GOMES - 429 - VILA IVONE - SAO PAULO            03275010                                                            000068
2SR. CAIXA, APOS O VENCIMENTO COBRAR 10% DE MULTA                                NAO RECEBER APOS 30 DIAS DO VENCIMENTO.                                                                                                                                                                                                         12041900000000000001204190000000000000       0090770900016748042909041918000069
100000000000000000000009077090001674800000000000000000000000010002100034325504191300000000002            2  01343255041924041900000001851200000000001N100419000000000000000000000000000000000000000000000000000000000000000100034325567801LUIZ FERNANDO ALAMINO                   RUA FELICIO PEREIRA - 320 AP.25 - JD.PIQ            03463050                                                            000071
2SR. CAIXA, APOS O VENCIMENTO COBRAR 10% DE MULTA                                NAO RECEBER APOS 30 DIAS DO VENCIMENTO.                                                                                                                                                                                                         12041900000000000001204190000000000000       0090770900016748343255041913000072
100000000000000000000009077090001674800000000000000000000000010002100021335404191600000000002            2  01213354041924041900000001400860000000001N100419000000000000000000000000000000000000000000000000000000000000000100021335464808RAQUEL FERREIRA RAMOS                   RUA ANTONIO SEVERIANO DE ANDRADE E SILVA            11702400                                                            000074
2SR. CAIXA, APOS O VENCIMENTO COBRAR 10% DE MULTA                                NAO RECEBER APOS 30 DIAS DO VENCIMENTO.                                                                                                                                                                                                         12041900000000000001204190000000000000       0090770900016748213354041916000075
100000000000000000000009077090001674800000000000000000000000010002100005627904191500000000002            2  01056279041924041900000001642650000000001N100419000000000000000000000000000000000000000000000000000000000000000100005627947861FERNANDO CESAR MARCELINO                TRAVESSA CHARLES LEBRUN - 83 - VILA NOVA            02312060                                                            000077
2SR. CAIXA, APOS O VENCIMENTO COBRAR 10% DE MULTA                                NAO RECEBER APOS 30 DIAS DO VENCIMENTO.                                                                                                                                                                                                         12041900000000000001204190000000000000       0090770900016748056279041915000078
100000000000000000000009077090001674800000000000000000000000010002100026187904191100000000002            2  01261879041924041900000001714140000000001N100419000000000000000000000000000000000000000000000000000000000000000100026187960807CARINA CANTACESSO DE SOUZA              RUA MONTE CASTELO - 296 AP.91 - AVIACAO             11702720                                                            000080
2SR. CAIXA, APOS O VENCIMENTO COBRAR 10% DE MULTA                                NAO RECEBER APOS 30 DIAS DO VENCIMENTO.                                                                                                                                                                                                         12041900000000000001204190000000000000       0090770900016748261879041911000081
100000000000000000000009077090001674800000000000000000000000010002100004864904191700000000002            2  01048649041924041900000002291040000000001N100419000000000000000000000000000000000000000000000000000000000000000100004864924600RENATO SANTACHIARA SALVADORI            RUA PENSYLVANIA - 116 - PAYSAGE BRISE -             06730000                                                            000083
2SR. CAIXA, APOS O VENCIMENTO COBRAR 10% DE MULTA                                NAO RECEBER APOS 30 DIAS DO VENCIMENTO.                                                                                                                                                                                                         12041900000000000001204190000000000000       0090770900016748048649041917000084
100000000000000000000009077090001674800000000000000000000000010002100026647604191300000000002            2  01266476041924041900000002537640000000001N100419000000000000000000000000000000000000000000000000000000000000000100026647690816CLAUDIA FUKUDA OGATA BURATTO            RUA DINAMARCA - 449 - BAIRRO TABOAO - SA            09668080                                                            000086
2SR. CAIXA, APOS O VENCIMENTO COBRAR 10% DE MULTA                                NAO RECEBER APOS 30 DIAS DO VENCIMENTO.                                                                                                                                                                                                         12041900000000000001204190000000000000       0090770900016748266476041913000087
9                                                                                                                                                                                                                                                                                                                                                                                                         000088