01REMESSA01COBRANCA       00000000000004991454AIRES CONSTRUTORA E INCORPORAD237BRADESCO       120919        MX0000140                                                                                                                                                                                                                                                                                     000001
100000000000000000000009077090001674800000000000000000000000010002100026984109192400000000002            2  01269841091924091900000001520080000000001N100919000000000000000000000000000000000000000000000000000000000000000100026984181844GISELE APARECIDA MAGALHAES              RUA GRACILIANO RAMOS - 181 - BAIRRO SAO             09581410                                                            000002
2SR. CAIXA, APOS O VENCIMENTO COBRAR 10% DE MULTA                                NAO RECEBER APOS 30 DIAS DO VENCIMENTO.                                                                                                                                                                                                         12091900000000000001209190000000000000       0090770900016748269841091924000003
100000000000000000000009077090001674800000000000000000000000010002100068806209191000000000002            2  01688062091924091900000001349060000000001N100919000000000000000000000000000000000000000000000000000000000000000100068806272853FATIMA MOREIRA SALOMAO                  RUA TORQUATO DE CAMILLO - 84 - CARANDA B            79032031                                                            000005
2SR. CAIXA, APOS O VENCIMENTO COBRAR 10% DE MULTA                                NAO RECEBER APOS 30 DIAS DO VENCIMENTO.                                                                                                                                                                                                         12091900000000000001209190000000000000       0090770900016748688062091910000006
100000000000000000000009077090001674800000000000000000000000010002100004201609191700000000002            2  01042016091924091900000001959360000000001N100919000000000000000000000000000000000000000000000000000000000000000100004201640817SANDRA APARECIDA TOJAL                  AVENIDA MASCOTE - 81 AP.132 BL.A - VILA             04363000                                                            000008
2SR. CAIXA, APOS O VENCIMENTO COBRAR 10% DE MULTA                                NAO RECEBER APOS 30 DIAS DO VENCIMENTO.                                                                                                                                                                                                         12091900000000000001209190000000000000       0090770900016748042016091917000009
100000000000000000000009077090001674800000000000000000000000010002100000024609191100000000002            2  01000246091924091900000002332560000000001N100919000000000000000000000000000000000000000000000000000000000000000100000024633852JAYME MASRI                             RUA MONTE CASTELO - 296 AP.24 - BAIRRO A            11702720                                                            000011
2SR. CAIXA, APOS O VENCIMENTO COBRAR 10% DE MULTA                                NAO RECEBER APOS 30 DIAS DO VENCIMENTO.                                                                                                                                                                                                         12091900000000000001209190000000000000       0090770900016748000246091911000012
100000000000000000000009077090001674800000000000000000000000010002100013184409191500000000002            2  01131844091924091900000002422040000000001N100919000000000000000000000000000000000000000000000000000000000000000100013184404838CLAUDIO GOMES BAHIA                     RUA MARIA CONCEICAO - 89 - VILA SAO PEDR            07032070                                                            000014
2SR. CAIXA, APOS O VENCIMENTO COBRAR 10% DE MULTA                                NAO RECEBER APOS 30 DIAS DO VENCIMENTO.                                                                                                                                                                                                         12091900000000000001209190000000000000       0090770900016748131844091915000015
100000000000000000000009077090001674800000000000000000000000010002100006055509191000000000002            2  01060555091924091900000003667800000000001N100919000000000000000000000000000000000000000000000000000000000000000100006055565803EDSON ALVES                             RUA EDGAR CODAZZI - 49 CASA 02 - CIDADE             08225280                                                            000017
2SR. CAIXA, APOS O VENCIMENTO COBRAR 10% DE MULTA                                NAO RECEBER APOS 30 DIAS DO VENCIMENTO.                                                                                                                                                                                                         12091900000000000001209190000000000000       0090770900016748060555091910000018
100000000000000000000009077090001674800000000000000000000000010002100021899209191400000000002            2  01218992091924091900000002672360000000001N100919000000000000000000000000000000000000000000000000000000000000000100021899277811ALESSANDRE ALVES ANDRADE                RUA MONTE CASTELO - 262 AP.132 - AVIACAO            11702720                                                            000020
2SR. CAIXA, APOS O VENCIMENTO COBRAR 10% DE MULTA                                NAO RECEBER APOS 30 DIAS DO VENCIMENTO.                                                                                                                                                                                                         12091900000000000001209190000000000000       0090770900016748218992091914000021
100000000000000000000009077090001674800000000000000000000000010002100003441209191900000000002            2  01034412091924091900000002330170000000001N100919000000000000000000000000000000000000000000000000000000000000000100003441232860LUIZ CARLOS CAMARGO BIANCHI             RUA GENERAL LEITE DE CASTRO - 200 - JARD            04182020                                                            000023
2SR. CAIXA, APOS O VENCIMENTO COBRAR 10% DE MULTA                                NAO RECEBER APOS 30 DIAS DO VENCIMENTO.                                                                                                                                                                                                         12091900000000000001209190000000000000       0090770900016748034412091919000024
100000000000000000000009077090001674800000000000000000000000010002100014681409191800000000002            2  01146814091924091900000002417360000000001N100919000000000000000000000000000000000000000000000000000000000000000100014681490830HUMBERTO MOZART CALIXTO                 RUA MONTE CASTELO - 296 AP.41 - AVIACAO             11702720                                                            000026
2SR. CAIXA, APOS O VENCIMENTO COBRAR 10% DE MULTA                                NAO RECEBER APOS 30 DIAS DO VENCIMENTO.                                                                                                                                                                                                         12091900000000000001209190000000000000       0090770900016748146814091918000027
100000000000000000000009077090001674800000000000000000000000010002100023007709191000000000002            2  01230077091924091900000001976560000000001N100919000000000000000000000000000000000000000000000000000000000000000100023007705800BRUNA ANTUN AZEVEDO                     RUA MONTE CASTELO - 296 AP.62 - AVIACAO             11702720                                                            000029
2SR. CAIXA, APOS O VENCIMENTO COBRAR 10% DE MULTA                                NAO RECEBER APOS 30 DIAS DO VENCIMENTO.                                                                                                                                                                                                         12091900000000000001209190000000000000       0090770900016748230077091910000030
100000000000000000000009077090001674800000000000000000000000010002100006550709191900000000002            2  01065507091924091900000002040770000000001N100919000000000000000000000000000000000000000000000000000000000000000100006550730864IVONE APARECIDA VIEIRA GADI TEIXEIRA    RUA SAO FLORENCIO  - 1500 AP.44 BLOCO 01            03733020                                                            000032
2SR. CAIXA, APOS O VENCIMENTO COBRAR 10% DE MULTA                                NAO RECEBER APOS 30 DIAS DO VENCIMENTO.                                                                                                                                                                                                         12091900000000000001209190000000000000       0090770900016748065507091919000033
100000000000000000000009077090001674800000000000000000000000010002100075574009191700000000002            2  01755740091924091900000003159000000000001N100919000000000000000000000000000000000000000000000000000000000000000100075574063891CASSIO TADEU DA SILVEIRA                RUA CONSELHEIRO MOREIRA DE BARROS - 1.55            02430000                                                            000035
2SR. CAIXA, APOS O VENCIMENTO COBRAR 10% DE MULTA                                NAO RECEBER APOS 30 DIAS DO VENCIMENTO.                                                                                                                                                                                                         12091900000000000001209190000000000000       0090770900016748755740091917000036
100000000000000000000009077090001674800000000000000000000000010002100000764609191500000000002            2  01007646091924091900000002336240000000001N100919000000000000000000000000000000000000000000000000000000000000000100000764632817LUIZ CARLOS ANTUNES JUNIOR              RUA MONTE CASTELO - 262 AP.35 - AVIACAO             11702720                                                            000038
2SR. CAIXA, APOS O VENCIMENTO COBRAR 10% DE MULTA                                NAO RECEBER APOS 30 DIAS DO VENCIMENTO.                                                                                                                                                                                                         12091900000000000001209190000000000000       0090770900016748007646091915000039
100000000000000000000009077090001674800000000000000000000000010002100066104109191500000000002            2  01661041091924091900000002361780000000001N100919000000000000000000000000000000000000000000000000000000000000000100066104106820ANADIR FERREIRA                         RUA MONTE CASTELO - 296 AP.61 - AVIACAO             11702720                                                            000041
2SR. CAIXA, APOS O VENCIMENTO COBRAR 10% DE MULTA                                NAO RECEBER APOS 30 DIAS DO VENCIMENTO.                                                                                                                                                                                                         12091900000000000001209190000000000000       0090770900016748661041091915000042
100000000000000000000009077090001674800000000000000000000000010002100057014509191100000000002            2  01570145091924091900000002651720000000001N100919000000000000000000000000000000000000000000000000000000000000000100057014582887SONIA MARIA DA SILVA PEGORARO           RUA FRANCO PAULISTA  - 80 - AGUA FRIA -             02332030                                                            000044
2SR. CAIXA, APOS O VENCIMENTO COBRAR 10% DE MULTA                                NAO RECEBER APOS 30 DIAS DO VENCIMENTO.                                                                                                                                                                                                         12091900000000000001209190000000000000       0090770900016748570145091911000045
100000000000000000000009077090001674800000000000000000000000010002100006505309191900000000002            2  01065053091924091900000002882160000000001N100919000000000000000000000000000000000000000000000000000000000000000100006505382852LUIS ANTONIO DINIS HENRIQUES            RUA ESTEVAO  BAIAO - 520 AP.93A - CAMPO             04624002                                                            000047
2SR. CAIXA, APOS O VENCIMENTO COBRAR 10% DE MULTA                                NAO RECEBER APOS 30 DIAS DO VENCIMENTO.                                                                                                                                                                                                         12091900000000000001209190000000000000       0090770900016748065053091919000048
100000000000000000000009077090001674800000000000000000000000010002100011544709191100000000002            2  01115447091924091900000005235830000000001N100919000000000000000000000000000000000000000000000000000000000000000100011544777620GRACIELY RODRIGUES FERNANDES            RUA MONTE CASTELO - 262 AP.111 - AVIACAO            11702720                                                            000050
2SR. CAIXA, APOS O VENCIMENTO COBRAR 10% DE MULTA                                NAO RECEBER APOS 30 DIAS DO VENCIMENTO.                                                                                                                                                                                                         12091900000000000001209190000000000000       0090770900016748115447091911000051
100000000000000000000009077090001674800000000000000000000000010002100005629009191600000000002            2  01056290091924091900000003808000000000001N100919000000000000000000000000000000000000000000000000000000000000000100005629087819ROMILDO MARTINS PIZA                    RUA MAESTRO ARTURO DE ANGELIS - 190 AP.3            05139010                                                            000053
2SR. CAIXA, APOS O VENCIMENTO COBRAR 10% DE MULTA                                NAO RECEBER APOS 30 DIAS DO VENCIMENTO.                                                                                                                                                                                                         12091900000000000001209190000000000000       0090770900016748056290091916000054
100000000000000000000009077090001674800000000000000000000000010002100004290909191500000000002            2  01042909091924091900000002029810000000001N100919000000000000000000000000000000000000000000000000000000000000000100004290973876WLADIMIR PAIOLA BORREGO                 RUA GOMES - 429 - VILA IVONE - SAO PAULO            03275010                                                            000056
2SR. CAIXA, APOS O VENCIMENTO COBRAR 10% DE MULTA                                NAO RECEBER APOS 30 DIAS DO VENCIMENTO.                                                                                                                                                                                                         12091900000000000001209190000000000000       0090770900016748042909091915000057
100000000000000000000009077090001674800000000000000000000000010002100034325509191000000000002            2  01343255091924091900000001921670000000001N100919000000000000000000000000000000000000000000000000000000000000000100034325567801LUIZ FERNANDO ALAMINO                   RUA GALDINO NASCIMENTO - 45 - PARQUE GUA            08431650                                                            000059
2SR. CAIXA, APOS O VENCIMENTO COBRAR 10% DE MULTA                                NAO RECEBER APOS 30 DIAS DO VENCIMENTO.                                                                                                                                                                                                         12091900000000000001209190000000000000       0090770900016748343255091910000060
100000000000000000000009077090001674800000000000000000000000010002100021335409191300000000002            2  01213354091924091900000001454190000000001N100919000000000000000000000000000000000000000000000000000000000000000100021335464808RAQUEL FERREIRA RAMOS                   RUA ANTONIO SEVERIANO DE ANDRADE E SILVA            11702400                                                            000062
2SR. CAIXA, APOS O VENCIMENTO COBRAR 10% DE MULTA                                NAO RECEBER APOS 30 DIAS DO VENCIMENTO.                                                                                                                                                                                                         12091900000000000001209190000000000000       0090770900016748213354091913000063
100000000000000000000009077090001674800000000000000000000000010002100005627909191200000000002            2  01056279091924091900000001705180000000001N100919000000000000000000000000000000000000000000000000000000000000000100005627947861FERNANDO CESAR MARCELINO                TRAVESSA CHARLES LEBRUN - 83 - VILA NOVA            02312060                                                            000065
2SR. CAIXA, APOS O VENCIMENTO COBRAR 10% DE MULTA                                NAO RECEBER APOS 30 DIAS DO VENCIMENTO.                                                                                                                                                                                                         12091900000000000001209190000000000000       0090770900016748056279091912000066
100000000000000000000009077090001674800000000000000000000000010002100026187909191900000000002            2  01261879091924091900000001779400000000001N100919000000000000000000000000000000000000000000000000000000000000000100026187960807CARINA CANTACESSO DE SOUZA              RUA MONTE CASTELO - 296 AP.91 - AVIACAO             11702720                                                            000068
2SR. CAIXA, APOS O VENCIMENTO COBRAR 10% DE MULTA                                NAO RECEBER APOS 30 DIAS DO VENCIMENTO.                                                                                                                                                                                                         12091900000000000001209190000000000000       0090770900016748261879091919000069
100000000000000000000009077090001674800000000000000000000000010002100004864909191400000000002            2  01048649091924091900000002378240000000001N100919000000000000000000000000000000000000000000000000000000000000000100004864924600RENATO SANTACHIARA SALVADORI            RUA PENSYLVANIA - 116 - PAYSAGE BRISE -             06730000                                                            000071
2SR. CAIXA, APOS O VENCIMENTO COBRAR 10% DE MULTA                                NAO RECEBER APOS 30 DIAS DO VENCIMENTO.                                                                                                                                                                                                         12091900000000000001209190000000000000       0090770900016748048649091914000072
100000000000000000000009077090001674800000000000000000000000010002100026647609191000000000002            2  01266476091924091900000002634240000000001N100919000000000000000000000000000000000000000000000000000000000000000100026647690816CLAUDIA FUKUDA OGATA BURATTO            RUA DINAMARCA - 449 - BAIRRO TABOAO - SA            09668080                                                            000074
2SR. CAIXA, APOS O VENCIMENTO COBRAR 10% DE MULTA                                NAO RECEBER APOS 30 DIAS DO VENCIMENTO.                                                                                                                                                                                                         12091900000000000001209190000000000000       0090770900016748266476091910000075
9                                                                                                                                                                                                                                                                                                                                                                                                         000076