01REMESSA01COBRANCA       00000000000004991454AIRES CONSTRUTORA E INCORPORAD237BRADESCO       090118        MX0000098                                                                                                                                                                                                                                                                                     000001
100000000000000000000009077090001674800000000000000000000000010002100049736701182800000000002            2  01497367011824011800000001309070000000001N090118000000000000000000000000000000000000000000000000000000000000000100049736787320RAIMUNDO VIEIRA DA SILVA                RUA BOLIVIA - 81 AP.ZELADORIA - JARDIM G            11701850                                                            000002
2SR. CAIXA, APOS O VENCIMENTO COBRAR 10% DE MULTA                                NAO RECEBER APOS 30 DIAS DO VENCIMENTO.                                                                                                                                                                                                         09011800000000000000901180000000000000       0090770900016748497367011828000003
100000000000000000000009077090001674800000000000000000000000010002100068806201181P00000000002            2  01688062011824011800000001161810000000001N090118000000000000000000000000000000000000000000000000000000000000000100068806272853FATIMA MOREIRA SALOMAO                  RUA TORQUATO DE CAMILLO - 84 - CARANDA B            79032031                                                            000005
2SR. CAIXA, APOS O VENCIMENTO COBRAR 10% DE MULTA                                NAO RECEBER APOS 30 DIAS DO VENCIMENTO.                                                                                                                                                                                                         09011800000000000000901180000000000000       009077090001674868806201181P000006
100000000000000000000009077090001674800000000000000000000000010002100004201601181600000000002            2  01042016011824011800000001687360000000001N090118000000000000000000000000000000000000000000000000000000000000000100004201640817SANDRA APARECIDA TOJAL                  AVENIDA MASCOTE - 81 AP.132 BL.A - VILA             04363000                                                            000008
2SR. CAIXA, APOS O VENCIMENTO COBRAR 10% DE MULTA                                NAO RECEBER APOS 30 DIAS DO VENCIMENTO.                                                                                                                                                                                                         09011800000000000000901180000000000000       0090770900016748042016011816000009
100000000000000000000009077090001674800000000000000000000000010002100025278901181P00000000002            2  01252789011824011800000001806970000000001N090118000000000000000000000000000000000000000000000000000000000000000100025278913819FERNANDO LOPES DA SILVA                 RUA RUBEN DE SOUZA - 387 AP.24A - VILA I            04653170                                                            000011
2SR. CAIXA, APOS O VENCIMENTO COBRAR 10% DE MULTA                                NAO RECEBER APOS 30 DIAS DO VENCIMENTO.                                                                                                                                                                                                         09011800000000000000901180000000000000       009077090001674825278901181P000012
100000000000000000000009077090001674800000000000000000000000010002100000024601181000000000002            2  01000246011824011800000002008790000000001N090118000000000000000000000000000000000000000000000000000000000000000100000024633852JAYME MASRI                             RUA MONTE CASTELO - 296 AP.24 - BAIRRO A            11702720                                                            000014
2SR. CAIXA, APOS O VENCIMENTO COBRAR 10% DE MULTA                                NAO RECEBER APOS 30 DIAS DO VENCIMENTO.                                                                                                                                                                                                         09011800000000000000901180000000000000       0090770900016748000246011810000015
100000000000000000000009077090001674800000000000000000000000010002100013184401181400000000002            2  01131844011824011800000002085840000000001N090118000000000000000000000000000000000000000000000000000000000000000100013184404838CLAUDIO GOMES BAHIA                     RUA MARIA CONCEICAO - 89 - VILA SAO PEDR            07032070                                                            000017
2SR. CAIXA, APOS O VENCIMENTO COBRAR 10% DE MULTA                                NAO RECEBER APOS 30 DIAS DO VENCIMENTO.                                                                                                                                                                                                         09011800000000000000901180000000000000       0090770900016748131844011814000018
100000000000000000000009077090001674800000000000000000000000010002100006055501181P00000000002            2  01060555011824011800000003158660000000001N090118000000000000000000000000000000000000000000000000000000000000000100006055565803EDSON ALVES                             RUA EDGAR CODAZZI - 49 CASA 02 - CIDADE             08225280                                                            000020
2SR. CAIXA, APOS O VENCIMENTO COBRAR 10% DE MULTA                                NAO RECEBER APOS 30 DIAS DO VENCIMENTO.                                                                                                                                                                                                         09011800000000000000901180000000000000       009077090001674806055501181P000021
100000000000000000000009077090001674800000000000000000000000010002100021899201181300000000002            2  01218992011824011800000030609000000000001N090118000000000000000000000000000000000000000000000000000000000000000100021899277811ALESSANDRE ALVES ANDRADE                RUA MONTE CASTELO - 262 AP.132 - AVIACAO            11702720                                                            000023
2SR. CAIXA, APOS O VENCIMENTO COBRAR 10% DE MULTA                                NAO RECEBER APOS 30 DIAS DO VENCIMENTO.                                                                                                                                                                                                         09011800000000000000901180000000000000       0090770900016748218992011813000024
100000000000000000000009077090001674800000000000000000000000010002100021899201182100000000002            2  01218992011824011800000002301420000000001N090118000000000000000000000000000000000000000000000000000000000000000100021899277811ALESSANDRE ALVES ANDRADE                RUA MONTE CASTELO - 262 AP.132 - AVIACAO            11702720                                                            000026
2SR. CAIXA, APOS O VENCIMENTO COBRAR 10% DE MULTA                                NAO RECEBER APOS 30 DIAS DO VENCIMENTO.                                                                                                                                                                                                         09011800000000000000901180000000000000       0090770900016748218992011821000027
100000000000000000000009077090001674800000000000000000000000010002100015739601181500000000002            2  01157396011824011800000001995360000000001N090118000000000000000000000000000000000000000000000000000000000000000100015739602840EZEQUIEL DOS SANTOS LIMA                RUA MONGUBA - 464 - VILA CARRAO - SAO PA            03438000                                                            000029
2SR. CAIXA, APOS O VENCIMENTO COBRAR 10% DE MULTA                                NAO RECEBER APOS 30 DIAS DO VENCIMENTO.                                                                                                                                                                                                         09011800000000000000901180000000000000       0090770900016748157396011815000030
100000000000000000000009077090001674800000000000000000000000010002100003441201181800000000002            2  01034412011824011800000002006700000000001N090118000000000000000000000000000000000000000000000000000000000000000100003441232860LUIZ CARLOS CAMARGO BIANCHI             RUA GENERAL LEITE DE CASTRO - 200 - JARD            04182020                                                            000032
2SR. CAIXA, APOS O VENCIMENTO COBRAR 10% DE MULTA                                NAO RECEBER APOS 30 DIAS DO VENCIMENTO.                                                                                                                                                                                                         09011800000000000000901180000000000000       0090770900016748034412011818000033
100000000000000000000009077090001674800000000000000000000000010002100014681401181700000000002            2  01146814011824011800000002081780000000001N090118000000000000000000000000000000000000000000000000000000000000000100014681490830HUMBERTO MOZART CALIXTO                 RUA MONTE CASTELO - 296 AP.41 - AVIACAO             11702720                                                            000035
2SR. CAIXA, APOS O VENCIMENTO COBRAR 10% DE MULTA                                NAO RECEBER APOS 30 DIAS DO VENCIMENTO.                                                                                                                                                                                                         09011800000000000000901180000000000000       0090770900016748146814011817000036
100000000000000000000009077090001674800000000000000000000000010002100023007701181P00000000002            2  01230077011824011800000001702210000000001N090118000000000000000000000000000000000000000000000000000000000000000100023007705800BRUNA ANTUN AZEVEDO                     RUA MONTE CASTELO - 296 AP.62 - AVIACAO             11702720                                                            000038
2SR. CAIXA, APOS O VENCIMENTO COBRAR 10% DE MULTA                                NAO RECEBER APOS 30 DIAS DO VENCIMENTO.                                                                                                                                                                                                         09011800000000000000901180000000000000       009077090001674823007701181P000039
100000000000000000000009077090001674800000000000000000000000010002100006550701181800000000002            2  01065507011824011800000001757490000000001N090118000000000000000000000000000000000000000000000000000000000000000100006550730864IVONE APARECIDA VIEIRA GADI TEIXEIRA    RUA SAO FLORENCIO  - 1500 AP.44 BLOCO 01            03733020                                                            000041
2SR. CAIXA, APOS O VENCIMENTO COBRAR 10% DE MULTA                                NAO RECEBER APOS 30 DIAS DO VENCIMENTO.                                                                                                                                                                                                         09011800000000000000901180000000000000       0090770900016748065507011818000042
100000000000000000000009077090001674800000000000000000000000010002100000930601181200000000002            2  01009306011824011800000003172430000000001N090118000000000000000000000000000000000000000000000000000000000000000100000930668642VALERIA RODRIGUES DANTAS                RUA MONTE CASTELO - 262 AP.21 - AVIACAO             11702720                                                            000044
2SR. CAIXA, APOS O VENCIMENTO COBRAR 10% DE MULTA                                NAO RECEBER APOS 30 DIAS DO VENCIMENTO.                                                                                                                                                                                                         09011800000000000000901180000000000000       0090770900016748009306011812000045
100000000000000000000009077090001674800000000000000000000000010002100084057901181600000000002            2  01840579011827011800000002000000000000001N090118000000000000000000000000000000000000000000000000000000000000000100084057904891ANTONIO GONZAGA DOS SANTOS              RUA BRIGADEIRO JOSE FERREIRA - 319 - CAN            11700470                                                            000047
2SR. CAIXA, APOS O VENCIMENTO COBRAR 10% DE MULTA                                NAO RECEBER APOS 30 DIAS DO VENCIMENTO.                                                                                                                                                                                                         09011800000000000000901180000000000000       0090770900016748840579011816000048
100000000000000000000009077090001674800000000000000000000000010002100075574001181600000000002            2  01755740011824011800000002720500000000001N090118000000000000000000000000000000000000000000000000000000000000000100075574063891CASSIO TADEU DA SILVEIRA                RUA CONSELHEIRO MOREIRA DE BARROS - 1.55            02430000                                                            000050
2SR. CAIXA, APOS O VENCIMENTO COBRAR 10% DE MULTA                                NAO RECEBER APOS 30 DIAS DO VENCIMENTO.                                                                                                                                                                                                         09011800000000000000901180000000000000       0090770900016748755740011816000051
100000000000000000000009077090001674800000000000000000000000010002100000764601181400000000002            2  01007646011824011800000002011950000000001N090118000000000000000000000000000000000000000000000000000000000000000100000764632817LUIZ CARLOS ANTUNES JUNIOR              RUA MONTE CASTELO - 262 AP.35 - AVIACAO             11702720                                                            000053
2SR. CAIXA, APOS O VENCIMENTO COBRAR 10% DE MULTA                                NAO RECEBER APOS 30 DIAS DO VENCIMENTO.                                                                                                                                                                                                         09011800000000000000901180000000000000       0090770900016748007646011814000054
100000000000000000000009077090001674800000000000000000000000010002100027317601181400000000002            2  01273176011824011800000001972090000000001N090118000000000000000000000000000000000000000000000000000000000000000100027317668591ERONILTON SOUSA MOTA                    AVENIDA PRESIDENTE KENNEDY - 3203 - AVIA            11701330                                                            000056
2SR. CAIXA, APOS O VENCIMENTO COBRAR 10% DE MULTA                                NAO RECEBER APOS 30 DIAS DO VENCIMENTO.                                                                                                                                                                                                         09011800000000000000901180000000000000       0090770900016748273176011814000057
100000000000000000000009077090001674800000000000000000000000010002100066104101181400000000002            2  01661041011824011800000002033950000000001N090118000000000000000000000000000000000000000000000000000000000000000100066104106820ANADIR FERREIRA                         RUA MONTE CASTELO - 296 AP.61 - AVIACAO             11702720                                                            000059
2SR. CAIXA, APOS O VENCIMENTO COBRAR 10% DE MULTA                                NAO RECEBER APOS 30 DIAS DO VENCIMENTO.                                                                                                                                                                                                         09011800000000000000901180000000000000       0090770900016748661041011814000060
100000000000000000000009077090001674800000000000000000000000010002100000741201181000000000002            2  01007412011824011800000001022670000000001N090118000000000000000000000000000000000000000000000000000000000000000100000741264820JOSE JORGE SILVEIRA                     RUA JOSE CALIXTO DO CARMO - 174 AP.82 -             11702690                                                            000062
2SR. CAIXA, APOS O VENCIMENTO COBRAR 10% DE MULTA                                NAO RECEBER APOS 30 DIAS DO VENCIMENTO.                                                                                                                                                                                                         09011800000000000000901180000000000000       0090770900016748007412011810000063
100000000000000000000009077090001674800000000000000000000000010002100057014501181000000000002            2  01570145011824011800000002283620000000001N090118000000000000000000000000000000000000000000000000000000000000000100057014582887SONIA MARIA DA SILVA PEGORARO           RUA FRANCO PAULISTA  - 80 - AGUA FRIA -             02332030                                                            000065
2SR. CAIXA, APOS O VENCIMENTO COBRAR 10% DE MULTA                                NAO RECEBER APOS 30 DIAS DO VENCIMENTO.                                                                                                                                                                                                         09011800000000000000901180000000000000       0090770900016748570145011810000066
100000000000000000000009077090001674800000000000000000000000010002100006505301181800000000002            2  01065053011824011800000002482070000000001N090118000000000000000000000000000000000000000000000000000000000000000100006505382852LUIS ANTONIO DINIS HENRIQUES            RUA ESTEVAO  BAIAO - 520 AP.93A - CAMPO             04624002                                                            000068
2SR. CAIXA, APOS O VENCIMENTO COBRAR 10% DE MULTA                                NAO RECEBER APOS 30 DIAS DO VENCIMENTO.                                                                                                                                                                                                         09011800000000000000901180000000000000       0090770900016748065053011818000069
100000000000000000000009077090001674800000000000000000000000010002100011544701181000000000002            2  01115447011824011800000004509040000000001N090118000000000000000000000000000000000000000000000000000000000000000100011544777620GRACIELY RODRIGUES FERNANDES            RUA MONTE CASTELO - 262 AP.111 - AVIACAO            11702720                                                            000071
2SR. CAIXA, APOS O VENCIMENTO COBRAR 10% DE MULTA                                NAO RECEBER APOS 30 DIAS DO VENCIMENTO.                                                                                                                                                                                                         09011800000000000000901180000000000000       0090770900016748115447011810000072
100000000000000000000009077090001674800000000000000000000000010002100005629001181500000000002            2  01056290011824011800000003279410000000001N090118000000000000000000000000000000000000000000000000000000000000000100005629087819ROMILDO MARTINS PIZA                    RUA MAESTRO ARTURO DE ANGELIS - 190 AP.3            05139010                                                            000074
2SR. CAIXA, APOS O VENCIMENTO COBRAR 10% DE MULTA                                NAO RECEBER APOS 30 DIAS DO VENCIMENTO.                                                                                                                                                                                                         09011800000000000000901180000000000000       0090770900016748056290011815000075
9                                                                                                                                                                                                                                                                                                                                                                                                         000076