01REMESSA01COBRANCA       00000000000004991788AIRES DESENVOLVIMENTO IMOBILIA237BRADESCO       030417        MX0000094                                                                                                                                                                                                                                                                                     000001
100000000000000000000009077090011897400000000000000000000000010002100000761410298200000000002            2  01076141029807041700000002640990000000099N030417000000000000000000000000000000000000000000000000000000000000000100032223890806ELISANGELA CAMARGO BRAGA                RUA JOSE CALIXTO DO CARMO - 265 AP.24 -             11702690                                                            000002
2SR. CAIXA, APOS O VENCIMENTO COBRAR 10% DE MULTA                                NAO RECEBER APOS 30 DIAS DO VENCIMENTO.                                                                                                                                                                                                         03041700000000000000304170000000000000       0090770900118974007614102982000003
9                                                                                                                                                                                                                                                                                                                                                                                                         000004