01REMESSA01COBRANCA       00000000000004991788AIRES DESENVOLVIMENTO IMOBILIA237BRADESCO       080819        MX0000159                                                                                                                                                                                                                                                                                     000001
100000000000000000000009077090011897400000000000000000000000010002100027324008191000000000002            2  01273240081924081900000001630710000000001N070819000000000000000000000000000000000000000000000000000000000000000100027324099874LEONARDO BORGES DUARTE SILVA            RUA JOSE CALIXTO DO CARMO - 265 AP.94 -             11702690                                                            000002
2SR. CAIXA, APOS O VENCIMENTO COBRAR 10% DE MULTA                                NAO RECEBER APOS 30 DIAS DO VENCIMENTO.                                                                                                                                                                                                         08081900000000000000808190000000000000       0090770900118974273240081910000003
100000000000000000000009077090011897400000000000000000000000010002100084057908191100000000002            2  01840579081927081900000002000000000000001N070819000000000000000000000000000000000000000000000000000000000000000100084057904891ANTONIO GONZAGA DOS SANTOS              RUA BRIGADEIRO JOSE FERREIRA - 319 - CAN            11700470                                                            000005
2SR. CAIXA, APOS O VENCIMENTO COBRAR 10% DE MULTA                                NAO RECEBER APOS 30 DIAS DO VENCIMENTO.                                                                                                                                                                                                         08081900000000000000808190000000000000       0090770900118974840579081911000006
100000000000000000000009077090011897400000000000000000000000010002100036782008191200000000002            2  01367820081924081900000001569820000000001N070819000000000000000000000000000000000000000000000000000000000000000100036782058871ANA PAULA BUENO DA COSTA                RUA MARIQUITA ARTACHO - 218 CASA 3 - JAR            03716000                                                            000008
2SR. CAIXA, APOS O VENCIMENTO COBRAR 10% DE MULTA                                NAO RECEBER APOS 30 DIAS DO VENCIMENTO.                                                                                                                                                                                                         08081900000000000000808190000000000000       0090770900118974367820081912000009
100000000000000000000009077090011897400000000000000000000000010002100018272708191000000000002            2  01182727081927081900000001800000000000001N070819000000000000000000000000000000000000000000000000000000000000000100018272729881HENRY CESAR UEDA                        RUA MONTE CASTELO - 295 AP.94 - AVIACAO             11702720                                                            000011
2SR. CAIXA, APOS O VENCIMENTO COBRAR 10% DE MULTA                                NAO RECEBER APOS 30 DIAS DO VENCIMENTO.                                                                                                                                                                                                         08081900000000000000808190000000000000       0090770900118974182727081910000012
100000000000000000000009077090011897400000000000000000000000010002100027300908191600000000002            2  01273009081924081900000001827100000000001N070819000000000000000000000000000000000000000000000000000000000000000100027300953816HOSANA DOS SANTOS MOLEIRO               RUA JOSE CALIXTO DO CARMO - 295 AP.61 -             11702690                                                            000014
2SR. CAIXA, APOS O VENCIMENTO COBRAR 10% DE MULTA                                NAO RECEBER APOS 30 DIAS DO VENCIMENTO.                                                                                                                                                                                                         08081900000000000000808190000000000000       0090770900118974273009081916000015
100000000000000000000009077090011897400000000000000000000000010002100027300908192400000000002            2  01273009081924081900000001826970000000001N070819000000000000000000000000000000000000000000000000000000000000000100027300953816HOSANA DOS SANTOS MOLEIRO               RUA JOSE CALIXTO DO CARMO - 295 AP.61 -             11702690                                                            000017
2SR. CAIXA, APOS O VENCIMENTO COBRAR 10% DE MULTA                                NAO RECEBER APOS 30 DIAS DO VENCIMENTO.                                                                                                                                                                                                         08081900000000000000808190000000000000       0090770900118974273009081924000018
9                                                                                                                                                                                                                                                                                                                                                                                                         000019