01REMESSA01COBRANCA       00000000000004991788AIRES DESENVOLVIMENTO IMOBILIA237BRADESCO       010617        MX0000099                                                                                                                                                                                                                                                                                     000001
100000000000000000000009077090011897400000000000000000000000010002100000000192182P00000000002            2  01000019218210061700000002326390000000001N010617000000000000000000000000000000000000000000000000000000000000000100021570843805RODRIGO LESSANDRO FREGATE               RUA JOSE PEDRO DORO - 451 BLOCO RIO GRAN            02880010                                                            000002
2SR. CAIXA, APOS O VENCIMENTO COBRAR 10% DE MULTA                                NAO RECEBER APOS 30 DIAS DO VENCIMENTO.                                                                                                                                                                                                         01061700000000000000106170000000000000       009077090011897400000192182P000003
100000000000000000000009077090011897400000000000000000000000010002100000057848478P00000000002            2  01005784847810061700000002671130000000001N010617000000000000000000000000000000000000000000000000000000000000000100007508759842LAERCIO DA CRUZ FERREIRA                RUA JOSE BENEDITO SALINAS - 110 APTO 161            04674200                                                            000005
2SR. CAIXA, APOS O VENCIMENTO COBRAR 10% DE MULTA                                NAO RECEBER APOS 30 DIAS DO VENCIMENTO.                                                                                                                                                                                                         01061700000000000000106170000000000000       009077090011897400057848478P000006
100000000000000000000009077090011897400000000000000000000000010002100000061558882500000000002            2  01006155888210061700000002413080000000001N010617000000000000000000000000000000000000000000000000000000000000000100010653257899MARCIO DE SOUZA AZEVEDO                 RUA CASABLANCA - 105 - PARQUE MONTE ALEG            06756400                                                            000008
2SR. CAIXA, APOS O VENCIMENTO COBRAR 10% DE MULTA                                NAO RECEBER APOS 30 DIAS DO VENCIMENTO.                                                                                                                                                                                                         01061700000000000000106170000000000000       0090770900118974000615588825000009
100000000000000000000009077090011897400000000000000000000000010002100000062478983300000000002            2  01006247898310061700000002402360000000001N010617000000000000000000000000000000000000000000000000000000000000000100068006292868FRANCISCO VIEIRA SOUSA                  RUA SERRA DA CANTAREIRA - 104 - JARDIM E            06413090                                                            000011
2SR. CAIXA, APOS O VENCIMENTO COBRAR 10% DE MULTA                                NAO RECEBER APOS 30 DIAS DO VENCIMENTO.                                                                                                                                                                                                         01061700000000000000106170000000000000       0090770900118974000624789833000012
100000000000000000000009077090011897400000000000000000000000010002100000070569792500000000002            2  01007056979210061700000002859860000000001N010617000000000000000000000000000000000000000000000000000000000000000100022288772808FERNANDA TAVARES MASANO                 RUA JOSE CALIXTO DO CARMO - 265 AP. 124             11702690                                                            000014
2SR. CAIXA, APOS O VENCIMENTO COBRAR 10% DE MULTA                                NAO RECEBER APOS 30 DIAS DO VENCIMENTO.                                                                                                                                                                                                         01061700000000000000106170000000000000       0090770900118974000705697925000015
100000000000000000000009077090011897400000000000000000000000010002100000761510298600000000002            2  01076151029810061700000002670600000000001N010617000000000000000000000000000000000000000000000000000000000000000100032223890806ELISANGELA CAMARGO BRAGA                RUA JOSE CALIXTO DO CARMO - 265 AP.24 -             11702690                                                            000017
2SR. CAIXA, APOS O VENCIMENTO COBRAR 10% DE MULTA                                NAO RECEBER APOS 30 DIAS DO VENCIMENTO.                                                                                                                                                                                                         01061700000000000000106170000000000000       0090770900118974007615102986000018
100000000000000000000009077090011897400000000000000000000000010002100007865105101200000000002            2  01786510510110061700000002558820000000001N010617000000000000000000000000000000000000000000000000000000000000000100010177135883VERONICA DE LIMA SANTOS                 RUA ARAGAO - 1099 - TUCURUVI - SAO PAULO            02308001                                                            000020
2SR. CAIXA, APOS O VENCIMENTO COBRAR 10% DE MULTA                                NAO RECEBER APOS 30 DIAS DO VENCIMENTO.                                                                                                                                                                                                         01061700000000000000106170000000000000       0090770900118974078651051012000021
100000000000000000000009077090011897400000000000000000000000010002100008572113109000000000002            2  01857211310910061700000002540890000000001N010617000000000000000000000000000000000000000000000000000000000000000100031000769828ANDREIA CARLA SOUSA                     RUA JOSE CALIXTO DO CARMO - 265 AP.73 -             11702690                                                            000023
2SR. CAIXA, APOS O VENCIMENTO COBRAR 10% DE MULTA                                NAO RECEBER APOS 30 DIAS DO VENCIMENTO.                                                                                                                                                                                                         01061700000000000000106170000000000000       0090770900118974085721131090000024
100000000000000000000009077090011897400000000000000000000000010002100008748115111300000000002            2  01874811511110061700000003236540000000001N010617000000000000000000000000000000000000000000000000000000000000000100027324650899LUCIANO MARTINEZ                        RUA MORGADO DE MATEUS - 473 - VILA MARIA            04015051                                                            000026
2SR. CAIXA, APOS O VENCIMENTO COBRAR 10% DE MULTA                                NAO RECEBER APOS 30 DIAS DO VENCIMENTO.                                                                                                                                                                                                         01061700000000000000106170000000000000       0090770900118974087481151113000027
100000000000000000000009077090011897400000000000000000000000010002100009925129127500000000002            2  01992512912710061700000002258990000000001N010617000000000000000000000000000000000000000000000000000000000000000100005253129863ADILSON JOSE BORGES                     RUA CIRIACO JIMENEZ - 83 - PARQUE NACOES            02996070                                                            000029
2SR. CAIXA, APOS O VENCIMENTO COBRAR 10% DE MULTA                                NAO RECEBER APOS 30 DIAS DO VENCIMENTO.                                                                                                                                                                                                         01061700000000000000106170000000000000       0090770900118974099251291275000030
100000000000000000000009077090011897400000000000000000000000010002100010327136134P00000000002            2  01103271361310061700000002386930000000001N010617000000000000000000000000000000000000000000000000000000000000000100003996827830RONALDO PINTO BORGES                    MAGNOLIA DELFIM DA SILVA - 44 - JARDIM O            05363040                                                            000032
2SR. CAIXA, APOS O VENCIMENTO COBRAR 10% DE MULTA                                NAO RECEBER APOS 30 DIAS DO VENCIMENTO.                                                                                                                                                                                                         01061700000000000000106170000000000000       009077090011897410327136134P000033
100000000000000000000009077090011897400000000000000000000000010002100001069822141900000000002            2  01106982214110061700000001378280000000001N010617000000000000000000000000000000000000000000000000000000000000000100012708342827ADRIANA RATIER CRUZ                     RUA JOSE CALIXTO DO CARMO - 295 APTO 31             11702690                                                            000035
2SR. CAIXA, APOS O VENCIMENTO COBRAR 10% DE MULTA                                NAO RECEBER APOS 30 DIAS DO VENCIMENTO.                                                                                                                                                                                                         01061700000000000000106170000000000000       0090770900118974010698221419000036
100000000000000000000009077090011897400000000000000000000000010002100010878143149200000000002            2  01108781431410061700000001197850000000001N010617000000000000000000000000000000000000000000000000000000000000000100000452415896MARILUCE SANTOS DE ALMEIDA              RUA JOSE CALIXTO DO CARMO - 295 AP.74 -             11702690                                                            000038
2SR. CAIXA, APOS O VENCIMENTO COBRAR 10% DE MULTA                                NAO RECEBER APOS 30 DIAS DO VENCIMENTO.                                                                                                                                                                                                         01061700000000000000106170000000000000       0090770900118974108781431492000039
100000000000000000000009077090011897400000000000000000000000010002100012994142175500000000002            2  01129941421701061700000003425810000000001N010617000000000000000000000000000000000000000000000000000000000000000100028379879805EDMILSON DANIEL GARCIA WATANUKI         AV.PRESIDENTE CASTELO BRANCO - 4718 LOJA            11702700                                                            000041
2SR. CAIXA, APOS O VENCIMENTO COBRAR 10% DE MULTA                                NAO RECEBER APOS 30 DIAS DO VENCIMENTO.                                                                                                                                                                                                         01061700000000000000106170000000000000       0090770900118974129941421755000042
100000000000000000000009077090011897400000000000000000000000010002100013412140181800000000002            2  01134121401805061700000001646270000000001N010617000000000000000000000000000000000000000000000000000000000000000100019851254800DOUGLAS TADEU DE ALMEIDA JECKS          RUA CONSELHEIRO ELIAS DE CARVALHO - 50 A            04373000                                                            000044
2SR. CAIXA, APOS O VENCIMENTO COBRAR 10% DE MULTA                                NAO RECEBER APOS 30 DIAS DO VENCIMENTO.                                                                                                                                                                                                         01061700000000000000106170000000000000       0090770900118974134121401818000045
100000000000000000000009077090011897400000000000000000000000010002100013424146182200000000002            2  01134241461811061700000001563110000000001N010617000000000000000000000000000000000000000000000000000000000000000100037491305822NATASHA SILVEIRA DA SILVA               RUA CONSELHEIRO ELIAS DE CARVALHO - 50 A            04373000                                                            000047
2SR. CAIXA, APOS O VENCIMENTO COBRAR 10% DE MULTA                                NAO RECEBER APOS 30 DIAS DO VENCIMENTO.                                                                                                                                                                                                         01061700000000000000106170000000000000       0090770900118974134241461822000048
9                                                                                                                                                                                                                                                                                                                                                                                                         000049