01REMESSA01COBRANCA       00000000000004991454AIRES CONSTRUTORA E INCORPORAD237BRADESCO       010918        MX0000115                                                                                                                                                                                                                                                                                     000001
100000000000000000000009077090001674800000000000000000000000010002100099740409181300000000002            2  01997404091809091800000002790600000000001N010918000000000000000000000000000000000000000000000000000000000000000100099740451853ARNALDO DA SILVA SALES                  RUA ALEGRE - 210 - VILA SAO RAFAEL - GUA            07053100                                                            000002
2SR. CAIXA, APOS O VENCIMENTO COBRAR 10% DE MULTA                                NAO RECEBER APOS 30 DIAS DO VENCIMENTO.                                                                                                                                                                                                         01091800000000000000109180000000000000       0090770900016748997404091813000003
100000000000000000000009077090001674800000000000000000000000010002100049736709181300000000002            2  01497367091809091800000001693330000000001N010918000000000000000000000000000000000000000000000000000000000000000100049736787320RAIMUNDO VIEIRA DA SILVA                RUA BOLIVIA - 81 AP.ZELADORIA - JARDIM G            11701850                                                            000005
2SR. CAIXA, APOS O VENCIMENTO COBRAR 10% DE MULTA                                NAO RECEBER APOS 30 DIAS DO VENCIMENTO.                                                                                                                                                                                                         01091800000000000000109180000000000000       0090770900016748497367091813000006
100000000000000000000009077090001674800000000000000000000000010002100044380709181800000000002            2  01443807091809091800000004501520000000001N010918000000000000000000000000000000000000000000000000000000000000000100044380725812FERNANDO FIRMINO DOS SANTOS             RUA BARAO GERALDO DE RESENDE - 401 - BAI            05205220                                                            000008
2SR. CAIXA, APOS O VENCIMENTO COBRAR 10% DE MULTA                                NAO RECEBER APOS 30 DIAS DO VENCIMENTO.                                                                                                                                                                                                         01091800000000000000109180000000000000       0090770900016748443807091818000009
100000000000000000000009077090001674800000000000000000000000010002100025469409181900000000002            2  01254694091809091800000001401230000000001N010918000000000000000000000000000000000000000000000000000000000000000100025469470873JULIA MARIA RODRIGUES MARTINS           AVENIDA JOAO FIRMINO - 1229 AP.21 - BAIR            09810260                                                            000011
2SR. CAIXA, APOS O VENCIMENTO COBRAR 10% DE MULTA                                NAO RECEBER APOS 30 DIAS DO VENCIMENTO.                                                                                                                                                                                                         01091800000000000000109180000000000000       0090770900016748254694091819000012
100000000000000000000009077090001674800000000000000000000000010002100004759509181P00000000002            2  01047595091809091800000003392530000000001N010918000000000000000000000000000000000000000000000000000000000000000100004759534873AGNALDO PORFIRIO DOS SANTOS             RUA JUVENCIO GASPAR DA SILVA - 35 - SAO             04303060                                                            000014
2SR. CAIXA, APOS O VENCIMENTO COBRAR 10% DE MULTA                                NAO RECEBER APOS 30 DIAS DO VENCIMENTO.                                                                                                                                                                                                         01091800000000000000109180000000000000       009077090001674804759509181P000015
100000000000000000000009077090001674800000000000000000000000010002100014924009181600000000002            2  01149240091809091800000001828270000000001N010918000000000000000000000000000000000000000000000000000000000000000100014924049859KATIA REGINA DE OLIVEIRA SILVA          RUA ANTONIO SIMIONATO - 73 AP.14 - SANTA            09780180                                                            000017
2SR. CAIXA, APOS O VENCIMENTO COBRAR 10% DE MULTA                                NAO RECEBER APOS 30 DIAS DO VENCIMENTO.                                                                                                                                                                                                         01091800000000000000109180000000000000       0090770900016748149240091816000018
100000000000000000000009077090001674800000000000000000000000010002100090830409181300000000002            2  01908304091809091800000001069530000000001N010918000000000000000000000000000000000000000000000000000000000000000100090830490868IVONETE FERNANDES                       AVENIDA FREDERICO OZANAN - 5504 - VILA R            13215276                                                            000020
2SR. CAIXA, APOS O VENCIMENTO COBRAR 10% DE MULTA                                NAO RECEBER APOS 30 DIAS DO VENCIMENTO.                                                                                                                                                                                                         01091800000000000000109180000000000000       0090770900016748908304091813000021
100000000000000000000009077090001674800000000000000000000000010002100027093909181500000000002            2  01270939091809091800000002651380000000001N010918000000000000000000000000000000000000000000000000000000000000000100027093944809DAVID ALEXANDRE XAVIER ROCHA            RUA MONTE CASTELO - 296 AP.54 - AVIACAO             11702720                                                            000023
2SR. CAIXA, APOS O VENCIMENTO COBRAR 10% DE MULTA                                NAO RECEBER APOS 30 DIAS DO VENCIMENTO.                                                                                                                                                                                                         01091800000000000000109180000000000000       0090770900016748270939091815000024
100000000000000000000009077090001674800000000000000000000000010002100068273209181100000000002            2  01682732091809091800000001930020000000001N010918000000000000000000000000000000000000000000000000000000000000000100068273290891DERNEVAL JOSE MUNIZ                     RUA MARTINOPOLIS - 98 - JARDIM OTAWA - G            07230230                                                            000026
2SR. CAIXA, APOS O VENCIMENTO COBRAR 10% DE MULTA                                NAO RECEBER APOS 30 DIAS DO VENCIMENTO.                                                                                                                                                                                                         01091800000000000000109180000000000000       0090770900016748682732091811000027
100000000000000000000009077090001674800000000000000000000000010002100001817509181400000000002            2  01018175091809091800000001649440000000001N010918000000000000000000000000000000000000000000000000000000000000000100001817534807SANTINA SALVINA SOARES                  RUA CAIAPOS - 1066 AP.43 - VILA TUPI - P            11703320                                                            000029
2SR. CAIXA, APOS O VENCIMENTO COBRAR 10% DE MULTA                                NAO RECEBER APOS 30 DIAS DO VENCIMENTO.                                                                                                                                                                                                         01091800000000000000109180000000000000       0090770900016748018175091814000030
100000000000000000000009077090001674800000000000000000000000010002100086755709181100000000002            2  01867557091809091800000001781950000000001N010918000000000000000000000000000000000000000000000000000000000000000100086755790800GERALDO JAIR BROGLIATTO                 DR.ARMANDO COSTA MAGALHAES - 176 - VILA             13270490                                                            000032
2SR. CAIXA, APOS O VENCIMENTO COBRAR 10% DE MULTA                                NAO RECEBER APOS 30 DIAS DO VENCIMENTO.                                                                                                                                                                                                         01091800000000000000109180000000000000       0090770900016748867557091811000033
100000000000000000000009077090001674800000000000000000000000010002100013191209181300000000002            2  01131912091811091800000001800000000000001N010918000000000000000000000000000000000000000000000000000000000000000100013191291881MARCELO RICARDO MASCAROS SOUTO          RUA MONTE CASTELO - 295 AP.102 - AVIACAO            11702720                                                            000035
2SR. CAIXA, APOS O VENCIMENTO COBRAR 10% DE MULTA                                NAO RECEBER APOS 30 DIAS DO VENCIMENTO.                                                                                                                                                                                                         01091800000000000000109180000000000000       0090770900016748131912091813000036
100000000000000000000009077090001674800000000000000000000000010002100007996009181500000000002            2  01079960091809091800000001770160000000001N010918000000000000000000000000000000000000000000000000000000000000000100007996062862HENRIQUE SALVADOR                       RUA DARDANELOS - 689 - PARQUE NOVO ORATO            09260060                                                            000038
2SR. CAIXA, APOS O VENCIMENTO COBRAR 10% DE MULTA                                NAO RECEBER APOS 30 DIAS DO VENCIMENTO.                                                                                                                                                                                                         01091800000000000000109180000000000000       0090770900016748079960091815000039
100000000000000000000009077090001674800000000000000000000000010002100010066009181200000000002            2  01100660091809091800000002371420000000001N010918000000000000000000000000000000000000000000000000000000000000000100010066071534MOISES ROQUE DO ROSARIO                 RUA DAS PAPOULAS - 53 - VILA BELA - SAO             03202010                                                            000041
2SR. CAIXA, APOS O VENCIMENTO COBRAR 10% DE MULTA                                NAO RECEBER APOS 30 DIAS DO VENCIMENTO.                                                                                                                                                                                                         01091800000000000000109180000000000000       0090770900016748100660091812000042
100000000000000000000009077090001674800000000000000000000000010002100085910009181300000000002            2  01859100091809091800000002705880000000001N010918000000000000000000000000000000000000000000000000000000000000000100085910031872SERGIO NOGUEIRA                         RUA MONTE CASTELO - 262 AP.55 - AVIACAO             11702720                                                            000044
2SR. CAIXA, APOS O VENCIMENTO COBRAR 10% DE MULTA                                NAO RECEBER APOS 30 DIAS DO VENCIMENTO.                                                                                                                                                                                                         01091800000000000000109180000000000000       0090770900016748859100091813000045
100000000000000000000009077090001674800000000000000000000000010002100000746809181700000000002            2  01007468091809091800000002187610000000001N010918000000000000000000000000000000000000000000000000000000000000000100000746845820ANTONIO CARLOS DE MELLO                 RUA CONGO - 118 - PARQUE MONTE ALEGRE -             06756270                                                            000047
2SR. CAIXA, APOS O VENCIMENTO COBRAR 10% DE MULTA                                NAO RECEBER APOS 30 DIAS DO VENCIMENTO.                                                                                                                                                                                                         01091800000000000000109180000000000000       0090770900016748007468091817000048
100000000000000000000009077090001674800000000000000000000000010002100028196109181200000000002            2  01281961091809091800000001575280000000001N010918000000000000000000000000000000000000000000000000000000000000000100028196184808VANESSA NOGUEIRA CAMBUI DA SILVA        CRISTOVAO COLOMBO - 217 - VILA AMERICA -            09110160                                                            000050
2SR. CAIXA, APOS O VENCIMENTO COBRAR 10% DE MULTA                                NAO RECEBER APOS 30 DIAS DO VENCIMENTO.                                                                                                                                                                                                         01091800000000000000109180000000000000       0090770900016748281961091812000051
100000000000000000000009077090001674800000000000000000000000010002100049730809181800000000002            2  01497308091809091800000001293090000000001N010918000000000000000000000000000000000000000000000000000000000000000100049730835420PEDRO LUIZ DO BOM FIM FILHO             RUA NASCER DO SOL - 91 - BAIRRO PIRAPORI            09951475                                                            000053
2SR. CAIXA, APOS O VENCIMENTO COBRAR 10% DE MULTA                                NAO RECEBER APOS 30 DIAS DO VENCIMENTO.                                                                                                                                                                                                         01091800000000000000109180000000000000       0090770900016748497308091818000054
100000000000000000000009077090001674800000000000000000000000010002100027067009181300000000002            2  01270670091809091800000001604340000000001N010918000000000000000000000000000000000000000000000000000000000000000100027067002893MARCIA NASCIMENTO DE MORAES             RUA MONTE CASTELO - 296 AP.11 - AVIACAO             11702720                                                            000056
2SR. CAIXA, APOS O VENCIMENTO COBRAR 10% DE MULTA                                NAO RECEBER APOS 30 DIAS DO VENCIMENTO.                                                                                                                                                                                                         01091800000000000000109180000000000000       0090770900016748270670091813000057
100000000000000000000009077090001674800000000000000000000000010002100064435709181800000000002            2  01644357091809091800000001604340000000001N010918000000000000000000000000000000000000000000000000000000000000000100064435741849JURACY DA SILVA                         RUA JACARATINGA - 192 - JARDIM PIRAJUCAR            05786120                                                            000059
2SR. CAIXA, APOS O VENCIMENTO COBRAR 10% DE MULTA                                NAO RECEBER APOS 30 DIAS DO VENCIMENTO.                                                                                                                                                                                                         01091800000000000000109180000000000000       0090770900016748644357091818000060
100000000000000000000009077090001674800000000000000000000000010002100094921809181700000000002            2  01949218091809091800000001592400000000001N010918000000000000000000000000000000000000000000000000000000000000000100094921890897JOAO JORGE DA ROSA FILHO                RUA OLAVO EGIDIO DE SOUZA ARANHA - 368 A            03822000                                                            000062
2SR. CAIXA, APOS O VENCIMENTO COBRAR 10% DE MULTA                                NAO RECEBER APOS 30 DIAS DO VENCIMENTO.                                                                                                                                                                                                         01091800000000000000109180000000000000       0090770900016748949218091817000063
100000000000000000000009077090001674800000000000000000000000010002100008364809181300000000002            2  01083648091809091800000001931770000000001N010918000000000000000000000000000000000000000000000000000000000000000100008364834800JOSEFINA CORREA RAMA DOS SANTOS         AVENIDA PRESIDENTE CASTELO BRANCO - 3.78            11702700                                                            000065
2SR. CAIXA, APOS O VENCIMENTO COBRAR 10% DE MULTA                                NAO RECEBER APOS 30 DIAS DO VENCIMENTO.                                                                                                                                                                                                         01091800000000000000109180000000000000       0090770900016748083648091813000066
100000000000000000000009077090001674800000000000000000000000010002100037713309181400000000002            2  01377133091809091800000001580550000000001N010918000000000000000000000000000000000000000000000000000000000000000100037713356800JAMILLE PAULA BUENO LOPES               RUA CURIO (COND.NEW VILLE) - 172 - SURU             06509031                                                            000068
2SR. CAIXA, APOS O VENCIMENTO COBRAR 10% DE MULTA                                NAO RECEBER APOS 30 DIAS DO VENCIMENTO.                                                                                                                                                                                                         01091800000000000000109180000000000000       0090770900016748377133091814000069
100000000000000000000009077090001674800000000000000000000000010002100027100909181100000000002            2  01271009091809091800000001841350000000001N010918000000000000000000000000000000000000000000000000000000000000000100027100951810MARCIA RAMALHO RODRIGUES                RUA MONTE CASTELO - 296 AP.82 - AVIACAO             11702720                                                            000071
2SR. CAIXA, APOS O VENCIMENTO COBRAR 10% DE MULTA                                NAO RECEBER APOS 30 DIAS DO VENCIMENTO.                                                                                                                                                                                                         01091800000000000000109180000000000000       0090770900016748271009091811000072
100000000000000000000009077090001674800000000000000000000000010002100076207909181200000000002            2  01762079091809091800000001985830000000001N010918000000000000000000000000000000000000000000000000000000000000000100076207943872JOSE MACEDO RICARTE FILHO               RUA ARTUR LOBO - 181 - JARDIM JABAQUARA             04384060                                                            000074
2SR. CAIXA, APOS O VENCIMENTO COBRAR 10% DE MULTA                                NAO RECEBER APOS 30 DIAS DO VENCIMENTO.                                                                                                                                                                                                         01091800000000000000109180000000000000       0090770900016748762079091812000075
100000000000000000000009077090001674800000000000000000000000010002100094672609181500000000002            2  01946726091809091800000002507890000000001N010918000000000000000000000000000000000000000000000000000000000000000100094672660834JOSE HENRIQUE SOARES PEREIRA INACIO     RUA MONTE CASTELO - 296 AP.34 - AVIACAO             11702720                                                            000077
2SR. CAIXA, APOS O VENCIMENTO COBRAR 10% DE MULTA                                NAO RECEBER APOS 30 DIAS DO VENCIMENTO.                                                                                                                                                                                                         01091800000000000000109180000000000000       0090770900016748946726091815000078
100000000000000000000009077090001674800000000000000000000000010002100025265209181600000000002            2  01252652091809091800000001363550000000001N010918000000000000000000000000000000000000000000000000000000000000000100025265260862SONIA MARIA CECILIO DA SILVA            RUA PRESIDENTE TANCREDO NEVES - 1093 AP.            06329350                                                            000080
2SR. CAIXA, APOS O VENCIMENTO COBRAR 10% DE MULTA                                NAO RECEBER APOS 30 DIAS DO VENCIMENTO.                                                                                                                                                                                                         01091800000000000000109180000000000000       0090770900016748252652091816000081
9                                                                                                                                                                                                                                                                                                                                                                                                         000082