01REMESSA01COBRANCA       00000000000004991454AIRES CONSTRUTORA E INCORPORAD237BRADESCO       090517        MX0000080                                                                                                                                                                                                                                                                                     000001
100000000000000000000009077090001674800000000000000000000000010002100010954144150000000000002            2  01109541441524051700000001230970000000001N090517000000000000000000000000000000000000000000000000000000000000000100049736787320RAIMUNDO VIEIRA DA SILVA                RUA BOLIVIA - 81 AP.ZELADORIA - JARDIM G            11701850                                                            000002
2SR. CAIXA, APOS O VENCIMENTO COBRAR 10% DE MULTA                                NAO RECEBER APOS 30 DIAS DO VENCIMENTO.                                                                                                                                                                                                         09051700000000000000905170000000000000       0090770900016748109541441500000003
100000000000000000000009077090001674800000000000000000000000010002100011028145151300000000002            2  01110281451524051700000001092500000000001N090517000000000000000000000000000000000000000000000000000000000000000100068806272853FATIMA MOREIRA SALOMAO                  RUA TORQUATO DE CAMILLO - 84 - CARANDA B            79032031                                                            000005
2SR. CAIXA, APOS O VENCIMENTO COBRAR 10% DE MULTA                                NAO RECEBER APOS 30 DIAS DO VENCIMENTO.                                                                                                                                                                                                         09051700000000000000905170000000000000       0090770900016748110281451513000006
100000000000000000000009077090001674800000000000000000000000010002100011398144159300000000002            2  01113981441524051700000001511160000000001N090517000000000000000000000000000000000000000000000000000000000000000100049736787320RAIMUNDO VIEIRA DA SILVA                RUA BOLIVIA - 81 AP.ZELADORIA - JARDIM G            11701850                                                            000008
2SR. CAIXA, APOS O VENCIMENTO COBRAR 10% DE MULTA                                NAO RECEBER APOS 30 DIAS DO VENCIMENTO.                                                                                                                                                                                                         09051700000000000000905170000000000000       0090770900016748113981441593000009
100000000000000000000009077090001674800000000000000000000000010002100011595149161000000000002            2  01115951491624051700000001586700000000001N090517000000000000000000000000000000000000000000000000000000000000000100004201640817SANDRA APARECIDA TOJAL                  AVENIDA MASCOTE - 81 AP.132 BL.A - VILA             04363000                                                            000011
2SR. CAIXA, APOS O VENCIMENTO COBRAR 10% DE MULTA                                NAO RECEBER APOS 30 DIAS DO VENCIMENTO.                                                                                                                                                                                                         09051700000000000000905170000000000000       0090770900016748115951491610000012
100000000000000000000009077090001674800000000000000000000000010002100011683150162700000000002            2  01116831501624051700000011175060000000001N090517000000000000000000000000000000000000000000000000000000000000000100025278913819FERNANDO LOPES DA SILVA                 RUA RUBEN DE SOUZA - 387 AP.24A - VILA I            04653170                                                            000014
2SR. CAIXA, APOS O VENCIMENTO COBRAR 10% DE MULTA                                NAO RECEBER APOS 30 DIAS DO VENCIMENTO.                                                                                                                                                                                                         09051700000000000000905170000000000000       0090770900016748116831501627000015
100000000000000000000009077090001674800000000000000000000000010002100011703150162500000000002            2  01117031501624051700000001699160000000001N090517000000000000000000000000000000000000000000000000000000000000000100025278913819FERNANDO LOPES DA SILVA                 RUA RUBEN DE SOUZA - 387 AP.24A - VILA I            04653170                                                            000017
2SR. CAIXA, APOS O VENCIMENTO COBRAR 10% DE MULTA                                NAO RECEBER APOS 30 DIAS DO VENCIMENTO.                                                                                                                                                                                                         09051700000000000000905170000000000000       0090770900016748117031501625000018
100000000000000000000009077090001674800000000000000000000000010002100011805151163100000000002            2  01118051511624051700000001888950000000001N090517000000000000000000000000000000000000000000000000000000000000000100000024633852JAYME MASRI                             RUA MONTE CASTELO - 296 AP.24 - BAIRRO A            11702720                                                            000020
2SR. CAIXA, APOS O VENCIMENTO COBRAR 10% DE MULTA                                NAO RECEBER APOS 30 DIAS DO VENCIMENTO.                                                                                                                                                                                                         09051700000000000000905170000000000000       0090770900016748118051511631000021
100000000000000000000009077090001674800000000000000000000000010002100012314153168600000000002            2  01123141531624051700000001961400000000001N090517000000000000000000000000000000000000000000000000000000000000000100013184404838CLAUDIO GOMES BAHIA                     RUA MARIA CONCEICAO - 89 - VILA SAO PEDR            07032070                                                            000023
2SR. CAIXA, APOS O VENCIMENTO COBRAR 10% DE MULTA                                NAO RECEBER APOS 30 DIAS DO VENCIMENTO.                                                                                                                                                                                                         09051700000000000000905170000000000000       0090770900016748123141531686000024
100000000000000000000009077090001674800000000000000000000000010002100012427154169800000000002            2  01124271541624051700000002970210000000001N090517000000000000000000000000000000000000000000000000000000000000000100006055565803EDSON ALVES                             RUA EDGAR CODAZZI - 49 CASA 02 - CIDADE             08225280                                                            000026
2SR. CAIXA, APOS O VENCIMENTO COBRAR 10% DE MULTA                                NAO RECEBER APOS 30 DIAS DO VENCIMENTO.                                                                                                                                                                                                         09051700000000000000905170000000000000       0090770900016748124271541698000027
100000000000000000000009077090001674800000000000000000000000010002100013351161180900000000002            2  01133511611824051700000002164120000000001N090517000000000000000000000000000000000000000000000000000000000000000100021899277811ALESSANDRE ALVES ANDRADE                RUA MONTE CASTELO - 262 AP.132 - AVIACAO            11702720                                                            000029
2SR. CAIXA, APOS O VENCIMENTO COBRAR 10% DE MULTA                                NAO RECEBER APOS 30 DIAS DO VENCIMENTO.                                                                                                                                                                                                         09051700000000000000905170000000000000       0090770900016748133511611809000030
100000000000000000000009077090001674800000000000000000000000010002100013436162183100000000002            2  01134361621824051700000001876330000000001N090517000000000000000000000000000000000000000000000000000000000000000100015739602840EZEQUIEL DOS SANTOS LIMA                RUA MONGUBA - 464 - VILA CARRAO - SAO PA            03438000                                                            000032
2SR. CAIXA, APOS O VENCIMENTO COBRAR 10% DE MULTA                                NAO RECEBER APOS 30 DIAS DO VENCIMENTO.                                                                                                                                                                                                         09051700000000000000905170000000000000       0090770900016748134361621831000033
100000000000000000000009077090001674800000000000000000000000010002100013884165188400000000002            2  01138841651824051700000001886960000000001N090517000000000000000000000000000000000000000000000000000000000000000100003441232860LUIZ CARLOS CAMARGO BIANCHI             RUA GENERAL LEITE DE CASTRO - 200 - JARD            04182020                                                            000035
2SR. CAIXA, APOS O VENCIMENTO COBRAR 10% DE MULTA                                NAO RECEBER APOS 30 DIAS DO VENCIMENTO.                                                                                                                                                                                                         09051700000000000000905170000000000000       0090770900016748138841651884000036
100000000000000000000009077090001674800000000000000000000000010002100014304168194000000000002            2  01143041681924051700000001957580000000001N090517000000000000000000000000000000000000000000000000000000000000000100014681490830HUMBERTO MOZART CALIXTO                 RUA MONTE CASTELO - 296 AP.41 - AVIACAO             11702720                                                            000038
2SR. CAIXA, APOS O VENCIMENTO COBRAR 10% DE MULTA                                NAO RECEBER APOS 30 DIAS DO VENCIMENTO.                                                                                                                                                                                                         09051700000000000000905170000000000000       0090770900016748143041681940000039
9                                                                                                                                                                                                                                                                                                                                                                                                         000040