01REMESSA01COBRANCA       00000000000004991788AIRES DESENVOLVIMENTO IMOBILIA237BRADESCO       010917        MX0000111                                                                                                                                                                                                                                                                                     000001
100000000000000000000009077090011897400000000000000000000000010002100000051618070900000000002            2  01005161807025091700000001812920000000001N010917000000000000000000000000000000000000000000000000000000000000000100011088018890LUIZ CARLOS VITORINO MADEIRA            RUA JOSE CALIXTO DO CARMO - 265 AP. 32 -            11702690                                                            000002
2SR. CAIXA, APOS O VENCIMENTO COBRAR 10% DE MULTA                                NAO RECEBER APOS 30 DIAS DO VENCIMENTO.                                                                                                                                                                                                         01091700000000000000109170000000000000       0090770900118974000516180709000003
100000000000000000000009077090011897400000000000000000000000010002100000066929388P00000000002            2  01006692938825091700000002638020000000001N010917000000000000000000000000000000000000000000000000000000000000000100004007807809CLAUDIO CANESCHI                        RUA AGRESTE  DE ITABAINA - 663 - VILA UN            03683000                                                            000005
2SR. CAIXA, APOS O VENCIMENTO COBRAR 10% DE MULTA                                NAO RECEBER APOS 30 DIAS DO VENCIMENTO.                                                                                                                                                                                                         01091700000000000000109170000000000000       009077090011897400066929388P000006
100000000000000000000009077090011897400000000000000000000000010002100000071519893500000000002            2  01007151989325091700000002425430000000001N010917000000000000000000000000000000000000000000000000000000000000000100025998413806CELESTE ERMELINDA NEVES DA SILVA        RUA CIRO CARNEIRO - 920 - JARDIM GUILHER            11702220                                                            000008
2SR. CAIXA, APOS O VENCIMENTO COBRAR 10% DE MULTA                                NAO RECEBER APOS 30 DIAS DO VENCIMENTO.                                                                                                                                                                                                         01091700000000000000109170000000000000       0090770900118974000715198935000009
100000000000000000000009077090011897400000000000000000000000010002100008489112108500000000002            2  01848911210825091700000002942340000000001N010917000000000000000000000000000000000000000000000000000000000000000100000796517800WLADIMIR RODRIGUES                      R:JOSE DA SILVA RIBEIRO - 576 AP.233 - B            05726130                                                            000011
2SR. CAIXA, APOS O VENCIMENTO COBRAR 10% DE MULTA                                NAO RECEBER APOS 30 DIAS DO VENCIMENTO.                                                                                                                                                                                                         01091700000000000000109170000000000000       0090770900118974084891121085000012
100000000000000000000009077090011897400000000000000000000000010002100008836116112P00000000002            2  01883611611225091700000002843640000000001N010917000000000000000000000000000000000000000000000000000000000000000100077595971853CARLOS EDUARDO RODRIGUES TEIXEIRA       RUA JOSE APARECIDO PAVAN - 423 - PARQUE             13086080                                                            000014
2SR. CAIXA, APOS O VENCIMENTO COBRAR 10% DE MULTA                                NAO RECEBER APOS 30 DIAS DO VENCIMENTO.                                                                                                                                                                                                         01091700000000000000109170000000000000       009077090011897408836116112P000015
100000000000000000000009077090011897400000000000000000000000010002100008922117113P00000000002            2  01892211711325091700000002862330000000001N010917000000000000000000000000000000000000000000000000000000000000000100015110751803LILIAN CARRARA DA SILVA CANDIDO         ALAMEDA VICENTE DE CARVALHO - 65 - JARDI            07600000                                                            000017
2SR. CAIXA, APOS O VENCIMENTO COBRAR 10% DE MULTA                                NAO RECEBER APOS 30 DIAS DO VENCIMENTO.                                                                                                                                                                                                         01091700000000000000109170000000000000       009077090011897408922117113P000018
100000000000000000000009077090011897400000000000000000000000010002100009094119115200000000002            2  01909411911525091700000002768780000000001N010917000000000000000000000000000000000000000000000000000000000000000100005204692835RINALDO DA MOTTA                        JOSE CALIXTO DO CARMO - 265 AP.93 - AVIA            11702690                                                            000020
2SR. CAIXA, APOS O VENCIMENTO COBRAR 10% DE MULTA                                NAO RECEBER APOS 30 DIAS DO VENCIMENTO.                                                                                                                                                                                                         01091700000000000000109170000000000000       0090770900118974090941191152000021
100000000000000000000009077090011897400000000000000000000000010002100009355122118100000000002            2  01935512211825091700000002193300000000001N010917000000000000000000000000000000000000000000000000000000000000000100022090439807FELIPE LUCIO LOPES                      RUA JOSE CALIXTO DO CARMO - 265 AP.103 -            11702690                                                            000023
2SR. CAIXA, APOS O VENCIMENTO COBRAR 10% DE MULTA                                NAO RECEBER APOS 30 DIAS DO VENCIMENTO.                                                                                                                                                                                                         01091700000000000000109170000000000000       0090770900118974093551221181000024
100000000000000000000009077090011897400000000000000000000000010002100000962545123P00000000002            2  01096254512325091700000002798670000000001N010917000000000000000000000000000000000000000000000000000000000000000100070237824434ANTONIO FERREIRA NETO                   RUA HENRIQUE MINDLIM - 161 - JD. ORIENTA            04349250                                                            000026
2SR. CAIXA, APOS O VENCIMENTO COBRAR 10% DE MULTA                                NAO RECEBER APOS 30 DIAS DO VENCIMENTO.                                                                                                                                                                                                         01091700000000000000109170000000000000       009077090011897400962545123P000027
100000000000000000000009077090011897400000000000000000000000010002100010096131129P00000000002            2  01100961311225091700000002881110000000001N010917000000000000000000000000000000000000000000000000000000000000000100005677409863ROSA MARIA OLIVIERI MEMOLI              CONSELHEIRO NEBIAS - 1409 - CAMPOS ELISE            01203002                                                            000029
2SR. CAIXA, APOS O VENCIMENTO COBRAR 10% DE MULTA                                NAO RECEBER APOS 30 DIAS DO VENCIMENTO.                                                                                                                                                                                                         01091700000000000000109170000000000000       009077090011897410096131129P000030
100000000000000000000009077090011897400000000000000000000000010002100010542138137100000000002            2  01105421381325091700000002753180000000001N010917000000000000000000000000000000000000000000000000000000000000000100034771609837MARCELO ALEXANDRE CARVALHO              RUA ECAUNA - 222 - JARDIM UMARIZAL - SAO            05754040                                                            000032
2SR. CAIXA, APOS O VENCIMENTO COBRAR 10% DE MULTA                                NAO RECEBER APOS 30 DIAS DO VENCIMENTO.                                                                                                                                                                                                         01091700000000000000109170000000000000       0090770900118974105421381371000033
100000000000000000000009077090011897400000000000000000000000010002100010655139139100000000002            2  01106551391325091700000006637080000000001N010917000000000000000000000000000000000000000000000000000000000000000100084057904891ANTONIO GONZAGA DOS SANTOS              RUA BRIGADEIRO JOSE FERREIRA - 319 - CAN            11700470                                                            000035
2SR. CAIXA, APOS O VENCIMENTO COBRAR 10% DE MULTA                                NAO RECEBER APOS 30 DIAS DO VENCIMENTO.                                                                                                                                                                                                         01091700000000000000109170000000000000       0090770900118974106551391391000036
100000000000000000000009077090011897400000000000000000000000010002100014198108192200000000002            2  01141981081924091700000001820810000000001N010917000000000000000000000000000000000000000000000000000000000000000100014497915816FERNANDO JOSE ARRUDA                    RUA JOSE CALIXTO DO CARMO - 265 AP.113 -            11702690                                                            000038
2SR. CAIXA, APOS O VENCIMENTO COBRAR 10% DE MULTA                                NAO RECEBER APOS 30 DIAS DO VENCIMENTO.                                                                                                                                                                                                         01091700000000000000109170000000000000       0090770900118974141981081922000039
100000000000000000000009077090011897400000000000000000000000010002100001422787193100000000002            2  01142278719324091700000001373230000000001N010917000000000000000000000000000000000000000000000000000000000000000100027324099874LEONARDO BORGES DUARTE SILVA            RUA JOSE CALIXTO DO CARMO - 265 AP.94 -             11702690                                                            000041
2SR. CAIXA, APOS O VENCIMENTO COBRAR 10% DE MULTA                                NAO RECEBER APOS 30 DIAS DO VENCIMENTO.                                                                                                                                                                                                         01091700000000000000109170000000000000       0090770900118974014227871931000042
100000000000000000000009077090011897400000000000000000000000010002100016002176213P00000000002            2  01160021762124091700000001321950000000001N010917000000000000000000000000000000000000000000000000000000000000000100036782058871ANA PAULA BUENO DA COSTA                RUA MARIQUITA ARTACHO - 218 CASA 3 - JAR            03716000                                                            000044
2SR. CAIXA, APOS O VENCIMENTO COBRAR 10% DE MULTA                                NAO RECEBER APOS 30 DIAS DO VENCIMENTO.                                                                                                                                                                                                         01091700000000000000109170000000000000       009077090011897416002176213P000045
9                                                                                                                                                                                                                                                                                                                                                                                                         000046