01REMESSA01COBRANCA       00000000000004991454AIRES CONSTRUTORA E INCORPORAD237BRADESCO       121119        MX0000144                                                                                                                                                                                                                                                                                     000001
100000000000000000000009077090001674800000000000000000000000010002100026984111192500000000002            2  01269841111924111900000001542970000000001N111119000000000000000000000000000000000000000000000000000000000000000100026984181844GISELE APARECIDA MAGALHAES              RUA GRACILIANO RAMOS - 181 - BAIRRO SAO             09581410                                                            000002
2SR. CAIXA, APOS O VENCIMENTO COBRAR 10% DE MULTA                                NAO RECEBER APOS 30 DIAS DO VENCIMENTO.                                                                                                                                                                                                         12111900000000000001211190000000000000       0090770900016748269841111925000003
100000000000000000000009077090001674800000000000000000000000010002100068806211191100000000002            2  01688062111924111900000001369370000000001N111119000000000000000000000000000000000000000000000000000000000000000100068806272853FATIMA MOREIRA SALOMAO                  RUA TORQUATO DE CAMILLO - 84 - CARANDA B            79032031                                                            000005
2SR. CAIXA, APOS O VENCIMENTO COBRAR 10% DE MULTA                                NAO RECEBER APOS 30 DIAS DO VENCIMENTO.                                                                                                                                                                                                         12111900000000000001211190000000000000       0090770900016748688062111911000006
100000000000000000000009077090001674800000000000000000000000010002100004201611191800000000002            2  01042016111924111900000001988870000000001N111119000000000000000000000000000000000000000000000000000000000000000100004201640817SANDRA APARECIDA TOJAL                  AVENIDA MASCOTE - 81 AP.132 BL.A - VILA             04363000                                                            000008
2SR. CAIXA, APOS O VENCIMENTO COBRAR 10% DE MULTA                                NAO RECEBER APOS 30 DIAS DO VENCIMENTO.                                                                                                                                                                                                         12111900000000000001211190000000000000       0090770900016748042016111918000009
100000000000000000000009077090001674800000000000000000000000010002100000024611191200000000002            2  01000246111924111900000002367680000000001N111119000000000000000000000000000000000000000000000000000000000000000100000024633852JAYME MASRI                             RUA MONTE CASTELO - 296 AP.24 - BAIRRO A            11702720                                                            000011
2SR. CAIXA, APOS O VENCIMENTO COBRAR 10% DE MULTA                                NAO RECEBER APOS 30 DIAS DO VENCIMENTO.                                                                                                                                                                                                         12111900000000000001211190000000000000       0090770900016748000246111912000012
100000000000000000000009077090001674800000000000000000000000010002100013184411191600000000002            2  01131844111924111900000002458510000000001N111119000000000000000000000000000000000000000000000000000000000000000100013184404838CLAUDIO GOMES BAHIA                     RUA MARIA CONCEICAO - 89 - VILA SAO PEDR            07032070                                                            000014
2SR. CAIXA, APOS O VENCIMENTO COBRAR 10% DE MULTA                                NAO RECEBER APOS 30 DIAS DO VENCIMENTO.                                                                                                                                                                                                         12111900000000000001211190000000000000       0090770900016748131844111916000015
100000000000000000000009077090001674800000000000000000000000010002100006055511191100000000002            2  01060555111924111900000003723020000000001N111119000000000000000000000000000000000000000000000000000000000000000100006055565803EDSON ALVES                             RUA EDGAR CODAZZI - 49 CASA 02 - CIDADE             08225280                                                            000017
2SR. CAIXA, APOS O VENCIMENTO COBRAR 10% DE MULTA                                NAO RECEBER APOS 30 DIAS DO VENCIMENTO.                                                                                                                                                                                                         12111900000000000001211190000000000000       0090770900016748060555111911000018
100000000000000000000009077090001674800000000000000000000000010002100021899211191500000000002            2  01218992111924111900000002712590000000001N111119000000000000000000000000000000000000000000000000000000000000000100021899277811ALESSANDRE ALVES ANDRADE                RUA MONTE CASTELO - 262 AP.132 - AVIACAO            11702720                                                            000020
2SR. CAIXA, APOS O VENCIMENTO COBRAR 10% DE MULTA                                NAO RECEBER APOS 30 DIAS DO VENCIMENTO.                                                                                                                                                                                                         12111900000000000001211190000000000000       0090770900016748218992111915000021
100000000000000000000009077090001674800000000000000000000000010002100003441211191P00000000002            2  01034412111924111900000002365260000000001N111119000000000000000000000000000000000000000000000000000000000000000100003441232860LUIZ CARLOS CAMARGO BIANCHI             RUA GENERAL LEITE DE CASTRO - 200 - JARD            04182020                                                            000023
2SR. CAIXA, APOS O VENCIMENTO COBRAR 10% DE MULTA                                NAO RECEBER APOS 30 DIAS DO VENCIMENTO.                                                                                                                                                                                                         12111900000000000001211190000000000000       009077090001674803441211191P000024
100000000000000000000009077090001674800000000000000000000000010002100014681411191900000000002            2  01146814111924111900000002453760000000001N111119000000000000000000000000000000000000000000000000000000000000000100014681490830HUMBERTO MOZART CALIXTO                 RUA MONTE CASTELO - 296 AP.41 - AVIACAO             11702720                                                            000026
2SR. CAIXA, APOS O VENCIMENTO COBRAR 10% DE MULTA                                NAO RECEBER APOS 30 DIAS DO VENCIMENTO.                                                                                                                                                                                                         12111900000000000001211190000000000000       0090770900016748146814111919000027
100000000000000000000009077090001674800000000000000000000000010002100023007711191100000000002            2  01230077111924111900000002006320000000001N111119000000000000000000000000000000000000000000000000000000000000000100023007705800BRUNA ANTUN AZEVEDO                     RUA MONTE CASTELO - 296 AP.62 - AVIACAO             11702720                                                            000029
2SR. CAIXA, APOS O VENCIMENTO COBRAR 10% DE MULTA                                NAO RECEBER APOS 30 DIAS DO VENCIMENTO.                                                                                                                                                                                                         12111900000000000001211190000000000000       0090770900016748230077111911000030
100000000000000000000009077090001674800000000000000000000000010002100006550711191P00000000002            2  01065507111924111900000002071500000000001N111119000000000000000000000000000000000000000000000000000000000000000100006550730864IVONE APARECIDA VIEIRA GADI TEIXEIRA    RUA SAO FLORENCIO  - 1500 AP.44 BLOCO 01            03733020                                                            000032
2SR. CAIXA, APOS O VENCIMENTO COBRAR 10% DE MULTA                                NAO RECEBER APOS 30 DIAS DO VENCIMENTO.                                                                                                                                                                                                         12111900000000000001211190000000000000       009077090001674806550711191P000033
100000000000000000000009077090001674800000000000000000000000010002100006550711192800000000002            2  01065507111924111900000002071490000000001N111119000000000000000000000000000000000000000000000000000000000000000100006550730864IVONE APARECIDA VIEIRA GADI TEIXEIRA    RUA SAO FLORENCIO  - 1500 AP.44 BLOCO 01            03733020                                                            000035
2SR. CAIXA, APOS O VENCIMENTO COBRAR 10% DE MULTA                                NAO RECEBER APOS 30 DIAS DO VENCIMENTO.                                                                                                                                                                                                         12111900000000000001211190000000000000       0090770900016748065507111928000036
100000000000000000000009077090001674800000000000000000000000010002100075574011191800000000002            2  01755740111924111900000003206560000000001N111119000000000000000000000000000000000000000000000000000000000000000100075574063891CASSIO TADEU DA SILVEIRA                RUA CONSELHEIRO MOREIRA DE BARROS - 1.55            02430000                                                            000038
2SR. CAIXA, APOS O VENCIMENTO COBRAR 10% DE MULTA                                NAO RECEBER APOS 30 DIAS DO VENCIMENTO.                                                                                                                                                                                                         12111900000000000001211190000000000000       0090770900016748755740111918000039
100000000000000000000009077090001674800000000000000000000000010002100000764611191600000000002            2  01007646111924111900000002371410000000001N111119000000000000000000000000000000000000000000000000000000000000000100000764632817LUIZ CARLOS ANTUNES JUNIOR              RUA MONTE CASTELO - 262 AP.35 - AVIACAO             11702720                                                            000041
2SR. CAIXA, APOS O VENCIMENTO COBRAR 10% DE MULTA                                NAO RECEBER APOS 30 DIAS DO VENCIMENTO.                                                                                                                                                                                                         12111900000000000001211190000000000000       0090770900016748007646111916000042
100000000000000000000009077090001674800000000000000000000000010002100066104111191600000000002            2  01661041111924111900000002397340000000001N111119000000000000000000000000000000000000000000000000000000000000000100066104106820ANADIR FERREIRA                         RUA MONTE CASTELO - 296 AP.61 - AVIACAO             11702720                                                            000044
2SR. CAIXA, APOS O VENCIMENTO COBRAR 10% DE MULTA                                NAO RECEBER APOS 30 DIAS DO VENCIMENTO.                                                                                                                                                                                                         12111900000000000001211190000000000000       0090770900016748661041111916000045
100000000000000000000009077090001674800000000000000000000000010002100057014511191200000000002            2  01570145111924111900000002691650000000001N111119000000000000000000000000000000000000000000000000000000000000000100057014582887SONIA MARIA DA SILVA PEGORARO           RUA FRANCO PAULISTA  - 80 - AGUA FRIA -             02332030                                                            000047
2SR. CAIXA, APOS O VENCIMENTO COBRAR 10% DE MULTA                                NAO RECEBER APOS 30 DIAS DO VENCIMENTO.                                                                                                                                                                                                         12111900000000000001211190000000000000       0090770900016748570145111912000048
100000000000000000000009077090001674800000000000000000000000010002100006505311191P00000000002            2  01065053111924111900000002925560000000001N111119000000000000000000000000000000000000000000000000000000000000000100006505382852LUIS ANTONIO DINIS HENRIQUES            RUA ESTEVAO  BAIAO - 520 AP.93A - CAMPO             04624002                                                            000050
2SR. CAIXA, APOS O VENCIMENTO COBRAR 10% DE MULTA                                NAO RECEBER APOS 30 DIAS DO VENCIMENTO.                                                                                                                                                                                                         12111900000000000001211190000000000000       009077090001674806505311191P000051
100000000000000000000009077090001674800000000000000000000000010002100011544711191200000000002            2  01115447111924111900000005314660000000001N111119000000000000000000000000000000000000000000000000000000000000000100011544777620GRACIELY RODRIGUES FERNANDES            RUA MONTE CASTELO - 262 AP.111 - AVIACAO            11702720                                                            000053
2SR. CAIXA, APOS O VENCIMENTO COBRAR 10% DE MULTA                                NAO RECEBER APOS 30 DIAS DO VENCIMENTO.                                                                                                                                                                                                         12111900000000000001211190000000000000       0090770900016748115447111912000054
100000000000000000000009077090001674800000000000000000000000010002100005629011191700000000002            2  01056290111924111900000011964150000000001N111119000000000000000000000000000000000000000000000000000000000000000100005629087819ROMILDO MARTINS PIZA                    RUA MAESTRO ARTURO DE ANGELIS - 190 AP.3            05139010                                                            000056
2SR. CAIXA, APOS O VENCIMENTO COBRAR 10% DE MULTA                                NAO RECEBER APOS 30 DIAS DO VENCIMENTO.                                                                                                                                                                                                         12111900000000000001211190000000000000       0090770900016748056290111917000057
100000000000000000000009077090001674800000000000000000000000010002100005629011192500000000002            2  01056290111924111900000003865330000000001N111119000000000000000000000000000000000000000000000000000000000000000100005629087819ROMILDO MARTINS PIZA                    RUA MAESTRO ARTURO DE ANGELIS - 190 AP.3            05139010                                                            000059
2SR. CAIXA, APOS O VENCIMENTO COBRAR 10% DE MULTA                                NAO RECEBER APOS 30 DIAS DO VENCIMENTO.                                                                                                                                                                                                         12111900000000000001211190000000000000       0090770900016748056290111925000060
100000000000000000000009077090001674800000000000000000000000010002100034325511191100000000002            2  01343255111924111900000001950600000000001N111119000000000000000000000000000000000000000000000000000000000000000100034325567801LUIZ FERNANDO ALAMINO                   RUA GALDINO NASCIMENTO - 45 - PARQUE GUA            08431650                                                            000062
2SR. CAIXA, APOS O VENCIMENTO COBRAR 10% DE MULTA                                NAO RECEBER APOS 30 DIAS DO VENCIMENTO.                                                                                                                                                                                                         12111900000000000001211190000000000000       0090770900016748343255111911000063
100000000000000000000009077090001674800000000000000000000000010002100021335411191400000000002            2  01213354111924111900000001476090000000001N111119000000000000000000000000000000000000000000000000000000000000000100021335464808RAQUEL FERREIRA RAMOS                   RUA ANTONIO SEVERIANO DE ANDRADE E SILVA            11702400                                                            000065
2SR. CAIXA, APOS O VENCIMENTO COBRAR 10% DE MULTA                                NAO RECEBER APOS 30 DIAS DO VENCIMENTO.                                                                                                                                                                                                         12111900000000000001211190000000000000       0090770900016748213354111914000066
100000000000000000000009077090001674800000000000000000000000010002100005627911191300000000002            2  01056279111924111900000001730850000000001N111119000000000000000000000000000000000000000000000000000000000000000100005627947861FERNANDO CESAR MARCELINO                TRAVESSA CHARLES LEBRUN - 83 - VILA NOVA            02312060                                                            000068
2SR. CAIXA, APOS O VENCIMENTO COBRAR 10% DE MULTA                                NAO RECEBER APOS 30 DIAS DO VENCIMENTO.                                                                                                                                                                                                         12111900000000000001211190000000000000       0090770900016748056279111913000069
100000000000000000000009077090001674800000000000000000000000010002100026187911191P00000000002            2  01261879111924111900000001806200000000001N111119000000000000000000000000000000000000000000000000000000000000000100026187960807CARINA CANTACESSO DE SOUZA              RUA MONTE CASTELO - 296 AP.91 - AVIACAO             11702720                                                            000071
2SR. CAIXA, APOS O VENCIMENTO COBRAR 10% DE MULTA                                NAO RECEBER APOS 30 DIAS DO VENCIMENTO.                                                                                                                                                                                                         12111900000000000001211190000000000000       009077090001674826187911191P000072
100000000000000000000009077090001674800000000000000000000000010002100004864911191500000000002            2  01048649111924111900000002414050000000001N111119000000000000000000000000000000000000000000000000000000000000000100004864924600RENATO SANTACHIARA SALVADORI            RUA PENSYLVANIA - 116 - PAYSAGE BRISE -             06730000                                                            000074
2SR. CAIXA, APOS O VENCIMENTO COBRAR 10% DE MULTA                                NAO RECEBER APOS 30 DIAS DO VENCIMENTO.                                                                                                                                                                                                         12111900000000000001211190000000000000       0090770900016748048649111915000075
100000000000000000000009077090001674800000000000000000000000010002100026647611191100000000002            2  01266476111924111900000002673910000000001N111119000000000000000000000000000000000000000000000000000000000000000100026647690816CLAUDIA FUKUDA OGATA BURATTO            RUA DINAMARCA - 449 - BAIRRO TABOAO - SA            09668080                                                            000077
2SR. CAIXA, APOS O VENCIMENTO COBRAR 10% DE MULTA                                NAO RECEBER APOS 30 DIAS DO VENCIMENTO.                                                                                                                                                                                                         12111900000000000001211190000000000000       0090770900016748266476111911000078
9                                                                                                                                                                                                                                                                                                                                                                                                         000079