01REMESSA01COBRANCA       00000000000004991454AIRES CONSTRUTORA E INCORPORAD237BRADESCO       011218        MX0000121                                                                                                                                                                                                                                                                                     000001
100000000000000000000009077090001674800000000000000000000000010002100099740412181P00000000002            2  01997404121809121800000002853860000000001N011218000000000000000000000000000000000000000000000000000000000000000100099740451853ARNALDO DA SILVA SALES                  RUA ALEGRE - 210 - VILA SAO RAFAEL - GUA            07053100                                                            000002
2SR. CAIXA, APOS O VENCIMENTO COBRAR 10% DE MULTA                                NAO RECEBER APOS 30 DIAS DO VENCIMENTO.                                                                                                                                                                                                         01121800000000000000112180000000000000       009077090001674899740412181P000003
100000000000000000000009077090001674800000000000000000000000010002100049736712181P00000000002            2  01497367121809121800000001731720000000001N011218000000000000000000000000000000000000000000000000000000000000000100049736787320RAIMUNDO VIEIRA DA SILVA                RUA BOLIVIA - 81 AP.ZELADORIA - JARDIM G            11701850                                                            000005
2SR. CAIXA, APOS O VENCIMENTO COBRAR 10% DE MULTA                                NAO RECEBER APOS 30 DIAS DO VENCIMENTO.                                                                                                                                                                                                         01121800000000000000112180000000000000       009077090001674849736712181P000006
100000000000000000000009077090001674800000000000000000000000010002100044380712181400000000002            2  01443807121809121800000004603560000000001N011218000000000000000000000000000000000000000000000000000000000000000100044380725812FERNANDO FIRMINO DOS SANTOS             RUA BARAO GERALDO DE RESENDE - 401 - BAI            05205220                                                            000008
2SR. CAIXA, APOS O VENCIMENTO COBRAR 10% DE MULTA                                NAO RECEBER APOS 30 DIAS DO VENCIMENTO.                                                                                                                                                                                                         01121800000000000000112180000000000000       0090770900016748443807121814000009
100000000000000000000009077090001674800000000000000000000000010002100025469412181500000000002            2  01254694121809121800000001433000000000001N011218000000000000000000000000000000000000000000000000000000000000000100025469470873JULIA MARIA RODRIGUES MARTINS           AVENIDA JOAO FIRMINO - 1229 AP.21 - BAIR            09810260                                                            000011
2SR. CAIXA, APOS O VENCIMENTO COBRAR 10% DE MULTA                                NAO RECEBER APOS 30 DIAS DO VENCIMENTO.                                                                                                                                                                                                         01121800000000000000112180000000000000       0090770900016748254694121815000012
100000000000000000000009077090001674800000000000000000000000010002100004759512181600000000002            2  01047595121809121800000003469430000000001N011218000000000000000000000000000000000000000000000000000000000000000100004759534873AGNALDO PORFIRIO DOS SANTOS             RUA JUVENCIO GASPAR DA SILVA - 35 - SAO             04303060                                                            000014
2SR. CAIXA, APOS O VENCIMENTO COBRAR 10% DE MULTA                                NAO RECEBER APOS 30 DIAS DO VENCIMENTO.                                                                                                                                                                                                         01121800000000000000112180000000000000       0090770900016748047595121816000015
100000000000000000000009077090001674800000000000000000000000010002100014924012181200000000002            2  01149240121809121800000001869710000000001N011218000000000000000000000000000000000000000000000000000000000000000100014924049859KATIA REGINA DE OLIVEIRA SILVA          RUA ANTONIO SIMIONATO - 73 AP.14 - SANTA            09780180                                                            000017
2SR. CAIXA, APOS O VENCIMENTO COBRAR 10% DE MULTA                                NAO RECEBER APOS 30 DIAS DO VENCIMENTO.                                                                                                                                                                                                         01121800000000000000112180000000000000       0090770900016748149240121812000018
100000000000000000000009077090001674800000000000000000000000010002100090830412181P00000000002            2  01908304121809121800000001093770000000001N011218000000000000000000000000000000000000000000000000000000000000000100090830490868IVONETE FERNANDES                       AVENIDA FREDERICO OZANAN - 5504 - VILA R            13215276                                                            000020
2SR. CAIXA, APOS O VENCIMENTO COBRAR 10% DE MULTA                                NAO RECEBER APOS 30 DIAS DO VENCIMENTO.                                                                                                                                                                                                         01121800000000000000112180000000000000       009077090001674890830412181P000021
100000000000000000000009077090001674800000000000000000000000010002100027093912181100000000002            2  01270939121809121800000002711480000000001N011218000000000000000000000000000000000000000000000000000000000000000100027093944809DAVID ALEXANDRE XAVIER ROCHA            RUA MONTE CASTELO - 296 AP.54 - AVIACAO             11702720                                                            000023
2SR. CAIXA, APOS O VENCIMENTO COBRAR 10% DE MULTA                                NAO RECEBER APOS 30 DIAS DO VENCIMENTO.                                                                                                                                                                                                         01121800000000000000112180000000000000       0090770900016748270939121811000024
100000000000000000000009077090001674800000000000000000000000010002100068273212181800000000002            2  01682732121809121800000001973770000000001N011218000000000000000000000000000000000000000000000000000000000000000100068273290891DERNEVAL JOSE MUNIZ                     RUA MARTINOPOLIS - 98 - JARDIM OTAWA - G            07230230                                                            000026
2SR. CAIXA, APOS O VENCIMENTO COBRAR 10% DE MULTA                                NAO RECEBER APOS 30 DIAS DO VENCIMENTO.                                                                                                                                                                                                         01121800000000000000112180000000000000       0090770900016748682732121818000027
100000000000000000000009077090001674800000000000000000000000010002100001817512181000000000002            2  01018175121809121800000001686830000000001N011218000000000000000000000000000000000000000000000000000000000000000100001817534807SANTINA SALVINA SOARES                  RUA CAIAPOS - 1066 AP.43 - VILA TUPI - P            11703320                                                            000029
2SR. CAIXA, APOS O VENCIMENTO COBRAR 10% DE MULTA                                NAO RECEBER APOS 30 DIAS DO VENCIMENTO.                                                                                                                                                                                                         01121800000000000000112180000000000000       0090770900016748018175121810000030
100000000000000000000009077090001674800000000000000000000000010002100086755712181800000000002            2  01867557121809121800000001822340000000001N011218000000000000000000000000000000000000000000000000000000000000000100086755790800GERALDO JAIR BROGLIATTO                 DR.ARMANDO COSTA MAGALHAES - 176 - VILA             13270490                                                            000032
2SR. CAIXA, APOS O VENCIMENTO COBRAR 10% DE MULTA                                NAO RECEBER APOS 30 DIAS DO VENCIMENTO.                                                                                                                                                                                                         01121800000000000000112180000000000000       0090770900016748867557121818000033
100000000000000000000009077090001674800000000000000000000000010002100007996012181100000000002            2  01079960121809121800000001810300000000001N011218000000000000000000000000000000000000000000000000000000000000000100007996062862HENRIQUE SALVADOR                       RUA DARDANELOS - 689 - PARQUE NOVO ORATO            09260060                                                            000035
2SR. CAIXA, APOS O VENCIMENTO COBRAR 10% DE MULTA                                NAO RECEBER APOS 30 DIAS DO VENCIMENTO.                                                                                                                                                                                                         01121800000000000000112180000000000000       0090770900016748079960121811000036
100000000000000000000009077090001674800000000000000000000000010002100010066012181900000000002            2  01100660121809121800000002425180000000001N011218000000000000000000000000000000000000000000000000000000000000000100010066071534MOISES ROQUE DO ROSARIO                 RUA DAS PAPOULAS - 53 - VILA BELA - SAO             03202010                                                            000038
2SR. CAIXA, APOS O VENCIMENTO COBRAR 10% DE MULTA                                NAO RECEBER APOS 30 DIAS DO VENCIMENTO.                                                                                                                                                                                                         01121800000000000000112180000000000000       0090770900016748100660121819000039
100000000000000000000009077090001674800000000000000000000000010002100085910012181P00000000002            2  01859100121809121800000002767220000000001N011218000000000000000000000000000000000000000000000000000000000000000100085910031872SERGIO NOGUEIRA                         RUA MONTE CASTELO - 262 AP.55 - AVIACAO             11702720                                                            000041
2SR. CAIXA, APOS O VENCIMENTO COBRAR 10% DE MULTA                                NAO RECEBER APOS 30 DIAS DO VENCIMENTO.                                                                                                                                                                                                         01121800000000000000112180000000000000       009077090001674885910012181P000042
100000000000000000000009077090001674800000000000000000000000010002100000746812181300000000002            2  01007468121809121800000002237200000000001N011218000000000000000000000000000000000000000000000000000000000000000100000746845820ANTONIO CARLOS DE MELLO                 RUA CONGO - 118 - PARQUE MONTE ALEGRE -             06756270                                                            000044
2SR. CAIXA, APOS O VENCIMENTO COBRAR 10% DE MULTA                                NAO RECEBER APOS 30 DIAS DO VENCIMENTO.                                                                                                                                                                                                         01121800000000000000112180000000000000       0090770900016748007468121813000045
100000000000000000000009077090001674800000000000000000000000010002100028196112181900000000002            2  01281961121809121800000001610980000000001N011218000000000000000000000000000000000000000000000000000000000000000100028196184808VANESSA NOGUEIRA CAMBUI DA SILVA        CRISTOVAO COLOMBO - 217 - VILA AMERICA -            09110160                                                            000047
2SR. CAIXA, APOS O VENCIMENTO COBRAR 10% DE MULTA                                NAO RECEBER APOS 30 DIAS DO VENCIMENTO.                                                                                                                                                                                                         01121800000000000000112180000000000000       0090770900016748281961121819000048
100000000000000000000009077090001674800000000000000000000000010002100049730812181400000000002            2  01497308121809121800000001322400000000001N011218000000000000000000000000000000000000000000000000000000000000000100049730835420PEDRO LUIZ DO BOM FIM FILHO             RUA NASCER DO SOL - 91 - BAIRRO PIRAPORI            09951475                                                            000050
2SR. CAIXA, APOS O VENCIMENTO COBRAR 10% DE MULTA                                NAO RECEBER APOS 30 DIAS DO VENCIMENTO.                                                                                                                                                                                                         01121800000000000000112180000000000000       0090770900016748497308121814000051
100000000000000000000009077090001674800000000000000000000000010002100027067012181P00000000002            2  01270670121809121800000001640700000000001N011218000000000000000000000000000000000000000000000000000000000000000100027067002893MARCIA NASCIMENTO DE MORAES             RUA MONTE CASTELO - 296 AP.11 - AVIACAO             11702720                                                            000053
2SR. CAIXA, APOS O VENCIMENTO COBRAR 10% DE MULTA                                NAO RECEBER APOS 30 DIAS DO VENCIMENTO.                                                                                                                                                                                                         01121800000000000000112180000000000000       009077090001674827067012181P000054
100000000000000000000009077090001674800000000000000000000000010002100064435712181400000000002            2  01644357121809121800000001640700000000001N011218000000000000000000000000000000000000000000000000000000000000000100064435741849JURACY DA SILVA                         RUA JACARATINGA - 192 - JARDIM PIRAJUCAR            05786120                                                            000056
2SR. CAIXA, APOS O VENCIMENTO COBRAR 10% DE MULTA                                NAO RECEBER APOS 30 DIAS DO VENCIMENTO.                                                                                                                                                                                                         01121800000000000000112180000000000000       0090770900016748644357121814000057
100000000000000000000009077090001674800000000000000000000000010002100094921812181300000000002            2  01949218121809121800000003257010000000001N011218000000000000000000000000000000000000000000000000000000000000000100094921890897JOAO JORGE DA ROSA FILHO                RUA OLAVO EGIDIO DE SOUZA ARANHA - 368 A            03822000                                                            000059
2SR. CAIXA, APOS O VENCIMENTO COBRAR 10% DE MULTA                                NAO RECEBER APOS 30 DIAS DO VENCIMENTO.                                                                                                                                                                                                         01121800000000000000112180000000000000       0090770900016748949218121813000060
100000000000000000000009077090001674800000000000000000000000010002100094921812182100000000002            2  01949218121809121800000001628490000000001N011218000000000000000000000000000000000000000000000000000000000000000100094921890897JOAO JORGE DA ROSA FILHO                RUA OLAVO EGIDIO DE SOUZA ARANHA - 368 A            03822000                                                            000062
2SR. CAIXA, APOS O VENCIMENTO COBRAR 10% DE MULTA                                NAO RECEBER APOS 30 DIAS DO VENCIMENTO.                                                                                                                                                                                                         01121800000000000000112180000000000000       0090770900016748949218121821000063
100000000000000000000009077090001674800000000000000000000000010002100008364812181P00000000002            2  01083648121809121800000001975570000000001N011218000000000000000000000000000000000000000000000000000000000000000100008364834800JOSEFINA CORREA RAMA DOS SANTOS         AVENIDA PRESIDENTE CASTELO BRANCO - 3.78            11702700                                                            000065
2SR. CAIXA, APOS O VENCIMENTO COBRAR 10% DE MULTA                                NAO RECEBER APOS 30 DIAS DO VENCIMENTO.                                                                                                                                                                                                         01121800000000000000112180000000000000       009077090001674808364812181P000066
100000000000000000000009077090001674800000000000000000000000010002100037713312181000000000002            2  01377133121809121800000001616370000000001N011218000000000000000000000000000000000000000000000000000000000000000100037713356800JAMILLE PAULA BUENO LOPES               RUA CURIO (COND.NEW VILLE) - 172 - SURU             06509031                                                            000068
2SR. CAIXA, APOS O VENCIMENTO COBRAR 10% DE MULTA                                NAO RECEBER APOS 30 DIAS DO VENCIMENTO.                                                                                                                                                                                                         01121800000000000000112180000000000000       0090770900016748377133121810000069
100000000000000000000009077090001674800000000000000000000000010002100076207912181900000000002            2  01762079121809121800000002030850000000001N011218000000000000000000000000000000000000000000000000000000000000000100076207943872JOSE MACEDO RICARTE FILHO               RUA ARTUR LOBO - 181 - JARDIM JABAQUARA             04384060                                                            000071
2SR. CAIXA, APOS O VENCIMENTO COBRAR 10% DE MULTA                                NAO RECEBER APOS 30 DIAS DO VENCIMENTO.                                                                                                                                                                                                         01121800000000000000112180000000000000       0090770900016748762079121819000072
100000000000000000000009077090001674800000000000000000000000010002100094672612181100000000002            2  01946726121809121800000002564740000000001N011218000000000000000000000000000000000000000000000000000000000000000100094672660834JOSE HENRIQUE SOARES PEREIRA INACIO     RUA MONTE CASTELO - 296 AP.34 - AVIACAO             11702720                                                            000074
2SR. CAIXA, APOS O VENCIMENTO COBRAR 10% DE MULTA                                NAO RECEBER APOS 30 DIAS DO VENCIMENTO.                                                                                                                                                                                                         01121800000000000000112180000000000000       0090770900016748946726121811000075
100000000000000000000009077090001674800000000000000000000000010002100025265212181200000000002            2  01252652121809121800000001394460000000001N011218000000000000000000000000000000000000000000000000000000000000000100025265260862SONIA MARIA CECILIO DA SILVA            RUA PRESIDENTE TANCREDO NEVES - 1093 AP.            06329350                                                            000077
2SR. CAIXA, APOS O VENCIMENTO COBRAR 10% DE MULTA                                NAO RECEBER APOS 30 DIAS DO VENCIMENTO.                                                                                                                                                                                                         01121800000000000000112180000000000000       0090770900016748252652121812000078
100000000000000000000009077090001674800000000000000000000000010002100011381912181P00000000002            2  01113819121809121800000002657830000000001N011218000000000000000000000000000000000000000000000000000000000000000100011381987818MARIO DONIZETE MIGUEL DA SILVA          RUA JASPE - 215 - HIGIANOPOLIS - JANDIRA            06642270                                                            000080
2SR. CAIXA, APOS O VENCIMENTO COBRAR 10% DE MULTA                                NAO RECEBER APOS 30 DIAS DO VENCIMENTO.                                                                                                                                                                                                         01121800000000000000112180000000000000       009077090001674811381912181P000081
9                                                                                                                                                                                                                                                                                                                                                                                                         000082