01REMESSA01COBRANCA       00000000000004991788AIRES DESENVOLVIMENTO IMOBILIA237BRADESCO       120919        MX0000161                                                                                                                                                                                                                                                                                     000001
100000000000000000000009077090011897400000000000000000000000010002100027324009191600000000002            2  01273240091924091900000001642940000000001N100919000000000000000000000000000000000000000000000000000000000000000100027324099874LEONARDO BORGES DUARTE SILVA            RUA JOSE CALIXTO DO CARMO - 265 AP.94 -             11702690                                                            000002
2SR. CAIXA, APOS O VENCIMENTO COBRAR 10% DE MULTA                                NAO RECEBER APOS 30 DIAS DO VENCIMENTO.                                                                                                                                                                                                         12091900000000000001209190000000000000       0090770900118974273240091916000003
100000000000000000000009077090011897400000000000000000000000010002100084057909191700000000002            2  01840579091927091900000002000000000000001N100919000000000000000000000000000000000000000000000000000000000000000100084057904891ANTONIO GONZAGA DOS SANTOS              RUA BRIGADEIRO JOSE FERREIRA - 319 - CAN            11700470                                                            000005
2SR. CAIXA, APOS O VENCIMENTO COBRAR 10% DE MULTA                                NAO RECEBER APOS 30 DIAS DO VENCIMENTO.                                                                                                                                                                                                         12091900000000000001209190000000000000       0090770900118974840579091917000006
100000000000000000000009077090011897400000000000000000000000010002100036782009191800000000002            2  01367820091924091900000001581590000000001N100919000000000000000000000000000000000000000000000000000000000000000100036782058871ANA PAULA BUENO DA COSTA                RUA MARIQUITA ARTACHO - 218 CASA 3 - JAR            03716000                                                            000008
2SR. CAIXA, APOS O VENCIMENTO COBRAR 10% DE MULTA                                NAO RECEBER APOS 30 DIAS DO VENCIMENTO.                                                                                                                                                                                                         12091900000000000001209190000000000000       0090770900118974367820091918000009
100000000000000000000009077090011897400000000000000000000000010002100018272709191600000000002            2  01182727091927091900000001800000000000001N100919000000000000000000000000000000000000000000000000000000000000000100018272729881HENRY CESAR UEDA                        RUA MONTE CASTELO - 295 AP.94 - AVIACAO             11702720                                                            000011
2SR. CAIXA, APOS O VENCIMENTO COBRAR 10% DE MULTA                                NAO RECEBER APOS 30 DIAS DO VENCIMENTO.                                                                                                                                                                                                         12091900000000000001209190000000000000       0090770900118974182727091916000012
100000000000000000000009077090011897400000000000000000000000010002100027300909191100000000002            2  01273009091924091900000001840800000000001N100919000000000000000000000000000000000000000000000000000000000000000100027300953816HOSANA DOS SANTOS MOLEIRO               RUA JOSE CALIXTO DO CARMO - 295 AP.61 -             11702690                                                            000014
2SR. CAIXA, APOS O VENCIMENTO COBRAR 10% DE MULTA                                NAO RECEBER APOS 30 DIAS DO VENCIMENTO.                                                                                                                                                                                                         12091900000000000001209190000000000000       0090770900118974273009091911000015
100000000000000000000009077090011897400000000000000000000000010002100027300909192P00000000002            2  01273009091924091900000001840750000000001N100919000000000000000000000000000000000000000000000000000000000000000100027300953816HOSANA DOS SANTOS MOLEIRO               RUA JOSE CALIXTO DO CARMO - 295 AP.61 -             11702690                                                            000017
2SR. CAIXA, APOS O VENCIMENTO COBRAR 10% DE MULTA                                NAO RECEBER APOS 30 DIAS DO VENCIMENTO.                                                                                                                                                                                                         12091900000000000001209190000000000000       009077090011897427300909192P000018
100000000000000000000009077090011897400000000000000000000000010002100027300909193800000000002            2  01273009091924091900000001840760000000001N100919000000000000000000000000000000000000000000000000000000000000000100027300953816HOSANA DOS SANTOS MOLEIRO               RUA JOSE CALIXTO DO CARMO - 295 AP.61 -             11702690                                                            000020
2SR. CAIXA, APOS O VENCIMENTO COBRAR 10% DE MULTA                                NAO RECEBER APOS 30 DIAS DO VENCIMENTO.                                                                                                                                                                                                         12091900000000000001209190000000000000       0090770900118974273009091938000021
100000000000000000000009077090011897400000000000000000000000010002100027300909194600000000002            2  01273009091924091900000001840770000000001N100919000000000000000000000000000000000000000000000000000000000000000100027300953816HOSANA DOS SANTOS MOLEIRO               RUA JOSE CALIXTO DO CARMO - 295 AP.61 -             11702690                                                            000023
2SR. CAIXA, APOS O VENCIMENTO COBRAR 10% DE MULTA                                NAO RECEBER APOS 30 DIAS DO VENCIMENTO.                                                                                                                                                                                                         12091900000000000001209190000000000000       0090770900118974273009091946000024
100000000000000000000009077090011897400000000000000000000000010002100027300909195400000000002            2  01273009091924091900000001840780000000001N100919000000000000000000000000000000000000000000000000000000000000000100027300953816HOSANA DOS SANTOS MOLEIRO               RUA JOSE CALIXTO DO CARMO - 295 AP.61 -             11702690                                                            000026
2SR. CAIXA, APOS O VENCIMENTO COBRAR 10% DE MULTA                                NAO RECEBER APOS 30 DIAS DO VENCIMENTO.                                                                                                                                                                                                         12091900000000000001209190000000000000       0090770900118974273009091954000027
100000000000000000000009077090011897400000000000000000000000010002100027300909196200000000002            2  01273009091924091900000001840790000000001N100919000000000000000000000000000000000000000000000000000000000000000100027300953816HOSANA DOS SANTOS MOLEIRO               RUA JOSE CALIXTO DO CARMO - 295 AP.61 -             11702690                                                            000029
2SR. CAIXA, APOS O VENCIMENTO COBRAR 10% DE MULTA                                NAO RECEBER APOS 30 DIAS DO VENCIMENTO.                                                                                                                                                                                                         12091900000000000001209190000000000000       0090770900118974273009091962000030
9                                                                                                                                                                                                                                                                                                                                                                                                         000031