01REMESSA01COBRANCA       00000000000004991454AIRES CONSTRUTORA E INCORPORAD237BRADESCO       010619        MX0000133                                                                                                                                                                                                                                                                                     000001
100000000000000000000009077090001674800000000000000000000000010002100099740406191400000000002            2  01997404061909061900000002984710000000001N010619000000000000000000000000000000000000000000000000000000000000000100099740451853ARNALDO DA SILVA SALES                  RUA ALEGRE - 210 - VILA SAO RAFAEL - GUA            07053100                                                            000002
2SR. CAIXA, APOS O VENCIMENTO COBRAR 10% DE MULTA                                NAO RECEBER APOS 30 DIAS DO VENCIMENTO.                                                                                                                                                                                                         01061900000000000000106190000000000000       0090770900016748997404061914000003
100000000000000000000009077090001674800000000000000000000000010002100026984106191P00000000002            2  01269841061909061900000001811120000000001N010619000000000000000000000000000000000000000000000000000000000000000100026984181844GISELE APARECIDA MAGALHAES              RUA GRACILIANO RAMOS - 181 - BAIRRO SAO             09581410                                                            000005
2SR. CAIXA, APOS O VENCIMENTO COBRAR 10% DE MULTA                                NAO RECEBER APOS 30 DIAS DO VENCIMENTO.                                                                                                                                                                                                         01061900000000000000106190000000000000       009077090001674826984106191P000006
100000000000000000000009077090001674800000000000000000000000010002100044380706191900000000002            2  01443807061909061900000004814650000000001N010619000000000000000000000000000000000000000000000000000000000000000100044380725812FERNANDO FIRMINO DOS SANTOS             RUA BARAO GERALDO DE RESENDE - 401 - BAI            05205220                                                            000008
2SR. CAIXA, APOS O VENCIMENTO COBRAR 10% DE MULTA                                NAO RECEBER APOS 30 DIAS DO VENCIMENTO.                                                                                                                                                                                                         01061900000000000000106190000000000000       0090770900016748443807061919000009
100000000000000000000009077090001674800000000000000000000000010002100025469406191P00000000002            2  01254694061909061900000001498710000000001N010619000000000000000000000000000000000000000000000000000000000000000100025469470873JULIA MARIA RODRIGUES MARTINS           AVENIDA JOAO FIRMINO - 1229 AP.21 - BAIR            09810260                                                            000011
2SR. CAIXA, APOS O VENCIMENTO COBRAR 10% DE MULTA                                NAO RECEBER APOS 30 DIAS DO VENCIMENTO.                                                                                                                                                                                                         01061900000000000000106190000000000000       009077090001674825469406191P000012
100000000000000000000009077090001674800000000000000000000000010002100004759506191000000000002            2  01047595061909061900000003628510000000001N010619000000000000000000000000000000000000000000000000000000000000000100004759534873AGNALDO PORFIRIO DOS SANTOS             RUA JUVENCIO GASPAR DA SILVA - 35 - SAO             04303060                                                            000014
2SR. CAIXA, APOS O VENCIMENTO COBRAR 10% DE MULTA                                NAO RECEBER APOS 30 DIAS DO VENCIMENTO.                                                                                                                                                                                                         01061900000000000000106190000000000000       0090770900016748047595061910000015
100000000000000000000009077090001674800000000000000000000000010002100090830406191400000000002            2  01908304061909061900000001143920000000001N010619000000000000000000000000000000000000000000000000000000000000000100090830490868IVONETE FERNANDES                       AVENIDA FREDERICO OZANAN - 5504 - VILA R            13215276                                                            000017
2SR. CAIXA, APOS O VENCIMENTO COBRAR 10% DE MULTA                                NAO RECEBER APOS 30 DIAS DO VENCIMENTO.                                                                                                                                                                                                         01061900000000000000106190000000000000       0090770900016748908304061914000018
100000000000000000000009077090001674800000000000000000000000010002100027093906191600000000002            2  01270939061909061900000002835810000000001N010619000000000000000000000000000000000000000000000000000000000000000100027093944809DAVID ALEXANDRE XAVIER ROCHA            RUA MONTE CASTELO - 296 AP.54 - AVIACAO             11702720                                                            000020
2SR. CAIXA, APOS O VENCIMENTO COBRAR 10% DE MULTA                                NAO RECEBER APOS 30 DIAS DO VENCIMENTO.                                                                                                                                                                                                         01061900000000000000106190000000000000       0090770900016748270939061916000021
100000000000000000000009077090001674800000000000000000000000010002100068273206191200000000002            2  01682732061909061900000002064270000000001N010619000000000000000000000000000000000000000000000000000000000000000100068273290891DERNEVAL JOSE MUNIZ                     RUA MARTINOPOLIS - 98 - JARDIM OTAWA - G            07230230                                                            000023
2SR. CAIXA, APOS O VENCIMENTO COBRAR 10% DE MULTA                                NAO RECEBER APOS 30 DIAS DO VENCIMENTO.                                                                                                                                                                                                         01061900000000000000106190000000000000       0090770900016748682732061912000024
100000000000000000000009077090001674800000000000000000000000010002100001817506191500000000002            2  01018175061909061900000001764180000000001N010619000000000000000000000000000000000000000000000000000000000000000100001817534807SANTINA SALVINA SOARES                  RUA CAIAPOS - 1066 AP.43 - VILA TUPI - P            11703320                                                            000026
2SR. CAIXA, APOS O VENCIMENTO COBRAR 10% DE MULTA                                NAO RECEBER APOS 30 DIAS DO VENCIMENTO.                                                                                                                                                                                                         01061900000000000000106190000000000000       0090770900016748018175061915000027
100000000000000000000009077090001674800000000000000000000000010002100086755706191200000000002            2  01867557061909061900000001905900000000001N010619000000000000000000000000000000000000000000000000000000000000000100086755790800GERALDO JAIR BROGLIATTO                 DR.ARMANDO COSTA MAGALHAES - 176 - VILA             13270490                                                            000029
2SR. CAIXA, APOS O VENCIMENTO COBRAR 10% DE MULTA                                NAO RECEBER APOS 30 DIAS DO VENCIMENTO.                                                                                                                                                                                                         01061900000000000000106190000000000000       0090770900016748867557061912000030
100000000000000000000009077090001674800000000000000000000000010002100007996006191600000000002            2  01079960061909061900000001893310000000001N010619000000000000000000000000000000000000000000000000000000000000000100007996062862HENRIQUE SALVADOR                       RUA DARDANELOS - 689 - PARQUE NOVO ORATO            09260060                                                            000032
2SR. CAIXA, APOS O VENCIMENTO COBRAR 10% DE MULTA                                NAO RECEBER APOS 30 DIAS DO VENCIMENTO.                                                                                                                                                                                                         01061900000000000000106190000000000000       0090770900016748079960061916000033
100000000000000000000009077090001674800000000000000000000000010002100010066006191300000000002            2  01100660061909061900000002536380000000001N010619000000000000000000000000000000000000000000000000000000000000000100010066071534MOISES ROQUE DO ROSARIO                 RUA DAS PAPOULAS - 53 - VILA BELA - SAO             03202010                                                            000035
2SR. CAIXA, APOS O VENCIMENTO COBRAR 10% DE MULTA                                NAO RECEBER APOS 30 DIAS DO VENCIMENTO.                                                                                                                                                                                                         01061900000000000000106190000000000000       0090770900016748100660061913000036
100000000000000000000009077090001674800000000000000000000000010002100085910006191400000000002            2  01859100061909061900000002894090000000001N010619000000000000000000000000000000000000000000000000000000000000000100085910031872SERGIO NOGUEIRA                         RUA MONTE CASTELO - 262 AP.55 - AVIACAO             11702720                                                            000038
2SR. CAIXA, APOS O VENCIMENTO COBRAR 10% DE MULTA                                NAO RECEBER APOS 30 DIAS DO VENCIMENTO.                                                                                                                                                                                                         01061900000000000000106190000000000000       0090770900016748859100061914000039
100000000000000000000009077090001674800000000000000000000000010002100000746806191800000000002            2  01007468061909061900000002339780000000001N010619000000000000000000000000000000000000000000000000000000000000000100000746845820ANTONIO CARLOS DE MELLO                 RUA CONGO - 118 - PARQUE MONTE ALEGRE -             06756270                                                            000041
2SR. CAIXA, APOS O VENCIMENTO COBRAR 10% DE MULTA                                NAO RECEBER APOS 30 DIAS DO VENCIMENTO.                                                                                                                                                                                                         01061900000000000000106190000000000000       0090770900016748007468061918000042
100000000000000000000009077090001674800000000000000000000000010002100028196106191300000000002            2  01281961061909061900000001684840000000001N010619000000000000000000000000000000000000000000000000000000000000000100028196184808VANESSA NOGUEIRA CAMBUI DA SILVA        CRISTOVAO COLOMBO - 217 - VILA AMERICA -            09110160                                                            000044
2SR. CAIXA, APOS O VENCIMENTO COBRAR 10% DE MULTA                                NAO RECEBER APOS 30 DIAS DO VENCIMENTO.                                                                                                                                                                                                         01061900000000000000106190000000000000       0090770900016748281961061913000045
100000000000000000000009077090001674800000000000000000000000010002100049730806191900000000002            2  01497308061909061900000001383040000000001N010619000000000000000000000000000000000000000000000000000000000000000100049730835420PEDRO LUIZ DO BOM FIM FILHO             RUA NASCER DO SOL - 91 - BAIRRO PIRAPORI            09951475                                                            000047
2SR. CAIXA, APOS O VENCIMENTO COBRAR 10% DE MULTA                                NAO RECEBER APOS 30 DIAS DO VENCIMENTO.                                                                                                                                                                                                         01061900000000000000106190000000000000       0090770900016748497308061919000048
100000000000000000000009077090001674800000000000000000000000010002100027067006191400000000002            2  01270670061909061900000001715930000000001N010619000000000000000000000000000000000000000000000000000000000000000100027067002893MARCIA NASCIMENTO DE MORAES             RUA MONTE CASTELO - 296 AP.11 - AVIACAO             11702720                                                            000050
2SR. CAIXA, APOS O VENCIMENTO COBRAR 10% DE MULTA                                NAO RECEBER APOS 30 DIAS DO VENCIMENTO.                                                                                                                                                                                                         01061900000000000000106190000000000000       0090770900016748270670061914000051
100000000000000000000009077090001674800000000000000000000000010002100064435706191900000000002            2  01644357061909061900000001715930000000001N010619000000000000000000000000000000000000000000000000000000000000000100064435741849JURACY DA SILVA                         RUA JACARATINGA - 192 - JARDIM PIRAJUCAR            05786120                                                            000053
2SR. CAIXA, APOS O VENCIMENTO COBRAR 10% DE MULTA                                NAO RECEBER APOS 30 DIAS DO VENCIMENTO.                                                                                                                                                                                                         01061900000000000000106190000000000000       0090770900016748644357061919000054
100000000000000000000009077090001674800000000000000000000000010002100094921806191800000000002            2  01949218061909061900000001703160000000001N010619000000000000000000000000000000000000000000000000000000000000000100094921890897JOAO JORGE DA ROSA FILHO                RUA OLAVO EGIDIO DE SOUZA ARANHA - 368 A            03822000                                                            000056
2SR. CAIXA, APOS O VENCIMENTO COBRAR 10% DE MULTA                                NAO RECEBER APOS 30 DIAS DO VENCIMENTO.                                                                                                                                                                                                         01061900000000000000106190000000000000       0090770900016748949218061918000057
100000000000000000000009077090001674800000000000000000000000010002100008364806191400000000002            2  01083648061909061900000002066160000000001N010619000000000000000000000000000000000000000000000000000000000000000100008364834800JOSEFINA CORREA RAMA DOS SANTOS         AVENIDA PRESIDENTE CASTELO BRANCO - 3.78            11702700                                                            000059
2SR. CAIXA, APOS O VENCIMENTO COBRAR 10% DE MULTA                                NAO RECEBER APOS 30 DIAS DO VENCIMENTO.                                                                                                                                                                                                         01061900000000000000106190000000000000       0090770900016748083648061914000060
100000000000000000000009077090001674800000000000000000000000010002100037713306191500000000002            2  01377133061909061900000001690480000000001N010619000000000000000000000000000000000000000000000000000000000000000100037713356800JAMILLE PAULA BUENO LOPES               RUA CURIO (COND.NEW VILLE) - 172 - SURU             06509031                                                            000062
2SR. CAIXA, APOS O VENCIMENTO COBRAR 10% DE MULTA                                NAO RECEBER APOS 30 DIAS DO VENCIMENTO.                                                                                                                                                                                                         01061900000000000000106190000000000000       0090770900016748377133061915000063
100000000000000000000009077090001674800000000000000000000000010002100027100906191200000000002            2  01271009061909061900000001969430000000001N010619000000000000000000000000000000000000000000000000000000000000000100027100951810MARCIA RAMALHO RODRIGUES                RUA MONTE CASTELO - 296 AP.82 - AVIACAO             11702720                                                            000065
2SR. CAIXA, APOS O VENCIMENTO COBRAR 10% DE MULTA                                NAO RECEBER APOS 30 DIAS DO VENCIMENTO.                                                                                                                                                                                                         01061900000000000000106190000000000000       0090770900016748271009061912000066
100000000000000000000009077090001674800000000000000000000000010002100076207906191300000000002            2  01762079061909061900000002123970000000001N010619000000000000000000000000000000000000000000000000000000000000000100076207943872JOSE MACEDO RICARTE FILHO               RUA ARTUR LOBO - 181 - JARDIM JABAQUARA             04384060                                                            000068
2SR. CAIXA, APOS O VENCIMENTO COBRAR 10% DE MULTA                                NAO RECEBER APOS 30 DIAS DO VENCIMENTO.                                                                                                                                                                                                         01061900000000000000106190000000000000       0090770900016748762079061913000069
100000000000000000000009077090001674800000000000000000000000010002100094672606191600000000002            2  01946726061909061900000002682350000000001N010619000000000000000000000000000000000000000000000000000000000000000100094672660834JOSE HENRIQUE SOARES PEREIRA INACIO     RUA MONTE CASTELO - 296 AP.34 - AVIACAO             11702720                                                            000071
2SR. CAIXA, APOS O VENCIMENTO COBRAR 10% DE MULTA                                NAO RECEBER APOS 30 DIAS DO VENCIMENTO.                                                                                                                                                                                                         01061900000000000000106190000000000000       0090770900016748946726061916000072
100000000000000000000009077090001674800000000000000000000000010002100025265206191700000000002            2  01252652061909061900000001458420000000001N010619000000000000000000000000000000000000000000000000000000000000000100025265260862SONIA MARIA CECILIO DA SILVA            RUA PRESIDENTE TANCREDO NEVES - 1093 AP.            06329350                                                            000074
2SR. CAIXA, APOS O VENCIMENTO COBRAR 10% DE MULTA                                NAO RECEBER APOS 30 DIAS DO VENCIMENTO.                                                                                                                                                                                                         01061900000000000000106190000000000000       0090770900016748252652061917000075
100000000000000000000009077090001674800000000000000000000000010002100011381906191400000000002            2  01113819061909061900000005404970000000001N010619000000000000000000000000000000000000000000000000000000000000000100011381987818MARIO DONIZETE MIGUEL DA SILVA          RUA JASPE - 215 - HIGIANOPOLIS - JANDIRA            06642270                                                            000077
2SR. CAIXA, APOS O VENCIMENTO COBRAR 10% DE MULTA                                NAO RECEBER APOS 30 DIAS DO VENCIMENTO.                                                                                                                                                                                                         01061900000000000000106190000000000000       0090770900016748113819061914000078
100000000000000000000009077090001674800000000000000000000000010002100011381906192200000000002            2  01113819061909061900000002779690000000001N010619000000000000000000000000000000000000000000000000000000000000000100011381987818MARIO DONIZETE MIGUEL DA SILVA          RUA JASPE - 215 - HIGIANOPOLIS - JANDIRA            06642270                                                            000080
2SR. CAIXA, APOS O VENCIMENTO COBRAR 10% DE MULTA                                NAO RECEBER APOS 30 DIAS DO VENCIMENTO.                                                                                                                                                                                                         01061900000000000000106190000000000000       0090770900016748113819061922000081
100000000000000000000009077090001674800000000000000000000000010002100020105506191000000000002            2  01201055061909061900000002253170000000001N010619000000000000000000000000000000000000000000000000000000000000000100020105503827VALTER DE SOUSA LIBARINO FILHO          RUA DAS PAINEIRAS - 140 - BAIRRO LARANJE            07741205                                                            000083
2SR. CAIXA, APOS O VENCIMENTO COBRAR 10% DE MULTA                                NAO RECEBER APOS 30 DIAS DO VENCIMENTO.                                                                                                                                                                                                         01061900000000000000106190000000000000       0090770900016748201055061910000084
100000000000000000000009077090001674800000000000000000000000010002100003010506191800000000002            2  01030105061909061900000002434560000000001N010619000000000000000000000000000000000000000000000000000000000000000100003010502877GIZELA VIEIRA BARROS                    RUA GIACOMO DALCIN - 157 - NOVA GERTY -             09580350                                                            000086
2SR. CAIXA, APOS O VENCIMENTO COBRAR 10% DE MULTA                                NAO RECEBER APOS 30 DIAS DO VENCIMENTO.                                                                                                                                                                                                         01061900000000000000106190000000000000       0090770900016748030105061918000087
100000000000000000000009077090001674800000000000000000000000010002100036712506191900000000002            2  01367125061909061900000001813530000000001N010619000000000000000000000000000000000000000000000000000000000000000100036712580803WALTER BARRETO DE ALMEIDA               RUA MONTE CASTELO - 296 AP.44 - AVIACAO             11702720                                                            000089
2SR. CAIXA, APOS O VENCIMENTO COBRAR 10% DE MULTA                                NAO RECEBER APOS 30 DIAS DO VENCIMENTO.                                                                                                                                                                                                         01061900000000000000106190000000000000       0090770900016748367125061919000090
9                                                                                                                                                                                                                                                                                                                                                                                                         000091