01REMESSA01COBRANCA       00000000000004991788AIRES DESENVOLVIMENTO IMOBILIA237BRADESCO       120417        MX0000095                                                                                                                                                                                                                                                                                     000001
100000000000000000000009077090011897400000000000000000000000010002100000051568070800000000002            2  01005156807025041700000001763110000000099N120417000000000000000000000000000000000000000000000000000000000000000100011088018890LUIZ CARLOS VITORINO MADEIRA            RUA JOSE CALIXTO DO CARMO - 265 AP. 32 -            11702690                                                            000002
2SR. CAIXA, APOS O VENCIMENTO COBRAR 10% DE MULTA                                NAO RECEBER APOS 30 DIAS DO VENCIMENTO.                                                                                                                                                                                                         12041700000000000001204170000000000000       0090770900118974000515680708000003
100000000000000000000009077090011897400000000000000000000000010002100000054728274700000000002            2  01005472827425041700000002368180000000099N120417000000000000000000000000000000000000000000000000000000000000000100000310954886MARIO CESAR FERREIRA DE LIMA            AVENIDA DO CURSINO - 6485 BLOCO A AP.86             04169000                                                            000005
2SR. CAIXA, APOS O VENCIMENTO COBRAR 10% DE MULTA                                NAO RECEBER APOS 30 DIAS DO VENCIMENTO.                                                                                                                                                                                                         12041700000000000001204170000000000000       0090770900118974000547282747000006
100000000000000000000009077090011897400000000000000000000000010002100000059708680900000000002            2  01005970868025041700000002430320000000099N120417000000000000000000000000000000000000000000000000000000000000000100094905290872CARLOS  ROBERTO FERREIRA CORAZZA        RUA PROFESSOR TEODORO BRAGA - 57 - FREGU            02966020                                                            000008
2SR. CAIXA, APOS O VENCIMENTO COBRAR 10% DE MULTA                                NAO RECEBER APOS 30 DIAS DO VENCIMENTO.                                                                                                                                                                                                         12041700000000000001204170000000000000       0090770900118974000597086809000009
100000000000000000000009077090011897400000000000000000000000010002100000066879388900000000002            2  01006687938825041700000002565560000000099N120417000000000000000000000000000000000000000000000000000000000000000100004007807809CLAUDIO CANESCHI                        RUA AGRESTE  DE ITABAINA - 663 - VILA UN            03683000                                                            000011
2SR. CAIXA, APOS O VENCIMENTO COBRAR 10% DE MULTA                                NAO RECEBER APOS 30 DIAS DO VENCIMENTO.                                                                                                                                                                                                         12041700000000000001204170000000000000       0090770900118974000668793889000012
100000000000000000000009077090011897400000000000000000000000010002100000071469893400000000002            2  01007146989325041700000002358810000000099N120417000000000000000000000000000000000000000000000000000000000000000100025998413806CELESTE ERMELINDA NEVES DA SILVA        RUA CIRO CARNEIRO - 920 - JARDIM GUILHER            11702220                                                            000014
2SR. CAIXA, APOS O VENCIMENTO COBRAR 10% DE MULTA                                NAO RECEBER APOS 30 DIAS DO VENCIMENTO.                                                                                                                                                                                                         12041700000000000001204170000000000000       0090770900118974000714698934000015
100000000000000000000009077090011897400000000000000000000000010002100007955106103300000000002            2  01795510610325041700000003129150000000099N120417000000000000000000000000000000000000000000000000000000000000000100000677443897JOSE CARLOS CORDEIRO CALADO             RUA HERMOGENES DA SILVA - 190 - VILA OLI            03379150                                                            000017
2SR. CAIXA, APOS O VENCIMENTO COBRAR 10% DE MULTA                                NAO RECEBER APOS 30 DIAS DO VENCIMENTO.                                                                                                                                                                                                         12041700000000000001204170000000000000       0090770900118974079551061033000018
100000000000000000000009077090011897400000000000000000000000010002100008484112108400000000002            2  01848411210825041700000002861520000000099N120417000000000000000000000000000000000000000000000000000000000000000100000796517800WLADIMIR RODRIGUES                      R:JOSE DA SILVA RIBEIRO - 576 AP.233 - B            05726130                                                            000020
2SR. CAIXA, APOS O VENCIMENTO COBRAR 10% DE MULTA                                NAO RECEBER APOS 30 DIAS DO VENCIMENTO.                                                                                                                                                                                                         12041700000000000001204170000000000000       0090770900118974084841121084000021
100000000000000000000009077090011897400000000000000000000000010002100008831116112900000000002            2  01883111611225041700000002765530000000099N120417000000000000000000000000000000000000000000000000000000000000000100077595971853CARLOS EDUARDO RODRIGUES TEIXEIRA       RUA JOSE APARECIDO PAVAN - 423 - PARQUE             13086080                                                            000023
2SR. CAIXA, APOS O VENCIMENTO COBRAR 10% DE MULTA                                NAO RECEBER APOS 30 DIAS DO VENCIMENTO.                                                                                                                                                                                                         12041700000000000001204170000000000000       0090770900118974088311161129000024
100000000000000000000009077090011897400000000000000000000000010002100008917117113300000000002            2  01891711711325041700000002783710000000099N120417000000000000000000000000000000000000000000000000000000000000000100015110751803LILIAN CARRARA DA SILVA CANDIDO         ALAMEDA VICENTE DE CARVALHO - 65 - JARDI            07600000                                                            000026
2SR. CAIXA, APOS O VENCIMENTO COBRAR 10% DE MULTA                                NAO RECEBER APOS 30 DIAS DO VENCIMENTO.                                                                                                                                                                                                         12041700000000000001204170000000000000       0090770900118974089171171133000027
100000000000000000000009077090011897400000000000000000000000010002100009089119115600000000002            2  01908911911525041700000002692710000000099N120417000000000000000000000000000000000000000000000000000000000000000100005204692835RINALDO DA MOTTA                        JOSE CALIXTO DO CARMO - 265 AP.93 - AVIA            11702690                                                            000029
2SR. CAIXA, APOS O VENCIMENTO COBRAR 10% DE MULTA                                NAO RECEBER APOS 30 DIAS DO VENCIMENTO.                                                                                                                                                                                                         12041700000000000001204170000000000000       0090770900118974090891191156000030
100000000000000000000009077090011897400000000000000000000000010002100009350122118000000000002            2  01935012211825041700000002133060000000099N120417000000000000000000000000000000000000000000000000000000000000000100022090439807FELIPE LUCIO LOPES                      RUA JOSE CALIXTO DO CARMO - 265 AP.103 -            11702690                                                            000032
2SR. CAIXA, APOS O VENCIMENTO COBRAR 10% DE MULTA                                NAO RECEBER APOS 30 DIAS DO VENCIMENTO.                                                                                                                                                                                                         12041700000000000001204170000000000000       0090770900118974093501221180000033
100000000000000000000009077090011897400000000000000000000000010002100000962045123100000000002            2  01096204512325041700000002654770000000099N120417000000000000000000000000000000000000000000000000000000000000000100070237824434ANTONIO FERREIRA NETO                   RUA HENRIQUE MINDLIM - 161 - JD. ORIENTA            04349250                                                            000035
2SR. CAIXA, APOS O VENCIMENTO COBRAR 10% DE MULTA                                NAO RECEBER APOS 30 DIAS DO VENCIMENTO.                                                                                                                                                                                                         12041700000000000001204170000000000000       0090770900118974009620451231000036
100000000000000000000009077090011897400000000000000000000000010002100010091131129900000000002            2  01100911311225041700000002801980000000099N120417000000000000000000000000000000000000000000000000000000000000000100005677409863ROSA MARIA OLIVIERI MEMOLI              CONSELHEIRO NEBIAS - 1409 - CAMPOS ELISE            01203002                                                            000038
2SR. CAIXA, APOS O VENCIMENTO COBRAR 10% DE MULTA                                NAO RECEBER APOS 30 DIAS DO VENCIMENTO.                                                                                                                                                                                                         12041700000000000001204170000000000000       0090770900118974100911311299000039
100000000000000000000009077090011897400000000000000000000000010002100010537138137500000000002            2  01105371381325041700000002677550000000099N120417000000000000000000000000000000000000000000000000000000000000000100034771609837MARCELO ALEXANDRE CARVALHO              RUA ECAUNA - 222 - JARDIM UMARIZAL - SAO            05754040                                                            000041
2SR. CAIXA, APOS O VENCIMENTO COBRAR 10% DE MULTA                                NAO RECEBER APOS 30 DIAS DO VENCIMENTO.                                                                                                                                                                                                         12041700000000000001204170000000000000       0090770900118974105371381375000042
100000000000000000000009077090011897400000000000000000000000010002100010650139139000000000002            2  01106501391325041700000006454770000000099N120417000000000000000000000000000000000000000000000000000000000000000100084057904891ANTONIO GONZAGA DOS SANTOS              RUA BRIGADEIRO JOSE FERREIRA - 319 - CAN            11700470                                                            000044
2SR. CAIXA, APOS O VENCIMENTO COBRAR 10% DE MULTA                                NAO RECEBER APOS 30 DIAS DO VENCIMENTO.                                                                                                                                                                                                         12041700000000000001204170000000000000       0090770900118974106501391390000045
100000000000000000000009077090011897400000000000000000000000010002100014193108192100000000002            2  01141931081924041700000001749870000000099N120417000000000000000000000000000000000000000000000000000000000000000100014497915816FERNANDO JOSE ARRUDA                    RUA JOSE CALIXTO DO CARMO - 265 AP.113 -            11702690                                                            000047
2SR. CAIXA, APOS O VENCIMENTO COBRAR 10% DE MULTA                                NAO RECEBER APOS 30 DIAS DO VENCIMENTO.                                                                                                                                                                                                         12041700000000000001204170000000000000       0090770900118974141931081921000048
100000000000000000000009077090011897400000000000000000000000010002100001422287193300000000002            2  01142228719324041700000001319730000000099N120417000000000000000000000000000000000000000000000000000000000000000100027324099874LEONARDO BORGES DUARTE SILVA            RUA JOSE CALIXTO DO CARMO - 265 AP.94 -             11702690                                                            000050
2SR. CAIXA, APOS O VENCIMENTO COBRAR 10% DE MULTA                                NAO RECEBER APOS 30 DIAS DO VENCIMENTO.                                                                                                                                                                                                         12041700000000000001204170000000000000       0090770900118974014222871933000051
9                                                                                                                                                                                                                                                                                                                                                                                                         000052