01REMESSA01COBRANCA       00000000000004991454AIRES CONSTRUTORA E INCORPORAD237BRADESCO       010717        MX0000084                                                                                                                                                                                                                                                                                     000001
100000000000000000000009077090001674800000000000000000000000010002100011262147157600000000002            2  01112621471509071700000002511550000000001N010717000000000000000000000000000000000000000000000000000000000000000100099740451853ARNALDO DA SILVA SALES                  RUA ALEGRE - 210 - VILA SAO RAFAEL - GUA            07053100                                                            000002
2SR. CAIXA, APOS O VENCIMENTO COBRAR 10% DE MULTA                                NAO RECEBER APOS 30 DIAS DO VENCIMENTO.                                                                                                                                                                                                         01071700000000000000107170000000000000       0090770900016748112621471576000003
100000000000000000000009077090001674800000000000000000000000010002100011491148160800000000002            2  01114911481609071700000004051370000000001N010717000000000000000000000000000000000000000000000000000000000000000100044380725812FERNANDO FIRMINO DOS SANTOS             RUA BARAO GERALDO DE RESENDE - 401 - BAI            05205220                                                            000005
2SR. CAIXA, APOS O VENCIMENTO COBRAR 10% DE MULTA                                NAO RECEBER APOS 30 DIAS DO VENCIMENTO.                                                                                                                                                                                                         01071700000000000000107170000000000000       0090770900016748114911481608000006
100000000000000000000009077090001674800000000000000000000000010002100012611155171100000000002            2  01126111551709071700000001261110000000001N010717000000000000000000000000000000000000000000000000000000000000000100025469470873JULIA MARIA RODRIGUES MARTINS           AVENIDA JOAO FIRMINO - 1229 AP.21 - BAIR            09810260                                                            000008
2SR. CAIXA, APOS O VENCIMENTO COBRAR 10% DE MULTA                                NAO RECEBER APOS 30 DIAS DO VENCIMENTO.                                                                                                                                                                                                         01071700000000000000107170000000000000       0090770900016748126111551711000009
100000000000000000000009077090001674800000000000000000000000010002100012793156173400000000002            2  01127931561709071700000001916990000000001N010717000000000000000000000000000000000000000000000000000000000000000100027396176824WALDINEA BORGES DIAS                    RUA CAP. JOAQUIM F.PEREIRA - 95 - JARDIM            13710000                                                            000011
2SR. CAIXA, APOS O VENCIMENTO COBRAR 10% DE MULTA                                NAO RECEBER APOS 30 DIAS DO VENCIMENTO.                                                                                                                                                                                                         01071700000000000000107170000000000000       0090770900016748127931561734000012
100000000000000000000009077090001674800000000000000000000000010002100012895157174000000000002            2  01128951571709071700000003053280000000001N010717000000000000000000000000000000000000000000000000000000000000000100004759534873AGNALDO PORFIRIO DOS SANTOS             RUA JUVENCIO GASPAR DA SILVA - 35 - SAO             04303060                                                            000014
2SR. CAIXA, APOS O VENCIMENTO COBRAR 10% DE MULTA                                NAO RECEBER APOS 30 DIAS DO VENCIMENTO.                                                                                                                                                                                                         01071700000000000000107170000000000000       0090770900016748128951571740000015
100000000000000000000009077090001674800000000000000000000000010002100013116159177700000000002            2  01131161591709071700000001645440000000001N010717000000000000000000000000000000000000000000000000000000000000000100014924049859KATIA REGINA DE OLIVEIRA SILVA          RUA ANTONIO SIMIONATO - 73 AP.14 - SANTA            09780180                                                            000017
2SR. CAIXA, APOS O VENCIMENTO COBRAR 10% DE MULTA                                NAO RECEBER APOS 30 DIAS DO VENCIMENTO.                                                                                                                                                                                                         01071700000000000000107170000000000000       0090770900016748131161591777000018
100000000000000000000009077090001674800000000000000000000000010002100013216160178700000000002            2  01132161601709071700000000962590000000001N010717000000000000000000000000000000000000000000000000000000000000000100090830490868IVONETE FERNANDES                       AVENIDA FREDERICO OZANAN - 5504 - VILA R            13215276                                                            000020
2SR. CAIXA, APOS O VENCIMENTO COBRAR 10% DE MULTA                                NAO RECEBER APOS 30 DIAS DO VENCIMENTO.                                                                                                                                                                                                         01071700000000000000107170000000000000       0090770900016748132161601787000021
100000000000000000000009077090001674800000000000000000000000010002100013537163184P00000000002            2  01135371631809071700000002386250000000001N010717000000000000000000000000000000000000000000000000000000000000000100027093944809DAVID ALEXANDRE XAVIER ROCHA            RUA MONTE CASTELO - 296 AP.54 - AVIACAO             11702720                                                            000023
2SR. CAIXA, APOS O VENCIMENTO COBRAR 10% DE MULTA                                NAO RECEBER APOS 30 DIAS DO VENCIMENTO.                                                                                                                                                                                                         01071700000000000000107170000000000000       009077090001674813537163184P000024
100000000000000000000009077090001674800000000000000000000000010002100013705164186600000000002            2  01137051641809071700000001737030000000001N010717000000000000000000000000000000000000000000000000000000000000000100068273290891DERNEVAL JOSE MUNIZ                     RUA MARTINOPOLIS - 98 - JARDIM OTAWA - G            07230230                                                            000026
2SR. CAIXA, APOS O VENCIMENTO COBRAR 10% DE MULTA                                NAO RECEBER APOS 30 DIAS DO VENCIMENTO.                                                                                                                                                                                                         01071700000000000000107170000000000000       0090770900016748137051641866000027
100000000000000000000009077090001674800000000000000000000000010002100013980166189100000000002            2  01139801661809071700000001484490000000001N010717000000000000000000000000000000000000000000000000000000000000000100001817534807SANTINA SALVINA SOARES                  RUA CAIAPOS - 1066 AP.43 - VILA TUPI - P            11703320                                                            000029
2SR. CAIXA, APOS O VENCIMENTO COBRAR 10% DE MULTA                                NAO RECEBER APOS 30 DIAS DO VENCIMENTO.                                                                                                                                                                                                         01071700000000000000107170000000000000       0090770900016748139801661891000030
100000000000000000000009077090001674800000000000000000000000010002100014081167190700000000002            2  01140811671909071700000001603750000000001N010717000000000000000000000000000000000000000000000000000000000000000100086755790800GERALDO JAIR BROGLIATTO                 DR.ARMANDO COSTA MAGALHAES - 176 - VILA             13270490                                                            000032
2SR. CAIXA, APOS O VENCIMENTO COBRAR 10% DE MULTA                                NAO RECEBER APOS 30 DIAS DO VENCIMENTO.                                                                                                                                                                                                         01071700000000000000107170000000000000       0090770900016748140811671907000033
100000000000000000000009077090001674800000000000000000000000010002100014419169196700000000002            2  01144191691911071700000001800000000000001N010717000000000000000000000000000000000000000000000000000000000000000100013191291881MARCELO RICARDO MASCAROS SOUTO          RUA MONTE CASTELO - 295 AP.102 - AVIACAO            11702720                                                            000035
2SR. CAIXA, APOS O VENCIMENTO COBRAR 10% DE MULTA                                NAO RECEBER APOS 30 DIAS DO VENCIMENTO.                                                                                                                                                                                                         01071700000000000000107170000000000000       0090770900016748144191691967000036
100000000000000000000009077090001674800000000000000000000000010002100014451170197400000000002            2  01144511701909071700000001593130000000001N010717000000000000000000000000000000000000000000000000000000000000000100007996062862HENRIQUE SALVADOR                       RUA DARDANELOS - 689 - PARQUE NOVO ORATO            09260060                                                            000038
2SR. CAIXA, APOS O VENCIMENTO COBRAR 10% DE MULTA                                NAO RECEBER APOS 30 DIAS DO VENCIMENTO.                                                                                                                                                                                                         01071700000000000000107170000000000000       0090770900016748144511701974000039
100000000000000000000009077090001674800000000000000000000000010002100014536171198000000000002            2  01145361711909071700000001219590000000001N010717000000000000000000000000000000000000000000000000000000000000000100004899735820INES CONCEICAO VIEIRA GADI ERMIDA       AVENIDA ANTONIO RICARDO DA SILVA - 77 -             08270560                                                            000041
2SR. CAIXA, APOS O VENCIMENTO COBRAR 10% DE MULTA                                NAO RECEBER APOS 30 DIAS DO VENCIMENTO.                                                                                                                                                                                                         01071700000000000000107170000000000000       0090770900016748145361711980000042
100000000000000000000009077090001674800000000000000000000000010002100014657172199300000000002            2  01146571721909071700000002134280000000001N010717000000000000000000000000000000000000000000000000000000000000000100010066071534MOISES ROQUE DO ROSARIO                 RUA DAS PAPOULAS - 53 - VILA BELA - SAO             03202010                                                            000044
2SR. CAIXA, APOS O VENCIMENTO COBRAR 10% DE MULTA                                NAO RECEBER APOS 30 DIAS DO VENCIMENTO.                                                                                                                                                                                                         01071700000000000000107170000000000000       0090770900016748146571721993000045
100000000000000000000009077090001674800000000000000000000000010002100014878173201P00000000002            2  01148781732009071700000002435320000000001N010717000000000000000000000000000000000000000000000000000000000000000100085910031872SERGIO NOGUEIRA                         RUA CARLOS ALBERTO BIANCHIM - 102 - JARD            13273063                                                            000047
2SR. CAIXA, APOS O VENCIMENTO COBRAR 10% DE MULTA                                NAO RECEBER APOS 30 DIAS DO VENCIMENTO.                                                                                                                                                                                                         01071700000000000000107170000000000000       009077090001674814878173201P000048
9                                                                                                                                                                                                                                                                                                                                                                                                         000049