01REMESSA01COBRANCA       00000000000004991788AIRES DESENVOLVIMENTO IMOBILIA237BRADESCO       010918        MX0000136                                                                                                                                                                                                                                                                                     000001
100000000000000000000009077090011897400000000000000000000000010002100031000709181P00000000002            2  01310007091810091800000002740110000000001N010918000000000000000000000000000000000000000000000000000000000000000100031000769828ANDREIA CARLA SOUSA                     RUA JOSE CALIXTO DO CARMO - 265 AP.73 -             11702690                                                            000002
2SR. CAIXA, APOS O VENCIMENTO COBRAR 10% DE MULTA                                NAO RECEBER APOS 30 DIAS DO VENCIMENTO.                                                                                                                                                                                                         01091800000000000000109180000000000000       009077090011897431000709181P000003
100000000000000000000009077090011897400000000000000000000000010002100012708309181100000000002            2  01127083091810091800000001593860000000001N010918000000000000000000000000000000000000000000000000000000000000000100012708342827ADRIANA RATIER CRUZ                     RUA JOSE CALIXTO DO CARMO - 295 APTO 31             11702690                                                            000005
2SR. CAIXA, APOS O VENCIMENTO COBRAR 10% DE MULTA                                NAO RECEBER APOS 30 DIAS DO VENCIMENTO.                                                                                                                                                                                                         01091800000000000000109180000000000000       0090770900118974127083091811000006
100000000000000000000009077090011897400000000000000000000000010002100000452409181800000000002            2  01004524091810091800000001291770000000001N010918000000000000000000000000000000000000000000000000000000000000000100000452415896MARILUCE SANTOS DE ALMEIDA              RUA JOSE CALIXTO DO CARMO - 295 AP.74 -             11702690                                                            000008
2SR. CAIXA, APOS O VENCIMENTO COBRAR 10% DE MULTA                                NAO RECEBER APOS 30 DIAS DO VENCIMENTO.                                                                                                                                                                                                         01091800000000000000109180000000000000       0090770900118974004524091818000009
100000000000000000000009077090011897400000000000000000000000010002100003406909181900000000002            2  01034069091809091800000001427380000000001N010918000000000000000000000000000000000000000000000000000000000000000100003406972888RONALDO CANDIDO PANSONATO               AV. DOM JAIME DE BARROS CAMERA - 565 AP.            09895400                                                            000011
2SR. CAIXA, APOS O VENCIMENTO COBRAR 10% DE MULTA                                NAO RECEBER APOS 30 DIAS DO VENCIMENTO.                                                                                                                                                                                                         01091800000000000000109180000000000000       0090770900118974034069091819000012
100000000000000000000009077090011897400000000000000000000000010002100028379809181000000000002            2  01283798091801091800000003428970000000001N010918000000000000000000000000000000000000000000000000000000000000000100028379879805EDMILSON DANIEL GARCIA WATANUKI         AV.PRESIDENTE CASTELO BRANCO - 4718 LOJA            11702700                                                            000014
2SR. CAIXA, APOS O VENCIMENTO COBRAR 10% DE MULTA                                NAO RECEBER APOS 30 DIAS DO VENCIMENTO.                                                                                                                                                                                                         01091800000000000000109180000000000000       0090770900118974283798091810000015
100000000000000000000009077090011897400000000000000000000000010002100039262509181900000000002            2  01392625091811091800000001600000000000001N010918000000000000000000000000000000000000000000000000000000000000000100039262563892DAVID AUGUSTO DOS SANTOS                RUA CONSELHEIRO ELIAS DE CARVALHO - 50 A            04373000                                                            000017
2SR. CAIXA, APOS O VENCIMENTO COBRAR 10% DE MULTA                                NAO RECEBER APOS 30 DIAS DO VENCIMENTO.                                                                                                                                                                                                         01091800000000000000109180000000000000       0090770900118974392625091819000018
9                                                                                                                                                                                                                                                                                                                                                                                                         000019