01REMESSA01COBRANCA       00000000000004991454AIRES CONSTRUTORA E INCORPORAD237BRADESCO       010118        MX0000097                                                                                                                                                                                                                                                                                     000001
100000000000000000000009077090001674800000000000000000000000010002100099740401181P00000000002            2  01997404011809011800000002628680000000001N010118000000000000000000000000000000000000000000000000000000000000000100099740451853ARNALDO DA SILVA SALES                  RUA ALEGRE - 210 - VILA SAO RAFAEL - GUA            07053100                                                            000002
2SR. CAIXA, APOS O VENCIMENTO COBRAR 10% DE MULTA                                NAO RECEBER APOS 30 DIAS DO VENCIMENTO.                                                                                                                                                                                                         01011800000000000000101180000000000000       009077090001674899740401181P000003
100000000000000000000009077090001674800000000000000000000000010002100049736701181P00000000002            2  01497367011809011800000001595080000000001N010118000000000000000000000000000000000000000000000000000000000000000100049736787320RAIMUNDO VIEIRA DA SILVA                RUA BOLIVIA - 81 AP.ZELADORIA - JARDIM G            11701850                                                            000005
2SR. CAIXA, APOS O VENCIMENTO COBRAR 10% DE MULTA                                NAO RECEBER APOS 30 DIAS DO VENCIMENTO.                                                                                                                                                                                                         01011800000000000000101180000000000000       009077090001674849736701181P000006
100000000000000000000009077090001674800000000000000000000000010002100044380701181400000000002            2  01443807011809011800000004240330000000001N010118000000000000000000000000000000000000000000000000000000000000000100044380725812FERNANDO FIRMINO DOS SANTOS             RUA BARAO GERALDO DE RESENDE - 401 - BAI            05205220                                                            000008
2SR. CAIXA, APOS O VENCIMENTO COBRAR 10% DE MULTA                                NAO RECEBER APOS 30 DIAS DO VENCIMENTO.                                                                                                                                                                                                         01011800000000000000101180000000000000       0090770900016748443807011814000009
100000000000000000000009077090001674800000000000000000000000010002100025469401181500000000002            2  01254694011809011800000001319930000000001N010118000000000000000000000000000000000000000000000000000000000000000100025469470873JULIA MARIA RODRIGUES MARTINS           AVENIDA JOAO FIRMINO - 1229 AP.21 - BAIR            09810260                                                            000011
2SR. CAIXA, APOS O VENCIMENTO COBRAR 10% DE MULTA                                NAO RECEBER APOS 30 DIAS DO VENCIMENTO.                                                                                                                                                                                                         01011800000000000000101180000000000000       0090770900016748254694011815000012
100000000000000000000009077090001674800000000000000000000000010002100027396101181600000000002            2  01273961011809011800000002006390000000001N010118000000000000000000000000000000000000000000000000000000000000000100027396176824WALDINEA BORGES DIAS                    RUA CAP. JOAQUIM F.PEREIRA - 95 - JARDIM            13710000                                                            000014
2SR. CAIXA, APOS O VENCIMENTO COBRAR 10% DE MULTA                                NAO RECEBER APOS 30 DIAS DO VENCIMENTO.                                                                                                                                                                                                         01011800000000000000101180000000000000       0090770900016748273961011816000015
100000000000000000000009077090001674800000000000000000000000010002100004759501181600000000002            2  01047595011809011800000003195680000000001N010118000000000000000000000000000000000000000000000000000000000000000100004759534873AGNALDO PORFIRIO DOS SANTOS             RUA JUVENCIO GASPAR DA SILVA - 35 - SAO             04303060                                                            000017
2SR. CAIXA, APOS O VENCIMENTO COBRAR 10% DE MULTA                                NAO RECEBER APOS 30 DIAS DO VENCIMENTO.                                                                                                                                                                                                         01011800000000000000101180000000000000       0090770900016748047595011816000018
100000000000000000000009077090001674800000000000000000000000010002100014924001181200000000002            2  01149240011809011800000009296510000000001N010118000000000000000000000000000000000000000000000000000000000000000100014924049859KATIA REGINA DE OLIVEIRA SILVA          RUA ANTONIO SIMIONATO - 73 AP.14 - SANTA            09780180                                                            000020
2SR. CAIXA, APOS O VENCIMENTO COBRAR 10% DE MULTA                                NAO RECEBER APOS 30 DIAS DO VENCIMENTO.                                                                                                                                                                                                         01011800000000000000101180000000000000       0090770900016748149240011812000021
100000000000000000000009077090001674800000000000000000000000010002100014924001182000000000002            2  01149240011809011800000001722180000000001N010118000000000000000000000000000000000000000000000000000000000000000100014924049859KATIA REGINA DE OLIVEIRA SILVA          RUA ANTONIO SIMIONATO - 73 AP.14 - SANTA            09780180                                                            000023
2SR. CAIXA, APOS O VENCIMENTO COBRAR 10% DE MULTA                                NAO RECEBER APOS 30 DIAS DO VENCIMENTO.                                                                                                                                                                                                         01011800000000000000101180000000000000       0090770900016748149240011820000024
100000000000000000000009077090001674800000000000000000000000010002100090830401181P00000000002            2  01908304011809011800000001007470000000001N010118000000000000000000000000000000000000000000000000000000000000000100090830490868IVONETE FERNANDES                       AVENIDA FREDERICO OZANAN - 5504 - VILA R            13215276                                                            000026
2SR. CAIXA, APOS O VENCIMENTO COBRAR 10% DE MULTA                                NAO RECEBER APOS 30 DIAS DO VENCIMENTO.                                                                                                                                                                                                         01011800000000000000101180000000000000       009077090001674890830401181P000027
100000000000000000000009077090001674800000000000000000000000010002100027093901181100000000002            2  01270939011809011800000002497540000000001N010118000000000000000000000000000000000000000000000000000000000000000100027093944809DAVID ALEXANDRE XAVIER ROCHA            RUA MONTE CASTELO - 296 AP.54 - AVIACAO             11702720                                                            000029
2SR. CAIXA, APOS O VENCIMENTO COBRAR 10% DE MULTA                                NAO RECEBER APOS 30 DIAS DO VENCIMENTO.                                                                                                                                                                                                         01011800000000000000101180000000000000       0090770900016748270939011811000030
100000000000000000000009077090001674800000000000000000000000010002100068273201181800000000002            2  01682732011809011800000001818030000000001N010118000000000000000000000000000000000000000000000000000000000000000100068273290891DERNEVAL JOSE MUNIZ                     RUA MARTINOPOLIS - 98 - JARDIM OTAWA - G            07230230                                                            000032
2SR. CAIXA, APOS O VENCIMENTO COBRAR 10% DE MULTA                                NAO RECEBER APOS 30 DIAS DO VENCIMENTO.                                                                                                                                                                                                         01011800000000000000101180000000000000       0090770900016748682732011818000033
100000000000000000000009077090001674800000000000000000000000010002100001817501181000000000002            2  01018175011809011800000001553720000000001N010118000000000000000000000000000000000000000000000000000000000000000100001817534807SANTINA SALVINA SOARES                  RUA CAIAPOS - 1066 AP.43 - VILA TUPI - P            11703320                                                            000035
2SR. CAIXA, APOS O VENCIMENTO COBRAR 10% DE MULTA                                NAO RECEBER APOS 30 DIAS DO VENCIMENTO.                                                                                                                                                                                                         01011800000000000000101180000000000000       0090770900016748018175011810000036
100000000000000000000009077090001674800000000000000000000000010002100086755701181800000000002            2  01867557011809011800000001678550000000001N010118000000000000000000000000000000000000000000000000000000000000000100086755790800GERALDO JAIR BROGLIATTO                 DR.ARMANDO COSTA MAGALHAES - 176 - VILA             13270490                                                            000038
2SR. CAIXA, APOS O VENCIMENTO COBRAR 10% DE MULTA                                NAO RECEBER APOS 30 DIAS DO VENCIMENTO.                                                                                                                                                                                                         01011800000000000000101180000000000000       0090770900016748867557011818000039
100000000000000000000009077090001674800000000000000000000000010002100013191201181P00000000002            2  01131912011811011800000001800000000000001N010118000000000000000000000000000000000000000000000000000000000000000100013191291881MARCELO RICARDO MASCAROS SOUTO          RUA MONTE CASTELO - 295 AP.102 - AVIACAO            11702720                                                            000041
2SR. CAIXA, APOS O VENCIMENTO COBRAR 10% DE MULTA                                NAO RECEBER APOS 30 DIAS DO VENCIMENTO.                                                                                                                                                                                                         01011800000000000000101180000000000000       009077090001674813191201181P000042
100000000000000000000009077090001674800000000000000000000000010002100007996001181100000000002            2  01079960011809011800000001667440000000001N010118000000000000000000000000000000000000000000000000000000000000000100007996062862HENRIQUE SALVADOR                       RUA DARDANELOS - 689 - PARQUE NOVO ORATO            09260060                                                            000044
2SR. CAIXA, APOS O VENCIMENTO COBRAR 10% DE MULTA                                NAO RECEBER APOS 30 DIAS DO VENCIMENTO.                                                                                                                                                                                                         01011800000000000000101180000000000000       0090770900016748079960011811000045
100000000000000000000009077090001674800000000000000000000000010002100010066001181900000000002            2  01100660011809011800000002233830000000001N010118000000000000000000000000000000000000000000000000000000000000000100010066071534MOISES ROQUE DO ROSARIO                 RUA DAS PAPOULAS - 53 - VILA BELA - SAO             03202010                                                            000047
2SR. CAIXA, APOS O VENCIMENTO COBRAR 10% DE MULTA                                NAO RECEBER APOS 30 DIAS DO VENCIMENTO.                                                                                                                                                                                                         01011800000000000000101180000000000000       0090770900016748100660011819000048
100000000000000000000009077090001674800000000000000000000000010002100085910001181P00000000002            2  01859100011809011800000002548880000000001N010118000000000000000000000000000000000000000000000000000000000000000100085910031872SERGIO NOGUEIRA                         RUA MONTE CASTELO - 262 AP.55 - AVIACAO             11702720                                                            000050
2SR. CAIXA, APOS O VENCIMENTO COBRAR 10% DE MULTA                                NAO RECEBER APOS 30 DIAS DO VENCIMENTO.                                                                                                                                                                                                         01011800000000000000101180000000000000       009077090001674885910001181P000051
100000000000000000000009077090001674800000000000000000000000010002100000746801181300000000002            2  01007468011809011800000005151690000000001N010118000000000000000000000000000000000000000000000000000000000000000100000746845820ANTONIO CARLOS DE MELLO                 RUA CONGO - 118 - PARQUE MONTE ALEGRE -             06756270                                                            000053
2SR. CAIXA, APOS O VENCIMENTO COBRAR 10% DE MULTA                                NAO RECEBER APOS 30 DIAS DO VENCIMENTO.                                                                                                                                                                                                         01011800000000000000101180000000000000       0090770900016748007468011813000054
100000000000000000000009077090001674800000000000000000000000010002100000746801182100000000002            2  01007468011809011800000002060680000000001N010118000000000000000000000000000000000000000000000000000000000000000100000746845820ANTONIO CARLOS DE MELLO                 RUA CONGO - 118 - PARQUE MONTE ALEGRE -             06756270                                                            000056
2SR. CAIXA, APOS O VENCIMENTO COBRAR 10% DE MULTA                                NAO RECEBER APOS 30 DIAS DO VENCIMENTO.                                                                                                                                                                                                         01011800000000000000101180000000000000       0090770900016748007468011821000057
100000000000000000000009077090001674800000000000000000000000010002100028196101181900000000002            2  01281961011809011800000001483870000000001N010118000000000000000000000000000000000000000000000000000000000000000100028196184808VANESSA NOGUEIRA CAMBUI DA SILVA        CRISTOVAO COLOMBO - 217 - VILA AMERICA -            09110160                                                            000059
2SR. CAIXA, APOS O VENCIMENTO COBRAR 10% DE MULTA                                NAO RECEBER APOS 30 DIAS DO VENCIMENTO.                                                                                                                                                                                                         01011800000000000000101180000000000000       0090770900016748281961011819000060
100000000000000000000009077090001674800000000000000000000000010002100049730801181400000000002            2  01497308011809011800000001218070000000001N010118000000000000000000000000000000000000000000000000000000000000000100049730835420PEDRO LUIZ DO BOM FIM FILHO             RUA NASCER DO SOL - 91 - BAIRRO PIRAPORI            09951475                                                            000062
2SR. CAIXA, APOS O VENCIMENTO COBRAR 10% DE MULTA                                NAO RECEBER APOS 30 DIAS DO VENCIMENTO.                                                                                                                                                                                                         01011800000000000000101180000000000000       0090770900016748497308011814000063
100000000000000000000009077090001674800000000000000000000000010002100027067001181P00000000002            2  01270670011809011800000001511250000000001N010118000000000000000000000000000000000000000000000000000000000000000100027067002893MARCIA NASCIMENTO DE MORAES             RUA MONTE CASTELO - 296 AP.11 - AVIACAO             11702720                                                            000065
2SR. CAIXA, APOS O VENCIMENTO COBRAR 10% DE MULTA                                NAO RECEBER APOS 30 DIAS DO VENCIMENTO.                                                                                                                                                                                                         01011800000000000000101180000000000000       009077090001674827067001181P000066
100000000000000000000009077090001674800000000000000000000000010002100029238201181700000000002            2  01292382011809011800000001511250000000001N010118000000000000000000000000000000000000000000000000000000000000000100029238280894JURACY DA SILVA                         RUA JACARATINGA - 192 - JARDIM PIRAJUCAR            05786120                                                            000068
2SR. CAIXA, APOS O VENCIMENTO COBRAR 10% DE MULTA                                NAO RECEBER APOS 30 DIAS DO VENCIMENTO.                                                                                                                                                                                                         01011800000000000000101180000000000000       0090770900016748292382011817000069
9                                                                                                                                                                                                                                                                                                                                                                                                         000070