01REMESSA01COBRANCA       00000000000004991788AIRES DESENVOLVIMENTO IMOBILIA237BRADESCO       011017        MX0000112                                                                                                                                                                                                                                                                                     000001
100000000000000000000009077090011897400000000000000000000000010002100000000196182100000000002            2  01000019618210101700000002374890000000001N011017000000000000000000000000000000000000000000000000000000000000000100021570843805RODRIGO LESSANDRO FREGATE               RUA JOSE PEDRO DORO - 451 BLOCO RIO GRAN            02880010                                                            000002
2SR. CAIXA, APOS O VENCIMENTO COBRAR 10% DE MULTA                                NAO RECEBER APOS 30 DIAS DO VENCIMENTO.                                                                                                                                                                                                         01101700000000000000110170000000000000       0090770900118974000001961821000003
100000000000000000000009077090011897400000000000000000000000010002100000055738375400000000002            2  01005573837510101700000002316160000000001N011017000000000000000000000000000000000000000000000000000000000000000100007456836817REGINA CELIA RONDELLI                   RUA CANANEIA - 168 APTO 134 BL.C2 - SANT            09060480                                                            000005
2SR. CAIXA, APOS O VENCIMENTO COBRAR 10% DE MULTA                                NAO RECEBER APOS 30 DIAS DO VENCIMENTO.                                                                                                                                                                                                         01101700000000000000110170000000000000       0090770900118974000557383754000006
100000000000000000000009077090011897400000000000000000000000010002100000057888478800000000002            2  01005788847810101700000002726820000000001N011017000000000000000000000000000000000000000000000000000000000000000100007508759842LAERCIO DA CRUZ FERREIRA                RUA JOSE BENEDITO SALINAS - 110 APTO 161            04674200                                                            000008
2SR. CAIXA, APOS O VENCIMENTO COBRAR 10% DE MULTA                                NAO RECEBER APOS 30 DIAS DO VENCIMENTO.                                                                                                                                                                                                         01101700000000000000110170000000000000       0090770900118974000578884788000009
100000000000000000000009077090011897400000000000000000000000010002100000061598882300000000002            2  01006159888210101700000002463380000000001N011017000000000000000000000000000000000000000000000000000000000000000100010653257899MARCIO DE SOUZA AZEVEDO                 RUA CASABLANCA - 105 - PARQUE MONTE ALEG            06756400                                                            000011
2SR. CAIXA, APOS O VENCIMENTO COBRAR 10% DE MULTA                                NAO RECEBER APOS 30 DIAS DO VENCIMENTO.                                                                                                                                                                                                         01101700000000000000110170000000000000       0090770900118974000615988823000012
100000000000000000000009077090011897400000000000000000000000010002100000062518983P00000000002            2  01006251898310101700000002452430000000001N011017000000000000000000000000000000000000000000000000000000000000000100068006292868FRANCISCO VIEIRA SOUSA                  RUA SERRA DA CANTAREIRA - 104 - JARDIM E            06413090                                                            000014
2SR. CAIXA, APOS O VENCIMENTO COBRAR 10% DE MULTA                                NAO RECEBER APOS 30 DIAS DO VENCIMENTO.                                                                                                                                                                                                         01101700000000000000110170000000000000       009077090011897400062518983P000015
100000000000000000000009077090011897400000000000000000000000010002100000070609792100000000002            2  01007060979210101700000002919470000000001N011017000000000000000000000000000000000000000000000000000000000000000100022288772808FERNANDA TAVARES MASANO                 RUA JOSE CALIXTO DO CARMO - 265 AP. 124             11702690                                                            000017
2SR. CAIXA, APOS O VENCIMENTO COBRAR 10% DE MULTA                                NAO RECEBER APOS 30 DIAS DO VENCIMENTO.                                                                                                                                                                                                         01101700000000000000110170000000000000       0090770900118974000706097921000018
100000000000000000000009077090011897400000000000000000000000010002100000761910298000000000002            2  01076191029810101700000002726270000000001N011017000000000000000000000000000000000000000000000000000000000000000100032223890806ELISANGELA CAMARGO BRAGA                RUA JOSE CALIXTO DO CARMO - 265 AP.24 -             11702690                                                            000020
2SR. CAIXA, APOS O VENCIMENTO COBRAR 10% DE MULTA                                NAO RECEBER APOS 30 DIAS DO VENCIMENTO.                                                                                                                                                                                                         01101700000000000000110170000000000000       0090770900118974007619102980000021
100000000000000000000009077090011897400000000000000000000000010002100007869105101500000000002            2  01786910510110101700000002612160000000001N011017000000000000000000000000000000000000000000000000000000000000000100010177135883VERONICA DE LIMA SANTOS                 RUA ARAGAO - 1099 - TUCURUVI - SAO PAULO            02308001                                                            000023
2SR. CAIXA, APOS O VENCIMENTO COBRAR 10% DE MULTA                                NAO RECEBER APOS 30 DIAS DO VENCIMENTO.                                                                                                                                                                                                         01101700000000000000110170000000000000       0090770900118974078691051015000024
100000000000000000000009077090011897400000000000000000000000010002100008576113109300000000002            2  01857611310910101700000002593840000000001N011017000000000000000000000000000000000000000000000000000000000000000100031000769828ANDREIA CARLA SOUSA                     RUA JOSE CALIXTO DO CARMO - 265 AP.73 -             11702690                                                            000026
2SR. CAIXA, APOS O VENCIMENTO COBRAR 10% DE MULTA                                NAO RECEBER APOS 30 DIAS DO VENCIMENTO.                                                                                                                                                                                                         01101700000000000000110170000000000000       0090770900118974085761131093000027
100000000000000000000009077090011897400000000000000000000000010002100008752115111100000000002            2  01875211511110101700000003304010000000001N011017000000000000000000000000000000000000000000000000000000000000000100027324650899LUCIANO MARTINEZ                        RUA MORGADO DE MATEUS - 473 - VILA MARIA            04015051                                                            000029
2SR. CAIXA, APOS O VENCIMENTO COBRAR 10% DE MULTA                                NAO RECEBER APOS 30 DIAS DO VENCIMENTO.                                                                                                                                                                                                         01101700000000000000110170000000000000       0090770900118974087521151111000030
100000000000000000000009077090011897400000000000000000000000010002100009929129127800000000002            2  01992912912710101700000002306070000000001N011017000000000000000000000000000000000000000000000000000000000000000100005253129863ADILSON JOSE BORGES                     RUA CIRIACO JIMENEZ - 83 - PARQUE NACOES            02996070                                                            000032
2SR. CAIXA, APOS O VENCIMENTO COBRAR 10% DE MULTA                                NAO RECEBER APOS 30 DIAS DO VENCIMENTO.                                                                                                                                                                                                         01101700000000000000110170000000000000       0090770900118974099291291278000033
100000000000000000000009077090011897400000000000000000000000010002100010331136134800000000002            2  01103311361310101700000002436680000000001N011017000000000000000000000000000000000000000000000000000000000000000100003996827830RONALDO PINTO BORGES                    MAGNOLIA DELFIM DA SILVA - 44 - JARDIM O            05363040                                                            000035
2SR. CAIXA, APOS O VENCIMENTO COBRAR 10% DE MULTA                                NAO RECEBER APOS 30 DIAS DO VENCIMENTO.                                                                                                                                                                                                         01101700000000000000110170000000000000       0090770900118974103311361348000036
100000000000000000000009077090011897400000000000000000000000010002100010882143149000000000002            2  01108821431410101700000001222810000000001N011017000000000000000000000000000000000000000000000000000000000000000100000452415896MARILUCE SANTOS DE ALMEIDA              RUA JOSE CALIXTO DO CARMO - 295 AP.74 -             11702690                                                            000038
2SR. CAIXA, APOS O VENCIMENTO COBRAR 10% DE MULTA                                NAO RECEBER APOS 30 DIAS DO VENCIMENTO.                                                                                                                                                                                                         01101700000000000000110170000000000000       0090770900118974108821431490000039
100000000000000000000009077090011897400000000000000000000000010002100015540127207700000000002            2  01155401272001101700000003425810000000001N011017000000000000000000000000000000000000000000000000000000000000000100028379879805EDMILSON DANIEL GARCIA WATANUKI         AVENIDA PRESIDENTE CASTELO BRANCO - 4718            11702700                                                            000041
2SR. CAIXA, APOS O VENCIMENTO COBRAR 10% DE MULTA                                NAO RECEBER APOS 30 DIAS DO VENCIMENTO.                                                                                                                                                                                                         01101700000000000000110170000000000000       0090770900118974155401272077000042
100000000000000000000009077090011897400000000000000000000000010002100016121146214700000000002            2  01161211462111101700000001563110000000001N011017000000000000000000000000000000000000000000000000000000000000000100037491305822NATASHA SILVEIRA DA SILVA               RUA CONSELHEIRO ELIAS DE CARVALHO - 50 A            04373000                                                            000044
2SR. CAIXA, APOS O VENCIMENTO COBRAR 10% DE MULTA                                NAO RECEBER APOS 30 DIAS DO VENCIMENTO.                                                                                                                                                                                                         01101700000000000000110170000000000000       0090770900118974161211462147000045
100000000000000000000009077090011897400000000000000000000000010002100016133140215600000000002            2  01161331402105101700000001526270000000001N011017000000000000000000000000000000000000000000000000000000000000000100019851254800DOUGLAS TADEU DE ALMEIDA JECKS          RUA CONSELHEIRO ELIAS DE CARVALHO - 50 A            04373000                                                            000047
2SR. CAIXA, APOS O VENCIMENTO COBRAR 10% DE MULTA                                NAO RECEBER APOS 30 DIAS DO VENCIMENTO.                                                                                                                                                                                                         01101700000000000000110170000000000000       0090770900118974161331402156000048
9                                                                                                                                                                                                                                                                                                                                                                                                         000049