01REMESSA01COBRANCA       00000000000004991786AIRES DESENVOLVIMENTO IMOBILIA237BRADESCO       130217        MX0000070                                                                                                                                                                                                                                                                                     000001
100000000000000000000009077090011102300000000000000000000000010002100000055668375400000000002            2  01005566837517021700000008876400000000099N130217000000000000000000000000000000000000000000000000000000000000000100007456836817REGINA CELIA RONDELLI                   RUA CANANEIA - 168 APTO 134 BL.C2 - SANT            09060480                                                            000002
2SR. CAIXA, APOS O VENCIMENTO COBRAR 10% DE MULTA                                NAO RECEBER APOS 30 DIAS DO VENCIMENTO.                                                                                                                                                                                                         13021700000000000001302170000000000000       0090770900111023000556683754000003
9                                                                                                                                                                                                                                                                                                                                                                                                         000004