01REMESSA01COBRANCA       00000000000004991454AIRES CONSTRUTORA E INCORPORAD237BRADESCO       150119        MX0000124                                                                                                                                                                                                                                                                                     000001
100000000000000000000009077090001674800000000000000000000000010002100049736701192500000000002            2  01497367011924011900000001431880000000001N100119000000000000000000000000000000000000000000000000000000000000000100049736787320RAIMUNDO VIEIRA DA SILVA                RUA BOLIVIA - 81 AP.ZELADORIA - JARDIM G            11701850                                                            000002
2SR. CAIXA, APOS O VENCIMENTO COBRAR 10% DE MULTA                                NAO RECEBER APOS 30 DIAS DO VENCIMENTO.                                                                                                                                                                                                         15011900000000000001501190000000000000       0090770900016748497367011925000003
100000000000000000000009077090001674800000000000000000000000010002100068806201191700000000002            2  01688062011924011900000001270790000000001N100119000000000000000000000000000000000000000000000000000000000000000100068806272853FATIMA MOREIRA SALOMAO                  RUA TORQUATO DE CAMILLO - 84 - CARANDA B            79032031                                                            000005
2SR. CAIXA, APOS O VENCIMENTO COBRAR 10% DE MULTA                                NAO RECEBER APOS 30 DIAS DO VENCIMENTO.                                                                                                                                                                                                         15011900000000000001501190000000000000       0090770900016748688062011917000006
100000000000000000000009077090001674800000000000000000000000010002100004201601191300000000002            2  01042016011924011900000001845660000000001N100119000000000000000000000000000000000000000000000000000000000000000100004201640817SANDRA APARECIDA TOJAL                  AVENIDA MASCOTE - 81 AP.132 BL.A - VILA             04363000                                                            000008
2SR. CAIXA, APOS O VENCIMENTO COBRAR 10% DE MULTA                                NAO RECEBER APOS 30 DIAS DO VENCIMENTO.                                                                                                                                                                                                         15011900000000000001501190000000000000       0090770900016748042016011913000009
100000000000000000000009077090001674800000000000000000000000010002100025278901191700000000002            2  01252789011924011900000001976460000000001N100119000000000000000000000000000000000000000000000000000000000000000100025278913819FERNANDO LOPES DA SILVA                 RUA RUBEN DE SOUZA - 387 AP.24A - VILA I            04653170                                                            000011
2SR. CAIXA, APOS O VENCIMENTO COBRAR 10% DE MULTA                                NAO RECEBER APOS 30 DIAS DO VENCIMENTO.                                                                                                                                                                                                         15011900000000000001501190000000000000       0090770900016748252789011917000012
100000000000000000000009077090001674800000000000000000000000010002100000024601191800000000002            2  01000246011924011900000002197220000000001N100119000000000000000000000000000000000000000000000000000000000000000100000024633852JAYME MASRI                             RUA MONTE CASTELO - 296 AP.24 - BAIRRO A            11702720                                                            000014
2SR. CAIXA, APOS O VENCIMENTO COBRAR 10% DE MULTA                                NAO RECEBER APOS 30 DIAS DO VENCIMENTO.                                                                                                                                                                                                         15011900000000000001501190000000000000       0090770900016748000246011918000015
100000000000000000000009077090001674800000000000000000000000010002100013184401191100000000002            2  01131844011924011900000002281500000000001N100119000000000000000000000000000000000000000000000000000000000000000100013184404838CLAUDIO GOMES BAHIA                     RUA MARIA CONCEICAO - 89 - VILA SAO PEDR            07032070                                                            000017
2SR. CAIXA, APOS O VENCIMENTO COBRAR 10% DE MULTA                                NAO RECEBER APOS 30 DIAS DO VENCIMENTO.                                                                                                                                                                                                         15011900000000000001501190000000000000       0090770900016748131844011911000018
100000000000000000000009077090001674800000000000000000000000010002100006055501191700000000002            2  01060555011924011900000003454980000000001N100119000000000000000000000000000000000000000000000000000000000000000100006055565803EDSON ALVES                             RUA EDGAR CODAZZI - 49 CASA 02 - CIDADE             08225280                                                            000020
2SR. CAIXA, APOS O VENCIMENTO COBRAR 10% DE MULTA                                NAO RECEBER APOS 30 DIAS DO VENCIMENTO.                                                                                                                                                                                                         15011900000000000001501190000000000000       0090770900016748060555011917000021
100000000000000000000009077090001674800000000000000000000000010002100021899201191000000000002            2  01218992011924011900000033480330000000001N100119000000000000000000000000000000000000000000000000000000000000000100021899277811ALESSANDRE ALVES ANDRADE                RUA MONTE CASTELO - 262 AP.132 - AVIACAO            11702720                                                            000023
2SR. CAIXA, APOS O VENCIMENTO COBRAR 10% DE MULTA                                NAO RECEBER APOS 30 DIAS DO VENCIMENTO.                                                                                                                                                                                                         15011900000000000001501190000000000000       0090770900016748218992011910000024
100000000000000000000009077090001674800000000000000000000000010002100021899201192900000000002            2  01218992011924011900000002517300000000001N100119000000000000000000000000000000000000000000000000000000000000000100021899277811ALESSANDRE ALVES ANDRADE                RUA MONTE CASTELO - 262 AP.132 - AVIACAO            11702720                                                            000026
2SR. CAIXA, APOS O VENCIMENTO COBRAR 10% DE MULTA                                NAO RECEBER APOS 30 DIAS DO VENCIMENTO.                                                                                                                                                                                                         15011900000000000001501190000000000000       0090770900016748218992011929000027
100000000000000000000009077090001674800000000000000000000000010002100003441201191500000000002            2  01034412011924011900000002194950000000001N100119000000000000000000000000000000000000000000000000000000000000000100003441232860LUIZ CARLOS CAMARGO BIANCHI             RUA GENERAL LEITE DE CASTRO - 200 - JARD            04182020                                                            000029
2SR. CAIXA, APOS O VENCIMENTO COBRAR 10% DE MULTA                                NAO RECEBER APOS 30 DIAS DO VENCIMENTO.                                                                                                                                                                                                         15011900000000000001501190000000000000       0090770900016748034412011915000030
100000000000000000000009077090001674800000000000000000000000010002100014681401191400000000002            2  01146814011924011900000002277070000000001N100119000000000000000000000000000000000000000000000000000000000000000100014681490830HUMBERTO MOZART CALIXTO                 RUA MONTE CASTELO - 296 AP.41 - AVIACAO             11702720                                                            000032
2SR. CAIXA, APOS O VENCIMENTO COBRAR 10% DE MULTA                                NAO RECEBER APOS 30 DIAS DO VENCIMENTO.                                                                                                                                                                                                         15011900000000000001501190000000000000       0090770900016748146814011914000033
100000000000000000000009077090001674800000000000000000000000010002100023007701191700000000002            2  01230077011924011900000001861880000000001N100119000000000000000000000000000000000000000000000000000000000000000100023007705800BRUNA ANTUN AZEVEDO                     RUA MONTE CASTELO - 296 AP.62 - AVIACAO             11702720                                                            000035
2SR. CAIXA, APOS O VENCIMENTO COBRAR 10% DE MULTA                                NAO RECEBER APOS 30 DIAS DO VENCIMENTO.                                                                                                                                                                                                         15011900000000000001501190000000000000       0090770900016748230077011917000036
100000000000000000000009077090001674800000000000000000000000010002100006550701191500000000002            2  01065507011924011900000001922350000000001N100119000000000000000000000000000000000000000000000000000000000000000100006550730864IVONE APARECIDA VIEIRA GADI TEIXEIRA    RUA SAO FLORENCIO  - 1500 AP.44 BLOCO 01            03733020                                                            000038
2SR. CAIXA, APOS O VENCIMENTO COBRAR 10% DE MULTA                                NAO RECEBER APOS 30 DIAS DO VENCIMENTO.                                                                                                                                                                                                         15011900000000000001501190000000000000       0090770900016748065507011915000039
100000000000000000000009077090001674800000000000000000000000010002100006550701192300000000002            2  01065507011924011900000001922350000000001N100119000000000000000000000000000000000000000000000000000000000000000100006550730864IVONE APARECIDA VIEIRA GADI TEIXEIRA    RUA SAO FLORENCIO  - 1500 AP.44 BLOCO 01            03733020                                                            000041
2SR. CAIXA, APOS O VENCIMENTO COBRAR 10% DE MULTA                                NAO RECEBER APOS 30 DIAS DO VENCIMENTO.                                                                                                                                                                                                         15011900000000000001501190000000000000       0090770900016748065507011923000042
100000000000000000000009077090001674800000000000000000000000010002100000930601191P00000000002            2  01009306011924011900000003444190000000001N100119000000000000000000000000000000000000000000000000000000000000000100000930668642VALERIA RODRIGUES DANTAS                RUA MONTE CASTELO - 262 AP.21 - AVIACAO             11702720                                                            000044
2SR. CAIXA, APOS O VENCIMENTO COBRAR 10% DE MULTA                                NAO RECEBER APOS 30 DIAS DO VENCIMENTO.                                                                                                                                                                                                         15011900000000000001501190000000000000       009077090001674800930601191P000045
100000000000000000000009077090001674800000000000000000000000010002100075574001191300000000002            2  01755740011924011900000002975700000000001N100119000000000000000000000000000000000000000000000000000000000000000100075574063891CASSIO TADEU DA SILVEIRA                RUA CONSELHEIRO MOREIRA DE BARROS - 1.55            02430000                                                            000047
2SR. CAIXA, APOS O VENCIMENTO COBRAR 10% DE MULTA                                NAO RECEBER APOS 30 DIAS DO VENCIMENTO.                                                                                                                                                                                                         15011900000000000001501190000000000000       0090770900016748755740011913000048
100000000000000000000009077090001674800000000000000000000000010002100000764601191100000000002            2  01007646011924011900000002200680000000001N100119000000000000000000000000000000000000000000000000000000000000000100000764632817LUIZ CARLOS ANTUNES JUNIOR              RUA MONTE CASTELO - 262 AP.35 - AVIACAO             11702720                                                            000050
2SR. CAIXA, APOS O VENCIMENTO COBRAR 10% DE MULTA                                NAO RECEBER APOS 30 DIAS DO VENCIMENTO.                                                                                                                                                                                                         15011900000000000001501190000000000000       0090770900016748007646011911000051
100000000000000000000009077090001674800000000000000000000000010002100027317601191100000000002            2  01273176011924011900000002157080000000001N100119000000000000000000000000000000000000000000000000000000000000000100027317668591ERONILTON SOUSA MOTA                    AVENIDA PRESIDENTE KENNEDY - 3203 - AVIA            11701330                                                            000053
2SR. CAIXA, APOS O VENCIMENTO COBRAR 10% DE MULTA                                NAO RECEBER APOS 30 DIAS DO VENCIMENTO.                                                                                                                                                                                                         15011900000000000001501190000000000000       0090770900016748273176011911000054
100000000000000000000009077090001674800000000000000000000000010002100066104101191100000000002            2  01661041011924011900000002224740000000001N100119000000000000000000000000000000000000000000000000000000000000000100066104106820ANADIR FERREIRA                         RUA MONTE CASTELO - 296 AP.61 - AVIACAO             11702720                                                            000056
2SR. CAIXA, APOS O VENCIMENTO COBRAR 10% DE MULTA                                NAO RECEBER APOS 30 DIAS DO VENCIMENTO.                                                                                                                                                                                                         15011900000000000001501190000000000000       0090770900016748661041011911000057
100000000000000000000009077090001674800000000000000000000000010002100057014501191800000000002            2  01570145011924011900000002497860000000001N100119000000000000000000000000000000000000000000000000000000000000000100057014582887SONIA MARIA DA SILVA PEGORARO           RUA FRANCO PAULISTA  - 80 - AGUA FRIA -             02332030                                                            000059
2SR. CAIXA, APOS O VENCIMENTO COBRAR 10% DE MULTA                                NAO RECEBER APOS 30 DIAS DO VENCIMENTO.                                                                                                                                                                                                         15011900000000000001501190000000000000       0090770900016748570145011918000060
100000000000000000000009077090001674800000000000000000000000010002100006505301191500000000002            2  01065053011924011900000002714920000000001N100119000000000000000000000000000000000000000000000000000000000000000100006505382852LUIS ANTONIO DINIS HENRIQUES            RUA ESTEVAO  BAIAO - 520 AP.93A - CAMPO             04624002                                                            000062
2SR. CAIXA, APOS O VENCIMENTO COBRAR 10% DE MULTA                                NAO RECEBER APOS 30 DIAS DO VENCIMENTO.                                                                                                                                                                                                         15011900000000000001501190000000000000       0090770900016748065053011915000063
100000000000000000000009077090001674800000000000000000000000010002100011544701191800000000002            2  01115447011924011900000004932010000000001N100119000000000000000000000000000000000000000000000000000000000000000100011544777620GRACIELY RODRIGUES FERNANDES            RUA MONTE CASTELO - 262 AP.111 - AVIACAO            11702720                                                            000065
2SR. CAIXA, APOS O VENCIMENTO COBRAR 10% DE MULTA                                NAO RECEBER APOS 30 DIAS DO VENCIMENTO.                                                                                                                                                                                                         15011900000000000001501190000000000000       0090770900016748115447011918000066
100000000000000000000009077090001674800000000000000000000000010002100005629001191200000000002            2  01056290011924011900000003587040000000001N100119000000000000000000000000000000000000000000000000000000000000000100005629087819ROMILDO MARTINS PIZA                    RUA MAESTRO ARTURO DE ANGELIS - 190 AP.3            05139010                                                            000068
2SR. CAIXA, APOS O VENCIMENTO COBRAR 10% DE MULTA                                NAO RECEBER APOS 30 DIAS DO VENCIMENTO.                                                                                                                                                                                                         15011900000000000001501190000000000000       0090770900016748056290011912000069
100000000000000000000009077090001674800000000000000000000000010002100004290901191100000000002            2  01042909011924011900000001912010000000001N100119000000000000000000000000000000000000000000000000000000000000000100004290973876WLADIMIR PAIOLA BORREGO                 RUA GOMES - 429 - VILA IVONE - SAO PAULO            03275010                                                            000071
2SR. CAIXA, APOS O VENCIMENTO COBRAR 10% DE MULTA                                NAO RECEBER APOS 30 DIAS DO VENCIMENTO.                                                                                                                                                                                                         15011900000000000001501190000000000000       0090770900016748042909011911000072
100000000000000000000009077090001674800000000000000000000000010002100034325501191700000000002            2  01343255011924011900000001810160000000001N100119000000000000000000000000000000000000000000000000000000000000000100034325567801LUIZ FERNANDO ALAMINO                   RUA MONTE CASTELO - 296 AP.21 - AVIACAO             11702720                                                            000074
2SR. CAIXA, APOS O VENCIMENTO COBRAR 10% DE MULTA                                NAO RECEBER APOS 30 DIAS DO VENCIMENTO.                                                                                                                                                                                                         15011900000000000001501190000000000000       0090770900016748343255011917000075
100000000000000000000009077090001674800000000000000000000000010002100021335401191P00000000002            2  01213354011924011900000005268480000000001N100119000000000000000000000000000000000000000000000000000000000000000100021335464808RAQUEL FERREIRA RAMOS                   RUA ANTONIO SEVERIANO DE ANDRADE E SILVA            11702400                                                            000077
2SR. CAIXA, APOS O VENCIMENTO COBRAR 10% DE MULTA                                NAO RECEBER APOS 30 DIAS DO VENCIMENTO.                                                                                                                                                                                                         15011900000000000001501190000000000000       009077090001674821335401191P000078
100000000000000000000009077090001674800000000000000000000000010002100021335401192800000000002            2  01213354011924011900000001369810000000001N100119000000000000000000000000000000000000000000000000000000000000000100021335464808RAQUEL FERREIRA RAMOS                   RUA ANTONIO SEVERIANO DE ANDRADE E SILVA            11702400                                                            000080
2SR. CAIXA, APOS O VENCIMENTO COBRAR 10% DE MULTA                                NAO RECEBER APOS 30 DIAS DO VENCIMENTO.                                                                                                                                                                                                         15011900000000000001501190000000000000       0090770900016748213354011928000081
100000000000000000000009077090001674800000000000000000000000010002100005627901191900000000002            2  01056279011924011900000001606230000000001N100119000000000000000000000000000000000000000000000000000000000000000100005627947861FERNANDO CESAR MARCELINO                TRAVESSA CHARLES LEBRUN - 83 - VILA NOVA            02312060                                                            000083
2SR. CAIXA, APOS O VENCIMENTO COBRAR 10% DE MULTA                                NAO RECEBER APOS 30 DIAS DO VENCIMENTO.                                                                                                                                                                                                         15011900000000000001501190000000000000       0090770900016748056279011919000084
100000000000000000000009077090001674800000000000000000000000010002100026187901191500000000002            2  01261879011924011900000001676140000000001N100119000000000000000000000000000000000000000000000000000000000000000100026187960807CARINA CANTACESSO DE SOUZA              RUA MONTE CASTELO - 296 AP.91 - AVIACAO             11702720                                                            000086
2SR. CAIXA, APOS O VENCIMENTO COBRAR 10% DE MULTA                                NAO RECEBER APOS 30 DIAS DO VENCIMENTO.                                                                                                                                                                                                         15011900000000000001501190000000000000       0090770900016748261879011915000087
100000000000000000000009077090001674800000000000000000000000010002100004864901191000000000002            2  01048649011924011900000002240260000000001N100119000000000000000000000000000000000000000000000000000000000000000100004864924600RENATO SANTACHIARA SALVADORI            RUA PENSYLVANIA - 116 - PAYSAGE BRISE -             06730000                                                            000089
2SR. CAIXA, APOS O VENCIMENTO COBRAR 10% DE MULTA                                NAO RECEBER APOS 30 DIAS DO VENCIMENTO.                                                                                                                                                                                                         15011900000000000001501190000000000000       0090770900016748048649011910000090
9                                                                                                                                                                                                                                                                                                                                                                                                         000091