01REMESSA01COBRANCA       00000000000004991788AIRES DESENVOLVIMENTO IMOBILIA237BRADESCO       011017        MX0000114                                                                                                                                                                                                                                                                                     000001
100000000000000000000009077090011897400000000000000000000000010002100011088010171700000000002            2  01110880101725101700000001821980000000001N011017000000000000000000000000000000000000000000000000000000000000000100011088018890LUIZ CARLOS VITORINO MADEIRA            RUA JOSE CALIXTO DO CARMO - 265 AP. 32 -            11702690                                                            000002
2SR. CAIXA, APOS O VENCIMENTO COBRAR 10% DE MULTA                                NAO RECEBER APOS 30 DIAS DO VENCIMENTO.                                                                                                                                                                                                         01101700000000000000110170000000000000       0090770900118974110880101717000003
100000000000000000000009077090011897400000000000000000000000010002100004007810171100000000002            2  01040078101725101700000002651210000000001N011017000000000000000000000000000000000000000000000000000000000000000100004007807809CLAUDIO CANESCHI                        RUA AGRESTE  DE ITABAINA - 663 - VILA UN            03683000                                                            000005
2SR. CAIXA, APOS O VENCIMENTO COBRAR 10% DE MULTA                                NAO RECEBER APOS 30 DIAS DO VENCIMENTO.                                                                                                                                                                                                         01101700000000000000110170000000000000       0090770900118974040078101711000006
100000000000000000000009077090011897400000000000000000000000010002100025998410171200000000002            2  01259984101725101700000002437560000000001N011017000000000000000000000000000000000000000000000000000000000000000100025998413806CELESTE ERMELINDA NEVES DA SILVA        RUA CIRO CARNEIRO - 920 - JARDIM GUILHER            11702220                                                            000008
2SR. CAIXA, APOS O VENCIMENTO COBRAR 10% DE MULTA                                NAO RECEBER APOS 30 DIAS DO VENCIMENTO.                                                                                                                                                                                                         01101700000000000000110170000000000000       0090770900118974259984101712000009
100000000000000000000009077090011897400000000000000000000000010002100000796510171000000000002            2  01007965101725101700000002957050000000001N011017000000000000000000000000000000000000000000000000000000000000000100000796517800WLADIMIR RODRIGUES                      R:JOSE DA SILVA RIBEIRO - 576 AP.233 - B            05726130                                                            000011
2SR. CAIXA, APOS O VENCIMENTO COBRAR 10% DE MULTA                                NAO RECEBER APOS 30 DIAS DO VENCIMENTO.                                                                                                                                                                                                         01101700000000000000110170000000000000       0090770900118974007965101710000012
100000000000000000000009077090011897400000000000000000000000010002100015110710171400000000002            2  01151107101725101700000002876640000000001N011017000000000000000000000000000000000000000000000000000000000000000100015110751803LILIAN CARRARA DA SILVA CANDIDO         ALAMEDA VICENTE DE CARVALHO - 65 - JARDI            07600000                                                            000014
2SR. CAIXA, APOS O VENCIMENTO COBRAR 10% DE MULTA                                NAO RECEBER APOS 30 DIAS DO VENCIMENTO.                                                                                                                                                                                                         01101700000000000000110170000000000000       0090770900118974151107101714000015
100000000000000000000009077090011897400000000000000000000000010002100005204610171800000000002            2  01052046101725101700000002782620000000001N011017000000000000000000000000000000000000000000000000000000000000000100005204692835RINALDO DA MOTTA                        JOSE CALIXTO DO CARMO - 265 AP.93 - AVIA            11702690                                                            000017
2SR. CAIXA, APOS O VENCIMENTO COBRAR 10% DE MULTA                                NAO RECEBER APOS 30 DIAS DO VENCIMENTO.                                                                                                                                                                                                         01101700000000000000110170000000000000       0090770900118974052046101718000018
100000000000000000000009077090011897400000000000000000000000010002100022090410171300000000002            2  01220904101725101700000002204270000000001N011017000000000000000000000000000000000000000000000000000000000000000100022090439807FELIPE LUCIO LOPES                      RUA JOSE CALIXTO DO CARMO - 265 AP.103 -            11702690                                                            000020
2SR. CAIXA, APOS O VENCIMENTO COBRAR 10% DE MULTA                                NAO RECEBER APOS 30 DIAS DO VENCIMENTO.                                                                                                                                                                                                         01101700000000000000110170000000000000       0090770900118974220904101713000021
100000000000000000000009077090011897400000000000000000000000010002100070237810171600000000002            2  01702378101725101700000002826720000000001N011017000000000000000000000000000000000000000000000000000000000000000100070237824434ANTONIO FERREIRA NETO                   RUA HENRIQUE MINDLIM - 161 - JD. ORIENTA            04349250                                                            000023
2SR. CAIXA, APOS O VENCIMENTO COBRAR 10% DE MULTA                                NAO RECEBER APOS 30 DIAS DO VENCIMENTO.                                                                                                                                                                                                         01101700000000000000110170000000000000       0090770900118974702378101716000024
100000000000000000000009077090011897400000000000000000000000010002100005677410171100000000002            2  01056774101725101700000002895520000000001N011017000000000000000000000000000000000000000000000000000000000000000100005677409863ROSA MARIA OLIVIERI MEMOLI              CONSELHEIRO NEBIAS - 1409 - CAMPOS ELISE            01203002                                                            000026
2SR. CAIXA, APOS O VENCIMENTO COBRAR 10% DE MULTA                                NAO RECEBER APOS 30 DIAS DO VENCIMENTO.                                                                                                                                                                                                         01101700000000000000110170000000000000       0090770900118974056774101711000027
100000000000000000000009077090011897400000000000000000000000010002100034771610171400000000002            2  01347716101725101700000002766950000000001N011017000000000000000000000000000000000000000000000000000000000000000100034771609837MARCELO ALEXANDRE CARVALHO              RUA ECAUNA - 222 - JARDIM UMARIZAL - SAO            05754040                                                            000029
2SR. CAIXA, APOS O VENCIMENTO COBRAR 10% DE MULTA                                NAO RECEBER APOS 30 DIAS DO VENCIMENTO.                                                                                                                                                                                                         01101700000000000000110170000000000000       0090770900118974347716101714000030
100000000000000000000009077090011897400000000000000000000000010002100014497910171000000000002            2  01144979101724101700000001834470000000001N011017000000000000000000000000000000000000000000000000000000000000000100014497915816FERNANDO JOSE ARRUDA                    RUA JOSE CALIXTO DO CARMO - 265 AP.113 -            11702690                                                            000032
2SR. CAIXA, APOS O VENCIMENTO COBRAR 10% DE MULTA                                NAO RECEBER APOS 30 DIAS DO VENCIMENTO.                                                                                                                                                                                                         01101700000000000000110170000000000000       0090770900118974144979101710000033
100000000000000000000009077090011897400000000000000000000000010002100027324010171700000000002            2  01273240101724101700000001383530000000001N011017000000000000000000000000000000000000000000000000000000000000000100027324099874LEONARDO BORGES DUARTE SILVA            RUA JOSE CALIXTO DO CARMO - 265 AP.94 -             11702690                                                            000035
2SR. CAIXA, APOS O VENCIMENTO COBRAR 10% DE MULTA                                NAO RECEBER APOS 30 DIAS DO VENCIMENTO.                                                                                                                                                                                                         01101700000000000000110170000000000000       0090770900118974273240101717000036
100000000000000000000009077090011897400000000000000000000000010002100036782010171900000000002            2  01367820101724101700000001331860000000001N011017000000000000000000000000000000000000000000000000000000000000000100036782058871ANA PAULA BUENO DA COSTA                RUA MARIQUITA ARTACHO - 218 CASA 3 - JAR            03716000                                                            000038
2SR. CAIXA, APOS O VENCIMENTO COBRAR 10% DE MULTA                                NAO RECEBER APOS 30 DIAS DO VENCIMENTO.                                                                                                                                                                                                         01101700000000000000110170000000000000       0090770900118974367820101719000039
9                                                                                                                                                                                                                                                                                                                                                                                                         000040