01REMESSA01COBRANCA       00000000000004991781AIRES CONSTRUTORA E INCORPORAD237BRADESCO       130217        MX0000068                                                                                                                                                                                                                                                                                     000001
100000000000000000000009077090006612500000000000000000000000010002100014299125122900000000002            2  01142991251218021700000000017330000000099N130217000000000000000000000000000000000000000000000000000000000000000100002252149892AIRES MOTA DOS SANTOS                   AV. BRASIL - 600 SALA 1009 - BOQUEIRAO -            11701090                                                            000002
2SR. CAIXA, APOS O VENCIMENTO COBRAR 10% DE MULTA                                NAO RECEBER APOS 30 DIAS DO VENCIMENTO.                                                                                                                                                                                                         13021700000000000001302170000000000000       0090770900066125142991251229000003
9                                                                                                                                                                                                                                                                                                                                                                                                         000004