01REMESSA01COBRANCA       00000000000004991788AIRES DESENVOLVIMENTO IMOBILIA237BRADESCO       010118        MX0000120                                                                                                                                                                                                                                                                                     000001
100000000000000000000009077090011897400000000000000000000000010002100021570801181800000000002            2  01215708011810011800000002410680000000001N010118000000000000000000000000000000000000000000000000000000000000000100021570843805RODRIGO LESSANDRO FREGATE               RUA JOSE PEDRO DORO - 451 BLOCO RIO GRAN            02880010                                                            000002
2SR. CAIXA, APOS O VENCIMENTO COBRAR 10% DE MULTA                                NAO RECEBER APOS 30 DIAS DO VENCIMENTO.                                                                                                                                                                                                         01011800000000000000101180000000000000       0090770900118974215708011818000003
100000000000000000000009077090011897400000000000000000000000010002100007456801181P00000000002            2  01074568011810011800000002351080000000001N010118000000000000000000000000000000000000000000000000000000000000000100007456836817REGINA CELIA RONDELLI                   RUA CANANEIA - 168 APTO 134 BL.C2 - SANT            09060480                                                            000005
2SR. CAIXA, APOS O VENCIMENTO COBRAR 10% DE MULTA                                NAO RECEBER APOS 30 DIAS DO VENCIMENTO.                                                                                                                                                                                                         01011800000000000000101180000000000000       009077090011897407456801181P000006
100000000000000000000009077090011897400000000000000000000000010002100007508701181200000000002            2  01075087011810011800000002767920000000001N010118000000000000000000000000000000000000000000000000000000000000000100007508759842LAERCIO DA CRUZ FERREIRA                RUA JOSE BENEDITO SALINAS - 110 APTO 161            04674200                                                            000008
2SR. CAIXA, APOS O VENCIMENTO COBRAR 10% DE MULTA                                NAO RECEBER APOS 30 DIAS DO VENCIMENTO.                                                                                                                                                                                                         01011800000000000000101180000000000000       0090770900118974075087011812000009
100000000000000000000009077090011897400000000000000000000000010002100010653201181200000000002            2  01106532011810011800000002500520000000001N010118000000000000000000000000000000000000000000000000000000000000000100010653257899MARCIO DE SOUZA AZEVEDO                 RUA CASABLANCA - 105 - PARQUE MONTE ALEG            06756400                                                            000011
2SR. CAIXA, APOS O VENCIMENTO COBRAR 10% DE MULTA                                NAO RECEBER APOS 30 DIAS DO VENCIMENTO.                                                                                                                                                                                                         01011800000000000000101180000000000000       0090770900118974106532011812000012
100000000000000000000009077090011897400000000000000000000000010002100068006201181900000000002            2  01680062011810011800000002489400000000001N010118000000000000000000000000000000000000000000000000000000000000000100068006292868FRANCISCO VIEIRA SOUSA                  RUA SERRA DA CANTAREIRA - 104 - JARDIM E            06413090                                                            000014
2SR. CAIXA, APOS O VENCIMENTO COBRAR 10% DE MULTA                                NAO RECEBER APOS 30 DIAS DO VENCIMENTO.                                                                                                                                                                                                         01011800000000000000101180000000000000       0090770900118974680062011819000015
100000000000000000000009077090011897400000000000000000000000010002100022288701181300000000002            2  01222887011810011800000002963480000000001N010118000000000000000000000000000000000000000000000000000000000000000100022288772808FERNANDA TAVARES MASANO                 RUA JOSE CALIXTO DO CARMO - 265 AP. 124             11702690                                                            000017
2SR. CAIXA, APOS O VENCIMENTO COBRAR 10% DE MULTA                                NAO RECEBER APOS 30 DIAS DO VENCIMENTO.                                                                                                                                                                                                         01011800000000000000101180000000000000       0090770900118974222887011813000018
100000000000000000000009077090011897400000000000000000000000010002100032223801181700000000002            2  01322238011810011800000002767370000000001N010118000000000000000000000000000000000000000000000000000000000000000100032223890806ELISANGELA CAMARGO BRAGA                RUA JOSE CALIXTO DO CARMO - 265 AP.24 -             11702690                                                            000020
2SR. CAIXA, APOS O VENCIMENTO COBRAR 10% DE MULTA                                NAO RECEBER APOS 30 DIAS DO VENCIMENTO.                                                                                                                                                                                                         01011800000000000000101180000000000000       0090770900118974322238011817000021
100000000000000000000009077090011897400000000000000000000000010002100010177101181400000000002            2  01101771011810011800000002651540000000001N010118000000000000000000000000000000000000000000000000000000000000000100010177135883VERONICA DE LIMA SANTOS                 RUA ARAGAO - 1099 - TUCURUVI - SAO PAULO            02308001                                                            000023
2SR. CAIXA, APOS O VENCIMENTO COBRAR 10% DE MULTA                                NAO RECEBER APOS 30 DIAS DO VENCIMENTO.                                                                                                                                                                                                         01011800000000000000101180000000000000       0090770900118974101771011814000024
100000000000000000000009077090011897400000000000000000000000010002100031000701181600000000002            2  01310007011810011800000002632940000000001N010118000000000000000000000000000000000000000000000000000000000000000100031000769828ANDREIA CARLA SOUSA                     RUA JOSE CALIXTO DO CARMO - 265 AP.73 -             11702690                                                            000026
2SR. CAIXA, APOS O VENCIMENTO COBRAR 10% DE MULTA                                NAO RECEBER APOS 30 DIAS DO VENCIMENTO.                                                                                                                                                                                                         01011800000000000000101180000000000000       0090770900118974310007011816000027
100000000000000000000009077090011897400000000000000000000000010002100027324601181700000000002            2  01273246011810011800000003353820000000001N010118000000000000000000000000000000000000000000000000000000000000000100027324650899LUCIANO MARTINEZ                        RUA MORGADO DE MATEUS - 473 - VILA MARIA            04015051                                                            000029
2SR. CAIXA, APOS O VENCIMENTO COBRAR 10% DE MULTA                                NAO RECEBER APOS 30 DIAS DO VENCIMENTO.                                                                                                                                                                                                         01011800000000000000101180000000000000       0090770900118974273246011817000030
100000000000000000000009077090011897400000000000000000000000010002100005253101181600000000002            2  01052531011810011800000002340840000000001N010118000000000000000000000000000000000000000000000000000000000000000100005253129863ADILSON JOSE BORGES                     RUA CIRIACO JIMENEZ - 83 - PARQUE NACOES            02996070                                                            000032
2SR. CAIXA, APOS O VENCIMENTO COBRAR 10% DE MULTA                                NAO RECEBER APOS 30 DIAS DO VENCIMENTO.                                                                                                                                                                                                         01011800000000000000101180000000000000       0090770900118974052531011816000033
100000000000000000000009077090011897400000000000000000000000010002100003996801181900000000002            2  01039968011810011800000002473410000000001N010118000000000000000000000000000000000000000000000000000000000000000100003996827830RONALDO PINTO BORGES                    MAGNOLIA DELFIM DA SILVA - 44 - JARDIM O            05363040                                                            000035
2SR. CAIXA, APOS O VENCIMENTO COBRAR 10% DE MULTA                                NAO RECEBER APOS 30 DIAS DO VENCIMENTO.                                                                                                                                                                                                         01011800000000000000101180000000000000       0090770900118974039968011819000036
100000000000000000000009077090011897400000000000000000000000010002100012708301181800000000002            2  01127083011810011800000001478980000000001N010118000000000000000000000000000000000000000000000000000000000000000100012708342827ADRIANA RATIER CRUZ                     RUA JOSE CALIXTO DO CARMO - 295 APTO 31             11702690                                                            000038
2SR. CAIXA, APOS O VENCIMENTO COBRAR 10% DE MULTA                                NAO RECEBER APOS 30 DIAS DO VENCIMENTO.                                                                                                                                                                                                         01011800000000000000101180000000000000       0090770900118974127083011818000039
100000000000000000000009077090011897400000000000000000000000010002100000452401181400000000002            2  01004524011810011800000001241240000000001N010118000000000000000000000000000000000000000000000000000000000000000100000452415896MARILUCE SANTOS DE ALMEIDA              RUA JOSE CALIXTO DO CARMO - 295 AP.74 -             11702690                                                            000041
2SR. CAIXA, APOS O VENCIMENTO COBRAR 10% DE MULTA                                NAO RECEBER APOS 30 DIAS DO VENCIMENTO.                                                                                                                                                                                                         01011800000000000000101180000000000000       0090770900118974004524011814000042
100000000000000000000009077090011897400000000000000000000000010002100003406901181500000000002            2  01034069011809011800000001344550000000001N010118000000000000000000000000000000000000000000000000000000000000000100003406972888RONALDO CANDIDO PANSONATO               AV. DOM JAIME DE BARROS CAMERA - 565 AP.            09895400                                                            000044
2SR. CAIXA, APOS O VENCIMENTO COBRAR 10% DE MULTA                                NAO RECEBER APOS 30 DIAS DO VENCIMENTO.                                                                                                                                                                                                         01011800000000000000101180000000000000       0090770900118974034069011815000045
100000000000000000000009077090011897400000000000000000000000010002100028379801181700000000002            2  01283798011801011800000003425810000000001N010118000000000000000000000000000000000000000000000000000000000000000100028379879805EDMILSON DANIEL GARCIA WATANUKI         AVENIDA PRESIDENTE CASTELO BRANCO - 4718            11702700                                                            000047
2SR. CAIXA, APOS O VENCIMENTO COBRAR 10% DE MULTA                                NAO RECEBER APOS 30 DIAS DO VENCIMENTO.                                                                                                                                                                                                         01011800000000000000101180000000000000       0090770900118974283798011817000048
100000000000000000000009077090011897400000000000000000000000010002100037491301181300000000002            2  01374913011811011800000001563110000000001N010118000000000000000000000000000000000000000000000000000000000000000100037491305822NATASHA SILVEIRA DA SILVA               RUA CONSELHEIRO ELIAS DE CARVALHO - 50 A            04373000                                                            000050
2SR. CAIXA, APOS O VENCIMENTO COBRAR 10% DE MULTA                                NAO RECEBER APOS 30 DIAS DO VENCIMENTO.                                                                                                                                                                                                         01011800000000000000101180000000000000       0090770900118974374913011813000051
9                                                                                                                                                                                                                                                                                                                                                                                                         000052