01REMESSA01COBRANCA       00000000000004991788AIRES DESENVOLVIMENTO IMOBILIA237BRADESCO       010618        MX0000130                                                                                                                                                                                                                                                                                     000001
100000000000000000000009077090011897400000000000000000000000010002100021570806181500000000002            2  01215708061810061800000002471550000000001N010618000000000000000000000000000000000000000000000000000000000000000100021570843805RODRIGO LESSANDRO FREGATE               RUA JOSE PEDRO DORO - 451 BLOCO RIO GRAN            02880010                                                            000002
2SR. CAIXA, APOS O VENCIMENTO COBRAR 10% DE MULTA                                NAO RECEBER APOS 30 DIAS DO VENCIMENTO.                                                                                                                                                                                                         01061800000000000000106180000000000000       0090770900118974215708061815000003
100000000000000000000009077090011897400000000000000000000000010002100007456806181700000000002            2  01074568061810061800000002410440000000001N010618000000000000000000000000000000000000000000000000000000000000000100007456836817REGINA CELIA RONDELLI                   RUA CANANEIA - 168 APTO 134 BL.C2 - SANT            09060480                                                            000005
2SR. CAIXA, APOS O VENCIMENTO COBRAR 10% DE MULTA                                NAO RECEBER APOS 30 DIAS DO VENCIMENTO.                                                                                                                                                                                                         01061800000000000000106180000000000000       0090770900118974074568061817000006
100000000000000000000009077090011897400000000000000000000000010002100007508706181P00000000002            2  01075087061810061800000002837820000000001N010618000000000000000000000000000000000000000000000000000000000000000100007508759842LAERCIO DA CRUZ FERREIRA                RUA JOSE BENEDITO SALINAS - 110 APTO 161            04674200                                                            000008
2SR. CAIXA, APOS O VENCIMENTO COBRAR 10% DE MULTA                                NAO RECEBER APOS 30 DIAS DO VENCIMENTO.                                                                                                                                                                                                         01061800000000000000106180000000000000       009077090011897407508706181P000009
100000000000000000000009077090011897400000000000000000000000010002100032223806181400000000002            2  01322238061810061800000002837270000000001N010618000000000000000000000000000000000000000000000000000000000000000100032223890806ELISANGELA CAMARGO BRAGA                RUA JOSE CALIXTO DO CARMO - 265 AP.24 -             11702690                                                            000011
2SR. CAIXA, APOS O VENCIMENTO COBRAR 10% DE MULTA                                NAO RECEBER APOS 30 DIAS DO VENCIMENTO.                                                                                                                                                                                                         01061800000000000000106180000000000000       0090770900118974322238061814000012
100000000000000000000009077090011897400000000000000000000000010002100031000706181300000000002            2  01310007061810061800000002699420000000001N010618000000000000000000000000000000000000000000000000000000000000000100031000769828ANDREIA CARLA SOUSA                     RUA JOSE CALIXTO DO CARMO - 265 AP.73 -             11702690                                                            000014
2SR. CAIXA, APOS O VENCIMENTO COBRAR 10% DE MULTA                                NAO RECEBER APOS 30 DIAS DO VENCIMENTO.                                                                                                                                                                                                         01061800000000000000106180000000000000       0090770900118974310007061813000015
100000000000000000000009077090011897400000000000000000000000010002100003996806181600000000002            2  01039968061810061800000002535870000000001N010618000000000000000000000000000000000000000000000000000000000000000100003996827830RONALDO PINTO BORGES                    MAGNOLIA DELFIM DA SILVA - 44 - JARDIM O            05363040                                                            000017
2SR. CAIXA, APOS O VENCIMENTO COBRAR 10% DE MULTA                                NAO RECEBER APOS 30 DIAS DO VENCIMENTO.                                                                                                                                                                                                         01061800000000000000106180000000000000       0090770900118974039968061816000018
100000000000000000000009077090011897400000000000000000000000010002100012708306181500000000002            2  01127083061810061800000001554610000000001N010618000000000000000000000000000000000000000000000000000000000000000100012708342827ADRIANA RATIER CRUZ                     RUA JOSE CALIXTO DO CARMO - 295 APTO 31             11702690                                                            000020
2SR. CAIXA, APOS O VENCIMENTO COBRAR 10% DE MULTA                                NAO RECEBER APOS 30 DIAS DO VENCIMENTO.                                                                                                                                                                                                         01061800000000000000106180000000000000       0090770900118974127083061815000021
100000000000000000000009077090011897400000000000000000000000010002100000452406181100000000002            2  01004524061810061800000001272590000000001N010618000000000000000000000000000000000000000000000000000000000000000100000452415896MARILUCE SANTOS DE ALMEIDA              RUA JOSE CALIXTO DO CARMO - 295 AP.74 -             11702690                                                            000023
2SR. CAIXA, APOS O VENCIMENTO COBRAR 10% DE MULTA                                NAO RECEBER APOS 30 DIAS DO VENCIMENTO.                                                                                                                                                                                                         01061800000000000000106180000000000000       0090770900118974004524061811000024
100000000000000000000009077090011897400000000000000000000000010002100003406906181200000000002            2  01034069061809061800000001395730000000001N010618000000000000000000000000000000000000000000000000000000000000000100003406972888RONALDO CANDIDO PANSONATO               AV. DOM JAIME DE BARROS CAMERA - 565 AP.            09895400                                                            000026
2SR. CAIXA, APOS O VENCIMENTO COBRAR 10% DE MULTA                                NAO RECEBER APOS 30 DIAS DO VENCIMENTO.                                                                                                                                                                                                         01061800000000000000106180000000000000       0090770900118974034069061812000027
100000000000000000000009077090011897400000000000000000000000010002100028379806181400000000002            2  01283798061801061800000003428970000000001N010618000000000000000000000000000000000000000000000000000000000000000100028379879805EDMILSON DANIEL GARCIA WATANUKI         AVENIDA PRESIDENTE CASTELO BRANCO - 4718            11702700                                                            000029
2SR. CAIXA, APOS O VENCIMENTO COBRAR 10% DE MULTA                                NAO RECEBER APOS 30 DIAS DO VENCIMENTO.                                                                                                                                                                                                         01061800000000000000106180000000000000       0090770900118974283798061814000030
9                                                                                                                                                                                                                                                                                                                                                                                                         000031