01REMESSA01COBRANCA       00000000000004991454AIRES CONSTRUTORA E INCORPORAD237BRADESCO       101218        MX0000122                                                                                                                                                                                                                                                                                     000001
100000000000000000000009077090001674800000000000000000000000010002100049736712182800000000002            2  01497367121824121800000001421220000000001N061218000000000000000000000000000000000000000000000000000000000000000100049736787320RAIMUNDO VIEIRA DA SILVA                RUA BOLIVIA - 81 AP.ZELADORIA - JARDIM G            11701850                                                            000002
2SR. CAIXA, APOS O VENCIMENTO COBRAR 10% DE MULTA                                NAO RECEBER APOS 30 DIAS DO VENCIMENTO.                                                                                                                                                                                                         10121800000000000001012180000000000000       0090770900016748497367121828000003
100000000000000000000009077090001674800000000000000000000000010002100068806212181P00000000002            2  01688062121824121800000001261330000000001N061218000000000000000000000000000000000000000000000000000000000000000100068806272853FATIMA MOREIRA SALOMAO                  RUA TORQUATO DE CAMILLO - 84 - CARANDA B            79032031                                                            000005
2SR. CAIXA, APOS O VENCIMENTO COBRAR 10% DE MULTA                                NAO RECEBER APOS 30 DIAS DO VENCIMENTO.                                                                                                                                                                                                         10121800000000000001012180000000000000       009077090001674868806212181P000006
100000000000000000000009077090001674800000000000000000000000010002100004201612181600000000002            2  01042016121824121800000001831920000000001N061218000000000000000000000000000000000000000000000000000000000000000100004201640817SANDRA APARECIDA TOJAL                  AVENIDA MASCOTE - 81 AP.132 BL.A - VILA             04363000                                                            000008
2SR. CAIXA, APOS O VENCIMENTO COBRAR 10% DE MULTA                                NAO RECEBER APOS 30 DIAS DO VENCIMENTO.                                                                                                                                                                                                         10121800000000000001012180000000000000       0090770900016748042016121816000009
100000000000000000000009077090001674800000000000000000000000010002100025278912181P00000000002            2  01252789121824121800000001961750000000001N061218000000000000000000000000000000000000000000000000000000000000000100025278913819FERNANDO LOPES DA SILVA                 RUA RUBEN DE SOUZA - 387 AP.24A - VILA I            04653170                                                            000011
2SR. CAIXA, APOS O VENCIMENTO COBRAR 10% DE MULTA                                NAO RECEBER APOS 30 DIAS DO VENCIMENTO.                                                                                                                                                                                                         10121800000000000001012180000000000000       009077090001674825278912181P000012
100000000000000000000009077090001674800000000000000000000000010002100000024612181000000000002            2  01000246121824121800000002180860000000001N061218000000000000000000000000000000000000000000000000000000000000000100000024633852JAYME MASRI                             RUA MONTE CASTELO - 296 AP.24 - BAIRRO A            11702720                                                            000014
2SR. CAIXA, APOS O VENCIMENTO COBRAR 10% DE MULTA                                NAO RECEBER APOS 30 DIAS DO VENCIMENTO.                                                                                                                                                                                                         10121800000000000001012180000000000000       0090770900016748000246121810000015
100000000000000000000009077090001674800000000000000000000000010002100013184412181400000000002            2  01131844121824121800000002264520000000001N061218000000000000000000000000000000000000000000000000000000000000000100013184404838CLAUDIO GOMES BAHIA                     RUA MARIA CONCEICAO - 89 - VILA SAO PEDR            07032070                                                            000017
2SR. CAIXA, APOS O VENCIMENTO COBRAR 10% DE MULTA                                NAO RECEBER APOS 30 DIAS DO VENCIMENTO.                                                                                                                                                                                                         10121800000000000001012180000000000000       0090770900016748131844121814000018
100000000000000000000009077090001674800000000000000000000000010002100006055512181P00000000002            2  01060555121824121800000003429260000000001N061218000000000000000000000000000000000000000000000000000000000000000100006055565803EDSON ALVES                             RUA EDGAR CODAZZI - 49 CASA 02 - CIDADE             08225280                                                            000020
2SR. CAIXA, APOS O VENCIMENTO COBRAR 10% DE MULTA                                NAO RECEBER APOS 30 DIAS DO VENCIMENTO.                                                                                                                                                                                                         10121800000000000001012180000000000000       009077090001674806055512181P000021
100000000000000000000009077090001674800000000000000000000000010002100003441212181800000000002            2  01034412121824121800000002178610000000001N061218000000000000000000000000000000000000000000000000000000000000000100003441232860LUIZ CARLOS CAMARGO BIANCHI             RUA GENERAL LEITE DE CASTRO - 200 - JARD            04182020                                                            000023
2SR. CAIXA, APOS O VENCIMENTO COBRAR 10% DE MULTA                                NAO RECEBER APOS 30 DIAS DO VENCIMENTO.                                                                                                                                                                                                         10121800000000000001012180000000000000       0090770900016748034412121818000024
100000000000000000000009077090001674800000000000000000000000010002100014681412181700000000002            2  01146814121824121800000002260120000000001N061218000000000000000000000000000000000000000000000000000000000000000100014681490830HUMBERTO MOZART CALIXTO                 RUA MONTE CASTELO - 296 AP.41 - AVIACAO             11702720                                                            000026
2SR. CAIXA, APOS O VENCIMENTO COBRAR 10% DE MULTA                                NAO RECEBER APOS 30 DIAS DO VENCIMENTO.                                                                                                                                                                                                         10121800000000000001012180000000000000       0090770900016748146814121817000027
100000000000000000000009077090001674800000000000000000000000010002100023007712181P00000000002            2  01230077121824121800000001848020000000001N061218000000000000000000000000000000000000000000000000000000000000000100023007705800BRUNA ANTUN AZEVEDO                     RUA MONTE CASTELO - 296 AP.62 - AVIACAO             11702720                                                            000029
2SR. CAIXA, APOS O VENCIMENTO COBRAR 10% DE MULTA                                NAO RECEBER APOS 30 DIAS DO VENCIMENTO.                                                                                                                                                                                                         10121800000000000001012180000000000000       009077090001674823007712181P000030
100000000000000000000009077090001674800000000000000000000000010002100006550712181800000000002            2  01065507121824121800000001908040000000001N061218000000000000000000000000000000000000000000000000000000000000000100006550730864IVONE APARECIDA VIEIRA GADI TEIXEIRA    RUA SAO FLORENCIO  - 1500 AP.44 BLOCO 01            03733020                                                            000032
2SR. CAIXA, APOS O VENCIMENTO COBRAR 10% DE MULTA                                NAO RECEBER APOS 30 DIAS DO VENCIMENTO.                                                                                                                                                                                                         10121800000000000001012180000000000000       0090770900016748065507121818000033
100000000000000000000009077090001674800000000000000000000000010002100000930612181200000000002            2  01009306121824121800000003418550000000001N061218000000000000000000000000000000000000000000000000000000000000000100000930668642VALERIA RODRIGUES DANTAS                RUA MONTE CASTELO - 262 AP.21 - AVIACAO             11702720                                                            000035
2SR. CAIXA, APOS O VENCIMENTO COBRAR 10% DE MULTA                                NAO RECEBER APOS 30 DIAS DO VENCIMENTO.                                                                                                                                                                                                         10121800000000000001012180000000000000       0090770900016748009306121812000036
100000000000000000000009077090001674800000000000000000000000010002100075574012181600000000002            2  01755740121824121800000002953550000000001N061218000000000000000000000000000000000000000000000000000000000000000100075574063891CASSIO TADEU DA SILVEIRA                RUA CONSELHEIRO MOREIRA DE BARROS - 1.55            02430000                                                            000038
2SR. CAIXA, APOS O VENCIMENTO COBRAR 10% DE MULTA                                NAO RECEBER APOS 30 DIAS DO VENCIMENTO.                                                                                                                                                                                                         10121800000000000001012180000000000000       0090770900016748755740121816000039
100000000000000000000009077090001674800000000000000000000000010002100000764612181400000000002            2  01007646121824121800000002184300000000001N061218000000000000000000000000000000000000000000000000000000000000000100000764632817LUIZ CARLOS ANTUNES JUNIOR              RUA MONTE CASTELO - 262 AP.35 - AVIACAO             11702720                                                            000041
2SR. CAIXA, APOS O VENCIMENTO COBRAR 10% DE MULTA                                NAO RECEBER APOS 30 DIAS DO VENCIMENTO.                                                                                                                                                                                                         10121800000000000001012180000000000000       0090770900016748007646121814000042
100000000000000000000009077090001674800000000000000000000000010002100027317612181400000000002            2  01273176121824121800000002141020000000001N061218000000000000000000000000000000000000000000000000000000000000000100027317668591ERONILTON SOUSA MOTA                    AVENIDA PRESIDENTE KENNEDY - 3203 - AVIA            11701330                                                            000044
2SR. CAIXA, APOS O VENCIMENTO COBRAR 10% DE MULTA                                NAO RECEBER APOS 30 DIAS DO VENCIMENTO.                                                                                                                                                                                                         10121800000000000001012180000000000000       0090770900016748273176121814000045
100000000000000000000009077090001674800000000000000000000000010002100066104112181400000000002            2  01661041121824121800000002208180000000001N061218000000000000000000000000000000000000000000000000000000000000000100066104106820ANADIR FERREIRA                         RUA MONTE CASTELO - 296 AP.61 - AVIACAO             11702720                                                            000047
2SR. CAIXA, APOS O VENCIMENTO COBRAR 10% DE MULTA                                NAO RECEBER APOS 30 DIAS DO VENCIMENTO.                                                                                                                                                                                                         10121800000000000001012180000000000000       0090770900016748661041121814000048
100000000000000000000009077090001674800000000000000000000000010002100057014512181000000000002            2  01570145121824121800000002479270000000001N061218000000000000000000000000000000000000000000000000000000000000000100057014582887SONIA MARIA DA SILVA PEGORARO           RUA FRANCO PAULISTA  - 80 - AGUA FRIA -             02332030                                                            000050
2SR. CAIXA, APOS O VENCIMENTO COBRAR 10% DE MULTA                                NAO RECEBER APOS 30 DIAS DO VENCIMENTO.                                                                                                                                                                                                         10121800000000000001012180000000000000       0090770900016748570145121810000051
100000000000000000000009077090001674800000000000000000000000010002100006505312181800000000002            2  01065053121824121800000002694710000000001N061218000000000000000000000000000000000000000000000000000000000000000100006505382852LUIS ANTONIO DINIS HENRIQUES            RUA ESTEVAO  BAIAO - 520 AP.93A - CAMPO             04624002                                                            000053
2SR. CAIXA, APOS O VENCIMENTO COBRAR 10% DE MULTA                                NAO RECEBER APOS 30 DIAS DO VENCIMENTO.                                                                                                                                                                                                         10121800000000000001012180000000000000       0090770900016748065053121818000054
100000000000000000000009077090001674800000000000000000000000010002100011544712181000000000002            2  01115447121824121800000004895300000000001N061218000000000000000000000000000000000000000000000000000000000000000100011544777620GRACIELY RODRIGUES FERNANDES            RUA MONTE CASTELO - 262 AP.111 - AVIACAO            11702720                                                            000056
2SR. CAIXA, APOS O VENCIMENTO COBRAR 10% DE MULTA                                NAO RECEBER APOS 30 DIAS DO VENCIMENTO.                                                                                                                                                                                                         10121800000000000001012180000000000000       0090770900016748115447121810000057
100000000000000000000009077090001674800000000000000000000000010002100005629012181500000000002            2  01056290121824121800000003560340000000001N061218000000000000000000000000000000000000000000000000000000000000000100005629087819ROMILDO MARTINS PIZA                    RUA MAESTRO ARTURO DE ANGELIS - 190 AP.3            05139010                                                            000059
2SR. CAIXA, APOS O VENCIMENTO COBRAR 10% DE MULTA                                NAO RECEBER APOS 30 DIAS DO VENCIMENTO.                                                                                                                                                                                                         10121800000000000001012180000000000000       0090770900016748056290121815000060
100000000000000000000009077090001674800000000000000000000000010002100004290912181400000000002            2  01042909121824121800000001897780000000001N061218000000000000000000000000000000000000000000000000000000000000000100004290973876WLADIMIR PAIOLA BORREGO                 RUA GOMES - 429 - VILA IVONE - SAO PAULO            03275010                                                            000062
2SR. CAIXA, APOS O VENCIMENTO COBRAR 10% DE MULTA                                NAO RECEBER APOS 30 DIAS DO VENCIMENTO.                                                                                                                                                                                                         10121800000000000001012180000000000000       0090770900016748042909121814000063
100000000000000000000009077090001674800000000000000000000000010002100034325512181P00000000002            2  01343255121824121800000001796680000000001N061218000000000000000000000000000000000000000000000000000000000000000100034325567801LUIZ FERNANDO ALAMINO                   RUA MONTE CASTELO - 296 AP.21 - AVIACAO             11702720                                                            000065
2SR. CAIXA, APOS O VENCIMENTO COBRAR 10% DE MULTA                                NAO RECEBER APOS 30 DIAS DO VENCIMENTO.                                                                                                                                                                                                         10121800000000000001012180000000000000       009077090001674834325512181P000066
100000000000000000000009077090001674800000000000000000000000010002100021335412181200000000002            2  01213354121824121800000001359610000000001N061218000000000000000000000000000000000000000000000000000000000000000100021335464808RAQUEL FERREIRA RAMOS                   RUA ANTONIO SEVERIANO DE ANDRADE E SILVA            11702400                                                            000068
2SR. CAIXA, APOS O VENCIMENTO COBRAR 10% DE MULTA                                NAO RECEBER APOS 30 DIAS DO VENCIMENTO.                                                                                                                                                                                                         10121800000000000001012180000000000000       0090770900016748213354121812000069
100000000000000000000009077090001674800000000000000000000000010002100005627912181100000000002            2  01056279121824121800000001594270000000001N061218000000000000000000000000000000000000000000000000000000000000000100005627947861FERNANDO CESAR MARCELINO                TRAVESSA CHARLES LEBRUN - 83 - VILA NOVA            02312060                                                            000071
2SR. CAIXA, APOS O VENCIMENTO COBRAR 10% DE MULTA                                NAO RECEBER APOS 30 DIAS DO VENCIMENTO.                                                                                                                                                                                                         10121800000000000001012180000000000000       0090770900016748056279121811000072
100000000000000000000009077090001674800000000000000000000000010002100026187912181800000000002            2  01261879121824121800000001663660000000001N061218000000000000000000000000000000000000000000000000000000000000000100026187960807CARINA CANTACESSO DE SOUZA              RUA MONTE CASTELO - 296 AP.91 - AVIACAO             11702720                                                            000074
2SR. CAIXA, APOS O VENCIMENTO COBRAR 10% DE MULTA                                NAO RECEBER APOS 30 DIAS DO VENCIMENTO.                                                                                                                                                                                                         10121800000000000001012180000000000000       0090770900016748261879121818000075
100000000000000000000009077090001674800000000000000000000000010002100004864912181300000000002            2  01048649121824121800000002223580000000001N061218000000000000000000000000000000000000000000000000000000000000000100004864924600RENATO SANTACHIARA SALVADORI            RUA PENSYLVANIA - 116 - PAYSAGE BRISE -             06730000                                                            000077
2SR. CAIXA, APOS O VENCIMENTO COBRAR 10% DE MULTA                                NAO RECEBER APOS 30 DIAS DO VENCIMENTO.                                                                                                                                                                                                         10121800000000000001012180000000000000       0090770900016748048649121813000078
9                                                                                                                                                                                                                                                                                                                                                                                                         000079