01REMESSA01COBRANCA       00000000000004991454AIRES CONSTRUTORA E INCORPORAD237BRADESCO       010817        MX0000086                                                                                                                                                                                                                                                                                     000001
100000000000000000000009077090001674800000000000000000000000010002100011263147157400000000002            2  01112631471509081700000002532060000000001N010817000000000000000000000000000000000000000000000000000000000000000100099740451853ARNALDO DA SILVA SALES                  RUA ALEGRE - 210 - VILA SAO RAFAEL - GUA            07053100                                                            000002
2SR. CAIXA, APOS O VENCIMENTO COBRAR 10% DE MULTA                                NAO RECEBER APOS 30 DIAS DO VENCIMENTO.                                                                                                                                                                                                         01081700000000000000108170000000000000       0090770900016748112631471574000003
100000000000000000000009077090001674800000000000000000000000010002100011492148160600000000002            2  01114921481609081700000004084460000000001N010817000000000000000000000000000000000000000000000000000000000000000100044380725812FERNANDO FIRMINO DOS SANTOS             RUA BARAO GERALDO DE RESENDE - 401 - BAI            05205220                                                            000005
2SR. CAIXA, APOS O VENCIMENTO COBRAR 10% DE MULTA                                NAO RECEBER APOS 30 DIAS DO VENCIMENTO.                                                                                                                                                                                                         01081700000000000000108170000000000000       0090770900016748114921481606000006
100000000000000000000009077090001674800000000000000000000000010002100012612155171P00000000002            2  01126121551709081700000001271410000000001N010817000000000000000000000000000000000000000000000000000000000000000100025469470873JULIA MARIA RODRIGUES MARTINS           AVENIDA JOAO FIRMINO - 1229 AP.21 - BAIR            09810260                                                            000008
2SR. CAIXA, APOS O VENCIMENTO COBRAR 10% DE MULTA                                NAO RECEBER APOS 30 DIAS DO VENCIMENTO.                                                                                                                                                                                                         01081700000000000000108170000000000000       009077090001674812612155171P000009
100000000000000000000009077090001674800000000000000000000000010002100012794156173200000000002            2  01127941561709081700000001932650000000001N010817000000000000000000000000000000000000000000000000000000000000000100027396176824WALDINEA BORGES DIAS                    RUA CAP. JOAQUIM F.PEREIRA - 95 - JARDIM            13710000                                                            000011
2SR. CAIXA, APOS O VENCIMENTO COBRAR 10% DE MULTA                                NAO RECEBER APOS 30 DIAS DO VENCIMENTO.                                                                                                                                                                                                         01081700000000000000108170000000000000       0090770900016748127941561732000012
100000000000000000000009077090001674800000000000000000000000010002100012896157174900000000002            2  01128961571709081700000003078220000000001N010817000000000000000000000000000000000000000000000000000000000000000100004759534873AGNALDO PORFIRIO DOS SANTOS             RUA JUVENCIO GASPAR DA SILVA - 35 - SAO             04303060                                                            000014
2SR. CAIXA, APOS O VENCIMENTO COBRAR 10% DE MULTA                                NAO RECEBER APOS 30 DIAS DO VENCIMENTO.                                                                                                                                                                                                         01081700000000000000108170000000000000       0090770900016748128961571749000015
100000000000000000000009077090001674800000000000000000000000010002100013117159177500000000002            2  01131171591709081700000001658880000000001N010817000000000000000000000000000000000000000000000000000000000000000100014924049859KATIA REGINA DE OLIVEIRA SILVA          RUA ANTONIO SIMIONATO - 73 AP.14 - SANTA            09780180                                                            000017
2SR. CAIXA, APOS O VENCIMENTO COBRAR 10% DE MULTA                                NAO RECEBER APOS 30 DIAS DO VENCIMENTO.                                                                                                                                                                                                         01081700000000000000108170000000000000       0090770900016748131171591775000018
100000000000000000000009077090001674800000000000000000000000010002100013217160178500000000002            2  01132171601709081700000000970450000000001N010817000000000000000000000000000000000000000000000000000000000000000100090830490868IVONETE FERNANDES                       AVENIDA FREDERICO OZANAN - 5504 - VILA R            13215276                                                            000020
2SR. CAIXA, APOS O VENCIMENTO COBRAR 10% DE MULTA                                NAO RECEBER APOS 30 DIAS DO VENCIMENTO.                                                                                                                                                                                                         01081700000000000000108170000000000000       0090770900016748132171601785000021
100000000000000000000009077090001674800000000000000000000000010002100013538163184800000000002            2  01135381631809081700000002405740000000001N010817000000000000000000000000000000000000000000000000000000000000000100027093944809DAVID ALEXANDRE XAVIER ROCHA            RUA MONTE CASTELO - 296 AP.54 - AVIACAO             11702720                                                            000023
2SR. CAIXA, APOS O VENCIMENTO COBRAR 10% DE MULTA                                NAO RECEBER APOS 30 DIAS DO VENCIMENTO.                                                                                                                                                                                                         01081700000000000000108170000000000000       0090770900016748135381631848000024
100000000000000000000009077090001674800000000000000000000000010002100013706164186400000000002            2  01137061641809081700000001751220000000001N010817000000000000000000000000000000000000000000000000000000000000000100068273290891DERNEVAL JOSE MUNIZ                     RUA MARTINOPOLIS - 98 - JARDIM OTAWA - G            07230230                                                            000026
2SR. CAIXA, APOS O VENCIMENTO COBRAR 10% DE MULTA                                NAO RECEBER APOS 30 DIAS DO VENCIMENTO.                                                                                                                                                                                                         01081700000000000000108170000000000000       0090770900016748137061641864000027
100000000000000000000009077090001674800000000000000000000000010002100013981166189P00000000002            2  01139811661809081700000001496610000000001N010817000000000000000000000000000000000000000000000000000000000000000100001817534807SANTINA SALVINA SOARES                  RUA CAIAPOS - 1066 AP.43 - VILA TUPI - P            11703320                                                            000029
2SR. CAIXA, APOS O VENCIMENTO COBRAR 10% DE MULTA                                NAO RECEBER APOS 30 DIAS DO VENCIMENTO.                                                                                                                                                                                                         01081700000000000000108170000000000000       009077090001674813981166189P000030
100000000000000000000009077090001674800000000000000000000000010002100014082167190500000000002            2  01140821671909081700000001616850000000001N010817000000000000000000000000000000000000000000000000000000000000000100086755790800GERALDO JAIR BROGLIATTO                 DR.ARMANDO COSTA MAGALHAES - 176 - VILA             13270490                                                            000032
2SR. CAIXA, APOS O VENCIMENTO COBRAR 10% DE MULTA                                NAO RECEBER APOS 30 DIAS DO VENCIMENTO.                                                                                                                                                                                                         01081700000000000000108170000000000000       0090770900016748140821671905000033
100000000000000000000009077090001674800000000000000000000000010002100014420169196000000000002            2  01144201691911081700000001800000000000001N010817000000000000000000000000000000000000000000000000000000000000000100013191291881MARCELO RICARDO MASCAROS SOUTO          RUA MONTE CASTELO - 295 AP.102 - AVIACAO            11702720                                                            000035
2SR. CAIXA, APOS O VENCIMENTO COBRAR 10% DE MULTA                                NAO RECEBER APOS 30 DIAS DO VENCIMENTO.                                                                                                                                                                                                         01081700000000000000108170000000000000       0090770900016748144201691960000036
100000000000000000000009077090001674800000000000000000000000010002100014452170197200000000002            2  01144521701909081700000001606150000000001N010817000000000000000000000000000000000000000000000000000000000000000100007996062862HENRIQUE SALVADOR                       RUA DARDANELOS - 689 - PARQUE NOVO ORATO            09260060                                                            000038
2SR. CAIXA, APOS O VENCIMENTO COBRAR 10% DE MULTA                                NAO RECEBER APOS 30 DIAS DO VENCIMENTO.                                                                                                                                                                                                         01081700000000000000108170000000000000       0090770900016748144521701972000039
100000000000000000000009077090001674800000000000000000000000010002100014537171198900000000002            2  01145371711909081700000001229550000000001N010817000000000000000000000000000000000000000000000000000000000000000100004899735820INES CONCEICAO VIEIRA GADI ERMIDA       AVENIDA ANTONIO RICARDO DA SILVA - 77 -             08270560                                                            000041
2SR. CAIXA, APOS O VENCIMENTO COBRAR 10% DE MULTA                                NAO RECEBER APOS 30 DIAS DO VENCIMENTO.                                                                                                                                                                                                         01081700000000000000108170000000000000       0090770900016748145371711989000042
100000000000000000000009077090001674800000000000000000000000010002100014658172199100000000002            2  01146581721909081700000002151720000000001N010817000000000000000000000000000000000000000000000000000000000000000100010066071534MOISES ROQUE DO ROSARIO                 RUA DAS PAPOULAS - 53 - VILA BELA - SAO             03202010                                                            000044
2SR. CAIXA, APOS O VENCIMENTO COBRAR 10% DE MULTA                                NAO RECEBER APOS 30 DIAS DO VENCIMENTO.                                                                                                                                                                                                         01081700000000000000108170000000000000       0090770900016748146581721991000045
100000000000000000000009077090001674800000000000000000000000010002100014879173201800000000002            2  01148791732009081700000002455210000000001N010817000000000000000000000000000000000000000000000000000000000000000100085910031872SERGIO NOGUEIRA                         RUA CARLOS ALBERTO BIANCHIM - 102 - JARD            13273063                                                            000047
2SR. CAIXA, APOS O VENCIMENTO COBRAR 10% DE MULTA                                NAO RECEBER APOS 30 DIAS DO VENCIMENTO.                                                                                                                                                                                                         01081700000000000000108170000000000000       0090770900016748148791732018000048
9                                                                                                                                                                                                                                                                                                                                                                                                         000049