01REMESSA01COBRANCA       00000000000004991788AIRES DESENVOLVIMENTO IMOBILIA237BRADESCO       011018        MX0000138                                                                                                                                                                                                                                                                                     000001
100000000000000000000009077090011897400000000000000000000000010002100012708310181700000000002            2  01127083101810101800000001609840000000001N011018000000000000000000000000000000000000000000000000000000000000000100012708342827ADRIANA RATIER CRUZ                     RUA JOSE CALIXTO DO CARMO - 295 APTO 31             11702690                                                            000002
2SR. CAIXA, APOS O VENCIMENTO COBRAR 10% DE MULTA                                NAO RECEBER APOS 30 DIAS DO VENCIMENTO.                                                                                                                                                                                                         01101800000000000000110180000000000000       0090770900118974127083101817000003
100000000000000000000009077090011897400000000000000000000000010002100000452410181300000000002            2  01004524101810101800000001298230000000001N011018000000000000000000000000000000000000000000000000000000000000000100000452415896MARILUCE SANTOS DE ALMEIDA              RUA JOSE CALIXTO DO CARMO - 295 AP.74 -             11702690                                                            000005
2SR. CAIXA, APOS O VENCIMENTO COBRAR 10% DE MULTA                                NAO RECEBER APOS 30 DIAS DO VENCIMENTO.                                                                                                                                                                                                         01101800000000000000110180000000000000       0090770900118974004524101813000006
100000000000000000000009077090011897400000000000000000000000010002100003406910181400000000002            2  01034069101809101800000001438090000000001N011018000000000000000000000000000000000000000000000000000000000000000100003406972888RONALDO CANDIDO PANSONATO               AV. DOM JAIME DE BARROS CAMERA - 565 AP.            09895400                                                            000008
2SR. CAIXA, APOS O VENCIMENTO COBRAR 10% DE MULTA                                NAO RECEBER APOS 30 DIAS DO VENCIMENTO.                                                                                                                                                                                                         01101800000000000000110180000000000000       0090770900118974034069101814000009
100000000000000000000009077090011897400000000000000000000000010002100028379810181600000000002            2  01283798101801101800000003428970000000001N011018000000000000000000000000000000000000000000000000000000000000000100028379879805EDMILSON DANIEL GARCIA WATANUKI         AV.PRESIDENTE CASTELO BRANCO - 4718 LOJA            11702700                                                            000011
2SR. CAIXA, APOS O VENCIMENTO COBRAR 10% DE MULTA                                NAO RECEBER APOS 30 DIAS DO VENCIMENTO.                                                                                                                                                                                                         01101800000000000000110180000000000000       0090770900118974283798101816000012
9                                                                                                                                                                                                                                                                                                                                                                                                         000013