01REMESSA01COBRANCA       00000000000004991454AIRES CONSTRUTORA E INCORPORAD237BRADESCO       010419        MX0000129                                                                                                                                                                                                                                                                                     000001
100000000000000000000009077090001674800000000000000000000000010002100099740404191300000000002            2  01997404041909041900000002940440000000001N010419000000000000000000000000000000000000000000000000000000000000000100099740451853ARNALDO DA SILVA SALES                  RUA ALEGRE - 210 - VILA SAO RAFAEL - GUA            07053100                                                            000002
2SR. CAIXA, APOS O VENCIMENTO COBRAR 10% DE MULTA                                NAO RECEBER APOS 30 DIAS DO VENCIMENTO.                                                                                                                                                                                                         01041900000000000000104190000000000000       0090770900016748997404041913000003
100000000000000000000009077090001674800000000000000000000000010002100049736704191300000000002            2  01497367041909041900000001784260000000001N010419000000000000000000000000000000000000000000000000000000000000000100049736787320RAIMUNDO VIEIRA DA SILVA                RUA BOLIVIA - 81 AP.ZELADORIA - JARDIM G            11701850                                                            000005
2SR. CAIXA, APOS O VENCIMENTO COBRAR 10% DE MULTA                                NAO RECEBER APOS 30 DIAS DO VENCIMENTO.                                                                                                                                                                                                         01041900000000000000104190000000000000       0090770900016748497367041913000006
100000000000000000000009077090001674800000000000000000000000010002100044380704191800000000002            2  01443807041909041900000004743240000000001N010419000000000000000000000000000000000000000000000000000000000000000100044380725812FERNANDO FIRMINO DOS SANTOS             RUA BARAO GERALDO DE RESENDE - 401 - BAI            05205220                                                            000008
2SR. CAIXA, APOS O VENCIMENTO COBRAR 10% DE MULTA                                NAO RECEBER APOS 30 DIAS DO VENCIMENTO.                                                                                                                                                                                                         01041900000000000000104190000000000000       0090770900016748443807041918000009
100000000000000000000009077090001674800000000000000000000000010002100025469404191900000000002            2  01254694041909041900000001476480000000001N010419000000000000000000000000000000000000000000000000000000000000000100025469470873JULIA MARIA RODRIGUES MARTINS           AVENIDA JOAO FIRMINO - 1229 AP.21 - BAIR            09810260                                                            000011
2SR. CAIXA, APOS O VENCIMENTO COBRAR 10% DE MULTA                                NAO RECEBER APOS 30 DIAS DO VENCIMENTO.                                                                                                                                                                                                         01041900000000000000104190000000000000       0090770900016748254694041919000012
100000000000000000000009077090001674800000000000000000000000010002100004759504191P00000000002            2  01047595041909041900000003574690000000001N010419000000000000000000000000000000000000000000000000000000000000000100004759534873AGNALDO PORFIRIO DOS SANTOS             RUA JUVENCIO GASPAR DA SILVA - 35 - SAO             04303060                                                            000014
2SR. CAIXA, APOS O VENCIMENTO COBRAR 10% DE MULTA                                NAO RECEBER APOS 30 DIAS DO VENCIMENTO.                                                                                                                                                                                                         01041900000000000000104190000000000000       009077090001674804759504191P000015
100000000000000000000009077090001674800000000000000000000000010002100090830404191300000000002            2  01908304041909041900000001126950000000001N010419000000000000000000000000000000000000000000000000000000000000000100090830490868IVONETE FERNANDES                       AVENIDA FREDERICO OZANAN - 5504 - VILA R            13215276                                                            000017
2SR. CAIXA, APOS O VENCIMENTO COBRAR 10% DE MULTA                                NAO RECEBER APOS 30 DIAS DO VENCIMENTO.                                                                                                                                                                                                         01041900000000000000104190000000000000       0090770900016748908304041913000018
100000000000000000000009077090001674800000000000000000000000010002100027093904191500000000002            2  01270939041909041900000002793750000000001N010419000000000000000000000000000000000000000000000000000000000000000100027093944809DAVID ALEXANDRE XAVIER ROCHA            RUA MONTE CASTELO - 296 AP.54 - AVIACAO             11702720                                                            000020
2SR. CAIXA, APOS O VENCIMENTO COBRAR 10% DE MULTA                                NAO RECEBER APOS 30 DIAS DO VENCIMENTO.                                                                                                                                                                                                         01041900000000000000104190000000000000       0090770900016748270939041915000021
100000000000000000000009077090001674800000000000000000000000010002100068273204191100000000002            2  01682732041909041900000002033650000000001N010419000000000000000000000000000000000000000000000000000000000000000100068273290891DERNEVAL JOSE MUNIZ                     RUA MARTINOPOLIS - 98 - JARDIM OTAWA - G            07230230                                                            000023
2SR. CAIXA, APOS O VENCIMENTO COBRAR 10% DE MULTA                                NAO RECEBER APOS 30 DIAS DO VENCIMENTO.                                                                                                                                                                                                         01041900000000000000104190000000000000       0090770900016748682732041911000024
100000000000000000000009077090001674800000000000000000000000010002100001817504191400000000002            2  01018175041909041900000001738010000000001N010419000000000000000000000000000000000000000000000000000000000000000100001817534807SANTINA SALVINA SOARES                  RUA CAIAPOS - 1066 AP.43 - VILA TUPI - P            11703320                                                            000026
2SR. CAIXA, APOS O VENCIMENTO COBRAR 10% DE MULTA                                NAO RECEBER APOS 30 DIAS DO VENCIMENTO.                                                                                                                                                                                                         01041900000000000000104190000000000000       0090770900016748018175041914000027
100000000000000000000009077090001674800000000000000000000000010002100086755704191100000000002            2  01867557041909041900000001877630000000001N010419000000000000000000000000000000000000000000000000000000000000000100086755790800GERALDO JAIR BROGLIATTO                 DR.ARMANDO COSTA MAGALHAES - 176 - VILA             13270490                                                            000029
2SR. CAIXA, APOS O VENCIMENTO COBRAR 10% DE MULTA                                NAO RECEBER APOS 30 DIAS DO VENCIMENTO.                                                                                                                                                                                                         01041900000000000000104190000000000000       0090770900016748867557041911000030
100000000000000000000009077090001674800000000000000000000000010002100007996004191500000000002            2  01079960041909041900000001865230000000001N010419000000000000000000000000000000000000000000000000000000000000000100007996062862HENRIQUE SALVADOR                       RUA DARDANELOS - 689 - PARQUE NOVO ORATO            09260060                                                            000032
2SR. CAIXA, APOS O VENCIMENTO COBRAR 10% DE MULTA                                NAO RECEBER APOS 30 DIAS DO VENCIMENTO.                                                                                                                                                                                                         01041900000000000000104190000000000000       0090770900016748079960041915000033
100000000000000000000009077090001674800000000000000000000000010002100010066004191200000000002            2  01100660041909041900000002498760000000001N010419000000000000000000000000000000000000000000000000000000000000000100010066071534MOISES ROQUE DO ROSARIO                 RUA DAS PAPOULAS - 53 - VILA BELA - SAO             03202010                                                            000035
2SR. CAIXA, APOS O VENCIMENTO COBRAR 10% DE MULTA                                NAO RECEBER APOS 30 DIAS DO VENCIMENTO.                                                                                                                                                                                                         01041900000000000000104190000000000000       0090770900016748100660041912000036
100000000000000000000009077090001674800000000000000000000000010002100085910004191300000000002            2  01859100041909041900000002851170000000001N010419000000000000000000000000000000000000000000000000000000000000000100085910031872SERGIO NOGUEIRA                         RUA MONTE CASTELO - 262 AP.55 - AVIACAO             11702720                                                            000038
2SR. CAIXA, APOS O VENCIMENTO COBRAR 10% DE MULTA                                NAO RECEBER APOS 30 DIAS DO VENCIMENTO.                                                                                                                                                                                                         01041900000000000000104190000000000000       0090770900016748859100041913000039
100000000000000000000009077090001674800000000000000000000000010002100000746804191700000000002            2  01007468041909041900000002305070000000001N010419000000000000000000000000000000000000000000000000000000000000000100000746845820ANTONIO CARLOS DE MELLO                 RUA CONGO - 118 - PARQUE MONTE ALEGRE -             06756270                                                            000041
2SR. CAIXA, APOS O VENCIMENTO COBRAR 10% DE MULTA                                NAO RECEBER APOS 30 DIAS DO VENCIMENTO.                                                                                                                                                                                                         01041900000000000000104190000000000000       0090770900016748007468041917000042
100000000000000000000009077090001674800000000000000000000000010002100028196104191200000000002            2  01281961041909041900000001659850000000001N010419000000000000000000000000000000000000000000000000000000000000000100028196184808VANESSA NOGUEIRA CAMBUI DA SILVA        CRISTOVAO COLOMBO - 217 - VILA AMERICA -            09110160                                                            000044
2SR. CAIXA, APOS O VENCIMENTO COBRAR 10% DE MULTA                                NAO RECEBER APOS 30 DIAS DO VENCIMENTO.                                                                                                                                                                                                         01041900000000000000104190000000000000       0090770900016748281961041912000045
100000000000000000000009077090001674800000000000000000000000010002100049730804191800000000002            2  01497308041909041900000001362520000000001N010419000000000000000000000000000000000000000000000000000000000000000100049730835420PEDRO LUIZ DO BOM FIM FILHO             RUA NASCER DO SOL - 91 - BAIRRO PIRAPORI            09951475                                                            000047
2SR. CAIXA, APOS O VENCIMENTO COBRAR 10% DE MULTA                                NAO RECEBER APOS 30 DIAS DO VENCIMENTO.                                                                                                                                                                                                         01041900000000000000104190000000000000       0090770900016748497308041918000048
100000000000000000000009077090001674800000000000000000000000010002100027067004191300000000002            2  01270670041909041900000001690480000000001N010419000000000000000000000000000000000000000000000000000000000000000100027067002893MARCIA NASCIMENTO DE MORAES             RUA MONTE CASTELO - 296 AP.11 - AVIACAO             11702720                                                            000050
2SR. CAIXA, APOS O VENCIMENTO COBRAR 10% DE MULTA                                NAO RECEBER APOS 30 DIAS DO VENCIMENTO.                                                                                                                                                                                                         01041900000000000000104190000000000000       0090770900016748270670041913000051
100000000000000000000009077090001674800000000000000000000000010002100064435704191800000000002            2  01644357041909041900000001690480000000001N010419000000000000000000000000000000000000000000000000000000000000000100064435741849JURACY DA SILVA                         RUA JACARATINGA - 192 - JARDIM PIRAJUCAR            05786120                                                            000053
2SR. CAIXA, APOS O VENCIMENTO COBRAR 10% DE MULTA                                NAO RECEBER APOS 30 DIAS DO VENCIMENTO.                                                                                                                                                                                                         01041900000000000000104190000000000000       0090770900016748644357041918000054
100000000000000000000009077090001674800000000000000000000000010002100094921804191700000000002            2  01949218041909041900000001677900000000001N010419000000000000000000000000000000000000000000000000000000000000000100094921890897JOAO JORGE DA ROSA FILHO                RUA OLAVO EGIDIO DE SOUZA ARANHA - 368 A            03822000                                                            000056
2SR. CAIXA, APOS O VENCIMENTO COBRAR 10% DE MULTA                                NAO RECEBER APOS 30 DIAS DO VENCIMENTO.                                                                                                                                                                                                         01041900000000000000104190000000000000       0090770900016748949218041917000057
100000000000000000000009077090001674800000000000000000000000010002100008364804191300000000002            2  01083648041909041900000002035510000000001N010419000000000000000000000000000000000000000000000000000000000000000100008364834800JOSEFINA CORREA RAMA DOS SANTOS         AVENIDA PRESIDENTE CASTELO BRANCO - 3.78            11702700                                                            000059
2SR. CAIXA, APOS O VENCIMENTO COBRAR 10% DE MULTA                                NAO RECEBER APOS 30 DIAS DO VENCIMENTO.                                                                                                                                                                                                         01041900000000000000104190000000000000       0090770900016748083648041913000060
100000000000000000000009077090001674800000000000000000000000010002100037713304191400000000002            2  01377133041909041900000001665410000000001N010419000000000000000000000000000000000000000000000000000000000000000100037713356800JAMILLE PAULA BUENO LOPES               RUA CURIO (COND.NEW VILLE) - 172 - SURU             06509031                                                            000062
2SR. CAIXA, APOS O VENCIMENTO COBRAR 10% DE MULTA                                NAO RECEBER APOS 30 DIAS DO VENCIMENTO.                                                                                                                                                                                                         01041900000000000000104190000000000000       0090770900016748377133041914000063
100000000000000000000009077090001674800000000000000000000000010002100027100904191100000000002            2  01271009041909041900000001940220000000001N010419000000000000000000000000000000000000000000000000000000000000000100027100951810MARCIA RAMALHO RODRIGUES                RUA MONTE CASTELO - 296 AP.82 - AVIACAO             11702720                                                            000065
2SR. CAIXA, APOS O VENCIMENTO COBRAR 10% DE MULTA                                NAO RECEBER APOS 30 DIAS DO VENCIMENTO.                                                                                                                                                                                                         01041900000000000000104190000000000000       0090770900016748271009041911000066
100000000000000000000009077090001674800000000000000000000000010002100076207904191200000000002            2  01762079041909041900000002092470000000001N010419000000000000000000000000000000000000000000000000000000000000000100076207943872JOSE MACEDO RICARTE FILHO               RUA ARTUR LOBO - 181 - JARDIM JABAQUARA             04384060                                                            000068
2SR. CAIXA, APOS O VENCIMENTO COBRAR 10% DE MULTA                                NAO RECEBER APOS 30 DIAS DO VENCIMENTO.                                                                                                                                                                                                         01041900000000000000104190000000000000       0090770900016748762079041912000069
100000000000000000000009077090001674800000000000000000000000010002100094672604191500000000002            2  01946726041909041900000002642560000000001N010419000000000000000000000000000000000000000000000000000000000000000100094672660834JOSE HENRIQUE SOARES PEREIRA INACIO     RUA MONTE CASTELO - 296 AP.34 - AVIACAO             11702720                                                            000071
2SR. CAIXA, APOS O VENCIMENTO COBRAR 10% DE MULTA                                NAO RECEBER APOS 30 DIAS DO VENCIMENTO.                                                                                                                                                                                                         01041900000000000000104190000000000000       0090770900016748946726041915000072
100000000000000000000009077090001674800000000000000000000000010002100025265204191600000000002            2  01252652041909041900000001436780000000001N010419000000000000000000000000000000000000000000000000000000000000000100025265260862SONIA MARIA CECILIO DA SILVA            RUA PRESIDENTE TANCREDO NEVES - 1093 AP.            06329350                                                            000074
2SR. CAIXA, APOS O VENCIMENTO COBRAR 10% DE MULTA                                NAO RECEBER APOS 30 DIAS DO VENCIMENTO.                                                                                                                                                                                                         01041900000000000000104190000000000000       0090770900016748252652041916000075
100000000000000000000009077090001674800000000000000000000000010002100011381904191300000000002            2  01113819041909041900000002738460000000001N010419000000000000000000000000000000000000000000000000000000000000000100011381987818MARIO DONIZETE MIGUEL DA SILVA          RUA JASPE - 215 - HIGIANOPOLIS - JANDIRA            06642270                                                            000077
2SR. CAIXA, APOS O VENCIMENTO COBRAR 10% DE MULTA                                NAO RECEBER APOS 30 DIAS DO VENCIMENTO.                                                                                                                                                                                                         01041900000000000000104190000000000000       0090770900016748113819041913000078
100000000000000000000009077090001674800000000000000000000000010002100020105504191P00000000002            2  01201055041909041900000002219750000000001N010419000000000000000000000000000000000000000000000000000000000000000100020105503827VALTER DE SOUSA LIBARINO FILHO          RUA DAS PAINEIRAS - 140 - BAIRRO LARANJE            07741205                                                            000080
2SR. CAIXA, APOS O VENCIMENTO COBRAR 10% DE MULTA                                NAO RECEBER APOS 30 DIAS DO VENCIMENTO.                                                                                                                                                                                                         01041900000000000000104190000000000000       009077090001674820105504191P000081
9                                                                                                                                                                                                                                                                                                                                                                                                         000082