01REMESSA01COBRANCA       00000000000004991786AIRES DESENVOLVIMENTO IMOBILIA237BRADESCO       100217        MX0000067                                                                                                                                                                                                                                                                                     000001
100000000000000000000009077090011102300000000000000000000000010002100014289125122100000000002            2  01142891251214021700000000024010000000099N100217000000000000000000000000000000000000000000000000000000000000000100002252149892AIRES MOTA DOS SANTOS                   AV. BRASIL - 600 SALA 1009 - BOQUEIRAO -            11701090                                                            000002
2SR. CAIXA, APOS O VENCIMENTO COBRAR 10% DE MULTA                                NAO RECEBER APOS 30 DIAS DO VENCIMENTO.                                                                                                                                                                                                         10021700000000000001002170000000000000       0090770900111023142891251221000003
9                                                                                                                                                                                                                                                                                                                                                                                                         000004