01REMESSA01COBRANCA       00000000000004991788AIRES DESENVOLVIMENTO IMOBILIA237BRADESCO       140918        MX0000137                                                                                                                                                                                                                                                                                     000001
100000000000000000000009077090011897400000000000000000000000010002100011088009181900000000002            2  01110880091825091800000001924740000000001N130918000000000000000000000000000000000000000000000000000000000000000100011088018890LUIZ CARLOS VITORINO MADEIRA            RUA JOSE CALIXTO DO CARMO - 265 AP. 32 -            11702690                                                            000002
2SR. CAIXA, APOS O VENCIMENTO COBRAR 10% DE MULTA                                NAO RECEBER APOS 30 DIAS DO VENCIMENTO.                                                                                                                                                                                                         14091800000000000001409180000000000000       0090770900118974110880091819000003
100000000000000000000009077090011897400000000000000000000000010002100014497909181200000000002            2  01144979091824091800000001991640000000001N130918000000000000000000000000000000000000000000000000000000000000000100014497915816FERNANDO JOSE ARRUDA                    RUA JOSE CALIXTO DO CARMO - 265 AP.113 -            11702690                                                            000005
2SR. CAIXA, APOS O VENCIMENTO COBRAR 10% DE MULTA                                NAO RECEBER APOS 30 DIAS DO VENCIMENTO.                                                                                                                                                                                                         14091800000000000001409180000000000000       0090770900118974144979091812000006
100000000000000000000009077090011897400000000000000000000000010002100027324009181900000000002            2  01273240091824091800000001502040000000001N130918000000000000000000000000000000000000000000000000000000000000000100027324099874LEONARDO BORGES DUARTE SILVA            RUA JOSE CALIXTO DO CARMO - 265 AP.94 -             11702690                                                            000008
2SR. CAIXA, APOS O VENCIMENTO COBRAR 10% DE MULTA                                NAO RECEBER APOS 30 DIAS DO VENCIMENTO.                                                                                                                                                                                                         14091800000000000001409180000000000000       0090770900118974273240091819000009
100000000000000000000009077090011897400000000000000000000000010002100036782009181000000000002            2  01367820091824091800000001445950000000001N130918000000000000000000000000000000000000000000000000000000000000000100036782058871ANA PAULA BUENO DA COSTA                RUA MARIQUITA ARTACHO - 218 CASA 3 - JAR            03716000                                                            000011
2SR. CAIXA, APOS O VENCIMENTO COBRAR 10% DE MULTA                                NAO RECEBER APOS 30 DIAS DO VENCIMENTO.                                                                                                                                                                                                         14091800000000000001409180000000000000       0090770900118974367820091810000012
9                                                                                                                                                                                                                                                                                                                                                                                                         000013