01REMESSA01COBRANCA       00000000000004991454AIRES CONSTRUTORA E INCORPORAD237BRADESCO       101219        MX0000146                                                                                                                                                                                                                                                                                     000001
100000000000000000000009077090001674800000000000000000000000010002100026984112192000000000002            2  01269841121924121900000001554540000000001N091219000000000000000000000000000000000000000000000000000000000000000100026984181844GISELE APARECIDA MAGALHAES              RUA GRACILIANO RAMOS - 181 - BAIRRO SAO             09581410                                                            000002
2SR. CAIXA, APOS O VENCIMENTO COBRAR 10% DE MULTA                                NAO RECEBER APOS 30 DIAS DO VENCIMENTO.                                                                                                                                                                                                         10121900000000000001012190000000000000       0090770900016748269841121920000003
100000000000000000000009077090001674800000000000000000000000010002100068806212191700000000002            2  01688062121924121900000001379640000000001N091219000000000000000000000000000000000000000000000000000000000000000100068806272853FATIMA MOREIRA SALOMAO                  RUA TORQUATO DE CAMILLO - 84 - CARANDA B            79032031                                                            000005
2SR. CAIXA, APOS O VENCIMENTO COBRAR 10% DE MULTA                                NAO RECEBER APOS 30 DIAS DO VENCIMENTO.                                                                                                                                                                                                         10121900000000000001012190000000000000       0090770900016748688062121917000006
100000000000000000000009077090001674800000000000000000000000010002100004201612191300000000002            2  01042016121924121900000002003790000000001N091219000000000000000000000000000000000000000000000000000000000000000100004201640817SANDRA APARECIDA TOJAL                  AVENIDA MASCOTE - 81 AP.132 BL.A - VILA             04363000                                                            000008
2SR. CAIXA, APOS O VENCIMENTO COBRAR 10% DE MULTA                                NAO RECEBER APOS 30 DIAS DO VENCIMENTO.                                                                                                                                                                                                         10121900000000000001012190000000000000       0090770900016748042016121913000009
100000000000000000000009077090001674800000000000000000000000010002100000024612191800000000002            2  01000246121924121900000002385440000000001N091219000000000000000000000000000000000000000000000000000000000000000100000024633852JAYME MASRI                             RUA MONTE CASTELO - 296 AP.24 - BAIRRO A            11702720                                                            000011
2SR. CAIXA, APOS O VENCIMENTO COBRAR 10% DE MULTA                                NAO RECEBER APOS 30 DIAS DO VENCIMENTO.                                                                                                                                                                                                         10121900000000000001012190000000000000       0090770900016748000246121918000012
100000000000000000000009077090001674800000000000000000000000010002100013184412191100000000002            2  01131844121924121900000002476950000000001N091219000000000000000000000000000000000000000000000000000000000000000100013184404838CLAUDIO GOMES BAHIA                     RUA MARIA CONCEICAO - 89 - VILA SAO PEDR            07032070                                                            000014
2SR. CAIXA, APOS O VENCIMENTO COBRAR 10% DE MULTA                                NAO RECEBER APOS 30 DIAS DO VENCIMENTO.                                                                                                                                                                                                         10121900000000000001012190000000000000       0090770900016748131844121911000015
100000000000000000000009077090001674800000000000000000000000010002100006055512191700000000002            2  01060555121924121900000003750940000000001N091219000000000000000000000000000000000000000000000000000000000000000100006055565803EDSON ALVES                             RUA EDGAR CODAZZI - 49 CASA 02 - CIDADE             08225280                                                            000017
2SR. CAIXA, APOS O VENCIMENTO COBRAR 10% DE MULTA                                NAO RECEBER APOS 30 DIAS DO VENCIMENTO.                                                                                                                                                                                                         10121900000000000001012190000000000000       0090770900016748060555121917000018
100000000000000000000009077090001674800000000000000000000000010002100021899212191000000000002            2  01218992121924121900000002732930000000001N091219000000000000000000000000000000000000000000000000000000000000000100021899277811ALESSANDRE ALVES ANDRADE                RUA MONTE CASTELO - 262 AP.132 - AVIACAO            11702720                                                            000020
2SR. CAIXA, APOS O VENCIMENTO COBRAR 10% DE MULTA                                NAO RECEBER APOS 30 DIAS DO VENCIMENTO.                                                                                                                                                                                                         10121900000000000001012190000000000000       0090770900016748218992121910000021
100000000000000000000009077090001674800000000000000000000000010002100003441212191500000000002            2  01034412121924121900000002383000000000001N091219000000000000000000000000000000000000000000000000000000000000000100003441232860LUIZ CARLOS CAMARGO BIANCHI             RUA GENERAL LEITE DE CASTRO - 200 - JARD            04182020                                                            000023
2SR. CAIXA, APOS O VENCIMENTO COBRAR 10% DE MULTA                                NAO RECEBER APOS 30 DIAS DO VENCIMENTO.                                                                                                                                                                                                         10121900000000000001012190000000000000       0090770900016748034412121915000024
100000000000000000000009077090001674800000000000000000000000010002100014681412191400000000002            2  01146814121924121900000002472160000000001N091219000000000000000000000000000000000000000000000000000000000000000100014681490830HUMBERTO MOZART CALIXTO                 RUA MONTE CASTELO - 296 AP.41 - AVIACAO             11702720                                                            000026
2SR. CAIXA, APOS O VENCIMENTO COBRAR 10% DE MULTA                                NAO RECEBER APOS 30 DIAS DO VENCIMENTO.                                                                                                                                                                                                         10121900000000000001012190000000000000       0090770900016748146814121914000027
100000000000000000000009077090001674800000000000000000000000010002100023007712191700000000002            2  01230077121924121900000002021370000000001N091219000000000000000000000000000000000000000000000000000000000000000100023007705800BRUNA ANTUN AZEVEDO                     RUA MONTE CASTELO - 296 AP.62 - AVIACAO             11702720                                                            000029
2SR. CAIXA, APOS O VENCIMENTO COBRAR 10% DE MULTA                                NAO RECEBER APOS 30 DIAS DO VENCIMENTO.                                                                                                                                                                                                         10121900000000000001012190000000000000       0090770900016748230077121917000030
100000000000000000000009077090001674800000000000000000000000010002100006550712191500000000002            2  01065507121924121900000002087040000000001N091219000000000000000000000000000000000000000000000000000000000000000100006550730864IVONE APARECIDA VIEIRA GADI TEIXEIRA    RUA SAO FLORENCIO  - 1500 AP.44 BLOCO 01            03733020                                                            000032
2SR. CAIXA, APOS O VENCIMENTO COBRAR 10% DE MULTA                                NAO RECEBER APOS 30 DIAS DO VENCIMENTO.                                                                                                                                                                                                         10121900000000000001012190000000000000       0090770900016748065507121915000033
100000000000000000000009077090001674800000000000000000000000010002100006550712192300000000002            2  01065507121924121900000002087040000000001N091219000000000000000000000000000000000000000000000000000000000000000100006550730864IVONE APARECIDA VIEIRA GADI TEIXEIRA    RUA SAO FLORENCIO  - 1500 AP.44 BLOCO 01            03733020                                                            000035
2SR. CAIXA, APOS O VENCIMENTO COBRAR 10% DE MULTA                                NAO RECEBER APOS 30 DIAS DO VENCIMENTO.                                                                                                                                                                                                         10121900000000000001012190000000000000       0090770900016748065507121923000036
100000000000000000000009077090001674800000000000000000000000010002100075574012191300000000002            2  01755740121924121900000003230610000000001N091219000000000000000000000000000000000000000000000000000000000000000100075574063891CASSIO TADEU DA SILVEIRA                RUA CONSELHEIRO MOREIRA DE BARROS - 1.55            02430000                                                            000038
2SR. CAIXA, APOS O VENCIMENTO COBRAR 10% DE MULTA                                NAO RECEBER APOS 30 DIAS DO VENCIMENTO.                                                                                                                                                                                                         10121900000000000001012190000000000000       0090770900016748755740121913000039
100000000000000000000009077090001674800000000000000000000000010002100000764612191100000000002            2  01007646121924121900000002389200000000001N091219000000000000000000000000000000000000000000000000000000000000000100000764632817LUIZ CARLOS ANTUNES JUNIOR              RUA MONTE CASTELO - 262 AP.35 - AVIACAO             11702720                                                            000041
2SR. CAIXA, APOS O VENCIMENTO COBRAR 10% DE MULTA                                NAO RECEBER APOS 30 DIAS DO VENCIMENTO.                                                                                                                                                                                                         10121900000000000001012190000000000000       0090770900016748007646121911000042
100000000000000000000009077090001674800000000000000000000000010002100057014512191800000000002            2  01570145121924121900000002711840000000001N091219000000000000000000000000000000000000000000000000000000000000000100057014582887SONIA MARIA DA SILVA PEGORARO           RUA FRANCO PAULISTA  - 80 - AGUA FRIA -             02332030                                                            000044
2SR. CAIXA, APOS O VENCIMENTO COBRAR 10% DE MULTA                                NAO RECEBER APOS 30 DIAS DO VENCIMENTO.                                                                                                                                                                                                         10121900000000000001012190000000000000       0090770900016748570145121918000045
100000000000000000000009077090001674800000000000000000000000010002100057014512192600000000002            2  01570145121924121900000002711810000000001N091219000000000000000000000000000000000000000000000000000000000000000100057014582887SONIA MARIA DA SILVA PEGORARO           RUA FRANCO PAULISTA  - 80 - AGUA FRIA -             02332030                                                            000047
2SR. CAIXA, APOS O VENCIMENTO COBRAR 10% DE MULTA                                NAO RECEBER APOS 30 DIAS DO VENCIMENTO.                                                                                                                                                                                                         10121900000000000001012190000000000000       0090770900016748570145121926000048
100000000000000000000009077090001674800000000000000000000000010002100057014512193400000000002            2  01570145121924121900000002711820000000001N091219000000000000000000000000000000000000000000000000000000000000000100057014582887SONIA MARIA DA SILVA PEGORARO           RUA FRANCO PAULISTA  - 80 - AGUA FRIA -             02332030                                                            000050
2SR. CAIXA, APOS O VENCIMENTO COBRAR 10% DE MULTA                                NAO RECEBER APOS 30 DIAS DO VENCIMENTO.                                                                                                                                                                                                         10121900000000000001012190000000000000       0090770900016748570145121934000051
100000000000000000000009077090001674800000000000000000000000010002100057014512194200000000002            2  01570145121924121900000002711830000000001N091219000000000000000000000000000000000000000000000000000000000000000100057014582887SONIA MARIA DA SILVA PEGORARO           RUA FRANCO PAULISTA  - 80 - AGUA FRIA -             02332030                                                            000053
2SR. CAIXA, APOS O VENCIMENTO COBRAR 10% DE MULTA                                NAO RECEBER APOS 30 DIAS DO VENCIMENTO.                                                                                                                                                                                                         10121900000000000001012190000000000000       0090770900016748570145121942000054
100000000000000000000009077090001674800000000000000000000000010002100006505312191500000000002            2  01065053121924121900000002947500000000001N091219000000000000000000000000000000000000000000000000000000000000000100006505382852LUIS ANTONIO DINIS HENRIQUES            RUA ESTEVAO  BAIAO - 520 AP.93A - CAMPO             04624002                                                            000056
2SR. CAIXA, APOS O VENCIMENTO COBRAR 10% DE MULTA                                NAO RECEBER APOS 30 DIAS DO VENCIMENTO.                                                                                                                                                                                                         10121900000000000001012190000000000000       0090770900016748065053121915000057
100000000000000000000009077090001674800000000000000000000000010002100011544712191800000000002            2  01115447121924121900000005354520000000001N091219000000000000000000000000000000000000000000000000000000000000000100011544777620GRACIELY RODRIGUES FERNANDES            RUA MONTE CASTELO - 262 AP.111 - AVIACAO            11702720                                                            000059
2SR. CAIXA, APOS O VENCIMENTO COBRAR 10% DE MULTA                                NAO RECEBER APOS 30 DIAS DO VENCIMENTO.                                                                                                                                                                                                         10121900000000000001012190000000000000       0090770900016748115447121918000060
100000000000000000000009077090001674800000000000000000000000010002100005629012191200000000002            2  01056290121924121900000003894320000000001N091219000000000000000000000000000000000000000000000000000000000000000100005629087819ROMILDO MARTINS PIZA                    RUA MAESTRO ARTURO DE ANGELIS - 190 AP.3            05139010                                                            000062
2SR. CAIXA, APOS O VENCIMENTO COBRAR 10% DE MULTA                                NAO RECEBER APOS 30 DIAS DO VENCIMENTO.                                                                                                                                                                                                         10121900000000000001012190000000000000       0090770900016748056290121912000063
100000000000000000000009077090001674800000000000000000000000010002100034325512191700000000002            2  01343255121924121900000001965230000000001N091219000000000000000000000000000000000000000000000000000000000000000100034325567801LUIZ FERNANDO ALAMINO                   RUA GALDINO NASCIMENTO - 45 - PARQUE GUA            08431650                                                            000065
2SR. CAIXA, APOS O VENCIMENTO COBRAR 10% DE MULTA                                NAO RECEBER APOS 30 DIAS DO VENCIMENTO.                                                                                                                                                                                                         10121900000000000001012190000000000000       0090770900016748343255121917000066
100000000000000000000009077090001674800000000000000000000000010002100021335412191P00000000002            2  01213354121924121900000001487160000000001N091219000000000000000000000000000000000000000000000000000000000000000100021335464808RAQUEL FERREIRA RAMOS                   RUA ANTONIO SEVERIANO DE ANDRADE E SILVA            11702400                                                            000068
2SR. CAIXA, APOS O VENCIMENTO COBRAR 10% DE MULTA                                NAO RECEBER APOS 30 DIAS DO VENCIMENTO.                                                                                                                                                                                                         10121900000000000001012190000000000000       009077090001674821335412191P000069
100000000000000000000009077090001674800000000000000000000000010002100005627912191900000000002            2  01056279121924121900000001743830000000001N091219000000000000000000000000000000000000000000000000000000000000000100005627947861FERNANDO CESAR MARCELINO                TRAVESSA CHARLES LEBRUN - 83 - VILA NOVA            02312060                                                            000071
2SR. CAIXA, APOS O VENCIMENTO COBRAR 10% DE MULTA                                NAO RECEBER APOS 30 DIAS DO VENCIMENTO.                                                                                                                                                                                                         10121900000000000001012190000000000000       0090770900016748056279121919000072
100000000000000000000009077090001674800000000000000000000000010002100026187912191500000000002            2  01261879121924121900000001819750000000001N091219000000000000000000000000000000000000000000000000000000000000000100026187960807CARINA CANTACESSO DE SOUZA              RUA MONTE CASTELO - 296 AP.91 - AVIACAO             11702720                                                            000074
2SR. CAIXA, APOS O VENCIMENTO COBRAR 10% DE MULTA                                NAO RECEBER APOS 30 DIAS DO VENCIMENTO.                                                                                                                                                                                                         10121900000000000001012190000000000000       0090770900016748261879121915000075
100000000000000000000009077090001674800000000000000000000000010002100004864912191000000000002            2  01048649121924121900000002432160000000001N091219000000000000000000000000000000000000000000000000000000000000000100004864924600RENATO SANTACHIARA SALVADORI            RUA PENSYLVANIA - 116 - PAYSAGE BRISE -             06730000                                                            000077
2SR. CAIXA, APOS O VENCIMENTO COBRAR 10% DE MULTA                                NAO RECEBER APOS 30 DIAS DO VENCIMENTO.                                                                                                                                                                                                         10121900000000000001012190000000000000       0090770900016748048649121910000078
100000000000000000000009077090001674800000000000000000000000010002100026647612191700000000002            2  01266476121924121900000026939570000000001N091219000000000000000000000000000000000000000000000000000000000000000100026647690816CLAUDIA FUKUDA OGATA BURATTO            RUA DINAMARCA - 449 - BAIRRO TABOAO - SA            09668080                                                            000080
2SR. CAIXA, APOS O VENCIMENTO COBRAR 10% DE MULTA                                NAO RECEBER APOS 30 DIAS DO VENCIMENTO.                                                                                                                                                                                                         10121900000000000001012190000000000000       0090770900016748266476121917000081
100000000000000000000009077090001674800000000000000000000000010002100026647612192500000000002            2  01266476121924121900000002693960000000001N091219000000000000000000000000000000000000000000000000000000000000000100026647690816CLAUDIA FUKUDA OGATA BURATTO            RUA DINAMARCA - 449 - BAIRRO TABOAO - SA            09668080                                                            000083
2SR. CAIXA, APOS O VENCIMENTO COBRAR 10% DE MULTA                                NAO RECEBER APOS 30 DIAS DO VENCIMENTO.                                                                                                                                                                                                         10121900000000000001012190000000000000       0090770900016748266476121925000084
9                                                                                                                                                                                                                                                                                                                                                                                                         000085