01REMESSA01COBRANCA       00000000000004991454AIRES CONSTRUTORA E INCORPORAD237BRADESCO       091018        MX0000118                                                                                                                                                                                                                                                                                     000001
100000000000000000000009077090001674800000000000000000000000010002100049736710182700000000002            2  01497367101824101800000001400140000000001N091018000000000000000000000000000000000000000000000000000000000000000100049736787320RAIMUNDO VIEIRA DA SILVA                RUA BOLIVIA - 81 AP.ZELADORIA - JARDIM G            11701850                                                            000002
2SR. CAIXA, APOS O VENCIMENTO COBRAR 10% DE MULTA                                NAO RECEBER APOS 30 DIAS DO VENCIMENTO.                                                                                                                                                                                                         09101800000000000000910180000000000000       0090770900016748497367101827000003
100000000000000000000009077090001674800000000000000000000000010002100068806210181900000000002            2  01688062101824101800000001242620000000001N091018000000000000000000000000000000000000000000000000000000000000000100068806272853FATIMA MOREIRA SALOMAO                  RUA TORQUATO DE CAMILLO - 84 - CARANDA B            79032031                                                            000005
2SR. CAIXA, APOS O VENCIMENTO COBRAR 10% DE MULTA                                NAO RECEBER APOS 30 DIAS DO VENCIMENTO.                                                                                                                                                                                                         09101800000000000000910180000000000000       0090770900016748688062101819000006
100000000000000000000009077090001674800000000000000000000000010002100004201610181500000000002            2  01042016101824101800000001804740000000001N091018000000000000000000000000000000000000000000000000000000000000000100004201640817SANDRA APARECIDA TOJAL                  AVENIDA MASCOTE - 81 AP.132 BL.A - VILA             04363000                                                            000008
2SR. CAIXA, APOS O VENCIMENTO COBRAR 10% DE MULTA                                NAO RECEBER APOS 30 DIAS DO VENCIMENTO.                                                                                                                                                                                                         09101800000000000000910180000000000000       0090770900016748042016101815000009
100000000000000000000009077090001674800000000000000000000000010002100025278910181900000000002            2  01252789101824101800000001932660000000001N091018000000000000000000000000000000000000000000000000000000000000000100025278913819FERNANDO LOPES DA SILVA                 RUA RUBEN DE SOUZA - 387 AP.24A - VILA I            04653170                                                            000011
2SR. CAIXA, APOS O VENCIMENTO COBRAR 10% DE MULTA                                NAO RECEBER APOS 30 DIAS DO VENCIMENTO.                                                                                                                                                                                                         09101800000000000000910180000000000000       0090770900016748252789101819000012
100000000000000000000009077090001674800000000000000000000000010002100000024610181P00000000002            2  01000246101824101800000002148520000000001N091018000000000000000000000000000000000000000000000000000000000000000100000024633852JAYME MASRI                             RUA MONTE CASTELO - 296 AP.24 - BAIRRO A            11702720                                                            000014
2SR. CAIXA, APOS O VENCIMENTO COBRAR 10% DE MULTA                                NAO RECEBER APOS 30 DIAS DO VENCIMENTO.                                                                                                                                                                                                         09101800000000000000910180000000000000       009077090001674800024610181P000015
100000000000000000000009077090001674800000000000000000000000010002100013184410181300000000002            2  01131844101824101800000002230930000000001N091018000000000000000000000000000000000000000000000000000000000000000100013184404838CLAUDIO GOMES BAHIA                     RUA MARIA CONCEICAO - 89 - VILA SAO PEDR            07032070                                                            000017
2SR. CAIXA, APOS O VENCIMENTO COBRAR 10% DE MULTA                                NAO RECEBER APOS 30 DIAS DO VENCIMENTO.                                                                                                                                                                                                         09101800000000000000910180000000000000       0090770900016748131844101813000018
100000000000000000000009077090001674800000000000000000000000010002100006055510181900000000002            2  01060555101824101800000003378390000000001N091018000000000000000000000000000000000000000000000000000000000000000100006055565803EDSON ALVES                             RUA EDGAR CODAZZI - 49 CASA 02 - CIDADE             08225280                                                            000020
2SR. CAIXA, APOS O VENCIMENTO COBRAR 10% DE MULTA                                NAO RECEBER APOS 30 DIAS DO VENCIMENTO.                                                                                                                                                                                                         09101800000000000000910180000000000000       0090770900016748060555101819000021
100000000000000000000009077090001674800000000000000000000000010002100003441210181700000000002            2  01034412101824101800000002146290000000001N091018000000000000000000000000000000000000000000000000000000000000000100003441232860LUIZ CARLOS CAMARGO BIANCHI             RUA GENERAL LEITE DE CASTRO - 200 - JARD            04182020                                                            000023
2SR. CAIXA, APOS O VENCIMENTO COBRAR 10% DE MULTA                                NAO RECEBER APOS 30 DIAS DO VENCIMENTO.                                                                                                                                                                                                         09101800000000000000910180000000000000       0090770900016748034412101817000024
100000000000000000000009077090001674800000000000000000000000010002100014681410181600000000002            2  01146814101824101800000002226600000000001N091018000000000000000000000000000000000000000000000000000000000000000100014681490830HUMBERTO MOZART CALIXTO                 RUA MONTE CASTELO - 296 AP.41 - AVIACAO             11702720                                                            000026
2SR. CAIXA, APOS O VENCIMENTO COBRAR 10% DE MULTA                                NAO RECEBER APOS 30 DIAS DO VENCIMENTO.                                                                                                                                                                                                         09101800000000000000910180000000000000       0090770900016748146814101816000027
100000000000000000000009077090001674800000000000000000000000010002100023007710181900000000002            2  01230077101824101800000001820610000000001N091018000000000000000000000000000000000000000000000000000000000000000100023007705800BRUNA ANTUN AZEVEDO                     RUA MONTE CASTELO - 296 AP.62 - AVIACAO             11702720                                                            000029
2SR. CAIXA, APOS O VENCIMENTO COBRAR 10% DE MULTA                                NAO RECEBER APOS 30 DIAS DO VENCIMENTO.                                                                                                                                                                                                         09101800000000000000910180000000000000       0090770900016748230077101819000030
100000000000000000000009077090001674800000000000000000000000010002100006550710181700000000002            2  01065507101824101800000001879740000000001N091018000000000000000000000000000000000000000000000000000000000000000100006550730864IVONE APARECIDA VIEIRA GADI TEIXEIRA    RUA SAO FLORENCIO  - 1500 AP.44 BLOCO 01            03733020                                                            000032
2SR. CAIXA, APOS O VENCIMENTO COBRAR 10% DE MULTA                                NAO RECEBER APOS 30 DIAS DO VENCIMENTO.                                                                                                                                                                                                         09101800000000000000910180000000000000       0090770900016748065507101817000033
100000000000000000000009077090001674800000000000000000000000010002100000930610181100000000002            2  01009306101824101800000003367840000000001N091018000000000000000000000000000000000000000000000000000000000000000100000930668642VALERIA RODRIGUES DANTAS                RUA MONTE CASTELO - 262 AP.21 - AVIACAO             11702720                                                            000035
2SR. CAIXA, APOS O VENCIMENTO COBRAR 10% DE MULTA                                NAO RECEBER APOS 30 DIAS DO VENCIMENTO.                                                                                                                                                                                                         09101800000000000000910180000000000000       0090770900016748009306101811000036
100000000000000000000009077090001674800000000000000000000000010002100084057910181500000000002            2  01840579101827101800000002000000000000001N091018000000000000000000000000000000000000000000000000000000000000000100084057904891ANTONIO GONZAGA DOS SANTOS              RUA BRIGADEIRO JOSE FERREIRA - 319 - CAN            11700470                                                            000038
2SR. CAIXA, APOS O VENCIMENTO COBRAR 10% DE MULTA                                NAO RECEBER APOS 30 DIAS DO VENCIMENTO.                                                                                                                                                                                                         09101800000000000000910180000000000000       0090770900016748840579101815000039
100000000000000000000009077090001674800000000000000000000000010002100075574010181500000000002            2  01755740101824101800000002909740000000001N091018000000000000000000000000000000000000000000000000000000000000000100075574063891CASSIO TADEU DA SILVEIRA                RUA CONSELHEIRO MOREIRA DE BARROS - 1.55            02430000                                                            000041
2SR. CAIXA, APOS O VENCIMENTO COBRAR 10% DE MULTA                                NAO RECEBER APOS 30 DIAS DO VENCIMENTO.                                                                                                                                                                                                         09101800000000000000910180000000000000       0090770900016748755740101815000042
100000000000000000000009077090001674800000000000000000000000010002100000764610181300000000002            2  01007646101824101800000002151900000000001N091018000000000000000000000000000000000000000000000000000000000000000100000764632817LUIZ CARLOS ANTUNES JUNIOR              RUA MONTE CASTELO - 262 AP.35 - AVIACAO             11702720                                                            000044
2SR. CAIXA, APOS O VENCIMENTO COBRAR 10% DE MULTA                                NAO RECEBER APOS 30 DIAS DO VENCIMENTO.                                                                                                                                                                                                         09101800000000000000910180000000000000       0090770900016748007646101813000045
100000000000000000000009077090001674800000000000000000000000010002100027317610181300000000002            2  01273176101824101800000002109260000000001N091018000000000000000000000000000000000000000000000000000000000000000100027317668591ERONILTON SOUSA MOTA                    AVENIDA PRESIDENTE KENNEDY - 3203 - AVIA            11701330                                                            000047
2SR. CAIXA, APOS O VENCIMENTO COBRAR 10% DE MULTA                                NAO RECEBER APOS 30 DIAS DO VENCIMENTO.                                                                                                                                                                                                         09101800000000000000910180000000000000       0090770900016748273176101813000048
100000000000000000000009077090001674800000000000000000000000010002100066104110181300000000002            2  01661041101824101800000002175420000000001N091018000000000000000000000000000000000000000000000000000000000000000100066104106820ANADIR FERREIRA                         RUA MONTE CASTELO - 296 AP.61 - AVIACAO             11702720                                                            000050
2SR. CAIXA, APOS O VENCIMENTO COBRAR 10% DE MULTA                                NAO RECEBER APOS 30 DIAS DO VENCIMENTO.                                                                                                                                                                                                         09101800000000000000910180000000000000       0090770900016748661041101813000051
100000000000000000000009077090001674800000000000000000000000010002100072078310181000000000002            2  01720783101824101800000001093800000000001N091018000000000000000000000000000000000000000000000000000000000000000100072078332704FATIMA DA CONCEICAO BEZERRA             RUA DO MANIFESTO - 2.822 CASA 5 - IPIRAN            04209003                                                            000053
2SR. CAIXA, APOS O VENCIMENTO COBRAR 10% DE MULTA                                NAO RECEBER APOS 30 DIAS DO VENCIMENTO.                                                                                                                                                                                                         09101800000000000000910180000000000000       0090770900016748720783101810000054
100000000000000000000009077090001674800000000000000000000000010002100057014510181P00000000002            2  01570145101824101800000002442490000000001N091018000000000000000000000000000000000000000000000000000000000000000100057014582887SONIA MARIA DA SILVA PEGORARO           RUA FRANCO PAULISTA  - 80 - AGUA FRIA -             02332030                                                            000056
2SR. CAIXA, APOS O VENCIMENTO COBRAR 10% DE MULTA                                NAO RECEBER APOS 30 DIAS DO VENCIMENTO.                                                                                                                                                                                                         09101800000000000000910180000000000000       009077090001674857014510181P000057
100000000000000000000009077090001674800000000000000000000000010002100006505310181700000000002            2  01065053101824101800000002654740000000001N091018000000000000000000000000000000000000000000000000000000000000000100006505382852LUIS ANTONIO DINIS HENRIQUES            RUA ESTEVAO  BAIAO - 520 AP.93A - CAMPO             04624002                                                            000059
2SR. CAIXA, APOS O VENCIMENTO COBRAR 10% DE MULTA                                NAO RECEBER APOS 30 DIAS DO VENCIMENTO.                                                                                                                                                                                                         09101800000000000000910180000000000000       0090770900016748065053101817000060
100000000000000000000009077090001674800000000000000000000000010002100011544710181P00000000002            2  01115447101824101800000004822690000000001N091018000000000000000000000000000000000000000000000000000000000000000100011544777620GRACIELY RODRIGUES FERNANDES            RUA MONTE CASTELO - 262 AP.111 - AVIACAO            11702720                                                            000062
2SR. CAIXA, APOS O VENCIMENTO COBRAR 10% DE MULTA                                NAO RECEBER APOS 30 DIAS DO VENCIMENTO.                                                                                                                                                                                                         09101800000000000000910180000000000000       009077090001674811544710181P000063
100000000000000000000009077090001674800000000000000000000000010002100005629010181400000000002            2  01056290101824101800000003507530000000001N091018000000000000000000000000000000000000000000000000000000000000000100005629087819ROMILDO MARTINS PIZA                    RUA MAESTRO ARTURO DE ANGELIS - 190 AP.3            05139010                                                            000065
2SR. CAIXA, APOS O VENCIMENTO COBRAR 10% DE MULTA                                NAO RECEBER APOS 30 DIAS DO VENCIMENTO.                                                                                                                                                                                                         09101800000000000000910180000000000000       0090770900016748056290101814000066
100000000000000000000009077090001674800000000000000000000000010002100004290910181300000000002            2  01042909101824101800000001869630000000001N091018000000000000000000000000000000000000000000000000000000000000000100004290973876WLADIMIR PAIOLA BORREGO                 RUA GOMES - 429 - VILA IVONE - SAO PAULO            03275010                                                            000068
2SR. CAIXA, APOS O VENCIMENTO COBRAR 10% DE MULTA                                NAO RECEBER APOS 30 DIAS DO VENCIMENTO.                                                                                                                                                                                                         09101800000000000000910180000000000000       0090770900016748042909101813000069
100000000000000000000009077090001674800000000000000000000000010002100034325510181900000000002            2  01343255101824101800000001770030000000001N091018000000000000000000000000000000000000000000000000000000000000000100034325567801LUIZ FERNANDO ALAMINO                   RUA MONTE CASTELO - 296 AP.21 - AVIACAO             11702720                                                            000071
2SR. CAIXA, APOS O VENCIMENTO COBRAR 10% DE MULTA                                NAO RECEBER APOS 30 DIAS DO VENCIMENTO.                                                                                                                                                                                                         09101800000000000000910180000000000000       0090770900016748343255101819000072
100000000000000000000009077090001674800000000000000000000000010002100018272710181400000000002            2  01182727101827101800000001800000000000001N091018000000000000000000000000000000000000000000000000000000000000000100018272729881HENRY CESAR UEDA                        RUA MONTE CASTELO - 295 AP.94 - AVIACAO             11702720                                                            000074
2SR. CAIXA, APOS O VENCIMENTO COBRAR 10% DE MULTA                                NAO RECEBER APOS 30 DIAS DO VENCIMENTO.                                                                                                                                                                                                         09101800000000000000910180000000000000       0090770900016748182727101814000075
100000000000000000000009077090001674800000000000000000000000010002100021335410181100000000002            2  01213354101824101800000001339440000000001N091018000000000000000000000000000000000000000000000000000000000000000100021335464808RAQUEL FERREIRA RAMOS                   RUA ANTONIO SEVERIANO DE ANDRADE E SILVA            11702400                                                            000077
2SR. CAIXA, APOS O VENCIMENTO COBRAR 10% DE MULTA                                NAO RECEBER APOS 30 DIAS DO VENCIMENTO.                                                                                                                                                                                                         09101800000000000000910180000000000000       0090770900016748213354101811000078
100000000000000000000009077090001674800000000000000000000000010002100005627910181000000000002            2  01056279101824101800000001570620000000001N091018000000000000000000000000000000000000000000000000000000000000000100005627947861FERNANDO CESAR MARCELINO                TRAVESSA CHARLES LEBRUN - 83 - VILA NOVA            02312060                                                            000080
2SR. CAIXA, APOS O VENCIMENTO COBRAR 10% DE MULTA                                NAO RECEBER APOS 30 DIAS DO VENCIMENTO.                                                                                                                                                                                                         09101800000000000000910180000000000000       0090770900016748056279101810000081
100000000000000000000009077090001674800000000000000000000000010002100026187910181700000000002            2  01261879101824101800000001638990000000001N091018000000000000000000000000000000000000000000000000000000000000000100026187960807CARINA CANTACESSO DE SOUZA              RUA MONTE CASTELO - 296 AP.91 - AVIACAO             11702720                                                            000083
2SR. CAIXA, APOS O VENCIMENTO COBRAR 10% DE MULTA                                NAO RECEBER APOS 30 DIAS DO VENCIMENTO.                                                                                                                                                                                                         09101800000000000000910180000000000000       0090770900016748261879101817000084
9                                                                                                                                                                                                                                                                                                                                                                                                         000085