01REMESSA01COBRANCA       00000000000004991788AIRES DESENVOLVIMENTO IMOBILIA237BRADESCO       010218        MX0000123                                                                                                                                                                                                                                                                                     000001
100000000000000000000009077090011897400000000000000000000000010002100011088002181000000000002            2  01110880021825021800000001858700000000001N010218000000000000000000000000000000000000000000000000000000000000000100011088018890LUIZ CARLOS VITORINO MADEIRA            RUA JOSE CALIXTO DO CARMO - 265 AP. 32 -            11702690                                                            000002
2SR. CAIXA, APOS O VENCIMENTO COBRAR 10% DE MULTA                                NAO RECEBER APOS 30 DIAS DO VENCIMENTO.                                                                                                                                                                                                         01021800000000000000102180000000000000       0090770900118974110880021810000003
100000000000000000000009077090011897400000000000000000000000010002100004007802181500000000002            2  01040078021825021800000002704640000000001N010218000000000000000000000000000000000000000000000000000000000000000100004007807809CLAUDIO CANESCHI                        RUA AGRESTE  DE ITABAINA - 663 - VILA UN            03683000                                                            000005
2SR. CAIXA, APOS O VENCIMENTO COBRAR 10% DE MULTA                                NAO RECEBER APOS 30 DIAS DO VENCIMENTO.                                                                                                                                                                                                         01021800000000000000102180000000000000       0090770900118974040078021815000006
100000000000000000000009077090011897400000000000000000000000010002100000796502181400000000002            2  01007965021825021800000003016640000000001N010218000000000000000000000000000000000000000000000000000000000000000100000796517800WLADIMIR RODRIGUES                      R:JOSE DA SILVA RIBEIRO - 576 AP.233 - B            05726130                                                            000008
2SR. CAIXA, APOS O VENCIMENTO COBRAR 10% DE MULTA                                NAO RECEBER APOS 30 DIAS DO VENCIMENTO.                                                                                                                                                                                                         01021800000000000000102180000000000000       0090770900118974007965021814000009
100000000000000000000009077090011897400000000000000000000000010002100015110702181800000000002            2  01151107021825021800000002934610000000001N010218000000000000000000000000000000000000000000000000000000000000000100015110751803LILIAN CARRARA DA SILVA CANDIDO         ALAMEDA VICENTE DE CARVALHO - 65 - JARDI            07600000                                                            000011
2SR. CAIXA, APOS O VENCIMENTO COBRAR 10% DE MULTA                                NAO RECEBER APOS 30 DIAS DO VENCIMENTO.                                                                                                                                                                                                         01021800000000000000102180000000000000       0090770900118974151107021818000012
100000000000000000000009077090011897400000000000000000000000010002100005204602181100000000002            2  01052046021825021800000002838680000000001N010218000000000000000000000000000000000000000000000000000000000000000100005204692835RINALDO DA MOTTA                        JOSE CALIXTO DO CARMO - 265 AP.93 - AVIA            11702690                                                            000014
2SR. CAIXA, APOS O VENCIMENTO COBRAR 10% DE MULTA                                NAO RECEBER APOS 30 DIAS DO VENCIMENTO.                                                                                                                                                                                                         01021800000000000000102180000000000000       0090770900118974052046021811000015
100000000000000000000009077090011897400000000000000000000000010002100022090402181700000000002            2  01220904021825021800000002248690000000001N010218000000000000000000000000000000000000000000000000000000000000000100022090439807FELIPE LUCIO LOPES                      RUA JOSE CALIXTO DO CARMO - 265 AP.103 -            11702690                                                            000017
2SR. CAIXA, APOS O VENCIMENTO COBRAR 10% DE MULTA                                NAO RECEBER APOS 30 DIAS DO VENCIMENTO.                                                                                                                                                                                                         01021800000000000000102180000000000000       0090770900118974220904021817000018
100000000000000000000009077090011897400000000000000000000000010002100005677402181500000000002            2  01056774021825021800000002953870000000001N010218000000000000000000000000000000000000000000000000000000000000000100005677409863ROSA MARIA OLIVIERI MEMOLI              CONSELHEIRO NEBIAS - 1409 - CAMPOS ELISE            01203002                                                            000020
2SR. CAIXA, APOS O VENCIMENTO COBRAR 10% DE MULTA                                NAO RECEBER APOS 30 DIAS DO VENCIMENTO.                                                                                                                                                                                                         01021800000000000000102180000000000000       0090770900118974056774021815000021
100000000000000000000009077090011897400000000000000000000000010002100034771602181800000000002            2  01347716021825021800000002822690000000001N010218000000000000000000000000000000000000000000000000000000000000000100034771609837MARCELO ALEXANDRE CARVALHO              RUA ECAUNA - 222 - JARDIM UMARIZAL - SAO            05754040                                                            000023
2SR. CAIXA, APOS O VENCIMENTO COBRAR 10% DE MULTA                                NAO RECEBER APOS 30 DIAS DO VENCIMENTO.                                                                                                                                                                                                         01021800000000000000102180000000000000       0090770900118974347716021818000024
100000000000000000000009077090011897400000000000000000000000010002100014497902181400000000002            2  01144979021824021800000001890130000000001N010218000000000000000000000000000000000000000000000000000000000000000100014497915816FERNANDO JOSE ARRUDA                    RUA JOSE CALIXTO DO CARMO - 265 AP.113 -            11702690                                                            000026
2SR. CAIXA, APOS O VENCIMENTO COBRAR 10% DE MULTA                                NAO RECEBER APOS 30 DIAS DO VENCIMENTO.                                                                                                                                                                                                         01021800000000000000102180000000000000       0090770900118974144979021814000027
100000000000000000000009077090011897400000000000000000000000010002100027324002181000000000002            2  01273240021824021800000001425500000000001N010218000000000000000000000000000000000000000000000000000000000000000100027324099874LEONARDO BORGES DUARTE SILVA            RUA JOSE CALIXTO DO CARMO - 265 AP.94 -             11702690                                                            000029
2SR. CAIXA, APOS O VENCIMENTO COBRAR 10% DE MULTA                                NAO RECEBER APOS 30 DIAS DO VENCIMENTO.                                                                                                                                                                                                         01021800000000000000102180000000000000       0090770900118974273240021810000030
100000000000000000000009077090011897400000000000000000000000010002100036782002181200000000002            2  01367820021824021800000001372270000000001N010218000000000000000000000000000000000000000000000000000000000000000100036782058871ANA PAULA BUENO DA COSTA                RUA MARIQUITA ARTACHO - 218 CASA 3 - JAR            03716000                                                            000032
2SR. CAIXA, APOS O VENCIMENTO COBRAR 10% DE MULTA                                NAO RECEBER APOS 30 DIAS DO VENCIMENTO.                                                                                                                                                                                                         01021800000000000000102180000000000000       0090770900118974367820021812000033
9                                                                                                                                                                                                                                                                                                                                                                                                         000034