01REMESSA01COBRANCA       00000000000004991454AIRES CONSTRUTORA E INCORPORAD237BRADESCO       130120        MX0000148                                                                                                                                                                                                                                                                                     000001
100000000000000000000009077090001674800000000000000000000000010002100026984101201300000000002            2  01269841012024012000000001566200000000001N130120000000000000000000000000000000000000000000000000000000000000000100026984181844GISELE APARECIDA MAGALHAES              RUA GRACILIANO RAMOS - 181 - BAIRRO SAO             09581410                                                            000002
2SR. CAIXA, APOS O VENCIMENTO COBRAR 10% DE MULTA                                NAO RECEBER APOS 30 DIAS DO VENCIMENTO.                                                                                                                                                                                                         13012000000000000001301200000000000000       0090770900016748269841012013000003
100000000000000000000009077090001674800000000000000000000000010002100068806201201800000000002            2  01688062012024012000000001389990000000001N130120000000000000000000000000000000000000000000000000000000000000000100068806272853FATIMA MOREIRA SALOMAO                  RUA TORQUATO DE CAMILLO - 84 - CARANDA B            79032031                                                            000005
2SR. CAIXA, APOS O VENCIMENTO COBRAR 10% DE MULTA                                NAO RECEBER APOS 30 DIAS DO VENCIMENTO.                                                                                                                                                                                                         13012000000000000001301200000000000000       0090770900016748688062012018000006
100000000000000000000009077090001674800000000000000000000000010002100004201601201400000000002            2  01042016012024012000000002018820000000001N130120000000000000000000000000000000000000000000000000000000000000000100004201640817SANDRA APARECIDA TOJAL                  AVENIDA MASCOTE - 81 AP.132 BL.A - VILA             04363000                                                            000008
2SR. CAIXA, APOS O VENCIMENTO COBRAR 10% DE MULTA                                NAO RECEBER APOS 30 DIAS DO VENCIMENTO.                                                                                                                                                                                                         13012000000000000001301200000000000000       0090770900016748042016012014000009
100000000000000000000009077090001674800000000000000000000000010002100000024601201900000000002            2  01000246012024012000000002403330000000001N130120000000000000000000000000000000000000000000000000000000000000000100000024633852JAYME MASRI                             RUA MONTE CASTELO - 296 AP.24 - BAIRRO A            11702720                                                            000011
2SR. CAIXA, APOS O VENCIMENTO COBRAR 10% DE MULTA                                NAO RECEBER APOS 30 DIAS DO VENCIMENTO.                                                                                                                                                                                                         13012000000000000001301200000000000000       0090770900016748000246012019000012
100000000000000000000009077090001674800000000000000000000000010002100013184401201200000000002            2  01131844012024012000000002495530000000001N130120000000000000000000000000000000000000000000000000000000000000000100013184404838CLAUDIO GOMES BAHIA                     RUA MARIA CONCEICAO - 89 - VILA SAO PEDR            07032070                                                            000014
2SR. CAIXA, APOS O VENCIMENTO COBRAR 10% DE MULTA                                NAO RECEBER APOS 30 DIAS DO VENCIMENTO.                                                                                                                                                                                                         13012000000000000001301200000000000000       0090770900016748131844012012000015
100000000000000000000009077090001674800000000000000000000000010002100006055501201800000000002            2  01060555012024012000000003779070000000001N130120000000000000000000000000000000000000000000000000000000000000000100006055565803EDSON ALVES                             RUA EDGAR CODAZZI - 49 CASA 02 - CIDADE             08225280                                                            000017
2SR. CAIXA, APOS O VENCIMENTO COBRAR 10% DE MULTA                                NAO RECEBER APOS 30 DIAS DO VENCIMENTO.                                                                                                                                                                                                         13012000000000000001301200000000000000       0090770900016748060555012018000018
100000000000000000000009077090001674800000000000000000000000010002100021899201201100000000002            2  01218992012024012000000036621010000000001N130120000000000000000000000000000000000000000000000000000000000000000100021899277811ALESSANDRE ALVES ANDRADE                RUA MONTE CASTELO - 262 AP.132 - AVIACAO            11702720                                                            000020
2SR. CAIXA, APOS O VENCIMENTO COBRAR 10% DE MULTA                                NAO RECEBER APOS 30 DIAS DO VENCIMENTO.                                                                                                                                                                                                         13012000000000000001301200000000000000       0090770900016748218992012011000021
100000000000000000000009077090001674800000000000000000000000010002100021899201202P00000000002            2  01218992012024012000000002753430000000001N130120000000000000000000000000000000000000000000000000000000000000000100021899277811ALESSANDRE ALVES ANDRADE                RUA MONTE CASTELO - 262 AP.132 - AVIACAO            11702720                                                            000023
2SR. CAIXA, APOS O VENCIMENTO COBRAR 10% DE MULTA                                NAO RECEBER APOS 30 DIAS DO VENCIMENTO.                                                                                                                                                                                                         13012000000000000001301200000000000000       009077090001674821899201202P000024
100000000000000000000009077090001674800000000000000000000000010002100003441201201600000000002            2  01034412012024012000000002400870000000001N130120000000000000000000000000000000000000000000000000000000000000000100003441232860LUIZ CARLOS CAMARGO BIANCHI             RUA GENERAL LEITE DE CASTRO - 200 - JARD            04182020                                                            000026
2SR. CAIXA, APOS O VENCIMENTO COBRAR 10% DE MULTA                                NAO RECEBER APOS 30 DIAS DO VENCIMENTO.                                                                                                                                                                                                         13012000000000000001301200000000000000       0090770900016748034412012016000027
100000000000000000000009077090001674800000000000000000000000010002100014681401201500000000002            2  01146814012024012000000002490700000000001N130120000000000000000000000000000000000000000000000000000000000000000100014681490830HUMBERTO MOZART CALIXTO                 RUA MONTE CASTELO - 296 AP.41 - AVIACAO             11702720                                                            000029
2SR. CAIXA, APOS O VENCIMENTO COBRAR 10% DE MULTA                                NAO RECEBER APOS 30 DIAS DO VENCIMENTO.                                                                                                                                                                                                         13012000000000000001301200000000000000       0090770900016748146814012015000030
100000000000000000000009077090001674800000000000000000000000010002100023007701201800000000002            2  01230077012024012000000002036530000000001N130120000000000000000000000000000000000000000000000000000000000000000100023007705800BRUNA ANTUN AZEVEDO                     RUA MONTE CASTELO - 296 AP.62 - AVIACAO             11702720                                                            000032
2SR. CAIXA, APOS O VENCIMENTO COBRAR 10% DE MULTA                                NAO RECEBER APOS 30 DIAS DO VENCIMENTO.                                                                                                                                                                                                         13012000000000000001301200000000000000       0090770900016748230077012018000033
100000000000000000000009077090001674800000000000000000000000010002100006550701201600000000002            2  01065507012024012000000002102690000000001N130120000000000000000000000000000000000000000000000000000000000000000100006550730864IVONE APARECIDA VIEIRA GADI TEIXEIRA    RUA SAO FLORENCIO  - 1500 AP.44 BLOCO 01            03733020                                                            000035
2SR. CAIXA, APOS O VENCIMENTO COBRAR 10% DE MULTA                                NAO RECEBER APOS 30 DIAS DO VENCIMENTO.                                                                                                                                                                                                         13012000000000000001301200000000000000       0090770900016748065507012016000036
100000000000000000000009077090001674800000000000000000000000010002100075574001201400000000002            2  01755740012024012000000003254840000000001N130120000000000000000000000000000000000000000000000000000000000000000100075574063891CASSIO TADEU DA SILVEIRA                RUA CONSELHEIRO MOREIRA DE BARROS - 1.55            02430000                                                            000038
2SR. CAIXA, APOS O VENCIMENTO COBRAR 10% DE MULTA                                NAO RECEBER APOS 30 DIAS DO VENCIMENTO.                                                                                                                                                                                                         13012000000000000001301200000000000000       0090770900016748755740012014000039
100000000000000000000009077090001674800000000000000000000000010002100000764601201200000000002            2  01007646012024012000000002407120000000001N130120000000000000000000000000000000000000000000000000000000000000000100000764632817LUIZ CARLOS ANTUNES JUNIOR              RUA MONTE CASTELO - 262 AP.35 - AVIACAO             11702720                                                            000041
2SR. CAIXA, APOS O VENCIMENTO COBRAR 10% DE MULTA                                NAO RECEBER APOS 30 DIAS DO VENCIMENTO.                                                                                                                                                                                                         13012000000000000001301200000000000000       0090770900016748007646012012000042
100000000000000000000009077090001674800000000000000000000000010002100057014501201900000000002            2  01570145012024012000000002732180000000001N130120000000000000000000000000000000000000000000000000000000000000000100057014582887SONIA MARIA DA SILVA PEGORARO           RUA FRANCO PAULISTA  - 80 - AGUA FRIA -             02332030                                                            000044
2SR. CAIXA, APOS O VENCIMENTO COBRAR 10% DE MULTA                                NAO RECEBER APOS 30 DIAS DO VENCIMENTO.                                                                                                                                                                                                         13012000000000000001301200000000000000       0090770900016748570145012019000045
100000000000000000000009077090001674800000000000000000000000010002100006505301201600000000002            2  01065053012024012000000002969610000000001N130120000000000000000000000000000000000000000000000000000000000000000100006505382852LUIS ANTONIO DINIS HENRIQUES            RUA ESTEVAO  BAIAO - 520 AP.93A - CAMPO             04624002                                                            000047
2SR. CAIXA, APOS O VENCIMENTO COBRAR 10% DE MULTA                                NAO RECEBER APOS 30 DIAS DO VENCIMENTO.                                                                                                                                                                                                         13012000000000000001301200000000000000       0090770900016748065053012016000048
100000000000000000000009077090001674800000000000000000000000010002100011544701201900000000002            2  01115447012024012000000005394680000000001N130120000000000000000000000000000000000000000000000000000000000000000100011544777620GRACIELY RODRIGUES FERNANDES            RUA MONTE CASTELO - 262 AP.111 - AVIACAO            11702720                                                            000050
2SR. CAIXA, APOS O VENCIMENTO COBRAR 10% DE MULTA                                NAO RECEBER APOS 30 DIAS DO VENCIMENTO.                                                                                                                                                                                                         13012000000000000001301200000000000000       0090770900016748115447012019000051
100000000000000000000009077090001674800000000000000000000000010002100005629001201300000000002            2  01056290012024012000000003923530000000001N130120000000000000000000000000000000000000000000000000000000000000000100005629087819ROMILDO MARTINS PIZA                    RUA MAESTRO ARTURO DE ANGELIS - 190 AP.3            05139010                                                            000053
2SR. CAIXA, APOS O VENCIMENTO COBRAR 10% DE MULTA                                NAO RECEBER APOS 30 DIAS DO VENCIMENTO.                                                                                                                                                                                                         13012000000000000001301200000000000000       0090770900016748056290012013000054
100000000000000000000009077090001674800000000000000000000000010002100034325501201800000000002            2  01343255012024012000000001979970000000001N130120000000000000000000000000000000000000000000000000000000000000000100034325567801LUIZ FERNANDO ALAMINO                   RUA GALDINO NASCIMENTO - 45 - PARQUE GUA            08431650                                                            000056
2SR. CAIXA, APOS O VENCIMENTO COBRAR 10% DE MULTA                                NAO RECEBER APOS 30 DIAS DO VENCIMENTO.                                                                                                                                                                                                         13012000000000000001301200000000000000       0090770900016748343255012018000057
100000000000000000000009077090001674800000000000000000000000010002100021335401201000000000002            2  01213354012024012000000005762710000000001N130120000000000000000000000000000000000000000000000000000000000000000100021335464808RAQUEL FERREIRA RAMOS                   RUA ANTONIO SEVERIANO DE ANDRADE E SILVA            11702400                                                            000059
2SR. CAIXA, APOS O VENCIMENTO COBRAR 10% DE MULTA                                NAO RECEBER APOS 30 DIAS DO VENCIMENTO.                                                                                                                                                                                                         13012000000000000001301200000000000000       0090770900016748213354012010000060
100000000000000000000009077090001674800000000000000000000000010002100021335401202900000000002            2  01213354012024012000000001498310000000001N130120000000000000000000000000000000000000000000000000000000000000000100021335464808RAQUEL FERREIRA RAMOS                   RUA ANTONIO SEVERIANO DE ANDRADE E SILVA            11702400                                                            000062
2SR. CAIXA, APOS O VENCIMENTO COBRAR 10% DE MULTA                                NAO RECEBER APOS 30 DIAS DO VENCIMENTO.                                                                                                                                                                                                         13012000000000000001301200000000000000       0090770900016748213354012029000063
100000000000000000000009077090001674800000000000000000000000010002100005627901201P00000000002            2  01056279012024012000000001756910000000001N130120000000000000000000000000000000000000000000000000000000000000000100005627947861FERNANDO CESAR MARCELINO                TRAVESSA CHARLES LEBRUN - 83 - VILA NOVA            02312060                                                            000065
2SR. CAIXA, APOS O VENCIMENTO COBRAR 10% DE MULTA                                NAO RECEBER APOS 30 DIAS DO VENCIMENTO.                                                                                                                                                                                                         13012000000000000001301200000000000000       009077090001674805627901201P000066
100000000000000000000009077090001674800000000000000000000000010002100026187901201600000000002            2  01261879012024012000000001833400000000001N130120000000000000000000000000000000000000000000000000000000000000000100026187960807CARINA CANTACESSO DE SOUZA              RUA MONTE CASTELO - 296 AP.91 - AVIACAO             11702720                                                            000068
2SR. CAIXA, APOS O VENCIMENTO COBRAR 10% DE MULTA                                NAO RECEBER APOS 30 DIAS DO VENCIMENTO.                                                                                                                                                                                                         13012000000000000001301200000000000000       0090770900016748261879012016000069
100000000000000000000009077090001674800000000000000000000000010002100004864901201100000000002            2  01048649012024012000000002450400000000001N130120000000000000000000000000000000000000000000000000000000000000000100004864924600RENATO SANTACHIARA SALVADORI            RUA PENSYLVANIA - 116 - PAYSAGE BRISE -             06730000                                                            000071
2SR. CAIXA, APOS O VENCIMENTO COBRAR 10% DE MULTA                                NAO RECEBER APOS 30 DIAS DO VENCIMENTO.                                                                                                                                                                                                         13012000000000000001301200000000000000       0090770900016748048649012011000072
100000000000000000000009077090001674800000000000000000000000010002100026647601201800000000002            2  01266476012024012000000002714160000000001N130120000000000000000000000000000000000000000000000000000000000000000100026647690816CLAUDIA FUKUDA OGATA BURATTO            RUA DINAMARCA - 449 - BAIRRO TABOAO - SA            09668080                                                            000074
2SR. CAIXA, APOS O VENCIMENTO COBRAR 10% DE MULTA                                NAO RECEBER APOS 30 DIAS DO VENCIMENTO.                                                                                                                                                                                                         13012000000000000001301200000000000000       0090770900016748266476012018000075
9                                                                                                                                                                                                                                                                                                                                                                                                         000076