01REMESSA01COBRANCA       00000000000004991788AIRES DESENVOLVIMENTO IMOBILIA237BRADESCO       091018        MX0000139                                                                                                                                                                                                                                                                                     000001
100000000000000000000009077090011897400000000000000000000000010002100011088010181400000000002            2  01110880101825101800000001934360000000001N091018000000000000000000000000000000000000000000000000000000000000000100011088018890LUIZ CARLOS VITORINO MADEIRA            RUA JOSE CALIXTO DO CARMO - 265 AP. 32 -            11702690                                                            000002
2SR. CAIXA, APOS O VENCIMENTO COBRAR 10% DE MULTA                                NAO RECEBER APOS 30 DIAS DO VENCIMENTO.                                                                                                                                                                                                         09101800000000000000910180000000000000       0090770900118974110880101814000003
100000000000000000000009077090011897400000000000000000000000010002100014497910181800000000002            2  01144979101824101800000002006580000000001N091018000000000000000000000000000000000000000000000000000000000000000100014497915816FERNANDO JOSE ARRUDA                    RUA JOSE CALIXTO DO CARMO - 265 AP.113 -            11702690                                                            000005
2SR. CAIXA, APOS O VENCIMENTO COBRAR 10% DE MULTA                                NAO RECEBER APOS 30 DIAS DO VENCIMENTO.                                                                                                                                                                                                         09101800000000000000910180000000000000       0090770900118974144979101818000006
100000000000000000000009077090011897400000000000000000000000010002100027324010181400000000002            2  01273240101824101800000001513310000000001N091018000000000000000000000000000000000000000000000000000000000000000100027324099874LEONARDO BORGES DUARTE SILVA            RUA JOSE CALIXTO DO CARMO - 265 AP.94 -             11702690                                                            000008
2SR. CAIXA, APOS O VENCIMENTO COBRAR 10% DE MULTA                                NAO RECEBER APOS 30 DIAS DO VENCIMENTO.                                                                                                                                                                                                         09101800000000000000910180000000000000       0090770900118974273240101814000009
100000000000000000000009077090011897400000000000000000000000010002100036782010181600000000002            2  01367820101824101800000001456790000000001N091018000000000000000000000000000000000000000000000000000000000000000100036782058871ANA PAULA BUENO DA COSTA                RUA MARIQUITA ARTACHO - 218 CASA 3 - JAR            03716000                                                            000011
2SR. CAIXA, APOS O VENCIMENTO COBRAR 10% DE MULTA                                NAO RECEBER APOS 30 DIAS DO VENCIMENTO.                                                                                                                                                                                                         09101800000000000000910180000000000000       0090770900118974367820101816000012
9                                                                                                                                                                                                                                                                                                                                                                                                         000013