01REMESSA01COBRANCA       00000000000004991788AIRES DESENVOLVIMENTO IMOBILIA237BRADESCO       060219        MX0000147                                                                                                                                                                                                                                                                                     000001
100000000000000000000009077090011897400000000000000000000000010002100014497902191100000000002            2  01144979021924021900000002067460000000001N060219000000000000000000000000000000000000000000000000000000000000000100014497915816FERNANDO JOSE ARRUDA                    RUA JOSE CALIXTO DO CARMO - 265 AP.113 -            11702690                                                            000002
2SR. CAIXA, APOS O VENCIMENTO COBRAR 10% DE MULTA                                NAO RECEBER APOS 30 DIAS DO VENCIMENTO.                                                                                                                                                                                                         06021900000000000000602190000000000000       0090770900118974144979021911000003
100000000000000000000009077090011897400000000000000000000000010002100027324002191800000000002            2  01273240021924021900000001559220000000001N060219000000000000000000000000000000000000000000000000000000000000000100027324099874LEONARDO BORGES DUARTE SILVA            RUA JOSE CALIXTO DO CARMO - 265 AP.94 -             11702690                                                            000005
2SR. CAIXA, APOS O VENCIMENTO COBRAR 10% DE MULTA                                NAO RECEBER APOS 30 DIAS DO VENCIMENTO.                                                                                                                                                                                                         06021900000000000000602190000000000000       0090770900118974273240021918000006
100000000000000000000009077090011897400000000000000000000000010002100084057902191900000000002            2  01840579021927021900000002000000000000001N060219000000000000000000000000000000000000000000000000000000000000000100084057904891ANTONIO GONZAGA DOS SANTOS              RUA BRIGADEIRO JOSE FERREIRA - 319 - CAN            11700470                                                            000008
2SR. CAIXA, APOS O VENCIMENTO COBRAR 10% DE MULTA                                NAO RECEBER APOS 30 DIAS DO VENCIMENTO.                                                                                                                                                                                                         06021900000000000000602190000000000000       0090770900118974840579021919000009
100000000000000000000009077090011897400000000000000000000000010002100036782002191P00000000002            2  01367820021924021900000001500990000000001N060219000000000000000000000000000000000000000000000000000000000000000100036782058871ANA PAULA BUENO DA COSTA                RUA MARIQUITA ARTACHO - 218 CASA 3 - JAR            03716000                                                            000011
2SR. CAIXA, APOS O VENCIMENTO COBRAR 10% DE MULTA                                NAO RECEBER APOS 30 DIAS DO VENCIMENTO.                                                                                                                                                                                                         06021900000000000000602190000000000000       009077090011897436782002191P000012
100000000000000000000009077090011897400000000000000000000000010002100018272702191800000000002            2  01182727021927021900000001800000000000001N060219000000000000000000000000000000000000000000000000000000000000000100018272729881HENRY CESAR UEDA                        RUA MONTE CASTELO - 295 AP.94 - AVIACAO             11702720                                                            000014
2SR. CAIXA, APOS O VENCIMENTO COBRAR 10% DE MULTA                                NAO RECEBER APOS 30 DIAS DO VENCIMENTO.                                                                                                                                                                                                         06021900000000000000602190000000000000       0090770900118974182727021918000015
9                                                                                                                                                                                                                                                                                                                                                                                                         000016