01REMESSA01COBRANCA       00000000000004991454AIRES CONSTRUTORA E INCORPORAD237BRADESCO       010120        MX0000147                                                                                                                                                                                                                                                                                     000001
100000000000000000000009077090001674800000000000000000000000010002100099740401201800000000002            2  01997404012009012000000003144970000000001N010120000000000000000000000000000000000000000000000000000000000000000100099740451853ARNALDO DA SILVA SALES                  RUA ALEGRE - 210 - VILA SAO RAFAEL - GUA            07053100                                                            000002
2SR. CAIXA, APOS O VENCIMENTO COBRAR 10% DE MULTA                                NAO RECEBER APOS 30 DIAS DO VENCIMENTO.                                                                                                                                                                                                         01012000000000000000101200000000000000       0090770900016748997404012018000003
100000000000000000000009077090001674800000000000000000000000010002100044380701201200000000002            2  01443807012009012000000005073180000000001N010120000000000000000000000000000000000000000000000000000000000000000100044380725812FERNANDO FIRMINO DOS SANTOS             RUA BARAO GERALDO DE RESENDE - 401 - BAI            05205220                                                            000005
2SR. CAIXA, APOS O VENCIMENTO COBRAR 10% DE MULTA                                NAO RECEBER APOS 30 DIAS DO VENCIMENTO.                                                                                                                                                                                                         01012000000000000000101200000000000000       0090770900016748443807012012000006
100000000000000000000009077090001674800000000000000000000000010002100025469401201300000000002            2  01254694012009012000000001579190000000001N010120000000000000000000000000000000000000000000000000000000000000000100025469470873JULIA MARIA RODRIGUES MARTINS           AVENIDA JOAO FIRMINO - 1229 AP.21 - BAIR            09810260                                                            000008
2SR. CAIXA, APOS O VENCIMENTO COBRAR 10% DE MULTA                                NAO RECEBER APOS 30 DIAS DO VENCIMENTO.                                                                                                                                                                                                         01012000000000000000101200000000000000       0090770900016748254694012013000009
100000000000000000000009077090001674800000000000000000000000010002100004759501201400000000002            2  01047595012009012000000003823340000000001N010120000000000000000000000000000000000000000000000000000000000000000100004759534873AGNALDO PORFIRIO DOS SANTOS             RUA JUVENCIO GASPAR DA SILVA - 35 - SAO             04303060                                                            000011
2SR. CAIXA, APOS O VENCIMENTO COBRAR 10% DE MULTA                                NAO RECEBER APOS 30 DIAS DO VENCIMENTO.                                                                                                                                                                                                         01012000000000000000101200000000000000       0090770900016748047595012014000012
100000000000000000000009077090001674800000000000000000000000010002100090830401201800000000002            2  01908304012009012000000001205340000000001N010120000000000000000000000000000000000000000000000000000000000000000100090830490868IVONETE FERNANDES                       AVENIDA FREDERICO OZANAN - 5504 - VILA R            13215276                                                            000014
2SR. CAIXA, APOS O VENCIMENTO COBRAR 10% DE MULTA                                NAO RECEBER APOS 30 DIAS DO VENCIMENTO.                                                                                                                                                                                                         01012000000000000000101200000000000000       0090770900016748908304012018000015
100000000000000000000009077090001674800000000000000000000000010002100027093901201P00000000002            2  01270939012009012000000002988080000000001N010120000000000000000000000000000000000000000000000000000000000000000100027093944809DAVID ALEXANDRE XAVIER ROCHA            RUA MONTE CASTELO - 296 AP.54 - AVIACAO             11702720                                                            000017
2SR. CAIXA, APOS O VENCIMENTO COBRAR 10% DE MULTA                                NAO RECEBER APOS 30 DIAS DO VENCIMENTO.                                                                                                                                                                                                         01012000000000000000101200000000000000       009077090001674827093901201P000018
100000000000000000000009077090001674800000000000000000000000010002100068273201201600000000002            2  01682732012009012000000002175110000000001N010120000000000000000000000000000000000000000000000000000000000000000100068273290891DERNEVAL JOSE MUNIZ                     RUA MARTINOPOLIS - 98 - JARDIM OTAWA - G            07230230                                                            000020
2SR. CAIXA, APOS O VENCIMENTO COBRAR 10% DE MULTA                                NAO RECEBER APOS 30 DIAS DO VENCIMENTO.                                                                                                                                                                                                         01012000000000000000101200000000000000       0090770900016748682732012016000021
100000000000000000000009077090001674800000000000000000000000010002100001817501201900000000002            2  01018175012009012000000001858900000000001N010120000000000000000000000000000000000000000000000000000000000000000100001817534807SANTINA SALVINA SOARES                  RUA CAIAPOS - 1066 AP.43 - VILA TUPI - P            11703320                                                            000023
2SR. CAIXA, APOS O VENCIMENTO COBRAR 10% DE MULTA                                NAO RECEBER APOS 30 DIAS DO VENCIMENTO.                                                                                                                                                                                                         01012000000000000000101200000000000000       0090770900016748018175012019000024
100000000000000000000009077090001674800000000000000000000000010002100086755701201600000000002            2  01867557012009012000000002008240000000001N010120000000000000000000000000000000000000000000000000000000000000000100086755790800GERALDO JAIR BROGLIATTO                 DR.ARMANDO COSTA MAGALHAES - 176 - VILA             13270490                                                            000026
2SR. CAIXA, APOS O VENCIMENTO COBRAR 10% DE MULTA                                NAO RECEBER APOS 30 DIAS DO VENCIMENTO.                                                                                                                                                                                                         01012000000000000000101200000000000000       0090770900016748867557012016000027
100000000000000000000009077090001674800000000000000000000000010002100007996001201P00000000002            2  01079960012009012000000001994970000000001N010120000000000000000000000000000000000000000000000000000000000000000100007996062862HENRIQUE SALVADOR                       RUA DARDANELOS - 689 - PARQUE NOVO ORATO            09260060                                                            000029
2SR. CAIXA, APOS O VENCIMENTO COBRAR 10% DE MULTA                                NAO RECEBER APOS 30 DIAS DO VENCIMENTO.                                                                                                                                                                                                         01012000000000000000101200000000000000       009077090001674807996001201P000030
100000000000000000000009077090001674800000000000000000000000010002100010066001201700000000002            2  01100660012009012000000002672580000000001N010120000000000000000000000000000000000000000000000000000000000000000100010066071534MOISES ROQUE DO ROSARIO                 RUA DAS PAPOULAS - 53 - VILA BELA - SAO             03202010                                                            000032
2SR. CAIXA, APOS O VENCIMENTO COBRAR 10% DE MULTA                                NAO RECEBER APOS 30 DIAS DO VENCIMENTO.                                                                                                                                                                                                         01012000000000000000101200000000000000       0090770900016748100660012017000033
100000000000000000000009077090001674800000000000000000000000010002100085910001201800000000002            2  01859100012009012000000003049490000000001N010120000000000000000000000000000000000000000000000000000000000000000100085910031872SERGIO NOGUEIRA                         RUA MONTE CASTELO - 262 AP.55 - AVIACAO             11702720                                                            000035
2SR. CAIXA, APOS O VENCIMENTO COBRAR 10% DE MULTA                                NAO RECEBER APOS 30 DIAS DO VENCIMENTO.                                                                                                                                                                                                         01012000000000000000101200000000000000       0090770900016748859100012018000036
100000000000000000000009077090001674800000000000000000000000010002100000746801201100000000002            2  01007468012009012000000006163560000000001N010120000000000000000000000000000000000000000000000000000000000000000100000746845820ANTONIO CARLOS DE MELLO                 RUA CONGO - 118 - PARQUE MONTE ALEGRE -             06756270                                                            000038
2SR. CAIXA, APOS O VENCIMENTO COBRAR 10% DE MULTA                                NAO RECEBER APOS 30 DIAS DO VENCIMENTO.                                                                                                                                                                                                         01012000000000000000101200000000000000       0090770900016748007468012011000039
100000000000000000000009077090001674800000000000000000000000010002100000746801202P00000000002            2  01007468012009012000000002465420000000001N010120000000000000000000000000000000000000000000000000000000000000000100000746845820ANTONIO CARLOS DE MELLO                 RUA CONGO - 118 - PARQUE MONTE ALEGRE -             06756270                                                            000041
2SR. CAIXA, APOS O VENCIMENTO COBRAR 10% DE MULTA                                NAO RECEBER APOS 30 DIAS DO VENCIMENTO.                                                                                                                                                                                                         01012000000000000000101200000000000000       009077090001674800746801202P000042
100000000000000000000009077090001674800000000000000000000000010002100028196101201700000000002            2  01281961012009012000000001775320000000001N010120000000000000000000000000000000000000000000000000000000000000000100028196184808VANESSA NOGUEIRA CAMBUI DA SILVA        CRISTOVAO COLOMBO - 217 - VILA AMERICA -            09110160                                                            000044
2SR. CAIXA, APOS O VENCIMENTO COBRAR 10% DE MULTA                                NAO RECEBER APOS 30 DIAS DO VENCIMENTO.                                                                                                                                                                                                         01012000000000000000101200000000000000       0090770900016748281961012017000045
100000000000000000000009077090001674800000000000000000000000010002100049730801201200000000002            2  01497308012009012000000001457310000000001N010120000000000000000000000000000000000000000000000000000000000000000100049730835420PEDRO LUIZ DO BOM FIM FILHO             RUA NASCER DO SOL - 91 - BAIRRO PIRAPORI            09951475                                                            000047
2SR. CAIXA, APOS O VENCIMENTO COBRAR 10% DE MULTA                                NAO RECEBER APOS 30 DIAS DO VENCIMENTO.                                                                                                                                                                                                         01012000000000000000101200000000000000       0090770900016748497308012012000048
100000000000000000000009077090001674800000000000000000000000010002100027067001201800000000002            2  01270670012009012000000001808070000000001N010120000000000000000000000000000000000000000000000000000000000000000100027067002893MARCIA NASCIMENTO DE MORAES             RUA MONTE CASTELO - 296 AP.11 - AVIACAO             11702720                                                            000050
2SR. CAIXA, APOS O VENCIMENTO COBRAR 10% DE MULTA                                NAO RECEBER APOS 30 DIAS DO VENCIMENTO.                                                                                                                                                                                                         01012000000000000000101200000000000000       0090770900016748270670012018000051
100000000000000000000009077090001674800000000000000000000000010002100064435701201200000000002            2  01644357012009012000000001808070000000001N010120000000000000000000000000000000000000000000000000000000000000000100064435741849JURACY DA SILVA                         RUA JACARATINGA - 192 - JARDIM PIRAJUCAR            05786120                                                            000053
2SR. CAIXA, APOS O VENCIMENTO COBRAR 10% DE MULTA                                NAO RECEBER APOS 30 DIAS DO VENCIMENTO.                                                                                                                                                                                                         01012000000000000000101200000000000000       0090770900016748644357012012000054
100000000000000000000009077090001674800000000000000000000000010002100094921801201100000000002            2  01949218012009012000000001794610000000001N010120000000000000000000000000000000000000000000000000000000000000000100094921890897JOAO JORGE DA ROSA FILHO                RUA OLAVO EGIDIO DE SOUZA ARANHA - 368 A            03822000                                                            000056
2SR. CAIXA, APOS O VENCIMENTO COBRAR 10% DE MULTA                                NAO RECEBER APOS 30 DIAS DO VENCIMENTO.                                                                                                                                                                                                         01012000000000000000101200000000000000       0090770900016748949218012011000057
100000000000000000000009077090001674800000000000000000000000010002100008364801201800000000002            2  01083648012009012000000002177120000000001N010120000000000000000000000000000000000000000000000000000000000000000100008364834800JOSEFINA CORREA RAMA DOS SANTOS         AVENIDA PRESIDENTE CASTELO BRANCO - 3.78            11702700                                                            000059
2SR. CAIXA, APOS O VENCIMENTO COBRAR 10% DE MULTA                                NAO RECEBER APOS 30 DIAS DO VENCIMENTO.                                                                                                                                                                                                         01012000000000000000101200000000000000       0090770900016748083648012018000060
100000000000000000000009077090001674800000000000000000000000010002100037713301201900000000002            2  01377133012009012000000001781250000000001N010120000000000000000000000000000000000000000000000000000000000000000100037713356800JAMILLE PAULA BUENO LOPES               RUA CURIO (COND.NEW VILLE) - 172 - SURU             06509031                                                            000062
2SR. CAIXA, APOS O VENCIMENTO COBRAR 10% DE MULTA                                NAO RECEBER APOS 30 DIAS DO VENCIMENTO.                                                                                                                                                                                                         01012000000000000000101200000000000000       0090770900016748377133012019000063
100000000000000000000009077090001674800000000000000000000000010002100027100901201600000000002            2  01271009012009012000000002075180000000001N010120000000000000000000000000000000000000000000000000000000000000000100027100951810MARCIA RAMALHO RODRIGUES                RUA MONTE CASTELO - 296 AP.82 - AVIACAO             11702720                                                            000065
2SR. CAIXA, APOS O VENCIMENTO COBRAR 10% DE MULTA                                NAO RECEBER APOS 30 DIAS DO VENCIMENTO.                                                                                                                                                                                                         01012000000000000000101200000000000000       0090770900016748271009012016000066
100000000000000000000009077090001674800000000000000000000000010002100076207901201700000000002            2  01762079012009012000000002238020000000001N010120000000000000000000000000000000000000000000000000000000000000000100076207943872JOSE MACEDO RICARTE FILHO               RUA ARTUR LOBO - 181 - JARDIM JABAQUARA             04384060                                                            000068
2SR. CAIXA, APOS O VENCIMENTO COBRAR 10% DE MULTA                                NAO RECEBER APOS 30 DIAS DO VENCIMENTO.                                                                                                                                                                                                         01012000000000000000101200000000000000       0090770900016748762079012017000069
100000000000000000000009077090001674800000000000000000000000010002100094672601201P00000000002            2  01946726012009012000000002826380000000001N010120000000000000000000000000000000000000000000000000000000000000000100094672660834JOSE HENRIQUE SOARES PEREIRA INACIO     RUA MONTE CASTELO - 296 AP.34 - AVIACAO             11702720                                                            000071
2SR. CAIXA, APOS O VENCIMENTO COBRAR 10% DE MULTA                                NAO RECEBER APOS 30 DIAS DO VENCIMENTO.                                                                                                                                                                                                         01012000000000000000101200000000000000       009077090001674894672601201P000072
100000000000000000000009077090001674800000000000000000000000010002100025265201201000000000002            2  01252652012009012000000001536730000000001N010120000000000000000000000000000000000000000000000000000000000000000100025265260862SONIA MARIA CECILIO DA SILVA            RUA PRESIDENTE TANCREDO NEVES - 1093 AP.            06329350                                                            000074
2SR. CAIXA, APOS O VENCIMENTO COBRAR 10% DE MULTA                                NAO RECEBER APOS 30 DIAS DO VENCIMENTO.                                                                                                                                                                                                         01012000000000000000101200000000000000       0090770900016748252652012010000075
100000000000000000000009077090001674800000000000000000000000010002100011381901201800000000002            2  01113819012009012000000002928940000000001N010120000000000000000000000000000000000000000000000000000000000000000100011381987818MARIO DONIZETE MIGUEL DA SILVA          RUA JASPE - 215 - HIGIANOPOLIS - JANDIRA            06642270                                                            000077
2SR. CAIXA, APOS O VENCIMENTO COBRAR 10% DE MULTA                                NAO RECEBER APOS 30 DIAS DO VENCIMENTO.                                                                                                                                                                                                         01012000000000000000101200000000000000       0090770900016748113819012018000078
100000000000000000000009077090001674800000000000000000000000010002100020105501201400000000002            2  01201055012009012000000002374150000000001N010120000000000000000000000000000000000000000000000000000000000000000100020105503827VALTER DE SOUSA LIBARINO FILHO          RUA DAS PAINEIRAS - 140 - BAIRRO LARANJE            07741205                                                            000080
2SR. CAIXA, APOS O VENCIMENTO COBRAR 10% DE MULTA                                NAO RECEBER APOS 30 DIAS DO VENCIMENTO.                                                                                                                                                                                                         01012000000000000000101200000000000000       0090770900016748201055012014000081
100000000000000000000009077090001674800000000000000000000000010002100003010501201100000000002            2  01030105012009012000000002565280000000001N010120000000000000000000000000000000000000000000000000000000000000000100003010502877GIZELA VIEIRA BARROS                    RUA GIACOMO DALCIN - 157 - NOVA GERTY -             09580350                                                            000083
2SR. CAIXA, APOS O VENCIMENTO COBRAR 10% DE MULTA                                NAO RECEBER APOS 30 DIAS DO VENCIMENTO.                                                                                                                                                                                                         01012000000000000000101200000000000000       0090770900016748030105012011000084
100000000000000000000009077090001674800000000000000000000000010002100036712501201200000000002            2  01367125012009012000000001910910000000001N010120000000000000000000000000000000000000000000000000000000000000000100036712580803WALTER BARRETO DE ALMEIDA               RUA MONTE CASTELO - 296 AP.44 - AVIACAO             11702720                                                            000086
2SR. CAIXA, APOS O VENCIMENTO COBRAR 10% DE MULTA                                NAO RECEBER APOS 30 DIAS DO VENCIMENTO.                                                                                                                                                                                                         01012000000000000000101200000000000000       0090770900016748367125012012000087
100000000000000000000009077090001674800000000000000000000000010002100004213001201600000000002            2  01042130012009012000000001867060000000001N010120000000000000000000000000000000000000000000000000000000000000000100004213020894ELIETE DRUGOVICH DE LIMA                RUA OSVALDO CRUZ - 141 AP.144-B - SANTA             09541270                                                            000089
2SR. CAIXA, APOS O VENCIMENTO COBRAR 10% DE MULTA                                NAO RECEBER APOS 30 DIAS DO VENCIMENTO.                                                                                                                                                                                                         01012000000000000000101200000000000000       0090770900016748042130012016000090
9                                                                                                                                                                                                                                                                                                                                                                                                         000091