01REMESSA01COBRANCA       00000000000004991454AIRES CONSTRUTORA E INCORPORAD237BRADESCO       081019        MX0000142                                                                                                                                                                                                                                                                                     000001
100000000000000000000009077090001674800000000000000000000000010002100026984110192P00000000002            2  01269841101924101900000001531480000000001N071019000000000000000000000000000000000000000000000000000000000000000100026984181844GISELE APARECIDA MAGALHAES              RUA GRACILIANO RAMOS - 181 - BAIRRO SAO             09581410                                                            000002
2SR. CAIXA, APOS O VENCIMENTO COBRAR 10% DE MULTA                                NAO RECEBER APOS 30 DIAS DO VENCIMENTO.                                                                                                                                                                                                         08101900000000000000810190000000000000       009077090001674826984110192P000003
100000000000000000000009077090001674800000000000000000000000010002100068806210191600000000002            2  01688062101924101900000001359180000000001N071019000000000000000000000000000000000000000000000000000000000000000100068806272853FATIMA MOREIRA SALOMAO                  RUA TORQUATO DE CAMILLO - 84 - CARANDA B            79032031                                                            000005
2SR. CAIXA, APOS O VENCIMENTO COBRAR 10% DE MULTA                                NAO RECEBER APOS 30 DIAS DO VENCIMENTO.                                                                                                                                                                                                         08101900000000000000810190000000000000       0090770900016748688062101916000006
100000000000000000000009077090001674800000000000000000000000010002100004201610191200000000002            2  01042016101924101900000001974060000000001N071019000000000000000000000000000000000000000000000000000000000000000100004201640817SANDRA APARECIDA TOJAL                  AVENIDA MASCOTE - 81 AP.132 BL.A - VILA             04363000                                                            000008
2SR. CAIXA, APOS O VENCIMENTO COBRAR 10% DE MULTA                                NAO RECEBER APOS 30 DIAS DO VENCIMENTO.                                                                                                                                                                                                         08101900000000000000810190000000000000       0090770900016748042016101912000009
100000000000000000000009077090001674800000000000000000000000010002100000024610191700000000002            2  01000246101924101900000002350050000000001N071019000000000000000000000000000000000000000000000000000000000000000100000024633852JAYME MASRI                             RUA MONTE CASTELO - 296 AP.24 - BAIRRO A            11702720                                                            000011
2SR. CAIXA, APOS O VENCIMENTO COBRAR 10% DE MULTA                                NAO RECEBER APOS 30 DIAS DO VENCIMENTO.                                                                                                                                                                                                         08101900000000000000810190000000000000       0090770900016748000246101917000012
100000000000000000000009077090001674800000000000000000000000010002100013184410191000000000002            2  01131844101924101900000002440210000000001N071019000000000000000000000000000000000000000000000000000000000000000100013184404838CLAUDIO GOMES BAHIA                     RUA MARIA CONCEICAO - 89 - VILA SAO PEDR            07032070                                                            000014
2SR. CAIXA, APOS O VENCIMENTO COBRAR 10% DE MULTA                                NAO RECEBER APOS 30 DIAS DO VENCIMENTO.                                                                                                                                                                                                         08101900000000000000810190000000000000       0090770900016748131844101910000015
100000000000000000000009077090001674800000000000000000000000010002100006055510191600000000002            2  01060555101924101900000003695310000000001N071019000000000000000000000000000000000000000000000000000000000000000100006055565803EDSON ALVES                             RUA EDGAR CODAZZI - 49 CASA 02 - CIDADE             08225280                                                            000017
2SR. CAIXA, APOS O VENCIMENTO COBRAR 10% DE MULTA                                NAO RECEBER APOS 30 DIAS DO VENCIMENTO.                                                                                                                                                                                                         08101900000000000000810190000000000000       0090770900016748060555101916000018
100000000000000000000009077090001674800000000000000000000000010002100021899210191P00000000002            2  01218992101924101900000002692400000000001N071019000000000000000000000000000000000000000000000000000000000000000100021899277811ALESSANDRE ALVES ANDRADE                RUA MONTE CASTELO - 262 AP.132 - AVIACAO            11702720                                                            000020
2SR. CAIXA, APOS O VENCIMENTO COBRAR 10% DE MULTA                                NAO RECEBER APOS 30 DIAS DO VENCIMENTO.                                                                                                                                                                                                         08101900000000000000810190000000000000       009077090001674821899210191P000021
100000000000000000000009077090001674800000000000000000000000010002100003441210191400000000002            2  01034412101924101900000002347650000000001N071019000000000000000000000000000000000000000000000000000000000000000100003441232860LUIZ CARLOS CAMARGO BIANCHI             RUA GENERAL LEITE DE CASTRO - 200 - JARD            04182020                                                            000023
2SR. CAIXA, APOS O VENCIMENTO COBRAR 10% DE MULTA                                NAO RECEBER APOS 30 DIAS DO VENCIMENTO.                                                                                                                                                                                                         08101900000000000000810190000000000000       0090770900016748034412101914000024
100000000000000000000009077090001674800000000000000000000000010002100014681410191300000000002            2  01146814101924101900000002435490000000001N071019000000000000000000000000000000000000000000000000000000000000000100014681490830HUMBERTO MOZART CALIXTO                 RUA MONTE CASTELO - 296 AP.41 - AVIACAO             11702720                                                            000026
2SR. CAIXA, APOS O VENCIMENTO COBRAR 10% DE MULTA                                NAO RECEBER APOS 30 DIAS DO VENCIMENTO.                                                                                                                                                                                                         08101900000000000000810190000000000000       0090770900016748146814101913000027
100000000000000000000009077090001674800000000000000000000000010002100023007710191600000000002            2  01230077101924101900000001991380000000001N071019000000000000000000000000000000000000000000000000000000000000000100023007705800BRUNA ANTUN AZEVEDO                     RUA MONTE CASTELO - 296 AP.62 - AVIACAO             11702720                                                            000029
2SR. CAIXA, APOS O VENCIMENTO COBRAR 10% DE MULTA                                NAO RECEBER APOS 30 DIAS DO VENCIMENTO.                                                                                                                                                                                                         08101900000000000000810190000000000000       0090770900016748230077101916000030
100000000000000000000009077090001674800000000000000000000000010002100006550710191400000000002            2  01065507101924101900000002056080000000001N071019000000000000000000000000000000000000000000000000000000000000000100006550730864IVONE APARECIDA VIEIRA GADI TEIXEIRA    RUA SAO FLORENCIO  - 1500 AP.44 BLOCO 01            03733020                                                            000032
2SR. CAIXA, APOS O VENCIMENTO COBRAR 10% DE MULTA                                NAO RECEBER APOS 30 DIAS DO VENCIMENTO.                                                                                                                                                                                                         08101900000000000000810190000000000000       0090770900016748065507101914000033
100000000000000000000009077090001674800000000000000000000000010002100006550710192200000000002            2  01065507101924101900000002056070000000001N071019000000000000000000000000000000000000000000000000000000000000000100006550730864IVONE APARECIDA VIEIRA GADI TEIXEIRA    RUA SAO FLORENCIO  - 1500 AP.44 BLOCO 01            03733020                                                            000035
2SR. CAIXA, APOS O VENCIMENTO COBRAR 10% DE MULTA                                NAO RECEBER APOS 30 DIAS DO VENCIMENTO.                                                                                                                                                                                                         08101900000000000000810190000000000000       0090770900016748065507101922000036
100000000000000000000009077090001674800000000000000000000000010002100075574010191200000000002            2  01755740101924101900000003182690000000001N071019000000000000000000000000000000000000000000000000000000000000000100075574063891CASSIO TADEU DA SILVEIRA                RUA CONSELHEIRO MOREIRA DE BARROS - 1.55            02430000                                                            000038
2SR. CAIXA, APOS O VENCIMENTO COBRAR 10% DE MULTA                                NAO RECEBER APOS 30 DIAS DO VENCIMENTO.                                                                                                                                                                                                         08101900000000000000810190000000000000       0090770900016748755740101912000039
100000000000000000000009077090001674800000000000000000000000010002100000764610191000000000002            2  01007646101924101900000002353760000000001N071019000000000000000000000000000000000000000000000000000000000000000100000764632817LUIZ CARLOS ANTUNES JUNIOR              RUA MONTE CASTELO - 262 AP.35 - AVIACAO             11702720                                                            000041
2SR. CAIXA, APOS O VENCIMENTO COBRAR 10% DE MULTA                                NAO RECEBER APOS 30 DIAS DO VENCIMENTO.                                                                                                                                                                                                         08101900000000000000810190000000000000       0090770900016748007646101910000042
100000000000000000000009077090001674800000000000000000000000010002100066104110191000000000002            2  01661041101924101900000002379490000000001N071019000000000000000000000000000000000000000000000000000000000000000100066104106820ANADIR FERREIRA                         RUA MONTE CASTELO - 296 AP.61 - AVIACAO             11702720                                                            000044
2SR. CAIXA, APOS O VENCIMENTO COBRAR 10% DE MULTA                                NAO RECEBER APOS 30 DIAS DO VENCIMENTO.                                                                                                                                                                                                         08101900000000000000810190000000000000       0090770900016748661041101910000045
100000000000000000000009077090001674800000000000000000000000010002100057014510191700000000002            2  01570145101924101900000002671610000000001N071019000000000000000000000000000000000000000000000000000000000000000100057014582887SONIA MARIA DA SILVA PEGORARO           RUA FRANCO PAULISTA  - 80 - AGUA FRIA -             02332030                                                            000047
2SR. CAIXA, APOS O VENCIMENTO COBRAR 10% DE MULTA                                NAO RECEBER APOS 30 DIAS DO VENCIMENTO.                                                                                                                                                                                                         08101900000000000000810190000000000000       0090770900016748570145101917000048
100000000000000000000009077090001674800000000000000000000000010002100006505310191400000000002            2  01065053101924101900000002903780000000001N071019000000000000000000000000000000000000000000000000000000000000000100006505382852LUIS ANTONIO DINIS HENRIQUES            RUA ESTEVAO  BAIAO - 520 AP.93A - CAMPO             04624002                                                            000050
2SR. CAIXA, APOS O VENCIMENTO COBRAR 10% DE MULTA                                NAO RECEBER APOS 30 DIAS DO VENCIMENTO.                                                                                                                                                                                                         08101900000000000000810190000000000000       0090770900016748065053101914000051
100000000000000000000009077090001674800000000000000000000000010002100011544710191700000000002            2  01115447101924101900000005275100000000001N071019000000000000000000000000000000000000000000000000000000000000000100011544777620GRACIELY RODRIGUES FERNANDES            RUA MONTE CASTELO - 262 AP.111 - AVIACAO            11702720                                                            000053
2SR. CAIXA, APOS O VENCIMENTO COBRAR 10% DE MULTA                                NAO RECEBER APOS 30 DIAS DO VENCIMENTO.                                                                                                                                                                                                         08101900000000000000810190000000000000       0090770900016748115447101917000054
100000000000000000000009077090001674800000000000000000000000010002100005629010191100000000002            2  01056290101924101900000003836560000000001N071019000000000000000000000000000000000000000000000000000000000000000100005629087819ROMILDO MARTINS PIZA                    RUA MAESTRO ARTURO DE ANGELIS - 190 AP.3            05139010                                                            000056
2SR. CAIXA, APOS O VENCIMENTO COBRAR 10% DE MULTA                                NAO RECEBER APOS 30 DIAS DO VENCIMENTO.                                                                                                                                                                                                         08101900000000000000810190000000000000       0090770900016748056290101911000057
100000000000000000000009077090001674800000000000000000000000010002100034325510191600000000002            2  01343255101924101900000001936080000000001N071019000000000000000000000000000000000000000000000000000000000000000100034325567801LUIZ FERNANDO ALAMINO                   RUA GALDINO NASCIMENTO - 45 - PARQUE GUA            08431650                                                            000059
2SR. CAIXA, APOS O VENCIMENTO COBRAR 10% DE MULTA                                NAO RECEBER APOS 30 DIAS DO VENCIMENTO.                                                                                                                                                                                                         08101900000000000000810190000000000000       0090770900016748343255101916000060
100000000000000000000009077090001674800000000000000000000000010002100021335410191900000000002            2  01213354101924101900000001465100000000001N071019000000000000000000000000000000000000000000000000000000000000000100021335464808RAQUEL FERREIRA RAMOS                   RUA ANTONIO SEVERIANO DE ANDRADE E SILVA            11702400                                                            000062
2SR. CAIXA, APOS O VENCIMENTO COBRAR 10% DE MULTA                                NAO RECEBER APOS 30 DIAS DO VENCIMENTO.                                                                                                                                                                                                         08101900000000000000810190000000000000       0090770900016748213354101919000063
100000000000000000000009077090001674800000000000000000000000010002100005627910191800000000002            2  01056279101924101900000001717970000000001N071019000000000000000000000000000000000000000000000000000000000000000100005627947861FERNANDO CESAR MARCELINO                TRAVESSA CHARLES LEBRUN - 83 - VILA NOVA            02312060                                                            000065
2SR. CAIXA, APOS O VENCIMENTO COBRAR 10% DE MULTA                                NAO RECEBER APOS 30 DIAS DO VENCIMENTO.                                                                                                                                                                                                         08101900000000000000810190000000000000       0090770900016748056279101918000066
100000000000000000000009077090001674800000000000000000000000010002100026187910191400000000002            2  01261879101924101900000001792750000000001N071019000000000000000000000000000000000000000000000000000000000000000100026187960807CARINA CANTACESSO DE SOUZA              RUA MONTE CASTELO - 296 AP.91 - AVIACAO             11702720                                                            000068
2SR. CAIXA, APOS O VENCIMENTO COBRAR 10% DE MULTA                                NAO RECEBER APOS 30 DIAS DO VENCIMENTO.                                                                                                                                                                                                         08101900000000000000810190000000000000       0090770900016748261879101914000069
100000000000000000000009077090001674800000000000000000000000010002100004864910191P00000000002            2  01048649101924101900000002396080000000001N071019000000000000000000000000000000000000000000000000000000000000000100004864924600RENATO SANTACHIARA SALVADORI            RUA PENSYLVANIA - 116 - PAYSAGE BRISE -             06730000                                                            000071
2SR. CAIXA, APOS O VENCIMENTO COBRAR 10% DE MULTA                                NAO RECEBER APOS 30 DIAS DO VENCIMENTO.                                                                                                                                                                                                         08101900000000000000810190000000000000       009077090001674804864910191P000072
100000000000000000000009077090001674800000000000000000000000010002100026647610191600000000002            2  01266476101924101900000002654000000000001N071019000000000000000000000000000000000000000000000000000000000000000100026647690816CLAUDIA FUKUDA OGATA BURATTO            RUA DINAMARCA - 449 - BAIRRO TABOAO - SA            09668080                                                            000074
2SR. CAIXA, APOS O VENCIMENTO COBRAR 10% DE MULTA                                NAO RECEBER APOS 30 DIAS DO VENCIMENTO.                                                                                                                                                                                                         08101900000000000000810190000000000000       0090770900016748266476101916000075
9                                                                                                                                                                                                                                                                                                                                                                                                         000076