01REMESSA01COBRANCA       00000000000004991788AIRES DESENVOLVIMENTO IMOBILIA237BRADESCO       010320        MX0000172                                                                                                                                                                                                                                                                                     000001
100000000000000000000009077090011897400000000000000000000000010002100012708303201700000000002            2  01127083032010032000000001907350000000001N010320000000000000000000000000000000000000000000000000000000000000000100012708342827ADRIANA RATIER CRUZ                     RUA JOSE CALIXTO DO CARMO - 295 APTO 31             11702690                                                            000002
2SR. CAIXA, APOS O VENCIMENTO COBRAR 10% DE MULTA                                NAO RECEBER APOS 30 DIAS DO VENCIMENTO.                                                                                                                                                                                                         01032000000000000000103200000000000000       0090770900118974127083032017000003
100000000000000000000009077090011897400000000000000000000000010002100000452403201300000000002            2  01004524032010032000000001413120000000001N010320000000000000000000000000000000000000000000000000000000000000000100000452415896MARILUCE SANTOS DE ALMEIDA              RUA JOSE CALIXTO DO CARMO - 295 AP.74 -             11702690                                                            000005
2SR. CAIXA, APOS O VENCIMENTO COBRAR 10% DE MULTA                                NAO RECEBER APOS 30 DIAS DO VENCIMENTO.                                                                                                                                                                                                         01032000000000000000103200000000000000       0090770900118974004524032013000006
100000000000000000000009077090011897400000000000000000000000010002100001461003201300000000002            2  01014610032009032000000001459720000000001N010320000000000000000000000000000000000000000000000000000000000000000100001461096863ARGEVAL LOURENCO MAZOLA                 RUA ZELY DIAS DE FIGUEIREDO - 81 - VILA             02617060                                                            000008
2SR. CAIXA, APOS O VENCIMENTO COBRAR 10% DE MULTA                                NAO RECEBER APOS 30 DIAS DO VENCIMENTO.                                                                                                                                                                                                         01032000000000000000103200000000000000       0090770900118974014610032013000009
100000000000000000000009077090011897400000000000000000000000010002100013191203201900000000002            2  01131912032011032000000001800000000000001N010320000000000000000000000000000000000000000000000000000000000000000100013191291881MARCELO RICARDO MASCAROS SOUTO          RUA MONTE CASTELO - 295 AP.102 - AVIACAO            11702720                                                            000011
2SR. CAIXA, APOS O VENCIMENTO COBRAR 10% DE MULTA                                NAO RECEBER APOS 30 DIAS DO VENCIMENTO.                                                                                                                                                                                                         01032000000000000000103200000000000000       0090770900118974131912032019000012
9                                                                                                                                                                                                                                                                                                                                                                                                         000013