01REMESSA01COBRANCA       00000000000004991788AIRES DESENVOLVIMENTO IMOBILIA237BRADESCO       010420        MX0000175                                                                                                                                                                                                                                                                                     000001
100000000000000000000009077090011897400000000000000000000000010002100027324004201P00000000002            2  01273240042024042000000001731160000000001N010420000000000000000000000000000000000000000000000000000000000000000100027324099874LEONARDO BORGES DUARTE SILVA            RUA JOSE CALIXTO DO CARMO - 265 AP.94 -             11702690                                                            000002
2SR. CAIXA, APOS O VENCIMENTO COBRAR 10% DE MULTA                                NAO RECEBER APOS 30 DIAS DO VENCIMENTO.                                                                                                                                                                                                         01042000000000000000104200000000000000       009077090011897427324004201P000003
100000000000000000000009077090011897400000000000000000000000010002100027300904201500000000002            2  01273009042024042000000001939640000000001N010420000000000000000000000000000000000000000000000000000000000000000100027300953816HOSANA DOS SANTOS MOLEIRO               RUA JOSE CALIXTO DO CARMO - 295 AP.61 -             11702690                                                            000005
2SR. CAIXA, APOS O VENCIMENTO COBRAR 10% DE MULTA                                NAO RECEBER APOS 30 DIAS DO VENCIMENTO.                                                                                                                                                                                                         01042000000000000000104200000000000000       0090770900118974273009042015000006
100000000000000000000009077090011897400000000000000000000000010002100006476004201400000000002            2  01064760042024042000000001666510000000001N010420000000000000000000000000000000000000000000000000000000000000000100006476037803CLAUDIO JOSE LEMOS                      RUA MISSIONS - 127 - VILA BUENOS AIRES -            03736060                                                            000008
2SR. CAIXA, APOS O VENCIMENTO COBRAR 10% DE MULTA                                NAO RECEBER APOS 30 DIAS DO VENCIMENTO.                                                                                                                                                                                                         01042000000000000000104200000000000000       0090770900118974064760042014000009
9                                                                                                                                                                                                                                                                                                                                                                                                         000010