01REMESSA01COBRANCA       00000000000004991788AIRES DESENVOLVIMENTO IMOBILIA237BRADESCO       010518        MX0000128                                                                                                                                                                                                                                                                                     000001
100000000000000000000009077090011897400000000000000000000000010002100021570805181P00000000002            2  01215708051810051800000002459250000000001N010518000000000000000000000000000000000000000000000000000000000000000100021570843805RODRIGO LESSANDRO FREGATE               RUA JOSE PEDRO DORO - 451 BLOCO RIO GRAN            02880010                                                            000002
2SR. CAIXA, APOS O VENCIMENTO COBRAR 10% DE MULTA                                NAO RECEBER APOS 30 DIAS DO VENCIMENTO.                                                                                                                                                                                                         01051800000000000000105180000000000000       009077090011897421570805181P000003
100000000000000000000009077090011897400000000000000000000000010002100007456805181100000000002            2  01074568051810051800000002398450000000001N010518000000000000000000000000000000000000000000000000000000000000000100007456836817REGINA CELIA RONDELLI                   RUA CANANEIA - 168 APTO 134 BL.C2 - SANT            09060480                                                            000005
2SR. CAIXA, APOS O VENCIMENTO COBRAR 10% DE MULTA                                NAO RECEBER APOS 30 DIAS DO VENCIMENTO.                                                                                                                                                                                                         01051800000000000000105180000000000000       0090770900118974074568051811000006
100000000000000000000009077090011897400000000000000000000000010002100007508705181400000000002            2  01075087051810051800000002823700000000001N010518000000000000000000000000000000000000000000000000000000000000000100007508759842LAERCIO DA CRUZ FERREIRA                RUA JOSE BENEDITO SALINAS - 110 APTO 161            04674200                                                            000008
2SR. CAIXA, APOS O VENCIMENTO COBRAR 10% DE MULTA                                NAO RECEBER APOS 30 DIAS DO VENCIMENTO.                                                                                                                                                                                                         01051800000000000000105180000000000000       0090770900118974075087051814000009
100000000000000000000009077090011897400000000000000000000000010002100022288705181500000000002            2  01222887051810051800000003023200000000001N010518000000000000000000000000000000000000000000000000000000000000000100022288772808FERNANDA TAVARES MASANO                 RUA JOSE CALIXTO DO CARMO - 265 AP. 124             11702690                                                            000011
2SR. CAIXA, APOS O VENCIMENTO COBRAR 10% DE MULTA                                NAO RECEBER APOS 30 DIAS DO VENCIMENTO.                                                                                                                                                                                                         01051800000000000000105180000000000000       0090770900118974222887051815000012
100000000000000000000009077090011897400000000000000000000000010002100032223805181900000000002            2  01322238051810051800000002823150000000001N010518000000000000000000000000000000000000000000000000000000000000000100032223890806ELISANGELA CAMARGO BRAGA                RUA JOSE CALIXTO DO CARMO - 265 AP.24 -             11702690                                                            000014
2SR. CAIXA, APOS O VENCIMENTO COBRAR 10% DE MULTA                                NAO RECEBER APOS 30 DIAS DO VENCIMENTO.                                                                                                                                                                                                         01051800000000000000105180000000000000       0090770900118974322238051819000015
100000000000000000000009077090011897400000000000000000000000010002100031000705181800000000002            2  01310007051810051800000002685990000000001N010518000000000000000000000000000000000000000000000000000000000000000100031000769828ANDREIA CARLA SOUSA                     RUA JOSE CALIXTO DO CARMO - 265 AP.73 -             11702690                                                            000017
2SR. CAIXA, APOS O VENCIMENTO COBRAR 10% DE MULTA                                NAO RECEBER APOS 30 DIAS DO VENCIMENTO.                                                                                                                                                                                                         01051800000000000000105180000000000000       0090770900118974310007051818000018
100000000000000000000009077090011897400000000000000000000000010002100005253105181800000000002            2  01052531051810051800000002388000000000001N010518000000000000000000000000000000000000000000000000000000000000000100005253129863ADILSON JOSE BORGES                     RUA CIRIACO JIMENEZ - 83 - PARQUE NACOES            02996070                                                            000020
2SR. CAIXA, APOS O VENCIMENTO COBRAR 10% DE MULTA                                NAO RECEBER APOS 30 DIAS DO VENCIMENTO.                                                                                                                                                                                                         01051800000000000000105180000000000000       0090770900118974052531051818000021
100000000000000000000009077090011897400000000000000000000000010002100003996805181000000000002            2  01039968051810051800000002523250000000001N010518000000000000000000000000000000000000000000000000000000000000000100003996827830RONALDO PINTO BORGES                    MAGNOLIA DELFIM DA SILVA - 44 - JARDIM O            05363040                                                            000023
2SR. CAIXA, APOS O VENCIMENTO COBRAR 10% DE MULTA                                NAO RECEBER APOS 30 DIAS DO VENCIMENTO.                                                                                                                                                                                                         01051800000000000000105180000000000000       0090770900118974039968051810000024
100000000000000000000009077090011897400000000000000000000000010002100012708305181P00000000002            2  01127083051810051800000001539180000000001N010518000000000000000000000000000000000000000000000000000000000000000100012708342827ADRIANA RATIER CRUZ                     RUA JOSE CALIXTO DO CARMO - 295 APTO 31             11702690                                                            000026
2SR. CAIXA, APOS O VENCIMENTO COBRAR 10% DE MULTA                                NAO RECEBER APOS 30 DIAS DO VENCIMENTO.                                                                                                                                                                                                         01051800000000000000105180000000000000       009077090011897412708305181P000027
100000000000000000000009077090011897400000000000000000000000010002100000452405181600000000002            2  01004524051810051800000001266260000000001N010518000000000000000000000000000000000000000000000000000000000000000100000452415896MARILUCE SANTOS DE ALMEIDA              RUA JOSE CALIXTO DO CARMO - 295 AP.74 -             11702690                                                            000029
2SR. CAIXA, APOS O VENCIMENTO COBRAR 10% DE MULTA                                NAO RECEBER APOS 30 DIAS DO VENCIMENTO.                                                                                                                                                                                                         01051800000000000000105180000000000000       0090770900118974004524051816000030
100000000000000000000009077090011897400000000000000000000000010002100003406905181700000000002            2  01034069051809051800000001385340000000001N010518000000000000000000000000000000000000000000000000000000000000000100003406972888RONALDO CANDIDO PANSONATO               AV. DOM JAIME DE BARROS CAMERA - 565 AP.            09895400                                                            000032
2SR. CAIXA, APOS O VENCIMENTO COBRAR 10% DE MULTA                                NAO RECEBER APOS 30 DIAS DO VENCIMENTO.                                                                                                                                                                                                         01051800000000000000105180000000000000       0090770900118974034069051817000033
100000000000000000000009077090011897400000000000000000000000010002100028379805181900000000002            2  01283798051801051800000003428970000000001N010518000000000000000000000000000000000000000000000000000000000000000100028379879805EDMILSON DANIEL GARCIA WATANUKI         AVENIDA PRESIDENTE CASTELO BRANCO - 4718            11702700                                                            000035
2SR. CAIXA, APOS O VENCIMENTO COBRAR 10% DE MULTA                                NAO RECEBER APOS 30 DIAS DO VENCIMENTO.                                                                                                                                                                                                         01051800000000000000105180000000000000       0090770900118974283798051819000036
9                                                                                                                                                                                                                                                                                                                                                                                                         000037