01REMESSA01COBRANCA       00000000000004991454AIRES CONSTRUTORA E INCORPORAD237BRADESCO       010820        MX0000162                                                                                                                                                                                                                                                                                     000001
100000000000000000000009077090001674800000000000000000000000010002100026984108201100000000002            2  01269841082024082000000001650290000000001N010820000000000000000000000000000000000000000000000000000000000000000100026984181844GISELE APARECIDA MAGALHAES              RUA GRACILIANO RAMOS - 181 - BAIRRO SAO             09581410                                                            000002
2SR. CAIXA, APOS O VENCIMENTO COBRAR 10% DE MULTA                                NAO RECEBER APOS 30 DIAS DO VENCIMENTO.                                                                                                                                                                                                         01082000000000000000108200000000000000       0090770900016748269841082011000003
100000000000000000000009077090001674800000000000000000000000010002100068806208201600000000002            2  01688062082024082000000001464610000000001N010820000000000000000000000000000000000000000000000000000000000000000100068806272853FATIMA MOREIRA SALOMAO                  RUA TORQUATO DE CAMILLO - 84 - CARANDA B            79032031                                                            000005
2SR. CAIXA, APOS O VENCIMENTO COBRAR 10% DE MULTA                                NAO RECEBER APOS 30 DIAS DO VENCIMENTO.                                                                                                                                                                                                         01082000000000000000108200000000000000       0090770900016748688062082016000006
100000000000000000000009077090001674800000000000000000000000010002100004201608201200000000002            2  01042016082024082000000002127220000000001N010820000000000000000000000000000000000000000000000000000000000000000100004201640817SANDRA APARECIDA TOJAL                  AVENIDA MASCOTE - 81 AP.132 BL.A - VILA             04363000                                                            000008
2SR. CAIXA, APOS O VENCIMENTO COBRAR 10% DE MULTA                                NAO RECEBER APOS 30 DIAS DO VENCIMENTO.                                                                                                                                                                                                         01082000000000000000108200000000000000       0090770900016748042016082012000009
100000000000000000000009077090001674800000000000000000000000010002100013184408201000000000002            2  01131844082024082000000002629530000000001N010820000000000000000000000000000000000000000000000000000000000000000100013184404838CLAUDIO GOMES BAHIA                     RUA MARIA CONCEICAO - 89 - VILA SAO PEDR            07032070                                                            000011
2SR. CAIXA, APOS O VENCIMENTO COBRAR 10% DE MULTA                                NAO RECEBER APOS 30 DIAS DO VENCIMENTO.                                                                                                                                                                                                         01082000000000000000108200000000000000       0090770900016748131844082010000012
100000000000000000000009077090001674800000000000000000000000010002100006055508201600000000002            2  01060555082024082000000003981990000000001N010820000000000000000000000000000000000000000000000000000000000000000100006055565803EDSON ALVES                             RUA EDGAR CODAZZI - 49 CASA 02 - CIDADE             08225280                                                            000014
2SR. CAIXA, APOS O VENCIMENTO COBRAR 10% DE MULTA                                NAO RECEBER APOS 30 DIAS DO VENCIMENTO.                                                                                                                                                                                                         01082000000000000000108200000000000000       0090770900016748060555082016000015
100000000000000000000009077090001674800000000000000000000000010002100003441208201400000000002            2  01034412082024082000000002529780000000001N010820000000000000000000000000000000000000000000000000000000000000000100003441232860LUIZ CARLOS CAMARGO BIANCHI             RUA GENERAL LEITE DE CASTRO - 200 - JARD            04182020                                                            000017
2SR. CAIXA, APOS O VENCIMENTO COBRAR 10% DE MULTA                                NAO RECEBER APOS 30 DIAS DO VENCIMENTO.                                                                                                                                                                                                         01082000000000000000108200000000000000       0090770900016748034412082014000018
100000000000000000000009077090001674800000000000000000000000010002100014681408201300000000002            2  01146814082024082000000002624440000000001N010820000000000000000000000000000000000000000000000000000000000000000100014681490830HUMBERTO MOZART CALIXTO                 RUA MONTE CASTELO - 296 AP.41 - AVIACAO             11702720                                                            000020
2SR. CAIXA, APOS O VENCIMENTO COBRAR 10% DE MULTA                                NAO RECEBER APOS 30 DIAS DO VENCIMENTO.                                                                                                                                                                                                         01082000000000000000108200000000000000       0090770900016748146814082013000021
100000000000000000000009077090001674800000000000000000000000010002100006550708201400000000002            2  01065507082024082000000002215600000000001N010820000000000000000000000000000000000000000000000000000000000000000100006550730864IVONE APARECIDA VIEIRA GADI TEIXEIRA    RUA SAO FLORENCIO  - 1500 AP.44 BLOCO 01            03733020                                                            000023
2SR. CAIXA, APOS O VENCIMENTO COBRAR 10% DE MULTA                                NAO RECEBER APOS 30 DIAS DO VENCIMENTO.                                                                                                                                                                                                         01082000000000000000108200000000000000       0090770900016748065507082014000024
100000000000000000000009077090001674800000000000000000000000010002100006550708202200000000002            2  01065507082024082000000002215590000000001N010820000000000000000000000000000000000000000000000000000000000000000100006550730864IVONE APARECIDA VIEIRA GADI TEIXEIRA    RUA SAO FLORENCIO  - 1500 AP.44 BLOCO 01            03733020                                                            000026
2SR. CAIXA, APOS O VENCIMENTO COBRAR 10% DE MULTA                                NAO RECEBER APOS 30 DIAS DO VENCIMENTO.                                                                                                                                                                                                         01082000000000000000108200000000000000       0090770900016748065507082022000027
100000000000000000000009077090001674800000000000000000000000010002100057014508201700000000002            2  01570145082024082000000002878890000000001N010820000000000000000000000000000000000000000000000000000000000000000100057014582887SONIA MARIA DA SILVA PEGORARO           RUA FRANCO PAULISTA  - 80 - AGUA FRIA -             02332030                                                            000029
2SR. CAIXA, APOS O VENCIMENTO COBRAR 10% DE MULTA                                NAO RECEBER APOS 30 DIAS DO VENCIMENTO.                                                                                                                                                                                                         01082000000000000000108200000000000000       0090770900016748570145082017000030
100000000000000000000009077090001674800000000000000000000000010002100006505308201400000000002            2  01065053082024082000000003129070000000001N010820000000000000000000000000000000000000000000000000000000000000000100006505382852LUIS ANTONIO DINIS HENRIQUES            RUA ESTEVAO  BAIAO - 520 AP.93A - CAMPO             04624002                                                            000032
2SR. CAIXA, APOS O VENCIMENTO COBRAR 10% DE MULTA                                NAO RECEBER APOS 30 DIAS DO VENCIMENTO.                                                                                                                                                                                                         01082000000000000000108200000000000000       0090770900016748065053082014000033
100000000000000000000009077090001674800000000000000000000000010002100011544708201700000000002            2  01115447082024082000000005684360000000001N010820000000000000000000000000000000000000000000000000000000000000000100011544777620GRACIELY RODRIGUES FERNANDES            RUA MONTE CASTELO - 262 AP.111 - AVIACAO            11702720                                                            000035
2SR. CAIXA, APOS O VENCIMENTO COBRAR 10% DE MULTA                                NAO RECEBER APOS 30 DIAS DO VENCIMENTO.                                                                                                                                                                                                         01082000000000000000108200000000000000       0090770900016748115447082017000036
100000000000000000000009077090001674800000000000000000000000010002100005629008201100000000002            2  01056290082024082000000004134220000000001N010820000000000000000000000000000000000000000000000000000000000000000100005629087819ROMILDO MARTINS PIZA                    RUA MAESTRO ARTURO DE ANGELIS - 190 AP.3            05139010                                                            000038
2SR. CAIXA, APOS O VENCIMENTO COBRAR 10% DE MULTA                                NAO RECEBER APOS 30 DIAS DO VENCIMENTO.                                                                                                                                                                                                         01082000000000000000108200000000000000       0090770900016748056290082011000039
100000000000000000000009077090001674800000000000000000000000010002100034325508201600000000002            2  01343255082024082000000002086290000000001N010820000000000000000000000000000000000000000000000000000000000000000100034325567801LUIZ FERNANDO ALAMINO                   RUA GALDINO NASCIMENTO - 45 - PARQUE GUA            08431650                                                            000041
2SR. CAIXA, APOS O VENCIMENTO COBRAR 10% DE MULTA                                NAO RECEBER APOS 30 DIAS DO VENCIMENTO.                                                                                                                                                                                                         01082000000000000000108200000000000000       0090770900016748343255082016000042
100000000000000000000009077090001674800000000000000000000000010002100021335408201900000000002            2  01213354082024082000000001578770000000001N010820000000000000000000000000000000000000000000000000000000000000000100021335464808RAQUEL FERREIRA RAMOS                   RUA ANTONIO SEVERIANO DE ANDRADE E SILVA            11702400                                                            000044
2SR. CAIXA, APOS O VENCIMENTO COBRAR 10% DE MULTA                                NAO RECEBER APOS 30 DIAS DO VENCIMENTO.                                                                                                                                                                                                         01082000000000000000108200000000000000       0090770900016748213354082019000045
100000000000000000000009077090001674800000000000000000000000010002100005627908201800000000002            2  01056279082024082000000001851270000000001N010820000000000000000000000000000000000000000000000000000000000000000100005627947861FERNANDO CESAR MARCELINO                TRAVESSA CHARLES LEBRUN - 83 - VILA NOVA            02312060                                                            000047
2SR. CAIXA, APOS O VENCIMENTO COBRAR 10% DE MULTA                                NAO RECEBER APOS 30 DIAS DO VENCIMENTO.                                                                                                                                                                                                         01082000000000000000108200000000000000       0090770900016748056279082018000048
100000000000000000000009077090001674800000000000000000000000010002100026187908201400000000002            2  01261879082024082000000001931840000000001N010820000000000000000000000000000000000000000000000000000000000000000100026187960807CARINA CANTACESSO DE SOUZA              RUA MONTE CASTELO - 296 AP.91 - AVIACAO             11702720                                                            000050
2SR. CAIXA, APOS O VENCIMENTO COBRAR 10% DE MULTA                                NAO RECEBER APOS 30 DIAS DO VENCIMENTO.                                                                                                                                                                                                         01082000000000000000108200000000000000       0090770900016748261879082014000051
100000000000000000000009077090001674800000000000000000000000010002100004864908201P00000000002            2  01048649082024082000000002581980000000001N010820000000000000000000000000000000000000000000000000000000000000000100004864924600RENATO SANTACHIARA SALVADORI            RUA PENSYLVANIA - 116 - PAYSAGE BRISE -             06730000                                                            000053
2SR. CAIXA, APOS O VENCIMENTO COBRAR 10% DE MULTA                                NAO RECEBER APOS 30 DIAS DO VENCIMENTO.                                                                                                                                                                                                         01082000000000000000108200000000000000       009077090001674804864908201P000054
100000000000000000000009077090001674800000000000000000000000010002100026647608201600000000002            2  01266476082024082000000002859900000000001N010820000000000000000000000000000000000000000000000000000000000000000100026647690816CLAUDIA FUKUDA OGATA BURATTO            RUA MONTE CASTELO - 262 AP.32 - AVIACAO             11702720                                                            000056
2SR. CAIXA, APOS O VENCIMENTO COBRAR 10% DE MULTA                                NAO RECEBER APOS 30 DIAS DO VENCIMENTO.                                                                                                                                                                                                         01082000000000000000108200000000000000       0090770900016748266476082016000057
100000000000000000000009077090001674800000000000000000000000010002100015762808201300000000002            2  01157628082024082000000001597250000000001N010820000000000000000000000000000000000000000000000000000000000000000100015762856852SANDRA DE OLIVEIRA                      RUA MONTE CASTELO - 262 AP.62 - AVIACAO             11702720                                                            000059
2SR. CAIXA, APOS O VENCIMENTO COBRAR 10% DE MULTA                                NAO RECEBER APOS 30 DIAS DO VENCIMENTO.                                                                                                                                                                                                         01082000000000000000108200000000000000       0090770900016748157628082013000060
100000000000000000000009077090001674800000000000000000000000010002100021899208201P00000000002            2  01218992082024082000000001782030000000001N010820000000000000000000000000000000000000000000000000000000000000000100021899277811ALESSANDRE ALVES ANDRADE                RUA MONTE CASTELO - 262 AP.132 - AVIACAO            11702720                                                            000062
2SR. CAIXA, APOS O VENCIMENTO COBRAR 10% DE MULTA                                NAO RECEBER APOS 30 DIAS DO VENCIMENTO.                                                                                                                                                                                                         01082000000000000000108200000000000000       009077090001674821899208201P000063
100000000000000000000009077090001674800000000000000000000000010002100031959408201900000000002            2  01319594082024082000000002145880000000001N010820000000000000000000000000000000000000000000000000000000000000000100031959406809RITA SIMAO ROCHA                        RUA MONTE CASTELO - 296 AP.62 - AVIACAO             11702720                                                            000065
2SR. CAIXA, APOS O VENCIMENTO COBRAR 10% DE MULTA                                NAO RECEBER APOS 30 DIAS DO VENCIMENTO.                                                                                                                                                                                                         01082000000000000000108200000000000000       0090770900016748319594082019000066
9                                                                                                                                                                                                                                                                                                                                                                                                         000067